{
	"data": {
		"bytecode": {
			"linkReferences": {},
			"object": "6101406040527f6e71edae12b1b97f4d1f60370fef10105fa2faae0126114a169c64845d6126c9610120523480156200003757600080fd5b506040518060400160405280601781526020017f4d656d65204465666920466163746f727920546f6b656e00000000000000000081525080604051806040016040528060018152602001603160f81b8152506040518060400160405280601781526020017f4d656d65204465666920466163746f727920546f6b656e000000000000000000815250604051806040016040528060088152602001671b595b595111519560c21b8152508160049080519060200190620000f8929190620003f0565b5080516200010e906005906020840190620003f0565b5050825160209384012082519284019290922060c083815260e08290524660a0818152604080517f8b73c3c69bb8fe3d512ecc4cf759cc79239f7b179b0ffacaa9a75d522b39400f818a018190528183019890985260608101959095526080808601939093523085830152805180860390920182529390920190925280519401939093209092526101005250620001a990506000336200028b565b620001d57faeaef46186eb59f884e36929b6d682a6ae35e1e43d8f05f058dcefb92b601461336200028b565b620002017fb5b5a86cc252b1b75a439c6ff372933ceb0690188924e6461150adeb00ab80d8336200028b565b6200022d7f02a8464c3e212c8f1064432774c6cc3e76f14bd7ccdafd9a1d1cf9b43b51e524336200028b565b620002597f233299fc8224c0cb5b2b8b651b93354cf11d5245f1374bb37773608ffa1913c1336200028b565b620002857f5772712b2943d95a931c0b3a7ddf59cba41b664500d9b93626000a17809f04d1336200028b565b620004d3565b620002a28282620002ce60201b6200261c1760201c565b6000828152600160209081526040909120620002c99183906200262a620002de821b17901c565b505050565b620002da8282620002fe565b5050565b6000620002f5836001600160a01b0384166200039e565b90505b92915050565b6000828152602081815260408083206001600160a01b038516845290915290205460ff16620002da576000828152602081815260408083206001600160a01b03851684529091529020805460ff191660011790556200035a3390565b6001600160a01b0316816001600160a01b0316837f2f8788117e7eff1d82e926ec794901d17c78024a50270940304540a733656f0d60405160405180910390a45050565b6000818152600183016020526040812054620003e757508154600181810184556000848152602080822090930184905584548482528286019093526040902091909155620002f8565b506000620002f8565b828054620003fe9062000496565b90600052602060002090601f0160209004810192826200042257600085556200046d565b82601f106200043d57805160ff19168380011785556200046d565b828001600101855582156200046d579182015b828111156200046d57825182559160200191906001019062000450565b506200047b9291506200047f565b5090565b5b808211156200047b576000815560010162000480565b600181811c90821680620004ab57607f821691505b60208210811415620004cd57634e487b7160e01b600052602260045260246000fd5b50919050565b60805160a05160c05160e051610100516101205161428e6200052360003960006124dd01526000612ed401526000612f2301526000612efe01526000612e8201526000612eab015261428e6000f3fe608060405234801561001057600080fd5b50600436106103405760003560e01c806366830b21116101bd5780639cff2eba116100f9578063c4bc5da5116100a2578063d505accf1161007c578063d505accf1461074f578063d547741f14610762578063dd62ed3e14610775578063eaf9d194146107ae57600080fd5b8063c4bc5da51461072c578063ca15c87314610734578063d391014b1461074757600080fd5b8063b187bd26116100d3578063b187bd26146106f9578063b492da9114610706578063c238651b1461071957600080fd5b80639cff2eba146106c0578063a457c2d7146106d3578063a9059cbb146106e657600080fd5b80638493712a1161016657806391d148541161014057806391d148541461063357806392afc33a1461066a57806395d89b411461069157806397c1d32f1461069957600080fd5b80638493712a146105e65780638cbfeb0c1461060d5780639010d07c1461062057600080fd5b8063789210b311610197578063789210b3146105a05780637ecebe00146105b357806382e17b65146105c657600080fd5b806366830b211461055a57806368a2972f1461056d57806370a082311461058d57600080fd5b8063209ab7111161028c5780633644e51511610235578063439766ce1161020f578063439766ce146105055780634abd991d1461050d57806354ff02d8146105205780635aacfa5d1461054757600080fd5b80633644e515146104d757806336568abe146104df57806339509351146104f257600080fd5b80632f2ff15d116102665780632f2ff15d146104af578063313ce567146104c25780633408e470146104d157600080fd5b8063209ab7111461046657806323b872dd14610479578063248a9ca31461048c57600080fd5b8063095ea7b3116102ee57806318a8ad87116102c857806318a8ad87146104385780631bf73b721461044b5780631f2eba241461045357600080fd5b8063095ea7b31461040a5780630bb9ff5d1461041d57806318160ddd1461043057600080fd5b806303ed957f1161031f57806303ed957f146103b557806306fb1a07146103ca57806306fdde03146103f557600080fd5b80622457831461034557806301ffc9a71461036b5780630288f0fb1461038e575b600080fd5b6103586103533660046139d0565b6107c1565b6040519081526020015b60405180910390f35b61037e610379366004613d25565b610896565b6040519015158152602001610362565b6103587f233299fc8224c0cb5b2b8b651b93354cf11d5245f1374bb37773608ffa1913c181565b6103c86103c3366004613b9f565b6108da565b005b6103dd6103d8366004613cc8565b610973565b6040516001600160a01b039091168152602001610362565b6103fd6109b1565b6040516103629190614085565b61037e610418366004613a23565b610a43565b6103c861042b366004613a23565b610a59565b610358610b1d565b6103c8610446366004613a23565b610be0565b600754610358565b6103c8610461366004613a23565b610c96565b6103c86104743660046138c7565b610d4c565b61037e61048736600461391b565b610df3565b61035861049a366004613cc8565b60009081526020819052604090206001015490565b6103c86104bd366004613ce0565b610f40565b60405160128152602001610362565b46610358565b610358610f67565b6103c86104ed366004613ce0565b610f71565b61037e610500366004613a23565b610f93565b6103c8610fca565b61035861051b3660046138c7565b611028565b6103587fb5b5a86cc252b1b75a439c6ff372933ceb0690188924e6461150adeb00ab80d881565b6103c8610555366004613a4e565b6110f6565b6103c8610568366004613a23565b61137f565b61058061057b366004613a4e565b611435565b604051610362919061402d565b61035861059b3660046138c7565b61150e565b6103c86105ae366004613b2f565b6115f9565b6103586105c13660046138c7565b611b12565b6105d96105d4366004613a4e565b611b30565b6040516103629190613f33565b6103587f02a8464c3e212c8f1064432774c6cc3e76f14bd7ccdafd9a1d1cf9b43b51e52481565b6103c861061b366004613a23565b611c01565b6103dd61062e366004613d04565b611ed0565b61037e610641366004613ce0565b6000918252602082815260408084206001600160a01b0393909316845291905290205460ff1690565b6103587faeaef46186eb59f884e36929b6d682a6ae35e1e43d8f05f058dcefb92b60146181565b6103fd611ee8565b6103587f5772712b2943d95a931c0b3a7ddf59cba41b664500d9b93626000a17809f04d181565b6103c86106ce36600461391b565b611ef7565b61037e6106e1366004613a23565b611ffb565b61037e6106f4366004613a23565b6120ae565b60085461037e9060ff1681565b6103c8610714366004613a23565b6120fe565b61037e61072736600461391b565b612358565b6103c8612417565b610358610742366004613cc8565b612472565b610358600081565b6103c861075d36600461395b565b612489565b6103c8610770366004613ce0565b6125ed565b6103586107833660046138e3565b6001600160a01b03918216600090815260036020908152604080832093909416825291909152205490565b6103c86107bc366004613d4d565b6125f7565b60008060076000815481106107e657634e487b7160e01b600052603260045260246000fd5b6000918252602090912001546040517e2457830000000000000000000000000000000000000000000000000000000081526001600160a01b0390911691508190622457839061083d90889088908890600401613efc565b60206040518083038186803b15801561085557600080fd5b505afa158015610869573d6000803e3d6000fd5b505050506040513d601f19601f8201168201806040525081019061088d9190613e1b565b95945050505050565b60006001600160e01b031982167f5a05180f0000000000000000000000000000000000000000000000000000000014806108d457506108d48261263f565b92915050565b60006108e681336126a6565b60005b8281101561096d5761095b84848381811061091457634e487b7160e01b600052603260045260246000fd5b9050604002016000013585858481811061093e57634e487b7160e01b600052603260045260246000fd5b905060400201602001602081019061095691906138c7565b612724565b80610965816141fc565b9150506108e9565b50505050565b60006007828154811061099657634e487b7160e01b600052603260045260246000fd5b6000918252602090912001546001600160a01b031692915050565b6060600480546109c0906141c7565b80601f01602080910402602001604051908101604052809291908181526020018280546109ec906141c7565b8015610a395780601f10610a0e57610100808354040283529160200191610a39565b820191906000526020600020905b815481529060010190602001808311610a1c57829003601f168201915b5050505050905090565b6000610a5033848461272e565b50600192915050565b60085460ff1615610aa05760405162461bcd60e51b815260206004820152600c60248201526b111151950e881c185d5cd95960a21b60448201526064015b60405180910390fd5b7faeaef46186eb59f884e36929b6d682a6ae35e1e43d8f05f058dcefb92b601461610acb81336126a6565b610ad58383612886565b604080516001600160a01b0385168152602081018490527f099fc78bcf3c24b8cd6ad4eda1e3eb007e511c09c640af1c46437ded34cf10f291015b60405180910390a1505050565b60006007600081548110610b4157634e487b7160e01b600052603260045260246000fd5b60009182526020918290200154604080517fc4e41b2200000000000000000000000000000000000000000000000000000000815290516001600160a01b039092169263c4e41b2292600480840193829003018186803b158015610ba357600080fd5b505afa158015610bb7573d6000803e3d6000fd5b505050506040513d601f19601f82011682018060405250810190610bdb9190613e1b565b905090565b60085460ff1615610c225760405162461bcd60e51b815260206004820152600c60248201526b111151950e881c185d5cd95960a21b6044820152606401610a97565b7fb5b5a86cc252b1b75a439c6ff372933ceb0690188924e6461150adeb00ab80d8610c4d81336126a6565b610c578383612a11565b604080516001600160a01b0385168152602081018490527f0a5b82707bc4ce1d57e909b70adb28e393a34c2ab77e30f862ca2e0e9f8da9059101610b10565b60085460ff1615610cd85760405162461bcd60e51b815260206004820152600c60248201526b111151950e881c185d5cd95960a21b6044820152606401610a97565b7faeaef46186eb59f884e36929b6d682a6ae35e1e43d8f05f058dcefb92b601461610d0381336126a6565b610d0d8383612886565b604080516001600160a01b0385168152602081018490527f7d48429c6eb871d47dea691d65bb2d1f99eaf5d33e7a06363b8fafb3f6ea01789101610b10565b60006007600081548110610d7057634e487b7160e01b600052603260045260246000fd5b6000918252602090912001546001600160a01b0316905080635603b9f9336040516001600160e01b031960e084901b1681526001600160a01b0391821660048201529085166024820152604401600060405180830381600087803b158015610dd757600080fd5b505af1158015610deb573d6000803e3d6000fd5b505050505050565b60085460009060ff1615610e385760405162461bcd60e51b815260206004820152600c60248201526b111151950e881c185d5cd95960a21b6044820152606401610a97565b6001600160a01b038416610e7c5760405162461bcd60e51b815260206004820152600b60248201526a2222a32a1d1010b13ab93760a91b6044820152606401610a97565b610e87848484612bc7565b6001600160a01b038416600090815260036020908152604080832033845290915290205482811015610f215760405162461bcd60e51b815260206004820152602760248201527f444546543a207472616e7366657220616d6f756e74206578636565647320616c60448201527f6c6f77616e6365000000000000000000000000000000000000000000000000006064820152608401610a97565b610f358533610f30868561416d565b61272e565b506001949350505050565b610f4a8282612e68565b6000828152600160205260409020610f62908261262a565b505050565b6000610bdb612e7e565b610f7b8282612f71565b6000828152600160205260409020610f629082612ff9565b3360008181526003602090815260408083206001600160a01b03871684529091528120549091610a50918590610f30908690614136565b60085460ff161561100c5760405162461bcd60e51b815260206004820152600c60248201526b111151950e881c185d5cd95960a21b6044820152606401610a97565b600061101881336126a6565b506008805460ff19166001179055565b600080600760008154811061104d57634e487b7160e01b600052603260045260246000fd5b6000918252602090912001546040517f4abd991d0000000000000000000000000000000000000000000000000000000081526001600160a01b03858116600483015290911691508190634abd991d9060240160206040518083038186803b1580156110b757600080fd5b505afa1580156110cb573d6000803e3d6000fd5b505050506040513d601f19601f820116820180604052508101906110ef9190613e1b565b9392505050565b60085460ff16156111385760405162461bcd60e51b815260206004820152600c60248201526b111151950e881c185d5cd95960a21b6044820152606401610a97565b6000600760008154811061115c57634e487b7160e01b600052603260045260246000fd5b6000918252602090912001546040517f3830551a0000000000000000000000000000000000000000000000000000000081526001600160a01b0390911691508190633830551a906111b39086908690600401613f1f565b600060405180830381600087803b1580156111cd57600080fd5b505af11580156111e1573d6000803e3d6000fd5b505050506000816001600160a01b0316634abd991d6111fd3390565b6040516001600160e01b031960e084901b1681526001600160a01b03909116600482015260240160206040518083038186803b15801561123c57600080fd5b505afa158015611250573d6000803e3d6000fd5b505050506040513d601f19601f820116820180604052508101906112749190613e1b565b9050600081116112c65760405162461bcd60e51b815260206004820152600e60248201527f444546543a2021726577617264730000000000000000000000000000000000006044820152606401610a97565b6001600160a01b03821663e3556819336040516001600160e01b031960e084901b1681526001600160a01b039091166004820152602401600060405180830381600087803b15801561131757600080fd5b505af115801561132b573d6000803e3d6000fd5b5050505061133f6113393390565b82612886565b60408051338152602081018390527f5b166da4c6bcfd67577f205ac2ee4ef2ce2e24d51237eafb87f82df73f03f61491015b60405180910390a150505050565b60085460ff16156113c15760405162461bcd60e51b815260206004820152600c60248201526b111151950e881c185d5cd95960a21b6044820152606401610a97565b7fb5b5a86cc252b1b75a439c6ff372933ceb0690188924e6461150adeb00ab80d86113ec81336126a6565b6113f68383612a11565b604080516001600160a01b0385168152602081018490527f3eac2380fcf2b255bd916ae212498a2e55f3c99baab43d3eb29cb6349639d0d29101610b10565b60606000600760008154811061145b57634e487b7160e01b600052603260045260246000fd5b6000918252602090912001546040517f68a2972f0000000000000000000000000000000000000000000000000000000081526001600160a01b03909116915081906368a2972f906114b29087908790600401613f1f565b60006040518083038186803b1580156114ca57600080fd5b505afa1580156114de573d6000803e3d6000fd5b505050506040513d6000823e601f3d908101601f191682016040526115069190810190613bfd565b949350505050565b6000600760008154811061153257634e487b7160e01b600052603260045260246000fd5b60009182526020808320909101546001600160a01b03858116845260029092526040928390205492517f2b04e840000000000000000000000000000000000000000000000000000000008152911691632b04e840916115a99186916004016001600160a01b03929092168252602082015260400190565b60206040518083038186803b1580156115c157600080fd5b505afa1580156115d5573d6000803e3d6000fd5b505050506040513d601f19601f820116820180604052508101906108d49190613e1b565b600061160581336126a6565b60005b600754811015611797576116717faeaef46186eb59f884e36929b6d682a6ae35e1e43d8f05f058dcefb92b6014616007838154811061165757634e487b7160e01b600052603260045260246000fd5b6000918252602090912001546001600160a01b03166125ed565b6116b67fb5b5a86cc252b1b75a439c6ff372933ceb0690188924e6461150adeb00ab80d86007838154811061165757634e487b7160e01b600052603260045260246000fd5b6116fb7f02a8464c3e212c8f1064432774c6cc3e76f14bd7ccdafd9a1d1cf9b43b51e5246007838154811061165757634e487b7160e01b600052603260045260246000fd5b6117407f233299fc8224c0cb5b2b8b651b93354cf11d5245f1374bb37773608ffa1913c16007838154811061165757634e487b7160e01b600052603260045260246000fd5b6117857f5772712b2943d95a931c0b3a7ddf59cba41b664500d9b93626000a17809f04d16007838154811061165757634e487b7160e01b600052603260045260246000fd5b8061178f816141fc565b915050611608565b506117a460076000613763565b60005b82811015611ae0578383828181106117cf57634e487b7160e01b600052603260045260246000fd5b6117e592602060c0909202019081019150613cae565b15611846576118467faeaef46186eb59f884e36929b6d682a6ae35e1e43d8f05f058dcefb92b60146185858481811061182e57634e487b7160e01b600052603260045260246000fd5b905060c0020160a00160208101906104bd91906138c7565b83838281811061186657634e487b7160e01b600052603260045260246000fd5b905060c00201602001602081019061187e9190613cae565b156118c7576118c77fb5b5a86cc252b1b75a439c6ff372933ceb0690188924e6461150adeb00ab80d885858481811061182e57634e487b7160e01b600052603260045260246000fd5b8383828181106118e757634e487b7160e01b600052603260045260246000fd5b905060c0020160400160208101906118ff9190613cae565b15611948576119487f02a8464c3e212c8f1064432774c6cc3e76f14bd7ccdafd9a1d1cf9b43b51e52485858481811061182e57634e487b7160e01b600052603260045260246000fd5b83838281811061196857634e487b7160e01b600052603260045260246000fd5b905060c0020160600160208101906119809190613cae565b156119c9576119c97f233299fc8224c0cb5b2b8b651b93354cf11d5245f1374bb37773608ffa1913c185858481811061182e57634e487b7160e01b600052603260045260246000fd5b8383828181106119e957634e487b7160e01b600052603260045260246000fd5b905060c002016080016020810190611a019190613cae565b15611a4a57611a4a7f5772712b2943d95a931c0b3a7ddf59cba41b664500d9b93626000a17809f04d185858481811061182e57634e487b7160e01b600052603260045260246000fd5b6007848483818110611a6c57634e487b7160e01b600052603260045260246000fd5b905060c0020160a0016020810190611a8491906138c7565b81546001810183556000928352602090922090910180547fffffffffffffffffffffffff0000000000000000000000000000000000000000166001600160a01b0390921691909117905580611ad8816141fc565b9150506117a7565b507f13340c8e795b6b33898709afdee63a73df74c7ca9d8204d3265aa483ac0e40378383604051610b10929190613f80565b6001600160a01b0381166000908152600660205260408120546108d4565b606060006007600081548110611b5657634e487b7160e01b600052603260045260246000fd5b6000918252602090912001546040517f82e17b650000000000000000000000000000000000000000000000000000000081526001600160a01b03909116915081906382e17b6590611bad9087908790600401613f1f565b60006040518083038186803b158015611bc557600080fd5b505afa158015611bd9573d6000803e3d6000fd5b505050506040513d6000823e601f3d908101601f191682016040526115069190810190613a8e565b60085460ff1615611c435760405162461bcd60e51b815260206004820152600c60248201526b111151950e881c185d5cd95960a21b6044820152606401610a97565b60006007600181548110611c6757634e487b7160e01b600052603260045260246000fd5b6000918252602090912001546001600160a01b03169050338114611ccd5760405162461bcd60e51b815260206004820152601760248201527f444546543a202156455354494e475f434f4e54524143540000000000000000006044820152606401610a97565b60006007600081548110611cf157634e487b7160e01b600052603260045260246000fd5b60009182526020808320909101546001600160a01b038581168452600290925260408320805492909116935085929091611d2c90849061416d565b90915550506040517fcb123637000000000000000000000000000000000000000000000000000000008152600481018490526001600160a01b0382169063cb1236379060240160206040518083038186803b158015611d8a57600080fd5b505afa158015611d9e573d6000803e3d6000fd5b505050506040513d601f19601f82011682018060405250810190611dc29190613e1b565b6001600160a01b03851660009081526002602052604081208054909190611dea908490614136565b92505081905550806001600160a01b031663e8ac6e4e6040518163ffffffff1660e01b8152600401600060405180830381600087803b158015611e2c57600080fd5b505af1158015611e40573d6000803e3d6000fd5b50505050836001600160a01b0316826001600160a01b03167fddf252ad1be2c89b69c2b068fc378daa952ba7f163c4a11628f55a4df523b3ef85604051611e8991815260200190565b60405180910390a3604080516001600160a01b0386168152602081018590527f814f4cde641f205fbac4d156545ee0a5850d9338c94b952acec9852c0a5280439101611371565b60008281526001602052604081206110ef908361300e565b6060600580546109c0906141c7565b60085460ff1615611f395760405162461bcd60e51b815260206004820152600c60248201526b111151950e881c185d5cd95960a21b6044820152606401610a97565b7f02a8464c3e212c8f1064432774c6cc3e76f14bd7ccdafd9a1d1cf9b43b51e524611f6481336126a6565b6001600160a01b038416611fa85760405162461bcd60e51b815260206004820152600b60248201526a2222a32a1d1010b13ab93760a91b6044820152606401610a97565b611fb3848484612bc7565b604080516001600160a01b038087168252851660208201529081018390527f4f21c37c3184c9b0bbc63a812b0a1a148f15f1bd6db127e7e562d9b04368032590606001611371565b3360009081526003602090815260408083206001600160a01b0386168452909152812054828110156120955760405162461bcd60e51b815260206004820152602560248201527f45524332303a2064656372656173656420616c6c6f77616e63652062656c6f7760448201527f207a65726f0000000000000000000000000000000000000000000000000000006064820152608401610a97565b6120a43385610f30868561416d565b5060019392505050565b60085460009060ff16156120f35760405162461bcd60e51b815260206004820152600c60248201526b111151950e881c185d5cd95960a21b6044820152606401610a97565b610a50338484612bc7565b60085460ff16156121405760405162461bcd60e51b815260206004820152600c60248201526b111151950e881c185d5cd95960a21b6044820152606401610a97565b7f5772712b2943d95a931c0b3a7ddf59cba41b664500d9b93626000a17809f04d161216b81336126a6565b6001600160a01b0383166000908152600260205260408120546007805491929182906121a757634e487b7160e01b600052603260045260246000fd5b6000918252602090912001546040517f3609875800000000000000000000000000000000000000000000000000000000815260048101869052602481018490526001600160a01b0390911691508190633609875890604401602060405180830381600087803b15801561221957600080fd5b505af115801561222d573d6000803e3d6000fd5b505050506040513d601f19601f820116820180604052508101906122519190613e1b565b6001600160a01b0380871660009081526002602052604081208390559190831690632b04e840908890612284908761416d565b6040516001600160e01b031960e085901b1681526001600160a01b039092166004830152602482015260440160206040518083038186803b1580156122c857600080fd5b505afa1580156122dc573d6000803e3d6000fd5b505050506040513d601f19601f820116820180604052508101906123009190613e1b565b905060006001600160a01b0316866001600160a01b03167fddf252ad1be2c89b69c2b068fc378daa952ba7f163c4a11628f55a4df523b3ef8360405161234891815260200190565b60405180910390a3505050505050565b60085460009060ff1661239d5760405162461bcd60e51b815260206004820152600d60248201526c111151950e88085c185d5cd959609a1b6044820152606401610a97565b7f233299fc8224c0cb5b2b8b651b93354cf11d5245f1374bb37773608ffa1913c16123c881336126a6565b6001600160a01b03851661240c5760405162461bcd60e51b815260206004820152600b60248201526a2222a32a1d1010b13ab93760a91b6044820152606401610a97565b610f35858585612bc7565b60085460ff166124595760405162461bcd60e51b815260206004820152600d60248201526c111151950e88085c185d5cd959609a1b6044820152606401610a97565b600061246581336126a6565b506008805460ff19169055565b60008181526001602052604081206108d49061301a565b834211156124d95760405162461bcd60e51b815260206004820152601d60248201527f45524332305065726d69743a206578706972656420646561646c696e650000006044820152606401610a97565b60007f00000000000000000000000000000000000000000000000000000000000000008888886125088c613024565b6040805160208101969096526001600160a01b0394851690860152929091166060840152608083015260a082015260c0810186905260e00160405160208183030381529060405280519060200120905060006125638261304c565b90506000612573828787876130b5565b9050896001600160a01b0316816001600160a01b0316146125d65760405162461bcd60e51b815260206004820152601e60248201527f45524332305065726d69743a20696e76616c6964207369676e617475726500006044820152606401610a97565b6125e18a8a8a61272e565b50505050505050505050565b610f7b8282613255565b600061260381336126a6565b61260f60048686613784565b50610deb60058484613784565b612626828261327b565b5050565b60006110ef836001600160a01b038416613319565b60006001600160e01b031982167f7965db0b0000000000000000000000000000000000000000000000000000000014806108d457507f01ffc9a7000000000000000000000000000000000000000000000000000000006001600160e01b03198316146108d4565b6000828152602081815260408083206001600160a01b038516845290915290205460ff16612626576126e2816001600160a01b03166014613368565b6126ed836020613368565b6040516020016126fe929190613e7b565b60408051601f198184030181529082905262461bcd60e51b8252610a9791600401614085565b610f4a828261261c565b6001600160a01b0383166127a95760405162461bcd60e51b8152602060048201526024808201527f45524332303a20617070726f76652066726f6d20746865207a65726f2061646460448201527f72657373000000000000000000000000000000000000000000000000000000006064820152608401610a97565b6001600160a01b0382166128255760405162461bcd60e51b815260206004820152602260248201527f45524332303a20617070726f766520746f20746865207a65726f20616464726560448201527f73730000000000000000000000000000000000000000000000000000000000006064820152608401610a97565b6001600160a01b0383811660008181526003602090815260408083209487168084529482529182902085905590518481527f8c5be1e5ebec7d5bd14f71427d1e84f3dd0314c0f7b2291e5b200ac8c7c3b925910160405180910390a3505050565b600060076000815481106128aa57634e487b7160e01b600052603260045260246000fd5b60009182526020822001546040516342e58a6360e01b8152600160048201526001600160a01b03868116602483015260448201869052909116925082906342e58a6390606401602060405180830381600087803b15801561290a57600080fd5b505af115801561291e573d6000803e3d6000fd5b505050506040513d601f19601f820116820180604052508101906129429190613e1b565b6001600160a01b03851660009081526002602052604081208054929350839290919061296f908490614136565b92505081905550816001600160a01b031663e8ac6e4e6040518163ffffffff1660e01b8152600401600060405180830381600087803b1580156129b157600080fd5b505af11580156129c5573d6000803e3d6000fd5b50506040518581526001600160a01b0387169250600091507fddf252ad1be2c89b69c2b068fc378daa952ba7f163c4a11628f55a4df523b3ef906020015b60405180910390a350505050565b60006007600081548110612a3557634e487b7160e01b600052603260045260246000fd5b6000918252602082200154600780546001600160a01b039092169350908290612a6e57634e487b7160e01b600052603260045260246000fd5b60009182526020822001546040516342e58a6360e01b815260048101929092526001600160a01b0386811660248401526044830186905216906342e58a6390606401602060405180830381600087803b158015612aca57600080fd5b505af1158015612ade573d6000803e3d6000fd5b505050506040513d601f19601f82011682018060405250810190612b029190613e1b565b6001600160a01b038516600090815260026020526040812080549293508392909190612b2f90849061416d565b92505081905550816001600160a01b031663e8ac6e4e6040518163ffffffff1660e01b8152600401600060405180830381600087803b158015612b7157600080fd5b505af1158015612b85573d6000803e3d6000fd5b5050604051858152600092506001600160a01b03871691507fddf252ad1be2c89b69c2b068fc378daa952ba7f163c4a11628f55a4df523b3ef90602001612a03565b6001600160a01b038216612c0b5760405162461bcd60e51b815260206004820152600b60248201526a2222a32a1d1010b13ab93760a91b6044820152606401610a97565b816001600160a01b0316836001600160a01b03161415612c6d5760405162461bcd60e51b815260206004820152600b60248201527f444546543a202173656c660000000000000000000000000000000000000000006044820152606401610a97565b60006007600081548110612c9157634e487b7160e01b600052603260045260246000fd5b6000918252602080832091909101546040805160a0810182526001600160a01b038981168083528982168387018181528486018b81529289526002808952868a205460608701908152928a52909752848820546080850190815294517f815a61e0000000000000000000000000000000000000000000000000000000008152935183166004850152955182166024840152516044830152935160648201529051608482015291169250829063815a61e09060a401608060405180830381600087803b158015612d5f57600080fd5b505af1158015612d73573d6000803e3d6000fd5b505050506040513d601f19601f82011682018060405250810190612d979190613db6565b80516001600160a01b0387811660008181526002602090815260408083209590955580860151938a16808352918590209390935560608501519351938452939450917fddf252ad1be2c89b69c2b068fc378daa952ba7f163c4a11628f55a4df523b3ef910160405180910390a3604081015115612e615760006001600160a01b0316856001600160a01b03167fddf252ad1be2c89b69c2b068fc378daa952ba7f163c4a11628f55a4df523b3ef8360400151604051612e5891815260200190565b60405180910390a35b5050505050565b6000612e7481336126a6565b610f62838361327b565b60007f0000000000000000000000000000000000000000000000000000000000000000461415612ecd57507f000000000000000000000000000000000000000000000000000000000000000090565b50604080517f00000000000000000000000000000000000000000000000000000000000000006020808301919091527f0000000000000000000000000000000000000000000000000000000000000000828401527f000000000000000000000000000000000000000000000000000000000000000060608301524660808301523060a0808401919091528351808403909101815260c0909201909252805191012090565b6001600160a01b0381163314612fef5760405162461bcd60e51b815260206004820152602f60248201527f416363657373436f6e74726f6c3a2063616e206f6e6c792072656e6f756e636560448201527f20726f6c657320666f722073656c6600000000000000000000000000000000006064820152608401610a97565b612626828261358f565b60006110ef836001600160a01b03841661360e565b60006110ef838361372b565b60006108d4825490565b6001600160a01b03811660009081526006602052604090208054600181018255905b50919050565b60006108d4613059612e7e565b836040517f19010000000000000000000000000000000000000000000000000000000000006020820152602281018390526042810182905260009060620160405160208183030381529060405280519060200120905092915050565b60007f7fffffffffffffffffffffffffffffff5d576e7357a4501ddfe92f46681b20a08211156131325760405162461bcd60e51b815260206004820152602260248201527f45434453413a20696e76616c6964207369676e6174757265202773272076616c604482015261756560f01b6064820152608401610a97565b8360ff16601b148061314757508360ff16601c145b61319e5760405162461bcd60e51b815260206004820152602260248201527f45434453413a20696e76616c6964207369676e6174757265202776272076616c604482015261756560f01b6064820152608401610a97565b6040805160008082526020820180845288905260ff871692820192909252606081018590526080810184905260019060a0016020604051602081039080840390855afa1580156131f2573d6000803e3d6000fd5b5050604051601f1901519150506001600160a01b03811661088d5760405162461bcd60e51b815260206004820152601860248201527f45434453413a20696e76616c6964207369676e617475726500000000000000006044820152606401610a97565b60008281526020819052604090206001015461327181336126a6565b610f62838361358f565b6000828152602081815260408083206001600160a01b038516845290915290205460ff16612626576000828152602081815260408083206001600160a01b03851684529091529020805460ff191660011790556132d53390565b6001600160a01b0316816001600160a01b0316837f2f8788117e7eff1d82e926ec794901d17c78024a50270940304540a733656f0d60405160405180910390a45050565b6000818152600183016020526040812054613360575081546001818101845560008481526020808220909301849055845484825282860190935260409020919091556108d4565b5060006108d4565b6060600061337783600261414e565b613382906002614136565b67ffffffffffffffff8111156133a857634e487b7160e01b600052604160045260246000fd5b6040519080825280601f01601f1916602001820160405280156133d2576020820181803683370190505b5090507f30000000000000000000000000000000000000000000000000000000000000008160008151811061341757634e487b7160e01b600052603260045260246000fd5b60200101906001600160f81b031916908160001a9053507f78000000000000000000000000000000000000000000000000000000000000008160018151811061347057634e487b7160e01b600052603260045260246000fd5b60200101906001600160f81b031916908160001a905350600061349484600261414e565b61349f906001614136565b90505b6001811115613540577f303132333435363738396162636465660000000000000000000000000000000085600f16601081106134ee57634e487b7160e01b600052603260045260246000fd5b1a60f81b82828151811061351257634e487b7160e01b600052603260045260246000fd5b60200101906001600160f81b031916908160001a90535060049490941c93613539816141b0565b90506134a2565b5083156110ef5760405162461bcd60e51b815260206004820181905260248201527f537472696e67733a20686578206c656e67746820696e73756666696369656e746044820152606401610a97565b6000828152602081815260408083206001600160a01b038516845290915290205460ff1615612626576000828152602081815260408083206001600160a01b0385168085529252808320805460ff1916905551339285917ff6391f5c32d9c69d2a47ea670b442974b53935d1edc7fd64eb21e047a839171b9190a45050565b6000818152600183016020526040812054801561372157600061363260018361416d565b85549091506000906136469060019061416d565b90508181146136c757600086600001828154811061367457634e487b7160e01b600052603260045260246000fd5b90600052602060002001549050808760000184815481106136a557634e487b7160e01b600052603260045260246000fd5b6000918252602080832090910192909255918252600188019052604090208390555b85548690806136e657634e487b7160e01b600052603160045260246000fd5b6001900381819060005260206000200160009055905585600101600086815260200190815260200160002060009055600193505050506108d4565b60009150506108d4565b600082600001828154811061375057634e487b7160e01b600052603260045260246000fd5b9060005260206000200154905092915050565b50805460008255906000526020600020908101906137819190613808565b50565b828054613790906141c7565b90600052602060002090601f0160209004810192826137b257600085556137f8565b82601f106137cb5782800160ff198235161785556137f8565b828001600101855582156137f8579182015b828111156137f85782358255916020019190600101906137dd565b50613804929150613808565b5090565b5b808211156138045760008155600101613809565b803561382881614243565b919050565b60008083601f84011261383e578182fd5b50813567ffffffffffffffff811115613855578182fd5b6020830191508360208260051b850101111561387057600080fd5b9250929050565b8035801515811461382857600080fd5b60008083601f840112613898578182fd5b50813567ffffffffffffffff8111156138af578182fd5b60208301915083602082850101111561387057600080fd5b6000602082840312156138d8578081fd5b81356110ef81614243565b600080604083850312156138f5578081fd5b823561390081614243565b9150602083013561391081614243565b809150509250929050565b60008060006060848603121561392f578081fd5b833561393a81614243565b9250602084013561394a81614243565b929592945050506040919091013590565b600080600080600080600060e0888a031215613975578283fd5b873561398081614243565b9650602088013561399081614243565b95506040880135945060608801359350608088013560ff811681146139b3578384fd5b9699959850939692959460a0840135945060c09093013592915050565b6000806000604084860312156139e4578283fd5b83356139ef81614243565b9250602084013567ffffffffffffffff811115613a0a578283fd5b613a168682870161382d565b9497909650939450505050565b60008060408385031215613a35578182fd5b8235613a4081614243565b946020939093013593505050565b60008060208385031215613a60578182fd5b823567ffffffffffffffff811115613a76578283fd5b613a828582860161382d565b90969095509350505050565b60006020808385031215613aa0578182fd5b825167ffffffffffffffff811115613ab6578283fd5b8301601f81018513613ac6578283fd5b8051613ad9613ad482614112565b6140e1565b80828252848201915084840188868560051b8701011115613af8578687fd5b8694505b83851015613b23578051613b0f81614243565b835260019490940193918501918501613afc565b50979650505050505050565b60008060208385031215613b41578182fd5b823567ffffffffffffffff80821115613b58578384fd5b818501915085601f830112613b6b578384fd5b813581811115613b79578485fd5b86602060c083028501011115613b8d578485fd5b60209290920196919550909350505050565b60008060208385031215613bb1578182fd5b823567ffffffffffffffff80821115613bc8578384fd5b818501915085601f830112613bdb578384fd5b813581811115613be9578485fd5b8660208260061b8501011115613b8d578485fd5b60006020808385031215613c0f578182fd5b825167ffffffffffffffff811115613c25578283fd5b8301601f81018513613c35578283fd5b8051613c43613ad482614112565b80828252848201915084840188868560061b8701011115613c62578687fd5b8694505b83851015613b2357604080828b031215613c7e578788fd5b613c866140b8565b8251613c9181614243565b815282880151888201528452600195909501949286019201613c66565b600060208284031215613cbf578081fd5b6110ef82613877565b600060208284031215613cd9578081fd5b5035919050565b60008060408385031215613cf2578182fd5b82359150602083013561391081614243565b60008060408385031215613d16578182fd5b50508035926020909101359150565b600060208284031215613d36578081fd5b81356001600160e01b0319811681146110ef578182fd5b60008060008060408587031215613d62578182fd5b843567ffffffffffffffff80821115613d79578384fd5b613d8588838901613887565b90965094506020870135915080821115613d9d578384fd5b50613daa87828801613887565b95989497509550505050565b600060808284031215613dc7578081fd5b6040516080810181811067ffffffffffffffff82111715613dea57613dea61422d565b8060405250825181526020830151602082015260408301516040820152606083015160608201528091505092915050565b600060208284031215613e2c578081fd5b5051919050565b81835260006020808501945082825b85811015613e70578135613e5581614243565b6001600160a01b031687529582019590820190600101613e42565b509495945050505050565b7f416363657373436f6e74726f6c3a206163636f756e7420000000000000000000815260008351613eb3816017850160208801614184565b7f206973206d697373696e6720726f6c65200000000000000000000000000000006017918401918201528351613ef0816028840160208801614184565b01602801949350505050565b6001600160a01b038416815260406020820152600061088d604083018486613e33565b602081526000611506602083018486613e33565b6020808252825182820181905260009190848201906040850190845b81811015613f745783516001600160a01b031683529284019291840191600101613f4f565b50909695505050505050565b6020808252818101839052600090604080840186845b8781101561402057613fa782613877565b15158352613fb6858301613877565b151585840152613fc7848301613877565b1515848401526060613fda818401613877565b1515908401526080613fed838201613877565b15159084015260a061400083820161381d565b6001600160a01b03169084015260c0928301929190910190600101613f96565b5090979650505050505050565b602080825282518282018190526000919060409081850190868401855b8281101561407857815180516001600160a01b0316855286015186850152928401929085019060010161404a565b5091979650505050505050565b60208152600082518060208401526140a4816040850160208701614184565b601f01601f19169190910160400192915050565b6040805190810167ffffffffffffffff811182821017156140db576140db61422d565b60405290565b604051601f8201601f1916810167ffffffffffffffff8111828210171561410a5761410a61422d565b604052919050565b600067ffffffffffffffff82111561412c5761412c61422d565b5060051b60200190565b6000821982111561414957614149614217565b500190565b600081600019048311821515161561416857614168614217565b500290565b60008282101561417f5761417f614217565b500390565b60005b8381101561419f578181015183820152602001614187565b8381111561096d5750506000910152565b6000816141bf576141bf614217565b506000190190565b600181811c908216806141db57607f821691505b6020821081141561304657634e487b7160e01b600052602260045260246000fd5b600060001982141561421057614210614217565b5060010190565b634e487b7160e01b600052601160045260246000fd5b634e487b7160e01b600052604160045260246000fd5b6001600160a01b038116811461378157600080fdfea26469706673582212203aa07a49f90aa83a7497411af5cf9d64f6b4feadfe9cf44577e6da15b77eef6564736f6c63430008040033",
			"opcodes": "PUSH2 0x140 PUSH1 0x40 MSTORE PUSH32 0x6E71EDAE12B1B97F4D1F60370FEF10105FA2FAAE0126114A169C64845D6126C9 PUSH2 0x120 MSTORE CALLVALUE DUP1 ISZERO PUSH3 0x37 JUMPI PUSH1 0x0 DUP1 REVERT JUMPDEST POP PUSH1 0x40 MLOAD DUP1 PUSH1 0x40 ADD PUSH1 0x40 MSTORE DUP1 PUSH1 0x17 DUP2 MSTORE PUSH1 0x20 ADD PUSH32 0x4D656D65204465666920466163746F727920546F6B656E000000000000000000 DUP2 MSTORE POP DUP1 PUSH1 0x40 MLOAD DUP1 PUSH1 0x40 ADD PUSH1 0x40 MSTORE DUP1 PUSH1 0x1 DUP2 MSTORE PUSH1 0x20 ADD PUSH1 0x31 PUSH1 0xF8 SHL DUP2 MSTORE POP PUSH1 0x40 MLOAD DUP1 PUSH1 0x40 ADD PUSH1 0x40 MSTORE DUP1 PUSH1 0x17 DUP2 MSTORE PUSH1 0x20 ADD PUSH32 0x4D656D65204465666920466163746F727920546F6B656E000000000000000000 DUP2 MSTORE POP PUSH1 0x40 MLOAD DUP1 PUSH1 0x40 ADD PUSH1 0x40 MSTORE DUP1 PUSH1 0x8 DUP2 MSTORE PUSH1 0x20 ADD PUSH8 0x1B595B5951115195 PUSH1 0xC2 SHL DUP2 MSTORE POP DUP2 PUSH1 0x4 SWAP1 DUP1 MLOAD SWAP1 PUSH1 0x20 ADD SWAP1 PUSH3 0xF8 SWAP3 SWAP2 SWAP1 PUSH3 0x3F0 JUMP JUMPDEST POP DUP1 MLOAD PUSH3 0x10E SWAP1 PUSH1 0x5 SWAP1 PUSH1 0x20 DUP5 ADD SWAP1 PUSH3 0x3F0 JUMP JUMPDEST POP POP DUP3 MLOAD PUSH1 0x20 SWAP4 DUP5 ADD KECCAK256 DUP3 MLOAD SWAP3 DUP5 ADD SWAP3 SWAP1 SWAP3 KECCAK256 PUSH1 0xC0 DUP4 DUP2 MSTORE PUSH1 0xE0 DUP3 SWAP1 MSTORE CHAINID PUSH1 0xA0 DUP2 DUP2 MSTORE PUSH1 0x40 DUP1 MLOAD PUSH32 0x8B73C3C69BB8FE3D512ECC4CF759CC79239F7B179B0FFACAA9A75D522B39400F DUP2 DUP11 ADD DUP2 SWAP1 MSTORE DUP2 DUP4 ADD SWAP9 SWAP1 SWAP9 MSTORE PUSH1 0x60 DUP2 ADD SWAP6 SWAP1 SWAP6 MSTORE PUSH1 0x80 DUP1 DUP7 ADD SWAP4 SWAP1 SWAP4 MSTORE ADDRESS DUP6 DUP4 ADD MSTORE DUP1 MLOAD DUP1 DUP7 SUB SWAP1 SWAP3 ADD DUP3 MSTORE SWAP4 SWAP1 SWAP3 ADD SWAP1 SWAP3 MSTORE DUP1 MLOAD SWAP5 ADD SWAP4 SWAP1 SWAP4 KECCAK256 SWAP1 SWAP3 MSTORE PUSH2 0x100 MSTORE POP PUSH3 0x1A9 SWAP1 POP PUSH1 0x0 CALLER PUSH3 0x28B JUMP JUMPDEST PUSH3 0x1D5 PUSH32 0xAEAEF46186EB59F884E36929B6D682A6AE35E1E43D8F05F058DCEFB92B601461 CALLER PUSH3 0x28B JUMP JUMPDEST PUSH3 0x201 PUSH32 0xB5B5A86CC252B1B75A439C6FF372933CEB0690188924E6461150ADEB00AB80D8 CALLER PUSH3 0x28B JUMP JUMPDEST PUSH3 0x22D PUSH32 0x2A8464C3E212C8F1064432774C6CC3E76F14BD7CCDAFD9A1D1CF9B43B51E524 CALLER PUSH3 0x28B JUMP JUMPDEST PUSH3 0x259 PUSH32 0x233299FC8224C0CB5B2B8B651B93354CF11D5245F1374BB37773608FFA1913C1 CALLER PUSH3 0x28B JUMP JUMPDEST PUSH3 0x285 PUSH32 0x5772712B2943D95A931C0B3A7DDF59CBA41B664500D9B93626000A17809F04D1 CALLER PUSH3 0x28B JUMP JUMPDEST PUSH3 0x4D3 JUMP JUMPDEST PUSH3 0x2A2 DUP3 DUP3 PUSH3 0x2CE PUSH1 0x20 SHL PUSH3 0x261C OR PUSH1 0x20 SHR JUMP JUMPDEST PUSH1 0x0 DUP3 DUP2 MSTORE PUSH1 0x1 PUSH1 0x20 SWAP1 DUP2 MSTORE PUSH1 0x40 SWAP1 SWAP2 KECCAK256 PUSH3 0x2C9 SWAP2 DUP4 SWAP1 PUSH3 0x262A PUSH3 0x2DE DUP3 SHL OR SWAP1 SHR JUMP JUMPDEST POP POP POP JUMP JUMPDEST PUSH3 0x2DA DUP3 DUP3 PUSH3 0x2FE JUMP JUMPDEST POP POP JUMP JUMPDEST PUSH1 0x0 PUSH3 0x2F5 DUP4 PUSH1 0x1 PUSH1 0x1 PUSH1 0xA0 SHL SUB DUP5 AND PUSH3 0x39E JUMP JUMPDEST SWAP1 POP JUMPDEST SWAP3 SWAP2 POP POP JUMP JUMPDEST PUSH1 0x0 DUP3 DUP2 MSTORE PUSH1 0x20 DUP2 DUP2 MSTORE PUSH1 0x40 DUP1 DUP4 KECCAK256 PUSH1 0x1 PUSH1 0x1 PUSH1 0xA0 SHL SUB DUP6 AND DUP5 MSTORE SWAP1 SWAP2 MSTORE SWAP1 KECCAK256 SLOAD PUSH1 0xFF AND PUSH3 0x2DA JUMPI PUSH1 0x0 DUP3 DUP2 MSTORE PUSH1 0x20 DUP2 DUP2 MSTORE PUSH1 0x40 DUP1 DUP4 KECCAK256 PUSH1 0x1 PUSH1 0x1 PUSH1 0xA0 SHL SUB DUP6 AND DUP5 MSTORE SWAP1 SWAP2 MSTORE SWAP1 KECCAK256 DUP1 SLOAD PUSH1 0xFF NOT AND PUSH1 0x1 OR SWAP1 SSTORE PUSH3 0x35A CALLER SWAP1 JUMP JUMPDEST PUSH1 0x1 PUSH1 0x1 PUSH1 0xA0 SHL SUB AND DUP2 PUSH1 0x1 PUSH1 0x1 PUSH1 0xA0 SHL SUB AND DUP4 PUSH32 0x2F8788117E7EFF1D82E926EC794901D17C78024A50270940304540A733656F0D PUSH1 0x40 MLOAD PUSH1 0x40 MLOAD DUP1 SWAP2 SUB SWAP1 LOG4 POP POP JUMP JUMPDEST PUSH1 0x0 DUP2 DUP2 MSTORE PUSH1 0x1 DUP4 ADD PUSH1 0x20 MSTORE PUSH1 0x40 DUP2 KECCAK256 SLOAD PUSH3 0x3E7 JUMPI POP DUP2 SLOAD PUSH1 0x1 DUP2 DUP2 ADD DUP5 SSTORE PUSH1 0x0 DUP5 DUP2 MSTORE PUSH1 0x20 DUP1 DUP3 KECCAK256 SWAP1 SWAP4 ADD DUP5 SWAP1 SSTORE DUP5 SLOAD DUP5 DUP3 MSTORE DUP3 DUP7 ADD SWAP1 SWAP4 MSTORE PUSH1 0x40 SWAP1 KECCAK256 SWAP2 SWAP1 SWAP2 SSTORE PUSH3 0x2F8 JUMP JUMPDEST POP PUSH1 0x0 PUSH3 0x2F8 JUMP JUMPDEST DUP3 DUP1 SLOAD PUSH3 0x3FE SWAP1 PUSH3 0x496 JUMP JUMPDEST SWAP1 PUSH1 0x0 MSTORE PUSH1 0x20 PUSH1 0x0 KECCAK256 SWAP1 PUSH1 0x1F ADD PUSH1 0x20 SWAP1 DIV DUP2 ADD SWAP3 DUP3 PUSH3 0x422 JUMPI PUSH1 0x0 DUP6 SSTORE PUSH3 0x46D JUMP JUMPDEST DUP3 PUSH1 0x1F LT PUSH3 0x43D JUMPI DUP1 MLOAD PUSH1 0xFF NOT AND DUP4 DUP1 ADD OR DUP6 SSTORE PUSH3 0x46D JUMP JUMPDEST DUP3 DUP1 ADD PUSH1 0x1 ADD DUP6 SSTORE DUP3 ISZERO PUSH3 0x46D JUMPI SWAP2 DUP3 ADD JUMPDEST DUP3 DUP2 GT ISZERO PUSH3 0x46D JUMPI DUP3 MLOAD DUP3 SSTORE SWAP2 PUSH1 0x20 ADD SWAP2 SWAP1 PUSH1 0x1 ADD SWAP1 PUSH3 0x450 JUMP JUMPDEST POP PUSH3 0x47B SWAP3 SWAP2 POP PUSH3 0x47F JUMP JUMPDEST POP SWAP1 JUMP JUMPDEST JUMPDEST DUP1 DUP3 GT ISZERO PUSH3 0x47B JUMPI PUSH1 0x0 DUP2 SSTORE PUSH1 0x1 ADD PUSH3 0x480 JUMP JUMPDEST PUSH1 0x1 DUP2 DUP2 SHR SWAP1 DUP3 AND DUP1 PUSH3 0x4AB JUMPI PUSH1 0x7F DUP3 AND SWAP2 POP JUMPDEST PUSH1 0x20 DUP3 LT DUP2 EQ ISZERO PUSH3 0x4CD JUMPI PUSH4 0x4E487B71 PUSH1 0xE0 SHL PUSH1 0x0 MSTORE PUSH1 0x22 PUSH1 0x4 MSTORE PUSH1 0x24 PUSH1 0x0 REVERT JUMPDEST POP SWAP2 SWAP1 POP JUMP JUMPDEST PUSH1 0x80 MLOAD PUSH1 0xA0 MLOAD PUSH1 0xC0 MLOAD PUSH1 0xE0 MLOAD PUSH2 0x100 MLOAD PUSH2 0x120 MLOAD PUSH2 0x428E PUSH3 0x523 PUSH1 0x0 CODECOPY PUSH1 0x0 PUSH2 0x24DD ADD MSTORE PUSH1 0x0 PUSH2 0x2ED4 ADD MSTORE PUSH1 0x0 PUSH2 0x2F23 ADD MSTORE PUSH1 0x0 PUSH2 0x2EFE ADD MSTORE PUSH1 0x0 PUSH2 0x2E82 ADD MSTORE PUSH1 0x0 PUSH2 0x2EAB ADD MSTORE PUSH2 0x428E PUSH1 0x0 RETURN INVALID PUSH1 0x80 PUSH1 0x40 MSTORE CALLVALUE DUP1 ISZERO PUSH2 0x10 JUMPI PUSH1 0x0 DUP1 REVERT JUMPDEST POP PUSH1 0x4 CALLDATASIZE LT PUSH2 0x340 JUMPI PUSH1 0x0 CALLDATALOAD PUSH1 0xE0 SHR DUP1 PUSH4 0x66830B21 GT PUSH2 0x1BD JUMPI DUP1 PUSH4 0x9CFF2EBA GT PUSH2 0xF9 JUMPI DUP1 PUSH4 0xC4BC5DA5 GT PUSH2 0xA2 JUMPI DUP1 PUSH4 0xD505ACCF GT PUSH2 0x7C JUMPI DUP1 PUSH4 0xD505ACCF EQ PUSH2 0x74F JUMPI DUP1 PUSH4 0xD547741F EQ PUSH2 0x762 JUMPI DUP1 PUSH4 0xDD62ED3E EQ PUSH2 0x775 JUMPI DUP1 PUSH4 0xEAF9D194 EQ PUSH2 0x7AE JUMPI PUSH1 0x0 DUP1 REVERT JUMPDEST DUP1 PUSH4 0xC4BC5DA5 EQ PUSH2 0x72C JUMPI DUP1 PUSH4 0xCA15C873 EQ PUSH2 0x734 JUMPI DUP1 PUSH4 0xD391014B EQ PUSH2 0x747 JUMPI PUSH1 0x0 DUP1 REVERT JUMPDEST DUP1 PUSH4 0xB187BD26 GT PUSH2 0xD3 JUMPI DUP1 PUSH4 0xB187BD26 EQ PUSH2 0x6F9 JUMPI DUP1 PUSH4 0xB492DA91 EQ PUSH2 0x706 JUMPI DUP1 PUSH4 0xC238651B EQ PUSH2 0x719 JUMPI PUSH1 0x0 DUP1 REVERT JUMPDEST DUP1 PUSH4 0x9CFF2EBA EQ PUSH2 0x6C0 JUMPI DUP1 PUSH4 0xA457C2D7 EQ PUSH2 0x6D3 JUMPI DUP1 PUSH4 0xA9059CBB EQ PUSH2 0x6E6 JUMPI PUSH1 0x0 DUP1 REVERT JUMPDEST DUP1 PUSH4 0x8493712A GT PUSH2 0x166 JUMPI DUP1 PUSH4 0x91D14854 GT PUSH2 0x140 JUMPI DUP1 PUSH4 0x91D14854 EQ PUSH2 0x633 JUMPI DUP1 PUSH4 0x92AFC33A EQ PUSH2 0x66A JUMPI DUP1 PUSH4 0x95D89B41 EQ PUSH2 0x691 JUMPI DUP1 PUSH4 0x97C1D32F EQ PUSH2 0x699 JUMPI PUSH1 0x0 DUP1 REVERT JUMPDEST DUP1 PUSH4 0x8493712A EQ PUSH2 0x5E6 JUMPI DUP1 PUSH4 0x8CBFEB0C EQ PUSH2 0x60D JUMPI DUP1 PUSH4 0x9010D07C EQ PUSH2 0x620 JUMPI PUSH1 0x0 DUP1 REVERT JUMPDEST DUP1 PUSH4 0x789210B3 GT PUSH2 0x197 JUMPI DUP1 PUSH4 0x789210B3 EQ PUSH2 0x5A0 JUMPI DUP1 PUSH4 0x7ECEBE00 EQ PUSH2 0x5B3 JUMPI DUP1 PUSH4 0x82E17B65 EQ PUSH2 0x5C6 JUMPI PUSH1 0x0 DUP1 REVERT JUMPDEST DUP1 PUSH4 0x66830B21 EQ PUSH2 0x55A JUMPI DUP1 PUSH4 0x68A2972F EQ PUSH2 0x56D JUMPI DUP1 PUSH4 0x70A08231 EQ PUSH2 0x58D JUMPI PUSH1 0x0 DUP1 REVERT JUMPDEST DUP1 PUSH4 0x209AB711 GT PUSH2 0x28C JUMPI DUP1 PUSH4 0x3644E515 GT PUSH2 0x235 JUMPI DUP1 PUSH4 0x439766CE GT PUSH2 0x20F JUMPI DUP1 PUSH4 0x439766CE EQ PUSH2 0x505 JUMPI DUP1 PUSH4 0x4ABD991D EQ PUSH2 0x50D JUMPI DUP1 PUSH4 0x54FF02D8 EQ PUSH2 0x520 JUMPI DUP1 PUSH4 0x5AACFA5D EQ PUSH2 0x547 JUMPI PUSH1 0x0 DUP1 REVERT JUMPDEST DUP1 PUSH4 0x3644E515 EQ PUSH2 0x4D7 JUMPI DUP1 PUSH4 0x36568ABE EQ PUSH2 0x4DF JUMPI DUP1 PUSH4 0x39509351 EQ PUSH2 0x4F2 JUMPI PUSH1 0x0 DUP1 REVERT JUMPDEST DUP1 PUSH4 0x2F2FF15D GT PUSH2 0x266 JUMPI DUP1 PUSH4 0x2F2FF15D EQ PUSH2 0x4AF JUMPI DUP1 PUSH4 0x313CE567 EQ PUSH2 0x4C2 JUMPI DUP1 PUSH4 0x3408E470 EQ PUSH2 0x4D1 JUMPI PUSH1 0x0 DUP1 REVERT JUMPDEST DUP1 PUSH4 0x209AB711 EQ PUSH2 0x466 JUMPI DUP1 PUSH4 0x23B872DD EQ PUSH2 0x479 JUMPI DUP1 PUSH4 0x248A9CA3 EQ PUSH2 0x48C JUMPI PUSH1 0x0 DUP1 REVERT JUMPDEST DUP1 PUSH4 0x95EA7B3 GT PUSH2 0x2EE JUMPI DUP1 PUSH4 0x18A8AD87 GT PUSH2 0x2C8 JUMPI DUP1 PUSH4 0x18A8AD87 EQ PUSH2 0x438 JUMPI DUP1 PUSH4 0x1BF73B72 EQ PUSH2 0x44B JUMPI DUP1 PUSH4 0x1F2EBA24 EQ PUSH2 0x453 JUMPI PUSH1 0x0 DUP1 REVERT JUMPDEST DUP1 PUSH4 0x95EA7B3 EQ PUSH2 0x40A JUMPI DUP1 PUSH4 0xBB9FF5D EQ PUSH2 0x41D JUMPI DUP1 PUSH4 0x18160DDD EQ PUSH2 0x430 JUMPI PUSH1 0x0 DUP1 REVERT JUMPDEST DUP1 PUSH4 0x3ED957F GT PUSH2 0x31F JUMPI DUP1 PUSH4 0x3ED957F EQ PUSH2 0x3B5 JUMPI DUP1 PUSH4 0x6FB1A07 EQ PUSH2 0x3CA JUMPI DUP1 PUSH4 0x6FDDE03 EQ PUSH2 0x3F5 JUMPI PUSH1 0x0 DUP1 REVERT JUMPDEST DUP1 PUSH3 0x245783 EQ PUSH2 0x345 JUMPI DUP1 PUSH4 0x1FFC9A7 EQ PUSH2 0x36B JUMPI DUP1 PUSH4 0x288F0FB EQ PUSH2 0x38E JUMPI JUMPDEST PUSH1 0x0 DUP1 REVERT JUMPDEST PUSH2 0x358 PUSH2 0x353 CALLDATASIZE PUSH1 0x4 PUSH2 0x39D0 JUMP JUMPDEST PUSH2 0x7C1 JUMP JUMPDEST PUSH1 0x40 MLOAD SWAP1 DUP2 MSTORE PUSH1 0x20 ADD JUMPDEST PUSH1 0x40 MLOAD DUP1 SWAP2 SUB SWAP1 RETURN JUMPDEST PUSH2 0x37E PUSH2 0x379 CALLDATASIZE PUSH1 0x4 PUSH2 0x3D25 JUMP JUMPDEST PUSH2 0x896 JUMP JUMPDEST PUSH1 0x40 MLOAD SWAP1 ISZERO ISZERO DUP2 MSTORE PUSH1 0x20 ADD PUSH2 0x362 JUMP JUMPDEST PUSH2 0x358 PUSH32 0x233299FC8224C0CB5B2B8B651B93354CF11D5245F1374BB37773608FFA1913C1 DUP2 JUMP JUMPDEST PUSH2 0x3C8 PUSH2 0x3C3 CALLDATASIZE PUSH1 0x4 PUSH2 0x3B9F JUMP JUMPDEST PUSH2 0x8DA JUMP JUMPDEST STOP JUMPDEST PUSH2 0x3DD PUSH2 0x3D8 CALLDATASIZE PUSH1 0x4 PUSH2 0x3CC8 JUMP JUMPDEST PUSH2 0x973 JUMP JUMPDEST PUSH1 0x40 MLOAD PUSH1 0x1 PUSH1 0x1 PUSH1 0xA0 SHL SUB SWAP1 SWAP2 AND DUP2 MSTORE PUSH1 0x20 ADD PUSH2 0x362 JUMP JUMPDEST PUSH2 0x3FD PUSH2 0x9B1 JUMP JUMPDEST PUSH1 0x40 MLOAD PUSH2 0x362 SWAP2 SWAP1 PUSH2 0x4085 JUMP JUMPDEST PUSH2 0x37E PUSH2 0x418 CALLDATASIZE PUSH1 0x4 PUSH2 0x3A23 JUMP JUMPDEST PUSH2 0xA43 JUMP JUMPDEST PUSH2 0x3C8 PUSH2 0x42B CALLDATASIZE PUSH1 0x4 PUSH2 0x3A23 JUMP JUMPDEST PUSH2 0xA59 JUMP JUMPDEST PUSH2 0x358 PUSH2 0xB1D JUMP JUMPDEST PUSH2 0x3C8 PUSH2 0x446 CALLDATASIZE PUSH1 0x4 PUSH2 0x3A23 JUMP JUMPDEST PUSH2 0xBE0 JUMP JUMPDEST PUSH1 0x7 SLOAD PUSH2 0x358 JUMP JUMPDEST PUSH2 0x3C8 PUSH2 0x461 CALLDATASIZE PUSH1 0x4 PUSH2 0x3A23 JUMP JUMPDEST PUSH2 0xC96 JUMP JUMPDEST PUSH2 0x3C8 PUSH2 0x474 CALLDATASIZE PUSH1 0x4 PUSH2 0x38C7 JUMP JUMPDEST PUSH2 0xD4C JUMP JUMPDEST PUSH2 0x37E PUSH2 0x487 CALLDATASIZE PUSH1 0x4 PUSH2 0x391B JUMP JUMPDEST PUSH2 0xDF3 JUMP JUMPDEST PUSH2 0x358 PUSH2 0x49A CALLDATASIZE PUSH1 0x4 PUSH2 0x3CC8 JUMP JUMPDEST PUSH1 0x0 SWAP1 DUP2 MSTORE PUSH1 0x20 DUP2 SWAP1 MSTORE PUSH1 0x40 SWAP1 KECCAK256 PUSH1 0x1 ADD SLOAD SWAP1 JUMP JUMPDEST PUSH2 0x3C8 PUSH2 0x4BD CALLDATASIZE PUSH1 0x4 PUSH2 0x3CE0 JUMP JUMPDEST PUSH2 0xF40 JUMP JUMPDEST PUSH1 0x40 MLOAD PUSH1 0x12 DUP2 MSTORE PUSH1 0x20 ADD PUSH2 0x362 JUMP JUMPDEST CHAINID PUSH2 0x358 JUMP JUMPDEST PUSH2 0x358 PUSH2 0xF67 JUMP JUMPDEST PUSH2 0x3C8 PUSH2 0x4ED CALLDATASIZE PUSH1 0x4 PUSH2 0x3CE0 JUMP JUMPDEST PUSH2 0xF71 JUMP JUMPDEST PUSH2 0x37E PUSH2 0x500 CALLDATASIZE PUSH1 0x4 PUSH2 0x3A23 JUMP JUMPDEST PUSH2 0xF93 JUMP JUMPDEST PUSH2 0x3C8 PUSH2 0xFCA JUMP JUMPDEST PUSH2 0x358 PUSH2 0x51B CALLDATASIZE PUSH1 0x4 PUSH2 0x38C7 JUMP JUMPDEST PUSH2 0x1028 JUMP JUMPDEST PUSH2 0x358 PUSH32 0xB5B5A86CC252B1B75A439C6FF372933CEB0690188924E6461150ADEB00AB80D8 DUP2 JUMP JUMPDEST PUSH2 0x3C8 PUSH2 0x555 CALLDATASIZE PUSH1 0x4 PUSH2 0x3A4E JUMP JUMPDEST PUSH2 0x10F6 JUMP JUMPDEST PUSH2 0x3C8 PUSH2 0x568 CALLDATASIZE PUSH1 0x4 PUSH2 0x3A23 JUMP JUMPDEST PUSH2 0x137F JUMP JUMPDEST PUSH2 0x580 PUSH2 0x57B CALLDATASIZE PUSH1 0x4 PUSH2 0x3A4E JUMP JUMPDEST PUSH2 0x1435 JUMP JUMPDEST PUSH1 0x40 MLOAD PUSH2 0x362 SWAP2 SWAP1 PUSH2 0x402D JUMP JUMPDEST PUSH2 0x358 PUSH2 0x59B CALLDATASIZE PUSH1 0x4 PUSH2 0x38C7 JUMP JUMPDEST PUSH2 0x150E JUMP JUMPDEST PUSH2 0x3C8 PUSH2 0x5AE CALLDATASIZE PUSH1 0x4 PUSH2 0x3B2F JUMP JUMPDEST PUSH2 0x15F9 JUMP JUMPDEST PUSH2 0x358 PUSH2 0x5C1 CALLDATASIZE PUSH1 0x4 PUSH2 0x38C7 JUMP JUMPDEST PUSH2 0x1B12 JUMP JUMPDEST PUSH2 0x5D9 PUSH2 0x5D4 CALLDATASIZE PUSH1 0x4 PUSH2 0x3A4E JUMP JUMPDEST PUSH2 0x1B30 JUMP JUMPDEST PUSH1 0x40 MLOAD PUSH2 0x362 SWAP2 SWAP1 PUSH2 0x3F33 JUMP JUMPDEST PUSH2 0x358 PUSH32 0x2A8464C3E212C8F1064432774C6CC3E76F14BD7CCDAFD9A1D1CF9B43B51E524 DUP2 JUMP JUMPDEST PUSH2 0x3C8 PUSH2 0x61B CALLDATASIZE PUSH1 0x4 PUSH2 0x3A23 JUMP JUMPDEST PUSH2 0x1C01 JUMP JUMPDEST PUSH2 0x3DD PUSH2 0x62E CALLDATASIZE PUSH1 0x4 PUSH2 0x3D04 JUMP JUMPDEST PUSH2 0x1ED0 JUMP JUMPDEST PUSH2 0x37E PUSH2 0x641 CALLDATASIZE PUSH1 0x4 PUSH2 0x3CE0 JUMP JUMPDEST PUSH1 0x0 SWAP2 DUP3 MSTORE PUSH1 0x20 DUP3 DUP2 MSTORE PUSH1 0x40 DUP1 DUP5 KECCAK256 PUSH1 0x1 PUSH1 0x1 PUSH1 0xA0 SHL SUB SWAP4 SWAP1 SWAP4 AND DUP5 MSTORE SWAP2 SWAP1 MSTORE SWAP1 KECCAK256 SLOAD PUSH1 0xFF AND SWAP1 JUMP JUMPDEST PUSH2 0x358 PUSH32 0xAEAEF46186EB59F884E36929B6D682A6AE35E1E43D8F05F058DCEFB92B601461 DUP2 JUMP JUMPDEST PUSH2 0x3FD PUSH2 0x1EE8 JUMP JUMPDEST PUSH2 0x358 PUSH32 0x5772712B2943D95A931C0B3A7DDF59CBA41B664500D9B93626000A17809F04D1 DUP2 JUMP JUMPDEST PUSH2 0x3C8 PUSH2 0x6CE CALLDATASIZE PUSH1 0x4 PUSH2 0x391B JUMP JUMPDEST PUSH2 0x1EF7 JUMP JUMPDEST PUSH2 0x37E PUSH2 0x6E1 CALLDATASIZE PUSH1 0x4 PUSH2 0x3A23 JUMP JUMPDEST PUSH2 0x1FFB JUMP JUMPDEST PUSH2 0x37E PUSH2 0x6F4 CALLDATASIZE PUSH1 0x4 PUSH2 0x3A23 JUMP JUMPDEST PUSH2 0x20AE JUMP JUMPDEST PUSH1 0x8 SLOAD PUSH2 0x37E SWAP1 PUSH1 0xFF AND DUP2 JUMP JUMPDEST PUSH2 0x3C8 PUSH2 0x714 CALLDATASIZE PUSH1 0x4 PUSH2 0x3A23 JUMP JUMPDEST PUSH2 0x20FE JUMP JUMPDEST PUSH2 0x37E PUSH2 0x727 CALLDATASIZE PUSH1 0x4 PUSH2 0x391B JUMP JUMPDEST PUSH2 0x2358 JUMP JUMPDEST PUSH2 0x3C8 PUSH2 0x2417 JUMP JUMPDEST PUSH2 0x358 PUSH2 0x742 CALLDATASIZE PUSH1 0x4 PUSH2 0x3CC8 JUMP JUMPDEST PUSH2 0x2472 JUMP JUMPDEST PUSH2 0x358 PUSH1 0x0 DUP2 JUMP JUMPDEST PUSH2 0x3C8 PUSH2 0x75D CALLDATASIZE PUSH1 0x4 PUSH2 0x395B JUMP JUMPDEST PUSH2 0x2489 JUMP JUMPDEST PUSH2 0x3C8 PUSH2 0x770 CALLDATASIZE PUSH1 0x4 PUSH2 0x3CE0 JUMP JUMPDEST PUSH2 0x25ED JUMP JUMPDEST PUSH2 0x358 PUSH2 0x783 CALLDATASIZE PUSH1 0x4 PUSH2 0x38E3 JUMP JUMPDEST PUSH1 0x1 PUSH1 0x1 PUSH1 0xA0 SHL SUB SWAP2 DUP3 AND PUSH1 0x0 SWAP1 DUP2 MSTORE PUSH1 0x3 PUSH1 0x20 SWAP1 DUP2 MSTORE PUSH1 0x40 DUP1 DUP4 KECCAK256 SWAP4 SWAP1 SWAP5 AND DUP3 MSTORE SWAP2 SWAP1 SWAP2 MSTORE KECCAK256 SLOAD SWAP1 JUMP JUMPDEST PUSH2 0x3C8 PUSH2 0x7BC CALLDATASIZE PUSH1 0x4 PUSH2 0x3D4D JUMP JUMPDEST PUSH2 0x25F7 JUMP JUMPDEST PUSH1 0x0 DUP1 PUSH1 0x7 PUSH1 0x0 DUP2 SLOAD DUP2 LT PUSH2 0x7E6 JUMPI PUSH4 0x4E487B71 PUSH1 0xE0 SHL PUSH1 0x0 MSTORE PUSH1 0x32 PUSH1 0x4 MSTORE PUSH1 0x24 PUSH1 0x0 REVERT JUMPDEST PUSH1 0x0 SWAP2 DUP3 MSTORE PUSH1 0x20 SWAP1 SWAP2 KECCAK256 ADD SLOAD PUSH1 0x40 MLOAD PUSH31 0x24578300000000000000000000000000000000000000000000000000000000 DUP2 MSTORE PUSH1 0x1 PUSH1 0x1 PUSH1 0xA0 SHL SUB SWAP1 SWAP2 AND SWAP2 POP DUP2 SWAP1 PUSH3 0x245783 SWAP1 PUSH2 0x83D SWAP1 DUP9 SWAP1 DUP9 SWAP1 DUP9 SWAP1 PUSH1 0x4 ADD PUSH2 0x3EFC JUMP JUMPDEST PUSH1 0x20 PUSH1 0x40 MLOAD DUP1 DUP4 SUB DUP2 DUP7 DUP1 EXTCODESIZE ISZERO DUP1 ISZERO PUSH2 0x855 JUMPI PUSH1 0x0 DUP1 REVERT JUMPDEST POP GAS STATICCALL ISZERO DUP1 ISZERO PUSH2 0x869 JUMPI RETURNDATASIZE PUSH1 0x0 DUP1 RETURNDATACOPY RETURNDATASIZE PUSH1 0x0 REVERT JUMPDEST POP POP POP POP PUSH1 0x40 MLOAD RETURNDATASIZE PUSH1 0x1F NOT PUSH1 0x1F DUP3 ADD AND DUP3 ADD DUP1 PUSH1 0x40 MSTORE POP DUP2 ADD SWAP1 PUSH2 0x88D SWAP2 SWAP1 PUSH2 0x3E1B JUMP JUMPDEST SWAP6 SWAP5 POP POP POP POP POP JUMP JUMPDEST PUSH1 0x0 PUSH1 0x1 PUSH1 0x1 PUSH1 0xE0 SHL SUB NOT DUP3 AND PUSH32 0x5A05180F00000000000000000000000000000000000000000000000000000000 EQ DUP1 PUSH2 0x8D4 JUMPI POP PUSH2 0x8D4 DUP3 PUSH2 0x263F JUMP JUMPDEST SWAP3 SWAP2 POP POP JUMP JUMPDEST PUSH1 0x0 PUSH2 0x8E6 DUP2 CALLER PUSH2 0x26A6 JUMP JUMPDEST PUSH1 0x0 JUMPDEST DUP3 DUP2 LT ISZERO PUSH2 0x96D JUMPI PUSH2 0x95B DUP5 DUP5 DUP4 DUP2 DUP2 LT PUSH2 0x914 JUMPI PUSH4 0x4E487B71 PUSH1 0xE0 SHL PUSH1 0x0 MSTORE PUSH1 0x32 PUSH1 0x4 MSTORE PUSH1 0x24 PUSH1 0x0 REVERT JUMPDEST SWAP1 POP PUSH1 0x40 MUL ADD PUSH1 0x0 ADD CALLDATALOAD DUP6 DUP6 DUP5 DUP2 DUP2 LT PUSH2 0x93E JUMPI PUSH4 0x4E487B71 PUSH1 0xE0 SHL PUSH1 0x0 MSTORE PUSH1 0x32 PUSH1 0x4 MSTORE PUSH1 0x24 PUSH1 0x0 REVERT JUMPDEST SWAP1 POP PUSH1 0x40 MUL ADD PUSH1 0x20 ADD PUSH1 0x20 DUP2 ADD SWAP1 PUSH2 0x956 SWAP2 SWAP1 PUSH2 0x38C7 JUMP JUMPDEST PUSH2 0x2724 JUMP JUMPDEST DUP1 PUSH2 0x965 DUP2 PUSH2 0x41FC JUMP JUMPDEST SWAP2 POP POP PUSH2 0x8E9 JUMP JUMPDEST POP POP POP POP JUMP JUMPDEST PUSH1 0x0 PUSH1 0x7 DUP3 DUP2 SLOAD DUP2 LT PUSH2 0x996 JUMPI PUSH4 0x4E487B71 PUSH1 0xE0 SHL PUSH1 0x0 MSTORE PUSH1 0x32 PUSH1 0x4 MSTORE PUSH1 0x24 PUSH1 0x0 REVERT JUMPDEST PUSH1 0x0 SWAP2 DUP3 MSTORE PUSH1 0x20 SWAP1 SWAP2 KECCAK256 ADD SLOAD PUSH1 0x1 PUSH1 0x1 PUSH1 0xA0 SHL SUB AND SWAP3 SWAP2 POP POP JUMP JUMPDEST PUSH1 0x60 PUSH1 0x4 DUP1 SLOAD PUSH2 0x9C0 SWAP1 PUSH2 0x41C7 JUMP JUMPDEST DUP1 PUSH1 0x1F ADD PUSH1 0x20 DUP1 SWAP2 DIV MUL PUSH1 0x20 ADD PUSH1 0x40 MLOAD SWAP1 DUP2 ADD PUSH1 0x40 MSTORE DUP1 SWAP3 SWAP2 SWAP1 DUP2 DUP2 MSTORE PUSH1 0x20 ADD DUP3 DUP1 SLOAD PUSH2 0x9EC SWAP1 PUSH2 0x41C7 JUMP JUMPDEST DUP1 ISZERO PUSH2 0xA39 JUMPI DUP1 PUSH1 0x1F LT PUSH2 0xA0E JUMPI PUSH2 0x100 DUP1 DUP4 SLOAD DIV MUL DUP4 MSTORE SWAP2 PUSH1 0x20 ADD SWAP2 PUSH2 0xA39 JUMP JUMPDEST DUP3 ADD SWAP2 SWAP1 PUSH1 0x0 MSTORE PUSH1 0x20 PUSH1 0x0 KECCAK256 SWAP1 JUMPDEST DUP2 SLOAD DUP2 MSTORE SWAP1 PUSH1 0x1 ADD SWAP1 PUSH1 0x20 ADD DUP1 DUP4 GT PUSH2 0xA1C JUMPI DUP3 SWAP1 SUB PUSH1 0x1F AND DUP3 ADD SWAP2 JUMPDEST POP POP POP POP POP SWAP1 POP SWAP1 JUMP JUMPDEST PUSH1 0x0 PUSH2 0xA50 CALLER DUP5 DUP5 PUSH2 0x272E JUMP JUMPDEST POP PUSH1 0x1 SWAP3 SWAP2 POP POP JUMP JUMPDEST PUSH1 0x8 SLOAD PUSH1 0xFF AND ISZERO PUSH2 0xAA0 JUMPI PUSH1 0x40 MLOAD PUSH3 0x461BCD PUSH1 0xE5 SHL DUP2 MSTORE PUSH1 0x20 PUSH1 0x4 DUP3 ADD MSTORE PUSH1 0xC PUSH1 0x24 DUP3 ADD MSTORE PUSH12 0x111151950E881C185D5CD959 PUSH1 0xA2 SHL PUSH1 0x44 DUP3 ADD MSTORE PUSH1 0x64 ADD JUMPDEST PUSH1 0x40 MLOAD DUP1 SWAP2 SUB SWAP1 REVERT JUMPDEST PUSH32 0xAEAEF46186EB59F884E36929B6D682A6AE35E1E43D8F05F058DCEFB92B601461 PUSH2 0xACB DUP2 CALLER PUSH2 0x26A6 JUMP JUMPDEST PUSH2 0xAD5 DUP4 DUP4 PUSH2 0x2886 JUMP JUMPDEST PUSH1 0x40 DUP1 MLOAD PUSH1 0x1 PUSH1 0x1 PUSH1 0xA0 SHL SUB DUP6 AND DUP2 MSTORE PUSH1 0x20 DUP2 ADD DUP5 SWAP1 MSTORE PUSH32 0x99FC78BCF3C24B8CD6AD4EDA1E3EB007E511C09C640AF1C46437DED34CF10F2 SWAP2 ADD JUMPDEST PUSH1 0x40 MLOAD DUP1 SWAP2 SUB SWAP1 LOG1 POP POP POP JUMP JUMPDEST PUSH1 0x0 PUSH1 0x7 PUSH1 0x0 DUP2 SLOAD DUP2 LT PUSH2 0xB41 JUMPI PUSH4 0x4E487B71 PUSH1 0xE0 SHL PUSH1 0x0 MSTORE PUSH1 0x32 PUSH1 0x4 MSTORE PUSH1 0x24 PUSH1 0x0 REVERT JUMPDEST PUSH1 0x0 SWAP2 DUP3 MSTORE PUSH1 0x20 SWAP2 DUP3 SWAP1 KECCAK256 ADD SLOAD PUSH1 0x40 DUP1 MLOAD PUSH32 0xC4E41B2200000000000000000000000000000000000000000000000000000000 DUP2 MSTORE SWAP1 MLOAD PUSH1 0x1 PUSH1 0x1 PUSH1 0xA0 SHL SUB SWAP1 SWAP3 AND SWAP3 PUSH4 0xC4E41B22 SWAP3 PUSH1 0x4 DUP1 DUP5 ADD SWAP4 DUP3 SWAP1 SUB ADD DUP2 DUP7 DUP1 EXTCODESIZE ISZERO DUP1 ISZERO PUSH2 0xBA3 JUMPI PUSH1 0x0 DUP1 REVERT JUMPDEST POP GAS STATICCALL ISZERO DUP1 ISZERO PUSH2 0xBB7 JUMPI RETURNDATASIZE PUSH1 0x0 DUP1 RETURNDATACOPY RETURNDATASIZE PUSH1 0x0 REVERT JUMPDEST POP POP POP POP PUSH1 0x40 MLOAD RETURNDATASIZE PUSH1 0x1F NOT PUSH1 0x1F DUP3 ADD AND DUP3 ADD DUP1 PUSH1 0x40 MSTORE POP DUP2 ADD SWAP1 PUSH2 0xBDB SWAP2 SWAP1 PUSH2 0x3E1B JUMP JUMPDEST SWAP1 POP SWAP1 JUMP JUMPDEST PUSH1 0x8 SLOAD PUSH1 0xFF AND ISZERO PUSH2 0xC22 JUMPI PUSH1 0x40 MLOAD PUSH3 0x461BCD PUSH1 0xE5 SHL DUP2 MSTORE PUSH1 0x20 PUSH1 0x4 DUP3 ADD MSTORE PUSH1 0xC PUSH1 0x24 DUP3 ADD MSTORE PUSH12 0x111151950E881C185D5CD959 PUSH1 0xA2 SHL PUSH1 0x44 DUP3 ADD MSTORE PUSH1 0x64 ADD PUSH2 0xA97 JUMP JUMPDEST PUSH32 0xB5B5A86CC252B1B75A439C6FF372933CEB0690188924E6461150ADEB00AB80D8 PUSH2 0xC4D DUP2 CALLER PUSH2 0x26A6 JUMP JUMPDEST PUSH2 0xC57 DUP4 DUP4 PUSH2 0x2A11 JUMP JUMPDEST PUSH1 0x40 DUP1 MLOAD PUSH1 0x1 PUSH1 0x1 PUSH1 0xA0 SHL SUB DUP6 AND DUP2 MSTORE PUSH1 0x20 DUP2 ADD DUP5 SWAP1 MSTORE PUSH32 0xA5B82707BC4CE1D57E909B70ADB28E393A34C2AB77E30F862CA2E0E9F8DA905 SWAP2 ADD PUSH2 0xB10 JUMP JUMPDEST PUSH1 0x8 SLOAD PUSH1 0xFF AND ISZERO PUSH2 0xCD8 JUMPI PUSH1 0x40 MLOAD PUSH3 0x461BCD PUSH1 0xE5 SHL DUP2 MSTORE PUSH1 0x20 PUSH1 0x4 DUP3 ADD MSTORE PUSH1 0xC PUSH1 0x24 DUP3 ADD MSTORE PUSH12 0x111151950E881C185D5CD959 PUSH1 0xA2 SHL PUSH1 0x44 DUP3 ADD MSTORE PUSH1 0x64 ADD PUSH2 0xA97 JUMP JUMPDEST PUSH32 0xAEAEF46186EB59F884E36929B6D682A6AE35E1E43D8F05F058DCEFB92B601461 PUSH2 0xD03 DUP2 CALLER PUSH2 0x26A6 JUMP JUMPDEST PUSH2 0xD0D DUP4 DUP4 PUSH2 0x2886 JUMP JUMPDEST PUSH1 0x40 DUP1 MLOAD PUSH1 0x1 PUSH1 0x1 PUSH1 0xA0 SHL SUB DUP6 AND DUP2 MSTORE PUSH1 0x20 DUP2 ADD DUP5 SWAP1 MSTORE PUSH32 0x7D48429C6EB871D47DEA691D65BB2D1F99EAF5D33E7A06363B8FAFB3F6EA0178 SWAP2 ADD PUSH2 0xB10 JUMP JUMPDEST PUSH1 0x0 PUSH1 0x7 PUSH1 0x0 DUP2 SLOAD DUP2 LT PUSH2 0xD70 JUMPI PUSH4 0x4E487B71 PUSH1 0xE0 SHL PUSH1 0x0 MSTORE PUSH1 0x32 PUSH1 0x4 MSTORE PUSH1 0x24 PUSH1 0x0 REVERT JUMPDEST PUSH1 0x0 SWAP2 DUP3 MSTORE PUSH1 0x20 SWAP1 SWAP2 KECCAK256 ADD SLOAD PUSH1 0x1 PUSH1 0x1 PUSH1 0xA0 SHL SUB AND SWAP1 POP DUP1 PUSH4 0x5603B9F9 CALLER PUSH1 0x40 MLOAD PUSH1 0x1 PUSH1 0x1 PUSH1 0xE0 SHL SUB NOT PUSH1 0xE0 DUP5 SWAP1 SHL AND DUP2 MSTORE PUSH1 0x1 PUSH1 0x1 PUSH1 0xA0 SHL SUB SWAP2 DUP3 AND PUSH1 0x4 DUP3 ADD MSTORE SWAP1 DUP6 AND PUSH1 0x24 DUP3 ADD MSTORE PUSH1 0x44 ADD PUSH1 0x0 PUSH1 0x40 MLOAD DUP1 DUP4 SUB DUP2 PUSH1 0x0 DUP8 DUP1 EXTCODESIZE ISZERO DUP1 ISZERO PUSH2 0xDD7 JUMPI PUSH1 0x0 DUP1 REVERT JUMPDEST POP GAS CALL ISZERO DUP1 ISZERO PUSH2 0xDEB JUMPI RETURNDATASIZE PUSH1 0x0 DUP1 RETURNDATACOPY RETURNDATASIZE PUSH1 0x0 REVERT JUMPDEST POP POP POP POP POP POP JUMP JUMPDEST PUSH1 0x8 SLOAD PUSH1 0x0 SWAP1 PUSH1 0xFF AND ISZERO PUSH2 0xE38 JUMPI PUSH1 0x40 MLOAD PUSH3 0x461BCD PUSH1 0xE5 SHL DUP2 MSTORE PUSH1 0x20 PUSH1 0x4 DUP3 ADD MSTORE PUSH1 0xC PUSH1 0x24 DUP3 ADD MSTORE PUSH12 0x111151950E881C185D5CD959 PUSH1 0xA2 SHL PUSH1 0x44 DUP3 ADD MSTORE PUSH1 0x64 ADD PUSH2 0xA97 JUMP JUMPDEST PUSH1 0x1 PUSH1 0x1 PUSH1 0xA0 SHL SUB DUP5 AND PUSH2 0xE7C JUMPI PUSH1 0x40 MLOAD PUSH3 0x461BCD PUSH1 0xE5 SHL DUP2 MSTORE PUSH1 0x20 PUSH1 0x4 DUP3 ADD MSTORE PUSH1 0xB PUSH1 0x24 DUP3 ADD MSTORE PUSH11 0x2222A32A1D1010B13AB937 PUSH1 0xA9 SHL PUSH1 0x44 DUP3 ADD MSTORE PUSH1 0x64 ADD PUSH2 0xA97 JUMP JUMPDEST PUSH2 0xE87 DUP5 DUP5 DUP5 PUSH2 0x2BC7 JUMP JUMPDEST PUSH1 0x1 PUSH1 0x1 PUSH1 0xA0 SHL SUB DUP5 AND PUSH1 0x0 SWAP1 DUP2 MSTORE PUSH1 0x3 PUSH1 0x20 SWAP1 DUP2 MSTORE PUSH1 0x40 DUP1 DUP4 KECCAK256 CALLER DUP5 MSTORE SWAP1 SWAP2 MSTORE SWAP1 KECCAK256 SLOAD DUP3 DUP2 LT ISZERO PUSH2 0xF21 JUMPI PUSH1 0x40 MLOAD PUSH3 0x461BCD PUSH1 0xE5 SHL DUP2 MSTORE PUSH1 0x20 PUSH1 0x4 DUP3 ADD MSTORE PUSH1 0x27 PUSH1 0x24 DUP3 ADD MSTORE PUSH32 0x444546543A207472616E7366657220616D6F756E74206578636565647320616C PUSH1 0x44 DUP3 ADD MSTORE PUSH32 0x6C6F77616E636500000000000000000000000000000000000000000000000000 PUSH1 0x64 DUP3 ADD MSTORE PUSH1 0x84 ADD PUSH2 0xA97 JUMP JUMPDEST PUSH2 0xF35 DUP6 CALLER PUSH2 0xF30 DUP7 DUP6 PUSH2 0x416D JUMP JUMPDEST PUSH2 0x272E JUMP JUMPDEST POP PUSH1 0x1 SWAP5 SWAP4 POP POP POP POP JUMP JUMPDEST PUSH2 0xF4A DUP3 DUP3 PUSH2 0x2E68 JUMP JUMPDEST PUSH1 0x0 DUP3 DUP2 MSTORE PUSH1 0x1 PUSH1 0x20 MSTORE PUSH1 0x40 SWAP1 KECCAK256 PUSH2 0xF62 SWAP1 DUP3 PUSH2 0x262A JUMP JUMPDEST POP POP POP JUMP JUMPDEST PUSH1 0x0 PUSH2 0xBDB PUSH2 0x2E7E JUMP JUMPDEST PUSH2 0xF7B DUP3 DUP3 PUSH2 0x2F71 JUMP JUMPDEST PUSH1 0x0 DUP3 DUP2 MSTORE PUSH1 0x1 PUSH1 0x20 MSTORE PUSH1 0x40 SWAP1 KECCAK256 PUSH2 0xF62 SWAP1 DUP3 PUSH2 0x2FF9 JUMP JUMPDEST CALLER PUSH1 0x0 DUP2 DUP2 MSTORE PUSH1 0x3 PUSH1 0x20 SWAP1 DUP2 MSTORE PUSH1 0x40 DUP1 DUP4 KECCAK256 PUSH1 0x1 PUSH1 0x1 PUSH1 0xA0 SHL SUB DUP8 AND DUP5 MSTORE SWAP1 SWAP2 MSTORE DUP2 KECCAK256 SLOAD SWAP1 SWAP2 PUSH2 0xA50 SWAP2 DUP6 SWAP1 PUSH2 0xF30 SWAP1 DUP7 SWAP1 PUSH2 0x4136 JUMP JUMPDEST PUSH1 0x8 SLOAD PUSH1 0xFF AND ISZERO PUSH2 0x100C JUMPI PUSH1 0x40 MLOAD PUSH3 0x461BCD PUSH1 0xE5 SHL DUP2 MSTORE PUSH1 0x20 PUSH1 0x4 DUP3 ADD MSTORE PUSH1 0xC PUSH1 0x24 DUP3 ADD MSTORE PUSH12 0x111151950E881C185D5CD959 PUSH1 0xA2 SHL PUSH1 0x44 DUP3 ADD MSTORE PUSH1 0x64 ADD PUSH2 0xA97 JUMP JUMPDEST PUSH1 0x0 PUSH2 0x1018 DUP2 CALLER PUSH2 0x26A6 JUMP JUMPDEST POP PUSH1 0x8 DUP1 SLOAD PUSH1 0xFF NOT AND PUSH1 0x1 OR SWAP1 SSTORE JUMP JUMPDEST PUSH1 0x0 DUP1 PUSH1 0x7 PUSH1 0x0 DUP2 SLOAD DUP2 LT PUSH2 0x104D JUMPI PUSH4 0x4E487B71 PUSH1 0xE0 SHL PUSH1 0x0 MSTORE PUSH1 0x32 PUSH1 0x4 MSTORE PUSH1 0x24 PUSH1 0x0 REVERT JUMPDEST PUSH1 0x0 SWAP2 DUP3 MSTORE PUSH1 0x20 SWAP1 SWAP2 KECCAK256 ADD SLOAD PUSH1 0x40 MLOAD PUSH32 0x4ABD991D00000000000000000000000000000000000000000000000000000000 DUP2 MSTORE PUSH1 0x1 PUSH1 0x1 PUSH1 0xA0 SHL SUB DUP6 DUP2 AND PUSH1 0x4 DUP4 ADD MSTORE SWAP1 SWAP2 AND SWAP2 POP DUP2 SWAP1 PUSH4 0x4ABD991D SWAP1 PUSH1 0x24 ADD PUSH1 0x20 PUSH1 0x40 MLOAD DUP1 DUP4 SUB DUP2 DUP7 DUP1 EXTCODESIZE ISZERO DUP1 ISZERO PUSH2 0x10B7 JUMPI PUSH1 0x0 DUP1 REVERT JUMPDEST POP GAS STATICCALL ISZERO DUP1 ISZERO PUSH2 0x10CB JUMPI RETURNDATASIZE PUSH1 0x0 DUP1 RETURNDATACOPY RETURNDATASIZE PUSH1 0x0 REVERT JUMPDEST POP POP POP POP PUSH1 0x40 MLOAD RETURNDATASIZE PUSH1 0x1F NOT PUSH1 0x1F DUP3 ADD AND DUP3 ADD DUP1 PUSH1 0x40 MSTORE POP DUP2 ADD SWAP1 PUSH2 0x10EF SWAP2 SWAP1 PUSH2 0x3E1B JUMP JUMPDEST SWAP4 SWAP3 POP POP POP JUMP JUMPDEST PUSH1 0x8 SLOAD PUSH1 0xFF AND ISZERO PUSH2 0x1138 JUMPI PUSH1 0x40 MLOAD PUSH3 0x461BCD PUSH1 0xE5 SHL DUP2 MSTORE PUSH1 0x20 PUSH1 0x4 DUP3 ADD MSTORE PUSH1 0xC PUSH1 0x24 DUP3 ADD MSTORE PUSH12 0x111151950E881C185D5CD959 PUSH1 0xA2 SHL PUSH1 0x44 DUP3 ADD MSTORE PUSH1 0x64 ADD PUSH2 0xA97 JUMP JUMPDEST PUSH1 0x0 PUSH1 0x7 PUSH1 0x0 DUP2 SLOAD DUP2 LT PUSH2 0x115C JUMPI PUSH4 0x4E487B71 PUSH1 0xE0 SHL PUSH1 0x0 MSTORE PUSH1 0x32 PUSH1 0x4 MSTORE PUSH1 0x24 PUSH1 0x0 REVERT JUMPDEST PUSH1 0x0 SWAP2 DUP3 MSTORE PUSH1 0x20 SWAP1 SWAP2 KECCAK256 ADD SLOAD PUSH1 0x40 MLOAD PUSH32 0x3830551A00000000000000000000000000000000000000000000000000000000 DUP2 MSTORE PUSH1 0x1 PUSH1 0x1 PUSH1 0xA0 SHL SUB SWAP1 SWAP2 AND SWAP2 POP DUP2 SWAP1 PUSH4 0x3830551A SWAP1 PUSH2 0x11B3 SWAP1 DUP7 SWAP1 DUP7 SWAP1 PUSH1 0x4 ADD PUSH2 0x3F1F JUMP JUMPDEST PUSH1 0x0 PUSH1 0x40 MLOAD DUP1 DUP4 SUB DUP2 PUSH1 0x0 DUP8 DUP1 EXTCODESIZE ISZERO DUP1 ISZERO PUSH2 0x11CD JUMPI PUSH1 0x0 DUP1 REVERT JUMPDEST POP GAS CALL ISZERO DUP1 ISZERO PUSH2 0x11E1 JUMPI RETURNDATASIZE PUSH1 0x0 DUP1 RETURNDATACOPY RETURNDATASIZE PUSH1 0x0 REVERT JUMPDEST POP POP POP POP PUSH1 0x0 DUP2 PUSH1 0x1 PUSH1 0x1 PUSH1 0xA0 SHL SUB AND PUSH4 0x4ABD991D PUSH2 0x11FD CALLER SWAP1 JUMP JUMPDEST PUSH1 0x40 MLOAD PUSH1 0x1 PUSH1 0x1 PUSH1 0xE0 SHL SUB NOT PUSH1 0xE0 DUP5 SWAP1 SHL AND DUP2 MSTORE PUSH1 0x1 PUSH1 0x1 PUSH1 0xA0 SHL SUB SWAP1 SWAP2 AND PUSH1 0x4 DUP3 ADD MSTORE PUSH1 0x24 ADD PUSH1 0x20 PUSH1 0x40 MLOAD DUP1 DUP4 SUB DUP2 DUP7 DUP1 EXTCODESIZE ISZERO DUP1 ISZERO PUSH2 0x123C JUMPI PUSH1 0x0 DUP1 REVERT JUMPDEST POP GAS STATICCALL ISZERO DUP1 ISZERO PUSH2 0x1250 JUMPI RETURNDATASIZE PUSH1 0x0 DUP1 RETURNDATACOPY RETURNDATASIZE PUSH1 0x0 REVERT JUMPDEST POP POP POP POP PUSH1 0x40 MLOAD RETURNDATASIZE PUSH1 0x1F NOT PUSH1 0x1F DUP3 ADD AND DUP3 ADD DUP1 PUSH1 0x40 MSTORE POP DUP2 ADD SWAP1 PUSH2 0x1274 SWAP2 SWAP1 PUSH2 0x3E1B JUMP JUMPDEST SWAP1 POP PUSH1 0x0 DUP2 GT PUSH2 0x12C6 JUMPI PUSH1 0x40 MLOAD PUSH3 0x461BCD PUSH1 0xE5 SHL DUP2 MSTORE PUSH1 0x20 PUSH1 0x4 DUP3 ADD MSTORE PUSH1 0xE PUSH1 0x24 DUP3 ADD MSTORE PUSH32 0x444546543A202172657761726473000000000000000000000000000000000000 PUSH1 0x44 DUP3 ADD MSTORE PUSH1 0x64 ADD PUSH2 0xA97 JUMP JUMPDEST PUSH1 0x1 PUSH1 0x1 PUSH1 0xA0 SHL SUB DUP3 AND PUSH4 0xE3556819 CALLER PUSH1 0x40 MLOAD PUSH1 0x1 PUSH1 0x1 PUSH1 0xE0 SHL SUB NOT PUSH1 0xE0 DUP5 SWAP1 SHL AND DUP2 MSTORE PUSH1 0x1 PUSH1 0x1 PUSH1 0xA0 SHL SUB SWAP1 SWAP2 AND PUSH1 0x4 DUP3 ADD MSTORE PUSH1 0x24 ADD PUSH1 0x0 PUSH1 0x40 MLOAD DUP1 DUP4 SUB DUP2 PUSH1 0x0 DUP8 DUP1 EXTCODESIZE ISZERO DUP1 ISZERO PUSH2 0x1317 JUMPI PUSH1 0x0 DUP1 REVERT JUMPDEST POP GAS CALL ISZERO DUP1 ISZERO PUSH2 0x132B JUMPI RETURNDATASIZE PUSH1 0x0 DUP1 RETURNDATACOPY RETURNDATASIZE PUSH1 0x0 REVERT JUMPDEST POP POP POP POP PUSH2 0x133F PUSH2 0x1339 CALLER SWAP1 JUMP JUMPDEST DUP3 PUSH2 0x2886 JUMP JUMPDEST PUSH1 0x40 DUP1 MLOAD CALLER DUP2 MSTORE PUSH1 0x20 DUP2 ADD DUP4 SWAP1 MSTORE PUSH32 0x5B166DA4C6BCFD67577F205AC2EE4EF2CE2E24D51237EAFB87F82DF73F03F614 SWAP2 ADD JUMPDEST PUSH1 0x40 MLOAD DUP1 SWAP2 SUB SWAP1 LOG1 POP POP POP POP JUMP JUMPDEST PUSH1 0x8 SLOAD PUSH1 0xFF AND ISZERO PUSH2 0x13C1 JUMPI PUSH1 0x40 MLOAD PUSH3 0x461BCD PUSH1 0xE5 SHL DUP2 MSTORE PUSH1 0x20 PUSH1 0x4 DUP3 ADD MSTORE PUSH1 0xC PUSH1 0x24 DUP3 ADD MSTORE PUSH12 0x111151950E881C185D5CD959 PUSH1 0xA2 SHL PUSH1 0x44 DUP3 ADD MSTORE PUSH1 0x64 ADD PUSH2 0xA97 JUMP JUMPDEST PUSH32 0xB5B5A86CC252B1B75A439C6FF372933CEB0690188924E6461150ADEB00AB80D8 PUSH2 0x13EC DUP2 CALLER PUSH2 0x26A6 JUMP JUMPDEST PUSH2 0x13F6 DUP4 DUP4 PUSH2 0x2A11 JUMP JUMPDEST PUSH1 0x40 DUP1 MLOAD PUSH1 0x1 PUSH1 0x1 PUSH1 0xA0 SHL SUB DUP6 AND DUP2 MSTORE PUSH1 0x20 DUP2 ADD DUP5 SWAP1 MSTORE PUSH32 0x3EAC2380FCF2B255BD916AE212498A2E55F3C99BAAB43D3EB29CB6349639D0D2 SWAP2 ADD PUSH2 0xB10 JUMP JUMPDEST PUSH1 0x60 PUSH1 0x0 PUSH1 0x7 PUSH1 0x0 DUP2 SLOAD DUP2 LT PUSH2 0x145B JUMPI PUSH4 0x4E487B71 PUSH1 0xE0 SHL PUSH1 0x0 MSTORE PUSH1 0x32 PUSH1 0x4 MSTORE PUSH1 0x24 PUSH1 0x0 REVERT JUMPDEST PUSH1 0x0 SWAP2 DUP3 MSTORE PUSH1 0x20 SWAP1 SWAP2 KECCAK256 ADD SLOAD PUSH1 0x40 MLOAD PUSH32 0x68A2972F00000000000000000000000000000000000000000000000000000000 DUP2 MSTORE PUSH1 0x1 PUSH1 0x1 PUSH1 0xA0 SHL SUB SWAP1 SWAP2 AND SWAP2 POP DUP2 SWAP1 PUSH4 0x68A2972F SWAP1 PUSH2 0x14B2 SWAP1 DUP8 SWAP1 DUP8 SWAP1 PUSH1 0x4 ADD PUSH2 0x3F1F JUMP JUMPDEST PUSH1 0x0 PUSH1 0x40 MLOAD DUP1 DUP4 SUB DUP2 DUP7 DUP1 EXTCODESIZE ISZERO DUP1 ISZERO PUSH2 0x14CA JUMPI PUSH1 0x0 DUP1 REVERT JUMPDEST POP GAS STATICCALL ISZERO DUP1 ISZERO PUSH2 0x14DE JUMPI RETURNDATASIZE PUSH1 0x0 DUP1 RETURNDATACOPY RETURNDATASIZE PUSH1 0x0 REVERT JUMPDEST POP POP POP POP PUSH1 0x40 MLOAD RETURNDATASIZE PUSH1 0x0 DUP3 RETURNDATACOPY PUSH1 0x1F RETURNDATASIZE SWAP1 DUP2 ADD PUSH1 0x1F NOT AND DUP3 ADD PUSH1 0x40 MSTORE PUSH2 0x1506 SWAP2 SWAP1 DUP2 ADD SWAP1 PUSH2 0x3BFD JUMP JUMPDEST SWAP5 SWAP4 POP POP POP POP JUMP JUMPDEST PUSH1 0x0 PUSH1 0x7 PUSH1 0x0 DUP2 SLOAD DUP2 LT PUSH2 0x1532 JUMPI PUSH4 0x4E487B71 PUSH1 0xE0 SHL PUSH1 0x0 MSTORE PUSH1 0x32 PUSH1 0x4 MSTORE PUSH1 0x24 PUSH1 0x0 REVERT JUMPDEST PUSH1 0x0 SWAP2 DUP3 MSTORE PUSH1 0x20 DUP1 DUP4 KECCAK256 SWAP1 SWAP2 ADD SLOAD PUSH1 0x1 PUSH1 0x1 PUSH1 0xA0 SHL SUB DUP6 DUP2 AND DUP5 MSTORE PUSH1 0x2 SWAP1 SWAP3 MSTORE PUSH1 0x40 SWAP3 DUP4 SWAP1 KECCAK256 SLOAD SWAP3 MLOAD PUSH32 0x2B04E84000000000000000000000000000000000000000000000000000000000 DUP2 MSTORE SWAP2 AND SWAP2 PUSH4 0x2B04E840 SWAP2 PUSH2 0x15A9 SWAP2 DUP7 SWAP2 PUSH1 0x4 ADD PUSH1 0x1 PUSH1 0x1 PUSH1 0xA0 SHL SUB SWAP3 SWAP1 SWAP3 AND DUP3 MSTORE PUSH1 0x20 DUP3 ADD MSTORE PUSH1 0x40 ADD SWAP1 JUMP JUMPDEST PUSH1 0x20 PUSH1 0x40 MLOAD DUP1 DUP4 SUB DUP2 DUP7 DUP1 EXTCODESIZE ISZERO DUP1 ISZERO PUSH2 0x15C1 JUMPI PUSH1 0x0 DUP1 REVERT JUMPDEST POP GAS STATICCALL ISZERO DUP1 ISZERO PUSH2 0x15D5 JUMPI RETURNDATASIZE PUSH1 0x0 DUP1 RETURNDATACOPY RETURNDATASIZE PUSH1 0x0 REVERT JUMPDEST POP POP POP POP PUSH1 0x40 MLOAD RETURNDATASIZE PUSH1 0x1F NOT PUSH1 0x1F DUP3 ADD AND DUP3 ADD DUP1 PUSH1 0x40 MSTORE POP DUP2 ADD SWAP1 PUSH2 0x8D4 SWAP2 SWAP1 PUSH2 0x3E1B JUMP JUMPDEST PUSH1 0x0 PUSH2 0x1605 DUP2 CALLER PUSH2 0x26A6 JUMP JUMPDEST PUSH1 0x0 JUMPDEST PUSH1 0x7 SLOAD DUP2 LT ISZERO PUSH2 0x1797 JUMPI PUSH2 0x1671 PUSH32 0xAEAEF46186EB59F884E36929B6D682A6AE35E1E43D8F05F058DCEFB92B601461 PUSH1 0x7 DUP4 DUP2 SLOAD DUP2 LT PUSH2 0x1657 JUMPI PUSH4 0x4E487B71 PUSH1 0xE0 SHL PUSH1 0x0 MSTORE PUSH1 0x32 PUSH1 0x4 MSTORE PUSH1 0x24 PUSH1 0x0 REVERT JUMPDEST PUSH1 0x0 SWAP2 DUP3 MSTORE PUSH1 0x20 SWAP1 SWAP2 KECCAK256 ADD SLOAD PUSH1 0x1 PUSH1 0x1 PUSH1 0xA0 SHL SUB AND PUSH2 0x25ED JUMP JUMPDEST PUSH2 0x16B6 PUSH32 0xB5B5A86CC252B1B75A439C6FF372933CEB0690188924E6461150ADEB00AB80D8 PUSH1 0x7 DUP4 DUP2 SLOAD DUP2 LT PUSH2 0x1657 JUMPI PUSH4 0x4E487B71 PUSH1 0xE0 SHL PUSH1 0x0 MSTORE PUSH1 0x32 PUSH1 0x4 MSTORE PUSH1 0x24 PUSH1 0x0 REVERT JUMPDEST PUSH2 0x16FB PUSH32 0x2A8464C3E212C8F1064432774C6CC3E76F14BD7CCDAFD9A1D1CF9B43B51E524 PUSH1 0x7 DUP4 DUP2 SLOAD DUP2 LT PUSH2 0x1657 JUMPI PUSH4 0x4E487B71 PUSH1 0xE0 SHL PUSH1 0x0 MSTORE PUSH1 0x32 PUSH1 0x4 MSTORE PUSH1 0x24 PUSH1 0x0 REVERT JUMPDEST PUSH2 0x1740 PUSH32 0x233299FC8224C0CB5B2B8B651B93354CF11D5245F1374BB37773608FFA1913C1 PUSH1 0x7 DUP4 DUP2 SLOAD DUP2 LT PUSH2 0x1657 JUMPI PUSH4 0x4E487B71 PUSH1 0xE0 SHL PUSH1 0x0 MSTORE PUSH1 0x32 PUSH1 0x4 MSTORE PUSH1 0x24 PUSH1 0x0 REVERT JUMPDEST PUSH2 0x1785 PUSH32 0x5772712B2943D95A931C0B3A7DDF59CBA41B664500D9B93626000A17809F04D1 PUSH1 0x7 DUP4 DUP2 SLOAD DUP2 LT PUSH2 0x1657 JUMPI PUSH4 0x4E487B71 PUSH1 0xE0 SHL PUSH1 0x0 MSTORE PUSH1 0x32 PUSH1 0x4 MSTORE PUSH1 0x24 PUSH1 0x0 REVERT JUMPDEST DUP1 PUSH2 0x178F DUP2 PUSH2 0x41FC JUMP JUMPDEST SWAP2 POP POP PUSH2 0x1608 JUMP JUMPDEST POP PUSH2 0x17A4 PUSH1 0x7 PUSH1 0x0 PUSH2 0x3763 JUMP JUMPDEST PUSH1 0x0 JUMPDEST DUP3 DUP2 LT ISZERO PUSH2 0x1AE0 JUMPI DUP4 DUP4 DUP3 DUP2 DUP2 LT PUSH2 0x17CF JUMPI PUSH4 0x4E487B71 PUSH1 0xE0 SHL PUSH1 0x0 MSTORE PUSH1 0x32 PUSH1 0x4 MSTORE PUSH1 0x24 PUSH1 0x0 REVERT JUMPDEST PUSH2 0x17E5 SWAP3 PUSH1 0x20 PUSH1 0xC0 SWAP1 SWAP3 MUL ADD SWAP1 DUP2 ADD SWAP2 POP PUSH2 0x3CAE JUMP JUMPDEST ISZERO PUSH2 0x1846 JUMPI PUSH2 0x1846 PUSH32 0xAEAEF46186EB59F884E36929B6D682A6AE35E1E43D8F05F058DCEFB92B601461 DUP6 DUP6 DUP5 DUP2 DUP2 LT PUSH2 0x182E JUMPI PUSH4 0x4E487B71 PUSH1 0xE0 SHL PUSH1 0x0 MSTORE PUSH1 0x32 PUSH1 0x4 MSTORE PUSH1 0x24 PUSH1 0x0 REVERT JUMPDEST SWAP1 POP PUSH1 0xC0 MUL ADD PUSH1 0xA0 ADD PUSH1 0x20 DUP2 ADD SWAP1 PUSH2 0x4BD SWAP2 SWAP1 PUSH2 0x38C7 JUMP JUMPDEST DUP4 DUP4 DUP3 DUP2 DUP2 LT PUSH2 0x1866 JUMPI PUSH4 0x4E487B71 PUSH1 0xE0 SHL PUSH1 0x0 MSTORE PUSH1 0x32 PUSH1 0x4 MSTORE PUSH1 0x24 PUSH1 0x0 REVERT JUMPDEST SWAP1 POP PUSH1 0xC0 MUL ADD PUSH1 0x20 ADD PUSH1 0x20 DUP2 ADD SWAP1 PUSH2 0x187E SWAP2 SWAP1 PUSH2 0x3CAE JUMP JUMPDEST ISZERO PUSH2 0x18C7 JUMPI PUSH2 0x18C7 PUSH32 0xB5B5A86CC252B1B75A439C6FF372933CEB0690188924E6461150ADEB00AB80D8 DUP6 DUP6 DUP5 DUP2 DUP2 LT PUSH2 0x182E JUMPI PUSH4 0x4E487B71 PUSH1 0xE0 SHL PUSH1 0x0 MSTORE PUSH1 0x32 PUSH1 0x4 MSTORE PUSH1 0x24 PUSH1 0x0 REVERT JUMPDEST DUP4 DUP4 DUP3 DUP2 DUP2 LT PUSH2 0x18E7 JUMPI PUSH4 0x4E487B71 PUSH1 0xE0 SHL PUSH1 0x0 MSTORE PUSH1 0x32 PUSH1 0x4 MSTORE PUSH1 0x24 PUSH1 0x0 REVERT JUMPDEST SWAP1 POP PUSH1 0xC0 MUL ADD PUSH1 0x40 ADD PUSH1 0x20 DUP2 ADD SWAP1 PUSH2 0x18FF SWAP2 SWAP1 PUSH2 0x3CAE JUMP JUMPDEST ISZERO PUSH2 0x1948 JUMPI PUSH2 0x1948 PUSH32 0x2A8464C3E212C8F1064432774C6CC3E76F14BD7CCDAFD9A1D1CF9B43B51E524 DUP6 DUP6 DUP5 DUP2 DUP2 LT PUSH2 0x182E JUMPI PUSH4 0x4E487B71 PUSH1 0xE0 SHL PUSH1 0x0 MSTORE PUSH1 0x32 PUSH1 0x4 MSTORE PUSH1 0x24 PUSH1 0x0 REVERT JUMPDEST DUP4 DUP4 DUP3 DUP2 DUP2 LT PUSH2 0x1968 JUMPI PUSH4 0x4E487B71 PUSH1 0xE0 SHL PUSH1 0x0 MSTORE PUSH1 0x32 PUSH1 0x4 MSTORE PUSH1 0x24 PUSH1 0x0 REVERT JUMPDEST SWAP1 POP PUSH1 0xC0 MUL ADD PUSH1 0x60 ADD PUSH1 0x20 DUP2 ADD SWAP1 PUSH2 0x1980 SWAP2 SWAP1 PUSH2 0x3CAE JUMP JUMPDEST ISZERO PUSH2 0x19C9 JUMPI PUSH2 0x19C9 PUSH32 0x233299FC8224C0CB5B2B8B651B93354CF11D5245F1374BB37773608FFA1913C1 DUP6 DUP6 DUP5 DUP2 DUP2 LT PUSH2 0x182E JUMPI PUSH4 0x4E487B71 PUSH1 0xE0 SHL PUSH1 0x0 MSTORE PUSH1 0x32 PUSH1 0x4 MSTORE PUSH1 0x24 PUSH1 0x0 REVERT JUMPDEST DUP4 DUP4 DUP3 DUP2 DUP2 LT PUSH2 0x19E9 JUMPI PUSH4 0x4E487B71 PUSH1 0xE0 SHL PUSH1 0x0 MSTORE PUSH1 0x32 PUSH1 0x4 MSTORE PUSH1 0x24 PUSH1 0x0 REVERT JUMPDEST SWAP1 POP PUSH1 0xC0 MUL ADD PUSH1 0x80 ADD PUSH1 0x20 DUP2 ADD SWAP1 PUSH2 0x1A01 SWAP2 SWAP1 PUSH2 0x3CAE JUMP JUMPDEST ISZERO PUSH2 0x1A4A JUMPI PUSH2 0x1A4A PUSH32 0x5772712B2943D95A931C0B3A7DDF59CBA41B664500D9B93626000A17809F04D1 DUP6 DUP6 DUP5 DUP2 DUP2 LT PUSH2 0x182E JUMPI PUSH4 0x4E487B71 PUSH1 0xE0 SHL PUSH1 0x0 MSTORE PUSH1 0x32 PUSH1 0x4 MSTORE PUSH1 0x24 PUSH1 0x0 REVERT JUMPDEST PUSH1 0x7 DUP5 DUP5 DUP4 DUP2 DUP2 LT PUSH2 0x1A6C JUMPI PUSH4 0x4E487B71 PUSH1 0xE0 SHL PUSH1 0x0 MSTORE PUSH1 0x32 PUSH1 0x4 MSTORE PUSH1 0x24 PUSH1 0x0 REVERT JUMPDEST SWAP1 POP PUSH1 0xC0 MUL ADD PUSH1 0xA0 ADD PUSH1 0x20 DUP2 ADD SWAP1 PUSH2 0x1A84 SWAP2 SWAP1 PUSH2 0x38C7 JUMP JUMPDEST DUP2 SLOAD PUSH1 0x1 DUP2 ADD DUP4 SSTORE PUSH1 0x0 SWAP3 DUP4 MSTORE PUSH1 0x20 SWAP1 SWAP3 KECCAK256 SWAP1 SWAP2 ADD DUP1 SLOAD PUSH32 0xFFFFFFFFFFFFFFFFFFFFFFFF0000000000000000000000000000000000000000 AND PUSH1 0x1 PUSH1 0x1 PUSH1 0xA0 SHL SUB SWAP1 SWAP3 AND SWAP2 SWAP1 SWAP2 OR SWAP1 SSTORE DUP1 PUSH2 0x1AD8 DUP2 PUSH2 0x41FC JUMP JUMPDEST SWAP2 POP POP PUSH2 0x17A7 JUMP JUMPDEST POP PUSH32 0x13340C8E795B6B33898709AFDEE63A73DF74C7CA9D8204D3265AA483AC0E4037 DUP4 DUP4 PUSH1 0x40 MLOAD PUSH2 0xB10 SWAP3 SWAP2 SWAP1 PUSH2 0x3F80 JUMP JUMPDEST PUSH1 0x1 PUSH1 0x1 PUSH1 0xA0 SHL SUB DUP2 AND PUSH1 0x0 SWAP1 DUP2 MSTORE PUSH1 0x6 PUSH1 0x20 MSTORE PUSH1 0x40 DUP2 KECCAK256 SLOAD PUSH2 0x8D4 JUMP JUMPDEST PUSH1 0x60 PUSH1 0x0 PUSH1 0x7 PUSH1 0x0 DUP2 SLOAD DUP2 LT PUSH2 0x1B56 JUMPI PUSH4 0x4E487B71 PUSH1 0xE0 SHL PUSH1 0x0 MSTORE PUSH1 0x32 PUSH1 0x4 MSTORE PUSH1 0x24 PUSH1 0x0 REVERT JUMPDEST PUSH1 0x0 SWAP2 DUP3 MSTORE PUSH1 0x20 SWAP1 SWAP2 KECCAK256 ADD SLOAD PUSH1 0x40 MLOAD PUSH32 0x82E17B6500000000000000000000000000000000000000000000000000000000 DUP2 MSTORE PUSH1 0x1 PUSH1 0x1 PUSH1 0xA0 SHL SUB SWAP1 SWAP2 AND SWAP2 POP DUP2 SWAP1 PUSH4 0x82E17B65 SWAP1 PUSH2 0x1BAD SWAP1 DUP8 SWAP1 DUP8 SWAP1 PUSH1 0x4 ADD PUSH2 0x3F1F JUMP JUMPDEST PUSH1 0x0 PUSH1 0x40 MLOAD DUP1 DUP4 SUB DUP2 DUP7 DUP1 EXTCODESIZE ISZERO DUP1 ISZERO PUSH2 0x1BC5 JUMPI PUSH1 0x0 DUP1 REVERT JUMPDEST POP GAS STATICCALL ISZERO DUP1 ISZERO PUSH2 0x1BD9 JUMPI RETURNDATASIZE PUSH1 0x0 DUP1 RETURNDATACOPY RETURNDATASIZE PUSH1 0x0 REVERT JUMPDEST POP POP POP POP PUSH1 0x40 MLOAD RETURNDATASIZE PUSH1 0x0 DUP3 RETURNDATACOPY PUSH1 0x1F RETURNDATASIZE SWAP1 DUP2 ADD PUSH1 0x1F NOT AND DUP3 ADD PUSH1 0x40 MSTORE PUSH2 0x1506 SWAP2 SWAP1 DUP2 ADD SWAP1 PUSH2 0x3A8E JUMP JUMPDEST PUSH1 0x8 SLOAD PUSH1 0xFF AND ISZERO PUSH2 0x1C43 JUMPI PUSH1 0x40 MLOAD PUSH3 0x461BCD PUSH1 0xE5 SHL DUP2 MSTORE PUSH1 0x20 PUSH1 0x4 DUP3 ADD MSTORE PUSH1 0xC PUSH1 0x24 DUP3 ADD MSTORE PUSH12 0x111151950E881C185D5CD959 PUSH1 0xA2 SHL PUSH1 0x44 DUP3 ADD MSTORE PUSH1 0x64 ADD PUSH2 0xA97 JUMP JUMPDEST PUSH1 0x0 PUSH1 0x7 PUSH1 0x1 DUP2 SLOAD DUP2 LT PUSH2 0x1C67 JUMPI PUSH4 0x4E487B71 PUSH1 0xE0 SHL PUSH1 0x0 MSTORE PUSH1 0x32 PUSH1 0x4 MSTORE PUSH1 0x24 PUSH1 0x0 REVERT JUMPDEST PUSH1 0x0 SWAP2 DUP3 MSTORE PUSH1 0x20 SWAP1 SWAP2 KECCAK256 ADD SLOAD PUSH1 0x1 PUSH1 0x1 PUSH1 0xA0 SHL SUB AND SWAP1 POP CALLER DUP2 EQ PUSH2 0x1CCD JUMPI PUSH1 0x40 MLOAD PUSH3 0x461BCD PUSH1 0xE5 SHL DUP2 MSTORE PUSH1 0x20 PUSH1 0x4 DUP3 ADD MSTORE PUSH1 0x17 PUSH1 0x24 DUP3 ADD MSTORE PUSH32 0x444546543A202156455354494E475F434F4E5452414354000000000000000000 PUSH1 0x44 DUP3 ADD MSTORE PUSH1 0x64 ADD PUSH2 0xA97 JUMP JUMPDEST PUSH1 0x0 PUSH1 0x7 PUSH1 0x0 DUP2 SLOAD DUP2 LT PUSH2 0x1CF1 JUMPI PUSH4 0x4E487B71 PUSH1 0xE0 SHL PUSH1 0x0 MSTORE PUSH1 0x32 PUSH1 0x4 MSTORE PUSH1 0x24 PUSH1 0x0 REVERT JUMPDEST PUSH1 0x0 SWAP2 DUP3 MSTORE PUSH1 0x20 DUP1 DUP4 KECCAK256 SWAP1 SWAP2 ADD SLOAD PUSH1 0x1 PUSH1 0x1 PUSH1 0xA0 SHL SUB DUP6 DUP2 AND DUP5 MSTORE PUSH1 0x2 SWAP1 SWAP3 MSTORE PUSH1 0x40 DUP4 KECCAK256 DUP1 SLOAD SWAP3 SWAP1 SWAP2 AND SWAP4 POP DUP6 SWAP3 SWAP1 SWAP2 PUSH2 0x1D2C SWAP1 DUP5 SWAP1 PUSH2 0x416D JUMP JUMPDEST SWAP1 SWAP2 SSTORE POP POP PUSH1 0x40 MLOAD PUSH32 0xCB12363700000000000000000000000000000000000000000000000000000000 DUP2 MSTORE PUSH1 0x4 DUP2 ADD DUP5 SWAP1 MSTORE PUSH1 0x1 PUSH1 0x1 PUSH1 0xA0 SHL SUB DUP3 AND SWAP1 PUSH4 0xCB123637 SWAP1 PUSH1 0x24 ADD PUSH1 0x20 PUSH1 0x40 MLOAD DUP1 DUP4 SUB DUP2 DUP7 DUP1 EXTCODESIZE ISZERO DUP1 ISZERO PUSH2 0x1D8A JUMPI PUSH1 0x0 DUP1 REVERT JUMPDEST POP GAS STATICCALL ISZERO DUP1 ISZERO PUSH2 0x1D9E JUMPI RETURNDATASIZE PUSH1 0x0 DUP1 RETURNDATACOPY RETURNDATASIZE PUSH1 0x0 REVERT JUMPDEST POP POP POP POP PUSH1 0x40 MLOAD RETURNDATASIZE PUSH1 0x1F NOT PUSH1 0x1F DUP3 ADD AND DUP3 ADD DUP1 PUSH1 0x40 MSTORE POP DUP2 ADD SWAP1 PUSH2 0x1DC2 SWAP2 SWAP1 PUSH2 0x3E1B JUMP JUMPDEST PUSH1 0x1 PUSH1 0x1 PUSH1 0xA0 SHL SUB DUP6 AND PUSH1 0x0 SWAP1 DUP2 MSTORE PUSH1 0x2 PUSH1 0x20 MSTORE PUSH1 0x40 DUP2 KECCAK256 DUP1 SLOAD SWAP1 SWAP2 SWAP1 PUSH2 0x1DEA SWAP1 DUP5 SWAP1 PUSH2 0x4136 JUMP JUMPDEST SWAP3 POP POP DUP2 SWAP1 SSTORE POP DUP1 PUSH1 0x1 PUSH1 0x1 PUSH1 0xA0 SHL SUB AND PUSH4 0xE8AC6E4E PUSH1 0x40 MLOAD DUP2 PUSH4 0xFFFFFFFF AND PUSH1 0xE0 SHL DUP2 MSTORE PUSH1 0x4 ADD PUSH1 0x0 PUSH1 0x40 MLOAD DUP1 DUP4 SUB DUP2 PUSH1 0x0 DUP8 DUP1 EXTCODESIZE ISZERO DUP1 ISZERO PUSH2 0x1E2C JUMPI PUSH1 0x0 DUP1 REVERT JUMPDEST POP GAS CALL ISZERO DUP1 ISZERO PUSH2 0x1E40 JUMPI RETURNDATASIZE PUSH1 0x0 DUP1 RETURNDATACOPY RETURNDATASIZE PUSH1 0x0 REVERT JUMPDEST POP POP POP POP DUP4 PUSH1 0x1 PUSH1 0x1 PUSH1 0xA0 SHL SUB AND DUP3 PUSH1 0x1 PUSH1 0x1 PUSH1 0xA0 SHL SUB AND PUSH32 0xDDF252AD1BE2C89B69C2B068FC378DAA952BA7F163C4A11628F55A4DF523B3EF DUP6 PUSH1 0x40 MLOAD PUSH2 0x1E89 SWAP2 DUP2 MSTORE PUSH1 0x20 ADD SWAP1 JUMP JUMPDEST PUSH1 0x40 MLOAD DUP1 SWAP2 SUB SWAP1 LOG3 PUSH1 0x40 DUP1 MLOAD PUSH1 0x1 PUSH1 0x1 PUSH1 0xA0 SHL SUB DUP7 AND DUP2 MSTORE PUSH1 0x20 DUP2 ADD DUP6 SWAP1 MSTORE PUSH32 0x814F4CDE641F205FBAC4D156545EE0A5850D9338C94B952ACEC9852C0A528043 SWAP2 ADD PUSH2 0x1371 JUMP JUMPDEST PUSH1 0x0 DUP3 DUP2 MSTORE PUSH1 0x1 PUSH1 0x20 MSTORE PUSH1 0x40 DUP2 KECCAK256 PUSH2 0x10EF SWAP1 DUP4 PUSH2 0x300E JUMP JUMPDEST PUSH1 0x60 PUSH1 0x5 DUP1 SLOAD PUSH2 0x9C0 SWAP1 PUSH2 0x41C7 JUMP JUMPDEST PUSH1 0x8 SLOAD PUSH1 0xFF AND ISZERO PUSH2 0x1F39 JUMPI PUSH1 0x40 MLOAD PUSH3 0x461BCD PUSH1 0xE5 SHL DUP2 MSTORE PUSH1 0x20 PUSH1 0x4 DUP3 ADD MSTORE PUSH1 0xC PUSH1 0x24 DUP3 ADD MSTORE PUSH12 0x111151950E881C185D5CD959 PUSH1 0xA2 SHL PUSH1 0x44 DUP3 ADD MSTORE PUSH1 0x64 ADD PUSH2 0xA97 JUMP JUMPDEST PUSH32 0x2A8464C3E212C8F1064432774C6CC3E76F14BD7CCDAFD9A1D1CF9B43B51E524 PUSH2 0x1F64 DUP2 CALLER PUSH2 0x26A6 JUMP JUMPDEST PUSH1 0x1 PUSH1 0x1 PUSH1 0xA0 SHL SUB DUP5 AND PUSH2 0x1FA8 JUMPI PUSH1 0x40 MLOAD PUSH3 0x461BCD PUSH1 0xE5 SHL DUP2 MSTORE PUSH1 0x20 PUSH1 0x4 DUP3 ADD MSTORE PUSH1 0xB PUSH1 0x24 DUP3 ADD MSTORE PUSH11 0x2222A32A1D1010B13AB937 PUSH1 0xA9 SHL PUSH1 0x44 DUP3 ADD MSTORE PUSH1 0x64 ADD PUSH2 0xA97 JUMP JUMPDEST PUSH2 0x1FB3 DUP5 DUP5 DUP5 PUSH2 0x2BC7 JUMP JUMPDEST PUSH1 0x40 DUP1 MLOAD PUSH1 0x1 PUSH1 0x1 PUSH1 0xA0 SHL SUB DUP1 DUP8 AND DUP3 MSTORE DUP6 AND PUSH1 0x20 DUP3 ADD MSTORE SWAP1 DUP2 ADD DUP4 SWAP1 MSTORE PUSH32 0x4F21C37C3184C9B0BBC63A812B0A1A148F15F1BD6DB127E7E562D9B043680325 SWAP1 PUSH1 0x60 ADD PUSH2 0x1371 JUMP JUMPDEST CALLER PUSH1 0x0 SWAP1 DUP2 MSTORE PUSH1 0x3 PUSH1 0x20 SWAP1 DUP2 MSTORE PUSH1 0x40 DUP1 DUP4 KECCAK256 PUSH1 0x1 PUSH1 0x1 PUSH1 0xA0 SHL SUB DUP7 AND DUP5 MSTORE SWAP1 SWAP2 MSTORE DUP2 KECCAK256 SLOAD DUP3 DUP2 LT ISZERO PUSH2 0x2095 JUMPI PUSH1 0x40 MLOAD PUSH3 0x461BCD PUSH1 0xE5 SHL DUP2 MSTORE PUSH1 0x20 PUSH1 0x4 DUP3 ADD MSTORE PUSH1 0x25 PUSH1 0x24 DUP3 ADD MSTORE PUSH32 0x45524332303A2064656372656173656420616C6C6F77616E63652062656C6F77 PUSH1 0x44 DUP3 ADD MSTORE PUSH32 0x207A65726F000000000000000000000000000000000000000000000000000000 PUSH1 0x64 DUP3 ADD MSTORE PUSH1 0x84 ADD PUSH2 0xA97 JUMP JUMPDEST PUSH2 0x20A4 CALLER DUP6 PUSH2 0xF30 DUP7 DUP6 PUSH2 0x416D JUMP JUMPDEST POP PUSH1 0x1 SWAP4 SWAP3 POP POP POP JUMP JUMPDEST PUSH1 0x8 SLOAD PUSH1 0x0 SWAP1 PUSH1 0xFF AND ISZERO PUSH2 0x20F3 JUMPI PUSH1 0x40 MLOAD PUSH3 0x461BCD PUSH1 0xE5 SHL DUP2 MSTORE PUSH1 0x20 PUSH1 0x4 DUP3 ADD MSTORE PUSH1 0xC PUSH1 0x24 DUP3 ADD MSTORE PUSH12 0x111151950E881C185D5CD959 PUSH1 0xA2 SHL PUSH1 0x44 DUP3 ADD MSTORE PUSH1 0x64 ADD PUSH2 0xA97 JUMP JUMPDEST PUSH2 0xA50 CALLER DUP5 DUP5 PUSH2 0x2BC7 JUMP JUMPDEST PUSH1 0x8 SLOAD PUSH1 0xFF AND ISZERO PUSH2 0x2140 JUMPI PUSH1 0x40 MLOAD PUSH3 0x461BCD PUSH1 0xE5 SHL DUP2 MSTORE PUSH1 0x20 PUSH1 0x4 DUP3 ADD MSTORE PUSH1 0xC PUSH1 0x24 DUP3 ADD MSTORE PUSH12 0x111151950E881C185D5CD959 PUSH1 0xA2 SHL PUSH1 0x44 DUP3 ADD MSTORE PUSH1 0x64 ADD PUSH2 0xA97 JUMP JUMPDEST PUSH32 0x5772712B2943D95A931C0B3A7DDF59CBA41B664500D9B93626000A17809F04D1 PUSH2 0x216B DUP2 CALLER PUSH2 0x26A6 JUMP JUMPDEST PUSH1 0x1 PUSH1 0x1 PUSH1 0xA0 SHL SUB DUP4 AND PUSH1 0x0 SWAP1 DUP2 MSTORE PUSH1 0x2 PUSH1 0x20 MSTORE PUSH1 0x40 DUP2 KECCAK256 SLOAD PUSH1 0x7 DUP1 SLOAD SWAP2 SWAP3 SWAP2 DUP3 SWAP1 PUSH2 0x21A7 JUMPI PUSH4 0x4E487B71 PUSH1 0xE0 SHL PUSH1 0x0 MSTORE PUSH1 0x32 PUSH1 0x4 MSTORE PUSH1 0x24 PUSH1 0x0 REVERT JUMPDEST PUSH1 0x0 SWAP2 DUP3 MSTORE PUSH1 0x20 SWAP1 SWAP2 KECCAK256 ADD SLOAD PUSH1 0x40 MLOAD PUSH32 0x3609875800000000000000000000000000000000000000000000000000000000 DUP2 MSTORE PUSH1 0x4 DUP2 ADD DUP7 SWAP1 MSTORE PUSH1 0x24 DUP2 ADD DUP5 SWAP1 MSTORE PUSH1 0x1 PUSH1 0x1 PUSH1 0xA0 SHL SUB SWAP1 SWAP2 AND SWAP2 POP DUP2 SWAP1 PUSH4 0x36098758 SWAP1 PUSH1 0x44 ADD PUSH1 0x20 PUSH1 0x40 MLOAD DUP1 DUP4 SUB DUP2 PUSH1 0x0 DUP8 DUP1 EXTCODESIZE ISZERO DUP1 ISZERO PUSH2 0x2219 JUMPI PUSH1 0x0 DUP1 REVERT JUMPDEST POP GAS CALL ISZERO DUP1 ISZERO PUSH2 0x222D JUMPI RETURNDATASIZE PUSH1 0x0 DUP1 RETURNDATACOPY RETURNDATASIZE PUSH1 0x0 REVERT JUMPDEST POP POP POP POP PUSH1 0x40 MLOAD RETURNDATASIZE PUSH1 0x1F NOT PUSH1 0x1F DUP3 ADD AND DUP3 ADD DUP1 PUSH1 0x40 MSTORE POP DUP2 ADD SWAP1 PUSH2 0x2251 SWAP2 SWAP1 PUSH2 0x3E1B JUMP JUMPDEST PUSH1 0x1 PUSH1 0x1 PUSH1 0xA0 SHL SUB DUP1 DUP8 AND PUSH1 0x0 SWAP1 DUP2 MSTORE PUSH1 0x2 PUSH1 0x20 MSTORE PUSH1 0x40 DUP2 KECCAK256 DUP4 SWAP1 SSTORE SWAP2 SWAP1 DUP4 AND SWAP1 PUSH4 0x2B04E840 SWAP1 DUP9 SWAP1 PUSH2 0x2284 SWAP1 DUP8 PUSH2 0x416D JUMP JUMPDEST PUSH1 0x40 MLOAD PUSH1 0x1 PUSH1 0x1 PUSH1 0xE0 SHL SUB NOT PUSH1 0xE0 DUP6 SWAP1 SHL AND DUP2 MSTORE PUSH1 0x1 PUSH1 0x1 PUSH1 0xA0 SHL SUB SWAP1 SWAP3 AND PUSH1 0x4 DUP4 ADD MSTORE PUSH1 0x24 DUP3 ADD MSTORE PUSH1 0x44 ADD PUSH1 0x20 PUSH1 0x40 MLOAD DUP1 DUP4 SUB DUP2 DUP7 DUP1 EXTCODESIZE ISZERO DUP1 ISZERO PUSH2 0x22C8 JUMPI PUSH1 0x0 DUP1 REVERT JUMPDEST POP GAS STATICCALL ISZERO DUP1 ISZERO PUSH2 0x22DC JUMPI RETURNDATASIZE PUSH1 0x0 DUP1 RETURNDATACOPY RETURNDATASIZE PUSH1 0x0 REVERT JUMPDEST POP POP POP POP PUSH1 0x40 MLOAD RETURNDATASIZE PUSH1 0x1F NOT PUSH1 0x1F DUP3 ADD AND DUP3 ADD DUP1 PUSH1 0x40 MSTORE POP DUP2 ADD SWAP1 PUSH2 0x2300 SWAP2 SWAP1 PUSH2 0x3E1B JUMP JUMPDEST SWAP1 POP PUSH1 0x0 PUSH1 0x1 PUSH1 0x1 PUSH1 0xA0 SHL SUB AND DUP7 PUSH1 0x1 PUSH1 0x1 PUSH1 0xA0 SHL SUB AND PUSH32 0xDDF252AD1BE2C89B69C2B068FC378DAA952BA7F163C4A11628F55A4DF523B3EF DUP4 PUSH1 0x40 MLOAD PUSH2 0x2348 SWAP2 DUP2 MSTORE PUSH1 0x20 ADD SWAP1 JUMP JUMPDEST PUSH1 0x40 MLOAD DUP1 SWAP2 SUB SWAP1 LOG3 POP POP POP POP POP POP JUMP JUMPDEST PUSH1 0x8 SLOAD PUSH1 0x0 SWAP1 PUSH1 0xFF AND PUSH2 0x239D JUMPI PUSH1 0x40 MLOAD PUSH3 0x461BCD PUSH1 0xE5 SHL DUP2 MSTORE PUSH1 0x20 PUSH1 0x4 DUP3 ADD MSTORE PUSH1 0xD PUSH1 0x24 DUP3 ADD MSTORE PUSH13 0x111151950E88085C185D5CD959 PUSH1 0x9A SHL PUSH1 0x44 DUP3 ADD MSTORE PUSH1 0x64 ADD PUSH2 0xA97 JUMP JUMPDEST PUSH32 0x233299FC8224C0CB5B2B8B651B93354CF11D5245F1374BB37773608FFA1913C1 PUSH2 0x23C8 DUP2 CALLER PUSH2 0x26A6 JUMP JUMPDEST PUSH1 0x1 PUSH1 0x1 PUSH1 0xA0 SHL SUB DUP6 AND PUSH2 0x240C JUMPI PUSH1 0x40 MLOAD PUSH3 0x461BCD PUSH1 0xE5 SHL DUP2 MSTORE PUSH1 0x20 PUSH1 0x4 DUP3 ADD MSTORE PUSH1 0xB PUSH1 0x24 DUP3 ADD MSTORE PUSH11 0x2222A32A1D1010B13AB937 PUSH1 0xA9 SHL PUSH1 0x44 DUP3 ADD MSTORE PUSH1 0x64 ADD PUSH2 0xA97 JUMP JUMPDEST PUSH2 0xF35 DUP6 DUP6 DUP6 PUSH2 0x2BC7 JUMP JUMPDEST PUSH1 0x8 SLOAD PUSH1 0xFF AND PUSH2 0x2459 JUMPI PUSH1 0x40 MLOAD PUSH3 0x461BCD PUSH1 0xE5 SHL DUP2 MSTORE PUSH1 0x20 PUSH1 0x4 DUP3 ADD MSTORE PUSH1 0xD PUSH1 0x24 DUP3 ADD MSTORE PUSH13 0x111151950E88085C185D5CD959 PUSH1 0x9A SHL PUSH1 0x44 DUP3 ADD MSTORE PUSH1 0x64 ADD PUSH2 0xA97 JUMP JUMPDEST PUSH1 0x0 PUSH2 0x2465 DUP2 CALLER PUSH2 0x26A6 JUMP JUMPDEST POP PUSH1 0x8 DUP1 SLOAD PUSH1 0xFF NOT AND SWAP1 SSTORE JUMP JUMPDEST PUSH1 0x0 DUP2 DUP2 MSTORE PUSH1 0x1 PUSH1 0x20 MSTORE PUSH1 0x40 DUP2 KECCAK256 PUSH2 0x8D4 SWAP1 PUSH2 0x301A JUMP JUMPDEST DUP4 TIMESTAMP GT ISZERO PUSH2 0x24D9 JUMPI PUSH1 0x40 MLOAD PUSH3 0x461BCD PUSH1 0xE5 SHL DUP2 MSTORE PUSH1 0x20 PUSH1 0x4 DUP3 ADD MSTORE PUSH1 0x1D PUSH1 0x24 DUP3 ADD MSTORE PUSH32 0x45524332305065726D69743A206578706972656420646561646C696E65000000 PUSH1 0x44 DUP3 ADD MSTORE PUSH1 0x64 ADD PUSH2 0xA97 JUMP JUMPDEST PUSH1 0x0 PUSH32 0x0 DUP9 DUP9 DUP9 PUSH2 0x2508 DUP13 PUSH2 0x3024 JUMP JUMPDEST PUSH1 0x40 DUP1 MLOAD PUSH1 0x20 DUP2 ADD SWAP7 SWAP1 SWAP7 MSTORE PUSH1 0x1 PUSH1 0x1 PUSH1 0xA0 SHL SUB SWAP5 DUP6 AND SWAP1 DUP7 ADD MSTORE SWAP3 SWAP1 SWAP2 AND PUSH1 0x60 DUP5 ADD MSTORE PUSH1 0x80 DUP4 ADD MSTORE PUSH1 0xA0 DUP3 ADD MSTORE PUSH1 0xC0 DUP2 ADD DUP7 SWAP1 MSTORE PUSH1 0xE0 ADD PUSH1 0x40 MLOAD PUSH1 0x20 DUP2 DUP4 SUB SUB DUP2 MSTORE SWAP1 PUSH1 0x40 MSTORE DUP1 MLOAD SWAP1 PUSH1 0x20 ADD KECCAK256 SWAP1 POP PUSH1 0x0 PUSH2 0x2563 DUP3 PUSH2 0x304C JUMP JUMPDEST SWAP1 POP PUSH1 0x0 PUSH2 0x2573 DUP3 DUP8 DUP8 DUP8 PUSH2 0x30B5 JUMP JUMPDEST SWAP1 POP DUP10 PUSH1 0x1 PUSH1 0x1 PUSH1 0xA0 SHL SUB AND DUP2 PUSH1 0x1 PUSH1 0x1 PUSH1 0xA0 SHL SUB AND EQ PUSH2 0x25D6 JUMPI PUSH1 0x40 MLOAD PUSH3 0x461BCD PUSH1 0xE5 SHL DUP2 MSTORE PUSH1 0x20 PUSH1 0x4 DUP3 ADD MSTORE PUSH1 0x1E PUSH1 0x24 DUP3 ADD MSTORE PUSH32 0x45524332305065726D69743A20696E76616C6964207369676E61747572650000 PUSH1 0x44 DUP3 ADD MSTORE PUSH1 0x64 ADD PUSH2 0xA97 JUMP JUMPDEST PUSH2 0x25E1 DUP11 DUP11 DUP11 PUSH2 0x272E JUMP JUMPDEST POP POP POP POP POP POP POP POP POP POP JUMP JUMPDEST PUSH2 0xF7B DUP3 DUP3 PUSH2 0x3255 JUMP JUMPDEST PUSH1 0x0 PUSH2 0x2603 DUP2 CALLER PUSH2 0x26A6 JUMP JUMPDEST PUSH2 0x260F PUSH1 0x4 DUP7 DUP7 PUSH2 0x3784 JUMP JUMPDEST POP PUSH2 0xDEB PUSH1 0x5 DUP5 DUP5 PUSH2 0x3784 JUMP JUMPDEST PUSH2 0x2626 DUP3 DUP3 PUSH2 0x327B JUMP JUMPDEST POP POP JUMP JUMPDEST PUSH1 0x0 PUSH2 0x10EF DUP4 PUSH1 0x1 PUSH1 0x1 PUSH1 0xA0 SHL SUB DUP5 AND PUSH2 0x3319 JUMP JUMPDEST PUSH1 0x0 PUSH1 0x1 PUSH1 0x1 PUSH1 0xE0 SHL SUB NOT DUP3 AND PUSH32 0x7965DB0B00000000000000000000000000000000000000000000000000000000 EQ DUP1 PUSH2 0x8D4 JUMPI POP PUSH32 0x1FFC9A700000000000000000000000000000000000000000000000000000000 PUSH1 0x1 PUSH1 0x1 PUSH1 0xE0 SHL SUB NOT DUP4 AND EQ PUSH2 0x8D4 JUMP JUMPDEST PUSH1 0x0 DUP3 DUP2 MSTORE PUSH1 0x20 DUP2 DUP2 MSTORE PUSH1 0x40 DUP1 DUP4 KECCAK256 PUSH1 0x1 PUSH1 0x1 PUSH1 0xA0 SHL SUB DUP6 AND DUP5 MSTORE SWAP1 SWAP2 MSTORE SWAP1 KECCAK256 SLOAD PUSH1 0xFF AND PUSH2 0x2626 JUMPI PUSH2 0x26E2 DUP2 PUSH1 0x1 PUSH1 0x1 PUSH1 0xA0 SHL SUB AND PUSH1 0x14 PUSH2 0x3368 JUMP JUMPDEST PUSH2 0x26ED DUP4 PUSH1 0x20 PUSH2 0x3368 JUMP JUMPDEST PUSH1 0x40 MLOAD PUSH1 0x20 ADD PUSH2 0x26FE SWAP3 SWAP2 SWAP1 PUSH2 0x3E7B JUMP JUMPDEST PUSH1 0x40 DUP1 MLOAD PUSH1 0x1F NOT DUP2 DUP5 SUB ADD DUP2 MSTORE SWAP1 DUP3 SWAP1 MSTORE PUSH3 0x461BCD PUSH1 0xE5 SHL DUP3 MSTORE PUSH2 0xA97 SWAP2 PUSH1 0x4 ADD PUSH2 0x4085 JUMP JUMPDEST PUSH2 0xF4A DUP3 DUP3 PUSH2 0x261C JUMP JUMPDEST PUSH1 0x1 PUSH1 0x1 PUSH1 0xA0 SHL SUB DUP4 AND PUSH2 0x27A9 JUMPI PUSH1 0x40 MLOAD PUSH3 0x461BCD PUSH1 0xE5 SHL DUP2 MSTORE PUSH1 0x20 PUSH1 0x4 DUP3 ADD MSTORE PUSH1 0x24 DUP1 DUP3 ADD MSTORE PUSH32 0x45524332303A20617070726F76652066726F6D20746865207A65726F20616464 PUSH1 0x44 DUP3 ADD MSTORE PUSH32 0x7265737300000000000000000000000000000000000000000000000000000000 PUSH1 0x64 DUP3 ADD MSTORE PUSH1 0x84 ADD PUSH2 0xA97 JUMP JUMPDEST PUSH1 0x1 PUSH1 0x1 PUSH1 0xA0 SHL SUB DUP3 AND PUSH2 0x2825 JUMPI PUSH1 0x40 MLOAD PUSH3 0x461BCD PUSH1 0xE5 SHL DUP2 MSTORE PUSH1 0x20 PUSH1 0x4 DUP3 ADD MSTORE PUSH1 0x22 PUSH1 0x24 DUP3 ADD MSTORE PUSH32 0x45524332303A20617070726F766520746F20746865207A65726F206164647265 PUSH1 0x44 DUP3 ADD MSTORE PUSH32 0x7373000000000000000000000000000000000000000000000000000000000000 PUSH1 0x64 DUP3 ADD MSTORE PUSH1 0x84 ADD PUSH2 0xA97 JUMP JUMPDEST PUSH1 0x1 PUSH1 0x1 PUSH1 0xA0 SHL SUB DUP4 DUP2 AND PUSH1 0x0 DUP2 DUP2 MSTORE PUSH1 0x3 PUSH1 0x20 SWAP1 DUP2 MSTORE PUSH1 0x40 DUP1 DUP4 KECCAK256 SWAP5 DUP8 AND DUP1 DUP5 MSTORE SWAP5 DUP3 MSTORE SWAP2 DUP3 SWAP1 KECCAK256 DUP6 SWAP1 SSTORE SWAP1 MLOAD DUP5 DUP2 MSTORE PUSH32 0x8C5BE1E5EBEC7D5BD14F71427D1E84F3DD0314C0F7B2291E5B200AC8C7C3B925 SWAP2 ADD PUSH1 0x40 MLOAD DUP1 SWAP2 SUB SWAP1 LOG3 POP POP POP JUMP JUMPDEST PUSH1 0x0 PUSH1 0x7 PUSH1 0x0 DUP2 SLOAD DUP2 LT PUSH2 0x28AA JUMPI PUSH4 0x4E487B71 PUSH1 0xE0 SHL PUSH1 0x0 MSTORE PUSH1 0x32 PUSH1 0x4 MSTORE PUSH1 0x24 PUSH1 0x0 REVERT JUMPDEST PUSH1 0x0 SWAP2 DUP3 MSTORE PUSH1 0x20 DUP3 KECCAK256 ADD SLOAD PUSH1 0x40 MLOAD PUSH4 0x42E58A63 PUSH1 0xE0 SHL DUP2 MSTORE PUSH1 0x1 PUSH1 0x4 DUP3 ADD MSTORE PUSH1 0x1 PUSH1 0x1 PUSH1 0xA0 SHL SUB DUP7 DUP2 AND PUSH1 0x24 DUP4 ADD MSTORE PUSH1 0x44 DUP3 ADD DUP7 SWAP1 MSTORE SWAP1 SWAP2 AND SWAP3 POP DUP3 SWAP1 PUSH4 0x42E58A63 SWAP1 PUSH1 0x64 ADD PUSH1 0x20 PUSH1 0x40 MLOAD DUP1 DUP4 SUB DUP2 PUSH1 0x0 DUP8 DUP1 EXTCODESIZE ISZERO DUP1 ISZERO PUSH2 0x290A JUMPI PUSH1 0x0 DUP1 REVERT JUMPDEST POP GAS CALL ISZERO DUP1 ISZERO PUSH2 0x291E JUMPI RETURNDATASIZE PUSH1 0x0 DUP1 RETURNDATACOPY RETURNDATASIZE PUSH1 0x0 REVERT JUMPDEST POP POP POP POP PUSH1 0x40 MLOAD RETURNDATASIZE PUSH1 0x1F NOT PUSH1 0x1F DUP3 ADD AND DUP3 ADD DUP1 PUSH1 0x40 MSTORE POP DUP2 ADD SWAP1 PUSH2 0x2942 SWAP2 SWAP1 PUSH2 0x3E1B JUMP JUMPDEST PUSH1 0x1 PUSH1 0x1 PUSH1 0xA0 SHL SUB DUP6 AND PUSH1 0x0 SWAP1 DUP2 MSTORE PUSH1 0x2 PUSH1 0x20 MSTORE PUSH1 0x40 DUP2 KECCAK256 DUP1 SLOAD SWAP3 SWAP4 POP DUP4 SWAP3 SWAP1 SWAP2 SWAP1 PUSH2 0x296F SWAP1 DUP5 SWAP1 PUSH2 0x4136 JUMP JUMPDEST SWAP3 POP POP DUP2 SWAP1 SSTORE POP DUP2 PUSH1 0x1 PUSH1 0x1 PUSH1 0xA0 SHL SUB AND PUSH4 0xE8AC6E4E PUSH1 0x40 MLOAD DUP2 PUSH4 0xFFFFFFFF AND PUSH1 0xE0 SHL DUP2 MSTORE PUSH1 0x4 ADD PUSH1 0x0 PUSH1 0x40 MLOAD DUP1 DUP4 SUB DUP2 PUSH1 0x0 DUP8 DUP1 EXTCODESIZE ISZERO DUP1 ISZERO PUSH2 0x29B1 JUMPI PUSH1 0x0 DUP1 REVERT JUMPDEST POP GAS CALL ISZERO DUP1 ISZERO PUSH2 0x29C5 JUMPI RETURNDATASIZE PUSH1 0x0 DUP1 RETURNDATACOPY RETURNDATASIZE PUSH1 0x0 REVERT JUMPDEST POP POP PUSH1 0x40 MLOAD DUP6 DUP2 MSTORE PUSH1 0x1 PUSH1 0x1 PUSH1 0xA0 SHL SUB DUP8 AND SWAP3 POP PUSH1 0x0 SWAP2 POP PUSH32 0xDDF252AD1BE2C89B69C2B068FC378DAA952BA7F163C4A11628F55A4DF523B3EF SWAP1 PUSH1 0x20 ADD JUMPDEST PUSH1 0x40 MLOAD DUP1 SWAP2 SUB SWAP1 LOG3 POP POP POP POP JUMP JUMPDEST PUSH1 0x0 PUSH1 0x7 PUSH1 0x0 DUP2 SLOAD DUP2 LT PUSH2 0x2A35 JUMPI PUSH4 0x4E487B71 PUSH1 0xE0 SHL PUSH1 0x0 MSTORE PUSH1 0x32 PUSH1 0x4 MSTORE PUSH1 0x24 PUSH1 0x0 REVERT JUMPDEST PUSH1 0x0 SWAP2 DUP3 MSTORE PUSH1 0x20 DUP3 KECCAK256 ADD SLOAD PUSH1 0x7 DUP1 SLOAD PUSH1 0x1 PUSH1 0x1 PUSH1 0xA0 SHL SUB SWAP1 SWAP3 AND SWAP4 POP SWAP1 DUP3 SWAP1 PUSH2 0x2A6E JUMPI PUSH4 0x4E487B71 PUSH1 0xE0 SHL PUSH1 0x0 MSTORE PUSH1 0x32 PUSH1 0x4 MSTORE PUSH1 0x24 PUSH1 0x0 REVERT JUMPDEST PUSH1 0x0 SWAP2 DUP3 MSTORE PUSH1 0x20 DUP3 KECCAK256 ADD SLOAD PUSH1 0x40 MLOAD PUSH4 0x42E58A63 PUSH1 0xE0 SHL DUP2 MSTORE PUSH1 0x4 DUP2 ADD SWAP3 SWAP1 SWAP3 MSTORE PUSH1 0x1 PUSH1 0x1 PUSH1 0xA0 SHL SUB DUP7 DUP2 AND PUSH1 0x24 DUP5 ADD MSTORE PUSH1 0x44 DUP4 ADD DUP7 SWAP1 MSTORE AND SWAP1 PUSH4 0x42E58A63 SWAP1 PUSH1 0x64 ADD PUSH1 0x20 PUSH1 0x40 MLOAD DUP1 DUP4 SUB DUP2 PUSH1 0x0 DUP8 DUP1 EXTCODESIZE ISZERO DUP1 ISZERO PUSH2 0x2ACA JUMPI PUSH1 0x0 DUP1 REVERT JUMPDEST POP GAS CALL ISZERO DUP1 ISZERO PUSH2 0x2ADE JUMPI RETURNDATASIZE PUSH1 0x0 DUP1 RETURNDATACOPY RETURNDATASIZE PUSH1 0x0 REVERT JUMPDEST POP POP POP POP PUSH1 0x40 MLOAD RETURNDATASIZE PUSH1 0x1F NOT PUSH1 0x1F DUP3 ADD AND DUP3 ADD DUP1 PUSH1 0x40 MSTORE POP DUP2 ADD SWAP1 PUSH2 0x2B02 SWAP2 SWAP1 PUSH2 0x3E1B JUMP JUMPDEST PUSH1 0x1 PUSH1 0x1 PUSH1 0xA0 SHL SUB DUP6 AND PUSH1 0x0 SWAP1 DUP2 MSTORE PUSH1 0x2 PUSH1 0x20 MSTORE PUSH1 0x40 DUP2 KECCAK256 DUP1 SLOAD SWAP3 SWAP4 POP DUP4 SWAP3 SWAP1 SWAP2 SWAP1 PUSH2 0x2B2F SWAP1 DUP5 SWAP1 PUSH2 0x416D JUMP JUMPDEST SWAP3 POP POP DUP2 SWAP1 SSTORE POP DUP2 PUSH1 0x1 PUSH1 0x1 PUSH1 0xA0 SHL SUB AND PUSH4 0xE8AC6E4E PUSH1 0x40 MLOAD DUP2 PUSH4 0xFFFFFFFF AND PUSH1 0xE0 SHL DUP2 MSTORE PUSH1 0x4 ADD PUSH1 0x0 PUSH1 0x40 MLOAD DUP1 DUP4 SUB DUP2 PUSH1 0x0 DUP8 DUP1 EXTCODESIZE ISZERO DUP1 ISZERO PUSH2 0x2B71 JUMPI PUSH1 0x0 DUP1 REVERT JUMPDEST POP GAS CALL ISZERO DUP1 ISZERO PUSH2 0x2B85 JUMPI RETURNDATASIZE PUSH1 0x0 DUP1 RETURNDATACOPY RETURNDATASIZE PUSH1 0x0 REVERT JUMPDEST POP POP PUSH1 0x40 MLOAD DUP6 DUP2 MSTORE PUSH1 0x0 SWAP3 POP PUSH1 0x1 PUSH1 0x1 PUSH1 0xA0 SHL SUB DUP8 AND SWAP2 POP PUSH32 0xDDF252AD1BE2C89B69C2B068FC378DAA952BA7F163C4A11628F55A4DF523B3EF SWAP1 PUSH1 0x20 ADD PUSH2 0x2A03 JUMP JUMPDEST PUSH1 0x1 PUSH1 0x1 PUSH1 0xA0 SHL SUB DUP3 AND PUSH2 0x2C0B JUMPI PUSH1 0x40 MLOAD PUSH3 0x461BCD PUSH1 0xE5 SHL DUP2 MSTORE PUSH1 0x20 PUSH1 0x4 DUP3 ADD MSTORE PUSH1 0xB PUSH1 0x24 DUP3 ADD MSTORE PUSH11 0x2222A32A1D1010B13AB937 PUSH1 0xA9 SHL PUSH1 0x44 DUP3 ADD MSTORE PUSH1 0x64 ADD PUSH2 0xA97 JUMP JUMPDEST DUP2 PUSH1 0x1 PUSH1 0x1 PUSH1 0xA0 SHL SUB AND DUP4 PUSH1 0x1 PUSH1 0x1 PUSH1 0xA0 SHL SUB AND EQ ISZERO PUSH2 0x2C6D JUMPI PUSH1 0x40 MLOAD PUSH3 0x461BCD PUSH1 0xE5 SHL DUP2 MSTORE PUSH1 0x20 PUSH1 0x4 DUP3 ADD MSTORE PUSH1 0xB PUSH1 0x24 DUP3 ADD MSTORE PUSH32 0x444546543A202173656C66000000000000000000000000000000000000000000 PUSH1 0x44 DUP3 ADD MSTORE PUSH1 0x64 ADD PUSH2 0xA97 JUMP JUMPDEST PUSH1 0x0 PUSH1 0x7 PUSH1 0x0 DUP2 SLOAD DUP2 LT PUSH2 0x2C91 JUMPI PUSH4 0x4E487B71 PUSH1 0xE0 SHL PUSH1 0x0 MSTORE PUSH1 0x32 PUSH1 0x4 MSTORE PUSH1 0x24 PUSH1 0x0 REVERT JUMPDEST PUSH1 0x0 SWAP2 DUP3 MSTORE PUSH1 0x20 DUP1 DUP4 KECCAK256 SWAP2 SWAP1 SWAP2 ADD SLOAD PUSH1 0x40 DUP1 MLOAD PUSH1 0xA0 DUP2 ADD DUP3 MSTORE PUSH1 0x1 PUSH1 0x1 PUSH1 0xA0 SHL SUB DUP10 DUP2 AND DUP1 DUP4 MSTORE DUP10 DUP3 AND DUP4 DUP8 ADD DUP2 DUP2 MSTORE DUP5 DUP7 ADD DUP12 DUP2 MSTORE SWAP3 DUP10 MSTORE PUSH1 0x2 DUP1 DUP10 MSTORE DUP7 DUP11 KECCAK256 SLOAD PUSH1 0x60 DUP8 ADD SWAP1 DUP2 MSTORE SWAP3 DUP11 MSTORE SWAP1 SWAP8 MSTORE DUP5 DUP9 KECCAK256 SLOAD PUSH1 0x80 DUP6 ADD SWAP1 DUP2 MSTORE SWAP5 MLOAD PUSH32 0x815A61E000000000000000000000000000000000000000000000000000000000 DUP2 MSTORE SWAP4 MLOAD DUP4 AND PUSH1 0x4 DUP6 ADD MSTORE SWAP6 MLOAD DUP3 AND PUSH1 0x24 DUP5 ADD MSTORE MLOAD PUSH1 0x44 DUP4 ADD MSTORE SWAP4 MLOAD PUSH1 0x64 DUP3 ADD MSTORE SWAP1 MLOAD PUSH1 0x84 DUP3 ADD MSTORE SWAP2 AND SWAP3 POP DUP3 SWAP1 PUSH4 0x815A61E0 SWAP1 PUSH1 0xA4 ADD PUSH1 0x80 PUSH1 0x40 MLOAD DUP1 DUP4 SUB DUP2 PUSH1 0x0 DUP8 DUP1 EXTCODESIZE ISZERO DUP1 ISZERO PUSH2 0x2D5F JUMPI PUSH1 0x0 DUP1 REVERT JUMPDEST POP GAS CALL ISZERO DUP1 ISZERO PUSH2 0x2D73 JUMPI RETURNDATASIZE PUSH1 0x0 DUP1 RETURNDATACOPY RETURNDATASIZE PUSH1 0x0 REVERT JUMPDEST POP POP POP POP PUSH1 0x40 MLOAD RETURNDATASIZE PUSH1 0x1F NOT PUSH1 0x1F DUP3 ADD AND DUP3 ADD DUP1 PUSH1 0x40 MSTORE POP DUP2 ADD SWAP1 PUSH2 0x2D97 SWAP2 SWAP1 PUSH2 0x3DB6 JUMP JUMPDEST DUP1 MLOAD PUSH1 0x1 PUSH1 0x1 PUSH1 0xA0 SHL SUB DUP8 DUP2 AND PUSH1 0x0 DUP2 DUP2 MSTORE PUSH1 0x2 PUSH1 0x20 SWAP1 DUP2 MSTORE PUSH1 0x40 DUP1 DUP4 KECCAK256 SWAP6 SWAP1 SWAP6 SSTORE DUP1 DUP7 ADD MLOAD SWAP4 DUP11 AND DUP1 DUP4 MSTORE SWAP2 DUP6 SWAP1 KECCAK256 SWAP4 SWAP1 SWAP4 SSTORE PUSH1 0x60 DUP6 ADD MLOAD SWAP4 MLOAD SWAP4 DUP5 MSTORE SWAP4 SWAP5 POP SWAP2 PUSH32 0xDDF252AD1BE2C89B69C2B068FC378DAA952BA7F163C4A11628F55A4DF523B3EF SWAP2 ADD PUSH1 0x40 MLOAD DUP1 SWAP2 SUB SWAP1 LOG3 PUSH1 0x40 DUP2 ADD MLOAD ISZERO PUSH2 0x2E61 JUMPI PUSH1 0x0 PUSH1 0x1 PUSH1 0x1 PUSH1 0xA0 SHL SUB AND DUP6 PUSH1 0x1 PUSH1 0x1 PUSH1 0xA0 SHL SUB AND PUSH32 0xDDF252AD1BE2C89B69C2B068FC378DAA952BA7F163C4A11628F55A4DF523B3EF DUP4 PUSH1 0x40 ADD MLOAD PUSH1 0x40 MLOAD PUSH2 0x2E58 SWAP2 DUP2 MSTORE PUSH1 0x20 ADD SWAP1 JUMP JUMPDEST PUSH1 0x40 MLOAD DUP1 SWAP2 SUB SWAP1 LOG3 JUMPDEST POP POP POP POP POP JUMP JUMPDEST PUSH1 0x0 PUSH2 0x2E74 DUP2 CALLER PUSH2 0x26A6 JUMP JUMPDEST PUSH2 0xF62 DUP4 DUP4 PUSH2 0x327B JUMP JUMPDEST PUSH1 0x0 PUSH32 0x0 CHAINID EQ ISZERO PUSH2 0x2ECD JUMPI POP PUSH32 0x0 SWAP1 JUMP JUMPDEST POP PUSH1 0x40 DUP1 MLOAD PUSH32 0x0 PUSH1 0x20 DUP1 DUP4 ADD SWAP2 SWAP1 SWAP2 MSTORE PUSH32 0x0 DUP3 DUP5 ADD MSTORE PUSH32 0x0 PUSH1 0x60 DUP4 ADD MSTORE CHAINID PUSH1 0x80 DUP4 ADD MSTORE ADDRESS PUSH1 0xA0 DUP1 DUP5 ADD SWAP2 SWAP1 SWAP2 MSTORE DUP4 MLOAD DUP1 DUP5 SUB SWAP1 SWAP2 ADD DUP2 MSTORE PUSH1 0xC0 SWAP1 SWAP3 ADD SWAP1 SWAP3 MSTORE DUP1 MLOAD SWAP2 ADD KECCAK256 SWAP1 JUMP JUMPDEST PUSH1 0x1 PUSH1 0x1 PUSH1 0xA0 SHL SUB DUP2 AND CALLER EQ PUSH2 0x2FEF JUMPI PUSH1 0x40 MLOAD PUSH3 0x461BCD PUSH1 0xE5 SHL DUP2 MSTORE PUSH1 0x20 PUSH1 0x4 DUP3 ADD MSTORE PUSH1 0x2F PUSH1 0x24 DUP3 ADD MSTORE PUSH32 0x416363657373436F6E74726F6C3A2063616E206F6E6C792072656E6F756E6365 PUSH1 0x44 DUP3 ADD MSTORE PUSH32 0x20726F6C657320666F722073656C660000000000000000000000000000000000 PUSH1 0x64 DUP3 ADD MSTORE PUSH1 0x84 ADD PUSH2 0xA97 JUMP JUMPDEST PUSH2 0x2626 DUP3 DUP3 PUSH2 0x358F JUMP JUMPDEST PUSH1 0x0 PUSH2 0x10EF DUP4 PUSH1 0x1 PUSH1 0x1 PUSH1 0xA0 SHL SUB DUP5 AND PUSH2 0x360E JUMP JUMPDEST PUSH1 0x0 PUSH2 0x10EF DUP4 DUP4 PUSH2 0x372B JUMP JUMPDEST PUSH1 0x0 PUSH2 0x8D4 DUP3 SLOAD SWAP1 JUMP JUMPDEST PUSH1 0x1 PUSH1 0x1 PUSH1 0xA0 SHL SUB DUP2 AND PUSH1 0x0 SWAP1 DUP2 MSTORE PUSH1 0x6 PUSH1 0x20 MSTORE PUSH1 0x40 SWAP1 KECCAK256 DUP1 SLOAD PUSH1 0x1 DUP2 ADD DUP3 SSTORE SWAP1 JUMPDEST POP SWAP2 SWAP1 POP JUMP JUMPDEST PUSH1 0x0 PUSH2 0x8D4 PUSH2 0x3059 PUSH2 0x2E7E JUMP JUMPDEST DUP4 PUSH1 0x40 MLOAD PUSH32 0x1901000000000000000000000000000000000000000000000000000000000000 PUSH1 0x20 DUP3 ADD MSTORE PUSH1 0x22 DUP2 ADD DUP4 SWAP1 MSTORE PUSH1 0x42 DUP2 ADD DUP3 SWAP1 MSTORE PUSH1 0x0 SWAP1 PUSH1 0x62 ADD PUSH1 0x40 MLOAD PUSH1 0x20 DUP2 DUP4 SUB SUB DUP2 MSTORE SWAP1 PUSH1 0x40 MSTORE DUP1 MLOAD SWAP1 PUSH1 0x20 ADD KECCAK256 SWAP1 POP SWAP3 SWAP2 POP POP JUMP JUMPDEST PUSH1 0x0 PUSH32 0x7FFFFFFFFFFFFFFFFFFFFFFFFFFFFFFF5D576E7357A4501DDFE92F46681B20A0 DUP3 GT ISZERO PUSH2 0x3132 JUMPI PUSH1 0x40 MLOAD PUSH3 0x461BCD PUSH1 0xE5 SHL DUP2 MSTORE PUSH1 0x20 PUSH1 0x4 DUP3 ADD MSTORE PUSH1 0x22 PUSH1 0x24 DUP3 ADD MSTORE PUSH32 0x45434453413A20696E76616C6964207369676E6174757265202773272076616C PUSH1 0x44 DUP3 ADD MSTORE PUSH2 0x7565 PUSH1 0xF0 SHL PUSH1 0x64 DUP3 ADD MSTORE PUSH1 0x84 ADD PUSH2 0xA97 JUMP JUMPDEST DUP4 PUSH1 0xFF AND PUSH1 0x1B EQ DUP1 PUSH2 0x3147 JUMPI POP DUP4 PUSH1 0xFF AND PUSH1 0x1C EQ JUMPDEST PUSH2 0x319E JUMPI PUSH1 0x40 MLOAD PUSH3 0x461BCD PUSH1 0xE5 SHL DUP2 MSTORE PUSH1 0x20 PUSH1 0x4 DUP3 ADD MSTORE PUSH1 0x22 PUSH1 0x24 DUP3 ADD MSTORE PUSH32 0x45434453413A20696E76616C6964207369676E6174757265202776272076616C PUSH1 0x44 DUP3 ADD MSTORE PUSH2 0x7565 PUSH1 0xF0 SHL PUSH1 0x64 DUP3 ADD MSTORE PUSH1 0x84 ADD PUSH2 0xA97 JUMP JUMPDEST PUSH1 0x40 DUP1 MLOAD PUSH1 0x0 DUP1 DUP3 MSTORE PUSH1 0x20 DUP3 ADD DUP1 DUP5 MSTORE DUP9 SWAP1 MSTORE PUSH1 0xFF DUP8 AND SWAP3 DUP3 ADD SWAP3 SWAP1 SWAP3 MSTORE PUSH1 0x60 DUP2 ADD DUP6 SWAP1 MSTORE PUSH1 0x80 DUP2 ADD DUP5 SWAP1 MSTORE PUSH1 0x1 SWAP1 PUSH1 0xA0 ADD PUSH1 0x20 PUSH1 0x40 MLOAD PUSH1 0x20 DUP2 SUB SWAP1 DUP1 DUP5 SUB SWAP1 DUP6 GAS STATICCALL ISZERO DUP1 ISZERO PUSH2 0x31F2 JUMPI RETURNDATASIZE PUSH1 0x0 DUP1 RETURNDATACOPY RETURNDATASIZE PUSH1 0x0 REVERT JUMPDEST POP POP PUSH1 0x40 MLOAD PUSH1 0x1F NOT ADD MLOAD SWAP2 POP POP PUSH1 0x1 PUSH1 0x1 PUSH1 0xA0 SHL SUB DUP2 AND PUSH2 0x88D JUMPI PUSH1 0x40 MLOAD PUSH3 0x461BCD PUSH1 0xE5 SHL DUP2 MSTORE PUSH1 0x20 PUSH1 0x4 DUP3 ADD MSTORE PUSH1 0x18 PUSH1 0x24 DUP3 ADD MSTORE PUSH32 0x45434453413A20696E76616C6964207369676E61747572650000000000000000 PUSH1 0x44 DUP3 ADD MSTORE PUSH1 0x64 ADD PUSH2 0xA97 JUMP JUMPDEST PUSH1 0x0 DUP3 DUP2 MSTORE PUSH1 0x20 DUP2 SWAP1 MSTORE PUSH1 0x40 SWAP1 KECCAK256 PUSH1 0x1 ADD SLOAD PUSH2 0x3271 DUP2 CALLER PUSH2 0x26A6 JUMP JUMPDEST PUSH2 0xF62 DUP4 DUP4 PUSH2 0x358F JUMP JUMPDEST PUSH1 0x0 DUP3 DUP2 MSTORE PUSH1 0x20 DUP2 DUP2 MSTORE PUSH1 0x40 DUP1 DUP4 KECCAK256 PUSH1 0x1 PUSH1 0x1 PUSH1 0xA0 SHL SUB DUP6 AND DUP5 MSTORE SWAP1 SWAP2 MSTORE SWAP1 KECCAK256 SLOAD PUSH1 0xFF AND PUSH2 0x2626 JUMPI PUSH1 0x0 DUP3 DUP2 MSTORE PUSH1 0x20 DUP2 DUP2 MSTORE PUSH1 0x40 DUP1 DUP4 KECCAK256 PUSH1 0x1 PUSH1 0x1 PUSH1 0xA0 SHL SUB DUP6 AND DUP5 MSTORE SWAP1 SWAP2 MSTORE SWAP1 KECCAK256 DUP1 SLOAD PUSH1 0xFF NOT AND PUSH1 0x1 OR SWAP1 SSTORE PUSH2 0x32D5 CALLER SWAP1 JUMP JUMPDEST PUSH1 0x1 PUSH1 0x1 PUSH1 0xA0 SHL SUB AND DUP2 PUSH1 0x1 PUSH1 0x1 PUSH1 0xA0 SHL SUB AND DUP4 PUSH32 0x2F8788117E7EFF1D82E926EC794901D17C78024A50270940304540A733656F0D PUSH1 0x40 MLOAD PUSH1 0x40 MLOAD DUP1 SWAP2 SUB SWAP1 LOG4 POP POP JUMP JUMPDEST PUSH1 0x0 DUP2 DUP2 MSTORE PUSH1 0x1 DUP4 ADD PUSH1 0x20 MSTORE PUSH1 0x40 DUP2 KECCAK256 SLOAD PUSH2 0x3360 JUMPI POP DUP2 SLOAD PUSH1 0x1 DUP2 DUP2 ADD DUP5 SSTORE PUSH1 0x0 DUP5 DUP2 MSTORE PUSH1 0x20 DUP1 DUP3 KECCAK256 SWAP1 SWAP4 ADD DUP5 SWAP1 SSTORE DUP5 SLOAD DUP5 DUP3 MSTORE DUP3 DUP7 ADD SWAP1 SWAP4 MSTORE PUSH1 0x40 SWAP1 KECCAK256 SWAP2 SWAP1 SWAP2 SSTORE PUSH2 0x8D4 JUMP JUMPDEST POP PUSH1 0x0 PUSH2 0x8D4 JUMP JUMPDEST PUSH1 0x60 PUSH1 0x0 PUSH2 0x3377 DUP4 PUSH1 0x2 PUSH2 0x414E JUMP JUMPDEST PUSH2 0x3382 SWAP1 PUSH1 0x2 PUSH2 0x4136 JUMP JUMPDEST PUSH8 0xFFFFFFFFFFFFFFFF DUP2 GT ISZERO PUSH2 0x33A8 JUMPI PUSH4 0x4E487B71 PUSH1 0xE0 SHL PUSH1 0x0 MSTORE PUSH1 0x41 PUSH1 0x4 MSTORE PUSH1 0x24 PUSH1 0x0 REVERT JUMPDEST PUSH1 0x40 MLOAD SWAP1 DUP1 DUP3 MSTORE DUP1 PUSH1 0x1F ADD PUSH1 0x1F NOT AND PUSH1 0x20 ADD DUP3 ADD PUSH1 0x40 MSTORE DUP1 ISZERO PUSH2 0x33D2 JUMPI PUSH1 0x20 DUP3 ADD DUP2 DUP1 CALLDATASIZE DUP4 CALLDATACOPY ADD SWAP1 POP JUMPDEST POP SWAP1 POP PUSH32 0x3000000000000000000000000000000000000000000000000000000000000000 DUP2 PUSH1 0x0 DUP2 MLOAD DUP2 LT PUSH2 0x3417 JUMPI PUSH4 0x4E487B71 PUSH1 0xE0 SHL PUSH1 0x0 MSTORE PUSH1 0x32 PUSH1 0x4 MSTORE PUSH1 0x24 PUSH1 0x0 REVERT JUMPDEST PUSH1 0x20 ADD ADD SWAP1 PUSH1 0x1 PUSH1 0x1 PUSH1 0xF8 SHL SUB NOT AND SWAP1 DUP2 PUSH1 0x0 BYTE SWAP1 MSTORE8 POP PUSH32 0x7800000000000000000000000000000000000000000000000000000000000000 DUP2 PUSH1 0x1 DUP2 MLOAD DUP2 LT PUSH2 0x3470 JUMPI PUSH4 0x4E487B71 PUSH1 0xE0 SHL PUSH1 0x0 MSTORE PUSH1 0x32 PUSH1 0x4 MSTORE PUSH1 0x24 PUSH1 0x0 REVERT JUMPDEST PUSH1 0x20 ADD ADD SWAP1 PUSH1 0x1 PUSH1 0x1 PUSH1 0xF8 SHL SUB NOT AND SWAP1 DUP2 PUSH1 0x0 BYTE SWAP1 MSTORE8 POP PUSH1 0x0 PUSH2 0x3494 DUP5 PUSH1 0x2 PUSH2 0x414E JUMP JUMPDEST PUSH2 0x349F SWAP1 PUSH1 0x1 PUSH2 0x4136 JUMP JUMPDEST SWAP1 POP JUMPDEST PUSH1 0x1 DUP2 GT ISZERO PUSH2 0x3540 JUMPI PUSH32 0x3031323334353637383961626364656600000000000000000000000000000000 DUP6 PUSH1 0xF AND PUSH1 0x10 DUP2 LT PUSH2 0x34EE JUMPI PUSH4 0x4E487B71 PUSH1 0xE0 SHL PUSH1 0x0 MSTORE PUSH1 0x32 PUSH1 0x4 MSTORE PUSH1 0x24 PUSH1 0x0 REVERT JUMPDEST BYTE PUSH1 0xF8 SHL DUP3 DUP3 DUP2 MLOAD DUP2 LT PUSH2 0x3512 JUMPI PUSH4 0x4E487B71 PUSH1 0xE0 SHL PUSH1 0x0 MSTORE PUSH1 0x32 PUSH1 0x4 MSTORE PUSH1 0x24 PUSH1 0x0 REVERT JUMPDEST PUSH1 0x20 ADD ADD SWAP1 PUSH1 0x1 PUSH1 0x1 PUSH1 0xF8 SHL SUB NOT AND SWAP1 DUP2 PUSH1 0x0 BYTE SWAP1 MSTORE8 POP PUSH1 0x4 SWAP5 SWAP1 SWAP5 SHR SWAP4 PUSH2 0x3539 DUP2 PUSH2 0x41B0 JUMP JUMPDEST SWAP1 POP PUSH2 0x34A2 JUMP JUMPDEST POP DUP4 ISZERO PUSH2 0x10EF JUMPI PUSH1 0x40 MLOAD PUSH3 0x461BCD PUSH1 0xE5 SHL DUP2 MSTORE PUSH1 0x20 PUSH1 0x4 DUP3 ADD DUP2 SWAP1 MSTORE PUSH1 0x24 DUP3 ADD MSTORE PUSH32 0x537472696E67733A20686578206C656E67746820696E73756666696369656E74 PUSH1 0x44 DUP3 ADD MSTORE PUSH1 0x64 ADD PUSH2 0xA97 JUMP JUMPDEST PUSH1 0x0 DUP3 DUP2 MSTORE PUSH1 0x20 DUP2 DUP2 MSTORE PUSH1 0x40 DUP1 DUP4 KECCAK256 PUSH1 0x1 PUSH1 0x1 PUSH1 0xA0 SHL SUB DUP6 AND DUP5 MSTORE SWAP1 SWAP2 MSTORE SWAP1 KECCAK256 SLOAD PUSH1 0xFF AND ISZERO PUSH2 0x2626 JUMPI PUSH1 0x0 DUP3 DUP2 MSTORE PUSH1 0x20 DUP2 DUP2 MSTORE PUSH1 0x40 DUP1 DUP4 KECCAK256 PUSH1 0x1 PUSH1 0x1 PUSH1 0xA0 SHL SUB DUP6 AND DUP1 DUP6 MSTORE SWAP3 MSTORE DUP1 DUP4 KECCAK256 DUP1 SLOAD PUSH1 0xFF NOT AND SWAP1 SSTORE MLOAD CALLER SWAP3 DUP6 SWAP2 PUSH32 0xF6391F5C32D9C69D2A47EA670B442974B53935D1EDC7FD64EB21E047A839171B SWAP2 SWAP1 LOG4 POP POP JUMP JUMPDEST PUSH1 0x0 DUP2 DUP2 MSTORE PUSH1 0x1 DUP4 ADD PUSH1 0x20 MSTORE PUSH1 0x40 DUP2 KECCAK256 SLOAD DUP1 ISZERO PUSH2 0x3721 JUMPI PUSH1 0x0 PUSH2 0x3632 PUSH1 0x1 DUP4 PUSH2 0x416D JUMP JUMPDEST DUP6 SLOAD SWAP1 SWAP2 POP PUSH1 0x0 SWAP1 PUSH2 0x3646 SWAP1 PUSH1 0x1 SWAP1 PUSH2 0x416D JUMP JUMPDEST SWAP1 POP DUP2 DUP2 EQ PUSH2 0x36C7 JUMPI PUSH1 0x0 DUP7 PUSH1 0x0 ADD DUP3 DUP2 SLOAD DUP2 LT PUSH2 0x3674 JUMPI PUSH4 0x4E487B71 PUSH1 0xE0 SHL PUSH1 0x0 MSTORE PUSH1 0x32 PUSH1 0x4 MSTORE PUSH1 0x24 PUSH1 0x0 REVERT JUMPDEST SWAP1 PUSH1 0x0 MSTORE PUSH1 0x20 PUSH1 0x0 KECCAK256 ADD SLOAD SWAP1 POP DUP1 DUP8 PUSH1 0x0 ADD DUP5 DUP2 SLOAD DUP2 LT PUSH2 0x36A5 JUMPI PUSH4 0x4E487B71 PUSH1 0xE0 SHL PUSH1 0x0 MSTORE PUSH1 0x32 PUSH1 0x4 MSTORE PUSH1 0x24 PUSH1 0x0 REVERT JUMPDEST PUSH1 0x0 SWAP2 DUP3 MSTORE PUSH1 0x20 DUP1 DUP4 KECCAK256 SWAP1 SWAP2 ADD SWAP3 SWAP1 SWAP3 SSTORE SWAP2 DUP3 MSTORE PUSH1 0x1 DUP9 ADD SWAP1 MSTORE PUSH1 0x40 SWAP1 KECCAK256 DUP4 SWAP1 SSTORE JUMPDEST DUP6 SLOAD DUP7 SWAP1 DUP1 PUSH2 0x36E6 JUMPI PUSH4 0x4E487B71 PUSH1 0xE0 SHL PUSH1 0x0 MSTORE PUSH1 0x31 PUSH1 0x4 MSTORE PUSH1 0x24 PUSH1 0x0 REVERT JUMPDEST PUSH1 0x1 SWAP1 SUB DUP2 DUP2 SWAP1 PUSH1 0x0 MSTORE PUSH1 0x20 PUSH1 0x0 KECCAK256 ADD PUSH1 0x0 SWAP1 SSTORE SWAP1 SSTORE DUP6 PUSH1 0x1 ADD PUSH1 0x0 DUP7 DUP2 MSTORE PUSH1 0x20 ADD SWAP1 DUP2 MSTORE PUSH1 0x20 ADD PUSH1 0x0 KECCAK256 PUSH1 0x0 SWAP1 SSTORE PUSH1 0x1 SWAP4 POP POP POP POP PUSH2 0x8D4 JUMP JUMPDEST PUSH1 0x0 SWAP2 POP POP PUSH2 0x8D4 JUMP JUMPDEST PUSH1 0x0 DUP3 PUSH1 0x0 ADD DUP3 DUP2 SLOAD DUP2 LT PUSH2 0x3750 JUMPI PUSH4 0x4E487B71 PUSH1 0xE0 SHL PUSH1 0x0 MSTORE PUSH1 0x32 PUSH1 0x4 MSTORE PUSH1 0x24 PUSH1 0x0 REVERT JUMPDEST SWAP1 PUSH1 0x0 MSTORE PUSH1 0x20 PUSH1 0x0 KECCAK256 ADD SLOAD SWAP1 POP SWAP3 SWAP2 POP POP JUMP JUMPDEST POP DUP1 SLOAD PUSH1 0x0 DUP3 SSTORE SWAP1 PUSH1 0x0 MSTORE PUSH1 0x20 PUSH1 0x0 KECCAK256 SWAP1 DUP2 ADD SWAP1 PUSH2 0x3781 SWAP2 SWAP1 PUSH2 0x3808 JUMP JUMPDEST POP JUMP JUMPDEST DUP3 DUP1 SLOAD PUSH2 0x3790 SWAP1 PUSH2 0x41C7 JUMP JUMPDEST SWAP1 PUSH1 0x0 MSTORE PUSH1 0x20 PUSH1 0x0 KECCAK256 SWAP1 PUSH1 0x1F ADD PUSH1 0x20 SWAP1 DIV DUP2 ADD SWAP3 DUP3 PUSH2 0x37B2 JUMPI PUSH1 0x0 DUP6 SSTORE PUSH2 0x37F8 JUMP JUMPDEST DUP3 PUSH1 0x1F LT PUSH2 0x37CB JUMPI DUP3 DUP1 ADD PUSH1 0xFF NOT DUP3 CALLDATALOAD AND OR DUP6 SSTORE PUSH2 0x37F8 JUMP JUMPDEST DUP3 DUP1 ADD PUSH1 0x1 ADD DUP6 SSTORE DUP3 ISZERO PUSH2 0x37F8 JUMPI SWAP2 DUP3 ADD JUMPDEST DUP3 DUP2 GT ISZERO PUSH2 0x37F8 JUMPI DUP3 CALLDATALOAD DUP3 SSTORE SWAP2 PUSH1 0x20 ADD SWAP2 SWAP1 PUSH1 0x1 ADD SWAP1 PUSH2 0x37DD JUMP JUMPDEST POP PUSH2 0x3804 SWAP3 SWAP2 POP PUSH2 0x3808 JUMP JUMPDEST POP SWAP1 JUMP JUMPDEST JUMPDEST DUP1 DUP3 GT ISZERO PUSH2 0x3804 JUMPI PUSH1 0x0 DUP2 SSTORE PUSH1 0x1 ADD PUSH2 0x3809 JUMP JUMPDEST DUP1 CALLDATALOAD PUSH2 0x3828 DUP2 PUSH2 0x4243 JUMP JUMPDEST SWAP2 SWAP1 POP JUMP JUMPDEST PUSH1 0x0 DUP1 DUP4 PUSH1 0x1F DUP5 ADD SLT PUSH2 0x383E JUMPI DUP2 DUP3 REVERT JUMPDEST POP DUP2 CALLDATALOAD PUSH8 0xFFFFFFFFFFFFFFFF DUP2 GT ISZERO PUSH2 0x3855 JUMPI DUP2 DUP3 REVERT JUMPDEST PUSH1 0x20 DUP4 ADD SWAP2 POP DUP4 PUSH1 0x20 DUP3 PUSH1 0x5 SHL DUP6 ADD ADD GT ISZERO PUSH2 0x3870 JUMPI PUSH1 0x0 DUP1 REVERT JUMPDEST SWAP3 POP SWAP3 SWAP1 POP JUMP JUMPDEST DUP1 CALLDATALOAD DUP1 ISZERO ISZERO DUP2 EQ PUSH2 0x3828 JUMPI PUSH1 0x0 DUP1 REVERT JUMPDEST PUSH1 0x0 DUP1 DUP4 PUSH1 0x1F DUP5 ADD SLT PUSH2 0x3898 JUMPI DUP2 DUP3 REVERT JUMPDEST POP DUP2 CALLDATALOAD PUSH8 0xFFFFFFFFFFFFFFFF DUP2 GT ISZERO PUSH2 0x38AF JUMPI DUP2 DUP3 REVERT JUMPDEST PUSH1 0x20 DUP4 ADD SWAP2 POP DUP4 PUSH1 0x20 DUP3 DUP6 ADD ADD GT ISZERO PUSH2 0x3870 JUMPI PUSH1 0x0 DUP1 REVERT JUMPDEST PUSH1 0x0 PUSH1 0x20 DUP3 DUP5 SUB SLT ISZERO PUSH2 0x38D8 JUMPI DUP1 DUP2 REVERT JUMPDEST DUP2 CALLDATALOAD PUSH2 0x10EF DUP2 PUSH2 0x4243 JUMP JUMPDEST PUSH1 0x0 DUP1 PUSH1 0x40 DUP4 DUP6 SUB SLT ISZERO PUSH2 0x38F5 JUMPI DUP1 DUP2 REVERT JUMPDEST DUP3 CALLDATALOAD PUSH2 0x3900 DUP2 PUSH2 0x4243 JUMP JUMPDEST SWAP2 POP PUSH1 0x20 DUP4 ADD CALLDATALOAD PUSH2 0x3910 DUP2 PUSH2 0x4243 JUMP JUMPDEST DUP1 SWAP2 POP POP SWAP3 POP SWAP3 SWAP1 POP JUMP JUMPDEST PUSH1 0x0 DUP1 PUSH1 0x0 PUSH1 0x60 DUP5 DUP7 SUB SLT ISZERO PUSH2 0x392F JUMPI DUP1 DUP2 REVERT JUMPDEST DUP4 CALLDATALOAD PUSH2 0x393A DUP2 PUSH2 0x4243 JUMP JUMPDEST SWAP3 POP PUSH1 0x20 DUP5 ADD CALLDATALOAD PUSH2 0x394A DUP2 PUSH2 0x4243 JUMP JUMPDEST SWAP3 SWAP6 SWAP3 SWAP5 POP POP POP PUSH1 0x40 SWAP2 SWAP1 SWAP2 ADD CALLDATALOAD SWAP1 JUMP JUMPDEST PUSH1 0x0 DUP1 PUSH1 0x0 DUP1 PUSH1 0x0 DUP1 PUSH1 0x0 PUSH1 0xE0 DUP9 DUP11 SUB SLT ISZERO PUSH2 0x3975 JUMPI DUP3 DUP4 REVERT JUMPDEST DUP8 CALLDATALOAD PUSH2 0x3980 DUP2 PUSH2 0x4243 JUMP JUMPDEST SWAP7 POP PUSH1 0x20 DUP9 ADD CALLDATALOAD PUSH2 0x3990 DUP2 PUSH2 0x4243 JUMP JUMPDEST SWAP6 POP PUSH1 0x40 DUP9 ADD CALLDATALOAD SWAP5 POP PUSH1 0x60 DUP9 ADD CALLDATALOAD SWAP4 POP PUSH1 0x80 DUP9 ADD CALLDATALOAD PUSH1 0xFF DUP2 AND DUP2 EQ PUSH2 0x39B3 JUMPI DUP4 DUP5 REVERT JUMPDEST SWAP7 SWAP10 SWAP6 SWAP9 POP SWAP4 SWAP7 SWAP3 SWAP6 SWAP5 PUSH1 0xA0 DUP5 ADD CALLDATALOAD SWAP5 POP PUSH1 0xC0 SWAP1 SWAP4 ADD CALLDATALOAD SWAP3 SWAP2 POP POP JUMP JUMPDEST PUSH1 0x0 DUP1 PUSH1 0x0 PUSH1 0x40 DUP5 DUP7 SUB SLT ISZERO PUSH2 0x39E4 JUMPI DUP3 DUP4 REVERT JUMPDEST DUP4 CALLDATALOAD PUSH2 0x39EF DUP2 PUSH2 0x4243 JUMP JUMPDEST SWAP3 POP PUSH1 0x20 DUP5 ADD CALLDATALOAD PUSH8 0xFFFFFFFFFFFFFFFF DUP2 GT ISZERO PUSH2 0x3A0A JUMPI DUP3 DUP4 REVERT JUMPDEST PUSH2 0x3A16 DUP7 DUP3 DUP8 ADD PUSH2 0x382D JUMP JUMPDEST SWAP5 SWAP8 SWAP1 SWAP7 POP SWAP4 SWAP5 POP POP POP POP JUMP JUMPDEST PUSH1 0x0 DUP1 PUSH1 0x40 DUP4 DUP6 SUB SLT ISZERO PUSH2 0x3A35 JUMPI DUP2 DUP3 REVERT JUMPDEST DUP3 CALLDATALOAD PUSH2 0x3A40 DUP2 PUSH2 0x4243 JUMP JUMPDEST SWAP5 PUSH1 0x20 SWAP4 SWAP1 SWAP4 ADD CALLDATALOAD SWAP4 POP POP POP JUMP JUMPDEST PUSH1 0x0 DUP1 PUSH1 0x20 DUP4 DUP6 SUB SLT ISZERO PUSH2 0x3A60 JUMPI DUP2 DUP3 REVERT JUMPDEST DUP3 CALLDATALOAD PUSH8 0xFFFFFFFFFFFFFFFF DUP2 GT ISZERO PUSH2 0x3A76 JUMPI DUP3 DUP4 REVERT JUMPDEST PUSH2 0x3A82 DUP6 DUP3 DUP7 ADD PUSH2 0x382D JUMP JUMPDEST SWAP1 SWAP7 SWAP1 SWAP6 POP SWAP4 POP POP POP POP JUMP JUMPDEST PUSH1 0x0 PUSH1 0x20 DUP1 DUP4 DUP6 SUB SLT ISZERO PUSH2 0x3AA0 JUMPI DUP2 DUP3 REVERT JUMPDEST DUP3 MLOAD PUSH8 0xFFFFFFFFFFFFFFFF DUP2 GT ISZERO PUSH2 0x3AB6 JUMPI DUP3 DUP4 REVERT JUMPDEST DUP4 ADD PUSH1 0x1F DUP2 ADD DUP6 SGT PUSH2 0x3AC6 JUMPI DUP3 DUP4 REVERT JUMPDEST DUP1 MLOAD PUSH2 0x3AD9 PUSH2 0x3AD4 DUP3 PUSH2 0x4112 JUMP JUMPDEST PUSH2 0x40E1 JUMP JUMPDEST DUP1 DUP3 DUP3 MSTORE DUP5 DUP3 ADD SWAP2 POP DUP5 DUP5 ADD DUP9 DUP7 DUP6 PUSH1 0x5 SHL DUP8 ADD ADD GT ISZERO PUSH2 0x3AF8 JUMPI DUP7 DUP8 REVERT JUMPDEST DUP7 SWAP5 POP JUMPDEST DUP4 DUP6 LT ISZERO PUSH2 0x3B23 JUMPI DUP1 MLOAD PUSH2 0x3B0F DUP2 PUSH2 0x4243 JUMP JUMPDEST DUP4 MSTORE PUSH1 0x1 SWAP5 SWAP1 SWAP5 ADD SWAP4 SWAP2 DUP6 ADD SWAP2 DUP6 ADD PUSH2 0x3AFC JUMP JUMPDEST POP SWAP8 SWAP7 POP POP POP POP POP POP POP JUMP JUMPDEST PUSH1 0x0 DUP1 PUSH1 0x20 DUP4 DUP6 SUB SLT ISZERO PUSH2 0x3B41 JUMPI DUP2 DUP3 REVERT JUMPDEST DUP3 CALLDATALOAD PUSH8 0xFFFFFFFFFFFFFFFF DUP1 DUP3 GT ISZERO PUSH2 0x3B58 JUMPI DUP4 DUP5 REVERT JUMPDEST DUP2 DUP6 ADD SWAP2 POP DUP6 PUSH1 0x1F DUP4 ADD SLT PUSH2 0x3B6B JUMPI DUP4 DUP5 REVERT JUMPDEST DUP2 CALLDATALOAD DUP2 DUP2 GT ISZERO PUSH2 0x3B79 JUMPI DUP5 DUP6 REVERT JUMPDEST DUP7 PUSH1 0x20 PUSH1 0xC0 DUP4 MUL DUP6 ADD ADD GT ISZERO PUSH2 0x3B8D JUMPI DUP5 DUP6 REVERT JUMPDEST PUSH1 0x20 SWAP3 SWAP1 SWAP3 ADD SWAP7 SWAP2 SWAP6 POP SWAP1 SWAP4 POP POP POP POP JUMP JUMPDEST PUSH1 0x0 DUP1 PUSH1 0x20 DUP4 DUP6 SUB SLT ISZERO PUSH2 0x3BB1 JUMPI DUP2 DUP3 REVERT JUMPDEST DUP3 CALLDATALOAD PUSH8 0xFFFFFFFFFFFFFFFF DUP1 DUP3 GT ISZERO PUSH2 0x3BC8 JUMPI DUP4 DUP5 REVERT JUMPDEST DUP2 DUP6 ADD SWAP2 POP DUP6 PUSH1 0x1F DUP4 ADD SLT PUSH2 0x3BDB JUMPI DUP4 DUP5 REVERT JUMPDEST DUP2 CALLDATALOAD DUP2 DUP2 GT ISZERO PUSH2 0x3BE9 JUMPI DUP5 DUP6 REVERT JUMPDEST DUP7 PUSH1 0x20 DUP3 PUSH1 0x6 SHL DUP6 ADD ADD GT ISZERO PUSH2 0x3B8D JUMPI DUP5 DUP6 REVERT JUMPDEST PUSH1 0x0 PUSH1 0x20 DUP1 DUP4 DUP6 SUB SLT ISZERO PUSH2 0x3C0F JUMPI DUP2 DUP3 REVERT JUMPDEST DUP3 MLOAD PUSH8 0xFFFFFFFFFFFFFFFF DUP2 GT ISZERO PUSH2 0x3C25 JUMPI DUP3 DUP4 REVERT JUMPDEST DUP4 ADD PUSH1 0x1F DUP2 ADD DUP6 SGT PUSH2 0x3C35 JUMPI DUP3 DUP4 REVERT JUMPDEST DUP1 MLOAD PUSH2 0x3C43 PUSH2 0x3AD4 DUP3 PUSH2 0x4112 JUMP JUMPDEST DUP1 DUP3 DUP3 MSTORE DUP5 DUP3 ADD SWAP2 POP DUP5 DUP5 ADD DUP9 DUP7 DUP6 PUSH1 0x6 SHL DUP8 ADD ADD GT ISZERO PUSH2 0x3C62 JUMPI DUP7 DUP8 REVERT JUMPDEST DUP7 SWAP5 POP JUMPDEST DUP4 DUP6 LT ISZERO PUSH2 0x3B23 JUMPI PUSH1 0x40 DUP1 DUP3 DUP12 SUB SLT ISZERO PUSH2 0x3C7E JUMPI DUP8 DUP9 REVERT JUMPDEST PUSH2 0x3C86 PUSH2 0x40B8 JUMP JUMPDEST DUP3 MLOAD PUSH2 0x3C91 DUP2 PUSH2 0x4243 JUMP JUMPDEST DUP2 MSTORE DUP3 DUP9 ADD MLOAD DUP9 DUP3 ADD MSTORE DUP5 MSTORE PUSH1 0x1 SWAP6 SWAP1 SWAP6 ADD SWAP5 SWAP3 DUP7 ADD SWAP3 ADD PUSH2 0x3C66 JUMP JUMPDEST PUSH1 0x0 PUSH1 0x20 DUP3 DUP5 SUB SLT ISZERO PUSH2 0x3CBF JUMPI DUP1 DUP2 REVERT JUMPDEST PUSH2 0x10EF DUP3 PUSH2 0x3877 JUMP JUMPDEST PUSH1 0x0 PUSH1 0x20 DUP3 DUP5 SUB SLT ISZERO PUSH2 0x3CD9 JUMPI DUP1 DUP2 REVERT JUMPDEST POP CALLDATALOAD SWAP2 SWAP1 POP JUMP JUMPDEST PUSH1 0x0 DUP1 PUSH1 0x40 DUP4 DUP6 SUB SLT ISZERO PUSH2 0x3CF2 JUMPI DUP2 DUP3 REVERT JUMPDEST DUP3 CALLDATALOAD SWAP2 POP PUSH1 0x20 DUP4 ADD CALLDATALOAD PUSH2 0x3910 DUP2 PUSH2 0x4243 JUMP JUMPDEST PUSH1 0x0 DUP1 PUSH1 0x40 DUP4 DUP6 SUB SLT ISZERO PUSH2 0x3D16 JUMPI DUP2 DUP3 REVERT JUMPDEST POP POP DUP1 CALLDATALOAD SWAP3 PUSH1 0x20 SWAP1 SWAP2 ADD CALLDATALOAD SWAP2 POP JUMP JUMPDEST PUSH1 0x0 PUSH1 0x20 DUP3 DUP5 SUB SLT ISZERO PUSH2 0x3D36 JUMPI DUP1 DUP2 REVERT JUMPDEST DUP2 CALLDATALOAD PUSH1 0x1 PUSH1 0x1 PUSH1 0xE0 SHL SUB NOT DUP2 AND DUP2 EQ PUSH2 0x10EF JUMPI DUP2 DUP3 REVERT JUMPDEST PUSH1 0x0 DUP1 PUSH1 0x0 DUP1 PUSH1 0x40 DUP6 DUP8 SUB SLT ISZERO PUSH2 0x3D62 JUMPI DUP2 DUP3 REVERT JUMPDEST DUP5 CALLDATALOAD PUSH8 0xFFFFFFFFFFFFFFFF DUP1 DUP3 GT ISZERO PUSH2 0x3D79 JUMPI DUP4 DUP5 REVERT JUMPDEST PUSH2 0x3D85 DUP9 DUP4 DUP10 ADD PUSH2 0x3887 JUMP JUMPDEST SWAP1 SWAP7 POP SWAP5 POP PUSH1 0x20 DUP8 ADD CALLDATALOAD SWAP2 POP DUP1 DUP3 GT ISZERO PUSH2 0x3D9D JUMPI DUP4 DUP5 REVERT JUMPDEST POP PUSH2 0x3DAA DUP8 DUP3 DUP9 ADD PUSH2 0x3887 JUMP JUMPDEST SWAP6 SWAP9 SWAP5 SWAP8 POP SWAP6 POP POP POP POP JUMP JUMPDEST PUSH1 0x0 PUSH1 0x80 DUP3 DUP5 SUB SLT ISZERO PUSH2 0x3DC7 JUMPI DUP1 DUP2 REVERT JUMPDEST PUSH1 0x40 MLOAD PUSH1 0x80 DUP2 ADD DUP2 DUP2 LT PUSH8 0xFFFFFFFFFFFFFFFF DUP3 GT OR ISZERO PUSH2 0x3DEA JUMPI PUSH2 0x3DEA PUSH2 0x422D JUMP JUMPDEST DUP1 PUSH1 0x40 MSTORE POP DUP3 MLOAD DUP2 MSTORE PUSH1 0x20 DUP4 ADD MLOAD PUSH1 0x20 DUP3 ADD MSTORE PUSH1 0x40 DUP4 ADD MLOAD PUSH1 0x40 DUP3 ADD MSTORE PUSH1 0x60 DUP4 ADD MLOAD PUSH1 0x60 DUP3 ADD MSTORE DUP1 SWAP2 POP POP SWAP3 SWAP2 POP POP JUMP JUMPDEST PUSH1 0x0 PUSH1 0x20 DUP3 DUP5 SUB SLT ISZERO PUSH2 0x3E2C JUMPI DUP1 DUP2 REVERT JUMPDEST POP MLOAD SWAP2 SWAP1 POP JUMP JUMPDEST DUP2 DUP4 MSTORE PUSH1 0x0 PUSH1 0x20 DUP1 DUP6 ADD SWAP5 POP DUP3 DUP3 JUMPDEST DUP6 DUP2 LT ISZERO PUSH2 0x3E70 JUMPI DUP2 CALLDATALOAD PUSH2 0x3E55 DUP2 PUSH2 0x4243 JUMP JUMPDEST PUSH1 0x1 PUSH1 0x1 PUSH1 0xA0 SHL SUB AND DUP8 MSTORE SWAP6 DUP3 ADD SWAP6 SWAP1 DUP3 ADD SWAP1 PUSH1 0x1 ADD PUSH2 0x3E42 JUMP JUMPDEST POP SWAP5 SWAP6 SWAP5 POP POP POP POP POP JUMP JUMPDEST PUSH32 0x416363657373436F6E74726F6C3A206163636F756E7420000000000000000000 DUP2 MSTORE PUSH1 0x0 DUP4 MLOAD PUSH2 0x3EB3 DUP2 PUSH1 0x17 DUP6 ADD PUSH1 0x20 DUP9 ADD PUSH2 0x4184 JUMP JUMPDEST PUSH32 0x206973206D697373696E6720726F6C6520000000000000000000000000000000 PUSH1 0x17 SWAP2 DUP5 ADD SWAP2 DUP3 ADD MSTORE DUP4 MLOAD PUSH2 0x3EF0 DUP2 PUSH1 0x28 DUP5 ADD PUSH1 0x20 DUP9 ADD PUSH2 0x4184 JUMP JUMPDEST ADD PUSH1 0x28 ADD SWAP5 SWAP4 POP POP POP POP JUMP JUMPDEST PUSH1 0x1 PUSH1 0x1 PUSH1 0xA0 SHL SUB DUP5 AND DUP2 MSTORE PUSH1 0x40 PUSH1 0x20 DUP3 ADD MSTORE PUSH1 0x0 PUSH2 0x88D PUSH1 0x40 DUP4 ADD DUP5 DUP7 PUSH2 0x3E33 JUMP JUMPDEST PUSH1 0x20 DUP2 MSTORE PUSH1 0x0 PUSH2 0x1506 PUSH1 0x20 DUP4 ADD DUP5 DUP7 PUSH2 0x3E33 JUMP JUMPDEST PUSH1 0x20 DUP1 DUP3 MSTORE DUP3 MLOAD DUP3 DUP3 ADD DUP2 SWAP1 MSTORE PUSH1 0x0 SWAP2 SWAP1 DUP5 DUP3 ADD SWAP1 PUSH1 0x40 DUP6 ADD SWAP1 DUP5 JUMPDEST DUP2 DUP2 LT ISZERO PUSH2 0x3F74 JUMPI DUP4 MLOAD PUSH1 0x1 PUSH1 0x1 PUSH1 0xA0 SHL SUB AND DUP4 MSTORE SWAP3 DUP5 ADD SWAP3 SWAP2 DUP5 ADD SWAP2 PUSH1 0x1 ADD PUSH2 0x3F4F JUMP JUMPDEST POP SWAP1 SWAP7 SWAP6 POP POP POP POP POP POP JUMP JUMPDEST PUSH1 0x20 DUP1 DUP3 MSTORE DUP2 DUP2 ADD DUP4 SWAP1 MSTORE PUSH1 0x0 SWAP1 PUSH1 0x40 DUP1 DUP5 ADD DUP7 DUP5 JUMPDEST DUP8 DUP2 LT ISZERO PUSH2 0x4020 JUMPI PUSH2 0x3FA7 DUP3 PUSH2 0x3877 JUMP JUMPDEST ISZERO ISZERO DUP4 MSTORE PUSH2 0x3FB6 DUP6 DUP4 ADD PUSH2 0x3877 JUMP JUMPDEST ISZERO ISZERO DUP6 DUP5 ADD MSTORE PUSH2 0x3FC7 DUP5 DUP4 ADD PUSH2 0x3877 JUMP JUMPDEST ISZERO ISZERO DUP5 DUP5 ADD MSTORE PUSH1 0x60 PUSH2 0x3FDA DUP2 DUP5 ADD PUSH2 0x3877 JUMP JUMPDEST ISZERO ISZERO SWAP1 DUP5 ADD MSTORE PUSH1 0x80 PUSH2 0x3FED DUP4 DUP3 ADD PUSH2 0x3877 JUMP JUMPDEST ISZERO ISZERO SWAP1 DUP5 ADD MSTORE PUSH1 0xA0 PUSH2 0x4000 DUP4 DUP3 ADD PUSH2 0x381D JUMP JUMPDEST PUSH1 0x1 PUSH1 0x1 PUSH1 0xA0 SHL SUB AND SWAP1 DUP5 ADD MSTORE PUSH1 0xC0 SWAP3 DUP4 ADD SWAP3 SWAP2 SWAP1 SWAP2 ADD SWAP1 PUSH1 0x1 ADD PUSH2 0x3F96 JUMP JUMPDEST POP SWAP1 SWAP8 SWAP7 POP POP POP POP POP POP POP JUMP JUMPDEST PUSH1 0x20 DUP1 DUP3 MSTORE DUP3 MLOAD DUP3 DUP3 ADD DUP2 SWAP1 MSTORE PUSH1 0x0 SWAP2 SWAP1 PUSH1 0x40 SWAP1 DUP2 DUP6 ADD SWAP1 DUP7 DUP5 ADD DUP6 JUMPDEST DUP3 DUP2 LT ISZERO PUSH2 0x4078 JUMPI DUP2 MLOAD DUP1 MLOAD PUSH1 0x1 PUSH1 0x1 PUSH1 0xA0 SHL SUB AND DUP6 MSTORE DUP7 ADD MLOAD DUP7 DUP6 ADD MSTORE SWAP3 DUP5 ADD SWAP3 SWAP1 DUP6 ADD SWAP1 PUSH1 0x1 ADD PUSH2 0x404A JUMP JUMPDEST POP SWAP2 SWAP8 SWAP7 POP POP POP POP POP POP POP JUMP JUMPDEST PUSH1 0x20 DUP2 MSTORE PUSH1 0x0 DUP3 MLOAD DUP1 PUSH1 0x20 DUP5 ADD MSTORE PUSH2 0x40A4 DUP2 PUSH1 0x40 DUP6 ADD PUSH1 0x20 DUP8 ADD PUSH2 0x4184 JUMP JUMPDEST PUSH1 0x1F ADD PUSH1 0x1F NOT AND SWAP2 SWAP1 SWAP2 ADD PUSH1 0x40 ADD SWAP3 SWAP2 POP POP JUMP JUMPDEST PUSH1 0x40 DUP1 MLOAD SWAP1 DUP2 ADD PUSH8 0xFFFFFFFFFFFFFFFF DUP2 GT DUP3 DUP3 LT OR ISZERO PUSH2 0x40DB JUMPI PUSH2 0x40DB PUSH2 0x422D JUMP JUMPDEST PUSH1 0x40 MSTORE SWAP1 JUMP JUMPDEST PUSH1 0x40 MLOAD PUSH1 0x1F DUP3 ADD PUSH1 0x1F NOT AND DUP2 ADD PUSH8 0xFFFFFFFFFFFFFFFF DUP2 GT DUP3 DUP3 LT OR ISZERO PUSH2 0x410A JUMPI PUSH2 0x410A PUSH2 0x422D JUMP JUMPDEST PUSH1 0x40 MSTORE SWAP2 SWAP1 POP JUMP JUMPDEST PUSH1 0x0 PUSH8 0xFFFFFFFFFFFFFFFF DUP3 GT ISZERO PUSH2 0x412C JUMPI PUSH2 0x412C PUSH2 0x422D JUMP JUMPDEST POP PUSH1 0x5 SHL PUSH1 0x20 ADD SWAP1 JUMP JUMPDEST PUSH1 0x0 DUP3 NOT DUP3 GT ISZERO PUSH2 0x4149 JUMPI PUSH2 0x4149 PUSH2 0x4217 JUMP JUMPDEST POP ADD SWAP1 JUMP JUMPDEST PUSH1 0x0 DUP2 PUSH1 0x0 NOT DIV DUP4 GT DUP3 ISZERO ISZERO AND ISZERO PUSH2 0x4168 JUMPI PUSH2 0x4168 PUSH2 0x4217 JUMP JUMPDEST POP MUL SWAP1 JUMP JUMPDEST PUSH1 0x0 DUP3 DUP3 LT ISZERO PUSH2 0x417F JUMPI PUSH2 0x417F PUSH2 0x4217 JUMP JUMPDEST POP SUB SWAP1 JUMP JUMPDEST PUSH1 0x0 JUMPDEST DUP4 DUP2 LT ISZERO PUSH2 0x419F JUMPI DUP2 DUP2 ADD MLOAD DUP4 DUP3 ADD MSTORE PUSH1 0x20 ADD PUSH2 0x4187 JUMP JUMPDEST DUP4 DUP2 GT ISZERO PUSH2 0x96D JUMPI POP POP PUSH1 0x0 SWAP2 ADD MSTORE JUMP JUMPDEST PUSH1 0x0 DUP2 PUSH2 0x41BF JUMPI PUSH2 0x41BF PUSH2 0x4217 JUMP JUMPDEST POP PUSH1 0x0 NOT ADD SWAP1 JUMP JUMPDEST PUSH1 0x1 DUP2 DUP2 SHR SWAP1 DUP3 AND DUP1 PUSH2 0x41DB JUMPI PUSH1 0x7F DUP3 AND SWAP2 POP JUMPDEST PUSH1 0x20 DUP3 LT DUP2 EQ ISZERO PUSH2 0x3046 JUMPI PUSH4 0x4E487B71 PUSH1 0xE0 SHL PUSH1 0x0 MSTORE PUSH1 0x22 PUSH1 0x4 MSTORE PUSH1 0x24 PUSH1 0x0 REVERT JUMPDEST PUSH1 0x0 PUSH1 0x0 NOT DUP3 EQ ISZERO PUSH2 0x4210 JUMPI PUSH2 0x4210 PUSH2 0x4217 JUMP JUMPDEST POP PUSH1 0x1 ADD SWAP1 JUMP JUMPDEST PUSH4 0x4E487B71 PUSH1 0xE0 SHL PUSH1 0x0 MSTORE PUSH1 0x11 PUSH1 0x4 MSTORE PUSH1 0x24 PUSH1 0x0 REVERT JUMPDEST PUSH4 0x4E487B71 PUSH1 0xE0 SHL PUSH1 0x0 MSTORE PUSH1 0x41 PUSH1 0x4 MSTORE PUSH1 0x24 PUSH1 0x0 REVERT JUMPDEST PUSH1 0x1 PUSH1 0x1 PUSH1 0xA0 SHL SUB DUP2 AND DUP2 EQ PUSH2 0x3781 JUMPI PUSH1 0x0 DUP1 REVERT INVALID LOG2 PUSH5 0x6970667358 0x22 SLT KECCAK256 GASPRICE LOG0 PUSH27 0x49F90AA83A7497411AF5CF9D64F6B4FEADFE9CF44577E6DA15B77E 0xEF PUSH6 0x64736F6C6343 STOP ADDMOD DIV STOP CALLER "
		},
		"gasEstimates": {
			"creation": {
				"codeDepositCost": "3407600",
				"executionCost": "infinite",
				"totalCost": "infinite"
			},
			"external": {
				"DOMAIN_SEPARATOR()": "infinite",
				"ROLE_ADMIN()": "295",
				"ROLE_BURNER()": "295",
				"ROLE_MINTER()": "273",
				"ROLE_MODERATOR()": "298",
				"ROLE_TAXER()": "317",
				"ROLE_TRANSFERER()": "252",
				"allowance(address,address)": "infinite",
				"approve(address,uint256)": "22559",
				"balanceOf(address)": "infinite",
				"burnByBridge(address,uint256)": "infinite",
				"burnHumanAddress(address,uint256)": "infinite",
				"chargeCustomTax(address,uint256)": "infinite",
				"claimReferrerRewards(address[])": "infinite",
				"decimals()": "267",
				"decreaseAllowance(address,uint256)": "23630",
				"filterNonZeroReferrals(address[])": "infinite",
				"getCachedReferrerRewards(address)": "infinite",
				"getCalculatedReferrerRewards(address,address[])": "infinite",
				"getChainId()": "292",
				"getRoleAdmin(bytes32)": "1249",
				"getRoleMember(bytes32,uint256)": "infinite",
				"getRoleMemberCount(bytes32)": "infinite",
				"getTemporaryReferralRealAmountsBulk(address[])": "infinite",
				"getUtilsContractAtPos(uint256)": "2110",
				"getUtilsContractsCount()": "1071",
				"grantRole(bytes32,address)": "infinite",
				"grantRolesBulk((bytes32,address)[])": "infinite",
				"hasRole(bytes32,address)": "1416",
				"increaseAllowance(address,uint256)": "23640",
				"isPaused()": "1077",
				"mintByBridge(address,uint256)": "infinite",
				"mintHumanAddress(address,uint256)": "infinite",
				"moderatorTransferFromWhilePaused(address,address,uint256)": "infinite",
				"name()": "infinite",
				"nonces(address)": "1344",
				"pauseContract()": "infinite",
				"permit(address,address,uint256,uint256,uint8,bytes32,bytes32)": "infinite",
				"registerReferral(address)": "infinite",
				"renounceRole(bytes32,address)": "infinite",
				"resumeContract()": "infinite",
				"revokeRole(bytes32,address)": "infinite",
				"supportsInterface(bytes4)": "infinite",
				"symbol()": "infinite",
				"totalSupply()": "infinite",
				"transfer(address,uint256)": "infinite",
				"transferCustom(address,address,uint256)": "infinite",
				"transferFrom(address,address,uint256)": "infinite",
				"transferFromTeamVestingContract(address,uint256)": "infinite",
				"updateNameAndSymbol(string,string)": "infinite",
				"updateUtilsContracts((bool,bool,bool,bool,bool,address)[])": "infinite"
			},
			"internal": {
				"_burnHumanAddress(address,uint256)": "infinite",
				"_mintHumanAddress(address,uint256)": "infinite",
				"_transfer(address,address,uint256)": "infinite"
			}
		},
		"methodIdentifiers": {
			"DOMAIN_SEPARATOR()": "3644e515",
			"ROLE_ADMIN()": "d391014b",
			"ROLE_BURNER()": "54ff02d8",
			"ROLE_MINTER()": "92afc33a",
			"ROLE_MODERATOR()": "0288f0fb",
			"ROLE_TAXER()": "97c1d32f",
			"ROLE_TRANSFERER()": "8493712a",
			"allowance(address,address)": "dd62ed3e",
			"approve(address,uint256)": "095ea7b3",
			"balanceOf(address)": "70a08231",
			"burnByBridge(address,uint256)": "66830b21",
			"burnHumanAddress(address,uint256)": "18a8ad87",
			"chargeCustomTax(address,uint256)": "b492da91",
			"claimReferrerRewards(address[])": "5aacfa5d",
			"decimals()": "313ce567",
			"decreaseAllowance(address,uint256)": "a457c2d7",
			"filterNonZeroReferrals(address[])": "82e17b65",
			"getCachedReferrerRewards(address)": "4abd991d",
			"getCalculatedReferrerRewards(address,address[])": "00245783",
			"getChainId()": "3408e470",
			"getRoleAdmin(bytes32)": "248a9ca3",
			"getRoleMember(bytes32,uint256)": "9010d07c",
			"getRoleMemberCount(bytes32)": "ca15c873",
			"getTemporaryReferralRealAmountsBulk(address[])": "68a2972f",
			"getUtilsContractAtPos(uint256)": "06fb1a07",
			"getUtilsContractsCount()": "1bf73b72",
			"grantRole(bytes32,address)": "2f2ff15d",
			"grantRolesBulk((bytes32,address)[])": "03ed957f",
			"hasRole(bytes32,address)": "91d14854",
			"increaseAllowance(address,uint256)": "39509351",
			"isPaused()": "b187bd26",
			"mintByBridge(address,uint256)": "1f2eba24",
			"mintHumanAddress(address,uint256)": "0bb9ff5d",
			"moderatorTransferFromWhilePaused(address,address,uint256)": "c238651b",
			"name()": "06fdde03",
			"nonces(address)": "7ecebe00",
			"pauseContract()": "439766ce",
			"permit(address,address,uint256,uint256,uint8,bytes32,bytes32)": "d505accf",
			"registerReferral(address)": "209ab711",
			"renounceRole(bytes32,address)": "36568abe",
			"resumeContract()": "c4bc5da5",
			"revokeRole(bytes32,address)": "d547741f",
			"supportsInterface(bytes4)": "01ffc9a7",
			"symbol()": "95d89b41",
			"totalSupply()": "18160ddd",
			"transfer(address,uint256)": "a9059cbb",
			"transferCustom(address,address,uint256)": "9cff2eba",
			"transferFrom(address,address,uint256)": "23b872dd",
			"transferFromTeamVestingContract(address,uint256)": "8cbfeb0c",
			"updateNameAndSymbol(string,string)": "eaf9d194",
			"updateUtilsContracts((bool,bool,bool,bool,bool,address)[])": "789210b3"
		}
	},
	"abi": [
		{
			"inputs": [],
			"stateMutability": "nonpayable",
			"type": "constructor"
		},
		{
			"anonymous": false,
			"inputs": [
				{
					"indexed": true,
					"internalType": "address",
					"name": "owner",
					"type": "address"
				},
				{
					"indexed": true,
					"internalType": "address",
					"name": "spender",
					"type": "address"
				},
				{
					"indexed": false,
					"internalType": "uint256",
					"name": "value",
					"type": "uint256"
				}
			],
			"name": "Approval",
			"type": "event"
		},
		{
			"anonymous": false,
			"inputs": [
				{
					"indexed": false,
					"internalType": "address",
					"name": "sender",
					"type": "address"
				},
				{
					"indexed": false,
					"internalType": "uint256",
					"name": "amount",
					"type": "uint256"
				}
			],
			"name": "BurnHumanAddress",
			"type": "event"
		},
		{
			"anonymous": false,
			"inputs": [
				{
					"indexed": false,
					"internalType": "address",
					"name": "sender",
					"type": "address"
				},
				{
					"indexed": false,
					"internalType": "uint256",
					"name": "amount",
					"type": "uint256"
				}
			],
			"name": "BurnedByBridge",
			"type": "event"
		},
		{
			"anonymous": false,
			"inputs": [
				{
					"indexed": false,
					"internalType": "address",
					"name": "recipient",
					"type": "address"
				},
				{
					"indexed": false,
					"internalType": "uint256",
					"name": "amount",
					"type": "uint256"
				}
			],
			"name": "ClaimedReferralRewards",
			"type": "event"
		},
		{
			"anonymous": false,
			"inputs": [
				{
					"indexed": false,
					"internalType": "address",
					"name": "recipient",
					"type": "address"
				},
				{
					"indexed": false,
					"internalType": "uint256",
					"name": "amount",
					"type": "uint256"
				}
			],
			"name": "MintHumanAddress",
			"type": "event"
		},
		{
			"anonymous": false,
			"inputs": [
				{
					"indexed": false,
					"internalType": "address",
					"name": "recipient",
					"type": "address"
				},
				{
					"indexed": false,
					"internalType": "uint256",
					"name": "amount",
					"type": "uint256"
				}
			],
			"name": "MintedByBridge",
			"type": "event"
		},
		{
			"anonymous": false,
			"inputs": [
				{
					"indexed": true,
					"internalType": "bytes32",
					"name": "role",
					"type": "bytes32"
				},
				{
					"indexed": true,
					"internalType": "bytes32",
					"name": "previousAdminRole",
					"type": "bytes32"
				},
				{
					"indexed": true,
					"internalType": "bytes32",
					"name": "newAdminRole",
					"type": "bytes32"
				}
			],
			"name": "RoleAdminChanged",
			"type": "event"
		},
		{
			"anonymous": false,
			"inputs": [
				{
					"indexed": true,
					"internalType": "bytes32",
					"name": "role",
					"type": "bytes32"
				},
				{
					"indexed": true,
					"internalType": "address",
					"name": "account",
					"type": "address"
				},
				{
					"indexed": true,
					"internalType": "address",
					"name": "sender",
					"type": "address"
				}
			],
			"name": "RoleGranted",
			"type": "event"
		},
		{
			"anonymous": false,
			"inputs": [
				{
					"indexed": true,
					"internalType": "bytes32",
					"name": "role",
					"type": "bytes32"
				},
				{
					"indexed": true,
					"internalType": "address",
					"name": "account",
					"type": "address"
				},
				{
					"indexed": true,
					"internalType": "address",
					"name": "sender",
					"type": "address"
				}
			],
			"name": "RoleRevoked",
			"type": "event"
		},
		{
			"anonymous": false,
			"inputs": [
				{
					"indexed": true,
					"internalType": "address",
					"name": "from",
					"type": "address"
				},
				{
					"indexed": true,
					"internalType": "address",
					"name": "to",
					"type": "address"
				},
				{
					"indexed": false,
					"internalType": "uint256",
					"name": "value",
					"type": "uint256"
				}
			],
			"name": "Transfer",
			"type": "event"
		},
		{
			"anonymous": false,
			"inputs": [
				{
					"indexed": false,
					"internalType": "address",
					"name": "sender",
					"type": "address"
				},
				{
					"indexed": false,
					"internalType": "address",
					"name": "recipient",
					"type": "address"
				},
				{
					"indexed": false,
					"internalType": "uint256",
					"name": "amount",
					"type": "uint256"
				}
			],
			"name": "TransferCustom",
			"type": "event"
		},
		{
			"anonymous": false,
			"inputs": [
				{
					"components": [
						{
							"internalType": "bool",
							"name": "isMinter",
							"type": "bool"
						},
						{
							"internalType": "bool",
							"name": "isBurner",
							"type": "bool"
						},
						{
							"internalType": "bool",
							"name": "isTransferer",
							"type": "bool"
						},
						{
							"internalType": "bool",
							"name": "isModerator",
							"type": "bool"
						},
						{
							"internalType": "bool",
							"name": "isTaxer",
							"type": "bool"
						},
						{
							"internalType": "address",
							"name": "addr",
							"type": "address"
						}
					],
					"indexed": false,
					"internalType": "struct DefiFactoryToken.AccessSettings[]",
					"name": "accessSettings",
					"type": "tuple[]"
				}
			],
			"name": "UpdatedUtilsContracts",
			"type": "event"
		},
		{
			"anonymous": false,
			"inputs": [
				{
					"indexed": false,
					"internalType": "address",
					"name": "recipient",
					"type": "address"
				},
				{
					"indexed": false,
					"internalType": "uint256",
					"name": "amount",
					"type": "uint256"
				}
			],
			"name": "VestedAmountClaimed",
			"type": "event"
		},
		{
			"inputs": [],
			"name": "DOMAIN_SEPARATOR",
			"outputs": [
				{
					"internalType": "bytes32",
					"name": "",
					"type": "bytes32"
				}
			],
			"stateMutability": "view",
			"type": "function"
		},
		{
			"inputs": [],
			"name": "ROLE_ADMIN",
			"outputs": [
				{
					"internalType": "bytes32",
					"name": "",
					"type": "bytes32"
				}
			],
			"stateMutability": "view",
			"type": "function"
		},
		{
			"inputs": [],
			"name": "ROLE_BURNER",
			"outputs": [
				{
					"internalType": "bytes32",
					"name": "",
					"type": "bytes32"
				}
			],
			"stateMutability": "view",
			"type": "function"
		},
		{
			"inputs": [],
			"name": "ROLE_MINTER",
			"outputs": [
				{
					"internalType": "bytes32",
					"name": "",
					"type": "bytes32"
				}
			],
			"stateMutability": "view",
			"type": "function"
		},
		{
			"inputs": [],
			"name": "ROLE_MODERATOR",
			"outputs": [
				{
					"internalType": "bytes32",
					"name": "",
					"type": "bytes32"
				}
			],
			"stateMutability": "view",
			"type": "function"
		},
		{
			"inputs": [],
			"name": "ROLE_TAXER",
			"outputs": [
				{
					"internalType": "bytes32",
					"name": "",
					"type": "bytes32"
				}
			],
			"stateMutability": "view",
			"type": "function"
		},
		{
			"inputs": [],
			"name": "ROLE_TRANSFERER",
			"outputs": [
				{
					"internalType": "bytes32",
					"name": "",
					"type": "bytes32"
				}
			],
			"stateMutability": "view",
			"type": "function"
		},
		{
			"inputs": [
				{
					"internalType": "address",
					"name": "owner",
					"type": "address"
				},
				{
					"internalType": "address",
					"name": "spender",
					"type": "address"
				}
			],
			"name": "allowance",
			"outputs": [
				{
					"internalType": "uint256",
					"name": "",
					"type": "uint256"
				}
			],
			"stateMutability": "view",
			"type": "function"
		},
		{
			"inputs": [
				{
					"internalType": "address",
					"name": "spender",
					"type": "address"
				},
				{
					"internalType": "uint256",
					"name": "amount",
					"type": "uint256"
				}
			],
			"name": "approve",
			"outputs": [
				{
					"internalType": "bool",
					"name": "",
					"type": "bool"
				}
			],
			"stateMutability": "nonpayable",
			"type": "function"
		},
		{
			"inputs": [
				{
					"internalType": "address",
					"name": "account",
					"type": "address"
				}
			],
			"name": "balanceOf",
			"outputs": [
				{
					"internalType": "uint256",
					"name": "",
					"type": "uint256"
				}
			],
			"stateMutability": "view",
			"type": "function"
		},
		{
			"inputs": [
				{
					"internalType": "address",
					"name": "from",
					"type": "address"
				},
				{
					"internalType": "uint256",
					"name": "desiredAmountToBurn",
					"type": "uint256"
				}
			],
			"name": "burnByBridge",
			"outputs": [],
			"stateMutability": "nonpayable",
			"type": "function"
		},
		{
			"inputs": [
				{
					"internalType": "address",
					"name": "from",
					"type": "address"
				},
				{
					"internalType": "uint256",
					"name": "desiredAmountToBurn",
					"type": "uint256"
				}
			],
			"name": "burnHumanAddress",
			"outputs": [],
			"stateMutability": "nonpayable",
			"type": "function"
		},
		{
			"inputs": [
				{
					"internalType": "address",
					"name": "from",
					"type": "address"
				},
				{
					"internalType": "uint256",
					"name": "amount",
					"type": "uint256"
				}
			],
			"name": "chargeCustomTax",
			"outputs": [],
			"stateMutability": "nonpayable",
			"type": "function"
		},
		{
			"inputs": [
				{
					"internalType": "address[]",
					"name": "referrals",
					"type": "address[]"
				}
			],
			"name": "claimReferrerRewards",
			"outputs": [],
			"stateMutability": "nonpayable",
			"type": "function"
		},
		{
			"inputs": [],
			"name": "decimals",
			"outputs": [
				{
					"internalType": "uint8",
					"name": "",
					"type": "uint8"
				}
			],
			"stateMutability": "view",
			"type": "function"
		},
		{
			"inputs": [
				{
					"internalType": "address",
					"name": "spender",
					"type": "address"
				},
				{
					"internalType": "uint256",
					"name": "subtractedValue",
					"type": "uint256"
				}
			],
			"name": "decreaseAllowance",
			"outputs": [
				{
					"internalType": "bool",
					"name": "",
					"type": "bool"
				}
			],
			"stateMutability": "nonpayable",
			"type": "function"
		},
		{
			"inputs": [
				{
					"internalType": "address[]",
					"name": "referrals",
					"type": "address[]"
				}
			],
			"name": "filterNonZeroReferrals",
			"outputs": [
				{
					"internalType": "address[]",
					"name": "",
					"type": "address[]"
				}
			],
			"stateMutability": "view",
			"type": "function"
		},
		{
			"inputs": [
				{
					"internalType": "address",
					"name": "addr",
					"type": "address"
				}
			],
			"name": "getCachedReferrerRewards",
			"outputs": [
				{
					"internalType": "uint256",
					"name": "",
					"type": "uint256"
				}
			],
			"stateMutability": "view",
			"type": "function"
		},
		{
			"inputs": [
				{
					"internalType": "address",
					"name": "addr",
					"type": "address"
				},
				{
					"internalType": "address[]",
					"name": "referrals",
					"type": "address[]"
				}
			],
			"name": "getCalculatedReferrerRewards",
			"outputs": [
				{
					"internalType": "uint256",
					"name": "",
					"type": "uint256"
				}
			],
			"stateMutability": "view",
			"type": "function"
		},
		{
			"inputs": [],
			"name": "getChainId",
			"outputs": [
				{
					"internalType": "uint256",
					"name": "",
					"type": "uint256"
				}
			],
			"stateMutability": "view",
			"type": "function"
		},
		{
			"inputs": [
				{
					"internalType": "bytes32",
					"name": "role",
					"type": "bytes32"
				}
			],
			"name": "getRoleAdmin",
			"outputs": [
				{
					"internalType": "bytes32",
					"name": "",
					"type": "bytes32"
				}
			],
			"stateMutability": "view",
			"type": "function"
		},
		{
			"inputs": [
				{
					"internalType": "bytes32",
					"name": "role",
					"type": "bytes32"
				},
				{
					"internalType": "uint256",
					"name": "index",
					"type": "uint256"
				}
			],
			"name": "getRoleMember",
			"outputs": [
				{
					"internalType": "address",
					"name": "",
					"type": "address"
				}
			],
			"stateMutability": "view",
			"type": "function"
		},
		{
			"inputs": [
				{
					"internalType": "bytes32",
					"name": "role",
					"type": "bytes32"
				}
			],
			"name": "getRoleMemberCount",
			"outputs": [
				{
					"internalType": "uint256",
					"name": "",
					"type": "uint256"
				}
			],
			"stateMutability": "view",
			"type": "function"
		},
		{
			"inputs": [
				{
					"internalType": "address[]",
					"name": "addrs",
					"type": "address[]"
				}
			],
			"name": "getTemporaryReferralRealAmountsBulk",
			"outputs": [
				{
					"components": [
						{
							"internalType": "address",
							"name": "addr",
							"type": "address"
						},
						{
							"internalType": "uint256",
							"name": "realBalance",
							"type": "uint256"
						}
					],
					"internalType": "struct TemporaryReferralRealAmountsBulk[]",
					"name": "",
					"type": "tuple[]"
				}
			],
			"stateMutability": "view",
			"type": "function"
		},
		{
			"inputs": [
				{
					"internalType": "uint256",
					"name": "pos",
					"type": "uint256"
				}
			],
			"name": "getUtilsContractAtPos",
			"outputs": [
				{
					"internalType": "address",
					"name": "",
					"type": "address"
				}
			],
			"stateMutability": "view",
			"type": "function"
		},
		{
			"inputs": [],
			"name": "getUtilsContractsCount",
			"outputs": [
				{
					"internalType": "uint256",
					"name": "",
					"type": "uint256"
				}
			],
			"stateMutability": "view",
			"type": "function"
		},
		{
			"inputs": [
				{
					"internalType": "bytes32",
					"name": "role",
					"type": "bytes32"
				},
				{
					"internalType": "address",
					"name": "account",
					"type": "address"
				}
			],
			"name": "grantRole",
			"outputs": [],
			"stateMutability": "nonpayable",
			"type": "function"
		},
		{
			"inputs": [
				{
					"components": [
						{
							"internalType": "bytes32",
							"name": "role",
							"type": "bytes32"
						},
						{
							"internalType": "address",
							"name": "addr",
							"type": "address"
						}
					],
					"internalType": "struct RoleAccess[]",
					"name": "roles",
					"type": "tuple[]"
				}
			],
			"name": "grantRolesBulk",
			"outputs": [],
			"stateMutability": "nonpayable",
			"type": "function"
		},
		{
			"inputs": [
				{
					"internalType": "bytes32",
					"name": "role",
					"type": "bytes32"
				},
				{
					"internalType": "address",
					"name": "account",
					"type": "address"
				}
			],
			"name": "hasRole",
			"outputs": [
				{
					"internalType": "bool",
					"name": "",
					"type": "bool"
				}
			],
			"stateMutability": "view",
			"type": "function"
		},
		{
			"inputs": [
				{
					"internalType": "address",
					"name": "spender",
					"type": "address"
				},
				{
					"internalType": "uint256",
					"name": "addedValue",
					"type": "uint256"
				}
			],
			"name": "increaseAllowance",
			"outputs": [
				{
					"internalType": "bool",
					"name": "",
					"type": "bool"
				}
			],
			"stateMutability": "nonpayable",
			"type": "function"
		},
		{
			"inputs": [],
			"name": "isPaused",
			"outputs": [
				{
					"internalType": "bool",
					"name": "",
					"type": "bool"
				}
			],
			"stateMutability": "view",
			"type": "function"
		},
		{
			"inputs": [
				{
					"internalType": "address",
					"name": "to",
					"type": "address"
				},
				{
					"internalType": "uint256",
					"name": "desiredAmountToMint",
					"type": "uint256"
				}
			],
			"name": "mintByBridge",
			"outputs": [],
			"stateMutability": "nonpayable",
			"type": "function"
		},
		{
			"inputs": [
				{
					"internalType": "address",
					"name": "to",
					"type": "address"
				},
				{
					"internalType": "uint256",
					"name": "desiredAmountToMint",
					"type": "uint256"
				}
			],
			"name": "mintHumanAddress",
			"outputs": [],
			"stateMutability": "nonpayable",
			"type": "function"
		},
		{
			"inputs": [
				{
					"internalType": "address",
					"name": "sender",
					"type": "address"
				},
				{
					"internalType": "address",
					"name": "recipient",
					"type": "address"
				},
				{
					"internalType": "uint256",
					"name": "amount",
					"type": "uint256"
				}
			],
			"name": "moderatorTransferFromWhilePaused",
			"outputs": [
				{
					"internalType": "bool",
					"name": "",
					"type": "bool"
				}
			],
			"stateMutability": "nonpayable",
			"type": "function"
		},
		{
			"inputs": [],
			"name": "name",
			"outputs": [
				{
					"internalType": "string",
					"name": "",
					"type": "string"
				}
			],
			"stateMutability": "view",
			"type": "function"
		},
		{
			"inputs": [
				{
					"internalType": "address",
					"name": "owner",
					"type": "address"
				}
			],
			"name": "nonces",
			"outputs": [
				{
					"internalType": "uint256",
					"name": "",
					"type": "uint256"
				}
			],
			"stateMutability": "view",
			"type": "function"
		},
		{
			"inputs": [],
			"name": "pauseContract",
			"outputs": [],
			"stateMutability": "nonpayable",
			"type": "function"
		},
		{
			"inputs": [
				{
					"internalType": "address",
					"name": "owner",
					"type": "address"
				},
				{
					"internalType": "address",
					"name": "spender",
					"type": "address"
				},
				{
					"internalType": "uint256",
					"name": "value",
					"type": "uint256"
				},
				{
					"internalType": "uint256",
					"name": "deadline",
					"type": "uint256"
				},
				{
					"internalType": "uint8",
					"name": "v",
					"type": "uint8"
				},
				{
					"internalType": "bytes32",
					"name": "r",
					"type": "bytes32"
				},
				{
					"internalType": "bytes32",
					"name": "s",
					"type": "bytes32"
				}
			],
			"name": "permit",
			"outputs": [],
			"stateMutability": "nonpayable",
			"type": "function"
		},
		{
			"inputs": [
				{
					"internalType": "address",
					"name": "referrer",
					"type": "address"
				}
			],
			"name": "registerReferral",
			"outputs": [],
			"stateMutability": "nonpayable",
			"type": "function"
		},
		{
			"inputs": [
				{
					"internalType": "bytes32",
					"name": "role",
					"type": "bytes32"
				},
				{
					"internalType": "address",
					"name": "account",
					"type": "address"
				}
			],
			"name": "renounceRole",
			"outputs": [],
			"stateMutability": "nonpayable",
			"type": "function"
		},
		{
			"inputs": [],
			"name": "resumeContract",
			"outputs": [],
			"stateMutability": "nonpayable",
			"type": "function"
		},
		{
			"inputs": [
				{
					"internalType": "bytes32",
					"name": "role",
					"type": "bytes32"
				},
				{
					"internalType": "address",
					"name": "account",
					"type": "address"
				}
			],
			"name": "revokeRole",
			"outputs": [],
			"stateMutability": "nonpayable",
			"type": "function"
		},
		{
			"inputs": [
				{
					"internalType": "bytes4",
					"name": "interfaceId",
					"type": "bytes4"
				}
			],
			"name": "supportsInterface",
			"outputs": [
				{
					"internalType": "bool",
					"name": "",
					"type": "bool"
				}
			],
			"stateMutability": "view",
			"type": "function"
		},
		{
			"inputs": [],
			"name": "symbol",
			"outputs": [
				{
					"internalType": "string",
					"name": "",
					"type": "string"
				}
			],
			"stateMutability": "view",
			"type": "function"
		},
		{
			"inputs": [],
			"name": "totalSupply",
			"outputs": [
				{
					"internalType": "uint256",
					"name": "",
					"type": "uint256"
				}
			],
			"stateMutability": "view",
			"type": "function"
		},
		{
			"inputs": [
				{
					"internalType": "address",
					"name": "recipient",
					"type": "address"
				},
				{
					"internalType": "uint256",
					"name": "amount",
					"type": "uint256"
				}
			],
			"name": "transfer",
			"outputs": [
				{
					"internalType": "bool",
					"name": "",
					"type": "bool"
				}
			],
			"stateMutability": "nonpayable",
			"type": "function"
		},
		{
			"inputs": [
				{
					"internalType": "address",
					"name": "sender",
					"type": "address"
				},
				{
					"internalType": "address",
					"name": "recipient",
					"type": "address"
				},
				{
					"internalType": "uint256",
					"name": "amount",
					"type": "uint256"
				}
			],
			"name": "transferCustom",
			"outputs": [],
			"stateMutability": "nonpayable",
			"type": "function"
		},
		{
			"inputs": [
				{
					"internalType": "address",
					"name": "sender",
					"type": "address"
				},
				{
					"internalType": "address",
					"name": "recipient",
					"type": "address"
				},
				{
					"internalType": "uint256",
					"name": "amount",
					"type": "uint256"
				}
			],
			"name": "transferFrom",
			"outputs": [
				{
					"internalType": "bool",
					"name": "",
					"type": "bool"
				}
			],
			"stateMutability": "nonpayable",
			"type": "function"
		},
		{
			"inputs": [
				{
					"internalType": "address",
					"name": "recipient",
					"type": "address"
				},
				{
					"internalType": "uint256",
					"name": "amount",
					"type": "uint256"
				}
			],
			"name": "transferFromTeamVestingContract",
			"outputs": [],
			"stateMutability": "nonpayable",
			"type": "function"
		},
		{
			"inputs": [
				{
					"internalType": "string",
					"name": "__name",
					"type": "string"
				},
				{
					"internalType": "string",
					"name": "__symbol",
					"type": "string"
				}
			],
			"name": "updateNameAndSymbol",
			"outputs": [],
			"stateMutability": "nonpayable",
			"type": "function"
		},
		{
			"inputs": [
				{
					"components": [
						{
							"internalType": "bool",
							"name": "isMinter",
							"type": "bool"
						},
						{
							"internalType": "bool",
							"name": "isBurner",
							"type": "bool"
						},
						{
							"internalType": "bool",
							"name": "isTransferer",
							"type": "bool"
						},
						{
							"internalType": "bool",
							"name": "isModerator",
							"type": "bool"
						},
						{
							"internalType": "bool",
							"name": "isTaxer",
							"type": "bool"
						},
						{
							"internalType": "address",
							"name": "addr",
							"type": "address"
						}
					],
					"internalType": "struct DefiFactoryToken.AccessSettings[]",
					"name": "accessSettings",
					"type": "tuple[]"
				}
			],
			"name": "updateUtilsContracts",
			"outputs": [],
			"stateMutability": "nonpayable",
			"type": "function"
		}
	]
}