{
	"data": {
		"bytecode": {
			"linkReferences": {},
			"object": "60806040523480156200001157600080fd5b506001600255620000246000336200002a565b6200018f565b6200003682826200003a565b5050565b6200005182826200007d60201b6200214a1760201c565b600082815260016020908152604090912062000078918390620021ce6200011d821b17901c565b505050565b6000828152602081815260408083206001600160a01b038516845290915290205460ff1662000036576000828152602081815260408083206001600160a01b03851684529091529020805460ff19166001179055620000d93390565b6001600160a01b0316816001600160a01b0316837f2f8788117e7eff1d82e926ec794901d17c78024a50270940304540a733656f0d60405160405180910390a45050565b600062000134836001600160a01b0384166200013d565b90505b92915050565b6000818152600183016020526040812054620001865750815460018181018455600084815260208082209093018490558454848252828601909352604090209190915562000137565b50600062000137565b613f11806200019f6000396000f3fe608060405234801561001057600080fd5b50600436106101c45760003560e01c806391d14854116100f9578063d01350bd11610097578063d88d7eba11610071578063d88d7eba14610406578063e07bf7ad14610419578063e40a99a814610436578063ea680f2a1461044957600080fd5b8063d01350bd146103d8578063d391014b146103eb578063d547741f146103f357600080fd5b8063bbadc03b116100d3578063bbadc03b1461037f578063c93c815c1461039f578063ca15c873146103b2578063cd01a60a146103c557600080fd5b806391d14854146103515780639bc731fc14610364578063a465626f1461037757600080fd5b8063370d77d0116101665780636853ac26116101405780636853ac26146103105780638129fc1c1461032357806384d936121461032b5780639010d07c1461033e57600080fd5b8063370d77d0146102bc57806343039b2f146102e75780635e6104b1146102fa57600080fd5b8063186efad9116101a2578063186efad914610242578063248a9ca3146102655780632f2ff15d1461029657806336568abe146102a957600080fd5b806301ffc9a7146101c957806303ed957f1461020257806306fb1a0714610217575b600080fd5b6101ed6101d73660046136cf565b6001600160e01b0319166301ffc9a760e01b1490565b60405190151581526020015b60405180910390f35b6102156102103660046136f9565b61045c565b005b61022a61022536600461376e565b6104d9565b6040516001600160a01b0390911681526020016101f9565b61024a610556565b604080519384526020840192909252908201526060016101f9565b61028861027336600461376e565b60009081526020819052604090206001015490565b6040519081526020016101f9565b6102156102a436600461379c565b6106c1565b6102156102b736600461379c565b6106ec565b6102cf6102ca3660046137fc565b61076f565b6040516001600160701b0390911681526020016101f9565b6102156102f5366004613852565b610848565b610302610d38565b6040516101f99291906138ed565b61028861031e36600461376e565b610f44565b6102156110a5565b61021561033936600461390a565b6112df565b61022a61034c366004613936565b611666565b6101ed61035f36600461379c565b611685565b610215610372366004613958565b6116ae565b6102886116b7565b61039261038d366004613958565b6116d6565b6040516101f99190613975565b6102156103ad366004613984565b6117cc565b6102886103c036600461376e565b611c91565b6102886103d3366004613936565b611ca8565b6103926103e636600461376e565b611d34565b610288600081565b61021561040136600461379c565b611d4f565b6102cf6104143660046137fc565b611d75565b610421611e3d565b604080519283526020830191909152016101f9565b610288610444366004613936565b611fdb565b6102cf6104573660046139c9565b61205b565b600061046881336121e3565b60005b828110156104d3576104c184848381811061048857610488613a32565b905060400201600001358585848181106104a4576104a4613a32565b90506040020160200160208101906104bc9190613958565b612247565b806104cb81613a5e565b91505061046b565b50505050565b6040516306fb1a0760e01b81526004810182905260009073def1fac7bf08f173d286bbbdcbeeade695129840906306fb1a0790602401602060405180830381865afa15801561052c573d6000803e3d6000fd5b505050506040513d601f19601f820116820180604052508101906105509190613a79565b92915050565b6040516370a0823160e01b81523060048201526000908190819073029581a9121998fcbb096ceafa92e3e10057878f906370a0823190602401602060405180830381865afa1580156105ac573d6000803e3d6000fd5b505050506040513d601f19601f820116820180604052508101906105d09190613a96565b6040516370a0823160e01b815230600482015273c7a0e9429bbc262d97f3e87bf38a95cae8b05eda906370a0823190602401602060405180830381865afa15801561061f573d6000803e3d6000fd5b505050506040513d601f19601f820116820180604052508101906106439190613a96565b6040516370a0823160e01b815230600482015273a84d62f776606b9eebd761e2d31f65442ecc437e906370a0823190602401602060405180830381865afa158015610692573d6000803e3d6000fd5b505050506040513d601f19601f820116820180604052508101906106b69190613a96565b925092509250909192565b6000828152602081905260409020600101546106dd81336121e3565b6106e7838361224d565b505050565b6001600160a01b03811633146107615760405162461bcd60e51b815260206004820152602f60248201527f416363657373436f6e74726f6c3a2063616e206f6e6c792072656e6f756e636560448201526e103937b632b9903337b91039b2b63360891b60648201526084015b60405180910390fd5b61076b828261226f565b5050565b60006002805414156107935760405162461bcd60e51b815260040161075890613aaf565b6002805563ffffffff8216428110156107be5760405162461bcd60e51b815260040161075890613ae6565b6001600160a01b03861660009081526004602052604090205486901580159061080457506001600160a01b03811673a84d62f776606b9eebd761e2d31f65442ecc437e14155b6108205760405162461bcd60e51b815260040161075890613b1d565b8661082a81612291565b6108378888886001612396565b600160025598975050505050505050565b60028054141561086a5760405162461bcd60e51b815260040161075890613aaf565b600280556001600160a01b0382166000908152600460205260409020548290158015906108b457506001600160a01b03811673a84d62f776606b9eebd761e2d31f65442ecc437e14155b6108d05760405162461bcd60e51b815260040161075890613b1d565b826108da81612291565b6040516370a0823160e01b815230600482015284906001600160701b038516906000906001600160a01b038416906370a0823190602401602060405180830381865afa15801561092e573d6000803e3d6000fd5b505050506040513d601f19601f820116820180604052508101906109529190613a96565b90506109696001600160a01b03841633308561292e565b6040516370a0823160e01b81523060048201526000906001600160a01b038516906370a0823190602401602060405180830381865afa1580156109b0573d6000803e3d6000fd5b505050506040513d601f19601f820116820180604052508101906109d49190613a96565b90506109e08383613b47565b8110156109ff5760405162461bcd60e51b815260040161075890613b5f565b6001600160a01b0388166000908152600460205260408120546003805491929183908110610a2f57610a2f613a32565b906000526020600020906003020160010160009054906101000a90046001600160701b03166001600160701b031660038381548110610a7057610a70613a32565b6000918252602090912060016003909202010154610aa2906001600160701b03600160701b9091048116908c16613bab565b610aac9190613be0565b604051630bb9ff5d60e01b815290915073a84d62f776606b9eebd761e2d31f65442ecc437e90630bb9ff5d90610ae89030908590600401613bf4565b600060405180830381600087803b158015610b0257600080fd5b505af1158015610b16573d6000803e3d6000fd5b505060405163bd85b03960e01b81526004810185905260009250738e06e97c598b0bb2910df62c626ebf6cd55409e6915063bd85b03990602401602060405180830381865afa158015610b6d573d6000803e3d6000fd5b505050506040513d601f19601f82011682018060405250810190610b919190613a96565b9050600060038481548110610ba857610ba8613a32565b60009182526020909120600160039092020101546001600160701b0390811690610bd59084908e16613bab565b610bdf9190613be0565b60405163fc1ae25560e01b8152909150738e06e97c598b0bb2910df62c626ebf6cd55409e69063fc1ae25590610c1d90339088908690600401613c16565b600060405180830381600087803b158015610c3757600080fd5b505af1158015610c4b573d6000803e3d6000fd5b505050508a60038581548110610c6357610c63613a32565b6000918252602082206001600390920201018054909190610c8e9084906001600160701b0316613c46565b92506101000a8154816001600160701b0302191690836001600160701b031602179055508260038581548110610cc657610cc6613a32565b9060005260206000209060030201600101600e8282829054906101000a90046001600160701b0316610cf89190613c46565b92506101000a8154816001600160701b0302191690836001600160701b03160217905550610d258c612291565b5050600160025550505050505050505050565b610d406135d1565b610d486135d1565b60046020527f674b36ec14ca1343904f60303cfe142028fe384ede1bb8216405c2d715eec2aa5473c7a0e9429bbc262d97f3e87bf38a95cae8b05eda6000527fd4daa411513e44c00cbbdbcd7643e3f083ae7772d91f19e35d6b7f63cf386a45546003805483908110610dbd57610dbd613a32565b906000526020600020906003020160038281548110610dde57610dde613a32565b60009182526020918290206040805160808101825285546001600160a01b0316815260018601546001600160701b0380821696830196909652600160701b900490941684820152805161010081019091526003909202019190839060608301906002830160088282826020028201916000905b82829054906101000a900463ffffffff1663ffffffff1681526020019060040190602082600301049283019260010382029150808411610e51575050509290935250506040805160808101825285546001600160a01b0316815260018601546001600160701b038082166020840152600160701b9091041681830152815161010081019283905294965093859350606085019250906002840190600890826000855b82829054906101000a900463ffffffff1663ffffffff1681526020019060040190602082600301049283019260010382029150808411610ef357905050505050508152505090509350935050509091565b600080610f4f6116b7565b90506000805b6008811015610fe25782811415610f6b57610fd0565b60038581548110610f7e57610f7e613a32565b90600052602060002090600302016002018160088110610fa057610fa0613a32565b600891828204019190066004029054906101000a900463ffffffff1663ffffffff1682610fcd9190613b47565b91505b80610fda81613a5e565b915050610f55565b506000610ff1826103e8613bab565b905060006003868154811061100857611008613a32565b600091825260209091206003909102016001015461103790600160701b90046001600160701b03166002613c71565b611042906096613c71565b6001600160701b0316905080821161105e5761270f945061109c565b81811080156110765750611073816064613bab565b82105b1561108457607b945061109c565b61108f816064613bab565b82111561109c576126ac94505b50505050919050565b60055460ff16156110f85760405162461bcd60e51b815260206004820152601860248201527f4353313a20416c726561647920696e697469616c697a656400000000000000006044820152606401610758565b6005805460ff1916600117905561110d6135ff565b60408051608081018252600080825260208201818152928201818152606083018581526003805460018101825593819052845193027fc2575a0e9e593c00f959f8c92f12db2869c3395a3b0502d05e2516446f71f85b810180546001600160a01b03959095166001600160a01b031990951694909417845594517fc2575a0e9e593c00f959f8c92f12db2869c3395a3b0502d05e2516446f71f85c8601805493516001600160701b03908116600160701b026001600160e01b031990951692169190911792909217909155519192909161120b917fc2575a0e9e593c00f959f8c92f12db2869c3395a3b0502d05e2516446f71f85d0190600861361e565b505060405163fc1ae25560e01b8152738e06e97c598b0bb2910df62c626ebf6cd55409e6915063fc1ae2559061124e9061dead906000906103e890600401613c16565b600060405180830381600087803b15801561126857600080fd5b505af115801561127c573d6000803e3d6000fd5b505050506112b373029581a9121998fcbb096ceafa92e3e10057878f69d3c21bcecceda1000000693f870857a3e0e38000006117cc565b6112dc73c7a0e9429bbc262d97f3e87bf38a95cae8b05eda69d3c21bcecceda1000000806117cc565b50565b6002805414156113015760405162461bcd60e51b815260040161075890613aaf565b600280556001600160a01b03821660009081526004602052604090205482901580159061134b57506001600160a01b03811673a84d62f776606b9eebd761e2d31f65442ecc437e14155b6113675760405162461bcd60e51b815260040161075890613b1d565b8261137181612291565b6001600160a01b038416600090815260046020819052604091829020549151633867477560e11b815233918101919091526024810182905260448101859052738e06e97c598b0bb2910df62c626ebf6cd55409e6906370ce8eea90606401600060405180830381600087803b1580156113e957600080fd5b505af11580156113fd573d6000803e3d6000fd5b505060405163bd85b03960e01b81526004810184905260009250738e06e97c598b0bb2910df62c626ebf6cd55409e6915063bd85b03990602401602060405180830381865afa158015611454573d6000803e3d6000fd5b505050506040513d601f19601f820116820180604052508101906114789190613a96565b9050600081866003858154811061149157611491613a32565b60009182526020909120600160039092020101546114b891906001600160701b0316613bab565b6114c29190613be0565b905060008287600386815481106114db576114db613a32565b60009182526020909120600390910201600101546115099190600160701b90046001600160701b0316613bab565b6115139190613be0565b6040516318a8ad8760e01b815290915073a84d62f776606b9eebd761e2d31f65442ecc437e906318a8ad879061154f9030908590600401613bf4565b600060405180830381600087803b15801561156957600080fd5b505af115801561157d573d6000803e3d6000fd5b50505050816003858154811061159557611595613a32565b60009182526020822060016003909202010180549091906115c09084906001600160701b0316613ca0565b92506101000a8154816001600160701b0302191690836001600160701b0316021790555080600385815481106115f8576115f8613a32565b9060005260206000209060030201600101600e8282829054906101000a90046001600160701b031661162a9190613ca0565b92506101000a8154816001600160701b0302191690836001600160701b0316021790555061165788612291565b50506001600255505050505050565b600082815260016020526040812061167e9083612999565b9392505050565b6000918252602082815260408084206001600160a01b0393909316845291905290205460ff1690565b6112dc81612291565b600060086116c761384042613be0565b6116d19190613cc8565b905090565b6116de6135d1565b6001600160a01b03821660009081526004602052604090205460038054909190811061170c5761170c613a32565b600091825260209182902060408051608081018252600390930290910180546001600160a01b0316835260018101546001600160701b0380821695850195909552600160701b9004909316828201528051610100810190915290919060608301906002830160088282826020028201916000905b82829054906101000a900463ffffffff1663ffffffff16815260200190600401906020826003010492830192600103820291508084116117805790505050505050815250509050919050565b6002805414156117ee5760405162461bcd60e51b815260040161075890613aaf565b600280556001600160a01b038316600090815260046020526040902054839015801561183757506001600160a01b03811673a84d62f776606b9eebd761e2d31f65442ecc437e14155b6118775760405162461bcd60e51b81526020600482015260116024820152704353313a20546f6b656e2065786973747360781b6044820152606401610758565b6040516370a0823160e01b815230600482015284906001600160701b038516906000906001600160a01b038416906370a0823190602401602060405180830381865afa1580156118cb573d6000803e3d6000fd5b505050506040513d601f19601f820116820180604052508101906118ef9190613a96565b90506119066001600160a01b03841633308561292e565b6040516370a0823160e01b81523060048201526000906001600160a01b038516906370a0823190602401602060405180830381865afa15801561194d573d6000803e3d6000fd5b505050506040513d601f19601f820116820180604052508101906119719190613a96565b905061197d8383613b47565b81101561199c5760405162461bcd60e51b815260040161075890613b5f565b604051630bb9ff5d60e01b815273a84d62f776606b9eebd761e2d31f65442ecc437e90630bb9ff5d906119d59030908a90600401613bf4565b600060405180830381600087803b1580156119ef57600080fd5b505af1158015611a03573d6000803e3d6000fd5b50505050611a0f6135ff565b604080516080810182526001600160a01b03808c1682526001600160701b03808c16602084019081528b821694840194855260608401868152600380546001810182556000829052865191027fc2575a0e9e593c00f959f8c92f12db2869c3395a3b0502d05e2516446f71f85b81018054929096166001600160a01b031990921691909117855591517fc2575a0e9e593c00f959f8c92f12db2869c3395a3b0502d05e2516446f71f85c8301805497518516600160701b026001600160e01b0319909816919094161795909517909155925191928392611b13917fc2575a0e9e593c00f959f8c92f12db2869c3395a3b0502d05e2516446f71f85d0190600861361e565b5050600354611b259150600190613cdc565b6001600160a01b038b166000908152600460205260409020555050600354738e06e97c598b0bb2910df62c626ebf6cd55409e69063fc1ae2559061dead90611b6f90600190613cdc565b6103e86040518463ffffffff1660e01b8152600401611b9093929190613c16565b600060405180830381600087803b158015611baa57600080fd5b505af1158015611bbe573d6000803e3d6000fd5b5050505060006103e8611bed886001600160701b03168a6001600160701b0316611be89190613bab565b6129a5565b611bf79190613cdc565b600354909150738e06e97c598b0bb2910df62c626ebf6cd55409e69063fc1ae255903390611c2790600190613cdc565b846040518463ffffffff1660e01b8152600401611c4693929190613c16565b600060405180830381600087803b158015611c6057600080fd5b505af1158015611c74573d6000803e3d6000fd5b50505050611c8189612291565b5050600160025550505050505050565b6000818152600160205260408120610550906129fe565b600061167e8260038581548110611cc157611cc1613a32565b906000526020600020906003020160010160009054906101000a90046001600160701b03166001600160701b031660038681548110611d0257611d02613a32565b6000918252602090912060039091020160010154600160701b90046001600160701b0316611d2f87610f44565b612a08565b611d3c6135d1565b6003828154811061170c5761170c613a32565b600082815260208190526040902060010154611d6b81336121e3565b6106e7838361226f565b6000600280541415611d995760405162461bcd60e51b815260040161075890613aaf565b600280556001600160a01b038516600090815260046020526040902054859015801590611de357506001600160a01b03811673a84d62f776606b9eebd761e2d31f65442ecc437e14155b611dff5760405162461bcd60e51b815260040161075890613b1d565b85611e0981612291565b8363ffffffff1680421115611e305760405162461bcd60e51b815260040161075890613ae6565b6108378888886001612a4f565b60046020527f674b36ec14ca1343904f60303cfe142028fe384ede1bb8216405c2d715eec2aa5473c7a0e9429bbc262d97f3e87bf38a95cae8b05eda60009081527fd4daa411513e44c00cbbdbcd7643e3f083ae7772d91f19e35d6b7f63cf386a455460038054929384939092919083908110611ebc57611ebc613a32565b906000526020600020906003020160010160009054906101000a90046001600160701b03166001600160701b031660038381548110611efd57611efd613a32565b6000918252602090912060039091020160010154611f3390600160701b90046001600160701b0316670de0b6b3a7640000613bab565b611f3d9190613be0565b60038281548110611f5057611f50613a32565b906000526020600020906003020160010160009054906101000a90046001600160701b03166001600160701b031660038381548110611f9157611f91613a32565b6000918252602090912060039091020160010154611fc790600160701b90046001600160701b0316670de0b6b3a7640000613bab565b611fd19190613be0565b9350935050509091565b600061167e8260038581548110611ff457611ff4613a32565b9060005260206000209060030201600101600e9054906101000a90046001600160701b03166001600160701b03166003868154811061203557612035613a32565b60009182526020909120600160039092020101546001600160701b0316611d2f87610f44565b600060028054141561207f5760405162461bcd60e51b815260040161075890613aaf565b6002805563ffffffff8216428110156120aa5760405162461bcd60e51b815260040161075890613ae6565b6001600160a01b0387166000908152600460205260409020548790158015906120f057506001600160a01b03811673a84d62f776606b9eebd761e2d31f65442ecc437e14155b61210c5760405162461bcd60e51b815260040161075890613b1d565b8761211681612291565b60006121258a89600080612396565b905060006121368a838a6000612a4f565b60016002559b9a5050505050505050505050565b6121548282611685565b61076b576000828152602081815260408083206001600160a01b03851684529091529020805460ff1916600117905561218a3390565b6001600160a01b0316816001600160a01b0316837f2f8788117e7eff1d82e926ec794901d17c78024a50270940304540a733656f0d60405160405180910390a45050565b600061167e836001600160a01b038416612e5c565b6121ed8282611685565b61076b57612205816001600160a01b03166014612eab565b612210836020612eab565b604051602001612221929190613d1f565b60408051601f198184030181529082905262461bcd60e51b825261075891600401613d94565b61076b82825b612257828261214a565b60008281526001602052604090206106e790826121ce565b6122798282613047565b60008281526001602052604090206106e790826130ac565b6001600160a01b03811660008181526004602081905260408083205490516370a0823160e01b8152309281019290925292906370a0823190602401602060405180830381865afa1580156122e9573d6000803e3d6000fd5b505050506040513d601f19601f8201168201806040525081019061230d9190613a96565b90506003828154811061232257612322613a32565b60009182526020909120600160039092020101546001600160701b038281169116146106e757806003838154811061235c5761235c613a32565b906000526020600020906003020160010160006101000a8154816001600160701b0302191690836001600160701b03160217905550505050565b6040516370a0823160e01b815230600482015260009085906001600160701b0386169083906001600160a01b038416906370a0823190602401602060405180830381865afa1580156123ec573d6000803e3d6000fd5b505050506040513d601f19601f820116820180604052508101906124109190613a96565b90506124276001600160a01b03841633308561292e565b6040516370a0823160e01b81523060048201526000906001600160a01b038516906370a0823190602401602060405180830381865afa15801561246e573d6000803e3d6000fd5b505050506040513d601f19601f820116820180604052508101906124929190613a96565b905061249e8383613b47565b8110156124bd5760405162461bcd60e51b815260040161075890613b5f565b6001600160a01b03891660009081526004602052604081205460038054919291839081106124ed576124ed613a32565b60009182526020909120600390910201600101546040516370a0823160e01b81523060048201526001600160701b03909116906001600160a01b038d16906370a0823190602401602060405180830381865afa158015612551573d6000803e3d6000fd5b505050506040513d601f19601f820116820180604052508101906125759190613a96565b61257f9190613ca0565b9050600061259683836001600160701b0316611ca8565b9050896001600160701b0316816001600160701b031610156125ca5760405162461bcd60e51b815260040161075890613dc7565b6000600384815481106125df576125df613a32565b9060005260206000209060030201600101600e9054906101000a90046001600160701b03166001600160701b03166003858154811061262057612620613a32565b600091825260209091206001600390920201015461264791906001600160701b0316613bab565b905060006126536116b7565b905060006008612664836001613b47565b61266e9190613cc8565b9050836003878154811061268457612684613a32565b9060005260206000209060030201600101600e8282829054906101000a90046001600160701b03166126b69190613ca0565b92506101000a8154816001600160701b0302191690836001600160701b031602179055508d600387815481106126ee576126ee613a32565b60009182526020822060016003909202010180549091906127199084906001600160701b0316613c46565b92506101000a8154816001600160701b0302191690836001600160701b03160217905550670de0b6b3a7640000846127519190613e15565b6003878154811061276457612764613a32565b9060005260206000209060030201600201836008811061278657612786613a32565b600891828204019190066004028282829054906101000a900463ffffffff166127af9190613e3b565b92506101000a81548163ffffffff021916908363ffffffff1602179055506000600387815481106127e2576127e2613a32565b9060005260206000209060030201600201826008811061280457612804613a32565b600891828204019190066004029054906101000a900463ffffffff1663ffffffff16111561288d5760006003878154811061284157612841613a32565b9060005260206000209060030201600201826008811061286357612863613a32565b600891828204019190066004026101000a81548163ffffffff021916908363ffffffff1602179055505b505089156129135760405163a9059cbb60e01b815273a84d62f776606b9eebd761e2d31f65442ecc437e9063a9059cbb906128ce9033908690600401613bf4565b6020604051808303816000875af11580156128ed573d6000803e3d6000fd5b505050506040513d601f19601f820116820180604052508101906129119190613e5a565b505b61291e848e836130c1565b509b9a5050505050505050505050565b6040516001600160a01b03808516602483015283166044820152606481018290526104d39085906323b872dd60e01b906084015b60408051601f198184030181529190526020810180516001600160e01b03166001600160e01b03199093169290921790915261324a565b600061167e838361331c565b60008060026129b5846001613b47565b6129bf9190613be0565b90508291505b818110156129f8579050806002816129dd8186613be0565b6129e79190613b47565b6129f19190613be0565b90506129c5565b50919050565b6000610550825490565b600080612a158387613bab565b9050600081612a2661271088613bab565b612a309190613b47565b612a3a8387613bab565b612a449190613be0565b979650505050505050565b60008115612ae3576040516323b872dd60e01b81523360048201523060248201526001600160701b038516604482015273a84d62f776606b9eebd761e2d31f65442ecc437e906323b872dd906064016020604051808303816000875af1158015612abd573d6000803e3d6000fd5b505050506040513d601f19601f82011682018060405250810190612ae19190613e5a565b505b6001600160a01b03851660009081526004602052604081205490612b10826001600160701b038816611fdb565b9050846001600160701b0316816001600160701b03161015612b445760405162461bcd60e51b815260040161075890613dc7565b6000612b4e6116b7565b9050600060038481548110612b6557612b65613a32565b506000526008612b736116b7565b612b7e906001613b47565b612b889190613cc8565b9050600060038581548110612b9f57612b9f613a32565b9060005260206000209060030201600101600e9054906101000a90046001600160701b03166001600160701b031660038681548110612be057612be0613a32565b6000918252602090912060016003909202010154612c0791906001600160701b0316613bab565b90508860038681548110612c1d57612c1d613a32565b9060005260206000209060030201600101600e8282829054906101000a90046001600160701b0316612c4f9190613c46565b92506101000a8154816001600160701b0302191690836001600160701b031602179055508360038681548110612c8757612c87613a32565b6000918252602082206001600390920201018054909190612cb29084906001600160701b0316613ca0565b92506101000a8154816001600160701b0302191690836001600160701b03160217905550670de0b6b3a764000089612cea9190613e15565b60038681548110612cfd57612cfd613a32565b90600052602060002090600302016002018460088110612d1f57612d1f613a32565b600891828204019190066004028282829054906101000a900463ffffffff16612d489190613e3b565b92506101000a81548163ffffffff021916908363ffffffff160217905550600060038681548110612d7b57612d7b613a32565b90600052602060002090600302016002018360088110612d9d57612d9d613a32565b600891828204019190066004029054906101000a900463ffffffff1663ffffffff161115612e2657600060038681548110612dda57612dda613a32565b90600052602060002090600302016002018360088110612dfc57612dfc613a32565b600891828204019190066004026101000a81548163ffffffff021916908363ffffffff1602179055505b612e436001600160a01b038b16336001600160701b038716613346565b612e4e858b836130c1565b509198975050505050505050565b6000818152600183016020526040812054612ea357508154600181810184556000848152602080822090930184905584548482528286019093526040902091909155610550565b506000610550565b60606000612eba836002613bab565b612ec5906002613b47565b67ffffffffffffffff811115612edd57612edd613e7c565b6040519080825280601f01601f191660200182016040528015612f07576020820181803683370190505b509050600360fc1b81600081518110612f2257612f22613a32565b60200101906001600160f81b031916908160001a905350600f60fb1b81600181518110612f5157612f51613a32565b60200101906001600160f81b031916908160001a9053506000612f75846002613bab565b612f80906001613b47565b90505b6001811115612ff8576f181899199a1a9b1b9c1cb0b131b232b360811b85600f1660108110612fb457612fb4613a32565b1a60f81b828281518110612fca57612fca613a32565b60200101906001600160f81b031916908160001a90535060049490941c93612ff181613e92565b9050612f83565b50831561167e5760405162461bcd60e51b815260206004820181905260248201527f537472696e67733a20686578206c656e67746820696e73756666696369656e746044820152606401610758565b6130518282611685565b1561076b576000828152602081815260408083206001600160a01b0385168085529252808320805460ff1916905551339285917ff6391f5c32d9c69d2a47ea670b442974b53935d1edc7fd64eb21e047a839171b9190a45050565b600061167e836001600160a01b038416613376565b6040516370a0823160e01b81523060048201526000906001600160a01b038416906370a0823190602401602060405180830381865afa158015613108573d6000803e3d6000fd5b505050506040513d601f19601f8201168201806040525081019061312c9190613a96565b905060006003858154811061314357613143613a32565b6000918252602090912060016003909202010154613175906001600160701b03600160701b9091048116908416613bab565b9050828110156131c05760405162461bcd60e51b815260206004820152601660248201527510d4cc4e8812c81d985b1d5948191958dc99585cd95960521b6044820152606401610758565b600385815481106131d3576131d3613a32565b60009182526020909120600160039092020101546001600160701b0383811691161461324357816003868154811061320d5761320d613a32565b906000526020600020906003020160010160006101000a8154816001600160701b0302191690836001600160701b031602179055505b5050505050565b600061329f826040518060400160405280602081526020017f5361666545524332303a206c6f772d6c6576656c2063616c6c206661696c6564815250856001600160a01b03166134699092919063ffffffff16565b8051909150156106e757808060200190518101906132bd9190613e5a565b6106e75760405162461bcd60e51b815260206004820152602a60248201527f5361666545524332303a204552433230206f7065726174696f6e20646964206e6044820152691bdd081cdd58d8d9595960b21b6064820152608401610758565b600082600001828154811061333357613333613a32565b9060005260206000200154905092915050565b6040516001600160a01b0383166024820152604481018290526106e790849063a9059cbb60e01b90606401612962565b6000818152600183016020526040812054801561345f57600061339a600183613cdc565b85549091506000906133ae90600190613cdc565b90508181146134135760008660000182815481106133ce576133ce613a32565b90600052602060002001549050808760000184815481106133f1576133f1613a32565b6000918252602080832090910192909255918252600188019052604090208390555b855486908061342457613424613ea9565b600190038181906000526020600020016000905590558560010160008681526020019081526020016000206000905560019350505050610550565b6000915050610550565b60606134788484600085613480565b949350505050565b6060824710156134e15760405162461bcd60e51b815260206004820152602660248201527f416464726573733a20696e73756666696369656e742062616c616e636520666f6044820152651c8818d85b1b60d21b6064820152608401610758565b843b61352f5760405162461bcd60e51b815260206004820152601d60248201527f416464726573733a2063616c6c20746f206e6f6e2d636f6e74726163740000006044820152606401610758565b600080866001600160a01b0316858760405161354b9190613ebf565b60006040518083038185875af1925050503d8060008114613588576040519150601f19603f3d011682016040523d82523d6000602084013e61358d565b606091505b5091509150612a44828286606083156135a757508161167e565b8251156135b75782518084602001fd5b8160405162461bcd60e51b81526004016107589190613d94565b6040805160808101825260008082526020820181905291810191909152606081016135fa6135ff565b905290565b6040518061010001604052806008906020820280368337509192915050565b6001830191839082156136aa5791602002820160005b8382111561367857835183826101000a81548163ffffffff021916908363ffffffff1602179055509260200192600401602081600301049283019260010302613634565b80156136a85782816101000a81549063ffffffff0219169055600401602081600301049283019260010302613678565b505b506136b69291506136ba565b5090565b5b808211156136b657600081556001016136bb565b6000602082840312156136e157600080fd5b81356001600160e01b03198116811461167e57600080fd5b6000806020838503121561370c57600080fd5b823567ffffffffffffffff8082111561372457600080fd5b818501915085601f83011261373857600080fd5b81358181111561374757600080fd5b8660208260061b850101111561375c57600080fd5b60209290920196919550909350505050565b60006020828403121561378057600080fd5b5035919050565b6001600160a01b03811681146112dc57600080fd5b600080604083850312156137af57600080fd5b8235915060208301356137c181613787565b809150509250929050565b80356001600160701b03811681146137e357600080fd5b919050565b803563ffffffff811681146137e357600080fd5b6000806000806080858703121561381257600080fd5b843561381d81613787565b935061382b602086016137cc565b9250613839604086016137cc565b9150613847606086016137e8565b905092959194509250565b6000806040838503121561386557600080fd5b823561387081613787565b915061387e602084016137cc565b90509250929050565b80516001600160a01b031682526020808201516001600160701b03908116828501526040808401519091169084015260608083015190840160005b60088110156138e557825163ffffffff16825291830191908301906001016138c2565b505050505050565b6102c081016138fc8285613887565b61167e610160830184613887565b6000806040838503121561391d57600080fd5b823561392881613787565b946020939093013593505050565b6000806040838503121561394957600080fd5b50508035926020909101359150565b60006020828403121561396a57600080fd5b813561167e81613787565b61016081016105508284613887565b60008060006060848603121561399957600080fd5b83356139a481613787565b92506139b2602085016137cc565b91506139c0604085016137cc565b90509250925092565b600080600080600060a086880312156139e157600080fd5b85356139ec81613787565b945060208601356139fc81613787565b9350613a0a604087016137cc565b9250613a18606087016137cc565b9150613a26608087016137e8565b90509295509295909350565b634e487b7160e01b600052603260045260246000fd5b634e487b7160e01b600052601160045260246000fd5b6000600019821415613a7257613a72613a48565b5060010190565b600060208284031215613a8b57600080fd5b815161167e81613787565b600060208284031215613aa857600080fd5b5051919050565b6020808252601f908201527f5265656e7472616e637947756172643a207265656e7472616e742063616c6c00604082015260600190565b6020808252601b908201527f4353313a205472616e73616374696f6e20697320657870697265640000000000604082015260600190565b60208082526010908201526f21a9989d102bb937b733903a37b5b2b760811b604082015260600190565b60008219821115613b5a57613b5a613a48565b500190565b6020808252602c908201527f4353313a204665652d6f6e2d7472616e7366657220746f6b656e73206172656e60408201526b09dd081cdd5c1c1bdc9d195960a21b606082015260800190565b6000816000190483118215151615613bc557613bc5613a48565b500290565b634e487b7160e01b600052601260045260246000fd5b600082613bef57613bef613bca565b500490565b6001600160a01b039290921682526001600160701b0316602082015260400190565b6001600160a01b039390931683526020830191909152604082015260806060820181905260009082015260a00190565b60006001600160701b03808316818516808303821115613c6857613c68613a48565b01949350505050565b60006001600160701b0380831681851681830481118215151615613c9757613c97613a48565b02949350505050565b60006001600160701b0383811690831681811015613cc057613cc0613a48565b039392505050565b600082613cd757613cd7613bca565b500690565b600082821015613cee57613cee613a48565b500390565b60005b83811015613d0e578181015183820152602001613cf6565b838111156104d35750506000910152565b7f416363657373436f6e74726f6c3a206163636f756e7420000000000000000000815260008351613d57816017850160208801613cf3565b7001034b99036b4b9b9b4b733903937b6329607d1b6017918401918201528351613d88816028840160208801613cf3565b01602801949350505050565b6020815260008251806020840152613db3816040850160208701613cf3565b601f01601f19169190910160400192915050565b6020808252602e908201527f4353313a204f757470757420616d6f756e74206c657373207468616e206d696e60408201526d1a5b5d5b481cdc1958da599a595960921b606082015260800190565b60006001600160701b0380841680613e2f57613e2f613bca565b92169190910492915050565b600063ffffffff808316818516808303821115613c6857613c68613a48565b600060208284031215613e6c57600080fd5b8151801515811461167e57600080fd5b634e487b7160e01b600052604160045260246000fd5b600081613ea157613ea1613a48565b506000190190565b634e487b7160e01b600052603160045260246000fd5b60008251613ed1818460208701613cf3565b919091019291505056fea2646970667358221220898411db358304b29e521b9421617551c5a1c13535f38e7aa49d831dd78186c364736f6c634300080b0033",
			"opcodes": "PUSH1 0x80 PUSH1 0x40 MSTORE CALLVALUE DUP1 ISZERO PUSH3 0x11 JUMPI PUSH1 0x0 DUP1 REVERT JUMPDEST POP PUSH1 0x1 PUSH1 0x2 SSTORE PUSH3 0x24 PUSH1 0x0 CALLER PUSH3 0x2A JUMP JUMPDEST PUSH3 0x18F JUMP JUMPDEST PUSH3 0x36 DUP3 DUP3 PUSH3 0x3A JUMP JUMPDEST POP POP JUMP JUMPDEST PUSH3 0x51 DUP3 DUP3 PUSH3 0x7D PUSH1 0x20 SHL PUSH3 0x214A OR PUSH1 0x20 SHR JUMP JUMPDEST PUSH1 0x0 DUP3 DUP2 MSTORE PUSH1 0x1 PUSH1 0x20 SWAP1 DUP2 MSTORE PUSH1 0x40 SWAP1 SWAP2 KECCAK256 PUSH3 0x78 SWAP2 DUP4 SWAP1 PUSH3 0x21CE PUSH3 0x11D DUP3 SHL OR SWAP1 SHR JUMP JUMPDEST POP POP POP JUMP JUMPDEST PUSH1 0x0 DUP3 DUP2 MSTORE PUSH1 0x20 DUP2 DUP2 MSTORE PUSH1 0x40 DUP1 DUP4 KECCAK256 PUSH1 0x1 PUSH1 0x1 PUSH1 0xA0 SHL SUB DUP6 AND DUP5 MSTORE SWAP1 SWAP2 MSTORE SWAP1 KECCAK256 SLOAD PUSH1 0xFF AND PUSH3 0x36 JUMPI PUSH1 0x0 DUP3 DUP2 MSTORE PUSH1 0x20 DUP2 DUP2 MSTORE PUSH1 0x40 DUP1 DUP4 KECCAK256 PUSH1 0x1 PUSH1 0x1 PUSH1 0xA0 SHL SUB DUP6 AND DUP5 MSTORE SWAP1 SWAP2 MSTORE SWAP1 KECCAK256 DUP1 SLOAD PUSH1 0xFF NOT AND PUSH1 0x1 OR SWAP1 SSTORE PUSH3 0xD9 CALLER SWAP1 JUMP JUMPDEST PUSH1 0x1 PUSH1 0x1 PUSH1 0xA0 SHL SUB AND DUP2 PUSH1 0x1 PUSH1 0x1 PUSH1 0xA0 SHL SUB AND DUP4 PUSH32 0x2F8788117E7EFF1D82E926EC794901D17C78024A50270940304540A733656F0D PUSH1 0x40 MLOAD PUSH1 0x40 MLOAD DUP1 SWAP2 SUB SWAP1 LOG4 POP POP JUMP JUMPDEST PUSH1 0x0 PUSH3 0x134 DUP4 PUSH1 0x1 PUSH1 0x1 PUSH1 0xA0 SHL SUB DUP5 AND PUSH3 0x13D JUMP JUMPDEST SWAP1 POP JUMPDEST SWAP3 SWAP2 POP POP JUMP JUMPDEST PUSH1 0x0 DUP2 DUP2 MSTORE PUSH1 0x1 DUP4 ADD PUSH1 0x20 MSTORE PUSH1 0x40 DUP2 KECCAK256 SLOAD PUSH3 0x186 JUMPI POP DUP2 SLOAD PUSH1 0x1 DUP2 DUP2 ADD DUP5 SSTORE PUSH1 0x0 DUP5 DUP2 MSTORE PUSH1 0x20 DUP1 DUP3 KECCAK256 SWAP1 SWAP4 ADD DUP5 SWAP1 SSTORE DUP5 SLOAD DUP5 DUP3 MSTORE DUP3 DUP7 ADD SWAP1 SWAP4 MSTORE PUSH1 0x40 SWAP1 KECCAK256 SWAP2 SWAP1 SWAP2 SSTORE PUSH3 0x137 JUMP JUMPDEST POP PUSH1 0x0 PUSH3 0x137 JUMP JUMPDEST PUSH2 0x3F11 DUP1 PUSH3 0x19F PUSH1 0x0 CODECOPY PUSH1 0x0 RETURN INVALID PUSH1 0x80 PUSH1 0x40 MSTORE CALLVALUE DUP1 ISZERO PUSH2 0x10 JUMPI PUSH1 0x0 DUP1 REVERT JUMPDEST POP PUSH1 0x4 CALLDATASIZE LT PUSH2 0x1C4 JUMPI PUSH1 0x0 CALLDATALOAD PUSH1 0xE0 SHR DUP1 PUSH4 0x91D14854 GT PUSH2 0xF9 JUMPI DUP1 PUSH4 0xD01350BD GT PUSH2 0x97 JUMPI DUP1 PUSH4 0xD88D7EBA GT PUSH2 0x71 JUMPI DUP1 PUSH4 0xD88D7EBA EQ PUSH2 0x406 JUMPI DUP1 PUSH4 0xE07BF7AD EQ PUSH2 0x419 JUMPI DUP1 PUSH4 0xE40A99A8 EQ PUSH2 0x436 JUMPI DUP1 PUSH4 0xEA680F2A EQ PUSH2 0x449 JUMPI PUSH1 0x0 DUP1 REVERT JUMPDEST DUP1 PUSH4 0xD01350BD EQ PUSH2 0x3D8 JUMPI DUP1 PUSH4 0xD391014B EQ PUSH2 0x3EB JUMPI DUP1 PUSH4 0xD547741F EQ PUSH2 0x3F3 JUMPI PUSH1 0x0 DUP1 REVERT JUMPDEST DUP1 PUSH4 0xBBADC03B GT PUSH2 0xD3 JUMPI DUP1 PUSH4 0xBBADC03B EQ PUSH2 0x37F JUMPI DUP1 PUSH4 0xC93C815C EQ PUSH2 0x39F JUMPI DUP1 PUSH4 0xCA15C873 EQ PUSH2 0x3B2 JUMPI DUP1 PUSH4 0xCD01A60A EQ PUSH2 0x3C5 JUMPI PUSH1 0x0 DUP1 REVERT JUMPDEST DUP1 PUSH4 0x91D14854 EQ PUSH2 0x351 JUMPI DUP1 PUSH4 0x9BC731FC EQ PUSH2 0x364 JUMPI DUP1 PUSH4 0xA465626F EQ PUSH2 0x377 JUMPI PUSH1 0x0 DUP1 REVERT JUMPDEST DUP1 PUSH4 0x370D77D0 GT PUSH2 0x166 JUMPI DUP1 PUSH4 0x6853AC26 GT PUSH2 0x140 JUMPI DUP1 PUSH4 0x6853AC26 EQ PUSH2 0x310 JUMPI DUP1 PUSH4 0x8129FC1C EQ PUSH2 0x323 JUMPI DUP1 PUSH4 0x84D93612 EQ PUSH2 0x32B JUMPI DUP1 PUSH4 0x9010D07C EQ PUSH2 0x33E JUMPI PUSH1 0x0 DUP1 REVERT JUMPDEST DUP1 PUSH4 0x370D77D0 EQ PUSH2 0x2BC JUMPI DUP1 PUSH4 0x43039B2F EQ PUSH2 0x2E7 JUMPI DUP1 PUSH4 0x5E6104B1 EQ PUSH2 0x2FA JUMPI PUSH1 0x0 DUP1 REVERT JUMPDEST DUP1 PUSH4 0x186EFAD9 GT PUSH2 0x1A2 JUMPI DUP1 PUSH4 0x186EFAD9 EQ PUSH2 0x242 JUMPI DUP1 PUSH4 0x248A9CA3 EQ PUSH2 0x265 JUMPI DUP1 PUSH4 0x2F2FF15D EQ PUSH2 0x296 JUMPI DUP1 PUSH4 0x36568ABE EQ PUSH2 0x2A9 JUMPI PUSH1 0x0 DUP1 REVERT JUMPDEST DUP1 PUSH4 0x1FFC9A7 EQ PUSH2 0x1C9 JUMPI DUP1 PUSH4 0x3ED957F EQ PUSH2 0x202 JUMPI DUP1 PUSH4 0x6FB1A07 EQ PUSH2 0x217 JUMPI JUMPDEST PUSH1 0x0 DUP1 REVERT JUMPDEST PUSH2 0x1ED PUSH2 0x1D7 CALLDATASIZE PUSH1 0x4 PUSH2 0x36CF JUMP JUMPDEST PUSH1 0x1 PUSH1 0x1 PUSH1 0xE0 SHL SUB NOT AND PUSH4 0x1FFC9A7 PUSH1 0xE0 SHL EQ SWAP1 JUMP JUMPDEST PUSH1 0x40 MLOAD SWAP1 ISZERO ISZERO DUP2 MSTORE PUSH1 0x20 ADD JUMPDEST PUSH1 0x40 MLOAD DUP1 SWAP2 SUB SWAP1 RETURN JUMPDEST PUSH2 0x215 PUSH2 0x210 CALLDATASIZE PUSH1 0x4 PUSH2 0x36F9 JUMP JUMPDEST PUSH2 0x45C JUMP JUMPDEST STOP JUMPDEST PUSH2 0x22A PUSH2 0x225 CALLDATASIZE PUSH1 0x4 PUSH2 0x376E JUMP JUMPDEST PUSH2 0x4D9 JUMP JUMPDEST PUSH1 0x40 MLOAD PUSH1 0x1 PUSH1 0x1 PUSH1 0xA0 SHL SUB SWAP1 SWAP2 AND DUP2 MSTORE PUSH1 0x20 ADD PUSH2 0x1F9 JUMP JUMPDEST PUSH2 0x24A PUSH2 0x556 JUMP JUMPDEST PUSH1 0x40 DUP1 MLOAD SWAP4 DUP5 MSTORE PUSH1 0x20 DUP5 ADD SWAP3 SWAP1 SWAP3 MSTORE SWAP1 DUP3 ADD MSTORE PUSH1 0x60 ADD PUSH2 0x1F9 JUMP JUMPDEST PUSH2 0x288 PUSH2 0x273 CALLDATASIZE PUSH1 0x4 PUSH2 0x376E JUMP JUMPDEST PUSH1 0x0 SWAP1 DUP2 MSTORE PUSH1 0x20 DUP2 SWAP1 MSTORE PUSH1 0x40 SWAP1 KECCAK256 PUSH1 0x1 ADD SLOAD SWAP1 JUMP JUMPDEST PUSH1 0x40 MLOAD SWAP1 DUP2 MSTORE PUSH1 0x20 ADD PUSH2 0x1F9 JUMP JUMPDEST PUSH2 0x215 PUSH2 0x2A4 CALLDATASIZE PUSH1 0x4 PUSH2 0x379C JUMP JUMPDEST PUSH2 0x6C1 JUMP JUMPDEST PUSH2 0x215 PUSH2 0x2B7 CALLDATASIZE PUSH1 0x4 PUSH2 0x379C JUMP JUMPDEST PUSH2 0x6EC JUMP JUMPDEST PUSH2 0x2CF PUSH2 0x2CA CALLDATASIZE PUSH1 0x4 PUSH2 0x37FC JUMP JUMPDEST PUSH2 0x76F JUMP JUMPDEST PUSH1 0x40 MLOAD PUSH1 0x1 PUSH1 0x1 PUSH1 0x70 SHL SUB SWAP1 SWAP2 AND DUP2 MSTORE PUSH1 0x20 ADD PUSH2 0x1F9 JUMP JUMPDEST PUSH2 0x215 PUSH2 0x2F5 CALLDATASIZE PUSH1 0x4 PUSH2 0x3852 JUMP JUMPDEST PUSH2 0x848 JUMP JUMPDEST PUSH2 0x302 PUSH2 0xD38 JUMP JUMPDEST PUSH1 0x40 MLOAD PUSH2 0x1F9 SWAP3 SWAP2 SWAP1 PUSH2 0x38ED JUMP JUMPDEST PUSH2 0x288 PUSH2 0x31E CALLDATASIZE PUSH1 0x4 PUSH2 0x376E JUMP JUMPDEST PUSH2 0xF44 JUMP JUMPDEST PUSH2 0x215 PUSH2 0x10A5 JUMP JUMPDEST PUSH2 0x215 PUSH2 0x339 CALLDATASIZE PUSH1 0x4 PUSH2 0x390A JUMP JUMPDEST PUSH2 0x12DF JUMP JUMPDEST PUSH2 0x22A PUSH2 0x34C CALLDATASIZE PUSH1 0x4 PUSH2 0x3936 JUMP JUMPDEST PUSH2 0x1666 JUMP JUMPDEST PUSH2 0x1ED PUSH2 0x35F CALLDATASIZE PUSH1 0x4 PUSH2 0x379C JUMP JUMPDEST PUSH2 0x1685 JUMP JUMPDEST PUSH2 0x215 PUSH2 0x372 CALLDATASIZE PUSH1 0x4 PUSH2 0x3958 JUMP JUMPDEST PUSH2 0x16AE JUMP JUMPDEST PUSH2 0x288 PUSH2 0x16B7 JUMP JUMPDEST PUSH2 0x392 PUSH2 0x38D CALLDATASIZE PUSH1 0x4 PUSH2 0x3958 JUMP JUMPDEST PUSH2 0x16D6 JUMP JUMPDEST PUSH1 0x40 MLOAD PUSH2 0x1F9 SWAP2 SWAP1 PUSH2 0x3975 JUMP JUMPDEST PUSH2 0x215 PUSH2 0x3AD CALLDATASIZE PUSH1 0x4 PUSH2 0x3984 JUMP JUMPDEST PUSH2 0x17CC JUMP JUMPDEST PUSH2 0x288 PUSH2 0x3C0 CALLDATASIZE PUSH1 0x4 PUSH2 0x376E JUMP JUMPDEST PUSH2 0x1C91 JUMP JUMPDEST PUSH2 0x288 PUSH2 0x3D3 CALLDATASIZE PUSH1 0x4 PUSH2 0x3936 JUMP JUMPDEST PUSH2 0x1CA8 JUMP JUMPDEST PUSH2 0x392 PUSH2 0x3E6 CALLDATASIZE PUSH1 0x4 PUSH2 0x376E JUMP JUMPDEST PUSH2 0x1D34 JUMP JUMPDEST PUSH2 0x288 PUSH1 0x0 DUP2 JUMP JUMPDEST PUSH2 0x215 PUSH2 0x401 CALLDATASIZE PUSH1 0x4 PUSH2 0x379C JUMP JUMPDEST PUSH2 0x1D4F JUMP JUMPDEST PUSH2 0x2CF PUSH2 0x414 CALLDATASIZE PUSH1 0x4 PUSH2 0x37FC JUMP JUMPDEST PUSH2 0x1D75 JUMP JUMPDEST PUSH2 0x421 PUSH2 0x1E3D JUMP JUMPDEST PUSH1 0x40 DUP1 MLOAD SWAP3 DUP4 MSTORE PUSH1 0x20 DUP4 ADD SWAP2 SWAP1 SWAP2 MSTORE ADD PUSH2 0x1F9 JUMP JUMPDEST PUSH2 0x288 PUSH2 0x444 CALLDATASIZE PUSH1 0x4 PUSH2 0x3936 JUMP JUMPDEST PUSH2 0x1FDB JUMP JUMPDEST PUSH2 0x2CF PUSH2 0x457 CALLDATASIZE PUSH1 0x4 PUSH2 0x39C9 JUMP JUMPDEST PUSH2 0x205B JUMP JUMPDEST PUSH1 0x0 PUSH2 0x468 DUP2 CALLER PUSH2 0x21E3 JUMP JUMPDEST PUSH1 0x0 JUMPDEST DUP3 DUP2 LT ISZERO PUSH2 0x4D3 JUMPI PUSH2 0x4C1 DUP5 DUP5 DUP4 DUP2 DUP2 LT PUSH2 0x488 JUMPI PUSH2 0x488 PUSH2 0x3A32 JUMP JUMPDEST SWAP1 POP PUSH1 0x40 MUL ADD PUSH1 0x0 ADD CALLDATALOAD DUP6 DUP6 DUP5 DUP2 DUP2 LT PUSH2 0x4A4 JUMPI PUSH2 0x4A4 PUSH2 0x3A32 JUMP JUMPDEST SWAP1 POP PUSH1 0x40 MUL ADD PUSH1 0x20 ADD PUSH1 0x20 DUP2 ADD SWAP1 PUSH2 0x4BC SWAP2 SWAP1 PUSH2 0x3958 JUMP JUMPDEST PUSH2 0x2247 JUMP JUMPDEST DUP1 PUSH2 0x4CB DUP2 PUSH2 0x3A5E JUMP JUMPDEST SWAP2 POP POP PUSH2 0x46B JUMP JUMPDEST POP POP POP POP JUMP JUMPDEST PUSH1 0x40 MLOAD PUSH4 0x6FB1A07 PUSH1 0xE0 SHL DUP2 MSTORE PUSH1 0x4 DUP2 ADD DUP3 SWAP1 MSTORE PUSH1 0x0 SWAP1 PUSH20 0xDEF1FAC7BF08F173D286BBBDCBEEADE695129840 SWAP1 PUSH4 0x6FB1A07 SWAP1 PUSH1 0x24 ADD PUSH1 0x20 PUSH1 0x40 MLOAD DUP1 DUP4 SUB DUP2 DUP7 GAS STATICCALL ISZERO DUP1 ISZERO PUSH2 0x52C JUMPI RETURNDATASIZE PUSH1 0x0 DUP1 RETURNDATACOPY RETURNDATASIZE PUSH1 0x0 REVERT JUMPDEST POP POP POP POP PUSH1 0x40 MLOAD RETURNDATASIZE PUSH1 0x1F NOT PUSH1 0x1F DUP3 ADD AND DUP3 ADD DUP1 PUSH1 0x40 MSTORE POP DUP2 ADD SWAP1 PUSH2 0x550 SWAP2 SWAP1 PUSH2 0x3A79 JUMP JUMPDEST SWAP3 SWAP2 POP POP JUMP JUMPDEST PUSH1 0x40 MLOAD PUSH4 0x70A08231 PUSH1 0xE0 SHL DUP2 MSTORE ADDRESS PUSH1 0x4 DUP3 ADD MSTORE PUSH1 0x0 SWAP1 DUP2 SWAP1 DUP2 SWAP1 PUSH20 0x29581A9121998FCBB096CEAFA92E3E10057878F SWAP1 PUSH4 0x70A08231 SWAP1 PUSH1 0x24 ADD PUSH1 0x20 PUSH1 0x40 MLOAD DUP1 DUP4 SUB DUP2 DUP7 GAS STATICCALL ISZERO DUP1 ISZERO PUSH2 0x5AC JUMPI RETURNDATASIZE PUSH1 0x0 DUP1 RETURNDATACOPY RETURNDATASIZE PUSH1 0x0 REVERT JUMPDEST POP POP POP POP PUSH1 0x40 MLOAD RETURNDATASIZE PUSH1 0x1F NOT PUSH1 0x1F DUP3 ADD AND DUP3 ADD DUP1 PUSH1 0x40 MSTORE POP DUP2 ADD SWAP1 PUSH2 0x5D0 SWAP2 SWAP1 PUSH2 0x3A96 JUMP JUMPDEST PUSH1 0x40 MLOAD PUSH4 0x70A08231 PUSH1 0xE0 SHL DUP2 MSTORE ADDRESS PUSH1 0x4 DUP3 ADD MSTORE PUSH20 0xC7A0E9429BBC262D97F3E87BF38A95CAE8B05EDA SWAP1 PUSH4 0x70A08231 SWAP1 PUSH1 0x24 ADD PUSH1 0x20 PUSH1 0x40 MLOAD DUP1 DUP4 SUB DUP2 DUP7 GAS STATICCALL ISZERO DUP1 ISZERO PUSH2 0x61F JUMPI RETURNDATASIZE PUSH1 0x0 DUP1 RETURNDATACOPY RETURNDATASIZE PUSH1 0x0 REVERT JUMPDEST POP POP POP POP PUSH1 0x40 MLOAD RETURNDATASIZE PUSH1 0x1F NOT PUSH1 0x1F DUP3 ADD AND DUP3 ADD DUP1 PUSH1 0x40 MSTORE POP DUP2 ADD SWAP1 PUSH2 0x643 SWAP2 SWAP1 PUSH2 0x3A96 JUMP JUMPDEST PUSH1 0x40 MLOAD PUSH4 0x70A08231 PUSH1 0xE0 SHL DUP2 MSTORE ADDRESS PUSH1 0x4 DUP3 ADD MSTORE PUSH20 0xA84D62F776606B9EEBD761E2D31F65442ECC437E SWAP1 PUSH4 0x70A08231 SWAP1 PUSH1 0x24 ADD PUSH1 0x20 PUSH1 0x40 MLOAD DUP1 DUP4 SUB DUP2 DUP7 GAS STATICCALL ISZERO DUP1 ISZERO PUSH2 0x692 JUMPI RETURNDATASIZE PUSH1 0x0 DUP1 RETURNDATACOPY RETURNDATASIZE PUSH1 0x0 REVERT JUMPDEST POP POP POP POP PUSH1 0x40 MLOAD RETURNDATASIZE PUSH1 0x1F NOT PUSH1 0x1F DUP3 ADD AND DUP3 ADD DUP1 PUSH1 0x40 MSTORE POP DUP2 ADD SWAP1 PUSH2 0x6B6 SWAP2 SWAP1 PUSH2 0x3A96 JUMP JUMPDEST SWAP3 POP SWAP3 POP SWAP3 POP SWAP1 SWAP2 SWAP3 JUMP JUMPDEST PUSH1 0x0 DUP3 DUP2 MSTORE PUSH1 0x20 DUP2 SWAP1 MSTORE PUSH1 0x40 SWAP1 KECCAK256 PUSH1 0x1 ADD SLOAD PUSH2 0x6DD DUP2 CALLER PUSH2 0x21E3 JUMP JUMPDEST PUSH2 0x6E7 DUP4 DUP4 PUSH2 0x224D JUMP JUMPDEST POP POP POP JUMP JUMPDEST PUSH1 0x1 PUSH1 0x1 PUSH1 0xA0 SHL SUB DUP2 AND CALLER EQ PUSH2 0x761 JUMPI PUSH1 0x40 MLOAD PUSH3 0x461BCD PUSH1 0xE5 SHL DUP2 MSTORE PUSH1 0x20 PUSH1 0x4 DUP3 ADD MSTORE PUSH1 0x2F PUSH1 0x24 DUP3 ADD MSTORE PUSH32 0x416363657373436F6E74726F6C3A2063616E206F6E6C792072656E6F756E6365 PUSH1 0x44 DUP3 ADD MSTORE PUSH15 0x103937B632B9903337B91039B2B633 PUSH1 0x89 SHL PUSH1 0x64 DUP3 ADD MSTORE PUSH1 0x84 ADD JUMPDEST PUSH1 0x40 MLOAD DUP1 SWAP2 SUB SWAP1 REVERT JUMPDEST PUSH2 0x76B DUP3 DUP3 PUSH2 0x226F JUMP JUMPDEST POP POP JUMP JUMPDEST PUSH1 0x0 PUSH1 0x2 DUP1 SLOAD EQ ISZERO PUSH2 0x793 JUMPI PUSH1 0x40 MLOAD PUSH3 0x461BCD PUSH1 0xE5 SHL DUP2 MSTORE PUSH1 0x4 ADD PUSH2 0x758 SWAP1 PUSH2 0x3AAF JUMP JUMPDEST PUSH1 0x2 DUP1 SSTORE PUSH4 0xFFFFFFFF DUP3 AND TIMESTAMP DUP2 LT ISZERO PUSH2 0x7BE JUMPI PUSH1 0x40 MLOAD PUSH3 0x461BCD PUSH1 0xE5 SHL DUP2 MSTORE PUSH1 0x4 ADD PUSH2 0x758 SWAP1 PUSH2 0x3AE6 JUMP JUMPDEST PUSH1 0x1 PUSH1 0x1 PUSH1 0xA0 SHL SUB DUP7 AND PUSH1 0x0 SWAP1 DUP2 MSTORE PUSH1 0x4 PUSH1 0x20 MSTORE PUSH1 0x40 SWAP1 KECCAK256 SLOAD DUP7 SWAP1 ISZERO DUP1 ISZERO SWAP1 PUSH2 0x804 JUMPI POP PUSH1 0x1 PUSH1 0x1 PUSH1 0xA0 SHL SUB DUP2 AND PUSH20 0xA84D62F776606B9EEBD761E2D31F65442ECC437E EQ ISZERO JUMPDEST PUSH2 0x820 JUMPI PUSH1 0x40 MLOAD PUSH3 0x461BCD PUSH1 0xE5 SHL DUP2 MSTORE PUSH1 0x4 ADD PUSH2 0x758 SWAP1 PUSH2 0x3B1D JUMP JUMPDEST DUP7 PUSH2 0x82A DUP2 PUSH2 0x2291 JUMP JUMPDEST PUSH2 0x837 DUP9 DUP9 DUP9 PUSH1 0x1 PUSH2 0x2396 JUMP JUMPDEST PUSH1 0x1 PUSH1 0x2 SSTORE SWAP9 SWAP8 POP POP POP POP POP POP POP POP JUMP JUMPDEST PUSH1 0x2 DUP1 SLOAD EQ ISZERO PUSH2 0x86A JUMPI PUSH1 0x40 MLOAD PUSH3 0x461BCD PUSH1 0xE5 SHL DUP2 MSTORE PUSH1 0x4 ADD PUSH2 0x758 SWAP1 PUSH2 0x3AAF JUMP JUMPDEST PUSH1 0x2 DUP1 SSTORE PUSH1 0x1 PUSH1 0x1 PUSH1 0xA0 SHL SUB DUP3 AND PUSH1 0x0 SWAP1 DUP2 MSTORE PUSH1 0x4 PUSH1 0x20 MSTORE PUSH1 0x40 SWAP1 KECCAK256 SLOAD DUP3 SWAP1 ISZERO DUP1 ISZERO SWAP1 PUSH2 0x8B4 JUMPI POP PUSH1 0x1 PUSH1 0x1 PUSH1 0xA0 SHL SUB DUP2 AND PUSH20 0xA84D62F776606B9EEBD761E2D31F65442ECC437E EQ ISZERO JUMPDEST PUSH2 0x8D0 JUMPI PUSH1 0x40 MLOAD PUSH3 0x461BCD PUSH1 0xE5 SHL DUP2 MSTORE PUSH1 0x4 ADD PUSH2 0x758 SWAP1 PUSH2 0x3B1D JUMP JUMPDEST DUP3 PUSH2 0x8DA DUP2 PUSH2 0x2291 JUMP JUMPDEST PUSH1 0x40 MLOAD PUSH4 0x70A08231 PUSH1 0xE0 SHL DUP2 MSTORE ADDRESS PUSH1 0x4 DUP3 ADD MSTORE DUP5 SWAP1 PUSH1 0x1 PUSH1 0x1 PUSH1 0x70 SHL SUB DUP6 AND SWAP1 PUSH1 0x0 SWAP1 PUSH1 0x1 PUSH1 0x1 PUSH1 0xA0 SHL SUB DUP5 AND SWAP1 PUSH4 0x70A08231 SWAP1 PUSH1 0x24 ADD PUSH1 0x20 PUSH1 0x40 MLOAD DUP1 DUP4 SUB DUP2 DUP7 GAS STATICCALL ISZERO DUP1 ISZERO PUSH2 0x92E JUMPI RETURNDATASIZE PUSH1 0x0 DUP1 RETURNDATACOPY RETURNDATASIZE PUSH1 0x0 REVERT JUMPDEST POP POP POP POP PUSH1 0x40 MLOAD RETURNDATASIZE PUSH1 0x1F NOT PUSH1 0x1F DUP3 ADD AND DUP3 ADD DUP1 PUSH1 0x40 MSTORE POP DUP2 ADD SWAP1 PUSH2 0x952 SWAP2 SWAP1 PUSH2 0x3A96 JUMP JUMPDEST SWAP1 POP PUSH2 0x969 PUSH1 0x1 PUSH1 0x1 PUSH1 0xA0 SHL SUB DUP5 AND CALLER ADDRESS DUP6 PUSH2 0x292E JUMP JUMPDEST PUSH1 0x40 MLOAD PUSH4 0x70A08231 PUSH1 0xE0 SHL DUP2 MSTORE ADDRESS PUSH1 0x4 DUP3 ADD MSTORE PUSH1 0x0 SWAP1 PUSH1 0x1 PUSH1 0x1 PUSH1 0xA0 SHL SUB DUP6 AND SWAP1 PUSH4 0x70A08231 SWAP1 PUSH1 0x24 ADD PUSH1 0x20 PUSH1 0x40 MLOAD DUP1 DUP4 SUB DUP2 DUP7 GAS STATICCALL ISZERO DUP1 ISZERO PUSH2 0x9B0 JUMPI RETURNDATASIZE PUSH1 0x0 DUP1 RETURNDATACOPY RETURNDATASIZE PUSH1 0x0 REVERT JUMPDEST POP POP POP POP PUSH1 0x40 MLOAD RETURNDATASIZE PUSH1 0x1F NOT PUSH1 0x1F DUP3 ADD AND DUP3 ADD DUP1 PUSH1 0x40 MSTORE POP DUP2 ADD SWAP1 PUSH2 0x9D4 SWAP2 SWAP1 PUSH2 0x3A96 JUMP JUMPDEST SWAP1 POP PUSH2 0x9E0 DUP4 DUP4 PUSH2 0x3B47 JUMP JUMPDEST DUP2 LT ISZERO PUSH2 0x9FF JUMPI PUSH1 0x40 MLOAD PUSH3 0x461BCD PUSH1 0xE5 SHL DUP2 MSTORE PUSH1 0x4 ADD PUSH2 0x758 SWAP1 PUSH2 0x3B5F JUMP JUMPDEST PUSH1 0x1 PUSH1 0x1 PUSH1 0xA0 SHL SUB DUP9 AND PUSH1 0x0 SWAP1 DUP2 MSTORE PUSH1 0x4 PUSH1 0x20 MSTORE PUSH1 0x40 DUP2 KECCAK256 SLOAD PUSH1 0x3 DUP1 SLOAD SWAP2 SWAP3 SWAP2 DUP4 SWAP1 DUP2 LT PUSH2 0xA2F JUMPI PUSH2 0xA2F PUSH2 0x3A32 JUMP JUMPDEST SWAP1 PUSH1 0x0 MSTORE PUSH1 0x20 PUSH1 0x0 KECCAK256 SWAP1 PUSH1 0x3 MUL ADD PUSH1 0x1 ADD PUSH1 0x0 SWAP1 SLOAD SWAP1 PUSH2 0x100 EXP SWAP1 DIV PUSH1 0x1 PUSH1 0x1 PUSH1 0x70 SHL SUB AND PUSH1 0x1 PUSH1 0x1 PUSH1 0x70 SHL SUB AND PUSH1 0x3 DUP4 DUP2 SLOAD DUP2 LT PUSH2 0xA70 JUMPI PUSH2 0xA70 PUSH2 0x3A32 JUMP JUMPDEST PUSH1 0x0 SWAP2 DUP3 MSTORE PUSH1 0x20 SWAP1 SWAP2 KECCAK256 PUSH1 0x1 PUSH1 0x3 SWAP1 SWAP3 MUL ADD ADD SLOAD PUSH2 0xAA2 SWAP1 PUSH1 0x1 PUSH1 0x1 PUSH1 0x70 SHL SUB PUSH1 0x1 PUSH1 0x70 SHL SWAP1 SWAP2 DIV DUP2 AND SWAP1 DUP13 AND PUSH2 0x3BAB JUMP JUMPDEST PUSH2 0xAAC SWAP2 SWAP1 PUSH2 0x3BE0 JUMP JUMPDEST PUSH1 0x40 MLOAD PUSH4 0xBB9FF5D PUSH1 0xE0 SHL DUP2 MSTORE SWAP1 SWAP2 POP PUSH20 0xA84D62F776606B9EEBD761E2D31F65442ECC437E SWAP1 PUSH4 0xBB9FF5D SWAP1 PUSH2 0xAE8 SWAP1 ADDRESS SWAP1 DUP6 SWAP1 PUSH1 0x4 ADD PUSH2 0x3BF4 JUMP JUMPDEST PUSH1 0x0 PUSH1 0x40 MLOAD DUP1 DUP4 SUB DUP2 PUSH1 0x0 DUP8 DUP1 EXTCODESIZE ISZERO DUP1 ISZERO PUSH2 0xB02 JUMPI PUSH1 0x0 DUP1 REVERT JUMPDEST POP GAS CALL ISZERO DUP1 ISZERO PUSH2 0xB16 JUMPI RETURNDATASIZE PUSH1 0x0 DUP1 RETURNDATACOPY RETURNDATASIZE PUSH1 0x0 REVERT JUMPDEST POP POP PUSH1 0x40 MLOAD PUSH4 0xBD85B039 PUSH1 0xE0 SHL DUP2 MSTORE PUSH1 0x4 DUP2 ADD DUP6 SWAP1 MSTORE PUSH1 0x0 SWAP3 POP PUSH20 0x8E06E97C598B0BB2910DF62C626EBF6CD55409E6 SWAP2 POP PUSH4 0xBD85B039 SWAP1 PUSH1 0x24 ADD PUSH1 0x20 PUSH1 0x40 MLOAD DUP1 DUP4 SUB DUP2 DUP7 GAS STATICCALL ISZERO DUP1 ISZERO PUSH2 0xB6D JUMPI RETURNDATASIZE PUSH1 0x0 DUP1 RETURNDATACOPY RETURNDATASIZE PUSH1 0x0 REVERT JUMPDEST POP POP POP POP PUSH1 0x40 MLOAD RETURNDATASIZE PUSH1 0x1F NOT PUSH1 0x1F DUP3 ADD AND DUP3 ADD DUP1 PUSH1 0x40 MSTORE POP DUP2 ADD SWAP1 PUSH2 0xB91 SWAP2 SWAP1 PUSH2 0x3A96 JUMP JUMPDEST SWAP1 POP PUSH1 0x0 PUSH1 0x3 DUP5 DUP2 SLOAD DUP2 LT PUSH2 0xBA8 JUMPI PUSH2 0xBA8 PUSH2 0x3A32 JUMP JUMPDEST PUSH1 0x0 SWAP2 DUP3 MSTORE PUSH1 0x20 SWAP1 SWAP2 KECCAK256 PUSH1 0x1 PUSH1 0x3 SWAP1 SWAP3 MUL ADD ADD SLOAD PUSH1 0x1 PUSH1 0x1 PUSH1 0x70 SHL SUB SWAP1 DUP2 AND SWAP1 PUSH2 0xBD5 SWAP1 DUP5 SWAP1 DUP15 AND PUSH2 0x3BAB JUMP JUMPDEST PUSH2 0xBDF SWAP2 SWAP1 PUSH2 0x3BE0 JUMP JUMPDEST PUSH1 0x40 MLOAD PUSH4 0xFC1AE255 PUSH1 0xE0 SHL DUP2 MSTORE SWAP1 SWAP2 POP PUSH20 0x8E06E97C598B0BB2910DF62C626EBF6CD55409E6 SWAP1 PUSH4 0xFC1AE255 SWAP1 PUSH2 0xC1D SWAP1 CALLER SWAP1 DUP9 SWAP1 DUP7 SWAP1 PUSH1 0x4 ADD PUSH2 0x3C16 JUMP JUMPDEST PUSH1 0x0 PUSH1 0x40 MLOAD DUP1 DUP4 SUB DUP2 PUSH1 0x0 DUP8 DUP1 EXTCODESIZE ISZERO DUP1 ISZERO PUSH2 0xC37 JUMPI PUSH1 0x0 DUP1 REVERT JUMPDEST POP GAS CALL ISZERO DUP1 ISZERO PUSH2 0xC4B JUMPI RETURNDATASIZE PUSH1 0x0 DUP1 RETURNDATACOPY RETURNDATASIZE PUSH1 0x0 REVERT JUMPDEST POP POP POP POP DUP11 PUSH1 0x3 DUP6 DUP2 SLOAD DUP2 LT PUSH2 0xC63 JUMPI PUSH2 0xC63 PUSH2 0x3A32 JUMP JUMPDEST PUSH1 0x0 SWAP2 DUP3 MSTORE PUSH1 0x20 DUP3 KECCAK256 PUSH1 0x1 PUSH1 0x3 SWAP1 SWAP3 MUL ADD ADD DUP1 SLOAD SWAP1 SWAP2 SWAP1 PUSH2 0xC8E SWAP1 DUP5 SWAP1 PUSH1 0x1 PUSH1 0x1 PUSH1 0x70 SHL SUB AND PUSH2 0x3C46 JUMP JUMPDEST SWAP3 POP PUSH2 0x100 EXP DUP2 SLOAD DUP2 PUSH1 0x1 PUSH1 0x1 PUSH1 0x70 SHL SUB MUL NOT AND SWAP1 DUP4 PUSH1 0x1 PUSH1 0x1 PUSH1 0x70 SHL SUB AND MUL OR SWAP1 SSTORE POP DUP3 PUSH1 0x3 DUP6 DUP2 SLOAD DUP2 LT PUSH2 0xCC6 JUMPI PUSH2 0xCC6 PUSH2 0x3A32 JUMP JUMPDEST SWAP1 PUSH1 0x0 MSTORE PUSH1 0x20 PUSH1 0x0 KECCAK256 SWAP1 PUSH1 0x3 MUL ADD PUSH1 0x1 ADD PUSH1 0xE DUP3 DUP3 DUP3 SWAP1 SLOAD SWAP1 PUSH2 0x100 EXP SWAP1 DIV PUSH1 0x1 PUSH1 0x1 PUSH1 0x70 SHL SUB AND PUSH2 0xCF8 SWAP2 SWAP1 PUSH2 0x3C46 JUMP JUMPDEST SWAP3 POP PUSH2 0x100 EXP DUP2 SLOAD DUP2 PUSH1 0x1 PUSH1 0x1 PUSH1 0x70 SHL SUB MUL NOT AND SWAP1 DUP4 PUSH1 0x1 PUSH1 0x1 PUSH1 0x70 SHL SUB AND MUL OR SWAP1 SSTORE POP PUSH2 0xD25 DUP13 PUSH2 0x2291 JUMP JUMPDEST POP POP PUSH1 0x1 PUSH1 0x2 SSTORE POP POP POP POP POP POP POP POP POP POP JUMP JUMPDEST PUSH2 0xD40 PUSH2 0x35D1 JUMP JUMPDEST PUSH2 0xD48 PUSH2 0x35D1 JUMP JUMPDEST PUSH1 0x4 PUSH1 0x20 MSTORE PUSH32 0x674B36EC14CA1343904F60303CFE142028FE384EDE1BB8216405C2D715EEC2AA SLOAD PUSH20 0xC7A0E9429BBC262D97F3E87BF38A95CAE8B05EDA PUSH1 0x0 MSTORE PUSH32 0xD4DAA411513E44C00CBBDBCD7643E3F083AE7772D91F19E35D6B7F63CF386A45 SLOAD PUSH1 0x3 DUP1 SLOAD DUP4 SWAP1 DUP2 LT PUSH2 0xDBD JUMPI PUSH2 0xDBD PUSH2 0x3A32 JUMP JUMPDEST SWAP1 PUSH1 0x0 MSTORE PUSH1 0x20 PUSH1 0x0 KECCAK256 SWAP1 PUSH1 0x3 MUL ADD PUSH1 0x3 DUP3 DUP2 SLOAD DUP2 LT PUSH2 0xDDE JUMPI PUSH2 0xDDE PUSH2 0x3A32 JUMP JUMPDEST PUSH1 0x0 SWAP2 DUP3 MSTORE PUSH1 0x20 SWAP2 DUP3 SWAP1 KECCAK256 PUSH1 0x40 DUP1 MLOAD PUSH1 0x80 DUP2 ADD DUP3 MSTORE DUP6 SLOAD PUSH1 0x1 PUSH1 0x1 PUSH1 0xA0 SHL SUB AND DUP2 MSTORE PUSH1 0x1 DUP7 ADD SLOAD PUSH1 0x1 PUSH1 0x1 PUSH1 0x70 SHL SUB DUP1 DUP3 AND SWAP7 DUP4 ADD SWAP7 SWAP1 SWAP7 MSTORE PUSH1 0x1 PUSH1 0x70 SHL SWAP1 DIV SWAP1 SWAP5 AND DUP5 DUP3 ADD MSTORE DUP1 MLOAD PUSH2 0x100 DUP2 ADD SWAP1 SWAP2 MSTORE PUSH1 0x3 SWAP1 SWAP3 MUL ADD SWAP2 SWAP1 DUP4 SWAP1 PUSH1 0x60 DUP4 ADD SWAP1 PUSH1 0x2 DUP4 ADD PUSH1 0x8 DUP3 DUP3 DUP3 PUSH1 0x20 MUL DUP3 ADD SWAP2 PUSH1 0x0 SWAP1 JUMPDEST DUP3 DUP3 SWAP1 SLOAD SWAP1 PUSH2 0x100 EXP SWAP1 DIV PUSH4 0xFFFFFFFF AND PUSH4 0xFFFFFFFF AND DUP2 MSTORE PUSH1 0x20 ADD SWAP1 PUSH1 0x4 ADD SWAP1 PUSH1 0x20 DUP3 PUSH1 0x3 ADD DIV SWAP3 DUP4 ADD SWAP3 PUSH1 0x1 SUB DUP3 MUL SWAP2 POP DUP1 DUP5 GT PUSH2 0xE51 JUMPI POP POP POP SWAP3 SWAP1 SWAP4 MSTORE POP POP PUSH1 0x40 DUP1 MLOAD PUSH1 0x80 DUP2 ADD DUP3 MSTORE DUP6 SLOAD PUSH1 0x1 PUSH1 0x1 PUSH1 0xA0 SHL SUB AND DUP2 MSTORE PUSH1 0x1 DUP7 ADD SLOAD PUSH1 0x1 PUSH1 0x1 PUSH1 0x70 SHL SUB DUP1 DUP3 AND PUSH1 0x20 DUP5 ADD MSTORE PUSH1 0x1 PUSH1 0x70 SHL SWAP1 SWAP2 DIV AND DUP2 DUP4 ADD MSTORE DUP2 MLOAD PUSH2 0x100 DUP2 ADD SWAP3 DUP4 SWAP1 MSTORE SWAP5 SWAP7 POP SWAP4 DUP6 SWAP4 POP PUSH1 0x60 DUP6 ADD SWAP3 POP SWAP1 PUSH1 0x2 DUP5 ADD SWAP1 PUSH1 0x8 SWAP1 DUP3 PUSH1 0x0 DUP6 JUMPDEST DUP3 DUP3 SWAP1 SLOAD SWAP1 PUSH2 0x100 EXP SWAP1 DIV PUSH4 0xFFFFFFFF AND PUSH4 0xFFFFFFFF AND DUP2 MSTORE PUSH1 0x20 ADD SWAP1 PUSH1 0x4 ADD SWAP1 PUSH1 0x20 DUP3 PUSH1 0x3 ADD DIV SWAP3 DUP4 ADD SWAP3 PUSH1 0x1 SUB DUP3 MUL SWAP2 POP DUP1 DUP5 GT PUSH2 0xEF3 JUMPI SWAP1 POP POP POP POP POP POP DUP2 MSTORE POP POP SWAP1 POP SWAP4 POP SWAP4 POP POP POP SWAP1 SWAP2 JUMP JUMPDEST PUSH1 0x0 DUP1 PUSH2 0xF4F PUSH2 0x16B7 JUMP JUMPDEST SWAP1 POP PUSH1 0x0 DUP1 JUMPDEST PUSH1 0x8 DUP2 LT ISZERO PUSH2 0xFE2 JUMPI DUP3 DUP2 EQ ISZERO PUSH2 0xF6B JUMPI PUSH2 0xFD0 JUMP JUMPDEST PUSH1 0x3 DUP6 DUP2 SLOAD DUP2 LT PUSH2 0xF7E JUMPI PUSH2 0xF7E PUSH2 0x3A32 JUMP JUMPDEST SWAP1 PUSH1 0x0 MSTORE PUSH1 0x20 PUSH1 0x0 KECCAK256 SWAP1 PUSH1 0x3 MUL ADD PUSH1 0x2 ADD DUP2 PUSH1 0x8 DUP2 LT PUSH2 0xFA0 JUMPI PUSH2 0xFA0 PUSH2 0x3A32 JUMP JUMPDEST PUSH1 0x8 SWAP2 DUP3 DUP3 DIV ADD SWAP2 SWAP1 MOD PUSH1 0x4 MUL SWAP1 SLOAD SWAP1 PUSH2 0x100 EXP SWAP1 DIV PUSH4 0xFFFFFFFF AND PUSH4 0xFFFFFFFF AND DUP3 PUSH2 0xFCD SWAP2 SWAP1 PUSH2 0x3B47 JUMP JUMPDEST SWAP2 POP JUMPDEST DUP1 PUSH2 0xFDA DUP2 PUSH2 0x3A5E JUMP JUMPDEST SWAP2 POP POP PUSH2 0xF55 JUMP JUMPDEST POP PUSH1 0x0 PUSH2 0xFF1 DUP3 PUSH2 0x3E8 PUSH2 0x3BAB JUMP JUMPDEST SWAP1 POP PUSH1 0x0 PUSH1 0x3 DUP7 DUP2 SLOAD DUP2 LT PUSH2 0x1008 JUMPI PUSH2 0x1008 PUSH2 0x3A32 JUMP JUMPDEST PUSH1 0x0 SWAP2 DUP3 MSTORE PUSH1 0x20 SWAP1 SWAP2 KECCAK256 PUSH1 0x3 SWAP1 SWAP2 MUL ADD PUSH1 0x1 ADD SLOAD PUSH2 0x1037 SWAP1 PUSH1 0x1 PUSH1 0x70 SHL SWAP1 DIV PUSH1 0x1 PUSH1 0x1 PUSH1 0x70 SHL SUB AND PUSH1 0x2 PUSH2 0x3C71 JUMP JUMPDEST PUSH2 0x1042 SWAP1 PUSH1 0x96 PUSH2 0x3C71 JUMP JUMPDEST PUSH1 0x1 PUSH1 0x1 PUSH1 0x70 SHL SUB AND SWAP1 POP DUP1 DUP3 GT PUSH2 0x105E JUMPI PUSH2 0x270F SWAP5 POP PUSH2 0x109C JUMP JUMPDEST DUP2 DUP2 LT DUP1 ISZERO PUSH2 0x1076 JUMPI POP PUSH2 0x1073 DUP2 PUSH1 0x64 PUSH2 0x3BAB JUMP JUMPDEST DUP3 LT JUMPDEST ISZERO PUSH2 0x1084 JUMPI PUSH1 0x7B SWAP5 POP PUSH2 0x109C JUMP JUMPDEST PUSH2 0x108F DUP2 PUSH1 0x64 PUSH2 0x3BAB JUMP JUMPDEST DUP3 GT ISZERO PUSH2 0x109C JUMPI PUSH2 0x26AC SWAP5 POP JUMPDEST POP POP POP POP SWAP2 SWAP1 POP JUMP JUMPDEST PUSH1 0x5 SLOAD PUSH1 0xFF AND ISZERO PUSH2 0x10F8 JUMPI PUSH1 0x40 MLOAD PUSH3 0x461BCD PUSH1 0xE5 SHL DUP2 MSTORE PUSH1 0x20 PUSH1 0x4 DUP3 ADD MSTORE PUSH1 0x18 PUSH1 0x24 DUP3 ADD MSTORE PUSH32 0x4353313A20416C726561647920696E697469616C697A65640000000000000000 PUSH1 0x44 DUP3 ADD MSTORE PUSH1 0x64 ADD PUSH2 0x758 JUMP JUMPDEST PUSH1 0x5 DUP1 SLOAD PUSH1 0xFF NOT AND PUSH1 0x1 OR SWAP1 SSTORE PUSH2 0x110D PUSH2 0x35FF JUMP JUMPDEST PUSH1 0x40 DUP1 MLOAD PUSH1 0x80 DUP2 ADD DUP3 MSTORE PUSH1 0x0 DUP1 DUP3 MSTORE PUSH1 0x20 DUP3 ADD DUP2 DUP2 MSTORE SWAP3 DUP3 ADD DUP2 DUP2 MSTORE PUSH1 0x60 DUP4 ADD DUP6 DUP2 MSTORE PUSH1 0x3 DUP1 SLOAD PUSH1 0x1 DUP2 ADD DUP3 SSTORE SWAP4 DUP2 SWAP1 MSTORE DUP5 MLOAD SWAP4 MUL PUSH32 0xC2575A0E9E593C00F959F8C92F12DB2869C3395A3B0502D05E2516446F71F85B DUP2 ADD DUP1 SLOAD PUSH1 0x1 PUSH1 0x1 PUSH1 0xA0 SHL SUB SWAP6 SWAP1 SWAP6 AND PUSH1 0x1 PUSH1 0x1 PUSH1 0xA0 SHL SUB NOT SWAP1 SWAP6 AND SWAP5 SWAP1 SWAP5 OR DUP5 SSTORE SWAP5 MLOAD PUSH32 0xC2575A0E9E593C00F959F8C92F12DB2869C3395A3B0502D05E2516446F71F85C DUP7 ADD DUP1 SLOAD SWAP4 MLOAD PUSH1 0x1 PUSH1 0x1 PUSH1 0x70 SHL SUB SWAP1 DUP2 AND PUSH1 0x1 PUSH1 0x70 SHL MUL PUSH1 0x1 PUSH1 0x1 PUSH1 0xE0 SHL SUB NOT SWAP1 SWAP6 AND SWAP3 AND SWAP2 SWAP1 SWAP2 OR SWAP3 SWAP1 SWAP3 OR SWAP1 SWAP2 SSTORE MLOAD SWAP2 SWAP3 SWAP1 SWAP2 PUSH2 0x120B SWAP2 PUSH32 0xC2575A0E9E593C00F959F8C92F12DB2869C3395A3B0502D05E2516446F71F85D ADD SWAP1 PUSH1 0x8 PUSH2 0x361E JUMP JUMPDEST POP POP PUSH1 0x40 MLOAD PUSH4 0xFC1AE255 PUSH1 0xE0 SHL DUP2 MSTORE PUSH20 0x8E06E97C598B0BB2910DF62C626EBF6CD55409E6 SWAP2 POP PUSH4 0xFC1AE255 SWAP1 PUSH2 0x124E SWAP1 PUSH2 0xDEAD SWAP1 PUSH1 0x0 SWAP1 PUSH2 0x3E8 SWAP1 PUSH1 0x4 ADD PUSH2 0x3C16 JUMP JUMPDEST PUSH1 0x0 PUSH1 0x40 MLOAD DUP1 DUP4 SUB DUP2 PUSH1 0x0 DUP8 DUP1 EXTCODESIZE ISZERO DUP1 ISZERO PUSH2 0x1268 JUMPI PUSH1 0x0 DUP1 REVERT JUMPDEST POP GAS CALL ISZERO DUP1 ISZERO PUSH2 0x127C JUMPI RETURNDATASIZE PUSH1 0x0 DUP1 RETURNDATACOPY RETURNDATASIZE PUSH1 0x0 REVERT JUMPDEST POP POP POP POP PUSH2 0x12B3 PUSH20 0x29581A9121998FCBB096CEAFA92E3E10057878F PUSH10 0xD3C21BCECCEDA1000000 PUSH10 0x3F870857A3E0E3800000 PUSH2 0x17CC JUMP JUMPDEST PUSH2 0x12DC PUSH20 0xC7A0E9429BBC262D97F3E87BF38A95CAE8B05EDA PUSH10 0xD3C21BCECCEDA1000000 DUP1 PUSH2 0x17CC JUMP JUMPDEST POP JUMP JUMPDEST PUSH1 0x2 DUP1 SLOAD EQ ISZERO PUSH2 0x1301 JUMPI PUSH1 0x40 MLOAD PUSH3 0x461BCD PUSH1 0xE5 SHL DUP2 MSTORE PUSH1 0x4 ADD PUSH2 0x758 SWAP1 PUSH2 0x3AAF JUMP JUMPDEST PUSH1 0x2 DUP1 SSTORE PUSH1 0x1 PUSH1 0x1 PUSH1 0xA0 SHL SUB DUP3 AND PUSH1 0x0 SWAP1 DUP2 MSTORE PUSH1 0x4 PUSH1 0x20 MSTORE PUSH1 0x40 SWAP1 KECCAK256 SLOAD DUP3 SWAP1 ISZERO DUP1 ISZERO SWAP1 PUSH2 0x134B JUMPI POP PUSH1 0x1 PUSH1 0x1 PUSH1 0xA0 SHL SUB DUP2 AND PUSH20 0xA84D62F776606B9EEBD761E2D31F65442ECC437E EQ ISZERO JUMPDEST PUSH2 0x1367 JUMPI PUSH1 0x40 MLOAD PUSH3 0x461BCD PUSH1 0xE5 SHL DUP2 MSTORE PUSH1 0x4 ADD PUSH2 0x758 SWAP1 PUSH2 0x3B1D JUMP JUMPDEST DUP3 PUSH2 0x1371 DUP2 PUSH2 0x2291 JUMP JUMPDEST PUSH1 0x1 PUSH1 0x1 PUSH1 0xA0 SHL SUB DUP5 AND PUSH1 0x0 SWAP1 DUP2 MSTORE PUSH1 0x4 PUSH1 0x20 DUP2 SWAP1 MSTORE PUSH1 0x40 SWAP2 DUP3 SWAP1 KECCAK256 SLOAD SWAP2 MLOAD PUSH4 0x38674775 PUSH1 0xE1 SHL DUP2 MSTORE CALLER SWAP2 DUP2 ADD SWAP2 SWAP1 SWAP2 MSTORE PUSH1 0x24 DUP2 ADD DUP3 SWAP1 MSTORE PUSH1 0x44 DUP2 ADD DUP6 SWAP1 MSTORE PUSH20 0x8E06E97C598B0BB2910DF62C626EBF6CD55409E6 SWAP1 PUSH4 0x70CE8EEA SWAP1 PUSH1 0x64 ADD PUSH1 0x0 PUSH1 0x40 MLOAD DUP1 DUP4 SUB DUP2 PUSH1 0x0 DUP8 DUP1 EXTCODESIZE ISZERO DUP1 ISZERO PUSH2 0x13E9 JUMPI PUSH1 0x0 DUP1 REVERT JUMPDEST POP GAS CALL ISZERO DUP1 ISZERO PUSH2 0x13FD JUMPI RETURNDATASIZE PUSH1 0x0 DUP1 RETURNDATACOPY RETURNDATASIZE PUSH1 0x0 REVERT JUMPDEST POP POP PUSH1 0x40 MLOAD PUSH4 0xBD85B039 PUSH1 0xE0 SHL DUP2 MSTORE PUSH1 0x4 DUP2 ADD DUP5 SWAP1 MSTORE PUSH1 0x0 SWAP3 POP PUSH20 0x8E06E97C598B0BB2910DF62C626EBF6CD55409E6 SWAP2 POP PUSH4 0xBD85B039 SWAP1 PUSH1 0x24 ADD PUSH1 0x20 PUSH1 0x40 MLOAD DUP1 DUP4 SUB DUP2 DUP7 GAS STATICCALL ISZERO DUP1 ISZERO PUSH2 0x1454 JUMPI RETURNDATASIZE PUSH1 0x0 DUP1 RETURNDATACOPY RETURNDATASIZE PUSH1 0x0 REVERT JUMPDEST POP POP POP POP PUSH1 0x40 MLOAD RETURNDATASIZE PUSH1 0x1F NOT PUSH1 0x1F DUP3 ADD AND DUP3 ADD DUP1 PUSH1 0x40 MSTORE POP DUP2 ADD SWAP1 PUSH2 0x1478 SWAP2 SWAP1 PUSH2 0x3A96 JUMP JUMPDEST SWAP1 POP PUSH1 0x0 DUP2 DUP7 PUSH1 0x3 DUP6 DUP2 SLOAD DUP2 LT PUSH2 0x1491 JUMPI PUSH2 0x1491 PUSH2 0x3A32 JUMP JUMPDEST PUSH1 0x0 SWAP2 DUP3 MSTORE PUSH1 0x20 SWAP1 SWAP2 KECCAK256 PUSH1 0x1 PUSH1 0x3 SWAP1 SWAP3 MUL ADD ADD SLOAD PUSH2 0x14B8 SWAP2 SWAP1 PUSH1 0x1 PUSH1 0x1 PUSH1 0x70 SHL SUB AND PUSH2 0x3BAB JUMP JUMPDEST PUSH2 0x14C2 SWAP2 SWAP1 PUSH2 0x3BE0 JUMP JUMPDEST SWAP1 POP PUSH1 0x0 DUP3 DUP8 PUSH1 0x3 DUP7 DUP2 SLOAD DUP2 LT PUSH2 0x14DB JUMPI PUSH2 0x14DB PUSH2 0x3A32 JUMP JUMPDEST PUSH1 0x0 SWAP2 DUP3 MSTORE PUSH1 0x20 SWAP1 SWAP2 KECCAK256 PUSH1 0x3 SWAP1 SWAP2 MUL ADD PUSH1 0x1 ADD SLOAD PUSH2 0x1509 SWAP2 SWAP1 PUSH1 0x1 PUSH1 0x70 SHL SWAP1 DIV PUSH1 0x1 PUSH1 0x1 PUSH1 0x70 SHL SUB AND PUSH2 0x3BAB JUMP JUMPDEST PUSH2 0x1513 SWAP2 SWAP1 PUSH2 0x3BE0 JUMP JUMPDEST PUSH1 0x40 MLOAD PUSH4 0x18A8AD87 PUSH1 0xE0 SHL DUP2 MSTORE SWAP1 SWAP2 POP PUSH20 0xA84D62F776606B9EEBD761E2D31F65442ECC437E SWAP1 PUSH4 0x18A8AD87 SWAP1 PUSH2 0x154F SWAP1 ADDRESS SWAP1 DUP6 SWAP1 PUSH1 0x4 ADD PUSH2 0x3BF4 JUMP JUMPDEST PUSH1 0x0 PUSH1 0x40 MLOAD DUP1 DUP4 SUB DUP2 PUSH1 0x0 DUP8 DUP1 EXTCODESIZE ISZERO DUP1 ISZERO PUSH2 0x1569 JUMPI PUSH1 0x0 DUP1 REVERT JUMPDEST POP GAS CALL ISZERO DUP1 ISZERO PUSH2 0x157D JUMPI RETURNDATASIZE PUSH1 0x0 DUP1 RETURNDATACOPY RETURNDATASIZE PUSH1 0x0 REVERT JUMPDEST POP POP POP POP DUP2 PUSH1 0x3 DUP6 DUP2 SLOAD DUP2 LT PUSH2 0x1595 JUMPI PUSH2 0x1595 PUSH2 0x3A32 JUMP JUMPDEST PUSH1 0x0 SWAP2 DUP3 MSTORE PUSH1 0x20 DUP3 KECCAK256 PUSH1 0x1 PUSH1 0x3 SWAP1 SWAP3 MUL ADD ADD DUP1 SLOAD SWAP1 SWAP2 SWAP1 PUSH2 0x15C0 SWAP1 DUP5 SWAP1 PUSH1 0x1 PUSH1 0x1 PUSH1 0x70 SHL SUB AND PUSH2 0x3CA0 JUMP JUMPDEST SWAP3 POP PUSH2 0x100 EXP DUP2 SLOAD DUP2 PUSH1 0x1 PUSH1 0x1 PUSH1 0x70 SHL SUB MUL NOT AND SWAP1 DUP4 PUSH1 0x1 PUSH1 0x1 PUSH1 0x70 SHL SUB AND MUL OR SWAP1 SSTORE POP DUP1 PUSH1 0x3 DUP6 DUP2 SLOAD DUP2 LT PUSH2 0x15F8 JUMPI PUSH2 0x15F8 PUSH2 0x3A32 JUMP JUMPDEST SWAP1 PUSH1 0x0 MSTORE PUSH1 0x20 PUSH1 0x0 KECCAK256 SWAP1 PUSH1 0x3 MUL ADD PUSH1 0x1 ADD PUSH1 0xE DUP3 DUP3 DUP3 SWAP1 SLOAD SWAP1 PUSH2 0x100 EXP SWAP1 DIV PUSH1 0x1 PUSH1 0x1 PUSH1 0x70 SHL SUB AND PUSH2 0x162A SWAP2 SWAP1 PUSH2 0x3CA0 JUMP JUMPDEST SWAP3 POP PUSH2 0x100 EXP DUP2 SLOAD DUP2 PUSH1 0x1 PUSH1 0x1 PUSH1 0x70 SHL SUB MUL NOT AND SWAP1 DUP4 PUSH1 0x1 PUSH1 0x1 PUSH1 0x70 SHL SUB AND MUL OR SWAP1 SSTORE POP PUSH2 0x1657 DUP9 PUSH2 0x2291 JUMP JUMPDEST POP POP PUSH1 0x1 PUSH1 0x2 SSTORE POP POP POP POP POP POP JUMP JUMPDEST PUSH1 0x0 DUP3 DUP2 MSTORE PUSH1 0x1 PUSH1 0x20 MSTORE PUSH1 0x40 DUP2 KECCAK256 PUSH2 0x167E SWAP1 DUP4 PUSH2 0x2999 JUMP JUMPDEST SWAP4 SWAP3 POP POP POP JUMP JUMPDEST PUSH1 0x0 SWAP2 DUP3 MSTORE PUSH1 0x20 DUP3 DUP2 MSTORE PUSH1 0x40 DUP1 DUP5 KECCAK256 PUSH1 0x1 PUSH1 0x1 PUSH1 0xA0 SHL SUB SWAP4 SWAP1 SWAP4 AND DUP5 MSTORE SWAP2 SWAP1 MSTORE SWAP1 KECCAK256 SLOAD PUSH1 0xFF AND SWAP1 JUMP JUMPDEST PUSH2 0x12DC DUP2 PUSH2 0x2291 JUMP JUMPDEST PUSH1 0x0 PUSH1 0x8 PUSH2 0x16C7 PUSH2 0x3840 TIMESTAMP PUSH2 0x3BE0 JUMP JUMPDEST PUSH2 0x16D1 SWAP2 SWAP1 PUSH2 0x3CC8 JUMP JUMPDEST SWAP1 POP SWAP1 JUMP JUMPDEST PUSH2 0x16DE PUSH2 0x35D1 JUMP JUMPDEST PUSH1 0x1 PUSH1 0x1 PUSH1 0xA0 SHL SUB DUP3 AND PUSH1 0x0 SWAP1 DUP2 MSTORE PUSH1 0x4 PUSH1 0x20 MSTORE PUSH1 0x40 SWAP1 KECCAK256 SLOAD PUSH1 0x3 DUP1 SLOAD SWAP1 SWAP2 SWAP1 DUP2 LT PUSH2 0x170C JUMPI PUSH2 0x170C PUSH2 0x3A32 JUMP JUMPDEST PUSH1 0x0 SWAP2 DUP3 MSTORE PUSH1 0x20 SWAP2 DUP3 SWAP1 KECCAK256 PUSH1 0x40 DUP1 MLOAD PUSH1 0x80 DUP2 ADD DUP3 MSTORE PUSH1 0x3 SWAP1 SWAP4 MUL SWAP1 SWAP2 ADD DUP1 SLOAD PUSH1 0x1 PUSH1 0x1 PUSH1 0xA0 SHL SUB AND DUP4 MSTORE PUSH1 0x1 DUP2 ADD SLOAD PUSH1 0x1 PUSH1 0x1 PUSH1 0x70 SHL SUB DUP1 DUP3 AND SWAP6 DUP6 ADD SWAP6 SWAP1 SWAP6 MSTORE PUSH1 0x1 PUSH1 0x70 SHL SWAP1 DIV SWAP1 SWAP4 AND DUP3 DUP3 ADD MSTORE DUP1 MLOAD PUSH2 0x100 DUP2 ADD SWAP1 SWAP2 MSTORE SWAP1 SWAP2 SWAP1 PUSH1 0x60 DUP4 ADD SWAP1 PUSH1 0x2 DUP4 ADD PUSH1 0x8 DUP3 DUP3 DUP3 PUSH1 0x20 MUL DUP3 ADD SWAP2 PUSH1 0x0 SWAP1 JUMPDEST DUP3 DUP3 SWAP1 SLOAD SWAP1 PUSH2 0x100 EXP SWAP1 DIV PUSH4 0xFFFFFFFF AND PUSH4 0xFFFFFFFF AND DUP2 MSTORE PUSH1 0x20 ADD SWAP1 PUSH1 0x4 ADD SWAP1 PUSH1 0x20 DUP3 PUSH1 0x3 ADD DIV SWAP3 DUP4 ADD SWAP3 PUSH1 0x1 SUB DUP3 MUL SWAP2 POP DUP1 DUP5 GT PUSH2 0x1780 JUMPI SWAP1 POP POP POP POP POP POP DUP2 MSTORE POP POP SWAP1 POP SWAP2 SWAP1 POP JUMP JUMPDEST PUSH1 0x2 DUP1 SLOAD EQ ISZERO PUSH2 0x17EE JUMPI PUSH1 0x40 MLOAD PUSH3 0x461BCD PUSH1 0xE5 SHL DUP2 MSTORE PUSH1 0x4 ADD PUSH2 0x758 SWAP1 PUSH2 0x3AAF JUMP JUMPDEST PUSH1 0x2 DUP1 SSTORE PUSH1 0x1 PUSH1 0x1 PUSH1 0xA0 SHL SUB DUP4 AND PUSH1 0x0 SWAP1 DUP2 MSTORE PUSH1 0x4 PUSH1 0x20 MSTORE PUSH1 0x40 SWAP1 KECCAK256 SLOAD DUP4 SWAP1 ISZERO DUP1 ISZERO PUSH2 0x1837 JUMPI POP PUSH1 0x1 PUSH1 0x1 PUSH1 0xA0 SHL SUB DUP2 AND PUSH20 0xA84D62F776606B9EEBD761E2D31F65442ECC437E EQ ISZERO JUMPDEST PUSH2 0x1877 JUMPI PUSH1 0x40 MLOAD PUSH3 0x461BCD PUSH1 0xE5 SHL DUP2 MSTORE PUSH1 0x20 PUSH1 0x4 DUP3 ADD MSTORE PUSH1 0x11 PUSH1 0x24 DUP3 ADD MSTORE PUSH17 0x4353313A20546F6B656E20657869737473 PUSH1 0x78 SHL PUSH1 0x44 DUP3 ADD MSTORE PUSH1 0x64 ADD PUSH2 0x758 JUMP JUMPDEST PUSH1 0x40 MLOAD PUSH4 0x70A08231 PUSH1 0xE0 SHL DUP2 MSTORE ADDRESS PUSH1 0x4 DUP3 ADD MSTORE DUP5 SWAP1 PUSH1 0x1 PUSH1 0x1 PUSH1 0x70 SHL SUB DUP6 AND SWAP1 PUSH1 0x0 SWAP1 PUSH1 0x1 PUSH1 0x1 PUSH1 0xA0 SHL SUB DUP5 AND SWAP1 PUSH4 0x70A08231 SWAP1 PUSH1 0x24 ADD PUSH1 0x20 PUSH1 0x40 MLOAD DUP1 DUP4 SUB DUP2 DUP7 GAS STATICCALL ISZERO DUP1 ISZERO PUSH2 0x18CB JUMPI RETURNDATASIZE PUSH1 0x0 DUP1 RETURNDATACOPY RETURNDATASIZE PUSH1 0x0 REVERT JUMPDEST POP POP POP POP PUSH1 0x40 MLOAD RETURNDATASIZE PUSH1 0x1F NOT PUSH1 0x1F DUP3 ADD AND DUP3 ADD DUP1 PUSH1 0x40 MSTORE POP DUP2 ADD SWAP1 PUSH2 0x18EF SWAP2 SWAP1 PUSH2 0x3A96 JUMP JUMPDEST SWAP1 POP PUSH2 0x1906 PUSH1 0x1 PUSH1 0x1 PUSH1 0xA0 SHL SUB DUP5 AND CALLER ADDRESS DUP6 PUSH2 0x292E JUMP JUMPDEST PUSH1 0x40 MLOAD PUSH4 0x70A08231 PUSH1 0xE0 SHL DUP2 MSTORE ADDRESS PUSH1 0x4 DUP3 ADD MSTORE PUSH1 0x0 SWAP1 PUSH1 0x1 PUSH1 0x1 PUSH1 0xA0 SHL SUB DUP6 AND SWAP1 PUSH4 0x70A08231 SWAP1 PUSH1 0x24 ADD PUSH1 0x20 PUSH1 0x40 MLOAD DUP1 DUP4 SUB DUP2 DUP7 GAS STATICCALL ISZERO DUP1 ISZERO PUSH2 0x194D JUMPI RETURNDATASIZE PUSH1 0x0 DUP1 RETURNDATACOPY RETURNDATASIZE PUSH1 0x0 REVERT JUMPDEST POP POP POP POP PUSH1 0x40 MLOAD RETURNDATASIZE PUSH1 0x1F NOT PUSH1 0x1F DUP3 ADD AND DUP3 ADD DUP1 PUSH1 0x40 MSTORE POP DUP2 ADD SWAP1 PUSH2 0x1971 SWAP2 SWAP1 PUSH2 0x3A96 JUMP JUMPDEST SWAP1 POP PUSH2 0x197D DUP4 DUP4 PUSH2 0x3B47 JUMP JUMPDEST DUP2 LT ISZERO PUSH2 0x199C JUMPI PUSH1 0x40 MLOAD PUSH3 0x461BCD PUSH1 0xE5 SHL DUP2 MSTORE PUSH1 0x4 ADD PUSH2 0x758 SWAP1 PUSH2 0x3B5F JUMP JUMPDEST PUSH1 0x40 MLOAD PUSH4 0xBB9FF5D PUSH1 0xE0 SHL DUP2 MSTORE PUSH20 0xA84D62F776606B9EEBD761E2D31F65442ECC437E SWAP1 PUSH4 0xBB9FF5D SWAP1 PUSH2 0x19D5 SWAP1 ADDRESS SWAP1 DUP11 SWAP1 PUSH1 0x4 ADD PUSH2 0x3BF4 JUMP JUMPDEST PUSH1 0x0 PUSH1 0x40 MLOAD DUP1 DUP4 SUB DUP2 PUSH1 0x0 DUP8 DUP1 EXTCODESIZE ISZERO DUP1 ISZERO PUSH2 0x19EF JUMPI PUSH1 0x0 DUP1 REVERT JUMPDEST POP GAS CALL ISZERO DUP1 ISZERO PUSH2 0x1A03 JUMPI RETURNDATASIZE PUSH1 0x0 DUP1 RETURNDATACOPY RETURNDATASIZE PUSH1 0x0 REVERT JUMPDEST POP POP POP POP PUSH2 0x1A0F PUSH2 0x35FF JUMP JUMPDEST PUSH1 0x40 DUP1 MLOAD PUSH1 0x80 DUP2 ADD DUP3 MSTORE PUSH1 0x1 PUSH1 0x1 PUSH1 0xA0 SHL SUB DUP1 DUP13 AND DUP3 MSTORE PUSH1 0x1 PUSH1 0x1 PUSH1 0x70 SHL SUB DUP1 DUP13 AND PUSH1 0x20 DUP5 ADD SWAP1 DUP2 MSTORE DUP12 DUP3 AND SWAP5 DUP5 ADD SWAP5 DUP6 MSTORE PUSH1 0x60 DUP5 ADD DUP7 DUP2 MSTORE PUSH1 0x3 DUP1 SLOAD PUSH1 0x1 DUP2 ADD DUP3 SSTORE PUSH1 0x0 DUP3 SWAP1 MSTORE DUP7 MLOAD SWAP2 MUL PUSH32 0xC2575A0E9E593C00F959F8C92F12DB2869C3395A3B0502D05E2516446F71F85B DUP2 ADD DUP1 SLOAD SWAP3 SWAP1 SWAP7 AND PUSH1 0x1 PUSH1 0x1 PUSH1 0xA0 SHL SUB NOT SWAP1 SWAP3 AND SWAP2 SWAP1 SWAP2 OR DUP6 SSTORE SWAP2 MLOAD PUSH32 0xC2575A0E9E593C00F959F8C92F12DB2869C3395A3B0502D05E2516446F71F85C DUP4 ADD DUP1 SLOAD SWAP8 MLOAD DUP6 AND PUSH1 0x1 PUSH1 0x70 SHL MUL PUSH1 0x1 PUSH1 0x1 PUSH1 0xE0 SHL SUB NOT SWAP1 SWAP9 AND SWAP2 SWAP1 SWAP5 AND OR SWAP6 SWAP1 SWAP6 OR SWAP1 SWAP2 SSTORE SWAP3 MLOAD SWAP2 SWAP3 DUP4 SWAP3 PUSH2 0x1B13 SWAP2 PUSH32 0xC2575A0E9E593C00F959F8C92F12DB2869C3395A3B0502D05E2516446F71F85D ADD SWAP1 PUSH1 0x8 PUSH2 0x361E JUMP JUMPDEST POP POP PUSH1 0x3 SLOAD PUSH2 0x1B25 SWAP2 POP PUSH1 0x1 SWAP1 PUSH2 0x3CDC JUMP JUMPDEST PUSH1 0x1 PUSH1 0x1 PUSH1 0xA0 SHL SUB DUP12 AND PUSH1 0x0 SWAP1 DUP2 MSTORE PUSH1 0x4 PUSH1 0x20 MSTORE PUSH1 0x40 SWAP1 KECCAK256 SSTORE POP POP PUSH1 0x3 SLOAD PUSH20 0x8E06E97C598B0BB2910DF62C626EBF6CD55409E6 SWAP1 PUSH4 0xFC1AE255 SWAP1 PUSH2 0xDEAD SWAP1 PUSH2 0x1B6F SWAP1 PUSH1 0x1 SWAP1 PUSH2 0x3CDC JUMP JUMPDEST PUSH2 0x3E8 PUSH1 0x40 MLOAD DUP5 PUSH4 0xFFFFFFFF AND PUSH1 0xE0 SHL DUP2 MSTORE PUSH1 0x4 ADD PUSH2 0x1B90 SWAP4 SWAP3 SWAP2 SWAP1 PUSH2 0x3C16 JUMP JUMPDEST PUSH1 0x0 PUSH1 0x40 MLOAD DUP1 DUP4 SUB DUP2 PUSH1 0x0 DUP8 DUP1 EXTCODESIZE ISZERO DUP1 ISZERO PUSH2 0x1BAA JUMPI PUSH1 0x0 DUP1 REVERT JUMPDEST POP GAS CALL ISZERO DUP1 ISZERO PUSH2 0x1BBE JUMPI RETURNDATASIZE PUSH1 0x0 DUP1 RETURNDATACOPY RETURNDATASIZE PUSH1 0x0 REVERT JUMPDEST POP POP POP POP PUSH1 0x0 PUSH2 0x3E8 PUSH2 0x1BED DUP9 PUSH1 0x1 PUSH1 0x1 PUSH1 0x70 SHL SUB AND DUP11 PUSH1 0x1 PUSH1 0x1 PUSH1 0x70 SHL SUB AND PUSH2 0x1BE8 SWAP2 SWAP1 PUSH2 0x3BAB JUMP JUMPDEST PUSH2 0x29A5 JUMP JUMPDEST PUSH2 0x1BF7 SWAP2 SWAP1 PUSH2 0x3CDC JUMP JUMPDEST PUSH1 0x3 SLOAD SWAP1 SWAP2 POP PUSH20 0x8E06E97C598B0BB2910DF62C626EBF6CD55409E6 SWAP1 PUSH4 0xFC1AE255 SWAP1 CALLER SWAP1 PUSH2 0x1C27 SWAP1 PUSH1 0x1 SWAP1 PUSH2 0x3CDC JUMP JUMPDEST DUP5 PUSH1 0x40 MLOAD DUP5 PUSH4 0xFFFFFFFF AND PUSH1 0xE0 SHL DUP2 MSTORE PUSH1 0x4 ADD PUSH2 0x1C46 SWAP4 SWAP3 SWAP2 SWAP1 PUSH2 0x3C16 JUMP JUMPDEST PUSH1 0x0 PUSH1 0x40 MLOAD DUP1 DUP4 SUB DUP2 PUSH1 0x0 DUP8 DUP1 EXTCODESIZE ISZERO DUP1 ISZERO PUSH2 0x1C60 JUMPI PUSH1 0x0 DUP1 REVERT JUMPDEST POP GAS CALL ISZERO DUP1 ISZERO PUSH2 0x1C74 JUMPI RETURNDATASIZE PUSH1 0x0 DUP1 RETURNDATACOPY RETURNDATASIZE PUSH1 0x0 REVERT JUMPDEST POP POP POP POP PUSH2 0x1C81 DUP10 PUSH2 0x2291 JUMP JUMPDEST POP POP PUSH1 0x1 PUSH1 0x2 SSTORE POP POP POP POP POP POP POP JUMP JUMPDEST PUSH1 0x0 DUP2 DUP2 MSTORE PUSH1 0x1 PUSH1 0x20 MSTORE PUSH1 0x40 DUP2 KECCAK256 PUSH2 0x550 SWAP1 PUSH2 0x29FE JUMP JUMPDEST PUSH1 0x0 PUSH2 0x167E DUP3 PUSH1 0x3 DUP6 DUP2 SLOAD DUP2 LT PUSH2 0x1CC1 JUMPI PUSH2 0x1CC1 PUSH2 0x3A32 JUMP JUMPDEST SWAP1 PUSH1 0x0 MSTORE PUSH1 0x20 PUSH1 0x0 KECCAK256 SWAP1 PUSH1 0x3 MUL ADD PUSH1 0x1 ADD PUSH1 0x0 SWAP1 SLOAD SWAP1 PUSH2 0x100 EXP SWAP1 DIV PUSH1 0x1 PUSH1 0x1 PUSH1 0x70 SHL SUB AND PUSH1 0x1 PUSH1 0x1 PUSH1 0x70 SHL SUB AND PUSH1 0x3 DUP7 DUP2 SLOAD DUP2 LT PUSH2 0x1D02 JUMPI PUSH2 0x1D02 PUSH2 0x3A32 JUMP JUMPDEST PUSH1 0x0 SWAP2 DUP3 MSTORE PUSH1 0x20 SWAP1 SWAP2 KECCAK256 PUSH1 0x3 SWAP1 SWAP2 MUL ADD PUSH1 0x1 ADD SLOAD PUSH1 0x1 PUSH1 0x70 SHL SWAP1 DIV PUSH1 0x1 PUSH1 0x1 PUSH1 0x70 SHL SUB AND PUSH2 0x1D2F DUP8 PUSH2 0xF44 JUMP JUMPDEST PUSH2 0x2A08 JUMP JUMPDEST PUSH2 0x1D3C PUSH2 0x35D1 JUMP JUMPDEST PUSH1 0x3 DUP3 DUP2 SLOAD DUP2 LT PUSH2 0x170C JUMPI PUSH2 0x170C PUSH2 0x3A32 JUMP JUMPDEST PUSH1 0x0 DUP3 DUP2 MSTORE PUSH1 0x20 DUP2 SWAP1 MSTORE PUSH1 0x40 SWAP1 KECCAK256 PUSH1 0x1 ADD SLOAD PUSH2 0x1D6B DUP2 CALLER PUSH2 0x21E3 JUMP JUMPDEST PUSH2 0x6E7 DUP4 DUP4 PUSH2 0x226F JUMP JUMPDEST PUSH1 0x0 PUSH1 0x2 DUP1 SLOAD EQ ISZERO PUSH2 0x1D99 JUMPI PUSH1 0x40 MLOAD PUSH3 0x461BCD PUSH1 0xE5 SHL DUP2 MSTORE PUSH1 0x4 ADD PUSH2 0x758 SWAP1 PUSH2 0x3AAF JUMP JUMPDEST PUSH1 0x2 DUP1 SSTORE PUSH1 0x1 PUSH1 0x1 PUSH1 0xA0 SHL SUB DUP6 AND PUSH1 0x0 SWAP1 DUP2 MSTORE PUSH1 0x4 PUSH1 0x20 MSTORE PUSH1 0x40 SWAP1 KECCAK256 SLOAD DUP6 SWAP1 ISZERO DUP1 ISZERO SWAP1 PUSH2 0x1DE3 JUMPI POP PUSH1 0x1 PUSH1 0x1 PUSH1 0xA0 SHL SUB DUP2 AND PUSH20 0xA84D62F776606B9EEBD761E2D31F65442ECC437E EQ ISZERO JUMPDEST PUSH2 0x1DFF JUMPI PUSH1 0x40 MLOAD PUSH3 0x461BCD PUSH1 0xE5 SHL DUP2 MSTORE PUSH1 0x4 ADD PUSH2 0x758 SWAP1 PUSH2 0x3B1D JUMP JUMPDEST DUP6 PUSH2 0x1E09 DUP2 PUSH2 0x2291 JUMP JUMPDEST DUP4 PUSH4 0xFFFFFFFF AND DUP1 TIMESTAMP GT ISZERO PUSH2 0x1E30 JUMPI PUSH1 0x40 MLOAD PUSH3 0x461BCD PUSH1 0xE5 SHL DUP2 MSTORE PUSH1 0x4 ADD PUSH2 0x758 SWAP1 PUSH2 0x3AE6 JUMP JUMPDEST PUSH2 0x837 DUP9 DUP9 DUP9 PUSH1 0x1 PUSH2 0x2A4F JUMP JUMPDEST PUSH1 0x4 PUSH1 0x20 MSTORE PUSH32 0x674B36EC14CA1343904F60303CFE142028FE384EDE1BB8216405C2D715EEC2AA SLOAD PUSH20 0xC7A0E9429BBC262D97F3E87BF38A95CAE8B05EDA PUSH1 0x0 SWAP1 DUP2 MSTORE PUSH32 0xD4DAA411513E44C00CBBDBCD7643E3F083AE7772D91F19E35D6B7F63CF386A45 SLOAD PUSH1 0x3 DUP1 SLOAD SWAP3 SWAP4 DUP5 SWAP4 SWAP1 SWAP3 SWAP2 SWAP1 DUP4 SWAP1 DUP2 LT PUSH2 0x1EBC JUMPI PUSH2 0x1EBC PUSH2 0x3A32 JUMP JUMPDEST SWAP1 PUSH1 0x0 MSTORE PUSH1 0x20 PUSH1 0x0 KECCAK256 SWAP1 PUSH1 0x3 MUL ADD PUSH1 0x1 ADD PUSH1 0x0 SWAP1 SLOAD SWAP1 PUSH2 0x100 EXP SWAP1 DIV PUSH1 0x1 PUSH1 0x1 PUSH1 0x70 SHL SUB AND PUSH1 0x1 PUSH1 0x1 PUSH1 0x70 SHL SUB AND PUSH1 0x3 DUP4 DUP2 SLOAD DUP2 LT PUSH2 0x1EFD JUMPI PUSH2 0x1EFD PUSH2 0x3A32 JUMP JUMPDEST PUSH1 0x0 SWAP2 DUP3 MSTORE PUSH1 0x20 SWAP1 SWAP2 KECCAK256 PUSH1 0x3 SWAP1 SWAP2 MUL ADD PUSH1 0x1 ADD SLOAD PUSH2 0x1F33 SWAP1 PUSH1 0x1 PUSH1 0x70 SHL SWAP1 DIV PUSH1 0x1 PUSH1 0x1 PUSH1 0x70 SHL SUB AND PUSH8 0xDE0B6B3A7640000 PUSH2 0x3BAB JUMP JUMPDEST PUSH2 0x1F3D SWAP2 SWAP1 PUSH2 0x3BE0 JUMP JUMPDEST PUSH1 0x3 DUP3 DUP2 SLOAD DUP2 LT PUSH2 0x1F50 JUMPI PUSH2 0x1F50 PUSH2 0x3A32 JUMP JUMPDEST SWAP1 PUSH1 0x0 MSTORE PUSH1 0x20 PUSH1 0x0 KECCAK256 SWAP1 PUSH1 0x3 MUL ADD PUSH1 0x1 ADD PUSH1 0x0 SWAP1 SLOAD SWAP1 PUSH2 0x100 EXP SWAP1 DIV PUSH1 0x1 PUSH1 0x1 PUSH1 0x70 SHL SUB AND PUSH1 0x1 PUSH1 0x1 PUSH1 0x70 SHL SUB AND PUSH1 0x3 DUP4 DUP2 SLOAD DUP2 LT PUSH2 0x1F91 JUMPI PUSH2 0x1F91 PUSH2 0x3A32 JUMP JUMPDEST PUSH1 0x0 SWAP2 DUP3 MSTORE PUSH1 0x20 SWAP1 SWAP2 KECCAK256 PUSH1 0x3 SWAP1 SWAP2 MUL ADD PUSH1 0x1 ADD SLOAD PUSH2 0x1FC7 SWAP1 PUSH1 0x1 PUSH1 0x70 SHL SWAP1 DIV PUSH1 0x1 PUSH1 0x1 PUSH1 0x70 SHL SUB AND PUSH8 0xDE0B6B3A7640000 PUSH2 0x3BAB JUMP JUMPDEST PUSH2 0x1FD1 SWAP2 SWAP1 PUSH2 0x3BE0 JUMP JUMPDEST SWAP4 POP SWAP4 POP POP POP SWAP1 SWAP2 JUMP JUMPDEST PUSH1 0x0 PUSH2 0x167E DUP3 PUSH1 0x3 DUP6 DUP2 SLOAD DUP2 LT PUSH2 0x1FF4 JUMPI PUSH2 0x1FF4 PUSH2 0x3A32 JUMP JUMPDEST SWAP1 PUSH1 0x0 MSTORE PUSH1 0x20 PUSH1 0x0 KECCAK256 SWAP1 PUSH1 0x3 MUL ADD PUSH1 0x1 ADD PUSH1 0xE SWAP1 SLOAD SWAP1 PUSH2 0x100 EXP SWAP1 DIV PUSH1 0x1 PUSH1 0x1 PUSH1 0x70 SHL SUB AND PUSH1 0x1 PUSH1 0x1 PUSH1 0x70 SHL SUB AND PUSH1 0x3 DUP7 DUP2 SLOAD DUP2 LT PUSH2 0x2035 JUMPI PUSH2 0x2035 PUSH2 0x3A32 JUMP JUMPDEST PUSH1 0x0 SWAP2 DUP3 MSTORE PUSH1 0x20 SWAP1 SWAP2 KECCAK256 PUSH1 0x1 PUSH1 0x3 SWAP1 SWAP3 MUL ADD ADD SLOAD PUSH1 0x1 PUSH1 0x1 PUSH1 0x70 SHL SUB AND PUSH2 0x1D2F DUP8 PUSH2 0xF44 JUMP JUMPDEST PUSH1 0x0 PUSH1 0x2 DUP1 SLOAD EQ ISZERO PUSH2 0x207F JUMPI PUSH1 0x40 MLOAD PUSH3 0x461BCD PUSH1 0xE5 SHL DUP2 MSTORE PUSH1 0x4 ADD PUSH2 0x758 SWAP1 PUSH2 0x3AAF JUMP JUMPDEST PUSH1 0x2 DUP1 SSTORE PUSH4 0xFFFFFFFF DUP3 AND TIMESTAMP DUP2 LT ISZERO PUSH2 0x20AA JUMPI PUSH1 0x40 MLOAD PUSH3 0x461BCD PUSH1 0xE5 SHL DUP2 MSTORE PUSH1 0x4 ADD PUSH2 0x758 SWAP1 PUSH2 0x3AE6 JUMP JUMPDEST PUSH1 0x1 PUSH1 0x1 PUSH1 0xA0 SHL SUB DUP8 AND PUSH1 0x0 SWAP1 DUP2 MSTORE PUSH1 0x4 PUSH1 0x20 MSTORE PUSH1 0x40 SWAP1 KECCAK256 SLOAD DUP8 SWAP1 ISZERO DUP1 ISZERO SWAP1 PUSH2 0x20F0 JUMPI POP PUSH1 0x1 PUSH1 0x1 PUSH1 0xA0 SHL SUB DUP2 AND PUSH20 0xA84D62F776606B9EEBD761E2D31F65442ECC437E EQ ISZERO JUMPDEST PUSH2 0x210C JUMPI PUSH1 0x40 MLOAD PUSH3 0x461BCD PUSH1 0xE5 SHL DUP2 MSTORE PUSH1 0x4 ADD PUSH2 0x758 SWAP1 PUSH2 0x3B1D JUMP JUMPDEST DUP8 PUSH2 0x2116 DUP2 PUSH2 0x2291 JUMP JUMPDEST PUSH1 0x0 PUSH2 0x2125 DUP11 DUP10 PUSH1 0x0 DUP1 PUSH2 0x2396 JUMP JUMPDEST SWAP1 POP PUSH1 0x0 PUSH2 0x2136 DUP11 DUP4 DUP11 PUSH1 0x0 PUSH2 0x2A4F JUMP JUMPDEST PUSH1 0x1 PUSH1 0x2 SSTORE SWAP12 SWAP11 POP POP POP POP POP POP POP POP POP POP POP JUMP JUMPDEST PUSH2 0x2154 DUP3 DUP3 PUSH2 0x1685 JUMP JUMPDEST PUSH2 0x76B JUMPI PUSH1 0x0 DUP3 DUP2 MSTORE PUSH1 0x20 DUP2 DUP2 MSTORE PUSH1 0x40 DUP1 DUP4 KECCAK256 PUSH1 0x1 PUSH1 0x1 PUSH1 0xA0 SHL SUB DUP6 AND DUP5 MSTORE SWAP1 SWAP2 MSTORE SWAP1 KECCAK256 DUP1 SLOAD PUSH1 0xFF NOT AND PUSH1 0x1 OR SWAP1 SSTORE PUSH2 0x218A CALLER SWAP1 JUMP JUMPDEST PUSH1 0x1 PUSH1 0x1 PUSH1 0xA0 SHL SUB AND DUP2 PUSH1 0x1 PUSH1 0x1 PUSH1 0xA0 SHL SUB AND DUP4 PUSH32 0x2F8788117E7EFF1D82E926EC794901D17C78024A50270940304540A733656F0D PUSH1 0x40 MLOAD PUSH1 0x40 MLOAD DUP1 SWAP2 SUB SWAP1 LOG4 POP POP JUMP JUMPDEST PUSH1 0x0 PUSH2 0x167E DUP4 PUSH1 0x1 PUSH1 0x1 PUSH1 0xA0 SHL SUB DUP5 AND PUSH2 0x2E5C JUMP JUMPDEST PUSH2 0x21ED DUP3 DUP3 PUSH2 0x1685 JUMP JUMPDEST PUSH2 0x76B JUMPI PUSH2 0x2205 DUP2 PUSH1 0x1 PUSH1 0x1 PUSH1 0xA0 SHL SUB AND PUSH1 0x14 PUSH2 0x2EAB JUMP JUMPDEST PUSH2 0x2210 DUP4 PUSH1 0x20 PUSH2 0x2EAB JUMP JUMPDEST PUSH1 0x40 MLOAD PUSH1 0x20 ADD PUSH2 0x2221 SWAP3 SWAP2 SWAP1 PUSH2 0x3D1F JUMP JUMPDEST PUSH1 0x40 DUP1 MLOAD PUSH1 0x1F NOT DUP2 DUP5 SUB ADD DUP2 MSTORE SWAP1 DUP3 SWAP1 MSTORE PUSH3 0x461BCD PUSH1 0xE5 SHL DUP3 MSTORE PUSH2 0x758 SWAP2 PUSH1 0x4 ADD PUSH2 0x3D94 JUMP JUMPDEST PUSH2 0x76B DUP3 DUP3 JUMPDEST PUSH2 0x2257 DUP3 DUP3 PUSH2 0x214A JUMP JUMPDEST PUSH1 0x0 DUP3 DUP2 MSTORE PUSH1 0x1 PUSH1 0x20 MSTORE PUSH1 0x40 SWAP1 KECCAK256 PUSH2 0x6E7 SWAP1 DUP3 PUSH2 0x21CE JUMP JUMPDEST PUSH2 0x2279 DUP3 DUP3 PUSH2 0x3047 JUMP JUMPDEST PUSH1 0x0 DUP3 DUP2 MSTORE PUSH1 0x1 PUSH1 0x20 MSTORE PUSH1 0x40 SWAP1 KECCAK256 PUSH2 0x6E7 SWAP1 DUP3 PUSH2 0x30AC JUMP JUMPDEST PUSH1 0x1 PUSH1 0x1 PUSH1 0xA0 SHL SUB DUP2 AND PUSH1 0x0 DUP2 DUP2 MSTORE PUSH1 0x4 PUSH1 0x20 DUP2 SWAP1 MSTORE PUSH1 0x40 DUP1 DUP4 KECCAK256 SLOAD SWAP1 MLOAD PUSH4 0x70A08231 PUSH1 0xE0 SHL DUP2 MSTORE ADDRESS SWAP3 DUP2 ADD SWAP3 SWAP1 SWAP3 MSTORE SWAP3 SWAP1 PUSH4 0x70A08231 SWAP1 PUSH1 0x24 ADD PUSH1 0x20 PUSH1 0x40 MLOAD DUP1 DUP4 SUB DUP2 DUP7 GAS STATICCALL ISZERO DUP1 ISZERO PUSH2 0x22E9 JUMPI RETURNDATASIZE PUSH1 0x0 DUP1 RETURNDATACOPY RETURNDATASIZE PUSH1 0x0 REVERT JUMPDEST POP POP POP POP PUSH1 0x40 MLOAD RETURNDATASIZE PUSH1 0x1F NOT PUSH1 0x1F DUP3 ADD AND DUP3 ADD DUP1 PUSH1 0x40 MSTORE POP DUP2 ADD SWAP1 PUSH2 0x230D SWAP2 SWAP1 PUSH2 0x3A96 JUMP JUMPDEST SWAP1 POP PUSH1 0x3 DUP3 DUP2 SLOAD DUP2 LT PUSH2 0x2322 JUMPI PUSH2 0x2322 PUSH2 0x3A32 JUMP JUMPDEST PUSH1 0x0 SWAP2 DUP3 MSTORE PUSH1 0x20 SWAP1 SWAP2 KECCAK256 PUSH1 0x1 PUSH1 0x3 SWAP1 SWAP3 MUL ADD ADD SLOAD PUSH1 0x1 PUSH1 0x1 PUSH1 0x70 SHL SUB DUP3 DUP2 AND SWAP2 AND EQ PUSH2 0x6E7 JUMPI DUP1 PUSH1 0x3 DUP4 DUP2 SLOAD DUP2 LT PUSH2 0x235C JUMPI PUSH2 0x235C PUSH2 0x3A32 JUMP JUMPDEST SWAP1 PUSH1 0x0 MSTORE PUSH1 0x20 PUSH1 0x0 KECCAK256 SWAP1 PUSH1 0x3 MUL ADD PUSH1 0x1 ADD PUSH1 0x0 PUSH2 0x100 EXP DUP2 SLOAD DUP2 PUSH1 0x1 PUSH1 0x1 PUSH1 0x70 SHL SUB MUL NOT AND SWAP1 DUP4 PUSH1 0x1 PUSH1 0x1 PUSH1 0x70 SHL SUB AND MUL OR SWAP1 SSTORE POP POP POP POP JUMP JUMPDEST PUSH1 0x40 MLOAD PUSH4 0x70A08231 PUSH1 0xE0 SHL DUP2 MSTORE ADDRESS PUSH1 0x4 DUP3 ADD MSTORE PUSH1 0x0 SWAP1 DUP6 SWAP1 PUSH1 0x1 PUSH1 0x1 PUSH1 0x70 SHL SUB DUP7 AND SWAP1 DUP4 SWAP1 PUSH1 0x1 PUSH1 0x1 PUSH1 0xA0 SHL SUB DUP5 AND SWAP1 PUSH4 0x70A08231 SWAP1 PUSH1 0x24 ADD PUSH1 0x20 PUSH1 0x40 MLOAD DUP1 DUP4 SUB DUP2 DUP7 GAS STATICCALL ISZERO DUP1 ISZERO PUSH2 0x23EC JUMPI RETURNDATASIZE PUSH1 0x0 DUP1 RETURNDATACOPY RETURNDATASIZE PUSH1 0x0 REVERT JUMPDEST POP POP POP POP PUSH1 0x40 MLOAD RETURNDATASIZE PUSH1 0x1F NOT PUSH1 0x1F DUP3 ADD AND DUP3 ADD DUP1 PUSH1 0x40 MSTORE POP DUP2 ADD SWAP1 PUSH2 0x2410 SWAP2 SWAP1 PUSH2 0x3A96 JUMP JUMPDEST SWAP1 POP PUSH2 0x2427 PUSH1 0x1 PUSH1 0x1 PUSH1 0xA0 SHL SUB DUP5 AND CALLER ADDRESS DUP6 PUSH2 0x292E JUMP JUMPDEST PUSH1 0x40 MLOAD PUSH4 0x70A08231 PUSH1 0xE0 SHL DUP2 MSTORE ADDRESS PUSH1 0x4 DUP3 ADD MSTORE PUSH1 0x0 SWAP1 PUSH1 0x1 PUSH1 0x1 PUSH1 0xA0 SHL SUB DUP6 AND SWAP1 PUSH4 0x70A08231 SWAP1 PUSH1 0x24 ADD PUSH1 0x20 PUSH1 0x40 MLOAD DUP1 DUP4 SUB DUP2 DUP7 GAS STATICCALL ISZERO DUP1 ISZERO PUSH2 0x246E JUMPI RETURNDATASIZE PUSH1 0x0 DUP1 RETURNDATACOPY RETURNDATASIZE PUSH1 0x0 REVERT JUMPDEST POP POP POP POP PUSH1 0x40 MLOAD RETURNDATASIZE PUSH1 0x1F NOT PUSH1 0x1F DUP3 ADD AND DUP3 ADD DUP1 PUSH1 0x40 MSTORE POP DUP2 ADD SWAP1 PUSH2 0x2492 SWAP2 SWAP1 PUSH2 0x3A96 JUMP JUMPDEST SWAP1 POP PUSH2 0x249E DUP4 DUP4 PUSH2 0x3B47 JUMP JUMPDEST DUP2 LT ISZERO PUSH2 0x24BD JUMPI PUSH1 0x40 MLOAD PUSH3 0x461BCD PUSH1 0xE5 SHL DUP2 MSTORE PUSH1 0x4 ADD PUSH2 0x758 SWAP1 PUSH2 0x3B5F JUMP JUMPDEST PUSH1 0x1 PUSH1 0x1 PUSH1 0xA0 SHL SUB DUP10 AND PUSH1 0x0 SWAP1 DUP2 MSTORE PUSH1 0x4 PUSH1 0x20 MSTORE PUSH1 0x40 DUP2 KECCAK256 SLOAD PUSH1 0x3 DUP1 SLOAD SWAP2 SWAP3 SWAP2 DUP4 SWAP1 DUP2 LT PUSH2 0x24ED JUMPI PUSH2 0x24ED PUSH2 0x3A32 JUMP JUMPDEST PUSH1 0x0 SWAP2 DUP3 MSTORE PUSH1 0x20 SWAP1 SWAP2 KECCAK256 PUSH1 0x3 SWAP1 SWAP2 MUL ADD PUSH1 0x1 ADD SLOAD PUSH1 0x40 MLOAD PUSH4 0x70A08231 PUSH1 0xE0 SHL DUP2 MSTORE ADDRESS PUSH1 0x4 DUP3 ADD MSTORE PUSH1 0x1 PUSH1 0x1 PUSH1 0x70 SHL SUB SWAP1 SWAP2 AND SWAP1 PUSH1 0x1 PUSH1 0x1 PUSH1 0xA0 SHL SUB DUP14 AND SWAP1 PUSH4 0x70A08231 SWAP1 PUSH1 0x24 ADD PUSH1 0x20 PUSH1 0x40 MLOAD DUP1 DUP4 SUB DUP2 DUP7 GAS STATICCALL ISZERO DUP1 ISZERO PUSH2 0x2551 JUMPI RETURNDATASIZE PUSH1 0x0 DUP1 RETURNDATACOPY RETURNDATASIZE PUSH1 0x0 REVERT JUMPDEST POP POP POP POP PUSH1 0x40 MLOAD RETURNDATASIZE PUSH1 0x1F NOT PUSH1 0x1F DUP3 ADD AND DUP3 ADD DUP1 PUSH1 0x40 MSTORE POP DUP2 ADD SWAP1 PUSH2 0x2575 SWAP2 SWAP1 PUSH2 0x3A96 JUMP JUMPDEST PUSH2 0x257F SWAP2 SWAP1 PUSH2 0x3CA0 JUMP JUMPDEST SWAP1 POP PUSH1 0x0 PUSH2 0x2596 DUP4 DUP4 PUSH1 0x1 PUSH1 0x1 PUSH1 0x70 SHL SUB AND PUSH2 0x1CA8 JUMP JUMPDEST SWAP1 POP DUP10 PUSH1 0x1 PUSH1 0x1 PUSH1 0x70 SHL SUB AND DUP2 PUSH1 0x1 PUSH1 0x1 PUSH1 0x70 SHL SUB AND LT ISZERO PUSH2 0x25CA JUMPI PUSH1 0x40 MLOAD PUSH3 0x461BCD PUSH1 0xE5 SHL DUP2 MSTORE PUSH1 0x4 ADD PUSH2 0x758 SWAP1 PUSH2 0x3DC7 JUMP JUMPDEST PUSH1 0x0 PUSH1 0x3 DUP5 DUP2 SLOAD DUP2 LT PUSH2 0x25DF JUMPI PUSH2 0x25DF PUSH2 0x3A32 JUMP JUMPDEST SWAP1 PUSH1 0x0 MSTORE PUSH1 0x20 PUSH1 0x0 KECCAK256 SWAP1 PUSH1 0x3 MUL ADD PUSH1 0x1 ADD PUSH1 0xE SWAP1 SLOAD SWAP1 PUSH2 0x100 EXP SWAP1 DIV PUSH1 0x1 PUSH1 0x1 PUSH1 0x70 SHL SUB AND PUSH1 0x1 PUSH1 0x1 PUSH1 0x70 SHL SUB AND PUSH1 0x3 DUP6 DUP2 SLOAD DUP2 LT PUSH2 0x2620 JUMPI PUSH2 0x2620 PUSH2 0x3A32 JUMP JUMPDEST PUSH1 0x0 SWAP2 DUP3 MSTORE PUSH1 0x20 SWAP1 SWAP2 KECCAK256 PUSH1 0x1 PUSH1 0x3 SWAP1 SWAP3 MUL ADD ADD SLOAD PUSH2 0x2647 SWAP2 SWAP1 PUSH1 0x1 PUSH1 0x1 PUSH1 0x70 SHL SUB AND PUSH2 0x3BAB JUMP JUMPDEST SWAP1 POP PUSH1 0x0 PUSH2 0x2653 PUSH2 0x16B7 JUMP JUMPDEST SWAP1 POP PUSH1 0x0 PUSH1 0x8 PUSH2 0x2664 DUP4 PUSH1 0x1 PUSH2 0x3B47 JUMP JUMPDEST PUSH2 0x266E SWAP2 SWAP1 PUSH2 0x3CC8 JUMP JUMPDEST SWAP1 POP DUP4 PUSH1 0x3 DUP8 DUP2 SLOAD DUP2 LT PUSH2 0x2684 JUMPI PUSH2 0x2684 PUSH2 0x3A32 JUMP JUMPDEST SWAP1 PUSH1 0x0 MSTORE PUSH1 0x20 PUSH1 0x0 KECCAK256 SWAP1 PUSH1 0x3 MUL ADD PUSH1 0x1 ADD PUSH1 0xE DUP3 DUP3 DUP3 SWAP1 SLOAD SWAP1 PUSH2 0x100 EXP SWAP1 DIV PUSH1 0x1 PUSH1 0x1 PUSH1 0x70 SHL SUB AND PUSH2 0x26B6 SWAP2 SWAP1 PUSH2 0x3CA0 JUMP JUMPDEST SWAP3 POP PUSH2 0x100 EXP DUP2 SLOAD DUP2 PUSH1 0x1 PUSH1 0x1 PUSH1 0x70 SHL SUB MUL NOT AND SWAP1 DUP4 PUSH1 0x1 PUSH1 0x1 PUSH1 0x70 SHL SUB AND MUL OR SWAP1 SSTORE POP DUP14 PUSH1 0x3 DUP8 DUP2 SLOAD DUP2 LT PUSH2 0x26EE JUMPI PUSH2 0x26EE PUSH2 0x3A32 JUMP JUMPDEST PUSH1 0x0 SWAP2 DUP3 MSTORE PUSH1 0x20 DUP3 KECCAK256 PUSH1 0x1 PUSH1 0x3 SWAP1 SWAP3 MUL ADD ADD DUP1 SLOAD SWAP1 SWAP2 SWAP1 PUSH2 0x2719 SWAP1 DUP5 SWAP1 PUSH1 0x1 PUSH1 0x1 PUSH1 0x70 SHL SUB AND PUSH2 0x3C46 JUMP JUMPDEST SWAP3 POP PUSH2 0x100 EXP DUP2 SLOAD DUP2 PUSH1 0x1 PUSH1 0x1 PUSH1 0x70 SHL SUB MUL NOT AND SWAP1 DUP4 PUSH1 0x1 PUSH1 0x1 PUSH1 0x70 SHL SUB AND MUL OR SWAP1 SSTORE POP PUSH8 0xDE0B6B3A7640000 DUP5 PUSH2 0x2751 SWAP2 SWAP1 PUSH2 0x3E15 JUMP JUMPDEST PUSH1 0x3 DUP8 DUP2 SLOAD DUP2 LT PUSH2 0x2764 JUMPI PUSH2 0x2764 PUSH2 0x3A32 JUMP JUMPDEST SWAP1 PUSH1 0x0 MSTORE PUSH1 0x20 PUSH1 0x0 KECCAK256 SWAP1 PUSH1 0x3 MUL ADD PUSH1 0x2 ADD DUP4 PUSH1 0x8 DUP2 LT PUSH2 0x2786 JUMPI PUSH2 0x2786 PUSH2 0x3A32 JUMP JUMPDEST PUSH1 0x8 SWAP2 DUP3 DUP3 DIV ADD SWAP2 SWAP1 MOD PUSH1 0x4 MUL DUP3 DUP3 DUP3 SWAP1 SLOAD SWAP1 PUSH2 0x100 EXP SWAP1 DIV PUSH4 0xFFFFFFFF AND PUSH2 0x27AF SWAP2 SWAP1 PUSH2 0x3E3B JUMP JUMPDEST SWAP3 POP PUSH2 0x100 EXP DUP2 SLOAD DUP2 PUSH4 0xFFFFFFFF MUL NOT AND SWAP1 DUP4 PUSH4 0xFFFFFFFF AND MUL OR SWAP1 SSTORE POP PUSH1 0x0 PUSH1 0x3 DUP8 DUP2 SLOAD DUP2 LT PUSH2 0x27E2 JUMPI PUSH2 0x27E2 PUSH2 0x3A32 JUMP JUMPDEST SWAP1 PUSH1 0x0 MSTORE PUSH1 0x20 PUSH1 0x0 KECCAK256 SWAP1 PUSH1 0x3 MUL ADD PUSH1 0x2 ADD DUP3 PUSH1 0x8 DUP2 LT PUSH2 0x2804 JUMPI PUSH2 0x2804 PUSH2 0x3A32 JUMP JUMPDEST PUSH1 0x8 SWAP2 DUP3 DUP3 DIV ADD SWAP2 SWAP1 MOD PUSH1 0x4 MUL SWAP1 SLOAD SWAP1 PUSH2 0x100 EXP SWAP1 DIV PUSH4 0xFFFFFFFF AND PUSH4 0xFFFFFFFF AND GT ISZERO PUSH2 0x288D JUMPI PUSH1 0x0 PUSH1 0x3 DUP8 DUP2 SLOAD DUP2 LT PUSH2 0x2841 JUMPI PUSH2 0x2841 PUSH2 0x3A32 JUMP JUMPDEST SWAP1 PUSH1 0x0 MSTORE PUSH1 0x20 PUSH1 0x0 KECCAK256 SWAP1 PUSH1 0x3 MUL ADD PUSH1 0x2 ADD DUP3 PUSH1 0x8 DUP2 LT PUSH2 0x2863 JUMPI PUSH2 0x2863 PUSH2 0x3A32 JUMP JUMPDEST PUSH1 0x8 SWAP2 DUP3 DUP3 DIV ADD SWAP2 SWAP1 MOD PUSH1 0x4 MUL PUSH2 0x100 EXP DUP2 SLOAD DUP2 PUSH4 0xFFFFFFFF MUL NOT AND SWAP1 DUP4 PUSH4 0xFFFFFFFF AND MUL OR SWAP1 SSTORE POP JUMPDEST POP POP DUP10 ISZERO PUSH2 0x2913 JUMPI PUSH1 0x40 MLOAD PUSH4 0xA9059CBB PUSH1 0xE0 SHL DUP2 MSTORE PUSH20 0xA84D62F776606B9EEBD761E2D31F65442ECC437E SWAP1 PUSH4 0xA9059CBB SWAP1 PUSH2 0x28CE SWAP1 CALLER SWAP1 DUP7 SWAP1 PUSH1 0x4 ADD PUSH2 0x3BF4 JUMP JUMPDEST PUSH1 0x20 PUSH1 0x40 MLOAD DUP1 DUP4 SUB DUP2 PUSH1 0x0 DUP8 GAS CALL ISZERO DUP1 ISZERO PUSH2 0x28ED JUMPI RETURNDATASIZE PUSH1 0x0 DUP1 RETURNDATACOPY RETURNDATASIZE PUSH1 0x0 REVERT JUMPDEST POP POP POP POP PUSH1 0x40 MLOAD RETURNDATASIZE PUSH1 0x1F NOT PUSH1 0x1F DUP3 ADD AND DUP3 ADD DUP1 PUSH1 0x40 MSTORE POP DUP2 ADD SWAP1 PUSH2 0x2911 SWAP2 SWAP1 PUSH2 0x3E5A JUMP JUMPDEST POP JUMPDEST PUSH2 0x291E DUP5 DUP15 DUP4 PUSH2 0x30C1 JUMP JUMPDEST POP SWAP12 SWAP11 POP POP POP POP POP POP POP POP POP POP POP JUMP JUMPDEST PUSH1 0x40 MLOAD PUSH1 0x1 PUSH1 0x1 PUSH1 0xA0 SHL SUB DUP1 DUP6 AND PUSH1 0x24 DUP4 ADD MSTORE DUP4 AND PUSH1 0x44 DUP3 ADD MSTORE PUSH1 0x64 DUP2 ADD DUP3 SWAP1 MSTORE PUSH2 0x4D3 SWAP1 DUP6 SWAP1 PUSH4 0x23B872DD PUSH1 0xE0 SHL SWAP1 PUSH1 0x84 ADD JUMPDEST PUSH1 0x40 DUP1 MLOAD PUSH1 0x1F NOT DUP2 DUP5 SUB ADD DUP2 MSTORE SWAP2 SWAP1 MSTORE PUSH1 0x20 DUP2 ADD DUP1 MLOAD PUSH1 0x1 PUSH1 0x1 PUSH1 0xE0 SHL SUB AND PUSH1 0x1 PUSH1 0x1 PUSH1 0xE0 SHL SUB NOT SWAP1 SWAP4 AND SWAP3 SWAP1 SWAP3 OR SWAP1 SWAP2 MSTORE PUSH2 0x324A JUMP JUMPDEST PUSH1 0x0 PUSH2 0x167E DUP4 DUP4 PUSH2 0x331C JUMP JUMPDEST PUSH1 0x0 DUP1 PUSH1 0x2 PUSH2 0x29B5 DUP5 PUSH1 0x1 PUSH2 0x3B47 JUMP JUMPDEST PUSH2 0x29BF SWAP2 SWAP1 PUSH2 0x3BE0 JUMP JUMPDEST SWAP1 POP DUP3 SWAP2 POP JUMPDEST DUP2 DUP2 LT ISZERO PUSH2 0x29F8 JUMPI SWAP1 POP DUP1 PUSH1 0x2 DUP2 PUSH2 0x29DD DUP2 DUP7 PUSH2 0x3BE0 JUMP JUMPDEST PUSH2 0x29E7 SWAP2 SWAP1 PUSH2 0x3B47 JUMP JUMPDEST PUSH2 0x29F1 SWAP2 SWAP1 PUSH2 0x3BE0 JUMP JUMPDEST SWAP1 POP PUSH2 0x29C5 JUMP JUMPDEST POP SWAP2 SWAP1 POP JUMP JUMPDEST PUSH1 0x0 PUSH2 0x550 DUP3 SLOAD SWAP1 JUMP JUMPDEST PUSH1 0x0 DUP1 PUSH2 0x2A15 DUP4 DUP8 PUSH2 0x3BAB JUMP JUMPDEST SWAP1 POP PUSH1 0x0 DUP2 PUSH2 0x2A26 PUSH2 0x2710 DUP9 PUSH2 0x3BAB JUMP JUMPDEST PUSH2 0x2A30 SWAP2 SWAP1 PUSH2 0x3B47 JUMP JUMPDEST PUSH2 0x2A3A DUP4 DUP8 PUSH2 0x3BAB JUMP JUMPDEST PUSH2 0x2A44 SWAP2 SWAP1 PUSH2 0x3BE0 JUMP JUMPDEST SWAP8 SWAP7 POP POP POP POP POP POP POP JUMP JUMPDEST PUSH1 0x0 DUP2 ISZERO PUSH2 0x2AE3 JUMPI PUSH1 0x40 MLOAD PUSH4 0x23B872DD PUSH1 0xE0 SHL DUP2 MSTORE CALLER PUSH1 0x4 DUP3 ADD MSTORE ADDRESS PUSH1 0x24 DUP3 ADD MSTORE PUSH1 0x1 PUSH1 0x1 PUSH1 0x70 SHL SUB DUP6 AND PUSH1 0x44 DUP3 ADD MSTORE PUSH20 0xA84D62F776606B9EEBD761E2D31F65442ECC437E SWAP1 PUSH4 0x23B872DD SWAP1 PUSH1 0x64 ADD PUSH1 0x20 PUSH1 0x40 MLOAD DUP1 DUP4 SUB DUP2 PUSH1 0x0 DUP8 GAS CALL ISZERO DUP1 ISZERO PUSH2 0x2ABD JUMPI RETURNDATASIZE PUSH1 0x0 DUP1 RETURNDATACOPY RETURNDATASIZE PUSH1 0x0 REVERT JUMPDEST POP POP POP POP PUSH1 0x40 MLOAD RETURNDATASIZE PUSH1 0x1F NOT PUSH1 0x1F DUP3 ADD AND DUP3 ADD DUP1 PUSH1 0x40 MSTORE POP DUP2 ADD SWAP1 PUSH2 0x2AE1 SWAP2 SWAP1 PUSH2 0x3E5A JUMP JUMPDEST POP JUMPDEST PUSH1 0x1 PUSH1 0x1 PUSH1 0xA0 SHL SUB DUP6 AND PUSH1 0x0 SWAP1 DUP2 MSTORE PUSH1 0x4 PUSH1 0x20 MSTORE PUSH1 0x40 DUP2 KECCAK256 SLOAD SWAP1 PUSH2 0x2B10 DUP3 PUSH1 0x1 PUSH1 0x1 PUSH1 0x70 SHL SUB DUP9 AND PUSH2 0x1FDB JUMP JUMPDEST SWAP1 POP DUP5 PUSH1 0x1 PUSH1 0x1 PUSH1 0x70 SHL SUB AND DUP2 PUSH1 0x1 PUSH1 0x1 PUSH1 0x70 SHL SUB AND LT ISZERO PUSH2 0x2B44 JUMPI PUSH1 0x40 MLOAD PUSH3 0x461BCD PUSH1 0xE5 SHL DUP2 MSTORE PUSH1 0x4 ADD PUSH2 0x758 SWAP1 PUSH2 0x3DC7 JUMP JUMPDEST PUSH1 0x0 PUSH2 0x2B4E PUSH2 0x16B7 JUMP JUMPDEST SWAP1 POP PUSH1 0x0 PUSH1 0x3 DUP5 DUP2 SLOAD DUP2 LT PUSH2 0x2B65 JUMPI PUSH2 0x2B65 PUSH2 0x3A32 JUMP JUMPDEST POP PUSH1 0x0 MSTORE PUSH1 0x8 PUSH2 0x2B73 PUSH2 0x16B7 JUMP JUMPDEST PUSH2 0x2B7E SWAP1 PUSH1 0x1 PUSH2 0x3B47 JUMP JUMPDEST PUSH2 0x2B88 SWAP2 SWAP1 PUSH2 0x3CC8 JUMP JUMPDEST SWAP1 POP PUSH1 0x0 PUSH1 0x3 DUP6 DUP2 SLOAD DUP2 LT PUSH2 0x2B9F JUMPI PUSH2 0x2B9F PUSH2 0x3A32 JUMP JUMPDEST SWAP1 PUSH1 0x0 MSTORE PUSH1 0x20 PUSH1 0x0 KECCAK256 SWAP1 PUSH1 0x3 MUL ADD PUSH1 0x1 ADD PUSH1 0xE SWAP1 SLOAD SWAP1 PUSH2 0x100 EXP SWAP1 DIV PUSH1 0x1 PUSH1 0x1 PUSH1 0x70 SHL SUB AND PUSH1 0x1 PUSH1 0x1 PUSH1 0x70 SHL SUB AND PUSH1 0x3 DUP7 DUP2 SLOAD DUP2 LT PUSH2 0x2BE0 JUMPI PUSH2 0x2BE0 PUSH2 0x3A32 JUMP JUMPDEST PUSH1 0x0 SWAP2 DUP3 MSTORE PUSH1 0x20 SWAP1 SWAP2 KECCAK256 PUSH1 0x1 PUSH1 0x3 SWAP1 SWAP3 MUL ADD ADD SLOAD PUSH2 0x2C07 SWAP2 SWAP1 PUSH1 0x1 PUSH1 0x1 PUSH1 0x70 SHL SUB AND PUSH2 0x3BAB JUMP JUMPDEST SWAP1 POP DUP9 PUSH1 0x3 DUP7 DUP2 SLOAD DUP2 LT PUSH2 0x2C1D JUMPI PUSH2 0x2C1D PUSH2 0x3A32 JUMP JUMPDEST SWAP1 PUSH1 0x0 MSTORE PUSH1 0x20 PUSH1 0x0 KECCAK256 SWAP1 PUSH1 0x3 MUL ADD PUSH1 0x1 ADD PUSH1 0xE DUP3 DUP3 DUP3 SWAP1 SLOAD SWAP1 PUSH2 0x100 EXP SWAP1 DIV PUSH1 0x1 PUSH1 0x1 PUSH1 0x70 SHL SUB AND PUSH2 0x2C4F SWAP2 SWAP1 PUSH2 0x3C46 JUMP JUMPDEST SWAP3 POP PUSH2 0x100 EXP DUP2 SLOAD DUP2 PUSH1 0x1 PUSH1 0x1 PUSH1 0x70 SHL SUB MUL NOT AND SWAP1 DUP4 PUSH1 0x1 PUSH1 0x1 PUSH1 0x70 SHL SUB AND MUL OR SWAP1 SSTORE POP DUP4 PUSH1 0x3 DUP7 DUP2 SLOAD DUP2 LT PUSH2 0x2C87 JUMPI PUSH2 0x2C87 PUSH2 0x3A32 JUMP JUMPDEST PUSH1 0x0 SWAP2 DUP3 MSTORE PUSH1 0x20 DUP3 KECCAK256 PUSH1 0x1 PUSH1 0x3 SWAP1 SWAP3 MUL ADD ADD DUP1 SLOAD SWAP1 SWAP2 SWAP1 PUSH2 0x2CB2 SWAP1 DUP5 SWAP1 PUSH1 0x1 PUSH1 0x1 PUSH1 0x70 SHL SUB AND PUSH2 0x3CA0 JUMP JUMPDEST SWAP3 POP PUSH2 0x100 EXP DUP2 SLOAD DUP2 PUSH1 0x1 PUSH1 0x1 PUSH1 0x70 SHL SUB MUL NOT AND SWAP1 DUP4 PUSH1 0x1 PUSH1 0x1 PUSH1 0x70 SHL SUB AND MUL OR SWAP1 SSTORE POP PUSH8 0xDE0B6B3A7640000 DUP10 PUSH2 0x2CEA SWAP2 SWAP1 PUSH2 0x3E15 JUMP JUMPDEST PUSH1 0x3 DUP7 DUP2 SLOAD DUP2 LT PUSH2 0x2CFD JUMPI PUSH2 0x2CFD PUSH2 0x3A32 JUMP JUMPDEST SWAP1 PUSH1 0x0 MSTORE PUSH1 0x20 PUSH1 0x0 KECCAK256 SWAP1 PUSH1 0x3 MUL ADD PUSH1 0x2 ADD DUP5 PUSH1 0x8 DUP2 LT PUSH2 0x2D1F JUMPI PUSH2 0x2D1F PUSH2 0x3A32 JUMP JUMPDEST PUSH1 0x8 SWAP2 DUP3 DUP3 DIV ADD SWAP2 SWAP1 MOD PUSH1 0x4 MUL DUP3 DUP3 DUP3 SWAP1 SLOAD SWAP1 PUSH2 0x100 EXP SWAP1 DIV PUSH4 0xFFFFFFFF AND PUSH2 0x2D48 SWAP2 SWAP1 PUSH2 0x3E3B JUMP JUMPDEST SWAP3 POP PUSH2 0x100 EXP DUP2 SLOAD DUP2 PUSH4 0xFFFFFFFF MUL NOT AND SWAP1 DUP4 PUSH4 0xFFFFFFFF AND MUL OR SWAP1 SSTORE POP PUSH1 0x0 PUSH1 0x3 DUP7 DUP2 SLOAD DUP2 LT PUSH2 0x2D7B JUMPI PUSH2 0x2D7B PUSH2 0x3A32 JUMP JUMPDEST SWAP1 PUSH1 0x0 MSTORE PUSH1 0x20 PUSH1 0x0 KECCAK256 SWAP1 PUSH1 0x3 MUL ADD PUSH1 0x2 ADD DUP4 PUSH1 0x8 DUP2 LT PUSH2 0x2D9D JUMPI PUSH2 0x2D9D PUSH2 0x3A32 JUMP JUMPDEST PUSH1 0x8 SWAP2 DUP3 DUP3 DIV ADD SWAP2 SWAP1 MOD PUSH1 0x4 MUL SWAP1 SLOAD SWAP1 PUSH2 0x100 EXP SWAP1 DIV PUSH4 0xFFFFFFFF AND PUSH4 0xFFFFFFFF AND GT ISZERO PUSH2 0x2E26 JUMPI PUSH1 0x0 PUSH1 0x3 DUP7 DUP2 SLOAD DUP2 LT PUSH2 0x2DDA JUMPI PUSH2 0x2DDA PUSH2 0x3A32 JUMP JUMPDEST SWAP1 PUSH1 0x0 MSTORE PUSH1 0x20 PUSH1 0x0 KECCAK256 SWAP1 PUSH1 0x3 MUL ADD PUSH1 0x2 ADD DUP4 PUSH1 0x8 DUP2 LT PUSH2 0x2DFC JUMPI PUSH2 0x2DFC PUSH2 0x3A32 JUMP JUMPDEST PUSH1 0x8 SWAP2 DUP3 DUP3 DIV ADD SWAP2 SWAP1 MOD PUSH1 0x4 MUL PUSH2 0x100 EXP DUP2 SLOAD DUP2 PUSH4 0xFFFFFFFF MUL NOT AND SWAP1 DUP4 PUSH4 0xFFFFFFFF AND MUL OR SWAP1 SSTORE POP JUMPDEST PUSH2 0x2E43 PUSH1 0x1 PUSH1 0x1 PUSH1 0xA0 SHL SUB DUP12 AND CALLER PUSH1 0x1 PUSH1 0x1 PUSH1 0x70 SHL SUB DUP8 AND PUSH2 0x3346 JUMP JUMPDEST PUSH2 0x2E4E DUP6 DUP12 DUP4 PUSH2 0x30C1 JUMP JUMPDEST POP SWAP2 SWAP9 SWAP8 POP POP POP POP POP POP POP POP JUMP JUMPDEST PUSH1 0x0 DUP2 DUP2 MSTORE PUSH1 0x1 DUP4 ADD PUSH1 0x20 MSTORE PUSH1 0x40 DUP2 KECCAK256 SLOAD PUSH2 0x2EA3 JUMPI POP DUP2 SLOAD PUSH1 0x1 DUP2 DUP2 ADD DUP5 SSTORE PUSH1 0x0 DUP5 DUP2 MSTORE PUSH1 0x20 DUP1 DUP3 KECCAK256 SWAP1 SWAP4 ADD DUP5 SWAP1 SSTORE DUP5 SLOAD DUP5 DUP3 MSTORE DUP3 DUP7 ADD SWAP1 SWAP4 MSTORE PUSH1 0x40 SWAP1 KECCAK256 SWAP2 SWAP1 SWAP2 SSTORE PUSH2 0x550 JUMP JUMPDEST POP PUSH1 0x0 PUSH2 0x550 JUMP JUMPDEST PUSH1 0x60 PUSH1 0x0 PUSH2 0x2EBA DUP4 PUSH1 0x2 PUSH2 0x3BAB JUMP JUMPDEST PUSH2 0x2EC5 SWAP1 PUSH1 0x2 PUSH2 0x3B47 JUMP JUMPDEST PUSH8 0xFFFFFFFFFFFFFFFF DUP2 GT ISZERO PUSH2 0x2EDD JUMPI PUSH2 0x2EDD PUSH2 0x3E7C JUMP JUMPDEST PUSH1 0x40 MLOAD SWAP1 DUP1 DUP3 MSTORE DUP1 PUSH1 0x1F ADD PUSH1 0x1F NOT AND PUSH1 0x20 ADD DUP3 ADD PUSH1 0x40 MSTORE DUP1 ISZERO PUSH2 0x2F07 JUMPI PUSH1 0x20 DUP3 ADD DUP2 DUP1 CALLDATASIZE DUP4 CALLDATACOPY ADD SWAP1 POP JUMPDEST POP SWAP1 POP PUSH1 0x3 PUSH1 0xFC SHL DUP2 PUSH1 0x0 DUP2 MLOAD DUP2 LT PUSH2 0x2F22 JUMPI PUSH2 0x2F22 PUSH2 0x3A32 JUMP JUMPDEST PUSH1 0x20 ADD ADD SWAP1 PUSH1 0x1 PUSH1 0x1 PUSH1 0xF8 SHL SUB NOT AND SWAP1 DUP2 PUSH1 0x0 BYTE SWAP1 MSTORE8 POP PUSH1 0xF PUSH1 0xFB SHL DUP2 PUSH1 0x1 DUP2 MLOAD DUP2 LT PUSH2 0x2F51 JUMPI PUSH2 0x2F51 PUSH2 0x3A32 JUMP JUMPDEST PUSH1 0x20 ADD ADD SWAP1 PUSH1 0x1 PUSH1 0x1 PUSH1 0xF8 SHL SUB NOT AND SWAP1 DUP2 PUSH1 0x0 BYTE SWAP1 MSTORE8 POP PUSH1 0x0 PUSH2 0x2F75 DUP5 PUSH1 0x2 PUSH2 0x3BAB JUMP JUMPDEST PUSH2 0x2F80 SWAP1 PUSH1 0x1 PUSH2 0x3B47 JUMP JUMPDEST SWAP1 POP JUMPDEST PUSH1 0x1 DUP2 GT ISZERO PUSH2 0x2FF8 JUMPI PUSH16 0x181899199A1A9B1B9C1CB0B131B232B3 PUSH1 0x81 SHL DUP6 PUSH1 0xF AND PUSH1 0x10 DUP2 LT PUSH2 0x2FB4 JUMPI PUSH2 0x2FB4 PUSH2 0x3A32 JUMP JUMPDEST BYTE PUSH1 0xF8 SHL DUP3 DUP3 DUP2 MLOAD DUP2 LT PUSH2 0x2FCA JUMPI PUSH2 0x2FCA PUSH2 0x3A32 JUMP JUMPDEST PUSH1 0x20 ADD ADD SWAP1 PUSH1 0x1 PUSH1 0x1 PUSH1 0xF8 SHL SUB NOT AND SWAP1 DUP2 PUSH1 0x0 BYTE SWAP1 MSTORE8 POP PUSH1 0x4 SWAP5 SWAP1 SWAP5 SHR SWAP4 PUSH2 0x2FF1 DUP2 PUSH2 0x3E92 JUMP JUMPDEST SWAP1 POP PUSH2 0x2F83 JUMP JUMPDEST POP DUP4 ISZERO PUSH2 0x167E JUMPI PUSH1 0x40 MLOAD PUSH3 0x461BCD PUSH1 0xE5 SHL DUP2 MSTORE PUSH1 0x20 PUSH1 0x4 DUP3 ADD DUP2 SWAP1 MSTORE PUSH1 0x24 DUP3 ADD MSTORE PUSH32 0x537472696E67733A20686578206C656E67746820696E73756666696369656E74 PUSH1 0x44 DUP3 ADD MSTORE PUSH1 0x64 ADD PUSH2 0x758 JUMP JUMPDEST PUSH2 0x3051 DUP3 DUP3 PUSH2 0x1685 JUMP JUMPDEST ISZERO PUSH2 0x76B JUMPI PUSH1 0x0 DUP3 DUP2 MSTORE PUSH1 0x20 DUP2 DUP2 MSTORE PUSH1 0x40 DUP1 DUP4 KECCAK256 PUSH1 0x1 PUSH1 0x1 PUSH1 0xA0 SHL SUB DUP6 AND DUP1 DUP6 MSTORE SWAP3 MSTORE DUP1 DUP4 KECCAK256 DUP1 SLOAD PUSH1 0xFF NOT AND SWAP1 SSTORE MLOAD CALLER SWAP3 DUP6 SWAP2 PUSH32 0xF6391F5C32D9C69D2A47EA670B442974B53935D1EDC7FD64EB21E047A839171B SWAP2 SWAP1 LOG4 POP POP JUMP JUMPDEST PUSH1 0x0 PUSH2 0x167E DUP4 PUSH1 0x1 PUSH1 0x1 PUSH1 0xA0 SHL SUB DUP5 AND PUSH2 0x3376 JUMP JUMPDEST PUSH1 0x40 MLOAD PUSH4 0x70A08231 PUSH1 0xE0 SHL DUP2 MSTORE ADDRESS PUSH1 0x4 DUP3 ADD MSTORE PUSH1 0x0 SWAP1 PUSH1 0x1 PUSH1 0x1 PUSH1 0xA0 SHL SUB DUP5 AND SWAP1 PUSH4 0x70A08231 SWAP1 PUSH1 0x24 ADD PUSH1 0x20 PUSH1 0x40 MLOAD DUP1 DUP4 SUB DUP2 DUP7 GAS STATICCALL ISZERO DUP1 ISZERO PUSH2 0x3108 JUMPI RETURNDATASIZE PUSH1 0x0 DUP1 RETURNDATACOPY RETURNDATASIZE PUSH1 0x0 REVERT JUMPDEST POP POP POP POP PUSH1 0x40 MLOAD RETURNDATASIZE PUSH1 0x1F NOT PUSH1 0x1F DUP3 ADD AND DUP3 ADD DUP1 PUSH1 0x40 MSTORE POP DUP2 ADD SWAP1 PUSH2 0x312C SWAP2 SWAP1 PUSH2 0x3A96 JUMP JUMPDEST SWAP1 POP PUSH1 0x0 PUSH1 0x3 DUP6 DUP2 SLOAD DUP2 LT PUSH2 0x3143 JUMPI PUSH2 0x3143 PUSH2 0x3A32 JUMP JUMPDEST PUSH1 0x0 SWAP2 DUP3 MSTORE PUSH1 0x20 SWAP1 SWAP2 KECCAK256 PUSH1 0x1 PUSH1 0x3 SWAP1 SWAP3 MUL ADD ADD SLOAD PUSH2 0x3175 SWAP1 PUSH1 0x1 PUSH1 0x1 PUSH1 0x70 SHL SUB PUSH1 0x1 PUSH1 0x70 SHL SWAP1 SWAP2 DIV DUP2 AND SWAP1 DUP5 AND PUSH2 0x3BAB JUMP JUMPDEST SWAP1 POP DUP3 DUP2 LT ISZERO PUSH2 0x31C0 JUMPI PUSH1 0x40 MLOAD PUSH3 0x461BCD PUSH1 0xE5 SHL DUP2 MSTORE PUSH1 0x20 PUSH1 0x4 DUP3 ADD MSTORE PUSH1 0x16 PUSH1 0x24 DUP3 ADD MSTORE PUSH22 0x10D4CC4E8812C81D985B1D5948191958DC99585CD959 PUSH1 0x52 SHL PUSH1 0x44 DUP3 ADD MSTORE PUSH1 0x64 ADD PUSH2 0x758 JUMP JUMPDEST PUSH1 0x3 DUP6 DUP2 SLOAD DUP2 LT PUSH2 0x31D3 JUMPI PUSH2 0x31D3 PUSH2 0x3A32 JUMP JUMPDEST PUSH1 0x0 SWAP2 DUP3 MSTORE PUSH1 0x20 SWAP1 SWAP2 KECCAK256 PUSH1 0x1 PUSH1 0x3 SWAP1 SWAP3 MUL ADD ADD SLOAD PUSH1 0x1 PUSH1 0x1 PUSH1 0x70 SHL SUB DUP4 DUP2 AND SWAP2 AND EQ PUSH2 0x3243 JUMPI DUP2 PUSH1 0x3 DUP7 DUP2 SLOAD DUP2 LT PUSH2 0x320D JUMPI PUSH2 0x320D PUSH2 0x3A32 JUMP JUMPDEST SWAP1 PUSH1 0x0 MSTORE PUSH1 0x20 PUSH1 0x0 KECCAK256 SWAP1 PUSH1 0x3 MUL ADD PUSH1 0x1 ADD PUSH1 0x0 PUSH2 0x100 EXP DUP2 SLOAD DUP2 PUSH1 0x1 PUSH1 0x1 PUSH1 0x70 SHL SUB MUL NOT AND SWAP1 DUP4 PUSH1 0x1 PUSH1 0x1 PUSH1 0x70 SHL SUB AND MUL OR SWAP1 SSTORE POP JUMPDEST POP POP POP POP POP JUMP JUMPDEST PUSH1 0x0 PUSH2 0x329F DUP3 PUSH1 0x40 MLOAD DUP1 PUSH1 0x40 ADD PUSH1 0x40 MSTORE DUP1 PUSH1 0x20 DUP2 MSTORE PUSH1 0x20 ADD PUSH32 0x5361666545524332303A206C6F772D6C6576656C2063616C6C206661696C6564 DUP2 MSTORE POP DUP6 PUSH1 0x1 PUSH1 0x1 PUSH1 0xA0 SHL SUB AND PUSH2 0x3469 SWAP1 SWAP3 SWAP2 SWAP1 PUSH4 0xFFFFFFFF AND JUMP JUMPDEST DUP1 MLOAD SWAP1 SWAP2 POP ISZERO PUSH2 0x6E7 JUMPI DUP1 DUP1 PUSH1 0x20 ADD SWAP1 MLOAD DUP2 ADD SWAP1 PUSH2 0x32BD SWAP2 SWAP1 PUSH2 0x3E5A JUMP JUMPDEST PUSH2 0x6E7 JUMPI PUSH1 0x40 MLOAD PUSH3 0x461BCD PUSH1 0xE5 SHL DUP2 MSTORE PUSH1 0x20 PUSH1 0x4 DUP3 ADD MSTORE PUSH1 0x2A PUSH1 0x24 DUP3 ADD MSTORE PUSH32 0x5361666545524332303A204552433230206F7065726174696F6E20646964206E PUSH1 0x44 DUP3 ADD MSTORE PUSH10 0x1BDD081CDD58D8D95959 PUSH1 0xB2 SHL PUSH1 0x64 DUP3 ADD MSTORE PUSH1 0x84 ADD PUSH2 0x758 JUMP JUMPDEST PUSH1 0x0 DUP3 PUSH1 0x0 ADD DUP3 DUP2 SLOAD DUP2 LT PUSH2 0x3333 JUMPI PUSH2 0x3333 PUSH2 0x3A32 JUMP JUMPDEST SWAP1 PUSH1 0x0 MSTORE PUSH1 0x20 PUSH1 0x0 KECCAK256 ADD SLOAD SWAP1 POP SWAP3 SWAP2 POP POP JUMP JUMPDEST PUSH1 0x40 MLOAD PUSH1 0x1 PUSH1 0x1 PUSH1 0xA0 SHL SUB DUP4 AND PUSH1 0x24 DUP3 ADD MSTORE PUSH1 0x44 DUP2 ADD DUP3 SWAP1 MSTORE PUSH2 0x6E7 SWAP1 DUP5 SWAP1 PUSH4 0xA9059CBB PUSH1 0xE0 SHL SWAP1 PUSH1 0x64 ADD PUSH2 0x2962 JUMP JUMPDEST PUSH1 0x0 DUP2 DUP2 MSTORE PUSH1 0x1 DUP4 ADD PUSH1 0x20 MSTORE PUSH1 0x40 DUP2 KECCAK256 SLOAD DUP1 ISZERO PUSH2 0x345F JUMPI PUSH1 0x0 PUSH2 0x339A PUSH1 0x1 DUP4 PUSH2 0x3CDC JUMP JUMPDEST DUP6 SLOAD SWAP1 SWAP2 POP PUSH1 0x0 SWAP1 PUSH2 0x33AE SWAP1 PUSH1 0x1 SWAP1 PUSH2 0x3CDC JUMP JUMPDEST SWAP1 POP DUP2 DUP2 EQ PUSH2 0x3413 JUMPI PUSH1 0x0 DUP7 PUSH1 0x0 ADD DUP3 DUP2 SLOAD DUP2 LT PUSH2 0x33CE JUMPI PUSH2 0x33CE PUSH2 0x3A32 JUMP JUMPDEST SWAP1 PUSH1 0x0 MSTORE PUSH1 0x20 PUSH1 0x0 KECCAK256 ADD SLOAD SWAP1 POP DUP1 DUP8 PUSH1 0x0 ADD DUP5 DUP2 SLOAD DUP2 LT PUSH2 0x33F1 JUMPI PUSH2 0x33F1 PUSH2 0x3A32 JUMP JUMPDEST PUSH1 0x0 SWAP2 DUP3 MSTORE PUSH1 0x20 DUP1 DUP4 KECCAK256 SWAP1 SWAP2 ADD SWAP3 SWAP1 SWAP3 SSTORE SWAP2 DUP3 MSTORE PUSH1 0x1 DUP9 ADD SWAP1 MSTORE PUSH1 0x40 SWAP1 KECCAK256 DUP4 SWAP1 SSTORE JUMPDEST DUP6 SLOAD DUP7 SWAP1 DUP1 PUSH2 0x3424 JUMPI PUSH2 0x3424 PUSH2 0x3EA9 JUMP JUMPDEST PUSH1 0x1 SWAP1 SUB DUP2 DUP2 SWAP1 PUSH1 0x0 MSTORE PUSH1 0x20 PUSH1 0x0 KECCAK256 ADD PUSH1 0x0 SWAP1 SSTORE SWAP1 SSTORE DUP6 PUSH1 0x1 ADD PUSH1 0x0 DUP7 DUP2 MSTORE PUSH1 0x20 ADD SWAP1 DUP2 MSTORE PUSH1 0x20 ADD PUSH1 0x0 KECCAK256 PUSH1 0x0 SWAP1 SSTORE PUSH1 0x1 SWAP4 POP POP POP POP PUSH2 0x550 JUMP JUMPDEST PUSH1 0x0 SWAP2 POP POP PUSH2 0x550 JUMP JUMPDEST PUSH1 0x60 PUSH2 0x3478 DUP5 DUP5 PUSH1 0x0 DUP6 PUSH2 0x3480 JUMP JUMPDEST SWAP5 SWAP4 POP POP POP POP JUMP JUMPDEST PUSH1 0x60 DUP3 SELFBALANCE LT ISZERO PUSH2 0x34E1 JUMPI PUSH1 0x40 MLOAD PUSH3 0x461BCD PUSH1 0xE5 SHL DUP2 MSTORE PUSH1 0x20 PUSH1 0x4 DUP3 ADD MSTORE PUSH1 0x26 PUSH1 0x24 DUP3 ADD MSTORE PUSH32 0x416464726573733A20696E73756666696369656E742062616C616E636520666F PUSH1 0x44 DUP3 ADD MSTORE PUSH6 0x1C8818D85B1B PUSH1 0xD2 SHL PUSH1 0x64 DUP3 ADD MSTORE PUSH1 0x84 ADD PUSH2 0x758 JUMP JUMPDEST DUP5 EXTCODESIZE PUSH2 0x352F JUMPI PUSH1 0x40 MLOAD PUSH3 0x461BCD PUSH1 0xE5 SHL DUP2 MSTORE PUSH1 0x20 PUSH1 0x4 DUP3 ADD MSTORE PUSH1 0x1D PUSH1 0x24 DUP3 ADD MSTORE PUSH32 0x416464726573733A2063616C6C20746F206E6F6E2D636F6E7472616374000000 PUSH1 0x44 DUP3 ADD MSTORE PUSH1 0x64 ADD PUSH2 0x758 JUMP JUMPDEST PUSH1 0x0 DUP1 DUP7 PUSH1 0x1 PUSH1 0x1 PUSH1 0xA0 SHL SUB AND DUP6 DUP8 PUSH1 0x40 MLOAD PUSH2 0x354B SWAP2 SWAP1 PUSH2 0x3EBF JUMP JUMPDEST PUSH1 0x0 PUSH1 0x40 MLOAD DUP1 DUP4 SUB DUP2 DUP6 DUP8 GAS CALL SWAP3 POP POP POP RETURNDATASIZE DUP1 PUSH1 0x0 DUP2 EQ PUSH2 0x3588 JUMPI PUSH1 0x40 MLOAD SWAP2 POP PUSH1 0x1F NOT PUSH1 0x3F RETURNDATASIZE ADD AND DUP3 ADD PUSH1 0x40 MSTORE RETURNDATASIZE DUP3 MSTORE RETURNDATASIZE PUSH1 0x0 PUSH1 0x20 DUP5 ADD RETURNDATACOPY PUSH2 0x358D JUMP JUMPDEST PUSH1 0x60 SWAP2 POP JUMPDEST POP SWAP2 POP SWAP2 POP PUSH2 0x2A44 DUP3 DUP3 DUP7 PUSH1 0x60 DUP4 ISZERO PUSH2 0x35A7 JUMPI POP DUP2 PUSH2 0x167E JUMP JUMPDEST DUP3 MLOAD ISZERO PUSH2 0x35B7 JUMPI DUP3 MLOAD DUP1 DUP5 PUSH1 0x20 ADD REVERT JUMPDEST DUP2 PUSH1 0x40 MLOAD PUSH3 0x461BCD PUSH1 0xE5 SHL DUP2 MSTORE PUSH1 0x4 ADD PUSH2 0x758 SWAP2 SWAP1 PUSH2 0x3D94 JUMP JUMPDEST PUSH1 0x40 DUP1 MLOAD PUSH1 0x80 DUP2 ADD DUP3 MSTORE PUSH1 0x0 DUP1 DUP3 MSTORE PUSH1 0x20 DUP3 ADD DUP2 SWAP1 MSTORE SWAP2 DUP2 ADD SWAP2 SWAP1 SWAP2 MSTORE PUSH1 0x60 DUP2 ADD PUSH2 0x35FA PUSH2 0x35FF JUMP JUMPDEST SWAP1 MSTORE SWAP1 JUMP JUMPDEST PUSH1 0x40 MLOAD DUP1 PUSH2 0x100 ADD PUSH1 0x40 MSTORE DUP1 PUSH1 0x8 SWAP1 PUSH1 0x20 DUP3 MUL DUP1 CALLDATASIZE DUP4 CALLDATACOPY POP SWAP2 SWAP3 SWAP2 POP POP JUMP JUMPDEST PUSH1 0x1 DUP4 ADD SWAP2 DUP4 SWAP1 DUP3 ISZERO PUSH2 0x36AA JUMPI SWAP2 PUSH1 0x20 MUL DUP3 ADD PUSH1 0x0 JUMPDEST DUP4 DUP3 GT ISZERO PUSH2 0x3678 JUMPI DUP4 MLOAD DUP4 DUP3 PUSH2 0x100 EXP DUP2 SLOAD DUP2 PUSH4 0xFFFFFFFF MUL NOT AND SWAP1 DUP4 PUSH4 0xFFFFFFFF AND MUL OR SWAP1 SSTORE POP SWAP3 PUSH1 0x20 ADD SWAP3 PUSH1 0x4 ADD PUSH1 0x20 DUP2 PUSH1 0x3 ADD DIV SWAP3 DUP4 ADD SWAP3 PUSH1 0x1 SUB MUL PUSH2 0x3634 JUMP JUMPDEST DUP1 ISZERO PUSH2 0x36A8 JUMPI DUP3 DUP2 PUSH2 0x100 EXP DUP2 SLOAD SWAP1 PUSH4 0xFFFFFFFF MUL NOT AND SWAP1 SSTORE PUSH1 0x4 ADD PUSH1 0x20 DUP2 PUSH1 0x3 ADD DIV SWAP3 DUP4 ADD SWAP3 PUSH1 0x1 SUB MUL PUSH2 0x3678 JUMP JUMPDEST POP JUMPDEST POP PUSH2 0x36B6 SWAP3 SWAP2 POP PUSH2 0x36BA JUMP JUMPDEST POP SWAP1 JUMP JUMPDEST JUMPDEST DUP1 DUP3 GT ISZERO PUSH2 0x36B6 JUMPI PUSH1 0x0 DUP2 SSTORE PUSH1 0x1 ADD PUSH2 0x36BB JUMP JUMPDEST PUSH1 0x0 PUSH1 0x20 DUP3 DUP5 SUB SLT ISZERO PUSH2 0x36E1 JUMPI PUSH1 0x0 DUP1 REVERT JUMPDEST DUP2 CALLDATALOAD PUSH1 0x1 PUSH1 0x1 PUSH1 0xE0 SHL SUB NOT DUP2 AND DUP2 EQ PUSH2 0x167E JUMPI PUSH1 0x0 DUP1 REVERT JUMPDEST PUSH1 0x0 DUP1 PUSH1 0x20 DUP4 DUP6 SUB SLT ISZERO PUSH2 0x370C JUMPI PUSH1 0x0 DUP1 REVERT JUMPDEST DUP3 CALLDATALOAD PUSH8 0xFFFFFFFFFFFFFFFF DUP1 DUP3 GT ISZERO PUSH2 0x3724 JUMPI PUSH1 0x0 DUP1 REVERT JUMPDEST DUP2 DUP6 ADD SWAP2 POP DUP6 PUSH1 0x1F DUP4 ADD SLT PUSH2 0x3738 JUMPI PUSH1 0x0 DUP1 REVERT JUMPDEST DUP2 CALLDATALOAD DUP2 DUP2 GT ISZERO PUSH2 0x3747 JUMPI PUSH1 0x0 DUP1 REVERT JUMPDEST DUP7 PUSH1 0x20 DUP3 PUSH1 0x6 SHL DUP6 ADD ADD GT ISZERO PUSH2 0x375C JUMPI PUSH1 0x0 DUP1 REVERT JUMPDEST PUSH1 0x20 SWAP3 SWAP1 SWAP3 ADD SWAP7 SWAP2 SWAP6 POP SWAP1 SWAP4 POP POP POP POP JUMP JUMPDEST PUSH1 0x0 PUSH1 0x20 DUP3 DUP5 SUB SLT ISZERO PUSH2 0x3780 JUMPI PUSH1 0x0 DUP1 REVERT JUMPDEST POP CALLDATALOAD SWAP2 SWAP1 POP JUMP JUMPDEST PUSH1 0x1 PUSH1 0x1 PUSH1 0xA0 SHL SUB DUP2 AND DUP2 EQ PUSH2 0x12DC JUMPI PUSH1 0x0 DUP1 REVERT JUMPDEST PUSH1 0x0 DUP1 PUSH1 0x40 DUP4 DUP6 SUB SLT ISZERO PUSH2 0x37AF JUMPI PUSH1 0x0 DUP1 REVERT JUMPDEST DUP3 CALLDATALOAD SWAP2 POP PUSH1 0x20 DUP4 ADD CALLDATALOAD PUSH2 0x37C1 DUP2 PUSH2 0x3787 JUMP JUMPDEST DUP1 SWAP2 POP POP SWAP3 POP SWAP3 SWAP1 POP JUMP JUMPDEST DUP1 CALLDATALOAD PUSH1 0x1 PUSH1 0x1 PUSH1 0x70 SHL SUB DUP2 AND DUP2 EQ PUSH2 0x37E3 JUMPI PUSH1 0x0 DUP1 REVERT JUMPDEST SWAP2 SWAP1 POP JUMP JUMPDEST DUP1 CALLDATALOAD PUSH4 0xFFFFFFFF DUP2 AND DUP2 EQ PUSH2 0x37E3 JUMPI PUSH1 0x0 DUP1 REVERT JUMPDEST PUSH1 0x0 DUP1 PUSH1 0x0 DUP1 PUSH1 0x80 DUP6 DUP8 SUB SLT ISZERO PUSH2 0x3812 JUMPI PUSH1 0x0 DUP1 REVERT JUMPDEST DUP5 CALLDATALOAD PUSH2 0x381D DUP2 PUSH2 0x3787 JUMP JUMPDEST SWAP4 POP PUSH2 0x382B PUSH1 0x20 DUP7 ADD PUSH2 0x37CC JUMP JUMPDEST SWAP3 POP PUSH2 0x3839 PUSH1 0x40 DUP7 ADD PUSH2 0x37CC JUMP JUMPDEST SWAP2 POP PUSH2 0x3847 PUSH1 0x60 DUP7 ADD PUSH2 0x37E8 JUMP JUMPDEST SWAP1 POP SWAP3 SWAP6 SWAP2 SWAP5 POP SWAP3 POP JUMP JUMPDEST PUSH1 0x0 DUP1 PUSH1 0x40 DUP4 DUP6 SUB SLT ISZERO PUSH2 0x3865 JUMPI PUSH1 0x0 DUP1 REVERT JUMPDEST DUP3 CALLDATALOAD PUSH2 0x3870 DUP2 PUSH2 0x3787 JUMP JUMPDEST SWAP2 POP PUSH2 0x387E PUSH1 0x20 DUP5 ADD PUSH2 0x37CC JUMP JUMPDEST SWAP1 POP SWAP3 POP SWAP3 SWAP1 POP JUMP JUMPDEST DUP1 MLOAD PUSH1 0x1 PUSH1 0x1 PUSH1 0xA0 SHL SUB AND DUP3 MSTORE PUSH1 0x20 DUP1 DUP3 ADD MLOAD PUSH1 0x1 PUSH1 0x1 PUSH1 0x70 SHL SUB SWAP1 DUP2 AND DUP3 DUP6 ADD MSTORE PUSH1 0x40 DUP1 DUP5 ADD MLOAD SWAP1 SWAP2 AND SWAP1 DUP5 ADD MSTORE PUSH1 0x60 DUP1 DUP4 ADD MLOAD SWAP1 DUP5 ADD PUSH1 0x0 JUMPDEST PUSH1 0x8 DUP2 LT ISZERO PUSH2 0x38E5 JUMPI DUP3 MLOAD PUSH4 0xFFFFFFFF AND DUP3 MSTORE SWAP2 DUP4 ADD SWAP2 SWAP1 DUP4 ADD SWAP1 PUSH1 0x1 ADD PUSH2 0x38C2 JUMP JUMPDEST POP POP POP POP POP POP JUMP JUMPDEST PUSH2 0x2C0 DUP2 ADD PUSH2 0x38FC DUP3 DUP6 PUSH2 0x3887 JUMP JUMPDEST PUSH2 0x167E PUSH2 0x160 DUP4 ADD DUP5 PUSH2 0x3887 JUMP JUMPDEST PUSH1 0x0 DUP1 PUSH1 0x40 DUP4 DUP6 SUB SLT ISZERO PUSH2 0x391D JUMPI PUSH1 0x0 DUP1 REVERT JUMPDEST DUP3 CALLDATALOAD PUSH2 0x3928 DUP2 PUSH2 0x3787 JUMP JUMPDEST SWAP5 PUSH1 0x20 SWAP4 SWAP1 SWAP4 ADD CALLDATALOAD SWAP4 POP POP POP JUMP JUMPDEST PUSH1 0x0 DUP1 PUSH1 0x40 DUP4 DUP6 SUB SLT ISZERO PUSH2 0x3949 JUMPI PUSH1 0x0 DUP1 REVERT JUMPDEST POP POP DUP1 CALLDATALOAD SWAP3 PUSH1 0x20 SWAP1 SWAP2 ADD CALLDATALOAD SWAP2 POP JUMP JUMPDEST PUSH1 0x0 PUSH1 0x20 DUP3 DUP5 SUB SLT ISZERO PUSH2 0x396A JUMPI PUSH1 0x0 DUP1 REVERT JUMPDEST DUP2 CALLDATALOAD PUSH2 0x167E DUP2 PUSH2 0x3787 JUMP JUMPDEST PUSH2 0x160 DUP2 ADD PUSH2 0x550 DUP3 DUP5 PUSH2 0x3887 JUMP JUMPDEST PUSH1 0x0 DUP1 PUSH1 0x0 PUSH1 0x60 DUP5 DUP7 SUB SLT ISZERO PUSH2 0x3999 JUMPI PUSH1 0x0 DUP1 REVERT JUMPDEST DUP4 CALLDATALOAD PUSH2 0x39A4 DUP2 PUSH2 0x3787 JUMP JUMPDEST SWAP3 POP PUSH2 0x39B2 PUSH1 0x20 DUP6 ADD PUSH2 0x37CC JUMP JUMPDEST SWAP2 POP PUSH2 0x39C0 PUSH1 0x40 DUP6 ADD PUSH2 0x37CC JUMP JUMPDEST SWAP1 POP SWAP3 POP SWAP3 POP SWAP3 JUMP JUMPDEST PUSH1 0x0 DUP1 PUSH1 0x0 DUP1 PUSH1 0x0 PUSH1 0xA0 DUP7 DUP9 SUB SLT ISZERO PUSH2 0x39E1 JUMPI PUSH1 0x0 DUP1 REVERT JUMPDEST DUP6 CALLDATALOAD PUSH2 0x39EC DUP2 PUSH2 0x3787 JUMP JUMPDEST SWAP5 POP PUSH1 0x20 DUP7 ADD CALLDATALOAD PUSH2 0x39FC DUP2 PUSH2 0x3787 JUMP JUMPDEST SWAP4 POP PUSH2 0x3A0A PUSH1 0x40 DUP8 ADD PUSH2 0x37CC JUMP JUMPDEST SWAP3 POP PUSH2 0x3A18 PUSH1 0x60 DUP8 ADD PUSH2 0x37CC JUMP JUMPDEST SWAP2 POP PUSH2 0x3A26 PUSH1 0x80 DUP8 ADD PUSH2 0x37E8 JUMP JUMPDEST SWAP1 POP SWAP3 SWAP6 POP SWAP3 SWAP6 SWAP1 SWAP4 POP JUMP JUMPDEST PUSH4 0x4E487B71 PUSH1 0xE0 SHL PUSH1 0x0 MSTORE PUSH1 0x32 PUSH1 0x4 MSTORE PUSH1 0x24 PUSH1 0x0 REVERT JUMPDEST PUSH4 0x4E487B71 PUSH1 0xE0 SHL PUSH1 0x0 MSTORE PUSH1 0x11 PUSH1 0x4 MSTORE PUSH1 0x24 PUSH1 0x0 REVERT JUMPDEST PUSH1 0x0 PUSH1 0x0 NOT DUP3 EQ ISZERO PUSH2 0x3A72 JUMPI PUSH2 0x3A72 PUSH2 0x3A48 JUMP JUMPDEST POP PUSH1 0x1 ADD SWAP1 JUMP JUMPDEST PUSH1 0x0 PUSH1 0x20 DUP3 DUP5 SUB SLT ISZERO PUSH2 0x3A8B JUMPI PUSH1 0x0 DUP1 REVERT JUMPDEST DUP2 MLOAD PUSH2 0x167E DUP2 PUSH2 0x3787 JUMP JUMPDEST PUSH1 0x0 PUSH1 0x20 DUP3 DUP5 SUB SLT ISZERO PUSH2 0x3AA8 JUMPI PUSH1 0x0 DUP1 REVERT JUMPDEST POP MLOAD SWAP2 SWAP1 POP JUMP JUMPDEST PUSH1 0x20 DUP1 DUP3 MSTORE PUSH1 0x1F SWAP1 DUP3 ADD MSTORE PUSH32 0x5265656E7472616E637947756172643A207265656E7472616E742063616C6C00 PUSH1 0x40 DUP3 ADD MSTORE PUSH1 0x60 ADD SWAP1 JUMP JUMPDEST PUSH1 0x20 DUP1 DUP3 MSTORE PUSH1 0x1B SWAP1 DUP3 ADD MSTORE PUSH32 0x4353313A205472616E73616374696F6E20697320657870697265640000000000 PUSH1 0x40 DUP3 ADD MSTORE PUSH1 0x60 ADD SWAP1 JUMP JUMPDEST PUSH1 0x20 DUP1 DUP3 MSTORE PUSH1 0x10 SWAP1 DUP3 ADD MSTORE PUSH16 0x21A9989D102BB937B733903A37B5B2B7 PUSH1 0x81 SHL PUSH1 0x40 DUP3 ADD MSTORE PUSH1 0x60 ADD SWAP1 JUMP JUMPDEST PUSH1 0x0 DUP3 NOT DUP3 GT ISZERO PUSH2 0x3B5A JUMPI PUSH2 0x3B5A PUSH2 0x3A48 JUMP JUMPDEST POP ADD SWAP1 JUMP JUMPDEST PUSH1 0x20 DUP1 DUP3 MSTORE PUSH1 0x2C SWAP1 DUP3 ADD MSTORE PUSH32 0x4353313A204665652D6F6E2D7472616E7366657220746F6B656E73206172656E PUSH1 0x40 DUP3 ADD MSTORE PUSH12 0x9DD081CDD5C1C1BDC9D1959 PUSH1 0xA2 SHL PUSH1 0x60 DUP3 ADD MSTORE PUSH1 0x80 ADD SWAP1 JUMP JUMPDEST PUSH1 0x0 DUP2 PUSH1 0x0 NOT DIV DUP4 GT DUP3 ISZERO ISZERO AND ISZERO PUSH2 0x3BC5 JUMPI PUSH2 0x3BC5 PUSH2 0x3A48 JUMP JUMPDEST POP MUL SWAP1 JUMP JUMPDEST PUSH4 0x4E487B71 PUSH1 0xE0 SHL PUSH1 0x0 MSTORE PUSH1 0x12 PUSH1 0x4 MSTORE PUSH1 0x24 PUSH1 0x0 REVERT JUMPDEST PUSH1 0x0 DUP3 PUSH2 0x3BEF JUMPI PUSH2 0x3BEF PUSH2 0x3BCA JUMP JUMPDEST POP DIV SWAP1 JUMP JUMPDEST PUSH1 0x1 PUSH1 0x1 PUSH1 0xA0 SHL SUB SWAP3 SWAP1 SWAP3 AND DUP3 MSTORE PUSH1 0x1 PUSH1 0x1 PUSH1 0x70 SHL SUB AND PUSH1 0x20 DUP3 ADD MSTORE PUSH1 0x40 ADD SWAP1 JUMP JUMPDEST PUSH1 0x1 PUSH1 0x1 PUSH1 0xA0 SHL SUB SWAP4 SWAP1 SWAP4 AND DUP4 MSTORE PUSH1 0x20 DUP4 ADD SWAP2 SWAP1 SWAP2 MSTORE PUSH1 0x40 DUP3 ADD MSTORE PUSH1 0x80 PUSH1 0x60 DUP3 ADD DUP2 SWAP1 MSTORE PUSH1 0x0 SWAP1 DUP3 ADD MSTORE PUSH1 0xA0 ADD SWAP1 JUMP JUMPDEST PUSH1 0x0 PUSH1 0x1 PUSH1 0x1 PUSH1 0x70 SHL SUB DUP1 DUP4 AND DUP2 DUP6 AND DUP1 DUP4 SUB DUP3 GT ISZERO PUSH2 0x3C68 JUMPI PUSH2 0x3C68 PUSH2 0x3A48 JUMP JUMPDEST ADD SWAP5 SWAP4 POP POP POP POP JUMP JUMPDEST PUSH1 0x0 PUSH1 0x1 PUSH1 0x1 PUSH1 0x70 SHL SUB DUP1 DUP4 AND DUP2 DUP6 AND DUP2 DUP4 DIV DUP2 GT DUP3 ISZERO ISZERO AND ISZERO PUSH2 0x3C97 JUMPI PUSH2 0x3C97 PUSH2 0x3A48 JUMP JUMPDEST MUL SWAP5 SWAP4 POP POP POP POP JUMP JUMPDEST PUSH1 0x0 PUSH1 0x1 PUSH1 0x1 PUSH1 0x70 SHL SUB DUP4 DUP2 AND SWAP1 DUP4 AND DUP2 DUP2 LT ISZERO PUSH2 0x3CC0 JUMPI PUSH2 0x3CC0 PUSH2 0x3A48 JUMP JUMPDEST SUB SWAP4 SWAP3 POP POP POP JUMP JUMPDEST PUSH1 0x0 DUP3 PUSH2 0x3CD7 JUMPI PUSH2 0x3CD7 PUSH2 0x3BCA JUMP JUMPDEST POP MOD SWAP1 JUMP JUMPDEST PUSH1 0x0 DUP3 DUP3 LT ISZERO PUSH2 0x3CEE JUMPI PUSH2 0x3CEE PUSH2 0x3A48 JUMP JUMPDEST POP SUB SWAP1 JUMP JUMPDEST PUSH1 0x0 JUMPDEST DUP4 DUP2 LT ISZERO PUSH2 0x3D0E JUMPI DUP2 DUP2 ADD MLOAD DUP4 DUP3 ADD MSTORE PUSH1 0x20 ADD PUSH2 0x3CF6 JUMP JUMPDEST DUP4 DUP2 GT ISZERO PUSH2 0x4D3 JUMPI POP POP PUSH1 0x0 SWAP2 ADD MSTORE JUMP JUMPDEST PUSH32 0x416363657373436F6E74726F6C3A206163636F756E7420000000000000000000 DUP2 MSTORE PUSH1 0x0 DUP4 MLOAD PUSH2 0x3D57 DUP2 PUSH1 0x17 DUP6 ADD PUSH1 0x20 DUP9 ADD PUSH2 0x3CF3 JUMP JUMPDEST PUSH17 0x1034B99036B4B9B9B4B733903937B6329 PUSH1 0x7D SHL PUSH1 0x17 SWAP2 DUP5 ADD SWAP2 DUP3 ADD MSTORE DUP4 MLOAD PUSH2 0x3D88 DUP2 PUSH1 0x28 DUP5 ADD PUSH1 0x20 DUP9 ADD PUSH2 0x3CF3 JUMP JUMPDEST ADD PUSH1 0x28 ADD SWAP5 SWAP4 POP POP POP POP JUMP JUMPDEST PUSH1 0x20 DUP2 MSTORE PUSH1 0x0 DUP3 MLOAD DUP1 PUSH1 0x20 DUP5 ADD MSTORE PUSH2 0x3DB3 DUP2 PUSH1 0x40 DUP6 ADD PUSH1 0x20 DUP8 ADD PUSH2 0x3CF3 JUMP JUMPDEST PUSH1 0x1F ADD PUSH1 0x1F NOT AND SWAP2 SWAP1 SWAP2 ADD PUSH1 0x40 ADD SWAP3 SWAP2 POP POP JUMP JUMPDEST PUSH1 0x20 DUP1 DUP3 MSTORE PUSH1 0x2E SWAP1 DUP3 ADD MSTORE PUSH32 0x4353313A204F757470757420616D6F756E74206C657373207468616E206D696E PUSH1 0x40 DUP3 ADD MSTORE PUSH14 0x1A5B5D5B481CDC1958DA599A5959 PUSH1 0x92 SHL PUSH1 0x60 DUP3 ADD MSTORE PUSH1 0x80 ADD SWAP1 JUMP JUMPDEST PUSH1 0x0 PUSH1 0x1 PUSH1 0x1 PUSH1 0x70 SHL SUB DUP1 DUP5 AND DUP1 PUSH2 0x3E2F JUMPI PUSH2 0x3E2F PUSH2 0x3BCA JUMP JUMPDEST SWAP3 AND SWAP2 SWAP1 SWAP2 DIV SWAP3 SWAP2 POP POP JUMP JUMPDEST PUSH1 0x0 PUSH4 0xFFFFFFFF DUP1 DUP4 AND DUP2 DUP6 AND DUP1 DUP4 SUB DUP3 GT ISZERO PUSH2 0x3C68 JUMPI PUSH2 0x3C68 PUSH2 0x3A48 JUMP JUMPDEST PUSH1 0x0 PUSH1 0x20 DUP3 DUP5 SUB SLT ISZERO PUSH2 0x3E6C JUMPI PUSH1 0x0 DUP1 REVERT JUMPDEST DUP2 MLOAD DUP1 ISZERO ISZERO DUP2 EQ PUSH2 0x167E JUMPI PUSH1 0x0 DUP1 REVERT JUMPDEST PUSH4 0x4E487B71 PUSH1 0xE0 SHL PUSH1 0x0 MSTORE PUSH1 0x41 PUSH1 0x4 MSTORE PUSH1 0x24 PUSH1 0x0 REVERT JUMPDEST PUSH1 0x0 DUP2 PUSH2 0x3EA1 JUMPI PUSH2 0x3EA1 PUSH2 0x3A48 JUMP JUMPDEST POP PUSH1 0x0 NOT ADD SWAP1 JUMP JUMPDEST PUSH4 0x4E487B71 PUSH1 0xE0 SHL PUSH1 0x0 MSTORE PUSH1 0x31 PUSH1 0x4 MSTORE PUSH1 0x24 PUSH1 0x0 REVERT JUMPDEST PUSH1 0x0 DUP3 MLOAD PUSH2 0x3ED1 DUP2 DUP5 PUSH1 0x20 DUP8 ADD PUSH2 0x3CF3 JUMP JUMPDEST SWAP2 SWAP1 SWAP2 ADD SWAP3 SWAP2 POP POP JUMP INVALID LOG2 PUSH5 0x6970667358 0x22 SLT KECCAK256 DUP10 DUP5 GT 0xDB CALLDATALOAD DUP4 DIV 0xB2 SWAP15 MSTORE SHL SWAP5 0x21 PUSH2 0x7551 0xC5 LOG1 0xC1 CALLDATALOAD CALLDATALOAD RETURN DUP15 PUSH27 0xA49D831DD78186C364736F6C634300080B00330000000000000000 "
		},
		"gasEstimates": {
			"creation": {
				"codeDepositCost": "3229000",
				"executionCost": "infinite",
				"totalCost": "infinite"
			},
			"external": {
				"ROLE_ADMIN()": "262",
				"addTokenLiquidity(address,uint112)": "infinite",
				"adminCreatePool(address,uint112,uint112)": "infinite",
				"getCurrent4Hour()": "424",
				"getCurrentFeeBasedOnTrades(uint256)": "infinite",
				"getOutputExactCerUsdForToken(uint256,uint256)": "infinite",
				"getOutputExactTokensForCerUsd(uint256,uint256)": "infinite",
				"getPoolByPosition(uint256)": "infinite",
				"getPoolByToken(address)": "infinite",
				"getRoleAdmin(bytes32)": "2515",
				"getRoleMember(bytes32,uint256)": "infinite",
				"getRoleMemberCount(bytes32)": "infinite",
				"getUtilsContractAtPos(uint256)": "infinite",
				"grantRole(bytes32,address)": "infinite",
				"grantRolesBulk((bytes32,address)[])": "infinite",
				"hasRole(bytes32,address)": "2696",
				"initialize()": "infinite",
				"removeTokenLiquidity(address,uint256)": "infinite",
				"renounceRole(bytes32,address)": "infinite",
				"revokeRole(bytes32,address)": "infinite",
				"supportsInterface(bytes4)": "393",
				"swapExactCerUsdForToken(address,uint112,uint112,uint32)": "infinite",
				"swapExactTokenForToken(address,address,uint112,uint112,uint32)": "infinite",
				"swapExactTokenToCerUsd(address,uint112,uint112,uint32)": "infinite",
				"syncTokenBalanceInPool(address)": "infinite",
				"testGetBalances()": "infinite",
				"testGetPools()": "infinite",
				"testGetPrices()": "infinite"
			},
			"internal": {
				"_getOutput(uint256,uint256,uint256,uint256)": "infinite",
				"_swapExactCerUsdForToken(address,uint112,uint112,bool)": "infinite",
				"_swapExactTokenToCerUsd(address,uint112,uint112,bool)": "infinite",
				"_syncTokenBalanceInPool(address)": "infinite",
				"sqrt(uint256)": "infinite",
				"updateTokenBalanceAndCheckKValue(uint256,address,uint256)": "infinite"
			}
		},
		"methodIdentifiers": {
			"ROLE_ADMIN()": "d391014b",
			"addTokenLiquidity(address,uint112)": "43039b2f",
			"adminCreatePool(address,uint112,uint112)": "c93c815c",
			"getCurrent4Hour()": "a465626f",
			"getCurrentFeeBasedOnTrades(uint256)": "6853ac26",
			"getOutputExactCerUsdForToken(uint256,uint256)": "e40a99a8",
			"getOutputExactTokensForCerUsd(uint256,uint256)": "cd01a60a",
			"getPoolByPosition(uint256)": "d01350bd",
			"getPoolByToken(address)": "bbadc03b",
			"getRoleAdmin(bytes32)": "248a9ca3",
			"getRoleMember(bytes32,uint256)": "9010d07c",
			"getRoleMemberCount(bytes32)": "ca15c873",
			"getUtilsContractAtPos(uint256)": "06fb1a07",
			"grantRole(bytes32,address)": "2f2ff15d",
			"grantRolesBulk((bytes32,address)[])": "03ed957f",
			"hasRole(bytes32,address)": "91d14854",
			"initialize()": "8129fc1c",
			"removeTokenLiquidity(address,uint256)": "84d93612",
			"renounceRole(bytes32,address)": "36568abe",
			"revokeRole(bytes32,address)": "d547741f",
			"supportsInterface(bytes4)": "01ffc9a7",
			"swapExactCerUsdForToken(address,uint112,uint112,uint32)": "d88d7eba",
			"swapExactTokenForToken(address,address,uint112,uint112,uint32)": "ea680f2a",
			"swapExactTokenToCerUsd(address,uint112,uint112,uint32)": "370d77d0",
			"syncTokenBalanceInPool(address)": "9bc731fc",
			"testGetBalances()": "186efad9",
			"testGetPools()": "5e6104b1",
			"testGetPrices()": "e07bf7ad"
		}
	},
	"abi": [
		{
			"inputs": [],
			"stateMutability": "nonpayable",
			"type": "constructor"
		},
		{
			"anonymous": false,
			"inputs": [
				{
					"indexed": true,
					"internalType": "bytes32",
					"name": "role",
					"type": "bytes32"
				},
				{
					"indexed": true,
					"internalType": "bytes32",
					"name": "previousAdminRole",
					"type": "bytes32"
				},
				{
					"indexed": true,
					"internalType": "bytes32",
					"name": "newAdminRole",
					"type": "bytes32"
				}
			],
			"name": "RoleAdminChanged",
			"type": "event"
		},
		{
			"anonymous": false,
			"inputs": [
				{
					"indexed": true,
					"internalType": "bytes32",
					"name": "role",
					"type": "bytes32"
				},
				{
					"indexed": true,
					"internalType": "address",
					"name": "account",
					"type": "address"
				},
				{
					"indexed": true,
					"internalType": "address",
					"name": "sender",
					"type": "address"
				}
			],
			"name": "RoleGranted",
			"type": "event"
		},
		{
			"anonymous": false,
			"inputs": [
				{
					"indexed": true,
					"internalType": "bytes32",
					"name": "role",
					"type": "bytes32"
				},
				{
					"indexed": true,
					"internalType": "address",
					"name": "account",
					"type": "address"
				},
				{
					"indexed": true,
					"internalType": "address",
					"name": "sender",
					"type": "address"
				}
			],
			"name": "RoleRevoked",
			"type": "event"
		},
		{
			"inputs": [],
			"name": "ROLE_ADMIN",
			"outputs": [
				{
					"internalType": "bytes32",
					"name": "",
					"type": "bytes32"
				}
			],
			"stateMutability": "view",
			"type": "function"
		},
		{
			"inputs": [
				{
					"internalType": "address",
					"name": "token",
					"type": "address"
				},
				{
					"internalType": "uint112",
					"name": "addTokenAmount",
					"type": "uint112"
				}
			],
			"name": "addTokenLiquidity",
			"outputs": [],
			"stateMutability": "nonpayable",
			"type": "function"
		},
		{
			"inputs": [
				{
					"internalType": "address",
					"name": "token",
					"type": "address"
				},
				{
					"internalType": "uint112",
					"name": "addTokenAmount",
					"type": "uint112"
				},
				{
					"internalType": "uint112",
					"name": "mintCerUsdAmount",
					"type": "uint112"
				}
			],
			"name": "adminCreatePool",
			"outputs": [],
			"stateMutability": "nonpayable",
			"type": "function"
		},
		{
			"inputs": [],
			"name": "getCurrent4Hour",
			"outputs": [
				{
					"internalType": "uint256",
					"name": "",
					"type": "uint256"
				}
			],
			"stateMutability": "view",
			"type": "function"
		},
		{
			"inputs": [
				{
					"internalType": "uint256",
					"name": "poolPos",
					"type": "uint256"
				}
			],
			"name": "getCurrentFeeBasedOnTrades",
			"outputs": [
				{
					"internalType": "uint256",
					"name": "fee",
					"type": "uint256"
				}
			],
			"stateMutability": "view",
			"type": "function"
		},
		{
			"inputs": [
				{
					"internalType": "uint256",
					"name": "poolPos",
					"type": "uint256"
				},
				{
					"internalType": "uint256",
					"name": "increaseCerUsdBalance",
					"type": "uint256"
				}
			],
			"name": "getOutputExactCerUsdForToken",
			"outputs": [
				{
					"internalType": "uint256",
					"name": "",
					"type": "uint256"
				}
			],
			"stateMutability": "view",
			"type": "function"
		},
		{
			"inputs": [
				{
					"internalType": "uint256",
					"name": "poolPos",
					"type": "uint256"
				},
				{
					"internalType": "uint256",
					"name": "increaseTokenBalance",
					"type": "uint256"
				}
			],
			"name": "getOutputExactTokensForCerUsd",
			"outputs": [
				{
					"internalType": "uint256",
					"name": "",
					"type": "uint256"
				}
			],
			"stateMutability": "view",
			"type": "function"
		},
		{
			"inputs": [
				{
					"internalType": "uint256",
					"name": "pos",
					"type": "uint256"
				}
			],
			"name": "getPoolByPosition",
			"outputs": [
				{
					"components": [
						{
							"internalType": "address",
							"name": "token",
							"type": "address"
						},
						{
							"internalType": "uint112",
							"name": "balanceToken",
							"type": "uint112"
						},
						{
							"internalType": "uint112",
							"name": "balanceCerUsd",
							"type": "uint112"
						},
						{
							"internalType": "uint32[8]",
							"name": "hourlyTradeVolumeInCerUsd",
							"type": "uint32[8]"
						}
					],
					"internalType": "struct CerbySwapV1.Pool",
					"name": "",
					"type": "tuple"
				}
			],
			"stateMutability": "view",
			"type": "function"
		},
		{
			"inputs": [
				{
					"internalType": "address",
					"name": "token",
					"type": "address"
				}
			],
			"name": "getPoolByToken",
			"outputs": [
				{
					"components": [
						{
							"internalType": "address",
							"name": "token",
							"type": "address"
						},
						{
							"internalType": "uint112",
							"name": "balanceToken",
							"type": "uint112"
						},
						{
							"internalType": "uint112",
							"name": "balanceCerUsd",
							"type": "uint112"
						},
						{
							"internalType": "uint32[8]",
							"name": "hourlyTradeVolumeInCerUsd",
							"type": "uint32[8]"
						}
					],
					"internalType": "struct CerbySwapV1.Pool",
					"name": "",
					"type": "tuple"
				}
			],
			"stateMutability": "view",
			"type": "function"
		},
		{
			"inputs": [
				{
					"internalType": "bytes32",
					"name": "role",
					"type": "bytes32"
				}
			],
			"name": "getRoleAdmin",
			"outputs": [
				{
					"internalType": "bytes32",
					"name": "",
					"type": "bytes32"
				}
			],
			"stateMutability": "view",
			"type": "function"
		},
		{
			"inputs": [
				{
					"internalType": "bytes32",
					"name": "role",
					"type": "bytes32"
				},
				{
					"internalType": "uint256",
					"name": "index",
					"type": "uint256"
				}
			],
			"name": "getRoleMember",
			"outputs": [
				{
					"internalType": "address",
					"name": "",
					"type": "address"
				}
			],
			"stateMutability": "view",
			"type": "function"
		},
		{
			"inputs": [
				{
					"internalType": "bytes32",
					"name": "role",
					"type": "bytes32"
				}
			],
			"name": "getRoleMemberCount",
			"outputs": [
				{
					"internalType": "uint256",
					"name": "",
					"type": "uint256"
				}
			],
			"stateMutability": "view",
			"type": "function"
		},
		{
			"inputs": [
				{
					"internalType": "uint256",
					"name": "pos",
					"type": "uint256"
				}
			],
			"name": "getUtilsContractAtPos",
			"outputs": [
				{
					"internalType": "address",
					"name": "",
					"type": "address"
				}
			],
			"stateMutability": "view",
			"type": "function"
		},
		{
			"inputs": [
				{
					"internalType": "bytes32",
					"name": "role",
					"type": "bytes32"
				},
				{
					"internalType": "address",
					"name": "account",
					"type": "address"
				}
			],
			"name": "grantRole",
			"outputs": [],
			"stateMutability": "nonpayable",
			"type": "function"
		},
		{
			"inputs": [
				{
					"components": [
						{
							"internalType": "bytes32",
							"name": "role",
							"type": "bytes32"
						},
						{
							"internalType": "address",
							"name": "addr",
							"type": "address"
						}
					],
					"internalType": "struct RoleAccess[]",
					"name": "roles",
					"type": "tuple[]"
				}
			],
			"name": "grantRolesBulk",
			"outputs": [],
			"stateMutability": "nonpayable",
			"type": "function"
		},
		{
			"inputs": [
				{
					"internalType": "bytes32",
					"name": "role",
					"type": "bytes32"
				},
				{
					"internalType": "address",
					"name": "account",
					"type": "address"
				}
			],
			"name": "hasRole",
			"outputs": [
				{
					"internalType": "bool",
					"name": "",
					"type": "bool"
				}
			],
			"stateMutability": "view",
			"type": "function"
		},
		{
			"inputs": [],
			"name": "initialize",
			"outputs": [],
			"stateMutability": "nonpayable",
			"type": "function"
		},
		{
			"inputs": [
				{
					"internalType": "address",
					"name": "token",
					"type": "address"
				},
				{
					"internalType": "uint256",
					"name": "removeLpAmount",
					"type": "uint256"
				}
			],
			"name": "removeTokenLiquidity",
			"outputs": [],
			"stateMutability": "nonpayable",
			"type": "function"
		},
		{
			"inputs": [
				{
					"internalType": "bytes32",
					"name": "role",
					"type": "bytes32"
				},
				{
					"internalType": "address",
					"name": "account",
					"type": "address"
				}
			],
			"name": "renounceRole",
			"outputs": [],
			"stateMutability": "nonpayable",
			"type": "function"
		},
		{
			"inputs": [
				{
					"internalType": "bytes32",
					"name": "role",
					"type": "bytes32"
				},
				{
					"internalType": "address",
					"name": "account",
					"type": "address"
				}
			],
			"name": "revokeRole",
			"outputs": [],
			"stateMutability": "nonpayable",
			"type": "function"
		},
		{
			"inputs": [
				{
					"internalType": "bytes4",
					"name": "interfaceId",
					"type": "bytes4"
				}
			],
			"name": "supportsInterface",
			"outputs": [
				{
					"internalType": "bool",
					"name": "",
					"type": "bool"
				}
			],
			"stateMutability": "view",
			"type": "function"
		},
		{
			"inputs": [
				{
					"internalType": "address",
					"name": "tokenOut",
					"type": "address"
				},
				{
					"internalType": "uint112",
					"name": "amountCerUsdIn",
					"type": "uint112"
				},
				{
					"internalType": "uint112",
					"name": "minAmountTokenOut",
					"type": "uint112"
				},
				{
					"internalType": "uint32",
					"name": "expireTimestamp",
					"type": "uint32"
				}
			],
			"name": "swapExactCerUsdForToken",
			"outputs": [
				{
					"internalType": "uint112",
					"name": "",
					"type": "uint112"
				}
			],
			"stateMutability": "nonpayable",
			"type": "function"
		},
		{
			"inputs": [
				{
					"internalType": "address",
					"name": "tokenIn",
					"type": "address"
				},
				{
					"internalType": "address",
					"name": "tokenOut",
					"type": "address"
				},
				{
					"internalType": "uint112",
					"name": "amountTokenIn",
					"type": "uint112"
				},
				{
					"internalType": "uint112",
					"name": "minAmountTokenOut",
					"type": "uint112"
				},
				{
					"internalType": "uint32",
					"name": "expireTimestamp",
					"type": "uint32"
				}
			],
			"name": "swapExactTokenForToken",
			"outputs": [
				{
					"internalType": "uint112",
					"name": "",
					"type": "uint112"
				}
			],
			"stateMutability": "nonpayable",
			"type": "function"
		},
		{
			"inputs": [
				{
					"internalType": "address",
					"name": "tokenIn",
					"type": "address"
				},
				{
					"internalType": "uint112",
					"name": "amountTokenIn",
					"type": "uint112"
				},
				{
					"internalType": "uint112",
					"name": "minAmountCerUsdOut",
					"type": "uint112"
				},
				{
					"internalType": "uint32",
					"name": "expireTimestamp",
					"type": "uint32"
				}
			],
			"name": "swapExactTokenToCerUsd",
			"outputs": [
				{
					"internalType": "uint112",
					"name": "",
					"type": "uint112"
				}
			],
			"stateMutability": "nonpayable",
			"type": "function"
		},
		{
			"inputs": [
				{
					"internalType": "address",
					"name": "token",
					"type": "address"
				}
			],
			"name": "syncTokenBalanceInPool",
			"outputs": [],
			"stateMutability": "nonpayable",
			"type": "function"
		},
		{
			"inputs": [],
			"name": "testGetBalances",
			"outputs": [
				{
					"internalType": "uint256",
					"name": "",
					"type": "uint256"
				},
				{
					"internalType": "uint256",
					"name": "",
					"type": "uint256"
				},
				{
					"internalType": "uint256",
					"name": "",
					"type": "uint256"
				}
			],
			"stateMutability": "view",
			"type": "function"
		},
		{
			"inputs": [],
			"name": "testGetPools",
			"outputs": [
				{
					"components": [
						{
							"internalType": "address",
							"name": "token",
							"type": "address"
						},
						{
							"internalType": "uint112",
							"name": "balanceToken",
							"type": "uint112"
						},
						{
							"internalType": "uint112",
							"name": "balanceCerUsd",
							"type": "uint112"
						},
						{
							"internalType": "uint32[8]",
							"name": "hourlyTradeVolumeInCerUsd",
							"type": "uint32[8]"
						}
					],
					"internalType": "struct CerbySwapV1.Pool",
					"name": "",
					"type": "tuple"
				},
				{
					"components": [
						{
							"internalType": "address",
							"name": "token",
							"type": "address"
						},
						{
							"internalType": "uint112",
							"name": "balanceToken",
							"type": "uint112"
						},
						{
							"internalType": "uint112",
							"name": "balanceCerUsd",
							"type": "uint112"
						},
						{
							"internalType": "uint32[8]",
							"name": "hourlyTradeVolumeInCerUsd",
							"type": "uint32[8]"
						}
					],
					"internalType": "struct CerbySwapV1.Pool",
					"name": "",
					"type": "tuple"
				}
			],
			"stateMutability": "view",
			"type": "function"
		},
		{
			"inputs": [],
			"name": "testGetPrices",
			"outputs": [
				{
					"internalType": "uint256",
					"name": "",
					"type": "uint256"
				},
				{
					"internalType": "uint256",
					"name": "",
					"type": "uint256"
				}
			],
			"stateMutability": "view",
			"type": "function"
		}
	]
}