{
	"data": {
		"bytecode": {
			"linkReferences": {},
			"object": "6101406040527f6e71edae12b1b97f4d1f60370fef10105fa2faae0126114a169c64845d6126c9610120523480156200003757600080fd5b506040518060400160405280600b81526020016a21b2b9313c902a37b5b2b760a91b81525060405180604001604052806005815260200164434552425960d81b8152508180604051806040016040528060018152602001603160f81b81525084848160059080519060200190620000b092919062000bfb565b508051620000c690600690602084019062000bfb565b5050825160209384012082519284019290922060c083815260e08290524660a0818152604080517f8b73c3c69bb8fe3d512ecc4cf759cc79239f7b179b0ffacaa9a75d522b39400f818a018190528183019890985260608101959095526080808601939093523085830152805180860390920182529390920190925280519401939093209092526101005250620001639250339150620002199050565b60408051600480825260a08201909252600091816020015b6040805160c08101825260008082526020808301829052928201819052606082018190526080820181905260a082015282526000199092019101816200017b5790505090507338bdbf0fa0d7ed0e3b74ed99fb88dc9341af0d1f81600381518110620001eb57620001eb62000cd2565b60209081029190910101516001600160a01b0390911660a090910152620002128162000302565b5062000f4e565b600854610100900460ff1615620002775760405162461bcd60e51b815260206004820152601660248201527f543a20416c726561647920696e697469616c697a65640000000000000000000060448201526064015b60405180910390fd5b6008805461ff0019166101001790556200029360008262000613565b620002ae600080516020620038fc8339815191528262000613565b620002c96000805160206200389c8339815191528262000613565b620002e4600080516020620038bc8339815191528262000613565b620002ff600080516020620038dc8339815191528262000613565b50565b600062000310813362000656565b60005b600954811015620003f65762000363600080516020620038fc8339815191526009838154811062000348576200034862000cd2565b6000918252602090912001546001600160a01b0316620006f5565b6200038d6000805160206200389c8339815191526009838154811062000348576200034862000cd2565b620003b7600080516020620038bc8339815191526009838154811062000348576200034862000cd2565b620003e1600080516020620038dc8339815191526009838154811062000348576200034862000cd2565b80620003ed8162000cfe565b91505062000313565b50620004056009600062000c8a565b60005b8251811015620005d55782818151811062000427576200042762000cd2565b602002602001015160000151156200047a576200047a600080516020620038fc83398151915284838151811062000462576200046262000cd2565b602002602001015160a001516200073360201b60201c565b8281815181106200048f576200048f62000cd2565b60200260200101516020015115620004ca57620004ca6000805160206200389c83398151915284838151811062000462576200046262000cd2565b828181518110620004df57620004df62000cd2565b602002602001015160400151156200051a576200051a600080516020620038bc83398151915284838151811062000462576200046262000cd2565b8281815181106200052f576200052f62000cd2565b602002602001015160600151156200056a576200056a600080516020620038dc83398151915284838151811062000462576200046262000cd2565b600983828151811062000581576200058162000cd2565b60209081029190910181015160a0015182546001810184556000938452919092200180546001600160a01b0319166001600160a01b0390921691909117905580620005cc8162000cfe565b91505062000408565b507f13340c8e795b6b33898709afdee63a73df74c7ca9d8204d3265aa483ac0e40378260405162000607919062000d1c565b60405180910390a15050565b6200062a82826200074a60201b620013601760201c565b6000828152600160209081526040909120620006519183906200136e62000756821b17901c565b505050565b6000828152602081815260408083206001600160a01b038516845290915290205460ff16620006f157620006a0816001600160a01b031660146200077660201b620013831760201c565b620006b68360206200138362000776821b17811c565b604051602001620006c992919062000ddc565b60408051601f198184030181529082905262461bcd60e51b82526200026e9160040162000e55565b5050565b6200070c82826200092f60201b6200151f1760201c565b6000828152600160209081526040909120620006519183906200154562000959821b17901c565b6200062a82826200097060201b6200155a1760201c565b620006f1828262000985565b60006200076d836001600160a01b03841662000a25565b90505b92915050565b606060006200078783600262000e8a565b6200079490600262000eac565b6001600160401b03811115620007ae57620007ae62000cbc565b6040519080825280601f01601f191660200182016040528015620007d9576020820181803683370190505b509050600360fc1b81600081518110620007f757620007f762000cd2565b60200101906001600160f81b031916908160001a905350600f60fb1b8160018151811062000829576200082962000cd2565b60200101906001600160f81b031916908160001a90535060006200084f84600262000e8a565b6200085c90600162000eac565b90505b6001811115620008de576f181899199a1a9b1b9c1cb0b131b232b360811b85600f166010811062000894576200089462000cd2565b1a60f81b828281518110620008ad57620008ad62000cd2565b60200101906001600160f81b031916908160001a90535060049490941c93620008d68162000ec7565b90506200085f565b5083156200076d5760405162461bcd60e51b815260206004820181905260248201527f537472696e67733a20686578206c656e67746820696e73756666696369656e7460448201526064016200026e565b6000828152602081905260409020600101546200094d813362000656565b62000651838362000a77565b60006200076d836001600160a01b03841662000af7565b60006200097e813362000656565b6200065183835b6000828152602081815260408083206001600160a01b038516845290915290205460ff16620006f1576000828152602081815260408083206001600160a01b03851684529091529020805460ff19166001179055620009e13390565b6001600160a01b0316816001600160a01b0316837f2f8788117e7eff1d82e926ec794901d17c78024a50270940304540a733656f0d60405160405180910390a45050565b600081815260018301602052604081205462000a6e5750815460018181018455600084815260208082209093018490558454848252828601909352604090209190915562000770565b50600062000770565b6000828152602081815260408083206001600160a01b038516845290915290205460ff1615620006f1576000828152602081815260408083206001600160a01b0385168085529252808320805460ff1916905551339285917ff6391f5c32d9c69d2a47ea670b442974b53935d1edc7fd64eb21e047a839171b9190a45050565b6000818152600183016020526040812054801562000bf057600062000b1e60018362000ee1565b855490915060009062000b349060019062000ee1565b905081811462000ba057600086600001828154811062000b585762000b5862000cd2565b906000526020600020015490508087600001848154811062000b7e5762000b7e62000cd2565b6000918252602080832090910192909255918252600188019052604090208390555b855486908062000bb45762000bb462000efb565b60019003818190600052602060002001600090559055856001016000868152602001908152602001600020600090556001935050505062000770565b600091505062000770565b82805462000c099062000f11565b90600052602060002090601f01602090048101928262000c2d576000855562000c78565b82601f1062000c4857805160ff191683800117855562000c78565b8280016001018555821562000c78579182015b8281111562000c7857825182559160200191906001019062000c5b565b5062000c8692915062000ca5565b5090565b5080546000825590600052602060002090810190620002ff91905b5b8082111562000c86576000815560010162000ca6565b634e487b7160e01b600052604160045260246000fd5b634e487b7160e01b600052603260045260246000fd5b634e487b7160e01b600052601160045260246000fd5b600060001982141562000d155762000d1562000ce8565b5060010190565b602080825282518282018190526000919060409081850190868401855b8281101562000d9c578151805115158552868101511515878601528581015115158686015260608082015115159086015260808082015115159086015260a0908101516001600160a01b03169085015260c0909301929085019060010162000d39565b5091979650505050505050565b60005b8381101562000dc657818101518382015260200162000dac565b8381111562000dd6576000848401525b50505050565b7f416363657373436f6e74726f6c3a206163636f756e742000000000000000000081526000835162000e1681601785016020880162000da9565b7001034b99036b4b9b9b4b733903937b6329607d1b601791840191820152835162000e4981602884016020880162000da9565b01602801949350505050565b602081526000825180602084015262000e7681604085016020870162000da9565b601f01601f19169190910160400192915050565b600081600019048311821515161562000ea75762000ea762000ce8565b500290565b6000821982111562000ec25762000ec262000ce8565b500190565b60008162000ed95762000ed962000ce8565b506000190190565b60008282101562000ef65762000ef662000ce8565b500390565b634e487b7160e01b600052603160045260246000fd5b600181811c9082168062000f2657607f821691505b6020821081141562000f4857634e487b7160e01b600052602260045260246000fd5b50919050565b60805160a05160c05160e05161010051610120516128fe62000f9e600039600061121901526000611a5d01526000611aac01526000611a8701526000611a0b01526000611a3401526128fe6000f3fe608060405234801561001057600080fd5b50600436106102695760003560e01c806366830b2111610151578063a457c2d7116100c3578063ca15c87311610087578063ca15c87314610541578063d391014b14610554578063d505accf1461055c578063d547741f1461056f578063dd62ed3e14610582578063eaf9d194146105bb57600080fd5b8063a457c2d7146104f3578063a9059cbb14610506578063b187bd2614610519578063c238651b14610526578063c4bc5da51461053957600080fd5b80638c5f36bb116101155780638c5f36bb1461048a5780639010d07c1461049d57806391d14854146104b057806392afc33a146104c357806395d89b41146104d85780639cff2eba146104e057600080fd5b806366830b211461041357806370a0823114610426578063789210b31461044f5780637ecebe00146104625780638493712a1461047557600080fd5b80631f2eba24116101ea5780633408e470116101ae5780633408e470146103c25780633644e515146103c857806336568abe146103d057806339509351146103e3578063439766ce146103f657806354ff02d8146103fe57600080fd5b80631f2eba241461035757806323b872dd1461036a578063248a9ca31461037d5780632f2ff15d146103a0578063313ce567146103b357600080fd5b8063095ea7b311610231578063095ea7b31461030e5780630bb9ff5d1461032157806318160ddd1461033457806318a8ad871461033c5780631bf73b721461034f57600080fd5b806301ffc9a71461026e5780630288f0fb1461029657806303ed957f146102b957806306fb1a07146102ce57806306fdde03146102f9575b600080fd5b61028161027c3660046120b5565b6105ce565b60405190151581526020015b60405180910390f35b6102ab60008051602061288983398151915281565b60405190815260200161028d565b6102cc6102c73660046120df565b6105f9565b005b6102e16102dc366004612154565b610676565b6040516001600160a01b03909116815260200161028d565b6103016106a6565b60405161028d9190612199565b61028161031c3660046121e8565b610738565b6102cc61032f3660046121e8565b61074e565b6003546102ab565b6102cc61034a3660046121e8565b6107e5565b6009546102ab565b6102cc6103653660046121e8565b61086a565b610281610378366004612212565b6108ef565b6102ab61038b366004612154565b60009081526020819052604090206001015490565b6102cc6103ae36600461224e565b6109e7565b6040516012815260200161028d565b466102ab565b6102ab610a0e565b6102cc6103de36600461224e565b610a1d565b6102816103f13660046121e8565b610a3f565b6102cc610a76565b6102ab60008051602061284983398151915281565b6102cc6104213660046121e8565b610ab5565b6102ab61043436600461227a565b6001600160a01b031660009081526002602052604090205490565b6102cc61045d366004612313565b610b3a565b6102ab61047036600461227a565b610dfa565b6102ab60008051602061286983398151915281565b6102cc61049836600461227a565b610e18565b6102e16104ab366004612439565b610ee6565b6102816104be36600461224e565b610f05565b6102ab6000805160206128a983398151915281565b610301610f2e565b6102cc6104ee366004612212565b610f3d565b6102816105013660046121e8565b610ffd565b6102816105143660046121e8565b611098565b6008546102819060ff1681565b610281610534366004612212565b6110c9565b6102cc611156565b6102ab61054f366004612154565b6111ae565b6102ab600081565b6102cc61056a36600461245b565b6111c5565b6102cc61057d36600461224e565b611329565b6102ab6105903660046124ce565b6001600160a01b03918216600090815260046020908152604080832093909416825291909152205490565b6102cc6105c9366004612541565b611333565b60006001600160e01b03198216635a05180f60e01b14806105f357506105f382611570565b92915050565b600061060581336115a5565b60005b828110156106705761065e848483818110610625576106256125ad565b90506040020160000135858584818110610641576106416125ad565b9050604002016020016020810190610659919061227a565b611609565b80610668816125d9565b915050610608565b50505050565b60006009828154811061068b5761068b6125ad565b6000918252602090912001546001600160a01b031692915050565b6060600580546106b5906125f4565b80601f01602080910402602001604051908101604052809291908181526020018280546106e1906125f4565b801561072e5780601f106107035761010080835404028352916020019161072e565b820191906000526020600020905b81548152906001019060200180831161071157829003601f168201915b5050505050905090565b6000610745338484611613565b50600192915050565b60085460ff161561077a5760405162461bcd60e51b815260040161077190612629565b60405180910390fd5b6000805160206128a983398151915261079381336115a5565b61079d8383611738565b604080516001600160a01b0385168152602081018490527f099fc78bcf3c24b8cd6ad4eda1e3eb007e511c09c640af1c46437ded34cf10f291015b60405180910390a1505050565b60085460ff16156108085760405162461bcd60e51b815260040161077190612629565b60008051602061284983398151915261082181336115a5565b61082b83836117e3565b604080516001600160a01b0385168152602081018490527f0a5b82707bc4ce1d57e909b70adb28e393a34c2ab77e30f862ca2e0e9f8da90591016107d8565b60085460ff161561088d5760405162461bcd60e51b815260040161077190612629565b6000805160206128a98339815191526108a681336115a5565b6108b08383611738565b604080516001600160a01b0385168152602081018490527f7d48429c6eb871d47dea691d65bb2d1f99eaf5d33e7a06363b8fafb3f6ea017891016107d8565b60085460009060ff16156109155760405162461bcd60e51b815260040161077190612629565b826001600160a01b03811661093c5760405162461bcd60e51b81526004016107719061264c565b61094785858561186e565b6001600160a01b0385166000908152600460209081526040808320338452909152902054838110156109c75760405162461bcd60e51b8152602060048201526024808201527f543a207472616e7366657220616d6f756e74206578636565647320616c6c6f77604482015263616e636560e01b6064820152608401610771565b6109db86336109d6878561266e565b611613565b50600195945050505050565b6109f1828261155a565b6000828152600160205260409020610a09908261136e565b505050565b6000610a18611a07565b905090565b610a278282611afa565b6000828152600160205260409020610a099082611545565b3360008181526004602090815260408083206001600160a01b038716845290915281205490916107459185906109d6908690612685565b60085460ff1615610a995760405162461bcd60e51b815260040161077190612629565b6000610aa581336115a5565b506008805460ff19166001179055565b60085460ff1615610ad85760405162461bcd60e51b815260040161077190612629565b600080516020612849833981519152610af181336115a5565b610afb83836117e3565b604080516001600160a01b0385168152602081018490527f3eac2380fcf2b255bd916ae212498a2e55f3c99baab43d3eb29cb6349639d0d291016107d8565b6000610b4681336115a5565b60005b600954811015610c1357610b926000805160206128a983398151915260098381548110610b7857610b786125ad565b6000918252602090912001546001600160a01b0316611329565b610bb760008051602061284983398151915260098381548110610b7857610b786125ad565b610bdc60008051602061286983398151915260098381548110610b7857610b786125ad565b610c0160008051602061288983398151915260098381548110610b7857610b786125ad565b80610c0b816125d9565b915050610b49565b50610c2060096000611ffe565b60005b8251811015610dbe57828181518110610c3e57610c3e6125ad565b60200260200101516000015115610c8457610c846000805160206128a9833981519152848381518110610c7357610c736125ad565b602002602001015160a001516109e7565b828181518110610c9657610c966125ad565b60200260200101516020015115610ccb57610ccb600080516020612849833981519152848381518110610c7357610c736125ad565b828181518110610cdd57610cdd6125ad565b60200260200101516040015115610d1257610d12600080516020612869833981519152848381518110610c7357610c736125ad565b828181518110610d2457610d246125ad565b60200260200101516060015115610d5957610d59600080516020612889833981519152848381518110610c7357610c736125ad565b6009838281518110610d6d57610d6d6125ad565b60209081029190910181015160a0015182546001810184556000938452919092200180546001600160a01b0319166001600160a01b0390921691909117905580610db6816125d9565b915050610c23565b507f13340c8e795b6b33898709afdee63a73df74c7ca9d8204d3265aa483ac0e403782604051610dee919061269d565b60405180910390a15050565b6001600160a01b0381166000908152600760205260408120546105f3565b600854610100900460ff1615610e695760405162461bcd60e51b8152602060048201526016602482015275150e88105b1c9958591e481a5b9a5d1a585b1a5e995960521b6044820152606401610771565b6008805461ff001916610100179055610e83600082611609565b610e9b6000805160206128a983398151915282611609565b610eb360008051602061284983398151915282611609565b610ecb60008051602061286983398151915282611609565b610ee360008051602061288983398151915282611609565b50565b6000828152600160205260408120610efe9083611b74565b9392505050565b6000918252602082815260408084206001600160a01b0393909316845291905290205460ff1690565b6060600680546106b5906125f4565b60085460ff1615610f605760405162461bcd60e51b815260040161077190612629565b600080516020612869833981519152610f7981336115a5565b826001600160a01b038116610fa05760405162461bcd60e51b81526004016107719061264c565b610fab85858561186e565b604080516001600160a01b038088168252861660208201529081018490527f4f21c37c3184c9b0bbc63a812b0a1a148f15f1bd6db127e7e562d9b0436803259060600160405180910390a15050505050565b3360009081526004602090815260408083206001600160a01b03861684529091528120548281101561107f5760405162461bcd60e51b815260206004820152602560248201527f45524332303a2064656372656173656420616c6c6f77616e63652062656c6f77604482015264207a65726f60d81b6064820152608401610771565b61108e33856109d6868561266e565b5060019392505050565b60085460009060ff16156110be5760405162461bcd60e51b815260040161077190612629565b61074533848461186e565b60085460009060ff1661110b5760405162461bcd60e51b815260206004820152600a602482015269150e88085c185d5cd95960b21b6044820152606401610771565b60008051602061288983398151915261112481336115a5565b836001600160a01b03811661114b5760405162461bcd60e51b81526004016107719061264c565b6109db86868661186e565b60085460ff166111955760405162461bcd60e51b815260206004820152600a602482015269150e88085c185d5cd95960b21b6044820152606401610771565b60006111a181336115a5565b506008805460ff19169055565b60008181526001602052604081206105f390611b80565b834211156112155760405162461bcd60e51b815260206004820152601d60248201527f45524332305065726d69743a206578706972656420646561646c696e650000006044820152606401610771565b60007f00000000000000000000000000000000000000000000000000000000000000008888886112448c611b8a565b6040805160208101969096526001600160a01b0394851690860152929091166060840152608083015260a082015260c0810186905260e001604051602081830303815290604052805190602001209050600061129f82611bb2565b905060006112af82878787611c00565b9050896001600160a01b0316816001600160a01b0316146113125760405162461bcd60e51b815260206004820152601e60248201527f45524332305065726d69743a20696e76616c6964207369676e617475726500006044820152606401610771565b61131d8a8a8a611613565b50505050505050505050565b610a27828261151f565b600061133f81336115a5565b61134b6005868661201c565b506113586006848461201c565b505050505050565b61136a8282611da9565b5050565b6000610efe836001600160a01b038416611e2d565b60606000611392836002612728565b61139d906002612685565b67ffffffffffffffff8111156113b5576113b5612295565b6040519080825280601f01601f1916602001820160405280156113df576020820181803683370190505b509050600360fc1b816000815181106113fa576113fa6125ad565b60200101906001600160f81b031916908160001a905350600f60fb1b81600181518110611429576114296125ad565b60200101906001600160f81b031916908160001a905350600061144d846002612728565b611458906001612685565b90505b60018111156114d0576f181899199a1a9b1b9c1cb0b131b232b360811b85600f166010811061148c5761148c6125ad565b1a60f81b8282815181106114a2576114a26125ad565b60200101906001600160f81b031916908160001a90535060049490941c936114c981612747565b905061145b565b508315610efe5760405162461bcd60e51b815260206004820181905260248201527f537472696e67733a20686578206c656e67746820696e73756666696369656e746044820152606401610771565b60008281526020819052604090206001015461153b81336115a5565b610a098383611e7c565b6000610efe836001600160a01b038416611ee1565b600061156681336115a5565b610a098383611da9565b60006001600160e01b03198216637965db0b60e01b14806105f357506301ffc9a760e01b6001600160e01b03198316146105f3565b6115af8282610f05565b61136a576115c7816001600160a01b03166014611383565b6115d2836020611383565b6040516020016115e392919061275e565b60408051601f198184030181529082905262461bcd60e51b825261077191600401612199565b6109f18282611360565b6001600160a01b0383166116755760405162461bcd60e51b8152602060048201526024808201527f45524332303a20617070726f76652066726f6d20746865207a65726f206164646044820152637265737360e01b6064820152608401610771565b6001600160a01b0382166116d65760405162461bcd60e51b815260206004820152602260248201527f45524332303a20617070726f766520746f20746865207a65726f206164647265604482015261737360f01b6064820152608401610771565b6001600160a01b0383811660008181526004602090815260408083209487168084529482529182902085905590518481527f8c5be1e5ebec7d5bd14f71427d1e84f3dd0314c0f7b2291e5b200ac8c7c3b92591015b60405180910390a3505050565b816001600160a01b03811661175f5760405162461bcd60e51b81526004016107719061264c565b6001600160a01b03831660009081526002602052604081208054849290611787908490612685565b9250508190555081600360008282546117a09190612685565b90915550506040518281526001600160a01b038416906000907fddf252ad1be2c89b69c2b068fc378daa952ba7f163c4a11628f55a4df523b3ef9060200161172b565b6001600160a01b0382166000908152600260205260408120805483929061180b90849061266e565b925050819055508060036000828254611824919061266e565b90915550506040518181526000906001600160a01b038416907fddf252ad1be2c89b69c2b068fc378daa952ba7f163c4a11628f55a4df523b3ef9060200160405180910390a35050565b816001600160a01b0381166118955760405162461bcd60e51b81526004016107719061264c565b83838360006118a46003610676565b6001600160a01b03848116600081815260026020526040908190205490516359a7f9b760e11b815273def1fac7bf08f173d286bbbdcbeeade69512984060048201528884166024820152604481019290925260648201526084810185905291925082169063b34ff36e9060a40160408051808303816000875af115801561192f573d6000803e3d6000fd5b505050506040513d601f19601f8201168201806040525081019061195391906127d3565b506001600160a01b0388166000908152600260205260408120805488929061197c90849061266e565b90915550506001600160a01b038716600090815260026020526040812080548892906119a9908490612685565b92505081905550866001600160a01b0316886001600160a01b03167fddf252ad1be2c89b69c2b068fc378daa952ba7f163c4a11628f55a4df523b3ef886040516119f591815260200190565b60405180910390a35050505050505050565b60007f0000000000000000000000000000000000000000000000000000000000000000461415611a5657507f000000000000000000000000000000000000000000000000000000000000000090565b50604080517f00000000000000000000000000000000000000000000000000000000000000006020808301919091527f0000000000000000000000000000000000000000000000000000000000000000828401527f000000000000000000000000000000000000000000000000000000000000000060608301524660808301523060a0808401919091528351808403909101815260c0909201909252805191012090565b6001600160a01b0381163314611b6a5760405162461bcd60e51b815260206004820152602f60248201527f416363657373436f6e74726f6c3a2063616e206f6e6c792072656e6f756e636560448201526e103937b632b9903337b91039b2b63360891b6064820152608401610771565b61136a8282611e7c565b6000610efe8383611fd4565b60006105f3825490565b6001600160a01b03811660009081526007602052604090208054600181018255905b50919050565b60006105f3611bbf611a07565b8360405161190160f01b6020820152602281018390526042810182905260009060620160405160208183030381529060405280519060200120905092915050565b60007f7fffffffffffffffffffffffffffffff5d576e7357a4501ddfe92f46681b20a0821115611c7d5760405162461bcd60e51b815260206004820152602260248201527f45434453413a20696e76616c6964207369676e6174757265202773272076616c604482015261756560f01b6064820152608401610771565b8360ff16601b1480611c9257508360ff16601c145b611ce95760405162461bcd60e51b815260206004820152602260248201527f45434453413a20696e76616c6964207369676e6174757265202776272076616c604482015261756560f01b6064820152608401610771565b6040805160008082526020820180845288905260ff871692820192909252606081018590526080810184905260019060a0016020604051602081039080840390855afa158015611d3d573d6000803e3d6000fd5b5050604051601f1901519150506001600160a01b038116611da05760405162461bcd60e51b815260206004820152601860248201527f45434453413a20696e76616c6964207369676e617475726500000000000000006044820152606401610771565b95945050505050565b611db38282610f05565b61136a576000828152602081815260408083206001600160a01b03851684529091529020805460ff19166001179055611de93390565b6001600160a01b0316816001600160a01b0316837f2f8788117e7eff1d82e926ec794901d17c78024a50270940304540a733656f0d60405160405180910390a45050565b6000818152600183016020526040812054611e74575081546001818101845560008481526020808220909301849055845484825282860190935260409020919091556105f3565b5060006105f3565b611e868282610f05565b1561136a576000828152602081815260408083206001600160a01b0385168085529252808320805460ff1916905551339285917ff6391f5c32d9c69d2a47ea670b442974b53935d1edc7fd64eb21e047a839171b9190a45050565b60008181526001830160205260408120548015611fca576000611f0560018361266e565b8554909150600090611f199060019061266e565b9050818114611f7e576000866000018281548110611f3957611f396125ad565b9060005260206000200154905080876000018481548110611f5c57611f5c6125ad565b6000918252602080832090910192909255918252600188019052604090208390555b8554869080611f8f57611f8f612832565b6001900381819060005260206000200160009055905585600101600086815260200190815260200160002060009055600193505050506105f3565b60009150506105f3565b6000826000018281548110611feb57611feb6125ad565b9060005260206000200154905092915050565b5080546000825590600052602060002090810190610ee391906120a0565b828054612028906125f4565b90600052602060002090601f01602090048101928261204a5760008555612090565b82601f106120635782800160ff19823516178555612090565b82800160010185558215612090579182015b82811115612090578235825591602001919060010190612075565b5061209c9291506120a0565b5090565b5b8082111561209c57600081556001016120a1565b6000602082840312156120c757600080fd5b81356001600160e01b031981168114610efe57600080fd5b600080602083850312156120f257600080fd5b823567ffffffffffffffff8082111561210a57600080fd5b818501915085601f83011261211e57600080fd5b81358181111561212d57600080fd5b8660208260061b850101111561214257600080fd5b60209290920196919550909350505050565b60006020828403121561216657600080fd5b5035919050565b60005b83811015612188578181015183820152602001612170565b838111156106705750506000910152565b60208152600082518060208401526121b881604085016020870161216d565b601f01601f19169190910160400192915050565b80356001600160a01b03811681146121e357600080fd5b919050565b600080604083850312156121fb57600080fd5b612204836121cc565b946020939093013593505050565b60008060006060848603121561222757600080fd5b612230846121cc565b925061223e602085016121cc565b9150604084013590509250925092565b6000806040838503121561226157600080fd5b82359150612271602084016121cc565b90509250929050565b60006020828403121561228c57600080fd5b610efe826121cc565b634e487b7160e01b600052604160045260246000fd5b60405160c0810167ffffffffffffffff811182821017156122ce576122ce612295565b60405290565b604051601f8201601f1916810167ffffffffffffffff811182821017156122fd576122fd612295565b604052919050565b8015158114610ee357600080fd5b6000602080838503121561232657600080fd5b823567ffffffffffffffff8082111561233e57600080fd5b818501915085601f83011261235257600080fd5b81358181111561236457612364612295565b612372848260051b016122d4565b818152848101925060c091820284018501918883111561239157600080fd5b938501935b8285101561242d5780858a0312156123ae5760008081fd5b6123b66122ab565b85356123c181612305565b8152858701356123d081612305565b818801526040868101356123e381612305565b908201526060868101356123f681612305565b9082015260808681013561240981612305565b9082015260a061241a8782016121cc565b9082015284529384019392850192612396565b50979650505050505050565b6000806040838503121561244c57600080fd5b50508035926020909101359150565b600080600080600080600060e0888a03121561247657600080fd5b61247f886121cc565b965061248d602089016121cc565b95506040880135945060608801359350608088013560ff811681146124b157600080fd5b9699959850939692959460a0840135945060c09093013592915050565b600080604083850312156124e157600080fd5b6124ea836121cc565b9150612271602084016121cc565b60008083601f84011261250a57600080fd5b50813567ffffffffffffffff81111561252257600080fd5b60208301915083602082850101111561253a57600080fd5b9250929050565b6000806000806040858703121561255757600080fd5b843567ffffffffffffffff8082111561256f57600080fd5b61257b888389016124f8565b9096509450602087013591508082111561259457600080fd5b506125a1878288016124f8565b95989497509550505050565b634e487b7160e01b600052603260045260246000fd5b634e487b7160e01b600052601160045260246000fd5b60006000198214156125ed576125ed6125c3565b5060010190565b600181811c9082168061260857607f821691505b60208210811415611bac57634e487b7160e01b600052602260045260246000fd5b602080825260099082015268150e881c185d5cd95960ba1b604082015260600190565b6020808252600890820152672a1d1010b13ab93760c11b604082015260600190565b600082821015612680576126806125c3565b500390565b60008219821115612698576126986125c3565b500190565b602080825282518282018190526000919060409081850190868401855b8281101561271b578151805115158552868101511515878601528581015115158686015260608082015115159086015260808082015115159086015260a0908101516001600160a01b03169085015260c090930192908501906001016126ba565b5091979650505050505050565b6000816000190483118215151615612742576127426125c3565b500290565b600081612756576127566125c3565b506000190190565b7f416363657373436f6e74726f6c3a206163636f756e742000000000000000000081526000835161279681601785016020880161216d565b7001034b99036b4b9b9b4b733903937b6329607d1b60179184019182015283516127c781602884016020880161216d565b01602801949350505050565b6000604082840312156127e557600080fd5b6040516040810181811067ffffffffffffffff8211171561280857612808612295565b604052825161281681612305565b8152602083015161282681612305565b60208201529392505050565b634e487b7160e01b600052603160045260246000fdfeb5b5a86cc252b1b75a439c6ff372933ceb0690188924e6461150adeb00ab80d802a8464c3e212c8f1064432774c6cc3e76f14bd7ccdafd9a1d1cf9b43b51e524233299fc8224c0cb5b2b8b651b93354cf11d5245f1374bb37773608ffa1913c1aeaef46186eb59f884e36929b6d682a6ae35e1e43d8f05f058dcefb92b601461a2646970667358221220c16aca0c765987222ce6f2abc4d1135bd020e74b330e5397af57da4383bf4d4864736f6c634300080a0033b5b5a86cc252b1b75a439c6ff372933ceb0690188924e6461150adeb00ab80d802a8464c3e212c8f1064432774c6cc3e76f14bd7ccdafd9a1d1cf9b43b51e524233299fc8224c0cb5b2b8b651b93354cf11d5245f1374bb37773608ffa1913c1aeaef46186eb59f884e36929b6d682a6ae35e1e43d8f05f058dcefb92b601461",
			"opcodes": "PUSH2 0x140 PUSH1 0x40 MSTORE PUSH32 0x6E71EDAE12B1B97F4D1F60370FEF10105FA2FAAE0126114A169C64845D6126C9 PUSH2 0x120 MSTORE CALLVALUE DUP1 ISZERO PUSH3 0x37 JUMPI PUSH1 0x0 DUP1 REVERT JUMPDEST POP PUSH1 0x40 MLOAD DUP1 PUSH1 0x40 ADD PUSH1 0x40 MSTORE DUP1 PUSH1 0xB DUP2 MSTORE PUSH1 0x20 ADD PUSH11 0x21B2B9313C902A37B5B2B7 PUSH1 0xA9 SHL DUP2 MSTORE POP PUSH1 0x40 MLOAD DUP1 PUSH1 0x40 ADD PUSH1 0x40 MSTORE DUP1 PUSH1 0x5 DUP2 MSTORE PUSH1 0x20 ADD PUSH5 0x4345524259 PUSH1 0xD8 SHL DUP2 MSTORE POP DUP2 DUP1 PUSH1 0x40 MLOAD DUP1 PUSH1 0x40 ADD PUSH1 0x40 MSTORE DUP1 PUSH1 0x1 DUP2 MSTORE PUSH1 0x20 ADD PUSH1 0x31 PUSH1 0xF8 SHL DUP2 MSTORE POP DUP5 DUP5 DUP2 PUSH1 0x5 SWAP1 DUP1 MLOAD SWAP1 PUSH1 0x20 ADD SWAP1 PUSH3 0xB0 SWAP3 SWAP2 SWAP1 PUSH3 0xBFB JUMP JUMPDEST POP DUP1 MLOAD PUSH3 0xC6 SWAP1 PUSH1 0x6 SWAP1 PUSH1 0x20 DUP5 ADD SWAP1 PUSH3 0xBFB JUMP JUMPDEST POP POP DUP3 MLOAD PUSH1 0x20 SWAP4 DUP5 ADD KECCAK256 DUP3 MLOAD SWAP3 DUP5 ADD SWAP3 SWAP1 SWAP3 KECCAK256 PUSH1 0xC0 DUP4 DUP2 MSTORE PUSH1 0xE0 DUP3 SWAP1 MSTORE CHAINID PUSH1 0xA0 DUP2 DUP2 MSTORE PUSH1 0x40 DUP1 MLOAD PUSH32 0x8B73C3C69BB8FE3D512ECC4CF759CC79239F7B179B0FFACAA9A75D522B39400F DUP2 DUP11 ADD DUP2 SWAP1 MSTORE DUP2 DUP4 ADD SWAP9 SWAP1 SWAP9 MSTORE PUSH1 0x60 DUP2 ADD SWAP6 SWAP1 SWAP6 MSTORE PUSH1 0x80 DUP1 DUP7 ADD SWAP4 SWAP1 SWAP4 MSTORE ADDRESS DUP6 DUP4 ADD MSTORE DUP1 MLOAD DUP1 DUP7 SUB SWAP1 SWAP3 ADD DUP3 MSTORE SWAP4 SWAP1 SWAP3 ADD SWAP1 SWAP3 MSTORE DUP1 MLOAD SWAP5 ADD SWAP4 SWAP1 SWAP4 KECCAK256 SWAP1 SWAP3 MSTORE PUSH2 0x100 MSTORE POP PUSH3 0x163 SWAP3 POP CALLER SWAP2 POP PUSH3 0x219 SWAP1 POP JUMP JUMPDEST PUSH1 0x40 DUP1 MLOAD PUSH1 0x4 DUP1 DUP3 MSTORE PUSH1 0xA0 DUP3 ADD SWAP1 SWAP3 MSTORE PUSH1 0x0 SWAP2 DUP2 PUSH1 0x20 ADD JUMPDEST PUSH1 0x40 DUP1 MLOAD PUSH1 0xC0 DUP2 ADD DUP3 MSTORE PUSH1 0x0 DUP1 DUP3 MSTORE PUSH1 0x20 DUP1 DUP4 ADD DUP3 SWAP1 MSTORE SWAP3 DUP3 ADD DUP2 SWAP1 MSTORE PUSH1 0x60 DUP3 ADD DUP2 SWAP1 MSTORE PUSH1 0x80 DUP3 ADD DUP2 SWAP1 MSTORE PUSH1 0xA0 DUP3 ADD MSTORE DUP3 MSTORE PUSH1 0x0 NOT SWAP1 SWAP3 ADD SWAP2 ADD DUP2 PUSH3 0x17B JUMPI SWAP1 POP POP SWAP1 POP PUSH20 0x38BDBF0FA0D7ED0E3B74ED99FB88DC9341AF0D1F DUP2 PUSH1 0x3 DUP2 MLOAD DUP2 LT PUSH3 0x1EB JUMPI PUSH3 0x1EB PUSH3 0xCD2 JUMP JUMPDEST PUSH1 0x20 SWAP1 DUP2 MUL SWAP2 SWAP1 SWAP2 ADD ADD MLOAD PUSH1 0x1 PUSH1 0x1 PUSH1 0xA0 SHL SUB SWAP1 SWAP2 AND PUSH1 0xA0 SWAP1 SWAP2 ADD MSTORE PUSH3 0x212 DUP2 PUSH3 0x302 JUMP JUMPDEST POP PUSH3 0xF4E JUMP JUMPDEST PUSH1 0x8 SLOAD PUSH2 0x100 SWAP1 DIV PUSH1 0xFF AND ISZERO PUSH3 0x277 JUMPI PUSH1 0x40 MLOAD PUSH3 0x461BCD PUSH1 0xE5 SHL DUP2 MSTORE PUSH1 0x20 PUSH1 0x4 DUP3 ADD MSTORE PUSH1 0x16 PUSH1 0x24 DUP3 ADD MSTORE PUSH32 0x543A20416C726561647920696E697469616C697A656400000000000000000000 PUSH1 0x44 DUP3 ADD MSTORE PUSH1 0x64 ADD JUMPDEST PUSH1 0x40 MLOAD DUP1 SWAP2 SUB SWAP1 REVERT JUMPDEST PUSH1 0x8 DUP1 SLOAD PUSH2 0xFF00 NOT AND PUSH2 0x100 OR SWAP1 SSTORE PUSH3 0x293 PUSH1 0x0 DUP3 PUSH3 0x613 JUMP JUMPDEST PUSH3 0x2AE PUSH1 0x0 DUP1 MLOAD PUSH1 0x20 PUSH3 0x38FC DUP4 CODECOPY DUP2 MLOAD SWAP2 MSTORE DUP3 PUSH3 0x613 JUMP JUMPDEST PUSH3 0x2C9 PUSH1 0x0 DUP1 MLOAD PUSH1 0x20 PUSH3 0x389C DUP4 CODECOPY DUP2 MLOAD SWAP2 MSTORE DUP3 PUSH3 0x613 JUMP JUMPDEST PUSH3 0x2E4 PUSH1 0x0 DUP1 MLOAD PUSH1 0x20 PUSH3 0x38BC DUP4 CODECOPY DUP2 MLOAD SWAP2 MSTORE DUP3 PUSH3 0x613 JUMP JUMPDEST PUSH3 0x2FF PUSH1 0x0 DUP1 MLOAD PUSH1 0x20 PUSH3 0x38DC DUP4 CODECOPY DUP2 MLOAD SWAP2 MSTORE DUP3 PUSH3 0x613 JUMP JUMPDEST POP JUMP JUMPDEST PUSH1 0x0 PUSH3 0x310 DUP2 CALLER PUSH3 0x656 JUMP JUMPDEST PUSH1 0x0 JUMPDEST PUSH1 0x9 SLOAD DUP2 LT ISZERO PUSH3 0x3F6 JUMPI PUSH3 0x363 PUSH1 0x0 DUP1 MLOAD PUSH1 0x20 PUSH3 0x38FC DUP4 CODECOPY DUP2 MLOAD SWAP2 MSTORE PUSH1 0x9 DUP4 DUP2 SLOAD DUP2 LT PUSH3 0x348 JUMPI PUSH3 0x348 PUSH3 0xCD2 JUMP JUMPDEST PUSH1 0x0 SWAP2 DUP3 MSTORE PUSH1 0x20 SWAP1 SWAP2 KECCAK256 ADD SLOAD PUSH1 0x1 PUSH1 0x1 PUSH1 0xA0 SHL SUB AND PUSH3 0x6F5 JUMP JUMPDEST PUSH3 0x38D PUSH1 0x0 DUP1 MLOAD PUSH1 0x20 PUSH3 0x389C DUP4 CODECOPY DUP2 MLOAD SWAP2 MSTORE PUSH1 0x9 DUP4 DUP2 SLOAD DUP2 LT PUSH3 0x348 JUMPI PUSH3 0x348 PUSH3 0xCD2 JUMP JUMPDEST PUSH3 0x3B7 PUSH1 0x0 DUP1 MLOAD PUSH1 0x20 PUSH3 0x38BC DUP4 CODECOPY DUP2 MLOAD SWAP2 MSTORE PUSH1 0x9 DUP4 DUP2 SLOAD DUP2 LT PUSH3 0x348 JUMPI PUSH3 0x348 PUSH3 0xCD2 JUMP JUMPDEST PUSH3 0x3E1 PUSH1 0x0 DUP1 MLOAD PUSH1 0x20 PUSH3 0x38DC DUP4 CODECOPY DUP2 MLOAD SWAP2 MSTORE PUSH1 0x9 DUP4 DUP2 SLOAD DUP2 LT PUSH3 0x348 JUMPI PUSH3 0x348 PUSH3 0xCD2 JUMP JUMPDEST DUP1 PUSH3 0x3ED DUP2 PUSH3 0xCFE JUMP JUMPDEST SWAP2 POP POP PUSH3 0x313 JUMP JUMPDEST POP PUSH3 0x405 PUSH1 0x9 PUSH1 0x0 PUSH3 0xC8A JUMP JUMPDEST PUSH1 0x0 JUMPDEST DUP3 MLOAD DUP2 LT ISZERO PUSH3 0x5D5 JUMPI DUP3 DUP2 DUP2 MLOAD DUP2 LT PUSH3 0x427 JUMPI PUSH3 0x427 PUSH3 0xCD2 JUMP JUMPDEST PUSH1 0x20 MUL PUSH1 0x20 ADD ADD MLOAD PUSH1 0x0 ADD MLOAD ISZERO PUSH3 0x47A JUMPI PUSH3 0x47A PUSH1 0x0 DUP1 MLOAD PUSH1 0x20 PUSH3 0x38FC DUP4 CODECOPY DUP2 MLOAD SWAP2 MSTORE DUP5 DUP4 DUP2 MLOAD DUP2 LT PUSH3 0x462 JUMPI PUSH3 0x462 PUSH3 0xCD2 JUMP JUMPDEST PUSH1 0x20 MUL PUSH1 0x20 ADD ADD MLOAD PUSH1 0xA0 ADD MLOAD PUSH3 0x733 PUSH1 0x20 SHL PUSH1 0x20 SHR JUMP JUMPDEST DUP3 DUP2 DUP2 MLOAD DUP2 LT PUSH3 0x48F JUMPI PUSH3 0x48F PUSH3 0xCD2 JUMP JUMPDEST PUSH1 0x20 MUL PUSH1 0x20 ADD ADD MLOAD PUSH1 0x20 ADD MLOAD ISZERO PUSH3 0x4CA JUMPI PUSH3 0x4CA PUSH1 0x0 DUP1 MLOAD PUSH1 0x20 PUSH3 0x389C DUP4 CODECOPY DUP2 MLOAD SWAP2 MSTORE DUP5 DUP4 DUP2 MLOAD DUP2 LT PUSH3 0x462 JUMPI PUSH3 0x462 PUSH3 0xCD2 JUMP JUMPDEST DUP3 DUP2 DUP2 MLOAD DUP2 LT PUSH3 0x4DF JUMPI PUSH3 0x4DF PUSH3 0xCD2 JUMP JUMPDEST PUSH1 0x20 MUL PUSH1 0x20 ADD ADD MLOAD PUSH1 0x40 ADD MLOAD ISZERO PUSH3 0x51A JUMPI PUSH3 0x51A PUSH1 0x0 DUP1 MLOAD PUSH1 0x20 PUSH3 0x38BC DUP4 CODECOPY DUP2 MLOAD SWAP2 MSTORE DUP5 DUP4 DUP2 MLOAD DUP2 LT PUSH3 0x462 JUMPI PUSH3 0x462 PUSH3 0xCD2 JUMP JUMPDEST DUP3 DUP2 DUP2 MLOAD DUP2 LT PUSH3 0x52F JUMPI PUSH3 0x52F PUSH3 0xCD2 JUMP JUMPDEST PUSH1 0x20 MUL PUSH1 0x20 ADD ADD MLOAD PUSH1 0x60 ADD MLOAD ISZERO PUSH3 0x56A JUMPI PUSH3 0x56A PUSH1 0x0 DUP1 MLOAD PUSH1 0x20 PUSH3 0x38DC DUP4 CODECOPY DUP2 MLOAD SWAP2 MSTORE DUP5 DUP4 DUP2 MLOAD DUP2 LT PUSH3 0x462 JUMPI PUSH3 0x462 PUSH3 0xCD2 JUMP JUMPDEST PUSH1 0x9 DUP4 DUP3 DUP2 MLOAD DUP2 LT PUSH3 0x581 JUMPI PUSH3 0x581 PUSH3 0xCD2 JUMP JUMPDEST PUSH1 0x20 SWAP1 DUP2 MUL SWAP2 SWAP1 SWAP2 ADD DUP2 ADD MLOAD PUSH1 0xA0 ADD MLOAD DUP3 SLOAD PUSH1 0x1 DUP2 ADD DUP5 SSTORE PUSH1 0x0 SWAP4 DUP5 MSTORE SWAP2 SWAP1 SWAP3 KECCAK256 ADD DUP1 SLOAD PUSH1 0x1 PUSH1 0x1 PUSH1 0xA0 SHL SUB NOT AND PUSH1 0x1 PUSH1 0x1 PUSH1 0xA0 SHL SUB SWAP1 SWAP3 AND SWAP2 SWAP1 SWAP2 OR SWAP1 SSTORE DUP1 PUSH3 0x5CC DUP2 PUSH3 0xCFE JUMP JUMPDEST SWAP2 POP POP PUSH3 0x408 JUMP JUMPDEST POP PUSH32 0x13340C8E795B6B33898709AFDEE63A73DF74C7CA9D8204D3265AA483AC0E4037 DUP3 PUSH1 0x40 MLOAD PUSH3 0x607 SWAP2 SWAP1 PUSH3 0xD1C JUMP JUMPDEST PUSH1 0x40 MLOAD DUP1 SWAP2 SUB SWAP1 LOG1 POP POP JUMP JUMPDEST PUSH3 0x62A DUP3 DUP3 PUSH3 0x74A PUSH1 0x20 SHL PUSH3 0x1360 OR PUSH1 0x20 SHR JUMP JUMPDEST PUSH1 0x0 DUP3 DUP2 MSTORE PUSH1 0x1 PUSH1 0x20 SWAP1 DUP2 MSTORE PUSH1 0x40 SWAP1 SWAP2 KECCAK256 PUSH3 0x651 SWAP2 DUP4 SWAP1 PUSH3 0x136E PUSH3 0x756 DUP3 SHL OR SWAP1 SHR JUMP JUMPDEST POP POP POP JUMP JUMPDEST PUSH1 0x0 DUP3 DUP2 MSTORE PUSH1 0x20 DUP2 DUP2 MSTORE PUSH1 0x40 DUP1 DUP4 KECCAK256 PUSH1 0x1 PUSH1 0x1 PUSH1 0xA0 SHL SUB DUP6 AND DUP5 MSTORE SWAP1 SWAP2 MSTORE SWAP1 KECCAK256 SLOAD PUSH1 0xFF AND PUSH3 0x6F1 JUMPI PUSH3 0x6A0 DUP2 PUSH1 0x1 PUSH1 0x1 PUSH1 0xA0 SHL SUB AND PUSH1 0x14 PUSH3 0x776 PUSH1 0x20 SHL PUSH3 0x1383 OR PUSH1 0x20 SHR JUMP JUMPDEST PUSH3 0x6B6 DUP4 PUSH1 0x20 PUSH3 0x1383 PUSH3 0x776 DUP3 SHL OR DUP2 SHR JUMP JUMPDEST PUSH1 0x40 MLOAD PUSH1 0x20 ADD PUSH3 0x6C9 SWAP3 SWAP2 SWAP1 PUSH3 0xDDC JUMP JUMPDEST PUSH1 0x40 DUP1 MLOAD PUSH1 0x1F NOT DUP2 DUP5 SUB ADD DUP2 MSTORE SWAP1 DUP3 SWAP1 MSTORE PUSH3 0x461BCD PUSH1 0xE5 SHL DUP3 MSTORE PUSH3 0x26E SWAP2 PUSH1 0x4 ADD PUSH3 0xE55 JUMP JUMPDEST POP POP JUMP JUMPDEST PUSH3 0x70C DUP3 DUP3 PUSH3 0x92F PUSH1 0x20 SHL PUSH3 0x151F OR PUSH1 0x20 SHR JUMP JUMPDEST PUSH1 0x0 DUP3 DUP2 MSTORE PUSH1 0x1 PUSH1 0x20 SWAP1 DUP2 MSTORE PUSH1 0x40 SWAP1 SWAP2 KECCAK256 PUSH3 0x651 SWAP2 DUP4 SWAP1 PUSH3 0x1545 PUSH3 0x959 DUP3 SHL OR SWAP1 SHR JUMP JUMPDEST PUSH3 0x62A DUP3 DUP3 PUSH3 0x970 PUSH1 0x20 SHL PUSH3 0x155A OR PUSH1 0x20 SHR JUMP JUMPDEST PUSH3 0x6F1 DUP3 DUP3 PUSH3 0x985 JUMP JUMPDEST PUSH1 0x0 PUSH3 0x76D DUP4 PUSH1 0x1 PUSH1 0x1 PUSH1 0xA0 SHL SUB DUP5 AND PUSH3 0xA25 JUMP JUMPDEST SWAP1 POP JUMPDEST SWAP3 SWAP2 POP POP JUMP JUMPDEST PUSH1 0x60 PUSH1 0x0 PUSH3 0x787 DUP4 PUSH1 0x2 PUSH3 0xE8A JUMP JUMPDEST PUSH3 0x794 SWAP1 PUSH1 0x2 PUSH3 0xEAC JUMP JUMPDEST PUSH1 0x1 PUSH1 0x1 PUSH1 0x40 SHL SUB DUP2 GT ISZERO PUSH3 0x7AE JUMPI PUSH3 0x7AE PUSH3 0xCBC JUMP JUMPDEST PUSH1 0x40 MLOAD SWAP1 DUP1 DUP3 MSTORE DUP1 PUSH1 0x1F ADD PUSH1 0x1F NOT AND PUSH1 0x20 ADD DUP3 ADD PUSH1 0x40 MSTORE DUP1 ISZERO PUSH3 0x7D9 JUMPI PUSH1 0x20 DUP3 ADD DUP2 DUP1 CALLDATASIZE DUP4 CALLDATACOPY ADD SWAP1 POP JUMPDEST POP SWAP1 POP PUSH1 0x3 PUSH1 0xFC SHL DUP2 PUSH1 0x0 DUP2 MLOAD DUP2 LT PUSH3 0x7F7 JUMPI PUSH3 0x7F7 PUSH3 0xCD2 JUMP JUMPDEST PUSH1 0x20 ADD ADD SWAP1 PUSH1 0x1 PUSH1 0x1 PUSH1 0xF8 SHL SUB NOT AND SWAP1 DUP2 PUSH1 0x0 BYTE SWAP1 MSTORE8 POP PUSH1 0xF PUSH1 0xFB SHL DUP2 PUSH1 0x1 DUP2 MLOAD DUP2 LT PUSH3 0x829 JUMPI PUSH3 0x829 PUSH3 0xCD2 JUMP JUMPDEST PUSH1 0x20 ADD ADD SWAP1 PUSH1 0x1 PUSH1 0x1 PUSH1 0xF8 SHL SUB NOT AND SWAP1 DUP2 PUSH1 0x0 BYTE SWAP1 MSTORE8 POP PUSH1 0x0 PUSH3 0x84F DUP5 PUSH1 0x2 PUSH3 0xE8A JUMP JUMPDEST PUSH3 0x85C SWAP1 PUSH1 0x1 PUSH3 0xEAC JUMP JUMPDEST SWAP1 POP JUMPDEST PUSH1 0x1 DUP2 GT ISZERO PUSH3 0x8DE JUMPI PUSH16 0x181899199A1A9B1B9C1CB0B131B232B3 PUSH1 0x81 SHL DUP6 PUSH1 0xF AND PUSH1 0x10 DUP2 LT PUSH3 0x894 JUMPI PUSH3 0x894 PUSH3 0xCD2 JUMP JUMPDEST BYTE PUSH1 0xF8 SHL DUP3 DUP3 DUP2 MLOAD DUP2 LT PUSH3 0x8AD JUMPI PUSH3 0x8AD PUSH3 0xCD2 JUMP JUMPDEST PUSH1 0x20 ADD ADD SWAP1 PUSH1 0x1 PUSH1 0x1 PUSH1 0xF8 SHL SUB NOT AND SWAP1 DUP2 PUSH1 0x0 BYTE SWAP1 MSTORE8 POP PUSH1 0x4 SWAP5 SWAP1 SWAP5 SHR SWAP4 PUSH3 0x8D6 DUP2 PUSH3 0xEC7 JUMP JUMPDEST SWAP1 POP PUSH3 0x85F JUMP JUMPDEST POP DUP4 ISZERO PUSH3 0x76D JUMPI PUSH1 0x40 MLOAD PUSH3 0x461BCD PUSH1 0xE5 SHL DUP2 MSTORE PUSH1 0x20 PUSH1 0x4 DUP3 ADD DUP2 SWAP1 MSTORE PUSH1 0x24 DUP3 ADD MSTORE PUSH32 0x537472696E67733A20686578206C656E67746820696E73756666696369656E74 PUSH1 0x44 DUP3 ADD MSTORE PUSH1 0x64 ADD PUSH3 0x26E JUMP JUMPDEST PUSH1 0x0 DUP3 DUP2 MSTORE PUSH1 0x20 DUP2 SWAP1 MSTORE PUSH1 0x40 SWAP1 KECCAK256 PUSH1 0x1 ADD SLOAD PUSH3 0x94D DUP2 CALLER PUSH3 0x656 JUMP JUMPDEST PUSH3 0x651 DUP4 DUP4 PUSH3 0xA77 JUMP JUMPDEST PUSH1 0x0 PUSH3 0x76D DUP4 PUSH1 0x1 PUSH1 0x1 PUSH1 0xA0 SHL SUB DUP5 AND PUSH3 0xAF7 JUMP JUMPDEST PUSH1 0x0 PUSH3 0x97E DUP2 CALLER PUSH3 0x656 JUMP JUMPDEST PUSH3 0x651 DUP4 DUP4 JUMPDEST PUSH1 0x0 DUP3 DUP2 MSTORE PUSH1 0x20 DUP2 DUP2 MSTORE PUSH1 0x40 DUP1 DUP4 KECCAK256 PUSH1 0x1 PUSH1 0x1 PUSH1 0xA0 SHL SUB DUP6 AND DUP5 MSTORE SWAP1 SWAP2 MSTORE SWAP1 KECCAK256 SLOAD PUSH1 0xFF AND PUSH3 0x6F1 JUMPI PUSH1 0x0 DUP3 DUP2 MSTORE PUSH1 0x20 DUP2 DUP2 MSTORE PUSH1 0x40 DUP1 DUP4 KECCAK256 PUSH1 0x1 PUSH1 0x1 PUSH1 0xA0 SHL SUB DUP6 AND DUP5 MSTORE SWAP1 SWAP2 MSTORE SWAP1 KECCAK256 DUP1 SLOAD PUSH1 0xFF NOT AND PUSH1 0x1 OR SWAP1 SSTORE PUSH3 0x9E1 CALLER SWAP1 JUMP JUMPDEST PUSH1 0x1 PUSH1 0x1 PUSH1 0xA0 SHL SUB AND DUP2 PUSH1 0x1 PUSH1 0x1 PUSH1 0xA0 SHL SUB AND DUP4 PUSH32 0x2F8788117E7EFF1D82E926EC794901D17C78024A50270940304540A733656F0D PUSH1 0x40 MLOAD PUSH1 0x40 MLOAD DUP1 SWAP2 SUB SWAP1 LOG4 POP POP JUMP JUMPDEST PUSH1 0x0 DUP2 DUP2 MSTORE PUSH1 0x1 DUP4 ADD PUSH1 0x20 MSTORE PUSH1 0x40 DUP2 KECCAK256 SLOAD PUSH3 0xA6E JUMPI POP DUP2 SLOAD PUSH1 0x1 DUP2 DUP2 ADD DUP5 SSTORE PUSH1 0x0 DUP5 DUP2 MSTORE PUSH1 0x20 DUP1 DUP3 KECCAK256 SWAP1 SWAP4 ADD DUP5 SWAP1 SSTORE DUP5 SLOAD DUP5 DUP3 MSTORE DUP3 DUP7 ADD SWAP1 SWAP4 MSTORE PUSH1 0x40 SWAP1 KECCAK256 SWAP2 SWAP1 SWAP2 SSTORE PUSH3 0x770 JUMP JUMPDEST POP PUSH1 0x0 PUSH3 0x770 JUMP JUMPDEST PUSH1 0x0 DUP3 DUP2 MSTORE PUSH1 0x20 DUP2 DUP2 MSTORE PUSH1 0x40 DUP1 DUP4 KECCAK256 PUSH1 0x1 PUSH1 0x1 PUSH1 0xA0 SHL SUB DUP6 AND DUP5 MSTORE SWAP1 SWAP2 MSTORE SWAP1 KECCAK256 SLOAD PUSH1 0xFF AND ISZERO PUSH3 0x6F1 JUMPI PUSH1 0x0 DUP3 DUP2 MSTORE PUSH1 0x20 DUP2 DUP2 MSTORE PUSH1 0x40 DUP1 DUP4 KECCAK256 PUSH1 0x1 PUSH1 0x1 PUSH1 0xA0 SHL SUB DUP6 AND DUP1 DUP6 MSTORE SWAP3 MSTORE DUP1 DUP4 KECCAK256 DUP1 SLOAD PUSH1 0xFF NOT AND SWAP1 SSTORE MLOAD CALLER SWAP3 DUP6 SWAP2 PUSH32 0xF6391F5C32D9C69D2A47EA670B442974B53935D1EDC7FD64EB21E047A839171B SWAP2 SWAP1 LOG4 POP POP JUMP JUMPDEST PUSH1 0x0 DUP2 DUP2 MSTORE PUSH1 0x1 DUP4 ADD PUSH1 0x20 MSTORE PUSH1 0x40 DUP2 KECCAK256 SLOAD DUP1 ISZERO PUSH3 0xBF0 JUMPI PUSH1 0x0 PUSH3 0xB1E PUSH1 0x1 DUP4 PUSH3 0xEE1 JUMP JUMPDEST DUP6 SLOAD SWAP1 SWAP2 POP PUSH1 0x0 SWAP1 PUSH3 0xB34 SWAP1 PUSH1 0x1 SWAP1 PUSH3 0xEE1 JUMP JUMPDEST SWAP1 POP DUP2 DUP2 EQ PUSH3 0xBA0 JUMPI PUSH1 0x0 DUP7 PUSH1 0x0 ADD DUP3 DUP2 SLOAD DUP2 LT PUSH3 0xB58 JUMPI PUSH3 0xB58 PUSH3 0xCD2 JUMP JUMPDEST SWAP1 PUSH1 0x0 MSTORE PUSH1 0x20 PUSH1 0x0 KECCAK256 ADD SLOAD SWAP1 POP DUP1 DUP8 PUSH1 0x0 ADD DUP5 DUP2 SLOAD DUP2 LT PUSH3 0xB7E JUMPI PUSH3 0xB7E PUSH3 0xCD2 JUMP JUMPDEST PUSH1 0x0 SWAP2 DUP3 MSTORE PUSH1 0x20 DUP1 DUP4 KECCAK256 SWAP1 SWAP2 ADD SWAP3 SWAP1 SWAP3 SSTORE SWAP2 DUP3 MSTORE PUSH1 0x1 DUP9 ADD SWAP1 MSTORE PUSH1 0x40 SWAP1 KECCAK256 DUP4 SWAP1 SSTORE JUMPDEST DUP6 SLOAD DUP7 SWAP1 DUP1 PUSH3 0xBB4 JUMPI PUSH3 0xBB4 PUSH3 0xEFB JUMP JUMPDEST PUSH1 0x1 SWAP1 SUB DUP2 DUP2 SWAP1 PUSH1 0x0 MSTORE PUSH1 0x20 PUSH1 0x0 KECCAK256 ADD PUSH1 0x0 SWAP1 SSTORE SWAP1 SSTORE DUP6 PUSH1 0x1 ADD PUSH1 0x0 DUP7 DUP2 MSTORE PUSH1 0x20 ADD SWAP1 DUP2 MSTORE PUSH1 0x20 ADD PUSH1 0x0 KECCAK256 PUSH1 0x0 SWAP1 SSTORE PUSH1 0x1 SWAP4 POP POP POP POP PUSH3 0x770 JUMP JUMPDEST PUSH1 0x0 SWAP2 POP POP PUSH3 0x770 JUMP JUMPDEST DUP3 DUP1 SLOAD PUSH3 0xC09 SWAP1 PUSH3 0xF11 JUMP JUMPDEST SWAP1 PUSH1 0x0 MSTORE PUSH1 0x20 PUSH1 0x0 KECCAK256 SWAP1 PUSH1 0x1F ADD PUSH1 0x20 SWAP1 DIV DUP2 ADD SWAP3 DUP3 PUSH3 0xC2D JUMPI PUSH1 0x0 DUP6 SSTORE PUSH3 0xC78 JUMP JUMPDEST DUP3 PUSH1 0x1F LT PUSH3 0xC48 JUMPI DUP1 MLOAD PUSH1 0xFF NOT AND DUP4 DUP1 ADD OR DUP6 SSTORE PUSH3 0xC78 JUMP JUMPDEST DUP3 DUP1 ADD PUSH1 0x1 ADD DUP6 SSTORE DUP3 ISZERO PUSH3 0xC78 JUMPI SWAP2 DUP3 ADD JUMPDEST DUP3 DUP2 GT ISZERO PUSH3 0xC78 JUMPI DUP3 MLOAD DUP3 SSTORE SWAP2 PUSH1 0x20 ADD SWAP2 SWAP1 PUSH1 0x1 ADD SWAP1 PUSH3 0xC5B JUMP JUMPDEST POP PUSH3 0xC86 SWAP3 SWAP2 POP PUSH3 0xCA5 JUMP JUMPDEST POP SWAP1 JUMP JUMPDEST POP DUP1 SLOAD PUSH1 0x0 DUP3 SSTORE SWAP1 PUSH1 0x0 MSTORE PUSH1 0x20 PUSH1 0x0 KECCAK256 SWAP1 DUP2 ADD SWAP1 PUSH3 0x2FF SWAP2 SWAP1 JUMPDEST JUMPDEST DUP1 DUP3 GT ISZERO PUSH3 0xC86 JUMPI PUSH1 0x0 DUP2 SSTORE PUSH1 0x1 ADD PUSH3 0xCA6 JUMP JUMPDEST PUSH4 0x4E487B71 PUSH1 0xE0 SHL PUSH1 0x0 MSTORE PUSH1 0x41 PUSH1 0x4 MSTORE PUSH1 0x24 PUSH1 0x0 REVERT JUMPDEST PUSH4 0x4E487B71 PUSH1 0xE0 SHL PUSH1 0x0 MSTORE PUSH1 0x32 PUSH1 0x4 MSTORE PUSH1 0x24 PUSH1 0x0 REVERT JUMPDEST PUSH4 0x4E487B71 PUSH1 0xE0 SHL PUSH1 0x0 MSTORE PUSH1 0x11 PUSH1 0x4 MSTORE PUSH1 0x24 PUSH1 0x0 REVERT JUMPDEST PUSH1 0x0 PUSH1 0x0 NOT DUP3 EQ ISZERO PUSH3 0xD15 JUMPI PUSH3 0xD15 PUSH3 0xCE8 JUMP JUMPDEST POP PUSH1 0x1 ADD SWAP1 JUMP JUMPDEST PUSH1 0x20 DUP1 DUP3 MSTORE DUP3 MLOAD DUP3 DUP3 ADD DUP2 SWAP1 MSTORE PUSH1 0x0 SWAP2 SWAP1 PUSH1 0x40 SWAP1 DUP2 DUP6 ADD SWAP1 DUP7 DUP5 ADD DUP6 JUMPDEST DUP3 DUP2 LT ISZERO PUSH3 0xD9C JUMPI DUP2 MLOAD DUP1 MLOAD ISZERO ISZERO DUP6 MSTORE DUP7 DUP2 ADD MLOAD ISZERO ISZERO DUP8 DUP7 ADD MSTORE DUP6 DUP2 ADD MLOAD ISZERO ISZERO DUP7 DUP7 ADD MSTORE PUSH1 0x60 DUP1 DUP3 ADD MLOAD ISZERO ISZERO SWAP1 DUP7 ADD MSTORE PUSH1 0x80 DUP1 DUP3 ADD MLOAD ISZERO ISZERO SWAP1 DUP7 ADD MSTORE PUSH1 0xA0 SWAP1 DUP2 ADD MLOAD PUSH1 0x1 PUSH1 0x1 PUSH1 0xA0 SHL SUB AND SWAP1 DUP6 ADD MSTORE PUSH1 0xC0 SWAP1 SWAP4 ADD SWAP3 SWAP1 DUP6 ADD SWAP1 PUSH1 0x1 ADD PUSH3 0xD39 JUMP JUMPDEST POP SWAP2 SWAP8 SWAP7 POP POP POP POP POP POP POP JUMP JUMPDEST PUSH1 0x0 JUMPDEST DUP4 DUP2 LT ISZERO PUSH3 0xDC6 JUMPI DUP2 DUP2 ADD MLOAD DUP4 DUP3 ADD MSTORE PUSH1 0x20 ADD PUSH3 0xDAC JUMP JUMPDEST DUP4 DUP2 GT ISZERO PUSH3 0xDD6 JUMPI PUSH1 0x0 DUP5 DUP5 ADD MSTORE JUMPDEST POP POP POP POP JUMP JUMPDEST PUSH32 0x416363657373436F6E74726F6C3A206163636F756E7420000000000000000000 DUP2 MSTORE PUSH1 0x0 DUP4 MLOAD PUSH3 0xE16 DUP2 PUSH1 0x17 DUP6 ADD PUSH1 0x20 DUP9 ADD PUSH3 0xDA9 JUMP JUMPDEST PUSH17 0x1034B99036B4B9B9B4B733903937B6329 PUSH1 0x7D SHL PUSH1 0x17 SWAP2 DUP5 ADD SWAP2 DUP3 ADD MSTORE DUP4 MLOAD PUSH3 0xE49 DUP2 PUSH1 0x28 DUP5 ADD PUSH1 0x20 DUP9 ADD PUSH3 0xDA9 JUMP JUMPDEST ADD PUSH1 0x28 ADD SWAP5 SWAP4 POP POP POP POP JUMP JUMPDEST PUSH1 0x20 DUP2 MSTORE PUSH1 0x0 DUP3 MLOAD DUP1 PUSH1 0x20 DUP5 ADD MSTORE PUSH3 0xE76 DUP2 PUSH1 0x40 DUP6 ADD PUSH1 0x20 DUP8 ADD PUSH3 0xDA9 JUMP JUMPDEST PUSH1 0x1F ADD PUSH1 0x1F NOT AND SWAP2 SWAP1 SWAP2 ADD PUSH1 0x40 ADD SWAP3 SWAP2 POP POP JUMP JUMPDEST PUSH1 0x0 DUP2 PUSH1 0x0 NOT DIV DUP4 GT DUP3 ISZERO ISZERO AND ISZERO PUSH3 0xEA7 JUMPI PUSH3 0xEA7 PUSH3 0xCE8 JUMP JUMPDEST POP MUL SWAP1 JUMP JUMPDEST PUSH1 0x0 DUP3 NOT DUP3 GT ISZERO PUSH3 0xEC2 JUMPI PUSH3 0xEC2 PUSH3 0xCE8 JUMP JUMPDEST POP ADD SWAP1 JUMP JUMPDEST PUSH1 0x0 DUP2 PUSH3 0xED9 JUMPI PUSH3 0xED9 PUSH3 0xCE8 JUMP JUMPDEST POP PUSH1 0x0 NOT ADD SWAP1 JUMP JUMPDEST PUSH1 0x0 DUP3 DUP3 LT ISZERO PUSH3 0xEF6 JUMPI PUSH3 0xEF6 PUSH3 0xCE8 JUMP JUMPDEST POP SUB SWAP1 JUMP JUMPDEST PUSH4 0x4E487B71 PUSH1 0xE0 SHL PUSH1 0x0 MSTORE PUSH1 0x31 PUSH1 0x4 MSTORE PUSH1 0x24 PUSH1 0x0 REVERT JUMPDEST PUSH1 0x1 DUP2 DUP2 SHR SWAP1 DUP3 AND DUP1 PUSH3 0xF26 JUMPI PUSH1 0x7F DUP3 AND SWAP2 POP JUMPDEST PUSH1 0x20 DUP3 LT DUP2 EQ ISZERO PUSH3 0xF48 JUMPI PUSH4 0x4E487B71 PUSH1 0xE0 SHL PUSH1 0x0 MSTORE PUSH1 0x22 PUSH1 0x4 MSTORE PUSH1 0x24 PUSH1 0x0 REVERT JUMPDEST POP SWAP2 SWAP1 POP JUMP JUMPDEST PUSH1 0x80 MLOAD PUSH1 0xA0 MLOAD PUSH1 0xC0 MLOAD PUSH1 0xE0 MLOAD PUSH2 0x100 MLOAD PUSH2 0x120 MLOAD PUSH2 0x28FE PUSH3 0xF9E PUSH1 0x0 CODECOPY PUSH1 0x0 PUSH2 0x1219 ADD MSTORE PUSH1 0x0 PUSH2 0x1A5D ADD MSTORE PUSH1 0x0 PUSH2 0x1AAC ADD MSTORE PUSH1 0x0 PUSH2 0x1A87 ADD MSTORE PUSH1 0x0 PUSH2 0x1A0B ADD MSTORE PUSH1 0x0 PUSH2 0x1A34 ADD MSTORE PUSH2 0x28FE PUSH1 0x0 RETURN INVALID PUSH1 0x80 PUSH1 0x40 MSTORE CALLVALUE DUP1 ISZERO PUSH2 0x10 JUMPI PUSH1 0x0 DUP1 REVERT JUMPDEST POP PUSH1 0x4 CALLDATASIZE LT PUSH2 0x269 JUMPI PUSH1 0x0 CALLDATALOAD PUSH1 0xE0 SHR DUP1 PUSH4 0x66830B21 GT PUSH2 0x151 JUMPI DUP1 PUSH4 0xA457C2D7 GT PUSH2 0xC3 JUMPI DUP1 PUSH4 0xCA15C873 GT PUSH2 0x87 JUMPI DUP1 PUSH4 0xCA15C873 EQ PUSH2 0x541 JUMPI DUP1 PUSH4 0xD391014B EQ PUSH2 0x554 JUMPI DUP1 PUSH4 0xD505ACCF EQ PUSH2 0x55C JUMPI DUP1 PUSH4 0xD547741F EQ PUSH2 0x56F JUMPI DUP1 PUSH4 0xDD62ED3E EQ PUSH2 0x582 JUMPI DUP1 PUSH4 0xEAF9D194 EQ PUSH2 0x5BB JUMPI PUSH1 0x0 DUP1 REVERT JUMPDEST DUP1 PUSH4 0xA457C2D7 EQ PUSH2 0x4F3 JUMPI DUP1 PUSH4 0xA9059CBB EQ PUSH2 0x506 JUMPI DUP1 PUSH4 0xB187BD26 EQ PUSH2 0x519 JUMPI DUP1 PUSH4 0xC238651B EQ PUSH2 0x526 JUMPI DUP1 PUSH4 0xC4BC5DA5 EQ PUSH2 0x539 JUMPI PUSH1 0x0 DUP1 REVERT JUMPDEST DUP1 PUSH4 0x8C5F36BB GT PUSH2 0x115 JUMPI DUP1 PUSH4 0x8C5F36BB EQ PUSH2 0x48A JUMPI DUP1 PUSH4 0x9010D07C EQ PUSH2 0x49D JUMPI DUP1 PUSH4 0x91D14854 EQ PUSH2 0x4B0 JUMPI DUP1 PUSH4 0x92AFC33A EQ PUSH2 0x4C3 JUMPI DUP1 PUSH4 0x95D89B41 EQ PUSH2 0x4D8 JUMPI DUP1 PUSH4 0x9CFF2EBA EQ PUSH2 0x4E0 JUMPI PUSH1 0x0 DUP1 REVERT JUMPDEST DUP1 PUSH4 0x66830B21 EQ PUSH2 0x413 JUMPI DUP1 PUSH4 0x70A08231 EQ PUSH2 0x426 JUMPI DUP1 PUSH4 0x789210B3 EQ PUSH2 0x44F JUMPI DUP1 PUSH4 0x7ECEBE00 EQ PUSH2 0x462 JUMPI DUP1 PUSH4 0x8493712A EQ PUSH2 0x475 JUMPI PUSH1 0x0 DUP1 REVERT JUMPDEST DUP1 PUSH4 0x1F2EBA24 GT PUSH2 0x1EA JUMPI DUP1 PUSH4 0x3408E470 GT PUSH2 0x1AE JUMPI DUP1 PUSH4 0x3408E470 EQ PUSH2 0x3C2 JUMPI DUP1 PUSH4 0x3644E515 EQ PUSH2 0x3C8 JUMPI DUP1 PUSH4 0x36568ABE EQ PUSH2 0x3D0 JUMPI DUP1 PUSH4 0x39509351 EQ PUSH2 0x3E3 JUMPI DUP1 PUSH4 0x439766CE EQ PUSH2 0x3F6 JUMPI DUP1 PUSH4 0x54FF02D8 EQ PUSH2 0x3FE JUMPI PUSH1 0x0 DUP1 REVERT JUMPDEST DUP1 PUSH4 0x1F2EBA24 EQ PUSH2 0x357 JUMPI DUP1 PUSH4 0x23B872DD EQ PUSH2 0x36A JUMPI DUP1 PUSH4 0x248A9CA3 EQ PUSH2 0x37D JUMPI DUP1 PUSH4 0x2F2FF15D EQ PUSH2 0x3A0 JUMPI DUP1 PUSH4 0x313CE567 EQ PUSH2 0x3B3 JUMPI PUSH1 0x0 DUP1 REVERT JUMPDEST DUP1 PUSH4 0x95EA7B3 GT PUSH2 0x231 JUMPI DUP1 PUSH4 0x95EA7B3 EQ PUSH2 0x30E JUMPI DUP1 PUSH4 0xBB9FF5D EQ PUSH2 0x321 JUMPI DUP1 PUSH4 0x18160DDD EQ PUSH2 0x334 JUMPI DUP1 PUSH4 0x18A8AD87 EQ PUSH2 0x33C JUMPI DUP1 PUSH4 0x1BF73B72 EQ PUSH2 0x34F JUMPI PUSH1 0x0 DUP1 REVERT JUMPDEST DUP1 PUSH4 0x1FFC9A7 EQ PUSH2 0x26E JUMPI DUP1 PUSH4 0x288F0FB EQ PUSH2 0x296 JUMPI DUP1 PUSH4 0x3ED957F EQ PUSH2 0x2B9 JUMPI DUP1 PUSH4 0x6FB1A07 EQ PUSH2 0x2CE JUMPI DUP1 PUSH4 0x6FDDE03 EQ PUSH2 0x2F9 JUMPI JUMPDEST PUSH1 0x0 DUP1 REVERT JUMPDEST PUSH2 0x281 PUSH2 0x27C CALLDATASIZE PUSH1 0x4 PUSH2 0x20B5 JUMP JUMPDEST PUSH2 0x5CE JUMP JUMPDEST PUSH1 0x40 MLOAD SWAP1 ISZERO ISZERO DUP2 MSTORE PUSH1 0x20 ADD JUMPDEST PUSH1 0x40 MLOAD DUP1 SWAP2 SUB SWAP1 RETURN JUMPDEST PUSH2 0x2AB PUSH1 0x0 DUP1 MLOAD PUSH1 0x20 PUSH2 0x2889 DUP4 CODECOPY DUP2 MLOAD SWAP2 MSTORE DUP2 JUMP JUMPDEST PUSH1 0x40 MLOAD SWAP1 DUP2 MSTORE PUSH1 0x20 ADD PUSH2 0x28D JUMP JUMPDEST PUSH2 0x2CC PUSH2 0x2C7 CALLDATASIZE PUSH1 0x4 PUSH2 0x20DF JUMP JUMPDEST PUSH2 0x5F9 JUMP JUMPDEST STOP JUMPDEST PUSH2 0x2E1 PUSH2 0x2DC CALLDATASIZE PUSH1 0x4 PUSH2 0x2154 JUMP JUMPDEST PUSH2 0x676 JUMP JUMPDEST PUSH1 0x40 MLOAD PUSH1 0x1 PUSH1 0x1 PUSH1 0xA0 SHL SUB SWAP1 SWAP2 AND DUP2 MSTORE PUSH1 0x20 ADD PUSH2 0x28D JUMP JUMPDEST PUSH2 0x301 PUSH2 0x6A6 JUMP JUMPDEST PUSH1 0x40 MLOAD PUSH2 0x28D SWAP2 SWAP1 PUSH2 0x2199 JUMP JUMPDEST PUSH2 0x281 PUSH2 0x31C CALLDATASIZE PUSH1 0x4 PUSH2 0x21E8 JUMP JUMPDEST PUSH2 0x738 JUMP JUMPDEST PUSH2 0x2CC PUSH2 0x32F CALLDATASIZE PUSH1 0x4 PUSH2 0x21E8 JUMP JUMPDEST PUSH2 0x74E JUMP JUMPDEST PUSH1 0x3 SLOAD PUSH2 0x2AB JUMP JUMPDEST PUSH2 0x2CC PUSH2 0x34A CALLDATASIZE PUSH1 0x4 PUSH2 0x21E8 JUMP JUMPDEST PUSH2 0x7E5 JUMP JUMPDEST PUSH1 0x9 SLOAD PUSH2 0x2AB JUMP JUMPDEST PUSH2 0x2CC PUSH2 0x365 CALLDATASIZE PUSH1 0x4 PUSH2 0x21E8 JUMP JUMPDEST PUSH2 0x86A JUMP JUMPDEST PUSH2 0x281 PUSH2 0x378 CALLDATASIZE PUSH1 0x4 PUSH2 0x2212 JUMP JUMPDEST PUSH2 0x8EF JUMP JUMPDEST PUSH2 0x2AB PUSH2 0x38B CALLDATASIZE PUSH1 0x4 PUSH2 0x2154 JUMP JUMPDEST PUSH1 0x0 SWAP1 DUP2 MSTORE PUSH1 0x20 DUP2 SWAP1 MSTORE PUSH1 0x40 SWAP1 KECCAK256 PUSH1 0x1 ADD SLOAD SWAP1 JUMP JUMPDEST PUSH2 0x2CC PUSH2 0x3AE CALLDATASIZE PUSH1 0x4 PUSH2 0x224E JUMP JUMPDEST PUSH2 0x9E7 JUMP JUMPDEST PUSH1 0x40 MLOAD PUSH1 0x12 DUP2 MSTORE PUSH1 0x20 ADD PUSH2 0x28D JUMP JUMPDEST CHAINID PUSH2 0x2AB JUMP JUMPDEST PUSH2 0x2AB PUSH2 0xA0E JUMP JUMPDEST PUSH2 0x2CC PUSH2 0x3DE CALLDATASIZE PUSH1 0x4 PUSH2 0x224E JUMP JUMPDEST PUSH2 0xA1D JUMP JUMPDEST PUSH2 0x281 PUSH2 0x3F1 CALLDATASIZE PUSH1 0x4 PUSH2 0x21E8 JUMP JUMPDEST PUSH2 0xA3F JUMP JUMPDEST PUSH2 0x2CC PUSH2 0xA76 JUMP JUMPDEST PUSH2 0x2AB PUSH1 0x0 DUP1 MLOAD PUSH1 0x20 PUSH2 0x2849 DUP4 CODECOPY DUP2 MLOAD SWAP2 MSTORE DUP2 JUMP JUMPDEST PUSH2 0x2CC PUSH2 0x421 CALLDATASIZE PUSH1 0x4 PUSH2 0x21E8 JUMP JUMPDEST PUSH2 0xAB5 JUMP JUMPDEST PUSH2 0x2AB PUSH2 0x434 CALLDATASIZE PUSH1 0x4 PUSH2 0x227A JUMP JUMPDEST PUSH1 0x1 PUSH1 0x1 PUSH1 0xA0 SHL SUB AND PUSH1 0x0 SWAP1 DUP2 MSTORE PUSH1 0x2 PUSH1 0x20 MSTORE PUSH1 0x40 SWAP1 KECCAK256 SLOAD SWAP1 JUMP JUMPDEST PUSH2 0x2CC PUSH2 0x45D CALLDATASIZE PUSH1 0x4 PUSH2 0x2313 JUMP JUMPDEST PUSH2 0xB3A JUMP JUMPDEST PUSH2 0x2AB PUSH2 0x470 CALLDATASIZE PUSH1 0x4 PUSH2 0x227A JUMP JUMPDEST PUSH2 0xDFA JUMP JUMPDEST PUSH2 0x2AB PUSH1 0x0 DUP1 MLOAD PUSH1 0x20 PUSH2 0x2869 DUP4 CODECOPY DUP2 MLOAD SWAP2 MSTORE DUP2 JUMP JUMPDEST PUSH2 0x2CC PUSH2 0x498 CALLDATASIZE PUSH1 0x4 PUSH2 0x227A JUMP JUMPDEST PUSH2 0xE18 JUMP JUMPDEST PUSH2 0x2E1 PUSH2 0x4AB CALLDATASIZE PUSH1 0x4 PUSH2 0x2439 JUMP JUMPDEST PUSH2 0xEE6 JUMP JUMPDEST PUSH2 0x281 PUSH2 0x4BE CALLDATASIZE PUSH1 0x4 PUSH2 0x224E JUMP JUMPDEST PUSH2 0xF05 JUMP JUMPDEST PUSH2 0x2AB PUSH1 0x0 DUP1 MLOAD PUSH1 0x20 PUSH2 0x28A9 DUP4 CODECOPY DUP2 MLOAD SWAP2 MSTORE DUP2 JUMP JUMPDEST PUSH2 0x301 PUSH2 0xF2E JUMP JUMPDEST PUSH2 0x2CC PUSH2 0x4EE CALLDATASIZE PUSH1 0x4 PUSH2 0x2212 JUMP JUMPDEST PUSH2 0xF3D JUMP JUMPDEST PUSH2 0x281 PUSH2 0x501 CALLDATASIZE PUSH1 0x4 PUSH2 0x21E8 JUMP JUMPDEST PUSH2 0xFFD JUMP JUMPDEST PUSH2 0x281 PUSH2 0x514 CALLDATASIZE PUSH1 0x4 PUSH2 0x21E8 JUMP JUMPDEST PUSH2 0x1098 JUMP JUMPDEST PUSH1 0x8 SLOAD PUSH2 0x281 SWAP1 PUSH1 0xFF AND DUP2 JUMP JUMPDEST PUSH2 0x281 PUSH2 0x534 CALLDATASIZE PUSH1 0x4 PUSH2 0x2212 JUMP JUMPDEST PUSH2 0x10C9 JUMP JUMPDEST PUSH2 0x2CC PUSH2 0x1156 JUMP JUMPDEST PUSH2 0x2AB PUSH2 0x54F CALLDATASIZE PUSH1 0x4 PUSH2 0x2154 JUMP JUMPDEST PUSH2 0x11AE JUMP JUMPDEST PUSH2 0x2AB PUSH1 0x0 DUP2 JUMP JUMPDEST PUSH2 0x2CC PUSH2 0x56A CALLDATASIZE PUSH1 0x4 PUSH2 0x245B JUMP JUMPDEST PUSH2 0x11C5 JUMP JUMPDEST PUSH2 0x2CC PUSH2 0x57D CALLDATASIZE PUSH1 0x4 PUSH2 0x224E JUMP JUMPDEST PUSH2 0x1329 JUMP JUMPDEST PUSH2 0x2AB PUSH2 0x590 CALLDATASIZE PUSH1 0x4 PUSH2 0x24CE JUMP JUMPDEST PUSH1 0x1 PUSH1 0x1 PUSH1 0xA0 SHL SUB SWAP2 DUP3 AND PUSH1 0x0 SWAP1 DUP2 MSTORE PUSH1 0x4 PUSH1 0x20 SWAP1 DUP2 MSTORE PUSH1 0x40 DUP1 DUP4 KECCAK256 SWAP4 SWAP1 SWAP5 AND DUP3 MSTORE SWAP2 SWAP1 SWAP2 MSTORE KECCAK256 SLOAD SWAP1 JUMP JUMPDEST PUSH2 0x2CC PUSH2 0x5C9 CALLDATASIZE PUSH1 0x4 PUSH2 0x2541 JUMP JUMPDEST PUSH2 0x1333 JUMP JUMPDEST PUSH1 0x0 PUSH1 0x1 PUSH1 0x1 PUSH1 0xE0 SHL SUB NOT DUP3 AND PUSH4 0x5A05180F PUSH1 0xE0 SHL EQ DUP1 PUSH2 0x5F3 JUMPI POP PUSH2 0x5F3 DUP3 PUSH2 0x1570 JUMP JUMPDEST SWAP3 SWAP2 POP POP JUMP JUMPDEST PUSH1 0x0 PUSH2 0x605 DUP2 CALLER PUSH2 0x15A5 JUMP JUMPDEST PUSH1 0x0 JUMPDEST DUP3 DUP2 LT ISZERO PUSH2 0x670 JUMPI PUSH2 0x65E DUP5 DUP5 DUP4 DUP2 DUP2 LT PUSH2 0x625 JUMPI PUSH2 0x625 PUSH2 0x25AD JUMP JUMPDEST SWAP1 POP PUSH1 0x40 MUL ADD PUSH1 0x0 ADD CALLDATALOAD DUP6 DUP6 DUP5 DUP2 DUP2 LT PUSH2 0x641 JUMPI PUSH2 0x641 PUSH2 0x25AD JUMP JUMPDEST SWAP1 POP PUSH1 0x40 MUL ADD PUSH1 0x20 ADD PUSH1 0x20 DUP2 ADD SWAP1 PUSH2 0x659 SWAP2 SWAP1 PUSH2 0x227A JUMP JUMPDEST PUSH2 0x1609 JUMP JUMPDEST DUP1 PUSH2 0x668 DUP2 PUSH2 0x25D9 JUMP JUMPDEST SWAP2 POP POP PUSH2 0x608 JUMP JUMPDEST POP POP POP POP JUMP JUMPDEST PUSH1 0x0 PUSH1 0x9 DUP3 DUP2 SLOAD DUP2 LT PUSH2 0x68B JUMPI PUSH2 0x68B PUSH2 0x25AD JUMP JUMPDEST PUSH1 0x0 SWAP2 DUP3 MSTORE PUSH1 0x20 SWAP1 SWAP2 KECCAK256 ADD SLOAD PUSH1 0x1 PUSH1 0x1 PUSH1 0xA0 SHL SUB AND SWAP3 SWAP2 POP POP JUMP JUMPDEST PUSH1 0x60 PUSH1 0x5 DUP1 SLOAD PUSH2 0x6B5 SWAP1 PUSH2 0x25F4 JUMP JUMPDEST DUP1 PUSH1 0x1F ADD PUSH1 0x20 DUP1 SWAP2 DIV MUL PUSH1 0x20 ADD PUSH1 0x40 MLOAD SWAP1 DUP2 ADD PUSH1 0x40 MSTORE DUP1 SWAP3 SWAP2 SWAP1 DUP2 DUP2 MSTORE PUSH1 0x20 ADD DUP3 DUP1 SLOAD PUSH2 0x6E1 SWAP1 PUSH2 0x25F4 JUMP JUMPDEST DUP1 ISZERO PUSH2 0x72E JUMPI DUP1 PUSH1 0x1F LT PUSH2 0x703 JUMPI PUSH2 0x100 DUP1 DUP4 SLOAD DIV MUL DUP4 MSTORE SWAP2 PUSH1 0x20 ADD SWAP2 PUSH2 0x72E JUMP JUMPDEST DUP3 ADD SWAP2 SWAP1 PUSH1 0x0 MSTORE PUSH1 0x20 PUSH1 0x0 KECCAK256 SWAP1 JUMPDEST DUP2 SLOAD DUP2 MSTORE SWAP1 PUSH1 0x1 ADD SWAP1 PUSH1 0x20 ADD DUP1 DUP4 GT PUSH2 0x711 JUMPI DUP3 SWAP1 SUB PUSH1 0x1F AND DUP3 ADD SWAP2 JUMPDEST POP POP POP POP POP SWAP1 POP SWAP1 JUMP JUMPDEST PUSH1 0x0 PUSH2 0x745 CALLER DUP5 DUP5 PUSH2 0x1613 JUMP JUMPDEST POP PUSH1 0x1 SWAP3 SWAP2 POP POP JUMP JUMPDEST PUSH1 0x8 SLOAD PUSH1 0xFF AND ISZERO PUSH2 0x77A JUMPI PUSH1 0x40 MLOAD PUSH3 0x461BCD PUSH1 0xE5 SHL DUP2 MSTORE PUSH1 0x4 ADD PUSH2 0x771 SWAP1 PUSH2 0x2629 JUMP JUMPDEST PUSH1 0x40 MLOAD DUP1 SWAP2 SUB SWAP1 REVERT JUMPDEST PUSH1 0x0 DUP1 MLOAD PUSH1 0x20 PUSH2 0x28A9 DUP4 CODECOPY DUP2 MLOAD SWAP2 MSTORE PUSH2 0x793 DUP2 CALLER PUSH2 0x15A5 JUMP JUMPDEST PUSH2 0x79D DUP4 DUP4 PUSH2 0x1738 JUMP JUMPDEST PUSH1 0x40 DUP1 MLOAD PUSH1 0x1 PUSH1 0x1 PUSH1 0xA0 SHL SUB DUP6 AND DUP2 MSTORE PUSH1 0x20 DUP2 ADD DUP5 SWAP1 MSTORE PUSH32 0x99FC78BCF3C24B8CD6AD4EDA1E3EB007E511C09C640AF1C46437DED34CF10F2 SWAP2 ADD JUMPDEST PUSH1 0x40 MLOAD DUP1 SWAP2 SUB SWAP1 LOG1 POP POP POP JUMP JUMPDEST PUSH1 0x8 SLOAD PUSH1 0xFF AND ISZERO PUSH2 0x808 JUMPI PUSH1 0x40 MLOAD PUSH3 0x461BCD PUSH1 0xE5 SHL DUP2 MSTORE PUSH1 0x4 ADD PUSH2 0x771 SWAP1 PUSH2 0x2629 JUMP JUMPDEST PUSH1 0x0 DUP1 MLOAD PUSH1 0x20 PUSH2 0x2849 DUP4 CODECOPY DUP2 MLOAD SWAP2 MSTORE PUSH2 0x821 DUP2 CALLER PUSH2 0x15A5 JUMP JUMPDEST PUSH2 0x82B DUP4 DUP4 PUSH2 0x17E3 JUMP JUMPDEST PUSH1 0x40 DUP1 MLOAD PUSH1 0x1 PUSH1 0x1 PUSH1 0xA0 SHL SUB DUP6 AND DUP2 MSTORE PUSH1 0x20 DUP2 ADD DUP5 SWAP1 MSTORE PUSH32 0xA5B82707BC4CE1D57E909B70ADB28E393A34C2AB77E30F862CA2E0E9F8DA905 SWAP2 ADD PUSH2 0x7D8 JUMP JUMPDEST PUSH1 0x8 SLOAD PUSH1 0xFF AND ISZERO PUSH2 0x88D JUMPI PUSH1 0x40 MLOAD PUSH3 0x461BCD PUSH1 0xE5 SHL DUP2 MSTORE PUSH1 0x4 ADD PUSH2 0x771 SWAP1 PUSH2 0x2629 JUMP JUMPDEST PUSH1 0x0 DUP1 MLOAD PUSH1 0x20 PUSH2 0x28A9 DUP4 CODECOPY DUP2 MLOAD SWAP2 MSTORE PUSH2 0x8A6 DUP2 CALLER PUSH2 0x15A5 JUMP JUMPDEST PUSH2 0x8B0 DUP4 DUP4 PUSH2 0x1738 JUMP JUMPDEST PUSH1 0x40 DUP1 MLOAD PUSH1 0x1 PUSH1 0x1 PUSH1 0xA0 SHL SUB DUP6 AND DUP2 MSTORE PUSH1 0x20 DUP2 ADD DUP5 SWAP1 MSTORE PUSH32 0x7D48429C6EB871D47DEA691D65BB2D1F99EAF5D33E7A06363B8FAFB3F6EA0178 SWAP2 ADD PUSH2 0x7D8 JUMP JUMPDEST PUSH1 0x8 SLOAD PUSH1 0x0 SWAP1 PUSH1 0xFF AND ISZERO PUSH2 0x915 JUMPI PUSH1 0x40 MLOAD PUSH3 0x461BCD PUSH1 0xE5 SHL DUP2 MSTORE PUSH1 0x4 ADD PUSH2 0x771 SWAP1 PUSH2 0x2629 JUMP JUMPDEST DUP3 PUSH1 0x1 PUSH1 0x1 PUSH1 0xA0 SHL SUB DUP2 AND PUSH2 0x93C JUMPI PUSH1 0x40 MLOAD PUSH3 0x461BCD PUSH1 0xE5 SHL DUP2 MSTORE PUSH1 0x4 ADD PUSH2 0x771 SWAP1 PUSH2 0x264C JUMP JUMPDEST PUSH2 0x947 DUP6 DUP6 DUP6 PUSH2 0x186E JUMP JUMPDEST PUSH1 0x1 PUSH1 0x1 PUSH1 0xA0 SHL SUB DUP6 AND PUSH1 0x0 SWAP1 DUP2 MSTORE PUSH1 0x4 PUSH1 0x20 SWAP1 DUP2 MSTORE PUSH1 0x40 DUP1 DUP4 KECCAK256 CALLER DUP5 MSTORE SWAP1 SWAP2 MSTORE SWAP1 KECCAK256 SLOAD DUP4 DUP2 LT ISZERO PUSH2 0x9C7 JUMPI PUSH1 0x40 MLOAD PUSH3 0x461BCD PUSH1 0xE5 SHL DUP2 MSTORE PUSH1 0x20 PUSH1 0x4 DUP3 ADD MSTORE PUSH1 0x24 DUP1 DUP3 ADD MSTORE PUSH32 0x543A207472616E7366657220616D6F756E74206578636565647320616C6C6F77 PUSH1 0x44 DUP3 ADD MSTORE PUSH4 0x616E6365 PUSH1 0xE0 SHL PUSH1 0x64 DUP3 ADD MSTORE PUSH1 0x84 ADD PUSH2 0x771 JUMP JUMPDEST PUSH2 0x9DB DUP7 CALLER PUSH2 0x9D6 DUP8 DUP6 PUSH2 0x266E JUMP JUMPDEST PUSH2 0x1613 JUMP JUMPDEST POP PUSH1 0x1 SWAP6 SWAP5 POP POP POP POP POP JUMP JUMPDEST PUSH2 0x9F1 DUP3 DUP3 PUSH2 0x155A JUMP JUMPDEST PUSH1 0x0 DUP3 DUP2 MSTORE PUSH1 0x1 PUSH1 0x20 MSTORE PUSH1 0x40 SWAP1 KECCAK256 PUSH2 0xA09 SWAP1 DUP3 PUSH2 0x136E JUMP JUMPDEST POP POP POP JUMP JUMPDEST PUSH1 0x0 PUSH2 0xA18 PUSH2 0x1A07 JUMP JUMPDEST SWAP1 POP SWAP1 JUMP JUMPDEST PUSH2 0xA27 DUP3 DUP3 PUSH2 0x1AFA JUMP JUMPDEST PUSH1 0x0 DUP3 DUP2 MSTORE PUSH1 0x1 PUSH1 0x20 MSTORE PUSH1 0x40 SWAP1 KECCAK256 PUSH2 0xA09 SWAP1 DUP3 PUSH2 0x1545 JUMP JUMPDEST CALLER PUSH1 0x0 DUP2 DUP2 MSTORE PUSH1 0x4 PUSH1 0x20 SWAP1 DUP2 MSTORE PUSH1 0x40 DUP1 DUP4 KECCAK256 PUSH1 0x1 PUSH1 0x1 PUSH1 0xA0 SHL SUB DUP8 AND DUP5 MSTORE SWAP1 SWAP2 MSTORE DUP2 KECCAK256 SLOAD SWAP1 SWAP2 PUSH2 0x745 SWAP2 DUP6 SWAP1 PUSH2 0x9D6 SWAP1 DUP7 SWAP1 PUSH2 0x2685 JUMP JUMPDEST PUSH1 0x8 SLOAD PUSH1 0xFF AND ISZERO PUSH2 0xA99 JUMPI PUSH1 0x40 MLOAD PUSH3 0x461BCD PUSH1 0xE5 SHL DUP2 MSTORE PUSH1 0x4 ADD PUSH2 0x771 SWAP1 PUSH2 0x2629 JUMP JUMPDEST PUSH1 0x0 PUSH2 0xAA5 DUP2 CALLER PUSH2 0x15A5 JUMP JUMPDEST POP PUSH1 0x8 DUP1 SLOAD PUSH1 0xFF NOT AND PUSH1 0x1 OR SWAP1 SSTORE JUMP JUMPDEST PUSH1 0x8 SLOAD PUSH1 0xFF AND ISZERO PUSH2 0xAD8 JUMPI PUSH1 0x40 MLOAD PUSH3 0x461BCD PUSH1 0xE5 SHL DUP2 MSTORE PUSH1 0x4 ADD PUSH2 0x771 SWAP1 PUSH2 0x2629 JUMP JUMPDEST PUSH1 0x0 DUP1 MLOAD PUSH1 0x20 PUSH2 0x2849 DUP4 CODECOPY DUP2 MLOAD SWAP2 MSTORE PUSH2 0xAF1 DUP2 CALLER PUSH2 0x15A5 JUMP JUMPDEST PUSH2 0xAFB DUP4 DUP4 PUSH2 0x17E3 JUMP JUMPDEST PUSH1 0x40 DUP1 MLOAD PUSH1 0x1 PUSH1 0x1 PUSH1 0xA0 SHL SUB DUP6 AND DUP2 MSTORE PUSH1 0x20 DUP2 ADD DUP5 SWAP1 MSTORE PUSH32 0x3EAC2380FCF2B255BD916AE212498A2E55F3C99BAAB43D3EB29CB6349639D0D2 SWAP2 ADD PUSH2 0x7D8 JUMP JUMPDEST PUSH1 0x0 PUSH2 0xB46 DUP2 CALLER PUSH2 0x15A5 JUMP JUMPDEST PUSH1 0x0 JUMPDEST PUSH1 0x9 SLOAD DUP2 LT ISZERO PUSH2 0xC13 JUMPI PUSH2 0xB92 PUSH1 0x0 DUP1 MLOAD PUSH1 0x20 PUSH2 0x28A9 DUP4 CODECOPY DUP2 MLOAD SWAP2 MSTORE PUSH1 0x9 DUP4 DUP2 SLOAD DUP2 LT PUSH2 0xB78 JUMPI PUSH2 0xB78 PUSH2 0x25AD JUMP JUMPDEST PUSH1 0x0 SWAP2 DUP3 MSTORE PUSH1 0x20 SWAP1 SWAP2 KECCAK256 ADD SLOAD PUSH1 0x1 PUSH1 0x1 PUSH1 0xA0 SHL SUB AND PUSH2 0x1329 JUMP JUMPDEST PUSH2 0xBB7 PUSH1 0x0 DUP1 MLOAD PUSH1 0x20 PUSH2 0x2849 DUP4 CODECOPY DUP2 MLOAD SWAP2 MSTORE PUSH1 0x9 DUP4 DUP2 SLOAD DUP2 LT PUSH2 0xB78 JUMPI PUSH2 0xB78 PUSH2 0x25AD JUMP JUMPDEST PUSH2 0xBDC PUSH1 0x0 DUP1 MLOAD PUSH1 0x20 PUSH2 0x2869 DUP4 CODECOPY DUP2 MLOAD SWAP2 MSTORE PUSH1 0x9 DUP4 DUP2 SLOAD DUP2 LT PUSH2 0xB78 JUMPI PUSH2 0xB78 PUSH2 0x25AD JUMP JUMPDEST PUSH2 0xC01 PUSH1 0x0 DUP1 MLOAD PUSH1 0x20 PUSH2 0x2889 DUP4 CODECOPY DUP2 MLOAD SWAP2 MSTORE PUSH1 0x9 DUP4 DUP2 SLOAD DUP2 LT PUSH2 0xB78 JUMPI PUSH2 0xB78 PUSH2 0x25AD JUMP JUMPDEST DUP1 PUSH2 0xC0B DUP2 PUSH2 0x25D9 JUMP JUMPDEST SWAP2 POP POP PUSH2 0xB49 JUMP JUMPDEST POP PUSH2 0xC20 PUSH1 0x9 PUSH1 0x0 PUSH2 0x1FFE JUMP JUMPDEST PUSH1 0x0 JUMPDEST DUP3 MLOAD DUP2 LT ISZERO PUSH2 0xDBE JUMPI DUP3 DUP2 DUP2 MLOAD DUP2 LT PUSH2 0xC3E JUMPI PUSH2 0xC3E PUSH2 0x25AD JUMP JUMPDEST PUSH1 0x20 MUL PUSH1 0x20 ADD ADD MLOAD PUSH1 0x0 ADD MLOAD ISZERO PUSH2 0xC84 JUMPI PUSH2 0xC84 PUSH1 0x0 DUP1 MLOAD PUSH1 0x20 PUSH2 0x28A9 DUP4 CODECOPY DUP2 MLOAD SWAP2 MSTORE DUP5 DUP4 DUP2 MLOAD DUP2 LT PUSH2 0xC73 JUMPI PUSH2 0xC73 PUSH2 0x25AD JUMP JUMPDEST PUSH1 0x20 MUL PUSH1 0x20 ADD ADD MLOAD PUSH1 0xA0 ADD MLOAD PUSH2 0x9E7 JUMP JUMPDEST DUP3 DUP2 DUP2 MLOAD DUP2 LT PUSH2 0xC96 JUMPI PUSH2 0xC96 PUSH2 0x25AD JUMP JUMPDEST PUSH1 0x20 MUL PUSH1 0x20 ADD ADD MLOAD PUSH1 0x20 ADD MLOAD ISZERO PUSH2 0xCCB JUMPI PUSH2 0xCCB PUSH1 0x0 DUP1 MLOAD PUSH1 0x20 PUSH2 0x2849 DUP4 CODECOPY DUP2 MLOAD SWAP2 MSTORE DUP5 DUP4 DUP2 MLOAD DUP2 LT PUSH2 0xC73 JUMPI PUSH2 0xC73 PUSH2 0x25AD JUMP JUMPDEST DUP3 DUP2 DUP2 MLOAD DUP2 LT PUSH2 0xCDD JUMPI PUSH2 0xCDD PUSH2 0x25AD JUMP JUMPDEST PUSH1 0x20 MUL PUSH1 0x20 ADD ADD MLOAD PUSH1 0x40 ADD MLOAD ISZERO PUSH2 0xD12 JUMPI PUSH2 0xD12 PUSH1 0x0 DUP1 MLOAD PUSH1 0x20 PUSH2 0x2869 DUP4 CODECOPY DUP2 MLOAD SWAP2 MSTORE DUP5 DUP4 DUP2 MLOAD DUP2 LT PUSH2 0xC73 JUMPI PUSH2 0xC73 PUSH2 0x25AD JUMP JUMPDEST DUP3 DUP2 DUP2 MLOAD DUP2 LT PUSH2 0xD24 JUMPI PUSH2 0xD24 PUSH2 0x25AD JUMP JUMPDEST PUSH1 0x20 MUL PUSH1 0x20 ADD ADD MLOAD PUSH1 0x60 ADD MLOAD ISZERO PUSH2 0xD59 JUMPI PUSH2 0xD59 PUSH1 0x0 DUP1 MLOAD PUSH1 0x20 PUSH2 0x2889 DUP4 CODECOPY DUP2 MLOAD SWAP2 MSTORE DUP5 DUP4 DUP2 MLOAD DUP2 LT PUSH2 0xC73 JUMPI PUSH2 0xC73 PUSH2 0x25AD JUMP JUMPDEST PUSH1 0x9 DUP4 DUP3 DUP2 MLOAD DUP2 LT PUSH2 0xD6D JUMPI PUSH2 0xD6D PUSH2 0x25AD JUMP JUMPDEST PUSH1 0x20 SWAP1 DUP2 MUL SWAP2 SWAP1 SWAP2 ADD DUP2 ADD MLOAD PUSH1 0xA0 ADD MLOAD DUP3 SLOAD PUSH1 0x1 DUP2 ADD DUP5 SSTORE PUSH1 0x0 SWAP4 DUP5 MSTORE SWAP2 SWAP1 SWAP3 KECCAK256 ADD DUP1 SLOAD PUSH1 0x1 PUSH1 0x1 PUSH1 0xA0 SHL SUB NOT AND PUSH1 0x1 PUSH1 0x1 PUSH1 0xA0 SHL SUB SWAP1 SWAP3 AND SWAP2 SWAP1 SWAP2 OR SWAP1 SSTORE DUP1 PUSH2 0xDB6 DUP2 PUSH2 0x25D9 JUMP JUMPDEST SWAP2 POP POP PUSH2 0xC23 JUMP JUMPDEST POP PUSH32 0x13340C8E795B6B33898709AFDEE63A73DF74C7CA9D8204D3265AA483AC0E4037 DUP3 PUSH1 0x40 MLOAD PUSH2 0xDEE SWAP2 SWAP1 PUSH2 0x269D JUMP JUMPDEST PUSH1 0x40 MLOAD DUP1 SWAP2 SUB SWAP1 LOG1 POP POP JUMP JUMPDEST PUSH1 0x1 PUSH1 0x1 PUSH1 0xA0 SHL SUB DUP2 AND PUSH1 0x0 SWAP1 DUP2 MSTORE PUSH1 0x7 PUSH1 0x20 MSTORE PUSH1 0x40 DUP2 KECCAK256 SLOAD PUSH2 0x5F3 JUMP JUMPDEST PUSH1 0x8 SLOAD PUSH2 0x100 SWAP1 DIV PUSH1 0xFF AND ISZERO PUSH2 0xE69 JUMPI PUSH1 0x40 MLOAD PUSH3 0x461BCD PUSH1 0xE5 SHL DUP2 MSTORE PUSH1 0x20 PUSH1 0x4 DUP3 ADD MSTORE PUSH1 0x16 PUSH1 0x24 DUP3 ADD MSTORE PUSH22 0x150E88105B1C9958591E481A5B9A5D1A585B1A5E9959 PUSH1 0x52 SHL PUSH1 0x44 DUP3 ADD MSTORE PUSH1 0x64 ADD PUSH2 0x771 JUMP JUMPDEST PUSH1 0x8 DUP1 SLOAD PUSH2 0xFF00 NOT AND PUSH2 0x100 OR SWAP1 SSTORE PUSH2 0xE83 PUSH1 0x0 DUP3 PUSH2 0x1609 JUMP JUMPDEST PUSH2 0xE9B PUSH1 0x0 DUP1 MLOAD PUSH1 0x20 PUSH2 0x28A9 DUP4 CODECOPY DUP2 MLOAD SWAP2 MSTORE DUP3 PUSH2 0x1609 JUMP JUMPDEST PUSH2 0xEB3 PUSH1 0x0 DUP1 MLOAD PUSH1 0x20 PUSH2 0x2849 DUP4 CODECOPY DUP2 MLOAD SWAP2 MSTORE DUP3 PUSH2 0x1609 JUMP JUMPDEST PUSH2 0xECB PUSH1 0x0 DUP1 MLOAD PUSH1 0x20 PUSH2 0x2869 DUP4 CODECOPY DUP2 MLOAD SWAP2 MSTORE DUP3 PUSH2 0x1609 JUMP JUMPDEST PUSH2 0xEE3 PUSH1 0x0 DUP1 MLOAD PUSH1 0x20 PUSH2 0x2889 DUP4 CODECOPY DUP2 MLOAD SWAP2 MSTORE DUP3 PUSH2 0x1609 JUMP JUMPDEST POP JUMP JUMPDEST PUSH1 0x0 DUP3 DUP2 MSTORE PUSH1 0x1 PUSH1 0x20 MSTORE PUSH1 0x40 DUP2 KECCAK256 PUSH2 0xEFE SWAP1 DUP4 PUSH2 0x1B74 JUMP JUMPDEST SWAP4 SWAP3 POP POP POP JUMP JUMPDEST PUSH1 0x0 SWAP2 DUP3 MSTORE PUSH1 0x20 DUP3 DUP2 MSTORE PUSH1 0x40 DUP1 DUP5 KECCAK256 PUSH1 0x1 PUSH1 0x1 PUSH1 0xA0 SHL SUB SWAP4 SWAP1 SWAP4 AND DUP5 MSTORE SWAP2 SWAP1 MSTORE SWAP1 KECCAK256 SLOAD PUSH1 0xFF AND SWAP1 JUMP JUMPDEST PUSH1 0x60 PUSH1 0x6 DUP1 SLOAD PUSH2 0x6B5 SWAP1 PUSH2 0x25F4 JUMP JUMPDEST PUSH1 0x8 SLOAD PUSH1 0xFF AND ISZERO PUSH2 0xF60 JUMPI PUSH1 0x40 MLOAD PUSH3 0x461BCD PUSH1 0xE5 SHL DUP2 MSTORE PUSH1 0x4 ADD PUSH2 0x771 SWAP1 PUSH2 0x2629 JUMP JUMPDEST PUSH1 0x0 DUP1 MLOAD PUSH1 0x20 PUSH2 0x2869 DUP4 CODECOPY DUP2 MLOAD SWAP2 MSTORE PUSH2 0xF79 DUP2 CALLER PUSH2 0x15A5 JUMP JUMPDEST DUP3 PUSH1 0x1 PUSH1 0x1 PUSH1 0xA0 SHL SUB DUP2 AND PUSH2 0xFA0 JUMPI PUSH1 0x40 MLOAD PUSH3 0x461BCD PUSH1 0xE5 SHL DUP2 MSTORE PUSH1 0x4 ADD PUSH2 0x771 SWAP1 PUSH2 0x264C JUMP JUMPDEST PUSH2 0xFAB DUP6 DUP6 DUP6 PUSH2 0x186E JUMP JUMPDEST PUSH1 0x40 DUP1 MLOAD PUSH1 0x1 PUSH1 0x1 PUSH1 0xA0 SHL SUB DUP1 DUP9 AND DUP3 MSTORE DUP7 AND PUSH1 0x20 DUP3 ADD MSTORE SWAP1 DUP2 ADD DUP5 SWAP1 MSTORE PUSH32 0x4F21C37C3184C9B0BBC63A812B0A1A148F15F1BD6DB127E7E562D9B043680325 SWAP1 PUSH1 0x60 ADD PUSH1 0x40 MLOAD DUP1 SWAP2 SUB SWAP1 LOG1 POP POP POP POP POP JUMP JUMPDEST CALLER PUSH1 0x0 SWAP1 DUP2 MSTORE PUSH1 0x4 PUSH1 0x20 SWAP1 DUP2 MSTORE PUSH1 0x40 DUP1 DUP4 KECCAK256 PUSH1 0x1 PUSH1 0x1 PUSH1 0xA0 SHL SUB DUP7 AND DUP5 MSTORE SWAP1 SWAP2 MSTORE DUP2 KECCAK256 SLOAD DUP3 DUP2 LT ISZERO PUSH2 0x107F JUMPI PUSH1 0x40 MLOAD PUSH3 0x461BCD PUSH1 0xE5 SHL DUP2 MSTORE PUSH1 0x20 PUSH1 0x4 DUP3 ADD MSTORE PUSH1 0x25 PUSH1 0x24 DUP3 ADD MSTORE PUSH32 0x45524332303A2064656372656173656420616C6C6F77616E63652062656C6F77 PUSH1 0x44 DUP3 ADD MSTORE PUSH5 0x207A65726F PUSH1 0xD8 SHL PUSH1 0x64 DUP3 ADD MSTORE PUSH1 0x84 ADD PUSH2 0x771 JUMP JUMPDEST PUSH2 0x108E CALLER DUP6 PUSH2 0x9D6 DUP7 DUP6 PUSH2 0x266E JUMP JUMPDEST POP PUSH1 0x1 SWAP4 SWAP3 POP POP POP JUMP JUMPDEST PUSH1 0x8 SLOAD PUSH1 0x0 SWAP1 PUSH1 0xFF AND ISZERO PUSH2 0x10BE JUMPI PUSH1 0x40 MLOAD PUSH3 0x461BCD PUSH1 0xE5 SHL DUP2 MSTORE PUSH1 0x4 ADD PUSH2 0x771 SWAP1 PUSH2 0x2629 JUMP JUMPDEST PUSH2 0x745 CALLER DUP5 DUP5 PUSH2 0x186E JUMP JUMPDEST PUSH1 0x8 SLOAD PUSH1 0x0 SWAP1 PUSH1 0xFF AND PUSH2 0x110B JUMPI PUSH1 0x40 MLOAD PUSH3 0x461BCD PUSH1 0xE5 SHL DUP2 MSTORE PUSH1 0x20 PUSH1 0x4 DUP3 ADD MSTORE PUSH1 0xA PUSH1 0x24 DUP3 ADD MSTORE PUSH10 0x150E88085C185D5CD959 PUSH1 0xB2 SHL PUSH1 0x44 DUP3 ADD MSTORE PUSH1 0x64 ADD PUSH2 0x771 JUMP JUMPDEST PUSH1 0x0 DUP1 MLOAD PUSH1 0x20 PUSH2 0x2889 DUP4 CODECOPY DUP2 MLOAD SWAP2 MSTORE PUSH2 0x1124 DUP2 CALLER PUSH2 0x15A5 JUMP JUMPDEST DUP4 PUSH1 0x1 PUSH1 0x1 PUSH1 0xA0 SHL SUB DUP2 AND PUSH2 0x114B JUMPI PUSH1 0x40 MLOAD PUSH3 0x461BCD PUSH1 0xE5 SHL DUP2 MSTORE PUSH1 0x4 ADD PUSH2 0x771 SWAP1 PUSH2 0x264C JUMP JUMPDEST PUSH2 0x9DB DUP7 DUP7 DUP7 PUSH2 0x186E JUMP JUMPDEST PUSH1 0x8 SLOAD PUSH1 0xFF AND PUSH2 0x1195 JUMPI PUSH1 0x40 MLOAD PUSH3 0x461BCD PUSH1 0xE5 SHL DUP2 MSTORE PUSH1 0x20 PUSH1 0x4 DUP3 ADD MSTORE PUSH1 0xA PUSH1 0x24 DUP3 ADD MSTORE PUSH10 0x150E88085C185D5CD959 PUSH1 0xB2 SHL PUSH1 0x44 DUP3 ADD MSTORE PUSH1 0x64 ADD PUSH2 0x771 JUMP JUMPDEST PUSH1 0x0 PUSH2 0x11A1 DUP2 CALLER PUSH2 0x15A5 JUMP JUMPDEST POP PUSH1 0x8 DUP1 SLOAD PUSH1 0xFF NOT AND SWAP1 SSTORE JUMP JUMPDEST PUSH1 0x0 DUP2 DUP2 MSTORE PUSH1 0x1 PUSH1 0x20 MSTORE PUSH1 0x40 DUP2 KECCAK256 PUSH2 0x5F3 SWAP1 PUSH2 0x1B80 JUMP JUMPDEST DUP4 TIMESTAMP GT ISZERO PUSH2 0x1215 JUMPI PUSH1 0x40 MLOAD PUSH3 0x461BCD PUSH1 0xE5 SHL DUP2 MSTORE PUSH1 0x20 PUSH1 0x4 DUP3 ADD MSTORE PUSH1 0x1D PUSH1 0x24 DUP3 ADD MSTORE PUSH32 0x45524332305065726D69743A206578706972656420646561646C696E65000000 PUSH1 0x44 DUP3 ADD MSTORE PUSH1 0x64 ADD PUSH2 0x771 JUMP JUMPDEST PUSH1 0x0 PUSH32 0x0 DUP9 DUP9 DUP9 PUSH2 0x1244 DUP13 PUSH2 0x1B8A JUMP JUMPDEST PUSH1 0x40 DUP1 MLOAD PUSH1 0x20 DUP2 ADD SWAP7 SWAP1 SWAP7 MSTORE PUSH1 0x1 PUSH1 0x1 PUSH1 0xA0 SHL SUB SWAP5 DUP6 AND SWAP1 DUP7 ADD MSTORE SWAP3 SWAP1 SWAP2 AND PUSH1 0x60 DUP5 ADD MSTORE PUSH1 0x80 DUP4 ADD MSTORE PUSH1 0xA0 DUP3 ADD MSTORE PUSH1 0xC0 DUP2 ADD DUP7 SWAP1 MSTORE PUSH1 0xE0 ADD PUSH1 0x40 MLOAD PUSH1 0x20 DUP2 DUP4 SUB SUB DUP2 MSTORE SWAP1 PUSH1 0x40 MSTORE DUP1 MLOAD SWAP1 PUSH1 0x20 ADD KECCAK256 SWAP1 POP PUSH1 0x0 PUSH2 0x129F DUP3 PUSH2 0x1BB2 JUMP JUMPDEST SWAP1 POP PUSH1 0x0 PUSH2 0x12AF DUP3 DUP8 DUP8 DUP8 PUSH2 0x1C00 JUMP JUMPDEST SWAP1 POP DUP10 PUSH1 0x1 PUSH1 0x1 PUSH1 0xA0 SHL SUB AND DUP2 PUSH1 0x1 PUSH1 0x1 PUSH1 0xA0 SHL SUB AND EQ PUSH2 0x1312 JUMPI PUSH1 0x40 MLOAD PUSH3 0x461BCD PUSH1 0xE5 SHL DUP2 MSTORE PUSH1 0x20 PUSH1 0x4 DUP3 ADD MSTORE PUSH1 0x1E PUSH1 0x24 DUP3 ADD MSTORE PUSH32 0x45524332305065726D69743A20696E76616C6964207369676E61747572650000 PUSH1 0x44 DUP3 ADD MSTORE PUSH1 0x64 ADD PUSH2 0x771 JUMP JUMPDEST PUSH2 0x131D DUP11 DUP11 DUP11 PUSH2 0x1613 JUMP JUMPDEST POP POP POP POP POP POP POP POP POP POP JUMP JUMPDEST PUSH2 0xA27 DUP3 DUP3 PUSH2 0x151F JUMP JUMPDEST PUSH1 0x0 PUSH2 0x133F DUP2 CALLER PUSH2 0x15A5 JUMP JUMPDEST PUSH2 0x134B PUSH1 0x5 DUP7 DUP7 PUSH2 0x201C JUMP JUMPDEST POP PUSH2 0x1358 PUSH1 0x6 DUP5 DUP5 PUSH2 0x201C JUMP JUMPDEST POP POP POP POP POP POP JUMP JUMPDEST PUSH2 0x136A DUP3 DUP3 PUSH2 0x1DA9 JUMP JUMPDEST POP POP JUMP JUMPDEST PUSH1 0x0 PUSH2 0xEFE DUP4 PUSH1 0x1 PUSH1 0x1 PUSH1 0xA0 SHL SUB DUP5 AND PUSH2 0x1E2D JUMP JUMPDEST PUSH1 0x60 PUSH1 0x0 PUSH2 0x1392 DUP4 PUSH1 0x2 PUSH2 0x2728 JUMP JUMPDEST PUSH2 0x139D SWAP1 PUSH1 0x2 PUSH2 0x2685 JUMP JUMPDEST PUSH8 0xFFFFFFFFFFFFFFFF DUP2 GT ISZERO PUSH2 0x13B5 JUMPI PUSH2 0x13B5 PUSH2 0x2295 JUMP JUMPDEST PUSH1 0x40 MLOAD SWAP1 DUP1 DUP3 MSTORE DUP1 PUSH1 0x1F ADD PUSH1 0x1F NOT AND PUSH1 0x20 ADD DUP3 ADD PUSH1 0x40 MSTORE DUP1 ISZERO PUSH2 0x13DF JUMPI PUSH1 0x20 DUP3 ADD DUP2 DUP1 CALLDATASIZE DUP4 CALLDATACOPY ADD SWAP1 POP JUMPDEST POP SWAP1 POP PUSH1 0x3 PUSH1 0xFC SHL DUP2 PUSH1 0x0 DUP2 MLOAD DUP2 LT PUSH2 0x13FA JUMPI PUSH2 0x13FA PUSH2 0x25AD JUMP JUMPDEST PUSH1 0x20 ADD ADD SWAP1 PUSH1 0x1 PUSH1 0x1 PUSH1 0xF8 SHL SUB NOT AND SWAP1 DUP2 PUSH1 0x0 BYTE SWAP1 MSTORE8 POP PUSH1 0xF PUSH1 0xFB SHL DUP2 PUSH1 0x1 DUP2 MLOAD DUP2 LT PUSH2 0x1429 JUMPI PUSH2 0x1429 PUSH2 0x25AD JUMP JUMPDEST PUSH1 0x20 ADD ADD SWAP1 PUSH1 0x1 PUSH1 0x1 PUSH1 0xF8 SHL SUB NOT AND SWAP1 DUP2 PUSH1 0x0 BYTE SWAP1 MSTORE8 POP PUSH1 0x0 PUSH2 0x144D DUP5 PUSH1 0x2 PUSH2 0x2728 JUMP JUMPDEST PUSH2 0x1458 SWAP1 PUSH1 0x1 PUSH2 0x2685 JUMP JUMPDEST SWAP1 POP JUMPDEST PUSH1 0x1 DUP2 GT ISZERO PUSH2 0x14D0 JUMPI PUSH16 0x181899199A1A9B1B9C1CB0B131B232B3 PUSH1 0x81 SHL DUP6 PUSH1 0xF AND PUSH1 0x10 DUP2 LT PUSH2 0x148C JUMPI PUSH2 0x148C PUSH2 0x25AD JUMP JUMPDEST BYTE PUSH1 0xF8 SHL DUP3 DUP3 DUP2 MLOAD DUP2 LT PUSH2 0x14A2 JUMPI PUSH2 0x14A2 PUSH2 0x25AD JUMP JUMPDEST PUSH1 0x20 ADD ADD SWAP1 PUSH1 0x1 PUSH1 0x1 PUSH1 0xF8 SHL SUB NOT AND SWAP1 DUP2 PUSH1 0x0 BYTE SWAP1 MSTORE8 POP PUSH1 0x4 SWAP5 SWAP1 SWAP5 SHR SWAP4 PUSH2 0x14C9 DUP2 PUSH2 0x2747 JUMP JUMPDEST SWAP1 POP PUSH2 0x145B JUMP JUMPDEST POP DUP4 ISZERO PUSH2 0xEFE JUMPI PUSH1 0x40 MLOAD PUSH3 0x461BCD PUSH1 0xE5 SHL DUP2 MSTORE PUSH1 0x20 PUSH1 0x4 DUP3 ADD DUP2 SWAP1 MSTORE PUSH1 0x24 DUP3 ADD MSTORE PUSH32 0x537472696E67733A20686578206C656E67746820696E73756666696369656E74 PUSH1 0x44 DUP3 ADD MSTORE PUSH1 0x64 ADD PUSH2 0x771 JUMP JUMPDEST PUSH1 0x0 DUP3 DUP2 MSTORE PUSH1 0x20 DUP2 SWAP1 MSTORE PUSH1 0x40 SWAP1 KECCAK256 PUSH1 0x1 ADD SLOAD PUSH2 0x153B DUP2 CALLER PUSH2 0x15A5 JUMP JUMPDEST PUSH2 0xA09 DUP4 DUP4 PUSH2 0x1E7C JUMP JUMPDEST PUSH1 0x0 PUSH2 0xEFE DUP4 PUSH1 0x1 PUSH1 0x1 PUSH1 0xA0 SHL SUB DUP5 AND PUSH2 0x1EE1 JUMP JUMPDEST PUSH1 0x0 PUSH2 0x1566 DUP2 CALLER PUSH2 0x15A5 JUMP JUMPDEST PUSH2 0xA09 DUP4 DUP4 PUSH2 0x1DA9 JUMP JUMPDEST PUSH1 0x0 PUSH1 0x1 PUSH1 0x1 PUSH1 0xE0 SHL SUB NOT DUP3 AND PUSH4 0x7965DB0B PUSH1 0xE0 SHL EQ DUP1 PUSH2 0x5F3 JUMPI POP PUSH4 0x1FFC9A7 PUSH1 0xE0 SHL PUSH1 0x1 PUSH1 0x1 PUSH1 0xE0 SHL SUB NOT DUP4 AND EQ PUSH2 0x5F3 JUMP JUMPDEST PUSH2 0x15AF DUP3 DUP3 PUSH2 0xF05 JUMP JUMPDEST PUSH2 0x136A JUMPI PUSH2 0x15C7 DUP2 PUSH1 0x1 PUSH1 0x1 PUSH1 0xA0 SHL SUB AND PUSH1 0x14 PUSH2 0x1383 JUMP JUMPDEST PUSH2 0x15D2 DUP4 PUSH1 0x20 PUSH2 0x1383 JUMP JUMPDEST PUSH1 0x40 MLOAD PUSH1 0x20 ADD PUSH2 0x15E3 SWAP3 SWAP2 SWAP1 PUSH2 0x275E JUMP JUMPDEST PUSH1 0x40 DUP1 MLOAD PUSH1 0x1F NOT DUP2 DUP5 SUB ADD DUP2 MSTORE SWAP1 DUP3 SWAP1 MSTORE PUSH3 0x461BCD PUSH1 0xE5 SHL DUP3 MSTORE PUSH2 0x771 SWAP2 PUSH1 0x4 ADD PUSH2 0x2199 JUMP JUMPDEST PUSH2 0x9F1 DUP3 DUP3 PUSH2 0x1360 JUMP JUMPDEST PUSH1 0x1 PUSH1 0x1 PUSH1 0xA0 SHL SUB DUP4 AND PUSH2 0x1675 JUMPI PUSH1 0x40 MLOAD PUSH3 0x461BCD PUSH1 0xE5 SHL DUP2 MSTORE PUSH1 0x20 PUSH1 0x4 DUP3 ADD MSTORE PUSH1 0x24 DUP1 DUP3 ADD MSTORE PUSH32 0x45524332303A20617070726F76652066726F6D20746865207A65726F20616464 PUSH1 0x44 DUP3 ADD MSTORE PUSH4 0x72657373 PUSH1 0xE0 SHL PUSH1 0x64 DUP3 ADD MSTORE PUSH1 0x84 ADD PUSH2 0x771 JUMP JUMPDEST PUSH1 0x1 PUSH1 0x1 PUSH1 0xA0 SHL SUB DUP3 AND PUSH2 0x16D6 JUMPI PUSH1 0x40 MLOAD PUSH3 0x461BCD PUSH1 0xE5 SHL DUP2 MSTORE PUSH1 0x20 PUSH1 0x4 DUP3 ADD MSTORE PUSH1 0x22 PUSH1 0x24 DUP3 ADD MSTORE PUSH32 0x45524332303A20617070726F766520746F20746865207A65726F206164647265 PUSH1 0x44 DUP3 ADD MSTORE PUSH2 0x7373 PUSH1 0xF0 SHL PUSH1 0x64 DUP3 ADD MSTORE PUSH1 0x84 ADD PUSH2 0x771 JUMP JUMPDEST PUSH1 0x1 PUSH1 0x1 PUSH1 0xA0 SHL SUB DUP4 DUP2 AND PUSH1 0x0 DUP2 DUP2 MSTORE PUSH1 0x4 PUSH1 0x20 SWAP1 DUP2 MSTORE PUSH1 0x40 DUP1 DUP4 KECCAK256 SWAP5 DUP8 AND DUP1 DUP5 MSTORE SWAP5 DUP3 MSTORE SWAP2 DUP3 SWAP1 KECCAK256 DUP6 SWAP1 SSTORE SWAP1 MLOAD DUP5 DUP2 MSTORE PUSH32 0x8C5BE1E5EBEC7D5BD14F71427D1E84F3DD0314C0F7B2291E5B200AC8C7C3B925 SWAP2 ADD JUMPDEST PUSH1 0x40 MLOAD DUP1 SWAP2 SUB SWAP1 LOG3 POP POP POP JUMP JUMPDEST DUP2 PUSH1 0x1 PUSH1 0x1 PUSH1 0xA0 SHL SUB DUP2 AND PUSH2 0x175F JUMPI PUSH1 0x40 MLOAD PUSH3 0x461BCD PUSH1 0xE5 SHL DUP2 MSTORE PUSH1 0x4 ADD PUSH2 0x771 SWAP1 PUSH2 0x264C JUMP JUMPDEST PUSH1 0x1 PUSH1 0x1 PUSH1 0xA0 SHL SUB DUP4 AND PUSH1 0x0 SWAP1 DUP2 MSTORE PUSH1 0x2 PUSH1 0x20 MSTORE PUSH1 0x40 DUP2 KECCAK256 DUP1 SLOAD DUP5 SWAP3 SWAP1 PUSH2 0x1787 SWAP1 DUP5 SWAP1 PUSH2 0x2685 JUMP JUMPDEST SWAP3 POP POP DUP2 SWAP1 SSTORE POP DUP2 PUSH1 0x3 PUSH1 0x0 DUP3 DUP3 SLOAD PUSH2 0x17A0 SWAP2 SWAP1 PUSH2 0x2685 JUMP JUMPDEST SWAP1 SWAP2 SSTORE POP POP PUSH1 0x40 MLOAD DUP3 DUP2 MSTORE PUSH1 0x1 PUSH1 0x1 PUSH1 0xA0 SHL SUB DUP5 AND SWAP1 PUSH1 0x0 SWAP1 PUSH32 0xDDF252AD1BE2C89B69C2B068FC378DAA952BA7F163C4A11628F55A4DF523B3EF SWAP1 PUSH1 0x20 ADD PUSH2 0x172B JUMP JUMPDEST PUSH1 0x1 PUSH1 0x1 PUSH1 0xA0 SHL SUB DUP3 AND PUSH1 0x0 SWAP1 DUP2 MSTORE PUSH1 0x2 PUSH1 0x20 MSTORE PUSH1 0x40 DUP2 KECCAK256 DUP1 SLOAD DUP4 SWAP3 SWAP1 PUSH2 0x180B SWAP1 DUP5 SWAP1 PUSH2 0x266E JUMP JUMPDEST SWAP3 POP POP DUP2 SWAP1 SSTORE POP DUP1 PUSH1 0x3 PUSH1 0x0 DUP3 DUP3 SLOAD PUSH2 0x1824 SWAP2 SWAP1 PUSH2 0x266E JUMP JUMPDEST SWAP1 SWAP2 SSTORE POP POP PUSH1 0x40 MLOAD DUP2 DUP2 MSTORE PUSH1 0x0 SWAP1 PUSH1 0x1 PUSH1 0x1 PUSH1 0xA0 SHL SUB DUP5 AND SWAP1 PUSH32 0xDDF252AD1BE2C89B69C2B068FC378DAA952BA7F163C4A11628F55A4DF523B3EF SWAP1 PUSH1 0x20 ADD PUSH1 0x40 MLOAD DUP1 SWAP2 SUB SWAP1 LOG3 POP POP JUMP JUMPDEST DUP2 PUSH1 0x1 PUSH1 0x1 PUSH1 0xA0 SHL SUB DUP2 AND PUSH2 0x1895 JUMPI PUSH1 0x40 MLOAD PUSH3 0x461BCD PUSH1 0xE5 SHL DUP2 MSTORE PUSH1 0x4 ADD PUSH2 0x771 SWAP1 PUSH2 0x264C JUMP JUMPDEST DUP4 DUP4 DUP4 PUSH1 0x0 PUSH2 0x18A4 PUSH1 0x3 PUSH2 0x676 JUMP JUMPDEST PUSH1 0x1 PUSH1 0x1 PUSH1 0xA0 SHL SUB DUP5 DUP2 AND PUSH1 0x0 DUP2 DUP2 MSTORE PUSH1 0x2 PUSH1 0x20 MSTORE PUSH1 0x40 SWAP1 DUP2 SWAP1 KECCAK256 SLOAD SWAP1 MLOAD PUSH4 0x59A7F9B7 PUSH1 0xE1 SHL DUP2 MSTORE PUSH20 0xDEF1FAC7BF08F173D286BBBDCBEEADE695129840 PUSH1 0x4 DUP3 ADD MSTORE DUP9 DUP5 AND PUSH1 0x24 DUP3 ADD MSTORE PUSH1 0x44 DUP2 ADD SWAP3 SWAP1 SWAP3 MSTORE PUSH1 0x64 DUP3 ADD MSTORE PUSH1 0x84 DUP2 ADD DUP6 SWAP1 MSTORE SWAP2 SWAP3 POP DUP3 AND SWAP1 PUSH4 0xB34FF36E SWAP1 PUSH1 0xA4 ADD PUSH1 0x40 DUP1 MLOAD DUP1 DUP4 SUB DUP2 PUSH1 0x0 DUP8 GAS CALL ISZERO DUP1 ISZERO PUSH2 0x192F JUMPI RETURNDATASIZE PUSH1 0x0 DUP1 RETURNDATACOPY RETURNDATASIZE PUSH1 0x0 REVERT JUMPDEST POP POP POP POP PUSH1 0x40 MLOAD RETURNDATASIZE PUSH1 0x1F NOT PUSH1 0x1F DUP3 ADD AND DUP3 ADD DUP1 PUSH1 0x40 MSTORE POP DUP2 ADD SWAP1 PUSH2 0x1953 SWAP2 SWAP1 PUSH2 0x27D3 JUMP JUMPDEST POP PUSH1 0x1 PUSH1 0x1 PUSH1 0xA0 SHL SUB DUP9 AND PUSH1 0x0 SWAP1 DUP2 MSTORE PUSH1 0x2 PUSH1 0x20 MSTORE PUSH1 0x40 DUP2 KECCAK256 DUP1 SLOAD DUP9 SWAP3 SWAP1 PUSH2 0x197C SWAP1 DUP5 SWAP1 PUSH2 0x266E JUMP JUMPDEST SWAP1 SWAP2 SSTORE POP POP PUSH1 0x1 PUSH1 0x1 PUSH1 0xA0 SHL SUB DUP8 AND PUSH1 0x0 SWAP1 DUP2 MSTORE PUSH1 0x2 PUSH1 0x20 MSTORE PUSH1 0x40 DUP2 KECCAK256 DUP1 SLOAD DUP9 SWAP3 SWAP1 PUSH2 0x19A9 SWAP1 DUP5 SWAP1 PUSH2 0x2685 JUMP JUMPDEST SWAP3 POP POP DUP2 SWAP1 SSTORE POP DUP7 PUSH1 0x1 PUSH1 0x1 PUSH1 0xA0 SHL SUB AND DUP9 PUSH1 0x1 PUSH1 0x1 PUSH1 0xA0 SHL SUB AND PUSH32 0xDDF252AD1BE2C89B69C2B068FC378DAA952BA7F163C4A11628F55A4DF523B3EF DUP9 PUSH1 0x40 MLOAD PUSH2 0x19F5 SWAP2 DUP2 MSTORE PUSH1 0x20 ADD SWAP1 JUMP JUMPDEST PUSH1 0x40 MLOAD DUP1 SWAP2 SUB SWAP1 LOG3 POP POP POP POP POP POP POP POP JUMP JUMPDEST PUSH1 0x0 PUSH32 0x0 CHAINID EQ ISZERO PUSH2 0x1A56 JUMPI POP PUSH32 0x0 SWAP1 JUMP JUMPDEST POP PUSH1 0x40 DUP1 MLOAD PUSH32 0x0 PUSH1 0x20 DUP1 DUP4 ADD SWAP2 SWAP1 SWAP2 MSTORE PUSH32 0x0 DUP3 DUP5 ADD MSTORE PUSH32 0x0 PUSH1 0x60 DUP4 ADD MSTORE CHAINID PUSH1 0x80 DUP4 ADD MSTORE ADDRESS PUSH1 0xA0 DUP1 DUP5 ADD SWAP2 SWAP1 SWAP2 MSTORE DUP4 MLOAD DUP1 DUP5 SUB SWAP1 SWAP2 ADD DUP2 MSTORE PUSH1 0xC0 SWAP1 SWAP3 ADD SWAP1 SWAP3 MSTORE DUP1 MLOAD SWAP2 ADD KECCAK256 SWAP1 JUMP JUMPDEST PUSH1 0x1 PUSH1 0x1 PUSH1 0xA0 SHL SUB DUP2 AND CALLER EQ PUSH2 0x1B6A JUMPI PUSH1 0x40 MLOAD PUSH3 0x461BCD PUSH1 0xE5 SHL DUP2 MSTORE PUSH1 0x20 PUSH1 0x4 DUP3 ADD MSTORE PUSH1 0x2F PUSH1 0x24 DUP3 ADD MSTORE PUSH32 0x416363657373436F6E74726F6C3A2063616E206F6E6C792072656E6F756E6365 PUSH1 0x44 DUP3 ADD MSTORE PUSH15 0x103937B632B9903337B91039B2B633 PUSH1 0x89 SHL PUSH1 0x64 DUP3 ADD MSTORE PUSH1 0x84 ADD PUSH2 0x771 JUMP JUMPDEST PUSH2 0x136A DUP3 DUP3 PUSH2 0x1E7C JUMP JUMPDEST PUSH1 0x0 PUSH2 0xEFE DUP4 DUP4 PUSH2 0x1FD4 JUMP JUMPDEST PUSH1 0x0 PUSH2 0x5F3 DUP3 SLOAD SWAP1 JUMP JUMPDEST PUSH1 0x1 PUSH1 0x1 PUSH1 0xA0 SHL SUB DUP2 AND PUSH1 0x0 SWAP1 DUP2 MSTORE PUSH1 0x7 PUSH1 0x20 MSTORE PUSH1 0x40 SWAP1 KECCAK256 DUP1 SLOAD PUSH1 0x1 DUP2 ADD DUP3 SSTORE SWAP1 JUMPDEST POP SWAP2 SWAP1 POP JUMP JUMPDEST PUSH1 0x0 PUSH2 0x5F3 PUSH2 0x1BBF PUSH2 0x1A07 JUMP JUMPDEST DUP4 PUSH1 0x40 MLOAD PUSH2 0x1901 PUSH1 0xF0 SHL PUSH1 0x20 DUP3 ADD MSTORE PUSH1 0x22 DUP2 ADD DUP4 SWAP1 MSTORE PUSH1 0x42 DUP2 ADD DUP3 SWAP1 MSTORE PUSH1 0x0 SWAP1 PUSH1 0x62 ADD PUSH1 0x40 MLOAD PUSH1 0x20 DUP2 DUP4 SUB SUB DUP2 MSTORE SWAP1 PUSH1 0x40 MSTORE DUP1 MLOAD SWAP1 PUSH1 0x20 ADD KECCAK256 SWAP1 POP SWAP3 SWAP2 POP POP JUMP JUMPDEST PUSH1 0x0 PUSH32 0x7FFFFFFFFFFFFFFFFFFFFFFFFFFFFFFF5D576E7357A4501DDFE92F46681B20A0 DUP3 GT ISZERO PUSH2 0x1C7D JUMPI PUSH1 0x40 MLOAD PUSH3 0x461BCD PUSH1 0xE5 SHL DUP2 MSTORE PUSH1 0x20 PUSH1 0x4 DUP3 ADD MSTORE PUSH1 0x22 PUSH1 0x24 DUP3 ADD MSTORE PUSH32 0x45434453413A20696E76616C6964207369676E6174757265202773272076616C PUSH1 0x44 DUP3 ADD MSTORE PUSH2 0x7565 PUSH1 0xF0 SHL PUSH1 0x64 DUP3 ADD MSTORE PUSH1 0x84 ADD PUSH2 0x771 JUMP JUMPDEST DUP4 PUSH1 0xFF AND PUSH1 0x1B EQ DUP1 PUSH2 0x1C92 JUMPI POP DUP4 PUSH1 0xFF AND PUSH1 0x1C EQ JUMPDEST PUSH2 0x1CE9 JUMPI PUSH1 0x40 MLOAD PUSH3 0x461BCD PUSH1 0xE5 SHL DUP2 MSTORE PUSH1 0x20 PUSH1 0x4 DUP3 ADD MSTORE PUSH1 0x22 PUSH1 0x24 DUP3 ADD MSTORE PUSH32 0x45434453413A20696E76616C6964207369676E6174757265202776272076616C PUSH1 0x44 DUP3 ADD MSTORE PUSH2 0x7565 PUSH1 0xF0 SHL PUSH1 0x64 DUP3 ADD MSTORE PUSH1 0x84 ADD PUSH2 0x771 JUMP JUMPDEST PUSH1 0x40 DUP1 MLOAD PUSH1 0x0 DUP1 DUP3 MSTORE PUSH1 0x20 DUP3 ADD DUP1 DUP5 MSTORE DUP9 SWAP1 MSTORE PUSH1 0xFF DUP8 AND SWAP3 DUP3 ADD SWAP3 SWAP1 SWAP3 MSTORE PUSH1 0x60 DUP2 ADD DUP6 SWAP1 MSTORE PUSH1 0x80 DUP2 ADD DUP5 SWAP1 MSTORE PUSH1 0x1 SWAP1 PUSH1 0xA0 ADD PUSH1 0x20 PUSH1 0x40 MLOAD PUSH1 0x20 DUP2 SUB SWAP1 DUP1 DUP5 SUB SWAP1 DUP6 GAS STATICCALL ISZERO DUP1 ISZERO PUSH2 0x1D3D JUMPI RETURNDATASIZE PUSH1 0x0 DUP1 RETURNDATACOPY RETURNDATASIZE PUSH1 0x0 REVERT JUMPDEST POP POP PUSH1 0x40 MLOAD PUSH1 0x1F NOT ADD MLOAD SWAP2 POP POP PUSH1 0x1 PUSH1 0x1 PUSH1 0xA0 SHL SUB DUP2 AND PUSH2 0x1DA0 JUMPI PUSH1 0x40 MLOAD PUSH3 0x461BCD PUSH1 0xE5 SHL DUP2 MSTORE PUSH1 0x20 PUSH1 0x4 DUP3 ADD MSTORE PUSH1 0x18 PUSH1 0x24 DUP3 ADD MSTORE PUSH32 0x45434453413A20696E76616C6964207369676E61747572650000000000000000 PUSH1 0x44 DUP3 ADD MSTORE PUSH1 0x64 ADD PUSH2 0x771 JUMP JUMPDEST SWAP6 SWAP5 POP POP POP POP POP JUMP JUMPDEST PUSH2 0x1DB3 DUP3 DUP3 PUSH2 0xF05 JUMP JUMPDEST PUSH2 0x136A JUMPI PUSH1 0x0 DUP3 DUP2 MSTORE PUSH1 0x20 DUP2 DUP2 MSTORE PUSH1 0x40 DUP1 DUP4 KECCAK256 PUSH1 0x1 PUSH1 0x1 PUSH1 0xA0 SHL SUB DUP6 AND DUP5 MSTORE SWAP1 SWAP2 MSTORE SWAP1 KECCAK256 DUP1 SLOAD PUSH1 0xFF NOT AND PUSH1 0x1 OR SWAP1 SSTORE PUSH2 0x1DE9 CALLER SWAP1 JUMP JUMPDEST PUSH1 0x1 PUSH1 0x1 PUSH1 0xA0 SHL SUB AND DUP2 PUSH1 0x1 PUSH1 0x1 PUSH1 0xA0 SHL SUB AND DUP4 PUSH32 0x2F8788117E7EFF1D82E926EC794901D17C78024A50270940304540A733656F0D PUSH1 0x40 MLOAD PUSH1 0x40 MLOAD DUP1 SWAP2 SUB SWAP1 LOG4 POP POP JUMP JUMPDEST PUSH1 0x0 DUP2 DUP2 MSTORE PUSH1 0x1 DUP4 ADD PUSH1 0x20 MSTORE PUSH1 0x40 DUP2 KECCAK256 SLOAD PUSH2 0x1E74 JUMPI POP DUP2 SLOAD PUSH1 0x1 DUP2 DUP2 ADD DUP5 SSTORE PUSH1 0x0 DUP5 DUP2 MSTORE PUSH1 0x20 DUP1 DUP3 KECCAK256 SWAP1 SWAP4 ADD DUP5 SWAP1 SSTORE DUP5 SLOAD DUP5 DUP3 MSTORE DUP3 DUP7 ADD SWAP1 SWAP4 MSTORE PUSH1 0x40 SWAP1 KECCAK256 SWAP2 SWAP1 SWAP2 SSTORE PUSH2 0x5F3 JUMP JUMPDEST POP PUSH1 0x0 PUSH2 0x5F3 JUMP JUMPDEST PUSH2 0x1E86 DUP3 DUP3 PUSH2 0xF05 JUMP JUMPDEST ISZERO PUSH2 0x136A JUMPI PUSH1 0x0 DUP3 DUP2 MSTORE PUSH1 0x20 DUP2 DUP2 MSTORE PUSH1 0x40 DUP1 DUP4 KECCAK256 PUSH1 0x1 PUSH1 0x1 PUSH1 0xA0 SHL SUB DUP6 AND DUP1 DUP6 MSTORE SWAP3 MSTORE DUP1 DUP4 KECCAK256 DUP1 SLOAD PUSH1 0xFF NOT AND SWAP1 SSTORE MLOAD CALLER SWAP3 DUP6 SWAP2 PUSH32 0xF6391F5C32D9C69D2A47EA670B442974B53935D1EDC7FD64EB21E047A839171B SWAP2 SWAP1 LOG4 POP POP JUMP JUMPDEST PUSH1 0x0 DUP2 DUP2 MSTORE PUSH1 0x1 DUP4 ADD PUSH1 0x20 MSTORE PUSH1 0x40 DUP2 KECCAK256 SLOAD DUP1 ISZERO PUSH2 0x1FCA JUMPI PUSH1 0x0 PUSH2 0x1F05 PUSH1 0x1 DUP4 PUSH2 0x266E JUMP JUMPDEST DUP6 SLOAD SWAP1 SWAP2 POP PUSH1 0x0 SWAP1 PUSH2 0x1F19 SWAP1 PUSH1 0x1 SWAP1 PUSH2 0x266E JUMP JUMPDEST SWAP1 POP DUP2 DUP2 EQ PUSH2 0x1F7E JUMPI PUSH1 0x0 DUP7 PUSH1 0x0 ADD DUP3 DUP2 SLOAD DUP2 LT PUSH2 0x1F39 JUMPI PUSH2 0x1F39 PUSH2 0x25AD JUMP JUMPDEST SWAP1 PUSH1 0x0 MSTORE PUSH1 0x20 PUSH1 0x0 KECCAK256 ADD SLOAD SWAP1 POP DUP1 DUP8 PUSH1 0x0 ADD DUP5 DUP2 SLOAD DUP2 LT PUSH2 0x1F5C JUMPI PUSH2 0x1F5C PUSH2 0x25AD JUMP JUMPDEST PUSH1 0x0 SWAP2 DUP3 MSTORE PUSH1 0x20 DUP1 DUP4 KECCAK256 SWAP1 SWAP2 ADD SWAP3 SWAP1 SWAP3 SSTORE SWAP2 DUP3 MSTORE PUSH1 0x1 DUP9 ADD SWAP1 MSTORE PUSH1 0x40 SWAP1 KECCAK256 DUP4 SWAP1 SSTORE JUMPDEST DUP6 SLOAD DUP7 SWAP1 DUP1 PUSH2 0x1F8F JUMPI PUSH2 0x1F8F PUSH2 0x2832 JUMP JUMPDEST PUSH1 0x1 SWAP1 SUB DUP2 DUP2 SWAP1 PUSH1 0x0 MSTORE PUSH1 0x20 PUSH1 0x0 KECCAK256 ADD PUSH1 0x0 SWAP1 SSTORE SWAP1 SSTORE DUP6 PUSH1 0x1 ADD PUSH1 0x0 DUP7 DUP2 MSTORE PUSH1 0x20 ADD SWAP1 DUP2 MSTORE PUSH1 0x20 ADD PUSH1 0x0 KECCAK256 PUSH1 0x0 SWAP1 SSTORE PUSH1 0x1 SWAP4 POP POP POP POP PUSH2 0x5F3 JUMP JUMPDEST PUSH1 0x0 SWAP2 POP POP PUSH2 0x5F3 JUMP JUMPDEST PUSH1 0x0 DUP3 PUSH1 0x0 ADD DUP3 DUP2 SLOAD DUP2 LT PUSH2 0x1FEB JUMPI PUSH2 0x1FEB PUSH2 0x25AD JUMP JUMPDEST SWAP1 PUSH1 0x0 MSTORE PUSH1 0x20 PUSH1 0x0 KECCAK256 ADD SLOAD SWAP1 POP SWAP3 SWAP2 POP POP JUMP JUMPDEST POP DUP1 SLOAD PUSH1 0x0 DUP3 SSTORE SWAP1 PUSH1 0x0 MSTORE PUSH1 0x20 PUSH1 0x0 KECCAK256 SWAP1 DUP2 ADD SWAP1 PUSH2 0xEE3 SWAP2 SWAP1 PUSH2 0x20A0 JUMP JUMPDEST DUP3 DUP1 SLOAD PUSH2 0x2028 SWAP1 PUSH2 0x25F4 JUMP JUMPDEST SWAP1 PUSH1 0x0 MSTORE PUSH1 0x20 PUSH1 0x0 KECCAK256 SWAP1 PUSH1 0x1F ADD PUSH1 0x20 SWAP1 DIV DUP2 ADD SWAP3 DUP3 PUSH2 0x204A JUMPI PUSH1 0x0 DUP6 SSTORE PUSH2 0x2090 JUMP JUMPDEST DUP3 PUSH1 0x1F LT PUSH2 0x2063 JUMPI DUP3 DUP1 ADD PUSH1 0xFF NOT DUP3 CALLDATALOAD AND OR DUP6 SSTORE PUSH2 0x2090 JUMP JUMPDEST DUP3 DUP1 ADD PUSH1 0x1 ADD DUP6 SSTORE DUP3 ISZERO PUSH2 0x2090 JUMPI SWAP2 DUP3 ADD JUMPDEST DUP3 DUP2 GT ISZERO PUSH2 0x2090 JUMPI DUP3 CALLDATALOAD DUP3 SSTORE SWAP2 PUSH1 0x20 ADD SWAP2 SWAP1 PUSH1 0x1 ADD SWAP1 PUSH2 0x2075 JUMP JUMPDEST POP PUSH2 0x209C SWAP3 SWAP2 POP PUSH2 0x20A0 JUMP JUMPDEST POP SWAP1 JUMP JUMPDEST JUMPDEST DUP1 DUP3 GT ISZERO PUSH2 0x209C JUMPI PUSH1 0x0 DUP2 SSTORE PUSH1 0x1 ADD PUSH2 0x20A1 JUMP JUMPDEST PUSH1 0x0 PUSH1 0x20 DUP3 DUP5 SUB SLT ISZERO PUSH2 0x20C7 JUMPI PUSH1 0x0 DUP1 REVERT JUMPDEST DUP2 CALLDATALOAD PUSH1 0x1 PUSH1 0x1 PUSH1 0xE0 SHL SUB NOT DUP2 AND DUP2 EQ PUSH2 0xEFE JUMPI PUSH1 0x0 DUP1 REVERT JUMPDEST PUSH1 0x0 DUP1 PUSH1 0x20 DUP4 DUP6 SUB SLT ISZERO PUSH2 0x20F2 JUMPI PUSH1 0x0 DUP1 REVERT JUMPDEST DUP3 CALLDATALOAD PUSH8 0xFFFFFFFFFFFFFFFF DUP1 DUP3 GT ISZERO PUSH2 0x210A JUMPI PUSH1 0x0 DUP1 REVERT JUMPDEST DUP2 DUP6 ADD SWAP2 POP DUP6 PUSH1 0x1F DUP4 ADD SLT PUSH2 0x211E JUMPI PUSH1 0x0 DUP1 REVERT JUMPDEST DUP2 CALLDATALOAD DUP2 DUP2 GT ISZERO PUSH2 0x212D JUMPI PUSH1 0x0 DUP1 REVERT JUMPDEST DUP7 PUSH1 0x20 DUP3 PUSH1 0x6 SHL DUP6 ADD ADD GT ISZERO PUSH2 0x2142 JUMPI PUSH1 0x0 DUP1 REVERT JUMPDEST PUSH1 0x20 SWAP3 SWAP1 SWAP3 ADD SWAP7 SWAP2 SWAP6 POP SWAP1 SWAP4 POP POP POP POP JUMP JUMPDEST PUSH1 0x0 PUSH1 0x20 DUP3 DUP5 SUB SLT ISZERO PUSH2 0x2166 JUMPI PUSH1 0x0 DUP1 REVERT JUMPDEST POP CALLDATALOAD SWAP2 SWAP1 POP JUMP JUMPDEST PUSH1 0x0 JUMPDEST DUP4 DUP2 LT ISZERO PUSH2 0x2188 JUMPI DUP2 DUP2 ADD MLOAD DUP4 DUP3 ADD MSTORE PUSH1 0x20 ADD PUSH2 0x2170 JUMP JUMPDEST DUP4 DUP2 GT ISZERO PUSH2 0x670 JUMPI POP POP PUSH1 0x0 SWAP2 ADD MSTORE JUMP JUMPDEST PUSH1 0x20 DUP2 MSTORE PUSH1 0x0 DUP3 MLOAD DUP1 PUSH1 0x20 DUP5 ADD MSTORE PUSH2 0x21B8 DUP2 PUSH1 0x40 DUP6 ADD PUSH1 0x20 DUP8 ADD PUSH2 0x216D JUMP JUMPDEST PUSH1 0x1F ADD PUSH1 0x1F NOT AND SWAP2 SWAP1 SWAP2 ADD PUSH1 0x40 ADD SWAP3 SWAP2 POP POP JUMP JUMPDEST DUP1 CALLDATALOAD PUSH1 0x1 PUSH1 0x1 PUSH1 0xA0 SHL SUB DUP2 AND DUP2 EQ PUSH2 0x21E3 JUMPI PUSH1 0x0 DUP1 REVERT JUMPDEST SWAP2 SWAP1 POP JUMP JUMPDEST PUSH1 0x0 DUP1 PUSH1 0x40 DUP4 DUP6 SUB SLT ISZERO PUSH2 0x21FB JUMPI PUSH1 0x0 DUP1 REVERT JUMPDEST PUSH2 0x2204 DUP4 PUSH2 0x21CC JUMP JUMPDEST SWAP5 PUSH1 0x20 SWAP4 SWAP1 SWAP4 ADD CALLDATALOAD SWAP4 POP POP POP JUMP JUMPDEST PUSH1 0x0 DUP1 PUSH1 0x0 PUSH1 0x60 DUP5 DUP7 SUB SLT ISZERO PUSH2 0x2227 JUMPI PUSH1 0x0 DUP1 REVERT JUMPDEST PUSH2 0x2230 DUP5 PUSH2 0x21CC JUMP JUMPDEST SWAP3 POP PUSH2 0x223E PUSH1 0x20 DUP6 ADD PUSH2 0x21CC JUMP JUMPDEST SWAP2 POP PUSH1 0x40 DUP5 ADD CALLDATALOAD SWAP1 POP SWAP3 POP SWAP3 POP SWAP3 JUMP JUMPDEST PUSH1 0x0 DUP1 PUSH1 0x40 DUP4 DUP6 SUB SLT ISZERO PUSH2 0x2261 JUMPI PUSH1 0x0 DUP1 REVERT JUMPDEST DUP3 CALLDATALOAD SWAP2 POP PUSH2 0x2271 PUSH1 0x20 DUP5 ADD PUSH2 0x21CC JUMP JUMPDEST SWAP1 POP SWAP3 POP SWAP3 SWAP1 POP JUMP JUMPDEST PUSH1 0x0 PUSH1 0x20 DUP3 DUP5 SUB SLT ISZERO PUSH2 0x228C JUMPI PUSH1 0x0 DUP1 REVERT JUMPDEST PUSH2 0xEFE DUP3 PUSH2 0x21CC JUMP JUMPDEST PUSH4 0x4E487B71 PUSH1 0xE0 SHL PUSH1 0x0 MSTORE PUSH1 0x41 PUSH1 0x4 MSTORE PUSH1 0x24 PUSH1 0x0 REVERT JUMPDEST PUSH1 0x40 MLOAD PUSH1 0xC0 DUP2 ADD PUSH8 0xFFFFFFFFFFFFFFFF DUP2 GT DUP3 DUP3 LT OR ISZERO PUSH2 0x22CE JUMPI PUSH2 0x22CE PUSH2 0x2295 JUMP JUMPDEST PUSH1 0x40 MSTORE SWAP1 JUMP JUMPDEST PUSH1 0x40 MLOAD PUSH1 0x1F DUP3 ADD PUSH1 0x1F NOT AND DUP2 ADD PUSH8 0xFFFFFFFFFFFFFFFF DUP2 GT DUP3 DUP3 LT OR ISZERO PUSH2 0x22FD JUMPI PUSH2 0x22FD PUSH2 0x2295 JUMP JUMPDEST PUSH1 0x40 MSTORE SWAP2 SWAP1 POP JUMP JUMPDEST DUP1 ISZERO ISZERO DUP2 EQ PUSH2 0xEE3 JUMPI PUSH1 0x0 DUP1 REVERT JUMPDEST PUSH1 0x0 PUSH1 0x20 DUP1 DUP4 DUP6 SUB SLT ISZERO PUSH2 0x2326 JUMPI PUSH1 0x0 DUP1 REVERT JUMPDEST DUP3 CALLDATALOAD PUSH8 0xFFFFFFFFFFFFFFFF DUP1 DUP3 GT ISZERO PUSH2 0x233E JUMPI PUSH1 0x0 DUP1 REVERT JUMPDEST DUP2 DUP6 ADD SWAP2 POP DUP6 PUSH1 0x1F DUP4 ADD SLT PUSH2 0x2352 JUMPI PUSH1 0x0 DUP1 REVERT JUMPDEST DUP2 CALLDATALOAD DUP2 DUP2 GT ISZERO PUSH2 0x2364 JUMPI PUSH2 0x2364 PUSH2 0x2295 JUMP JUMPDEST PUSH2 0x2372 DUP5 DUP3 PUSH1 0x5 SHL ADD PUSH2 0x22D4 JUMP JUMPDEST DUP2 DUP2 MSTORE DUP5 DUP2 ADD SWAP3 POP PUSH1 0xC0 SWAP2 DUP3 MUL DUP5 ADD DUP6 ADD SWAP2 DUP9 DUP4 GT ISZERO PUSH2 0x2391 JUMPI PUSH1 0x0 DUP1 REVERT JUMPDEST SWAP4 DUP6 ADD SWAP4 JUMPDEST DUP3 DUP6 LT ISZERO PUSH2 0x242D JUMPI DUP1 DUP6 DUP11 SUB SLT ISZERO PUSH2 0x23AE JUMPI PUSH1 0x0 DUP1 DUP2 REVERT JUMPDEST PUSH2 0x23B6 PUSH2 0x22AB JUMP JUMPDEST DUP6 CALLDATALOAD PUSH2 0x23C1 DUP2 PUSH2 0x2305 JUMP JUMPDEST DUP2 MSTORE DUP6 DUP8 ADD CALLDATALOAD PUSH2 0x23D0 DUP2 PUSH2 0x2305 JUMP JUMPDEST DUP2 DUP9 ADD MSTORE PUSH1 0x40 DUP7 DUP2 ADD CALLDATALOAD PUSH2 0x23E3 DUP2 PUSH2 0x2305 JUMP JUMPDEST SWAP1 DUP3 ADD MSTORE PUSH1 0x60 DUP7 DUP2 ADD CALLDATALOAD PUSH2 0x23F6 DUP2 PUSH2 0x2305 JUMP JUMPDEST SWAP1 DUP3 ADD MSTORE PUSH1 0x80 DUP7 DUP2 ADD CALLDATALOAD PUSH2 0x2409 DUP2 PUSH2 0x2305 JUMP JUMPDEST SWAP1 DUP3 ADD MSTORE PUSH1 0xA0 PUSH2 0x241A DUP8 DUP3 ADD PUSH2 0x21CC JUMP JUMPDEST SWAP1 DUP3 ADD MSTORE DUP5 MSTORE SWAP4 DUP5 ADD SWAP4 SWAP3 DUP6 ADD SWAP3 PUSH2 0x2396 JUMP JUMPDEST POP SWAP8 SWAP7 POP POP POP POP POP POP POP JUMP JUMPDEST PUSH1 0x0 DUP1 PUSH1 0x40 DUP4 DUP6 SUB SLT ISZERO PUSH2 0x244C JUMPI PUSH1 0x0 DUP1 REVERT JUMPDEST POP POP DUP1 CALLDATALOAD SWAP3 PUSH1 0x20 SWAP1 SWAP2 ADD CALLDATALOAD SWAP2 POP JUMP JUMPDEST PUSH1 0x0 DUP1 PUSH1 0x0 DUP1 PUSH1 0x0 DUP1 PUSH1 0x0 PUSH1 0xE0 DUP9 DUP11 SUB SLT ISZERO PUSH2 0x2476 JUMPI PUSH1 0x0 DUP1 REVERT JUMPDEST PUSH2 0x247F DUP9 PUSH2 0x21CC JUMP JUMPDEST SWAP7 POP PUSH2 0x248D PUSH1 0x20 DUP10 ADD PUSH2 0x21CC JUMP JUMPDEST SWAP6 POP PUSH1 0x40 DUP9 ADD CALLDATALOAD SWAP5 POP PUSH1 0x60 DUP9 ADD CALLDATALOAD SWAP4 POP PUSH1 0x80 DUP9 ADD CALLDATALOAD PUSH1 0xFF DUP2 AND DUP2 EQ PUSH2 0x24B1 JUMPI PUSH1 0x0 DUP1 REVERT JUMPDEST SWAP7 SWAP10 SWAP6 SWAP9 POP SWAP4 SWAP7 SWAP3 SWAP6 SWAP5 PUSH1 0xA0 DUP5 ADD CALLDATALOAD SWAP5 POP PUSH1 0xC0 SWAP1 SWAP4 ADD CALLDATALOAD SWAP3 SWAP2 POP POP JUMP JUMPDEST PUSH1 0x0 DUP1 PUSH1 0x40 DUP4 DUP6 SUB SLT ISZERO PUSH2 0x24E1 JUMPI PUSH1 0x0 DUP1 REVERT JUMPDEST PUSH2 0x24EA DUP4 PUSH2 0x21CC JUMP JUMPDEST SWAP2 POP PUSH2 0x2271 PUSH1 0x20 DUP5 ADD PUSH2 0x21CC JUMP JUMPDEST PUSH1 0x0 DUP1 DUP4 PUSH1 0x1F DUP5 ADD SLT PUSH2 0x250A JUMPI PUSH1 0x0 DUP1 REVERT JUMPDEST POP DUP2 CALLDATALOAD PUSH8 0xFFFFFFFFFFFFFFFF DUP2 GT ISZERO PUSH2 0x2522 JUMPI PUSH1 0x0 DUP1 REVERT JUMPDEST PUSH1 0x20 DUP4 ADD SWAP2 POP DUP4 PUSH1 0x20 DUP3 DUP6 ADD ADD GT ISZERO PUSH2 0x253A JUMPI PUSH1 0x0 DUP1 REVERT JUMPDEST SWAP3 POP SWAP3 SWAP1 POP JUMP JUMPDEST PUSH1 0x0 DUP1 PUSH1 0x0 DUP1 PUSH1 0x40 DUP6 DUP8 SUB SLT ISZERO PUSH2 0x2557 JUMPI PUSH1 0x0 DUP1 REVERT JUMPDEST DUP5 CALLDATALOAD PUSH8 0xFFFFFFFFFFFFFFFF DUP1 DUP3 GT ISZERO PUSH2 0x256F JUMPI PUSH1 0x0 DUP1 REVERT JUMPDEST PUSH2 0x257B DUP9 DUP4 DUP10 ADD PUSH2 0x24F8 JUMP JUMPDEST SWAP1 SWAP7 POP SWAP5 POP PUSH1 0x20 DUP8 ADD CALLDATALOAD SWAP2 POP DUP1 DUP3 GT ISZERO PUSH2 0x2594 JUMPI PUSH1 0x0 DUP1 REVERT JUMPDEST POP PUSH2 0x25A1 DUP8 DUP3 DUP9 ADD PUSH2 0x24F8 JUMP JUMPDEST SWAP6 SWAP9 SWAP5 SWAP8 POP SWAP6 POP POP POP POP JUMP JUMPDEST PUSH4 0x4E487B71 PUSH1 0xE0 SHL PUSH1 0x0 MSTORE PUSH1 0x32 PUSH1 0x4 MSTORE PUSH1 0x24 PUSH1 0x0 REVERT JUMPDEST PUSH4 0x4E487B71 PUSH1 0xE0 SHL PUSH1 0x0 MSTORE PUSH1 0x11 PUSH1 0x4 MSTORE PUSH1 0x24 PUSH1 0x0 REVERT JUMPDEST PUSH1 0x0 PUSH1 0x0 NOT DUP3 EQ ISZERO PUSH2 0x25ED JUMPI PUSH2 0x25ED PUSH2 0x25C3 JUMP JUMPDEST POP PUSH1 0x1 ADD SWAP1 JUMP JUMPDEST PUSH1 0x1 DUP2 DUP2 SHR SWAP1 DUP3 AND DUP1 PUSH2 0x2608 JUMPI PUSH1 0x7F DUP3 AND SWAP2 POP JUMPDEST PUSH1 0x20 DUP3 LT DUP2 EQ ISZERO PUSH2 0x1BAC JUMPI PUSH4 0x4E487B71 PUSH1 0xE0 SHL PUSH1 0x0 MSTORE PUSH1 0x22 PUSH1 0x4 MSTORE PUSH1 0x24 PUSH1 0x0 REVERT JUMPDEST PUSH1 0x20 DUP1 DUP3 MSTORE PUSH1 0x9 SWAP1 DUP3 ADD MSTORE PUSH9 0x150E881C185D5CD959 PUSH1 0xBA SHL PUSH1 0x40 DUP3 ADD MSTORE PUSH1 0x60 ADD SWAP1 JUMP JUMPDEST PUSH1 0x20 DUP1 DUP3 MSTORE PUSH1 0x8 SWAP1 DUP3 ADD MSTORE PUSH8 0x2A1D1010B13AB937 PUSH1 0xC1 SHL PUSH1 0x40 DUP3 ADD MSTORE PUSH1 0x60 ADD SWAP1 JUMP JUMPDEST PUSH1 0x0 DUP3 DUP3 LT ISZERO PUSH2 0x2680 JUMPI PUSH2 0x2680 PUSH2 0x25C3 JUMP JUMPDEST POP SUB SWAP1 JUMP JUMPDEST PUSH1 0x0 DUP3 NOT DUP3 GT ISZERO PUSH2 0x2698 JUMPI PUSH2 0x2698 PUSH2 0x25C3 JUMP JUMPDEST POP ADD SWAP1 JUMP JUMPDEST PUSH1 0x20 DUP1 DUP3 MSTORE DUP3 MLOAD DUP3 DUP3 ADD DUP2 SWAP1 MSTORE PUSH1 0x0 SWAP2 SWAP1 PUSH1 0x40 SWAP1 DUP2 DUP6 ADD SWAP1 DUP7 DUP5 ADD DUP6 JUMPDEST DUP3 DUP2 LT ISZERO PUSH2 0x271B JUMPI DUP2 MLOAD DUP1 MLOAD ISZERO ISZERO DUP6 MSTORE DUP7 DUP2 ADD MLOAD ISZERO ISZERO DUP8 DUP7 ADD MSTORE DUP6 DUP2 ADD MLOAD ISZERO ISZERO DUP7 DUP7 ADD MSTORE PUSH1 0x60 DUP1 DUP3 ADD MLOAD ISZERO ISZERO SWAP1 DUP7 ADD MSTORE PUSH1 0x80 DUP1 DUP3 ADD MLOAD ISZERO ISZERO SWAP1 DUP7 ADD MSTORE PUSH1 0xA0 SWAP1 DUP2 ADD MLOAD PUSH1 0x1 PUSH1 0x1 PUSH1 0xA0 SHL SUB AND SWAP1 DUP6 ADD MSTORE PUSH1 0xC0 SWAP1 SWAP4 ADD SWAP3 SWAP1 DUP6 ADD SWAP1 PUSH1 0x1 ADD PUSH2 0x26BA JUMP JUMPDEST POP SWAP2 SWAP8 SWAP7 POP POP POP POP POP POP POP JUMP JUMPDEST PUSH1 0x0 DUP2 PUSH1 0x0 NOT DIV DUP4 GT DUP3 ISZERO ISZERO AND ISZERO PUSH2 0x2742 JUMPI PUSH2 0x2742 PUSH2 0x25C3 JUMP JUMPDEST POP MUL SWAP1 JUMP JUMPDEST PUSH1 0x0 DUP2 PUSH2 0x2756 JUMPI PUSH2 0x2756 PUSH2 0x25C3 JUMP JUMPDEST POP PUSH1 0x0 NOT ADD SWAP1 JUMP JUMPDEST PUSH32 0x416363657373436F6E74726F6C3A206163636F756E7420000000000000000000 DUP2 MSTORE PUSH1 0x0 DUP4 MLOAD PUSH2 0x2796 DUP2 PUSH1 0x17 DUP6 ADD PUSH1 0x20 DUP9 ADD PUSH2 0x216D JUMP JUMPDEST PUSH17 0x1034B99036B4B9B9B4B733903937B6329 PUSH1 0x7D SHL PUSH1 0x17 SWAP2 DUP5 ADD SWAP2 DUP3 ADD MSTORE DUP4 MLOAD PUSH2 0x27C7 DUP2 PUSH1 0x28 DUP5 ADD PUSH1 0x20 DUP9 ADD PUSH2 0x216D JUMP JUMPDEST ADD PUSH1 0x28 ADD SWAP5 SWAP4 POP POP POP POP JUMP JUMPDEST PUSH1 0x0 PUSH1 0x40 DUP3 DUP5 SUB SLT ISZERO PUSH2 0x27E5 JUMPI PUSH1 0x0 DUP1 REVERT JUMPDEST PUSH1 0x40 MLOAD PUSH1 0x40 DUP2 ADD DUP2 DUP2 LT PUSH8 0xFFFFFFFFFFFFFFFF DUP3 GT OR ISZERO PUSH2 0x2808 JUMPI PUSH2 0x2808 PUSH2 0x2295 JUMP JUMPDEST PUSH1 0x40 MSTORE DUP3 MLOAD PUSH2 0x2816 DUP2 PUSH2 0x2305 JUMP JUMPDEST DUP2 MSTORE PUSH1 0x20 DUP4 ADD MLOAD PUSH2 0x2826 DUP2 PUSH2 0x2305 JUMP JUMPDEST PUSH1 0x20 DUP3 ADD MSTORE SWAP4 SWAP3 POP POP POP JUMP JUMPDEST PUSH4 0x4E487B71 PUSH1 0xE0 SHL PUSH1 0x0 MSTORE PUSH1 0x31 PUSH1 0x4 MSTORE PUSH1 0x24 PUSH1 0x0 REVERT INVALID 0xB5 0xB5 0xA8 PUSH13 0xC252B1B75A439C6FF372933CEB MOD SWAP1 XOR DUP10 0x24 0xE6 CHAINID GT POP 0xAD 0xEB STOP 0xAB DUP1 0xD8 MUL 0xA8 CHAINID 0x4C RETURNDATACOPY 0x21 0x2C DUP16 LT PUSH5 0x432774C6CC RETURNDATACOPY PUSH23 0xF14BD7CCDAFD9A1D1CF9B43B51E524233299FC8224C0CB JUMPDEST 0x2B DUP12 PUSH6 0x1B93354CF11D MSTORE GASLIMIT CALL CALLDATACOPY 0x4B 0xB3 PUSH24 0x73608FFA1913C1AEAEF46186EB59F884E36929B6D682A6AE CALLDATALOAD 0xE1 0xE4 RETURNDATASIZE DUP16 SDIV CREATE PC 0xDC 0xEF 0xB9 0x2B PUSH1 0x14 PUSH2 0xA264 PUSH10 0x70667358221220C16ACA 0xC PUSH23 0x5987222CE6F2ABC4D1135BD020E74B330E5397AF57DA43 DUP4 0xBF 0x4D BASEFEE PUSH5 0x736F6C6343 STOP ADDMOD EXP STOP CALLER 0xB5 0xB5 0xA8 PUSH13 0xC252B1B75A439C6FF372933CEB MOD SWAP1 XOR DUP10 0x24 0xE6 CHAINID GT POP 0xAD 0xEB STOP 0xAB DUP1 0xD8 MUL 0xA8 CHAINID 0x4C RETURNDATACOPY 0x21 0x2C DUP16 LT PUSH5 0x432774C6CC RETURNDATACOPY PUSH23 0xF14BD7CCDAFD9A1D1CF9B43B51E524233299FC8224C0CB JUMPDEST 0x2B DUP12 PUSH6 0x1B93354CF11D MSTORE GASLIMIT CALL CALLDATACOPY 0x4B 0xB3 PUSH24 0x73608FFA1913C1AEAEF46186EB59F884E36929B6D682A6AE CALLDATALOAD 0xE1 0xE4 RETURNDATASIZE DUP16 SDIV CREATE PC 0xDC 0xEF 0xB9 0x2B PUSH1 0x14 PUSH2 0x0 "
		},
		"gasEstimates": {
			"creation": {
				"codeDepositCost": "2098800",
				"executionCost": "infinite",
				"totalCost": "infinite"
			},
			"external": {
				"DOMAIN_SEPARATOR()": "infinite",
				"ROLE_ADMIN()": "261",
				"ROLE_BURNER()": "infinite",
				"ROLE_MINTER()": "infinite",
				"ROLE_MODERATOR()": "infinite",
				"ROLE_TRANSFERER()": "infinite",
				"allowance(address,address)": "infinite",
				"approve(address,uint256)": "24632",
				"balanceOf(address)": "2605",
				"burnByBridge(address,uint256)": "infinite",
				"burnHumanAddress(address,uint256)": "infinite",
				"decimals()": "311",
				"decreaseAllowance(address,uint256)": "26981",
				"getChainId()": "236",
				"getRoleAdmin(bytes32)": "2537",
				"getRoleMember(bytes32,uint256)": "infinite",
				"getRoleMemberCount(bytes32)": "infinite",
				"getUtilsContractAtPos(uint256)": "4732",
				"getUtilsContractsCount()": "2426",
				"grantRole(bytes32,address)": "infinite",
				"grantRolesBulk((bytes32,address)[])": "infinite",
				"hasRole(bytes32,address)": "2740",
				"increaseAllowance(address,uint256)": "27035",
				"initializeOwner(address)": "infinite",
				"isPaused()": "2388",
				"mintByBridge(address,uint256)": "infinite",
				"mintHumanAddress(address,uint256)": "infinite",
				"moderatorTransferFromWhilePaused(address,address,uint256)": "infinite",
				"name()": "infinite",
				"nonces(address)": "2683",
				"pauseContract()": "infinite",
				"permit(address,address,uint256,uint256,uint8,bytes32,bytes32)": "infinite",
				"renounceRole(bytes32,address)": "infinite",
				"resumeContract()": "infinite",
				"revokeRole(bytes32,address)": "infinite",
				"supportsInterface(bytes4)": "infinite",
				"symbol()": "infinite",
				"totalSupply()": "2382",
				"transfer(address,uint256)": "infinite",
				"transferCustom(address,address,uint256)": "infinite",
				"transferFrom(address,address,uint256)": "infinite",
				"updateNameAndSymbol(string,string)": "infinite",
				"updateUtilsContracts((bool,bool,bool,bool,bool,address)[])": "infinite"
			}
		},
		"methodIdentifiers": {
			"DOMAIN_SEPARATOR()": "3644e515",
			"ROLE_ADMIN()": "d391014b",
			"ROLE_BURNER()": "54ff02d8",
			"ROLE_MINTER()": "92afc33a",
			"ROLE_MODERATOR()": "0288f0fb",
			"ROLE_TRANSFERER()": "8493712a",
			"allowance(address,address)": "dd62ed3e",
			"approve(address,uint256)": "095ea7b3",
			"balanceOf(address)": "70a08231",
			"burnByBridge(address,uint256)": "66830b21",
			"burnHumanAddress(address,uint256)": "18a8ad87",
			"decimals()": "313ce567",
			"decreaseAllowance(address,uint256)": "a457c2d7",
			"getChainId()": "3408e470",
			"getRoleAdmin(bytes32)": "248a9ca3",
			"getRoleMember(bytes32,uint256)": "9010d07c",
			"getRoleMemberCount(bytes32)": "ca15c873",
			"getUtilsContractAtPos(uint256)": "06fb1a07",
			"getUtilsContractsCount()": "1bf73b72",
			"grantRole(bytes32,address)": "2f2ff15d",
			"grantRolesBulk((bytes32,address)[])": "03ed957f",
			"hasRole(bytes32,address)": "91d14854",
			"increaseAllowance(address,uint256)": "39509351",
			"initializeOwner(address)": "8c5f36bb",
			"isPaused()": "b187bd26",
			"mintByBridge(address,uint256)": "1f2eba24",
			"mintHumanAddress(address,uint256)": "0bb9ff5d",
			"moderatorTransferFromWhilePaused(address,address,uint256)": "c238651b",
			"name()": "06fdde03",
			"nonces(address)": "7ecebe00",
			"pauseContract()": "439766ce",
			"permit(address,address,uint256,uint256,uint8,bytes32,bytes32)": "d505accf",
			"renounceRole(bytes32,address)": "36568abe",
			"resumeContract()": "c4bc5da5",
			"revokeRole(bytes32,address)": "d547741f",
			"supportsInterface(bytes4)": "01ffc9a7",
			"symbol()": "95d89b41",
			"totalSupply()": "18160ddd",
			"transfer(address,uint256)": "a9059cbb",
			"transferCustom(address,address,uint256)": "9cff2eba",
			"transferFrom(address,address,uint256)": "23b872dd",
			"updateNameAndSymbol(string,string)": "eaf9d194",
			"updateUtilsContracts((bool,bool,bool,bool,bool,address)[])": "789210b3"
		}
	},
	"abi": [
		{
			"inputs": [],
			"stateMutability": "nonpayable",
			"type": "constructor"
		},
		{
			"anonymous": false,
			"inputs": [
				{
					"indexed": true,
					"internalType": "address",
					"name": "owner",
					"type": "address"
				},
				{
					"indexed": true,
					"internalType": "address",
					"name": "spender",
					"type": "address"
				},
				{
					"indexed": false,
					"internalType": "uint256",
					"name": "value",
					"type": "uint256"
				}
			],
			"name": "Approval",
			"type": "event"
		},
		{
			"anonymous": false,
			"inputs": [
				{
					"indexed": false,
					"internalType": "address",
					"name": "sender",
					"type": "address"
				},
				{
					"indexed": false,
					"internalType": "uint256",
					"name": "amount",
					"type": "uint256"
				}
			],
			"name": "BurnHumanAddress",
			"type": "event"
		},
		{
			"anonymous": false,
			"inputs": [
				{
					"indexed": false,
					"internalType": "address",
					"name": "sender",
					"type": "address"
				},
				{
					"indexed": false,
					"internalType": "uint256",
					"name": "amount",
					"type": "uint256"
				}
			],
			"name": "BurnedByBridge",
			"type": "event"
		},
		{
			"anonymous": false,
			"inputs": [
				{
					"indexed": false,
					"internalType": "address",
					"name": "recipient",
					"type": "address"
				},
				{
					"indexed": false,
					"internalType": "uint256",
					"name": "amount",
					"type": "uint256"
				}
			],
			"name": "MintHumanAddress",
			"type": "event"
		},
		{
			"anonymous": false,
			"inputs": [
				{
					"indexed": false,
					"internalType": "address",
					"name": "recipient",
					"type": "address"
				},
				{
					"indexed": false,
					"internalType": "uint256",
					"name": "amount",
					"type": "uint256"
				}
			],
			"name": "MintedByBridge",
			"type": "event"
		},
		{
			"anonymous": false,
			"inputs": [
				{
					"indexed": true,
					"internalType": "bytes32",
					"name": "role",
					"type": "bytes32"
				},
				{
					"indexed": true,
					"internalType": "bytes32",
					"name": "previousAdminRole",
					"type": "bytes32"
				},
				{
					"indexed": true,
					"internalType": "bytes32",
					"name": "newAdminRole",
					"type": "bytes32"
				}
			],
			"name": "RoleAdminChanged",
			"type": "event"
		},
		{
			"anonymous": false,
			"inputs": [
				{
					"indexed": true,
					"internalType": "bytes32",
					"name": "role",
					"type": "bytes32"
				},
				{
					"indexed": true,
					"internalType": "address",
					"name": "account",
					"type": "address"
				},
				{
					"indexed": true,
					"internalType": "address",
					"name": "sender",
					"type": "address"
				}
			],
			"name": "RoleGranted",
			"type": "event"
		},
		{
			"anonymous": false,
			"inputs": [
				{
					"indexed": true,
					"internalType": "bytes32",
					"name": "role",
					"type": "bytes32"
				},
				{
					"indexed": true,
					"internalType": "address",
					"name": "account",
					"type": "address"
				},
				{
					"indexed": true,
					"internalType": "address",
					"name": "sender",
					"type": "address"
				}
			],
			"name": "RoleRevoked",
			"type": "event"
		},
		{
			"anonymous": false,
			"inputs": [
				{
					"indexed": true,
					"internalType": "address",
					"name": "from",
					"type": "address"
				},
				{
					"indexed": true,
					"internalType": "address",
					"name": "to",
					"type": "address"
				},
				{
					"indexed": false,
					"internalType": "uint256",
					"name": "value",
					"type": "uint256"
				}
			],
			"name": "Transfer",
			"type": "event"
		},
		{
			"anonymous": false,
			"inputs": [
				{
					"indexed": false,
					"internalType": "address",
					"name": "sender",
					"type": "address"
				},
				{
					"indexed": false,
					"internalType": "address",
					"name": "recipient",
					"type": "address"
				},
				{
					"indexed": false,
					"internalType": "uint256",
					"name": "amount",
					"type": "uint256"
				}
			],
			"name": "TransferCustom",
			"type": "event"
		},
		{
			"anonymous": false,
			"inputs": [
				{
					"components": [
						{
							"internalType": "bool",
							"name": "isMinter",
							"type": "bool"
						},
						{
							"internalType": "bool",
							"name": "isBurner",
							"type": "bool"
						},
						{
							"internalType": "bool",
							"name": "isTransferer",
							"type": "bool"
						},
						{
							"internalType": "bool",
							"name": "isModerator",
							"type": "bool"
						},
						{
							"internalType": "bool",
							"name": "isTaxer",
							"type": "bool"
						},
						{
							"internalType": "address",
							"name": "addr",
							"type": "address"
						}
					],
					"indexed": false,
					"internalType": "struct AccessSettings[]",
					"name": "accessSettings",
					"type": "tuple[]"
				}
			],
			"name": "UpdatedUtilsContracts",
			"type": "event"
		},
		{
			"inputs": [],
			"name": "DOMAIN_SEPARATOR",
			"outputs": [
				{
					"internalType": "bytes32",
					"name": "",
					"type": "bytes32"
				}
			],
			"stateMutability": "view",
			"type": "function"
		},
		{
			"inputs": [],
			"name": "ROLE_ADMIN",
			"outputs": [
				{
					"internalType": "bytes32",
					"name": "",
					"type": "bytes32"
				}
			],
			"stateMutability": "view",
			"type": "function"
		},
		{
			"inputs": [],
			"name": "ROLE_BURNER",
			"outputs": [
				{
					"internalType": "bytes32",
					"name": "",
					"type": "bytes32"
				}
			],
			"stateMutability": "view",
			"type": "function"
		},
		{
			"inputs": [],
			"name": "ROLE_MINTER",
			"outputs": [
				{
					"internalType": "bytes32",
					"name": "",
					"type": "bytes32"
				}
			],
			"stateMutability": "view",
			"type": "function"
		},
		{
			"inputs": [],
			"name": "ROLE_MODERATOR",
			"outputs": [
				{
					"internalType": "bytes32",
					"name": "",
					"type": "bytes32"
				}
			],
			"stateMutability": "view",
			"type": "function"
		},
		{
			"inputs": [],
			"name": "ROLE_TRANSFERER",
			"outputs": [
				{
					"internalType": "bytes32",
					"name": "",
					"type": "bytes32"
				}
			],
			"stateMutability": "view",
			"type": "function"
		},
		{
			"inputs": [
				{
					"internalType": "address",
					"name": "owner",
					"type": "address"
				},
				{
					"internalType": "address",
					"name": "spender",
					"type": "address"
				}
			],
			"name": "allowance",
			"outputs": [
				{
					"internalType": "uint256",
					"name": "",
					"type": "uint256"
				}
			],
			"stateMutability": "view",
			"type": "function"
		},
		{
			"inputs": [
				{
					"internalType": "address",
					"name": "spender",
					"type": "address"
				},
				{
					"internalType": "uint256",
					"name": "amount",
					"type": "uint256"
				}
			],
			"name": "approve",
			"outputs": [
				{
					"internalType": "bool",
					"name": "",
					"type": "bool"
				}
			],
			"stateMutability": "nonpayable",
			"type": "function"
		},
		{
			"inputs": [
				{
					"internalType": "address",
					"name": "account",
					"type": "address"
				}
			],
			"name": "balanceOf",
			"outputs": [
				{
					"internalType": "uint256",
					"name": "",
					"type": "uint256"
				}
			],
			"stateMutability": "view",
			"type": "function"
		},
		{
			"inputs": [
				{
					"internalType": "address",
					"name": "from",
					"type": "address"
				},
				{
					"internalType": "uint256",
					"name": "desiredAmountToBurn",
					"type": "uint256"
				}
			],
			"name": "burnByBridge",
			"outputs": [],
			"stateMutability": "nonpayable",
			"type": "function"
		},
		{
			"inputs": [
				{
					"internalType": "address",
					"name": "from",
					"type": "address"
				},
				{
					"internalType": "uint256",
					"name": "desiredAmountToBurn",
					"type": "uint256"
				}
			],
			"name": "burnHumanAddress",
			"outputs": [],
			"stateMutability": "nonpayable",
			"type": "function"
		},
		{
			"inputs": [],
			"name": "decimals",
			"outputs": [
				{
					"internalType": "uint8",
					"name": "",
					"type": "uint8"
				}
			],
			"stateMutability": "view",
			"type": "function"
		},
		{
			"inputs": [
				{
					"internalType": "address",
					"name": "spender",
					"type": "address"
				},
				{
					"internalType": "uint256",
					"name": "subtractedValue",
					"type": "uint256"
				}
			],
			"name": "decreaseAllowance",
			"outputs": [
				{
					"internalType": "bool",
					"name": "",
					"type": "bool"
				}
			],
			"stateMutability": "nonpayable",
			"type": "function"
		},
		{
			"inputs": [],
			"name": "getChainId",
			"outputs": [
				{
					"internalType": "uint256",
					"name": "",
					"type": "uint256"
				}
			],
			"stateMutability": "view",
			"type": "function"
		},
		{
			"inputs": [
				{
					"internalType": "bytes32",
					"name": "role",
					"type": "bytes32"
				}
			],
			"name": "getRoleAdmin",
			"outputs": [
				{
					"internalType": "bytes32",
					"name": "",
					"type": "bytes32"
				}
			],
			"stateMutability": "view",
			"type": "function"
		},
		{
			"inputs": [
				{
					"internalType": "bytes32",
					"name": "role",
					"type": "bytes32"
				},
				{
					"internalType": "uint256",
					"name": "index",
					"type": "uint256"
				}
			],
			"name": "getRoleMember",
			"outputs": [
				{
					"internalType": "address",
					"name": "",
					"type": "address"
				}
			],
			"stateMutability": "view",
			"type": "function"
		},
		{
			"inputs": [
				{
					"internalType": "bytes32",
					"name": "role",
					"type": "bytes32"
				}
			],
			"name": "getRoleMemberCount",
			"outputs": [
				{
					"internalType": "uint256",
					"name": "",
					"type": "uint256"
				}
			],
			"stateMutability": "view",
			"type": "function"
		},
		{
			"inputs": [
				{
					"internalType": "uint256",
					"name": "pos",
					"type": "uint256"
				}
			],
			"name": "getUtilsContractAtPos",
			"outputs": [
				{
					"internalType": "address",
					"name": "",
					"type": "address"
				}
			],
			"stateMutability": "view",
			"type": "function"
		},
		{
			"inputs": [],
			"name": "getUtilsContractsCount",
			"outputs": [
				{
					"internalType": "uint256",
					"name": "",
					"type": "uint256"
				}
			],
			"stateMutability": "view",
			"type": "function"
		},
		{
			"inputs": [
				{
					"internalType": "bytes32",
					"name": "role",
					"type": "bytes32"
				},
				{
					"internalType": "address",
					"name": "account",
					"type": "address"
				}
			],
			"name": "grantRole",
			"outputs": [],
			"stateMutability": "nonpayable",
			"type": "function"
		},
		{
			"inputs": [
				{
					"components": [
						{
							"internalType": "bytes32",
							"name": "role",
							"type": "bytes32"
						},
						{
							"internalType": "address",
							"name": "addr",
							"type": "address"
						}
					],
					"internalType": "struct RoleAccess[]",
					"name": "roles",
					"type": "tuple[]"
				}
			],
			"name": "grantRolesBulk",
			"outputs": [],
			"stateMutability": "nonpayable",
			"type": "function"
		},
		{
			"inputs": [
				{
					"internalType": "bytes32",
					"name": "role",
					"type": "bytes32"
				},
				{
					"internalType": "address",
					"name": "account",
					"type": "address"
				}
			],
			"name": "hasRole",
			"outputs": [
				{
					"internalType": "bool",
					"name": "",
					"type": "bool"
				}
			],
			"stateMutability": "view",
			"type": "function"
		},
		{
			"inputs": [
				{
					"internalType": "address",
					"name": "spender",
					"type": "address"
				},
				{
					"internalType": "uint256",
					"name": "addedValue",
					"type": "uint256"
				}
			],
			"name": "increaseAllowance",
			"outputs": [
				{
					"internalType": "bool",
					"name": "",
					"type": "bool"
				}
			],
			"stateMutability": "nonpayable",
			"type": "function"
		},
		{
			"inputs": [
				{
					"internalType": "address",
					"name": "owner",
					"type": "address"
				}
			],
			"name": "initializeOwner",
			"outputs": [],
			"stateMutability": "nonpayable",
			"type": "function"
		},
		{
			"inputs": [],
			"name": "isPaused",
			"outputs": [
				{
					"internalType": "bool",
					"name": "",
					"type": "bool"
				}
			],
			"stateMutability": "view",
			"type": "function"
		},
		{
			"inputs": [
				{
					"internalType": "address",
					"name": "to",
					"type": "address"
				},
				{
					"internalType": "uint256",
					"name": "desiredAmountToMint",
					"type": "uint256"
				}
			],
			"name": "mintByBridge",
			"outputs": [],
			"stateMutability": "nonpayable",
			"type": "function"
		},
		{
			"inputs": [
				{
					"internalType": "address",
					"name": "to",
					"type": "address"
				},
				{
					"internalType": "uint256",
					"name": "desiredAmountToMint",
					"type": "uint256"
				}
			],
			"name": "mintHumanAddress",
			"outputs": [],
			"stateMutability": "nonpayable",
			"type": "function"
		},
		{
			"inputs": [
				{
					"internalType": "address",
					"name": "sender",
					"type": "address"
				},
				{
					"internalType": "address",
					"name": "recipient",
					"type": "address"
				},
				{
					"internalType": "uint256",
					"name": "amount",
					"type": "uint256"
				}
			],
			"name": "moderatorTransferFromWhilePaused",
			"outputs": [
				{
					"internalType": "bool",
					"name": "",
					"type": "bool"
				}
			],
			"stateMutability": "nonpayable",
			"type": "function"
		},
		{
			"inputs": [],
			"name": "name",
			"outputs": [
				{
					"internalType": "string",
					"name": "",
					"type": "string"
				}
			],
			"stateMutability": "view",
			"type": "function"
		},
		{
			"inputs": [
				{
					"internalType": "address",
					"name": "owner",
					"type": "address"
				}
			],
			"name": "nonces",
			"outputs": [
				{
					"internalType": "uint256",
					"name": "",
					"type": "uint256"
				}
			],
			"stateMutability": "view",
			"type": "function"
		},
		{
			"inputs": [],
			"name": "pauseContract",
			"outputs": [],
			"stateMutability": "nonpayable",
			"type": "function"
		},
		{
			"inputs": [
				{
					"internalType": "address",
					"name": "owner",
					"type": "address"
				},
				{
					"internalType": "address",
					"name": "spender",
					"type": "address"
				},
				{
					"internalType": "uint256",
					"name": "value",
					"type": "uint256"
				},
				{
					"internalType": "uint256",
					"name": "deadline",
					"type": "uint256"
				},
				{
					"internalType": "uint8",
					"name": "v",
					"type": "uint8"
				},
				{
					"internalType": "bytes32",
					"name": "r",
					"type": "bytes32"
				},
				{
					"internalType": "bytes32",
					"name": "s",
					"type": "bytes32"
				}
			],
			"name": "permit",
			"outputs": [],
			"stateMutability": "nonpayable",
			"type": "function"
		},
		{
			"inputs": [
				{
					"internalType": "bytes32",
					"name": "role",
					"type": "bytes32"
				},
				{
					"internalType": "address",
					"name": "account",
					"type": "address"
				}
			],
			"name": "renounceRole",
			"outputs": [],
			"stateMutability": "nonpayable",
			"type": "function"
		},
		{
			"inputs": [],
			"name": "resumeContract",
			"outputs": [],
			"stateMutability": "nonpayable",
			"type": "function"
		},
		{
			"inputs": [
				{
					"internalType": "bytes32",
					"name": "role",
					"type": "bytes32"
				},
				{
					"internalType": "address",
					"name": "account",
					"type": "address"
				}
			],
			"name": "revokeRole",
			"outputs": [],
			"stateMutability": "nonpayable",
			"type": "function"
		},
		{
			"inputs": [
				{
					"internalType": "bytes4",
					"name": "interfaceId",
					"type": "bytes4"
				}
			],
			"name": "supportsInterface",
			"outputs": [
				{
					"internalType": "bool",
					"name": "",
					"type": "bool"
				}
			],
			"stateMutability": "view",
			"type": "function"
		},
		{
			"inputs": [],
			"name": "symbol",
			"outputs": [
				{
					"internalType": "string",
					"name": "",
					"type": "string"
				}
			],
			"stateMutability": "view",
			"type": "function"
		},
		{
			"inputs": [],
			"name": "totalSupply",
			"outputs": [
				{
					"internalType": "uint256",
					"name": "",
					"type": "uint256"
				}
			],
			"stateMutability": "view",
			"type": "function"
		},
		{
			"inputs": [
				{
					"internalType": "address",
					"name": "recipient",
					"type": "address"
				},
				{
					"internalType": "uint256",
					"name": "amount",
					"type": "uint256"
				}
			],
			"name": "transfer",
			"outputs": [
				{
					"internalType": "bool",
					"name": "",
					"type": "bool"
				}
			],
			"stateMutability": "nonpayable",
			"type": "function"
		},
		{
			"inputs": [
				{
					"internalType": "address",
					"name": "sender",
					"type": "address"
				},
				{
					"internalType": "address",
					"name": "recipient",
					"type": "address"
				},
				{
					"internalType": "uint256",
					"name": "amount",
					"type": "uint256"
				}
			],
			"name": "transferCustom",
			"outputs": [],
			"stateMutability": "nonpayable",
			"type": "function"
		},
		{
			"inputs": [
				{
					"internalType": "address",
					"name": "sender",
					"type": "address"
				},
				{
					"internalType": "address",
					"name": "recipient",
					"type": "address"
				},
				{
					"internalType": "uint256",
					"name": "amount",
					"type": "uint256"
				}
			],
			"name": "transferFrom",
			"outputs": [
				{
					"internalType": "bool",
					"name": "",
					"type": "bool"
				}
			],
			"stateMutability": "nonpayable",
			"type": "function"
		},
		{
			"inputs": [
				{
					"internalType": "string",
					"name": "__name",
					"type": "string"
				},
				{
					"internalType": "string",
					"name": "__symbol",
					"type": "string"
				}
			],
			"name": "updateNameAndSymbol",
			"outputs": [],
			"stateMutability": "nonpayable",
			"type": "function"
		},
		{
			"inputs": [
				{
					"components": [
						{
							"internalType": "bool",
							"name": "isMinter",
							"type": "bool"
						},
						{
							"internalType": "bool",
							"name": "isBurner",
							"type": "bool"
						},
						{
							"internalType": "bool",
							"name": "isTransferer",
							"type": "bool"
						},
						{
							"internalType": "bool",
							"name": "isModerator",
							"type": "bool"
						},
						{
							"internalType": "bool",
							"name": "isTaxer",
							"type": "bool"
						},
						{
							"internalType": "address",
							"name": "addr",
							"type": "address"
						}
					],
					"internalType": "struct AccessSettings[]",
					"name": "accessSettings",
					"type": "tuple[]"
				}
			],
			"name": "updateUtilsContracts",
			"outputs": [],
			"stateMutability": "nonpayable",
			"type": "function"
		}
	]
}