{
	"data": {
		"bytecode": {
			"linkReferences": {},
			"object": "60c0604052600d60808190526c4365726279205377617020563160981b60a090815262000030916006919062000469565b5060408051808201909152600d8082526c43455242595f535741505f563160981b6020909201918252620000679160079162000469565b5060405180606001604052806023815260200162005de5602391398051620000989160089160209091019062000469565b50600c80546001600160a01b0319908116732c4fe51d1ad5b88cd2cc2f45ad1c0c857f06225e17909155600d8054821673f3b07f8167b665ba3e2dd29c661dee3a1da2380a179055600e80548216732a5e269bf364e347942c464a999d8c8ac2e6ce941790556010805490911661dead1790553480156200011857600080fd5b5060086040516020016200012d919062000604565b60408051601f198184030181529190526200014881620002f1565b50620001566000336200030a565b601080546001600160a01b0319163317905562000172620004f8565b6040805160a081018252600080825260208201848152928201819052606082018190526080820181905260098054600181018255915281517f6e1540171b6c0c960b71a7020d9f60077f6af931a8bbf590da0223dacf75c7af600490920291820180546001600160a01b0319166001600160a01b03909216919091178155925191929162000225917f6e1540171b6c0c960b71a7020d9f60077f6af931a8bbf590da0223dacf75c7b00190600862000517565b50604082015160028201805460608501516001600160701b03908116600160701b026001600160e01b03199092169381169390931717905560809092015160039091018054919092166001600160701b031991909116179055613039461415620002a357600f80546001600160a01b03191661dead179055620002c4565b46620181cd1415620002c457600f80546001600160a01b03191661dead1790555b50600f80546001600160a01b0319167314769f96e57b80c66837701de0b43686fb4632de179055620006c2565b80516200030690600290602084019062000469565b5050565b6200030682826200032782826200035360201b62002d311760201c565b60008281526005602090815260409091206200034e91839062002db7620003f7821b17901c565b505050565b60008281526004602090815260408083206001600160a01b038516845290915290205460ff16620003065760008281526004602090815260408083206001600160a01b03851684529091529020805460ff19166001179055620003b33390565b6001600160a01b0316816001600160a01b0316837f2f8788117e7eff1d82e926ec794901d17c78024a50270940304540a733656f0d60405160405180910390a45050565b60006200040e836001600160a01b03841662000417565b90505b92915050565b6000818152600183016020526040812054620004605750815460018181018455600084815260208082209093018490558454848252828601909352604090209190915562000411565b50600062000411565b8280546200047790620005c7565b90600052602060002090601f0160209004810192826200049b5760008555620004e6565b82601f10620004b657805160ff1916838001178555620004e6565b82800160010185558215620004e6579182015b82811115620004e6578251825591602001919060010190620004c9565b50620004f4929150620005b0565b5090565b6040518061010001604052806008906020820280368337509192915050565b600183019183908215620004e65791602002820160005b838211156200057457835183826101000a81548163ffffffff021916908363ffffffff16021790555092602001926004016020816003010492830192600103026200052e565b8015620005a65782816101000a81549063ffffffff021916905560040160208160030104928301926001030262000574565b5050620004f49291505b5b80821115620004f45760008155600101620005b1565b600181811c90821680620005dc57607f821691505b60208210811415620005fe57634e487b7160e01b600052602260045260246000fd5b50919050565b600080835481600182811c9150808316806200062157607f831692505b60208084108214156200064257634e487b7160e01b86526022600452602486fd5b8180156200065957600181146200066b576200069a565b60ff198616895284890196506200069a565b60008a81526020902060005b86811015620006925781548b82015290850190830162000677565b505084890196505b505050505050620006ba81683db4b23e973539b7b760b91b815260090190565b949350505050565b61571380620006d26000396000f3fe6080604052600436106102755760003560e01c806391d148541161014f578063c790985a116100c1578063df465a1a1161007a578063df465a1a146107cf578063e985e9c5146107e4578063eca010931461082d578063f242432a14610899578063f3e6ea8a146108b9578063f6524724146108cc57600080fd5b8063c790985a1461071a578063ca15c8731461073a578063d01350bd1461075a578063d391014b1461077a578063d547741f1461078f578063d5d60737146107af57600080fd5b8063a7fd40bf11610113578063a7fd40bf14610635578063b390c0ab14610655578063b771e42514610675578063bbadc03b146106ab578063bd85b039146106d8578063c09c923b1461070557600080fd5b806391d148541461059857806395d89b41146105b85780639bc731fc146105cd578063a22cb465146105ed578063a60c6e551461060d57600080fd5b80632f2ff15d116101e85780634e1273f4116101ac5780634e1273f4146104c95780634f558e79146104f65780637b4b233c146105255780637de25ae7146105455780639010d07c146105585780639162ebf01461057857600080fd5b80632f2ff15d14610435578063313ce5671461045557806336568abe146104695780633935ac111461048957806348b08d62146104a957600080fd5b806306fdde031161023a57806306fdde031461037b578063094811f71461039d5780630e89341c146103b057806318160ddd146103d0578063248a9ca3146103e55780632eb2c2d61461041557600080fd5b8062fdd58e1461028157806301ffc9a7146102b457806303ed957f146102e457806306edd7631461030657806306fb1a071461034357600080fd5b3661027c57005b600080fd5b34801561028d57600080fd5b506102a161029c3660046148a1565b6108df565b6040519081526020015b60405180910390f35b3480156102c057600080fd5b506102d46102cf3660046148e3565b610979565b60405190151581526020016102ab565b3480156102f057600080fd5b506103046102ff366004614900565b6109c9565b005b34801561031257600080fd5b50610304610321366004614975565b601080546001600160a01b0319166001600160a01b0392909216919091179055565b34801561034f57600080fd5b5061036361035e366004614992565b610a46565b6040516001600160a01b0390911681526020016102ab565b34801561038757600080fd5b50610390610abd565b6040516102ab9190614a03565b6103046103ab366004614a16565b610b4f565b3480156103bc57600080fd5b506103906103cb366004614992565b61104a565b3480156103dc57600080fd5b506102a1611076565b3480156103f157600080fd5b506102a1610400366004614992565b60009081526004602052604090206001015490565b34801561042157600080fd5b50610304610430366004614bb5565b6110c2565b34801561044157600080fd5b50610304610450366004614c63565b611159565b34801561046157600080fd5b5060126102a1565b34801561047557600080fd5b50610304610484366004614c63565b611184565b34801561049557600080fd5b506103046104a4366004614c93565b611202565b3480156104b557600080fd5b506102a16104c4366004614cf7565b611235565b3480156104d557600080fd5b506104e96104e4366004614d38565b611307565b6040516102ab9190614e36565b34801561050257600080fd5b506102d4610511366004614992565b600090815260036020526040902054151590565b34801561053157600080fd5b50601054610363906001600160a01b031681565b6102a1610553366004614a16565b611431565b34801561056457600080fd5b50610363610573366004614e49565b61194d565b34801561058457600080fd5b506102a1610593366004614975565b611965565b3480156105a457600080fd5b506102d46105b3366004614c63565b611987565b3480156105c457600080fd5b506103906119b2565b3480156105d957600080fd5b506103046105e8366004614975565b6119c1565b3480156105f957600080fd5b50610304610608366004614e79565b611bb3565b61062061061b366004614ea7565b611bbe565b604080519283526020830191909152016102ab565b34801561064157600080fd5b50610304610650366004614f0e565b611e55565b34801561066157600080fd5b50610304610670366004614e49565b611e9c565b34801561068157600080fd5b506102a1610690366004614975565b6001600160a01b03166000908152600a602052604090205490565b3480156106b757600080fd5b506106cb6106c6366004614975565b611ea7565b6040516102ab9190614f43565b3480156106e457600080fd5b506102a16106f3366004614992565b60009081526003602052604090205490565b34801561071157600080fd5b50610304611fa5565b34801561072657600080fd5b506102a1610735366004614cf7565b611ff5565b34801561074657600080fd5b506102a1610755366004614992565b6120b5565b34801561076657600080fd5b506106cb610775366004614992565b6120cc565b34801561078657600080fd5b506102a1600081565b34801561079b57600080fd5b506103046107aa366004614c63565b6120e7565b3480156107bb57600080fd5b506103046107ca366004614fc0565b61210d565b3480156107db57600080fd5b50600b546102a1565b3480156107f057600080fd5b506102d46107ff366004614fff565b6001600160a01b03918216600090815260016020908152604080832093909416825291909152205460ff1690565b34801561083957600080fd5b5061030461084836600461502d565b600c80546001600160a01b039586166001600160a01b031991821617909155600d805494861694821694909417909355600e805492851692841692909217909155600f805491909316911617905550565b3480156108a557600080fd5b506103046108b436600461509e565b612406565b6103046108c7366004614fc0565b612413565b6106206108da366004614ea7565b612a1d565b60006001600160a01b0383166109505760405162461bcd60e51b815260206004820152602b60248201527f455243313135353a2062616c616e636520717565727920666f7220746865207a60448201526a65726f206164647265737360a81b60648201526084015b60405180910390fd5b506000818152602081815260408083206001600160a01b03861684529091529020545b92915050565b60006001600160e01b03198216636cdb3d1360e11b14806109aa57506001600160e01b031982166303a24d0760e21b145b8061097357506301ffc9a760e01b6001600160e01b0319831614610973565b60006109d58133612dcc565b60005b82811015610a4057610a2e8484838181106109f5576109f5615107565b90506040020160000135858584818110610a1157610a11615107565b9050604002016020016020810190610a299190614975565b612e30565b80610a3881615133565b9150506109d8565b50505050565b6040516306fb1a0760e01b81526004810182905260009073def1fac7bf08f173d286bbbdcbeeade695129840906306fb1a0790602401602060405180830381865afa158015610a99573d6000803e3d6000fd5b505050506040513d601f19601f82011682018060405250810190610973919061514e565b606060068054610acc9061516b565b80601f0160208091040260200160405190810160405280929190818152602001828054610af89061516b565b8015610b455780601f10610b1a57610100808354040283529160200191610b45565b820191906000526020600020905b815481529060010190602001808311610b2857829003601f168201915b5050505050905090565b6001600160a01b0383166000908152600a6020526040902054839015801590610b865750600d546001600160a01b03828116911614155b604051806040016040528060018152602001604360f81b81525090610bbe5760405162461bcd60e51b81526004016109479190614a03565b506001600160a01b0384166000908152600a6020526040902054610be3858786612e3a565b6000610bee86612e72565b905060098281548110610c0357610c03615107565b6000918252602090912060026004909202010154610c2a906001600160701b0316826151a0565b945060008511604051806040016040528060018152602001602360f91b81525090610c685760405162461bcd60e51b81526004016109479190614a03565b50600d54600090610c81906001600160a01b0316612e72565b90506000600b5482610c9391906151a0565b905060008160098681548110610cab57610cab615107565b6000918252602090912060026004909202010154600980546001600160701b039092169188908110610cdf57610cdf615107565b6000918252602090912060049091020160020154610d0d90600160701b90046001600160701b03168b6151b7565b610d1791906151ec565b610d2191906151a0565b9050600060098681548110610d3857610d38615107565b60009182526020822060036004909202010154600980546001600160701b039092169350610ddd9189908110610d7057610d70615107565b9060005260206000209060040201600201600e9054906101000a90046001600160701b03166001600160701b031660098981548110610db157610db1615107565b6000918252602090912060026004909202010154610dd891906001600160701b03166151b7565b612efa565b905084600b819055508060098881548110610dfa57610dfa615107565b906000526020600020906004020160030160006101000a8154816001600160701b0302191690836001600160701b031602179055508560098881548110610e4357610e43615107565b6000918252602090912060049091020160020180546001600160701b0319166001600160701b0392909216919091179055610e7e8385615200565b60098881548110610e9157610e91615107565b9060005260206000209060040201600201600e9054906101000a90046001600160701b0316610ec09190615218565b60098881548110610ed357610ed3615107565b600091825260209091206004918202016002018054600160701b600160e01b031916600160701b6001600160701b03949094169390930292909217909155600d54604051630bb9ff5d60e01b81523092810192909252602482018590526001600160a01b031690630bb9ff5d90604401600060405180830381600087803b158015610f5d57600080fd5b505af1158015610f71573d6000803e3d6000fd5b50505060008881526003602052604081205460098054919350908a908110610f9b57610f9b615107565b60009182526020909120600260049092020101546001600160701b0316610fc2838e6151b7565b610fcc91906151ec565b9050610fe98b8a8360405180602001604052806000815250612f53565b6000611008856001600160701b0316856001600160701b031685613063565b9050801561103957601054604080516020810190915260008152611039916001600160a01b0316908c908490612f53565b505050505050505050505050505050565b6060600882604051602001611060929190615243565b6040516020818303038152906040529050919050565b60008060005b600060038161108a85615133565b9450848152602001908152602001600020541115610973576000828152600360205260409020546110bb9082615200565b905061107c565b6001600160a01b0385163314806110de57506110de85336107ff565b6111455760405162461bcd60e51b815260206004820152603260248201527f455243313135353a207472616e736665722063616c6c6572206973206e6f74206044820152711bdddb995c881b9bdc88185c1c1c9bdd995960721b6064820152608401610947565b61115285858585856130b5565b5050505050565b6000828152600460205260409020600101546111758133612dcc565b61117f83836132a0565b505050565b6001600160a01b03811633146111f45760405162461bcd60e51b815260206004820152602f60248201527f416363657373436f6e74726f6c3a2063616e206f6e6c792072656e6f756e636560448201526e103937b632b9903337b91039b2b63360891b6064820152608401610947565b6111fe82826132c2565b5050565b600061120e8133612dcc565b8251611221906006906020860190614700565b508151610a40906007906020850190614700565b600d546000906001600160a01b038581169116148015906112635750600d546001600160a01b038481169116145b156112795761127284836132e4565b9050611300565b600d546001600160a01b0385811691161480156112a45750600d546001600160a01b03848116911614155b156112b35761127283836133f8565b600d546001600160a01b038581169116148015906112df5750600d546001600160a01b03858116911614155b156113005760006112f085846132e4565b90506112fc84826133f8565b9150505b9392505050565b6060815183511461136c5760405162461bcd60e51b815260206004820152602960248201527f455243313135353a206163636f756e747320616e6420696473206c656e677468604482015268040dad2e6dac2e8c6d60bb1b6064820152608401610947565b6000835167ffffffffffffffff81111561138857611388614a69565b6040519080825280602002602001820160405280156113b1578160200160208202803683370190505b50905060005b8451811015611429576113fc8582815181106113d5576113d5615107565b60200260200101518583815181106113ef576113ef615107565b60200260200101516108df565b82828151811061140e5761140e615107565b602090810291909101015261142281615133565b90506113b7565b509392505050565b6001600160a01b0383166000908152600a60205260408120548490158015906114685750600d546001600160a01b03828116911614155b604051806040016040528060018152602001604360f81b815250906114a05760405162461bcd60e51b81526004016109479190614a03565b506001600160a01b038086166000908152600a602052604090205490871630146114e0576114e08730838860405180602001604052806000815250612406565b60006114eb87612e72565b905060006009838154811061150257611502615107565b6000918252602090912060026004909202010154611529906001600160701b0316836151a0565b600b54600d54919250600091611547906001600160a01b0316612e72565b61155191906151a0565b60008581526003602052604081205460098054939450909283918c918990811061157d5761157d615107565b60009182526020909120600260049092020101546115a491906001600160701b03166151b7565b6115ae91906151ec565b90506000828b600989815481106115c7576115c7615107565b60009182526020909120600490910201600201546115f59190600160701b90046001600160701b03166151b7565b6115ff91906151ec565b905060006009888154811061161657611616615107565b60009182526020822060036004909202010154600980546001600160701b03909216935061168f918b90811061164e5761164e615107565b9060005260206000209060040201600201600e9054906101000a90046001600160701b03166001600160701b031660098b81548110610db157610db1615107565b90508286600b546116a09190615200565b6116aa91906151a0565b600b819055508060098a815481106116c4576116c4615107565b906000526020600020906004020160030160006101000a8154816001600160701b0302191690836001600160701b03160217905550838760098b8154811061170e5761170e615107565b600091825260209091206002600490920201015461173591906001600160701b0316615218565b61173f91906152fa565b60098a8154811061175257611752615107565b906000526020600020906004020160020160006101000a8154816001600160701b0302191690836001600160701b03160217905550828660098b8154811061179c5761179c615107565b9060005260206000209060040201600201600e9054906101000a90046001600160701b03166117cb9190615218565b6117d591906152fa565b60098a815481106117e8576117e8615107565b9060005260206000209060040201600201600e6101000a8154816001600160701b0302191690836001600160701b03160217905550611827898e611e9c565b600d546040516318a8ad8760e01b8152306004820152602481018590526001600160a01b03909116906318a8ad8790604401600060405180830381600087803b15801561187357600080fd5b505af1158015611887573d6000803e3d6000fd5b5050505060006118aa836001600160701b0316836001600160701b031688613063565b905080156118db576010546040805160208101909152600081526118db916001600160a01b0316908c908490612f53565b5050506118e98c8b84613502565b60006118f48d612e72565b9050866119018483615200565b14604051806040016040528060018152602001604560f81b8152509061193a5760405162461bcd60e51b81526004016109479190614a03565b50919d9c50505050505050505050505050565b6000828152600560205260408120611300908361353d565b6001600160a01b0381166000908152600a602052604081205461097390613549565b60009182526004602090815260408084206001600160a01b0393909316845291905290205460ff1690565b606060078054610acc9061516b565b6001600160a01b0381166000908152600a60205260409020548190158015906119f85750600d546001600160a01b03828116911614155b604051806040016040528060018152602001604360f81b81525090611a305760405162461bcd60e51b81526004016109479190614a03565b506001600160a01b0382166000908152600a6020526040902054611a5383612e72565b60098281548110611a6657611a66615107565b6000918252602082206004919091020160020180546001600160701b0319166001600160701b039390931692909217909155600d54611aad906001600160a01b0316612e72565b9050600b548111611b0d5780600b54611ac691906151a0565b60098381548110611ad957611ad9615107565b9060005260206000209060040201600201600e9054906101000a90046001600160701b0316611b0891906152fa565b611b5c565b600b54611b1a90826151a0565b60098381548110611b2d57611b2d615107565b9060005260206000209060040201600201600e9054906101000a90046001600160701b0316611b5c9190615218565b60098381548110611b6f57611b6f615107565b6000918252602090912060026004909202010180546001600160701b0392909216600160701b02600160701b600160e01b0319909216919091179055600b55505050565b6111fe338383613703565b6000808380421115604051806040016040528060018152602001601160fa1b81525090611bfe5760405162461bcd60e51b81526004016109479190614a03565b506040805180820190915260018152604f60f81b602082015287611c355760405162461bcd60e51b81526004016109479190614a03565b50600d5433906000906001600160a01b038c8116911614801590611c665750600d546001600160a01b038b81169116145b15611cd157611c758b8a6132e4565b905087811015604051806040016040528060018152602001600960fb1b81525090611cb35760405162461bcd60e51b81526004016109479190614a03565b50611cbf8b838b612e3a565b611ccc8b60008389612413565b611e44565b600d546001600160a01b038c81169116148015611cfc5750600d546001600160a01b038b8116911614155b15611d6257611d0b8a8a6133f8565b905087811015604051806040016040528060018152602001606960f81b81525090611d495760405162461bcd60e51b81526004016109479190614a03565b50611d558b838b612e3a565b611ccc8a82600089612413565b600d546001600160a01b038c8116911614801590611d8e5750600d546001600160a01b038c8116911614155b15611e15576000611d9f8c8b6132e4565b9050611dab8b826133f8565b915088821015604051806040016040528060018152602001606960f81b81525090611de95760405162461bcd60e51b81526004016109479190614a03565b50611df58c848c612e3a565b611e028c60008330612413565b611e0f8b8360008a612413565b50611e44565b60408051808201825260018152601360fa1b6020820152905162461bcd60e51b81526109479190600401614a03565b979a97995096975050505050505050565b6000611e618133612dcc565b611e8982604051602001611e759190615322565b6040516020818303038152906040526137e4565b815161117f906008906020850190614700565b6111fe3383836137f7565b611eaf614784565b6001600160a01b0382166000908152600a6020526040902054600980549091908110611edd57611edd615107565b60009182526020918290206040805160a081018252600490930290910180546001600160a01b031683528151610100810190925291928301906001830160088282826020028201916000905b82829054906101000a900463ffffffff1663ffffffff1681526020019060040190602082600301049283019260010382029150808411611f295750505092845250505060028201546001600160701b038082166020840152600160701b9091048116604083015260039092015490911660609091015292915050565b600c54611fd1906001600160a01b031669d3c21bcecceda10000006969e10de76676d08000003361210d565b600e54611ff3906001600160a01b031669943b1377290cbd800000803361210d565b565b600d546000906001600160a01b038581169116148015906120235750600d546001600160a01b038481169116145b15612032576112728483613970565b600d546001600160a01b03858116911614801561205d5750600d546001600160a01b03848116911614155b1561206c576112728383613a79565b600d546001600160a01b038581169116148015906120985750600d546001600160a01b03848116911614155b156113005760006120a98484613a79565b90506112fc8582613970565b600081815260056020526040812061097390613b83565b6120d4614784565b60098281548110611edd57611edd615107565b6000828152600460205260409020600101546121038133612dcc565b61117f83836132c2565b6001600160a01b0384166000908152600a602052604090205484901580156121435750600d546001600160a01b03828116911614155b604051806040016040528060018152602001602160f91b8152509061217b5760405162461bcd60e51b81526004016109479190614a03565b5060095461218a863387612e3a565b600d54604051630bb9ff5d60e01b8152306004820152602481018690526001600160a01b0390911690630bb9ff5d90604401600060405180830381600087803b1580156121d657600080fd5b505af11580156121ea573d6000803e3d6000fd5b505050506121f786612e72565b945060008511604051806040016040528060018152602001602360f91b815250906122355760405162461bcd60e51b81526004016109479190614a03565b506000612245610dd886886151b7565b905061224f6147c2565b6040805160a0810182526001600160a01b038a81168252602082018481526001600160701b038b811694840194909452898416606084015292851660808301526009805460018101825560009190915282517f6e1540171b6c0c960b71a7020d9f60077f6af931a8bbf590da0223dacf75c7af600490920291820180546001600160a01b03191691909316178255925191928392612311917f6e1540171b6c0c960b71a7020d9f60077f6af931a8bbf590da0223dacf75c7b0019060086147e1565b5060408281015160028301805460608601516001600160701b03908116600160701b026001600160e01b03199092169381169390931717905560809093015160039092018054929093166001600160701b031992909216919091179091556001600160a01b038a166000908152600a602052908120859055600b805489929061239b908490615200565b925050819055506123c161dead856103e860405180602001604052806000815250612f53565b60006103e86123d3610dd88a8c6151b7565b6123dd91906151a0565b90506123fa87868360405180602001604052806000815250612f53565b50505050505050505050565b6111528585858585613b8d565b6001600160a01b0384166000908152600a602052604090205484901580159061244a5750600d546001600160a01b03828116911614155b604051806040016040528060018152602001604360f81b815250906124825760405162461bcd60e51b81526004016109479190614a03565b506001600160a01b038086166000908152600a6020526040812054600d5490926124ac9116612e72565b90506000600b54826124be91906151a0565b905060006124cb89612e72565b90506000600985815481106124e2576124e2615107565b6000918252602090912060026004909202010154612509906001600160701b0316836151a0565b905060006125178483615200565b11604051806040016040528060018152602001604f60f81b815250906125505760405162461bcd60e51b81526004016109479190614a03565b50600061255c86613549565b905060006127106009888154811061257657612576615107565b906000526020600020906004020160020160009054906101000a90046001600160701b03166001600160701b031661271060098a815481106125ba576125ba615107565b60009182526020909120600490910201600201546125e89190600160701b90046001600160701b03166151b7565b6125f291906151b7565b6125fc91906151b7565b905060008a86600b5461260f9190615200565b61261991906151a0565b905060008b8760098b8154811061263257612632615107565b60009182526020909120600490910201600201546126609190600160701b90046001600160701b0316615200565b61266a91906151a0565b905060008d8660098c8154811061268357612683615107565b60009182526020909120600260049092020101546126aa91906001600160701b0316615200565b6126b491906151a0565b905060006126c4866127106151a0565b6126ce90886151b7565b6126da612710846151b7565b6126e491906151a0565b6126f0876127106151a0565b6126fa908b6151b7565b612706612710866151b7565b61271091906151a0565b61271a91906151b7565b905084811015604051806040016040528060018152602001600560fc1b815250906127585760405162461bcd60e51b81526004016109479190614a03565b5083600b819055508260098c8154811061277457612774615107565b9060005260206000209060040201600201600e6101000a8154816001600160701b0302191690836001600160701b031602179055508160098c815481106127bd576127bd615107565b906000526020600020906004020160020160006101000a8154816001600160701b0302191690836001600160701b031602179055505050505050506000612802613caa565b905060006008612810613caa565b61281b906001615200565b612825919061534f565b9050670de0b6b3a7640000858b01046009888154811061284757612847615107565b9060005260206000209060040201600101836008811061286957612869615107565b600891828204019190066004028282829054906101000a900463ffffffff160192506101000a81548163ffffffff021916908363ffffffff1602179055506000600988815481106128bc576128bc615107565b906000526020600020906004020160010182600881106128de576128de615107565b600891828204019190066004029054906101000a900463ffffffff1663ffffffff1611156129675760006009888154811061291b5761291b615107565b9060005260206000209060040201600101826008811061293d5761293d615107565b600891828204019190066004026101000a81548163ffffffff021916908363ffffffff1602179055505b8a156129f2576129788c8a8d613502565b60006129838d612e72565b90506009888154811061299857612998615107565b6000918252602091829020600260049092020101546040805180820190915260018152604560f81b928101929092526001600160701b031682146129ef5760405162461bcd60e51b81526004016109479190614a03565b50505b8915612a0f57600d54612a0f906001600160a01b03168a8c613502565b505050505050505050505050565b6000808380421115604051806040016040528060018152602001601160fa1b81525090612a5d5760405162461bcd60e51b81526004016109479190614a03565b50600d5433906000906001600160a01b038c8116911614801590612a8e5750600d546001600160a01b038b81169116145b15612b3257612a9d8b8a613970565b905087811115604051806040016040528060018152602001604b60f81b81525090612adb5760405162461bcd60e51b81526004016109479190614a03565b50604080518082019091526001808252604f60f81b60208301528211612b145760405162461bcd60e51b81526004016109479190614a03565b50612b208b8383612e3a565b612b2d8b60008b89612413565b612d21565b600d546001600160a01b038c81169116148015612b5d5750600d546001600160a01b038b8116911614155b15612bfc57612b6c8a8a613a79565b905087811115604051806040016040528060018152602001602560f91b81525090612baa5760405162461bcd60e51b81526004016109479190614a03565b50604080518082019091526001808252604f60f81b60208301528211612be35760405162461bcd60e51b81526004016109479190614a03565b50612bef8b8383612e3a565b612b2d8a8a600089612413565b600d546001600160a01b038c8116911614801590612c285750600d546001600160a01b038b8116911614155b15611e15576000612c398b8b613a79565b905060018111604051806040016040528060018152602001604f60f81b81525090612c775760405162461bcd60e51b81526004016109479190614a03565b50612c828c82613970565b915088821115604051806040016040528060018152602001604b60f81b81525090612cc05760405162461bcd60e51b81526004016109479190614a03565b50604080518082019091526001808252604f60f81b60208301528311612cf95760405162461bcd60e51b81526004016109479190614a03565b50612d058c8484612e3a565b612d128c60008330612413565b612d1f8b8b60008a612413565b505b9a97995096975050505050505050565b612d3b8282611987565b6111fe5760008281526004602090815260408083206001600160a01b03851684529091529020805460ff19166001179055612d733390565b6001600160a01b0316816001600160a01b0316837f2f8788117e7eff1d82e926ec794901d17c78024a50270940304540a733656f0d60405160405180910390a45050565b6000611300836001600160a01b038416613cc9565b612dd68282611987565b6111fe57612dee816001600160a01b03166014613d18565b612df9836020613d18565b604051602001612e0a929190615363565b60408051601f198184030181529082905262461bcd60e51b825261094791600401614a03565b6111fe82826132a0565b600f546001600160a01b03848116911614801590612e6157506001600160a01b0382163014155b1561117f5761117f83833084613eb4565b600f546000906001600160a01b0383811691161415612e92575047919050565b6040516370a0823160e01b81523060048201526001600160a01b038316906370a0823190602401602060405180830381865afa158015612ed6573d6000803e3d6000fd5b505050506040513d601f19601f8201168201806040525081019061097391906153d8565b6000806002612f0a846001615200565b612f1491906151ec565b90508291505b81811015612f4d57905080600281612f3281866151ec565b612f3c9190615200565b612f4691906151ec565b9050612f1a565b50919050565b6001600160a01b038416612fb35760405162461bcd60e51b815260206004820152602160248201527f455243313135353a206d696e7420746f20746865207a65726f206164647265736044820152607360f81b6064820152608401610947565b33612fd381600087612fc488613fbc565b612fcd88613fbc565b87614007565b6000848152602081815260408083206001600160a01b038916845290915281208054859290613003908490615200565b909155505060408051858152602081018590526001600160a01b0380881692600092918516917fc3d58168c5ae7397731d063d5bbf3d657854427343f4c083240f7aacaa2d0f62910160405180910390a461115281600087878787614113565b600083831180156130745750600084115b1561130057836130858460056151b7565b61308f9190615200565b61309985856151a0565b6130a390846151b7565b6130ad91906151ec565b949350505050565b81518351146131175760405162461bcd60e51b815260206004820152602860248201527f455243313135353a2069647320616e6420616d6f756e7473206c656e677468206044820152670dad2e6dac2e8c6d60c31b6064820152608401610947565b6001600160a01b03841661313d5760405162461bcd60e51b8152600401610947906153f1565b3361314c818787878787614007565b60005b845181101561323257600085828151811061316c5761316c615107565b60200260200101519050600085838151811061318a5761318a615107565b602090810291909101810151600084815280835260408082206001600160a01b038e1683529093529190912054909150818110156131da5760405162461bcd60e51b815260040161094790615436565b6000838152602081815260408083206001600160a01b038e8116855292528083208585039055908b16825281208054849290613217908490615200565b925050819055505050508061322b90615133565b905061314f565b50846001600160a01b0316866001600160a01b0316826001600160a01b03167f4a39dc06d4c0dbc64b70af90fd698a233a518aa5d07e595d983b8c0526c8f7fb8787604051613282929190615480565b60405180910390a461329881878787878761426f565b505050505050565b6132aa8282612d31565b600082815260056020526040902061117f9082612db7565b6132cc828261432a565b600082815260056020526040902061117f9082614391565b6001600160a01b0382166000908152600a602052604081205483901580159061331b5750600d546001600160a01b03828116911614155b604051806040016040528060018152602001604360f81b815250906133535760405162461bcd60e51b81526004016109479190614a03565b506001600160a01b0384166000908152600a6020526040902054600980546133ed9186918490811061338757613387615107565b6000918252602090912060026004909202010154600980546001600160701b0390921691859081106133bb576133bb615107565b6000918252602090912060049091020160020154600160701b90046001600160701b03166133e885613549565b6143a6565b9250505b5092915050565b6001600160a01b0382166000908152600a602052604081205483901580159061342f5750600d546001600160a01b03828116911614155b604051806040016040528060018152602001604360f81b815250906134675760405162461bcd60e51b81526004016109479190614a03565b506001600160a01b0384166000908152600a6020526040902054600980546133ed9186918490811061349b5761349b615107565b9060005260206000209060040201600201600e9054906101000a90046001600160701b03166001600160701b0316600984815481106134dc576134dc615107565b60009182526020909120600260049092020101546001600160701b03166133e885613549565b6001600160a01b038216301461117f57600f546001600160a01b03848116911614156135325761117f82826143ed565b61117f838383614496565b60006113008383614596565b600080613554613caa565b905060006008613565836001615200565b61356f919061534f565b90506000805b600881101561360c578381148061358b57508281145b15613595576135fa565b600986815481106135a8576135a8615107565b906000526020600020906004020160010181600881106135ca576135ca615107565b600891828204019190066004029054906101000a900463ffffffff1663ffffffff16826135f79190615200565b91505b8061360481615133565b915050613575565b50600061362182670de0b6b3a76400006151b7565b61362d906103e86151b7565b905060006009878154811061364457613644615107565b9060005260206000209060040201600201600e9054906101000a90046001600160701b0316600261367591906154a5565b6136809060966154a5565b6001600160701b0316905080821161369c576126ac95506136f9565b81811080156136b457506136b18160646151b7565b82105b156136e157806136c481846151a0565b6136ce91906151ec565b6136da906126ac615200565b95506136f9565b6136ec8160646151b7565b8211156136f95761270f95505b5050505050919050565b816001600160a01b0316836001600160a01b031614156137775760405162461bcd60e51b815260206004820152602960248201527f455243313135353a2073657474696e6720617070726f76616c20737461747573604482015268103337b91039b2b63360b91b6064820152608401610947565b6001600160a01b03838116600081815260016020908152604080832094871680845294825291829020805460ff191686151590811790915591519182527f17307eab39ab6107e8899845ad3d59bd9653f200f220920489ca2b5937696c31910160405180910390a3505050565b80516111fe906002906020840190614700565b6001600160a01b0383166138595760405162461bcd60e51b815260206004820152602360248201527f455243313135353a206275726e2066726f6d20746865207a65726f206164647260448201526265737360e81b6064820152608401610947565b336138888185600061386a87613fbc565b61387387613fbc565b60405180602001604052806000815250614007565b6000838152602081815260408083206001600160a01b0388168452909152902054828110156139055760405162461bcd60e51b8152602060048201526024808201527f455243313135353a206275726e20616d6f756e7420657863656564732062616c604482015263616e636560e01b6064820152608401610947565b6000848152602081815260408083206001600160a01b03898116808652918452828520888703905582518981529384018890529092908616917fc3d58168c5ae7397731d063d5bbf3d657854427343f4c083240f7aacaa2d0f62910160405180910390a45050505050565b6001600160a01b0382166000908152600a60205260408120548390158015906139a75750600d546001600160a01b03828116911614155b604051806040016040528060018152602001604360f81b815250906139df5760405162461bcd60e51b81526004016109479190614a03565b506001600160a01b0384166000908152600a6020526040902054600980546133ed91869184908110613a1357613a13615107565b6000918252602090912060026004909202010154600980546001600160701b039092169185908110613a4757613a47615107565b6000918252602090912060049091020160020154600160701b90046001600160701b0316613a7485613549565b6145c0565b6001600160a01b0382166000908152600a6020526040812054839015801590613ab05750600d546001600160a01b03828116911614155b604051806040016040528060018152602001604360f81b81525090613ae85760405162461bcd60e51b81526004016109479190614a03565b506001600160a01b0384166000908152600a6020526040902054600980546133ed91869184908110613b1c57613b1c615107565b9060005260206000209060040201600201600e9054906101000a90046001600160701b03166001600160701b031660098481548110613b5d57613b5d615107565b60009182526020909120600260049092020101546001600160701b0316613a7485613549565b6000610973825490565b6001600160a01b038416613bb35760405162461bcd60e51b8152600401610947906153f1565b33613bc3818787612fc488613fbc565b6000848152602081815260408083206001600160a01b038a16845290915290205483811015613c045760405162461bcd60e51b815260040161094790615436565b6000858152602081815260408083206001600160a01b038b8116855292528083208785039055908816825281208054869290613c41908490615200565b909155505060408051868152602081018690526001600160a01b03808916928a821692918616917fc3d58168c5ae7397731d063d5bbf3d657854427343f4c083240f7aacaa2d0f62910160405180910390a4613ca1828888888888614113565b50505050505050565b60006008613cba613840426151ec565b613cc4919061534f565b905090565b6000818152600183016020526040812054613d1057508154600181810184556000848152602080822090930184905584548482528286019093526040902091909155610973565b506000610973565b60606000613d278360026151b7565b613d32906002615200565b67ffffffffffffffff811115613d4a57613d4a614a69565b6040519080825280601f01601f191660200182016040528015613d74576020820181803683370190505b509050600360fc1b81600081518110613d8f57613d8f615107565b60200101906001600160f81b031916908160001a905350600f60fb1b81600181518110613dbe57613dbe615107565b60200101906001600160f81b031916908160001a9053506000613de28460026151b7565b613ded906001615200565b90505b6001811115613e65576f181899199a1a9b1b9c1cb0b131b232b360811b85600f1660108110613e2157613e21615107565b1a60f81b828281518110613e3757613e37615107565b60200101906001600160f81b031916908160001a90535060049490941c93613e5e816154d4565b9050613df0565b5083156113005760405162461bcd60e51b815260206004820181905260248201527f537472696e67733a20686578206c656e67746820696e73756666696369656e746044820152606401610947565b604080516001600160a01b0385811660248301528481166044830152606480830185905283518084039091018152608490920183526020820180516001600160e01b03166323b872dd60e01b1790529151600092839290881691613f1891906154eb565b6000604051808303816000865af19150503d8060008114613f55576040519150601f19603f3d011682016040523d82523d6000602084013e613f5a565b606091505b5091509150818015613f84575080511580613f84575080806020019051810190613f849190615507565b604051806040016040528060018152602001604760f81b81525090613ca15760405162461bcd60e51b81526004016109479190614a03565b60408051600180825281830190925260609160009190602080830190803683370190505090508281600081518110613ff657613ff6615107565b602090810291909101015292915050565b6001600160a01b03851661408e5760005b835181101561408c5782818151811061403357614033615107565b60200260200101516003600086848151811061405157614051615107565b6020026020010151815260200190815260200160002060008282546140769190615200565b90915550614085905081615133565b9050614018565b505b6001600160a01b0384166132985760005b8351811015613ca1578281815181106140ba576140ba615107565b6020026020010151600360008684815181106140d8576140d8615107565b6020026020010151815260200190815260200160002060008282546140fd91906151a0565b9091555061410c905081615133565b905061409f565b6001600160a01b0384163b156132985760405163f23a6e6160e01b81526001600160a01b0385169063f23a6e61906141579089908990889088908890600401615524565b6020604051808303816000875af1925050508015614192575060408051601f3d908101601f1916820190925261418f9181019061555e565b60015b61423f5761419e61557b565b806308c379a014156141d857506141b3615597565b806141be57506141da565b8060405162461bcd60e51b81526004016109479190614a03565b505b60405162461bcd60e51b815260206004820152603460248201527f455243313135353a207472616e7366657220746f206e6f6e20455243313135356044820152732932b1b2b4bb32b91034b6b83632b6b2b73a32b960611b6064820152608401610947565b6001600160e01b0319811663f23a6e6160e01b14613ca15760405162461bcd60e51b815260040161094790615621565b6001600160a01b0384163b156132985760405163bc197c8160e01b81526001600160a01b0385169063bc197c81906142b39089908990889088908890600401615669565b6020604051808303816000875af19250505080156142ee575060408051601f3d908101601f191682019092526142eb9181019061555e565b60015b6142fa5761419e61557b565b6001600160e01b0319811663bc197c8160e01b14613ca15760405162461bcd60e51b815260040161094790615621565b6143348282611987565b156111fe5760008281526004602090815260408083206001600160a01b0385168085529252808320805460ff1916905551339285917ff6391f5c32d9c69d2a47ea670b442974b53935d1edc7fd64eb21e047a839171b9190a45050565b6000611300836001600160a01b03841661460d565b6000806143b383876151b7565b90506000816143c4612710886151b7565b6143ce9190615200565b6143d883876151b7565b6143e291906151ec565b979650505050505050565b604080516000808252602082019092526001600160a01b03841690839060405161441791906154eb565b60006040518083038185875af1925050503d8060008114614454576040519150601f19603f3d011682016040523d82523d6000602084013e614459565b606091505b5050905080604051806040016040528060018152602001605160f81b81525090610a405760405162461bcd60e51b81526004016109479190614a03565b604080516001600160a01b038481166024830152604480830185905283518084039091018152606490920183526020820180516001600160e01b031663a9059cbb60e01b17905291516000928392908716916144f291906154eb565b6000604051808303816000865af19150503d806000811461452f576040519150601f19603f3d011682016040523d82523d6000602084013e614534565b606091505b509150915081801561455e57508051158061455e57508080602001905181019061455e9190615507565b604051806040016040528060018152602001602960f91b815250906132985760405162461bcd60e51b81526004016109479190614a03565b60008260000182815481106145ad576145ad615107565b9060005260206000200154905092915050565b6000806145cd86856151a0565b6145d790846151b7565b6127106145e488886151b7565b6145ee91906151b7565b6145f891906151ec565b614603906001615200565b9695505050505050565b600081815260018301602052604081205480156146f65760006146316001836151a0565b8554909150600090614645906001906151a0565b90508181146146aa57600086600001828154811061466557614665615107565b906000526020600020015490508087600001848154811061468857614688615107565b6000918252602080832090910192909255918252600188019052604090208390555b85548690806146bb576146bb6156c7565b600190038181906000526020600020016000905590558560010160008681526020019081526020016000206000905560019350505050610973565b6000915050610973565b82805461470c9061516b565b90600052602060002090601f01602090048101928261472e5760008555614774565b82601f1061474757805160ff1916838001178555614774565b82800160010185558215614774579182015b82811115614774578251825591602001919060010190614759565b50614780929150614874565b5090565b6040518060a0016040528060006001600160a01b031681526020016147a76147c2565b81526000602082018190526040820181905260609091015290565b6040518061010001604052806008906020820280368337509192915050565b6001830191839082156147745791602002820160005b8382111561483b57835183826101000a81548163ffffffff021916908363ffffffff16021790555092602001926004016020816003010492830192600103026147f7565b801561486b5782816101000a81549063ffffffff021916905560040160208160030104928301926001030261483b565b50506147809291505b5b808211156147805760008155600101614875565b6001600160a01b038116811461489e57600080fd5b50565b600080604083850312156148b457600080fd5b82356148bf81614889565b946020939093013593505050565b6001600160e01b03198116811461489e57600080fd5b6000602082840312156148f557600080fd5b8135611300816148cd565b6000806020838503121561491357600080fd5b823567ffffffffffffffff8082111561492b57600080fd5b818501915085601f83011261493f57600080fd5b81358181111561494e57600080fd5b8660208260061b850101111561496357600080fd5b60209290920196919550909350505050565b60006020828403121561498757600080fd5b813561130081614889565b6000602082840312156149a457600080fd5b5035919050565b60005b838110156149c65781810151838201526020016149ae565b83811115610a405750506000910152565b600081518084526149ef8160208601602086016149ab565b601f01601f19169290920160200192915050565b60208152600061130060208301846149d7565b60008060008060808587031215614a2c57600080fd5b8435614a3781614889565b93506020850135614a4781614889565b9250604085013591506060850135614a5e81614889565b939692955090935050565b634e487b7160e01b600052604160045260246000fd5b601f8201601f1916810167ffffffffffffffff81118282101715614aa557614aa5614a69565b6040525050565b600067ffffffffffffffff821115614ac657614ac6614a69565b5060051b60200190565b600082601f830112614ae157600080fd5b81356020614aee82614aac565b604051614afb8282614a7f565b83815260059390931b8501820192828101915086841115614b1b57600080fd5b8286015b84811015614b365780358352918301918301614b1f565b509695505050505050565b600082601f830112614b5257600080fd5b813567ffffffffffffffff811115614b6c57614b6c614a69565b604051614b83601f8301601f191660200182614a7f565b818152846020838601011115614b9857600080fd5b816020850160208301376000918101602001919091529392505050565b600080600080600060a08688031215614bcd57600080fd5b8535614bd881614889565b94506020860135614be881614889565b9350604086013567ffffffffffffffff80821115614c0557600080fd5b614c1189838a01614ad0565b94506060880135915080821115614c2757600080fd5b614c3389838a01614ad0565b93506080880135915080821115614c4957600080fd5b50614c5688828901614b41565b9150509295509295909350565b60008060408385031215614c7657600080fd5b823591506020830135614c8881614889565b809150509250929050565b60008060408385031215614ca657600080fd5b823567ffffffffffffffff80821115614cbe57600080fd5b614cca86838701614b41565b93506020850135915080821115614ce057600080fd5b50614ced85828601614b41565b9150509250929050565b600080600060608486031215614d0c57600080fd5b8335614d1781614889565b92506020840135614d2781614889565b929592945050506040919091013590565b60008060408385031215614d4b57600080fd5b823567ffffffffffffffff80821115614d6357600080fd5b818501915085601f830112614d7757600080fd5b81356020614d8482614aac565b604051614d918282614a7f565b83815260059390931b8501820192828101915089841115614db157600080fd5b948201945b83861015614dd8578535614dc981614889565b82529482019490820190614db6565b96505086013592505080821115614dee57600080fd5b50614ced85828601614ad0565b600081518084526020808501945080840160005b83811015614e2b57815187529582019590820190600101614e0f565b509495945050505050565b6020815260006113006020830184614dfb565b60008060408385031215614e5c57600080fd5b50508035926020909101359150565b801515811461489e57600080fd5b60008060408385031215614e8c57600080fd5b8235614e9781614889565b91506020830135614c8881614e6b565b60008060008060008060c08789031215614ec057600080fd5b8635614ecb81614889565b95506020870135614edb81614889565b945060408701359350606087013592506080870135915060a0870135614f0081614889565b809150509295509295509295565b600060208284031215614f2057600080fd5b813567ffffffffffffffff811115614f3757600080fd5b6130ad84828501614b41565b81516001600160a01b031681526020808301516101808301919081840160005b6008811015614f8657825163ffffffff1682529183019190830190600101614f63565b5050505060408301516001600160701b039081166101208401526060840151811661014084015260808401519081166101608401526133f1565b60008060008060808587031215614fd657600080fd5b8435614fe181614889565b935060208501359250604085013591506060850135614a5e81614889565b6000806040838503121561501257600080fd5b823561501d81614889565b91506020830135614c8881614889565b600080600080600060a0868803121561504557600080fd5b853561505081614889565b9450602086013561506081614889565b9350604086013561507081614889565b9250606086013561508081614889565b9150608086013561509081614889565b809150509295509295909350565b600080600080600060a086880312156150b657600080fd5b85356150c181614889565b945060208601356150d181614889565b93506040860135925060608601359150608086013567ffffffffffffffff8111156150fb57600080fd5b614c5688828901614b41565b634e487b7160e01b600052603260045260246000fd5b634e487b7160e01b600052601160045260246000fd5b60006000198214156151475761514761511d565b5060010190565b60006020828403121561516057600080fd5b815161130081614889565b600181811c9082168061517f57607f821691505b60208210811415612f4d57634e487b7160e01b600052602260045260246000fd5b6000828210156151b2576151b261511d565b500390565b60008160001904831182151516156151d1576151d161511d565b500290565b634e487b7160e01b600052601260045260246000fd5b6000826151fb576151fb6151d6565b500490565b600082198211156152135761521361511d565b500190565b60006001600160701b0380831681851680830382111561523a5761523a61511d565b01949350505050565b600080845481600182811c91508083168061525f57607f831692505b602080841082141561527f57634e487b7160e01b86526022600452602486fd5b81801561529357600181146152a4576152d1565b60ff198616895284890196506152d1565b60008b81526020902060005b868110156152c95781548b8201529085019083016152b0565b505084890196505b508886526152ec81870164173539b7b760d91b815260050190565b9a9950505050505050505050565b60006001600160701b038381169083168181101561531a5761531a61511d565b039392505050565b600082516153348184602087016149ab565b683db4b23e973539b7b760b91b920191825250600901919050565b60008261535e5761535e6151d6565b500690565b7f416363657373436f6e74726f6c3a206163636f756e742000000000000000000081526000835161539b8160178501602088016149ab565b7001034b99036b4b9b9b4b733903937b6329607d1b60179184019182015283516153cc8160288401602088016149ab565b01602801949350505050565b6000602082840312156153ea57600080fd5b5051919050565b60208082526025908201527f455243313135353a207472616e7366657220746f20746865207a65726f206164604082015264647265737360d81b606082015260800190565b6020808252602a908201527f455243313135353a20696e73756666696369656e742062616c616e636520666f60408201526939103a3930b739b332b960b11b606082015260800190565b6040815260006154936040830185614dfb565b82810360208401526112fc8185614dfb565b60006001600160701b03808316818516818304811182151516156154cb576154cb61511d565b02949350505050565b6000816154e3576154e361511d565b506000190190565b600082516154fd8184602087016149ab565b9190910192915050565b60006020828403121561551957600080fd5b815161130081614e6b565b6001600160a01b03868116825285166020820152604081018490526060810183905260a0608082018190526000906143e2908301846149d7565b60006020828403121561557057600080fd5b8151611300816148cd565b600060033d11156155945760046000803e5060005160e01c5b90565b600060443d10156155a55790565b6040516003193d81016004833e81513d67ffffffffffffffff81602484011181841117156155d557505050505090565b82850191508151818111156155ed5750505050505090565b843d87010160208285010111156156075750505050505090565b61561660208286010187614a7f565b509095945050505050565b60208082526028908201527f455243313135353a204552433131353552656365697665722072656a656374656040820152676420746f6b656e7360c01b606082015260800190565b6001600160a01b0386811682528516602082015260a06040820181905260009061569590830186614dfb565b82810360608401526156a78186614dfb565b905082810360808401526156bb81856149d7565b98975050505050505050565b634e487b7160e01b600052603160045260246000fdfea2646970667358221220a6c433439c2280c8feff2156a31ce4a11dac7534cafc306457fc557ceff40b4464736f6c634300080b003368747470733a2f2f646174612e63657262792e66692f4365726279537761702f76312f",
			"opcodes": "PUSH1 0xC0 PUSH1 0x40 MSTORE PUSH1 0xD PUSH1 0x80 DUP2 SWAP1 MSTORE PUSH13 0x43657262792053776170205631 PUSH1 0x98 SHL PUSH1 0xA0 SWAP1 DUP2 MSTORE PUSH3 0x30 SWAP2 PUSH1 0x6 SWAP2 SWAP1 PUSH3 0x469 JUMP JUMPDEST POP PUSH1 0x40 DUP1 MLOAD DUP1 DUP3 ADD SWAP1 SWAP2 MSTORE PUSH1 0xD DUP1 DUP3 MSTORE PUSH13 0x43455242595F535741505F5631 PUSH1 0x98 SHL PUSH1 0x20 SWAP1 SWAP3 ADD SWAP2 DUP3 MSTORE PUSH3 0x67 SWAP2 PUSH1 0x7 SWAP2 PUSH3 0x469 JUMP JUMPDEST POP PUSH1 0x40 MLOAD DUP1 PUSH1 0x60 ADD PUSH1 0x40 MSTORE DUP1 PUSH1 0x23 DUP2 MSTORE PUSH1 0x20 ADD PUSH3 0x5DE5 PUSH1 0x23 SWAP2 CODECOPY DUP1 MLOAD PUSH3 0x98 SWAP2 PUSH1 0x8 SWAP2 PUSH1 0x20 SWAP1 SWAP2 ADD SWAP1 PUSH3 0x469 JUMP JUMPDEST POP PUSH1 0xC DUP1 SLOAD PUSH1 0x1 PUSH1 0x1 PUSH1 0xA0 SHL SUB NOT SWAP1 DUP2 AND PUSH20 0x2C4FE51D1AD5B88CD2CC2F45AD1C0C857F06225E OR SWAP1 SWAP2 SSTORE PUSH1 0xD DUP1 SLOAD DUP3 AND PUSH20 0xF3B07F8167B665BA3E2DD29C661DEE3A1DA2380A OR SWAP1 SSTORE PUSH1 0xE DUP1 SLOAD DUP3 AND PUSH20 0x2A5E269BF364E347942C464A999D8C8AC2E6CE94 OR SWAP1 SSTORE PUSH1 0x10 DUP1 SLOAD SWAP1 SWAP2 AND PUSH2 0xDEAD OR SWAP1 SSTORE CALLVALUE DUP1 ISZERO PUSH3 0x118 JUMPI PUSH1 0x0 DUP1 REVERT JUMPDEST POP PUSH1 0x8 PUSH1 0x40 MLOAD PUSH1 0x20 ADD PUSH3 0x12D SWAP2 SWAP1 PUSH3 0x604 JUMP JUMPDEST PUSH1 0x40 DUP1 MLOAD PUSH1 0x1F NOT DUP2 DUP5 SUB ADD DUP2 MSTORE SWAP2 SWAP1 MSTORE PUSH3 0x148 DUP2 PUSH3 0x2F1 JUMP JUMPDEST POP PUSH3 0x156 PUSH1 0x0 CALLER PUSH3 0x30A JUMP JUMPDEST PUSH1 0x10 DUP1 SLOAD PUSH1 0x1 PUSH1 0x1 PUSH1 0xA0 SHL SUB NOT AND CALLER OR SWAP1 SSTORE PUSH3 0x172 PUSH3 0x4F8 JUMP JUMPDEST PUSH1 0x40 DUP1 MLOAD PUSH1 0xA0 DUP2 ADD DUP3 MSTORE PUSH1 0x0 DUP1 DUP3 MSTORE PUSH1 0x20 DUP3 ADD DUP5 DUP2 MSTORE SWAP3 DUP3 ADD DUP2 SWAP1 MSTORE PUSH1 0x60 DUP3 ADD DUP2 SWAP1 MSTORE PUSH1 0x80 DUP3 ADD DUP2 SWAP1 MSTORE PUSH1 0x9 DUP1 SLOAD PUSH1 0x1 DUP2 ADD DUP3 SSTORE SWAP2 MSTORE DUP2 MLOAD PUSH32 0x6E1540171B6C0C960B71A7020D9F60077F6AF931A8BBF590DA0223DACF75C7AF PUSH1 0x4 SWAP1 SWAP3 MUL SWAP2 DUP3 ADD DUP1 SLOAD PUSH1 0x1 PUSH1 0x1 PUSH1 0xA0 SHL SUB NOT AND PUSH1 0x1 PUSH1 0x1 PUSH1 0xA0 SHL SUB SWAP1 SWAP3 AND SWAP2 SWAP1 SWAP2 OR DUP2 SSTORE SWAP3 MLOAD SWAP2 SWAP3 SWAP2 PUSH3 0x225 SWAP2 PUSH32 0x6E1540171B6C0C960B71A7020D9F60077F6AF931A8BBF590DA0223DACF75C7B0 ADD SWAP1 PUSH1 0x8 PUSH3 0x517 JUMP JUMPDEST POP PUSH1 0x40 DUP3 ADD MLOAD PUSH1 0x2 DUP3 ADD DUP1 SLOAD PUSH1 0x60 DUP6 ADD MLOAD PUSH1 0x1 PUSH1 0x1 PUSH1 0x70 SHL SUB SWAP1 DUP2 AND PUSH1 0x1 PUSH1 0x70 SHL MUL PUSH1 0x1 PUSH1 0x1 PUSH1 0xE0 SHL SUB NOT SWAP1 SWAP3 AND SWAP4 DUP2 AND SWAP4 SWAP1 SWAP4 OR OR SWAP1 SSTORE PUSH1 0x80 SWAP1 SWAP3 ADD MLOAD PUSH1 0x3 SWAP1 SWAP2 ADD DUP1 SLOAD SWAP2 SWAP1 SWAP3 AND PUSH1 0x1 PUSH1 0x1 PUSH1 0x70 SHL SUB NOT SWAP2 SWAP1 SWAP2 AND OR SWAP1 SSTORE PUSH2 0x3039 CHAINID EQ ISZERO PUSH3 0x2A3 JUMPI PUSH1 0xF DUP1 SLOAD PUSH1 0x1 PUSH1 0x1 PUSH1 0xA0 SHL SUB NOT AND PUSH2 0xDEAD OR SWAP1 SSTORE PUSH3 0x2C4 JUMP JUMPDEST CHAINID PUSH3 0x181CD EQ ISZERO PUSH3 0x2C4 JUMPI PUSH1 0xF DUP1 SLOAD PUSH1 0x1 PUSH1 0x1 PUSH1 0xA0 SHL SUB NOT AND PUSH2 0xDEAD OR SWAP1 SSTORE JUMPDEST POP PUSH1 0xF DUP1 SLOAD PUSH1 0x1 PUSH1 0x1 PUSH1 0xA0 SHL SUB NOT AND PUSH20 0x14769F96E57B80C66837701DE0B43686FB4632DE OR SWAP1 SSTORE PUSH3 0x6C2 JUMP JUMPDEST DUP1 MLOAD PUSH3 0x306 SWAP1 PUSH1 0x2 SWAP1 PUSH1 0x20 DUP5 ADD SWAP1 PUSH3 0x469 JUMP JUMPDEST POP POP JUMP JUMPDEST PUSH3 0x306 DUP3 DUP3 PUSH3 0x327 DUP3 DUP3 PUSH3 0x353 PUSH1 0x20 SHL PUSH3 0x2D31 OR PUSH1 0x20 SHR JUMP JUMPDEST PUSH1 0x0 DUP3 DUP2 MSTORE PUSH1 0x5 PUSH1 0x20 SWAP1 DUP2 MSTORE PUSH1 0x40 SWAP1 SWAP2 KECCAK256 PUSH3 0x34E SWAP2 DUP4 SWAP1 PUSH3 0x2DB7 PUSH3 0x3F7 DUP3 SHL OR SWAP1 SHR JUMP JUMPDEST POP POP POP JUMP JUMPDEST PUSH1 0x0 DUP3 DUP2 MSTORE PUSH1 0x4 PUSH1 0x20 SWAP1 DUP2 MSTORE PUSH1 0x40 DUP1 DUP4 KECCAK256 PUSH1 0x1 PUSH1 0x1 PUSH1 0xA0 SHL SUB DUP6 AND DUP5 MSTORE SWAP1 SWAP2 MSTORE SWAP1 KECCAK256 SLOAD PUSH1 0xFF AND PUSH3 0x306 JUMPI PUSH1 0x0 DUP3 DUP2 MSTORE PUSH1 0x4 PUSH1 0x20 SWAP1 DUP2 MSTORE PUSH1 0x40 DUP1 DUP4 KECCAK256 PUSH1 0x1 PUSH1 0x1 PUSH1 0xA0 SHL SUB DUP6 AND DUP5 MSTORE SWAP1 SWAP2 MSTORE SWAP1 KECCAK256 DUP1 SLOAD PUSH1 0xFF NOT AND PUSH1 0x1 OR SWAP1 SSTORE PUSH3 0x3B3 CALLER SWAP1 JUMP JUMPDEST PUSH1 0x1 PUSH1 0x1 PUSH1 0xA0 SHL SUB AND DUP2 PUSH1 0x1 PUSH1 0x1 PUSH1 0xA0 SHL SUB AND DUP4 PUSH32 0x2F8788117E7EFF1D82E926EC794901D17C78024A50270940304540A733656F0D PUSH1 0x40 MLOAD PUSH1 0x40 MLOAD DUP1 SWAP2 SUB SWAP1 LOG4 POP POP JUMP JUMPDEST PUSH1 0x0 PUSH3 0x40E DUP4 PUSH1 0x1 PUSH1 0x1 PUSH1 0xA0 SHL SUB DUP5 AND PUSH3 0x417 JUMP JUMPDEST SWAP1 POP JUMPDEST SWAP3 SWAP2 POP POP JUMP JUMPDEST PUSH1 0x0 DUP2 DUP2 MSTORE PUSH1 0x1 DUP4 ADD PUSH1 0x20 MSTORE PUSH1 0x40 DUP2 KECCAK256 SLOAD PUSH3 0x460 JUMPI POP DUP2 SLOAD PUSH1 0x1 DUP2 DUP2 ADD DUP5 SSTORE PUSH1 0x0 DUP5 DUP2 MSTORE PUSH1 0x20 DUP1 DUP3 KECCAK256 SWAP1 SWAP4 ADD DUP5 SWAP1 SSTORE DUP5 SLOAD DUP5 DUP3 MSTORE DUP3 DUP7 ADD SWAP1 SWAP4 MSTORE PUSH1 0x40 SWAP1 KECCAK256 SWAP2 SWAP1 SWAP2 SSTORE PUSH3 0x411 JUMP JUMPDEST POP PUSH1 0x0 PUSH3 0x411 JUMP JUMPDEST DUP3 DUP1 SLOAD PUSH3 0x477 SWAP1 PUSH3 0x5C7 JUMP JUMPDEST SWAP1 PUSH1 0x0 MSTORE PUSH1 0x20 PUSH1 0x0 KECCAK256 SWAP1 PUSH1 0x1F ADD PUSH1 0x20 SWAP1 DIV DUP2 ADD SWAP3 DUP3 PUSH3 0x49B JUMPI PUSH1 0x0 DUP6 SSTORE PUSH3 0x4E6 JUMP JUMPDEST DUP3 PUSH1 0x1F LT PUSH3 0x4B6 JUMPI DUP1 MLOAD PUSH1 0xFF NOT AND DUP4 DUP1 ADD OR DUP6 SSTORE PUSH3 0x4E6 JUMP JUMPDEST DUP3 DUP1 ADD PUSH1 0x1 ADD DUP6 SSTORE DUP3 ISZERO PUSH3 0x4E6 JUMPI SWAP2 DUP3 ADD JUMPDEST DUP3 DUP2 GT ISZERO PUSH3 0x4E6 JUMPI DUP3 MLOAD DUP3 SSTORE SWAP2 PUSH1 0x20 ADD SWAP2 SWAP1 PUSH1 0x1 ADD SWAP1 PUSH3 0x4C9 JUMP JUMPDEST POP PUSH3 0x4F4 SWAP3 SWAP2 POP PUSH3 0x5B0 JUMP JUMPDEST POP SWAP1 JUMP JUMPDEST PUSH1 0x40 MLOAD DUP1 PUSH2 0x100 ADD PUSH1 0x40 MSTORE DUP1 PUSH1 0x8 SWAP1 PUSH1 0x20 DUP3 MUL DUP1 CALLDATASIZE DUP4 CALLDATACOPY POP SWAP2 SWAP3 SWAP2 POP POP JUMP JUMPDEST PUSH1 0x1 DUP4 ADD SWAP2 DUP4 SWAP1 DUP3 ISZERO PUSH3 0x4E6 JUMPI SWAP2 PUSH1 0x20 MUL DUP3 ADD PUSH1 0x0 JUMPDEST DUP4 DUP3 GT ISZERO PUSH3 0x574 JUMPI DUP4 MLOAD DUP4 DUP3 PUSH2 0x100 EXP DUP2 SLOAD DUP2 PUSH4 0xFFFFFFFF MUL NOT AND SWAP1 DUP4 PUSH4 0xFFFFFFFF AND MUL OR SWAP1 SSTORE POP SWAP3 PUSH1 0x20 ADD SWAP3 PUSH1 0x4 ADD PUSH1 0x20 DUP2 PUSH1 0x3 ADD DIV SWAP3 DUP4 ADD SWAP3 PUSH1 0x1 SUB MUL PUSH3 0x52E JUMP JUMPDEST DUP1 ISZERO PUSH3 0x5A6 JUMPI DUP3 DUP2 PUSH2 0x100 EXP DUP2 SLOAD SWAP1 PUSH4 0xFFFFFFFF MUL NOT AND SWAP1 SSTORE PUSH1 0x4 ADD PUSH1 0x20 DUP2 PUSH1 0x3 ADD DIV SWAP3 DUP4 ADD SWAP3 PUSH1 0x1 SUB MUL PUSH3 0x574 JUMP JUMPDEST POP POP PUSH3 0x4F4 SWAP3 SWAP2 POP JUMPDEST JUMPDEST DUP1 DUP3 GT ISZERO PUSH3 0x4F4 JUMPI PUSH1 0x0 DUP2 SSTORE PUSH1 0x1 ADD PUSH3 0x5B1 JUMP JUMPDEST PUSH1 0x1 DUP2 DUP2 SHR SWAP1 DUP3 AND DUP1 PUSH3 0x5DC JUMPI PUSH1 0x7F DUP3 AND SWAP2 POP JUMPDEST PUSH1 0x20 DUP3 LT DUP2 EQ ISZERO PUSH3 0x5FE JUMPI PUSH4 0x4E487B71 PUSH1 0xE0 SHL PUSH1 0x0 MSTORE PUSH1 0x22 PUSH1 0x4 MSTORE PUSH1 0x24 PUSH1 0x0 REVERT JUMPDEST POP SWAP2 SWAP1 POP JUMP JUMPDEST PUSH1 0x0 DUP1 DUP4 SLOAD DUP2 PUSH1 0x1 DUP3 DUP2 SHR SWAP2 POP DUP1 DUP4 AND DUP1 PUSH3 0x621 JUMPI PUSH1 0x7F DUP4 AND SWAP3 POP JUMPDEST PUSH1 0x20 DUP1 DUP5 LT DUP3 EQ ISZERO PUSH3 0x642 JUMPI PUSH4 0x4E487B71 PUSH1 0xE0 SHL DUP7 MSTORE PUSH1 0x22 PUSH1 0x4 MSTORE PUSH1 0x24 DUP7 REVERT JUMPDEST DUP2 DUP1 ISZERO PUSH3 0x659 JUMPI PUSH1 0x1 DUP2 EQ PUSH3 0x66B JUMPI PUSH3 0x69A JUMP JUMPDEST PUSH1 0xFF NOT DUP7 AND DUP10 MSTORE DUP5 DUP10 ADD SWAP7 POP PUSH3 0x69A JUMP JUMPDEST PUSH1 0x0 DUP11 DUP2 MSTORE PUSH1 0x20 SWAP1 KECCAK256 PUSH1 0x0 JUMPDEST DUP7 DUP2 LT ISZERO PUSH3 0x692 JUMPI DUP2 SLOAD DUP12 DUP3 ADD MSTORE SWAP1 DUP6 ADD SWAP1 DUP4 ADD PUSH3 0x677 JUMP JUMPDEST POP POP DUP5 DUP10 ADD SWAP7 POP JUMPDEST POP POP POP POP POP POP PUSH3 0x6BA DUP2 PUSH9 0x3DB4B23E973539B7B7 PUSH1 0xB9 SHL DUP2 MSTORE PUSH1 0x9 ADD SWAP1 JUMP JUMPDEST SWAP5 SWAP4 POP POP POP POP JUMP JUMPDEST PUSH2 0x5713 DUP1 PUSH3 0x6D2 PUSH1 0x0 CODECOPY PUSH1 0x0 RETURN INVALID PUSH1 0x80 PUSH1 0x40 MSTORE PUSH1 0x4 CALLDATASIZE LT PUSH2 0x275 JUMPI PUSH1 0x0 CALLDATALOAD PUSH1 0xE0 SHR DUP1 PUSH4 0x91D14854 GT PUSH2 0x14F JUMPI DUP1 PUSH4 0xC790985A GT PUSH2 0xC1 JUMPI DUP1 PUSH4 0xDF465A1A GT PUSH2 0x7A JUMPI DUP1 PUSH4 0xDF465A1A EQ PUSH2 0x7CF JUMPI DUP1 PUSH4 0xE985E9C5 EQ PUSH2 0x7E4 JUMPI DUP1 PUSH4 0xECA01093 EQ PUSH2 0x82D JUMPI DUP1 PUSH4 0xF242432A EQ PUSH2 0x899 JUMPI DUP1 PUSH4 0xF3E6EA8A EQ PUSH2 0x8B9 JUMPI DUP1 PUSH4 0xF6524724 EQ PUSH2 0x8CC JUMPI PUSH1 0x0 DUP1 REVERT JUMPDEST DUP1 PUSH4 0xC790985A EQ PUSH2 0x71A JUMPI DUP1 PUSH4 0xCA15C873 EQ PUSH2 0x73A JUMPI DUP1 PUSH4 0xD01350BD EQ PUSH2 0x75A JUMPI DUP1 PUSH4 0xD391014B EQ PUSH2 0x77A JUMPI DUP1 PUSH4 0xD547741F EQ PUSH2 0x78F JUMPI DUP1 PUSH4 0xD5D60737 EQ PUSH2 0x7AF JUMPI PUSH1 0x0 DUP1 REVERT JUMPDEST DUP1 PUSH4 0xA7FD40BF GT PUSH2 0x113 JUMPI DUP1 PUSH4 0xA7FD40BF EQ PUSH2 0x635 JUMPI DUP1 PUSH4 0xB390C0AB EQ PUSH2 0x655 JUMPI DUP1 PUSH4 0xB771E425 EQ PUSH2 0x675 JUMPI DUP1 PUSH4 0xBBADC03B EQ PUSH2 0x6AB JUMPI DUP1 PUSH4 0xBD85B039 EQ PUSH2 0x6D8 JUMPI DUP1 PUSH4 0xC09C923B EQ PUSH2 0x705 JUMPI PUSH1 0x0 DUP1 REVERT JUMPDEST DUP1 PUSH4 0x91D14854 EQ PUSH2 0x598 JUMPI DUP1 PUSH4 0x95D89B41 EQ PUSH2 0x5B8 JUMPI DUP1 PUSH4 0x9BC731FC EQ PUSH2 0x5CD JUMPI DUP1 PUSH4 0xA22CB465 EQ PUSH2 0x5ED JUMPI DUP1 PUSH4 0xA60C6E55 EQ PUSH2 0x60D JUMPI PUSH1 0x0 DUP1 REVERT JUMPDEST DUP1 PUSH4 0x2F2FF15D GT PUSH2 0x1E8 JUMPI DUP1 PUSH4 0x4E1273F4 GT PUSH2 0x1AC JUMPI DUP1 PUSH4 0x4E1273F4 EQ PUSH2 0x4C9 JUMPI DUP1 PUSH4 0x4F558E79 EQ PUSH2 0x4F6 JUMPI DUP1 PUSH4 0x7B4B233C EQ PUSH2 0x525 JUMPI DUP1 PUSH4 0x7DE25AE7 EQ PUSH2 0x545 JUMPI DUP1 PUSH4 0x9010D07C EQ PUSH2 0x558 JUMPI DUP1 PUSH4 0x9162EBF0 EQ PUSH2 0x578 JUMPI PUSH1 0x0 DUP1 REVERT JUMPDEST DUP1 PUSH4 0x2F2FF15D EQ PUSH2 0x435 JUMPI DUP1 PUSH4 0x313CE567 EQ PUSH2 0x455 JUMPI DUP1 PUSH4 0x36568ABE EQ PUSH2 0x469 JUMPI DUP1 PUSH4 0x3935AC11 EQ PUSH2 0x489 JUMPI DUP1 PUSH4 0x48B08D62 EQ PUSH2 0x4A9 JUMPI PUSH1 0x0 DUP1 REVERT JUMPDEST DUP1 PUSH4 0x6FDDE03 GT PUSH2 0x23A JUMPI DUP1 PUSH4 0x6FDDE03 EQ PUSH2 0x37B JUMPI DUP1 PUSH4 0x94811F7 EQ PUSH2 0x39D JUMPI DUP1 PUSH4 0xE89341C EQ PUSH2 0x3B0 JUMPI DUP1 PUSH4 0x18160DDD EQ PUSH2 0x3D0 JUMPI DUP1 PUSH4 0x248A9CA3 EQ PUSH2 0x3E5 JUMPI DUP1 PUSH4 0x2EB2C2D6 EQ PUSH2 0x415 JUMPI PUSH1 0x0 DUP1 REVERT JUMPDEST DUP1 PUSH3 0xFDD58E EQ PUSH2 0x281 JUMPI DUP1 PUSH4 0x1FFC9A7 EQ PUSH2 0x2B4 JUMPI DUP1 PUSH4 0x3ED957F EQ PUSH2 0x2E4 JUMPI DUP1 PUSH4 0x6EDD763 EQ PUSH2 0x306 JUMPI DUP1 PUSH4 0x6FB1A07 EQ PUSH2 0x343 JUMPI PUSH1 0x0 DUP1 REVERT JUMPDEST CALLDATASIZE PUSH2 0x27C JUMPI STOP JUMPDEST PUSH1 0x0 DUP1 REVERT JUMPDEST CALLVALUE DUP1 ISZERO PUSH2 0x28D JUMPI PUSH1 0x0 DUP1 REVERT JUMPDEST POP PUSH2 0x2A1 PUSH2 0x29C CALLDATASIZE PUSH1 0x4 PUSH2 0x48A1 JUMP JUMPDEST PUSH2 0x8DF JUMP JUMPDEST PUSH1 0x40 MLOAD SWAP1 DUP2 MSTORE PUSH1 0x20 ADD JUMPDEST PUSH1 0x40 MLOAD DUP1 SWAP2 SUB SWAP1 RETURN JUMPDEST CALLVALUE DUP1 ISZERO PUSH2 0x2C0 JUMPI PUSH1 0x0 DUP1 REVERT JUMPDEST POP PUSH2 0x2D4 PUSH2 0x2CF CALLDATASIZE PUSH1 0x4 PUSH2 0x48E3 JUMP JUMPDEST PUSH2 0x979 JUMP JUMPDEST PUSH1 0x40 MLOAD SWAP1 ISZERO ISZERO DUP2 MSTORE PUSH1 0x20 ADD PUSH2 0x2AB JUMP JUMPDEST CALLVALUE DUP1 ISZERO PUSH2 0x2F0 JUMPI PUSH1 0x0 DUP1 REVERT JUMPDEST POP PUSH2 0x304 PUSH2 0x2FF CALLDATASIZE PUSH1 0x4 PUSH2 0x4900 JUMP JUMPDEST PUSH2 0x9C9 JUMP JUMPDEST STOP JUMPDEST CALLVALUE DUP1 ISZERO PUSH2 0x312 JUMPI PUSH1 0x0 DUP1 REVERT JUMPDEST POP PUSH2 0x304 PUSH2 0x321 CALLDATASIZE PUSH1 0x4 PUSH2 0x4975 JUMP JUMPDEST PUSH1 0x10 DUP1 SLOAD PUSH1 0x1 PUSH1 0x1 PUSH1 0xA0 SHL SUB NOT AND PUSH1 0x1 PUSH1 0x1 PUSH1 0xA0 SHL SUB SWAP3 SWAP1 SWAP3 AND SWAP2 SWAP1 SWAP2 OR SWAP1 SSTORE JUMP JUMPDEST CALLVALUE DUP1 ISZERO PUSH2 0x34F JUMPI PUSH1 0x0 DUP1 REVERT JUMPDEST POP PUSH2 0x363 PUSH2 0x35E CALLDATASIZE PUSH1 0x4 PUSH2 0x4992 JUMP JUMPDEST PUSH2 0xA46 JUMP JUMPDEST PUSH1 0x40 MLOAD PUSH1 0x1 PUSH1 0x1 PUSH1 0xA0 SHL SUB SWAP1 SWAP2 AND DUP2 MSTORE PUSH1 0x20 ADD PUSH2 0x2AB JUMP JUMPDEST CALLVALUE DUP1 ISZERO PUSH2 0x387 JUMPI PUSH1 0x0 DUP1 REVERT JUMPDEST POP PUSH2 0x390 PUSH2 0xABD JUMP JUMPDEST PUSH1 0x40 MLOAD PUSH2 0x2AB SWAP2 SWAP1 PUSH2 0x4A03 JUMP JUMPDEST PUSH2 0x304 PUSH2 0x3AB CALLDATASIZE PUSH1 0x4 PUSH2 0x4A16 JUMP JUMPDEST PUSH2 0xB4F JUMP JUMPDEST CALLVALUE DUP1 ISZERO PUSH2 0x3BC JUMPI PUSH1 0x0 DUP1 REVERT JUMPDEST POP PUSH2 0x390 PUSH2 0x3CB CALLDATASIZE PUSH1 0x4 PUSH2 0x4992 JUMP JUMPDEST PUSH2 0x104A JUMP JUMPDEST CALLVALUE DUP1 ISZERO PUSH2 0x3DC JUMPI PUSH1 0x0 DUP1 REVERT JUMPDEST POP PUSH2 0x2A1 PUSH2 0x1076 JUMP JUMPDEST CALLVALUE DUP1 ISZERO PUSH2 0x3F1 JUMPI PUSH1 0x0 DUP1 REVERT JUMPDEST POP PUSH2 0x2A1 PUSH2 0x400 CALLDATASIZE PUSH1 0x4 PUSH2 0x4992 JUMP JUMPDEST PUSH1 0x0 SWAP1 DUP2 MSTORE PUSH1 0x4 PUSH1 0x20 MSTORE PUSH1 0x40 SWAP1 KECCAK256 PUSH1 0x1 ADD SLOAD SWAP1 JUMP JUMPDEST CALLVALUE DUP1 ISZERO PUSH2 0x421 JUMPI PUSH1 0x0 DUP1 REVERT JUMPDEST POP PUSH2 0x304 PUSH2 0x430 CALLDATASIZE PUSH1 0x4 PUSH2 0x4BB5 JUMP JUMPDEST PUSH2 0x10C2 JUMP JUMPDEST CALLVALUE DUP1 ISZERO PUSH2 0x441 JUMPI PUSH1 0x0 DUP1 REVERT JUMPDEST POP PUSH2 0x304 PUSH2 0x450 CALLDATASIZE PUSH1 0x4 PUSH2 0x4C63 JUMP JUMPDEST PUSH2 0x1159 JUMP JUMPDEST CALLVALUE DUP1 ISZERO PUSH2 0x461 JUMPI PUSH1 0x0 DUP1 REVERT JUMPDEST POP PUSH1 0x12 PUSH2 0x2A1 JUMP JUMPDEST CALLVALUE DUP1 ISZERO PUSH2 0x475 JUMPI PUSH1 0x0 DUP1 REVERT JUMPDEST POP PUSH2 0x304 PUSH2 0x484 CALLDATASIZE PUSH1 0x4 PUSH2 0x4C63 JUMP JUMPDEST PUSH2 0x1184 JUMP JUMPDEST CALLVALUE DUP1 ISZERO PUSH2 0x495 JUMPI PUSH1 0x0 DUP1 REVERT JUMPDEST POP PUSH2 0x304 PUSH2 0x4A4 CALLDATASIZE PUSH1 0x4 PUSH2 0x4C93 JUMP JUMPDEST PUSH2 0x1202 JUMP JUMPDEST CALLVALUE DUP1 ISZERO PUSH2 0x4B5 JUMPI PUSH1 0x0 DUP1 REVERT JUMPDEST POP PUSH2 0x2A1 PUSH2 0x4C4 CALLDATASIZE PUSH1 0x4 PUSH2 0x4CF7 JUMP JUMPDEST PUSH2 0x1235 JUMP JUMPDEST CALLVALUE DUP1 ISZERO PUSH2 0x4D5 JUMPI PUSH1 0x0 DUP1 REVERT JUMPDEST POP PUSH2 0x4E9 PUSH2 0x4E4 CALLDATASIZE PUSH1 0x4 PUSH2 0x4D38 JUMP JUMPDEST PUSH2 0x1307 JUMP JUMPDEST PUSH1 0x40 MLOAD PUSH2 0x2AB SWAP2 SWAP1 PUSH2 0x4E36 JUMP JUMPDEST CALLVALUE DUP1 ISZERO PUSH2 0x502 JUMPI PUSH1 0x0 DUP1 REVERT JUMPDEST POP PUSH2 0x2D4 PUSH2 0x511 CALLDATASIZE PUSH1 0x4 PUSH2 0x4992 JUMP JUMPDEST PUSH1 0x0 SWAP1 DUP2 MSTORE PUSH1 0x3 PUSH1 0x20 MSTORE PUSH1 0x40 SWAP1 KECCAK256 SLOAD ISZERO ISZERO SWAP1 JUMP JUMPDEST CALLVALUE DUP1 ISZERO PUSH2 0x531 JUMPI PUSH1 0x0 DUP1 REVERT JUMPDEST POP PUSH1 0x10 SLOAD PUSH2 0x363 SWAP1 PUSH1 0x1 PUSH1 0x1 PUSH1 0xA0 SHL SUB AND DUP2 JUMP JUMPDEST PUSH2 0x2A1 PUSH2 0x553 CALLDATASIZE PUSH1 0x4 PUSH2 0x4A16 JUMP JUMPDEST PUSH2 0x1431 JUMP JUMPDEST CALLVALUE DUP1 ISZERO PUSH2 0x564 JUMPI PUSH1 0x0 DUP1 REVERT JUMPDEST POP PUSH2 0x363 PUSH2 0x573 CALLDATASIZE PUSH1 0x4 PUSH2 0x4E49 JUMP JUMPDEST PUSH2 0x194D JUMP JUMPDEST CALLVALUE DUP1 ISZERO PUSH2 0x584 JUMPI PUSH1 0x0 DUP1 REVERT JUMPDEST POP PUSH2 0x2A1 PUSH2 0x593 CALLDATASIZE PUSH1 0x4 PUSH2 0x4975 JUMP JUMPDEST PUSH2 0x1965 JUMP JUMPDEST CALLVALUE DUP1 ISZERO PUSH2 0x5A4 JUMPI PUSH1 0x0 DUP1 REVERT JUMPDEST POP PUSH2 0x2D4 PUSH2 0x5B3 CALLDATASIZE PUSH1 0x4 PUSH2 0x4C63 JUMP JUMPDEST PUSH2 0x1987 JUMP JUMPDEST CALLVALUE DUP1 ISZERO PUSH2 0x5C4 JUMPI PUSH1 0x0 DUP1 REVERT JUMPDEST POP PUSH2 0x390 PUSH2 0x19B2 JUMP JUMPDEST CALLVALUE DUP1 ISZERO PUSH2 0x5D9 JUMPI PUSH1 0x0 DUP1 REVERT JUMPDEST POP PUSH2 0x304 PUSH2 0x5E8 CALLDATASIZE PUSH1 0x4 PUSH2 0x4975 JUMP JUMPDEST PUSH2 0x19C1 JUMP JUMPDEST CALLVALUE DUP1 ISZERO PUSH2 0x5F9 JUMPI PUSH1 0x0 DUP1 REVERT JUMPDEST POP PUSH2 0x304 PUSH2 0x608 CALLDATASIZE PUSH1 0x4 PUSH2 0x4E79 JUMP JUMPDEST PUSH2 0x1BB3 JUMP JUMPDEST PUSH2 0x620 PUSH2 0x61B CALLDATASIZE PUSH1 0x4 PUSH2 0x4EA7 JUMP JUMPDEST PUSH2 0x1BBE JUMP JUMPDEST PUSH1 0x40 DUP1 MLOAD SWAP3 DUP4 MSTORE PUSH1 0x20 DUP4 ADD SWAP2 SWAP1 SWAP2 MSTORE ADD PUSH2 0x2AB JUMP JUMPDEST CALLVALUE DUP1 ISZERO PUSH2 0x641 JUMPI PUSH1 0x0 DUP1 REVERT JUMPDEST POP PUSH2 0x304 PUSH2 0x650 CALLDATASIZE PUSH1 0x4 PUSH2 0x4F0E JUMP JUMPDEST PUSH2 0x1E55 JUMP JUMPDEST CALLVALUE DUP1 ISZERO PUSH2 0x661 JUMPI PUSH1 0x0 DUP1 REVERT JUMPDEST POP PUSH2 0x304 PUSH2 0x670 CALLDATASIZE PUSH1 0x4 PUSH2 0x4E49 JUMP JUMPDEST PUSH2 0x1E9C JUMP JUMPDEST CALLVALUE DUP1 ISZERO PUSH2 0x681 JUMPI PUSH1 0x0 DUP1 REVERT JUMPDEST POP PUSH2 0x2A1 PUSH2 0x690 CALLDATASIZE PUSH1 0x4 PUSH2 0x4975 JUMP JUMPDEST PUSH1 0x1 PUSH1 0x1 PUSH1 0xA0 SHL SUB AND PUSH1 0x0 SWAP1 DUP2 MSTORE PUSH1 0xA PUSH1 0x20 MSTORE PUSH1 0x40 SWAP1 KECCAK256 SLOAD SWAP1 JUMP JUMPDEST CALLVALUE DUP1 ISZERO PUSH2 0x6B7 JUMPI PUSH1 0x0 DUP1 REVERT JUMPDEST POP PUSH2 0x6CB PUSH2 0x6C6 CALLDATASIZE PUSH1 0x4 PUSH2 0x4975 JUMP JUMPDEST PUSH2 0x1EA7 JUMP JUMPDEST PUSH1 0x40 MLOAD PUSH2 0x2AB SWAP2 SWAP1 PUSH2 0x4F43 JUMP JUMPDEST CALLVALUE DUP1 ISZERO PUSH2 0x6E4 JUMPI PUSH1 0x0 DUP1 REVERT JUMPDEST POP PUSH2 0x2A1 PUSH2 0x6F3 CALLDATASIZE PUSH1 0x4 PUSH2 0x4992 JUMP JUMPDEST PUSH1 0x0 SWAP1 DUP2 MSTORE PUSH1 0x3 PUSH1 0x20 MSTORE PUSH1 0x40 SWAP1 KECCAK256 SLOAD SWAP1 JUMP JUMPDEST CALLVALUE DUP1 ISZERO PUSH2 0x711 JUMPI PUSH1 0x0 DUP1 REVERT JUMPDEST POP PUSH2 0x304 PUSH2 0x1FA5 JUMP JUMPDEST CALLVALUE DUP1 ISZERO PUSH2 0x726 JUMPI PUSH1 0x0 DUP1 REVERT JUMPDEST POP PUSH2 0x2A1 PUSH2 0x735 CALLDATASIZE PUSH1 0x4 PUSH2 0x4CF7 JUMP JUMPDEST PUSH2 0x1FF5 JUMP JUMPDEST CALLVALUE DUP1 ISZERO PUSH2 0x746 JUMPI PUSH1 0x0 DUP1 REVERT JUMPDEST POP PUSH2 0x2A1 PUSH2 0x755 CALLDATASIZE PUSH1 0x4 PUSH2 0x4992 JUMP JUMPDEST PUSH2 0x20B5 JUMP JUMPDEST CALLVALUE DUP1 ISZERO PUSH2 0x766 JUMPI PUSH1 0x0 DUP1 REVERT JUMPDEST POP PUSH2 0x6CB PUSH2 0x775 CALLDATASIZE PUSH1 0x4 PUSH2 0x4992 JUMP JUMPDEST PUSH2 0x20CC JUMP JUMPDEST CALLVALUE DUP1 ISZERO PUSH2 0x786 JUMPI PUSH1 0x0 DUP1 REVERT JUMPDEST POP PUSH2 0x2A1 PUSH1 0x0 DUP2 JUMP JUMPDEST CALLVALUE DUP1 ISZERO PUSH2 0x79B JUMPI PUSH1 0x0 DUP1 REVERT JUMPDEST POP PUSH2 0x304 PUSH2 0x7AA CALLDATASIZE PUSH1 0x4 PUSH2 0x4C63 JUMP JUMPDEST PUSH2 0x20E7 JUMP JUMPDEST CALLVALUE DUP1 ISZERO PUSH2 0x7BB JUMPI PUSH1 0x0 DUP1 REVERT JUMPDEST POP PUSH2 0x304 PUSH2 0x7CA CALLDATASIZE PUSH1 0x4 PUSH2 0x4FC0 JUMP JUMPDEST PUSH2 0x210D JUMP JUMPDEST CALLVALUE DUP1 ISZERO PUSH2 0x7DB JUMPI PUSH1 0x0 DUP1 REVERT JUMPDEST POP PUSH1 0xB SLOAD PUSH2 0x2A1 JUMP JUMPDEST CALLVALUE DUP1 ISZERO PUSH2 0x7F0 JUMPI PUSH1 0x0 DUP1 REVERT JUMPDEST POP PUSH2 0x2D4 PUSH2 0x7FF CALLDATASIZE PUSH1 0x4 PUSH2 0x4FFF JUMP JUMPDEST PUSH1 0x1 PUSH1 0x1 PUSH1 0xA0 SHL SUB SWAP2 DUP3 AND PUSH1 0x0 SWAP1 DUP2 MSTORE PUSH1 0x1 PUSH1 0x20 SWAP1 DUP2 MSTORE PUSH1 0x40 DUP1 DUP4 KECCAK256 SWAP4 SWAP1 SWAP5 AND DUP3 MSTORE SWAP2 SWAP1 SWAP2 MSTORE KECCAK256 SLOAD PUSH1 0xFF AND SWAP1 JUMP JUMPDEST CALLVALUE DUP1 ISZERO PUSH2 0x839 JUMPI PUSH1 0x0 DUP1 REVERT JUMPDEST POP PUSH2 0x304 PUSH2 0x848 CALLDATASIZE PUSH1 0x4 PUSH2 0x502D JUMP JUMPDEST PUSH1 0xC DUP1 SLOAD PUSH1 0x1 PUSH1 0x1 PUSH1 0xA0 SHL SUB SWAP6 DUP7 AND PUSH1 0x1 PUSH1 0x1 PUSH1 0xA0 SHL SUB NOT SWAP2 DUP3 AND OR SWAP1 SWAP2 SSTORE PUSH1 0xD DUP1 SLOAD SWAP5 DUP7 AND SWAP5 DUP3 AND SWAP5 SWAP1 SWAP5 OR SWAP1 SWAP4 SSTORE PUSH1 0xE DUP1 SLOAD SWAP3 DUP6 AND SWAP3 DUP5 AND SWAP3 SWAP1 SWAP3 OR SWAP1 SWAP2 SSTORE PUSH1 0xF DUP1 SLOAD SWAP2 SWAP1 SWAP4 AND SWAP2 AND OR SWAP1 SSTORE POP JUMP JUMPDEST CALLVALUE DUP1 ISZERO PUSH2 0x8A5 JUMPI PUSH1 0x0 DUP1 REVERT JUMPDEST POP PUSH2 0x304 PUSH2 0x8B4 CALLDATASIZE PUSH1 0x4 PUSH2 0x509E JUMP JUMPDEST PUSH2 0x2406 JUMP JUMPDEST PUSH2 0x304 PUSH2 0x8C7 CALLDATASIZE PUSH1 0x4 PUSH2 0x4FC0 JUMP JUMPDEST PUSH2 0x2413 JUMP JUMPDEST PUSH2 0x620 PUSH2 0x8DA CALLDATASIZE PUSH1 0x4 PUSH2 0x4EA7 JUMP JUMPDEST PUSH2 0x2A1D JUMP JUMPDEST PUSH1 0x0 PUSH1 0x1 PUSH1 0x1 PUSH1 0xA0 SHL SUB DUP4 AND PUSH2 0x950 JUMPI PUSH1 0x40 MLOAD PUSH3 0x461BCD PUSH1 0xE5 SHL DUP2 MSTORE PUSH1 0x20 PUSH1 0x4 DUP3 ADD MSTORE PUSH1 0x2B PUSH1 0x24 DUP3 ADD MSTORE PUSH32 0x455243313135353A2062616C616E636520717565727920666F7220746865207A PUSH1 0x44 DUP3 ADD MSTORE PUSH11 0x65726F2061646472657373 PUSH1 0xA8 SHL PUSH1 0x64 DUP3 ADD MSTORE PUSH1 0x84 ADD JUMPDEST PUSH1 0x40 MLOAD DUP1 SWAP2 SUB SWAP1 REVERT JUMPDEST POP PUSH1 0x0 DUP2 DUP2 MSTORE PUSH1 0x20 DUP2 DUP2 MSTORE PUSH1 0x40 DUP1 DUP4 KECCAK256 PUSH1 0x1 PUSH1 0x1 PUSH1 0xA0 SHL SUB DUP7 AND DUP5 MSTORE SWAP1 SWAP2 MSTORE SWAP1 KECCAK256 SLOAD JUMPDEST SWAP3 SWAP2 POP POP JUMP JUMPDEST PUSH1 0x0 PUSH1 0x1 PUSH1 0x1 PUSH1 0xE0 SHL SUB NOT DUP3 AND PUSH4 0x6CDB3D13 PUSH1 0xE1 SHL EQ DUP1 PUSH2 0x9AA JUMPI POP PUSH1 0x1 PUSH1 0x1 PUSH1 0xE0 SHL SUB NOT DUP3 AND PUSH4 0x3A24D07 PUSH1 0xE2 SHL EQ JUMPDEST DUP1 PUSH2 0x973 JUMPI POP PUSH4 0x1FFC9A7 PUSH1 0xE0 SHL PUSH1 0x1 PUSH1 0x1 PUSH1 0xE0 SHL SUB NOT DUP4 AND EQ PUSH2 0x973 JUMP JUMPDEST PUSH1 0x0 PUSH2 0x9D5 DUP2 CALLER PUSH2 0x2DCC JUMP JUMPDEST PUSH1 0x0 JUMPDEST DUP3 DUP2 LT ISZERO PUSH2 0xA40 JUMPI PUSH2 0xA2E DUP5 DUP5 DUP4 DUP2 DUP2 LT PUSH2 0x9F5 JUMPI PUSH2 0x9F5 PUSH2 0x5107 JUMP JUMPDEST SWAP1 POP PUSH1 0x40 MUL ADD PUSH1 0x0 ADD CALLDATALOAD DUP6 DUP6 DUP5 DUP2 DUP2 LT PUSH2 0xA11 JUMPI PUSH2 0xA11 PUSH2 0x5107 JUMP JUMPDEST SWAP1 POP PUSH1 0x40 MUL ADD PUSH1 0x20 ADD PUSH1 0x20 DUP2 ADD SWAP1 PUSH2 0xA29 SWAP2 SWAP1 PUSH2 0x4975 JUMP JUMPDEST PUSH2 0x2E30 JUMP JUMPDEST DUP1 PUSH2 0xA38 DUP2 PUSH2 0x5133 JUMP JUMPDEST SWAP2 POP POP PUSH2 0x9D8 JUMP JUMPDEST POP POP POP POP JUMP JUMPDEST PUSH1 0x40 MLOAD PUSH4 0x6FB1A07 PUSH1 0xE0 SHL DUP2 MSTORE PUSH1 0x4 DUP2 ADD DUP3 SWAP1 MSTORE PUSH1 0x0 SWAP1 PUSH20 0xDEF1FAC7BF08F173D286BBBDCBEEADE695129840 SWAP1 PUSH4 0x6FB1A07 SWAP1 PUSH1 0x24 ADD PUSH1 0x20 PUSH1 0x40 MLOAD DUP1 DUP4 SUB DUP2 DUP7 GAS STATICCALL ISZERO DUP1 ISZERO PUSH2 0xA99 JUMPI RETURNDATASIZE PUSH1 0x0 DUP1 RETURNDATACOPY RETURNDATASIZE PUSH1 0x0 REVERT JUMPDEST POP POP POP POP PUSH1 0x40 MLOAD RETURNDATASIZE PUSH1 0x1F NOT PUSH1 0x1F DUP3 ADD AND DUP3 ADD DUP1 PUSH1 0x40 MSTORE POP DUP2 ADD SWAP1 PUSH2 0x973 SWAP2 SWAP1 PUSH2 0x514E JUMP JUMPDEST PUSH1 0x60 PUSH1 0x6 DUP1 SLOAD PUSH2 0xACC SWAP1 PUSH2 0x516B JUMP JUMPDEST DUP1 PUSH1 0x1F ADD PUSH1 0x20 DUP1 SWAP2 DIV MUL PUSH1 0x20 ADD PUSH1 0x40 MLOAD SWAP1 DUP2 ADD PUSH1 0x40 MSTORE DUP1 SWAP3 SWAP2 SWAP1 DUP2 DUP2 MSTORE PUSH1 0x20 ADD DUP3 DUP1 SLOAD PUSH2 0xAF8 SWAP1 PUSH2 0x516B JUMP JUMPDEST DUP1 ISZERO PUSH2 0xB45 JUMPI DUP1 PUSH1 0x1F LT PUSH2 0xB1A JUMPI PUSH2 0x100 DUP1 DUP4 SLOAD DIV MUL DUP4 MSTORE SWAP2 PUSH1 0x20 ADD SWAP2 PUSH2 0xB45 JUMP JUMPDEST DUP3 ADD SWAP2 SWAP1 PUSH1 0x0 MSTORE PUSH1 0x20 PUSH1 0x0 KECCAK256 SWAP1 JUMPDEST DUP2 SLOAD DUP2 MSTORE SWAP1 PUSH1 0x1 ADD SWAP1 PUSH1 0x20 ADD DUP1 DUP4 GT PUSH2 0xB28 JUMPI DUP3 SWAP1 SUB PUSH1 0x1F AND DUP3 ADD SWAP2 JUMPDEST POP POP POP POP POP SWAP1 POP SWAP1 JUMP JUMPDEST PUSH1 0x1 PUSH1 0x1 PUSH1 0xA0 SHL SUB DUP4 AND PUSH1 0x0 SWAP1 DUP2 MSTORE PUSH1 0xA PUSH1 0x20 MSTORE PUSH1 0x40 SWAP1 KECCAK256 SLOAD DUP4 SWAP1 ISZERO DUP1 ISZERO SWAP1 PUSH2 0xB86 JUMPI POP PUSH1 0xD SLOAD PUSH1 0x1 PUSH1 0x1 PUSH1 0xA0 SHL SUB DUP3 DUP2 AND SWAP2 AND EQ ISZERO JUMPDEST PUSH1 0x40 MLOAD DUP1 PUSH1 0x40 ADD PUSH1 0x40 MSTORE DUP1 PUSH1 0x1 DUP2 MSTORE PUSH1 0x20 ADD PUSH1 0x43 PUSH1 0xF8 SHL DUP2 MSTORE POP SWAP1 PUSH2 0xBBE JUMPI PUSH1 0x40 MLOAD PUSH3 0x461BCD PUSH1 0xE5 SHL DUP2 MSTORE PUSH1 0x4 ADD PUSH2 0x947 SWAP2 SWAP1 PUSH2 0x4A03 JUMP JUMPDEST POP PUSH1 0x1 PUSH1 0x1 PUSH1 0xA0 SHL SUB DUP5 AND PUSH1 0x0 SWAP1 DUP2 MSTORE PUSH1 0xA PUSH1 0x20 MSTORE PUSH1 0x40 SWAP1 KECCAK256 SLOAD PUSH2 0xBE3 DUP6 DUP8 DUP7 PUSH2 0x2E3A JUMP JUMPDEST PUSH1 0x0 PUSH2 0xBEE DUP7 PUSH2 0x2E72 JUMP JUMPDEST SWAP1 POP PUSH1 0x9 DUP3 DUP2 SLOAD DUP2 LT PUSH2 0xC03 JUMPI PUSH2 0xC03 PUSH2 0x5107 JUMP JUMPDEST PUSH1 0x0 SWAP2 DUP3 MSTORE PUSH1 0x20 SWAP1 SWAP2 KECCAK256 PUSH1 0x2 PUSH1 0x4 SWAP1 SWAP3 MUL ADD ADD SLOAD PUSH2 0xC2A SWAP1 PUSH1 0x1 PUSH1 0x1 PUSH1 0x70 SHL SUB AND DUP3 PUSH2 0x51A0 JUMP JUMPDEST SWAP5 POP PUSH1 0x0 DUP6 GT PUSH1 0x40 MLOAD DUP1 PUSH1 0x40 ADD PUSH1 0x40 MSTORE DUP1 PUSH1 0x1 DUP2 MSTORE PUSH1 0x20 ADD PUSH1 0x23 PUSH1 0xF9 SHL DUP2 MSTORE POP SWAP1 PUSH2 0xC68 JUMPI PUSH1 0x40 MLOAD PUSH3 0x461BCD PUSH1 0xE5 SHL DUP2 MSTORE PUSH1 0x4 ADD PUSH2 0x947 SWAP2 SWAP1 PUSH2 0x4A03 JUMP JUMPDEST POP PUSH1 0xD SLOAD PUSH1 0x0 SWAP1 PUSH2 0xC81 SWAP1 PUSH1 0x1 PUSH1 0x1 PUSH1 0xA0 SHL SUB AND PUSH2 0x2E72 JUMP JUMPDEST SWAP1 POP PUSH1 0x0 PUSH1 0xB SLOAD DUP3 PUSH2 0xC93 SWAP2 SWAP1 PUSH2 0x51A0 JUMP JUMPDEST SWAP1 POP PUSH1 0x0 DUP2 PUSH1 0x9 DUP7 DUP2 SLOAD DUP2 LT PUSH2 0xCAB JUMPI PUSH2 0xCAB PUSH2 0x5107 JUMP JUMPDEST PUSH1 0x0 SWAP2 DUP3 MSTORE PUSH1 0x20 SWAP1 SWAP2 KECCAK256 PUSH1 0x2 PUSH1 0x4 SWAP1 SWAP3 MUL ADD ADD SLOAD PUSH1 0x9 DUP1 SLOAD PUSH1 0x1 PUSH1 0x1 PUSH1 0x70 SHL SUB SWAP1 SWAP3 AND SWAP2 DUP9 SWAP1 DUP2 LT PUSH2 0xCDF JUMPI PUSH2 0xCDF PUSH2 0x5107 JUMP JUMPDEST PUSH1 0x0 SWAP2 DUP3 MSTORE PUSH1 0x20 SWAP1 SWAP2 KECCAK256 PUSH1 0x4 SWAP1 SWAP2 MUL ADD PUSH1 0x2 ADD SLOAD PUSH2 0xD0D SWAP1 PUSH1 0x1 PUSH1 0x70 SHL SWAP1 DIV PUSH1 0x1 PUSH1 0x1 PUSH1 0x70 SHL SUB AND DUP12 PUSH2 0x51B7 JUMP JUMPDEST PUSH2 0xD17 SWAP2 SWAP1 PUSH2 0x51EC JUMP JUMPDEST PUSH2 0xD21 SWAP2 SWAP1 PUSH2 0x51A0 JUMP JUMPDEST SWAP1 POP PUSH1 0x0 PUSH1 0x9 DUP7 DUP2 SLOAD DUP2 LT PUSH2 0xD38 JUMPI PUSH2 0xD38 PUSH2 0x5107 JUMP JUMPDEST PUSH1 0x0 SWAP2 DUP3 MSTORE PUSH1 0x20 DUP3 KECCAK256 PUSH1 0x3 PUSH1 0x4 SWAP1 SWAP3 MUL ADD ADD SLOAD PUSH1 0x9 DUP1 SLOAD PUSH1 0x1 PUSH1 0x1 PUSH1 0x70 SHL SUB SWAP1 SWAP3 AND SWAP4 POP PUSH2 0xDDD SWAP2 DUP10 SWAP1 DUP2 LT PUSH2 0xD70 JUMPI PUSH2 0xD70 PUSH2 0x5107 JUMP JUMPDEST SWAP1 PUSH1 0x0 MSTORE PUSH1 0x20 PUSH1 0x0 KECCAK256 SWAP1 PUSH1 0x4 MUL ADD PUSH1 0x2 ADD PUSH1 0xE SWAP1 SLOAD SWAP1 PUSH2 0x100 EXP SWAP1 DIV PUSH1 0x1 PUSH1 0x1 PUSH1 0x70 SHL SUB AND PUSH1 0x1 PUSH1 0x1 PUSH1 0x70 SHL SUB AND PUSH1 0x9 DUP10 DUP2 SLOAD DUP2 LT PUSH2 0xDB1 JUMPI PUSH2 0xDB1 PUSH2 0x5107 JUMP JUMPDEST PUSH1 0x0 SWAP2 DUP3 MSTORE PUSH1 0x20 SWAP1 SWAP2 KECCAK256 PUSH1 0x2 PUSH1 0x4 SWAP1 SWAP3 MUL ADD ADD SLOAD PUSH2 0xDD8 SWAP2 SWAP1 PUSH1 0x1 PUSH1 0x1 PUSH1 0x70 SHL SUB AND PUSH2 0x51B7 JUMP JUMPDEST PUSH2 0x2EFA JUMP JUMPDEST SWAP1 POP DUP5 PUSH1 0xB DUP2 SWAP1 SSTORE POP DUP1 PUSH1 0x9 DUP9 DUP2 SLOAD DUP2 LT PUSH2 0xDFA JUMPI PUSH2 0xDFA PUSH2 0x5107 JUMP JUMPDEST SWAP1 PUSH1 0x0 MSTORE PUSH1 0x20 PUSH1 0x0 KECCAK256 SWAP1 PUSH1 0x4 MUL ADD PUSH1 0x3 ADD PUSH1 0x0 PUSH2 0x100 EXP DUP2 SLOAD DUP2 PUSH1 0x1 PUSH1 0x1 PUSH1 0x70 SHL SUB MUL NOT AND SWAP1 DUP4 PUSH1 0x1 PUSH1 0x1 PUSH1 0x70 SHL SUB AND MUL OR SWAP1 SSTORE POP DUP6 PUSH1 0x9 DUP9 DUP2 SLOAD DUP2 LT PUSH2 0xE43 JUMPI PUSH2 0xE43 PUSH2 0x5107 JUMP JUMPDEST PUSH1 0x0 SWAP2 DUP3 MSTORE PUSH1 0x20 SWAP1 SWAP2 KECCAK256 PUSH1 0x4 SWAP1 SWAP2 MUL ADD PUSH1 0x2 ADD DUP1 SLOAD PUSH1 0x1 PUSH1 0x1 PUSH1 0x70 SHL SUB NOT AND PUSH1 0x1 PUSH1 0x1 PUSH1 0x70 SHL SUB SWAP3 SWAP1 SWAP3 AND SWAP2 SWAP1 SWAP2 OR SWAP1 SSTORE PUSH2 0xE7E DUP4 DUP6 PUSH2 0x5200 JUMP JUMPDEST PUSH1 0x9 DUP9 DUP2 SLOAD DUP2 LT PUSH2 0xE91 JUMPI PUSH2 0xE91 PUSH2 0x5107 JUMP JUMPDEST SWAP1 PUSH1 0x0 MSTORE PUSH1 0x20 PUSH1 0x0 KECCAK256 SWAP1 PUSH1 0x4 MUL ADD PUSH1 0x2 ADD PUSH1 0xE SWAP1 SLOAD SWAP1 PUSH2 0x100 EXP SWAP1 DIV PUSH1 0x1 PUSH1 0x1 PUSH1 0x70 SHL SUB AND PUSH2 0xEC0 SWAP2 SWAP1 PUSH2 0x5218 JUMP JUMPDEST PUSH1 0x9 DUP9 DUP2 SLOAD DUP2 LT PUSH2 0xED3 JUMPI PUSH2 0xED3 PUSH2 0x5107 JUMP JUMPDEST PUSH1 0x0 SWAP2 DUP3 MSTORE PUSH1 0x20 SWAP1 SWAP2 KECCAK256 PUSH1 0x4 SWAP2 DUP3 MUL ADD PUSH1 0x2 ADD DUP1 SLOAD PUSH1 0x1 PUSH1 0x70 SHL PUSH1 0x1 PUSH1 0xE0 SHL SUB NOT AND PUSH1 0x1 PUSH1 0x70 SHL PUSH1 0x1 PUSH1 0x1 PUSH1 0x70 SHL SUB SWAP5 SWAP1 SWAP5 AND SWAP4 SWAP1 SWAP4 MUL SWAP3 SWAP1 SWAP3 OR SWAP1 SWAP2 SSTORE PUSH1 0xD SLOAD PUSH1 0x40 MLOAD PUSH4 0xBB9FF5D PUSH1 0xE0 SHL DUP2 MSTORE ADDRESS SWAP3 DUP2 ADD SWAP3 SWAP1 SWAP3 MSTORE PUSH1 0x24 DUP3 ADD DUP6 SWAP1 MSTORE PUSH1 0x1 PUSH1 0x1 PUSH1 0xA0 SHL SUB AND SWAP1 PUSH4 0xBB9FF5D SWAP1 PUSH1 0x44 ADD PUSH1 0x0 PUSH1 0x40 MLOAD DUP1 DUP4 SUB DUP2 PUSH1 0x0 DUP8 DUP1 EXTCODESIZE ISZERO DUP1 ISZERO PUSH2 0xF5D JUMPI PUSH1 0x0 DUP1 REVERT JUMPDEST POP GAS CALL ISZERO DUP1 ISZERO PUSH2 0xF71 JUMPI RETURNDATASIZE PUSH1 0x0 DUP1 RETURNDATACOPY RETURNDATASIZE PUSH1 0x0 REVERT JUMPDEST POP POP POP PUSH1 0x0 DUP9 DUP2 MSTORE PUSH1 0x3 PUSH1 0x20 MSTORE PUSH1 0x40 DUP2 KECCAK256 SLOAD PUSH1 0x9 DUP1 SLOAD SWAP2 SWAP4 POP SWAP1 DUP11 SWAP1 DUP2 LT PUSH2 0xF9B JUMPI PUSH2 0xF9B PUSH2 0x5107 JUMP JUMPDEST PUSH1 0x0 SWAP2 DUP3 MSTORE PUSH1 0x20 SWAP1 SWAP2 KECCAK256 PUSH1 0x2 PUSH1 0x4 SWAP1 SWAP3 MUL ADD ADD SLOAD PUSH1 0x1 PUSH1 0x1 PUSH1 0x70 SHL SUB AND PUSH2 0xFC2 DUP4 DUP15 PUSH2 0x51B7 JUMP JUMPDEST PUSH2 0xFCC SWAP2 SWAP1 PUSH2 0x51EC JUMP JUMPDEST SWAP1 POP PUSH2 0xFE9 DUP12 DUP11 DUP4 PUSH1 0x40 MLOAD DUP1 PUSH1 0x20 ADD PUSH1 0x40 MSTORE DUP1 PUSH1 0x0 DUP2 MSTORE POP PUSH2 0x2F53 JUMP JUMPDEST PUSH1 0x0 PUSH2 0x1008 DUP6 PUSH1 0x1 PUSH1 0x1 PUSH1 0x70 SHL SUB AND DUP6 PUSH1 0x1 PUSH1 0x1 PUSH1 0x70 SHL SUB AND DUP6 PUSH2 0x3063 JUMP JUMPDEST SWAP1 POP DUP1 ISZERO PUSH2 0x1039 JUMPI PUSH1 0x10 SLOAD PUSH1 0x40 DUP1 MLOAD PUSH1 0x20 DUP2 ADD SWAP1 SWAP2 MSTORE PUSH1 0x0 DUP2 MSTORE PUSH2 0x1039 SWAP2 PUSH1 0x1 PUSH1 0x1 PUSH1 0xA0 SHL SUB AND SWAP1 DUP13 SWAP1 DUP5 SWAP1 PUSH2 0x2F53 JUMP JUMPDEST POP POP POP POP POP POP POP POP POP POP POP POP POP POP POP JUMP JUMPDEST PUSH1 0x60 PUSH1 0x8 DUP3 PUSH1 0x40 MLOAD PUSH1 0x20 ADD PUSH2 0x1060 SWAP3 SWAP2 SWAP1 PUSH2 0x5243 JUMP JUMPDEST PUSH1 0x40 MLOAD PUSH1 0x20 DUP2 DUP4 SUB SUB DUP2 MSTORE SWAP1 PUSH1 0x40 MSTORE SWAP1 POP SWAP2 SWAP1 POP JUMP JUMPDEST PUSH1 0x0 DUP1 PUSH1 0x0 JUMPDEST PUSH1 0x0 PUSH1 0x3 DUP2 PUSH2 0x108A DUP6 PUSH2 0x5133 JUMP JUMPDEST SWAP5 POP DUP5 DUP2 MSTORE PUSH1 0x20 ADD SWAP1 DUP2 MSTORE PUSH1 0x20 ADD PUSH1 0x0 KECCAK256 SLOAD GT ISZERO PUSH2 0x973 JUMPI PUSH1 0x0 DUP3 DUP2 MSTORE PUSH1 0x3 PUSH1 0x20 MSTORE PUSH1 0x40 SWAP1 KECCAK256 SLOAD PUSH2 0x10BB SWAP1 DUP3 PUSH2 0x5200 JUMP JUMPDEST SWAP1 POP PUSH2 0x107C JUMP JUMPDEST PUSH1 0x1 PUSH1 0x1 PUSH1 0xA0 SHL SUB DUP6 AND CALLER EQ DUP1 PUSH2 0x10DE JUMPI POP PUSH2 0x10DE DUP6 CALLER PUSH2 0x7FF JUMP JUMPDEST PUSH2 0x1145 JUMPI PUSH1 0x40 MLOAD PUSH3 0x461BCD PUSH1 0xE5 SHL DUP2 MSTORE PUSH1 0x20 PUSH1 0x4 DUP3 ADD MSTORE PUSH1 0x32 PUSH1 0x24 DUP3 ADD MSTORE PUSH32 0x455243313135353A207472616E736665722063616C6C6572206973206E6F7420 PUSH1 0x44 DUP3 ADD MSTORE PUSH18 0x1BDDDB995C881B9BDC88185C1C1C9BDD9959 PUSH1 0x72 SHL PUSH1 0x64 DUP3 ADD MSTORE PUSH1 0x84 ADD PUSH2 0x947 JUMP JUMPDEST PUSH2 0x1152 DUP6 DUP6 DUP6 DUP6 DUP6 PUSH2 0x30B5 JUMP JUMPDEST POP POP POP POP POP JUMP JUMPDEST PUSH1 0x0 DUP3 DUP2 MSTORE PUSH1 0x4 PUSH1 0x20 MSTORE PUSH1 0x40 SWAP1 KECCAK256 PUSH1 0x1 ADD SLOAD PUSH2 0x1175 DUP2 CALLER PUSH2 0x2DCC JUMP JUMPDEST PUSH2 0x117F DUP4 DUP4 PUSH2 0x32A0 JUMP JUMPDEST POP POP POP JUMP JUMPDEST PUSH1 0x1 PUSH1 0x1 PUSH1 0xA0 SHL SUB DUP2 AND CALLER EQ PUSH2 0x11F4 JUMPI PUSH1 0x40 MLOAD PUSH3 0x461BCD PUSH1 0xE5 SHL DUP2 MSTORE PUSH1 0x20 PUSH1 0x4 DUP3 ADD MSTORE PUSH1 0x2F PUSH1 0x24 DUP3 ADD MSTORE PUSH32 0x416363657373436F6E74726F6C3A2063616E206F6E6C792072656E6F756E6365 PUSH1 0x44 DUP3 ADD MSTORE PUSH15 0x103937B632B9903337B91039B2B633 PUSH1 0x89 SHL PUSH1 0x64 DUP3 ADD MSTORE PUSH1 0x84 ADD PUSH2 0x947 JUMP JUMPDEST PUSH2 0x11FE DUP3 DUP3 PUSH2 0x32C2 JUMP JUMPDEST POP POP JUMP JUMPDEST PUSH1 0x0 PUSH2 0x120E DUP2 CALLER PUSH2 0x2DCC JUMP JUMPDEST DUP3 MLOAD PUSH2 0x1221 SWAP1 PUSH1 0x6 SWAP1 PUSH1 0x20 DUP7 ADD SWAP1 PUSH2 0x4700 JUMP JUMPDEST POP DUP2 MLOAD PUSH2 0xA40 SWAP1 PUSH1 0x7 SWAP1 PUSH1 0x20 DUP6 ADD SWAP1 PUSH2 0x4700 JUMP JUMPDEST PUSH1 0xD SLOAD PUSH1 0x0 SWAP1 PUSH1 0x1 PUSH1 0x1 PUSH1 0xA0 SHL SUB DUP6 DUP2 AND SWAP2 AND EQ DUP1 ISZERO SWAP1 PUSH2 0x1263 JUMPI POP PUSH1 0xD SLOAD PUSH1 0x1 PUSH1 0x1 PUSH1 0xA0 SHL SUB DUP5 DUP2 AND SWAP2 AND EQ JUMPDEST ISZERO PUSH2 0x1279 JUMPI PUSH2 0x1272 DUP5 DUP4 PUSH2 0x32E4 JUMP JUMPDEST SWAP1 POP PUSH2 0x1300 JUMP JUMPDEST PUSH1 0xD SLOAD PUSH1 0x1 PUSH1 0x1 PUSH1 0xA0 SHL SUB DUP6 DUP2 AND SWAP2 AND EQ DUP1 ISZERO PUSH2 0x12A4 JUMPI POP PUSH1 0xD SLOAD PUSH1 0x1 PUSH1 0x1 PUSH1 0xA0 SHL SUB DUP5 DUP2 AND SWAP2 AND EQ ISZERO JUMPDEST ISZERO PUSH2 0x12B3 JUMPI PUSH2 0x1272 DUP4 DUP4 PUSH2 0x33F8 JUMP JUMPDEST PUSH1 0xD SLOAD PUSH1 0x1 PUSH1 0x1 PUSH1 0xA0 SHL SUB DUP6 DUP2 AND SWAP2 AND EQ DUP1 ISZERO SWAP1 PUSH2 0x12DF JUMPI POP PUSH1 0xD SLOAD PUSH1 0x1 PUSH1 0x1 PUSH1 0xA0 SHL SUB DUP6 DUP2 AND SWAP2 AND EQ ISZERO JUMPDEST ISZERO PUSH2 0x1300 JUMPI PUSH1 0x0 PUSH2 0x12F0 DUP6 DUP5 PUSH2 0x32E4 JUMP JUMPDEST SWAP1 POP PUSH2 0x12FC DUP5 DUP3 PUSH2 0x33F8 JUMP JUMPDEST SWAP2 POP POP JUMPDEST SWAP4 SWAP3 POP POP POP JUMP JUMPDEST PUSH1 0x60 DUP2 MLOAD DUP4 MLOAD EQ PUSH2 0x136C JUMPI PUSH1 0x40 MLOAD PUSH3 0x461BCD PUSH1 0xE5 SHL DUP2 MSTORE PUSH1 0x20 PUSH1 0x4 DUP3 ADD MSTORE PUSH1 0x29 PUSH1 0x24 DUP3 ADD MSTORE PUSH32 0x455243313135353A206163636F756E747320616E6420696473206C656E677468 PUSH1 0x44 DUP3 ADD MSTORE PUSH9 0x40DAD2E6DAC2E8C6D PUSH1 0xBB SHL PUSH1 0x64 DUP3 ADD MSTORE PUSH1 0x84 ADD PUSH2 0x947 JUMP JUMPDEST PUSH1 0x0 DUP4 MLOAD PUSH8 0xFFFFFFFFFFFFFFFF DUP2 GT ISZERO PUSH2 0x1388 JUMPI PUSH2 0x1388 PUSH2 0x4A69 JUMP JUMPDEST PUSH1 0x40 MLOAD SWAP1 DUP1 DUP3 MSTORE DUP1 PUSH1 0x20 MUL PUSH1 0x20 ADD DUP3 ADD PUSH1 0x40 MSTORE DUP1 ISZERO PUSH2 0x13B1 JUMPI DUP2 PUSH1 0x20 ADD PUSH1 0x20 DUP3 MUL DUP1 CALLDATASIZE DUP4 CALLDATACOPY ADD SWAP1 POP JUMPDEST POP SWAP1 POP PUSH1 0x0 JUMPDEST DUP5 MLOAD DUP2 LT ISZERO PUSH2 0x1429 JUMPI PUSH2 0x13FC DUP6 DUP3 DUP2 MLOAD DUP2 LT PUSH2 0x13D5 JUMPI PUSH2 0x13D5 PUSH2 0x5107 JUMP JUMPDEST PUSH1 0x20 MUL PUSH1 0x20 ADD ADD MLOAD DUP6 DUP4 DUP2 MLOAD DUP2 LT PUSH2 0x13EF JUMPI PUSH2 0x13EF PUSH2 0x5107 JUMP JUMPDEST PUSH1 0x20 MUL PUSH1 0x20 ADD ADD MLOAD PUSH2 0x8DF JUMP JUMPDEST DUP3 DUP3 DUP2 MLOAD DUP2 LT PUSH2 0x140E JUMPI PUSH2 0x140E PUSH2 0x5107 JUMP JUMPDEST PUSH1 0x20 SWAP1 DUP2 MUL SWAP2 SWAP1 SWAP2 ADD ADD MSTORE PUSH2 0x1422 DUP2 PUSH2 0x5133 JUMP JUMPDEST SWAP1 POP PUSH2 0x13B7 JUMP JUMPDEST POP SWAP4 SWAP3 POP POP POP JUMP JUMPDEST PUSH1 0x1 PUSH1 0x1 PUSH1 0xA0 SHL SUB DUP4 AND PUSH1 0x0 SWAP1 DUP2 MSTORE PUSH1 0xA PUSH1 0x20 MSTORE PUSH1 0x40 DUP2 KECCAK256 SLOAD DUP5 SWAP1 ISZERO DUP1 ISZERO SWAP1 PUSH2 0x1468 JUMPI POP PUSH1 0xD SLOAD PUSH1 0x1 PUSH1 0x1 PUSH1 0xA0 SHL SUB DUP3 DUP2 AND SWAP2 AND EQ ISZERO JUMPDEST PUSH1 0x40 MLOAD DUP1 PUSH1 0x40 ADD PUSH1 0x40 MSTORE DUP1 PUSH1 0x1 DUP2 MSTORE PUSH1 0x20 ADD PUSH1 0x43 PUSH1 0xF8 SHL DUP2 MSTORE POP SWAP1 PUSH2 0x14A0 JUMPI PUSH1 0x40 MLOAD PUSH3 0x461BCD PUSH1 0xE5 SHL DUP2 MSTORE PUSH1 0x4 ADD PUSH2 0x947 SWAP2 SWAP1 PUSH2 0x4A03 JUMP JUMPDEST POP PUSH1 0x1 PUSH1 0x1 PUSH1 0xA0 SHL SUB DUP1 DUP7 AND PUSH1 0x0 SWAP1 DUP2 MSTORE PUSH1 0xA PUSH1 0x20 MSTORE PUSH1 0x40 SWAP1 KECCAK256 SLOAD SWAP1 DUP8 AND ADDRESS EQ PUSH2 0x14E0 JUMPI PUSH2 0x14E0 DUP8 ADDRESS DUP4 DUP9 PUSH1 0x40 MLOAD DUP1 PUSH1 0x20 ADD PUSH1 0x40 MSTORE DUP1 PUSH1 0x0 DUP2 MSTORE POP PUSH2 0x2406 JUMP JUMPDEST PUSH1 0x0 PUSH2 0x14EB DUP8 PUSH2 0x2E72 JUMP JUMPDEST SWAP1 POP PUSH1 0x0 PUSH1 0x9 DUP4 DUP2 SLOAD DUP2 LT PUSH2 0x1502 JUMPI PUSH2 0x1502 PUSH2 0x5107 JUMP JUMPDEST PUSH1 0x0 SWAP2 DUP3 MSTORE PUSH1 0x20 SWAP1 SWAP2 KECCAK256 PUSH1 0x2 PUSH1 0x4 SWAP1 SWAP3 MUL ADD ADD SLOAD PUSH2 0x1529 SWAP1 PUSH1 0x1 PUSH1 0x1 PUSH1 0x70 SHL SUB AND DUP4 PUSH2 0x51A0 JUMP JUMPDEST PUSH1 0xB SLOAD PUSH1 0xD SLOAD SWAP2 SWAP3 POP PUSH1 0x0 SWAP2 PUSH2 0x1547 SWAP1 PUSH1 0x1 PUSH1 0x1 PUSH1 0xA0 SHL SUB AND PUSH2 0x2E72 JUMP JUMPDEST PUSH2 0x1551 SWAP2 SWAP1 PUSH2 0x51A0 JUMP JUMPDEST PUSH1 0x0 DUP6 DUP2 MSTORE PUSH1 0x3 PUSH1 0x20 MSTORE PUSH1 0x40 DUP2 KECCAK256 SLOAD PUSH1 0x9 DUP1 SLOAD SWAP4 SWAP5 POP SWAP1 SWAP3 DUP4 SWAP2 DUP13 SWAP2 DUP10 SWAP1 DUP2 LT PUSH2 0x157D JUMPI PUSH2 0x157D PUSH2 0x5107 JUMP JUMPDEST PUSH1 0x0 SWAP2 DUP3 MSTORE PUSH1 0x20 SWAP1 SWAP2 KECCAK256 PUSH1 0x2 PUSH1 0x4 SWAP1 SWAP3 MUL ADD ADD SLOAD PUSH2 0x15A4 SWAP2 SWAP1 PUSH1 0x1 PUSH1 0x1 PUSH1 0x70 SHL SUB AND PUSH2 0x51B7 JUMP JUMPDEST PUSH2 0x15AE SWAP2 SWAP1 PUSH2 0x51EC JUMP JUMPDEST SWAP1 POP PUSH1 0x0 DUP3 DUP12 PUSH1 0x9 DUP10 DUP2 SLOAD DUP2 LT PUSH2 0x15C7 JUMPI PUSH2 0x15C7 PUSH2 0x5107 JUMP JUMPDEST PUSH1 0x0 SWAP2 DUP3 MSTORE PUSH1 0x20 SWAP1 SWAP2 KECCAK256 PUSH1 0x4 SWAP1 SWAP2 MUL ADD PUSH1 0x2 ADD SLOAD PUSH2 0x15F5 SWAP2 SWAP1 PUSH1 0x1 PUSH1 0x70 SHL SWAP1 DIV PUSH1 0x1 PUSH1 0x1 PUSH1 0x70 SHL SUB AND PUSH2 0x51B7 JUMP JUMPDEST PUSH2 0x15FF SWAP2 SWAP1 PUSH2 0x51EC JUMP JUMPDEST SWAP1 POP PUSH1 0x0 PUSH1 0x9 DUP9 DUP2 SLOAD DUP2 LT PUSH2 0x1616 JUMPI PUSH2 0x1616 PUSH2 0x5107 JUMP JUMPDEST PUSH1 0x0 SWAP2 DUP3 MSTORE PUSH1 0x20 DUP3 KECCAK256 PUSH1 0x3 PUSH1 0x4 SWAP1 SWAP3 MUL ADD ADD SLOAD PUSH1 0x9 DUP1 SLOAD PUSH1 0x1 PUSH1 0x1 PUSH1 0x70 SHL SUB SWAP1 SWAP3 AND SWAP4 POP PUSH2 0x168F SWAP2 DUP12 SWAP1 DUP2 LT PUSH2 0x164E JUMPI PUSH2 0x164E PUSH2 0x5107 JUMP JUMPDEST SWAP1 PUSH1 0x0 MSTORE PUSH1 0x20 PUSH1 0x0 KECCAK256 SWAP1 PUSH1 0x4 MUL ADD PUSH1 0x2 ADD PUSH1 0xE SWAP1 SLOAD SWAP1 PUSH2 0x100 EXP SWAP1 DIV PUSH1 0x1 PUSH1 0x1 PUSH1 0x70 SHL SUB AND PUSH1 0x1 PUSH1 0x1 PUSH1 0x70 SHL SUB AND PUSH1 0x9 DUP12 DUP2 SLOAD DUP2 LT PUSH2 0xDB1 JUMPI PUSH2 0xDB1 PUSH2 0x5107 JUMP JUMPDEST SWAP1 POP DUP3 DUP7 PUSH1 0xB SLOAD PUSH2 0x16A0 SWAP2 SWAP1 PUSH2 0x5200 JUMP JUMPDEST PUSH2 0x16AA SWAP2 SWAP1 PUSH2 0x51A0 JUMP JUMPDEST PUSH1 0xB DUP2 SWAP1 SSTORE POP DUP1 PUSH1 0x9 DUP11 DUP2 SLOAD DUP2 LT PUSH2 0x16C4 JUMPI PUSH2 0x16C4 PUSH2 0x5107 JUMP JUMPDEST SWAP1 PUSH1 0x0 MSTORE PUSH1 0x20 PUSH1 0x0 KECCAK256 SWAP1 PUSH1 0x4 MUL ADD PUSH1 0x3 ADD PUSH1 0x0 PUSH2 0x100 EXP DUP2 SLOAD DUP2 PUSH1 0x1 PUSH1 0x1 PUSH1 0x70 SHL SUB MUL NOT AND SWAP1 DUP4 PUSH1 0x1 PUSH1 0x1 PUSH1 0x70 SHL SUB AND MUL OR SWAP1 SSTORE POP DUP4 DUP8 PUSH1 0x9 DUP12 DUP2 SLOAD DUP2 LT PUSH2 0x170E JUMPI PUSH2 0x170E PUSH2 0x5107 JUMP JUMPDEST PUSH1 0x0 SWAP2 DUP3 MSTORE PUSH1 0x20 SWAP1 SWAP2 KECCAK256 PUSH1 0x2 PUSH1 0x4 SWAP1 SWAP3 MUL ADD ADD SLOAD PUSH2 0x1735 SWAP2 SWAP1 PUSH1 0x1 PUSH1 0x1 PUSH1 0x70 SHL SUB AND PUSH2 0x5218 JUMP JUMPDEST PUSH2 0x173F SWAP2 SWAP1 PUSH2 0x52FA JUMP JUMPDEST PUSH1 0x9 DUP11 DUP2 SLOAD DUP2 LT PUSH2 0x1752 JUMPI PUSH2 0x1752 PUSH2 0x5107 JUMP JUMPDEST SWAP1 PUSH1 0x0 MSTORE PUSH1 0x20 PUSH1 0x0 KECCAK256 SWAP1 PUSH1 0x4 MUL ADD PUSH1 0x2 ADD PUSH1 0x0 PUSH2 0x100 EXP DUP2 SLOAD DUP2 PUSH1 0x1 PUSH1 0x1 PUSH1 0x70 SHL SUB MUL NOT AND SWAP1 DUP4 PUSH1 0x1 PUSH1 0x1 PUSH1 0x70 SHL SUB AND MUL OR SWAP1 SSTORE POP DUP3 DUP7 PUSH1 0x9 DUP12 DUP2 SLOAD DUP2 LT PUSH2 0x179C JUMPI PUSH2 0x179C PUSH2 0x5107 JUMP JUMPDEST SWAP1 PUSH1 0x0 MSTORE PUSH1 0x20 PUSH1 0x0 KECCAK256 SWAP1 PUSH1 0x4 MUL ADD PUSH1 0x2 ADD PUSH1 0xE SWAP1 SLOAD SWAP1 PUSH2 0x100 EXP SWAP1 DIV PUSH1 0x1 PUSH1 0x1 PUSH1 0x70 SHL SUB AND PUSH2 0x17CB SWAP2 SWAP1 PUSH2 0x5218 JUMP JUMPDEST PUSH2 0x17D5 SWAP2 SWAP1 PUSH2 0x52FA JUMP JUMPDEST PUSH1 0x9 DUP11 DUP2 SLOAD DUP2 LT PUSH2 0x17E8 JUMPI PUSH2 0x17E8 PUSH2 0x5107 JUMP JUMPDEST SWAP1 PUSH1 0x0 MSTORE PUSH1 0x20 PUSH1 0x0 KECCAK256 SWAP1 PUSH1 0x4 MUL ADD PUSH1 0x2 ADD PUSH1 0xE PUSH2 0x100 EXP DUP2 SLOAD DUP2 PUSH1 0x1 PUSH1 0x1 PUSH1 0x70 SHL SUB MUL NOT AND SWAP1 DUP4 PUSH1 0x1 PUSH1 0x1 PUSH1 0x70 SHL SUB AND MUL OR SWAP1 SSTORE POP PUSH2 0x1827 DUP10 DUP15 PUSH2 0x1E9C JUMP JUMPDEST PUSH1 0xD SLOAD PUSH1 0x40 MLOAD PUSH4 0x18A8AD87 PUSH1 0xE0 SHL DUP2 MSTORE ADDRESS PUSH1 0x4 DUP3 ADD MSTORE PUSH1 0x24 DUP2 ADD DUP6 SWAP1 MSTORE PUSH1 0x1 PUSH1 0x1 PUSH1 0xA0 SHL SUB SWAP1 SWAP2 AND SWAP1 PUSH4 0x18A8AD87 SWAP1 PUSH1 0x44 ADD PUSH1 0x0 PUSH1 0x40 MLOAD DUP1 DUP4 SUB DUP2 PUSH1 0x0 DUP8 DUP1 EXTCODESIZE ISZERO DUP1 ISZERO PUSH2 0x1873 JUMPI PUSH1 0x0 DUP1 REVERT JUMPDEST POP GAS CALL ISZERO DUP1 ISZERO PUSH2 0x1887 JUMPI RETURNDATASIZE PUSH1 0x0 DUP1 RETURNDATACOPY RETURNDATASIZE PUSH1 0x0 REVERT JUMPDEST POP POP POP POP PUSH1 0x0 PUSH2 0x18AA DUP4 PUSH1 0x1 PUSH1 0x1 PUSH1 0x70 SHL SUB AND DUP4 PUSH1 0x1 PUSH1 0x1 PUSH1 0x70 SHL SUB AND DUP9 PUSH2 0x3063 JUMP JUMPDEST SWAP1 POP DUP1 ISZERO PUSH2 0x18DB JUMPI PUSH1 0x10 SLOAD PUSH1 0x40 DUP1 MLOAD PUSH1 0x20 DUP2 ADD SWAP1 SWAP2 MSTORE PUSH1 0x0 DUP2 MSTORE PUSH2 0x18DB SWAP2 PUSH1 0x1 PUSH1 0x1 PUSH1 0xA0 SHL SUB AND SWAP1 DUP13 SWAP1 DUP5 SWAP1 PUSH2 0x2F53 JUMP JUMPDEST POP POP POP PUSH2 0x18E9 DUP13 DUP12 DUP5 PUSH2 0x3502 JUMP JUMPDEST PUSH1 0x0 PUSH2 0x18F4 DUP14 PUSH2 0x2E72 JUMP JUMPDEST SWAP1 POP DUP7 PUSH2 0x1901 DUP5 DUP4 PUSH2 0x5200 JUMP JUMPDEST EQ PUSH1 0x40 MLOAD DUP1 PUSH1 0x40 ADD PUSH1 0x40 MSTORE DUP1 PUSH1 0x1 DUP2 MSTORE PUSH1 0x20 ADD PUSH1 0x45 PUSH1 0xF8 SHL DUP2 MSTORE POP SWAP1 PUSH2 0x193A JUMPI PUSH1 0x40 MLOAD PUSH3 0x461BCD PUSH1 0xE5 SHL DUP2 MSTORE PUSH1 0x4 ADD PUSH2 0x947 SWAP2 SWAP1 PUSH2 0x4A03 JUMP JUMPDEST POP SWAP2 SWAP14 SWAP13 POP POP POP POP POP POP POP POP POP POP POP POP POP JUMP JUMPDEST PUSH1 0x0 DUP3 DUP2 MSTORE PUSH1 0x5 PUSH1 0x20 MSTORE PUSH1 0x40 DUP2 KECCAK256 PUSH2 0x1300 SWAP1 DUP4 PUSH2 0x353D JUMP JUMPDEST PUSH1 0x1 PUSH1 0x1 PUSH1 0xA0 SHL SUB DUP2 AND PUSH1 0x0 SWAP1 DUP2 MSTORE PUSH1 0xA PUSH1 0x20 MSTORE PUSH1 0x40 DUP2 KECCAK256 SLOAD PUSH2 0x973 SWAP1 PUSH2 0x3549 JUMP JUMPDEST PUSH1 0x0 SWAP2 DUP3 MSTORE PUSH1 0x4 PUSH1 0x20 SWAP1 DUP2 MSTORE PUSH1 0x40 DUP1 DUP5 KECCAK256 PUSH1 0x1 PUSH1 0x1 PUSH1 0xA0 SHL SUB SWAP4 SWAP1 SWAP4 AND DUP5 MSTORE SWAP2 SWAP1 MSTORE SWAP1 KECCAK256 SLOAD PUSH1 0xFF AND SWAP1 JUMP JUMPDEST PUSH1 0x60 PUSH1 0x7 DUP1 SLOAD PUSH2 0xACC SWAP1 PUSH2 0x516B JUMP JUMPDEST PUSH1 0x1 PUSH1 0x1 PUSH1 0xA0 SHL SUB DUP2 AND PUSH1 0x0 SWAP1 DUP2 MSTORE PUSH1 0xA PUSH1 0x20 MSTORE PUSH1 0x40 SWAP1 KECCAK256 SLOAD DUP2 SWAP1 ISZERO DUP1 ISZERO SWAP1 PUSH2 0x19F8 JUMPI POP PUSH1 0xD SLOAD PUSH1 0x1 PUSH1 0x1 PUSH1 0xA0 SHL SUB DUP3 DUP2 AND SWAP2 AND EQ ISZERO JUMPDEST PUSH1 0x40 MLOAD DUP1 PUSH1 0x40 ADD PUSH1 0x40 MSTORE DUP1 PUSH1 0x1 DUP2 MSTORE PUSH1 0x20 ADD PUSH1 0x43 PUSH1 0xF8 SHL DUP2 MSTORE POP SWAP1 PUSH2 0x1A30 JUMPI PUSH1 0x40 MLOAD PUSH3 0x461BCD PUSH1 0xE5 SHL DUP2 MSTORE PUSH1 0x4 ADD PUSH2 0x947 SWAP2 SWAP1 PUSH2 0x4A03 JUMP JUMPDEST POP PUSH1 0x1 PUSH1 0x1 PUSH1 0xA0 SHL SUB DUP3 AND PUSH1 0x0 SWAP1 DUP2 MSTORE PUSH1 0xA PUSH1 0x20 MSTORE PUSH1 0x40 SWAP1 KECCAK256 SLOAD PUSH2 0x1A53 DUP4 PUSH2 0x2E72 JUMP JUMPDEST PUSH1 0x9 DUP3 DUP2 SLOAD DUP2 LT PUSH2 0x1A66 JUMPI PUSH2 0x1A66 PUSH2 0x5107 JUMP JUMPDEST PUSH1 0x0 SWAP2 DUP3 MSTORE PUSH1 0x20 DUP3 KECCAK256 PUSH1 0x4 SWAP2 SWAP1 SWAP2 MUL ADD PUSH1 0x2 ADD DUP1 SLOAD PUSH1 0x1 PUSH1 0x1 PUSH1 0x70 SHL SUB NOT AND PUSH1 0x1 PUSH1 0x1 PUSH1 0x70 SHL SUB SWAP4 SWAP1 SWAP4 AND SWAP3 SWAP1 SWAP3 OR SWAP1 SWAP2 SSTORE PUSH1 0xD SLOAD PUSH2 0x1AAD SWAP1 PUSH1 0x1 PUSH1 0x1 PUSH1 0xA0 SHL SUB AND PUSH2 0x2E72 JUMP JUMPDEST SWAP1 POP PUSH1 0xB SLOAD DUP2 GT PUSH2 0x1B0D JUMPI DUP1 PUSH1 0xB SLOAD PUSH2 0x1AC6 SWAP2 SWAP1 PUSH2 0x51A0 JUMP JUMPDEST PUSH1 0x9 DUP4 DUP2 SLOAD DUP2 LT PUSH2 0x1AD9 JUMPI PUSH2 0x1AD9 PUSH2 0x5107 JUMP JUMPDEST SWAP1 PUSH1 0x0 MSTORE PUSH1 0x20 PUSH1 0x0 KECCAK256 SWAP1 PUSH1 0x4 MUL ADD PUSH1 0x2 ADD PUSH1 0xE SWAP1 SLOAD SWAP1 PUSH2 0x100 EXP SWAP1 DIV PUSH1 0x1 PUSH1 0x1 PUSH1 0x70 SHL SUB AND PUSH2 0x1B08 SWAP2 SWAP1 PUSH2 0x52FA JUMP JUMPDEST PUSH2 0x1B5C JUMP JUMPDEST PUSH1 0xB SLOAD PUSH2 0x1B1A SWAP1 DUP3 PUSH2 0x51A0 JUMP JUMPDEST PUSH1 0x9 DUP4 DUP2 SLOAD DUP2 LT PUSH2 0x1B2D JUMPI PUSH2 0x1B2D PUSH2 0x5107 JUMP JUMPDEST SWAP1 PUSH1 0x0 MSTORE PUSH1 0x20 PUSH1 0x0 KECCAK256 SWAP1 PUSH1 0x4 MUL ADD PUSH1 0x2 ADD PUSH1 0xE SWAP1 SLOAD SWAP1 PUSH2 0x100 EXP SWAP1 DIV PUSH1 0x1 PUSH1 0x1 PUSH1 0x70 SHL SUB AND PUSH2 0x1B5C SWAP2 SWAP1 PUSH2 0x5218 JUMP JUMPDEST PUSH1 0x9 DUP4 DUP2 SLOAD DUP2 LT PUSH2 0x1B6F JUMPI PUSH2 0x1B6F PUSH2 0x5107 JUMP JUMPDEST PUSH1 0x0 SWAP2 DUP3 MSTORE PUSH1 0x20 SWAP1 SWAP2 KECCAK256 PUSH1 0x2 PUSH1 0x4 SWAP1 SWAP3 MUL ADD ADD DUP1 SLOAD PUSH1 0x1 PUSH1 0x1 PUSH1 0x70 SHL SUB SWAP3 SWAP1 SWAP3 AND PUSH1 0x1 PUSH1 0x70 SHL MUL PUSH1 0x1 PUSH1 0x70 SHL PUSH1 0x1 PUSH1 0xE0 SHL SUB NOT SWAP1 SWAP3 AND SWAP2 SWAP1 SWAP2 OR SWAP1 SSTORE PUSH1 0xB SSTORE POP POP POP JUMP JUMPDEST PUSH2 0x11FE CALLER DUP4 DUP4 PUSH2 0x3703 JUMP JUMPDEST PUSH1 0x0 DUP1 DUP4 DUP1 TIMESTAMP GT ISZERO PUSH1 0x40 MLOAD DUP1 PUSH1 0x40 ADD PUSH1 0x40 MSTORE DUP1 PUSH1 0x1 DUP2 MSTORE PUSH1 0x20 ADD PUSH1 0x11 PUSH1 0xFA SHL DUP2 MSTORE POP SWAP1 PUSH2 0x1BFE JUMPI PUSH1 0x40 MLOAD PUSH3 0x461BCD PUSH1 0xE5 SHL DUP2 MSTORE PUSH1 0x4 ADD PUSH2 0x947 SWAP2 SWAP1 PUSH2 0x4A03 JUMP JUMPDEST POP PUSH1 0x40 DUP1 MLOAD DUP1 DUP3 ADD SWAP1 SWAP2 MSTORE PUSH1 0x1 DUP2 MSTORE PUSH1 0x4F PUSH1 0xF8 SHL PUSH1 0x20 DUP3 ADD MSTORE DUP8 PUSH2 0x1C35 JUMPI PUSH1 0x40 MLOAD PUSH3 0x461BCD PUSH1 0xE5 SHL DUP2 MSTORE PUSH1 0x4 ADD PUSH2 0x947 SWAP2 SWAP1 PUSH2 0x4A03 JUMP JUMPDEST POP PUSH1 0xD SLOAD CALLER SWAP1 PUSH1 0x0 SWAP1 PUSH1 0x1 PUSH1 0x1 PUSH1 0xA0 SHL SUB DUP13 DUP2 AND SWAP2 AND EQ DUP1 ISZERO SWAP1 PUSH2 0x1C66 JUMPI POP PUSH1 0xD SLOAD PUSH1 0x1 PUSH1 0x1 PUSH1 0xA0 SHL SUB DUP12 DUP2 AND SWAP2 AND EQ JUMPDEST ISZERO PUSH2 0x1CD1 JUMPI PUSH2 0x1C75 DUP12 DUP11 PUSH2 0x32E4 JUMP JUMPDEST SWAP1 POP DUP8 DUP2 LT ISZERO PUSH1 0x40 MLOAD DUP1 PUSH1 0x40 ADD PUSH1 0x40 MSTORE DUP1 PUSH1 0x1 DUP2 MSTORE PUSH1 0x20 ADD PUSH1 0x9 PUSH1 0xFB SHL DUP2 MSTORE POP SWAP1 PUSH2 0x1CB3 JUMPI PUSH1 0x40 MLOAD PUSH3 0x461BCD PUSH1 0xE5 SHL DUP2 MSTORE PUSH1 0x4 ADD PUSH2 0x947 SWAP2 SWAP1 PUSH2 0x4A03 JUMP JUMPDEST POP PUSH2 0x1CBF DUP12 DUP4 DUP12 PUSH2 0x2E3A JUMP JUMPDEST PUSH2 0x1CCC DUP12 PUSH1 0x0 DUP4 DUP10 PUSH2 0x2413 JUMP JUMPDEST PUSH2 0x1E44 JUMP JUMPDEST PUSH1 0xD SLOAD PUSH1 0x1 PUSH1 0x1 PUSH1 0xA0 SHL SUB DUP13 DUP2 AND SWAP2 AND EQ DUP1 ISZERO PUSH2 0x1CFC JUMPI POP PUSH1 0xD SLOAD PUSH1 0x1 PUSH1 0x1 PUSH1 0xA0 SHL SUB DUP12 DUP2 AND SWAP2 AND EQ ISZERO JUMPDEST ISZERO PUSH2 0x1D62 JUMPI PUSH2 0x1D0B DUP11 DUP11 PUSH2 0x33F8 JUMP JUMPDEST SWAP1 POP DUP8 DUP2 LT ISZERO PUSH1 0x40 MLOAD DUP1 PUSH1 0x40 ADD PUSH1 0x40 MSTORE DUP1 PUSH1 0x1 DUP2 MSTORE PUSH1 0x20 ADD PUSH1 0x69 PUSH1 0xF8 SHL DUP2 MSTORE POP SWAP1 PUSH2 0x1D49 JUMPI PUSH1 0x40 MLOAD PUSH3 0x461BCD PUSH1 0xE5 SHL DUP2 MSTORE PUSH1 0x4 ADD PUSH2 0x947 SWAP2 SWAP1 PUSH2 0x4A03 JUMP JUMPDEST POP PUSH2 0x1D55 DUP12 DUP4 DUP12 PUSH2 0x2E3A JUMP JUMPDEST PUSH2 0x1CCC DUP11 DUP3 PUSH1 0x0 DUP10 PUSH2 0x2413 JUMP JUMPDEST PUSH1 0xD SLOAD PUSH1 0x1 PUSH1 0x1 PUSH1 0xA0 SHL SUB DUP13 DUP2 AND SWAP2 AND EQ DUP1 ISZERO SWAP1 PUSH2 0x1D8E JUMPI POP PUSH1 0xD SLOAD PUSH1 0x1 PUSH1 0x1 PUSH1 0xA0 SHL SUB DUP13 DUP2 AND SWAP2 AND EQ ISZERO JUMPDEST ISZERO PUSH2 0x1E15 JUMPI PUSH1 0x0 PUSH2 0x1D9F DUP13 DUP12 PUSH2 0x32E4 JUMP JUMPDEST SWAP1 POP PUSH2 0x1DAB DUP12 DUP3 PUSH2 0x33F8 JUMP JUMPDEST SWAP2 POP DUP9 DUP3 LT ISZERO PUSH1 0x40 MLOAD DUP1 PUSH1 0x40 ADD PUSH1 0x40 MSTORE DUP1 PUSH1 0x1 DUP2 MSTORE PUSH1 0x20 ADD PUSH1 0x69 PUSH1 0xF8 SHL DUP2 MSTORE POP SWAP1 PUSH2 0x1DE9 JUMPI PUSH1 0x40 MLOAD PUSH3 0x461BCD PUSH1 0xE5 SHL DUP2 MSTORE PUSH1 0x4 ADD PUSH2 0x947 SWAP2 SWAP1 PUSH2 0x4A03 JUMP JUMPDEST POP PUSH2 0x1DF5 DUP13 DUP5 DUP13 PUSH2 0x2E3A JUMP JUMPDEST PUSH2 0x1E02 DUP13 PUSH1 0x0 DUP4 ADDRESS PUSH2 0x2413 JUMP JUMPDEST PUSH2 0x1E0F DUP12 DUP4 PUSH1 0x0 DUP11 PUSH2 0x2413 JUMP JUMPDEST POP PUSH2 0x1E44 JUMP JUMPDEST PUSH1 0x40 DUP1 MLOAD DUP1 DUP3 ADD DUP3 MSTORE PUSH1 0x1 DUP2 MSTORE PUSH1 0x13 PUSH1 0xFA SHL PUSH1 0x20 DUP3 ADD MSTORE SWAP1 MLOAD PUSH3 0x461BCD PUSH1 0xE5 SHL DUP2 MSTORE PUSH2 0x947 SWAP2 SWAP1 PUSH1 0x4 ADD PUSH2 0x4A03 JUMP JUMPDEST SWAP8 SWAP11 SWAP8 SWAP10 POP SWAP7 SWAP8 POP POP POP POP POP POP POP POP JUMP JUMPDEST PUSH1 0x0 PUSH2 0x1E61 DUP2 CALLER PUSH2 0x2DCC JUMP JUMPDEST PUSH2 0x1E89 DUP3 PUSH1 0x40 MLOAD PUSH1 0x20 ADD PUSH2 0x1E75 SWAP2 SWAP1 PUSH2 0x5322 JUMP JUMPDEST PUSH1 0x40 MLOAD PUSH1 0x20 DUP2 DUP4 SUB SUB DUP2 MSTORE SWAP1 PUSH1 0x40 MSTORE PUSH2 0x37E4 JUMP JUMPDEST DUP2 MLOAD PUSH2 0x117F SWAP1 PUSH1 0x8 SWAP1 PUSH1 0x20 DUP6 ADD SWAP1 PUSH2 0x4700 JUMP JUMPDEST PUSH2 0x11FE CALLER DUP4 DUP4 PUSH2 0x37F7 JUMP JUMPDEST PUSH2 0x1EAF PUSH2 0x4784 JUMP JUMPDEST PUSH1 0x1 PUSH1 0x1 PUSH1 0xA0 SHL SUB DUP3 AND PUSH1 0x0 SWAP1 DUP2 MSTORE PUSH1 0xA PUSH1 0x20 MSTORE PUSH1 0x40 SWAP1 KECCAK256 SLOAD PUSH1 0x9 DUP1 SLOAD SWAP1 SWAP2 SWAP1 DUP2 LT PUSH2 0x1EDD JUMPI PUSH2 0x1EDD PUSH2 0x5107 JUMP JUMPDEST PUSH1 0x0 SWAP2 DUP3 MSTORE PUSH1 0x20 SWAP2 DUP3 SWAP1 KECCAK256 PUSH1 0x40 DUP1 MLOAD PUSH1 0xA0 DUP2 ADD DUP3 MSTORE PUSH1 0x4 SWAP1 SWAP4 MUL SWAP1 SWAP2 ADD DUP1 SLOAD PUSH1 0x1 PUSH1 0x1 PUSH1 0xA0 SHL SUB AND DUP4 MSTORE DUP2 MLOAD PUSH2 0x100 DUP2 ADD SWAP1 SWAP3 MSTORE SWAP2 SWAP3 DUP4 ADD SWAP1 PUSH1 0x1 DUP4 ADD PUSH1 0x8 DUP3 DUP3 DUP3 PUSH1 0x20 MUL DUP3 ADD SWAP2 PUSH1 0x0 SWAP1 JUMPDEST DUP3 DUP3 SWAP1 SLOAD SWAP1 PUSH2 0x100 EXP SWAP1 DIV PUSH4 0xFFFFFFFF AND PUSH4 0xFFFFFFFF AND DUP2 MSTORE PUSH1 0x20 ADD SWAP1 PUSH1 0x4 ADD SWAP1 PUSH1 0x20 DUP3 PUSH1 0x3 ADD DIV SWAP3 DUP4 ADD SWAP3 PUSH1 0x1 SUB DUP3 MUL SWAP2 POP DUP1 DUP5 GT PUSH2 0x1F29 JUMPI POP POP POP SWAP3 DUP5 MSTORE POP POP POP PUSH1 0x2 DUP3 ADD SLOAD PUSH1 0x1 PUSH1 0x1 PUSH1 0x70 SHL SUB DUP1 DUP3 AND PUSH1 0x20 DUP5 ADD MSTORE PUSH1 0x1 PUSH1 0x70 SHL SWAP1 SWAP2 DIV DUP2 AND PUSH1 0x40 DUP4 ADD MSTORE PUSH1 0x3 SWAP1 SWAP3 ADD SLOAD SWAP1 SWAP2 AND PUSH1 0x60 SWAP1 SWAP2 ADD MSTORE SWAP3 SWAP2 POP POP JUMP JUMPDEST PUSH1 0xC SLOAD PUSH2 0x1FD1 SWAP1 PUSH1 0x1 PUSH1 0x1 PUSH1 0xA0 SHL SUB AND PUSH10 0xD3C21BCECCEDA1000000 PUSH10 0x69E10DE76676D0800000 CALLER PUSH2 0x210D JUMP JUMPDEST PUSH1 0xE SLOAD PUSH2 0x1FF3 SWAP1 PUSH1 0x1 PUSH1 0x1 PUSH1 0xA0 SHL SUB AND PUSH10 0x943B1377290CBD800000 DUP1 CALLER PUSH2 0x210D JUMP JUMPDEST JUMP JUMPDEST PUSH1 0xD SLOAD PUSH1 0x0 SWAP1 PUSH1 0x1 PUSH1 0x1 PUSH1 0xA0 SHL SUB DUP6 DUP2 AND SWAP2 AND EQ DUP1 ISZERO SWAP1 PUSH2 0x2023 JUMPI POP PUSH1 0xD SLOAD PUSH1 0x1 PUSH1 0x1 PUSH1 0xA0 SHL SUB DUP5 DUP2 AND SWAP2 AND EQ JUMPDEST ISZERO PUSH2 0x2032 JUMPI PUSH2 0x1272 DUP5 DUP4 PUSH2 0x3970 JUMP JUMPDEST PUSH1 0xD SLOAD PUSH1 0x1 PUSH1 0x1 PUSH1 0xA0 SHL SUB DUP6 DUP2 AND SWAP2 AND EQ DUP1 ISZERO PUSH2 0x205D JUMPI POP PUSH1 0xD SLOAD PUSH1 0x1 PUSH1 0x1 PUSH1 0xA0 SHL SUB DUP5 DUP2 AND SWAP2 AND EQ ISZERO JUMPDEST ISZERO PUSH2 0x206C JUMPI PUSH2 0x1272 DUP4 DUP4 PUSH2 0x3A79 JUMP JUMPDEST PUSH1 0xD SLOAD PUSH1 0x1 PUSH1 0x1 PUSH1 0xA0 SHL SUB DUP6 DUP2 AND SWAP2 AND EQ DUP1 ISZERO SWAP1 PUSH2 0x2098 JUMPI POP PUSH1 0xD SLOAD PUSH1 0x1 PUSH1 0x1 PUSH1 0xA0 SHL SUB DUP5 DUP2 AND SWAP2 AND EQ ISZERO JUMPDEST ISZERO PUSH2 0x1300 JUMPI PUSH1 0x0 PUSH2 0x20A9 DUP5 DUP5 PUSH2 0x3A79 JUMP JUMPDEST SWAP1 POP PUSH2 0x12FC DUP6 DUP3 PUSH2 0x3970 JUMP JUMPDEST PUSH1 0x0 DUP2 DUP2 MSTORE PUSH1 0x5 PUSH1 0x20 MSTORE PUSH1 0x40 DUP2 KECCAK256 PUSH2 0x973 SWAP1 PUSH2 0x3B83 JUMP JUMPDEST PUSH2 0x20D4 PUSH2 0x4784 JUMP JUMPDEST PUSH1 0x9 DUP3 DUP2 SLOAD DUP2 LT PUSH2 0x1EDD JUMPI PUSH2 0x1EDD PUSH2 0x5107 JUMP JUMPDEST PUSH1 0x0 DUP3 DUP2 MSTORE PUSH1 0x4 PUSH1 0x20 MSTORE PUSH1 0x40 SWAP1 KECCAK256 PUSH1 0x1 ADD SLOAD PUSH2 0x2103 DUP2 CALLER PUSH2 0x2DCC JUMP JUMPDEST PUSH2 0x117F DUP4 DUP4 PUSH2 0x32C2 JUMP JUMPDEST PUSH1 0x1 PUSH1 0x1 PUSH1 0xA0 SHL SUB DUP5 AND PUSH1 0x0 SWAP1 DUP2 MSTORE PUSH1 0xA PUSH1 0x20 MSTORE PUSH1 0x40 SWAP1 KECCAK256 SLOAD DUP5 SWAP1 ISZERO DUP1 ISZERO PUSH2 0x2143 JUMPI POP PUSH1 0xD SLOAD PUSH1 0x1 PUSH1 0x1 PUSH1 0xA0 SHL SUB DUP3 DUP2 AND SWAP2 AND EQ ISZERO JUMPDEST PUSH1 0x40 MLOAD DUP1 PUSH1 0x40 ADD PUSH1 0x40 MSTORE DUP1 PUSH1 0x1 DUP2 MSTORE PUSH1 0x20 ADD PUSH1 0x21 PUSH1 0xF9 SHL DUP2 MSTORE POP SWAP1 PUSH2 0x217B JUMPI PUSH1 0x40 MLOAD PUSH3 0x461BCD PUSH1 0xE5 SHL DUP2 MSTORE PUSH1 0x4 ADD PUSH2 0x947 SWAP2 SWAP1 PUSH2 0x4A03 JUMP JUMPDEST POP PUSH1 0x9 SLOAD PUSH2 0x218A DUP7 CALLER DUP8 PUSH2 0x2E3A JUMP JUMPDEST PUSH1 0xD SLOAD PUSH1 0x40 MLOAD PUSH4 0xBB9FF5D PUSH1 0xE0 SHL DUP2 MSTORE ADDRESS PUSH1 0x4 DUP3 ADD MSTORE PUSH1 0x24 DUP2 ADD DUP7 SWAP1 MSTORE PUSH1 0x1 PUSH1 0x1 PUSH1 0xA0 SHL SUB SWAP1 SWAP2 AND SWAP1 PUSH4 0xBB9FF5D SWAP1 PUSH1 0x44 ADD PUSH1 0x0 PUSH1 0x40 MLOAD DUP1 DUP4 SUB DUP2 PUSH1 0x0 DUP8 DUP1 EXTCODESIZE ISZERO DUP1 ISZERO PUSH2 0x21D6 JUMPI PUSH1 0x0 DUP1 REVERT JUMPDEST POP GAS CALL ISZERO DUP1 ISZERO PUSH2 0x21EA JUMPI RETURNDATASIZE PUSH1 0x0 DUP1 RETURNDATACOPY RETURNDATASIZE PUSH1 0x0 REVERT JUMPDEST POP POP POP POP PUSH2 0x21F7 DUP7 PUSH2 0x2E72 JUMP JUMPDEST SWAP5 POP PUSH1 0x0 DUP6 GT PUSH1 0x40 MLOAD DUP1 PUSH1 0x40 ADD PUSH1 0x40 MSTORE DUP1 PUSH1 0x1 DUP2 MSTORE PUSH1 0x20 ADD PUSH1 0x23 PUSH1 0xF9 SHL DUP2 MSTORE POP SWAP1 PUSH2 0x2235 JUMPI PUSH1 0x40 MLOAD PUSH3 0x461BCD PUSH1 0xE5 SHL DUP2 MSTORE PUSH1 0x4 ADD PUSH2 0x947 SWAP2 SWAP1 PUSH2 0x4A03 JUMP JUMPDEST POP PUSH1 0x0 PUSH2 0x2245 PUSH2 0xDD8 DUP7 DUP9 PUSH2 0x51B7 JUMP JUMPDEST SWAP1 POP PUSH2 0x224F PUSH2 0x47C2 JUMP JUMPDEST PUSH1 0x40 DUP1 MLOAD PUSH1 0xA0 DUP2 ADD DUP3 MSTORE PUSH1 0x1 PUSH1 0x1 PUSH1 0xA0 SHL SUB DUP11 DUP2 AND DUP3 MSTORE PUSH1 0x20 DUP3 ADD DUP5 DUP2 MSTORE PUSH1 0x1 PUSH1 0x1 PUSH1 0x70 SHL SUB DUP12 DUP2 AND SWAP5 DUP5 ADD SWAP5 SWAP1 SWAP5 MSTORE DUP10 DUP5 AND PUSH1 0x60 DUP5 ADD MSTORE SWAP3 DUP6 AND PUSH1 0x80 DUP4 ADD MSTORE PUSH1 0x9 DUP1 SLOAD PUSH1 0x1 DUP2 ADD DUP3 SSTORE PUSH1 0x0 SWAP2 SWAP1 SWAP2 MSTORE DUP3 MLOAD PUSH32 0x6E1540171B6C0C960B71A7020D9F60077F6AF931A8BBF590DA0223DACF75C7AF PUSH1 0x4 SWAP1 SWAP3 MUL SWAP2 DUP3 ADD DUP1 SLOAD PUSH1 0x1 PUSH1 0x1 PUSH1 0xA0 SHL SUB NOT AND SWAP2 SWAP1 SWAP4 AND OR DUP3 SSTORE SWAP3 MLOAD SWAP2 SWAP3 DUP4 SWAP3 PUSH2 0x2311 SWAP2 PUSH32 0x6E1540171B6C0C960B71A7020D9F60077F6AF931A8BBF590DA0223DACF75C7B0 ADD SWAP1 PUSH1 0x8 PUSH2 0x47E1 JUMP JUMPDEST POP PUSH1 0x40 DUP3 DUP2 ADD MLOAD PUSH1 0x2 DUP4 ADD DUP1 SLOAD PUSH1 0x60 DUP7 ADD MLOAD PUSH1 0x1 PUSH1 0x1 PUSH1 0x70 SHL SUB SWAP1 DUP2 AND PUSH1 0x1 PUSH1 0x70 SHL MUL PUSH1 0x1 PUSH1 0x1 PUSH1 0xE0 SHL SUB NOT SWAP1 SWAP3 AND SWAP4 DUP2 AND SWAP4 SWAP1 SWAP4 OR OR SWAP1 SSTORE PUSH1 0x80 SWAP1 SWAP4 ADD MLOAD PUSH1 0x3 SWAP1 SWAP3 ADD DUP1 SLOAD SWAP3 SWAP1 SWAP4 AND PUSH1 0x1 PUSH1 0x1 PUSH1 0x70 SHL SUB NOT SWAP3 SWAP1 SWAP3 AND SWAP2 SWAP1 SWAP2 OR SWAP1 SWAP2 SSTORE PUSH1 0x1 PUSH1 0x1 PUSH1 0xA0 SHL SUB DUP11 AND PUSH1 0x0 SWAP1 DUP2 MSTORE PUSH1 0xA PUSH1 0x20 MSTORE SWAP1 DUP2 KECCAK256 DUP6 SWAP1 SSTORE PUSH1 0xB DUP1 SLOAD DUP10 SWAP3 SWAP1 PUSH2 0x239B SWAP1 DUP5 SWAP1 PUSH2 0x5200 JUMP JUMPDEST SWAP3 POP POP DUP2 SWAP1 SSTORE POP PUSH2 0x23C1 PUSH2 0xDEAD DUP6 PUSH2 0x3E8 PUSH1 0x40 MLOAD DUP1 PUSH1 0x20 ADD PUSH1 0x40 MSTORE DUP1 PUSH1 0x0 DUP2 MSTORE POP PUSH2 0x2F53 JUMP JUMPDEST PUSH1 0x0 PUSH2 0x3E8 PUSH2 0x23D3 PUSH2 0xDD8 DUP11 DUP13 PUSH2 0x51B7 JUMP JUMPDEST PUSH2 0x23DD SWAP2 SWAP1 PUSH2 0x51A0 JUMP JUMPDEST SWAP1 POP PUSH2 0x23FA DUP8 DUP7 DUP4 PUSH1 0x40 MLOAD DUP1 PUSH1 0x20 ADD PUSH1 0x40 MSTORE DUP1 PUSH1 0x0 DUP2 MSTORE POP PUSH2 0x2F53 JUMP JUMPDEST POP POP POP POP POP POP POP POP POP POP JUMP JUMPDEST PUSH2 0x1152 DUP6 DUP6 DUP6 DUP6 DUP6 PUSH2 0x3B8D JUMP JUMPDEST PUSH1 0x1 PUSH1 0x1 PUSH1 0xA0 SHL SUB DUP5 AND PUSH1 0x0 SWAP1 DUP2 MSTORE PUSH1 0xA PUSH1 0x20 MSTORE PUSH1 0x40 SWAP1 KECCAK256 SLOAD DUP5 SWAP1 ISZERO DUP1 ISZERO SWAP1 PUSH2 0x244A JUMPI POP PUSH1 0xD SLOAD PUSH1 0x1 PUSH1 0x1 PUSH1 0xA0 SHL SUB DUP3 DUP2 AND SWAP2 AND EQ ISZERO JUMPDEST PUSH1 0x40 MLOAD DUP1 PUSH1 0x40 ADD PUSH1 0x40 MSTORE DUP1 PUSH1 0x1 DUP2 MSTORE PUSH1 0x20 ADD PUSH1 0x43 PUSH1 0xF8 SHL DUP2 MSTORE POP SWAP1 PUSH2 0x2482 JUMPI PUSH1 0x40 MLOAD PUSH3 0x461BCD PUSH1 0xE5 SHL DUP2 MSTORE PUSH1 0x4 ADD PUSH2 0x947 SWAP2 SWAP1 PUSH2 0x4A03 JUMP JUMPDEST POP PUSH1 0x1 PUSH1 0x1 PUSH1 0xA0 SHL SUB DUP1 DUP7 AND PUSH1 0x0 SWAP1 DUP2 MSTORE PUSH1 0xA PUSH1 0x20 MSTORE PUSH1 0x40 DUP2 KECCAK256 SLOAD PUSH1 0xD SLOAD SWAP1 SWAP3 PUSH2 0x24AC SWAP2 AND PUSH2 0x2E72 JUMP JUMPDEST SWAP1 POP PUSH1 0x0 PUSH1 0xB SLOAD DUP3 PUSH2 0x24BE SWAP2 SWAP1 PUSH2 0x51A0 JUMP JUMPDEST SWAP1 POP PUSH1 0x0 PUSH2 0x24CB DUP10 PUSH2 0x2E72 JUMP JUMPDEST SWAP1 POP PUSH1 0x0 PUSH1 0x9 DUP6 DUP2 SLOAD DUP2 LT PUSH2 0x24E2 JUMPI PUSH2 0x24E2 PUSH2 0x5107 JUMP JUMPDEST PUSH1 0x0 SWAP2 DUP3 MSTORE PUSH1 0x20 SWAP1 SWAP2 KECCAK256 PUSH1 0x2 PUSH1 0x4 SWAP1 SWAP3 MUL ADD ADD SLOAD PUSH2 0x2509 SWAP1 PUSH1 0x1 PUSH1 0x1 PUSH1 0x70 SHL SUB AND DUP4 PUSH2 0x51A0 JUMP JUMPDEST SWAP1 POP PUSH1 0x0 PUSH2 0x2517 DUP5 DUP4 PUSH2 0x5200 JUMP JUMPDEST GT PUSH1 0x40 MLOAD DUP1 PUSH1 0x40 ADD PUSH1 0x40 MSTORE DUP1 PUSH1 0x1 DUP2 MSTORE PUSH1 0x20 ADD PUSH1 0x4F PUSH1 0xF8 SHL DUP2 MSTORE POP SWAP1 PUSH2 0x2550 JUMPI PUSH1 0x40 MLOAD PUSH3 0x461BCD PUSH1 0xE5 SHL DUP2 MSTORE PUSH1 0x4 ADD PUSH2 0x947 SWAP2 SWAP1 PUSH2 0x4A03 JUMP JUMPDEST POP PUSH1 0x0 PUSH2 0x255C DUP7 PUSH2 0x3549 JUMP JUMPDEST SWAP1 POP PUSH1 0x0 PUSH2 0x2710 PUSH1 0x9 DUP9 DUP2 SLOAD DUP2 LT PUSH2 0x2576 JUMPI PUSH2 0x2576 PUSH2 0x5107 JUMP JUMPDEST SWAP1 PUSH1 0x0 MSTORE PUSH1 0x20 PUSH1 0x0 KECCAK256 SWAP1 PUSH1 0x4 MUL ADD PUSH1 0x2 ADD PUSH1 0x0 SWAP1 SLOAD SWAP1 PUSH2 0x100 EXP SWAP1 DIV PUSH1 0x1 PUSH1 0x1 PUSH1 0x70 SHL SUB AND PUSH1 0x1 PUSH1 0x1 PUSH1 0x70 SHL SUB AND PUSH2 0x2710 PUSH1 0x9 DUP11 DUP2 SLOAD DUP2 LT PUSH2 0x25BA JUMPI PUSH2 0x25BA PUSH2 0x5107 JUMP JUMPDEST PUSH1 0x0 SWAP2 DUP3 MSTORE PUSH1 0x20 SWAP1 SWAP2 KECCAK256 PUSH1 0x4 SWAP1 SWAP2 MUL ADD PUSH1 0x2 ADD SLOAD PUSH2 0x25E8 SWAP2 SWAP1 PUSH1 0x1 PUSH1 0x70 SHL SWAP1 DIV PUSH1 0x1 PUSH1 0x1 PUSH1 0x70 SHL SUB AND PUSH2 0x51B7 JUMP JUMPDEST PUSH2 0x25F2 SWAP2 SWAP1 PUSH2 0x51B7 JUMP JUMPDEST PUSH2 0x25FC SWAP2 SWAP1 PUSH2 0x51B7 JUMP JUMPDEST SWAP1 POP PUSH1 0x0 DUP11 DUP7 PUSH1 0xB SLOAD PUSH2 0x260F SWAP2 SWAP1 PUSH2 0x5200 JUMP JUMPDEST PUSH2 0x2619 SWAP2 SWAP1 PUSH2 0x51A0 JUMP JUMPDEST SWAP1 POP PUSH1 0x0 DUP12 DUP8 PUSH1 0x9 DUP12 DUP2 SLOAD DUP2 LT PUSH2 0x2632 JUMPI PUSH2 0x2632 PUSH2 0x5107 JUMP JUMPDEST PUSH1 0x0 SWAP2 DUP3 MSTORE PUSH1 0x20 SWAP1 SWAP2 KECCAK256 PUSH1 0x4 SWAP1 SWAP2 MUL ADD PUSH1 0x2 ADD SLOAD PUSH2 0x2660 SWAP2 SWAP1 PUSH1 0x1 PUSH1 0x70 SHL SWAP1 DIV PUSH1 0x1 PUSH1 0x1 PUSH1 0x70 SHL SUB AND PUSH2 0x5200 JUMP JUMPDEST PUSH2 0x266A SWAP2 SWAP1 PUSH2 0x51A0 JUMP JUMPDEST SWAP1 POP PUSH1 0x0 DUP14 DUP7 PUSH1 0x9 DUP13 DUP2 SLOAD DUP2 LT PUSH2 0x2683 JUMPI PUSH2 0x2683 PUSH2 0x5107 JUMP JUMPDEST PUSH1 0x0 SWAP2 DUP3 MSTORE PUSH1 0x20 SWAP1 SWAP2 KECCAK256 PUSH1 0x2 PUSH1 0x4 SWAP1 SWAP3 MUL ADD ADD SLOAD PUSH2 0x26AA SWAP2 SWAP1 PUSH1 0x1 PUSH1 0x1 PUSH1 0x70 SHL SUB AND PUSH2 0x5200 JUMP JUMPDEST PUSH2 0x26B4 SWAP2 SWAP1 PUSH2 0x51A0 JUMP JUMPDEST SWAP1 POP PUSH1 0x0 PUSH2 0x26C4 DUP7 PUSH2 0x2710 PUSH2 0x51A0 JUMP JUMPDEST PUSH2 0x26CE SWAP1 DUP9 PUSH2 0x51B7 JUMP JUMPDEST PUSH2 0x26DA PUSH2 0x2710 DUP5 PUSH2 0x51B7 JUMP JUMPDEST PUSH2 0x26E4 SWAP2 SWAP1 PUSH2 0x51A0 JUMP JUMPDEST PUSH2 0x26F0 DUP8 PUSH2 0x2710 PUSH2 0x51A0 JUMP JUMPDEST PUSH2 0x26FA SWAP1 DUP12 PUSH2 0x51B7 JUMP JUMPDEST PUSH2 0x2706 PUSH2 0x2710 DUP7 PUSH2 0x51B7 JUMP JUMPDEST PUSH2 0x2710 SWAP2 SWAP1 PUSH2 0x51A0 JUMP JUMPDEST PUSH2 0x271A SWAP2 SWAP1 PUSH2 0x51B7 JUMP JUMPDEST SWAP1 POP DUP5 DUP2 LT ISZERO PUSH1 0x40 MLOAD DUP1 PUSH1 0x40 ADD PUSH1 0x40 MSTORE DUP1 PUSH1 0x1 DUP2 MSTORE PUSH1 0x20 ADD PUSH1 0x5 PUSH1 0xFC SHL DUP2 MSTORE POP SWAP1 PUSH2 0x2758 JUMPI PUSH1 0x40 MLOAD PUSH3 0x461BCD PUSH1 0xE5 SHL DUP2 MSTORE PUSH1 0x4 ADD PUSH2 0x947 SWAP2 SWAP1 PUSH2 0x4A03 JUMP JUMPDEST POP DUP4 PUSH1 0xB DUP2 SWAP1 SSTORE POP DUP3 PUSH1 0x9 DUP13 DUP2 SLOAD DUP2 LT PUSH2 0x2774 JUMPI PUSH2 0x2774 PUSH2 0x5107 JUMP JUMPDEST SWAP1 PUSH1 0x0 MSTORE PUSH1 0x20 PUSH1 0x0 KECCAK256 SWAP1 PUSH1 0x4 MUL ADD PUSH1 0x2 ADD PUSH1 0xE PUSH2 0x100 EXP DUP2 SLOAD DUP2 PUSH1 0x1 PUSH1 0x1 PUSH1 0x70 SHL SUB MUL NOT AND SWAP1 DUP4 PUSH1 0x1 PUSH1 0x1 PUSH1 0x70 SHL SUB AND MUL OR SWAP1 SSTORE POP DUP2 PUSH1 0x9 DUP13 DUP2 SLOAD DUP2 LT PUSH2 0x27BD JUMPI PUSH2 0x27BD PUSH2 0x5107 JUMP JUMPDEST SWAP1 PUSH1 0x0 MSTORE PUSH1 0x20 PUSH1 0x0 KECCAK256 SWAP1 PUSH1 0x4 MUL ADD PUSH1 0x2 ADD PUSH1 0x0 PUSH2 0x100 EXP DUP2 SLOAD DUP2 PUSH1 0x1 PUSH1 0x1 PUSH1 0x70 SHL SUB MUL NOT AND SWAP1 DUP4 PUSH1 0x1 PUSH1 0x1 PUSH1 0x70 SHL SUB AND MUL OR SWAP1 SSTORE POP POP POP POP POP POP POP PUSH1 0x0 PUSH2 0x2802 PUSH2 0x3CAA JUMP JUMPDEST SWAP1 POP PUSH1 0x0 PUSH1 0x8 PUSH2 0x2810 PUSH2 0x3CAA JUMP JUMPDEST PUSH2 0x281B SWAP1 PUSH1 0x1 PUSH2 0x5200 JUMP JUMPDEST PUSH2 0x2825 SWAP2 SWAP1 PUSH2 0x534F JUMP JUMPDEST SWAP1 POP PUSH8 0xDE0B6B3A7640000 DUP6 DUP12 ADD DIV PUSH1 0x9 DUP9 DUP2 SLOAD DUP2 LT PUSH2 0x2847 JUMPI PUSH2 0x2847 PUSH2 0x5107 JUMP JUMPDEST SWAP1 PUSH1 0x0 MSTORE PUSH1 0x20 PUSH1 0x0 KECCAK256 SWAP1 PUSH1 0x4 MUL ADD PUSH1 0x1 ADD DUP4 PUSH1 0x8 DUP2 LT PUSH2 0x2869 JUMPI PUSH2 0x2869 PUSH2 0x5107 JUMP JUMPDEST PUSH1 0x8 SWAP2 DUP3 DUP3 DIV ADD SWAP2 SWAP1 MOD PUSH1 0x4 MUL DUP3 DUP3 DUP3 SWAP1 SLOAD SWAP1 PUSH2 0x100 EXP SWAP1 DIV PUSH4 0xFFFFFFFF AND ADD SWAP3 POP PUSH2 0x100 EXP DUP2 SLOAD DUP2 PUSH4 0xFFFFFFFF MUL NOT AND SWAP1 DUP4 PUSH4 0xFFFFFFFF AND MUL OR SWAP1 SSTORE POP PUSH1 0x0 PUSH1 0x9 DUP9 DUP2 SLOAD DUP2 LT PUSH2 0x28BC JUMPI PUSH2 0x28BC PUSH2 0x5107 JUMP JUMPDEST SWAP1 PUSH1 0x0 MSTORE PUSH1 0x20 PUSH1 0x0 KECCAK256 SWAP1 PUSH1 0x4 MUL ADD PUSH1 0x1 ADD DUP3 PUSH1 0x8 DUP2 LT PUSH2 0x28DE JUMPI PUSH2 0x28DE PUSH2 0x5107 JUMP JUMPDEST PUSH1 0x8 SWAP2 DUP3 DUP3 DIV ADD SWAP2 SWAP1 MOD PUSH1 0x4 MUL SWAP1 SLOAD SWAP1 PUSH2 0x100 EXP SWAP1 DIV PUSH4 0xFFFFFFFF AND PUSH4 0xFFFFFFFF AND GT ISZERO PUSH2 0x2967 JUMPI PUSH1 0x0 PUSH1 0x9 DUP9 DUP2 SLOAD DUP2 LT PUSH2 0x291B JUMPI PUSH2 0x291B PUSH2 0x5107 JUMP JUMPDEST SWAP1 PUSH1 0x0 MSTORE PUSH1 0x20 PUSH1 0x0 KECCAK256 SWAP1 PUSH1 0x4 MUL ADD PUSH1 0x1 ADD DUP3 PUSH1 0x8 DUP2 LT PUSH2 0x293D JUMPI PUSH2 0x293D PUSH2 0x5107 JUMP JUMPDEST PUSH1 0x8 SWAP2 DUP3 DUP3 DIV ADD SWAP2 SWAP1 MOD PUSH1 0x4 MUL PUSH2 0x100 EXP DUP2 SLOAD DUP2 PUSH4 0xFFFFFFFF MUL NOT AND SWAP1 DUP4 PUSH4 0xFFFFFFFF AND MUL OR SWAP1 SSTORE POP JUMPDEST DUP11 ISZERO PUSH2 0x29F2 JUMPI PUSH2 0x2978 DUP13 DUP11 DUP14 PUSH2 0x3502 JUMP JUMPDEST PUSH1 0x0 PUSH2 0x2983 DUP14 PUSH2 0x2E72 JUMP JUMPDEST SWAP1 POP PUSH1 0x9 DUP9 DUP2 SLOAD DUP2 LT PUSH2 0x2998 JUMPI PUSH2 0x2998 PUSH2 0x5107 JUMP JUMPDEST PUSH1 0x0 SWAP2 DUP3 MSTORE PUSH1 0x20 SWAP2 DUP3 SWAP1 KECCAK256 PUSH1 0x2 PUSH1 0x4 SWAP1 SWAP3 MUL ADD ADD SLOAD PUSH1 0x40 DUP1 MLOAD DUP1 DUP3 ADD SWAP1 SWAP2 MSTORE PUSH1 0x1 DUP2 MSTORE PUSH1 0x45 PUSH1 0xF8 SHL SWAP3 DUP2 ADD SWAP3 SWAP1 SWAP3 MSTORE PUSH1 0x1 PUSH1 0x1 PUSH1 0x70 SHL SUB AND DUP3 EQ PUSH2 0x29EF JUMPI PUSH1 0x40 MLOAD PUSH3 0x461BCD PUSH1 0xE5 SHL DUP2 MSTORE PUSH1 0x4 ADD PUSH2 0x947 SWAP2 SWAP1 PUSH2 0x4A03 JUMP JUMPDEST POP POP JUMPDEST DUP10 ISZERO PUSH2 0x2A0F JUMPI PUSH1 0xD SLOAD PUSH2 0x2A0F SWAP1 PUSH1 0x1 PUSH1 0x1 PUSH1 0xA0 SHL SUB AND DUP11 DUP13 PUSH2 0x3502 JUMP JUMPDEST POP POP POP POP POP POP POP POP POP POP POP POP JUMP JUMPDEST PUSH1 0x0 DUP1 DUP4 DUP1 TIMESTAMP GT ISZERO PUSH1 0x40 MLOAD DUP1 PUSH1 0x40 ADD PUSH1 0x40 MSTORE DUP1 PUSH1 0x1 DUP2 MSTORE PUSH1 0x20 ADD PUSH1 0x11 PUSH1 0xFA SHL DUP2 MSTORE POP SWAP1 PUSH2 0x2A5D JUMPI PUSH1 0x40 MLOAD PUSH3 0x461BCD PUSH1 0xE5 SHL DUP2 MSTORE PUSH1 0x4 ADD PUSH2 0x947 SWAP2 SWAP1 PUSH2 0x4A03 JUMP JUMPDEST POP PUSH1 0xD SLOAD CALLER SWAP1 PUSH1 0x0 SWAP1 PUSH1 0x1 PUSH1 0x1 PUSH1 0xA0 SHL SUB DUP13 DUP2 AND SWAP2 AND EQ DUP1 ISZERO SWAP1 PUSH2 0x2A8E JUMPI POP PUSH1 0xD SLOAD PUSH1 0x1 PUSH1 0x1 PUSH1 0xA0 SHL SUB DUP12 DUP2 AND SWAP2 AND EQ JUMPDEST ISZERO PUSH2 0x2B32 JUMPI PUSH2 0x2A9D DUP12 DUP11 PUSH2 0x3970 JUMP JUMPDEST SWAP1 POP DUP8 DUP2 GT ISZERO PUSH1 0x40 MLOAD DUP1 PUSH1 0x40 ADD PUSH1 0x40 MSTORE DUP1 PUSH1 0x1 DUP2 MSTORE PUSH1 0x20 ADD PUSH1 0x4B PUSH1 0xF8 SHL DUP2 MSTORE POP SWAP1 PUSH2 0x2ADB JUMPI PUSH1 0x40 MLOAD PUSH3 0x461BCD PUSH1 0xE5 SHL DUP2 MSTORE PUSH1 0x4 ADD PUSH2 0x947 SWAP2 SWAP1 PUSH2 0x4A03 JUMP JUMPDEST POP PUSH1 0x40 DUP1 MLOAD DUP1 DUP3 ADD SWAP1 SWAP2 MSTORE PUSH1 0x1 DUP1 DUP3 MSTORE PUSH1 0x4F PUSH1 0xF8 SHL PUSH1 0x20 DUP4 ADD MSTORE DUP3 GT PUSH2 0x2B14 JUMPI PUSH1 0x40 MLOAD PUSH3 0x461BCD PUSH1 0xE5 SHL DUP2 MSTORE PUSH1 0x4 ADD PUSH2 0x947 SWAP2 SWAP1 PUSH2 0x4A03 JUMP JUMPDEST POP PUSH2 0x2B20 DUP12 DUP4 DUP4 PUSH2 0x2E3A JUMP JUMPDEST PUSH2 0x2B2D DUP12 PUSH1 0x0 DUP12 DUP10 PUSH2 0x2413 JUMP JUMPDEST PUSH2 0x2D21 JUMP JUMPDEST PUSH1 0xD SLOAD PUSH1 0x1 PUSH1 0x1 PUSH1 0xA0 SHL SUB DUP13 DUP2 AND SWAP2 AND EQ DUP1 ISZERO PUSH2 0x2B5D JUMPI POP PUSH1 0xD SLOAD PUSH1 0x1 PUSH1 0x1 PUSH1 0xA0 SHL SUB DUP12 DUP2 AND SWAP2 AND EQ ISZERO JUMPDEST ISZERO PUSH2 0x2BFC JUMPI PUSH2 0x2B6C DUP11 DUP11 PUSH2 0x3A79 JUMP JUMPDEST SWAP1 POP DUP8 DUP2 GT ISZERO PUSH1 0x40 MLOAD DUP1 PUSH1 0x40 ADD PUSH1 0x40 MSTORE DUP1 PUSH1 0x1 DUP2 MSTORE PUSH1 0x20 ADD PUSH1 0x25 PUSH1 0xF9 SHL DUP2 MSTORE POP SWAP1 PUSH2 0x2BAA JUMPI PUSH1 0x40 MLOAD PUSH3 0x461BCD PUSH1 0xE5 SHL DUP2 MSTORE PUSH1 0x4 ADD PUSH2 0x947 SWAP2 SWAP1 PUSH2 0x4A03 JUMP JUMPDEST POP PUSH1 0x40 DUP1 MLOAD DUP1 DUP3 ADD SWAP1 SWAP2 MSTORE PUSH1 0x1 DUP1 DUP3 MSTORE PUSH1 0x4F PUSH1 0xF8 SHL PUSH1 0x20 DUP4 ADD MSTORE DUP3 GT PUSH2 0x2BE3 JUMPI PUSH1 0x40 MLOAD PUSH3 0x461BCD PUSH1 0xE5 SHL DUP2 MSTORE PUSH1 0x4 ADD PUSH2 0x947 SWAP2 SWAP1 PUSH2 0x4A03 JUMP JUMPDEST POP PUSH2 0x2BEF DUP12 DUP4 DUP4 PUSH2 0x2E3A JUMP JUMPDEST PUSH2 0x2B2D DUP11 DUP11 PUSH1 0x0 DUP10 PUSH2 0x2413 JUMP JUMPDEST PUSH1 0xD SLOAD PUSH1 0x1 PUSH1 0x1 PUSH1 0xA0 SHL SUB DUP13 DUP2 AND SWAP2 AND EQ DUP1 ISZERO SWAP1 PUSH2 0x2C28 JUMPI POP PUSH1 0xD SLOAD PUSH1 0x1 PUSH1 0x1 PUSH1 0xA0 SHL SUB DUP12 DUP2 AND SWAP2 AND EQ ISZERO JUMPDEST ISZERO PUSH2 0x1E15 JUMPI PUSH1 0x0 PUSH2 0x2C39 DUP12 DUP12 PUSH2 0x3A79 JUMP JUMPDEST SWAP1 POP PUSH1 0x1 DUP2 GT PUSH1 0x40 MLOAD DUP1 PUSH1 0x40 ADD PUSH1 0x40 MSTORE DUP1 PUSH1 0x1 DUP2 MSTORE PUSH1 0x20 ADD PUSH1 0x4F PUSH1 0xF8 SHL DUP2 MSTORE POP SWAP1 PUSH2 0x2C77 JUMPI PUSH1 0x40 MLOAD PUSH3 0x461BCD PUSH1 0xE5 SHL DUP2 MSTORE PUSH1 0x4 ADD PUSH2 0x947 SWAP2 SWAP1 PUSH2 0x4A03 JUMP JUMPDEST POP PUSH2 0x2C82 DUP13 DUP3 PUSH2 0x3970 JUMP JUMPDEST SWAP2 POP DUP9 DUP3 GT ISZERO PUSH1 0x40 MLOAD DUP1 PUSH1 0x40 ADD PUSH1 0x40 MSTORE DUP1 PUSH1 0x1 DUP2 MSTORE PUSH1 0x20 ADD PUSH1 0x4B PUSH1 0xF8 SHL DUP2 MSTORE POP SWAP1 PUSH2 0x2CC0 JUMPI PUSH1 0x40 MLOAD PUSH3 0x461BCD PUSH1 0xE5 SHL DUP2 MSTORE PUSH1 0x4 ADD PUSH2 0x947 SWAP2 SWAP1 PUSH2 0x4A03 JUMP JUMPDEST POP PUSH1 0x40 DUP1 MLOAD DUP1 DUP3 ADD SWAP1 SWAP2 MSTORE PUSH1 0x1 DUP1 DUP3 MSTORE PUSH1 0x4F PUSH1 0xF8 SHL PUSH1 0x20 DUP4 ADD MSTORE DUP4 GT PUSH2 0x2CF9 JUMPI PUSH1 0x40 MLOAD PUSH3 0x461BCD PUSH1 0xE5 SHL DUP2 MSTORE PUSH1 0x4 ADD PUSH2 0x947 SWAP2 SWAP1 PUSH2 0x4A03 JUMP JUMPDEST POP PUSH2 0x2D05 DUP13 DUP5 DUP5 PUSH2 0x2E3A JUMP JUMPDEST PUSH2 0x2D12 DUP13 PUSH1 0x0 DUP4 ADDRESS PUSH2 0x2413 JUMP JUMPDEST PUSH2 0x2D1F DUP12 DUP12 PUSH1 0x0 DUP11 PUSH2 0x2413 JUMP JUMPDEST POP JUMPDEST SWAP11 SWAP8 SWAP10 POP SWAP7 SWAP8 POP POP POP POP POP POP POP POP JUMP JUMPDEST PUSH2 0x2D3B DUP3 DUP3 PUSH2 0x1987 JUMP JUMPDEST PUSH2 0x11FE JUMPI PUSH1 0x0 DUP3 DUP2 MSTORE PUSH1 0x4 PUSH1 0x20 SWAP1 DUP2 MSTORE PUSH1 0x40 DUP1 DUP4 KECCAK256 PUSH1 0x1 PUSH1 0x1 PUSH1 0xA0 SHL SUB DUP6 AND DUP5 MSTORE SWAP1 SWAP2 MSTORE SWAP1 KECCAK256 DUP1 SLOAD PUSH1 0xFF NOT AND PUSH1 0x1 OR SWAP1 SSTORE PUSH2 0x2D73 CALLER SWAP1 JUMP JUMPDEST PUSH1 0x1 PUSH1 0x1 PUSH1 0xA0 SHL SUB AND DUP2 PUSH1 0x1 PUSH1 0x1 PUSH1 0xA0 SHL SUB AND DUP4 PUSH32 0x2F8788117E7EFF1D82E926EC794901D17C78024A50270940304540A733656F0D PUSH1 0x40 MLOAD PUSH1 0x40 MLOAD DUP1 SWAP2 SUB SWAP1 LOG4 POP POP JUMP JUMPDEST PUSH1 0x0 PUSH2 0x1300 DUP4 PUSH1 0x1 PUSH1 0x1 PUSH1 0xA0 SHL SUB DUP5 AND PUSH2 0x3CC9 JUMP JUMPDEST PUSH2 0x2DD6 DUP3 DUP3 PUSH2 0x1987 JUMP JUMPDEST PUSH2 0x11FE JUMPI PUSH2 0x2DEE DUP2 PUSH1 0x1 PUSH1 0x1 PUSH1 0xA0 SHL SUB AND PUSH1 0x14 PUSH2 0x3D18 JUMP JUMPDEST PUSH2 0x2DF9 DUP4 PUSH1 0x20 PUSH2 0x3D18 JUMP JUMPDEST PUSH1 0x40 MLOAD PUSH1 0x20 ADD PUSH2 0x2E0A SWAP3 SWAP2 SWAP1 PUSH2 0x5363 JUMP JUMPDEST PUSH1 0x40 DUP1 MLOAD PUSH1 0x1F NOT DUP2 DUP5 SUB ADD DUP2 MSTORE SWAP1 DUP3 SWAP1 MSTORE PUSH3 0x461BCD PUSH1 0xE5 SHL DUP3 MSTORE PUSH2 0x947 SWAP2 PUSH1 0x4 ADD PUSH2 0x4A03 JUMP JUMPDEST PUSH2 0x11FE DUP3 DUP3 PUSH2 0x32A0 JUMP JUMPDEST PUSH1 0xF SLOAD PUSH1 0x1 PUSH1 0x1 PUSH1 0xA0 SHL SUB DUP5 DUP2 AND SWAP2 AND EQ DUP1 ISZERO SWAP1 PUSH2 0x2E61 JUMPI POP PUSH1 0x1 PUSH1 0x1 PUSH1 0xA0 SHL SUB DUP3 AND ADDRESS EQ ISZERO JUMPDEST ISZERO PUSH2 0x117F JUMPI PUSH2 0x117F DUP4 DUP4 ADDRESS DUP5 PUSH2 0x3EB4 JUMP JUMPDEST PUSH1 0xF SLOAD PUSH1 0x0 SWAP1 PUSH1 0x1 PUSH1 0x1 PUSH1 0xA0 SHL SUB DUP4 DUP2 AND SWAP2 AND EQ ISZERO PUSH2 0x2E92 JUMPI POP SELFBALANCE SWAP2 SWAP1 POP JUMP JUMPDEST PUSH1 0x40 MLOAD PUSH4 0x70A08231 PUSH1 0xE0 SHL DUP2 MSTORE ADDRESS PUSH1 0x4 DUP3 ADD MSTORE PUSH1 0x1 PUSH1 0x1 PUSH1 0xA0 SHL SUB DUP4 AND SWAP1 PUSH4 0x70A08231 SWAP1 PUSH1 0x24 ADD PUSH1 0x20 PUSH1 0x40 MLOAD DUP1 DUP4 SUB DUP2 DUP7 GAS STATICCALL ISZERO DUP1 ISZERO PUSH2 0x2ED6 JUMPI RETURNDATASIZE PUSH1 0x0 DUP1 RETURNDATACOPY RETURNDATASIZE PUSH1 0x0 REVERT JUMPDEST POP POP POP POP PUSH1 0x40 MLOAD RETURNDATASIZE PUSH1 0x1F NOT PUSH1 0x1F DUP3 ADD AND DUP3 ADD DUP1 PUSH1 0x40 MSTORE POP DUP2 ADD SWAP1 PUSH2 0x973 SWAP2 SWAP1 PUSH2 0x53D8 JUMP JUMPDEST PUSH1 0x0 DUP1 PUSH1 0x2 PUSH2 0x2F0A DUP5 PUSH1 0x1 PUSH2 0x5200 JUMP JUMPDEST PUSH2 0x2F14 SWAP2 SWAP1 PUSH2 0x51EC JUMP JUMPDEST SWAP1 POP DUP3 SWAP2 POP JUMPDEST DUP2 DUP2 LT ISZERO PUSH2 0x2F4D JUMPI SWAP1 POP DUP1 PUSH1 0x2 DUP2 PUSH2 0x2F32 DUP2 DUP7 PUSH2 0x51EC JUMP JUMPDEST PUSH2 0x2F3C SWAP2 SWAP1 PUSH2 0x5200 JUMP JUMPDEST PUSH2 0x2F46 SWAP2 SWAP1 PUSH2 0x51EC JUMP JUMPDEST SWAP1 POP PUSH2 0x2F1A JUMP JUMPDEST POP SWAP2 SWAP1 POP JUMP JUMPDEST PUSH1 0x1 PUSH1 0x1 PUSH1 0xA0 SHL SUB DUP5 AND PUSH2 0x2FB3 JUMPI PUSH1 0x40 MLOAD PUSH3 0x461BCD PUSH1 0xE5 SHL DUP2 MSTORE PUSH1 0x20 PUSH1 0x4 DUP3 ADD MSTORE PUSH1 0x21 PUSH1 0x24 DUP3 ADD MSTORE PUSH32 0x455243313135353A206D696E7420746F20746865207A65726F20616464726573 PUSH1 0x44 DUP3 ADD MSTORE PUSH1 0x73 PUSH1 0xF8 SHL PUSH1 0x64 DUP3 ADD MSTORE PUSH1 0x84 ADD PUSH2 0x947 JUMP JUMPDEST CALLER PUSH2 0x2FD3 DUP2 PUSH1 0x0 DUP8 PUSH2 0x2FC4 DUP9 PUSH2 0x3FBC JUMP JUMPDEST PUSH2 0x2FCD DUP9 PUSH2 0x3FBC JUMP JUMPDEST DUP8 PUSH2 0x4007 JUMP JUMPDEST PUSH1 0x0 DUP5 DUP2 MSTORE PUSH1 0x20 DUP2 DUP2 MSTORE PUSH1 0x40 DUP1 DUP4 KECCAK256 PUSH1 0x1 PUSH1 0x1 PUSH1 0xA0 SHL SUB DUP10 AND DUP5 MSTORE SWAP1 SWAP2 MSTORE DUP2 KECCAK256 DUP1 SLOAD DUP6 SWAP3 SWAP1 PUSH2 0x3003 SWAP1 DUP5 SWAP1 PUSH2 0x5200 JUMP JUMPDEST SWAP1 SWAP2 SSTORE POP POP PUSH1 0x40 DUP1 MLOAD DUP6 DUP2 MSTORE PUSH1 0x20 DUP2 ADD DUP6 SWAP1 MSTORE PUSH1 0x1 PUSH1 0x1 PUSH1 0xA0 SHL SUB DUP1 DUP9 AND SWAP3 PUSH1 0x0 SWAP3 SWAP2 DUP6 AND SWAP2 PUSH32 0xC3D58168C5AE7397731D063D5BBF3D657854427343F4C083240F7AACAA2D0F62 SWAP2 ADD PUSH1 0x40 MLOAD DUP1 SWAP2 SUB SWAP1 LOG4 PUSH2 0x1152 DUP2 PUSH1 0x0 DUP8 DUP8 DUP8 DUP8 PUSH2 0x4113 JUMP JUMPDEST PUSH1 0x0 DUP4 DUP4 GT DUP1 ISZERO PUSH2 0x3074 JUMPI POP PUSH1 0x0 DUP5 GT JUMPDEST ISZERO PUSH2 0x1300 JUMPI DUP4 PUSH2 0x3085 DUP5 PUSH1 0x5 PUSH2 0x51B7 JUMP JUMPDEST PUSH2 0x308F SWAP2 SWAP1 PUSH2 0x5200 JUMP JUMPDEST PUSH2 0x3099 DUP6 DUP6 PUSH2 0x51A0 JUMP JUMPDEST PUSH2 0x30A3 SWAP1 DUP5 PUSH2 0x51B7 JUMP JUMPDEST PUSH2 0x30AD SWAP2 SWAP1 PUSH2 0x51EC JUMP JUMPDEST SWAP5 SWAP4 POP POP POP POP JUMP JUMPDEST DUP2 MLOAD DUP4 MLOAD EQ PUSH2 0x3117 JUMPI PUSH1 0x40 MLOAD PUSH3 0x461BCD PUSH1 0xE5 SHL DUP2 MSTORE PUSH1 0x20 PUSH1 0x4 DUP3 ADD MSTORE PUSH1 0x28 PUSH1 0x24 DUP3 ADD MSTORE PUSH32 0x455243313135353A2069647320616E6420616D6F756E7473206C656E67746820 PUSH1 0x44 DUP3 ADD MSTORE PUSH8 0xDAD2E6DAC2E8C6D PUSH1 0xC3 SHL PUSH1 0x64 DUP3 ADD MSTORE PUSH1 0x84 ADD PUSH2 0x947 JUMP JUMPDEST PUSH1 0x1 PUSH1 0x1 PUSH1 0xA0 SHL SUB DUP5 AND PUSH2 0x313D JUMPI PUSH1 0x40 MLOAD PUSH3 0x461BCD PUSH1 0xE5 SHL DUP2 MSTORE PUSH1 0x4 ADD PUSH2 0x947 SWAP1 PUSH2 0x53F1 JUMP JUMPDEST CALLER PUSH2 0x314C DUP2 DUP8 DUP8 DUP8 DUP8 DUP8 PUSH2 0x4007 JUMP JUMPDEST PUSH1 0x0 JUMPDEST DUP5 MLOAD DUP2 LT ISZERO PUSH2 0x3232 JUMPI PUSH1 0x0 DUP6 DUP3 DUP2 MLOAD DUP2 LT PUSH2 0x316C JUMPI PUSH2 0x316C PUSH2 0x5107 JUMP JUMPDEST PUSH1 0x20 MUL PUSH1 0x20 ADD ADD MLOAD SWAP1 POP PUSH1 0x0 DUP6 DUP4 DUP2 MLOAD DUP2 LT PUSH2 0x318A JUMPI PUSH2 0x318A PUSH2 0x5107 JUMP JUMPDEST PUSH1 0x20 SWAP1 DUP2 MUL SWAP2 SWAP1 SWAP2 ADD DUP2 ADD MLOAD PUSH1 0x0 DUP5 DUP2 MSTORE DUP1 DUP4 MSTORE PUSH1 0x40 DUP1 DUP3 KECCAK256 PUSH1 0x1 PUSH1 0x1 PUSH1 0xA0 SHL SUB DUP15 AND DUP4 MSTORE SWAP1 SWAP4 MSTORE SWAP2 SWAP1 SWAP2 KECCAK256 SLOAD SWAP1 SWAP2 POP DUP2 DUP2 LT ISZERO PUSH2 0x31DA JUMPI PUSH1 0x40 MLOAD PUSH3 0x461BCD PUSH1 0xE5 SHL DUP2 MSTORE PUSH1 0x4 ADD PUSH2 0x947 SWAP1 PUSH2 0x5436 JUMP JUMPDEST PUSH1 0x0 DUP4 DUP2 MSTORE PUSH1 0x20 DUP2 DUP2 MSTORE PUSH1 0x40 DUP1 DUP4 KECCAK256 PUSH1 0x1 PUSH1 0x1 PUSH1 0xA0 SHL SUB DUP15 DUP2 AND DUP6 MSTORE SWAP3 MSTORE DUP1 DUP4 KECCAK256 DUP6 DUP6 SUB SWAP1 SSTORE SWAP1 DUP12 AND DUP3 MSTORE DUP2 KECCAK256 DUP1 SLOAD DUP5 SWAP3 SWAP1 PUSH2 0x3217 SWAP1 DUP5 SWAP1 PUSH2 0x5200 JUMP JUMPDEST SWAP3 POP POP DUP2 SWAP1 SSTORE POP POP POP POP DUP1 PUSH2 0x322B SWAP1 PUSH2 0x5133 JUMP JUMPDEST SWAP1 POP PUSH2 0x314F JUMP JUMPDEST POP DUP5 PUSH1 0x1 PUSH1 0x1 PUSH1 0xA0 SHL SUB AND DUP7 PUSH1 0x1 PUSH1 0x1 PUSH1 0xA0 SHL SUB AND DUP3 PUSH1 0x1 PUSH1 0x1 PUSH1 0xA0 SHL SUB AND PUSH32 0x4A39DC06D4C0DBC64B70AF90FD698A233A518AA5D07E595D983B8C0526C8F7FB DUP8 DUP8 PUSH1 0x40 MLOAD PUSH2 0x3282 SWAP3 SWAP2 SWAP1 PUSH2 0x5480 JUMP JUMPDEST PUSH1 0x40 MLOAD DUP1 SWAP2 SUB SWAP1 LOG4 PUSH2 0x3298 DUP2 DUP8 DUP8 DUP8 DUP8 DUP8 PUSH2 0x426F JUMP JUMPDEST POP POP POP POP POP POP JUMP JUMPDEST PUSH2 0x32AA DUP3 DUP3 PUSH2 0x2D31 JUMP JUMPDEST PUSH1 0x0 DUP3 DUP2 MSTORE PUSH1 0x5 PUSH1 0x20 MSTORE PUSH1 0x40 SWAP1 KECCAK256 PUSH2 0x117F SWAP1 DUP3 PUSH2 0x2DB7 JUMP JUMPDEST PUSH2 0x32CC DUP3 DUP3 PUSH2 0x432A JUMP JUMPDEST PUSH1 0x0 DUP3 DUP2 MSTORE PUSH1 0x5 PUSH1 0x20 MSTORE PUSH1 0x40 SWAP1 KECCAK256 PUSH2 0x117F SWAP1 DUP3 PUSH2 0x4391 JUMP JUMPDEST PUSH1 0x1 PUSH1 0x1 PUSH1 0xA0 SHL SUB DUP3 AND PUSH1 0x0 SWAP1 DUP2 MSTORE PUSH1 0xA PUSH1 0x20 MSTORE PUSH1 0x40 DUP2 KECCAK256 SLOAD DUP4 SWAP1 ISZERO DUP1 ISZERO SWAP1 PUSH2 0x331B JUMPI POP PUSH1 0xD SLOAD PUSH1 0x1 PUSH1 0x1 PUSH1 0xA0 SHL SUB DUP3 DUP2 AND SWAP2 AND EQ ISZERO JUMPDEST PUSH1 0x40 MLOAD DUP1 PUSH1 0x40 ADD PUSH1 0x40 MSTORE DUP1 PUSH1 0x1 DUP2 MSTORE PUSH1 0x20 ADD PUSH1 0x43 PUSH1 0xF8 SHL DUP2 MSTORE POP SWAP1 PUSH2 0x3353 JUMPI PUSH1 0x40 MLOAD PUSH3 0x461BCD PUSH1 0xE5 SHL DUP2 MSTORE PUSH1 0x4 ADD PUSH2 0x947 SWAP2 SWAP1 PUSH2 0x4A03 JUMP JUMPDEST POP PUSH1 0x1 PUSH1 0x1 PUSH1 0xA0 SHL SUB DUP5 AND PUSH1 0x0 SWAP1 DUP2 MSTORE PUSH1 0xA PUSH1 0x20 MSTORE PUSH1 0x40 SWAP1 KECCAK256 SLOAD PUSH1 0x9 DUP1 SLOAD PUSH2 0x33ED SWAP2 DUP7 SWAP2 DUP5 SWAP1 DUP2 LT PUSH2 0x3387 JUMPI PUSH2 0x3387 PUSH2 0x5107 JUMP JUMPDEST PUSH1 0x0 SWAP2 DUP3 MSTORE PUSH1 0x20 SWAP1 SWAP2 KECCAK256 PUSH1 0x2 PUSH1 0x4 SWAP1 SWAP3 MUL ADD ADD SLOAD PUSH1 0x9 DUP1 SLOAD PUSH1 0x1 PUSH1 0x1 PUSH1 0x70 SHL SUB SWAP1 SWAP3 AND SWAP2 DUP6 SWAP1 DUP2 LT PUSH2 0x33BB JUMPI PUSH2 0x33BB PUSH2 0x5107 JUMP JUMPDEST PUSH1 0x0 SWAP2 DUP3 MSTORE PUSH1 0x20 SWAP1 SWAP2 KECCAK256 PUSH1 0x4 SWAP1 SWAP2 MUL ADD PUSH1 0x2 ADD SLOAD PUSH1 0x1 PUSH1 0x70 SHL SWAP1 DIV PUSH1 0x1 PUSH1 0x1 PUSH1 0x70 SHL SUB AND PUSH2 0x33E8 DUP6 PUSH2 0x3549 JUMP JUMPDEST PUSH2 0x43A6 JUMP JUMPDEST SWAP3 POP POP JUMPDEST POP SWAP3 SWAP2 POP POP JUMP JUMPDEST PUSH1 0x1 PUSH1 0x1 PUSH1 0xA0 SHL SUB DUP3 AND PUSH1 0x0 SWAP1 DUP2 MSTORE PUSH1 0xA PUSH1 0x20 MSTORE PUSH1 0x40 DUP2 KECCAK256 SLOAD DUP4 SWAP1 ISZERO DUP1 ISZERO SWAP1 PUSH2 0x342F JUMPI POP PUSH1 0xD SLOAD PUSH1 0x1 PUSH1 0x1 PUSH1 0xA0 SHL SUB DUP3 DUP2 AND SWAP2 AND EQ ISZERO JUMPDEST PUSH1 0x40 MLOAD DUP1 PUSH1 0x40 ADD PUSH1 0x40 MSTORE DUP1 PUSH1 0x1 DUP2 MSTORE PUSH1 0x20 ADD PUSH1 0x43 PUSH1 0xF8 SHL DUP2 MSTORE POP SWAP1 PUSH2 0x3467 JUMPI PUSH1 0x40 MLOAD PUSH3 0x461BCD PUSH1 0xE5 SHL DUP2 MSTORE PUSH1 0x4 ADD PUSH2 0x947 SWAP2 SWAP1 PUSH2 0x4A03 JUMP JUMPDEST POP PUSH1 0x1 PUSH1 0x1 PUSH1 0xA0 SHL SUB DUP5 AND PUSH1 0x0 SWAP1 DUP2 MSTORE PUSH1 0xA PUSH1 0x20 MSTORE PUSH1 0x40 SWAP1 KECCAK256 SLOAD PUSH1 0x9 DUP1 SLOAD PUSH2 0x33ED SWAP2 DUP7 SWAP2 DUP5 SWAP1 DUP2 LT PUSH2 0x349B JUMPI PUSH2 0x349B PUSH2 0x5107 JUMP JUMPDEST SWAP1 PUSH1 0x0 MSTORE PUSH1 0x20 PUSH1 0x0 KECCAK256 SWAP1 PUSH1 0x4 MUL ADD PUSH1 0x2 ADD PUSH1 0xE SWAP1 SLOAD SWAP1 PUSH2 0x100 EXP SWAP1 DIV PUSH1 0x1 PUSH1 0x1 PUSH1 0x70 SHL SUB AND PUSH1 0x1 PUSH1 0x1 PUSH1 0x70 SHL SUB AND PUSH1 0x9 DUP5 DUP2 SLOAD DUP2 LT PUSH2 0x34DC JUMPI PUSH2 0x34DC PUSH2 0x5107 JUMP JUMPDEST PUSH1 0x0 SWAP2 DUP3 MSTORE PUSH1 0x20 SWAP1 SWAP2 KECCAK256 PUSH1 0x2 PUSH1 0x4 SWAP1 SWAP3 MUL ADD ADD SLOAD PUSH1 0x1 PUSH1 0x1 PUSH1 0x70 SHL SUB AND PUSH2 0x33E8 DUP6 PUSH2 0x3549 JUMP JUMPDEST PUSH1 0x1 PUSH1 0x1 PUSH1 0xA0 SHL SUB DUP3 AND ADDRESS EQ PUSH2 0x117F JUMPI PUSH1 0xF SLOAD PUSH1 0x1 PUSH1 0x1 PUSH1 0xA0 SHL SUB DUP5 DUP2 AND SWAP2 AND EQ ISZERO PUSH2 0x3532 JUMPI PUSH2 0x117F DUP3 DUP3 PUSH2 0x43ED JUMP JUMPDEST PUSH2 0x117F DUP4 DUP4 DUP4 PUSH2 0x4496 JUMP JUMPDEST PUSH1 0x0 PUSH2 0x1300 DUP4 DUP4 PUSH2 0x4596 JUMP JUMPDEST PUSH1 0x0 DUP1 PUSH2 0x3554 PUSH2 0x3CAA JUMP JUMPDEST SWAP1 POP PUSH1 0x0 PUSH1 0x8 PUSH2 0x3565 DUP4 PUSH1 0x1 PUSH2 0x5200 JUMP JUMPDEST PUSH2 0x356F SWAP2 SWAP1 PUSH2 0x534F JUMP JUMPDEST SWAP1 POP PUSH1 0x0 DUP1 JUMPDEST PUSH1 0x8 DUP2 LT ISZERO PUSH2 0x360C JUMPI DUP4 DUP2 EQ DUP1 PUSH2 0x358B JUMPI POP DUP3 DUP2 EQ JUMPDEST ISZERO PUSH2 0x3595 JUMPI PUSH2 0x35FA JUMP JUMPDEST PUSH1 0x9 DUP7 DUP2 SLOAD DUP2 LT PUSH2 0x35A8 JUMPI PUSH2 0x35A8 PUSH2 0x5107 JUMP JUMPDEST SWAP1 PUSH1 0x0 MSTORE PUSH1 0x20 PUSH1 0x0 KECCAK256 SWAP1 PUSH1 0x4 MUL ADD PUSH1 0x1 ADD DUP2 PUSH1 0x8 DUP2 LT PUSH2 0x35CA JUMPI PUSH2 0x35CA PUSH2 0x5107 JUMP JUMPDEST PUSH1 0x8 SWAP2 DUP3 DUP3 DIV ADD SWAP2 SWAP1 MOD PUSH1 0x4 MUL SWAP1 SLOAD SWAP1 PUSH2 0x100 EXP SWAP1 DIV PUSH4 0xFFFFFFFF AND PUSH4 0xFFFFFFFF AND DUP3 PUSH2 0x35F7 SWAP2 SWAP1 PUSH2 0x5200 JUMP JUMPDEST SWAP2 POP JUMPDEST DUP1 PUSH2 0x3604 DUP2 PUSH2 0x5133 JUMP JUMPDEST SWAP2 POP POP PUSH2 0x3575 JUMP JUMPDEST POP PUSH1 0x0 PUSH2 0x3621 DUP3 PUSH8 0xDE0B6B3A7640000 PUSH2 0x51B7 JUMP JUMPDEST PUSH2 0x362D SWAP1 PUSH2 0x3E8 PUSH2 0x51B7 JUMP JUMPDEST SWAP1 POP PUSH1 0x0 PUSH1 0x9 DUP8 DUP2 SLOAD DUP2 LT PUSH2 0x3644 JUMPI PUSH2 0x3644 PUSH2 0x5107 JUMP JUMPDEST SWAP1 PUSH1 0x0 MSTORE PUSH1 0x20 PUSH1 0x0 KECCAK256 SWAP1 PUSH1 0x4 MUL ADD PUSH1 0x2 ADD PUSH1 0xE SWAP1 SLOAD SWAP1 PUSH2 0x100 EXP SWAP1 DIV PUSH1 0x1 PUSH1 0x1 PUSH1 0x70 SHL SUB AND PUSH1 0x2 PUSH2 0x3675 SWAP2 SWAP1 PUSH2 0x54A5 JUMP JUMPDEST PUSH2 0x3680 SWAP1 PUSH1 0x96 PUSH2 0x54A5 JUMP JUMPDEST PUSH1 0x1 PUSH1 0x1 PUSH1 0x70 SHL SUB AND SWAP1 POP DUP1 DUP3 GT PUSH2 0x369C JUMPI PUSH2 0x26AC SWAP6 POP PUSH2 0x36F9 JUMP JUMPDEST DUP2 DUP2 LT DUP1 ISZERO PUSH2 0x36B4 JUMPI POP PUSH2 0x36B1 DUP2 PUSH1 0x64 PUSH2 0x51B7 JUMP JUMPDEST DUP3 LT JUMPDEST ISZERO PUSH2 0x36E1 JUMPI DUP1 PUSH2 0x36C4 DUP2 DUP5 PUSH2 0x51A0 JUMP JUMPDEST PUSH2 0x36CE SWAP2 SWAP1 PUSH2 0x51EC JUMP JUMPDEST PUSH2 0x36DA SWAP1 PUSH2 0x26AC PUSH2 0x5200 JUMP JUMPDEST SWAP6 POP PUSH2 0x36F9 JUMP JUMPDEST PUSH2 0x36EC DUP2 PUSH1 0x64 PUSH2 0x51B7 JUMP JUMPDEST DUP3 GT ISZERO PUSH2 0x36F9 JUMPI PUSH2 0x270F SWAP6 POP JUMPDEST POP POP POP POP POP SWAP2 SWAP1 POP JUMP JUMPDEST DUP2 PUSH1 0x1 PUSH1 0x1 PUSH1 0xA0 SHL SUB AND DUP4 PUSH1 0x1 PUSH1 0x1 PUSH1 0xA0 SHL SUB AND EQ ISZERO PUSH2 0x3777 JUMPI PUSH1 0x40 MLOAD PUSH3 0x461BCD PUSH1 0xE5 SHL DUP2 MSTORE PUSH1 0x20 PUSH1 0x4 DUP3 ADD MSTORE PUSH1 0x29 PUSH1 0x24 DUP3 ADD MSTORE PUSH32 0x455243313135353A2073657474696E6720617070726F76616C20737461747573 PUSH1 0x44 DUP3 ADD MSTORE PUSH9 0x103337B91039B2B633 PUSH1 0xB9 SHL PUSH1 0x64 DUP3 ADD MSTORE PUSH1 0x84 ADD PUSH2 0x947 JUMP JUMPDEST PUSH1 0x1 PUSH1 0x1 PUSH1 0xA0 SHL SUB DUP4 DUP2 AND PUSH1 0x0 DUP2 DUP2 MSTORE PUSH1 0x1 PUSH1 0x20 SWAP1 DUP2 MSTORE PUSH1 0x40 DUP1 DUP4 KECCAK256 SWAP5 DUP8 AND DUP1 DUP5 MSTORE SWAP5 DUP3 MSTORE SWAP2 DUP3 SWAP1 KECCAK256 DUP1 SLOAD PUSH1 0xFF NOT AND DUP7 ISZERO ISZERO SWAP1 DUP2 OR SWAP1 SWAP2 SSTORE SWAP2 MLOAD SWAP2 DUP3 MSTORE PUSH32 0x17307EAB39AB6107E8899845AD3D59BD9653F200F220920489CA2B5937696C31 SWAP2 ADD PUSH1 0x40 MLOAD DUP1 SWAP2 SUB SWAP1 LOG3 POP POP POP JUMP JUMPDEST DUP1 MLOAD PUSH2 0x11FE SWAP1 PUSH1 0x2 SWAP1 PUSH1 0x20 DUP5 ADD SWAP1 PUSH2 0x4700 JUMP JUMPDEST PUSH1 0x1 PUSH1 0x1 PUSH1 0xA0 SHL SUB DUP4 AND PUSH2 0x3859 JUMPI PUSH1 0x40 MLOAD PUSH3 0x461BCD PUSH1 0xE5 SHL DUP2 MSTORE PUSH1 0x20 PUSH1 0x4 DUP3 ADD MSTORE PUSH1 0x23 PUSH1 0x24 DUP3 ADD MSTORE PUSH32 0x455243313135353A206275726E2066726F6D20746865207A65726F2061646472 PUSH1 0x44 DUP3 ADD MSTORE PUSH3 0x657373 PUSH1 0xE8 SHL PUSH1 0x64 DUP3 ADD MSTORE PUSH1 0x84 ADD PUSH2 0x947 JUMP JUMPDEST CALLER PUSH2 0x3888 DUP2 DUP6 PUSH1 0x0 PUSH2 0x386A DUP8 PUSH2 0x3FBC JUMP JUMPDEST PUSH2 0x3873 DUP8 PUSH2 0x3FBC JUMP JUMPDEST PUSH1 0x40 MLOAD DUP1 PUSH1 0x20 ADD PUSH1 0x40 MSTORE DUP1 PUSH1 0x0 DUP2 MSTORE POP PUSH2 0x4007 JUMP JUMPDEST PUSH1 0x0 DUP4 DUP2 MSTORE PUSH1 0x20 DUP2 DUP2 MSTORE PUSH1 0x40 DUP1 DUP4 KECCAK256 PUSH1 0x1 PUSH1 0x1 PUSH1 0xA0 SHL SUB DUP9 AND DUP5 MSTORE SWAP1 SWAP2 MSTORE SWAP1 KECCAK256 SLOAD DUP3 DUP2 LT ISZERO PUSH2 0x3905 JUMPI PUSH1 0x40 MLOAD PUSH3 0x461BCD PUSH1 0xE5 SHL DUP2 MSTORE PUSH1 0x20 PUSH1 0x4 DUP3 ADD MSTORE PUSH1 0x24 DUP1 DUP3 ADD MSTORE PUSH32 0x455243313135353A206275726E20616D6F756E7420657863656564732062616C PUSH1 0x44 DUP3 ADD MSTORE PUSH4 0x616E6365 PUSH1 0xE0 SHL PUSH1 0x64 DUP3 ADD MSTORE PUSH1 0x84 ADD PUSH2 0x947 JUMP JUMPDEST PUSH1 0x0 DUP5 DUP2 MSTORE PUSH1 0x20 DUP2 DUP2 MSTORE PUSH1 0x40 DUP1 DUP4 KECCAK256 PUSH1 0x1 PUSH1 0x1 PUSH1 0xA0 SHL SUB DUP10 DUP2 AND DUP1 DUP7 MSTORE SWAP2 DUP5 MSTORE DUP3 DUP6 KECCAK256 DUP9 DUP8 SUB SWAP1 SSTORE DUP3 MLOAD DUP10 DUP2 MSTORE SWAP4 DUP5 ADD DUP9 SWAP1 MSTORE SWAP1 SWAP3 SWAP1 DUP7 AND SWAP2 PUSH32 0xC3D58168C5AE7397731D063D5BBF3D657854427343F4C083240F7AACAA2D0F62 SWAP2 ADD PUSH1 0x40 MLOAD DUP1 SWAP2 SUB SWAP1 LOG4 POP POP POP POP POP JUMP JUMPDEST PUSH1 0x1 PUSH1 0x1 PUSH1 0xA0 SHL SUB DUP3 AND PUSH1 0x0 SWAP1 DUP2 MSTORE PUSH1 0xA PUSH1 0x20 MSTORE PUSH1 0x40 DUP2 KECCAK256 SLOAD DUP4 SWAP1 ISZERO DUP1 ISZERO SWAP1 PUSH2 0x39A7 JUMPI POP PUSH1 0xD SLOAD PUSH1 0x1 PUSH1 0x1 PUSH1 0xA0 SHL SUB DUP3 DUP2 AND SWAP2 AND EQ ISZERO JUMPDEST PUSH1 0x40 MLOAD DUP1 PUSH1 0x40 ADD PUSH1 0x40 MSTORE DUP1 PUSH1 0x1 DUP2 MSTORE PUSH1 0x20 ADD PUSH1 0x43 PUSH1 0xF8 SHL DUP2 MSTORE POP SWAP1 PUSH2 0x39DF JUMPI PUSH1 0x40 MLOAD PUSH3 0x461BCD PUSH1 0xE5 SHL DUP2 MSTORE PUSH1 0x4 ADD PUSH2 0x947 SWAP2 SWAP1 PUSH2 0x4A03 JUMP JUMPDEST POP PUSH1 0x1 PUSH1 0x1 PUSH1 0xA0 SHL SUB DUP5 AND PUSH1 0x0 SWAP1 DUP2 MSTORE PUSH1 0xA PUSH1 0x20 MSTORE PUSH1 0x40 SWAP1 KECCAK256 SLOAD PUSH1 0x9 DUP1 SLOAD PUSH2 0x33ED SWAP2 DUP7 SWAP2 DUP5 SWAP1 DUP2 LT PUSH2 0x3A13 JUMPI PUSH2 0x3A13 PUSH2 0x5107 JUMP JUMPDEST PUSH1 0x0 SWAP2 DUP3 MSTORE PUSH1 0x20 SWAP1 SWAP2 KECCAK256 PUSH1 0x2 PUSH1 0x4 SWAP1 SWAP3 MUL ADD ADD SLOAD PUSH1 0x9 DUP1 SLOAD PUSH1 0x1 PUSH1 0x1 PUSH1 0x70 SHL SUB SWAP1 SWAP3 AND SWAP2 DUP6 SWAP1 DUP2 LT PUSH2 0x3A47 JUMPI PUSH2 0x3A47 PUSH2 0x5107 JUMP JUMPDEST PUSH1 0x0 SWAP2 DUP3 MSTORE PUSH1 0x20 SWAP1 SWAP2 KECCAK256 PUSH1 0x4 SWAP1 SWAP2 MUL ADD PUSH1 0x2 ADD SLOAD PUSH1 0x1 PUSH1 0x70 SHL SWAP1 DIV PUSH1 0x1 PUSH1 0x1 PUSH1 0x70 SHL SUB AND PUSH2 0x3A74 DUP6 PUSH2 0x3549 JUMP JUMPDEST PUSH2 0x45C0 JUMP JUMPDEST PUSH1 0x1 PUSH1 0x1 PUSH1 0xA0 SHL SUB DUP3 AND PUSH1 0x0 SWAP1 DUP2 MSTORE PUSH1 0xA PUSH1 0x20 MSTORE PUSH1 0x40 DUP2 KECCAK256 SLOAD DUP4 SWAP1 ISZERO DUP1 ISZERO SWAP1 PUSH2 0x3AB0 JUMPI POP PUSH1 0xD SLOAD PUSH1 0x1 PUSH1 0x1 PUSH1 0xA0 SHL SUB DUP3 DUP2 AND SWAP2 AND EQ ISZERO JUMPDEST PUSH1 0x40 MLOAD DUP1 PUSH1 0x40 ADD PUSH1 0x40 MSTORE DUP1 PUSH1 0x1 DUP2 MSTORE PUSH1 0x20 ADD PUSH1 0x43 PUSH1 0xF8 SHL DUP2 MSTORE POP SWAP1 PUSH2 0x3AE8 JUMPI PUSH1 0x40 MLOAD PUSH3 0x461BCD PUSH1 0xE5 SHL DUP2 MSTORE PUSH1 0x4 ADD PUSH2 0x947 SWAP2 SWAP1 PUSH2 0x4A03 JUMP JUMPDEST POP PUSH1 0x1 PUSH1 0x1 PUSH1 0xA0 SHL SUB DUP5 AND PUSH1 0x0 SWAP1 DUP2 MSTORE PUSH1 0xA PUSH1 0x20 MSTORE PUSH1 0x40 SWAP1 KECCAK256 SLOAD PUSH1 0x9 DUP1 SLOAD PUSH2 0x33ED SWAP2 DUP7 SWAP2 DUP5 SWAP1 DUP2 LT PUSH2 0x3B1C JUMPI PUSH2 0x3B1C PUSH2 0x5107 JUMP JUMPDEST SWAP1 PUSH1 0x0 MSTORE PUSH1 0x20 PUSH1 0x0 KECCAK256 SWAP1 PUSH1 0x4 MUL ADD PUSH1 0x2 ADD PUSH1 0xE SWAP1 SLOAD SWAP1 PUSH2 0x100 EXP SWAP1 DIV PUSH1 0x1 PUSH1 0x1 PUSH1 0x70 SHL SUB AND PUSH1 0x1 PUSH1 0x1 PUSH1 0x70 SHL SUB AND PUSH1 0x9 DUP5 DUP2 SLOAD DUP2 LT PUSH2 0x3B5D JUMPI PUSH2 0x3B5D PUSH2 0x5107 JUMP JUMPDEST PUSH1 0x0 SWAP2 DUP3 MSTORE PUSH1 0x20 SWAP1 SWAP2 KECCAK256 PUSH1 0x2 PUSH1 0x4 SWAP1 SWAP3 MUL ADD ADD SLOAD PUSH1 0x1 PUSH1 0x1 PUSH1 0x70 SHL SUB AND PUSH2 0x3A74 DUP6 PUSH2 0x3549 JUMP JUMPDEST PUSH1 0x0 PUSH2 0x973 DUP3 SLOAD SWAP1 JUMP JUMPDEST PUSH1 0x1 PUSH1 0x1 PUSH1 0xA0 SHL SUB DUP5 AND PUSH2 0x3BB3 JUMPI PUSH1 0x40 MLOAD PUSH3 0x461BCD PUSH1 0xE5 SHL DUP2 MSTORE PUSH1 0x4 ADD PUSH2 0x947 SWAP1 PUSH2 0x53F1 JUMP JUMPDEST CALLER PUSH2 0x3BC3 DUP2 DUP8 DUP8 PUSH2 0x2FC4 DUP9 PUSH2 0x3FBC JUMP JUMPDEST PUSH1 0x0 DUP5 DUP2 MSTORE PUSH1 0x20 DUP2 DUP2 MSTORE PUSH1 0x40 DUP1 DUP4 KECCAK256 PUSH1 0x1 PUSH1 0x1 PUSH1 0xA0 SHL SUB DUP11 AND DUP5 MSTORE SWAP1 SWAP2 MSTORE SWAP1 KECCAK256 SLOAD DUP4 DUP2 LT ISZERO PUSH2 0x3C04 JUMPI PUSH1 0x40 MLOAD PUSH3 0x461BCD PUSH1 0xE5 SHL DUP2 MSTORE PUSH1 0x4 ADD PUSH2 0x947 SWAP1 PUSH2 0x5436 JUMP JUMPDEST PUSH1 0x0 DUP6 DUP2 MSTORE PUSH1 0x20 DUP2 DUP2 MSTORE PUSH1 0x40 DUP1 DUP4 KECCAK256 PUSH1 0x1 PUSH1 0x1 PUSH1 0xA0 SHL SUB DUP12 DUP2 AND DUP6 MSTORE SWAP3 MSTORE DUP1 DUP4 KECCAK256 DUP8 DUP6 SUB SWAP1 SSTORE SWAP1 DUP9 AND DUP3 MSTORE DUP2 KECCAK256 DUP1 SLOAD DUP7 SWAP3 SWAP1 PUSH2 0x3C41 SWAP1 DUP5 SWAP1 PUSH2 0x5200 JUMP JUMPDEST SWAP1 SWAP2 SSTORE POP POP PUSH1 0x40 DUP1 MLOAD DUP7 DUP2 MSTORE PUSH1 0x20 DUP2 ADD DUP7 SWAP1 MSTORE PUSH1 0x1 PUSH1 0x1 PUSH1 0xA0 SHL SUB DUP1 DUP10 AND SWAP3 DUP11 DUP3 AND SWAP3 SWAP2 DUP7 AND SWAP2 PUSH32 0xC3D58168C5AE7397731D063D5BBF3D657854427343F4C083240F7AACAA2D0F62 SWAP2 ADD PUSH1 0x40 MLOAD DUP1 SWAP2 SUB SWAP1 LOG4 PUSH2 0x3CA1 DUP3 DUP9 DUP9 DUP9 DUP9 DUP9 PUSH2 0x4113 JUMP JUMPDEST POP POP POP POP POP POP POP JUMP JUMPDEST PUSH1 0x0 PUSH1 0x8 PUSH2 0x3CBA PUSH2 0x3840 TIMESTAMP PUSH2 0x51EC JUMP JUMPDEST PUSH2 0x3CC4 SWAP2 SWAP1 PUSH2 0x534F JUMP JUMPDEST SWAP1 POP SWAP1 JUMP JUMPDEST PUSH1 0x0 DUP2 DUP2 MSTORE PUSH1 0x1 DUP4 ADD PUSH1 0x20 MSTORE PUSH1 0x40 DUP2 KECCAK256 SLOAD PUSH2 0x3D10 JUMPI POP DUP2 SLOAD PUSH1 0x1 DUP2 DUP2 ADD DUP5 SSTORE PUSH1 0x0 DUP5 DUP2 MSTORE PUSH1 0x20 DUP1 DUP3 KECCAK256 SWAP1 SWAP4 ADD DUP5 SWAP1 SSTORE DUP5 SLOAD DUP5 DUP3 MSTORE DUP3 DUP7 ADD SWAP1 SWAP4 MSTORE PUSH1 0x40 SWAP1 KECCAK256 SWAP2 SWAP1 SWAP2 SSTORE PUSH2 0x973 JUMP JUMPDEST POP PUSH1 0x0 PUSH2 0x973 JUMP JUMPDEST PUSH1 0x60 PUSH1 0x0 PUSH2 0x3D27 DUP4 PUSH1 0x2 PUSH2 0x51B7 JUMP JUMPDEST PUSH2 0x3D32 SWAP1 PUSH1 0x2 PUSH2 0x5200 JUMP JUMPDEST PUSH8 0xFFFFFFFFFFFFFFFF DUP2 GT ISZERO PUSH2 0x3D4A JUMPI PUSH2 0x3D4A PUSH2 0x4A69 JUMP JUMPDEST PUSH1 0x40 MLOAD SWAP1 DUP1 DUP3 MSTORE DUP1 PUSH1 0x1F ADD PUSH1 0x1F NOT AND PUSH1 0x20 ADD DUP3 ADD PUSH1 0x40 MSTORE DUP1 ISZERO PUSH2 0x3D74 JUMPI PUSH1 0x20 DUP3 ADD DUP2 DUP1 CALLDATASIZE DUP4 CALLDATACOPY ADD SWAP1 POP JUMPDEST POP SWAP1 POP PUSH1 0x3 PUSH1 0xFC SHL DUP2 PUSH1 0x0 DUP2 MLOAD DUP2 LT PUSH2 0x3D8F JUMPI PUSH2 0x3D8F PUSH2 0x5107 JUMP JUMPDEST PUSH1 0x20 ADD ADD SWAP1 PUSH1 0x1 PUSH1 0x1 PUSH1 0xF8 SHL SUB NOT AND SWAP1 DUP2 PUSH1 0x0 BYTE SWAP1 MSTORE8 POP PUSH1 0xF PUSH1 0xFB SHL DUP2 PUSH1 0x1 DUP2 MLOAD DUP2 LT PUSH2 0x3DBE JUMPI PUSH2 0x3DBE PUSH2 0x5107 JUMP JUMPDEST PUSH1 0x20 ADD ADD SWAP1 PUSH1 0x1 PUSH1 0x1 PUSH1 0xF8 SHL SUB NOT AND SWAP1 DUP2 PUSH1 0x0 BYTE SWAP1 MSTORE8 POP PUSH1 0x0 PUSH2 0x3DE2 DUP5 PUSH1 0x2 PUSH2 0x51B7 JUMP JUMPDEST PUSH2 0x3DED SWAP1 PUSH1 0x1 PUSH2 0x5200 JUMP JUMPDEST SWAP1 POP JUMPDEST PUSH1 0x1 DUP2 GT ISZERO PUSH2 0x3E65 JUMPI PUSH16 0x181899199A1A9B1B9C1CB0B131B232B3 PUSH1 0x81 SHL DUP6 PUSH1 0xF AND PUSH1 0x10 DUP2 LT PUSH2 0x3E21 JUMPI PUSH2 0x3E21 PUSH2 0x5107 JUMP JUMPDEST BYTE PUSH1 0xF8 SHL DUP3 DUP3 DUP2 MLOAD DUP2 LT PUSH2 0x3E37 JUMPI PUSH2 0x3E37 PUSH2 0x5107 JUMP JUMPDEST PUSH1 0x20 ADD ADD SWAP1 PUSH1 0x1 PUSH1 0x1 PUSH1 0xF8 SHL SUB NOT AND SWAP1 DUP2 PUSH1 0x0 BYTE SWAP1 MSTORE8 POP PUSH1 0x4 SWAP5 SWAP1 SWAP5 SHR SWAP4 PUSH2 0x3E5E DUP2 PUSH2 0x54D4 JUMP JUMPDEST SWAP1 POP PUSH2 0x3DF0 JUMP JUMPDEST POP DUP4 ISZERO PUSH2 0x1300 JUMPI PUSH1 0x40 MLOAD PUSH3 0x461BCD PUSH1 0xE5 SHL DUP2 MSTORE PUSH1 0x20 PUSH1 0x4 DUP3 ADD DUP2 SWAP1 MSTORE PUSH1 0x24 DUP3 ADD MSTORE PUSH32 0x537472696E67733A20686578206C656E67746820696E73756666696369656E74 PUSH1 0x44 DUP3 ADD MSTORE PUSH1 0x64 ADD PUSH2 0x947 JUMP JUMPDEST PUSH1 0x40 DUP1 MLOAD PUSH1 0x1 PUSH1 0x1 PUSH1 0xA0 SHL SUB DUP6 DUP2 AND PUSH1 0x24 DUP4 ADD MSTORE DUP5 DUP2 AND PUSH1 0x44 DUP4 ADD MSTORE PUSH1 0x64 DUP1 DUP4 ADD DUP6 SWAP1 MSTORE DUP4 MLOAD DUP1 DUP5 SUB SWAP1 SWAP2 ADD DUP2 MSTORE PUSH1 0x84 SWAP1 SWAP3 ADD DUP4 MSTORE PUSH1 0x20 DUP3 ADD DUP1 MLOAD PUSH1 0x1 PUSH1 0x1 PUSH1 0xE0 SHL SUB AND PUSH4 0x23B872DD PUSH1 0xE0 SHL OR SWAP1 MSTORE SWAP2 MLOAD PUSH1 0x0 SWAP3 DUP4 SWAP3 SWAP1 DUP9 AND SWAP2 PUSH2 0x3F18 SWAP2 SWAP1 PUSH2 0x54EB JUMP JUMPDEST PUSH1 0x0 PUSH1 0x40 MLOAD DUP1 DUP4 SUB DUP2 PUSH1 0x0 DUP7 GAS CALL SWAP2 POP POP RETURNDATASIZE DUP1 PUSH1 0x0 DUP2 EQ PUSH2 0x3F55 JUMPI PUSH1 0x40 MLOAD SWAP2 POP PUSH1 0x1F NOT PUSH1 0x3F RETURNDATASIZE ADD AND DUP3 ADD PUSH1 0x40 MSTORE RETURNDATASIZE DUP3 MSTORE RETURNDATASIZE PUSH1 0x0 PUSH1 0x20 DUP5 ADD RETURNDATACOPY PUSH2 0x3F5A JUMP JUMPDEST PUSH1 0x60 SWAP2 POP JUMPDEST POP SWAP2 POP SWAP2 POP DUP2 DUP1 ISZERO PUSH2 0x3F84 JUMPI POP DUP1 MLOAD ISZERO DUP1 PUSH2 0x3F84 JUMPI POP DUP1 DUP1 PUSH1 0x20 ADD SWAP1 MLOAD DUP2 ADD SWAP1 PUSH2 0x3F84 SWAP2 SWAP1 PUSH2 0x5507 JUMP JUMPDEST PUSH1 0x40 MLOAD DUP1 PUSH1 0x40 ADD PUSH1 0x40 MSTORE DUP1 PUSH1 0x1 DUP2 MSTORE PUSH1 0x20 ADD PUSH1 0x47 PUSH1 0xF8 SHL DUP2 MSTORE POP SWAP1 PUSH2 0x3CA1 JUMPI PUSH1 0x40 MLOAD PUSH3 0x461BCD PUSH1 0xE5 SHL DUP2 MSTORE PUSH1 0x4 ADD PUSH2 0x947 SWAP2 SWAP1 PUSH2 0x4A03 JUMP JUMPDEST PUSH1 0x40 DUP1 MLOAD PUSH1 0x1 DUP1 DUP3 MSTORE DUP2 DUP4 ADD SWAP1 SWAP3 MSTORE PUSH1 0x60 SWAP2 PUSH1 0x0 SWAP2 SWAP1 PUSH1 0x20 DUP1 DUP4 ADD SWAP1 DUP1 CALLDATASIZE DUP4 CALLDATACOPY ADD SWAP1 POP POP SWAP1 POP DUP3 DUP2 PUSH1 0x0 DUP2 MLOAD DUP2 LT PUSH2 0x3FF6 JUMPI PUSH2 0x3FF6 PUSH2 0x5107 JUMP JUMPDEST PUSH1 0x20 SWAP1 DUP2 MUL SWAP2 SWAP1 SWAP2 ADD ADD MSTORE SWAP3 SWAP2 POP POP JUMP JUMPDEST PUSH1 0x1 PUSH1 0x1 PUSH1 0xA0 SHL SUB DUP6 AND PUSH2 0x408E JUMPI PUSH1 0x0 JUMPDEST DUP4 MLOAD DUP2 LT ISZERO PUSH2 0x408C JUMPI DUP3 DUP2 DUP2 MLOAD DUP2 LT PUSH2 0x4033 JUMPI PUSH2 0x4033 PUSH2 0x5107 JUMP JUMPDEST PUSH1 0x20 MUL PUSH1 0x20 ADD ADD MLOAD PUSH1 0x3 PUSH1 0x0 DUP7 DUP5 DUP2 MLOAD DUP2 LT PUSH2 0x4051 JUMPI PUSH2 0x4051 PUSH2 0x5107 JUMP JUMPDEST PUSH1 0x20 MUL PUSH1 0x20 ADD ADD MLOAD DUP2 MSTORE PUSH1 0x20 ADD SWAP1 DUP2 MSTORE PUSH1 0x20 ADD PUSH1 0x0 KECCAK256 PUSH1 0x0 DUP3 DUP3 SLOAD PUSH2 0x4076 SWAP2 SWAP1 PUSH2 0x5200 JUMP JUMPDEST SWAP1 SWAP2 SSTORE POP PUSH2 0x4085 SWAP1 POP DUP2 PUSH2 0x5133 JUMP JUMPDEST SWAP1 POP PUSH2 0x4018 JUMP JUMPDEST POP JUMPDEST PUSH1 0x1 PUSH1 0x1 PUSH1 0xA0 SHL SUB DUP5 AND PUSH2 0x3298 JUMPI PUSH1 0x0 JUMPDEST DUP4 MLOAD DUP2 LT ISZERO PUSH2 0x3CA1 JUMPI DUP3 DUP2 DUP2 MLOAD DUP2 LT PUSH2 0x40BA JUMPI PUSH2 0x40BA PUSH2 0x5107 JUMP JUMPDEST PUSH1 0x20 MUL PUSH1 0x20 ADD ADD MLOAD PUSH1 0x3 PUSH1 0x0 DUP7 DUP5 DUP2 MLOAD DUP2 LT PUSH2 0x40D8 JUMPI PUSH2 0x40D8 PUSH2 0x5107 JUMP JUMPDEST PUSH1 0x20 MUL PUSH1 0x20 ADD ADD MLOAD DUP2 MSTORE PUSH1 0x20 ADD SWAP1 DUP2 MSTORE PUSH1 0x20 ADD PUSH1 0x0 KECCAK256 PUSH1 0x0 DUP3 DUP3 SLOAD PUSH2 0x40FD SWAP2 SWAP1 PUSH2 0x51A0 JUMP JUMPDEST SWAP1 SWAP2 SSTORE POP PUSH2 0x410C SWAP1 POP DUP2 PUSH2 0x5133 JUMP JUMPDEST SWAP1 POP PUSH2 0x409F JUMP JUMPDEST PUSH1 0x1 PUSH1 0x1 PUSH1 0xA0 SHL SUB DUP5 AND EXTCODESIZE ISZERO PUSH2 0x3298 JUMPI PUSH1 0x40 MLOAD PUSH4 0xF23A6E61 PUSH1 0xE0 SHL DUP2 MSTORE PUSH1 0x1 PUSH1 0x1 PUSH1 0xA0 SHL SUB DUP6 AND SWAP1 PUSH4 0xF23A6E61 SWAP1 PUSH2 0x4157 SWAP1 DUP10 SWAP1 DUP10 SWAP1 DUP9 SWAP1 DUP9 SWAP1 DUP9 SWAP1 PUSH1 0x4 ADD PUSH2 0x5524 JUMP JUMPDEST PUSH1 0x20 PUSH1 0x40 MLOAD DUP1 DUP4 SUB DUP2 PUSH1 0x0 DUP8 GAS CALL SWAP3 POP POP POP DUP1 ISZERO PUSH2 0x4192 JUMPI POP PUSH1 0x40 DUP1 MLOAD PUSH1 0x1F RETURNDATASIZE SWAP1 DUP2 ADD PUSH1 0x1F NOT AND DUP3 ADD SWAP1 SWAP3 MSTORE PUSH2 0x418F SWAP2 DUP2 ADD SWAP1 PUSH2 0x555E JUMP JUMPDEST PUSH1 0x1 JUMPDEST PUSH2 0x423F JUMPI PUSH2 0x419E PUSH2 0x557B JUMP JUMPDEST DUP1 PUSH4 0x8C379A0 EQ ISZERO PUSH2 0x41D8 JUMPI POP PUSH2 0x41B3 PUSH2 0x5597 JUMP JUMPDEST DUP1 PUSH2 0x41BE JUMPI POP PUSH2 0x41DA JUMP JUMPDEST DUP1 PUSH1 0x40 MLOAD PUSH3 0x461BCD PUSH1 0xE5 SHL DUP2 MSTORE PUSH1 0x4 ADD PUSH2 0x947 SWAP2 SWAP1 PUSH2 0x4A03 JUMP JUMPDEST POP JUMPDEST PUSH1 0x40 MLOAD PUSH3 0x461BCD PUSH1 0xE5 SHL DUP2 MSTORE PUSH1 0x20 PUSH1 0x4 DUP3 ADD MSTORE PUSH1 0x34 PUSH1 0x24 DUP3 ADD MSTORE PUSH32 0x455243313135353A207472616E7366657220746F206E6F6E2045524331313535 PUSH1 0x44 DUP3 ADD MSTORE PUSH20 0x2932B1B2B4BB32B91034B6B83632B6B2B73A32B9 PUSH1 0x61 SHL PUSH1 0x64 DUP3 ADD MSTORE PUSH1 0x84 ADD PUSH2 0x947 JUMP JUMPDEST PUSH1 0x1 PUSH1 0x1 PUSH1 0xE0 SHL SUB NOT DUP2 AND PUSH4 0xF23A6E61 PUSH1 0xE0 SHL EQ PUSH2 0x3CA1 JUMPI PUSH1 0x40 MLOAD PUSH3 0x461BCD PUSH1 0xE5 SHL DUP2 MSTORE PUSH1 0x4 ADD PUSH2 0x947 SWAP1 PUSH2 0x5621 JUMP JUMPDEST PUSH1 0x1 PUSH1 0x1 PUSH1 0xA0 SHL SUB DUP5 AND EXTCODESIZE ISZERO PUSH2 0x3298 JUMPI PUSH1 0x40 MLOAD PUSH4 0xBC197C81 PUSH1 0xE0 SHL DUP2 MSTORE PUSH1 0x1 PUSH1 0x1 PUSH1 0xA0 SHL SUB DUP6 AND SWAP1 PUSH4 0xBC197C81 SWAP1 PUSH2 0x42B3 SWAP1 DUP10 SWAP1 DUP10 SWAP1 DUP9 SWAP1 DUP9 SWAP1 DUP9 SWAP1 PUSH1 0x4 ADD PUSH2 0x5669 JUMP JUMPDEST PUSH1 0x20 PUSH1 0x40 MLOAD DUP1 DUP4 SUB DUP2 PUSH1 0x0 DUP8 GAS CALL SWAP3 POP POP POP DUP1 ISZERO PUSH2 0x42EE JUMPI POP PUSH1 0x40 DUP1 MLOAD PUSH1 0x1F RETURNDATASIZE SWAP1 DUP2 ADD PUSH1 0x1F NOT AND DUP3 ADD SWAP1 SWAP3 MSTORE PUSH2 0x42EB SWAP2 DUP2 ADD SWAP1 PUSH2 0x555E JUMP JUMPDEST PUSH1 0x1 JUMPDEST PUSH2 0x42FA JUMPI PUSH2 0x419E PUSH2 0x557B JUMP JUMPDEST PUSH1 0x1 PUSH1 0x1 PUSH1 0xE0 SHL SUB NOT DUP2 AND PUSH4 0xBC197C81 PUSH1 0xE0 SHL EQ PUSH2 0x3CA1 JUMPI PUSH1 0x40 MLOAD PUSH3 0x461BCD PUSH1 0xE5 SHL DUP2 MSTORE PUSH1 0x4 ADD PUSH2 0x947 SWAP1 PUSH2 0x5621 JUMP JUMPDEST PUSH2 0x4334 DUP3 DUP3 PUSH2 0x1987 JUMP JUMPDEST ISZERO PUSH2 0x11FE JUMPI PUSH1 0x0 DUP3 DUP2 MSTORE PUSH1 0x4 PUSH1 0x20 SWAP1 DUP2 MSTORE PUSH1 0x40 DUP1 DUP4 KECCAK256 PUSH1 0x1 PUSH1 0x1 PUSH1 0xA0 SHL SUB DUP6 AND DUP1 DUP6 MSTORE SWAP3 MSTORE DUP1 DUP4 KECCAK256 DUP1 SLOAD PUSH1 0xFF NOT AND SWAP1 SSTORE MLOAD CALLER SWAP3 DUP6 SWAP2 PUSH32 0xF6391F5C32D9C69D2A47EA670B442974B53935D1EDC7FD64EB21E047A839171B SWAP2 SWAP1 LOG4 POP POP JUMP JUMPDEST PUSH1 0x0 PUSH2 0x1300 DUP4 PUSH1 0x1 PUSH1 0x1 PUSH1 0xA0 SHL SUB DUP5 AND PUSH2 0x460D JUMP JUMPDEST PUSH1 0x0 DUP1 PUSH2 0x43B3 DUP4 DUP8 PUSH2 0x51B7 JUMP JUMPDEST SWAP1 POP PUSH1 0x0 DUP2 PUSH2 0x43C4 PUSH2 0x2710 DUP9 PUSH2 0x51B7 JUMP JUMPDEST PUSH2 0x43CE SWAP2 SWAP1 PUSH2 0x5200 JUMP JUMPDEST PUSH2 0x43D8 DUP4 DUP8 PUSH2 0x51B7 JUMP JUMPDEST PUSH2 0x43E2 SWAP2 SWAP1 PUSH2 0x51EC JUMP JUMPDEST SWAP8 SWAP7 POP POP POP POP POP POP POP JUMP JUMPDEST PUSH1 0x40 DUP1 MLOAD PUSH1 0x0 DUP1 DUP3 MSTORE PUSH1 0x20 DUP3 ADD SWAP1 SWAP3 MSTORE PUSH1 0x1 PUSH1 0x1 PUSH1 0xA0 SHL SUB DUP5 AND SWAP1 DUP4 SWAP1 PUSH1 0x40 MLOAD PUSH2 0x4417 SWAP2 SWAP1 PUSH2 0x54EB JUMP JUMPDEST PUSH1 0x0 PUSH1 0x40 MLOAD DUP1 DUP4 SUB DUP2 DUP6 DUP8 GAS CALL SWAP3 POP POP POP RETURNDATASIZE DUP1 PUSH1 0x0 DUP2 EQ PUSH2 0x4454 JUMPI PUSH1 0x40 MLOAD SWAP2 POP PUSH1 0x1F NOT PUSH1 0x3F RETURNDATASIZE ADD AND DUP3 ADD PUSH1 0x40 MSTORE RETURNDATASIZE DUP3 MSTORE RETURNDATASIZE PUSH1 0x0 PUSH1 0x20 DUP5 ADD RETURNDATACOPY PUSH2 0x4459 JUMP JUMPDEST PUSH1 0x60 SWAP2 POP JUMPDEST POP POP SWAP1 POP DUP1 PUSH1 0x40 MLOAD DUP1 PUSH1 0x40 ADD PUSH1 0x40 MSTORE DUP1 PUSH1 0x1 DUP2 MSTORE PUSH1 0x20 ADD PUSH1 0x51 PUSH1 0xF8 SHL DUP2 MSTORE POP SWAP1 PUSH2 0xA40 JUMPI PUSH1 0x40 MLOAD PUSH3 0x461BCD PUSH1 0xE5 SHL DUP2 MSTORE PUSH1 0x4 ADD PUSH2 0x947 SWAP2 SWAP1 PUSH2 0x4A03 JUMP JUMPDEST PUSH1 0x40 DUP1 MLOAD PUSH1 0x1 PUSH1 0x1 PUSH1 0xA0 SHL SUB DUP5 DUP2 AND PUSH1 0x24 DUP4 ADD MSTORE PUSH1 0x44 DUP1 DUP4 ADD DUP6 SWAP1 MSTORE DUP4 MLOAD DUP1 DUP5 SUB SWAP1 SWAP2 ADD DUP2 MSTORE PUSH1 0x64 SWAP1 SWAP3 ADD DUP4 MSTORE PUSH1 0x20 DUP3 ADD DUP1 MLOAD PUSH1 0x1 PUSH1 0x1 PUSH1 0xE0 SHL SUB AND PUSH4 0xA9059CBB PUSH1 0xE0 SHL OR SWAP1 MSTORE SWAP2 MLOAD PUSH1 0x0 SWAP3 DUP4 SWAP3 SWAP1 DUP8 AND SWAP2 PUSH2 0x44F2 SWAP2 SWAP1 PUSH2 0x54EB JUMP JUMPDEST PUSH1 0x0 PUSH1 0x40 MLOAD DUP1 DUP4 SUB DUP2 PUSH1 0x0 DUP7 GAS CALL SWAP2 POP POP RETURNDATASIZE DUP1 PUSH1 0x0 DUP2 EQ PUSH2 0x452F JUMPI PUSH1 0x40 MLOAD SWAP2 POP PUSH1 0x1F NOT PUSH1 0x3F RETURNDATASIZE ADD AND DUP3 ADD PUSH1 0x40 MSTORE RETURNDATASIZE DUP3 MSTORE RETURNDATASIZE PUSH1 0x0 PUSH1 0x20 DUP5 ADD RETURNDATACOPY PUSH2 0x4534 JUMP JUMPDEST PUSH1 0x60 SWAP2 POP JUMPDEST POP SWAP2 POP SWAP2 POP DUP2 DUP1 ISZERO PUSH2 0x455E JUMPI POP DUP1 MLOAD ISZERO DUP1 PUSH2 0x455E JUMPI POP DUP1 DUP1 PUSH1 0x20 ADD SWAP1 MLOAD DUP2 ADD SWAP1 PUSH2 0x455E SWAP2 SWAP1 PUSH2 0x5507 JUMP JUMPDEST PUSH1 0x40 MLOAD DUP1 PUSH1 0x40 ADD PUSH1 0x40 MSTORE DUP1 PUSH1 0x1 DUP2 MSTORE PUSH1 0x20 ADD PUSH1 0x29 PUSH1 0xF9 SHL DUP2 MSTORE POP SWAP1 PUSH2 0x3298 JUMPI PUSH1 0x40 MLOAD PUSH3 0x461BCD PUSH1 0xE5 SHL DUP2 MSTORE PUSH1 0x4 ADD PUSH2 0x947 SWAP2 SWAP1 PUSH2 0x4A03 JUMP JUMPDEST PUSH1 0x0 DUP3 PUSH1 0x0 ADD DUP3 DUP2 SLOAD DUP2 LT PUSH2 0x45AD JUMPI PUSH2 0x45AD PUSH2 0x5107 JUMP JUMPDEST SWAP1 PUSH1 0x0 MSTORE PUSH1 0x20 PUSH1 0x0 KECCAK256 ADD SLOAD SWAP1 POP SWAP3 SWAP2 POP POP JUMP JUMPDEST PUSH1 0x0 DUP1 PUSH2 0x45CD DUP7 DUP6 PUSH2 0x51A0 JUMP JUMPDEST PUSH2 0x45D7 SWAP1 DUP5 PUSH2 0x51B7 JUMP JUMPDEST PUSH2 0x2710 PUSH2 0x45E4 DUP9 DUP9 PUSH2 0x51B7 JUMP JUMPDEST PUSH2 0x45EE SWAP2 SWAP1 PUSH2 0x51B7 JUMP JUMPDEST PUSH2 0x45F8 SWAP2 SWAP1 PUSH2 0x51EC JUMP JUMPDEST PUSH2 0x4603 SWAP1 PUSH1 0x1 PUSH2 0x5200 JUMP JUMPDEST SWAP7 SWAP6 POP POP POP POP POP POP JUMP JUMPDEST PUSH1 0x0 DUP2 DUP2 MSTORE PUSH1 0x1 DUP4 ADD PUSH1 0x20 MSTORE PUSH1 0x40 DUP2 KECCAK256 SLOAD DUP1 ISZERO PUSH2 0x46F6 JUMPI PUSH1 0x0 PUSH2 0x4631 PUSH1 0x1 DUP4 PUSH2 0x51A0 JUMP JUMPDEST DUP6 SLOAD SWAP1 SWAP2 POP PUSH1 0x0 SWAP1 PUSH2 0x4645 SWAP1 PUSH1 0x1 SWAP1 PUSH2 0x51A0 JUMP JUMPDEST SWAP1 POP DUP2 DUP2 EQ PUSH2 0x46AA JUMPI PUSH1 0x0 DUP7 PUSH1 0x0 ADD DUP3 DUP2 SLOAD DUP2 LT PUSH2 0x4665 JUMPI PUSH2 0x4665 PUSH2 0x5107 JUMP JUMPDEST SWAP1 PUSH1 0x0 MSTORE PUSH1 0x20 PUSH1 0x0 KECCAK256 ADD SLOAD SWAP1 POP DUP1 DUP8 PUSH1 0x0 ADD DUP5 DUP2 SLOAD DUP2 LT PUSH2 0x4688 JUMPI PUSH2 0x4688 PUSH2 0x5107 JUMP JUMPDEST PUSH1 0x0 SWAP2 DUP3 MSTORE PUSH1 0x20 DUP1 DUP4 KECCAK256 SWAP1 SWAP2 ADD SWAP3 SWAP1 SWAP3 SSTORE SWAP2 DUP3 MSTORE PUSH1 0x1 DUP9 ADD SWAP1 MSTORE PUSH1 0x40 SWAP1 KECCAK256 DUP4 SWAP1 SSTORE JUMPDEST DUP6 SLOAD DUP7 SWAP1 DUP1 PUSH2 0x46BB JUMPI PUSH2 0x46BB PUSH2 0x56C7 JUMP JUMPDEST PUSH1 0x1 SWAP1 SUB DUP2 DUP2 SWAP1 PUSH1 0x0 MSTORE PUSH1 0x20 PUSH1 0x0 KECCAK256 ADD PUSH1 0x0 SWAP1 SSTORE SWAP1 SSTORE DUP6 PUSH1 0x1 ADD PUSH1 0x0 DUP7 DUP2 MSTORE PUSH1 0x20 ADD SWAP1 DUP2 MSTORE PUSH1 0x20 ADD PUSH1 0x0 KECCAK256 PUSH1 0x0 SWAP1 SSTORE PUSH1 0x1 SWAP4 POP POP POP POP PUSH2 0x973 JUMP JUMPDEST PUSH1 0x0 SWAP2 POP POP PUSH2 0x973 JUMP JUMPDEST DUP3 DUP1 SLOAD PUSH2 0x470C SWAP1 PUSH2 0x516B JUMP JUMPDEST SWAP1 PUSH1 0x0 MSTORE PUSH1 0x20 PUSH1 0x0 KECCAK256 SWAP1 PUSH1 0x1F ADD PUSH1 0x20 SWAP1 DIV DUP2 ADD SWAP3 DUP3 PUSH2 0x472E JUMPI PUSH1 0x0 DUP6 SSTORE PUSH2 0x4774 JUMP JUMPDEST DUP3 PUSH1 0x1F LT PUSH2 0x4747 JUMPI DUP1 MLOAD PUSH1 0xFF NOT AND DUP4 DUP1 ADD OR DUP6 SSTORE PUSH2 0x4774 JUMP JUMPDEST DUP3 DUP1 ADD PUSH1 0x1 ADD DUP6 SSTORE DUP3 ISZERO PUSH2 0x4774 JUMPI SWAP2 DUP3 ADD JUMPDEST DUP3 DUP2 GT ISZERO PUSH2 0x4774 JUMPI DUP3 MLOAD DUP3 SSTORE SWAP2 PUSH1 0x20 ADD SWAP2 SWAP1 PUSH1 0x1 ADD SWAP1 PUSH2 0x4759 JUMP JUMPDEST POP PUSH2 0x4780 SWAP3 SWAP2 POP PUSH2 0x4874 JUMP JUMPDEST POP SWAP1 JUMP JUMPDEST PUSH1 0x40 MLOAD DUP1 PUSH1 0xA0 ADD PUSH1 0x40 MSTORE DUP1 PUSH1 0x0 PUSH1 0x1 PUSH1 0x1 PUSH1 0xA0 SHL SUB AND DUP2 MSTORE PUSH1 0x20 ADD PUSH2 0x47A7 PUSH2 0x47C2 JUMP JUMPDEST DUP2 MSTORE PUSH1 0x0 PUSH1 0x20 DUP3 ADD DUP2 SWAP1 MSTORE PUSH1 0x40 DUP3 ADD DUP2 SWAP1 MSTORE PUSH1 0x60 SWAP1 SWAP2 ADD MSTORE SWAP1 JUMP JUMPDEST PUSH1 0x40 MLOAD DUP1 PUSH2 0x100 ADD PUSH1 0x40 MSTORE DUP1 PUSH1 0x8 SWAP1 PUSH1 0x20 DUP3 MUL DUP1 CALLDATASIZE DUP4 CALLDATACOPY POP SWAP2 SWAP3 SWAP2 POP POP JUMP JUMPDEST PUSH1 0x1 DUP4 ADD SWAP2 DUP4 SWAP1 DUP3 ISZERO PUSH2 0x4774 JUMPI SWAP2 PUSH1 0x20 MUL DUP3 ADD PUSH1 0x0 JUMPDEST DUP4 DUP3 GT ISZERO PUSH2 0x483B JUMPI DUP4 MLOAD DUP4 DUP3 PUSH2 0x100 EXP DUP2 SLOAD DUP2 PUSH4 0xFFFFFFFF MUL NOT AND SWAP1 DUP4 PUSH4 0xFFFFFFFF AND MUL OR SWAP1 SSTORE POP SWAP3 PUSH1 0x20 ADD SWAP3 PUSH1 0x4 ADD PUSH1 0x20 DUP2 PUSH1 0x3 ADD DIV SWAP3 DUP4 ADD SWAP3 PUSH1 0x1 SUB MUL PUSH2 0x47F7 JUMP JUMPDEST DUP1 ISZERO PUSH2 0x486B JUMPI DUP3 DUP2 PUSH2 0x100 EXP DUP2 SLOAD SWAP1 PUSH4 0xFFFFFFFF MUL NOT AND SWAP1 SSTORE PUSH1 0x4 ADD PUSH1 0x20 DUP2 PUSH1 0x3 ADD DIV SWAP3 DUP4 ADD SWAP3 PUSH1 0x1 SUB MUL PUSH2 0x483B JUMP JUMPDEST POP POP PUSH2 0x4780 SWAP3 SWAP2 POP JUMPDEST JUMPDEST DUP1 DUP3 GT ISZERO PUSH2 0x4780 JUMPI PUSH1 0x0 DUP2 SSTORE PUSH1 0x1 ADD PUSH2 0x4875 JUMP JUMPDEST PUSH1 0x1 PUSH1 0x1 PUSH1 0xA0 SHL SUB DUP2 AND DUP2 EQ PUSH2 0x489E JUMPI PUSH1 0x0 DUP1 REVERT JUMPDEST POP JUMP JUMPDEST PUSH1 0x0 DUP1 PUSH1 0x40 DUP4 DUP6 SUB SLT ISZERO PUSH2 0x48B4 JUMPI PUSH1 0x0 DUP1 REVERT JUMPDEST DUP3 CALLDATALOAD PUSH2 0x48BF DUP2 PUSH2 0x4889 JUMP JUMPDEST SWAP5 PUSH1 0x20 SWAP4 SWAP1 SWAP4 ADD CALLDATALOAD SWAP4 POP POP POP JUMP JUMPDEST PUSH1 0x1 PUSH1 0x1 PUSH1 0xE0 SHL SUB NOT DUP2 AND DUP2 EQ PUSH2 0x489E JUMPI PUSH1 0x0 DUP1 REVERT JUMPDEST PUSH1 0x0 PUSH1 0x20 DUP3 DUP5 SUB SLT ISZERO PUSH2 0x48F5 JUMPI PUSH1 0x0 DUP1 REVERT JUMPDEST DUP2 CALLDATALOAD PUSH2 0x1300 DUP2 PUSH2 0x48CD JUMP JUMPDEST PUSH1 0x0 DUP1 PUSH1 0x20 DUP4 DUP6 SUB SLT ISZERO PUSH2 0x4913 JUMPI PUSH1 0x0 DUP1 REVERT JUMPDEST DUP3 CALLDATALOAD PUSH8 0xFFFFFFFFFFFFFFFF DUP1 DUP3 GT ISZERO PUSH2 0x492B JUMPI PUSH1 0x0 DUP1 REVERT JUMPDEST DUP2 DUP6 ADD SWAP2 POP DUP6 PUSH1 0x1F DUP4 ADD SLT PUSH2 0x493F JUMPI PUSH1 0x0 DUP1 REVERT JUMPDEST DUP2 CALLDATALOAD DUP2 DUP2 GT ISZERO PUSH2 0x494E JUMPI PUSH1 0x0 DUP1 REVERT JUMPDEST DUP7 PUSH1 0x20 DUP3 PUSH1 0x6 SHL DUP6 ADD ADD GT ISZERO PUSH2 0x4963 JUMPI PUSH1 0x0 DUP1 REVERT JUMPDEST PUSH1 0x20 SWAP3 SWAP1 SWAP3 ADD SWAP7 SWAP2 SWAP6 POP SWAP1 SWAP4 POP POP POP POP JUMP JUMPDEST PUSH1 0x0 PUSH1 0x20 DUP3 DUP5 SUB SLT ISZERO PUSH2 0x4987 JUMPI PUSH1 0x0 DUP1 REVERT JUMPDEST DUP2 CALLDATALOAD PUSH2 0x1300 DUP2 PUSH2 0x4889 JUMP JUMPDEST PUSH1 0x0 PUSH1 0x20 DUP3 DUP5 SUB SLT ISZERO PUSH2 0x49A4 JUMPI PUSH1 0x0 DUP1 REVERT JUMPDEST POP CALLDATALOAD SWAP2 SWAP1 POP JUMP JUMPDEST PUSH1 0x0 JUMPDEST DUP4 DUP2 LT ISZERO PUSH2 0x49C6 JUMPI DUP2 DUP2 ADD MLOAD DUP4 DUP3 ADD MSTORE PUSH1 0x20 ADD PUSH2 0x49AE JUMP JUMPDEST DUP4 DUP2 GT ISZERO PUSH2 0xA40 JUMPI POP POP PUSH1 0x0 SWAP2 ADD MSTORE JUMP JUMPDEST PUSH1 0x0 DUP2 MLOAD DUP1 DUP5 MSTORE PUSH2 0x49EF DUP2 PUSH1 0x20 DUP7 ADD PUSH1 0x20 DUP7 ADD PUSH2 0x49AB JUMP JUMPDEST PUSH1 0x1F ADD PUSH1 0x1F NOT AND SWAP3 SWAP1 SWAP3 ADD PUSH1 0x20 ADD SWAP3 SWAP2 POP POP JUMP JUMPDEST PUSH1 0x20 DUP2 MSTORE PUSH1 0x0 PUSH2 0x1300 PUSH1 0x20 DUP4 ADD DUP5 PUSH2 0x49D7 JUMP JUMPDEST PUSH1 0x0 DUP1 PUSH1 0x0 DUP1 PUSH1 0x80 DUP6 DUP8 SUB SLT ISZERO PUSH2 0x4A2C JUMPI PUSH1 0x0 DUP1 REVERT JUMPDEST DUP5 CALLDATALOAD PUSH2 0x4A37 DUP2 PUSH2 0x4889 JUMP JUMPDEST SWAP4 POP PUSH1 0x20 DUP6 ADD CALLDATALOAD PUSH2 0x4A47 DUP2 PUSH2 0x4889 JUMP JUMPDEST SWAP3 POP PUSH1 0x40 DUP6 ADD CALLDATALOAD SWAP2 POP PUSH1 0x60 DUP6 ADD CALLDATALOAD PUSH2 0x4A5E DUP2 PUSH2 0x4889 JUMP JUMPDEST SWAP4 SWAP7 SWAP3 SWAP6 POP SWAP1 SWAP4 POP POP JUMP JUMPDEST PUSH4 0x4E487B71 PUSH1 0xE0 SHL PUSH1 0x0 MSTORE PUSH1 0x41 PUSH1 0x4 MSTORE PUSH1 0x24 PUSH1 0x0 REVERT JUMPDEST PUSH1 0x1F DUP3 ADD PUSH1 0x1F NOT AND DUP2 ADD PUSH8 0xFFFFFFFFFFFFFFFF DUP2 GT DUP3 DUP3 LT OR ISZERO PUSH2 0x4AA5 JUMPI PUSH2 0x4AA5 PUSH2 0x4A69 JUMP JUMPDEST PUSH1 0x40 MSTORE POP POP JUMP JUMPDEST PUSH1 0x0 PUSH8 0xFFFFFFFFFFFFFFFF DUP3 GT ISZERO PUSH2 0x4AC6 JUMPI PUSH2 0x4AC6 PUSH2 0x4A69 JUMP JUMPDEST POP PUSH1 0x5 SHL PUSH1 0x20 ADD SWAP1 JUMP JUMPDEST PUSH1 0x0 DUP3 PUSH1 0x1F DUP4 ADD SLT PUSH2 0x4AE1 JUMPI PUSH1 0x0 DUP1 REVERT JUMPDEST DUP2 CALLDATALOAD PUSH1 0x20 PUSH2 0x4AEE DUP3 PUSH2 0x4AAC JUMP JUMPDEST PUSH1 0x40 MLOAD PUSH2 0x4AFB DUP3 DUP3 PUSH2 0x4A7F JUMP JUMPDEST DUP4 DUP2 MSTORE PUSH1 0x5 SWAP4 SWAP1 SWAP4 SHL DUP6 ADD DUP3 ADD SWAP3 DUP3 DUP2 ADD SWAP2 POP DUP7 DUP5 GT ISZERO PUSH2 0x4B1B JUMPI PUSH1 0x0 DUP1 REVERT JUMPDEST DUP3 DUP7 ADD JUMPDEST DUP5 DUP2 LT ISZERO PUSH2 0x4B36 JUMPI DUP1 CALLDATALOAD DUP4 MSTORE SWAP2 DUP4 ADD SWAP2 DUP4 ADD PUSH2 0x4B1F JUMP JUMPDEST POP SWAP7 SWAP6 POP POP POP POP POP POP JUMP JUMPDEST PUSH1 0x0 DUP3 PUSH1 0x1F DUP4 ADD SLT PUSH2 0x4B52 JUMPI PUSH1 0x0 DUP1 REVERT JUMPDEST DUP2 CALLDATALOAD PUSH8 0xFFFFFFFFFFFFFFFF DUP2 GT ISZERO PUSH2 0x4B6C JUMPI PUSH2 0x4B6C PUSH2 0x4A69 JUMP JUMPDEST PUSH1 0x40 MLOAD PUSH2 0x4B83 PUSH1 0x1F DUP4 ADD PUSH1 0x1F NOT AND PUSH1 0x20 ADD DUP3 PUSH2 0x4A7F JUMP JUMPDEST DUP2 DUP2 MSTORE DUP5 PUSH1 0x20 DUP4 DUP7 ADD ADD GT ISZERO PUSH2 0x4B98 JUMPI PUSH1 0x0 DUP1 REVERT JUMPDEST DUP2 PUSH1 0x20 DUP6 ADD PUSH1 0x20 DUP4 ADD CALLDATACOPY PUSH1 0x0 SWAP2 DUP2 ADD PUSH1 0x20 ADD SWAP2 SWAP1 SWAP2 MSTORE SWAP4 SWAP3 POP POP POP JUMP JUMPDEST PUSH1 0x0 DUP1 PUSH1 0x0 DUP1 PUSH1 0x0 PUSH1 0xA0 DUP7 DUP9 SUB SLT ISZERO PUSH2 0x4BCD JUMPI PUSH1 0x0 DUP1 REVERT JUMPDEST DUP6 CALLDATALOAD PUSH2 0x4BD8 DUP2 PUSH2 0x4889 JUMP JUMPDEST SWAP5 POP PUSH1 0x20 DUP7 ADD CALLDATALOAD PUSH2 0x4BE8 DUP2 PUSH2 0x4889 JUMP JUMPDEST SWAP4 POP PUSH1 0x40 DUP7 ADD CALLDATALOAD PUSH8 0xFFFFFFFFFFFFFFFF DUP1 DUP3 GT ISZERO PUSH2 0x4C05 JUMPI PUSH1 0x0 DUP1 REVERT JUMPDEST PUSH2 0x4C11 DUP10 DUP4 DUP11 ADD PUSH2 0x4AD0 JUMP JUMPDEST SWAP5 POP PUSH1 0x60 DUP9 ADD CALLDATALOAD SWAP2 POP DUP1 DUP3 GT ISZERO PUSH2 0x4C27 JUMPI PUSH1 0x0 DUP1 REVERT JUMPDEST PUSH2 0x4C33 DUP10 DUP4 DUP11 ADD PUSH2 0x4AD0 JUMP JUMPDEST SWAP4 POP PUSH1 0x80 DUP9 ADD CALLDATALOAD SWAP2 POP DUP1 DUP3 GT ISZERO PUSH2 0x4C49 JUMPI PUSH1 0x0 DUP1 REVERT JUMPDEST POP PUSH2 0x4C56 DUP9 DUP3 DUP10 ADD PUSH2 0x4B41 JUMP JUMPDEST SWAP2 POP POP SWAP3 SWAP6 POP SWAP3 SWAP6 SWAP1 SWAP4 POP JUMP JUMPDEST PUSH1 0x0 DUP1 PUSH1 0x40 DUP4 DUP6 SUB SLT ISZERO PUSH2 0x4C76 JUMPI PUSH1 0x0 DUP1 REVERT JUMPDEST DUP3 CALLDATALOAD SWAP2 POP PUSH1 0x20 DUP4 ADD CALLDATALOAD PUSH2 0x4C88 DUP2 PUSH2 0x4889 JUMP JUMPDEST DUP1 SWAP2 POP POP SWAP3 POP SWAP3 SWAP1 POP JUMP JUMPDEST PUSH1 0x0 DUP1 PUSH1 0x40 DUP4 DUP6 SUB SLT ISZERO PUSH2 0x4CA6 JUMPI PUSH1 0x0 DUP1 REVERT JUMPDEST DUP3 CALLDATALOAD PUSH8 0xFFFFFFFFFFFFFFFF DUP1 DUP3 GT ISZERO PUSH2 0x4CBE JUMPI PUSH1 0x0 DUP1 REVERT JUMPDEST PUSH2 0x4CCA DUP7 DUP4 DUP8 ADD PUSH2 0x4B41 JUMP JUMPDEST SWAP4 POP PUSH1 0x20 DUP6 ADD CALLDATALOAD SWAP2 POP DUP1 DUP3 GT ISZERO PUSH2 0x4CE0 JUMPI PUSH1 0x0 DUP1 REVERT JUMPDEST POP PUSH2 0x4CED DUP6 DUP3 DUP7 ADD PUSH2 0x4B41 JUMP JUMPDEST SWAP2 POP POP SWAP3 POP SWAP3 SWAP1 POP JUMP JUMPDEST PUSH1 0x0 DUP1 PUSH1 0x0 PUSH1 0x60 DUP5 DUP7 SUB SLT ISZERO PUSH2 0x4D0C JUMPI PUSH1 0x0 DUP1 REVERT JUMPDEST DUP4 CALLDATALOAD PUSH2 0x4D17 DUP2 PUSH2 0x4889 JUMP JUMPDEST SWAP3 POP PUSH1 0x20 DUP5 ADD CALLDATALOAD PUSH2 0x4D27 DUP2 PUSH2 0x4889 JUMP JUMPDEST SWAP3 SWAP6 SWAP3 SWAP5 POP POP POP PUSH1 0x40 SWAP2 SWAP1 SWAP2 ADD CALLDATALOAD SWAP1 JUMP JUMPDEST PUSH1 0x0 DUP1 PUSH1 0x40 DUP4 DUP6 SUB SLT ISZERO PUSH2 0x4D4B JUMPI PUSH1 0x0 DUP1 REVERT JUMPDEST DUP3 CALLDATALOAD PUSH8 0xFFFFFFFFFFFFFFFF DUP1 DUP3 GT ISZERO PUSH2 0x4D63 JUMPI PUSH1 0x0 DUP1 REVERT JUMPDEST DUP2 DUP6 ADD SWAP2 POP DUP6 PUSH1 0x1F DUP4 ADD SLT PUSH2 0x4D77 JUMPI PUSH1 0x0 DUP1 REVERT JUMPDEST DUP2 CALLDATALOAD PUSH1 0x20 PUSH2 0x4D84 DUP3 PUSH2 0x4AAC JUMP JUMPDEST PUSH1 0x40 MLOAD PUSH2 0x4D91 DUP3 DUP3 PUSH2 0x4A7F JUMP JUMPDEST DUP4 DUP2 MSTORE PUSH1 0x5 SWAP4 SWAP1 SWAP4 SHL DUP6 ADD DUP3 ADD SWAP3 DUP3 DUP2 ADD SWAP2 POP DUP10 DUP5 GT ISZERO PUSH2 0x4DB1 JUMPI PUSH1 0x0 DUP1 REVERT JUMPDEST SWAP5 DUP3 ADD SWAP5 JUMPDEST DUP4 DUP7 LT ISZERO PUSH2 0x4DD8 JUMPI DUP6 CALLDATALOAD PUSH2 0x4DC9 DUP2 PUSH2 0x4889 JUMP JUMPDEST DUP3 MSTORE SWAP5 DUP3 ADD SWAP5 SWAP1 DUP3 ADD SWAP1 PUSH2 0x4DB6 JUMP JUMPDEST SWAP7 POP POP DUP7 ADD CALLDATALOAD SWAP3 POP POP DUP1 DUP3 GT ISZERO PUSH2 0x4DEE JUMPI PUSH1 0x0 DUP1 REVERT JUMPDEST POP PUSH2 0x4CED DUP6 DUP3 DUP7 ADD PUSH2 0x4AD0 JUMP JUMPDEST PUSH1 0x0 DUP2 MLOAD DUP1 DUP5 MSTORE PUSH1 0x20 DUP1 DUP6 ADD SWAP5 POP DUP1 DUP5 ADD PUSH1 0x0 JUMPDEST DUP4 DUP2 LT ISZERO PUSH2 0x4E2B JUMPI DUP2 MLOAD DUP8 MSTORE SWAP6 DUP3 ADD SWAP6 SWAP1 DUP3 ADD SWAP1 PUSH1 0x1 ADD PUSH2 0x4E0F JUMP JUMPDEST POP SWAP5 SWAP6 SWAP5 POP POP POP POP POP JUMP JUMPDEST PUSH1 0x20 DUP2 MSTORE PUSH1 0x0 PUSH2 0x1300 PUSH1 0x20 DUP4 ADD DUP5 PUSH2 0x4DFB JUMP JUMPDEST PUSH1 0x0 DUP1 PUSH1 0x40 DUP4 DUP6 SUB SLT ISZERO PUSH2 0x4E5C JUMPI PUSH1 0x0 DUP1 REVERT JUMPDEST POP POP DUP1 CALLDATALOAD SWAP3 PUSH1 0x20 SWAP1 SWAP2 ADD CALLDATALOAD SWAP2 POP JUMP JUMPDEST DUP1 ISZERO ISZERO DUP2 EQ PUSH2 0x489E JUMPI PUSH1 0x0 DUP1 REVERT JUMPDEST PUSH1 0x0 DUP1 PUSH1 0x40 DUP4 DUP6 SUB SLT ISZERO PUSH2 0x4E8C JUMPI PUSH1 0x0 DUP1 REVERT JUMPDEST DUP3 CALLDATALOAD PUSH2 0x4E97 DUP2 PUSH2 0x4889 JUMP JUMPDEST SWAP2 POP PUSH1 0x20 DUP4 ADD CALLDATALOAD PUSH2 0x4C88 DUP2 PUSH2 0x4E6B JUMP JUMPDEST PUSH1 0x0 DUP1 PUSH1 0x0 DUP1 PUSH1 0x0 DUP1 PUSH1 0xC0 DUP8 DUP10 SUB SLT ISZERO PUSH2 0x4EC0 JUMPI PUSH1 0x0 DUP1 REVERT JUMPDEST DUP7 CALLDATALOAD PUSH2 0x4ECB DUP2 PUSH2 0x4889 JUMP JUMPDEST SWAP6 POP PUSH1 0x20 DUP8 ADD CALLDATALOAD PUSH2 0x4EDB DUP2 PUSH2 0x4889 JUMP JUMPDEST SWAP5 POP PUSH1 0x40 DUP8 ADD CALLDATALOAD SWAP4 POP PUSH1 0x60 DUP8 ADD CALLDATALOAD SWAP3 POP PUSH1 0x80 DUP8 ADD CALLDATALOAD SWAP2 POP PUSH1 0xA0 DUP8 ADD CALLDATALOAD PUSH2 0x4F00 DUP2 PUSH2 0x4889 JUMP JUMPDEST DUP1 SWAP2 POP POP SWAP3 SWAP6 POP SWAP3 SWAP6 POP SWAP3 SWAP6 JUMP JUMPDEST PUSH1 0x0 PUSH1 0x20 DUP3 DUP5 SUB SLT ISZERO PUSH2 0x4F20 JUMPI PUSH1 0x0 DUP1 REVERT JUMPDEST DUP2 CALLDATALOAD PUSH8 0xFFFFFFFFFFFFFFFF DUP2 GT ISZERO PUSH2 0x4F37 JUMPI PUSH1 0x0 DUP1 REVERT JUMPDEST PUSH2 0x30AD DUP5 DUP3 DUP6 ADD PUSH2 0x4B41 JUMP JUMPDEST DUP2 MLOAD PUSH1 0x1 PUSH1 0x1 PUSH1 0xA0 SHL SUB AND DUP2 MSTORE PUSH1 0x20 DUP1 DUP4 ADD MLOAD PUSH2 0x180 DUP4 ADD SWAP2 SWAP1 DUP2 DUP5 ADD PUSH1 0x0 JUMPDEST PUSH1 0x8 DUP2 LT ISZERO PUSH2 0x4F86 JUMPI DUP3 MLOAD PUSH4 0xFFFFFFFF AND DUP3 MSTORE SWAP2 DUP4 ADD SWAP2 SWAP1 DUP4 ADD SWAP1 PUSH1 0x1 ADD PUSH2 0x4F63 JUMP JUMPDEST POP POP POP POP PUSH1 0x40 DUP4 ADD MLOAD PUSH1 0x1 PUSH1 0x1 PUSH1 0x70 SHL SUB SWAP1 DUP2 AND PUSH2 0x120 DUP5 ADD MSTORE PUSH1 0x60 DUP5 ADD MLOAD DUP2 AND PUSH2 0x140 DUP5 ADD MSTORE PUSH1 0x80 DUP5 ADD MLOAD SWAP1 DUP2 AND PUSH2 0x160 DUP5 ADD MSTORE PUSH2 0x33F1 JUMP JUMPDEST PUSH1 0x0 DUP1 PUSH1 0x0 DUP1 PUSH1 0x80 DUP6 DUP8 SUB SLT ISZERO PUSH2 0x4FD6 JUMPI PUSH1 0x0 DUP1 REVERT JUMPDEST DUP5 CALLDATALOAD PUSH2 0x4FE1 DUP2 PUSH2 0x4889 JUMP JUMPDEST SWAP4 POP PUSH1 0x20 DUP6 ADD CALLDATALOAD SWAP3 POP PUSH1 0x40 DUP6 ADD CALLDATALOAD SWAP2 POP PUSH1 0x60 DUP6 ADD CALLDATALOAD PUSH2 0x4A5E DUP2 PUSH2 0x4889 JUMP JUMPDEST PUSH1 0x0 DUP1 PUSH1 0x40 DUP4 DUP6 SUB SLT ISZERO PUSH2 0x5012 JUMPI PUSH1 0x0 DUP1 REVERT JUMPDEST DUP3 CALLDATALOAD PUSH2 0x501D DUP2 PUSH2 0x4889 JUMP JUMPDEST SWAP2 POP PUSH1 0x20 DUP4 ADD CALLDATALOAD PUSH2 0x4C88 DUP2 PUSH2 0x4889 JUMP JUMPDEST PUSH1 0x0 DUP1 PUSH1 0x0 DUP1 PUSH1 0x0 PUSH1 0xA0 DUP7 DUP9 SUB SLT ISZERO PUSH2 0x5045 JUMPI PUSH1 0x0 DUP1 REVERT JUMPDEST DUP6 CALLDATALOAD PUSH2 0x5050 DUP2 PUSH2 0x4889 JUMP JUMPDEST SWAP5 POP PUSH1 0x20 DUP7 ADD CALLDATALOAD PUSH2 0x5060 DUP2 PUSH2 0x4889 JUMP JUMPDEST SWAP4 POP PUSH1 0x40 DUP7 ADD CALLDATALOAD PUSH2 0x5070 DUP2 PUSH2 0x4889 JUMP JUMPDEST SWAP3 POP PUSH1 0x60 DUP7 ADD CALLDATALOAD PUSH2 0x5080 DUP2 PUSH2 0x4889 JUMP JUMPDEST SWAP2 POP PUSH1 0x80 DUP7 ADD CALLDATALOAD PUSH2 0x5090 DUP2 PUSH2 0x4889 JUMP JUMPDEST DUP1 SWAP2 POP POP SWAP3 SWAP6 POP SWAP3 SWAP6 SWAP1 SWAP4 POP JUMP JUMPDEST PUSH1 0x0 DUP1 PUSH1 0x0 DUP1 PUSH1 0x0 PUSH1 0xA0 DUP7 DUP9 SUB SLT ISZERO PUSH2 0x50B6 JUMPI PUSH1 0x0 DUP1 REVERT JUMPDEST DUP6 CALLDATALOAD PUSH2 0x50C1 DUP2 PUSH2 0x4889 JUMP JUMPDEST SWAP5 POP PUSH1 0x20 DUP7 ADD CALLDATALOAD PUSH2 0x50D1 DUP2 PUSH2 0x4889 JUMP JUMPDEST SWAP4 POP PUSH1 0x40 DUP7 ADD CALLDATALOAD SWAP3 POP PUSH1 0x60 DUP7 ADD CALLDATALOAD SWAP2 POP PUSH1 0x80 DUP7 ADD CALLDATALOAD PUSH8 0xFFFFFFFFFFFFFFFF DUP2 GT ISZERO PUSH2 0x50FB JUMPI PUSH1 0x0 DUP1 REVERT JUMPDEST PUSH2 0x4C56 DUP9 DUP3 DUP10 ADD PUSH2 0x4B41 JUMP JUMPDEST PUSH4 0x4E487B71 PUSH1 0xE0 SHL PUSH1 0x0 MSTORE PUSH1 0x32 PUSH1 0x4 MSTORE PUSH1 0x24 PUSH1 0x0 REVERT JUMPDEST PUSH4 0x4E487B71 PUSH1 0xE0 SHL PUSH1 0x0 MSTORE PUSH1 0x11 PUSH1 0x4 MSTORE PUSH1 0x24 PUSH1 0x0 REVERT JUMPDEST PUSH1 0x0 PUSH1 0x0 NOT DUP3 EQ ISZERO PUSH2 0x5147 JUMPI PUSH2 0x5147 PUSH2 0x511D JUMP JUMPDEST POP PUSH1 0x1 ADD SWAP1 JUMP JUMPDEST PUSH1 0x0 PUSH1 0x20 DUP3 DUP5 SUB SLT ISZERO PUSH2 0x5160 JUMPI PUSH1 0x0 DUP1 REVERT JUMPDEST DUP2 MLOAD PUSH2 0x1300 DUP2 PUSH2 0x4889 JUMP JUMPDEST PUSH1 0x1 DUP2 DUP2 SHR SWAP1 DUP3 AND DUP1 PUSH2 0x517F JUMPI PUSH1 0x7F DUP3 AND SWAP2 POP JUMPDEST PUSH1 0x20 DUP3 LT DUP2 EQ ISZERO PUSH2 0x2F4D JUMPI PUSH4 0x4E487B71 PUSH1 0xE0 SHL PUSH1 0x0 MSTORE PUSH1 0x22 PUSH1 0x4 MSTORE PUSH1 0x24 PUSH1 0x0 REVERT JUMPDEST PUSH1 0x0 DUP3 DUP3 LT ISZERO PUSH2 0x51B2 JUMPI PUSH2 0x51B2 PUSH2 0x511D JUMP JUMPDEST POP SUB SWAP1 JUMP JUMPDEST PUSH1 0x0 DUP2 PUSH1 0x0 NOT DIV DUP4 GT DUP3 ISZERO ISZERO AND ISZERO PUSH2 0x51D1 JUMPI PUSH2 0x51D1 PUSH2 0x511D JUMP JUMPDEST POP MUL SWAP1 JUMP JUMPDEST PUSH4 0x4E487B71 PUSH1 0xE0 SHL PUSH1 0x0 MSTORE PUSH1 0x12 PUSH1 0x4 MSTORE PUSH1 0x24 PUSH1 0x0 REVERT JUMPDEST PUSH1 0x0 DUP3 PUSH2 0x51FB JUMPI PUSH2 0x51FB PUSH2 0x51D6 JUMP JUMPDEST POP DIV SWAP1 JUMP JUMPDEST PUSH1 0x0 DUP3 NOT DUP3 GT ISZERO PUSH2 0x5213 JUMPI PUSH2 0x5213 PUSH2 0x511D JUMP JUMPDEST POP ADD SWAP1 JUMP JUMPDEST PUSH1 0x0 PUSH1 0x1 PUSH1 0x1 PUSH1 0x70 SHL SUB DUP1 DUP4 AND DUP2 DUP6 AND DUP1 DUP4 SUB DUP3 GT ISZERO PUSH2 0x523A JUMPI PUSH2 0x523A PUSH2 0x511D JUMP JUMPDEST ADD SWAP5 SWAP4 POP POP POP POP JUMP JUMPDEST PUSH1 0x0 DUP1 DUP5 SLOAD DUP2 PUSH1 0x1 DUP3 DUP2 SHR SWAP2 POP DUP1 DUP4 AND DUP1 PUSH2 0x525F JUMPI PUSH1 0x7F DUP4 AND SWAP3 POP JUMPDEST PUSH1 0x20 DUP1 DUP5 LT DUP3 EQ ISZERO PUSH2 0x527F JUMPI PUSH4 0x4E487B71 PUSH1 0xE0 SHL DUP7 MSTORE PUSH1 0x22 PUSH1 0x4 MSTORE PUSH1 0x24 DUP7 REVERT JUMPDEST DUP2 DUP1 ISZERO PUSH2 0x5293 JUMPI PUSH1 0x1 DUP2 EQ PUSH2 0x52A4 JUMPI PUSH2 0x52D1 JUMP JUMPDEST PUSH1 0xFF NOT DUP7 AND DUP10 MSTORE DUP5 DUP10 ADD SWAP7 POP PUSH2 0x52D1 JUMP JUMPDEST PUSH1 0x0 DUP12 DUP2 MSTORE PUSH1 0x20 SWAP1 KECCAK256 PUSH1 0x0 JUMPDEST DUP7 DUP2 LT ISZERO PUSH2 0x52C9 JUMPI DUP2 SLOAD DUP12 DUP3 ADD MSTORE SWAP1 DUP6 ADD SWAP1 DUP4 ADD PUSH2 0x52B0 JUMP JUMPDEST POP POP DUP5 DUP10 ADD SWAP7 POP JUMPDEST POP DUP9 DUP7 MSTORE PUSH2 0x52EC DUP2 DUP8 ADD PUSH5 0x173539B7B7 PUSH1 0xD9 SHL DUP2 MSTORE PUSH1 0x5 ADD SWAP1 JUMP JUMPDEST SWAP11 SWAP10 POP POP POP POP POP POP POP POP POP POP JUMP JUMPDEST PUSH1 0x0 PUSH1 0x1 PUSH1 0x1 PUSH1 0x70 SHL SUB DUP4 DUP2 AND SWAP1 DUP4 AND DUP2 DUP2 LT ISZERO PUSH2 0x531A JUMPI PUSH2 0x531A PUSH2 0x511D JUMP JUMPDEST SUB SWAP4 SWAP3 POP POP POP JUMP JUMPDEST PUSH1 0x0 DUP3 MLOAD PUSH2 0x5334 DUP2 DUP5 PUSH1 0x20 DUP8 ADD PUSH2 0x49AB JUMP JUMPDEST PUSH9 0x3DB4B23E973539B7B7 PUSH1 0xB9 SHL SWAP3 ADD SWAP2 DUP3 MSTORE POP PUSH1 0x9 ADD SWAP2 SWAP1 POP JUMP JUMPDEST PUSH1 0x0 DUP3 PUSH2 0x535E JUMPI PUSH2 0x535E PUSH2 0x51D6 JUMP JUMPDEST POP MOD SWAP1 JUMP JUMPDEST PUSH32 0x416363657373436F6E74726F6C3A206163636F756E7420000000000000000000 DUP2 MSTORE PUSH1 0x0 DUP4 MLOAD PUSH2 0x539B DUP2 PUSH1 0x17 DUP6 ADD PUSH1 0x20 DUP9 ADD PUSH2 0x49AB JUMP JUMPDEST PUSH17 0x1034B99036B4B9B9B4B733903937B6329 PUSH1 0x7D SHL PUSH1 0x17 SWAP2 DUP5 ADD SWAP2 DUP3 ADD MSTORE DUP4 MLOAD PUSH2 0x53CC DUP2 PUSH1 0x28 DUP5 ADD PUSH1 0x20 DUP9 ADD PUSH2 0x49AB JUMP JUMPDEST ADD PUSH1 0x28 ADD SWAP5 SWAP4 POP POP POP POP JUMP JUMPDEST PUSH1 0x0 PUSH1 0x20 DUP3 DUP5 SUB SLT ISZERO PUSH2 0x53EA JUMPI PUSH1 0x0 DUP1 REVERT JUMPDEST POP MLOAD SWAP2 SWAP1 POP JUMP JUMPDEST PUSH1 0x20 DUP1 DUP3 MSTORE PUSH1 0x25 SWAP1 DUP3 ADD MSTORE PUSH32 0x455243313135353A207472616E7366657220746F20746865207A65726F206164 PUSH1 0x40 DUP3 ADD MSTORE PUSH5 0x6472657373 PUSH1 0xD8 SHL PUSH1 0x60 DUP3 ADD MSTORE PUSH1 0x80 ADD SWAP1 JUMP JUMPDEST PUSH1 0x20 DUP1 DUP3 MSTORE PUSH1 0x2A SWAP1 DUP3 ADD MSTORE PUSH32 0x455243313135353A20696E73756666696369656E742062616C616E636520666F PUSH1 0x40 DUP3 ADD MSTORE PUSH10 0x39103A3930B739B332B9 PUSH1 0xB1 SHL PUSH1 0x60 DUP3 ADD MSTORE PUSH1 0x80 ADD SWAP1 JUMP JUMPDEST PUSH1 0x40 DUP2 MSTORE PUSH1 0x0 PUSH2 0x5493 PUSH1 0x40 DUP4 ADD DUP6 PUSH2 0x4DFB JUMP JUMPDEST DUP3 DUP2 SUB PUSH1 0x20 DUP5 ADD MSTORE PUSH2 0x12FC DUP2 DUP6 PUSH2 0x4DFB JUMP JUMPDEST PUSH1 0x0 PUSH1 0x1 PUSH1 0x1 PUSH1 0x70 SHL SUB DUP1 DUP4 AND DUP2 DUP6 AND DUP2 DUP4 DIV DUP2 GT DUP3 ISZERO ISZERO AND ISZERO PUSH2 0x54CB JUMPI PUSH2 0x54CB PUSH2 0x511D JUMP JUMPDEST MUL SWAP5 SWAP4 POP POP POP POP JUMP JUMPDEST PUSH1 0x0 DUP2 PUSH2 0x54E3 JUMPI PUSH2 0x54E3 PUSH2 0x511D JUMP JUMPDEST POP PUSH1 0x0 NOT ADD SWAP1 JUMP JUMPDEST PUSH1 0x0 DUP3 MLOAD PUSH2 0x54FD DUP2 DUP5 PUSH1 0x20 DUP8 ADD PUSH2 0x49AB JUMP JUMPDEST SWAP2 SWAP1 SWAP2 ADD SWAP3 SWAP2 POP POP JUMP JUMPDEST PUSH1 0x0 PUSH1 0x20 DUP3 DUP5 SUB SLT ISZERO PUSH2 0x5519 JUMPI PUSH1 0x0 DUP1 REVERT JUMPDEST DUP2 MLOAD PUSH2 0x1300 DUP2 PUSH2 0x4E6B JUMP JUMPDEST PUSH1 0x1 PUSH1 0x1 PUSH1 0xA0 SHL SUB DUP7 DUP2 AND DUP3 MSTORE DUP6 AND PUSH1 0x20 DUP3 ADD MSTORE PUSH1 0x40 DUP2 ADD DUP5 SWAP1 MSTORE PUSH1 0x60 DUP2 ADD DUP4 SWAP1 MSTORE PUSH1 0xA0 PUSH1 0x80 DUP3 ADD DUP2 SWAP1 MSTORE PUSH1 0x0 SWAP1 PUSH2 0x43E2 SWAP1 DUP4 ADD DUP5 PUSH2 0x49D7 JUMP JUMPDEST PUSH1 0x0 PUSH1 0x20 DUP3 DUP5 SUB SLT ISZERO PUSH2 0x5570 JUMPI PUSH1 0x0 DUP1 REVERT JUMPDEST DUP2 MLOAD PUSH2 0x1300 DUP2 PUSH2 0x48CD JUMP JUMPDEST PUSH1 0x0 PUSH1 0x3 RETURNDATASIZE GT ISZERO PUSH2 0x5594 JUMPI PUSH1 0x4 PUSH1 0x0 DUP1 RETURNDATACOPY POP PUSH1 0x0 MLOAD PUSH1 0xE0 SHR JUMPDEST SWAP1 JUMP JUMPDEST PUSH1 0x0 PUSH1 0x44 RETURNDATASIZE LT ISZERO PUSH2 0x55A5 JUMPI SWAP1 JUMP JUMPDEST PUSH1 0x40 MLOAD PUSH1 0x3 NOT RETURNDATASIZE DUP2 ADD PUSH1 0x4 DUP4 RETURNDATACOPY DUP2 MLOAD RETURNDATASIZE PUSH8 0xFFFFFFFFFFFFFFFF DUP2 PUSH1 0x24 DUP5 ADD GT DUP2 DUP5 GT OR ISZERO PUSH2 0x55D5 JUMPI POP POP POP POP POP SWAP1 JUMP JUMPDEST DUP3 DUP6 ADD SWAP2 POP DUP2 MLOAD DUP2 DUP2 GT ISZERO PUSH2 0x55ED JUMPI POP POP POP POP POP POP SWAP1 JUMP JUMPDEST DUP5 RETURNDATASIZE DUP8 ADD ADD PUSH1 0x20 DUP3 DUP6 ADD ADD GT ISZERO PUSH2 0x5607 JUMPI POP POP POP POP POP POP SWAP1 JUMP JUMPDEST PUSH2 0x5616 PUSH1 0x20 DUP3 DUP7 ADD ADD DUP8 PUSH2 0x4A7F JUMP JUMPDEST POP SWAP1 SWAP6 SWAP5 POP POP POP POP POP JUMP JUMPDEST PUSH1 0x20 DUP1 DUP3 MSTORE PUSH1 0x28 SWAP1 DUP3 ADD MSTORE PUSH32 0x455243313135353A204552433131353552656365697665722072656A65637465 PUSH1 0x40 DUP3 ADD MSTORE PUSH8 0x6420746F6B656E73 PUSH1 0xC0 SHL PUSH1 0x60 DUP3 ADD MSTORE PUSH1 0x80 ADD SWAP1 JUMP JUMPDEST PUSH1 0x1 PUSH1 0x1 PUSH1 0xA0 SHL SUB DUP7 DUP2 AND DUP3 MSTORE DUP6 AND PUSH1 0x20 DUP3 ADD MSTORE PUSH1 0xA0 PUSH1 0x40 DUP3 ADD DUP2 SWAP1 MSTORE PUSH1 0x0 SWAP1 PUSH2 0x5695 SWAP1 DUP4 ADD DUP7 PUSH2 0x4DFB JUMP JUMPDEST DUP3 DUP2 SUB PUSH1 0x60 DUP5 ADD MSTORE PUSH2 0x56A7 DUP2 DUP7 PUSH2 0x4DFB JUMP JUMPDEST SWAP1 POP DUP3 DUP2 SUB PUSH1 0x80 DUP5 ADD MSTORE PUSH2 0x56BB DUP2 DUP6 PUSH2 0x49D7 JUMP JUMPDEST SWAP9 SWAP8 POP POP POP POP POP POP POP POP JUMP JUMPDEST PUSH4 0x4E487B71 PUSH1 0xE0 SHL PUSH1 0x0 MSTORE PUSH1 0x31 PUSH1 0x4 MSTORE PUSH1 0x24 PUSH1 0x0 REVERT INVALID LOG2 PUSH5 0x6970667358 0x22 SLT KECCAK256 0xA6 0xC4 CALLER NUMBER SWAP13 0x22 DUP1 0xC8 INVALID SELFDESTRUCT 0x21 JUMP LOG3 SHR 0xE4 LOG1 SAR 0xAC PUSH22 0x34CAFC306457FC557CEFF40B4464736F6C634300080B STOP CALLER PUSH9 0x747470733A2F2F6461 PUSH21 0x612E63657262792E66692F4365726279537761702F PUSH23 0x312F000000000000000000000000000000000000000000 "
		},
		"gasEstimates": {
			"creation": {
				"codeDepositCost": "4458200",
				"executionCost": "infinite",
				"totalCost": "infinite"
			},
			"external": {
				"ROLE_ADMIN()": "295",
				"addTokenLiquidity(address,address,uint256,address)": "infinite",
				"adminCreatePool(address,uint256,uint256,address)": "infinite",
				"adminInitialize()": "infinite",
				"adminSetURI(string)": "infinite",
				"adminUpdateFeeToBeneficiary(address)": "24666",
				"adminUpdateNameAndSymbol(string,string)": "infinite",
				"balanceOf(address,uint256)": "2717",
				"balanceOfBatch(address[],uint256[])": "infinite",
				"burn(uint256,uint256)": "infinite",
				"decimals()": "249",
				"exists(uint256)": "2517",
				"feeToBeneficiary()": "2426",
				"getCurrentFeeBasedOnTrades(address)": "infinite",
				"getInputTokensForExactTokens(address,address,uint256)": "infinite",
				"getOutputExactTokensForTokens(address,address,uint256)": "infinite",
				"getPoolByPosition(uint256)": "infinite",
				"getPoolByToken(address)": "infinite",
				"getRoleAdmin(bytes32)": "2567",
				"getRoleMember(bytes32,uint256)": "infinite",
				"getRoleMemberCount(bytes32)": "infinite",
				"getTokenToPoolPosition(address)": "2609",
				"getTotalCerUsdBalance()": "2325",
				"getUtilsContractAtPos(uint256)": "infinite",
				"grantRole(bytes32,address)": "infinite",
				"grantRolesBulk((bytes32,address)[])": "infinite",
				"hasRole(bytes32,address)": "2710",
				"isApprovedForAll(address,address)": "infinite",
				"name()": "infinite",
				"removeTokenLiquidity(address,address,uint256,address)": "infinite",
				"renounceRole(bytes32,address)": "infinite",
				"revokeRole(bytes32,address)": "infinite",
				"safeBatchTransferFrom(address,address,uint256[],uint256[],bytes)": "infinite",
				"safeTransferFrom(address,address,uint256,uint256,bytes)": "infinite",
				"setApprovalForAll(address,bool)": "infinite",
				"supportsInterface(bytes4)": "601",
				"swap(address,uint256,uint256,address)": "infinite",
				"swapExactTokensForTokens(address,address,uint256,uint256,uint256,address)": "infinite",
				"swapTokensForExactTokens(address,address,uint256,uint256,uint256,address)": "infinite",
				"symbol()": "infinite",
				"syncTokenBalanceInPool(address)": "infinite",
				"testSetupTokens(address,address,address,address,address)": "infinite",
				"totalSupply()": "infinite",
				"totalSupply(uint256)": "2560",
				"uri(uint256)": "infinite"
			},
			"internal": {
				"_getInput(uint256,uint256,uint256,uint256)": "infinite",
				"_getMintFeeLiquidityAmount(uint256,uint256,uint256)": "infinite",
				"_getOutput(uint256,uint256,uint256,uint256)": "infinite",
				"_getTokenBalance(address)": "infinite",
				"_safeTransfer(address,address,uint256)": "infinite",
				"_safeTransferFrom(address,address,address,uint256)": "infinite",
				"_safeTransferFromHelper(address,address,uint256)": "infinite",
				"_safeTransferHelper(address,address,uint256)": "infinite",
				"_safeTransferNative(address,uint256)": "infinite",
				"getCurrent4Hour()": "142",
				"getCurrentFeeBasedOnTrades(uint256)": "infinite",
				"getInputCerUsdForExactTokens(address,uint256)": "infinite",
				"getInputTokensForExactCerUsd(address,uint256)": "infinite",
				"getOutputExactCerUsdForTokens(address,uint256)": "infinite",
				"getOutputExactTokensForCerUsd(address,uint256)": "infinite",
				"sqrt(uint256)": "infinite"
			}
		},
		"methodIdentifiers": {
			"ROLE_ADMIN()": "d391014b",
			"addTokenLiquidity(address,address,uint256,address)": "094811f7",
			"adminCreatePool(address,uint256,uint256,address)": "d5d60737",
			"adminInitialize()": "c09c923b",
			"adminSetURI(string)": "a7fd40bf",
			"adminUpdateFeeToBeneficiary(address)": "06edd763",
			"adminUpdateNameAndSymbol(string,string)": "3935ac11",
			"balanceOf(address,uint256)": "00fdd58e",
			"balanceOfBatch(address[],uint256[])": "4e1273f4",
			"burn(uint256,uint256)": "b390c0ab",
			"decimals()": "313ce567",
			"exists(uint256)": "4f558e79",
			"feeToBeneficiary()": "7b4b233c",
			"getCurrentFeeBasedOnTrades(address)": "9162ebf0",
			"getInputTokensForExactTokens(address,address,uint256)": "c790985a",
			"getOutputExactTokensForTokens(address,address,uint256)": "48b08d62",
			"getPoolByPosition(uint256)": "d01350bd",
			"getPoolByToken(address)": "bbadc03b",
			"getRoleAdmin(bytes32)": "248a9ca3",
			"getRoleMember(bytes32,uint256)": "9010d07c",
			"getRoleMemberCount(bytes32)": "ca15c873",
			"getTokenToPoolPosition(address)": "b771e425",
			"getTotalCerUsdBalance()": "df465a1a",
			"getUtilsContractAtPos(uint256)": "06fb1a07",
			"grantRole(bytes32,address)": "2f2ff15d",
			"grantRolesBulk((bytes32,address)[])": "03ed957f",
			"hasRole(bytes32,address)": "91d14854",
			"isApprovedForAll(address,address)": "e985e9c5",
			"name()": "06fdde03",
			"removeTokenLiquidity(address,address,uint256,address)": "7de25ae7",
			"renounceRole(bytes32,address)": "36568abe",
			"revokeRole(bytes32,address)": "d547741f",
			"safeBatchTransferFrom(address,address,uint256[],uint256[],bytes)": "2eb2c2d6",
			"safeTransferFrom(address,address,uint256,uint256,bytes)": "f242432a",
			"setApprovalForAll(address,bool)": "a22cb465",
			"supportsInterface(bytes4)": "01ffc9a7",
			"swap(address,uint256,uint256,address)": "f3e6ea8a",
			"swapExactTokensForTokens(address,address,uint256,uint256,uint256,address)": "a60c6e55",
			"swapTokensForExactTokens(address,address,uint256,uint256,uint256,address)": "f6524724",
			"symbol()": "95d89b41",
			"syncTokenBalanceInPool(address)": "9bc731fc",
			"testSetupTokens(address,address,address,address,address)": "eca01093",
			"totalSupply()": "18160ddd",
			"totalSupply(uint256)": "bd85b039",
			"uri(uint256)": "0e89341c"
		}
	},
	"abi": [
		{
			"inputs": [],
			"stateMutability": "nonpayable",
			"type": "constructor"
		},
		{
			"anonymous": false,
			"inputs": [
				{
					"indexed": true,
					"internalType": "address",
					"name": "account",
					"type": "address"
				},
				{
					"indexed": true,
					"internalType": "address",
					"name": "operator",
					"type": "address"
				},
				{
					"indexed": false,
					"internalType": "bool",
					"name": "approved",
					"type": "bool"
				}
			],
			"name": "ApprovalForAll",
			"type": "event"
		},
		{
			"anonymous": false,
			"inputs": [
				{
					"indexed": true,
					"internalType": "bytes32",
					"name": "role",
					"type": "bytes32"
				},
				{
					"indexed": true,
					"internalType": "bytes32",
					"name": "previousAdminRole",
					"type": "bytes32"
				},
				{
					"indexed": true,
					"internalType": "bytes32",
					"name": "newAdminRole",
					"type": "bytes32"
				}
			],
			"name": "RoleAdminChanged",
			"type": "event"
		},
		{
			"anonymous": false,
			"inputs": [
				{
					"indexed": true,
					"internalType": "bytes32",
					"name": "role",
					"type": "bytes32"
				},
				{
					"indexed": true,
					"internalType": "address",
					"name": "account",
					"type": "address"
				},
				{
					"indexed": true,
					"internalType": "address",
					"name": "sender",
					"type": "address"
				}
			],
			"name": "RoleGranted",
			"type": "event"
		},
		{
			"anonymous": false,
			"inputs": [
				{
					"indexed": true,
					"internalType": "bytes32",
					"name": "role",
					"type": "bytes32"
				},
				{
					"indexed": true,
					"internalType": "address",
					"name": "account",
					"type": "address"
				},
				{
					"indexed": true,
					"internalType": "address",
					"name": "sender",
					"type": "address"
				}
			],
			"name": "RoleRevoked",
			"type": "event"
		},
		{
			"anonymous": false,
			"inputs": [
				{
					"indexed": true,
					"internalType": "address",
					"name": "operator",
					"type": "address"
				},
				{
					"indexed": true,
					"internalType": "address",
					"name": "from",
					"type": "address"
				},
				{
					"indexed": true,
					"internalType": "address",
					"name": "to",
					"type": "address"
				},
				{
					"indexed": false,
					"internalType": "uint256[]",
					"name": "ids",
					"type": "uint256[]"
				},
				{
					"indexed": false,
					"internalType": "uint256[]",
					"name": "values",
					"type": "uint256[]"
				}
			],
			"name": "TransferBatch",
			"type": "event"
		},
		{
			"anonymous": false,
			"inputs": [
				{
					"indexed": true,
					"internalType": "address",
					"name": "operator",
					"type": "address"
				},
				{
					"indexed": true,
					"internalType": "address",
					"name": "from",
					"type": "address"
				},
				{
					"indexed": true,
					"internalType": "address",
					"name": "to",
					"type": "address"
				},
				{
					"indexed": false,
					"internalType": "uint256",
					"name": "id",
					"type": "uint256"
				},
				{
					"indexed": false,
					"internalType": "uint256",
					"name": "value",
					"type": "uint256"
				}
			],
			"name": "TransferSingle",
			"type": "event"
		},
		{
			"anonymous": false,
			"inputs": [
				{
					"indexed": false,
					"internalType": "string",
					"name": "value",
					"type": "string"
				},
				{
					"indexed": true,
					"internalType": "uint256",
					"name": "id",
					"type": "uint256"
				}
			],
			"name": "URI",
			"type": "event"
		},
		{
			"inputs": [],
			"name": "ROLE_ADMIN",
			"outputs": [
				{
					"internalType": "bytes32",
					"name": "",
					"type": "bytes32"
				}
			],
			"stateMutability": "view",
			"type": "function"
		},
		{
			"inputs": [
				{
					"internalType": "address",
					"name": "fromAddress",
					"type": "address"
				},
				{
					"internalType": "address",
					"name": "token",
					"type": "address"
				},
				{
					"internalType": "uint256",
					"name": "amountTokensIn",
					"type": "uint256"
				},
				{
					"internalType": "address",
					"name": "transferTo",
					"type": "address"
				}
			],
			"name": "addTokenLiquidity",
			"outputs": [],
			"stateMutability": "payable",
			"type": "function"
		},
		{
			"inputs": [
				{
					"internalType": "address",
					"name": "token",
					"type": "address"
				},
				{
					"internalType": "uint256",
					"name": "amountTokensIn",
					"type": "uint256"
				},
				{
					"internalType": "uint256",
					"name": "amountCerUsdIn",
					"type": "uint256"
				},
				{
					"internalType": "address",
					"name": "transferTo",
					"type": "address"
				}
			],
			"name": "adminCreatePool",
			"outputs": [],
			"stateMutability": "nonpayable",
			"type": "function"
		},
		{
			"inputs": [],
			"name": "adminInitialize",
			"outputs": [],
			"stateMutability": "nonpayable",
			"type": "function"
		},
		{
			"inputs": [
				{
					"internalType": "string",
					"name": "newUrlPrefix",
					"type": "string"
				}
			],
			"name": "adminSetURI",
			"outputs": [],
			"stateMutability": "nonpayable",
			"type": "function"
		},
		{
			"inputs": [
				{
					"internalType": "address",
					"name": "newFeeToBeneficiary",
					"type": "address"
				}
			],
			"name": "adminUpdateFeeToBeneficiary",
			"outputs": [],
			"stateMutability": "nonpayable",
			"type": "function"
		},
		{
			"inputs": [
				{
					"internalType": "string",
					"name": "newName",
					"type": "string"
				},
				{
					"internalType": "string",
					"name": "newSymbol",
					"type": "string"
				}
			],
			"name": "adminUpdateNameAndSymbol",
			"outputs": [],
			"stateMutability": "nonpayable",
			"type": "function"
		},
		{
			"inputs": [
				{
					"internalType": "address",
					"name": "account",
					"type": "address"
				},
				{
					"internalType": "uint256",
					"name": "id",
					"type": "uint256"
				}
			],
			"name": "balanceOf",
			"outputs": [
				{
					"internalType": "uint256",
					"name": "",
					"type": "uint256"
				}
			],
			"stateMutability": "view",
			"type": "function"
		},
		{
			"inputs": [
				{
					"internalType": "address[]",
					"name": "accounts",
					"type": "address[]"
				},
				{
					"internalType": "uint256[]",
					"name": "ids",
					"type": "uint256[]"
				}
			],
			"name": "balanceOfBatch",
			"outputs": [
				{
					"internalType": "uint256[]",
					"name": "",
					"type": "uint256[]"
				}
			],
			"stateMutability": "view",
			"type": "function"
		},
		{
			"inputs": [
				{
					"internalType": "uint256",
					"name": "id",
					"type": "uint256"
				},
				{
					"internalType": "uint256",
					"name": "amount",
					"type": "uint256"
				}
			],
			"name": "burn",
			"outputs": [],
			"stateMutability": "nonpayable",
			"type": "function"
		},
		{
			"inputs": [],
			"name": "decimals",
			"outputs": [
				{
					"internalType": "uint256",
					"name": "",
					"type": "uint256"
				}
			],
			"stateMutability": "pure",
			"type": "function"
		},
		{
			"inputs": [
				{
					"internalType": "uint256",
					"name": "id",
					"type": "uint256"
				}
			],
			"name": "exists",
			"outputs": [
				{
					"internalType": "bool",
					"name": "",
					"type": "bool"
				}
			],
			"stateMutability": "view",
			"type": "function"
		},
		{
			"inputs": [],
			"name": "feeToBeneficiary",
			"outputs": [
				{
					"internalType": "address",
					"name": "",
					"type": "address"
				}
			],
			"stateMutability": "view",
			"type": "function"
		},
		{
			"inputs": [
				{
					"internalType": "address",
					"name": "token",
					"type": "address"
				}
			],
			"name": "getCurrentFeeBasedOnTrades",
			"outputs": [
				{
					"internalType": "uint256",
					"name": "fee",
					"type": "uint256"
				}
			],
			"stateMutability": "view",
			"type": "function"
		},
		{
			"inputs": [
				{
					"internalType": "address",
					"name": "tokenIn",
					"type": "address"
				},
				{
					"internalType": "address",
					"name": "tokenOut",
					"type": "address"
				},
				{
					"internalType": "uint256",
					"name": "amountTokensOut",
					"type": "uint256"
				}
			],
			"name": "getInputTokensForExactTokens",
			"outputs": [
				{
					"internalType": "uint256",
					"name": "amountTokensIn",
					"type": "uint256"
				}
			],
			"stateMutability": "view",
			"type": "function"
		},
		{
			"inputs": [
				{
					"internalType": "address",
					"name": "tokenIn",
					"type": "address"
				},
				{
					"internalType": "address",
					"name": "tokenOut",
					"type": "address"
				},
				{
					"internalType": "uint256",
					"name": "amountTokensIn",
					"type": "uint256"
				}
			],
			"name": "getOutputExactTokensForTokens",
			"outputs": [
				{
					"internalType": "uint256",
					"name": "amountTokensOut",
					"type": "uint256"
				}
			],
			"stateMutability": "view",
			"type": "function"
		},
		{
			"inputs": [
				{
					"internalType": "uint256",
					"name": "pos",
					"type": "uint256"
				}
			],
			"name": "getPoolByPosition",
			"outputs": [
				{
					"components": [
						{
							"internalType": "address",
							"name": "token",
							"type": "address"
						},
						{
							"internalType": "uint32[8]",
							"name": "hourlyTradeVolumeInCerUsd",
							"type": "uint32[8]"
						},
						{
							"internalType": "uint112",
							"name": "balanceToken",
							"type": "uint112"
						},
						{
							"internalType": "uint112",
							"name": "balanceCerUsd",
							"type": "uint112"
						},
						{
							"internalType": "uint112",
							"name": "lastSqrtKValue",
							"type": "uint112"
						}
					],
					"internalType": "struct CerbySwapV1.Pool",
					"name": "",
					"type": "tuple"
				}
			],
			"stateMutability": "view",
			"type": "function"
		},
		{
			"inputs": [
				{
					"internalType": "address",
					"name": "token",
					"type": "address"
				}
			],
			"name": "getPoolByToken",
			"outputs": [
				{
					"components": [
						{
							"internalType": "address",
							"name": "token",
							"type": "address"
						},
						{
							"internalType": "uint32[8]",
							"name": "hourlyTradeVolumeInCerUsd",
							"type": "uint32[8]"
						},
						{
							"internalType": "uint112",
							"name": "balanceToken",
							"type": "uint112"
						},
						{
							"internalType": "uint112",
							"name": "balanceCerUsd",
							"type": "uint112"
						},
						{
							"internalType": "uint112",
							"name": "lastSqrtKValue",
							"type": "uint112"
						}
					],
					"internalType": "struct CerbySwapV1.Pool",
					"name": "",
					"type": "tuple"
				}
			],
			"stateMutability": "view",
			"type": "function"
		},
		{
			"inputs": [
				{
					"internalType": "bytes32",
					"name": "role",
					"type": "bytes32"
				}
			],
			"name": "getRoleAdmin",
			"outputs": [
				{
					"internalType": "bytes32",
					"name": "",
					"type": "bytes32"
				}
			],
			"stateMutability": "view",
			"type": "function"
		},
		{
			"inputs": [
				{
					"internalType": "bytes32",
					"name": "role",
					"type": "bytes32"
				},
				{
					"internalType": "uint256",
					"name": "index",
					"type": "uint256"
				}
			],
			"name": "getRoleMember",
			"outputs": [
				{
					"internalType": "address",
					"name": "",
					"type": "address"
				}
			],
			"stateMutability": "view",
			"type": "function"
		},
		{
			"inputs": [
				{
					"internalType": "bytes32",
					"name": "role",
					"type": "bytes32"
				}
			],
			"name": "getRoleMemberCount",
			"outputs": [
				{
					"internalType": "uint256",
					"name": "",
					"type": "uint256"
				}
			],
			"stateMutability": "view",
			"type": "function"
		},
		{
			"inputs": [
				{
					"internalType": "address",
					"name": "token",
					"type": "address"
				}
			],
			"name": "getTokenToPoolPosition",
			"outputs": [
				{
					"internalType": "uint256",
					"name": "",
					"type": "uint256"
				}
			],
			"stateMutability": "view",
			"type": "function"
		},
		{
			"inputs": [],
			"name": "getTotalCerUsdBalance",
			"outputs": [
				{
					"internalType": "uint256",
					"name": "",
					"type": "uint256"
				}
			],
			"stateMutability": "view",
			"type": "function"
		},
		{
			"inputs": [
				{
					"internalType": "uint256",
					"name": "pos",
					"type": "uint256"
				}
			],
			"name": "getUtilsContractAtPos",
			"outputs": [
				{
					"internalType": "address",
					"name": "",
					"type": "address"
				}
			],
			"stateMutability": "view",
			"type": "function"
		},
		{
			"inputs": [
				{
					"internalType": "bytes32",
					"name": "role",
					"type": "bytes32"
				},
				{
					"internalType": "address",
					"name": "account",
					"type": "address"
				}
			],
			"name": "grantRole",
			"outputs": [],
			"stateMutability": "nonpayable",
			"type": "function"
		},
		{
			"inputs": [
				{
					"components": [
						{
							"internalType": "bytes32",
							"name": "role",
							"type": "bytes32"
						},
						{
							"internalType": "address",
							"name": "addr",
							"type": "address"
						}
					],
					"internalType": "struct RoleAccess[]",
					"name": "roles",
					"type": "tuple[]"
				}
			],
			"name": "grantRolesBulk",
			"outputs": [],
			"stateMutability": "nonpayable",
			"type": "function"
		},
		{
			"inputs": [
				{
					"internalType": "bytes32",
					"name": "role",
					"type": "bytes32"
				},
				{
					"internalType": "address",
					"name": "account",
					"type": "address"
				}
			],
			"name": "hasRole",
			"outputs": [
				{
					"internalType": "bool",
					"name": "",
					"type": "bool"
				}
			],
			"stateMutability": "view",
			"type": "function"
		},
		{
			"inputs": [
				{
					"internalType": "address",
					"name": "account",
					"type": "address"
				},
				{
					"internalType": "address",
					"name": "operator",
					"type": "address"
				}
			],
			"name": "isApprovedForAll",
			"outputs": [
				{
					"internalType": "bool",
					"name": "",
					"type": "bool"
				}
			],
			"stateMutability": "view",
			"type": "function"
		},
		{
			"inputs": [],
			"name": "name",
			"outputs": [
				{
					"internalType": "string",
					"name": "",
					"type": "string"
				}
			],
			"stateMutability": "view",
			"type": "function"
		},
		{
			"inputs": [
				{
					"internalType": "address",
					"name": "fromAddress",
					"type": "address"
				},
				{
					"internalType": "address",
					"name": "token",
					"type": "address"
				},
				{
					"internalType": "uint256",
					"name": "amountLpTokensBalanceToBurn",
					"type": "uint256"
				},
				{
					"internalType": "address",
					"name": "transferTo",
					"type": "address"
				}
			],
			"name": "removeTokenLiquidity",
			"outputs": [
				{
					"internalType": "uint256",
					"name": "",
					"type": "uint256"
				}
			],
			"stateMutability": "payable",
			"type": "function"
		},
		{
			"inputs": [
				{
					"internalType": "bytes32",
					"name": "role",
					"type": "bytes32"
				},
				{
					"internalType": "address",
					"name": "account",
					"type": "address"
				}
			],
			"name": "renounceRole",
			"outputs": [],
			"stateMutability": "nonpayable",
			"type": "function"
		},
		{
			"inputs": [
				{
					"internalType": "bytes32",
					"name": "role",
					"type": "bytes32"
				},
				{
					"internalType": "address",
					"name": "account",
					"type": "address"
				}
			],
			"name": "revokeRole",
			"outputs": [],
			"stateMutability": "nonpayable",
			"type": "function"
		},
		{
			"inputs": [
				{
					"internalType": "address",
					"name": "from",
					"type": "address"
				},
				{
					"internalType": "address",
					"name": "to",
					"type": "address"
				},
				{
					"internalType": "uint256[]",
					"name": "ids",
					"type": "uint256[]"
				},
				{
					"internalType": "uint256[]",
					"name": "amounts",
					"type": "uint256[]"
				},
				{
					"internalType": "bytes",
					"name": "data",
					"type": "bytes"
				}
			],
			"name": "safeBatchTransferFrom",
			"outputs": [],
			"stateMutability": "nonpayable",
			"type": "function"
		},
		{
			"inputs": [
				{
					"internalType": "address",
					"name": "from",
					"type": "address"
				},
				{
					"internalType": "address",
					"name": "to",
					"type": "address"
				},
				{
					"internalType": "uint256",
					"name": "id",
					"type": "uint256"
				},
				{
					"internalType": "uint256",
					"name": "amount",
					"type": "uint256"
				},
				{
					"internalType": "bytes",
					"name": "data",
					"type": "bytes"
				}
			],
			"name": "safeTransferFrom",
			"outputs": [],
			"stateMutability": "nonpayable",
			"type": "function"
		},
		{
			"inputs": [
				{
					"internalType": "address",
					"name": "operator",
					"type": "address"
				},
				{
					"internalType": "bool",
					"name": "approved",
					"type": "bool"
				}
			],
			"name": "setApprovalForAll",
			"outputs": [],
			"stateMutability": "nonpayable",
			"type": "function"
		},
		{
			"inputs": [
				{
					"internalType": "bytes4",
					"name": "interfaceId",
					"type": "bytes4"
				}
			],
			"name": "supportsInterface",
			"outputs": [
				{
					"internalType": "bool",
					"name": "",
					"type": "bool"
				}
			],
			"stateMutability": "view",
			"type": "function"
		},
		{
			"inputs": [
				{
					"internalType": "address",
					"name": "token",
					"type": "address"
				},
				{
					"internalType": "uint256",
					"name": "amountTokensOut",
					"type": "uint256"
				},
				{
					"internalType": "uint256",
					"name": "amountCerUsdOut",
					"type": "uint256"
				},
				{
					"internalType": "address",
					"name": "transferTo",
					"type": "address"
				}
			],
			"name": "swap",
			"outputs": [],
			"stateMutability": "payable",
			"type": "function"
		},
		{
			"inputs": [
				{
					"internalType": "address",
					"name": "tokenIn",
					"type": "address"
				},
				{
					"internalType": "address",
					"name": "tokenOut",
					"type": "address"
				},
				{
					"internalType": "uint256",
					"name": "amountTokensIn",
					"type": "uint256"
				},
				{
					"internalType": "uint256",
					"name": "minAmountTokensOut",
					"type": "uint256"
				},
				{
					"internalType": "uint256",
					"name": "expireTimestamp",
					"type": "uint256"
				},
				{
					"internalType": "address",
					"name": "transferTo",
					"type": "address"
				}
			],
			"name": "swapExactTokensForTokens",
			"outputs": [
				{
					"internalType": "uint256",
					"name": "",
					"type": "uint256"
				},
				{
					"internalType": "uint256",
					"name": "",
					"type": "uint256"
				}
			],
			"stateMutability": "payable",
			"type": "function"
		},
		{
			"inputs": [
				{
					"internalType": "address",
					"name": "tokenIn",
					"type": "address"
				},
				{
					"internalType": "address",
					"name": "tokenOut",
					"type": "address"
				},
				{
					"internalType": "uint256",
					"name": "amountTokensOut",
					"type": "uint256"
				},
				{
					"internalType": "uint256",
					"name": "maxAmountTokensIn",
					"type": "uint256"
				},
				{
					"internalType": "uint256",
					"name": "expireTimestamp",
					"type": "uint256"
				},
				{
					"internalType": "address",
					"name": "transferTo",
					"type": "address"
				}
			],
			"name": "swapTokensForExactTokens",
			"outputs": [
				{
					"internalType": "uint256",
					"name": "",
					"type": "uint256"
				},
				{
					"internalType": "uint256",
					"name": "",
					"type": "uint256"
				}
			],
			"stateMutability": "payable",
			"type": "function"
		},
		{
			"inputs": [],
			"name": "symbol",
			"outputs": [
				{
					"internalType": "string",
					"name": "",
					"type": "string"
				}
			],
			"stateMutability": "view",
			"type": "function"
		},
		{
			"inputs": [
				{
					"internalType": "address",
					"name": "token",
					"type": "address"
				}
			],
			"name": "syncTokenBalanceInPool",
			"outputs": [],
			"stateMutability": "nonpayable",
			"type": "function"
		},
		{
			"inputs": [
				{
					"internalType": "address",
					"name": "",
					"type": "address"
				},
				{
					"internalType": "address",
					"name": "_testCerbyToken",
					"type": "address"
				},
				{
					"internalType": "address",
					"name": "_cerUsdToken",
					"type": "address"
				},
				{
					"internalType": "address",
					"name": "_testUsdcToken",
					"type": "address"
				},
				{
					"internalType": "address",
					"name": "_nativeToken",
					"type": "address"
				}
			],
			"name": "testSetupTokens",
			"outputs": [],
			"stateMutability": "nonpayable",
			"type": "function"
		},
		{
			"inputs": [],
			"name": "totalSupply",
			"outputs": [
				{
					"internalType": "uint256",
					"name": "",
					"type": "uint256"
				}
			],
			"stateMutability": "view",
			"type": "function"
		},
		{
			"inputs": [
				{
					"internalType": "uint256",
					"name": "id",
					"type": "uint256"
				}
			],
			"name": "totalSupply",
			"outputs": [
				{
					"internalType": "uint256",
					"name": "",
					"type": "uint256"
				}
			],
			"stateMutability": "view",
			"type": "function"
		},
		{
			"inputs": [
				{
					"internalType": "uint256",
					"name": "id",
					"type": "uint256"
				}
			],
			"name": "uri",
			"outputs": [
				{
					"internalType": "string",
					"name": "",
					"type": "string"
				}
			],
			"stateMutability": "view",
			"type": "function"
		},
		{
			"stateMutability": "payable",
			"type": "receive"
		}
	]
}