{
	"data": {
		"bytecode": {
			"linkReferences": {},
			"object": "60c0604052600d60808190526c4365726279205377617020563160981b60a090815262000030916006919062000a8d565b5060408051808201909152600d8082526c43455242595f535741505f563160981b6020909201918252620000679160079162000a8d565b5060405180606001604052806023815260200162006eb6602391398051620000989160089160209091019062000a8d565b50602580546001600160a01b0319908116733d982cb3bc8d1248b17f22b567524bf7bffd3b11179091556026805482167337e140032ac3a8428ed43761a9881d4741eb3a7317905560278054821673d575ef966cfe21a5a5602dfadad3d1cae8c60fdb1790556029805482167314769f96e57b80c66837701de0b43686fb4632de179055602a805490911661dead1790553480156200013657600080fd5b5060086040516020016200014b919062000c28565b60408051601f19818403018152919052620001668162000915565b50620001746000336200092e565b604080516103608101825260016103208201818152604160f81b610340840152825282518084018452818152602160f91b6020828101919091528084019190915283518085018552828152604360f81b818301528385015283518085018552828152601160fa1b81830152606084015283518085018552828152604560f81b81830152608084015283518085018552828152602360f91b8183015260a084015283518085018552828152604760f81b8183015260c084015283518085018552828152600960fb1b8183015260e084015283518085018552828152606960f81b8183015261010084015283518085018552828152602560f91b8183015261012084015283518085018552828152604b60f81b8183015261014084015283518085018552828152601360fa1b8183015261016084015283518085018552828152604d60f81b8183015261018084015283518085018552828152602760f91b818301526101a084015283518085018552828152604f60f81b818301526101c084015283518085018552828152600560fc1b818301526101e084015283518085018552828152605160f81b8183015261020084015283518085018552828152602960f91b8183015261022084015283518085018552828152605360f81b8183015261024084015283518085018552828152601560fa1b8183015261026084015283518085018552828152605560f81b8183015261028084015283518085018552828152602b60f91b818301526102a084015283518085018552828152605760f81b818301526102c084015283518085018552828152600b60fb1b818301526102e08401528351808501909452908352605960f81b8382015261030082019290925280518051919260099262000409928492019062000a8d565b50602082810151805162000424926001850192019062000a8d565b50604082015180516200044291600284019160209091019062000a8d565b50606082015180516200046091600384019160209091019062000a8d565b50608082015180516200047e91600484019160209091019062000a8d565b5060a082015180516200049c91600584019160209091019062000a8d565b5060c08201518051620004ba91600684019160209091019062000a8d565b5060e08201518051620004d891600784019160209091019062000a8d565b506101008201518051620004f791600884019160209091019062000a8d565b5061012082015180516200051691600984019160209091019062000a8d565b5061014082015180516200053591600a84019160209091019062000a8d565b5061016082015180516200055491600b84019160209091019062000a8d565b5061018082015180516200057391600c84019160209091019062000a8d565b506101a082015180516200059291600d84019160209091019062000a8d565b506101c08201518051620005b191600e84019160209091019062000a8d565b506101e08201518051620005d091600f84019160209091019062000a8d565b506102008201518051620005ef91601084019160209091019062000a8d565b5061022082015180516200060e91601184019160209091019062000a8d565b5061024082015180516200062d91601284019160209091019062000a8d565b5061026082015180516200064c91601384019160209091019062000a8d565b5061028082015180516200066b91601484019160209091019062000a8d565b506102a082015180516200068a91601584019160209091019062000a8d565b506102c08201518051620006a991601684019160209091019062000a8d565b506102e08201518051620006c891601784019160209091019062000a8d565b506103008201518051620006e791601884019160209091019062000a8d565b50506040805160c08101909152630dead12381529050602081016200070f6064600462000ce6565b815260200160018152602001606481526020016064612710600f62000735919062000ce6565b62000741919062000d14565b815260200162000755612710600f62000ce6565b90528051602b80546001600160a01b0319166001600160a01b039092169190911790556020810151602c556040810151602d556060810151602e556080810151602f5560a00151603055620007a962000b1c565b6040805160a081018252600080825260208201848152928201819052606082018190526080820181905260228054600181018255915281517f61035b26e3e9eee00e0d72fd1ee8ddca6894550dca6916ea2ac6baa90d11e510600490920291820180546001600160a01b0319166001600160a01b0390921691909117815592519192916200085c917f61035b26e3e9eee00e0d72fd1ee8ddca6894550dca6916ea2ac6baa90d11e5110190600862000b3b565b50604082015160608301516001600160801b03918216600160801b91831691909102176002830155608090920151600390910180546001600160801b03191691909216179055466130391415620008c757602980546001600160a01b03191661dead179055620008e8565b46620181cd1415620008e857602980546001600160a01b03191661dead1790555b50602980546001600160a01b0319167314769f96e57b80c66837701de0b43686fb4632de17905562000d37565b80516200092a90600290602084019062000a8d565b5050565b6200092a82826200094b82826200097760201b620026a61760201c565b6000828152600560209081526040909120620009729183906200272c62000a1b821b17901c565b505050565b60008281526004602090815260408083206001600160a01b038516845290915290205460ff166200092a5760008281526004602090815260408083206001600160a01b03851684529091529020805460ff19166001179055620009d73390565b6001600160a01b0316816001600160a01b0316837f2f8788117e7eff1d82e926ec794901d17c78024a50270940304540a733656f0d60405160405180910390a45050565b600062000a32836001600160a01b03841662000a3b565b90505b92915050565b600081815260018301602052604081205462000a845750815460018181018455600084815260208082209093018490558454848252828601909352604090209190915562000a35565b50600062000a35565b82805462000a9b9062000beb565b90600052602060002090601f01602090048101928262000abf576000855562000b0a565b82601f1062000ada57805160ff191683800117855562000b0a565b8280016001018555821562000b0a579182015b8281111562000b0a57825182559160200191906001019062000aed565b5062000b1892915062000bd4565b5090565b6040518061010001604052806008906020820280368337509192915050565b60018301918390821562000b0a5791602002820160005b8382111562000b9857835183826101000a81548163ffffffff021916908363ffffffff160217905550926020019260040160208160030104928301926001030262000b52565b801562000bca5782816101000a81549063ffffffff021916905560040160208160030104928301926001030262000b98565b505062000b189291505b5b8082111562000b18576000815560010162000bd5565b600181811c9082168062000c0057607f821691505b6020821081141562000c2257634e487b7160e01b600052602260045260246000fd5b50919050565b600080835481600182811c91508083168062000c4557607f831692505b602080841082141562000c6657634e487b7160e01b86526022600452602486fd5b81801562000c7d576001811462000c8f5762000cbe565b60ff1986168952848901965062000cbe565b60008a81526020902060005b8681101562000cb65781548b82015290850190830162000c9b565b505084890196505b50505050505062000cde81683db4b23e973539b7b760b91b815260090190565b949350505050565b600081600019048311821515161562000d0f57634e487b7160e01b600052601160045260246000fd5b500290565b60008262000d3257634e487b7160e01b600052601260045260246000fd5b500490565b61616f8062000d476000396000f3fe6080604052600436106102155760003560e01c80639010d07c1161011f5780639010d07c1461050d5780639162ebf01461052d57806391d148541461054d57806395d89b411461056d5780639bc731fc14610582578063a22cb465146105a2578063a60c6e55146105c2578063a7fd40bf146105ea578063b771e4251461060a578063bbadc03b14610640578063bd85b0391461066d578063c790985a1461069a578063ca15c873146106ba578063d01350bd146106da578063d391014b146106fa578063d547741f1461070f578063d5d607371461072f578063e06174e414610742578063e985e9c5146107ad578063f242432a146107f6578063f3e6ea8a14610816578063f5298aca14610829578063f65247241461084957600080fd5b8062fdd58e1461022157806301ffc9a71461025457806303d604bd1461028457806303ed957f146102a657806306fb1a07146102c657806306fdde03146102f35780630c2e075b146103155780630e89341c1461033557806318160ddd14610355578063248a9ca31461036a5780632eb2c2d61461038a5780632f2ff15d146103aa578063313ce567146103ca57806336568abe146103de5780633935ac11146103fe57806343fefad41461041e57806348b08d62146104315780634e1273f4146104515780634f558e791461047e5780636b20c454146104ad57806374fcf071146104cd5780637b4b233c146104ed57600080fd5b3661021c57005b600080fd5b34801561022d57600080fd5b5061024161023c3660046150a8565b61085c565b6040519081526020015b60405180910390f35b34801561026057600080fd5b5061027461026f3660046150ea565b6108f6565b604051901515815260200161024b565b34801561029057600080fd5b506102a461029f366004615107565b610936565b005b3480156102b257600080fd5b506102a46102c1366004615124565b610a8c565b3480156102d257600080fd5b506102e66102e1366004615198565b610b09565b60405161024b91906151b1565b3480156102ff57600080fd5b50610308610b80565b60405161024b919061521d565b34801561032157600080fd5b506102a4610330366004615230565b610c12565b34801561034157600080fd5b50610308610350366004615198565b610ca3565b34801561036157600080fd5b50610241610ccf565b34801561037657600080fd5b50610241610385366004615198565b610d1b565b34801561039657600080fd5b506102a46103a536600461538b565b610d30565b3480156103b657600080fd5b506102a46103c5366004615438565b610dd2565b3480156103d657600080fd5b506012610241565b3480156103ea57600080fd5b506102a46103f9366004615438565b610df4565b34801561040a57600080fd5b506102a4610419366004615468565b610e72565b6102a461042c3660046154cb565b610ea5565b34801561043d57600080fd5b5061024161044c366004615515565b61147d565b34801561045d57600080fd5b5061047161046c366004615556565b61154f565b60405161024b9190615653565b34801561048a57600080fd5b50610274610499366004615198565b600090815260036020526040902054151590565b3480156104b957600080fd5b506102a46104c8366004615666565b611678565b3480156104d957600080fd5b506102a46104e83660046154cb565b6116bb565b3480156104f957600080fd5b50602a546102e6906001600160a01b031681565b34801561051957600080fd5b506102e66105283660046156db565b61174b565b34801561053957600080fd5b50610241610548366004615107565b611763565b34801561055957600080fd5b50610274610568366004615438565b611785565b34801561057957600080fd5b506103086117b0565b34801561058e57600080fd5b506102a461059d366004615107565b6117bf565b3480156105ae57600080fd5b506102a46105bd36600461570b565b611a40565b6105d56105d0366004615739565b611bf4565b6040805192835260208301919091520161024b565b3480156105f657600080fd5b506102a46106053660046157a0565b611e00565b34801561061657600080fd5b50610241610625366004615107565b6001600160a01b031660009081526023602052604090205490565b34801561064c57600080fd5b5061066061065b366004615107565b611e47565b60405161024b91906157e1565b34801561067957600080fd5b50610241610688366004615198565b60009081526003602052604090205490565b3480156106a657600080fd5b506102416106b5366004615515565b611f45565b3480156106c657600080fd5b506102416106d5366004615198565b612005565b3480156106e657600080fd5b506106606106f5366004615198565b61201c565b34801561070657600080fd5b50610241600081565b34801561071b57600080fd5b506102a461072a366004615438565b612037565b6102a461073d3660046154cb565b612054565b34801561074e57600080fd5b50602b54602c54602d54602e54602f54603054610776956001600160a01b0316949392919086565b604080516001600160a01b0390971687526020870195909552938501929092526060840152608083015260a082015260c00161024b565b3480156107b957600080fd5b506102746107c8366004615863565b6001600160a01b03918216600090815260016020908152604080832093909416825291909152205460ff1690565b34801561080257600080fd5b506102a4610811366004615891565b6123af565b6102a46108243660046154cb565b6123ff565b34801561083557600080fd5b506102a46108443660046158f9565b61240b565b6105d5610857366004615739565b61244e565b60006001600160a01b0383166108cd5760405162461bcd60e51b815260206004820152602b60248201527f455243313135353a2062616c616e636520717565727920666f7220746865207a60448201526a65726f206164647265737360a81b60648201526084015b60405180910390fd5b506000818152602081815260408083206001600160a01b03861684529091529020545b92915050565b60006001600160e01b03198216636cdb3d1360e11b148061092757506001600160e01b031982166303a24d0760e21b145b806108f057506108f082612741565b6001600160a01b03811660009081526023602052604090205481901580159061096d57506026546001600160a01b03828116911614155b600b9061098d5760405162461bcd60e51b81526004016108c49190615963565b506001600160a01b038216600090815260236020526040812054906109b184612776565b6026549091506000906109cc906001600160a01b0316612776565b90506000602284815481106109e3576109e36159e8565b6000918252602090912060026004909202010154610a0a906001600160801b031684615a14565b90508015610a1f57610a1f8633836000612803565b600060228581548110610a3457610a346159e8565b6000918252602090912060049091020160020154610a6290600160801b90046001600160801b031684615a14565b90508015610a8357602654610a83906001600160a01b031633836000612803565b50505050505050565b6000610a988133612843565b60005b82811015610b0357610af1848483818110610ab857610ab86159e8565b90506040020160000135858584818110610ad457610ad46159e8565b9050604002016020016020810190610aec9190615107565b6128a7565b80610afb81615a2b565b915050610a9b565b50505050565b6040516306fb1a0760e01b81526004810182905260009073def1fac7bf08f173d286bbbdcbeeade695129840906306fb1a0790602401602060405180830381865afa158015610b5c573d6000803e3d6000fd5b505050506040513d601f19601f820116820180604052508101906108f09190615a46565b606060068054610b8f9061592e565b80601f0160208091040260200160405190810160405280929190818152602001828054610bbb9061592e565b8015610c085780601f10610bdd57610100808354040283529160200191610c08565b820191906000526020600020905b815481529060010190602001808311610beb57829003601f168201915b5050505050905090565b6000610c1e8133612843565b81604001356000108015610c39575081606001358260400135105b8015610c4a57506101f48260600135105b602090610c6a5760405162461bcd60e51b81526004016108c49190615963565b50602160a0830135608084013510610c955760405162461bcd60e51b81526004016108c49190615963565b5081602b610b038282615a63565b6060600882604051602001610cb9929190615ac0565b6040516020818303038152906040529050919050565b60008060005b6000600381610ce385615a2b565b94508481526020019081526020016000205411156108f057600082815260036020526040902054610d149082615b45565b9050610cd5565b60009081526004602052604090206001015490565b6001600160a01b038516331480610d4c5750610d4c85336107c8565b610db35760405162461bcd60e51b815260206004820152603260248201527f455243313135353a207472616e736665722063616c6c6572206973206e6f74206044820152711bdddb995c881b9bdc88185c1c1c9bdd995960721b60648201526084016108c4565b610dbe3086866128b1565b610dcb8585858585612a44565b5050505050565b610ddb82610d1b565b610de58133612843565b610def8383612be6565b505050565b6001600160a01b0381163314610e645760405162461bcd60e51b815260206004820152602f60248201527f416363657373436f6e74726f6c3a2063616e206f6e6c792072656e6f756e636560448201526e103937b632b9903337b91039b2b63360891b60648201526084016108c4565b610e6e8282612c08565b5050565b6000610e7e8133612843565b8251610e91906006906020860190614f07565b508151610b03906007906020850190614f07565b6001600160a01b038416600090815260236020526040902054849015801590610edc57506026546001600160a01b03828116911614155b600b90610efc5760405162461bcd60e51b81526004016108c49190615963565b5082600c42821015610f215760405162461bcd60e51b81526004016108c49190615963565b506001600160a01b038616600090815260236020526040902054610f46873388612c2a565b6000610f5188612776565b905060228281548110610f6657610f666159e8565b6000918252602090912060026004909202010154610f8d906001600160801b031682615a14565b9650600e87610faf5760405162461bcd60e51b81526004016108c49190615963565b50602654600090610fc8906001600160a01b0316612776565b9050600060245482610fda9190615a14565b9050600061106160228681548110610ff457610ff46159e8565b906000526020600020906004020160020160109054906101000a90046001600160801b03166001600160801b031660228781548110611035576110356159e8565b600091825260209091206002600490920201015461105c91906001600160801b0316615b5d565b612ce1565b905060006110af6022878154811061107b5761107b6159e8565b6000918252602080832060036004909302018201548a84529190526040909120546001600160801b03909116908490612d3a565b905080156110e057602a546040805160208101909152600081526110e0916001600160a01b03169088908490612db0565b50506000602285815481106110f7576110f76159e8565b600091825260208083206002600490930201919091015487835260039091526040909120546001600160801b0390911690611132908c615b5d565b61113c9190615b92565b905061115988868360405180602001604052806000815250612db0565b60006022868154811061116e5761116e6159e8565b6000918252602090912060026004909202010154602280546001600160801b0390921691889081106111a2576111a26159e8565b60009182526020909120600490910201600201546111d090600160801b90046001600160801b03168d615b5d565b6111da9190615b92565b9050601d816111fc5760405162461bcd60e51b81526004016108c49190615963565b50602654604051630bb9ff5d60e01b81526001600160a01b0390911690630bb9ff5d9061122f9030908590600401615ba6565b600060405180830381600087803b15801561124957600080fd5b505af115801561125d573d6000803e3d6000fd5b5050505080836024546112709190615b45565b61127a9190615b45565b6024819055508a60228781548110611294576112946159e8565b60009182526020909120600260049092020101546112bb91906001600160801b0316615bbf565b602287815481106112ce576112ce6159e8565b6000918252602090912060049091020160020180546001600160801b0319166001600160801b03929092169190911790556113098184615b45565b6022878154811061131c5761131c6159e8565b906000526020600020906004020160020160109054906101000a90046001600160801b031661134b9190615bbf565b6022878154811061135e5761135e6159e8565b906000526020600020906004020160020160106101000a8154816001600160801b0302191690836001600160801b031602179055506113ea602287815481106113a9576113a96159e8565b906000526020600020906004020160020160109054906101000a90046001600160801b03166001600160801b031660228881548110611035576110356159e8565b602287815481106113fd576113fd6159e8565b906000526020600020906004020160030160006101000a8154816001600160801b0302191690836001600160801b031602179055507f64b83944e79c3ce8d4c297411de637c3e102d064677aac0c163976ebdcd6f50e8c8c83856040516114679493929190615bea565b60405180910390a1505050505050505050505050565b6026546000906001600160a01b038581169116148015906114ab57506026546001600160a01b038481169116145b156114c1576114ba8483612eae565b9050611548565b6026546001600160a01b0385811691161480156114ec57506026546001600160a01b03848116911614155b156114fb576114ba8383612faa565b6026546001600160a01b0385811691161480159061152757506026546001600160a01b03858116911614155b156115485760006115388584612eae565b90506115448482612faa565b9150505b9392505050565b606081518351146115b45760405162461bcd60e51b815260206004820152602960248201527f455243313135353a206163636f756e747320616e6420696473206c656e677468604482015268040dad2e6dac2e8c6d60bb1b60648201526084016108c4565b600083516001600160401b038111156115cf576115cf615242565b6040519080825280602002602001820160405280156115f8578160200160208202803683370190505b50905060005b84518110156116705761164385828151811061161c5761161c6159e8565b6020026020010151858381518110611636576116366159e8565b602002602001015161085c565b828281518110611655576116556159e8565b602090810291909101015261166981615a2b565b90506115fe565b509392505050565b6001600160a01b038316331480611694575061169483336107c8565b6116b05760405162461bcd60e51b81526004016108c490615c10565b610def83838361309c565b6001600160a01b0384166000908152602360205260409020548490158015906116f257506026546001600160a01b03828116911614155b600b906117125760405162461bcd60e51b81526004016108c49190615963565b5082600c428210156117375760405162461bcd60e51b81526004016108c49190615963565b5061174386868561322a565b505050505050565b600082815260056020526040812061154890836136fa565b6001600160a01b0381166000908152602360205260408120546108f090613706565b60009182526004602090815260408084206001600160a01b0393909316845291905290205460ff1690565b606060078054610b8f9061592e565b6001600160a01b0381166000908152602360205260409020548190158015906117f657506026546001600160a01b03828116911614155b600b906118165760405162461bcd60e51b81526004016108c49190615963565b506001600160a01b03821660009081526023602052604090205461183983612776565b6022828154811061184c5761184c6159e8565b6000918252602082206004919091020160020180546001600160801b0319166001600160801b039390931692909217909155602654611893906001600160a01b0316612776565b905060245481116118f357806024546118ac9190615a14565b602283815481106118bf576118bf6159e8565b906000526020600020906004020160020160109054906101000a90046001600160801b03166118ee9190615c59565b611942565b6024546119009082615a14565b60228381548110611913576119136159e8565b906000526020600020906004020160020160109054906101000a90046001600160801b03166119429190615bbf565b60228381548110611955576119556159e8565b906000526020600020906004020160020160106101000a8154816001600160801b0302191690836001600160801b03160217905550806024819055507ff10fc780c78f994a214c79a2ae8d8b7bfe7cc3f0f935a8f05a29525e71d7f12784602284815481106119c6576119c66159e8565b906000526020600020906004020160020160009054906101000a90046001600160801b0316602285815481106119fe576119fe6159e8565b906000526020600020906004020160020160109054906101000a90046001600160801b0316604051611a3293929190615c81565b60405180910390a150505050565b6040516306fb1a0760e01b8152600360048201523090339060009073def1fac7bf08f173d286bbbdcbeeade695129840906306fb1a0790602401602060405180830381865afa158015611a97573d6000803e3d6000fd5b505050506040513d601f19601f82011682018060405250810190611abb9190615a46565b604051630c8b57ef60e21b81529091506001600160a01b0382169063322d5fbc90611aec9086908690600401615cab565b6020604051808303816000875af1158015611b0b573d6000803e3d6000fd5b505050506040513d601f19601f82011682018060405250810190611b2f9190615cc5565b15611b905760405162461bcd60e51b815260206004820152602b60248201527f43434a453a205472616e73616374696f6e73206172652074656d706f7261726960448201526a1b1e48191a5cd8589b195960aa1b60648201526084016108c4565b806001600160a01b031663eef84ba16040518163ffffffff1660e01b8152600401600060405180830381600087803b158015611bcb57600080fd5b505af1158015611bdf573d6000803e3d6000fd5b50505050610dcb611bed3390565b8686613923565b60008083600c42821015611c1b5760405162461bcd60e51b81526004016108c49190615963565b50600e60018811611c3f5760405162461bcd60e51b81526004016108c49190615963565b5060265433906000906001600160a01b038c8116911614801590611c7057506026546001600160a01b038b81169116145b15611cc257611c7f8b8a612eae565b9050601088821015611ca45760405162461bcd60e51b81526004016108c49190615963565b50611cb08b838b612c2a565b611cbd8b60008389613a04565b611def565b6026546001600160a01b038c81169116148015611ced57506026546001600160a01b038b8116911614155b15611d3a57611cfc8a8a612faa565b9050601188821015611d215760405162461bcd60e51b81526004016108c49190615963565b50611d2d8b838b612c2a565b611cbd8a82600089613a04565b6026546001600160a01b038c8116911614801590611d6657506026546001600160a01b038c8116911614155b15611dd4576000611d778c8b612eae565b9050611d838b82612faa565b9150601189831015611da85760405162461bcd60e51b81526004016108c49190615963565b50611db48c848c612c2a565b611dc18c60008330613a04565b611dce8b8360008a613a04565b50611def565b60405162461bcd60e51b81526108c490601490600401615963565b979a97995096975050505050505050565b6000611e0c8133612843565b611e3482604051602001611e209190615ce2565b6040516020818303038152906040526140a9565b8151610def906008906020850190614f07565b611e4f614f8b565b6001600160a01b038216600090815260236020526040902054602280549091908110611e7d57611e7d6159e8565b60009182526020918290206040805160a081018252600490930290910180546001600160a01b031683528151610100810190925291928301906001830160088282826020028201916000905b82829054906101000a900463ffffffff1663ffffffff1681526020019060040190602082600301049283019260010382029150808411611ec95750505092845250505060028201546001600160801b038082166020840152600160801b9091048116604083015260039092015490911660609091015292915050565b6026546000906001600160a01b03858116911614801590611f7357506026546001600160a01b038481169116145b15611f82576114ba84836140bc565b6026546001600160a01b038581169116148015611fad57506026546001600160a01b03848116911614155b15611fbc576114ba83836141ad565b6026546001600160a01b03858116911614801590611fe857506026546001600160a01b03848116911614155b15611548576000611ff984846141ad565b905061154485826140bc565b60008181526005602052604081206108f09061429f565b612024614f8b565b60228281548110611e7d57611e7d6159e8565b61204082610d1b565b61204a8133612843565b610def8383612c08565b60006120608133612843565b6001600160a01b038516600090815260236020526040902054859015801561209657506026546001600160a01b03828116911614155b600a906120b65760405162461bcd60e51b81526004016108c49190615963565b506022546120c5873388612c2a565b602654604051630bb9ff5d60e01b81526001600160a01b0390911690630bb9ff5d906120f79030908990600401615ba6565b600060405180830381600087803b15801561211157600080fd5b505af1158015612125573d6000803e3d6000fd5b5050505061213287612776565b9550600e866121545760405162461bcd60e51b81526004016108c49190615963565b50600061216461105c8789615b5d565b905061216e614fc9565b60005b60088110156121b057600182826008811061218e5761218e6159e8565b63ffffffff9092166020929092020152806121a881615a2b565b915050612171565b506040805160a0810182526001600160a01b038b81168252602082018481526001600160801b038c8116948401949094528a8416606084015292851660808301526022805460018101825560009190915282517f61035b26e3e9eee00e0d72fd1ee8ddca6894550dca6916ea2ac6baa90d11e510600490920291820180546001600160a01b03191691909316178255925191928392612273917f61035b26e3e9eee00e0d72fd1ee8ddca6894550dca6916ea2ac6baa90d11e51101906008614fe8565b5060408281015160608401516001600160801b03918216600160801b91831691909102176002840155608090930151600390920180546001600160801b03191692909316919091179091556001600160a01b038b1660009081526023602052908120859055602480548a92906122ea908490615b45565b9250508190555061231061dead856103e860405180602001604052806000815250612db0565b60006103e861232261105c8b8d615b5d565b61232c9190615a14565b905061234988868360405180602001604052806000815250612db0565b604080516001600160a01b038d168152602081018c90529081018a905260608101829052608081018690527fe25069febe02950bda1ede7288798e9f99267811a7d0b3c5f0026821d1584b0e9060a0015b60405180910390a15050505050505050505050565b6001600160a01b0385163314806123cb57506123cb85336107c8565b6123e75760405162461bcd60e51b81526004016108c490615c10565b6123f23086866128b1565b610dcb85858585856142a9565b610b0384848484613a04565b6001600160a01b038316331480612427575061242783336107c8565b6124435760405162461bcd60e51b81526004016108c490615c10565b610def8383836143ab565b60008083600c428210156124755760405162461bcd60e51b81526004016108c49190615963565b5060265433906000906001600160a01b038c81169116148015906124a657506026546001600160a01b038b81169116145b1561251c576124b58b8a6140bc565b90506013888211156124da5760405162461bcd60e51b81526004016108c49190615963565b50600e600182116124fe5760405162461bcd60e51b81526004016108c49190615963565b5061250a8b8383612c2a565b6125178b60008b89613a04565b612696565b6026546001600160a01b038c8116911614801561254757506026546001600160a01b038b8116911614155b156125b8576125568a8a6141ad565b905060128882111561257b5760405162461bcd60e51b81526004016108c49190615963565b50601d6001821161259f5760405162461bcd60e51b81526004016108c49190615963565b506125ab8b8383612c2a565b6125178a8a600089613a04565b6026546001600160a01b038c81169116148015906125e457506026546001600160a01b038b8116911614155b15611dd45760006125f58b8b6141ad565b9050601d6001821161261a5760405162461bcd60e51b81526004016108c49190615963565b506126258c826140bc565b915060138983111561264a5760405162461bcd60e51b81526004016108c49190615963565b50600e6001831161266e5760405162461bcd60e51b81526004016108c49190615963565b5061267a8c8484612c2a565b6126878c60008330613a04565b6126948b8b60008a613a04565b505b9a97995096975050505050505050565b6126b08282611785565b610e6e5760008281526004602090815260408083206001600160a01b03851684529091529020805460ff191660011790556126e83390565b6001600160a01b0316816001600160a01b0316837f2f8788117e7eff1d82e926ec794901d17c78024a50270940304540a733656f0d60405160405180910390a45050565b6000611548836001600160a01b03841661449a565b60006001600160e01b03198216635a05180f60e01b14806108f057506301ffc9a760e01b6001600160e01b03198316146108f0565b6029546000906001600160a01b0383811691161415612796575047919050565b6040516370a0823160e01b81526001600160a01b038316906370a08231906127c29030906004016151b1565b602060405180830381865afa1580156127df573d6000803e3d6000fd5b505050506040513d601f19601f820116820180604052508101906108f09190615d0f565b6001600160a01b0383163014610b03576029546001600160a01b03858116911614156128385761283383836144e9565b610b03565b610b0384848461457b565b61284d8282611785565b610e6e57612865816001600160a01b03166014614665565b612870836020614665565b604051602001612881929190615d28565b60408051601f198184030181529082905262461bcd60e51b82526108c49160040161521d565b610e6e8282612be6565b6040516306fb1a0760e01b81526003600482015260009073def1fac7bf08f173d286bbbdcbeeade695129840906306fb1a0790602401602060405180830381865afa158015612904573d6000803e3d6000fd5b505050506040513d601f19601f820116820180604052508101906129289190615a46565b604051630c8b57ef60e21b81529091506001600160a01b0382169063322d5fbc906129599087908790600401615cab565b6020604051808303816000875af1158015612978573d6000803e3d6000fd5b505050506040513d601f19601f8201168201806040525081019061299c9190615cc5565b6129ce5760405162461bcd60e51b8152602060048201526003602482015262042a8b60eb1b60448201526064016108c4565b6001600160a01b0382163014610b0357604051633973256b60e11b81526001600160a01b038216906372e64ad690612a0c9087908690600401615cab565b600060405180830381600087803b158015612a2657600080fd5b505af1158015612a3a573d6000803e3d6000fd5b5050505050505050565b8151835114612a655760405162461bcd60e51b81526004016108c490615d97565b6001600160a01b038416612a8b5760405162461bcd60e51b81526004016108c490615ddf565b33612a9a818787878787614800565b60005b8451811015612b80576000858281518110612aba57612aba6159e8565b602002602001015190506000858381518110612ad857612ad86159e8565b602090810291909101810151600084815280835260408082206001600160a01b038e168352909352919091205490915081811015612b285760405162461bcd60e51b81526004016108c490615e24565b6000838152602081815260408083206001600160a01b038e8116855292528083208585039055908b16825281208054849290612b65908490615b45565b9250508190555050505080612b7990615a2b565b9050612a9d565b50846001600160a01b0316866001600160a01b0316826001600160a01b03167f4a39dc06d4c0dbc64b70af90fd698a233a518aa5d07e595d983b8c0526c8f7fb8787604051612bd0929190615e6e565b60405180910390a461174381878787878761490c565b612bf082826126a6565b6000828152600560205260409020610def908261272c565b612c128282614a68565b6000828152600560205260409020610def9082614acf565b6029546001600160a01b03848116911614612c7d57600f3415612c605760405162461bcd60e51b81526004016108c49190615963565b506001600160a01b0382163014610def57610def83833084614ae4565b6029546001600160a01b0384811691161415610def57601c34821115612cb65760405162461bcd60e51b81526004016108c49190615963565b5080341115610def57602954610def906001600160a01b031633612cda8434615a14565b6000612803565b6000806002612cf1846001615b45565b612cfb9190615b92565b90508291505b81811015612d3457905080600281612d198186615b92565b612d239190615b45565b612d2d9190615b92565b9050612d01565b50919050565b60008383118015612d4b5750600084115b8015612d585750602c5415155b1561154857612d68606485615b5d565b602c54612d759085615b5d565b612d7f9190615b45565b612d898585615a14565b612d94606485615b5d565b612d9e9190615b5d565b612da89190615b92565b949350505050565b6001600160a01b038416612e105760405162461bcd60e51b815260206004820152602160248201527f455243313135353a206d696e7420746f20746865207a65726f206164647265736044820152607360f81b60648201526084016108c4565b33612e3081600087612e2188614bd4565b612e2a88614bd4565b87614800565b6000848152602081815260408083206001600160a01b038916845290915281208054859290612e60908490615b45565b909155505060408051858152602081018590526001600160a01b03808816926000929185169160008051602061611a833981519152910160405180910390a4610dcb81600087878787614c1f565b6001600160a01b038216600090815260236020526040812054839015801590612ee557506026546001600160a01b03828116911614155b600b90612f055760405162461bcd60e51b81526004016108c49190615963565b506001600160a01b03841660009081526023602052604090205460228054612f9f91869184908110612f3957612f396159e8565b6000918252602090912060026004909202010154602280546001600160801b039092169185908110612f6d57612f6d6159e8565b6000918252602090912060049091020160020154600160801b90046001600160801b0316612f9a85613706565b614cda565b9250505b5092915050565b6001600160a01b038216600090815260236020526040812054839015801590612fe157506026546001600160a01b03828116911614155b600b906130015760405162461bcd60e51b81526004016108c49190615963565b506001600160a01b03841660009081526023602052604090205460228054612f9f91869184908110613035576130356159e8565b906000526020600020906004020160020160109054906101000a90046001600160801b03166001600160801b031660228481548110613076576130766159e8565b60009182526020909120600260049092020101546001600160801b0316612f9a85613706565b6001600160a01b0383166130c25760405162461bcd60e51b81526004016108c490615e93565b80518251146130e35760405162461bcd60e51b81526004016108c490615d97565b600033905061310681856000868660405180602001604052806000815250614800565b60005b83518110156131cb576000848281518110613126576131266159e8565b602002602001015190506000848381518110613144576131446159e8565b602090810291909101810151600084815280835260408082206001600160a01b038c1683529093529190912054909150818110156131945760405162461bcd60e51b81526004016108c490615ed6565b6000928352602083815260408085206001600160a01b038b16865290915290922091039055806131c381615a2b565b915050613109565b5060006001600160a01b0316846001600160a01b0316826001600160a01b03167f4a39dc06d4c0dbc64b70af90fd698a233a518aa5d07e595d983b8c0526c8f7fb868660405161321c929190615e6e565b60405180910390a450505050565b6001600160a01b0383166000908152602360205260408120549061324d85612776565b9050600060228381548110613264576132646159e8565b600091825260209091206002600490920201015461328b906001600160801b031683615a14565b6024546026549192506000916132a9906001600160a01b0316612776565b6132b39190615a14565b60008581526003602052604081205460228054939450909283918a91899081106132df576132df6159e8565b600091825260209091206002600490920201015461330691906001600160801b0316615b5d565b6133109190615b92565b90506000828960228981548110613329576133296159e8565b60009182526020909120600490910201600201546133579190600160801b90046001600160801b0316615b5d565b6133619190615b92565b905060006133bc6022898154811061337b5761337b6159e8565b906000526020600020906004020160020160109054906101000a90046001600160801b03166001600160801b031660228a81548110611035576110356159e8565b905060006133fa60228a815481106133d6576133d66159e8565b60009182526020909120600360049092020101546001600160801b03168387612d3a565b9050801561342b57602a5460408051602081019091526000815261342b916001600160a01b0316908b908490612db0565b828660245461343a9190615b45565b6134449190615a14565b602481905550838760228b8154811061345f5761345f6159e8565b600091825260209091206002600490920201015461348691906001600160801b0316615bbf565b6134909190615c59565b60228a815481106134a3576134a36159e8565b906000526020600020906004020160020160006101000a8154816001600160801b0302191690836001600160801b03160217905550828660228b815481106134ed576134ed6159e8565b906000526020600020906004020160020160109054906101000a90046001600160801b031661351c9190615bbf565b6135269190615c59565b60228a81548110613539576135396159e8565b906000526020600020906004020160020160106101000a8154816001600160801b0302191690836001600160801b031602179055506135c560228a81548110613584576135846159e8565b906000526020600020906004020160020160109054906101000a90046001600160801b03166001600160801b031660228b81548110611035576110356159e8565b60228a815481106135d8576135d86159e8565b906000526020600020906004020160030160006101000a8154816001600160801b0302191690836001600160801b03160217905550613618338a8d61240b565b6026546040516318a8ad8760e01b81526001600160a01b03909116906318a8ad879061364a9030908790600401615ba6565b600060405180830381600087803b15801561366457600080fd5b505af1158015613678573d6000803e3d6000fd5b50505050505061368b8a89846001612803565b60006136968b612776565b9050866136a38483615b45565b600d91146136c45760405162461bcd60e51b81526004016108c49190615963565b507f1dc8bb69df2b8e91fbdcbfcf93d951b3f0000f085a95fe3f7946d6161439245d8b84848d60405161239a9493929190615bea565b60006115488383614d4a565b600080613711614d74565b905060006008613722836001615b45565b61372c9190615f1a565b90506000805b60088110156137c9578381148061374857508281145b15613752576137b7565b60228681548110613765576137656159e8565b90600052602060002090600402016001018160088110613787576137876159e8565b600891828204019190066004029054906101000a900463ffffffff1663ffffffff16826137b49190615b45565b91505b806137c181615a2b565b915050613732565b506137dc81670de0b6b3a7640000615b5d565b90506000612710602b60040154602288815481106137fc576137fc6159e8565b600091825260209091206004909102016002015461382a9190600160801b90046001600160801b0316615b5d565b6138349190615b92565b90506000612710602b6005015460228981548110613854576138546159e8565b60009182526020909120600490910201600201546138829190600160801b90046001600160801b0316615b5d565b61388c9190615b92565b905081831161389f57602e54955061390c565b82821080156138ad57508083105b156138fe576138bc8282615a14565b602d54602e546138cc9190615a14565b6138d68486615a14565b6138e09190615b5d565b6138ea9190615b92565b602e546138f79190615a14565b955061390c565b8083111561390c57602d5495505b61391886612710615a14565b979650505050505050565b816001600160a01b0316836001600160a01b031614156139975760405162461bcd60e51b815260206004820152602960248201527f455243313135353a2073657474696e6720617070726f76616c20737461747573604482015268103337b91039b2b63360b91b60648201526084016108c4565b6001600160a01b03838116600081815260016020908152604080832094871680845294825291829020805460ff191686151590811790915591519182527f17307eab39ab6107e8899845ad3d59bd9653f200f220920489ca2b5937696c31910160405180910390a3505050565b6001600160a01b038416600090815260236020526040902054849015801590613a3b57506026546001600160a01b03828116911614155b600b90613a5b5760405162461bcd60e51b81526004016108c49190615963565b506001600160a01b038086166000908152602360205260408120546026549092613a859116612776565b9050600060245482613a979190615a14565b90506000613aa489612776565b9050600060228581548110613abb57613abb6159e8565b6000918252602090912060026004909202010154613ae2906001600160801b031683615a14565b90506001613af08483615b45565b60179110613b115760405162461bcd60e51b81526004016108c49190615963565b506000613b1d86613706565b9050600061271060228881548110613b3757613b376159e8565b906000526020600020906004020160020160009054906101000a90046001600160801b03166001600160801b031661271060228a81548110613b7b57613b7b6159e8565b6000918252602090912060049091020160020154613ba99190600160801b90046001600160801b0316615b5d565b613bb39190615b5d565b613bbd9190615b5d565b905060008a86602454613bd09190615b45565b613bda9190615a14565b905060008b8760228b81548110613bf357613bf36159e8565b6000918252602090912060049091020160020154613c219190600160801b90046001600160801b0316615b45565b613c2b9190615a14565b905060008d8660228c81548110613c4457613c446159e8565b6000918252602090912060026004909202010154613c6b91906001600160801b0316615b45565b613c759190615a14565b90506000613c8586612710615a14565b613c8f9088615b5d565b613c9b61271084615b5d565b613ca59190615a14565b613cb187612710615a14565b613cbb908b615b5d565b613cc761271086615b5d565b613cd19190615a14565b613cdb9190615b5d565b9050601885821015613d005760405162461bcd60e51b81526004016108c49190615963565b50836024819055508260228c81548110613d1c57613d1c6159e8565b906000526020600020906004020160020160106101000a8154816001600160801b0302191690836001600160801b031602179055508160228c81548110613d6557613d656159e8565b906000526020600020906004020160020160006101000a8154816001600160801b0302191690836001600160801b031602179055505050505050506000613daa614d74565b905060006008613db8614d74565b613dc3906001615b45565b613dcd9190615f1a565b9050670de0b6b3a7640000858b010460228881548110613def57613def6159e8565b90600052602060002090600402016001018360088110613e1157613e116159e8565b600891828204019190066004028282829054906101000a900463ffffffff160192506101000a81548163ffffffff021916908363ffffffff160217905550600160228881548110613e6457613e646159e8565b90600052602060002090600402016001018260088110613e8657613e866159e8565b600891828204019190066004029054906101000a900463ffffffff1663ffffffff161115613f0f57600160228881548110613ec357613ec36159e8565b90600052602060002090600402016001018260088110613ee557613ee56159e8565b600891828204019190066004026101000a81548163ffffffff021916908363ffffffff1602179055505b8a15613f8457613f228c8a8d6001612803565b6000613f2d8d612776565b905060228881548110613f4257613f426159e8565b6000918252602090912060026004909202010154600d906001600160801b03168214613f815760405162461bcd60e51b81526004016108c49190615963565b50505b8915613fa357602654613fa3906001600160a01b03168a8c6001612803565b604080516001600160a01b038e8116825233602083015281830186905260608201889052608082018e905260a082018d90528b1660c082015290517f236c64fd115dc00cafeeaf44b6ca2af23a66ba0e282852756756b073c55150759181900360e00190a17ff10fc780c78f994a214c79a2ae8d8b7bfe7cc3f0f935a8f05a29525e71d7f1278c6022898154811061403d5761403d6159e8565b906000526020600020906004020160020160009054906101000a90046001600160801b031660228a81548110614075576140756159e8565b906000526020600020906004020160020160109054906101000a90046001600160801b031660405161146793929190615c81565b8051610e6e906002906020840190614f07565b6001600160a01b0382166000908152602360205260408120548390158015906140f357506026546001600160a01b03828116911614155b600b906141135760405162461bcd60e51b81526004016108c49190615963565b506001600160a01b03841660009081526023602052604090205460228054612f9f91869184908110614147576141476159e8565b6000918252602090912060026004909202010154602280546001600160801b03909216918590811061417b5761417b6159e8565b6000918252602090912060049091020160020154600160801b90046001600160801b03166141a885613706565b614d93565b6001600160a01b0382166000908152602360205260408120548390158015906141e457506026546001600160a01b03828116911614155b600b906142045760405162461bcd60e51b81526004016108c49190615963565b506001600160a01b03841660009081526023602052604090205460228054612f9f91869184908110614238576142386159e8565b906000526020600020906004020160020160109054906101000a90046001600160801b03166001600160801b031660228481548110614279576142796159e8565b60009182526020909120600260049092020101546001600160801b03166141a885613706565b60006108f0825490565b6001600160a01b0384166142cf5760405162461bcd60e51b81526004016108c490615ddf565b336142df818787612e2188614bd4565b6000848152602081815260408083206001600160a01b038a168452909152902054838110156143205760405162461bcd60e51b81526004016108c490615e24565b6000858152602081815260408083206001600160a01b038b811685529252808320878503905590881682528120805486929061435d908490615b45565b909155505060408051868152602081018690526001600160a01b03808916928a8216929186169160008051602061611a833981519152910160405180910390a4610a83828888888888614c1f565b6001600160a01b0383166143d15760405162461bcd60e51b81526004016108c490615e93565b33614400818560006143e287614bd4565b6143eb87614bd4565b60405180602001604052806000815250614800565b6000838152602081815260408083206001600160a01b0388168452909152902054828110156144415760405162461bcd60e51b81526004016108c490615ed6565b6000848152602081815260408083206001600160a01b038981168086529184528285208887039055825189815293840188905290929086169160008051602061611a833981519152910160405180910390a45050505050565b60008181526001830160205260408120546144e1575081546001818101845560008481526020808220909301849055845484825282860190935260409020919091556108f0565b5060006108f0565b604080516000808252602082019092526001600160a01b0384169083906040516145139190615f2e565b60006040518083038185875af1925050503d8060008114614550576040519150601f19603f3d011682016040523d82523d6000602084013e614555565b606091505b509091506019905081610b035760405162461bcd60e51b81526004016108c49190615963565b600080846001600160a01b031663a9059cbb85856040516024016145a0929190615ba6565b6040516020818303038152906040529060e01b6020820180516001600160e01b0383818316178352505050506040516145d99190615f2e565b6000604051808303816000865af19150503d8060008114614616576040519150601f19603f3d011682016040523d82523d6000602084013e61461b565b606091505b50915091508180156146455750805115806146455750808060200190518101906146459190615cc5565b601a906117435760405162461bcd60e51b81526004016108c49190615963565b60606000614674836002615b5d565b61467f906002615b45565b6001600160401b0381111561469657614696615242565b6040519080825280601f01601f1916602001820160405280156146c0576020820181803683370190505b509050600360fc1b816000815181106146db576146db6159e8565b60200101906001600160f81b031916908160001a905350600f60fb1b8160018151811061470a5761470a6159e8565b60200101906001600160f81b031916908160001a905350600061472e846002615b5d565b614739906001615b45565b90505b60018111156147b1576f181899199a1a9b1b9c1cb0b131b232b360811b85600f166010811061476d5761476d6159e8565b1a60f81b828281518110614783576147836159e8565b60200101906001600160f81b031916908160001a90535060049490941c936147aa81615f4a565b905061473c565b5083156115485760405162461bcd60e51b815260206004820181905260248201527f537472696e67733a20686578206c656e67746820696e73756666696369656e7460448201526064016108c4565b6001600160a01b0385166148875760005b83518110156148855782818151811061482c5761482c6159e8565b60200260200101516003600086848151811061484a5761484a6159e8565b60200260200101518152602001908152602001600020600082825461486f9190615b45565b9091555061487e905081615a2b565b9050614811565b505b6001600160a01b0384166117435760005b8351811015610a83578281815181106148b3576148b36159e8565b6020026020010151600360008684815181106148d1576148d16159e8565b6020026020010151815260200190815260200160002060008282546148f69190615a14565b90915550614905905081615a2b565b9050614898565b6001600160a01b0384163b156117435760405163bc197c8160e01b81526001600160a01b0385169063bc197c81906149509089908990889088908890600401615f61565b6020604051808303816000875af192505050801561498b575060408051601f3d908101601f1916820190925261498891810190615fbf565b60015b614a3857614997615fdc565b806308c379a014156149d157506149ac615ff8565b806149b757506149d3565b8060405162461bcd60e51b81526004016108c4919061521d565b505b60405162461bcd60e51b815260206004820152603460248201527f455243313135353a207472616e7366657220746f206e6f6e20455243313135356044820152732932b1b2b4bb32b91034b6b83632b6b2b73a32b960611b60648201526084016108c4565b6001600160e01b0319811663bc197c8160e01b14610a835760405162461bcd60e51b81526004016108c490616081565b614a728282611785565b15610e6e5760008281526004602090815260408083206001600160a01b0385168085529252808320805460ff1916905551339285917ff6391f5c32d9c69d2a47ea670b442974b53935d1edc7fd64eb21e047a839171b9190a45050565b6000611548836001600160a01b038416614e14565b604080516001600160a01b0385811660248301528481166044830152606480830185905283518084039091018152608490920183526020820180516001600160e01b03166323b872dd60e01b1790529151600092839290881691614b489190615f2e565b6000604051808303816000865af19150503d8060008114614b85576040519150601f19603f3d011682016040523d82523d6000602084013e614b8a565b606091505b5091509150818015614bb4575080511580614bb4575080806020019051810190614bb49190615cc5565b601b90610a835760405162461bcd60e51b81526004016108c49190615963565b60408051600180825281830190925260609160009190602080830190803683370190505090508281600081518110614c0e57614c0e6159e8565b602090810291909101015292915050565b6001600160a01b0384163b156117435760405163f23a6e6160e01b81526001600160a01b0385169063f23a6e6190614c6390899089908890889088906004016160c9565b6020604051808303816000875af1925050508015614c9e575060408051601f3d908101601f19168201909252614c9b91810190615fbf565b60015b614caa57614997615fdc565b6001600160e01b0319811663f23a6e6160e01b14610a835760405162461bcd60e51b81526004016108c490616081565b60006103e884118015614cee57506103e883115b601e90614d0e5760405162461bcd60e51b81526004016108c49190615963565b506000614d1b8387615b5d565b9050600081614d2c61271088615b5d565b614d369190615b45565b614d408387615b5d565b6139189190615b92565b6000826000018281548110614d6157614d616159e8565b9060005260206000200154905092915050565b60006008614d8461384042615b92565b614d8e9190615f1a565b905090565b60006103e884118015614da757506103e883115b601e90614dc75760405162461bcd60e51b81526004016108c49190615963565b506000614dd48685615a14565b614dde9084615b5d565b612710614deb8888615b5d565b614df59190615b5d565b614dff9190615b92565b614e0a906001615b45565b9695505050505050565b60008181526001830160205260408120548015614efd576000614e38600183615a14565b8554909150600090614e4c90600190615a14565b9050818114614eb1576000866000018281548110614e6c57614e6c6159e8565b9060005260206000200154905080876000018481548110614e8f57614e8f6159e8565b6000918252602080832090910192909255918252600188019052604090208390555b8554869080614ec257614ec2616103565b6001900381819060005260206000200160009055905585600101600086815260200190815260200160002060009055600193505050506108f0565b60009150506108f0565b828054614f139061592e565b90600052602060002090601f016020900481019282614f355760008555614f7b565b82601f10614f4e57805160ff1916838001178555614f7b565b82800160010185558215614f7b579182015b82811115614f7b578251825591602001919060010190614f60565b50614f8792915061507b565b5090565b6040518060a0016040528060006001600160a01b03168152602001614fae614fc9565b81526000602082018190526040820181905260609091015290565b6040518061010001604052806008906020820280368337509192915050565b600183019183908215614f7b5791602002820160005b8382111561504257835183826101000a81548163ffffffff021916908363ffffffff1602179055509260200192600401602081600301049283019260010302614ffe565b80156150725782816101000a81549063ffffffff0219169055600401602081600301049283019260010302615042565b5050614f879291505b5b80821115614f87576000815560010161507c565b6001600160a01b03811681146150a557600080fd5b50565b600080604083850312156150bb57600080fd5b82356150c681615090565b946020939093013593505050565b6001600160e01b0319811681146150a557600080fd5b6000602082840312156150fc57600080fd5b8135611548816150d4565b60006020828403121561511957600080fd5b813561154881615090565b6000806020838503121561513757600080fd5b82356001600160401b038082111561514e57600080fd5b818501915085601f83011261516257600080fd5b81358181111561517157600080fd5b8660208260061b850101111561518657600080fd5b60209290920196919550909350505050565b6000602082840312156151aa57600080fd5b5035919050565b6001600160a01b0391909116815260200190565b60005b838110156151e05781810151838201526020016151c8565b83811115610b035750506000910152565b600081518084526152098160208601602086016151c5565b601f01601f19169290920160200192915050565b60208152600061154860208301846151f1565b600060c08284031215612d3457600080fd5b634e487b7160e01b600052604160045260246000fd5b601f8201601f191681016001600160401b038111828210171561527d5761527d615242565b6040525050565b60006001600160401b0382111561529d5761529d615242565b5060051b60200190565b600082601f8301126152b857600080fd5b813560206152c582615284565b6040516152d28282615258565b83815260059390931b85018201928281019150868411156152f257600080fd5b8286015b8481101561530d57803583529183019183016152f6565b509695505050505050565b600082601f83011261532957600080fd5b81356001600160401b0381111561534257615342615242565b604051615359601f8301601f191660200182615258565b81815284602083860101111561536e57600080fd5b816020850160208301376000918101602001919091529392505050565b600080600080600060a086880312156153a357600080fd5b85356153ae81615090565b945060208601356153be81615090565b935060408601356001600160401b03808211156153da57600080fd5b6153e689838a016152a7565b945060608801359150808211156153fc57600080fd5b61540889838a016152a7565b9350608088013591508082111561541e57600080fd5b5061542b88828901615318565b9150509295509295909350565b6000806040838503121561544b57600080fd5b82359150602083013561545d81615090565b809150509250929050565b6000806040838503121561547b57600080fd5b82356001600160401b038082111561549257600080fd5b61549e86838701615318565b935060208501359150808211156154b457600080fd5b506154c185828601615318565b9150509250929050565b600080600080608085870312156154e157600080fd5b84356154ec81615090565b93506020850135925060408501359150606085013561550a81615090565b939692955090935050565b60008060006060848603121561552a57600080fd5b833561553581615090565b9250602084013561554581615090565b929592945050506040919091013590565b6000806040838503121561556957600080fd5b82356001600160401b038082111561558057600080fd5b818501915085601f83011261559457600080fd5b813560206155a182615284565b6040516155ae8282615258565b83815260059390931b85018201928281019150898411156155ce57600080fd5b948201945b838610156155f55785356155e681615090565b825294820194908201906155d3565b9650508601359250508082111561560b57600080fd5b506154c1858286016152a7565b600081518084526020808501945080840160005b838110156156485781518752958201959082019060010161562c565b509495945050505050565b6020815260006115486020830184615618565b60008060006060848603121561567b57600080fd5b833561568681615090565b925060208401356001600160401b03808211156156a257600080fd5b6156ae878388016152a7565b935060408601359150808211156156c457600080fd5b506156d1868287016152a7565b9150509250925092565b600080604083850312156156ee57600080fd5b50508035926020909101359150565b80151581146150a557600080fd5b6000806040838503121561571e57600080fd5b823561572981615090565b9150602083013561545d816156fd565b60008060008060008060c0878903121561575257600080fd5b863561575d81615090565b9550602087013561576d81615090565b945060408701359350606087013592506080870135915060a087013561579281615090565b809150509295509295509295565b6000602082840312156157b257600080fd5b81356001600160401b038111156157c857600080fd5b612da884828501615318565b6001600160801b03169052565b81516001600160a01b031681526020808301516101808301919081840160005b600881101561582457825163ffffffff1682529183019190830190600101615801565b50505050604083015161583b6101208401826157d4565b50606083015161584f6101408401826157d4565b506080830151612fa36101608401826157d4565b6000806040838503121561587657600080fd5b823561588181615090565b9150602083013561545d81615090565b600080600080600060a086880312156158a957600080fd5b85356158b481615090565b945060208601356158c481615090565b9350604086013592506060860135915060808601356001600160401b038111156158ed57600080fd5b61542b88828901615318565b60008060006060848603121561590e57600080fd5b833561591981615090565b95602085013595506040909401359392505050565b600181811c9082168061594257607f821691505b60208210811415612d3457634e487b7160e01b600052602260045260246000fd5b60006020808352600084546159778161592e565b8084870152604060018084166000811461599857600181146159ac576159da565b60ff198516898401526060890195506159da565b896000528660002060005b858110156159d25781548b82018601529083019088016159b7565b8a0184019650505b509398975050505050505050565b634e487b7160e01b600052603260045260246000fd5b634e487b7160e01b600052601160045260246000fd5b600082821015615a2657615a266159fe565b500390565b6000600019821415615a3f57615a3f6159fe565b5060010190565b600060208284031215615a5857600080fd5b815161154881615090565b8135615a6e81615090565b81546001600160a01b0319166001600160a01b03919091161781556020820135600182015560408201356002820155606082013560038201556080820135600482015560a09190910135600590910155565b6000808454615ace8161592e565b60018281168015615ae65760018114615af757615b26565b60ff19841687528287019450615b26565b8860005260208060002060005b85811015615b1d5781548a820152908401908201615b04565b50505082870194505b50505093815264173539b7b760d91b6020820152602501949350505050565b60008219821115615b5857615b586159fe565b500190565b6000816000190483118215151615615b7757615b776159fe565b500290565b634e487b7160e01b600052601260045260246000fd5b600082615ba157615ba1615b7c565b500490565b6001600160a01b03929092168252602082015260400190565b60006001600160801b03828116848216808303821115615be157615be16159fe565b01949350505050565b6001600160a01b0394909416845260208401929092526040830152606082015260800190565b60208082526029908201527f455243313135353a2063616c6c6572206973206e6f74206f776e6572206e6f7260408201526808185c1c1c9bdd995960ba1b606082015260800190565b60006001600160801b0383811690831681811015615c7957615c796159fe565b039392505050565b6001600160a01b039390931683526001600160801b03918216602084015216604082015260600190565b6001600160a01b0392831681529116602082015260400190565b600060208284031215615cd757600080fd5b8151611548816156fd565b60008251615cf48184602087016151c5565b683db4b23e973539b7b760b91b920191825250600901919050565b600060208284031215615d2157600080fd5b5051919050565b76020b1b1b2b9b9a1b7b73a3937b61d1030b1b1b7bab73a1604d1b815260008351615d5a8160178501602088016151c5565b7001034b99036b4b9b9b4b733903937b6329607d1b6017918401918201528351615d8b8160288401602088016151c5565b01602801949350505050565b60208082526028908201527f455243313135353a2069647320616e6420616d6f756e7473206c656e677468206040820152670dad2e6dac2e8c6d60c31b606082015260800190565b60208082526025908201527f455243313135353a207472616e7366657220746f20746865207a65726f206164604082015264647265737360d81b606082015260800190565b6020808252602a908201527f455243313135353a20696e73756666696369656e742062616c616e636520666f60408201526939103a3930b739b332b960b11b606082015260800190565b604081526000615e816040830185615618565b82810360208401526115448185615618565b60208082526023908201527f455243313135353a206275726e2066726f6d20746865207a65726f206164647260408201526265737360e81b606082015260800190565b60208082526024908201527f455243313135353a206275726e20616d6f756e7420657863656564732062616c604082015263616e636560e01b606082015260800190565b600082615f2957615f29615b7c565b500690565b60008251615f408184602087016151c5565b9190910192915050565b600081615f5957615f596159fe565b506000190190565b6001600160a01b0386811682528516602082015260a060408201819052600090615f8d90830186615618565b8281036060840152615f9f8186615618565b90508281036080840152615fb381856151f1565b98975050505050505050565b600060208284031215615fd157600080fd5b8151611548816150d4565b600060033d1115615ff55760046000803e5060005160e01c5b90565b600060443d10156160065790565b6040516003193d81016004833e81513d6001600160401b03816024840111818411171561603557505050505090565b828501915081518181111561604d5750505050505090565b843d87010160208285010111156160675750505050505090565b61607660208286010187615258565b509095945050505050565b60208082526028908201527f455243313135353a204552433131353552656365697665722072656a656374656040820152676420746f6b656e7360c01b606082015260800190565b6001600160a01b03868116825285166020820152604081018490526060810183905260a060808201819052600090613918908301846151f1565b634e487b7160e01b600052603160045260246000fdfec3d58168c5ae7397731d063d5bbf3d657854427343f4c083240f7aacaa2d0f62a264697066735822122041bd5c6b0ae8a63bc82fc3b43ae63ecb3a37abde651fff49202a1dd4bbe9239164736f6c634300080b003368747470733a2f2f646174612e63657262792e66692f4365726279537761702f76312f",
			"opcodes": "PUSH1 0xC0 PUSH1 0x40 MSTORE PUSH1 0xD PUSH1 0x80 DUP2 SWAP1 MSTORE PUSH13 0x43657262792053776170205631 PUSH1 0x98 SHL PUSH1 0xA0 SWAP1 DUP2 MSTORE PUSH3 0x30 SWAP2 PUSH1 0x6 SWAP2 SWAP1 PUSH3 0xA8D JUMP JUMPDEST POP PUSH1 0x40 DUP1 MLOAD DUP1 DUP3 ADD SWAP1 SWAP2 MSTORE PUSH1 0xD DUP1 DUP3 MSTORE PUSH13 0x43455242595F535741505F5631 PUSH1 0x98 SHL PUSH1 0x20 SWAP1 SWAP3 ADD SWAP2 DUP3 MSTORE PUSH3 0x67 SWAP2 PUSH1 0x7 SWAP2 PUSH3 0xA8D JUMP JUMPDEST POP PUSH1 0x40 MLOAD DUP1 PUSH1 0x60 ADD PUSH1 0x40 MSTORE DUP1 PUSH1 0x23 DUP2 MSTORE PUSH1 0x20 ADD PUSH3 0x6EB6 PUSH1 0x23 SWAP2 CODECOPY DUP1 MLOAD PUSH3 0x98 SWAP2 PUSH1 0x8 SWAP2 PUSH1 0x20 SWAP1 SWAP2 ADD SWAP1 PUSH3 0xA8D JUMP JUMPDEST POP PUSH1 0x25 DUP1 SLOAD PUSH1 0x1 PUSH1 0x1 PUSH1 0xA0 SHL SUB NOT SWAP1 DUP2 AND PUSH20 0x3D982CB3BC8D1248B17F22B567524BF7BFFD3B11 OR SWAP1 SWAP2 SSTORE PUSH1 0x26 DUP1 SLOAD DUP3 AND PUSH20 0x37E140032AC3A8428ED43761A9881D4741EB3A73 OR SWAP1 SSTORE PUSH1 0x27 DUP1 SLOAD DUP3 AND PUSH20 0xD575EF966CFE21A5A5602DFADAD3D1CAE8C60FDB OR SWAP1 SSTORE PUSH1 0x29 DUP1 SLOAD DUP3 AND PUSH20 0x14769F96E57B80C66837701DE0B43686FB4632DE OR SWAP1 SSTORE PUSH1 0x2A DUP1 SLOAD SWAP1 SWAP2 AND PUSH2 0xDEAD OR SWAP1 SSTORE CALLVALUE DUP1 ISZERO PUSH3 0x136 JUMPI PUSH1 0x0 DUP1 REVERT JUMPDEST POP PUSH1 0x8 PUSH1 0x40 MLOAD PUSH1 0x20 ADD PUSH3 0x14B SWAP2 SWAP1 PUSH3 0xC28 JUMP JUMPDEST PUSH1 0x40 DUP1 MLOAD PUSH1 0x1F NOT DUP2 DUP5 SUB ADD DUP2 MSTORE SWAP2 SWAP1 MSTORE PUSH3 0x166 DUP2 PUSH3 0x915 JUMP JUMPDEST POP PUSH3 0x174 PUSH1 0x0 CALLER PUSH3 0x92E JUMP JUMPDEST PUSH1 0x40 DUP1 MLOAD PUSH2 0x360 DUP2 ADD DUP3 MSTORE PUSH1 0x1 PUSH2 0x320 DUP3 ADD DUP2 DUP2 MSTORE PUSH1 0x41 PUSH1 0xF8 SHL PUSH2 0x340 DUP5 ADD MSTORE DUP3 MSTORE DUP3 MLOAD DUP1 DUP5 ADD DUP5 MSTORE DUP2 DUP2 MSTORE PUSH1 0x21 PUSH1 0xF9 SHL PUSH1 0x20 DUP3 DUP2 ADD SWAP2 SWAP1 SWAP2 MSTORE DUP1 DUP5 ADD SWAP2 SWAP1 SWAP2 MSTORE DUP4 MLOAD DUP1 DUP6 ADD DUP6 MSTORE DUP3 DUP2 MSTORE PUSH1 0x43 PUSH1 0xF8 SHL DUP2 DUP4 ADD MSTORE DUP4 DUP6 ADD MSTORE DUP4 MLOAD DUP1 DUP6 ADD DUP6 MSTORE DUP3 DUP2 MSTORE PUSH1 0x11 PUSH1 0xFA SHL DUP2 DUP4 ADD MSTORE PUSH1 0x60 DUP5 ADD MSTORE DUP4 MLOAD DUP1 DUP6 ADD DUP6 MSTORE DUP3 DUP2 MSTORE PUSH1 0x45 PUSH1 0xF8 SHL DUP2 DUP4 ADD MSTORE PUSH1 0x80 DUP5 ADD MSTORE DUP4 MLOAD DUP1 DUP6 ADD DUP6 MSTORE DUP3 DUP2 MSTORE PUSH1 0x23 PUSH1 0xF9 SHL DUP2 DUP4 ADD MSTORE PUSH1 0xA0 DUP5 ADD MSTORE DUP4 MLOAD DUP1 DUP6 ADD DUP6 MSTORE DUP3 DUP2 MSTORE PUSH1 0x47 PUSH1 0xF8 SHL DUP2 DUP4 ADD MSTORE PUSH1 0xC0 DUP5 ADD MSTORE DUP4 MLOAD DUP1 DUP6 ADD DUP6 MSTORE DUP3 DUP2 MSTORE PUSH1 0x9 PUSH1 0xFB SHL DUP2 DUP4 ADD MSTORE PUSH1 0xE0 DUP5 ADD MSTORE DUP4 MLOAD DUP1 DUP6 ADD DUP6 MSTORE DUP3 DUP2 MSTORE PUSH1 0x69 PUSH1 0xF8 SHL DUP2 DUP4 ADD MSTORE PUSH2 0x100 DUP5 ADD MSTORE DUP4 MLOAD DUP1 DUP6 ADD DUP6 MSTORE DUP3 DUP2 MSTORE PUSH1 0x25 PUSH1 0xF9 SHL DUP2 DUP4 ADD MSTORE PUSH2 0x120 DUP5 ADD MSTORE DUP4 MLOAD DUP1 DUP6 ADD DUP6 MSTORE DUP3 DUP2 MSTORE PUSH1 0x4B PUSH1 0xF8 SHL DUP2 DUP4 ADD MSTORE PUSH2 0x140 DUP5 ADD MSTORE DUP4 MLOAD DUP1 DUP6 ADD DUP6 MSTORE DUP3 DUP2 MSTORE PUSH1 0x13 PUSH1 0xFA SHL DUP2 DUP4 ADD MSTORE PUSH2 0x160 DUP5 ADD MSTORE DUP4 MLOAD DUP1 DUP6 ADD DUP6 MSTORE DUP3 DUP2 MSTORE PUSH1 0x4D PUSH1 0xF8 SHL DUP2 DUP4 ADD MSTORE PUSH2 0x180 DUP5 ADD MSTORE DUP4 MLOAD DUP1 DUP6 ADD DUP6 MSTORE DUP3 DUP2 MSTORE PUSH1 0x27 PUSH1 0xF9 SHL DUP2 DUP4 ADD MSTORE PUSH2 0x1A0 DUP5 ADD MSTORE DUP4 MLOAD DUP1 DUP6 ADD DUP6 MSTORE DUP3 DUP2 MSTORE PUSH1 0x4F PUSH1 0xF8 SHL DUP2 DUP4 ADD MSTORE PUSH2 0x1C0 DUP5 ADD MSTORE DUP4 MLOAD DUP1 DUP6 ADD DUP6 MSTORE DUP3 DUP2 MSTORE PUSH1 0x5 PUSH1 0xFC SHL DUP2 DUP4 ADD MSTORE PUSH2 0x1E0 DUP5 ADD MSTORE DUP4 MLOAD DUP1 DUP6 ADD DUP6 MSTORE DUP3 DUP2 MSTORE PUSH1 0x51 PUSH1 0xF8 SHL DUP2 DUP4 ADD MSTORE PUSH2 0x200 DUP5 ADD MSTORE DUP4 MLOAD DUP1 DUP6 ADD DUP6 MSTORE DUP3 DUP2 MSTORE PUSH1 0x29 PUSH1 0xF9 SHL DUP2 DUP4 ADD MSTORE PUSH2 0x220 DUP5 ADD MSTORE DUP4 MLOAD DUP1 DUP6 ADD DUP6 MSTORE DUP3 DUP2 MSTORE PUSH1 0x53 PUSH1 0xF8 SHL DUP2 DUP4 ADD MSTORE PUSH2 0x240 DUP5 ADD MSTORE DUP4 MLOAD DUP1 DUP6 ADD DUP6 MSTORE DUP3 DUP2 MSTORE PUSH1 0x15 PUSH1 0xFA SHL DUP2 DUP4 ADD MSTORE PUSH2 0x260 DUP5 ADD MSTORE DUP4 MLOAD DUP1 DUP6 ADD DUP6 MSTORE DUP3 DUP2 MSTORE PUSH1 0x55 PUSH1 0xF8 SHL DUP2 DUP4 ADD MSTORE PUSH2 0x280 DUP5 ADD MSTORE DUP4 MLOAD DUP1 DUP6 ADD DUP6 MSTORE DUP3 DUP2 MSTORE PUSH1 0x2B PUSH1 0xF9 SHL DUP2 DUP4 ADD MSTORE PUSH2 0x2A0 DUP5 ADD MSTORE DUP4 MLOAD DUP1 DUP6 ADD DUP6 MSTORE DUP3 DUP2 MSTORE PUSH1 0x57 PUSH1 0xF8 SHL DUP2 DUP4 ADD MSTORE PUSH2 0x2C0 DUP5 ADD MSTORE DUP4 MLOAD DUP1 DUP6 ADD DUP6 MSTORE DUP3 DUP2 MSTORE PUSH1 0xB PUSH1 0xFB SHL DUP2 DUP4 ADD MSTORE PUSH2 0x2E0 DUP5 ADD MSTORE DUP4 MLOAD DUP1 DUP6 ADD SWAP1 SWAP5 MSTORE SWAP1 DUP4 MSTORE PUSH1 0x59 PUSH1 0xF8 SHL DUP4 DUP3 ADD MSTORE PUSH2 0x300 DUP3 ADD SWAP3 SWAP1 SWAP3 MSTORE DUP1 MLOAD DUP1 MLOAD SWAP2 SWAP3 PUSH1 0x9 SWAP3 PUSH3 0x409 SWAP3 DUP5 SWAP3 ADD SWAP1 PUSH3 0xA8D JUMP JUMPDEST POP PUSH1 0x20 DUP3 DUP2 ADD MLOAD DUP1 MLOAD PUSH3 0x424 SWAP3 PUSH1 0x1 DUP6 ADD SWAP3 ADD SWAP1 PUSH3 0xA8D JUMP JUMPDEST POP PUSH1 0x40 DUP3 ADD MLOAD DUP1 MLOAD PUSH3 0x442 SWAP2 PUSH1 0x2 DUP5 ADD SWAP2 PUSH1 0x20 SWAP1 SWAP2 ADD SWAP1 PUSH3 0xA8D JUMP JUMPDEST POP PUSH1 0x60 DUP3 ADD MLOAD DUP1 MLOAD PUSH3 0x460 SWAP2 PUSH1 0x3 DUP5 ADD SWAP2 PUSH1 0x20 SWAP1 SWAP2 ADD SWAP1 PUSH3 0xA8D JUMP JUMPDEST POP PUSH1 0x80 DUP3 ADD MLOAD DUP1 MLOAD PUSH3 0x47E SWAP2 PUSH1 0x4 DUP5 ADD SWAP2 PUSH1 0x20 SWAP1 SWAP2 ADD SWAP1 PUSH3 0xA8D JUMP JUMPDEST POP PUSH1 0xA0 DUP3 ADD MLOAD DUP1 MLOAD PUSH3 0x49C SWAP2 PUSH1 0x5 DUP5 ADD SWAP2 PUSH1 0x20 SWAP1 SWAP2 ADD SWAP1 PUSH3 0xA8D JUMP JUMPDEST POP PUSH1 0xC0 DUP3 ADD MLOAD DUP1 MLOAD PUSH3 0x4BA SWAP2 PUSH1 0x6 DUP5 ADD SWAP2 PUSH1 0x20 SWAP1 SWAP2 ADD SWAP1 PUSH3 0xA8D JUMP JUMPDEST POP PUSH1 0xE0 DUP3 ADD MLOAD DUP1 MLOAD PUSH3 0x4D8 SWAP2 PUSH1 0x7 DUP5 ADD SWAP2 PUSH1 0x20 SWAP1 SWAP2 ADD SWAP1 PUSH3 0xA8D JUMP JUMPDEST POP PUSH2 0x100 DUP3 ADD MLOAD DUP1 MLOAD PUSH3 0x4F7 SWAP2 PUSH1 0x8 DUP5 ADD SWAP2 PUSH1 0x20 SWAP1 SWAP2 ADD SWAP1 PUSH3 0xA8D JUMP JUMPDEST POP PUSH2 0x120 DUP3 ADD MLOAD DUP1 MLOAD PUSH3 0x516 SWAP2 PUSH1 0x9 DUP5 ADD SWAP2 PUSH1 0x20 SWAP1 SWAP2 ADD SWAP1 PUSH3 0xA8D JUMP JUMPDEST POP PUSH2 0x140 DUP3 ADD MLOAD DUP1 MLOAD PUSH3 0x535 SWAP2 PUSH1 0xA DUP5 ADD SWAP2 PUSH1 0x20 SWAP1 SWAP2 ADD SWAP1 PUSH3 0xA8D JUMP JUMPDEST POP PUSH2 0x160 DUP3 ADD MLOAD DUP1 MLOAD PUSH3 0x554 SWAP2 PUSH1 0xB DUP5 ADD SWAP2 PUSH1 0x20 SWAP1 SWAP2 ADD SWAP1 PUSH3 0xA8D JUMP JUMPDEST POP PUSH2 0x180 DUP3 ADD MLOAD DUP1 MLOAD PUSH3 0x573 SWAP2 PUSH1 0xC DUP5 ADD SWAP2 PUSH1 0x20 SWAP1 SWAP2 ADD SWAP1 PUSH3 0xA8D JUMP JUMPDEST POP PUSH2 0x1A0 DUP3 ADD MLOAD DUP1 MLOAD PUSH3 0x592 SWAP2 PUSH1 0xD DUP5 ADD SWAP2 PUSH1 0x20 SWAP1 SWAP2 ADD SWAP1 PUSH3 0xA8D JUMP JUMPDEST POP PUSH2 0x1C0 DUP3 ADD MLOAD DUP1 MLOAD PUSH3 0x5B1 SWAP2 PUSH1 0xE DUP5 ADD SWAP2 PUSH1 0x20 SWAP1 SWAP2 ADD SWAP1 PUSH3 0xA8D JUMP JUMPDEST POP PUSH2 0x1E0 DUP3 ADD MLOAD DUP1 MLOAD PUSH3 0x5D0 SWAP2 PUSH1 0xF DUP5 ADD SWAP2 PUSH1 0x20 SWAP1 SWAP2 ADD SWAP1 PUSH3 0xA8D JUMP JUMPDEST POP PUSH2 0x200 DUP3 ADD MLOAD DUP1 MLOAD PUSH3 0x5EF SWAP2 PUSH1 0x10 DUP5 ADD SWAP2 PUSH1 0x20 SWAP1 SWAP2 ADD SWAP1 PUSH3 0xA8D JUMP JUMPDEST POP PUSH2 0x220 DUP3 ADD MLOAD DUP1 MLOAD PUSH3 0x60E SWAP2 PUSH1 0x11 DUP5 ADD SWAP2 PUSH1 0x20 SWAP1 SWAP2 ADD SWAP1 PUSH3 0xA8D JUMP JUMPDEST POP PUSH2 0x240 DUP3 ADD MLOAD DUP1 MLOAD PUSH3 0x62D SWAP2 PUSH1 0x12 DUP5 ADD SWAP2 PUSH1 0x20 SWAP1 SWAP2 ADD SWAP1 PUSH3 0xA8D JUMP JUMPDEST POP PUSH2 0x260 DUP3 ADD MLOAD DUP1 MLOAD PUSH3 0x64C SWAP2 PUSH1 0x13 DUP5 ADD SWAP2 PUSH1 0x20 SWAP1 SWAP2 ADD SWAP1 PUSH3 0xA8D JUMP JUMPDEST POP PUSH2 0x280 DUP3 ADD MLOAD DUP1 MLOAD PUSH3 0x66B SWAP2 PUSH1 0x14 DUP5 ADD SWAP2 PUSH1 0x20 SWAP1 SWAP2 ADD SWAP1 PUSH3 0xA8D JUMP JUMPDEST POP PUSH2 0x2A0 DUP3 ADD MLOAD DUP1 MLOAD PUSH3 0x68A SWAP2 PUSH1 0x15 DUP5 ADD SWAP2 PUSH1 0x20 SWAP1 SWAP2 ADD SWAP1 PUSH3 0xA8D JUMP JUMPDEST POP PUSH2 0x2C0 DUP3 ADD MLOAD DUP1 MLOAD PUSH3 0x6A9 SWAP2 PUSH1 0x16 DUP5 ADD SWAP2 PUSH1 0x20 SWAP1 SWAP2 ADD SWAP1 PUSH3 0xA8D JUMP JUMPDEST POP PUSH2 0x2E0 DUP3 ADD MLOAD DUP1 MLOAD PUSH3 0x6C8 SWAP2 PUSH1 0x17 DUP5 ADD SWAP2 PUSH1 0x20 SWAP1 SWAP2 ADD SWAP1 PUSH3 0xA8D JUMP JUMPDEST POP PUSH2 0x300 DUP3 ADD MLOAD DUP1 MLOAD PUSH3 0x6E7 SWAP2 PUSH1 0x18 DUP5 ADD SWAP2 PUSH1 0x20 SWAP1 SWAP2 ADD SWAP1 PUSH3 0xA8D JUMP JUMPDEST POP POP PUSH1 0x40 DUP1 MLOAD PUSH1 0xC0 DUP2 ADD SWAP1 SWAP2 MSTORE PUSH4 0xDEAD123 DUP2 MSTORE SWAP1 POP PUSH1 0x20 DUP2 ADD PUSH3 0x70F PUSH1 0x64 PUSH1 0x4 PUSH3 0xCE6 JUMP JUMPDEST DUP2 MSTORE PUSH1 0x20 ADD PUSH1 0x1 DUP2 MSTORE PUSH1 0x20 ADD PUSH1 0x64 DUP2 MSTORE PUSH1 0x20 ADD PUSH1 0x64 PUSH2 0x2710 PUSH1 0xF PUSH3 0x735 SWAP2 SWAP1 PUSH3 0xCE6 JUMP JUMPDEST PUSH3 0x741 SWAP2 SWAP1 PUSH3 0xD14 JUMP JUMPDEST DUP2 MSTORE PUSH1 0x20 ADD PUSH3 0x755 PUSH2 0x2710 PUSH1 0xF PUSH3 0xCE6 JUMP JUMPDEST SWAP1 MSTORE DUP1 MLOAD PUSH1 0x2B DUP1 SLOAD PUSH1 0x1 PUSH1 0x1 PUSH1 0xA0 SHL SUB NOT AND PUSH1 0x1 PUSH1 0x1 PUSH1 0xA0 SHL SUB SWAP1 SWAP3 AND SWAP2 SWAP1 SWAP2 OR SWAP1 SSTORE PUSH1 0x20 DUP2 ADD MLOAD PUSH1 0x2C SSTORE PUSH1 0x40 DUP2 ADD MLOAD PUSH1 0x2D SSTORE PUSH1 0x60 DUP2 ADD MLOAD PUSH1 0x2E SSTORE PUSH1 0x80 DUP2 ADD MLOAD PUSH1 0x2F SSTORE PUSH1 0xA0 ADD MLOAD PUSH1 0x30 SSTORE PUSH3 0x7A9 PUSH3 0xB1C JUMP JUMPDEST PUSH1 0x40 DUP1 MLOAD PUSH1 0xA0 DUP2 ADD DUP3 MSTORE PUSH1 0x0 DUP1 DUP3 MSTORE PUSH1 0x20 DUP3 ADD DUP5 DUP2 MSTORE SWAP3 DUP3 ADD DUP2 SWAP1 MSTORE PUSH1 0x60 DUP3 ADD DUP2 SWAP1 MSTORE PUSH1 0x80 DUP3 ADD DUP2 SWAP1 MSTORE PUSH1 0x22 DUP1 SLOAD PUSH1 0x1 DUP2 ADD DUP3 SSTORE SWAP2 MSTORE DUP2 MLOAD PUSH32 0x61035B26E3E9EEE00E0D72FD1EE8DDCA6894550DCA6916EA2AC6BAA90D11E510 PUSH1 0x4 SWAP1 SWAP3 MUL SWAP2 DUP3 ADD DUP1 SLOAD PUSH1 0x1 PUSH1 0x1 PUSH1 0xA0 SHL SUB NOT AND PUSH1 0x1 PUSH1 0x1 PUSH1 0xA0 SHL SUB SWAP1 SWAP3 AND SWAP2 SWAP1 SWAP2 OR DUP2 SSTORE SWAP3 MLOAD SWAP2 SWAP3 SWAP2 PUSH3 0x85C SWAP2 PUSH32 0x61035B26E3E9EEE00E0D72FD1EE8DDCA6894550DCA6916EA2AC6BAA90D11E511 ADD SWAP1 PUSH1 0x8 PUSH3 0xB3B JUMP JUMPDEST POP PUSH1 0x40 DUP3 ADD MLOAD PUSH1 0x60 DUP4 ADD MLOAD PUSH1 0x1 PUSH1 0x1 PUSH1 0x80 SHL SUB SWAP2 DUP3 AND PUSH1 0x1 PUSH1 0x80 SHL SWAP2 DUP4 AND SWAP2 SWAP1 SWAP2 MUL OR PUSH1 0x2 DUP4 ADD SSTORE PUSH1 0x80 SWAP1 SWAP3 ADD MLOAD PUSH1 0x3 SWAP1 SWAP2 ADD DUP1 SLOAD PUSH1 0x1 PUSH1 0x1 PUSH1 0x80 SHL SUB NOT AND SWAP2 SWAP1 SWAP3 AND OR SWAP1 SSTORE CHAINID PUSH2 0x3039 EQ ISZERO PUSH3 0x8C7 JUMPI PUSH1 0x29 DUP1 SLOAD PUSH1 0x1 PUSH1 0x1 PUSH1 0xA0 SHL SUB NOT AND PUSH2 0xDEAD OR SWAP1 SSTORE PUSH3 0x8E8 JUMP JUMPDEST CHAINID PUSH3 0x181CD EQ ISZERO PUSH3 0x8E8 JUMPI PUSH1 0x29 DUP1 SLOAD PUSH1 0x1 PUSH1 0x1 PUSH1 0xA0 SHL SUB NOT AND PUSH2 0xDEAD OR SWAP1 SSTORE JUMPDEST POP PUSH1 0x29 DUP1 SLOAD PUSH1 0x1 PUSH1 0x1 PUSH1 0xA0 SHL SUB NOT AND PUSH20 0x14769F96E57B80C66837701DE0B43686FB4632DE OR SWAP1 SSTORE PUSH3 0xD37 JUMP JUMPDEST DUP1 MLOAD PUSH3 0x92A SWAP1 PUSH1 0x2 SWAP1 PUSH1 0x20 DUP5 ADD SWAP1 PUSH3 0xA8D JUMP JUMPDEST POP POP JUMP JUMPDEST PUSH3 0x92A DUP3 DUP3 PUSH3 0x94B DUP3 DUP3 PUSH3 0x977 PUSH1 0x20 SHL PUSH3 0x26A6 OR PUSH1 0x20 SHR JUMP JUMPDEST PUSH1 0x0 DUP3 DUP2 MSTORE PUSH1 0x5 PUSH1 0x20 SWAP1 DUP2 MSTORE PUSH1 0x40 SWAP1 SWAP2 KECCAK256 PUSH3 0x972 SWAP2 DUP4 SWAP1 PUSH3 0x272C PUSH3 0xA1B DUP3 SHL OR SWAP1 SHR JUMP JUMPDEST POP POP POP JUMP JUMPDEST PUSH1 0x0 DUP3 DUP2 MSTORE PUSH1 0x4 PUSH1 0x20 SWAP1 DUP2 MSTORE PUSH1 0x40 DUP1 DUP4 KECCAK256 PUSH1 0x1 PUSH1 0x1 PUSH1 0xA0 SHL SUB DUP6 AND DUP5 MSTORE SWAP1 SWAP2 MSTORE SWAP1 KECCAK256 SLOAD PUSH1 0xFF AND PUSH3 0x92A JUMPI PUSH1 0x0 DUP3 DUP2 MSTORE PUSH1 0x4 PUSH1 0x20 SWAP1 DUP2 MSTORE PUSH1 0x40 DUP1 DUP4 KECCAK256 PUSH1 0x1 PUSH1 0x1 PUSH1 0xA0 SHL SUB DUP6 AND DUP5 MSTORE SWAP1 SWAP2 MSTORE SWAP1 KECCAK256 DUP1 SLOAD PUSH1 0xFF NOT AND PUSH1 0x1 OR SWAP1 SSTORE PUSH3 0x9D7 CALLER SWAP1 JUMP JUMPDEST PUSH1 0x1 PUSH1 0x1 PUSH1 0xA0 SHL SUB AND DUP2 PUSH1 0x1 PUSH1 0x1 PUSH1 0xA0 SHL SUB AND DUP4 PUSH32 0x2F8788117E7EFF1D82E926EC794901D17C78024A50270940304540A733656F0D PUSH1 0x40 MLOAD PUSH1 0x40 MLOAD DUP1 SWAP2 SUB SWAP1 LOG4 POP POP JUMP JUMPDEST PUSH1 0x0 PUSH3 0xA32 DUP4 PUSH1 0x1 PUSH1 0x1 PUSH1 0xA0 SHL SUB DUP5 AND PUSH3 0xA3B JUMP JUMPDEST SWAP1 POP JUMPDEST SWAP3 SWAP2 POP POP JUMP JUMPDEST PUSH1 0x0 DUP2 DUP2 MSTORE PUSH1 0x1 DUP4 ADD PUSH1 0x20 MSTORE PUSH1 0x40 DUP2 KECCAK256 SLOAD PUSH3 0xA84 JUMPI POP DUP2 SLOAD PUSH1 0x1 DUP2 DUP2 ADD DUP5 SSTORE PUSH1 0x0 DUP5 DUP2 MSTORE PUSH1 0x20 DUP1 DUP3 KECCAK256 SWAP1 SWAP4 ADD DUP5 SWAP1 SSTORE DUP5 SLOAD DUP5 DUP3 MSTORE DUP3 DUP7 ADD SWAP1 SWAP4 MSTORE PUSH1 0x40 SWAP1 KECCAK256 SWAP2 SWAP1 SWAP2 SSTORE PUSH3 0xA35 JUMP JUMPDEST POP PUSH1 0x0 PUSH3 0xA35 JUMP JUMPDEST DUP3 DUP1 SLOAD PUSH3 0xA9B SWAP1 PUSH3 0xBEB JUMP JUMPDEST SWAP1 PUSH1 0x0 MSTORE PUSH1 0x20 PUSH1 0x0 KECCAK256 SWAP1 PUSH1 0x1F ADD PUSH1 0x20 SWAP1 DIV DUP2 ADD SWAP3 DUP3 PUSH3 0xABF JUMPI PUSH1 0x0 DUP6 SSTORE PUSH3 0xB0A JUMP JUMPDEST DUP3 PUSH1 0x1F LT PUSH3 0xADA JUMPI DUP1 MLOAD PUSH1 0xFF NOT AND DUP4 DUP1 ADD OR DUP6 SSTORE PUSH3 0xB0A JUMP JUMPDEST DUP3 DUP1 ADD PUSH1 0x1 ADD DUP6 SSTORE DUP3 ISZERO PUSH3 0xB0A JUMPI SWAP2 DUP3 ADD JUMPDEST DUP3 DUP2 GT ISZERO PUSH3 0xB0A JUMPI DUP3 MLOAD DUP3 SSTORE SWAP2 PUSH1 0x20 ADD SWAP2 SWAP1 PUSH1 0x1 ADD SWAP1 PUSH3 0xAED JUMP JUMPDEST POP PUSH3 0xB18 SWAP3 SWAP2 POP PUSH3 0xBD4 JUMP JUMPDEST POP SWAP1 JUMP JUMPDEST PUSH1 0x40 MLOAD DUP1 PUSH2 0x100 ADD PUSH1 0x40 MSTORE DUP1 PUSH1 0x8 SWAP1 PUSH1 0x20 DUP3 MUL DUP1 CALLDATASIZE DUP4 CALLDATACOPY POP SWAP2 SWAP3 SWAP2 POP POP JUMP JUMPDEST PUSH1 0x1 DUP4 ADD SWAP2 DUP4 SWAP1 DUP3 ISZERO PUSH3 0xB0A JUMPI SWAP2 PUSH1 0x20 MUL DUP3 ADD PUSH1 0x0 JUMPDEST DUP4 DUP3 GT ISZERO PUSH3 0xB98 JUMPI DUP4 MLOAD DUP4 DUP3 PUSH2 0x100 EXP DUP2 SLOAD DUP2 PUSH4 0xFFFFFFFF MUL NOT AND SWAP1 DUP4 PUSH4 0xFFFFFFFF AND MUL OR SWAP1 SSTORE POP SWAP3 PUSH1 0x20 ADD SWAP3 PUSH1 0x4 ADD PUSH1 0x20 DUP2 PUSH1 0x3 ADD DIV SWAP3 DUP4 ADD SWAP3 PUSH1 0x1 SUB MUL PUSH3 0xB52 JUMP JUMPDEST DUP1 ISZERO PUSH3 0xBCA JUMPI DUP3 DUP2 PUSH2 0x100 EXP DUP2 SLOAD SWAP1 PUSH4 0xFFFFFFFF MUL NOT AND SWAP1 SSTORE PUSH1 0x4 ADD PUSH1 0x20 DUP2 PUSH1 0x3 ADD DIV SWAP3 DUP4 ADD SWAP3 PUSH1 0x1 SUB MUL PUSH3 0xB98 JUMP JUMPDEST POP POP PUSH3 0xB18 SWAP3 SWAP2 POP JUMPDEST JUMPDEST DUP1 DUP3 GT ISZERO PUSH3 0xB18 JUMPI PUSH1 0x0 DUP2 SSTORE PUSH1 0x1 ADD PUSH3 0xBD5 JUMP JUMPDEST PUSH1 0x1 DUP2 DUP2 SHR SWAP1 DUP3 AND DUP1 PUSH3 0xC00 JUMPI PUSH1 0x7F DUP3 AND SWAP2 POP JUMPDEST PUSH1 0x20 DUP3 LT DUP2 EQ ISZERO PUSH3 0xC22 JUMPI PUSH4 0x4E487B71 PUSH1 0xE0 SHL PUSH1 0x0 MSTORE PUSH1 0x22 PUSH1 0x4 MSTORE PUSH1 0x24 PUSH1 0x0 REVERT JUMPDEST POP SWAP2 SWAP1 POP JUMP JUMPDEST PUSH1 0x0 DUP1 DUP4 SLOAD DUP2 PUSH1 0x1 DUP3 DUP2 SHR SWAP2 POP DUP1 DUP4 AND DUP1 PUSH3 0xC45 JUMPI PUSH1 0x7F DUP4 AND SWAP3 POP JUMPDEST PUSH1 0x20 DUP1 DUP5 LT DUP3 EQ ISZERO PUSH3 0xC66 JUMPI PUSH4 0x4E487B71 PUSH1 0xE0 SHL DUP7 MSTORE PUSH1 0x22 PUSH1 0x4 MSTORE PUSH1 0x24 DUP7 REVERT JUMPDEST DUP2 DUP1 ISZERO PUSH3 0xC7D JUMPI PUSH1 0x1 DUP2 EQ PUSH3 0xC8F JUMPI PUSH3 0xCBE JUMP JUMPDEST PUSH1 0xFF NOT DUP7 AND DUP10 MSTORE DUP5 DUP10 ADD SWAP7 POP PUSH3 0xCBE JUMP JUMPDEST PUSH1 0x0 DUP11 DUP2 MSTORE PUSH1 0x20 SWAP1 KECCAK256 PUSH1 0x0 JUMPDEST DUP7 DUP2 LT ISZERO PUSH3 0xCB6 JUMPI DUP2 SLOAD DUP12 DUP3 ADD MSTORE SWAP1 DUP6 ADD SWAP1 DUP4 ADD PUSH3 0xC9B JUMP JUMPDEST POP POP DUP5 DUP10 ADD SWAP7 POP JUMPDEST POP POP POP POP POP POP PUSH3 0xCDE DUP2 PUSH9 0x3DB4B23E973539B7B7 PUSH1 0xB9 SHL DUP2 MSTORE PUSH1 0x9 ADD SWAP1 JUMP JUMPDEST SWAP5 SWAP4 POP POP POP POP JUMP JUMPDEST PUSH1 0x0 DUP2 PUSH1 0x0 NOT DIV DUP4 GT DUP3 ISZERO ISZERO AND ISZERO PUSH3 0xD0F JUMPI PUSH4 0x4E487B71 PUSH1 0xE0 SHL PUSH1 0x0 MSTORE PUSH1 0x11 PUSH1 0x4 MSTORE PUSH1 0x24 PUSH1 0x0 REVERT JUMPDEST POP MUL SWAP1 JUMP JUMPDEST PUSH1 0x0 DUP3 PUSH3 0xD32 JUMPI PUSH4 0x4E487B71 PUSH1 0xE0 SHL PUSH1 0x0 MSTORE PUSH1 0x12 PUSH1 0x4 MSTORE PUSH1 0x24 PUSH1 0x0 REVERT JUMPDEST POP DIV SWAP1 JUMP JUMPDEST PUSH2 0x616F DUP1 PUSH3 0xD47 PUSH1 0x0 CODECOPY PUSH1 0x0 RETURN INVALID PUSH1 0x80 PUSH1 0x40 MSTORE PUSH1 0x4 CALLDATASIZE LT PUSH2 0x215 JUMPI PUSH1 0x0 CALLDATALOAD PUSH1 0xE0 SHR DUP1 PUSH4 0x9010D07C GT PUSH2 0x11F JUMPI DUP1 PUSH4 0x9010D07C EQ PUSH2 0x50D JUMPI DUP1 PUSH4 0x9162EBF0 EQ PUSH2 0x52D JUMPI DUP1 PUSH4 0x91D14854 EQ PUSH2 0x54D JUMPI DUP1 PUSH4 0x95D89B41 EQ PUSH2 0x56D JUMPI DUP1 PUSH4 0x9BC731FC EQ PUSH2 0x582 JUMPI DUP1 PUSH4 0xA22CB465 EQ PUSH2 0x5A2 JUMPI DUP1 PUSH4 0xA60C6E55 EQ PUSH2 0x5C2 JUMPI DUP1 PUSH4 0xA7FD40BF EQ PUSH2 0x5EA JUMPI DUP1 PUSH4 0xB771E425 EQ PUSH2 0x60A JUMPI DUP1 PUSH4 0xBBADC03B EQ PUSH2 0x640 JUMPI DUP1 PUSH4 0xBD85B039 EQ PUSH2 0x66D JUMPI DUP1 PUSH4 0xC790985A EQ PUSH2 0x69A JUMPI DUP1 PUSH4 0xCA15C873 EQ PUSH2 0x6BA JUMPI DUP1 PUSH4 0xD01350BD EQ PUSH2 0x6DA JUMPI DUP1 PUSH4 0xD391014B EQ PUSH2 0x6FA JUMPI DUP1 PUSH4 0xD547741F EQ PUSH2 0x70F JUMPI DUP1 PUSH4 0xD5D60737 EQ PUSH2 0x72F JUMPI DUP1 PUSH4 0xE06174E4 EQ PUSH2 0x742 JUMPI DUP1 PUSH4 0xE985E9C5 EQ PUSH2 0x7AD JUMPI DUP1 PUSH4 0xF242432A EQ PUSH2 0x7F6 JUMPI DUP1 PUSH4 0xF3E6EA8A EQ PUSH2 0x816 JUMPI DUP1 PUSH4 0xF5298ACA EQ PUSH2 0x829 JUMPI DUP1 PUSH4 0xF6524724 EQ PUSH2 0x849 JUMPI PUSH1 0x0 DUP1 REVERT JUMPDEST DUP1 PUSH3 0xFDD58E EQ PUSH2 0x221 JUMPI DUP1 PUSH4 0x1FFC9A7 EQ PUSH2 0x254 JUMPI DUP1 PUSH4 0x3D604BD EQ PUSH2 0x284 JUMPI DUP1 PUSH4 0x3ED957F EQ PUSH2 0x2A6 JUMPI DUP1 PUSH4 0x6FB1A07 EQ PUSH2 0x2C6 JUMPI DUP1 PUSH4 0x6FDDE03 EQ PUSH2 0x2F3 JUMPI DUP1 PUSH4 0xC2E075B EQ PUSH2 0x315 JUMPI DUP1 PUSH4 0xE89341C EQ PUSH2 0x335 JUMPI DUP1 PUSH4 0x18160DDD EQ PUSH2 0x355 JUMPI DUP1 PUSH4 0x248A9CA3 EQ PUSH2 0x36A JUMPI DUP1 PUSH4 0x2EB2C2D6 EQ PUSH2 0x38A JUMPI DUP1 PUSH4 0x2F2FF15D EQ PUSH2 0x3AA JUMPI DUP1 PUSH4 0x313CE567 EQ PUSH2 0x3CA JUMPI DUP1 PUSH4 0x36568ABE EQ PUSH2 0x3DE JUMPI DUP1 PUSH4 0x3935AC11 EQ PUSH2 0x3FE JUMPI DUP1 PUSH4 0x43FEFAD4 EQ PUSH2 0x41E JUMPI DUP1 PUSH4 0x48B08D62 EQ PUSH2 0x431 JUMPI DUP1 PUSH4 0x4E1273F4 EQ PUSH2 0x451 JUMPI DUP1 PUSH4 0x4F558E79 EQ PUSH2 0x47E JUMPI DUP1 PUSH4 0x6B20C454 EQ PUSH2 0x4AD JUMPI DUP1 PUSH4 0x74FCF071 EQ PUSH2 0x4CD JUMPI DUP1 PUSH4 0x7B4B233C EQ PUSH2 0x4ED JUMPI PUSH1 0x0 DUP1 REVERT JUMPDEST CALLDATASIZE PUSH2 0x21C JUMPI STOP JUMPDEST PUSH1 0x0 DUP1 REVERT JUMPDEST CALLVALUE DUP1 ISZERO PUSH2 0x22D JUMPI PUSH1 0x0 DUP1 REVERT JUMPDEST POP PUSH2 0x241 PUSH2 0x23C CALLDATASIZE PUSH1 0x4 PUSH2 0x50A8 JUMP JUMPDEST PUSH2 0x85C JUMP JUMPDEST PUSH1 0x40 MLOAD SWAP1 DUP2 MSTORE PUSH1 0x20 ADD JUMPDEST PUSH1 0x40 MLOAD DUP1 SWAP2 SUB SWAP1 RETURN JUMPDEST CALLVALUE DUP1 ISZERO PUSH2 0x260 JUMPI PUSH1 0x0 DUP1 REVERT JUMPDEST POP PUSH2 0x274 PUSH2 0x26F CALLDATASIZE PUSH1 0x4 PUSH2 0x50EA JUMP JUMPDEST PUSH2 0x8F6 JUMP JUMPDEST PUSH1 0x40 MLOAD SWAP1 ISZERO ISZERO DUP2 MSTORE PUSH1 0x20 ADD PUSH2 0x24B JUMP JUMPDEST CALLVALUE DUP1 ISZERO PUSH2 0x290 JUMPI PUSH1 0x0 DUP1 REVERT JUMPDEST POP PUSH2 0x2A4 PUSH2 0x29F CALLDATASIZE PUSH1 0x4 PUSH2 0x5107 JUMP JUMPDEST PUSH2 0x936 JUMP JUMPDEST STOP JUMPDEST CALLVALUE DUP1 ISZERO PUSH2 0x2B2 JUMPI PUSH1 0x0 DUP1 REVERT JUMPDEST POP PUSH2 0x2A4 PUSH2 0x2C1 CALLDATASIZE PUSH1 0x4 PUSH2 0x5124 JUMP JUMPDEST PUSH2 0xA8C JUMP JUMPDEST CALLVALUE DUP1 ISZERO PUSH2 0x2D2 JUMPI PUSH1 0x0 DUP1 REVERT JUMPDEST POP PUSH2 0x2E6 PUSH2 0x2E1 CALLDATASIZE PUSH1 0x4 PUSH2 0x5198 JUMP JUMPDEST PUSH2 0xB09 JUMP JUMPDEST PUSH1 0x40 MLOAD PUSH2 0x24B SWAP2 SWAP1 PUSH2 0x51B1 JUMP JUMPDEST CALLVALUE DUP1 ISZERO PUSH2 0x2FF JUMPI PUSH1 0x0 DUP1 REVERT JUMPDEST POP PUSH2 0x308 PUSH2 0xB80 JUMP JUMPDEST PUSH1 0x40 MLOAD PUSH2 0x24B SWAP2 SWAP1 PUSH2 0x521D JUMP JUMPDEST CALLVALUE DUP1 ISZERO PUSH2 0x321 JUMPI PUSH1 0x0 DUP1 REVERT JUMPDEST POP PUSH2 0x2A4 PUSH2 0x330 CALLDATASIZE PUSH1 0x4 PUSH2 0x5230 JUMP JUMPDEST PUSH2 0xC12 JUMP JUMPDEST CALLVALUE DUP1 ISZERO PUSH2 0x341 JUMPI PUSH1 0x0 DUP1 REVERT JUMPDEST POP PUSH2 0x308 PUSH2 0x350 CALLDATASIZE PUSH1 0x4 PUSH2 0x5198 JUMP JUMPDEST PUSH2 0xCA3 JUMP JUMPDEST CALLVALUE DUP1 ISZERO PUSH2 0x361 JUMPI PUSH1 0x0 DUP1 REVERT JUMPDEST POP PUSH2 0x241 PUSH2 0xCCF JUMP JUMPDEST CALLVALUE DUP1 ISZERO PUSH2 0x376 JUMPI PUSH1 0x0 DUP1 REVERT JUMPDEST POP PUSH2 0x241 PUSH2 0x385 CALLDATASIZE PUSH1 0x4 PUSH2 0x5198 JUMP JUMPDEST PUSH2 0xD1B JUMP JUMPDEST CALLVALUE DUP1 ISZERO PUSH2 0x396 JUMPI PUSH1 0x0 DUP1 REVERT JUMPDEST POP PUSH2 0x2A4 PUSH2 0x3A5 CALLDATASIZE PUSH1 0x4 PUSH2 0x538B JUMP JUMPDEST PUSH2 0xD30 JUMP JUMPDEST CALLVALUE DUP1 ISZERO PUSH2 0x3B6 JUMPI PUSH1 0x0 DUP1 REVERT JUMPDEST POP PUSH2 0x2A4 PUSH2 0x3C5 CALLDATASIZE PUSH1 0x4 PUSH2 0x5438 JUMP JUMPDEST PUSH2 0xDD2 JUMP JUMPDEST CALLVALUE DUP1 ISZERO PUSH2 0x3D6 JUMPI PUSH1 0x0 DUP1 REVERT JUMPDEST POP PUSH1 0x12 PUSH2 0x241 JUMP JUMPDEST CALLVALUE DUP1 ISZERO PUSH2 0x3EA JUMPI PUSH1 0x0 DUP1 REVERT JUMPDEST POP PUSH2 0x2A4 PUSH2 0x3F9 CALLDATASIZE PUSH1 0x4 PUSH2 0x5438 JUMP JUMPDEST PUSH2 0xDF4 JUMP JUMPDEST CALLVALUE DUP1 ISZERO PUSH2 0x40A JUMPI PUSH1 0x0 DUP1 REVERT JUMPDEST POP PUSH2 0x2A4 PUSH2 0x419 CALLDATASIZE PUSH1 0x4 PUSH2 0x5468 JUMP JUMPDEST PUSH2 0xE72 JUMP JUMPDEST PUSH2 0x2A4 PUSH2 0x42C CALLDATASIZE PUSH1 0x4 PUSH2 0x54CB JUMP JUMPDEST PUSH2 0xEA5 JUMP JUMPDEST CALLVALUE DUP1 ISZERO PUSH2 0x43D JUMPI PUSH1 0x0 DUP1 REVERT JUMPDEST POP PUSH2 0x241 PUSH2 0x44C CALLDATASIZE PUSH1 0x4 PUSH2 0x5515 JUMP JUMPDEST PUSH2 0x147D JUMP JUMPDEST CALLVALUE DUP1 ISZERO PUSH2 0x45D JUMPI PUSH1 0x0 DUP1 REVERT JUMPDEST POP PUSH2 0x471 PUSH2 0x46C CALLDATASIZE PUSH1 0x4 PUSH2 0x5556 JUMP JUMPDEST PUSH2 0x154F JUMP JUMPDEST PUSH1 0x40 MLOAD PUSH2 0x24B SWAP2 SWAP1 PUSH2 0x5653 JUMP JUMPDEST CALLVALUE DUP1 ISZERO PUSH2 0x48A JUMPI PUSH1 0x0 DUP1 REVERT JUMPDEST POP PUSH2 0x274 PUSH2 0x499 CALLDATASIZE PUSH1 0x4 PUSH2 0x5198 JUMP JUMPDEST PUSH1 0x0 SWAP1 DUP2 MSTORE PUSH1 0x3 PUSH1 0x20 MSTORE PUSH1 0x40 SWAP1 KECCAK256 SLOAD ISZERO ISZERO SWAP1 JUMP JUMPDEST CALLVALUE DUP1 ISZERO PUSH2 0x4B9 JUMPI PUSH1 0x0 DUP1 REVERT JUMPDEST POP PUSH2 0x2A4 PUSH2 0x4C8 CALLDATASIZE PUSH1 0x4 PUSH2 0x5666 JUMP JUMPDEST PUSH2 0x1678 JUMP JUMPDEST CALLVALUE DUP1 ISZERO PUSH2 0x4D9 JUMPI PUSH1 0x0 DUP1 REVERT JUMPDEST POP PUSH2 0x2A4 PUSH2 0x4E8 CALLDATASIZE PUSH1 0x4 PUSH2 0x54CB JUMP JUMPDEST PUSH2 0x16BB JUMP JUMPDEST CALLVALUE DUP1 ISZERO PUSH2 0x4F9 JUMPI PUSH1 0x0 DUP1 REVERT JUMPDEST POP PUSH1 0x2A SLOAD PUSH2 0x2E6 SWAP1 PUSH1 0x1 PUSH1 0x1 PUSH1 0xA0 SHL SUB AND DUP2 JUMP JUMPDEST CALLVALUE DUP1 ISZERO PUSH2 0x519 JUMPI PUSH1 0x0 DUP1 REVERT JUMPDEST POP PUSH2 0x2E6 PUSH2 0x528 CALLDATASIZE PUSH1 0x4 PUSH2 0x56DB JUMP JUMPDEST PUSH2 0x174B JUMP JUMPDEST CALLVALUE DUP1 ISZERO PUSH2 0x539 JUMPI PUSH1 0x0 DUP1 REVERT JUMPDEST POP PUSH2 0x241 PUSH2 0x548 CALLDATASIZE PUSH1 0x4 PUSH2 0x5107 JUMP JUMPDEST PUSH2 0x1763 JUMP JUMPDEST CALLVALUE DUP1 ISZERO PUSH2 0x559 JUMPI PUSH1 0x0 DUP1 REVERT JUMPDEST POP PUSH2 0x274 PUSH2 0x568 CALLDATASIZE PUSH1 0x4 PUSH2 0x5438 JUMP JUMPDEST PUSH2 0x1785 JUMP JUMPDEST CALLVALUE DUP1 ISZERO PUSH2 0x579 JUMPI PUSH1 0x0 DUP1 REVERT JUMPDEST POP PUSH2 0x308 PUSH2 0x17B0 JUMP JUMPDEST CALLVALUE DUP1 ISZERO PUSH2 0x58E JUMPI PUSH1 0x0 DUP1 REVERT JUMPDEST POP PUSH2 0x2A4 PUSH2 0x59D CALLDATASIZE PUSH1 0x4 PUSH2 0x5107 JUMP JUMPDEST PUSH2 0x17BF JUMP JUMPDEST CALLVALUE DUP1 ISZERO PUSH2 0x5AE JUMPI PUSH1 0x0 DUP1 REVERT JUMPDEST POP PUSH2 0x2A4 PUSH2 0x5BD CALLDATASIZE PUSH1 0x4 PUSH2 0x570B JUMP JUMPDEST PUSH2 0x1A40 JUMP JUMPDEST PUSH2 0x5D5 PUSH2 0x5D0 CALLDATASIZE PUSH1 0x4 PUSH2 0x5739 JUMP JUMPDEST PUSH2 0x1BF4 JUMP JUMPDEST PUSH1 0x40 DUP1 MLOAD SWAP3 DUP4 MSTORE PUSH1 0x20 DUP4 ADD SWAP2 SWAP1 SWAP2 MSTORE ADD PUSH2 0x24B JUMP JUMPDEST CALLVALUE DUP1 ISZERO PUSH2 0x5F6 JUMPI PUSH1 0x0 DUP1 REVERT JUMPDEST POP PUSH2 0x2A4 PUSH2 0x605 CALLDATASIZE PUSH1 0x4 PUSH2 0x57A0 JUMP JUMPDEST PUSH2 0x1E00 JUMP JUMPDEST CALLVALUE DUP1 ISZERO PUSH2 0x616 JUMPI PUSH1 0x0 DUP1 REVERT JUMPDEST POP PUSH2 0x241 PUSH2 0x625 CALLDATASIZE PUSH1 0x4 PUSH2 0x5107 JUMP JUMPDEST PUSH1 0x1 PUSH1 0x1 PUSH1 0xA0 SHL SUB AND PUSH1 0x0 SWAP1 DUP2 MSTORE PUSH1 0x23 PUSH1 0x20 MSTORE PUSH1 0x40 SWAP1 KECCAK256 SLOAD SWAP1 JUMP JUMPDEST CALLVALUE DUP1 ISZERO PUSH2 0x64C JUMPI PUSH1 0x0 DUP1 REVERT JUMPDEST POP PUSH2 0x660 PUSH2 0x65B CALLDATASIZE PUSH1 0x4 PUSH2 0x5107 JUMP JUMPDEST PUSH2 0x1E47 JUMP JUMPDEST PUSH1 0x40 MLOAD PUSH2 0x24B SWAP2 SWAP1 PUSH2 0x57E1 JUMP JUMPDEST CALLVALUE DUP1 ISZERO PUSH2 0x679 JUMPI PUSH1 0x0 DUP1 REVERT JUMPDEST POP PUSH2 0x241 PUSH2 0x688 CALLDATASIZE PUSH1 0x4 PUSH2 0x5198 JUMP JUMPDEST PUSH1 0x0 SWAP1 DUP2 MSTORE PUSH1 0x3 PUSH1 0x20 MSTORE PUSH1 0x40 SWAP1 KECCAK256 SLOAD SWAP1 JUMP JUMPDEST CALLVALUE DUP1 ISZERO PUSH2 0x6A6 JUMPI PUSH1 0x0 DUP1 REVERT JUMPDEST POP PUSH2 0x241 PUSH2 0x6B5 CALLDATASIZE PUSH1 0x4 PUSH2 0x5515 JUMP JUMPDEST PUSH2 0x1F45 JUMP JUMPDEST CALLVALUE DUP1 ISZERO PUSH2 0x6C6 JUMPI PUSH1 0x0 DUP1 REVERT JUMPDEST POP PUSH2 0x241 PUSH2 0x6D5 CALLDATASIZE PUSH1 0x4 PUSH2 0x5198 JUMP JUMPDEST PUSH2 0x2005 JUMP JUMPDEST CALLVALUE DUP1 ISZERO PUSH2 0x6E6 JUMPI PUSH1 0x0 DUP1 REVERT JUMPDEST POP PUSH2 0x660 PUSH2 0x6F5 CALLDATASIZE PUSH1 0x4 PUSH2 0x5198 JUMP JUMPDEST PUSH2 0x201C JUMP JUMPDEST CALLVALUE DUP1 ISZERO PUSH2 0x706 JUMPI PUSH1 0x0 DUP1 REVERT JUMPDEST POP PUSH2 0x241 PUSH1 0x0 DUP2 JUMP JUMPDEST CALLVALUE DUP1 ISZERO PUSH2 0x71B JUMPI PUSH1 0x0 DUP1 REVERT JUMPDEST POP PUSH2 0x2A4 PUSH2 0x72A CALLDATASIZE PUSH1 0x4 PUSH2 0x5438 JUMP JUMPDEST PUSH2 0x2037 JUMP JUMPDEST PUSH2 0x2A4 PUSH2 0x73D CALLDATASIZE PUSH1 0x4 PUSH2 0x54CB JUMP JUMPDEST PUSH2 0x2054 JUMP JUMPDEST CALLVALUE DUP1 ISZERO PUSH2 0x74E JUMPI PUSH1 0x0 DUP1 REVERT JUMPDEST POP PUSH1 0x2B SLOAD PUSH1 0x2C SLOAD PUSH1 0x2D SLOAD PUSH1 0x2E SLOAD PUSH1 0x2F SLOAD PUSH1 0x30 SLOAD PUSH2 0x776 SWAP6 PUSH1 0x1 PUSH1 0x1 PUSH1 0xA0 SHL SUB AND SWAP5 SWAP4 SWAP3 SWAP2 SWAP1 DUP7 JUMP JUMPDEST PUSH1 0x40 DUP1 MLOAD PUSH1 0x1 PUSH1 0x1 PUSH1 0xA0 SHL SUB SWAP1 SWAP8 AND DUP8 MSTORE PUSH1 0x20 DUP8 ADD SWAP6 SWAP1 SWAP6 MSTORE SWAP4 DUP6 ADD SWAP3 SWAP1 SWAP3 MSTORE PUSH1 0x60 DUP5 ADD MSTORE PUSH1 0x80 DUP4 ADD MSTORE PUSH1 0xA0 DUP3 ADD MSTORE PUSH1 0xC0 ADD PUSH2 0x24B JUMP JUMPDEST CALLVALUE DUP1 ISZERO PUSH2 0x7B9 JUMPI PUSH1 0x0 DUP1 REVERT JUMPDEST POP PUSH2 0x274 PUSH2 0x7C8 CALLDATASIZE PUSH1 0x4 PUSH2 0x5863 JUMP JUMPDEST PUSH1 0x1 PUSH1 0x1 PUSH1 0xA0 SHL SUB SWAP2 DUP3 AND PUSH1 0x0 SWAP1 DUP2 MSTORE PUSH1 0x1 PUSH1 0x20 SWAP1 DUP2 MSTORE PUSH1 0x40 DUP1 DUP4 KECCAK256 SWAP4 SWAP1 SWAP5 AND DUP3 MSTORE SWAP2 SWAP1 SWAP2 MSTORE KECCAK256 SLOAD PUSH1 0xFF AND SWAP1 JUMP JUMPDEST CALLVALUE DUP1 ISZERO PUSH2 0x802 JUMPI PUSH1 0x0 DUP1 REVERT JUMPDEST POP PUSH2 0x2A4 PUSH2 0x811 CALLDATASIZE PUSH1 0x4 PUSH2 0x5891 JUMP JUMPDEST PUSH2 0x23AF JUMP JUMPDEST PUSH2 0x2A4 PUSH2 0x824 CALLDATASIZE PUSH1 0x4 PUSH2 0x54CB JUMP JUMPDEST PUSH2 0x23FF JUMP JUMPDEST CALLVALUE DUP1 ISZERO PUSH2 0x835 JUMPI PUSH1 0x0 DUP1 REVERT JUMPDEST POP PUSH2 0x2A4 PUSH2 0x844 CALLDATASIZE PUSH1 0x4 PUSH2 0x58F9 JUMP JUMPDEST PUSH2 0x240B JUMP JUMPDEST PUSH2 0x5D5 PUSH2 0x857 CALLDATASIZE PUSH1 0x4 PUSH2 0x5739 JUMP JUMPDEST PUSH2 0x244E JUMP JUMPDEST PUSH1 0x0 PUSH1 0x1 PUSH1 0x1 PUSH1 0xA0 SHL SUB DUP4 AND PUSH2 0x8CD JUMPI PUSH1 0x40 MLOAD PUSH3 0x461BCD PUSH1 0xE5 SHL DUP2 MSTORE PUSH1 0x20 PUSH1 0x4 DUP3 ADD MSTORE PUSH1 0x2B PUSH1 0x24 DUP3 ADD MSTORE PUSH32 0x455243313135353A2062616C616E636520717565727920666F7220746865207A PUSH1 0x44 DUP3 ADD MSTORE PUSH11 0x65726F2061646472657373 PUSH1 0xA8 SHL PUSH1 0x64 DUP3 ADD MSTORE PUSH1 0x84 ADD JUMPDEST PUSH1 0x40 MLOAD DUP1 SWAP2 SUB SWAP1 REVERT JUMPDEST POP PUSH1 0x0 DUP2 DUP2 MSTORE PUSH1 0x20 DUP2 DUP2 MSTORE PUSH1 0x40 DUP1 DUP4 KECCAK256 PUSH1 0x1 PUSH1 0x1 PUSH1 0xA0 SHL SUB DUP7 AND DUP5 MSTORE SWAP1 SWAP2 MSTORE SWAP1 KECCAK256 SLOAD JUMPDEST SWAP3 SWAP2 POP POP JUMP JUMPDEST PUSH1 0x0 PUSH1 0x1 PUSH1 0x1 PUSH1 0xE0 SHL SUB NOT DUP3 AND PUSH4 0x6CDB3D13 PUSH1 0xE1 SHL EQ DUP1 PUSH2 0x927 JUMPI POP PUSH1 0x1 PUSH1 0x1 PUSH1 0xE0 SHL SUB NOT DUP3 AND PUSH4 0x3A24D07 PUSH1 0xE2 SHL EQ JUMPDEST DUP1 PUSH2 0x8F0 JUMPI POP PUSH2 0x8F0 DUP3 PUSH2 0x2741 JUMP JUMPDEST PUSH1 0x1 PUSH1 0x1 PUSH1 0xA0 SHL SUB DUP2 AND PUSH1 0x0 SWAP1 DUP2 MSTORE PUSH1 0x23 PUSH1 0x20 MSTORE PUSH1 0x40 SWAP1 KECCAK256 SLOAD DUP2 SWAP1 ISZERO DUP1 ISZERO SWAP1 PUSH2 0x96D JUMPI POP PUSH1 0x26 SLOAD PUSH1 0x1 PUSH1 0x1 PUSH1 0xA0 SHL SUB DUP3 DUP2 AND SWAP2 AND EQ ISZERO JUMPDEST PUSH1 0xB SWAP1 PUSH2 0x98D JUMPI PUSH1 0x40 MLOAD PUSH3 0x461BCD PUSH1 0xE5 SHL DUP2 MSTORE PUSH1 0x4 ADD PUSH2 0x8C4 SWAP2 SWAP1 PUSH2 0x5963 JUMP JUMPDEST POP PUSH1 0x1 PUSH1 0x1 PUSH1 0xA0 SHL SUB DUP3 AND PUSH1 0x0 SWAP1 DUP2 MSTORE PUSH1 0x23 PUSH1 0x20 MSTORE PUSH1 0x40 DUP2 KECCAK256 SLOAD SWAP1 PUSH2 0x9B1 DUP5 PUSH2 0x2776 JUMP JUMPDEST PUSH1 0x26 SLOAD SWAP1 SWAP2 POP PUSH1 0x0 SWAP1 PUSH2 0x9CC SWAP1 PUSH1 0x1 PUSH1 0x1 PUSH1 0xA0 SHL SUB AND PUSH2 0x2776 JUMP JUMPDEST SWAP1 POP PUSH1 0x0 PUSH1 0x22 DUP5 DUP2 SLOAD DUP2 LT PUSH2 0x9E3 JUMPI PUSH2 0x9E3 PUSH2 0x59E8 JUMP JUMPDEST PUSH1 0x0 SWAP2 DUP3 MSTORE PUSH1 0x20 SWAP1 SWAP2 KECCAK256 PUSH1 0x2 PUSH1 0x4 SWAP1 SWAP3 MUL ADD ADD SLOAD PUSH2 0xA0A SWAP1 PUSH1 0x1 PUSH1 0x1 PUSH1 0x80 SHL SUB AND DUP5 PUSH2 0x5A14 JUMP JUMPDEST SWAP1 POP DUP1 ISZERO PUSH2 0xA1F JUMPI PUSH2 0xA1F DUP7 CALLER DUP4 PUSH1 0x0 PUSH2 0x2803 JUMP JUMPDEST PUSH1 0x0 PUSH1 0x22 DUP6 DUP2 SLOAD DUP2 LT PUSH2 0xA34 JUMPI PUSH2 0xA34 PUSH2 0x59E8 JUMP JUMPDEST PUSH1 0x0 SWAP2 DUP3 MSTORE PUSH1 0x20 SWAP1 SWAP2 KECCAK256 PUSH1 0x4 SWAP1 SWAP2 MUL ADD PUSH1 0x2 ADD SLOAD PUSH2 0xA62 SWAP1 PUSH1 0x1 PUSH1 0x80 SHL SWAP1 DIV PUSH1 0x1 PUSH1 0x1 PUSH1 0x80 SHL SUB AND DUP5 PUSH2 0x5A14 JUMP JUMPDEST SWAP1 POP DUP1 ISZERO PUSH2 0xA83 JUMPI PUSH1 0x26 SLOAD PUSH2 0xA83 SWAP1 PUSH1 0x1 PUSH1 0x1 PUSH1 0xA0 SHL SUB AND CALLER DUP4 PUSH1 0x0 PUSH2 0x2803 JUMP JUMPDEST POP POP POP POP POP POP POP JUMP JUMPDEST PUSH1 0x0 PUSH2 0xA98 DUP2 CALLER PUSH2 0x2843 JUMP JUMPDEST PUSH1 0x0 JUMPDEST DUP3 DUP2 LT ISZERO PUSH2 0xB03 JUMPI PUSH2 0xAF1 DUP5 DUP5 DUP4 DUP2 DUP2 LT PUSH2 0xAB8 JUMPI PUSH2 0xAB8 PUSH2 0x59E8 JUMP JUMPDEST SWAP1 POP PUSH1 0x40 MUL ADD PUSH1 0x0 ADD CALLDATALOAD DUP6 DUP6 DUP5 DUP2 DUP2 LT PUSH2 0xAD4 JUMPI PUSH2 0xAD4 PUSH2 0x59E8 JUMP JUMPDEST SWAP1 POP PUSH1 0x40 MUL ADD PUSH1 0x20 ADD PUSH1 0x20 DUP2 ADD SWAP1 PUSH2 0xAEC SWAP2 SWAP1 PUSH2 0x5107 JUMP JUMPDEST PUSH2 0x28A7 JUMP JUMPDEST DUP1 PUSH2 0xAFB DUP2 PUSH2 0x5A2B JUMP JUMPDEST SWAP2 POP POP PUSH2 0xA9B JUMP JUMPDEST POP POP POP POP JUMP JUMPDEST PUSH1 0x40 MLOAD PUSH4 0x6FB1A07 PUSH1 0xE0 SHL DUP2 MSTORE PUSH1 0x4 DUP2 ADD DUP3 SWAP1 MSTORE PUSH1 0x0 SWAP1 PUSH20 0xDEF1FAC7BF08F173D286BBBDCBEEADE695129840 SWAP1 PUSH4 0x6FB1A07 SWAP1 PUSH1 0x24 ADD PUSH1 0x20 PUSH1 0x40 MLOAD DUP1 DUP4 SUB DUP2 DUP7 GAS STATICCALL ISZERO DUP1 ISZERO PUSH2 0xB5C JUMPI RETURNDATASIZE PUSH1 0x0 DUP1 RETURNDATACOPY RETURNDATASIZE PUSH1 0x0 REVERT JUMPDEST POP POP POP POP PUSH1 0x40 MLOAD RETURNDATASIZE PUSH1 0x1F NOT PUSH1 0x1F DUP3 ADD AND DUP3 ADD DUP1 PUSH1 0x40 MSTORE POP DUP2 ADD SWAP1 PUSH2 0x8F0 SWAP2 SWAP1 PUSH2 0x5A46 JUMP JUMPDEST PUSH1 0x60 PUSH1 0x6 DUP1 SLOAD PUSH2 0xB8F SWAP1 PUSH2 0x592E JUMP JUMPDEST DUP1 PUSH1 0x1F ADD PUSH1 0x20 DUP1 SWAP2 DIV MUL PUSH1 0x20 ADD PUSH1 0x40 MLOAD SWAP1 DUP2 ADD PUSH1 0x40 MSTORE DUP1 SWAP3 SWAP2 SWAP1 DUP2 DUP2 MSTORE PUSH1 0x20 ADD DUP3 DUP1 SLOAD PUSH2 0xBBB SWAP1 PUSH2 0x592E JUMP JUMPDEST DUP1 ISZERO PUSH2 0xC08 JUMPI DUP1 PUSH1 0x1F LT PUSH2 0xBDD JUMPI PUSH2 0x100 DUP1 DUP4 SLOAD DIV MUL DUP4 MSTORE SWAP2 PUSH1 0x20 ADD SWAP2 PUSH2 0xC08 JUMP JUMPDEST DUP3 ADD SWAP2 SWAP1 PUSH1 0x0 MSTORE PUSH1 0x20 PUSH1 0x0 KECCAK256 SWAP1 JUMPDEST DUP2 SLOAD DUP2 MSTORE SWAP1 PUSH1 0x1 ADD SWAP1 PUSH1 0x20 ADD DUP1 DUP4 GT PUSH2 0xBEB JUMPI DUP3 SWAP1 SUB PUSH1 0x1F AND DUP3 ADD SWAP2 JUMPDEST POP POP POP POP POP SWAP1 POP SWAP1 JUMP JUMPDEST PUSH1 0x0 PUSH2 0xC1E DUP2 CALLER PUSH2 0x2843 JUMP JUMPDEST DUP2 PUSH1 0x40 ADD CALLDATALOAD PUSH1 0x0 LT DUP1 ISZERO PUSH2 0xC39 JUMPI POP DUP2 PUSH1 0x60 ADD CALLDATALOAD DUP3 PUSH1 0x40 ADD CALLDATALOAD LT JUMPDEST DUP1 ISZERO PUSH2 0xC4A JUMPI POP PUSH2 0x1F4 DUP3 PUSH1 0x60 ADD CALLDATALOAD LT JUMPDEST PUSH1 0x20 SWAP1 PUSH2 0xC6A JUMPI PUSH1 0x40 MLOAD PUSH3 0x461BCD PUSH1 0xE5 SHL DUP2 MSTORE PUSH1 0x4 ADD PUSH2 0x8C4 SWAP2 SWAP1 PUSH2 0x5963 JUMP JUMPDEST POP PUSH1 0x21 PUSH1 0xA0 DUP4 ADD CALLDATALOAD PUSH1 0x80 DUP5 ADD CALLDATALOAD LT PUSH2 0xC95 JUMPI PUSH1 0x40 MLOAD PUSH3 0x461BCD PUSH1 0xE5 SHL DUP2 MSTORE PUSH1 0x4 ADD PUSH2 0x8C4 SWAP2 SWAP1 PUSH2 0x5963 JUMP JUMPDEST POP DUP2 PUSH1 0x2B PUSH2 0xB03 DUP3 DUP3 PUSH2 0x5A63 JUMP JUMPDEST PUSH1 0x60 PUSH1 0x8 DUP3 PUSH1 0x40 MLOAD PUSH1 0x20 ADD PUSH2 0xCB9 SWAP3 SWAP2 SWAP1 PUSH2 0x5AC0 JUMP JUMPDEST PUSH1 0x40 MLOAD PUSH1 0x20 DUP2 DUP4 SUB SUB DUP2 MSTORE SWAP1 PUSH1 0x40 MSTORE SWAP1 POP SWAP2 SWAP1 POP JUMP JUMPDEST PUSH1 0x0 DUP1 PUSH1 0x0 JUMPDEST PUSH1 0x0 PUSH1 0x3 DUP2 PUSH2 0xCE3 DUP6 PUSH2 0x5A2B JUMP JUMPDEST SWAP5 POP DUP5 DUP2 MSTORE PUSH1 0x20 ADD SWAP1 DUP2 MSTORE PUSH1 0x20 ADD PUSH1 0x0 KECCAK256 SLOAD GT ISZERO PUSH2 0x8F0 JUMPI PUSH1 0x0 DUP3 DUP2 MSTORE PUSH1 0x3 PUSH1 0x20 MSTORE PUSH1 0x40 SWAP1 KECCAK256 SLOAD PUSH2 0xD14 SWAP1 DUP3 PUSH2 0x5B45 JUMP JUMPDEST SWAP1 POP PUSH2 0xCD5 JUMP JUMPDEST PUSH1 0x0 SWAP1 DUP2 MSTORE PUSH1 0x4 PUSH1 0x20 MSTORE PUSH1 0x40 SWAP1 KECCAK256 PUSH1 0x1 ADD SLOAD SWAP1 JUMP JUMPDEST PUSH1 0x1 PUSH1 0x1 PUSH1 0xA0 SHL SUB DUP6 AND CALLER EQ DUP1 PUSH2 0xD4C JUMPI POP PUSH2 0xD4C DUP6 CALLER PUSH2 0x7C8 JUMP JUMPDEST PUSH2 0xDB3 JUMPI PUSH1 0x40 MLOAD PUSH3 0x461BCD PUSH1 0xE5 SHL DUP2 MSTORE PUSH1 0x20 PUSH1 0x4 DUP3 ADD MSTORE PUSH1 0x32 PUSH1 0x24 DUP3 ADD MSTORE PUSH32 0x455243313135353A207472616E736665722063616C6C6572206973206E6F7420 PUSH1 0x44 DUP3 ADD MSTORE PUSH18 0x1BDDDB995C881B9BDC88185C1C1C9BDD9959 PUSH1 0x72 SHL PUSH1 0x64 DUP3 ADD MSTORE PUSH1 0x84 ADD PUSH2 0x8C4 JUMP JUMPDEST PUSH2 0xDBE ADDRESS DUP7 DUP7 PUSH2 0x28B1 JUMP JUMPDEST PUSH2 0xDCB DUP6 DUP6 DUP6 DUP6 DUP6 PUSH2 0x2A44 JUMP JUMPDEST POP POP POP POP POP JUMP JUMPDEST PUSH2 0xDDB DUP3 PUSH2 0xD1B JUMP JUMPDEST PUSH2 0xDE5 DUP2 CALLER PUSH2 0x2843 JUMP JUMPDEST PUSH2 0xDEF DUP4 DUP4 PUSH2 0x2BE6 JUMP JUMPDEST POP POP POP JUMP JUMPDEST PUSH1 0x1 PUSH1 0x1 PUSH1 0xA0 SHL SUB DUP2 AND CALLER EQ PUSH2 0xE64 JUMPI PUSH1 0x40 MLOAD PUSH3 0x461BCD PUSH1 0xE5 SHL DUP2 MSTORE PUSH1 0x20 PUSH1 0x4 DUP3 ADD MSTORE PUSH1 0x2F PUSH1 0x24 DUP3 ADD MSTORE PUSH32 0x416363657373436F6E74726F6C3A2063616E206F6E6C792072656E6F756E6365 PUSH1 0x44 DUP3 ADD MSTORE PUSH15 0x103937B632B9903337B91039B2B633 PUSH1 0x89 SHL PUSH1 0x64 DUP3 ADD MSTORE PUSH1 0x84 ADD PUSH2 0x8C4 JUMP JUMPDEST PUSH2 0xE6E DUP3 DUP3 PUSH2 0x2C08 JUMP JUMPDEST POP POP JUMP JUMPDEST PUSH1 0x0 PUSH2 0xE7E DUP2 CALLER PUSH2 0x2843 JUMP JUMPDEST DUP3 MLOAD PUSH2 0xE91 SWAP1 PUSH1 0x6 SWAP1 PUSH1 0x20 DUP7 ADD SWAP1 PUSH2 0x4F07 JUMP JUMPDEST POP DUP2 MLOAD PUSH2 0xB03 SWAP1 PUSH1 0x7 SWAP1 PUSH1 0x20 DUP6 ADD SWAP1 PUSH2 0x4F07 JUMP JUMPDEST PUSH1 0x1 PUSH1 0x1 PUSH1 0xA0 SHL SUB DUP5 AND PUSH1 0x0 SWAP1 DUP2 MSTORE PUSH1 0x23 PUSH1 0x20 MSTORE PUSH1 0x40 SWAP1 KECCAK256 SLOAD DUP5 SWAP1 ISZERO DUP1 ISZERO SWAP1 PUSH2 0xEDC JUMPI POP PUSH1 0x26 SLOAD PUSH1 0x1 PUSH1 0x1 PUSH1 0xA0 SHL SUB DUP3 DUP2 AND SWAP2 AND EQ ISZERO JUMPDEST PUSH1 0xB SWAP1 PUSH2 0xEFC JUMPI PUSH1 0x40 MLOAD PUSH3 0x461BCD PUSH1 0xE5 SHL DUP2 MSTORE PUSH1 0x4 ADD PUSH2 0x8C4 SWAP2 SWAP1 PUSH2 0x5963 JUMP JUMPDEST POP DUP3 PUSH1 0xC TIMESTAMP DUP3 LT ISZERO PUSH2 0xF21 JUMPI PUSH1 0x40 MLOAD PUSH3 0x461BCD PUSH1 0xE5 SHL DUP2 MSTORE PUSH1 0x4 ADD PUSH2 0x8C4 SWAP2 SWAP1 PUSH2 0x5963 JUMP JUMPDEST POP PUSH1 0x1 PUSH1 0x1 PUSH1 0xA0 SHL SUB DUP7 AND PUSH1 0x0 SWAP1 DUP2 MSTORE PUSH1 0x23 PUSH1 0x20 MSTORE PUSH1 0x40 SWAP1 KECCAK256 SLOAD PUSH2 0xF46 DUP8 CALLER DUP9 PUSH2 0x2C2A JUMP JUMPDEST PUSH1 0x0 PUSH2 0xF51 DUP9 PUSH2 0x2776 JUMP JUMPDEST SWAP1 POP PUSH1 0x22 DUP3 DUP2 SLOAD DUP2 LT PUSH2 0xF66 JUMPI PUSH2 0xF66 PUSH2 0x59E8 JUMP JUMPDEST PUSH1 0x0 SWAP2 DUP3 MSTORE PUSH1 0x20 SWAP1 SWAP2 KECCAK256 PUSH1 0x2 PUSH1 0x4 SWAP1 SWAP3 MUL ADD ADD SLOAD PUSH2 0xF8D SWAP1 PUSH1 0x1 PUSH1 0x1 PUSH1 0x80 SHL SUB AND DUP3 PUSH2 0x5A14 JUMP JUMPDEST SWAP7 POP PUSH1 0xE DUP8 PUSH2 0xFAF JUMPI PUSH1 0x40 MLOAD PUSH3 0x461BCD PUSH1 0xE5 SHL DUP2 MSTORE PUSH1 0x4 ADD PUSH2 0x8C4 SWAP2 SWAP1 PUSH2 0x5963 JUMP JUMPDEST POP PUSH1 0x26 SLOAD PUSH1 0x0 SWAP1 PUSH2 0xFC8 SWAP1 PUSH1 0x1 PUSH1 0x1 PUSH1 0xA0 SHL SUB AND PUSH2 0x2776 JUMP JUMPDEST SWAP1 POP PUSH1 0x0 PUSH1 0x24 SLOAD DUP3 PUSH2 0xFDA SWAP2 SWAP1 PUSH2 0x5A14 JUMP JUMPDEST SWAP1 POP PUSH1 0x0 PUSH2 0x1061 PUSH1 0x22 DUP7 DUP2 SLOAD DUP2 LT PUSH2 0xFF4 JUMPI PUSH2 0xFF4 PUSH2 0x59E8 JUMP JUMPDEST SWAP1 PUSH1 0x0 MSTORE PUSH1 0x20 PUSH1 0x0 KECCAK256 SWAP1 PUSH1 0x4 MUL ADD PUSH1 0x2 ADD PUSH1 0x10 SWAP1 SLOAD SWAP1 PUSH2 0x100 EXP SWAP1 DIV PUSH1 0x1 PUSH1 0x1 PUSH1 0x80 SHL SUB AND PUSH1 0x1 PUSH1 0x1 PUSH1 0x80 SHL SUB AND PUSH1 0x22 DUP8 DUP2 SLOAD DUP2 LT PUSH2 0x1035 JUMPI PUSH2 0x1035 PUSH2 0x59E8 JUMP JUMPDEST PUSH1 0x0 SWAP2 DUP3 MSTORE PUSH1 0x20 SWAP1 SWAP2 KECCAK256 PUSH1 0x2 PUSH1 0x4 SWAP1 SWAP3 MUL ADD ADD SLOAD PUSH2 0x105C SWAP2 SWAP1 PUSH1 0x1 PUSH1 0x1 PUSH1 0x80 SHL SUB AND PUSH2 0x5B5D JUMP JUMPDEST PUSH2 0x2CE1 JUMP JUMPDEST SWAP1 POP PUSH1 0x0 PUSH2 0x10AF PUSH1 0x22 DUP8 DUP2 SLOAD DUP2 LT PUSH2 0x107B JUMPI PUSH2 0x107B PUSH2 0x59E8 JUMP JUMPDEST PUSH1 0x0 SWAP2 DUP3 MSTORE PUSH1 0x20 DUP1 DUP4 KECCAK256 PUSH1 0x3 PUSH1 0x4 SWAP1 SWAP4 MUL ADD DUP3 ADD SLOAD DUP11 DUP5 MSTORE SWAP2 SWAP1 MSTORE PUSH1 0x40 SWAP1 SWAP2 KECCAK256 SLOAD PUSH1 0x1 PUSH1 0x1 PUSH1 0x80 SHL SUB SWAP1 SWAP2 AND SWAP1 DUP5 SWAP1 PUSH2 0x2D3A JUMP JUMPDEST SWAP1 POP DUP1 ISZERO PUSH2 0x10E0 JUMPI PUSH1 0x2A SLOAD PUSH1 0x40 DUP1 MLOAD PUSH1 0x20 DUP2 ADD SWAP1 SWAP2 MSTORE PUSH1 0x0 DUP2 MSTORE PUSH2 0x10E0 SWAP2 PUSH1 0x1 PUSH1 0x1 PUSH1 0xA0 SHL SUB AND SWAP1 DUP9 SWAP1 DUP5 SWAP1 PUSH2 0x2DB0 JUMP JUMPDEST POP POP PUSH1 0x0 PUSH1 0x22 DUP6 DUP2 SLOAD DUP2 LT PUSH2 0x10F7 JUMPI PUSH2 0x10F7 PUSH2 0x59E8 JUMP JUMPDEST PUSH1 0x0 SWAP2 DUP3 MSTORE PUSH1 0x20 DUP1 DUP4 KECCAK256 PUSH1 0x2 PUSH1 0x4 SWAP1 SWAP4 MUL ADD SWAP2 SWAP1 SWAP2 ADD SLOAD DUP8 DUP4 MSTORE PUSH1 0x3 SWAP1 SWAP2 MSTORE PUSH1 0x40 SWAP1 SWAP2 KECCAK256 SLOAD PUSH1 0x1 PUSH1 0x1 PUSH1 0x80 SHL SUB SWAP1 SWAP2 AND SWAP1 PUSH2 0x1132 SWAP1 DUP13 PUSH2 0x5B5D JUMP JUMPDEST PUSH2 0x113C SWAP2 SWAP1 PUSH2 0x5B92 JUMP JUMPDEST SWAP1 POP PUSH2 0x1159 DUP9 DUP7 DUP4 PUSH1 0x40 MLOAD DUP1 PUSH1 0x20 ADD PUSH1 0x40 MSTORE DUP1 PUSH1 0x0 DUP2 MSTORE POP PUSH2 0x2DB0 JUMP JUMPDEST PUSH1 0x0 PUSH1 0x22 DUP7 DUP2 SLOAD DUP2 LT PUSH2 0x116E JUMPI PUSH2 0x116E PUSH2 0x59E8 JUMP JUMPDEST PUSH1 0x0 SWAP2 DUP3 MSTORE PUSH1 0x20 SWAP1 SWAP2 KECCAK256 PUSH1 0x2 PUSH1 0x4 SWAP1 SWAP3 MUL ADD ADD SLOAD PUSH1 0x22 DUP1 SLOAD PUSH1 0x1 PUSH1 0x1 PUSH1 0x80 SHL SUB SWAP1 SWAP3 AND SWAP2 DUP9 SWAP1 DUP2 LT PUSH2 0x11A2 JUMPI PUSH2 0x11A2 PUSH2 0x59E8 JUMP JUMPDEST PUSH1 0x0 SWAP2 DUP3 MSTORE PUSH1 0x20 SWAP1 SWAP2 KECCAK256 PUSH1 0x4 SWAP1 SWAP2 MUL ADD PUSH1 0x2 ADD SLOAD PUSH2 0x11D0 SWAP1 PUSH1 0x1 PUSH1 0x80 SHL SWAP1 DIV PUSH1 0x1 PUSH1 0x1 PUSH1 0x80 SHL SUB AND DUP14 PUSH2 0x5B5D JUMP JUMPDEST PUSH2 0x11DA SWAP2 SWAP1 PUSH2 0x5B92 JUMP JUMPDEST SWAP1 POP PUSH1 0x1D DUP2 PUSH2 0x11FC JUMPI PUSH1 0x40 MLOAD PUSH3 0x461BCD PUSH1 0xE5 SHL DUP2 MSTORE PUSH1 0x4 ADD PUSH2 0x8C4 SWAP2 SWAP1 PUSH2 0x5963 JUMP JUMPDEST POP PUSH1 0x26 SLOAD PUSH1 0x40 MLOAD PUSH4 0xBB9FF5D PUSH1 0xE0 SHL DUP2 MSTORE PUSH1 0x1 PUSH1 0x1 PUSH1 0xA0 SHL SUB SWAP1 SWAP2 AND SWAP1 PUSH4 0xBB9FF5D SWAP1 PUSH2 0x122F SWAP1 ADDRESS SWAP1 DUP6 SWAP1 PUSH1 0x4 ADD PUSH2 0x5BA6 JUMP JUMPDEST PUSH1 0x0 PUSH1 0x40 MLOAD DUP1 DUP4 SUB DUP2 PUSH1 0x0 DUP8 DUP1 EXTCODESIZE ISZERO DUP1 ISZERO PUSH2 0x1249 JUMPI PUSH1 0x0 DUP1 REVERT JUMPDEST POP GAS CALL ISZERO DUP1 ISZERO PUSH2 0x125D JUMPI RETURNDATASIZE PUSH1 0x0 DUP1 RETURNDATACOPY RETURNDATASIZE PUSH1 0x0 REVERT JUMPDEST POP POP POP POP DUP1 DUP4 PUSH1 0x24 SLOAD PUSH2 0x1270 SWAP2 SWAP1 PUSH2 0x5B45 JUMP JUMPDEST PUSH2 0x127A SWAP2 SWAP1 PUSH2 0x5B45 JUMP JUMPDEST PUSH1 0x24 DUP2 SWAP1 SSTORE POP DUP11 PUSH1 0x22 DUP8 DUP2 SLOAD DUP2 LT PUSH2 0x1294 JUMPI PUSH2 0x1294 PUSH2 0x59E8 JUMP JUMPDEST PUSH1 0x0 SWAP2 DUP3 MSTORE PUSH1 0x20 SWAP1 SWAP2 KECCAK256 PUSH1 0x2 PUSH1 0x4 SWAP1 SWAP3 MUL ADD ADD SLOAD PUSH2 0x12BB SWAP2 SWAP1 PUSH1 0x1 PUSH1 0x1 PUSH1 0x80 SHL SUB AND PUSH2 0x5BBF JUMP JUMPDEST PUSH1 0x22 DUP8 DUP2 SLOAD DUP2 LT PUSH2 0x12CE JUMPI PUSH2 0x12CE PUSH2 0x59E8 JUMP JUMPDEST PUSH1 0x0 SWAP2 DUP3 MSTORE PUSH1 0x20 SWAP1 SWAP2 KECCAK256 PUSH1 0x4 SWAP1 SWAP2 MUL ADD PUSH1 0x2 ADD DUP1 SLOAD PUSH1 0x1 PUSH1 0x1 PUSH1 0x80 SHL SUB NOT AND PUSH1 0x1 PUSH1 0x1 PUSH1 0x80 SHL SUB SWAP3 SWAP1 SWAP3 AND SWAP2 SWAP1 SWAP2 OR SWAP1 SSTORE PUSH2 0x1309 DUP2 DUP5 PUSH2 0x5B45 JUMP JUMPDEST PUSH1 0x22 DUP8 DUP2 SLOAD DUP2 LT PUSH2 0x131C JUMPI PUSH2 0x131C PUSH2 0x59E8 JUMP JUMPDEST SWAP1 PUSH1 0x0 MSTORE PUSH1 0x20 PUSH1 0x0 KECCAK256 SWAP1 PUSH1 0x4 MUL ADD PUSH1 0x2 ADD PUSH1 0x10 SWAP1 SLOAD SWAP1 PUSH2 0x100 EXP SWAP1 DIV PUSH1 0x1 PUSH1 0x1 PUSH1 0x80 SHL SUB AND PUSH2 0x134B SWAP2 SWAP1 PUSH2 0x5BBF JUMP JUMPDEST PUSH1 0x22 DUP8 DUP2 SLOAD DUP2 LT PUSH2 0x135E JUMPI PUSH2 0x135E PUSH2 0x59E8 JUMP JUMPDEST SWAP1 PUSH1 0x0 MSTORE PUSH1 0x20 PUSH1 0x0 KECCAK256 SWAP1 PUSH1 0x4 MUL ADD PUSH1 0x2 ADD PUSH1 0x10 PUSH2 0x100 EXP DUP2 SLOAD DUP2 PUSH1 0x1 PUSH1 0x1 PUSH1 0x80 SHL SUB MUL NOT AND SWAP1 DUP4 PUSH1 0x1 PUSH1 0x1 PUSH1 0x80 SHL SUB AND MUL OR SWAP1 SSTORE POP PUSH2 0x13EA PUSH1 0x22 DUP8 DUP2 SLOAD DUP2 LT PUSH2 0x13A9 JUMPI PUSH2 0x13A9 PUSH2 0x59E8 JUMP JUMPDEST SWAP1 PUSH1 0x0 MSTORE PUSH1 0x20 PUSH1 0x0 KECCAK256 SWAP1 PUSH1 0x4 MUL ADD PUSH1 0x2 ADD PUSH1 0x10 SWAP1 SLOAD SWAP1 PUSH2 0x100 EXP SWAP1 DIV PUSH1 0x1 PUSH1 0x1 PUSH1 0x80 SHL SUB AND PUSH1 0x1 PUSH1 0x1 PUSH1 0x80 SHL SUB AND PUSH1 0x22 DUP9 DUP2 SLOAD DUP2 LT PUSH2 0x1035 JUMPI PUSH2 0x1035 PUSH2 0x59E8 JUMP JUMPDEST PUSH1 0x22 DUP8 DUP2 SLOAD DUP2 LT PUSH2 0x13FD JUMPI PUSH2 0x13FD PUSH2 0x59E8 JUMP JUMPDEST SWAP1 PUSH1 0x0 MSTORE PUSH1 0x20 PUSH1 0x0 KECCAK256 SWAP1 PUSH1 0x4 MUL ADD PUSH1 0x3 ADD PUSH1 0x0 PUSH2 0x100 EXP DUP2 SLOAD DUP2 PUSH1 0x1 PUSH1 0x1 PUSH1 0x80 SHL SUB MUL NOT AND SWAP1 DUP4 PUSH1 0x1 PUSH1 0x1 PUSH1 0x80 SHL SUB AND MUL OR SWAP1 SSTORE POP PUSH32 0x64B83944E79C3CE8D4C297411DE637C3E102D064677AAC0C163976EBDCD6F50E DUP13 DUP13 DUP4 DUP6 PUSH1 0x40 MLOAD PUSH2 0x1467 SWAP5 SWAP4 SWAP3 SWAP2 SWAP1 PUSH2 0x5BEA JUMP JUMPDEST PUSH1 0x40 MLOAD DUP1 SWAP2 SUB SWAP1 LOG1 POP POP POP POP POP POP POP POP POP POP POP POP JUMP JUMPDEST PUSH1 0x26 SLOAD PUSH1 0x0 SWAP1 PUSH1 0x1 PUSH1 0x1 PUSH1 0xA0 SHL SUB DUP6 DUP2 AND SWAP2 AND EQ DUP1 ISZERO SWAP1 PUSH2 0x14AB JUMPI POP PUSH1 0x26 SLOAD PUSH1 0x1 PUSH1 0x1 PUSH1 0xA0 SHL SUB DUP5 DUP2 AND SWAP2 AND EQ JUMPDEST ISZERO PUSH2 0x14C1 JUMPI PUSH2 0x14BA DUP5 DUP4 PUSH2 0x2EAE JUMP JUMPDEST SWAP1 POP PUSH2 0x1548 JUMP JUMPDEST PUSH1 0x26 SLOAD PUSH1 0x1 PUSH1 0x1 PUSH1 0xA0 SHL SUB DUP6 DUP2 AND SWAP2 AND EQ DUP1 ISZERO PUSH2 0x14EC JUMPI POP PUSH1 0x26 SLOAD PUSH1 0x1 PUSH1 0x1 PUSH1 0xA0 SHL SUB DUP5 DUP2 AND SWAP2 AND EQ ISZERO JUMPDEST ISZERO PUSH2 0x14FB JUMPI PUSH2 0x14BA DUP4 DUP4 PUSH2 0x2FAA JUMP JUMPDEST PUSH1 0x26 SLOAD PUSH1 0x1 PUSH1 0x1 PUSH1 0xA0 SHL SUB DUP6 DUP2 AND SWAP2 AND EQ DUP1 ISZERO SWAP1 PUSH2 0x1527 JUMPI POP PUSH1 0x26 SLOAD PUSH1 0x1 PUSH1 0x1 PUSH1 0xA0 SHL SUB DUP6 DUP2 AND SWAP2 AND EQ ISZERO JUMPDEST ISZERO PUSH2 0x1548 JUMPI PUSH1 0x0 PUSH2 0x1538 DUP6 DUP5 PUSH2 0x2EAE JUMP JUMPDEST SWAP1 POP PUSH2 0x1544 DUP5 DUP3 PUSH2 0x2FAA JUMP JUMPDEST SWAP2 POP POP JUMPDEST SWAP4 SWAP3 POP POP POP JUMP JUMPDEST PUSH1 0x60 DUP2 MLOAD DUP4 MLOAD EQ PUSH2 0x15B4 JUMPI PUSH1 0x40 MLOAD PUSH3 0x461BCD PUSH1 0xE5 SHL DUP2 MSTORE PUSH1 0x20 PUSH1 0x4 DUP3 ADD MSTORE PUSH1 0x29 PUSH1 0x24 DUP3 ADD MSTORE PUSH32 0x455243313135353A206163636F756E747320616E6420696473206C656E677468 PUSH1 0x44 DUP3 ADD MSTORE PUSH9 0x40DAD2E6DAC2E8C6D PUSH1 0xBB SHL PUSH1 0x64 DUP3 ADD MSTORE PUSH1 0x84 ADD PUSH2 0x8C4 JUMP JUMPDEST PUSH1 0x0 DUP4 MLOAD PUSH1 0x1 PUSH1 0x1 PUSH1 0x40 SHL SUB DUP2 GT ISZERO PUSH2 0x15CF JUMPI PUSH2 0x15CF PUSH2 0x5242 JUMP JUMPDEST PUSH1 0x40 MLOAD SWAP1 DUP1 DUP3 MSTORE DUP1 PUSH1 0x20 MUL PUSH1 0x20 ADD DUP3 ADD PUSH1 0x40 MSTORE DUP1 ISZERO PUSH2 0x15F8 JUMPI DUP2 PUSH1 0x20 ADD PUSH1 0x20 DUP3 MUL DUP1 CALLDATASIZE DUP4 CALLDATACOPY ADD SWAP1 POP JUMPDEST POP SWAP1 POP PUSH1 0x0 JUMPDEST DUP5 MLOAD DUP2 LT ISZERO PUSH2 0x1670 JUMPI PUSH2 0x1643 DUP6 DUP3 DUP2 MLOAD DUP2 LT PUSH2 0x161C JUMPI PUSH2 0x161C PUSH2 0x59E8 JUMP JUMPDEST PUSH1 0x20 MUL PUSH1 0x20 ADD ADD MLOAD DUP6 DUP4 DUP2 MLOAD DUP2 LT PUSH2 0x1636 JUMPI PUSH2 0x1636 PUSH2 0x59E8 JUMP JUMPDEST PUSH1 0x20 MUL PUSH1 0x20 ADD ADD MLOAD PUSH2 0x85C JUMP JUMPDEST DUP3 DUP3 DUP2 MLOAD DUP2 LT PUSH2 0x1655 JUMPI PUSH2 0x1655 PUSH2 0x59E8 JUMP JUMPDEST PUSH1 0x20 SWAP1 DUP2 MUL SWAP2 SWAP1 SWAP2 ADD ADD MSTORE PUSH2 0x1669 DUP2 PUSH2 0x5A2B JUMP JUMPDEST SWAP1 POP PUSH2 0x15FE JUMP JUMPDEST POP SWAP4 SWAP3 POP POP POP JUMP JUMPDEST PUSH1 0x1 PUSH1 0x1 PUSH1 0xA0 SHL SUB DUP4 AND CALLER EQ DUP1 PUSH2 0x1694 JUMPI POP PUSH2 0x1694 DUP4 CALLER PUSH2 0x7C8 JUMP JUMPDEST PUSH2 0x16B0 JUMPI PUSH1 0x40 MLOAD PUSH3 0x461BCD PUSH1 0xE5 SHL DUP2 MSTORE PUSH1 0x4 ADD PUSH2 0x8C4 SWAP1 PUSH2 0x5C10 JUMP JUMPDEST PUSH2 0xDEF DUP4 DUP4 DUP4 PUSH2 0x309C JUMP JUMPDEST PUSH1 0x1 PUSH1 0x1 PUSH1 0xA0 SHL SUB DUP5 AND PUSH1 0x0 SWAP1 DUP2 MSTORE PUSH1 0x23 PUSH1 0x20 MSTORE PUSH1 0x40 SWAP1 KECCAK256 SLOAD DUP5 SWAP1 ISZERO DUP1 ISZERO SWAP1 PUSH2 0x16F2 JUMPI POP PUSH1 0x26 SLOAD PUSH1 0x1 PUSH1 0x1 PUSH1 0xA0 SHL SUB DUP3 DUP2 AND SWAP2 AND EQ ISZERO JUMPDEST PUSH1 0xB SWAP1 PUSH2 0x1712 JUMPI PUSH1 0x40 MLOAD PUSH3 0x461BCD PUSH1 0xE5 SHL DUP2 MSTORE PUSH1 0x4 ADD PUSH2 0x8C4 SWAP2 SWAP1 PUSH2 0x5963 JUMP JUMPDEST POP DUP3 PUSH1 0xC TIMESTAMP DUP3 LT ISZERO PUSH2 0x1737 JUMPI PUSH1 0x40 MLOAD PUSH3 0x461BCD PUSH1 0xE5 SHL DUP2 MSTORE PUSH1 0x4 ADD PUSH2 0x8C4 SWAP2 SWAP1 PUSH2 0x5963 JUMP JUMPDEST POP PUSH2 0x1743 DUP7 DUP7 DUP6 PUSH2 0x322A JUMP JUMPDEST POP POP POP POP POP POP JUMP JUMPDEST PUSH1 0x0 DUP3 DUP2 MSTORE PUSH1 0x5 PUSH1 0x20 MSTORE PUSH1 0x40 DUP2 KECCAK256 PUSH2 0x1548 SWAP1 DUP4 PUSH2 0x36FA JUMP JUMPDEST PUSH1 0x1 PUSH1 0x1 PUSH1 0xA0 SHL SUB DUP2 AND PUSH1 0x0 SWAP1 DUP2 MSTORE PUSH1 0x23 PUSH1 0x20 MSTORE PUSH1 0x40 DUP2 KECCAK256 SLOAD PUSH2 0x8F0 SWAP1 PUSH2 0x3706 JUMP JUMPDEST PUSH1 0x0 SWAP2 DUP3 MSTORE PUSH1 0x4 PUSH1 0x20 SWAP1 DUP2 MSTORE PUSH1 0x40 DUP1 DUP5 KECCAK256 PUSH1 0x1 PUSH1 0x1 PUSH1 0xA0 SHL SUB SWAP4 SWAP1 SWAP4 AND DUP5 MSTORE SWAP2 SWAP1 MSTORE SWAP1 KECCAK256 SLOAD PUSH1 0xFF AND SWAP1 JUMP JUMPDEST PUSH1 0x60 PUSH1 0x7 DUP1 SLOAD PUSH2 0xB8F SWAP1 PUSH2 0x592E JUMP JUMPDEST PUSH1 0x1 PUSH1 0x1 PUSH1 0xA0 SHL SUB DUP2 AND PUSH1 0x0 SWAP1 DUP2 MSTORE PUSH1 0x23 PUSH1 0x20 MSTORE PUSH1 0x40 SWAP1 KECCAK256 SLOAD DUP2 SWAP1 ISZERO DUP1 ISZERO SWAP1 PUSH2 0x17F6 JUMPI POP PUSH1 0x26 SLOAD PUSH1 0x1 PUSH1 0x1 PUSH1 0xA0 SHL SUB DUP3 DUP2 AND SWAP2 AND EQ ISZERO JUMPDEST PUSH1 0xB SWAP1 PUSH2 0x1816 JUMPI PUSH1 0x40 MLOAD PUSH3 0x461BCD PUSH1 0xE5 SHL DUP2 MSTORE PUSH1 0x4 ADD PUSH2 0x8C4 SWAP2 SWAP1 PUSH2 0x5963 JUMP JUMPDEST POP PUSH1 0x1 PUSH1 0x1 PUSH1 0xA0 SHL SUB DUP3 AND PUSH1 0x0 SWAP1 DUP2 MSTORE PUSH1 0x23 PUSH1 0x20 MSTORE PUSH1 0x40 SWAP1 KECCAK256 SLOAD PUSH2 0x1839 DUP4 PUSH2 0x2776 JUMP JUMPDEST PUSH1 0x22 DUP3 DUP2 SLOAD DUP2 LT PUSH2 0x184C JUMPI PUSH2 0x184C PUSH2 0x59E8 JUMP JUMPDEST PUSH1 0x0 SWAP2 DUP3 MSTORE PUSH1 0x20 DUP3 KECCAK256 PUSH1 0x4 SWAP2 SWAP1 SWAP2 MUL ADD PUSH1 0x2 ADD DUP1 SLOAD PUSH1 0x1 PUSH1 0x1 PUSH1 0x80 SHL SUB NOT AND PUSH1 0x1 PUSH1 0x1 PUSH1 0x80 SHL SUB SWAP4 SWAP1 SWAP4 AND SWAP3 SWAP1 SWAP3 OR SWAP1 SWAP2 SSTORE PUSH1 0x26 SLOAD PUSH2 0x1893 SWAP1 PUSH1 0x1 PUSH1 0x1 PUSH1 0xA0 SHL SUB AND PUSH2 0x2776 JUMP JUMPDEST SWAP1 POP PUSH1 0x24 SLOAD DUP2 GT PUSH2 0x18F3 JUMPI DUP1 PUSH1 0x24 SLOAD PUSH2 0x18AC SWAP2 SWAP1 PUSH2 0x5A14 JUMP JUMPDEST PUSH1 0x22 DUP4 DUP2 SLOAD DUP2 LT PUSH2 0x18BF JUMPI PUSH2 0x18BF PUSH2 0x59E8 JUMP JUMPDEST SWAP1 PUSH1 0x0 MSTORE PUSH1 0x20 PUSH1 0x0 KECCAK256 SWAP1 PUSH1 0x4 MUL ADD PUSH1 0x2 ADD PUSH1 0x10 SWAP1 SLOAD SWAP1 PUSH2 0x100 EXP SWAP1 DIV PUSH1 0x1 PUSH1 0x1 PUSH1 0x80 SHL SUB AND PUSH2 0x18EE SWAP2 SWAP1 PUSH2 0x5C59 JUMP JUMPDEST PUSH2 0x1942 JUMP JUMPDEST PUSH1 0x24 SLOAD PUSH2 0x1900 SWAP1 DUP3 PUSH2 0x5A14 JUMP JUMPDEST PUSH1 0x22 DUP4 DUP2 SLOAD DUP2 LT PUSH2 0x1913 JUMPI PUSH2 0x1913 PUSH2 0x59E8 JUMP JUMPDEST SWAP1 PUSH1 0x0 MSTORE PUSH1 0x20 PUSH1 0x0 KECCAK256 SWAP1 PUSH1 0x4 MUL ADD PUSH1 0x2 ADD PUSH1 0x10 SWAP1 SLOAD SWAP1 PUSH2 0x100 EXP SWAP1 DIV PUSH1 0x1 PUSH1 0x1 PUSH1 0x80 SHL SUB AND PUSH2 0x1942 SWAP2 SWAP1 PUSH2 0x5BBF JUMP JUMPDEST PUSH1 0x22 DUP4 DUP2 SLOAD DUP2 LT PUSH2 0x1955 JUMPI PUSH2 0x1955 PUSH2 0x59E8 JUMP JUMPDEST SWAP1 PUSH1 0x0 MSTORE PUSH1 0x20 PUSH1 0x0 KECCAK256 SWAP1 PUSH1 0x4 MUL ADD PUSH1 0x2 ADD PUSH1 0x10 PUSH2 0x100 EXP DUP2 SLOAD DUP2 PUSH1 0x1 PUSH1 0x1 PUSH1 0x80 SHL SUB MUL NOT AND SWAP1 DUP4 PUSH1 0x1 PUSH1 0x1 PUSH1 0x80 SHL SUB AND MUL OR SWAP1 SSTORE POP DUP1 PUSH1 0x24 DUP2 SWAP1 SSTORE POP PUSH32 0xF10FC780C78F994A214C79A2AE8D8B7BFE7CC3F0F935A8F05A29525E71D7F127 DUP5 PUSH1 0x22 DUP5 DUP2 SLOAD DUP2 LT PUSH2 0x19C6 JUMPI PUSH2 0x19C6 PUSH2 0x59E8 JUMP JUMPDEST SWAP1 PUSH1 0x0 MSTORE PUSH1 0x20 PUSH1 0x0 KECCAK256 SWAP1 PUSH1 0x4 MUL ADD PUSH1 0x2 ADD PUSH1 0x0 SWAP1 SLOAD SWAP1 PUSH2 0x100 EXP SWAP1 DIV PUSH1 0x1 PUSH1 0x1 PUSH1 0x80 SHL SUB AND PUSH1 0x22 DUP6 DUP2 SLOAD DUP2 LT PUSH2 0x19FE JUMPI PUSH2 0x19FE PUSH2 0x59E8 JUMP JUMPDEST SWAP1 PUSH1 0x0 MSTORE PUSH1 0x20 PUSH1 0x0 KECCAK256 SWAP1 PUSH1 0x4 MUL ADD PUSH1 0x2 ADD PUSH1 0x10 SWAP1 SLOAD SWAP1 PUSH2 0x100 EXP SWAP1 DIV PUSH1 0x1 PUSH1 0x1 PUSH1 0x80 SHL SUB AND PUSH1 0x40 MLOAD PUSH2 0x1A32 SWAP4 SWAP3 SWAP2 SWAP1 PUSH2 0x5C81 JUMP JUMPDEST PUSH1 0x40 MLOAD DUP1 SWAP2 SUB SWAP1 LOG1 POP POP POP POP JUMP JUMPDEST PUSH1 0x40 MLOAD PUSH4 0x6FB1A07 PUSH1 0xE0 SHL DUP2 MSTORE PUSH1 0x3 PUSH1 0x4 DUP3 ADD MSTORE ADDRESS SWAP1 CALLER SWAP1 PUSH1 0x0 SWAP1 PUSH20 0xDEF1FAC7BF08F173D286BBBDCBEEADE695129840 SWAP1 PUSH4 0x6FB1A07 SWAP1 PUSH1 0x24 ADD PUSH1 0x20 PUSH1 0x40 MLOAD DUP1 DUP4 SUB DUP2 DUP7 GAS STATICCALL ISZERO DUP1 ISZERO PUSH2 0x1A97 JUMPI RETURNDATASIZE PUSH1 0x0 DUP1 RETURNDATACOPY RETURNDATASIZE PUSH1 0x0 REVERT JUMPDEST POP POP POP POP PUSH1 0x40 MLOAD RETURNDATASIZE PUSH1 0x1F NOT PUSH1 0x1F DUP3 ADD AND DUP3 ADD DUP1 PUSH1 0x40 MSTORE POP DUP2 ADD SWAP1 PUSH2 0x1ABB SWAP2 SWAP1 PUSH2 0x5A46 JUMP JUMPDEST PUSH1 0x40 MLOAD PUSH4 0xC8B57EF PUSH1 0xE2 SHL DUP2 MSTORE SWAP1 SWAP2 POP PUSH1 0x1 PUSH1 0x1 PUSH1 0xA0 SHL SUB DUP3 AND SWAP1 PUSH4 0x322D5FBC SWAP1 PUSH2 0x1AEC SWAP1 DUP7 SWAP1 DUP7 SWAP1 PUSH1 0x4 ADD PUSH2 0x5CAB JUMP JUMPDEST PUSH1 0x20 PUSH1 0x40 MLOAD DUP1 DUP4 SUB DUP2 PUSH1 0x0 DUP8 GAS CALL ISZERO DUP1 ISZERO PUSH2 0x1B0B JUMPI RETURNDATASIZE PUSH1 0x0 DUP1 RETURNDATACOPY RETURNDATASIZE PUSH1 0x0 REVERT JUMPDEST POP POP POP POP PUSH1 0x40 MLOAD RETURNDATASIZE PUSH1 0x1F NOT PUSH1 0x1F DUP3 ADD AND DUP3 ADD DUP1 PUSH1 0x40 MSTORE POP DUP2 ADD SWAP1 PUSH2 0x1B2F SWAP2 SWAP1 PUSH2 0x5CC5 JUMP JUMPDEST ISZERO PUSH2 0x1B90 JUMPI PUSH1 0x40 MLOAD PUSH3 0x461BCD PUSH1 0xE5 SHL DUP2 MSTORE PUSH1 0x20 PUSH1 0x4 DUP3 ADD MSTORE PUSH1 0x2B PUSH1 0x24 DUP3 ADD MSTORE PUSH32 0x43434A453A205472616E73616374696F6E73206172652074656D706F72617269 PUSH1 0x44 DUP3 ADD MSTORE PUSH11 0x1B1E48191A5CD8589B1959 PUSH1 0xAA SHL PUSH1 0x64 DUP3 ADD MSTORE PUSH1 0x84 ADD PUSH2 0x8C4 JUMP JUMPDEST DUP1 PUSH1 0x1 PUSH1 0x1 PUSH1 0xA0 SHL SUB AND PUSH4 0xEEF84BA1 PUSH1 0x40 MLOAD DUP2 PUSH4 0xFFFFFFFF AND PUSH1 0xE0 SHL DUP2 MSTORE PUSH1 0x4 ADD PUSH1 0x0 PUSH1 0x40 MLOAD DUP1 DUP4 SUB DUP2 PUSH1 0x0 DUP8 DUP1 EXTCODESIZE ISZERO DUP1 ISZERO PUSH2 0x1BCB JUMPI PUSH1 0x0 DUP1 REVERT JUMPDEST POP GAS CALL ISZERO DUP1 ISZERO PUSH2 0x1BDF JUMPI RETURNDATASIZE PUSH1 0x0 DUP1 RETURNDATACOPY RETURNDATASIZE PUSH1 0x0 REVERT JUMPDEST POP POP POP POP PUSH2 0xDCB PUSH2 0x1BED CALLER SWAP1 JUMP JUMPDEST DUP7 DUP7 PUSH2 0x3923 JUMP JUMPDEST PUSH1 0x0 DUP1 DUP4 PUSH1 0xC TIMESTAMP DUP3 LT ISZERO PUSH2 0x1C1B JUMPI PUSH1 0x40 MLOAD PUSH3 0x461BCD PUSH1 0xE5 SHL DUP2 MSTORE PUSH1 0x4 ADD PUSH2 0x8C4 SWAP2 SWAP1 PUSH2 0x5963 JUMP JUMPDEST POP PUSH1 0xE PUSH1 0x1 DUP9 GT PUSH2 0x1C3F JUMPI PUSH1 0x40 MLOAD PUSH3 0x461BCD PUSH1 0xE5 SHL DUP2 MSTORE PUSH1 0x4 ADD PUSH2 0x8C4 SWAP2 SWAP1 PUSH2 0x5963 JUMP JUMPDEST POP PUSH1 0x26 SLOAD CALLER SWAP1 PUSH1 0x0 SWAP1 PUSH1 0x1 PUSH1 0x1 PUSH1 0xA0 SHL SUB DUP13 DUP2 AND SWAP2 AND EQ DUP1 ISZERO SWAP1 PUSH2 0x1C70 JUMPI POP PUSH1 0x26 SLOAD PUSH1 0x1 PUSH1 0x1 PUSH1 0xA0 SHL SUB DUP12 DUP2 AND SWAP2 AND EQ JUMPDEST ISZERO PUSH2 0x1CC2 JUMPI PUSH2 0x1C7F DUP12 DUP11 PUSH2 0x2EAE JUMP JUMPDEST SWAP1 POP PUSH1 0x10 DUP9 DUP3 LT ISZERO PUSH2 0x1CA4 JUMPI PUSH1 0x40 MLOAD PUSH3 0x461BCD PUSH1 0xE5 SHL DUP2 MSTORE PUSH1 0x4 ADD PUSH2 0x8C4 SWAP2 SWAP1 PUSH2 0x5963 JUMP JUMPDEST POP PUSH2 0x1CB0 DUP12 DUP4 DUP12 PUSH2 0x2C2A JUMP JUMPDEST PUSH2 0x1CBD DUP12 PUSH1 0x0 DUP4 DUP10 PUSH2 0x3A04 JUMP JUMPDEST PUSH2 0x1DEF JUMP JUMPDEST PUSH1 0x26 SLOAD PUSH1 0x1 PUSH1 0x1 PUSH1 0xA0 SHL SUB DUP13 DUP2 AND SWAP2 AND EQ DUP1 ISZERO PUSH2 0x1CED JUMPI POP PUSH1 0x26 SLOAD PUSH1 0x1 PUSH1 0x1 PUSH1 0xA0 SHL SUB DUP12 DUP2 AND SWAP2 AND EQ ISZERO JUMPDEST ISZERO PUSH2 0x1D3A JUMPI PUSH2 0x1CFC DUP11 DUP11 PUSH2 0x2FAA JUMP JUMPDEST SWAP1 POP PUSH1 0x11 DUP9 DUP3 LT ISZERO PUSH2 0x1D21 JUMPI PUSH1 0x40 MLOAD PUSH3 0x461BCD PUSH1 0xE5 SHL DUP2 MSTORE PUSH1 0x4 ADD PUSH2 0x8C4 SWAP2 SWAP1 PUSH2 0x5963 JUMP JUMPDEST POP PUSH2 0x1D2D DUP12 DUP4 DUP12 PUSH2 0x2C2A JUMP JUMPDEST PUSH2 0x1CBD DUP11 DUP3 PUSH1 0x0 DUP10 PUSH2 0x3A04 JUMP JUMPDEST PUSH1 0x26 SLOAD PUSH1 0x1 PUSH1 0x1 PUSH1 0xA0 SHL SUB DUP13 DUP2 AND SWAP2 AND EQ DUP1 ISZERO SWAP1 PUSH2 0x1D66 JUMPI POP PUSH1 0x26 SLOAD PUSH1 0x1 PUSH1 0x1 PUSH1 0xA0 SHL SUB DUP13 DUP2 AND SWAP2 AND EQ ISZERO JUMPDEST ISZERO PUSH2 0x1DD4 JUMPI PUSH1 0x0 PUSH2 0x1D77 DUP13 DUP12 PUSH2 0x2EAE JUMP JUMPDEST SWAP1 POP PUSH2 0x1D83 DUP12 DUP3 PUSH2 0x2FAA JUMP JUMPDEST SWAP2 POP PUSH1 0x11 DUP10 DUP4 LT ISZERO PUSH2 0x1DA8 JUMPI PUSH1 0x40 MLOAD PUSH3 0x461BCD PUSH1 0xE5 SHL DUP2 MSTORE PUSH1 0x4 ADD PUSH2 0x8C4 SWAP2 SWAP1 PUSH2 0x5963 JUMP JUMPDEST POP PUSH2 0x1DB4 DUP13 DUP5 DUP13 PUSH2 0x2C2A JUMP JUMPDEST PUSH2 0x1DC1 DUP13 PUSH1 0x0 DUP4 ADDRESS PUSH2 0x3A04 JUMP JUMPDEST PUSH2 0x1DCE DUP12 DUP4 PUSH1 0x0 DUP11 PUSH2 0x3A04 JUMP JUMPDEST POP PUSH2 0x1DEF JUMP JUMPDEST PUSH1 0x40 MLOAD PUSH3 0x461BCD PUSH1 0xE5 SHL DUP2 MSTORE PUSH2 0x8C4 SWAP1 PUSH1 0x14 SWAP1 PUSH1 0x4 ADD PUSH2 0x5963 JUMP JUMPDEST SWAP8 SWAP11 SWAP8 SWAP10 POP SWAP7 SWAP8 POP POP POP POP POP POP POP POP JUMP JUMPDEST PUSH1 0x0 PUSH2 0x1E0C DUP2 CALLER PUSH2 0x2843 JUMP JUMPDEST PUSH2 0x1E34 DUP3 PUSH1 0x40 MLOAD PUSH1 0x20 ADD PUSH2 0x1E20 SWAP2 SWAP1 PUSH2 0x5CE2 JUMP JUMPDEST PUSH1 0x40 MLOAD PUSH1 0x20 DUP2 DUP4 SUB SUB DUP2 MSTORE SWAP1 PUSH1 0x40 MSTORE PUSH2 0x40A9 JUMP JUMPDEST DUP2 MLOAD PUSH2 0xDEF SWAP1 PUSH1 0x8 SWAP1 PUSH1 0x20 DUP6 ADD SWAP1 PUSH2 0x4F07 JUMP JUMPDEST PUSH2 0x1E4F PUSH2 0x4F8B JUMP JUMPDEST PUSH1 0x1 PUSH1 0x1 PUSH1 0xA0 SHL SUB DUP3 AND PUSH1 0x0 SWAP1 DUP2 MSTORE PUSH1 0x23 PUSH1 0x20 MSTORE PUSH1 0x40 SWAP1 KECCAK256 SLOAD PUSH1 0x22 DUP1 SLOAD SWAP1 SWAP2 SWAP1 DUP2 LT PUSH2 0x1E7D JUMPI PUSH2 0x1E7D PUSH2 0x59E8 JUMP JUMPDEST PUSH1 0x0 SWAP2 DUP3 MSTORE PUSH1 0x20 SWAP2 DUP3 SWAP1 KECCAK256 PUSH1 0x40 DUP1 MLOAD PUSH1 0xA0 DUP2 ADD DUP3 MSTORE PUSH1 0x4 SWAP1 SWAP4 MUL SWAP1 SWAP2 ADD DUP1 SLOAD PUSH1 0x1 PUSH1 0x1 PUSH1 0xA0 SHL SUB AND DUP4 MSTORE DUP2 MLOAD PUSH2 0x100 DUP2 ADD SWAP1 SWAP3 MSTORE SWAP2 SWAP3 DUP4 ADD SWAP1 PUSH1 0x1 DUP4 ADD PUSH1 0x8 DUP3 DUP3 DUP3 PUSH1 0x20 MUL DUP3 ADD SWAP2 PUSH1 0x0 SWAP1 JUMPDEST DUP3 DUP3 SWAP1 SLOAD SWAP1 PUSH2 0x100 EXP SWAP1 DIV PUSH4 0xFFFFFFFF AND PUSH4 0xFFFFFFFF AND DUP2 MSTORE PUSH1 0x20 ADD SWAP1 PUSH1 0x4 ADD SWAP1 PUSH1 0x20 DUP3 PUSH1 0x3 ADD DIV SWAP3 DUP4 ADD SWAP3 PUSH1 0x1 SUB DUP3 MUL SWAP2 POP DUP1 DUP5 GT PUSH2 0x1EC9 JUMPI POP POP POP SWAP3 DUP5 MSTORE POP POP POP PUSH1 0x2 DUP3 ADD SLOAD PUSH1 0x1 PUSH1 0x1 PUSH1 0x80 SHL SUB DUP1 DUP3 AND PUSH1 0x20 DUP5 ADD MSTORE PUSH1 0x1 PUSH1 0x80 SHL SWAP1 SWAP2 DIV DUP2 AND PUSH1 0x40 DUP4 ADD MSTORE PUSH1 0x3 SWAP1 SWAP3 ADD SLOAD SWAP1 SWAP2 AND PUSH1 0x60 SWAP1 SWAP2 ADD MSTORE SWAP3 SWAP2 POP POP JUMP JUMPDEST PUSH1 0x26 SLOAD PUSH1 0x0 SWAP1 PUSH1 0x1 PUSH1 0x1 PUSH1 0xA0 SHL SUB DUP6 DUP2 AND SWAP2 AND EQ DUP1 ISZERO SWAP1 PUSH2 0x1F73 JUMPI POP PUSH1 0x26 SLOAD PUSH1 0x1 PUSH1 0x1 PUSH1 0xA0 SHL SUB DUP5 DUP2 AND SWAP2 AND EQ JUMPDEST ISZERO PUSH2 0x1F82 JUMPI PUSH2 0x14BA DUP5 DUP4 PUSH2 0x40BC JUMP JUMPDEST PUSH1 0x26 SLOAD PUSH1 0x1 PUSH1 0x1 PUSH1 0xA0 SHL SUB DUP6 DUP2 AND SWAP2 AND EQ DUP1 ISZERO PUSH2 0x1FAD JUMPI POP PUSH1 0x26 SLOAD PUSH1 0x1 PUSH1 0x1 PUSH1 0xA0 SHL SUB DUP5 DUP2 AND SWAP2 AND EQ ISZERO JUMPDEST ISZERO PUSH2 0x1FBC JUMPI PUSH2 0x14BA DUP4 DUP4 PUSH2 0x41AD JUMP JUMPDEST PUSH1 0x26 SLOAD PUSH1 0x1 PUSH1 0x1 PUSH1 0xA0 SHL SUB DUP6 DUP2 AND SWAP2 AND EQ DUP1 ISZERO SWAP1 PUSH2 0x1FE8 JUMPI POP PUSH1 0x26 SLOAD PUSH1 0x1 PUSH1 0x1 PUSH1 0xA0 SHL SUB DUP5 DUP2 AND SWAP2 AND EQ ISZERO JUMPDEST ISZERO PUSH2 0x1548 JUMPI PUSH1 0x0 PUSH2 0x1FF9 DUP5 DUP5 PUSH2 0x41AD JUMP JUMPDEST SWAP1 POP PUSH2 0x1544 DUP6 DUP3 PUSH2 0x40BC JUMP JUMPDEST PUSH1 0x0 DUP2 DUP2 MSTORE PUSH1 0x5 PUSH1 0x20 MSTORE PUSH1 0x40 DUP2 KECCAK256 PUSH2 0x8F0 SWAP1 PUSH2 0x429F JUMP JUMPDEST PUSH2 0x2024 PUSH2 0x4F8B JUMP JUMPDEST PUSH1 0x22 DUP3 DUP2 SLOAD DUP2 LT PUSH2 0x1E7D JUMPI PUSH2 0x1E7D PUSH2 0x59E8 JUMP JUMPDEST PUSH2 0x2040 DUP3 PUSH2 0xD1B JUMP JUMPDEST PUSH2 0x204A DUP2 CALLER PUSH2 0x2843 JUMP JUMPDEST PUSH2 0xDEF DUP4 DUP4 PUSH2 0x2C08 JUMP JUMPDEST PUSH1 0x0 PUSH2 0x2060 DUP2 CALLER PUSH2 0x2843 JUMP JUMPDEST PUSH1 0x1 PUSH1 0x1 PUSH1 0xA0 SHL SUB DUP6 AND PUSH1 0x0 SWAP1 DUP2 MSTORE PUSH1 0x23 PUSH1 0x20 MSTORE PUSH1 0x40 SWAP1 KECCAK256 SLOAD DUP6 SWAP1 ISZERO DUP1 ISZERO PUSH2 0x2096 JUMPI POP PUSH1 0x26 SLOAD PUSH1 0x1 PUSH1 0x1 PUSH1 0xA0 SHL SUB DUP3 DUP2 AND SWAP2 AND EQ ISZERO JUMPDEST PUSH1 0xA SWAP1 PUSH2 0x20B6 JUMPI PUSH1 0x40 MLOAD PUSH3 0x461BCD PUSH1 0xE5 SHL DUP2 MSTORE PUSH1 0x4 ADD PUSH2 0x8C4 SWAP2 SWAP1 PUSH2 0x5963 JUMP JUMPDEST POP PUSH1 0x22 SLOAD PUSH2 0x20C5 DUP8 CALLER DUP9 PUSH2 0x2C2A JUMP JUMPDEST PUSH1 0x26 SLOAD PUSH1 0x40 MLOAD PUSH4 0xBB9FF5D PUSH1 0xE0 SHL DUP2 MSTORE PUSH1 0x1 PUSH1 0x1 PUSH1 0xA0 SHL SUB SWAP1 SWAP2 AND SWAP1 PUSH4 0xBB9FF5D SWAP1 PUSH2 0x20F7 SWAP1 ADDRESS SWAP1 DUP10 SWAP1 PUSH1 0x4 ADD PUSH2 0x5BA6 JUMP JUMPDEST PUSH1 0x0 PUSH1 0x40 MLOAD DUP1 DUP4 SUB DUP2 PUSH1 0x0 DUP8 DUP1 EXTCODESIZE ISZERO DUP1 ISZERO PUSH2 0x2111 JUMPI PUSH1 0x0 DUP1 REVERT JUMPDEST POP GAS CALL ISZERO DUP1 ISZERO PUSH2 0x2125 JUMPI RETURNDATASIZE PUSH1 0x0 DUP1 RETURNDATACOPY RETURNDATASIZE PUSH1 0x0 REVERT JUMPDEST POP POP POP POP PUSH2 0x2132 DUP8 PUSH2 0x2776 JUMP JUMPDEST SWAP6 POP PUSH1 0xE DUP7 PUSH2 0x2154 JUMPI PUSH1 0x40 MLOAD PUSH3 0x461BCD PUSH1 0xE5 SHL DUP2 MSTORE PUSH1 0x4 ADD PUSH2 0x8C4 SWAP2 SWAP1 PUSH2 0x5963 JUMP JUMPDEST POP PUSH1 0x0 PUSH2 0x2164 PUSH2 0x105C DUP8 DUP10 PUSH2 0x5B5D JUMP JUMPDEST SWAP1 POP PUSH2 0x216E PUSH2 0x4FC9 JUMP JUMPDEST PUSH1 0x0 JUMPDEST PUSH1 0x8 DUP2 LT ISZERO PUSH2 0x21B0 JUMPI PUSH1 0x1 DUP3 DUP3 PUSH1 0x8 DUP2 LT PUSH2 0x218E JUMPI PUSH2 0x218E PUSH2 0x59E8 JUMP JUMPDEST PUSH4 0xFFFFFFFF SWAP1 SWAP3 AND PUSH1 0x20 SWAP3 SWAP1 SWAP3 MUL ADD MSTORE DUP1 PUSH2 0x21A8 DUP2 PUSH2 0x5A2B JUMP JUMPDEST SWAP2 POP POP PUSH2 0x2171 JUMP JUMPDEST POP PUSH1 0x40 DUP1 MLOAD PUSH1 0xA0 DUP2 ADD DUP3 MSTORE PUSH1 0x1 PUSH1 0x1 PUSH1 0xA0 SHL SUB DUP12 DUP2 AND DUP3 MSTORE PUSH1 0x20 DUP3 ADD DUP5 DUP2 MSTORE PUSH1 0x1 PUSH1 0x1 PUSH1 0x80 SHL SUB DUP13 DUP2 AND SWAP5 DUP5 ADD SWAP5 SWAP1 SWAP5 MSTORE DUP11 DUP5 AND PUSH1 0x60 DUP5 ADD MSTORE SWAP3 DUP6 AND PUSH1 0x80 DUP4 ADD MSTORE PUSH1 0x22 DUP1 SLOAD PUSH1 0x1 DUP2 ADD DUP3 SSTORE PUSH1 0x0 SWAP2 SWAP1 SWAP2 MSTORE DUP3 MLOAD PUSH32 0x61035B26E3E9EEE00E0D72FD1EE8DDCA6894550DCA6916EA2AC6BAA90D11E510 PUSH1 0x4 SWAP1 SWAP3 MUL SWAP2 DUP3 ADD DUP1 SLOAD PUSH1 0x1 PUSH1 0x1 PUSH1 0xA0 SHL SUB NOT AND SWAP2 SWAP1 SWAP4 AND OR DUP3 SSTORE SWAP3 MLOAD SWAP2 SWAP3 DUP4 SWAP3 PUSH2 0x2273 SWAP2 PUSH32 0x61035B26E3E9EEE00E0D72FD1EE8DDCA6894550DCA6916EA2AC6BAA90D11E511 ADD SWAP1 PUSH1 0x8 PUSH2 0x4FE8 JUMP JUMPDEST POP PUSH1 0x40 DUP3 DUP2 ADD MLOAD PUSH1 0x60 DUP5 ADD MLOAD PUSH1 0x1 PUSH1 0x1 PUSH1 0x80 SHL SUB SWAP2 DUP3 AND PUSH1 0x1 PUSH1 0x80 SHL SWAP2 DUP4 AND SWAP2 SWAP1 SWAP2 MUL OR PUSH1 0x2 DUP5 ADD SSTORE PUSH1 0x80 SWAP1 SWAP4 ADD MLOAD PUSH1 0x3 SWAP1 SWAP3 ADD DUP1 SLOAD PUSH1 0x1 PUSH1 0x1 PUSH1 0x80 SHL SUB NOT AND SWAP3 SWAP1 SWAP4 AND SWAP2 SWAP1 SWAP2 OR SWAP1 SWAP2 SSTORE PUSH1 0x1 PUSH1 0x1 PUSH1 0xA0 SHL SUB DUP12 AND PUSH1 0x0 SWAP1 DUP2 MSTORE PUSH1 0x23 PUSH1 0x20 MSTORE SWAP1 DUP2 KECCAK256 DUP6 SWAP1 SSTORE PUSH1 0x24 DUP1 SLOAD DUP11 SWAP3 SWAP1 PUSH2 0x22EA SWAP1 DUP5 SWAP1 PUSH2 0x5B45 JUMP JUMPDEST SWAP3 POP POP DUP2 SWAP1 SSTORE POP PUSH2 0x2310 PUSH2 0xDEAD DUP6 PUSH2 0x3E8 PUSH1 0x40 MLOAD DUP1 PUSH1 0x20 ADD PUSH1 0x40 MSTORE DUP1 PUSH1 0x0 DUP2 MSTORE POP PUSH2 0x2DB0 JUMP JUMPDEST PUSH1 0x0 PUSH2 0x3E8 PUSH2 0x2322 PUSH2 0x105C DUP12 DUP14 PUSH2 0x5B5D JUMP JUMPDEST PUSH2 0x232C SWAP2 SWAP1 PUSH2 0x5A14 JUMP JUMPDEST SWAP1 POP PUSH2 0x2349 DUP9 DUP7 DUP4 PUSH1 0x40 MLOAD DUP1 PUSH1 0x20 ADD PUSH1 0x40 MSTORE DUP1 PUSH1 0x0 DUP2 MSTORE POP PUSH2 0x2DB0 JUMP JUMPDEST PUSH1 0x40 DUP1 MLOAD PUSH1 0x1 PUSH1 0x1 PUSH1 0xA0 SHL SUB DUP14 AND DUP2 MSTORE PUSH1 0x20 DUP2 ADD DUP13 SWAP1 MSTORE SWAP1 DUP2 ADD DUP11 SWAP1 MSTORE PUSH1 0x60 DUP2 ADD DUP3 SWAP1 MSTORE PUSH1 0x80 DUP2 ADD DUP7 SWAP1 MSTORE PUSH32 0xE25069FEBE02950BDA1EDE7288798E9F99267811A7D0B3C5F0026821D1584B0E SWAP1 PUSH1 0xA0 ADD JUMPDEST PUSH1 0x40 MLOAD DUP1 SWAP2 SUB SWAP1 LOG1 POP POP POP POP POP POP POP POP POP POP POP JUMP JUMPDEST PUSH1 0x1 PUSH1 0x1 PUSH1 0xA0 SHL SUB DUP6 AND CALLER EQ DUP1 PUSH2 0x23CB JUMPI POP PUSH2 0x23CB DUP6 CALLER PUSH2 0x7C8 JUMP JUMPDEST PUSH2 0x23E7 JUMPI PUSH1 0x40 MLOAD PUSH3 0x461BCD PUSH1 0xE5 SHL DUP2 MSTORE PUSH1 0x4 ADD PUSH2 0x8C4 SWAP1 PUSH2 0x5C10 JUMP JUMPDEST PUSH2 0x23F2 ADDRESS DUP7 DUP7 PUSH2 0x28B1 JUMP JUMPDEST PUSH2 0xDCB DUP6 DUP6 DUP6 DUP6 DUP6 PUSH2 0x42A9 JUMP JUMPDEST PUSH2 0xB03 DUP5 DUP5 DUP5 DUP5 PUSH2 0x3A04 JUMP JUMPDEST PUSH1 0x1 PUSH1 0x1 PUSH1 0xA0 SHL SUB DUP4 AND CALLER EQ DUP1 PUSH2 0x2427 JUMPI POP PUSH2 0x2427 DUP4 CALLER PUSH2 0x7C8 JUMP JUMPDEST PUSH2 0x2443 JUMPI PUSH1 0x40 MLOAD PUSH3 0x461BCD PUSH1 0xE5 SHL DUP2 MSTORE PUSH1 0x4 ADD PUSH2 0x8C4 SWAP1 PUSH2 0x5C10 JUMP JUMPDEST PUSH2 0xDEF DUP4 DUP4 DUP4 PUSH2 0x43AB JUMP JUMPDEST PUSH1 0x0 DUP1 DUP4 PUSH1 0xC TIMESTAMP DUP3 LT ISZERO PUSH2 0x2475 JUMPI PUSH1 0x40 MLOAD PUSH3 0x461BCD PUSH1 0xE5 SHL DUP2 MSTORE PUSH1 0x4 ADD PUSH2 0x8C4 SWAP2 SWAP1 PUSH2 0x5963 JUMP JUMPDEST POP PUSH1 0x26 SLOAD CALLER SWAP1 PUSH1 0x0 SWAP1 PUSH1 0x1 PUSH1 0x1 PUSH1 0xA0 SHL SUB DUP13 DUP2 AND SWAP2 AND EQ DUP1 ISZERO SWAP1 PUSH2 0x24A6 JUMPI POP PUSH1 0x26 SLOAD PUSH1 0x1 PUSH1 0x1 PUSH1 0xA0 SHL SUB DUP12 DUP2 AND SWAP2 AND EQ JUMPDEST ISZERO PUSH2 0x251C JUMPI PUSH2 0x24B5 DUP12 DUP11 PUSH2 0x40BC JUMP JUMPDEST SWAP1 POP PUSH1 0x13 DUP9 DUP3 GT ISZERO PUSH2 0x24DA JUMPI PUSH1 0x40 MLOAD PUSH3 0x461BCD PUSH1 0xE5 SHL DUP2 MSTORE PUSH1 0x4 ADD PUSH2 0x8C4 SWAP2 SWAP1 PUSH2 0x5963 JUMP JUMPDEST POP PUSH1 0xE PUSH1 0x1 DUP3 GT PUSH2 0x24FE JUMPI PUSH1 0x40 MLOAD PUSH3 0x461BCD PUSH1 0xE5 SHL DUP2 MSTORE PUSH1 0x4 ADD PUSH2 0x8C4 SWAP2 SWAP1 PUSH2 0x5963 JUMP JUMPDEST POP PUSH2 0x250A DUP12 DUP4 DUP4 PUSH2 0x2C2A JUMP JUMPDEST PUSH2 0x2517 DUP12 PUSH1 0x0 DUP12 DUP10 PUSH2 0x3A04 JUMP JUMPDEST PUSH2 0x2696 JUMP JUMPDEST PUSH1 0x26 SLOAD PUSH1 0x1 PUSH1 0x1 PUSH1 0xA0 SHL SUB DUP13 DUP2 AND SWAP2 AND EQ DUP1 ISZERO PUSH2 0x2547 JUMPI POP PUSH1 0x26 SLOAD PUSH1 0x1 PUSH1 0x1 PUSH1 0xA0 SHL SUB DUP12 DUP2 AND SWAP2 AND EQ ISZERO JUMPDEST ISZERO PUSH2 0x25B8 JUMPI PUSH2 0x2556 DUP11 DUP11 PUSH2 0x41AD JUMP JUMPDEST SWAP1 POP PUSH1 0x12 DUP9 DUP3 GT ISZERO PUSH2 0x257B JUMPI PUSH1 0x40 MLOAD PUSH3 0x461BCD PUSH1 0xE5 SHL DUP2 MSTORE PUSH1 0x4 ADD PUSH2 0x8C4 SWAP2 SWAP1 PUSH2 0x5963 JUMP JUMPDEST POP PUSH1 0x1D PUSH1 0x1 DUP3 GT PUSH2 0x259F JUMPI PUSH1 0x40 MLOAD PUSH3 0x461BCD PUSH1 0xE5 SHL DUP2 MSTORE PUSH1 0x4 ADD PUSH2 0x8C4 SWAP2 SWAP1 PUSH2 0x5963 JUMP JUMPDEST POP PUSH2 0x25AB DUP12 DUP4 DUP4 PUSH2 0x2C2A JUMP JUMPDEST PUSH2 0x2517 DUP11 DUP11 PUSH1 0x0 DUP10 PUSH2 0x3A04 JUMP JUMPDEST PUSH1 0x26 SLOAD PUSH1 0x1 PUSH1 0x1 PUSH1 0xA0 SHL SUB DUP13 DUP2 AND SWAP2 AND EQ DUP1 ISZERO SWAP1 PUSH2 0x25E4 JUMPI POP PUSH1 0x26 SLOAD PUSH1 0x1 PUSH1 0x1 PUSH1 0xA0 SHL SUB DUP12 DUP2 AND SWAP2 AND EQ ISZERO JUMPDEST ISZERO PUSH2 0x1DD4 JUMPI PUSH1 0x0 PUSH2 0x25F5 DUP12 DUP12 PUSH2 0x41AD JUMP JUMPDEST SWAP1 POP PUSH1 0x1D PUSH1 0x1 DUP3 GT PUSH2 0x261A JUMPI PUSH1 0x40 MLOAD PUSH3 0x461BCD PUSH1 0xE5 SHL DUP2 MSTORE PUSH1 0x4 ADD PUSH2 0x8C4 SWAP2 SWAP1 PUSH2 0x5963 JUMP JUMPDEST POP PUSH2 0x2625 DUP13 DUP3 PUSH2 0x40BC JUMP JUMPDEST SWAP2 POP PUSH1 0x13 DUP10 DUP4 GT ISZERO PUSH2 0x264A JUMPI PUSH1 0x40 MLOAD PUSH3 0x461BCD PUSH1 0xE5 SHL DUP2 MSTORE PUSH1 0x4 ADD PUSH2 0x8C4 SWAP2 SWAP1 PUSH2 0x5963 JUMP JUMPDEST POP PUSH1 0xE PUSH1 0x1 DUP4 GT PUSH2 0x266E JUMPI PUSH1 0x40 MLOAD PUSH3 0x461BCD PUSH1 0xE5 SHL DUP2 MSTORE PUSH1 0x4 ADD PUSH2 0x8C4 SWAP2 SWAP1 PUSH2 0x5963 JUMP JUMPDEST POP PUSH2 0x267A DUP13 DUP5 DUP5 PUSH2 0x2C2A JUMP JUMPDEST PUSH2 0x2687 DUP13 PUSH1 0x0 DUP4 ADDRESS PUSH2 0x3A04 JUMP JUMPDEST PUSH2 0x2694 DUP12 DUP12 PUSH1 0x0 DUP11 PUSH2 0x3A04 JUMP JUMPDEST POP JUMPDEST SWAP11 SWAP8 SWAP10 POP SWAP7 SWAP8 POP POP POP POP POP POP POP POP JUMP JUMPDEST PUSH2 0x26B0 DUP3 DUP3 PUSH2 0x1785 JUMP JUMPDEST PUSH2 0xE6E JUMPI PUSH1 0x0 DUP3 DUP2 MSTORE PUSH1 0x4 PUSH1 0x20 SWAP1 DUP2 MSTORE PUSH1 0x40 DUP1 DUP4 KECCAK256 PUSH1 0x1 PUSH1 0x1 PUSH1 0xA0 SHL SUB DUP6 AND DUP5 MSTORE SWAP1 SWAP2 MSTORE SWAP1 KECCAK256 DUP1 SLOAD PUSH1 0xFF NOT AND PUSH1 0x1 OR SWAP1 SSTORE PUSH2 0x26E8 CALLER SWAP1 JUMP JUMPDEST PUSH1 0x1 PUSH1 0x1 PUSH1 0xA0 SHL SUB AND DUP2 PUSH1 0x1 PUSH1 0x1 PUSH1 0xA0 SHL SUB AND DUP4 PUSH32 0x2F8788117E7EFF1D82E926EC794901D17C78024A50270940304540A733656F0D PUSH1 0x40 MLOAD PUSH1 0x40 MLOAD DUP1 SWAP2 SUB SWAP1 LOG4 POP POP JUMP JUMPDEST PUSH1 0x0 PUSH2 0x1548 DUP4 PUSH1 0x1 PUSH1 0x1 PUSH1 0xA0 SHL SUB DUP5 AND PUSH2 0x449A JUMP JUMPDEST PUSH1 0x0 PUSH1 0x1 PUSH1 0x1 PUSH1 0xE0 SHL SUB NOT DUP3 AND PUSH4 0x5A05180F PUSH1 0xE0 SHL EQ DUP1 PUSH2 0x8F0 JUMPI POP PUSH4 0x1FFC9A7 PUSH1 0xE0 SHL PUSH1 0x1 PUSH1 0x1 PUSH1 0xE0 SHL SUB NOT DUP4 AND EQ PUSH2 0x8F0 JUMP JUMPDEST PUSH1 0x29 SLOAD PUSH1 0x0 SWAP1 PUSH1 0x1 PUSH1 0x1 PUSH1 0xA0 SHL SUB DUP4 DUP2 AND SWAP2 AND EQ ISZERO PUSH2 0x2796 JUMPI POP SELFBALANCE SWAP2 SWAP1 POP JUMP JUMPDEST PUSH1 0x40 MLOAD PUSH4 0x70A08231 PUSH1 0xE0 SHL DUP2 MSTORE PUSH1 0x1 PUSH1 0x1 PUSH1 0xA0 SHL SUB DUP4 AND SWAP1 PUSH4 0x70A08231 SWAP1 PUSH2 0x27C2 SWAP1 ADDRESS SWAP1 PUSH1 0x4 ADD PUSH2 0x51B1 JUMP JUMPDEST PUSH1 0x20 PUSH1 0x40 MLOAD DUP1 DUP4 SUB DUP2 DUP7 GAS STATICCALL ISZERO DUP1 ISZERO PUSH2 0x27DF JUMPI RETURNDATASIZE PUSH1 0x0 DUP1 RETURNDATACOPY RETURNDATASIZE PUSH1 0x0 REVERT JUMPDEST POP POP POP POP PUSH1 0x40 MLOAD RETURNDATASIZE PUSH1 0x1F NOT PUSH1 0x1F DUP3 ADD AND DUP3 ADD DUP1 PUSH1 0x40 MSTORE POP DUP2 ADD SWAP1 PUSH2 0x8F0 SWAP2 SWAP1 PUSH2 0x5D0F JUMP JUMPDEST PUSH1 0x1 PUSH1 0x1 PUSH1 0xA0 SHL SUB DUP4 AND ADDRESS EQ PUSH2 0xB03 JUMPI PUSH1 0x29 SLOAD PUSH1 0x1 PUSH1 0x1 PUSH1 0xA0 SHL SUB DUP6 DUP2 AND SWAP2 AND EQ ISZERO PUSH2 0x2838 JUMPI PUSH2 0x2833 DUP4 DUP4 PUSH2 0x44E9 JUMP JUMPDEST PUSH2 0xB03 JUMP JUMPDEST PUSH2 0xB03 DUP5 DUP5 DUP5 PUSH2 0x457B JUMP JUMPDEST PUSH2 0x284D DUP3 DUP3 PUSH2 0x1785 JUMP JUMPDEST PUSH2 0xE6E JUMPI PUSH2 0x2865 DUP2 PUSH1 0x1 PUSH1 0x1 PUSH1 0xA0 SHL SUB AND PUSH1 0x14 PUSH2 0x4665 JUMP JUMPDEST PUSH2 0x2870 DUP4 PUSH1 0x20 PUSH2 0x4665 JUMP JUMPDEST PUSH1 0x40 MLOAD PUSH1 0x20 ADD PUSH2 0x2881 SWAP3 SWAP2 SWAP1 PUSH2 0x5D28 JUMP JUMPDEST PUSH1 0x40 DUP1 MLOAD PUSH1 0x1F NOT DUP2 DUP5 SUB ADD DUP2 MSTORE SWAP1 DUP3 SWAP1 MSTORE PUSH3 0x461BCD PUSH1 0xE5 SHL DUP3 MSTORE PUSH2 0x8C4 SWAP2 PUSH1 0x4 ADD PUSH2 0x521D JUMP JUMPDEST PUSH2 0xE6E DUP3 DUP3 PUSH2 0x2BE6 JUMP JUMPDEST PUSH1 0x40 MLOAD PUSH4 0x6FB1A07 PUSH1 0xE0 SHL DUP2 MSTORE PUSH1 0x3 PUSH1 0x4 DUP3 ADD MSTORE PUSH1 0x0 SWAP1 PUSH20 0xDEF1FAC7BF08F173D286BBBDCBEEADE695129840 SWAP1 PUSH4 0x6FB1A07 SWAP1 PUSH1 0x24 ADD PUSH1 0x20 PUSH1 0x40 MLOAD DUP1 DUP4 SUB DUP2 DUP7 GAS STATICCALL ISZERO DUP1 ISZERO PUSH2 0x2904 JUMPI RETURNDATASIZE PUSH1 0x0 DUP1 RETURNDATACOPY RETURNDATASIZE PUSH1 0x0 REVERT JUMPDEST POP POP POP POP PUSH1 0x40 MLOAD RETURNDATASIZE PUSH1 0x1F NOT PUSH1 0x1F DUP3 ADD AND DUP3 ADD DUP1 PUSH1 0x40 MSTORE POP DUP2 ADD SWAP1 PUSH2 0x2928 SWAP2 SWAP1 PUSH2 0x5A46 JUMP JUMPDEST PUSH1 0x40 MLOAD PUSH4 0xC8B57EF PUSH1 0xE2 SHL DUP2 MSTORE SWAP1 SWAP2 POP PUSH1 0x1 PUSH1 0x1 PUSH1 0xA0 SHL SUB DUP3 AND SWAP1 PUSH4 0x322D5FBC SWAP1 PUSH2 0x2959 SWAP1 DUP8 SWAP1 DUP8 SWAP1 PUSH1 0x4 ADD PUSH2 0x5CAB JUMP JUMPDEST PUSH1 0x20 PUSH1 0x40 MLOAD DUP1 DUP4 SUB DUP2 PUSH1 0x0 DUP8 GAS CALL ISZERO DUP1 ISZERO PUSH2 0x2978 JUMPI RETURNDATASIZE PUSH1 0x0 DUP1 RETURNDATACOPY RETURNDATASIZE PUSH1 0x0 REVERT JUMPDEST POP POP POP POP PUSH1 0x40 MLOAD RETURNDATASIZE PUSH1 0x1F NOT PUSH1 0x1F DUP3 ADD AND DUP3 ADD DUP1 PUSH1 0x40 MSTORE POP DUP2 ADD SWAP1 PUSH2 0x299C SWAP2 SWAP1 PUSH2 0x5CC5 JUMP JUMPDEST PUSH2 0x29CE JUMPI PUSH1 0x40 MLOAD PUSH3 0x461BCD PUSH1 0xE5 SHL DUP2 MSTORE PUSH1 0x20 PUSH1 0x4 DUP3 ADD MSTORE PUSH1 0x3 PUSH1 0x24 DUP3 ADD MSTORE PUSH3 0x42A8B PUSH1 0xEB SHL PUSH1 0x44 DUP3 ADD MSTORE PUSH1 0x64 ADD PUSH2 0x8C4 JUMP JUMPDEST PUSH1 0x1 PUSH1 0x1 PUSH1 0xA0 SHL SUB DUP3 AND ADDRESS EQ PUSH2 0xB03 JUMPI PUSH1 0x40 MLOAD PUSH4 0x3973256B PUSH1 0xE1 SHL DUP2 MSTORE PUSH1 0x1 PUSH1 0x1 PUSH1 0xA0 SHL SUB DUP3 AND SWAP1 PUSH4 0x72E64AD6 SWAP1 PUSH2 0x2A0C SWAP1 DUP8 SWAP1 DUP7 SWAP1 PUSH1 0x4 ADD PUSH2 0x5CAB JUMP JUMPDEST PUSH1 0x0 PUSH1 0x40 MLOAD DUP1 DUP4 SUB DUP2 PUSH1 0x0 DUP8 DUP1 EXTCODESIZE ISZERO DUP1 ISZERO PUSH2 0x2A26 JUMPI PUSH1 0x0 DUP1 REVERT JUMPDEST POP GAS CALL ISZERO DUP1 ISZERO PUSH2 0x2A3A JUMPI RETURNDATASIZE PUSH1 0x0 DUP1 RETURNDATACOPY RETURNDATASIZE PUSH1 0x0 REVERT JUMPDEST POP POP POP POP POP POP POP POP JUMP JUMPDEST DUP2 MLOAD DUP4 MLOAD EQ PUSH2 0x2A65 JUMPI PUSH1 0x40 MLOAD PUSH3 0x461BCD PUSH1 0xE5 SHL DUP2 MSTORE PUSH1 0x4 ADD PUSH2 0x8C4 SWAP1 PUSH2 0x5D97 JUMP JUMPDEST PUSH1 0x1 PUSH1 0x1 PUSH1 0xA0 SHL SUB DUP5 AND PUSH2 0x2A8B JUMPI PUSH1 0x40 MLOAD PUSH3 0x461BCD PUSH1 0xE5 SHL DUP2 MSTORE PUSH1 0x4 ADD PUSH2 0x8C4 SWAP1 PUSH2 0x5DDF JUMP JUMPDEST CALLER PUSH2 0x2A9A DUP2 DUP8 DUP8 DUP8 DUP8 DUP8 PUSH2 0x4800 JUMP JUMPDEST PUSH1 0x0 JUMPDEST DUP5 MLOAD DUP2 LT ISZERO PUSH2 0x2B80 JUMPI PUSH1 0x0 DUP6 DUP3 DUP2 MLOAD DUP2 LT PUSH2 0x2ABA JUMPI PUSH2 0x2ABA PUSH2 0x59E8 JUMP JUMPDEST PUSH1 0x20 MUL PUSH1 0x20 ADD ADD MLOAD SWAP1 POP PUSH1 0x0 DUP6 DUP4 DUP2 MLOAD DUP2 LT PUSH2 0x2AD8 JUMPI PUSH2 0x2AD8 PUSH2 0x59E8 JUMP JUMPDEST PUSH1 0x20 SWAP1 DUP2 MUL SWAP2 SWAP1 SWAP2 ADD DUP2 ADD MLOAD PUSH1 0x0 DUP5 DUP2 MSTORE DUP1 DUP4 MSTORE PUSH1 0x40 DUP1 DUP3 KECCAK256 PUSH1 0x1 PUSH1 0x1 PUSH1 0xA0 SHL SUB DUP15 AND DUP4 MSTORE SWAP1 SWAP4 MSTORE SWAP2 SWAP1 SWAP2 KECCAK256 SLOAD SWAP1 SWAP2 POP DUP2 DUP2 LT ISZERO PUSH2 0x2B28 JUMPI PUSH1 0x40 MLOAD PUSH3 0x461BCD PUSH1 0xE5 SHL DUP2 MSTORE PUSH1 0x4 ADD PUSH2 0x8C4 SWAP1 PUSH2 0x5E24 JUMP JUMPDEST PUSH1 0x0 DUP4 DUP2 MSTORE PUSH1 0x20 DUP2 DUP2 MSTORE PUSH1 0x40 DUP1 DUP4 KECCAK256 PUSH1 0x1 PUSH1 0x1 PUSH1 0xA0 SHL SUB DUP15 DUP2 AND DUP6 MSTORE SWAP3 MSTORE DUP1 DUP4 KECCAK256 DUP6 DUP6 SUB SWAP1 SSTORE SWAP1 DUP12 AND DUP3 MSTORE DUP2 KECCAK256 DUP1 SLOAD DUP5 SWAP3 SWAP1 PUSH2 0x2B65 SWAP1 DUP5 SWAP1 PUSH2 0x5B45 JUMP JUMPDEST SWAP3 POP POP DUP2 SWAP1 SSTORE POP POP POP POP DUP1 PUSH2 0x2B79 SWAP1 PUSH2 0x5A2B JUMP JUMPDEST SWAP1 POP PUSH2 0x2A9D JUMP JUMPDEST POP DUP5 PUSH1 0x1 PUSH1 0x1 PUSH1 0xA0 SHL SUB AND DUP7 PUSH1 0x1 PUSH1 0x1 PUSH1 0xA0 SHL SUB AND DUP3 PUSH1 0x1 PUSH1 0x1 PUSH1 0xA0 SHL SUB AND PUSH32 0x4A39DC06D4C0DBC64B70AF90FD698A233A518AA5D07E595D983B8C0526C8F7FB DUP8 DUP8 PUSH1 0x40 MLOAD PUSH2 0x2BD0 SWAP3 SWAP2 SWAP1 PUSH2 0x5E6E JUMP JUMPDEST PUSH1 0x40 MLOAD DUP1 SWAP2 SUB SWAP1 LOG4 PUSH2 0x1743 DUP2 DUP8 DUP8 DUP8 DUP8 DUP8 PUSH2 0x490C JUMP JUMPDEST PUSH2 0x2BF0 DUP3 DUP3 PUSH2 0x26A6 JUMP JUMPDEST PUSH1 0x0 DUP3 DUP2 MSTORE PUSH1 0x5 PUSH1 0x20 MSTORE PUSH1 0x40 SWAP1 KECCAK256 PUSH2 0xDEF SWAP1 DUP3 PUSH2 0x272C JUMP JUMPDEST PUSH2 0x2C12 DUP3 DUP3 PUSH2 0x4A68 JUMP JUMPDEST PUSH1 0x0 DUP3 DUP2 MSTORE PUSH1 0x5 PUSH1 0x20 MSTORE PUSH1 0x40 SWAP1 KECCAK256 PUSH2 0xDEF SWAP1 DUP3 PUSH2 0x4ACF JUMP JUMPDEST PUSH1 0x29 SLOAD PUSH1 0x1 PUSH1 0x1 PUSH1 0xA0 SHL SUB DUP5 DUP2 AND SWAP2 AND EQ PUSH2 0x2C7D JUMPI PUSH1 0xF CALLVALUE ISZERO PUSH2 0x2C60 JUMPI PUSH1 0x40 MLOAD PUSH3 0x461BCD PUSH1 0xE5 SHL DUP2 MSTORE PUSH1 0x4 ADD PUSH2 0x8C4 SWAP2 SWAP1 PUSH2 0x5963 JUMP JUMPDEST POP PUSH1 0x1 PUSH1 0x1 PUSH1 0xA0 SHL SUB DUP3 AND ADDRESS EQ PUSH2 0xDEF JUMPI PUSH2 0xDEF DUP4 DUP4 ADDRESS DUP5 PUSH2 0x4AE4 JUMP JUMPDEST PUSH1 0x29 SLOAD PUSH1 0x1 PUSH1 0x1 PUSH1 0xA0 SHL SUB DUP5 DUP2 AND SWAP2 AND EQ ISZERO PUSH2 0xDEF JUMPI PUSH1 0x1C CALLVALUE DUP3 GT ISZERO PUSH2 0x2CB6 JUMPI PUSH1 0x40 MLOAD PUSH3 0x461BCD PUSH1 0xE5 SHL DUP2 MSTORE PUSH1 0x4 ADD PUSH2 0x8C4 SWAP2 SWAP1 PUSH2 0x5963 JUMP JUMPDEST POP DUP1 CALLVALUE GT ISZERO PUSH2 0xDEF JUMPI PUSH1 0x29 SLOAD PUSH2 0xDEF SWAP1 PUSH1 0x1 PUSH1 0x1 PUSH1 0xA0 SHL SUB AND CALLER PUSH2 0x2CDA DUP5 CALLVALUE PUSH2 0x5A14 JUMP JUMPDEST PUSH1 0x0 PUSH2 0x2803 JUMP JUMPDEST PUSH1 0x0 DUP1 PUSH1 0x2 PUSH2 0x2CF1 DUP5 PUSH1 0x1 PUSH2 0x5B45 JUMP JUMPDEST PUSH2 0x2CFB SWAP2 SWAP1 PUSH2 0x5B92 JUMP JUMPDEST SWAP1 POP DUP3 SWAP2 POP JUMPDEST DUP2 DUP2 LT ISZERO PUSH2 0x2D34 JUMPI SWAP1 POP DUP1 PUSH1 0x2 DUP2 PUSH2 0x2D19 DUP2 DUP7 PUSH2 0x5B92 JUMP JUMPDEST PUSH2 0x2D23 SWAP2 SWAP1 PUSH2 0x5B45 JUMP JUMPDEST PUSH2 0x2D2D SWAP2 SWAP1 PUSH2 0x5B92 JUMP JUMPDEST SWAP1 POP PUSH2 0x2D01 JUMP JUMPDEST POP SWAP2 SWAP1 POP JUMP JUMPDEST PUSH1 0x0 DUP4 DUP4 GT DUP1 ISZERO PUSH2 0x2D4B JUMPI POP PUSH1 0x0 DUP5 GT JUMPDEST DUP1 ISZERO PUSH2 0x2D58 JUMPI POP PUSH1 0x2C SLOAD ISZERO ISZERO JUMPDEST ISZERO PUSH2 0x1548 JUMPI PUSH2 0x2D68 PUSH1 0x64 DUP6 PUSH2 0x5B5D JUMP JUMPDEST PUSH1 0x2C SLOAD PUSH2 0x2D75 SWAP1 DUP6 PUSH2 0x5B5D JUMP JUMPDEST PUSH2 0x2D7F SWAP2 SWAP1 PUSH2 0x5B45 JUMP JUMPDEST PUSH2 0x2D89 DUP6 DUP6 PUSH2 0x5A14 JUMP JUMPDEST PUSH2 0x2D94 PUSH1 0x64 DUP6 PUSH2 0x5B5D JUMP JUMPDEST PUSH2 0x2D9E SWAP2 SWAP1 PUSH2 0x5B5D JUMP JUMPDEST PUSH2 0x2DA8 SWAP2 SWAP1 PUSH2 0x5B92 JUMP JUMPDEST SWAP5 SWAP4 POP POP POP POP JUMP JUMPDEST PUSH1 0x1 PUSH1 0x1 PUSH1 0xA0 SHL SUB DUP5 AND PUSH2 0x2E10 JUMPI PUSH1 0x40 MLOAD PUSH3 0x461BCD PUSH1 0xE5 SHL DUP2 MSTORE PUSH1 0x20 PUSH1 0x4 DUP3 ADD MSTORE PUSH1 0x21 PUSH1 0x24 DUP3 ADD MSTORE PUSH32 0x455243313135353A206D696E7420746F20746865207A65726F20616464726573 PUSH1 0x44 DUP3 ADD MSTORE PUSH1 0x73 PUSH1 0xF8 SHL PUSH1 0x64 DUP3 ADD MSTORE PUSH1 0x84 ADD PUSH2 0x8C4 JUMP JUMPDEST CALLER PUSH2 0x2E30 DUP2 PUSH1 0x0 DUP8 PUSH2 0x2E21 DUP9 PUSH2 0x4BD4 JUMP JUMPDEST PUSH2 0x2E2A DUP9 PUSH2 0x4BD4 JUMP JUMPDEST DUP8 PUSH2 0x4800 JUMP JUMPDEST PUSH1 0x0 DUP5 DUP2 MSTORE PUSH1 0x20 DUP2 DUP2 MSTORE PUSH1 0x40 DUP1 DUP4 KECCAK256 PUSH1 0x1 PUSH1 0x1 PUSH1 0xA0 SHL SUB DUP10 AND DUP5 MSTORE SWAP1 SWAP2 MSTORE DUP2 KECCAK256 DUP1 SLOAD DUP6 SWAP3 SWAP1 PUSH2 0x2E60 SWAP1 DUP5 SWAP1 PUSH2 0x5B45 JUMP JUMPDEST SWAP1 SWAP2 SSTORE POP POP PUSH1 0x40 DUP1 MLOAD DUP6 DUP2 MSTORE PUSH1 0x20 DUP2 ADD DUP6 SWAP1 MSTORE PUSH1 0x1 PUSH1 0x1 PUSH1 0xA0 SHL SUB DUP1 DUP9 AND SWAP3 PUSH1 0x0 SWAP3 SWAP2 DUP6 AND SWAP2 PUSH1 0x0 DUP1 MLOAD PUSH1 0x20 PUSH2 0x611A DUP4 CODECOPY DUP2 MLOAD SWAP2 MSTORE SWAP2 ADD PUSH1 0x40 MLOAD DUP1 SWAP2 SUB SWAP1 LOG4 PUSH2 0xDCB DUP2 PUSH1 0x0 DUP8 DUP8 DUP8 DUP8 PUSH2 0x4C1F JUMP JUMPDEST PUSH1 0x1 PUSH1 0x1 PUSH1 0xA0 SHL SUB DUP3 AND PUSH1 0x0 SWAP1 DUP2 MSTORE PUSH1 0x23 PUSH1 0x20 MSTORE PUSH1 0x40 DUP2 KECCAK256 SLOAD DUP4 SWAP1 ISZERO DUP1 ISZERO SWAP1 PUSH2 0x2EE5 JUMPI POP PUSH1 0x26 SLOAD PUSH1 0x1 PUSH1 0x1 PUSH1 0xA0 SHL SUB DUP3 DUP2 AND SWAP2 AND EQ ISZERO JUMPDEST PUSH1 0xB SWAP1 PUSH2 0x2F05 JUMPI PUSH1 0x40 MLOAD PUSH3 0x461BCD PUSH1 0xE5 SHL DUP2 MSTORE PUSH1 0x4 ADD PUSH2 0x8C4 SWAP2 SWAP1 PUSH2 0x5963 JUMP JUMPDEST POP PUSH1 0x1 PUSH1 0x1 PUSH1 0xA0 SHL SUB DUP5 AND PUSH1 0x0 SWAP1 DUP2 MSTORE PUSH1 0x23 PUSH1 0x20 MSTORE PUSH1 0x40 SWAP1 KECCAK256 SLOAD PUSH1 0x22 DUP1 SLOAD PUSH2 0x2F9F SWAP2 DUP7 SWAP2 DUP5 SWAP1 DUP2 LT PUSH2 0x2F39 JUMPI PUSH2 0x2F39 PUSH2 0x59E8 JUMP JUMPDEST PUSH1 0x0 SWAP2 DUP3 MSTORE PUSH1 0x20 SWAP1 SWAP2 KECCAK256 PUSH1 0x2 PUSH1 0x4 SWAP1 SWAP3 MUL ADD ADD SLOAD PUSH1 0x22 DUP1 SLOAD PUSH1 0x1 PUSH1 0x1 PUSH1 0x80 SHL SUB SWAP1 SWAP3 AND SWAP2 DUP6 SWAP1 DUP2 LT PUSH2 0x2F6D JUMPI PUSH2 0x2F6D PUSH2 0x59E8 JUMP JUMPDEST PUSH1 0x0 SWAP2 DUP3 MSTORE PUSH1 0x20 SWAP1 SWAP2 KECCAK256 PUSH1 0x4 SWAP1 SWAP2 MUL ADD PUSH1 0x2 ADD SLOAD PUSH1 0x1 PUSH1 0x80 SHL SWAP1 DIV PUSH1 0x1 PUSH1 0x1 PUSH1 0x80 SHL SUB AND PUSH2 0x2F9A DUP6 PUSH2 0x3706 JUMP JUMPDEST PUSH2 0x4CDA JUMP JUMPDEST SWAP3 POP POP JUMPDEST POP SWAP3 SWAP2 POP POP JUMP JUMPDEST PUSH1 0x1 PUSH1 0x1 PUSH1 0xA0 SHL SUB DUP3 AND PUSH1 0x0 SWAP1 DUP2 MSTORE PUSH1 0x23 PUSH1 0x20 MSTORE PUSH1 0x40 DUP2 KECCAK256 SLOAD DUP4 SWAP1 ISZERO DUP1 ISZERO SWAP1 PUSH2 0x2FE1 JUMPI POP PUSH1 0x26 SLOAD PUSH1 0x1 PUSH1 0x1 PUSH1 0xA0 SHL SUB DUP3 DUP2 AND SWAP2 AND EQ ISZERO JUMPDEST PUSH1 0xB SWAP1 PUSH2 0x3001 JUMPI PUSH1 0x40 MLOAD PUSH3 0x461BCD PUSH1 0xE5 SHL DUP2 MSTORE PUSH1 0x4 ADD PUSH2 0x8C4 SWAP2 SWAP1 PUSH2 0x5963 JUMP JUMPDEST POP PUSH1 0x1 PUSH1 0x1 PUSH1 0xA0 SHL SUB DUP5 AND PUSH1 0x0 SWAP1 DUP2 MSTORE PUSH1 0x23 PUSH1 0x20 MSTORE PUSH1 0x40 SWAP1 KECCAK256 SLOAD PUSH1 0x22 DUP1 SLOAD PUSH2 0x2F9F SWAP2 DUP7 SWAP2 DUP5 SWAP1 DUP2 LT PUSH2 0x3035 JUMPI PUSH2 0x3035 PUSH2 0x59E8 JUMP JUMPDEST SWAP1 PUSH1 0x0 MSTORE PUSH1 0x20 PUSH1 0x0 KECCAK256 SWAP1 PUSH1 0x4 MUL ADD PUSH1 0x2 ADD PUSH1 0x10 SWAP1 SLOAD SWAP1 PUSH2 0x100 EXP SWAP1 DIV PUSH1 0x1 PUSH1 0x1 PUSH1 0x80 SHL SUB AND PUSH1 0x1 PUSH1 0x1 PUSH1 0x80 SHL SUB AND PUSH1 0x22 DUP5 DUP2 SLOAD DUP2 LT PUSH2 0x3076 JUMPI PUSH2 0x3076 PUSH2 0x59E8 JUMP JUMPDEST PUSH1 0x0 SWAP2 DUP3 MSTORE PUSH1 0x20 SWAP1 SWAP2 KECCAK256 PUSH1 0x2 PUSH1 0x4 SWAP1 SWAP3 MUL ADD ADD SLOAD PUSH1 0x1 PUSH1 0x1 PUSH1 0x80 SHL SUB AND PUSH2 0x2F9A DUP6 PUSH2 0x3706 JUMP JUMPDEST PUSH1 0x1 PUSH1 0x1 PUSH1 0xA0 SHL SUB DUP4 AND PUSH2 0x30C2 JUMPI PUSH1 0x40 MLOAD PUSH3 0x461BCD PUSH1 0xE5 SHL DUP2 MSTORE PUSH1 0x4 ADD PUSH2 0x8C4 SWAP1 PUSH2 0x5E93 JUMP JUMPDEST DUP1 MLOAD DUP3 MLOAD EQ PUSH2 0x30E3 JUMPI PUSH1 0x40 MLOAD PUSH3 0x461BCD PUSH1 0xE5 SHL DUP2 MSTORE PUSH1 0x4 ADD PUSH2 0x8C4 SWAP1 PUSH2 0x5D97 JUMP JUMPDEST PUSH1 0x0 CALLER SWAP1 POP PUSH2 0x3106 DUP2 DUP6 PUSH1 0x0 DUP7 DUP7 PUSH1 0x40 MLOAD DUP1 PUSH1 0x20 ADD PUSH1 0x40 MSTORE DUP1 PUSH1 0x0 DUP2 MSTORE POP PUSH2 0x4800 JUMP JUMPDEST PUSH1 0x0 JUMPDEST DUP4 MLOAD DUP2 LT ISZERO PUSH2 0x31CB JUMPI PUSH1 0x0 DUP5 DUP3 DUP2 MLOAD DUP2 LT PUSH2 0x3126 JUMPI PUSH2 0x3126 PUSH2 0x59E8 JUMP JUMPDEST PUSH1 0x20 MUL PUSH1 0x20 ADD ADD MLOAD SWAP1 POP PUSH1 0x0 DUP5 DUP4 DUP2 MLOAD DUP2 LT PUSH2 0x3144 JUMPI PUSH2 0x3144 PUSH2 0x59E8 JUMP JUMPDEST PUSH1 0x20 SWAP1 DUP2 MUL SWAP2 SWAP1 SWAP2 ADD DUP2 ADD MLOAD PUSH1 0x0 DUP5 DUP2 MSTORE DUP1 DUP4 MSTORE PUSH1 0x40 DUP1 DUP3 KECCAK256 PUSH1 0x1 PUSH1 0x1 PUSH1 0xA0 SHL SUB DUP13 AND DUP4 MSTORE SWAP1 SWAP4 MSTORE SWAP2 SWAP1 SWAP2 KECCAK256 SLOAD SWAP1 SWAP2 POP DUP2 DUP2 LT ISZERO PUSH2 0x3194 JUMPI PUSH1 0x40 MLOAD PUSH3 0x461BCD PUSH1 0xE5 SHL DUP2 MSTORE PUSH1 0x4 ADD PUSH2 0x8C4 SWAP1 PUSH2 0x5ED6 JUMP JUMPDEST PUSH1 0x0 SWAP3 DUP4 MSTORE PUSH1 0x20 DUP4 DUP2 MSTORE PUSH1 0x40 DUP1 DUP6 KECCAK256 PUSH1 0x1 PUSH1 0x1 PUSH1 0xA0 SHL SUB DUP12 AND DUP7 MSTORE SWAP1 SWAP2 MSTORE SWAP1 SWAP3 KECCAK256 SWAP2 SUB SWAP1 SSTORE DUP1 PUSH2 0x31C3 DUP2 PUSH2 0x5A2B JUMP JUMPDEST SWAP2 POP POP PUSH2 0x3109 JUMP JUMPDEST POP PUSH1 0x0 PUSH1 0x1 PUSH1 0x1 PUSH1 0xA0 SHL SUB AND DUP5 PUSH1 0x1 PUSH1 0x1 PUSH1 0xA0 SHL SUB AND DUP3 PUSH1 0x1 PUSH1 0x1 PUSH1 0xA0 SHL SUB AND PUSH32 0x4A39DC06D4C0DBC64B70AF90FD698A233A518AA5D07E595D983B8C0526C8F7FB DUP7 DUP7 PUSH1 0x40 MLOAD PUSH2 0x321C SWAP3 SWAP2 SWAP1 PUSH2 0x5E6E JUMP JUMPDEST PUSH1 0x40 MLOAD DUP1 SWAP2 SUB SWAP1 LOG4 POP POP POP POP JUMP JUMPDEST PUSH1 0x1 PUSH1 0x1 PUSH1 0xA0 SHL SUB DUP4 AND PUSH1 0x0 SWAP1 DUP2 MSTORE PUSH1 0x23 PUSH1 0x20 MSTORE PUSH1 0x40 DUP2 KECCAK256 SLOAD SWAP1 PUSH2 0x324D DUP6 PUSH2 0x2776 JUMP JUMPDEST SWAP1 POP PUSH1 0x0 PUSH1 0x22 DUP4 DUP2 SLOAD DUP2 LT PUSH2 0x3264 JUMPI PUSH2 0x3264 PUSH2 0x59E8 JUMP JUMPDEST PUSH1 0x0 SWAP2 DUP3 MSTORE PUSH1 0x20 SWAP1 SWAP2 KECCAK256 PUSH1 0x2 PUSH1 0x4 SWAP1 SWAP3 MUL ADD ADD SLOAD PUSH2 0x328B SWAP1 PUSH1 0x1 PUSH1 0x1 PUSH1 0x80 SHL SUB AND DUP4 PUSH2 0x5A14 JUMP JUMPDEST PUSH1 0x24 SLOAD PUSH1 0x26 SLOAD SWAP2 SWAP3 POP PUSH1 0x0 SWAP2 PUSH2 0x32A9 SWAP1 PUSH1 0x1 PUSH1 0x1 PUSH1 0xA0 SHL SUB AND PUSH2 0x2776 JUMP JUMPDEST PUSH2 0x32B3 SWAP2 SWAP1 PUSH2 0x5A14 JUMP JUMPDEST PUSH1 0x0 DUP6 DUP2 MSTORE PUSH1 0x3 PUSH1 0x20 MSTORE PUSH1 0x40 DUP2 KECCAK256 SLOAD PUSH1 0x22 DUP1 SLOAD SWAP4 SWAP5 POP SWAP1 SWAP3 DUP4 SWAP2 DUP11 SWAP2 DUP10 SWAP1 DUP2 LT PUSH2 0x32DF JUMPI PUSH2 0x32DF PUSH2 0x59E8 JUMP JUMPDEST PUSH1 0x0 SWAP2 DUP3 MSTORE PUSH1 0x20 SWAP1 SWAP2 KECCAK256 PUSH1 0x2 PUSH1 0x4 SWAP1 SWAP3 MUL ADD ADD SLOAD PUSH2 0x3306 SWAP2 SWAP1 PUSH1 0x1 PUSH1 0x1 PUSH1 0x80 SHL SUB AND PUSH2 0x5B5D JUMP JUMPDEST PUSH2 0x3310 SWAP2 SWAP1 PUSH2 0x5B92 JUMP JUMPDEST SWAP1 POP PUSH1 0x0 DUP3 DUP10 PUSH1 0x22 DUP10 DUP2 SLOAD DUP2 LT PUSH2 0x3329 JUMPI PUSH2 0x3329 PUSH2 0x59E8 JUMP JUMPDEST PUSH1 0x0 SWAP2 DUP3 MSTORE PUSH1 0x20 SWAP1 SWAP2 KECCAK256 PUSH1 0x4 SWAP1 SWAP2 MUL ADD PUSH1 0x2 ADD SLOAD PUSH2 0x3357 SWAP2 SWAP1 PUSH1 0x1 PUSH1 0x80 SHL SWAP1 DIV PUSH1 0x1 PUSH1 0x1 PUSH1 0x80 SHL SUB AND PUSH2 0x5B5D JUMP JUMPDEST PUSH2 0x3361 SWAP2 SWAP1 PUSH2 0x5B92 JUMP JUMPDEST SWAP1 POP PUSH1 0x0 PUSH2 0x33BC PUSH1 0x22 DUP10 DUP2 SLOAD DUP2 LT PUSH2 0x337B JUMPI PUSH2 0x337B PUSH2 0x59E8 JUMP JUMPDEST SWAP1 PUSH1 0x0 MSTORE PUSH1 0x20 PUSH1 0x0 KECCAK256 SWAP1 PUSH1 0x4 MUL ADD PUSH1 0x2 ADD PUSH1 0x10 SWAP1 SLOAD SWAP1 PUSH2 0x100 EXP SWAP1 DIV PUSH1 0x1 PUSH1 0x1 PUSH1 0x80 SHL SUB AND PUSH1 0x1 PUSH1 0x1 PUSH1 0x80 SHL SUB AND PUSH1 0x22 DUP11 DUP2 SLOAD DUP2 LT PUSH2 0x1035 JUMPI PUSH2 0x1035 PUSH2 0x59E8 JUMP JUMPDEST SWAP1 POP PUSH1 0x0 PUSH2 0x33FA PUSH1 0x22 DUP11 DUP2 SLOAD DUP2 LT PUSH2 0x33D6 JUMPI PUSH2 0x33D6 PUSH2 0x59E8 JUMP JUMPDEST PUSH1 0x0 SWAP2 DUP3 MSTORE PUSH1 0x20 SWAP1 SWAP2 KECCAK256 PUSH1 0x3 PUSH1 0x4 SWAP1 SWAP3 MUL ADD ADD SLOAD PUSH1 0x1 PUSH1 0x1 PUSH1 0x80 SHL SUB AND DUP4 DUP8 PUSH2 0x2D3A JUMP JUMPDEST SWAP1 POP DUP1 ISZERO PUSH2 0x342B JUMPI PUSH1 0x2A SLOAD PUSH1 0x40 DUP1 MLOAD PUSH1 0x20 DUP2 ADD SWAP1 SWAP2 MSTORE PUSH1 0x0 DUP2 MSTORE PUSH2 0x342B SWAP2 PUSH1 0x1 PUSH1 0x1 PUSH1 0xA0 SHL SUB AND SWAP1 DUP12 SWAP1 DUP5 SWAP1 PUSH2 0x2DB0 JUMP JUMPDEST DUP3 DUP7 PUSH1 0x24 SLOAD PUSH2 0x343A SWAP2 SWAP1 PUSH2 0x5B45 JUMP JUMPDEST PUSH2 0x3444 SWAP2 SWAP1 PUSH2 0x5A14 JUMP JUMPDEST PUSH1 0x24 DUP2 SWAP1 SSTORE POP DUP4 DUP8 PUSH1 0x22 DUP12 DUP2 SLOAD DUP2 LT PUSH2 0x345F JUMPI PUSH2 0x345F PUSH2 0x59E8 JUMP JUMPDEST PUSH1 0x0 SWAP2 DUP3 MSTORE PUSH1 0x20 SWAP1 SWAP2 KECCAK256 PUSH1 0x2 PUSH1 0x4 SWAP1 SWAP3 MUL ADD ADD SLOAD PUSH2 0x3486 SWAP2 SWAP1 PUSH1 0x1 PUSH1 0x1 PUSH1 0x80 SHL SUB AND PUSH2 0x5BBF JUMP JUMPDEST PUSH2 0x3490 SWAP2 SWAP1 PUSH2 0x5C59 JUMP JUMPDEST PUSH1 0x22 DUP11 DUP2 SLOAD DUP2 LT PUSH2 0x34A3 JUMPI PUSH2 0x34A3 PUSH2 0x59E8 JUMP JUMPDEST SWAP1 PUSH1 0x0 MSTORE PUSH1 0x20 PUSH1 0x0 KECCAK256 SWAP1 PUSH1 0x4 MUL ADD PUSH1 0x2 ADD PUSH1 0x0 PUSH2 0x100 EXP DUP2 SLOAD DUP2 PUSH1 0x1 PUSH1 0x1 PUSH1 0x80 SHL SUB MUL NOT AND SWAP1 DUP4 PUSH1 0x1 PUSH1 0x1 PUSH1 0x80 SHL SUB AND MUL OR SWAP1 SSTORE POP DUP3 DUP7 PUSH1 0x22 DUP12 DUP2 SLOAD DUP2 LT PUSH2 0x34ED JUMPI PUSH2 0x34ED PUSH2 0x59E8 JUMP JUMPDEST SWAP1 PUSH1 0x0 MSTORE PUSH1 0x20 PUSH1 0x0 KECCAK256 SWAP1 PUSH1 0x4 MUL ADD PUSH1 0x2 ADD PUSH1 0x10 SWAP1 SLOAD SWAP1 PUSH2 0x100 EXP SWAP1 DIV PUSH1 0x1 PUSH1 0x1 PUSH1 0x80 SHL SUB AND PUSH2 0x351C SWAP2 SWAP1 PUSH2 0x5BBF JUMP JUMPDEST PUSH2 0x3526 SWAP2 SWAP1 PUSH2 0x5C59 JUMP JUMPDEST PUSH1 0x22 DUP11 DUP2 SLOAD DUP2 LT PUSH2 0x3539 JUMPI PUSH2 0x3539 PUSH2 0x59E8 JUMP JUMPDEST SWAP1 PUSH1 0x0 MSTORE PUSH1 0x20 PUSH1 0x0 KECCAK256 SWAP1 PUSH1 0x4 MUL ADD PUSH1 0x2 ADD PUSH1 0x10 PUSH2 0x100 EXP DUP2 SLOAD DUP2 PUSH1 0x1 PUSH1 0x1 PUSH1 0x80 SHL SUB MUL NOT AND SWAP1 DUP4 PUSH1 0x1 PUSH1 0x1 PUSH1 0x80 SHL SUB AND MUL OR SWAP1 SSTORE POP PUSH2 0x35C5 PUSH1 0x22 DUP11 DUP2 SLOAD DUP2 LT PUSH2 0x3584 JUMPI PUSH2 0x3584 PUSH2 0x59E8 JUMP JUMPDEST SWAP1 PUSH1 0x0 MSTORE PUSH1 0x20 PUSH1 0x0 KECCAK256 SWAP1 PUSH1 0x4 MUL ADD PUSH1 0x2 ADD PUSH1 0x10 SWAP1 SLOAD SWAP1 PUSH2 0x100 EXP SWAP1 DIV PUSH1 0x1 PUSH1 0x1 PUSH1 0x80 SHL SUB AND PUSH1 0x1 PUSH1 0x1 PUSH1 0x80 SHL SUB AND PUSH1 0x22 DUP12 DUP2 SLOAD DUP2 LT PUSH2 0x1035 JUMPI PUSH2 0x1035 PUSH2 0x59E8 JUMP JUMPDEST PUSH1 0x22 DUP11 DUP2 SLOAD DUP2 LT PUSH2 0x35D8 JUMPI PUSH2 0x35D8 PUSH2 0x59E8 JUMP JUMPDEST SWAP1 PUSH1 0x0 MSTORE PUSH1 0x20 PUSH1 0x0 KECCAK256 SWAP1 PUSH1 0x4 MUL ADD PUSH1 0x3 ADD PUSH1 0x0 PUSH2 0x100 EXP DUP2 SLOAD DUP2 PUSH1 0x1 PUSH1 0x1 PUSH1 0x80 SHL SUB MUL NOT AND SWAP1 DUP4 PUSH1 0x1 PUSH1 0x1 PUSH1 0x80 SHL SUB AND MUL OR SWAP1 SSTORE POP PUSH2 0x3618 CALLER DUP11 DUP14 PUSH2 0x240B JUMP JUMPDEST PUSH1 0x26 SLOAD PUSH1 0x40 MLOAD PUSH4 0x18A8AD87 PUSH1 0xE0 SHL DUP2 MSTORE PUSH1 0x1 PUSH1 0x1 PUSH1 0xA0 SHL SUB SWAP1 SWAP2 AND SWAP1 PUSH4 0x18A8AD87 SWAP1 PUSH2 0x364A SWAP1 ADDRESS SWAP1 DUP8 SWAP1 PUSH1 0x4 ADD PUSH2 0x5BA6 JUMP JUMPDEST PUSH1 0x0 PUSH1 0x40 MLOAD DUP1 DUP4 SUB DUP2 PUSH1 0x0 DUP8 DUP1 EXTCODESIZE ISZERO DUP1 ISZERO PUSH2 0x3664 JUMPI PUSH1 0x0 DUP1 REVERT JUMPDEST POP GAS CALL ISZERO DUP1 ISZERO PUSH2 0x3678 JUMPI RETURNDATASIZE PUSH1 0x0 DUP1 RETURNDATACOPY RETURNDATASIZE PUSH1 0x0 REVERT JUMPDEST POP POP POP POP POP POP PUSH2 0x368B DUP11 DUP10 DUP5 PUSH1 0x1 PUSH2 0x2803 JUMP JUMPDEST PUSH1 0x0 PUSH2 0x3696 DUP12 PUSH2 0x2776 JUMP JUMPDEST SWAP1 POP DUP7 PUSH2 0x36A3 DUP5 DUP4 PUSH2 0x5B45 JUMP JUMPDEST PUSH1 0xD SWAP2 EQ PUSH2 0x36C4 JUMPI PUSH1 0x40 MLOAD PUSH3 0x461BCD PUSH1 0xE5 SHL DUP2 MSTORE PUSH1 0x4 ADD PUSH2 0x8C4 SWAP2 SWAP1 PUSH2 0x5963 JUMP JUMPDEST POP PUSH32 0x1DC8BB69DF2B8E91FBDCBFCF93D951B3F0000F085A95FE3F7946D6161439245D DUP12 DUP5 DUP5 DUP14 PUSH1 0x40 MLOAD PUSH2 0x239A SWAP5 SWAP4 SWAP3 SWAP2 SWAP1 PUSH2 0x5BEA JUMP JUMPDEST PUSH1 0x0 PUSH2 0x1548 DUP4 DUP4 PUSH2 0x4D4A JUMP JUMPDEST PUSH1 0x0 DUP1 PUSH2 0x3711 PUSH2 0x4D74 JUMP JUMPDEST SWAP1 POP PUSH1 0x0 PUSH1 0x8 PUSH2 0x3722 DUP4 PUSH1 0x1 PUSH2 0x5B45 JUMP JUMPDEST PUSH2 0x372C SWAP2 SWAP1 PUSH2 0x5F1A JUMP JUMPDEST SWAP1 POP PUSH1 0x0 DUP1 JUMPDEST PUSH1 0x8 DUP2 LT ISZERO PUSH2 0x37C9 JUMPI DUP4 DUP2 EQ DUP1 PUSH2 0x3748 JUMPI POP DUP3 DUP2 EQ JUMPDEST ISZERO PUSH2 0x3752 JUMPI PUSH2 0x37B7 JUMP JUMPDEST PUSH1 0x22 DUP7 DUP2 SLOAD DUP2 LT PUSH2 0x3765 JUMPI PUSH2 0x3765 PUSH2 0x59E8 JUMP JUMPDEST SWAP1 PUSH1 0x0 MSTORE PUSH1 0x20 PUSH1 0x0 KECCAK256 SWAP1 PUSH1 0x4 MUL ADD PUSH1 0x1 ADD DUP2 PUSH1 0x8 DUP2 LT PUSH2 0x3787 JUMPI PUSH2 0x3787 PUSH2 0x59E8 JUMP JUMPDEST PUSH1 0x8 SWAP2 DUP3 DUP3 DIV ADD SWAP2 SWAP1 MOD PUSH1 0x4 MUL SWAP1 SLOAD SWAP1 PUSH2 0x100 EXP SWAP1 DIV PUSH4 0xFFFFFFFF AND PUSH4 0xFFFFFFFF AND DUP3 PUSH2 0x37B4 SWAP2 SWAP1 PUSH2 0x5B45 JUMP JUMPDEST SWAP2 POP JUMPDEST DUP1 PUSH2 0x37C1 DUP2 PUSH2 0x5A2B JUMP JUMPDEST SWAP2 POP POP PUSH2 0x3732 JUMP JUMPDEST POP PUSH2 0x37DC DUP2 PUSH8 0xDE0B6B3A7640000 PUSH2 0x5B5D JUMP JUMPDEST SWAP1 POP PUSH1 0x0 PUSH2 0x2710 PUSH1 0x2B PUSH1 0x4 ADD SLOAD PUSH1 0x22 DUP9 DUP2 SLOAD DUP2 LT PUSH2 0x37FC JUMPI PUSH2 0x37FC PUSH2 0x59E8 JUMP JUMPDEST PUSH1 0x0 SWAP2 DUP3 MSTORE PUSH1 0x20 SWAP1 SWAP2 KECCAK256 PUSH1 0x4 SWAP1 SWAP2 MUL ADD PUSH1 0x2 ADD SLOAD PUSH2 0x382A SWAP2 SWAP1 PUSH1 0x1 PUSH1 0x80 SHL SWAP1 DIV PUSH1 0x1 PUSH1 0x1 PUSH1 0x80 SHL SUB AND PUSH2 0x5B5D JUMP JUMPDEST PUSH2 0x3834 SWAP2 SWAP1 PUSH2 0x5B92 JUMP JUMPDEST SWAP1 POP PUSH1 0x0 PUSH2 0x2710 PUSH1 0x2B PUSH1 0x5 ADD SLOAD PUSH1 0x22 DUP10 DUP2 SLOAD DUP2 LT PUSH2 0x3854 JUMPI PUSH2 0x3854 PUSH2 0x59E8 JUMP JUMPDEST PUSH1 0x0 SWAP2 DUP3 MSTORE PUSH1 0x20 SWAP1 SWAP2 KECCAK256 PUSH1 0x4 SWAP1 SWAP2 MUL ADD PUSH1 0x2 ADD SLOAD PUSH2 0x3882 SWAP2 SWAP1 PUSH1 0x1 PUSH1 0x80 SHL SWAP1 DIV PUSH1 0x1 PUSH1 0x1 PUSH1 0x80 SHL SUB AND PUSH2 0x5B5D JUMP JUMPDEST PUSH2 0x388C SWAP2 SWAP1 PUSH2 0x5B92 JUMP JUMPDEST SWAP1 POP DUP2 DUP4 GT PUSH2 0x389F JUMPI PUSH1 0x2E SLOAD SWAP6 POP PUSH2 0x390C JUMP JUMPDEST DUP3 DUP3 LT DUP1 ISZERO PUSH2 0x38AD JUMPI POP DUP1 DUP4 LT JUMPDEST ISZERO PUSH2 0x38FE JUMPI PUSH2 0x38BC DUP3 DUP3 PUSH2 0x5A14 JUMP JUMPDEST PUSH1 0x2D SLOAD PUSH1 0x2E SLOAD PUSH2 0x38CC SWAP2 SWAP1 PUSH2 0x5A14 JUMP JUMPDEST PUSH2 0x38D6 DUP5 DUP7 PUSH2 0x5A14 JUMP JUMPDEST PUSH2 0x38E0 SWAP2 SWAP1 PUSH2 0x5B5D JUMP JUMPDEST PUSH2 0x38EA SWAP2 SWAP1 PUSH2 0x5B92 JUMP JUMPDEST PUSH1 0x2E SLOAD PUSH2 0x38F7 SWAP2 SWAP1 PUSH2 0x5A14 JUMP JUMPDEST SWAP6 POP PUSH2 0x390C JUMP JUMPDEST DUP1 DUP4 GT ISZERO PUSH2 0x390C JUMPI PUSH1 0x2D SLOAD SWAP6 POP JUMPDEST PUSH2 0x3918 DUP7 PUSH2 0x2710 PUSH2 0x5A14 JUMP JUMPDEST SWAP8 SWAP7 POP POP POP POP POP POP POP JUMP JUMPDEST DUP2 PUSH1 0x1 PUSH1 0x1 PUSH1 0xA0 SHL SUB AND DUP4 PUSH1 0x1 PUSH1 0x1 PUSH1 0xA0 SHL SUB AND EQ ISZERO PUSH2 0x3997 JUMPI PUSH1 0x40 MLOAD PUSH3 0x461BCD PUSH1 0xE5 SHL DUP2 MSTORE PUSH1 0x20 PUSH1 0x4 DUP3 ADD MSTORE PUSH1 0x29 PUSH1 0x24 DUP3 ADD MSTORE PUSH32 0x455243313135353A2073657474696E6720617070726F76616C20737461747573 PUSH1 0x44 DUP3 ADD MSTORE PUSH9 0x103337B91039B2B633 PUSH1 0xB9 SHL PUSH1 0x64 DUP3 ADD MSTORE PUSH1 0x84 ADD PUSH2 0x8C4 JUMP JUMPDEST PUSH1 0x1 PUSH1 0x1 PUSH1 0xA0 SHL SUB DUP4 DUP2 AND PUSH1 0x0 DUP2 DUP2 MSTORE PUSH1 0x1 PUSH1 0x20 SWAP1 DUP2 MSTORE PUSH1 0x40 DUP1 DUP4 KECCAK256 SWAP5 DUP8 AND DUP1 DUP5 MSTORE SWAP5 DUP3 MSTORE SWAP2 DUP3 SWAP1 KECCAK256 DUP1 SLOAD PUSH1 0xFF NOT AND DUP7 ISZERO ISZERO SWAP1 DUP2 OR SWAP1 SWAP2 SSTORE SWAP2 MLOAD SWAP2 DUP3 MSTORE PUSH32 0x17307EAB39AB6107E8899845AD3D59BD9653F200F220920489CA2B5937696C31 SWAP2 ADD PUSH1 0x40 MLOAD DUP1 SWAP2 SUB SWAP1 LOG3 POP POP POP JUMP JUMPDEST PUSH1 0x1 PUSH1 0x1 PUSH1 0xA0 SHL SUB DUP5 AND PUSH1 0x0 SWAP1 DUP2 MSTORE PUSH1 0x23 PUSH1 0x20 MSTORE PUSH1 0x40 SWAP1 KECCAK256 SLOAD DUP5 SWAP1 ISZERO DUP1 ISZERO SWAP1 PUSH2 0x3A3B JUMPI POP PUSH1 0x26 SLOAD PUSH1 0x1 PUSH1 0x1 PUSH1 0xA0 SHL SUB DUP3 DUP2 AND SWAP2 AND EQ ISZERO JUMPDEST PUSH1 0xB SWAP1 PUSH2 0x3A5B JUMPI PUSH1 0x40 MLOAD PUSH3 0x461BCD PUSH1 0xE5 SHL DUP2 MSTORE PUSH1 0x4 ADD PUSH2 0x8C4 SWAP2 SWAP1 PUSH2 0x5963 JUMP JUMPDEST POP PUSH1 0x1 PUSH1 0x1 PUSH1 0xA0 SHL SUB DUP1 DUP7 AND PUSH1 0x0 SWAP1 DUP2 MSTORE PUSH1 0x23 PUSH1 0x20 MSTORE PUSH1 0x40 DUP2 KECCAK256 SLOAD PUSH1 0x26 SLOAD SWAP1 SWAP3 PUSH2 0x3A85 SWAP2 AND PUSH2 0x2776 JUMP JUMPDEST SWAP1 POP PUSH1 0x0 PUSH1 0x24 SLOAD DUP3 PUSH2 0x3A97 SWAP2 SWAP1 PUSH2 0x5A14 JUMP JUMPDEST SWAP1 POP PUSH1 0x0 PUSH2 0x3AA4 DUP10 PUSH2 0x2776 JUMP JUMPDEST SWAP1 POP PUSH1 0x0 PUSH1 0x22 DUP6 DUP2 SLOAD DUP2 LT PUSH2 0x3ABB JUMPI PUSH2 0x3ABB PUSH2 0x59E8 JUMP JUMPDEST PUSH1 0x0 SWAP2 DUP3 MSTORE PUSH1 0x20 SWAP1 SWAP2 KECCAK256 PUSH1 0x2 PUSH1 0x4 SWAP1 SWAP3 MUL ADD ADD SLOAD PUSH2 0x3AE2 SWAP1 PUSH1 0x1 PUSH1 0x1 PUSH1 0x80 SHL SUB AND DUP4 PUSH2 0x5A14 JUMP JUMPDEST SWAP1 POP PUSH1 0x1 PUSH2 0x3AF0 DUP5 DUP4 PUSH2 0x5B45 JUMP JUMPDEST PUSH1 0x17 SWAP2 LT PUSH2 0x3B11 JUMPI PUSH1 0x40 MLOAD PUSH3 0x461BCD PUSH1 0xE5 SHL DUP2 MSTORE PUSH1 0x4 ADD PUSH2 0x8C4 SWAP2 SWAP1 PUSH2 0x5963 JUMP JUMPDEST POP PUSH1 0x0 PUSH2 0x3B1D DUP7 PUSH2 0x3706 JUMP JUMPDEST SWAP1 POP PUSH1 0x0 PUSH2 0x2710 PUSH1 0x22 DUP9 DUP2 SLOAD DUP2 LT PUSH2 0x3B37 JUMPI PUSH2 0x3B37 PUSH2 0x59E8 JUMP JUMPDEST SWAP1 PUSH1 0x0 MSTORE PUSH1 0x20 PUSH1 0x0 KECCAK256 SWAP1 PUSH1 0x4 MUL ADD PUSH1 0x2 ADD PUSH1 0x0 SWAP1 SLOAD SWAP1 PUSH2 0x100 EXP SWAP1 DIV PUSH1 0x1 PUSH1 0x1 PUSH1 0x80 SHL SUB AND PUSH1 0x1 PUSH1 0x1 PUSH1 0x80 SHL SUB AND PUSH2 0x2710 PUSH1 0x22 DUP11 DUP2 SLOAD DUP2 LT PUSH2 0x3B7B JUMPI PUSH2 0x3B7B PUSH2 0x59E8 JUMP JUMPDEST PUSH1 0x0 SWAP2 DUP3 MSTORE PUSH1 0x20 SWAP1 SWAP2 KECCAK256 PUSH1 0x4 SWAP1 SWAP2 MUL ADD PUSH1 0x2 ADD SLOAD PUSH2 0x3BA9 SWAP2 SWAP1 PUSH1 0x1 PUSH1 0x80 SHL SWAP1 DIV PUSH1 0x1 PUSH1 0x1 PUSH1 0x80 SHL SUB AND PUSH2 0x5B5D JUMP JUMPDEST PUSH2 0x3BB3 SWAP2 SWAP1 PUSH2 0x5B5D JUMP JUMPDEST PUSH2 0x3BBD SWAP2 SWAP1 PUSH2 0x5B5D JUMP JUMPDEST SWAP1 POP PUSH1 0x0 DUP11 DUP7 PUSH1 0x24 SLOAD PUSH2 0x3BD0 SWAP2 SWAP1 PUSH2 0x5B45 JUMP JUMPDEST PUSH2 0x3BDA SWAP2 SWAP1 PUSH2 0x5A14 JUMP JUMPDEST SWAP1 POP PUSH1 0x0 DUP12 DUP8 PUSH1 0x22 DUP12 DUP2 SLOAD DUP2 LT PUSH2 0x3BF3 JUMPI PUSH2 0x3BF3 PUSH2 0x59E8 JUMP JUMPDEST PUSH1 0x0 SWAP2 DUP3 MSTORE PUSH1 0x20 SWAP1 SWAP2 KECCAK256 PUSH1 0x4 SWAP1 SWAP2 MUL ADD PUSH1 0x2 ADD SLOAD PUSH2 0x3C21 SWAP2 SWAP1 PUSH1 0x1 PUSH1 0x80 SHL SWAP1 DIV PUSH1 0x1 PUSH1 0x1 PUSH1 0x80 SHL SUB AND PUSH2 0x5B45 JUMP JUMPDEST PUSH2 0x3C2B SWAP2 SWAP1 PUSH2 0x5A14 JUMP JUMPDEST SWAP1 POP PUSH1 0x0 DUP14 DUP7 PUSH1 0x22 DUP13 DUP2 SLOAD DUP2 LT PUSH2 0x3C44 JUMPI PUSH2 0x3C44 PUSH2 0x59E8 JUMP JUMPDEST PUSH1 0x0 SWAP2 DUP3 MSTORE PUSH1 0x20 SWAP1 SWAP2 KECCAK256 PUSH1 0x2 PUSH1 0x4 SWAP1 SWAP3 MUL ADD ADD SLOAD PUSH2 0x3C6B SWAP2 SWAP1 PUSH1 0x1 PUSH1 0x1 PUSH1 0x80 SHL SUB AND PUSH2 0x5B45 JUMP JUMPDEST PUSH2 0x3C75 SWAP2 SWAP1 PUSH2 0x5A14 JUMP JUMPDEST SWAP1 POP PUSH1 0x0 PUSH2 0x3C85 DUP7 PUSH2 0x2710 PUSH2 0x5A14 JUMP JUMPDEST PUSH2 0x3C8F SWAP1 DUP9 PUSH2 0x5B5D JUMP JUMPDEST PUSH2 0x3C9B PUSH2 0x2710 DUP5 PUSH2 0x5B5D JUMP JUMPDEST PUSH2 0x3CA5 SWAP2 SWAP1 PUSH2 0x5A14 JUMP JUMPDEST PUSH2 0x3CB1 DUP8 PUSH2 0x2710 PUSH2 0x5A14 JUMP JUMPDEST PUSH2 0x3CBB SWAP1 DUP12 PUSH2 0x5B5D JUMP JUMPDEST PUSH2 0x3CC7 PUSH2 0x2710 DUP7 PUSH2 0x5B5D JUMP JUMPDEST PUSH2 0x3CD1 SWAP2 SWAP1 PUSH2 0x5A14 JUMP JUMPDEST PUSH2 0x3CDB SWAP2 SWAP1 PUSH2 0x5B5D JUMP JUMPDEST SWAP1 POP PUSH1 0x18 DUP6 DUP3 LT ISZERO PUSH2 0x3D00 JUMPI PUSH1 0x40 MLOAD PUSH3 0x461BCD PUSH1 0xE5 SHL DUP2 MSTORE PUSH1 0x4 ADD PUSH2 0x8C4 SWAP2 SWAP1 PUSH2 0x5963 JUMP JUMPDEST POP DUP4 PUSH1 0x24 DUP2 SWAP1 SSTORE POP DUP3 PUSH1 0x22 DUP13 DUP2 SLOAD DUP2 LT PUSH2 0x3D1C JUMPI PUSH2 0x3D1C PUSH2 0x59E8 JUMP JUMPDEST SWAP1 PUSH1 0x0 MSTORE PUSH1 0x20 PUSH1 0x0 KECCAK256 SWAP1 PUSH1 0x4 MUL ADD PUSH1 0x2 ADD PUSH1 0x10 PUSH2 0x100 EXP DUP2 SLOAD DUP2 PUSH1 0x1 PUSH1 0x1 PUSH1 0x80 SHL SUB MUL NOT AND SWAP1 DUP4 PUSH1 0x1 PUSH1 0x1 PUSH1 0x80 SHL SUB AND MUL OR SWAP1 SSTORE POP DUP2 PUSH1 0x22 DUP13 DUP2 SLOAD DUP2 LT PUSH2 0x3D65 JUMPI PUSH2 0x3D65 PUSH2 0x59E8 JUMP JUMPDEST SWAP1 PUSH1 0x0 MSTORE PUSH1 0x20 PUSH1 0x0 KECCAK256 SWAP1 PUSH1 0x4 MUL ADD PUSH1 0x2 ADD PUSH1 0x0 PUSH2 0x100 EXP DUP2 SLOAD DUP2 PUSH1 0x1 PUSH1 0x1 PUSH1 0x80 SHL SUB MUL NOT AND SWAP1 DUP4 PUSH1 0x1 PUSH1 0x1 PUSH1 0x80 SHL SUB AND MUL OR SWAP1 SSTORE POP POP POP POP POP POP POP PUSH1 0x0 PUSH2 0x3DAA PUSH2 0x4D74 JUMP JUMPDEST SWAP1 POP PUSH1 0x0 PUSH1 0x8 PUSH2 0x3DB8 PUSH2 0x4D74 JUMP JUMPDEST PUSH2 0x3DC3 SWAP1 PUSH1 0x1 PUSH2 0x5B45 JUMP JUMPDEST PUSH2 0x3DCD SWAP2 SWAP1 PUSH2 0x5F1A JUMP JUMPDEST SWAP1 POP PUSH8 0xDE0B6B3A7640000 DUP6 DUP12 ADD DIV PUSH1 0x22 DUP9 DUP2 SLOAD DUP2 LT PUSH2 0x3DEF JUMPI PUSH2 0x3DEF PUSH2 0x59E8 JUMP JUMPDEST SWAP1 PUSH1 0x0 MSTORE PUSH1 0x20 PUSH1 0x0 KECCAK256 SWAP1 PUSH1 0x4 MUL ADD PUSH1 0x1 ADD DUP4 PUSH1 0x8 DUP2 LT PUSH2 0x3E11 JUMPI PUSH2 0x3E11 PUSH2 0x59E8 JUMP JUMPDEST PUSH1 0x8 SWAP2 DUP3 DUP3 DIV ADD SWAP2 SWAP1 MOD PUSH1 0x4 MUL DUP3 DUP3 DUP3 SWAP1 SLOAD SWAP1 PUSH2 0x100 EXP SWAP1 DIV PUSH4 0xFFFFFFFF AND ADD SWAP3 POP PUSH2 0x100 EXP DUP2 SLOAD DUP2 PUSH4 0xFFFFFFFF MUL NOT AND SWAP1 DUP4 PUSH4 0xFFFFFFFF AND MUL OR SWAP1 SSTORE POP PUSH1 0x1 PUSH1 0x22 DUP9 DUP2 SLOAD DUP2 LT PUSH2 0x3E64 JUMPI PUSH2 0x3E64 PUSH2 0x59E8 JUMP JUMPDEST SWAP1 PUSH1 0x0 MSTORE PUSH1 0x20 PUSH1 0x0 KECCAK256 SWAP1 PUSH1 0x4 MUL ADD PUSH1 0x1 ADD DUP3 PUSH1 0x8 DUP2 LT PUSH2 0x3E86 JUMPI PUSH2 0x3E86 PUSH2 0x59E8 JUMP JUMPDEST PUSH1 0x8 SWAP2 DUP3 DUP3 DIV ADD SWAP2 SWAP1 MOD PUSH1 0x4 MUL SWAP1 SLOAD SWAP1 PUSH2 0x100 EXP SWAP1 DIV PUSH4 0xFFFFFFFF AND PUSH4 0xFFFFFFFF AND GT ISZERO PUSH2 0x3F0F JUMPI PUSH1 0x1 PUSH1 0x22 DUP9 DUP2 SLOAD DUP2 LT PUSH2 0x3EC3 JUMPI PUSH2 0x3EC3 PUSH2 0x59E8 JUMP JUMPDEST SWAP1 PUSH1 0x0 MSTORE PUSH1 0x20 PUSH1 0x0 KECCAK256 SWAP1 PUSH1 0x4 MUL ADD PUSH1 0x1 ADD DUP3 PUSH1 0x8 DUP2 LT PUSH2 0x3EE5 JUMPI PUSH2 0x3EE5 PUSH2 0x59E8 JUMP JUMPDEST PUSH1 0x8 SWAP2 DUP3 DUP3 DIV ADD SWAP2 SWAP1 MOD PUSH1 0x4 MUL PUSH2 0x100 EXP DUP2 SLOAD DUP2 PUSH4 0xFFFFFFFF MUL NOT AND SWAP1 DUP4 PUSH4 0xFFFFFFFF AND MUL OR SWAP1 SSTORE POP JUMPDEST DUP11 ISZERO PUSH2 0x3F84 JUMPI PUSH2 0x3F22 DUP13 DUP11 DUP14 PUSH1 0x1 PUSH2 0x2803 JUMP JUMPDEST PUSH1 0x0 PUSH2 0x3F2D DUP14 PUSH2 0x2776 JUMP JUMPDEST SWAP1 POP PUSH1 0x22 DUP9 DUP2 SLOAD DUP2 LT PUSH2 0x3F42 JUMPI PUSH2 0x3F42 PUSH2 0x59E8 JUMP JUMPDEST PUSH1 0x0 SWAP2 DUP3 MSTORE PUSH1 0x20 SWAP1 SWAP2 KECCAK256 PUSH1 0x2 PUSH1 0x4 SWAP1 SWAP3 MUL ADD ADD SLOAD PUSH1 0xD SWAP1 PUSH1 0x1 PUSH1 0x1 PUSH1 0x80 SHL SUB AND DUP3 EQ PUSH2 0x3F81 JUMPI PUSH1 0x40 MLOAD PUSH3 0x461BCD PUSH1 0xE5 SHL DUP2 MSTORE PUSH1 0x4 ADD PUSH2 0x8C4 SWAP2 SWAP1 PUSH2 0x5963 JUMP JUMPDEST POP POP JUMPDEST DUP10 ISZERO PUSH2 0x3FA3 JUMPI PUSH1 0x26 SLOAD PUSH2 0x3FA3 SWAP1 PUSH1 0x1 PUSH1 0x1 PUSH1 0xA0 SHL SUB AND DUP11 DUP13 PUSH1 0x1 PUSH2 0x2803 JUMP JUMPDEST PUSH1 0x40 DUP1 MLOAD PUSH1 0x1 PUSH1 0x1 PUSH1 0xA0 SHL SUB DUP15 DUP2 AND DUP3 MSTORE CALLER PUSH1 0x20 DUP4 ADD MSTORE DUP2 DUP4 ADD DUP7 SWAP1 MSTORE PUSH1 0x60 DUP3 ADD DUP9 SWAP1 MSTORE PUSH1 0x80 DUP3 ADD DUP15 SWAP1 MSTORE PUSH1 0xA0 DUP3 ADD DUP14 SWAP1 MSTORE DUP12 AND PUSH1 0xC0 DUP3 ADD MSTORE SWAP1 MLOAD PUSH32 0x236C64FD115DC00CAFEEAF44B6CA2AF23A66BA0E282852756756B073C5515075 SWAP2 DUP2 SWAP1 SUB PUSH1 0xE0 ADD SWAP1 LOG1 PUSH32 0xF10FC780C78F994A214C79A2AE8D8B7BFE7CC3F0F935A8F05A29525E71D7F127 DUP13 PUSH1 0x22 DUP10 DUP2 SLOAD DUP2 LT PUSH2 0x403D JUMPI PUSH2 0x403D PUSH2 0x59E8 JUMP JUMPDEST SWAP1 PUSH1 0x0 MSTORE PUSH1 0x20 PUSH1 0x0 KECCAK256 SWAP1 PUSH1 0x4 MUL ADD PUSH1 0x2 ADD PUSH1 0x0 SWAP1 SLOAD SWAP1 PUSH2 0x100 EXP SWAP1 DIV PUSH1 0x1 PUSH1 0x1 PUSH1 0x80 SHL SUB AND PUSH1 0x22 DUP11 DUP2 SLOAD DUP2 LT PUSH2 0x4075 JUMPI PUSH2 0x4075 PUSH2 0x59E8 JUMP JUMPDEST SWAP1 PUSH1 0x0 MSTORE PUSH1 0x20 PUSH1 0x0 KECCAK256 SWAP1 PUSH1 0x4 MUL ADD PUSH1 0x2 ADD PUSH1 0x10 SWAP1 SLOAD SWAP1 PUSH2 0x100 EXP SWAP1 DIV PUSH1 0x1 PUSH1 0x1 PUSH1 0x80 SHL SUB AND PUSH1 0x40 MLOAD PUSH2 0x1467 SWAP4 SWAP3 SWAP2 SWAP1 PUSH2 0x5C81 JUMP JUMPDEST DUP1 MLOAD PUSH2 0xE6E SWAP1 PUSH1 0x2 SWAP1 PUSH1 0x20 DUP5 ADD SWAP1 PUSH2 0x4F07 JUMP JUMPDEST PUSH1 0x1 PUSH1 0x1 PUSH1 0xA0 SHL SUB DUP3 AND PUSH1 0x0 SWAP1 DUP2 MSTORE PUSH1 0x23 PUSH1 0x20 MSTORE PUSH1 0x40 DUP2 KECCAK256 SLOAD DUP4 SWAP1 ISZERO DUP1 ISZERO SWAP1 PUSH2 0x40F3 JUMPI POP PUSH1 0x26 SLOAD PUSH1 0x1 PUSH1 0x1 PUSH1 0xA0 SHL SUB DUP3 DUP2 AND SWAP2 AND EQ ISZERO JUMPDEST PUSH1 0xB SWAP1 PUSH2 0x4113 JUMPI PUSH1 0x40 MLOAD PUSH3 0x461BCD PUSH1 0xE5 SHL DUP2 MSTORE PUSH1 0x4 ADD PUSH2 0x8C4 SWAP2 SWAP1 PUSH2 0x5963 JUMP JUMPDEST POP PUSH1 0x1 PUSH1 0x1 PUSH1 0xA0 SHL SUB DUP5 AND PUSH1 0x0 SWAP1 DUP2 MSTORE PUSH1 0x23 PUSH1 0x20 MSTORE PUSH1 0x40 SWAP1 KECCAK256 SLOAD PUSH1 0x22 DUP1 SLOAD PUSH2 0x2F9F SWAP2 DUP7 SWAP2 DUP5 SWAP1 DUP2 LT PUSH2 0x4147 JUMPI PUSH2 0x4147 PUSH2 0x59E8 JUMP JUMPDEST PUSH1 0x0 SWAP2 DUP3 MSTORE PUSH1 0x20 SWAP1 SWAP2 KECCAK256 PUSH1 0x2 PUSH1 0x4 SWAP1 SWAP3 MUL ADD ADD SLOAD PUSH1 0x22 DUP1 SLOAD PUSH1 0x1 PUSH1 0x1 PUSH1 0x80 SHL SUB SWAP1 SWAP3 AND SWAP2 DUP6 SWAP1 DUP2 LT PUSH2 0x417B JUMPI PUSH2 0x417B PUSH2 0x59E8 JUMP JUMPDEST PUSH1 0x0 SWAP2 DUP3 MSTORE PUSH1 0x20 SWAP1 SWAP2 KECCAK256 PUSH1 0x4 SWAP1 SWAP2 MUL ADD PUSH1 0x2 ADD SLOAD PUSH1 0x1 PUSH1 0x80 SHL SWAP1 DIV PUSH1 0x1 PUSH1 0x1 PUSH1 0x80 SHL SUB AND PUSH2 0x41A8 DUP6 PUSH2 0x3706 JUMP JUMPDEST PUSH2 0x4D93 JUMP JUMPDEST PUSH1 0x1 PUSH1 0x1 PUSH1 0xA0 SHL SUB DUP3 AND PUSH1 0x0 SWAP1 DUP2 MSTORE PUSH1 0x23 PUSH1 0x20 MSTORE PUSH1 0x40 DUP2 KECCAK256 SLOAD DUP4 SWAP1 ISZERO DUP1 ISZERO SWAP1 PUSH2 0x41E4 JUMPI POP PUSH1 0x26 SLOAD PUSH1 0x1 PUSH1 0x1 PUSH1 0xA0 SHL SUB DUP3 DUP2 AND SWAP2 AND EQ ISZERO JUMPDEST PUSH1 0xB SWAP1 PUSH2 0x4204 JUMPI PUSH1 0x40 MLOAD PUSH3 0x461BCD PUSH1 0xE5 SHL DUP2 MSTORE PUSH1 0x4 ADD PUSH2 0x8C4 SWAP2 SWAP1 PUSH2 0x5963 JUMP JUMPDEST POP PUSH1 0x1 PUSH1 0x1 PUSH1 0xA0 SHL SUB DUP5 AND PUSH1 0x0 SWAP1 DUP2 MSTORE PUSH1 0x23 PUSH1 0x20 MSTORE PUSH1 0x40 SWAP1 KECCAK256 SLOAD PUSH1 0x22 DUP1 SLOAD PUSH2 0x2F9F SWAP2 DUP7 SWAP2 DUP5 SWAP1 DUP2 LT PUSH2 0x4238 JUMPI PUSH2 0x4238 PUSH2 0x59E8 JUMP JUMPDEST SWAP1 PUSH1 0x0 MSTORE PUSH1 0x20 PUSH1 0x0 KECCAK256 SWAP1 PUSH1 0x4 MUL ADD PUSH1 0x2 ADD PUSH1 0x10 SWAP1 SLOAD SWAP1 PUSH2 0x100 EXP SWAP1 DIV PUSH1 0x1 PUSH1 0x1 PUSH1 0x80 SHL SUB AND PUSH1 0x1 PUSH1 0x1 PUSH1 0x80 SHL SUB AND PUSH1 0x22 DUP5 DUP2 SLOAD DUP2 LT PUSH2 0x4279 JUMPI PUSH2 0x4279 PUSH2 0x59E8 JUMP JUMPDEST PUSH1 0x0 SWAP2 DUP3 MSTORE PUSH1 0x20 SWAP1 SWAP2 KECCAK256 PUSH1 0x2 PUSH1 0x4 SWAP1 SWAP3 MUL ADD ADD SLOAD PUSH1 0x1 PUSH1 0x1 PUSH1 0x80 SHL SUB AND PUSH2 0x41A8 DUP6 PUSH2 0x3706 JUMP JUMPDEST PUSH1 0x0 PUSH2 0x8F0 DUP3 SLOAD SWAP1 JUMP JUMPDEST PUSH1 0x1 PUSH1 0x1 PUSH1 0xA0 SHL SUB DUP5 AND PUSH2 0x42CF JUMPI PUSH1 0x40 MLOAD PUSH3 0x461BCD PUSH1 0xE5 SHL DUP2 MSTORE PUSH1 0x4 ADD PUSH2 0x8C4 SWAP1 PUSH2 0x5DDF JUMP JUMPDEST CALLER PUSH2 0x42DF DUP2 DUP8 DUP8 PUSH2 0x2E21 DUP9 PUSH2 0x4BD4 JUMP JUMPDEST PUSH1 0x0 DUP5 DUP2 MSTORE PUSH1 0x20 DUP2 DUP2 MSTORE PUSH1 0x40 DUP1 DUP4 KECCAK256 PUSH1 0x1 PUSH1 0x1 PUSH1 0xA0 SHL SUB DUP11 AND DUP5 MSTORE SWAP1 SWAP2 MSTORE SWAP1 KECCAK256 SLOAD DUP4 DUP2 LT ISZERO PUSH2 0x4320 JUMPI PUSH1 0x40 MLOAD PUSH3 0x461BCD PUSH1 0xE5 SHL DUP2 MSTORE PUSH1 0x4 ADD PUSH2 0x8C4 SWAP1 PUSH2 0x5E24 JUMP JUMPDEST PUSH1 0x0 DUP6 DUP2 MSTORE PUSH1 0x20 DUP2 DUP2 MSTORE PUSH1 0x40 DUP1 DUP4 KECCAK256 PUSH1 0x1 PUSH1 0x1 PUSH1 0xA0 SHL SUB DUP12 DUP2 AND DUP6 MSTORE SWAP3 MSTORE DUP1 DUP4 KECCAK256 DUP8 DUP6 SUB SWAP1 SSTORE SWAP1 DUP9 AND DUP3 MSTORE DUP2 KECCAK256 DUP1 SLOAD DUP7 SWAP3 SWAP1 PUSH2 0x435D SWAP1 DUP5 SWAP1 PUSH2 0x5B45 JUMP JUMPDEST SWAP1 SWAP2 SSTORE POP POP PUSH1 0x40 DUP1 MLOAD DUP7 DUP2 MSTORE PUSH1 0x20 DUP2 ADD DUP7 SWAP1 MSTORE PUSH1 0x1 PUSH1 0x1 PUSH1 0xA0 SHL SUB DUP1 DUP10 AND SWAP3 DUP11 DUP3 AND SWAP3 SWAP2 DUP7 AND SWAP2 PUSH1 0x0 DUP1 MLOAD PUSH1 0x20 PUSH2 0x611A DUP4 CODECOPY DUP2 MLOAD SWAP2 MSTORE SWAP2 ADD PUSH1 0x40 MLOAD DUP1 SWAP2 SUB SWAP1 LOG4 PUSH2 0xA83 DUP3 DUP9 DUP9 DUP9 DUP9 DUP9 PUSH2 0x4C1F JUMP JUMPDEST PUSH1 0x1 PUSH1 0x1 PUSH1 0xA0 SHL SUB DUP4 AND PUSH2 0x43D1 JUMPI PUSH1 0x40 MLOAD PUSH3 0x461BCD PUSH1 0xE5 SHL DUP2 MSTORE PUSH1 0x4 ADD PUSH2 0x8C4 SWAP1 PUSH2 0x5E93 JUMP JUMPDEST CALLER PUSH2 0x4400 DUP2 DUP6 PUSH1 0x0 PUSH2 0x43E2 DUP8 PUSH2 0x4BD4 JUMP JUMPDEST PUSH2 0x43EB DUP8 PUSH2 0x4BD4 JUMP JUMPDEST PUSH1 0x40 MLOAD DUP1 PUSH1 0x20 ADD PUSH1 0x40 MSTORE DUP1 PUSH1 0x0 DUP2 MSTORE POP PUSH2 0x4800 JUMP JUMPDEST PUSH1 0x0 DUP4 DUP2 MSTORE PUSH1 0x20 DUP2 DUP2 MSTORE PUSH1 0x40 DUP1 DUP4 KECCAK256 PUSH1 0x1 PUSH1 0x1 PUSH1 0xA0 SHL SUB DUP9 AND DUP5 MSTORE SWAP1 SWAP2 MSTORE SWAP1 KECCAK256 SLOAD DUP3 DUP2 LT ISZERO PUSH2 0x4441 JUMPI PUSH1 0x40 MLOAD PUSH3 0x461BCD PUSH1 0xE5 SHL DUP2 MSTORE PUSH1 0x4 ADD PUSH2 0x8C4 SWAP1 PUSH2 0x5ED6 JUMP JUMPDEST PUSH1 0x0 DUP5 DUP2 MSTORE PUSH1 0x20 DUP2 DUP2 MSTORE PUSH1 0x40 DUP1 DUP4 KECCAK256 PUSH1 0x1 PUSH1 0x1 PUSH1 0xA0 SHL SUB DUP10 DUP2 AND DUP1 DUP7 MSTORE SWAP2 DUP5 MSTORE DUP3 DUP6 KECCAK256 DUP9 DUP8 SUB SWAP1 SSTORE DUP3 MLOAD DUP10 DUP2 MSTORE SWAP4 DUP5 ADD DUP9 SWAP1 MSTORE SWAP1 SWAP3 SWAP1 DUP7 AND SWAP2 PUSH1 0x0 DUP1 MLOAD PUSH1 0x20 PUSH2 0x611A DUP4 CODECOPY DUP2 MLOAD SWAP2 MSTORE SWAP2 ADD PUSH1 0x40 MLOAD DUP1 SWAP2 SUB SWAP1 LOG4 POP POP POP POP POP JUMP JUMPDEST PUSH1 0x0 DUP2 DUP2 MSTORE PUSH1 0x1 DUP4 ADD PUSH1 0x20 MSTORE PUSH1 0x40 DUP2 KECCAK256 SLOAD PUSH2 0x44E1 JUMPI POP DUP2 SLOAD PUSH1 0x1 DUP2 DUP2 ADD DUP5 SSTORE PUSH1 0x0 DUP5 DUP2 MSTORE PUSH1 0x20 DUP1 DUP3 KECCAK256 SWAP1 SWAP4 ADD DUP5 SWAP1 SSTORE DUP5 SLOAD DUP5 DUP3 MSTORE DUP3 DUP7 ADD SWAP1 SWAP4 MSTORE PUSH1 0x40 SWAP1 KECCAK256 SWAP2 SWAP1 SWAP2 SSTORE PUSH2 0x8F0 JUMP JUMPDEST POP PUSH1 0x0 PUSH2 0x8F0 JUMP JUMPDEST PUSH1 0x40 DUP1 MLOAD PUSH1 0x0 DUP1 DUP3 MSTORE PUSH1 0x20 DUP3 ADD SWAP1 SWAP3 MSTORE PUSH1 0x1 PUSH1 0x1 PUSH1 0xA0 SHL SUB DUP5 AND SWAP1 DUP4 SWAP1 PUSH1 0x40 MLOAD PUSH2 0x4513 SWAP2 SWAP1 PUSH2 0x5F2E JUMP JUMPDEST PUSH1 0x0 PUSH1 0x40 MLOAD DUP1 DUP4 SUB DUP2 DUP6 DUP8 GAS CALL SWAP3 POP POP POP RETURNDATASIZE DUP1 PUSH1 0x0 DUP2 EQ PUSH2 0x4550 JUMPI PUSH1 0x40 MLOAD SWAP2 POP PUSH1 0x1F NOT PUSH1 0x3F RETURNDATASIZE ADD AND DUP3 ADD PUSH1 0x40 MSTORE RETURNDATASIZE DUP3 MSTORE RETURNDATASIZE PUSH1 0x0 PUSH1 0x20 DUP5 ADD RETURNDATACOPY PUSH2 0x4555 JUMP JUMPDEST PUSH1 0x60 SWAP2 POP JUMPDEST POP SWAP1 SWAP2 POP PUSH1 0x19 SWAP1 POP DUP2 PUSH2 0xB03 JUMPI PUSH1 0x40 MLOAD PUSH3 0x461BCD PUSH1 0xE5 SHL DUP2 MSTORE PUSH1 0x4 ADD PUSH2 0x8C4 SWAP2 SWAP1 PUSH2 0x5963 JUMP JUMPDEST PUSH1 0x0 DUP1 DUP5 PUSH1 0x1 PUSH1 0x1 PUSH1 0xA0 SHL SUB AND PUSH4 0xA9059CBB DUP6 DUP6 PUSH1 0x40 MLOAD PUSH1 0x24 ADD PUSH2 0x45A0 SWAP3 SWAP2 SWAP1 PUSH2 0x5BA6 JUMP JUMPDEST PUSH1 0x40 MLOAD PUSH1 0x20 DUP2 DUP4 SUB SUB DUP2 MSTORE SWAP1 PUSH1 0x40 MSTORE SWAP1 PUSH1 0xE0 SHL PUSH1 0x20 DUP3 ADD DUP1 MLOAD PUSH1 0x1 PUSH1 0x1 PUSH1 0xE0 SHL SUB DUP4 DUP2 DUP4 AND OR DUP4 MSTORE POP POP POP POP PUSH1 0x40 MLOAD PUSH2 0x45D9 SWAP2 SWAP1 PUSH2 0x5F2E JUMP JUMPDEST PUSH1 0x0 PUSH1 0x40 MLOAD DUP1 DUP4 SUB DUP2 PUSH1 0x0 DUP7 GAS CALL SWAP2 POP POP RETURNDATASIZE DUP1 PUSH1 0x0 DUP2 EQ PUSH2 0x4616 JUMPI PUSH1 0x40 MLOAD SWAP2 POP PUSH1 0x1F NOT PUSH1 0x3F RETURNDATASIZE ADD AND DUP3 ADD PUSH1 0x40 MSTORE RETURNDATASIZE DUP3 MSTORE RETURNDATASIZE PUSH1 0x0 PUSH1 0x20 DUP5 ADD RETURNDATACOPY PUSH2 0x461B JUMP JUMPDEST PUSH1 0x60 SWAP2 POP JUMPDEST POP SWAP2 POP SWAP2 POP DUP2 DUP1 ISZERO PUSH2 0x4645 JUMPI POP DUP1 MLOAD ISZERO DUP1 PUSH2 0x4645 JUMPI POP DUP1 DUP1 PUSH1 0x20 ADD SWAP1 MLOAD DUP2 ADD SWAP1 PUSH2 0x4645 SWAP2 SWAP1 PUSH2 0x5CC5 JUMP JUMPDEST PUSH1 0x1A SWAP1 PUSH2 0x1743 JUMPI PUSH1 0x40 MLOAD PUSH3 0x461BCD PUSH1 0xE5 SHL DUP2 MSTORE PUSH1 0x4 ADD PUSH2 0x8C4 SWAP2 SWAP1 PUSH2 0x5963 JUMP JUMPDEST PUSH1 0x60 PUSH1 0x0 PUSH2 0x4674 DUP4 PUSH1 0x2 PUSH2 0x5B5D JUMP JUMPDEST PUSH2 0x467F SWAP1 PUSH1 0x2 PUSH2 0x5B45 JUMP JUMPDEST PUSH1 0x1 PUSH1 0x1 PUSH1 0x40 SHL SUB DUP2 GT ISZERO PUSH2 0x4696 JUMPI PUSH2 0x4696 PUSH2 0x5242 JUMP JUMPDEST PUSH1 0x40 MLOAD SWAP1 DUP1 DUP3 MSTORE DUP1 PUSH1 0x1F ADD PUSH1 0x1F NOT AND PUSH1 0x20 ADD DUP3 ADD PUSH1 0x40 MSTORE DUP1 ISZERO PUSH2 0x46C0 JUMPI PUSH1 0x20 DUP3 ADD DUP2 DUP1 CALLDATASIZE DUP4 CALLDATACOPY ADD SWAP1 POP JUMPDEST POP SWAP1 POP PUSH1 0x3 PUSH1 0xFC SHL DUP2 PUSH1 0x0 DUP2 MLOAD DUP2 LT PUSH2 0x46DB JUMPI PUSH2 0x46DB PUSH2 0x59E8 JUMP JUMPDEST PUSH1 0x20 ADD ADD SWAP1 PUSH1 0x1 PUSH1 0x1 PUSH1 0xF8 SHL SUB NOT AND SWAP1 DUP2 PUSH1 0x0 BYTE SWAP1 MSTORE8 POP PUSH1 0xF PUSH1 0xFB SHL DUP2 PUSH1 0x1 DUP2 MLOAD DUP2 LT PUSH2 0x470A JUMPI PUSH2 0x470A PUSH2 0x59E8 JUMP JUMPDEST PUSH1 0x20 ADD ADD SWAP1 PUSH1 0x1 PUSH1 0x1 PUSH1 0xF8 SHL SUB NOT AND SWAP1 DUP2 PUSH1 0x0 BYTE SWAP1 MSTORE8 POP PUSH1 0x0 PUSH2 0x472E DUP5 PUSH1 0x2 PUSH2 0x5B5D JUMP JUMPDEST PUSH2 0x4739 SWAP1 PUSH1 0x1 PUSH2 0x5B45 JUMP JUMPDEST SWAP1 POP JUMPDEST PUSH1 0x1 DUP2 GT ISZERO PUSH2 0x47B1 JUMPI PUSH16 0x181899199A1A9B1B9C1CB0B131B232B3 PUSH1 0x81 SHL DUP6 PUSH1 0xF AND PUSH1 0x10 DUP2 LT PUSH2 0x476D JUMPI PUSH2 0x476D PUSH2 0x59E8 JUMP JUMPDEST BYTE PUSH1 0xF8 SHL DUP3 DUP3 DUP2 MLOAD DUP2 LT PUSH2 0x4783 JUMPI PUSH2 0x4783 PUSH2 0x59E8 JUMP JUMPDEST PUSH1 0x20 ADD ADD SWAP1 PUSH1 0x1 PUSH1 0x1 PUSH1 0xF8 SHL SUB NOT AND SWAP1 DUP2 PUSH1 0x0 BYTE SWAP1 MSTORE8 POP PUSH1 0x4 SWAP5 SWAP1 SWAP5 SHR SWAP4 PUSH2 0x47AA DUP2 PUSH2 0x5F4A JUMP JUMPDEST SWAP1 POP PUSH2 0x473C JUMP JUMPDEST POP DUP4 ISZERO PUSH2 0x1548 JUMPI PUSH1 0x40 MLOAD PUSH3 0x461BCD PUSH1 0xE5 SHL DUP2 MSTORE PUSH1 0x20 PUSH1 0x4 DUP3 ADD DUP2 SWAP1 MSTORE PUSH1 0x24 DUP3 ADD MSTORE PUSH32 0x537472696E67733A20686578206C656E67746820696E73756666696369656E74 PUSH1 0x44 DUP3 ADD MSTORE PUSH1 0x64 ADD PUSH2 0x8C4 JUMP JUMPDEST PUSH1 0x1 PUSH1 0x1 PUSH1 0xA0 SHL SUB DUP6 AND PUSH2 0x4887 JUMPI PUSH1 0x0 JUMPDEST DUP4 MLOAD DUP2 LT ISZERO PUSH2 0x4885 JUMPI DUP3 DUP2 DUP2 MLOAD DUP2 LT PUSH2 0x482C JUMPI PUSH2 0x482C PUSH2 0x59E8 JUMP JUMPDEST PUSH1 0x20 MUL PUSH1 0x20 ADD ADD MLOAD PUSH1 0x3 PUSH1 0x0 DUP7 DUP5 DUP2 MLOAD DUP2 LT PUSH2 0x484A JUMPI PUSH2 0x484A PUSH2 0x59E8 JUMP JUMPDEST PUSH1 0x20 MUL PUSH1 0x20 ADD ADD MLOAD DUP2 MSTORE PUSH1 0x20 ADD SWAP1 DUP2 MSTORE PUSH1 0x20 ADD PUSH1 0x0 KECCAK256 PUSH1 0x0 DUP3 DUP3 SLOAD PUSH2 0x486F SWAP2 SWAP1 PUSH2 0x5B45 JUMP JUMPDEST SWAP1 SWAP2 SSTORE POP PUSH2 0x487E SWAP1 POP DUP2 PUSH2 0x5A2B JUMP JUMPDEST SWAP1 POP PUSH2 0x4811 JUMP JUMPDEST POP JUMPDEST PUSH1 0x1 PUSH1 0x1 PUSH1 0xA0 SHL SUB DUP5 AND PUSH2 0x1743 JUMPI PUSH1 0x0 JUMPDEST DUP4 MLOAD DUP2 LT ISZERO PUSH2 0xA83 JUMPI DUP3 DUP2 DUP2 MLOAD DUP2 LT PUSH2 0x48B3 JUMPI PUSH2 0x48B3 PUSH2 0x59E8 JUMP JUMPDEST PUSH1 0x20 MUL PUSH1 0x20 ADD ADD MLOAD PUSH1 0x3 PUSH1 0x0 DUP7 DUP5 DUP2 MLOAD DUP2 LT PUSH2 0x48D1 JUMPI PUSH2 0x48D1 PUSH2 0x59E8 JUMP JUMPDEST PUSH1 0x20 MUL PUSH1 0x20 ADD ADD MLOAD DUP2 MSTORE PUSH1 0x20 ADD SWAP1 DUP2 MSTORE PUSH1 0x20 ADD PUSH1 0x0 KECCAK256 PUSH1 0x0 DUP3 DUP3 SLOAD PUSH2 0x48F6 SWAP2 SWAP1 PUSH2 0x5A14 JUMP JUMPDEST SWAP1 SWAP2 SSTORE POP PUSH2 0x4905 SWAP1 POP DUP2 PUSH2 0x5A2B JUMP JUMPDEST SWAP1 POP PUSH2 0x4898 JUMP JUMPDEST PUSH1 0x1 PUSH1 0x1 PUSH1 0xA0 SHL SUB DUP5 AND EXTCODESIZE ISZERO PUSH2 0x1743 JUMPI PUSH1 0x40 MLOAD PUSH4 0xBC197C81 PUSH1 0xE0 SHL DUP2 MSTORE PUSH1 0x1 PUSH1 0x1 PUSH1 0xA0 SHL SUB DUP6 AND SWAP1 PUSH4 0xBC197C81 SWAP1 PUSH2 0x4950 SWAP1 DUP10 SWAP1 DUP10 SWAP1 DUP9 SWAP1 DUP9 SWAP1 DUP9 SWAP1 PUSH1 0x4 ADD PUSH2 0x5F61 JUMP JUMPDEST PUSH1 0x20 PUSH1 0x40 MLOAD DUP1 DUP4 SUB DUP2 PUSH1 0x0 DUP8 GAS CALL SWAP3 POP POP POP DUP1 ISZERO PUSH2 0x498B JUMPI POP PUSH1 0x40 DUP1 MLOAD PUSH1 0x1F RETURNDATASIZE SWAP1 DUP2 ADD PUSH1 0x1F NOT AND DUP3 ADD SWAP1 SWAP3 MSTORE PUSH2 0x4988 SWAP2 DUP2 ADD SWAP1 PUSH2 0x5FBF JUMP JUMPDEST PUSH1 0x1 JUMPDEST PUSH2 0x4A38 JUMPI PUSH2 0x4997 PUSH2 0x5FDC JUMP JUMPDEST DUP1 PUSH4 0x8C379A0 EQ ISZERO PUSH2 0x49D1 JUMPI POP PUSH2 0x49AC PUSH2 0x5FF8 JUMP JUMPDEST DUP1 PUSH2 0x49B7 JUMPI POP PUSH2 0x49D3 JUMP JUMPDEST DUP1 PUSH1 0x40 MLOAD PUSH3 0x461BCD PUSH1 0xE5 SHL DUP2 MSTORE PUSH1 0x4 ADD PUSH2 0x8C4 SWAP2 SWAP1 PUSH2 0x521D JUMP JUMPDEST POP JUMPDEST PUSH1 0x40 MLOAD PUSH3 0x461BCD PUSH1 0xE5 SHL DUP2 MSTORE PUSH1 0x20 PUSH1 0x4 DUP3 ADD MSTORE PUSH1 0x34 PUSH1 0x24 DUP3 ADD MSTORE PUSH32 0x455243313135353A207472616E7366657220746F206E6F6E2045524331313535 PUSH1 0x44 DUP3 ADD MSTORE PUSH20 0x2932B1B2B4BB32B91034B6B83632B6B2B73A32B9 PUSH1 0x61 SHL PUSH1 0x64 DUP3 ADD MSTORE PUSH1 0x84 ADD PUSH2 0x8C4 JUMP JUMPDEST PUSH1 0x1 PUSH1 0x1 PUSH1 0xE0 SHL SUB NOT DUP2 AND PUSH4 0xBC197C81 PUSH1 0xE0 SHL EQ PUSH2 0xA83 JUMPI PUSH1 0x40 MLOAD PUSH3 0x461BCD PUSH1 0xE5 SHL DUP2 MSTORE PUSH1 0x4 ADD PUSH2 0x8C4 SWAP1 PUSH2 0x6081 JUMP JUMPDEST PUSH2 0x4A72 DUP3 DUP3 PUSH2 0x1785 JUMP JUMPDEST ISZERO PUSH2 0xE6E JUMPI PUSH1 0x0 DUP3 DUP2 MSTORE PUSH1 0x4 PUSH1 0x20 SWAP1 DUP2 MSTORE PUSH1 0x40 DUP1 DUP4 KECCAK256 PUSH1 0x1 PUSH1 0x1 PUSH1 0xA0 SHL SUB DUP6 AND DUP1 DUP6 MSTORE SWAP3 MSTORE DUP1 DUP4 KECCAK256 DUP1 SLOAD PUSH1 0xFF NOT AND SWAP1 SSTORE MLOAD CALLER SWAP3 DUP6 SWAP2 PUSH32 0xF6391F5C32D9C69D2A47EA670B442974B53935D1EDC7FD64EB21E047A839171B SWAP2 SWAP1 LOG4 POP POP JUMP JUMPDEST PUSH1 0x0 PUSH2 0x1548 DUP4 PUSH1 0x1 PUSH1 0x1 PUSH1 0xA0 SHL SUB DUP5 AND PUSH2 0x4E14 JUMP JUMPDEST PUSH1 0x40 DUP1 MLOAD PUSH1 0x1 PUSH1 0x1 PUSH1 0xA0 SHL SUB DUP6 DUP2 AND PUSH1 0x24 DUP4 ADD MSTORE DUP5 DUP2 AND PUSH1 0x44 DUP4 ADD MSTORE PUSH1 0x64 DUP1 DUP4 ADD DUP6 SWAP1 MSTORE DUP4 MLOAD DUP1 DUP5 SUB SWAP1 SWAP2 ADD DUP2 MSTORE PUSH1 0x84 SWAP1 SWAP3 ADD DUP4 MSTORE PUSH1 0x20 DUP3 ADD DUP1 MLOAD PUSH1 0x1 PUSH1 0x1 PUSH1 0xE0 SHL SUB AND PUSH4 0x23B872DD PUSH1 0xE0 SHL OR SWAP1 MSTORE SWAP2 MLOAD PUSH1 0x0 SWAP3 DUP4 SWAP3 SWAP1 DUP9 AND SWAP2 PUSH2 0x4B48 SWAP2 SWAP1 PUSH2 0x5F2E JUMP JUMPDEST PUSH1 0x0 PUSH1 0x40 MLOAD DUP1 DUP4 SUB DUP2 PUSH1 0x0 DUP7 GAS CALL SWAP2 POP POP RETURNDATASIZE DUP1 PUSH1 0x0 DUP2 EQ PUSH2 0x4B85 JUMPI PUSH1 0x40 MLOAD SWAP2 POP PUSH1 0x1F NOT PUSH1 0x3F RETURNDATASIZE ADD AND DUP3 ADD PUSH1 0x40 MSTORE RETURNDATASIZE DUP3 MSTORE RETURNDATASIZE PUSH1 0x0 PUSH1 0x20 DUP5 ADD RETURNDATACOPY PUSH2 0x4B8A JUMP JUMPDEST PUSH1 0x60 SWAP2 POP JUMPDEST POP SWAP2 POP SWAP2 POP DUP2 DUP1 ISZERO PUSH2 0x4BB4 JUMPI POP DUP1 MLOAD ISZERO DUP1 PUSH2 0x4BB4 JUMPI POP DUP1 DUP1 PUSH1 0x20 ADD SWAP1 MLOAD DUP2 ADD SWAP1 PUSH2 0x4BB4 SWAP2 SWAP1 PUSH2 0x5CC5 JUMP JUMPDEST PUSH1 0x1B SWAP1 PUSH2 0xA83 JUMPI PUSH1 0x40 MLOAD PUSH3 0x461BCD PUSH1 0xE5 SHL DUP2 MSTORE PUSH1 0x4 ADD PUSH2 0x8C4 SWAP2 SWAP1 PUSH2 0x5963 JUMP JUMPDEST PUSH1 0x40 DUP1 MLOAD PUSH1 0x1 DUP1 DUP3 MSTORE DUP2 DUP4 ADD SWAP1 SWAP3 MSTORE PUSH1 0x60 SWAP2 PUSH1 0x0 SWAP2 SWAP1 PUSH1 0x20 DUP1 DUP4 ADD SWAP1 DUP1 CALLDATASIZE DUP4 CALLDATACOPY ADD SWAP1 POP POP SWAP1 POP DUP3 DUP2 PUSH1 0x0 DUP2 MLOAD DUP2 LT PUSH2 0x4C0E JUMPI PUSH2 0x4C0E PUSH2 0x59E8 JUMP JUMPDEST PUSH1 0x20 SWAP1 DUP2 MUL SWAP2 SWAP1 SWAP2 ADD ADD MSTORE SWAP3 SWAP2 POP POP JUMP JUMPDEST PUSH1 0x1 PUSH1 0x1 PUSH1 0xA0 SHL SUB DUP5 AND EXTCODESIZE ISZERO PUSH2 0x1743 JUMPI PUSH1 0x40 MLOAD PUSH4 0xF23A6E61 PUSH1 0xE0 SHL DUP2 MSTORE PUSH1 0x1 PUSH1 0x1 PUSH1 0xA0 SHL SUB DUP6 AND SWAP1 PUSH4 0xF23A6E61 SWAP1 PUSH2 0x4C63 SWAP1 DUP10 SWAP1 DUP10 SWAP1 DUP9 SWAP1 DUP9 SWAP1 DUP9 SWAP1 PUSH1 0x4 ADD PUSH2 0x60C9 JUMP JUMPDEST PUSH1 0x20 PUSH1 0x40 MLOAD DUP1 DUP4 SUB DUP2 PUSH1 0x0 DUP8 GAS CALL SWAP3 POP POP POP DUP1 ISZERO PUSH2 0x4C9E JUMPI POP PUSH1 0x40 DUP1 MLOAD PUSH1 0x1F RETURNDATASIZE SWAP1 DUP2 ADD PUSH1 0x1F NOT AND DUP3 ADD SWAP1 SWAP3 MSTORE PUSH2 0x4C9B SWAP2 DUP2 ADD SWAP1 PUSH2 0x5FBF JUMP JUMPDEST PUSH1 0x1 JUMPDEST PUSH2 0x4CAA JUMPI PUSH2 0x4997 PUSH2 0x5FDC JUMP JUMPDEST PUSH1 0x1 PUSH1 0x1 PUSH1 0xE0 SHL SUB NOT DUP2 AND PUSH4 0xF23A6E61 PUSH1 0xE0 SHL EQ PUSH2 0xA83 JUMPI PUSH1 0x40 MLOAD PUSH3 0x461BCD PUSH1 0xE5 SHL DUP2 MSTORE PUSH1 0x4 ADD PUSH2 0x8C4 SWAP1 PUSH2 0x6081 JUMP JUMPDEST PUSH1 0x0 PUSH2 0x3E8 DUP5 GT DUP1 ISZERO PUSH2 0x4CEE JUMPI POP PUSH2 0x3E8 DUP4 GT JUMPDEST PUSH1 0x1E SWAP1 PUSH2 0x4D0E JUMPI PUSH1 0x40 MLOAD PUSH3 0x461BCD PUSH1 0xE5 SHL DUP2 MSTORE PUSH1 0x4 ADD PUSH2 0x8C4 SWAP2 SWAP1 PUSH2 0x5963 JUMP JUMPDEST POP PUSH1 0x0 PUSH2 0x4D1B DUP4 DUP8 PUSH2 0x5B5D JUMP JUMPDEST SWAP1 POP PUSH1 0x0 DUP2 PUSH2 0x4D2C PUSH2 0x2710 DUP9 PUSH2 0x5B5D JUMP JUMPDEST PUSH2 0x4D36 SWAP2 SWAP1 PUSH2 0x5B45 JUMP JUMPDEST PUSH2 0x4D40 DUP4 DUP8 PUSH2 0x5B5D JUMP JUMPDEST PUSH2 0x3918 SWAP2 SWAP1 PUSH2 0x5B92 JUMP JUMPDEST PUSH1 0x0 DUP3 PUSH1 0x0 ADD DUP3 DUP2 SLOAD DUP2 LT PUSH2 0x4D61 JUMPI PUSH2 0x4D61 PUSH2 0x59E8 JUMP JUMPDEST SWAP1 PUSH1 0x0 MSTORE PUSH1 0x20 PUSH1 0x0 KECCAK256 ADD SLOAD SWAP1 POP SWAP3 SWAP2 POP POP JUMP JUMPDEST PUSH1 0x0 PUSH1 0x8 PUSH2 0x4D84 PUSH2 0x3840 TIMESTAMP PUSH2 0x5B92 JUMP JUMPDEST PUSH2 0x4D8E SWAP2 SWAP1 PUSH2 0x5F1A JUMP JUMPDEST SWAP1 POP SWAP1 JUMP JUMPDEST PUSH1 0x0 PUSH2 0x3E8 DUP5 GT DUP1 ISZERO PUSH2 0x4DA7 JUMPI POP PUSH2 0x3E8 DUP4 GT JUMPDEST PUSH1 0x1E SWAP1 PUSH2 0x4DC7 JUMPI PUSH1 0x40 MLOAD PUSH3 0x461BCD PUSH1 0xE5 SHL DUP2 MSTORE PUSH1 0x4 ADD PUSH2 0x8C4 SWAP2 SWAP1 PUSH2 0x5963 JUMP JUMPDEST POP PUSH1 0x0 PUSH2 0x4DD4 DUP7 DUP6 PUSH2 0x5A14 JUMP JUMPDEST PUSH2 0x4DDE SWAP1 DUP5 PUSH2 0x5B5D JUMP JUMPDEST PUSH2 0x2710 PUSH2 0x4DEB DUP9 DUP9 PUSH2 0x5B5D JUMP JUMPDEST PUSH2 0x4DF5 SWAP2 SWAP1 PUSH2 0x5B5D JUMP JUMPDEST PUSH2 0x4DFF SWAP2 SWAP1 PUSH2 0x5B92 JUMP JUMPDEST PUSH2 0x4E0A SWAP1 PUSH1 0x1 PUSH2 0x5B45 JUMP JUMPDEST SWAP7 SWAP6 POP POP POP POP POP POP JUMP JUMPDEST PUSH1 0x0 DUP2 DUP2 MSTORE PUSH1 0x1 DUP4 ADD PUSH1 0x20 MSTORE PUSH1 0x40 DUP2 KECCAK256 SLOAD DUP1 ISZERO PUSH2 0x4EFD JUMPI PUSH1 0x0 PUSH2 0x4E38 PUSH1 0x1 DUP4 PUSH2 0x5A14 JUMP JUMPDEST DUP6 SLOAD SWAP1 SWAP2 POP PUSH1 0x0 SWAP1 PUSH2 0x4E4C SWAP1 PUSH1 0x1 SWAP1 PUSH2 0x5A14 JUMP JUMPDEST SWAP1 POP DUP2 DUP2 EQ PUSH2 0x4EB1 JUMPI PUSH1 0x0 DUP7 PUSH1 0x0 ADD DUP3 DUP2 SLOAD DUP2 LT PUSH2 0x4E6C JUMPI PUSH2 0x4E6C PUSH2 0x59E8 JUMP JUMPDEST SWAP1 PUSH1 0x0 MSTORE PUSH1 0x20 PUSH1 0x0 KECCAK256 ADD SLOAD SWAP1 POP DUP1 DUP8 PUSH1 0x0 ADD DUP5 DUP2 SLOAD DUP2 LT PUSH2 0x4E8F JUMPI PUSH2 0x4E8F PUSH2 0x59E8 JUMP JUMPDEST PUSH1 0x0 SWAP2 DUP3 MSTORE PUSH1 0x20 DUP1 DUP4 KECCAK256 SWAP1 SWAP2 ADD SWAP3 SWAP1 SWAP3 SSTORE SWAP2 DUP3 MSTORE PUSH1 0x1 DUP9 ADD SWAP1 MSTORE PUSH1 0x40 SWAP1 KECCAK256 DUP4 SWAP1 SSTORE JUMPDEST DUP6 SLOAD DUP7 SWAP1 DUP1 PUSH2 0x4EC2 JUMPI PUSH2 0x4EC2 PUSH2 0x6103 JUMP JUMPDEST PUSH1 0x1 SWAP1 SUB DUP2 DUP2 SWAP1 PUSH1 0x0 MSTORE PUSH1 0x20 PUSH1 0x0 KECCAK256 ADD PUSH1 0x0 SWAP1 SSTORE SWAP1 SSTORE DUP6 PUSH1 0x1 ADD PUSH1 0x0 DUP7 DUP2 MSTORE PUSH1 0x20 ADD SWAP1 DUP2 MSTORE PUSH1 0x20 ADD PUSH1 0x0 KECCAK256 PUSH1 0x0 SWAP1 SSTORE PUSH1 0x1 SWAP4 POP POP POP POP PUSH2 0x8F0 JUMP JUMPDEST PUSH1 0x0 SWAP2 POP POP PUSH2 0x8F0 JUMP JUMPDEST DUP3 DUP1 SLOAD PUSH2 0x4F13 SWAP1 PUSH2 0x592E JUMP JUMPDEST SWAP1 PUSH1 0x0 MSTORE PUSH1 0x20 PUSH1 0x0 KECCAK256 SWAP1 PUSH1 0x1F ADD PUSH1 0x20 SWAP1 DIV DUP2 ADD SWAP3 DUP3 PUSH2 0x4F35 JUMPI PUSH1 0x0 DUP6 SSTORE PUSH2 0x4F7B JUMP JUMPDEST DUP3 PUSH1 0x1F LT PUSH2 0x4F4E JUMPI DUP1 MLOAD PUSH1 0xFF NOT AND DUP4 DUP1 ADD OR DUP6 SSTORE PUSH2 0x4F7B JUMP JUMPDEST DUP3 DUP1 ADD PUSH1 0x1 ADD DUP6 SSTORE DUP3 ISZERO PUSH2 0x4F7B JUMPI SWAP2 DUP3 ADD JUMPDEST DUP3 DUP2 GT ISZERO PUSH2 0x4F7B JUMPI DUP3 MLOAD DUP3 SSTORE SWAP2 PUSH1 0x20 ADD SWAP2 SWAP1 PUSH1 0x1 ADD SWAP1 PUSH2 0x4F60 JUMP JUMPDEST POP PUSH2 0x4F87 SWAP3 SWAP2 POP PUSH2 0x507B JUMP JUMPDEST POP SWAP1 JUMP JUMPDEST PUSH1 0x40 MLOAD DUP1 PUSH1 0xA0 ADD PUSH1 0x40 MSTORE DUP1 PUSH1 0x0 PUSH1 0x1 PUSH1 0x1 PUSH1 0xA0 SHL SUB AND DUP2 MSTORE PUSH1 0x20 ADD PUSH2 0x4FAE PUSH2 0x4FC9 JUMP JUMPDEST DUP2 MSTORE PUSH1 0x0 PUSH1 0x20 DUP3 ADD DUP2 SWAP1 MSTORE PUSH1 0x40 DUP3 ADD DUP2 SWAP1 MSTORE PUSH1 0x60 SWAP1 SWAP2 ADD MSTORE SWAP1 JUMP JUMPDEST PUSH1 0x40 MLOAD DUP1 PUSH2 0x100 ADD PUSH1 0x40 MSTORE DUP1 PUSH1 0x8 SWAP1 PUSH1 0x20 DUP3 MUL DUP1 CALLDATASIZE DUP4 CALLDATACOPY POP SWAP2 SWAP3 SWAP2 POP POP JUMP JUMPDEST PUSH1 0x1 DUP4 ADD SWAP2 DUP4 SWAP1 DUP3 ISZERO PUSH2 0x4F7B JUMPI SWAP2 PUSH1 0x20 MUL DUP3 ADD PUSH1 0x0 JUMPDEST DUP4 DUP3 GT ISZERO PUSH2 0x5042 JUMPI DUP4 MLOAD DUP4 DUP3 PUSH2 0x100 EXP DUP2 SLOAD DUP2 PUSH4 0xFFFFFFFF MUL NOT AND SWAP1 DUP4 PUSH4 0xFFFFFFFF AND MUL OR SWAP1 SSTORE POP SWAP3 PUSH1 0x20 ADD SWAP3 PUSH1 0x4 ADD PUSH1 0x20 DUP2 PUSH1 0x3 ADD DIV SWAP3 DUP4 ADD SWAP3 PUSH1 0x1 SUB MUL PUSH2 0x4FFE JUMP JUMPDEST DUP1 ISZERO PUSH2 0x5072 JUMPI DUP3 DUP2 PUSH2 0x100 EXP DUP2 SLOAD SWAP1 PUSH4 0xFFFFFFFF MUL NOT AND SWAP1 SSTORE PUSH1 0x4 ADD PUSH1 0x20 DUP2 PUSH1 0x3 ADD DIV SWAP3 DUP4 ADD SWAP3 PUSH1 0x1 SUB MUL PUSH2 0x5042 JUMP JUMPDEST POP POP PUSH2 0x4F87 SWAP3 SWAP2 POP JUMPDEST JUMPDEST DUP1 DUP3 GT ISZERO PUSH2 0x4F87 JUMPI PUSH1 0x0 DUP2 SSTORE PUSH1 0x1 ADD PUSH2 0x507C JUMP JUMPDEST PUSH1 0x1 PUSH1 0x1 PUSH1 0xA0 SHL SUB DUP2 AND DUP2 EQ PUSH2 0x50A5 JUMPI PUSH1 0x0 DUP1 REVERT JUMPDEST POP JUMP JUMPDEST PUSH1 0x0 DUP1 PUSH1 0x40 DUP4 DUP6 SUB SLT ISZERO PUSH2 0x50BB JUMPI PUSH1 0x0 DUP1 REVERT JUMPDEST DUP3 CALLDATALOAD PUSH2 0x50C6 DUP2 PUSH2 0x5090 JUMP JUMPDEST SWAP5 PUSH1 0x20 SWAP4 SWAP1 SWAP4 ADD CALLDATALOAD SWAP4 POP POP POP JUMP JUMPDEST PUSH1 0x1 PUSH1 0x1 PUSH1 0xE0 SHL SUB NOT DUP2 AND DUP2 EQ PUSH2 0x50A5 JUMPI PUSH1 0x0 DUP1 REVERT JUMPDEST PUSH1 0x0 PUSH1 0x20 DUP3 DUP5 SUB SLT ISZERO PUSH2 0x50FC JUMPI PUSH1 0x0 DUP1 REVERT JUMPDEST DUP2 CALLDATALOAD PUSH2 0x1548 DUP2 PUSH2 0x50D4 JUMP JUMPDEST PUSH1 0x0 PUSH1 0x20 DUP3 DUP5 SUB SLT ISZERO PUSH2 0x5119 JUMPI PUSH1 0x0 DUP1 REVERT JUMPDEST DUP2 CALLDATALOAD PUSH2 0x1548 DUP2 PUSH2 0x5090 JUMP JUMPDEST PUSH1 0x0 DUP1 PUSH1 0x20 DUP4 DUP6 SUB SLT ISZERO PUSH2 0x5137 JUMPI PUSH1 0x0 DUP1 REVERT JUMPDEST DUP3 CALLDATALOAD PUSH1 0x1 PUSH1 0x1 PUSH1 0x40 SHL SUB DUP1 DUP3 GT ISZERO PUSH2 0x514E JUMPI PUSH1 0x0 DUP1 REVERT JUMPDEST DUP2 DUP6 ADD SWAP2 POP DUP6 PUSH1 0x1F DUP4 ADD SLT PUSH2 0x5162 JUMPI PUSH1 0x0 DUP1 REVERT JUMPDEST DUP2 CALLDATALOAD DUP2 DUP2 GT ISZERO PUSH2 0x5171 JUMPI PUSH1 0x0 DUP1 REVERT JUMPDEST DUP7 PUSH1 0x20 DUP3 PUSH1 0x6 SHL DUP6 ADD ADD GT ISZERO PUSH2 0x5186 JUMPI PUSH1 0x0 DUP1 REVERT JUMPDEST PUSH1 0x20 SWAP3 SWAP1 SWAP3 ADD SWAP7 SWAP2 SWAP6 POP SWAP1 SWAP4 POP POP POP POP JUMP JUMPDEST PUSH1 0x0 PUSH1 0x20 DUP3 DUP5 SUB SLT ISZERO PUSH2 0x51AA JUMPI PUSH1 0x0 DUP1 REVERT JUMPDEST POP CALLDATALOAD SWAP2 SWAP1 POP JUMP JUMPDEST PUSH1 0x1 PUSH1 0x1 PUSH1 0xA0 SHL SUB SWAP2 SWAP1 SWAP2 AND DUP2 MSTORE PUSH1 0x20 ADD SWAP1 JUMP JUMPDEST PUSH1 0x0 JUMPDEST DUP4 DUP2 LT ISZERO PUSH2 0x51E0 JUMPI DUP2 DUP2 ADD MLOAD DUP4 DUP3 ADD MSTORE PUSH1 0x20 ADD PUSH2 0x51C8 JUMP JUMPDEST DUP4 DUP2 GT ISZERO PUSH2 0xB03 JUMPI POP POP PUSH1 0x0 SWAP2 ADD MSTORE JUMP JUMPDEST PUSH1 0x0 DUP2 MLOAD DUP1 DUP5 MSTORE PUSH2 0x5209 DUP2 PUSH1 0x20 DUP7 ADD PUSH1 0x20 DUP7 ADD PUSH2 0x51C5 JUMP JUMPDEST PUSH1 0x1F ADD PUSH1 0x1F NOT AND SWAP3 SWAP1 SWAP3 ADD PUSH1 0x20 ADD SWAP3 SWAP2 POP POP JUMP JUMPDEST PUSH1 0x20 DUP2 MSTORE PUSH1 0x0 PUSH2 0x1548 PUSH1 0x20 DUP4 ADD DUP5 PUSH2 0x51F1 JUMP JUMPDEST PUSH1 0x0 PUSH1 0xC0 DUP3 DUP5 SUB SLT ISZERO PUSH2 0x2D34 JUMPI PUSH1 0x0 DUP1 REVERT JUMPDEST PUSH4 0x4E487B71 PUSH1 0xE0 SHL PUSH1 0x0 MSTORE PUSH1 0x41 PUSH1 0x4 MSTORE PUSH1 0x24 PUSH1 0x0 REVERT JUMPDEST PUSH1 0x1F DUP3 ADD PUSH1 0x1F NOT AND DUP2 ADD PUSH1 0x1 PUSH1 0x1 PUSH1 0x40 SHL SUB DUP2 GT DUP3 DUP3 LT OR ISZERO PUSH2 0x527D JUMPI PUSH2 0x527D PUSH2 0x5242 JUMP JUMPDEST PUSH1 0x40 MSTORE POP POP JUMP JUMPDEST PUSH1 0x0 PUSH1 0x1 PUSH1 0x1 PUSH1 0x40 SHL SUB DUP3 GT ISZERO PUSH2 0x529D JUMPI PUSH2 0x529D PUSH2 0x5242 JUMP JUMPDEST POP PUSH1 0x5 SHL PUSH1 0x20 ADD SWAP1 JUMP JUMPDEST PUSH1 0x0 DUP3 PUSH1 0x1F DUP4 ADD SLT PUSH2 0x52B8 JUMPI PUSH1 0x0 DUP1 REVERT JUMPDEST DUP2 CALLDATALOAD PUSH1 0x20 PUSH2 0x52C5 DUP3 PUSH2 0x5284 JUMP JUMPDEST PUSH1 0x40 MLOAD PUSH2 0x52D2 DUP3 DUP3 PUSH2 0x5258 JUMP JUMPDEST DUP4 DUP2 MSTORE PUSH1 0x5 SWAP4 SWAP1 SWAP4 SHL DUP6 ADD DUP3 ADD SWAP3 DUP3 DUP2 ADD SWAP2 POP DUP7 DUP5 GT ISZERO PUSH2 0x52F2 JUMPI PUSH1 0x0 DUP1 REVERT JUMPDEST DUP3 DUP7 ADD JUMPDEST DUP5 DUP2 LT ISZERO PUSH2 0x530D JUMPI DUP1 CALLDATALOAD DUP4 MSTORE SWAP2 DUP4 ADD SWAP2 DUP4 ADD PUSH2 0x52F6 JUMP JUMPDEST POP SWAP7 SWAP6 POP POP POP POP POP POP JUMP JUMPDEST PUSH1 0x0 DUP3 PUSH1 0x1F DUP4 ADD SLT PUSH2 0x5329 JUMPI PUSH1 0x0 DUP1 REVERT JUMPDEST DUP2 CALLDATALOAD PUSH1 0x1 PUSH1 0x1 PUSH1 0x40 SHL SUB DUP2 GT ISZERO PUSH2 0x5342 JUMPI PUSH2 0x5342 PUSH2 0x5242 JUMP JUMPDEST PUSH1 0x40 MLOAD PUSH2 0x5359 PUSH1 0x1F DUP4 ADD PUSH1 0x1F NOT AND PUSH1 0x20 ADD DUP3 PUSH2 0x5258 JUMP JUMPDEST DUP2 DUP2 MSTORE DUP5 PUSH1 0x20 DUP4 DUP7 ADD ADD GT ISZERO PUSH2 0x536E JUMPI PUSH1 0x0 DUP1 REVERT JUMPDEST DUP2 PUSH1 0x20 DUP6 ADD PUSH1 0x20 DUP4 ADD CALLDATACOPY PUSH1 0x0 SWAP2 DUP2 ADD PUSH1 0x20 ADD SWAP2 SWAP1 SWAP2 MSTORE SWAP4 SWAP3 POP POP POP JUMP JUMPDEST PUSH1 0x0 DUP1 PUSH1 0x0 DUP1 PUSH1 0x0 PUSH1 0xA0 DUP7 DUP9 SUB SLT ISZERO PUSH2 0x53A3 JUMPI PUSH1 0x0 DUP1 REVERT JUMPDEST DUP6 CALLDATALOAD PUSH2 0x53AE DUP2 PUSH2 0x5090 JUMP JUMPDEST SWAP5 POP PUSH1 0x20 DUP7 ADD CALLDATALOAD PUSH2 0x53BE DUP2 PUSH2 0x5090 JUMP JUMPDEST SWAP4 POP PUSH1 0x40 DUP7 ADD CALLDATALOAD PUSH1 0x1 PUSH1 0x1 PUSH1 0x40 SHL SUB DUP1 DUP3 GT ISZERO PUSH2 0x53DA JUMPI PUSH1 0x0 DUP1 REVERT JUMPDEST PUSH2 0x53E6 DUP10 DUP4 DUP11 ADD PUSH2 0x52A7 JUMP JUMPDEST SWAP5 POP PUSH1 0x60 DUP9 ADD CALLDATALOAD SWAP2 POP DUP1 DUP3 GT ISZERO PUSH2 0x53FC JUMPI PUSH1 0x0 DUP1 REVERT JUMPDEST PUSH2 0x5408 DUP10 DUP4 DUP11 ADD PUSH2 0x52A7 JUMP JUMPDEST SWAP4 POP PUSH1 0x80 DUP9 ADD CALLDATALOAD SWAP2 POP DUP1 DUP3 GT ISZERO PUSH2 0x541E JUMPI PUSH1 0x0 DUP1 REVERT JUMPDEST POP PUSH2 0x542B DUP9 DUP3 DUP10 ADD PUSH2 0x5318 JUMP JUMPDEST SWAP2 POP POP SWAP3 SWAP6 POP SWAP3 SWAP6 SWAP1 SWAP4 POP JUMP JUMPDEST PUSH1 0x0 DUP1 PUSH1 0x40 DUP4 DUP6 SUB SLT ISZERO PUSH2 0x544B JUMPI PUSH1 0x0 DUP1 REVERT JUMPDEST DUP3 CALLDATALOAD SWAP2 POP PUSH1 0x20 DUP4 ADD CALLDATALOAD PUSH2 0x545D DUP2 PUSH2 0x5090 JUMP JUMPDEST DUP1 SWAP2 POP POP SWAP3 POP SWAP3 SWAP1 POP JUMP JUMPDEST PUSH1 0x0 DUP1 PUSH1 0x40 DUP4 DUP6 SUB SLT ISZERO PUSH2 0x547B JUMPI PUSH1 0x0 DUP1 REVERT JUMPDEST DUP3 CALLDATALOAD PUSH1 0x1 PUSH1 0x1 PUSH1 0x40 SHL SUB DUP1 DUP3 GT ISZERO PUSH2 0x5492 JUMPI PUSH1 0x0 DUP1 REVERT JUMPDEST PUSH2 0x549E DUP7 DUP4 DUP8 ADD PUSH2 0x5318 JUMP JUMPDEST SWAP4 POP PUSH1 0x20 DUP6 ADD CALLDATALOAD SWAP2 POP DUP1 DUP3 GT ISZERO PUSH2 0x54B4 JUMPI PUSH1 0x0 DUP1 REVERT JUMPDEST POP PUSH2 0x54C1 DUP6 DUP3 DUP7 ADD PUSH2 0x5318 JUMP JUMPDEST SWAP2 POP POP SWAP3 POP SWAP3 SWAP1 POP JUMP JUMPDEST PUSH1 0x0 DUP1 PUSH1 0x0 DUP1 PUSH1 0x80 DUP6 DUP8 SUB SLT ISZERO PUSH2 0x54E1 JUMPI PUSH1 0x0 DUP1 REVERT JUMPDEST DUP5 CALLDATALOAD PUSH2 0x54EC DUP2 PUSH2 0x5090 JUMP JUMPDEST SWAP4 POP PUSH1 0x20 DUP6 ADD CALLDATALOAD SWAP3 POP PUSH1 0x40 DUP6 ADD CALLDATALOAD SWAP2 POP PUSH1 0x60 DUP6 ADD CALLDATALOAD PUSH2 0x550A DUP2 PUSH2 0x5090 JUMP JUMPDEST SWAP4 SWAP7 SWAP3 SWAP6 POP SWAP1 SWAP4 POP POP JUMP JUMPDEST PUSH1 0x0 DUP1 PUSH1 0x0 PUSH1 0x60 DUP5 DUP7 SUB SLT ISZERO PUSH2 0x552A JUMPI PUSH1 0x0 DUP1 REVERT JUMPDEST DUP4 CALLDATALOAD PUSH2 0x5535 DUP2 PUSH2 0x5090 JUMP JUMPDEST SWAP3 POP PUSH1 0x20 DUP5 ADD CALLDATALOAD PUSH2 0x5545 DUP2 PUSH2 0x5090 JUMP JUMPDEST SWAP3 SWAP6 SWAP3 SWAP5 POP POP POP PUSH1 0x40 SWAP2 SWAP1 SWAP2 ADD CALLDATALOAD SWAP1 JUMP JUMPDEST PUSH1 0x0 DUP1 PUSH1 0x40 DUP4 DUP6 SUB SLT ISZERO PUSH2 0x5569 JUMPI PUSH1 0x0 DUP1 REVERT JUMPDEST DUP3 CALLDATALOAD PUSH1 0x1 PUSH1 0x1 PUSH1 0x40 SHL SUB DUP1 DUP3 GT ISZERO PUSH2 0x5580 JUMPI PUSH1 0x0 DUP1 REVERT JUMPDEST DUP2 DUP6 ADD SWAP2 POP DUP6 PUSH1 0x1F DUP4 ADD SLT PUSH2 0x5594 JUMPI PUSH1 0x0 DUP1 REVERT JUMPDEST DUP2 CALLDATALOAD PUSH1 0x20 PUSH2 0x55A1 DUP3 PUSH2 0x5284 JUMP JUMPDEST PUSH1 0x40 MLOAD PUSH2 0x55AE DUP3 DUP3 PUSH2 0x5258 JUMP JUMPDEST DUP4 DUP2 MSTORE PUSH1 0x5 SWAP4 SWAP1 SWAP4 SHL DUP6 ADD DUP3 ADD SWAP3 DUP3 DUP2 ADD SWAP2 POP DUP10 DUP5 GT ISZERO PUSH2 0x55CE JUMPI PUSH1 0x0 DUP1 REVERT JUMPDEST SWAP5 DUP3 ADD SWAP5 JUMPDEST DUP4 DUP7 LT ISZERO PUSH2 0x55F5 JUMPI DUP6 CALLDATALOAD PUSH2 0x55E6 DUP2 PUSH2 0x5090 JUMP JUMPDEST DUP3 MSTORE SWAP5 DUP3 ADD SWAP5 SWAP1 DUP3 ADD SWAP1 PUSH2 0x55D3 JUMP JUMPDEST SWAP7 POP POP DUP7 ADD CALLDATALOAD SWAP3 POP POP DUP1 DUP3 GT ISZERO PUSH2 0x560B JUMPI PUSH1 0x0 DUP1 REVERT JUMPDEST POP PUSH2 0x54C1 DUP6 DUP3 DUP7 ADD PUSH2 0x52A7 JUMP JUMPDEST PUSH1 0x0 DUP2 MLOAD DUP1 DUP5 MSTORE PUSH1 0x20 DUP1 DUP6 ADD SWAP5 POP DUP1 DUP5 ADD PUSH1 0x0 JUMPDEST DUP4 DUP2 LT ISZERO PUSH2 0x5648 JUMPI DUP2 MLOAD DUP8 MSTORE SWAP6 DUP3 ADD SWAP6 SWAP1 DUP3 ADD SWAP1 PUSH1 0x1 ADD PUSH2 0x562C JUMP JUMPDEST POP SWAP5 SWAP6 SWAP5 POP POP POP POP POP JUMP JUMPDEST PUSH1 0x20 DUP2 MSTORE PUSH1 0x0 PUSH2 0x1548 PUSH1 0x20 DUP4 ADD DUP5 PUSH2 0x5618 JUMP JUMPDEST PUSH1 0x0 DUP1 PUSH1 0x0 PUSH1 0x60 DUP5 DUP7 SUB SLT ISZERO PUSH2 0x567B JUMPI PUSH1 0x0 DUP1 REVERT JUMPDEST DUP4 CALLDATALOAD PUSH2 0x5686 DUP2 PUSH2 0x5090 JUMP JUMPDEST SWAP3 POP PUSH1 0x20 DUP5 ADD CALLDATALOAD PUSH1 0x1 PUSH1 0x1 PUSH1 0x40 SHL SUB DUP1 DUP3 GT ISZERO PUSH2 0x56A2 JUMPI PUSH1 0x0 DUP1 REVERT JUMPDEST PUSH2 0x56AE DUP8 DUP4 DUP9 ADD PUSH2 0x52A7 JUMP JUMPDEST SWAP4 POP PUSH1 0x40 DUP7 ADD CALLDATALOAD SWAP2 POP DUP1 DUP3 GT ISZERO PUSH2 0x56C4 JUMPI PUSH1 0x0 DUP1 REVERT JUMPDEST POP PUSH2 0x56D1 DUP7 DUP3 DUP8 ADD PUSH2 0x52A7 JUMP JUMPDEST SWAP2 POP POP SWAP3 POP SWAP3 POP SWAP3 JUMP JUMPDEST PUSH1 0x0 DUP1 PUSH1 0x40 DUP4 DUP6 SUB SLT ISZERO PUSH2 0x56EE JUMPI PUSH1 0x0 DUP1 REVERT JUMPDEST POP POP DUP1 CALLDATALOAD SWAP3 PUSH1 0x20 SWAP1 SWAP2 ADD CALLDATALOAD SWAP2 POP JUMP JUMPDEST DUP1 ISZERO ISZERO DUP2 EQ PUSH2 0x50A5 JUMPI PUSH1 0x0 DUP1 REVERT JUMPDEST PUSH1 0x0 DUP1 PUSH1 0x40 DUP4 DUP6 SUB SLT ISZERO PUSH2 0x571E JUMPI PUSH1 0x0 DUP1 REVERT JUMPDEST DUP3 CALLDATALOAD PUSH2 0x5729 DUP2 PUSH2 0x5090 JUMP JUMPDEST SWAP2 POP PUSH1 0x20 DUP4 ADD CALLDATALOAD PUSH2 0x545D DUP2 PUSH2 0x56FD JUMP JUMPDEST PUSH1 0x0 DUP1 PUSH1 0x0 DUP1 PUSH1 0x0 DUP1 PUSH1 0xC0 DUP8 DUP10 SUB SLT ISZERO PUSH2 0x5752 JUMPI PUSH1 0x0 DUP1 REVERT JUMPDEST DUP7 CALLDATALOAD PUSH2 0x575D DUP2 PUSH2 0x5090 JUMP JUMPDEST SWAP6 POP PUSH1 0x20 DUP8 ADD CALLDATALOAD PUSH2 0x576D DUP2 PUSH2 0x5090 JUMP JUMPDEST SWAP5 POP PUSH1 0x40 DUP8 ADD CALLDATALOAD SWAP4 POP PUSH1 0x60 DUP8 ADD CALLDATALOAD SWAP3 POP PUSH1 0x80 DUP8 ADD CALLDATALOAD SWAP2 POP PUSH1 0xA0 DUP8 ADD CALLDATALOAD PUSH2 0x5792 DUP2 PUSH2 0x5090 JUMP JUMPDEST DUP1 SWAP2 POP POP SWAP3 SWAP6 POP SWAP3 SWAP6 POP SWAP3 SWAP6 JUMP JUMPDEST PUSH1 0x0 PUSH1 0x20 DUP3 DUP5 SUB SLT ISZERO PUSH2 0x57B2 JUMPI PUSH1 0x0 DUP1 REVERT JUMPDEST DUP2 CALLDATALOAD PUSH1 0x1 PUSH1 0x1 PUSH1 0x40 SHL SUB DUP2 GT ISZERO PUSH2 0x57C8 JUMPI PUSH1 0x0 DUP1 REVERT JUMPDEST PUSH2 0x2DA8 DUP5 DUP3 DUP6 ADD PUSH2 0x5318 JUMP JUMPDEST PUSH1 0x1 PUSH1 0x1 PUSH1 0x80 SHL SUB AND SWAP1 MSTORE JUMP JUMPDEST DUP2 MLOAD PUSH1 0x1 PUSH1 0x1 PUSH1 0xA0 SHL SUB AND DUP2 MSTORE PUSH1 0x20 DUP1 DUP4 ADD MLOAD PUSH2 0x180 DUP4 ADD SWAP2 SWAP1 DUP2 DUP5 ADD PUSH1 0x0 JUMPDEST PUSH1 0x8 DUP2 LT ISZERO PUSH2 0x5824 JUMPI DUP3 MLOAD PUSH4 0xFFFFFFFF AND DUP3 MSTORE SWAP2 DUP4 ADD SWAP2 SWAP1 DUP4 ADD SWAP1 PUSH1 0x1 ADD PUSH2 0x5801 JUMP JUMPDEST POP POP POP POP PUSH1 0x40 DUP4 ADD MLOAD PUSH2 0x583B PUSH2 0x120 DUP5 ADD DUP3 PUSH2 0x57D4 JUMP JUMPDEST POP PUSH1 0x60 DUP4 ADD MLOAD PUSH2 0x584F PUSH2 0x140 DUP5 ADD DUP3 PUSH2 0x57D4 JUMP JUMPDEST POP PUSH1 0x80 DUP4 ADD MLOAD PUSH2 0x2FA3 PUSH2 0x160 DUP5 ADD DUP3 PUSH2 0x57D4 JUMP JUMPDEST PUSH1 0x0 DUP1 PUSH1 0x40 DUP4 DUP6 SUB SLT ISZERO PUSH2 0x5876 JUMPI PUSH1 0x0 DUP1 REVERT JUMPDEST DUP3 CALLDATALOAD PUSH2 0x5881 DUP2 PUSH2 0x5090 JUMP JUMPDEST SWAP2 POP PUSH1 0x20 DUP4 ADD CALLDATALOAD PUSH2 0x545D DUP2 PUSH2 0x5090 JUMP JUMPDEST PUSH1 0x0 DUP1 PUSH1 0x0 DUP1 PUSH1 0x0 PUSH1 0xA0 DUP7 DUP9 SUB SLT ISZERO PUSH2 0x58A9 JUMPI PUSH1 0x0 DUP1 REVERT JUMPDEST DUP6 CALLDATALOAD PUSH2 0x58B4 DUP2 PUSH2 0x5090 JUMP JUMPDEST SWAP5 POP PUSH1 0x20 DUP7 ADD CALLDATALOAD PUSH2 0x58C4 DUP2 PUSH2 0x5090 JUMP JUMPDEST SWAP4 POP PUSH1 0x40 DUP7 ADD CALLDATALOAD SWAP3 POP PUSH1 0x60 DUP7 ADD CALLDATALOAD SWAP2 POP PUSH1 0x80 DUP7 ADD CALLDATALOAD PUSH1 0x1 PUSH1 0x1 PUSH1 0x40 SHL SUB DUP2 GT ISZERO PUSH2 0x58ED JUMPI PUSH1 0x0 DUP1 REVERT JUMPDEST PUSH2 0x542B DUP9 DUP3 DUP10 ADD PUSH2 0x5318 JUMP JUMPDEST PUSH1 0x0 DUP1 PUSH1 0x0 PUSH1 0x60 DUP5 DUP7 SUB SLT ISZERO PUSH2 0x590E JUMPI PUSH1 0x0 DUP1 REVERT JUMPDEST DUP4 CALLDATALOAD PUSH2 0x5919 DUP2 PUSH2 0x5090 JUMP JUMPDEST SWAP6 PUSH1 0x20 DUP6 ADD CALLDATALOAD SWAP6 POP PUSH1 0x40 SWAP1 SWAP5 ADD CALLDATALOAD SWAP4 SWAP3 POP POP POP JUMP JUMPDEST PUSH1 0x1 DUP2 DUP2 SHR SWAP1 DUP3 AND DUP1 PUSH2 0x5942 JUMPI PUSH1 0x7F DUP3 AND SWAP2 POP JUMPDEST PUSH1 0x20 DUP3 LT DUP2 EQ ISZERO PUSH2 0x2D34 JUMPI PUSH4 0x4E487B71 PUSH1 0xE0 SHL PUSH1 0x0 MSTORE PUSH1 0x22 PUSH1 0x4 MSTORE PUSH1 0x24 PUSH1 0x0 REVERT JUMPDEST PUSH1 0x0 PUSH1 0x20 DUP1 DUP4 MSTORE PUSH1 0x0 DUP5 SLOAD PUSH2 0x5977 DUP2 PUSH2 0x592E JUMP JUMPDEST DUP1 DUP5 DUP8 ADD MSTORE PUSH1 0x40 PUSH1 0x1 DUP1 DUP5 AND PUSH1 0x0 DUP2 EQ PUSH2 0x5998 JUMPI PUSH1 0x1 DUP2 EQ PUSH2 0x59AC JUMPI PUSH2 0x59DA JUMP JUMPDEST PUSH1 0xFF NOT DUP6 AND DUP10 DUP5 ADD MSTORE PUSH1 0x60 DUP10 ADD SWAP6 POP PUSH2 0x59DA JUMP JUMPDEST DUP10 PUSH1 0x0 MSTORE DUP7 PUSH1 0x0 KECCAK256 PUSH1 0x0 JUMPDEST DUP6 DUP2 LT ISZERO PUSH2 0x59D2 JUMPI DUP2 SLOAD DUP12 DUP3 ADD DUP7 ADD MSTORE SWAP1 DUP4 ADD SWAP1 DUP9 ADD PUSH2 0x59B7 JUMP JUMPDEST DUP11 ADD DUP5 ADD SWAP7 POP POP JUMPDEST POP SWAP4 SWAP9 SWAP8 POP POP POP POP POP POP POP POP JUMP JUMPDEST PUSH4 0x4E487B71 PUSH1 0xE0 SHL PUSH1 0x0 MSTORE PUSH1 0x32 PUSH1 0x4 MSTORE PUSH1 0x24 PUSH1 0x0 REVERT JUMPDEST PUSH4 0x4E487B71 PUSH1 0xE0 SHL PUSH1 0x0 MSTORE PUSH1 0x11 PUSH1 0x4 MSTORE PUSH1 0x24 PUSH1 0x0 REVERT JUMPDEST PUSH1 0x0 DUP3 DUP3 LT ISZERO PUSH2 0x5A26 JUMPI PUSH2 0x5A26 PUSH2 0x59FE JUMP JUMPDEST POP SUB SWAP1 JUMP JUMPDEST PUSH1 0x0 PUSH1 0x0 NOT DUP3 EQ ISZERO PUSH2 0x5A3F JUMPI PUSH2 0x5A3F PUSH2 0x59FE JUMP JUMPDEST POP PUSH1 0x1 ADD SWAP1 JUMP JUMPDEST PUSH1 0x0 PUSH1 0x20 DUP3 DUP5 SUB SLT ISZERO PUSH2 0x5A58 JUMPI PUSH1 0x0 DUP1 REVERT JUMPDEST DUP2 MLOAD PUSH2 0x1548 DUP2 PUSH2 0x5090 JUMP JUMPDEST DUP2 CALLDATALOAD PUSH2 0x5A6E DUP2 PUSH2 0x5090 JUMP JUMPDEST DUP2 SLOAD PUSH1 0x1 PUSH1 0x1 PUSH1 0xA0 SHL SUB NOT AND PUSH1 0x1 PUSH1 0x1 PUSH1 0xA0 SHL SUB SWAP2 SWAP1 SWAP2 AND OR DUP2 SSTORE PUSH1 0x20 DUP3 ADD CALLDATALOAD PUSH1 0x1 DUP3 ADD SSTORE PUSH1 0x40 DUP3 ADD CALLDATALOAD PUSH1 0x2 DUP3 ADD SSTORE PUSH1 0x60 DUP3 ADD CALLDATALOAD PUSH1 0x3 DUP3 ADD SSTORE PUSH1 0x80 DUP3 ADD CALLDATALOAD PUSH1 0x4 DUP3 ADD SSTORE PUSH1 0xA0 SWAP2 SWAP1 SWAP2 ADD CALLDATALOAD PUSH1 0x5 SWAP1 SWAP2 ADD SSTORE JUMP JUMPDEST PUSH1 0x0 DUP1 DUP5 SLOAD PUSH2 0x5ACE DUP2 PUSH2 0x592E JUMP JUMPDEST PUSH1 0x1 DUP3 DUP2 AND DUP1 ISZERO PUSH2 0x5AE6 JUMPI PUSH1 0x1 DUP2 EQ PUSH2 0x5AF7 JUMPI PUSH2 0x5B26 JUMP JUMPDEST PUSH1 0xFF NOT DUP5 AND DUP8 MSTORE DUP3 DUP8 ADD SWAP5 POP PUSH2 0x5B26 JUMP JUMPDEST DUP9 PUSH1 0x0 MSTORE PUSH1 0x20 DUP1 PUSH1 0x0 KECCAK256 PUSH1 0x0 JUMPDEST DUP6 DUP2 LT ISZERO PUSH2 0x5B1D JUMPI DUP2 SLOAD DUP11 DUP3 ADD MSTORE SWAP1 DUP5 ADD SWAP1 DUP3 ADD PUSH2 0x5B04 JUMP JUMPDEST POP POP POP DUP3 DUP8 ADD SWAP5 POP JUMPDEST POP POP POP SWAP4 DUP2 MSTORE PUSH5 0x173539B7B7 PUSH1 0xD9 SHL PUSH1 0x20 DUP3 ADD MSTORE PUSH1 0x25 ADD SWAP5 SWAP4 POP POP POP POP JUMP JUMPDEST PUSH1 0x0 DUP3 NOT DUP3 GT ISZERO PUSH2 0x5B58 JUMPI PUSH2 0x5B58 PUSH2 0x59FE JUMP JUMPDEST POP ADD SWAP1 JUMP JUMPDEST PUSH1 0x0 DUP2 PUSH1 0x0 NOT DIV DUP4 GT DUP3 ISZERO ISZERO AND ISZERO PUSH2 0x5B77 JUMPI PUSH2 0x5B77 PUSH2 0x59FE JUMP JUMPDEST POP MUL SWAP1 JUMP JUMPDEST PUSH4 0x4E487B71 PUSH1 0xE0 SHL PUSH1 0x0 MSTORE PUSH1 0x12 PUSH1 0x4 MSTORE PUSH1 0x24 PUSH1 0x0 REVERT JUMPDEST PUSH1 0x0 DUP3 PUSH2 0x5BA1 JUMPI PUSH2 0x5BA1 PUSH2 0x5B7C JUMP JUMPDEST POP DIV SWAP1 JUMP JUMPDEST PUSH1 0x1 PUSH1 0x1 PUSH1 0xA0 SHL SUB SWAP3 SWAP1 SWAP3 AND DUP3 MSTORE PUSH1 0x20 DUP3 ADD MSTORE PUSH1 0x40 ADD SWAP1 JUMP JUMPDEST PUSH1 0x0 PUSH1 0x1 PUSH1 0x1 PUSH1 0x80 SHL SUB DUP3 DUP2 AND DUP5 DUP3 AND DUP1 DUP4 SUB DUP3 GT ISZERO PUSH2 0x5BE1 JUMPI PUSH2 0x5BE1 PUSH2 0x59FE JUMP JUMPDEST ADD SWAP5 SWAP4 POP POP POP POP JUMP JUMPDEST PUSH1 0x1 PUSH1 0x1 PUSH1 0xA0 SHL SUB SWAP5 SWAP1 SWAP5 AND DUP5 MSTORE PUSH1 0x20 DUP5 ADD SWAP3 SWAP1 SWAP3 MSTORE PUSH1 0x40 DUP4 ADD MSTORE PUSH1 0x60 DUP3 ADD MSTORE PUSH1 0x80 ADD SWAP1 JUMP JUMPDEST PUSH1 0x20 DUP1 DUP3 MSTORE PUSH1 0x29 SWAP1 DUP3 ADD MSTORE PUSH32 0x455243313135353A2063616C6C6572206973206E6F74206F776E6572206E6F72 PUSH1 0x40 DUP3 ADD MSTORE PUSH9 0x8185C1C1C9BDD9959 PUSH1 0xBA SHL PUSH1 0x60 DUP3 ADD MSTORE PUSH1 0x80 ADD SWAP1 JUMP JUMPDEST PUSH1 0x0 PUSH1 0x1 PUSH1 0x1 PUSH1 0x80 SHL SUB DUP4 DUP2 AND SWAP1 DUP4 AND DUP2 DUP2 LT ISZERO PUSH2 0x5C79 JUMPI PUSH2 0x5C79 PUSH2 0x59FE JUMP JUMPDEST SUB SWAP4 SWAP3 POP POP POP JUMP JUMPDEST PUSH1 0x1 PUSH1 0x1 PUSH1 0xA0 SHL SUB SWAP4 SWAP1 SWAP4 AND DUP4 MSTORE PUSH1 0x1 PUSH1 0x1 PUSH1 0x80 SHL SUB SWAP2 DUP3 AND PUSH1 0x20 DUP5 ADD MSTORE AND PUSH1 0x40 DUP3 ADD MSTORE PUSH1 0x60 ADD SWAP1 JUMP JUMPDEST PUSH1 0x1 PUSH1 0x1 PUSH1 0xA0 SHL SUB SWAP3 DUP4 AND DUP2 MSTORE SWAP2 AND PUSH1 0x20 DUP3 ADD MSTORE PUSH1 0x40 ADD SWAP1 JUMP JUMPDEST PUSH1 0x0 PUSH1 0x20 DUP3 DUP5 SUB SLT ISZERO PUSH2 0x5CD7 JUMPI PUSH1 0x0 DUP1 REVERT JUMPDEST DUP2 MLOAD PUSH2 0x1548 DUP2 PUSH2 0x56FD JUMP JUMPDEST PUSH1 0x0 DUP3 MLOAD PUSH2 0x5CF4 DUP2 DUP5 PUSH1 0x20 DUP8 ADD PUSH2 0x51C5 JUMP JUMPDEST PUSH9 0x3DB4B23E973539B7B7 PUSH1 0xB9 SHL SWAP3 ADD SWAP2 DUP3 MSTORE POP PUSH1 0x9 ADD SWAP2 SWAP1 POP JUMP JUMPDEST PUSH1 0x0 PUSH1 0x20 DUP3 DUP5 SUB SLT ISZERO PUSH2 0x5D21 JUMPI PUSH1 0x0 DUP1 REVERT JUMPDEST POP MLOAD SWAP2 SWAP1 POP JUMP JUMPDEST PUSH23 0x20B1B1B2B9B9A1B7B73A3937B61D1030B1B1B7BAB73A1 PUSH1 0x4D SHL DUP2 MSTORE PUSH1 0x0 DUP4 MLOAD PUSH2 0x5D5A DUP2 PUSH1 0x17 DUP6 ADD PUSH1 0x20 DUP9 ADD PUSH2 0x51C5 JUMP JUMPDEST PUSH17 0x1034B99036B4B9B9B4B733903937B6329 PUSH1 0x7D SHL PUSH1 0x17 SWAP2 DUP5 ADD SWAP2 DUP3 ADD MSTORE DUP4 MLOAD PUSH2 0x5D8B DUP2 PUSH1 0x28 DUP5 ADD PUSH1 0x20 DUP9 ADD PUSH2 0x51C5 JUMP JUMPDEST ADD PUSH1 0x28 ADD SWAP5 SWAP4 POP POP POP POP JUMP JUMPDEST PUSH1 0x20 DUP1 DUP3 MSTORE PUSH1 0x28 SWAP1 DUP3 ADD MSTORE PUSH32 0x455243313135353A2069647320616E6420616D6F756E7473206C656E67746820 PUSH1 0x40 DUP3 ADD MSTORE PUSH8 0xDAD2E6DAC2E8C6D PUSH1 0xC3 SHL PUSH1 0x60 DUP3 ADD MSTORE PUSH1 0x80 ADD SWAP1 JUMP JUMPDEST PUSH1 0x20 DUP1 DUP3 MSTORE PUSH1 0x25 SWAP1 DUP3 ADD MSTORE PUSH32 0x455243313135353A207472616E7366657220746F20746865207A65726F206164 PUSH1 0x40 DUP3 ADD MSTORE PUSH5 0x6472657373 PUSH1 0xD8 SHL PUSH1 0x60 DUP3 ADD MSTORE PUSH1 0x80 ADD SWAP1 JUMP JUMPDEST PUSH1 0x20 DUP1 DUP3 MSTORE PUSH1 0x2A SWAP1 DUP3 ADD MSTORE PUSH32 0x455243313135353A20696E73756666696369656E742062616C616E636520666F PUSH1 0x40 DUP3 ADD MSTORE PUSH10 0x39103A3930B739B332B9 PUSH1 0xB1 SHL PUSH1 0x60 DUP3 ADD MSTORE PUSH1 0x80 ADD SWAP1 JUMP JUMPDEST PUSH1 0x40 DUP2 MSTORE PUSH1 0x0 PUSH2 0x5E81 PUSH1 0x40 DUP4 ADD DUP6 PUSH2 0x5618 JUMP JUMPDEST DUP3 DUP2 SUB PUSH1 0x20 DUP5 ADD MSTORE PUSH2 0x1544 DUP2 DUP6 PUSH2 0x5618 JUMP JUMPDEST PUSH1 0x20 DUP1 DUP3 MSTORE PUSH1 0x23 SWAP1 DUP3 ADD MSTORE PUSH32 0x455243313135353A206275726E2066726F6D20746865207A65726F2061646472 PUSH1 0x40 DUP3 ADD MSTORE PUSH3 0x657373 PUSH1 0xE8 SHL PUSH1 0x60 DUP3 ADD MSTORE PUSH1 0x80 ADD SWAP1 JUMP JUMPDEST PUSH1 0x20 DUP1 DUP3 MSTORE PUSH1 0x24 SWAP1 DUP3 ADD MSTORE PUSH32 0x455243313135353A206275726E20616D6F756E7420657863656564732062616C PUSH1 0x40 DUP3 ADD MSTORE PUSH4 0x616E6365 PUSH1 0xE0 SHL PUSH1 0x60 DUP3 ADD MSTORE PUSH1 0x80 ADD SWAP1 JUMP JUMPDEST PUSH1 0x0 DUP3 PUSH2 0x5F29 JUMPI PUSH2 0x5F29 PUSH2 0x5B7C JUMP JUMPDEST POP MOD SWAP1 JUMP JUMPDEST PUSH1 0x0 DUP3 MLOAD PUSH2 0x5F40 DUP2 DUP5 PUSH1 0x20 DUP8 ADD PUSH2 0x51C5 JUMP JUMPDEST SWAP2 SWAP1 SWAP2 ADD SWAP3 SWAP2 POP POP JUMP JUMPDEST PUSH1 0x0 DUP2 PUSH2 0x5F59 JUMPI PUSH2 0x5F59 PUSH2 0x59FE JUMP JUMPDEST POP PUSH1 0x0 NOT ADD SWAP1 JUMP JUMPDEST PUSH1 0x1 PUSH1 0x1 PUSH1 0xA0 SHL SUB DUP7 DUP2 AND DUP3 MSTORE DUP6 AND PUSH1 0x20 DUP3 ADD MSTORE PUSH1 0xA0 PUSH1 0x40 DUP3 ADD DUP2 SWAP1 MSTORE PUSH1 0x0 SWAP1 PUSH2 0x5F8D SWAP1 DUP4 ADD DUP7 PUSH2 0x5618 JUMP JUMPDEST DUP3 DUP2 SUB PUSH1 0x60 DUP5 ADD MSTORE PUSH2 0x5F9F DUP2 DUP7 PUSH2 0x5618 JUMP JUMPDEST SWAP1 POP DUP3 DUP2 SUB PUSH1 0x80 DUP5 ADD MSTORE PUSH2 0x5FB3 DUP2 DUP6 PUSH2 0x51F1 JUMP JUMPDEST SWAP9 SWAP8 POP POP POP POP POP POP POP POP JUMP JUMPDEST PUSH1 0x0 PUSH1 0x20 DUP3 DUP5 SUB SLT ISZERO PUSH2 0x5FD1 JUMPI PUSH1 0x0 DUP1 REVERT JUMPDEST DUP2 MLOAD PUSH2 0x1548 DUP2 PUSH2 0x50D4 JUMP JUMPDEST PUSH1 0x0 PUSH1 0x3 RETURNDATASIZE GT ISZERO PUSH2 0x5FF5 JUMPI PUSH1 0x4 PUSH1 0x0 DUP1 RETURNDATACOPY POP PUSH1 0x0 MLOAD PUSH1 0xE0 SHR JUMPDEST SWAP1 JUMP JUMPDEST PUSH1 0x0 PUSH1 0x44 RETURNDATASIZE LT ISZERO PUSH2 0x6006 JUMPI SWAP1 JUMP JUMPDEST PUSH1 0x40 MLOAD PUSH1 0x3 NOT RETURNDATASIZE DUP2 ADD PUSH1 0x4 DUP4 RETURNDATACOPY DUP2 MLOAD RETURNDATASIZE PUSH1 0x1 PUSH1 0x1 PUSH1 0x40 SHL SUB DUP2 PUSH1 0x24 DUP5 ADD GT DUP2 DUP5 GT OR ISZERO PUSH2 0x6035 JUMPI POP POP POP POP POP SWAP1 JUMP JUMPDEST DUP3 DUP6 ADD SWAP2 POP DUP2 MLOAD DUP2 DUP2 GT ISZERO PUSH2 0x604D JUMPI POP POP POP POP POP POP SWAP1 JUMP JUMPDEST DUP5 RETURNDATASIZE DUP8 ADD ADD PUSH1 0x20 DUP3 DUP6 ADD ADD GT ISZERO PUSH2 0x6067 JUMPI POP POP POP POP POP POP SWAP1 JUMP JUMPDEST PUSH2 0x6076 PUSH1 0x20 DUP3 DUP7 ADD ADD DUP8 PUSH2 0x5258 JUMP JUMPDEST POP SWAP1 SWAP6 SWAP5 POP POP POP POP POP JUMP JUMPDEST PUSH1 0x20 DUP1 DUP3 MSTORE PUSH1 0x28 SWAP1 DUP3 ADD MSTORE PUSH32 0x455243313135353A204552433131353552656365697665722072656A65637465 PUSH1 0x40 DUP3 ADD MSTORE PUSH8 0x6420746F6B656E73 PUSH1 0xC0 SHL PUSH1 0x60 DUP3 ADD MSTORE PUSH1 0x80 ADD SWAP1 JUMP JUMPDEST PUSH1 0x1 PUSH1 0x1 PUSH1 0xA0 SHL SUB DUP7 DUP2 AND DUP3 MSTORE DUP6 AND PUSH1 0x20 DUP3 ADD MSTORE PUSH1 0x40 DUP2 ADD DUP5 SWAP1 MSTORE PUSH1 0x60 DUP2 ADD DUP4 SWAP1 MSTORE PUSH1 0xA0 PUSH1 0x80 DUP3 ADD DUP2 SWAP1 MSTORE PUSH1 0x0 SWAP1 PUSH2 0x3918 SWAP1 DUP4 ADD DUP5 PUSH2 0x51F1 JUMP JUMPDEST PUSH4 0x4E487B71 PUSH1 0xE0 SHL PUSH1 0x0 MSTORE PUSH1 0x31 PUSH1 0x4 MSTORE PUSH1 0x24 PUSH1 0x0 REVERT INVALID 0xC3 0xD5 DUP2 PUSH9 0xC5AE7397731D063D5B 0xBF RETURNDATASIZE PUSH6 0x7854427343F4 0xC0 DUP4 0x24 0xF PUSH27 0xACAA2D0F62A264697066735822122041BD5C6B0AE8A63BC82FC3B4 GASPRICE 0xE6 RETURNDATACOPY 0xCB GASPRICE CALLDATACOPY 0xAB 0xDE PUSH6 0x1FFF49202A1D 0xD4 0xBB 0xE9 0x23 SWAP2 PUSH5 0x736F6C6343 STOP ADDMOD SIGNEXTEND STOP CALLER PUSH9 0x747470733A2F2F6461 PUSH21 0x612E63657262792E66692F4365726279537761702F PUSH23 0x312F000000000000000000000000000000000000000000 "
		},
		"gasEstimates": {
			"creation": {
				"codeDepositCost": "4988600",
				"executionCost": "infinite",
				"totalCost": "infinite"
			},
			"external": {
				"ROLE_ADMIN()": "492",
				"addTokenLiquidity(address,uint256,uint256,address)": "infinite",
				"adminCreatePool(address,uint256,uint256,address)": "infinite",
				"adminSetURI(string)": "infinite",
				"adminUpdateFeesAndTvlMultipliers((address,uint256,uint256,uint256,uint256,uint256))": "infinite",
				"adminUpdateNameAndSymbol(string,string)": "infinite",
				"balanceOf(address,uint256)": "2671",
				"balanceOfBatch(address[],uint256[])": "infinite",
				"burn(address,uint256,uint256)": "infinite",
				"burnBatch(address,uint256[],uint256[])": "infinite",
				"decimals()": "446",
				"exists(uint256)": "2847",
				"feeToBeneficiary()": "2824",
				"getCurrentFeeBasedOnTrades(address)": "infinite",
				"getInputTokensForExactTokens(address,address,uint256)": "infinite",
				"getOutputExactTokensForTokens(address,address,uint256)": "infinite",
				"getPoolByPosition(uint256)": "infinite",
				"getPoolByToken(address)": "infinite",
				"getRoleAdmin(bytes32)": "2644",
				"getRoleMember(bytes32,uint256)": "infinite",
				"getRoleMemberCount(bytes32)": "infinite",
				"getTokenToPoolPosition(address)": "2696",
				"getUtilsContractAtPos(uint256)": "infinite",
				"grantRole(bytes32,address)": "infinite",
				"grantRolesBulk((bytes32,address)[])": "infinite",
				"hasRole(bytes32,address)": "2708",
				"isApprovedForAll(address,address)": "infinite",
				"name()": "infinite",
				"removeTokenLiquidity(address,uint256,uint256,address)": "infinite",
				"renounceRole(bytes32,address)": "infinite",
				"revokeRole(bytes32,address)": "infinite",
				"safeBatchTransferFrom(address,address,uint256[],uint256[],bytes)": "infinite",
				"safeTransferFrom(address,address,uint256,uint256,bytes)": "infinite",
				"setApprovalForAll(address,bool)": "infinite",
				"settings()": "13337",
				"skimPool(address)": "infinite",
				"supportsInterface(bytes4)": "infinite",
				"swap(address,uint256,uint256,address)": "infinite",
				"swapExactTokensForTokens(address,address,uint256,uint256,uint256,address)": "infinite",
				"swapTokensForExactTokens(address,address,uint256,uint256,uint256,address)": "infinite",
				"symbol()": "infinite",
				"syncTokenBalanceInPool(address)": "infinite",
				"totalSupply()": "infinite",
				"totalSupply(uint256)": "2647",
				"uri(uint256)": "infinite"
			},
			"internal": {
				"_getInput(uint256,uint256,uint256,uint256)": "infinite",
				"_getMintFeeLiquidityAmount(uint256,uint256,uint256)": "infinite",
				"_getOutput(uint256,uint256,uint256,uint256)": "infinite",
				"_getTokenBalance(address)": "infinite",
				"_removeTokenLiquidity(address,uint256,address)": "infinite",
				"_safeTransferFrom(address,address,address,uint256)": "infinite",
				"_safeTransferFromHelper(address,address,uint256)": "infinite",
				"_safeTransferHelper(address,address,uint256,bool)": "infinite",
				"_safeTransferNative(address,uint256)": "infinite",
				"_safeTransferToken(address,address,uint256)": "infinite",
				"_swap(address,uint256,uint256,address)": "infinite",
				"getCurrentFeeBasedOnTrades(uint256)": "infinite",
				"getCurrentPeriod()": "142",
				"getInputCerUsdForExactTokens(address,uint256)": "infinite",
				"getInputTokensForExactCerUsd(address,uint256)": "infinite",
				"getOutputExactCerUsdForTokens(address,uint256)": "infinite",
				"getOutputExactTokensForCerUsd(address,uint256)": "infinite",
				"sqrt(uint256)": "infinite"
			}
		},
		"methodIdentifiers": {
			"ROLE_ADMIN()": "d391014b",
			"addTokenLiquidity(address,uint256,uint256,address)": "43fefad4",
			"adminCreatePool(address,uint256,uint256,address)": "d5d60737",
			"adminSetURI(string)": "a7fd40bf",
			"adminUpdateFeesAndTvlMultipliers((address,uint256,uint256,uint256,uint256,uint256))": "0c2e075b",
			"adminUpdateNameAndSymbol(string,string)": "3935ac11",
			"balanceOf(address,uint256)": "00fdd58e",
			"balanceOfBatch(address[],uint256[])": "4e1273f4",
			"burn(address,uint256,uint256)": "f5298aca",
			"burnBatch(address,uint256[],uint256[])": "6b20c454",
			"decimals()": "313ce567",
			"exists(uint256)": "4f558e79",
			"feeToBeneficiary()": "7b4b233c",
			"getCurrentFeeBasedOnTrades(address)": "9162ebf0",
			"getInputTokensForExactTokens(address,address,uint256)": "c790985a",
			"getOutputExactTokensForTokens(address,address,uint256)": "48b08d62",
			"getPoolByPosition(uint256)": "d01350bd",
			"getPoolByToken(address)": "bbadc03b",
			"getRoleAdmin(bytes32)": "248a9ca3",
			"getRoleMember(bytes32,uint256)": "9010d07c",
			"getRoleMemberCount(bytes32)": "ca15c873",
			"getTokenToPoolPosition(address)": "b771e425",
			"getUtilsContractAtPos(uint256)": "06fb1a07",
			"grantRole(bytes32,address)": "2f2ff15d",
			"grantRolesBulk((bytes32,address)[])": "03ed957f",
			"hasRole(bytes32,address)": "91d14854",
			"isApprovedForAll(address,address)": "e985e9c5",
			"name()": "06fdde03",
			"removeTokenLiquidity(address,uint256,uint256,address)": "74fcf071",
			"renounceRole(bytes32,address)": "36568abe",
			"revokeRole(bytes32,address)": "d547741f",
			"safeBatchTransferFrom(address,address,uint256[],uint256[],bytes)": "2eb2c2d6",
			"safeTransferFrom(address,address,uint256,uint256,bytes)": "f242432a",
			"setApprovalForAll(address,bool)": "a22cb465",
			"settings()": "e06174e4",
			"skimPool(address)": "03d604bd",
			"supportsInterface(bytes4)": "01ffc9a7",
			"swap(address,uint256,uint256,address)": "f3e6ea8a",
			"swapExactTokensForTokens(address,address,uint256,uint256,uint256,address)": "a60c6e55",
			"swapTokensForExactTokens(address,address,uint256,uint256,uint256,address)": "f6524724",
			"symbol()": "95d89b41",
			"syncTokenBalanceInPool(address)": "9bc731fc",
			"totalSupply()": "18160ddd",
			"totalSupply(uint256)": "bd85b039",
			"uri(uint256)": "0e89341c"
		}
	},
	"abi": [
		{
			"inputs": [],
			"stateMutability": "nonpayable",
			"type": "constructor"
		},
		{
			"anonymous": false,
			"inputs": [
				{
					"indexed": true,
					"internalType": "address",
					"name": "account",
					"type": "address"
				},
				{
					"indexed": true,
					"internalType": "address",
					"name": "operator",
					"type": "address"
				},
				{
					"indexed": false,
					"internalType": "bool",
					"name": "approved",
					"type": "bool"
				}
			],
			"name": "ApprovalForAll",
			"type": "event"
		},
		{
			"anonymous": false,
			"inputs": [
				{
					"indexed": false,
					"internalType": "address",
					"name": "token",
					"type": "address"
				},
				{
					"indexed": false,
					"internalType": "uint256",
					"name": "amountTokensIn",
					"type": "uint256"
				},
				{
					"indexed": false,
					"internalType": "uint256",
					"name": "mintCerUsdAmount",
					"type": "uint256"
				},
				{
					"indexed": false,
					"internalType": "uint256",
					"name": "lpAmount",
					"type": "uint256"
				}
			],
			"name": "LiquidityAdded",
			"type": "event"
		},
		{
			"anonymous": false,
			"inputs": [
				{
					"indexed": false,
					"internalType": "address",
					"name": "token",
					"type": "address"
				},
				{
					"indexed": false,
					"internalType": "uint256",
					"name": "amountTokensOut",
					"type": "uint256"
				},
				{
					"indexed": false,
					"internalType": "uint256",
					"name": "amountCerUsdToBurn",
					"type": "uint256"
				},
				{
					"indexed": false,
					"internalType": "uint256",
					"name": "amountLpTokensBalanceToBurn",
					"type": "uint256"
				}
			],
			"name": "LiquidityRemoved",
			"type": "event"
		},
		{
			"anonymous": false,
			"inputs": [
				{
					"indexed": false,
					"internalType": "address",
					"name": "token",
					"type": "address"
				},
				{
					"indexed": false,
					"internalType": "uint256",
					"name": "amountTokensIn",
					"type": "uint256"
				},
				{
					"indexed": false,
					"internalType": "uint256",
					"name": "amountCerUsdIn",
					"type": "uint256"
				},
				{
					"indexed": false,
					"internalType": "uint256",
					"name": "lpAmount",
					"type": "uint256"
				},
				{
					"indexed": false,
					"internalType": "uint256",
					"name": "poolPos",
					"type": "uint256"
				}
			],
			"name": "PairCreated",
			"type": "event"
		},
		{
			"anonymous": false,
			"inputs": [
				{
					"indexed": true,
					"internalType": "bytes32",
					"name": "role",
					"type": "bytes32"
				},
				{
					"indexed": true,
					"internalType": "bytes32",
					"name": "previousAdminRole",
					"type": "bytes32"
				},
				{
					"indexed": true,
					"internalType": "bytes32",
					"name": "newAdminRole",
					"type": "bytes32"
				}
			],
			"name": "RoleAdminChanged",
			"type": "event"
		},
		{
			"anonymous": false,
			"inputs": [
				{
					"indexed": true,
					"internalType": "bytes32",
					"name": "role",
					"type": "bytes32"
				},
				{
					"indexed": true,
					"internalType": "address",
					"name": "account",
					"type": "address"
				},
				{
					"indexed": true,
					"internalType": "address",
					"name": "sender",
					"type": "address"
				}
			],
			"name": "RoleGranted",
			"type": "event"
		},
		{
			"anonymous": false,
			"inputs": [
				{
					"indexed": true,
					"internalType": "bytes32",
					"name": "role",
					"type": "bytes32"
				},
				{
					"indexed": true,
					"internalType": "address",
					"name": "account",
					"type": "address"
				},
				{
					"indexed": true,
					"internalType": "address",
					"name": "sender",
					"type": "address"
				}
			],
			"name": "RoleRevoked",
			"type": "event"
		},
		{
			"anonymous": false,
			"inputs": [
				{
					"indexed": false,
					"internalType": "address",
					"name": "token",
					"type": "address"
				},
				{
					"indexed": false,
					"internalType": "address",
					"name": "sender",
					"type": "address"
				},
				{
					"indexed": false,
					"internalType": "uint256",
					"name": "amountTokensIn",
					"type": "uint256"
				},
				{
					"indexed": false,
					"internalType": "uint256",
					"name": "amountCerUsdIn",
					"type": "uint256"
				},
				{
					"indexed": false,
					"internalType": "uint256",
					"name": "amountTokensOut",
					"type": "uint256"
				},
				{
					"indexed": false,
					"internalType": "uint256",
					"name": "amountCerUsdOut",
					"type": "uint256"
				},
				{
					"indexed": false,
					"internalType": "address",
					"name": "transferTo",
					"type": "address"
				}
			],
			"name": "Swap",
			"type": "event"
		},
		{
			"anonymous": false,
			"inputs": [
				{
					"indexed": false,
					"internalType": "address",
					"name": "token",
					"type": "address"
				},
				{
					"indexed": false,
					"internalType": "uint256",
					"name": "balanceToken",
					"type": "uint256"
				},
				{
					"indexed": false,
					"internalType": "uint256",
					"name": "balanceCerUsd",
					"type": "uint256"
				}
			],
			"name": "Sync",
			"type": "event"
		},
		{
			"anonymous": false,
			"inputs": [
				{
					"indexed": true,
					"internalType": "address",
					"name": "operator",
					"type": "address"
				},
				{
					"indexed": true,
					"internalType": "address",
					"name": "from",
					"type": "address"
				},
				{
					"indexed": true,
					"internalType": "address",
					"name": "to",
					"type": "address"
				},
				{
					"indexed": false,
					"internalType": "uint256[]",
					"name": "ids",
					"type": "uint256[]"
				},
				{
					"indexed": false,
					"internalType": "uint256[]",
					"name": "values",
					"type": "uint256[]"
				}
			],
			"name": "TransferBatch",
			"type": "event"
		},
		{
			"anonymous": false,
			"inputs": [
				{
					"indexed": true,
					"internalType": "address",
					"name": "operator",
					"type": "address"
				},
				{
					"indexed": true,
					"internalType": "address",
					"name": "from",
					"type": "address"
				},
				{
					"indexed": true,
					"internalType": "address",
					"name": "to",
					"type": "address"
				},
				{
					"indexed": false,
					"internalType": "uint256",
					"name": "id",
					"type": "uint256"
				},
				{
					"indexed": false,
					"internalType": "uint256",
					"name": "value",
					"type": "uint256"
				}
			],
			"name": "TransferSingle",
			"type": "event"
		},
		{
			"anonymous": false,
			"inputs": [
				{
					"indexed": false,
					"internalType": "string",
					"name": "value",
					"type": "string"
				},
				{
					"indexed": true,
					"internalType": "uint256",
					"name": "id",
					"type": "uint256"
				}
			],
			"name": "URI",
			"type": "event"
		},
		{
			"inputs": [],
			"name": "ROLE_ADMIN",
			"outputs": [
				{
					"internalType": "bytes32",
					"name": "",
					"type": "bytes32"
				}
			],
			"stateMutability": "view",
			"type": "function"
		},
		{
			"inputs": [
				{
					"internalType": "address",
					"name": "token",
					"type": "address"
				},
				{
					"internalType": "uint256",
					"name": "amountTokensIn",
					"type": "uint256"
				},
				{
					"internalType": "uint256",
					"name": "expireTimestamp",
					"type": "uint256"
				},
				{
					"internalType": "address",
					"name": "transferTo",
					"type": "address"
				}
			],
			"name": "addTokenLiquidity",
			"outputs": [],
			"stateMutability": "payable",
			"type": "function"
		},
		{
			"inputs": [
				{
					"internalType": "address",
					"name": "token",
					"type": "address"
				},
				{
					"internalType": "uint256",
					"name": "amountTokensIn",
					"type": "uint256"
				},
				{
					"internalType": "uint256",
					"name": "amountCerUsdIn",
					"type": "uint256"
				},
				{
					"internalType": "address",
					"name": "transferTo",
					"type": "address"
				}
			],
			"name": "adminCreatePool",
			"outputs": [],
			"stateMutability": "payable",
			"type": "function"
		},
		{
			"inputs": [
				{
					"internalType": "string",
					"name": "newUrlPrefix",
					"type": "string"
				}
			],
			"name": "adminSetURI",
			"outputs": [],
			"stateMutability": "nonpayable",
			"type": "function"
		},
		{
			"inputs": [
				{
					"components": [
						{
							"internalType": "address",
							"name": "feeToBeneficiary",
							"type": "address"
						},
						{
							"internalType": "uint256",
							"name": "mintFeeMultiplier",
							"type": "uint256"
						},
						{
							"internalType": "uint256",
							"name": "feeMinimum",
							"type": "uint256"
						},
						{
							"internalType": "uint256",
							"name": "feeMaximum",
							"type": "uint256"
						},
						{
							"internalType": "uint256",
							"name": "tvlMultiplierMinimum",
							"type": "uint256"
						},
						{
							"internalType": "uint256",
							"name": "tvlMultiplierMaximum",
							"type": "uint256"
						}
					],
					"internalType": "struct CerbySwapV1.Settings",
					"name": "_settings",
					"type": "tuple"
				}
			],
			"name": "adminUpdateFeesAndTvlMultipliers",
			"outputs": [],
			"stateMutability": "nonpayable",
			"type": "function"
		},
		{
			"inputs": [
				{
					"internalType": "string",
					"name": "newName",
					"type": "string"
				},
				{
					"internalType": "string",
					"name": "newSymbol",
					"type": "string"
				}
			],
			"name": "adminUpdateNameAndSymbol",
			"outputs": [],
			"stateMutability": "nonpayable",
			"type": "function"
		},
		{
			"inputs": [
				{
					"internalType": "address",
					"name": "account",
					"type": "address"
				},
				{
					"internalType": "uint256",
					"name": "id",
					"type": "uint256"
				}
			],
			"name": "balanceOf",
			"outputs": [
				{
					"internalType": "uint256",
					"name": "",
					"type": "uint256"
				}
			],
			"stateMutability": "view",
			"type": "function"
		},
		{
			"inputs": [
				{
					"internalType": "address[]",
					"name": "accounts",
					"type": "address[]"
				},
				{
					"internalType": "uint256[]",
					"name": "ids",
					"type": "uint256[]"
				}
			],
			"name": "balanceOfBatch",
			"outputs": [
				{
					"internalType": "uint256[]",
					"name": "",
					"type": "uint256[]"
				}
			],
			"stateMutability": "view",
			"type": "function"
		},
		{
			"inputs": [
				{
					"internalType": "address",
					"name": "account",
					"type": "address"
				},
				{
					"internalType": "uint256",
					"name": "id",
					"type": "uint256"
				},
				{
					"internalType": "uint256",
					"name": "value",
					"type": "uint256"
				}
			],
			"name": "burn",
			"outputs": [],
			"stateMutability": "nonpayable",
			"type": "function"
		},
		{
			"inputs": [
				{
					"internalType": "address",
					"name": "account",
					"type": "address"
				},
				{
					"internalType": "uint256[]",
					"name": "ids",
					"type": "uint256[]"
				},
				{
					"internalType": "uint256[]",
					"name": "values",
					"type": "uint256[]"
				}
			],
			"name": "burnBatch",
			"outputs": [],
			"stateMutability": "nonpayable",
			"type": "function"
		},
		{
			"inputs": [],
			"name": "decimals",
			"outputs": [
				{
					"internalType": "uint256",
					"name": "",
					"type": "uint256"
				}
			],
			"stateMutability": "pure",
			"type": "function"
		},
		{
			"inputs": [
				{
					"internalType": "uint256",
					"name": "id",
					"type": "uint256"
				}
			],
			"name": "exists",
			"outputs": [
				{
					"internalType": "bool",
					"name": "",
					"type": "bool"
				}
			],
			"stateMutability": "view",
			"type": "function"
		},
		{
			"inputs": [],
			"name": "feeToBeneficiary",
			"outputs": [
				{
					"internalType": "address",
					"name": "",
					"type": "address"
				}
			],
			"stateMutability": "view",
			"type": "function"
		},
		{
			"inputs": [
				{
					"internalType": "address",
					"name": "token",
					"type": "address"
				}
			],
			"name": "getCurrentFeeBasedOnTrades",
			"outputs": [
				{
					"internalType": "uint256",
					"name": "fee",
					"type": "uint256"
				}
			],
			"stateMutability": "view",
			"type": "function"
		},
		{
			"inputs": [
				{
					"internalType": "address",
					"name": "tokenIn",
					"type": "address"
				},
				{
					"internalType": "address",
					"name": "tokenOut",
					"type": "address"
				},
				{
					"internalType": "uint256",
					"name": "amountTokensOut",
					"type": "uint256"
				}
			],
			"name": "getInputTokensForExactTokens",
			"outputs": [
				{
					"internalType": "uint256",
					"name": "amountTokensIn",
					"type": "uint256"
				}
			],
			"stateMutability": "view",
			"type": "function"
		},
		{
			"inputs": [
				{
					"internalType": "address",
					"name": "tokenIn",
					"type": "address"
				},
				{
					"internalType": "address",
					"name": "tokenOut",
					"type": "address"
				},
				{
					"internalType": "uint256",
					"name": "amountTokensIn",
					"type": "uint256"
				}
			],
			"name": "getOutputExactTokensForTokens",
			"outputs": [
				{
					"internalType": "uint256",
					"name": "amountTokensOut",
					"type": "uint256"
				}
			],
			"stateMutability": "view",
			"type": "function"
		},
		{
			"inputs": [
				{
					"internalType": "uint256",
					"name": "pos",
					"type": "uint256"
				}
			],
			"name": "getPoolByPosition",
			"outputs": [
				{
					"components": [
						{
							"internalType": "address",
							"name": "token",
							"type": "address"
						},
						{
							"internalType": "uint32[8]",
							"name": "tradeVolumePerPeriodInCerUsd",
							"type": "uint32[8]"
						},
						{
							"internalType": "uint128",
							"name": "balanceToken",
							"type": "uint128"
						},
						{
							"internalType": "uint128",
							"name": "balanceCerUsd",
							"type": "uint128"
						},
						{
							"internalType": "uint128",
							"name": "lastSqrtKValue",
							"type": "uint128"
						}
					],
					"internalType": "struct CerbySwapV1.Pool",
					"name": "",
					"type": "tuple"
				}
			],
			"stateMutability": "view",
			"type": "function"
		},
		{
			"inputs": [
				{
					"internalType": "address",
					"name": "token",
					"type": "address"
				}
			],
			"name": "getPoolByToken",
			"outputs": [
				{
					"components": [
						{
							"internalType": "address",
							"name": "token",
							"type": "address"
						},
						{
							"internalType": "uint32[8]",
							"name": "tradeVolumePerPeriodInCerUsd",
							"type": "uint32[8]"
						},
						{
							"internalType": "uint128",
							"name": "balanceToken",
							"type": "uint128"
						},
						{
							"internalType": "uint128",
							"name": "balanceCerUsd",
							"type": "uint128"
						},
						{
							"internalType": "uint128",
							"name": "lastSqrtKValue",
							"type": "uint128"
						}
					],
					"internalType": "struct CerbySwapV1.Pool",
					"name": "",
					"type": "tuple"
				}
			],
			"stateMutability": "view",
			"type": "function"
		},
		{
			"inputs": [
				{
					"internalType": "bytes32",
					"name": "role",
					"type": "bytes32"
				}
			],
			"name": "getRoleAdmin",
			"outputs": [
				{
					"internalType": "bytes32",
					"name": "",
					"type": "bytes32"
				}
			],
			"stateMutability": "view",
			"type": "function"
		},
		{
			"inputs": [
				{
					"internalType": "bytes32",
					"name": "role",
					"type": "bytes32"
				},
				{
					"internalType": "uint256",
					"name": "index",
					"type": "uint256"
				}
			],
			"name": "getRoleMember",
			"outputs": [
				{
					"internalType": "address",
					"name": "",
					"type": "address"
				}
			],
			"stateMutability": "view",
			"type": "function"
		},
		{
			"inputs": [
				{
					"internalType": "bytes32",
					"name": "role",
					"type": "bytes32"
				}
			],
			"name": "getRoleMemberCount",
			"outputs": [
				{
					"internalType": "uint256",
					"name": "",
					"type": "uint256"
				}
			],
			"stateMutability": "view",
			"type": "function"
		},
		{
			"inputs": [
				{
					"internalType": "address",
					"name": "token",
					"type": "address"
				}
			],
			"name": "getTokenToPoolPosition",
			"outputs": [
				{
					"internalType": "uint256",
					"name": "",
					"type": "uint256"
				}
			],
			"stateMutability": "view",
			"type": "function"
		},
		{
			"inputs": [
				{
					"internalType": "uint256",
					"name": "pos",
					"type": "uint256"
				}
			],
			"name": "getUtilsContractAtPos",
			"outputs": [
				{
					"internalType": "address",
					"name": "",
					"type": "address"
				}
			],
			"stateMutability": "view",
			"type": "function"
		},
		{
			"inputs": [
				{
					"internalType": "bytes32",
					"name": "role",
					"type": "bytes32"
				},
				{
					"internalType": "address",
					"name": "account",
					"type": "address"
				}
			],
			"name": "grantRole",
			"outputs": [],
			"stateMutability": "nonpayable",
			"type": "function"
		},
		{
			"inputs": [
				{
					"components": [
						{
							"internalType": "bytes32",
							"name": "role",
							"type": "bytes32"
						},
						{
							"internalType": "address",
							"name": "addr",
							"type": "address"
						}
					],
					"internalType": "struct RoleAccess[]",
					"name": "roles",
					"type": "tuple[]"
				}
			],
			"name": "grantRolesBulk",
			"outputs": [],
			"stateMutability": "nonpayable",
			"type": "function"
		},
		{
			"inputs": [
				{
					"internalType": "bytes32",
					"name": "role",
					"type": "bytes32"
				},
				{
					"internalType": "address",
					"name": "account",
					"type": "address"
				}
			],
			"name": "hasRole",
			"outputs": [
				{
					"internalType": "bool",
					"name": "",
					"type": "bool"
				}
			],
			"stateMutability": "view",
			"type": "function"
		},
		{
			"inputs": [
				{
					"internalType": "address",
					"name": "account",
					"type": "address"
				},
				{
					"internalType": "address",
					"name": "operator",
					"type": "address"
				}
			],
			"name": "isApprovedForAll",
			"outputs": [
				{
					"internalType": "bool",
					"name": "",
					"type": "bool"
				}
			],
			"stateMutability": "view",
			"type": "function"
		},
		{
			"inputs": [],
			"name": "name",
			"outputs": [
				{
					"internalType": "string",
					"name": "",
					"type": "string"
				}
			],
			"stateMutability": "view",
			"type": "function"
		},
		{
			"inputs": [
				{
					"internalType": "address",
					"name": "token",
					"type": "address"
				},
				{
					"internalType": "uint256",
					"name": "amountLpTokensBalanceToBurn",
					"type": "uint256"
				},
				{
					"internalType": "uint256",
					"name": "expireTimestamp",
					"type": "uint256"
				},
				{
					"internalType": "address",
					"name": "transferTo",
					"type": "address"
				}
			],
			"name": "removeTokenLiquidity",
			"outputs": [],
			"stateMutability": "nonpayable",
			"type": "function"
		},
		{
			"inputs": [
				{
					"internalType": "bytes32",
					"name": "role",
					"type": "bytes32"
				},
				{
					"internalType": "address",
					"name": "account",
					"type": "address"
				}
			],
			"name": "renounceRole",
			"outputs": [],
			"stateMutability": "nonpayable",
			"type": "function"
		},
		{
			"inputs": [
				{
					"internalType": "bytes32",
					"name": "role",
					"type": "bytes32"
				},
				{
					"internalType": "address",
					"name": "account",
					"type": "address"
				}
			],
			"name": "revokeRole",
			"outputs": [],
			"stateMutability": "nonpayable",
			"type": "function"
		},
		{
			"inputs": [
				{
					"internalType": "address",
					"name": "from",
					"type": "address"
				},
				{
					"internalType": "address",
					"name": "to",
					"type": "address"
				},
				{
					"internalType": "uint256[]",
					"name": "ids",
					"type": "uint256[]"
				},
				{
					"internalType": "uint256[]",
					"name": "amounts",
					"type": "uint256[]"
				},
				{
					"internalType": "bytes",
					"name": "data",
					"type": "bytes"
				}
			],
			"name": "safeBatchTransferFrom",
			"outputs": [],
			"stateMutability": "nonpayable",
			"type": "function"
		},
		{
			"inputs": [
				{
					"internalType": "address",
					"name": "from",
					"type": "address"
				},
				{
					"internalType": "address",
					"name": "to",
					"type": "address"
				},
				{
					"internalType": "uint256",
					"name": "id",
					"type": "uint256"
				},
				{
					"internalType": "uint256",
					"name": "amount",
					"type": "uint256"
				},
				{
					"internalType": "bytes",
					"name": "data",
					"type": "bytes"
				}
			],
			"name": "safeTransferFrom",
			"outputs": [],
			"stateMutability": "nonpayable",
			"type": "function"
		},
		{
			"inputs": [
				{
					"internalType": "address",
					"name": "operator",
					"type": "address"
				},
				{
					"internalType": "bool",
					"name": "approved",
					"type": "bool"
				}
			],
			"name": "setApprovalForAll",
			"outputs": [],
			"stateMutability": "nonpayable",
			"type": "function"
		},
		{
			"inputs": [],
			"name": "settings",
			"outputs": [
				{
					"internalType": "address",
					"name": "feeToBeneficiary",
					"type": "address"
				},
				{
					"internalType": "uint256",
					"name": "mintFeeMultiplier",
					"type": "uint256"
				},
				{
					"internalType": "uint256",
					"name": "feeMinimum",
					"type": "uint256"
				},
				{
					"internalType": "uint256",
					"name": "feeMaximum",
					"type": "uint256"
				},
				{
					"internalType": "uint256",
					"name": "tvlMultiplierMinimum",
					"type": "uint256"
				},
				{
					"internalType": "uint256",
					"name": "tvlMultiplierMaximum",
					"type": "uint256"
				}
			],
			"stateMutability": "view",
			"type": "function"
		},
		{
			"inputs": [
				{
					"internalType": "address",
					"name": "token",
					"type": "address"
				}
			],
			"name": "skimPool",
			"outputs": [],
			"stateMutability": "nonpayable",
			"type": "function"
		},
		{
			"inputs": [
				{
					"internalType": "bytes4",
					"name": "interfaceId",
					"type": "bytes4"
				}
			],
			"name": "supportsInterface",
			"outputs": [
				{
					"internalType": "bool",
					"name": "",
					"type": "bool"
				}
			],
			"stateMutability": "view",
			"type": "function"
		},
		{
			"inputs": [
				{
					"internalType": "address",
					"name": "token",
					"type": "address"
				},
				{
					"internalType": "uint256",
					"name": "amountTokensOut",
					"type": "uint256"
				},
				{
					"internalType": "uint256",
					"name": "amountCerUsdOut",
					"type": "uint256"
				},
				{
					"internalType": "address",
					"name": "transferTo",
					"type": "address"
				}
			],
			"name": "swap",
			"outputs": [],
			"stateMutability": "payable",
			"type": "function"
		},
		{
			"inputs": [
				{
					"internalType": "address",
					"name": "tokenIn",
					"type": "address"
				},
				{
					"internalType": "address",
					"name": "tokenOut",
					"type": "address"
				},
				{
					"internalType": "uint256",
					"name": "amountTokensIn",
					"type": "uint256"
				},
				{
					"internalType": "uint256",
					"name": "minAmountTokensOut",
					"type": "uint256"
				},
				{
					"internalType": "uint256",
					"name": "expireTimestamp",
					"type": "uint256"
				},
				{
					"internalType": "address",
					"name": "transferTo",
					"type": "address"
				}
			],
			"name": "swapExactTokensForTokens",
			"outputs": [
				{
					"internalType": "uint256",
					"name": "",
					"type": "uint256"
				},
				{
					"internalType": "uint256",
					"name": "",
					"type": "uint256"
				}
			],
			"stateMutability": "payable",
			"type": "function"
		},
		{
			"inputs": [
				{
					"internalType": "address",
					"name": "tokenIn",
					"type": "address"
				},
				{
					"internalType": "address",
					"name": "tokenOut",
					"type": "address"
				},
				{
					"internalType": "uint256",
					"name": "amountTokensOut",
					"type": "uint256"
				},
				{
					"internalType": "uint256",
					"name": "maxAmountTokensIn",
					"type": "uint256"
				},
				{
					"internalType": "uint256",
					"name": "expireTimestamp",
					"type": "uint256"
				},
				{
					"internalType": "address",
					"name": "transferTo",
					"type": "address"
				}
			],
			"name": "swapTokensForExactTokens",
			"outputs": [
				{
					"internalType": "uint256",
					"name": "",
					"type": "uint256"
				},
				{
					"internalType": "uint256",
					"name": "",
					"type": "uint256"
				}
			],
			"stateMutability": "payable",
			"type": "function"
		},
		{
			"inputs": [],
			"name": "symbol",
			"outputs": [
				{
					"internalType": "string",
					"name": "",
					"type": "string"
				}
			],
			"stateMutability": "view",
			"type": "function"
		},
		{
			"inputs": [
				{
					"internalType": "address",
					"name": "token",
					"type": "address"
				}
			],
			"name": "syncTokenBalanceInPool",
			"outputs": [],
			"stateMutability": "nonpayable",
			"type": "function"
		},
		{
			"inputs": [],
			"name": "totalSupply",
			"outputs": [
				{
					"internalType": "uint256",
					"name": "",
					"type": "uint256"
				}
			],
			"stateMutability": "view",
			"type": "function"
		},
		{
			"inputs": [
				{
					"internalType": "uint256",
					"name": "id",
					"type": "uint256"
				}
			],
			"name": "totalSupply",
			"outputs": [
				{
					"internalType": "uint256",
					"name": "",
					"type": "uint256"
				}
			],
			"stateMutability": "view",
			"type": "function"
		},
		{
			"inputs": [
				{
					"internalType": "uint256",
					"name": "id",
					"type": "uint256"
				}
			],
			"name": "uri",
			"outputs": [
				{
					"internalType": "string",
					"name": "",
					"type": "string"
				}
			],
			"stateMutability": "view",
			"type": "function"
		},
		{
			"stateMutability": "payable",
			"type": "receive"
		}
	]
}