{
	"data": {
		"bytecode": {
			"linkReferences": {},
			"object": "608060405234801561001057600080fd5b506001600260006101000a81548160ff0219169083600481111561003757610036610063565b5b02179055506802b5e3af16b1880000600660006001815260200190815260200160002081905550610092565b7f4e487b7100000000000000000000000000000000000000000000000000000000600052602160045260246000fd5b61287780620000a26000396000f3fe608060405234801561001057600080fd5b50600436106101215760003560e01c806383f556e1116100ad578063d391014b11610071578063d391014b1461034e578063d547741f1461036c578063efb96ed314610388578063fb6465a0146103a4578063fbce0b5f146103d457610121565b806383f556e1146102865780639010d07c146102a257806391d14854146102d2578063c957c6e514610302578063ca15c8731461031e57610121565b8063248a9ca3116100f4578063248a9ca3146101d25780632ac73a1f146102025780632f2ff15d1461021e57806336568abe1461023a5780635e7c9fe81461025657610121565b8063012e32891461012657806301ffc9a71461015657806303ed957f1461018657806312a4868c146101a2575b600080fd5b610140600480360381019061013b919061188d565b6103f0565b60405161014d91906118c9565b60405180910390f35b610170600480360381019061016b919061193c565b610408565b60405161017d9190611984565b60405180910390f35b6101a0600480360381019061019b9190611a04565b610482565b005b6101bc60048036038101906101b79190611a87565b61050e565b6040516101c99190611b2b565b60405180910390f35b6101ec60048036038101906101e79190611a87565b61052e565b6040516101f99190611b55565b60405180910390f35b61021c60048036038101906102179190611d70565b61054d565b005b61023860048036038101906102339190611df3565b6105a8565b005b610254600480360381019061024f9190611df3565b6105d1565b005b610270600480360381019061026b9190611a87565b61064b565b60405161027d9190611e7b565b60405180910390f35b6102a0600480360381019061029b9190611ecf565b61066b565b005b6102bc60048036038101906102b79190611f94565b610b35565b6040516102c99190611fe3565b60405180910390f35b6102ec60048036038101906102e79190611df3565b610b64565b6040516102f99190611984565b60405180910390f35b61031c60048036038101906103179190612054565b610bce565b005b61033860048036038101906103339190611a87565b610c3c565b60405161034591906118c9565b60405180910390f35b610356610c60565b6040516103639190611b55565b60405180910390f35b61038660048036038101906103819190611df3565b610c67565b005b6103a2600480360381019061039d91906120b4565b610c90565b005b6103be60048036038101906103b991906121a2565b611090565b6040516103cb91906121de565b60405180910390f35b6103ee60048036038101906103e99190611a87565b6110b3565b005b60066020528060005260406000206000915090505481565b60007f5a05180f000000000000000000000000000000000000000000000000000000007bffffffffffffffffffffffffffffffffffffffffffffffffffffffff1916827bffffffffffffffffffffffffffffffffffffffffffffffffffffffff1916148061047b575061047a826111bd565b5b9050919050565b6000801b61049781610492611227565b61122f565b60005b83839050811015610508576104f58484838181106104bb576104ba6121f9565b5b905060400201600001358585848181106104d8576104d76121f9565b5b90506040020160200160208101906104f091906121a2565b611280565b808061050090612257565b91505061049a565b50505050565b60036020528060005260406000206000915054906101000a900460ff1681565b6000806000838152602001908152602001600020600101549050919050565b6000610563838361055d8861128e565b876112f1565b905060016005600083815260200190815260200160002060006101000a81548160ff0219169083600281111561059c5761059b611ab4565b5b02179055505050505050565b6105b18261052e565b6105c2816105bd611227565b61122f565b6105cc83836113a8565b505050565b6105d9611227565b73ffffffffffffffffffffffffffffffffffffffff168173ffffffffffffffffffffffffffffffffffffffff161461063d576040517f339a6f6e00000000000000000000000000000000000000000000000000000000815260040160405180910390fd5b61064782826113dc565b5050565b60056020528060005260406000206000915054906101000a900460ff1681565b60288451146106a6576040517fd5bedca600000000000000000000000000000000000000000000000000000000815260040160405180910390fd5b60288551146106e1576040517fa047f2b800000000000000000000000000000000000000000000000000000000815260040160405180910390fd5b60006106ec3361128e565b905060006106f98861128e565b9050600061071e8560ff16600481111561071657610715611ab4565b5b85848b6112f1565b90506001600281111561073457610733611ab4565b5b6005600083815260200190815260200160002060009054906101000a900460ff16600281111561076757610766611ab4565b5b1461079e576040517f42fc93f300000000000000000000000000000000000000000000000000000000815260040160405180910390fd5b508773ffffffffffffffffffffffffffffffffffffffff166370a08231336040518263ffffffff1660e01b81526004016107d89190611fe3565b602060405180830381865afa1580156107f5573d6000803e3d6000fd5b505050506040513d601f19601f8201168201806040525081019061081991906122b5565b851115610852576040517ff228de4e00000000000000000000000000000000000000000000000000000000815260040160405180910390fd5b6000600460008a73ffffffffffffffffffffffffffffffffffffffff1673ffffffffffffffffffffffffffffffffffffffff16815260200190815260200160002060009054906101000a900463ffffffff1663ffffffff16905060008289858a8a600260009054906101000a900460ff1660048111156108d5576108d4611ab4565b5b468c8c8a6040516020016108f29a999897969594939291906123e9565b604051602081830303815290604052905060e681511461093e576040517f46f0aede00000000000000000000000000000000000000000000000000000000815260040160405180910390fd5b6000600282604051610950919061248d565b602060405180830381855afa15801561096d573d6000803e3d6000fd5b5050506040513d601f19601f8201168201806040525081019061099091906124b9565b905060016003600083815260200190815260200160002060006101000a81548160ff021916908360038111156109c9576109c8611ab4565b5b02179055508a73ffffffffffffffffffffffffffffffffffffffff166318a8ad87338a6040518363ffffffff1660e01b8152600401610a099291906124e6565b600060405180830381600087803b158015610a2357600080fd5b505af1158015610a37573d6000803e3d6000fd5b505050507f01df96f350c772d8c25ea745071e8042f12dfc37488aba7ebbf174ba89ca5ba8848b878c8c88600260009054906101000a900460ff16468f60ff166004811115610a8957610a88611ab4565b5b8f8b604051610aa29b9a999897969594939291906125a1565b60405180910390a1600460008c73ffffffffffffffffffffffffffffffffffffffff1673ffffffffffffffffffffffffffffffffffffffff168152602001908152602001600020600081819054906101000a900463ffffffff1680929190610b0990612668565b91906101000a81548163ffffffff021916908363ffffffff160217905550505050505050505050505050565b6000610b5c826001600086815260200190815260200160002061141090919063ffffffff16565b905092915050565b600080600084815260200190815260200160002060000160008373ffffffffffffffffffffffffffffffffffffffff1673ffffffffffffffffffffffffffffffffffffffff16815260200190815260200160002060009054906101000a900460ff16905092915050565b6000801b610be381610bde611227565b61122f565b60005b84849050811015610c35578260066000878785818110610c0957610c086121f9565b5b905060200201358152602001908152602001600020819055508080610c2d90612257565b915050610be6565b5050505050565b6000610c596001600084815260200190815260200160002061142a565b9050919050565b6000801b81565b610c708261052e565b610c8181610c7c611227565b61122f565b610c8b83836113dc565b505050565b6028865114610ccb576040517fd5bedca600000000000000000000000000000000000000000000000000000000815260040160405180910390fd5b6028875114610d06576040517fa047f2b800000000000000000000000000000000000000000000000000000000815260040160405180910390fd5b6000610d113361128e565b90506000610d1e8a61128e565b90506000610d438860ff166004811115610d3b57610d3a611ab4565b5b88848d6112f1565b905060016002811115610d5957610d58611ab4565b5b6005600083815260200190815260200160002060009054906101000a900460ff166002811115610d8c57610d8b611ab4565b5b14610dc3576040517f42fc93f300000000000000000000000000000000000000000000000000000000815260040160405180910390fd5b5060026003811115610dd857610dd7611ab4565b5b6003600087815260200190815260200160002060009054906101000a900460ff166003811115610e0b57610e0a611ab4565b5b14610e42576040517f8430c48e00000000000000000000000000000000000000000000000000000000815260040160405180910390fd5b6000818a848b88600260009054906101000a900460ff166004811115610e6b57610e6a611ab4565b5b468e8e8c604051602001610e889a999897969594939291906123e9565b604051602081830303815290604052905060e6815114610ed4576040517f46f0aede00000000000000000000000000000000000000000000000000000000815260040160405180910390fd5b6000600282604051610ee6919061248d565b602060405180830381855afa158015610f03573d6000803e3d6000fd5b5050506040513d601f19601f82011682018060405250810190610f2691906124b9565b9050868114610f61576040517f17f4201000000000000000000000000000000000000000000000000000000000815260040160405180910390fd5b600380600089815260200190815260200160002060006101000a81548160ff02191690836003811115610f9757610f96611ab4565b5b02179055508b73ffffffffffffffffffffffffffffffffffffffff16630bb9ff5d33886040518363ffffffff1660e01b8152600401610fd79291906124e6565b600060405180830381600087803b158015610ff157600080fd5b505af1158015611005573d6000803e3d6000fd5b5050505060008960ff16600481111561102157611020611ab4565b5b905060008990507f4cd44d36237264148f955fce295e3be9ef5a592f8f10f37dfdb595bc17a0ab5f858e888f8c600260009054906101000a900460ff164689898c6040516110789a99989796959493929190612695565b60405180910390a15050505050505050505050505050565b60046020528060005260406000206000915054906101000a900463ffffffff1681565b6000801b6110c8816110c3611227565b61122f565b600060038111156110dc576110db611ab4565b5b6003600084815260200190815260200160002060009054906101000a900460ff16600381111561110f5761110e611ab4565b5b14611146576040517f08c4f12a00000000000000000000000000000000000000000000000000000000815260040160405180910390fd5b60026003600084815260200190815260200160002060006101000a81548160ff0219169083600381111561117d5761117c611ab4565b5b02179055507f47c9aa2561551603155c93121e4ce0923c371458f4707bc5c7455c0554fcf3b6826040516111b19190611b55565b60405180910390a15050565b60007f01ffc9a7000000000000000000000000000000000000000000000000000000007bffffffffffffffffffffffffffffffffffffffffffffffffffffffff1916827bffffffffffffffffffffffffffffffffffffffffffffffffffffffff1916149050919050565b600033905090565b6112398282610b64565b61127c5780826040517f546fd62c00000000000000000000000000000000000000000000000000000000815260040161127392919061274d565b60405180910390fd5b5050565b61128a82826113a8565b5050565b60606000602867ffffffffffffffff8111156112ad576112ac611be4565b5b6040519080825280601f01601f1916602001820160405280156112df5781602001600182028036833780820191505090505b50905082602882015280915050919050565b600060028060009054906101000a900460ff16600481111561131657611315611ab4565b5b4687600481111561132a57611329611ab4565b5b87878760405160200161134296959493929190612776565b60405160208183030381529060405260405161135e919061248d565b602060405180830381855afa15801561137b573d6000803e3d6000fd5b5050506040513d601f19601f8201168201806040525081019061139e91906124b9565b9050949350505050565b6113b2828261143f565b6113d7816001600085815260200190815260200160002061151f90919063ffffffff16565b505050565b6113e6828261154f565b61140b816001600085815260200190815260200160002061163090919063ffffffff16565b505050565b600061141f8360000183611660565b60001c905092915050565b60006114388260000161168b565b9050919050565b6114498282610b64565b61151b57600160008084815260200190815260200160002060000160008373ffffffffffffffffffffffffffffffffffffffff1673ffffffffffffffffffffffffffffffffffffffff16815260200190815260200160002060006101000a81548160ff0219169083151502179055506114c0611227565b73ffffffffffffffffffffffffffffffffffffffff168173ffffffffffffffffffffffffffffffffffffffff16837f2f8788117e7eff1d82e926ec794901d17c78024a50270940304540a733656f0d60405160405180910390a45b5050565b6000611547836000018373ffffffffffffffffffffffffffffffffffffffff1660001b61169c565b905092915050565b6115598282610b64565b1561162c57600080600084815260200190815260200160002060000160008373ffffffffffffffffffffffffffffffffffffffff1673ffffffffffffffffffffffffffffffffffffffff16815260200190815260200160002060006101000a81548160ff0219169083151502179055506115d1611227565b73ffffffffffffffffffffffffffffffffffffffff168173ffffffffffffffffffffffffffffffffffffffff16837ff6391f5c32d9c69d2a47ea670b442974b53935d1edc7fd64eb21e047a839171b60405160405180910390a45b5050565b6000611658836000018373ffffffffffffffffffffffffffffffffffffffff1660001b61170c565b905092915050565b6000826000018281548110611678576116776121f9565b5b9060005260206000200154905092915050565b600081600001805490509050919050565b60006116a88383611820565b611701578260000182908060018154018082558091505060019003906000526020600020016000909190919091505582600001805490508360010160008481526020019081526020016000208190555060019050611706565b600090505b92915050565b6000808360010160008481526020019081526020016000205490506000811461181457600060018261173e91906127de565b905060006001866000018054905061175691906127de565b90508181146117c5576000866000018281548110611777576117766121f9565b5b906000526020600020015490508087600001848154811061179b5761179a6121f9565b5b90600052602060002001819055508387600101600083815260200190815260200160002081905550505b856000018054806117d9576117d8612812565b5b60019003818190600052602060002001600090559055856001016000868152602001908152602001600020600090556001935050505061181a565b60009150505b92915050565b600080836001016000848152602001908152602001600020541415905092915050565b6000604051905090565b600080fd5b600080fd5b6000819050919050565b61186a81611857565b811461187557600080fd5b50565b60008135905061188781611861565b92915050565b6000602082840312156118a3576118a261184d565b5b60006118b184828501611878565b91505092915050565b6118c381611857565b82525050565b60006020820190506118de60008301846118ba565b92915050565b60007fffffffff0000000000000000000000000000000000000000000000000000000082169050919050565b611919816118e4565b811461192457600080fd5b50565b60008135905061193681611910565b92915050565b6000602082840312156119525761195161184d565b5b600061196084828501611927565b91505092915050565b60008115159050919050565b61197e81611969565b82525050565b60006020820190506119996000830184611975565b92915050565b600080fd5b600080fd5b600080fd5b60008083601f8401126119c4576119c361199f565b5b8235905067ffffffffffffffff8111156119e1576119e06119a4565b5b6020830191508360408202830111156119fd576119fc6119a9565b5b9250929050565b60008060208385031215611a1b57611a1a61184d565b5b600083013567ffffffffffffffff811115611a3957611a38611852565b5b611a45858286016119ae565b92509250509250929050565b6000819050919050565b611a6481611a51565b8114611a6f57600080fd5b50565b600081359050611a8181611a5b565b92915050565b600060208284031215611a9d57611a9c61184d565b5b6000611aab84828501611a72565b91505092915050565b7f4e487b7100000000000000000000000000000000000000000000000000000000600052602160045260246000fd5b60048110611af457611af3611ab4565b5b50565b6000819050611b0582611ae3565b919050565b6000611b1582611af7565b9050919050565b611b2581611b0a565b82525050565b6000602082019050611b406000830184611b1c565b92915050565b611b4f81611a51565b82525050565b6000602082019050611b6a6000830184611b46565b92915050565b600073ffffffffffffffffffffffffffffffffffffffff82169050919050565b6000611b9b82611b70565b9050919050565b611bab81611b90565b8114611bb657600080fd5b50565b600081359050611bc881611ba2565b92915050565b600080fd5b6000601f19601f8301169050919050565b7f4e487b7100000000000000000000000000000000000000000000000000000000600052604160045260246000fd5b611c1c82611bd3565b810181811067ffffffffffffffff82111715611c3b57611c3a611be4565b5b80604052505050565b6000611c4e611843565b9050611c5a8282611c13565b919050565b600067ffffffffffffffff821115611c7a57611c79611be4565b5b611c8382611bd3565b9050602081019050919050565b82818337600083830152505050565b6000611cb2611cad84611c5f565b611c44565b905082815260208101848484011115611cce57611ccd611bce565b5b611cd9848285611c90565b509392505050565b600082601f830112611cf657611cf561199f565b5b8135611d06848260208601611c9f565b91505092915050565b60058110611d1c57600080fd5b50565b600081359050611d2e81611d0f565b92915050565b600063ffffffff82169050919050565b611d4d81611d34565b8114611d5857600080fd5b50565b600081359050611d6a81611d44565b92915050565b60008060008060808587031215611d8a57611d8961184d565b5b6000611d9887828801611bb9565b945050602085013567ffffffffffffffff811115611db957611db8611852565b5b611dc587828801611ce1565b9350506040611dd687828801611d1f565b9250506060611de787828801611d5b565b91505092959194509250565b60008060408385031215611e0a57611e0961184d565b5b6000611e1885828601611a72565b9250506020611e2985828601611bb9565b9150509250929050565b60038110611e4457611e43611ab4565b5b50565b6000819050611e5582611e33565b919050565b6000611e6582611e47565b9050919050565b611e7581611e5a565b82525050565b6000602082019050611e906000830184611e6c565b92915050565b600060ff82169050919050565b611eac81611e96565b8114611eb757600080fd5b50565b600081359050611ec981611ea3565b92915050565b60008060008060008060c08789031215611eec57611eeb61184d565b5b6000611efa89828a01611bb9565b965050602087013567ffffffffffffffff811115611f1b57611f1a611852565b5b611f2789828a01611ce1565b955050604087013567ffffffffffffffff811115611f4857611f47611852565b5b611f5489828a01611ce1565b9450506060611f6589828a01611878565b9350506080611f7689828a01611eba565b92505060a0611f8789828a01611d5b565b9150509295509295509295565b60008060408385031215611fab57611faa61184d565b5b6000611fb985828601611a72565b9250506020611fca85828601611878565b9150509250929050565b611fdd81611b90565b82525050565b6000602082019050611ff86000830184611fd4565b92915050565b60008083601f8401126120145761201361199f565b5b8235905067ffffffffffffffff811115612031576120306119a4565b5b60208301915083602082028301111561204d5761204c6119a9565b5b9250929050565b60008060006040848603121561206d5761206c61184d565b5b600084013567ffffffffffffffff81111561208b5761208a611852565b5b61209786828701611ffe565b935093505060206120aa86828701611878565b9150509250925092565b600080600080600080600080610100898b0312156120d5576120d461184d565b5b60006120e38b828c01611bb9565b985050602089013567ffffffffffffffff81111561210457612103611852565b5b6121108b828c01611ce1565b975050604089013567ffffffffffffffff81111561213157612130611852565b5b61213d8b828c01611ce1565b965050606061214e8b828c01611eba565b955050608061215f8b828c01611d5b565b94505060a06121708b828c01611a72565b93505060c06121818b828c01611878565b92505060e06121928b828c01611878565b9150509295985092959890939650565b6000602082840312156121b8576121b761184d565b5b60006121c684828501611bb9565b91505092915050565b6121d881611d34565b82525050565b60006020820190506121f360008301846121cf565b92915050565b7f4e487b7100000000000000000000000000000000000000000000000000000000600052603260045260246000fd5b7f4e487b7100000000000000000000000000000000000000000000000000000000600052601160045260246000fd5b600061226282611857565b91507fffffffffffffffffffffffffffffffffffffffffffffffffffffffffffffffff82141561229557612294612228565b5b600182019050919050565b6000815190506122af81611861565b92915050565b6000602082840312156122cb576122ca61184d565b5b60006122d9848285016122a0565b91505092915050565b600081519050919050565b600081905092915050565b60005b838110156123165780820151818401526020810190506122fb565b83811115612325576000848401525b50505050565b6000612336826122e2565b61234081856122ed565b93506123508185602086016122f8565b80840191505092915050565b6000819050919050565b61237761237282611857565b61235c565b82525050565b60008160f81b9050919050565b60006123958261237d565b9050919050565b6123ad6123a882611e96565b61238a565b82525050565b60008160e01b9050919050565b60006123cb826123b3565b9050919050565b6123e36123de82611d34565b6123c0565b82525050565b60006123f5828d61232b565b9150612401828c61232b565b915061240d828b61232b565b9150612419828a61232b565b91506124258289612366565b602082019150612435828861239c565b60018201915061244582876123d2565b600482019150612455828661239c565b60018201915061246582856123d2565b6004820191506124758284612366565b6020820191508190509b9a5050505050505050505050565b6000612499828461232b565b915081905092915050565b6000815190506124b381611a5b565b92915050565b6000602082840312156124cf576124ce61184d565b5b60006124dd848285016124a4565b91505092915050565b60006040820190506124fb6000830185611fd4565b61250860208301846118ba565b9392505050565b600082825260208201905092915050565b600061252b826122e2565b612535818561250f565b93506125458185602086016122f8565b61254e81611bd3565b840191505092915050565b6005811061256a57612569611ab4565b5b50565b600081905061257b82612559565b919050565b600061258b8261256d565b9050919050565b61259b81612580565b82525050565b60006101608201905081810360008301526125bc818e612520565b905081810360208301526125d0818d612520565b905081810360408301526125e4818c612520565b905081810360608301526125f8818b612520565b9050612607608083018a6118ba565b61261460a08301896118ba565b61262160c0830188612592565b61262e60e08301876121cf565b61263c610100830186612592565b61264a6101208301856121cf565b612658610140830184611b46565b9c9b505050505050505050505050565b600061267382611d34565b915063ffffffff82141561268a57612689612228565b5b600182019050919050565b60006101408201905081810360008301526126b0818d612520565b905081810360208301526126c4818c612520565b905081810360408301526126d8818b612520565b905081810360608301526126ec818a612520565b90506126fb60808301896118ba565b61270860a0830188612592565b61271560c08301876121cf565b61272260e0830186612592565b6127306101008301856121cf565b61273e610120830184611b46565b9b9a5050505050505050505050565b60006040820190506127626000830185611fd4565b61276f6020830184611b46565b9392505050565b6000612782828961239c565b60018201915061279282886123d2565b6004820191506127a2828761239c565b6001820191506127b282866123d2565b6004820191506127c2828561232b565b91506127ce828461232b565b9150819050979650505050505050565b60006127e982611857565b91506127f483611857565b92508282101561280757612806612228565b5b828203905092915050565b7f4e487b7100000000000000000000000000000000000000000000000000000000600052603160045260246000fdfea2646970667358221220680668353d8b0014c015556b3f71588eeb4569633016c416ec1f0be30b583a4464736f6c634300080b0033",
			"opcodes": "PUSH1 0x80 PUSH1 0x40 MSTORE CALLVALUE DUP1 ISZERO PUSH2 0x10 JUMPI PUSH1 0x0 DUP1 REVERT JUMPDEST POP PUSH1 0x1 PUSH1 0x2 PUSH1 0x0 PUSH2 0x100 EXP DUP2 SLOAD DUP2 PUSH1 0xFF MUL NOT AND SWAP1 DUP4 PUSH1 0x4 DUP2 GT ISZERO PUSH2 0x37 JUMPI PUSH2 0x36 PUSH2 0x63 JUMP JUMPDEST JUMPDEST MUL OR SWAP1 SSTORE POP PUSH9 0x2B5E3AF16B1880000 PUSH1 0x6 PUSH1 0x0 PUSH1 0x1 DUP2 MSTORE PUSH1 0x20 ADD SWAP1 DUP2 MSTORE PUSH1 0x20 ADD PUSH1 0x0 KECCAK256 DUP2 SWAP1 SSTORE POP PUSH2 0x92 JUMP JUMPDEST PUSH32 0x4E487B7100000000000000000000000000000000000000000000000000000000 PUSH1 0x0 MSTORE PUSH1 0x21 PUSH1 0x4 MSTORE PUSH1 0x24 PUSH1 0x0 REVERT JUMPDEST PUSH2 0x2877 DUP1 PUSH3 0xA2 PUSH1 0x0 CODECOPY PUSH1 0x0 RETURN INVALID PUSH1 0x80 PUSH1 0x40 MSTORE CALLVALUE DUP1 ISZERO PUSH2 0x10 JUMPI PUSH1 0x0 DUP1 REVERT JUMPDEST POP PUSH1 0x4 CALLDATASIZE LT PUSH2 0x121 JUMPI PUSH1 0x0 CALLDATALOAD PUSH1 0xE0 SHR DUP1 PUSH4 0x83F556E1 GT PUSH2 0xAD JUMPI DUP1 PUSH4 0xD391014B GT PUSH2 0x71 JUMPI DUP1 PUSH4 0xD391014B EQ PUSH2 0x34E JUMPI DUP1 PUSH4 0xD547741F EQ PUSH2 0x36C JUMPI DUP1 PUSH4 0xEFB96ED3 EQ PUSH2 0x388 JUMPI DUP1 PUSH4 0xFB6465A0 EQ PUSH2 0x3A4 JUMPI DUP1 PUSH4 0xFBCE0B5F EQ PUSH2 0x3D4 JUMPI PUSH2 0x121 JUMP JUMPDEST DUP1 PUSH4 0x83F556E1 EQ PUSH2 0x286 JUMPI DUP1 PUSH4 0x9010D07C EQ PUSH2 0x2A2 JUMPI DUP1 PUSH4 0x91D14854 EQ PUSH2 0x2D2 JUMPI DUP1 PUSH4 0xC957C6E5 EQ PUSH2 0x302 JUMPI DUP1 PUSH4 0xCA15C873 EQ PUSH2 0x31E JUMPI PUSH2 0x121 JUMP JUMPDEST DUP1 PUSH4 0x248A9CA3 GT PUSH2 0xF4 JUMPI DUP1 PUSH4 0x248A9CA3 EQ PUSH2 0x1D2 JUMPI DUP1 PUSH4 0x2AC73A1F EQ PUSH2 0x202 JUMPI DUP1 PUSH4 0x2F2FF15D EQ PUSH2 0x21E JUMPI DUP1 PUSH4 0x36568ABE EQ PUSH2 0x23A JUMPI DUP1 PUSH4 0x5E7C9FE8 EQ PUSH2 0x256 JUMPI PUSH2 0x121 JUMP JUMPDEST DUP1 PUSH4 0x12E3289 EQ PUSH2 0x126 JUMPI DUP1 PUSH4 0x1FFC9A7 EQ PUSH2 0x156 JUMPI DUP1 PUSH4 0x3ED957F EQ PUSH2 0x186 JUMPI DUP1 PUSH4 0x12A4868C EQ PUSH2 0x1A2 JUMPI JUMPDEST PUSH1 0x0 DUP1 REVERT JUMPDEST PUSH2 0x140 PUSH1 0x4 DUP1 CALLDATASIZE SUB DUP2 ADD SWAP1 PUSH2 0x13B SWAP2 SWAP1 PUSH2 0x188D JUMP JUMPDEST PUSH2 0x3F0 JUMP JUMPDEST PUSH1 0x40 MLOAD PUSH2 0x14D SWAP2 SWAP1 PUSH2 0x18C9 JUMP JUMPDEST PUSH1 0x40 MLOAD DUP1 SWAP2 SUB SWAP1 RETURN JUMPDEST PUSH2 0x170 PUSH1 0x4 DUP1 CALLDATASIZE SUB DUP2 ADD SWAP1 PUSH2 0x16B SWAP2 SWAP1 PUSH2 0x193C JUMP JUMPDEST PUSH2 0x408 JUMP JUMPDEST PUSH1 0x40 MLOAD PUSH2 0x17D SWAP2 SWAP1 PUSH2 0x1984 JUMP JUMPDEST PUSH1 0x40 MLOAD DUP1 SWAP2 SUB SWAP1 RETURN JUMPDEST PUSH2 0x1A0 PUSH1 0x4 DUP1 CALLDATASIZE SUB DUP2 ADD SWAP1 PUSH2 0x19B SWAP2 SWAP1 PUSH2 0x1A04 JUMP JUMPDEST PUSH2 0x482 JUMP JUMPDEST STOP JUMPDEST PUSH2 0x1BC PUSH1 0x4 DUP1 CALLDATASIZE SUB DUP2 ADD SWAP1 PUSH2 0x1B7 SWAP2 SWAP1 PUSH2 0x1A87 JUMP JUMPDEST PUSH2 0x50E JUMP JUMPDEST PUSH1 0x40 MLOAD PUSH2 0x1C9 SWAP2 SWAP1 PUSH2 0x1B2B JUMP JUMPDEST PUSH1 0x40 MLOAD DUP1 SWAP2 SUB SWAP1 RETURN JUMPDEST PUSH2 0x1EC PUSH1 0x4 DUP1 CALLDATASIZE SUB DUP2 ADD SWAP1 PUSH2 0x1E7 SWAP2 SWAP1 PUSH2 0x1A87 JUMP JUMPDEST PUSH2 0x52E JUMP JUMPDEST PUSH1 0x40 MLOAD PUSH2 0x1F9 SWAP2 SWAP1 PUSH2 0x1B55 JUMP JUMPDEST PUSH1 0x40 MLOAD DUP1 SWAP2 SUB SWAP1 RETURN JUMPDEST PUSH2 0x21C PUSH1 0x4 DUP1 CALLDATASIZE SUB DUP2 ADD SWAP1 PUSH2 0x217 SWAP2 SWAP1 PUSH2 0x1D70 JUMP JUMPDEST PUSH2 0x54D JUMP JUMPDEST STOP JUMPDEST PUSH2 0x238 PUSH1 0x4 DUP1 CALLDATASIZE SUB DUP2 ADD SWAP1 PUSH2 0x233 SWAP2 SWAP1 PUSH2 0x1DF3 JUMP JUMPDEST PUSH2 0x5A8 JUMP JUMPDEST STOP JUMPDEST PUSH2 0x254 PUSH1 0x4 DUP1 CALLDATASIZE SUB DUP2 ADD SWAP1 PUSH2 0x24F SWAP2 SWAP1 PUSH2 0x1DF3 JUMP JUMPDEST PUSH2 0x5D1 JUMP JUMPDEST STOP JUMPDEST PUSH2 0x270 PUSH1 0x4 DUP1 CALLDATASIZE SUB DUP2 ADD SWAP1 PUSH2 0x26B SWAP2 SWAP1 PUSH2 0x1A87 JUMP JUMPDEST PUSH2 0x64B JUMP JUMPDEST PUSH1 0x40 MLOAD PUSH2 0x27D SWAP2 SWAP1 PUSH2 0x1E7B JUMP JUMPDEST PUSH1 0x40 MLOAD DUP1 SWAP2 SUB SWAP1 RETURN JUMPDEST PUSH2 0x2A0 PUSH1 0x4 DUP1 CALLDATASIZE SUB DUP2 ADD SWAP1 PUSH2 0x29B SWAP2 SWAP1 PUSH2 0x1ECF JUMP JUMPDEST PUSH2 0x66B JUMP JUMPDEST STOP JUMPDEST PUSH2 0x2BC PUSH1 0x4 DUP1 CALLDATASIZE SUB DUP2 ADD SWAP1 PUSH2 0x2B7 SWAP2 SWAP1 PUSH2 0x1F94 JUMP JUMPDEST PUSH2 0xB35 JUMP JUMPDEST PUSH1 0x40 MLOAD PUSH2 0x2C9 SWAP2 SWAP1 PUSH2 0x1FE3 JUMP JUMPDEST PUSH1 0x40 MLOAD DUP1 SWAP2 SUB SWAP1 RETURN JUMPDEST PUSH2 0x2EC PUSH1 0x4 DUP1 CALLDATASIZE SUB DUP2 ADD SWAP1 PUSH2 0x2E7 SWAP2 SWAP1 PUSH2 0x1DF3 JUMP JUMPDEST PUSH2 0xB64 JUMP JUMPDEST PUSH1 0x40 MLOAD PUSH2 0x2F9 SWAP2 SWAP1 PUSH2 0x1984 JUMP JUMPDEST PUSH1 0x40 MLOAD DUP1 SWAP2 SUB SWAP1 RETURN JUMPDEST PUSH2 0x31C PUSH1 0x4 DUP1 CALLDATASIZE SUB DUP2 ADD SWAP1 PUSH2 0x317 SWAP2 SWAP1 PUSH2 0x2054 JUMP JUMPDEST PUSH2 0xBCE JUMP JUMPDEST STOP JUMPDEST PUSH2 0x338 PUSH1 0x4 DUP1 CALLDATASIZE SUB DUP2 ADD SWAP1 PUSH2 0x333 SWAP2 SWAP1 PUSH2 0x1A87 JUMP JUMPDEST PUSH2 0xC3C JUMP JUMPDEST PUSH1 0x40 MLOAD PUSH2 0x345 SWAP2 SWAP1 PUSH2 0x18C9 JUMP JUMPDEST PUSH1 0x40 MLOAD DUP1 SWAP2 SUB SWAP1 RETURN JUMPDEST PUSH2 0x356 PUSH2 0xC60 JUMP JUMPDEST PUSH1 0x40 MLOAD PUSH2 0x363 SWAP2 SWAP1 PUSH2 0x1B55 JUMP JUMPDEST PUSH1 0x40 MLOAD DUP1 SWAP2 SUB SWAP1 RETURN JUMPDEST PUSH2 0x386 PUSH1 0x4 DUP1 CALLDATASIZE SUB DUP2 ADD SWAP1 PUSH2 0x381 SWAP2 SWAP1 PUSH2 0x1DF3 JUMP JUMPDEST PUSH2 0xC67 JUMP JUMPDEST STOP JUMPDEST PUSH2 0x3A2 PUSH1 0x4 DUP1 CALLDATASIZE SUB DUP2 ADD SWAP1 PUSH2 0x39D SWAP2 SWAP1 PUSH2 0x20B4 JUMP JUMPDEST PUSH2 0xC90 JUMP JUMPDEST STOP JUMPDEST PUSH2 0x3BE PUSH1 0x4 DUP1 CALLDATASIZE SUB DUP2 ADD SWAP1 PUSH2 0x3B9 SWAP2 SWAP1 PUSH2 0x21A2 JUMP JUMPDEST PUSH2 0x1090 JUMP JUMPDEST PUSH1 0x40 MLOAD PUSH2 0x3CB SWAP2 SWAP1 PUSH2 0x21DE JUMP JUMPDEST PUSH1 0x40 MLOAD DUP1 SWAP2 SUB SWAP1 RETURN JUMPDEST PUSH2 0x3EE PUSH1 0x4 DUP1 CALLDATASIZE SUB DUP2 ADD SWAP1 PUSH2 0x3E9 SWAP2 SWAP1 PUSH2 0x1A87 JUMP JUMPDEST PUSH2 0x10B3 JUMP JUMPDEST STOP JUMPDEST PUSH1 0x6 PUSH1 0x20 MSTORE DUP1 PUSH1 0x0 MSTORE PUSH1 0x40 PUSH1 0x0 KECCAK256 PUSH1 0x0 SWAP2 POP SWAP1 POP SLOAD DUP2 JUMP JUMPDEST PUSH1 0x0 PUSH32 0x5A05180F00000000000000000000000000000000000000000000000000000000 PUSH28 0xFFFFFFFFFFFFFFFFFFFFFFFFFFFFFFFFFFFFFFFFFFFFFFFFFFFFFFFF NOT AND DUP3 PUSH28 0xFFFFFFFFFFFFFFFFFFFFFFFFFFFFFFFFFFFFFFFFFFFFFFFFFFFFFFFF NOT AND EQ DUP1 PUSH2 0x47B JUMPI POP PUSH2 0x47A DUP3 PUSH2 0x11BD JUMP JUMPDEST JUMPDEST SWAP1 POP SWAP2 SWAP1 POP JUMP JUMPDEST PUSH1 0x0 DUP1 SHL PUSH2 0x497 DUP2 PUSH2 0x492 PUSH2 0x1227 JUMP JUMPDEST PUSH2 0x122F JUMP JUMPDEST PUSH1 0x0 JUMPDEST DUP4 DUP4 SWAP1 POP DUP2 LT ISZERO PUSH2 0x508 JUMPI PUSH2 0x4F5 DUP5 DUP5 DUP4 DUP2 DUP2 LT PUSH2 0x4BB JUMPI PUSH2 0x4BA PUSH2 0x21F9 JUMP JUMPDEST JUMPDEST SWAP1 POP PUSH1 0x40 MUL ADD PUSH1 0x0 ADD CALLDATALOAD DUP6 DUP6 DUP5 DUP2 DUP2 LT PUSH2 0x4D8 JUMPI PUSH2 0x4D7 PUSH2 0x21F9 JUMP JUMPDEST JUMPDEST SWAP1 POP PUSH1 0x40 MUL ADD PUSH1 0x20 ADD PUSH1 0x20 DUP2 ADD SWAP1 PUSH2 0x4F0 SWAP2 SWAP1 PUSH2 0x21A2 JUMP JUMPDEST PUSH2 0x1280 JUMP JUMPDEST DUP1 DUP1 PUSH2 0x500 SWAP1 PUSH2 0x2257 JUMP JUMPDEST SWAP2 POP POP PUSH2 0x49A JUMP JUMPDEST POP POP POP POP JUMP JUMPDEST PUSH1 0x3 PUSH1 0x20 MSTORE DUP1 PUSH1 0x0 MSTORE PUSH1 0x40 PUSH1 0x0 KECCAK256 PUSH1 0x0 SWAP2 POP SLOAD SWAP1 PUSH2 0x100 EXP SWAP1 DIV PUSH1 0xFF AND DUP2 JUMP JUMPDEST PUSH1 0x0 DUP1 PUSH1 0x0 DUP4 DUP2 MSTORE PUSH1 0x20 ADD SWAP1 DUP2 MSTORE PUSH1 0x20 ADD PUSH1 0x0 KECCAK256 PUSH1 0x1 ADD SLOAD SWAP1 POP SWAP2 SWAP1 POP JUMP JUMPDEST PUSH1 0x0 PUSH2 0x563 DUP4 DUP4 PUSH2 0x55D DUP9 PUSH2 0x128E JUMP JUMPDEST DUP8 PUSH2 0x12F1 JUMP JUMPDEST SWAP1 POP PUSH1 0x1 PUSH1 0x5 PUSH1 0x0 DUP4 DUP2 MSTORE PUSH1 0x20 ADD SWAP1 DUP2 MSTORE PUSH1 0x20 ADD PUSH1 0x0 KECCAK256 PUSH1 0x0 PUSH2 0x100 EXP DUP2 SLOAD DUP2 PUSH1 0xFF MUL NOT AND SWAP1 DUP4 PUSH1 0x2 DUP2 GT ISZERO PUSH2 0x59C JUMPI PUSH2 0x59B PUSH2 0x1AB4 JUMP JUMPDEST JUMPDEST MUL OR SWAP1 SSTORE POP POP POP POP POP POP JUMP JUMPDEST PUSH2 0x5B1 DUP3 PUSH2 0x52E JUMP JUMPDEST PUSH2 0x5C2 DUP2 PUSH2 0x5BD PUSH2 0x1227 JUMP JUMPDEST PUSH2 0x122F JUMP JUMPDEST PUSH2 0x5CC DUP4 DUP4 PUSH2 0x13A8 JUMP JUMPDEST POP POP POP JUMP JUMPDEST PUSH2 0x5D9 PUSH2 0x1227 JUMP JUMPDEST PUSH20 0xFFFFFFFFFFFFFFFFFFFFFFFFFFFFFFFFFFFFFFFF AND DUP2 PUSH20 0xFFFFFFFFFFFFFFFFFFFFFFFFFFFFFFFFFFFFFFFF AND EQ PUSH2 0x63D JUMPI PUSH1 0x40 MLOAD PUSH32 0x339A6F6E00000000000000000000000000000000000000000000000000000000 DUP2 MSTORE PUSH1 0x4 ADD PUSH1 0x40 MLOAD DUP1 SWAP2 SUB SWAP1 REVERT JUMPDEST PUSH2 0x647 DUP3 DUP3 PUSH2 0x13DC JUMP JUMPDEST POP POP JUMP JUMPDEST PUSH1 0x5 PUSH1 0x20 MSTORE DUP1 PUSH1 0x0 MSTORE PUSH1 0x40 PUSH1 0x0 KECCAK256 PUSH1 0x0 SWAP2 POP SLOAD SWAP1 PUSH2 0x100 EXP SWAP1 DIV PUSH1 0xFF AND DUP2 JUMP JUMPDEST PUSH1 0x28 DUP5 MLOAD EQ PUSH2 0x6A6 JUMPI PUSH1 0x40 MLOAD PUSH32 0xD5BEDCA600000000000000000000000000000000000000000000000000000000 DUP2 MSTORE PUSH1 0x4 ADD PUSH1 0x40 MLOAD DUP1 SWAP2 SUB SWAP1 REVERT JUMPDEST PUSH1 0x28 DUP6 MLOAD EQ PUSH2 0x6E1 JUMPI PUSH1 0x40 MLOAD PUSH32 0xA047F2B800000000000000000000000000000000000000000000000000000000 DUP2 MSTORE PUSH1 0x4 ADD PUSH1 0x40 MLOAD DUP1 SWAP2 SUB SWAP1 REVERT JUMPDEST PUSH1 0x0 PUSH2 0x6EC CALLER PUSH2 0x128E JUMP JUMPDEST SWAP1 POP PUSH1 0x0 PUSH2 0x6F9 DUP9 PUSH2 0x128E JUMP JUMPDEST SWAP1 POP PUSH1 0x0 PUSH2 0x71E DUP6 PUSH1 0xFF AND PUSH1 0x4 DUP2 GT ISZERO PUSH2 0x716 JUMPI PUSH2 0x715 PUSH2 0x1AB4 JUMP JUMPDEST JUMPDEST DUP6 DUP5 DUP12 PUSH2 0x12F1 JUMP JUMPDEST SWAP1 POP PUSH1 0x1 PUSH1 0x2 DUP2 GT ISZERO PUSH2 0x734 JUMPI PUSH2 0x733 PUSH2 0x1AB4 JUMP JUMPDEST JUMPDEST PUSH1 0x5 PUSH1 0x0 DUP4 DUP2 MSTORE PUSH1 0x20 ADD SWAP1 DUP2 MSTORE PUSH1 0x20 ADD PUSH1 0x0 KECCAK256 PUSH1 0x0 SWAP1 SLOAD SWAP1 PUSH2 0x100 EXP SWAP1 DIV PUSH1 0xFF AND PUSH1 0x2 DUP2 GT ISZERO PUSH2 0x767 JUMPI PUSH2 0x766 PUSH2 0x1AB4 JUMP JUMPDEST JUMPDEST EQ PUSH2 0x79E JUMPI PUSH1 0x40 MLOAD PUSH32 0x42FC93F300000000000000000000000000000000000000000000000000000000 DUP2 MSTORE PUSH1 0x4 ADD PUSH1 0x40 MLOAD DUP1 SWAP2 SUB SWAP1 REVERT JUMPDEST POP DUP8 PUSH20 0xFFFFFFFFFFFFFFFFFFFFFFFFFFFFFFFFFFFFFFFF AND PUSH4 0x70A08231 CALLER PUSH1 0x40 MLOAD DUP3 PUSH4 0xFFFFFFFF AND PUSH1 0xE0 SHL DUP2 MSTORE PUSH1 0x4 ADD PUSH2 0x7D8 SWAP2 SWAP1 PUSH2 0x1FE3 JUMP JUMPDEST PUSH1 0x20 PUSH1 0x40 MLOAD DUP1 DUP4 SUB DUP2 DUP7 GAS STATICCALL ISZERO DUP1 ISZERO PUSH2 0x7F5 JUMPI RETURNDATASIZE PUSH1 0x0 DUP1 RETURNDATACOPY RETURNDATASIZE PUSH1 0x0 REVERT JUMPDEST POP POP POP POP PUSH1 0x40 MLOAD RETURNDATASIZE PUSH1 0x1F NOT PUSH1 0x1F DUP3 ADD AND DUP3 ADD DUP1 PUSH1 0x40 MSTORE POP DUP2 ADD SWAP1 PUSH2 0x819 SWAP2 SWAP1 PUSH2 0x22B5 JUMP JUMPDEST DUP6 GT ISZERO PUSH2 0x852 JUMPI PUSH1 0x40 MLOAD PUSH32 0xF228DE4E00000000000000000000000000000000000000000000000000000000 DUP2 MSTORE PUSH1 0x4 ADD PUSH1 0x40 MLOAD DUP1 SWAP2 SUB SWAP1 REVERT JUMPDEST PUSH1 0x0 PUSH1 0x4 PUSH1 0x0 DUP11 PUSH20 0xFFFFFFFFFFFFFFFFFFFFFFFFFFFFFFFFFFFFFFFF AND PUSH20 0xFFFFFFFFFFFFFFFFFFFFFFFFFFFFFFFFFFFFFFFF AND DUP2 MSTORE PUSH1 0x20 ADD SWAP1 DUP2 MSTORE PUSH1 0x20 ADD PUSH1 0x0 KECCAK256 PUSH1 0x0 SWAP1 SLOAD SWAP1 PUSH2 0x100 EXP SWAP1 DIV PUSH4 0xFFFFFFFF AND PUSH4 0xFFFFFFFF AND SWAP1 POP PUSH1 0x0 DUP3 DUP10 DUP6 DUP11 DUP11 PUSH1 0x2 PUSH1 0x0 SWAP1 SLOAD SWAP1 PUSH2 0x100 EXP SWAP1 DIV PUSH1 0xFF AND PUSH1 0x4 DUP2 GT ISZERO PUSH2 0x8D5 JUMPI PUSH2 0x8D4 PUSH2 0x1AB4 JUMP JUMPDEST JUMPDEST CHAINID DUP13 DUP13 DUP11 PUSH1 0x40 MLOAD PUSH1 0x20 ADD PUSH2 0x8F2 SWAP11 SWAP10 SWAP9 SWAP8 SWAP7 SWAP6 SWAP5 SWAP4 SWAP3 SWAP2 SWAP1 PUSH2 0x23E9 JUMP JUMPDEST PUSH1 0x40 MLOAD PUSH1 0x20 DUP2 DUP4 SUB SUB DUP2 MSTORE SWAP1 PUSH1 0x40 MSTORE SWAP1 POP PUSH1 0xE6 DUP2 MLOAD EQ PUSH2 0x93E JUMPI PUSH1 0x40 MLOAD PUSH32 0x46F0AEDE00000000000000000000000000000000000000000000000000000000 DUP2 MSTORE PUSH1 0x4 ADD PUSH1 0x40 MLOAD DUP1 SWAP2 SUB SWAP1 REVERT JUMPDEST PUSH1 0x0 PUSH1 0x2 DUP3 PUSH1 0x40 MLOAD PUSH2 0x950 SWAP2 SWAP1 PUSH2 0x248D JUMP JUMPDEST PUSH1 0x20 PUSH1 0x40 MLOAD DUP1 DUP4 SUB DUP2 DUP6 GAS STATICCALL ISZERO DUP1 ISZERO PUSH2 0x96D JUMPI RETURNDATASIZE PUSH1 0x0 DUP1 RETURNDATACOPY RETURNDATASIZE PUSH1 0x0 REVERT JUMPDEST POP POP POP PUSH1 0x40 MLOAD RETURNDATASIZE PUSH1 0x1F NOT PUSH1 0x1F DUP3 ADD AND DUP3 ADD DUP1 PUSH1 0x40 MSTORE POP DUP2 ADD SWAP1 PUSH2 0x990 SWAP2 SWAP1 PUSH2 0x24B9 JUMP JUMPDEST SWAP1 POP PUSH1 0x1 PUSH1 0x3 PUSH1 0x0 DUP4 DUP2 MSTORE PUSH1 0x20 ADD SWAP1 DUP2 MSTORE PUSH1 0x20 ADD PUSH1 0x0 KECCAK256 PUSH1 0x0 PUSH2 0x100 EXP DUP2 SLOAD DUP2 PUSH1 0xFF MUL NOT AND SWAP1 DUP4 PUSH1 0x3 DUP2 GT ISZERO PUSH2 0x9C9 JUMPI PUSH2 0x9C8 PUSH2 0x1AB4 JUMP JUMPDEST JUMPDEST MUL OR SWAP1 SSTORE POP DUP11 PUSH20 0xFFFFFFFFFFFFFFFFFFFFFFFFFFFFFFFFFFFFFFFF AND PUSH4 0x18A8AD87 CALLER DUP11 PUSH1 0x40 MLOAD DUP4 PUSH4 0xFFFFFFFF AND PUSH1 0xE0 SHL DUP2 MSTORE PUSH1 0x4 ADD PUSH2 0xA09 SWAP3 SWAP2 SWAP1 PUSH2 0x24E6 JUMP JUMPDEST PUSH1 0x0 PUSH1 0x40 MLOAD DUP1 DUP4 SUB DUP2 PUSH1 0x0 DUP8 DUP1 EXTCODESIZE ISZERO DUP1 ISZERO PUSH2 0xA23 JUMPI PUSH1 0x0 DUP1 REVERT JUMPDEST POP GAS CALL ISZERO DUP1 ISZERO PUSH2 0xA37 JUMPI RETURNDATASIZE PUSH1 0x0 DUP1 RETURNDATACOPY RETURNDATASIZE PUSH1 0x0 REVERT JUMPDEST POP POP POP POP PUSH32 0x1DF96F350C772D8C25EA745071E8042F12DFC37488ABA7EBBF174BA89CA5BA8 DUP5 DUP12 DUP8 DUP13 DUP13 DUP9 PUSH1 0x2 PUSH1 0x0 SWAP1 SLOAD SWAP1 PUSH2 0x100 EXP SWAP1 DIV PUSH1 0xFF AND CHAINID DUP16 PUSH1 0xFF AND PUSH1 0x4 DUP2 GT ISZERO PUSH2 0xA89 JUMPI PUSH2 0xA88 PUSH2 0x1AB4 JUMP JUMPDEST JUMPDEST DUP16 DUP12 PUSH1 0x40 MLOAD PUSH2 0xAA2 SWAP12 SWAP11 SWAP10 SWAP9 SWAP8 SWAP7 SWAP6 SWAP5 SWAP4 SWAP3 SWAP2 SWAP1 PUSH2 0x25A1 JUMP JUMPDEST PUSH1 0x40 MLOAD DUP1 SWAP2 SUB SWAP1 LOG1 PUSH1 0x4 PUSH1 0x0 DUP13 PUSH20 0xFFFFFFFFFFFFFFFFFFFFFFFFFFFFFFFFFFFFFFFF AND PUSH20 0xFFFFFFFFFFFFFFFFFFFFFFFFFFFFFFFFFFFFFFFF AND DUP2 MSTORE PUSH1 0x20 ADD SWAP1 DUP2 MSTORE PUSH1 0x20 ADD PUSH1 0x0 KECCAK256 PUSH1 0x0 DUP2 DUP2 SWAP1 SLOAD SWAP1 PUSH2 0x100 EXP SWAP1 DIV PUSH4 0xFFFFFFFF AND DUP1 SWAP3 SWAP2 SWAP1 PUSH2 0xB09 SWAP1 PUSH2 0x2668 JUMP JUMPDEST SWAP2 SWAP1 PUSH2 0x100 EXP DUP2 SLOAD DUP2 PUSH4 0xFFFFFFFF MUL NOT AND SWAP1 DUP4 PUSH4 0xFFFFFFFF AND MUL OR SWAP1 SSTORE POP POP POP POP POP POP POP POP POP POP POP POP POP JUMP JUMPDEST PUSH1 0x0 PUSH2 0xB5C DUP3 PUSH1 0x1 PUSH1 0x0 DUP7 DUP2 MSTORE PUSH1 0x20 ADD SWAP1 DUP2 MSTORE PUSH1 0x20 ADD PUSH1 0x0 KECCAK256 PUSH2 0x1410 SWAP1 SWAP2 SWAP1 PUSH4 0xFFFFFFFF AND JUMP JUMPDEST SWAP1 POP SWAP3 SWAP2 POP POP JUMP JUMPDEST PUSH1 0x0 DUP1 PUSH1 0x0 DUP5 DUP2 MSTORE PUSH1 0x20 ADD SWAP1 DUP2 MSTORE PUSH1 0x20 ADD PUSH1 0x0 KECCAK256 PUSH1 0x0 ADD PUSH1 0x0 DUP4 PUSH20 0xFFFFFFFFFFFFFFFFFFFFFFFFFFFFFFFFFFFFFFFF AND PUSH20 0xFFFFFFFFFFFFFFFFFFFFFFFFFFFFFFFFFFFFFFFF AND DUP2 MSTORE PUSH1 0x20 ADD SWAP1 DUP2 MSTORE PUSH1 0x20 ADD PUSH1 0x0 KECCAK256 PUSH1 0x0 SWAP1 SLOAD SWAP1 PUSH2 0x100 EXP SWAP1 DIV PUSH1 0xFF AND SWAP1 POP SWAP3 SWAP2 POP POP JUMP JUMPDEST PUSH1 0x0 DUP1 SHL PUSH2 0xBE3 DUP2 PUSH2 0xBDE PUSH2 0x1227 JUMP JUMPDEST PUSH2 0x122F JUMP JUMPDEST PUSH1 0x0 JUMPDEST DUP5 DUP5 SWAP1 POP DUP2 LT ISZERO PUSH2 0xC35 JUMPI DUP3 PUSH1 0x6 PUSH1 0x0 DUP8 DUP8 DUP6 DUP2 DUP2 LT PUSH2 0xC09 JUMPI PUSH2 0xC08 PUSH2 0x21F9 JUMP JUMPDEST JUMPDEST SWAP1 POP PUSH1 0x20 MUL ADD CALLDATALOAD DUP2 MSTORE PUSH1 0x20 ADD SWAP1 DUP2 MSTORE PUSH1 0x20 ADD PUSH1 0x0 KECCAK256 DUP2 SWAP1 SSTORE POP DUP1 DUP1 PUSH2 0xC2D SWAP1 PUSH2 0x2257 JUMP JUMPDEST SWAP2 POP POP PUSH2 0xBE6 JUMP JUMPDEST POP POP POP POP POP JUMP JUMPDEST PUSH1 0x0 PUSH2 0xC59 PUSH1 0x1 PUSH1 0x0 DUP5 DUP2 MSTORE PUSH1 0x20 ADD SWAP1 DUP2 MSTORE PUSH1 0x20 ADD PUSH1 0x0 KECCAK256 PUSH2 0x142A JUMP JUMPDEST SWAP1 POP SWAP2 SWAP1 POP JUMP JUMPDEST PUSH1 0x0 DUP1 SHL DUP2 JUMP JUMPDEST PUSH2 0xC70 DUP3 PUSH2 0x52E JUMP JUMPDEST PUSH2 0xC81 DUP2 PUSH2 0xC7C PUSH2 0x1227 JUMP JUMPDEST PUSH2 0x122F JUMP JUMPDEST PUSH2 0xC8B DUP4 DUP4 PUSH2 0x13DC JUMP JUMPDEST POP POP POP JUMP JUMPDEST PUSH1 0x28 DUP7 MLOAD EQ PUSH2 0xCCB JUMPI PUSH1 0x40 MLOAD PUSH32 0xD5BEDCA600000000000000000000000000000000000000000000000000000000 DUP2 MSTORE PUSH1 0x4 ADD PUSH1 0x40 MLOAD DUP1 SWAP2 SUB SWAP1 REVERT JUMPDEST PUSH1 0x28 DUP8 MLOAD EQ PUSH2 0xD06 JUMPI PUSH1 0x40 MLOAD PUSH32 0xA047F2B800000000000000000000000000000000000000000000000000000000 DUP2 MSTORE PUSH1 0x4 ADD PUSH1 0x40 MLOAD DUP1 SWAP2 SUB SWAP1 REVERT JUMPDEST PUSH1 0x0 PUSH2 0xD11 CALLER PUSH2 0x128E JUMP JUMPDEST SWAP1 POP PUSH1 0x0 PUSH2 0xD1E DUP11 PUSH2 0x128E JUMP JUMPDEST SWAP1 POP PUSH1 0x0 PUSH2 0xD43 DUP9 PUSH1 0xFF AND PUSH1 0x4 DUP2 GT ISZERO PUSH2 0xD3B JUMPI PUSH2 0xD3A PUSH2 0x1AB4 JUMP JUMPDEST JUMPDEST DUP9 DUP5 DUP14 PUSH2 0x12F1 JUMP JUMPDEST SWAP1 POP PUSH1 0x1 PUSH1 0x2 DUP2 GT ISZERO PUSH2 0xD59 JUMPI PUSH2 0xD58 PUSH2 0x1AB4 JUMP JUMPDEST JUMPDEST PUSH1 0x5 PUSH1 0x0 DUP4 DUP2 MSTORE PUSH1 0x20 ADD SWAP1 DUP2 MSTORE PUSH1 0x20 ADD PUSH1 0x0 KECCAK256 PUSH1 0x0 SWAP1 SLOAD SWAP1 PUSH2 0x100 EXP SWAP1 DIV PUSH1 0xFF AND PUSH1 0x2 DUP2 GT ISZERO PUSH2 0xD8C JUMPI PUSH2 0xD8B PUSH2 0x1AB4 JUMP JUMPDEST JUMPDEST EQ PUSH2 0xDC3 JUMPI PUSH1 0x40 MLOAD PUSH32 0x42FC93F300000000000000000000000000000000000000000000000000000000 DUP2 MSTORE PUSH1 0x4 ADD PUSH1 0x40 MLOAD DUP1 SWAP2 SUB SWAP1 REVERT JUMPDEST POP PUSH1 0x2 PUSH1 0x3 DUP2 GT ISZERO PUSH2 0xDD8 JUMPI PUSH2 0xDD7 PUSH2 0x1AB4 JUMP JUMPDEST JUMPDEST PUSH1 0x3 PUSH1 0x0 DUP8 DUP2 MSTORE PUSH1 0x20 ADD SWAP1 DUP2 MSTORE PUSH1 0x20 ADD PUSH1 0x0 KECCAK256 PUSH1 0x0 SWAP1 SLOAD SWAP1 PUSH2 0x100 EXP SWAP1 DIV PUSH1 0xFF AND PUSH1 0x3 DUP2 GT ISZERO PUSH2 0xE0B JUMPI PUSH2 0xE0A PUSH2 0x1AB4 JUMP JUMPDEST JUMPDEST EQ PUSH2 0xE42 JUMPI PUSH1 0x40 MLOAD PUSH32 0x8430C48E00000000000000000000000000000000000000000000000000000000 DUP2 MSTORE PUSH1 0x4 ADD PUSH1 0x40 MLOAD DUP1 SWAP2 SUB SWAP1 REVERT JUMPDEST PUSH1 0x0 DUP2 DUP11 DUP5 DUP12 DUP9 PUSH1 0x2 PUSH1 0x0 SWAP1 SLOAD SWAP1 PUSH2 0x100 EXP SWAP1 DIV PUSH1 0xFF AND PUSH1 0x4 DUP2 GT ISZERO PUSH2 0xE6B JUMPI PUSH2 0xE6A PUSH2 0x1AB4 JUMP JUMPDEST JUMPDEST CHAINID DUP15 DUP15 DUP13 PUSH1 0x40 MLOAD PUSH1 0x20 ADD PUSH2 0xE88 SWAP11 SWAP10 SWAP9 SWAP8 SWAP7 SWAP6 SWAP5 SWAP4 SWAP3 SWAP2 SWAP1 PUSH2 0x23E9 JUMP JUMPDEST PUSH1 0x40 MLOAD PUSH1 0x20 DUP2 DUP4 SUB SUB DUP2 MSTORE SWAP1 PUSH1 0x40 MSTORE SWAP1 POP PUSH1 0xE6 DUP2 MLOAD EQ PUSH2 0xED4 JUMPI PUSH1 0x40 MLOAD PUSH32 0x46F0AEDE00000000000000000000000000000000000000000000000000000000 DUP2 MSTORE PUSH1 0x4 ADD PUSH1 0x40 MLOAD DUP1 SWAP2 SUB SWAP1 REVERT JUMPDEST PUSH1 0x0 PUSH1 0x2 DUP3 PUSH1 0x40 MLOAD PUSH2 0xEE6 SWAP2 SWAP1 PUSH2 0x248D JUMP JUMPDEST PUSH1 0x20 PUSH1 0x40 MLOAD DUP1 DUP4 SUB DUP2 DUP6 GAS STATICCALL ISZERO DUP1 ISZERO PUSH2 0xF03 JUMPI RETURNDATASIZE PUSH1 0x0 DUP1 RETURNDATACOPY RETURNDATASIZE PUSH1 0x0 REVERT JUMPDEST POP POP POP PUSH1 0x40 MLOAD RETURNDATASIZE PUSH1 0x1F NOT PUSH1 0x1F DUP3 ADD AND DUP3 ADD DUP1 PUSH1 0x40 MSTORE POP DUP2 ADD SWAP1 PUSH2 0xF26 SWAP2 SWAP1 PUSH2 0x24B9 JUMP JUMPDEST SWAP1 POP DUP7 DUP2 EQ PUSH2 0xF61 JUMPI PUSH1 0x40 MLOAD PUSH32 0x17F4201000000000000000000000000000000000000000000000000000000000 DUP2 MSTORE PUSH1 0x4 ADD PUSH1 0x40 MLOAD DUP1 SWAP2 SUB SWAP1 REVERT JUMPDEST PUSH1 0x3 DUP1 PUSH1 0x0 DUP10 DUP2 MSTORE PUSH1 0x20 ADD SWAP1 DUP2 MSTORE PUSH1 0x20 ADD PUSH1 0x0 KECCAK256 PUSH1 0x0 PUSH2 0x100 EXP DUP2 SLOAD DUP2 PUSH1 0xFF MUL NOT AND SWAP1 DUP4 PUSH1 0x3 DUP2 GT ISZERO PUSH2 0xF97 JUMPI PUSH2 0xF96 PUSH2 0x1AB4 JUMP JUMPDEST JUMPDEST MUL OR SWAP1 SSTORE POP DUP12 PUSH20 0xFFFFFFFFFFFFFFFFFFFFFFFFFFFFFFFFFFFFFFFF AND PUSH4 0xBB9FF5D CALLER DUP9 PUSH1 0x40 MLOAD DUP4 PUSH4 0xFFFFFFFF AND PUSH1 0xE0 SHL DUP2 MSTORE PUSH1 0x4 ADD PUSH2 0xFD7 SWAP3 SWAP2 SWAP1 PUSH2 0x24E6 JUMP JUMPDEST PUSH1 0x0 PUSH1 0x40 MLOAD DUP1 DUP4 SUB DUP2 PUSH1 0x0 DUP8 DUP1 EXTCODESIZE ISZERO DUP1 ISZERO PUSH2 0xFF1 JUMPI PUSH1 0x0 DUP1 REVERT JUMPDEST POP GAS CALL ISZERO DUP1 ISZERO PUSH2 0x1005 JUMPI RETURNDATASIZE PUSH1 0x0 DUP1 RETURNDATACOPY RETURNDATASIZE PUSH1 0x0 REVERT JUMPDEST POP POP POP POP PUSH1 0x0 DUP10 PUSH1 0xFF AND PUSH1 0x4 DUP2 GT ISZERO PUSH2 0x1021 JUMPI PUSH2 0x1020 PUSH2 0x1AB4 JUMP JUMPDEST JUMPDEST SWAP1 POP PUSH1 0x0 DUP10 SWAP1 POP PUSH32 0x4CD44D36237264148F955FCE295E3BE9EF5A592F8F10F37DFDB595BC17A0AB5F DUP6 DUP15 DUP9 DUP16 DUP13 PUSH1 0x2 PUSH1 0x0 SWAP1 SLOAD SWAP1 PUSH2 0x100 EXP SWAP1 DIV PUSH1 0xFF AND CHAINID DUP10 DUP10 DUP13 PUSH1 0x40 MLOAD PUSH2 0x1078 SWAP11 SWAP10 SWAP9 SWAP8 SWAP7 SWAP6 SWAP5 SWAP4 SWAP3 SWAP2 SWAP1 PUSH2 0x2695 JUMP JUMPDEST PUSH1 0x40 MLOAD DUP1 SWAP2 SUB SWAP1 LOG1 POP POP POP POP POP POP POP POP POP POP POP POP POP POP JUMP JUMPDEST PUSH1 0x4 PUSH1 0x20 MSTORE DUP1 PUSH1 0x0 MSTORE PUSH1 0x40 PUSH1 0x0 KECCAK256 PUSH1 0x0 SWAP2 POP SLOAD SWAP1 PUSH2 0x100 EXP SWAP1 DIV PUSH4 0xFFFFFFFF AND DUP2 JUMP JUMPDEST PUSH1 0x0 DUP1 SHL PUSH2 0x10C8 DUP2 PUSH2 0x10C3 PUSH2 0x1227 JUMP JUMPDEST PUSH2 0x122F JUMP JUMPDEST PUSH1 0x0 PUSH1 0x3 DUP2 GT ISZERO PUSH2 0x10DC JUMPI PUSH2 0x10DB PUSH2 0x1AB4 JUMP JUMPDEST JUMPDEST PUSH1 0x3 PUSH1 0x0 DUP5 DUP2 MSTORE PUSH1 0x20 ADD SWAP1 DUP2 MSTORE PUSH1 0x20 ADD PUSH1 0x0 KECCAK256 PUSH1 0x0 SWAP1 SLOAD SWAP1 PUSH2 0x100 EXP SWAP1 DIV PUSH1 0xFF AND PUSH1 0x3 DUP2 GT ISZERO PUSH2 0x110F JUMPI PUSH2 0x110E PUSH2 0x1AB4 JUMP JUMPDEST JUMPDEST EQ PUSH2 0x1146 JUMPI PUSH1 0x40 MLOAD PUSH32 0x8C4F12A00000000000000000000000000000000000000000000000000000000 DUP2 MSTORE PUSH1 0x4 ADD PUSH1 0x40 MLOAD DUP1 SWAP2 SUB SWAP1 REVERT JUMPDEST PUSH1 0x2 PUSH1 0x3 PUSH1 0x0 DUP5 DUP2 MSTORE PUSH1 0x20 ADD SWAP1 DUP2 MSTORE PUSH1 0x20 ADD PUSH1 0x0 KECCAK256 PUSH1 0x0 PUSH2 0x100 EXP DUP2 SLOAD DUP2 PUSH1 0xFF MUL NOT AND SWAP1 DUP4 PUSH1 0x3 DUP2 GT ISZERO PUSH2 0x117D JUMPI PUSH2 0x117C PUSH2 0x1AB4 JUMP JUMPDEST JUMPDEST MUL OR SWAP1 SSTORE POP PUSH32 0x47C9AA2561551603155C93121E4CE0923C371458F4707BC5C7455C0554FCF3B6 DUP3 PUSH1 0x40 MLOAD PUSH2 0x11B1 SWAP2 SWAP1 PUSH2 0x1B55 JUMP JUMPDEST PUSH1 0x40 MLOAD DUP1 SWAP2 SUB SWAP1 LOG1 POP POP JUMP JUMPDEST PUSH1 0x0 PUSH32 0x1FFC9A700000000000000000000000000000000000000000000000000000000 PUSH28 0xFFFFFFFFFFFFFFFFFFFFFFFFFFFFFFFFFFFFFFFFFFFFFFFFFFFFFFFF NOT AND DUP3 PUSH28 0xFFFFFFFFFFFFFFFFFFFFFFFFFFFFFFFFFFFFFFFFFFFFFFFFFFFFFFFF NOT AND EQ SWAP1 POP SWAP2 SWAP1 POP JUMP JUMPDEST PUSH1 0x0 CALLER SWAP1 POP SWAP1 JUMP JUMPDEST PUSH2 0x1239 DUP3 DUP3 PUSH2 0xB64 JUMP JUMPDEST PUSH2 0x127C JUMPI DUP1 DUP3 PUSH1 0x40 MLOAD PUSH32 0x546FD62C00000000000000000000000000000000000000000000000000000000 DUP2 MSTORE PUSH1 0x4 ADD PUSH2 0x1273 SWAP3 SWAP2 SWAP1 PUSH2 0x274D JUMP JUMPDEST PUSH1 0x40 MLOAD DUP1 SWAP2 SUB SWAP1 REVERT JUMPDEST POP POP JUMP JUMPDEST PUSH2 0x128A DUP3 DUP3 PUSH2 0x13A8 JUMP JUMPDEST POP POP JUMP JUMPDEST PUSH1 0x60 PUSH1 0x0 PUSH1 0x28 PUSH8 0xFFFFFFFFFFFFFFFF DUP2 GT ISZERO PUSH2 0x12AD JUMPI PUSH2 0x12AC PUSH2 0x1BE4 JUMP JUMPDEST JUMPDEST PUSH1 0x40 MLOAD SWAP1 DUP1 DUP3 MSTORE DUP1 PUSH1 0x1F ADD PUSH1 0x1F NOT AND PUSH1 0x20 ADD DUP3 ADD PUSH1 0x40 MSTORE DUP1 ISZERO PUSH2 0x12DF JUMPI DUP2 PUSH1 0x20 ADD PUSH1 0x1 DUP3 MUL DUP1 CALLDATASIZE DUP4 CALLDATACOPY DUP1 DUP3 ADD SWAP2 POP POP SWAP1 POP JUMPDEST POP SWAP1 POP DUP3 PUSH1 0x28 DUP3 ADD MSTORE DUP1 SWAP2 POP POP SWAP2 SWAP1 POP JUMP JUMPDEST PUSH1 0x0 PUSH1 0x2 DUP1 PUSH1 0x0 SWAP1 SLOAD SWAP1 PUSH2 0x100 EXP SWAP1 DIV PUSH1 0xFF AND PUSH1 0x4 DUP2 GT ISZERO PUSH2 0x1316 JUMPI PUSH2 0x1315 PUSH2 0x1AB4 JUMP JUMPDEST JUMPDEST CHAINID DUP8 PUSH1 0x4 DUP2 GT ISZERO PUSH2 0x132A JUMPI PUSH2 0x1329 PUSH2 0x1AB4 JUMP JUMPDEST JUMPDEST DUP8 DUP8 DUP8 PUSH1 0x40 MLOAD PUSH1 0x20 ADD PUSH2 0x1342 SWAP7 SWAP6 SWAP5 SWAP4 SWAP3 SWAP2 SWAP1 PUSH2 0x2776 JUMP JUMPDEST PUSH1 0x40 MLOAD PUSH1 0x20 DUP2 DUP4 SUB SUB DUP2 MSTORE SWAP1 PUSH1 0x40 MSTORE PUSH1 0x40 MLOAD PUSH2 0x135E SWAP2 SWAP1 PUSH2 0x248D JUMP JUMPDEST PUSH1 0x20 PUSH1 0x40 MLOAD DUP1 DUP4 SUB DUP2 DUP6 GAS STATICCALL ISZERO DUP1 ISZERO PUSH2 0x137B JUMPI RETURNDATASIZE PUSH1 0x0 DUP1 RETURNDATACOPY RETURNDATASIZE PUSH1 0x0 REVERT JUMPDEST POP POP POP PUSH1 0x40 MLOAD RETURNDATASIZE PUSH1 0x1F NOT PUSH1 0x1F DUP3 ADD AND DUP3 ADD DUP1 PUSH1 0x40 MSTORE POP DUP2 ADD SWAP1 PUSH2 0x139E SWAP2 SWAP1 PUSH2 0x24B9 JUMP JUMPDEST SWAP1 POP SWAP5 SWAP4 POP POP POP POP JUMP JUMPDEST PUSH2 0x13B2 DUP3 DUP3 PUSH2 0x143F JUMP JUMPDEST PUSH2 0x13D7 DUP2 PUSH1 0x1 PUSH1 0x0 DUP6 DUP2 MSTORE PUSH1 0x20 ADD SWAP1 DUP2 MSTORE PUSH1 0x20 ADD PUSH1 0x0 KECCAK256 PUSH2 0x151F SWAP1 SWAP2 SWAP1 PUSH4 0xFFFFFFFF AND JUMP JUMPDEST POP POP POP JUMP JUMPDEST PUSH2 0x13E6 DUP3 DUP3 PUSH2 0x154F JUMP JUMPDEST PUSH2 0x140B DUP2 PUSH1 0x1 PUSH1 0x0 DUP6 DUP2 MSTORE PUSH1 0x20 ADD SWAP1 DUP2 MSTORE PUSH1 0x20 ADD PUSH1 0x0 KECCAK256 PUSH2 0x1630 SWAP1 SWAP2 SWAP1 PUSH4 0xFFFFFFFF AND JUMP JUMPDEST POP POP POP JUMP JUMPDEST PUSH1 0x0 PUSH2 0x141F DUP4 PUSH1 0x0 ADD DUP4 PUSH2 0x1660 JUMP JUMPDEST PUSH1 0x0 SHR SWAP1 POP SWAP3 SWAP2 POP POP JUMP JUMPDEST PUSH1 0x0 PUSH2 0x1438 DUP3 PUSH1 0x0 ADD PUSH2 0x168B JUMP JUMPDEST SWAP1 POP SWAP2 SWAP1 POP JUMP JUMPDEST PUSH2 0x1449 DUP3 DUP3 PUSH2 0xB64 JUMP JUMPDEST PUSH2 0x151B JUMPI PUSH1 0x1 PUSH1 0x0 DUP1 DUP5 DUP2 MSTORE PUSH1 0x20 ADD SWAP1 DUP2 MSTORE PUSH1 0x20 ADD PUSH1 0x0 KECCAK256 PUSH1 0x0 ADD PUSH1 0x0 DUP4 PUSH20 0xFFFFFFFFFFFFFFFFFFFFFFFFFFFFFFFFFFFFFFFF AND PUSH20 0xFFFFFFFFFFFFFFFFFFFFFFFFFFFFFFFFFFFFFFFF AND DUP2 MSTORE PUSH1 0x20 ADD SWAP1 DUP2 MSTORE PUSH1 0x20 ADD PUSH1 0x0 KECCAK256 PUSH1 0x0 PUSH2 0x100 EXP DUP2 SLOAD DUP2 PUSH1 0xFF MUL NOT AND SWAP1 DUP4 ISZERO ISZERO MUL OR SWAP1 SSTORE POP PUSH2 0x14C0 PUSH2 0x1227 JUMP JUMPDEST PUSH20 0xFFFFFFFFFFFFFFFFFFFFFFFFFFFFFFFFFFFFFFFF AND DUP2 PUSH20 0xFFFFFFFFFFFFFFFFFFFFFFFFFFFFFFFFFFFFFFFF AND DUP4 PUSH32 0x2F8788117E7EFF1D82E926EC794901D17C78024A50270940304540A733656F0D PUSH1 0x40 MLOAD PUSH1 0x40 MLOAD DUP1 SWAP2 SUB SWAP1 LOG4 JUMPDEST POP POP JUMP JUMPDEST PUSH1 0x0 PUSH2 0x1547 DUP4 PUSH1 0x0 ADD DUP4 PUSH20 0xFFFFFFFFFFFFFFFFFFFFFFFFFFFFFFFFFFFFFFFF AND PUSH1 0x0 SHL PUSH2 0x169C JUMP JUMPDEST SWAP1 POP SWAP3 SWAP2 POP POP JUMP JUMPDEST PUSH2 0x1559 DUP3 DUP3 PUSH2 0xB64 JUMP JUMPDEST ISZERO PUSH2 0x162C JUMPI PUSH1 0x0 DUP1 PUSH1 0x0 DUP5 DUP2 MSTORE PUSH1 0x20 ADD SWAP1 DUP2 MSTORE PUSH1 0x20 ADD PUSH1 0x0 KECCAK256 PUSH1 0x0 ADD PUSH1 0x0 DUP4 PUSH20 0xFFFFFFFFFFFFFFFFFFFFFFFFFFFFFFFFFFFFFFFF AND PUSH20 0xFFFFFFFFFFFFFFFFFFFFFFFFFFFFFFFFFFFFFFFF AND DUP2 MSTORE PUSH1 0x20 ADD SWAP1 DUP2 MSTORE PUSH1 0x20 ADD PUSH1 0x0 KECCAK256 PUSH1 0x0 PUSH2 0x100 EXP DUP2 SLOAD DUP2 PUSH1 0xFF MUL NOT AND SWAP1 DUP4 ISZERO ISZERO MUL OR SWAP1 SSTORE POP PUSH2 0x15D1 PUSH2 0x1227 JUMP JUMPDEST PUSH20 0xFFFFFFFFFFFFFFFFFFFFFFFFFFFFFFFFFFFFFFFF AND DUP2 PUSH20 0xFFFFFFFFFFFFFFFFFFFFFFFFFFFFFFFFFFFFFFFF AND DUP4 PUSH32 0xF6391F5C32D9C69D2A47EA670B442974B53935D1EDC7FD64EB21E047A839171B PUSH1 0x40 MLOAD PUSH1 0x40 MLOAD DUP1 SWAP2 SUB SWAP1 LOG4 JUMPDEST POP POP JUMP JUMPDEST PUSH1 0x0 PUSH2 0x1658 DUP4 PUSH1 0x0 ADD DUP4 PUSH20 0xFFFFFFFFFFFFFFFFFFFFFFFFFFFFFFFFFFFFFFFF AND PUSH1 0x0 SHL PUSH2 0x170C JUMP JUMPDEST SWAP1 POP SWAP3 SWAP2 POP POP JUMP JUMPDEST PUSH1 0x0 DUP3 PUSH1 0x0 ADD DUP3 DUP2 SLOAD DUP2 LT PUSH2 0x1678 JUMPI PUSH2 0x1677 PUSH2 0x21F9 JUMP JUMPDEST JUMPDEST SWAP1 PUSH1 0x0 MSTORE PUSH1 0x20 PUSH1 0x0 KECCAK256 ADD SLOAD SWAP1 POP SWAP3 SWAP2 POP POP JUMP JUMPDEST PUSH1 0x0 DUP2 PUSH1 0x0 ADD DUP1 SLOAD SWAP1 POP SWAP1 POP SWAP2 SWAP1 POP JUMP JUMPDEST PUSH1 0x0 PUSH2 0x16A8 DUP4 DUP4 PUSH2 0x1820 JUMP JUMPDEST PUSH2 0x1701 JUMPI DUP3 PUSH1 0x0 ADD DUP3 SWAP1 DUP1 PUSH1 0x1 DUP2 SLOAD ADD DUP1 DUP3 SSTORE DUP1 SWAP2 POP POP PUSH1 0x1 SWAP1 SUB SWAP1 PUSH1 0x0 MSTORE PUSH1 0x20 PUSH1 0x0 KECCAK256 ADD PUSH1 0x0 SWAP1 SWAP2 SWAP1 SWAP2 SWAP1 SWAP2 POP SSTORE DUP3 PUSH1 0x0 ADD DUP1 SLOAD SWAP1 POP DUP4 PUSH1 0x1 ADD PUSH1 0x0 DUP5 DUP2 MSTORE PUSH1 0x20 ADD SWAP1 DUP2 MSTORE PUSH1 0x20 ADD PUSH1 0x0 KECCAK256 DUP2 SWAP1 SSTORE POP PUSH1 0x1 SWAP1 POP PUSH2 0x1706 JUMP JUMPDEST PUSH1 0x0 SWAP1 POP JUMPDEST SWAP3 SWAP2 POP POP JUMP JUMPDEST PUSH1 0x0 DUP1 DUP4 PUSH1 0x1 ADD PUSH1 0x0 DUP5 DUP2 MSTORE PUSH1 0x20 ADD SWAP1 DUP2 MSTORE PUSH1 0x20 ADD PUSH1 0x0 KECCAK256 SLOAD SWAP1 POP PUSH1 0x0 DUP2 EQ PUSH2 0x1814 JUMPI PUSH1 0x0 PUSH1 0x1 DUP3 PUSH2 0x173E SWAP2 SWAP1 PUSH2 0x27DE JUMP JUMPDEST SWAP1 POP PUSH1 0x0 PUSH1 0x1 DUP7 PUSH1 0x0 ADD DUP1 SLOAD SWAP1 POP PUSH2 0x1756 SWAP2 SWAP1 PUSH2 0x27DE JUMP JUMPDEST SWAP1 POP DUP2 DUP2 EQ PUSH2 0x17C5 JUMPI PUSH1 0x0 DUP7 PUSH1 0x0 ADD DUP3 DUP2 SLOAD DUP2 LT PUSH2 0x1777 JUMPI PUSH2 0x1776 PUSH2 0x21F9 JUMP JUMPDEST JUMPDEST SWAP1 PUSH1 0x0 MSTORE PUSH1 0x20 PUSH1 0x0 KECCAK256 ADD SLOAD SWAP1 POP DUP1 DUP8 PUSH1 0x0 ADD DUP5 DUP2 SLOAD DUP2 LT PUSH2 0x179B JUMPI PUSH2 0x179A PUSH2 0x21F9 JUMP JUMPDEST JUMPDEST SWAP1 PUSH1 0x0 MSTORE PUSH1 0x20 PUSH1 0x0 KECCAK256 ADD DUP2 SWAP1 SSTORE POP DUP4 DUP8 PUSH1 0x1 ADD PUSH1 0x0 DUP4 DUP2 MSTORE PUSH1 0x20 ADD SWAP1 DUP2 MSTORE PUSH1 0x20 ADD PUSH1 0x0 KECCAK256 DUP2 SWAP1 SSTORE POP POP JUMPDEST DUP6 PUSH1 0x0 ADD DUP1 SLOAD DUP1 PUSH2 0x17D9 JUMPI PUSH2 0x17D8 PUSH2 0x2812 JUMP JUMPDEST JUMPDEST PUSH1 0x1 SWAP1 SUB DUP2 DUP2 SWAP1 PUSH1 0x0 MSTORE PUSH1 0x20 PUSH1 0x0 KECCAK256 ADD PUSH1 0x0 SWAP1 SSTORE SWAP1 SSTORE DUP6 PUSH1 0x1 ADD PUSH1 0x0 DUP7 DUP2 MSTORE PUSH1 0x20 ADD SWAP1 DUP2 MSTORE PUSH1 0x20 ADD PUSH1 0x0 KECCAK256 PUSH1 0x0 SWAP1 SSTORE PUSH1 0x1 SWAP4 POP POP POP POP PUSH2 0x181A JUMP JUMPDEST PUSH1 0x0 SWAP2 POP POP JUMPDEST SWAP3 SWAP2 POP POP JUMP JUMPDEST PUSH1 0x0 DUP1 DUP4 PUSH1 0x1 ADD PUSH1 0x0 DUP5 DUP2 MSTORE PUSH1 0x20 ADD SWAP1 DUP2 MSTORE PUSH1 0x20 ADD PUSH1 0x0 KECCAK256 SLOAD EQ ISZERO SWAP1 POP SWAP3 SWAP2 POP POP JUMP JUMPDEST PUSH1 0x0 PUSH1 0x40 MLOAD SWAP1 POP SWAP1 JUMP JUMPDEST PUSH1 0x0 DUP1 REVERT JUMPDEST PUSH1 0x0 DUP1 REVERT JUMPDEST PUSH1 0x0 DUP2 SWAP1 POP SWAP2 SWAP1 POP JUMP JUMPDEST PUSH2 0x186A DUP2 PUSH2 0x1857 JUMP JUMPDEST DUP2 EQ PUSH2 0x1875 JUMPI PUSH1 0x0 DUP1 REVERT JUMPDEST POP JUMP JUMPDEST PUSH1 0x0 DUP2 CALLDATALOAD SWAP1 POP PUSH2 0x1887 DUP2 PUSH2 0x1861 JUMP JUMPDEST SWAP3 SWAP2 POP POP JUMP JUMPDEST PUSH1 0x0 PUSH1 0x20 DUP3 DUP5 SUB SLT ISZERO PUSH2 0x18A3 JUMPI PUSH2 0x18A2 PUSH2 0x184D JUMP JUMPDEST JUMPDEST PUSH1 0x0 PUSH2 0x18B1 DUP5 DUP3 DUP6 ADD PUSH2 0x1878 JUMP JUMPDEST SWAP2 POP POP SWAP3 SWAP2 POP POP JUMP JUMPDEST PUSH2 0x18C3 DUP2 PUSH2 0x1857 JUMP JUMPDEST DUP3 MSTORE POP POP JUMP JUMPDEST PUSH1 0x0 PUSH1 0x20 DUP3 ADD SWAP1 POP PUSH2 0x18DE PUSH1 0x0 DUP4 ADD DUP5 PUSH2 0x18BA JUMP JUMPDEST SWAP3 SWAP2 POP POP JUMP JUMPDEST PUSH1 0x0 PUSH32 0xFFFFFFFF00000000000000000000000000000000000000000000000000000000 DUP3 AND SWAP1 POP SWAP2 SWAP1 POP JUMP JUMPDEST PUSH2 0x1919 DUP2 PUSH2 0x18E4 JUMP JUMPDEST DUP2 EQ PUSH2 0x1924 JUMPI PUSH1 0x0 DUP1 REVERT JUMPDEST POP JUMP JUMPDEST PUSH1 0x0 DUP2 CALLDATALOAD SWAP1 POP PUSH2 0x1936 DUP2 PUSH2 0x1910 JUMP JUMPDEST SWAP3 SWAP2 POP POP JUMP JUMPDEST PUSH1 0x0 PUSH1 0x20 DUP3 DUP5 SUB SLT ISZERO PUSH2 0x1952 JUMPI PUSH2 0x1951 PUSH2 0x184D JUMP JUMPDEST JUMPDEST PUSH1 0x0 PUSH2 0x1960 DUP5 DUP3 DUP6 ADD PUSH2 0x1927 JUMP JUMPDEST SWAP2 POP POP SWAP3 SWAP2 POP POP JUMP JUMPDEST PUSH1 0x0 DUP2 ISZERO ISZERO SWAP1 POP SWAP2 SWAP1 POP JUMP JUMPDEST PUSH2 0x197E DUP2 PUSH2 0x1969 JUMP JUMPDEST DUP3 MSTORE POP POP JUMP JUMPDEST PUSH1 0x0 PUSH1 0x20 DUP3 ADD SWAP1 POP PUSH2 0x1999 PUSH1 0x0 DUP4 ADD DUP5 PUSH2 0x1975 JUMP JUMPDEST SWAP3 SWAP2 POP POP JUMP JUMPDEST PUSH1 0x0 DUP1 REVERT JUMPDEST PUSH1 0x0 DUP1 REVERT JUMPDEST PUSH1 0x0 DUP1 REVERT JUMPDEST PUSH1 0x0 DUP1 DUP4 PUSH1 0x1F DUP5 ADD SLT PUSH2 0x19C4 JUMPI PUSH2 0x19C3 PUSH2 0x199F JUMP JUMPDEST JUMPDEST DUP3 CALLDATALOAD SWAP1 POP PUSH8 0xFFFFFFFFFFFFFFFF DUP2 GT ISZERO PUSH2 0x19E1 JUMPI PUSH2 0x19E0 PUSH2 0x19A4 JUMP JUMPDEST JUMPDEST PUSH1 0x20 DUP4 ADD SWAP2 POP DUP4 PUSH1 0x40 DUP3 MUL DUP4 ADD GT ISZERO PUSH2 0x19FD JUMPI PUSH2 0x19FC PUSH2 0x19A9 JUMP JUMPDEST JUMPDEST SWAP3 POP SWAP3 SWAP1 POP JUMP JUMPDEST PUSH1 0x0 DUP1 PUSH1 0x20 DUP4 DUP6 SUB SLT ISZERO PUSH2 0x1A1B JUMPI PUSH2 0x1A1A PUSH2 0x184D JUMP JUMPDEST JUMPDEST PUSH1 0x0 DUP4 ADD CALLDATALOAD PUSH8 0xFFFFFFFFFFFFFFFF DUP2 GT ISZERO PUSH2 0x1A39 JUMPI PUSH2 0x1A38 PUSH2 0x1852 JUMP JUMPDEST JUMPDEST PUSH2 0x1A45 DUP6 DUP3 DUP7 ADD PUSH2 0x19AE JUMP JUMPDEST SWAP3 POP SWAP3 POP POP SWAP3 POP SWAP3 SWAP1 POP JUMP JUMPDEST PUSH1 0x0 DUP2 SWAP1 POP SWAP2 SWAP1 POP JUMP JUMPDEST PUSH2 0x1A64 DUP2 PUSH2 0x1A51 JUMP JUMPDEST DUP2 EQ PUSH2 0x1A6F JUMPI PUSH1 0x0 DUP1 REVERT JUMPDEST POP JUMP JUMPDEST PUSH1 0x0 DUP2 CALLDATALOAD SWAP1 POP PUSH2 0x1A81 DUP2 PUSH2 0x1A5B JUMP JUMPDEST SWAP3 SWAP2 POP POP JUMP JUMPDEST PUSH1 0x0 PUSH1 0x20 DUP3 DUP5 SUB SLT ISZERO PUSH2 0x1A9D JUMPI PUSH2 0x1A9C PUSH2 0x184D JUMP JUMPDEST JUMPDEST PUSH1 0x0 PUSH2 0x1AAB DUP5 DUP3 DUP6 ADD PUSH2 0x1A72 JUMP JUMPDEST SWAP2 POP POP SWAP3 SWAP2 POP POP JUMP JUMPDEST PUSH32 0x4E487B7100000000000000000000000000000000000000000000000000000000 PUSH1 0x0 MSTORE PUSH1 0x21 PUSH1 0x4 MSTORE PUSH1 0x24 PUSH1 0x0 REVERT JUMPDEST PUSH1 0x4 DUP2 LT PUSH2 0x1AF4 JUMPI PUSH2 0x1AF3 PUSH2 0x1AB4 JUMP JUMPDEST JUMPDEST POP JUMP JUMPDEST PUSH1 0x0 DUP2 SWAP1 POP PUSH2 0x1B05 DUP3 PUSH2 0x1AE3 JUMP JUMPDEST SWAP2 SWAP1 POP JUMP JUMPDEST PUSH1 0x0 PUSH2 0x1B15 DUP3 PUSH2 0x1AF7 JUMP JUMPDEST SWAP1 POP SWAP2 SWAP1 POP JUMP JUMPDEST PUSH2 0x1B25 DUP2 PUSH2 0x1B0A JUMP JUMPDEST DUP3 MSTORE POP POP JUMP JUMPDEST PUSH1 0x0 PUSH1 0x20 DUP3 ADD SWAP1 POP PUSH2 0x1B40 PUSH1 0x0 DUP4 ADD DUP5 PUSH2 0x1B1C JUMP JUMPDEST SWAP3 SWAP2 POP POP JUMP JUMPDEST PUSH2 0x1B4F DUP2 PUSH2 0x1A51 JUMP JUMPDEST DUP3 MSTORE POP POP JUMP JUMPDEST PUSH1 0x0 PUSH1 0x20 DUP3 ADD SWAP1 POP PUSH2 0x1B6A PUSH1 0x0 DUP4 ADD DUP5 PUSH2 0x1B46 JUMP JUMPDEST SWAP3 SWAP2 POP POP JUMP JUMPDEST PUSH1 0x0 PUSH20 0xFFFFFFFFFFFFFFFFFFFFFFFFFFFFFFFFFFFFFFFF DUP3 AND SWAP1 POP SWAP2 SWAP1 POP JUMP JUMPDEST PUSH1 0x0 PUSH2 0x1B9B DUP3 PUSH2 0x1B70 JUMP JUMPDEST SWAP1 POP SWAP2 SWAP1 POP JUMP JUMPDEST PUSH2 0x1BAB DUP2 PUSH2 0x1B90 JUMP JUMPDEST DUP2 EQ PUSH2 0x1BB6 JUMPI PUSH1 0x0 DUP1 REVERT JUMPDEST POP JUMP JUMPDEST PUSH1 0x0 DUP2 CALLDATALOAD SWAP1 POP PUSH2 0x1BC8 DUP2 PUSH2 0x1BA2 JUMP JUMPDEST SWAP3 SWAP2 POP POP JUMP JUMPDEST PUSH1 0x0 DUP1 REVERT JUMPDEST PUSH1 0x0 PUSH1 0x1F NOT PUSH1 0x1F DUP4 ADD AND SWAP1 POP SWAP2 SWAP1 POP JUMP JUMPDEST PUSH32 0x4E487B7100000000000000000000000000000000000000000000000000000000 PUSH1 0x0 MSTORE PUSH1 0x41 PUSH1 0x4 MSTORE PUSH1 0x24 PUSH1 0x0 REVERT JUMPDEST PUSH2 0x1C1C DUP3 PUSH2 0x1BD3 JUMP JUMPDEST DUP2 ADD DUP2 DUP2 LT PUSH8 0xFFFFFFFFFFFFFFFF DUP3 GT OR ISZERO PUSH2 0x1C3B JUMPI PUSH2 0x1C3A PUSH2 0x1BE4 JUMP JUMPDEST JUMPDEST DUP1 PUSH1 0x40 MSTORE POP POP POP JUMP JUMPDEST PUSH1 0x0 PUSH2 0x1C4E PUSH2 0x1843 JUMP JUMPDEST SWAP1 POP PUSH2 0x1C5A DUP3 DUP3 PUSH2 0x1C13 JUMP JUMPDEST SWAP2 SWAP1 POP JUMP JUMPDEST PUSH1 0x0 PUSH8 0xFFFFFFFFFFFFFFFF DUP3 GT ISZERO PUSH2 0x1C7A JUMPI PUSH2 0x1C79 PUSH2 0x1BE4 JUMP JUMPDEST JUMPDEST PUSH2 0x1C83 DUP3 PUSH2 0x1BD3 JUMP JUMPDEST SWAP1 POP PUSH1 0x20 DUP2 ADD SWAP1 POP SWAP2 SWAP1 POP JUMP JUMPDEST DUP3 DUP2 DUP4 CALLDATACOPY PUSH1 0x0 DUP4 DUP4 ADD MSTORE POP POP POP JUMP JUMPDEST PUSH1 0x0 PUSH2 0x1CB2 PUSH2 0x1CAD DUP5 PUSH2 0x1C5F JUMP JUMPDEST PUSH2 0x1C44 JUMP JUMPDEST SWAP1 POP DUP3 DUP2 MSTORE PUSH1 0x20 DUP2 ADD DUP5 DUP5 DUP5 ADD GT ISZERO PUSH2 0x1CCE JUMPI PUSH2 0x1CCD PUSH2 0x1BCE JUMP JUMPDEST JUMPDEST PUSH2 0x1CD9 DUP5 DUP3 DUP6 PUSH2 0x1C90 JUMP JUMPDEST POP SWAP4 SWAP3 POP POP POP JUMP JUMPDEST PUSH1 0x0 DUP3 PUSH1 0x1F DUP4 ADD SLT PUSH2 0x1CF6 JUMPI PUSH2 0x1CF5 PUSH2 0x199F JUMP JUMPDEST JUMPDEST DUP2 CALLDATALOAD PUSH2 0x1D06 DUP5 DUP3 PUSH1 0x20 DUP7 ADD PUSH2 0x1C9F JUMP JUMPDEST SWAP2 POP POP SWAP3 SWAP2 POP POP JUMP JUMPDEST PUSH1 0x5 DUP2 LT PUSH2 0x1D1C JUMPI PUSH1 0x0 DUP1 REVERT JUMPDEST POP JUMP JUMPDEST PUSH1 0x0 DUP2 CALLDATALOAD SWAP1 POP PUSH2 0x1D2E DUP2 PUSH2 0x1D0F JUMP JUMPDEST SWAP3 SWAP2 POP POP JUMP JUMPDEST PUSH1 0x0 PUSH4 0xFFFFFFFF DUP3 AND SWAP1 POP SWAP2 SWAP1 POP JUMP JUMPDEST PUSH2 0x1D4D DUP2 PUSH2 0x1D34 JUMP JUMPDEST DUP2 EQ PUSH2 0x1D58 JUMPI PUSH1 0x0 DUP1 REVERT JUMPDEST POP JUMP JUMPDEST PUSH1 0x0 DUP2 CALLDATALOAD SWAP1 POP PUSH2 0x1D6A DUP2 PUSH2 0x1D44 JUMP JUMPDEST SWAP3 SWAP2 POP POP JUMP JUMPDEST PUSH1 0x0 DUP1 PUSH1 0x0 DUP1 PUSH1 0x80 DUP6 DUP8 SUB SLT ISZERO PUSH2 0x1D8A JUMPI PUSH2 0x1D89 PUSH2 0x184D JUMP JUMPDEST JUMPDEST PUSH1 0x0 PUSH2 0x1D98 DUP8 DUP3 DUP9 ADD PUSH2 0x1BB9 JUMP JUMPDEST SWAP5 POP POP PUSH1 0x20 DUP6 ADD CALLDATALOAD PUSH8 0xFFFFFFFFFFFFFFFF DUP2 GT ISZERO PUSH2 0x1DB9 JUMPI PUSH2 0x1DB8 PUSH2 0x1852 JUMP JUMPDEST JUMPDEST PUSH2 0x1DC5 DUP8 DUP3 DUP9 ADD PUSH2 0x1CE1 JUMP JUMPDEST SWAP4 POP POP PUSH1 0x40 PUSH2 0x1DD6 DUP8 DUP3 DUP9 ADD PUSH2 0x1D1F JUMP JUMPDEST SWAP3 POP POP PUSH1 0x60 PUSH2 0x1DE7 DUP8 DUP3 DUP9 ADD PUSH2 0x1D5B JUMP JUMPDEST SWAP2 POP POP SWAP3 SWAP6 SWAP2 SWAP5 POP SWAP3 POP JUMP JUMPDEST PUSH1 0x0 DUP1 PUSH1 0x40 DUP4 DUP6 SUB SLT ISZERO PUSH2 0x1E0A JUMPI PUSH2 0x1E09 PUSH2 0x184D JUMP JUMPDEST JUMPDEST PUSH1 0x0 PUSH2 0x1E18 DUP6 DUP3 DUP7 ADD PUSH2 0x1A72 JUMP JUMPDEST SWAP3 POP POP PUSH1 0x20 PUSH2 0x1E29 DUP6 DUP3 DUP7 ADD PUSH2 0x1BB9 JUMP JUMPDEST SWAP2 POP POP SWAP3 POP SWAP3 SWAP1 POP JUMP JUMPDEST PUSH1 0x3 DUP2 LT PUSH2 0x1E44 JUMPI PUSH2 0x1E43 PUSH2 0x1AB4 JUMP JUMPDEST JUMPDEST POP JUMP JUMPDEST PUSH1 0x0 DUP2 SWAP1 POP PUSH2 0x1E55 DUP3 PUSH2 0x1E33 JUMP JUMPDEST SWAP2 SWAP1 POP JUMP JUMPDEST PUSH1 0x0 PUSH2 0x1E65 DUP3 PUSH2 0x1E47 JUMP JUMPDEST SWAP1 POP SWAP2 SWAP1 POP JUMP JUMPDEST PUSH2 0x1E75 DUP2 PUSH2 0x1E5A JUMP JUMPDEST DUP3 MSTORE POP POP JUMP JUMPDEST PUSH1 0x0 PUSH1 0x20 DUP3 ADD SWAP1 POP PUSH2 0x1E90 PUSH1 0x0 DUP4 ADD DUP5 PUSH2 0x1E6C JUMP JUMPDEST SWAP3 SWAP2 POP POP JUMP JUMPDEST PUSH1 0x0 PUSH1 0xFF DUP3 AND SWAP1 POP SWAP2 SWAP1 POP JUMP JUMPDEST PUSH2 0x1EAC DUP2 PUSH2 0x1E96 JUMP JUMPDEST DUP2 EQ PUSH2 0x1EB7 JUMPI PUSH1 0x0 DUP1 REVERT JUMPDEST POP JUMP JUMPDEST PUSH1 0x0 DUP2 CALLDATALOAD SWAP1 POP PUSH2 0x1EC9 DUP2 PUSH2 0x1EA3 JUMP JUMPDEST SWAP3 SWAP2 POP POP JUMP JUMPDEST PUSH1 0x0 DUP1 PUSH1 0x0 DUP1 PUSH1 0x0 DUP1 PUSH1 0xC0 DUP8 DUP10 SUB SLT ISZERO PUSH2 0x1EEC JUMPI PUSH2 0x1EEB PUSH2 0x184D JUMP JUMPDEST JUMPDEST PUSH1 0x0 PUSH2 0x1EFA DUP10 DUP3 DUP11 ADD PUSH2 0x1BB9 JUMP JUMPDEST SWAP7 POP POP PUSH1 0x20 DUP8 ADD CALLDATALOAD PUSH8 0xFFFFFFFFFFFFFFFF DUP2 GT ISZERO PUSH2 0x1F1B JUMPI PUSH2 0x1F1A PUSH2 0x1852 JUMP JUMPDEST JUMPDEST PUSH2 0x1F27 DUP10 DUP3 DUP11 ADD PUSH2 0x1CE1 JUMP JUMPDEST SWAP6 POP POP PUSH1 0x40 DUP8 ADD CALLDATALOAD PUSH8 0xFFFFFFFFFFFFFFFF DUP2 GT ISZERO PUSH2 0x1F48 JUMPI PUSH2 0x1F47 PUSH2 0x1852 JUMP JUMPDEST JUMPDEST PUSH2 0x1F54 DUP10 DUP3 DUP11 ADD PUSH2 0x1CE1 JUMP JUMPDEST SWAP5 POP POP PUSH1 0x60 PUSH2 0x1F65 DUP10 DUP3 DUP11 ADD PUSH2 0x1878 JUMP JUMPDEST SWAP4 POP POP PUSH1 0x80 PUSH2 0x1F76 DUP10 DUP3 DUP11 ADD PUSH2 0x1EBA JUMP JUMPDEST SWAP3 POP POP PUSH1 0xA0 PUSH2 0x1F87 DUP10 DUP3 DUP11 ADD PUSH2 0x1D5B JUMP JUMPDEST SWAP2 POP POP SWAP3 SWAP6 POP SWAP3 SWAP6 POP SWAP3 SWAP6 JUMP JUMPDEST PUSH1 0x0 DUP1 PUSH1 0x40 DUP4 DUP6 SUB SLT ISZERO PUSH2 0x1FAB JUMPI PUSH2 0x1FAA PUSH2 0x184D JUMP JUMPDEST JUMPDEST PUSH1 0x0 PUSH2 0x1FB9 DUP6 DUP3 DUP7 ADD PUSH2 0x1A72 JUMP JUMPDEST SWAP3 POP POP PUSH1 0x20 PUSH2 0x1FCA DUP6 DUP3 DUP7 ADD PUSH2 0x1878 JUMP JUMPDEST SWAP2 POP POP SWAP3 POP SWAP3 SWAP1 POP JUMP JUMPDEST PUSH2 0x1FDD DUP2 PUSH2 0x1B90 JUMP JUMPDEST DUP3 MSTORE POP POP JUMP JUMPDEST PUSH1 0x0 PUSH1 0x20 DUP3 ADD SWAP1 POP PUSH2 0x1FF8 PUSH1 0x0 DUP4 ADD DUP5 PUSH2 0x1FD4 JUMP JUMPDEST SWAP3 SWAP2 POP POP JUMP JUMPDEST PUSH1 0x0 DUP1 DUP4 PUSH1 0x1F DUP5 ADD SLT PUSH2 0x2014 JUMPI PUSH2 0x2013 PUSH2 0x199F JUMP JUMPDEST JUMPDEST DUP3 CALLDATALOAD SWAP1 POP PUSH8 0xFFFFFFFFFFFFFFFF DUP2 GT ISZERO PUSH2 0x2031 JUMPI PUSH2 0x2030 PUSH2 0x19A4 JUMP JUMPDEST JUMPDEST PUSH1 0x20 DUP4 ADD SWAP2 POP DUP4 PUSH1 0x20 DUP3 MUL DUP4 ADD GT ISZERO PUSH2 0x204D JUMPI PUSH2 0x204C PUSH2 0x19A9 JUMP JUMPDEST JUMPDEST SWAP3 POP SWAP3 SWAP1 POP JUMP JUMPDEST PUSH1 0x0 DUP1 PUSH1 0x0 PUSH1 0x40 DUP5 DUP7 SUB SLT ISZERO PUSH2 0x206D JUMPI PUSH2 0x206C PUSH2 0x184D JUMP JUMPDEST JUMPDEST PUSH1 0x0 DUP5 ADD CALLDATALOAD PUSH8 0xFFFFFFFFFFFFFFFF DUP2 GT ISZERO PUSH2 0x208B JUMPI PUSH2 0x208A PUSH2 0x1852 JUMP JUMPDEST JUMPDEST PUSH2 0x2097 DUP7 DUP3 DUP8 ADD PUSH2 0x1FFE JUMP JUMPDEST SWAP4 POP SWAP4 POP POP PUSH1 0x20 PUSH2 0x20AA DUP7 DUP3 DUP8 ADD PUSH2 0x1878 JUMP JUMPDEST SWAP2 POP POP SWAP3 POP SWAP3 POP SWAP3 JUMP JUMPDEST PUSH1 0x0 DUP1 PUSH1 0x0 DUP1 PUSH1 0x0 DUP1 PUSH1 0x0 DUP1 PUSH2 0x100 DUP10 DUP12 SUB SLT ISZERO PUSH2 0x20D5 JUMPI PUSH2 0x20D4 PUSH2 0x184D JUMP JUMPDEST JUMPDEST PUSH1 0x0 PUSH2 0x20E3 DUP12 DUP3 DUP13 ADD PUSH2 0x1BB9 JUMP JUMPDEST SWAP9 POP POP PUSH1 0x20 DUP10 ADD CALLDATALOAD PUSH8 0xFFFFFFFFFFFFFFFF DUP2 GT ISZERO PUSH2 0x2104 JUMPI PUSH2 0x2103 PUSH2 0x1852 JUMP JUMPDEST JUMPDEST PUSH2 0x2110 DUP12 DUP3 DUP13 ADD PUSH2 0x1CE1 JUMP JUMPDEST SWAP8 POP POP PUSH1 0x40 DUP10 ADD CALLDATALOAD PUSH8 0xFFFFFFFFFFFFFFFF DUP2 GT ISZERO PUSH2 0x2131 JUMPI PUSH2 0x2130 PUSH2 0x1852 JUMP JUMPDEST JUMPDEST PUSH2 0x213D DUP12 DUP3 DUP13 ADD PUSH2 0x1CE1 JUMP JUMPDEST SWAP7 POP POP PUSH1 0x60 PUSH2 0x214E DUP12 DUP3 DUP13 ADD PUSH2 0x1EBA JUMP JUMPDEST SWAP6 POP POP PUSH1 0x80 PUSH2 0x215F DUP12 DUP3 DUP13 ADD PUSH2 0x1D5B JUMP JUMPDEST SWAP5 POP POP PUSH1 0xA0 PUSH2 0x2170 DUP12 DUP3 DUP13 ADD PUSH2 0x1A72 JUMP JUMPDEST SWAP4 POP POP PUSH1 0xC0 PUSH2 0x2181 DUP12 DUP3 DUP13 ADD PUSH2 0x1878 JUMP JUMPDEST SWAP3 POP POP PUSH1 0xE0 PUSH2 0x2192 DUP12 DUP3 DUP13 ADD PUSH2 0x1878 JUMP JUMPDEST SWAP2 POP POP SWAP3 SWAP6 SWAP9 POP SWAP3 SWAP6 SWAP9 SWAP1 SWAP4 SWAP7 POP JUMP JUMPDEST PUSH1 0x0 PUSH1 0x20 DUP3 DUP5 SUB SLT ISZERO PUSH2 0x21B8 JUMPI PUSH2 0x21B7 PUSH2 0x184D JUMP JUMPDEST JUMPDEST PUSH1 0x0 PUSH2 0x21C6 DUP5 DUP3 DUP6 ADD PUSH2 0x1BB9 JUMP JUMPDEST SWAP2 POP POP SWAP3 SWAP2 POP POP JUMP JUMPDEST PUSH2 0x21D8 DUP2 PUSH2 0x1D34 JUMP JUMPDEST DUP3 MSTORE POP POP JUMP JUMPDEST PUSH1 0x0 PUSH1 0x20 DUP3 ADD SWAP1 POP PUSH2 0x21F3 PUSH1 0x0 DUP4 ADD DUP5 PUSH2 0x21CF JUMP JUMPDEST SWAP3 SWAP2 POP POP JUMP JUMPDEST PUSH32 0x4E487B7100000000000000000000000000000000000000000000000000000000 PUSH1 0x0 MSTORE PUSH1 0x32 PUSH1 0x4 MSTORE PUSH1 0x24 PUSH1 0x0 REVERT JUMPDEST PUSH32 0x4E487B7100000000000000000000000000000000000000000000000000000000 PUSH1 0x0 MSTORE PUSH1 0x11 PUSH1 0x4 MSTORE PUSH1 0x24 PUSH1 0x0 REVERT JUMPDEST PUSH1 0x0 PUSH2 0x2262 DUP3 PUSH2 0x1857 JUMP JUMPDEST SWAP2 POP PUSH32 0xFFFFFFFFFFFFFFFFFFFFFFFFFFFFFFFFFFFFFFFFFFFFFFFFFFFFFFFFFFFFFFFF DUP3 EQ ISZERO PUSH2 0x2295 JUMPI PUSH2 0x2294 PUSH2 0x2228 JUMP JUMPDEST JUMPDEST PUSH1 0x1 DUP3 ADD SWAP1 POP SWAP2 SWAP1 POP JUMP JUMPDEST PUSH1 0x0 DUP2 MLOAD SWAP1 POP PUSH2 0x22AF DUP2 PUSH2 0x1861 JUMP JUMPDEST SWAP3 SWAP2 POP POP JUMP JUMPDEST PUSH1 0x0 PUSH1 0x20 DUP3 DUP5 SUB SLT ISZERO PUSH2 0x22CB JUMPI PUSH2 0x22CA PUSH2 0x184D JUMP JUMPDEST JUMPDEST PUSH1 0x0 PUSH2 0x22D9 DUP5 DUP3 DUP6 ADD PUSH2 0x22A0 JUMP JUMPDEST SWAP2 POP POP SWAP3 SWAP2 POP POP JUMP JUMPDEST PUSH1 0x0 DUP2 MLOAD SWAP1 POP SWAP2 SWAP1 POP JUMP JUMPDEST PUSH1 0x0 DUP2 SWAP1 POP SWAP3 SWAP2 POP POP JUMP JUMPDEST PUSH1 0x0 JUMPDEST DUP4 DUP2 LT ISZERO PUSH2 0x2316 JUMPI DUP1 DUP3 ADD MLOAD DUP2 DUP5 ADD MSTORE PUSH1 0x20 DUP2 ADD SWAP1 POP PUSH2 0x22FB JUMP JUMPDEST DUP4 DUP2 GT ISZERO PUSH2 0x2325 JUMPI PUSH1 0x0 DUP5 DUP5 ADD MSTORE JUMPDEST POP POP POP POP JUMP JUMPDEST PUSH1 0x0 PUSH2 0x2336 DUP3 PUSH2 0x22E2 JUMP JUMPDEST PUSH2 0x2340 DUP2 DUP6 PUSH2 0x22ED JUMP JUMPDEST SWAP4 POP PUSH2 0x2350 DUP2 DUP6 PUSH1 0x20 DUP7 ADD PUSH2 0x22F8 JUMP JUMPDEST DUP1 DUP5 ADD SWAP2 POP POP SWAP3 SWAP2 POP POP JUMP JUMPDEST PUSH1 0x0 DUP2 SWAP1 POP SWAP2 SWAP1 POP JUMP JUMPDEST PUSH2 0x2377 PUSH2 0x2372 DUP3 PUSH2 0x1857 JUMP JUMPDEST PUSH2 0x235C JUMP JUMPDEST DUP3 MSTORE POP POP JUMP JUMPDEST PUSH1 0x0 DUP2 PUSH1 0xF8 SHL SWAP1 POP SWAP2 SWAP1 POP JUMP JUMPDEST PUSH1 0x0 PUSH2 0x2395 DUP3 PUSH2 0x237D JUMP JUMPDEST SWAP1 POP SWAP2 SWAP1 POP JUMP JUMPDEST PUSH2 0x23AD PUSH2 0x23A8 DUP3 PUSH2 0x1E96 JUMP JUMPDEST PUSH2 0x238A JUMP JUMPDEST DUP3 MSTORE POP POP JUMP JUMPDEST PUSH1 0x0 DUP2 PUSH1 0xE0 SHL SWAP1 POP SWAP2 SWAP1 POP JUMP JUMPDEST PUSH1 0x0 PUSH2 0x23CB DUP3 PUSH2 0x23B3 JUMP JUMPDEST SWAP1 POP SWAP2 SWAP1 POP JUMP JUMPDEST PUSH2 0x23E3 PUSH2 0x23DE DUP3 PUSH2 0x1D34 JUMP JUMPDEST PUSH2 0x23C0 JUMP JUMPDEST DUP3 MSTORE POP POP JUMP JUMPDEST PUSH1 0x0 PUSH2 0x23F5 DUP3 DUP14 PUSH2 0x232B JUMP JUMPDEST SWAP2 POP PUSH2 0x2401 DUP3 DUP13 PUSH2 0x232B JUMP JUMPDEST SWAP2 POP PUSH2 0x240D DUP3 DUP12 PUSH2 0x232B JUMP JUMPDEST SWAP2 POP PUSH2 0x2419 DUP3 DUP11 PUSH2 0x232B JUMP JUMPDEST SWAP2 POP PUSH2 0x2425 DUP3 DUP10 PUSH2 0x2366 JUMP JUMPDEST PUSH1 0x20 DUP3 ADD SWAP2 POP PUSH2 0x2435 DUP3 DUP9 PUSH2 0x239C JUMP JUMPDEST PUSH1 0x1 DUP3 ADD SWAP2 POP PUSH2 0x2445 DUP3 DUP8 PUSH2 0x23D2 JUMP JUMPDEST PUSH1 0x4 DUP3 ADD SWAP2 POP PUSH2 0x2455 DUP3 DUP7 PUSH2 0x239C JUMP JUMPDEST PUSH1 0x1 DUP3 ADD SWAP2 POP PUSH2 0x2465 DUP3 DUP6 PUSH2 0x23D2 JUMP JUMPDEST PUSH1 0x4 DUP3 ADD SWAP2 POP PUSH2 0x2475 DUP3 DUP5 PUSH2 0x2366 JUMP JUMPDEST PUSH1 0x20 DUP3 ADD SWAP2 POP DUP2 SWAP1 POP SWAP12 SWAP11 POP POP POP POP POP POP POP POP POP POP POP JUMP JUMPDEST PUSH1 0x0 PUSH2 0x2499 DUP3 DUP5 PUSH2 0x232B JUMP JUMPDEST SWAP2 POP DUP2 SWAP1 POP SWAP3 SWAP2 POP POP JUMP JUMPDEST PUSH1 0x0 DUP2 MLOAD SWAP1 POP PUSH2 0x24B3 DUP2 PUSH2 0x1A5B JUMP JUMPDEST SWAP3 SWAP2 POP POP JUMP JUMPDEST PUSH1 0x0 PUSH1 0x20 DUP3 DUP5 SUB SLT ISZERO PUSH2 0x24CF JUMPI PUSH2 0x24CE PUSH2 0x184D JUMP JUMPDEST JUMPDEST PUSH1 0x0 PUSH2 0x24DD DUP5 DUP3 DUP6 ADD PUSH2 0x24A4 JUMP JUMPDEST SWAP2 POP POP SWAP3 SWAP2 POP POP JUMP JUMPDEST PUSH1 0x0 PUSH1 0x40 DUP3 ADD SWAP1 POP PUSH2 0x24FB PUSH1 0x0 DUP4 ADD DUP6 PUSH2 0x1FD4 JUMP JUMPDEST PUSH2 0x2508 PUSH1 0x20 DUP4 ADD DUP5 PUSH2 0x18BA JUMP JUMPDEST SWAP4 SWAP3 POP POP POP JUMP JUMPDEST PUSH1 0x0 DUP3 DUP3 MSTORE PUSH1 0x20 DUP3 ADD SWAP1 POP SWAP3 SWAP2 POP POP JUMP JUMPDEST PUSH1 0x0 PUSH2 0x252B DUP3 PUSH2 0x22E2 JUMP JUMPDEST PUSH2 0x2535 DUP2 DUP6 PUSH2 0x250F JUMP JUMPDEST SWAP4 POP PUSH2 0x2545 DUP2 DUP6 PUSH1 0x20 DUP7 ADD PUSH2 0x22F8 JUMP JUMPDEST PUSH2 0x254E DUP2 PUSH2 0x1BD3 JUMP JUMPDEST DUP5 ADD SWAP2 POP POP SWAP3 SWAP2 POP POP JUMP JUMPDEST PUSH1 0x5 DUP2 LT PUSH2 0x256A JUMPI PUSH2 0x2569 PUSH2 0x1AB4 JUMP JUMPDEST JUMPDEST POP JUMP JUMPDEST PUSH1 0x0 DUP2 SWAP1 POP PUSH2 0x257B DUP3 PUSH2 0x2559 JUMP JUMPDEST SWAP2 SWAP1 POP JUMP JUMPDEST PUSH1 0x0 PUSH2 0x258B DUP3 PUSH2 0x256D JUMP JUMPDEST SWAP1 POP SWAP2 SWAP1 POP JUMP JUMPDEST PUSH2 0x259B DUP2 PUSH2 0x2580 JUMP JUMPDEST DUP3 MSTORE POP POP JUMP JUMPDEST PUSH1 0x0 PUSH2 0x160 DUP3 ADD SWAP1 POP DUP2 DUP2 SUB PUSH1 0x0 DUP4 ADD MSTORE PUSH2 0x25BC DUP2 DUP15 PUSH2 0x2520 JUMP JUMPDEST SWAP1 POP DUP2 DUP2 SUB PUSH1 0x20 DUP4 ADD MSTORE PUSH2 0x25D0 DUP2 DUP14 PUSH2 0x2520 JUMP JUMPDEST SWAP1 POP DUP2 DUP2 SUB PUSH1 0x40 DUP4 ADD MSTORE PUSH2 0x25E4 DUP2 DUP13 PUSH2 0x2520 JUMP JUMPDEST SWAP1 POP DUP2 DUP2 SUB PUSH1 0x60 DUP4 ADD MSTORE PUSH2 0x25F8 DUP2 DUP12 PUSH2 0x2520 JUMP JUMPDEST SWAP1 POP PUSH2 0x2607 PUSH1 0x80 DUP4 ADD DUP11 PUSH2 0x18BA JUMP JUMPDEST PUSH2 0x2614 PUSH1 0xA0 DUP4 ADD DUP10 PUSH2 0x18BA JUMP JUMPDEST PUSH2 0x2621 PUSH1 0xC0 DUP4 ADD DUP9 PUSH2 0x2592 JUMP JUMPDEST PUSH2 0x262E PUSH1 0xE0 DUP4 ADD DUP8 PUSH2 0x21CF JUMP JUMPDEST PUSH2 0x263C PUSH2 0x100 DUP4 ADD DUP7 PUSH2 0x2592 JUMP JUMPDEST PUSH2 0x264A PUSH2 0x120 DUP4 ADD DUP6 PUSH2 0x21CF JUMP JUMPDEST PUSH2 0x2658 PUSH2 0x140 DUP4 ADD DUP5 PUSH2 0x1B46 JUMP JUMPDEST SWAP13 SWAP12 POP POP POP POP POP POP POP POP POP POP POP POP JUMP JUMPDEST PUSH1 0x0 PUSH2 0x2673 DUP3 PUSH2 0x1D34 JUMP JUMPDEST SWAP2 POP PUSH4 0xFFFFFFFF DUP3 EQ ISZERO PUSH2 0x268A JUMPI PUSH2 0x2689 PUSH2 0x2228 JUMP JUMPDEST JUMPDEST PUSH1 0x1 DUP3 ADD SWAP1 POP SWAP2 SWAP1 POP JUMP JUMPDEST PUSH1 0x0 PUSH2 0x140 DUP3 ADD SWAP1 POP DUP2 DUP2 SUB PUSH1 0x0 DUP4 ADD MSTORE PUSH2 0x26B0 DUP2 DUP14 PUSH2 0x2520 JUMP JUMPDEST SWAP1 POP DUP2 DUP2 SUB PUSH1 0x20 DUP4 ADD MSTORE PUSH2 0x26C4 DUP2 DUP13 PUSH2 0x2520 JUMP JUMPDEST SWAP1 POP DUP2 DUP2 SUB PUSH1 0x40 DUP4 ADD MSTORE PUSH2 0x26D8 DUP2 DUP12 PUSH2 0x2520 JUMP JUMPDEST SWAP1 POP DUP2 DUP2 SUB PUSH1 0x60 DUP4 ADD MSTORE PUSH2 0x26EC DUP2 DUP11 PUSH2 0x2520 JUMP JUMPDEST SWAP1 POP PUSH2 0x26FB PUSH1 0x80 DUP4 ADD DUP10 PUSH2 0x18BA JUMP JUMPDEST PUSH2 0x2708 PUSH1 0xA0 DUP4 ADD DUP9 PUSH2 0x2592 JUMP JUMPDEST PUSH2 0x2715 PUSH1 0xC0 DUP4 ADD DUP8 PUSH2 0x21CF JUMP JUMPDEST PUSH2 0x2722 PUSH1 0xE0 DUP4 ADD DUP7 PUSH2 0x2592 JUMP JUMPDEST PUSH2 0x2730 PUSH2 0x100 DUP4 ADD DUP6 PUSH2 0x21CF JUMP JUMPDEST PUSH2 0x273E PUSH2 0x120 DUP4 ADD DUP5 PUSH2 0x1B46 JUMP JUMPDEST SWAP12 SWAP11 POP POP POP POP POP POP POP POP POP POP POP JUMP JUMPDEST PUSH1 0x0 PUSH1 0x40 DUP3 ADD SWAP1 POP PUSH2 0x2762 PUSH1 0x0 DUP4 ADD DUP6 PUSH2 0x1FD4 JUMP JUMPDEST PUSH2 0x276F PUSH1 0x20 DUP4 ADD DUP5 PUSH2 0x1B46 JUMP JUMPDEST SWAP4 SWAP3 POP POP POP JUMP JUMPDEST PUSH1 0x0 PUSH2 0x2782 DUP3 DUP10 PUSH2 0x239C JUMP JUMPDEST PUSH1 0x1 DUP3 ADD SWAP2 POP PUSH2 0x2792 DUP3 DUP9 PUSH2 0x23D2 JUMP JUMPDEST PUSH1 0x4 DUP3 ADD SWAP2 POP PUSH2 0x27A2 DUP3 DUP8 PUSH2 0x239C JUMP JUMPDEST PUSH1 0x1 DUP3 ADD SWAP2 POP PUSH2 0x27B2 DUP3 DUP7 PUSH2 0x23D2 JUMP JUMPDEST PUSH1 0x4 DUP3 ADD SWAP2 POP PUSH2 0x27C2 DUP3 DUP6 PUSH2 0x232B JUMP JUMPDEST SWAP2 POP PUSH2 0x27CE DUP3 DUP5 PUSH2 0x232B JUMP JUMPDEST SWAP2 POP DUP2 SWAP1 POP SWAP8 SWAP7 POP POP POP POP POP POP POP JUMP JUMPDEST PUSH1 0x0 PUSH2 0x27E9 DUP3 PUSH2 0x1857 JUMP JUMPDEST SWAP2 POP PUSH2 0x27F4 DUP4 PUSH2 0x1857 JUMP JUMPDEST SWAP3 POP DUP3 DUP3 LT ISZERO PUSH2 0x2807 JUMPI PUSH2 0x2806 PUSH2 0x2228 JUMP JUMPDEST JUMPDEST DUP3 DUP3 SUB SWAP1 POP SWAP3 SWAP2 POP POP JUMP JUMPDEST PUSH32 0x4E487B7100000000000000000000000000000000000000000000000000000000 PUSH1 0x0 MSTORE PUSH1 0x31 PUSH1 0x4 MSTORE PUSH1 0x24 PUSH1 0x0 REVERT INVALID LOG2 PUSH5 0x6970667358 0x22 SLT KECCAK256 PUSH9 0x668353D8B0014C015 SSTORE PUSH12 0x3F71588EEB4569633016C416 0xEC 0x1F SIGNEXTEND 0xE3 SIGNEXTEND PC GASPRICE DIFFICULTY PUSH5 0x736F6C6343 STOP ADDMOD SIGNEXTEND STOP CALLER "
		},
		"gasEstimates": {
			"creation": {
				"codeDepositCost": "2071800",
				"executionCost": "48691",
				"totalCost": "2120491"
			},
			"external": {
				"ROLE_ADMIN()": "357",
				"allowances(bytes32)": "2996",
				"approveBurnProof(bytes32)": "infinite",
				"burnAndCreateProof(address,bytes,bytes,uint256,uint8,uint32)": "infinite",
				"burnProofStorage(bytes32)": "2975",
				"chainIdToFee(uint256)": "infinite",
				"getRoleAdmin(bytes32)": "infinite",
				"getRoleMember(bytes32,uint256)": "infinite",
				"getRoleMemberCount(bytes32)": "2997",
				"grantRole(bytes32,address)": "infinite",
				"grantRolesBulk((bytes32,address)[])": "infinite",
				"hasRole(bytes32,address)": "3207",
				"mintWithBurnProof(address,bytes,bytes,uint8,uint32,bytes32,uint256,uint256)": "infinite",
				"renounceRole(bytes32,address)": "infinite",
				"revokeRole(bytes32,address)": "infinite",
				"setAllowance(address,bytes,uint8,uint32)": "infinite",
				"setChainsToFee(uint256[],uint256)": "infinite",
				"srcNonceByToken(address)": "2933",
				"supportsInterface(bytes4)": "773"
			},
			"internal": {
				"genericAddress(address)": "infinite",
				"getAllowanceHash(enum CerbyBridgeV2.ChainType,uint32,bytes memory,bytes memory)": "infinite"
			}
		},
		"methodIdentifiers": {
			"ROLE_ADMIN()": "d391014b",
			"allowances(bytes32)": "5e7c9fe8",
			"approveBurnProof(bytes32)": "fbce0b5f",
			"burnAndCreateProof(address,bytes,bytes,uint256,uint8,uint32)": "83f556e1",
			"burnProofStorage(bytes32)": "12a4868c",
			"chainIdToFee(uint256)": "012e3289",
			"getRoleAdmin(bytes32)": "248a9ca3",
			"getRoleMember(bytes32,uint256)": "9010d07c",
			"getRoleMemberCount(bytes32)": "ca15c873",
			"grantRole(bytes32,address)": "2f2ff15d",
			"grantRolesBulk((bytes32,address)[])": "03ed957f",
			"hasRole(bytes32,address)": "91d14854",
			"mintWithBurnProof(address,bytes,bytes,uint8,uint32,bytes32,uint256,uint256)": "efb96ed3",
			"renounceRole(bytes32,address)": "36568abe",
			"revokeRole(bytes32,address)": "d547741f",
			"setAllowance(address,bytes,uint8,uint32)": "2ac73a1f",
			"setChainsToFee(uint256[],uint256)": "c957c6e5",
			"srcNonceByToken(address)": "fb6465a0",
			"supportsInterface(bytes4)": "01ffc9a7"
		}
	},
	"abi": [
		{
			"inputs": [],
			"stateMutability": "nonpayable",
			"type": "constructor"
		},
		{
			"inputs": [
				{
					"internalType": "address",
					"name": "account",
					"type": "address"
				},
				{
					"internalType": "bytes32",
					"name": "role",
					"type": "bytes32"
				}
			],
			"name": "AccountIsMissingRole",
			"type": "error"
		},
		{
			"inputs": [],
			"name": "CanOnlyRenounceRoleForSelf",
			"type": "error"
		},
		{
			"inputs": [],
			"name": "CerbyBridgeV2_AlreadyApproved",
			"type": "error"
		},
		{
			"inputs": [],
			"name": "CerbyBridgeV2_AmountMustNotExceedAvailableBalance",
			"type": "error"
		},
		{
			"inputs": [],
			"name": "CerbyBridgeV2_DirectionAllowanceWasNotFound",
			"type": "error"
		},
		{
			"inputs": [],
			"name": "CerbyBridgeV2_InvalidDestinationCallerLength",
			"type": "error"
		},
		{
			"inputs": [],
			"name": "CerbyBridgeV2_InvalidDestinationTokenLength",
			"type": "error"
		},
		{
			"inputs": [],
			"name": "CerbyBridgeV2_InvalidPackageLength",
			"type": "error"
		},
		{
			"inputs": [],
			"name": "CerbyBridgeV2_ProofIsNotApprovedOrAlreadyExecuted",
			"type": "error"
		},
		{
			"inputs": [],
			"name": "CerbyBridgeV2_ProvidedHashIsInvalid",
			"type": "error"
		},
		{
			"anonymous": false,
			"inputs": [
				{
					"indexed": false,
					"internalType": "bytes32",
					"name": "burnProofHash",
					"type": "bytes32"
				}
			],
			"name": "ApprovedBurnProof",
			"type": "event"
		},
		{
			"anonymous": false,
			"inputs": [
				{
					"indexed": false,
					"internalType": "bytes",
					"name": "srcToken",
					"type": "bytes"
				},
				{
					"indexed": false,
					"internalType": "bytes",
					"name": "destToken",
					"type": "bytes"
				},
				{
					"indexed": false,
					"internalType": "bytes",
					"name": "srcCaller",
					"type": "bytes"
				},
				{
					"indexed": false,
					"internalType": "bytes",
					"name": "destCaller",
					"type": "bytes"
				},
				{
					"indexed": false,
					"internalType": "uint256",
					"name": "srcAmount",
					"type": "uint256"
				},
				{
					"indexed": false,
					"internalType": "uint256",
					"name": "srcNonce",
					"type": "uint256"
				},
				{
					"indexed": false,
					"internalType": "enum CerbyBridgeV2.ChainType",
					"name": "srcChainType",
					"type": "uint8"
				},
				{
					"indexed": false,
					"internalType": "uint32",
					"name": "srcChainId",
					"type": "uint32"
				},
				{
					"indexed": false,
					"internalType": "enum CerbyBridgeV2.ChainType",
					"name": "destChainType",
					"type": "uint8"
				},
				{
					"indexed": false,
					"internalType": "uint32",
					"name": "destChainId",
					"type": "uint32"
				},
				{
					"indexed": false,
					"internalType": "bytes32",
					"name": "burnProofHash",
					"type": "bytes32"
				}
			],
			"name": "ProofOfBurn",
			"type": "event"
		},
		{
			"anonymous": false,
			"inputs": [
				{
					"indexed": false,
					"internalType": "bytes",
					"name": "srcToken",
					"type": "bytes"
				},
				{
					"indexed": false,
					"internalType": "bytes",
					"name": "destToken",
					"type": "bytes"
				},
				{
					"indexed": false,
					"internalType": "bytes",
					"name": "srcCaller",
					"type": "bytes"
				},
				{
					"indexed": false,
					"internalType": "bytes",
					"name": "destCaller",
					"type": "bytes"
				},
				{
					"indexed": false,
					"internalType": "uint256",
					"name": "destAmount",
					"type": "uint256"
				},
				{
					"indexed": false,
					"internalType": "enum CerbyBridgeV2.ChainType",
					"name": "srcChainType",
					"type": "uint8"
				},
				{
					"indexed": false,
					"internalType": "uint32",
					"name": "srcChainId",
					"type": "uint32"
				},
				{
					"indexed": false,
					"internalType": "enum CerbyBridgeV2.ChainType",
					"name": "destChainType",
					"type": "uint8"
				},
				{
					"indexed": false,
					"internalType": "uint32",
					"name": "destChainId",
					"type": "uint32"
				},
				{
					"indexed": false,
					"internalType": "bytes32",
					"name": "burnProofHash",
					"type": "bytes32"
				}
			],
			"name": "ProofOfMint",
			"type": "event"
		},
		{
			"anonymous": false,
			"inputs": [
				{
					"indexed": true,
					"internalType": "bytes32",
					"name": "role",
					"type": "bytes32"
				},
				{
					"indexed": true,
					"internalType": "bytes32",
					"name": "previousAdminRole",
					"type": "bytes32"
				},
				{
					"indexed": true,
					"internalType": "bytes32",
					"name": "newAdminRole",
					"type": "bytes32"
				}
			],
			"name": "RoleAdminChanged",
			"type": "event"
		},
		{
			"anonymous": false,
			"inputs": [
				{
					"indexed": true,
					"internalType": "bytes32",
					"name": "role",
					"type": "bytes32"
				},
				{
					"indexed": true,
					"internalType": "address",
					"name": "account",
					"type": "address"
				},
				{
					"indexed": true,
					"internalType": "address",
					"name": "sender",
					"type": "address"
				}
			],
			"name": "RoleGranted",
			"type": "event"
		},
		{
			"anonymous": false,
			"inputs": [
				{
					"indexed": true,
					"internalType": "bytes32",
					"name": "role",
					"type": "bytes32"
				},
				{
					"indexed": true,
					"internalType": "address",
					"name": "account",
					"type": "address"
				},
				{
					"indexed": true,
					"internalType": "address",
					"name": "sender",
					"type": "address"
				}
			],
			"name": "RoleRevoked",
			"type": "event"
		},
		{
			"inputs": [],
			"name": "ROLE_ADMIN",
			"outputs": [
				{
					"internalType": "bytes32",
					"name": "",
					"type": "bytes32"
				}
			],
			"stateMutability": "view",
			"type": "function"
		},
		{
			"inputs": [
				{
					"internalType": "bytes32",
					"name": "",
					"type": "bytes32"
				}
			],
			"name": "allowances",
			"outputs": [
				{
					"internalType": "enum CerbyBridgeV2.Allowance",
					"name": "",
					"type": "uint8"
				}
			],
			"stateMutability": "view",
			"type": "function"
		},
		{
			"inputs": [
				{
					"internalType": "bytes32",
					"name": "proofHash",
					"type": "bytes32"
				}
			],
			"name": "approveBurnProof",
			"outputs": [],
			"stateMutability": "nonpayable",
			"type": "function"
		},
		{
			"inputs": [
				{
					"internalType": "address",
					"name": "_srcToken",
					"type": "address"
				},
				{
					"internalType": "bytes",
					"name": "destToken",
					"type": "bytes"
				},
				{
					"internalType": "bytes",
					"name": "destCaller",
					"type": "bytes"
				},
				{
					"internalType": "uint256",
					"name": "srcAmount",
					"type": "uint256"
				},
				{
					"internalType": "uint8",
					"name": "destChainType",
					"type": "uint8"
				},
				{
					"internalType": "uint32",
					"name": "destChainId",
					"type": "uint32"
				}
			],
			"name": "burnAndCreateProof",
			"outputs": [],
			"stateMutability": "nonpayable",
			"type": "function"
		},
		{
			"inputs": [
				{
					"internalType": "bytes32",
					"name": "",
					"type": "bytes32"
				}
			],
			"name": "burnProofStorage",
			"outputs": [
				{
					"internalType": "enum CerbyBridgeV2.States",
					"name": "",
					"type": "uint8"
				}
			],
			"stateMutability": "view",
			"type": "function"
		},
		{
			"inputs": [
				{
					"internalType": "uint256",
					"name": "",
					"type": "uint256"
				}
			],
			"name": "chainIdToFee",
			"outputs": [
				{
					"internalType": "uint256",
					"name": "",
					"type": "uint256"
				}
			],
			"stateMutability": "view",
			"type": "function"
		},
		{
			"inputs": [
				{
					"internalType": "bytes32",
					"name": "role",
					"type": "bytes32"
				}
			],
			"name": "getRoleAdmin",
			"outputs": [
				{
					"internalType": "bytes32",
					"name": "",
					"type": "bytes32"
				}
			],
			"stateMutability": "view",
			"type": "function"
		},
		{
			"inputs": [
				{
					"internalType": "bytes32",
					"name": "role",
					"type": "bytes32"
				},
				{
					"internalType": "uint256",
					"name": "index",
					"type": "uint256"
				}
			],
			"name": "getRoleMember",
			"outputs": [
				{
					"internalType": "address",
					"name": "",
					"type": "address"
				}
			],
			"stateMutability": "view",
			"type": "function"
		},
		{
			"inputs": [
				{
					"internalType": "bytes32",
					"name": "role",
					"type": "bytes32"
				}
			],
			"name": "getRoleMemberCount",
			"outputs": [
				{
					"internalType": "uint256",
					"name": "",
					"type": "uint256"
				}
			],
			"stateMutability": "view",
			"type": "function"
		},
		{
			"inputs": [
				{
					"internalType": "bytes32",
					"name": "role",
					"type": "bytes32"
				},
				{
					"internalType": "address",
					"name": "account",
					"type": "address"
				}
			],
			"name": "grantRole",
			"outputs": [],
			"stateMutability": "nonpayable",
			"type": "function"
		},
		{
			"inputs": [
				{
					"components": [
						{
							"internalType": "bytes32",
							"name": "role",
							"type": "bytes32"
						},
						{
							"internalType": "address",
							"name": "addr",
							"type": "address"
						}
					],
					"internalType": "struct RoleAccess[]",
					"name": "roles",
					"type": "tuple[]"
				}
			],
			"name": "grantRolesBulk",
			"outputs": [],
			"stateMutability": "nonpayable",
			"type": "function"
		},
		{
			"inputs": [
				{
					"internalType": "bytes32",
					"name": "role",
					"type": "bytes32"
				},
				{
					"internalType": "address",
					"name": "account",
					"type": "address"
				}
			],
			"name": "hasRole",
			"outputs": [
				{
					"internalType": "bool",
					"name": "",
					"type": "bool"
				}
			],
			"stateMutability": "view",
			"type": "function"
		},
		{
			"inputs": [
				{
					"internalType": "address",
					"name": "_srcToken",
					"type": "address"
				},
				{
					"internalType": "bytes",
					"name": "destToken",
					"type": "bytes"
				},
				{
					"internalType": "bytes",
					"name": "destCaller",
					"type": "bytes"
				},
				{
					"internalType": "uint8",
					"name": "destChainType",
					"type": "uint8"
				},
				{
					"internalType": "uint32",
					"name": "destChainId",
					"type": "uint32"
				},
				{
					"internalType": "bytes32",
					"name": "destBurnProofHash",
					"type": "bytes32"
				},
				{
					"internalType": "uint256",
					"name": "destAmount",
					"type": "uint256"
				},
				{
					"internalType": "uint256",
					"name": "srcNonce",
					"type": "uint256"
				}
			],
			"name": "mintWithBurnProof",
			"outputs": [],
			"stateMutability": "nonpayable",
			"type": "function"
		},
		{
			"inputs": [
				{
					"internalType": "bytes32",
					"name": "role",
					"type": "bytes32"
				},
				{
					"internalType": "address",
					"name": "account",
					"type": "address"
				}
			],
			"name": "renounceRole",
			"outputs": [],
			"stateMutability": "nonpayable",
			"type": "function"
		},
		{
			"inputs": [
				{
					"internalType": "bytes32",
					"name": "role",
					"type": "bytes32"
				},
				{
					"internalType": "address",
					"name": "account",
					"type": "address"
				}
			],
			"name": "revokeRole",
			"outputs": [],
			"stateMutability": "nonpayable",
			"type": "function"
		},
		{
			"inputs": [
				{
					"internalType": "address",
					"name": "srcToken",
					"type": "address"
				},
				{
					"internalType": "bytes",
					"name": "destToken",
					"type": "bytes"
				},
				{
					"internalType": "enum CerbyBridgeV2.ChainType",
					"name": "destChainType",
					"type": "uint8"
				},
				{
					"internalType": "uint32",
					"name": "destChainId",
					"type": "uint32"
				}
			],
			"name": "setAllowance",
			"outputs": [],
			"stateMutability": "nonpayable",
			"type": "function"
		},
		{
			"inputs": [
				{
					"internalType": "uint256[]",
					"name": "chainIds",
					"type": "uint256[]"
				},
				{
					"internalType": "uint256",
					"name": "fee",
					"type": "uint256"
				}
			],
			"name": "setChainsToFee",
			"outputs": [],
			"stateMutability": "nonpayable",
			"type": "function"
		},
		{
			"inputs": [
				{
					"internalType": "address",
					"name": "",
					"type": "address"
				}
			],
			"name": "srcNonceByToken",
			"outputs": [
				{
					"internalType": "uint32",
					"name": "",
					"type": "uint32"
				}
			],
			"stateMutability": "view",
			"type": "function"
		},
		{
			"inputs": [
				{
					"internalType": "bytes4",
					"name": "interfaceId",
					"type": "bytes4"
				}
			],
			"name": "supportsInterface",
			"outputs": [
				{
					"internalType": "bool",
					"name": "",
					"type": "bool"
				}
			],
			"stateMutability": "view",
			"type": "function"
		}
	]
}