{
	"data": {
		"bytecode": {
			"linkReferences": {},
			"object": "60806040523480156200001157600080fd5b506200001f600033620002d5565b620000406000731ee133d3cc3fd5795dd4014579a36a6b7900102e620002d5565b62000061731ee133d3cc3fd5795dd4014579a36a6b7900102e600162000318565b62000082600073def1fafc79cd01cf6797b9d7f51411bef486262a620002d5565b620000a36000731d2900622b5049d9479dc8be06469a4ede3fc96e620002d5565b620000c46000739980a0447456b5cdce209d7dc94820ff15600022620002d5565b620000e373c25e850f6cede52809014d4eecca402eb47bdc2862000352565b6200010473def1fafc79cd01cf6797b9d7f51411bef486262a600162000318565b6200012573def78a28c78a461598d948bc0c689ce88f812ad8600162000318565b6200014673def1c0ded9bec7f1a1670819833240f027b25eff600162000318565b620001677311111112542d85b3ef69ae05771c2dccff4faa26600162000318565b620001887327239549dd40e1d60f5b80b0c4196923745b1fd2600162000318565b620001a973def1fae3a7713173c168945b8704d4600b6fc7b9600162000318565b620001ca73def1fac7bf08f173d286bbbdcbeeade695129840600162000318565b620001eb73881d40237659c251811cec9c364ef91dc08d300c600162000318565b6200020c7374de5d4fcbf63e00296fd95d33236b9794016631600162000318565b6200022d73e122d2e14d35d794c977b4d6924232cae7c8dbb5600162000318565b60014614156200027f5762000258737a250d5630b4cf539739df2c5dacb4c659f2488d600162000318565b6200027973e592427a0aece92de3edee1f18e0157c05861564600162000318565b620008cf565b6038461415620002aa57620002797310ed43c718714eb63d5aa57b78b54704e256024e600162000318565b608946141562000279576200027973a5e0829caced8ffdd4de3c43696c57f7d7a678ff600162000318565b620002ec8282620003df60201b62000eda1760201c565b60008281526001602090815260409091206200031391839062000ee8620003ef821b17901c565b505050565b60006200032681336200040f565b506001600160a01b03919091166000908152600360205260409020805460ff1916911515919091179055565b60006200036081336200040f565b6001600160a01b03821660009081526002602052604090205460ff1615620003ba5760405162461bcd60e51b815260206004820152600860248201526710d0910e88189bdd60c21b60448201526064015b60405180910390fd5b506001600160a01b03166000908152600260205260409020805460ff19166001179055565b620003eb8282620004aa565b5050565b600062000406836001600160a01b0384166200054a565b90505b92915050565b6000828152602081815260408083206001600160a01b038516845290915290205460ff16620003eb5762000459816001600160a01b031660146200059c60201b62000efd1760201c565b6200046f83602062000efd6200059c821b17811c565b6040516020016200048292919062000788565b60408051601f198184030181529082905262461bcd60e51b8252620003b19160040162000801565b6000828152602081815260408083206001600160a01b038516845290915290205460ff16620003eb576000828152602081815260408083206001600160a01b03851684529091529020805460ff19166001179055620005063390565b6001600160a01b0316816001600160a01b0316837f2f8788117e7eff1d82e926ec794901d17c78024a50270940304540a733656f0d60405160405180910390a45050565b6000818152600183016020526040812054620005935750815460018181018455600084815260208082209093018490558454848252828601909352604090209190915562000409565b50600062000409565b60606000620005ad8360026200084c565b620005ba9060026200086e565b6001600160401b03811115620005d457620005d462000889565b6040519080825280601f01601f191660200182016040528015620005ff576020820181803683370190505b509050600360fc1b816000815181106200061d576200061d6200089f565b60200101906001600160f81b031916908160001a905350600f60fb1b816001815181106200064f576200064f6200089f565b60200101906001600160f81b031916908160001a9053506000620006758460026200084c565b620006829060016200086e565b90505b600181111562000704576f181899199a1a9b1b9c1cb0b131b232b360811b85600f1660108110620006ba57620006ba6200089f565b1a60f81b828281518110620006d357620006d36200089f565b60200101906001600160f81b031916908160001a90535060049490941c93620006fc81620008b5565b905062000685565b508315620004065760405162461bcd60e51b815260206004820181905260248201527f537472696e67733a20686578206c656e67746820696e73756666696369656e746044820152606401620003b1565b60005b838110156200077257818101518382015260200162000758565b8381111562000782576000848401525b50505050565b7f416363657373436f6e74726f6c3a206163636f756e7420000000000000000000815260008351620007c281601785016020880162000755565b7001034b99036b4b9b9b4b733903937b6329607d1b6017918401918201528351620007f581602884016020880162000755565b01602801949350505050565b60208152600082518060208401526200082281604085016020870162000755565b601f01601f19169190910160400192915050565b634e487b7160e01b600052601160045260246000fd5b600081600019048311821515161562000869576200086962000836565b500290565b6000821982111562000884576200088462000836565b500190565b634e487b7160e01b600052604160045260246000fd5b634e487b7160e01b600052603260045260246000fd5b600081620008c757620008c762000836565b506000190190565b611bd780620008df6000396000f3fe608060405234801561001057600080fd5b50600436106101c45760003560e01c80637d7e0d2b116100f9578063ca15c87311610097578063db8aa53811610071578063db8aa538146103ff578063e53fd77514610412578063eaa8f7e314610425578063ed0b84761461043857600080fd5b8063ca15c873146103d1578063d391014b146103e4578063d547741f146103ec57600080fd5b80639cece12e116100d35780639cece12e14610385578063a8798ffc14610398578063a9a48824146103ab578063bb92e42c146103be57600080fd5b80637d7e0d2b146103155780639010d07c1461034757806391d148541461037257600080fd5b80632f2ff15d11610166578063404a8cca11610140578063404a8cca146102c9578063441c62a8146102dc5780635f242323146102ef5780636a930a951461030257600080fd5b80632f2ff15d1461029057806336568abe146102a3578063391bc2e5146102b657600080fd5b80631fd413f8116101a25780631fd413f8146102195780632231cac214610239578063231683ae1461024c578063248a9ca31461025f57600080fd5b806301ffc9a7146101c957806303ed957f146101f15780631093baa914610206575b600080fd5b6101dc6101d736600461157b565b61044b565b60405190151581526020015b60405180910390f35b6102046101ff3660046115a5565b610476565b005b610204610214366004611636565b6104f3565b61022c610227366004611667565b61057d565b6040516101e8919061172c565b610204610247366004611779565b610627565b61020461025a3660046117b3565b610650565b61028261026d3660046117e6565b60009081526020819052604090206001015490565b6040519081526020016101e8565b61020461029e3660046117ff565b610688565b6102046102b13660046117ff565b6106af565b6102826102c4366004611822565b6106d1565b6102046102d7366004611898565b61070b565b61022c6102ea366004611667565b61078f565b6101dc6102fd366004611636565b610831565b6102046103103660046118ec565b61085e565b61032861032336600461192e565b610929565b60408051825115158152602092830151151592810192909252016101e8565b61035a610355366004611968565b610be3565b6040516001600160a01b0390911681526020016101e8565b6101dc6103803660046117ff565b610c02565b610282610393366004611636565b610c2b565b6102046103a6366004611898565b610c55565b6102046103b9366004611636565b610cd2565b6102046103cc36600461198a565b610d54565b6102826103df3660046117e6565b610dc3565b610282600081565b6102046103fa3660046117ff565b610dda565b6101dc61040d366004611636565b610de4565b610282610420366004611636565b610e11565b6101dc610433366004611636565b610e60565b610204610446366004611779565b610eb1565b60006001600160e01b03198216635a05180f60e01b1480610470575061047082611099565b92915050565b600061048281336110ce565b60005b828110156104ed576104db8484838181106104a2576104a26119d6565b905060400201600001358585848181106104be576104be6119d6565b90506040020160200160208101906104d69190611636565b611132565b806104e581611a02565b915050610485565b50505050565b60006104ff81336110ce565b6001600160a01b03821660009081526002602052604090205460ff16156105585760405162461bcd60e51b815260206004820152600860248201526710d0910e88189bdd60c21b60448201526064015b60405180910390fd5b506001600160a01b03166000908152600260205260409020805460ff19166001179055565b6060600061058b81336110ce565b60005b835181101561061f57600360008583815181106105ad576105ad6119d6565b6020908102919091018101516001600160a01b031682528101919091526040016000205460ff1661060d5760008482815181106105ec576105ec6119d6565b60200260200101906001600160a01b031690816001600160a01b0316815250505b8061061781611a02565b91505061058e565b509192915050565b600061063381336110ce565b506001600160a01b03909116600090815260066020526040902055565b600061065c81336110ce565b506001600160a01b03919091166000908152600360205260409020805460ff1916911515919091179055565b610692828261113c565b60008281526001602052604090206106aa9082610ee8565b505050565b6106b98282611152565b60008281526001602052604090206106aa90826111cc565b6000806106de81336110ce565b50506001600160a01b03918216600090815260056020908152604080832093909416825291909152205490565b600061071781336110ce565b60005b83811015610788578260026000878785818110610739576107396119d6565b905060200201602081019061074e9190611636565b6001600160a01b031681526020810191909152604001600020805460ff19169115159190911790558061078081611a02565b91505061071a565b5050505050565b6060600061079d81336110ce565b60005b835181101561061f57600260008583815181106107bf576107bf6119d6565b6020908102919091018101516001600160a01b031682528101919091526040016000205460ff1661081f5760008482815181106107fe576107fe6119d6565b60200260200101906001600160a01b031690816001600160a01b0316815250505b8061082981611a02565b9150506107a0565b60008061083e81336110ce565b50506001600160a01b031660009081526002602052604090205460ff1690565b600061086a81336110ce565b60005b828110156104ed576002600085858481811061088b5761088b6119d6565b90506020020160208101906108a09190611636565b6001600160a01b0316815260208101919091526040016000205460ff16610917576001600260008686858181106108d9576108d96119d6565b90506020020160208101906108ee9190611636565b6001600160a01b031681526020810191909152604001600020805460ff19169115159190911790555b8061092181611a02565b91505061086d565b6040805180820190915260008082526020820152600061094981336110ce565b610952836111e1565b15156020830152610962846111e1565b151582526001600160a01b03851660009081526004602052604081205461098b5761012c6109a5565b6001600160a01b0386166000908152600460205260409020545b835190915080156109b857508260200151155b80156109cd5750326001600160a01b03851614155b80156109d85750833b155b80156109fd57506001600160a01b03841660009081526003602052604090205460ff16155b8015610a7557506040516370a0823160e01b81526001600160a01b038581166004830152600191908816906370a0823190602401602060405180830381865afa158015610a4e573d6000803e3d6000fd5b505050506040513d601f19601f82011682018060405250810190610a729190611a1d565b11155b15610aa2576001600160a01b0384166000908152600260205260409020805460ff19166001179055610bb2565b6001600160a01b03851660009081526003602052604090205460ff16158015610aca57508251155b8015610b575750843b151580610af857506001600160a01b03851660009081526002602052604090205460ff165b80610b1b57506fffffffffffffffffffffffffffffffff6001600160a01b038616105b80610b5757506001600160a01b038087166000908152600560209081526040808320938916835292905220544290610b54908390611a36565b10155b15610bb25760405162461bcd60e51b815260206004820152602560248201527f4342443a205472616e7366657273206172652074656d706f726172792064697360448201526418589b195960da1b606482015260840161054f565b506001600160a01b038086166000908152600560209081526040808320938716835292905220429055509392505050565b6000828152600160205260408120610bfb90836112ea565b9392505050565b6000918252602082815260408084206001600160a01b0393909316845291905290205460ff1690565b600080610c3881336110ce565b50506001600160a01b031660009081526006602052604090205490565b6000610c6181336110ce565b60005b83811015610788578260036000878785818110610c8357610c836119d6565b9050602002016020810190610c989190611636565b6001600160a01b031681526020810191909152604001600020805460ff191691151591909117905580610cca81611a02565b915050610c64565b6000610cde81336110ce565b6001600160a01b03821660009081526002602052604090205460ff16610d325760405162461bcd60e51b815260206004820152600960248201526810d0910e8808589bdd60ba1b604482015260640161054f565b506001600160a01b03166000908152600260205260409020805460ff19169055565b6000610d6081336110ce565b60005b83811015610788578260066000878785818110610d8257610d826119d6565b9050602002016020810190610d979190611636565b6001600160a01b0316815260208101919091526040016000205580610dbb81611a02565b915050610d63565b6000818152600160205260408120610470906112f6565b6106b98282611300565b600080610df181336110ce565b50506001600160a01b031660009081526003602052604090205460ff1690565b600080610e1e81336110ce565b6001600160a01b038316600090815260046020526040902054610e435761012c610bfb565b50506001600160a01b031660009081526004602052604090205490565b600080610e6d81336110ce565b6001600160a01b03831660009081526002602052604090205460ff168015610bfb575050506001600160a01b031660009081526003602052604090205460ff161590565b6000610ebd81336110ce565b506001600160a01b03909116600090815260046020526040902055565b610ee48282611326565b5050565b6000610bfb836001600160a01b0384166113aa565b60606000610f0c836002611a4e565b610f17906002611a36565b67ffffffffffffffff811115610f2f57610f2f611651565b6040519080825280601f01601f191660200182016040528015610f59576020820181803683370190505b509050600360fc1b81600081518110610f7457610f746119d6565b60200101906001600160f81b031916908160001a905350600f60fb1b81600181518110610fa357610fa36119d6565b60200101906001600160f81b031916908160001a9053506000610fc7846002611a4e565b610fd2906001611a36565b90505b600181111561104a576f181899199a1a9b1b9c1cb0b131b232b360811b85600f1660108110611006576110066119d6565b1a60f81b82828151811061101c5761101c6119d6565b60200101906001600160f81b031916908160001a90535060049490941c9361104381611a6d565b9050610fd5565b508315610bfb5760405162461bcd60e51b815260206004820181905260248201527f537472696e67733a20686578206c656e67746820696e73756666696369656e74604482015260640161054f565b60006001600160e01b03198216637965db0b60e01b148061047057506301ffc9a760e01b6001600160e01b0319831614610470565b6110d88282610c02565b610ee4576110f0816001600160a01b03166014610efd565b6110fb836020610efd565b60405160200161110c929190611ab0565b60408051601f198184030181529082905262461bcd60e51b825261054f91600401611b25565b6106928282610eda565b600061114881336110ce565b6106aa8383611326565b6001600160a01b03811633146111c25760405162461bcd60e51b815260206004820152602f60248201527f416363657373436f6e74726f6c3a2063616e206f6e6c792072656e6f756e636560448201526e103937b632b9903337b91039b2b63360891b606482015260840161054f565b610ee482826113f9565b6000610bfb836001600160a01b03841661145e565b6001600160a01b0381166000908152600660205260408120546112cb5760408051600481526024810182526020810180516001600160e01b031663d21220a760e01b17905290516001600160a01b0384169061123e908390611b58565b600060405180830381855afa9150503d8060008114611279576040519150601f19603f3d011682016040523d82523d6000602084013e61127e565b606091505b5080519092501590506112ac576001600160a01b0383166000908152600660205260409020600190556112c9565b6001600160a01b0383166000908152600660205260409020600290555b505b506001600160a01b031660009081526006602052604090205460011490565b6000610bfb8383611551565b6000610470825490565b60008281526020819052604090206001015461131c81336110ce565b6106aa83836113f9565b6113308282610c02565b610ee4576000828152602081815260408083206001600160a01b03851684529091529020805460ff191660011790556113663390565b6001600160a01b0316816001600160a01b0316837f2f8788117e7eff1d82e926ec794901d17c78024a50270940304540a733656f0d60405160405180910390a45050565b60008181526001830160205260408120546113f157508154600181810184556000848152602080822090930184905584548482528286019093526040902091909155610470565b506000610470565b6114038282610c02565b15610ee4576000828152602081815260408083206001600160a01b0385168085529252808320805460ff1916905551339285917ff6391f5c32d9c69d2a47ea670b442974b53935d1edc7fd64eb21e047a839171b9190a45050565b60008181526001830160205260408120548015611547576000611482600183611b74565b855490915060009061149690600190611b74565b90508181146114fb5760008660000182815481106114b6576114b66119d6565b90600052602060002001549050808760000184815481106114d9576114d96119d6565b6000918252602080832090910192909255918252600188019052604090208390555b855486908061150c5761150c611b8b565b600190038181906000526020600020016000905590558560010160008681526020019081526020016000206000905560019350505050610470565b6000915050610470565b6000826000018281548110611568576115686119d6565b9060005260206000200154905092915050565b60006020828403121561158d57600080fd5b81356001600160e01b031981168114610bfb57600080fd5b600080602083850312156115b857600080fd5b823567ffffffffffffffff808211156115d057600080fd5b818501915085601f8301126115e457600080fd5b8135818111156115f357600080fd5b8660208260061b850101111561160857600080fd5b60209290920196919550909350505050565b80356001600160a01b038116811461163157600080fd5b919050565b60006020828403121561164857600080fd5b610bfb8261161a565b634e487b7160e01b600052604160045260246000fd5b6000602080838503121561167a57600080fd5b823567ffffffffffffffff8082111561169257600080fd5b818501915085601f8301126116a657600080fd5b8135818111156116b8576116b8611651565b8060051b604051601f19603f830116810181811085821117156116dd576116dd611651565b6040529182528482019250838101850191888311156116fb57600080fd5b938501935b82851015611720576117118561161a565b84529385019392850192611700565b98975050505050505050565b6020808252825182820181905260009190848201906040850190845b8181101561176d5783516001600160a01b031683529284019291840191600101611748565b50909695505050505050565b6000806040838503121561178c57600080fd5b6117958361161a565b946020939093013593505050565b8035801515811461163157600080fd5b600080604083850312156117c657600080fd5b6117cf8361161a565b91506117dd602084016117a3565b90509250929050565b6000602082840312156117f857600080fd5b5035919050565b6000806040838503121561181257600080fd5b823591506117dd6020840161161a565b6000806040838503121561183557600080fd5b61183e8361161a565b91506117dd6020840161161a565b60008083601f84011261185e57600080fd5b50813567ffffffffffffffff81111561187657600080fd5b6020830191508360208260051b850101111561189157600080fd5b9250929050565b6000806000604084860312156118ad57600080fd5b833567ffffffffffffffff8111156118c457600080fd5b6118d08682870161184c565b90945092506118e39050602085016117a3565b90509250925092565b600080602083850312156118ff57600080fd5b823567ffffffffffffffff81111561191657600080fd5b6119228582860161184c565b90969095509350505050565b60008060006060848603121561194357600080fd5b61194c8461161a565b925061195a6020850161161a565b91506118e36040850161161a565b6000806040838503121561197b57600080fd5b50508035926020909101359150565b60008060006040848603121561199f57600080fd5b833567ffffffffffffffff8111156119b657600080fd5b6119c28682870161184c565b909790965060209590950135949350505050565b634e487b7160e01b600052603260045260246000fd5b634e487b7160e01b600052601160045260246000fd5b6000600019821415611a1657611a166119ec565b5060010190565b600060208284031215611a2f57600080fd5b5051919050565b60008219821115611a4957611a496119ec565b500190565b6000816000190483118215151615611a6857611a686119ec565b500290565b600081611a7c57611a7c6119ec565b506000190190565b60005b83811015611a9f578181015183820152602001611a87565b838111156104ed5750506000910152565b7f416363657373436f6e74726f6c3a206163636f756e7420000000000000000000815260008351611ae8816017850160208801611a84565b7001034b99036b4b9b9b4b733903937b6329607d1b6017918401918201528351611b19816028840160208801611a84565b01602801949350505050565b6020815260008251806020840152611b44816040850160208701611a84565b601f01601f19169190910160400192915050565b60008251611b6a818460208701611a84565b9190910192915050565b600082821015611b8657611b866119ec565b500390565b634e487b7160e01b600052603160045260246000fdfea264697066735822122001626101ea345687c571c5542069575d58b2d523b04ff5b5b9bd468f028a109364736f6c634300080a0033",
			"opcodes": "PUSH1 0x80 PUSH1 0x40 MSTORE CALLVALUE DUP1 ISZERO PUSH3 0x11 JUMPI PUSH1 0x0 DUP1 REVERT JUMPDEST POP PUSH3 0x1F PUSH1 0x0 CALLER PUSH3 0x2D5 JUMP JUMPDEST PUSH3 0x40 PUSH1 0x0 PUSH20 0x1EE133D3CC3FD5795DD4014579A36A6B7900102E PUSH3 0x2D5 JUMP JUMPDEST PUSH3 0x61 PUSH20 0x1EE133D3CC3FD5795DD4014579A36A6B7900102E PUSH1 0x1 PUSH3 0x318 JUMP JUMPDEST PUSH3 0x82 PUSH1 0x0 PUSH20 0xDEF1FAFC79CD01CF6797B9D7F51411BEF486262A PUSH3 0x2D5 JUMP JUMPDEST PUSH3 0xA3 PUSH1 0x0 PUSH20 0x1D2900622B5049D9479DC8BE06469A4EDE3FC96E PUSH3 0x2D5 JUMP JUMPDEST PUSH3 0xC4 PUSH1 0x0 PUSH20 0x9980A0447456B5CDCE209D7DC94820FF15600022 PUSH3 0x2D5 JUMP JUMPDEST PUSH3 0xE3 PUSH20 0xC25E850F6CEDE52809014D4EECCA402EB47BDC28 PUSH3 0x352 JUMP JUMPDEST PUSH3 0x104 PUSH20 0xDEF1FAFC79CD01CF6797B9D7F51411BEF486262A PUSH1 0x1 PUSH3 0x318 JUMP JUMPDEST PUSH3 0x125 PUSH20 0xDEF78A28C78A461598D948BC0C689CE88F812AD8 PUSH1 0x1 PUSH3 0x318 JUMP JUMPDEST PUSH3 0x146 PUSH20 0xDEF1C0DED9BEC7F1A1670819833240F027B25EFF PUSH1 0x1 PUSH3 0x318 JUMP JUMPDEST PUSH3 0x167 PUSH20 0x11111112542D85B3EF69AE05771C2DCCFF4FAA26 PUSH1 0x1 PUSH3 0x318 JUMP JUMPDEST PUSH3 0x188 PUSH20 0x27239549DD40E1D60F5B80B0C4196923745B1FD2 PUSH1 0x1 PUSH3 0x318 JUMP JUMPDEST PUSH3 0x1A9 PUSH20 0xDEF1FAE3A7713173C168945B8704D4600B6FC7B9 PUSH1 0x1 PUSH3 0x318 JUMP JUMPDEST PUSH3 0x1CA PUSH20 0xDEF1FAC7BF08F173D286BBBDCBEEADE695129840 PUSH1 0x1 PUSH3 0x318 JUMP JUMPDEST PUSH3 0x1EB PUSH20 0x881D40237659C251811CEC9C364EF91DC08D300C PUSH1 0x1 PUSH3 0x318 JUMP JUMPDEST PUSH3 0x20C PUSH20 0x74DE5D4FCBF63E00296FD95D33236B9794016631 PUSH1 0x1 PUSH3 0x318 JUMP JUMPDEST PUSH3 0x22D PUSH20 0xE122D2E14D35D794C977B4D6924232CAE7C8DBB5 PUSH1 0x1 PUSH3 0x318 JUMP JUMPDEST PUSH1 0x1 CHAINID EQ ISZERO PUSH3 0x27F JUMPI PUSH3 0x258 PUSH20 0x7A250D5630B4CF539739DF2C5DACB4C659F2488D PUSH1 0x1 PUSH3 0x318 JUMP JUMPDEST PUSH3 0x279 PUSH20 0xE592427A0AECE92DE3EDEE1F18E0157C05861564 PUSH1 0x1 PUSH3 0x318 JUMP JUMPDEST PUSH3 0x8CF JUMP JUMPDEST PUSH1 0x38 CHAINID EQ ISZERO PUSH3 0x2AA JUMPI PUSH3 0x279 PUSH20 0x10ED43C718714EB63D5AA57B78B54704E256024E PUSH1 0x1 PUSH3 0x318 JUMP JUMPDEST PUSH1 0x89 CHAINID EQ ISZERO PUSH3 0x279 JUMPI PUSH3 0x279 PUSH20 0xA5E0829CACED8FFDD4DE3C43696C57F7D7A678FF PUSH1 0x1 PUSH3 0x318 JUMP JUMPDEST PUSH3 0x2EC DUP3 DUP3 PUSH3 0x3DF PUSH1 0x20 SHL PUSH3 0xEDA OR PUSH1 0x20 SHR JUMP JUMPDEST PUSH1 0x0 DUP3 DUP2 MSTORE PUSH1 0x1 PUSH1 0x20 SWAP1 DUP2 MSTORE PUSH1 0x40 SWAP1 SWAP2 KECCAK256 PUSH3 0x313 SWAP2 DUP4 SWAP1 PUSH3 0xEE8 PUSH3 0x3EF DUP3 SHL OR SWAP1 SHR JUMP JUMPDEST POP POP POP JUMP JUMPDEST PUSH1 0x0 PUSH3 0x326 DUP2 CALLER PUSH3 0x40F JUMP JUMPDEST POP PUSH1 0x1 PUSH1 0x1 PUSH1 0xA0 SHL SUB SWAP2 SWAP1 SWAP2 AND PUSH1 0x0 SWAP1 DUP2 MSTORE PUSH1 0x3 PUSH1 0x20 MSTORE PUSH1 0x40 SWAP1 KECCAK256 DUP1 SLOAD PUSH1 0xFF NOT AND SWAP2 ISZERO ISZERO SWAP2 SWAP1 SWAP2 OR SWAP1 SSTORE JUMP JUMPDEST PUSH1 0x0 PUSH3 0x360 DUP2 CALLER PUSH3 0x40F JUMP JUMPDEST PUSH1 0x1 PUSH1 0x1 PUSH1 0xA0 SHL SUB DUP3 AND PUSH1 0x0 SWAP1 DUP2 MSTORE PUSH1 0x2 PUSH1 0x20 MSTORE PUSH1 0x40 SWAP1 KECCAK256 SLOAD PUSH1 0xFF AND ISZERO PUSH3 0x3BA JUMPI PUSH1 0x40 MLOAD PUSH3 0x461BCD PUSH1 0xE5 SHL DUP2 MSTORE PUSH1 0x20 PUSH1 0x4 DUP3 ADD MSTORE PUSH1 0x8 PUSH1 0x24 DUP3 ADD MSTORE PUSH8 0x10D0910E88189BDD PUSH1 0xC2 SHL PUSH1 0x44 DUP3 ADD MSTORE PUSH1 0x64 ADD JUMPDEST PUSH1 0x40 MLOAD DUP1 SWAP2 SUB SWAP1 REVERT JUMPDEST POP PUSH1 0x1 PUSH1 0x1 PUSH1 0xA0 SHL SUB AND PUSH1 0x0 SWAP1 DUP2 MSTORE PUSH1 0x2 PUSH1 0x20 MSTORE PUSH1 0x40 SWAP1 KECCAK256 DUP1 SLOAD PUSH1 0xFF NOT AND PUSH1 0x1 OR SWAP1 SSTORE JUMP JUMPDEST PUSH3 0x3EB DUP3 DUP3 PUSH3 0x4AA JUMP JUMPDEST POP POP JUMP JUMPDEST PUSH1 0x0 PUSH3 0x406 DUP4 PUSH1 0x1 PUSH1 0x1 PUSH1 0xA0 SHL SUB DUP5 AND PUSH3 0x54A JUMP JUMPDEST SWAP1 POP JUMPDEST SWAP3 SWAP2 POP POP JUMP JUMPDEST PUSH1 0x0 DUP3 DUP2 MSTORE PUSH1 0x20 DUP2 DUP2 MSTORE PUSH1 0x40 DUP1 DUP4 KECCAK256 PUSH1 0x1 PUSH1 0x1 PUSH1 0xA0 SHL SUB DUP6 AND DUP5 MSTORE SWAP1 SWAP2 MSTORE SWAP1 KECCAK256 SLOAD PUSH1 0xFF AND PUSH3 0x3EB JUMPI PUSH3 0x459 DUP2 PUSH1 0x1 PUSH1 0x1 PUSH1 0xA0 SHL SUB AND PUSH1 0x14 PUSH3 0x59C PUSH1 0x20 SHL PUSH3 0xEFD OR PUSH1 0x20 SHR JUMP JUMPDEST PUSH3 0x46F DUP4 PUSH1 0x20 PUSH3 0xEFD PUSH3 0x59C DUP3 SHL OR DUP2 SHR JUMP JUMPDEST PUSH1 0x40 MLOAD PUSH1 0x20 ADD PUSH3 0x482 SWAP3 SWAP2 SWAP1 PUSH3 0x788 JUMP JUMPDEST PUSH1 0x40 DUP1 MLOAD PUSH1 0x1F NOT DUP2 DUP5 SUB ADD DUP2 MSTORE SWAP1 DUP3 SWAP1 MSTORE PUSH3 0x461BCD PUSH1 0xE5 SHL DUP3 MSTORE PUSH3 0x3B1 SWAP2 PUSH1 0x4 ADD PUSH3 0x801 JUMP JUMPDEST PUSH1 0x0 DUP3 DUP2 MSTORE PUSH1 0x20 DUP2 DUP2 MSTORE PUSH1 0x40 DUP1 DUP4 KECCAK256 PUSH1 0x1 PUSH1 0x1 PUSH1 0xA0 SHL SUB DUP6 AND DUP5 MSTORE SWAP1 SWAP2 MSTORE SWAP1 KECCAK256 SLOAD PUSH1 0xFF AND PUSH3 0x3EB JUMPI PUSH1 0x0 DUP3 DUP2 MSTORE PUSH1 0x20 DUP2 DUP2 MSTORE PUSH1 0x40 DUP1 DUP4 KECCAK256 PUSH1 0x1 PUSH1 0x1 PUSH1 0xA0 SHL SUB DUP6 AND DUP5 MSTORE SWAP1 SWAP2 MSTORE SWAP1 KECCAK256 DUP1 SLOAD PUSH1 0xFF NOT AND PUSH1 0x1 OR SWAP1 SSTORE PUSH3 0x506 CALLER SWAP1 JUMP JUMPDEST PUSH1 0x1 PUSH1 0x1 PUSH1 0xA0 SHL SUB AND DUP2 PUSH1 0x1 PUSH1 0x1 PUSH1 0xA0 SHL SUB AND DUP4 PUSH32 0x2F8788117E7EFF1D82E926EC794901D17C78024A50270940304540A733656F0D PUSH1 0x40 MLOAD PUSH1 0x40 MLOAD DUP1 SWAP2 SUB SWAP1 LOG4 POP POP JUMP JUMPDEST PUSH1 0x0 DUP2 DUP2 MSTORE PUSH1 0x1 DUP4 ADD PUSH1 0x20 MSTORE PUSH1 0x40 DUP2 KECCAK256 SLOAD PUSH3 0x593 JUMPI POP DUP2 SLOAD PUSH1 0x1 DUP2 DUP2 ADD DUP5 SSTORE PUSH1 0x0 DUP5 DUP2 MSTORE PUSH1 0x20 DUP1 DUP3 KECCAK256 SWAP1 SWAP4 ADD DUP5 SWAP1 SSTORE DUP5 SLOAD DUP5 DUP3 MSTORE DUP3 DUP7 ADD SWAP1 SWAP4 MSTORE PUSH1 0x40 SWAP1 KECCAK256 SWAP2 SWAP1 SWAP2 SSTORE PUSH3 0x409 JUMP JUMPDEST POP PUSH1 0x0 PUSH3 0x409 JUMP JUMPDEST PUSH1 0x60 PUSH1 0x0 PUSH3 0x5AD DUP4 PUSH1 0x2 PUSH3 0x84C JUMP JUMPDEST PUSH3 0x5BA SWAP1 PUSH1 0x2 PUSH3 0x86E JUMP JUMPDEST PUSH1 0x1 PUSH1 0x1 PUSH1 0x40 SHL SUB DUP2 GT ISZERO PUSH3 0x5D4 JUMPI PUSH3 0x5D4 PUSH3 0x889 JUMP JUMPDEST PUSH1 0x40 MLOAD SWAP1 DUP1 DUP3 MSTORE DUP1 PUSH1 0x1F ADD PUSH1 0x1F NOT AND PUSH1 0x20 ADD DUP3 ADD PUSH1 0x40 MSTORE DUP1 ISZERO PUSH3 0x5FF JUMPI PUSH1 0x20 DUP3 ADD DUP2 DUP1 CALLDATASIZE DUP4 CALLDATACOPY ADD SWAP1 POP JUMPDEST POP SWAP1 POP PUSH1 0x3 PUSH1 0xFC SHL DUP2 PUSH1 0x0 DUP2 MLOAD DUP2 LT PUSH3 0x61D JUMPI PUSH3 0x61D PUSH3 0x89F JUMP JUMPDEST PUSH1 0x20 ADD ADD SWAP1 PUSH1 0x1 PUSH1 0x1 PUSH1 0xF8 SHL SUB NOT AND SWAP1 DUP2 PUSH1 0x0 BYTE SWAP1 MSTORE8 POP PUSH1 0xF PUSH1 0xFB SHL DUP2 PUSH1 0x1 DUP2 MLOAD DUP2 LT PUSH3 0x64F JUMPI PUSH3 0x64F PUSH3 0x89F JUMP JUMPDEST PUSH1 0x20 ADD ADD SWAP1 PUSH1 0x1 PUSH1 0x1 PUSH1 0xF8 SHL SUB NOT AND SWAP1 DUP2 PUSH1 0x0 BYTE SWAP1 MSTORE8 POP PUSH1 0x0 PUSH3 0x675 DUP5 PUSH1 0x2 PUSH3 0x84C JUMP JUMPDEST PUSH3 0x682 SWAP1 PUSH1 0x1 PUSH3 0x86E JUMP JUMPDEST SWAP1 POP JUMPDEST PUSH1 0x1 DUP2 GT ISZERO PUSH3 0x704 JUMPI PUSH16 0x181899199A1A9B1B9C1CB0B131B232B3 PUSH1 0x81 SHL DUP6 PUSH1 0xF AND PUSH1 0x10 DUP2 LT PUSH3 0x6BA JUMPI PUSH3 0x6BA PUSH3 0x89F JUMP JUMPDEST BYTE PUSH1 0xF8 SHL DUP3 DUP3 DUP2 MLOAD DUP2 LT PUSH3 0x6D3 JUMPI PUSH3 0x6D3 PUSH3 0x89F JUMP JUMPDEST PUSH1 0x20 ADD ADD SWAP1 PUSH1 0x1 PUSH1 0x1 PUSH1 0xF8 SHL SUB NOT AND SWAP1 DUP2 PUSH1 0x0 BYTE SWAP1 MSTORE8 POP PUSH1 0x4 SWAP5 SWAP1 SWAP5 SHR SWAP4 PUSH3 0x6FC DUP2 PUSH3 0x8B5 JUMP JUMPDEST SWAP1 POP PUSH3 0x685 JUMP JUMPDEST POP DUP4 ISZERO PUSH3 0x406 JUMPI PUSH1 0x40 MLOAD PUSH3 0x461BCD PUSH1 0xE5 SHL DUP2 MSTORE PUSH1 0x20 PUSH1 0x4 DUP3 ADD DUP2 SWAP1 MSTORE PUSH1 0x24 DUP3 ADD MSTORE PUSH32 0x537472696E67733A20686578206C656E67746820696E73756666696369656E74 PUSH1 0x44 DUP3 ADD MSTORE PUSH1 0x64 ADD PUSH3 0x3B1 JUMP JUMPDEST PUSH1 0x0 JUMPDEST DUP4 DUP2 LT ISZERO PUSH3 0x772 JUMPI DUP2 DUP2 ADD MLOAD DUP4 DUP3 ADD MSTORE PUSH1 0x20 ADD PUSH3 0x758 JUMP JUMPDEST DUP4 DUP2 GT ISZERO PUSH3 0x782 JUMPI PUSH1 0x0 DUP5 DUP5 ADD MSTORE JUMPDEST POP POP POP POP JUMP JUMPDEST PUSH32 0x416363657373436F6E74726F6C3A206163636F756E7420000000000000000000 DUP2 MSTORE PUSH1 0x0 DUP4 MLOAD PUSH3 0x7C2 DUP2 PUSH1 0x17 DUP6 ADD PUSH1 0x20 DUP9 ADD PUSH3 0x755 JUMP JUMPDEST PUSH17 0x1034B99036B4B9B9B4B733903937B6329 PUSH1 0x7D SHL PUSH1 0x17 SWAP2 DUP5 ADD SWAP2 DUP3 ADD MSTORE DUP4 MLOAD PUSH3 0x7F5 DUP2 PUSH1 0x28 DUP5 ADD PUSH1 0x20 DUP9 ADD PUSH3 0x755 JUMP JUMPDEST ADD PUSH1 0x28 ADD SWAP5 SWAP4 POP POP POP POP JUMP JUMPDEST PUSH1 0x20 DUP2 MSTORE PUSH1 0x0 DUP3 MLOAD DUP1 PUSH1 0x20 DUP5 ADD MSTORE PUSH3 0x822 DUP2 PUSH1 0x40 DUP6 ADD PUSH1 0x20 DUP8 ADD PUSH3 0x755 JUMP JUMPDEST PUSH1 0x1F ADD PUSH1 0x1F NOT AND SWAP2 SWAP1 SWAP2 ADD PUSH1 0x40 ADD SWAP3 SWAP2 POP POP JUMP JUMPDEST PUSH4 0x4E487B71 PUSH1 0xE0 SHL PUSH1 0x0 MSTORE PUSH1 0x11 PUSH1 0x4 MSTORE PUSH1 0x24 PUSH1 0x0 REVERT JUMPDEST PUSH1 0x0 DUP2 PUSH1 0x0 NOT DIV DUP4 GT DUP3 ISZERO ISZERO AND ISZERO PUSH3 0x869 JUMPI PUSH3 0x869 PUSH3 0x836 JUMP JUMPDEST POP MUL SWAP1 JUMP JUMPDEST PUSH1 0x0 DUP3 NOT DUP3 GT ISZERO PUSH3 0x884 JUMPI PUSH3 0x884 PUSH3 0x836 JUMP JUMPDEST POP ADD SWAP1 JUMP JUMPDEST PUSH4 0x4E487B71 PUSH1 0xE0 SHL PUSH1 0x0 MSTORE PUSH1 0x41 PUSH1 0x4 MSTORE PUSH1 0x24 PUSH1 0x0 REVERT JUMPDEST PUSH4 0x4E487B71 PUSH1 0xE0 SHL PUSH1 0x0 MSTORE PUSH1 0x32 PUSH1 0x4 MSTORE PUSH1 0x24 PUSH1 0x0 REVERT JUMPDEST PUSH1 0x0 DUP2 PUSH3 0x8C7 JUMPI PUSH3 0x8C7 PUSH3 0x836 JUMP JUMPDEST POP PUSH1 0x0 NOT ADD SWAP1 JUMP JUMPDEST PUSH2 0x1BD7 DUP1 PUSH3 0x8DF PUSH1 0x0 CODECOPY PUSH1 0x0 RETURN INVALID PUSH1 0x80 PUSH1 0x40 MSTORE CALLVALUE DUP1 ISZERO PUSH2 0x10 JUMPI PUSH1 0x0 DUP1 REVERT JUMPDEST POP PUSH1 0x4 CALLDATASIZE LT PUSH2 0x1C4 JUMPI PUSH1 0x0 CALLDATALOAD PUSH1 0xE0 SHR DUP1 PUSH4 0x7D7E0D2B GT PUSH2 0xF9 JUMPI DUP1 PUSH4 0xCA15C873 GT PUSH2 0x97 JUMPI DUP1 PUSH4 0xDB8AA538 GT PUSH2 0x71 JUMPI DUP1 PUSH4 0xDB8AA538 EQ PUSH2 0x3FF JUMPI DUP1 PUSH4 0xE53FD775 EQ PUSH2 0x412 JUMPI DUP1 PUSH4 0xEAA8F7E3 EQ PUSH2 0x425 JUMPI DUP1 PUSH4 0xED0B8476 EQ PUSH2 0x438 JUMPI PUSH1 0x0 DUP1 REVERT JUMPDEST DUP1 PUSH4 0xCA15C873 EQ PUSH2 0x3D1 JUMPI DUP1 PUSH4 0xD391014B EQ PUSH2 0x3E4 JUMPI DUP1 PUSH4 0xD547741F EQ PUSH2 0x3EC JUMPI PUSH1 0x0 DUP1 REVERT JUMPDEST DUP1 PUSH4 0x9CECE12E GT PUSH2 0xD3 JUMPI DUP1 PUSH4 0x9CECE12E EQ PUSH2 0x385 JUMPI DUP1 PUSH4 0xA8798FFC EQ PUSH2 0x398 JUMPI DUP1 PUSH4 0xA9A48824 EQ PUSH2 0x3AB JUMPI DUP1 PUSH4 0xBB92E42C EQ PUSH2 0x3BE JUMPI PUSH1 0x0 DUP1 REVERT JUMPDEST DUP1 PUSH4 0x7D7E0D2B EQ PUSH2 0x315 JUMPI DUP1 PUSH4 0x9010D07C EQ PUSH2 0x347 JUMPI DUP1 PUSH4 0x91D14854 EQ PUSH2 0x372 JUMPI PUSH1 0x0 DUP1 REVERT JUMPDEST DUP1 PUSH4 0x2F2FF15D GT PUSH2 0x166 JUMPI DUP1 PUSH4 0x404A8CCA GT PUSH2 0x140 JUMPI DUP1 PUSH4 0x404A8CCA EQ PUSH2 0x2C9 JUMPI DUP1 PUSH4 0x441C62A8 EQ PUSH2 0x2DC JUMPI DUP1 PUSH4 0x5F242323 EQ PUSH2 0x2EF JUMPI DUP1 PUSH4 0x6A930A95 EQ PUSH2 0x302 JUMPI PUSH1 0x0 DUP1 REVERT JUMPDEST DUP1 PUSH4 0x2F2FF15D EQ PUSH2 0x290 JUMPI DUP1 PUSH4 0x36568ABE EQ PUSH2 0x2A3 JUMPI DUP1 PUSH4 0x391BC2E5 EQ PUSH2 0x2B6 JUMPI PUSH1 0x0 DUP1 REVERT JUMPDEST DUP1 PUSH4 0x1FD413F8 GT PUSH2 0x1A2 JUMPI DUP1 PUSH4 0x1FD413F8 EQ PUSH2 0x219 JUMPI DUP1 PUSH4 0x2231CAC2 EQ PUSH2 0x239 JUMPI DUP1 PUSH4 0x231683AE EQ PUSH2 0x24C JUMPI DUP1 PUSH4 0x248A9CA3 EQ PUSH2 0x25F JUMPI PUSH1 0x0 DUP1 REVERT JUMPDEST DUP1 PUSH4 0x1FFC9A7 EQ PUSH2 0x1C9 JUMPI DUP1 PUSH4 0x3ED957F EQ PUSH2 0x1F1 JUMPI DUP1 PUSH4 0x1093BAA9 EQ PUSH2 0x206 JUMPI JUMPDEST PUSH1 0x0 DUP1 REVERT JUMPDEST PUSH2 0x1DC PUSH2 0x1D7 CALLDATASIZE PUSH1 0x4 PUSH2 0x157B JUMP JUMPDEST PUSH2 0x44B JUMP JUMPDEST PUSH1 0x40 MLOAD SWAP1 ISZERO ISZERO DUP2 MSTORE PUSH1 0x20 ADD JUMPDEST PUSH1 0x40 MLOAD DUP1 SWAP2 SUB SWAP1 RETURN JUMPDEST PUSH2 0x204 PUSH2 0x1FF CALLDATASIZE PUSH1 0x4 PUSH2 0x15A5 JUMP JUMPDEST PUSH2 0x476 JUMP JUMPDEST STOP JUMPDEST PUSH2 0x204 PUSH2 0x214 CALLDATASIZE PUSH1 0x4 PUSH2 0x1636 JUMP JUMPDEST PUSH2 0x4F3 JUMP JUMPDEST PUSH2 0x22C PUSH2 0x227 CALLDATASIZE PUSH1 0x4 PUSH2 0x1667 JUMP JUMPDEST PUSH2 0x57D JUMP JUMPDEST PUSH1 0x40 MLOAD PUSH2 0x1E8 SWAP2 SWAP1 PUSH2 0x172C JUMP JUMPDEST PUSH2 0x204 PUSH2 0x247 CALLDATASIZE PUSH1 0x4 PUSH2 0x1779 JUMP JUMPDEST PUSH2 0x627 JUMP JUMPDEST PUSH2 0x204 PUSH2 0x25A CALLDATASIZE PUSH1 0x4 PUSH2 0x17B3 JUMP JUMPDEST PUSH2 0x650 JUMP JUMPDEST PUSH2 0x282 PUSH2 0x26D CALLDATASIZE PUSH1 0x4 PUSH2 0x17E6 JUMP JUMPDEST PUSH1 0x0 SWAP1 DUP2 MSTORE PUSH1 0x20 DUP2 SWAP1 MSTORE PUSH1 0x40 SWAP1 KECCAK256 PUSH1 0x1 ADD SLOAD SWAP1 JUMP JUMPDEST PUSH1 0x40 MLOAD SWAP1 DUP2 MSTORE PUSH1 0x20 ADD PUSH2 0x1E8 JUMP JUMPDEST PUSH2 0x204 PUSH2 0x29E CALLDATASIZE PUSH1 0x4 PUSH2 0x17FF JUMP JUMPDEST PUSH2 0x688 JUMP JUMPDEST PUSH2 0x204 PUSH2 0x2B1 CALLDATASIZE PUSH1 0x4 PUSH2 0x17FF JUMP JUMPDEST PUSH2 0x6AF JUMP JUMPDEST PUSH2 0x282 PUSH2 0x2C4 CALLDATASIZE PUSH1 0x4 PUSH2 0x1822 JUMP JUMPDEST PUSH2 0x6D1 JUMP JUMPDEST PUSH2 0x204 PUSH2 0x2D7 CALLDATASIZE PUSH1 0x4 PUSH2 0x1898 JUMP JUMPDEST PUSH2 0x70B JUMP JUMPDEST PUSH2 0x22C PUSH2 0x2EA CALLDATASIZE PUSH1 0x4 PUSH2 0x1667 JUMP JUMPDEST PUSH2 0x78F JUMP JUMPDEST PUSH2 0x1DC PUSH2 0x2FD CALLDATASIZE PUSH1 0x4 PUSH2 0x1636 JUMP JUMPDEST PUSH2 0x831 JUMP JUMPDEST PUSH2 0x204 PUSH2 0x310 CALLDATASIZE PUSH1 0x4 PUSH2 0x18EC JUMP JUMPDEST PUSH2 0x85E JUMP JUMPDEST PUSH2 0x328 PUSH2 0x323 CALLDATASIZE PUSH1 0x4 PUSH2 0x192E JUMP JUMPDEST PUSH2 0x929 JUMP JUMPDEST PUSH1 0x40 DUP1 MLOAD DUP3 MLOAD ISZERO ISZERO DUP2 MSTORE PUSH1 0x20 SWAP3 DUP4 ADD MLOAD ISZERO ISZERO SWAP3 DUP2 ADD SWAP3 SWAP1 SWAP3 MSTORE ADD PUSH2 0x1E8 JUMP JUMPDEST PUSH2 0x35A PUSH2 0x355 CALLDATASIZE PUSH1 0x4 PUSH2 0x1968 JUMP JUMPDEST PUSH2 0xBE3 JUMP JUMPDEST PUSH1 0x40 MLOAD PUSH1 0x1 PUSH1 0x1 PUSH1 0xA0 SHL SUB SWAP1 SWAP2 AND DUP2 MSTORE PUSH1 0x20 ADD PUSH2 0x1E8 JUMP JUMPDEST PUSH2 0x1DC PUSH2 0x380 CALLDATASIZE PUSH1 0x4 PUSH2 0x17FF JUMP JUMPDEST PUSH2 0xC02 JUMP JUMPDEST PUSH2 0x282 PUSH2 0x393 CALLDATASIZE PUSH1 0x4 PUSH2 0x1636 JUMP JUMPDEST PUSH2 0xC2B JUMP JUMPDEST PUSH2 0x204 PUSH2 0x3A6 CALLDATASIZE PUSH1 0x4 PUSH2 0x1898 JUMP JUMPDEST PUSH2 0xC55 JUMP JUMPDEST PUSH2 0x204 PUSH2 0x3B9 CALLDATASIZE PUSH1 0x4 PUSH2 0x1636 JUMP JUMPDEST PUSH2 0xCD2 JUMP JUMPDEST PUSH2 0x204 PUSH2 0x3CC CALLDATASIZE PUSH1 0x4 PUSH2 0x198A JUMP JUMPDEST PUSH2 0xD54 JUMP JUMPDEST PUSH2 0x282 PUSH2 0x3DF CALLDATASIZE PUSH1 0x4 PUSH2 0x17E6 JUMP JUMPDEST PUSH2 0xDC3 JUMP JUMPDEST PUSH2 0x282 PUSH1 0x0 DUP2 JUMP JUMPDEST PUSH2 0x204 PUSH2 0x3FA CALLDATASIZE PUSH1 0x4 PUSH2 0x17FF JUMP JUMPDEST PUSH2 0xDDA JUMP JUMPDEST PUSH2 0x1DC PUSH2 0x40D CALLDATASIZE PUSH1 0x4 PUSH2 0x1636 JUMP JUMPDEST PUSH2 0xDE4 JUMP JUMPDEST PUSH2 0x282 PUSH2 0x420 CALLDATASIZE PUSH1 0x4 PUSH2 0x1636 JUMP JUMPDEST PUSH2 0xE11 JUMP JUMPDEST PUSH2 0x1DC PUSH2 0x433 CALLDATASIZE PUSH1 0x4 PUSH2 0x1636 JUMP JUMPDEST PUSH2 0xE60 JUMP JUMPDEST PUSH2 0x204 PUSH2 0x446 CALLDATASIZE PUSH1 0x4 PUSH2 0x1779 JUMP JUMPDEST PUSH2 0xEB1 JUMP JUMPDEST PUSH1 0x0 PUSH1 0x1 PUSH1 0x1 PUSH1 0xE0 SHL SUB NOT DUP3 AND PUSH4 0x5A05180F PUSH1 0xE0 SHL EQ DUP1 PUSH2 0x470 JUMPI POP PUSH2 0x470 DUP3 PUSH2 0x1099 JUMP JUMPDEST SWAP3 SWAP2 POP POP JUMP JUMPDEST PUSH1 0x0 PUSH2 0x482 DUP2 CALLER PUSH2 0x10CE JUMP JUMPDEST PUSH1 0x0 JUMPDEST DUP3 DUP2 LT ISZERO PUSH2 0x4ED JUMPI PUSH2 0x4DB DUP5 DUP5 DUP4 DUP2 DUP2 LT PUSH2 0x4A2 JUMPI PUSH2 0x4A2 PUSH2 0x19D6 JUMP JUMPDEST SWAP1 POP PUSH1 0x40 MUL ADD PUSH1 0x0 ADD CALLDATALOAD DUP6 DUP6 DUP5 DUP2 DUP2 LT PUSH2 0x4BE JUMPI PUSH2 0x4BE PUSH2 0x19D6 JUMP JUMPDEST SWAP1 POP PUSH1 0x40 MUL ADD PUSH1 0x20 ADD PUSH1 0x20 DUP2 ADD SWAP1 PUSH2 0x4D6 SWAP2 SWAP1 PUSH2 0x1636 JUMP JUMPDEST PUSH2 0x1132 JUMP JUMPDEST DUP1 PUSH2 0x4E5 DUP2 PUSH2 0x1A02 JUMP JUMPDEST SWAP2 POP POP PUSH2 0x485 JUMP JUMPDEST POP POP POP POP JUMP JUMPDEST PUSH1 0x0 PUSH2 0x4FF DUP2 CALLER PUSH2 0x10CE JUMP JUMPDEST PUSH1 0x1 PUSH1 0x1 PUSH1 0xA0 SHL SUB DUP3 AND PUSH1 0x0 SWAP1 DUP2 MSTORE PUSH1 0x2 PUSH1 0x20 MSTORE PUSH1 0x40 SWAP1 KECCAK256 SLOAD PUSH1 0xFF AND ISZERO PUSH2 0x558 JUMPI PUSH1 0x40 MLOAD PUSH3 0x461BCD PUSH1 0xE5 SHL DUP2 MSTORE PUSH1 0x20 PUSH1 0x4 DUP3 ADD MSTORE PUSH1 0x8 PUSH1 0x24 DUP3 ADD MSTORE PUSH8 0x10D0910E88189BDD PUSH1 0xC2 SHL PUSH1 0x44 DUP3 ADD MSTORE PUSH1 0x64 ADD JUMPDEST PUSH1 0x40 MLOAD DUP1 SWAP2 SUB SWAP1 REVERT JUMPDEST POP PUSH1 0x1 PUSH1 0x1 PUSH1 0xA0 SHL SUB AND PUSH1 0x0 SWAP1 DUP2 MSTORE PUSH1 0x2 PUSH1 0x20 MSTORE PUSH1 0x40 SWAP1 KECCAK256 DUP1 SLOAD PUSH1 0xFF NOT AND PUSH1 0x1 OR SWAP1 SSTORE JUMP JUMPDEST PUSH1 0x60 PUSH1 0x0 PUSH2 0x58B DUP2 CALLER PUSH2 0x10CE JUMP JUMPDEST PUSH1 0x0 JUMPDEST DUP4 MLOAD DUP2 LT ISZERO PUSH2 0x61F JUMPI PUSH1 0x3 PUSH1 0x0 DUP6 DUP4 DUP2 MLOAD DUP2 LT PUSH2 0x5AD JUMPI PUSH2 0x5AD PUSH2 0x19D6 JUMP JUMPDEST PUSH1 0x20 SWAP1 DUP2 MUL SWAP2 SWAP1 SWAP2 ADD DUP2 ADD MLOAD PUSH1 0x1 PUSH1 0x1 PUSH1 0xA0 SHL SUB AND DUP3 MSTORE DUP2 ADD SWAP2 SWAP1 SWAP2 MSTORE PUSH1 0x40 ADD PUSH1 0x0 KECCAK256 SLOAD PUSH1 0xFF AND PUSH2 0x60D JUMPI PUSH1 0x0 DUP5 DUP3 DUP2 MLOAD DUP2 LT PUSH2 0x5EC JUMPI PUSH2 0x5EC PUSH2 0x19D6 JUMP JUMPDEST PUSH1 0x20 MUL PUSH1 0x20 ADD ADD SWAP1 PUSH1 0x1 PUSH1 0x1 PUSH1 0xA0 SHL SUB AND SWAP1 DUP2 PUSH1 0x1 PUSH1 0x1 PUSH1 0xA0 SHL SUB AND DUP2 MSTORE POP POP JUMPDEST DUP1 PUSH2 0x617 DUP2 PUSH2 0x1A02 JUMP JUMPDEST SWAP2 POP POP PUSH2 0x58E JUMP JUMPDEST POP SWAP2 SWAP3 SWAP2 POP POP JUMP JUMPDEST PUSH1 0x0 PUSH2 0x633 DUP2 CALLER PUSH2 0x10CE JUMP JUMPDEST POP PUSH1 0x1 PUSH1 0x1 PUSH1 0xA0 SHL SUB SWAP1 SWAP2 AND PUSH1 0x0 SWAP1 DUP2 MSTORE PUSH1 0x6 PUSH1 0x20 MSTORE PUSH1 0x40 SWAP1 KECCAK256 SSTORE JUMP JUMPDEST PUSH1 0x0 PUSH2 0x65C DUP2 CALLER PUSH2 0x10CE JUMP JUMPDEST POP PUSH1 0x1 PUSH1 0x1 PUSH1 0xA0 SHL SUB SWAP2 SWAP1 SWAP2 AND PUSH1 0x0 SWAP1 DUP2 MSTORE PUSH1 0x3 PUSH1 0x20 MSTORE PUSH1 0x40 SWAP1 KECCAK256 DUP1 SLOAD PUSH1 0xFF NOT AND SWAP2 ISZERO ISZERO SWAP2 SWAP1 SWAP2 OR SWAP1 SSTORE JUMP JUMPDEST PUSH2 0x692 DUP3 DUP3 PUSH2 0x113C JUMP JUMPDEST PUSH1 0x0 DUP3 DUP2 MSTORE PUSH1 0x1 PUSH1 0x20 MSTORE PUSH1 0x40 SWAP1 KECCAK256 PUSH2 0x6AA SWAP1 DUP3 PUSH2 0xEE8 JUMP JUMPDEST POP POP POP JUMP JUMPDEST PUSH2 0x6B9 DUP3 DUP3 PUSH2 0x1152 JUMP JUMPDEST PUSH1 0x0 DUP3 DUP2 MSTORE PUSH1 0x1 PUSH1 0x20 MSTORE PUSH1 0x40 SWAP1 KECCAK256 PUSH2 0x6AA SWAP1 DUP3 PUSH2 0x11CC JUMP JUMPDEST PUSH1 0x0 DUP1 PUSH2 0x6DE DUP2 CALLER PUSH2 0x10CE JUMP JUMPDEST POP POP PUSH1 0x1 PUSH1 0x1 PUSH1 0xA0 SHL SUB SWAP2 DUP3 AND PUSH1 0x0 SWAP1 DUP2 MSTORE PUSH1 0x5 PUSH1 0x20 SWAP1 DUP2 MSTORE PUSH1 0x40 DUP1 DUP4 KECCAK256 SWAP4 SWAP1 SWAP5 AND DUP3 MSTORE SWAP2 SWAP1 SWAP2 MSTORE KECCAK256 SLOAD SWAP1 JUMP JUMPDEST PUSH1 0x0 PUSH2 0x717 DUP2 CALLER PUSH2 0x10CE JUMP JUMPDEST PUSH1 0x0 JUMPDEST DUP4 DUP2 LT ISZERO PUSH2 0x788 JUMPI DUP3 PUSH1 0x2 PUSH1 0x0 DUP8 DUP8 DUP6 DUP2 DUP2 LT PUSH2 0x739 JUMPI PUSH2 0x739 PUSH2 0x19D6 JUMP JUMPDEST SWAP1 POP PUSH1 0x20 MUL ADD PUSH1 0x20 DUP2 ADD SWAP1 PUSH2 0x74E SWAP2 SWAP1 PUSH2 0x1636 JUMP JUMPDEST PUSH1 0x1 PUSH1 0x1 PUSH1 0xA0 SHL SUB AND DUP2 MSTORE PUSH1 0x20 DUP2 ADD SWAP2 SWAP1 SWAP2 MSTORE PUSH1 0x40 ADD PUSH1 0x0 KECCAK256 DUP1 SLOAD PUSH1 0xFF NOT AND SWAP2 ISZERO ISZERO SWAP2 SWAP1 SWAP2 OR SWAP1 SSTORE DUP1 PUSH2 0x780 DUP2 PUSH2 0x1A02 JUMP JUMPDEST SWAP2 POP POP PUSH2 0x71A JUMP JUMPDEST POP POP POP POP POP JUMP JUMPDEST PUSH1 0x60 PUSH1 0x0 PUSH2 0x79D DUP2 CALLER PUSH2 0x10CE JUMP JUMPDEST PUSH1 0x0 JUMPDEST DUP4 MLOAD DUP2 LT ISZERO PUSH2 0x61F JUMPI PUSH1 0x2 PUSH1 0x0 DUP6 DUP4 DUP2 MLOAD DUP2 LT PUSH2 0x7BF JUMPI PUSH2 0x7BF PUSH2 0x19D6 JUMP JUMPDEST PUSH1 0x20 SWAP1 DUP2 MUL SWAP2 SWAP1 SWAP2 ADD DUP2 ADD MLOAD PUSH1 0x1 PUSH1 0x1 PUSH1 0xA0 SHL SUB AND DUP3 MSTORE DUP2 ADD SWAP2 SWAP1 SWAP2 MSTORE PUSH1 0x40 ADD PUSH1 0x0 KECCAK256 SLOAD PUSH1 0xFF AND PUSH2 0x81F JUMPI PUSH1 0x0 DUP5 DUP3 DUP2 MLOAD DUP2 LT PUSH2 0x7FE JUMPI PUSH2 0x7FE PUSH2 0x19D6 JUMP JUMPDEST PUSH1 0x20 MUL PUSH1 0x20 ADD ADD SWAP1 PUSH1 0x1 PUSH1 0x1 PUSH1 0xA0 SHL SUB AND SWAP1 DUP2 PUSH1 0x1 PUSH1 0x1 PUSH1 0xA0 SHL SUB AND DUP2 MSTORE POP POP JUMPDEST DUP1 PUSH2 0x829 DUP2 PUSH2 0x1A02 JUMP JUMPDEST SWAP2 POP POP PUSH2 0x7A0 JUMP JUMPDEST PUSH1 0x0 DUP1 PUSH2 0x83E DUP2 CALLER PUSH2 0x10CE JUMP JUMPDEST POP POP PUSH1 0x1 PUSH1 0x1 PUSH1 0xA0 SHL SUB AND PUSH1 0x0 SWAP1 DUP2 MSTORE PUSH1 0x2 PUSH1 0x20 MSTORE PUSH1 0x40 SWAP1 KECCAK256 SLOAD PUSH1 0xFF AND SWAP1 JUMP JUMPDEST PUSH1 0x0 PUSH2 0x86A DUP2 CALLER PUSH2 0x10CE JUMP JUMPDEST PUSH1 0x0 JUMPDEST DUP3 DUP2 LT ISZERO PUSH2 0x4ED JUMPI PUSH1 0x2 PUSH1 0x0 DUP6 DUP6 DUP5 DUP2 DUP2 LT PUSH2 0x88B JUMPI PUSH2 0x88B PUSH2 0x19D6 JUMP JUMPDEST SWAP1 POP PUSH1 0x20 MUL ADD PUSH1 0x20 DUP2 ADD SWAP1 PUSH2 0x8A0 SWAP2 SWAP1 PUSH2 0x1636 JUMP JUMPDEST PUSH1 0x1 PUSH1 0x1 PUSH1 0xA0 SHL SUB AND DUP2 MSTORE PUSH1 0x20 DUP2 ADD SWAP2 SWAP1 SWAP2 MSTORE PUSH1 0x40 ADD PUSH1 0x0 KECCAK256 SLOAD PUSH1 0xFF AND PUSH2 0x917 JUMPI PUSH1 0x1 PUSH1 0x2 PUSH1 0x0 DUP7 DUP7 DUP6 DUP2 DUP2 LT PUSH2 0x8D9 JUMPI PUSH2 0x8D9 PUSH2 0x19D6 JUMP JUMPDEST SWAP1 POP PUSH1 0x20 MUL ADD PUSH1 0x20 DUP2 ADD SWAP1 PUSH2 0x8EE SWAP2 SWAP1 PUSH2 0x1636 JUMP JUMPDEST PUSH1 0x1 PUSH1 0x1 PUSH1 0xA0 SHL SUB AND DUP2 MSTORE PUSH1 0x20 DUP2 ADD SWAP2 SWAP1 SWAP2 MSTORE PUSH1 0x40 ADD PUSH1 0x0 KECCAK256 DUP1 SLOAD PUSH1 0xFF NOT AND SWAP2 ISZERO ISZERO SWAP2 SWAP1 SWAP2 OR SWAP1 SSTORE JUMPDEST DUP1 PUSH2 0x921 DUP2 PUSH2 0x1A02 JUMP JUMPDEST SWAP2 POP POP PUSH2 0x86D JUMP JUMPDEST PUSH1 0x40 DUP1 MLOAD DUP1 DUP3 ADD SWAP1 SWAP2 MSTORE PUSH1 0x0 DUP1 DUP3 MSTORE PUSH1 0x20 DUP3 ADD MSTORE PUSH1 0x0 PUSH2 0x949 DUP2 CALLER PUSH2 0x10CE JUMP JUMPDEST PUSH2 0x952 DUP4 PUSH2 0x11E1 JUMP JUMPDEST ISZERO ISZERO PUSH1 0x20 DUP4 ADD MSTORE PUSH2 0x962 DUP5 PUSH2 0x11E1 JUMP JUMPDEST ISZERO ISZERO DUP3 MSTORE PUSH1 0x1 PUSH1 0x1 PUSH1 0xA0 SHL SUB DUP6 AND PUSH1 0x0 SWAP1 DUP2 MSTORE PUSH1 0x4 PUSH1 0x20 MSTORE PUSH1 0x40 DUP2 KECCAK256 SLOAD PUSH2 0x98B JUMPI PUSH2 0x12C PUSH2 0x9A5 JUMP JUMPDEST PUSH1 0x1 PUSH1 0x1 PUSH1 0xA0 SHL SUB DUP7 AND PUSH1 0x0 SWAP1 DUP2 MSTORE PUSH1 0x4 PUSH1 0x20 MSTORE PUSH1 0x40 SWAP1 KECCAK256 SLOAD JUMPDEST DUP4 MLOAD SWAP1 SWAP2 POP DUP1 ISZERO PUSH2 0x9B8 JUMPI POP DUP3 PUSH1 0x20 ADD MLOAD ISZERO JUMPDEST DUP1 ISZERO PUSH2 0x9CD JUMPI POP ORIGIN PUSH1 0x1 PUSH1 0x1 PUSH1 0xA0 SHL SUB DUP6 AND EQ ISZERO JUMPDEST DUP1 ISZERO PUSH2 0x9D8 JUMPI POP DUP4 EXTCODESIZE ISZERO JUMPDEST DUP1 ISZERO PUSH2 0x9FD JUMPI POP PUSH1 0x1 PUSH1 0x1 PUSH1 0xA0 SHL SUB DUP5 AND PUSH1 0x0 SWAP1 DUP2 MSTORE PUSH1 0x3 PUSH1 0x20 MSTORE PUSH1 0x40 SWAP1 KECCAK256 SLOAD PUSH1 0xFF AND ISZERO JUMPDEST DUP1 ISZERO PUSH2 0xA75 JUMPI POP PUSH1 0x40 MLOAD PUSH4 0x70A08231 PUSH1 0xE0 SHL DUP2 MSTORE PUSH1 0x1 PUSH1 0x1 PUSH1 0xA0 SHL SUB DUP6 DUP2 AND PUSH1 0x4 DUP4 ADD MSTORE PUSH1 0x1 SWAP2 SWAP1 DUP9 AND SWAP1 PUSH4 0x70A08231 SWAP1 PUSH1 0x24 ADD PUSH1 0x20 PUSH1 0x40 MLOAD DUP1 DUP4 SUB DUP2 DUP7 GAS STATICCALL ISZERO DUP1 ISZERO PUSH2 0xA4E JUMPI RETURNDATASIZE PUSH1 0x0 DUP1 RETURNDATACOPY RETURNDATASIZE PUSH1 0x0 REVERT JUMPDEST POP POP POP POP PUSH1 0x40 MLOAD RETURNDATASIZE PUSH1 0x1F NOT PUSH1 0x1F DUP3 ADD AND DUP3 ADD DUP1 PUSH1 0x40 MSTORE POP DUP2 ADD SWAP1 PUSH2 0xA72 SWAP2 SWAP1 PUSH2 0x1A1D JUMP JUMPDEST GT ISZERO JUMPDEST ISZERO PUSH2 0xAA2 JUMPI PUSH1 0x1 PUSH1 0x1 PUSH1 0xA0 SHL SUB DUP5 AND PUSH1 0x0 SWAP1 DUP2 MSTORE PUSH1 0x2 PUSH1 0x20 MSTORE PUSH1 0x40 SWAP1 KECCAK256 DUP1 SLOAD PUSH1 0xFF NOT AND PUSH1 0x1 OR SWAP1 SSTORE PUSH2 0xBB2 JUMP JUMPDEST PUSH1 0x1 PUSH1 0x1 PUSH1 0xA0 SHL SUB DUP6 AND PUSH1 0x0 SWAP1 DUP2 MSTORE PUSH1 0x3 PUSH1 0x20 MSTORE PUSH1 0x40 SWAP1 KECCAK256 SLOAD PUSH1 0xFF AND ISZERO DUP1 ISZERO PUSH2 0xACA JUMPI POP DUP3 MLOAD ISZERO JUMPDEST DUP1 ISZERO PUSH2 0xB57 JUMPI POP DUP5 EXTCODESIZE ISZERO ISZERO DUP1 PUSH2 0xAF8 JUMPI POP PUSH1 0x1 PUSH1 0x1 PUSH1 0xA0 SHL SUB DUP6 AND PUSH1 0x0 SWAP1 DUP2 MSTORE PUSH1 0x2 PUSH1 0x20 MSTORE PUSH1 0x40 SWAP1 KECCAK256 SLOAD PUSH1 0xFF AND JUMPDEST DUP1 PUSH2 0xB1B JUMPI POP PUSH16 0xFFFFFFFFFFFFFFFFFFFFFFFFFFFFFFFF PUSH1 0x1 PUSH1 0x1 PUSH1 0xA0 SHL SUB DUP7 AND LT JUMPDEST DUP1 PUSH2 0xB57 JUMPI POP PUSH1 0x1 PUSH1 0x1 PUSH1 0xA0 SHL SUB DUP1 DUP8 AND PUSH1 0x0 SWAP1 DUP2 MSTORE PUSH1 0x5 PUSH1 0x20 SWAP1 DUP2 MSTORE PUSH1 0x40 DUP1 DUP4 KECCAK256 SWAP4 DUP10 AND DUP4 MSTORE SWAP3 SWAP1 MSTORE KECCAK256 SLOAD TIMESTAMP SWAP1 PUSH2 0xB54 SWAP1 DUP4 SWAP1 PUSH2 0x1A36 JUMP JUMPDEST LT ISZERO JUMPDEST ISZERO PUSH2 0xBB2 JUMPI PUSH1 0x40 MLOAD PUSH3 0x461BCD PUSH1 0xE5 SHL DUP2 MSTORE PUSH1 0x20 PUSH1 0x4 DUP3 ADD MSTORE PUSH1 0x25 PUSH1 0x24 DUP3 ADD MSTORE PUSH32 0x4342443A205472616E7366657273206172652074656D706F7261727920646973 PUSH1 0x44 DUP3 ADD MSTORE PUSH5 0x18589B1959 PUSH1 0xDA SHL PUSH1 0x64 DUP3 ADD MSTORE PUSH1 0x84 ADD PUSH2 0x54F JUMP JUMPDEST POP PUSH1 0x1 PUSH1 0x1 PUSH1 0xA0 SHL SUB DUP1 DUP7 AND PUSH1 0x0 SWAP1 DUP2 MSTORE PUSH1 0x5 PUSH1 0x20 SWAP1 DUP2 MSTORE PUSH1 0x40 DUP1 DUP4 KECCAK256 SWAP4 DUP8 AND DUP4 MSTORE SWAP3 SWAP1 MSTORE KECCAK256 TIMESTAMP SWAP1 SSTORE POP SWAP4 SWAP3 POP POP POP JUMP JUMPDEST PUSH1 0x0 DUP3 DUP2 MSTORE PUSH1 0x1 PUSH1 0x20 MSTORE PUSH1 0x40 DUP2 KECCAK256 PUSH2 0xBFB SWAP1 DUP4 PUSH2 0x12EA JUMP JUMPDEST SWAP4 SWAP3 POP POP POP JUMP JUMPDEST PUSH1 0x0 SWAP2 DUP3 MSTORE PUSH1 0x20 DUP3 DUP2 MSTORE PUSH1 0x40 DUP1 DUP5 KECCAK256 PUSH1 0x1 PUSH1 0x1 PUSH1 0xA0 SHL SUB SWAP4 SWAP1 SWAP4 AND DUP5 MSTORE SWAP2 SWAP1 MSTORE SWAP1 KECCAK256 SLOAD PUSH1 0xFF AND SWAP1 JUMP JUMPDEST PUSH1 0x0 DUP1 PUSH2 0xC38 DUP2 CALLER PUSH2 0x10CE JUMP JUMPDEST POP POP PUSH1 0x1 PUSH1 0x1 PUSH1 0xA0 SHL SUB AND PUSH1 0x0 SWAP1 DUP2 MSTORE PUSH1 0x6 PUSH1 0x20 MSTORE PUSH1 0x40 SWAP1 KECCAK256 SLOAD SWAP1 JUMP JUMPDEST PUSH1 0x0 PUSH2 0xC61 DUP2 CALLER PUSH2 0x10CE JUMP JUMPDEST PUSH1 0x0 JUMPDEST DUP4 DUP2 LT ISZERO PUSH2 0x788 JUMPI DUP3 PUSH1 0x3 PUSH1 0x0 DUP8 DUP8 DUP6 DUP2 DUP2 LT PUSH2 0xC83 JUMPI PUSH2 0xC83 PUSH2 0x19D6 JUMP JUMPDEST SWAP1 POP PUSH1 0x20 MUL ADD PUSH1 0x20 DUP2 ADD SWAP1 PUSH2 0xC98 SWAP2 SWAP1 PUSH2 0x1636 JUMP JUMPDEST PUSH1 0x1 PUSH1 0x1 PUSH1 0xA0 SHL SUB AND DUP2 MSTORE PUSH1 0x20 DUP2 ADD SWAP2 SWAP1 SWAP2 MSTORE PUSH1 0x40 ADD PUSH1 0x0 KECCAK256 DUP1 SLOAD PUSH1 0xFF NOT AND SWAP2 ISZERO ISZERO SWAP2 SWAP1 SWAP2 OR SWAP1 SSTORE DUP1 PUSH2 0xCCA DUP2 PUSH2 0x1A02 JUMP JUMPDEST SWAP2 POP POP PUSH2 0xC64 JUMP JUMPDEST PUSH1 0x0 PUSH2 0xCDE DUP2 CALLER PUSH2 0x10CE JUMP JUMPDEST PUSH1 0x1 PUSH1 0x1 PUSH1 0xA0 SHL SUB DUP3 AND PUSH1 0x0 SWAP1 DUP2 MSTORE PUSH1 0x2 PUSH1 0x20 MSTORE PUSH1 0x40 SWAP1 KECCAK256 SLOAD PUSH1 0xFF AND PUSH2 0xD32 JUMPI PUSH1 0x40 MLOAD PUSH3 0x461BCD PUSH1 0xE5 SHL DUP2 MSTORE PUSH1 0x20 PUSH1 0x4 DUP3 ADD MSTORE PUSH1 0x9 PUSH1 0x24 DUP3 ADD MSTORE PUSH9 0x10D0910E8808589BDD PUSH1 0xBA SHL PUSH1 0x44 DUP3 ADD MSTORE PUSH1 0x64 ADD PUSH2 0x54F JUMP JUMPDEST POP PUSH1 0x1 PUSH1 0x1 PUSH1 0xA0 SHL SUB AND PUSH1 0x0 SWAP1 DUP2 MSTORE PUSH1 0x2 PUSH1 0x20 MSTORE PUSH1 0x40 SWAP1 KECCAK256 DUP1 SLOAD PUSH1 0xFF NOT AND SWAP1 SSTORE JUMP JUMPDEST PUSH1 0x0 PUSH2 0xD60 DUP2 CALLER PUSH2 0x10CE JUMP JUMPDEST PUSH1 0x0 JUMPDEST DUP4 DUP2 LT ISZERO PUSH2 0x788 JUMPI DUP3 PUSH1 0x6 PUSH1 0x0 DUP8 DUP8 DUP6 DUP2 DUP2 LT PUSH2 0xD82 JUMPI PUSH2 0xD82 PUSH2 0x19D6 JUMP JUMPDEST SWAP1 POP PUSH1 0x20 MUL ADD PUSH1 0x20 DUP2 ADD SWAP1 PUSH2 0xD97 SWAP2 SWAP1 PUSH2 0x1636 JUMP JUMPDEST PUSH1 0x1 PUSH1 0x1 PUSH1 0xA0 SHL SUB AND DUP2 MSTORE PUSH1 0x20 DUP2 ADD SWAP2 SWAP1 SWAP2 MSTORE PUSH1 0x40 ADD PUSH1 0x0 KECCAK256 SSTORE DUP1 PUSH2 0xDBB DUP2 PUSH2 0x1A02 JUMP JUMPDEST SWAP2 POP POP PUSH2 0xD63 JUMP JUMPDEST PUSH1 0x0 DUP2 DUP2 MSTORE PUSH1 0x1 PUSH1 0x20 MSTORE PUSH1 0x40 DUP2 KECCAK256 PUSH2 0x470 SWAP1 PUSH2 0x12F6 JUMP JUMPDEST PUSH2 0x6B9 DUP3 DUP3 PUSH2 0x1300 JUMP JUMPDEST PUSH1 0x0 DUP1 PUSH2 0xDF1 DUP2 CALLER PUSH2 0x10CE JUMP JUMPDEST POP POP PUSH1 0x1 PUSH1 0x1 PUSH1 0xA0 SHL SUB AND PUSH1 0x0 SWAP1 DUP2 MSTORE PUSH1 0x3 PUSH1 0x20 MSTORE PUSH1 0x40 SWAP1 KECCAK256 SLOAD PUSH1 0xFF AND SWAP1 JUMP JUMPDEST PUSH1 0x0 DUP1 PUSH2 0xE1E DUP2 CALLER PUSH2 0x10CE JUMP JUMPDEST PUSH1 0x1 PUSH1 0x1 PUSH1 0xA0 SHL SUB DUP4 AND PUSH1 0x0 SWAP1 DUP2 MSTORE PUSH1 0x4 PUSH1 0x20 MSTORE PUSH1 0x40 SWAP1 KECCAK256 SLOAD PUSH2 0xE43 JUMPI PUSH2 0x12C PUSH2 0xBFB JUMP JUMPDEST POP POP PUSH1 0x1 PUSH1 0x1 PUSH1 0xA0 SHL SUB AND PUSH1 0x0 SWAP1 DUP2 MSTORE PUSH1 0x4 PUSH1 0x20 MSTORE PUSH1 0x40 SWAP1 KECCAK256 SLOAD SWAP1 JUMP JUMPDEST PUSH1 0x0 DUP1 PUSH2 0xE6D DUP2 CALLER PUSH2 0x10CE JUMP JUMPDEST PUSH1 0x1 PUSH1 0x1 PUSH1 0xA0 SHL SUB DUP4 AND PUSH1 0x0 SWAP1 DUP2 MSTORE PUSH1 0x2 PUSH1 0x20 MSTORE PUSH1 0x40 SWAP1 KECCAK256 SLOAD PUSH1 0xFF AND DUP1 ISZERO PUSH2 0xBFB JUMPI POP POP POP PUSH1 0x1 PUSH1 0x1 PUSH1 0xA0 SHL SUB AND PUSH1 0x0 SWAP1 DUP2 MSTORE PUSH1 0x3 PUSH1 0x20 MSTORE PUSH1 0x40 SWAP1 KECCAK256 SLOAD PUSH1 0xFF AND ISZERO SWAP1 JUMP JUMPDEST PUSH1 0x0 PUSH2 0xEBD DUP2 CALLER PUSH2 0x10CE JUMP JUMPDEST POP PUSH1 0x1 PUSH1 0x1 PUSH1 0xA0 SHL SUB SWAP1 SWAP2 AND PUSH1 0x0 SWAP1 DUP2 MSTORE PUSH1 0x4 PUSH1 0x20 MSTORE PUSH1 0x40 SWAP1 KECCAK256 SSTORE JUMP JUMPDEST PUSH2 0xEE4 DUP3 DUP3 PUSH2 0x1326 JUMP JUMPDEST POP POP JUMP JUMPDEST PUSH1 0x0 PUSH2 0xBFB DUP4 PUSH1 0x1 PUSH1 0x1 PUSH1 0xA0 SHL SUB DUP5 AND PUSH2 0x13AA JUMP JUMPDEST PUSH1 0x60 PUSH1 0x0 PUSH2 0xF0C DUP4 PUSH1 0x2 PUSH2 0x1A4E JUMP JUMPDEST PUSH2 0xF17 SWAP1 PUSH1 0x2 PUSH2 0x1A36 JUMP JUMPDEST PUSH8 0xFFFFFFFFFFFFFFFF DUP2 GT ISZERO PUSH2 0xF2F JUMPI PUSH2 0xF2F PUSH2 0x1651 JUMP JUMPDEST PUSH1 0x40 MLOAD SWAP1 DUP1 DUP3 MSTORE DUP1 PUSH1 0x1F ADD PUSH1 0x1F NOT AND PUSH1 0x20 ADD DUP3 ADD PUSH1 0x40 MSTORE DUP1 ISZERO PUSH2 0xF59 JUMPI PUSH1 0x20 DUP3 ADD DUP2 DUP1 CALLDATASIZE DUP4 CALLDATACOPY ADD SWAP1 POP JUMPDEST POP SWAP1 POP PUSH1 0x3 PUSH1 0xFC SHL DUP2 PUSH1 0x0 DUP2 MLOAD DUP2 LT PUSH2 0xF74 JUMPI PUSH2 0xF74 PUSH2 0x19D6 JUMP JUMPDEST PUSH1 0x20 ADD ADD SWAP1 PUSH1 0x1 PUSH1 0x1 PUSH1 0xF8 SHL SUB NOT AND SWAP1 DUP2 PUSH1 0x0 BYTE SWAP1 MSTORE8 POP PUSH1 0xF PUSH1 0xFB SHL DUP2 PUSH1 0x1 DUP2 MLOAD DUP2 LT PUSH2 0xFA3 JUMPI PUSH2 0xFA3 PUSH2 0x19D6 JUMP JUMPDEST PUSH1 0x20 ADD ADD SWAP1 PUSH1 0x1 PUSH1 0x1 PUSH1 0xF8 SHL SUB NOT AND SWAP1 DUP2 PUSH1 0x0 BYTE SWAP1 MSTORE8 POP PUSH1 0x0 PUSH2 0xFC7 DUP5 PUSH1 0x2 PUSH2 0x1A4E JUMP JUMPDEST PUSH2 0xFD2 SWAP1 PUSH1 0x1 PUSH2 0x1A36 JUMP JUMPDEST SWAP1 POP JUMPDEST PUSH1 0x1 DUP2 GT ISZERO PUSH2 0x104A JUMPI PUSH16 0x181899199A1A9B1B9C1CB0B131B232B3 PUSH1 0x81 SHL DUP6 PUSH1 0xF AND PUSH1 0x10 DUP2 LT PUSH2 0x1006 JUMPI PUSH2 0x1006 PUSH2 0x19D6 JUMP JUMPDEST BYTE PUSH1 0xF8 SHL DUP3 DUP3 DUP2 MLOAD DUP2 LT PUSH2 0x101C JUMPI PUSH2 0x101C PUSH2 0x19D6 JUMP JUMPDEST PUSH1 0x20 ADD ADD SWAP1 PUSH1 0x1 PUSH1 0x1 PUSH1 0xF8 SHL SUB NOT AND SWAP1 DUP2 PUSH1 0x0 BYTE SWAP1 MSTORE8 POP PUSH1 0x4 SWAP5 SWAP1 SWAP5 SHR SWAP4 PUSH2 0x1043 DUP2 PUSH2 0x1A6D JUMP JUMPDEST SWAP1 POP PUSH2 0xFD5 JUMP JUMPDEST POP DUP4 ISZERO PUSH2 0xBFB JUMPI PUSH1 0x40 MLOAD PUSH3 0x461BCD PUSH1 0xE5 SHL DUP2 MSTORE PUSH1 0x20 PUSH1 0x4 DUP3 ADD DUP2 SWAP1 MSTORE PUSH1 0x24 DUP3 ADD MSTORE PUSH32 0x537472696E67733A20686578206C656E67746820696E73756666696369656E74 PUSH1 0x44 DUP3 ADD MSTORE PUSH1 0x64 ADD PUSH2 0x54F JUMP JUMPDEST PUSH1 0x0 PUSH1 0x1 PUSH1 0x1 PUSH1 0xE0 SHL SUB NOT DUP3 AND PUSH4 0x7965DB0B PUSH1 0xE0 SHL EQ DUP1 PUSH2 0x470 JUMPI POP PUSH4 0x1FFC9A7 PUSH1 0xE0 SHL PUSH1 0x1 PUSH1 0x1 PUSH1 0xE0 SHL SUB NOT DUP4 AND EQ PUSH2 0x470 JUMP JUMPDEST PUSH2 0x10D8 DUP3 DUP3 PUSH2 0xC02 JUMP JUMPDEST PUSH2 0xEE4 JUMPI PUSH2 0x10F0 DUP2 PUSH1 0x1 PUSH1 0x1 PUSH1 0xA0 SHL SUB AND PUSH1 0x14 PUSH2 0xEFD JUMP JUMPDEST PUSH2 0x10FB DUP4 PUSH1 0x20 PUSH2 0xEFD JUMP JUMPDEST PUSH1 0x40 MLOAD PUSH1 0x20 ADD PUSH2 0x110C SWAP3 SWAP2 SWAP1 PUSH2 0x1AB0 JUMP JUMPDEST PUSH1 0x40 DUP1 MLOAD PUSH1 0x1F NOT DUP2 DUP5 SUB ADD DUP2 MSTORE SWAP1 DUP3 SWAP1 MSTORE PUSH3 0x461BCD PUSH1 0xE5 SHL DUP3 MSTORE PUSH2 0x54F SWAP2 PUSH1 0x4 ADD PUSH2 0x1B25 JUMP JUMPDEST PUSH2 0x692 DUP3 DUP3 PUSH2 0xEDA JUMP JUMPDEST PUSH1 0x0 PUSH2 0x1148 DUP2 CALLER PUSH2 0x10CE JUMP JUMPDEST PUSH2 0x6AA DUP4 DUP4 PUSH2 0x1326 JUMP JUMPDEST PUSH1 0x1 PUSH1 0x1 PUSH1 0xA0 SHL SUB DUP2 AND CALLER EQ PUSH2 0x11C2 JUMPI PUSH1 0x40 MLOAD PUSH3 0x461BCD PUSH1 0xE5 SHL DUP2 MSTORE PUSH1 0x20 PUSH1 0x4 DUP3 ADD MSTORE PUSH1 0x2F PUSH1 0x24 DUP3 ADD MSTORE PUSH32 0x416363657373436F6E74726F6C3A2063616E206F6E6C792072656E6F756E6365 PUSH1 0x44 DUP3 ADD MSTORE PUSH15 0x103937B632B9903337B91039B2B633 PUSH1 0x89 SHL PUSH1 0x64 DUP3 ADD MSTORE PUSH1 0x84 ADD PUSH2 0x54F JUMP JUMPDEST PUSH2 0xEE4 DUP3 DUP3 PUSH2 0x13F9 JUMP JUMPDEST PUSH1 0x0 PUSH2 0xBFB DUP4 PUSH1 0x1 PUSH1 0x1 PUSH1 0xA0 SHL SUB DUP5 AND PUSH2 0x145E JUMP JUMPDEST PUSH1 0x1 PUSH1 0x1 PUSH1 0xA0 SHL SUB DUP2 AND PUSH1 0x0 SWAP1 DUP2 MSTORE PUSH1 0x6 PUSH1 0x20 MSTORE PUSH1 0x40 DUP2 KECCAK256 SLOAD PUSH2 0x12CB JUMPI PUSH1 0x40 DUP1 MLOAD PUSH1 0x4 DUP2 MSTORE PUSH1 0x24 DUP2 ADD DUP3 MSTORE PUSH1 0x20 DUP2 ADD DUP1 MLOAD PUSH1 0x1 PUSH1 0x1 PUSH1 0xE0 SHL SUB AND PUSH4 0xD21220A7 PUSH1 0xE0 SHL OR SWAP1 MSTORE SWAP1 MLOAD PUSH1 0x1 PUSH1 0x1 PUSH1 0xA0 SHL SUB DUP5 AND SWAP1 PUSH2 0x123E SWAP1 DUP4 SWAP1 PUSH2 0x1B58 JUMP JUMPDEST PUSH1 0x0 PUSH1 0x40 MLOAD DUP1 DUP4 SUB DUP2 DUP6 GAS STATICCALL SWAP2 POP POP RETURNDATASIZE DUP1 PUSH1 0x0 DUP2 EQ PUSH2 0x1279 JUMPI PUSH1 0x40 MLOAD SWAP2 POP PUSH1 0x1F NOT PUSH1 0x3F RETURNDATASIZE ADD AND DUP3 ADD PUSH1 0x40 MSTORE RETURNDATASIZE DUP3 MSTORE RETURNDATASIZE PUSH1 0x0 PUSH1 0x20 DUP5 ADD RETURNDATACOPY PUSH2 0x127E JUMP JUMPDEST PUSH1 0x60 SWAP2 POP JUMPDEST POP DUP1 MLOAD SWAP1 SWAP3 POP ISZERO SWAP1 POP PUSH2 0x12AC JUMPI PUSH1 0x1 PUSH1 0x1 PUSH1 0xA0 SHL SUB DUP4 AND PUSH1 0x0 SWAP1 DUP2 MSTORE PUSH1 0x6 PUSH1 0x20 MSTORE PUSH1 0x40 SWAP1 KECCAK256 PUSH1 0x1 SWAP1 SSTORE PUSH2 0x12C9 JUMP JUMPDEST PUSH1 0x1 PUSH1 0x1 PUSH1 0xA0 SHL SUB DUP4 AND PUSH1 0x0 SWAP1 DUP2 MSTORE PUSH1 0x6 PUSH1 0x20 MSTORE PUSH1 0x40 SWAP1 KECCAK256 PUSH1 0x2 SWAP1 SSTORE JUMPDEST POP JUMPDEST POP PUSH1 0x1 PUSH1 0x1 PUSH1 0xA0 SHL SUB AND PUSH1 0x0 SWAP1 DUP2 MSTORE PUSH1 0x6 PUSH1 0x20 MSTORE PUSH1 0x40 SWAP1 KECCAK256 SLOAD PUSH1 0x1 EQ SWAP1 JUMP JUMPDEST PUSH1 0x0 PUSH2 0xBFB DUP4 DUP4 PUSH2 0x1551 JUMP JUMPDEST PUSH1 0x0 PUSH2 0x470 DUP3 SLOAD SWAP1 JUMP JUMPDEST PUSH1 0x0 DUP3 DUP2 MSTORE PUSH1 0x20 DUP2 SWAP1 MSTORE PUSH1 0x40 SWAP1 KECCAK256 PUSH1 0x1 ADD SLOAD PUSH2 0x131C DUP2 CALLER PUSH2 0x10CE JUMP JUMPDEST PUSH2 0x6AA DUP4 DUP4 PUSH2 0x13F9 JUMP JUMPDEST PUSH2 0x1330 DUP3 DUP3 PUSH2 0xC02 JUMP JUMPDEST PUSH2 0xEE4 JUMPI PUSH1 0x0 DUP3 DUP2 MSTORE PUSH1 0x20 DUP2 DUP2 MSTORE PUSH1 0x40 DUP1 DUP4 KECCAK256 PUSH1 0x1 PUSH1 0x1 PUSH1 0xA0 SHL SUB DUP6 AND DUP5 MSTORE SWAP1 SWAP2 MSTORE SWAP1 KECCAK256 DUP1 SLOAD PUSH1 0xFF NOT AND PUSH1 0x1 OR SWAP1 SSTORE PUSH2 0x1366 CALLER SWAP1 JUMP JUMPDEST PUSH1 0x1 PUSH1 0x1 PUSH1 0xA0 SHL SUB AND DUP2 PUSH1 0x1 PUSH1 0x1 PUSH1 0xA0 SHL SUB AND DUP4 PUSH32 0x2F8788117E7EFF1D82E926EC794901D17C78024A50270940304540A733656F0D PUSH1 0x40 MLOAD PUSH1 0x40 MLOAD DUP1 SWAP2 SUB SWAP1 LOG4 POP POP JUMP JUMPDEST PUSH1 0x0 DUP2 DUP2 MSTORE PUSH1 0x1 DUP4 ADD PUSH1 0x20 MSTORE PUSH1 0x40 DUP2 KECCAK256 SLOAD PUSH2 0x13F1 JUMPI POP DUP2 SLOAD PUSH1 0x1 DUP2 DUP2 ADD DUP5 SSTORE PUSH1 0x0 DUP5 DUP2 MSTORE PUSH1 0x20 DUP1 DUP3 KECCAK256 SWAP1 SWAP4 ADD DUP5 SWAP1 SSTORE DUP5 SLOAD DUP5 DUP3 MSTORE DUP3 DUP7 ADD SWAP1 SWAP4 MSTORE PUSH1 0x40 SWAP1 KECCAK256 SWAP2 SWAP1 SWAP2 SSTORE PUSH2 0x470 JUMP JUMPDEST POP PUSH1 0x0 PUSH2 0x470 JUMP JUMPDEST PUSH2 0x1403 DUP3 DUP3 PUSH2 0xC02 JUMP JUMPDEST ISZERO PUSH2 0xEE4 JUMPI PUSH1 0x0 DUP3 DUP2 MSTORE PUSH1 0x20 DUP2 DUP2 MSTORE PUSH1 0x40 DUP1 DUP4 KECCAK256 PUSH1 0x1 PUSH1 0x1 PUSH1 0xA0 SHL SUB DUP6 AND DUP1 DUP6 MSTORE SWAP3 MSTORE DUP1 DUP4 KECCAK256 DUP1 SLOAD PUSH1 0xFF NOT AND SWAP1 SSTORE MLOAD CALLER SWAP3 DUP6 SWAP2 PUSH32 0xF6391F5C32D9C69D2A47EA670B442974B53935D1EDC7FD64EB21E047A839171B SWAP2 SWAP1 LOG4 POP POP JUMP JUMPDEST PUSH1 0x0 DUP2 DUP2 MSTORE PUSH1 0x1 DUP4 ADD PUSH1 0x20 MSTORE PUSH1 0x40 DUP2 KECCAK256 SLOAD DUP1 ISZERO PUSH2 0x1547 JUMPI PUSH1 0x0 PUSH2 0x1482 PUSH1 0x1 DUP4 PUSH2 0x1B74 JUMP JUMPDEST DUP6 SLOAD SWAP1 SWAP2 POP PUSH1 0x0 SWAP1 PUSH2 0x1496 SWAP1 PUSH1 0x1 SWAP1 PUSH2 0x1B74 JUMP JUMPDEST SWAP1 POP DUP2 DUP2 EQ PUSH2 0x14FB JUMPI PUSH1 0x0 DUP7 PUSH1 0x0 ADD DUP3 DUP2 SLOAD DUP2 LT PUSH2 0x14B6 JUMPI PUSH2 0x14B6 PUSH2 0x19D6 JUMP JUMPDEST SWAP1 PUSH1 0x0 MSTORE PUSH1 0x20 PUSH1 0x0 KECCAK256 ADD SLOAD SWAP1 POP DUP1 DUP8 PUSH1 0x0 ADD DUP5 DUP2 SLOAD DUP2 LT PUSH2 0x14D9 JUMPI PUSH2 0x14D9 PUSH2 0x19D6 JUMP JUMPDEST PUSH1 0x0 SWAP2 DUP3 MSTORE PUSH1 0x20 DUP1 DUP4 KECCAK256 SWAP1 SWAP2 ADD SWAP3 SWAP1 SWAP3 SSTORE SWAP2 DUP3 MSTORE PUSH1 0x1 DUP9 ADD SWAP1 MSTORE PUSH1 0x40 SWAP1 KECCAK256 DUP4 SWAP1 SSTORE JUMPDEST DUP6 SLOAD DUP7 SWAP1 DUP1 PUSH2 0x150C JUMPI PUSH2 0x150C PUSH2 0x1B8B JUMP JUMPDEST PUSH1 0x1 SWAP1 SUB DUP2 DUP2 SWAP1 PUSH1 0x0 MSTORE PUSH1 0x20 PUSH1 0x0 KECCAK256 ADD PUSH1 0x0 SWAP1 SSTORE SWAP1 SSTORE DUP6 PUSH1 0x1 ADD PUSH1 0x0 DUP7 DUP2 MSTORE PUSH1 0x20 ADD SWAP1 DUP2 MSTORE PUSH1 0x20 ADD PUSH1 0x0 KECCAK256 PUSH1 0x0 SWAP1 SSTORE PUSH1 0x1 SWAP4 POP POP POP POP PUSH2 0x470 JUMP JUMPDEST PUSH1 0x0 SWAP2 POP POP PUSH2 0x470 JUMP JUMPDEST PUSH1 0x0 DUP3 PUSH1 0x0 ADD DUP3 DUP2 SLOAD DUP2 LT PUSH2 0x1568 JUMPI PUSH2 0x1568 PUSH2 0x19D6 JUMP JUMPDEST SWAP1 PUSH1 0x0 MSTORE PUSH1 0x20 PUSH1 0x0 KECCAK256 ADD SLOAD SWAP1 POP SWAP3 SWAP2 POP POP JUMP JUMPDEST PUSH1 0x0 PUSH1 0x20 DUP3 DUP5 SUB SLT ISZERO PUSH2 0x158D JUMPI PUSH1 0x0 DUP1 REVERT JUMPDEST DUP2 CALLDATALOAD PUSH1 0x1 PUSH1 0x1 PUSH1 0xE0 SHL SUB NOT DUP2 AND DUP2 EQ PUSH2 0xBFB JUMPI PUSH1 0x0 DUP1 REVERT JUMPDEST PUSH1 0x0 DUP1 PUSH1 0x20 DUP4 DUP6 SUB SLT ISZERO PUSH2 0x15B8 JUMPI PUSH1 0x0 DUP1 REVERT JUMPDEST DUP3 CALLDATALOAD PUSH8 0xFFFFFFFFFFFFFFFF DUP1 DUP3 GT ISZERO PUSH2 0x15D0 JUMPI PUSH1 0x0 DUP1 REVERT JUMPDEST DUP2 DUP6 ADD SWAP2 POP DUP6 PUSH1 0x1F DUP4 ADD SLT PUSH2 0x15E4 JUMPI PUSH1 0x0 DUP1 REVERT JUMPDEST DUP2 CALLDATALOAD DUP2 DUP2 GT ISZERO PUSH2 0x15F3 JUMPI PUSH1 0x0 DUP1 REVERT JUMPDEST DUP7 PUSH1 0x20 DUP3 PUSH1 0x6 SHL DUP6 ADD ADD GT ISZERO PUSH2 0x1608 JUMPI PUSH1 0x0 DUP1 REVERT JUMPDEST PUSH1 0x20 SWAP3 SWAP1 SWAP3 ADD SWAP7 SWAP2 SWAP6 POP SWAP1 SWAP4 POP POP POP POP JUMP JUMPDEST DUP1 CALLDATALOAD PUSH1 0x1 PUSH1 0x1 PUSH1 0xA0 SHL SUB DUP2 AND DUP2 EQ PUSH2 0x1631 JUMPI PUSH1 0x0 DUP1 REVERT JUMPDEST SWAP2 SWAP1 POP JUMP JUMPDEST PUSH1 0x0 PUSH1 0x20 DUP3 DUP5 SUB SLT ISZERO PUSH2 0x1648 JUMPI PUSH1 0x0 DUP1 REVERT JUMPDEST PUSH2 0xBFB DUP3 PUSH2 0x161A JUMP JUMPDEST PUSH4 0x4E487B71 PUSH1 0xE0 SHL PUSH1 0x0 MSTORE PUSH1 0x41 PUSH1 0x4 MSTORE PUSH1 0x24 PUSH1 0x0 REVERT JUMPDEST PUSH1 0x0 PUSH1 0x20 DUP1 DUP4 DUP6 SUB SLT ISZERO PUSH2 0x167A JUMPI PUSH1 0x0 DUP1 REVERT JUMPDEST DUP3 CALLDATALOAD PUSH8 0xFFFFFFFFFFFFFFFF DUP1 DUP3 GT ISZERO PUSH2 0x1692 JUMPI PUSH1 0x0 DUP1 REVERT JUMPDEST DUP2 DUP6 ADD SWAP2 POP DUP6 PUSH1 0x1F DUP4 ADD SLT PUSH2 0x16A6 JUMPI PUSH1 0x0 DUP1 REVERT JUMPDEST DUP2 CALLDATALOAD DUP2 DUP2 GT ISZERO PUSH2 0x16B8 JUMPI PUSH2 0x16B8 PUSH2 0x1651 JUMP JUMPDEST DUP1 PUSH1 0x5 SHL PUSH1 0x40 MLOAD PUSH1 0x1F NOT PUSH1 0x3F DUP4 ADD AND DUP2 ADD DUP2 DUP2 LT DUP6 DUP3 GT OR ISZERO PUSH2 0x16DD JUMPI PUSH2 0x16DD PUSH2 0x1651 JUMP JUMPDEST PUSH1 0x40 MSTORE SWAP2 DUP3 MSTORE DUP5 DUP3 ADD SWAP3 POP DUP4 DUP2 ADD DUP6 ADD SWAP2 DUP9 DUP4 GT ISZERO PUSH2 0x16FB JUMPI PUSH1 0x0 DUP1 REVERT JUMPDEST SWAP4 DUP6 ADD SWAP4 JUMPDEST DUP3 DUP6 LT ISZERO PUSH2 0x1720 JUMPI PUSH2 0x1711 DUP6 PUSH2 0x161A JUMP JUMPDEST DUP5 MSTORE SWAP4 DUP6 ADD SWAP4 SWAP3 DUP6 ADD SWAP3 PUSH2 0x1700 JUMP JUMPDEST SWAP9 SWAP8 POP POP POP POP POP POP POP POP JUMP JUMPDEST PUSH1 0x20 DUP1 DUP3 MSTORE DUP3 MLOAD DUP3 DUP3 ADD DUP2 SWAP1 MSTORE PUSH1 0x0 SWAP2 SWAP1 DUP5 DUP3 ADD SWAP1 PUSH1 0x40 DUP6 ADD SWAP1 DUP5 JUMPDEST DUP2 DUP2 LT ISZERO PUSH2 0x176D JUMPI DUP4 MLOAD PUSH1 0x1 PUSH1 0x1 PUSH1 0xA0 SHL SUB AND DUP4 MSTORE SWAP3 DUP5 ADD SWAP3 SWAP2 DUP5 ADD SWAP2 PUSH1 0x1 ADD PUSH2 0x1748 JUMP JUMPDEST POP SWAP1 SWAP7 SWAP6 POP POP POP POP POP POP JUMP JUMPDEST PUSH1 0x0 DUP1 PUSH1 0x40 DUP4 DUP6 SUB SLT ISZERO PUSH2 0x178C JUMPI PUSH1 0x0 DUP1 REVERT JUMPDEST PUSH2 0x1795 DUP4 PUSH2 0x161A JUMP JUMPDEST SWAP5 PUSH1 0x20 SWAP4 SWAP1 SWAP4 ADD CALLDATALOAD SWAP4 POP POP POP JUMP JUMPDEST DUP1 CALLDATALOAD DUP1 ISZERO ISZERO DUP2 EQ PUSH2 0x1631 JUMPI PUSH1 0x0 DUP1 REVERT JUMPDEST PUSH1 0x0 DUP1 PUSH1 0x40 DUP4 DUP6 SUB SLT ISZERO PUSH2 0x17C6 JUMPI PUSH1 0x0 DUP1 REVERT JUMPDEST PUSH2 0x17CF DUP4 PUSH2 0x161A JUMP JUMPDEST SWAP2 POP PUSH2 0x17DD PUSH1 0x20 DUP5 ADD PUSH2 0x17A3 JUMP JUMPDEST SWAP1 POP SWAP3 POP SWAP3 SWAP1 POP JUMP JUMPDEST PUSH1 0x0 PUSH1 0x20 DUP3 DUP5 SUB SLT ISZERO PUSH2 0x17F8 JUMPI PUSH1 0x0 DUP1 REVERT JUMPDEST POP CALLDATALOAD SWAP2 SWAP1 POP JUMP JUMPDEST PUSH1 0x0 DUP1 PUSH1 0x40 DUP4 DUP6 SUB SLT ISZERO PUSH2 0x1812 JUMPI PUSH1 0x0 DUP1 REVERT JUMPDEST DUP3 CALLDATALOAD SWAP2 POP PUSH2 0x17DD PUSH1 0x20 DUP5 ADD PUSH2 0x161A JUMP JUMPDEST PUSH1 0x0 DUP1 PUSH1 0x40 DUP4 DUP6 SUB SLT ISZERO PUSH2 0x1835 JUMPI PUSH1 0x0 DUP1 REVERT JUMPDEST PUSH2 0x183E DUP4 PUSH2 0x161A JUMP JUMPDEST SWAP2 POP PUSH2 0x17DD PUSH1 0x20 DUP5 ADD PUSH2 0x161A JUMP JUMPDEST PUSH1 0x0 DUP1 DUP4 PUSH1 0x1F DUP5 ADD SLT PUSH2 0x185E JUMPI PUSH1 0x0 DUP1 REVERT JUMPDEST POP DUP2 CALLDATALOAD PUSH8 0xFFFFFFFFFFFFFFFF DUP2 GT ISZERO PUSH2 0x1876 JUMPI PUSH1 0x0 DUP1 REVERT JUMPDEST PUSH1 0x20 DUP4 ADD SWAP2 POP DUP4 PUSH1 0x20 DUP3 PUSH1 0x5 SHL DUP6 ADD ADD GT ISZERO PUSH2 0x1891 JUMPI PUSH1 0x0 DUP1 REVERT JUMPDEST SWAP3 POP SWAP3 SWAP1 POP JUMP JUMPDEST PUSH1 0x0 DUP1 PUSH1 0x0 PUSH1 0x40 DUP5 DUP7 SUB SLT ISZERO PUSH2 0x18AD JUMPI PUSH1 0x0 DUP1 REVERT JUMPDEST DUP4 CALLDATALOAD PUSH8 0xFFFFFFFFFFFFFFFF DUP2 GT ISZERO PUSH2 0x18C4 JUMPI PUSH1 0x0 DUP1 REVERT JUMPDEST PUSH2 0x18D0 DUP7 DUP3 DUP8 ADD PUSH2 0x184C JUMP JUMPDEST SWAP1 SWAP5 POP SWAP3 POP PUSH2 0x18E3 SWAP1 POP PUSH1 0x20 DUP6 ADD PUSH2 0x17A3 JUMP JUMPDEST SWAP1 POP SWAP3 POP SWAP3 POP SWAP3 JUMP JUMPDEST PUSH1 0x0 DUP1 PUSH1 0x20 DUP4 DUP6 SUB SLT ISZERO PUSH2 0x18FF JUMPI PUSH1 0x0 DUP1 REVERT JUMPDEST DUP3 CALLDATALOAD PUSH8 0xFFFFFFFFFFFFFFFF DUP2 GT ISZERO PUSH2 0x1916 JUMPI PUSH1 0x0 DUP1 REVERT JUMPDEST PUSH2 0x1922 DUP6 DUP3 DUP7 ADD PUSH2 0x184C JUMP JUMPDEST SWAP1 SWAP7 SWAP1 SWAP6 POP SWAP4 POP POP POP POP JUMP JUMPDEST PUSH1 0x0 DUP1 PUSH1 0x0 PUSH1 0x60 DUP5 DUP7 SUB SLT ISZERO PUSH2 0x1943 JUMPI PUSH1 0x0 DUP1 REVERT JUMPDEST PUSH2 0x194C DUP5 PUSH2 0x161A JUMP JUMPDEST SWAP3 POP PUSH2 0x195A PUSH1 0x20 DUP6 ADD PUSH2 0x161A JUMP JUMPDEST SWAP2 POP PUSH2 0x18E3 PUSH1 0x40 DUP6 ADD PUSH2 0x161A JUMP JUMPDEST PUSH1 0x0 DUP1 PUSH1 0x40 DUP4 DUP6 SUB SLT ISZERO PUSH2 0x197B JUMPI PUSH1 0x0 DUP1 REVERT JUMPDEST POP POP DUP1 CALLDATALOAD SWAP3 PUSH1 0x20 SWAP1 SWAP2 ADD CALLDATALOAD SWAP2 POP JUMP JUMPDEST PUSH1 0x0 DUP1 PUSH1 0x0 PUSH1 0x40 DUP5 DUP7 SUB SLT ISZERO PUSH2 0x199F JUMPI PUSH1 0x0 DUP1 REVERT JUMPDEST DUP4 CALLDATALOAD PUSH8 0xFFFFFFFFFFFFFFFF DUP2 GT ISZERO PUSH2 0x19B6 JUMPI PUSH1 0x0 DUP1 REVERT JUMPDEST PUSH2 0x19C2 DUP7 DUP3 DUP8 ADD PUSH2 0x184C JUMP JUMPDEST SWAP1 SWAP8 SWAP1 SWAP7 POP PUSH1 0x20 SWAP6 SWAP1 SWAP6 ADD CALLDATALOAD SWAP5 SWAP4 POP POP POP POP JUMP JUMPDEST PUSH4 0x4E487B71 PUSH1 0xE0 SHL PUSH1 0x0 MSTORE PUSH1 0x32 PUSH1 0x4 MSTORE PUSH1 0x24 PUSH1 0x0 REVERT JUMPDEST PUSH4 0x4E487B71 PUSH1 0xE0 SHL PUSH1 0x0 MSTORE PUSH1 0x11 PUSH1 0x4 MSTORE PUSH1 0x24 PUSH1 0x0 REVERT JUMPDEST PUSH1 0x0 PUSH1 0x0 NOT DUP3 EQ ISZERO PUSH2 0x1A16 JUMPI PUSH2 0x1A16 PUSH2 0x19EC JUMP JUMPDEST POP PUSH1 0x1 ADD SWAP1 JUMP JUMPDEST PUSH1 0x0 PUSH1 0x20 DUP3 DUP5 SUB SLT ISZERO PUSH2 0x1A2F JUMPI PUSH1 0x0 DUP1 REVERT JUMPDEST POP MLOAD SWAP2 SWAP1 POP JUMP JUMPDEST PUSH1 0x0 DUP3 NOT DUP3 GT ISZERO PUSH2 0x1A49 JUMPI PUSH2 0x1A49 PUSH2 0x19EC JUMP JUMPDEST POP ADD SWAP1 JUMP JUMPDEST PUSH1 0x0 DUP2 PUSH1 0x0 NOT DIV DUP4 GT DUP3 ISZERO ISZERO AND ISZERO PUSH2 0x1A68 JUMPI PUSH2 0x1A68 PUSH2 0x19EC JUMP JUMPDEST POP MUL SWAP1 JUMP JUMPDEST PUSH1 0x0 DUP2 PUSH2 0x1A7C JUMPI PUSH2 0x1A7C PUSH2 0x19EC JUMP JUMPDEST POP PUSH1 0x0 NOT ADD SWAP1 JUMP JUMPDEST PUSH1 0x0 JUMPDEST DUP4 DUP2 LT ISZERO PUSH2 0x1A9F JUMPI DUP2 DUP2 ADD MLOAD DUP4 DUP3 ADD MSTORE PUSH1 0x20 ADD PUSH2 0x1A87 JUMP JUMPDEST DUP4 DUP2 GT ISZERO PUSH2 0x4ED JUMPI POP POP PUSH1 0x0 SWAP2 ADD MSTORE JUMP JUMPDEST PUSH32 0x416363657373436F6E74726F6C3A206163636F756E7420000000000000000000 DUP2 MSTORE PUSH1 0x0 DUP4 MLOAD PUSH2 0x1AE8 DUP2 PUSH1 0x17 DUP6 ADD PUSH1 0x20 DUP9 ADD PUSH2 0x1A84 JUMP JUMPDEST PUSH17 0x1034B99036B4B9B9B4B733903937B6329 PUSH1 0x7D SHL PUSH1 0x17 SWAP2 DUP5 ADD SWAP2 DUP3 ADD MSTORE DUP4 MLOAD PUSH2 0x1B19 DUP2 PUSH1 0x28 DUP5 ADD PUSH1 0x20 DUP9 ADD PUSH2 0x1A84 JUMP JUMPDEST ADD PUSH1 0x28 ADD SWAP5 SWAP4 POP POP POP POP JUMP JUMPDEST PUSH1 0x20 DUP2 MSTORE PUSH1 0x0 DUP3 MLOAD DUP1 PUSH1 0x20 DUP5 ADD MSTORE PUSH2 0x1B44 DUP2 PUSH1 0x40 DUP6 ADD PUSH1 0x20 DUP8 ADD PUSH2 0x1A84 JUMP JUMPDEST PUSH1 0x1F ADD PUSH1 0x1F NOT AND SWAP2 SWAP1 SWAP2 ADD PUSH1 0x40 ADD SWAP3 SWAP2 POP POP JUMP JUMPDEST PUSH1 0x0 DUP3 MLOAD PUSH2 0x1B6A DUP2 DUP5 PUSH1 0x20 DUP8 ADD PUSH2 0x1A84 JUMP JUMPDEST SWAP2 SWAP1 SWAP2 ADD SWAP3 SWAP2 POP POP JUMP JUMPDEST PUSH1 0x0 DUP3 DUP3 LT ISZERO PUSH2 0x1B86 JUMPI PUSH2 0x1B86 PUSH2 0x19EC JUMP JUMPDEST POP SUB SWAP1 JUMP JUMPDEST PUSH4 0x4E487B71 PUSH1 0xE0 SHL PUSH1 0x0 MSTORE PUSH1 0x31 PUSH1 0x4 MSTORE PUSH1 0x24 PUSH1 0x0 REVERT INVALID LOG2 PUSH5 0x6970667358 0x22 SLT KECCAK256 ADD PUSH3 0x6101EA CALLVALUE JUMP DUP8 0xC5 PUSH18 0xC5542069575D58B2D523B04FF5B5B9BD468F MUL DUP11 LT SWAP4 PUSH5 0x736F6C6343 STOP ADDMOD EXP STOP CALLER "
		},
		"gasEstimates": {
			"creation": {
				"codeDepositCost": "1425400",
				"executionCost": "infinite",
				"totalCost": "infinite"
			},
			"external": {
				"ROLE_ADMIN()": "262",
				"bulkMarkAddressAsBot(address[])": "infinite",
				"bulkMarkAddressAsBotBool(address[],bool)": "infinite",
				"bulkMarkAddressAsHuman(address[],bool)": "infinite",
				"bulkMarkAsUniswapPair(address[],uint256)": "infinite",
				"checkTransactionInfo(address,address,address)": "infinite",
				"getCooldownPeriodSell(address)": "infinite",
				"getReceiveTimestamp(address,address)": "infinite",
				"getRoleAdmin(bytes32)": "2559",
				"getRoleMember(bytes32,uint256)": "infinite",
				"getRoleMemberCount(bytes32)": "infinite",
				"grantRole(bytes32,address)": "infinite",
				"grantRolesBulk((bytes32,address)[])": "infinite",
				"hasRole(bytes32,address)": "2741",
				"isBotAddress(address)": "infinite",
				"isMarkedAsBotStorage(address)": "infinite",
				"isMarkedAsBotStorageBulk(address[])": "infinite",
				"isMarkedAsHumanStorage(address)": "infinite",
				"isMarkedAsHumanStorageBulk(address[])": "infinite",
				"isUniswapPair(address)": "infinite",
				"markAddressAsBot(address)": "infinite",
				"markAddressAsHuman(address,bool)": "infinite",
				"markAddressAsNotBot(address)": "infinite",
				"markAsUniswapPair(address,uint256)": "infinite",
				"renounceRole(bytes32,address)": "infinite",
				"revokeRole(bytes32,address)": "infinite",
				"supportsInterface(bytes4)": "infinite",
				"updateCooldownPeriodSell(address,uint256)": "infinite"
			},
			"internal": {
				"isContract(address)": "infinite",
				"isUniswapPairChecker(address)": "infinite"
			}
		},
		"methodIdentifiers": {
			"ROLE_ADMIN()": "d391014b",
			"bulkMarkAddressAsBot(address[])": "6a930a95",
			"bulkMarkAddressAsBotBool(address[],bool)": "404a8cca",
			"bulkMarkAddressAsHuman(address[],bool)": "a8798ffc",
			"bulkMarkAsUniswapPair(address[],uint256)": "bb92e42c",
			"checkTransactionInfo(address,address,address)": "7d7e0d2b",
			"getCooldownPeriodSell(address)": "e53fd775",
			"getReceiveTimestamp(address,address)": "391bc2e5",
			"getRoleAdmin(bytes32)": "248a9ca3",
			"getRoleMember(bytes32,uint256)": "9010d07c",
			"getRoleMemberCount(bytes32)": "ca15c873",
			"grantRole(bytes32,address)": "2f2ff15d",
			"grantRolesBulk((bytes32,address)[])": "03ed957f",
			"hasRole(bytes32,address)": "91d14854",
			"isBotAddress(address)": "eaa8f7e3",
			"isMarkedAsBotStorage(address)": "5f242323",
			"isMarkedAsBotStorageBulk(address[])": "441c62a8",
			"isMarkedAsHumanStorage(address)": "db8aa538",
			"isMarkedAsHumanStorageBulk(address[])": "1fd413f8",
			"isUniswapPair(address)": "9cece12e",
			"markAddressAsBot(address)": "1093baa9",
			"markAddressAsHuman(address,bool)": "231683ae",
			"markAddressAsNotBot(address)": "a9a48824",
			"markAsUniswapPair(address,uint256)": "2231cac2",
			"renounceRole(bytes32,address)": "36568abe",
			"revokeRole(bytes32,address)": "d547741f",
			"supportsInterface(bytes4)": "01ffc9a7",
			"updateCooldownPeriodSell(address,uint256)": "ed0b8476"
		}
	},
	"abi": [
		{
			"inputs": [],
			"stateMutability": "nonpayable",
			"type": "constructor"
		},
		{
			"anonymous": false,
			"inputs": [
				{
					"indexed": true,
					"internalType": "bytes32",
					"name": "role",
					"type": "bytes32"
				},
				{
					"indexed": true,
					"internalType": "bytes32",
					"name": "previousAdminRole",
					"type": "bytes32"
				},
				{
					"indexed": true,
					"internalType": "bytes32",
					"name": "newAdminRole",
					"type": "bytes32"
				}
			],
			"name": "RoleAdminChanged",
			"type": "event"
		},
		{
			"anonymous": false,
			"inputs": [
				{
					"indexed": true,
					"internalType": "bytes32",
					"name": "role",
					"type": "bytes32"
				},
				{
					"indexed": true,
					"internalType": "address",
					"name": "account",
					"type": "address"
				},
				{
					"indexed": true,
					"internalType": "address",
					"name": "sender",
					"type": "address"
				}
			],
			"name": "RoleGranted",
			"type": "event"
		},
		{
			"anonymous": false,
			"inputs": [
				{
					"indexed": true,
					"internalType": "bytes32",
					"name": "role",
					"type": "bytes32"
				},
				{
					"indexed": true,
					"internalType": "address",
					"name": "account",
					"type": "address"
				},
				{
					"indexed": true,
					"internalType": "address",
					"name": "sender",
					"type": "address"
				}
			],
			"name": "RoleRevoked",
			"type": "event"
		},
		{
			"inputs": [],
			"name": "ROLE_ADMIN",
			"outputs": [
				{
					"internalType": "bytes32",
					"name": "",
					"type": "bytes32"
				}
			],
			"stateMutability": "view",
			"type": "function"
		},
		{
			"inputs": [
				{
					"internalType": "address[]",
					"name": "addrs",
					"type": "address[]"
				}
			],
			"name": "bulkMarkAddressAsBot",
			"outputs": [],
			"stateMutability": "nonpayable",
			"type": "function"
		},
		{
			"inputs": [
				{
					"internalType": "address[]",
					"name": "addrs",
					"type": "address[]"
				},
				{
					"internalType": "bool",
					"name": "value",
					"type": "bool"
				}
			],
			"name": "bulkMarkAddressAsBotBool",
			"outputs": [],
			"stateMutability": "nonpayable",
			"type": "function"
		},
		{
			"inputs": [
				{
					"internalType": "address[]",
					"name": "addrs",
					"type": "address[]"
				},
				{
					"internalType": "bool",
					"name": "value",
					"type": "bool"
				}
			],
			"name": "bulkMarkAddressAsHuman",
			"outputs": [],
			"stateMutability": "nonpayable",
			"type": "function"
		},
		{
			"inputs": [
				{
					"internalType": "address[]",
					"name": "addrs",
					"type": "address[]"
				},
				{
					"internalType": "uint256",
					"name": "value",
					"type": "uint256"
				}
			],
			"name": "bulkMarkAsUniswapPair",
			"outputs": [],
			"stateMutability": "nonpayable",
			"type": "function"
		},
		{
			"inputs": [
				{
					"internalType": "address",
					"name": "tokenAddr",
					"type": "address"
				},
				{
					"internalType": "address",
					"name": "sender",
					"type": "address"
				},
				{
					"internalType": "address",
					"name": "recipient",
					"type": "address"
				}
			],
			"name": "checkTransactionInfo",
			"outputs": [
				{
					"components": [
						{
							"internalType": "bool",
							"name": "isBuy",
							"type": "bool"
						},
						{
							"internalType": "bool",
							"name": "isSell",
							"type": "bool"
						}
					],
					"internalType": "struct TransactionInfo",
					"name": "output",
					"type": "tuple"
				}
			],
			"stateMutability": "nonpayable",
			"type": "function"
		},
		{
			"inputs": [
				{
					"internalType": "address",
					"name": "tokenAddr",
					"type": "address"
				}
			],
			"name": "getCooldownPeriodSell",
			"outputs": [
				{
					"internalType": "uint256",
					"name": "",
					"type": "uint256"
				}
			],
			"stateMutability": "view",
			"type": "function"
		},
		{
			"inputs": [
				{
					"internalType": "address",
					"name": "tokenAddr",
					"type": "address"
				},
				{
					"internalType": "address",
					"name": "addr",
					"type": "address"
				}
			],
			"name": "getReceiveTimestamp",
			"outputs": [
				{
					"internalType": "uint256",
					"name": "",
					"type": "uint256"
				}
			],
			"stateMutability": "view",
			"type": "function"
		},
		{
			"inputs": [
				{
					"internalType": "bytes32",
					"name": "role",
					"type": "bytes32"
				}
			],
			"name": "getRoleAdmin",
			"outputs": [
				{
					"internalType": "bytes32",
					"name": "",
					"type": "bytes32"
				}
			],
			"stateMutability": "view",
			"type": "function"
		},
		{
			"inputs": [
				{
					"internalType": "bytes32",
					"name": "role",
					"type": "bytes32"
				},
				{
					"internalType": "uint256",
					"name": "index",
					"type": "uint256"
				}
			],
			"name": "getRoleMember",
			"outputs": [
				{
					"internalType": "address",
					"name": "",
					"type": "address"
				}
			],
			"stateMutability": "view",
			"type": "function"
		},
		{
			"inputs": [
				{
					"internalType": "bytes32",
					"name": "role",
					"type": "bytes32"
				}
			],
			"name": "getRoleMemberCount",
			"outputs": [
				{
					"internalType": "uint256",
					"name": "",
					"type": "uint256"
				}
			],
			"stateMutability": "view",
			"type": "function"
		},
		{
			"inputs": [
				{
					"internalType": "bytes32",
					"name": "role",
					"type": "bytes32"
				},
				{
					"internalType": "address",
					"name": "account",
					"type": "address"
				}
			],
			"name": "grantRole",
			"outputs": [],
			"stateMutability": "nonpayable",
			"type": "function"
		},
		{
			"inputs": [
				{
					"components": [
						{
							"internalType": "bytes32",
							"name": "role",
							"type": "bytes32"
						},
						{
							"internalType": "address",
							"name": "addr",
							"type": "address"
						}
					],
					"internalType": "struct RoleAccess[]",
					"name": "roles",
					"type": "tuple[]"
				}
			],
			"name": "grantRolesBulk",
			"outputs": [],
			"stateMutability": "nonpayable",
			"type": "function"
		},
		{
			"inputs": [
				{
					"internalType": "bytes32",
					"name": "role",
					"type": "bytes32"
				},
				{
					"internalType": "address",
					"name": "account",
					"type": "address"
				}
			],
			"name": "hasRole",
			"outputs": [
				{
					"internalType": "bool",
					"name": "",
					"type": "bool"
				}
			],
			"stateMutability": "view",
			"type": "function"
		},
		{
			"inputs": [
				{
					"internalType": "address",
					"name": "addr",
					"type": "address"
				}
			],
			"name": "isBotAddress",
			"outputs": [
				{
					"internalType": "bool",
					"name": "",
					"type": "bool"
				}
			],
			"stateMutability": "view",
			"type": "function"
		},
		{
			"inputs": [
				{
					"internalType": "address",
					"name": "addr",
					"type": "address"
				}
			],
			"name": "isMarkedAsBotStorage",
			"outputs": [
				{
					"internalType": "bool",
					"name": "",
					"type": "bool"
				}
			],
			"stateMutability": "view",
			"type": "function"
		},
		{
			"inputs": [
				{
					"internalType": "address[]",
					"name": "addrs",
					"type": "address[]"
				}
			],
			"name": "isMarkedAsBotStorageBulk",
			"outputs": [
				{
					"internalType": "address[]",
					"name": "",
					"type": "address[]"
				}
			],
			"stateMutability": "view",
			"type": "function"
		},
		{
			"inputs": [
				{
					"internalType": "address",
					"name": "addr",
					"type": "address"
				}
			],
			"name": "isMarkedAsHumanStorage",
			"outputs": [
				{
					"internalType": "bool",
					"name": "",
					"type": "bool"
				}
			],
			"stateMutability": "view",
			"type": "function"
		},
		{
			"inputs": [
				{
					"internalType": "address[]",
					"name": "addrs",
					"type": "address[]"
				}
			],
			"name": "isMarkedAsHumanStorageBulk",
			"outputs": [
				{
					"internalType": "address[]",
					"name": "",
					"type": "address[]"
				}
			],
			"stateMutability": "view",
			"type": "function"
		},
		{
			"inputs": [
				{
					"internalType": "address",
					"name": "addr",
					"type": "address"
				}
			],
			"name": "isUniswapPair",
			"outputs": [
				{
					"internalType": "uint256",
					"name": "",
					"type": "uint256"
				}
			],
			"stateMutability": "view",
			"type": "function"
		},
		{
			"inputs": [
				{
					"internalType": "address",
					"name": "addr",
					"type": "address"
				}
			],
			"name": "markAddressAsBot",
			"outputs": [],
			"stateMutability": "nonpayable",
			"type": "function"
		},
		{
			"inputs": [
				{
					"internalType": "address",
					"name": "addr",
					"type": "address"
				},
				{
					"internalType": "bool",
					"name": "value",
					"type": "bool"
				}
			],
			"name": "markAddressAsHuman",
			"outputs": [],
			"stateMutability": "nonpayable",
			"type": "function"
		},
		{
			"inputs": [
				{
					"internalType": "address",
					"name": "addr",
					"type": "address"
				}
			],
			"name": "markAddressAsNotBot",
			"outputs": [],
			"stateMutability": "nonpayable",
			"type": "function"
		},
		{
			"inputs": [
				{
					"internalType": "address",
					"name": "addr",
					"type": "address"
				},
				{
					"internalType": "uint256",
					"name": "value",
					"type": "uint256"
				}
			],
			"name": "markAsUniswapPair",
			"outputs": [],
			"stateMutability": "nonpayable",
			"type": "function"
		},
		{
			"inputs": [
				{
					"internalType": "bytes32",
					"name": "role",
					"type": "bytes32"
				},
				{
					"internalType": "address",
					"name": "account",
					"type": "address"
				}
			],
			"name": "renounceRole",
			"outputs": [],
			"stateMutability": "nonpayable",
			"type": "function"
		},
		{
			"inputs": [
				{
					"internalType": "bytes32",
					"name": "role",
					"type": "bytes32"
				},
				{
					"internalType": "address",
					"name": "account",
					"type": "address"
				}
			],
			"name": "revokeRole",
			"outputs": [],
			"stateMutability": "nonpayable",
			"type": "function"
		},
		{
			"inputs": [
				{
					"internalType": "bytes4",
					"name": "interfaceId",
					"type": "bytes4"
				}
			],
			"name": "supportsInterface",
			"outputs": [
				{
					"internalType": "bool",
					"name": "",
					"type": "bool"
				}
			],
			"stateMutability": "view",
			"type": "function"
		},
		{
			"inputs": [
				{
					"internalType": "address",
					"name": "tokenAddr",
					"type": "address"
				},
				{
					"internalType": "uint256",
					"name": "newCooldownSellPeriod",
					"type": "uint256"
				}
			],
			"name": "updateCooldownPeriodSell",
			"outputs": [],
			"stateMutability": "nonpayable",
			"type": "function"
		}
	]
}