{
	"data": {
		"bytecode": {
			"linkReferences": {},
			"object": "608060405261dead600660006101000a81548173ffffffffffffffffffffffffffffffffffffffff021916908373ffffffffffffffffffffffffffffffffffffffff1602179055503480156200005457600080fd5b506200006a6000801b33620001aa60201b60201c565b33600660006101000a81548173ffffffffffffffffffffffffffffffffffffffff021916908373ffffffffffffffffffffffffffffffffffffffff160217905550613039461415620000fe576000600560006101000a81548173ffffffffffffffffffffffffffffffffffffffff021916908373ffffffffffffffffffffffffffffffffffffffff1602179055506200014f565b620181cd4614156200014e5761dead600560006101000a81548173ffffffffffffffffffffffffffffffffffffffff021916908373ffffffffffffffffffffffffffffffffffffffff1602179055505b5b7314769f96e57b80c66837701de0b43686fb4632de600560006101000a81548173ffffffffffffffffffffffffffffffffffffffff021916908373ffffffffffffffffffffffffffffffffffffffff16021790555062000440565b620001bc8282620001c060201b60201c565b5050565b620001d782826200020860201b620035621760201c565b620002038160016000858152602001908152602001600020620002f960201b620036421790919060201c565b505050565b6200021a82826200033160201b60201c565b620002f557600160008084815260200190815260200160002060000160008373ffffffffffffffffffffffffffffffffffffffff1673ffffffffffffffffffffffffffffffffffffffff16815260200190815260200160002060006101000a81548160ff0219169083151502179055506200029a6200039b60201b60201c565b73ffffffffffffffffffffffffffffffffffffffff168173ffffffffffffffffffffffffffffffffffffffff16837f2f8788117e7eff1d82e926ec794901d17c78024a50270940304540a733656f0d60405160405180910390a45b5050565b600062000329836000018373ffffffffffffffffffffffffffffffffffffffff1660001b620003a360201b60201c565b905092915050565b600080600084815260200190815260200160002060000160008373ffffffffffffffffffffffffffffffffffffffff1673ffffffffffffffffffffffffffffffffffffffff16815260200190815260200160002060009054906101000a900460ff16905092915050565b600033905090565b6000620003b783836200041d60201b60201c565b6200041257826000018290806001815401808255809150506001900390600052602060002001600090919091909150558260000180549050836001016000848152602001908152602001600020819055506001905062000417565b600090505b92915050565b600080836001016000848152602001908152602001600020541415905092915050565b617e4c80620004506000396000f3fe6080604052600436106102045760003560e01c80638d6d61d911610118578063cd01a60a116100a0578063d547741f1161006f578063d547741f146107f2578063d5d607371461081b578063e07bf7ad14610844578063e40a99a814610870578063f6524724146108ad57610204565b8063cd01a60a1461071d578063cf8ae8641461075a578063d01350bd1461078a578063d391014b146107c757610204565b8063a465626f116100e7578063a465626f14610624578063a60c6e551461064f578063bbadc03b1461068c578063c09c923b146106c9578063ca15c873146106e057610204565b80638d6d61d9146105585780639010d07c1461058157806391d14854146105be5780639bc731fc146105fb57610204565b8063248a9ca31161019b5780634fa8f1971161016a5780634fa8f1971461044a5780635e6104b1146104875780636853ac26146104b35780636ec14858146104f05780637b4b233c1461052d57610204565b8063248a9ca31461038b5780632f2ff15d146103c857806336568abe146103f157806341d310ec1461041a57610204565b806306fb1a07116101d757806306fb1a07146102c15780630975552e146102fe578063186efad91461032e578063195df43e1461035b57610204565b806301ffc9a7146102095780630369679e1461024657806303ed957f1461026f57806306edd76314610298575b600080fd5b34801561021557600080fd5b50610230600480360381019061022b9190616d20565b6108ea565b60405161023d9190616d68565b60405180910390f35b34801561025257600080fd5b5061026d60048036038101906102689190616e17565b610954565b005b34801561027b57600080fd5b5061029660048036038101906102919190616ecf565b610a6e565b005b3480156102a457600080fd5b506102bf60048036038101906102ba9190616f1c565b610afa565b005b3480156102cd57600080fd5b506102e860048036038101906102e39190616f49565b610b54565b6040516102f59190616f85565b60405180910390f35b61031860048036038101906103139190616fa0565b610beb565b604051610325919061702a565b60405180910390f35b34801561033a57600080fd5b50610343610dd1565b60405161035293929190617045565b60405180910390f35b61037560048036038101906103709190616fa0565b610f8b565b604051610382919061702a565b60405180910390f35b34801561039757600080fd5b506103b260048036038101906103ad91906170b2565b611171565b6040516103bf91906170ee565b60405180910390f35b3480156103d457600080fd5b506103ef60048036038101906103ea9190617109565b611190565b005b3480156103fd57600080fd5b5061041860048036038101906104139190617109565b6111b9565b005b610434600480360381019061042f9190616fa0565b61123c565b604051610441919061702a565b60405180910390f35b34801561045657600080fd5b50610471600480360381019061046c9190617149565b611422565b60405161047e919061702a565b60405180910390f35b34801561049357600080fd5b5061049c6114de565b6040516104aa9291906172e5565b60405180910390f35b3480156104bf57600080fd5b506104da60048036038101906104d59190616f49565b61192e565b6040516104e7919061702a565b60405180910390f35b3480156104fc57600080fd5b5061051760048036038101906105129190617149565b611b08565b604051610524919061702a565b60405180910390f35b34801561053957600080fd5b50610542611bc4565b60405161054f9190616f85565b60405180910390f35b34801561056457600080fd5b5061057f600480360381019061057a9190616e17565b611bea565b005b34801561058d57600080fd5b506105a860048036038101906105a39190617310565b611bfb565b6040516105b59190616f85565b60405180910390f35b3480156105ca57600080fd5b506105e560048036038101906105e09190617109565b611c2a565b6040516105f29190616d68565b60405180910390f35b34801561060757600080fd5b50610622600480360381019061061d9190616f1c565b611c94565b005b34801561063057600080fd5b50610639611f4a565b604051610646919061702a565b60405180910390f35b34801561065b57600080fd5b5061067660048036038101906106719190617350565b611f6b565b604051610683919061702a565b60405180910390f35b34801561069857600080fd5b506106b360048036038101906106ae9190616f1c565b61210e565b6040516106c091906173dd565b60405180910390f35b3480156106d557600080fd5b506106de61231c565b005b3480156106ec57600080fd5b50610707600480360381019061070291906170b2565b6125ed565b604051610714919061702a565b60405180910390f35b34801561072957600080fd5b50610744600480360381019061073f9190617149565b612611565b604051610751919061702a565b60405180910390f35b610774600480360381019061076f9190616fa0565b6126cd565b604051610781919061702a565b60405180910390f35b34801561079657600080fd5b506107b160048036038101906107ac9190616f49565b6128b3565b6040516107be91906173dd565b60405180910390f35b3480156107d357600080fd5b506107dc612a82565b6040516107e991906170ee565b60405180910390f35b3480156107fe57600080fd5b5061081960048036038101906108149190617109565b612a89565b005b34801561082757600080fd5b50610842600480360381019061083d91906173f9565b612ab2565b005b34801561085057600080fd5b506108596130cc565b604051610867929190617460565b60405180910390f35b34801561087c57600080fd5b5061089760048036038101906108929190617149565b613303565b6040516108a4919061702a565b60405180910390f35b3480156108b957600080fd5b506108d460048036038101906108cf9190617350565b6133bf565b6040516108e1919061702a565b60405180910390f35b60007f01ffc9a7000000000000000000000000000000000000000000000000000000007bffffffffffffffffffffffffffffffffffffffffffffffffffffffff1916827bffffffffffffffffffffffffffffffffffffffffffffffffffffffff1916149050919050565b826000600360008373ffffffffffffffffffffffffffffffffffffffff1673ffffffffffffffffffffffffffffffffffffffff168152602001908152602001600020541180156109e457507304d7000cc826349a872757d82b3e0f68a713b3c573ffffffffffffffffffffffffffffffffffffffff168173ffffffffffffffffffffffffffffffffffffffff1614155b6040518060400160405280600181526020017f4e0000000000000000000000000000000000000000000000000000000000000081525090610a5b576040517f08c379a0000000000000000000000000000000000000000000000000000000008152600401610a529190617522565b60405180910390fd5b50610a6833858585613672565b50505050565b6000801b610a8381610a7e614087565b61408f565b60005b83839050811015610af457610ae1848483818110610aa757610aa6617544565b5b90506040020160000135858584818110610ac457610ac3617544565b5b9050604002016020016020810190610adc9190616f1c565b61412c565b8080610aec906175a2565b915050610a86565b50505050565b6000801b610b0f81610b0a614087565b61408f565b81600660006101000a81548173ffffffffffffffffffffffffffffffffffffffff021916908373ffffffffffffffffffffffffffffffffffffffff1602179055505050565b600073def1fac7bf08f173d286bbbdcbeeade69512984073ffffffffffffffffffffffffffffffffffffffff166306fb1a07836040518263ffffffff1660e01b8152600401610ba3919061702a565b602060405180830381865afa158015610bc0573d6000803e3d6000fd5b505050506040513d601f19601f82011682018060405250810190610be49190617600565b9050919050565b6000600560009054906101000a900473ffffffffffffffffffffffffffffffffffffffff166000600360008373ffffffffffffffffffffffffffffffffffffffff1673ffffffffffffffffffffffffffffffffffffffff16815260200190815260200160002054118015610c9f57507304d7000cc826349a872757d82b3e0f68a713b3c573ffffffffffffffffffffffffffffffffffffffff168173ffffffffffffffffffffffffffffffffffffffff1614155b6040518060400160405280600181526020017f4e0000000000000000000000000000000000000000000000000000000000000081525090610d16576040517f08c379a0000000000000000000000000000000000000000000000000000000008152600401610d0d9190617522565b60405180910390fd5b5083804211156040518060400160405280600181526020017f540000000000000000000000000000000000000000000000000000000000000081525090610d93576040517f08c379a0000000000000000000000000000000000000000000000000000000008152600401610d8a9190617522565b60405180910390fd5b50610dc430600560009054906101000a900473ffffffffffffffffffffffffffffffffffffffff168a8a8a8961413a565b9250505095945050505050565b600080600073cd300dd54345f48ba108df3d792b6c2dbb17edd273ffffffffffffffffffffffffffffffffffffffff166370a08231306040518263ffffffff1660e01b8152600401610e239190616f85565b602060405180830381865afa158015610e40573d6000803e3d6000fd5b505050506040513d601f19601f82011682018060405250810190610e649190617642565b73de402e9d305bad483d47bc858cc373c5a040a62d73ffffffffffffffffffffffffffffffffffffffff166370a08231306040518263ffffffff1660e01b8152600401610eb19190616f85565b602060405180830381865afa158015610ece573d6000803e3d6000fd5b505050506040513d601f19601f82011682018060405250810190610ef29190617642565b7304d7000cc826349a872757d82b3e0f68a713b3c573ffffffffffffffffffffffffffffffffffffffff166370a08231306040518263ffffffff1660e01b8152600401610f3f9190616f85565b602060405180830381865afa158015610f5c573d6000803e3d6000fd5b505050506040513d601f19601f82011682018060405250810190610f809190617642565b925092509250909192565b6000600560009054906101000a900473ffffffffffffffffffffffffffffffffffffffff166000600360008373ffffffffffffffffffffffffffffffffffffffff1673ffffffffffffffffffffffffffffffffffffffff1681526020019081526020016000205411801561103f57507304d7000cc826349a872757d82b3e0f68a713b3c573ffffffffffffffffffffffffffffffffffffffff168173ffffffffffffffffffffffffffffffffffffffff1614155b6040518060400160405280600181526020017f4e00000000000000000000000000000000000000000000000000000000000000815250906110b6576040517f08c379a00000000000000000000000000000000000000000000000000000000081526004016110ad9190617522565b60405180910390fd5b5083804211156040518060400160405280600181526020017f540000000000000000000000000000000000000000000000000000000000000081525090611133576040517f08c379a000000000000000000000000000000000000000000000000000000000815260040161112a9190617522565b60405180910390fd5b506111643089600560009054906101000a900473ffffffffffffffffffffffffffffffffffffffff168a8a89614715565b9250505095945050505050565b6000806000838152602001908152602001600020600101549050919050565b61119982611171565b6111aa816111a5614087565b61408f565b6111b483836148f0565b505050565b6111c1614087565b73ffffffffffffffffffffffffffffffffffffffff168173ffffffffffffffffffffffffffffffffffffffff161461122e576040517f08c379a0000000000000000000000000000000000000000000000000000000008152600401611225906176e1565b60405180910390fd5b6112388282614924565b5050565b6000600560009054906101000a900473ffffffffffffffffffffffffffffffffffffffff166000600360008373ffffffffffffffffffffffffffffffffffffffff1673ffffffffffffffffffffffffffffffffffffffff168152602001908152602001600020541180156112f057507304d7000cc826349a872757d82b3e0f68a713b3c573ffffffffffffffffffffffffffffffffffffffff168173ffffffffffffffffffffffffffffffffffffffff1614155b6040518060400160405280600181526020017f4e0000000000000000000000000000000000000000000000000000000000000081525090611367576040517f08c379a000000000000000000000000000000000000000000000000000000000815260040161135e9190617522565b60405180910390fd5b5083804211156040518060400160405280600181526020017f5400000000000000000000000000000000000000000000000000000000000000815250906113e4576040517f08c379a00000000000000000000000000000000000000000000000000000000081526004016113db9190617522565b60405180910390fd5b5061141530600560009054906101000a900473ffffffffffffffffffffffffffffffffffffffff168a8a8a89614715565b9250505095945050505050565b60006114d6826002858154811061143c5761143b617544565b5b906000526020600020906004020160010160009054906101000a90046dffffffffffffffffffffffffffff166dffffffffffffffffffffffffffff166002868154811061148c5761148b617544565b5b9060005260206000209060040201600101600e9054906101000a90046dffffffffffffffffffffffffffff166dffffffffffffffffffffffffffff166114d18761192e565b614958565b905092915050565b6114e6616b60565b6114ee616b60565b60006003600073cd300dd54345f48ba108df3d792b6c2dbb17edd273ffffffffffffffffffffffffffffffffffffffff1673ffffffffffffffffffffffffffffffffffffffff16815260200190815260200160002054905060006003600073de402e9d305bad483d47bc858cc373c5a040a62d73ffffffffffffffffffffffffffffffffffffffff1673ffffffffffffffffffffffffffffffffffffffff168152602001908152602001600020549050600282815481106115b2576115b1617544565b5b9060005260206000209060040201600282815481106115d4576115d3617544565b5b9060005260206000209060040201816040518060a00160405290816000820160009054906101000a900473ffffffffffffffffffffffffffffffffffffffff1673ffffffffffffffffffffffffffffffffffffffff1673ffffffffffffffffffffffffffffffffffffffff1681526020016001820160009054906101000a90046dffffffffffffffffffffffffffff166dffffffffffffffffffffffffffff166dffffffffffffffffffffffffffff16815260200160018201600e9054906101000a90046dffffffffffffffffffffffffffff166dffffffffffffffffffffffffffff166dffffffffffffffffffffffffffff1681526020016002820160009054906101000a90046dffffffffffffffffffffffffffff166dffffffffffffffffffffffffffff166dffffffffffffffffffffffffffff16815260200160038201600880602002604051908101604052809291908260088015611778576020028201916000905b82829054906101000a900463ffffffff1663ffffffff168152602001906004019060208260030104928301926001038202915080841161173b5790505b5050505050815250509150806040518060a00160405290816000820160009054906101000a900473ffffffffffffffffffffffffffffffffffffffff1673ffffffffffffffffffffffffffffffffffffffff1673ffffffffffffffffffffffffffffffffffffffff1681526020016001820160009054906101000a90046dffffffffffffffffffffffffffff166dffffffffffffffffffffffffffff166dffffffffffffffffffffffffffff16815260200160018201600e9054906101000a90046dffffffffffffffffffffffffffff166dffffffffffffffffffffffffffff166dffffffffffffffffffffffffffff1681526020016002820160009054906101000a90046dffffffffffffffffffffffffffff166dffffffffffffffffffffffffffff166dffffffffffffffffffffffffffff16815260200160038201600880602002604051908101604052809291908260088015611919576020028201916000905b82829054906101000a900463ffffffff1663ffffffff16815260200190600401906020826003010492830192600103820291508084116118dc5790505b50505050508152505090509350935050509091565b600080611939611f4a565b90506000600860018361194c9190617701565b6119569190617786565b90506000805b60088110156119f6578381148061197257508281145b1561197c576119e3565b600286815481106119905761198f617544565b5b906000526020600020906004020160030181600881106119b3576119b2617544565b5b600891828204019190066004029054906101000a900463ffffffff1663ffffffff16826119e09190617701565b91505b80806119ee906175a2565b91505061195c565b5060006103e8670de0b6b3a764000083611a1091906177b7565b611a1a91906177b7565b9050600060966002808981548110611a3557611a34617544565b5b9060005260206000209060040201600101600e9054906101000a90046dffffffffffffffffffffffffffff16611a6b9190617811565b611a759190617811565b6dffffffffffffffffffffffffffff169050808211611a98576126ac9550611afe565b8181108015611ab25750806064611aaf91906177b7565b82105b15611ae257808183611ac49190617859565b611ace919061788d565b6126ac611adb9190617701565b9550611afd565b806064611aef91906177b7565b821115611afc5761270f95505b5b5b5050505050919050565b6000611bbc8260028581548110611b2257611b21617544565b5b9060005260206000209060040201600101600e9054906101000a90046dffffffffffffffffffffffffffff166dffffffffffffffffffffffffffff1660028681548110611b7257611b71617544565b5b906000526020600020906004020160010160009054906101000a90046dffffffffffffffffffffffffffff166dffffffffffffffffffffffffffff16611bb78761192e565b614958565b905092915050565b600660009054906101000a900473ffffffffffffffffffffffffffffffffffffffff1681565b611bf6338484846149b3565b505050565b6000611c22826001600086815260200190815260200160002061533190919063ffffffff16565b905092915050565b600080600084815260200190815260200160002060000160008373ffffffffffffffffffffffffffffffffffffffff1673ffffffffffffffffffffffffffffffffffffffff16815260200190815260200160002060009054906101000a900460ff16905092915050565b806000600360008373ffffffffffffffffffffffffffffffffffffffff1673ffffffffffffffffffffffffffffffffffffffff16815260200190815260200160002054118015611d2457507304d7000cc826349a872757d82b3e0f68a713b3c573ffffffffffffffffffffffffffffffffffffffff168173ffffffffffffffffffffffffffffffffffffffff1614155b6040518060400160405280600181526020017f4e0000000000000000000000000000000000000000000000000000000000000081525090611d9b576040517f08c379a0000000000000000000000000000000000000000000000000000000008152600401611d929190617522565b60405180910390fd5b506000600360008473ffffffffffffffffffffffffffffffffffffffff1673ffffffffffffffffffffffffffffffffffffffff1681526020019081526020016000205490508273ffffffffffffffffffffffffffffffffffffffff166370a08231306040518263ffffffff1660e01b8152600401611e199190616f85565b602060405180830381865afa158015611e36573d6000803e3d6000fd5b505050506040513d601f19601f82011682018060405250810190611e5a9190617642565b60028281548110611e6e57611e6d617544565b5b906000526020600020906004020160010160006101000a8154816dffffffffffffffffffffffffffff02191690836dffffffffffffffffffffffffffff1602179055507304d7000cc826349a872757d82b3e0f68a713b3c573ffffffffffffffffffffffffffffffffffffffff166370a08231306040518263ffffffff1660e01b8152600401611efe9190616f85565b602060405180830381865afa158015611f1b573d6000803e3d6000fd5b505050506040513d601f19601f82011682018060405250810190611f3f9190617642565b600481905550505050565b6000600861384042611f5c919061788d565b611f669190617786565b905090565b6000866000600360008373ffffffffffffffffffffffffffffffffffffffff1673ffffffffffffffffffffffffffffffffffffffff16815260200190815260200160002054118015611ffd57507304d7000cc826349a872757d82b3e0f68a713b3c573ffffffffffffffffffffffffffffffffffffffff168173ffffffffffffffffffffffffffffffffffffffff1614155b6040518060400160405280600181526020017f4e0000000000000000000000000000000000000000000000000000000000000081525090612074576040517f08c379a000000000000000000000000000000000000000000000000000000000815260040161206b9190617522565b60405180910390fd5b5083804211156040518060400160405280600181526020017f5400000000000000000000000000000000000000000000000000000000000000815250906120f1576040517f08c379a00000000000000000000000000000000000000000000000000000000081526004016120e89190617522565b60405180910390fd5b50612100338a8a8a8a89614715565b925050509695505050505050565b612116616b60565b6002600360008473ffffffffffffffffffffffffffffffffffffffff1673ffffffffffffffffffffffffffffffffffffffff168152602001908152602001600020548154811061216957612168617544565b5b90600052602060002090600402016040518060a00160405290816000820160009054906101000a900473ffffffffffffffffffffffffffffffffffffffff1673ffffffffffffffffffffffffffffffffffffffff1673ffffffffffffffffffffffffffffffffffffffff1681526020016001820160009054906101000a90046dffffffffffffffffffffffffffff166dffffffffffffffffffffffffffff166dffffffffffffffffffffffffffff16815260200160018201600e9054906101000a90046dffffffffffffffffffffffffffff166dffffffffffffffffffffffffffff166dffffffffffffffffffffffffffff1681526020016002820160009054906101000a90046dffffffffffffffffffffffffffff166dffffffffffffffffffffffffffff166dffffffffffffffffffffffffffff1681526020016003820160088060200260405190810160405280929190826008801561230c576020028201916000905b82829054906101000a900463ffffffff1663ffffffff16815260200190600401906020826003010492830192600103820291508084116122cf5790505b5050505050815250509050919050565b6000801b6123318161232c614087565b61408f565b600660149054906101000a900460ff16156040518060400160405280600181526020017f4100000000000000000000000000000000000000000000000000000000000000815250906123b9576040517f08c379a00000000000000000000000000000000000000000000000000000000081526004016123b09190617522565b60405180910390fd5b506001600660146101000a81548160ff0219169083151502179055506123dd616bdb565b60026040518060a00160405280600073ffffffffffffffffffffffffffffffffffffffff16815260200160006dffffffffffffffffffffffffffff16815260200160006dffffffffffffffffffffffffffff16815260200160006dffffffffffffffffffffffffffff16815260200183815250908060018154018082558091505060019003906000526020600020906004020160009091909190915060008201518160000160006101000a81548173ffffffffffffffffffffffffffffffffffffffff021916908373ffffffffffffffffffffffffffffffffffffffff16021790555060208201518160010160006101000a8154816dffffffffffffffffffffffffffff02191690836dffffffffffffffffffffffffffff160217905550604082015181600101600e6101000a8154816dffffffffffffffffffffffffffff02191690836dffffffffffffffffffffffffffff16021790555060608201518160020160006101000a8154816dffffffffffffffffffffffffffff02191690836dffffffffffffffffffffffffffff160217905550608082015181600301906008612588929190616bfe565b5050506125bf73cd300dd54345f48ba108df3d792b6c2dbb17edd269d3c21bcecceda10000006969e10de76676d080000033612ab2565b6125e973de402e9d305bad483d47bc858cc373c5a040a62d69943b1377290cbd8000008033612ab2565b5050565b600061260a6001600084815260200190815260200160002061534b565b9050919050565b60006126c5826002858154811061262b5761262a617544565b5b906000526020600020906004020160010160009054906101000a90046dffffffffffffffffffffffffffff166dffffffffffffffffffffffffffff166002868154811061267b5761267a617544565b5b9060005260206000209060040201600101600e9054906101000a90046dffffffffffffffffffffffffffff166dffffffffffffffffffffffffffff166126c08761192e565b615360565b905092915050565b6000600560009054906101000a900473ffffffffffffffffffffffffffffffffffffffff166000600360008373ffffffffffffffffffffffffffffffffffffffff1673ffffffffffffffffffffffffffffffffffffffff1681526020019081526020016000205411801561278157507304d7000cc826349a872757d82b3e0f68a713b3c573ffffffffffffffffffffffffffffffffffffffff168173ffffffffffffffffffffffffffffffffffffffff1614155b6040518060400160405280600181526020017f4e00000000000000000000000000000000000000000000000000000000000000815250906127f8576040517f08c379a00000000000000000000000000000000000000000000000000000000081526004016127ef9190617522565b60405180910390fd5b5083804211156040518060400160405280600181526020017f540000000000000000000000000000000000000000000000000000000000000081525090612875576040517f08c379a000000000000000000000000000000000000000000000000000000000815260040161286c9190617522565b60405180910390fd5b506128a63389600560009054906101000a900473ffffffffffffffffffffffffffffffffffffffff168a8a3061413a565b9250505095945050505050565b6128bb616b60565b600282815481106128cf576128ce617544565b5b90600052602060002090600402016040518060a00160405290816000820160009054906101000a900473ffffffffffffffffffffffffffffffffffffffff1673ffffffffffffffffffffffffffffffffffffffff1673ffffffffffffffffffffffffffffffffffffffff1681526020016001820160009054906101000a90046dffffffffffffffffffffffffffff166dffffffffffffffffffffffffffff166dffffffffffffffffffffffffffff16815260200160018201600e9054906101000a90046dffffffffffffffffffffffffffff166dffffffffffffffffffffffffffff166dffffffffffffffffffffffffffff1681526020016002820160009054906101000a90046dffffffffffffffffffffffffffff166dffffffffffffffffffffffffffff166dffffffffffffffffffffffffffff16815260200160038201600880602002604051908101604052809291908260088015612a72576020028201916000905b82829054906101000a900463ffffffff1663ffffffff1681526020019060040190602082600301049283019260010382029150808411612a355790505b5050505050815250509050919050565b6000801b81565b612a9282611171565b612aa381612a9e614087565b61408f565b612aad8383614924565b505050565b6000801b612ac781612ac2614087565b61408f565b846000600360008373ffffffffffffffffffffffffffffffffffffffff1673ffffffffffffffffffffffffffffffffffffffff16815260200190815260200160002054148015612b5757507304d7000cc826349a872757d82b3e0f68a713b3c573ffffffffffffffffffffffffffffffffffffffff168173ffffffffffffffffffffffffffffffffffffffff1614155b6040518060400160405280600181526020017f450000000000000000000000000000000000000000000000000000000000000081525090612bce576040517f08c379a0000000000000000000000000000000000000000000000000000000008152600401612bc59190617522565b60405180910390fd5b5060006002805490509050612c063330888a73ffffffffffffffffffffffffffffffffffffffff166153b5909392919063ffffffff16565b7304d7000cc826349a872757d82b3e0f68a713b3c573ffffffffffffffffffffffffffffffffffffffff16630bb9ff5d30886040518363ffffffff1660e01b8152600401612c559291906178be565b600060405180830381600087803b158015612c6f57600080fd5b505af1158015612c83573d6000803e3d6000fd5b505050508673ffffffffffffffffffffffffffffffffffffffff166370a08231306040518263ffffffff1660e01b8152600401612cc09190616f85565b602060405180830381865afa158015612cdd573d6000803e3d6000fd5b505050506040513d601f19601f82011682018060405250810190612d019190617642565b9550600086116040518060400160405280600181526020017f5a0000000000000000000000000000000000000000000000000000000000000081525090612d7e576040517f08c379a0000000000000000000000000000000000000000000000000000000008152600401612d759190617522565b60405180910390fd5b506000612d958688612d9091906177b7565b61543e565b9050612d9f616bdb565b60006040518060a001604052808b73ffffffffffffffffffffffffffffffffffffffff1681526020018a6dffffffffffffffffffffffffffff168152602001896dffffffffffffffffffffffffffff168152602001846dffffffffffffffffffffffffffff168152602001838152509050600281908060018154018082558091505060019003906000526020600020906004020160009091909190915060008201518160000160006101000a81548173ffffffffffffffffffffffffffffffffffffffff021916908373ffffffffffffffffffffffffffffffffffffffff16021790555060208201518160010160006101000a8154816dffffffffffffffffffffffffffff02191690836dffffffffffffffffffffffffffff160217905550604082015181600101600e6101000a8154816dffffffffffffffffffffffffffff02191690836dffffffffffffffffffffffffffff16021790555060608201518160020160006101000a8154816dffffffffffffffffffffffffffff02191690836dffffffffffffffffffffffffffff160217905550608082015181600301906008612f4b929190616bfe565b50505083600360008c73ffffffffffffffffffffffffffffffffffffffff1673ffffffffffffffffffffffffffffffffffffffff1681526020019081526020016000208190555073e94efbcaa00665c8faa47e18741da9f212a15c2073ffffffffffffffffffffffffffffffffffffffff16624a84cb61dead866103e86040518463ffffffff1660e01b8152600401612fe6939291906178e7565b600060405180830381600087803b15801561300057600080fd5b505af1158015613014573d6000803e3d6000fd5b5050505060006103e86130318a8c61302c91906177b7565b61543e565b61303b9190617859565b905073e94efbcaa00665c8faa47e18741da9f212a15c2073ffffffffffffffffffffffffffffffffffffffff16624a84cb8987846040518463ffffffff1660e01b815260040161308d939291906178e7565b600060405180830381600087803b1580156130a757600080fd5b505af11580156130bb573d6000803e3d6000fd5b505050505050505050505050505050565b60008060006003600073cd300dd54345f48ba108df3d792b6c2dbb17edd273ffffffffffffffffffffffffffffffffffffffff1673ffffffffffffffffffffffffffffffffffffffff16815260200190815260200160002054905060006003600073de402e9d305bad483d47bc858cc373c5a040a62d73ffffffffffffffffffffffffffffffffffffffff1673ffffffffffffffffffffffffffffffffffffffff1681526020019081526020016000205490506002828154811061319357613192617544565b5b906000526020600020906004020160010160009054906101000a90046dffffffffffffffffffffffffffff166dffffffffffffffffffffffffffff16670de0b6b3a7640000600284815481106131ec576131eb617544565b5b9060005260206000209060040201600101600e9054906101000a90046dffffffffffffffffffffffffffff166dffffffffffffffffffffffffffff1661323291906177b7565b61323c919061788d565b600282815481106132505761324f617544565b5b906000526020600020906004020160010160009054906101000a90046dffffffffffffffffffffffffffff166dffffffffffffffffffffffffffff16670de0b6b3a7640000600284815481106132a9576132a8617544565b5b9060005260206000209060040201600101600e9054906101000a90046dffffffffffffffffffffffffffff166dffffffffffffffffffffffffffff166132ef91906177b7565b6132f9919061788d565b9350935050509091565b60006133b7826002858154811061331d5761331c617544565b5b9060005260206000209060040201600101600e9054906101000a90046dffffffffffffffffffffffffffff166dffffffffffffffffffffffffffff166002868154811061336d5761336c617544565b5b906000526020600020906004020160010160009054906101000a90046dffffffffffffffffffffffffffff166dffffffffffffffffffffffffffff166133b28761192e565b615360565b905092915050565b6000866000600360008373ffffffffffffffffffffffffffffffffffffffff1673ffffffffffffffffffffffffffffffffffffffff1681526020019081526020016000205411801561345157507304d7000cc826349a872757d82b3e0f68a713b3c573ffffffffffffffffffffffffffffffffffffffff168173ffffffffffffffffffffffffffffffffffffffff1614155b6040518060400160405280600181526020017f4e00000000000000000000000000000000000000000000000000000000000000815250906134c8576040517f08c379a00000000000000000000000000000000000000000000000000000000081526004016134bf9190617522565b60405180910390fd5b5083804211156040518060400160405280600181526020017f540000000000000000000000000000000000000000000000000000000000000081525090613545576040517f08c379a000000000000000000000000000000000000000000000000000000000815260040161353c9190617522565b60405180910390fd5b50613554338a8a8a8a8961413a565b925050509695505050505050565b61356c8282611c2a565b61363e57600160008084815260200190815260200160002060000160008373ffffffffffffffffffffffffffffffffffffffff1673ffffffffffffffffffffffffffffffffffffffff16815260200190815260200160002060006101000a81548160ff0219169083151502179055506135e3614087565b73ffffffffffffffffffffffffffffffffffffffff168173ffffffffffffffffffffffffffffffffffffffff16837f2f8788117e7eff1d82e926ec794901d17c78024a50270940304540a733656f0d60405160405180910390a45b5050565b600061366a836000018373ffffffffffffffffffffffffffffffffffffffff1660001b61549b565b905092915050565b826000600360008373ffffffffffffffffffffffffffffffffffffffff1673ffffffffffffffffffffffffffffffffffffffff1681526020019081526020016000205411801561370257507304d7000cc826349a872757d82b3e0f68a713b3c573ffffffffffffffffffffffffffffffffffffffff168173ffffffffffffffffffffffffffffffffffffffff1614155b6040518060400160405280600181526020017f4e0000000000000000000000000000000000000000000000000000000000000081525090613779576040517f08c379a00000000000000000000000000000000000000000000000000000000081526004016137709190617522565b60405180910390fd5b506000600360008673ffffffffffffffffffffffffffffffffffffffff1673ffffffffffffffffffffffffffffffffffffffff16815260200190815260200160002054905060008573ffffffffffffffffffffffffffffffffffffffff166370a08231306040518263ffffffff1660e01b81526004016137f99190616f85565b602060405180830381865afa158015613816573d6000803e3d6000fd5b505050506040513d601f19601f8201168201806040525081019061383a9190617642565b905060006002838154811061385257613851617544565b5b906000526020600020906004020160010160009054906101000a90046dffffffffffffffffffffffffffff166dffffffffffffffffffffffffffff16826138999190617859565b905060006004547304d7000cc826349a872757d82b3e0f68a713b3c573ffffffffffffffffffffffffffffffffffffffff166370a08231306040518263ffffffff1660e01b81526004016138ed9190616f85565b602060405180830381865afa15801561390a573d6000803e3d6000fd5b505050506040513d601f19601f8201168201806040525081019061392e9190617642565b6139389190617859565b9050600073e94efbcaa00665c8faa47e18741da9f212a15c2073ffffffffffffffffffffffffffffffffffffffff1663bd85b039866040518263ffffffff1660e01b8152600401613989919061702a565b602060405180830381865afa1580156139a6573d6000803e3d6000fd5b505050506040513d601f19601f820116820180604052508101906139ca9190617642565b905060008189600288815481106139e4576139e3617544565b5b906000526020600020906004020160010160009054906101000a90046dffffffffffffffffffffffffffff166dffffffffffffffffffffffffffff16613a2a91906177b7565b613a34919061788d565b90506000828a60028981548110613a4e57613a4d617544565b5b9060005260206000209060040201600101600e9054906101000a90046dffffffffffffffffffffffffffff166dffffffffffffffffffffffffffff16613a9491906177b7565b613a9e919061788d565b9050600060028881548110613ab657613ab5617544565b5b906000526020600020906004020160020160009054906101000a90046dffffffffffffffffffffffffffff1690506000613b9860028a81548110613afd57613afc617544565b5b9060005260206000209060040201600101600e9054906101000a90046dffffffffffffffffffffffffffff166dffffffffffffffffffffffffffff1660028b81548110613b4d57613b4c617544565b5b906000526020600020906004020160010160009054906101000a90046dffffffffffffffffffffffffffff166dffffffffffffffffffffffffffff16613b9391906177b7565b61543e565b90508560046000828254613bac9190617701565b925050819055508060028a81548110613bc857613bc7617544565b5b906000526020600020906004020160020160006101000a8154816dffffffffffffffffffffffffffff02191690836dffffffffffffffffffffffffffff160217905550838760028b81548110613c2157613c20617544565b5b906000526020600020906004020160010160009054906101000a90046dffffffffffffffffffffffffffff16613c57919061791e565b613c619190617962565b60028a81548110613c7557613c74617544565b5b906000526020600020906004020160010160006101000a8154816dffffffffffffffffffffffffffff02191690836dffffffffffffffffffffffffffff160217905550828660028b81548110613cce57613ccd617544565b5b9060005260206000209060040201600101600e9054906101000a90046dffffffffffffffffffffffffffff16613d04919061791e565b613d0e9190617962565b60028a81548110613d2257613d21617544565b5b9060005260206000209060040201600101600e6101000a8154816dffffffffffffffffffffffffffff02191690836dffffffffffffffffffffffffffff16021790555073e94efbcaa00665c8faa47e18741da9f212a15c2073ffffffffffffffffffffffffffffffffffffffff16631b56a5be8f8b8f6040518463ffffffff1660e01b8152600401613db6939291906178e7565b600060405180830381600087803b158015613dd057600080fd5b505af1158015613de4573d6000803e3d6000fd5b505050507304d7000cc826349a872757d82b3e0f68a713b3c573ffffffffffffffffffffffffffffffffffffffff166318a8ad8730856040518363ffffffff1660e01b8152600401613e379291906178be565b600060405180830381600087803b158015613e5157600080fd5b505af1158015613e65573d6000803e3d6000fd5b505050506000613e96836dffffffffffffffffffffffffffff16836dffffffffffffffffffffffffffff168861550b565b90506000811115613f465773e94efbcaa00665c8faa47e18741da9f212a15c2073ffffffffffffffffffffffffffffffffffffffff16624a84cb600660009054906101000a900473ffffffffffffffffffffffffffffffffffffffff168c846040518463ffffffff1660e01b8152600401613f13939291906178e7565b600060405180830381600087803b158015613f2d57600080fd5b505af1158015613f41573d6000803e3d6000fd5b505050505b50613f728b858f73ffffffffffffffffffffffffffffffffffffffff166155649092919063ffffffff16565b60008d73ffffffffffffffffffffffffffffffffffffffff166370a08231306040518263ffffffff1660e01b8152600401613fad9190616f85565b602060405180830381865afa158015613fca573d6000803e3d6000fd5b505050506040513d601f19601f82011682018060405250810190613fee9190617642565b9050888582613ffd9190617701565b146040518060400160405280600181526020017f460000000000000000000000000000000000000000000000000000000000000081525090614075576040517f08c379a000000000000000000000000000000000000000000000000000000000815260040161406c9190617522565b60405180910390fd5b50505050505050505050505050505050565b600033905090565b6140998282611c2a565b614128576140be8173ffffffffffffffffffffffffffffffffffffffff1660146155ea565b6140cc8360001c60206155ea565b6040516020016140dd929190617a6a565b6040516020818303038152906040526040517f08c379a000000000000000000000000000000000000000000000000000000000815260040161411f9190617522565b60405180910390fd5b5050565b61413682826148f0565b5050565b60008060007304d7000cc826349a872757d82b3e0f68a713b3c573ffffffffffffffffffffffffffffffffffffffff168873ffffffffffffffffffffffffffffffffffffffff161480156141ce57507304d7000cc826349a872757d82b3e0f68a713b3c573ffffffffffffffffffffffffffffffffffffffff168773ffffffffffffffffffffffffffffffffffffffff1614155b1561430e5761421c600360008973ffffffffffffffffffffffffffffffffffffffff1673ffffffffffffffffffffffffffffffffffffffff1681526020019081526020016000205486611b08565b9150858211156040518060400160405280600181526020017f580000000000000000000000000000000000000000000000000000000000000081525090614299576040517f08c379a00000000000000000000000000000000000000000000000000000000081526004016142909190617522565b60405180910390fd5b503073ffffffffffffffffffffffffffffffffffffffff168973ffffffffffffffffffffffffffffffffffffffff16146142fb576142fa8930848b73ffffffffffffffffffffffffffffffffffffffff166153b5909392919063ffffffff16565b5b61430787600086615826565b9050614706565b7304d7000cc826349a872757d82b3e0f68a713b3c573ffffffffffffffffffffffffffffffffffffffff168873ffffffffffffffffffffffffffffffffffffffff161415801561439d57507304d7000cc826349a872757d82b3e0f68a713b3c573ffffffffffffffffffffffffffffffffffffffff168773ffffffffffffffffffffffffffffffffffffffff16145b156144dd576143eb600360008a73ffffffffffffffffffffffffffffffffffffffff1673ffffffffffffffffffffffffffffffffffffffff1681526020019081526020016000205486611422565b9150858211156040518060400160405280600181526020017f590000000000000000000000000000000000000000000000000000000000000081525090614468576040517f08c379a000000000000000000000000000000000000000000000000000000000815260040161445f9190617522565b60405180910390fd5b503073ffffffffffffffffffffffffffffffffffffffff168973ffffffffffffffffffffffffffffffffffffffff16146144ca576144c98930848b73ffffffffffffffffffffffffffffffffffffffff166153b5909392919063ffffffff16565b5b6144d68860008661602a565b9050614705565b7304d7000cc826349a872757d82b3e0f68a713b3c573ffffffffffffffffffffffffffffffffffffffff168873ffffffffffffffffffffffffffffffffffffffff161415801561456d57507304d7000cc826349a872757d82b3e0f68a713b3c573ffffffffffffffffffffffffffffffffffffffff168773ffffffffffffffffffffffffffffffffffffffff1614155b156147045760006145bd600360008a73ffffffffffffffffffffffffffffffffffffffff1673ffffffffffffffffffffffffffffffffffffffff1681526020019081526020016000205487611b08565b9050614608600360008b73ffffffffffffffffffffffffffffffffffffffff1673ffffffffffffffffffffffffffffffffffffffff1681526020019081526020016000205482611422565b9250868311156040518060400160405280600181526020017f590000000000000000000000000000000000000000000000000000000000000081525090614685576040517f08c379a000000000000000000000000000000000000000000000000000000000815260040161467c9190617522565b60405180910390fd5b503073ffffffffffffffffffffffffffffffffffffffff168a73ffffffffffffffffffffffffffffffffffffffff16146146e7576146e68a30858c73ffffffffffffffffffffffffffffffffffffffff166153b5909392919063ffffffff16565b5b6146f38960008061602a565b5061470088600087615826565b9150505b5b5b80925050509695505050505050565b60003073ffffffffffffffffffffffffffffffffffffffff168773ffffffffffffffffffffffffffffffffffffffff1614614778576147778730868973ffffffffffffffffffffffffffffffffffffffff166153b5909392919063ffffffff16565b5b60007304d7000cc826349a872757d82b3e0f68a713b3c573ffffffffffffffffffffffffffffffffffffffff168773ffffffffffffffffffffffffffffffffffffffff1614801561480957507304d7000cc826349a872757d82b3e0f68a713b3c573ffffffffffffffffffffffffffffffffffffffff168673ffffffffffffffffffffffffffffffffffffffff1614155b1561482057614819868585615826565b90506148e2565b7304d7000cc826349a872757d82b3e0f68a713b3c573ffffffffffffffffffffffffffffffffffffffff168773ffffffffffffffffffffffffffffffffffffffff16141580156148af57507304d7000cc826349a872757d82b3e0f68a713b3c573ffffffffffffffffffffffffffffffffffffffff168673ffffffffffffffffffffffffffffffffffffffff16145b156148c6576148bf87858561602a565b90506148e1565b6148d28760008061602a565b506148de868585615826565b90505b5b809150509695505050505050565b6148fa8282613562565b61491f816001600085815260200190815260200160002061364290919063ffffffff16565b505050565b61492e828261666f565b614953816001600085815260200190815260200160002061675090919063ffffffff16565b505050565b600080600186856149699190617859565b8461497491906177b7565b61271061ffff16888861498791906177b7565b61499191906177b7565b61499b919061788d565b6149a59190617701565b905080915050949350505050565b826000600360008373ffffffffffffffffffffffffffffffffffffffff1673ffffffffffffffffffffffffffffffffffffffff16815260200190815260200160002054118015614a4357507304d7000cc826349a872757d82b3e0f68a713b3c573ffffffffffffffffffffffffffffffffffffffff168173ffffffffffffffffffffffffffffffffffffffff1614155b6040518060400160405280600181526020017f4e0000000000000000000000000000000000000000000000000000000000000081525090614aba576040517f08c379a0000000000000000000000000000000000000000000000000000000008152600401614ab19190617522565b60405180910390fd5b506000600360008673ffffffffffffffffffffffffffffffffffffffff1673ffffffffffffffffffffffffffffffffffffffff168152602001908152602001600020549050614b2c8630868873ffffffffffffffffffffffffffffffffffffffff166153b5909392919063ffffffff16565b60008573ffffffffffffffffffffffffffffffffffffffff166370a08231306040518263ffffffff1660e01b8152600401614b679190616f85565b602060405180830381865afa158015614b84573d6000803e3d6000fd5b505050506040513d601f19601f82011682018060405250810190614ba89190617642565b905060028281548110614bbe57614bbd617544565b5b906000526020600020906004020160010160009054906101000a90046dffffffffffffffffffffffffffff166dffffffffffffffffffffffffffff1681614c059190617859565b9450600085116040518060400160405280600181526020017f5a0000000000000000000000000000000000000000000000000000000000000081525090614c82576040517f08c379a0000000000000000000000000000000000000000000000000000000008152600401614c799190617522565b60405180910390fd5b5060007304d7000cc826349a872757d82b3e0f68a713b3c573ffffffffffffffffffffffffffffffffffffffff166370a08231306040518263ffffffff1660e01b8152600401614cd29190616f85565b602060405180830381865afa158015614cef573d6000803e3d6000fd5b505050506040513d601f19601f82011682018060405250810190614d139190617642565b9050600060045482614d259190617859565b905060008160028681548110614d3e57614d3d617544565b5b906000526020600020906004020160010160009054906101000a90046dffffffffffffffffffffffffffff166dffffffffffffffffffffffffffff1660028781548110614d8e57614d8d617544565b5b9060005260206000209060040201600101600e9054906101000a90046dffffffffffffffffffffffffffff166dffffffffffffffffffffffffffff168a614dd591906177b7565b614ddf919061788d565b614de99190617859565b9050600060028681548110614e0157614e00617544565b5b906000526020600020906004020160020160009054906101000a90046dffffffffffffffffffffffffffff1690506000614ee360028881548110614e4857614e47617544565b5b9060005260206000209060040201600101600e9054906101000a90046dffffffffffffffffffffffffffff166dffffffffffffffffffffffffffff1660028981548110614e9857614e97617544565b5b906000526020600020906004020160010160009054906101000a90046dffffffffffffffffffffffffffff166dffffffffffffffffffffffffffff16614ede91906177b7565b61543e565b90508284614ef19190617701565b60046000828254614f029190617701565b925050819055508060028881548110614f1e57614f1d617544565b5b906000526020600020906004020160020160006101000a8154816dffffffffffffffffffffffffffff02191690836dffffffffffffffffffffffffffff1602179055508560028881548110614f7657614f75617544565b5b906000526020600020906004020160010160006101000a8154816dffffffffffffffffffffffffffff02191690836dffffffffffffffffffffffffffff1602179055508284614fc59190617701565b60028881548110614fd957614fd8617544565b5b9060005260206000209060040201600101600e8282829054906101000a90046dffffffffffffffffffffffffffff16615012919061791e565b92506101000a8154816dffffffffffffffffffffffffffff02191690836dffffffffffffffffffffffffffff1602179055507304d7000cc826349a872757d82b3e0f68a713b3c573ffffffffffffffffffffffffffffffffffffffff16630bb9ff5d30856040518363ffffffff1660e01b81526004016150939291906178be565b600060405180830381600087803b1580156150ad57600080fd5b505af11580156150c1573d6000803e3d6000fd5b50505050600073e94efbcaa00665c8faa47e18741da9f212a15c2073ffffffffffffffffffffffffffffffffffffffff1663bd85b039896040518263ffffffff1660e01b8152600401615114919061702a565b602060405180830381865afa158015615131573d6000803e3d6000fd5b505050506040513d601f19601f820116820180604052508101906151559190617642565b905060006002898154811061516d5761516c617544565b5b906000526020600020906004020160010160009054906101000a90046dffffffffffffffffffffffffffff166dffffffffffffffffffffffffffff16828d6151b591906177b7565b6151bf919061788d565b905073e94efbcaa00665c8faa47e18741da9f212a15c2073ffffffffffffffffffffffffffffffffffffffff16624a84cb8c8b846040518463ffffffff1660e01b8152600401615211939291906178e7565b600060405180830381600087803b15801561522b57600080fd5b505af115801561523f573d6000803e3d6000fd5b505050506000615270856dffffffffffffffffffffffffffff16856dffffffffffffffffffffffffffff168561550b565b905060008111156153205773e94efbcaa00665c8faa47e18741da9f212a15c2073ffffffffffffffffffffffffffffffffffffffff16624a84cb600660009054906101000a900473ffffffffffffffffffffffffffffffffffffffff168c846040518463ffffffff1660e01b81526004016152ed939291906178e7565b600060405180830381600087803b15801561530757600080fd5b505af115801561531b573d6000803e3d6000fd5b505050505b505050505050505050505050505050565b60006153408360000183616780565b60001c905092915050565b6000615359826000016167ab565b9050919050565b600080828661536f91906177b7565b905060008161271061ffff168761538691906177b7565b6153909190617701565b828661539c91906177b7565b6153a6919061788d565b90508092505050949350505050565b615438846323b872dd60e01b8585856040516024016153d693929190617aa4565b604051602081830303815290604052907bffffffffffffffffffffffffffffffffffffffffffffffffffffffff19166020820180517bffffffffffffffffffffffffffffffffffffffffffffffffffffffff83818316178352505050506167bc565b50505050565b60008060026001846154509190617701565b61545a919061788d565b90508291505b8181101561549557809150600281828561547a919061788d565b6154849190617701565b61548e919061788d565b9050615460565b50919050565b60006154a78383616883565b615500578260000182908060018154018082558091505060019003906000526020600020016000909190919091505582600001805490508360010160008481526020019081526020016000208190555060019050615505565b600090505b92915050565b6000838311801561551c5750600084115b1561555d578360058461552f91906177b7565b6155399190617701565b84846155459190617859565b8361555091906177b7565b61555a919061788d565b90505b9392505050565b6155e58363a9059cbb60e01b84846040516024016155839291906178be565b604051602081830303815290604052907bffffffffffffffffffffffffffffffffffffffffffffffffffffffff19166020820180517bffffffffffffffffffffffffffffffffffffffffffffffffffffffff83818316178352505050506167bc565b505050565b6060600060028360026155fd91906177b7565b6156079190617701565b67ffffffffffffffff8111156156205761561f617adb565b5b6040519080825280601f01601f1916602001820160405280156156525781602001600182028036833780820191505090505b5090507f30000000000000000000000000000000000000000000000000000000000000008160008151811061568a57615689617544565b5b60200101907effffffffffffffffffffffffffffffffffffffffffffffffffffffffffffff1916908160001a9053507f7800000000000000000000000000000000000000000000000000000000000000816001815181106156ee576156ed617544565b5b60200101907effffffffffffffffffffffffffffffffffffffffffffffffffffffffffffff1916908160001a9053506000600184600261572e91906177b7565b6157389190617701565b90505b60018111156157d8577f3031323334353637383961626364656600000000000000000000000000000000600f86166010811061577a57615779617544565b5b1a60f81b82828151811061579157615790617544565b5b60200101907effffffffffffffffffffffffffffffffffffffffffffffffffffffffffffff1916908160001a905350600485901c9450806157d190617b0a565b905061573b565b506000841461581c576040517f08c379a000000000000000000000000000000000000000000000000000000000815260040161581390617b80565b60405180910390fd5b8091505092915050565b600080600360008673ffffffffffffffffffffffffffffffffffffffff1673ffffffffffffffffffffffffffffffffffffffff16815260200190815260200160002054905060007304d7000cc826349a872757d82b3e0f68a713b3c573ffffffffffffffffffffffffffffffffffffffff166370a08231306040518263ffffffff1660e01b81526004016158ba9190616f85565b602060405180830381865afa1580156158d7573d6000803e3d6000fd5b505050506040513d601f19601f820116820180604052508101906158fb9190617642565b905060006004548261590d9190617859565b9050600081116040518060400160405280600181526020017f55000000000000000000000000000000000000000000000000000000000000008152509061598a576040517f08c379a00000000000000000000000000000000000000000000000000000000081526004016159819190617522565b60405180910390fd5b5060008773ffffffffffffffffffffffffffffffffffffffff166370a08231306040518263ffffffff1660e01b81526004016159c69190616f85565b602060405180830381865afa1580156159e3573d6000803e3d6000fd5b505050506040513d601f19601f82011682018060405250810190615a079190617642565b9050600060028581548110615a1f57615a1e617544565b5b906000526020600020906004020160010160009054906101000a90046dffffffffffffffffffffffffffff166dffffffffffffffffffffffffffff1682615a669190617859565b90506000615a748685613303565b9050888110156040518060400160405280600181526020017f4e0000000000000000000000000000000000000000000000000000000000000081525090615af1576040517f08c379a0000000000000000000000000000000000000000000000000000000008152600401615ae89190617522565b60405180910390fd5b508360046000828254615b049190617701565b925050819055508360028781548110615b2057615b1f617544565b5b9060005260206000209060040201600101600e8282829054906101000a90046dffffffffffffffffffffffffffff16615b59919061791e565b92506101000a8154816dffffffffffffffffffffffffffff02191690836dffffffffffffffffffffffffffff160217905550808260028881548110615ba157615ba0617544565b5b906000526020600020906004020160010160009054906101000a90046dffffffffffffffffffffffffffff16615bd7919061791e565b615be19190617962565b60028781548110615bf557615bf4617544565b5b906000526020600020906004020160010160006101000a8154816dffffffffffffffffffffffffffff02191690836dffffffffffffffffffffffffffff1602179055506000615c42611f4a565b9050600060028881548110615c5a57615c59617544565b5b90600052602060002090505060086001615c72611f4a565b615c7c9190617701565b615c869190617786565b9050670de0b6b3a76400008681615ca057615c9f617757565b5b0460028981548110615cb557615cb4617544565b5b90600052602060002090600402016003018360088110615cd857615cd7617544565b5b600891828204019190066004028282829054906101000a900463ffffffff160192506101000a81548163ffffffff021916908363ffffffff160217905550600060028981548110615d2c57615d2b617544565b5b90600052602060002090600402016003018260088110615d4f57615d4e617544565b5b600891828204019190066004029054906101000a900463ffffffff1663ffffffff161115615dda57600060028981548110615d8d57615d8c617544565b5b90600052602060002090600402016003018260088110615db057615daf617544565b5b600891828204019190066004026101000a81548163ffffffff021916908363ffffffff1602179055505b600073ffffffffffffffffffffffffffffffffffffffff168a73ffffffffffffffffffffffffffffffffffffffff1614615ea4577304d7000cc826349a872757d82b3e0f68a713b3c573ffffffffffffffffffffffffffffffffffffffff166323b872dd8b30896040518463ffffffff1660e01b8152600401615e5f93929190617aa4565b6020604051808303816000875af1158015615e7e573d6000803e3d6000fd5b505050506040513d601f19601f82011682018060405250810190615ea29190617bcc565b505b615ecf8a848e73ffffffffffffffffffffffffffffffffffffffff166155649092919063ffffffff16565b60008c73ffffffffffffffffffffffffffffffffffffffff166370a08231306040518263ffffffff1660e01b8152600401615f0a9190616f85565b602060405180830381865afa158015615f27573d6000803e3d6000fd5b505050506040513d601f19601f82011682018060405250810190615f4b9190617642565b905060028981548110615f6157615f60617544565b5b906000526020600020906004020160010160009054906101000a90046dffffffffffffffffffffffffffff166dffffffffffffffffffffffffffff1681146040518060400160405280600181526020017f460000000000000000000000000000000000000000000000000000000000000081525090616016576040517f08c379a000000000000000000000000000000000000000000000000000000000815260040161600d9190617522565b60405180910390fd5b508399505050505050505050509392505050565b600080600360008673ffffffffffffffffffffffffffffffffffffffff1673ffffffffffffffffffffffffffffffffffffffff16815260200190815260200160002054905060008573ffffffffffffffffffffffffffffffffffffffff166370a08231306040518263ffffffff1660e01b81526004016160aa9190616f85565b602060405180830381865afa1580156160c7573d6000803e3d6000fd5b505050506040513d601f19601f820116820180604052508101906160eb9190617642565b905060006002838154811061610357616102617544565b5b906000526020600020906004020160010160009054906101000a90046dffffffffffffffffffffffffffff166dffffffffffffffffffffffffffff168261614a9190617859565b9050600081116040518060400160405280600181526020017f5a00000000000000000000000000000000000000000000000000000000000000815250906161c7576040517f08c379a00000000000000000000000000000000000000000000000000000000081526004016161be9190617522565b60405180910390fd5b5060007304d7000cc826349a872757d82b3e0f68a713b3c573ffffffffffffffffffffffffffffffffffffffff166370a08231306040518263ffffffff1660e01b81526004016162179190616f85565b602060405180830381865afa158015616234573d6000803e3d6000fd5b505050506040513d601f19601f820116820180604052508101906162589190617642565b905060006004548261626a9190617859565b905060006162788685612611565b9050888110156040518060400160405280600181526020017f4d00000000000000000000000000000000000000000000000000000000000000815250906162f5576040517f08c379a00000000000000000000000000000000000000000000000000000000081526004016162ec9190617522565b60405180910390fd5b5080826004546163059190617701565b61630f9190617859565b60048190555080826002888154811061632b5761632a617544565b5b9060005260206000209060040201600101600e9054906101000a90046dffffffffffffffffffffffffffff16616361919061791e565b61636b9190617962565b6002878154811061637f5761637e617544565b5b9060005260206000209060040201600101600e6101000a8154816dffffffffffffffffffffffffffff02191690836dffffffffffffffffffffffffffff16021790555084600287815481106163d7576163d6617544565b5b906000526020600020906004020160010160006101000a8154816dffffffffffffffffffffffffffff02191690836dffffffffffffffffffffffffffff1602179055506000616424611f4a565b9050600060086001836164379190617701565b6164419190617786565b9050670de0b6b3a7640000838161645b5761645a617757565b5b04600289815481106164705761646f617544565b5b9060005260206000209060040201600301836008811061649357616492617544565b5b600891828204019190066004028282829054906101000a900463ffffffff160192506101000a81548163ffffffff021916908363ffffffff1602179055506000600289815481106164e7576164e6617544565b5b9060005260206000209060040201600301826008811061650a57616509617544565b5b600891828204019190066004029054906101000a900463ffffffff1663ffffffff1611156165955760006002898154811061654857616547617544565b5b9060005260206000209060040201600301826008811061656b5761656a617544565b5b600891828204019190066004026101000a81548163ffffffff021916908363ffffffff1602179055505b600073ffffffffffffffffffffffffffffffffffffffff168a73ffffffffffffffffffffffffffffffffffffffff161461665d577304d7000cc826349a872757d82b3e0f68a713b3c573ffffffffffffffffffffffffffffffffffffffff1663a9059cbb8b856040518363ffffffff1660e01b81526004016166189291906178be565b6020604051808303816000875af1158015616637573d6000803e3d6000fd5b505050506040513d601f19601f8201168201806040525081019061665b9190617bcc565b505b82985050505050505050509392505050565b6166798282611c2a565b1561674c57600080600084815260200190815260200160002060000160008373ffffffffffffffffffffffffffffffffffffffff1673ffffffffffffffffffffffffffffffffffffffff16815260200190815260200160002060006101000a81548160ff0219169083151502179055506166f1614087565b73ffffffffffffffffffffffffffffffffffffffff168173ffffffffffffffffffffffffffffffffffffffff16837ff6391f5c32d9c69d2a47ea670b442974b53935d1edc7fd64eb21e047a839171b60405160405180910390a45b5050565b6000616778836000018373ffffffffffffffffffffffffffffffffffffffff1660001b6168a6565b905092915050565b600082600001828154811061679857616797617544565b5b9060005260206000200154905092915050565b600081600001805490509050919050565b600061681e826040518060400160405280602081526020017f5361666545524332303a206c6f772d6c6576656c2063616c6c206661696c65648152508573ffffffffffffffffffffffffffffffffffffffff166169ba9092919063ffffffff16565b905060008151111561687e578080602001905181019061683e9190617bcc565b61687d576040517f08c379a000000000000000000000000000000000000000000000000000000000815260040161687490617c6b565b60405180910390fd5b5b505050565b600080836001016000848152602001908152602001600020541415905092915050565b600080836001016000848152602001908152602001600020549050600081146169ae5760006001826168d89190617859565b90506000600186600001805490506168f09190617859565b905081811461695f57600086600001828154811061691157616910617544565b5b906000526020600020015490508087600001848154811061693557616934617544565b5b90600052602060002001819055508387600101600083815260200190815260200160002081905550505b8560000180548061697357616972617c8b565b5b6001900381819060005260206000200160009055905585600101600086815260200190815260200160002060009055600193505050506169b4565b60009150505b92915050565b60606169c984846000856169d2565b90509392505050565b606082471015616a17576040517f08c379a0000000000000000000000000000000000000000000000000000000008152600401616a0e90617d2c565b60405180910390fd5b616a2085616ae6565b616a5f576040517f08c379a0000000000000000000000000000000000000000000000000000000008152600401616a5690617d98565b60405180910390fd5b6000808673ffffffffffffffffffffffffffffffffffffffff168587604051616a889190617dff565b60006040518083038185875af1925050503d8060008114616ac5576040519150601f19603f3d011682016040523d82523d6000602084013e616aca565b606091505b5091509150616ada828286616af9565b92505050949350505050565b600080823b905060008111915050919050565b60608315616b0957829050616b59565b600083511115616b1c5782518084602001fd5b816040517f08c379a0000000000000000000000000000000000000000000000000000000008152600401616b509190617522565b60405180910390fd5b9392505050565b6040518060a00160405280600073ffffffffffffffffffffffffffffffffffffffff16815260200160006dffffffffffffffffffffffffffff16815260200160006dffffffffffffffffffffffffffff16815260200160006dffffffffffffffffffffffffffff168152602001616bd5616bdb565b81525090565b604051806101000160405280600890602082028036833780820191505090505090565b826008600701600890048101928215616c905791602002820160005b83821115616c5e57835183826101000a81548163ffffffff021916908363ffffffff1602179055509260200192600401602081600301049283019260010302616c1a565b8015616c8e5782816101000a81549063ffffffff0219169055600401602081600301049283019260010302616c5e565b505b509050616c9d9190616ca1565b5090565b5b80821115616cba576000816000905550600101616ca2565b5090565b600080fd5b600080fd5b60007fffffffff0000000000000000000000000000000000000000000000000000000082169050919050565b616cfd81616cc8565b8114616d0857600080fd5b50565b600081359050616d1a81616cf4565b92915050565b600060208284031215616d3657616d35616cbe565b5b6000616d4484828501616d0b565b91505092915050565b60008115159050919050565b616d6281616d4d565b82525050565b6000602082019050616d7d6000830184616d59565b92915050565b600073ffffffffffffffffffffffffffffffffffffffff82169050919050565b6000616dae82616d83565b9050919050565b616dbe81616da3565b8114616dc957600080fd5b50565b600081359050616ddb81616db5565b92915050565b6000819050919050565b616df481616de1565b8114616dff57600080fd5b50565b600081359050616e1181616deb565b92915050565b600080600060608486031215616e3057616e2f616cbe565b5b6000616e3e86828701616dcc565b9350506020616e4f86828701616e02565b9250506040616e6086828701616dcc565b9150509250925092565b600080fd5b600080fd5b600080fd5b60008083601f840112616e8f57616e8e616e6a565b5b8235905067ffffffffffffffff811115616eac57616eab616e6f565b5b602083019150836040820283011115616ec857616ec7616e74565b5b9250929050565b60008060208385031215616ee657616ee5616cbe565b5b600083013567ffffffffffffffff811115616f0457616f03616cc3565b5b616f1085828601616e79565b92509250509250929050565b600060208284031215616f3257616f31616cbe565b5b6000616f4084828501616dcc565b91505092915050565b600060208284031215616f5f57616f5e616cbe565b5b6000616f6d84828501616e02565b91505092915050565b616f7f81616da3565b82525050565b6000602082019050616f9a6000830184616f76565b92915050565b600080600080600060a08688031215616fbc57616fbb616cbe565b5b6000616fca88828901616dcc565b9550506020616fdb88828901616e02565b9450506040616fec88828901616e02565b9350506060616ffd88828901616e02565b925050608061700e88828901616dcc565b9150509295509295909350565b61702481616de1565b82525050565b600060208201905061703f600083018461701b565b92915050565b600060608201905061705a600083018661701b565b617067602083018561701b565b617074604083018461701b565b949350505050565b6000819050919050565b61708f8161707c565b811461709a57600080fd5b50565b6000813590506170ac81617086565b92915050565b6000602082840312156170c8576170c7616cbe565b5b60006170d68482850161709d565b91505092915050565b6170e88161707c565b82525050565b600060208201905061710360008301846170df565b92915050565b600080604083850312156171205761711f616cbe565b5b600061712e8582860161709d565b925050602061713f85828601616dcc565b9150509250929050565b600080604083850312156171605761715f616cbe565b5b600061716e85828601616e02565b925050602061717f85828601616e02565b9150509250929050565b61719281616da3565b82525050565b60006dffffffffffffffffffffffffffff82169050919050565b6171bb81617198565b82525050565b600060089050919050565b600081905092915050565b6000819050919050565b600063ffffffff82169050919050565b6171fa816171e1565b82525050565b600061720c83836171f1565b60208301905092915050565b6000602082019050919050565b61722e816171c1565b61723881846171cc565b9250617243826171d7565b8060005b8381101561727457815161725b8782617200565b965061726683617218565b925050600181019050617247565b505050505050565b610180820160008201516172936000850182617189565b5060208201516172a660208501826171b2565b5060408201516172b960408501826171b2565b5060608201516172cc60608501826171b2565b5060808201516172df6080850182617225565b50505050565b6000610300820190506172fb600083018561727c565b61730961018083018461727c565b9392505050565b6000806040838503121561732757617326616cbe565b5b60006173358582860161709d565b925050602061734685828601616e02565b9150509250929050565b60008060008060008060c0878903121561736d5761736c616cbe565b5b600061737b89828a01616dcc565b965050602061738c89828a01616dcc565b955050604061739d89828a01616e02565b94505060606173ae89828a01616e02565b93505060806173bf89828a01616e02565b92505060a06173d089828a01616dcc565b9150509295509295509295565b6000610180820190506173f3600083018461727c565b92915050565b6000806000806080858703121561741357617412616cbe565b5b600061742187828801616dcc565b945050602061743287828801616e02565b935050604061744387828801616e02565b925050606061745487828801616dcc565b91505092959194509250565b6000604082019050617475600083018561701b565b617482602083018461701b565b9392505050565b600081519050919050565b600082825260208201905092915050565b60005b838110156174c35780820151818401526020810190506174a8565b838111156174d2576000848401525b50505050565b6000601f19601f8301169050919050565b60006174f482617489565b6174fe8185617494565b935061750e8185602086016174a5565b617517816174d8565b840191505092915050565b6000602082019050818103600083015261753c81846174e9565b905092915050565b7f4e487b7100000000000000000000000000000000000000000000000000000000600052603260045260246000fd5b7f4e487b7100000000000000000000000000000000000000000000000000000000600052601160045260246000fd5b60006175ad82616de1565b91507fffffffffffffffffffffffffffffffffffffffffffffffffffffffffffffffff8214156175e0576175df617573565b5b600182019050919050565b6000815190506175fa81616db5565b92915050565b60006020828403121561761657617615616cbe565b5b6000617624848285016175eb565b91505092915050565b60008151905061763c81616deb565b92915050565b60006020828403121561765857617657616cbe565b5b60006176668482850161762d565b91505092915050565b7f416363657373436f6e74726f6c3a2063616e206f6e6c792072656e6f756e636560008201527f20726f6c657320666f722073656c660000000000000000000000000000000000602082015250565b60006176cb602f83617494565b91506176d68261766f565b604082019050919050565b600060208201905081810360008301526176fa816176be565b9050919050565b600061770c82616de1565b915061771783616de1565b9250827fffffffffffffffffffffffffffffffffffffffffffffffffffffffffffffffff0382111561774c5761774b617573565b5b828201905092915050565b7f4e487b7100000000000000000000000000000000000000000000000000000000600052601260045260246000fd5b600061779182616de1565b915061779c83616de1565b9250826177ac576177ab617757565b5b828206905092915050565b60006177c282616de1565b91506177cd83616de1565b9250817fffffffffffffffffffffffffffffffffffffffffffffffffffffffffffffffff048311821515161561780657617805617573565b5b828202905092915050565b600061781c82617198565b915061782783617198565b9250816dffffffffffffffffffffffffffff048311821515161561784e5761784d617573565b5b828202905092915050565b600061786482616de1565b915061786f83616de1565b92508282101561788257617881617573565b5b828203905092915050565b600061789882616de1565b91506178a383616de1565b9250826178b3576178b2617757565b5b828204905092915050565b60006040820190506178d36000830185616f76565b6178e0602083018461701b565b9392505050565b60006060820190506178fc6000830186616f76565b617909602083018561701b565b617916604083018461701b565b949350505050565b600061792982617198565b915061793483617198565b9250826dffffffffffffffffffffffffffff0382111561795757617956617573565b5b828201905092915050565b600061796d82617198565b915061797883617198565b92508282101561798b5761798a617573565b5b828203905092915050565b600081905092915050565b7f416363657373436f6e74726f6c3a206163636f756e7420000000000000000000600082015250565b60006179d7601783617996565b91506179e2826179a1565b601782019050919050565b60006179f882617489565b617a028185617996565b9350617a128185602086016174a5565b80840191505092915050565b7f206973206d697373696e6720726f6c6520000000000000000000000000000000600082015250565b6000617a54601183617996565b9150617a5f82617a1e565b601182019050919050565b6000617a75826179ca565b9150617a8182856179ed565b9150617a8c82617a47565b9150617a9882846179ed565b91508190509392505050565b6000606082019050617ab96000830186616f76565b617ac66020830185616f76565b617ad3604083018461701b565b949350505050565b7f4e487b7100000000000000000000000000000000000000000000000000000000600052604160045260246000fd5b6000617b1582616de1565b91506000821415617b2957617b28617573565b5b600182039050919050565b7f537472696e67733a20686578206c656e67746820696e73756666696369656e74600082015250565b6000617b6a602083617494565b9150617b7582617b34565b602082019050919050565b60006020820190508181036000830152617b9981617b5d565b9050919050565b617ba981616d4d565b8114617bb457600080fd5b50565b600081519050617bc681617ba0565b92915050565b600060208284031215617be257617be1616cbe565b5b6000617bf084828501617bb7565b91505092915050565b7f5361666545524332303a204552433230206f7065726174696f6e20646964206e60008201527f6f74207375636365656400000000000000000000000000000000000000000000602082015250565b6000617c55602a83617494565b9150617c6082617bf9565b604082019050919050565b60006020820190508181036000830152617c8481617c48565b9050919050565b7f4e487b7100000000000000000000000000000000000000000000000000000000600052603160045260246000fd5b7f416464726573733a20696e73756666696369656e742062616c616e636520666f60008201527f722063616c6c0000000000000000000000000000000000000000000000000000602082015250565b6000617d16602683617494565b9150617d2182617cba565b604082019050919050565b60006020820190508181036000830152617d4581617d09565b9050919050565b7f416464726573733a2063616c6c20746f206e6f6e2d636f6e7472616374000000600082015250565b6000617d82601d83617494565b9150617d8d82617d4c565b602082019050919050565b60006020820190508181036000830152617db181617d75565b9050919050565b600081519050919050565b600081905092915050565b6000617dd982617db8565b617de38185617dc3565b9350617df38185602086016174a5565b80840191505092915050565b6000617e0b8284617dce565b91508190509291505056fea2646970667358221220135776412188b9a2270494e1b5174479c247a94dba54b8d326aca694e589a00564736f6c634300080b0033",
			"opcodes": "PUSH1 0x80 PUSH1 0x40 MSTORE PUSH2 0xDEAD PUSH1 0x6 PUSH1 0x0 PUSH2 0x100 EXP DUP2 SLOAD DUP2 PUSH20 0xFFFFFFFFFFFFFFFFFFFFFFFFFFFFFFFFFFFFFFFF MUL NOT AND SWAP1 DUP4 PUSH20 0xFFFFFFFFFFFFFFFFFFFFFFFFFFFFFFFFFFFFFFFF AND MUL OR SWAP1 SSTORE POP CALLVALUE DUP1 ISZERO PUSH3 0x54 JUMPI PUSH1 0x0 DUP1 REVERT JUMPDEST POP PUSH3 0x6A PUSH1 0x0 DUP1 SHL CALLER PUSH3 0x1AA PUSH1 0x20 SHL PUSH1 0x20 SHR JUMP JUMPDEST CALLER PUSH1 0x6 PUSH1 0x0 PUSH2 0x100 EXP DUP2 SLOAD DUP2 PUSH20 0xFFFFFFFFFFFFFFFFFFFFFFFFFFFFFFFFFFFFFFFF MUL NOT AND SWAP1 DUP4 PUSH20 0xFFFFFFFFFFFFFFFFFFFFFFFFFFFFFFFFFFFFFFFF AND MUL OR SWAP1 SSTORE POP PUSH2 0x3039 CHAINID EQ ISZERO PUSH3 0xFE JUMPI PUSH1 0x0 PUSH1 0x5 PUSH1 0x0 PUSH2 0x100 EXP DUP2 SLOAD DUP2 PUSH20 0xFFFFFFFFFFFFFFFFFFFFFFFFFFFFFFFFFFFFFFFF MUL NOT AND SWAP1 DUP4 PUSH20 0xFFFFFFFFFFFFFFFFFFFFFFFFFFFFFFFFFFFFFFFF AND MUL OR SWAP1 SSTORE POP PUSH3 0x14F JUMP JUMPDEST PUSH3 0x181CD CHAINID EQ ISZERO PUSH3 0x14E JUMPI PUSH2 0xDEAD PUSH1 0x5 PUSH1 0x0 PUSH2 0x100 EXP DUP2 SLOAD DUP2 PUSH20 0xFFFFFFFFFFFFFFFFFFFFFFFFFFFFFFFFFFFFFFFF MUL NOT AND SWAP1 DUP4 PUSH20 0xFFFFFFFFFFFFFFFFFFFFFFFFFFFFFFFFFFFFFFFF AND MUL OR SWAP1 SSTORE POP JUMPDEST JUMPDEST PUSH20 0x14769F96E57B80C66837701DE0B43686FB4632DE PUSH1 0x5 PUSH1 0x0 PUSH2 0x100 EXP DUP2 SLOAD DUP2 PUSH20 0xFFFFFFFFFFFFFFFFFFFFFFFFFFFFFFFFFFFFFFFF MUL NOT AND SWAP1 DUP4 PUSH20 0xFFFFFFFFFFFFFFFFFFFFFFFFFFFFFFFFFFFFFFFF AND MUL OR SWAP1 SSTORE POP PUSH3 0x440 JUMP JUMPDEST PUSH3 0x1BC DUP3 DUP3 PUSH3 0x1C0 PUSH1 0x20 SHL PUSH1 0x20 SHR JUMP JUMPDEST POP POP JUMP JUMPDEST PUSH3 0x1D7 DUP3 DUP3 PUSH3 0x208 PUSH1 0x20 SHL PUSH3 0x3562 OR PUSH1 0x20 SHR JUMP JUMPDEST PUSH3 0x203 DUP2 PUSH1 0x1 PUSH1 0x0 DUP6 DUP2 MSTORE PUSH1 0x20 ADD SWAP1 DUP2 MSTORE PUSH1 0x20 ADD PUSH1 0x0 KECCAK256 PUSH3 0x2F9 PUSH1 0x20 SHL PUSH3 0x3642 OR SWAP1 SWAP2 SWAP1 PUSH1 0x20 SHR JUMP JUMPDEST POP POP POP JUMP JUMPDEST PUSH3 0x21A DUP3 DUP3 PUSH3 0x331 PUSH1 0x20 SHL PUSH1 0x20 SHR JUMP JUMPDEST PUSH3 0x2F5 JUMPI PUSH1 0x1 PUSH1 0x0 DUP1 DUP5 DUP2 MSTORE PUSH1 0x20 ADD SWAP1 DUP2 MSTORE PUSH1 0x20 ADD PUSH1 0x0 KECCAK256 PUSH1 0x0 ADD PUSH1 0x0 DUP4 PUSH20 0xFFFFFFFFFFFFFFFFFFFFFFFFFFFFFFFFFFFFFFFF AND PUSH20 0xFFFFFFFFFFFFFFFFFFFFFFFFFFFFFFFFFFFFFFFF AND DUP2 MSTORE PUSH1 0x20 ADD SWAP1 DUP2 MSTORE PUSH1 0x20 ADD PUSH1 0x0 KECCAK256 PUSH1 0x0 PUSH2 0x100 EXP DUP2 SLOAD DUP2 PUSH1 0xFF MUL NOT AND SWAP1 DUP4 ISZERO ISZERO MUL OR SWAP1 SSTORE POP PUSH3 0x29A PUSH3 0x39B PUSH1 0x20 SHL PUSH1 0x20 SHR JUMP JUMPDEST PUSH20 0xFFFFFFFFFFFFFFFFFFFFFFFFFFFFFFFFFFFFFFFF AND DUP2 PUSH20 0xFFFFFFFFFFFFFFFFFFFFFFFFFFFFFFFFFFFFFFFF AND DUP4 PUSH32 0x2F8788117E7EFF1D82E926EC794901D17C78024A50270940304540A733656F0D PUSH1 0x40 MLOAD PUSH1 0x40 MLOAD DUP1 SWAP2 SUB SWAP1 LOG4 JUMPDEST POP POP JUMP JUMPDEST PUSH1 0x0 PUSH3 0x329 DUP4 PUSH1 0x0 ADD DUP4 PUSH20 0xFFFFFFFFFFFFFFFFFFFFFFFFFFFFFFFFFFFFFFFF AND PUSH1 0x0 SHL PUSH3 0x3A3 PUSH1 0x20 SHL PUSH1 0x20 SHR JUMP JUMPDEST SWAP1 POP SWAP3 SWAP2 POP POP JUMP JUMPDEST PUSH1 0x0 DUP1 PUSH1 0x0 DUP5 DUP2 MSTORE PUSH1 0x20 ADD SWAP1 DUP2 MSTORE PUSH1 0x20 ADD PUSH1 0x0 KECCAK256 PUSH1 0x0 ADD PUSH1 0x0 DUP4 PUSH20 0xFFFFFFFFFFFFFFFFFFFFFFFFFFFFFFFFFFFFFFFF AND PUSH20 0xFFFFFFFFFFFFFFFFFFFFFFFFFFFFFFFFFFFFFFFF AND DUP2 MSTORE PUSH1 0x20 ADD SWAP1 DUP2 MSTORE PUSH1 0x20 ADD PUSH1 0x0 KECCAK256 PUSH1 0x0 SWAP1 SLOAD SWAP1 PUSH2 0x100 EXP SWAP1 DIV PUSH1 0xFF AND SWAP1 POP SWAP3 SWAP2 POP POP JUMP JUMPDEST PUSH1 0x0 CALLER SWAP1 POP SWAP1 JUMP JUMPDEST PUSH1 0x0 PUSH3 0x3B7 DUP4 DUP4 PUSH3 0x41D PUSH1 0x20 SHL PUSH1 0x20 SHR JUMP JUMPDEST PUSH3 0x412 JUMPI DUP3 PUSH1 0x0 ADD DUP3 SWAP1 DUP1 PUSH1 0x1 DUP2 SLOAD ADD DUP1 DUP3 SSTORE DUP1 SWAP2 POP POP PUSH1 0x1 SWAP1 SUB SWAP1 PUSH1 0x0 MSTORE PUSH1 0x20 PUSH1 0x0 KECCAK256 ADD PUSH1 0x0 SWAP1 SWAP2 SWAP1 SWAP2 SWAP1 SWAP2 POP SSTORE DUP3 PUSH1 0x0 ADD DUP1 SLOAD SWAP1 POP DUP4 PUSH1 0x1 ADD PUSH1 0x0 DUP5 DUP2 MSTORE PUSH1 0x20 ADD SWAP1 DUP2 MSTORE PUSH1 0x20 ADD PUSH1 0x0 KECCAK256 DUP2 SWAP1 SSTORE POP PUSH1 0x1 SWAP1 POP PUSH3 0x417 JUMP JUMPDEST PUSH1 0x0 SWAP1 POP JUMPDEST SWAP3 SWAP2 POP POP JUMP JUMPDEST PUSH1 0x0 DUP1 DUP4 PUSH1 0x1 ADD PUSH1 0x0 DUP5 DUP2 MSTORE PUSH1 0x20 ADD SWAP1 DUP2 MSTORE PUSH1 0x20 ADD PUSH1 0x0 KECCAK256 SLOAD EQ ISZERO SWAP1 POP SWAP3 SWAP2 POP POP JUMP JUMPDEST PUSH2 0x7E4C DUP1 PUSH3 0x450 PUSH1 0x0 CODECOPY PUSH1 0x0 RETURN INVALID PUSH1 0x80 PUSH1 0x40 MSTORE PUSH1 0x4 CALLDATASIZE LT PUSH2 0x204 JUMPI PUSH1 0x0 CALLDATALOAD PUSH1 0xE0 SHR DUP1 PUSH4 0x8D6D61D9 GT PUSH2 0x118 JUMPI DUP1 PUSH4 0xCD01A60A GT PUSH2 0xA0 JUMPI DUP1 PUSH4 0xD547741F GT PUSH2 0x6F JUMPI DUP1 PUSH4 0xD547741F EQ PUSH2 0x7F2 JUMPI DUP1 PUSH4 0xD5D60737 EQ PUSH2 0x81B JUMPI DUP1 PUSH4 0xE07BF7AD EQ PUSH2 0x844 JUMPI DUP1 PUSH4 0xE40A99A8 EQ PUSH2 0x870 JUMPI DUP1 PUSH4 0xF6524724 EQ PUSH2 0x8AD JUMPI PUSH2 0x204 JUMP JUMPDEST DUP1 PUSH4 0xCD01A60A EQ PUSH2 0x71D JUMPI DUP1 PUSH4 0xCF8AE864 EQ PUSH2 0x75A JUMPI DUP1 PUSH4 0xD01350BD EQ PUSH2 0x78A JUMPI DUP1 PUSH4 0xD391014B EQ PUSH2 0x7C7 JUMPI PUSH2 0x204 JUMP JUMPDEST DUP1 PUSH4 0xA465626F GT PUSH2 0xE7 JUMPI DUP1 PUSH4 0xA465626F EQ PUSH2 0x624 JUMPI DUP1 PUSH4 0xA60C6E55 EQ PUSH2 0x64F JUMPI DUP1 PUSH4 0xBBADC03B EQ PUSH2 0x68C JUMPI DUP1 PUSH4 0xC09C923B EQ PUSH2 0x6C9 JUMPI DUP1 PUSH4 0xCA15C873 EQ PUSH2 0x6E0 JUMPI PUSH2 0x204 JUMP JUMPDEST DUP1 PUSH4 0x8D6D61D9 EQ PUSH2 0x558 JUMPI DUP1 PUSH4 0x9010D07C EQ PUSH2 0x581 JUMPI DUP1 PUSH4 0x91D14854 EQ PUSH2 0x5BE JUMPI DUP1 PUSH4 0x9BC731FC EQ PUSH2 0x5FB JUMPI PUSH2 0x204 JUMP JUMPDEST DUP1 PUSH4 0x248A9CA3 GT PUSH2 0x19B JUMPI DUP1 PUSH4 0x4FA8F197 GT PUSH2 0x16A JUMPI DUP1 PUSH4 0x4FA8F197 EQ PUSH2 0x44A JUMPI DUP1 PUSH4 0x5E6104B1 EQ PUSH2 0x487 JUMPI DUP1 PUSH4 0x6853AC26 EQ PUSH2 0x4B3 JUMPI DUP1 PUSH4 0x6EC14858 EQ PUSH2 0x4F0 JUMPI DUP1 PUSH4 0x7B4B233C EQ PUSH2 0x52D JUMPI PUSH2 0x204 JUMP JUMPDEST DUP1 PUSH4 0x248A9CA3 EQ PUSH2 0x38B JUMPI DUP1 PUSH4 0x2F2FF15D EQ PUSH2 0x3C8 JUMPI DUP1 PUSH4 0x36568ABE EQ PUSH2 0x3F1 JUMPI DUP1 PUSH4 0x41D310EC EQ PUSH2 0x41A JUMPI PUSH2 0x204 JUMP JUMPDEST DUP1 PUSH4 0x6FB1A07 GT PUSH2 0x1D7 JUMPI DUP1 PUSH4 0x6FB1A07 EQ PUSH2 0x2C1 JUMPI DUP1 PUSH4 0x975552E EQ PUSH2 0x2FE JUMPI DUP1 PUSH4 0x186EFAD9 EQ PUSH2 0x32E JUMPI DUP1 PUSH4 0x195DF43E EQ PUSH2 0x35B JUMPI PUSH2 0x204 JUMP JUMPDEST DUP1 PUSH4 0x1FFC9A7 EQ PUSH2 0x209 JUMPI DUP1 PUSH4 0x369679E EQ PUSH2 0x246 JUMPI DUP1 PUSH4 0x3ED957F EQ PUSH2 0x26F JUMPI DUP1 PUSH4 0x6EDD763 EQ PUSH2 0x298 JUMPI JUMPDEST PUSH1 0x0 DUP1 REVERT JUMPDEST CALLVALUE DUP1 ISZERO PUSH2 0x215 JUMPI PUSH1 0x0 DUP1 REVERT JUMPDEST POP PUSH2 0x230 PUSH1 0x4 DUP1 CALLDATASIZE SUB DUP2 ADD SWAP1 PUSH2 0x22B SWAP2 SWAP1 PUSH2 0x6D20 JUMP JUMPDEST PUSH2 0x8EA JUMP JUMPDEST PUSH1 0x40 MLOAD PUSH2 0x23D SWAP2 SWAP1 PUSH2 0x6D68 JUMP JUMPDEST PUSH1 0x40 MLOAD DUP1 SWAP2 SUB SWAP1 RETURN JUMPDEST CALLVALUE DUP1 ISZERO PUSH2 0x252 JUMPI PUSH1 0x0 DUP1 REVERT JUMPDEST POP PUSH2 0x26D PUSH1 0x4 DUP1 CALLDATASIZE SUB DUP2 ADD SWAP1 PUSH2 0x268 SWAP2 SWAP1 PUSH2 0x6E17 JUMP JUMPDEST PUSH2 0x954 JUMP JUMPDEST STOP JUMPDEST CALLVALUE DUP1 ISZERO PUSH2 0x27B JUMPI PUSH1 0x0 DUP1 REVERT JUMPDEST POP PUSH2 0x296 PUSH1 0x4 DUP1 CALLDATASIZE SUB DUP2 ADD SWAP1 PUSH2 0x291 SWAP2 SWAP1 PUSH2 0x6ECF JUMP JUMPDEST PUSH2 0xA6E JUMP JUMPDEST STOP JUMPDEST CALLVALUE DUP1 ISZERO PUSH2 0x2A4 JUMPI PUSH1 0x0 DUP1 REVERT JUMPDEST POP PUSH2 0x2BF PUSH1 0x4 DUP1 CALLDATASIZE SUB DUP2 ADD SWAP1 PUSH2 0x2BA SWAP2 SWAP1 PUSH2 0x6F1C JUMP JUMPDEST PUSH2 0xAFA JUMP JUMPDEST STOP JUMPDEST CALLVALUE DUP1 ISZERO PUSH2 0x2CD JUMPI PUSH1 0x0 DUP1 REVERT JUMPDEST POP PUSH2 0x2E8 PUSH1 0x4 DUP1 CALLDATASIZE SUB DUP2 ADD SWAP1 PUSH2 0x2E3 SWAP2 SWAP1 PUSH2 0x6F49 JUMP JUMPDEST PUSH2 0xB54 JUMP JUMPDEST PUSH1 0x40 MLOAD PUSH2 0x2F5 SWAP2 SWAP1 PUSH2 0x6F85 JUMP JUMPDEST PUSH1 0x40 MLOAD DUP1 SWAP2 SUB SWAP1 RETURN JUMPDEST PUSH2 0x318 PUSH1 0x4 DUP1 CALLDATASIZE SUB DUP2 ADD SWAP1 PUSH2 0x313 SWAP2 SWAP1 PUSH2 0x6FA0 JUMP JUMPDEST PUSH2 0xBEB JUMP JUMPDEST PUSH1 0x40 MLOAD PUSH2 0x325 SWAP2 SWAP1 PUSH2 0x702A JUMP JUMPDEST PUSH1 0x40 MLOAD DUP1 SWAP2 SUB SWAP1 RETURN JUMPDEST CALLVALUE DUP1 ISZERO PUSH2 0x33A JUMPI PUSH1 0x0 DUP1 REVERT JUMPDEST POP PUSH2 0x343 PUSH2 0xDD1 JUMP JUMPDEST PUSH1 0x40 MLOAD PUSH2 0x352 SWAP4 SWAP3 SWAP2 SWAP1 PUSH2 0x7045 JUMP JUMPDEST PUSH1 0x40 MLOAD DUP1 SWAP2 SUB SWAP1 RETURN JUMPDEST PUSH2 0x375 PUSH1 0x4 DUP1 CALLDATASIZE SUB DUP2 ADD SWAP1 PUSH2 0x370 SWAP2 SWAP1 PUSH2 0x6FA0 JUMP JUMPDEST PUSH2 0xF8B JUMP JUMPDEST PUSH1 0x40 MLOAD PUSH2 0x382 SWAP2 SWAP1 PUSH2 0x702A JUMP JUMPDEST PUSH1 0x40 MLOAD DUP1 SWAP2 SUB SWAP1 RETURN JUMPDEST CALLVALUE DUP1 ISZERO PUSH2 0x397 JUMPI PUSH1 0x0 DUP1 REVERT JUMPDEST POP PUSH2 0x3B2 PUSH1 0x4 DUP1 CALLDATASIZE SUB DUP2 ADD SWAP1 PUSH2 0x3AD SWAP2 SWAP1 PUSH2 0x70B2 JUMP JUMPDEST PUSH2 0x1171 JUMP JUMPDEST PUSH1 0x40 MLOAD PUSH2 0x3BF SWAP2 SWAP1 PUSH2 0x70EE JUMP JUMPDEST PUSH1 0x40 MLOAD DUP1 SWAP2 SUB SWAP1 RETURN JUMPDEST CALLVALUE DUP1 ISZERO PUSH2 0x3D4 JUMPI PUSH1 0x0 DUP1 REVERT JUMPDEST POP PUSH2 0x3EF PUSH1 0x4 DUP1 CALLDATASIZE SUB DUP2 ADD SWAP1 PUSH2 0x3EA SWAP2 SWAP1 PUSH2 0x7109 JUMP JUMPDEST PUSH2 0x1190 JUMP JUMPDEST STOP JUMPDEST CALLVALUE DUP1 ISZERO PUSH2 0x3FD JUMPI PUSH1 0x0 DUP1 REVERT JUMPDEST POP PUSH2 0x418 PUSH1 0x4 DUP1 CALLDATASIZE SUB DUP2 ADD SWAP1 PUSH2 0x413 SWAP2 SWAP1 PUSH2 0x7109 JUMP JUMPDEST PUSH2 0x11B9 JUMP JUMPDEST STOP JUMPDEST PUSH2 0x434 PUSH1 0x4 DUP1 CALLDATASIZE SUB DUP2 ADD SWAP1 PUSH2 0x42F SWAP2 SWAP1 PUSH2 0x6FA0 JUMP JUMPDEST PUSH2 0x123C JUMP JUMPDEST PUSH1 0x40 MLOAD PUSH2 0x441 SWAP2 SWAP1 PUSH2 0x702A JUMP JUMPDEST PUSH1 0x40 MLOAD DUP1 SWAP2 SUB SWAP1 RETURN JUMPDEST CALLVALUE DUP1 ISZERO PUSH2 0x456 JUMPI PUSH1 0x0 DUP1 REVERT JUMPDEST POP PUSH2 0x471 PUSH1 0x4 DUP1 CALLDATASIZE SUB DUP2 ADD SWAP1 PUSH2 0x46C SWAP2 SWAP1 PUSH2 0x7149 JUMP JUMPDEST PUSH2 0x1422 JUMP JUMPDEST PUSH1 0x40 MLOAD PUSH2 0x47E SWAP2 SWAP1 PUSH2 0x702A JUMP JUMPDEST PUSH1 0x40 MLOAD DUP1 SWAP2 SUB SWAP1 RETURN JUMPDEST CALLVALUE DUP1 ISZERO PUSH2 0x493 JUMPI PUSH1 0x0 DUP1 REVERT JUMPDEST POP PUSH2 0x49C PUSH2 0x14DE JUMP JUMPDEST PUSH1 0x40 MLOAD PUSH2 0x4AA SWAP3 SWAP2 SWAP1 PUSH2 0x72E5 JUMP JUMPDEST PUSH1 0x40 MLOAD DUP1 SWAP2 SUB SWAP1 RETURN JUMPDEST CALLVALUE DUP1 ISZERO PUSH2 0x4BF JUMPI PUSH1 0x0 DUP1 REVERT JUMPDEST POP PUSH2 0x4DA PUSH1 0x4 DUP1 CALLDATASIZE SUB DUP2 ADD SWAP1 PUSH2 0x4D5 SWAP2 SWAP1 PUSH2 0x6F49 JUMP JUMPDEST PUSH2 0x192E JUMP JUMPDEST PUSH1 0x40 MLOAD PUSH2 0x4E7 SWAP2 SWAP1 PUSH2 0x702A JUMP JUMPDEST PUSH1 0x40 MLOAD DUP1 SWAP2 SUB SWAP1 RETURN JUMPDEST CALLVALUE DUP1 ISZERO PUSH2 0x4FC JUMPI PUSH1 0x0 DUP1 REVERT JUMPDEST POP PUSH2 0x517 PUSH1 0x4 DUP1 CALLDATASIZE SUB DUP2 ADD SWAP1 PUSH2 0x512 SWAP2 SWAP1 PUSH2 0x7149 JUMP JUMPDEST PUSH2 0x1B08 JUMP JUMPDEST PUSH1 0x40 MLOAD PUSH2 0x524 SWAP2 SWAP1 PUSH2 0x702A JUMP JUMPDEST PUSH1 0x40 MLOAD DUP1 SWAP2 SUB SWAP1 RETURN JUMPDEST CALLVALUE DUP1 ISZERO PUSH2 0x539 JUMPI PUSH1 0x0 DUP1 REVERT JUMPDEST POP PUSH2 0x542 PUSH2 0x1BC4 JUMP JUMPDEST PUSH1 0x40 MLOAD PUSH2 0x54F SWAP2 SWAP1 PUSH2 0x6F85 JUMP JUMPDEST PUSH1 0x40 MLOAD DUP1 SWAP2 SUB SWAP1 RETURN JUMPDEST CALLVALUE DUP1 ISZERO PUSH2 0x564 JUMPI PUSH1 0x0 DUP1 REVERT JUMPDEST POP PUSH2 0x57F PUSH1 0x4 DUP1 CALLDATASIZE SUB DUP2 ADD SWAP1 PUSH2 0x57A SWAP2 SWAP1 PUSH2 0x6E17 JUMP JUMPDEST PUSH2 0x1BEA JUMP JUMPDEST STOP JUMPDEST CALLVALUE DUP1 ISZERO PUSH2 0x58D JUMPI PUSH1 0x0 DUP1 REVERT JUMPDEST POP PUSH2 0x5A8 PUSH1 0x4 DUP1 CALLDATASIZE SUB DUP2 ADD SWAP1 PUSH2 0x5A3 SWAP2 SWAP1 PUSH2 0x7310 JUMP JUMPDEST PUSH2 0x1BFB JUMP JUMPDEST PUSH1 0x40 MLOAD PUSH2 0x5B5 SWAP2 SWAP1 PUSH2 0x6F85 JUMP JUMPDEST PUSH1 0x40 MLOAD DUP1 SWAP2 SUB SWAP1 RETURN JUMPDEST CALLVALUE DUP1 ISZERO PUSH2 0x5CA JUMPI PUSH1 0x0 DUP1 REVERT JUMPDEST POP PUSH2 0x5E5 PUSH1 0x4 DUP1 CALLDATASIZE SUB DUP2 ADD SWAP1 PUSH2 0x5E0 SWAP2 SWAP1 PUSH2 0x7109 JUMP JUMPDEST PUSH2 0x1C2A JUMP JUMPDEST PUSH1 0x40 MLOAD PUSH2 0x5F2 SWAP2 SWAP1 PUSH2 0x6D68 JUMP JUMPDEST PUSH1 0x40 MLOAD DUP1 SWAP2 SUB SWAP1 RETURN JUMPDEST CALLVALUE DUP1 ISZERO PUSH2 0x607 JUMPI PUSH1 0x0 DUP1 REVERT JUMPDEST POP PUSH2 0x622 PUSH1 0x4 DUP1 CALLDATASIZE SUB DUP2 ADD SWAP1 PUSH2 0x61D SWAP2 SWAP1 PUSH2 0x6F1C JUMP JUMPDEST PUSH2 0x1C94 JUMP JUMPDEST STOP JUMPDEST CALLVALUE DUP1 ISZERO PUSH2 0x630 JUMPI PUSH1 0x0 DUP1 REVERT JUMPDEST POP PUSH2 0x639 PUSH2 0x1F4A JUMP JUMPDEST PUSH1 0x40 MLOAD PUSH2 0x646 SWAP2 SWAP1 PUSH2 0x702A JUMP JUMPDEST PUSH1 0x40 MLOAD DUP1 SWAP2 SUB SWAP1 RETURN JUMPDEST CALLVALUE DUP1 ISZERO PUSH2 0x65B JUMPI PUSH1 0x0 DUP1 REVERT JUMPDEST POP PUSH2 0x676 PUSH1 0x4 DUP1 CALLDATASIZE SUB DUP2 ADD SWAP1 PUSH2 0x671 SWAP2 SWAP1 PUSH2 0x7350 JUMP JUMPDEST PUSH2 0x1F6B JUMP JUMPDEST PUSH1 0x40 MLOAD PUSH2 0x683 SWAP2 SWAP1 PUSH2 0x702A JUMP JUMPDEST PUSH1 0x40 MLOAD DUP1 SWAP2 SUB SWAP1 RETURN JUMPDEST CALLVALUE DUP1 ISZERO PUSH2 0x698 JUMPI PUSH1 0x0 DUP1 REVERT JUMPDEST POP PUSH2 0x6B3 PUSH1 0x4 DUP1 CALLDATASIZE SUB DUP2 ADD SWAP1 PUSH2 0x6AE SWAP2 SWAP1 PUSH2 0x6F1C JUMP JUMPDEST PUSH2 0x210E JUMP JUMPDEST PUSH1 0x40 MLOAD PUSH2 0x6C0 SWAP2 SWAP1 PUSH2 0x73DD JUMP JUMPDEST PUSH1 0x40 MLOAD DUP1 SWAP2 SUB SWAP1 RETURN JUMPDEST CALLVALUE DUP1 ISZERO PUSH2 0x6D5 JUMPI PUSH1 0x0 DUP1 REVERT JUMPDEST POP PUSH2 0x6DE PUSH2 0x231C JUMP JUMPDEST STOP JUMPDEST CALLVALUE DUP1 ISZERO PUSH2 0x6EC JUMPI PUSH1 0x0 DUP1 REVERT JUMPDEST POP PUSH2 0x707 PUSH1 0x4 DUP1 CALLDATASIZE SUB DUP2 ADD SWAP1 PUSH2 0x702 SWAP2 SWAP1 PUSH2 0x70B2 JUMP JUMPDEST PUSH2 0x25ED JUMP JUMPDEST PUSH1 0x40 MLOAD PUSH2 0x714 SWAP2 SWAP1 PUSH2 0x702A JUMP JUMPDEST PUSH1 0x40 MLOAD DUP1 SWAP2 SUB SWAP1 RETURN JUMPDEST CALLVALUE DUP1 ISZERO PUSH2 0x729 JUMPI PUSH1 0x0 DUP1 REVERT JUMPDEST POP PUSH2 0x744 PUSH1 0x4 DUP1 CALLDATASIZE SUB DUP2 ADD SWAP1 PUSH2 0x73F SWAP2 SWAP1 PUSH2 0x7149 JUMP JUMPDEST PUSH2 0x2611 JUMP JUMPDEST PUSH1 0x40 MLOAD PUSH2 0x751 SWAP2 SWAP1 PUSH2 0x702A JUMP JUMPDEST PUSH1 0x40 MLOAD DUP1 SWAP2 SUB SWAP1 RETURN JUMPDEST PUSH2 0x774 PUSH1 0x4 DUP1 CALLDATASIZE SUB DUP2 ADD SWAP1 PUSH2 0x76F SWAP2 SWAP1 PUSH2 0x6FA0 JUMP JUMPDEST PUSH2 0x26CD JUMP JUMPDEST PUSH1 0x40 MLOAD PUSH2 0x781 SWAP2 SWAP1 PUSH2 0x702A JUMP JUMPDEST PUSH1 0x40 MLOAD DUP1 SWAP2 SUB SWAP1 RETURN JUMPDEST CALLVALUE DUP1 ISZERO PUSH2 0x796 JUMPI PUSH1 0x0 DUP1 REVERT JUMPDEST POP PUSH2 0x7B1 PUSH1 0x4 DUP1 CALLDATASIZE SUB DUP2 ADD SWAP1 PUSH2 0x7AC SWAP2 SWAP1 PUSH2 0x6F49 JUMP JUMPDEST PUSH2 0x28B3 JUMP JUMPDEST PUSH1 0x40 MLOAD PUSH2 0x7BE SWAP2 SWAP1 PUSH2 0x73DD JUMP JUMPDEST PUSH1 0x40 MLOAD DUP1 SWAP2 SUB SWAP1 RETURN JUMPDEST CALLVALUE DUP1 ISZERO PUSH2 0x7D3 JUMPI PUSH1 0x0 DUP1 REVERT JUMPDEST POP PUSH2 0x7DC PUSH2 0x2A82 JUMP JUMPDEST PUSH1 0x40 MLOAD PUSH2 0x7E9 SWAP2 SWAP1 PUSH2 0x70EE JUMP JUMPDEST PUSH1 0x40 MLOAD DUP1 SWAP2 SUB SWAP1 RETURN JUMPDEST CALLVALUE DUP1 ISZERO PUSH2 0x7FE JUMPI PUSH1 0x0 DUP1 REVERT JUMPDEST POP PUSH2 0x819 PUSH1 0x4 DUP1 CALLDATASIZE SUB DUP2 ADD SWAP1 PUSH2 0x814 SWAP2 SWAP1 PUSH2 0x7109 JUMP JUMPDEST PUSH2 0x2A89 JUMP JUMPDEST STOP JUMPDEST CALLVALUE DUP1 ISZERO PUSH2 0x827 JUMPI PUSH1 0x0 DUP1 REVERT JUMPDEST POP PUSH2 0x842 PUSH1 0x4 DUP1 CALLDATASIZE SUB DUP2 ADD SWAP1 PUSH2 0x83D SWAP2 SWAP1 PUSH2 0x73F9 JUMP JUMPDEST PUSH2 0x2AB2 JUMP JUMPDEST STOP JUMPDEST CALLVALUE DUP1 ISZERO PUSH2 0x850 JUMPI PUSH1 0x0 DUP1 REVERT JUMPDEST POP PUSH2 0x859 PUSH2 0x30CC JUMP JUMPDEST PUSH1 0x40 MLOAD PUSH2 0x867 SWAP3 SWAP2 SWAP1 PUSH2 0x7460 JUMP JUMPDEST PUSH1 0x40 MLOAD DUP1 SWAP2 SUB SWAP1 RETURN JUMPDEST CALLVALUE DUP1 ISZERO PUSH2 0x87C JUMPI PUSH1 0x0 DUP1 REVERT JUMPDEST POP PUSH2 0x897 PUSH1 0x4 DUP1 CALLDATASIZE SUB DUP2 ADD SWAP1 PUSH2 0x892 SWAP2 SWAP1 PUSH2 0x7149 JUMP JUMPDEST PUSH2 0x3303 JUMP JUMPDEST PUSH1 0x40 MLOAD PUSH2 0x8A4 SWAP2 SWAP1 PUSH2 0x702A JUMP JUMPDEST PUSH1 0x40 MLOAD DUP1 SWAP2 SUB SWAP1 RETURN JUMPDEST CALLVALUE DUP1 ISZERO PUSH2 0x8B9 JUMPI PUSH1 0x0 DUP1 REVERT JUMPDEST POP PUSH2 0x8D4 PUSH1 0x4 DUP1 CALLDATASIZE SUB DUP2 ADD SWAP1 PUSH2 0x8CF SWAP2 SWAP1 PUSH2 0x7350 JUMP JUMPDEST PUSH2 0x33BF JUMP JUMPDEST PUSH1 0x40 MLOAD PUSH2 0x8E1 SWAP2 SWAP1 PUSH2 0x702A JUMP JUMPDEST PUSH1 0x40 MLOAD DUP1 SWAP2 SUB SWAP1 RETURN JUMPDEST PUSH1 0x0 PUSH32 0x1FFC9A700000000000000000000000000000000000000000000000000000000 PUSH28 0xFFFFFFFFFFFFFFFFFFFFFFFFFFFFFFFFFFFFFFFFFFFFFFFFFFFFFFFF NOT AND DUP3 PUSH28 0xFFFFFFFFFFFFFFFFFFFFFFFFFFFFFFFFFFFFFFFFFFFFFFFFFFFFFFFF NOT AND EQ SWAP1 POP SWAP2 SWAP1 POP JUMP JUMPDEST DUP3 PUSH1 0x0 PUSH1 0x3 PUSH1 0x0 DUP4 PUSH20 0xFFFFFFFFFFFFFFFFFFFFFFFFFFFFFFFFFFFFFFFF AND PUSH20 0xFFFFFFFFFFFFFFFFFFFFFFFFFFFFFFFFFFFFFFFF AND DUP2 MSTORE PUSH1 0x20 ADD SWAP1 DUP2 MSTORE PUSH1 0x20 ADD PUSH1 0x0 KECCAK256 SLOAD GT DUP1 ISZERO PUSH2 0x9E4 JUMPI POP PUSH20 0x4D7000CC826349A872757D82B3E0F68A713B3C5 PUSH20 0xFFFFFFFFFFFFFFFFFFFFFFFFFFFFFFFFFFFFFFFF AND DUP2 PUSH20 0xFFFFFFFFFFFFFFFFFFFFFFFFFFFFFFFFFFFFFFFF AND EQ ISZERO JUMPDEST PUSH1 0x40 MLOAD DUP1 PUSH1 0x40 ADD PUSH1 0x40 MSTORE DUP1 PUSH1 0x1 DUP2 MSTORE PUSH1 0x20 ADD PUSH32 0x4E00000000000000000000000000000000000000000000000000000000000000 DUP2 MSTORE POP SWAP1 PUSH2 0xA5B JUMPI PUSH1 0x40 MLOAD PUSH32 0x8C379A000000000000000000000000000000000000000000000000000000000 DUP2 MSTORE PUSH1 0x4 ADD PUSH2 0xA52 SWAP2 SWAP1 PUSH2 0x7522 JUMP JUMPDEST PUSH1 0x40 MLOAD DUP1 SWAP2 SUB SWAP1 REVERT JUMPDEST POP PUSH2 0xA68 CALLER DUP6 DUP6 DUP6 PUSH2 0x3672 JUMP JUMPDEST POP POP POP POP JUMP JUMPDEST PUSH1 0x0 DUP1 SHL PUSH2 0xA83 DUP2 PUSH2 0xA7E PUSH2 0x4087 JUMP JUMPDEST PUSH2 0x408F JUMP JUMPDEST PUSH1 0x0 JUMPDEST DUP4 DUP4 SWAP1 POP DUP2 LT ISZERO PUSH2 0xAF4 JUMPI PUSH2 0xAE1 DUP5 DUP5 DUP4 DUP2 DUP2 LT PUSH2 0xAA7 JUMPI PUSH2 0xAA6 PUSH2 0x7544 JUMP JUMPDEST JUMPDEST SWAP1 POP PUSH1 0x40 MUL ADD PUSH1 0x0 ADD CALLDATALOAD DUP6 DUP6 DUP5 DUP2 DUP2 LT PUSH2 0xAC4 JUMPI PUSH2 0xAC3 PUSH2 0x7544 JUMP JUMPDEST JUMPDEST SWAP1 POP PUSH1 0x40 MUL ADD PUSH1 0x20 ADD PUSH1 0x20 DUP2 ADD SWAP1 PUSH2 0xADC SWAP2 SWAP1 PUSH2 0x6F1C JUMP JUMPDEST PUSH2 0x412C JUMP JUMPDEST DUP1 DUP1 PUSH2 0xAEC SWAP1 PUSH2 0x75A2 JUMP JUMPDEST SWAP2 POP POP PUSH2 0xA86 JUMP JUMPDEST POP POP POP POP JUMP JUMPDEST PUSH1 0x0 DUP1 SHL PUSH2 0xB0F DUP2 PUSH2 0xB0A PUSH2 0x4087 JUMP JUMPDEST PUSH2 0x408F JUMP JUMPDEST DUP2 PUSH1 0x6 PUSH1 0x0 PUSH2 0x100 EXP DUP2 SLOAD DUP2 PUSH20 0xFFFFFFFFFFFFFFFFFFFFFFFFFFFFFFFFFFFFFFFF MUL NOT AND SWAP1 DUP4 PUSH20 0xFFFFFFFFFFFFFFFFFFFFFFFFFFFFFFFFFFFFFFFF AND MUL OR SWAP1 SSTORE POP POP POP JUMP JUMPDEST PUSH1 0x0 PUSH20 0xDEF1FAC7BF08F173D286BBBDCBEEADE695129840 PUSH20 0xFFFFFFFFFFFFFFFFFFFFFFFFFFFFFFFFFFFFFFFF AND PUSH4 0x6FB1A07 DUP4 PUSH1 0x40 MLOAD DUP3 PUSH4 0xFFFFFFFF AND PUSH1 0xE0 SHL DUP2 MSTORE PUSH1 0x4 ADD PUSH2 0xBA3 SWAP2 SWAP1 PUSH2 0x702A JUMP JUMPDEST PUSH1 0x20 PUSH1 0x40 MLOAD DUP1 DUP4 SUB DUP2 DUP7 GAS STATICCALL ISZERO DUP1 ISZERO PUSH2 0xBC0 JUMPI RETURNDATASIZE PUSH1 0x0 DUP1 RETURNDATACOPY RETURNDATASIZE PUSH1 0x0 REVERT JUMPDEST POP POP POP POP PUSH1 0x40 MLOAD RETURNDATASIZE PUSH1 0x1F NOT PUSH1 0x1F DUP3 ADD AND DUP3 ADD DUP1 PUSH1 0x40 MSTORE POP DUP2 ADD SWAP1 PUSH2 0xBE4 SWAP2 SWAP1 PUSH2 0x7600 JUMP JUMPDEST SWAP1 POP SWAP2 SWAP1 POP JUMP JUMPDEST PUSH1 0x0 PUSH1 0x5 PUSH1 0x0 SWAP1 SLOAD SWAP1 PUSH2 0x100 EXP SWAP1 DIV PUSH20 0xFFFFFFFFFFFFFFFFFFFFFFFFFFFFFFFFFFFFFFFF AND PUSH1 0x0 PUSH1 0x3 PUSH1 0x0 DUP4 PUSH20 0xFFFFFFFFFFFFFFFFFFFFFFFFFFFFFFFFFFFFFFFF AND PUSH20 0xFFFFFFFFFFFFFFFFFFFFFFFFFFFFFFFFFFFFFFFF AND DUP2 MSTORE PUSH1 0x20 ADD SWAP1 DUP2 MSTORE PUSH1 0x20 ADD PUSH1 0x0 KECCAK256 SLOAD GT DUP1 ISZERO PUSH2 0xC9F JUMPI POP PUSH20 0x4D7000CC826349A872757D82B3E0F68A713B3C5 PUSH20 0xFFFFFFFFFFFFFFFFFFFFFFFFFFFFFFFFFFFFFFFF AND DUP2 PUSH20 0xFFFFFFFFFFFFFFFFFFFFFFFFFFFFFFFFFFFFFFFF AND EQ ISZERO JUMPDEST PUSH1 0x40 MLOAD DUP1 PUSH1 0x40 ADD PUSH1 0x40 MSTORE DUP1 PUSH1 0x1 DUP2 MSTORE PUSH1 0x20 ADD PUSH32 0x4E00000000000000000000000000000000000000000000000000000000000000 DUP2 MSTORE POP SWAP1 PUSH2 0xD16 JUMPI PUSH1 0x40 MLOAD PUSH32 0x8C379A000000000000000000000000000000000000000000000000000000000 DUP2 MSTORE PUSH1 0x4 ADD PUSH2 0xD0D SWAP2 SWAP1 PUSH2 0x7522 JUMP JUMPDEST PUSH1 0x40 MLOAD DUP1 SWAP2 SUB SWAP1 REVERT JUMPDEST POP DUP4 DUP1 TIMESTAMP GT ISZERO PUSH1 0x40 MLOAD DUP1 PUSH1 0x40 ADD PUSH1 0x40 MSTORE DUP1 PUSH1 0x1 DUP2 MSTORE PUSH1 0x20 ADD PUSH32 0x5400000000000000000000000000000000000000000000000000000000000000 DUP2 MSTORE POP SWAP1 PUSH2 0xD93 JUMPI PUSH1 0x40 MLOAD PUSH32 0x8C379A000000000000000000000000000000000000000000000000000000000 DUP2 MSTORE PUSH1 0x4 ADD PUSH2 0xD8A SWAP2 SWAP1 PUSH2 0x7522 JUMP JUMPDEST PUSH1 0x40 MLOAD DUP1 SWAP2 SUB SWAP1 REVERT JUMPDEST POP PUSH2 0xDC4 ADDRESS PUSH1 0x5 PUSH1 0x0 SWAP1 SLOAD SWAP1 PUSH2 0x100 EXP SWAP1 DIV PUSH20 0xFFFFFFFFFFFFFFFFFFFFFFFFFFFFFFFFFFFFFFFF AND DUP11 DUP11 DUP11 DUP10 PUSH2 0x413A JUMP JUMPDEST SWAP3 POP POP POP SWAP6 SWAP5 POP POP POP POP POP JUMP JUMPDEST PUSH1 0x0 DUP1 PUSH1 0x0 PUSH20 0xCD300DD54345F48BA108DF3D792B6C2DBB17EDD2 PUSH20 0xFFFFFFFFFFFFFFFFFFFFFFFFFFFFFFFFFFFFFFFF AND PUSH4 0x70A08231 ADDRESS PUSH1 0x40 MLOAD DUP3 PUSH4 0xFFFFFFFF AND PUSH1 0xE0 SHL DUP2 MSTORE PUSH1 0x4 ADD PUSH2 0xE23 SWAP2 SWAP1 PUSH2 0x6F85 JUMP JUMPDEST PUSH1 0x20 PUSH1 0x40 MLOAD DUP1 DUP4 SUB DUP2 DUP7 GAS STATICCALL ISZERO DUP1 ISZERO PUSH2 0xE40 JUMPI RETURNDATASIZE PUSH1 0x0 DUP1 RETURNDATACOPY RETURNDATASIZE PUSH1 0x0 REVERT JUMPDEST POP POP POP POP PUSH1 0x40 MLOAD RETURNDATASIZE PUSH1 0x1F NOT PUSH1 0x1F DUP3 ADD AND DUP3 ADD DUP1 PUSH1 0x40 MSTORE POP DUP2 ADD SWAP1 PUSH2 0xE64 SWAP2 SWAP1 PUSH2 0x7642 JUMP JUMPDEST PUSH20 0xDE402E9D305BAD483D47BC858CC373C5A040A62D PUSH20 0xFFFFFFFFFFFFFFFFFFFFFFFFFFFFFFFFFFFFFFFF AND PUSH4 0x70A08231 ADDRESS PUSH1 0x40 MLOAD DUP3 PUSH4 0xFFFFFFFF AND PUSH1 0xE0 SHL DUP2 MSTORE PUSH1 0x4 ADD PUSH2 0xEB1 SWAP2 SWAP1 PUSH2 0x6F85 JUMP JUMPDEST PUSH1 0x20 PUSH1 0x40 MLOAD DUP1 DUP4 SUB DUP2 DUP7 GAS STATICCALL ISZERO DUP1 ISZERO PUSH2 0xECE JUMPI RETURNDATASIZE PUSH1 0x0 DUP1 RETURNDATACOPY RETURNDATASIZE PUSH1 0x0 REVERT JUMPDEST POP POP POP POP PUSH1 0x40 MLOAD RETURNDATASIZE PUSH1 0x1F NOT PUSH1 0x1F DUP3 ADD AND DUP3 ADD DUP1 PUSH1 0x40 MSTORE POP DUP2 ADD SWAP1 PUSH2 0xEF2 SWAP2 SWAP1 PUSH2 0x7642 JUMP JUMPDEST PUSH20 0x4D7000CC826349A872757D82B3E0F68A713B3C5 PUSH20 0xFFFFFFFFFFFFFFFFFFFFFFFFFFFFFFFFFFFFFFFF AND PUSH4 0x70A08231 ADDRESS PUSH1 0x40 MLOAD DUP3 PUSH4 0xFFFFFFFF AND PUSH1 0xE0 SHL DUP2 MSTORE PUSH1 0x4 ADD PUSH2 0xF3F SWAP2 SWAP1 PUSH2 0x6F85 JUMP JUMPDEST PUSH1 0x20 PUSH1 0x40 MLOAD DUP1 DUP4 SUB DUP2 DUP7 GAS STATICCALL ISZERO DUP1 ISZERO PUSH2 0xF5C JUMPI RETURNDATASIZE PUSH1 0x0 DUP1 RETURNDATACOPY RETURNDATASIZE PUSH1 0x0 REVERT JUMPDEST POP POP POP POP PUSH1 0x40 MLOAD RETURNDATASIZE PUSH1 0x1F NOT PUSH1 0x1F DUP3 ADD AND DUP3 ADD DUP1 PUSH1 0x40 MSTORE POP DUP2 ADD SWAP1 PUSH2 0xF80 SWAP2 SWAP1 PUSH2 0x7642 JUMP JUMPDEST SWAP3 POP SWAP3 POP SWAP3 POP SWAP1 SWAP2 SWAP3 JUMP JUMPDEST PUSH1 0x0 PUSH1 0x5 PUSH1 0x0 SWAP1 SLOAD SWAP1 PUSH2 0x100 EXP SWAP1 DIV PUSH20 0xFFFFFFFFFFFFFFFFFFFFFFFFFFFFFFFFFFFFFFFF AND PUSH1 0x0 PUSH1 0x3 PUSH1 0x0 DUP4 PUSH20 0xFFFFFFFFFFFFFFFFFFFFFFFFFFFFFFFFFFFFFFFF AND PUSH20 0xFFFFFFFFFFFFFFFFFFFFFFFFFFFFFFFFFFFFFFFF AND DUP2 MSTORE PUSH1 0x20 ADD SWAP1 DUP2 MSTORE PUSH1 0x20 ADD PUSH1 0x0 KECCAK256 SLOAD GT DUP1 ISZERO PUSH2 0x103F JUMPI POP PUSH20 0x4D7000CC826349A872757D82B3E0F68A713B3C5 PUSH20 0xFFFFFFFFFFFFFFFFFFFFFFFFFFFFFFFFFFFFFFFF AND DUP2 PUSH20 0xFFFFFFFFFFFFFFFFFFFFFFFFFFFFFFFFFFFFFFFF AND EQ ISZERO JUMPDEST PUSH1 0x40 MLOAD DUP1 PUSH1 0x40 ADD PUSH1 0x40 MSTORE DUP1 PUSH1 0x1 DUP2 MSTORE PUSH1 0x20 ADD PUSH32 0x4E00000000000000000000000000000000000000000000000000000000000000 DUP2 MSTORE POP SWAP1 PUSH2 0x10B6 JUMPI PUSH1 0x40 MLOAD PUSH32 0x8C379A000000000000000000000000000000000000000000000000000000000 DUP2 MSTORE PUSH1 0x4 ADD PUSH2 0x10AD SWAP2 SWAP1 PUSH2 0x7522 JUMP JUMPDEST PUSH1 0x40 MLOAD DUP1 SWAP2 SUB SWAP1 REVERT JUMPDEST POP DUP4 DUP1 TIMESTAMP GT ISZERO PUSH1 0x40 MLOAD DUP1 PUSH1 0x40 ADD PUSH1 0x40 MSTORE DUP1 PUSH1 0x1 DUP2 MSTORE PUSH1 0x20 ADD PUSH32 0x5400000000000000000000000000000000000000000000000000000000000000 DUP2 MSTORE POP SWAP1 PUSH2 0x1133 JUMPI PUSH1 0x40 MLOAD PUSH32 0x8C379A000000000000000000000000000000000000000000000000000000000 DUP2 MSTORE PUSH1 0x4 ADD PUSH2 0x112A SWAP2 SWAP1 PUSH2 0x7522 JUMP JUMPDEST PUSH1 0x40 MLOAD DUP1 SWAP2 SUB SWAP1 REVERT JUMPDEST POP PUSH2 0x1164 ADDRESS DUP10 PUSH1 0x5 PUSH1 0x0 SWAP1 SLOAD SWAP1 PUSH2 0x100 EXP SWAP1 DIV PUSH20 0xFFFFFFFFFFFFFFFFFFFFFFFFFFFFFFFFFFFFFFFF AND DUP11 DUP11 DUP10 PUSH2 0x4715 JUMP JUMPDEST SWAP3 POP POP POP SWAP6 SWAP5 POP POP POP POP POP JUMP JUMPDEST PUSH1 0x0 DUP1 PUSH1 0x0 DUP4 DUP2 MSTORE PUSH1 0x20 ADD SWAP1 DUP2 MSTORE PUSH1 0x20 ADD PUSH1 0x0 KECCAK256 PUSH1 0x1 ADD SLOAD SWAP1 POP SWAP2 SWAP1 POP JUMP JUMPDEST PUSH2 0x1199 DUP3 PUSH2 0x1171 JUMP JUMPDEST PUSH2 0x11AA DUP2 PUSH2 0x11A5 PUSH2 0x4087 JUMP JUMPDEST PUSH2 0x408F JUMP JUMPDEST PUSH2 0x11B4 DUP4 DUP4 PUSH2 0x48F0 JUMP JUMPDEST POP POP POP JUMP JUMPDEST PUSH2 0x11C1 PUSH2 0x4087 JUMP JUMPDEST PUSH20 0xFFFFFFFFFFFFFFFFFFFFFFFFFFFFFFFFFFFFFFFF AND DUP2 PUSH20 0xFFFFFFFFFFFFFFFFFFFFFFFFFFFFFFFFFFFFFFFF AND EQ PUSH2 0x122E JUMPI PUSH1 0x40 MLOAD PUSH32 0x8C379A000000000000000000000000000000000000000000000000000000000 DUP2 MSTORE PUSH1 0x4 ADD PUSH2 0x1225 SWAP1 PUSH2 0x76E1 JUMP JUMPDEST PUSH1 0x40 MLOAD DUP1 SWAP2 SUB SWAP1 REVERT JUMPDEST PUSH2 0x1238 DUP3 DUP3 PUSH2 0x4924 JUMP JUMPDEST POP POP JUMP JUMPDEST PUSH1 0x0 PUSH1 0x5 PUSH1 0x0 SWAP1 SLOAD SWAP1 PUSH2 0x100 EXP SWAP1 DIV PUSH20 0xFFFFFFFFFFFFFFFFFFFFFFFFFFFFFFFFFFFFFFFF AND PUSH1 0x0 PUSH1 0x3 PUSH1 0x0 DUP4 PUSH20 0xFFFFFFFFFFFFFFFFFFFFFFFFFFFFFFFFFFFFFFFF AND PUSH20 0xFFFFFFFFFFFFFFFFFFFFFFFFFFFFFFFFFFFFFFFF AND DUP2 MSTORE PUSH1 0x20 ADD SWAP1 DUP2 MSTORE PUSH1 0x20 ADD PUSH1 0x0 KECCAK256 SLOAD GT DUP1 ISZERO PUSH2 0x12F0 JUMPI POP PUSH20 0x4D7000CC826349A872757D82B3E0F68A713B3C5 PUSH20 0xFFFFFFFFFFFFFFFFFFFFFFFFFFFFFFFFFFFFFFFF AND DUP2 PUSH20 0xFFFFFFFFFFFFFFFFFFFFFFFFFFFFFFFFFFFFFFFF AND EQ ISZERO JUMPDEST PUSH1 0x40 MLOAD DUP1 PUSH1 0x40 ADD PUSH1 0x40 MSTORE DUP1 PUSH1 0x1 DUP2 MSTORE PUSH1 0x20 ADD PUSH32 0x4E00000000000000000000000000000000000000000000000000000000000000 DUP2 MSTORE POP SWAP1 PUSH2 0x1367 JUMPI PUSH1 0x40 MLOAD PUSH32 0x8C379A000000000000000000000000000000000000000000000000000000000 DUP2 MSTORE PUSH1 0x4 ADD PUSH2 0x135E SWAP2 SWAP1 PUSH2 0x7522 JUMP JUMPDEST PUSH1 0x40 MLOAD DUP1 SWAP2 SUB SWAP1 REVERT JUMPDEST POP DUP4 DUP1 TIMESTAMP GT ISZERO PUSH1 0x40 MLOAD DUP1 PUSH1 0x40 ADD PUSH1 0x40 MSTORE DUP1 PUSH1 0x1 DUP2 MSTORE PUSH1 0x20 ADD PUSH32 0x5400000000000000000000000000000000000000000000000000000000000000 DUP2 MSTORE POP SWAP1 PUSH2 0x13E4 JUMPI PUSH1 0x40 MLOAD PUSH32 0x8C379A000000000000000000000000000000000000000000000000000000000 DUP2 MSTORE PUSH1 0x4 ADD PUSH2 0x13DB SWAP2 SWAP1 PUSH2 0x7522 JUMP JUMPDEST PUSH1 0x40 MLOAD DUP1 SWAP2 SUB SWAP1 REVERT JUMPDEST POP PUSH2 0x1415 ADDRESS PUSH1 0x5 PUSH1 0x0 SWAP1 SLOAD SWAP1 PUSH2 0x100 EXP SWAP1 DIV PUSH20 0xFFFFFFFFFFFFFFFFFFFFFFFFFFFFFFFFFFFFFFFF AND DUP11 DUP11 DUP11 DUP10 PUSH2 0x4715 JUMP JUMPDEST SWAP3 POP POP POP SWAP6 SWAP5 POP POP POP POP POP JUMP JUMPDEST PUSH1 0x0 PUSH2 0x14D6 DUP3 PUSH1 0x2 DUP6 DUP2 SLOAD DUP2 LT PUSH2 0x143C JUMPI PUSH2 0x143B PUSH2 0x7544 JUMP JUMPDEST JUMPDEST SWAP1 PUSH1 0x0 MSTORE PUSH1 0x20 PUSH1 0x0 KECCAK256 SWAP1 PUSH1 0x4 MUL ADD PUSH1 0x1 ADD PUSH1 0x0 SWAP1 SLOAD SWAP1 PUSH2 0x100 EXP SWAP1 DIV PUSH14 0xFFFFFFFFFFFFFFFFFFFFFFFFFFFF AND PUSH14 0xFFFFFFFFFFFFFFFFFFFFFFFFFFFF AND PUSH1 0x2 DUP7 DUP2 SLOAD DUP2 LT PUSH2 0x148C JUMPI PUSH2 0x148B PUSH2 0x7544 JUMP JUMPDEST JUMPDEST SWAP1 PUSH1 0x0 MSTORE PUSH1 0x20 PUSH1 0x0 KECCAK256 SWAP1 PUSH1 0x4 MUL ADD PUSH1 0x1 ADD PUSH1 0xE SWAP1 SLOAD SWAP1 PUSH2 0x100 EXP SWAP1 DIV PUSH14 0xFFFFFFFFFFFFFFFFFFFFFFFFFFFF AND PUSH14 0xFFFFFFFFFFFFFFFFFFFFFFFFFFFF AND PUSH2 0x14D1 DUP8 PUSH2 0x192E JUMP JUMPDEST PUSH2 0x4958 JUMP JUMPDEST SWAP1 POP SWAP3 SWAP2 POP POP JUMP JUMPDEST PUSH2 0x14E6 PUSH2 0x6B60 JUMP JUMPDEST PUSH2 0x14EE PUSH2 0x6B60 JUMP JUMPDEST PUSH1 0x0 PUSH1 0x3 PUSH1 0x0 PUSH20 0xCD300DD54345F48BA108DF3D792B6C2DBB17EDD2 PUSH20 0xFFFFFFFFFFFFFFFFFFFFFFFFFFFFFFFFFFFFFFFF AND PUSH20 0xFFFFFFFFFFFFFFFFFFFFFFFFFFFFFFFFFFFFFFFF AND DUP2 MSTORE PUSH1 0x20 ADD SWAP1 DUP2 MSTORE PUSH1 0x20 ADD PUSH1 0x0 KECCAK256 SLOAD SWAP1 POP PUSH1 0x0 PUSH1 0x3 PUSH1 0x0 PUSH20 0xDE402E9D305BAD483D47BC858CC373C5A040A62D PUSH20 0xFFFFFFFFFFFFFFFFFFFFFFFFFFFFFFFFFFFFFFFF AND PUSH20 0xFFFFFFFFFFFFFFFFFFFFFFFFFFFFFFFFFFFFFFFF AND DUP2 MSTORE PUSH1 0x20 ADD SWAP1 DUP2 MSTORE PUSH1 0x20 ADD PUSH1 0x0 KECCAK256 SLOAD SWAP1 POP PUSH1 0x2 DUP3 DUP2 SLOAD DUP2 LT PUSH2 0x15B2 JUMPI PUSH2 0x15B1 PUSH2 0x7544 JUMP JUMPDEST JUMPDEST SWAP1 PUSH1 0x0 MSTORE PUSH1 0x20 PUSH1 0x0 KECCAK256 SWAP1 PUSH1 0x4 MUL ADD PUSH1 0x2 DUP3 DUP2 SLOAD DUP2 LT PUSH2 0x15D4 JUMPI PUSH2 0x15D3 PUSH2 0x7544 JUMP JUMPDEST JUMPDEST SWAP1 PUSH1 0x0 MSTORE PUSH1 0x20 PUSH1 0x0 KECCAK256 SWAP1 PUSH1 0x4 MUL ADD DUP2 PUSH1 0x40 MLOAD DUP1 PUSH1 0xA0 ADD PUSH1 0x40 MSTORE SWAP1 DUP2 PUSH1 0x0 DUP3 ADD PUSH1 0x0 SWAP1 SLOAD SWAP1 PUSH2 0x100 EXP SWAP1 DIV PUSH20 0xFFFFFFFFFFFFFFFFFFFFFFFFFFFFFFFFFFFFFFFF AND PUSH20 0xFFFFFFFFFFFFFFFFFFFFFFFFFFFFFFFFFFFFFFFF AND PUSH20 0xFFFFFFFFFFFFFFFFFFFFFFFFFFFFFFFFFFFFFFFF AND DUP2 MSTORE PUSH1 0x20 ADD PUSH1 0x1 DUP3 ADD PUSH1 0x0 SWAP1 SLOAD SWAP1 PUSH2 0x100 EXP SWAP1 DIV PUSH14 0xFFFFFFFFFFFFFFFFFFFFFFFFFFFF AND PUSH14 0xFFFFFFFFFFFFFFFFFFFFFFFFFFFF AND PUSH14 0xFFFFFFFFFFFFFFFFFFFFFFFFFFFF AND DUP2 MSTORE PUSH1 0x20 ADD PUSH1 0x1 DUP3 ADD PUSH1 0xE SWAP1 SLOAD SWAP1 PUSH2 0x100 EXP SWAP1 DIV PUSH14 0xFFFFFFFFFFFFFFFFFFFFFFFFFFFF AND PUSH14 0xFFFFFFFFFFFFFFFFFFFFFFFFFFFF AND PUSH14 0xFFFFFFFFFFFFFFFFFFFFFFFFFFFF AND DUP2 MSTORE PUSH1 0x20 ADD PUSH1 0x2 DUP3 ADD PUSH1 0x0 SWAP1 SLOAD SWAP1 PUSH2 0x100 EXP SWAP1 DIV PUSH14 0xFFFFFFFFFFFFFFFFFFFFFFFFFFFF AND PUSH14 0xFFFFFFFFFFFFFFFFFFFFFFFFFFFF AND PUSH14 0xFFFFFFFFFFFFFFFFFFFFFFFFFFFF AND DUP2 MSTORE PUSH1 0x20 ADD PUSH1 0x3 DUP3 ADD PUSH1 0x8 DUP1 PUSH1 0x20 MUL PUSH1 0x40 MLOAD SWAP1 DUP2 ADD PUSH1 0x40 MSTORE DUP1 SWAP3 SWAP2 SWAP1 DUP3 PUSH1 0x8 DUP1 ISZERO PUSH2 0x1778 JUMPI PUSH1 0x20 MUL DUP3 ADD SWAP2 PUSH1 0x0 SWAP1 JUMPDEST DUP3 DUP3 SWAP1 SLOAD SWAP1 PUSH2 0x100 EXP SWAP1 DIV PUSH4 0xFFFFFFFF AND PUSH4 0xFFFFFFFF AND DUP2 MSTORE PUSH1 0x20 ADD SWAP1 PUSH1 0x4 ADD SWAP1 PUSH1 0x20 DUP3 PUSH1 0x3 ADD DIV SWAP3 DUP4 ADD SWAP3 PUSH1 0x1 SUB DUP3 MUL SWAP2 POP DUP1 DUP5 GT PUSH2 0x173B JUMPI SWAP1 POP JUMPDEST POP POP POP POP POP DUP2 MSTORE POP POP SWAP2 POP DUP1 PUSH1 0x40 MLOAD DUP1 PUSH1 0xA0 ADD PUSH1 0x40 MSTORE SWAP1 DUP2 PUSH1 0x0 DUP3 ADD PUSH1 0x0 SWAP1 SLOAD SWAP1 PUSH2 0x100 EXP SWAP1 DIV PUSH20 0xFFFFFFFFFFFFFFFFFFFFFFFFFFFFFFFFFFFFFFFF AND PUSH20 0xFFFFFFFFFFFFFFFFFFFFFFFFFFFFFFFFFFFFFFFF AND PUSH20 0xFFFFFFFFFFFFFFFFFFFFFFFFFFFFFFFFFFFFFFFF AND DUP2 MSTORE PUSH1 0x20 ADD PUSH1 0x1 DUP3 ADD PUSH1 0x0 SWAP1 SLOAD SWAP1 PUSH2 0x100 EXP SWAP1 DIV PUSH14 0xFFFFFFFFFFFFFFFFFFFFFFFFFFFF AND PUSH14 0xFFFFFFFFFFFFFFFFFFFFFFFFFFFF AND PUSH14 0xFFFFFFFFFFFFFFFFFFFFFFFFFFFF AND DUP2 MSTORE PUSH1 0x20 ADD PUSH1 0x1 DUP3 ADD PUSH1 0xE SWAP1 SLOAD SWAP1 PUSH2 0x100 EXP SWAP1 DIV PUSH14 0xFFFFFFFFFFFFFFFFFFFFFFFFFFFF AND PUSH14 0xFFFFFFFFFFFFFFFFFFFFFFFFFFFF AND PUSH14 0xFFFFFFFFFFFFFFFFFFFFFFFFFFFF AND DUP2 MSTORE PUSH1 0x20 ADD PUSH1 0x2 DUP3 ADD PUSH1 0x0 SWAP1 SLOAD SWAP1 PUSH2 0x100 EXP SWAP1 DIV PUSH14 0xFFFFFFFFFFFFFFFFFFFFFFFFFFFF AND PUSH14 0xFFFFFFFFFFFFFFFFFFFFFFFFFFFF AND PUSH14 0xFFFFFFFFFFFFFFFFFFFFFFFFFFFF AND DUP2 MSTORE PUSH1 0x20 ADD PUSH1 0x3 DUP3 ADD PUSH1 0x8 DUP1 PUSH1 0x20 MUL PUSH1 0x40 MLOAD SWAP1 DUP2 ADD PUSH1 0x40 MSTORE DUP1 SWAP3 SWAP2 SWAP1 DUP3 PUSH1 0x8 DUP1 ISZERO PUSH2 0x1919 JUMPI PUSH1 0x20 MUL DUP3 ADD SWAP2 PUSH1 0x0 SWAP1 JUMPDEST DUP3 DUP3 SWAP1 SLOAD SWAP1 PUSH2 0x100 EXP SWAP1 DIV PUSH4 0xFFFFFFFF AND PUSH4 0xFFFFFFFF AND DUP2 MSTORE PUSH1 0x20 ADD SWAP1 PUSH1 0x4 ADD SWAP1 PUSH1 0x20 DUP3 PUSH1 0x3 ADD DIV SWAP3 DUP4 ADD SWAP3 PUSH1 0x1 SUB DUP3 MUL SWAP2 POP DUP1 DUP5 GT PUSH2 0x18DC JUMPI SWAP1 POP JUMPDEST POP POP POP POP POP DUP2 MSTORE POP POP SWAP1 POP SWAP4 POP SWAP4 POP POP POP SWAP1 SWAP2 JUMP JUMPDEST PUSH1 0x0 DUP1 PUSH2 0x1939 PUSH2 0x1F4A JUMP JUMPDEST SWAP1 POP PUSH1 0x0 PUSH1 0x8 PUSH1 0x1 DUP4 PUSH2 0x194C SWAP2 SWAP1 PUSH2 0x7701 JUMP JUMPDEST PUSH2 0x1956 SWAP2 SWAP1 PUSH2 0x7786 JUMP JUMPDEST SWAP1 POP PUSH1 0x0 DUP1 JUMPDEST PUSH1 0x8 DUP2 LT ISZERO PUSH2 0x19F6 JUMPI DUP4 DUP2 EQ DUP1 PUSH2 0x1972 JUMPI POP DUP3 DUP2 EQ JUMPDEST ISZERO PUSH2 0x197C JUMPI PUSH2 0x19E3 JUMP JUMPDEST PUSH1 0x2 DUP7 DUP2 SLOAD DUP2 LT PUSH2 0x1990 JUMPI PUSH2 0x198F PUSH2 0x7544 JUMP JUMPDEST JUMPDEST SWAP1 PUSH1 0x0 MSTORE PUSH1 0x20 PUSH1 0x0 KECCAK256 SWAP1 PUSH1 0x4 MUL ADD PUSH1 0x3 ADD DUP2 PUSH1 0x8 DUP2 LT PUSH2 0x19B3 JUMPI PUSH2 0x19B2 PUSH2 0x7544 JUMP JUMPDEST JUMPDEST PUSH1 0x8 SWAP2 DUP3 DUP3 DIV ADD SWAP2 SWAP1 MOD PUSH1 0x4 MUL SWAP1 SLOAD SWAP1 PUSH2 0x100 EXP SWAP1 DIV PUSH4 0xFFFFFFFF AND PUSH4 0xFFFFFFFF AND DUP3 PUSH2 0x19E0 SWAP2 SWAP1 PUSH2 0x7701 JUMP JUMPDEST SWAP2 POP JUMPDEST DUP1 DUP1 PUSH2 0x19EE SWAP1 PUSH2 0x75A2 JUMP JUMPDEST SWAP2 POP POP PUSH2 0x195C JUMP JUMPDEST POP PUSH1 0x0 PUSH2 0x3E8 PUSH8 0xDE0B6B3A7640000 DUP4 PUSH2 0x1A10 SWAP2 SWAP1 PUSH2 0x77B7 JUMP JUMPDEST PUSH2 0x1A1A SWAP2 SWAP1 PUSH2 0x77B7 JUMP JUMPDEST SWAP1 POP PUSH1 0x0 PUSH1 0x96 PUSH1 0x2 DUP1 DUP10 DUP2 SLOAD DUP2 LT PUSH2 0x1A35 JUMPI PUSH2 0x1A34 PUSH2 0x7544 JUMP JUMPDEST JUMPDEST SWAP1 PUSH1 0x0 MSTORE PUSH1 0x20 PUSH1 0x0 KECCAK256 SWAP1 PUSH1 0x4 MUL ADD PUSH1 0x1 ADD PUSH1 0xE SWAP1 SLOAD SWAP1 PUSH2 0x100 EXP SWAP1 DIV PUSH14 0xFFFFFFFFFFFFFFFFFFFFFFFFFFFF AND PUSH2 0x1A6B SWAP2 SWAP1 PUSH2 0x7811 JUMP JUMPDEST PUSH2 0x1A75 SWAP2 SWAP1 PUSH2 0x7811 JUMP JUMPDEST PUSH14 0xFFFFFFFFFFFFFFFFFFFFFFFFFFFF AND SWAP1 POP DUP1 DUP3 GT PUSH2 0x1A98 JUMPI PUSH2 0x26AC SWAP6 POP PUSH2 0x1AFE JUMP JUMPDEST DUP2 DUP2 LT DUP1 ISZERO PUSH2 0x1AB2 JUMPI POP DUP1 PUSH1 0x64 PUSH2 0x1AAF SWAP2 SWAP1 PUSH2 0x77B7 JUMP JUMPDEST DUP3 LT JUMPDEST ISZERO PUSH2 0x1AE2 JUMPI DUP1 DUP2 DUP4 PUSH2 0x1AC4 SWAP2 SWAP1 PUSH2 0x7859 JUMP JUMPDEST PUSH2 0x1ACE SWAP2 SWAP1 PUSH2 0x788D JUMP JUMPDEST PUSH2 0x26AC PUSH2 0x1ADB SWAP2 SWAP1 PUSH2 0x7701 JUMP JUMPDEST SWAP6 POP PUSH2 0x1AFD JUMP JUMPDEST DUP1 PUSH1 0x64 PUSH2 0x1AEF SWAP2 SWAP1 PUSH2 0x77B7 JUMP JUMPDEST DUP3 GT ISZERO PUSH2 0x1AFC JUMPI PUSH2 0x270F SWAP6 POP JUMPDEST JUMPDEST JUMPDEST POP POP POP POP POP SWAP2 SWAP1 POP JUMP JUMPDEST PUSH1 0x0 PUSH2 0x1BBC DUP3 PUSH1 0x2 DUP6 DUP2 SLOAD DUP2 LT PUSH2 0x1B22 JUMPI PUSH2 0x1B21 PUSH2 0x7544 JUMP JUMPDEST JUMPDEST SWAP1 PUSH1 0x0 MSTORE PUSH1 0x20 PUSH1 0x0 KECCAK256 SWAP1 PUSH1 0x4 MUL ADD PUSH1 0x1 ADD PUSH1 0xE SWAP1 SLOAD SWAP1 PUSH2 0x100 EXP SWAP1 DIV PUSH14 0xFFFFFFFFFFFFFFFFFFFFFFFFFFFF AND PUSH14 0xFFFFFFFFFFFFFFFFFFFFFFFFFFFF AND PUSH1 0x2 DUP7 DUP2 SLOAD DUP2 LT PUSH2 0x1B72 JUMPI PUSH2 0x1B71 PUSH2 0x7544 JUMP JUMPDEST JUMPDEST SWAP1 PUSH1 0x0 MSTORE PUSH1 0x20 PUSH1 0x0 KECCAK256 SWAP1 PUSH1 0x4 MUL ADD PUSH1 0x1 ADD PUSH1 0x0 SWAP1 SLOAD SWAP1 PUSH2 0x100 EXP SWAP1 DIV PUSH14 0xFFFFFFFFFFFFFFFFFFFFFFFFFFFF AND PUSH14 0xFFFFFFFFFFFFFFFFFFFFFFFFFFFF AND PUSH2 0x1BB7 DUP8 PUSH2 0x192E JUMP JUMPDEST PUSH2 0x4958 JUMP JUMPDEST SWAP1 POP SWAP3 SWAP2 POP POP JUMP JUMPDEST PUSH1 0x6 PUSH1 0x0 SWAP1 SLOAD SWAP1 PUSH2 0x100 EXP SWAP1 DIV PUSH20 0xFFFFFFFFFFFFFFFFFFFFFFFFFFFFFFFFFFFFFFFF AND DUP2 JUMP JUMPDEST PUSH2 0x1BF6 CALLER DUP5 DUP5 DUP5 PUSH2 0x49B3 JUMP JUMPDEST POP POP POP JUMP JUMPDEST PUSH1 0x0 PUSH2 0x1C22 DUP3 PUSH1 0x1 PUSH1 0x0 DUP7 DUP2 MSTORE PUSH1 0x20 ADD SWAP1 DUP2 MSTORE PUSH1 0x20 ADD PUSH1 0x0 KECCAK256 PUSH2 0x5331 SWAP1 SWAP2 SWAP1 PUSH4 0xFFFFFFFF AND JUMP JUMPDEST SWAP1 POP SWAP3 SWAP2 POP POP JUMP JUMPDEST PUSH1 0x0 DUP1 PUSH1 0x0 DUP5 DUP2 MSTORE PUSH1 0x20 ADD SWAP1 DUP2 MSTORE PUSH1 0x20 ADD PUSH1 0x0 KECCAK256 PUSH1 0x0 ADD PUSH1 0x0 DUP4 PUSH20 0xFFFFFFFFFFFFFFFFFFFFFFFFFFFFFFFFFFFFFFFF AND PUSH20 0xFFFFFFFFFFFFFFFFFFFFFFFFFFFFFFFFFFFFFFFF AND DUP2 MSTORE PUSH1 0x20 ADD SWAP1 DUP2 MSTORE PUSH1 0x20 ADD PUSH1 0x0 KECCAK256 PUSH1 0x0 SWAP1 SLOAD SWAP1 PUSH2 0x100 EXP SWAP1 DIV PUSH1 0xFF AND SWAP1 POP SWAP3 SWAP2 POP POP JUMP JUMPDEST DUP1 PUSH1 0x0 PUSH1 0x3 PUSH1 0x0 DUP4 PUSH20 0xFFFFFFFFFFFFFFFFFFFFFFFFFFFFFFFFFFFFFFFF AND PUSH20 0xFFFFFFFFFFFFFFFFFFFFFFFFFFFFFFFFFFFFFFFF AND DUP2 MSTORE PUSH1 0x20 ADD SWAP1 DUP2 MSTORE PUSH1 0x20 ADD PUSH1 0x0 KECCAK256 SLOAD GT DUP1 ISZERO PUSH2 0x1D24 JUMPI POP PUSH20 0x4D7000CC826349A872757D82B3E0F68A713B3C5 PUSH20 0xFFFFFFFFFFFFFFFFFFFFFFFFFFFFFFFFFFFFFFFF AND DUP2 PUSH20 0xFFFFFFFFFFFFFFFFFFFFFFFFFFFFFFFFFFFFFFFF AND EQ ISZERO JUMPDEST PUSH1 0x40 MLOAD DUP1 PUSH1 0x40 ADD PUSH1 0x40 MSTORE DUP1 PUSH1 0x1 DUP2 MSTORE PUSH1 0x20 ADD PUSH32 0x4E00000000000000000000000000000000000000000000000000000000000000 DUP2 MSTORE POP SWAP1 PUSH2 0x1D9B JUMPI PUSH1 0x40 MLOAD PUSH32 0x8C379A000000000000000000000000000000000000000000000000000000000 DUP2 MSTORE PUSH1 0x4 ADD PUSH2 0x1D92 SWAP2 SWAP1 PUSH2 0x7522 JUMP JUMPDEST PUSH1 0x40 MLOAD DUP1 SWAP2 SUB SWAP1 REVERT JUMPDEST POP PUSH1 0x0 PUSH1 0x3 PUSH1 0x0 DUP5 PUSH20 0xFFFFFFFFFFFFFFFFFFFFFFFFFFFFFFFFFFFFFFFF AND PUSH20 0xFFFFFFFFFFFFFFFFFFFFFFFFFFFFFFFFFFFFFFFF AND DUP2 MSTORE PUSH1 0x20 ADD SWAP1 DUP2 MSTORE PUSH1 0x20 ADD PUSH1 0x0 KECCAK256 SLOAD SWAP1 POP DUP3 PUSH20 0xFFFFFFFFFFFFFFFFFFFFFFFFFFFFFFFFFFFFFFFF AND PUSH4 0x70A08231 ADDRESS PUSH1 0x40 MLOAD DUP3 PUSH4 0xFFFFFFFF AND PUSH1 0xE0 SHL DUP2 MSTORE PUSH1 0x4 ADD PUSH2 0x1E19 SWAP2 SWAP1 PUSH2 0x6F85 JUMP JUMPDEST PUSH1 0x20 PUSH1 0x40 MLOAD DUP1 DUP4 SUB DUP2 DUP7 GAS STATICCALL ISZERO DUP1 ISZERO PUSH2 0x1E36 JUMPI RETURNDATASIZE PUSH1 0x0 DUP1 RETURNDATACOPY RETURNDATASIZE PUSH1 0x0 REVERT JUMPDEST POP POP POP POP PUSH1 0x40 MLOAD RETURNDATASIZE PUSH1 0x1F NOT PUSH1 0x1F DUP3 ADD AND DUP3 ADD DUP1 PUSH1 0x40 MSTORE POP DUP2 ADD SWAP1 PUSH2 0x1E5A SWAP2 SWAP1 PUSH2 0x7642 JUMP JUMPDEST PUSH1 0x2 DUP3 DUP2 SLOAD DUP2 LT PUSH2 0x1E6E JUMPI PUSH2 0x1E6D PUSH2 0x7544 JUMP JUMPDEST JUMPDEST SWAP1 PUSH1 0x0 MSTORE PUSH1 0x20 PUSH1 0x0 KECCAK256 SWAP1 PUSH1 0x4 MUL ADD PUSH1 0x1 ADD PUSH1 0x0 PUSH2 0x100 EXP DUP2 SLOAD DUP2 PUSH14 0xFFFFFFFFFFFFFFFFFFFFFFFFFFFF MUL NOT AND SWAP1 DUP4 PUSH14 0xFFFFFFFFFFFFFFFFFFFFFFFFFFFF AND MUL OR SWAP1 SSTORE POP PUSH20 0x4D7000CC826349A872757D82B3E0F68A713B3C5 PUSH20 0xFFFFFFFFFFFFFFFFFFFFFFFFFFFFFFFFFFFFFFFF AND PUSH4 0x70A08231 ADDRESS PUSH1 0x40 MLOAD DUP3 PUSH4 0xFFFFFFFF AND PUSH1 0xE0 SHL DUP2 MSTORE PUSH1 0x4 ADD PUSH2 0x1EFE SWAP2 SWAP1 PUSH2 0x6F85 JUMP JUMPDEST PUSH1 0x20 PUSH1 0x40 MLOAD DUP1 DUP4 SUB DUP2 DUP7 GAS STATICCALL ISZERO DUP1 ISZERO PUSH2 0x1F1B JUMPI RETURNDATASIZE PUSH1 0x0 DUP1 RETURNDATACOPY RETURNDATASIZE PUSH1 0x0 REVERT JUMPDEST POP POP POP POP PUSH1 0x40 MLOAD RETURNDATASIZE PUSH1 0x1F NOT PUSH1 0x1F DUP3 ADD AND DUP3 ADD DUP1 PUSH1 0x40 MSTORE POP DUP2 ADD SWAP1 PUSH2 0x1F3F SWAP2 SWAP1 PUSH2 0x7642 JUMP JUMPDEST PUSH1 0x4 DUP2 SWAP1 SSTORE POP POP POP POP JUMP JUMPDEST PUSH1 0x0 PUSH1 0x8 PUSH2 0x3840 TIMESTAMP PUSH2 0x1F5C SWAP2 SWAP1 PUSH2 0x788D JUMP JUMPDEST PUSH2 0x1F66 SWAP2 SWAP1 PUSH2 0x7786 JUMP JUMPDEST SWAP1 POP SWAP1 JUMP JUMPDEST PUSH1 0x0 DUP7 PUSH1 0x0 PUSH1 0x3 PUSH1 0x0 DUP4 PUSH20 0xFFFFFFFFFFFFFFFFFFFFFFFFFFFFFFFFFFFFFFFF AND PUSH20 0xFFFFFFFFFFFFFFFFFFFFFFFFFFFFFFFFFFFFFFFF AND DUP2 MSTORE PUSH1 0x20 ADD SWAP1 DUP2 MSTORE PUSH1 0x20 ADD PUSH1 0x0 KECCAK256 SLOAD GT DUP1 ISZERO PUSH2 0x1FFD JUMPI POP PUSH20 0x4D7000CC826349A872757D82B3E0F68A713B3C5 PUSH20 0xFFFFFFFFFFFFFFFFFFFFFFFFFFFFFFFFFFFFFFFF AND DUP2 PUSH20 0xFFFFFFFFFFFFFFFFFFFFFFFFFFFFFFFFFFFFFFFF AND EQ ISZERO JUMPDEST PUSH1 0x40 MLOAD DUP1 PUSH1 0x40 ADD PUSH1 0x40 MSTORE DUP1 PUSH1 0x1 DUP2 MSTORE PUSH1 0x20 ADD PUSH32 0x4E00000000000000000000000000000000000000000000000000000000000000 DUP2 MSTORE POP SWAP1 PUSH2 0x2074 JUMPI PUSH1 0x40 MLOAD PUSH32 0x8C379A000000000000000000000000000000000000000000000000000000000 DUP2 MSTORE PUSH1 0x4 ADD PUSH2 0x206B SWAP2 SWAP1 PUSH2 0x7522 JUMP JUMPDEST PUSH1 0x40 MLOAD DUP1 SWAP2 SUB SWAP1 REVERT JUMPDEST POP DUP4 DUP1 TIMESTAMP GT ISZERO PUSH1 0x40 MLOAD DUP1 PUSH1 0x40 ADD PUSH1 0x40 MSTORE DUP1 PUSH1 0x1 DUP2 MSTORE PUSH1 0x20 ADD PUSH32 0x5400000000000000000000000000000000000000000000000000000000000000 DUP2 MSTORE POP SWAP1 PUSH2 0x20F1 JUMPI PUSH1 0x40 MLOAD PUSH32 0x8C379A000000000000000000000000000000000000000000000000000000000 DUP2 MSTORE PUSH1 0x4 ADD PUSH2 0x20E8 SWAP2 SWAP1 PUSH2 0x7522 JUMP JUMPDEST PUSH1 0x40 MLOAD DUP1 SWAP2 SUB SWAP1 REVERT JUMPDEST POP PUSH2 0x2100 CALLER DUP11 DUP11 DUP11 DUP11 DUP10 PUSH2 0x4715 JUMP JUMPDEST SWAP3 POP POP POP SWAP7 SWAP6 POP POP POP POP POP POP JUMP JUMPDEST PUSH2 0x2116 PUSH2 0x6B60 JUMP JUMPDEST PUSH1 0x2 PUSH1 0x3 PUSH1 0x0 DUP5 PUSH20 0xFFFFFFFFFFFFFFFFFFFFFFFFFFFFFFFFFFFFFFFF AND PUSH20 0xFFFFFFFFFFFFFFFFFFFFFFFFFFFFFFFFFFFFFFFF AND DUP2 MSTORE PUSH1 0x20 ADD SWAP1 DUP2 MSTORE PUSH1 0x20 ADD PUSH1 0x0 KECCAK256 SLOAD DUP2 SLOAD DUP2 LT PUSH2 0x2169 JUMPI PUSH2 0x2168 PUSH2 0x7544 JUMP JUMPDEST JUMPDEST SWAP1 PUSH1 0x0 MSTORE PUSH1 0x20 PUSH1 0x0 KECCAK256 SWAP1 PUSH1 0x4 MUL ADD PUSH1 0x40 MLOAD DUP1 PUSH1 0xA0 ADD PUSH1 0x40 MSTORE SWAP1 DUP2 PUSH1 0x0 DUP3 ADD PUSH1 0x0 SWAP1 SLOAD SWAP1 PUSH2 0x100 EXP SWAP1 DIV PUSH20 0xFFFFFFFFFFFFFFFFFFFFFFFFFFFFFFFFFFFFFFFF AND PUSH20 0xFFFFFFFFFFFFFFFFFFFFFFFFFFFFFFFFFFFFFFFF AND PUSH20 0xFFFFFFFFFFFFFFFFFFFFFFFFFFFFFFFFFFFFFFFF AND DUP2 MSTORE PUSH1 0x20 ADD PUSH1 0x1 DUP3 ADD PUSH1 0x0 SWAP1 SLOAD SWAP1 PUSH2 0x100 EXP SWAP1 DIV PUSH14 0xFFFFFFFFFFFFFFFFFFFFFFFFFFFF AND PUSH14 0xFFFFFFFFFFFFFFFFFFFFFFFFFFFF AND PUSH14 0xFFFFFFFFFFFFFFFFFFFFFFFFFFFF AND DUP2 MSTORE PUSH1 0x20 ADD PUSH1 0x1 DUP3 ADD PUSH1 0xE SWAP1 SLOAD SWAP1 PUSH2 0x100 EXP SWAP1 DIV PUSH14 0xFFFFFFFFFFFFFFFFFFFFFFFFFFFF AND PUSH14 0xFFFFFFFFFFFFFFFFFFFFFFFFFFFF AND PUSH14 0xFFFFFFFFFFFFFFFFFFFFFFFFFFFF AND DUP2 MSTORE PUSH1 0x20 ADD PUSH1 0x2 DUP3 ADD PUSH1 0x0 SWAP1 SLOAD SWAP1 PUSH2 0x100 EXP SWAP1 DIV PUSH14 0xFFFFFFFFFFFFFFFFFFFFFFFFFFFF AND PUSH14 0xFFFFFFFFFFFFFFFFFFFFFFFFFFFF AND PUSH14 0xFFFFFFFFFFFFFFFFFFFFFFFFFFFF AND DUP2 MSTORE PUSH1 0x20 ADD PUSH1 0x3 DUP3 ADD PUSH1 0x8 DUP1 PUSH1 0x20 MUL PUSH1 0x40 MLOAD SWAP1 DUP2 ADD PUSH1 0x40 MSTORE DUP1 SWAP3 SWAP2 SWAP1 DUP3 PUSH1 0x8 DUP1 ISZERO PUSH2 0x230C JUMPI PUSH1 0x20 MUL DUP3 ADD SWAP2 PUSH1 0x0 SWAP1 JUMPDEST DUP3 DUP3 SWAP1 SLOAD SWAP1 PUSH2 0x100 EXP SWAP1 DIV PUSH4 0xFFFFFFFF AND PUSH4 0xFFFFFFFF AND DUP2 MSTORE PUSH1 0x20 ADD SWAP1 PUSH1 0x4 ADD SWAP1 PUSH1 0x20 DUP3 PUSH1 0x3 ADD DIV SWAP3 DUP4 ADD SWAP3 PUSH1 0x1 SUB DUP3 MUL SWAP2 POP DUP1 DUP5 GT PUSH2 0x22CF JUMPI SWAP1 POP JUMPDEST POP POP POP POP POP DUP2 MSTORE POP POP SWAP1 POP SWAP2 SWAP1 POP JUMP JUMPDEST PUSH1 0x0 DUP1 SHL PUSH2 0x2331 DUP2 PUSH2 0x232C PUSH2 0x4087 JUMP JUMPDEST PUSH2 0x408F JUMP JUMPDEST PUSH1 0x6 PUSH1 0x14 SWAP1 SLOAD SWAP1 PUSH2 0x100 EXP SWAP1 DIV PUSH1 0xFF AND ISZERO PUSH1 0x40 MLOAD DUP1 PUSH1 0x40 ADD PUSH1 0x40 MSTORE DUP1 PUSH1 0x1 DUP2 MSTORE PUSH1 0x20 ADD PUSH32 0x4100000000000000000000000000000000000000000000000000000000000000 DUP2 MSTORE POP SWAP1 PUSH2 0x23B9 JUMPI PUSH1 0x40 MLOAD PUSH32 0x8C379A000000000000000000000000000000000000000000000000000000000 DUP2 MSTORE PUSH1 0x4 ADD PUSH2 0x23B0 SWAP2 SWAP1 PUSH2 0x7522 JUMP JUMPDEST PUSH1 0x40 MLOAD DUP1 SWAP2 SUB SWAP1 REVERT JUMPDEST POP PUSH1 0x1 PUSH1 0x6 PUSH1 0x14 PUSH2 0x100 EXP DUP2 SLOAD DUP2 PUSH1 0xFF MUL NOT AND SWAP1 DUP4 ISZERO ISZERO MUL OR SWAP1 SSTORE POP PUSH2 0x23DD PUSH2 0x6BDB JUMP JUMPDEST PUSH1 0x2 PUSH1 0x40 MLOAD DUP1 PUSH1 0xA0 ADD PUSH1 0x40 MSTORE DUP1 PUSH1 0x0 PUSH20 0xFFFFFFFFFFFFFFFFFFFFFFFFFFFFFFFFFFFFFFFF AND DUP2 MSTORE PUSH1 0x20 ADD PUSH1 0x0 PUSH14 0xFFFFFFFFFFFFFFFFFFFFFFFFFFFF AND DUP2 MSTORE PUSH1 0x20 ADD PUSH1 0x0 PUSH14 0xFFFFFFFFFFFFFFFFFFFFFFFFFFFF AND DUP2 MSTORE PUSH1 0x20 ADD PUSH1 0x0 PUSH14 0xFFFFFFFFFFFFFFFFFFFFFFFFFFFF AND DUP2 MSTORE PUSH1 0x20 ADD DUP4 DUP2 MSTORE POP SWAP1 DUP1 PUSH1 0x1 DUP2 SLOAD ADD DUP1 DUP3 SSTORE DUP1 SWAP2 POP POP PUSH1 0x1 SWAP1 SUB SWAP1 PUSH1 0x0 MSTORE PUSH1 0x20 PUSH1 0x0 KECCAK256 SWAP1 PUSH1 0x4 MUL ADD PUSH1 0x0 SWAP1 SWAP2 SWAP1 SWAP2 SWAP1 SWAP2 POP PUSH1 0x0 DUP3 ADD MLOAD DUP2 PUSH1 0x0 ADD PUSH1 0x0 PUSH2 0x100 EXP DUP2 SLOAD DUP2 PUSH20 0xFFFFFFFFFFFFFFFFFFFFFFFFFFFFFFFFFFFFFFFF MUL NOT AND SWAP1 DUP4 PUSH20 0xFFFFFFFFFFFFFFFFFFFFFFFFFFFFFFFFFFFFFFFF AND MUL OR SWAP1 SSTORE POP PUSH1 0x20 DUP3 ADD MLOAD DUP2 PUSH1 0x1 ADD PUSH1 0x0 PUSH2 0x100 EXP DUP2 SLOAD DUP2 PUSH14 0xFFFFFFFFFFFFFFFFFFFFFFFFFFFF MUL NOT AND SWAP1 DUP4 PUSH14 0xFFFFFFFFFFFFFFFFFFFFFFFFFFFF AND MUL OR SWAP1 SSTORE POP PUSH1 0x40 DUP3 ADD MLOAD DUP2 PUSH1 0x1 ADD PUSH1 0xE PUSH2 0x100 EXP DUP2 SLOAD DUP2 PUSH14 0xFFFFFFFFFFFFFFFFFFFFFFFFFFFF MUL NOT AND SWAP1 DUP4 PUSH14 0xFFFFFFFFFFFFFFFFFFFFFFFFFFFF AND MUL OR SWAP1 SSTORE POP PUSH1 0x60 DUP3 ADD MLOAD DUP2 PUSH1 0x2 ADD PUSH1 0x0 PUSH2 0x100 EXP DUP2 SLOAD DUP2 PUSH14 0xFFFFFFFFFFFFFFFFFFFFFFFFFFFF MUL NOT AND SWAP1 DUP4 PUSH14 0xFFFFFFFFFFFFFFFFFFFFFFFFFFFF AND MUL OR SWAP1 SSTORE POP PUSH1 0x80 DUP3 ADD MLOAD DUP2 PUSH1 0x3 ADD SWAP1 PUSH1 0x8 PUSH2 0x2588 SWAP3 SWAP2 SWAP1 PUSH2 0x6BFE JUMP JUMPDEST POP POP POP PUSH2 0x25BF PUSH20 0xCD300DD54345F48BA108DF3D792B6C2DBB17EDD2 PUSH10 0xD3C21BCECCEDA1000000 PUSH10 0x69E10DE76676D0800000 CALLER PUSH2 0x2AB2 JUMP JUMPDEST PUSH2 0x25E9 PUSH20 0xDE402E9D305BAD483D47BC858CC373C5A040A62D PUSH10 0x943B1377290CBD800000 DUP1 CALLER PUSH2 0x2AB2 JUMP JUMPDEST POP POP JUMP JUMPDEST PUSH1 0x0 PUSH2 0x260A PUSH1 0x1 PUSH1 0x0 DUP5 DUP2 MSTORE PUSH1 0x20 ADD SWAP1 DUP2 MSTORE PUSH1 0x20 ADD PUSH1 0x0 KECCAK256 PUSH2 0x534B JUMP JUMPDEST SWAP1 POP SWAP2 SWAP1 POP JUMP JUMPDEST PUSH1 0x0 PUSH2 0x26C5 DUP3 PUSH1 0x2 DUP6 DUP2 SLOAD DUP2 LT PUSH2 0x262B JUMPI PUSH2 0x262A PUSH2 0x7544 JUMP JUMPDEST JUMPDEST SWAP1 PUSH1 0x0 MSTORE PUSH1 0x20 PUSH1 0x0 KECCAK256 SWAP1 PUSH1 0x4 MUL ADD PUSH1 0x1 ADD PUSH1 0x0 SWAP1 SLOAD SWAP1 PUSH2 0x100 EXP SWAP1 DIV PUSH14 0xFFFFFFFFFFFFFFFFFFFFFFFFFFFF AND PUSH14 0xFFFFFFFFFFFFFFFFFFFFFFFFFFFF AND PUSH1 0x2 DUP7 DUP2 SLOAD DUP2 LT PUSH2 0x267B JUMPI PUSH2 0x267A PUSH2 0x7544 JUMP JUMPDEST JUMPDEST SWAP1 PUSH1 0x0 MSTORE PUSH1 0x20 PUSH1 0x0 KECCAK256 SWAP1 PUSH1 0x4 MUL ADD PUSH1 0x1 ADD PUSH1 0xE SWAP1 SLOAD SWAP1 PUSH2 0x100 EXP SWAP1 DIV PUSH14 0xFFFFFFFFFFFFFFFFFFFFFFFFFFFF AND PUSH14 0xFFFFFFFFFFFFFFFFFFFFFFFFFFFF AND PUSH2 0x26C0 DUP8 PUSH2 0x192E JUMP JUMPDEST PUSH2 0x5360 JUMP JUMPDEST SWAP1 POP SWAP3 SWAP2 POP POP JUMP JUMPDEST PUSH1 0x0 PUSH1 0x5 PUSH1 0x0 SWAP1 SLOAD SWAP1 PUSH2 0x100 EXP SWAP1 DIV PUSH20 0xFFFFFFFFFFFFFFFFFFFFFFFFFFFFFFFFFFFFFFFF AND PUSH1 0x0 PUSH1 0x3 PUSH1 0x0 DUP4 PUSH20 0xFFFFFFFFFFFFFFFFFFFFFFFFFFFFFFFFFFFFFFFF AND PUSH20 0xFFFFFFFFFFFFFFFFFFFFFFFFFFFFFFFFFFFFFFFF AND DUP2 MSTORE PUSH1 0x20 ADD SWAP1 DUP2 MSTORE PUSH1 0x20 ADD PUSH1 0x0 KECCAK256 SLOAD GT DUP1 ISZERO PUSH2 0x2781 JUMPI POP PUSH20 0x4D7000CC826349A872757D82B3E0F68A713B3C5 PUSH20 0xFFFFFFFFFFFFFFFFFFFFFFFFFFFFFFFFFFFFFFFF AND DUP2 PUSH20 0xFFFFFFFFFFFFFFFFFFFFFFFFFFFFFFFFFFFFFFFF AND EQ ISZERO JUMPDEST PUSH1 0x40 MLOAD DUP1 PUSH1 0x40 ADD PUSH1 0x40 MSTORE DUP1 PUSH1 0x1 DUP2 MSTORE PUSH1 0x20 ADD PUSH32 0x4E00000000000000000000000000000000000000000000000000000000000000 DUP2 MSTORE POP SWAP1 PUSH2 0x27F8 JUMPI PUSH1 0x40 MLOAD PUSH32 0x8C379A000000000000000000000000000000000000000000000000000000000 DUP2 MSTORE PUSH1 0x4 ADD PUSH2 0x27EF SWAP2 SWAP1 PUSH2 0x7522 JUMP JUMPDEST PUSH1 0x40 MLOAD DUP1 SWAP2 SUB SWAP1 REVERT JUMPDEST POP DUP4 DUP1 TIMESTAMP GT ISZERO PUSH1 0x40 MLOAD DUP1 PUSH1 0x40 ADD PUSH1 0x40 MSTORE DUP1 PUSH1 0x1 DUP2 MSTORE PUSH1 0x20 ADD PUSH32 0x5400000000000000000000000000000000000000000000000000000000000000 DUP2 MSTORE POP SWAP1 PUSH2 0x2875 JUMPI PUSH1 0x40 MLOAD PUSH32 0x8C379A000000000000000000000000000000000000000000000000000000000 DUP2 MSTORE PUSH1 0x4 ADD PUSH2 0x286C SWAP2 SWAP1 PUSH2 0x7522 JUMP JUMPDEST PUSH1 0x40 MLOAD DUP1 SWAP2 SUB SWAP1 REVERT JUMPDEST POP PUSH2 0x28A6 CALLER DUP10 PUSH1 0x5 PUSH1 0x0 SWAP1 SLOAD SWAP1 PUSH2 0x100 EXP SWAP1 DIV PUSH20 0xFFFFFFFFFFFFFFFFFFFFFFFFFFFFFFFFFFFFFFFF AND DUP11 DUP11 ADDRESS PUSH2 0x413A JUMP JUMPDEST SWAP3 POP POP POP SWAP6 SWAP5 POP POP POP POP POP JUMP JUMPDEST PUSH2 0x28BB PUSH2 0x6B60 JUMP JUMPDEST PUSH1 0x2 DUP3 DUP2 SLOAD DUP2 LT PUSH2 0x28CF JUMPI PUSH2 0x28CE PUSH2 0x7544 JUMP JUMPDEST JUMPDEST SWAP1 PUSH1 0x0 MSTORE PUSH1 0x20 PUSH1 0x0 KECCAK256 SWAP1 PUSH1 0x4 MUL ADD PUSH1 0x40 MLOAD DUP1 PUSH1 0xA0 ADD PUSH1 0x40 MSTORE SWAP1 DUP2 PUSH1 0x0 DUP3 ADD PUSH1 0x0 SWAP1 SLOAD SWAP1 PUSH2 0x100 EXP SWAP1 DIV PUSH20 0xFFFFFFFFFFFFFFFFFFFFFFFFFFFFFFFFFFFFFFFF AND PUSH20 0xFFFFFFFFFFFFFFFFFFFFFFFFFFFFFFFFFFFFFFFF AND PUSH20 0xFFFFFFFFFFFFFFFFFFFFFFFFFFFFFFFFFFFFFFFF AND DUP2 MSTORE PUSH1 0x20 ADD PUSH1 0x1 DUP3 ADD PUSH1 0x0 SWAP1 SLOAD SWAP1 PUSH2 0x100 EXP SWAP1 DIV PUSH14 0xFFFFFFFFFFFFFFFFFFFFFFFFFFFF AND PUSH14 0xFFFFFFFFFFFFFFFFFFFFFFFFFFFF AND PUSH14 0xFFFFFFFFFFFFFFFFFFFFFFFFFFFF AND DUP2 MSTORE PUSH1 0x20 ADD PUSH1 0x1 DUP3 ADD PUSH1 0xE SWAP1 SLOAD SWAP1 PUSH2 0x100 EXP SWAP1 DIV PUSH14 0xFFFFFFFFFFFFFFFFFFFFFFFFFFFF AND PUSH14 0xFFFFFFFFFFFFFFFFFFFFFFFFFFFF AND PUSH14 0xFFFFFFFFFFFFFFFFFFFFFFFFFFFF AND DUP2 MSTORE PUSH1 0x20 ADD PUSH1 0x2 DUP3 ADD PUSH1 0x0 SWAP1 SLOAD SWAP1 PUSH2 0x100 EXP SWAP1 DIV PUSH14 0xFFFFFFFFFFFFFFFFFFFFFFFFFFFF AND PUSH14 0xFFFFFFFFFFFFFFFFFFFFFFFFFFFF AND PUSH14 0xFFFFFFFFFFFFFFFFFFFFFFFFFFFF AND DUP2 MSTORE PUSH1 0x20 ADD PUSH1 0x3 DUP3 ADD PUSH1 0x8 DUP1 PUSH1 0x20 MUL PUSH1 0x40 MLOAD SWAP1 DUP2 ADD PUSH1 0x40 MSTORE DUP1 SWAP3 SWAP2 SWAP1 DUP3 PUSH1 0x8 DUP1 ISZERO PUSH2 0x2A72 JUMPI PUSH1 0x20 MUL DUP3 ADD SWAP2 PUSH1 0x0 SWAP1 JUMPDEST DUP3 DUP3 SWAP1 SLOAD SWAP1 PUSH2 0x100 EXP SWAP1 DIV PUSH4 0xFFFFFFFF AND PUSH4 0xFFFFFFFF AND DUP2 MSTORE PUSH1 0x20 ADD SWAP1 PUSH1 0x4 ADD SWAP1 PUSH1 0x20 DUP3 PUSH1 0x3 ADD DIV SWAP3 DUP4 ADD SWAP3 PUSH1 0x1 SUB DUP3 MUL SWAP2 POP DUP1 DUP5 GT PUSH2 0x2A35 JUMPI SWAP1 POP JUMPDEST POP POP POP POP POP DUP2 MSTORE POP POP SWAP1 POP SWAP2 SWAP1 POP JUMP JUMPDEST PUSH1 0x0 DUP1 SHL DUP2 JUMP JUMPDEST PUSH2 0x2A92 DUP3 PUSH2 0x1171 JUMP JUMPDEST PUSH2 0x2AA3 DUP2 PUSH2 0x2A9E PUSH2 0x4087 JUMP JUMPDEST PUSH2 0x408F JUMP JUMPDEST PUSH2 0x2AAD DUP4 DUP4 PUSH2 0x4924 JUMP JUMPDEST POP POP POP JUMP JUMPDEST PUSH1 0x0 DUP1 SHL PUSH2 0x2AC7 DUP2 PUSH2 0x2AC2 PUSH2 0x4087 JUMP JUMPDEST PUSH2 0x408F JUMP JUMPDEST DUP5 PUSH1 0x0 PUSH1 0x3 PUSH1 0x0 DUP4 PUSH20 0xFFFFFFFFFFFFFFFFFFFFFFFFFFFFFFFFFFFFFFFF AND PUSH20 0xFFFFFFFFFFFFFFFFFFFFFFFFFFFFFFFFFFFFFFFF AND DUP2 MSTORE PUSH1 0x20 ADD SWAP1 DUP2 MSTORE PUSH1 0x20 ADD PUSH1 0x0 KECCAK256 SLOAD EQ DUP1 ISZERO PUSH2 0x2B57 JUMPI POP PUSH20 0x4D7000CC826349A872757D82B3E0F68A713B3C5 PUSH20 0xFFFFFFFFFFFFFFFFFFFFFFFFFFFFFFFFFFFFFFFF AND DUP2 PUSH20 0xFFFFFFFFFFFFFFFFFFFFFFFFFFFFFFFFFFFFFFFF AND EQ ISZERO JUMPDEST PUSH1 0x40 MLOAD DUP1 PUSH1 0x40 ADD PUSH1 0x40 MSTORE DUP1 PUSH1 0x1 DUP2 MSTORE PUSH1 0x20 ADD PUSH32 0x4500000000000000000000000000000000000000000000000000000000000000 DUP2 MSTORE POP SWAP1 PUSH2 0x2BCE JUMPI PUSH1 0x40 MLOAD PUSH32 0x8C379A000000000000000000000000000000000000000000000000000000000 DUP2 MSTORE PUSH1 0x4 ADD PUSH2 0x2BC5 SWAP2 SWAP1 PUSH2 0x7522 JUMP JUMPDEST PUSH1 0x40 MLOAD DUP1 SWAP2 SUB SWAP1 REVERT JUMPDEST POP PUSH1 0x0 PUSH1 0x2 DUP1 SLOAD SWAP1 POP SWAP1 POP PUSH2 0x2C06 CALLER ADDRESS DUP9 DUP11 PUSH20 0xFFFFFFFFFFFFFFFFFFFFFFFFFFFFFFFFFFFFFFFF AND PUSH2 0x53B5 SWAP1 SWAP4 SWAP3 SWAP2 SWAP1 PUSH4 0xFFFFFFFF AND JUMP JUMPDEST PUSH20 0x4D7000CC826349A872757D82B3E0F68A713B3C5 PUSH20 0xFFFFFFFFFFFFFFFFFFFFFFFFFFFFFFFFFFFFFFFF AND PUSH4 0xBB9FF5D ADDRESS DUP9 PUSH1 0x40 MLOAD DUP4 PUSH4 0xFFFFFFFF AND PUSH1 0xE0 SHL DUP2 MSTORE PUSH1 0x4 ADD PUSH2 0x2C55 SWAP3 SWAP2 SWAP1 PUSH2 0x78BE JUMP JUMPDEST PUSH1 0x0 PUSH1 0x40 MLOAD DUP1 DUP4 SUB DUP2 PUSH1 0x0 DUP8 DUP1 EXTCODESIZE ISZERO DUP1 ISZERO PUSH2 0x2C6F JUMPI PUSH1 0x0 DUP1 REVERT JUMPDEST POP GAS CALL ISZERO DUP1 ISZERO PUSH2 0x2C83 JUMPI RETURNDATASIZE PUSH1 0x0 DUP1 RETURNDATACOPY RETURNDATASIZE PUSH1 0x0 REVERT JUMPDEST POP POP POP POP DUP7 PUSH20 0xFFFFFFFFFFFFFFFFFFFFFFFFFFFFFFFFFFFFFFFF AND PUSH4 0x70A08231 ADDRESS PUSH1 0x40 MLOAD DUP3 PUSH4 0xFFFFFFFF AND PUSH1 0xE0 SHL DUP2 MSTORE PUSH1 0x4 ADD PUSH2 0x2CC0 SWAP2 SWAP1 PUSH2 0x6F85 JUMP JUMPDEST PUSH1 0x20 PUSH1 0x40 MLOAD DUP1 DUP4 SUB DUP2 DUP7 GAS STATICCALL ISZERO DUP1 ISZERO PUSH2 0x2CDD JUMPI RETURNDATASIZE PUSH1 0x0 DUP1 RETURNDATACOPY RETURNDATASIZE PUSH1 0x0 REVERT JUMPDEST POP POP POP POP PUSH1 0x40 MLOAD RETURNDATASIZE PUSH1 0x1F NOT PUSH1 0x1F DUP3 ADD AND DUP3 ADD DUP1 PUSH1 0x40 MSTORE POP DUP2 ADD SWAP1 PUSH2 0x2D01 SWAP2 SWAP1 PUSH2 0x7642 JUMP JUMPDEST SWAP6 POP PUSH1 0x0 DUP7 GT PUSH1 0x40 MLOAD DUP1 PUSH1 0x40 ADD PUSH1 0x40 MSTORE DUP1 PUSH1 0x1 DUP2 MSTORE PUSH1 0x20 ADD PUSH32 0x5A00000000000000000000000000000000000000000000000000000000000000 DUP2 MSTORE POP SWAP1 PUSH2 0x2D7E JUMPI PUSH1 0x40 MLOAD PUSH32 0x8C379A000000000000000000000000000000000000000000000000000000000 DUP2 MSTORE PUSH1 0x4 ADD PUSH2 0x2D75 SWAP2 SWAP1 PUSH2 0x7522 JUMP JUMPDEST PUSH1 0x40 MLOAD DUP1 SWAP2 SUB SWAP1 REVERT JUMPDEST POP PUSH1 0x0 PUSH2 0x2D95 DUP7 DUP9 PUSH2 0x2D90 SWAP2 SWAP1 PUSH2 0x77B7 JUMP JUMPDEST PUSH2 0x543E JUMP JUMPDEST SWAP1 POP PUSH2 0x2D9F PUSH2 0x6BDB JUMP JUMPDEST PUSH1 0x0 PUSH1 0x40 MLOAD DUP1 PUSH1 0xA0 ADD PUSH1 0x40 MSTORE DUP1 DUP12 PUSH20 0xFFFFFFFFFFFFFFFFFFFFFFFFFFFFFFFFFFFFFFFF AND DUP2 MSTORE PUSH1 0x20 ADD DUP11 PUSH14 0xFFFFFFFFFFFFFFFFFFFFFFFFFFFF AND DUP2 MSTORE PUSH1 0x20 ADD DUP10 PUSH14 0xFFFFFFFFFFFFFFFFFFFFFFFFFFFF AND DUP2 MSTORE PUSH1 0x20 ADD DUP5 PUSH14 0xFFFFFFFFFFFFFFFFFFFFFFFFFFFF AND DUP2 MSTORE PUSH1 0x20 ADD DUP4 DUP2 MSTORE POP SWAP1 POP PUSH1 0x2 DUP2 SWAP1 DUP1 PUSH1 0x1 DUP2 SLOAD ADD DUP1 DUP3 SSTORE DUP1 SWAP2 POP POP PUSH1 0x1 SWAP1 SUB SWAP1 PUSH1 0x0 MSTORE PUSH1 0x20 PUSH1 0x0 KECCAK256 SWAP1 PUSH1 0x4 MUL ADD PUSH1 0x0 SWAP1 SWAP2 SWAP1 SWAP2 SWAP1 SWAP2 POP PUSH1 0x0 DUP3 ADD MLOAD DUP2 PUSH1 0x0 ADD PUSH1 0x0 PUSH2 0x100 EXP DUP2 SLOAD DUP2 PUSH20 0xFFFFFFFFFFFFFFFFFFFFFFFFFFFFFFFFFFFFFFFF MUL NOT AND SWAP1 DUP4 PUSH20 0xFFFFFFFFFFFFFFFFFFFFFFFFFFFFFFFFFFFFFFFF AND MUL OR SWAP1 SSTORE POP PUSH1 0x20 DUP3 ADD MLOAD DUP2 PUSH1 0x1 ADD PUSH1 0x0 PUSH2 0x100 EXP DUP2 SLOAD DUP2 PUSH14 0xFFFFFFFFFFFFFFFFFFFFFFFFFFFF MUL NOT AND SWAP1 DUP4 PUSH14 0xFFFFFFFFFFFFFFFFFFFFFFFFFFFF AND MUL OR SWAP1 SSTORE POP PUSH1 0x40 DUP3 ADD MLOAD DUP2 PUSH1 0x1 ADD PUSH1 0xE PUSH2 0x100 EXP DUP2 SLOAD DUP2 PUSH14 0xFFFFFFFFFFFFFFFFFFFFFFFFFFFF MUL NOT AND SWAP1 DUP4 PUSH14 0xFFFFFFFFFFFFFFFFFFFFFFFFFFFF AND MUL OR SWAP1 SSTORE POP PUSH1 0x60 DUP3 ADD MLOAD DUP2 PUSH1 0x2 ADD PUSH1 0x0 PUSH2 0x100 EXP DUP2 SLOAD DUP2 PUSH14 0xFFFFFFFFFFFFFFFFFFFFFFFFFFFF MUL NOT AND SWAP1 DUP4 PUSH14 0xFFFFFFFFFFFFFFFFFFFFFFFFFFFF AND MUL OR SWAP1 SSTORE POP PUSH1 0x80 DUP3 ADD MLOAD DUP2 PUSH1 0x3 ADD SWAP1 PUSH1 0x8 PUSH2 0x2F4B SWAP3 SWAP2 SWAP1 PUSH2 0x6BFE JUMP JUMPDEST POP POP POP DUP4 PUSH1 0x3 PUSH1 0x0 DUP13 PUSH20 0xFFFFFFFFFFFFFFFFFFFFFFFFFFFFFFFFFFFFFFFF AND PUSH20 0xFFFFFFFFFFFFFFFFFFFFFFFFFFFFFFFFFFFFFFFF AND DUP2 MSTORE PUSH1 0x20 ADD SWAP1 DUP2 MSTORE PUSH1 0x20 ADD PUSH1 0x0 KECCAK256 DUP2 SWAP1 SSTORE POP PUSH20 0xE94EFBCAA00665C8FAA47E18741DA9F212A15C20 PUSH20 0xFFFFFFFFFFFFFFFFFFFFFFFFFFFFFFFFFFFFFFFF AND PUSH3 0x4A84CB PUSH2 0xDEAD DUP7 PUSH2 0x3E8 PUSH1 0x40 MLOAD DUP5 PUSH4 0xFFFFFFFF AND PUSH1 0xE0 SHL DUP2 MSTORE PUSH1 0x4 ADD PUSH2 0x2FE6 SWAP4 SWAP3 SWAP2 SWAP1 PUSH2 0x78E7 JUMP JUMPDEST PUSH1 0x0 PUSH1 0x40 MLOAD DUP1 DUP4 SUB DUP2 PUSH1 0x0 DUP8 DUP1 EXTCODESIZE ISZERO DUP1 ISZERO PUSH2 0x3000 JUMPI PUSH1 0x0 DUP1 REVERT JUMPDEST POP GAS CALL ISZERO DUP1 ISZERO PUSH2 0x3014 JUMPI RETURNDATASIZE PUSH1 0x0 DUP1 RETURNDATACOPY RETURNDATASIZE PUSH1 0x0 REVERT JUMPDEST POP POP POP POP PUSH1 0x0 PUSH2 0x3E8 PUSH2 0x3031 DUP11 DUP13 PUSH2 0x302C SWAP2 SWAP1 PUSH2 0x77B7 JUMP JUMPDEST PUSH2 0x543E JUMP JUMPDEST PUSH2 0x303B SWAP2 SWAP1 PUSH2 0x7859 JUMP JUMPDEST SWAP1 POP PUSH20 0xE94EFBCAA00665C8FAA47E18741DA9F212A15C20 PUSH20 0xFFFFFFFFFFFFFFFFFFFFFFFFFFFFFFFFFFFFFFFF AND PUSH3 0x4A84CB DUP10 DUP8 DUP5 PUSH1 0x40 MLOAD DUP5 PUSH4 0xFFFFFFFF AND PUSH1 0xE0 SHL DUP2 MSTORE PUSH1 0x4 ADD PUSH2 0x308D SWAP4 SWAP3 SWAP2 SWAP1 PUSH2 0x78E7 JUMP JUMPDEST PUSH1 0x0 PUSH1 0x40 MLOAD DUP1 DUP4 SUB DUP2 PUSH1 0x0 DUP8 DUP1 EXTCODESIZE ISZERO DUP1 ISZERO PUSH2 0x30A7 JUMPI PUSH1 0x0 DUP1 REVERT JUMPDEST POP GAS CALL ISZERO DUP1 ISZERO PUSH2 0x30BB JUMPI RETURNDATASIZE PUSH1 0x0 DUP1 RETURNDATACOPY RETURNDATASIZE PUSH1 0x0 REVERT JUMPDEST POP POP POP POP POP POP POP POP POP POP POP POP POP POP POP JUMP JUMPDEST PUSH1 0x0 DUP1 PUSH1 0x0 PUSH1 0x3 PUSH1 0x0 PUSH20 0xCD300DD54345F48BA108DF3D792B6C2DBB17EDD2 PUSH20 0xFFFFFFFFFFFFFFFFFFFFFFFFFFFFFFFFFFFFFFFF AND PUSH20 0xFFFFFFFFFFFFFFFFFFFFFFFFFFFFFFFFFFFFFFFF AND DUP2 MSTORE PUSH1 0x20 ADD SWAP1 DUP2 MSTORE PUSH1 0x20 ADD PUSH1 0x0 KECCAK256 SLOAD SWAP1 POP PUSH1 0x0 PUSH1 0x3 PUSH1 0x0 PUSH20 0xDE402E9D305BAD483D47BC858CC373C5A040A62D PUSH20 0xFFFFFFFFFFFFFFFFFFFFFFFFFFFFFFFFFFFFFFFF AND PUSH20 0xFFFFFFFFFFFFFFFFFFFFFFFFFFFFFFFFFFFFFFFF AND DUP2 MSTORE PUSH1 0x20 ADD SWAP1 DUP2 MSTORE PUSH1 0x20 ADD PUSH1 0x0 KECCAK256 SLOAD SWAP1 POP PUSH1 0x2 DUP3 DUP2 SLOAD DUP2 LT PUSH2 0x3193 JUMPI PUSH2 0x3192 PUSH2 0x7544 JUMP JUMPDEST JUMPDEST SWAP1 PUSH1 0x0 MSTORE PUSH1 0x20 PUSH1 0x0 KECCAK256 SWAP1 PUSH1 0x4 MUL ADD PUSH1 0x1 ADD PUSH1 0x0 SWAP1 SLOAD SWAP1 PUSH2 0x100 EXP SWAP1 DIV PUSH14 0xFFFFFFFFFFFFFFFFFFFFFFFFFFFF AND PUSH14 0xFFFFFFFFFFFFFFFFFFFFFFFFFFFF AND PUSH8 0xDE0B6B3A7640000 PUSH1 0x2 DUP5 DUP2 SLOAD DUP2 LT PUSH2 0x31EC JUMPI PUSH2 0x31EB PUSH2 0x7544 JUMP JUMPDEST JUMPDEST SWAP1 PUSH1 0x0 MSTORE PUSH1 0x20 PUSH1 0x0 KECCAK256 SWAP1 PUSH1 0x4 MUL ADD PUSH1 0x1 ADD PUSH1 0xE SWAP1 SLOAD SWAP1 PUSH2 0x100 EXP SWAP1 DIV PUSH14 0xFFFFFFFFFFFFFFFFFFFFFFFFFFFF AND PUSH14 0xFFFFFFFFFFFFFFFFFFFFFFFFFFFF AND PUSH2 0x3232 SWAP2 SWAP1 PUSH2 0x77B7 JUMP JUMPDEST PUSH2 0x323C SWAP2 SWAP1 PUSH2 0x788D JUMP JUMPDEST PUSH1 0x2 DUP3 DUP2 SLOAD DUP2 LT PUSH2 0x3250 JUMPI PUSH2 0x324F PUSH2 0x7544 JUMP JUMPDEST JUMPDEST SWAP1 PUSH1 0x0 MSTORE PUSH1 0x20 PUSH1 0x0 KECCAK256 SWAP1 PUSH1 0x4 MUL ADD PUSH1 0x1 ADD PUSH1 0x0 SWAP1 SLOAD SWAP1 PUSH2 0x100 EXP SWAP1 DIV PUSH14 0xFFFFFFFFFFFFFFFFFFFFFFFFFFFF AND PUSH14 0xFFFFFFFFFFFFFFFFFFFFFFFFFFFF AND PUSH8 0xDE0B6B3A7640000 PUSH1 0x2 DUP5 DUP2 SLOAD DUP2 LT PUSH2 0x32A9 JUMPI PUSH2 0x32A8 PUSH2 0x7544 JUMP JUMPDEST JUMPDEST SWAP1 PUSH1 0x0 MSTORE PUSH1 0x20 PUSH1 0x0 KECCAK256 SWAP1 PUSH1 0x4 MUL ADD PUSH1 0x1 ADD PUSH1 0xE SWAP1 SLOAD SWAP1 PUSH2 0x100 EXP SWAP1 DIV PUSH14 0xFFFFFFFFFFFFFFFFFFFFFFFFFFFF AND PUSH14 0xFFFFFFFFFFFFFFFFFFFFFFFFFFFF AND PUSH2 0x32EF SWAP2 SWAP1 PUSH2 0x77B7 JUMP JUMPDEST PUSH2 0x32F9 SWAP2 SWAP1 PUSH2 0x788D JUMP JUMPDEST SWAP4 POP SWAP4 POP POP POP SWAP1 SWAP2 JUMP JUMPDEST PUSH1 0x0 PUSH2 0x33B7 DUP3 PUSH1 0x2 DUP6 DUP2 SLOAD DUP2 LT PUSH2 0x331D JUMPI PUSH2 0x331C PUSH2 0x7544 JUMP JUMPDEST JUMPDEST SWAP1 PUSH1 0x0 MSTORE PUSH1 0x20 PUSH1 0x0 KECCAK256 SWAP1 PUSH1 0x4 MUL ADD PUSH1 0x1 ADD PUSH1 0xE SWAP1 SLOAD SWAP1 PUSH2 0x100 EXP SWAP1 DIV PUSH14 0xFFFFFFFFFFFFFFFFFFFFFFFFFFFF AND PUSH14 0xFFFFFFFFFFFFFFFFFFFFFFFFFFFF AND PUSH1 0x2 DUP7 DUP2 SLOAD DUP2 LT PUSH2 0x336D JUMPI PUSH2 0x336C PUSH2 0x7544 JUMP JUMPDEST JUMPDEST SWAP1 PUSH1 0x0 MSTORE PUSH1 0x20 PUSH1 0x0 KECCAK256 SWAP1 PUSH1 0x4 MUL ADD PUSH1 0x1 ADD PUSH1 0x0 SWAP1 SLOAD SWAP1 PUSH2 0x100 EXP SWAP1 DIV PUSH14 0xFFFFFFFFFFFFFFFFFFFFFFFFFFFF AND PUSH14 0xFFFFFFFFFFFFFFFFFFFFFFFFFFFF AND PUSH2 0x33B2 DUP8 PUSH2 0x192E JUMP JUMPDEST PUSH2 0x5360 JUMP JUMPDEST SWAP1 POP SWAP3 SWAP2 POP POP JUMP JUMPDEST PUSH1 0x0 DUP7 PUSH1 0x0 PUSH1 0x3 PUSH1 0x0 DUP4 PUSH20 0xFFFFFFFFFFFFFFFFFFFFFFFFFFFFFFFFFFFFFFFF AND PUSH20 0xFFFFFFFFFFFFFFFFFFFFFFFFFFFFFFFFFFFFFFFF AND DUP2 MSTORE PUSH1 0x20 ADD SWAP1 DUP2 MSTORE PUSH1 0x20 ADD PUSH1 0x0 KECCAK256 SLOAD GT DUP1 ISZERO PUSH2 0x3451 JUMPI POP PUSH20 0x4D7000CC826349A872757D82B3E0F68A713B3C5 PUSH20 0xFFFFFFFFFFFFFFFFFFFFFFFFFFFFFFFFFFFFFFFF AND DUP2 PUSH20 0xFFFFFFFFFFFFFFFFFFFFFFFFFFFFFFFFFFFFFFFF AND EQ ISZERO JUMPDEST PUSH1 0x40 MLOAD DUP1 PUSH1 0x40 ADD PUSH1 0x40 MSTORE DUP1 PUSH1 0x1 DUP2 MSTORE PUSH1 0x20 ADD PUSH32 0x4E00000000000000000000000000000000000000000000000000000000000000 DUP2 MSTORE POP SWAP1 PUSH2 0x34C8 JUMPI PUSH1 0x40 MLOAD PUSH32 0x8C379A000000000000000000000000000000000000000000000000000000000 DUP2 MSTORE PUSH1 0x4 ADD PUSH2 0x34BF SWAP2 SWAP1 PUSH2 0x7522 JUMP JUMPDEST PUSH1 0x40 MLOAD DUP1 SWAP2 SUB SWAP1 REVERT JUMPDEST POP DUP4 DUP1 TIMESTAMP GT ISZERO PUSH1 0x40 MLOAD DUP1 PUSH1 0x40 ADD PUSH1 0x40 MSTORE DUP1 PUSH1 0x1 DUP2 MSTORE PUSH1 0x20 ADD PUSH32 0x5400000000000000000000000000000000000000000000000000000000000000 DUP2 MSTORE POP SWAP1 PUSH2 0x3545 JUMPI PUSH1 0x40 MLOAD PUSH32 0x8C379A000000000000000000000000000000000000000000000000000000000 DUP2 MSTORE PUSH1 0x4 ADD PUSH2 0x353C SWAP2 SWAP1 PUSH2 0x7522 JUMP JUMPDEST PUSH1 0x40 MLOAD DUP1 SWAP2 SUB SWAP1 REVERT JUMPDEST POP PUSH2 0x3554 CALLER DUP11 DUP11 DUP11 DUP11 DUP10 PUSH2 0x413A JUMP JUMPDEST SWAP3 POP POP POP SWAP7 SWAP6 POP POP POP POP POP POP JUMP JUMPDEST PUSH2 0x356C DUP3 DUP3 PUSH2 0x1C2A JUMP JUMPDEST PUSH2 0x363E JUMPI PUSH1 0x1 PUSH1 0x0 DUP1 DUP5 DUP2 MSTORE PUSH1 0x20 ADD SWAP1 DUP2 MSTORE PUSH1 0x20 ADD PUSH1 0x0 KECCAK256 PUSH1 0x0 ADD PUSH1 0x0 DUP4 PUSH20 0xFFFFFFFFFFFFFFFFFFFFFFFFFFFFFFFFFFFFFFFF AND PUSH20 0xFFFFFFFFFFFFFFFFFFFFFFFFFFFFFFFFFFFFFFFF AND DUP2 MSTORE PUSH1 0x20 ADD SWAP1 DUP2 MSTORE PUSH1 0x20 ADD PUSH1 0x0 KECCAK256 PUSH1 0x0 PUSH2 0x100 EXP DUP2 SLOAD DUP2 PUSH1 0xFF MUL NOT AND SWAP1 DUP4 ISZERO ISZERO MUL OR SWAP1 SSTORE POP PUSH2 0x35E3 PUSH2 0x4087 JUMP JUMPDEST PUSH20 0xFFFFFFFFFFFFFFFFFFFFFFFFFFFFFFFFFFFFFFFF AND DUP2 PUSH20 0xFFFFFFFFFFFFFFFFFFFFFFFFFFFFFFFFFFFFFFFF AND DUP4 PUSH32 0x2F8788117E7EFF1D82E926EC794901D17C78024A50270940304540A733656F0D PUSH1 0x40 MLOAD PUSH1 0x40 MLOAD DUP1 SWAP2 SUB SWAP1 LOG4 JUMPDEST POP POP JUMP JUMPDEST PUSH1 0x0 PUSH2 0x366A DUP4 PUSH1 0x0 ADD DUP4 PUSH20 0xFFFFFFFFFFFFFFFFFFFFFFFFFFFFFFFFFFFFFFFF AND PUSH1 0x0 SHL PUSH2 0x549B JUMP JUMPDEST SWAP1 POP SWAP3 SWAP2 POP POP JUMP JUMPDEST DUP3 PUSH1 0x0 PUSH1 0x3 PUSH1 0x0 DUP4 PUSH20 0xFFFFFFFFFFFFFFFFFFFFFFFFFFFFFFFFFFFFFFFF AND PUSH20 0xFFFFFFFFFFFFFFFFFFFFFFFFFFFFFFFFFFFFFFFF AND DUP2 MSTORE PUSH1 0x20 ADD SWAP1 DUP2 MSTORE PUSH1 0x20 ADD PUSH1 0x0 KECCAK256 SLOAD GT DUP1 ISZERO PUSH2 0x3702 JUMPI POP PUSH20 0x4D7000CC826349A872757D82B3E0F68A713B3C5 PUSH20 0xFFFFFFFFFFFFFFFFFFFFFFFFFFFFFFFFFFFFFFFF AND DUP2 PUSH20 0xFFFFFFFFFFFFFFFFFFFFFFFFFFFFFFFFFFFFFFFF AND EQ ISZERO JUMPDEST PUSH1 0x40 MLOAD DUP1 PUSH1 0x40 ADD PUSH1 0x40 MSTORE DUP1 PUSH1 0x1 DUP2 MSTORE PUSH1 0x20 ADD PUSH32 0x4E00000000000000000000000000000000000000000000000000000000000000 DUP2 MSTORE POP SWAP1 PUSH2 0x3779 JUMPI PUSH1 0x40 MLOAD PUSH32 0x8C379A000000000000000000000000000000000000000000000000000000000 DUP2 MSTORE PUSH1 0x4 ADD PUSH2 0x3770 SWAP2 SWAP1 PUSH2 0x7522 JUMP JUMPDEST PUSH1 0x40 MLOAD DUP1 SWAP2 SUB SWAP1 REVERT JUMPDEST POP PUSH1 0x0 PUSH1 0x3 PUSH1 0x0 DUP7 PUSH20 0xFFFFFFFFFFFFFFFFFFFFFFFFFFFFFFFFFFFFFFFF AND PUSH20 0xFFFFFFFFFFFFFFFFFFFFFFFFFFFFFFFFFFFFFFFF AND DUP2 MSTORE PUSH1 0x20 ADD SWAP1 DUP2 MSTORE PUSH1 0x20 ADD PUSH1 0x0 KECCAK256 SLOAD SWAP1 POP PUSH1 0x0 DUP6 PUSH20 0xFFFFFFFFFFFFFFFFFFFFFFFFFFFFFFFFFFFFFFFF AND PUSH4 0x70A08231 ADDRESS PUSH1 0x40 MLOAD DUP3 PUSH4 0xFFFFFFFF AND PUSH1 0xE0 SHL DUP2 MSTORE PUSH1 0x4 ADD PUSH2 0x37F9 SWAP2 SWAP1 PUSH2 0x6F85 JUMP JUMPDEST PUSH1 0x20 PUSH1 0x40 MLOAD DUP1 DUP4 SUB DUP2 DUP7 GAS STATICCALL ISZERO DUP1 ISZERO PUSH2 0x3816 JUMPI RETURNDATASIZE PUSH1 0x0 DUP1 RETURNDATACOPY RETURNDATASIZE PUSH1 0x0 REVERT JUMPDEST POP POP POP POP PUSH1 0x40 MLOAD RETURNDATASIZE PUSH1 0x1F NOT PUSH1 0x1F DUP3 ADD AND DUP3 ADD DUP1 PUSH1 0x40 MSTORE POP DUP2 ADD SWAP1 PUSH2 0x383A SWAP2 SWAP1 PUSH2 0x7642 JUMP JUMPDEST SWAP1 POP PUSH1 0x0 PUSH1 0x2 DUP4 DUP2 SLOAD DUP2 LT PUSH2 0x3852 JUMPI PUSH2 0x3851 PUSH2 0x7544 JUMP JUMPDEST JUMPDEST SWAP1 PUSH1 0x0 MSTORE PUSH1 0x20 PUSH1 0x0 KECCAK256 SWAP1 PUSH1 0x4 MUL ADD PUSH1 0x1 ADD PUSH1 0x0 SWAP1 SLOAD SWAP1 PUSH2 0x100 EXP SWAP1 DIV PUSH14 0xFFFFFFFFFFFFFFFFFFFFFFFFFFFF AND PUSH14 0xFFFFFFFFFFFFFFFFFFFFFFFFFFFF AND DUP3 PUSH2 0x3899 SWAP2 SWAP1 PUSH2 0x7859 JUMP JUMPDEST SWAP1 POP PUSH1 0x0 PUSH1 0x4 SLOAD PUSH20 0x4D7000CC826349A872757D82B3E0F68A713B3C5 PUSH20 0xFFFFFFFFFFFFFFFFFFFFFFFFFFFFFFFFFFFFFFFF AND PUSH4 0x70A08231 ADDRESS PUSH1 0x40 MLOAD DUP3 PUSH4 0xFFFFFFFF AND PUSH1 0xE0 SHL DUP2 MSTORE PUSH1 0x4 ADD PUSH2 0x38ED SWAP2 SWAP1 PUSH2 0x6F85 JUMP JUMPDEST PUSH1 0x20 PUSH1 0x40 MLOAD DUP1 DUP4 SUB DUP2 DUP7 GAS STATICCALL ISZERO DUP1 ISZERO PUSH2 0x390A JUMPI RETURNDATASIZE PUSH1 0x0 DUP1 RETURNDATACOPY RETURNDATASIZE PUSH1 0x0 REVERT JUMPDEST POP POP POP POP PUSH1 0x40 MLOAD RETURNDATASIZE PUSH1 0x1F NOT PUSH1 0x1F DUP3 ADD AND DUP3 ADD DUP1 PUSH1 0x40 MSTORE POP DUP2 ADD SWAP1 PUSH2 0x392E SWAP2 SWAP1 PUSH2 0x7642 JUMP JUMPDEST PUSH2 0x3938 SWAP2 SWAP1 PUSH2 0x7859 JUMP JUMPDEST SWAP1 POP PUSH1 0x0 PUSH20 0xE94EFBCAA00665C8FAA47E18741DA9F212A15C20 PUSH20 0xFFFFFFFFFFFFFFFFFFFFFFFFFFFFFFFFFFFFFFFF AND PUSH4 0xBD85B039 DUP7 PUSH1 0x40 MLOAD DUP3 PUSH4 0xFFFFFFFF AND PUSH1 0xE0 SHL DUP2 MSTORE PUSH1 0x4 ADD PUSH2 0x3989 SWAP2 SWAP1 PUSH2 0x702A JUMP JUMPDEST PUSH1 0x20 PUSH1 0x40 MLOAD DUP1 DUP4 SUB DUP2 DUP7 GAS STATICCALL ISZERO DUP1 ISZERO PUSH2 0x39A6 JUMPI RETURNDATASIZE PUSH1 0x0 DUP1 RETURNDATACOPY RETURNDATASIZE PUSH1 0x0 REVERT JUMPDEST POP POP POP POP PUSH1 0x40 MLOAD RETURNDATASIZE PUSH1 0x1F NOT PUSH1 0x1F DUP3 ADD AND DUP3 ADD DUP1 PUSH1 0x40 MSTORE POP DUP2 ADD SWAP1 PUSH2 0x39CA SWAP2 SWAP1 PUSH2 0x7642 JUMP JUMPDEST SWAP1 POP PUSH1 0x0 DUP2 DUP10 PUSH1 0x2 DUP9 DUP2 SLOAD DUP2 LT PUSH2 0x39E4 JUMPI PUSH2 0x39E3 PUSH2 0x7544 JUMP JUMPDEST JUMPDEST SWAP1 PUSH1 0x0 MSTORE PUSH1 0x20 PUSH1 0x0 KECCAK256 SWAP1 PUSH1 0x4 MUL ADD PUSH1 0x1 ADD PUSH1 0x0 SWAP1 SLOAD SWAP1 PUSH2 0x100 EXP SWAP1 DIV PUSH14 0xFFFFFFFFFFFFFFFFFFFFFFFFFFFF AND PUSH14 0xFFFFFFFFFFFFFFFFFFFFFFFFFFFF AND PUSH2 0x3A2A SWAP2 SWAP1 PUSH2 0x77B7 JUMP JUMPDEST PUSH2 0x3A34 SWAP2 SWAP1 PUSH2 0x788D JUMP JUMPDEST SWAP1 POP PUSH1 0x0 DUP3 DUP11 PUSH1 0x2 DUP10 DUP2 SLOAD DUP2 LT PUSH2 0x3A4E JUMPI PUSH2 0x3A4D PUSH2 0x7544 JUMP JUMPDEST JUMPDEST SWAP1 PUSH1 0x0 MSTORE PUSH1 0x20 PUSH1 0x0 KECCAK256 SWAP1 PUSH1 0x4 MUL ADD PUSH1 0x1 ADD PUSH1 0xE SWAP1 SLOAD SWAP1 PUSH2 0x100 EXP SWAP1 DIV PUSH14 0xFFFFFFFFFFFFFFFFFFFFFFFFFFFF AND PUSH14 0xFFFFFFFFFFFFFFFFFFFFFFFFFFFF AND PUSH2 0x3A94 SWAP2 SWAP1 PUSH2 0x77B7 JUMP JUMPDEST PUSH2 0x3A9E SWAP2 SWAP1 PUSH2 0x788D JUMP JUMPDEST SWAP1 POP PUSH1 0x0 PUSH1 0x2 DUP9 DUP2 SLOAD DUP2 LT PUSH2 0x3AB6 JUMPI PUSH2 0x3AB5 PUSH2 0x7544 JUMP JUMPDEST JUMPDEST SWAP1 PUSH1 0x0 MSTORE PUSH1 0x20 PUSH1 0x0 KECCAK256 SWAP1 PUSH1 0x4 MUL ADD PUSH1 0x2 ADD PUSH1 0x0 SWAP1 SLOAD SWAP1 PUSH2 0x100 EXP SWAP1 DIV PUSH14 0xFFFFFFFFFFFFFFFFFFFFFFFFFFFF AND SWAP1 POP PUSH1 0x0 PUSH2 0x3B98 PUSH1 0x2 DUP11 DUP2 SLOAD DUP2 LT PUSH2 0x3AFD JUMPI PUSH2 0x3AFC PUSH2 0x7544 JUMP JUMPDEST JUMPDEST SWAP1 PUSH1 0x0 MSTORE PUSH1 0x20 PUSH1 0x0 KECCAK256 SWAP1 PUSH1 0x4 MUL ADD PUSH1 0x1 ADD PUSH1 0xE SWAP1 SLOAD SWAP1 PUSH2 0x100 EXP SWAP1 DIV PUSH14 0xFFFFFFFFFFFFFFFFFFFFFFFFFFFF AND PUSH14 0xFFFFFFFFFFFFFFFFFFFFFFFFFFFF AND PUSH1 0x2 DUP12 DUP2 SLOAD DUP2 LT PUSH2 0x3B4D JUMPI PUSH2 0x3B4C PUSH2 0x7544 JUMP JUMPDEST JUMPDEST SWAP1 PUSH1 0x0 MSTORE PUSH1 0x20 PUSH1 0x0 KECCAK256 SWAP1 PUSH1 0x4 MUL ADD PUSH1 0x1 ADD PUSH1 0x0 SWAP1 SLOAD SWAP1 PUSH2 0x100 EXP SWAP1 DIV PUSH14 0xFFFFFFFFFFFFFFFFFFFFFFFFFFFF AND PUSH14 0xFFFFFFFFFFFFFFFFFFFFFFFFFFFF AND PUSH2 0x3B93 SWAP2 SWAP1 PUSH2 0x77B7 JUMP JUMPDEST PUSH2 0x543E JUMP JUMPDEST SWAP1 POP DUP6 PUSH1 0x4 PUSH1 0x0 DUP3 DUP3 SLOAD PUSH2 0x3BAC SWAP2 SWAP1 PUSH2 0x7701 JUMP JUMPDEST SWAP3 POP POP DUP2 SWAP1 SSTORE POP DUP1 PUSH1 0x2 DUP11 DUP2 SLOAD DUP2 LT PUSH2 0x3BC8 JUMPI PUSH2 0x3BC7 PUSH2 0x7544 JUMP JUMPDEST JUMPDEST SWAP1 PUSH1 0x0 MSTORE PUSH1 0x20 PUSH1 0x0 KECCAK256 SWAP1 PUSH1 0x4 MUL ADD PUSH1 0x2 ADD PUSH1 0x0 PUSH2 0x100 EXP DUP2 SLOAD DUP2 PUSH14 0xFFFFFFFFFFFFFFFFFFFFFFFFFFFF MUL NOT AND SWAP1 DUP4 PUSH14 0xFFFFFFFFFFFFFFFFFFFFFFFFFFFF AND MUL OR SWAP1 SSTORE POP DUP4 DUP8 PUSH1 0x2 DUP12 DUP2 SLOAD DUP2 LT PUSH2 0x3C21 JUMPI PUSH2 0x3C20 PUSH2 0x7544 JUMP JUMPDEST JUMPDEST SWAP1 PUSH1 0x0 MSTORE PUSH1 0x20 PUSH1 0x0 KECCAK256 SWAP1 PUSH1 0x4 MUL ADD PUSH1 0x1 ADD PUSH1 0x0 SWAP1 SLOAD SWAP1 PUSH2 0x100 EXP SWAP1 DIV PUSH14 0xFFFFFFFFFFFFFFFFFFFFFFFFFFFF AND PUSH2 0x3C57 SWAP2 SWAP1 PUSH2 0x791E JUMP JUMPDEST PUSH2 0x3C61 SWAP2 SWAP1 PUSH2 0x7962 JUMP JUMPDEST PUSH1 0x2 DUP11 DUP2 SLOAD DUP2 LT PUSH2 0x3C75 JUMPI PUSH2 0x3C74 PUSH2 0x7544 JUMP JUMPDEST JUMPDEST SWAP1 PUSH1 0x0 MSTORE PUSH1 0x20 PUSH1 0x0 KECCAK256 SWAP1 PUSH1 0x4 MUL ADD PUSH1 0x1 ADD PUSH1 0x0 PUSH2 0x100 EXP DUP2 SLOAD DUP2 PUSH14 0xFFFFFFFFFFFFFFFFFFFFFFFFFFFF MUL NOT AND SWAP1 DUP4 PUSH14 0xFFFFFFFFFFFFFFFFFFFFFFFFFFFF AND MUL OR SWAP1 SSTORE POP DUP3 DUP7 PUSH1 0x2 DUP12 DUP2 SLOAD DUP2 LT PUSH2 0x3CCE JUMPI PUSH2 0x3CCD PUSH2 0x7544 JUMP JUMPDEST JUMPDEST SWAP1 PUSH1 0x0 MSTORE PUSH1 0x20 PUSH1 0x0 KECCAK256 SWAP1 PUSH1 0x4 MUL ADD PUSH1 0x1 ADD PUSH1 0xE SWAP1 SLOAD SWAP1 PUSH2 0x100 EXP SWAP1 DIV PUSH14 0xFFFFFFFFFFFFFFFFFFFFFFFFFFFF AND PUSH2 0x3D04 SWAP2 SWAP1 PUSH2 0x791E JUMP JUMPDEST PUSH2 0x3D0E SWAP2 SWAP1 PUSH2 0x7962 JUMP JUMPDEST PUSH1 0x2 DUP11 DUP2 SLOAD DUP2 LT PUSH2 0x3D22 JUMPI PUSH2 0x3D21 PUSH2 0x7544 JUMP JUMPDEST JUMPDEST SWAP1 PUSH1 0x0 MSTORE PUSH1 0x20 PUSH1 0x0 KECCAK256 SWAP1 PUSH1 0x4 MUL ADD PUSH1 0x1 ADD PUSH1 0xE PUSH2 0x100 EXP DUP2 SLOAD DUP2 PUSH14 0xFFFFFFFFFFFFFFFFFFFFFFFFFFFF MUL NOT AND SWAP1 DUP4 PUSH14 0xFFFFFFFFFFFFFFFFFFFFFFFFFFFF AND MUL OR SWAP1 SSTORE POP PUSH20 0xE94EFBCAA00665C8FAA47E18741DA9F212A15C20 PUSH20 0xFFFFFFFFFFFFFFFFFFFFFFFFFFFFFFFFFFFFFFFF AND PUSH4 0x1B56A5BE DUP16 DUP12 DUP16 PUSH1 0x40 MLOAD DUP5 PUSH4 0xFFFFFFFF AND PUSH1 0xE0 SHL DUP2 MSTORE PUSH1 0x4 ADD PUSH2 0x3DB6 SWAP4 SWAP3 SWAP2 SWAP1 PUSH2 0x78E7 JUMP JUMPDEST PUSH1 0x0 PUSH1 0x40 MLOAD DUP1 DUP4 SUB DUP2 PUSH1 0x0 DUP8 DUP1 EXTCODESIZE ISZERO DUP1 ISZERO PUSH2 0x3DD0 JUMPI PUSH1 0x0 DUP1 REVERT JUMPDEST POP GAS CALL ISZERO DUP1 ISZERO PUSH2 0x3DE4 JUMPI RETURNDATASIZE PUSH1 0x0 DUP1 RETURNDATACOPY RETURNDATASIZE PUSH1 0x0 REVERT JUMPDEST POP POP POP POP PUSH20 0x4D7000CC826349A872757D82B3E0F68A713B3C5 PUSH20 0xFFFFFFFFFFFFFFFFFFFFFFFFFFFFFFFFFFFFFFFF AND PUSH4 0x18A8AD87 ADDRESS DUP6 PUSH1 0x40 MLOAD DUP4 PUSH4 0xFFFFFFFF AND PUSH1 0xE0 SHL DUP2 MSTORE PUSH1 0x4 ADD PUSH2 0x3E37 SWAP3 SWAP2 SWAP1 PUSH2 0x78BE JUMP JUMPDEST PUSH1 0x0 PUSH1 0x40 MLOAD DUP1 DUP4 SUB DUP2 PUSH1 0x0 DUP8 DUP1 EXTCODESIZE ISZERO DUP1 ISZERO PUSH2 0x3E51 JUMPI PUSH1 0x0 DUP1 REVERT JUMPDEST POP GAS CALL ISZERO DUP1 ISZERO PUSH2 0x3E65 JUMPI RETURNDATASIZE PUSH1 0x0 DUP1 RETURNDATACOPY RETURNDATASIZE PUSH1 0x0 REVERT JUMPDEST POP POP POP POP PUSH1 0x0 PUSH2 0x3E96 DUP4 PUSH14 0xFFFFFFFFFFFFFFFFFFFFFFFFFFFF AND DUP4 PUSH14 0xFFFFFFFFFFFFFFFFFFFFFFFFFFFF AND DUP9 PUSH2 0x550B JUMP JUMPDEST SWAP1 POP PUSH1 0x0 DUP2 GT ISZERO PUSH2 0x3F46 JUMPI PUSH20 0xE94EFBCAA00665C8FAA47E18741DA9F212A15C20 PUSH20 0xFFFFFFFFFFFFFFFFFFFFFFFFFFFFFFFFFFFFFFFF AND PUSH3 0x4A84CB PUSH1 0x6 PUSH1 0x0 SWAP1 SLOAD SWAP1 PUSH2 0x100 EXP SWAP1 DIV PUSH20 0xFFFFFFFFFFFFFFFFFFFFFFFFFFFFFFFFFFFFFFFF AND DUP13 DUP5 PUSH1 0x40 MLOAD DUP5 PUSH4 0xFFFFFFFF AND PUSH1 0xE0 SHL DUP2 MSTORE PUSH1 0x4 ADD PUSH2 0x3F13 SWAP4 SWAP3 SWAP2 SWAP1 PUSH2 0x78E7 JUMP JUMPDEST PUSH1 0x0 PUSH1 0x40 MLOAD DUP1 DUP4 SUB DUP2 PUSH1 0x0 DUP8 DUP1 EXTCODESIZE ISZERO DUP1 ISZERO PUSH2 0x3F2D JUMPI PUSH1 0x0 DUP1 REVERT JUMPDEST POP GAS CALL ISZERO DUP1 ISZERO PUSH2 0x3F41 JUMPI RETURNDATASIZE PUSH1 0x0 DUP1 RETURNDATACOPY RETURNDATASIZE PUSH1 0x0 REVERT JUMPDEST POP POP POP POP JUMPDEST POP PUSH2 0x3F72 DUP12 DUP6 DUP16 PUSH20 0xFFFFFFFFFFFFFFFFFFFFFFFFFFFFFFFFFFFFFFFF AND PUSH2 0x5564 SWAP1 SWAP3 SWAP2 SWAP1 PUSH4 0xFFFFFFFF AND JUMP JUMPDEST PUSH1 0x0 DUP14 PUSH20 0xFFFFFFFFFFFFFFFFFFFFFFFFFFFFFFFFFFFFFFFF AND PUSH4 0x70A08231 ADDRESS PUSH1 0x40 MLOAD DUP3 PUSH4 0xFFFFFFFF AND PUSH1 0xE0 SHL DUP2 MSTORE PUSH1 0x4 ADD PUSH2 0x3FAD SWAP2 SWAP1 PUSH2 0x6F85 JUMP JUMPDEST PUSH1 0x20 PUSH1 0x40 MLOAD DUP1 DUP4 SUB DUP2 DUP7 GAS STATICCALL ISZERO DUP1 ISZERO PUSH2 0x3FCA JUMPI RETURNDATASIZE PUSH1 0x0 DUP1 RETURNDATACOPY RETURNDATASIZE PUSH1 0x0 REVERT JUMPDEST POP POP POP POP PUSH1 0x40 MLOAD RETURNDATASIZE PUSH1 0x1F NOT PUSH1 0x1F DUP3 ADD AND DUP3 ADD DUP1 PUSH1 0x40 MSTORE POP DUP2 ADD SWAP1 PUSH2 0x3FEE SWAP2 SWAP1 PUSH2 0x7642 JUMP JUMPDEST SWAP1 POP DUP9 DUP6 DUP3 PUSH2 0x3FFD SWAP2 SWAP1 PUSH2 0x7701 JUMP JUMPDEST EQ PUSH1 0x40 MLOAD DUP1 PUSH1 0x40 ADD PUSH1 0x40 MSTORE DUP1 PUSH1 0x1 DUP2 MSTORE PUSH1 0x20 ADD PUSH32 0x4600000000000000000000000000000000000000000000000000000000000000 DUP2 MSTORE POP SWAP1 PUSH2 0x4075 JUMPI PUSH1 0x40 MLOAD PUSH32 0x8C379A000000000000000000000000000000000000000000000000000000000 DUP2 MSTORE PUSH1 0x4 ADD PUSH2 0x406C SWAP2 SWAP1 PUSH2 0x7522 JUMP JUMPDEST PUSH1 0x40 MLOAD DUP1 SWAP2 SUB SWAP1 REVERT JUMPDEST POP POP POP POP POP POP POP POP POP POP POP POP POP POP POP POP JUMP JUMPDEST PUSH1 0x0 CALLER SWAP1 POP SWAP1 JUMP JUMPDEST PUSH2 0x4099 DUP3 DUP3 PUSH2 0x1C2A JUMP JUMPDEST PUSH2 0x4128 JUMPI PUSH2 0x40BE DUP2 PUSH20 0xFFFFFFFFFFFFFFFFFFFFFFFFFFFFFFFFFFFFFFFF AND PUSH1 0x14 PUSH2 0x55EA JUMP JUMPDEST PUSH2 0x40CC DUP4 PUSH1 0x0 SHR PUSH1 0x20 PUSH2 0x55EA JUMP JUMPDEST PUSH1 0x40 MLOAD PUSH1 0x20 ADD PUSH2 0x40DD SWAP3 SWAP2 SWAP1 PUSH2 0x7A6A JUMP JUMPDEST PUSH1 0x40 MLOAD PUSH1 0x20 DUP2 DUP4 SUB SUB DUP2 MSTORE SWAP1 PUSH1 0x40 MSTORE PUSH1 0x40 MLOAD PUSH32 0x8C379A000000000000000000000000000000000000000000000000000000000 DUP2 MSTORE PUSH1 0x4 ADD PUSH2 0x411F SWAP2 SWAP1 PUSH2 0x7522 JUMP JUMPDEST PUSH1 0x40 MLOAD DUP1 SWAP2 SUB SWAP1 REVERT JUMPDEST POP POP JUMP JUMPDEST PUSH2 0x4136 DUP3 DUP3 PUSH2 0x48F0 JUMP JUMPDEST POP POP JUMP JUMPDEST PUSH1 0x0 DUP1 PUSH1 0x0 PUSH20 0x4D7000CC826349A872757D82B3E0F68A713B3C5 PUSH20 0xFFFFFFFFFFFFFFFFFFFFFFFFFFFFFFFFFFFFFFFF AND DUP9 PUSH20 0xFFFFFFFFFFFFFFFFFFFFFFFFFFFFFFFFFFFFFFFF AND EQ DUP1 ISZERO PUSH2 0x41CE JUMPI POP PUSH20 0x4D7000CC826349A872757D82B3E0F68A713B3C5 PUSH20 0xFFFFFFFFFFFFFFFFFFFFFFFFFFFFFFFFFFFFFFFF AND DUP8 PUSH20 0xFFFFFFFFFFFFFFFFFFFFFFFFFFFFFFFFFFFFFFFF AND EQ ISZERO JUMPDEST ISZERO PUSH2 0x430E JUMPI PUSH2 0x421C PUSH1 0x3 PUSH1 0x0 DUP10 PUSH20 0xFFFFFFFFFFFFFFFFFFFFFFFFFFFFFFFFFFFFFFFF AND PUSH20 0xFFFFFFFFFFFFFFFFFFFFFFFFFFFFFFFFFFFFFFFF AND DUP2 MSTORE PUSH1 0x20 ADD SWAP1 DUP2 MSTORE PUSH1 0x20 ADD PUSH1 0x0 KECCAK256 SLOAD DUP7 PUSH2 0x1B08 JUMP JUMPDEST SWAP2 POP DUP6 DUP3 GT ISZERO PUSH1 0x40 MLOAD DUP1 PUSH1 0x40 ADD PUSH1 0x40 MSTORE DUP1 PUSH1 0x1 DUP2 MSTORE PUSH1 0x20 ADD PUSH32 0x5800000000000000000000000000000000000000000000000000000000000000 DUP2 MSTORE POP SWAP1 PUSH2 0x4299 JUMPI PUSH1 0x40 MLOAD PUSH32 0x8C379A000000000000000000000000000000000000000000000000000000000 DUP2 MSTORE PUSH1 0x4 ADD PUSH2 0x4290 SWAP2 SWAP1 PUSH2 0x7522 JUMP JUMPDEST PUSH1 0x40 MLOAD DUP1 SWAP2 SUB SWAP1 REVERT JUMPDEST POP ADDRESS PUSH20 0xFFFFFFFFFFFFFFFFFFFFFFFFFFFFFFFFFFFFFFFF AND DUP10 PUSH20 0xFFFFFFFFFFFFFFFFFFFFFFFFFFFFFFFFFFFFFFFF AND EQ PUSH2 0x42FB JUMPI PUSH2 0x42FA DUP10 ADDRESS DUP5 DUP12 PUSH20 0xFFFFFFFFFFFFFFFFFFFFFFFFFFFFFFFFFFFFFFFF AND PUSH2 0x53B5 SWAP1 SWAP4 SWAP3 SWAP2 SWAP1 PUSH4 0xFFFFFFFF AND JUMP JUMPDEST JUMPDEST PUSH2 0x4307 DUP8 PUSH1 0x0 DUP7 PUSH2 0x5826 JUMP JUMPDEST SWAP1 POP PUSH2 0x4706 JUMP JUMPDEST PUSH20 0x4D7000CC826349A872757D82B3E0F68A713B3C5 PUSH20 0xFFFFFFFFFFFFFFFFFFFFFFFFFFFFFFFFFFFFFFFF AND DUP9 PUSH20 0xFFFFFFFFFFFFFFFFFFFFFFFFFFFFFFFFFFFFFFFF AND EQ ISZERO DUP1 ISZERO PUSH2 0x439D JUMPI POP PUSH20 0x4D7000CC826349A872757D82B3E0F68A713B3C5 PUSH20 0xFFFFFFFFFFFFFFFFFFFFFFFFFFFFFFFFFFFFFFFF AND DUP8 PUSH20 0xFFFFFFFFFFFFFFFFFFFFFFFFFFFFFFFFFFFFFFFF AND EQ JUMPDEST ISZERO PUSH2 0x44DD JUMPI PUSH2 0x43EB PUSH1 0x3 PUSH1 0x0 DUP11 PUSH20 0xFFFFFFFFFFFFFFFFFFFFFFFFFFFFFFFFFFFFFFFF AND PUSH20 0xFFFFFFFFFFFFFFFFFFFFFFFFFFFFFFFFFFFFFFFF AND DUP2 MSTORE PUSH1 0x20 ADD SWAP1 DUP2 MSTORE PUSH1 0x20 ADD PUSH1 0x0 KECCAK256 SLOAD DUP7 PUSH2 0x1422 JUMP JUMPDEST SWAP2 POP DUP6 DUP3 GT ISZERO PUSH1 0x40 MLOAD DUP1 PUSH1 0x40 ADD PUSH1 0x40 MSTORE DUP1 PUSH1 0x1 DUP2 MSTORE PUSH1 0x20 ADD PUSH32 0x5900000000000000000000000000000000000000000000000000000000000000 DUP2 MSTORE POP SWAP1 PUSH2 0x4468 JUMPI PUSH1 0x40 MLOAD PUSH32 0x8C379A000000000000000000000000000000000000000000000000000000000 DUP2 MSTORE PUSH1 0x4 ADD PUSH2 0x445F SWAP2 SWAP1 PUSH2 0x7522 JUMP JUMPDEST PUSH1 0x40 MLOAD DUP1 SWAP2 SUB SWAP1 REVERT JUMPDEST POP ADDRESS PUSH20 0xFFFFFFFFFFFFFFFFFFFFFFFFFFFFFFFFFFFFFFFF AND DUP10 PUSH20 0xFFFFFFFFFFFFFFFFFFFFFFFFFFFFFFFFFFFFFFFF AND EQ PUSH2 0x44CA JUMPI PUSH2 0x44C9 DUP10 ADDRESS DUP5 DUP12 PUSH20 0xFFFFFFFFFFFFFFFFFFFFFFFFFFFFFFFFFFFFFFFF AND PUSH2 0x53B5 SWAP1 SWAP4 SWAP3 SWAP2 SWAP1 PUSH4 0xFFFFFFFF AND JUMP JUMPDEST JUMPDEST PUSH2 0x44D6 DUP9 PUSH1 0x0 DUP7 PUSH2 0x602A JUMP JUMPDEST SWAP1 POP PUSH2 0x4705 JUMP JUMPDEST PUSH20 0x4D7000CC826349A872757D82B3E0F68A713B3C5 PUSH20 0xFFFFFFFFFFFFFFFFFFFFFFFFFFFFFFFFFFFFFFFF AND DUP9 PUSH20 0xFFFFFFFFFFFFFFFFFFFFFFFFFFFFFFFFFFFFFFFF AND EQ ISZERO DUP1 ISZERO PUSH2 0x456D JUMPI POP PUSH20 0x4D7000CC826349A872757D82B3E0F68A713B3C5 PUSH20 0xFFFFFFFFFFFFFFFFFFFFFFFFFFFFFFFFFFFFFFFF AND DUP8 PUSH20 0xFFFFFFFFFFFFFFFFFFFFFFFFFFFFFFFFFFFFFFFF AND EQ ISZERO JUMPDEST ISZERO PUSH2 0x4704 JUMPI PUSH1 0x0 PUSH2 0x45BD PUSH1 0x3 PUSH1 0x0 DUP11 PUSH20 0xFFFFFFFFFFFFFFFFFFFFFFFFFFFFFFFFFFFFFFFF AND PUSH20 0xFFFFFFFFFFFFFFFFFFFFFFFFFFFFFFFFFFFFFFFF AND DUP2 MSTORE PUSH1 0x20 ADD SWAP1 DUP2 MSTORE PUSH1 0x20 ADD PUSH1 0x0 KECCAK256 SLOAD DUP8 PUSH2 0x1B08 JUMP JUMPDEST SWAP1 POP PUSH2 0x4608 PUSH1 0x3 PUSH1 0x0 DUP12 PUSH20 0xFFFFFFFFFFFFFFFFFFFFFFFFFFFFFFFFFFFFFFFF AND PUSH20 0xFFFFFFFFFFFFFFFFFFFFFFFFFFFFFFFFFFFFFFFF AND DUP2 MSTORE PUSH1 0x20 ADD SWAP1 DUP2 MSTORE PUSH1 0x20 ADD PUSH1 0x0 KECCAK256 SLOAD DUP3 PUSH2 0x1422 JUMP JUMPDEST SWAP3 POP DUP7 DUP4 GT ISZERO PUSH1 0x40 MLOAD DUP1 PUSH1 0x40 ADD PUSH1 0x40 MSTORE DUP1 PUSH1 0x1 DUP2 MSTORE PUSH1 0x20 ADD PUSH32 0x5900000000000000000000000000000000000000000000000000000000000000 DUP2 MSTORE POP SWAP1 PUSH2 0x4685 JUMPI PUSH1 0x40 MLOAD PUSH32 0x8C379A000000000000000000000000000000000000000000000000000000000 DUP2 MSTORE PUSH1 0x4 ADD PUSH2 0x467C SWAP2 SWAP1 PUSH2 0x7522 JUMP JUMPDEST PUSH1 0x40 MLOAD DUP1 SWAP2 SUB SWAP1 REVERT JUMPDEST POP ADDRESS PUSH20 0xFFFFFFFFFFFFFFFFFFFFFFFFFFFFFFFFFFFFFFFF AND DUP11 PUSH20 0xFFFFFFFFFFFFFFFFFFFFFFFFFFFFFFFFFFFFFFFF AND EQ PUSH2 0x46E7 JUMPI PUSH2 0x46E6 DUP11 ADDRESS DUP6 DUP13 PUSH20 0xFFFFFFFFFFFFFFFFFFFFFFFFFFFFFFFFFFFFFFFF AND PUSH2 0x53B5 SWAP1 SWAP4 SWAP3 SWAP2 SWAP1 PUSH4 0xFFFFFFFF AND JUMP JUMPDEST JUMPDEST PUSH2 0x46F3 DUP10 PUSH1 0x0 DUP1 PUSH2 0x602A JUMP JUMPDEST POP PUSH2 0x4700 DUP9 PUSH1 0x0 DUP8 PUSH2 0x5826 JUMP JUMPDEST SWAP2 POP POP JUMPDEST JUMPDEST JUMPDEST DUP1 SWAP3 POP POP POP SWAP7 SWAP6 POP POP POP POP POP POP JUMP JUMPDEST PUSH1 0x0 ADDRESS PUSH20 0xFFFFFFFFFFFFFFFFFFFFFFFFFFFFFFFFFFFFFFFF AND DUP8 PUSH20 0xFFFFFFFFFFFFFFFFFFFFFFFFFFFFFFFFFFFFFFFF AND EQ PUSH2 0x4778 JUMPI PUSH2 0x4777 DUP8 ADDRESS DUP7 DUP10 PUSH20 0xFFFFFFFFFFFFFFFFFFFFFFFFFFFFFFFFFFFFFFFF AND PUSH2 0x53B5 SWAP1 SWAP4 SWAP3 SWAP2 SWAP1 PUSH4 0xFFFFFFFF AND JUMP JUMPDEST JUMPDEST PUSH1 0x0 PUSH20 0x4D7000CC826349A872757D82B3E0F68A713B3C5 PUSH20 0xFFFFFFFFFFFFFFFFFFFFFFFFFFFFFFFFFFFFFFFF AND DUP8 PUSH20 0xFFFFFFFFFFFFFFFFFFFFFFFFFFFFFFFFFFFFFFFF AND EQ DUP1 ISZERO PUSH2 0x4809 JUMPI POP PUSH20 0x4D7000CC826349A872757D82B3E0F68A713B3C5 PUSH20 0xFFFFFFFFFFFFFFFFFFFFFFFFFFFFFFFFFFFFFFFF AND DUP7 PUSH20 0xFFFFFFFFFFFFFFFFFFFFFFFFFFFFFFFFFFFFFFFF AND EQ ISZERO JUMPDEST ISZERO PUSH2 0x4820 JUMPI PUSH2 0x4819 DUP7 DUP6 DUP6 PUSH2 0x5826 JUMP JUMPDEST SWAP1 POP PUSH2 0x48E2 JUMP JUMPDEST PUSH20 0x4D7000CC826349A872757D82B3E0F68A713B3C5 PUSH20 0xFFFFFFFFFFFFFFFFFFFFFFFFFFFFFFFFFFFFFFFF AND DUP8 PUSH20 0xFFFFFFFFFFFFFFFFFFFFFFFFFFFFFFFFFFFFFFFF AND EQ ISZERO DUP1 ISZERO PUSH2 0x48AF JUMPI POP PUSH20 0x4D7000CC826349A872757D82B3E0F68A713B3C5 PUSH20 0xFFFFFFFFFFFFFFFFFFFFFFFFFFFFFFFFFFFFFFFF AND DUP7 PUSH20 0xFFFFFFFFFFFFFFFFFFFFFFFFFFFFFFFFFFFFFFFF AND EQ JUMPDEST ISZERO PUSH2 0x48C6 JUMPI PUSH2 0x48BF DUP8 DUP6 DUP6 PUSH2 0x602A JUMP JUMPDEST SWAP1 POP PUSH2 0x48E1 JUMP JUMPDEST PUSH2 0x48D2 DUP8 PUSH1 0x0 DUP1 PUSH2 0x602A JUMP JUMPDEST POP PUSH2 0x48DE DUP7 DUP6 DUP6 PUSH2 0x5826 JUMP JUMPDEST SWAP1 POP JUMPDEST JUMPDEST DUP1 SWAP2 POP POP SWAP7 SWAP6 POP POP POP POP POP POP JUMP JUMPDEST PUSH2 0x48FA DUP3 DUP3 PUSH2 0x3562 JUMP JUMPDEST PUSH2 0x491F DUP2 PUSH1 0x1 PUSH1 0x0 DUP6 DUP2 MSTORE PUSH1 0x20 ADD SWAP1 DUP2 MSTORE PUSH1 0x20 ADD PUSH1 0x0 KECCAK256 PUSH2 0x3642 SWAP1 SWAP2 SWAP1 PUSH4 0xFFFFFFFF AND JUMP JUMPDEST POP POP POP JUMP JUMPDEST PUSH2 0x492E DUP3 DUP3 PUSH2 0x666F JUMP JUMPDEST PUSH2 0x4953 DUP2 PUSH1 0x1 PUSH1 0x0 DUP6 DUP2 MSTORE PUSH1 0x20 ADD SWAP1 DUP2 MSTORE PUSH1 0x20 ADD PUSH1 0x0 KECCAK256 PUSH2 0x6750 SWAP1 SWAP2 SWAP1 PUSH4 0xFFFFFFFF AND JUMP JUMPDEST POP POP POP JUMP JUMPDEST PUSH1 0x0 DUP1 PUSH1 0x1 DUP7 DUP6 PUSH2 0x4969 SWAP2 SWAP1 PUSH2 0x7859 JUMP JUMPDEST DUP5 PUSH2 0x4974 SWAP2 SWAP1 PUSH2 0x77B7 JUMP JUMPDEST PUSH2 0x2710 PUSH2 0xFFFF AND DUP9 DUP9 PUSH2 0x4987 SWAP2 SWAP1 PUSH2 0x77B7 JUMP JUMPDEST PUSH2 0x4991 SWAP2 SWAP1 PUSH2 0x77B7 JUMP JUMPDEST PUSH2 0x499B SWAP2 SWAP1 PUSH2 0x788D JUMP JUMPDEST PUSH2 0x49A5 SWAP2 SWAP1 PUSH2 0x7701 JUMP JUMPDEST SWAP1 POP DUP1 SWAP2 POP POP SWAP5 SWAP4 POP POP POP POP JUMP JUMPDEST DUP3 PUSH1 0x0 PUSH1 0x3 PUSH1 0x0 DUP4 PUSH20 0xFFFFFFFFFFFFFFFFFFFFFFFFFFFFFFFFFFFFFFFF AND PUSH20 0xFFFFFFFFFFFFFFFFFFFFFFFFFFFFFFFFFFFFFFFF AND DUP2 MSTORE PUSH1 0x20 ADD SWAP1 DUP2 MSTORE PUSH1 0x20 ADD PUSH1 0x0 KECCAK256 SLOAD GT DUP1 ISZERO PUSH2 0x4A43 JUMPI POP PUSH20 0x4D7000CC826349A872757D82B3E0F68A713B3C5 PUSH20 0xFFFFFFFFFFFFFFFFFFFFFFFFFFFFFFFFFFFFFFFF AND DUP2 PUSH20 0xFFFFFFFFFFFFFFFFFFFFFFFFFFFFFFFFFFFFFFFF AND EQ ISZERO JUMPDEST PUSH1 0x40 MLOAD DUP1 PUSH1 0x40 ADD PUSH1 0x40 MSTORE DUP1 PUSH1 0x1 DUP2 MSTORE PUSH1 0x20 ADD PUSH32 0x4E00000000000000000000000000000000000000000000000000000000000000 DUP2 MSTORE POP SWAP1 PUSH2 0x4ABA JUMPI PUSH1 0x40 MLOAD PUSH32 0x8C379A000000000000000000000000000000000000000000000000000000000 DUP2 MSTORE PUSH1 0x4 ADD PUSH2 0x4AB1 SWAP2 SWAP1 PUSH2 0x7522 JUMP JUMPDEST PUSH1 0x40 MLOAD DUP1 SWAP2 SUB SWAP1 REVERT JUMPDEST POP PUSH1 0x0 PUSH1 0x3 PUSH1 0x0 DUP7 PUSH20 0xFFFFFFFFFFFFFFFFFFFFFFFFFFFFFFFFFFFFFFFF AND PUSH20 0xFFFFFFFFFFFFFFFFFFFFFFFFFFFFFFFFFFFFFFFF AND DUP2 MSTORE PUSH1 0x20 ADD SWAP1 DUP2 MSTORE PUSH1 0x20 ADD PUSH1 0x0 KECCAK256 SLOAD SWAP1 POP PUSH2 0x4B2C DUP7 ADDRESS DUP7 DUP9 PUSH20 0xFFFFFFFFFFFFFFFFFFFFFFFFFFFFFFFFFFFFFFFF AND PUSH2 0x53B5 SWAP1 SWAP4 SWAP3 SWAP2 SWAP1 PUSH4 0xFFFFFFFF AND JUMP JUMPDEST PUSH1 0x0 DUP6 PUSH20 0xFFFFFFFFFFFFFFFFFFFFFFFFFFFFFFFFFFFFFFFF AND PUSH4 0x70A08231 ADDRESS PUSH1 0x40 MLOAD DUP3 PUSH4 0xFFFFFFFF AND PUSH1 0xE0 SHL DUP2 MSTORE PUSH1 0x4 ADD PUSH2 0x4B67 SWAP2 SWAP1 PUSH2 0x6F85 JUMP JUMPDEST PUSH1 0x20 PUSH1 0x40 MLOAD DUP1 DUP4 SUB DUP2 DUP7 GAS STATICCALL ISZERO DUP1 ISZERO PUSH2 0x4B84 JUMPI RETURNDATASIZE PUSH1 0x0 DUP1 RETURNDATACOPY RETURNDATASIZE PUSH1 0x0 REVERT JUMPDEST POP POP POP POP PUSH1 0x40 MLOAD RETURNDATASIZE PUSH1 0x1F NOT PUSH1 0x1F DUP3 ADD AND DUP3 ADD DUP1 PUSH1 0x40 MSTORE POP DUP2 ADD SWAP1 PUSH2 0x4BA8 SWAP2 SWAP1 PUSH2 0x7642 JUMP JUMPDEST SWAP1 POP PUSH1 0x2 DUP3 DUP2 SLOAD DUP2 LT PUSH2 0x4BBE JUMPI PUSH2 0x4BBD PUSH2 0x7544 JUMP JUMPDEST JUMPDEST SWAP1 PUSH1 0x0 MSTORE PUSH1 0x20 PUSH1 0x0 KECCAK256 SWAP1 PUSH1 0x4 MUL ADD PUSH1 0x1 ADD PUSH1 0x0 SWAP1 SLOAD SWAP1 PUSH2 0x100 EXP SWAP1 DIV PUSH14 0xFFFFFFFFFFFFFFFFFFFFFFFFFFFF AND PUSH14 0xFFFFFFFFFFFFFFFFFFFFFFFFFFFF AND DUP2 PUSH2 0x4C05 SWAP2 SWAP1 PUSH2 0x7859 JUMP JUMPDEST SWAP5 POP PUSH1 0x0 DUP6 GT PUSH1 0x40 MLOAD DUP1 PUSH1 0x40 ADD PUSH1 0x40 MSTORE DUP1 PUSH1 0x1 DUP2 MSTORE PUSH1 0x20 ADD PUSH32 0x5A00000000000000000000000000000000000000000000000000000000000000 DUP2 MSTORE POP SWAP1 PUSH2 0x4C82 JUMPI PUSH1 0x40 MLOAD PUSH32 0x8C379A000000000000000000000000000000000000000000000000000000000 DUP2 MSTORE PUSH1 0x4 ADD PUSH2 0x4C79 SWAP2 SWAP1 PUSH2 0x7522 JUMP JUMPDEST PUSH1 0x40 MLOAD DUP1 SWAP2 SUB SWAP1 REVERT JUMPDEST POP PUSH1 0x0 PUSH20 0x4D7000CC826349A872757D82B3E0F68A713B3C5 PUSH20 0xFFFFFFFFFFFFFFFFFFFFFFFFFFFFFFFFFFFFFFFF AND PUSH4 0x70A08231 ADDRESS PUSH1 0x40 MLOAD DUP3 PUSH4 0xFFFFFFFF AND PUSH1 0xE0 SHL DUP2 MSTORE PUSH1 0x4 ADD PUSH2 0x4CD2 SWAP2 SWAP1 PUSH2 0x6F85 JUMP JUMPDEST PUSH1 0x20 PUSH1 0x40 MLOAD DUP1 DUP4 SUB DUP2 DUP7 GAS STATICCALL ISZERO DUP1 ISZERO PUSH2 0x4CEF JUMPI RETURNDATASIZE PUSH1 0x0 DUP1 RETURNDATACOPY RETURNDATASIZE PUSH1 0x0 REVERT JUMPDEST POP POP POP POP PUSH1 0x40 MLOAD RETURNDATASIZE PUSH1 0x1F NOT PUSH1 0x1F DUP3 ADD AND DUP3 ADD DUP1 PUSH1 0x40 MSTORE POP DUP2 ADD SWAP1 PUSH2 0x4D13 SWAP2 SWAP1 PUSH2 0x7642 JUMP JUMPDEST SWAP1 POP PUSH1 0x0 PUSH1 0x4 SLOAD DUP3 PUSH2 0x4D25 SWAP2 SWAP1 PUSH2 0x7859 JUMP JUMPDEST SWAP1 POP PUSH1 0x0 DUP2 PUSH1 0x2 DUP7 DUP2 SLOAD DUP2 LT PUSH2 0x4D3E JUMPI PUSH2 0x4D3D PUSH2 0x7544 JUMP JUMPDEST JUMPDEST SWAP1 PUSH1 0x0 MSTORE PUSH1 0x20 PUSH1 0x0 KECCAK256 SWAP1 PUSH1 0x4 MUL ADD PUSH1 0x1 ADD PUSH1 0x0 SWAP1 SLOAD SWAP1 PUSH2 0x100 EXP SWAP1 DIV PUSH14 0xFFFFFFFFFFFFFFFFFFFFFFFFFFFF AND PUSH14 0xFFFFFFFFFFFFFFFFFFFFFFFFFFFF AND PUSH1 0x2 DUP8 DUP2 SLOAD DUP2 LT PUSH2 0x4D8E JUMPI PUSH2 0x4D8D PUSH2 0x7544 JUMP JUMPDEST JUMPDEST SWAP1 PUSH1 0x0 MSTORE PUSH1 0x20 PUSH1 0x0 KECCAK256 SWAP1 PUSH1 0x4 MUL ADD PUSH1 0x1 ADD PUSH1 0xE SWAP1 SLOAD SWAP1 PUSH2 0x100 EXP SWAP1 DIV PUSH14 0xFFFFFFFFFFFFFFFFFFFFFFFFFFFF AND PUSH14 0xFFFFFFFFFFFFFFFFFFFFFFFFFFFF AND DUP11 PUSH2 0x4DD5 SWAP2 SWAP1 PUSH2 0x77B7 JUMP JUMPDEST PUSH2 0x4DDF SWAP2 SWAP1 PUSH2 0x788D JUMP JUMPDEST PUSH2 0x4DE9 SWAP2 SWAP1 PUSH2 0x7859 JUMP JUMPDEST SWAP1 POP PUSH1 0x0 PUSH1 0x2 DUP7 DUP2 SLOAD DUP2 LT PUSH2 0x4E01 JUMPI PUSH2 0x4E00 PUSH2 0x7544 JUMP JUMPDEST JUMPDEST SWAP1 PUSH1 0x0 MSTORE PUSH1 0x20 PUSH1 0x0 KECCAK256 SWAP1 PUSH1 0x4 MUL ADD PUSH1 0x2 ADD PUSH1 0x0 SWAP1 SLOAD SWAP1 PUSH2 0x100 EXP SWAP1 DIV PUSH14 0xFFFFFFFFFFFFFFFFFFFFFFFFFFFF AND SWAP1 POP PUSH1 0x0 PUSH2 0x4EE3 PUSH1 0x2 DUP9 DUP2 SLOAD DUP2 LT PUSH2 0x4E48 JUMPI PUSH2 0x4E47 PUSH2 0x7544 JUMP JUMPDEST JUMPDEST SWAP1 PUSH1 0x0 MSTORE PUSH1 0x20 PUSH1 0x0 KECCAK256 SWAP1 PUSH1 0x4 MUL ADD PUSH1 0x1 ADD PUSH1 0xE SWAP1 SLOAD SWAP1 PUSH2 0x100 EXP SWAP1 DIV PUSH14 0xFFFFFFFFFFFFFFFFFFFFFFFFFFFF AND PUSH14 0xFFFFFFFFFFFFFFFFFFFFFFFFFFFF AND PUSH1 0x2 DUP10 DUP2 SLOAD DUP2 LT PUSH2 0x4E98 JUMPI PUSH2 0x4E97 PUSH2 0x7544 JUMP JUMPDEST JUMPDEST SWAP1 PUSH1 0x0 MSTORE PUSH1 0x20 PUSH1 0x0 KECCAK256 SWAP1 PUSH1 0x4 MUL ADD PUSH1 0x1 ADD PUSH1 0x0 SWAP1 SLOAD SWAP1 PUSH2 0x100 EXP SWAP1 DIV PUSH14 0xFFFFFFFFFFFFFFFFFFFFFFFFFFFF AND PUSH14 0xFFFFFFFFFFFFFFFFFFFFFFFFFFFF AND PUSH2 0x4EDE SWAP2 SWAP1 PUSH2 0x77B7 JUMP JUMPDEST PUSH2 0x543E JUMP JUMPDEST SWAP1 POP DUP3 DUP5 PUSH2 0x4EF1 SWAP2 SWAP1 PUSH2 0x7701 JUMP JUMPDEST PUSH1 0x4 PUSH1 0x0 DUP3 DUP3 SLOAD PUSH2 0x4F02 SWAP2 SWAP1 PUSH2 0x7701 JUMP JUMPDEST SWAP3 POP POP DUP2 SWAP1 SSTORE POP DUP1 PUSH1 0x2 DUP9 DUP2 SLOAD DUP2 LT PUSH2 0x4F1E JUMPI PUSH2 0x4F1D PUSH2 0x7544 JUMP JUMPDEST JUMPDEST SWAP1 PUSH1 0x0 MSTORE PUSH1 0x20 PUSH1 0x0 KECCAK256 SWAP1 PUSH1 0x4 MUL ADD PUSH1 0x2 ADD PUSH1 0x0 PUSH2 0x100 EXP DUP2 SLOAD DUP2 PUSH14 0xFFFFFFFFFFFFFFFFFFFFFFFFFFFF MUL NOT AND SWAP1 DUP4 PUSH14 0xFFFFFFFFFFFFFFFFFFFFFFFFFFFF AND MUL OR SWAP1 SSTORE POP DUP6 PUSH1 0x2 DUP9 DUP2 SLOAD DUP2 LT PUSH2 0x4F76 JUMPI PUSH2 0x4F75 PUSH2 0x7544 JUMP JUMPDEST JUMPDEST SWAP1 PUSH1 0x0 MSTORE PUSH1 0x20 PUSH1 0x0 KECCAK256 SWAP1 PUSH1 0x4 MUL ADD PUSH1 0x1 ADD PUSH1 0x0 PUSH2 0x100 EXP DUP2 SLOAD DUP2 PUSH14 0xFFFFFFFFFFFFFFFFFFFFFFFFFFFF MUL NOT AND SWAP1 DUP4 PUSH14 0xFFFFFFFFFFFFFFFFFFFFFFFFFFFF AND MUL OR SWAP1 SSTORE POP DUP3 DUP5 PUSH2 0x4FC5 SWAP2 SWAP1 PUSH2 0x7701 JUMP JUMPDEST PUSH1 0x2 DUP9 DUP2 SLOAD DUP2 LT PUSH2 0x4FD9 JUMPI PUSH2 0x4FD8 PUSH2 0x7544 JUMP JUMPDEST JUMPDEST SWAP1 PUSH1 0x0 MSTORE PUSH1 0x20 PUSH1 0x0 KECCAK256 SWAP1 PUSH1 0x4 MUL ADD PUSH1 0x1 ADD PUSH1 0xE DUP3 DUP3 DUP3 SWAP1 SLOAD SWAP1 PUSH2 0x100 EXP SWAP1 DIV PUSH14 0xFFFFFFFFFFFFFFFFFFFFFFFFFFFF AND PUSH2 0x5012 SWAP2 SWAP1 PUSH2 0x791E JUMP JUMPDEST SWAP3 POP PUSH2 0x100 EXP DUP2 SLOAD DUP2 PUSH14 0xFFFFFFFFFFFFFFFFFFFFFFFFFFFF MUL NOT AND SWAP1 DUP4 PUSH14 0xFFFFFFFFFFFFFFFFFFFFFFFFFFFF AND MUL OR SWAP1 SSTORE POP PUSH20 0x4D7000CC826349A872757D82B3E0F68A713B3C5 PUSH20 0xFFFFFFFFFFFFFFFFFFFFFFFFFFFFFFFFFFFFFFFF AND PUSH4 0xBB9FF5D ADDRESS DUP6 PUSH1 0x40 MLOAD DUP4 PUSH4 0xFFFFFFFF AND PUSH1 0xE0 SHL DUP2 MSTORE PUSH1 0x4 ADD PUSH2 0x5093 SWAP3 SWAP2 SWAP1 PUSH2 0x78BE JUMP JUMPDEST PUSH1 0x0 PUSH1 0x40 MLOAD DUP1 DUP4 SUB DUP2 PUSH1 0x0 DUP8 DUP1 EXTCODESIZE ISZERO DUP1 ISZERO PUSH2 0x50AD JUMPI PUSH1 0x0 DUP1 REVERT JUMPDEST POP GAS CALL ISZERO DUP1 ISZERO PUSH2 0x50C1 JUMPI RETURNDATASIZE PUSH1 0x0 DUP1 RETURNDATACOPY RETURNDATASIZE PUSH1 0x0 REVERT JUMPDEST POP POP POP POP PUSH1 0x0 PUSH20 0xE94EFBCAA00665C8FAA47E18741DA9F212A15C20 PUSH20 0xFFFFFFFFFFFFFFFFFFFFFFFFFFFFFFFFFFFFFFFF AND PUSH4 0xBD85B039 DUP10 PUSH1 0x40 MLOAD DUP3 PUSH4 0xFFFFFFFF AND PUSH1 0xE0 SHL DUP2 MSTORE PUSH1 0x4 ADD PUSH2 0x5114 SWAP2 SWAP1 PUSH2 0x702A JUMP JUMPDEST PUSH1 0x20 PUSH1 0x40 MLOAD DUP1 DUP4 SUB DUP2 DUP7 GAS STATICCALL ISZERO DUP1 ISZERO PUSH2 0x5131 JUMPI RETURNDATASIZE PUSH1 0x0 DUP1 RETURNDATACOPY RETURNDATASIZE PUSH1 0x0 REVERT JUMPDEST POP POP POP POP PUSH1 0x40 MLOAD RETURNDATASIZE PUSH1 0x1F NOT PUSH1 0x1F DUP3 ADD AND DUP3 ADD DUP1 PUSH1 0x40 MSTORE POP DUP2 ADD SWAP1 PUSH2 0x5155 SWAP2 SWAP1 PUSH2 0x7642 JUMP JUMPDEST SWAP1 POP PUSH1 0x0 PUSH1 0x2 DUP10 DUP2 SLOAD DUP2 LT PUSH2 0x516D JUMPI PUSH2 0x516C PUSH2 0x7544 JUMP JUMPDEST JUMPDEST SWAP1 PUSH1 0x0 MSTORE PUSH1 0x20 PUSH1 0x0 KECCAK256 SWAP1 PUSH1 0x4 MUL ADD PUSH1 0x1 ADD PUSH1 0x0 SWAP1 SLOAD SWAP1 PUSH2 0x100 EXP SWAP1 DIV PUSH14 0xFFFFFFFFFFFFFFFFFFFFFFFFFFFF AND PUSH14 0xFFFFFFFFFFFFFFFFFFFFFFFFFFFF AND DUP3 DUP14 PUSH2 0x51B5 SWAP2 SWAP1 PUSH2 0x77B7 JUMP JUMPDEST PUSH2 0x51BF SWAP2 SWAP1 PUSH2 0x788D JUMP JUMPDEST SWAP1 POP PUSH20 0xE94EFBCAA00665C8FAA47E18741DA9F212A15C20 PUSH20 0xFFFFFFFFFFFFFFFFFFFFFFFFFFFFFFFFFFFFFFFF AND PUSH3 0x4A84CB DUP13 DUP12 DUP5 PUSH1 0x40 MLOAD DUP5 PUSH4 0xFFFFFFFF AND PUSH1 0xE0 SHL DUP2 MSTORE PUSH1 0x4 ADD PUSH2 0x5211 SWAP4 SWAP3 SWAP2 SWAP1 PUSH2 0x78E7 JUMP JUMPDEST PUSH1 0x0 PUSH1 0x40 MLOAD DUP1 DUP4 SUB DUP2 PUSH1 0x0 DUP8 DUP1 EXTCODESIZE ISZERO DUP1 ISZERO PUSH2 0x522B JUMPI PUSH1 0x0 DUP1 REVERT JUMPDEST POP GAS CALL ISZERO DUP1 ISZERO PUSH2 0x523F JUMPI RETURNDATASIZE PUSH1 0x0 DUP1 RETURNDATACOPY RETURNDATASIZE PUSH1 0x0 REVERT JUMPDEST POP POP POP POP PUSH1 0x0 PUSH2 0x5270 DUP6 PUSH14 0xFFFFFFFFFFFFFFFFFFFFFFFFFFFF AND DUP6 PUSH14 0xFFFFFFFFFFFFFFFFFFFFFFFFFFFF AND DUP6 PUSH2 0x550B JUMP JUMPDEST SWAP1 POP PUSH1 0x0 DUP2 GT ISZERO PUSH2 0x5320 JUMPI PUSH20 0xE94EFBCAA00665C8FAA47E18741DA9F212A15C20 PUSH20 0xFFFFFFFFFFFFFFFFFFFFFFFFFFFFFFFFFFFFFFFF AND PUSH3 0x4A84CB PUSH1 0x6 PUSH1 0x0 SWAP1 SLOAD SWAP1 PUSH2 0x100 EXP SWAP1 DIV PUSH20 0xFFFFFFFFFFFFFFFFFFFFFFFFFFFFFFFFFFFFFFFF AND DUP13 DUP5 PUSH1 0x40 MLOAD DUP5 PUSH4 0xFFFFFFFF AND PUSH1 0xE0 SHL DUP2 MSTORE PUSH1 0x4 ADD PUSH2 0x52ED SWAP4 SWAP3 SWAP2 SWAP1 PUSH2 0x78E7 JUMP JUMPDEST PUSH1 0x0 PUSH1 0x40 MLOAD DUP1 DUP4 SUB DUP2 PUSH1 0x0 DUP8 DUP1 EXTCODESIZE ISZERO DUP1 ISZERO PUSH2 0x5307 JUMPI PUSH1 0x0 DUP1 REVERT JUMPDEST POP GAS CALL ISZERO DUP1 ISZERO PUSH2 0x531B JUMPI RETURNDATASIZE PUSH1 0x0 DUP1 RETURNDATACOPY RETURNDATASIZE PUSH1 0x0 REVERT JUMPDEST POP POP POP POP JUMPDEST POP POP POP POP POP POP POP POP POP POP POP POP POP POP POP JUMP JUMPDEST PUSH1 0x0 PUSH2 0x5340 DUP4 PUSH1 0x0 ADD DUP4 PUSH2 0x6780 JUMP JUMPDEST PUSH1 0x0 SHR SWAP1 POP SWAP3 SWAP2 POP POP JUMP JUMPDEST PUSH1 0x0 PUSH2 0x5359 DUP3 PUSH1 0x0 ADD PUSH2 0x67AB JUMP JUMPDEST SWAP1 POP SWAP2 SWAP1 POP JUMP JUMPDEST PUSH1 0x0 DUP1 DUP3 DUP7 PUSH2 0x536F SWAP2 SWAP1 PUSH2 0x77B7 JUMP JUMPDEST SWAP1 POP PUSH1 0x0 DUP2 PUSH2 0x2710 PUSH2 0xFFFF AND DUP8 PUSH2 0x5386 SWAP2 SWAP1 PUSH2 0x77B7 JUMP JUMPDEST PUSH2 0x5390 SWAP2 SWAP1 PUSH2 0x7701 JUMP JUMPDEST DUP3 DUP7 PUSH2 0x539C SWAP2 SWAP1 PUSH2 0x77B7 JUMP JUMPDEST PUSH2 0x53A6 SWAP2 SWAP1 PUSH2 0x788D JUMP JUMPDEST SWAP1 POP DUP1 SWAP3 POP POP POP SWAP5 SWAP4 POP POP POP POP JUMP JUMPDEST PUSH2 0x5438 DUP5 PUSH4 0x23B872DD PUSH1 0xE0 SHL DUP6 DUP6 DUP6 PUSH1 0x40 MLOAD PUSH1 0x24 ADD PUSH2 0x53D6 SWAP4 SWAP3 SWAP2 SWAP1 PUSH2 0x7AA4 JUMP JUMPDEST PUSH1 0x40 MLOAD PUSH1 0x20 DUP2 DUP4 SUB SUB DUP2 MSTORE SWAP1 PUSH1 0x40 MSTORE SWAP1 PUSH28 0xFFFFFFFFFFFFFFFFFFFFFFFFFFFFFFFFFFFFFFFFFFFFFFFFFFFFFFFF NOT AND PUSH1 0x20 DUP3 ADD DUP1 MLOAD PUSH28 0xFFFFFFFFFFFFFFFFFFFFFFFFFFFFFFFFFFFFFFFFFFFFFFFFFFFFFFFF DUP4 DUP2 DUP4 AND OR DUP4 MSTORE POP POP POP POP PUSH2 0x67BC JUMP JUMPDEST POP POP POP POP JUMP JUMPDEST PUSH1 0x0 DUP1 PUSH1 0x2 PUSH1 0x1 DUP5 PUSH2 0x5450 SWAP2 SWAP1 PUSH2 0x7701 JUMP JUMPDEST PUSH2 0x545A SWAP2 SWAP1 PUSH2 0x788D JUMP JUMPDEST SWAP1 POP DUP3 SWAP2 POP JUMPDEST DUP2 DUP2 LT ISZERO PUSH2 0x5495 JUMPI DUP1 SWAP2 POP PUSH1 0x2 DUP2 DUP3 DUP6 PUSH2 0x547A SWAP2 SWAP1 PUSH2 0x788D JUMP JUMPDEST PUSH2 0x5484 SWAP2 SWAP1 PUSH2 0x7701 JUMP JUMPDEST PUSH2 0x548E SWAP2 SWAP1 PUSH2 0x788D JUMP JUMPDEST SWAP1 POP PUSH2 0x5460 JUMP JUMPDEST POP SWAP2 SWAP1 POP JUMP JUMPDEST PUSH1 0x0 PUSH2 0x54A7 DUP4 DUP4 PUSH2 0x6883 JUMP JUMPDEST PUSH2 0x5500 JUMPI DUP3 PUSH1 0x0 ADD DUP3 SWAP1 DUP1 PUSH1 0x1 DUP2 SLOAD ADD DUP1 DUP3 SSTORE DUP1 SWAP2 POP POP PUSH1 0x1 SWAP1 SUB SWAP1 PUSH1 0x0 MSTORE PUSH1 0x20 PUSH1 0x0 KECCAK256 ADD PUSH1 0x0 SWAP1 SWAP2 SWAP1 SWAP2 SWAP1 SWAP2 POP SSTORE DUP3 PUSH1 0x0 ADD DUP1 SLOAD SWAP1 POP DUP4 PUSH1 0x1 ADD PUSH1 0x0 DUP5 DUP2 MSTORE PUSH1 0x20 ADD SWAP1 DUP2 MSTORE PUSH1 0x20 ADD PUSH1 0x0 KECCAK256 DUP2 SWAP1 SSTORE POP PUSH1 0x1 SWAP1 POP PUSH2 0x5505 JUMP JUMPDEST PUSH1 0x0 SWAP1 POP JUMPDEST SWAP3 SWAP2 POP POP JUMP JUMPDEST PUSH1 0x0 DUP4 DUP4 GT DUP1 ISZERO PUSH2 0x551C JUMPI POP PUSH1 0x0 DUP5 GT JUMPDEST ISZERO PUSH2 0x555D JUMPI DUP4 PUSH1 0x5 DUP5 PUSH2 0x552F SWAP2 SWAP1 PUSH2 0x77B7 JUMP JUMPDEST PUSH2 0x5539 SWAP2 SWAP1 PUSH2 0x7701 JUMP JUMPDEST DUP5 DUP5 PUSH2 0x5545 SWAP2 SWAP1 PUSH2 0x7859 JUMP JUMPDEST DUP4 PUSH2 0x5550 SWAP2 SWAP1 PUSH2 0x77B7 JUMP JUMPDEST PUSH2 0x555A SWAP2 SWAP1 PUSH2 0x788D JUMP JUMPDEST SWAP1 POP JUMPDEST SWAP4 SWAP3 POP POP POP JUMP JUMPDEST PUSH2 0x55E5 DUP4 PUSH4 0xA9059CBB PUSH1 0xE0 SHL DUP5 DUP5 PUSH1 0x40 MLOAD PUSH1 0x24 ADD PUSH2 0x5583 SWAP3 SWAP2 SWAP1 PUSH2 0x78BE JUMP JUMPDEST PUSH1 0x40 MLOAD PUSH1 0x20 DUP2 DUP4 SUB SUB DUP2 MSTORE SWAP1 PUSH1 0x40 MSTORE SWAP1 PUSH28 0xFFFFFFFFFFFFFFFFFFFFFFFFFFFFFFFFFFFFFFFFFFFFFFFFFFFFFFFF NOT AND PUSH1 0x20 DUP3 ADD DUP1 MLOAD PUSH28 0xFFFFFFFFFFFFFFFFFFFFFFFFFFFFFFFFFFFFFFFFFFFFFFFFFFFFFFFF DUP4 DUP2 DUP4 AND OR DUP4 MSTORE POP POP POP POP PUSH2 0x67BC JUMP JUMPDEST POP POP POP JUMP JUMPDEST PUSH1 0x60 PUSH1 0x0 PUSH1 0x2 DUP4 PUSH1 0x2 PUSH2 0x55FD SWAP2 SWAP1 PUSH2 0x77B7 JUMP JUMPDEST PUSH2 0x5607 SWAP2 SWAP1 PUSH2 0x7701 JUMP JUMPDEST PUSH8 0xFFFFFFFFFFFFFFFF DUP2 GT ISZERO PUSH2 0x5620 JUMPI PUSH2 0x561F PUSH2 0x7ADB JUMP JUMPDEST JUMPDEST PUSH1 0x40 MLOAD SWAP1 DUP1 DUP3 MSTORE DUP1 PUSH1 0x1F ADD PUSH1 0x1F NOT AND PUSH1 0x20 ADD DUP3 ADD PUSH1 0x40 MSTORE DUP1 ISZERO PUSH2 0x5652 JUMPI DUP2 PUSH1 0x20 ADD PUSH1 0x1 DUP3 MUL DUP1 CALLDATASIZE DUP4 CALLDATACOPY DUP1 DUP3 ADD SWAP2 POP POP SWAP1 POP JUMPDEST POP SWAP1 POP PUSH32 0x3000000000000000000000000000000000000000000000000000000000000000 DUP2 PUSH1 0x0 DUP2 MLOAD DUP2 LT PUSH2 0x568A JUMPI PUSH2 0x5689 PUSH2 0x7544 JUMP JUMPDEST JUMPDEST PUSH1 0x20 ADD ADD SWAP1 PUSH31 0xFFFFFFFFFFFFFFFFFFFFFFFFFFFFFFFFFFFFFFFFFFFFFFFFFFFFFFFFFFFFFF NOT AND SWAP1 DUP2 PUSH1 0x0 BYTE SWAP1 MSTORE8 POP PUSH32 0x7800000000000000000000000000000000000000000000000000000000000000 DUP2 PUSH1 0x1 DUP2 MLOAD DUP2 LT PUSH2 0x56EE JUMPI PUSH2 0x56ED PUSH2 0x7544 JUMP JUMPDEST JUMPDEST PUSH1 0x20 ADD ADD SWAP1 PUSH31 0xFFFFFFFFFFFFFFFFFFFFFFFFFFFFFFFFFFFFFFFFFFFFFFFFFFFFFFFFFFFFFF NOT AND SWAP1 DUP2 PUSH1 0x0 BYTE SWAP1 MSTORE8 POP PUSH1 0x0 PUSH1 0x1 DUP5 PUSH1 0x2 PUSH2 0x572E SWAP2 SWAP1 PUSH2 0x77B7 JUMP JUMPDEST PUSH2 0x5738 SWAP2 SWAP1 PUSH2 0x7701 JUMP JUMPDEST SWAP1 POP JUMPDEST PUSH1 0x1 DUP2 GT ISZERO PUSH2 0x57D8 JUMPI PUSH32 0x3031323334353637383961626364656600000000000000000000000000000000 PUSH1 0xF DUP7 AND PUSH1 0x10 DUP2 LT PUSH2 0x577A JUMPI PUSH2 0x5779 PUSH2 0x7544 JUMP JUMPDEST JUMPDEST BYTE PUSH1 0xF8 SHL DUP3 DUP3 DUP2 MLOAD DUP2 LT PUSH2 0x5791 JUMPI PUSH2 0x5790 PUSH2 0x7544 JUMP JUMPDEST JUMPDEST PUSH1 0x20 ADD ADD SWAP1 PUSH31 0xFFFFFFFFFFFFFFFFFFFFFFFFFFFFFFFFFFFFFFFFFFFFFFFFFFFFFFFFFFFFFF NOT AND SWAP1 DUP2 PUSH1 0x0 BYTE SWAP1 MSTORE8 POP PUSH1 0x4 DUP6 SWAP1 SHR SWAP5 POP DUP1 PUSH2 0x57D1 SWAP1 PUSH2 0x7B0A JUMP JUMPDEST SWAP1 POP PUSH2 0x573B JUMP JUMPDEST POP PUSH1 0x0 DUP5 EQ PUSH2 0x581C JUMPI PUSH1 0x40 MLOAD PUSH32 0x8C379A000000000000000000000000000000000000000000000000000000000 DUP2 MSTORE PUSH1 0x4 ADD PUSH2 0x5813 SWAP1 PUSH2 0x7B80 JUMP JUMPDEST PUSH1 0x40 MLOAD DUP1 SWAP2 SUB SWAP1 REVERT JUMPDEST DUP1 SWAP2 POP POP SWAP3 SWAP2 POP POP JUMP JUMPDEST PUSH1 0x0 DUP1 PUSH1 0x3 PUSH1 0x0 DUP7 PUSH20 0xFFFFFFFFFFFFFFFFFFFFFFFFFFFFFFFFFFFFFFFF AND PUSH20 0xFFFFFFFFFFFFFFFFFFFFFFFFFFFFFFFFFFFFFFFF AND DUP2 MSTORE PUSH1 0x20 ADD SWAP1 DUP2 MSTORE PUSH1 0x20 ADD PUSH1 0x0 KECCAK256 SLOAD SWAP1 POP PUSH1 0x0 PUSH20 0x4D7000CC826349A872757D82B3E0F68A713B3C5 PUSH20 0xFFFFFFFFFFFFFFFFFFFFFFFFFFFFFFFFFFFFFFFF AND PUSH4 0x70A08231 ADDRESS PUSH1 0x40 MLOAD DUP3 PUSH4 0xFFFFFFFF AND PUSH1 0xE0 SHL DUP2 MSTORE PUSH1 0x4 ADD PUSH2 0x58BA SWAP2 SWAP1 PUSH2 0x6F85 JUMP JUMPDEST PUSH1 0x20 PUSH1 0x40 MLOAD DUP1 DUP4 SUB DUP2 DUP7 GAS STATICCALL ISZERO DUP1 ISZERO PUSH2 0x58D7 JUMPI RETURNDATASIZE PUSH1 0x0 DUP1 RETURNDATACOPY RETURNDATASIZE PUSH1 0x0 REVERT JUMPDEST POP POP POP POP PUSH1 0x40 MLOAD RETURNDATASIZE PUSH1 0x1F NOT PUSH1 0x1F DUP3 ADD AND DUP3 ADD DUP1 PUSH1 0x40 MSTORE POP DUP2 ADD SWAP1 PUSH2 0x58FB SWAP2 SWAP1 PUSH2 0x7642 JUMP JUMPDEST SWAP1 POP PUSH1 0x0 PUSH1 0x4 SLOAD DUP3 PUSH2 0x590D SWAP2 SWAP1 PUSH2 0x7859 JUMP JUMPDEST SWAP1 POP PUSH1 0x0 DUP2 GT PUSH1 0x40 MLOAD DUP1 PUSH1 0x40 ADD PUSH1 0x40 MSTORE DUP1 PUSH1 0x1 DUP2 MSTORE PUSH1 0x20 ADD PUSH32 0x5500000000000000000000000000000000000000000000000000000000000000 DUP2 MSTORE POP SWAP1 PUSH2 0x598A JUMPI PUSH1 0x40 MLOAD PUSH32 0x8C379A000000000000000000000000000000000000000000000000000000000 DUP2 MSTORE PUSH1 0x4 ADD PUSH2 0x5981 SWAP2 SWAP1 PUSH2 0x7522 JUMP JUMPDEST PUSH1 0x40 MLOAD DUP1 SWAP2 SUB SWAP1 REVERT JUMPDEST POP PUSH1 0x0 DUP8 PUSH20 0xFFFFFFFFFFFFFFFFFFFFFFFFFFFFFFFFFFFFFFFF AND PUSH4 0x70A08231 ADDRESS PUSH1 0x40 MLOAD DUP3 PUSH4 0xFFFFFFFF AND PUSH1 0xE0 SHL DUP2 MSTORE PUSH1 0x4 ADD PUSH2 0x59C6 SWAP2 SWAP1 PUSH2 0x6F85 JUMP JUMPDEST PUSH1 0x20 PUSH1 0x40 MLOAD DUP1 DUP4 SUB DUP2 DUP7 GAS STATICCALL ISZERO DUP1 ISZERO PUSH2 0x59E3 JUMPI RETURNDATASIZE PUSH1 0x0 DUP1 RETURNDATACOPY RETURNDATASIZE PUSH1 0x0 REVERT JUMPDEST POP POP POP POP PUSH1 0x40 MLOAD RETURNDATASIZE PUSH1 0x1F NOT PUSH1 0x1F DUP3 ADD AND DUP3 ADD DUP1 PUSH1 0x40 MSTORE POP DUP2 ADD SWAP1 PUSH2 0x5A07 SWAP2 SWAP1 PUSH2 0x7642 JUMP JUMPDEST SWAP1 POP PUSH1 0x0 PUSH1 0x2 DUP6 DUP2 SLOAD DUP2 LT PUSH2 0x5A1F JUMPI PUSH2 0x5A1E PUSH2 0x7544 JUMP JUMPDEST JUMPDEST SWAP1 PUSH1 0x0 MSTORE PUSH1 0x20 PUSH1 0x0 KECCAK256 SWAP1 PUSH1 0x4 MUL ADD PUSH1 0x1 ADD PUSH1 0x0 SWAP1 SLOAD SWAP1 PUSH2 0x100 EXP SWAP1 DIV PUSH14 0xFFFFFFFFFFFFFFFFFFFFFFFFFFFF AND PUSH14 0xFFFFFFFFFFFFFFFFFFFFFFFFFFFF AND DUP3 PUSH2 0x5A66 SWAP2 SWAP1 PUSH2 0x7859 JUMP JUMPDEST SWAP1 POP PUSH1 0x0 PUSH2 0x5A74 DUP7 DUP6 PUSH2 0x3303 JUMP JUMPDEST SWAP1 POP DUP9 DUP2 LT ISZERO PUSH1 0x40 MLOAD DUP1 PUSH1 0x40 ADD PUSH1 0x40 MSTORE DUP1 PUSH1 0x1 DUP2 MSTORE PUSH1 0x20 ADD PUSH32 0x4E00000000000000000000000000000000000000000000000000000000000000 DUP2 MSTORE POP SWAP1 PUSH2 0x5AF1 JUMPI PUSH1 0x40 MLOAD PUSH32 0x8C379A000000000000000000000000000000000000000000000000000000000 DUP2 MSTORE PUSH1 0x4 ADD PUSH2 0x5AE8 SWAP2 SWAP1 PUSH2 0x7522 JUMP JUMPDEST PUSH1 0x40 MLOAD DUP1 SWAP2 SUB SWAP1 REVERT JUMPDEST POP DUP4 PUSH1 0x4 PUSH1 0x0 DUP3 DUP3 SLOAD PUSH2 0x5B04 SWAP2 SWAP1 PUSH2 0x7701 JUMP JUMPDEST SWAP3 POP POP DUP2 SWAP1 SSTORE POP DUP4 PUSH1 0x2 DUP8 DUP2 SLOAD DUP2 LT PUSH2 0x5B20 JUMPI PUSH2 0x5B1F PUSH2 0x7544 JUMP JUMPDEST JUMPDEST SWAP1 PUSH1 0x0 MSTORE PUSH1 0x20 PUSH1 0x0 KECCAK256 SWAP1 PUSH1 0x4 MUL ADD PUSH1 0x1 ADD PUSH1 0xE DUP3 DUP3 DUP3 SWAP1 SLOAD SWAP1 PUSH2 0x100 EXP SWAP1 DIV PUSH14 0xFFFFFFFFFFFFFFFFFFFFFFFFFFFF AND PUSH2 0x5B59 SWAP2 SWAP1 PUSH2 0x791E JUMP JUMPDEST SWAP3 POP PUSH2 0x100 EXP DUP2 SLOAD DUP2 PUSH14 0xFFFFFFFFFFFFFFFFFFFFFFFFFFFF MUL NOT AND SWAP1 DUP4 PUSH14 0xFFFFFFFFFFFFFFFFFFFFFFFFFFFF AND MUL OR SWAP1 SSTORE POP DUP1 DUP3 PUSH1 0x2 DUP9 DUP2 SLOAD DUP2 LT PUSH2 0x5BA1 JUMPI PUSH2 0x5BA0 PUSH2 0x7544 JUMP JUMPDEST JUMPDEST SWAP1 PUSH1 0x0 MSTORE PUSH1 0x20 PUSH1 0x0 KECCAK256 SWAP1 PUSH1 0x4 MUL ADD PUSH1 0x1 ADD PUSH1 0x0 SWAP1 SLOAD SWAP1 PUSH2 0x100 EXP SWAP1 DIV PUSH14 0xFFFFFFFFFFFFFFFFFFFFFFFFFFFF AND PUSH2 0x5BD7 SWAP2 SWAP1 PUSH2 0x791E JUMP JUMPDEST PUSH2 0x5BE1 SWAP2 SWAP1 PUSH2 0x7962 JUMP JUMPDEST PUSH1 0x2 DUP8 DUP2 SLOAD DUP2 LT PUSH2 0x5BF5 JUMPI PUSH2 0x5BF4 PUSH2 0x7544 JUMP JUMPDEST JUMPDEST SWAP1 PUSH1 0x0 MSTORE PUSH1 0x20 PUSH1 0x0 KECCAK256 SWAP1 PUSH1 0x4 MUL ADD PUSH1 0x1 ADD PUSH1 0x0 PUSH2 0x100 EXP DUP2 SLOAD DUP2 PUSH14 0xFFFFFFFFFFFFFFFFFFFFFFFFFFFF MUL NOT AND SWAP1 DUP4 PUSH14 0xFFFFFFFFFFFFFFFFFFFFFFFFFFFF AND MUL OR SWAP1 SSTORE POP PUSH1 0x0 PUSH2 0x5C42 PUSH2 0x1F4A JUMP JUMPDEST SWAP1 POP PUSH1 0x0 PUSH1 0x2 DUP9 DUP2 SLOAD DUP2 LT PUSH2 0x5C5A JUMPI PUSH2 0x5C59 PUSH2 0x7544 JUMP JUMPDEST JUMPDEST SWAP1 PUSH1 0x0 MSTORE PUSH1 0x20 PUSH1 0x0 KECCAK256 SWAP1 POP POP PUSH1 0x8 PUSH1 0x1 PUSH2 0x5C72 PUSH2 0x1F4A JUMP JUMPDEST PUSH2 0x5C7C SWAP2 SWAP1 PUSH2 0x7701 JUMP JUMPDEST PUSH2 0x5C86 SWAP2 SWAP1 PUSH2 0x7786 JUMP JUMPDEST SWAP1 POP PUSH8 0xDE0B6B3A7640000 DUP7 DUP2 PUSH2 0x5CA0 JUMPI PUSH2 0x5C9F PUSH2 0x7757 JUMP JUMPDEST JUMPDEST DIV PUSH1 0x2 DUP10 DUP2 SLOAD DUP2 LT PUSH2 0x5CB5 JUMPI PUSH2 0x5CB4 PUSH2 0x7544 JUMP JUMPDEST JUMPDEST SWAP1 PUSH1 0x0 MSTORE PUSH1 0x20 PUSH1 0x0 KECCAK256 SWAP1 PUSH1 0x4 MUL ADD PUSH1 0x3 ADD DUP4 PUSH1 0x8 DUP2 LT PUSH2 0x5CD8 JUMPI PUSH2 0x5CD7 PUSH2 0x7544 JUMP JUMPDEST JUMPDEST PUSH1 0x8 SWAP2 DUP3 DUP3 DIV ADD SWAP2 SWAP1 MOD PUSH1 0x4 MUL DUP3 DUP3 DUP3 SWAP1 SLOAD SWAP1 PUSH2 0x100 EXP SWAP1 DIV PUSH4 0xFFFFFFFF AND ADD SWAP3 POP PUSH2 0x100 EXP DUP2 SLOAD DUP2 PUSH4 0xFFFFFFFF MUL NOT AND SWAP1 DUP4 PUSH4 0xFFFFFFFF AND MUL OR SWAP1 SSTORE POP PUSH1 0x0 PUSH1 0x2 DUP10 DUP2 SLOAD DUP2 LT PUSH2 0x5D2C JUMPI PUSH2 0x5D2B PUSH2 0x7544 JUMP JUMPDEST JUMPDEST SWAP1 PUSH1 0x0 MSTORE PUSH1 0x20 PUSH1 0x0 KECCAK256 SWAP1 PUSH1 0x4 MUL ADD PUSH1 0x3 ADD DUP3 PUSH1 0x8 DUP2 LT PUSH2 0x5D4F JUMPI PUSH2 0x5D4E PUSH2 0x7544 JUMP JUMPDEST JUMPDEST PUSH1 0x8 SWAP2 DUP3 DUP3 DIV ADD SWAP2 SWAP1 MOD PUSH1 0x4 MUL SWAP1 SLOAD SWAP1 PUSH2 0x100 EXP SWAP1 DIV PUSH4 0xFFFFFFFF AND PUSH4 0xFFFFFFFF AND GT ISZERO PUSH2 0x5DDA JUMPI PUSH1 0x0 PUSH1 0x2 DUP10 DUP2 SLOAD DUP2 LT PUSH2 0x5D8D JUMPI PUSH2 0x5D8C PUSH2 0x7544 JUMP JUMPDEST JUMPDEST SWAP1 PUSH1 0x0 MSTORE PUSH1 0x20 PUSH1 0x0 KECCAK256 SWAP1 PUSH1 0x4 MUL ADD PUSH1 0x3 ADD DUP3 PUSH1 0x8 DUP2 LT PUSH2 0x5DB0 JUMPI PUSH2 0x5DAF PUSH2 0x7544 JUMP JUMPDEST JUMPDEST PUSH1 0x8 SWAP2 DUP3 DUP3 DIV ADD SWAP2 SWAP1 MOD PUSH1 0x4 MUL PUSH2 0x100 EXP DUP2 SLOAD DUP2 PUSH4 0xFFFFFFFF MUL NOT AND SWAP1 DUP4 PUSH4 0xFFFFFFFF AND MUL OR SWAP1 SSTORE POP JUMPDEST PUSH1 0x0 PUSH20 0xFFFFFFFFFFFFFFFFFFFFFFFFFFFFFFFFFFFFFFFF AND DUP11 PUSH20 0xFFFFFFFFFFFFFFFFFFFFFFFFFFFFFFFFFFFFFFFF AND EQ PUSH2 0x5EA4 JUMPI PUSH20 0x4D7000CC826349A872757D82B3E0F68A713B3C5 PUSH20 0xFFFFFFFFFFFFFFFFFFFFFFFFFFFFFFFFFFFFFFFF AND PUSH4 0x23B872DD DUP12 ADDRESS DUP10 PUSH1 0x40 MLOAD DUP5 PUSH4 0xFFFFFFFF AND PUSH1 0xE0 SHL DUP2 MSTORE PUSH1 0x4 ADD PUSH2 0x5E5F SWAP4 SWAP3 SWAP2 SWAP1 PUSH2 0x7AA4 JUMP JUMPDEST PUSH1 0x20 PUSH1 0x40 MLOAD DUP1 DUP4 SUB DUP2 PUSH1 0x0 DUP8 GAS CALL ISZERO DUP1 ISZERO PUSH2 0x5E7E JUMPI RETURNDATASIZE PUSH1 0x0 DUP1 RETURNDATACOPY RETURNDATASIZE PUSH1 0x0 REVERT JUMPDEST POP POP POP POP PUSH1 0x40 MLOAD RETURNDATASIZE PUSH1 0x1F NOT PUSH1 0x1F DUP3 ADD AND DUP3 ADD DUP1 PUSH1 0x40 MSTORE POP DUP2 ADD SWAP1 PUSH2 0x5EA2 SWAP2 SWAP1 PUSH2 0x7BCC JUMP JUMPDEST POP JUMPDEST PUSH2 0x5ECF DUP11 DUP5 DUP15 PUSH20 0xFFFFFFFFFFFFFFFFFFFFFFFFFFFFFFFFFFFFFFFF AND PUSH2 0x5564 SWAP1 SWAP3 SWAP2 SWAP1 PUSH4 0xFFFFFFFF AND JUMP JUMPDEST PUSH1 0x0 DUP13 PUSH20 0xFFFFFFFFFFFFFFFFFFFFFFFFFFFFFFFFFFFFFFFF AND PUSH4 0x70A08231 ADDRESS PUSH1 0x40 MLOAD DUP3 PUSH4 0xFFFFFFFF AND PUSH1 0xE0 SHL DUP2 MSTORE PUSH1 0x4 ADD PUSH2 0x5F0A SWAP2 SWAP1 PUSH2 0x6F85 JUMP JUMPDEST PUSH1 0x20 PUSH1 0x40 MLOAD DUP1 DUP4 SUB DUP2 DUP7 GAS STATICCALL ISZERO DUP1 ISZERO PUSH2 0x5F27 JUMPI RETURNDATASIZE PUSH1 0x0 DUP1 RETURNDATACOPY RETURNDATASIZE PUSH1 0x0 REVERT JUMPDEST POP POP POP POP PUSH1 0x40 MLOAD RETURNDATASIZE PUSH1 0x1F NOT PUSH1 0x1F DUP3 ADD AND DUP3 ADD DUP1 PUSH1 0x40 MSTORE POP DUP2 ADD SWAP1 PUSH2 0x5F4B SWAP2 SWAP1 PUSH2 0x7642 JUMP JUMPDEST SWAP1 POP PUSH1 0x2 DUP10 DUP2 SLOAD DUP2 LT PUSH2 0x5F61 JUMPI PUSH2 0x5F60 PUSH2 0x7544 JUMP JUMPDEST JUMPDEST SWAP1 PUSH1 0x0 MSTORE PUSH1 0x20 PUSH1 0x0 KECCAK256 SWAP1 PUSH1 0x4 MUL ADD PUSH1 0x1 ADD PUSH1 0x0 SWAP1 SLOAD SWAP1 PUSH2 0x100 EXP SWAP1 DIV PUSH14 0xFFFFFFFFFFFFFFFFFFFFFFFFFFFF AND PUSH14 0xFFFFFFFFFFFFFFFFFFFFFFFFFFFF AND DUP2 EQ PUSH1 0x40 MLOAD DUP1 PUSH1 0x40 ADD PUSH1 0x40 MSTORE DUP1 PUSH1 0x1 DUP2 MSTORE PUSH1 0x20 ADD PUSH32 0x4600000000000000000000000000000000000000000000000000000000000000 DUP2 MSTORE POP SWAP1 PUSH2 0x6016 JUMPI PUSH1 0x40 MLOAD PUSH32 0x8C379A000000000000000000000000000000000000000000000000000000000 DUP2 MSTORE PUSH1 0x4 ADD PUSH2 0x600D SWAP2 SWAP1 PUSH2 0x7522 JUMP JUMPDEST PUSH1 0x40 MLOAD DUP1 SWAP2 SUB SWAP1 REVERT JUMPDEST POP DUP4 SWAP10 POP POP POP POP POP POP POP POP POP POP SWAP4 SWAP3 POP POP POP JUMP JUMPDEST PUSH1 0x0 DUP1 PUSH1 0x3 PUSH1 0x0 DUP7 PUSH20 0xFFFFFFFFFFFFFFFFFFFFFFFFFFFFFFFFFFFFFFFF AND PUSH20 0xFFFFFFFFFFFFFFFFFFFFFFFFFFFFFFFFFFFFFFFF AND DUP2 MSTORE PUSH1 0x20 ADD SWAP1 DUP2 MSTORE PUSH1 0x20 ADD PUSH1 0x0 KECCAK256 SLOAD SWAP1 POP PUSH1 0x0 DUP6 PUSH20 0xFFFFFFFFFFFFFFFFFFFFFFFFFFFFFFFFFFFFFFFF AND PUSH4 0x70A08231 ADDRESS PUSH1 0x40 MLOAD DUP3 PUSH4 0xFFFFFFFF AND PUSH1 0xE0 SHL DUP2 MSTORE PUSH1 0x4 ADD PUSH2 0x60AA SWAP2 SWAP1 PUSH2 0x6F85 JUMP JUMPDEST PUSH1 0x20 PUSH1 0x40 MLOAD DUP1 DUP4 SUB DUP2 DUP7 GAS STATICCALL ISZERO DUP1 ISZERO PUSH2 0x60C7 JUMPI RETURNDATASIZE PUSH1 0x0 DUP1 RETURNDATACOPY RETURNDATASIZE PUSH1 0x0 REVERT JUMPDEST POP POP POP POP PUSH1 0x40 MLOAD RETURNDATASIZE PUSH1 0x1F NOT PUSH1 0x1F DUP3 ADD AND DUP3 ADD DUP1 PUSH1 0x40 MSTORE POP DUP2 ADD SWAP1 PUSH2 0x60EB SWAP2 SWAP1 PUSH2 0x7642 JUMP JUMPDEST SWAP1 POP PUSH1 0x0 PUSH1 0x2 DUP4 DUP2 SLOAD DUP2 LT PUSH2 0x6103 JUMPI PUSH2 0x6102 PUSH2 0x7544 JUMP JUMPDEST JUMPDEST SWAP1 PUSH1 0x0 MSTORE PUSH1 0x20 PUSH1 0x0 KECCAK256 SWAP1 PUSH1 0x4 MUL ADD PUSH1 0x1 ADD PUSH1 0x0 SWAP1 SLOAD SWAP1 PUSH2 0x100 EXP SWAP1 DIV PUSH14 0xFFFFFFFFFFFFFFFFFFFFFFFFFFFF AND PUSH14 0xFFFFFFFFFFFFFFFFFFFFFFFFFFFF AND DUP3 PUSH2 0x614A SWAP2 SWAP1 PUSH2 0x7859 JUMP JUMPDEST SWAP1 POP PUSH1 0x0 DUP2 GT PUSH1 0x40 MLOAD DUP1 PUSH1 0x40 ADD PUSH1 0x40 MSTORE DUP1 PUSH1 0x1 DUP2 MSTORE PUSH1 0x20 ADD PUSH32 0x5A00000000000000000000000000000000000000000000000000000000000000 DUP2 MSTORE POP SWAP1 PUSH2 0x61C7 JUMPI PUSH1 0x40 MLOAD PUSH32 0x8C379A000000000000000000000000000000000000000000000000000000000 DUP2 MSTORE PUSH1 0x4 ADD PUSH2 0x61BE SWAP2 SWAP1 PUSH2 0x7522 JUMP JUMPDEST PUSH1 0x40 MLOAD DUP1 SWAP2 SUB SWAP1 REVERT JUMPDEST POP PUSH1 0x0 PUSH20 0x4D7000CC826349A872757D82B3E0F68A713B3C5 PUSH20 0xFFFFFFFFFFFFFFFFFFFFFFFFFFFFFFFFFFFFFFFF AND PUSH4 0x70A08231 ADDRESS PUSH1 0x40 MLOAD DUP3 PUSH4 0xFFFFFFFF AND PUSH1 0xE0 SHL DUP2 MSTORE PUSH1 0x4 ADD PUSH2 0x6217 SWAP2 SWAP1 PUSH2 0x6F85 JUMP JUMPDEST PUSH1 0x20 PUSH1 0x40 MLOAD DUP1 DUP4 SUB DUP2 DUP7 GAS STATICCALL ISZERO DUP1 ISZERO PUSH2 0x6234 JUMPI RETURNDATASIZE PUSH1 0x0 DUP1 RETURNDATACOPY RETURNDATASIZE PUSH1 0x0 REVERT JUMPDEST POP POP POP POP PUSH1 0x40 MLOAD RETURNDATASIZE PUSH1 0x1F NOT PUSH1 0x1F DUP3 ADD AND DUP3 ADD DUP1 PUSH1 0x40 MSTORE POP DUP2 ADD SWAP1 PUSH2 0x6258 SWAP2 SWAP1 PUSH2 0x7642 JUMP JUMPDEST SWAP1 POP PUSH1 0x0 PUSH1 0x4 SLOAD DUP3 PUSH2 0x626A SWAP2 SWAP1 PUSH2 0x7859 JUMP JUMPDEST SWAP1 POP PUSH1 0x0 PUSH2 0x6278 DUP7 DUP6 PUSH2 0x2611 JUMP JUMPDEST SWAP1 POP DUP9 DUP2 LT ISZERO PUSH1 0x40 MLOAD DUP1 PUSH1 0x40 ADD PUSH1 0x40 MSTORE DUP1 PUSH1 0x1 DUP2 MSTORE PUSH1 0x20 ADD PUSH32 0x4D00000000000000000000000000000000000000000000000000000000000000 DUP2 MSTORE POP SWAP1 PUSH2 0x62F5 JUMPI PUSH1 0x40 MLOAD PUSH32 0x8C379A000000000000000000000000000000000000000000000000000000000 DUP2 MSTORE PUSH1 0x4 ADD PUSH2 0x62EC SWAP2 SWAP1 PUSH2 0x7522 JUMP JUMPDEST PUSH1 0x40 MLOAD DUP1 SWAP2 SUB SWAP1 REVERT JUMPDEST POP DUP1 DUP3 PUSH1 0x4 SLOAD PUSH2 0x6305 SWAP2 SWAP1 PUSH2 0x7701 JUMP JUMPDEST PUSH2 0x630F SWAP2 SWAP1 PUSH2 0x7859 JUMP JUMPDEST PUSH1 0x4 DUP2 SWAP1 SSTORE POP DUP1 DUP3 PUSH1 0x2 DUP9 DUP2 SLOAD DUP2 LT PUSH2 0x632B JUMPI PUSH2 0x632A PUSH2 0x7544 JUMP JUMPDEST JUMPDEST SWAP1 PUSH1 0x0 MSTORE PUSH1 0x20 PUSH1 0x0 KECCAK256 SWAP1 PUSH1 0x4 MUL ADD PUSH1 0x1 ADD PUSH1 0xE SWAP1 SLOAD SWAP1 PUSH2 0x100 EXP SWAP1 DIV PUSH14 0xFFFFFFFFFFFFFFFFFFFFFFFFFFFF AND PUSH2 0x6361 SWAP2 SWAP1 PUSH2 0x791E JUMP JUMPDEST PUSH2 0x636B SWAP2 SWAP1 PUSH2 0x7962 JUMP JUMPDEST PUSH1 0x2 DUP8 DUP2 SLOAD DUP2 LT PUSH2 0x637F JUMPI PUSH2 0x637E PUSH2 0x7544 JUMP JUMPDEST JUMPDEST SWAP1 PUSH1 0x0 MSTORE PUSH1 0x20 PUSH1 0x0 KECCAK256 SWAP1 PUSH1 0x4 MUL ADD PUSH1 0x1 ADD PUSH1 0xE PUSH2 0x100 EXP DUP2 SLOAD DUP2 PUSH14 0xFFFFFFFFFFFFFFFFFFFFFFFFFFFF MUL NOT AND SWAP1 DUP4 PUSH14 0xFFFFFFFFFFFFFFFFFFFFFFFFFFFF AND MUL OR SWAP1 SSTORE POP DUP5 PUSH1 0x2 DUP8 DUP2 SLOAD DUP2 LT PUSH2 0x63D7 JUMPI PUSH2 0x63D6 PUSH2 0x7544 JUMP JUMPDEST JUMPDEST SWAP1 PUSH1 0x0 MSTORE PUSH1 0x20 PUSH1 0x0 KECCAK256 SWAP1 PUSH1 0x4 MUL ADD PUSH1 0x1 ADD PUSH1 0x0 PUSH2 0x100 EXP DUP2 SLOAD DUP2 PUSH14 0xFFFFFFFFFFFFFFFFFFFFFFFFFFFF MUL NOT AND SWAP1 DUP4 PUSH14 0xFFFFFFFFFFFFFFFFFFFFFFFFFFFF AND MUL OR SWAP1 SSTORE POP PUSH1 0x0 PUSH2 0x6424 PUSH2 0x1F4A JUMP JUMPDEST SWAP1 POP PUSH1 0x0 PUSH1 0x8 PUSH1 0x1 DUP4 PUSH2 0x6437 SWAP2 SWAP1 PUSH2 0x7701 JUMP JUMPDEST PUSH2 0x6441 SWAP2 SWAP1 PUSH2 0x7786 JUMP JUMPDEST SWAP1 POP PUSH8 0xDE0B6B3A7640000 DUP4 DUP2 PUSH2 0x645B JUMPI PUSH2 0x645A PUSH2 0x7757 JUMP JUMPDEST JUMPDEST DIV PUSH1 0x2 DUP10 DUP2 SLOAD DUP2 LT PUSH2 0x6470 JUMPI PUSH2 0x646F PUSH2 0x7544 JUMP JUMPDEST JUMPDEST SWAP1 PUSH1 0x0 MSTORE PUSH1 0x20 PUSH1 0x0 KECCAK256 SWAP1 PUSH1 0x4 MUL ADD PUSH1 0x3 ADD DUP4 PUSH1 0x8 DUP2 LT PUSH2 0x6493 JUMPI PUSH2 0x6492 PUSH2 0x7544 JUMP JUMPDEST JUMPDEST PUSH1 0x8 SWAP2 DUP3 DUP3 DIV ADD SWAP2 SWAP1 MOD PUSH1 0x4 MUL DUP3 DUP3 DUP3 SWAP1 SLOAD SWAP1 PUSH2 0x100 EXP SWAP1 DIV PUSH4 0xFFFFFFFF AND ADD SWAP3 POP PUSH2 0x100 EXP DUP2 SLOAD DUP2 PUSH4 0xFFFFFFFF MUL NOT AND SWAP1 DUP4 PUSH4 0xFFFFFFFF AND MUL OR SWAP1 SSTORE POP PUSH1 0x0 PUSH1 0x2 DUP10 DUP2 SLOAD DUP2 LT PUSH2 0x64E7 JUMPI PUSH2 0x64E6 PUSH2 0x7544 JUMP JUMPDEST JUMPDEST SWAP1 PUSH1 0x0 MSTORE PUSH1 0x20 PUSH1 0x0 KECCAK256 SWAP1 PUSH1 0x4 MUL ADD PUSH1 0x3 ADD DUP3 PUSH1 0x8 DUP2 LT PUSH2 0x650A JUMPI PUSH2 0x6509 PUSH2 0x7544 JUMP JUMPDEST JUMPDEST PUSH1 0x8 SWAP2 DUP3 DUP3 DIV ADD SWAP2 SWAP1 MOD PUSH1 0x4 MUL SWAP1 SLOAD SWAP1 PUSH2 0x100 EXP SWAP1 DIV PUSH4 0xFFFFFFFF AND PUSH4 0xFFFFFFFF AND GT ISZERO PUSH2 0x6595 JUMPI PUSH1 0x0 PUSH1 0x2 DUP10 DUP2 SLOAD DUP2 LT PUSH2 0x6548 JUMPI PUSH2 0x6547 PUSH2 0x7544 JUMP JUMPDEST JUMPDEST SWAP1 PUSH1 0x0 MSTORE PUSH1 0x20 PUSH1 0x0 KECCAK256 SWAP1 PUSH1 0x4 MUL ADD PUSH1 0x3 ADD DUP3 PUSH1 0x8 DUP2 LT PUSH2 0x656B JUMPI PUSH2 0x656A PUSH2 0x7544 JUMP JUMPDEST JUMPDEST PUSH1 0x8 SWAP2 DUP3 DUP3 DIV ADD SWAP2 SWAP1 MOD PUSH1 0x4 MUL PUSH2 0x100 EXP DUP2 SLOAD DUP2 PUSH4 0xFFFFFFFF MUL NOT AND SWAP1 DUP4 PUSH4 0xFFFFFFFF AND MUL OR SWAP1 SSTORE POP JUMPDEST PUSH1 0x0 PUSH20 0xFFFFFFFFFFFFFFFFFFFFFFFFFFFFFFFFFFFFFFFF AND DUP11 PUSH20 0xFFFFFFFFFFFFFFFFFFFFFFFFFFFFFFFFFFFFFFFF AND EQ PUSH2 0x665D JUMPI PUSH20 0x4D7000CC826349A872757D82B3E0F68A713B3C5 PUSH20 0xFFFFFFFFFFFFFFFFFFFFFFFFFFFFFFFFFFFFFFFF AND PUSH4 0xA9059CBB DUP12 DUP6 PUSH1 0x40 MLOAD DUP4 PUSH4 0xFFFFFFFF AND PUSH1 0xE0 SHL DUP2 MSTORE PUSH1 0x4 ADD PUSH2 0x6618 SWAP3 SWAP2 SWAP1 PUSH2 0x78BE JUMP JUMPDEST PUSH1 0x20 PUSH1 0x40 MLOAD DUP1 DUP4 SUB DUP2 PUSH1 0x0 DUP8 GAS CALL ISZERO DUP1 ISZERO PUSH2 0x6637 JUMPI RETURNDATASIZE PUSH1 0x0 DUP1 RETURNDATACOPY RETURNDATASIZE PUSH1 0x0 REVERT JUMPDEST POP POP POP POP PUSH1 0x40 MLOAD RETURNDATASIZE PUSH1 0x1F NOT PUSH1 0x1F DUP3 ADD AND DUP3 ADD DUP1 PUSH1 0x40 MSTORE POP DUP2 ADD SWAP1 PUSH2 0x665B SWAP2 SWAP1 PUSH2 0x7BCC JUMP JUMPDEST POP JUMPDEST DUP3 SWAP9 POP POP POP POP POP POP POP POP POP SWAP4 SWAP3 POP POP POP JUMP JUMPDEST PUSH2 0x6679 DUP3 DUP3 PUSH2 0x1C2A JUMP JUMPDEST ISZERO PUSH2 0x674C JUMPI PUSH1 0x0 DUP1 PUSH1 0x0 DUP5 DUP2 MSTORE PUSH1 0x20 ADD SWAP1 DUP2 MSTORE PUSH1 0x20 ADD PUSH1 0x0 KECCAK256 PUSH1 0x0 ADD PUSH1 0x0 DUP4 PUSH20 0xFFFFFFFFFFFFFFFFFFFFFFFFFFFFFFFFFFFFFFFF AND PUSH20 0xFFFFFFFFFFFFFFFFFFFFFFFFFFFFFFFFFFFFFFFF AND DUP2 MSTORE PUSH1 0x20 ADD SWAP1 DUP2 MSTORE PUSH1 0x20 ADD PUSH1 0x0 KECCAK256 PUSH1 0x0 PUSH2 0x100 EXP DUP2 SLOAD DUP2 PUSH1 0xFF MUL NOT AND SWAP1 DUP4 ISZERO ISZERO MUL OR SWAP1 SSTORE POP PUSH2 0x66F1 PUSH2 0x4087 JUMP JUMPDEST PUSH20 0xFFFFFFFFFFFFFFFFFFFFFFFFFFFFFFFFFFFFFFFF AND DUP2 PUSH20 0xFFFFFFFFFFFFFFFFFFFFFFFFFFFFFFFFFFFFFFFF AND DUP4 PUSH32 0xF6391F5C32D9C69D2A47EA670B442974B53935D1EDC7FD64EB21E047A839171B PUSH1 0x40 MLOAD PUSH1 0x40 MLOAD DUP1 SWAP2 SUB SWAP1 LOG4 JUMPDEST POP POP JUMP JUMPDEST PUSH1 0x0 PUSH2 0x6778 DUP4 PUSH1 0x0 ADD DUP4 PUSH20 0xFFFFFFFFFFFFFFFFFFFFFFFFFFFFFFFFFFFFFFFF AND PUSH1 0x0 SHL PUSH2 0x68A6 JUMP JUMPDEST SWAP1 POP SWAP3 SWAP2 POP POP JUMP JUMPDEST PUSH1 0x0 DUP3 PUSH1 0x0 ADD DUP3 DUP2 SLOAD DUP2 LT PUSH2 0x6798 JUMPI PUSH2 0x6797 PUSH2 0x7544 JUMP JUMPDEST JUMPDEST SWAP1 PUSH1 0x0 MSTORE PUSH1 0x20 PUSH1 0x0 KECCAK256 ADD SLOAD SWAP1 POP SWAP3 SWAP2 POP POP JUMP JUMPDEST PUSH1 0x0 DUP2 PUSH1 0x0 ADD DUP1 SLOAD SWAP1 POP SWAP1 POP SWAP2 SWAP1 POP JUMP JUMPDEST PUSH1 0x0 PUSH2 0x681E DUP3 PUSH1 0x40 MLOAD DUP1 PUSH1 0x40 ADD PUSH1 0x40 MSTORE DUP1 PUSH1 0x20 DUP2 MSTORE PUSH1 0x20 ADD PUSH32 0x5361666545524332303A206C6F772D6C6576656C2063616C6C206661696C6564 DUP2 MSTORE POP DUP6 PUSH20 0xFFFFFFFFFFFFFFFFFFFFFFFFFFFFFFFFFFFFFFFF AND PUSH2 0x69BA SWAP1 SWAP3 SWAP2 SWAP1 PUSH4 0xFFFFFFFF AND JUMP JUMPDEST SWAP1 POP PUSH1 0x0 DUP2 MLOAD GT ISZERO PUSH2 0x687E JUMPI DUP1 DUP1 PUSH1 0x20 ADD SWAP1 MLOAD DUP2 ADD SWAP1 PUSH2 0x683E SWAP2 SWAP1 PUSH2 0x7BCC JUMP JUMPDEST PUSH2 0x687D JUMPI PUSH1 0x40 MLOAD PUSH32 0x8C379A000000000000000000000000000000000000000000000000000000000 DUP2 MSTORE PUSH1 0x4 ADD PUSH2 0x6874 SWAP1 PUSH2 0x7C6B JUMP JUMPDEST PUSH1 0x40 MLOAD DUP1 SWAP2 SUB SWAP1 REVERT JUMPDEST JUMPDEST POP POP POP JUMP JUMPDEST PUSH1 0x0 DUP1 DUP4 PUSH1 0x1 ADD PUSH1 0x0 DUP5 DUP2 MSTORE PUSH1 0x20 ADD SWAP1 DUP2 MSTORE PUSH1 0x20 ADD PUSH1 0x0 KECCAK256 SLOAD EQ ISZERO SWAP1 POP SWAP3 SWAP2 POP POP JUMP JUMPDEST PUSH1 0x0 DUP1 DUP4 PUSH1 0x1 ADD PUSH1 0x0 DUP5 DUP2 MSTORE PUSH1 0x20 ADD SWAP1 DUP2 MSTORE PUSH1 0x20 ADD PUSH1 0x0 KECCAK256 SLOAD SWAP1 POP PUSH1 0x0 DUP2 EQ PUSH2 0x69AE JUMPI PUSH1 0x0 PUSH1 0x1 DUP3 PUSH2 0x68D8 SWAP2 SWAP1 PUSH2 0x7859 JUMP JUMPDEST SWAP1 POP PUSH1 0x0 PUSH1 0x1 DUP7 PUSH1 0x0 ADD DUP1 SLOAD SWAP1 POP PUSH2 0x68F0 SWAP2 SWAP1 PUSH2 0x7859 JUMP JUMPDEST SWAP1 POP DUP2 DUP2 EQ PUSH2 0x695F JUMPI PUSH1 0x0 DUP7 PUSH1 0x0 ADD DUP3 DUP2 SLOAD DUP2 LT PUSH2 0x6911 JUMPI PUSH2 0x6910 PUSH2 0x7544 JUMP JUMPDEST JUMPDEST SWAP1 PUSH1 0x0 MSTORE PUSH1 0x20 PUSH1 0x0 KECCAK256 ADD SLOAD SWAP1 POP DUP1 DUP8 PUSH1 0x0 ADD DUP5 DUP2 SLOAD DUP2 LT PUSH2 0x6935 JUMPI PUSH2 0x6934 PUSH2 0x7544 JUMP JUMPDEST JUMPDEST SWAP1 PUSH1 0x0 MSTORE PUSH1 0x20 PUSH1 0x0 KECCAK256 ADD DUP2 SWAP1 SSTORE POP DUP4 DUP8 PUSH1 0x1 ADD PUSH1 0x0 DUP4 DUP2 MSTORE PUSH1 0x20 ADD SWAP1 DUP2 MSTORE PUSH1 0x20 ADD PUSH1 0x0 KECCAK256 DUP2 SWAP1 SSTORE POP POP JUMPDEST DUP6 PUSH1 0x0 ADD DUP1 SLOAD DUP1 PUSH2 0x6973 JUMPI PUSH2 0x6972 PUSH2 0x7C8B JUMP JUMPDEST JUMPDEST PUSH1 0x1 SWAP1 SUB DUP2 DUP2 SWAP1 PUSH1 0x0 MSTORE PUSH1 0x20 PUSH1 0x0 KECCAK256 ADD PUSH1 0x0 SWAP1 SSTORE SWAP1 SSTORE DUP6 PUSH1 0x1 ADD PUSH1 0x0 DUP7 DUP2 MSTORE PUSH1 0x20 ADD SWAP1 DUP2 MSTORE PUSH1 0x20 ADD PUSH1 0x0 KECCAK256 PUSH1 0x0 SWAP1 SSTORE PUSH1 0x1 SWAP4 POP POP POP POP PUSH2 0x69B4 JUMP JUMPDEST PUSH1 0x0 SWAP2 POP POP JUMPDEST SWAP3 SWAP2 POP POP JUMP JUMPDEST PUSH1 0x60 PUSH2 0x69C9 DUP5 DUP5 PUSH1 0x0 DUP6 PUSH2 0x69D2 JUMP JUMPDEST SWAP1 POP SWAP4 SWAP3 POP POP POP JUMP JUMPDEST PUSH1 0x60 DUP3 SELFBALANCE LT ISZERO PUSH2 0x6A17 JUMPI PUSH1 0x40 MLOAD PUSH32 0x8C379A000000000000000000000000000000000000000000000000000000000 DUP2 MSTORE PUSH1 0x4 ADD PUSH2 0x6A0E SWAP1 PUSH2 0x7D2C JUMP JUMPDEST PUSH1 0x40 MLOAD DUP1 SWAP2 SUB SWAP1 REVERT JUMPDEST PUSH2 0x6A20 DUP6 PUSH2 0x6AE6 JUMP JUMPDEST PUSH2 0x6A5F JUMPI PUSH1 0x40 MLOAD PUSH32 0x8C379A000000000000000000000000000000000000000000000000000000000 DUP2 MSTORE PUSH1 0x4 ADD PUSH2 0x6A56 SWAP1 PUSH2 0x7D98 JUMP JUMPDEST PUSH1 0x40 MLOAD DUP1 SWAP2 SUB SWAP1 REVERT JUMPDEST PUSH1 0x0 DUP1 DUP7 PUSH20 0xFFFFFFFFFFFFFFFFFFFFFFFFFFFFFFFFFFFFFFFF AND DUP6 DUP8 PUSH1 0x40 MLOAD PUSH2 0x6A88 SWAP2 SWAP1 PUSH2 0x7DFF JUMP JUMPDEST PUSH1 0x0 PUSH1 0x40 MLOAD DUP1 DUP4 SUB DUP2 DUP6 DUP8 GAS CALL SWAP3 POP POP POP RETURNDATASIZE DUP1 PUSH1 0x0 DUP2 EQ PUSH2 0x6AC5 JUMPI PUSH1 0x40 MLOAD SWAP2 POP PUSH1 0x1F NOT PUSH1 0x3F RETURNDATASIZE ADD AND DUP3 ADD PUSH1 0x40 MSTORE RETURNDATASIZE DUP3 MSTORE RETURNDATASIZE PUSH1 0x0 PUSH1 0x20 DUP5 ADD RETURNDATACOPY PUSH2 0x6ACA JUMP JUMPDEST PUSH1 0x60 SWAP2 POP JUMPDEST POP SWAP2 POP SWAP2 POP PUSH2 0x6ADA DUP3 DUP3 DUP7 PUSH2 0x6AF9 JUMP JUMPDEST SWAP3 POP POP POP SWAP5 SWAP4 POP POP POP POP JUMP JUMPDEST PUSH1 0x0 DUP1 DUP3 EXTCODESIZE SWAP1 POP PUSH1 0x0 DUP2 GT SWAP2 POP POP SWAP2 SWAP1 POP JUMP JUMPDEST PUSH1 0x60 DUP4 ISZERO PUSH2 0x6B09 JUMPI DUP3 SWAP1 POP PUSH2 0x6B59 JUMP JUMPDEST PUSH1 0x0 DUP4 MLOAD GT ISZERO PUSH2 0x6B1C JUMPI DUP3 MLOAD DUP1 DUP5 PUSH1 0x20 ADD REVERT JUMPDEST DUP2 PUSH1 0x40 MLOAD PUSH32 0x8C379A000000000000000000000000000000000000000000000000000000000 DUP2 MSTORE PUSH1 0x4 ADD PUSH2 0x6B50 SWAP2 SWAP1 PUSH2 0x7522 JUMP JUMPDEST PUSH1 0x40 MLOAD DUP1 SWAP2 SUB SWAP1 REVERT JUMPDEST SWAP4 SWAP3 POP POP POP JUMP JUMPDEST PUSH1 0x40 MLOAD DUP1 PUSH1 0xA0 ADD PUSH1 0x40 MSTORE DUP1 PUSH1 0x0 PUSH20 0xFFFFFFFFFFFFFFFFFFFFFFFFFFFFFFFFFFFFFFFF AND DUP2 MSTORE PUSH1 0x20 ADD PUSH1 0x0 PUSH14 0xFFFFFFFFFFFFFFFFFFFFFFFFFFFF AND DUP2 MSTORE PUSH1 0x20 ADD PUSH1 0x0 PUSH14 0xFFFFFFFFFFFFFFFFFFFFFFFFFFFF AND DUP2 MSTORE PUSH1 0x20 ADD PUSH1 0x0 PUSH14 0xFFFFFFFFFFFFFFFFFFFFFFFFFFFF AND DUP2 MSTORE PUSH1 0x20 ADD PUSH2 0x6BD5 PUSH2 0x6BDB JUMP JUMPDEST DUP2 MSTORE POP SWAP1 JUMP JUMPDEST PUSH1 0x40 MLOAD DUP1 PUSH2 0x100 ADD PUSH1 0x40 MSTORE DUP1 PUSH1 0x8 SWAP1 PUSH1 0x20 DUP3 MUL DUP1 CALLDATASIZE DUP4 CALLDATACOPY DUP1 DUP3 ADD SWAP2 POP POP SWAP1 POP POP SWAP1 JUMP JUMPDEST DUP3 PUSH1 0x8 PUSH1 0x7 ADD PUSH1 0x8 SWAP1 DIV DUP2 ADD SWAP3 DUP3 ISZERO PUSH2 0x6C90 JUMPI SWAP2 PUSH1 0x20 MUL DUP3 ADD PUSH1 0x0 JUMPDEST DUP4 DUP3 GT ISZERO PUSH2 0x6C5E JUMPI DUP4 MLOAD DUP4 DUP3 PUSH2 0x100 EXP DUP2 SLOAD DUP2 PUSH4 0xFFFFFFFF MUL NOT AND SWAP1 DUP4 PUSH4 0xFFFFFFFF AND MUL OR SWAP1 SSTORE POP SWAP3 PUSH1 0x20 ADD SWAP3 PUSH1 0x4 ADD PUSH1 0x20 DUP2 PUSH1 0x3 ADD DIV SWAP3 DUP4 ADD SWAP3 PUSH1 0x1 SUB MUL PUSH2 0x6C1A JUMP JUMPDEST DUP1 ISZERO PUSH2 0x6C8E JUMPI DUP3 DUP2 PUSH2 0x100 EXP DUP2 SLOAD SWAP1 PUSH4 0xFFFFFFFF MUL NOT AND SWAP1 SSTORE PUSH1 0x4 ADD PUSH1 0x20 DUP2 PUSH1 0x3 ADD DIV SWAP3 DUP4 ADD SWAP3 PUSH1 0x1 SUB MUL PUSH2 0x6C5E JUMP JUMPDEST POP JUMPDEST POP SWAP1 POP PUSH2 0x6C9D SWAP2 SWAP1 PUSH2 0x6CA1 JUMP JUMPDEST POP SWAP1 JUMP JUMPDEST JUMPDEST DUP1 DUP3 GT ISZERO PUSH2 0x6CBA JUMPI PUSH1 0x0 DUP2 PUSH1 0x0 SWAP1 SSTORE POP PUSH1 0x1 ADD PUSH2 0x6CA2 JUMP JUMPDEST POP SWAP1 JUMP JUMPDEST PUSH1 0x0 DUP1 REVERT JUMPDEST PUSH1 0x0 DUP1 REVERT JUMPDEST PUSH1 0x0 PUSH32 0xFFFFFFFF00000000000000000000000000000000000000000000000000000000 DUP3 AND SWAP1 POP SWAP2 SWAP1 POP JUMP JUMPDEST PUSH2 0x6CFD DUP2 PUSH2 0x6CC8 JUMP JUMPDEST DUP2 EQ PUSH2 0x6D08 JUMPI PUSH1 0x0 DUP1 REVERT JUMPDEST POP JUMP JUMPDEST PUSH1 0x0 DUP2 CALLDATALOAD SWAP1 POP PUSH2 0x6D1A DUP2 PUSH2 0x6CF4 JUMP JUMPDEST SWAP3 SWAP2 POP POP JUMP JUMPDEST PUSH1 0x0 PUSH1 0x20 DUP3 DUP5 SUB SLT ISZERO PUSH2 0x6D36 JUMPI PUSH2 0x6D35 PUSH2 0x6CBE JUMP JUMPDEST JUMPDEST PUSH1 0x0 PUSH2 0x6D44 DUP5 DUP3 DUP6 ADD PUSH2 0x6D0B JUMP JUMPDEST SWAP2 POP POP SWAP3 SWAP2 POP POP JUMP JUMPDEST PUSH1 0x0 DUP2 ISZERO ISZERO SWAP1 POP SWAP2 SWAP1 POP JUMP JUMPDEST PUSH2 0x6D62 DUP2 PUSH2 0x6D4D JUMP JUMPDEST DUP3 MSTORE POP POP JUMP JUMPDEST PUSH1 0x0 PUSH1 0x20 DUP3 ADD SWAP1 POP PUSH2 0x6D7D PUSH1 0x0 DUP4 ADD DUP5 PUSH2 0x6D59 JUMP JUMPDEST SWAP3 SWAP2 POP POP JUMP JUMPDEST PUSH1 0x0 PUSH20 0xFFFFFFFFFFFFFFFFFFFFFFFFFFFFFFFFFFFFFFFF DUP3 AND SWAP1 POP SWAP2 SWAP1 POP JUMP JUMPDEST PUSH1 0x0 PUSH2 0x6DAE DUP3 PUSH2 0x6D83 JUMP JUMPDEST SWAP1 POP SWAP2 SWAP1 POP JUMP JUMPDEST PUSH2 0x6DBE DUP2 PUSH2 0x6DA3 JUMP JUMPDEST DUP2 EQ PUSH2 0x6DC9 JUMPI PUSH1 0x0 DUP1 REVERT JUMPDEST POP JUMP JUMPDEST PUSH1 0x0 DUP2 CALLDATALOAD SWAP1 POP PUSH2 0x6DDB DUP2 PUSH2 0x6DB5 JUMP JUMPDEST SWAP3 SWAP2 POP POP JUMP JUMPDEST PUSH1 0x0 DUP2 SWAP1 POP SWAP2 SWAP1 POP JUMP JUMPDEST PUSH2 0x6DF4 DUP2 PUSH2 0x6DE1 JUMP JUMPDEST DUP2 EQ PUSH2 0x6DFF JUMPI PUSH1 0x0 DUP1 REVERT JUMPDEST POP JUMP JUMPDEST PUSH1 0x0 DUP2 CALLDATALOAD SWAP1 POP PUSH2 0x6E11 DUP2 PUSH2 0x6DEB JUMP JUMPDEST SWAP3 SWAP2 POP POP JUMP JUMPDEST PUSH1 0x0 DUP1 PUSH1 0x0 PUSH1 0x60 DUP5 DUP7 SUB SLT ISZERO PUSH2 0x6E30 JUMPI PUSH2 0x6E2F PUSH2 0x6CBE JUMP JUMPDEST JUMPDEST PUSH1 0x0 PUSH2 0x6E3E DUP7 DUP3 DUP8 ADD PUSH2 0x6DCC JUMP JUMPDEST SWAP4 POP POP PUSH1 0x20 PUSH2 0x6E4F DUP7 DUP3 DUP8 ADD PUSH2 0x6E02 JUMP JUMPDEST SWAP3 POP POP PUSH1 0x40 PUSH2 0x6E60 DUP7 DUP3 DUP8 ADD PUSH2 0x6DCC JUMP JUMPDEST SWAP2 POP POP SWAP3 POP SWAP3 POP SWAP3 JUMP JUMPDEST PUSH1 0x0 DUP1 REVERT JUMPDEST PUSH1 0x0 DUP1 REVERT JUMPDEST PUSH1 0x0 DUP1 REVERT JUMPDEST PUSH1 0x0 DUP1 DUP4 PUSH1 0x1F DUP5 ADD SLT PUSH2 0x6E8F JUMPI PUSH2 0x6E8E PUSH2 0x6E6A JUMP JUMPDEST JUMPDEST DUP3 CALLDATALOAD SWAP1 POP PUSH8 0xFFFFFFFFFFFFFFFF DUP2 GT ISZERO PUSH2 0x6EAC JUMPI PUSH2 0x6EAB PUSH2 0x6E6F JUMP JUMPDEST JUMPDEST PUSH1 0x20 DUP4 ADD SWAP2 POP DUP4 PUSH1 0x40 DUP3 MUL DUP4 ADD GT ISZERO PUSH2 0x6EC8 JUMPI PUSH2 0x6EC7 PUSH2 0x6E74 JUMP JUMPDEST JUMPDEST SWAP3 POP SWAP3 SWAP1 POP JUMP JUMPDEST PUSH1 0x0 DUP1 PUSH1 0x20 DUP4 DUP6 SUB SLT ISZERO PUSH2 0x6EE6 JUMPI PUSH2 0x6EE5 PUSH2 0x6CBE JUMP JUMPDEST JUMPDEST PUSH1 0x0 DUP4 ADD CALLDATALOAD PUSH8 0xFFFFFFFFFFFFFFFF DUP2 GT ISZERO PUSH2 0x6F04 JUMPI PUSH2 0x6F03 PUSH2 0x6CC3 JUMP JUMPDEST JUMPDEST PUSH2 0x6F10 DUP6 DUP3 DUP7 ADD PUSH2 0x6E79 JUMP JUMPDEST SWAP3 POP SWAP3 POP POP SWAP3 POP SWAP3 SWAP1 POP JUMP JUMPDEST PUSH1 0x0 PUSH1 0x20 DUP3 DUP5 SUB SLT ISZERO PUSH2 0x6F32 JUMPI PUSH2 0x6F31 PUSH2 0x6CBE JUMP JUMPDEST JUMPDEST PUSH1 0x0 PUSH2 0x6F40 DUP5 DUP3 DUP6 ADD PUSH2 0x6DCC JUMP JUMPDEST SWAP2 POP POP SWAP3 SWAP2 POP POP JUMP JUMPDEST PUSH1 0x0 PUSH1 0x20 DUP3 DUP5 SUB SLT ISZERO PUSH2 0x6F5F JUMPI PUSH2 0x6F5E PUSH2 0x6CBE JUMP JUMPDEST JUMPDEST PUSH1 0x0 PUSH2 0x6F6D DUP5 DUP3 DUP6 ADD PUSH2 0x6E02 JUMP JUMPDEST SWAP2 POP POP SWAP3 SWAP2 POP POP JUMP JUMPDEST PUSH2 0x6F7F DUP2 PUSH2 0x6DA3 JUMP JUMPDEST DUP3 MSTORE POP POP JUMP JUMPDEST PUSH1 0x0 PUSH1 0x20 DUP3 ADD SWAP1 POP PUSH2 0x6F9A PUSH1 0x0 DUP4 ADD DUP5 PUSH2 0x6F76 JUMP JUMPDEST SWAP3 SWAP2 POP POP JUMP JUMPDEST PUSH1 0x0 DUP1 PUSH1 0x0 DUP1 PUSH1 0x0 PUSH1 0xA0 DUP7 DUP9 SUB SLT ISZERO PUSH2 0x6FBC JUMPI PUSH2 0x6FBB PUSH2 0x6CBE JUMP JUMPDEST JUMPDEST PUSH1 0x0 PUSH2 0x6FCA DUP9 DUP3 DUP10 ADD PUSH2 0x6DCC JUMP JUMPDEST SWAP6 POP POP PUSH1 0x20 PUSH2 0x6FDB DUP9 DUP3 DUP10 ADD PUSH2 0x6E02 JUMP JUMPDEST SWAP5 POP POP PUSH1 0x40 PUSH2 0x6FEC DUP9 DUP3 DUP10 ADD PUSH2 0x6E02 JUMP JUMPDEST SWAP4 POP POP PUSH1 0x60 PUSH2 0x6FFD DUP9 DUP3 DUP10 ADD PUSH2 0x6E02 JUMP JUMPDEST SWAP3 POP POP PUSH1 0x80 PUSH2 0x700E DUP9 DUP3 DUP10 ADD PUSH2 0x6DCC JUMP JUMPDEST SWAP2 POP POP SWAP3 SWAP6 POP SWAP3 SWAP6 SWAP1 SWAP4 POP JUMP JUMPDEST PUSH2 0x7024 DUP2 PUSH2 0x6DE1 JUMP JUMPDEST DUP3 MSTORE POP POP JUMP JUMPDEST PUSH1 0x0 PUSH1 0x20 DUP3 ADD SWAP1 POP PUSH2 0x703F PUSH1 0x0 DUP4 ADD DUP5 PUSH2 0x701B JUMP JUMPDEST SWAP3 SWAP2 POP POP JUMP JUMPDEST PUSH1 0x0 PUSH1 0x60 DUP3 ADD SWAP1 POP PUSH2 0x705A PUSH1 0x0 DUP4 ADD DUP7 PUSH2 0x701B JUMP JUMPDEST PUSH2 0x7067 PUSH1 0x20 DUP4 ADD DUP6 PUSH2 0x701B JUMP JUMPDEST PUSH2 0x7074 PUSH1 0x40 DUP4 ADD DUP5 PUSH2 0x701B JUMP JUMPDEST SWAP5 SWAP4 POP POP POP POP JUMP JUMPDEST PUSH1 0x0 DUP2 SWAP1 POP SWAP2 SWAP1 POP JUMP JUMPDEST PUSH2 0x708F DUP2 PUSH2 0x707C JUMP JUMPDEST DUP2 EQ PUSH2 0x709A JUMPI PUSH1 0x0 DUP1 REVERT JUMPDEST POP JUMP JUMPDEST PUSH1 0x0 DUP2 CALLDATALOAD SWAP1 POP PUSH2 0x70AC DUP2 PUSH2 0x7086 JUMP JUMPDEST SWAP3 SWAP2 POP POP JUMP JUMPDEST PUSH1 0x0 PUSH1 0x20 DUP3 DUP5 SUB SLT ISZERO PUSH2 0x70C8 JUMPI PUSH2 0x70C7 PUSH2 0x6CBE JUMP JUMPDEST JUMPDEST PUSH1 0x0 PUSH2 0x70D6 DUP5 DUP3 DUP6 ADD PUSH2 0x709D JUMP JUMPDEST SWAP2 POP POP SWAP3 SWAP2 POP POP JUMP JUMPDEST PUSH2 0x70E8 DUP2 PUSH2 0x707C JUMP JUMPDEST DUP3 MSTORE POP POP JUMP JUMPDEST PUSH1 0x0 PUSH1 0x20 DUP3 ADD SWAP1 POP PUSH2 0x7103 PUSH1 0x0 DUP4 ADD DUP5 PUSH2 0x70DF JUMP JUMPDEST SWAP3 SWAP2 POP POP JUMP JUMPDEST PUSH1 0x0 DUP1 PUSH1 0x40 DUP4 DUP6 SUB SLT ISZERO PUSH2 0x7120 JUMPI PUSH2 0x711F PUSH2 0x6CBE JUMP JUMPDEST JUMPDEST PUSH1 0x0 PUSH2 0x712E DUP6 DUP3 DUP7 ADD PUSH2 0x709D JUMP JUMPDEST SWAP3 POP POP PUSH1 0x20 PUSH2 0x713F DUP6 DUP3 DUP7 ADD PUSH2 0x6DCC JUMP JUMPDEST SWAP2 POP POP SWAP3 POP SWAP3 SWAP1 POP JUMP JUMPDEST PUSH1 0x0 DUP1 PUSH1 0x40 DUP4 DUP6 SUB SLT ISZERO PUSH2 0x7160 JUMPI PUSH2 0x715F PUSH2 0x6CBE JUMP JUMPDEST JUMPDEST PUSH1 0x0 PUSH2 0x716E DUP6 DUP3 DUP7 ADD PUSH2 0x6E02 JUMP JUMPDEST SWAP3 POP POP PUSH1 0x20 PUSH2 0x717F DUP6 DUP3 DUP7 ADD PUSH2 0x6E02 JUMP JUMPDEST SWAP2 POP POP SWAP3 POP SWAP3 SWAP1 POP JUMP JUMPDEST PUSH2 0x7192 DUP2 PUSH2 0x6DA3 JUMP JUMPDEST DUP3 MSTORE POP POP JUMP JUMPDEST PUSH1 0x0 PUSH14 0xFFFFFFFFFFFFFFFFFFFFFFFFFFFF DUP3 AND SWAP1 POP SWAP2 SWAP1 POP JUMP JUMPDEST PUSH2 0x71BB DUP2 PUSH2 0x7198 JUMP JUMPDEST DUP3 MSTORE POP POP JUMP JUMPDEST PUSH1 0x0 PUSH1 0x8 SWAP1 POP SWAP2 SWAP1 POP JUMP JUMPDEST PUSH1 0x0 DUP2 SWAP1 POP SWAP3 SWAP2 POP POP JUMP JUMPDEST PUSH1 0x0 DUP2 SWAP1 POP SWAP2 SWAP1 POP JUMP JUMPDEST PUSH1 0x0 PUSH4 0xFFFFFFFF DUP3 AND SWAP1 POP SWAP2 SWAP1 POP JUMP JUMPDEST PUSH2 0x71FA DUP2 PUSH2 0x71E1 JUMP JUMPDEST DUP3 MSTORE POP POP JUMP JUMPDEST PUSH1 0x0 PUSH2 0x720C DUP4 DUP4 PUSH2 0x71F1 JUMP JUMPDEST PUSH1 0x20 DUP4 ADD SWAP1 POP SWAP3 SWAP2 POP POP JUMP JUMPDEST PUSH1 0x0 PUSH1 0x20 DUP3 ADD SWAP1 POP SWAP2 SWAP1 POP JUMP JUMPDEST PUSH2 0x722E DUP2 PUSH2 0x71C1 JUMP JUMPDEST PUSH2 0x7238 DUP2 DUP5 PUSH2 0x71CC JUMP JUMPDEST SWAP3 POP PUSH2 0x7243 DUP3 PUSH2 0x71D7 JUMP JUMPDEST DUP1 PUSH1 0x0 JUMPDEST DUP4 DUP2 LT ISZERO PUSH2 0x7274 JUMPI DUP2 MLOAD PUSH2 0x725B DUP8 DUP3 PUSH2 0x7200 JUMP JUMPDEST SWAP7 POP PUSH2 0x7266 DUP4 PUSH2 0x7218 JUMP JUMPDEST SWAP3 POP POP PUSH1 0x1 DUP2 ADD SWAP1 POP PUSH2 0x7247 JUMP JUMPDEST POP POP POP POP POP POP JUMP JUMPDEST PUSH2 0x180 DUP3 ADD PUSH1 0x0 DUP3 ADD MLOAD PUSH2 0x7293 PUSH1 0x0 DUP6 ADD DUP3 PUSH2 0x7189 JUMP JUMPDEST POP PUSH1 0x20 DUP3 ADD MLOAD PUSH2 0x72A6 PUSH1 0x20 DUP6 ADD DUP3 PUSH2 0x71B2 JUMP JUMPDEST POP PUSH1 0x40 DUP3 ADD MLOAD PUSH2 0x72B9 PUSH1 0x40 DUP6 ADD DUP3 PUSH2 0x71B2 JUMP JUMPDEST POP PUSH1 0x60 DUP3 ADD MLOAD PUSH2 0x72CC PUSH1 0x60 DUP6 ADD DUP3 PUSH2 0x71B2 JUMP JUMPDEST POP PUSH1 0x80 DUP3 ADD MLOAD PUSH2 0x72DF PUSH1 0x80 DUP6 ADD DUP3 PUSH2 0x7225 JUMP JUMPDEST POP POP POP POP JUMP JUMPDEST PUSH1 0x0 PUSH2 0x300 DUP3 ADD SWAP1 POP PUSH2 0x72FB PUSH1 0x0 DUP4 ADD DUP6 PUSH2 0x727C JUMP JUMPDEST PUSH2 0x7309 PUSH2 0x180 DUP4 ADD DUP5 PUSH2 0x727C JUMP JUMPDEST SWAP4 SWAP3 POP POP POP JUMP JUMPDEST PUSH1 0x0 DUP1 PUSH1 0x40 DUP4 DUP6 SUB SLT ISZERO PUSH2 0x7327 JUMPI PUSH2 0x7326 PUSH2 0x6CBE JUMP JUMPDEST JUMPDEST PUSH1 0x0 PUSH2 0x7335 DUP6 DUP3 DUP7 ADD PUSH2 0x709D JUMP JUMPDEST SWAP3 POP POP PUSH1 0x20 PUSH2 0x7346 DUP6 DUP3 DUP7 ADD PUSH2 0x6E02 JUMP JUMPDEST SWAP2 POP POP SWAP3 POP SWAP3 SWAP1 POP JUMP JUMPDEST PUSH1 0x0 DUP1 PUSH1 0x0 DUP1 PUSH1 0x0 DUP1 PUSH1 0xC0 DUP8 DUP10 SUB SLT ISZERO PUSH2 0x736D JUMPI PUSH2 0x736C PUSH2 0x6CBE JUMP JUMPDEST JUMPDEST PUSH1 0x0 PUSH2 0x737B DUP10 DUP3 DUP11 ADD PUSH2 0x6DCC JUMP JUMPDEST SWAP7 POP POP PUSH1 0x20 PUSH2 0x738C DUP10 DUP3 DUP11 ADD PUSH2 0x6DCC JUMP JUMPDEST SWAP6 POP POP PUSH1 0x40 PUSH2 0x739D DUP10 DUP3 DUP11 ADD PUSH2 0x6E02 JUMP JUMPDEST SWAP5 POP POP PUSH1 0x60 PUSH2 0x73AE DUP10 DUP3 DUP11 ADD PUSH2 0x6E02 JUMP JUMPDEST SWAP4 POP POP PUSH1 0x80 PUSH2 0x73BF DUP10 DUP3 DUP11 ADD PUSH2 0x6E02 JUMP JUMPDEST SWAP3 POP POP PUSH1 0xA0 PUSH2 0x73D0 DUP10 DUP3 DUP11 ADD PUSH2 0x6DCC JUMP JUMPDEST SWAP2 POP POP SWAP3 SWAP6 POP SWAP3 SWAP6 POP SWAP3 SWAP6 JUMP JUMPDEST PUSH1 0x0 PUSH2 0x180 DUP3 ADD SWAP1 POP PUSH2 0x73F3 PUSH1 0x0 DUP4 ADD DUP5 PUSH2 0x727C JUMP JUMPDEST SWAP3 SWAP2 POP POP JUMP JUMPDEST PUSH1 0x0 DUP1 PUSH1 0x0 DUP1 PUSH1 0x80 DUP6 DUP8 SUB SLT ISZERO PUSH2 0x7413 JUMPI PUSH2 0x7412 PUSH2 0x6CBE JUMP JUMPDEST JUMPDEST PUSH1 0x0 PUSH2 0x7421 DUP8 DUP3 DUP9 ADD PUSH2 0x6DCC JUMP JUMPDEST SWAP5 POP POP PUSH1 0x20 PUSH2 0x7432 DUP8 DUP3 DUP9 ADD PUSH2 0x6E02 JUMP JUMPDEST SWAP4 POP POP PUSH1 0x40 PUSH2 0x7443 DUP8 DUP3 DUP9 ADD PUSH2 0x6E02 JUMP JUMPDEST SWAP3 POP POP PUSH1 0x60 PUSH2 0x7454 DUP8 DUP3 DUP9 ADD PUSH2 0x6DCC JUMP JUMPDEST SWAP2 POP POP SWAP3 SWAP6 SWAP2 SWAP5 POP SWAP3 POP JUMP JUMPDEST PUSH1 0x0 PUSH1 0x40 DUP3 ADD SWAP1 POP PUSH2 0x7475 PUSH1 0x0 DUP4 ADD DUP6 PUSH2 0x701B JUMP JUMPDEST PUSH2 0x7482 PUSH1 0x20 DUP4 ADD DUP5 PUSH2 0x701B JUMP JUMPDEST SWAP4 SWAP3 POP POP POP JUMP JUMPDEST PUSH1 0x0 DUP2 MLOAD SWAP1 POP SWAP2 SWAP1 POP JUMP JUMPDEST PUSH1 0x0 DUP3 DUP3 MSTORE PUSH1 0x20 DUP3 ADD SWAP1 POP SWAP3 SWAP2 POP POP JUMP JUMPDEST PUSH1 0x0 JUMPDEST DUP4 DUP2 LT ISZERO PUSH2 0x74C3 JUMPI DUP1 DUP3 ADD MLOAD DUP2 DUP5 ADD MSTORE PUSH1 0x20 DUP2 ADD SWAP1 POP PUSH2 0x74A8 JUMP JUMPDEST DUP4 DUP2 GT ISZERO PUSH2 0x74D2 JUMPI PUSH1 0x0 DUP5 DUP5 ADD MSTORE JUMPDEST POP POP POP POP JUMP JUMPDEST PUSH1 0x0 PUSH1 0x1F NOT PUSH1 0x1F DUP4 ADD AND SWAP1 POP SWAP2 SWAP1 POP JUMP JUMPDEST PUSH1 0x0 PUSH2 0x74F4 DUP3 PUSH2 0x7489 JUMP JUMPDEST PUSH2 0x74FE DUP2 DUP6 PUSH2 0x7494 JUMP JUMPDEST SWAP4 POP PUSH2 0x750E DUP2 DUP6 PUSH1 0x20 DUP7 ADD PUSH2 0x74A5 JUMP JUMPDEST PUSH2 0x7517 DUP2 PUSH2 0x74D8 JUMP JUMPDEST DUP5 ADD SWAP2 POP POP SWAP3 SWAP2 POP POP JUMP JUMPDEST PUSH1 0x0 PUSH1 0x20 DUP3 ADD SWAP1 POP DUP2 DUP2 SUB PUSH1 0x0 DUP4 ADD MSTORE PUSH2 0x753C DUP2 DUP5 PUSH2 0x74E9 JUMP JUMPDEST SWAP1 POP SWAP3 SWAP2 POP POP JUMP JUMPDEST PUSH32 0x4E487B7100000000000000000000000000000000000000000000000000000000 PUSH1 0x0 MSTORE PUSH1 0x32 PUSH1 0x4 MSTORE PUSH1 0x24 PUSH1 0x0 REVERT JUMPDEST PUSH32 0x4E487B7100000000000000000000000000000000000000000000000000000000 PUSH1 0x0 MSTORE PUSH1 0x11 PUSH1 0x4 MSTORE PUSH1 0x24 PUSH1 0x0 REVERT JUMPDEST PUSH1 0x0 PUSH2 0x75AD DUP3 PUSH2 0x6DE1 JUMP JUMPDEST SWAP2 POP PUSH32 0xFFFFFFFFFFFFFFFFFFFFFFFFFFFFFFFFFFFFFFFFFFFFFFFFFFFFFFFFFFFFFFFF DUP3 EQ ISZERO PUSH2 0x75E0 JUMPI PUSH2 0x75DF PUSH2 0x7573 JUMP JUMPDEST JUMPDEST PUSH1 0x1 DUP3 ADD SWAP1 POP SWAP2 SWAP1 POP JUMP JUMPDEST PUSH1 0x0 DUP2 MLOAD SWAP1 POP PUSH2 0x75FA DUP2 PUSH2 0x6DB5 JUMP JUMPDEST SWAP3 SWAP2 POP POP JUMP JUMPDEST PUSH1 0x0 PUSH1 0x20 DUP3 DUP5 SUB SLT ISZERO PUSH2 0x7616 JUMPI PUSH2 0x7615 PUSH2 0x6CBE JUMP JUMPDEST JUMPDEST PUSH1 0x0 PUSH2 0x7624 DUP5 DUP3 DUP6 ADD PUSH2 0x75EB JUMP JUMPDEST SWAP2 POP POP SWAP3 SWAP2 POP POP JUMP JUMPDEST PUSH1 0x0 DUP2 MLOAD SWAP1 POP PUSH2 0x763C DUP2 PUSH2 0x6DEB JUMP JUMPDEST SWAP3 SWAP2 POP POP JUMP JUMPDEST PUSH1 0x0 PUSH1 0x20 DUP3 DUP5 SUB SLT ISZERO PUSH2 0x7658 JUMPI PUSH2 0x7657 PUSH2 0x6CBE JUMP JUMPDEST JUMPDEST PUSH1 0x0 PUSH2 0x7666 DUP5 DUP3 DUP6 ADD PUSH2 0x762D JUMP JUMPDEST SWAP2 POP POP SWAP3 SWAP2 POP POP JUMP JUMPDEST PUSH32 0x416363657373436F6E74726F6C3A2063616E206F6E6C792072656E6F756E6365 PUSH1 0x0 DUP3 ADD MSTORE PUSH32 0x20726F6C657320666F722073656C660000000000000000000000000000000000 PUSH1 0x20 DUP3 ADD MSTORE POP JUMP JUMPDEST PUSH1 0x0 PUSH2 0x76CB PUSH1 0x2F DUP4 PUSH2 0x7494 JUMP JUMPDEST SWAP2 POP PUSH2 0x76D6 DUP3 PUSH2 0x766F JUMP JUMPDEST PUSH1 0x40 DUP3 ADD SWAP1 POP SWAP2 SWAP1 POP JUMP JUMPDEST PUSH1 0x0 PUSH1 0x20 DUP3 ADD SWAP1 POP DUP2 DUP2 SUB PUSH1 0x0 DUP4 ADD MSTORE PUSH2 0x76FA DUP2 PUSH2 0x76BE JUMP JUMPDEST SWAP1 POP SWAP2 SWAP1 POP JUMP JUMPDEST PUSH1 0x0 PUSH2 0x770C DUP3 PUSH2 0x6DE1 JUMP JUMPDEST SWAP2 POP PUSH2 0x7717 DUP4 PUSH2 0x6DE1 JUMP JUMPDEST SWAP3 POP DUP3 PUSH32 0xFFFFFFFFFFFFFFFFFFFFFFFFFFFFFFFFFFFFFFFFFFFFFFFFFFFFFFFFFFFFFFFF SUB DUP3 GT ISZERO PUSH2 0x774C JUMPI PUSH2 0x774B PUSH2 0x7573 JUMP JUMPDEST JUMPDEST DUP3 DUP3 ADD SWAP1 POP SWAP3 SWAP2 POP POP JUMP JUMPDEST PUSH32 0x4E487B7100000000000000000000000000000000000000000000000000000000 PUSH1 0x0 MSTORE PUSH1 0x12 PUSH1 0x4 MSTORE PUSH1 0x24 PUSH1 0x0 REVERT JUMPDEST PUSH1 0x0 PUSH2 0x7791 DUP3 PUSH2 0x6DE1 JUMP JUMPDEST SWAP2 POP PUSH2 0x779C DUP4 PUSH2 0x6DE1 JUMP JUMPDEST SWAP3 POP DUP3 PUSH2 0x77AC JUMPI PUSH2 0x77AB PUSH2 0x7757 JUMP JUMPDEST JUMPDEST DUP3 DUP3 MOD SWAP1 POP SWAP3 SWAP2 POP POP JUMP JUMPDEST PUSH1 0x0 PUSH2 0x77C2 DUP3 PUSH2 0x6DE1 JUMP JUMPDEST SWAP2 POP PUSH2 0x77CD DUP4 PUSH2 0x6DE1 JUMP JUMPDEST SWAP3 POP DUP2 PUSH32 0xFFFFFFFFFFFFFFFFFFFFFFFFFFFFFFFFFFFFFFFFFFFFFFFFFFFFFFFFFFFFFFFF DIV DUP4 GT DUP3 ISZERO ISZERO AND ISZERO PUSH2 0x7806 JUMPI PUSH2 0x7805 PUSH2 0x7573 JUMP JUMPDEST JUMPDEST DUP3 DUP3 MUL SWAP1 POP SWAP3 SWAP2 POP POP JUMP JUMPDEST PUSH1 0x0 PUSH2 0x781C DUP3 PUSH2 0x7198 JUMP JUMPDEST SWAP2 POP PUSH2 0x7827 DUP4 PUSH2 0x7198 JUMP JUMPDEST SWAP3 POP DUP2 PUSH14 0xFFFFFFFFFFFFFFFFFFFFFFFFFFFF DIV DUP4 GT DUP3 ISZERO ISZERO AND ISZERO PUSH2 0x784E JUMPI PUSH2 0x784D PUSH2 0x7573 JUMP JUMPDEST JUMPDEST DUP3 DUP3 MUL SWAP1 POP SWAP3 SWAP2 POP POP JUMP JUMPDEST PUSH1 0x0 PUSH2 0x7864 DUP3 PUSH2 0x6DE1 JUMP JUMPDEST SWAP2 POP PUSH2 0x786F DUP4 PUSH2 0x6DE1 JUMP JUMPDEST SWAP3 POP DUP3 DUP3 LT ISZERO PUSH2 0x7882 JUMPI PUSH2 0x7881 PUSH2 0x7573 JUMP JUMPDEST JUMPDEST DUP3 DUP3 SUB SWAP1 POP SWAP3 SWAP2 POP POP JUMP JUMPDEST PUSH1 0x0 PUSH2 0x7898 DUP3 PUSH2 0x6DE1 JUMP JUMPDEST SWAP2 POP PUSH2 0x78A3 DUP4 PUSH2 0x6DE1 JUMP JUMPDEST SWAP3 POP DUP3 PUSH2 0x78B3 JUMPI PUSH2 0x78B2 PUSH2 0x7757 JUMP JUMPDEST JUMPDEST DUP3 DUP3 DIV SWAP1 POP SWAP3 SWAP2 POP POP JUMP JUMPDEST PUSH1 0x0 PUSH1 0x40 DUP3 ADD SWAP1 POP PUSH2 0x78D3 PUSH1 0x0 DUP4 ADD DUP6 PUSH2 0x6F76 JUMP JUMPDEST PUSH2 0x78E0 PUSH1 0x20 DUP4 ADD DUP5 PUSH2 0x701B JUMP JUMPDEST SWAP4 SWAP3 POP POP POP JUMP JUMPDEST PUSH1 0x0 PUSH1 0x60 DUP3 ADD SWAP1 POP PUSH2 0x78FC PUSH1 0x0 DUP4 ADD DUP7 PUSH2 0x6F76 JUMP JUMPDEST PUSH2 0x7909 PUSH1 0x20 DUP4 ADD DUP6 PUSH2 0x701B JUMP JUMPDEST PUSH2 0x7916 PUSH1 0x40 DUP4 ADD DUP5 PUSH2 0x701B JUMP JUMPDEST SWAP5 SWAP4 POP POP POP POP JUMP JUMPDEST PUSH1 0x0 PUSH2 0x7929 DUP3 PUSH2 0x7198 JUMP JUMPDEST SWAP2 POP PUSH2 0x7934 DUP4 PUSH2 0x7198 JUMP JUMPDEST SWAP3 POP DUP3 PUSH14 0xFFFFFFFFFFFFFFFFFFFFFFFFFFFF SUB DUP3 GT ISZERO PUSH2 0x7957 JUMPI PUSH2 0x7956 PUSH2 0x7573 JUMP JUMPDEST JUMPDEST DUP3 DUP3 ADD SWAP1 POP SWAP3 SWAP2 POP POP JUMP JUMPDEST PUSH1 0x0 PUSH2 0x796D DUP3 PUSH2 0x7198 JUMP JUMPDEST SWAP2 POP PUSH2 0x7978 DUP4 PUSH2 0x7198 JUMP JUMPDEST SWAP3 POP DUP3 DUP3 LT ISZERO PUSH2 0x798B JUMPI PUSH2 0x798A PUSH2 0x7573 JUMP JUMPDEST JUMPDEST DUP3 DUP3 SUB SWAP1 POP SWAP3 SWAP2 POP POP JUMP JUMPDEST PUSH1 0x0 DUP2 SWAP1 POP SWAP3 SWAP2 POP POP JUMP JUMPDEST PUSH32 0x416363657373436F6E74726F6C3A206163636F756E7420000000000000000000 PUSH1 0x0 DUP3 ADD MSTORE POP JUMP JUMPDEST PUSH1 0x0 PUSH2 0x79D7 PUSH1 0x17 DUP4 PUSH2 0x7996 JUMP JUMPDEST SWAP2 POP PUSH2 0x79E2 DUP3 PUSH2 0x79A1 JUMP JUMPDEST PUSH1 0x17 DUP3 ADD SWAP1 POP SWAP2 SWAP1 POP JUMP JUMPDEST PUSH1 0x0 PUSH2 0x79F8 DUP3 PUSH2 0x7489 JUMP JUMPDEST PUSH2 0x7A02 DUP2 DUP6 PUSH2 0x7996 JUMP JUMPDEST SWAP4 POP PUSH2 0x7A12 DUP2 DUP6 PUSH1 0x20 DUP7 ADD PUSH2 0x74A5 JUMP JUMPDEST DUP1 DUP5 ADD SWAP2 POP POP SWAP3 SWAP2 POP POP JUMP JUMPDEST PUSH32 0x206973206D697373696E6720726F6C6520000000000000000000000000000000 PUSH1 0x0 DUP3 ADD MSTORE POP JUMP JUMPDEST PUSH1 0x0 PUSH2 0x7A54 PUSH1 0x11 DUP4 PUSH2 0x7996 JUMP JUMPDEST SWAP2 POP PUSH2 0x7A5F DUP3 PUSH2 0x7A1E JUMP JUMPDEST PUSH1 0x11 DUP3 ADD SWAP1 POP SWAP2 SWAP1 POP JUMP JUMPDEST PUSH1 0x0 PUSH2 0x7A75 DUP3 PUSH2 0x79CA JUMP JUMPDEST SWAP2 POP PUSH2 0x7A81 DUP3 DUP6 PUSH2 0x79ED JUMP JUMPDEST SWAP2 POP PUSH2 0x7A8C DUP3 PUSH2 0x7A47 JUMP JUMPDEST SWAP2 POP PUSH2 0x7A98 DUP3 DUP5 PUSH2 0x79ED JUMP JUMPDEST SWAP2 POP DUP2 SWAP1 POP SWAP4 SWAP3 POP POP POP JUMP JUMPDEST PUSH1 0x0 PUSH1 0x60 DUP3 ADD SWAP1 POP PUSH2 0x7AB9 PUSH1 0x0 DUP4 ADD DUP7 PUSH2 0x6F76 JUMP JUMPDEST PUSH2 0x7AC6 PUSH1 0x20 DUP4 ADD DUP6 PUSH2 0x6F76 JUMP JUMPDEST PUSH2 0x7AD3 PUSH1 0x40 DUP4 ADD DUP5 PUSH2 0x701B JUMP JUMPDEST SWAP5 SWAP4 POP POP POP POP JUMP JUMPDEST PUSH32 0x4E487B7100000000000000000000000000000000000000000000000000000000 PUSH1 0x0 MSTORE PUSH1 0x41 PUSH1 0x4 MSTORE PUSH1 0x24 PUSH1 0x0 REVERT JUMPDEST PUSH1 0x0 PUSH2 0x7B15 DUP3 PUSH2 0x6DE1 JUMP JUMPDEST SWAP2 POP PUSH1 0x0 DUP3 EQ ISZERO PUSH2 0x7B29 JUMPI PUSH2 0x7B28 PUSH2 0x7573 JUMP JUMPDEST JUMPDEST PUSH1 0x1 DUP3 SUB SWAP1 POP SWAP2 SWAP1 POP JUMP JUMPDEST PUSH32 0x537472696E67733A20686578206C656E67746820696E73756666696369656E74 PUSH1 0x0 DUP3 ADD MSTORE POP JUMP JUMPDEST PUSH1 0x0 PUSH2 0x7B6A PUSH1 0x20 DUP4 PUSH2 0x7494 JUMP JUMPDEST SWAP2 POP PUSH2 0x7B75 DUP3 PUSH2 0x7B34 JUMP JUMPDEST PUSH1 0x20 DUP3 ADD SWAP1 POP SWAP2 SWAP1 POP JUMP JUMPDEST PUSH1 0x0 PUSH1 0x20 DUP3 ADD SWAP1 POP DUP2 DUP2 SUB PUSH1 0x0 DUP4 ADD MSTORE PUSH2 0x7B99 DUP2 PUSH2 0x7B5D JUMP JUMPDEST SWAP1 POP SWAP2 SWAP1 POP JUMP JUMPDEST PUSH2 0x7BA9 DUP2 PUSH2 0x6D4D JUMP JUMPDEST DUP2 EQ PUSH2 0x7BB4 JUMPI PUSH1 0x0 DUP1 REVERT JUMPDEST POP JUMP JUMPDEST PUSH1 0x0 DUP2 MLOAD SWAP1 POP PUSH2 0x7BC6 DUP2 PUSH2 0x7BA0 JUMP JUMPDEST SWAP3 SWAP2 POP POP JUMP JUMPDEST PUSH1 0x0 PUSH1 0x20 DUP3 DUP5 SUB SLT ISZERO PUSH2 0x7BE2 JUMPI PUSH2 0x7BE1 PUSH2 0x6CBE JUMP JUMPDEST JUMPDEST PUSH1 0x0 PUSH2 0x7BF0 DUP5 DUP3 DUP6 ADD PUSH2 0x7BB7 JUMP JUMPDEST SWAP2 POP POP SWAP3 SWAP2 POP POP JUMP JUMPDEST PUSH32 0x5361666545524332303A204552433230206F7065726174696F6E20646964206E PUSH1 0x0 DUP3 ADD MSTORE PUSH32 0x6F74207375636365656400000000000000000000000000000000000000000000 PUSH1 0x20 DUP3 ADD MSTORE POP JUMP JUMPDEST PUSH1 0x0 PUSH2 0x7C55 PUSH1 0x2A DUP4 PUSH2 0x7494 JUMP JUMPDEST SWAP2 POP PUSH2 0x7C60 DUP3 PUSH2 0x7BF9 JUMP JUMPDEST PUSH1 0x40 DUP3 ADD SWAP1 POP SWAP2 SWAP1 POP JUMP JUMPDEST PUSH1 0x0 PUSH1 0x20 DUP3 ADD SWAP1 POP DUP2 DUP2 SUB PUSH1 0x0 DUP4 ADD MSTORE PUSH2 0x7C84 DUP2 PUSH2 0x7C48 JUMP JUMPDEST SWAP1 POP SWAP2 SWAP1 POP JUMP JUMPDEST PUSH32 0x4E487B7100000000000000000000000000000000000000000000000000000000 PUSH1 0x0 MSTORE PUSH1 0x31 PUSH1 0x4 MSTORE PUSH1 0x24 PUSH1 0x0 REVERT JUMPDEST PUSH32 0x416464726573733A20696E73756666696369656E742062616C616E636520666F PUSH1 0x0 DUP3 ADD MSTORE PUSH32 0x722063616C6C0000000000000000000000000000000000000000000000000000 PUSH1 0x20 DUP3 ADD MSTORE POP JUMP JUMPDEST PUSH1 0x0 PUSH2 0x7D16 PUSH1 0x26 DUP4 PUSH2 0x7494 JUMP JUMPDEST SWAP2 POP PUSH2 0x7D21 DUP3 PUSH2 0x7CBA JUMP JUMPDEST PUSH1 0x40 DUP3 ADD SWAP1 POP SWAP2 SWAP1 POP JUMP JUMPDEST PUSH1 0x0 PUSH1 0x20 DUP3 ADD SWAP1 POP DUP2 DUP2 SUB PUSH1 0x0 DUP4 ADD MSTORE PUSH2 0x7D45 DUP2 PUSH2 0x7D09 JUMP JUMPDEST SWAP1 POP SWAP2 SWAP1 POP JUMP JUMPDEST PUSH32 0x416464726573733A2063616C6C20746F206E6F6E2D636F6E7472616374000000 PUSH1 0x0 DUP3 ADD MSTORE POP JUMP JUMPDEST PUSH1 0x0 PUSH2 0x7D82 PUSH1 0x1D DUP4 PUSH2 0x7494 JUMP JUMPDEST SWAP2 POP PUSH2 0x7D8D DUP3 PUSH2 0x7D4C JUMP JUMPDEST PUSH1 0x20 DUP3 ADD SWAP1 POP SWAP2 SWAP1 POP JUMP JUMPDEST PUSH1 0x0 PUSH1 0x20 DUP3 ADD SWAP1 POP DUP2 DUP2 SUB PUSH1 0x0 DUP4 ADD MSTORE PUSH2 0x7DB1 DUP2 PUSH2 0x7D75 JUMP JUMPDEST SWAP1 POP SWAP2 SWAP1 POP JUMP JUMPDEST PUSH1 0x0 DUP2 MLOAD SWAP1 POP SWAP2 SWAP1 POP JUMP JUMPDEST PUSH1 0x0 DUP2 SWAP1 POP SWAP3 SWAP2 POP POP JUMP JUMPDEST PUSH1 0x0 PUSH2 0x7DD9 DUP3 PUSH2 0x7DB8 JUMP JUMPDEST PUSH2 0x7DE3 DUP2 DUP6 PUSH2 0x7DC3 JUMP JUMPDEST SWAP4 POP PUSH2 0x7DF3 DUP2 DUP6 PUSH1 0x20 DUP7 ADD PUSH2 0x74A5 JUMP JUMPDEST DUP1 DUP5 ADD SWAP2 POP POP SWAP3 SWAP2 POP POP JUMP JUMPDEST PUSH1 0x0 PUSH2 0x7E0B DUP3 DUP5 PUSH2 0x7DCE JUMP JUMPDEST SWAP2 POP DUP2 SWAP1 POP SWAP3 SWAP2 POP POP JUMP INVALID LOG2 PUSH5 0x6970667358 0x22 SLT KECCAK256 SGT JUMPI PUSH23 0x412188B9A2270494E1B5174479C247A94DBA54B8D326AC 0xA6 SWAP5 0xE5 DUP10 LOG0 SDIV PUSH5 0x736F6C6343 STOP ADDMOD SIGNEXTEND STOP CALLER "
		},
		"gasEstimates": {
			"creation": {
				"codeDepositCost": "6466400",
				"executionCost": "infinite",
				"totalCost": "infinite"
			},
			"external": {
				"ROLE_ADMIN()": "446",
				"addTokenLiquidity(address,uint256,address)": "infinite",
				"adminCreatePool(address,uint256,uint256,address)": "infinite",
				"adminInitialize()": "infinite",
				"adminUpdateFeeToBeneficiary(address)": "infinite",
				"feeToBeneficiary()": "2647",
				"getCurrent4Hour()": "infinite",
				"getCurrentFeeBasedOnTrades(uint256)": "infinite",
				"getInputCerUsdForExactToken(uint256,uint256)": "infinite",
				"getInputTokenForExactCerUsd(uint256,uint256)": "infinite",
				"getOutputExactCerUsdForToken(uint256,uint256)": "infinite",
				"getOutputExactTokensForCerUsd(uint256,uint256)": "infinite",
				"getPoolByPosition(uint256)": "infinite",
				"getPoolByToken(address)": "infinite",
				"getRoleAdmin(bytes32)": "infinite",
				"getRoleMember(bytes32,uint256)": "infinite",
				"getRoleMemberCount(bytes32)": "3019",
				"getUtilsContractAtPos(uint256)": "infinite",
				"grantRole(bytes32,address)": "infinite",
				"grantRolesBulk((bytes32,address)[])": "infinite",
				"hasRole(bytes32,address)": "3230",
				"removeTokenLiquidity(address,uint256,address)": "infinite",
				"renounceRole(bytes32,address)": "infinite",
				"revokeRole(bytes32,address)": "infinite",
				"supportsInterface(bytes4)": "685",
				"swapExactNativeForTokens(address,uint256,uint256,uint256,address)": "infinite",
				"swapExactTokensForNative(address,uint256,uint256,uint256,address)": "infinite",
				"swapExactTokensForTokens(address,address,uint256,uint256,uint256,address)": "infinite",
				"swapNativeForExactTokens(address,uint256,uint256,uint256,address)": "infinite",
				"swapTokensForExactNative(address,uint256,uint256,uint256,address)": "infinite",
				"swapTokensForExactTokens(address,address,uint256,uint256,uint256,address)": "infinite",
				"syncTokenBalanceInPool(address)": "infinite",
				"testGetBalances()": "infinite",
				"testGetPools()": "infinite",
				"testGetPrices()": "infinite"
			},
			"internal": {
				"_addTokenLiquidity(address,address,uint256,address)": "infinite",
				"_getInput(uint256,uint256,uint256,uint256)": "infinite",
				"_getMintFeeLiquidityAmount(uint256,uint256,uint256)": "infinite",
				"_getOutput(uint256,uint256,uint256,uint256)": "infinite",
				"_removeTokenLiquidity(address,address,uint256,address)": "infinite",
				"_swapExactCerUsdForToken(address,uint256,address)": "infinite",
				"_swapExactTokenForCerUsd(address,uint256,address)": "infinite",
				"_swapExactTokensForTokens(address,address,address,uint256,uint256,address)": "infinite",
				"_swapTokensForExactTokens(address,address,address,uint256,uint256,address)": "infinite",
				"sqrt(uint256)": "infinite"
			}
		},
		"methodIdentifiers": {
			"ROLE_ADMIN()": "d391014b",
			"addTokenLiquidity(address,uint256,address)": "8d6d61d9",
			"adminCreatePool(address,uint256,uint256,address)": "d5d60737",
			"adminInitialize()": "c09c923b",
			"adminUpdateFeeToBeneficiary(address)": "06edd763",
			"feeToBeneficiary()": "7b4b233c",
			"getCurrent4Hour()": "a465626f",
			"getCurrentFeeBasedOnTrades(uint256)": "6853ac26",
			"getInputCerUsdForExactToken(uint256,uint256)": "6ec14858",
			"getInputTokenForExactCerUsd(uint256,uint256)": "4fa8f197",
			"getOutputExactCerUsdForToken(uint256,uint256)": "e40a99a8",
			"getOutputExactTokensForCerUsd(uint256,uint256)": "cd01a60a",
			"getPoolByPosition(uint256)": "d01350bd",
			"getPoolByToken(address)": "bbadc03b",
			"getRoleAdmin(bytes32)": "248a9ca3",
			"getRoleMember(bytes32,uint256)": "9010d07c",
			"getRoleMemberCount(bytes32)": "ca15c873",
			"getUtilsContractAtPos(uint256)": "06fb1a07",
			"grantRole(bytes32,address)": "2f2ff15d",
			"grantRolesBulk((bytes32,address)[])": "03ed957f",
			"hasRole(bytes32,address)": "91d14854",
			"removeTokenLiquidity(address,uint256,address)": "0369679e",
			"renounceRole(bytes32,address)": "36568abe",
			"revokeRole(bytes32,address)": "d547741f",
			"supportsInterface(bytes4)": "01ffc9a7",
			"swapExactNativeForTokens(address,uint256,uint256,uint256,address)": "41d310ec",
			"swapExactTokensForNative(address,uint256,uint256,uint256,address)": "195df43e",
			"swapExactTokensForTokens(address,address,uint256,uint256,uint256,address)": "a60c6e55",
			"swapNativeForExactTokens(address,uint256,uint256,uint256,address)": "0975552e",
			"swapTokensForExactNative(address,uint256,uint256,uint256,address)": "cf8ae864",
			"swapTokensForExactTokens(address,address,uint256,uint256,uint256,address)": "f6524724",
			"syncTokenBalanceInPool(address)": "9bc731fc",
			"testGetBalances()": "186efad9",
			"testGetPools()": "5e6104b1",
			"testGetPrices()": "e07bf7ad"
		}
	},
	"abi": [
		{
			"inputs": [],
			"stateMutability": "nonpayable",
			"type": "constructor"
		},
		{
			"anonymous": false,
			"inputs": [
				{
					"indexed": true,
					"internalType": "bytes32",
					"name": "role",
					"type": "bytes32"
				},
				{
					"indexed": true,
					"internalType": "bytes32",
					"name": "previousAdminRole",
					"type": "bytes32"
				},
				{
					"indexed": true,
					"internalType": "bytes32",
					"name": "newAdminRole",
					"type": "bytes32"
				}
			],
			"name": "RoleAdminChanged",
			"type": "event"
		},
		{
			"anonymous": false,
			"inputs": [
				{
					"indexed": true,
					"internalType": "bytes32",
					"name": "role",
					"type": "bytes32"
				},
				{
					"indexed": true,
					"internalType": "address",
					"name": "account",
					"type": "address"
				},
				{
					"indexed": true,
					"internalType": "address",
					"name": "sender",
					"type": "address"
				}
			],
			"name": "RoleGranted",
			"type": "event"
		},
		{
			"anonymous": false,
			"inputs": [
				{
					"indexed": true,
					"internalType": "bytes32",
					"name": "role",
					"type": "bytes32"
				},
				{
					"indexed": true,
					"internalType": "address",
					"name": "account",
					"type": "address"
				},
				{
					"indexed": true,
					"internalType": "address",
					"name": "sender",
					"type": "address"
				}
			],
			"name": "RoleRevoked",
			"type": "event"
		},
		{
			"inputs": [],
			"name": "ROLE_ADMIN",
			"outputs": [
				{
					"internalType": "bytes32",
					"name": "",
					"type": "bytes32"
				}
			],
			"stateMutability": "view",
			"type": "function"
		},
		{
			"inputs": [
				{
					"internalType": "address",
					"name": "token",
					"type": "address"
				},
				{
					"internalType": "uint256",
					"name": "amountTokensIn",
					"type": "uint256"
				},
				{
					"internalType": "address",
					"name": "transferTo",
					"type": "address"
				}
			],
			"name": "addTokenLiquidity",
			"outputs": [],
			"stateMutability": "nonpayable",
			"type": "function"
		},
		{
			"inputs": [
				{
					"internalType": "address",
					"name": "token",
					"type": "address"
				},
				{
					"internalType": "uint256",
					"name": "amountTokensIn",
					"type": "uint256"
				},
				{
					"internalType": "uint256",
					"name": "amountCerUsdIn",
					"type": "uint256"
				},
				{
					"internalType": "address",
					"name": "transferTo",
					"type": "address"
				}
			],
			"name": "adminCreatePool",
			"outputs": [],
			"stateMutability": "nonpayable",
			"type": "function"
		},
		{
			"inputs": [],
			"name": "adminInitialize",
			"outputs": [],
			"stateMutability": "nonpayable",
			"type": "function"
		},
		{
			"inputs": [
				{
					"internalType": "address",
					"name": "newFeeToBeneficiary",
					"type": "address"
				}
			],
			"name": "adminUpdateFeeToBeneficiary",
			"outputs": [],
			"stateMutability": "nonpayable",
			"type": "function"
		},
		{
			"inputs": [],
			"name": "feeToBeneficiary",
			"outputs": [
				{
					"internalType": "address",
					"name": "",
					"type": "address"
				}
			],
			"stateMutability": "view",
			"type": "function"
		},
		{
			"inputs": [],
			"name": "getCurrent4Hour",
			"outputs": [
				{
					"internalType": "uint256",
					"name": "",
					"type": "uint256"
				}
			],
			"stateMutability": "view",
			"type": "function"
		},
		{
			"inputs": [
				{
					"internalType": "uint256",
					"name": "poolPos",
					"type": "uint256"
				}
			],
			"name": "getCurrentFeeBasedOnTrades",
			"outputs": [
				{
					"internalType": "uint256",
					"name": "fee",
					"type": "uint256"
				}
			],
			"stateMutability": "view",
			"type": "function"
		},
		{
			"inputs": [
				{
					"internalType": "uint256",
					"name": "poolPos",
					"type": "uint256"
				},
				{
					"internalType": "uint256",
					"name": "amountTokensOut",
					"type": "uint256"
				}
			],
			"name": "getInputCerUsdForExactToken",
			"outputs": [
				{
					"internalType": "uint256",
					"name": "",
					"type": "uint256"
				}
			],
			"stateMutability": "view",
			"type": "function"
		},
		{
			"inputs": [
				{
					"internalType": "uint256",
					"name": "poolPos",
					"type": "uint256"
				},
				{
					"internalType": "uint256",
					"name": "amountCerUsdOut",
					"type": "uint256"
				}
			],
			"name": "getInputTokenForExactCerUsd",
			"outputs": [
				{
					"internalType": "uint256",
					"name": "",
					"type": "uint256"
				}
			],
			"stateMutability": "view",
			"type": "function"
		},
		{
			"inputs": [
				{
					"internalType": "uint256",
					"name": "poolPos",
					"type": "uint256"
				},
				{
					"internalType": "uint256",
					"name": "amountCerUsdIn",
					"type": "uint256"
				}
			],
			"name": "getOutputExactCerUsdForToken",
			"outputs": [
				{
					"internalType": "uint256",
					"name": "",
					"type": "uint256"
				}
			],
			"stateMutability": "view",
			"type": "function"
		},
		{
			"inputs": [
				{
					"internalType": "uint256",
					"name": "poolPos",
					"type": "uint256"
				},
				{
					"internalType": "uint256",
					"name": "amountTokensIn",
					"type": "uint256"
				}
			],
			"name": "getOutputExactTokensForCerUsd",
			"outputs": [
				{
					"internalType": "uint256",
					"name": "",
					"type": "uint256"
				}
			],
			"stateMutability": "view",
			"type": "function"
		},
		{
			"inputs": [
				{
					"internalType": "uint256",
					"name": "pos",
					"type": "uint256"
				}
			],
			"name": "getPoolByPosition",
			"outputs": [
				{
					"components": [
						{
							"internalType": "address",
							"name": "token",
							"type": "address"
						},
						{
							"internalType": "uint112",
							"name": "balanceToken",
							"type": "uint112"
						},
						{
							"internalType": "uint112",
							"name": "balanceCerUsd",
							"type": "uint112"
						},
						{
							"internalType": "uint112",
							"name": "lastRootKValue",
							"type": "uint112"
						},
						{
							"internalType": "uint32[8]",
							"name": "hourlyTradeVolumeInCerUsd",
							"type": "uint32[8]"
						}
					],
					"internalType": "struct CerbySwapV1.Pool",
					"name": "",
					"type": "tuple"
				}
			],
			"stateMutability": "view",
			"type": "function"
		},
		{
			"inputs": [
				{
					"internalType": "address",
					"name": "token",
					"type": "address"
				}
			],
			"name": "getPoolByToken",
			"outputs": [
				{
					"components": [
						{
							"internalType": "address",
							"name": "token",
							"type": "address"
						},
						{
							"internalType": "uint112",
							"name": "balanceToken",
							"type": "uint112"
						},
						{
							"internalType": "uint112",
							"name": "balanceCerUsd",
							"type": "uint112"
						},
						{
							"internalType": "uint112",
							"name": "lastRootKValue",
							"type": "uint112"
						},
						{
							"internalType": "uint32[8]",
							"name": "hourlyTradeVolumeInCerUsd",
							"type": "uint32[8]"
						}
					],
					"internalType": "struct CerbySwapV1.Pool",
					"name": "",
					"type": "tuple"
				}
			],
			"stateMutability": "view",
			"type": "function"
		},
		{
			"inputs": [
				{
					"internalType": "bytes32",
					"name": "role",
					"type": "bytes32"
				}
			],
			"name": "getRoleAdmin",
			"outputs": [
				{
					"internalType": "bytes32",
					"name": "",
					"type": "bytes32"
				}
			],
			"stateMutability": "view",
			"type": "function"
		},
		{
			"inputs": [
				{
					"internalType": "bytes32",
					"name": "role",
					"type": "bytes32"
				},
				{
					"internalType": "uint256",
					"name": "index",
					"type": "uint256"
				}
			],
			"name": "getRoleMember",
			"outputs": [
				{
					"internalType": "address",
					"name": "",
					"type": "address"
				}
			],
			"stateMutability": "view",
			"type": "function"
		},
		{
			"inputs": [
				{
					"internalType": "bytes32",
					"name": "role",
					"type": "bytes32"
				}
			],
			"name": "getRoleMemberCount",
			"outputs": [
				{
					"internalType": "uint256",
					"name": "",
					"type": "uint256"
				}
			],
			"stateMutability": "view",
			"type": "function"
		},
		{
			"inputs": [
				{
					"internalType": "uint256",
					"name": "pos",
					"type": "uint256"
				}
			],
			"name": "getUtilsContractAtPos",
			"outputs": [
				{
					"internalType": "address",
					"name": "",
					"type": "address"
				}
			],
			"stateMutability": "view",
			"type": "function"
		},
		{
			"inputs": [
				{
					"internalType": "bytes32",
					"name": "role",
					"type": "bytes32"
				},
				{
					"internalType": "address",
					"name": "account",
					"type": "address"
				}
			],
			"name": "grantRole",
			"outputs": [],
			"stateMutability": "nonpayable",
			"type": "function"
		},
		{
			"inputs": [
				{
					"components": [
						{
							"internalType": "bytes32",
							"name": "role",
							"type": "bytes32"
						},
						{
							"internalType": "address",
							"name": "addr",
							"type": "address"
						}
					],
					"internalType": "struct RoleAccess[]",
					"name": "roles",
					"type": "tuple[]"
				}
			],
			"name": "grantRolesBulk",
			"outputs": [],
			"stateMutability": "nonpayable",
			"type": "function"
		},
		{
			"inputs": [
				{
					"internalType": "bytes32",
					"name": "role",
					"type": "bytes32"
				},
				{
					"internalType": "address",
					"name": "account",
					"type": "address"
				}
			],
			"name": "hasRole",
			"outputs": [
				{
					"internalType": "bool",
					"name": "",
					"type": "bool"
				}
			],
			"stateMutability": "view",
			"type": "function"
		},
		{
			"inputs": [
				{
					"internalType": "address",
					"name": "token",
					"type": "address"
				},
				{
					"internalType": "uint256",
					"name": "amountLpTokensBalanceToBurn",
					"type": "uint256"
				},
				{
					"internalType": "address",
					"name": "transferTo",
					"type": "address"
				}
			],
			"name": "removeTokenLiquidity",
			"outputs": [],
			"stateMutability": "nonpayable",
			"type": "function"
		},
		{
			"inputs": [
				{
					"internalType": "bytes32",
					"name": "role",
					"type": "bytes32"
				},
				{
					"internalType": "address",
					"name": "account",
					"type": "address"
				}
			],
			"name": "renounceRole",
			"outputs": [],
			"stateMutability": "nonpayable",
			"type": "function"
		},
		{
			"inputs": [
				{
					"internalType": "bytes32",
					"name": "role",
					"type": "bytes32"
				},
				{
					"internalType": "address",
					"name": "account",
					"type": "address"
				}
			],
			"name": "revokeRole",
			"outputs": [],
			"stateMutability": "nonpayable",
			"type": "function"
		},
		{
			"inputs": [
				{
					"internalType": "bytes4",
					"name": "interfaceId",
					"type": "bytes4"
				}
			],
			"name": "supportsInterface",
			"outputs": [
				{
					"internalType": "bool",
					"name": "",
					"type": "bool"
				}
			],
			"stateMutability": "view",
			"type": "function"
		},
		{
			"inputs": [
				{
					"internalType": "address",
					"name": "tokenOut",
					"type": "address"
				},
				{
					"internalType": "uint256",
					"name": "amountTokensIn",
					"type": "uint256"
				},
				{
					"internalType": "uint256",
					"name": "minAmountTokensOut",
					"type": "uint256"
				},
				{
					"internalType": "uint256",
					"name": "expireTimestamp",
					"type": "uint256"
				},
				{
					"internalType": "address",
					"name": "transferTo",
					"type": "address"
				}
			],
			"name": "swapExactNativeForTokens",
			"outputs": [
				{
					"internalType": "uint256",
					"name": "",
					"type": "uint256"
				}
			],
			"stateMutability": "payable",
			"type": "function"
		},
		{
			"inputs": [
				{
					"internalType": "address",
					"name": "tokenIn",
					"type": "address"
				},
				{
					"internalType": "uint256",
					"name": "amountTokensIn",
					"type": "uint256"
				},
				{
					"internalType": "uint256",
					"name": "minAmountTokensOut",
					"type": "uint256"
				},
				{
					"internalType": "uint256",
					"name": "expireTimestamp",
					"type": "uint256"
				},
				{
					"internalType": "address",
					"name": "transferTo",
					"type": "address"
				}
			],
			"name": "swapExactTokensForNative",
			"outputs": [
				{
					"internalType": "uint256",
					"name": "",
					"type": "uint256"
				}
			],
			"stateMutability": "payable",
			"type": "function"
		},
		{
			"inputs": [
				{
					"internalType": "address",
					"name": "tokenIn",
					"type": "address"
				},
				{
					"internalType": "address",
					"name": "tokenOut",
					"type": "address"
				},
				{
					"internalType": "uint256",
					"name": "amountTokensIn",
					"type": "uint256"
				},
				{
					"internalType": "uint256",
					"name": "minAmountTokensOut",
					"type": "uint256"
				},
				{
					"internalType": "uint256",
					"name": "expireTimestamp",
					"type": "uint256"
				},
				{
					"internalType": "address",
					"name": "transferTo",
					"type": "address"
				}
			],
			"name": "swapExactTokensForTokens",
			"outputs": [
				{
					"internalType": "uint256",
					"name": "",
					"type": "uint256"
				}
			],
			"stateMutability": "nonpayable",
			"type": "function"
		},
		{
			"inputs": [
				{
					"internalType": "address",
					"name": "tokenOut",
					"type": "address"
				},
				{
					"internalType": "uint256",
					"name": "maxAmountTokensIn",
					"type": "uint256"
				},
				{
					"internalType": "uint256",
					"name": "amountTokensOut",
					"type": "uint256"
				},
				{
					"internalType": "uint256",
					"name": "expireTimestamp",
					"type": "uint256"
				},
				{
					"internalType": "address",
					"name": "transferTo",
					"type": "address"
				}
			],
			"name": "swapNativeForExactTokens",
			"outputs": [
				{
					"internalType": "uint256",
					"name": "",
					"type": "uint256"
				}
			],
			"stateMutability": "payable",
			"type": "function"
		},
		{
			"inputs": [
				{
					"internalType": "address",
					"name": "tokenIn",
					"type": "address"
				},
				{
					"internalType": "uint256",
					"name": "maxAmountTokensIn",
					"type": "uint256"
				},
				{
					"internalType": "uint256",
					"name": "amountTokensOut",
					"type": "uint256"
				},
				{
					"internalType": "uint256",
					"name": "expireTimestamp",
					"type": "uint256"
				},
				{
					"internalType": "address",
					"name": "transferTo",
					"type": "address"
				}
			],
			"name": "swapTokensForExactNative",
			"outputs": [
				{
					"internalType": "uint256",
					"name": "",
					"type": "uint256"
				}
			],
			"stateMutability": "payable",
			"type": "function"
		},
		{
			"inputs": [
				{
					"internalType": "address",
					"name": "tokenIn",
					"type": "address"
				},
				{
					"internalType": "address",
					"name": "tokenOut",
					"type": "address"
				},
				{
					"internalType": "uint256",
					"name": "maxAmountTokensIn",
					"type": "uint256"
				},
				{
					"internalType": "uint256",
					"name": "amountTokensOut",
					"type": "uint256"
				},
				{
					"internalType": "uint256",
					"name": "expireTimestamp",
					"type": "uint256"
				},
				{
					"internalType": "address",
					"name": "transferTo",
					"type": "address"
				}
			],
			"name": "swapTokensForExactTokens",
			"outputs": [
				{
					"internalType": "uint256",
					"name": "",
					"type": "uint256"
				}
			],
			"stateMutability": "nonpayable",
			"type": "function"
		},
		{
			"inputs": [
				{
					"internalType": "address",
					"name": "token",
					"type": "address"
				}
			],
			"name": "syncTokenBalanceInPool",
			"outputs": [],
			"stateMutability": "nonpayable",
			"type": "function"
		},
		{
			"inputs": [],
			"name": "testGetBalances",
			"outputs": [
				{
					"internalType": "uint256",
					"name": "",
					"type": "uint256"
				},
				{
					"internalType": "uint256",
					"name": "",
					"type": "uint256"
				},
				{
					"internalType": "uint256",
					"name": "",
					"type": "uint256"
				}
			],
			"stateMutability": "view",
			"type": "function"
		},
		{
			"inputs": [],
			"name": "testGetPools",
			"outputs": [
				{
					"components": [
						{
							"internalType": "address",
							"name": "token",
							"type": "address"
						},
						{
							"internalType": "uint112",
							"name": "balanceToken",
							"type": "uint112"
						},
						{
							"internalType": "uint112",
							"name": "balanceCerUsd",
							"type": "uint112"
						},
						{
							"internalType": "uint112",
							"name": "lastRootKValue",
							"type": "uint112"
						},
						{
							"internalType": "uint32[8]",
							"name": "hourlyTradeVolumeInCerUsd",
							"type": "uint32[8]"
						}
					],
					"internalType": "struct CerbySwapV1.Pool",
					"name": "",
					"type": "tuple"
				},
				{
					"components": [
						{
							"internalType": "address",
							"name": "token",
							"type": "address"
						},
						{
							"internalType": "uint112",
							"name": "balanceToken",
							"type": "uint112"
						},
						{
							"internalType": "uint112",
							"name": "balanceCerUsd",
							"type": "uint112"
						},
						{
							"internalType": "uint112",
							"name": "lastRootKValue",
							"type": "uint112"
						},
						{
							"internalType": "uint32[8]",
							"name": "hourlyTradeVolumeInCerUsd",
							"type": "uint32[8]"
						}
					],
					"internalType": "struct CerbySwapV1.Pool",
					"name": "",
					"type": "tuple"
				}
			],
			"stateMutability": "view",
			"type": "function"
		},
		{
			"inputs": [],
			"name": "testGetPrices",
			"outputs": [
				{
					"internalType": "uint256",
					"name": "",
					"type": "uint256"
				},
				{
					"internalType": "uint256",
					"name": "",
					"type": "uint256"
				}
			],
			"stateMutability": "view",
			"type": "function"
		}
	]
}