{
	"data": {
		"bytecode": {
			"linkReferences": {},
			"object": "60806040523480156200001157600080fd5b506200001f60003362000378565b62000040600073543a000a9fbe139ff783b2f8ebdf8869452dc21d62000378565b620000616000738888888ac6aa2482265e5346832cdd963c70a0d162000378565b62000082600073ef038429e3baaf784e1de93075070df2a43d427862000378565b620000a36000739980a0447456b5cdce209d7dc94820ff1560002262000378565b620000c4600073def1fac7bf08f173d286bbbdcbeeade69512984062000378565b620000e373c25e850f6cede52809014d4eecca402eb47bdc2862000388565b62000104738888888ac6aa2482265e5346832cdd963c70a0d1600162000415565b6200012573def78a28c78a461598d948bc0c689ce88f812ad8600162000415565b6200014673def1c0ded9bec7f1a1670819833240f027b25eff600162000415565b62000167731111111254fb6c44bac0bed2854e76f90643097d600162000415565b6200018873c590175e458b83680867afd273527ff58f74c02b600162000415565b620001a9733790c9b5a9b9d9aa1c69140a5f01a57c9b868e1e600162000415565b620001ca732ec255797fef7669fa243509b7a599121148ffba600162000415565b620001eb73220bda5c8994804ac96ebe4df184d25e5c2196d4600162000415565b6200020c73def1fac7bf08f173d286bbbdcbeeade695129840600162000415565b6200022d73881d40237659c251811cec9c364ef91dc08d300c600162000415565b6200024e7374de5d4fcbf63e00296fd95d33236b9794016631600162000415565b6200026f73e122d2e14d35d794c977b4d6924232cae7c8dbb5600162000415565b6001461415620002c1576200029a737a250d5630b4cf539739df2c5dacb4c659f2488d600162000415565b620002bb73e592427a0aece92de3edee1f18e0157c05861564600162000415565b62000317565b6038461415620002ec57620002bb7310ed43c718714eb63d5aa57b78b54704e256024e600162000415565b608946141562000317576200031773a5e0829caced8ffdd4de3c43696c57f7d7a678ff600162000415565b62000372738888888ac6aa2482265e5346832cdd963c70a0d16040518060400160405280601481526020017f757064617465416c6c536e617073686f747328290000000000000000000000008152506200044f60201b60201c565b62000b94565b62000384828262000601565b5050565b600062000396813362000644565b6001600160a01b03821660009081526003602052604090205460ff1615620003f05760405162461bcd60e51b815260206004820152600860248201526710d0910e88189bdd60c21b60448201526064015b60405180910390fd5b506001600160a01b03166000908152600360205260409020805460ff19166001179055565b600062000423813362000644565b506001600160a01b03919091166000908152600460205260409020805460ff1916911515919091179055565b604080518082018252600060208201526001600160a01b03841681528151600481526024810192839052909162000488908490620009d9565b6040519081900390206020820180516001600160e01b03166001600160e01b0319909216919091179052620004bd90620009f7565b6001600160e01b03191660208201526000805b6002548110156200058c5760006001600160a01b031660028281548110620004fc57620004fc62000a2f565b6000918252602090912001546001600160a01b03161415620005775760019150826002828154811062000533576200053362000a2f565b6000918252602091829020835191018054939092015160e01c600160a01b026001600160c01b03199093166001600160a01b03909116179190911790555050505050565b80620005838162000a5b565b915050620004d0565b5080620005fb576002805460018101825560009190915282517f405787fa12a823e0f2b7631cc41b3ba8828b3321ca811111fa75cd3aa3bb5ace9091018054602085015160e01c600160a01b026001600160c01b03199091166001600160a01b03909316929092179190911790555b50505050565b620006188282620006df60201b620015891760201c565b60008281526001602090815260409091206200063f9183906200160d6200077f821b17901c565b505050565b6000828152602081815260408083206001600160a01b038516845290915290205460ff1662000384576200068e816001600160a01b031660146200079f60201b620016221760201c565b620006a4836020620016226200079f821b17811c565b604051602001620006b792919062000a79565b60408051601f198184030181529082905262461bcd60e51b8252620003e79160040162000af2565b6000828152602081815260408083206001600160a01b038516845290915290205460ff1662000384576000828152602081815260408083206001600160a01b03851684529091529020805460ff191660011790556200073b3390565b6001600160a01b0316816001600160a01b0316837f2f8788117e7eff1d82e926ec794901d17c78024a50270940304540a733656f0d60405160405180910390a45050565b600062000796836001600160a01b03841662000958565b90505b92915050565b60606000620007b083600262000b27565b620007bd90600262000b49565b6001600160401b03811115620007d757620007d762000b64565b6040519080825280601f01601f19166020018201604052801562000802576020820181803683370190505b509050600360fc1b8160008151811062000820576200082062000a2f565b60200101906001600160f81b031916908160001a905350600f60fb1b8160018151811062000852576200085262000a2f565b60200101906001600160f81b031916908160001a90535060006200087884600262000b27565b6200088590600162000b49565b90505b600181111562000907576f181899199a1a9b1b9c1cb0b131b232b360811b85600f1660108110620008bd57620008bd62000a2f565b1a60f81b828281518110620008d657620008d662000a2f565b60200101906001600160f81b031916908160001a90535060049490941c93620008ff8162000b7a565b905062000888565b508315620007965760405162461bcd60e51b815260206004820181905260248201527f537472696e67733a20686578206c656e67746820696e73756666696369656e746044820152606401620003e7565b6000818152600183016020526040812054620009a15750815460018181018455600084815260208082209093018490558454848252828601909352604090209190915562000799565b50600062000799565b60005b83811015620009c7578181015183820152602001620009ad565b83811115620005fb5750506000910152565b60008251620009ed818460208701620009aa565b9190910192915050565b805160208201516001600160e01b0319808216929190600483101562000a275780818460040360031b1b83161693505b505050919050565b634e487b7160e01b600052603260045260246000fd5b634e487b7160e01b600052601160045260246000fd5b600060001982141562000a725762000a7262000a45565b5060010190565b7f416363657373436f6e74726f6c3a206163636f756e742000000000000000000081526000835162000ab3816017850160208801620009aa565b7001034b99036b4b9b9b4b733903937b6329607d1b601791840191820152835162000ae6816028840160208801620009aa565b01602801949350505050565b602081526000825180602084015262000b13816040850160208701620009aa565b601f01601f19169190910160400192915050565b600081600019048311821515161562000b445762000b4462000a45565b500290565b6000821982111562000b5f5762000b5f62000a45565b500190565b634e487b7160e01b600052604160045260246000fd5b60008162000b8c5762000b8c62000a45565b506000190190565b6124b78062000ba46000396000f3fe608060405234801561001057600080fd5b506004361061021c5760003560e01c806372e64ad611610125578063ca15c873116100ad578063e53fd7751161007c578063e53fd77514610521578063eaa8f7e314610534578063ed0b847614610547578063eef84ba11461055a578063fe32a5a21461056257600080fd5b8063ca15c873146104e0578063d391014b146104f3578063d547741f146104fb578063db8aa5381461050e57600080fd5b80639cece12e116100f45780639cece12e14610462578063a8798ffc14610475578063a9a4882414610488578063b34ff36e1461049b578063bb92e42c146104cd57600080fd5b806372e64ad6146103d757806375ee0e28146104115780639010d07c1461042457806391d148541461044f57600080fd5b80632f2ff15d116101a8578063404a8cca11610177578063404a8cca14610383578063441c62a8146103965780634bbef59b146103a95780635f242323146103b15780636a930a95146103c457600080fd5b80632f2ff15d14610337578063322d5fbc1461034a57806336568abe1461035d578063391bc2e51461037057600080fd5b806316279055116101ef57806316279055146102ac5780631fd413f8146102c05780632231cac2146102e0578063231683ae146102f3578063248a9ca31461030657600080fd5b806301ffc9a71461022157806303ed957f146102495780631093baa91461025e5780631555717c14610271575b600080fd5b61023461022f366004611ca4565b610575565b60405190151581526020015b60405180910390f35b61025c610257366004611cce565b6105ac565b005b61025c61026c366004611d58565b610629565b61028461027f366004611d75565b6106b3565b604080516001600160a01b0390931683526001600160e01b0319909116602083015201610240565b6102346102ba366004611d58565b3b151590565b6102d36102ce366004611dd5565b6106e8565b6040516102409190611e87565b61025c6102ee366004611ed4565b610792565b61025c610301366004611f15565b6107bb565b610329610314366004611d75565b60009081526020819052604090206001015490565b604051908152602001610240565b61025c610345366004611f4a565b6107f3565b610234610358366004611f7a565b61081e565b61025c61036b366004611f4a565b610908565b61032961037e366004611f7a565b610986565b61025c610391366004611ff4565b6109c0565b6102d36103a4366004611dd5565b610a44565b600254610329565b6102346103bf366004611d58565b610ae6565b61025c6103d2366004612048565b610b13565b61025c6103e5366004611f7a565b6001600160a01b0391821660009081526006602090815260408083209390941682529190915220429055565b61025c61041f36600461208a565b610bde565b610437610432366004612132565b610d7f565b6040516001600160a01b039091168152602001610240565b61023461045d366004611f4a565b610d9e565b610329610470366004611d58565b610dc7565b61025c610483366004611ff4565b610df1565b61025c610496366004611d58565b610e6e565b6104ae6104a9366004612154565b610ef0565b6040805182511515815260209283015115159281019290925201610240565b61025c6104db3660046121af565b611235565b6103296104ee366004611d75565b6112a4565b610329600081565b61025c610509366004611f4a565b6112bb565b61023461051c366004611d58565b6112e1565b61032961052f366004611d58565b61130e565b610234610542366004611d58565b61135c565b61025c610555366004611ed4565b6113ad565b61025c6113d6565b61025c610570366004611d58565b611505565b60006001600160e01b03198216635a05180f60e01b14806105a657506301ffc9a760e01b6001600160e01b03198316145b92915050565b60006105b881336117be565b60005b82811015610623576106118484838181106105d8576105d86121fb565b905060400201600001358585848181106105f4576105f46121fb565b905060400201602001602081019061060c9190611d58565b611822565b8061061b81612227565b9150506105bb565b50505050565b600061063581336117be565b6001600160a01b03821660009081526003602052604090205460ff161561068e5760405162461bcd60e51b815260206004820152600860248201526710d0910e88189bdd60c21b60448201526064015b60405180910390fd5b506001600160a01b03166000908152600360205260409020805460ff19166001179055565b600281815481106106c357600080fd5b6000918252602090912001546001600160a01b0381169150600160a01b900460e01b82565b606060006106f681336117be565b60005b835181101561078a5760046000858381518110610718576107186121fb565b6020908102919091018101516001600160a01b031682528101919091526040016000205460ff16610778576000848281518110610757576107576121fb565b60200260200101906001600160a01b031690816001600160a01b0316815250505b8061078281612227565b9150506106f9565b509192915050565b600061079e81336117be565b506001600160a01b03909116600090815260076020526040902055565b60006107c781336117be565b506001600160a01b03919091166000908152600460205260409020805460ff1916911515919091179055565b60008281526020819052604090206001015461080f81336117be565b6108198383611828565b505050565b6001600160a01b038216600090815260056020526040812054819061084457601e61085e565b6001600160a01b0384166000908152600560205260409020545b6001600160a01b038086166000908152600660209081526040808320938816835292905290812054919250904290610897908490612242565b1015806108fe5750833b1515806108c657506001600160a01b03841660009081526003602052604090205460ff165b80156108eb57506001600160a01b03841660009081526004602052604090205460ff16155b80156108fe57506108fc848661184a565b155b1595945050505050565b6001600160a01b03811633146109785760405162461bcd60e51b815260206004820152602f60248201527f416363657373436f6e74726f6c3a2063616e206f6e6c792072656e6f756e636560448201526e103937b632b9903337b91039b2b63360891b6064820152608401610685565b6109828282611a86565b5050565b60008061099381336117be565b50506001600160a01b03918216600090815260066020908152604080832093909416825291909152205490565b60006109cc81336117be565b60005b83811015610a3d5782600360008787858181106109ee576109ee6121fb565b9050602002016020810190610a039190611d58565b6001600160a01b031681526020810191909152604001600020805460ff191691151591909117905580610a3581612227565b9150506109cf565b5050505050565b60606000610a5281336117be565b60005b835181101561078a5760036000858381518110610a7457610a746121fb565b6020908102919091018101516001600160a01b031682528101919091526040016000205460ff16610ad4576000848281518110610ab357610ab36121fb565b60200260200101906001600160a01b031690816001600160a01b0316815250505b80610ade81612227565b915050610a55565b600080610af381336117be565b50506001600160a01b031660009081526003602052604090205460ff1690565b6000610b1f81336117be565b60005b828110156106235760036000858584818110610b4057610b406121fb565b9050602002016020810190610b559190611d58565b6001600160a01b0316815260208101919091526040016000205460ff16610bcc57600160036000868685818110610b8e57610b8e6121fb565b9050602002016020810190610ba39190611d58565b6001600160a01b031681526020810191909152604001600020805460ff19169115159190911790555b80610bd681612227565b915050610b22565b604080518082018252600060208201526001600160a01b038416815281516004815260248101928390529091610c15908490612286565b6040519081900390206020820180516001600160e01b03166001600160e01b0319909216919091179052610c48906122a2565b6001600160e01b03191660208201526000805b600254811015610d0c5760006001600160a01b031660028281548110610c8357610c836121fb565b6000918252602090912001546001600160a01b03161415610cfa57600191508260028281548110610cb657610cb66121fb565b6000918252602091829020835191018054939092015160e01c600160a01b026001600160c01b03199093166001600160a01b03909116179190911790555050505050565b80610d0481612227565b915050610c5b565b5080610623576002805460018101825560009190915282517f405787fa12a823e0f2b7631cc41b3ba8828b3321ca811111fa75cd3aa3bb5ace9091018054602085015160e01c600160a01b026001600160c01b03199091166001600160a01b039093169290921791909117905550505050565b6000828152600160205260408120610d979083611aa8565b9392505050565b6000918252602082815260408084206001600160a01b0393909316845291905290205460ff1690565b600080610dd481336117be565b50506001600160a01b031660009081526007602052604090205490565b6000610dfd81336117be565b60005b83811015610a3d578260046000878785818110610e1f57610e1f6121fb565b9050602002016020810190610e349190611d58565b6001600160a01b031681526020810191909152604001600020805460ff191691151591909117905580610e6681612227565b915050610e00565b6000610e7a81336117be565b6001600160a01b03821660009081526003602052604090205460ff16610ece5760405162461bcd60e51b815260206004820152600960248201526810d0910e8808589bdd60ba1b6044820152606401610685565b506001600160a01b03166000908152600360205260409020805460ff19169055565b60408051808201909152600080825260208201526000610f1081336117be565b6fffffffffffffffffffffffffffffffff6001600160a01b0387161015610f495760405162461bcd60e51b8152600401610685906122d9565b610f53858861184a565b15156020830152610f64868861184a565b151582526001600160a01b038716600090815260056020526040812054610f8c57601e610fa6565b6001600160a01b0388166000908152600560205260409020545b83519091508015610fb957508260200151155b8015610fce5750326001600160a01b03871614155b8015610fd95750853b155b8015610ffe57506001600160a01b03861660009081526004602052604090205460ff16155b801561107657506040516370a0823160e01b81526001600160a01b038781166004830152600191908a16906370a0823190602401602060405180830381865afa15801561104f573d6000803e3d6000fd5b505050506040513d601f19601f82011682018060405250810190611073919061231e565b11155b156110a3576001600160a01b0386166000908152600360205260409020805460ff19166001179055611152565b6001600160a01b03871660009081526004602052604090205460ff161580156110cb57508251155b80156111355750863b1515806110f957506001600160a01b03871660009081526003602052604090205460ff165b8061113557506001600160a01b038089166000908152600660209081526040808320938b16835292905220544290611132908390612242565b10155b156111525760405162461bcd60e51b8152600401610685906122d9565b6001600160a01b038716738888888ac6aa2482265e5346832cdd963c70a0d11480159061118757506001600160a01b03861615155b1561120c576111968585612242565b6001600160a01b03808a166000908152600660209081526040808320938b16835292905220546111c7908790612337565b6111d18642612337565b6111db9190612242565b6111e59190612356565b6001600160a01b03808a166000908152600660209081526040808320938b16835292905220555b825115801561121d57508260200151155b1561122a5761122a6113d6565b505095945050505050565b600061124181336117be565b60005b83811015610a3d578260076000878785818110611263576112636121fb565b90506020020160208101906112789190611d58565b6001600160a01b031681526020810191909152604001600020558061129c81612227565b915050611244565b60008181526001602052604081206105a690611ab4565b6000828152602081905260409020600101546112d781336117be565b6108198383611a86565b6000806112ee81336117be565b50506001600160a01b031660009081526004602052604090205460ff1690565b60008061131b81336117be565b6001600160a01b03831660009081526005602052604090205461133f57601e610d97565b50506001600160a01b031660009081526005602052604090205490565b60008061136981336117be565b6001600160a01b03831660009081526003602052604090205460ff168015610d97575050506001600160a01b031660009081526004602052604090205460ff161590565b60006113b981336117be565b506001600160a01b03909116600090815260056020526040902055565b60005b6002548110156115025760006001600160a01b031660028281548110611401576114016121fb565b6000918252602090912001546001600160a01b0316146114f0576002818154811061142e5761142e6121fb565b600091825260209091200154600280546001600160a01b03909216918390811061145a5761145a6121fb565b6000918252602091829020015460405161149092600160a01b90920460e01b91016001600160e01b031991909116815260040190565b60408051601f19818403018152908290526114aa91612286565b6000604051808303816000865af19150503d80600081146114e7576040519150601f19603f3d011682016040523d82523d6000602084013e6114ec565b606091505b5050505b806114fa81612227565b9150506113d9565b50565b60005b60025481101561098257816001600160a01b03166002828154811061152f5761152f6121fb565b6000918252602090912001546001600160a01b03161415611577576002818154811061155d5761155d6121fb565b600091825260209091200180546001600160c01b03191690555b8061158181612227565b915050611508565b6115938282610d9e565b610982576000828152602081815260408083206001600160a01b03851684529091529020805460ff191660011790556115c93390565b6001600160a01b0316816001600160a01b0316837f2f8788117e7eff1d82e926ec794901d17c78024a50270940304540a733656f0d60405160405180910390a45050565b6000610d97836001600160a01b038416611abe565b60606000611631836002612337565b61163c906002612242565b67ffffffffffffffff81111561165457611654611d8e565b6040519080825280601f01601f19166020018201604052801561167e576020820181803683370190505b509050600360fc1b81600081518110611699576116996121fb565b60200101906001600160f81b031916908160001a905350600f60fb1b816001815181106116c8576116c86121fb565b60200101906001600160f81b031916908160001a90535060006116ec846002612337565b6116f7906001612242565b90505b600181111561176f576f181899199a1a9b1b9c1cb0b131b232b360811b85600f166010811061172b5761172b6121fb565b1a60f81b828281518110611741576117416121fb565b60200101906001600160f81b031916908160001a90535060049490941c9361176881612378565b90506116fa565b508315610d975760405162461bcd60e51b815260206004820181905260248201527f537472696e67733a20686578206c656e67746820696e73756666696369656e746044820152606401610685565b6117c88282610d9e565b610982576117e0816001600160a01b03166014611622565b6117eb836020611622565b6040516020016117fc92919061238f565b60408051601f198184030181529082905262461bcd60e51b825261068591600401612404565b61098282825b6118328282611589565b6000828152600160205260409020610819908261160d565b6001600160a01b038216600090815260076020526040812054611a665760408051600481526024810182526020810180516001600160e01b0316630dfe168160e01b17905290516000916001600160a01b038616916118a99190612286565b600060405180830381855afa9150503d80600081146118e4576040519150601f19603f3d011682016040523d82523d6000602084013e6118e9565b606091505b5060408051600481526024810182526020810180516001600160e01b031663d21220a760e01b1790529051919350600092506001600160a01b038716916119309190612286565b600060405180830381855afa9150503d806000811461196b576040519150601f19603f3d011682016040523d82523d6000602084013e611970565b606091505b50915050600060148351101561198757600061199b565b8280602001905181019061199b9190612437565b905060006014835110156119b05760006119c4565b828060200190518101906119c49190612437565b9050856001600160a01b0316826001600160a01b03161480156119ef57506001600160a01b03811615155b80611a1e57506001600160a01b03821615801590611a1e5750856001600160a01b0316816001600160a01b0316145b15611a44576001600160a01b038716600090815260076020526040902060019055611a61565b6001600160a01b0387166000908152600760205260409020600290555b505050505b50506001600160a01b031660009081526007602052604090205460011490565b611a908282611b0d565b60008281526001602052604090206108199082611b72565b6000610d978383611b87565b60006105a6825490565b6000818152600183016020526040812054611b05575081546001818101845560008481526020808220909301849055845484825282860190935260409020919091556105a6565b5060006105a6565b611b178282610d9e565b15610982576000828152602081815260408083206001600160a01b0385168085529252808320805460ff1916905551339285917ff6391f5c32d9c69d2a47ea670b442974b53935d1edc7fd64eb21e047a839171b9190a45050565b6000610d97836001600160a01b038416611bb1565b6000826000018281548110611b9e57611b9e6121fb565b9060005260206000200154905092915050565b60008181526001830160205260408120548015611c9a576000611bd5600183612454565b8554909150600090611be990600190612454565b9050818114611c4e576000866000018281548110611c0957611c096121fb565b9060005260206000200154905080876000018481548110611c2c57611c2c6121fb565b6000918252602080832090910192909255918252600188019052604090208390555b8554869080611c5f57611c5f61246b565b6001900381819060005260206000200160009055905585600101600086815260200190815260200160002060009055600193505050506105a6565b60009150506105a6565b600060208284031215611cb657600080fd5b81356001600160e01b031981168114610d9757600080fd5b60008060208385031215611ce157600080fd5b823567ffffffffffffffff80821115611cf957600080fd5b818501915085601f830112611d0d57600080fd5b813581811115611d1c57600080fd5b8660208260061b8501011115611d3157600080fd5b60209290920196919550909350505050565b6001600160a01b038116811461150257600080fd5b600060208284031215611d6a57600080fd5b8135610d9781611d43565b600060208284031215611d8757600080fd5b5035919050565b634e487b7160e01b600052604160045260246000fd5b604051601f8201601f1916810167ffffffffffffffff81118282101715611dcd57611dcd611d8e565b604052919050565b60006020808385031215611de857600080fd5b823567ffffffffffffffff80821115611e0057600080fd5b818501915085601f830112611e1457600080fd5b813581811115611e2657611e26611d8e565b8060051b9150611e37848301611da4565b8181529183018401918481019088841115611e5157600080fd5b938501935b83851015611e7b5784359250611e6b83611d43565b8282529385019390850190611e56565b98975050505050505050565b6020808252825182820181905260009190848201906040850190845b81811015611ec85783516001600160a01b031683529284019291840191600101611ea3565b50909695505050505050565b60008060408385031215611ee757600080fd5b8235611ef281611d43565b946020939093013593505050565b80358015158114611f1057600080fd5b919050565b60008060408385031215611f2857600080fd5b8235611f3381611d43565b9150611f4160208401611f00565b90509250929050565b60008060408385031215611f5d57600080fd5b823591506020830135611f6f81611d43565b809150509250929050565b60008060408385031215611f8d57600080fd5b8235611f9881611d43565b91506020830135611f6f81611d43565b60008083601f840112611fba57600080fd5b50813567ffffffffffffffff811115611fd257600080fd5b6020830191508360208260051b8501011115611fed57600080fd5b9250929050565b60008060006040848603121561200957600080fd5b833567ffffffffffffffff81111561202057600080fd5b61202c86828701611fa8565b909450925061203f905060208501611f00565b90509250925092565b6000806020838503121561205b57600080fd5b823567ffffffffffffffff81111561207257600080fd5b61207e85828601611fa8565b90969095509350505050565b6000806040838503121561209d57600080fd5b82356120a881611d43565b915060208381013567ffffffffffffffff808211156120c657600080fd5b818601915086601f8301126120da57600080fd5b8135818111156120ec576120ec611d8e565b6120fe601f8201601f19168501611da4565b9150808252878482850101111561211457600080fd5b80848401858401376000848284010152508093505050509250929050565b6000806040838503121561214557600080fd5b50508035926020909101359150565b600080600080600060a0868803121561216c57600080fd5b853561217781611d43565b9450602086013561218781611d43565b9350604086013561219781611d43565b94979396509394606081013594506080013592915050565b6000806000604084860312156121c457600080fd5b833567ffffffffffffffff8111156121db57600080fd5b6121e786828701611fa8565b909790965060209590950135949350505050565b634e487b7160e01b600052603260045260246000fd5b634e487b7160e01b600052601160045260246000fd5b600060001982141561223b5761223b612211565b5060010190565b6000821982111561225557612255612211565b500190565b60005b8381101561227557818101518382015260200161225d565b838111156106235750506000910152565b6000825161229881846020870161225a565b9190910192915050565b805160208201516001600160e01b031980821692919060048310156122d15780818460040360031b1b83161693505b505050919050565b60208082526025908201527f4342443a205472616e7366657273206172652074656d706f726172792064697360408201526418589b195960da1b606082015260800190565b60006020828403121561233057600080fd5b5051919050565b600081600019048311821515161561235157612351612211565b500290565b60008261237357634e487b7160e01b600052601260045260246000fd5b500490565b60008161238757612387612211565b506000190190565b7f416363657373436f6e74726f6c3a206163636f756e74200000000000000000008152600083516123c781601785016020880161225a565b7001034b99036b4b9b9b4b733903937b6329607d1b60179184019182015283516123f881602884016020880161225a565b01602801949350505050565b602081526000825180602084015261242381604085016020870161225a565b601f01601f19169190910160400192915050565b60006020828403121561244957600080fd5b8151610d9781611d43565b60008282101561246657612466612211565b500390565b634e487b7160e01b600052603160045260246000fdfea2646970667358221220558606f0564694e91791886e4e1282a1f0f77d78c2e6a181d43381ac405894c664736f6c634300080b0033",
			"opcodes": "PUSH1 0x80 PUSH1 0x40 MSTORE CALLVALUE DUP1 ISZERO PUSH3 0x11 JUMPI PUSH1 0x0 DUP1 REVERT JUMPDEST POP PUSH3 0x1F PUSH1 0x0 CALLER PUSH3 0x378 JUMP JUMPDEST PUSH3 0x40 PUSH1 0x0 PUSH20 0x543A000A9FBE139FF783B2F8EBDF8869452DC21D PUSH3 0x378 JUMP JUMPDEST PUSH3 0x61 PUSH1 0x0 PUSH20 0x8888888AC6AA2482265E5346832CDD963C70A0D1 PUSH3 0x378 JUMP JUMPDEST PUSH3 0x82 PUSH1 0x0 PUSH20 0xEF038429E3BAAF784E1DE93075070DF2A43D4278 PUSH3 0x378 JUMP JUMPDEST PUSH3 0xA3 PUSH1 0x0 PUSH20 0x9980A0447456B5CDCE209D7DC94820FF15600022 PUSH3 0x378 JUMP JUMPDEST PUSH3 0xC4 PUSH1 0x0 PUSH20 0xDEF1FAC7BF08F173D286BBBDCBEEADE695129840 PUSH3 0x378 JUMP JUMPDEST PUSH3 0xE3 PUSH20 0xC25E850F6CEDE52809014D4EECCA402EB47BDC28 PUSH3 0x388 JUMP JUMPDEST PUSH3 0x104 PUSH20 0x8888888AC6AA2482265E5346832CDD963C70A0D1 PUSH1 0x1 PUSH3 0x415 JUMP JUMPDEST PUSH3 0x125 PUSH20 0xDEF78A28C78A461598D948BC0C689CE88F812AD8 PUSH1 0x1 PUSH3 0x415 JUMP JUMPDEST PUSH3 0x146 PUSH20 0xDEF1C0DED9BEC7F1A1670819833240F027B25EFF PUSH1 0x1 PUSH3 0x415 JUMP JUMPDEST PUSH3 0x167 PUSH20 0x1111111254FB6C44BAC0BED2854E76F90643097D PUSH1 0x1 PUSH3 0x415 JUMP JUMPDEST PUSH3 0x188 PUSH20 0xC590175E458B83680867AFD273527FF58F74C02B PUSH1 0x1 PUSH3 0x415 JUMP JUMPDEST PUSH3 0x1A9 PUSH20 0x3790C9B5A9B9D9AA1C69140A5F01A57C9B868E1E PUSH1 0x1 PUSH3 0x415 JUMP JUMPDEST PUSH3 0x1CA PUSH20 0x2EC255797FEF7669FA243509B7A599121148FFBA PUSH1 0x1 PUSH3 0x415 JUMP JUMPDEST PUSH3 0x1EB PUSH20 0x220BDA5C8994804AC96EBE4DF184D25E5C2196D4 PUSH1 0x1 PUSH3 0x415 JUMP JUMPDEST PUSH3 0x20C PUSH20 0xDEF1FAC7BF08F173D286BBBDCBEEADE695129840 PUSH1 0x1 PUSH3 0x415 JUMP JUMPDEST PUSH3 0x22D PUSH20 0x881D40237659C251811CEC9C364EF91DC08D300C PUSH1 0x1 PUSH3 0x415 JUMP JUMPDEST PUSH3 0x24E PUSH20 0x74DE5D4FCBF63E00296FD95D33236B9794016631 PUSH1 0x1 PUSH3 0x415 JUMP JUMPDEST PUSH3 0x26F PUSH20 0xE122D2E14D35D794C977B4D6924232CAE7C8DBB5 PUSH1 0x1 PUSH3 0x415 JUMP JUMPDEST PUSH1 0x1 CHAINID EQ ISZERO PUSH3 0x2C1 JUMPI PUSH3 0x29A PUSH20 0x7A250D5630B4CF539739DF2C5DACB4C659F2488D PUSH1 0x1 PUSH3 0x415 JUMP JUMPDEST PUSH3 0x2BB PUSH20 0xE592427A0AECE92DE3EDEE1F18E0157C05861564 PUSH1 0x1 PUSH3 0x415 JUMP JUMPDEST PUSH3 0x317 JUMP JUMPDEST PUSH1 0x38 CHAINID EQ ISZERO PUSH3 0x2EC JUMPI PUSH3 0x2BB PUSH20 0x10ED43C718714EB63D5AA57B78B54704E256024E PUSH1 0x1 PUSH3 0x415 JUMP JUMPDEST PUSH1 0x89 CHAINID EQ ISZERO PUSH3 0x317 JUMPI PUSH3 0x317 PUSH20 0xA5E0829CACED8FFDD4DE3C43696C57F7D7A678FF PUSH1 0x1 PUSH3 0x415 JUMP JUMPDEST PUSH3 0x372 PUSH20 0x8888888AC6AA2482265E5346832CDD963C70A0D1 PUSH1 0x40 MLOAD DUP1 PUSH1 0x40 ADD PUSH1 0x40 MSTORE DUP1 PUSH1 0x14 DUP2 MSTORE PUSH1 0x20 ADD PUSH32 0x757064617465416C6C536E617073686F74732829000000000000000000000000 DUP2 MSTORE POP PUSH3 0x44F PUSH1 0x20 SHL PUSH1 0x20 SHR JUMP JUMPDEST PUSH3 0xB94 JUMP JUMPDEST PUSH3 0x384 DUP3 DUP3 PUSH3 0x601 JUMP JUMPDEST POP POP JUMP JUMPDEST PUSH1 0x0 PUSH3 0x396 DUP2 CALLER PUSH3 0x644 JUMP JUMPDEST PUSH1 0x1 PUSH1 0x1 PUSH1 0xA0 SHL SUB DUP3 AND PUSH1 0x0 SWAP1 DUP2 MSTORE PUSH1 0x3 PUSH1 0x20 MSTORE PUSH1 0x40 SWAP1 KECCAK256 SLOAD PUSH1 0xFF AND ISZERO PUSH3 0x3F0 JUMPI PUSH1 0x40 MLOAD PUSH3 0x461BCD PUSH1 0xE5 SHL DUP2 MSTORE PUSH1 0x20 PUSH1 0x4 DUP3 ADD MSTORE PUSH1 0x8 PUSH1 0x24 DUP3 ADD MSTORE PUSH8 0x10D0910E88189BDD PUSH1 0xC2 SHL PUSH1 0x44 DUP3 ADD MSTORE PUSH1 0x64 ADD JUMPDEST PUSH1 0x40 MLOAD DUP1 SWAP2 SUB SWAP1 REVERT JUMPDEST POP PUSH1 0x1 PUSH1 0x1 PUSH1 0xA0 SHL SUB AND PUSH1 0x0 SWAP1 DUP2 MSTORE PUSH1 0x3 PUSH1 0x20 MSTORE PUSH1 0x40 SWAP1 KECCAK256 DUP1 SLOAD PUSH1 0xFF NOT AND PUSH1 0x1 OR SWAP1 SSTORE JUMP JUMPDEST PUSH1 0x0 PUSH3 0x423 DUP2 CALLER PUSH3 0x644 JUMP JUMPDEST POP PUSH1 0x1 PUSH1 0x1 PUSH1 0xA0 SHL SUB SWAP2 SWAP1 SWAP2 AND PUSH1 0x0 SWAP1 DUP2 MSTORE PUSH1 0x4 PUSH1 0x20 MSTORE PUSH1 0x40 SWAP1 KECCAK256 DUP1 SLOAD PUSH1 0xFF NOT AND SWAP2 ISZERO ISZERO SWAP2 SWAP1 SWAP2 OR SWAP1 SSTORE JUMP JUMPDEST PUSH1 0x40 DUP1 MLOAD DUP1 DUP3 ADD DUP3 MSTORE PUSH1 0x0 PUSH1 0x20 DUP3 ADD MSTORE PUSH1 0x1 PUSH1 0x1 PUSH1 0xA0 SHL SUB DUP5 AND DUP2 MSTORE DUP2 MLOAD PUSH1 0x4 DUP2 MSTORE PUSH1 0x24 DUP2 ADD SWAP3 DUP4 SWAP1 MSTORE SWAP1 SWAP2 PUSH3 0x488 SWAP1 DUP5 SWAP1 PUSH3 0x9D9 JUMP JUMPDEST PUSH1 0x40 MLOAD SWAP1 DUP2 SWAP1 SUB SWAP1 KECCAK256 PUSH1 0x20 DUP3 ADD DUP1 MLOAD PUSH1 0x1 PUSH1 0x1 PUSH1 0xE0 SHL SUB AND PUSH1 0x1 PUSH1 0x1 PUSH1 0xE0 SHL SUB NOT SWAP1 SWAP3 AND SWAP2 SWAP1 SWAP2 OR SWAP1 MSTORE PUSH3 0x4BD SWAP1 PUSH3 0x9F7 JUMP JUMPDEST PUSH1 0x1 PUSH1 0x1 PUSH1 0xE0 SHL SUB NOT AND PUSH1 0x20 DUP3 ADD MSTORE PUSH1 0x0 DUP1 JUMPDEST PUSH1 0x2 SLOAD DUP2 LT ISZERO PUSH3 0x58C JUMPI PUSH1 0x0 PUSH1 0x1 PUSH1 0x1 PUSH1 0xA0 SHL SUB AND PUSH1 0x2 DUP3 DUP2 SLOAD DUP2 LT PUSH3 0x4FC JUMPI PUSH3 0x4FC PUSH3 0xA2F JUMP JUMPDEST PUSH1 0x0 SWAP2 DUP3 MSTORE PUSH1 0x20 SWAP1 SWAP2 KECCAK256 ADD SLOAD PUSH1 0x1 PUSH1 0x1 PUSH1 0xA0 SHL SUB AND EQ ISZERO PUSH3 0x577 JUMPI PUSH1 0x1 SWAP2 POP DUP3 PUSH1 0x2 DUP3 DUP2 SLOAD DUP2 LT PUSH3 0x533 JUMPI PUSH3 0x533 PUSH3 0xA2F JUMP JUMPDEST PUSH1 0x0 SWAP2 DUP3 MSTORE PUSH1 0x20 SWAP2 DUP3 SWAP1 KECCAK256 DUP4 MLOAD SWAP2 ADD DUP1 SLOAD SWAP4 SWAP1 SWAP3 ADD MLOAD PUSH1 0xE0 SHR PUSH1 0x1 PUSH1 0xA0 SHL MUL PUSH1 0x1 PUSH1 0x1 PUSH1 0xC0 SHL SUB NOT SWAP1 SWAP4 AND PUSH1 0x1 PUSH1 0x1 PUSH1 0xA0 SHL SUB SWAP1 SWAP2 AND OR SWAP2 SWAP1 SWAP2 OR SWAP1 SSTORE POP POP POP POP POP JUMP JUMPDEST DUP1 PUSH3 0x583 DUP2 PUSH3 0xA5B JUMP JUMPDEST SWAP2 POP POP PUSH3 0x4D0 JUMP JUMPDEST POP DUP1 PUSH3 0x5FB JUMPI PUSH1 0x2 DUP1 SLOAD PUSH1 0x1 DUP2 ADD DUP3 SSTORE PUSH1 0x0 SWAP2 SWAP1 SWAP2 MSTORE DUP3 MLOAD PUSH32 0x405787FA12A823E0F2B7631CC41B3BA8828B3321CA811111FA75CD3AA3BB5ACE SWAP1 SWAP2 ADD DUP1 SLOAD PUSH1 0x20 DUP6 ADD MLOAD PUSH1 0xE0 SHR PUSH1 0x1 PUSH1 0xA0 SHL MUL PUSH1 0x1 PUSH1 0x1 PUSH1 0xC0 SHL SUB NOT SWAP1 SWAP2 AND PUSH1 0x1 PUSH1 0x1 PUSH1 0xA0 SHL SUB SWAP1 SWAP4 AND SWAP3 SWAP1 SWAP3 OR SWAP2 SWAP1 SWAP2 OR SWAP1 SSTORE JUMPDEST POP POP POP POP JUMP JUMPDEST PUSH3 0x618 DUP3 DUP3 PUSH3 0x6DF PUSH1 0x20 SHL PUSH3 0x1589 OR PUSH1 0x20 SHR JUMP JUMPDEST PUSH1 0x0 DUP3 DUP2 MSTORE PUSH1 0x1 PUSH1 0x20 SWAP1 DUP2 MSTORE PUSH1 0x40 SWAP1 SWAP2 KECCAK256 PUSH3 0x63F SWAP2 DUP4 SWAP1 PUSH3 0x160D PUSH3 0x77F DUP3 SHL OR SWAP1 SHR JUMP JUMPDEST POP POP POP JUMP JUMPDEST PUSH1 0x0 DUP3 DUP2 MSTORE PUSH1 0x20 DUP2 DUP2 MSTORE PUSH1 0x40 DUP1 DUP4 KECCAK256 PUSH1 0x1 PUSH1 0x1 PUSH1 0xA0 SHL SUB DUP6 AND DUP5 MSTORE SWAP1 SWAP2 MSTORE SWAP1 KECCAK256 SLOAD PUSH1 0xFF AND PUSH3 0x384 JUMPI PUSH3 0x68E DUP2 PUSH1 0x1 PUSH1 0x1 PUSH1 0xA0 SHL SUB AND PUSH1 0x14 PUSH3 0x79F PUSH1 0x20 SHL PUSH3 0x1622 OR PUSH1 0x20 SHR JUMP JUMPDEST PUSH3 0x6A4 DUP4 PUSH1 0x20 PUSH3 0x1622 PUSH3 0x79F DUP3 SHL OR DUP2 SHR JUMP JUMPDEST PUSH1 0x40 MLOAD PUSH1 0x20 ADD PUSH3 0x6B7 SWAP3 SWAP2 SWAP1 PUSH3 0xA79 JUMP JUMPDEST PUSH1 0x40 DUP1 MLOAD PUSH1 0x1F NOT DUP2 DUP5 SUB ADD DUP2 MSTORE SWAP1 DUP3 SWAP1 MSTORE PUSH3 0x461BCD PUSH1 0xE5 SHL DUP3 MSTORE PUSH3 0x3E7 SWAP2 PUSH1 0x4 ADD PUSH3 0xAF2 JUMP JUMPDEST PUSH1 0x0 DUP3 DUP2 MSTORE PUSH1 0x20 DUP2 DUP2 MSTORE PUSH1 0x40 DUP1 DUP4 KECCAK256 PUSH1 0x1 PUSH1 0x1 PUSH1 0xA0 SHL SUB DUP6 AND DUP5 MSTORE SWAP1 SWAP2 MSTORE SWAP1 KECCAK256 SLOAD PUSH1 0xFF AND PUSH3 0x384 JUMPI PUSH1 0x0 DUP3 DUP2 MSTORE PUSH1 0x20 DUP2 DUP2 MSTORE PUSH1 0x40 DUP1 DUP4 KECCAK256 PUSH1 0x1 PUSH1 0x1 PUSH1 0xA0 SHL SUB DUP6 AND DUP5 MSTORE SWAP1 SWAP2 MSTORE SWAP1 KECCAK256 DUP1 SLOAD PUSH1 0xFF NOT AND PUSH1 0x1 OR SWAP1 SSTORE PUSH3 0x73B CALLER SWAP1 JUMP JUMPDEST PUSH1 0x1 PUSH1 0x1 PUSH1 0xA0 SHL SUB AND DUP2 PUSH1 0x1 PUSH1 0x1 PUSH1 0xA0 SHL SUB AND DUP4 PUSH32 0x2F8788117E7EFF1D82E926EC794901D17C78024A50270940304540A733656F0D PUSH1 0x40 MLOAD PUSH1 0x40 MLOAD DUP1 SWAP2 SUB SWAP1 LOG4 POP POP JUMP JUMPDEST PUSH1 0x0 PUSH3 0x796 DUP4 PUSH1 0x1 PUSH1 0x1 PUSH1 0xA0 SHL SUB DUP5 AND PUSH3 0x958 JUMP JUMPDEST SWAP1 POP JUMPDEST SWAP3 SWAP2 POP POP JUMP JUMPDEST PUSH1 0x60 PUSH1 0x0 PUSH3 0x7B0 DUP4 PUSH1 0x2 PUSH3 0xB27 JUMP JUMPDEST PUSH3 0x7BD SWAP1 PUSH1 0x2 PUSH3 0xB49 JUMP JUMPDEST PUSH1 0x1 PUSH1 0x1 PUSH1 0x40 SHL SUB DUP2 GT ISZERO PUSH3 0x7D7 JUMPI PUSH3 0x7D7 PUSH3 0xB64 JUMP JUMPDEST PUSH1 0x40 MLOAD SWAP1 DUP1 DUP3 MSTORE DUP1 PUSH1 0x1F ADD PUSH1 0x1F NOT AND PUSH1 0x20 ADD DUP3 ADD PUSH1 0x40 MSTORE DUP1 ISZERO PUSH3 0x802 JUMPI PUSH1 0x20 DUP3 ADD DUP2 DUP1 CALLDATASIZE DUP4 CALLDATACOPY ADD SWAP1 POP JUMPDEST POP SWAP1 POP PUSH1 0x3 PUSH1 0xFC SHL DUP2 PUSH1 0x0 DUP2 MLOAD DUP2 LT PUSH3 0x820 JUMPI PUSH3 0x820 PUSH3 0xA2F JUMP JUMPDEST PUSH1 0x20 ADD ADD SWAP1 PUSH1 0x1 PUSH1 0x1 PUSH1 0xF8 SHL SUB NOT AND SWAP1 DUP2 PUSH1 0x0 BYTE SWAP1 MSTORE8 POP PUSH1 0xF PUSH1 0xFB SHL DUP2 PUSH1 0x1 DUP2 MLOAD DUP2 LT PUSH3 0x852 JUMPI PUSH3 0x852 PUSH3 0xA2F JUMP JUMPDEST PUSH1 0x20 ADD ADD SWAP1 PUSH1 0x1 PUSH1 0x1 PUSH1 0xF8 SHL SUB NOT AND SWAP1 DUP2 PUSH1 0x0 BYTE SWAP1 MSTORE8 POP PUSH1 0x0 PUSH3 0x878 DUP5 PUSH1 0x2 PUSH3 0xB27 JUMP JUMPDEST PUSH3 0x885 SWAP1 PUSH1 0x1 PUSH3 0xB49 JUMP JUMPDEST SWAP1 POP JUMPDEST PUSH1 0x1 DUP2 GT ISZERO PUSH3 0x907 JUMPI PUSH16 0x181899199A1A9B1B9C1CB0B131B232B3 PUSH1 0x81 SHL DUP6 PUSH1 0xF AND PUSH1 0x10 DUP2 LT PUSH3 0x8BD JUMPI PUSH3 0x8BD PUSH3 0xA2F JUMP JUMPDEST BYTE PUSH1 0xF8 SHL DUP3 DUP3 DUP2 MLOAD DUP2 LT PUSH3 0x8D6 JUMPI PUSH3 0x8D6 PUSH3 0xA2F JUMP JUMPDEST PUSH1 0x20 ADD ADD SWAP1 PUSH1 0x1 PUSH1 0x1 PUSH1 0xF8 SHL SUB NOT AND SWAP1 DUP2 PUSH1 0x0 BYTE SWAP1 MSTORE8 POP PUSH1 0x4 SWAP5 SWAP1 SWAP5 SHR SWAP4 PUSH3 0x8FF DUP2 PUSH3 0xB7A JUMP JUMPDEST SWAP1 POP PUSH3 0x888 JUMP JUMPDEST POP DUP4 ISZERO PUSH3 0x796 JUMPI PUSH1 0x40 MLOAD PUSH3 0x461BCD PUSH1 0xE5 SHL DUP2 MSTORE PUSH1 0x20 PUSH1 0x4 DUP3 ADD DUP2 SWAP1 MSTORE PUSH1 0x24 DUP3 ADD MSTORE PUSH32 0x537472696E67733A20686578206C656E67746820696E73756666696369656E74 PUSH1 0x44 DUP3 ADD MSTORE PUSH1 0x64 ADD PUSH3 0x3E7 JUMP JUMPDEST PUSH1 0x0 DUP2 DUP2 MSTORE PUSH1 0x1 DUP4 ADD PUSH1 0x20 MSTORE PUSH1 0x40 DUP2 KECCAK256 SLOAD PUSH3 0x9A1 JUMPI POP DUP2 SLOAD PUSH1 0x1 DUP2 DUP2 ADD DUP5 SSTORE PUSH1 0x0 DUP5 DUP2 MSTORE PUSH1 0x20 DUP1 DUP3 KECCAK256 SWAP1 SWAP4 ADD DUP5 SWAP1 SSTORE DUP5 SLOAD DUP5 DUP3 MSTORE DUP3 DUP7 ADD SWAP1 SWAP4 MSTORE PUSH1 0x40 SWAP1 KECCAK256 SWAP2 SWAP1 SWAP2 SSTORE PUSH3 0x799 JUMP JUMPDEST POP PUSH1 0x0 PUSH3 0x799 JUMP JUMPDEST PUSH1 0x0 JUMPDEST DUP4 DUP2 LT ISZERO PUSH3 0x9C7 JUMPI DUP2 DUP2 ADD MLOAD DUP4 DUP3 ADD MSTORE PUSH1 0x20 ADD PUSH3 0x9AD JUMP JUMPDEST DUP4 DUP2 GT ISZERO PUSH3 0x5FB JUMPI POP POP PUSH1 0x0 SWAP2 ADD MSTORE JUMP JUMPDEST PUSH1 0x0 DUP3 MLOAD PUSH3 0x9ED DUP2 DUP5 PUSH1 0x20 DUP8 ADD PUSH3 0x9AA JUMP JUMPDEST SWAP2 SWAP1 SWAP2 ADD SWAP3 SWAP2 POP POP JUMP JUMPDEST DUP1 MLOAD PUSH1 0x20 DUP3 ADD MLOAD PUSH1 0x1 PUSH1 0x1 PUSH1 0xE0 SHL SUB NOT DUP1 DUP3 AND SWAP3 SWAP2 SWAP1 PUSH1 0x4 DUP4 LT ISZERO PUSH3 0xA27 JUMPI DUP1 DUP2 DUP5 PUSH1 0x4 SUB PUSH1 0x3 SHL SHL DUP4 AND AND SWAP4 POP JUMPDEST POP POP POP SWAP2 SWAP1 POP JUMP JUMPDEST PUSH4 0x4E487B71 PUSH1 0xE0 SHL PUSH1 0x0 MSTORE PUSH1 0x32 PUSH1 0x4 MSTORE PUSH1 0x24 PUSH1 0x0 REVERT JUMPDEST PUSH4 0x4E487B71 PUSH1 0xE0 SHL PUSH1 0x0 MSTORE PUSH1 0x11 PUSH1 0x4 MSTORE PUSH1 0x24 PUSH1 0x0 REVERT JUMPDEST PUSH1 0x0 PUSH1 0x0 NOT DUP3 EQ ISZERO PUSH3 0xA72 JUMPI PUSH3 0xA72 PUSH3 0xA45 JUMP JUMPDEST POP PUSH1 0x1 ADD SWAP1 JUMP JUMPDEST PUSH32 0x416363657373436F6E74726F6C3A206163636F756E7420000000000000000000 DUP2 MSTORE PUSH1 0x0 DUP4 MLOAD PUSH3 0xAB3 DUP2 PUSH1 0x17 DUP6 ADD PUSH1 0x20 DUP9 ADD PUSH3 0x9AA JUMP JUMPDEST PUSH17 0x1034B99036B4B9B9B4B733903937B6329 PUSH1 0x7D SHL PUSH1 0x17 SWAP2 DUP5 ADD SWAP2 DUP3 ADD MSTORE DUP4 MLOAD PUSH3 0xAE6 DUP2 PUSH1 0x28 DUP5 ADD PUSH1 0x20 DUP9 ADD PUSH3 0x9AA JUMP JUMPDEST ADD PUSH1 0x28 ADD SWAP5 SWAP4 POP POP POP POP JUMP JUMPDEST PUSH1 0x20 DUP2 MSTORE PUSH1 0x0 DUP3 MLOAD DUP1 PUSH1 0x20 DUP5 ADD MSTORE PUSH3 0xB13 DUP2 PUSH1 0x40 DUP6 ADD PUSH1 0x20 DUP8 ADD PUSH3 0x9AA JUMP JUMPDEST PUSH1 0x1F ADD PUSH1 0x1F NOT AND SWAP2 SWAP1 SWAP2 ADD PUSH1 0x40 ADD SWAP3 SWAP2 POP POP JUMP JUMPDEST PUSH1 0x0 DUP2 PUSH1 0x0 NOT DIV DUP4 GT DUP3 ISZERO ISZERO AND ISZERO PUSH3 0xB44 JUMPI PUSH3 0xB44 PUSH3 0xA45 JUMP JUMPDEST POP MUL SWAP1 JUMP JUMPDEST PUSH1 0x0 DUP3 NOT DUP3 GT ISZERO PUSH3 0xB5F JUMPI PUSH3 0xB5F PUSH3 0xA45 JUMP JUMPDEST POP ADD SWAP1 JUMP JUMPDEST PUSH4 0x4E487B71 PUSH1 0xE0 SHL PUSH1 0x0 MSTORE PUSH1 0x41 PUSH1 0x4 MSTORE PUSH1 0x24 PUSH1 0x0 REVERT JUMPDEST PUSH1 0x0 DUP2 PUSH3 0xB8C JUMPI PUSH3 0xB8C PUSH3 0xA45 JUMP JUMPDEST POP PUSH1 0x0 NOT ADD SWAP1 JUMP JUMPDEST PUSH2 0x24B7 DUP1 PUSH3 0xBA4 PUSH1 0x0 CODECOPY PUSH1 0x0 RETURN INVALID PUSH1 0x80 PUSH1 0x40 MSTORE CALLVALUE DUP1 ISZERO PUSH2 0x10 JUMPI PUSH1 0x0 DUP1 REVERT JUMPDEST POP PUSH1 0x4 CALLDATASIZE LT PUSH2 0x21C JUMPI PUSH1 0x0 CALLDATALOAD PUSH1 0xE0 SHR DUP1 PUSH4 0x72E64AD6 GT PUSH2 0x125 JUMPI DUP1 PUSH4 0xCA15C873 GT PUSH2 0xAD JUMPI DUP1 PUSH4 0xE53FD775 GT PUSH2 0x7C JUMPI DUP1 PUSH4 0xE53FD775 EQ PUSH2 0x521 JUMPI DUP1 PUSH4 0xEAA8F7E3 EQ PUSH2 0x534 JUMPI DUP1 PUSH4 0xED0B8476 EQ PUSH2 0x547 JUMPI DUP1 PUSH4 0xEEF84BA1 EQ PUSH2 0x55A JUMPI DUP1 PUSH4 0xFE32A5A2 EQ PUSH2 0x562 JUMPI PUSH1 0x0 DUP1 REVERT JUMPDEST DUP1 PUSH4 0xCA15C873 EQ PUSH2 0x4E0 JUMPI DUP1 PUSH4 0xD391014B EQ PUSH2 0x4F3 JUMPI DUP1 PUSH4 0xD547741F EQ PUSH2 0x4FB JUMPI DUP1 PUSH4 0xDB8AA538 EQ PUSH2 0x50E JUMPI PUSH1 0x0 DUP1 REVERT JUMPDEST DUP1 PUSH4 0x9CECE12E GT PUSH2 0xF4 JUMPI DUP1 PUSH4 0x9CECE12E EQ PUSH2 0x462 JUMPI DUP1 PUSH4 0xA8798FFC EQ PUSH2 0x475 JUMPI DUP1 PUSH4 0xA9A48824 EQ PUSH2 0x488 JUMPI DUP1 PUSH4 0xB34FF36E EQ PUSH2 0x49B JUMPI DUP1 PUSH4 0xBB92E42C EQ PUSH2 0x4CD JUMPI PUSH1 0x0 DUP1 REVERT JUMPDEST DUP1 PUSH4 0x72E64AD6 EQ PUSH2 0x3D7 JUMPI DUP1 PUSH4 0x75EE0E28 EQ PUSH2 0x411 JUMPI DUP1 PUSH4 0x9010D07C EQ PUSH2 0x424 JUMPI DUP1 PUSH4 0x91D14854 EQ PUSH2 0x44F JUMPI PUSH1 0x0 DUP1 REVERT JUMPDEST DUP1 PUSH4 0x2F2FF15D GT PUSH2 0x1A8 JUMPI DUP1 PUSH4 0x404A8CCA GT PUSH2 0x177 JUMPI DUP1 PUSH4 0x404A8CCA EQ PUSH2 0x383 JUMPI DUP1 PUSH4 0x441C62A8 EQ PUSH2 0x396 JUMPI DUP1 PUSH4 0x4BBEF59B EQ PUSH2 0x3A9 JUMPI DUP1 PUSH4 0x5F242323 EQ PUSH2 0x3B1 JUMPI DUP1 PUSH4 0x6A930A95 EQ PUSH2 0x3C4 JUMPI PUSH1 0x0 DUP1 REVERT JUMPDEST DUP1 PUSH4 0x2F2FF15D EQ PUSH2 0x337 JUMPI DUP1 PUSH4 0x322D5FBC EQ PUSH2 0x34A JUMPI DUP1 PUSH4 0x36568ABE EQ PUSH2 0x35D JUMPI DUP1 PUSH4 0x391BC2E5 EQ PUSH2 0x370 JUMPI PUSH1 0x0 DUP1 REVERT JUMPDEST DUP1 PUSH4 0x16279055 GT PUSH2 0x1EF JUMPI DUP1 PUSH4 0x16279055 EQ PUSH2 0x2AC JUMPI DUP1 PUSH4 0x1FD413F8 EQ PUSH2 0x2C0 JUMPI DUP1 PUSH4 0x2231CAC2 EQ PUSH2 0x2E0 JUMPI DUP1 PUSH4 0x231683AE EQ PUSH2 0x2F3 JUMPI DUP1 PUSH4 0x248A9CA3 EQ PUSH2 0x306 JUMPI PUSH1 0x0 DUP1 REVERT JUMPDEST DUP1 PUSH4 0x1FFC9A7 EQ PUSH2 0x221 JUMPI DUP1 PUSH4 0x3ED957F EQ PUSH2 0x249 JUMPI DUP1 PUSH4 0x1093BAA9 EQ PUSH2 0x25E JUMPI DUP1 PUSH4 0x1555717C EQ PUSH2 0x271 JUMPI JUMPDEST PUSH1 0x0 DUP1 REVERT JUMPDEST PUSH2 0x234 PUSH2 0x22F CALLDATASIZE PUSH1 0x4 PUSH2 0x1CA4 JUMP JUMPDEST PUSH2 0x575 JUMP JUMPDEST PUSH1 0x40 MLOAD SWAP1 ISZERO ISZERO DUP2 MSTORE PUSH1 0x20 ADD JUMPDEST PUSH1 0x40 MLOAD DUP1 SWAP2 SUB SWAP1 RETURN JUMPDEST PUSH2 0x25C PUSH2 0x257 CALLDATASIZE PUSH1 0x4 PUSH2 0x1CCE JUMP JUMPDEST PUSH2 0x5AC JUMP JUMPDEST STOP JUMPDEST PUSH2 0x25C PUSH2 0x26C CALLDATASIZE PUSH1 0x4 PUSH2 0x1D58 JUMP JUMPDEST PUSH2 0x629 JUMP JUMPDEST PUSH2 0x284 PUSH2 0x27F CALLDATASIZE PUSH1 0x4 PUSH2 0x1D75 JUMP JUMPDEST PUSH2 0x6B3 JUMP JUMPDEST PUSH1 0x40 DUP1 MLOAD PUSH1 0x1 PUSH1 0x1 PUSH1 0xA0 SHL SUB SWAP1 SWAP4 AND DUP4 MSTORE PUSH1 0x1 PUSH1 0x1 PUSH1 0xE0 SHL SUB NOT SWAP1 SWAP2 AND PUSH1 0x20 DUP4 ADD MSTORE ADD PUSH2 0x240 JUMP JUMPDEST PUSH2 0x234 PUSH2 0x2BA CALLDATASIZE PUSH1 0x4 PUSH2 0x1D58 JUMP JUMPDEST EXTCODESIZE ISZERO ISZERO SWAP1 JUMP JUMPDEST PUSH2 0x2D3 PUSH2 0x2CE CALLDATASIZE PUSH1 0x4 PUSH2 0x1DD5 JUMP JUMPDEST PUSH2 0x6E8 JUMP JUMPDEST PUSH1 0x40 MLOAD PUSH2 0x240 SWAP2 SWAP1 PUSH2 0x1E87 JUMP JUMPDEST PUSH2 0x25C PUSH2 0x2EE CALLDATASIZE PUSH1 0x4 PUSH2 0x1ED4 JUMP JUMPDEST PUSH2 0x792 JUMP JUMPDEST PUSH2 0x25C PUSH2 0x301 CALLDATASIZE PUSH1 0x4 PUSH2 0x1F15 JUMP JUMPDEST PUSH2 0x7BB JUMP JUMPDEST PUSH2 0x329 PUSH2 0x314 CALLDATASIZE PUSH1 0x4 PUSH2 0x1D75 JUMP JUMPDEST PUSH1 0x0 SWAP1 DUP2 MSTORE PUSH1 0x20 DUP2 SWAP1 MSTORE PUSH1 0x40 SWAP1 KECCAK256 PUSH1 0x1 ADD SLOAD SWAP1 JUMP JUMPDEST PUSH1 0x40 MLOAD SWAP1 DUP2 MSTORE PUSH1 0x20 ADD PUSH2 0x240 JUMP JUMPDEST PUSH2 0x25C PUSH2 0x345 CALLDATASIZE PUSH1 0x4 PUSH2 0x1F4A JUMP JUMPDEST PUSH2 0x7F3 JUMP JUMPDEST PUSH2 0x234 PUSH2 0x358 CALLDATASIZE PUSH1 0x4 PUSH2 0x1F7A JUMP JUMPDEST PUSH2 0x81E JUMP JUMPDEST PUSH2 0x25C PUSH2 0x36B CALLDATASIZE PUSH1 0x4 PUSH2 0x1F4A JUMP JUMPDEST PUSH2 0x908 JUMP JUMPDEST PUSH2 0x329 PUSH2 0x37E CALLDATASIZE PUSH1 0x4 PUSH2 0x1F7A JUMP JUMPDEST PUSH2 0x986 JUMP JUMPDEST PUSH2 0x25C PUSH2 0x391 CALLDATASIZE PUSH1 0x4 PUSH2 0x1FF4 JUMP JUMPDEST PUSH2 0x9C0 JUMP JUMPDEST PUSH2 0x2D3 PUSH2 0x3A4 CALLDATASIZE PUSH1 0x4 PUSH2 0x1DD5 JUMP JUMPDEST PUSH2 0xA44 JUMP JUMPDEST PUSH1 0x2 SLOAD PUSH2 0x329 JUMP JUMPDEST PUSH2 0x234 PUSH2 0x3BF CALLDATASIZE PUSH1 0x4 PUSH2 0x1D58 JUMP JUMPDEST PUSH2 0xAE6 JUMP JUMPDEST PUSH2 0x25C PUSH2 0x3D2 CALLDATASIZE PUSH1 0x4 PUSH2 0x2048 JUMP JUMPDEST PUSH2 0xB13 JUMP JUMPDEST PUSH2 0x25C PUSH2 0x3E5 CALLDATASIZE PUSH1 0x4 PUSH2 0x1F7A JUMP JUMPDEST PUSH1 0x1 PUSH1 0x1 PUSH1 0xA0 SHL SUB SWAP2 DUP3 AND PUSH1 0x0 SWAP1 DUP2 MSTORE PUSH1 0x6 PUSH1 0x20 SWAP1 DUP2 MSTORE PUSH1 0x40 DUP1 DUP4 KECCAK256 SWAP4 SWAP1 SWAP5 AND DUP3 MSTORE SWAP2 SWAP1 SWAP2 MSTORE KECCAK256 TIMESTAMP SWAP1 SSTORE JUMP JUMPDEST PUSH2 0x25C PUSH2 0x41F CALLDATASIZE PUSH1 0x4 PUSH2 0x208A JUMP JUMPDEST PUSH2 0xBDE JUMP JUMPDEST PUSH2 0x437 PUSH2 0x432 CALLDATASIZE PUSH1 0x4 PUSH2 0x2132 JUMP JUMPDEST PUSH2 0xD7F JUMP JUMPDEST PUSH1 0x40 MLOAD PUSH1 0x1 PUSH1 0x1 PUSH1 0xA0 SHL SUB SWAP1 SWAP2 AND DUP2 MSTORE PUSH1 0x20 ADD PUSH2 0x240 JUMP JUMPDEST PUSH2 0x234 PUSH2 0x45D CALLDATASIZE PUSH1 0x4 PUSH2 0x1F4A JUMP JUMPDEST PUSH2 0xD9E JUMP JUMPDEST PUSH2 0x329 PUSH2 0x470 CALLDATASIZE PUSH1 0x4 PUSH2 0x1D58 JUMP JUMPDEST PUSH2 0xDC7 JUMP JUMPDEST PUSH2 0x25C PUSH2 0x483 CALLDATASIZE PUSH1 0x4 PUSH2 0x1FF4 JUMP JUMPDEST PUSH2 0xDF1 JUMP JUMPDEST PUSH2 0x25C PUSH2 0x496 CALLDATASIZE PUSH1 0x4 PUSH2 0x1D58 JUMP JUMPDEST PUSH2 0xE6E JUMP JUMPDEST PUSH2 0x4AE PUSH2 0x4A9 CALLDATASIZE PUSH1 0x4 PUSH2 0x2154 JUMP JUMPDEST PUSH2 0xEF0 JUMP JUMPDEST PUSH1 0x40 DUP1 MLOAD DUP3 MLOAD ISZERO ISZERO DUP2 MSTORE PUSH1 0x20 SWAP3 DUP4 ADD MLOAD ISZERO ISZERO SWAP3 DUP2 ADD SWAP3 SWAP1 SWAP3 MSTORE ADD PUSH2 0x240 JUMP JUMPDEST PUSH2 0x25C PUSH2 0x4DB CALLDATASIZE PUSH1 0x4 PUSH2 0x21AF JUMP JUMPDEST PUSH2 0x1235 JUMP JUMPDEST PUSH2 0x329 PUSH2 0x4EE CALLDATASIZE PUSH1 0x4 PUSH2 0x1D75 JUMP JUMPDEST PUSH2 0x12A4 JUMP JUMPDEST PUSH2 0x329 PUSH1 0x0 DUP2 JUMP JUMPDEST PUSH2 0x25C PUSH2 0x509 CALLDATASIZE PUSH1 0x4 PUSH2 0x1F4A JUMP JUMPDEST PUSH2 0x12BB JUMP JUMPDEST PUSH2 0x234 PUSH2 0x51C CALLDATASIZE PUSH1 0x4 PUSH2 0x1D58 JUMP JUMPDEST PUSH2 0x12E1 JUMP JUMPDEST PUSH2 0x329 PUSH2 0x52F CALLDATASIZE PUSH1 0x4 PUSH2 0x1D58 JUMP JUMPDEST PUSH2 0x130E JUMP JUMPDEST PUSH2 0x234 PUSH2 0x542 CALLDATASIZE PUSH1 0x4 PUSH2 0x1D58 JUMP JUMPDEST PUSH2 0x135C JUMP JUMPDEST PUSH2 0x25C PUSH2 0x555 CALLDATASIZE PUSH1 0x4 PUSH2 0x1ED4 JUMP JUMPDEST PUSH2 0x13AD JUMP JUMPDEST PUSH2 0x25C PUSH2 0x13D6 JUMP JUMPDEST PUSH2 0x25C PUSH2 0x570 CALLDATASIZE PUSH1 0x4 PUSH2 0x1D58 JUMP JUMPDEST PUSH2 0x1505 JUMP JUMPDEST PUSH1 0x0 PUSH1 0x1 PUSH1 0x1 PUSH1 0xE0 SHL SUB NOT DUP3 AND PUSH4 0x5A05180F PUSH1 0xE0 SHL EQ DUP1 PUSH2 0x5A6 JUMPI POP PUSH4 0x1FFC9A7 PUSH1 0xE0 SHL PUSH1 0x1 PUSH1 0x1 PUSH1 0xE0 SHL SUB NOT DUP4 AND EQ JUMPDEST SWAP3 SWAP2 POP POP JUMP JUMPDEST PUSH1 0x0 PUSH2 0x5B8 DUP2 CALLER PUSH2 0x17BE JUMP JUMPDEST PUSH1 0x0 JUMPDEST DUP3 DUP2 LT ISZERO PUSH2 0x623 JUMPI PUSH2 0x611 DUP5 DUP5 DUP4 DUP2 DUP2 LT PUSH2 0x5D8 JUMPI PUSH2 0x5D8 PUSH2 0x21FB JUMP JUMPDEST SWAP1 POP PUSH1 0x40 MUL ADD PUSH1 0x0 ADD CALLDATALOAD DUP6 DUP6 DUP5 DUP2 DUP2 LT PUSH2 0x5F4 JUMPI PUSH2 0x5F4 PUSH2 0x21FB JUMP JUMPDEST SWAP1 POP PUSH1 0x40 MUL ADD PUSH1 0x20 ADD PUSH1 0x20 DUP2 ADD SWAP1 PUSH2 0x60C SWAP2 SWAP1 PUSH2 0x1D58 JUMP JUMPDEST PUSH2 0x1822 JUMP JUMPDEST DUP1 PUSH2 0x61B DUP2 PUSH2 0x2227 JUMP JUMPDEST SWAP2 POP POP PUSH2 0x5BB JUMP JUMPDEST POP POP POP POP JUMP JUMPDEST PUSH1 0x0 PUSH2 0x635 DUP2 CALLER PUSH2 0x17BE JUMP JUMPDEST PUSH1 0x1 PUSH1 0x1 PUSH1 0xA0 SHL SUB DUP3 AND PUSH1 0x0 SWAP1 DUP2 MSTORE PUSH1 0x3 PUSH1 0x20 MSTORE PUSH1 0x40 SWAP1 KECCAK256 SLOAD PUSH1 0xFF AND ISZERO PUSH2 0x68E JUMPI PUSH1 0x40 MLOAD PUSH3 0x461BCD PUSH1 0xE5 SHL DUP2 MSTORE PUSH1 0x20 PUSH1 0x4 DUP3 ADD MSTORE PUSH1 0x8 PUSH1 0x24 DUP3 ADD MSTORE PUSH8 0x10D0910E88189BDD PUSH1 0xC2 SHL PUSH1 0x44 DUP3 ADD MSTORE PUSH1 0x64 ADD JUMPDEST PUSH1 0x40 MLOAD DUP1 SWAP2 SUB SWAP1 REVERT JUMPDEST POP PUSH1 0x1 PUSH1 0x1 PUSH1 0xA0 SHL SUB AND PUSH1 0x0 SWAP1 DUP2 MSTORE PUSH1 0x3 PUSH1 0x20 MSTORE PUSH1 0x40 SWAP1 KECCAK256 DUP1 SLOAD PUSH1 0xFF NOT AND PUSH1 0x1 OR SWAP1 SSTORE JUMP JUMPDEST PUSH1 0x2 DUP2 DUP2 SLOAD DUP2 LT PUSH2 0x6C3 JUMPI PUSH1 0x0 DUP1 REVERT JUMPDEST PUSH1 0x0 SWAP2 DUP3 MSTORE PUSH1 0x20 SWAP1 SWAP2 KECCAK256 ADD SLOAD PUSH1 0x1 PUSH1 0x1 PUSH1 0xA0 SHL SUB DUP2 AND SWAP2 POP PUSH1 0x1 PUSH1 0xA0 SHL SWAP1 DIV PUSH1 0xE0 SHL DUP3 JUMP JUMPDEST PUSH1 0x60 PUSH1 0x0 PUSH2 0x6F6 DUP2 CALLER PUSH2 0x17BE JUMP JUMPDEST PUSH1 0x0 JUMPDEST DUP4 MLOAD DUP2 LT ISZERO PUSH2 0x78A JUMPI PUSH1 0x4 PUSH1 0x0 DUP6 DUP4 DUP2 MLOAD DUP2 LT PUSH2 0x718 JUMPI PUSH2 0x718 PUSH2 0x21FB JUMP JUMPDEST PUSH1 0x20 SWAP1 DUP2 MUL SWAP2 SWAP1 SWAP2 ADD DUP2 ADD MLOAD PUSH1 0x1 PUSH1 0x1 PUSH1 0xA0 SHL SUB AND DUP3 MSTORE DUP2 ADD SWAP2 SWAP1 SWAP2 MSTORE PUSH1 0x40 ADD PUSH1 0x0 KECCAK256 SLOAD PUSH1 0xFF AND PUSH2 0x778 JUMPI PUSH1 0x0 DUP5 DUP3 DUP2 MLOAD DUP2 LT PUSH2 0x757 JUMPI PUSH2 0x757 PUSH2 0x21FB JUMP JUMPDEST PUSH1 0x20 MUL PUSH1 0x20 ADD ADD SWAP1 PUSH1 0x1 PUSH1 0x1 PUSH1 0xA0 SHL SUB AND SWAP1 DUP2 PUSH1 0x1 PUSH1 0x1 PUSH1 0xA0 SHL SUB AND DUP2 MSTORE POP POP JUMPDEST DUP1 PUSH2 0x782 DUP2 PUSH2 0x2227 JUMP JUMPDEST SWAP2 POP POP PUSH2 0x6F9 JUMP JUMPDEST POP SWAP2 SWAP3 SWAP2 POP POP JUMP JUMPDEST PUSH1 0x0 PUSH2 0x79E DUP2 CALLER PUSH2 0x17BE JUMP JUMPDEST POP PUSH1 0x1 PUSH1 0x1 PUSH1 0xA0 SHL SUB SWAP1 SWAP2 AND PUSH1 0x0 SWAP1 DUP2 MSTORE PUSH1 0x7 PUSH1 0x20 MSTORE PUSH1 0x40 SWAP1 KECCAK256 SSTORE JUMP JUMPDEST PUSH1 0x0 PUSH2 0x7C7 DUP2 CALLER PUSH2 0x17BE JUMP JUMPDEST POP PUSH1 0x1 PUSH1 0x1 PUSH1 0xA0 SHL SUB SWAP2 SWAP1 SWAP2 AND PUSH1 0x0 SWAP1 DUP2 MSTORE PUSH1 0x4 PUSH1 0x20 MSTORE PUSH1 0x40 SWAP1 KECCAK256 DUP1 SLOAD PUSH1 0xFF NOT AND SWAP2 ISZERO ISZERO SWAP2 SWAP1 SWAP2 OR SWAP1 SSTORE JUMP JUMPDEST PUSH1 0x0 DUP3 DUP2 MSTORE PUSH1 0x20 DUP2 SWAP1 MSTORE PUSH1 0x40 SWAP1 KECCAK256 PUSH1 0x1 ADD SLOAD PUSH2 0x80F DUP2 CALLER PUSH2 0x17BE JUMP JUMPDEST PUSH2 0x819 DUP4 DUP4 PUSH2 0x1828 JUMP JUMPDEST POP POP POP JUMP JUMPDEST PUSH1 0x1 PUSH1 0x1 PUSH1 0xA0 SHL SUB DUP3 AND PUSH1 0x0 SWAP1 DUP2 MSTORE PUSH1 0x5 PUSH1 0x20 MSTORE PUSH1 0x40 DUP2 KECCAK256 SLOAD DUP2 SWAP1 PUSH2 0x844 JUMPI PUSH1 0x1E PUSH2 0x85E JUMP JUMPDEST PUSH1 0x1 PUSH1 0x1 PUSH1 0xA0 SHL SUB DUP5 AND PUSH1 0x0 SWAP1 DUP2 MSTORE PUSH1 0x5 PUSH1 0x20 MSTORE PUSH1 0x40 SWAP1 KECCAK256 SLOAD JUMPDEST PUSH1 0x1 PUSH1 0x1 PUSH1 0xA0 SHL SUB DUP1 DUP7 AND PUSH1 0x0 SWAP1 DUP2 MSTORE PUSH1 0x6 PUSH1 0x20 SWAP1 DUP2 MSTORE PUSH1 0x40 DUP1 DUP4 KECCAK256 SWAP4 DUP9 AND DUP4 MSTORE SWAP3 SWAP1 MSTORE SWAP1 DUP2 KECCAK256 SLOAD SWAP2 SWAP3 POP SWAP1 TIMESTAMP SWAP1 PUSH2 0x897 SWAP1 DUP5 SWAP1 PUSH2 0x2242 JUMP JUMPDEST LT ISZERO DUP1 PUSH2 0x8FE JUMPI POP DUP4 EXTCODESIZE ISZERO ISZERO DUP1 PUSH2 0x8C6 JUMPI POP PUSH1 0x1 PUSH1 0x1 PUSH1 0xA0 SHL SUB DUP5 AND PUSH1 0x0 SWAP1 DUP2 MSTORE PUSH1 0x3 PUSH1 0x20 MSTORE PUSH1 0x40 SWAP1 KECCAK256 SLOAD PUSH1 0xFF AND JUMPDEST DUP1 ISZERO PUSH2 0x8EB JUMPI POP PUSH1 0x1 PUSH1 0x1 PUSH1 0xA0 SHL SUB DUP5 AND PUSH1 0x0 SWAP1 DUP2 MSTORE PUSH1 0x4 PUSH1 0x20 MSTORE PUSH1 0x40 SWAP1 KECCAK256 SLOAD PUSH1 0xFF AND ISZERO JUMPDEST DUP1 ISZERO PUSH2 0x8FE JUMPI POP PUSH2 0x8FC DUP5 DUP7 PUSH2 0x184A JUMP JUMPDEST ISZERO JUMPDEST ISZERO SWAP6 SWAP5 POP POP POP POP POP JUMP JUMPDEST PUSH1 0x1 PUSH1 0x1 PUSH1 0xA0 SHL SUB DUP2 AND CALLER EQ PUSH2 0x978 JUMPI PUSH1 0x40 MLOAD PUSH3 0x461BCD PUSH1 0xE5 SHL DUP2 MSTORE PUSH1 0x20 PUSH1 0x4 DUP3 ADD MSTORE PUSH1 0x2F PUSH1 0x24 DUP3 ADD MSTORE PUSH32 0x416363657373436F6E74726F6C3A2063616E206F6E6C792072656E6F756E6365 PUSH1 0x44 DUP3 ADD MSTORE PUSH15 0x103937B632B9903337B91039B2B633 PUSH1 0x89 SHL PUSH1 0x64 DUP3 ADD MSTORE PUSH1 0x84 ADD PUSH2 0x685 JUMP JUMPDEST PUSH2 0x982 DUP3 DUP3 PUSH2 0x1A86 JUMP JUMPDEST POP POP JUMP JUMPDEST PUSH1 0x0 DUP1 PUSH2 0x993 DUP2 CALLER PUSH2 0x17BE JUMP JUMPDEST POP POP PUSH1 0x1 PUSH1 0x1 PUSH1 0xA0 SHL SUB SWAP2 DUP3 AND PUSH1 0x0 SWAP1 DUP2 MSTORE PUSH1 0x6 PUSH1 0x20 SWAP1 DUP2 MSTORE PUSH1 0x40 DUP1 DUP4 KECCAK256 SWAP4 SWAP1 SWAP5 AND DUP3 MSTORE SWAP2 SWAP1 SWAP2 MSTORE KECCAK256 SLOAD SWAP1 JUMP JUMPDEST PUSH1 0x0 PUSH2 0x9CC DUP2 CALLER PUSH2 0x17BE JUMP JUMPDEST PUSH1 0x0 JUMPDEST DUP4 DUP2 LT ISZERO PUSH2 0xA3D JUMPI DUP3 PUSH1 0x3 PUSH1 0x0 DUP8 DUP8 DUP6 DUP2 DUP2 LT PUSH2 0x9EE JUMPI PUSH2 0x9EE PUSH2 0x21FB JUMP JUMPDEST SWAP1 POP PUSH1 0x20 MUL ADD PUSH1 0x20 DUP2 ADD SWAP1 PUSH2 0xA03 SWAP2 SWAP1 PUSH2 0x1D58 JUMP JUMPDEST PUSH1 0x1 PUSH1 0x1 PUSH1 0xA0 SHL SUB AND DUP2 MSTORE PUSH1 0x20 DUP2 ADD SWAP2 SWAP1 SWAP2 MSTORE PUSH1 0x40 ADD PUSH1 0x0 KECCAK256 DUP1 SLOAD PUSH1 0xFF NOT AND SWAP2 ISZERO ISZERO SWAP2 SWAP1 SWAP2 OR SWAP1 SSTORE DUP1 PUSH2 0xA35 DUP2 PUSH2 0x2227 JUMP JUMPDEST SWAP2 POP POP PUSH2 0x9CF JUMP JUMPDEST POP POP POP POP POP JUMP JUMPDEST PUSH1 0x60 PUSH1 0x0 PUSH2 0xA52 DUP2 CALLER PUSH2 0x17BE JUMP JUMPDEST PUSH1 0x0 JUMPDEST DUP4 MLOAD DUP2 LT ISZERO PUSH2 0x78A JUMPI PUSH1 0x3 PUSH1 0x0 DUP6 DUP4 DUP2 MLOAD DUP2 LT PUSH2 0xA74 JUMPI PUSH2 0xA74 PUSH2 0x21FB JUMP JUMPDEST PUSH1 0x20 SWAP1 DUP2 MUL SWAP2 SWAP1 SWAP2 ADD DUP2 ADD MLOAD PUSH1 0x1 PUSH1 0x1 PUSH1 0xA0 SHL SUB AND DUP3 MSTORE DUP2 ADD SWAP2 SWAP1 SWAP2 MSTORE PUSH1 0x40 ADD PUSH1 0x0 KECCAK256 SLOAD PUSH1 0xFF AND PUSH2 0xAD4 JUMPI PUSH1 0x0 DUP5 DUP3 DUP2 MLOAD DUP2 LT PUSH2 0xAB3 JUMPI PUSH2 0xAB3 PUSH2 0x21FB JUMP JUMPDEST PUSH1 0x20 MUL PUSH1 0x20 ADD ADD SWAP1 PUSH1 0x1 PUSH1 0x1 PUSH1 0xA0 SHL SUB AND SWAP1 DUP2 PUSH1 0x1 PUSH1 0x1 PUSH1 0xA0 SHL SUB AND DUP2 MSTORE POP POP JUMPDEST DUP1 PUSH2 0xADE DUP2 PUSH2 0x2227 JUMP JUMPDEST SWAP2 POP POP PUSH2 0xA55 JUMP JUMPDEST PUSH1 0x0 DUP1 PUSH2 0xAF3 DUP2 CALLER PUSH2 0x17BE JUMP JUMPDEST POP POP PUSH1 0x1 PUSH1 0x1 PUSH1 0xA0 SHL SUB AND PUSH1 0x0 SWAP1 DUP2 MSTORE PUSH1 0x3 PUSH1 0x20 MSTORE PUSH1 0x40 SWAP1 KECCAK256 SLOAD PUSH1 0xFF AND SWAP1 JUMP JUMPDEST PUSH1 0x0 PUSH2 0xB1F DUP2 CALLER PUSH2 0x17BE JUMP JUMPDEST PUSH1 0x0 JUMPDEST DUP3 DUP2 LT ISZERO PUSH2 0x623 JUMPI PUSH1 0x3 PUSH1 0x0 DUP6 DUP6 DUP5 DUP2 DUP2 LT PUSH2 0xB40 JUMPI PUSH2 0xB40 PUSH2 0x21FB JUMP JUMPDEST SWAP1 POP PUSH1 0x20 MUL ADD PUSH1 0x20 DUP2 ADD SWAP1 PUSH2 0xB55 SWAP2 SWAP1 PUSH2 0x1D58 JUMP JUMPDEST PUSH1 0x1 PUSH1 0x1 PUSH1 0xA0 SHL SUB AND DUP2 MSTORE PUSH1 0x20 DUP2 ADD SWAP2 SWAP1 SWAP2 MSTORE PUSH1 0x40 ADD PUSH1 0x0 KECCAK256 SLOAD PUSH1 0xFF AND PUSH2 0xBCC JUMPI PUSH1 0x1 PUSH1 0x3 PUSH1 0x0 DUP7 DUP7 DUP6 DUP2 DUP2 LT PUSH2 0xB8E JUMPI PUSH2 0xB8E PUSH2 0x21FB JUMP JUMPDEST SWAP1 POP PUSH1 0x20 MUL ADD PUSH1 0x20 DUP2 ADD SWAP1 PUSH2 0xBA3 SWAP2 SWAP1 PUSH2 0x1D58 JUMP JUMPDEST PUSH1 0x1 PUSH1 0x1 PUSH1 0xA0 SHL SUB AND DUP2 MSTORE PUSH1 0x20 DUP2 ADD SWAP2 SWAP1 SWAP2 MSTORE PUSH1 0x40 ADD PUSH1 0x0 KECCAK256 DUP1 SLOAD PUSH1 0xFF NOT AND SWAP2 ISZERO ISZERO SWAP2 SWAP1 SWAP2 OR SWAP1 SSTORE JUMPDEST DUP1 PUSH2 0xBD6 DUP2 PUSH2 0x2227 JUMP JUMPDEST SWAP2 POP POP PUSH2 0xB22 JUMP JUMPDEST PUSH1 0x40 DUP1 MLOAD DUP1 DUP3 ADD DUP3 MSTORE PUSH1 0x0 PUSH1 0x20 DUP3 ADD MSTORE PUSH1 0x1 PUSH1 0x1 PUSH1 0xA0 SHL SUB DUP5 AND DUP2 MSTORE DUP2 MLOAD PUSH1 0x4 DUP2 MSTORE PUSH1 0x24 DUP2 ADD SWAP3 DUP4 SWAP1 MSTORE SWAP1 SWAP2 PUSH2 0xC15 SWAP1 DUP5 SWAP1 PUSH2 0x2286 JUMP JUMPDEST PUSH1 0x40 MLOAD SWAP1 DUP2 SWAP1 SUB SWAP1 KECCAK256 PUSH1 0x20 DUP3 ADD DUP1 MLOAD PUSH1 0x1 PUSH1 0x1 PUSH1 0xE0 SHL SUB AND PUSH1 0x1 PUSH1 0x1 PUSH1 0xE0 SHL SUB NOT SWAP1 SWAP3 AND SWAP2 SWAP1 SWAP2 OR SWAP1 MSTORE PUSH2 0xC48 SWAP1 PUSH2 0x22A2 JUMP JUMPDEST PUSH1 0x1 PUSH1 0x1 PUSH1 0xE0 SHL SUB NOT AND PUSH1 0x20 DUP3 ADD MSTORE PUSH1 0x0 DUP1 JUMPDEST PUSH1 0x2 SLOAD DUP2 LT ISZERO PUSH2 0xD0C JUMPI PUSH1 0x0 PUSH1 0x1 PUSH1 0x1 PUSH1 0xA0 SHL SUB AND PUSH1 0x2 DUP3 DUP2 SLOAD DUP2 LT PUSH2 0xC83 JUMPI PUSH2 0xC83 PUSH2 0x21FB JUMP JUMPDEST PUSH1 0x0 SWAP2 DUP3 MSTORE PUSH1 0x20 SWAP1 SWAP2 KECCAK256 ADD SLOAD PUSH1 0x1 PUSH1 0x1 PUSH1 0xA0 SHL SUB AND EQ ISZERO PUSH2 0xCFA JUMPI PUSH1 0x1 SWAP2 POP DUP3 PUSH1 0x2 DUP3 DUP2 SLOAD DUP2 LT PUSH2 0xCB6 JUMPI PUSH2 0xCB6 PUSH2 0x21FB JUMP JUMPDEST PUSH1 0x0 SWAP2 DUP3 MSTORE PUSH1 0x20 SWAP2 DUP3 SWAP1 KECCAK256 DUP4 MLOAD SWAP2 ADD DUP1 SLOAD SWAP4 SWAP1 SWAP3 ADD MLOAD PUSH1 0xE0 SHR PUSH1 0x1 PUSH1 0xA0 SHL MUL PUSH1 0x1 PUSH1 0x1 PUSH1 0xC0 SHL SUB NOT SWAP1 SWAP4 AND PUSH1 0x1 PUSH1 0x1 PUSH1 0xA0 SHL SUB SWAP1 SWAP2 AND OR SWAP2 SWAP1 SWAP2 OR SWAP1 SSTORE POP POP POP POP POP JUMP JUMPDEST DUP1 PUSH2 0xD04 DUP2 PUSH2 0x2227 JUMP JUMPDEST SWAP2 POP POP PUSH2 0xC5B JUMP JUMPDEST POP DUP1 PUSH2 0x623 JUMPI PUSH1 0x2 DUP1 SLOAD PUSH1 0x1 DUP2 ADD DUP3 SSTORE PUSH1 0x0 SWAP2 SWAP1 SWAP2 MSTORE DUP3 MLOAD PUSH32 0x405787FA12A823E0F2B7631CC41B3BA8828B3321CA811111FA75CD3AA3BB5ACE SWAP1 SWAP2 ADD DUP1 SLOAD PUSH1 0x20 DUP6 ADD MLOAD PUSH1 0xE0 SHR PUSH1 0x1 PUSH1 0xA0 SHL MUL PUSH1 0x1 PUSH1 0x1 PUSH1 0xC0 SHL SUB NOT SWAP1 SWAP2 AND PUSH1 0x1 PUSH1 0x1 PUSH1 0xA0 SHL SUB SWAP1 SWAP4 AND SWAP3 SWAP1 SWAP3 OR SWAP2 SWAP1 SWAP2 OR SWAP1 SSTORE POP POP POP POP JUMP JUMPDEST PUSH1 0x0 DUP3 DUP2 MSTORE PUSH1 0x1 PUSH1 0x20 MSTORE PUSH1 0x40 DUP2 KECCAK256 PUSH2 0xD97 SWAP1 DUP4 PUSH2 0x1AA8 JUMP JUMPDEST SWAP4 SWAP3 POP POP POP JUMP JUMPDEST PUSH1 0x0 SWAP2 DUP3 MSTORE PUSH1 0x20 DUP3 DUP2 MSTORE PUSH1 0x40 DUP1 DUP5 KECCAK256 PUSH1 0x1 PUSH1 0x1 PUSH1 0xA0 SHL SUB SWAP4 SWAP1 SWAP4 AND DUP5 MSTORE SWAP2 SWAP1 MSTORE SWAP1 KECCAK256 SLOAD PUSH1 0xFF AND SWAP1 JUMP JUMPDEST PUSH1 0x0 DUP1 PUSH2 0xDD4 DUP2 CALLER PUSH2 0x17BE JUMP JUMPDEST POP POP PUSH1 0x1 PUSH1 0x1 PUSH1 0xA0 SHL SUB AND PUSH1 0x0 SWAP1 DUP2 MSTORE PUSH1 0x7 PUSH1 0x20 MSTORE PUSH1 0x40 SWAP1 KECCAK256 SLOAD SWAP1 JUMP JUMPDEST PUSH1 0x0 PUSH2 0xDFD DUP2 CALLER PUSH2 0x17BE JUMP JUMPDEST PUSH1 0x0 JUMPDEST DUP4 DUP2 LT ISZERO PUSH2 0xA3D JUMPI DUP3 PUSH1 0x4 PUSH1 0x0 DUP8 DUP8 DUP6 DUP2 DUP2 LT PUSH2 0xE1F JUMPI PUSH2 0xE1F PUSH2 0x21FB JUMP JUMPDEST SWAP1 POP PUSH1 0x20 MUL ADD PUSH1 0x20 DUP2 ADD SWAP1 PUSH2 0xE34 SWAP2 SWAP1 PUSH2 0x1D58 JUMP JUMPDEST PUSH1 0x1 PUSH1 0x1 PUSH1 0xA0 SHL SUB AND DUP2 MSTORE PUSH1 0x20 DUP2 ADD SWAP2 SWAP1 SWAP2 MSTORE PUSH1 0x40 ADD PUSH1 0x0 KECCAK256 DUP1 SLOAD PUSH1 0xFF NOT AND SWAP2 ISZERO ISZERO SWAP2 SWAP1 SWAP2 OR SWAP1 SSTORE DUP1 PUSH2 0xE66 DUP2 PUSH2 0x2227 JUMP JUMPDEST SWAP2 POP POP PUSH2 0xE00 JUMP JUMPDEST PUSH1 0x0 PUSH2 0xE7A DUP2 CALLER PUSH2 0x17BE JUMP JUMPDEST PUSH1 0x1 PUSH1 0x1 PUSH1 0xA0 SHL SUB DUP3 AND PUSH1 0x0 SWAP1 DUP2 MSTORE PUSH1 0x3 PUSH1 0x20 MSTORE PUSH1 0x40 SWAP1 KECCAK256 SLOAD PUSH1 0xFF AND PUSH2 0xECE JUMPI PUSH1 0x40 MLOAD PUSH3 0x461BCD PUSH1 0xE5 SHL DUP2 MSTORE PUSH1 0x20 PUSH1 0x4 DUP3 ADD MSTORE PUSH1 0x9 PUSH1 0x24 DUP3 ADD MSTORE PUSH9 0x10D0910E8808589BDD PUSH1 0xBA SHL PUSH1 0x44 DUP3 ADD MSTORE PUSH1 0x64 ADD PUSH2 0x685 JUMP JUMPDEST POP PUSH1 0x1 PUSH1 0x1 PUSH1 0xA0 SHL SUB AND PUSH1 0x0 SWAP1 DUP2 MSTORE PUSH1 0x3 PUSH1 0x20 MSTORE PUSH1 0x40 SWAP1 KECCAK256 DUP1 SLOAD PUSH1 0xFF NOT AND SWAP1 SSTORE JUMP JUMPDEST PUSH1 0x40 DUP1 MLOAD DUP1 DUP3 ADD SWAP1 SWAP2 MSTORE PUSH1 0x0 DUP1 DUP3 MSTORE PUSH1 0x20 DUP3 ADD MSTORE PUSH1 0x0 PUSH2 0xF10 DUP2 CALLER PUSH2 0x17BE JUMP JUMPDEST PUSH16 0xFFFFFFFFFFFFFFFFFFFFFFFFFFFFFFFF PUSH1 0x1 PUSH1 0x1 PUSH1 0xA0 SHL SUB DUP8 AND LT ISZERO PUSH2 0xF49 JUMPI PUSH1 0x40 MLOAD PUSH3 0x461BCD PUSH1 0xE5 SHL DUP2 MSTORE PUSH1 0x4 ADD PUSH2 0x685 SWAP1 PUSH2 0x22D9 JUMP JUMPDEST PUSH2 0xF53 DUP6 DUP9 PUSH2 0x184A JUMP JUMPDEST ISZERO ISZERO PUSH1 0x20 DUP4 ADD MSTORE PUSH2 0xF64 DUP7 DUP9 PUSH2 0x184A JUMP JUMPDEST ISZERO ISZERO DUP3 MSTORE PUSH1 0x1 PUSH1 0x1 PUSH1 0xA0 SHL SUB DUP8 AND PUSH1 0x0 SWAP1 DUP2 MSTORE PUSH1 0x5 PUSH1 0x20 MSTORE PUSH1 0x40 DUP2 KECCAK256 SLOAD PUSH2 0xF8C JUMPI PUSH1 0x1E PUSH2 0xFA6 JUMP JUMPDEST PUSH1 0x1 PUSH1 0x1 PUSH1 0xA0 SHL SUB DUP9 AND PUSH1 0x0 SWAP1 DUP2 MSTORE PUSH1 0x5 PUSH1 0x20 MSTORE PUSH1 0x40 SWAP1 KECCAK256 SLOAD JUMPDEST DUP4 MLOAD SWAP1 SWAP2 POP DUP1 ISZERO PUSH2 0xFB9 JUMPI POP DUP3 PUSH1 0x20 ADD MLOAD ISZERO JUMPDEST DUP1 ISZERO PUSH2 0xFCE JUMPI POP ORIGIN PUSH1 0x1 PUSH1 0x1 PUSH1 0xA0 SHL SUB DUP8 AND EQ ISZERO JUMPDEST DUP1 ISZERO PUSH2 0xFD9 JUMPI POP DUP6 EXTCODESIZE ISZERO JUMPDEST DUP1 ISZERO PUSH2 0xFFE JUMPI POP PUSH1 0x1 PUSH1 0x1 PUSH1 0xA0 SHL SUB DUP7 AND PUSH1 0x0 SWAP1 DUP2 MSTORE PUSH1 0x4 PUSH1 0x20 MSTORE PUSH1 0x40 SWAP1 KECCAK256 SLOAD PUSH1 0xFF AND ISZERO JUMPDEST DUP1 ISZERO PUSH2 0x1076 JUMPI POP PUSH1 0x40 MLOAD PUSH4 0x70A08231 PUSH1 0xE0 SHL DUP2 MSTORE PUSH1 0x1 PUSH1 0x1 PUSH1 0xA0 SHL SUB DUP8 DUP2 AND PUSH1 0x4 DUP4 ADD MSTORE PUSH1 0x1 SWAP2 SWAP1 DUP11 AND SWAP1 PUSH4 0x70A08231 SWAP1 PUSH1 0x24 ADD PUSH1 0x20 PUSH1 0x40 MLOAD DUP1 DUP4 SUB DUP2 DUP7 GAS STATICCALL ISZERO DUP1 ISZERO PUSH2 0x104F JUMPI RETURNDATASIZE PUSH1 0x0 DUP1 RETURNDATACOPY RETURNDATASIZE PUSH1 0x0 REVERT JUMPDEST POP POP POP POP PUSH1 0x40 MLOAD RETURNDATASIZE PUSH1 0x1F NOT PUSH1 0x1F DUP3 ADD AND DUP3 ADD DUP1 PUSH1 0x40 MSTORE POP DUP2 ADD SWAP1 PUSH2 0x1073 SWAP2 SWAP1 PUSH2 0x231E JUMP JUMPDEST GT ISZERO JUMPDEST ISZERO PUSH2 0x10A3 JUMPI PUSH1 0x1 PUSH1 0x1 PUSH1 0xA0 SHL SUB DUP7 AND PUSH1 0x0 SWAP1 DUP2 MSTORE PUSH1 0x3 PUSH1 0x20 MSTORE PUSH1 0x40 SWAP1 KECCAK256 DUP1 SLOAD PUSH1 0xFF NOT AND PUSH1 0x1 OR SWAP1 SSTORE PUSH2 0x1152 JUMP JUMPDEST PUSH1 0x1 PUSH1 0x1 PUSH1 0xA0 SHL SUB DUP8 AND PUSH1 0x0 SWAP1 DUP2 MSTORE PUSH1 0x4 PUSH1 0x20 MSTORE PUSH1 0x40 SWAP1 KECCAK256 SLOAD PUSH1 0xFF AND ISZERO DUP1 ISZERO PUSH2 0x10CB JUMPI POP DUP3 MLOAD ISZERO JUMPDEST DUP1 ISZERO PUSH2 0x1135 JUMPI POP DUP7 EXTCODESIZE ISZERO ISZERO DUP1 PUSH2 0x10F9 JUMPI POP PUSH1 0x1 PUSH1 0x1 PUSH1 0xA0 SHL SUB DUP8 AND PUSH1 0x0 SWAP1 DUP2 MSTORE PUSH1 0x3 PUSH1 0x20 MSTORE PUSH1 0x40 SWAP1 KECCAK256 SLOAD PUSH1 0xFF AND JUMPDEST DUP1 PUSH2 0x1135 JUMPI POP PUSH1 0x1 PUSH1 0x1 PUSH1 0xA0 SHL SUB DUP1 DUP10 AND PUSH1 0x0 SWAP1 DUP2 MSTORE PUSH1 0x6 PUSH1 0x20 SWAP1 DUP2 MSTORE PUSH1 0x40 DUP1 DUP4 KECCAK256 SWAP4 DUP12 AND DUP4 MSTORE SWAP3 SWAP1 MSTORE KECCAK256 SLOAD TIMESTAMP SWAP1 PUSH2 0x1132 SWAP1 DUP4 SWAP1 PUSH2 0x2242 JUMP JUMPDEST LT ISZERO JUMPDEST ISZERO PUSH2 0x1152 JUMPI PUSH1 0x40 MLOAD PUSH3 0x461BCD PUSH1 0xE5 SHL DUP2 MSTORE PUSH1 0x4 ADD PUSH2 0x685 SWAP1 PUSH2 0x22D9 JUMP JUMPDEST PUSH1 0x1 PUSH1 0x1 PUSH1 0xA0 SHL SUB DUP8 AND PUSH20 0x8888888AC6AA2482265E5346832CDD963C70A0D1 EQ DUP1 ISZERO SWAP1 PUSH2 0x1187 JUMPI POP PUSH1 0x1 PUSH1 0x1 PUSH1 0xA0 SHL SUB DUP7 AND ISZERO ISZERO JUMPDEST ISZERO PUSH2 0x120C JUMPI PUSH2 0x1196 DUP6 DUP6 PUSH2 0x2242 JUMP JUMPDEST PUSH1 0x1 PUSH1 0x1 PUSH1 0xA0 SHL SUB DUP1 DUP11 AND PUSH1 0x0 SWAP1 DUP2 MSTORE PUSH1 0x6 PUSH1 0x20 SWAP1 DUP2 MSTORE PUSH1 0x40 DUP1 DUP4 KECCAK256 SWAP4 DUP12 AND DUP4 MSTORE SWAP3 SWAP1 MSTORE KECCAK256 SLOAD PUSH2 0x11C7 SWAP1 DUP8 SWAP1 PUSH2 0x2337 JUMP JUMPDEST PUSH2 0x11D1 DUP7 TIMESTAMP PUSH2 0x2337 JUMP JUMPDEST PUSH2 0x11DB SWAP2 SWAP1 PUSH2 0x2242 JUMP JUMPDEST PUSH2 0x11E5 SWAP2 SWAP1 PUSH2 0x2356 JUMP JUMPDEST PUSH1 0x1 PUSH1 0x1 PUSH1 0xA0 SHL SUB DUP1 DUP11 AND PUSH1 0x0 SWAP1 DUP2 MSTORE PUSH1 0x6 PUSH1 0x20 SWAP1 DUP2 MSTORE PUSH1 0x40 DUP1 DUP4 KECCAK256 SWAP4 DUP12 AND DUP4 MSTORE SWAP3 SWAP1 MSTORE KECCAK256 SSTORE JUMPDEST DUP3 MLOAD ISZERO DUP1 ISZERO PUSH2 0x121D JUMPI POP DUP3 PUSH1 0x20 ADD MLOAD ISZERO JUMPDEST ISZERO PUSH2 0x122A JUMPI PUSH2 0x122A PUSH2 0x13D6 JUMP JUMPDEST POP POP SWAP6 SWAP5 POP POP POP POP POP JUMP JUMPDEST PUSH1 0x0 PUSH2 0x1241 DUP2 CALLER PUSH2 0x17BE JUMP JUMPDEST PUSH1 0x0 JUMPDEST DUP4 DUP2 LT ISZERO PUSH2 0xA3D JUMPI DUP3 PUSH1 0x7 PUSH1 0x0 DUP8 DUP8 DUP6 DUP2 DUP2 LT PUSH2 0x1263 JUMPI PUSH2 0x1263 PUSH2 0x21FB JUMP JUMPDEST SWAP1 POP PUSH1 0x20 MUL ADD PUSH1 0x20 DUP2 ADD SWAP1 PUSH2 0x1278 SWAP2 SWAP1 PUSH2 0x1D58 JUMP JUMPDEST PUSH1 0x1 PUSH1 0x1 PUSH1 0xA0 SHL SUB AND DUP2 MSTORE PUSH1 0x20 DUP2 ADD SWAP2 SWAP1 SWAP2 MSTORE PUSH1 0x40 ADD PUSH1 0x0 KECCAK256 SSTORE DUP1 PUSH2 0x129C DUP2 PUSH2 0x2227 JUMP JUMPDEST SWAP2 POP POP PUSH2 0x1244 JUMP JUMPDEST PUSH1 0x0 DUP2 DUP2 MSTORE PUSH1 0x1 PUSH1 0x20 MSTORE PUSH1 0x40 DUP2 KECCAK256 PUSH2 0x5A6 SWAP1 PUSH2 0x1AB4 JUMP JUMPDEST PUSH1 0x0 DUP3 DUP2 MSTORE PUSH1 0x20 DUP2 SWAP1 MSTORE PUSH1 0x40 SWAP1 KECCAK256 PUSH1 0x1 ADD SLOAD PUSH2 0x12D7 DUP2 CALLER PUSH2 0x17BE JUMP JUMPDEST PUSH2 0x819 DUP4 DUP4 PUSH2 0x1A86 JUMP JUMPDEST PUSH1 0x0 DUP1 PUSH2 0x12EE DUP2 CALLER PUSH2 0x17BE JUMP JUMPDEST POP POP PUSH1 0x1 PUSH1 0x1 PUSH1 0xA0 SHL SUB AND PUSH1 0x0 SWAP1 DUP2 MSTORE PUSH1 0x4 PUSH1 0x20 MSTORE PUSH1 0x40 SWAP1 KECCAK256 SLOAD PUSH1 0xFF AND SWAP1 JUMP JUMPDEST PUSH1 0x0 DUP1 PUSH2 0x131B DUP2 CALLER PUSH2 0x17BE JUMP JUMPDEST PUSH1 0x1 PUSH1 0x1 PUSH1 0xA0 SHL SUB DUP4 AND PUSH1 0x0 SWAP1 DUP2 MSTORE PUSH1 0x5 PUSH1 0x20 MSTORE PUSH1 0x40 SWAP1 KECCAK256 SLOAD PUSH2 0x133F JUMPI PUSH1 0x1E PUSH2 0xD97 JUMP JUMPDEST POP POP PUSH1 0x1 PUSH1 0x1 PUSH1 0xA0 SHL SUB AND PUSH1 0x0 SWAP1 DUP2 MSTORE PUSH1 0x5 PUSH1 0x20 MSTORE PUSH1 0x40 SWAP1 KECCAK256 SLOAD SWAP1 JUMP JUMPDEST PUSH1 0x0 DUP1 PUSH2 0x1369 DUP2 CALLER PUSH2 0x17BE JUMP JUMPDEST PUSH1 0x1 PUSH1 0x1 PUSH1 0xA0 SHL SUB DUP4 AND PUSH1 0x0 SWAP1 DUP2 MSTORE PUSH1 0x3 PUSH1 0x20 MSTORE PUSH1 0x40 SWAP1 KECCAK256 SLOAD PUSH1 0xFF AND DUP1 ISZERO PUSH2 0xD97 JUMPI POP POP POP PUSH1 0x1 PUSH1 0x1 PUSH1 0xA0 SHL SUB AND PUSH1 0x0 SWAP1 DUP2 MSTORE PUSH1 0x4 PUSH1 0x20 MSTORE PUSH1 0x40 SWAP1 KECCAK256 SLOAD PUSH1 0xFF AND ISZERO SWAP1 JUMP JUMPDEST PUSH1 0x0 PUSH2 0x13B9 DUP2 CALLER PUSH2 0x17BE JUMP JUMPDEST POP PUSH1 0x1 PUSH1 0x1 PUSH1 0xA0 SHL SUB SWAP1 SWAP2 AND PUSH1 0x0 SWAP1 DUP2 MSTORE PUSH1 0x5 PUSH1 0x20 MSTORE PUSH1 0x40 SWAP1 KECCAK256 SSTORE JUMP JUMPDEST PUSH1 0x0 JUMPDEST PUSH1 0x2 SLOAD DUP2 LT ISZERO PUSH2 0x1502 JUMPI PUSH1 0x0 PUSH1 0x1 PUSH1 0x1 PUSH1 0xA0 SHL SUB AND PUSH1 0x2 DUP3 DUP2 SLOAD DUP2 LT PUSH2 0x1401 JUMPI PUSH2 0x1401 PUSH2 0x21FB JUMP JUMPDEST PUSH1 0x0 SWAP2 DUP3 MSTORE PUSH1 0x20 SWAP1 SWAP2 KECCAK256 ADD SLOAD PUSH1 0x1 PUSH1 0x1 PUSH1 0xA0 SHL SUB AND EQ PUSH2 0x14F0 JUMPI PUSH1 0x2 DUP2 DUP2 SLOAD DUP2 LT PUSH2 0x142E JUMPI PUSH2 0x142E PUSH2 0x21FB JUMP JUMPDEST PUSH1 0x0 SWAP2 DUP3 MSTORE PUSH1 0x20 SWAP1 SWAP2 KECCAK256 ADD SLOAD PUSH1 0x2 DUP1 SLOAD PUSH1 0x1 PUSH1 0x1 PUSH1 0xA0 SHL SUB SWAP1 SWAP3 AND SWAP2 DUP4 SWAP1 DUP2 LT PUSH2 0x145A JUMPI PUSH2 0x145A PUSH2 0x21FB JUMP JUMPDEST PUSH1 0x0 SWAP2 DUP3 MSTORE PUSH1 0x20 SWAP2 DUP3 SWAP1 KECCAK256 ADD SLOAD PUSH1 0x40 MLOAD PUSH2 0x1490 SWAP3 PUSH1 0x1 PUSH1 0xA0 SHL SWAP1 SWAP3 DIV PUSH1 0xE0 SHL SWAP2 ADD PUSH1 0x1 PUSH1 0x1 PUSH1 0xE0 SHL SUB NOT SWAP2 SWAP1 SWAP2 AND DUP2 MSTORE PUSH1 0x4 ADD SWAP1 JUMP JUMPDEST PUSH1 0x40 DUP1 MLOAD PUSH1 0x1F NOT DUP2 DUP5 SUB ADD DUP2 MSTORE SWAP1 DUP3 SWAP1 MSTORE PUSH2 0x14AA SWAP2 PUSH2 0x2286 JUMP JUMPDEST PUSH1 0x0 PUSH1 0x40 MLOAD DUP1 DUP4 SUB DUP2 PUSH1 0x0 DUP7 GAS CALL SWAP2 POP POP RETURNDATASIZE DUP1 PUSH1 0x0 DUP2 EQ PUSH2 0x14E7 JUMPI PUSH1 0x40 MLOAD SWAP2 POP PUSH1 0x1F NOT PUSH1 0x3F RETURNDATASIZE ADD AND DUP3 ADD PUSH1 0x40 MSTORE RETURNDATASIZE DUP3 MSTORE RETURNDATASIZE PUSH1 0x0 PUSH1 0x20 DUP5 ADD RETURNDATACOPY PUSH2 0x14EC JUMP JUMPDEST PUSH1 0x60 SWAP2 POP JUMPDEST POP POP POP JUMPDEST DUP1 PUSH2 0x14FA DUP2 PUSH2 0x2227 JUMP JUMPDEST SWAP2 POP POP PUSH2 0x13D9 JUMP JUMPDEST POP JUMP JUMPDEST PUSH1 0x0 JUMPDEST PUSH1 0x2 SLOAD DUP2 LT ISZERO PUSH2 0x982 JUMPI DUP2 PUSH1 0x1 PUSH1 0x1 PUSH1 0xA0 SHL SUB AND PUSH1 0x2 DUP3 DUP2 SLOAD DUP2 LT PUSH2 0x152F JUMPI PUSH2 0x152F PUSH2 0x21FB JUMP JUMPDEST PUSH1 0x0 SWAP2 DUP3 MSTORE PUSH1 0x20 SWAP1 SWAP2 KECCAK256 ADD SLOAD PUSH1 0x1 PUSH1 0x1 PUSH1 0xA0 SHL SUB AND EQ ISZERO PUSH2 0x1577 JUMPI PUSH1 0x2 DUP2 DUP2 SLOAD DUP2 LT PUSH2 0x155D JUMPI PUSH2 0x155D PUSH2 0x21FB JUMP JUMPDEST PUSH1 0x0 SWAP2 DUP3 MSTORE PUSH1 0x20 SWAP1 SWAP2 KECCAK256 ADD DUP1 SLOAD PUSH1 0x1 PUSH1 0x1 PUSH1 0xC0 SHL SUB NOT AND SWAP1 SSTORE JUMPDEST DUP1 PUSH2 0x1581 DUP2 PUSH2 0x2227 JUMP JUMPDEST SWAP2 POP POP PUSH2 0x1508 JUMP JUMPDEST PUSH2 0x1593 DUP3 DUP3 PUSH2 0xD9E JUMP JUMPDEST PUSH2 0x982 JUMPI PUSH1 0x0 DUP3 DUP2 MSTORE PUSH1 0x20 DUP2 DUP2 MSTORE PUSH1 0x40 DUP1 DUP4 KECCAK256 PUSH1 0x1 PUSH1 0x1 PUSH1 0xA0 SHL SUB DUP6 AND DUP5 MSTORE SWAP1 SWAP2 MSTORE SWAP1 KECCAK256 DUP1 SLOAD PUSH1 0xFF NOT AND PUSH1 0x1 OR SWAP1 SSTORE PUSH2 0x15C9 CALLER SWAP1 JUMP JUMPDEST PUSH1 0x1 PUSH1 0x1 PUSH1 0xA0 SHL SUB AND DUP2 PUSH1 0x1 PUSH1 0x1 PUSH1 0xA0 SHL SUB AND DUP4 PUSH32 0x2F8788117E7EFF1D82E926EC794901D17C78024A50270940304540A733656F0D PUSH1 0x40 MLOAD PUSH1 0x40 MLOAD DUP1 SWAP2 SUB SWAP1 LOG4 POP POP JUMP JUMPDEST PUSH1 0x0 PUSH2 0xD97 DUP4 PUSH1 0x1 PUSH1 0x1 PUSH1 0xA0 SHL SUB DUP5 AND PUSH2 0x1ABE JUMP JUMPDEST PUSH1 0x60 PUSH1 0x0 PUSH2 0x1631 DUP4 PUSH1 0x2 PUSH2 0x2337 JUMP JUMPDEST PUSH2 0x163C SWAP1 PUSH1 0x2 PUSH2 0x2242 JUMP JUMPDEST PUSH8 0xFFFFFFFFFFFFFFFF DUP2 GT ISZERO PUSH2 0x1654 JUMPI PUSH2 0x1654 PUSH2 0x1D8E JUMP JUMPDEST PUSH1 0x40 MLOAD SWAP1 DUP1 DUP3 MSTORE DUP1 PUSH1 0x1F ADD PUSH1 0x1F NOT AND PUSH1 0x20 ADD DUP3 ADD PUSH1 0x40 MSTORE DUP1 ISZERO PUSH2 0x167E JUMPI PUSH1 0x20 DUP3 ADD DUP2 DUP1 CALLDATASIZE DUP4 CALLDATACOPY ADD SWAP1 POP JUMPDEST POP SWAP1 POP PUSH1 0x3 PUSH1 0xFC SHL DUP2 PUSH1 0x0 DUP2 MLOAD DUP2 LT PUSH2 0x1699 JUMPI PUSH2 0x1699 PUSH2 0x21FB JUMP JUMPDEST PUSH1 0x20 ADD ADD SWAP1 PUSH1 0x1 PUSH1 0x1 PUSH1 0xF8 SHL SUB NOT AND SWAP1 DUP2 PUSH1 0x0 BYTE SWAP1 MSTORE8 POP PUSH1 0xF PUSH1 0xFB SHL DUP2 PUSH1 0x1 DUP2 MLOAD DUP2 LT PUSH2 0x16C8 JUMPI PUSH2 0x16C8 PUSH2 0x21FB JUMP JUMPDEST PUSH1 0x20 ADD ADD SWAP1 PUSH1 0x1 PUSH1 0x1 PUSH1 0xF8 SHL SUB NOT AND SWAP1 DUP2 PUSH1 0x0 BYTE SWAP1 MSTORE8 POP PUSH1 0x0 PUSH2 0x16EC DUP5 PUSH1 0x2 PUSH2 0x2337 JUMP JUMPDEST PUSH2 0x16F7 SWAP1 PUSH1 0x1 PUSH2 0x2242 JUMP JUMPDEST SWAP1 POP JUMPDEST PUSH1 0x1 DUP2 GT ISZERO PUSH2 0x176F JUMPI PUSH16 0x181899199A1A9B1B9C1CB0B131B232B3 PUSH1 0x81 SHL DUP6 PUSH1 0xF AND PUSH1 0x10 DUP2 LT PUSH2 0x172B JUMPI PUSH2 0x172B PUSH2 0x21FB JUMP JUMPDEST BYTE PUSH1 0xF8 SHL DUP3 DUP3 DUP2 MLOAD DUP2 LT PUSH2 0x1741 JUMPI PUSH2 0x1741 PUSH2 0x21FB JUMP JUMPDEST PUSH1 0x20 ADD ADD SWAP1 PUSH1 0x1 PUSH1 0x1 PUSH1 0xF8 SHL SUB NOT AND SWAP1 DUP2 PUSH1 0x0 BYTE SWAP1 MSTORE8 POP PUSH1 0x4 SWAP5 SWAP1 SWAP5 SHR SWAP4 PUSH2 0x1768 DUP2 PUSH2 0x2378 JUMP JUMPDEST SWAP1 POP PUSH2 0x16FA JUMP JUMPDEST POP DUP4 ISZERO PUSH2 0xD97 JUMPI PUSH1 0x40 MLOAD PUSH3 0x461BCD PUSH1 0xE5 SHL DUP2 MSTORE PUSH1 0x20 PUSH1 0x4 DUP3 ADD DUP2 SWAP1 MSTORE PUSH1 0x24 DUP3 ADD MSTORE PUSH32 0x537472696E67733A20686578206C656E67746820696E73756666696369656E74 PUSH1 0x44 DUP3 ADD MSTORE PUSH1 0x64 ADD PUSH2 0x685 JUMP JUMPDEST PUSH2 0x17C8 DUP3 DUP3 PUSH2 0xD9E JUMP JUMPDEST PUSH2 0x982 JUMPI PUSH2 0x17E0 DUP2 PUSH1 0x1 PUSH1 0x1 PUSH1 0xA0 SHL SUB AND PUSH1 0x14 PUSH2 0x1622 JUMP JUMPDEST PUSH2 0x17EB DUP4 PUSH1 0x20 PUSH2 0x1622 JUMP JUMPDEST PUSH1 0x40 MLOAD PUSH1 0x20 ADD PUSH2 0x17FC SWAP3 SWAP2 SWAP1 PUSH2 0x238F JUMP JUMPDEST PUSH1 0x40 DUP1 MLOAD PUSH1 0x1F NOT DUP2 DUP5 SUB ADD DUP2 MSTORE SWAP1 DUP3 SWAP1 MSTORE PUSH3 0x461BCD PUSH1 0xE5 SHL DUP3 MSTORE PUSH2 0x685 SWAP2 PUSH1 0x4 ADD PUSH2 0x2404 JUMP JUMPDEST PUSH2 0x982 DUP3 DUP3 JUMPDEST PUSH2 0x1832 DUP3 DUP3 PUSH2 0x1589 JUMP JUMPDEST PUSH1 0x0 DUP3 DUP2 MSTORE PUSH1 0x1 PUSH1 0x20 MSTORE PUSH1 0x40 SWAP1 KECCAK256 PUSH2 0x819 SWAP1 DUP3 PUSH2 0x160D JUMP JUMPDEST PUSH1 0x1 PUSH1 0x1 PUSH1 0xA0 SHL SUB DUP3 AND PUSH1 0x0 SWAP1 DUP2 MSTORE PUSH1 0x7 PUSH1 0x20 MSTORE PUSH1 0x40 DUP2 KECCAK256 SLOAD PUSH2 0x1A66 JUMPI PUSH1 0x40 DUP1 MLOAD PUSH1 0x4 DUP2 MSTORE PUSH1 0x24 DUP2 ADD DUP3 MSTORE PUSH1 0x20 DUP2 ADD DUP1 MLOAD PUSH1 0x1 PUSH1 0x1 PUSH1 0xE0 SHL SUB AND PUSH4 0xDFE1681 PUSH1 0xE0 SHL OR SWAP1 MSTORE SWAP1 MLOAD PUSH1 0x0 SWAP2 PUSH1 0x1 PUSH1 0x1 PUSH1 0xA0 SHL SUB DUP7 AND SWAP2 PUSH2 0x18A9 SWAP2 SWAP1 PUSH2 0x2286 JUMP JUMPDEST PUSH1 0x0 PUSH1 0x40 MLOAD DUP1 DUP4 SUB DUP2 DUP6 GAS STATICCALL SWAP2 POP POP RETURNDATASIZE DUP1 PUSH1 0x0 DUP2 EQ PUSH2 0x18E4 JUMPI PUSH1 0x40 MLOAD SWAP2 POP PUSH1 0x1F NOT PUSH1 0x3F RETURNDATASIZE ADD AND DUP3 ADD PUSH1 0x40 MSTORE RETURNDATASIZE DUP3 MSTORE RETURNDATASIZE PUSH1 0x0 PUSH1 0x20 DUP5 ADD RETURNDATACOPY PUSH2 0x18E9 JUMP JUMPDEST PUSH1 0x60 SWAP2 POP JUMPDEST POP PUSH1 0x40 DUP1 MLOAD PUSH1 0x4 DUP2 MSTORE PUSH1 0x24 DUP2 ADD DUP3 MSTORE PUSH1 0x20 DUP2 ADD DUP1 MLOAD PUSH1 0x1 PUSH1 0x1 PUSH1 0xE0 SHL SUB AND PUSH4 0xD21220A7 PUSH1 0xE0 SHL OR SWAP1 MSTORE SWAP1 MLOAD SWAP2 SWAP4 POP PUSH1 0x0 SWAP3 POP PUSH1 0x1 PUSH1 0x1 PUSH1 0xA0 SHL SUB DUP8 AND SWAP2 PUSH2 0x1930 SWAP2 SWAP1 PUSH2 0x2286 JUMP JUMPDEST PUSH1 0x0 PUSH1 0x40 MLOAD DUP1 DUP4 SUB DUP2 DUP6 GAS STATICCALL SWAP2 POP POP RETURNDATASIZE DUP1 PUSH1 0x0 DUP2 EQ PUSH2 0x196B JUMPI PUSH1 0x40 MLOAD SWAP2 POP PUSH1 0x1F NOT PUSH1 0x3F RETURNDATASIZE ADD AND DUP3 ADD PUSH1 0x40 MSTORE RETURNDATASIZE DUP3 MSTORE RETURNDATASIZE PUSH1 0x0 PUSH1 0x20 DUP5 ADD RETURNDATACOPY PUSH2 0x1970 JUMP JUMPDEST PUSH1 0x60 SWAP2 POP JUMPDEST POP SWAP2 POP POP PUSH1 0x0 PUSH1 0x14 DUP4 MLOAD LT ISZERO PUSH2 0x1987 JUMPI PUSH1 0x0 PUSH2 0x199B JUMP JUMPDEST DUP3 DUP1 PUSH1 0x20 ADD SWAP1 MLOAD DUP2 ADD SWAP1 PUSH2 0x199B SWAP2 SWAP1 PUSH2 0x2437 JUMP JUMPDEST SWAP1 POP PUSH1 0x0 PUSH1 0x14 DUP4 MLOAD LT ISZERO PUSH2 0x19B0 JUMPI PUSH1 0x0 PUSH2 0x19C4 JUMP JUMPDEST DUP3 DUP1 PUSH1 0x20 ADD SWAP1 MLOAD DUP2 ADD SWAP1 PUSH2 0x19C4 SWAP2 SWAP1 PUSH2 0x2437 JUMP JUMPDEST SWAP1 POP DUP6 PUSH1 0x1 PUSH1 0x1 PUSH1 0xA0 SHL SUB AND DUP3 PUSH1 0x1 PUSH1 0x1 PUSH1 0xA0 SHL SUB AND EQ DUP1 ISZERO PUSH2 0x19EF JUMPI POP PUSH1 0x1 PUSH1 0x1 PUSH1 0xA0 SHL SUB DUP2 AND ISZERO ISZERO JUMPDEST DUP1 PUSH2 0x1A1E JUMPI POP PUSH1 0x1 PUSH1 0x1 PUSH1 0xA0 SHL SUB DUP3 AND ISZERO DUP1 ISZERO SWAP1 PUSH2 0x1A1E JUMPI POP DUP6 PUSH1 0x1 PUSH1 0x1 PUSH1 0xA0 SHL SUB AND DUP2 PUSH1 0x1 PUSH1 0x1 PUSH1 0xA0 SHL SUB AND EQ JUMPDEST ISZERO PUSH2 0x1A44 JUMPI PUSH1 0x1 PUSH1 0x1 PUSH1 0xA0 SHL SUB DUP8 AND PUSH1 0x0 SWAP1 DUP2 MSTORE PUSH1 0x7 PUSH1 0x20 MSTORE PUSH1 0x40 SWAP1 KECCAK256 PUSH1 0x1 SWAP1 SSTORE PUSH2 0x1A61 JUMP JUMPDEST PUSH1 0x1 PUSH1 0x1 PUSH1 0xA0 SHL SUB DUP8 AND PUSH1 0x0 SWAP1 DUP2 MSTORE PUSH1 0x7 PUSH1 0x20 MSTORE PUSH1 0x40 SWAP1 KECCAK256 PUSH1 0x2 SWAP1 SSTORE JUMPDEST POP POP POP POP JUMPDEST POP POP PUSH1 0x1 PUSH1 0x1 PUSH1 0xA0 SHL SUB AND PUSH1 0x0 SWAP1 DUP2 MSTORE PUSH1 0x7 PUSH1 0x20 MSTORE PUSH1 0x40 SWAP1 KECCAK256 SLOAD PUSH1 0x1 EQ SWAP1 JUMP JUMPDEST PUSH2 0x1A90 DUP3 DUP3 PUSH2 0x1B0D JUMP JUMPDEST PUSH1 0x0 DUP3 DUP2 MSTORE PUSH1 0x1 PUSH1 0x20 MSTORE PUSH1 0x40 SWAP1 KECCAK256 PUSH2 0x819 SWAP1 DUP3 PUSH2 0x1B72 JUMP JUMPDEST PUSH1 0x0 PUSH2 0xD97 DUP4 DUP4 PUSH2 0x1B87 JUMP JUMPDEST PUSH1 0x0 PUSH2 0x5A6 DUP3 SLOAD SWAP1 JUMP JUMPDEST PUSH1 0x0 DUP2 DUP2 MSTORE PUSH1 0x1 DUP4 ADD PUSH1 0x20 MSTORE PUSH1 0x40 DUP2 KECCAK256 SLOAD PUSH2 0x1B05 JUMPI POP DUP2 SLOAD PUSH1 0x1 DUP2 DUP2 ADD DUP5 SSTORE PUSH1 0x0 DUP5 DUP2 MSTORE PUSH1 0x20 DUP1 DUP3 KECCAK256 SWAP1 SWAP4 ADD DUP5 SWAP1 SSTORE DUP5 SLOAD DUP5 DUP3 MSTORE DUP3 DUP7 ADD SWAP1 SWAP4 MSTORE PUSH1 0x40 SWAP1 KECCAK256 SWAP2 SWAP1 SWAP2 SSTORE PUSH2 0x5A6 JUMP JUMPDEST POP PUSH1 0x0 PUSH2 0x5A6 JUMP JUMPDEST PUSH2 0x1B17 DUP3 DUP3 PUSH2 0xD9E JUMP JUMPDEST ISZERO PUSH2 0x982 JUMPI PUSH1 0x0 DUP3 DUP2 MSTORE PUSH1 0x20 DUP2 DUP2 MSTORE PUSH1 0x40 DUP1 DUP4 KECCAK256 PUSH1 0x1 PUSH1 0x1 PUSH1 0xA0 SHL SUB DUP6 AND DUP1 DUP6 MSTORE SWAP3 MSTORE DUP1 DUP4 KECCAK256 DUP1 SLOAD PUSH1 0xFF NOT AND SWAP1 SSTORE MLOAD CALLER SWAP3 DUP6 SWAP2 PUSH32 0xF6391F5C32D9C69D2A47EA670B442974B53935D1EDC7FD64EB21E047A839171B SWAP2 SWAP1 LOG4 POP POP JUMP JUMPDEST PUSH1 0x0 PUSH2 0xD97 DUP4 PUSH1 0x1 PUSH1 0x1 PUSH1 0xA0 SHL SUB DUP5 AND PUSH2 0x1BB1 JUMP JUMPDEST PUSH1 0x0 DUP3 PUSH1 0x0 ADD DUP3 DUP2 SLOAD DUP2 LT PUSH2 0x1B9E JUMPI PUSH2 0x1B9E PUSH2 0x21FB JUMP JUMPDEST SWAP1 PUSH1 0x0 MSTORE PUSH1 0x20 PUSH1 0x0 KECCAK256 ADD SLOAD SWAP1 POP SWAP3 SWAP2 POP POP JUMP JUMPDEST PUSH1 0x0 DUP2 DUP2 MSTORE PUSH1 0x1 DUP4 ADD PUSH1 0x20 MSTORE PUSH1 0x40 DUP2 KECCAK256 SLOAD DUP1 ISZERO PUSH2 0x1C9A JUMPI PUSH1 0x0 PUSH2 0x1BD5 PUSH1 0x1 DUP4 PUSH2 0x2454 JUMP JUMPDEST DUP6 SLOAD SWAP1 SWAP2 POP PUSH1 0x0 SWAP1 PUSH2 0x1BE9 SWAP1 PUSH1 0x1 SWAP1 PUSH2 0x2454 JUMP JUMPDEST SWAP1 POP DUP2 DUP2 EQ PUSH2 0x1C4E JUMPI PUSH1 0x0 DUP7 PUSH1 0x0 ADD DUP3 DUP2 SLOAD DUP2 LT PUSH2 0x1C09 JUMPI PUSH2 0x1C09 PUSH2 0x21FB JUMP JUMPDEST SWAP1 PUSH1 0x0 MSTORE PUSH1 0x20 PUSH1 0x0 KECCAK256 ADD SLOAD SWAP1 POP DUP1 DUP8 PUSH1 0x0 ADD DUP5 DUP2 SLOAD DUP2 LT PUSH2 0x1C2C JUMPI PUSH2 0x1C2C PUSH2 0x21FB JUMP JUMPDEST PUSH1 0x0 SWAP2 DUP3 MSTORE PUSH1 0x20 DUP1 DUP4 KECCAK256 SWAP1 SWAP2 ADD SWAP3 SWAP1 SWAP3 SSTORE SWAP2 DUP3 MSTORE PUSH1 0x1 DUP9 ADD SWAP1 MSTORE PUSH1 0x40 SWAP1 KECCAK256 DUP4 SWAP1 SSTORE JUMPDEST DUP6 SLOAD DUP7 SWAP1 DUP1 PUSH2 0x1C5F JUMPI PUSH2 0x1C5F PUSH2 0x246B JUMP JUMPDEST PUSH1 0x1 SWAP1 SUB DUP2 DUP2 SWAP1 PUSH1 0x0 MSTORE PUSH1 0x20 PUSH1 0x0 KECCAK256 ADD PUSH1 0x0 SWAP1 SSTORE SWAP1 SSTORE DUP6 PUSH1 0x1 ADD PUSH1 0x0 DUP7 DUP2 MSTORE PUSH1 0x20 ADD SWAP1 DUP2 MSTORE PUSH1 0x20 ADD PUSH1 0x0 KECCAK256 PUSH1 0x0 SWAP1 SSTORE PUSH1 0x1 SWAP4 POP POP POP POP PUSH2 0x5A6 JUMP JUMPDEST PUSH1 0x0 SWAP2 POP POP PUSH2 0x5A6 JUMP JUMPDEST PUSH1 0x0 PUSH1 0x20 DUP3 DUP5 SUB SLT ISZERO PUSH2 0x1CB6 JUMPI PUSH1 0x0 DUP1 REVERT JUMPDEST DUP2 CALLDATALOAD PUSH1 0x1 PUSH1 0x1 PUSH1 0xE0 SHL SUB NOT DUP2 AND DUP2 EQ PUSH2 0xD97 JUMPI PUSH1 0x0 DUP1 REVERT JUMPDEST PUSH1 0x0 DUP1 PUSH1 0x20 DUP4 DUP6 SUB SLT ISZERO PUSH2 0x1CE1 JUMPI PUSH1 0x0 DUP1 REVERT JUMPDEST DUP3 CALLDATALOAD PUSH8 0xFFFFFFFFFFFFFFFF DUP1 DUP3 GT ISZERO PUSH2 0x1CF9 JUMPI PUSH1 0x0 DUP1 REVERT JUMPDEST DUP2 DUP6 ADD SWAP2 POP DUP6 PUSH1 0x1F DUP4 ADD SLT PUSH2 0x1D0D JUMPI PUSH1 0x0 DUP1 REVERT JUMPDEST DUP2 CALLDATALOAD DUP2 DUP2 GT ISZERO PUSH2 0x1D1C JUMPI PUSH1 0x0 DUP1 REVERT JUMPDEST DUP7 PUSH1 0x20 DUP3 PUSH1 0x6 SHL DUP6 ADD ADD GT ISZERO PUSH2 0x1D31 JUMPI PUSH1 0x0 DUP1 REVERT JUMPDEST PUSH1 0x20 SWAP3 SWAP1 SWAP3 ADD SWAP7 SWAP2 SWAP6 POP SWAP1 SWAP4 POP POP POP POP JUMP JUMPDEST PUSH1 0x1 PUSH1 0x1 PUSH1 0xA0 SHL SUB DUP2 AND DUP2 EQ PUSH2 0x1502 JUMPI PUSH1 0x0 DUP1 REVERT JUMPDEST PUSH1 0x0 PUSH1 0x20 DUP3 DUP5 SUB SLT ISZERO PUSH2 0x1D6A JUMPI PUSH1 0x0 DUP1 REVERT JUMPDEST DUP2 CALLDATALOAD PUSH2 0xD97 DUP2 PUSH2 0x1D43 JUMP JUMPDEST PUSH1 0x0 PUSH1 0x20 DUP3 DUP5 SUB SLT ISZERO PUSH2 0x1D87 JUMPI PUSH1 0x0 DUP1 REVERT JUMPDEST POP CALLDATALOAD SWAP2 SWAP1 POP JUMP JUMPDEST PUSH4 0x4E487B71 PUSH1 0xE0 SHL PUSH1 0x0 MSTORE PUSH1 0x41 PUSH1 0x4 MSTORE PUSH1 0x24 PUSH1 0x0 REVERT JUMPDEST PUSH1 0x40 MLOAD PUSH1 0x1F DUP3 ADD PUSH1 0x1F NOT AND DUP2 ADD PUSH8 0xFFFFFFFFFFFFFFFF DUP2 GT DUP3 DUP3 LT OR ISZERO PUSH2 0x1DCD JUMPI PUSH2 0x1DCD PUSH2 0x1D8E JUMP JUMPDEST PUSH1 0x40 MSTORE SWAP2 SWAP1 POP JUMP JUMPDEST PUSH1 0x0 PUSH1 0x20 DUP1 DUP4 DUP6 SUB SLT ISZERO PUSH2 0x1DE8 JUMPI PUSH1 0x0 DUP1 REVERT JUMPDEST DUP3 CALLDATALOAD PUSH8 0xFFFFFFFFFFFFFFFF DUP1 DUP3 GT ISZERO PUSH2 0x1E00 JUMPI PUSH1 0x0 DUP1 REVERT JUMPDEST DUP2 DUP6 ADD SWAP2 POP DUP6 PUSH1 0x1F DUP4 ADD SLT PUSH2 0x1E14 JUMPI PUSH1 0x0 DUP1 REVERT JUMPDEST DUP2 CALLDATALOAD DUP2 DUP2 GT ISZERO PUSH2 0x1E26 JUMPI PUSH2 0x1E26 PUSH2 0x1D8E JUMP JUMPDEST DUP1 PUSH1 0x5 SHL SWAP2 POP PUSH2 0x1E37 DUP5 DUP4 ADD PUSH2 0x1DA4 JUMP JUMPDEST DUP2 DUP2 MSTORE SWAP2 DUP4 ADD DUP5 ADD SWAP2 DUP5 DUP2 ADD SWAP1 DUP9 DUP5 GT ISZERO PUSH2 0x1E51 JUMPI PUSH1 0x0 DUP1 REVERT JUMPDEST SWAP4 DUP6 ADD SWAP4 JUMPDEST DUP4 DUP6 LT ISZERO PUSH2 0x1E7B JUMPI DUP5 CALLDATALOAD SWAP3 POP PUSH2 0x1E6B DUP4 PUSH2 0x1D43 JUMP JUMPDEST DUP3 DUP3 MSTORE SWAP4 DUP6 ADD SWAP4 SWAP1 DUP6 ADD SWAP1 PUSH2 0x1E56 JUMP JUMPDEST SWAP9 SWAP8 POP POP POP POP POP POP POP POP JUMP JUMPDEST PUSH1 0x20 DUP1 DUP3 MSTORE DUP3 MLOAD DUP3 DUP3 ADD DUP2 SWAP1 MSTORE PUSH1 0x0 SWAP2 SWAP1 DUP5 DUP3 ADD SWAP1 PUSH1 0x40 DUP6 ADD SWAP1 DUP5 JUMPDEST DUP2 DUP2 LT ISZERO PUSH2 0x1EC8 JUMPI DUP4 MLOAD PUSH1 0x1 PUSH1 0x1 PUSH1 0xA0 SHL SUB AND DUP4 MSTORE SWAP3 DUP5 ADD SWAP3 SWAP2 DUP5 ADD SWAP2 PUSH1 0x1 ADD PUSH2 0x1EA3 JUMP JUMPDEST POP SWAP1 SWAP7 SWAP6 POP POP POP POP POP POP JUMP JUMPDEST PUSH1 0x0 DUP1 PUSH1 0x40 DUP4 DUP6 SUB SLT ISZERO PUSH2 0x1EE7 JUMPI PUSH1 0x0 DUP1 REVERT JUMPDEST DUP3 CALLDATALOAD PUSH2 0x1EF2 DUP2 PUSH2 0x1D43 JUMP JUMPDEST SWAP5 PUSH1 0x20 SWAP4 SWAP1 SWAP4 ADD CALLDATALOAD SWAP4 POP POP POP JUMP JUMPDEST DUP1 CALLDATALOAD DUP1 ISZERO ISZERO DUP2 EQ PUSH2 0x1F10 JUMPI PUSH1 0x0 DUP1 REVERT JUMPDEST SWAP2 SWAP1 POP JUMP JUMPDEST PUSH1 0x0 DUP1 PUSH1 0x40 DUP4 DUP6 SUB SLT ISZERO PUSH2 0x1F28 JUMPI PUSH1 0x0 DUP1 REVERT JUMPDEST DUP3 CALLDATALOAD PUSH2 0x1F33 DUP2 PUSH2 0x1D43 JUMP JUMPDEST SWAP2 POP PUSH2 0x1F41 PUSH1 0x20 DUP5 ADD PUSH2 0x1F00 JUMP JUMPDEST SWAP1 POP SWAP3 POP SWAP3 SWAP1 POP JUMP JUMPDEST PUSH1 0x0 DUP1 PUSH1 0x40 DUP4 DUP6 SUB SLT ISZERO PUSH2 0x1F5D JUMPI PUSH1 0x0 DUP1 REVERT JUMPDEST DUP3 CALLDATALOAD SWAP2 POP PUSH1 0x20 DUP4 ADD CALLDATALOAD PUSH2 0x1F6F DUP2 PUSH2 0x1D43 JUMP JUMPDEST DUP1 SWAP2 POP POP SWAP3 POP SWAP3 SWAP1 POP JUMP JUMPDEST PUSH1 0x0 DUP1 PUSH1 0x40 DUP4 DUP6 SUB SLT ISZERO PUSH2 0x1F8D JUMPI PUSH1 0x0 DUP1 REVERT JUMPDEST DUP3 CALLDATALOAD PUSH2 0x1F98 DUP2 PUSH2 0x1D43 JUMP JUMPDEST SWAP2 POP PUSH1 0x20 DUP4 ADD CALLDATALOAD PUSH2 0x1F6F DUP2 PUSH2 0x1D43 JUMP JUMPDEST PUSH1 0x0 DUP1 DUP4 PUSH1 0x1F DUP5 ADD SLT PUSH2 0x1FBA JUMPI PUSH1 0x0 DUP1 REVERT JUMPDEST POP DUP2 CALLDATALOAD PUSH8 0xFFFFFFFFFFFFFFFF DUP2 GT ISZERO PUSH2 0x1FD2 JUMPI PUSH1 0x0 DUP1 REVERT JUMPDEST PUSH1 0x20 DUP4 ADD SWAP2 POP DUP4 PUSH1 0x20 DUP3 PUSH1 0x5 SHL DUP6 ADD ADD GT ISZERO PUSH2 0x1FED JUMPI PUSH1 0x0 DUP1 REVERT JUMPDEST SWAP3 POP SWAP3 SWAP1 POP JUMP JUMPDEST PUSH1 0x0 DUP1 PUSH1 0x0 PUSH1 0x40 DUP5 DUP7 SUB SLT ISZERO PUSH2 0x2009 JUMPI PUSH1 0x0 DUP1 REVERT JUMPDEST DUP4 CALLDATALOAD PUSH8 0xFFFFFFFFFFFFFFFF DUP2 GT ISZERO PUSH2 0x2020 JUMPI PUSH1 0x0 DUP1 REVERT JUMPDEST PUSH2 0x202C DUP7 DUP3 DUP8 ADD PUSH2 0x1FA8 JUMP JUMPDEST SWAP1 SWAP5 POP SWAP3 POP PUSH2 0x203F SWAP1 POP PUSH1 0x20 DUP6 ADD PUSH2 0x1F00 JUMP JUMPDEST SWAP1 POP SWAP3 POP SWAP3 POP SWAP3 JUMP JUMPDEST PUSH1 0x0 DUP1 PUSH1 0x20 DUP4 DUP6 SUB SLT ISZERO PUSH2 0x205B JUMPI PUSH1 0x0 DUP1 REVERT JUMPDEST DUP3 CALLDATALOAD PUSH8 0xFFFFFFFFFFFFFFFF DUP2 GT ISZERO PUSH2 0x2072 JUMPI PUSH1 0x0 DUP1 REVERT JUMPDEST PUSH2 0x207E DUP6 DUP3 DUP7 ADD PUSH2 0x1FA8 JUMP JUMPDEST SWAP1 SWAP7 SWAP1 SWAP6 POP SWAP4 POP POP POP POP JUMP JUMPDEST PUSH1 0x0 DUP1 PUSH1 0x40 DUP4 DUP6 SUB SLT ISZERO PUSH2 0x209D JUMPI PUSH1 0x0 DUP1 REVERT JUMPDEST DUP3 CALLDATALOAD PUSH2 0x20A8 DUP2 PUSH2 0x1D43 JUMP JUMPDEST SWAP2 POP PUSH1 0x20 DUP4 DUP2 ADD CALLDATALOAD PUSH8 0xFFFFFFFFFFFFFFFF DUP1 DUP3 GT ISZERO PUSH2 0x20C6 JUMPI PUSH1 0x0 DUP1 REVERT JUMPDEST DUP2 DUP7 ADD SWAP2 POP DUP7 PUSH1 0x1F DUP4 ADD SLT PUSH2 0x20DA JUMPI PUSH1 0x0 DUP1 REVERT JUMPDEST DUP2 CALLDATALOAD DUP2 DUP2 GT ISZERO PUSH2 0x20EC JUMPI PUSH2 0x20EC PUSH2 0x1D8E JUMP JUMPDEST PUSH2 0x20FE PUSH1 0x1F DUP3 ADD PUSH1 0x1F NOT AND DUP6 ADD PUSH2 0x1DA4 JUMP JUMPDEST SWAP2 POP DUP1 DUP3 MSTORE DUP8 DUP5 DUP3 DUP6 ADD ADD GT ISZERO PUSH2 0x2114 JUMPI PUSH1 0x0 DUP1 REVERT JUMPDEST DUP1 DUP5 DUP5 ADD DUP6 DUP5 ADD CALLDATACOPY PUSH1 0x0 DUP5 DUP3 DUP5 ADD ADD MSTORE POP DUP1 SWAP4 POP POP POP POP SWAP3 POP SWAP3 SWAP1 POP JUMP JUMPDEST PUSH1 0x0 DUP1 PUSH1 0x40 DUP4 DUP6 SUB SLT ISZERO PUSH2 0x2145 JUMPI PUSH1 0x0 DUP1 REVERT JUMPDEST POP POP DUP1 CALLDATALOAD SWAP3 PUSH1 0x20 SWAP1 SWAP2 ADD CALLDATALOAD SWAP2 POP JUMP JUMPDEST PUSH1 0x0 DUP1 PUSH1 0x0 DUP1 PUSH1 0x0 PUSH1 0xA0 DUP7 DUP9 SUB SLT ISZERO PUSH2 0x216C JUMPI PUSH1 0x0 DUP1 REVERT JUMPDEST DUP6 CALLDATALOAD PUSH2 0x2177 DUP2 PUSH2 0x1D43 JUMP JUMPDEST SWAP5 POP PUSH1 0x20 DUP7 ADD CALLDATALOAD PUSH2 0x2187 DUP2 PUSH2 0x1D43 JUMP JUMPDEST SWAP4 POP PUSH1 0x40 DUP7 ADD CALLDATALOAD PUSH2 0x2197 DUP2 PUSH2 0x1D43 JUMP JUMPDEST SWAP5 SWAP8 SWAP4 SWAP7 POP SWAP4 SWAP5 PUSH1 0x60 DUP2 ADD CALLDATALOAD SWAP5 POP PUSH1 0x80 ADD CALLDATALOAD SWAP3 SWAP2 POP POP JUMP JUMPDEST PUSH1 0x0 DUP1 PUSH1 0x0 PUSH1 0x40 DUP5 DUP7 SUB SLT ISZERO PUSH2 0x21C4 JUMPI PUSH1 0x0 DUP1 REVERT JUMPDEST DUP4 CALLDATALOAD PUSH8 0xFFFFFFFFFFFFFFFF DUP2 GT ISZERO PUSH2 0x21DB JUMPI PUSH1 0x0 DUP1 REVERT JUMPDEST PUSH2 0x21E7 DUP7 DUP3 DUP8 ADD PUSH2 0x1FA8 JUMP JUMPDEST SWAP1 SWAP8 SWAP1 SWAP7 POP PUSH1 0x20 SWAP6 SWAP1 SWAP6 ADD CALLDATALOAD SWAP5 SWAP4 POP POP POP POP JUMP JUMPDEST PUSH4 0x4E487B71 PUSH1 0xE0 SHL PUSH1 0x0 MSTORE PUSH1 0x32 PUSH1 0x4 MSTORE PUSH1 0x24 PUSH1 0x0 REVERT JUMPDEST PUSH4 0x4E487B71 PUSH1 0xE0 SHL PUSH1 0x0 MSTORE PUSH1 0x11 PUSH1 0x4 MSTORE PUSH1 0x24 PUSH1 0x0 REVERT JUMPDEST PUSH1 0x0 PUSH1 0x0 NOT DUP3 EQ ISZERO PUSH2 0x223B JUMPI PUSH2 0x223B PUSH2 0x2211 JUMP JUMPDEST POP PUSH1 0x1 ADD SWAP1 JUMP JUMPDEST PUSH1 0x0 DUP3 NOT DUP3 GT ISZERO PUSH2 0x2255 JUMPI PUSH2 0x2255 PUSH2 0x2211 JUMP JUMPDEST POP ADD SWAP1 JUMP JUMPDEST PUSH1 0x0 JUMPDEST DUP4 DUP2 LT ISZERO PUSH2 0x2275 JUMPI DUP2 DUP2 ADD MLOAD DUP4 DUP3 ADD MSTORE PUSH1 0x20 ADD PUSH2 0x225D JUMP JUMPDEST DUP4 DUP2 GT ISZERO PUSH2 0x623 JUMPI POP POP PUSH1 0x0 SWAP2 ADD MSTORE JUMP JUMPDEST PUSH1 0x0 DUP3 MLOAD PUSH2 0x2298 DUP2 DUP5 PUSH1 0x20 DUP8 ADD PUSH2 0x225A JUMP JUMPDEST SWAP2 SWAP1 SWAP2 ADD SWAP3 SWAP2 POP POP JUMP JUMPDEST DUP1 MLOAD PUSH1 0x20 DUP3 ADD MLOAD PUSH1 0x1 PUSH1 0x1 PUSH1 0xE0 SHL SUB NOT DUP1 DUP3 AND SWAP3 SWAP2 SWAP1 PUSH1 0x4 DUP4 LT ISZERO PUSH2 0x22D1 JUMPI DUP1 DUP2 DUP5 PUSH1 0x4 SUB PUSH1 0x3 SHL SHL DUP4 AND AND SWAP4 POP JUMPDEST POP POP POP SWAP2 SWAP1 POP JUMP JUMPDEST PUSH1 0x20 DUP1 DUP3 MSTORE PUSH1 0x25 SWAP1 DUP3 ADD MSTORE PUSH32 0x4342443A205472616E7366657273206172652074656D706F7261727920646973 PUSH1 0x40 DUP3 ADD MSTORE PUSH5 0x18589B1959 PUSH1 0xDA SHL PUSH1 0x60 DUP3 ADD MSTORE PUSH1 0x80 ADD SWAP1 JUMP JUMPDEST PUSH1 0x0 PUSH1 0x20 DUP3 DUP5 SUB SLT ISZERO PUSH2 0x2330 JUMPI PUSH1 0x0 DUP1 REVERT JUMPDEST POP MLOAD SWAP2 SWAP1 POP JUMP JUMPDEST PUSH1 0x0 DUP2 PUSH1 0x0 NOT DIV DUP4 GT DUP3 ISZERO ISZERO AND ISZERO PUSH2 0x2351 JUMPI PUSH2 0x2351 PUSH2 0x2211 JUMP JUMPDEST POP MUL SWAP1 JUMP JUMPDEST PUSH1 0x0 DUP3 PUSH2 0x2373 JUMPI PUSH4 0x4E487B71 PUSH1 0xE0 SHL PUSH1 0x0 MSTORE PUSH1 0x12 PUSH1 0x4 MSTORE PUSH1 0x24 PUSH1 0x0 REVERT JUMPDEST POP DIV SWAP1 JUMP JUMPDEST PUSH1 0x0 DUP2 PUSH2 0x2387 JUMPI PUSH2 0x2387 PUSH2 0x2211 JUMP JUMPDEST POP PUSH1 0x0 NOT ADD SWAP1 JUMP JUMPDEST PUSH32 0x416363657373436F6E74726F6C3A206163636F756E7420000000000000000000 DUP2 MSTORE PUSH1 0x0 DUP4 MLOAD PUSH2 0x23C7 DUP2 PUSH1 0x17 DUP6 ADD PUSH1 0x20 DUP9 ADD PUSH2 0x225A JUMP JUMPDEST PUSH17 0x1034B99036B4B9B9B4B733903937B6329 PUSH1 0x7D SHL PUSH1 0x17 SWAP2 DUP5 ADD SWAP2 DUP3 ADD MSTORE DUP4 MLOAD PUSH2 0x23F8 DUP2 PUSH1 0x28 DUP5 ADD PUSH1 0x20 DUP9 ADD PUSH2 0x225A JUMP JUMPDEST ADD PUSH1 0x28 ADD SWAP5 SWAP4 POP POP POP POP JUMP JUMPDEST PUSH1 0x20 DUP2 MSTORE PUSH1 0x0 DUP3 MLOAD DUP1 PUSH1 0x20 DUP5 ADD MSTORE PUSH2 0x2423 DUP2 PUSH1 0x40 DUP6 ADD PUSH1 0x20 DUP8 ADD PUSH2 0x225A JUMP JUMPDEST PUSH1 0x1F ADD PUSH1 0x1F NOT AND SWAP2 SWAP1 SWAP2 ADD PUSH1 0x40 ADD SWAP3 SWAP2 POP POP JUMP JUMPDEST PUSH1 0x0 PUSH1 0x20 DUP3 DUP5 SUB SLT ISZERO PUSH2 0x2449 JUMPI PUSH1 0x0 DUP1 REVERT JUMPDEST DUP2 MLOAD PUSH2 0xD97 DUP2 PUSH2 0x1D43 JUMP JUMPDEST PUSH1 0x0 DUP3 DUP3 LT ISZERO PUSH2 0x2466 JUMPI PUSH2 0x2466 PUSH2 0x2211 JUMP JUMPDEST POP SUB SWAP1 JUMP JUMPDEST PUSH4 0x4E487B71 PUSH1 0xE0 SHL PUSH1 0x0 MSTORE PUSH1 0x31 PUSH1 0x4 MSTORE PUSH1 0x24 PUSH1 0x0 REVERT INVALID LOG2 PUSH5 0x6970667358 0x22 SLT KECCAK256 SSTORE DUP7 MOD CREATE JUMP CHAINID SWAP5 0xE9 OR SWAP2 DUP9 PUSH15 0x4E1282A1F0F77D78C2E6A181D43381 0xAC BLOCKHASH PC SWAP5 0xC6 PUSH5 0x736F6C6343 STOP ADDMOD SIGNEXTEND STOP CALLER "
		},
		"gasEstimates": {
			"creation": {
				"codeDepositCost": "1879800",
				"executionCost": "infinite",
				"totalCost": "infinite"
			},
			"external": {
				"ROLE_ADMIN()": "262",
				"bulkMarkAddressAsBot(address[])": "infinite",
				"bulkMarkAddressAsBotBool(address[],bool)": "infinite",
				"bulkMarkAddressAsHuman(address[],bool)": "infinite",
				"bulkMarkAsUniswapPair(address[],uint256)": "infinite",
				"checkTransaction(address,address)": "infinite",
				"checkTransactionInfo(address,address,address,uint256,uint256)": "infinite",
				"cronJobs(uint256)": "4795",
				"executeCronJobs()": "infinite",
				"getCooldownPeriodSell(address)": "infinite",
				"getCronJobsLength()": "2381",
				"getReceiveTimestamp(address,address)": "infinite",
				"getRoleAdmin(bytes32)": "2581",
				"getRoleMember(bytes32,uint256)": "infinite",
				"getRoleMemberCount(bytes32)": "infinite",
				"grantRole(bytes32,address)": "infinite",
				"grantRolesBulk((bytes32,address)[])": "infinite",
				"hasRole(bytes32,address)": "2762",
				"isBotAddress(address)": "infinite",
				"isContract(address)": "2991",
				"isMarkedAsBotStorage(address)": "infinite",
				"isMarkedAsBotStorageBulk(address[])": "infinite",
				"isMarkedAsHumanStorage(address)": "infinite",
				"isMarkedAsHumanStorageBulk(address[])": "infinite",
				"isUniswapPair(address)": "infinite",
				"markAddressAsBot(address)": "infinite",
				"markAddressAsHuman(address,bool)": "infinite",
				"markAddressAsNotBot(address)": "infinite",
				"markAsUniswapPair(address,uint256)": "infinite",
				"registerJob(address,string)": "infinite",
				"registerTransaction(address,address)": "infinite",
				"removeJobs(address)": "infinite",
				"renounceRole(bytes32,address)": "infinite",
				"revokeRole(bytes32,address)": "infinite",
				"supportsInterface(bytes4)": "473",
				"updateCooldownPeriodSell(address,uint256)": "infinite"
			},
			"internal": {
				"isUniswapPairChecker(address,address)": "infinite"
			}
		},
		"methodIdentifiers": {
			"ROLE_ADMIN()": "d391014b",
			"bulkMarkAddressAsBot(address[])": "6a930a95",
			"bulkMarkAddressAsBotBool(address[],bool)": "404a8cca",
			"bulkMarkAddressAsHuman(address[],bool)": "a8798ffc",
			"bulkMarkAsUniswapPair(address[],uint256)": "bb92e42c",
			"checkTransaction(address,address)": "322d5fbc",
			"checkTransactionInfo(address,address,address,uint256,uint256)": "b34ff36e",
			"cronJobs(uint256)": "1555717c",
			"executeCronJobs()": "eef84ba1",
			"getCooldownPeriodSell(address)": "e53fd775",
			"getCronJobsLength()": "4bbef59b",
			"getReceiveTimestamp(address,address)": "391bc2e5",
			"getRoleAdmin(bytes32)": "248a9ca3",
			"getRoleMember(bytes32,uint256)": "9010d07c",
			"getRoleMemberCount(bytes32)": "ca15c873",
			"grantRole(bytes32,address)": "2f2ff15d",
			"grantRolesBulk((bytes32,address)[])": "03ed957f",
			"hasRole(bytes32,address)": "91d14854",
			"isBotAddress(address)": "eaa8f7e3",
			"isContract(address)": "16279055",
			"isMarkedAsBotStorage(address)": "5f242323",
			"isMarkedAsBotStorageBulk(address[])": "441c62a8",
			"isMarkedAsHumanStorage(address)": "db8aa538",
			"isMarkedAsHumanStorageBulk(address[])": "1fd413f8",
			"isUniswapPair(address)": "9cece12e",
			"markAddressAsBot(address)": "1093baa9",
			"markAddressAsHuman(address,bool)": "231683ae",
			"markAddressAsNotBot(address)": "a9a48824",
			"markAsUniswapPair(address,uint256)": "2231cac2",
			"registerJob(address,string)": "75ee0e28",
			"registerTransaction(address,address)": "72e64ad6",
			"removeJobs(address)": "fe32a5a2",
			"renounceRole(bytes32,address)": "36568abe",
			"revokeRole(bytes32,address)": "d547741f",
			"supportsInterface(bytes4)": "01ffc9a7",
			"updateCooldownPeriodSell(address,uint256)": "ed0b8476"
		}
	},
	"abi": [
		{
			"inputs": [],
			"stateMutability": "nonpayable",
			"type": "constructor"
		},
		{
			"anonymous": false,
			"inputs": [
				{
					"indexed": true,
					"internalType": "bytes32",
					"name": "role",
					"type": "bytes32"
				},
				{
					"indexed": true,
					"internalType": "bytes32",
					"name": "previousAdminRole",
					"type": "bytes32"
				},
				{
					"indexed": true,
					"internalType": "bytes32",
					"name": "newAdminRole",
					"type": "bytes32"
				}
			],
			"name": "RoleAdminChanged",
			"type": "event"
		},
		{
			"anonymous": false,
			"inputs": [
				{
					"indexed": true,
					"internalType": "bytes32",
					"name": "role",
					"type": "bytes32"
				},
				{
					"indexed": true,
					"internalType": "address",
					"name": "account",
					"type": "address"
				},
				{
					"indexed": true,
					"internalType": "address",
					"name": "sender",
					"type": "address"
				}
			],
			"name": "RoleGranted",
			"type": "event"
		},
		{
			"anonymous": false,
			"inputs": [
				{
					"indexed": true,
					"internalType": "bytes32",
					"name": "role",
					"type": "bytes32"
				},
				{
					"indexed": true,
					"internalType": "address",
					"name": "account",
					"type": "address"
				},
				{
					"indexed": true,
					"internalType": "address",
					"name": "sender",
					"type": "address"
				}
			],
			"name": "RoleRevoked",
			"type": "event"
		},
		{
			"inputs": [],
			"name": "ROLE_ADMIN",
			"outputs": [
				{
					"internalType": "bytes32",
					"name": "",
					"type": "bytes32"
				}
			],
			"stateMutability": "view",
			"type": "function"
		},
		{
			"inputs": [
				{
					"internalType": "address[]",
					"name": "addrs",
					"type": "address[]"
				}
			],
			"name": "bulkMarkAddressAsBot",
			"outputs": [],
			"stateMutability": "nonpayable",
			"type": "function"
		},
		{
			"inputs": [
				{
					"internalType": "address[]",
					"name": "addrs",
					"type": "address[]"
				},
				{
					"internalType": "bool",
					"name": "value",
					"type": "bool"
				}
			],
			"name": "bulkMarkAddressAsBotBool",
			"outputs": [],
			"stateMutability": "nonpayable",
			"type": "function"
		},
		{
			"inputs": [
				{
					"internalType": "address[]",
					"name": "addrs",
					"type": "address[]"
				},
				{
					"internalType": "bool",
					"name": "value",
					"type": "bool"
				}
			],
			"name": "bulkMarkAddressAsHuman",
			"outputs": [],
			"stateMutability": "nonpayable",
			"type": "function"
		},
		{
			"inputs": [
				{
					"internalType": "address[]",
					"name": "addrs",
					"type": "address[]"
				},
				{
					"internalType": "uint256",
					"name": "value",
					"type": "uint256"
				}
			],
			"name": "bulkMarkAsUniswapPair",
			"outputs": [],
			"stateMutability": "nonpayable",
			"type": "function"
		},
		{
			"inputs": [
				{
					"internalType": "address",
					"name": "tokenAddr",
					"type": "address"
				},
				{
					"internalType": "address",
					"name": "addr",
					"type": "address"
				}
			],
			"name": "checkTransaction",
			"outputs": [
				{
					"internalType": "bool",
					"name": "",
					"type": "bool"
				}
			],
			"stateMutability": "nonpayable",
			"type": "function"
		},
		{
			"inputs": [
				{
					"internalType": "address",
					"name": "tokenAddr",
					"type": "address"
				},
				{
					"internalType": "address",
					"name": "sender",
					"type": "address"
				},
				{
					"internalType": "address",
					"name": "recipient",
					"type": "address"
				},
				{
					"internalType": "uint256",
					"name": "recipientBalance",
					"type": "uint256"
				},
				{
					"internalType": "uint256",
					"name": "transferAmount",
					"type": "uint256"
				}
			],
			"name": "checkTransactionInfo",
			"outputs": [
				{
					"components": [
						{
							"internalType": "bool",
							"name": "isBuy",
							"type": "bool"
						},
						{
							"internalType": "bool",
							"name": "isSell",
							"type": "bool"
						}
					],
					"internalType": "struct TransactionInfo",
					"name": "output",
					"type": "tuple"
				}
			],
			"stateMutability": "nonpayable",
			"type": "function"
		},
		{
			"inputs": [
				{
					"internalType": "uint256",
					"name": "",
					"type": "uint256"
				}
			],
			"name": "cronJobs",
			"outputs": [
				{
					"internalType": "address",
					"name": "targetContract",
					"type": "address"
				},
				{
					"internalType": "bytes4",
					"name": "signature",
					"type": "bytes4"
				}
			],
			"stateMutability": "view",
			"type": "function"
		},
		{
			"inputs": [],
			"name": "executeCronJobs",
			"outputs": [],
			"stateMutability": "nonpayable",
			"type": "function"
		},
		{
			"inputs": [
				{
					"internalType": "address",
					"name": "tokenAddr",
					"type": "address"
				}
			],
			"name": "getCooldownPeriodSell",
			"outputs": [
				{
					"internalType": "uint256",
					"name": "",
					"type": "uint256"
				}
			],
			"stateMutability": "view",
			"type": "function"
		},
		{
			"inputs": [],
			"name": "getCronJobsLength",
			"outputs": [
				{
					"internalType": "uint256",
					"name": "",
					"type": "uint256"
				}
			],
			"stateMutability": "view",
			"type": "function"
		},
		{
			"inputs": [
				{
					"internalType": "address",
					"name": "tokenAddr",
					"type": "address"
				},
				{
					"internalType": "address",
					"name": "addr",
					"type": "address"
				}
			],
			"name": "getReceiveTimestamp",
			"outputs": [
				{
					"internalType": "uint256",
					"name": "",
					"type": "uint256"
				}
			],
			"stateMutability": "view",
			"type": "function"
		},
		{
			"inputs": [
				{
					"internalType": "bytes32",
					"name": "role",
					"type": "bytes32"
				}
			],
			"name": "getRoleAdmin",
			"outputs": [
				{
					"internalType": "bytes32",
					"name": "",
					"type": "bytes32"
				}
			],
			"stateMutability": "view",
			"type": "function"
		},
		{
			"inputs": [
				{
					"internalType": "bytes32",
					"name": "role",
					"type": "bytes32"
				},
				{
					"internalType": "uint256",
					"name": "index",
					"type": "uint256"
				}
			],
			"name": "getRoleMember",
			"outputs": [
				{
					"internalType": "address",
					"name": "",
					"type": "address"
				}
			],
			"stateMutability": "view",
			"type": "function"
		},
		{
			"inputs": [
				{
					"internalType": "bytes32",
					"name": "role",
					"type": "bytes32"
				}
			],
			"name": "getRoleMemberCount",
			"outputs": [
				{
					"internalType": "uint256",
					"name": "",
					"type": "uint256"
				}
			],
			"stateMutability": "view",
			"type": "function"
		},
		{
			"inputs": [
				{
					"internalType": "bytes32",
					"name": "role",
					"type": "bytes32"
				},
				{
					"internalType": "address",
					"name": "account",
					"type": "address"
				}
			],
			"name": "grantRole",
			"outputs": [],
			"stateMutability": "nonpayable",
			"type": "function"
		},
		{
			"inputs": [
				{
					"components": [
						{
							"internalType": "bytes32",
							"name": "role",
							"type": "bytes32"
						},
						{
							"internalType": "address",
							"name": "addr",
							"type": "address"
						}
					],
					"internalType": "struct RoleAccess[]",
					"name": "roles",
					"type": "tuple[]"
				}
			],
			"name": "grantRolesBulk",
			"outputs": [],
			"stateMutability": "nonpayable",
			"type": "function"
		},
		{
			"inputs": [
				{
					"internalType": "bytes32",
					"name": "role",
					"type": "bytes32"
				},
				{
					"internalType": "address",
					"name": "account",
					"type": "address"
				}
			],
			"name": "hasRole",
			"outputs": [
				{
					"internalType": "bool",
					"name": "",
					"type": "bool"
				}
			],
			"stateMutability": "view",
			"type": "function"
		},
		{
			"inputs": [
				{
					"internalType": "address",
					"name": "addr",
					"type": "address"
				}
			],
			"name": "isBotAddress",
			"outputs": [
				{
					"internalType": "bool",
					"name": "",
					"type": "bool"
				}
			],
			"stateMutability": "view",
			"type": "function"
		},
		{
			"inputs": [
				{
					"internalType": "address",
					"name": "addr",
					"type": "address"
				}
			],
			"name": "isContract",
			"outputs": [
				{
					"internalType": "bool",
					"name": "",
					"type": "bool"
				}
			],
			"stateMutability": "view",
			"type": "function"
		},
		{
			"inputs": [
				{
					"internalType": "address",
					"name": "addr",
					"type": "address"
				}
			],
			"name": "isMarkedAsBotStorage",
			"outputs": [
				{
					"internalType": "bool",
					"name": "",
					"type": "bool"
				}
			],
			"stateMutability": "view",
			"type": "function"
		},
		{
			"inputs": [
				{
					"internalType": "address[]",
					"name": "addrs",
					"type": "address[]"
				}
			],
			"name": "isMarkedAsBotStorageBulk",
			"outputs": [
				{
					"internalType": "address[]",
					"name": "",
					"type": "address[]"
				}
			],
			"stateMutability": "view",
			"type": "function"
		},
		{
			"inputs": [
				{
					"internalType": "address",
					"name": "addr",
					"type": "address"
				}
			],
			"name": "isMarkedAsHumanStorage",
			"outputs": [
				{
					"internalType": "bool",
					"name": "",
					"type": "bool"
				}
			],
			"stateMutability": "view",
			"type": "function"
		},
		{
			"inputs": [
				{
					"internalType": "address[]",
					"name": "addrs",
					"type": "address[]"
				}
			],
			"name": "isMarkedAsHumanStorageBulk",
			"outputs": [
				{
					"internalType": "address[]",
					"name": "",
					"type": "address[]"
				}
			],
			"stateMutability": "view",
			"type": "function"
		},
		{
			"inputs": [
				{
					"internalType": "address",
					"name": "addr",
					"type": "address"
				}
			],
			"name": "isUniswapPair",
			"outputs": [
				{
					"internalType": "uint256",
					"name": "",
					"type": "uint256"
				}
			],
			"stateMutability": "view",
			"type": "function"
		},
		{
			"inputs": [
				{
					"internalType": "address",
					"name": "addr",
					"type": "address"
				}
			],
			"name": "markAddressAsBot",
			"outputs": [],
			"stateMutability": "nonpayable",
			"type": "function"
		},
		{
			"inputs": [
				{
					"internalType": "address",
					"name": "addr",
					"type": "address"
				},
				{
					"internalType": "bool",
					"name": "value",
					"type": "bool"
				}
			],
			"name": "markAddressAsHuman",
			"outputs": [],
			"stateMutability": "nonpayable",
			"type": "function"
		},
		{
			"inputs": [
				{
					"internalType": "address",
					"name": "addr",
					"type": "address"
				}
			],
			"name": "markAddressAsNotBot",
			"outputs": [],
			"stateMutability": "nonpayable",
			"type": "function"
		},
		{
			"inputs": [
				{
					"internalType": "address",
					"name": "addr",
					"type": "address"
				},
				{
					"internalType": "uint256",
					"name": "value",
					"type": "uint256"
				}
			],
			"name": "markAsUniswapPair",
			"outputs": [],
			"stateMutability": "nonpayable",
			"type": "function"
		},
		{
			"inputs": [
				{
					"internalType": "address",
					"name": "targetContract",
					"type": "address"
				},
				{
					"internalType": "string",
					"name": "abiCall",
					"type": "string"
				}
			],
			"name": "registerJob",
			"outputs": [],
			"stateMutability": "nonpayable",
			"type": "function"
		},
		{
			"inputs": [
				{
					"internalType": "address",
					"name": "tokenAddr",
					"type": "address"
				},
				{
					"internalType": "address",
					"name": "addr",
					"type": "address"
				}
			],
			"name": "registerTransaction",
			"outputs": [],
			"stateMutability": "nonpayable",
			"type": "function"
		},
		{
			"inputs": [
				{
					"internalType": "address",
					"name": "targetContract",
					"type": "address"
				}
			],
			"name": "removeJobs",
			"outputs": [],
			"stateMutability": "nonpayable",
			"type": "function"
		},
		{
			"inputs": [
				{
					"internalType": "bytes32",
					"name": "role",
					"type": "bytes32"
				},
				{
					"internalType": "address",
					"name": "account",
					"type": "address"
				}
			],
			"name": "renounceRole",
			"outputs": [],
			"stateMutability": "nonpayable",
			"type": "function"
		},
		{
			"inputs": [
				{
					"internalType": "bytes32",
					"name": "role",
					"type": "bytes32"
				},
				{
					"internalType": "address",
					"name": "account",
					"type": "address"
				}
			],
			"name": "revokeRole",
			"outputs": [],
			"stateMutability": "nonpayable",
			"type": "function"
		},
		{
			"inputs": [
				{
					"internalType": "bytes4",
					"name": "interfaceId",
					"type": "bytes4"
				}
			],
			"name": "supportsInterface",
			"outputs": [
				{
					"internalType": "bool",
					"name": "",
					"type": "bool"
				}
			],
			"stateMutability": "view",
			"type": "function"
		},
		{
			"inputs": [
				{
					"internalType": "address",
					"name": "tokenAddr",
					"type": "address"
				},
				{
					"internalType": "uint256",
					"name": "newCooldownSellPeriod",
					"type": "uint256"
				}
			],
			"name": "updateCooldownPeriodSell",
			"outputs": [],
			"stateMutability": "nonpayable",
			"type": "function"
		}
	]
}