{
	"data": {
		"bytecode": {
			"linkReferences": {},
			"object": "60806040523480156200001157600080fd5b506001600255620000246000336200002a565b6200018f565b6200003682826200003a565b5050565b6200005182826200007d60201b620021ae1760201c565b600082815260016020908152604090912062000078918390620022326200011d821b17901c565b505050565b6000828152602081815260408083206001600160a01b038516845290915290205460ff1662000036576000828152602081815260408083206001600160a01b03851684529091529020805460ff19166001179055620000d93390565b6001600160a01b0316816001600160a01b0316837f2f8788117e7eff1d82e926ec794901d17c78024a50270940304540a733656f0d60405160405180910390a45050565b600062000134836001600160a01b0384166200013d565b90505b92915050565b6000818152600183016020526040812054620001865750815460018181018455600084815260208082209093018490558454848252828601909352604090209190915562000137565b50600062000137565b613f38806200019f6000396000f3fe608060405234801561001057600080fd5b50600436106101c45760003560e01c806391d14854116100f9578063d01350bd11610097578063d88d7eba11610071578063d88d7eba14610406578063e07bf7ad14610419578063e40a99a814610436578063ea680f2a1461044957600080fd5b8063d01350bd146103d8578063d391014b146103eb578063d547741f146103f357600080fd5b8063bbadc03b116100d3578063bbadc03b1461037f578063c93c815c1461039f578063ca15c873146103b2578063cd01a60a146103c557600080fd5b806391d14854146103515780639bc731fc14610364578063a465626f1461037757600080fd5b8063370d77d0116101665780636853ac26116101405780636853ac26146103105780638129fc1c1461032357806384d936121461032b5780639010d07c1461033e57600080fd5b8063370d77d0146102bc57806343039b2f146102e75780635e6104b1146102fa57600080fd5b8063186efad9116101a2578063186efad914610242578063248a9ca3146102655780632f2ff15d1461029657806336568abe146102a957600080fd5b806301ffc9a7146101c957806303ed957f1461020257806306fb1a0714610217575b600080fd5b6101ed6101d736600461373b565b6001600160e01b0319166301ffc9a760e01b1490565b60405190151581526020015b60405180910390f35b610215610210366004613765565b61045c565b005b61022a6102253660046137da565b6104d9565b6040516001600160a01b0390911681526020016101f9565b61024a610556565b604080519384526020840192909252908201526060016101f9565b6102886102733660046137da565b60009081526020819052604090206001015490565b6040519081526020016101f9565b6102156102a4366004613808565b6106c1565b6102156102b7366004613808565b6106ec565b6102cf6102ca366004613868565b61076f565b6040516001600160701b0390911681526020016101f9565b6102156102f53660046138be565b610848565b610302610d38565b6040516101f9929190613959565b61028861031e3660046137da565b610f44565b6102156110fc565b610215610339366004613976565b611336565b61022a61034c3660046139a2565b6116bd565b6101ed61035f366004613808565b6116dc565b6102156103723660046139c4565b611705565b61028861170e565b61039261038d3660046139c4565b61172d565b6040516101f991906139e1565b6102156103ad3660046139f0565b611823565b6102886103c03660046137da565b611cf5565b6102886103d33660046139a2565b611d0c565b6103926103e63660046137da565b611d98565b610288600081565b610215610401366004613808565b611db3565b6102cf610414366004613868565b611dd9565b610421611ea1565b604080519283526020830191909152016101f9565b6102886104443660046139a2565b61203f565b6102cf610457366004613a35565b6120bf565b60006104688133612247565b60005b828110156104d3576104c184848381811061048857610488613a9e565b905060400201600001358585848181106104a4576104a4613a9e565b90506040020160200160208101906104bc91906139c4565b6122ab565b806104cb81613aca565b91505061046b565b50505050565b6040516306fb1a0760e01b81526004810182905260009073def1fac7bf08f173d286bbbdcbeeade695129840906306fb1a0790602401602060405180830381865afa15801561052c573d6000803e3d6000fd5b505050506040513d601f19601f820116820180604052508101906105509190613ae5565b92915050565b6040516370a0823160e01b81523060048201526000908190819073029581a9121998fcbb096ceafa92e3e10057878f906370a0823190602401602060405180830381865afa1580156105ac573d6000803e3d6000fd5b505050506040513d601f19601f820116820180604052508101906105d09190613b02565b6040516370a0823160e01b815230600482015273c7a0e9429bbc262d97f3e87bf38a95cae8b05eda906370a0823190602401602060405180830381865afa15801561061f573d6000803e3d6000fd5b505050506040513d601f19601f820116820180604052508101906106439190613b02565b6040516370a0823160e01b815230600482015273a84d62f776606b9eebd761e2d31f65442ecc437e906370a0823190602401602060405180830381865afa158015610692573d6000803e3d6000fd5b505050506040513d601f19601f820116820180604052508101906106b69190613b02565b925092509250909192565b6000828152602081905260409020600101546106dd8133612247565b6106e783836122b1565b505050565b6001600160a01b03811633146107615760405162461bcd60e51b815260206004820152602f60248201527f416363657373436f6e74726f6c3a2063616e206f6e6c792072656e6f756e636560448201526e103937b632b9903337b91039b2b63360891b60648201526084015b60405180910390fd5b61076b82826122d3565b5050565b60006002805414156107935760405162461bcd60e51b815260040161075890613b1b565b6002805563ffffffff8216428110156107be5760405162461bcd60e51b815260040161075890613b52565b6001600160a01b03861660009081526004602052604090205486901580159061080457506001600160a01b03811673a84d62f776606b9eebd761e2d31f65442ecc437e14155b6108205760405162461bcd60e51b815260040161075890613b89565b8661082a816122f5565b61083788888860016123fa565b600160025598975050505050505050565b60028054141561086a5760405162461bcd60e51b815260040161075890613b1b565b600280556001600160a01b0382166000908152600460205260409020548290158015906108b457506001600160a01b03811673a84d62f776606b9eebd761e2d31f65442ecc437e14155b6108d05760405162461bcd60e51b815260040161075890613b89565b826108da816122f5565b6040516370a0823160e01b815230600482015284906001600160701b038516906000906001600160a01b038416906370a0823190602401602060405180830381865afa15801561092e573d6000803e3d6000fd5b505050506040513d601f19601f820116820180604052508101906109529190613b02565b90506109696001600160a01b038416333085612996565b6040516370a0823160e01b81523060048201526000906001600160a01b038516906370a0823190602401602060405180830381865afa1580156109b0573d6000803e3d6000fd5b505050506040513d601f19601f820116820180604052508101906109d49190613b02565b90506109e08383613bb3565b8110156109ff5760405162461bcd60e51b815260040161075890613bcb565b6001600160a01b0388166000908152600460205260408120546003805491929183908110610a2f57610a2f613a9e565b906000526020600020906003020160010160009054906101000a90046001600160701b03166001600160701b031660038381548110610a7057610a70613a9e565b6000918252602090912060016003909202010154610aa2906001600160701b03600160701b9091048116908c16613c17565b610aac9190613c4c565b604051630bb9ff5d60e01b815290915073a84d62f776606b9eebd761e2d31f65442ecc437e90630bb9ff5d90610ae89030908590600401613c60565b600060405180830381600087803b158015610b0257600080fd5b505af1158015610b16573d6000803e3d6000fd5b505060405163bd85b03960e01b81526004810185905260009250738e06e97c598b0bb2910df62c626ebf6cd55409e6915063bd85b03990602401602060405180830381865afa158015610b6d573d6000803e3d6000fd5b505050506040513d601f19601f82011682018060405250810190610b919190613b02565b9050600060038481548110610ba857610ba8613a9e565b60009182526020909120600160039092020101546001600160701b0390811690610bd59084908e16613c17565b610bdf9190613c4c565b60405163611c68f760e11b8152909150738e06e97c598b0bb2910df62c626ebf6cd55409e69063c238d1ee90610c1d90339088908690600401613c82565b600060405180830381600087803b158015610c3757600080fd5b505af1158015610c4b573d6000803e3d6000fd5b505050508a60038581548110610c6357610c63613a9e565b6000918252602082206001600390920201018054909190610c8e9084906001600160701b0316613cb2565b92506101000a8154816001600160701b0302191690836001600160701b031602179055508260038581548110610cc657610cc6613a9e565b9060005260206000209060030201600101600e8282829054906101000a90046001600160701b0316610cf89190613cb2565b92506101000a8154816001600160701b0302191690836001600160701b03160217905550610d258c6122f5565b5050600160025550505050505050505050565b610d4061363d565b610d4861363d565b60046020527f674b36ec14ca1343904f60303cfe142028fe384ede1bb8216405c2d715eec2aa5473c7a0e9429bbc262d97f3e87bf38a95cae8b05eda6000527fd4daa411513e44c00cbbdbcd7643e3f083ae7772d91f19e35d6b7f63cf386a45546003805483908110610dbd57610dbd613a9e565b906000526020600020906003020160038281548110610dde57610dde613a9e565b60009182526020918290206040805160808101825285546001600160a01b0316815260018601546001600160701b0380821696830196909652600160701b900490941684820152805161010081019091526003909202019190839060608301906002830160088282826020028201916000905b82829054906101000a900463ffffffff1663ffffffff1681526020019060040190602082600301049283019260010382029150808411610e51575050509290935250506040805160808101825285546001600160a01b0316815260018601546001600160701b038082166020840152600160701b9091041681830152815161010081019283905294965093859350606085019250906002840190600890826000855b82829054906101000a900463ffffffff1663ffffffff1681526020019060040190602082600301049283019260010382029150808411610ef357905050505050508152505090509350935050509091565b600080610f4f61170e565b905060006008610f60836001613bb3565b610f6a9190613cdd565b90506000805b60088110156110075783811480610f8657508281145b15610f9057610ff5565b60038681548110610fa357610fa3613a9e565b90600052602060002090600302016002018160088110610fc557610fc5613a9e565b600891828204019190066004029054906101000a900463ffffffff1663ffffffff1682610ff29190613bb3565b91505b80610fff81613aca565b915050610f70565b50600061101c82670de0b6b3a7640000613c17565b611028906103e8613c17565b905060006003878154811061103f5761103f613a9e565b600091825260209091206003909102016001015461106e90600160701b90046001600160701b03166002613cf1565b611079906096613cf1565b6001600160701b031690508082116110955761270f95506110f2565b81811080156110ad57506110aa816064613c17565b82105b156110da57806110bd8184613d20565b6110c79190613c4c565b6110d39061270f613d20565b95506110f2565b6110e5816064613c17565b8211156110f2576126ac95505b5050505050919050565b60055460ff161561114f5760405162461bcd60e51b815260206004820152601860248201527f4353313a20416c726561647920696e697469616c697a656400000000000000006044820152606401610758565b6005805460ff1916600117905561116461366b565b60408051608081018252600080825260208201818152928201818152606083018581526003805460018101825593819052845193027fc2575a0e9e593c00f959f8c92f12db2869c3395a3b0502d05e2516446f71f85b810180546001600160a01b03959095166001600160a01b031990951694909417845594517fc2575a0e9e593c00f959f8c92f12db2869c3395a3b0502d05e2516446f71f85c8601805493516001600160701b03908116600160701b026001600160e01b0319909516921691909117929092179091555191929091611262917fc2575a0e9e593c00f959f8c92f12db2869c3395a3b0502d05e2516446f71f85d0190600861368a565b505060405163611c68f760e11b8152738e06e97c598b0bb2910df62c626ebf6cd55409e6915063c238d1ee906112a59061dead906000906103e890600401613c82565b600060405180830381600087803b1580156112bf57600080fd5b505af11580156112d3573d6000803e3d6000fd5b5050505061130a73029581a9121998fcbb096ceafa92e3e10057878f69d3c21bcecceda1000000693f870857a3e0e3800000611823565b61133373c7a0e9429bbc262d97f3e87bf38a95cae8b05eda69d3c21bcecceda100000080611823565b50565b6002805414156113585760405162461bcd60e51b815260040161075890613b1b565b600280556001600160a01b0382166000908152600460205260409020548290158015906113a257506001600160a01b03811673a84d62f776606b9eebd761e2d31f65442ecc437e14155b6113be5760405162461bcd60e51b815260040161075890613b89565b826113c8816122f5565b6001600160a01b038416600090815260046020819052604091829020549151630dab52df60e11b815233918101919091526024810182905260448101859052738e06e97c598b0bb2910df62c626ebf6cd55409e690631b56a5be90606401600060405180830381600087803b15801561144057600080fd5b505af1158015611454573d6000803e3d6000fd5b505060405163bd85b03960e01b81526004810184905260009250738e06e97c598b0bb2910df62c626ebf6cd55409e6915063bd85b03990602401602060405180830381865afa1580156114ab573d6000803e3d6000fd5b505050506040513d601f19601f820116820180604052508101906114cf9190613b02565b905060008186600385815481106114e8576114e8613a9e565b600091825260209091206001600390920201015461150f91906001600160701b0316613c17565b6115199190613c4c565b9050600082876003868154811061153257611532613a9e565b60009182526020909120600390910201600101546115609190600160701b90046001600160701b0316613c17565b61156a9190613c4c565b6040516318a8ad8760e01b815290915073a84d62f776606b9eebd761e2d31f65442ecc437e906318a8ad87906115a69030908590600401613c60565b600060405180830381600087803b1580156115c057600080fd5b505af11580156115d4573d6000803e3d6000fd5b5050505081600385815481106115ec576115ec613a9e565b60009182526020822060016003909202010180549091906116179084906001600160701b0316613d37565b92506101000a8154816001600160701b0302191690836001600160701b03160217905550806003858154811061164f5761164f613a9e565b9060005260206000209060030201600101600e8282829054906101000a90046001600160701b03166116819190613d37565b92506101000a8154816001600160701b0302191690836001600160701b031602179055506116ae886122f5565b50506001600255505050505050565b60008281526001602052604081206116d59083612a01565b9392505050565b6000918252602082815260408084206001600160a01b0393909316845291905290205460ff1690565b611333816122f5565b6000600861171e61384042613c4c565b6117289190613cdd565b905090565b61173561363d565b6001600160a01b03821660009081526004602052604090205460038054909190811061176357611763613a9e565b600091825260209182902060408051608081018252600390930290910180546001600160a01b0316835260018101546001600160701b0380821695850195909552600160701b9004909316828201528051610100810190915290919060608301906002830160088282826020028201916000905b82829054906101000a900463ffffffff1663ffffffff16815260200190600401906020826003010492830192600103820291508084116117d75790505050505050815250509050919050565b600061182f8133612247565b6002805414156118515760405162461bcd60e51b815260040161075890613b1b565b600280556001600160a01b038416600090815260046020526040902054849015801561189a57506001600160a01b03811673a84d62f776606b9eebd761e2d31f65442ecc437e14155b6118da5760405162461bcd60e51b81526020600482015260116024820152704353313a20546f6b656e2065786973747360781b6044820152606401610758565b6040516370a0823160e01b815230600482015285906001600160701b038616906000906001600160a01b038416906370a0823190602401602060405180830381865afa15801561192e573d6000803e3d6000fd5b505050506040513d601f19601f820116820180604052508101906119529190613b02565b90506119696001600160a01b038416333085612996565b6040516370a0823160e01b81523060048201526000906001600160a01b038516906370a0823190602401602060405180830381865afa1580156119b0573d6000803e3d6000fd5b505050506040513d601f19601f820116820180604052508101906119d49190613b02565b90506119e08383613bb3565b8110156119ff5760405162461bcd60e51b815260040161075890613bcb565b604051630bb9ff5d60e01b815273a84d62f776606b9eebd761e2d31f65442ecc437e90630bb9ff5d90611a389030908b90600401613c60565b600060405180830381600087803b158015611a5257600080fd5b505af1158015611a66573d6000803e3d6000fd5b50505050611a7261366b565b604080516080810182526001600160a01b03808d1682526001600160701b03808d16602084019081528c821694840194855260608401868152600380546001810182556000829052865191027fc2575a0e9e593c00f959f8c92f12db2869c3395a3b0502d05e2516446f71f85b81018054929096166001600160a01b031990921691909117855591517fc2575a0e9e593c00f959f8c92f12db2869c3395a3b0502d05e2516446f71f85c8301805497518516600160701b026001600160e01b0319909816919094161795909517909155925191928392611b76917fc2575a0e9e593c00f959f8c92f12db2869c3395a3b0502d05e2516446f71f85d0190600861368a565b5050600354611b889150600190613d20565b6001600160a01b038c166000908152600460205260409020555050600354738e06e97c598b0bb2910df62c626ebf6cd55409e69063c238d1ee9061dead90611bd290600190613d20565b6103e86040518463ffffffff1660e01b8152600401611bf393929190613c82565b600060405180830381600087803b158015611c0d57600080fd5b505af1158015611c21573d6000803e3d6000fd5b5050505060006103e8611c50896001600160701b03168b6001600160701b0316611c4b9190613c17565b612a0d565b611c5a9190613d20565b600354909150738e06e97c598b0bb2910df62c626ebf6cd55409e69063c238d1ee903390611c8a90600190613d20565b846040518463ffffffff1660e01b8152600401611ca993929190613c82565b600060405180830381600087803b158015611cc357600080fd5b505af1158015611cd7573d6000803e3d6000fd5b50505050611ce48a6122f5565b505060016002555050505050505050565b600081815260016020526040812061055090612a66565b60006116d58260038581548110611d2557611d25613a9e565b906000526020600020906003020160010160009054906101000a90046001600160701b03166001600160701b031660038681548110611d6657611d66613a9e565b6000918252602090912060039091020160010154600160701b90046001600160701b0316611d9387610f44565b612a70565b611da061363d565b6003828154811061176357611763613a9e565b600082815260208190526040902060010154611dcf8133612247565b6106e783836122d3565b6000600280541415611dfd5760405162461bcd60e51b815260040161075890613b1b565b600280556001600160a01b038516600090815260046020526040902054859015801590611e4757506001600160a01b03811673a84d62f776606b9eebd761e2d31f65442ecc437e14155b611e635760405162461bcd60e51b815260040161075890613b89565b85611e6d816122f5565b8363ffffffff1680421115611e945760405162461bcd60e51b815260040161075890613b52565b6108378888886001612ab7565b60046020527f674b36ec14ca1343904f60303cfe142028fe384ede1bb8216405c2d715eec2aa5473c7a0e9429bbc262d97f3e87bf38a95cae8b05eda60009081527fd4daa411513e44c00cbbdbcd7643e3f083ae7772d91f19e35d6b7f63cf386a455460038054929384939092919083908110611f2057611f20613a9e565b906000526020600020906003020160010160009054906101000a90046001600160701b03166001600160701b031660038381548110611f6157611f61613a9e565b6000918252602090912060039091020160010154611f9790600160701b90046001600160701b0316670de0b6b3a7640000613c17565b611fa19190613c4c565b60038281548110611fb457611fb4613a9e565b906000526020600020906003020160010160009054906101000a90046001600160701b03166001600160701b031660038381548110611ff557611ff5613a9e565b600091825260209091206003909102016001015461202b90600160701b90046001600160701b0316670de0b6b3a7640000613c17565b6120359190613c4c565b9350935050509091565b60006116d5826003858154811061205857612058613a9e565b9060005260206000209060030201600101600e9054906101000a90046001600160701b03166001600160701b03166003868154811061209957612099613a9e565b60009182526020909120600160039092020101546001600160701b0316611d9387610f44565b60006002805414156120e35760405162461bcd60e51b815260040161075890613b1b565b6002805563ffffffff82164281101561210e5760405162461bcd60e51b815260040161075890613b52565b6001600160a01b03871660009081526004602052604090205487901580159061215457506001600160a01b03811673a84d62f776606b9eebd761e2d31f65442ecc437e14155b6121705760405162461bcd60e51b815260040161075890613b89565b8761217a816122f5565b60006121898a896000806123fa565b9050600061219a8a838a6000612ab7565b60016002559b9a5050505050505050505050565b6121b882826116dc565b61076b576000828152602081815260408083206001600160a01b03851684529091529020805460ff191660011790556121ee3390565b6001600160a01b0316816001600160a01b0316837f2f8788117e7eff1d82e926ec794901d17c78024a50270940304540a733656f0d60405160405180910390a45050565b60006116d5836001600160a01b038416612ec8565b61225182826116dc565b61076b57612269816001600160a01b03166014612f17565b612274836020612f17565b604051602001612285929190613d8b565b60408051601f198184030181529082905262461bcd60e51b825261075891600401613e00565b61076b82825b6122bb82826121ae565b60008281526001602052604090206106e79082612232565b6122dd82826130b3565b60008281526001602052604090206106e79082613118565b6001600160a01b03811660008181526004602081905260408083205490516370a0823160e01b8152309281019290925292906370a0823190602401602060405180830381865afa15801561234d573d6000803e3d6000fd5b505050506040513d601f19601f820116820180604052508101906123719190613b02565b90506003828154811061238657612386613a9e565b60009182526020909120600160039092020101546001600160701b038281169116146106e75780600383815481106123c0576123c0613a9e565b906000526020600020906003020160010160006101000a8154816001600160701b0302191690836001600160701b03160217905550505050565b6040516370a0823160e01b815230600482015260009085906001600160701b0386169083906001600160a01b038416906370a0823190602401602060405180830381865afa158015612450573d6000803e3d6000fd5b505050506040513d601f19601f820116820180604052508101906124749190613b02565b905061248b6001600160a01b038416333085612996565b6040516370a0823160e01b81523060048201526000906001600160a01b038516906370a0823190602401602060405180830381865afa1580156124d2573d6000803e3d6000fd5b505050506040513d601f19601f820116820180604052508101906124f69190613b02565b90506125028383613bb3565b8110156125215760405162461bcd60e51b815260040161075890613bcb565b6001600160a01b038916600090815260046020526040812054600380549192918390811061255157612551613a9e565b60009182526020909120600390910201600101546040516370a0823160e01b81523060048201526001600160701b03909116906001600160a01b038d16906370a0823190602401602060405180830381865afa1580156125b5573d6000803e3d6000fd5b505050506040513d601f19601f820116820180604052508101906125d99190613b02565b6125e39190613d37565b905060006125fa83836001600160701b0316611d0c565b9050896001600160701b0316816001600160701b0316101561262e5760405162461bcd60e51b815260040161075890613e33565b60006003848154811061264357612643613a9e565b9060005260206000209060030201600101600e9054906101000a90046001600160701b03166001600160701b03166003858154811061268457612684613a9e565b60009182526020909120600160039092020101546126ab91906001600160701b0316613c17565b905060006126b761170e565b9050600060086126c8836001613bb3565b6126d29190613cdd565b905083600387815481106126e8576126e8613a9e565b9060005260206000209060030201600101600e8282829054906101000a90046001600160701b031661271a9190613d37565b92506101000a8154816001600160701b0302191690836001600160701b031602179055508d6003878154811061275257612752613a9e565b600091825260208220600160039092020101805490919061277d9084906001600160701b0316613cb2565b92506101000a8154816001600160701b0302191690836001600160701b03160217905550670de0b6b3a7640000846001600160701b0316816127c1576127c1613c36565b04600387815481106127d5576127d5613a9e565b906000526020600020906003020160020183600881106127f7576127f7613a9e565b600891828204019190066004028282829054906101000a900463ffffffff160192506101000a81548163ffffffff021916908363ffffffff16021790555060006003878154811061284a5761284a613a9e565b9060005260206000209060030201600201826008811061286c5761286c613a9e565b600891828204019190066004029054906101000a900463ffffffff1663ffffffff1611156128f5576000600387815481106128a9576128a9613a9e565b906000526020600020906003020160020182600881106128cb576128cb613a9e565b600891828204019190066004026101000a81548163ffffffff021916908363ffffffff1602179055505b5050891561297b5760405163a9059cbb60e01b815273a84d62f776606b9eebd761e2d31f65442ecc437e9063a9059cbb906129369033908690600401613c60565b6020604051808303816000875af1158015612955573d6000803e3d6000fd5b505050506040513d601f19601f820116820180604052508101906129799190613e81565b505b612986848e8361312d565b509b9a5050505050505050505050565b6040516001600160a01b03808516602483015283166044820152606481018290526104d39085906323b872dd60e01b906084015b60408051601f198184030181529190526020810180516001600160e01b03166001600160e01b0319909316929092179091526132b6565b60006116d58383613388565b6000806002612a1d846001613bb3565b612a279190613c4c565b90508291505b81811015612a6057905080600281612a458186613c4c565b612a4f9190613bb3565b612a599190613c4c565b9050612a2d565b50919050565b6000610550825490565b600080612a7d8387613c17565b9050600081612a8e61271088613c17565b612a989190613bb3565b612aa28387613c17565b612aac9190613c4c565b979650505050505050565b60008115612b4b576040516323b872dd60e01b81523360048201523060248201526001600160701b038516604482015273a84d62f776606b9eebd761e2d31f65442ecc437e906323b872dd906064016020604051808303816000875af1158015612b25573d6000803e3d6000fd5b505050506040513d601f19601f82011682018060405250810190612b499190613e81565b505b6001600160a01b03851660009081526004602052604081205490612b78826001600160701b03881661203f565b9050846001600160701b0316816001600160701b03161015612bac5760405162461bcd60e51b815260040161075890613e33565b6000612bb661170e565b9050600060038481548110612bcd57612bcd613a9e565b506000526008612bdb61170e565b612be6906001613bb3565b612bf09190613cdd565b9050600060038581548110612c0757612c07613a9e565b9060005260206000209060030201600101600e9054906101000a90046001600160701b03166001600160701b031660038681548110612c4857612c48613a9e565b6000918252602090912060016003909202010154612c6f91906001600160701b0316613c17565b90508860038681548110612c8557612c85613a9e565b9060005260206000209060030201600101600e8282829054906101000a90046001600160701b0316612cb79190613cb2565b92506101000a8154816001600160701b0302191690836001600160701b031602179055508360038681548110612cef57612cef613a9e565b6000918252602082206001600390920201018054909190612d1a9084906001600160701b0316613d37565b92506101000a8154816001600160701b0302191690836001600160701b03160217905550670de0b6b3a7640000896001600160701b031681612d5e57612d5e613c36565b0460038681548110612d7257612d72613a9e565b90600052602060002090600302016002018460088110612d9457612d94613a9e565b600891828204019190066004028282829054906101000a900463ffffffff160192506101000a81548163ffffffff021916908363ffffffff160217905550600060038681548110612de757612de7613a9e565b90600052602060002090600302016002018360088110612e0957612e09613a9e565b600891828204019190066004029054906101000a900463ffffffff1663ffffffff161115612e9257600060038681548110612e4657612e46613a9e565b90600052602060002090600302016002018360088110612e6857612e68613a9e565b600891828204019190066004026101000a81548163ffffffff021916908363ffffffff1602179055505b612eaf6001600160a01b038b16336001600160701b0387166133b2565b612eba858b8361312d565b509198975050505050505050565b6000818152600183016020526040812054612f0f57508154600181810184556000848152602080822090930184905584548482528286019093526040902091909155610550565b506000610550565b60606000612f26836002613c17565b612f31906002613bb3565b67ffffffffffffffff811115612f4957612f49613ea3565b6040519080825280601f01601f191660200182016040528015612f73576020820181803683370190505b509050600360fc1b81600081518110612f8e57612f8e613a9e565b60200101906001600160f81b031916908160001a905350600f60fb1b81600181518110612fbd57612fbd613a9e565b60200101906001600160f81b031916908160001a9053506000612fe1846002613c17565b612fec906001613bb3565b90505b6001811115613064576f181899199a1a9b1b9c1cb0b131b232b360811b85600f166010811061302057613020613a9e565b1a60f81b82828151811061303657613036613a9e565b60200101906001600160f81b031916908160001a90535060049490941c9361305d81613eb9565b9050612fef565b5083156116d55760405162461bcd60e51b815260206004820181905260248201527f537472696e67733a20686578206c656e67746820696e73756666696369656e746044820152606401610758565b6130bd82826116dc565b1561076b576000828152602081815260408083206001600160a01b0385168085529252808320805460ff1916905551339285917ff6391f5c32d9c69d2a47ea670b442974b53935d1edc7fd64eb21e047a839171b9190a45050565b60006116d5836001600160a01b0384166133e2565b6040516370a0823160e01b81523060048201526000906001600160a01b038416906370a0823190602401602060405180830381865afa158015613174573d6000803e3d6000fd5b505050506040513d601f19601f820116820180604052508101906131989190613b02565b90506000600385815481106131af576131af613a9e565b60009182526020909120600160039092020101546131e1906001600160701b03600160701b9091048116908416613c17565b90508281101561322c5760405162461bcd60e51b815260206004820152601660248201527510d4cc4e8812c81d985b1d5948191958dc99585cd95960521b6044820152606401610758565b6003858154811061323f5761323f613a9e565b60009182526020909120600160039092020101546001600160701b038381169116146132af57816003868154811061327957613279613a9e565b906000526020600020906003020160010160006101000a8154816001600160701b0302191690836001600160701b031602179055505b5050505050565b600061330b826040518060400160405280602081526020017f5361666545524332303a206c6f772d6c6576656c2063616c6c206661696c6564815250856001600160a01b03166134d59092919063ffffffff16565b8051909150156106e757808060200190518101906133299190613e81565b6106e75760405162461bcd60e51b815260206004820152602a60248201527f5361666545524332303a204552433230206f7065726174696f6e20646964206e6044820152691bdd081cdd58d8d9595960b21b6064820152608401610758565b600082600001828154811061339f5761339f613a9e565b9060005260206000200154905092915050565b6040516001600160a01b0383166024820152604481018290526106e790849063a9059cbb60e01b906064016129ca565b600081815260018301602052604081205480156134cb576000613406600183613d20565b855490915060009061341a90600190613d20565b905081811461347f57600086600001828154811061343a5761343a613a9e565b906000526020600020015490508087600001848154811061345d5761345d613a9e565b6000918252602080832090910192909255918252600188019052604090208390555b855486908061349057613490613ed0565b600190038181906000526020600020016000905590558560010160008681526020019081526020016000206000905560019350505050610550565b6000915050610550565b60606134e484846000856134ec565b949350505050565b60608247101561354d5760405162461bcd60e51b815260206004820152602660248201527f416464726573733a20696e73756666696369656e742062616c616e636520666f6044820152651c8818d85b1b60d21b6064820152608401610758565b843b61359b5760405162461bcd60e51b815260206004820152601d60248201527f416464726573733a2063616c6c20746f206e6f6e2d636f6e74726163740000006044820152606401610758565b600080866001600160a01b031685876040516135b79190613ee6565b60006040518083038185875af1925050503d80600081146135f4576040519150601f19603f3d011682016040523d82523d6000602084013e6135f9565b606091505b5091509150612aac828286606083156136135750816116d5565b8251156136235782518084602001fd5b8160405162461bcd60e51b81526004016107589190613e00565b60408051608081018252600080825260208201819052918101919091526060810161366661366b565b905290565b6040518061010001604052806008906020820280368337509192915050565b6001830191839082156137165791602002820160005b838211156136e457835183826101000a81548163ffffffff021916908363ffffffff16021790555092602001926004016020816003010492830192600103026136a0565b80156137145782816101000a81549063ffffffff02191690556004016020816003010492830192600103026136e4565b505b50613722929150613726565b5090565b5b808211156137225760008155600101613727565b60006020828403121561374d57600080fd5b81356001600160e01b0319811681146116d557600080fd5b6000806020838503121561377857600080fd5b823567ffffffffffffffff8082111561379057600080fd5b818501915085601f8301126137a457600080fd5b8135818111156137b357600080fd5b8660208260061b85010111156137c857600080fd5b60209290920196919550909350505050565b6000602082840312156137ec57600080fd5b5035919050565b6001600160a01b038116811461133357600080fd5b6000806040838503121561381b57600080fd5b82359150602083013561382d816137f3565b809150509250929050565b80356001600160701b038116811461384f57600080fd5b919050565b803563ffffffff8116811461384f57600080fd5b6000806000806080858703121561387e57600080fd5b8435613889816137f3565b935061389760208601613838565b92506138a560408601613838565b91506138b360608601613854565b905092959194509250565b600080604083850312156138d157600080fd5b82356138dc816137f3565b91506138ea60208401613838565b90509250929050565b80516001600160a01b031682526020808201516001600160701b03908116828501526040808401519091169084015260608083015190840160005b600881101561395157825163ffffffff168252918301919083019060010161392e565b505050505050565b6102c0810161396882856138f3565b6116d56101608301846138f3565b6000806040838503121561398957600080fd5b8235613994816137f3565b946020939093013593505050565b600080604083850312156139b557600080fd5b50508035926020909101359150565b6000602082840312156139d657600080fd5b81356116d5816137f3565b610160810161055082846138f3565b600080600060608486031215613a0557600080fd5b8335613a10816137f3565b9250613a1e60208501613838565b9150613a2c60408501613838565b90509250925092565b600080600080600060a08688031215613a4d57600080fd5b8535613a58816137f3565b94506020860135613a68816137f3565b9350613a7660408701613838565b9250613a8460608701613838565b9150613a9260808701613854565b90509295509295909350565b634e487b7160e01b600052603260045260246000fd5b634e487b7160e01b600052601160045260246000fd5b6000600019821415613ade57613ade613ab4565b5060010190565b600060208284031215613af757600080fd5b81516116d5816137f3565b600060208284031215613b1457600080fd5b5051919050565b6020808252601f908201527f5265656e7472616e637947756172643a207265656e7472616e742063616c6c00604082015260600190565b6020808252601b908201527f4353313a205472616e73616374696f6e20697320657870697265640000000000604082015260600190565b60208082526010908201526f21a9989d102bb937b733903a37b5b2b760811b604082015260600190565b60008219821115613bc657613bc6613ab4565b500190565b6020808252602c908201527f4353313a204665652d6f6e2d7472616e7366657220746f6b656e73206172656e60408201526b09dd081cdd5c1c1bdc9d195960a21b606082015260800190565b6000816000190483118215151615613c3157613c31613ab4565b500290565b634e487b7160e01b600052601260045260246000fd5b600082613c5b57613c5b613c36565b500490565b6001600160a01b039290921682526001600160701b0316602082015260400190565b6001600160a01b039390931683526020830191909152604082015260806060820181905260009082015260a00190565b60006001600160701b03808316818516808303821115613cd457613cd4613ab4565b01949350505050565b600082613cec57613cec613c36565b500690565b60006001600160701b0380831681851681830481118215151615613d1757613d17613ab4565b02949350505050565b600082821015613d3257613d32613ab4565b500390565b60006001600160701b0383811690831681811015613d5757613d57613ab4565b039392505050565b60005b83811015613d7a578181015183820152602001613d62565b838111156104d35750506000910152565b7f416363657373436f6e74726f6c3a206163636f756e7420000000000000000000815260008351613dc3816017850160208801613d5f565b7001034b99036b4b9b9b4b733903937b6329607d1b6017918401918201528351613df4816028840160208801613d5f565b01602801949350505050565b6020815260008251806020840152613e1f816040850160208701613d5f565b601f01601f19169190910160400192915050565b6020808252602e908201527f4353313a204f757470757420616d6f756e74206c657373207468616e206d696e60408201526d1a5b5d5b481cdc1958da599a595960921b606082015260800190565b600060208284031215613e9357600080fd5b815180151581146116d557600080fd5b634e487b7160e01b600052604160045260246000fd5b600081613ec857613ec8613ab4565b506000190190565b634e487b7160e01b600052603160045260246000fd5b60008251613ef8818460208701613d5f565b919091019291505056fea26469706673582212207ac701f07c7939b960733efc73261d9d02d8f5e2129787b128364cdf96e0f32064736f6c634300080b0033",
			"opcodes": "PUSH1 0x80 PUSH1 0x40 MSTORE CALLVALUE DUP1 ISZERO PUSH3 0x11 JUMPI PUSH1 0x0 DUP1 REVERT JUMPDEST POP PUSH1 0x1 PUSH1 0x2 SSTORE PUSH3 0x24 PUSH1 0x0 CALLER PUSH3 0x2A JUMP JUMPDEST PUSH3 0x18F JUMP JUMPDEST PUSH3 0x36 DUP3 DUP3 PUSH3 0x3A JUMP JUMPDEST POP POP JUMP JUMPDEST PUSH3 0x51 DUP3 DUP3 PUSH3 0x7D PUSH1 0x20 SHL PUSH3 0x21AE OR PUSH1 0x20 SHR JUMP JUMPDEST PUSH1 0x0 DUP3 DUP2 MSTORE PUSH1 0x1 PUSH1 0x20 SWAP1 DUP2 MSTORE PUSH1 0x40 SWAP1 SWAP2 KECCAK256 PUSH3 0x78 SWAP2 DUP4 SWAP1 PUSH3 0x2232 PUSH3 0x11D DUP3 SHL OR SWAP1 SHR JUMP JUMPDEST POP POP POP JUMP JUMPDEST PUSH1 0x0 DUP3 DUP2 MSTORE PUSH1 0x20 DUP2 DUP2 MSTORE PUSH1 0x40 DUP1 DUP4 KECCAK256 PUSH1 0x1 PUSH1 0x1 PUSH1 0xA0 SHL SUB DUP6 AND DUP5 MSTORE SWAP1 SWAP2 MSTORE SWAP1 KECCAK256 SLOAD PUSH1 0xFF AND PUSH3 0x36 JUMPI PUSH1 0x0 DUP3 DUP2 MSTORE PUSH1 0x20 DUP2 DUP2 MSTORE PUSH1 0x40 DUP1 DUP4 KECCAK256 PUSH1 0x1 PUSH1 0x1 PUSH1 0xA0 SHL SUB DUP6 AND DUP5 MSTORE SWAP1 SWAP2 MSTORE SWAP1 KECCAK256 DUP1 SLOAD PUSH1 0xFF NOT AND PUSH1 0x1 OR SWAP1 SSTORE PUSH3 0xD9 CALLER SWAP1 JUMP JUMPDEST PUSH1 0x1 PUSH1 0x1 PUSH1 0xA0 SHL SUB AND DUP2 PUSH1 0x1 PUSH1 0x1 PUSH1 0xA0 SHL SUB AND DUP4 PUSH32 0x2F8788117E7EFF1D82E926EC794901D17C78024A50270940304540A733656F0D PUSH1 0x40 MLOAD PUSH1 0x40 MLOAD DUP1 SWAP2 SUB SWAP1 LOG4 POP POP JUMP JUMPDEST PUSH1 0x0 PUSH3 0x134 DUP4 PUSH1 0x1 PUSH1 0x1 PUSH1 0xA0 SHL SUB DUP5 AND PUSH3 0x13D JUMP JUMPDEST SWAP1 POP JUMPDEST SWAP3 SWAP2 POP POP JUMP JUMPDEST PUSH1 0x0 DUP2 DUP2 MSTORE PUSH1 0x1 DUP4 ADD PUSH1 0x20 MSTORE PUSH1 0x40 DUP2 KECCAK256 SLOAD PUSH3 0x186 JUMPI POP DUP2 SLOAD PUSH1 0x1 DUP2 DUP2 ADD DUP5 SSTORE PUSH1 0x0 DUP5 DUP2 MSTORE PUSH1 0x20 DUP1 DUP3 KECCAK256 SWAP1 SWAP4 ADD DUP5 SWAP1 SSTORE DUP5 SLOAD DUP5 DUP3 MSTORE DUP3 DUP7 ADD SWAP1 SWAP4 MSTORE PUSH1 0x40 SWAP1 KECCAK256 SWAP2 SWAP1 SWAP2 SSTORE PUSH3 0x137 JUMP JUMPDEST POP PUSH1 0x0 PUSH3 0x137 JUMP JUMPDEST PUSH2 0x3F38 DUP1 PUSH3 0x19F PUSH1 0x0 CODECOPY PUSH1 0x0 RETURN INVALID PUSH1 0x80 PUSH1 0x40 MSTORE CALLVALUE DUP1 ISZERO PUSH2 0x10 JUMPI PUSH1 0x0 DUP1 REVERT JUMPDEST POP PUSH1 0x4 CALLDATASIZE LT PUSH2 0x1C4 JUMPI PUSH1 0x0 CALLDATALOAD PUSH1 0xE0 SHR DUP1 PUSH4 0x91D14854 GT PUSH2 0xF9 JUMPI DUP1 PUSH4 0xD01350BD GT PUSH2 0x97 JUMPI DUP1 PUSH4 0xD88D7EBA GT PUSH2 0x71 JUMPI DUP1 PUSH4 0xD88D7EBA EQ PUSH2 0x406 JUMPI DUP1 PUSH4 0xE07BF7AD EQ PUSH2 0x419 JUMPI DUP1 PUSH4 0xE40A99A8 EQ PUSH2 0x436 JUMPI DUP1 PUSH4 0xEA680F2A EQ PUSH2 0x449 JUMPI PUSH1 0x0 DUP1 REVERT JUMPDEST DUP1 PUSH4 0xD01350BD EQ PUSH2 0x3D8 JUMPI DUP1 PUSH4 0xD391014B EQ PUSH2 0x3EB JUMPI DUP1 PUSH4 0xD547741F EQ PUSH2 0x3F3 JUMPI PUSH1 0x0 DUP1 REVERT JUMPDEST DUP1 PUSH4 0xBBADC03B GT PUSH2 0xD3 JUMPI DUP1 PUSH4 0xBBADC03B EQ PUSH2 0x37F JUMPI DUP1 PUSH4 0xC93C815C EQ PUSH2 0x39F JUMPI DUP1 PUSH4 0xCA15C873 EQ PUSH2 0x3B2 JUMPI DUP1 PUSH4 0xCD01A60A EQ PUSH2 0x3C5 JUMPI PUSH1 0x0 DUP1 REVERT JUMPDEST DUP1 PUSH4 0x91D14854 EQ PUSH2 0x351 JUMPI DUP1 PUSH4 0x9BC731FC EQ PUSH2 0x364 JUMPI DUP1 PUSH4 0xA465626F EQ PUSH2 0x377 JUMPI PUSH1 0x0 DUP1 REVERT JUMPDEST DUP1 PUSH4 0x370D77D0 GT PUSH2 0x166 JUMPI DUP1 PUSH4 0x6853AC26 GT PUSH2 0x140 JUMPI DUP1 PUSH4 0x6853AC26 EQ PUSH2 0x310 JUMPI DUP1 PUSH4 0x8129FC1C EQ PUSH2 0x323 JUMPI DUP1 PUSH4 0x84D93612 EQ PUSH2 0x32B JUMPI DUP1 PUSH4 0x9010D07C EQ PUSH2 0x33E JUMPI PUSH1 0x0 DUP1 REVERT JUMPDEST DUP1 PUSH4 0x370D77D0 EQ PUSH2 0x2BC JUMPI DUP1 PUSH4 0x43039B2F EQ PUSH2 0x2E7 JUMPI DUP1 PUSH4 0x5E6104B1 EQ PUSH2 0x2FA JUMPI PUSH1 0x0 DUP1 REVERT JUMPDEST DUP1 PUSH4 0x186EFAD9 GT PUSH2 0x1A2 JUMPI DUP1 PUSH4 0x186EFAD9 EQ PUSH2 0x242 JUMPI DUP1 PUSH4 0x248A9CA3 EQ PUSH2 0x265 JUMPI DUP1 PUSH4 0x2F2FF15D EQ PUSH2 0x296 JUMPI DUP1 PUSH4 0x36568ABE EQ PUSH2 0x2A9 JUMPI PUSH1 0x0 DUP1 REVERT JUMPDEST DUP1 PUSH4 0x1FFC9A7 EQ PUSH2 0x1C9 JUMPI DUP1 PUSH4 0x3ED957F EQ PUSH2 0x202 JUMPI DUP1 PUSH4 0x6FB1A07 EQ PUSH2 0x217 JUMPI JUMPDEST PUSH1 0x0 DUP1 REVERT JUMPDEST PUSH2 0x1ED PUSH2 0x1D7 CALLDATASIZE PUSH1 0x4 PUSH2 0x373B JUMP JUMPDEST PUSH1 0x1 PUSH1 0x1 PUSH1 0xE0 SHL SUB NOT AND PUSH4 0x1FFC9A7 PUSH1 0xE0 SHL EQ SWAP1 JUMP JUMPDEST PUSH1 0x40 MLOAD SWAP1 ISZERO ISZERO DUP2 MSTORE PUSH1 0x20 ADD JUMPDEST PUSH1 0x40 MLOAD DUP1 SWAP2 SUB SWAP1 RETURN JUMPDEST PUSH2 0x215 PUSH2 0x210 CALLDATASIZE PUSH1 0x4 PUSH2 0x3765 JUMP JUMPDEST PUSH2 0x45C JUMP JUMPDEST STOP JUMPDEST PUSH2 0x22A PUSH2 0x225 CALLDATASIZE PUSH1 0x4 PUSH2 0x37DA JUMP JUMPDEST PUSH2 0x4D9 JUMP JUMPDEST PUSH1 0x40 MLOAD PUSH1 0x1 PUSH1 0x1 PUSH1 0xA0 SHL SUB SWAP1 SWAP2 AND DUP2 MSTORE PUSH1 0x20 ADD PUSH2 0x1F9 JUMP JUMPDEST PUSH2 0x24A PUSH2 0x556 JUMP JUMPDEST PUSH1 0x40 DUP1 MLOAD SWAP4 DUP5 MSTORE PUSH1 0x20 DUP5 ADD SWAP3 SWAP1 SWAP3 MSTORE SWAP1 DUP3 ADD MSTORE PUSH1 0x60 ADD PUSH2 0x1F9 JUMP JUMPDEST PUSH2 0x288 PUSH2 0x273 CALLDATASIZE PUSH1 0x4 PUSH2 0x37DA JUMP JUMPDEST PUSH1 0x0 SWAP1 DUP2 MSTORE PUSH1 0x20 DUP2 SWAP1 MSTORE PUSH1 0x40 SWAP1 KECCAK256 PUSH1 0x1 ADD SLOAD SWAP1 JUMP JUMPDEST PUSH1 0x40 MLOAD SWAP1 DUP2 MSTORE PUSH1 0x20 ADD PUSH2 0x1F9 JUMP JUMPDEST PUSH2 0x215 PUSH2 0x2A4 CALLDATASIZE PUSH1 0x4 PUSH2 0x3808 JUMP JUMPDEST PUSH2 0x6C1 JUMP JUMPDEST PUSH2 0x215 PUSH2 0x2B7 CALLDATASIZE PUSH1 0x4 PUSH2 0x3808 JUMP JUMPDEST PUSH2 0x6EC JUMP JUMPDEST PUSH2 0x2CF PUSH2 0x2CA CALLDATASIZE PUSH1 0x4 PUSH2 0x3868 JUMP JUMPDEST PUSH2 0x76F JUMP JUMPDEST PUSH1 0x40 MLOAD PUSH1 0x1 PUSH1 0x1 PUSH1 0x70 SHL SUB SWAP1 SWAP2 AND DUP2 MSTORE PUSH1 0x20 ADD PUSH2 0x1F9 JUMP JUMPDEST PUSH2 0x215 PUSH2 0x2F5 CALLDATASIZE PUSH1 0x4 PUSH2 0x38BE JUMP JUMPDEST PUSH2 0x848 JUMP JUMPDEST PUSH2 0x302 PUSH2 0xD38 JUMP JUMPDEST PUSH1 0x40 MLOAD PUSH2 0x1F9 SWAP3 SWAP2 SWAP1 PUSH2 0x3959 JUMP JUMPDEST PUSH2 0x288 PUSH2 0x31E CALLDATASIZE PUSH1 0x4 PUSH2 0x37DA JUMP JUMPDEST PUSH2 0xF44 JUMP JUMPDEST PUSH2 0x215 PUSH2 0x10FC JUMP JUMPDEST PUSH2 0x215 PUSH2 0x339 CALLDATASIZE PUSH1 0x4 PUSH2 0x3976 JUMP JUMPDEST PUSH2 0x1336 JUMP JUMPDEST PUSH2 0x22A PUSH2 0x34C CALLDATASIZE PUSH1 0x4 PUSH2 0x39A2 JUMP JUMPDEST PUSH2 0x16BD JUMP JUMPDEST PUSH2 0x1ED PUSH2 0x35F CALLDATASIZE PUSH1 0x4 PUSH2 0x3808 JUMP JUMPDEST PUSH2 0x16DC JUMP JUMPDEST PUSH2 0x215 PUSH2 0x372 CALLDATASIZE PUSH1 0x4 PUSH2 0x39C4 JUMP JUMPDEST PUSH2 0x1705 JUMP JUMPDEST PUSH2 0x288 PUSH2 0x170E JUMP JUMPDEST PUSH2 0x392 PUSH2 0x38D CALLDATASIZE PUSH1 0x4 PUSH2 0x39C4 JUMP JUMPDEST PUSH2 0x172D JUMP JUMPDEST PUSH1 0x40 MLOAD PUSH2 0x1F9 SWAP2 SWAP1 PUSH2 0x39E1 JUMP JUMPDEST PUSH2 0x215 PUSH2 0x3AD CALLDATASIZE PUSH1 0x4 PUSH2 0x39F0 JUMP JUMPDEST PUSH2 0x1823 JUMP JUMPDEST PUSH2 0x288 PUSH2 0x3C0 CALLDATASIZE PUSH1 0x4 PUSH2 0x37DA JUMP JUMPDEST PUSH2 0x1CF5 JUMP JUMPDEST PUSH2 0x288 PUSH2 0x3D3 CALLDATASIZE PUSH1 0x4 PUSH2 0x39A2 JUMP JUMPDEST PUSH2 0x1D0C JUMP JUMPDEST PUSH2 0x392 PUSH2 0x3E6 CALLDATASIZE PUSH1 0x4 PUSH2 0x37DA JUMP JUMPDEST PUSH2 0x1D98 JUMP JUMPDEST PUSH2 0x288 PUSH1 0x0 DUP2 JUMP JUMPDEST PUSH2 0x215 PUSH2 0x401 CALLDATASIZE PUSH1 0x4 PUSH2 0x3808 JUMP JUMPDEST PUSH2 0x1DB3 JUMP JUMPDEST PUSH2 0x2CF PUSH2 0x414 CALLDATASIZE PUSH1 0x4 PUSH2 0x3868 JUMP JUMPDEST PUSH2 0x1DD9 JUMP JUMPDEST PUSH2 0x421 PUSH2 0x1EA1 JUMP JUMPDEST PUSH1 0x40 DUP1 MLOAD SWAP3 DUP4 MSTORE PUSH1 0x20 DUP4 ADD SWAP2 SWAP1 SWAP2 MSTORE ADD PUSH2 0x1F9 JUMP JUMPDEST PUSH2 0x288 PUSH2 0x444 CALLDATASIZE PUSH1 0x4 PUSH2 0x39A2 JUMP JUMPDEST PUSH2 0x203F JUMP JUMPDEST PUSH2 0x2CF PUSH2 0x457 CALLDATASIZE PUSH1 0x4 PUSH2 0x3A35 JUMP JUMPDEST PUSH2 0x20BF JUMP JUMPDEST PUSH1 0x0 PUSH2 0x468 DUP2 CALLER PUSH2 0x2247 JUMP JUMPDEST PUSH1 0x0 JUMPDEST DUP3 DUP2 LT ISZERO PUSH2 0x4D3 JUMPI PUSH2 0x4C1 DUP5 DUP5 DUP4 DUP2 DUP2 LT PUSH2 0x488 JUMPI PUSH2 0x488 PUSH2 0x3A9E JUMP JUMPDEST SWAP1 POP PUSH1 0x40 MUL ADD PUSH1 0x0 ADD CALLDATALOAD DUP6 DUP6 DUP5 DUP2 DUP2 LT PUSH2 0x4A4 JUMPI PUSH2 0x4A4 PUSH2 0x3A9E JUMP JUMPDEST SWAP1 POP PUSH1 0x40 MUL ADD PUSH1 0x20 ADD PUSH1 0x20 DUP2 ADD SWAP1 PUSH2 0x4BC SWAP2 SWAP1 PUSH2 0x39C4 JUMP JUMPDEST PUSH2 0x22AB JUMP JUMPDEST DUP1 PUSH2 0x4CB DUP2 PUSH2 0x3ACA JUMP JUMPDEST SWAP2 POP POP PUSH2 0x46B JUMP JUMPDEST POP POP POP POP JUMP JUMPDEST PUSH1 0x40 MLOAD PUSH4 0x6FB1A07 PUSH1 0xE0 SHL DUP2 MSTORE PUSH1 0x4 DUP2 ADD DUP3 SWAP1 MSTORE PUSH1 0x0 SWAP1 PUSH20 0xDEF1FAC7BF08F173D286BBBDCBEEADE695129840 SWAP1 PUSH4 0x6FB1A07 SWAP1 PUSH1 0x24 ADD PUSH1 0x20 PUSH1 0x40 MLOAD DUP1 DUP4 SUB DUP2 DUP7 GAS STATICCALL ISZERO DUP1 ISZERO PUSH2 0x52C JUMPI RETURNDATASIZE PUSH1 0x0 DUP1 RETURNDATACOPY RETURNDATASIZE PUSH1 0x0 REVERT JUMPDEST POP POP POP POP PUSH1 0x40 MLOAD RETURNDATASIZE PUSH1 0x1F NOT PUSH1 0x1F DUP3 ADD AND DUP3 ADD DUP1 PUSH1 0x40 MSTORE POP DUP2 ADD SWAP1 PUSH2 0x550 SWAP2 SWAP1 PUSH2 0x3AE5 JUMP JUMPDEST SWAP3 SWAP2 POP POP JUMP JUMPDEST PUSH1 0x40 MLOAD PUSH4 0x70A08231 PUSH1 0xE0 SHL DUP2 MSTORE ADDRESS PUSH1 0x4 DUP3 ADD MSTORE PUSH1 0x0 SWAP1 DUP2 SWAP1 DUP2 SWAP1 PUSH20 0x29581A9121998FCBB096CEAFA92E3E10057878F SWAP1 PUSH4 0x70A08231 SWAP1 PUSH1 0x24 ADD PUSH1 0x20 PUSH1 0x40 MLOAD DUP1 DUP4 SUB DUP2 DUP7 GAS STATICCALL ISZERO DUP1 ISZERO PUSH2 0x5AC JUMPI RETURNDATASIZE PUSH1 0x0 DUP1 RETURNDATACOPY RETURNDATASIZE PUSH1 0x0 REVERT JUMPDEST POP POP POP POP PUSH1 0x40 MLOAD RETURNDATASIZE PUSH1 0x1F NOT PUSH1 0x1F DUP3 ADD AND DUP3 ADD DUP1 PUSH1 0x40 MSTORE POP DUP2 ADD SWAP1 PUSH2 0x5D0 SWAP2 SWAP1 PUSH2 0x3B02 JUMP JUMPDEST PUSH1 0x40 MLOAD PUSH4 0x70A08231 PUSH1 0xE0 SHL DUP2 MSTORE ADDRESS PUSH1 0x4 DUP3 ADD MSTORE PUSH20 0xC7A0E9429BBC262D97F3E87BF38A95CAE8B05EDA SWAP1 PUSH4 0x70A08231 SWAP1 PUSH1 0x24 ADD PUSH1 0x20 PUSH1 0x40 MLOAD DUP1 DUP4 SUB DUP2 DUP7 GAS STATICCALL ISZERO DUP1 ISZERO PUSH2 0x61F JUMPI RETURNDATASIZE PUSH1 0x0 DUP1 RETURNDATACOPY RETURNDATASIZE PUSH1 0x0 REVERT JUMPDEST POP POP POP POP PUSH1 0x40 MLOAD RETURNDATASIZE PUSH1 0x1F NOT PUSH1 0x1F DUP3 ADD AND DUP3 ADD DUP1 PUSH1 0x40 MSTORE POP DUP2 ADD SWAP1 PUSH2 0x643 SWAP2 SWAP1 PUSH2 0x3B02 JUMP JUMPDEST PUSH1 0x40 MLOAD PUSH4 0x70A08231 PUSH1 0xE0 SHL DUP2 MSTORE ADDRESS PUSH1 0x4 DUP3 ADD MSTORE PUSH20 0xA84D62F776606B9EEBD761E2D31F65442ECC437E SWAP1 PUSH4 0x70A08231 SWAP1 PUSH1 0x24 ADD PUSH1 0x20 PUSH1 0x40 MLOAD DUP1 DUP4 SUB DUP2 DUP7 GAS STATICCALL ISZERO DUP1 ISZERO PUSH2 0x692 JUMPI RETURNDATASIZE PUSH1 0x0 DUP1 RETURNDATACOPY RETURNDATASIZE PUSH1 0x0 REVERT JUMPDEST POP POP POP POP PUSH1 0x40 MLOAD RETURNDATASIZE PUSH1 0x1F NOT PUSH1 0x1F DUP3 ADD AND DUP3 ADD DUP1 PUSH1 0x40 MSTORE POP DUP2 ADD SWAP1 PUSH2 0x6B6 SWAP2 SWAP1 PUSH2 0x3B02 JUMP JUMPDEST SWAP3 POP SWAP3 POP SWAP3 POP SWAP1 SWAP2 SWAP3 JUMP JUMPDEST PUSH1 0x0 DUP3 DUP2 MSTORE PUSH1 0x20 DUP2 SWAP1 MSTORE PUSH1 0x40 SWAP1 KECCAK256 PUSH1 0x1 ADD SLOAD PUSH2 0x6DD DUP2 CALLER PUSH2 0x2247 JUMP JUMPDEST PUSH2 0x6E7 DUP4 DUP4 PUSH2 0x22B1 JUMP JUMPDEST POP POP POP JUMP JUMPDEST PUSH1 0x1 PUSH1 0x1 PUSH1 0xA0 SHL SUB DUP2 AND CALLER EQ PUSH2 0x761 JUMPI PUSH1 0x40 MLOAD PUSH3 0x461BCD PUSH1 0xE5 SHL DUP2 MSTORE PUSH1 0x20 PUSH1 0x4 DUP3 ADD MSTORE PUSH1 0x2F PUSH1 0x24 DUP3 ADD MSTORE PUSH32 0x416363657373436F6E74726F6C3A2063616E206F6E6C792072656E6F756E6365 PUSH1 0x44 DUP3 ADD MSTORE PUSH15 0x103937B632B9903337B91039B2B633 PUSH1 0x89 SHL PUSH1 0x64 DUP3 ADD MSTORE PUSH1 0x84 ADD JUMPDEST PUSH1 0x40 MLOAD DUP1 SWAP2 SUB SWAP1 REVERT JUMPDEST PUSH2 0x76B DUP3 DUP3 PUSH2 0x22D3 JUMP JUMPDEST POP POP JUMP JUMPDEST PUSH1 0x0 PUSH1 0x2 DUP1 SLOAD EQ ISZERO PUSH2 0x793 JUMPI PUSH1 0x40 MLOAD PUSH3 0x461BCD PUSH1 0xE5 SHL DUP2 MSTORE PUSH1 0x4 ADD PUSH2 0x758 SWAP1 PUSH2 0x3B1B JUMP JUMPDEST PUSH1 0x2 DUP1 SSTORE PUSH4 0xFFFFFFFF DUP3 AND TIMESTAMP DUP2 LT ISZERO PUSH2 0x7BE JUMPI PUSH1 0x40 MLOAD PUSH3 0x461BCD PUSH1 0xE5 SHL DUP2 MSTORE PUSH1 0x4 ADD PUSH2 0x758 SWAP1 PUSH2 0x3B52 JUMP JUMPDEST PUSH1 0x1 PUSH1 0x1 PUSH1 0xA0 SHL SUB DUP7 AND PUSH1 0x0 SWAP1 DUP2 MSTORE PUSH1 0x4 PUSH1 0x20 MSTORE PUSH1 0x40 SWAP1 KECCAK256 SLOAD DUP7 SWAP1 ISZERO DUP1 ISZERO SWAP1 PUSH2 0x804 JUMPI POP PUSH1 0x1 PUSH1 0x1 PUSH1 0xA0 SHL SUB DUP2 AND PUSH20 0xA84D62F776606B9EEBD761E2D31F65442ECC437E EQ ISZERO JUMPDEST PUSH2 0x820 JUMPI PUSH1 0x40 MLOAD PUSH3 0x461BCD PUSH1 0xE5 SHL DUP2 MSTORE PUSH1 0x4 ADD PUSH2 0x758 SWAP1 PUSH2 0x3B89 JUMP JUMPDEST DUP7 PUSH2 0x82A DUP2 PUSH2 0x22F5 JUMP JUMPDEST PUSH2 0x837 DUP9 DUP9 DUP9 PUSH1 0x1 PUSH2 0x23FA JUMP JUMPDEST PUSH1 0x1 PUSH1 0x2 SSTORE SWAP9 SWAP8 POP POP POP POP POP POP POP POP JUMP JUMPDEST PUSH1 0x2 DUP1 SLOAD EQ ISZERO PUSH2 0x86A JUMPI PUSH1 0x40 MLOAD PUSH3 0x461BCD PUSH1 0xE5 SHL DUP2 MSTORE PUSH1 0x4 ADD PUSH2 0x758 SWAP1 PUSH2 0x3B1B JUMP JUMPDEST PUSH1 0x2 DUP1 SSTORE PUSH1 0x1 PUSH1 0x1 PUSH1 0xA0 SHL SUB DUP3 AND PUSH1 0x0 SWAP1 DUP2 MSTORE PUSH1 0x4 PUSH1 0x20 MSTORE PUSH1 0x40 SWAP1 KECCAK256 SLOAD DUP3 SWAP1 ISZERO DUP1 ISZERO SWAP1 PUSH2 0x8B4 JUMPI POP PUSH1 0x1 PUSH1 0x1 PUSH1 0xA0 SHL SUB DUP2 AND PUSH20 0xA84D62F776606B9EEBD761E2D31F65442ECC437E EQ ISZERO JUMPDEST PUSH2 0x8D0 JUMPI PUSH1 0x40 MLOAD PUSH3 0x461BCD PUSH1 0xE5 SHL DUP2 MSTORE PUSH1 0x4 ADD PUSH2 0x758 SWAP1 PUSH2 0x3B89 JUMP JUMPDEST DUP3 PUSH2 0x8DA DUP2 PUSH2 0x22F5 JUMP JUMPDEST PUSH1 0x40 MLOAD PUSH4 0x70A08231 PUSH1 0xE0 SHL DUP2 MSTORE ADDRESS PUSH1 0x4 DUP3 ADD MSTORE DUP5 SWAP1 PUSH1 0x1 PUSH1 0x1 PUSH1 0x70 SHL SUB DUP6 AND SWAP1 PUSH1 0x0 SWAP1 PUSH1 0x1 PUSH1 0x1 PUSH1 0xA0 SHL SUB DUP5 AND SWAP1 PUSH4 0x70A08231 SWAP1 PUSH1 0x24 ADD PUSH1 0x20 PUSH1 0x40 MLOAD DUP1 DUP4 SUB DUP2 DUP7 GAS STATICCALL ISZERO DUP1 ISZERO PUSH2 0x92E JUMPI RETURNDATASIZE PUSH1 0x0 DUP1 RETURNDATACOPY RETURNDATASIZE PUSH1 0x0 REVERT JUMPDEST POP POP POP POP PUSH1 0x40 MLOAD RETURNDATASIZE PUSH1 0x1F NOT PUSH1 0x1F DUP3 ADD AND DUP3 ADD DUP1 PUSH1 0x40 MSTORE POP DUP2 ADD SWAP1 PUSH2 0x952 SWAP2 SWAP1 PUSH2 0x3B02 JUMP JUMPDEST SWAP1 POP PUSH2 0x969 PUSH1 0x1 PUSH1 0x1 PUSH1 0xA0 SHL SUB DUP5 AND CALLER ADDRESS DUP6 PUSH2 0x2996 JUMP JUMPDEST PUSH1 0x40 MLOAD PUSH4 0x70A08231 PUSH1 0xE0 SHL DUP2 MSTORE ADDRESS PUSH1 0x4 DUP3 ADD MSTORE PUSH1 0x0 SWAP1 PUSH1 0x1 PUSH1 0x1 PUSH1 0xA0 SHL SUB DUP6 AND SWAP1 PUSH4 0x70A08231 SWAP1 PUSH1 0x24 ADD PUSH1 0x20 PUSH1 0x40 MLOAD DUP1 DUP4 SUB DUP2 DUP7 GAS STATICCALL ISZERO DUP1 ISZERO PUSH2 0x9B0 JUMPI RETURNDATASIZE PUSH1 0x0 DUP1 RETURNDATACOPY RETURNDATASIZE PUSH1 0x0 REVERT JUMPDEST POP POP POP POP PUSH1 0x40 MLOAD RETURNDATASIZE PUSH1 0x1F NOT PUSH1 0x1F DUP3 ADD AND DUP3 ADD DUP1 PUSH1 0x40 MSTORE POP DUP2 ADD SWAP1 PUSH2 0x9D4 SWAP2 SWAP1 PUSH2 0x3B02 JUMP JUMPDEST SWAP1 POP PUSH2 0x9E0 DUP4 DUP4 PUSH2 0x3BB3 JUMP JUMPDEST DUP2 LT ISZERO PUSH2 0x9FF JUMPI PUSH1 0x40 MLOAD PUSH3 0x461BCD PUSH1 0xE5 SHL DUP2 MSTORE PUSH1 0x4 ADD PUSH2 0x758 SWAP1 PUSH2 0x3BCB JUMP JUMPDEST PUSH1 0x1 PUSH1 0x1 PUSH1 0xA0 SHL SUB DUP9 AND PUSH1 0x0 SWAP1 DUP2 MSTORE PUSH1 0x4 PUSH1 0x20 MSTORE PUSH1 0x40 DUP2 KECCAK256 SLOAD PUSH1 0x3 DUP1 SLOAD SWAP2 SWAP3 SWAP2 DUP4 SWAP1 DUP2 LT PUSH2 0xA2F JUMPI PUSH2 0xA2F PUSH2 0x3A9E JUMP JUMPDEST SWAP1 PUSH1 0x0 MSTORE PUSH1 0x20 PUSH1 0x0 KECCAK256 SWAP1 PUSH1 0x3 MUL ADD PUSH1 0x1 ADD PUSH1 0x0 SWAP1 SLOAD SWAP1 PUSH2 0x100 EXP SWAP1 DIV PUSH1 0x1 PUSH1 0x1 PUSH1 0x70 SHL SUB AND PUSH1 0x1 PUSH1 0x1 PUSH1 0x70 SHL SUB AND PUSH1 0x3 DUP4 DUP2 SLOAD DUP2 LT PUSH2 0xA70 JUMPI PUSH2 0xA70 PUSH2 0x3A9E JUMP JUMPDEST PUSH1 0x0 SWAP2 DUP3 MSTORE PUSH1 0x20 SWAP1 SWAP2 KECCAK256 PUSH1 0x1 PUSH1 0x3 SWAP1 SWAP3 MUL ADD ADD SLOAD PUSH2 0xAA2 SWAP1 PUSH1 0x1 PUSH1 0x1 PUSH1 0x70 SHL SUB PUSH1 0x1 PUSH1 0x70 SHL SWAP1 SWAP2 DIV DUP2 AND SWAP1 DUP13 AND PUSH2 0x3C17 JUMP JUMPDEST PUSH2 0xAAC SWAP2 SWAP1 PUSH2 0x3C4C JUMP JUMPDEST PUSH1 0x40 MLOAD PUSH4 0xBB9FF5D PUSH1 0xE0 SHL DUP2 MSTORE SWAP1 SWAP2 POP PUSH20 0xA84D62F776606B9EEBD761E2D31F65442ECC437E SWAP1 PUSH4 0xBB9FF5D SWAP1 PUSH2 0xAE8 SWAP1 ADDRESS SWAP1 DUP6 SWAP1 PUSH1 0x4 ADD PUSH2 0x3C60 JUMP JUMPDEST PUSH1 0x0 PUSH1 0x40 MLOAD DUP1 DUP4 SUB DUP2 PUSH1 0x0 DUP8 DUP1 EXTCODESIZE ISZERO DUP1 ISZERO PUSH2 0xB02 JUMPI PUSH1 0x0 DUP1 REVERT JUMPDEST POP GAS CALL ISZERO DUP1 ISZERO PUSH2 0xB16 JUMPI RETURNDATASIZE PUSH1 0x0 DUP1 RETURNDATACOPY RETURNDATASIZE PUSH1 0x0 REVERT JUMPDEST POP POP PUSH1 0x40 MLOAD PUSH4 0xBD85B039 PUSH1 0xE0 SHL DUP2 MSTORE PUSH1 0x4 DUP2 ADD DUP6 SWAP1 MSTORE PUSH1 0x0 SWAP3 POP PUSH20 0x8E06E97C598B0BB2910DF62C626EBF6CD55409E6 SWAP2 POP PUSH4 0xBD85B039 SWAP1 PUSH1 0x24 ADD PUSH1 0x20 PUSH1 0x40 MLOAD DUP1 DUP4 SUB DUP2 DUP7 GAS STATICCALL ISZERO DUP1 ISZERO PUSH2 0xB6D JUMPI RETURNDATASIZE PUSH1 0x0 DUP1 RETURNDATACOPY RETURNDATASIZE PUSH1 0x0 REVERT JUMPDEST POP POP POP POP PUSH1 0x40 MLOAD RETURNDATASIZE PUSH1 0x1F NOT PUSH1 0x1F DUP3 ADD AND DUP3 ADD DUP1 PUSH1 0x40 MSTORE POP DUP2 ADD SWAP1 PUSH2 0xB91 SWAP2 SWAP1 PUSH2 0x3B02 JUMP JUMPDEST SWAP1 POP PUSH1 0x0 PUSH1 0x3 DUP5 DUP2 SLOAD DUP2 LT PUSH2 0xBA8 JUMPI PUSH2 0xBA8 PUSH2 0x3A9E JUMP JUMPDEST PUSH1 0x0 SWAP2 DUP3 MSTORE PUSH1 0x20 SWAP1 SWAP2 KECCAK256 PUSH1 0x1 PUSH1 0x3 SWAP1 SWAP3 MUL ADD ADD SLOAD PUSH1 0x1 PUSH1 0x1 PUSH1 0x70 SHL SUB SWAP1 DUP2 AND SWAP1 PUSH2 0xBD5 SWAP1 DUP5 SWAP1 DUP15 AND PUSH2 0x3C17 JUMP JUMPDEST PUSH2 0xBDF SWAP2 SWAP1 PUSH2 0x3C4C JUMP JUMPDEST PUSH1 0x40 MLOAD PUSH4 0x611C68F7 PUSH1 0xE1 SHL DUP2 MSTORE SWAP1 SWAP2 POP PUSH20 0x8E06E97C598B0BB2910DF62C626EBF6CD55409E6 SWAP1 PUSH4 0xC238D1EE SWAP1 PUSH2 0xC1D SWAP1 CALLER SWAP1 DUP9 SWAP1 DUP7 SWAP1 PUSH1 0x4 ADD PUSH2 0x3C82 JUMP JUMPDEST PUSH1 0x0 PUSH1 0x40 MLOAD DUP1 DUP4 SUB DUP2 PUSH1 0x0 DUP8 DUP1 EXTCODESIZE ISZERO DUP1 ISZERO PUSH2 0xC37 JUMPI PUSH1 0x0 DUP1 REVERT JUMPDEST POP GAS CALL ISZERO DUP1 ISZERO PUSH2 0xC4B JUMPI RETURNDATASIZE PUSH1 0x0 DUP1 RETURNDATACOPY RETURNDATASIZE PUSH1 0x0 REVERT JUMPDEST POP POP POP POP DUP11 PUSH1 0x3 DUP6 DUP2 SLOAD DUP2 LT PUSH2 0xC63 JUMPI PUSH2 0xC63 PUSH2 0x3A9E JUMP JUMPDEST PUSH1 0x0 SWAP2 DUP3 MSTORE PUSH1 0x20 DUP3 KECCAK256 PUSH1 0x1 PUSH1 0x3 SWAP1 SWAP3 MUL ADD ADD DUP1 SLOAD SWAP1 SWAP2 SWAP1 PUSH2 0xC8E SWAP1 DUP5 SWAP1 PUSH1 0x1 PUSH1 0x1 PUSH1 0x70 SHL SUB AND PUSH2 0x3CB2 JUMP JUMPDEST SWAP3 POP PUSH2 0x100 EXP DUP2 SLOAD DUP2 PUSH1 0x1 PUSH1 0x1 PUSH1 0x70 SHL SUB MUL NOT AND SWAP1 DUP4 PUSH1 0x1 PUSH1 0x1 PUSH1 0x70 SHL SUB AND MUL OR SWAP1 SSTORE POP DUP3 PUSH1 0x3 DUP6 DUP2 SLOAD DUP2 LT PUSH2 0xCC6 JUMPI PUSH2 0xCC6 PUSH2 0x3A9E JUMP JUMPDEST SWAP1 PUSH1 0x0 MSTORE PUSH1 0x20 PUSH1 0x0 KECCAK256 SWAP1 PUSH1 0x3 MUL ADD PUSH1 0x1 ADD PUSH1 0xE DUP3 DUP3 DUP3 SWAP1 SLOAD SWAP1 PUSH2 0x100 EXP SWAP1 DIV PUSH1 0x1 PUSH1 0x1 PUSH1 0x70 SHL SUB AND PUSH2 0xCF8 SWAP2 SWAP1 PUSH2 0x3CB2 JUMP JUMPDEST SWAP3 POP PUSH2 0x100 EXP DUP2 SLOAD DUP2 PUSH1 0x1 PUSH1 0x1 PUSH1 0x70 SHL SUB MUL NOT AND SWAP1 DUP4 PUSH1 0x1 PUSH1 0x1 PUSH1 0x70 SHL SUB AND MUL OR SWAP1 SSTORE POP PUSH2 0xD25 DUP13 PUSH2 0x22F5 JUMP JUMPDEST POP POP PUSH1 0x1 PUSH1 0x2 SSTORE POP POP POP POP POP POP POP POP POP POP JUMP JUMPDEST PUSH2 0xD40 PUSH2 0x363D JUMP JUMPDEST PUSH2 0xD48 PUSH2 0x363D JUMP JUMPDEST PUSH1 0x4 PUSH1 0x20 MSTORE PUSH32 0x674B36EC14CA1343904F60303CFE142028FE384EDE1BB8216405C2D715EEC2AA SLOAD PUSH20 0xC7A0E9429BBC262D97F3E87BF38A95CAE8B05EDA PUSH1 0x0 MSTORE PUSH32 0xD4DAA411513E44C00CBBDBCD7643E3F083AE7772D91F19E35D6B7F63CF386A45 SLOAD PUSH1 0x3 DUP1 SLOAD DUP4 SWAP1 DUP2 LT PUSH2 0xDBD JUMPI PUSH2 0xDBD PUSH2 0x3A9E JUMP JUMPDEST SWAP1 PUSH1 0x0 MSTORE PUSH1 0x20 PUSH1 0x0 KECCAK256 SWAP1 PUSH1 0x3 MUL ADD PUSH1 0x3 DUP3 DUP2 SLOAD DUP2 LT PUSH2 0xDDE JUMPI PUSH2 0xDDE PUSH2 0x3A9E JUMP JUMPDEST PUSH1 0x0 SWAP2 DUP3 MSTORE PUSH1 0x20 SWAP2 DUP3 SWAP1 KECCAK256 PUSH1 0x40 DUP1 MLOAD PUSH1 0x80 DUP2 ADD DUP3 MSTORE DUP6 SLOAD PUSH1 0x1 PUSH1 0x1 PUSH1 0xA0 SHL SUB AND DUP2 MSTORE PUSH1 0x1 DUP7 ADD SLOAD PUSH1 0x1 PUSH1 0x1 PUSH1 0x70 SHL SUB DUP1 DUP3 AND SWAP7 DUP4 ADD SWAP7 SWAP1 SWAP7 MSTORE PUSH1 0x1 PUSH1 0x70 SHL SWAP1 DIV SWAP1 SWAP5 AND DUP5 DUP3 ADD MSTORE DUP1 MLOAD PUSH2 0x100 DUP2 ADD SWAP1 SWAP2 MSTORE PUSH1 0x3 SWAP1 SWAP3 MUL ADD SWAP2 SWAP1 DUP4 SWAP1 PUSH1 0x60 DUP4 ADD SWAP1 PUSH1 0x2 DUP4 ADD PUSH1 0x8 DUP3 DUP3 DUP3 PUSH1 0x20 MUL DUP3 ADD SWAP2 PUSH1 0x0 SWAP1 JUMPDEST DUP3 DUP3 SWAP1 SLOAD SWAP1 PUSH2 0x100 EXP SWAP1 DIV PUSH4 0xFFFFFFFF AND PUSH4 0xFFFFFFFF AND DUP2 MSTORE PUSH1 0x20 ADD SWAP1 PUSH1 0x4 ADD SWAP1 PUSH1 0x20 DUP3 PUSH1 0x3 ADD DIV SWAP3 DUP4 ADD SWAP3 PUSH1 0x1 SUB DUP3 MUL SWAP2 POP DUP1 DUP5 GT PUSH2 0xE51 JUMPI POP POP POP SWAP3 SWAP1 SWAP4 MSTORE POP POP PUSH1 0x40 DUP1 MLOAD PUSH1 0x80 DUP2 ADD DUP3 MSTORE DUP6 SLOAD PUSH1 0x1 PUSH1 0x1 PUSH1 0xA0 SHL SUB AND DUP2 MSTORE PUSH1 0x1 DUP7 ADD SLOAD PUSH1 0x1 PUSH1 0x1 PUSH1 0x70 SHL SUB DUP1 DUP3 AND PUSH1 0x20 DUP5 ADD MSTORE PUSH1 0x1 PUSH1 0x70 SHL SWAP1 SWAP2 DIV AND DUP2 DUP4 ADD MSTORE DUP2 MLOAD PUSH2 0x100 DUP2 ADD SWAP3 DUP4 SWAP1 MSTORE SWAP5 SWAP7 POP SWAP4 DUP6 SWAP4 POP PUSH1 0x60 DUP6 ADD SWAP3 POP SWAP1 PUSH1 0x2 DUP5 ADD SWAP1 PUSH1 0x8 SWAP1 DUP3 PUSH1 0x0 DUP6 JUMPDEST DUP3 DUP3 SWAP1 SLOAD SWAP1 PUSH2 0x100 EXP SWAP1 DIV PUSH4 0xFFFFFFFF AND PUSH4 0xFFFFFFFF AND DUP2 MSTORE PUSH1 0x20 ADD SWAP1 PUSH1 0x4 ADD SWAP1 PUSH1 0x20 DUP3 PUSH1 0x3 ADD DIV SWAP3 DUP4 ADD SWAP3 PUSH1 0x1 SUB DUP3 MUL SWAP2 POP DUP1 DUP5 GT PUSH2 0xEF3 JUMPI SWAP1 POP POP POP POP POP POP DUP2 MSTORE POP POP SWAP1 POP SWAP4 POP SWAP4 POP POP POP SWAP1 SWAP2 JUMP JUMPDEST PUSH1 0x0 DUP1 PUSH2 0xF4F PUSH2 0x170E JUMP JUMPDEST SWAP1 POP PUSH1 0x0 PUSH1 0x8 PUSH2 0xF60 DUP4 PUSH1 0x1 PUSH2 0x3BB3 JUMP JUMPDEST PUSH2 0xF6A SWAP2 SWAP1 PUSH2 0x3CDD JUMP JUMPDEST SWAP1 POP PUSH1 0x0 DUP1 JUMPDEST PUSH1 0x8 DUP2 LT ISZERO PUSH2 0x1007 JUMPI DUP4 DUP2 EQ DUP1 PUSH2 0xF86 JUMPI POP DUP3 DUP2 EQ JUMPDEST ISZERO PUSH2 0xF90 JUMPI PUSH2 0xFF5 JUMP JUMPDEST PUSH1 0x3 DUP7 DUP2 SLOAD DUP2 LT PUSH2 0xFA3 JUMPI PUSH2 0xFA3 PUSH2 0x3A9E JUMP JUMPDEST SWAP1 PUSH1 0x0 MSTORE PUSH1 0x20 PUSH1 0x0 KECCAK256 SWAP1 PUSH1 0x3 MUL ADD PUSH1 0x2 ADD DUP2 PUSH1 0x8 DUP2 LT PUSH2 0xFC5 JUMPI PUSH2 0xFC5 PUSH2 0x3A9E JUMP JUMPDEST PUSH1 0x8 SWAP2 DUP3 DUP3 DIV ADD SWAP2 SWAP1 MOD PUSH1 0x4 MUL SWAP1 SLOAD SWAP1 PUSH2 0x100 EXP SWAP1 DIV PUSH4 0xFFFFFFFF AND PUSH4 0xFFFFFFFF AND DUP3 PUSH2 0xFF2 SWAP2 SWAP1 PUSH2 0x3BB3 JUMP JUMPDEST SWAP2 POP JUMPDEST DUP1 PUSH2 0xFFF DUP2 PUSH2 0x3ACA JUMP JUMPDEST SWAP2 POP POP PUSH2 0xF70 JUMP JUMPDEST POP PUSH1 0x0 PUSH2 0x101C DUP3 PUSH8 0xDE0B6B3A7640000 PUSH2 0x3C17 JUMP JUMPDEST PUSH2 0x1028 SWAP1 PUSH2 0x3E8 PUSH2 0x3C17 JUMP JUMPDEST SWAP1 POP PUSH1 0x0 PUSH1 0x3 DUP8 DUP2 SLOAD DUP2 LT PUSH2 0x103F JUMPI PUSH2 0x103F PUSH2 0x3A9E JUMP JUMPDEST PUSH1 0x0 SWAP2 DUP3 MSTORE PUSH1 0x20 SWAP1 SWAP2 KECCAK256 PUSH1 0x3 SWAP1 SWAP2 MUL ADD PUSH1 0x1 ADD SLOAD PUSH2 0x106E SWAP1 PUSH1 0x1 PUSH1 0x70 SHL SWAP1 DIV PUSH1 0x1 PUSH1 0x1 PUSH1 0x70 SHL SUB AND PUSH1 0x2 PUSH2 0x3CF1 JUMP JUMPDEST PUSH2 0x1079 SWAP1 PUSH1 0x96 PUSH2 0x3CF1 JUMP JUMPDEST PUSH1 0x1 PUSH1 0x1 PUSH1 0x70 SHL SUB AND SWAP1 POP DUP1 DUP3 GT PUSH2 0x1095 JUMPI PUSH2 0x270F SWAP6 POP PUSH2 0x10F2 JUMP JUMPDEST DUP2 DUP2 LT DUP1 ISZERO PUSH2 0x10AD JUMPI POP PUSH2 0x10AA DUP2 PUSH1 0x64 PUSH2 0x3C17 JUMP JUMPDEST DUP3 LT JUMPDEST ISZERO PUSH2 0x10DA JUMPI DUP1 PUSH2 0x10BD DUP2 DUP5 PUSH2 0x3D20 JUMP JUMPDEST PUSH2 0x10C7 SWAP2 SWAP1 PUSH2 0x3C4C JUMP JUMPDEST PUSH2 0x10D3 SWAP1 PUSH2 0x270F PUSH2 0x3D20 JUMP JUMPDEST SWAP6 POP PUSH2 0x10F2 JUMP JUMPDEST PUSH2 0x10E5 DUP2 PUSH1 0x64 PUSH2 0x3C17 JUMP JUMPDEST DUP3 GT ISZERO PUSH2 0x10F2 JUMPI PUSH2 0x26AC SWAP6 POP JUMPDEST POP POP POP POP POP SWAP2 SWAP1 POP JUMP JUMPDEST PUSH1 0x5 SLOAD PUSH1 0xFF AND ISZERO PUSH2 0x114F JUMPI PUSH1 0x40 MLOAD PUSH3 0x461BCD PUSH1 0xE5 SHL DUP2 MSTORE PUSH1 0x20 PUSH1 0x4 DUP3 ADD MSTORE PUSH1 0x18 PUSH1 0x24 DUP3 ADD MSTORE PUSH32 0x4353313A20416C726561647920696E697469616C697A65640000000000000000 PUSH1 0x44 DUP3 ADD MSTORE PUSH1 0x64 ADD PUSH2 0x758 JUMP JUMPDEST PUSH1 0x5 DUP1 SLOAD PUSH1 0xFF NOT AND PUSH1 0x1 OR SWAP1 SSTORE PUSH2 0x1164 PUSH2 0x366B JUMP JUMPDEST PUSH1 0x40 DUP1 MLOAD PUSH1 0x80 DUP2 ADD DUP3 MSTORE PUSH1 0x0 DUP1 DUP3 MSTORE PUSH1 0x20 DUP3 ADD DUP2 DUP2 MSTORE SWAP3 DUP3 ADD DUP2 DUP2 MSTORE PUSH1 0x60 DUP4 ADD DUP6 DUP2 MSTORE PUSH1 0x3 DUP1 SLOAD PUSH1 0x1 DUP2 ADD DUP3 SSTORE SWAP4 DUP2 SWAP1 MSTORE DUP5 MLOAD SWAP4 MUL PUSH32 0xC2575A0E9E593C00F959F8C92F12DB2869C3395A3B0502D05E2516446F71F85B DUP2 ADD DUP1 SLOAD PUSH1 0x1 PUSH1 0x1 PUSH1 0xA0 SHL SUB SWAP6 SWAP1 SWAP6 AND PUSH1 0x1 PUSH1 0x1 PUSH1 0xA0 SHL SUB NOT SWAP1 SWAP6 AND SWAP5 SWAP1 SWAP5 OR DUP5 SSTORE SWAP5 MLOAD PUSH32 0xC2575A0E9E593C00F959F8C92F12DB2869C3395A3B0502D05E2516446F71F85C DUP7 ADD DUP1 SLOAD SWAP4 MLOAD PUSH1 0x1 PUSH1 0x1 PUSH1 0x70 SHL SUB SWAP1 DUP2 AND PUSH1 0x1 PUSH1 0x70 SHL MUL PUSH1 0x1 PUSH1 0x1 PUSH1 0xE0 SHL SUB NOT SWAP1 SWAP6 AND SWAP3 AND SWAP2 SWAP1 SWAP2 OR SWAP3 SWAP1 SWAP3 OR SWAP1 SWAP2 SSTORE MLOAD SWAP2 SWAP3 SWAP1 SWAP2 PUSH2 0x1262 SWAP2 PUSH32 0xC2575A0E9E593C00F959F8C92F12DB2869C3395A3B0502D05E2516446F71F85D ADD SWAP1 PUSH1 0x8 PUSH2 0x368A JUMP JUMPDEST POP POP PUSH1 0x40 MLOAD PUSH4 0x611C68F7 PUSH1 0xE1 SHL DUP2 MSTORE PUSH20 0x8E06E97C598B0BB2910DF62C626EBF6CD55409E6 SWAP2 POP PUSH4 0xC238D1EE SWAP1 PUSH2 0x12A5 SWAP1 PUSH2 0xDEAD SWAP1 PUSH1 0x0 SWAP1 PUSH2 0x3E8 SWAP1 PUSH1 0x4 ADD PUSH2 0x3C82 JUMP JUMPDEST PUSH1 0x0 PUSH1 0x40 MLOAD DUP1 DUP4 SUB DUP2 PUSH1 0x0 DUP8 DUP1 EXTCODESIZE ISZERO DUP1 ISZERO PUSH2 0x12BF JUMPI PUSH1 0x0 DUP1 REVERT JUMPDEST POP GAS CALL ISZERO DUP1 ISZERO PUSH2 0x12D3 JUMPI RETURNDATASIZE PUSH1 0x0 DUP1 RETURNDATACOPY RETURNDATASIZE PUSH1 0x0 REVERT JUMPDEST POP POP POP POP PUSH2 0x130A PUSH20 0x29581A9121998FCBB096CEAFA92E3E10057878F PUSH10 0xD3C21BCECCEDA1000000 PUSH10 0x3F870857A3E0E3800000 PUSH2 0x1823 JUMP JUMPDEST PUSH2 0x1333 PUSH20 0xC7A0E9429BBC262D97F3E87BF38A95CAE8B05EDA PUSH10 0xD3C21BCECCEDA1000000 DUP1 PUSH2 0x1823 JUMP JUMPDEST POP JUMP JUMPDEST PUSH1 0x2 DUP1 SLOAD EQ ISZERO PUSH2 0x1358 JUMPI PUSH1 0x40 MLOAD PUSH3 0x461BCD PUSH1 0xE5 SHL DUP2 MSTORE PUSH1 0x4 ADD PUSH2 0x758 SWAP1 PUSH2 0x3B1B JUMP JUMPDEST PUSH1 0x2 DUP1 SSTORE PUSH1 0x1 PUSH1 0x1 PUSH1 0xA0 SHL SUB DUP3 AND PUSH1 0x0 SWAP1 DUP2 MSTORE PUSH1 0x4 PUSH1 0x20 MSTORE PUSH1 0x40 SWAP1 KECCAK256 SLOAD DUP3 SWAP1 ISZERO DUP1 ISZERO SWAP1 PUSH2 0x13A2 JUMPI POP PUSH1 0x1 PUSH1 0x1 PUSH1 0xA0 SHL SUB DUP2 AND PUSH20 0xA84D62F776606B9EEBD761E2D31F65442ECC437E EQ ISZERO JUMPDEST PUSH2 0x13BE JUMPI PUSH1 0x40 MLOAD PUSH3 0x461BCD PUSH1 0xE5 SHL DUP2 MSTORE PUSH1 0x4 ADD PUSH2 0x758 SWAP1 PUSH2 0x3B89 JUMP JUMPDEST DUP3 PUSH2 0x13C8 DUP2 PUSH2 0x22F5 JUMP JUMPDEST PUSH1 0x1 PUSH1 0x1 PUSH1 0xA0 SHL SUB DUP5 AND PUSH1 0x0 SWAP1 DUP2 MSTORE PUSH1 0x4 PUSH1 0x20 DUP2 SWAP1 MSTORE PUSH1 0x40 SWAP2 DUP3 SWAP1 KECCAK256 SLOAD SWAP2 MLOAD PUSH4 0xDAB52DF PUSH1 0xE1 SHL DUP2 MSTORE CALLER SWAP2 DUP2 ADD SWAP2 SWAP1 SWAP2 MSTORE PUSH1 0x24 DUP2 ADD DUP3 SWAP1 MSTORE PUSH1 0x44 DUP2 ADD DUP6 SWAP1 MSTORE PUSH20 0x8E06E97C598B0BB2910DF62C626EBF6CD55409E6 SWAP1 PUSH4 0x1B56A5BE SWAP1 PUSH1 0x64 ADD PUSH1 0x0 PUSH1 0x40 MLOAD DUP1 DUP4 SUB DUP2 PUSH1 0x0 DUP8 DUP1 EXTCODESIZE ISZERO DUP1 ISZERO PUSH2 0x1440 JUMPI PUSH1 0x0 DUP1 REVERT JUMPDEST POP GAS CALL ISZERO DUP1 ISZERO PUSH2 0x1454 JUMPI RETURNDATASIZE PUSH1 0x0 DUP1 RETURNDATACOPY RETURNDATASIZE PUSH1 0x0 REVERT JUMPDEST POP POP PUSH1 0x40 MLOAD PUSH4 0xBD85B039 PUSH1 0xE0 SHL DUP2 MSTORE PUSH1 0x4 DUP2 ADD DUP5 SWAP1 MSTORE PUSH1 0x0 SWAP3 POP PUSH20 0x8E06E97C598B0BB2910DF62C626EBF6CD55409E6 SWAP2 POP PUSH4 0xBD85B039 SWAP1 PUSH1 0x24 ADD PUSH1 0x20 PUSH1 0x40 MLOAD DUP1 DUP4 SUB DUP2 DUP7 GAS STATICCALL ISZERO DUP1 ISZERO PUSH2 0x14AB JUMPI RETURNDATASIZE PUSH1 0x0 DUP1 RETURNDATACOPY RETURNDATASIZE PUSH1 0x0 REVERT JUMPDEST POP POP POP POP PUSH1 0x40 MLOAD RETURNDATASIZE PUSH1 0x1F NOT PUSH1 0x1F DUP3 ADD AND DUP3 ADD DUP1 PUSH1 0x40 MSTORE POP DUP2 ADD SWAP1 PUSH2 0x14CF SWAP2 SWAP1 PUSH2 0x3B02 JUMP JUMPDEST SWAP1 POP PUSH1 0x0 DUP2 DUP7 PUSH1 0x3 DUP6 DUP2 SLOAD DUP2 LT PUSH2 0x14E8 JUMPI PUSH2 0x14E8 PUSH2 0x3A9E JUMP JUMPDEST PUSH1 0x0 SWAP2 DUP3 MSTORE PUSH1 0x20 SWAP1 SWAP2 KECCAK256 PUSH1 0x1 PUSH1 0x3 SWAP1 SWAP3 MUL ADD ADD SLOAD PUSH2 0x150F SWAP2 SWAP1 PUSH1 0x1 PUSH1 0x1 PUSH1 0x70 SHL SUB AND PUSH2 0x3C17 JUMP JUMPDEST PUSH2 0x1519 SWAP2 SWAP1 PUSH2 0x3C4C JUMP JUMPDEST SWAP1 POP PUSH1 0x0 DUP3 DUP8 PUSH1 0x3 DUP7 DUP2 SLOAD DUP2 LT PUSH2 0x1532 JUMPI PUSH2 0x1532 PUSH2 0x3A9E JUMP JUMPDEST PUSH1 0x0 SWAP2 DUP3 MSTORE PUSH1 0x20 SWAP1 SWAP2 KECCAK256 PUSH1 0x3 SWAP1 SWAP2 MUL ADD PUSH1 0x1 ADD SLOAD PUSH2 0x1560 SWAP2 SWAP1 PUSH1 0x1 PUSH1 0x70 SHL SWAP1 DIV PUSH1 0x1 PUSH1 0x1 PUSH1 0x70 SHL SUB AND PUSH2 0x3C17 JUMP JUMPDEST PUSH2 0x156A SWAP2 SWAP1 PUSH2 0x3C4C JUMP JUMPDEST PUSH1 0x40 MLOAD PUSH4 0x18A8AD87 PUSH1 0xE0 SHL DUP2 MSTORE SWAP1 SWAP2 POP PUSH20 0xA84D62F776606B9EEBD761E2D31F65442ECC437E SWAP1 PUSH4 0x18A8AD87 SWAP1 PUSH2 0x15A6 SWAP1 ADDRESS SWAP1 DUP6 SWAP1 PUSH1 0x4 ADD PUSH2 0x3C60 JUMP JUMPDEST PUSH1 0x0 PUSH1 0x40 MLOAD DUP1 DUP4 SUB DUP2 PUSH1 0x0 DUP8 DUP1 EXTCODESIZE ISZERO DUP1 ISZERO PUSH2 0x15C0 JUMPI PUSH1 0x0 DUP1 REVERT JUMPDEST POP GAS CALL ISZERO DUP1 ISZERO PUSH2 0x15D4 JUMPI RETURNDATASIZE PUSH1 0x0 DUP1 RETURNDATACOPY RETURNDATASIZE PUSH1 0x0 REVERT JUMPDEST POP POP POP POP DUP2 PUSH1 0x3 DUP6 DUP2 SLOAD DUP2 LT PUSH2 0x15EC JUMPI PUSH2 0x15EC PUSH2 0x3A9E JUMP JUMPDEST PUSH1 0x0 SWAP2 DUP3 MSTORE PUSH1 0x20 DUP3 KECCAK256 PUSH1 0x1 PUSH1 0x3 SWAP1 SWAP3 MUL ADD ADD DUP1 SLOAD SWAP1 SWAP2 SWAP1 PUSH2 0x1617 SWAP1 DUP5 SWAP1 PUSH1 0x1 PUSH1 0x1 PUSH1 0x70 SHL SUB AND PUSH2 0x3D37 JUMP JUMPDEST SWAP3 POP PUSH2 0x100 EXP DUP2 SLOAD DUP2 PUSH1 0x1 PUSH1 0x1 PUSH1 0x70 SHL SUB MUL NOT AND SWAP1 DUP4 PUSH1 0x1 PUSH1 0x1 PUSH1 0x70 SHL SUB AND MUL OR SWAP1 SSTORE POP DUP1 PUSH1 0x3 DUP6 DUP2 SLOAD DUP2 LT PUSH2 0x164F JUMPI PUSH2 0x164F PUSH2 0x3A9E JUMP JUMPDEST SWAP1 PUSH1 0x0 MSTORE PUSH1 0x20 PUSH1 0x0 KECCAK256 SWAP1 PUSH1 0x3 MUL ADD PUSH1 0x1 ADD PUSH1 0xE DUP3 DUP3 DUP3 SWAP1 SLOAD SWAP1 PUSH2 0x100 EXP SWAP1 DIV PUSH1 0x1 PUSH1 0x1 PUSH1 0x70 SHL SUB AND PUSH2 0x1681 SWAP2 SWAP1 PUSH2 0x3D37 JUMP JUMPDEST SWAP3 POP PUSH2 0x100 EXP DUP2 SLOAD DUP2 PUSH1 0x1 PUSH1 0x1 PUSH1 0x70 SHL SUB MUL NOT AND SWAP1 DUP4 PUSH1 0x1 PUSH1 0x1 PUSH1 0x70 SHL SUB AND MUL OR SWAP1 SSTORE POP PUSH2 0x16AE DUP9 PUSH2 0x22F5 JUMP JUMPDEST POP POP PUSH1 0x1 PUSH1 0x2 SSTORE POP POP POP POP POP POP JUMP JUMPDEST PUSH1 0x0 DUP3 DUP2 MSTORE PUSH1 0x1 PUSH1 0x20 MSTORE PUSH1 0x40 DUP2 KECCAK256 PUSH2 0x16D5 SWAP1 DUP4 PUSH2 0x2A01 JUMP JUMPDEST SWAP4 SWAP3 POP POP POP JUMP JUMPDEST PUSH1 0x0 SWAP2 DUP3 MSTORE PUSH1 0x20 DUP3 DUP2 MSTORE PUSH1 0x40 DUP1 DUP5 KECCAK256 PUSH1 0x1 PUSH1 0x1 PUSH1 0xA0 SHL SUB SWAP4 SWAP1 SWAP4 AND DUP5 MSTORE SWAP2 SWAP1 MSTORE SWAP1 KECCAK256 SLOAD PUSH1 0xFF AND SWAP1 JUMP JUMPDEST PUSH2 0x1333 DUP2 PUSH2 0x22F5 JUMP JUMPDEST PUSH1 0x0 PUSH1 0x8 PUSH2 0x171E PUSH2 0x3840 TIMESTAMP PUSH2 0x3C4C JUMP JUMPDEST PUSH2 0x1728 SWAP2 SWAP1 PUSH2 0x3CDD JUMP JUMPDEST SWAP1 POP SWAP1 JUMP JUMPDEST PUSH2 0x1735 PUSH2 0x363D JUMP JUMPDEST PUSH1 0x1 PUSH1 0x1 PUSH1 0xA0 SHL SUB DUP3 AND PUSH1 0x0 SWAP1 DUP2 MSTORE PUSH1 0x4 PUSH1 0x20 MSTORE PUSH1 0x40 SWAP1 KECCAK256 SLOAD PUSH1 0x3 DUP1 SLOAD SWAP1 SWAP2 SWAP1 DUP2 LT PUSH2 0x1763 JUMPI PUSH2 0x1763 PUSH2 0x3A9E JUMP JUMPDEST PUSH1 0x0 SWAP2 DUP3 MSTORE PUSH1 0x20 SWAP2 DUP3 SWAP1 KECCAK256 PUSH1 0x40 DUP1 MLOAD PUSH1 0x80 DUP2 ADD DUP3 MSTORE PUSH1 0x3 SWAP1 SWAP4 MUL SWAP1 SWAP2 ADD DUP1 SLOAD PUSH1 0x1 PUSH1 0x1 PUSH1 0xA0 SHL SUB AND DUP4 MSTORE PUSH1 0x1 DUP2 ADD SLOAD PUSH1 0x1 PUSH1 0x1 PUSH1 0x70 SHL SUB DUP1 DUP3 AND SWAP6 DUP6 ADD SWAP6 SWAP1 SWAP6 MSTORE PUSH1 0x1 PUSH1 0x70 SHL SWAP1 DIV SWAP1 SWAP4 AND DUP3 DUP3 ADD MSTORE DUP1 MLOAD PUSH2 0x100 DUP2 ADD SWAP1 SWAP2 MSTORE SWAP1 SWAP2 SWAP1 PUSH1 0x60 DUP4 ADD SWAP1 PUSH1 0x2 DUP4 ADD PUSH1 0x8 DUP3 DUP3 DUP3 PUSH1 0x20 MUL DUP3 ADD SWAP2 PUSH1 0x0 SWAP1 JUMPDEST DUP3 DUP3 SWAP1 SLOAD SWAP1 PUSH2 0x100 EXP SWAP1 DIV PUSH4 0xFFFFFFFF AND PUSH4 0xFFFFFFFF AND DUP2 MSTORE PUSH1 0x20 ADD SWAP1 PUSH1 0x4 ADD SWAP1 PUSH1 0x20 DUP3 PUSH1 0x3 ADD DIV SWAP3 DUP4 ADD SWAP3 PUSH1 0x1 SUB DUP3 MUL SWAP2 POP DUP1 DUP5 GT PUSH2 0x17D7 JUMPI SWAP1 POP POP POP POP POP POP DUP2 MSTORE POP POP SWAP1 POP SWAP2 SWAP1 POP JUMP JUMPDEST PUSH1 0x0 PUSH2 0x182F DUP2 CALLER PUSH2 0x2247 JUMP JUMPDEST PUSH1 0x2 DUP1 SLOAD EQ ISZERO PUSH2 0x1851 JUMPI PUSH1 0x40 MLOAD PUSH3 0x461BCD PUSH1 0xE5 SHL DUP2 MSTORE PUSH1 0x4 ADD PUSH2 0x758 SWAP1 PUSH2 0x3B1B JUMP JUMPDEST PUSH1 0x2 DUP1 SSTORE PUSH1 0x1 PUSH1 0x1 PUSH1 0xA0 SHL SUB DUP5 AND PUSH1 0x0 SWAP1 DUP2 MSTORE PUSH1 0x4 PUSH1 0x20 MSTORE PUSH1 0x40 SWAP1 KECCAK256 SLOAD DUP5 SWAP1 ISZERO DUP1 ISZERO PUSH2 0x189A JUMPI POP PUSH1 0x1 PUSH1 0x1 PUSH1 0xA0 SHL SUB DUP2 AND PUSH20 0xA84D62F776606B9EEBD761E2D31F65442ECC437E EQ ISZERO JUMPDEST PUSH2 0x18DA JUMPI PUSH1 0x40 MLOAD PUSH3 0x461BCD PUSH1 0xE5 SHL DUP2 MSTORE PUSH1 0x20 PUSH1 0x4 DUP3 ADD MSTORE PUSH1 0x11 PUSH1 0x24 DUP3 ADD MSTORE PUSH17 0x4353313A20546F6B656E20657869737473 PUSH1 0x78 SHL PUSH1 0x44 DUP3 ADD MSTORE PUSH1 0x64 ADD PUSH2 0x758 JUMP JUMPDEST PUSH1 0x40 MLOAD PUSH4 0x70A08231 PUSH1 0xE0 SHL DUP2 MSTORE ADDRESS PUSH1 0x4 DUP3 ADD MSTORE DUP6 SWAP1 PUSH1 0x1 PUSH1 0x1 PUSH1 0x70 SHL SUB DUP7 AND SWAP1 PUSH1 0x0 SWAP1 PUSH1 0x1 PUSH1 0x1 PUSH1 0xA0 SHL SUB DUP5 AND SWAP1 PUSH4 0x70A08231 SWAP1 PUSH1 0x24 ADD PUSH1 0x20 PUSH1 0x40 MLOAD DUP1 DUP4 SUB DUP2 DUP7 GAS STATICCALL ISZERO DUP1 ISZERO PUSH2 0x192E JUMPI RETURNDATASIZE PUSH1 0x0 DUP1 RETURNDATACOPY RETURNDATASIZE PUSH1 0x0 REVERT JUMPDEST POP POP POP POP PUSH1 0x40 MLOAD RETURNDATASIZE PUSH1 0x1F NOT PUSH1 0x1F DUP3 ADD AND DUP3 ADD DUP1 PUSH1 0x40 MSTORE POP DUP2 ADD SWAP1 PUSH2 0x1952 SWAP2 SWAP1 PUSH2 0x3B02 JUMP JUMPDEST SWAP1 POP PUSH2 0x1969 PUSH1 0x1 PUSH1 0x1 PUSH1 0xA0 SHL SUB DUP5 AND CALLER ADDRESS DUP6 PUSH2 0x2996 JUMP JUMPDEST PUSH1 0x40 MLOAD PUSH4 0x70A08231 PUSH1 0xE0 SHL DUP2 MSTORE ADDRESS PUSH1 0x4 DUP3 ADD MSTORE PUSH1 0x0 SWAP1 PUSH1 0x1 PUSH1 0x1 PUSH1 0xA0 SHL SUB DUP6 AND SWAP1 PUSH4 0x70A08231 SWAP1 PUSH1 0x24 ADD PUSH1 0x20 PUSH1 0x40 MLOAD DUP1 DUP4 SUB DUP2 DUP7 GAS STATICCALL ISZERO DUP1 ISZERO PUSH2 0x19B0 JUMPI RETURNDATASIZE PUSH1 0x0 DUP1 RETURNDATACOPY RETURNDATASIZE PUSH1 0x0 REVERT JUMPDEST POP POP POP POP PUSH1 0x40 MLOAD RETURNDATASIZE PUSH1 0x1F NOT PUSH1 0x1F DUP3 ADD AND DUP3 ADD DUP1 PUSH1 0x40 MSTORE POP DUP2 ADD SWAP1 PUSH2 0x19D4 SWAP2 SWAP1 PUSH2 0x3B02 JUMP JUMPDEST SWAP1 POP PUSH2 0x19E0 DUP4 DUP4 PUSH2 0x3BB3 JUMP JUMPDEST DUP2 LT ISZERO PUSH2 0x19FF JUMPI PUSH1 0x40 MLOAD PUSH3 0x461BCD PUSH1 0xE5 SHL DUP2 MSTORE PUSH1 0x4 ADD PUSH2 0x758 SWAP1 PUSH2 0x3BCB JUMP JUMPDEST PUSH1 0x40 MLOAD PUSH4 0xBB9FF5D PUSH1 0xE0 SHL DUP2 MSTORE PUSH20 0xA84D62F776606B9EEBD761E2D31F65442ECC437E SWAP1 PUSH4 0xBB9FF5D SWAP1 PUSH2 0x1A38 SWAP1 ADDRESS SWAP1 DUP12 SWAP1 PUSH1 0x4 ADD PUSH2 0x3C60 JUMP JUMPDEST PUSH1 0x0 PUSH1 0x40 MLOAD DUP1 DUP4 SUB DUP2 PUSH1 0x0 DUP8 DUP1 EXTCODESIZE ISZERO DUP1 ISZERO PUSH2 0x1A52 JUMPI PUSH1 0x0 DUP1 REVERT JUMPDEST POP GAS CALL ISZERO DUP1 ISZERO PUSH2 0x1A66 JUMPI RETURNDATASIZE PUSH1 0x0 DUP1 RETURNDATACOPY RETURNDATASIZE PUSH1 0x0 REVERT JUMPDEST POP POP POP POP PUSH2 0x1A72 PUSH2 0x366B JUMP JUMPDEST PUSH1 0x40 DUP1 MLOAD PUSH1 0x80 DUP2 ADD DUP3 MSTORE PUSH1 0x1 PUSH1 0x1 PUSH1 0xA0 SHL SUB DUP1 DUP14 AND DUP3 MSTORE PUSH1 0x1 PUSH1 0x1 PUSH1 0x70 SHL SUB DUP1 DUP14 AND PUSH1 0x20 DUP5 ADD SWAP1 DUP2 MSTORE DUP13 DUP3 AND SWAP5 DUP5 ADD SWAP5 DUP6 MSTORE PUSH1 0x60 DUP5 ADD DUP7 DUP2 MSTORE PUSH1 0x3 DUP1 SLOAD PUSH1 0x1 DUP2 ADD DUP3 SSTORE PUSH1 0x0 DUP3 SWAP1 MSTORE DUP7 MLOAD SWAP2 MUL PUSH32 0xC2575A0E9E593C00F959F8C92F12DB2869C3395A3B0502D05E2516446F71F85B DUP2 ADD DUP1 SLOAD SWAP3 SWAP1 SWAP7 AND PUSH1 0x1 PUSH1 0x1 PUSH1 0xA0 SHL SUB NOT SWAP1 SWAP3 AND SWAP2 SWAP1 SWAP2 OR DUP6 SSTORE SWAP2 MLOAD PUSH32 0xC2575A0E9E593C00F959F8C92F12DB2869C3395A3B0502D05E2516446F71F85C DUP4 ADD DUP1 SLOAD SWAP8 MLOAD DUP6 AND PUSH1 0x1 PUSH1 0x70 SHL MUL PUSH1 0x1 PUSH1 0x1 PUSH1 0xE0 SHL SUB NOT SWAP1 SWAP9 AND SWAP2 SWAP1 SWAP5 AND OR SWAP6 SWAP1 SWAP6 OR SWAP1 SWAP2 SSTORE SWAP3 MLOAD SWAP2 SWAP3 DUP4 SWAP3 PUSH2 0x1B76 SWAP2 PUSH32 0xC2575A0E9E593C00F959F8C92F12DB2869C3395A3B0502D05E2516446F71F85D ADD SWAP1 PUSH1 0x8 PUSH2 0x368A JUMP JUMPDEST POP POP PUSH1 0x3 SLOAD PUSH2 0x1B88 SWAP2 POP PUSH1 0x1 SWAP1 PUSH2 0x3D20 JUMP JUMPDEST PUSH1 0x1 PUSH1 0x1 PUSH1 0xA0 SHL SUB DUP13 AND PUSH1 0x0 SWAP1 DUP2 MSTORE PUSH1 0x4 PUSH1 0x20 MSTORE PUSH1 0x40 SWAP1 KECCAK256 SSTORE POP POP PUSH1 0x3 SLOAD PUSH20 0x8E06E97C598B0BB2910DF62C626EBF6CD55409E6 SWAP1 PUSH4 0xC238D1EE SWAP1 PUSH2 0xDEAD SWAP1 PUSH2 0x1BD2 SWAP1 PUSH1 0x1 SWAP1 PUSH2 0x3D20 JUMP JUMPDEST PUSH2 0x3E8 PUSH1 0x40 MLOAD DUP5 PUSH4 0xFFFFFFFF AND PUSH1 0xE0 SHL DUP2 MSTORE PUSH1 0x4 ADD PUSH2 0x1BF3 SWAP4 SWAP3 SWAP2 SWAP1 PUSH2 0x3C82 JUMP JUMPDEST PUSH1 0x0 PUSH1 0x40 MLOAD DUP1 DUP4 SUB DUP2 PUSH1 0x0 DUP8 DUP1 EXTCODESIZE ISZERO DUP1 ISZERO PUSH2 0x1C0D JUMPI PUSH1 0x0 DUP1 REVERT JUMPDEST POP GAS CALL ISZERO DUP1 ISZERO PUSH2 0x1C21 JUMPI RETURNDATASIZE PUSH1 0x0 DUP1 RETURNDATACOPY RETURNDATASIZE PUSH1 0x0 REVERT JUMPDEST POP POP POP POP PUSH1 0x0 PUSH2 0x3E8 PUSH2 0x1C50 DUP10 PUSH1 0x1 PUSH1 0x1 PUSH1 0x70 SHL SUB AND DUP12 PUSH1 0x1 PUSH1 0x1 PUSH1 0x70 SHL SUB AND PUSH2 0x1C4B SWAP2 SWAP1 PUSH2 0x3C17 JUMP JUMPDEST PUSH2 0x2A0D JUMP JUMPDEST PUSH2 0x1C5A SWAP2 SWAP1 PUSH2 0x3D20 JUMP JUMPDEST PUSH1 0x3 SLOAD SWAP1 SWAP2 POP PUSH20 0x8E06E97C598B0BB2910DF62C626EBF6CD55409E6 SWAP1 PUSH4 0xC238D1EE SWAP1 CALLER SWAP1 PUSH2 0x1C8A SWAP1 PUSH1 0x1 SWAP1 PUSH2 0x3D20 JUMP JUMPDEST DUP5 PUSH1 0x40 MLOAD DUP5 PUSH4 0xFFFFFFFF AND PUSH1 0xE0 SHL DUP2 MSTORE PUSH1 0x4 ADD PUSH2 0x1CA9 SWAP4 SWAP3 SWAP2 SWAP1 PUSH2 0x3C82 JUMP JUMPDEST PUSH1 0x0 PUSH1 0x40 MLOAD DUP1 DUP4 SUB DUP2 PUSH1 0x0 DUP8 DUP1 EXTCODESIZE ISZERO DUP1 ISZERO PUSH2 0x1CC3 JUMPI PUSH1 0x0 DUP1 REVERT JUMPDEST POP GAS CALL ISZERO DUP1 ISZERO PUSH2 0x1CD7 JUMPI RETURNDATASIZE PUSH1 0x0 DUP1 RETURNDATACOPY RETURNDATASIZE PUSH1 0x0 REVERT JUMPDEST POP POP POP POP PUSH2 0x1CE4 DUP11 PUSH2 0x22F5 JUMP JUMPDEST POP POP PUSH1 0x1 PUSH1 0x2 SSTORE POP POP POP POP POP POP POP POP JUMP JUMPDEST PUSH1 0x0 DUP2 DUP2 MSTORE PUSH1 0x1 PUSH1 0x20 MSTORE PUSH1 0x40 DUP2 KECCAK256 PUSH2 0x550 SWAP1 PUSH2 0x2A66 JUMP JUMPDEST PUSH1 0x0 PUSH2 0x16D5 DUP3 PUSH1 0x3 DUP6 DUP2 SLOAD DUP2 LT PUSH2 0x1D25 JUMPI PUSH2 0x1D25 PUSH2 0x3A9E JUMP JUMPDEST SWAP1 PUSH1 0x0 MSTORE PUSH1 0x20 PUSH1 0x0 KECCAK256 SWAP1 PUSH1 0x3 MUL ADD PUSH1 0x1 ADD PUSH1 0x0 SWAP1 SLOAD SWAP1 PUSH2 0x100 EXP SWAP1 DIV PUSH1 0x1 PUSH1 0x1 PUSH1 0x70 SHL SUB AND PUSH1 0x1 PUSH1 0x1 PUSH1 0x70 SHL SUB AND PUSH1 0x3 DUP7 DUP2 SLOAD DUP2 LT PUSH2 0x1D66 JUMPI PUSH2 0x1D66 PUSH2 0x3A9E JUMP JUMPDEST PUSH1 0x0 SWAP2 DUP3 MSTORE PUSH1 0x20 SWAP1 SWAP2 KECCAK256 PUSH1 0x3 SWAP1 SWAP2 MUL ADD PUSH1 0x1 ADD SLOAD PUSH1 0x1 PUSH1 0x70 SHL SWAP1 DIV PUSH1 0x1 PUSH1 0x1 PUSH1 0x70 SHL SUB AND PUSH2 0x1D93 DUP8 PUSH2 0xF44 JUMP JUMPDEST PUSH2 0x2A70 JUMP JUMPDEST PUSH2 0x1DA0 PUSH2 0x363D JUMP JUMPDEST PUSH1 0x3 DUP3 DUP2 SLOAD DUP2 LT PUSH2 0x1763 JUMPI PUSH2 0x1763 PUSH2 0x3A9E JUMP JUMPDEST PUSH1 0x0 DUP3 DUP2 MSTORE PUSH1 0x20 DUP2 SWAP1 MSTORE PUSH1 0x40 SWAP1 KECCAK256 PUSH1 0x1 ADD SLOAD PUSH2 0x1DCF DUP2 CALLER PUSH2 0x2247 JUMP JUMPDEST PUSH2 0x6E7 DUP4 DUP4 PUSH2 0x22D3 JUMP JUMPDEST PUSH1 0x0 PUSH1 0x2 DUP1 SLOAD EQ ISZERO PUSH2 0x1DFD JUMPI PUSH1 0x40 MLOAD PUSH3 0x461BCD PUSH1 0xE5 SHL DUP2 MSTORE PUSH1 0x4 ADD PUSH2 0x758 SWAP1 PUSH2 0x3B1B JUMP JUMPDEST PUSH1 0x2 DUP1 SSTORE PUSH1 0x1 PUSH1 0x1 PUSH1 0xA0 SHL SUB DUP6 AND PUSH1 0x0 SWAP1 DUP2 MSTORE PUSH1 0x4 PUSH1 0x20 MSTORE PUSH1 0x40 SWAP1 KECCAK256 SLOAD DUP6 SWAP1 ISZERO DUP1 ISZERO SWAP1 PUSH2 0x1E47 JUMPI POP PUSH1 0x1 PUSH1 0x1 PUSH1 0xA0 SHL SUB DUP2 AND PUSH20 0xA84D62F776606B9EEBD761E2D31F65442ECC437E EQ ISZERO JUMPDEST PUSH2 0x1E63 JUMPI PUSH1 0x40 MLOAD PUSH3 0x461BCD PUSH1 0xE5 SHL DUP2 MSTORE PUSH1 0x4 ADD PUSH2 0x758 SWAP1 PUSH2 0x3B89 JUMP JUMPDEST DUP6 PUSH2 0x1E6D DUP2 PUSH2 0x22F5 JUMP JUMPDEST DUP4 PUSH4 0xFFFFFFFF AND DUP1 TIMESTAMP GT ISZERO PUSH2 0x1E94 JUMPI PUSH1 0x40 MLOAD PUSH3 0x461BCD PUSH1 0xE5 SHL DUP2 MSTORE PUSH1 0x4 ADD PUSH2 0x758 SWAP1 PUSH2 0x3B52 JUMP JUMPDEST PUSH2 0x837 DUP9 DUP9 DUP9 PUSH1 0x1 PUSH2 0x2AB7 JUMP JUMPDEST PUSH1 0x4 PUSH1 0x20 MSTORE PUSH32 0x674B36EC14CA1343904F60303CFE142028FE384EDE1BB8216405C2D715EEC2AA SLOAD PUSH20 0xC7A0E9429BBC262D97F3E87BF38A95CAE8B05EDA PUSH1 0x0 SWAP1 DUP2 MSTORE PUSH32 0xD4DAA411513E44C00CBBDBCD7643E3F083AE7772D91F19E35D6B7F63CF386A45 SLOAD PUSH1 0x3 DUP1 SLOAD SWAP3 SWAP4 DUP5 SWAP4 SWAP1 SWAP3 SWAP2 SWAP1 DUP4 SWAP1 DUP2 LT PUSH2 0x1F20 JUMPI PUSH2 0x1F20 PUSH2 0x3A9E JUMP JUMPDEST SWAP1 PUSH1 0x0 MSTORE PUSH1 0x20 PUSH1 0x0 KECCAK256 SWAP1 PUSH1 0x3 MUL ADD PUSH1 0x1 ADD PUSH1 0x0 SWAP1 SLOAD SWAP1 PUSH2 0x100 EXP SWAP1 DIV PUSH1 0x1 PUSH1 0x1 PUSH1 0x70 SHL SUB AND PUSH1 0x1 PUSH1 0x1 PUSH1 0x70 SHL SUB AND PUSH1 0x3 DUP4 DUP2 SLOAD DUP2 LT PUSH2 0x1F61 JUMPI PUSH2 0x1F61 PUSH2 0x3A9E JUMP JUMPDEST PUSH1 0x0 SWAP2 DUP3 MSTORE PUSH1 0x20 SWAP1 SWAP2 KECCAK256 PUSH1 0x3 SWAP1 SWAP2 MUL ADD PUSH1 0x1 ADD SLOAD PUSH2 0x1F97 SWAP1 PUSH1 0x1 PUSH1 0x70 SHL SWAP1 DIV PUSH1 0x1 PUSH1 0x1 PUSH1 0x70 SHL SUB AND PUSH8 0xDE0B6B3A7640000 PUSH2 0x3C17 JUMP JUMPDEST PUSH2 0x1FA1 SWAP2 SWAP1 PUSH2 0x3C4C JUMP JUMPDEST PUSH1 0x3 DUP3 DUP2 SLOAD DUP2 LT PUSH2 0x1FB4 JUMPI PUSH2 0x1FB4 PUSH2 0x3A9E JUMP JUMPDEST SWAP1 PUSH1 0x0 MSTORE PUSH1 0x20 PUSH1 0x0 KECCAK256 SWAP1 PUSH1 0x3 MUL ADD PUSH1 0x1 ADD PUSH1 0x0 SWAP1 SLOAD SWAP1 PUSH2 0x100 EXP SWAP1 DIV PUSH1 0x1 PUSH1 0x1 PUSH1 0x70 SHL SUB AND PUSH1 0x1 PUSH1 0x1 PUSH1 0x70 SHL SUB AND PUSH1 0x3 DUP4 DUP2 SLOAD DUP2 LT PUSH2 0x1FF5 JUMPI PUSH2 0x1FF5 PUSH2 0x3A9E JUMP JUMPDEST PUSH1 0x0 SWAP2 DUP3 MSTORE PUSH1 0x20 SWAP1 SWAP2 KECCAK256 PUSH1 0x3 SWAP1 SWAP2 MUL ADD PUSH1 0x1 ADD SLOAD PUSH2 0x202B SWAP1 PUSH1 0x1 PUSH1 0x70 SHL SWAP1 DIV PUSH1 0x1 PUSH1 0x1 PUSH1 0x70 SHL SUB AND PUSH8 0xDE0B6B3A7640000 PUSH2 0x3C17 JUMP JUMPDEST PUSH2 0x2035 SWAP2 SWAP1 PUSH2 0x3C4C JUMP JUMPDEST SWAP4 POP SWAP4 POP POP POP SWAP1 SWAP2 JUMP JUMPDEST PUSH1 0x0 PUSH2 0x16D5 DUP3 PUSH1 0x3 DUP6 DUP2 SLOAD DUP2 LT PUSH2 0x2058 JUMPI PUSH2 0x2058 PUSH2 0x3A9E JUMP JUMPDEST SWAP1 PUSH1 0x0 MSTORE PUSH1 0x20 PUSH1 0x0 KECCAK256 SWAP1 PUSH1 0x3 MUL ADD PUSH1 0x1 ADD PUSH1 0xE SWAP1 SLOAD SWAP1 PUSH2 0x100 EXP SWAP1 DIV PUSH1 0x1 PUSH1 0x1 PUSH1 0x70 SHL SUB AND PUSH1 0x1 PUSH1 0x1 PUSH1 0x70 SHL SUB AND PUSH1 0x3 DUP7 DUP2 SLOAD DUP2 LT PUSH2 0x2099 JUMPI PUSH2 0x2099 PUSH2 0x3A9E JUMP JUMPDEST PUSH1 0x0 SWAP2 DUP3 MSTORE PUSH1 0x20 SWAP1 SWAP2 KECCAK256 PUSH1 0x1 PUSH1 0x3 SWAP1 SWAP3 MUL ADD ADD SLOAD PUSH1 0x1 PUSH1 0x1 PUSH1 0x70 SHL SUB AND PUSH2 0x1D93 DUP8 PUSH2 0xF44 JUMP JUMPDEST PUSH1 0x0 PUSH1 0x2 DUP1 SLOAD EQ ISZERO PUSH2 0x20E3 JUMPI PUSH1 0x40 MLOAD PUSH3 0x461BCD PUSH1 0xE5 SHL DUP2 MSTORE PUSH1 0x4 ADD PUSH2 0x758 SWAP1 PUSH2 0x3B1B JUMP JUMPDEST PUSH1 0x2 DUP1 SSTORE PUSH4 0xFFFFFFFF DUP3 AND TIMESTAMP DUP2 LT ISZERO PUSH2 0x210E JUMPI PUSH1 0x40 MLOAD PUSH3 0x461BCD PUSH1 0xE5 SHL DUP2 MSTORE PUSH1 0x4 ADD PUSH2 0x758 SWAP1 PUSH2 0x3B52 JUMP JUMPDEST PUSH1 0x1 PUSH1 0x1 PUSH1 0xA0 SHL SUB DUP8 AND PUSH1 0x0 SWAP1 DUP2 MSTORE PUSH1 0x4 PUSH1 0x20 MSTORE PUSH1 0x40 SWAP1 KECCAK256 SLOAD DUP8 SWAP1 ISZERO DUP1 ISZERO SWAP1 PUSH2 0x2154 JUMPI POP PUSH1 0x1 PUSH1 0x1 PUSH1 0xA0 SHL SUB DUP2 AND PUSH20 0xA84D62F776606B9EEBD761E2D31F65442ECC437E EQ ISZERO JUMPDEST PUSH2 0x2170 JUMPI PUSH1 0x40 MLOAD PUSH3 0x461BCD PUSH1 0xE5 SHL DUP2 MSTORE PUSH1 0x4 ADD PUSH2 0x758 SWAP1 PUSH2 0x3B89 JUMP JUMPDEST DUP8 PUSH2 0x217A DUP2 PUSH2 0x22F5 JUMP JUMPDEST PUSH1 0x0 PUSH2 0x2189 DUP11 DUP10 PUSH1 0x0 DUP1 PUSH2 0x23FA JUMP JUMPDEST SWAP1 POP PUSH1 0x0 PUSH2 0x219A DUP11 DUP4 DUP11 PUSH1 0x0 PUSH2 0x2AB7 JUMP JUMPDEST PUSH1 0x1 PUSH1 0x2 SSTORE SWAP12 SWAP11 POP POP POP POP POP POP POP POP POP POP POP JUMP JUMPDEST PUSH2 0x21B8 DUP3 DUP3 PUSH2 0x16DC JUMP JUMPDEST PUSH2 0x76B JUMPI PUSH1 0x0 DUP3 DUP2 MSTORE PUSH1 0x20 DUP2 DUP2 MSTORE PUSH1 0x40 DUP1 DUP4 KECCAK256 PUSH1 0x1 PUSH1 0x1 PUSH1 0xA0 SHL SUB DUP6 AND DUP5 MSTORE SWAP1 SWAP2 MSTORE SWAP1 KECCAK256 DUP1 SLOAD PUSH1 0xFF NOT AND PUSH1 0x1 OR SWAP1 SSTORE PUSH2 0x21EE CALLER SWAP1 JUMP JUMPDEST PUSH1 0x1 PUSH1 0x1 PUSH1 0xA0 SHL SUB AND DUP2 PUSH1 0x1 PUSH1 0x1 PUSH1 0xA0 SHL SUB AND DUP4 PUSH32 0x2F8788117E7EFF1D82E926EC794901D17C78024A50270940304540A733656F0D PUSH1 0x40 MLOAD PUSH1 0x40 MLOAD DUP1 SWAP2 SUB SWAP1 LOG4 POP POP JUMP JUMPDEST PUSH1 0x0 PUSH2 0x16D5 DUP4 PUSH1 0x1 PUSH1 0x1 PUSH1 0xA0 SHL SUB DUP5 AND PUSH2 0x2EC8 JUMP JUMPDEST PUSH2 0x2251 DUP3 DUP3 PUSH2 0x16DC JUMP JUMPDEST PUSH2 0x76B JUMPI PUSH2 0x2269 DUP2 PUSH1 0x1 PUSH1 0x1 PUSH1 0xA0 SHL SUB AND PUSH1 0x14 PUSH2 0x2F17 JUMP JUMPDEST PUSH2 0x2274 DUP4 PUSH1 0x20 PUSH2 0x2F17 JUMP JUMPDEST PUSH1 0x40 MLOAD PUSH1 0x20 ADD PUSH2 0x2285 SWAP3 SWAP2 SWAP1 PUSH2 0x3D8B JUMP JUMPDEST PUSH1 0x40 DUP1 MLOAD PUSH1 0x1F NOT DUP2 DUP5 SUB ADD DUP2 MSTORE SWAP1 DUP3 SWAP1 MSTORE PUSH3 0x461BCD PUSH1 0xE5 SHL DUP3 MSTORE PUSH2 0x758 SWAP2 PUSH1 0x4 ADD PUSH2 0x3E00 JUMP JUMPDEST PUSH2 0x76B DUP3 DUP3 JUMPDEST PUSH2 0x22BB DUP3 DUP3 PUSH2 0x21AE JUMP JUMPDEST PUSH1 0x0 DUP3 DUP2 MSTORE PUSH1 0x1 PUSH1 0x20 MSTORE PUSH1 0x40 SWAP1 KECCAK256 PUSH2 0x6E7 SWAP1 DUP3 PUSH2 0x2232 JUMP JUMPDEST PUSH2 0x22DD DUP3 DUP3 PUSH2 0x30B3 JUMP JUMPDEST PUSH1 0x0 DUP3 DUP2 MSTORE PUSH1 0x1 PUSH1 0x20 MSTORE PUSH1 0x40 SWAP1 KECCAK256 PUSH2 0x6E7 SWAP1 DUP3 PUSH2 0x3118 JUMP JUMPDEST PUSH1 0x1 PUSH1 0x1 PUSH1 0xA0 SHL SUB DUP2 AND PUSH1 0x0 DUP2 DUP2 MSTORE PUSH1 0x4 PUSH1 0x20 DUP2 SWAP1 MSTORE PUSH1 0x40 DUP1 DUP4 KECCAK256 SLOAD SWAP1 MLOAD PUSH4 0x70A08231 PUSH1 0xE0 SHL DUP2 MSTORE ADDRESS SWAP3 DUP2 ADD SWAP3 SWAP1 SWAP3 MSTORE SWAP3 SWAP1 PUSH4 0x70A08231 SWAP1 PUSH1 0x24 ADD PUSH1 0x20 PUSH1 0x40 MLOAD DUP1 DUP4 SUB DUP2 DUP7 GAS STATICCALL ISZERO DUP1 ISZERO PUSH2 0x234D JUMPI RETURNDATASIZE PUSH1 0x0 DUP1 RETURNDATACOPY RETURNDATASIZE PUSH1 0x0 REVERT JUMPDEST POP POP POP POP PUSH1 0x40 MLOAD RETURNDATASIZE PUSH1 0x1F NOT PUSH1 0x1F DUP3 ADD AND DUP3 ADD DUP1 PUSH1 0x40 MSTORE POP DUP2 ADD SWAP1 PUSH2 0x2371 SWAP2 SWAP1 PUSH2 0x3B02 JUMP JUMPDEST SWAP1 POP PUSH1 0x3 DUP3 DUP2 SLOAD DUP2 LT PUSH2 0x2386 JUMPI PUSH2 0x2386 PUSH2 0x3A9E JUMP JUMPDEST PUSH1 0x0 SWAP2 DUP3 MSTORE PUSH1 0x20 SWAP1 SWAP2 KECCAK256 PUSH1 0x1 PUSH1 0x3 SWAP1 SWAP3 MUL ADD ADD SLOAD PUSH1 0x1 PUSH1 0x1 PUSH1 0x70 SHL SUB DUP3 DUP2 AND SWAP2 AND EQ PUSH2 0x6E7 JUMPI DUP1 PUSH1 0x3 DUP4 DUP2 SLOAD DUP2 LT PUSH2 0x23C0 JUMPI PUSH2 0x23C0 PUSH2 0x3A9E JUMP JUMPDEST SWAP1 PUSH1 0x0 MSTORE PUSH1 0x20 PUSH1 0x0 KECCAK256 SWAP1 PUSH1 0x3 MUL ADD PUSH1 0x1 ADD PUSH1 0x0 PUSH2 0x100 EXP DUP2 SLOAD DUP2 PUSH1 0x1 PUSH1 0x1 PUSH1 0x70 SHL SUB MUL NOT AND SWAP1 DUP4 PUSH1 0x1 PUSH1 0x1 PUSH1 0x70 SHL SUB AND MUL OR SWAP1 SSTORE POP POP POP POP JUMP JUMPDEST PUSH1 0x40 MLOAD PUSH4 0x70A08231 PUSH1 0xE0 SHL DUP2 MSTORE ADDRESS PUSH1 0x4 DUP3 ADD MSTORE PUSH1 0x0 SWAP1 DUP6 SWAP1 PUSH1 0x1 PUSH1 0x1 PUSH1 0x70 SHL SUB DUP7 AND SWAP1 DUP4 SWAP1 PUSH1 0x1 PUSH1 0x1 PUSH1 0xA0 SHL SUB DUP5 AND SWAP1 PUSH4 0x70A08231 SWAP1 PUSH1 0x24 ADD PUSH1 0x20 PUSH1 0x40 MLOAD DUP1 DUP4 SUB DUP2 DUP7 GAS STATICCALL ISZERO DUP1 ISZERO PUSH2 0x2450 JUMPI RETURNDATASIZE PUSH1 0x0 DUP1 RETURNDATACOPY RETURNDATASIZE PUSH1 0x0 REVERT JUMPDEST POP POP POP POP PUSH1 0x40 MLOAD RETURNDATASIZE PUSH1 0x1F NOT PUSH1 0x1F DUP3 ADD AND DUP3 ADD DUP1 PUSH1 0x40 MSTORE POP DUP2 ADD SWAP1 PUSH2 0x2474 SWAP2 SWAP1 PUSH2 0x3B02 JUMP JUMPDEST SWAP1 POP PUSH2 0x248B PUSH1 0x1 PUSH1 0x1 PUSH1 0xA0 SHL SUB DUP5 AND CALLER ADDRESS DUP6 PUSH2 0x2996 JUMP JUMPDEST PUSH1 0x40 MLOAD PUSH4 0x70A08231 PUSH1 0xE0 SHL DUP2 MSTORE ADDRESS PUSH1 0x4 DUP3 ADD MSTORE PUSH1 0x0 SWAP1 PUSH1 0x1 PUSH1 0x1 PUSH1 0xA0 SHL SUB DUP6 AND SWAP1 PUSH4 0x70A08231 SWAP1 PUSH1 0x24 ADD PUSH1 0x20 PUSH1 0x40 MLOAD DUP1 DUP4 SUB DUP2 DUP7 GAS STATICCALL ISZERO DUP1 ISZERO PUSH2 0x24D2 JUMPI RETURNDATASIZE PUSH1 0x0 DUP1 RETURNDATACOPY RETURNDATASIZE PUSH1 0x0 REVERT JUMPDEST POP POP POP POP PUSH1 0x40 MLOAD RETURNDATASIZE PUSH1 0x1F NOT PUSH1 0x1F DUP3 ADD AND DUP3 ADD DUP1 PUSH1 0x40 MSTORE POP DUP2 ADD SWAP1 PUSH2 0x24F6 SWAP2 SWAP1 PUSH2 0x3B02 JUMP JUMPDEST SWAP1 POP PUSH2 0x2502 DUP4 DUP4 PUSH2 0x3BB3 JUMP JUMPDEST DUP2 LT ISZERO PUSH2 0x2521 JUMPI PUSH1 0x40 MLOAD PUSH3 0x461BCD PUSH1 0xE5 SHL DUP2 MSTORE PUSH1 0x4 ADD PUSH2 0x758 SWAP1 PUSH2 0x3BCB JUMP JUMPDEST PUSH1 0x1 PUSH1 0x1 PUSH1 0xA0 SHL SUB DUP10 AND PUSH1 0x0 SWAP1 DUP2 MSTORE PUSH1 0x4 PUSH1 0x20 MSTORE PUSH1 0x40 DUP2 KECCAK256 SLOAD PUSH1 0x3 DUP1 SLOAD SWAP2 SWAP3 SWAP2 DUP4 SWAP1 DUP2 LT PUSH2 0x2551 JUMPI PUSH2 0x2551 PUSH2 0x3A9E JUMP JUMPDEST PUSH1 0x0 SWAP2 DUP3 MSTORE PUSH1 0x20 SWAP1 SWAP2 KECCAK256 PUSH1 0x3 SWAP1 SWAP2 MUL ADD PUSH1 0x1 ADD SLOAD PUSH1 0x40 MLOAD PUSH4 0x70A08231 PUSH1 0xE0 SHL DUP2 MSTORE ADDRESS PUSH1 0x4 DUP3 ADD MSTORE PUSH1 0x1 PUSH1 0x1 PUSH1 0x70 SHL SUB SWAP1 SWAP2 AND SWAP1 PUSH1 0x1 PUSH1 0x1 PUSH1 0xA0 SHL SUB DUP14 AND SWAP1 PUSH4 0x70A08231 SWAP1 PUSH1 0x24 ADD PUSH1 0x20 PUSH1 0x40 MLOAD DUP1 DUP4 SUB DUP2 DUP7 GAS STATICCALL ISZERO DUP1 ISZERO PUSH2 0x25B5 JUMPI RETURNDATASIZE PUSH1 0x0 DUP1 RETURNDATACOPY RETURNDATASIZE PUSH1 0x0 REVERT JUMPDEST POP POP POP POP PUSH1 0x40 MLOAD RETURNDATASIZE PUSH1 0x1F NOT PUSH1 0x1F DUP3 ADD AND DUP3 ADD DUP1 PUSH1 0x40 MSTORE POP DUP2 ADD SWAP1 PUSH2 0x25D9 SWAP2 SWAP1 PUSH2 0x3B02 JUMP JUMPDEST PUSH2 0x25E3 SWAP2 SWAP1 PUSH2 0x3D37 JUMP JUMPDEST SWAP1 POP PUSH1 0x0 PUSH2 0x25FA DUP4 DUP4 PUSH1 0x1 PUSH1 0x1 PUSH1 0x70 SHL SUB AND PUSH2 0x1D0C JUMP JUMPDEST SWAP1 POP DUP10 PUSH1 0x1 PUSH1 0x1 PUSH1 0x70 SHL SUB AND DUP2 PUSH1 0x1 PUSH1 0x1 PUSH1 0x70 SHL SUB AND LT ISZERO PUSH2 0x262E JUMPI PUSH1 0x40 MLOAD PUSH3 0x461BCD PUSH1 0xE5 SHL DUP2 MSTORE PUSH1 0x4 ADD PUSH2 0x758 SWAP1 PUSH2 0x3E33 JUMP JUMPDEST PUSH1 0x0 PUSH1 0x3 DUP5 DUP2 SLOAD DUP2 LT PUSH2 0x2643 JUMPI PUSH2 0x2643 PUSH2 0x3A9E JUMP JUMPDEST SWAP1 PUSH1 0x0 MSTORE PUSH1 0x20 PUSH1 0x0 KECCAK256 SWAP1 PUSH1 0x3 MUL ADD PUSH1 0x1 ADD PUSH1 0xE SWAP1 SLOAD SWAP1 PUSH2 0x100 EXP SWAP1 DIV PUSH1 0x1 PUSH1 0x1 PUSH1 0x70 SHL SUB AND PUSH1 0x1 PUSH1 0x1 PUSH1 0x70 SHL SUB AND PUSH1 0x3 DUP6 DUP2 SLOAD DUP2 LT PUSH2 0x2684 JUMPI PUSH2 0x2684 PUSH2 0x3A9E JUMP JUMPDEST PUSH1 0x0 SWAP2 DUP3 MSTORE PUSH1 0x20 SWAP1 SWAP2 KECCAK256 PUSH1 0x1 PUSH1 0x3 SWAP1 SWAP3 MUL ADD ADD SLOAD PUSH2 0x26AB SWAP2 SWAP1 PUSH1 0x1 PUSH1 0x1 PUSH1 0x70 SHL SUB AND PUSH2 0x3C17 JUMP JUMPDEST SWAP1 POP PUSH1 0x0 PUSH2 0x26B7 PUSH2 0x170E JUMP JUMPDEST SWAP1 POP PUSH1 0x0 PUSH1 0x8 PUSH2 0x26C8 DUP4 PUSH1 0x1 PUSH2 0x3BB3 JUMP JUMPDEST PUSH2 0x26D2 SWAP2 SWAP1 PUSH2 0x3CDD JUMP JUMPDEST SWAP1 POP DUP4 PUSH1 0x3 DUP8 DUP2 SLOAD DUP2 LT PUSH2 0x26E8 JUMPI PUSH2 0x26E8 PUSH2 0x3A9E JUMP JUMPDEST SWAP1 PUSH1 0x0 MSTORE PUSH1 0x20 PUSH1 0x0 KECCAK256 SWAP1 PUSH1 0x3 MUL ADD PUSH1 0x1 ADD PUSH1 0xE DUP3 DUP3 DUP3 SWAP1 SLOAD SWAP1 PUSH2 0x100 EXP SWAP1 DIV PUSH1 0x1 PUSH1 0x1 PUSH1 0x70 SHL SUB AND PUSH2 0x271A SWAP2 SWAP1 PUSH2 0x3D37 JUMP JUMPDEST SWAP3 POP PUSH2 0x100 EXP DUP2 SLOAD DUP2 PUSH1 0x1 PUSH1 0x1 PUSH1 0x70 SHL SUB MUL NOT AND SWAP1 DUP4 PUSH1 0x1 PUSH1 0x1 PUSH1 0x70 SHL SUB AND MUL OR SWAP1 SSTORE POP DUP14 PUSH1 0x3 DUP8 DUP2 SLOAD DUP2 LT PUSH2 0x2752 JUMPI PUSH2 0x2752 PUSH2 0x3A9E JUMP JUMPDEST PUSH1 0x0 SWAP2 DUP3 MSTORE PUSH1 0x20 DUP3 KECCAK256 PUSH1 0x1 PUSH1 0x3 SWAP1 SWAP3 MUL ADD ADD DUP1 SLOAD SWAP1 SWAP2 SWAP1 PUSH2 0x277D SWAP1 DUP5 SWAP1 PUSH1 0x1 PUSH1 0x1 PUSH1 0x70 SHL SUB AND PUSH2 0x3CB2 JUMP JUMPDEST SWAP3 POP PUSH2 0x100 EXP DUP2 SLOAD DUP2 PUSH1 0x1 PUSH1 0x1 PUSH1 0x70 SHL SUB MUL NOT AND SWAP1 DUP4 PUSH1 0x1 PUSH1 0x1 PUSH1 0x70 SHL SUB AND MUL OR SWAP1 SSTORE POP PUSH8 0xDE0B6B3A7640000 DUP5 PUSH1 0x1 PUSH1 0x1 PUSH1 0x70 SHL SUB AND DUP2 PUSH2 0x27C1 JUMPI PUSH2 0x27C1 PUSH2 0x3C36 JUMP JUMPDEST DIV PUSH1 0x3 DUP8 DUP2 SLOAD DUP2 LT PUSH2 0x27D5 JUMPI PUSH2 0x27D5 PUSH2 0x3A9E JUMP JUMPDEST SWAP1 PUSH1 0x0 MSTORE PUSH1 0x20 PUSH1 0x0 KECCAK256 SWAP1 PUSH1 0x3 MUL ADD PUSH1 0x2 ADD DUP4 PUSH1 0x8 DUP2 LT PUSH2 0x27F7 JUMPI PUSH2 0x27F7 PUSH2 0x3A9E JUMP JUMPDEST PUSH1 0x8 SWAP2 DUP3 DUP3 DIV ADD SWAP2 SWAP1 MOD PUSH1 0x4 MUL DUP3 DUP3 DUP3 SWAP1 SLOAD SWAP1 PUSH2 0x100 EXP SWAP1 DIV PUSH4 0xFFFFFFFF AND ADD SWAP3 POP PUSH2 0x100 EXP DUP2 SLOAD DUP2 PUSH4 0xFFFFFFFF MUL NOT AND SWAP1 DUP4 PUSH4 0xFFFFFFFF AND MUL OR SWAP1 SSTORE POP PUSH1 0x0 PUSH1 0x3 DUP8 DUP2 SLOAD DUP2 LT PUSH2 0x284A JUMPI PUSH2 0x284A PUSH2 0x3A9E JUMP JUMPDEST SWAP1 PUSH1 0x0 MSTORE PUSH1 0x20 PUSH1 0x0 KECCAK256 SWAP1 PUSH1 0x3 MUL ADD PUSH1 0x2 ADD DUP3 PUSH1 0x8 DUP2 LT PUSH2 0x286C JUMPI PUSH2 0x286C PUSH2 0x3A9E JUMP JUMPDEST PUSH1 0x8 SWAP2 DUP3 DUP3 DIV ADD SWAP2 SWAP1 MOD PUSH1 0x4 MUL SWAP1 SLOAD SWAP1 PUSH2 0x100 EXP SWAP1 DIV PUSH4 0xFFFFFFFF AND PUSH4 0xFFFFFFFF AND GT ISZERO PUSH2 0x28F5 JUMPI PUSH1 0x0 PUSH1 0x3 DUP8 DUP2 SLOAD DUP2 LT PUSH2 0x28A9 JUMPI PUSH2 0x28A9 PUSH2 0x3A9E JUMP JUMPDEST SWAP1 PUSH1 0x0 MSTORE PUSH1 0x20 PUSH1 0x0 KECCAK256 SWAP1 PUSH1 0x3 MUL ADD PUSH1 0x2 ADD DUP3 PUSH1 0x8 DUP2 LT PUSH2 0x28CB JUMPI PUSH2 0x28CB PUSH2 0x3A9E JUMP JUMPDEST PUSH1 0x8 SWAP2 DUP3 DUP3 DIV ADD SWAP2 SWAP1 MOD PUSH1 0x4 MUL PUSH2 0x100 EXP DUP2 SLOAD DUP2 PUSH4 0xFFFFFFFF MUL NOT AND SWAP1 DUP4 PUSH4 0xFFFFFFFF AND MUL OR SWAP1 SSTORE POP JUMPDEST POP POP DUP10 ISZERO PUSH2 0x297B JUMPI PUSH1 0x40 MLOAD PUSH4 0xA9059CBB PUSH1 0xE0 SHL DUP2 MSTORE PUSH20 0xA84D62F776606B9EEBD761E2D31F65442ECC437E SWAP1 PUSH4 0xA9059CBB SWAP1 PUSH2 0x2936 SWAP1 CALLER SWAP1 DUP7 SWAP1 PUSH1 0x4 ADD PUSH2 0x3C60 JUMP JUMPDEST PUSH1 0x20 PUSH1 0x40 MLOAD DUP1 DUP4 SUB DUP2 PUSH1 0x0 DUP8 GAS CALL ISZERO DUP1 ISZERO PUSH2 0x2955 JUMPI RETURNDATASIZE PUSH1 0x0 DUP1 RETURNDATACOPY RETURNDATASIZE PUSH1 0x0 REVERT JUMPDEST POP POP POP POP PUSH1 0x40 MLOAD RETURNDATASIZE PUSH1 0x1F NOT PUSH1 0x1F DUP3 ADD AND DUP3 ADD DUP1 PUSH1 0x40 MSTORE POP DUP2 ADD SWAP1 PUSH2 0x2979 SWAP2 SWAP1 PUSH2 0x3E81 JUMP JUMPDEST POP JUMPDEST PUSH2 0x2986 DUP5 DUP15 DUP4 PUSH2 0x312D JUMP JUMPDEST POP SWAP12 SWAP11 POP POP POP POP POP POP POP POP POP POP POP JUMP JUMPDEST PUSH1 0x40 MLOAD PUSH1 0x1 PUSH1 0x1 PUSH1 0xA0 SHL SUB DUP1 DUP6 AND PUSH1 0x24 DUP4 ADD MSTORE DUP4 AND PUSH1 0x44 DUP3 ADD MSTORE PUSH1 0x64 DUP2 ADD DUP3 SWAP1 MSTORE PUSH2 0x4D3 SWAP1 DUP6 SWAP1 PUSH4 0x23B872DD PUSH1 0xE0 SHL SWAP1 PUSH1 0x84 ADD JUMPDEST PUSH1 0x40 DUP1 MLOAD PUSH1 0x1F NOT DUP2 DUP5 SUB ADD DUP2 MSTORE SWAP2 SWAP1 MSTORE PUSH1 0x20 DUP2 ADD DUP1 MLOAD PUSH1 0x1 PUSH1 0x1 PUSH1 0xE0 SHL SUB AND PUSH1 0x1 PUSH1 0x1 PUSH1 0xE0 SHL SUB NOT SWAP1 SWAP4 AND SWAP3 SWAP1 SWAP3 OR SWAP1 SWAP2 MSTORE PUSH2 0x32B6 JUMP JUMPDEST PUSH1 0x0 PUSH2 0x16D5 DUP4 DUP4 PUSH2 0x3388 JUMP JUMPDEST PUSH1 0x0 DUP1 PUSH1 0x2 PUSH2 0x2A1D DUP5 PUSH1 0x1 PUSH2 0x3BB3 JUMP JUMPDEST PUSH2 0x2A27 SWAP2 SWAP1 PUSH2 0x3C4C JUMP JUMPDEST SWAP1 POP DUP3 SWAP2 POP JUMPDEST DUP2 DUP2 LT ISZERO PUSH2 0x2A60 JUMPI SWAP1 POP DUP1 PUSH1 0x2 DUP2 PUSH2 0x2A45 DUP2 DUP7 PUSH2 0x3C4C JUMP JUMPDEST PUSH2 0x2A4F SWAP2 SWAP1 PUSH2 0x3BB3 JUMP JUMPDEST PUSH2 0x2A59 SWAP2 SWAP1 PUSH2 0x3C4C JUMP JUMPDEST SWAP1 POP PUSH2 0x2A2D JUMP JUMPDEST POP SWAP2 SWAP1 POP JUMP JUMPDEST PUSH1 0x0 PUSH2 0x550 DUP3 SLOAD SWAP1 JUMP JUMPDEST PUSH1 0x0 DUP1 PUSH2 0x2A7D DUP4 DUP8 PUSH2 0x3C17 JUMP JUMPDEST SWAP1 POP PUSH1 0x0 DUP2 PUSH2 0x2A8E PUSH2 0x2710 DUP9 PUSH2 0x3C17 JUMP JUMPDEST PUSH2 0x2A98 SWAP2 SWAP1 PUSH2 0x3BB3 JUMP JUMPDEST PUSH2 0x2AA2 DUP4 DUP8 PUSH2 0x3C17 JUMP JUMPDEST PUSH2 0x2AAC SWAP2 SWAP1 PUSH2 0x3C4C JUMP JUMPDEST SWAP8 SWAP7 POP POP POP POP POP POP POP JUMP JUMPDEST PUSH1 0x0 DUP2 ISZERO PUSH2 0x2B4B JUMPI PUSH1 0x40 MLOAD PUSH4 0x23B872DD PUSH1 0xE0 SHL DUP2 MSTORE CALLER PUSH1 0x4 DUP3 ADD MSTORE ADDRESS PUSH1 0x24 DUP3 ADD MSTORE PUSH1 0x1 PUSH1 0x1 PUSH1 0x70 SHL SUB DUP6 AND PUSH1 0x44 DUP3 ADD MSTORE PUSH20 0xA84D62F776606B9EEBD761E2D31F65442ECC437E SWAP1 PUSH4 0x23B872DD SWAP1 PUSH1 0x64 ADD PUSH1 0x20 PUSH1 0x40 MLOAD DUP1 DUP4 SUB DUP2 PUSH1 0x0 DUP8 GAS CALL ISZERO DUP1 ISZERO PUSH2 0x2B25 JUMPI RETURNDATASIZE PUSH1 0x0 DUP1 RETURNDATACOPY RETURNDATASIZE PUSH1 0x0 REVERT JUMPDEST POP POP POP POP PUSH1 0x40 MLOAD RETURNDATASIZE PUSH1 0x1F NOT PUSH1 0x1F DUP3 ADD AND DUP3 ADD DUP1 PUSH1 0x40 MSTORE POP DUP2 ADD SWAP1 PUSH2 0x2B49 SWAP2 SWAP1 PUSH2 0x3E81 JUMP JUMPDEST POP JUMPDEST PUSH1 0x1 PUSH1 0x1 PUSH1 0xA0 SHL SUB DUP6 AND PUSH1 0x0 SWAP1 DUP2 MSTORE PUSH1 0x4 PUSH1 0x20 MSTORE PUSH1 0x40 DUP2 KECCAK256 SLOAD SWAP1 PUSH2 0x2B78 DUP3 PUSH1 0x1 PUSH1 0x1 PUSH1 0x70 SHL SUB DUP9 AND PUSH2 0x203F JUMP JUMPDEST SWAP1 POP DUP5 PUSH1 0x1 PUSH1 0x1 PUSH1 0x70 SHL SUB AND DUP2 PUSH1 0x1 PUSH1 0x1 PUSH1 0x70 SHL SUB AND LT ISZERO PUSH2 0x2BAC JUMPI PUSH1 0x40 MLOAD PUSH3 0x461BCD PUSH1 0xE5 SHL DUP2 MSTORE PUSH1 0x4 ADD PUSH2 0x758 SWAP1 PUSH2 0x3E33 JUMP JUMPDEST PUSH1 0x0 PUSH2 0x2BB6 PUSH2 0x170E JUMP JUMPDEST SWAP1 POP PUSH1 0x0 PUSH1 0x3 DUP5 DUP2 SLOAD DUP2 LT PUSH2 0x2BCD JUMPI PUSH2 0x2BCD PUSH2 0x3A9E JUMP JUMPDEST POP PUSH1 0x0 MSTORE PUSH1 0x8 PUSH2 0x2BDB PUSH2 0x170E JUMP JUMPDEST PUSH2 0x2BE6 SWAP1 PUSH1 0x1 PUSH2 0x3BB3 JUMP JUMPDEST PUSH2 0x2BF0 SWAP2 SWAP1 PUSH2 0x3CDD JUMP JUMPDEST SWAP1 POP PUSH1 0x0 PUSH1 0x3 DUP6 DUP2 SLOAD DUP2 LT PUSH2 0x2C07 JUMPI PUSH2 0x2C07 PUSH2 0x3A9E JUMP JUMPDEST SWAP1 PUSH1 0x0 MSTORE PUSH1 0x20 PUSH1 0x0 KECCAK256 SWAP1 PUSH1 0x3 MUL ADD PUSH1 0x1 ADD PUSH1 0xE SWAP1 SLOAD SWAP1 PUSH2 0x100 EXP SWAP1 DIV PUSH1 0x1 PUSH1 0x1 PUSH1 0x70 SHL SUB AND PUSH1 0x1 PUSH1 0x1 PUSH1 0x70 SHL SUB AND PUSH1 0x3 DUP7 DUP2 SLOAD DUP2 LT PUSH2 0x2C48 JUMPI PUSH2 0x2C48 PUSH2 0x3A9E JUMP JUMPDEST PUSH1 0x0 SWAP2 DUP3 MSTORE PUSH1 0x20 SWAP1 SWAP2 KECCAK256 PUSH1 0x1 PUSH1 0x3 SWAP1 SWAP3 MUL ADD ADD SLOAD PUSH2 0x2C6F SWAP2 SWAP1 PUSH1 0x1 PUSH1 0x1 PUSH1 0x70 SHL SUB AND PUSH2 0x3C17 JUMP JUMPDEST SWAP1 POP DUP9 PUSH1 0x3 DUP7 DUP2 SLOAD DUP2 LT PUSH2 0x2C85 JUMPI PUSH2 0x2C85 PUSH2 0x3A9E JUMP JUMPDEST SWAP1 PUSH1 0x0 MSTORE PUSH1 0x20 PUSH1 0x0 KECCAK256 SWAP1 PUSH1 0x3 MUL ADD PUSH1 0x1 ADD PUSH1 0xE DUP3 DUP3 DUP3 SWAP1 SLOAD SWAP1 PUSH2 0x100 EXP SWAP1 DIV PUSH1 0x1 PUSH1 0x1 PUSH1 0x70 SHL SUB AND PUSH2 0x2CB7 SWAP2 SWAP1 PUSH2 0x3CB2 JUMP JUMPDEST SWAP3 POP PUSH2 0x100 EXP DUP2 SLOAD DUP2 PUSH1 0x1 PUSH1 0x1 PUSH1 0x70 SHL SUB MUL NOT AND SWAP1 DUP4 PUSH1 0x1 PUSH1 0x1 PUSH1 0x70 SHL SUB AND MUL OR SWAP1 SSTORE POP DUP4 PUSH1 0x3 DUP7 DUP2 SLOAD DUP2 LT PUSH2 0x2CEF JUMPI PUSH2 0x2CEF PUSH2 0x3A9E JUMP JUMPDEST PUSH1 0x0 SWAP2 DUP3 MSTORE PUSH1 0x20 DUP3 KECCAK256 PUSH1 0x1 PUSH1 0x3 SWAP1 SWAP3 MUL ADD ADD DUP1 SLOAD SWAP1 SWAP2 SWAP1 PUSH2 0x2D1A SWAP1 DUP5 SWAP1 PUSH1 0x1 PUSH1 0x1 PUSH1 0x70 SHL SUB AND PUSH2 0x3D37 JUMP JUMPDEST SWAP3 POP PUSH2 0x100 EXP DUP2 SLOAD DUP2 PUSH1 0x1 PUSH1 0x1 PUSH1 0x70 SHL SUB MUL NOT AND SWAP1 DUP4 PUSH1 0x1 PUSH1 0x1 PUSH1 0x70 SHL SUB AND MUL OR SWAP1 SSTORE POP PUSH8 0xDE0B6B3A7640000 DUP10 PUSH1 0x1 PUSH1 0x1 PUSH1 0x70 SHL SUB AND DUP2 PUSH2 0x2D5E JUMPI PUSH2 0x2D5E PUSH2 0x3C36 JUMP JUMPDEST DIV PUSH1 0x3 DUP7 DUP2 SLOAD DUP2 LT PUSH2 0x2D72 JUMPI PUSH2 0x2D72 PUSH2 0x3A9E JUMP JUMPDEST SWAP1 PUSH1 0x0 MSTORE PUSH1 0x20 PUSH1 0x0 KECCAK256 SWAP1 PUSH1 0x3 MUL ADD PUSH1 0x2 ADD DUP5 PUSH1 0x8 DUP2 LT PUSH2 0x2D94 JUMPI PUSH2 0x2D94 PUSH2 0x3A9E JUMP JUMPDEST PUSH1 0x8 SWAP2 DUP3 DUP3 DIV ADD SWAP2 SWAP1 MOD PUSH1 0x4 MUL DUP3 DUP3 DUP3 SWAP1 SLOAD SWAP1 PUSH2 0x100 EXP SWAP1 DIV PUSH4 0xFFFFFFFF AND ADD SWAP3 POP PUSH2 0x100 EXP DUP2 SLOAD DUP2 PUSH4 0xFFFFFFFF MUL NOT AND SWAP1 DUP4 PUSH4 0xFFFFFFFF AND MUL OR SWAP1 SSTORE POP PUSH1 0x0 PUSH1 0x3 DUP7 DUP2 SLOAD DUP2 LT PUSH2 0x2DE7 JUMPI PUSH2 0x2DE7 PUSH2 0x3A9E JUMP JUMPDEST SWAP1 PUSH1 0x0 MSTORE PUSH1 0x20 PUSH1 0x0 KECCAK256 SWAP1 PUSH1 0x3 MUL ADD PUSH1 0x2 ADD DUP4 PUSH1 0x8 DUP2 LT PUSH2 0x2E09 JUMPI PUSH2 0x2E09 PUSH2 0x3A9E JUMP JUMPDEST PUSH1 0x8 SWAP2 DUP3 DUP3 DIV ADD SWAP2 SWAP1 MOD PUSH1 0x4 MUL SWAP1 SLOAD SWAP1 PUSH2 0x100 EXP SWAP1 DIV PUSH4 0xFFFFFFFF AND PUSH4 0xFFFFFFFF AND GT ISZERO PUSH2 0x2E92 JUMPI PUSH1 0x0 PUSH1 0x3 DUP7 DUP2 SLOAD DUP2 LT PUSH2 0x2E46 JUMPI PUSH2 0x2E46 PUSH2 0x3A9E JUMP JUMPDEST SWAP1 PUSH1 0x0 MSTORE PUSH1 0x20 PUSH1 0x0 KECCAK256 SWAP1 PUSH1 0x3 MUL ADD PUSH1 0x2 ADD DUP4 PUSH1 0x8 DUP2 LT PUSH2 0x2E68 JUMPI PUSH2 0x2E68 PUSH2 0x3A9E JUMP JUMPDEST PUSH1 0x8 SWAP2 DUP3 DUP3 DIV ADD SWAP2 SWAP1 MOD PUSH1 0x4 MUL PUSH2 0x100 EXP DUP2 SLOAD DUP2 PUSH4 0xFFFFFFFF MUL NOT AND SWAP1 DUP4 PUSH4 0xFFFFFFFF AND MUL OR SWAP1 SSTORE POP JUMPDEST PUSH2 0x2EAF PUSH1 0x1 PUSH1 0x1 PUSH1 0xA0 SHL SUB DUP12 AND CALLER PUSH1 0x1 PUSH1 0x1 PUSH1 0x70 SHL SUB DUP8 AND PUSH2 0x33B2 JUMP JUMPDEST PUSH2 0x2EBA DUP6 DUP12 DUP4 PUSH2 0x312D JUMP JUMPDEST POP SWAP2 SWAP9 SWAP8 POP POP POP POP POP POP POP POP JUMP JUMPDEST PUSH1 0x0 DUP2 DUP2 MSTORE PUSH1 0x1 DUP4 ADD PUSH1 0x20 MSTORE PUSH1 0x40 DUP2 KECCAK256 SLOAD PUSH2 0x2F0F JUMPI POP DUP2 SLOAD PUSH1 0x1 DUP2 DUP2 ADD DUP5 SSTORE PUSH1 0x0 DUP5 DUP2 MSTORE PUSH1 0x20 DUP1 DUP3 KECCAK256 SWAP1 SWAP4 ADD DUP5 SWAP1 SSTORE DUP5 SLOAD DUP5 DUP3 MSTORE DUP3 DUP7 ADD SWAP1 SWAP4 MSTORE PUSH1 0x40 SWAP1 KECCAK256 SWAP2 SWAP1 SWAP2 SSTORE PUSH2 0x550 JUMP JUMPDEST POP PUSH1 0x0 PUSH2 0x550 JUMP JUMPDEST PUSH1 0x60 PUSH1 0x0 PUSH2 0x2F26 DUP4 PUSH1 0x2 PUSH2 0x3C17 JUMP JUMPDEST PUSH2 0x2F31 SWAP1 PUSH1 0x2 PUSH2 0x3BB3 JUMP JUMPDEST PUSH8 0xFFFFFFFFFFFFFFFF DUP2 GT ISZERO PUSH2 0x2F49 JUMPI PUSH2 0x2F49 PUSH2 0x3EA3 JUMP JUMPDEST PUSH1 0x40 MLOAD SWAP1 DUP1 DUP3 MSTORE DUP1 PUSH1 0x1F ADD PUSH1 0x1F NOT AND PUSH1 0x20 ADD DUP3 ADD PUSH1 0x40 MSTORE DUP1 ISZERO PUSH2 0x2F73 JUMPI PUSH1 0x20 DUP3 ADD DUP2 DUP1 CALLDATASIZE DUP4 CALLDATACOPY ADD SWAP1 POP JUMPDEST POP SWAP1 POP PUSH1 0x3 PUSH1 0xFC SHL DUP2 PUSH1 0x0 DUP2 MLOAD DUP2 LT PUSH2 0x2F8E JUMPI PUSH2 0x2F8E PUSH2 0x3A9E JUMP JUMPDEST PUSH1 0x20 ADD ADD SWAP1 PUSH1 0x1 PUSH1 0x1 PUSH1 0xF8 SHL SUB NOT AND SWAP1 DUP2 PUSH1 0x0 BYTE SWAP1 MSTORE8 POP PUSH1 0xF PUSH1 0xFB SHL DUP2 PUSH1 0x1 DUP2 MLOAD DUP2 LT PUSH2 0x2FBD JUMPI PUSH2 0x2FBD PUSH2 0x3A9E JUMP JUMPDEST PUSH1 0x20 ADD ADD SWAP1 PUSH1 0x1 PUSH1 0x1 PUSH1 0xF8 SHL SUB NOT AND SWAP1 DUP2 PUSH1 0x0 BYTE SWAP1 MSTORE8 POP PUSH1 0x0 PUSH2 0x2FE1 DUP5 PUSH1 0x2 PUSH2 0x3C17 JUMP JUMPDEST PUSH2 0x2FEC SWAP1 PUSH1 0x1 PUSH2 0x3BB3 JUMP JUMPDEST SWAP1 POP JUMPDEST PUSH1 0x1 DUP2 GT ISZERO PUSH2 0x3064 JUMPI PUSH16 0x181899199A1A9B1B9C1CB0B131B232B3 PUSH1 0x81 SHL DUP6 PUSH1 0xF AND PUSH1 0x10 DUP2 LT PUSH2 0x3020 JUMPI PUSH2 0x3020 PUSH2 0x3A9E JUMP JUMPDEST BYTE PUSH1 0xF8 SHL DUP3 DUP3 DUP2 MLOAD DUP2 LT PUSH2 0x3036 JUMPI PUSH2 0x3036 PUSH2 0x3A9E JUMP JUMPDEST PUSH1 0x20 ADD ADD SWAP1 PUSH1 0x1 PUSH1 0x1 PUSH1 0xF8 SHL SUB NOT AND SWAP1 DUP2 PUSH1 0x0 BYTE SWAP1 MSTORE8 POP PUSH1 0x4 SWAP5 SWAP1 SWAP5 SHR SWAP4 PUSH2 0x305D DUP2 PUSH2 0x3EB9 JUMP JUMPDEST SWAP1 POP PUSH2 0x2FEF JUMP JUMPDEST POP DUP4 ISZERO PUSH2 0x16D5 JUMPI PUSH1 0x40 MLOAD PUSH3 0x461BCD PUSH1 0xE5 SHL DUP2 MSTORE PUSH1 0x20 PUSH1 0x4 DUP3 ADD DUP2 SWAP1 MSTORE PUSH1 0x24 DUP3 ADD MSTORE PUSH32 0x537472696E67733A20686578206C656E67746820696E73756666696369656E74 PUSH1 0x44 DUP3 ADD MSTORE PUSH1 0x64 ADD PUSH2 0x758 JUMP JUMPDEST PUSH2 0x30BD DUP3 DUP3 PUSH2 0x16DC JUMP JUMPDEST ISZERO PUSH2 0x76B JUMPI PUSH1 0x0 DUP3 DUP2 MSTORE PUSH1 0x20 DUP2 DUP2 MSTORE PUSH1 0x40 DUP1 DUP4 KECCAK256 PUSH1 0x1 PUSH1 0x1 PUSH1 0xA0 SHL SUB DUP6 AND DUP1 DUP6 MSTORE SWAP3 MSTORE DUP1 DUP4 KECCAK256 DUP1 SLOAD PUSH1 0xFF NOT AND SWAP1 SSTORE MLOAD CALLER SWAP3 DUP6 SWAP2 PUSH32 0xF6391F5C32D9C69D2A47EA670B442974B53935D1EDC7FD64EB21E047A839171B SWAP2 SWAP1 LOG4 POP POP JUMP JUMPDEST PUSH1 0x0 PUSH2 0x16D5 DUP4 PUSH1 0x1 PUSH1 0x1 PUSH1 0xA0 SHL SUB DUP5 AND PUSH2 0x33E2 JUMP JUMPDEST PUSH1 0x40 MLOAD PUSH4 0x70A08231 PUSH1 0xE0 SHL DUP2 MSTORE ADDRESS PUSH1 0x4 DUP3 ADD MSTORE PUSH1 0x0 SWAP1 PUSH1 0x1 PUSH1 0x1 PUSH1 0xA0 SHL SUB DUP5 AND SWAP1 PUSH4 0x70A08231 SWAP1 PUSH1 0x24 ADD PUSH1 0x20 PUSH1 0x40 MLOAD DUP1 DUP4 SUB DUP2 DUP7 GAS STATICCALL ISZERO DUP1 ISZERO PUSH2 0x3174 JUMPI RETURNDATASIZE PUSH1 0x0 DUP1 RETURNDATACOPY RETURNDATASIZE PUSH1 0x0 REVERT JUMPDEST POP POP POP POP PUSH1 0x40 MLOAD RETURNDATASIZE PUSH1 0x1F NOT PUSH1 0x1F DUP3 ADD AND DUP3 ADD DUP1 PUSH1 0x40 MSTORE POP DUP2 ADD SWAP1 PUSH2 0x3198 SWAP2 SWAP1 PUSH2 0x3B02 JUMP JUMPDEST SWAP1 POP PUSH1 0x0 PUSH1 0x3 DUP6 DUP2 SLOAD DUP2 LT PUSH2 0x31AF JUMPI PUSH2 0x31AF PUSH2 0x3A9E JUMP JUMPDEST PUSH1 0x0 SWAP2 DUP3 MSTORE PUSH1 0x20 SWAP1 SWAP2 KECCAK256 PUSH1 0x1 PUSH1 0x3 SWAP1 SWAP3 MUL ADD ADD SLOAD PUSH2 0x31E1 SWAP1 PUSH1 0x1 PUSH1 0x1 PUSH1 0x70 SHL SUB PUSH1 0x1 PUSH1 0x70 SHL SWAP1 SWAP2 DIV DUP2 AND SWAP1 DUP5 AND PUSH2 0x3C17 JUMP JUMPDEST SWAP1 POP DUP3 DUP2 LT ISZERO PUSH2 0x322C JUMPI PUSH1 0x40 MLOAD PUSH3 0x461BCD PUSH1 0xE5 SHL DUP2 MSTORE PUSH1 0x20 PUSH1 0x4 DUP3 ADD MSTORE PUSH1 0x16 PUSH1 0x24 DUP3 ADD MSTORE PUSH22 0x10D4CC4E8812C81D985B1D5948191958DC99585CD959 PUSH1 0x52 SHL PUSH1 0x44 DUP3 ADD MSTORE PUSH1 0x64 ADD PUSH2 0x758 JUMP JUMPDEST PUSH1 0x3 DUP6 DUP2 SLOAD DUP2 LT PUSH2 0x323F JUMPI PUSH2 0x323F PUSH2 0x3A9E JUMP JUMPDEST PUSH1 0x0 SWAP2 DUP3 MSTORE PUSH1 0x20 SWAP1 SWAP2 KECCAK256 PUSH1 0x1 PUSH1 0x3 SWAP1 SWAP3 MUL ADD ADD SLOAD PUSH1 0x1 PUSH1 0x1 PUSH1 0x70 SHL SUB DUP4 DUP2 AND SWAP2 AND EQ PUSH2 0x32AF JUMPI DUP2 PUSH1 0x3 DUP7 DUP2 SLOAD DUP2 LT PUSH2 0x3279 JUMPI PUSH2 0x3279 PUSH2 0x3A9E JUMP JUMPDEST SWAP1 PUSH1 0x0 MSTORE PUSH1 0x20 PUSH1 0x0 KECCAK256 SWAP1 PUSH1 0x3 MUL ADD PUSH1 0x1 ADD PUSH1 0x0 PUSH2 0x100 EXP DUP2 SLOAD DUP2 PUSH1 0x1 PUSH1 0x1 PUSH1 0x70 SHL SUB MUL NOT AND SWAP1 DUP4 PUSH1 0x1 PUSH1 0x1 PUSH1 0x70 SHL SUB AND MUL OR SWAP1 SSTORE POP JUMPDEST POP POP POP POP POP JUMP JUMPDEST PUSH1 0x0 PUSH2 0x330B DUP3 PUSH1 0x40 MLOAD DUP1 PUSH1 0x40 ADD PUSH1 0x40 MSTORE DUP1 PUSH1 0x20 DUP2 MSTORE PUSH1 0x20 ADD PUSH32 0x5361666545524332303A206C6F772D6C6576656C2063616C6C206661696C6564 DUP2 MSTORE POP DUP6 PUSH1 0x1 PUSH1 0x1 PUSH1 0xA0 SHL SUB AND PUSH2 0x34D5 SWAP1 SWAP3 SWAP2 SWAP1 PUSH4 0xFFFFFFFF AND JUMP JUMPDEST DUP1 MLOAD SWAP1 SWAP2 POP ISZERO PUSH2 0x6E7 JUMPI DUP1 DUP1 PUSH1 0x20 ADD SWAP1 MLOAD DUP2 ADD SWAP1 PUSH2 0x3329 SWAP2 SWAP1 PUSH2 0x3E81 JUMP JUMPDEST PUSH2 0x6E7 JUMPI PUSH1 0x40 MLOAD PUSH3 0x461BCD PUSH1 0xE5 SHL DUP2 MSTORE PUSH1 0x20 PUSH1 0x4 DUP3 ADD MSTORE PUSH1 0x2A PUSH1 0x24 DUP3 ADD MSTORE PUSH32 0x5361666545524332303A204552433230206F7065726174696F6E20646964206E PUSH1 0x44 DUP3 ADD MSTORE PUSH10 0x1BDD081CDD58D8D95959 PUSH1 0xB2 SHL PUSH1 0x64 DUP3 ADD MSTORE PUSH1 0x84 ADD PUSH2 0x758 JUMP JUMPDEST PUSH1 0x0 DUP3 PUSH1 0x0 ADD DUP3 DUP2 SLOAD DUP2 LT PUSH2 0x339F JUMPI PUSH2 0x339F PUSH2 0x3A9E JUMP JUMPDEST SWAP1 PUSH1 0x0 MSTORE PUSH1 0x20 PUSH1 0x0 KECCAK256 ADD SLOAD SWAP1 POP SWAP3 SWAP2 POP POP JUMP JUMPDEST PUSH1 0x40 MLOAD PUSH1 0x1 PUSH1 0x1 PUSH1 0xA0 SHL SUB DUP4 AND PUSH1 0x24 DUP3 ADD MSTORE PUSH1 0x44 DUP2 ADD DUP3 SWAP1 MSTORE PUSH2 0x6E7 SWAP1 DUP5 SWAP1 PUSH4 0xA9059CBB PUSH1 0xE0 SHL SWAP1 PUSH1 0x64 ADD PUSH2 0x29CA JUMP JUMPDEST PUSH1 0x0 DUP2 DUP2 MSTORE PUSH1 0x1 DUP4 ADD PUSH1 0x20 MSTORE PUSH1 0x40 DUP2 KECCAK256 SLOAD DUP1 ISZERO PUSH2 0x34CB JUMPI PUSH1 0x0 PUSH2 0x3406 PUSH1 0x1 DUP4 PUSH2 0x3D20 JUMP JUMPDEST DUP6 SLOAD SWAP1 SWAP2 POP PUSH1 0x0 SWAP1 PUSH2 0x341A SWAP1 PUSH1 0x1 SWAP1 PUSH2 0x3D20 JUMP JUMPDEST SWAP1 POP DUP2 DUP2 EQ PUSH2 0x347F JUMPI PUSH1 0x0 DUP7 PUSH1 0x0 ADD DUP3 DUP2 SLOAD DUP2 LT PUSH2 0x343A JUMPI PUSH2 0x343A PUSH2 0x3A9E JUMP JUMPDEST SWAP1 PUSH1 0x0 MSTORE PUSH1 0x20 PUSH1 0x0 KECCAK256 ADD SLOAD SWAP1 POP DUP1 DUP8 PUSH1 0x0 ADD DUP5 DUP2 SLOAD DUP2 LT PUSH2 0x345D JUMPI PUSH2 0x345D PUSH2 0x3A9E JUMP JUMPDEST PUSH1 0x0 SWAP2 DUP3 MSTORE PUSH1 0x20 DUP1 DUP4 KECCAK256 SWAP1 SWAP2 ADD SWAP3 SWAP1 SWAP3 SSTORE SWAP2 DUP3 MSTORE PUSH1 0x1 DUP9 ADD SWAP1 MSTORE PUSH1 0x40 SWAP1 KECCAK256 DUP4 SWAP1 SSTORE JUMPDEST DUP6 SLOAD DUP7 SWAP1 DUP1 PUSH2 0x3490 JUMPI PUSH2 0x3490 PUSH2 0x3ED0 JUMP JUMPDEST PUSH1 0x1 SWAP1 SUB DUP2 DUP2 SWAP1 PUSH1 0x0 MSTORE PUSH1 0x20 PUSH1 0x0 KECCAK256 ADD PUSH1 0x0 SWAP1 SSTORE SWAP1 SSTORE DUP6 PUSH1 0x1 ADD PUSH1 0x0 DUP7 DUP2 MSTORE PUSH1 0x20 ADD SWAP1 DUP2 MSTORE PUSH1 0x20 ADD PUSH1 0x0 KECCAK256 PUSH1 0x0 SWAP1 SSTORE PUSH1 0x1 SWAP4 POP POP POP POP PUSH2 0x550 JUMP JUMPDEST PUSH1 0x0 SWAP2 POP POP PUSH2 0x550 JUMP JUMPDEST PUSH1 0x60 PUSH2 0x34E4 DUP5 DUP5 PUSH1 0x0 DUP6 PUSH2 0x34EC JUMP JUMPDEST SWAP5 SWAP4 POP POP POP POP JUMP JUMPDEST PUSH1 0x60 DUP3 SELFBALANCE LT ISZERO PUSH2 0x354D JUMPI PUSH1 0x40 MLOAD PUSH3 0x461BCD PUSH1 0xE5 SHL DUP2 MSTORE PUSH1 0x20 PUSH1 0x4 DUP3 ADD MSTORE PUSH1 0x26 PUSH1 0x24 DUP3 ADD MSTORE PUSH32 0x416464726573733A20696E73756666696369656E742062616C616E636520666F PUSH1 0x44 DUP3 ADD MSTORE PUSH6 0x1C8818D85B1B PUSH1 0xD2 SHL PUSH1 0x64 DUP3 ADD MSTORE PUSH1 0x84 ADD PUSH2 0x758 JUMP JUMPDEST DUP5 EXTCODESIZE PUSH2 0x359B JUMPI PUSH1 0x40 MLOAD PUSH3 0x461BCD PUSH1 0xE5 SHL DUP2 MSTORE PUSH1 0x20 PUSH1 0x4 DUP3 ADD MSTORE PUSH1 0x1D PUSH1 0x24 DUP3 ADD MSTORE PUSH32 0x416464726573733A2063616C6C20746F206E6F6E2D636F6E7472616374000000 PUSH1 0x44 DUP3 ADD MSTORE PUSH1 0x64 ADD PUSH2 0x758 JUMP JUMPDEST PUSH1 0x0 DUP1 DUP7 PUSH1 0x1 PUSH1 0x1 PUSH1 0xA0 SHL SUB AND DUP6 DUP8 PUSH1 0x40 MLOAD PUSH2 0x35B7 SWAP2 SWAP1 PUSH2 0x3EE6 JUMP JUMPDEST PUSH1 0x0 PUSH1 0x40 MLOAD DUP1 DUP4 SUB DUP2 DUP6 DUP8 GAS CALL SWAP3 POP POP POP RETURNDATASIZE DUP1 PUSH1 0x0 DUP2 EQ PUSH2 0x35F4 JUMPI PUSH1 0x40 MLOAD SWAP2 POP PUSH1 0x1F NOT PUSH1 0x3F RETURNDATASIZE ADD AND DUP3 ADD PUSH1 0x40 MSTORE RETURNDATASIZE DUP3 MSTORE RETURNDATASIZE PUSH1 0x0 PUSH1 0x20 DUP5 ADD RETURNDATACOPY PUSH2 0x35F9 JUMP JUMPDEST PUSH1 0x60 SWAP2 POP JUMPDEST POP SWAP2 POP SWAP2 POP PUSH2 0x2AAC DUP3 DUP3 DUP7 PUSH1 0x60 DUP4 ISZERO PUSH2 0x3613 JUMPI POP DUP2 PUSH2 0x16D5 JUMP JUMPDEST DUP3 MLOAD ISZERO PUSH2 0x3623 JUMPI DUP3 MLOAD DUP1 DUP5 PUSH1 0x20 ADD REVERT JUMPDEST DUP2 PUSH1 0x40 MLOAD PUSH3 0x461BCD PUSH1 0xE5 SHL DUP2 MSTORE PUSH1 0x4 ADD PUSH2 0x758 SWAP2 SWAP1 PUSH2 0x3E00 JUMP JUMPDEST PUSH1 0x40 DUP1 MLOAD PUSH1 0x80 DUP2 ADD DUP3 MSTORE PUSH1 0x0 DUP1 DUP3 MSTORE PUSH1 0x20 DUP3 ADD DUP2 SWAP1 MSTORE SWAP2 DUP2 ADD SWAP2 SWAP1 SWAP2 MSTORE PUSH1 0x60 DUP2 ADD PUSH2 0x3666 PUSH2 0x366B JUMP JUMPDEST SWAP1 MSTORE SWAP1 JUMP JUMPDEST PUSH1 0x40 MLOAD DUP1 PUSH2 0x100 ADD PUSH1 0x40 MSTORE DUP1 PUSH1 0x8 SWAP1 PUSH1 0x20 DUP3 MUL DUP1 CALLDATASIZE DUP4 CALLDATACOPY POP SWAP2 SWAP3 SWAP2 POP POP JUMP JUMPDEST PUSH1 0x1 DUP4 ADD SWAP2 DUP4 SWAP1 DUP3 ISZERO PUSH2 0x3716 JUMPI SWAP2 PUSH1 0x20 MUL DUP3 ADD PUSH1 0x0 JUMPDEST DUP4 DUP3 GT ISZERO PUSH2 0x36E4 JUMPI DUP4 MLOAD DUP4 DUP3 PUSH2 0x100 EXP DUP2 SLOAD DUP2 PUSH4 0xFFFFFFFF MUL NOT AND SWAP1 DUP4 PUSH4 0xFFFFFFFF AND MUL OR SWAP1 SSTORE POP SWAP3 PUSH1 0x20 ADD SWAP3 PUSH1 0x4 ADD PUSH1 0x20 DUP2 PUSH1 0x3 ADD DIV SWAP3 DUP4 ADD SWAP3 PUSH1 0x1 SUB MUL PUSH2 0x36A0 JUMP JUMPDEST DUP1 ISZERO PUSH2 0x3714 JUMPI DUP3 DUP2 PUSH2 0x100 EXP DUP2 SLOAD SWAP1 PUSH4 0xFFFFFFFF MUL NOT AND SWAP1 SSTORE PUSH1 0x4 ADD PUSH1 0x20 DUP2 PUSH1 0x3 ADD DIV SWAP3 DUP4 ADD SWAP3 PUSH1 0x1 SUB MUL PUSH2 0x36E4 JUMP JUMPDEST POP JUMPDEST POP PUSH2 0x3722 SWAP3 SWAP2 POP PUSH2 0x3726 JUMP JUMPDEST POP SWAP1 JUMP JUMPDEST JUMPDEST DUP1 DUP3 GT ISZERO PUSH2 0x3722 JUMPI PUSH1 0x0 DUP2 SSTORE PUSH1 0x1 ADD PUSH2 0x3727 JUMP JUMPDEST PUSH1 0x0 PUSH1 0x20 DUP3 DUP5 SUB SLT ISZERO PUSH2 0x374D JUMPI PUSH1 0x0 DUP1 REVERT JUMPDEST DUP2 CALLDATALOAD PUSH1 0x1 PUSH1 0x1 PUSH1 0xE0 SHL SUB NOT DUP2 AND DUP2 EQ PUSH2 0x16D5 JUMPI PUSH1 0x0 DUP1 REVERT JUMPDEST PUSH1 0x0 DUP1 PUSH1 0x20 DUP4 DUP6 SUB SLT ISZERO PUSH2 0x3778 JUMPI PUSH1 0x0 DUP1 REVERT JUMPDEST DUP3 CALLDATALOAD PUSH8 0xFFFFFFFFFFFFFFFF DUP1 DUP3 GT ISZERO PUSH2 0x3790 JUMPI PUSH1 0x0 DUP1 REVERT JUMPDEST DUP2 DUP6 ADD SWAP2 POP DUP6 PUSH1 0x1F DUP4 ADD SLT PUSH2 0x37A4 JUMPI PUSH1 0x0 DUP1 REVERT JUMPDEST DUP2 CALLDATALOAD DUP2 DUP2 GT ISZERO PUSH2 0x37B3 JUMPI PUSH1 0x0 DUP1 REVERT JUMPDEST DUP7 PUSH1 0x20 DUP3 PUSH1 0x6 SHL DUP6 ADD ADD GT ISZERO PUSH2 0x37C8 JUMPI PUSH1 0x0 DUP1 REVERT JUMPDEST PUSH1 0x20 SWAP3 SWAP1 SWAP3 ADD SWAP7 SWAP2 SWAP6 POP SWAP1 SWAP4 POP POP POP POP JUMP JUMPDEST PUSH1 0x0 PUSH1 0x20 DUP3 DUP5 SUB SLT ISZERO PUSH2 0x37EC JUMPI PUSH1 0x0 DUP1 REVERT JUMPDEST POP CALLDATALOAD SWAP2 SWAP1 POP JUMP JUMPDEST PUSH1 0x1 PUSH1 0x1 PUSH1 0xA0 SHL SUB DUP2 AND DUP2 EQ PUSH2 0x1333 JUMPI PUSH1 0x0 DUP1 REVERT JUMPDEST PUSH1 0x0 DUP1 PUSH1 0x40 DUP4 DUP6 SUB SLT ISZERO PUSH2 0x381B JUMPI PUSH1 0x0 DUP1 REVERT JUMPDEST DUP3 CALLDATALOAD SWAP2 POP PUSH1 0x20 DUP4 ADD CALLDATALOAD PUSH2 0x382D DUP2 PUSH2 0x37F3 JUMP JUMPDEST DUP1 SWAP2 POP POP SWAP3 POP SWAP3 SWAP1 POP JUMP JUMPDEST DUP1 CALLDATALOAD PUSH1 0x1 PUSH1 0x1 PUSH1 0x70 SHL SUB DUP2 AND DUP2 EQ PUSH2 0x384F JUMPI PUSH1 0x0 DUP1 REVERT JUMPDEST SWAP2 SWAP1 POP JUMP JUMPDEST DUP1 CALLDATALOAD PUSH4 0xFFFFFFFF DUP2 AND DUP2 EQ PUSH2 0x384F JUMPI PUSH1 0x0 DUP1 REVERT JUMPDEST PUSH1 0x0 DUP1 PUSH1 0x0 DUP1 PUSH1 0x80 DUP6 DUP8 SUB SLT ISZERO PUSH2 0x387E JUMPI PUSH1 0x0 DUP1 REVERT JUMPDEST DUP5 CALLDATALOAD PUSH2 0x3889 DUP2 PUSH2 0x37F3 JUMP JUMPDEST SWAP4 POP PUSH2 0x3897 PUSH1 0x20 DUP7 ADD PUSH2 0x3838 JUMP JUMPDEST SWAP3 POP PUSH2 0x38A5 PUSH1 0x40 DUP7 ADD PUSH2 0x3838 JUMP JUMPDEST SWAP2 POP PUSH2 0x38B3 PUSH1 0x60 DUP7 ADD PUSH2 0x3854 JUMP JUMPDEST SWAP1 POP SWAP3 SWAP6 SWAP2 SWAP5 POP SWAP3 POP JUMP JUMPDEST PUSH1 0x0 DUP1 PUSH1 0x40 DUP4 DUP6 SUB SLT ISZERO PUSH2 0x38D1 JUMPI PUSH1 0x0 DUP1 REVERT JUMPDEST DUP3 CALLDATALOAD PUSH2 0x38DC DUP2 PUSH2 0x37F3 JUMP JUMPDEST SWAP2 POP PUSH2 0x38EA PUSH1 0x20 DUP5 ADD PUSH2 0x3838 JUMP JUMPDEST SWAP1 POP SWAP3 POP SWAP3 SWAP1 POP JUMP JUMPDEST DUP1 MLOAD PUSH1 0x1 PUSH1 0x1 PUSH1 0xA0 SHL SUB AND DUP3 MSTORE PUSH1 0x20 DUP1 DUP3 ADD MLOAD PUSH1 0x1 PUSH1 0x1 PUSH1 0x70 SHL SUB SWAP1 DUP2 AND DUP3 DUP6 ADD MSTORE PUSH1 0x40 DUP1 DUP5 ADD MLOAD SWAP1 SWAP2 AND SWAP1 DUP5 ADD MSTORE PUSH1 0x60 DUP1 DUP4 ADD MLOAD SWAP1 DUP5 ADD PUSH1 0x0 JUMPDEST PUSH1 0x8 DUP2 LT ISZERO PUSH2 0x3951 JUMPI DUP3 MLOAD PUSH4 0xFFFFFFFF AND DUP3 MSTORE SWAP2 DUP4 ADD SWAP2 SWAP1 DUP4 ADD SWAP1 PUSH1 0x1 ADD PUSH2 0x392E JUMP JUMPDEST POP POP POP POP POP POP JUMP JUMPDEST PUSH2 0x2C0 DUP2 ADD PUSH2 0x3968 DUP3 DUP6 PUSH2 0x38F3 JUMP JUMPDEST PUSH2 0x16D5 PUSH2 0x160 DUP4 ADD DUP5 PUSH2 0x38F3 JUMP JUMPDEST PUSH1 0x0 DUP1 PUSH1 0x40 DUP4 DUP6 SUB SLT ISZERO PUSH2 0x3989 JUMPI PUSH1 0x0 DUP1 REVERT JUMPDEST DUP3 CALLDATALOAD PUSH2 0x3994 DUP2 PUSH2 0x37F3 JUMP JUMPDEST SWAP5 PUSH1 0x20 SWAP4 SWAP1 SWAP4 ADD CALLDATALOAD SWAP4 POP POP POP JUMP JUMPDEST PUSH1 0x0 DUP1 PUSH1 0x40 DUP4 DUP6 SUB SLT ISZERO PUSH2 0x39B5 JUMPI PUSH1 0x0 DUP1 REVERT JUMPDEST POP POP DUP1 CALLDATALOAD SWAP3 PUSH1 0x20 SWAP1 SWAP2 ADD CALLDATALOAD SWAP2 POP JUMP JUMPDEST PUSH1 0x0 PUSH1 0x20 DUP3 DUP5 SUB SLT ISZERO PUSH2 0x39D6 JUMPI PUSH1 0x0 DUP1 REVERT JUMPDEST DUP2 CALLDATALOAD PUSH2 0x16D5 DUP2 PUSH2 0x37F3 JUMP JUMPDEST PUSH2 0x160 DUP2 ADD PUSH2 0x550 DUP3 DUP5 PUSH2 0x38F3 JUMP JUMPDEST PUSH1 0x0 DUP1 PUSH1 0x0 PUSH1 0x60 DUP5 DUP7 SUB SLT ISZERO PUSH2 0x3A05 JUMPI PUSH1 0x0 DUP1 REVERT JUMPDEST DUP4 CALLDATALOAD PUSH2 0x3A10 DUP2 PUSH2 0x37F3 JUMP JUMPDEST SWAP3 POP PUSH2 0x3A1E PUSH1 0x20 DUP6 ADD PUSH2 0x3838 JUMP JUMPDEST SWAP2 POP PUSH2 0x3A2C PUSH1 0x40 DUP6 ADD PUSH2 0x3838 JUMP JUMPDEST SWAP1 POP SWAP3 POP SWAP3 POP SWAP3 JUMP JUMPDEST PUSH1 0x0 DUP1 PUSH1 0x0 DUP1 PUSH1 0x0 PUSH1 0xA0 DUP7 DUP9 SUB SLT ISZERO PUSH2 0x3A4D JUMPI PUSH1 0x0 DUP1 REVERT JUMPDEST DUP6 CALLDATALOAD PUSH2 0x3A58 DUP2 PUSH2 0x37F3 JUMP JUMPDEST SWAP5 POP PUSH1 0x20 DUP7 ADD CALLDATALOAD PUSH2 0x3A68 DUP2 PUSH2 0x37F3 JUMP JUMPDEST SWAP4 POP PUSH2 0x3A76 PUSH1 0x40 DUP8 ADD PUSH2 0x3838 JUMP JUMPDEST SWAP3 POP PUSH2 0x3A84 PUSH1 0x60 DUP8 ADD PUSH2 0x3838 JUMP JUMPDEST SWAP2 POP PUSH2 0x3A92 PUSH1 0x80 DUP8 ADD PUSH2 0x3854 JUMP JUMPDEST SWAP1 POP SWAP3 SWAP6 POP SWAP3 SWAP6 SWAP1 SWAP4 POP JUMP JUMPDEST PUSH4 0x4E487B71 PUSH1 0xE0 SHL PUSH1 0x0 MSTORE PUSH1 0x32 PUSH1 0x4 MSTORE PUSH1 0x24 PUSH1 0x0 REVERT JUMPDEST PUSH4 0x4E487B71 PUSH1 0xE0 SHL PUSH1 0x0 MSTORE PUSH1 0x11 PUSH1 0x4 MSTORE PUSH1 0x24 PUSH1 0x0 REVERT JUMPDEST PUSH1 0x0 PUSH1 0x0 NOT DUP3 EQ ISZERO PUSH2 0x3ADE JUMPI PUSH2 0x3ADE PUSH2 0x3AB4 JUMP JUMPDEST POP PUSH1 0x1 ADD SWAP1 JUMP JUMPDEST PUSH1 0x0 PUSH1 0x20 DUP3 DUP5 SUB SLT ISZERO PUSH2 0x3AF7 JUMPI PUSH1 0x0 DUP1 REVERT JUMPDEST DUP2 MLOAD PUSH2 0x16D5 DUP2 PUSH2 0x37F3 JUMP JUMPDEST PUSH1 0x0 PUSH1 0x20 DUP3 DUP5 SUB SLT ISZERO PUSH2 0x3B14 JUMPI PUSH1 0x0 DUP1 REVERT JUMPDEST POP MLOAD SWAP2 SWAP1 POP JUMP JUMPDEST PUSH1 0x20 DUP1 DUP3 MSTORE PUSH1 0x1F SWAP1 DUP3 ADD MSTORE PUSH32 0x5265656E7472616E637947756172643A207265656E7472616E742063616C6C00 PUSH1 0x40 DUP3 ADD MSTORE PUSH1 0x60 ADD SWAP1 JUMP JUMPDEST PUSH1 0x20 DUP1 DUP3 MSTORE PUSH1 0x1B SWAP1 DUP3 ADD MSTORE PUSH32 0x4353313A205472616E73616374696F6E20697320657870697265640000000000 PUSH1 0x40 DUP3 ADD MSTORE PUSH1 0x60 ADD SWAP1 JUMP JUMPDEST PUSH1 0x20 DUP1 DUP3 MSTORE PUSH1 0x10 SWAP1 DUP3 ADD MSTORE PUSH16 0x21A9989D102BB937B733903A37B5B2B7 PUSH1 0x81 SHL PUSH1 0x40 DUP3 ADD MSTORE PUSH1 0x60 ADD SWAP1 JUMP JUMPDEST PUSH1 0x0 DUP3 NOT DUP3 GT ISZERO PUSH2 0x3BC6 JUMPI PUSH2 0x3BC6 PUSH2 0x3AB4 JUMP JUMPDEST POP ADD SWAP1 JUMP JUMPDEST PUSH1 0x20 DUP1 DUP3 MSTORE PUSH1 0x2C SWAP1 DUP3 ADD MSTORE PUSH32 0x4353313A204665652D6F6E2D7472616E7366657220746F6B656E73206172656E PUSH1 0x40 DUP3 ADD MSTORE PUSH12 0x9DD081CDD5C1C1BDC9D1959 PUSH1 0xA2 SHL PUSH1 0x60 DUP3 ADD MSTORE PUSH1 0x80 ADD SWAP1 JUMP JUMPDEST PUSH1 0x0 DUP2 PUSH1 0x0 NOT DIV DUP4 GT DUP3 ISZERO ISZERO AND ISZERO PUSH2 0x3C31 JUMPI PUSH2 0x3C31 PUSH2 0x3AB4 JUMP JUMPDEST POP MUL SWAP1 JUMP JUMPDEST PUSH4 0x4E487B71 PUSH1 0xE0 SHL PUSH1 0x0 MSTORE PUSH1 0x12 PUSH1 0x4 MSTORE PUSH1 0x24 PUSH1 0x0 REVERT JUMPDEST PUSH1 0x0 DUP3 PUSH2 0x3C5B JUMPI PUSH2 0x3C5B PUSH2 0x3C36 JUMP JUMPDEST POP DIV SWAP1 JUMP JUMPDEST PUSH1 0x1 PUSH1 0x1 PUSH1 0xA0 SHL SUB SWAP3 SWAP1 SWAP3 AND DUP3 MSTORE PUSH1 0x1 PUSH1 0x1 PUSH1 0x70 SHL SUB AND PUSH1 0x20 DUP3 ADD MSTORE PUSH1 0x40 ADD SWAP1 JUMP JUMPDEST PUSH1 0x1 PUSH1 0x1 PUSH1 0xA0 SHL SUB SWAP4 SWAP1 SWAP4 AND DUP4 MSTORE PUSH1 0x20 DUP4 ADD SWAP2 SWAP1 SWAP2 MSTORE PUSH1 0x40 DUP3 ADD MSTORE PUSH1 0x80 PUSH1 0x60 DUP3 ADD DUP2 SWAP1 MSTORE PUSH1 0x0 SWAP1 DUP3 ADD MSTORE PUSH1 0xA0 ADD SWAP1 JUMP JUMPDEST PUSH1 0x0 PUSH1 0x1 PUSH1 0x1 PUSH1 0x70 SHL SUB DUP1 DUP4 AND DUP2 DUP6 AND DUP1 DUP4 SUB DUP3 GT ISZERO PUSH2 0x3CD4 JUMPI PUSH2 0x3CD4 PUSH2 0x3AB4 JUMP JUMPDEST ADD SWAP5 SWAP4 POP POP POP POP JUMP JUMPDEST PUSH1 0x0 DUP3 PUSH2 0x3CEC JUMPI PUSH2 0x3CEC PUSH2 0x3C36 JUMP JUMPDEST POP MOD SWAP1 JUMP JUMPDEST PUSH1 0x0 PUSH1 0x1 PUSH1 0x1 PUSH1 0x70 SHL SUB DUP1 DUP4 AND DUP2 DUP6 AND DUP2 DUP4 DIV DUP2 GT DUP3 ISZERO ISZERO AND ISZERO PUSH2 0x3D17 JUMPI PUSH2 0x3D17 PUSH2 0x3AB4 JUMP JUMPDEST MUL SWAP5 SWAP4 POP POP POP POP JUMP JUMPDEST PUSH1 0x0 DUP3 DUP3 LT ISZERO PUSH2 0x3D32 JUMPI PUSH2 0x3D32 PUSH2 0x3AB4 JUMP JUMPDEST POP SUB SWAP1 JUMP JUMPDEST PUSH1 0x0 PUSH1 0x1 PUSH1 0x1 PUSH1 0x70 SHL SUB DUP4 DUP2 AND SWAP1 DUP4 AND DUP2 DUP2 LT ISZERO PUSH2 0x3D57 JUMPI PUSH2 0x3D57 PUSH2 0x3AB4 JUMP JUMPDEST SUB SWAP4 SWAP3 POP POP POP JUMP JUMPDEST PUSH1 0x0 JUMPDEST DUP4 DUP2 LT ISZERO PUSH2 0x3D7A JUMPI DUP2 DUP2 ADD MLOAD DUP4 DUP3 ADD MSTORE PUSH1 0x20 ADD PUSH2 0x3D62 JUMP JUMPDEST DUP4 DUP2 GT ISZERO PUSH2 0x4D3 JUMPI POP POP PUSH1 0x0 SWAP2 ADD MSTORE JUMP JUMPDEST PUSH32 0x416363657373436F6E74726F6C3A206163636F756E7420000000000000000000 DUP2 MSTORE PUSH1 0x0 DUP4 MLOAD PUSH2 0x3DC3 DUP2 PUSH1 0x17 DUP6 ADD PUSH1 0x20 DUP9 ADD PUSH2 0x3D5F JUMP JUMPDEST PUSH17 0x1034B99036B4B9B9B4B733903937B6329 PUSH1 0x7D SHL PUSH1 0x17 SWAP2 DUP5 ADD SWAP2 DUP3 ADD MSTORE DUP4 MLOAD PUSH2 0x3DF4 DUP2 PUSH1 0x28 DUP5 ADD PUSH1 0x20 DUP9 ADD PUSH2 0x3D5F JUMP JUMPDEST ADD PUSH1 0x28 ADD SWAP5 SWAP4 POP POP POP POP JUMP JUMPDEST PUSH1 0x20 DUP2 MSTORE PUSH1 0x0 DUP3 MLOAD DUP1 PUSH1 0x20 DUP5 ADD MSTORE PUSH2 0x3E1F DUP2 PUSH1 0x40 DUP6 ADD PUSH1 0x20 DUP8 ADD PUSH2 0x3D5F JUMP JUMPDEST PUSH1 0x1F ADD PUSH1 0x1F NOT AND SWAP2 SWAP1 SWAP2 ADD PUSH1 0x40 ADD SWAP3 SWAP2 POP POP JUMP JUMPDEST PUSH1 0x20 DUP1 DUP3 MSTORE PUSH1 0x2E SWAP1 DUP3 ADD MSTORE PUSH32 0x4353313A204F757470757420616D6F756E74206C657373207468616E206D696E PUSH1 0x40 DUP3 ADD MSTORE PUSH14 0x1A5B5D5B481CDC1958DA599A5959 PUSH1 0x92 SHL PUSH1 0x60 DUP3 ADD MSTORE PUSH1 0x80 ADD SWAP1 JUMP JUMPDEST PUSH1 0x0 PUSH1 0x20 DUP3 DUP5 SUB SLT ISZERO PUSH2 0x3E93 JUMPI PUSH1 0x0 DUP1 REVERT JUMPDEST DUP2 MLOAD DUP1 ISZERO ISZERO DUP2 EQ PUSH2 0x16D5 JUMPI PUSH1 0x0 DUP1 REVERT JUMPDEST PUSH4 0x4E487B71 PUSH1 0xE0 SHL PUSH1 0x0 MSTORE PUSH1 0x41 PUSH1 0x4 MSTORE PUSH1 0x24 PUSH1 0x0 REVERT JUMPDEST PUSH1 0x0 DUP2 PUSH2 0x3EC8 JUMPI PUSH2 0x3EC8 PUSH2 0x3AB4 JUMP JUMPDEST POP PUSH1 0x0 NOT ADD SWAP1 JUMP JUMPDEST PUSH4 0x4E487B71 PUSH1 0xE0 SHL PUSH1 0x0 MSTORE PUSH1 0x31 PUSH1 0x4 MSTORE PUSH1 0x24 PUSH1 0x0 REVERT JUMPDEST PUSH1 0x0 DUP3 MLOAD PUSH2 0x3EF8 DUP2 DUP5 PUSH1 0x20 DUP8 ADD PUSH2 0x3D5F JUMP JUMPDEST SWAP2 SWAP1 SWAP2 ADD SWAP3 SWAP2 POP POP JUMP INVALID LOG2 PUSH5 0x6970667358 0x22 SLT KECCAK256 PUSH27 0xC701F07C7939B960733EFC73261D9D02D8F5E2129787B128364CDF SWAP7 0xE0 RETURN KECCAK256 PUSH5 0x736F6C6343 STOP ADDMOD SIGNEXTEND STOP CALLER "
		},
		"gasEstimates": {
			"creation": {
				"codeDepositCost": "3236800",
				"executionCost": "infinite",
				"totalCost": "infinite"
			},
			"external": {
				"ROLE_ADMIN()": "262",
				"addTokenLiquidity(address,uint112)": "infinite",
				"adminCreatePool(address,uint112,uint112)": "infinite",
				"getCurrent4Hour()": "424",
				"getCurrentFeeBasedOnTrades(uint256)": "infinite",
				"getOutputExactCerUsdForToken(uint256,uint256)": "infinite",
				"getOutputExactTokensForCerUsd(uint256,uint256)": "infinite",
				"getPoolByPosition(uint256)": "infinite",
				"getPoolByToken(address)": "infinite",
				"getRoleAdmin(bytes32)": "2515",
				"getRoleMember(bytes32,uint256)": "infinite",
				"getRoleMemberCount(bytes32)": "infinite",
				"getUtilsContractAtPos(uint256)": "infinite",
				"grantRole(bytes32,address)": "infinite",
				"grantRolesBulk((bytes32,address)[])": "infinite",
				"hasRole(bytes32,address)": "2696",
				"initialize()": "infinite",
				"removeTokenLiquidity(address,uint256)": "infinite",
				"renounceRole(bytes32,address)": "infinite",
				"revokeRole(bytes32,address)": "infinite",
				"supportsInterface(bytes4)": "393",
				"swapExactCerUsdForToken(address,uint112,uint112,uint32)": "infinite",
				"swapExactTokenForToken(address,address,uint112,uint112,uint32)": "infinite",
				"swapExactTokenToCerUsd(address,uint112,uint112,uint32)": "infinite",
				"syncTokenBalanceInPool(address)": "infinite",
				"testGetBalances()": "infinite",
				"testGetPools()": "infinite",
				"testGetPrices()": "infinite"
			},
			"internal": {
				"_getOutput(uint256,uint256,uint256,uint256)": "infinite",
				"_swapExactCerUsdForToken(address,uint112,uint112,bool)": "infinite",
				"_swapExactTokenToCerUsd(address,uint112,uint112,bool)": "infinite",
				"_syncTokenBalanceInPool(address)": "infinite",
				"sqrt(uint256)": "infinite",
				"updateTokenBalanceAndCheckKValue(uint256,address,uint256)": "infinite"
			}
		},
		"methodIdentifiers": {
			"ROLE_ADMIN()": "d391014b",
			"addTokenLiquidity(address,uint112)": "43039b2f",
			"adminCreatePool(address,uint112,uint112)": "c93c815c",
			"getCurrent4Hour()": "a465626f",
			"getCurrentFeeBasedOnTrades(uint256)": "6853ac26",
			"getOutputExactCerUsdForToken(uint256,uint256)": "e40a99a8",
			"getOutputExactTokensForCerUsd(uint256,uint256)": "cd01a60a",
			"getPoolByPosition(uint256)": "d01350bd",
			"getPoolByToken(address)": "bbadc03b",
			"getRoleAdmin(bytes32)": "248a9ca3",
			"getRoleMember(bytes32,uint256)": "9010d07c",
			"getRoleMemberCount(bytes32)": "ca15c873",
			"getUtilsContractAtPos(uint256)": "06fb1a07",
			"grantRole(bytes32,address)": "2f2ff15d",
			"grantRolesBulk((bytes32,address)[])": "03ed957f",
			"hasRole(bytes32,address)": "91d14854",
			"initialize()": "8129fc1c",
			"removeTokenLiquidity(address,uint256)": "84d93612",
			"renounceRole(bytes32,address)": "36568abe",
			"revokeRole(bytes32,address)": "d547741f",
			"supportsInterface(bytes4)": "01ffc9a7",
			"swapExactCerUsdForToken(address,uint112,uint112,uint32)": "d88d7eba",
			"swapExactTokenForToken(address,address,uint112,uint112,uint32)": "ea680f2a",
			"swapExactTokenToCerUsd(address,uint112,uint112,uint32)": "370d77d0",
			"syncTokenBalanceInPool(address)": "9bc731fc",
			"testGetBalances()": "186efad9",
			"testGetPools()": "5e6104b1",
			"testGetPrices()": "e07bf7ad"
		}
	},
	"abi": [
		{
			"inputs": [],
			"stateMutability": "nonpayable",
			"type": "constructor"
		},
		{
			"anonymous": false,
			"inputs": [
				{
					"indexed": true,
					"internalType": "bytes32",
					"name": "role",
					"type": "bytes32"
				},
				{
					"indexed": true,
					"internalType": "bytes32",
					"name": "previousAdminRole",
					"type": "bytes32"
				},
				{
					"indexed": true,
					"internalType": "bytes32",
					"name": "newAdminRole",
					"type": "bytes32"
				}
			],
			"name": "RoleAdminChanged",
			"type": "event"
		},
		{
			"anonymous": false,
			"inputs": [
				{
					"indexed": true,
					"internalType": "bytes32",
					"name": "role",
					"type": "bytes32"
				},
				{
					"indexed": true,
					"internalType": "address",
					"name": "account",
					"type": "address"
				},
				{
					"indexed": true,
					"internalType": "address",
					"name": "sender",
					"type": "address"
				}
			],
			"name": "RoleGranted",
			"type": "event"
		},
		{
			"anonymous": false,
			"inputs": [
				{
					"indexed": true,
					"internalType": "bytes32",
					"name": "role",
					"type": "bytes32"
				},
				{
					"indexed": true,
					"internalType": "address",
					"name": "account",
					"type": "address"
				},
				{
					"indexed": true,
					"internalType": "address",
					"name": "sender",
					"type": "address"
				}
			],
			"name": "RoleRevoked",
			"type": "event"
		},
		{
			"inputs": [],
			"name": "ROLE_ADMIN",
			"outputs": [
				{
					"internalType": "bytes32",
					"name": "",
					"type": "bytes32"
				}
			],
			"stateMutability": "view",
			"type": "function"
		},
		{
			"inputs": [
				{
					"internalType": "address",
					"name": "token",
					"type": "address"
				},
				{
					"internalType": "uint112",
					"name": "addTokenAmount",
					"type": "uint112"
				}
			],
			"name": "addTokenLiquidity",
			"outputs": [],
			"stateMutability": "nonpayable",
			"type": "function"
		},
		{
			"inputs": [
				{
					"internalType": "address",
					"name": "token",
					"type": "address"
				},
				{
					"internalType": "uint112",
					"name": "addTokenAmount",
					"type": "uint112"
				},
				{
					"internalType": "uint112",
					"name": "mintCerUsdAmount",
					"type": "uint112"
				}
			],
			"name": "adminCreatePool",
			"outputs": [],
			"stateMutability": "nonpayable",
			"type": "function"
		},
		{
			"inputs": [],
			"name": "getCurrent4Hour",
			"outputs": [
				{
					"internalType": "uint256",
					"name": "",
					"type": "uint256"
				}
			],
			"stateMutability": "view",
			"type": "function"
		},
		{
			"inputs": [
				{
					"internalType": "uint256",
					"name": "poolPos",
					"type": "uint256"
				}
			],
			"name": "getCurrentFeeBasedOnTrades",
			"outputs": [
				{
					"internalType": "uint256",
					"name": "fee",
					"type": "uint256"
				}
			],
			"stateMutability": "view",
			"type": "function"
		},
		{
			"inputs": [
				{
					"internalType": "uint256",
					"name": "poolPos",
					"type": "uint256"
				},
				{
					"internalType": "uint256",
					"name": "increaseCerUsdBalance",
					"type": "uint256"
				}
			],
			"name": "getOutputExactCerUsdForToken",
			"outputs": [
				{
					"internalType": "uint256",
					"name": "",
					"type": "uint256"
				}
			],
			"stateMutability": "view",
			"type": "function"
		},
		{
			"inputs": [
				{
					"internalType": "uint256",
					"name": "poolPos",
					"type": "uint256"
				},
				{
					"internalType": "uint256",
					"name": "increaseTokenBalance",
					"type": "uint256"
				}
			],
			"name": "getOutputExactTokensForCerUsd",
			"outputs": [
				{
					"internalType": "uint256",
					"name": "",
					"type": "uint256"
				}
			],
			"stateMutability": "view",
			"type": "function"
		},
		{
			"inputs": [
				{
					"internalType": "uint256",
					"name": "pos",
					"type": "uint256"
				}
			],
			"name": "getPoolByPosition",
			"outputs": [
				{
					"components": [
						{
							"internalType": "address",
							"name": "token",
							"type": "address"
						},
						{
							"internalType": "uint112",
							"name": "balanceToken",
							"type": "uint112"
						},
						{
							"internalType": "uint112",
							"name": "balanceCerUsd",
							"type": "uint112"
						},
						{
							"internalType": "uint32[8]",
							"name": "hourlyTradeVolumeInCerUsd",
							"type": "uint32[8]"
						}
					],
					"internalType": "struct CerbySwapV1.Pool",
					"name": "",
					"type": "tuple"
				}
			],
			"stateMutability": "view",
			"type": "function"
		},
		{
			"inputs": [
				{
					"internalType": "address",
					"name": "token",
					"type": "address"
				}
			],
			"name": "getPoolByToken",
			"outputs": [
				{
					"components": [
						{
							"internalType": "address",
							"name": "token",
							"type": "address"
						},
						{
							"internalType": "uint112",
							"name": "balanceToken",
							"type": "uint112"
						},
						{
							"internalType": "uint112",
							"name": "balanceCerUsd",
							"type": "uint112"
						},
						{
							"internalType": "uint32[8]",
							"name": "hourlyTradeVolumeInCerUsd",
							"type": "uint32[8]"
						}
					],
					"internalType": "struct CerbySwapV1.Pool",
					"name": "",
					"type": "tuple"
				}
			],
			"stateMutability": "view",
			"type": "function"
		},
		{
			"inputs": [
				{
					"internalType": "bytes32",
					"name": "role",
					"type": "bytes32"
				}
			],
			"name": "getRoleAdmin",
			"outputs": [
				{
					"internalType": "bytes32",
					"name": "",
					"type": "bytes32"
				}
			],
			"stateMutability": "view",
			"type": "function"
		},
		{
			"inputs": [
				{
					"internalType": "bytes32",
					"name": "role",
					"type": "bytes32"
				},
				{
					"internalType": "uint256",
					"name": "index",
					"type": "uint256"
				}
			],
			"name": "getRoleMember",
			"outputs": [
				{
					"internalType": "address",
					"name": "",
					"type": "address"
				}
			],
			"stateMutability": "view",
			"type": "function"
		},
		{
			"inputs": [
				{
					"internalType": "bytes32",
					"name": "role",
					"type": "bytes32"
				}
			],
			"name": "getRoleMemberCount",
			"outputs": [
				{
					"internalType": "uint256",
					"name": "",
					"type": "uint256"
				}
			],
			"stateMutability": "view",
			"type": "function"
		},
		{
			"inputs": [
				{
					"internalType": "uint256",
					"name": "pos",
					"type": "uint256"
				}
			],
			"name": "getUtilsContractAtPos",
			"outputs": [
				{
					"internalType": "address",
					"name": "",
					"type": "address"
				}
			],
			"stateMutability": "view",
			"type": "function"
		},
		{
			"inputs": [
				{
					"internalType": "bytes32",
					"name": "role",
					"type": "bytes32"
				},
				{
					"internalType": "address",
					"name": "account",
					"type": "address"
				}
			],
			"name": "grantRole",
			"outputs": [],
			"stateMutability": "nonpayable",
			"type": "function"
		},
		{
			"inputs": [
				{
					"components": [
						{
							"internalType": "bytes32",
							"name": "role",
							"type": "bytes32"
						},
						{
							"internalType": "address",
							"name": "addr",
							"type": "address"
						}
					],
					"internalType": "struct RoleAccess[]",
					"name": "roles",
					"type": "tuple[]"
				}
			],
			"name": "grantRolesBulk",
			"outputs": [],
			"stateMutability": "nonpayable",
			"type": "function"
		},
		{
			"inputs": [
				{
					"internalType": "bytes32",
					"name": "role",
					"type": "bytes32"
				},
				{
					"internalType": "address",
					"name": "account",
					"type": "address"
				}
			],
			"name": "hasRole",
			"outputs": [
				{
					"internalType": "bool",
					"name": "",
					"type": "bool"
				}
			],
			"stateMutability": "view",
			"type": "function"
		},
		{
			"inputs": [],
			"name": "initialize",
			"outputs": [],
			"stateMutability": "nonpayable",
			"type": "function"
		},
		{
			"inputs": [
				{
					"internalType": "address",
					"name": "token",
					"type": "address"
				},
				{
					"internalType": "uint256",
					"name": "removeLpAmount",
					"type": "uint256"
				}
			],
			"name": "removeTokenLiquidity",
			"outputs": [],
			"stateMutability": "nonpayable",
			"type": "function"
		},
		{
			"inputs": [
				{
					"internalType": "bytes32",
					"name": "role",
					"type": "bytes32"
				},
				{
					"internalType": "address",
					"name": "account",
					"type": "address"
				}
			],
			"name": "renounceRole",
			"outputs": [],
			"stateMutability": "nonpayable",
			"type": "function"
		},
		{
			"inputs": [
				{
					"internalType": "bytes32",
					"name": "role",
					"type": "bytes32"
				},
				{
					"internalType": "address",
					"name": "account",
					"type": "address"
				}
			],
			"name": "revokeRole",
			"outputs": [],
			"stateMutability": "nonpayable",
			"type": "function"
		},
		{
			"inputs": [
				{
					"internalType": "bytes4",
					"name": "interfaceId",
					"type": "bytes4"
				}
			],
			"name": "supportsInterface",
			"outputs": [
				{
					"internalType": "bool",
					"name": "",
					"type": "bool"
				}
			],
			"stateMutability": "view",
			"type": "function"
		},
		{
			"inputs": [
				{
					"internalType": "address",
					"name": "tokenOut",
					"type": "address"
				},
				{
					"internalType": "uint112",
					"name": "amountCerUsdIn",
					"type": "uint112"
				},
				{
					"internalType": "uint112",
					"name": "minAmountTokenOut",
					"type": "uint112"
				},
				{
					"internalType": "uint32",
					"name": "expireTimestamp",
					"type": "uint32"
				}
			],
			"name": "swapExactCerUsdForToken",
			"outputs": [
				{
					"internalType": "uint112",
					"name": "",
					"type": "uint112"
				}
			],
			"stateMutability": "nonpayable",
			"type": "function"
		},
		{
			"inputs": [
				{
					"internalType": "address",
					"name": "tokenIn",
					"type": "address"
				},
				{
					"internalType": "address",
					"name": "tokenOut",
					"type": "address"
				},
				{
					"internalType": "uint112",
					"name": "amountTokenIn",
					"type": "uint112"
				},
				{
					"internalType": "uint112",
					"name": "minAmountTokenOut",
					"type": "uint112"
				},
				{
					"internalType": "uint32",
					"name": "expireTimestamp",
					"type": "uint32"
				}
			],
			"name": "swapExactTokenForToken",
			"outputs": [
				{
					"internalType": "uint112",
					"name": "",
					"type": "uint112"
				}
			],
			"stateMutability": "nonpayable",
			"type": "function"
		},
		{
			"inputs": [
				{
					"internalType": "address",
					"name": "tokenIn",
					"type": "address"
				},
				{
					"internalType": "uint112",
					"name": "amountTokenIn",
					"type": "uint112"
				},
				{
					"internalType": "uint112",
					"name": "minAmountCerUsdOut",
					"type": "uint112"
				},
				{
					"internalType": "uint32",
					"name": "expireTimestamp",
					"type": "uint32"
				}
			],
			"name": "swapExactTokenToCerUsd",
			"outputs": [
				{
					"internalType": "uint112",
					"name": "",
					"type": "uint112"
				}
			],
			"stateMutability": "nonpayable",
			"type": "function"
		},
		{
			"inputs": [
				{
					"internalType": "address",
					"name": "token",
					"type": "address"
				}
			],
			"name": "syncTokenBalanceInPool",
			"outputs": [],
			"stateMutability": "nonpayable",
			"type": "function"
		},
		{
			"inputs": [],
			"name": "testGetBalances",
			"outputs": [
				{
					"internalType": "uint256",
					"name": "",
					"type": "uint256"
				},
				{
					"internalType": "uint256",
					"name": "",
					"type": "uint256"
				},
				{
					"internalType": "uint256",
					"name": "",
					"type": "uint256"
				}
			],
			"stateMutability": "view",
			"type": "function"
		},
		{
			"inputs": [],
			"name": "testGetPools",
			"outputs": [
				{
					"components": [
						{
							"internalType": "address",
							"name": "token",
							"type": "address"
						},
						{
							"internalType": "uint112",
							"name": "balanceToken",
							"type": "uint112"
						},
						{
							"internalType": "uint112",
							"name": "balanceCerUsd",
							"type": "uint112"
						},
						{
							"internalType": "uint32[8]",
							"name": "hourlyTradeVolumeInCerUsd",
							"type": "uint32[8]"
						}
					],
					"internalType": "struct CerbySwapV1.Pool",
					"name": "",
					"type": "tuple"
				},
				{
					"components": [
						{
							"internalType": "address",
							"name": "token",
							"type": "address"
						},
						{
							"internalType": "uint112",
							"name": "balanceToken",
							"type": "uint112"
						},
						{
							"internalType": "uint112",
							"name": "balanceCerUsd",
							"type": "uint112"
						},
						{
							"internalType": "uint32[8]",
							"name": "hourlyTradeVolumeInCerUsd",
							"type": "uint32[8]"
						}
					],
					"internalType": "struct CerbySwapV1.Pool",
					"name": "",
					"type": "tuple"
				}
			],
			"stateMutability": "view",
			"type": "function"
		},
		{
			"inputs": [],
			"name": "testGetPrices",
			"outputs": [
				{
					"internalType": "uint256",
					"name": "",
					"type": "uint256"
				},
				{
					"internalType": "uint256",
					"name": "",
					"type": "uint256"
				}
			],
			"stateMutability": "view",
			"type": "function"
		}
	]
}