{
	"data": {
		"bytecode": {
			"linkReferences": {},
			"object": "60c0604052600d60808190526c4365726279205377617020563160981b60a0908152620000309160069190620005aa565b5060408051808201909152600d8082526c43455242595f535741505f563160981b60209092019182526200006791600791620005aa565b50604051806060016040528060238152602001620067346023913980516200009891600891602090910190620005aa565b50600c80546001600160a01b031990811673e7126c0fb4b1f5f79e5bbec3948139dcf348b49c17909155600d80548216730fc5025c764ce34df352757e82f7b5c4df39a836179055600e80548216737412f2cd820d1e63bd130b0ffebe44c4e5a47d71179055600f80549091167314769f96e57b80c66837701de0b43686fb4632de1790553480156200012a57600080fd5b5060086040516020016200013f919062000745565b60408051601f198184030181529190526200015a8162000432565b50620001686000336200044b565b73def78a28c78a461598d948bc0c689ce88f812ad8600060646200018e81601462000803565b6200019a919062000831565b90506351a67366600160c882600083620001b5848462000803565b620001c1919062000831565b6040805160c0810182526001600160a01b038a16808252602082018a9052918101879052606081018690526080810185905260a001829052601080546001600160a01b03191690911790556011879055601285905560138490556014839055601581905590506200023162000639565b6040805160a0810182528281526000602082018190529181018290526060810182905260808101829052600980546001810182559252805190916004027f6e1540171b6c0c960b71a7020d9f60077f6af931a8bbf590da0223dacf75c7af0190620002a0908290600862000658565b50602082015160408301516001600160801b03918216600160801b918316919091021760018381019190915560608401516002840180546001600160801b03191691909316179091556080909201516003909101554614156200032957600f80546001600160a01b03191673c02aaa39b223fe8d0a0e5c4f27ead9083c756cc2179055620003fd565b46603814156200035f57600f80546001600160a01b03191673bb4cdb9cbd36b01bd1cbaebf2de08d9173bc095c179055620003fd565b46608914156200039557600f80546001600160a01b031916730d500b1d8e8ef31e21c99d1db9a6444d3adf1270179055620003fd565b4661a86a1415620003cc57600f80546001600160a01b03191673b31f66aa3c1e785363f0875a1b74e27b85fd66c7179055620003fd565b4660fa1415620003fd57600f80546001600160a01b0319167321be370d5312f44cb42ce377bc9b8a0cef1a4c831790555b5050600f80546001600160a01b0319167314769f96e57b80c66837701de0b43686fb4632de1790555062000854945050505050565b805162000447906002906020840190620005aa565b5050565b6200044782826200046882826200049460201b620028be1760201c565b60008281526005602090815260409091206200048f9183906200294462000538821b17901c565b505050565b60008281526004602090815260408083206001600160a01b038516845290915290205460ff16620004475760008281526004602090815260408083206001600160a01b03851684529091529020805460ff19166001179055620004f43390565b6001600160a01b0316816001600160a01b0316837f2f8788117e7eff1d82e926ec794901d17c78024a50270940304540a733656f0d60405160405180910390a45050565b60006200054f836001600160a01b03841662000558565b90505b92915050565b6000818152600183016020526040812054620005a15750815460018181018455600084815260208082209093018490558454848252828601909352604090209190915562000552565b50600062000552565b828054620005b89062000708565b90600052602060002090601f016020900481019282620005dc576000855562000627565b82601f10620005f757805160ff191683800117855562000627565b8280016001018555821562000627579182015b82811115620006275782518255916020019190600101906200060a565b5062000635929150620006f1565b5090565b6040518061010001604052806008906020820280368337509192915050565b600183019183908215620006275791602002820160005b83821115620006b557835183826101000a81548163ffffffff021916908363ffffffff16021790555092602001926004016020816003010492830192600103026200066f565b8015620006e75782816101000a81549063ffffffff0219169055600401602081600301049283019260010302620006b5565b5050620006359291505b5b80821115620006355760008155600101620006f2565b600181811c908216806200071d57607f821691505b602082108114156200073f57634e487b7160e01b600052602260045260246000fd5b50919050565b600080835481600182811c9150808316806200076257607f831692505b60208084108214156200078357634e487b7160e01b86526022600452602486fd5b8180156200079a5760018114620007ac57620007db565b60ff19861689528489019650620007db565b60008a81526020902060005b86811015620007d35781548b820152908501908301620007b8565b505084890196505b505050505050620007fb81683db4b23e973539b7b760b91b815260090190565b949350505050565b60008160001904831182151516156200082c57634e487b7160e01b600052601160045260246000fd5b500290565b6000826200084f57634e487b7160e01b600052601260045260246000fd5b500490565b615ed080620008646000396000f3fe6080604052600436106102b15760003560e01c806374fcf07111610175578063c09c923b116100dc578063d5d6073711610095578063eca010931161006f578063eca01093146108f2578063f242432a14610912578063f5298aca14610932578063f65247241461095257600080fd5b8063d5d607371461082b578063e06174e41461083e578063e985e9c5146108a957600080fd5b8063c09c923b1461078e578063c790985a14610796578063ca15c873146107b6578063cab4ba82146107d6578063d391014b146107f6578063d547741f1461080b57600080fd5b8063a22cb4651161012e578063a22cb465146106c4578063a60c6e55146106e4578063a6d8ad391461070c578063a7fd40bf1461072c578063b5d11e991461074c578063bd85b0391461076157600080fd5b806374fcf0711461061c578063842980f41461063c5780639010d07c1461064f57806391d148541461066f57806395d89b411461068f5780639bc731fc146106a457600080fd5b8063313ce567116102195780634c3c0eb2116101d25780634c3c0eb2146105375780634e1273f4146105575780634f558e79146105845780635c41dbe0146105b357806361417516146105c657806371858049146105fc57600080fd5b8063313ce5671461048357806334e150ab1461049757806336568abe146104c45780633935ac11146104e457806343fefad41461050457806348b08d621461051757600080fd5b80630c2e075b1161026b5780630c2e075b146103bc5780630e89341c146103dc57806318160ddd146103fc578063248a9ca3146104115780632eb2c2d6146104415780632f2ff15d1461046357600080fd5b8062fdd58e146102bd57806301ffc9a7146102f057806303d604bd1461032057806303ed957f1461034257806306fb1a071461036257806306fdde031461039a57600080fd5b366102b857005b600080fd5b3480156102c957600080fd5b506102dd6102d8366004615158565b610965565b6040519081526020015b60405180910390f35b3480156102fc57600080fd5b5061031061030b36600461519a565b6109b7565b60405190151581526020016102e7565b34801561032c57600080fd5b5061034061033b3660046151b7565b6109f7565b005b34801561034e57600080fd5b5061034061035d3660046151d4565b610b4f565b34801561036e57600080fd5b5061038261037d366004615248565b610bcc565b6040516001600160a01b0390911681526020016102e7565b3480156103a657600080fd5b506103af610c43565b6040516102e791906152b9565b3480156103c857600080fd5b506103406103d73660046152cc565b610cd5565b3480156103e857600080fd5b506103af6103f7366004615248565b610d8c565b34801561040857600080fd5b506102dd610db8565b34801561041d57600080fd5b506102dd61042c366004615248565b60009081526004602052604090206001015490565b34801561044d57600080fd5b5061034061045c366004615421565b5050505050565b34801561046f57600080fd5b5061034061047e3660046154ce565b610e04565b34801561048f57600080fd5b5060126102dd565b3480156104a357600080fd5b506104b76104b2366004615549565b610e2f565b6040516102e7919061558a565b3480156104d057600080fd5b506103406104df3660046154ce565b610fd8565b3480156104f057600080fd5b506103406104ff366004615635565b61100f565b6102dd610512366004615698565b611042565b34801561052357600080fd5b506102dd6105323660046156e2565b611613565b34801561054357600080fd5b506102dd6105523660046151b7565b6116e5565b34801561056357600080fd5b50610577610572366004615723565b611707565b6040516102e791906157da565b34801561059057600080fd5b5061031061059f366004615248565b600090815260036020526040902054151590565b6103406105c1366004615698565b6117e7565b3480156105d257600080fd5b506102dd6105e13660046151b7565b6001600160a01b03166000908152600a602052604090205490565b34801561060857600080fd5b50610340610617366004615158565b6117f3565b34801561062857600080fd5b506102dd610637366004615698565b6119ce565b61034061064a366004615698565b611a56565b34801561065b57600080fd5b5061038261066a36600461581e565b611a64565b34801561067b57600080fd5b5061031061068a3660046154ce565b611a7c565b34801561069b57600080fd5b506103af611aa7565b3480156106b057600080fd5b506103406106bf3660046151b7565b611ab6565b3480156106d057600080fd5b506103406106df36600461584e565b611d4b565b6106f76106f236600461587c565b611ec0565b604080519283526020830191909152016102e7565b34801561071857600080fd5b506104b7610727366004615549565b612105565b34801561073857600080fd5b506103406107473660046158e3565b612273565b34801561075857600080fd5b506103406122ba565b34801561076d57600080fd5b506102dd61077c366004615248565b60009081526003602052604090205490565b61034061230a565b3480156107a257600080fd5b506102dd6107b13660046156e2565b612342565b3480156107c257600080fd5b506102dd6107d1366004615248565b612402565b3480156107e257600080fd5b506103406107f1366004615158565b612419565b34801561080257600080fd5b506102dd600081565b34801561081757600080fd5b506103406108263660046154ce565b6124fd565b610340610839366004615698565b612523565b34801561084a57600080fd5b50601054601154601254601354601454601554610872956001600160a01b0316949392919086565b604080516001600160a01b0390971687526020870195909552938501929092526060840152608083015260a082015260c0016102e7565b3480156108b557600080fd5b506103106108c436600461591f565b6001600160a01b03918216600090815260016020908152604080832093909416825291909152205460ff1690565b3480156108fe57600080fd5b5061034061090d36600461594d565b61253e565b34801561091e57600080fd5b5061034061092d3660046159be565b612583565b34801561093e57600080fd5b5061034061094d366004615a26565b6125d9565b6106f761096036600461587c565b612622565b60006001600160a01b03831661098e57604051636e3b454760e11b815260040160405180910390fd5b506000818152602081815260408083206001600160a01b03861684529091529020545b92915050565b60006001600160e01b03198216636cdb3d1360e11b14806109e857506001600160e01b031982166303a24d0760e21b145b806109b157506109b182612959565b6001600160a01b0381166000908152600a602052604090205481901580610a2b5750600d546001600160a01b038281169116145b15610a515760405162461bcd60e51b8152600401610a4890615a5b565b60405180910390fd5b6001600160a01b0382166000908152600a602052604081205490610a748461298e565b600d54909150600090610a8f906001600160a01b031661298e565b9050600060098481548110610aa657610aa6615a76565b6000918252602090912060016004909202010154610acd906001600160801b031684615aa2565b90508015610ae257610ae28633836000612a1b565b600060098581548110610af757610af7615a76565b6000918252602090912060049091020160010154610b2590600160801b90046001600160801b031684615aa2565b90508015610b4657600d54610b46906001600160a01b031633836000612a1b565b50505050505050565b6000610b5b8133612a5b565b60005b82811015610bc657610bb4848483818110610b7b57610b7b615a76565b90506040020160000135858584818110610b9757610b97615a76565b9050604002016020016020810190610baf91906151b7565b612a94565b80610bbe81615ab9565b915050610b5e565b50505050565b6040516306fb1a0760e01b81526004810182905260009073def1fac7bf08f173d286bbbdcbeeade695129840906306fb1a0790602401602060405180830381865afa158015610c1f573d6000803e3d6000fd5b505050506040513d601f19601f820116820180604052508101906109b19190615ad4565b606060068054610c5290615af1565b80601f0160208091040260200160405190810160405280929190818152602001828054610c7e90615af1565b8015610ccb5780601f10610ca057610100808354040283529160200191610ccb565b820191906000526020600020905b815481529060010190602001808311610cae57829003601f168201915b5050505050905090565b6000610ce18133612a5b565b60408201351580610cf9575081606001358260400135115b80610d0957506101f48260600135115b15610d2757604051637420258d60e11b815260040160405180910390fd5b8160a0013582608001351115610d50576040516375e1700b60e11b815260040160405180910390fd5b6064610d6160208401356002615b26565b10610d7f57604051631457c3c360e11b815260040160405180910390fd5b816010610bc68282615b45565b6060600882604051602001610da2929190615ba2565b6040516020818303038152906040529050919050565b60008060005b6000600381610dcc85615ab9565b94508481526020019081526020016000205411156109b157600082815260036020526040902054610dfd9082615c59565b9050610dbe565b600082815260046020526040902060010154610e208133612a5b565b610e2a8383612a9a565b505050565b60606000826001600160401b03811115610e4b57610e4b6152de565b604051908082528060200260200182016040528015610e8457816020015b610e71614fc3565b815260200190600190039081610e695790505b50905060005b83811015610fd0576009600a6000878785818110610eaa57610eaa615a76565b9050602002016020810190610ebf91906151b7565b6001600160a01b03166001600160a01b031681526020019081526020016000205481548110610ef057610ef0615a76565b60009182526020909120604080516101a0810190915291600402018160a081018260088282826020028201916000905b82829054906101000a900463ffffffff1663ffffffff1681526020019060040190602082600301049283019260010382029150808411610f205750505092845250505060018201546001600160801b038082166020840152600160801b9091048116604083015260028301541660608201526003909101546080909101528251839083908110610fb257610fb2615a76565b60200260200101819052508080610fc890615ab9565b915050610e8a565b509392505050565b6001600160a01b0381163314611001576040516319cd37b760e11b815260040160405180910390fd5b61100b8282612abc565b5050565b600061101b8133612a5b565b825161102e906006906020860190614ff8565b508151610bc6906007906020850190614ff8565b6001600160a01b0384166000908152600a6020526040812054859015806110765750600d546001600160a01b038281169116145b156110935760405162461bcd60e51b8152600401610a4890615a5b565b83804211156110b45760405162461bcd60e51b8152600401610a4890615c71565b6001600160a01b0387166000908152600a60205260409020546110d8883389612ade565b60006110e38961298e565b9050600982815481106110f8576110f8615a76565b600091825260209091206001600490920201015461111f906001600160801b031682615aa2565b9750600188116111415760405162461bcd60e51b8152600401610a4890615c8c565b600d54600090611159906001600160a01b031661298e565b90506000600b548261116b9190615aa2565b905060006111f26009868154811061118557611185615a76565b906000526020600020906004020160010160109054906101000a90046001600160801b03166001600160801b0316600987815481106111c6576111c6615a76565b60009182526020909120600160049092020101546111ed91906001600160801b0316615b26565b612ba2565b905060006112446009878154811061120c5761120c615a76565b600091825260208083206002600490930201919091015489835260039091526040909120546001600160801b03909116908490612c11565b9050801561127557601054604080516020810190915260008152611275916001600160a01b03169088908490612c96565b505060006009858154811061128c5761128c615a76565b600091825260208083206001600490930201919091015487835260039091526040909120546001600160801b03909116906112c7908d615b26565b6112d19190615cbd565b90506112ee89868360405180602001604052806000815250612c96565b60006009868154811061130357611303615a76565b6000918252602090912060016004909202010154600980546001600160801b03909216918890811061133757611337615a76565b600091825260209091206004909102016001015461136590600160801b90046001600160801b03168e615b26565b61136f9190615cbd565b90506001811161139157604051621037cb60e91b815260040160405180910390fd5b600d54604051630bb9ff5d60e01b8152306004820152602481018390526001600160a01b0390911690630bb9ff5d90604401600060405180830381600087803b1580156113dd57600080fd5b505af11580156113f1573d6000803e3d6000fd5b505050508083600b546114049190615c59565b61140e9190615c59565b600b819055508b6009878154811061142857611428615a76565b600091825260209091206001600490920201015461144f91906001600160801b0316615cd1565b6009878154811061146257611462615a76565b6000918252602090912060049091020160010180546001600160801b0319166001600160801b039290921691909117905561149d8184615c59565b600987815481106114b0576114b0615a76565b906000526020600020906004020160010160109054906101000a90046001600160801b03166114df9190615cd1565b600987815481106114f2576114f2615a76565b906000526020600020906004020160010160106101000a8154816001600160801b0302191690836001600160801b0316021790555061157e6009878154811061153d5761153d615a76565b906000526020600020906004020160010160109054906101000a90046001600160801b03166001600160801b0316600988815481106111c6576111c6615a76565b6009878154811061159157611591615a76565b906000526020600020906004020160020160006101000a8154816001600160801b0302191690836001600160801b031602179055507f64b83944e79c3ce8d4c297411de637c3e102d064677aac0c163976ebdcd6f50e8d8d83856040516115fb9493929190615cfc565b60405180910390a1509b9a5050505050505050505050565b600d546000906001600160a01b038581169116148015906116415750600d546001600160a01b038481169116145b15611657576116508483612d6d565b90506116de565b600d546001600160a01b0385811691161480156116825750600d546001600160a01b03848116911614155b15611691576116508383612e60565b600d546001600160a01b038581169116148015906116bd5750600d546001600160a01b03858116911614155b156116de5760006116ce8584612d6d565b90506116da8482612e60565b9150505b9392505050565b6001600160a01b0381166000908152600a60205260408120546109b190612f4a565b6060815183511461172b576040516380dadc2760e01b815260040160405180910390fd5b600083516001600160401b03811115611746576117466152de565b60405190808252806020026020018201604052801561176f578160200160208202803683370190505b50905060005b8451811015610fd0576117ba85828151811061179357611793615a76565b60200260200101518583815181106117ad576117ad615a76565b6020026020010151610965565b8282815181106117cc576117cc615a76565b60209081029190910101526117e081615ab9565b9050611775565b610bc68484848461316e565b6001600160a01b0382166000908152600a602052604090205461181882600019615aa2565b6009828154811061182b5761182b615a76565b906000526020600020906004020160030154111561186f5760405162461bcd60e51b81526020600482015260016024820152600b60fb1b6044820152606401610a48565b816009828154811061188357611883615a76565b906000526020600020906004020160030160008282546118a39190615c59565b9091555050600d546040516318a8ad8760e01b8152336004820152602481018490526001600160a01b03909116906318a8ad8790604401600060405180830381600087803b1580156118f457600080fd5b505af1158015611908573d6000803e3d6000fd5b50505050600080516020615e7b833981519152836009838154811061192f5761192f615a76565b906000526020600020906004020160010160009054906101000a90046001600160801b03166009848154811061196757611967615a76565b906000526020600020906004020160010160109054906101000a90046001600160801b03166009858154811061199f5761199f615a76565b9060005260206000209060040201600301546040516119c19493929190615d22565b60405180910390a1505050565b6001600160a01b0384166000908152600a602052604081205485901580611a025750600d546001600160a01b038281169116145b15611a1f5760405162461bcd60e51b8152600401610a4890615a5b565b8380421115611a405760405162461bcd60e51b8152600401610a4890615c71565b611a4b8787866139f1565b979650505050505050565b610bc6848484600085613ed5565b60008281526005602052604081206116de9083614275565b60009182526004602090815260408084206001600160a01b0393909316845291905290205460ff1690565b606060078054610c5290615af1565b6001600160a01b0381166000908152600a602052604090205481901580611aea5750600d546001600160a01b038281169116145b15611b075760405162461bcd60e51b8152600401610a4890615a5b565b6001600160a01b0382166000908152600a6020526040902054611b298361298e565b60098281548110611b3c57611b3c615a76565b6000918252602082206004919091020160010180546001600160801b0319166001600160801b039390931692909217909155600d54611b83906001600160a01b031661298e565b9050600b548160098481548110611b9c57611b9c615a76565b6000918252602090912060049091020160010154611bca9190600160801b90046001600160801b0316615c59565b611bd49190615aa2565b60098381548110611be757611be7615a76565b906000526020600020906004020160010160106101000a8154816001600160801b0302191690836001600160801b03160217905550600b548160098481548110611c3357611c33615a76565b906000526020600020906004020160030154611c4f9190615c59565b611c599190615aa2565b60098381548110611c6c57611c6c615a76565b90600052602060002090600402016003018190555080600b81905550600080516020615e7b8339815191528460098481548110611cab57611cab615a76565b906000526020600020906004020160010160009054906101000a90046001600160801b031660098581548110611ce357611ce3615a76565b906000526020600020906004020160010160109054906101000a90046001600160801b031660098681548110611d1b57611d1b615a76565b906000526020600020906004020160030154604051611d3d9493929190615d22565b60405180910390a150505050565b6040516306fb1a0760e01b8152600360048201523090339060009073def1fac7bf08f173d286bbbdcbeeade695129840906306fb1a0790602401602060405180830381865afa158015611da2573d6000803e3d6000fd5b505050506040513d601f19601f82011682018060405250810190611dc69190615ad4565b604051630c8b57ef60e21b81526001600160a01b03858116600483015284811660248301529192509082169063322d5fbc906044016020604051808303816000875af1158015611e1a573d6000803e3d6000fd5b505050506040513d601f19601f82011682018060405250810190611e3e9190615d52565b15611e5c57604051630e30cf0f60e01b815260040160405180910390fd5b806001600160a01b031663eef84ba16040518163ffffffff1660e01b8152600401600060405180830381600087803b158015611e9757600080fd5b505af1158015611eab573d6000803e3d6000fd5b5050505061045c611eb93390565b8686614281565b6000808380421115611ee45760405162461bcd60e51b8152600401610a4890615c71565b60018711611f045760405162461bcd60e51b8152600401610a4890615c8c565b600d5433906000906001600160a01b038c8116911614801590611f345750600d546001600160a01b038b81169116145b15611f9657611f438b8a612d6d565b905087811015611f795760405162461bcd60e51b81526020600482015260016024820152600960fb1b6044820152606401610a48565b611f848b838b612ade565b611f918b6000838961316e565b6120f4565b600d546001600160a01b038c81169116148015611fc15750600d546001600160a01b038b8116911614155b1561201e57611fd08a8a612e60565b9050878110156120065760405162461bcd60e51b81526020600482015260016024820152606960f81b6044820152606401610a48565b6120118b838b612ade565b611f918a8260008961316e565b600d546001600160a01b038c811691161480159061204a5750600d546001600160a01b038c8116911614155b156120c857600061205b8c8b612d6d565b90506120678b82612e60565b91508882101561209d5760405162461bcd60e51b81526020600482015260016024820152606960f81b6044820152606401610a48565b6120a88c848c612ade565b6120b58c6000833061316e565b6120c28b8360008a61316e565b506120f4565b60405162461bcd60e51b81526020600482015260016024820152601360fa1b6044820152606401610a48565b979a97995096975050505050505050565b60606000826001600160401b03811115612121576121216152de565b60405190808252806020026020018201604052801561215a57816020015b612147614fc3565b81526020019060019003908161213f5790505b50905060005b83811015610fd057600985858381811061217c5761217c615a76565b905060200201358154811061219357612193615a76565b60009182526020909120604080516101a0810190915291600402018160a081018260088282826020028201916000905b82829054906101000a900463ffffffff1663ffffffff16815260200190600401906020826003010492830192600103820291508084116121c35750505092845250505060018201546001600160801b038082166020840152600160801b909104811660408301526002830154166060820152600390910154608090910152825183908390811061225557612255615a76565b6020026020010181905250808061226b90615ab9565b915050612160565b600061227f8133612a5b565b6122a7826040516020016122939190615d6f565b604051602081830303815290604052614321565b8151610e2a906008906020850190614ff8565b600c546122e6906001600160a01b031669d3c21bcecceda10000006969e10de76676d080000033612523565b600e54612308906001600160a01b031669943b1377290cbd8000008033612523565b565b60006123168133612a5b565b600f5461233f906001600160a01b031666038d7ea4c6800069d3c21bcecceda100000033612523565b50565b600d546000906001600160a01b038581169116148015906123705750600d546001600160a01b038481169116145b1561237f576116508483614334565b600d546001600160a01b0385811691161480156123aa5750600d546001600160a01b03848116911614155b156123b957611650838361441e565b600d546001600160a01b038581169116148015906123e55750600d546001600160a01b03848116911614155b156116de5760006123f6848461441e565b90506116da8582614334565b60008181526005602052604081206109b190614508565b60006124258133612a5b565b6001600160a01b0383166000908152600a6020526040902054600980548491908390811061245557612455615a76565b906000526020600020906004020160030181905550600080516020615e7b833981519152846009838154811061248d5761248d615a76565b906000526020600020906004020160010160009054906101000a90046001600160801b0316600984815481106124c5576124c5615a76565b906000526020600020906004020160010160109054906101000a90046001600160801b031660098581548110611d1b57611d1b615a76565b6000828152600460205260409020600101546125198133612a5b565b610e2a8383612abc565b600061252f8133612a5b565b61045c85858560001986613ed5565b600c80546001600160a01b038087166001600160a01b031992831617909255600d8054868416908316179055600e80549285169290911691909117905561045c6122ba565b6001600160a01b03851633148015906125a357506125a185336108c4565b155b156125c157604051630de6955560e31b815260040160405180910390fd5b6125cc308686614512565b61045c8585858585614697565b6001600160a01b03831633148015906125f957506125f783336108c4565b155b1561261757604051630de6955560e31b815260040160405180910390fd5b610e2a8383836147ad565b60008083804211156126465760405162461bcd60e51b8152600401610a4890615c71565b600d5433906000906001600160a01b038c81169116148015906126765750600d546001600160a01b038b81169116145b156126f8576126858b8a614334565b9050878111156126bb5760405162461bcd60e51b81526020600482015260016024820152604b60f81b6044820152606401610a48565b600181116126db5760405162461bcd60e51b8152600401610a4890615c8c565b6126e68b8383612ade565b6126f38b60008b8961316e565b6128ae565b600d546001600160a01b038c811691161480156127235750600d546001600160a01b038b8116911614155b156127b4576127328a8a61441e565b9050878111156127685760405162461bcd60e51b81526020600482015260016024820152602560f91b6044820152606401610a48565b6001811161279c5760405162461bcd60e51b81526020600482015260016024820152605560f81b6044820152606401610a48565b6127a78b8383612ade565b6126f38a8a60008961316e565b600d546001600160a01b038c81169116148015906127e05750600d546001600160a01b038b8116911614155b156120c85760006127f18b8b61441e565b9050600181116128275760405162461bcd60e51b81526020600482015260016024820152605560f81b6044820152606401610a48565b6128318c82614334565b9150888211156128675760405162461bcd60e51b81526020600482015260016024820152604b60f81b6044820152606401610a48565b600182116128875760405162461bcd60e51b8152600401610a4890615c8c565b6128928c8484612ade565b61289f8c6000833061316e565b6128ac8b8b60008a61316e565b505b9a97995096975050505050505050565b6128c88282611a7c565b61100b5760008281526004602090815260408083206001600160a01b03851684529091529020805460ff191660011790556129003390565b6001600160a01b0316816001600160a01b0316837f2f8788117e7eff1d82e926ec794901d17c78024a50270940304540a733656f0d60405160405180910390a45050565b60006116de836001600160a01b0384166148b0565b60006001600160e01b03198216635a05180f60e01b14806109b157506301ffc9a760e01b6001600160e01b03198316146109b1565b600f546000906001600160a01b03838116911614156129ae575047919050565b6040516370a0823160e01b81523060048201526001600160a01b038316906370a0823190602401602060405180830381865afa1580156129f2573d6000803e3d6000fd5b505050506040513d601f19601f820116820180604052508101906109b19190615d9c565b919050565b6001600160a01b0383163014610bc657600f546001600160a01b0385811691161415612a5057612a4b83836148ff565b610bc6565b610bc684848461498d565b612a658282611a7c565b61100b5760405163151bf58b60e21b81526001600160a01b038216600482015260248101839052604401610a48565b61100b82825b612aa482826128be565b6000828152600560205260409020610e2a9082612944565b612ac68282614a72565b6000828152600560205260409020610e2a9082614ad9565b600f546001600160a01b03848116911614612b41573415612b255760405162461bcd60e51b81526020600482015260016024820152604760f81b6044820152606401610a48565b6001600160a01b0382163014610e2a57610e2a83833084614aee565b600f546001600160a01b0384811691161415610e2a5780341015612b785760405163ac50b70d60e01b815260040160405180910390fd5b80341115610e2a57600f54610e2a906001600160a01b031633612b9b8434615aa2565b6000612a1b565b60006003821115612c035750806000612bbc600283615cbd565b612bc7906001615c59565b90505b81811015612bfd57905080600281612be28186615cbd565b612bec9190615c59565b612bf69190615cbd565b9050612bca565b50919050565b8115612a1657506001919050565b60115460009081908585118015612c285750600086115b8015612c345750600081115b15612c8d57612c438187615b26565b612c4e826064615aa2565b612c589087615b26565b612c629190615c59565b612c6c8787615aa2565b612c768387615b26565b612c809190615b26565b612c8a9190615cbd565b91505b50949350505050565b6001600160a01b038416612cbd57604051633e11866b60e21b815260040160405180910390fd5b33612cdd81600087612cce88614be3565b612cd788614be3565b87614c2e565b6000848152602081815260408083206001600160a01b038916845290915281208054859290612d0d908490615c59565b909155505060408051858152602081018590526001600160a01b0380881692600092918516917fc3d58168c5ae7397731d063d5bbf3d657854427343f4c083240f7aacaa2d0f62910160405180910390a461045c81600087878787614d3a565b6001600160a01b0382166000908152600a602052604081205483901580612da15750600d546001600160a01b038281169116145b15612dbe5760405162461bcd60e51b8152600401610a4890615a5b565b6001600160a01b0384166000908152600a602052604090205460098054612e5791869184908110612df157612df1615a76565b6000918252602090912060016004909202010154600980546001600160801b039092169185908110612e2557612e25615a76565b6000918252602090912060049091020160010154600160801b90046001600160801b0316612e5285612f4a565b614dfe565b95945050505050565b6001600160a01b0382166000908152600a602052604081205483901580612e945750600d546001600160a01b038281169116145b15612eb15760405162461bcd60e51b8152600401610a4890615a5b565b6001600160a01b0384166000908152600a602052604090205460098054612e5791869184908110612ee457612ee4615a76565b906000526020600020906004020160010160109054906101000a90046001600160801b03166001600160801b031660098481548110612f2557612f25615a76565b60009182526020909120600160049092020101546001600160801b0316612710614dfe565b600080612f55614e3a565b905060006008612f66836001615c59565b612f709190615db5565b90506000805b600881101561300d5783811480612f8c57508281145b15612f9657612ffb565b60098681548110612fa957612fa9615a76565b90600052602060002090600402016000018160088110612fcb57612fcb615a76565b600891828204019190066004029054906101000a900463ffffffff1663ffffffff1682612ff89190615c59565b91505b8061300581615ab9565b915050612f76565b50613020678ac7230489e8000082615b26565b905060006402540be4006010600401546009888154811061304357613043615a76565b60009182526020909120600490910201600101546130719190600160801b90046001600160801b0316615b26565b61307b9190615cbd565b905060006402540be4006010600501546009898154811061309e5761309e615a76565b60009182526020909120600490910201600101546130cc9190600160801b90046001600160801b0316615b26565b6130d69190615cbd565b905060008284116130ea5750601354613156565b83831080156130f857508184105b15613149576131078383615aa2565b6012546013546131179190615aa2565b6131218587615aa2565b61312b9190615b26565b6131359190615cbd565b6013546131429190615aa2565b9050613156565b8184111561315657506012545b61316281612710615aa2565b98975050505050505050565b6001600160a01b0384166000908152600a6020526040902054849015806131a25750600d546001600160a01b038281169116145b156131bf5760405162461bcd60e51b8152600401610a4890615a5b565b6001600160a01b038086166000908152600a6020526040812054600b54600d54919390916131ed911661298e565b6131f79190615aa2565b905060006009838154811061320e5761320e615a76565b60009182526020909120600160049092020101546001600160801b03166132348961298e565b61323e9190615aa2565b9050600161324c8383615c59565b1161327d5760405162461bcd60e51b81526020600482015260016024820152601960f91b6044820152606401610a48565b6000600183118015613290575060018211155b6132a25761329d84612f4a565b6132a6565b6127105b90508782600986815481106132bd576132bd615a76565b9060005260206000209060040201600301546132d99190615c59565b101561330b5760405162461bcd60e51b81526020600482015260016024820152602d60f91b6044820152606401610a48565b60006127106009868154811061332357613323615a76565b906000526020600020906004020160010160009054906101000a90046001600160801b03166001600160801b03166127106009888154811061336757613367615a76565b60009182526020909120600490910201600101546133959190600160801b90046001600160801b0316615b26565b61339f9190615b26565b6133a99190615b26565b905060008885600b546133bc9190615c59565b6133c69190615aa2565b905060008986600989815481106133df576133df615a76565b600091825260209091206004909102016001015461340d9190600160801b90046001600160801b0316615c59565b6134179190615aa2565b905060008b8660098a8154811061343057613430615a76565b600091825260209091206001600490920201015461345791906001600160801b0316615c59565b6134619190615aa2565b9050600061347186612710615aa2565b61347b9088615b26565b61348761271084615b26565b6134919190615aa2565b61349d87612710615aa2565b6134a7908a615b26565b6134b361271086615b26565b6134bd9190615aa2565b6134c79190615b26565b9050848110156134fd5760405162461bcd60e51b81526020600482015260016024820152603160f81b6044820152606401610a48565b83600b819055508260098a8154811061351857613518615a76565b906000526020600020906004020160010160106101000a8154816001600160801b0302191690836001600160801b031602179055508160098a8154811061356157613561615a76565b906000526020600020906004020160010160006101000a8154816001600160801b0302191690836001600160801b0316021790555060001960098a815481106135ac576135ac615a76565b9060005260206000209060040201600301541015613628578b8860098b815481106135d9576135d9615a76565b9060005260206000209060040201600301546135f59190615c59565b6135ff9190615aa2565b60098a8154811061361257613612615a76565b9060005260206000209060040201600301819055505b50505050506000613637614e3a565b905060006008613645614e3a565b613650906001615c59565b61365a9190615db5565b9050678ac7230489e8000089111561375a576000613680678ac7230489e800008b615cbd565b6009888154811061369357613693615a76565b906000526020600020906004020160000184600881106136b5576136b5615a76565b600891828204019190066004029054906101000a900463ffffffff1663ffffffff166136e19190615c59565b905063ffffffff81106136f85763ffffffff6136fa565b805b6009888154811061370d5761370d615a76565b9060005260206000209060040201600001846008811061372f5761372f615a76565b600891828204019190066004026101000a81548163ffffffff021916908363ffffffff160217905550505b60016009878154811061376f5761376f615a76565b9060005260206000209060040201600001826008811061379157613791615a76565b600891828204019190066004029054906101000a900463ffffffff1663ffffffff16111561381a576001600987815481106137ce576137ce615a76565b906000526020600020906004020160000182600881106137f0576137f0615a76565b600891828204019190066004026101000a81548163ffffffff021916908363ffffffff1602179055505b891561388b5761382d8b898c6001612a1b565b60006138388c61298e565b90506009878154811061384d5761384d615a76565b60009182526020909120600160049092020101546001600160801b031681146138895760405163a8b538d360e01b815260040160405180910390fd5b505b88156138aa57600d546138aa906001600160a01b0316898b6001612a1b565b7f4ab7f3f4678bf8f6cbe4d85e4007b7c64df8e1d5d97de1628f4a6416f9d1db038b3386888e8e6138dd8a612710615aa2565b604080516001600160a01b03988916815296881660208801528601949094526060850192909252608084015260a083015260c0820152908a1660e08201526101000160405180910390a1600080516020615e7b8339815191528b6009888154811061394a5761394a615a76565b906000526020600020906004020160010160009054906101000a90046001600160801b03166009898154811061398257613982615a76565b906000526020600020906004020160010160109054906101000a90046001600160801b031660098a815481106139ba576139ba615a76565b9060005260206000209060040201600301546040516139dc9493929190615d22565b60405180910390a15050505050505050505050565b6001600160a01b0383166000908152600a602052604081205481613a148661298e565b9050600060098381548110613a2b57613a2b615a76565b6000918252602090912060016004909202010154613a52906001600160801b031683615aa2565b600b54600d54919250600091613a70906001600160a01b031661298e565b613a7a9190615aa2565b60008581526003602052604081205460098054939450909283918b9189908110613aa657613aa6615a76565b6000918252602090912060016004909202010154613acd91906001600160801b0316615b26565b613ad79190615cbd565b90506000828a60098981548110613af057613af0615a76565b6000918252602090912060049091020160010154613b1e9190600160801b90046001600160801b0316615b26565b613b289190615cbd565b90506000613b8360098981548110613b4257613b42615a76565b906000526020600020906004020160010160109054906101000a90046001600160801b03166001600160801b031660098a815481106111c6576111c6615a76565b90506000613bc160098a81548110613b9d57613b9d615a76565b60009182526020909120600260049092020101546001600160801b03168387612c11565b90508015613bf257601054604080516020810190915260008152613bf2916001600160a01b0316908b908490612c96565b8286600b54613c019190615c59565b613c0b9190615aa2565b600b81905550838760098b81548110613c2657613c26615a76565b6000918252602090912060016004909202010154613c4d91906001600160801b0316615cd1565b613c579190615dc9565b60098a81548110613c6a57613c6a615a76565b906000526020600020906004020160010160006101000a8154816001600160801b0302191690836001600160801b03160217905550828660098b81548110613cb457613cb4615a76565b906000526020600020906004020160010160109054906101000a90046001600160801b0316613ce39190615cd1565b613ced9190615dc9565b60098a81548110613d0057613d00615a76565b906000526020600020906004020160010160106101000a8154816001600160801b0302191690836001600160801b03160217905550613d8c60098a81548110613d4b57613d4b615a76565b906000526020600020906004020160010160109054906101000a90046001600160801b03166001600160801b031660098b815481106111c6576111c6615a76565b60098a81548110613d9f57613d9f615a76565b906000526020600020906004020160020160006101000a8154816001600160801b0302191690836001600160801b03160217905550613ddf338a8e6147ad565b600d546040516318a8ad8760e01b8152306004820152602481018590526001600160a01b03909116906318a8ad8790604401600060405180830381600087803b158015613e2b57600080fd5b505af1158015613e3f573d6000803e3d6000fd5b505050505050613e528b8a846001612a1b565b6000613e5d8c61298e565b905086613e6a8483615c59565b14613e885760405163a8b538d360e01b815260040160405180910390fd5b7f1dc8bb69df2b8e91fbdcbfcf93d951b3f0000f085a95fe3f7946d6161439245d8c84848e604051613ebd9493929190615cfc565b60405180910390a150909a9950505050505050505050565b6001600160a01b0385166000908152600a6020526040902054859015613f0e5760405163402670df60e01b815260040160405180910390fd5b613f19863387612ade565b600d54604051630bb9ff5d60e01b8152306004820152602481018690526001600160a01b0390911690630bb9ff5d90604401600060405180830381600087803b158015613f6557600080fd5b505af1158015613f79573d6000803e3d6000fd5b50505050613f868661298e565b945060018511613fa85760405162461bcd60e51b8152600401610a4890615c8c565b6000613fb76111ed8688615b26565b9050613fc161507c565b60005b6008811015614003576001828260088110613fe157613fe1615a76565b63ffffffff909216602092909202015280613ffb81615ab9565b915050613fc4565b506040805160a0810182528281526001600160801b03808a166020830152888116928201929092529083166060820152608081018690526009805460018101825560009190915281518290600483027f6e1540171b6c0c960b71a7020d9f60077f6af931a8bbf590da0223dacf75c7af0190614082908290600861509b565b506020828101516040808501516001600160801b03928316600160801b9184169190910217600185015560608501516002850180546001600160801b03191691909316179091556080909301516003909201919091556001600160a01b038c166000908152600a909152908120829055600b80548a9290614104908490615c59565b9250508190555061412a61dead826103e860405180602001604052806000815250612c96565b60006103e861413c6111ed8b8d615b26565b6141469190615aa2565b905061416387838360405180602001604052806000815250612c96565b604080516001600160a01b038d168152602081018490527f17aa8d0e85db1d0531a8181b5bb84e1d4ed744db1cadd8814acd3d181ff30137910160405180910390a17f64b83944e79c3ce8d4c297411de637c3e102d064677aac0c163976ebdcd6f50e8b8b8b846040516141da9493929190615cfc565b60405180910390a1600080516020615e7b8339815191528b6009848154811061420557614205615a76565b906000526020600020906004020160010160009054906101000a90046001600160801b03166009858154811061423d5761423d615a76565b906000526020600020906004020160010160109054906101000a90046001600160801b0316600986815481106139ba576139ba615a76565b60006116de8383614e59565b816001600160a01b0316836001600160a01b031614156142b45760405163180a65b960e31b815260040160405180910390fd5b6001600160a01b03838116600081815260016020908152604080832094871680845294825291829020805460ff191686151590811790915591519182527f17307eab39ab6107e8899845ad3d59bd9653f200f220920489ca2b5937696c31910160405180910390a3505050565b805161100b906002906020840190614ff8565b6001600160a01b0382166000908152600a6020526040812054839015806143685750600d546001600160a01b038281169116145b156143855760405162461bcd60e51b8152600401610a4890615a5b565b6001600160a01b0384166000908152600a602052604090205460098054612e57918691849081106143b8576143b8615a76565b6000918252602090912060016004909202010154600980546001600160801b0390921691859081106143ec576143ec615a76565b6000918252602090912060049091020160010154600160801b90046001600160801b031661441985612f4a565b614e83565b6001600160a01b0382166000908152600a6020526040812054839015806144525750600d546001600160a01b038281169116145b1561446f5760405162461bcd60e51b8152600401610a4890615a5b565b6001600160a01b0384166000908152600a602052604090205460098054612e57918691849081106144a2576144a2615a76565b906000526020600020906004020160010160109054906101000a90046001600160801b03166001600160801b0316600984815481106144e3576144e3615a76565b60009182526020909120600160049092020101546001600160801b0316612710614e83565b60006109b1825490565b6040516306fb1a0760e01b81526003600482015260009073def1fac7bf08f173d286bbbdcbeeade695129840906306fb1a0790602401602060405180830381865afa158015614565573d6000803e3d6000fd5b505050506040513d601f19601f820116820180604052508101906145899190615ad4565b604051630c8b57ef60e21b81526001600160a01b03868116600483015285811660248301529192509082169063322d5fbc906044016020604051808303816000875af11580156145dd573d6000803e3d6000fd5b505050506040513d601f19601f820116820180604052508101906146019190615d52565b61461e57604051633026799360e11b815260040160405180910390fd5b6001600160a01b0382163014610bc657604051633973256b60e11b81526001600160a01b03858116600483015283811660248301528216906372e64ad690604401600060405180830381600087803b15801561467957600080fd5b505af115801561468d573d6000803e3d6000fd5b5050505050505050565b6001600160a01b0384166146be576040516307cc786960e31b815260040160405180910390fd5b336146ce818787612cce88614be3565b6000848152602081815260408083206001600160a01b038a1684529091529020548381101561471057604051632d688f6160e11b815260040160405180910390fd5b6000858152602081815260408083206001600160a01b038b811685529252808320878503905590881682528120805486929061474d908490615c59565b909155505060408051868152602081018690526001600160a01b03808916928a821692918616917fc3d58168c5ae7397731d063d5bbf3d657854427343f4c083240f7aacaa2d0f62910160405180910390a4610b46828888888888614d3a565b6001600160a01b0383166147d45760405163edba591d60e01b815260040160405180910390fd5b33614803818560006147e587614be3565b6147ee87614be3565b60405180602001604052806000815250614c2e565b6000838152602081815260408083206001600160a01b03881684529091529020548281101561484557604051631cfb29e160e21b815260040160405180910390fd5b6000848152602081815260408083206001600160a01b03898116808652918452828520888703905582518981529384018890529092908616917fc3d58168c5ae7397731d063d5bbf3d657854427343f4c083240f7aacaa2d0f62910160405180910390a45050505050565b60008181526001830160205260408120546148f7575081546001818101845560008481526020808220909301849055845484825282860190935260409020919091556109b1565b5060006109b1565b604080516000808252602082019092526001600160a01b0384169083906040516149299190615df1565b60006040518083038185875af1925050503d8060008114614966576040519150601f19603f3d011682016040523d82523d6000602084013e61496b565b606091505b5050905080610e2a576040516330667aab60e01b815260040160405180910390fd5b604080516001600160a01b038481166024830152604480830185905283518084039091018152606490920183526020820180516001600160e01b031663a9059cbb60e01b17905291516000928392908716916149e99190615df1565b6000604051808303816000865af19150503d8060008114614a26576040519150601f19603f3d011682016040523d82523d6000602084013e614a2b565b606091505b5091509150818015614a55575080511580614a55575080806020019051810190614a559190615d52565b61045c57604051637805da5360e01b815260040160405180910390fd5b614a7c8282611a7c565b1561100b5760008281526004602090815260408083206001600160a01b0385168085529252808320805460ff1916905551339285917ff6391f5c32d9c69d2a47ea670b442974b53935d1edc7fd64eb21e047a839171b9190a45050565b60006116de836001600160a01b038416614ed0565b604080516001600160a01b0385811660248301528481166044830152606480830185905283518084039091018152608490920183526020820180516001600160e01b03166323b872dd60e01b1790529151600092839290881691614b529190615df1565b6000604051808303816000865af19150503d8060008114614b8f576040519150601f19603f3d011682016040523d82523d6000602084013e614b94565b606091505b5091509150818015614bbe575080511580614bbe575080806020019051810190614bbe9190615d52565b614bdb57604051636050fe2960e01b815260040160405180910390fd5b505050505050565b60408051600180825281830190925260609160009190602080830190803683370190505090508281600081518110614c1d57614c1d615a76565b602090810291909101015292915050565b6001600160a01b038516614cb55760005b8351811015614cb357828181518110614c5a57614c5a615a76565b602002602001015160036000868481518110614c7857614c78615a76565b602002602001015181526020019081526020016000206000828254614c9d9190615c59565b90915550614cac905081615ab9565b9050614c3f565b505b6001600160a01b038416614bdb5760005b8351811015610b4657828181518110614ce157614ce1615a76565b602002602001015160036000868481518110614cff57614cff615a76565b602002602001015181526020019081526020016000206000828254614d249190615aa2565b90915550614d33905081615ab9565b9050614cc6565b833b15614bdb5760405163f23a6e6160e01b81526001600160a01b0385169063f23a6e6190614d759089908990889088908890600401615e0d565b6020604051808303816000875af1925050508015614db0575060408051601f3d908101601f19168201909252614dad91810190615e47565b60015b614dcd576040516322ea035960e11b815260040160405180910390fd5b6001600160e01b0319811663f23a6e6160e01b14610b46576040516315d5293760e11b815260040160405180910390fd5b600080614e0b8387615b26565b9050600081614e1c61271088615b26565b614e269190615c59565b614e308387615b26565b611a4b9190615cbd565b60006008614e4a61384042615cbd565b614e549190615db5565b905090565b6000826000018281548110614e7057614e70615a76565b9060005260206000200154905092915050565b600080614e908685615aa2565b614e9a9084615b26565b612710614ea78888615b26565b614eb19190615b26565b614ebb9190615cbd565b614ec6906001615c59565b9695505050505050565b60008181526001830160205260408120548015614fb9576000614ef4600183615aa2565b8554909150600090614f0890600190615aa2565b9050818114614f6d576000866000018281548110614f2857614f28615a76565b9060005260206000200154905080876000018481548110614f4b57614f4b615a76565b6000918252602080832090910192909255918252600188019052604090208390555b8554869080614f7e57614f7e615e64565b6001900381819060005260206000200160009055905585600101600086815260200190815260200160002060009055600193505050506109b1565b60009150506109b1565b6040518060a00160405280614fd661507c565b8152600060208201819052604082018190526060820181905260809091015290565b82805461500490615af1565b90600052602060002090601f016020900481019282615026576000855561506c565b82601f1061503f57805160ff191683800117855561506c565b8280016001018555821561506c579182015b8281111561506c578251825591602001919060010190615051565b5061507892915061512e565b5090565b6040518061010001604052806008906020820280368337509192915050565b60018301918390821561506c5791602002820160005b838211156150f557835183826101000a81548163ffffffff021916908363ffffffff16021790555092602001926004016020816003010492830192600103026150b1565b80156151255782816101000a81549063ffffffff02191690556004016020816003010492830192600103026150f5565b50506150789291505b5b80821115615078576000815560010161512f565b6001600160a01b038116811461233f57600080fd5b6000806040838503121561516b57600080fd5b823561517681615143565b946020939093013593505050565b6001600160e01b03198116811461233f57600080fd5b6000602082840312156151ac57600080fd5b81356116de81615184565b6000602082840312156151c957600080fd5b81356116de81615143565b600080602083850312156151e757600080fd5b82356001600160401b03808211156151fe57600080fd5b818501915085601f83011261521257600080fd5b81358181111561522157600080fd5b8660208260061b850101111561523657600080fd5b60209290920196919550909350505050565b60006020828403121561525a57600080fd5b5035919050565b60005b8381101561527c578181015183820152602001615264565b83811115610bc65750506000910152565b600081518084526152a5816020860160208601615261565b601f01601f19169290920160200192915050565b6020815260006116de602083018461528d565b600060c08284031215612bfd57600080fd5b634e487b7160e01b600052604160045260246000fd5b604051601f8201601f191681016001600160401b038111828210171561531c5761531c6152de565b604052919050565b60006001600160401b0382111561533d5761533d6152de565b5060051b60200190565b600082601f83011261535857600080fd5b8135602061536d61536883615324565b6152f4565b82815260059290921b8401810191818101908684111561538c57600080fd5b8286015b848110156153a75780358352918301918301615390565b509695505050505050565b600082601f8301126153c357600080fd5b81356001600160401b038111156153dc576153dc6152de565b6153ef601f8201601f19166020016152f4565b81815284602083860101111561540457600080fd5b816020850160208301376000918101602001919091529392505050565b600080600080600060a0868803121561543957600080fd5b853561544481615143565b9450602086013561545481615143565b935060408601356001600160401b038082111561547057600080fd5b61547c89838a01615347565b9450606088013591508082111561549257600080fd5b61549e89838a01615347565b935060808801359150808211156154b457600080fd5b506154c1888289016153b2565b9150509295509295909350565b600080604083850312156154e157600080fd5b8235915060208301356154f381615143565b809150509250929050565b60008083601f84011261551057600080fd5b5081356001600160401b0381111561552757600080fd5b6020830191508360208260051b850101111561554257600080fd5b9250929050565b6000806020838503121561555c57600080fd5b82356001600160401b0381111561557257600080fd5b61557e858286016154fe565b90969095509350505050565b60208082528251828201819052600091906040908185019086840185805b83811015615627578251805186845b60088110156155da57825163ffffffff168252918a0191908a01906001016155b7565b505050878101516001600160801b039081166101008801528782015181166101208801526060820151166101408701526080015161016086015261018090940193918601916001016155a8565b509298975050505050505050565b6000806040838503121561564857600080fd5b82356001600160401b038082111561565f57600080fd5b61566b868387016153b2565b9350602085013591508082111561568157600080fd5b5061568e858286016153b2565b9150509250929050565b600080600080608085870312156156ae57600080fd5b84356156b981615143565b9350602085013592506040850135915060608501356156d781615143565b939692955090935050565b6000806000606084860312156156f757600080fd5b833561570281615143565b9250602084013561571281615143565b929592945050506040919091013590565b6000806040838503121561573657600080fd5b82356001600160401b038082111561574d57600080fd5b818501915085601f83011261576157600080fd5b8135602061577161536883615324565b82815260059290921b8401810191818101908984111561579057600080fd5b948201945b838610156157b75785356157a881615143565b82529482019490820190615795565b965050860135925050808211156157cd57600080fd5b5061568e85828601615347565b6020808252825182820181905260009190848201906040850190845b81811015615812578351835292840192918401916001016157f6565b50909695505050505050565b6000806040838503121561583157600080fd5b50508035926020909101359150565b801515811461233f57600080fd5b6000806040838503121561586157600080fd5b823561586c81615143565b915060208301356154f381615840565b60008060008060008060c0878903121561589557600080fd5b86356158a081615143565b955060208701356158b081615143565b945060408701359350606087013592506080870135915060a08701356158d581615143565b809150509295509295509295565b6000602082840312156158f557600080fd5b81356001600160401b0381111561590b57600080fd5b615917848285016153b2565b949350505050565b6000806040838503121561593257600080fd5b823561593d81615143565b915060208301356154f381615143565b600080600080600060a0868803121561596557600080fd5b853561597081615143565b9450602086013561598081615143565b9350604086013561599081615143565b925060608601356159a081615143565b915060808601356159b081615143565b809150509295509295909350565b600080600080600060a086880312156159d657600080fd5b85356159e181615143565b945060208601356159f181615143565b9350604086013592506060860135915060808601356001600160401b03811115615a1a57600080fd5b6154c1888289016153b2565b600080600060608486031215615a3b57600080fd5b8335615a4681615143565b95602085013595506040909401359392505050565b6020808252600190820152604360f81b604082015260600190565b634e487b7160e01b600052603260045260246000fd5b634e487b7160e01b600052601160045260246000fd5b600082821015615ab457615ab4615a8c565b500390565b6000600019821415615acd57615acd615a8c565b5060010190565b600060208284031215615ae657600080fd5b81516116de81615143565b600181811c90821680615b0557607f821691505b60208210811415612bfd57634e487b7160e01b600052602260045260246000fd5b6000816000190483118215151615615b4057615b40615a8c565b500290565b8135615b5081615143565b81546001600160a01b0319166001600160a01b03919091161781556020820135600182015560408201356002820155606082013560038201556080820135600482015560a09190910135600590910155565b600080845481600182811c915080831680615bbe57607f831692505b6020808410821415615bde57634e487b7160e01b86526022600452602486fd5b818015615bf25760018114615c0357615c30565b60ff19861689528489019650615c30565b60008b81526020902060005b86811015615c285781548b820152908501908301615c0f565b505084890196505b50888652615c4b81870164173539b7b760d91b815260050190565b9a9950505050505050505050565b60008219821115615c6c57615c6c615a8c565b500190565b6020808252600190820152601160fa1b604082015260600190565b6020808252600190820152602360f91b604082015260600190565b634e487b7160e01b600052601260045260246000fd5b600082615ccc57615ccc615ca7565b500490565b60006001600160801b03808316818516808303821115615cf357615cf3615a8c565b01949350505050565b6001600160a01b0394909416845260208401929092526040830152606082015260800190565b6001600160a01b039490941684526001600160801b03928316602085015291166040830152606082015260800190565b600060208284031215615d6457600080fd5b81516116de81615840565b60008251615d81818460208701615261565b683db4b23e973539b7b760b91b920191825250600901919050565b600060208284031215615dae57600080fd5b5051919050565b600082615dc457615dc4615ca7565b500690565b60006001600160801b0383811690831681811015615de957615de9615a8c565b039392505050565b60008251615e03818460208701615261565b9190910192915050565b6001600160a01b03868116825285166020820152604081018490526060810183905260a060808201819052600090611a4b9083018461528d565b600060208284031215615e5957600080fd5b81516116de81615184565b634e487b7160e01b600052603160045260246000fdfe51ab1232a73b82b6b0acb0fa91b834cf6e258a1858c4e23c72ce97241c71aa0da264697066735822122075e12350273c02e1d573fc062f5ed56cda8ceeb2e2f2065cba283107f205a1eb64736f6c634300080b003368747470733a2f2f646174612e63657262792e66692f4365726279537761702f76312f",
			"opcodes": "PUSH1 0xC0 PUSH1 0x40 MSTORE PUSH1 0xD PUSH1 0x80 DUP2 SWAP1 MSTORE PUSH13 0x43657262792053776170205631 PUSH1 0x98 SHL PUSH1 0xA0 SWAP1 DUP2 MSTORE PUSH3 0x30 SWAP2 PUSH1 0x6 SWAP2 SWAP1 PUSH3 0x5AA JUMP JUMPDEST POP PUSH1 0x40 DUP1 MLOAD DUP1 DUP3 ADD SWAP1 SWAP2 MSTORE PUSH1 0xD DUP1 DUP3 MSTORE PUSH13 0x43455242595F535741505F5631 PUSH1 0x98 SHL PUSH1 0x20 SWAP1 SWAP3 ADD SWAP2 DUP3 MSTORE PUSH3 0x67 SWAP2 PUSH1 0x7 SWAP2 PUSH3 0x5AA JUMP JUMPDEST POP PUSH1 0x40 MLOAD DUP1 PUSH1 0x60 ADD PUSH1 0x40 MSTORE DUP1 PUSH1 0x23 DUP2 MSTORE PUSH1 0x20 ADD PUSH3 0x6734 PUSH1 0x23 SWAP2 CODECOPY DUP1 MLOAD PUSH3 0x98 SWAP2 PUSH1 0x8 SWAP2 PUSH1 0x20 SWAP1 SWAP2 ADD SWAP1 PUSH3 0x5AA JUMP JUMPDEST POP PUSH1 0xC DUP1 SLOAD PUSH1 0x1 PUSH1 0x1 PUSH1 0xA0 SHL SUB NOT SWAP1 DUP2 AND PUSH20 0xE7126C0FB4B1F5F79E5BBEC3948139DCF348B49C OR SWAP1 SWAP2 SSTORE PUSH1 0xD DUP1 SLOAD DUP3 AND PUSH20 0xFC5025C764CE34DF352757E82F7B5C4DF39A836 OR SWAP1 SSTORE PUSH1 0xE DUP1 SLOAD DUP3 AND PUSH20 0x7412F2CD820D1E63BD130B0FFEBE44C4E5A47D71 OR SWAP1 SSTORE PUSH1 0xF DUP1 SLOAD SWAP1 SWAP2 AND PUSH20 0x14769F96E57B80C66837701DE0B43686FB4632DE OR SWAP1 SSTORE CALLVALUE DUP1 ISZERO PUSH3 0x12A JUMPI PUSH1 0x0 DUP1 REVERT JUMPDEST POP PUSH1 0x8 PUSH1 0x40 MLOAD PUSH1 0x20 ADD PUSH3 0x13F SWAP2 SWAP1 PUSH3 0x745 JUMP JUMPDEST PUSH1 0x40 DUP1 MLOAD PUSH1 0x1F NOT DUP2 DUP5 SUB ADD DUP2 MSTORE SWAP2 SWAP1 MSTORE PUSH3 0x15A DUP2 PUSH3 0x432 JUMP JUMPDEST POP PUSH3 0x168 PUSH1 0x0 CALLER PUSH3 0x44B JUMP JUMPDEST PUSH20 0xDEF78A28C78A461598D948BC0C689CE88F812AD8 PUSH1 0x0 PUSH1 0x64 PUSH3 0x18E DUP2 PUSH1 0x14 PUSH3 0x803 JUMP JUMPDEST PUSH3 0x19A SWAP2 SWAP1 PUSH3 0x831 JUMP JUMPDEST SWAP1 POP PUSH4 0x51A67366 PUSH1 0x1 PUSH1 0xC8 DUP3 PUSH1 0x0 DUP4 PUSH3 0x1B5 DUP5 DUP5 PUSH3 0x803 JUMP JUMPDEST PUSH3 0x1C1 SWAP2 SWAP1 PUSH3 0x831 JUMP JUMPDEST PUSH1 0x40 DUP1 MLOAD PUSH1 0xC0 DUP2 ADD DUP3 MSTORE PUSH1 0x1 PUSH1 0x1 PUSH1 0xA0 SHL SUB DUP11 AND DUP1 DUP3 MSTORE PUSH1 0x20 DUP3 ADD DUP11 SWAP1 MSTORE SWAP2 DUP2 ADD DUP8 SWAP1 MSTORE PUSH1 0x60 DUP2 ADD DUP7 SWAP1 MSTORE PUSH1 0x80 DUP2 ADD DUP6 SWAP1 MSTORE PUSH1 0xA0 ADD DUP3 SWAP1 MSTORE PUSH1 0x10 DUP1 SLOAD PUSH1 0x1 PUSH1 0x1 PUSH1 0xA0 SHL SUB NOT AND SWAP1 SWAP2 OR SWAP1 SSTORE PUSH1 0x11 DUP8 SWAP1 SSTORE PUSH1 0x12 DUP6 SWAP1 SSTORE PUSH1 0x13 DUP5 SWAP1 SSTORE PUSH1 0x14 DUP4 SWAP1 SSTORE PUSH1 0x15 DUP2 SWAP1 SSTORE SWAP1 POP PUSH3 0x231 PUSH3 0x639 JUMP JUMPDEST PUSH1 0x40 DUP1 MLOAD PUSH1 0xA0 DUP2 ADD DUP3 MSTORE DUP3 DUP2 MSTORE PUSH1 0x0 PUSH1 0x20 DUP3 ADD DUP2 SWAP1 MSTORE SWAP2 DUP2 ADD DUP3 SWAP1 MSTORE PUSH1 0x60 DUP2 ADD DUP3 SWAP1 MSTORE PUSH1 0x80 DUP2 ADD DUP3 SWAP1 MSTORE PUSH1 0x9 DUP1 SLOAD PUSH1 0x1 DUP2 ADD DUP3 SSTORE SWAP3 MSTORE DUP1 MLOAD SWAP1 SWAP2 PUSH1 0x4 MUL PUSH32 0x6E1540171B6C0C960B71A7020D9F60077F6AF931A8BBF590DA0223DACF75C7AF ADD SWAP1 PUSH3 0x2A0 SWAP1 DUP3 SWAP1 PUSH1 0x8 PUSH3 0x658 JUMP JUMPDEST POP PUSH1 0x20 DUP3 ADD MLOAD PUSH1 0x40 DUP4 ADD MLOAD PUSH1 0x1 PUSH1 0x1 PUSH1 0x80 SHL SUB SWAP2 DUP3 AND PUSH1 0x1 PUSH1 0x80 SHL SWAP2 DUP4 AND SWAP2 SWAP1 SWAP2 MUL OR PUSH1 0x1 DUP4 DUP2 ADD SWAP2 SWAP1 SWAP2 SSTORE PUSH1 0x60 DUP5 ADD MLOAD PUSH1 0x2 DUP5 ADD DUP1 SLOAD PUSH1 0x1 PUSH1 0x1 PUSH1 0x80 SHL SUB NOT AND SWAP2 SWAP1 SWAP4 AND OR SWAP1 SWAP2 SSTORE PUSH1 0x80 SWAP1 SWAP3 ADD MLOAD PUSH1 0x3 SWAP1 SWAP2 ADD SSTORE CHAINID EQ ISZERO PUSH3 0x329 JUMPI PUSH1 0xF DUP1 SLOAD PUSH1 0x1 PUSH1 0x1 PUSH1 0xA0 SHL SUB NOT AND PUSH20 0xC02AAA39B223FE8D0A0E5C4F27EAD9083C756CC2 OR SWAP1 SSTORE PUSH3 0x3FD JUMP JUMPDEST CHAINID PUSH1 0x38 EQ ISZERO PUSH3 0x35F JUMPI PUSH1 0xF DUP1 SLOAD PUSH1 0x1 PUSH1 0x1 PUSH1 0xA0 SHL SUB NOT AND PUSH20 0xBB4CDB9CBD36B01BD1CBAEBF2DE08D9173BC095C OR SWAP1 SSTORE PUSH3 0x3FD JUMP JUMPDEST CHAINID PUSH1 0x89 EQ ISZERO PUSH3 0x395 JUMPI PUSH1 0xF DUP1 SLOAD PUSH1 0x1 PUSH1 0x1 PUSH1 0xA0 SHL SUB NOT AND PUSH20 0xD500B1D8E8EF31E21C99D1DB9A6444D3ADF1270 OR SWAP1 SSTORE PUSH3 0x3FD JUMP JUMPDEST CHAINID PUSH2 0xA86A EQ ISZERO PUSH3 0x3CC JUMPI PUSH1 0xF DUP1 SLOAD PUSH1 0x1 PUSH1 0x1 PUSH1 0xA0 SHL SUB NOT AND PUSH20 0xB31F66AA3C1E785363F0875A1B74E27B85FD66C7 OR SWAP1 SSTORE PUSH3 0x3FD JUMP JUMPDEST CHAINID PUSH1 0xFA EQ ISZERO PUSH3 0x3FD JUMPI PUSH1 0xF DUP1 SLOAD PUSH1 0x1 PUSH1 0x1 PUSH1 0xA0 SHL SUB NOT AND PUSH20 0x21BE370D5312F44CB42CE377BC9B8A0CEF1A4C83 OR SWAP1 SSTORE JUMPDEST POP POP PUSH1 0xF DUP1 SLOAD PUSH1 0x1 PUSH1 0x1 PUSH1 0xA0 SHL SUB NOT AND PUSH20 0x14769F96E57B80C66837701DE0B43686FB4632DE OR SWAP1 SSTORE POP PUSH3 0x854 SWAP5 POP POP POP POP POP JUMP JUMPDEST DUP1 MLOAD PUSH3 0x447 SWAP1 PUSH1 0x2 SWAP1 PUSH1 0x20 DUP5 ADD SWAP1 PUSH3 0x5AA JUMP JUMPDEST POP POP JUMP JUMPDEST PUSH3 0x447 DUP3 DUP3 PUSH3 0x468 DUP3 DUP3 PUSH3 0x494 PUSH1 0x20 SHL PUSH3 0x28BE OR PUSH1 0x20 SHR JUMP JUMPDEST PUSH1 0x0 DUP3 DUP2 MSTORE PUSH1 0x5 PUSH1 0x20 SWAP1 DUP2 MSTORE PUSH1 0x40 SWAP1 SWAP2 KECCAK256 PUSH3 0x48F SWAP2 DUP4 SWAP1 PUSH3 0x2944 PUSH3 0x538 DUP3 SHL OR SWAP1 SHR JUMP JUMPDEST POP POP POP JUMP JUMPDEST PUSH1 0x0 DUP3 DUP2 MSTORE PUSH1 0x4 PUSH1 0x20 SWAP1 DUP2 MSTORE PUSH1 0x40 DUP1 DUP4 KECCAK256 PUSH1 0x1 PUSH1 0x1 PUSH1 0xA0 SHL SUB DUP6 AND DUP5 MSTORE SWAP1 SWAP2 MSTORE SWAP1 KECCAK256 SLOAD PUSH1 0xFF AND PUSH3 0x447 JUMPI PUSH1 0x0 DUP3 DUP2 MSTORE PUSH1 0x4 PUSH1 0x20 SWAP1 DUP2 MSTORE PUSH1 0x40 DUP1 DUP4 KECCAK256 PUSH1 0x1 PUSH1 0x1 PUSH1 0xA0 SHL SUB DUP6 AND DUP5 MSTORE SWAP1 SWAP2 MSTORE SWAP1 KECCAK256 DUP1 SLOAD PUSH1 0xFF NOT AND PUSH1 0x1 OR SWAP1 SSTORE PUSH3 0x4F4 CALLER SWAP1 JUMP JUMPDEST PUSH1 0x1 PUSH1 0x1 PUSH1 0xA0 SHL SUB AND DUP2 PUSH1 0x1 PUSH1 0x1 PUSH1 0xA0 SHL SUB AND DUP4 PUSH32 0x2F8788117E7EFF1D82E926EC794901D17C78024A50270940304540A733656F0D PUSH1 0x40 MLOAD PUSH1 0x40 MLOAD DUP1 SWAP2 SUB SWAP1 LOG4 POP POP JUMP JUMPDEST PUSH1 0x0 PUSH3 0x54F DUP4 PUSH1 0x1 PUSH1 0x1 PUSH1 0xA0 SHL SUB DUP5 AND PUSH3 0x558 JUMP JUMPDEST SWAP1 POP JUMPDEST SWAP3 SWAP2 POP POP JUMP JUMPDEST PUSH1 0x0 DUP2 DUP2 MSTORE PUSH1 0x1 DUP4 ADD PUSH1 0x20 MSTORE PUSH1 0x40 DUP2 KECCAK256 SLOAD PUSH3 0x5A1 JUMPI POP DUP2 SLOAD PUSH1 0x1 DUP2 DUP2 ADD DUP5 SSTORE PUSH1 0x0 DUP5 DUP2 MSTORE PUSH1 0x20 DUP1 DUP3 KECCAK256 SWAP1 SWAP4 ADD DUP5 SWAP1 SSTORE DUP5 SLOAD DUP5 DUP3 MSTORE DUP3 DUP7 ADD SWAP1 SWAP4 MSTORE PUSH1 0x40 SWAP1 KECCAK256 SWAP2 SWAP1 SWAP2 SSTORE PUSH3 0x552 JUMP JUMPDEST POP PUSH1 0x0 PUSH3 0x552 JUMP JUMPDEST DUP3 DUP1 SLOAD PUSH3 0x5B8 SWAP1 PUSH3 0x708 JUMP JUMPDEST SWAP1 PUSH1 0x0 MSTORE PUSH1 0x20 PUSH1 0x0 KECCAK256 SWAP1 PUSH1 0x1F ADD PUSH1 0x20 SWAP1 DIV DUP2 ADD SWAP3 DUP3 PUSH3 0x5DC JUMPI PUSH1 0x0 DUP6 SSTORE PUSH3 0x627 JUMP JUMPDEST DUP3 PUSH1 0x1F LT PUSH3 0x5F7 JUMPI DUP1 MLOAD PUSH1 0xFF NOT AND DUP4 DUP1 ADD OR DUP6 SSTORE PUSH3 0x627 JUMP JUMPDEST DUP3 DUP1 ADD PUSH1 0x1 ADD DUP6 SSTORE DUP3 ISZERO PUSH3 0x627 JUMPI SWAP2 DUP3 ADD JUMPDEST DUP3 DUP2 GT ISZERO PUSH3 0x627 JUMPI DUP3 MLOAD DUP3 SSTORE SWAP2 PUSH1 0x20 ADD SWAP2 SWAP1 PUSH1 0x1 ADD SWAP1 PUSH3 0x60A JUMP JUMPDEST POP PUSH3 0x635 SWAP3 SWAP2 POP PUSH3 0x6F1 JUMP JUMPDEST POP SWAP1 JUMP JUMPDEST PUSH1 0x40 MLOAD DUP1 PUSH2 0x100 ADD PUSH1 0x40 MSTORE DUP1 PUSH1 0x8 SWAP1 PUSH1 0x20 DUP3 MUL DUP1 CALLDATASIZE DUP4 CALLDATACOPY POP SWAP2 SWAP3 SWAP2 POP POP JUMP JUMPDEST PUSH1 0x1 DUP4 ADD SWAP2 DUP4 SWAP1 DUP3 ISZERO PUSH3 0x627 JUMPI SWAP2 PUSH1 0x20 MUL DUP3 ADD PUSH1 0x0 JUMPDEST DUP4 DUP3 GT ISZERO PUSH3 0x6B5 JUMPI DUP4 MLOAD DUP4 DUP3 PUSH2 0x100 EXP DUP2 SLOAD DUP2 PUSH4 0xFFFFFFFF MUL NOT AND SWAP1 DUP4 PUSH4 0xFFFFFFFF AND MUL OR SWAP1 SSTORE POP SWAP3 PUSH1 0x20 ADD SWAP3 PUSH1 0x4 ADD PUSH1 0x20 DUP2 PUSH1 0x3 ADD DIV SWAP3 DUP4 ADD SWAP3 PUSH1 0x1 SUB MUL PUSH3 0x66F JUMP JUMPDEST DUP1 ISZERO PUSH3 0x6E7 JUMPI DUP3 DUP2 PUSH2 0x100 EXP DUP2 SLOAD SWAP1 PUSH4 0xFFFFFFFF MUL NOT AND SWAP1 SSTORE PUSH1 0x4 ADD PUSH1 0x20 DUP2 PUSH1 0x3 ADD DIV SWAP3 DUP4 ADD SWAP3 PUSH1 0x1 SUB MUL PUSH3 0x6B5 JUMP JUMPDEST POP POP PUSH3 0x635 SWAP3 SWAP2 POP JUMPDEST JUMPDEST DUP1 DUP3 GT ISZERO PUSH3 0x635 JUMPI PUSH1 0x0 DUP2 SSTORE PUSH1 0x1 ADD PUSH3 0x6F2 JUMP JUMPDEST PUSH1 0x1 DUP2 DUP2 SHR SWAP1 DUP3 AND DUP1 PUSH3 0x71D JUMPI PUSH1 0x7F DUP3 AND SWAP2 POP JUMPDEST PUSH1 0x20 DUP3 LT DUP2 EQ ISZERO PUSH3 0x73F JUMPI PUSH4 0x4E487B71 PUSH1 0xE0 SHL PUSH1 0x0 MSTORE PUSH1 0x22 PUSH1 0x4 MSTORE PUSH1 0x24 PUSH1 0x0 REVERT JUMPDEST POP SWAP2 SWAP1 POP JUMP JUMPDEST PUSH1 0x0 DUP1 DUP4 SLOAD DUP2 PUSH1 0x1 DUP3 DUP2 SHR SWAP2 POP DUP1 DUP4 AND DUP1 PUSH3 0x762 JUMPI PUSH1 0x7F DUP4 AND SWAP3 POP JUMPDEST PUSH1 0x20 DUP1 DUP5 LT DUP3 EQ ISZERO PUSH3 0x783 JUMPI PUSH4 0x4E487B71 PUSH1 0xE0 SHL DUP7 MSTORE PUSH1 0x22 PUSH1 0x4 MSTORE PUSH1 0x24 DUP7 REVERT JUMPDEST DUP2 DUP1 ISZERO PUSH3 0x79A JUMPI PUSH1 0x1 DUP2 EQ PUSH3 0x7AC JUMPI PUSH3 0x7DB JUMP JUMPDEST PUSH1 0xFF NOT DUP7 AND DUP10 MSTORE DUP5 DUP10 ADD SWAP7 POP PUSH3 0x7DB JUMP JUMPDEST PUSH1 0x0 DUP11 DUP2 MSTORE PUSH1 0x20 SWAP1 KECCAK256 PUSH1 0x0 JUMPDEST DUP7 DUP2 LT ISZERO PUSH3 0x7D3 JUMPI DUP2 SLOAD DUP12 DUP3 ADD MSTORE SWAP1 DUP6 ADD SWAP1 DUP4 ADD PUSH3 0x7B8 JUMP JUMPDEST POP POP DUP5 DUP10 ADD SWAP7 POP JUMPDEST POP POP POP POP POP POP PUSH3 0x7FB DUP2 PUSH9 0x3DB4B23E973539B7B7 PUSH1 0xB9 SHL DUP2 MSTORE PUSH1 0x9 ADD SWAP1 JUMP JUMPDEST SWAP5 SWAP4 POP POP POP POP JUMP JUMPDEST PUSH1 0x0 DUP2 PUSH1 0x0 NOT DIV DUP4 GT DUP3 ISZERO ISZERO AND ISZERO PUSH3 0x82C JUMPI PUSH4 0x4E487B71 PUSH1 0xE0 SHL PUSH1 0x0 MSTORE PUSH1 0x11 PUSH1 0x4 MSTORE PUSH1 0x24 PUSH1 0x0 REVERT JUMPDEST POP MUL SWAP1 JUMP JUMPDEST PUSH1 0x0 DUP3 PUSH3 0x84F JUMPI PUSH4 0x4E487B71 PUSH1 0xE0 SHL PUSH1 0x0 MSTORE PUSH1 0x12 PUSH1 0x4 MSTORE PUSH1 0x24 PUSH1 0x0 REVERT JUMPDEST POP DIV SWAP1 JUMP JUMPDEST PUSH2 0x5ED0 DUP1 PUSH3 0x864 PUSH1 0x0 CODECOPY PUSH1 0x0 RETURN INVALID PUSH1 0x80 PUSH1 0x40 MSTORE PUSH1 0x4 CALLDATASIZE LT PUSH2 0x2B1 JUMPI PUSH1 0x0 CALLDATALOAD PUSH1 0xE0 SHR DUP1 PUSH4 0x74FCF071 GT PUSH2 0x175 JUMPI DUP1 PUSH4 0xC09C923B GT PUSH2 0xDC JUMPI DUP1 PUSH4 0xD5D60737 GT PUSH2 0x95 JUMPI DUP1 PUSH4 0xECA01093 GT PUSH2 0x6F JUMPI DUP1 PUSH4 0xECA01093 EQ PUSH2 0x8F2 JUMPI DUP1 PUSH4 0xF242432A EQ PUSH2 0x912 JUMPI DUP1 PUSH4 0xF5298ACA EQ PUSH2 0x932 JUMPI DUP1 PUSH4 0xF6524724 EQ PUSH2 0x952 JUMPI PUSH1 0x0 DUP1 REVERT JUMPDEST DUP1 PUSH4 0xD5D60737 EQ PUSH2 0x82B JUMPI DUP1 PUSH4 0xE06174E4 EQ PUSH2 0x83E JUMPI DUP1 PUSH4 0xE985E9C5 EQ PUSH2 0x8A9 JUMPI PUSH1 0x0 DUP1 REVERT JUMPDEST DUP1 PUSH4 0xC09C923B EQ PUSH2 0x78E JUMPI DUP1 PUSH4 0xC790985A EQ PUSH2 0x796 JUMPI DUP1 PUSH4 0xCA15C873 EQ PUSH2 0x7B6 JUMPI DUP1 PUSH4 0xCAB4BA82 EQ PUSH2 0x7D6 JUMPI DUP1 PUSH4 0xD391014B EQ PUSH2 0x7F6 JUMPI DUP1 PUSH4 0xD547741F EQ PUSH2 0x80B JUMPI PUSH1 0x0 DUP1 REVERT JUMPDEST DUP1 PUSH4 0xA22CB465 GT PUSH2 0x12E JUMPI DUP1 PUSH4 0xA22CB465 EQ PUSH2 0x6C4 JUMPI DUP1 PUSH4 0xA60C6E55 EQ PUSH2 0x6E4 JUMPI DUP1 PUSH4 0xA6D8AD39 EQ PUSH2 0x70C JUMPI DUP1 PUSH4 0xA7FD40BF EQ PUSH2 0x72C JUMPI DUP1 PUSH4 0xB5D11E99 EQ PUSH2 0x74C JUMPI DUP1 PUSH4 0xBD85B039 EQ PUSH2 0x761 JUMPI PUSH1 0x0 DUP1 REVERT JUMPDEST DUP1 PUSH4 0x74FCF071 EQ PUSH2 0x61C JUMPI DUP1 PUSH4 0x842980F4 EQ PUSH2 0x63C JUMPI DUP1 PUSH4 0x9010D07C EQ PUSH2 0x64F JUMPI DUP1 PUSH4 0x91D14854 EQ PUSH2 0x66F JUMPI DUP1 PUSH4 0x95D89B41 EQ PUSH2 0x68F JUMPI DUP1 PUSH4 0x9BC731FC EQ PUSH2 0x6A4 JUMPI PUSH1 0x0 DUP1 REVERT JUMPDEST DUP1 PUSH4 0x313CE567 GT PUSH2 0x219 JUMPI DUP1 PUSH4 0x4C3C0EB2 GT PUSH2 0x1D2 JUMPI DUP1 PUSH4 0x4C3C0EB2 EQ PUSH2 0x537 JUMPI DUP1 PUSH4 0x4E1273F4 EQ PUSH2 0x557 JUMPI DUP1 PUSH4 0x4F558E79 EQ PUSH2 0x584 JUMPI DUP1 PUSH4 0x5C41DBE0 EQ PUSH2 0x5B3 JUMPI DUP1 PUSH4 0x61417516 EQ PUSH2 0x5C6 JUMPI DUP1 PUSH4 0x71858049 EQ PUSH2 0x5FC JUMPI PUSH1 0x0 DUP1 REVERT JUMPDEST DUP1 PUSH4 0x313CE567 EQ PUSH2 0x483 JUMPI DUP1 PUSH4 0x34E150AB EQ PUSH2 0x497 JUMPI DUP1 PUSH4 0x36568ABE EQ PUSH2 0x4C4 JUMPI DUP1 PUSH4 0x3935AC11 EQ PUSH2 0x4E4 JUMPI DUP1 PUSH4 0x43FEFAD4 EQ PUSH2 0x504 JUMPI DUP1 PUSH4 0x48B08D62 EQ PUSH2 0x517 JUMPI PUSH1 0x0 DUP1 REVERT JUMPDEST DUP1 PUSH4 0xC2E075B GT PUSH2 0x26B JUMPI DUP1 PUSH4 0xC2E075B EQ PUSH2 0x3BC JUMPI DUP1 PUSH4 0xE89341C EQ PUSH2 0x3DC JUMPI DUP1 PUSH4 0x18160DDD EQ PUSH2 0x3FC JUMPI DUP1 PUSH4 0x248A9CA3 EQ PUSH2 0x411 JUMPI DUP1 PUSH4 0x2EB2C2D6 EQ PUSH2 0x441 JUMPI DUP1 PUSH4 0x2F2FF15D EQ PUSH2 0x463 JUMPI PUSH1 0x0 DUP1 REVERT JUMPDEST DUP1 PUSH3 0xFDD58E EQ PUSH2 0x2BD JUMPI DUP1 PUSH4 0x1FFC9A7 EQ PUSH2 0x2F0 JUMPI DUP1 PUSH4 0x3D604BD EQ PUSH2 0x320 JUMPI DUP1 PUSH4 0x3ED957F EQ PUSH2 0x342 JUMPI DUP1 PUSH4 0x6FB1A07 EQ PUSH2 0x362 JUMPI DUP1 PUSH4 0x6FDDE03 EQ PUSH2 0x39A JUMPI PUSH1 0x0 DUP1 REVERT JUMPDEST CALLDATASIZE PUSH2 0x2B8 JUMPI STOP JUMPDEST PUSH1 0x0 DUP1 REVERT JUMPDEST CALLVALUE DUP1 ISZERO PUSH2 0x2C9 JUMPI PUSH1 0x0 DUP1 REVERT JUMPDEST POP PUSH2 0x2DD PUSH2 0x2D8 CALLDATASIZE PUSH1 0x4 PUSH2 0x5158 JUMP JUMPDEST PUSH2 0x965 JUMP JUMPDEST PUSH1 0x40 MLOAD SWAP1 DUP2 MSTORE PUSH1 0x20 ADD JUMPDEST PUSH1 0x40 MLOAD DUP1 SWAP2 SUB SWAP1 RETURN JUMPDEST CALLVALUE DUP1 ISZERO PUSH2 0x2FC JUMPI PUSH1 0x0 DUP1 REVERT JUMPDEST POP PUSH2 0x310 PUSH2 0x30B CALLDATASIZE PUSH1 0x4 PUSH2 0x519A JUMP JUMPDEST PUSH2 0x9B7 JUMP JUMPDEST PUSH1 0x40 MLOAD SWAP1 ISZERO ISZERO DUP2 MSTORE PUSH1 0x20 ADD PUSH2 0x2E7 JUMP JUMPDEST CALLVALUE DUP1 ISZERO PUSH2 0x32C JUMPI PUSH1 0x0 DUP1 REVERT JUMPDEST POP PUSH2 0x340 PUSH2 0x33B CALLDATASIZE PUSH1 0x4 PUSH2 0x51B7 JUMP JUMPDEST PUSH2 0x9F7 JUMP JUMPDEST STOP JUMPDEST CALLVALUE DUP1 ISZERO PUSH2 0x34E JUMPI PUSH1 0x0 DUP1 REVERT JUMPDEST POP PUSH2 0x340 PUSH2 0x35D CALLDATASIZE PUSH1 0x4 PUSH2 0x51D4 JUMP JUMPDEST PUSH2 0xB4F JUMP JUMPDEST CALLVALUE DUP1 ISZERO PUSH2 0x36E JUMPI PUSH1 0x0 DUP1 REVERT JUMPDEST POP PUSH2 0x382 PUSH2 0x37D CALLDATASIZE PUSH1 0x4 PUSH2 0x5248 JUMP JUMPDEST PUSH2 0xBCC JUMP JUMPDEST PUSH1 0x40 MLOAD PUSH1 0x1 PUSH1 0x1 PUSH1 0xA0 SHL SUB SWAP1 SWAP2 AND DUP2 MSTORE PUSH1 0x20 ADD PUSH2 0x2E7 JUMP JUMPDEST CALLVALUE DUP1 ISZERO PUSH2 0x3A6 JUMPI PUSH1 0x0 DUP1 REVERT JUMPDEST POP PUSH2 0x3AF PUSH2 0xC43 JUMP JUMPDEST PUSH1 0x40 MLOAD PUSH2 0x2E7 SWAP2 SWAP1 PUSH2 0x52B9 JUMP JUMPDEST CALLVALUE DUP1 ISZERO PUSH2 0x3C8 JUMPI PUSH1 0x0 DUP1 REVERT JUMPDEST POP PUSH2 0x340 PUSH2 0x3D7 CALLDATASIZE PUSH1 0x4 PUSH2 0x52CC JUMP JUMPDEST PUSH2 0xCD5 JUMP JUMPDEST CALLVALUE DUP1 ISZERO PUSH2 0x3E8 JUMPI PUSH1 0x0 DUP1 REVERT JUMPDEST POP PUSH2 0x3AF PUSH2 0x3F7 CALLDATASIZE PUSH1 0x4 PUSH2 0x5248 JUMP JUMPDEST PUSH2 0xD8C JUMP JUMPDEST CALLVALUE DUP1 ISZERO PUSH2 0x408 JUMPI PUSH1 0x0 DUP1 REVERT JUMPDEST POP PUSH2 0x2DD PUSH2 0xDB8 JUMP JUMPDEST CALLVALUE DUP1 ISZERO PUSH2 0x41D JUMPI PUSH1 0x0 DUP1 REVERT JUMPDEST POP PUSH2 0x2DD PUSH2 0x42C CALLDATASIZE PUSH1 0x4 PUSH2 0x5248 JUMP JUMPDEST PUSH1 0x0 SWAP1 DUP2 MSTORE PUSH1 0x4 PUSH1 0x20 MSTORE PUSH1 0x40 SWAP1 KECCAK256 PUSH1 0x1 ADD SLOAD SWAP1 JUMP JUMPDEST CALLVALUE DUP1 ISZERO PUSH2 0x44D JUMPI PUSH1 0x0 DUP1 REVERT JUMPDEST POP PUSH2 0x340 PUSH2 0x45C CALLDATASIZE PUSH1 0x4 PUSH2 0x5421 JUMP JUMPDEST POP POP POP POP POP JUMP JUMPDEST CALLVALUE DUP1 ISZERO PUSH2 0x46F JUMPI PUSH1 0x0 DUP1 REVERT JUMPDEST POP PUSH2 0x340 PUSH2 0x47E CALLDATASIZE PUSH1 0x4 PUSH2 0x54CE JUMP JUMPDEST PUSH2 0xE04 JUMP JUMPDEST CALLVALUE DUP1 ISZERO PUSH2 0x48F JUMPI PUSH1 0x0 DUP1 REVERT JUMPDEST POP PUSH1 0x12 PUSH2 0x2DD JUMP JUMPDEST CALLVALUE DUP1 ISZERO PUSH2 0x4A3 JUMPI PUSH1 0x0 DUP1 REVERT JUMPDEST POP PUSH2 0x4B7 PUSH2 0x4B2 CALLDATASIZE PUSH1 0x4 PUSH2 0x5549 JUMP JUMPDEST PUSH2 0xE2F JUMP JUMPDEST PUSH1 0x40 MLOAD PUSH2 0x2E7 SWAP2 SWAP1 PUSH2 0x558A JUMP JUMPDEST CALLVALUE DUP1 ISZERO PUSH2 0x4D0 JUMPI PUSH1 0x0 DUP1 REVERT JUMPDEST POP PUSH2 0x340 PUSH2 0x4DF CALLDATASIZE PUSH1 0x4 PUSH2 0x54CE JUMP JUMPDEST PUSH2 0xFD8 JUMP JUMPDEST CALLVALUE DUP1 ISZERO PUSH2 0x4F0 JUMPI PUSH1 0x0 DUP1 REVERT JUMPDEST POP PUSH2 0x340 PUSH2 0x4FF CALLDATASIZE PUSH1 0x4 PUSH2 0x5635 JUMP JUMPDEST PUSH2 0x100F JUMP JUMPDEST PUSH2 0x2DD PUSH2 0x512 CALLDATASIZE PUSH1 0x4 PUSH2 0x5698 JUMP JUMPDEST PUSH2 0x1042 JUMP JUMPDEST CALLVALUE DUP1 ISZERO PUSH2 0x523 JUMPI PUSH1 0x0 DUP1 REVERT JUMPDEST POP PUSH2 0x2DD PUSH2 0x532 CALLDATASIZE PUSH1 0x4 PUSH2 0x56E2 JUMP JUMPDEST PUSH2 0x1613 JUMP JUMPDEST CALLVALUE DUP1 ISZERO PUSH2 0x543 JUMPI PUSH1 0x0 DUP1 REVERT JUMPDEST POP PUSH2 0x2DD PUSH2 0x552 CALLDATASIZE PUSH1 0x4 PUSH2 0x51B7 JUMP JUMPDEST PUSH2 0x16E5 JUMP JUMPDEST CALLVALUE DUP1 ISZERO PUSH2 0x563 JUMPI PUSH1 0x0 DUP1 REVERT JUMPDEST POP PUSH2 0x577 PUSH2 0x572 CALLDATASIZE PUSH1 0x4 PUSH2 0x5723 JUMP JUMPDEST PUSH2 0x1707 JUMP JUMPDEST PUSH1 0x40 MLOAD PUSH2 0x2E7 SWAP2 SWAP1 PUSH2 0x57DA JUMP JUMPDEST CALLVALUE DUP1 ISZERO PUSH2 0x590 JUMPI PUSH1 0x0 DUP1 REVERT JUMPDEST POP PUSH2 0x310 PUSH2 0x59F CALLDATASIZE PUSH1 0x4 PUSH2 0x5248 JUMP JUMPDEST PUSH1 0x0 SWAP1 DUP2 MSTORE PUSH1 0x3 PUSH1 0x20 MSTORE PUSH1 0x40 SWAP1 KECCAK256 SLOAD ISZERO ISZERO SWAP1 JUMP JUMPDEST PUSH2 0x340 PUSH2 0x5C1 CALLDATASIZE PUSH1 0x4 PUSH2 0x5698 JUMP JUMPDEST PUSH2 0x17E7 JUMP JUMPDEST CALLVALUE DUP1 ISZERO PUSH2 0x5D2 JUMPI PUSH1 0x0 DUP1 REVERT JUMPDEST POP PUSH2 0x2DD PUSH2 0x5E1 CALLDATASIZE PUSH1 0x4 PUSH2 0x51B7 JUMP JUMPDEST PUSH1 0x1 PUSH1 0x1 PUSH1 0xA0 SHL SUB AND PUSH1 0x0 SWAP1 DUP2 MSTORE PUSH1 0xA PUSH1 0x20 MSTORE PUSH1 0x40 SWAP1 KECCAK256 SLOAD SWAP1 JUMP JUMPDEST CALLVALUE DUP1 ISZERO PUSH2 0x608 JUMPI PUSH1 0x0 DUP1 REVERT JUMPDEST POP PUSH2 0x340 PUSH2 0x617 CALLDATASIZE PUSH1 0x4 PUSH2 0x5158 JUMP JUMPDEST PUSH2 0x17F3 JUMP JUMPDEST CALLVALUE DUP1 ISZERO PUSH2 0x628 JUMPI PUSH1 0x0 DUP1 REVERT JUMPDEST POP PUSH2 0x2DD PUSH2 0x637 CALLDATASIZE PUSH1 0x4 PUSH2 0x5698 JUMP JUMPDEST PUSH2 0x19CE JUMP JUMPDEST PUSH2 0x340 PUSH2 0x64A CALLDATASIZE PUSH1 0x4 PUSH2 0x5698 JUMP JUMPDEST PUSH2 0x1A56 JUMP JUMPDEST CALLVALUE DUP1 ISZERO PUSH2 0x65B JUMPI PUSH1 0x0 DUP1 REVERT JUMPDEST POP PUSH2 0x382 PUSH2 0x66A CALLDATASIZE PUSH1 0x4 PUSH2 0x581E JUMP JUMPDEST PUSH2 0x1A64 JUMP JUMPDEST CALLVALUE DUP1 ISZERO PUSH2 0x67B JUMPI PUSH1 0x0 DUP1 REVERT JUMPDEST POP PUSH2 0x310 PUSH2 0x68A CALLDATASIZE PUSH1 0x4 PUSH2 0x54CE JUMP JUMPDEST PUSH2 0x1A7C JUMP JUMPDEST CALLVALUE DUP1 ISZERO PUSH2 0x69B JUMPI PUSH1 0x0 DUP1 REVERT JUMPDEST POP PUSH2 0x3AF PUSH2 0x1AA7 JUMP JUMPDEST CALLVALUE DUP1 ISZERO PUSH2 0x6B0 JUMPI PUSH1 0x0 DUP1 REVERT JUMPDEST POP PUSH2 0x340 PUSH2 0x6BF CALLDATASIZE PUSH1 0x4 PUSH2 0x51B7 JUMP JUMPDEST PUSH2 0x1AB6 JUMP JUMPDEST CALLVALUE DUP1 ISZERO PUSH2 0x6D0 JUMPI PUSH1 0x0 DUP1 REVERT JUMPDEST POP PUSH2 0x340 PUSH2 0x6DF CALLDATASIZE PUSH1 0x4 PUSH2 0x584E JUMP JUMPDEST PUSH2 0x1D4B JUMP JUMPDEST PUSH2 0x6F7 PUSH2 0x6F2 CALLDATASIZE PUSH1 0x4 PUSH2 0x587C JUMP JUMPDEST PUSH2 0x1EC0 JUMP JUMPDEST PUSH1 0x40 DUP1 MLOAD SWAP3 DUP4 MSTORE PUSH1 0x20 DUP4 ADD SWAP2 SWAP1 SWAP2 MSTORE ADD PUSH2 0x2E7 JUMP JUMPDEST CALLVALUE DUP1 ISZERO PUSH2 0x718 JUMPI PUSH1 0x0 DUP1 REVERT JUMPDEST POP PUSH2 0x4B7 PUSH2 0x727 CALLDATASIZE PUSH1 0x4 PUSH2 0x5549 JUMP JUMPDEST PUSH2 0x2105 JUMP JUMPDEST CALLVALUE DUP1 ISZERO PUSH2 0x738 JUMPI PUSH1 0x0 DUP1 REVERT JUMPDEST POP PUSH2 0x340 PUSH2 0x747 CALLDATASIZE PUSH1 0x4 PUSH2 0x58E3 JUMP JUMPDEST PUSH2 0x2273 JUMP JUMPDEST CALLVALUE DUP1 ISZERO PUSH2 0x758 JUMPI PUSH1 0x0 DUP1 REVERT JUMPDEST POP PUSH2 0x340 PUSH2 0x22BA JUMP JUMPDEST CALLVALUE DUP1 ISZERO PUSH2 0x76D JUMPI PUSH1 0x0 DUP1 REVERT JUMPDEST POP PUSH2 0x2DD PUSH2 0x77C CALLDATASIZE PUSH1 0x4 PUSH2 0x5248 JUMP JUMPDEST PUSH1 0x0 SWAP1 DUP2 MSTORE PUSH1 0x3 PUSH1 0x20 MSTORE PUSH1 0x40 SWAP1 KECCAK256 SLOAD SWAP1 JUMP JUMPDEST PUSH2 0x340 PUSH2 0x230A JUMP JUMPDEST CALLVALUE DUP1 ISZERO PUSH2 0x7A2 JUMPI PUSH1 0x0 DUP1 REVERT JUMPDEST POP PUSH2 0x2DD PUSH2 0x7B1 CALLDATASIZE PUSH1 0x4 PUSH2 0x56E2 JUMP JUMPDEST PUSH2 0x2342 JUMP JUMPDEST CALLVALUE DUP1 ISZERO PUSH2 0x7C2 JUMPI PUSH1 0x0 DUP1 REVERT JUMPDEST POP PUSH2 0x2DD PUSH2 0x7D1 CALLDATASIZE PUSH1 0x4 PUSH2 0x5248 JUMP JUMPDEST PUSH2 0x2402 JUMP JUMPDEST CALLVALUE DUP1 ISZERO PUSH2 0x7E2 JUMPI PUSH1 0x0 DUP1 REVERT JUMPDEST POP PUSH2 0x340 PUSH2 0x7F1 CALLDATASIZE PUSH1 0x4 PUSH2 0x5158 JUMP JUMPDEST PUSH2 0x2419 JUMP JUMPDEST CALLVALUE DUP1 ISZERO PUSH2 0x802 JUMPI PUSH1 0x0 DUP1 REVERT JUMPDEST POP PUSH2 0x2DD PUSH1 0x0 DUP2 JUMP JUMPDEST CALLVALUE DUP1 ISZERO PUSH2 0x817 JUMPI PUSH1 0x0 DUP1 REVERT JUMPDEST POP PUSH2 0x340 PUSH2 0x826 CALLDATASIZE PUSH1 0x4 PUSH2 0x54CE JUMP JUMPDEST PUSH2 0x24FD JUMP JUMPDEST PUSH2 0x340 PUSH2 0x839 CALLDATASIZE PUSH1 0x4 PUSH2 0x5698 JUMP JUMPDEST PUSH2 0x2523 JUMP JUMPDEST CALLVALUE DUP1 ISZERO PUSH2 0x84A JUMPI PUSH1 0x0 DUP1 REVERT JUMPDEST POP PUSH1 0x10 SLOAD PUSH1 0x11 SLOAD PUSH1 0x12 SLOAD PUSH1 0x13 SLOAD PUSH1 0x14 SLOAD PUSH1 0x15 SLOAD PUSH2 0x872 SWAP6 PUSH1 0x1 PUSH1 0x1 PUSH1 0xA0 SHL SUB AND SWAP5 SWAP4 SWAP3 SWAP2 SWAP1 DUP7 JUMP JUMPDEST PUSH1 0x40 DUP1 MLOAD PUSH1 0x1 PUSH1 0x1 PUSH1 0xA0 SHL SUB SWAP1 SWAP8 AND DUP8 MSTORE PUSH1 0x20 DUP8 ADD SWAP6 SWAP1 SWAP6 MSTORE SWAP4 DUP6 ADD SWAP3 SWAP1 SWAP3 MSTORE PUSH1 0x60 DUP5 ADD MSTORE PUSH1 0x80 DUP4 ADD MSTORE PUSH1 0xA0 DUP3 ADD MSTORE PUSH1 0xC0 ADD PUSH2 0x2E7 JUMP JUMPDEST CALLVALUE DUP1 ISZERO PUSH2 0x8B5 JUMPI PUSH1 0x0 DUP1 REVERT JUMPDEST POP PUSH2 0x310 PUSH2 0x8C4 CALLDATASIZE PUSH1 0x4 PUSH2 0x591F JUMP JUMPDEST PUSH1 0x1 PUSH1 0x1 PUSH1 0xA0 SHL SUB SWAP2 DUP3 AND PUSH1 0x0 SWAP1 DUP2 MSTORE PUSH1 0x1 PUSH1 0x20 SWAP1 DUP2 MSTORE PUSH1 0x40 DUP1 DUP4 KECCAK256 SWAP4 SWAP1 SWAP5 AND DUP3 MSTORE SWAP2 SWAP1 SWAP2 MSTORE KECCAK256 SLOAD PUSH1 0xFF AND SWAP1 JUMP JUMPDEST CALLVALUE DUP1 ISZERO PUSH2 0x8FE JUMPI PUSH1 0x0 DUP1 REVERT JUMPDEST POP PUSH2 0x340 PUSH2 0x90D CALLDATASIZE PUSH1 0x4 PUSH2 0x594D JUMP JUMPDEST PUSH2 0x253E JUMP JUMPDEST CALLVALUE DUP1 ISZERO PUSH2 0x91E JUMPI PUSH1 0x0 DUP1 REVERT JUMPDEST POP PUSH2 0x340 PUSH2 0x92D CALLDATASIZE PUSH1 0x4 PUSH2 0x59BE JUMP JUMPDEST PUSH2 0x2583 JUMP JUMPDEST CALLVALUE DUP1 ISZERO PUSH2 0x93E JUMPI PUSH1 0x0 DUP1 REVERT JUMPDEST POP PUSH2 0x340 PUSH2 0x94D CALLDATASIZE PUSH1 0x4 PUSH2 0x5A26 JUMP JUMPDEST PUSH2 0x25D9 JUMP JUMPDEST PUSH2 0x6F7 PUSH2 0x960 CALLDATASIZE PUSH1 0x4 PUSH2 0x587C JUMP JUMPDEST PUSH2 0x2622 JUMP JUMPDEST PUSH1 0x0 PUSH1 0x1 PUSH1 0x1 PUSH1 0xA0 SHL SUB DUP4 AND PUSH2 0x98E JUMPI PUSH1 0x40 MLOAD PUSH4 0x6E3B4547 PUSH1 0xE1 SHL DUP2 MSTORE PUSH1 0x4 ADD PUSH1 0x40 MLOAD DUP1 SWAP2 SUB SWAP1 REVERT JUMPDEST POP PUSH1 0x0 DUP2 DUP2 MSTORE PUSH1 0x20 DUP2 DUP2 MSTORE PUSH1 0x40 DUP1 DUP4 KECCAK256 PUSH1 0x1 PUSH1 0x1 PUSH1 0xA0 SHL SUB DUP7 AND DUP5 MSTORE SWAP1 SWAP2 MSTORE SWAP1 KECCAK256 SLOAD JUMPDEST SWAP3 SWAP2 POP POP JUMP JUMPDEST PUSH1 0x0 PUSH1 0x1 PUSH1 0x1 PUSH1 0xE0 SHL SUB NOT DUP3 AND PUSH4 0x6CDB3D13 PUSH1 0xE1 SHL EQ DUP1 PUSH2 0x9E8 JUMPI POP PUSH1 0x1 PUSH1 0x1 PUSH1 0xE0 SHL SUB NOT DUP3 AND PUSH4 0x3A24D07 PUSH1 0xE2 SHL EQ JUMPDEST DUP1 PUSH2 0x9B1 JUMPI POP PUSH2 0x9B1 DUP3 PUSH2 0x2959 JUMP JUMPDEST PUSH1 0x1 PUSH1 0x1 PUSH1 0xA0 SHL SUB DUP2 AND PUSH1 0x0 SWAP1 DUP2 MSTORE PUSH1 0xA PUSH1 0x20 MSTORE PUSH1 0x40 SWAP1 KECCAK256 SLOAD DUP2 SWAP1 ISZERO DUP1 PUSH2 0xA2B JUMPI POP PUSH1 0xD SLOAD PUSH1 0x1 PUSH1 0x1 PUSH1 0xA0 SHL SUB DUP3 DUP2 AND SWAP2 AND EQ JUMPDEST ISZERO PUSH2 0xA51 JUMPI PUSH1 0x40 MLOAD PUSH3 0x461BCD PUSH1 0xE5 SHL DUP2 MSTORE PUSH1 0x4 ADD PUSH2 0xA48 SWAP1 PUSH2 0x5A5B JUMP JUMPDEST PUSH1 0x40 MLOAD DUP1 SWAP2 SUB SWAP1 REVERT JUMPDEST PUSH1 0x1 PUSH1 0x1 PUSH1 0xA0 SHL SUB DUP3 AND PUSH1 0x0 SWAP1 DUP2 MSTORE PUSH1 0xA PUSH1 0x20 MSTORE PUSH1 0x40 DUP2 KECCAK256 SLOAD SWAP1 PUSH2 0xA74 DUP5 PUSH2 0x298E JUMP JUMPDEST PUSH1 0xD SLOAD SWAP1 SWAP2 POP PUSH1 0x0 SWAP1 PUSH2 0xA8F SWAP1 PUSH1 0x1 PUSH1 0x1 PUSH1 0xA0 SHL SUB AND PUSH2 0x298E JUMP JUMPDEST SWAP1 POP PUSH1 0x0 PUSH1 0x9 DUP5 DUP2 SLOAD DUP2 LT PUSH2 0xAA6 JUMPI PUSH2 0xAA6 PUSH2 0x5A76 JUMP JUMPDEST PUSH1 0x0 SWAP2 DUP3 MSTORE PUSH1 0x20 SWAP1 SWAP2 KECCAK256 PUSH1 0x1 PUSH1 0x4 SWAP1 SWAP3 MUL ADD ADD SLOAD PUSH2 0xACD SWAP1 PUSH1 0x1 PUSH1 0x1 PUSH1 0x80 SHL SUB AND DUP5 PUSH2 0x5AA2 JUMP JUMPDEST SWAP1 POP DUP1 ISZERO PUSH2 0xAE2 JUMPI PUSH2 0xAE2 DUP7 CALLER DUP4 PUSH1 0x0 PUSH2 0x2A1B JUMP JUMPDEST PUSH1 0x0 PUSH1 0x9 DUP6 DUP2 SLOAD DUP2 LT PUSH2 0xAF7 JUMPI PUSH2 0xAF7 PUSH2 0x5A76 JUMP JUMPDEST PUSH1 0x0 SWAP2 DUP3 MSTORE PUSH1 0x20 SWAP1 SWAP2 KECCAK256 PUSH1 0x4 SWAP1 SWAP2 MUL ADD PUSH1 0x1 ADD SLOAD PUSH2 0xB25 SWAP1 PUSH1 0x1 PUSH1 0x80 SHL SWAP1 DIV PUSH1 0x1 PUSH1 0x1 PUSH1 0x80 SHL SUB AND DUP5 PUSH2 0x5AA2 JUMP JUMPDEST SWAP1 POP DUP1 ISZERO PUSH2 0xB46 JUMPI PUSH1 0xD SLOAD PUSH2 0xB46 SWAP1 PUSH1 0x1 PUSH1 0x1 PUSH1 0xA0 SHL SUB AND CALLER DUP4 PUSH1 0x0 PUSH2 0x2A1B JUMP JUMPDEST POP POP POP POP POP POP POP JUMP JUMPDEST PUSH1 0x0 PUSH2 0xB5B DUP2 CALLER PUSH2 0x2A5B JUMP JUMPDEST PUSH1 0x0 JUMPDEST DUP3 DUP2 LT ISZERO PUSH2 0xBC6 JUMPI PUSH2 0xBB4 DUP5 DUP5 DUP4 DUP2 DUP2 LT PUSH2 0xB7B JUMPI PUSH2 0xB7B PUSH2 0x5A76 JUMP JUMPDEST SWAP1 POP PUSH1 0x40 MUL ADD PUSH1 0x0 ADD CALLDATALOAD DUP6 DUP6 DUP5 DUP2 DUP2 LT PUSH2 0xB97 JUMPI PUSH2 0xB97 PUSH2 0x5A76 JUMP JUMPDEST SWAP1 POP PUSH1 0x40 MUL ADD PUSH1 0x20 ADD PUSH1 0x20 DUP2 ADD SWAP1 PUSH2 0xBAF SWAP2 SWAP1 PUSH2 0x51B7 JUMP JUMPDEST PUSH2 0x2A94 JUMP JUMPDEST DUP1 PUSH2 0xBBE DUP2 PUSH2 0x5AB9 JUMP JUMPDEST SWAP2 POP POP PUSH2 0xB5E JUMP JUMPDEST POP POP POP POP JUMP JUMPDEST PUSH1 0x40 MLOAD PUSH4 0x6FB1A07 PUSH1 0xE0 SHL DUP2 MSTORE PUSH1 0x4 DUP2 ADD DUP3 SWAP1 MSTORE PUSH1 0x0 SWAP1 PUSH20 0xDEF1FAC7BF08F173D286BBBDCBEEADE695129840 SWAP1 PUSH4 0x6FB1A07 SWAP1 PUSH1 0x24 ADD PUSH1 0x20 PUSH1 0x40 MLOAD DUP1 DUP4 SUB DUP2 DUP7 GAS STATICCALL ISZERO DUP1 ISZERO PUSH2 0xC1F JUMPI RETURNDATASIZE PUSH1 0x0 DUP1 RETURNDATACOPY RETURNDATASIZE PUSH1 0x0 REVERT JUMPDEST POP POP POP POP PUSH1 0x40 MLOAD RETURNDATASIZE PUSH1 0x1F NOT PUSH1 0x1F DUP3 ADD AND DUP3 ADD DUP1 PUSH1 0x40 MSTORE POP DUP2 ADD SWAP1 PUSH2 0x9B1 SWAP2 SWAP1 PUSH2 0x5AD4 JUMP JUMPDEST PUSH1 0x60 PUSH1 0x6 DUP1 SLOAD PUSH2 0xC52 SWAP1 PUSH2 0x5AF1 JUMP JUMPDEST DUP1 PUSH1 0x1F ADD PUSH1 0x20 DUP1 SWAP2 DIV MUL PUSH1 0x20 ADD PUSH1 0x40 MLOAD SWAP1 DUP2 ADD PUSH1 0x40 MSTORE DUP1 SWAP3 SWAP2 SWAP1 DUP2 DUP2 MSTORE PUSH1 0x20 ADD DUP3 DUP1 SLOAD PUSH2 0xC7E SWAP1 PUSH2 0x5AF1 JUMP JUMPDEST DUP1 ISZERO PUSH2 0xCCB JUMPI DUP1 PUSH1 0x1F LT PUSH2 0xCA0 JUMPI PUSH2 0x100 DUP1 DUP4 SLOAD DIV MUL DUP4 MSTORE SWAP2 PUSH1 0x20 ADD SWAP2 PUSH2 0xCCB JUMP JUMPDEST DUP3 ADD SWAP2 SWAP1 PUSH1 0x0 MSTORE PUSH1 0x20 PUSH1 0x0 KECCAK256 SWAP1 JUMPDEST DUP2 SLOAD DUP2 MSTORE SWAP1 PUSH1 0x1 ADD SWAP1 PUSH1 0x20 ADD DUP1 DUP4 GT PUSH2 0xCAE JUMPI DUP3 SWAP1 SUB PUSH1 0x1F AND DUP3 ADD SWAP2 JUMPDEST POP POP POP POP POP SWAP1 POP SWAP1 JUMP JUMPDEST PUSH1 0x0 PUSH2 0xCE1 DUP2 CALLER PUSH2 0x2A5B JUMP JUMPDEST PUSH1 0x40 DUP3 ADD CALLDATALOAD ISZERO DUP1 PUSH2 0xCF9 JUMPI POP DUP2 PUSH1 0x60 ADD CALLDATALOAD DUP3 PUSH1 0x40 ADD CALLDATALOAD GT JUMPDEST DUP1 PUSH2 0xD09 JUMPI POP PUSH2 0x1F4 DUP3 PUSH1 0x60 ADD CALLDATALOAD GT JUMPDEST ISZERO PUSH2 0xD27 JUMPI PUSH1 0x40 MLOAD PUSH4 0x7420258D PUSH1 0xE1 SHL DUP2 MSTORE PUSH1 0x4 ADD PUSH1 0x40 MLOAD DUP1 SWAP2 SUB SWAP1 REVERT JUMPDEST DUP2 PUSH1 0xA0 ADD CALLDATALOAD DUP3 PUSH1 0x80 ADD CALLDATALOAD GT ISZERO PUSH2 0xD50 JUMPI PUSH1 0x40 MLOAD PUSH4 0x75E1700B PUSH1 0xE1 SHL DUP2 MSTORE PUSH1 0x4 ADD PUSH1 0x40 MLOAD DUP1 SWAP2 SUB SWAP1 REVERT JUMPDEST PUSH1 0x64 PUSH2 0xD61 PUSH1 0x20 DUP5 ADD CALLDATALOAD PUSH1 0x2 PUSH2 0x5B26 JUMP JUMPDEST LT PUSH2 0xD7F JUMPI PUSH1 0x40 MLOAD PUSH4 0x1457C3C3 PUSH1 0xE1 SHL DUP2 MSTORE PUSH1 0x4 ADD PUSH1 0x40 MLOAD DUP1 SWAP2 SUB SWAP1 REVERT JUMPDEST DUP2 PUSH1 0x10 PUSH2 0xBC6 DUP3 DUP3 PUSH2 0x5B45 JUMP JUMPDEST PUSH1 0x60 PUSH1 0x8 DUP3 PUSH1 0x40 MLOAD PUSH1 0x20 ADD PUSH2 0xDA2 SWAP3 SWAP2 SWAP1 PUSH2 0x5BA2 JUMP JUMPDEST PUSH1 0x40 MLOAD PUSH1 0x20 DUP2 DUP4 SUB SUB DUP2 MSTORE SWAP1 PUSH1 0x40 MSTORE SWAP1 POP SWAP2 SWAP1 POP JUMP JUMPDEST PUSH1 0x0 DUP1 PUSH1 0x0 JUMPDEST PUSH1 0x0 PUSH1 0x3 DUP2 PUSH2 0xDCC DUP6 PUSH2 0x5AB9 JUMP JUMPDEST SWAP5 POP DUP5 DUP2 MSTORE PUSH1 0x20 ADD SWAP1 DUP2 MSTORE PUSH1 0x20 ADD PUSH1 0x0 KECCAK256 SLOAD GT ISZERO PUSH2 0x9B1 JUMPI PUSH1 0x0 DUP3 DUP2 MSTORE PUSH1 0x3 PUSH1 0x20 MSTORE PUSH1 0x40 SWAP1 KECCAK256 SLOAD PUSH2 0xDFD SWAP1 DUP3 PUSH2 0x5C59 JUMP JUMPDEST SWAP1 POP PUSH2 0xDBE JUMP JUMPDEST PUSH1 0x0 DUP3 DUP2 MSTORE PUSH1 0x4 PUSH1 0x20 MSTORE PUSH1 0x40 SWAP1 KECCAK256 PUSH1 0x1 ADD SLOAD PUSH2 0xE20 DUP2 CALLER PUSH2 0x2A5B JUMP JUMPDEST PUSH2 0xE2A DUP4 DUP4 PUSH2 0x2A9A JUMP JUMPDEST POP POP POP JUMP JUMPDEST PUSH1 0x60 PUSH1 0x0 DUP3 PUSH1 0x1 PUSH1 0x1 PUSH1 0x40 SHL SUB DUP2 GT ISZERO PUSH2 0xE4B JUMPI PUSH2 0xE4B PUSH2 0x52DE JUMP JUMPDEST PUSH1 0x40 MLOAD SWAP1 DUP1 DUP3 MSTORE DUP1 PUSH1 0x20 MUL PUSH1 0x20 ADD DUP3 ADD PUSH1 0x40 MSTORE DUP1 ISZERO PUSH2 0xE84 JUMPI DUP2 PUSH1 0x20 ADD JUMPDEST PUSH2 0xE71 PUSH2 0x4FC3 JUMP JUMPDEST DUP2 MSTORE PUSH1 0x20 ADD SWAP1 PUSH1 0x1 SWAP1 SUB SWAP1 DUP2 PUSH2 0xE69 JUMPI SWAP1 POP JUMPDEST POP SWAP1 POP PUSH1 0x0 JUMPDEST DUP4 DUP2 LT ISZERO PUSH2 0xFD0 JUMPI PUSH1 0x9 PUSH1 0xA PUSH1 0x0 DUP8 DUP8 DUP6 DUP2 DUP2 LT PUSH2 0xEAA JUMPI PUSH2 0xEAA PUSH2 0x5A76 JUMP JUMPDEST SWAP1 POP PUSH1 0x20 MUL ADD PUSH1 0x20 DUP2 ADD SWAP1 PUSH2 0xEBF SWAP2 SWAP1 PUSH2 0x51B7 JUMP JUMPDEST PUSH1 0x1 PUSH1 0x1 PUSH1 0xA0 SHL SUB AND PUSH1 0x1 PUSH1 0x1 PUSH1 0xA0 SHL SUB AND DUP2 MSTORE PUSH1 0x20 ADD SWAP1 DUP2 MSTORE PUSH1 0x20 ADD PUSH1 0x0 KECCAK256 SLOAD DUP2 SLOAD DUP2 LT PUSH2 0xEF0 JUMPI PUSH2 0xEF0 PUSH2 0x5A76 JUMP JUMPDEST PUSH1 0x0 SWAP2 DUP3 MSTORE PUSH1 0x20 SWAP1 SWAP2 KECCAK256 PUSH1 0x40 DUP1 MLOAD PUSH2 0x1A0 DUP2 ADD SWAP1 SWAP2 MSTORE SWAP2 PUSH1 0x4 MUL ADD DUP2 PUSH1 0xA0 DUP2 ADD DUP3 PUSH1 0x8 DUP3 DUP3 DUP3 PUSH1 0x20 MUL DUP3 ADD SWAP2 PUSH1 0x0 SWAP1 JUMPDEST DUP3 DUP3 SWAP1 SLOAD SWAP1 PUSH2 0x100 EXP SWAP1 DIV PUSH4 0xFFFFFFFF AND PUSH4 0xFFFFFFFF AND DUP2 MSTORE PUSH1 0x20 ADD SWAP1 PUSH1 0x4 ADD SWAP1 PUSH1 0x20 DUP3 PUSH1 0x3 ADD DIV SWAP3 DUP4 ADD SWAP3 PUSH1 0x1 SUB DUP3 MUL SWAP2 POP DUP1 DUP5 GT PUSH2 0xF20 JUMPI POP POP POP SWAP3 DUP5 MSTORE POP POP POP PUSH1 0x1 DUP3 ADD SLOAD PUSH1 0x1 PUSH1 0x1 PUSH1 0x80 SHL SUB DUP1 DUP3 AND PUSH1 0x20 DUP5 ADD MSTORE PUSH1 0x1 PUSH1 0x80 SHL SWAP1 SWAP2 DIV DUP2 AND PUSH1 0x40 DUP4 ADD MSTORE PUSH1 0x2 DUP4 ADD SLOAD AND PUSH1 0x60 DUP3 ADD MSTORE PUSH1 0x3 SWAP1 SWAP2 ADD SLOAD PUSH1 0x80 SWAP1 SWAP2 ADD MSTORE DUP3 MLOAD DUP4 SWAP1 DUP4 SWAP1 DUP2 LT PUSH2 0xFB2 JUMPI PUSH2 0xFB2 PUSH2 0x5A76 JUMP JUMPDEST PUSH1 0x20 MUL PUSH1 0x20 ADD ADD DUP2 SWAP1 MSTORE POP DUP1 DUP1 PUSH2 0xFC8 SWAP1 PUSH2 0x5AB9 JUMP JUMPDEST SWAP2 POP POP PUSH2 0xE8A JUMP JUMPDEST POP SWAP4 SWAP3 POP POP POP JUMP JUMPDEST PUSH1 0x1 PUSH1 0x1 PUSH1 0xA0 SHL SUB DUP2 AND CALLER EQ PUSH2 0x1001 JUMPI PUSH1 0x40 MLOAD PUSH4 0x19CD37B7 PUSH1 0xE1 SHL DUP2 MSTORE PUSH1 0x4 ADD PUSH1 0x40 MLOAD DUP1 SWAP2 SUB SWAP1 REVERT JUMPDEST PUSH2 0x100B DUP3 DUP3 PUSH2 0x2ABC JUMP JUMPDEST POP POP JUMP JUMPDEST PUSH1 0x0 PUSH2 0x101B DUP2 CALLER PUSH2 0x2A5B JUMP JUMPDEST DUP3 MLOAD PUSH2 0x102E SWAP1 PUSH1 0x6 SWAP1 PUSH1 0x20 DUP7 ADD SWAP1 PUSH2 0x4FF8 JUMP JUMPDEST POP DUP2 MLOAD PUSH2 0xBC6 SWAP1 PUSH1 0x7 SWAP1 PUSH1 0x20 DUP6 ADD SWAP1 PUSH2 0x4FF8 JUMP JUMPDEST PUSH1 0x1 PUSH1 0x1 PUSH1 0xA0 SHL SUB DUP5 AND PUSH1 0x0 SWAP1 DUP2 MSTORE PUSH1 0xA PUSH1 0x20 MSTORE PUSH1 0x40 DUP2 KECCAK256 SLOAD DUP6 SWAP1 ISZERO DUP1 PUSH2 0x1076 JUMPI POP PUSH1 0xD SLOAD PUSH1 0x1 PUSH1 0x1 PUSH1 0xA0 SHL SUB DUP3 DUP2 AND SWAP2 AND EQ JUMPDEST ISZERO PUSH2 0x1093 JUMPI PUSH1 0x40 MLOAD PUSH3 0x461BCD PUSH1 0xE5 SHL DUP2 MSTORE PUSH1 0x4 ADD PUSH2 0xA48 SWAP1 PUSH2 0x5A5B JUMP JUMPDEST DUP4 DUP1 TIMESTAMP GT ISZERO PUSH2 0x10B4 JUMPI PUSH1 0x40 MLOAD PUSH3 0x461BCD PUSH1 0xE5 SHL DUP2 MSTORE PUSH1 0x4 ADD PUSH2 0xA48 SWAP1 PUSH2 0x5C71 JUMP JUMPDEST PUSH1 0x1 PUSH1 0x1 PUSH1 0xA0 SHL SUB DUP8 AND PUSH1 0x0 SWAP1 DUP2 MSTORE PUSH1 0xA PUSH1 0x20 MSTORE PUSH1 0x40 SWAP1 KECCAK256 SLOAD PUSH2 0x10D8 DUP9 CALLER DUP10 PUSH2 0x2ADE JUMP JUMPDEST PUSH1 0x0 PUSH2 0x10E3 DUP10 PUSH2 0x298E JUMP JUMPDEST SWAP1 POP PUSH1 0x9 DUP3 DUP2 SLOAD DUP2 LT PUSH2 0x10F8 JUMPI PUSH2 0x10F8 PUSH2 0x5A76 JUMP JUMPDEST PUSH1 0x0 SWAP2 DUP3 MSTORE PUSH1 0x20 SWAP1 SWAP2 KECCAK256 PUSH1 0x1 PUSH1 0x4 SWAP1 SWAP3 MUL ADD ADD SLOAD PUSH2 0x111F SWAP1 PUSH1 0x1 PUSH1 0x1 PUSH1 0x80 SHL SUB AND DUP3 PUSH2 0x5AA2 JUMP JUMPDEST SWAP8 POP PUSH1 0x1 DUP9 GT PUSH2 0x1141 JUMPI PUSH1 0x40 MLOAD PUSH3 0x461BCD PUSH1 0xE5 SHL DUP2 MSTORE PUSH1 0x4 ADD PUSH2 0xA48 SWAP1 PUSH2 0x5C8C JUMP JUMPDEST PUSH1 0xD SLOAD PUSH1 0x0 SWAP1 PUSH2 0x1159 SWAP1 PUSH1 0x1 PUSH1 0x1 PUSH1 0xA0 SHL SUB AND PUSH2 0x298E JUMP JUMPDEST SWAP1 POP PUSH1 0x0 PUSH1 0xB SLOAD DUP3 PUSH2 0x116B SWAP2 SWAP1 PUSH2 0x5AA2 JUMP JUMPDEST SWAP1 POP PUSH1 0x0 PUSH2 0x11F2 PUSH1 0x9 DUP7 DUP2 SLOAD DUP2 LT PUSH2 0x1185 JUMPI PUSH2 0x1185 PUSH2 0x5A76 JUMP JUMPDEST SWAP1 PUSH1 0x0 MSTORE PUSH1 0x20 PUSH1 0x0 KECCAK256 SWAP1 PUSH1 0x4 MUL ADD PUSH1 0x1 ADD PUSH1 0x10 SWAP1 SLOAD SWAP1 PUSH2 0x100 EXP SWAP1 DIV PUSH1 0x1 PUSH1 0x1 PUSH1 0x80 SHL SUB AND PUSH1 0x1 PUSH1 0x1 PUSH1 0x80 SHL SUB AND PUSH1 0x9 DUP8 DUP2 SLOAD DUP2 LT PUSH2 0x11C6 JUMPI PUSH2 0x11C6 PUSH2 0x5A76 JUMP JUMPDEST PUSH1 0x0 SWAP2 DUP3 MSTORE PUSH1 0x20 SWAP1 SWAP2 KECCAK256 PUSH1 0x1 PUSH1 0x4 SWAP1 SWAP3 MUL ADD ADD SLOAD PUSH2 0x11ED SWAP2 SWAP1 PUSH1 0x1 PUSH1 0x1 PUSH1 0x80 SHL SUB AND PUSH2 0x5B26 JUMP JUMPDEST PUSH2 0x2BA2 JUMP JUMPDEST SWAP1 POP PUSH1 0x0 PUSH2 0x1244 PUSH1 0x9 DUP8 DUP2 SLOAD DUP2 LT PUSH2 0x120C JUMPI PUSH2 0x120C PUSH2 0x5A76 JUMP JUMPDEST PUSH1 0x0 SWAP2 DUP3 MSTORE PUSH1 0x20 DUP1 DUP4 KECCAK256 PUSH1 0x2 PUSH1 0x4 SWAP1 SWAP4 MUL ADD SWAP2 SWAP1 SWAP2 ADD SLOAD DUP10 DUP4 MSTORE PUSH1 0x3 SWAP1 SWAP2 MSTORE PUSH1 0x40 SWAP1 SWAP2 KECCAK256 SLOAD PUSH1 0x1 PUSH1 0x1 PUSH1 0x80 SHL SUB SWAP1 SWAP2 AND SWAP1 DUP5 SWAP1 PUSH2 0x2C11 JUMP JUMPDEST SWAP1 POP DUP1 ISZERO PUSH2 0x1275 JUMPI PUSH1 0x10 SLOAD PUSH1 0x40 DUP1 MLOAD PUSH1 0x20 DUP2 ADD SWAP1 SWAP2 MSTORE PUSH1 0x0 DUP2 MSTORE PUSH2 0x1275 SWAP2 PUSH1 0x1 PUSH1 0x1 PUSH1 0xA0 SHL SUB AND SWAP1 DUP9 SWAP1 DUP5 SWAP1 PUSH2 0x2C96 JUMP JUMPDEST POP POP PUSH1 0x0 PUSH1 0x9 DUP6 DUP2 SLOAD DUP2 LT PUSH2 0x128C JUMPI PUSH2 0x128C PUSH2 0x5A76 JUMP JUMPDEST PUSH1 0x0 SWAP2 DUP3 MSTORE PUSH1 0x20 DUP1 DUP4 KECCAK256 PUSH1 0x1 PUSH1 0x4 SWAP1 SWAP4 MUL ADD SWAP2 SWAP1 SWAP2 ADD SLOAD DUP8 DUP4 MSTORE PUSH1 0x3 SWAP1 SWAP2 MSTORE PUSH1 0x40 SWAP1 SWAP2 KECCAK256 SLOAD PUSH1 0x1 PUSH1 0x1 PUSH1 0x80 SHL SUB SWAP1 SWAP2 AND SWAP1 PUSH2 0x12C7 SWAP1 DUP14 PUSH2 0x5B26 JUMP JUMPDEST PUSH2 0x12D1 SWAP2 SWAP1 PUSH2 0x5CBD JUMP JUMPDEST SWAP1 POP PUSH2 0x12EE DUP10 DUP7 DUP4 PUSH1 0x40 MLOAD DUP1 PUSH1 0x20 ADD PUSH1 0x40 MSTORE DUP1 PUSH1 0x0 DUP2 MSTORE POP PUSH2 0x2C96 JUMP JUMPDEST PUSH1 0x0 PUSH1 0x9 DUP7 DUP2 SLOAD DUP2 LT PUSH2 0x1303 JUMPI PUSH2 0x1303 PUSH2 0x5A76 JUMP JUMPDEST PUSH1 0x0 SWAP2 DUP3 MSTORE PUSH1 0x20 SWAP1 SWAP2 KECCAK256 PUSH1 0x1 PUSH1 0x4 SWAP1 SWAP3 MUL ADD ADD SLOAD PUSH1 0x9 DUP1 SLOAD PUSH1 0x1 PUSH1 0x1 PUSH1 0x80 SHL SUB SWAP1 SWAP3 AND SWAP2 DUP9 SWAP1 DUP2 LT PUSH2 0x1337 JUMPI PUSH2 0x1337 PUSH2 0x5A76 JUMP JUMPDEST PUSH1 0x0 SWAP2 DUP3 MSTORE PUSH1 0x20 SWAP1 SWAP2 KECCAK256 PUSH1 0x4 SWAP1 SWAP2 MUL ADD PUSH1 0x1 ADD SLOAD PUSH2 0x1365 SWAP1 PUSH1 0x1 PUSH1 0x80 SHL SWAP1 DIV PUSH1 0x1 PUSH1 0x1 PUSH1 0x80 SHL SUB AND DUP15 PUSH2 0x5B26 JUMP JUMPDEST PUSH2 0x136F SWAP2 SWAP1 PUSH2 0x5CBD JUMP JUMPDEST SWAP1 POP PUSH1 0x1 DUP2 GT PUSH2 0x1391 JUMPI PUSH1 0x40 MLOAD PUSH3 0x1037CB PUSH1 0xE9 SHL DUP2 MSTORE PUSH1 0x4 ADD PUSH1 0x40 MLOAD DUP1 SWAP2 SUB SWAP1 REVERT JUMPDEST PUSH1 0xD SLOAD PUSH1 0x40 MLOAD PUSH4 0xBB9FF5D PUSH1 0xE0 SHL DUP2 MSTORE ADDRESS PUSH1 0x4 DUP3 ADD MSTORE PUSH1 0x24 DUP2 ADD DUP4 SWAP1 MSTORE PUSH1 0x1 PUSH1 0x1 PUSH1 0xA0 SHL SUB SWAP1 SWAP2 AND SWAP1 PUSH4 0xBB9FF5D SWAP1 PUSH1 0x44 ADD PUSH1 0x0 PUSH1 0x40 MLOAD DUP1 DUP4 SUB DUP2 PUSH1 0x0 DUP8 DUP1 EXTCODESIZE ISZERO DUP1 ISZERO PUSH2 0x13DD JUMPI PUSH1 0x0 DUP1 REVERT JUMPDEST POP GAS CALL ISZERO DUP1 ISZERO PUSH2 0x13F1 JUMPI RETURNDATASIZE PUSH1 0x0 DUP1 RETURNDATACOPY RETURNDATASIZE PUSH1 0x0 REVERT JUMPDEST POP POP POP POP DUP1 DUP4 PUSH1 0xB SLOAD PUSH2 0x1404 SWAP2 SWAP1 PUSH2 0x5C59 JUMP JUMPDEST PUSH2 0x140E SWAP2 SWAP1 PUSH2 0x5C59 JUMP JUMPDEST PUSH1 0xB DUP2 SWAP1 SSTORE POP DUP12 PUSH1 0x9 DUP8 DUP2 SLOAD DUP2 LT PUSH2 0x1428 JUMPI PUSH2 0x1428 PUSH2 0x5A76 JUMP JUMPDEST PUSH1 0x0 SWAP2 DUP3 MSTORE PUSH1 0x20 SWAP1 SWAP2 KECCAK256 PUSH1 0x1 PUSH1 0x4 SWAP1 SWAP3 MUL ADD ADD SLOAD PUSH2 0x144F SWAP2 SWAP1 PUSH1 0x1 PUSH1 0x1 PUSH1 0x80 SHL SUB AND PUSH2 0x5CD1 JUMP JUMPDEST PUSH1 0x9 DUP8 DUP2 SLOAD DUP2 LT PUSH2 0x1462 JUMPI PUSH2 0x1462 PUSH2 0x5A76 JUMP JUMPDEST PUSH1 0x0 SWAP2 DUP3 MSTORE PUSH1 0x20 SWAP1 SWAP2 KECCAK256 PUSH1 0x4 SWAP1 SWAP2 MUL ADD PUSH1 0x1 ADD DUP1 SLOAD PUSH1 0x1 PUSH1 0x1 PUSH1 0x80 SHL SUB NOT AND PUSH1 0x1 PUSH1 0x1 PUSH1 0x80 SHL SUB SWAP3 SWAP1 SWAP3 AND SWAP2 SWAP1 SWAP2 OR SWAP1 SSTORE PUSH2 0x149D DUP2 DUP5 PUSH2 0x5C59 JUMP JUMPDEST PUSH1 0x9 DUP8 DUP2 SLOAD DUP2 LT PUSH2 0x14B0 JUMPI PUSH2 0x14B0 PUSH2 0x5A76 JUMP JUMPDEST SWAP1 PUSH1 0x0 MSTORE PUSH1 0x20 PUSH1 0x0 KECCAK256 SWAP1 PUSH1 0x4 MUL ADD PUSH1 0x1 ADD PUSH1 0x10 SWAP1 SLOAD SWAP1 PUSH2 0x100 EXP SWAP1 DIV PUSH1 0x1 PUSH1 0x1 PUSH1 0x80 SHL SUB AND PUSH2 0x14DF SWAP2 SWAP1 PUSH2 0x5CD1 JUMP JUMPDEST PUSH1 0x9 DUP8 DUP2 SLOAD DUP2 LT PUSH2 0x14F2 JUMPI PUSH2 0x14F2 PUSH2 0x5A76 JUMP JUMPDEST SWAP1 PUSH1 0x0 MSTORE PUSH1 0x20 PUSH1 0x0 KECCAK256 SWAP1 PUSH1 0x4 MUL ADD PUSH1 0x1 ADD PUSH1 0x10 PUSH2 0x100 EXP DUP2 SLOAD DUP2 PUSH1 0x1 PUSH1 0x1 PUSH1 0x80 SHL SUB MUL NOT AND SWAP1 DUP4 PUSH1 0x1 PUSH1 0x1 PUSH1 0x80 SHL SUB AND MUL OR SWAP1 SSTORE POP PUSH2 0x157E PUSH1 0x9 DUP8 DUP2 SLOAD DUP2 LT PUSH2 0x153D JUMPI PUSH2 0x153D PUSH2 0x5A76 JUMP JUMPDEST SWAP1 PUSH1 0x0 MSTORE PUSH1 0x20 PUSH1 0x0 KECCAK256 SWAP1 PUSH1 0x4 MUL ADD PUSH1 0x1 ADD PUSH1 0x10 SWAP1 SLOAD SWAP1 PUSH2 0x100 EXP SWAP1 DIV PUSH1 0x1 PUSH1 0x1 PUSH1 0x80 SHL SUB AND PUSH1 0x1 PUSH1 0x1 PUSH1 0x80 SHL SUB AND PUSH1 0x9 DUP9 DUP2 SLOAD DUP2 LT PUSH2 0x11C6 JUMPI PUSH2 0x11C6 PUSH2 0x5A76 JUMP JUMPDEST PUSH1 0x9 DUP8 DUP2 SLOAD DUP2 LT PUSH2 0x1591 JUMPI PUSH2 0x1591 PUSH2 0x5A76 JUMP JUMPDEST SWAP1 PUSH1 0x0 MSTORE PUSH1 0x20 PUSH1 0x0 KECCAK256 SWAP1 PUSH1 0x4 MUL ADD PUSH1 0x2 ADD PUSH1 0x0 PUSH2 0x100 EXP DUP2 SLOAD DUP2 PUSH1 0x1 PUSH1 0x1 PUSH1 0x80 SHL SUB MUL NOT AND SWAP1 DUP4 PUSH1 0x1 PUSH1 0x1 PUSH1 0x80 SHL SUB AND MUL OR SWAP1 SSTORE POP PUSH32 0x64B83944E79C3CE8D4C297411DE637C3E102D064677AAC0C163976EBDCD6F50E DUP14 DUP14 DUP4 DUP6 PUSH1 0x40 MLOAD PUSH2 0x15FB SWAP5 SWAP4 SWAP3 SWAP2 SWAP1 PUSH2 0x5CFC JUMP JUMPDEST PUSH1 0x40 MLOAD DUP1 SWAP2 SUB SWAP1 LOG1 POP SWAP12 SWAP11 POP POP POP POP POP POP POP POP POP POP POP JUMP JUMPDEST PUSH1 0xD SLOAD PUSH1 0x0 SWAP1 PUSH1 0x1 PUSH1 0x1 PUSH1 0xA0 SHL SUB DUP6 DUP2 AND SWAP2 AND EQ DUP1 ISZERO SWAP1 PUSH2 0x1641 JUMPI POP PUSH1 0xD SLOAD PUSH1 0x1 PUSH1 0x1 PUSH1 0xA0 SHL SUB DUP5 DUP2 AND SWAP2 AND EQ JUMPDEST ISZERO PUSH2 0x1657 JUMPI PUSH2 0x1650 DUP5 DUP4 PUSH2 0x2D6D JUMP JUMPDEST SWAP1 POP PUSH2 0x16DE JUMP JUMPDEST PUSH1 0xD SLOAD PUSH1 0x1 PUSH1 0x1 PUSH1 0xA0 SHL SUB DUP6 DUP2 AND SWAP2 AND EQ DUP1 ISZERO PUSH2 0x1682 JUMPI POP PUSH1 0xD SLOAD PUSH1 0x1 PUSH1 0x1 PUSH1 0xA0 SHL SUB DUP5 DUP2 AND SWAP2 AND EQ ISZERO JUMPDEST ISZERO PUSH2 0x1691 JUMPI PUSH2 0x1650 DUP4 DUP4 PUSH2 0x2E60 JUMP JUMPDEST PUSH1 0xD SLOAD PUSH1 0x1 PUSH1 0x1 PUSH1 0xA0 SHL SUB DUP6 DUP2 AND SWAP2 AND EQ DUP1 ISZERO SWAP1 PUSH2 0x16BD JUMPI POP PUSH1 0xD SLOAD PUSH1 0x1 PUSH1 0x1 PUSH1 0xA0 SHL SUB DUP6 DUP2 AND SWAP2 AND EQ ISZERO JUMPDEST ISZERO PUSH2 0x16DE JUMPI PUSH1 0x0 PUSH2 0x16CE DUP6 DUP5 PUSH2 0x2D6D JUMP JUMPDEST SWAP1 POP PUSH2 0x16DA DUP5 DUP3 PUSH2 0x2E60 JUMP JUMPDEST SWAP2 POP POP JUMPDEST SWAP4 SWAP3 POP POP POP JUMP JUMPDEST PUSH1 0x1 PUSH1 0x1 PUSH1 0xA0 SHL SUB DUP2 AND PUSH1 0x0 SWAP1 DUP2 MSTORE PUSH1 0xA PUSH1 0x20 MSTORE PUSH1 0x40 DUP2 KECCAK256 SLOAD PUSH2 0x9B1 SWAP1 PUSH2 0x2F4A JUMP JUMPDEST PUSH1 0x60 DUP2 MLOAD DUP4 MLOAD EQ PUSH2 0x172B JUMPI PUSH1 0x40 MLOAD PUSH4 0x80DADC27 PUSH1 0xE0 SHL DUP2 MSTORE PUSH1 0x4 ADD PUSH1 0x40 MLOAD DUP1 SWAP2 SUB SWAP1 REVERT JUMPDEST PUSH1 0x0 DUP4 MLOAD PUSH1 0x1 PUSH1 0x1 PUSH1 0x40 SHL SUB DUP2 GT ISZERO PUSH2 0x1746 JUMPI PUSH2 0x1746 PUSH2 0x52DE JUMP JUMPDEST PUSH1 0x40 MLOAD SWAP1 DUP1 DUP3 MSTORE DUP1 PUSH1 0x20 MUL PUSH1 0x20 ADD DUP3 ADD PUSH1 0x40 MSTORE DUP1 ISZERO PUSH2 0x176F JUMPI DUP2 PUSH1 0x20 ADD PUSH1 0x20 DUP3 MUL DUP1 CALLDATASIZE DUP4 CALLDATACOPY ADD SWAP1 POP JUMPDEST POP SWAP1 POP PUSH1 0x0 JUMPDEST DUP5 MLOAD DUP2 LT ISZERO PUSH2 0xFD0 JUMPI PUSH2 0x17BA DUP6 DUP3 DUP2 MLOAD DUP2 LT PUSH2 0x1793 JUMPI PUSH2 0x1793 PUSH2 0x5A76 JUMP JUMPDEST PUSH1 0x20 MUL PUSH1 0x20 ADD ADD MLOAD DUP6 DUP4 DUP2 MLOAD DUP2 LT PUSH2 0x17AD JUMPI PUSH2 0x17AD PUSH2 0x5A76 JUMP JUMPDEST PUSH1 0x20 MUL PUSH1 0x20 ADD ADD MLOAD PUSH2 0x965 JUMP JUMPDEST DUP3 DUP3 DUP2 MLOAD DUP2 LT PUSH2 0x17CC JUMPI PUSH2 0x17CC PUSH2 0x5A76 JUMP JUMPDEST PUSH1 0x20 SWAP1 DUP2 MUL SWAP2 SWAP1 SWAP2 ADD ADD MSTORE PUSH2 0x17E0 DUP2 PUSH2 0x5AB9 JUMP JUMPDEST SWAP1 POP PUSH2 0x1775 JUMP JUMPDEST PUSH2 0xBC6 DUP5 DUP5 DUP5 DUP5 PUSH2 0x316E JUMP JUMPDEST PUSH1 0x1 PUSH1 0x1 PUSH1 0xA0 SHL SUB DUP3 AND PUSH1 0x0 SWAP1 DUP2 MSTORE PUSH1 0xA PUSH1 0x20 MSTORE PUSH1 0x40 SWAP1 KECCAK256 SLOAD PUSH2 0x1818 DUP3 PUSH1 0x0 NOT PUSH2 0x5AA2 JUMP JUMPDEST PUSH1 0x9 DUP3 DUP2 SLOAD DUP2 LT PUSH2 0x182B JUMPI PUSH2 0x182B PUSH2 0x5A76 JUMP JUMPDEST SWAP1 PUSH1 0x0 MSTORE PUSH1 0x20 PUSH1 0x0 KECCAK256 SWAP1 PUSH1 0x4 MUL ADD PUSH1 0x3 ADD SLOAD GT ISZERO PUSH2 0x186F JUMPI PUSH1 0x40 MLOAD PUSH3 0x461BCD PUSH1 0xE5 SHL DUP2 MSTORE PUSH1 0x20 PUSH1 0x4 DUP3 ADD MSTORE PUSH1 0x1 PUSH1 0x24 DUP3 ADD MSTORE PUSH1 0xB PUSH1 0xFB SHL PUSH1 0x44 DUP3 ADD MSTORE PUSH1 0x64 ADD PUSH2 0xA48 JUMP JUMPDEST DUP2 PUSH1 0x9 DUP3 DUP2 SLOAD DUP2 LT PUSH2 0x1883 JUMPI PUSH2 0x1883 PUSH2 0x5A76 JUMP JUMPDEST SWAP1 PUSH1 0x0 MSTORE PUSH1 0x20 PUSH1 0x0 KECCAK256 SWAP1 PUSH1 0x4 MUL ADD PUSH1 0x3 ADD PUSH1 0x0 DUP3 DUP3 SLOAD PUSH2 0x18A3 SWAP2 SWAP1 PUSH2 0x5C59 JUMP JUMPDEST SWAP1 SWAP2 SSTORE POP POP PUSH1 0xD SLOAD PUSH1 0x40 MLOAD PUSH4 0x18A8AD87 PUSH1 0xE0 SHL DUP2 MSTORE CALLER PUSH1 0x4 DUP3 ADD MSTORE PUSH1 0x24 DUP2 ADD DUP5 SWAP1 MSTORE PUSH1 0x1 PUSH1 0x1 PUSH1 0xA0 SHL SUB SWAP1 SWAP2 AND SWAP1 PUSH4 0x18A8AD87 SWAP1 PUSH1 0x44 ADD PUSH1 0x0 PUSH1 0x40 MLOAD DUP1 DUP4 SUB DUP2 PUSH1 0x0 DUP8 DUP1 EXTCODESIZE ISZERO DUP1 ISZERO PUSH2 0x18F4 JUMPI PUSH1 0x0 DUP1 REVERT JUMPDEST POP GAS CALL ISZERO DUP1 ISZERO PUSH2 0x1908 JUMPI RETURNDATASIZE PUSH1 0x0 DUP1 RETURNDATACOPY RETURNDATASIZE PUSH1 0x0 REVERT JUMPDEST POP POP POP POP PUSH1 0x0 DUP1 MLOAD PUSH1 0x20 PUSH2 0x5E7B DUP4 CODECOPY DUP2 MLOAD SWAP2 MSTORE DUP4 PUSH1 0x9 DUP4 DUP2 SLOAD DUP2 LT PUSH2 0x192F JUMPI PUSH2 0x192F PUSH2 0x5A76 JUMP JUMPDEST SWAP1 PUSH1 0x0 MSTORE PUSH1 0x20 PUSH1 0x0 KECCAK256 SWAP1 PUSH1 0x4 MUL ADD PUSH1 0x1 ADD PUSH1 0x0 SWAP1 SLOAD SWAP1 PUSH2 0x100 EXP SWAP1 DIV PUSH1 0x1 PUSH1 0x1 PUSH1 0x80 SHL SUB AND PUSH1 0x9 DUP5 DUP2 SLOAD DUP2 LT PUSH2 0x1967 JUMPI PUSH2 0x1967 PUSH2 0x5A76 JUMP JUMPDEST SWAP1 PUSH1 0x0 MSTORE PUSH1 0x20 PUSH1 0x0 KECCAK256 SWAP1 PUSH1 0x4 MUL ADD PUSH1 0x1 ADD PUSH1 0x10 SWAP1 SLOAD SWAP1 PUSH2 0x100 EXP SWAP1 DIV PUSH1 0x1 PUSH1 0x1 PUSH1 0x80 SHL SUB AND PUSH1 0x9 DUP6 DUP2 SLOAD DUP2 LT PUSH2 0x199F JUMPI PUSH2 0x199F PUSH2 0x5A76 JUMP JUMPDEST SWAP1 PUSH1 0x0 MSTORE PUSH1 0x20 PUSH1 0x0 KECCAK256 SWAP1 PUSH1 0x4 MUL ADD PUSH1 0x3 ADD SLOAD PUSH1 0x40 MLOAD PUSH2 0x19C1 SWAP5 SWAP4 SWAP3 SWAP2 SWAP1 PUSH2 0x5D22 JUMP JUMPDEST PUSH1 0x40 MLOAD DUP1 SWAP2 SUB SWAP1 LOG1 POP POP POP JUMP JUMPDEST PUSH1 0x1 PUSH1 0x1 PUSH1 0xA0 SHL SUB DUP5 AND PUSH1 0x0 SWAP1 DUP2 MSTORE PUSH1 0xA PUSH1 0x20 MSTORE PUSH1 0x40 DUP2 KECCAK256 SLOAD DUP6 SWAP1 ISZERO DUP1 PUSH2 0x1A02 JUMPI POP PUSH1 0xD SLOAD PUSH1 0x1 PUSH1 0x1 PUSH1 0xA0 SHL SUB DUP3 DUP2 AND SWAP2 AND EQ JUMPDEST ISZERO PUSH2 0x1A1F JUMPI PUSH1 0x40 MLOAD PUSH3 0x461BCD PUSH1 0xE5 SHL DUP2 MSTORE PUSH1 0x4 ADD PUSH2 0xA48 SWAP1 PUSH2 0x5A5B JUMP JUMPDEST DUP4 DUP1 TIMESTAMP GT ISZERO PUSH2 0x1A40 JUMPI PUSH1 0x40 MLOAD PUSH3 0x461BCD PUSH1 0xE5 SHL DUP2 MSTORE PUSH1 0x4 ADD PUSH2 0xA48 SWAP1 PUSH2 0x5C71 JUMP JUMPDEST PUSH2 0x1A4B DUP8 DUP8 DUP7 PUSH2 0x39F1 JUMP JUMPDEST SWAP8 SWAP7 POP POP POP POP POP POP POP JUMP JUMPDEST PUSH2 0xBC6 DUP5 DUP5 DUP5 PUSH1 0x0 DUP6 PUSH2 0x3ED5 JUMP JUMPDEST PUSH1 0x0 DUP3 DUP2 MSTORE PUSH1 0x5 PUSH1 0x20 MSTORE PUSH1 0x40 DUP2 KECCAK256 PUSH2 0x16DE SWAP1 DUP4 PUSH2 0x4275 JUMP JUMPDEST PUSH1 0x0 SWAP2 DUP3 MSTORE PUSH1 0x4 PUSH1 0x20 SWAP1 DUP2 MSTORE PUSH1 0x40 DUP1 DUP5 KECCAK256 PUSH1 0x1 PUSH1 0x1 PUSH1 0xA0 SHL SUB SWAP4 SWAP1 SWAP4 AND DUP5 MSTORE SWAP2 SWAP1 MSTORE SWAP1 KECCAK256 SLOAD PUSH1 0xFF AND SWAP1 JUMP JUMPDEST PUSH1 0x60 PUSH1 0x7 DUP1 SLOAD PUSH2 0xC52 SWAP1 PUSH2 0x5AF1 JUMP JUMPDEST PUSH1 0x1 PUSH1 0x1 PUSH1 0xA0 SHL SUB DUP2 AND PUSH1 0x0 SWAP1 DUP2 MSTORE PUSH1 0xA PUSH1 0x20 MSTORE PUSH1 0x40 SWAP1 KECCAK256 SLOAD DUP2 SWAP1 ISZERO DUP1 PUSH2 0x1AEA JUMPI POP PUSH1 0xD SLOAD PUSH1 0x1 PUSH1 0x1 PUSH1 0xA0 SHL SUB DUP3 DUP2 AND SWAP2 AND EQ JUMPDEST ISZERO PUSH2 0x1B07 JUMPI PUSH1 0x40 MLOAD PUSH3 0x461BCD PUSH1 0xE5 SHL DUP2 MSTORE PUSH1 0x4 ADD PUSH2 0xA48 SWAP1 PUSH2 0x5A5B JUMP JUMPDEST PUSH1 0x1 PUSH1 0x1 PUSH1 0xA0 SHL SUB DUP3 AND PUSH1 0x0 SWAP1 DUP2 MSTORE PUSH1 0xA PUSH1 0x20 MSTORE PUSH1 0x40 SWAP1 KECCAK256 SLOAD PUSH2 0x1B29 DUP4 PUSH2 0x298E JUMP JUMPDEST PUSH1 0x9 DUP3 DUP2 SLOAD DUP2 LT PUSH2 0x1B3C JUMPI PUSH2 0x1B3C PUSH2 0x5A76 JUMP JUMPDEST PUSH1 0x0 SWAP2 DUP3 MSTORE PUSH1 0x20 DUP3 KECCAK256 PUSH1 0x4 SWAP2 SWAP1 SWAP2 MUL ADD PUSH1 0x1 ADD DUP1 SLOAD PUSH1 0x1 PUSH1 0x1 PUSH1 0x80 SHL SUB NOT AND PUSH1 0x1 PUSH1 0x1 PUSH1 0x80 SHL SUB SWAP4 SWAP1 SWAP4 AND SWAP3 SWAP1 SWAP3 OR SWAP1 SWAP2 SSTORE PUSH1 0xD SLOAD PUSH2 0x1B83 SWAP1 PUSH1 0x1 PUSH1 0x1 PUSH1 0xA0 SHL SUB AND PUSH2 0x298E JUMP JUMPDEST SWAP1 POP PUSH1 0xB SLOAD DUP2 PUSH1 0x9 DUP5 DUP2 SLOAD DUP2 LT PUSH2 0x1B9C JUMPI PUSH2 0x1B9C PUSH2 0x5A76 JUMP JUMPDEST PUSH1 0x0 SWAP2 DUP3 MSTORE PUSH1 0x20 SWAP1 SWAP2 KECCAK256 PUSH1 0x4 SWAP1 SWAP2 MUL ADD PUSH1 0x1 ADD SLOAD PUSH2 0x1BCA SWAP2 SWAP1 PUSH1 0x1 PUSH1 0x80 SHL SWAP1 DIV PUSH1 0x1 PUSH1 0x1 PUSH1 0x80 SHL SUB AND PUSH2 0x5C59 JUMP JUMPDEST PUSH2 0x1BD4 SWAP2 SWAP1 PUSH2 0x5AA2 JUMP JUMPDEST PUSH1 0x9 DUP4 DUP2 SLOAD DUP2 LT PUSH2 0x1BE7 JUMPI PUSH2 0x1BE7 PUSH2 0x5A76 JUMP JUMPDEST SWAP1 PUSH1 0x0 MSTORE PUSH1 0x20 PUSH1 0x0 KECCAK256 SWAP1 PUSH1 0x4 MUL ADD PUSH1 0x1 ADD PUSH1 0x10 PUSH2 0x100 EXP DUP2 SLOAD DUP2 PUSH1 0x1 PUSH1 0x1 PUSH1 0x80 SHL SUB MUL NOT AND SWAP1 DUP4 PUSH1 0x1 PUSH1 0x1 PUSH1 0x80 SHL SUB AND MUL OR SWAP1 SSTORE POP PUSH1 0xB SLOAD DUP2 PUSH1 0x9 DUP5 DUP2 SLOAD DUP2 LT PUSH2 0x1C33 JUMPI PUSH2 0x1C33 PUSH2 0x5A76 JUMP JUMPDEST SWAP1 PUSH1 0x0 MSTORE PUSH1 0x20 PUSH1 0x0 KECCAK256 SWAP1 PUSH1 0x4 MUL ADD PUSH1 0x3 ADD SLOAD PUSH2 0x1C4F SWAP2 SWAP1 PUSH2 0x5C59 JUMP JUMPDEST PUSH2 0x1C59 SWAP2 SWAP1 PUSH2 0x5AA2 JUMP JUMPDEST PUSH1 0x9 DUP4 DUP2 SLOAD DUP2 LT PUSH2 0x1C6C JUMPI PUSH2 0x1C6C PUSH2 0x5A76 JUMP JUMPDEST SWAP1 PUSH1 0x0 MSTORE PUSH1 0x20 PUSH1 0x0 KECCAK256 SWAP1 PUSH1 0x4 MUL ADD PUSH1 0x3 ADD DUP2 SWAP1 SSTORE POP DUP1 PUSH1 0xB DUP2 SWAP1 SSTORE POP PUSH1 0x0 DUP1 MLOAD PUSH1 0x20 PUSH2 0x5E7B DUP4 CODECOPY DUP2 MLOAD SWAP2 MSTORE DUP5 PUSH1 0x9 DUP5 DUP2 SLOAD DUP2 LT PUSH2 0x1CAB JUMPI PUSH2 0x1CAB PUSH2 0x5A76 JUMP JUMPDEST SWAP1 PUSH1 0x0 MSTORE PUSH1 0x20 PUSH1 0x0 KECCAK256 SWAP1 PUSH1 0x4 MUL ADD PUSH1 0x1 ADD PUSH1 0x0 SWAP1 SLOAD SWAP1 PUSH2 0x100 EXP SWAP1 DIV PUSH1 0x1 PUSH1 0x1 PUSH1 0x80 SHL SUB AND PUSH1 0x9 DUP6 DUP2 SLOAD DUP2 LT PUSH2 0x1CE3 JUMPI PUSH2 0x1CE3 PUSH2 0x5A76 JUMP JUMPDEST SWAP1 PUSH1 0x0 MSTORE PUSH1 0x20 PUSH1 0x0 KECCAK256 SWAP1 PUSH1 0x4 MUL ADD PUSH1 0x1 ADD PUSH1 0x10 SWAP1 SLOAD SWAP1 PUSH2 0x100 EXP SWAP1 DIV PUSH1 0x1 PUSH1 0x1 PUSH1 0x80 SHL SUB AND PUSH1 0x9 DUP7 DUP2 SLOAD DUP2 LT PUSH2 0x1D1B JUMPI PUSH2 0x1D1B PUSH2 0x5A76 JUMP JUMPDEST SWAP1 PUSH1 0x0 MSTORE PUSH1 0x20 PUSH1 0x0 KECCAK256 SWAP1 PUSH1 0x4 MUL ADD PUSH1 0x3 ADD SLOAD PUSH1 0x40 MLOAD PUSH2 0x1D3D SWAP5 SWAP4 SWAP3 SWAP2 SWAP1 PUSH2 0x5D22 JUMP JUMPDEST PUSH1 0x40 MLOAD DUP1 SWAP2 SUB SWAP1 LOG1 POP POP POP POP JUMP JUMPDEST PUSH1 0x40 MLOAD PUSH4 0x6FB1A07 PUSH1 0xE0 SHL DUP2 MSTORE PUSH1 0x3 PUSH1 0x4 DUP3 ADD MSTORE ADDRESS SWAP1 CALLER SWAP1 PUSH1 0x0 SWAP1 PUSH20 0xDEF1FAC7BF08F173D286BBBDCBEEADE695129840 SWAP1 PUSH4 0x6FB1A07 SWAP1 PUSH1 0x24 ADD PUSH1 0x20 PUSH1 0x40 MLOAD DUP1 DUP4 SUB DUP2 DUP7 GAS STATICCALL ISZERO DUP1 ISZERO PUSH2 0x1DA2 JUMPI RETURNDATASIZE PUSH1 0x0 DUP1 RETURNDATACOPY RETURNDATASIZE PUSH1 0x0 REVERT JUMPDEST POP POP POP POP PUSH1 0x40 MLOAD RETURNDATASIZE PUSH1 0x1F NOT PUSH1 0x1F DUP3 ADD AND DUP3 ADD DUP1 PUSH1 0x40 MSTORE POP DUP2 ADD SWAP1 PUSH2 0x1DC6 SWAP2 SWAP1 PUSH2 0x5AD4 JUMP JUMPDEST PUSH1 0x40 MLOAD PUSH4 0xC8B57EF PUSH1 0xE2 SHL DUP2 MSTORE PUSH1 0x1 PUSH1 0x1 PUSH1 0xA0 SHL SUB DUP6 DUP2 AND PUSH1 0x4 DUP4 ADD MSTORE DUP5 DUP2 AND PUSH1 0x24 DUP4 ADD MSTORE SWAP2 SWAP3 POP SWAP1 DUP3 AND SWAP1 PUSH4 0x322D5FBC SWAP1 PUSH1 0x44 ADD PUSH1 0x20 PUSH1 0x40 MLOAD DUP1 DUP4 SUB DUP2 PUSH1 0x0 DUP8 GAS CALL ISZERO DUP1 ISZERO PUSH2 0x1E1A JUMPI RETURNDATASIZE PUSH1 0x0 DUP1 RETURNDATACOPY RETURNDATASIZE PUSH1 0x0 REVERT JUMPDEST POP POP POP POP PUSH1 0x40 MLOAD RETURNDATASIZE PUSH1 0x1F NOT PUSH1 0x1F DUP3 ADD AND DUP3 ADD DUP1 PUSH1 0x40 MSTORE POP DUP2 ADD SWAP1 PUSH2 0x1E3E SWAP2 SWAP1 PUSH2 0x5D52 JUMP JUMPDEST ISZERO PUSH2 0x1E5C JUMPI PUSH1 0x40 MLOAD PUSH4 0xE30CF0F PUSH1 0xE0 SHL DUP2 MSTORE PUSH1 0x4 ADD PUSH1 0x40 MLOAD DUP1 SWAP2 SUB SWAP1 REVERT JUMPDEST DUP1 PUSH1 0x1 PUSH1 0x1 PUSH1 0xA0 SHL SUB AND PUSH4 0xEEF84BA1 PUSH1 0x40 MLOAD DUP2 PUSH4 0xFFFFFFFF AND PUSH1 0xE0 SHL DUP2 MSTORE PUSH1 0x4 ADD PUSH1 0x0 PUSH1 0x40 MLOAD DUP1 DUP4 SUB DUP2 PUSH1 0x0 DUP8 DUP1 EXTCODESIZE ISZERO DUP1 ISZERO PUSH2 0x1E97 JUMPI PUSH1 0x0 DUP1 REVERT JUMPDEST POP GAS CALL ISZERO DUP1 ISZERO PUSH2 0x1EAB JUMPI RETURNDATASIZE PUSH1 0x0 DUP1 RETURNDATACOPY RETURNDATASIZE PUSH1 0x0 REVERT JUMPDEST POP POP POP POP PUSH2 0x45C PUSH2 0x1EB9 CALLER SWAP1 JUMP JUMPDEST DUP7 DUP7 PUSH2 0x4281 JUMP JUMPDEST PUSH1 0x0 DUP1 DUP4 DUP1 TIMESTAMP GT ISZERO PUSH2 0x1EE4 JUMPI PUSH1 0x40 MLOAD PUSH3 0x461BCD PUSH1 0xE5 SHL DUP2 MSTORE PUSH1 0x4 ADD PUSH2 0xA48 SWAP1 PUSH2 0x5C71 JUMP JUMPDEST PUSH1 0x1 DUP8 GT PUSH2 0x1F04 JUMPI PUSH1 0x40 MLOAD PUSH3 0x461BCD PUSH1 0xE5 SHL DUP2 MSTORE PUSH1 0x4 ADD PUSH2 0xA48 SWAP1 PUSH2 0x5C8C JUMP JUMPDEST PUSH1 0xD SLOAD CALLER SWAP1 PUSH1 0x0 SWAP1 PUSH1 0x1 PUSH1 0x1 PUSH1 0xA0 SHL SUB DUP13 DUP2 AND SWAP2 AND EQ DUP1 ISZERO SWAP1 PUSH2 0x1F34 JUMPI POP PUSH1 0xD SLOAD PUSH1 0x1 PUSH1 0x1 PUSH1 0xA0 SHL SUB DUP12 DUP2 AND SWAP2 AND EQ JUMPDEST ISZERO PUSH2 0x1F96 JUMPI PUSH2 0x1F43 DUP12 DUP11 PUSH2 0x2D6D JUMP JUMPDEST SWAP1 POP DUP8 DUP2 LT ISZERO PUSH2 0x1F79 JUMPI PUSH1 0x40 MLOAD PUSH3 0x461BCD PUSH1 0xE5 SHL DUP2 MSTORE PUSH1 0x20 PUSH1 0x4 DUP3 ADD MSTORE PUSH1 0x1 PUSH1 0x24 DUP3 ADD MSTORE PUSH1 0x9 PUSH1 0xFB SHL PUSH1 0x44 DUP3 ADD MSTORE PUSH1 0x64 ADD PUSH2 0xA48 JUMP JUMPDEST PUSH2 0x1F84 DUP12 DUP4 DUP12 PUSH2 0x2ADE JUMP JUMPDEST PUSH2 0x1F91 DUP12 PUSH1 0x0 DUP4 DUP10 PUSH2 0x316E JUMP JUMPDEST PUSH2 0x20F4 JUMP JUMPDEST PUSH1 0xD SLOAD PUSH1 0x1 PUSH1 0x1 PUSH1 0xA0 SHL SUB DUP13 DUP2 AND SWAP2 AND EQ DUP1 ISZERO PUSH2 0x1FC1 JUMPI POP PUSH1 0xD SLOAD PUSH1 0x1 PUSH1 0x1 PUSH1 0xA0 SHL SUB DUP12 DUP2 AND SWAP2 AND EQ ISZERO JUMPDEST ISZERO PUSH2 0x201E JUMPI PUSH2 0x1FD0 DUP11 DUP11 PUSH2 0x2E60 JUMP JUMPDEST SWAP1 POP DUP8 DUP2 LT ISZERO PUSH2 0x2006 JUMPI PUSH1 0x40 MLOAD PUSH3 0x461BCD PUSH1 0xE5 SHL DUP2 MSTORE PUSH1 0x20 PUSH1 0x4 DUP3 ADD MSTORE PUSH1 0x1 PUSH1 0x24 DUP3 ADD MSTORE PUSH1 0x69 PUSH1 0xF8 SHL PUSH1 0x44 DUP3 ADD MSTORE PUSH1 0x64 ADD PUSH2 0xA48 JUMP JUMPDEST PUSH2 0x2011 DUP12 DUP4 DUP12 PUSH2 0x2ADE JUMP JUMPDEST PUSH2 0x1F91 DUP11 DUP3 PUSH1 0x0 DUP10 PUSH2 0x316E JUMP JUMPDEST PUSH1 0xD SLOAD PUSH1 0x1 PUSH1 0x1 PUSH1 0xA0 SHL SUB DUP13 DUP2 AND SWAP2 AND EQ DUP1 ISZERO SWAP1 PUSH2 0x204A JUMPI POP PUSH1 0xD SLOAD PUSH1 0x1 PUSH1 0x1 PUSH1 0xA0 SHL SUB DUP13 DUP2 AND SWAP2 AND EQ ISZERO JUMPDEST ISZERO PUSH2 0x20C8 JUMPI PUSH1 0x0 PUSH2 0x205B DUP13 DUP12 PUSH2 0x2D6D JUMP JUMPDEST SWAP1 POP PUSH2 0x2067 DUP12 DUP3 PUSH2 0x2E60 JUMP JUMPDEST SWAP2 POP DUP9 DUP3 LT ISZERO PUSH2 0x209D JUMPI PUSH1 0x40 MLOAD PUSH3 0x461BCD PUSH1 0xE5 SHL DUP2 MSTORE PUSH1 0x20 PUSH1 0x4 DUP3 ADD MSTORE PUSH1 0x1 PUSH1 0x24 DUP3 ADD MSTORE PUSH1 0x69 PUSH1 0xF8 SHL PUSH1 0x44 DUP3 ADD MSTORE PUSH1 0x64 ADD PUSH2 0xA48 JUMP JUMPDEST PUSH2 0x20A8 DUP13 DUP5 DUP13 PUSH2 0x2ADE JUMP JUMPDEST PUSH2 0x20B5 DUP13 PUSH1 0x0 DUP4 ADDRESS PUSH2 0x316E JUMP JUMPDEST PUSH2 0x20C2 DUP12 DUP4 PUSH1 0x0 DUP11 PUSH2 0x316E JUMP JUMPDEST POP PUSH2 0x20F4 JUMP JUMPDEST PUSH1 0x40 MLOAD PUSH3 0x461BCD PUSH1 0xE5 SHL DUP2 MSTORE PUSH1 0x20 PUSH1 0x4 DUP3 ADD MSTORE PUSH1 0x1 PUSH1 0x24 DUP3 ADD MSTORE PUSH1 0x13 PUSH1 0xFA SHL PUSH1 0x44 DUP3 ADD MSTORE PUSH1 0x64 ADD PUSH2 0xA48 JUMP JUMPDEST SWAP8 SWAP11 SWAP8 SWAP10 POP SWAP7 SWAP8 POP POP POP POP POP POP POP POP JUMP JUMPDEST PUSH1 0x60 PUSH1 0x0 DUP3 PUSH1 0x1 PUSH1 0x1 PUSH1 0x40 SHL SUB DUP2 GT ISZERO PUSH2 0x2121 JUMPI PUSH2 0x2121 PUSH2 0x52DE JUMP JUMPDEST PUSH1 0x40 MLOAD SWAP1 DUP1 DUP3 MSTORE DUP1 PUSH1 0x20 MUL PUSH1 0x20 ADD DUP3 ADD PUSH1 0x40 MSTORE DUP1 ISZERO PUSH2 0x215A JUMPI DUP2 PUSH1 0x20 ADD JUMPDEST PUSH2 0x2147 PUSH2 0x4FC3 JUMP JUMPDEST DUP2 MSTORE PUSH1 0x20 ADD SWAP1 PUSH1 0x1 SWAP1 SUB SWAP1 DUP2 PUSH2 0x213F JUMPI SWAP1 POP JUMPDEST POP SWAP1 POP PUSH1 0x0 JUMPDEST DUP4 DUP2 LT ISZERO PUSH2 0xFD0 JUMPI PUSH1 0x9 DUP6 DUP6 DUP4 DUP2 DUP2 LT PUSH2 0x217C JUMPI PUSH2 0x217C PUSH2 0x5A76 JUMP JUMPDEST SWAP1 POP PUSH1 0x20 MUL ADD CALLDATALOAD DUP2 SLOAD DUP2 LT PUSH2 0x2193 JUMPI PUSH2 0x2193 PUSH2 0x5A76 JUMP JUMPDEST PUSH1 0x0 SWAP2 DUP3 MSTORE PUSH1 0x20 SWAP1 SWAP2 KECCAK256 PUSH1 0x40 DUP1 MLOAD PUSH2 0x1A0 DUP2 ADD SWAP1 SWAP2 MSTORE SWAP2 PUSH1 0x4 MUL ADD DUP2 PUSH1 0xA0 DUP2 ADD DUP3 PUSH1 0x8 DUP3 DUP3 DUP3 PUSH1 0x20 MUL DUP3 ADD SWAP2 PUSH1 0x0 SWAP1 JUMPDEST DUP3 DUP3 SWAP1 SLOAD SWAP1 PUSH2 0x100 EXP SWAP1 DIV PUSH4 0xFFFFFFFF AND PUSH4 0xFFFFFFFF AND DUP2 MSTORE PUSH1 0x20 ADD SWAP1 PUSH1 0x4 ADD SWAP1 PUSH1 0x20 DUP3 PUSH1 0x3 ADD DIV SWAP3 DUP4 ADD SWAP3 PUSH1 0x1 SUB DUP3 MUL SWAP2 POP DUP1 DUP5 GT PUSH2 0x21C3 JUMPI POP POP POP SWAP3 DUP5 MSTORE POP POP POP PUSH1 0x1 DUP3 ADD SLOAD PUSH1 0x1 PUSH1 0x1 PUSH1 0x80 SHL SUB DUP1 DUP3 AND PUSH1 0x20 DUP5 ADD MSTORE PUSH1 0x1 PUSH1 0x80 SHL SWAP1 SWAP2 DIV DUP2 AND PUSH1 0x40 DUP4 ADD MSTORE PUSH1 0x2 DUP4 ADD SLOAD AND PUSH1 0x60 DUP3 ADD MSTORE PUSH1 0x3 SWAP1 SWAP2 ADD SLOAD PUSH1 0x80 SWAP1 SWAP2 ADD MSTORE DUP3 MLOAD DUP4 SWAP1 DUP4 SWAP1 DUP2 LT PUSH2 0x2255 JUMPI PUSH2 0x2255 PUSH2 0x5A76 JUMP JUMPDEST PUSH1 0x20 MUL PUSH1 0x20 ADD ADD DUP2 SWAP1 MSTORE POP DUP1 DUP1 PUSH2 0x226B SWAP1 PUSH2 0x5AB9 JUMP JUMPDEST SWAP2 POP POP PUSH2 0x2160 JUMP JUMPDEST PUSH1 0x0 PUSH2 0x227F DUP2 CALLER PUSH2 0x2A5B JUMP JUMPDEST PUSH2 0x22A7 DUP3 PUSH1 0x40 MLOAD PUSH1 0x20 ADD PUSH2 0x2293 SWAP2 SWAP1 PUSH2 0x5D6F JUMP JUMPDEST PUSH1 0x40 MLOAD PUSH1 0x20 DUP2 DUP4 SUB SUB DUP2 MSTORE SWAP1 PUSH1 0x40 MSTORE PUSH2 0x4321 JUMP JUMPDEST DUP2 MLOAD PUSH2 0xE2A SWAP1 PUSH1 0x8 SWAP1 PUSH1 0x20 DUP6 ADD SWAP1 PUSH2 0x4FF8 JUMP JUMPDEST PUSH1 0xC SLOAD PUSH2 0x22E6 SWAP1 PUSH1 0x1 PUSH1 0x1 PUSH1 0xA0 SHL SUB AND PUSH10 0xD3C21BCECCEDA1000000 PUSH10 0x69E10DE76676D0800000 CALLER PUSH2 0x2523 JUMP JUMPDEST PUSH1 0xE SLOAD PUSH2 0x2308 SWAP1 PUSH1 0x1 PUSH1 0x1 PUSH1 0xA0 SHL SUB AND PUSH10 0x943B1377290CBD800000 DUP1 CALLER PUSH2 0x2523 JUMP JUMPDEST JUMP JUMPDEST PUSH1 0x0 PUSH2 0x2316 DUP2 CALLER PUSH2 0x2A5B JUMP JUMPDEST PUSH1 0xF SLOAD PUSH2 0x233F SWAP1 PUSH1 0x1 PUSH1 0x1 PUSH1 0xA0 SHL SUB AND PUSH7 0x38D7EA4C68000 PUSH10 0xD3C21BCECCEDA1000000 CALLER PUSH2 0x2523 JUMP JUMPDEST POP JUMP JUMPDEST PUSH1 0xD SLOAD PUSH1 0x0 SWAP1 PUSH1 0x1 PUSH1 0x1 PUSH1 0xA0 SHL SUB DUP6 DUP2 AND SWAP2 AND EQ DUP1 ISZERO SWAP1 PUSH2 0x2370 JUMPI POP PUSH1 0xD SLOAD PUSH1 0x1 PUSH1 0x1 PUSH1 0xA0 SHL SUB DUP5 DUP2 AND SWAP2 AND EQ JUMPDEST ISZERO PUSH2 0x237F JUMPI PUSH2 0x1650 DUP5 DUP4 PUSH2 0x4334 JUMP JUMPDEST PUSH1 0xD SLOAD PUSH1 0x1 PUSH1 0x1 PUSH1 0xA0 SHL SUB DUP6 DUP2 AND SWAP2 AND EQ DUP1 ISZERO PUSH2 0x23AA JUMPI POP PUSH1 0xD SLOAD PUSH1 0x1 PUSH1 0x1 PUSH1 0xA0 SHL SUB DUP5 DUP2 AND SWAP2 AND EQ ISZERO JUMPDEST ISZERO PUSH2 0x23B9 JUMPI PUSH2 0x1650 DUP4 DUP4 PUSH2 0x441E JUMP JUMPDEST PUSH1 0xD SLOAD PUSH1 0x1 PUSH1 0x1 PUSH1 0xA0 SHL SUB DUP6 DUP2 AND SWAP2 AND EQ DUP1 ISZERO SWAP1 PUSH2 0x23E5 JUMPI POP PUSH1 0xD SLOAD PUSH1 0x1 PUSH1 0x1 PUSH1 0xA0 SHL SUB DUP5 DUP2 AND SWAP2 AND EQ ISZERO JUMPDEST ISZERO PUSH2 0x16DE JUMPI PUSH1 0x0 PUSH2 0x23F6 DUP5 DUP5 PUSH2 0x441E JUMP JUMPDEST SWAP1 POP PUSH2 0x16DA DUP6 DUP3 PUSH2 0x4334 JUMP JUMPDEST PUSH1 0x0 DUP2 DUP2 MSTORE PUSH1 0x5 PUSH1 0x20 MSTORE PUSH1 0x40 DUP2 KECCAK256 PUSH2 0x9B1 SWAP1 PUSH2 0x4508 JUMP JUMPDEST PUSH1 0x0 PUSH2 0x2425 DUP2 CALLER PUSH2 0x2A5B JUMP JUMPDEST PUSH1 0x1 PUSH1 0x1 PUSH1 0xA0 SHL SUB DUP4 AND PUSH1 0x0 SWAP1 DUP2 MSTORE PUSH1 0xA PUSH1 0x20 MSTORE PUSH1 0x40 SWAP1 KECCAK256 SLOAD PUSH1 0x9 DUP1 SLOAD DUP5 SWAP2 SWAP1 DUP4 SWAP1 DUP2 LT PUSH2 0x2455 JUMPI PUSH2 0x2455 PUSH2 0x5A76 JUMP JUMPDEST SWAP1 PUSH1 0x0 MSTORE PUSH1 0x20 PUSH1 0x0 KECCAK256 SWAP1 PUSH1 0x4 MUL ADD PUSH1 0x3 ADD DUP2 SWAP1 SSTORE POP PUSH1 0x0 DUP1 MLOAD PUSH1 0x20 PUSH2 0x5E7B DUP4 CODECOPY DUP2 MLOAD SWAP2 MSTORE DUP5 PUSH1 0x9 DUP4 DUP2 SLOAD DUP2 LT PUSH2 0x248D JUMPI PUSH2 0x248D PUSH2 0x5A76 JUMP JUMPDEST SWAP1 PUSH1 0x0 MSTORE PUSH1 0x20 PUSH1 0x0 KECCAK256 SWAP1 PUSH1 0x4 MUL ADD PUSH1 0x1 ADD PUSH1 0x0 SWAP1 SLOAD SWAP1 PUSH2 0x100 EXP SWAP1 DIV PUSH1 0x1 PUSH1 0x1 PUSH1 0x80 SHL SUB AND PUSH1 0x9 DUP5 DUP2 SLOAD DUP2 LT PUSH2 0x24C5 JUMPI PUSH2 0x24C5 PUSH2 0x5A76 JUMP JUMPDEST SWAP1 PUSH1 0x0 MSTORE PUSH1 0x20 PUSH1 0x0 KECCAK256 SWAP1 PUSH1 0x4 MUL ADD PUSH1 0x1 ADD PUSH1 0x10 SWAP1 SLOAD SWAP1 PUSH2 0x100 EXP SWAP1 DIV PUSH1 0x1 PUSH1 0x1 PUSH1 0x80 SHL SUB AND PUSH1 0x9 DUP6 DUP2 SLOAD DUP2 LT PUSH2 0x1D1B JUMPI PUSH2 0x1D1B PUSH2 0x5A76 JUMP JUMPDEST PUSH1 0x0 DUP3 DUP2 MSTORE PUSH1 0x4 PUSH1 0x20 MSTORE PUSH1 0x40 SWAP1 KECCAK256 PUSH1 0x1 ADD SLOAD PUSH2 0x2519 DUP2 CALLER PUSH2 0x2A5B JUMP JUMPDEST PUSH2 0xE2A DUP4 DUP4 PUSH2 0x2ABC JUMP JUMPDEST PUSH1 0x0 PUSH2 0x252F DUP2 CALLER PUSH2 0x2A5B JUMP JUMPDEST PUSH2 0x45C DUP6 DUP6 DUP6 PUSH1 0x0 NOT DUP7 PUSH2 0x3ED5 JUMP JUMPDEST PUSH1 0xC DUP1 SLOAD PUSH1 0x1 PUSH1 0x1 PUSH1 0xA0 SHL SUB DUP1 DUP8 AND PUSH1 0x1 PUSH1 0x1 PUSH1 0xA0 SHL SUB NOT SWAP3 DUP4 AND OR SWAP1 SWAP3 SSTORE PUSH1 0xD DUP1 SLOAD DUP7 DUP5 AND SWAP1 DUP4 AND OR SWAP1 SSTORE PUSH1 0xE DUP1 SLOAD SWAP3 DUP6 AND SWAP3 SWAP1 SWAP2 AND SWAP2 SWAP1 SWAP2 OR SWAP1 SSTORE PUSH2 0x45C PUSH2 0x22BA JUMP JUMPDEST PUSH1 0x1 PUSH1 0x1 PUSH1 0xA0 SHL SUB DUP6 AND CALLER EQ DUP1 ISZERO SWAP1 PUSH2 0x25A3 JUMPI POP PUSH2 0x25A1 DUP6 CALLER PUSH2 0x8C4 JUMP JUMPDEST ISZERO JUMPDEST ISZERO PUSH2 0x25C1 JUMPI PUSH1 0x40 MLOAD PUSH4 0xDE69555 PUSH1 0xE3 SHL DUP2 MSTORE PUSH1 0x4 ADD PUSH1 0x40 MLOAD DUP1 SWAP2 SUB SWAP1 REVERT JUMPDEST PUSH2 0x25CC ADDRESS DUP7 DUP7 PUSH2 0x4512 JUMP JUMPDEST PUSH2 0x45C DUP6 DUP6 DUP6 DUP6 DUP6 PUSH2 0x4697 JUMP JUMPDEST PUSH1 0x1 PUSH1 0x1 PUSH1 0xA0 SHL SUB DUP4 AND CALLER EQ DUP1 ISZERO SWAP1 PUSH2 0x25F9 JUMPI POP PUSH2 0x25F7 DUP4 CALLER PUSH2 0x8C4 JUMP JUMPDEST ISZERO JUMPDEST ISZERO PUSH2 0x2617 JUMPI PUSH1 0x40 MLOAD PUSH4 0xDE69555 PUSH1 0xE3 SHL DUP2 MSTORE PUSH1 0x4 ADD PUSH1 0x40 MLOAD DUP1 SWAP2 SUB SWAP1 REVERT JUMPDEST PUSH2 0xE2A DUP4 DUP4 DUP4 PUSH2 0x47AD JUMP JUMPDEST PUSH1 0x0 DUP1 DUP4 DUP1 TIMESTAMP GT ISZERO PUSH2 0x2646 JUMPI PUSH1 0x40 MLOAD PUSH3 0x461BCD PUSH1 0xE5 SHL DUP2 MSTORE PUSH1 0x4 ADD PUSH2 0xA48 SWAP1 PUSH2 0x5C71 JUMP JUMPDEST PUSH1 0xD SLOAD CALLER SWAP1 PUSH1 0x0 SWAP1 PUSH1 0x1 PUSH1 0x1 PUSH1 0xA0 SHL SUB DUP13 DUP2 AND SWAP2 AND EQ DUP1 ISZERO SWAP1 PUSH2 0x2676 JUMPI POP PUSH1 0xD SLOAD PUSH1 0x1 PUSH1 0x1 PUSH1 0xA0 SHL SUB DUP12 DUP2 AND SWAP2 AND EQ JUMPDEST ISZERO PUSH2 0x26F8 JUMPI PUSH2 0x2685 DUP12 DUP11 PUSH2 0x4334 JUMP JUMPDEST SWAP1 POP DUP8 DUP2 GT ISZERO PUSH2 0x26BB JUMPI PUSH1 0x40 MLOAD PUSH3 0x461BCD PUSH1 0xE5 SHL DUP2 MSTORE PUSH1 0x20 PUSH1 0x4 DUP3 ADD MSTORE PUSH1 0x1 PUSH1 0x24 DUP3 ADD MSTORE PUSH1 0x4B PUSH1 0xF8 SHL PUSH1 0x44 DUP3 ADD MSTORE PUSH1 0x64 ADD PUSH2 0xA48 JUMP JUMPDEST PUSH1 0x1 DUP2 GT PUSH2 0x26DB JUMPI PUSH1 0x40 MLOAD PUSH3 0x461BCD PUSH1 0xE5 SHL DUP2 MSTORE PUSH1 0x4 ADD PUSH2 0xA48 SWAP1 PUSH2 0x5C8C JUMP JUMPDEST PUSH2 0x26E6 DUP12 DUP4 DUP4 PUSH2 0x2ADE JUMP JUMPDEST PUSH2 0x26F3 DUP12 PUSH1 0x0 DUP12 DUP10 PUSH2 0x316E JUMP JUMPDEST PUSH2 0x28AE JUMP JUMPDEST PUSH1 0xD SLOAD PUSH1 0x1 PUSH1 0x1 PUSH1 0xA0 SHL SUB DUP13 DUP2 AND SWAP2 AND EQ DUP1 ISZERO PUSH2 0x2723 JUMPI POP PUSH1 0xD SLOAD PUSH1 0x1 PUSH1 0x1 PUSH1 0xA0 SHL SUB DUP12 DUP2 AND SWAP2 AND EQ ISZERO JUMPDEST ISZERO PUSH2 0x27B4 JUMPI PUSH2 0x2732 DUP11 DUP11 PUSH2 0x441E JUMP JUMPDEST SWAP1 POP DUP8 DUP2 GT ISZERO PUSH2 0x2768 JUMPI PUSH1 0x40 MLOAD PUSH3 0x461BCD PUSH1 0xE5 SHL DUP2 MSTORE PUSH1 0x20 PUSH1 0x4 DUP3 ADD MSTORE PUSH1 0x1 PUSH1 0x24 DUP3 ADD MSTORE PUSH1 0x25 PUSH1 0xF9 SHL PUSH1 0x44 DUP3 ADD MSTORE PUSH1 0x64 ADD PUSH2 0xA48 JUMP JUMPDEST PUSH1 0x1 DUP2 GT PUSH2 0x279C JUMPI PUSH1 0x40 MLOAD PUSH3 0x461BCD PUSH1 0xE5 SHL DUP2 MSTORE PUSH1 0x20 PUSH1 0x4 DUP3 ADD MSTORE PUSH1 0x1 PUSH1 0x24 DUP3 ADD MSTORE PUSH1 0x55 PUSH1 0xF8 SHL PUSH1 0x44 DUP3 ADD MSTORE PUSH1 0x64 ADD PUSH2 0xA48 JUMP JUMPDEST PUSH2 0x27A7 DUP12 DUP4 DUP4 PUSH2 0x2ADE JUMP JUMPDEST PUSH2 0x26F3 DUP11 DUP11 PUSH1 0x0 DUP10 PUSH2 0x316E JUMP JUMPDEST PUSH1 0xD SLOAD PUSH1 0x1 PUSH1 0x1 PUSH1 0xA0 SHL SUB DUP13 DUP2 AND SWAP2 AND EQ DUP1 ISZERO SWAP1 PUSH2 0x27E0 JUMPI POP PUSH1 0xD SLOAD PUSH1 0x1 PUSH1 0x1 PUSH1 0xA0 SHL SUB DUP12 DUP2 AND SWAP2 AND EQ ISZERO JUMPDEST ISZERO PUSH2 0x20C8 JUMPI PUSH1 0x0 PUSH2 0x27F1 DUP12 DUP12 PUSH2 0x441E JUMP JUMPDEST SWAP1 POP PUSH1 0x1 DUP2 GT PUSH2 0x2827 JUMPI PUSH1 0x40 MLOAD PUSH3 0x461BCD PUSH1 0xE5 SHL DUP2 MSTORE PUSH1 0x20 PUSH1 0x4 DUP3 ADD MSTORE PUSH1 0x1 PUSH1 0x24 DUP3 ADD MSTORE PUSH1 0x55 PUSH1 0xF8 SHL PUSH1 0x44 DUP3 ADD MSTORE PUSH1 0x64 ADD PUSH2 0xA48 JUMP JUMPDEST PUSH2 0x2831 DUP13 DUP3 PUSH2 0x4334 JUMP JUMPDEST SWAP2 POP DUP9 DUP3 GT ISZERO PUSH2 0x2867 JUMPI PUSH1 0x40 MLOAD PUSH3 0x461BCD PUSH1 0xE5 SHL DUP2 MSTORE PUSH1 0x20 PUSH1 0x4 DUP3 ADD MSTORE PUSH1 0x1 PUSH1 0x24 DUP3 ADD MSTORE PUSH1 0x4B PUSH1 0xF8 SHL PUSH1 0x44 DUP3 ADD MSTORE PUSH1 0x64 ADD PUSH2 0xA48 JUMP JUMPDEST PUSH1 0x1 DUP3 GT PUSH2 0x2887 JUMPI PUSH1 0x40 MLOAD PUSH3 0x461BCD PUSH1 0xE5 SHL DUP2 MSTORE PUSH1 0x4 ADD PUSH2 0xA48 SWAP1 PUSH2 0x5C8C JUMP JUMPDEST PUSH2 0x2892 DUP13 DUP5 DUP5 PUSH2 0x2ADE JUMP JUMPDEST PUSH2 0x289F DUP13 PUSH1 0x0 DUP4 ADDRESS PUSH2 0x316E JUMP JUMPDEST PUSH2 0x28AC DUP12 DUP12 PUSH1 0x0 DUP11 PUSH2 0x316E JUMP JUMPDEST POP JUMPDEST SWAP11 SWAP8 SWAP10 POP SWAP7 SWAP8 POP POP POP POP POP POP POP POP JUMP JUMPDEST PUSH2 0x28C8 DUP3 DUP3 PUSH2 0x1A7C JUMP JUMPDEST PUSH2 0x100B JUMPI PUSH1 0x0 DUP3 DUP2 MSTORE PUSH1 0x4 PUSH1 0x20 SWAP1 DUP2 MSTORE PUSH1 0x40 DUP1 DUP4 KECCAK256 PUSH1 0x1 PUSH1 0x1 PUSH1 0xA0 SHL SUB DUP6 AND DUP5 MSTORE SWAP1 SWAP2 MSTORE SWAP1 KECCAK256 DUP1 SLOAD PUSH1 0xFF NOT AND PUSH1 0x1 OR SWAP1 SSTORE PUSH2 0x2900 CALLER SWAP1 JUMP JUMPDEST PUSH1 0x1 PUSH1 0x1 PUSH1 0xA0 SHL SUB AND DUP2 PUSH1 0x1 PUSH1 0x1 PUSH1 0xA0 SHL SUB AND DUP4 PUSH32 0x2F8788117E7EFF1D82E926EC794901D17C78024A50270940304540A733656F0D PUSH1 0x40 MLOAD PUSH1 0x40 MLOAD DUP1 SWAP2 SUB SWAP1 LOG4 POP POP JUMP JUMPDEST PUSH1 0x0 PUSH2 0x16DE DUP4 PUSH1 0x1 PUSH1 0x1 PUSH1 0xA0 SHL SUB DUP5 AND PUSH2 0x48B0 JUMP JUMPDEST PUSH1 0x0 PUSH1 0x1 PUSH1 0x1 PUSH1 0xE0 SHL SUB NOT DUP3 AND PUSH4 0x5A05180F PUSH1 0xE0 SHL EQ DUP1 PUSH2 0x9B1 JUMPI POP PUSH4 0x1FFC9A7 PUSH1 0xE0 SHL PUSH1 0x1 PUSH1 0x1 PUSH1 0xE0 SHL SUB NOT DUP4 AND EQ PUSH2 0x9B1 JUMP JUMPDEST PUSH1 0xF SLOAD PUSH1 0x0 SWAP1 PUSH1 0x1 PUSH1 0x1 PUSH1 0xA0 SHL SUB DUP4 DUP2 AND SWAP2 AND EQ ISZERO PUSH2 0x29AE JUMPI POP SELFBALANCE SWAP2 SWAP1 POP JUMP JUMPDEST PUSH1 0x40 MLOAD PUSH4 0x70A08231 PUSH1 0xE0 SHL DUP2 MSTORE ADDRESS PUSH1 0x4 DUP3 ADD MSTORE PUSH1 0x1 PUSH1 0x1 PUSH1 0xA0 SHL SUB DUP4 AND SWAP1 PUSH4 0x70A08231 SWAP1 PUSH1 0x24 ADD PUSH1 0x20 PUSH1 0x40 MLOAD DUP1 DUP4 SUB DUP2 DUP7 GAS STATICCALL ISZERO DUP1 ISZERO PUSH2 0x29F2 JUMPI RETURNDATASIZE PUSH1 0x0 DUP1 RETURNDATACOPY RETURNDATASIZE PUSH1 0x0 REVERT JUMPDEST POP POP POP POP PUSH1 0x40 MLOAD RETURNDATASIZE PUSH1 0x1F NOT PUSH1 0x1F DUP3 ADD AND DUP3 ADD DUP1 PUSH1 0x40 MSTORE POP DUP2 ADD SWAP1 PUSH2 0x9B1 SWAP2 SWAP1 PUSH2 0x5D9C JUMP JUMPDEST SWAP2 SWAP1 POP JUMP JUMPDEST PUSH1 0x1 PUSH1 0x1 PUSH1 0xA0 SHL SUB DUP4 AND ADDRESS EQ PUSH2 0xBC6 JUMPI PUSH1 0xF SLOAD PUSH1 0x1 PUSH1 0x1 PUSH1 0xA0 SHL SUB DUP6 DUP2 AND SWAP2 AND EQ ISZERO PUSH2 0x2A50 JUMPI PUSH2 0x2A4B DUP4 DUP4 PUSH2 0x48FF JUMP JUMPDEST PUSH2 0xBC6 JUMP JUMPDEST PUSH2 0xBC6 DUP5 DUP5 DUP5 PUSH2 0x498D JUMP JUMPDEST PUSH2 0x2A65 DUP3 DUP3 PUSH2 0x1A7C JUMP JUMPDEST PUSH2 0x100B JUMPI PUSH1 0x40 MLOAD PUSH4 0x151BF58B PUSH1 0xE2 SHL DUP2 MSTORE PUSH1 0x1 PUSH1 0x1 PUSH1 0xA0 SHL SUB DUP3 AND PUSH1 0x4 DUP3 ADD MSTORE PUSH1 0x24 DUP2 ADD DUP4 SWAP1 MSTORE PUSH1 0x44 ADD PUSH2 0xA48 JUMP JUMPDEST PUSH2 0x100B DUP3 DUP3 JUMPDEST PUSH2 0x2AA4 DUP3 DUP3 PUSH2 0x28BE JUMP JUMPDEST PUSH1 0x0 DUP3 DUP2 MSTORE PUSH1 0x5 PUSH1 0x20 MSTORE PUSH1 0x40 SWAP1 KECCAK256 PUSH2 0xE2A SWAP1 DUP3 PUSH2 0x2944 JUMP JUMPDEST PUSH2 0x2AC6 DUP3 DUP3 PUSH2 0x4A72 JUMP JUMPDEST PUSH1 0x0 DUP3 DUP2 MSTORE PUSH1 0x5 PUSH1 0x20 MSTORE PUSH1 0x40 SWAP1 KECCAK256 PUSH2 0xE2A SWAP1 DUP3 PUSH2 0x4AD9 JUMP JUMPDEST PUSH1 0xF SLOAD PUSH1 0x1 PUSH1 0x1 PUSH1 0xA0 SHL SUB DUP5 DUP2 AND SWAP2 AND EQ PUSH2 0x2B41 JUMPI CALLVALUE ISZERO PUSH2 0x2B25 JUMPI PUSH1 0x40 MLOAD PUSH3 0x461BCD PUSH1 0xE5 SHL DUP2 MSTORE PUSH1 0x20 PUSH1 0x4 DUP3 ADD MSTORE PUSH1 0x1 PUSH1 0x24 DUP3 ADD MSTORE PUSH1 0x47 PUSH1 0xF8 SHL PUSH1 0x44 DUP3 ADD MSTORE PUSH1 0x64 ADD PUSH2 0xA48 JUMP JUMPDEST PUSH1 0x1 PUSH1 0x1 PUSH1 0xA0 SHL SUB DUP3 AND ADDRESS EQ PUSH2 0xE2A JUMPI PUSH2 0xE2A DUP4 DUP4 ADDRESS DUP5 PUSH2 0x4AEE JUMP JUMPDEST PUSH1 0xF SLOAD PUSH1 0x1 PUSH1 0x1 PUSH1 0xA0 SHL SUB DUP5 DUP2 AND SWAP2 AND EQ ISZERO PUSH2 0xE2A JUMPI DUP1 CALLVALUE LT ISZERO PUSH2 0x2B78 JUMPI PUSH1 0x40 MLOAD PUSH4 0xAC50B70D PUSH1 0xE0 SHL DUP2 MSTORE PUSH1 0x4 ADD PUSH1 0x40 MLOAD DUP1 SWAP2 SUB SWAP1 REVERT JUMPDEST DUP1 CALLVALUE GT ISZERO PUSH2 0xE2A JUMPI PUSH1 0xF SLOAD PUSH2 0xE2A SWAP1 PUSH1 0x1 PUSH1 0x1 PUSH1 0xA0 SHL SUB AND CALLER PUSH2 0x2B9B DUP5 CALLVALUE PUSH2 0x5AA2 JUMP JUMPDEST PUSH1 0x0 PUSH2 0x2A1B JUMP JUMPDEST PUSH1 0x0 PUSH1 0x3 DUP3 GT ISZERO PUSH2 0x2C03 JUMPI POP DUP1 PUSH1 0x0 PUSH2 0x2BBC PUSH1 0x2 DUP4 PUSH2 0x5CBD JUMP JUMPDEST PUSH2 0x2BC7 SWAP1 PUSH1 0x1 PUSH2 0x5C59 JUMP JUMPDEST SWAP1 POP JUMPDEST DUP2 DUP2 LT ISZERO PUSH2 0x2BFD JUMPI SWAP1 POP DUP1 PUSH1 0x2 DUP2 PUSH2 0x2BE2 DUP2 DUP7 PUSH2 0x5CBD JUMP JUMPDEST PUSH2 0x2BEC SWAP2 SWAP1 PUSH2 0x5C59 JUMP JUMPDEST PUSH2 0x2BF6 SWAP2 SWAP1 PUSH2 0x5CBD JUMP JUMPDEST SWAP1 POP PUSH2 0x2BCA JUMP JUMPDEST POP SWAP2 SWAP1 POP JUMP JUMPDEST DUP2 ISZERO PUSH2 0x2A16 JUMPI POP PUSH1 0x1 SWAP2 SWAP1 POP JUMP JUMPDEST PUSH1 0x11 SLOAD PUSH1 0x0 SWAP1 DUP2 SWAP1 DUP6 DUP6 GT DUP1 ISZERO PUSH2 0x2C28 JUMPI POP PUSH1 0x0 DUP7 GT JUMPDEST DUP1 ISZERO PUSH2 0x2C34 JUMPI POP PUSH1 0x0 DUP2 GT JUMPDEST ISZERO PUSH2 0x2C8D JUMPI PUSH2 0x2C43 DUP2 DUP8 PUSH2 0x5B26 JUMP JUMPDEST PUSH2 0x2C4E DUP3 PUSH1 0x64 PUSH2 0x5AA2 JUMP JUMPDEST PUSH2 0x2C58 SWAP1 DUP8 PUSH2 0x5B26 JUMP JUMPDEST PUSH2 0x2C62 SWAP2 SWAP1 PUSH2 0x5C59 JUMP JUMPDEST PUSH2 0x2C6C DUP8 DUP8 PUSH2 0x5AA2 JUMP JUMPDEST PUSH2 0x2C76 DUP4 DUP8 PUSH2 0x5B26 JUMP JUMPDEST PUSH2 0x2C80 SWAP2 SWAP1 PUSH2 0x5B26 JUMP JUMPDEST PUSH2 0x2C8A SWAP2 SWAP1 PUSH2 0x5CBD JUMP JUMPDEST SWAP2 POP JUMPDEST POP SWAP5 SWAP4 POP POP POP POP JUMP JUMPDEST PUSH1 0x1 PUSH1 0x1 PUSH1 0xA0 SHL SUB DUP5 AND PUSH2 0x2CBD JUMPI PUSH1 0x40 MLOAD PUSH4 0x3E11866B PUSH1 0xE2 SHL DUP2 MSTORE PUSH1 0x4 ADD PUSH1 0x40 MLOAD DUP1 SWAP2 SUB SWAP1 REVERT JUMPDEST CALLER PUSH2 0x2CDD DUP2 PUSH1 0x0 DUP8 PUSH2 0x2CCE DUP9 PUSH2 0x4BE3 JUMP JUMPDEST PUSH2 0x2CD7 DUP9 PUSH2 0x4BE3 JUMP JUMPDEST DUP8 PUSH2 0x4C2E JUMP JUMPDEST PUSH1 0x0 DUP5 DUP2 MSTORE PUSH1 0x20 DUP2 DUP2 MSTORE PUSH1 0x40 DUP1 DUP4 KECCAK256 PUSH1 0x1 PUSH1 0x1 PUSH1 0xA0 SHL SUB DUP10 AND DUP5 MSTORE SWAP1 SWAP2 MSTORE DUP2 KECCAK256 DUP1 SLOAD DUP6 SWAP3 SWAP1 PUSH2 0x2D0D SWAP1 DUP5 SWAP1 PUSH2 0x5C59 JUMP JUMPDEST SWAP1 SWAP2 SSTORE POP POP PUSH1 0x40 DUP1 MLOAD DUP6 DUP2 MSTORE PUSH1 0x20 DUP2 ADD DUP6 SWAP1 MSTORE PUSH1 0x1 PUSH1 0x1 PUSH1 0xA0 SHL SUB DUP1 DUP9 AND SWAP3 PUSH1 0x0 SWAP3 SWAP2 DUP6 AND SWAP2 PUSH32 0xC3D58168C5AE7397731D063D5BBF3D657854427343F4C083240F7AACAA2D0F62 SWAP2 ADD PUSH1 0x40 MLOAD DUP1 SWAP2 SUB SWAP1 LOG4 PUSH2 0x45C DUP2 PUSH1 0x0 DUP8 DUP8 DUP8 DUP8 PUSH2 0x4D3A JUMP JUMPDEST PUSH1 0x1 PUSH1 0x1 PUSH1 0xA0 SHL SUB DUP3 AND PUSH1 0x0 SWAP1 DUP2 MSTORE PUSH1 0xA PUSH1 0x20 MSTORE PUSH1 0x40 DUP2 KECCAK256 SLOAD DUP4 SWAP1 ISZERO DUP1 PUSH2 0x2DA1 JUMPI POP PUSH1 0xD SLOAD PUSH1 0x1 PUSH1 0x1 PUSH1 0xA0 SHL SUB DUP3 DUP2 AND SWAP2 AND EQ JUMPDEST ISZERO PUSH2 0x2DBE JUMPI PUSH1 0x40 MLOAD PUSH3 0x461BCD PUSH1 0xE5 SHL DUP2 MSTORE PUSH1 0x4 ADD PUSH2 0xA48 SWAP1 PUSH2 0x5A5B JUMP JUMPDEST PUSH1 0x1 PUSH1 0x1 PUSH1 0xA0 SHL SUB DUP5 AND PUSH1 0x0 SWAP1 DUP2 MSTORE PUSH1 0xA PUSH1 0x20 MSTORE PUSH1 0x40 SWAP1 KECCAK256 SLOAD PUSH1 0x9 DUP1 SLOAD PUSH2 0x2E57 SWAP2 DUP7 SWAP2 DUP5 SWAP1 DUP2 LT PUSH2 0x2DF1 JUMPI PUSH2 0x2DF1 PUSH2 0x5A76 JUMP JUMPDEST PUSH1 0x0 SWAP2 DUP3 MSTORE PUSH1 0x20 SWAP1 SWAP2 KECCAK256 PUSH1 0x1 PUSH1 0x4 SWAP1 SWAP3 MUL ADD ADD SLOAD PUSH1 0x9 DUP1 SLOAD PUSH1 0x1 PUSH1 0x1 PUSH1 0x80 SHL SUB SWAP1 SWAP3 AND SWAP2 DUP6 SWAP1 DUP2 LT PUSH2 0x2E25 JUMPI PUSH2 0x2E25 PUSH2 0x5A76 JUMP JUMPDEST PUSH1 0x0 SWAP2 DUP3 MSTORE PUSH1 0x20 SWAP1 SWAP2 KECCAK256 PUSH1 0x4 SWAP1 SWAP2 MUL ADD PUSH1 0x1 ADD SLOAD PUSH1 0x1 PUSH1 0x80 SHL SWAP1 DIV PUSH1 0x1 PUSH1 0x1 PUSH1 0x80 SHL SUB AND PUSH2 0x2E52 DUP6 PUSH2 0x2F4A JUMP JUMPDEST PUSH2 0x4DFE JUMP JUMPDEST SWAP6 SWAP5 POP POP POP POP POP JUMP JUMPDEST PUSH1 0x1 PUSH1 0x1 PUSH1 0xA0 SHL SUB DUP3 AND PUSH1 0x0 SWAP1 DUP2 MSTORE PUSH1 0xA PUSH1 0x20 MSTORE PUSH1 0x40 DUP2 KECCAK256 SLOAD DUP4 SWAP1 ISZERO DUP1 PUSH2 0x2E94 JUMPI POP PUSH1 0xD SLOAD PUSH1 0x1 PUSH1 0x1 PUSH1 0xA0 SHL SUB DUP3 DUP2 AND SWAP2 AND EQ JUMPDEST ISZERO PUSH2 0x2EB1 JUMPI PUSH1 0x40 MLOAD PUSH3 0x461BCD PUSH1 0xE5 SHL DUP2 MSTORE PUSH1 0x4 ADD PUSH2 0xA48 SWAP1 PUSH2 0x5A5B JUMP JUMPDEST PUSH1 0x1 PUSH1 0x1 PUSH1 0xA0 SHL SUB DUP5 AND PUSH1 0x0 SWAP1 DUP2 MSTORE PUSH1 0xA PUSH1 0x20 MSTORE PUSH1 0x40 SWAP1 KECCAK256 SLOAD PUSH1 0x9 DUP1 SLOAD PUSH2 0x2E57 SWAP2 DUP7 SWAP2 DUP5 SWAP1 DUP2 LT PUSH2 0x2EE4 JUMPI PUSH2 0x2EE4 PUSH2 0x5A76 JUMP JUMPDEST SWAP1 PUSH1 0x0 MSTORE PUSH1 0x20 PUSH1 0x0 KECCAK256 SWAP1 PUSH1 0x4 MUL ADD PUSH1 0x1 ADD PUSH1 0x10 SWAP1 SLOAD SWAP1 PUSH2 0x100 EXP SWAP1 DIV PUSH1 0x1 PUSH1 0x1 PUSH1 0x80 SHL SUB AND PUSH1 0x1 PUSH1 0x1 PUSH1 0x80 SHL SUB AND PUSH1 0x9 DUP5 DUP2 SLOAD DUP2 LT PUSH2 0x2F25 JUMPI PUSH2 0x2F25 PUSH2 0x5A76 JUMP JUMPDEST PUSH1 0x0 SWAP2 DUP3 MSTORE PUSH1 0x20 SWAP1 SWAP2 KECCAK256 PUSH1 0x1 PUSH1 0x4 SWAP1 SWAP3 MUL ADD ADD SLOAD PUSH1 0x1 PUSH1 0x1 PUSH1 0x80 SHL SUB AND PUSH2 0x2710 PUSH2 0x4DFE JUMP JUMPDEST PUSH1 0x0 DUP1 PUSH2 0x2F55 PUSH2 0x4E3A JUMP JUMPDEST SWAP1 POP PUSH1 0x0 PUSH1 0x8 PUSH2 0x2F66 DUP4 PUSH1 0x1 PUSH2 0x5C59 JUMP JUMPDEST PUSH2 0x2F70 SWAP2 SWAP1 PUSH2 0x5DB5 JUMP JUMPDEST SWAP1 POP PUSH1 0x0 DUP1 JUMPDEST PUSH1 0x8 DUP2 LT ISZERO PUSH2 0x300D JUMPI DUP4 DUP2 EQ DUP1 PUSH2 0x2F8C JUMPI POP DUP3 DUP2 EQ JUMPDEST ISZERO PUSH2 0x2F96 JUMPI PUSH2 0x2FFB JUMP JUMPDEST PUSH1 0x9 DUP7 DUP2 SLOAD DUP2 LT PUSH2 0x2FA9 JUMPI PUSH2 0x2FA9 PUSH2 0x5A76 JUMP JUMPDEST SWAP1 PUSH1 0x0 MSTORE PUSH1 0x20 PUSH1 0x0 KECCAK256 SWAP1 PUSH1 0x4 MUL ADD PUSH1 0x0 ADD DUP2 PUSH1 0x8 DUP2 LT PUSH2 0x2FCB JUMPI PUSH2 0x2FCB PUSH2 0x5A76 JUMP JUMPDEST PUSH1 0x8 SWAP2 DUP3 DUP3 DIV ADD SWAP2 SWAP1 MOD PUSH1 0x4 MUL SWAP1 SLOAD SWAP1 PUSH2 0x100 EXP SWAP1 DIV PUSH4 0xFFFFFFFF AND PUSH4 0xFFFFFFFF AND DUP3 PUSH2 0x2FF8 SWAP2 SWAP1 PUSH2 0x5C59 JUMP JUMPDEST SWAP2 POP JUMPDEST DUP1 PUSH2 0x3005 DUP2 PUSH2 0x5AB9 JUMP JUMPDEST SWAP2 POP POP PUSH2 0x2F76 JUMP JUMPDEST POP PUSH2 0x3020 PUSH8 0x8AC7230489E80000 DUP3 PUSH2 0x5B26 JUMP JUMPDEST SWAP1 POP PUSH1 0x0 PUSH5 0x2540BE400 PUSH1 0x10 PUSH1 0x4 ADD SLOAD PUSH1 0x9 DUP9 DUP2 SLOAD DUP2 LT PUSH2 0x3043 JUMPI PUSH2 0x3043 PUSH2 0x5A76 JUMP JUMPDEST PUSH1 0x0 SWAP2 DUP3 MSTORE PUSH1 0x20 SWAP1 SWAP2 KECCAK256 PUSH1 0x4 SWAP1 SWAP2 MUL ADD PUSH1 0x1 ADD SLOAD PUSH2 0x3071 SWAP2 SWAP1 PUSH1 0x1 PUSH1 0x80 SHL SWAP1 DIV PUSH1 0x1 PUSH1 0x1 PUSH1 0x80 SHL SUB AND PUSH2 0x5B26 JUMP JUMPDEST PUSH2 0x307B SWAP2 SWAP1 PUSH2 0x5CBD JUMP JUMPDEST SWAP1 POP PUSH1 0x0 PUSH5 0x2540BE400 PUSH1 0x10 PUSH1 0x5 ADD SLOAD PUSH1 0x9 DUP10 DUP2 SLOAD DUP2 LT PUSH2 0x309E JUMPI PUSH2 0x309E PUSH2 0x5A76 JUMP JUMPDEST PUSH1 0x0 SWAP2 DUP3 MSTORE PUSH1 0x20 SWAP1 SWAP2 KECCAK256 PUSH1 0x4 SWAP1 SWAP2 MUL ADD PUSH1 0x1 ADD SLOAD PUSH2 0x30CC SWAP2 SWAP1 PUSH1 0x1 PUSH1 0x80 SHL SWAP1 DIV PUSH1 0x1 PUSH1 0x1 PUSH1 0x80 SHL SUB AND PUSH2 0x5B26 JUMP JUMPDEST PUSH2 0x30D6 SWAP2 SWAP1 PUSH2 0x5CBD JUMP JUMPDEST SWAP1 POP PUSH1 0x0 DUP3 DUP5 GT PUSH2 0x30EA JUMPI POP PUSH1 0x13 SLOAD PUSH2 0x3156 JUMP JUMPDEST DUP4 DUP4 LT DUP1 ISZERO PUSH2 0x30F8 JUMPI POP DUP2 DUP5 LT JUMPDEST ISZERO PUSH2 0x3149 JUMPI PUSH2 0x3107 DUP4 DUP4 PUSH2 0x5AA2 JUMP JUMPDEST PUSH1 0x12 SLOAD PUSH1 0x13 SLOAD PUSH2 0x3117 SWAP2 SWAP1 PUSH2 0x5AA2 JUMP JUMPDEST PUSH2 0x3121 DUP6 DUP8 PUSH2 0x5AA2 JUMP JUMPDEST PUSH2 0x312B SWAP2 SWAP1 PUSH2 0x5B26 JUMP JUMPDEST PUSH2 0x3135 SWAP2 SWAP1 PUSH2 0x5CBD JUMP JUMPDEST PUSH1 0x13 SLOAD PUSH2 0x3142 SWAP2 SWAP1 PUSH2 0x5AA2 JUMP JUMPDEST SWAP1 POP PUSH2 0x3156 JUMP JUMPDEST DUP2 DUP5 GT ISZERO PUSH2 0x3156 JUMPI POP PUSH1 0x12 SLOAD JUMPDEST PUSH2 0x3162 DUP2 PUSH2 0x2710 PUSH2 0x5AA2 JUMP JUMPDEST SWAP9 SWAP8 POP POP POP POP POP POP POP POP JUMP JUMPDEST PUSH1 0x1 PUSH1 0x1 PUSH1 0xA0 SHL SUB DUP5 AND PUSH1 0x0 SWAP1 DUP2 MSTORE PUSH1 0xA PUSH1 0x20 MSTORE PUSH1 0x40 SWAP1 KECCAK256 SLOAD DUP5 SWAP1 ISZERO DUP1 PUSH2 0x31A2 JUMPI POP PUSH1 0xD SLOAD PUSH1 0x1 PUSH1 0x1 PUSH1 0xA0 SHL SUB DUP3 DUP2 AND SWAP2 AND EQ JUMPDEST ISZERO PUSH2 0x31BF JUMPI PUSH1 0x40 MLOAD PUSH3 0x461BCD PUSH1 0xE5 SHL DUP2 MSTORE PUSH1 0x4 ADD PUSH2 0xA48 SWAP1 PUSH2 0x5A5B JUMP JUMPDEST PUSH1 0x1 PUSH1 0x1 PUSH1 0xA0 SHL SUB DUP1 DUP7 AND PUSH1 0x0 SWAP1 DUP2 MSTORE PUSH1 0xA PUSH1 0x20 MSTORE PUSH1 0x40 DUP2 KECCAK256 SLOAD PUSH1 0xB SLOAD PUSH1 0xD SLOAD SWAP2 SWAP4 SWAP1 SWAP2 PUSH2 0x31ED SWAP2 AND PUSH2 0x298E JUMP JUMPDEST PUSH2 0x31F7 SWAP2 SWAP1 PUSH2 0x5AA2 JUMP JUMPDEST SWAP1 POP PUSH1 0x0 PUSH1 0x9 DUP4 DUP2 SLOAD DUP2 LT PUSH2 0x320E JUMPI PUSH2 0x320E PUSH2 0x5A76 JUMP JUMPDEST PUSH1 0x0 SWAP2 DUP3 MSTORE PUSH1 0x20 SWAP1 SWAP2 KECCAK256 PUSH1 0x1 PUSH1 0x4 SWAP1 SWAP3 MUL ADD ADD SLOAD PUSH1 0x1 PUSH1 0x1 PUSH1 0x80 SHL SUB AND PUSH2 0x3234 DUP10 PUSH2 0x298E JUMP JUMPDEST PUSH2 0x323E SWAP2 SWAP1 PUSH2 0x5AA2 JUMP JUMPDEST SWAP1 POP PUSH1 0x1 PUSH2 0x324C DUP4 DUP4 PUSH2 0x5C59 JUMP JUMPDEST GT PUSH2 0x327D JUMPI PUSH1 0x40 MLOAD PUSH3 0x461BCD PUSH1 0xE5 SHL DUP2 MSTORE PUSH1 0x20 PUSH1 0x4 DUP3 ADD MSTORE PUSH1 0x1 PUSH1 0x24 DUP3 ADD MSTORE PUSH1 0x19 PUSH1 0xF9 SHL PUSH1 0x44 DUP3 ADD MSTORE PUSH1 0x64 ADD PUSH2 0xA48 JUMP JUMPDEST PUSH1 0x0 PUSH1 0x1 DUP4 GT DUP1 ISZERO PUSH2 0x3290 JUMPI POP PUSH1 0x1 DUP3 GT ISZERO JUMPDEST PUSH2 0x32A2 JUMPI PUSH2 0x329D DUP5 PUSH2 0x2F4A JUMP JUMPDEST PUSH2 0x32A6 JUMP JUMPDEST PUSH2 0x2710 JUMPDEST SWAP1 POP DUP8 DUP3 PUSH1 0x9 DUP7 DUP2 SLOAD DUP2 LT PUSH2 0x32BD JUMPI PUSH2 0x32BD PUSH2 0x5A76 JUMP JUMPDEST SWAP1 PUSH1 0x0 MSTORE PUSH1 0x20 PUSH1 0x0 KECCAK256 SWAP1 PUSH1 0x4 MUL ADD PUSH1 0x3 ADD SLOAD PUSH2 0x32D9 SWAP2 SWAP1 PUSH2 0x5C59 JUMP JUMPDEST LT ISZERO PUSH2 0x330B JUMPI PUSH1 0x40 MLOAD PUSH3 0x461BCD PUSH1 0xE5 SHL DUP2 MSTORE PUSH1 0x20 PUSH1 0x4 DUP3 ADD MSTORE PUSH1 0x1 PUSH1 0x24 DUP3 ADD MSTORE PUSH1 0x2D PUSH1 0xF9 SHL PUSH1 0x44 DUP3 ADD MSTORE PUSH1 0x64 ADD PUSH2 0xA48 JUMP JUMPDEST PUSH1 0x0 PUSH2 0x2710 PUSH1 0x9 DUP7 DUP2 SLOAD DUP2 LT PUSH2 0x3323 JUMPI PUSH2 0x3323 PUSH2 0x5A76 JUMP JUMPDEST SWAP1 PUSH1 0x0 MSTORE PUSH1 0x20 PUSH1 0x0 KECCAK256 SWAP1 PUSH1 0x4 MUL ADD PUSH1 0x1 ADD PUSH1 0x0 SWAP1 SLOAD SWAP1 PUSH2 0x100 EXP SWAP1 DIV PUSH1 0x1 PUSH1 0x1 PUSH1 0x80 SHL SUB AND PUSH1 0x1 PUSH1 0x1 PUSH1 0x80 SHL SUB AND PUSH2 0x2710 PUSH1 0x9 DUP9 DUP2 SLOAD DUP2 LT PUSH2 0x3367 JUMPI PUSH2 0x3367 PUSH2 0x5A76 JUMP JUMPDEST PUSH1 0x0 SWAP2 DUP3 MSTORE PUSH1 0x20 SWAP1 SWAP2 KECCAK256 PUSH1 0x4 SWAP1 SWAP2 MUL ADD PUSH1 0x1 ADD SLOAD PUSH2 0x3395 SWAP2 SWAP1 PUSH1 0x1 PUSH1 0x80 SHL SWAP1 DIV PUSH1 0x1 PUSH1 0x1 PUSH1 0x80 SHL SUB AND PUSH2 0x5B26 JUMP JUMPDEST PUSH2 0x339F SWAP2 SWAP1 PUSH2 0x5B26 JUMP JUMPDEST PUSH2 0x33A9 SWAP2 SWAP1 PUSH2 0x5B26 JUMP JUMPDEST SWAP1 POP PUSH1 0x0 DUP9 DUP6 PUSH1 0xB SLOAD PUSH2 0x33BC SWAP2 SWAP1 PUSH2 0x5C59 JUMP JUMPDEST PUSH2 0x33C6 SWAP2 SWAP1 PUSH2 0x5AA2 JUMP JUMPDEST SWAP1 POP PUSH1 0x0 DUP10 DUP7 PUSH1 0x9 DUP10 DUP2 SLOAD DUP2 LT PUSH2 0x33DF JUMPI PUSH2 0x33DF PUSH2 0x5A76 JUMP JUMPDEST PUSH1 0x0 SWAP2 DUP3 MSTORE PUSH1 0x20 SWAP1 SWAP2 KECCAK256 PUSH1 0x4 SWAP1 SWAP2 MUL ADD PUSH1 0x1 ADD SLOAD PUSH2 0x340D SWAP2 SWAP1 PUSH1 0x1 PUSH1 0x80 SHL SWAP1 DIV PUSH1 0x1 PUSH1 0x1 PUSH1 0x80 SHL SUB AND PUSH2 0x5C59 JUMP JUMPDEST PUSH2 0x3417 SWAP2 SWAP1 PUSH2 0x5AA2 JUMP JUMPDEST SWAP1 POP PUSH1 0x0 DUP12 DUP7 PUSH1 0x9 DUP11 DUP2 SLOAD DUP2 LT PUSH2 0x3430 JUMPI PUSH2 0x3430 PUSH2 0x5A76 JUMP JUMPDEST PUSH1 0x0 SWAP2 DUP3 MSTORE PUSH1 0x20 SWAP1 SWAP2 KECCAK256 PUSH1 0x1 PUSH1 0x4 SWAP1 SWAP3 MUL ADD ADD SLOAD PUSH2 0x3457 SWAP2 SWAP1 PUSH1 0x1 PUSH1 0x1 PUSH1 0x80 SHL SUB AND PUSH2 0x5C59 JUMP JUMPDEST PUSH2 0x3461 SWAP2 SWAP1 PUSH2 0x5AA2 JUMP JUMPDEST SWAP1 POP PUSH1 0x0 PUSH2 0x3471 DUP7 PUSH2 0x2710 PUSH2 0x5AA2 JUMP JUMPDEST PUSH2 0x347B SWAP1 DUP9 PUSH2 0x5B26 JUMP JUMPDEST PUSH2 0x3487 PUSH2 0x2710 DUP5 PUSH2 0x5B26 JUMP JUMPDEST PUSH2 0x3491 SWAP2 SWAP1 PUSH2 0x5AA2 JUMP JUMPDEST PUSH2 0x349D DUP8 PUSH2 0x2710 PUSH2 0x5AA2 JUMP JUMPDEST PUSH2 0x34A7 SWAP1 DUP11 PUSH2 0x5B26 JUMP JUMPDEST PUSH2 0x34B3 PUSH2 0x2710 DUP7 PUSH2 0x5B26 JUMP JUMPDEST PUSH2 0x34BD SWAP2 SWAP1 PUSH2 0x5AA2 JUMP JUMPDEST PUSH2 0x34C7 SWAP2 SWAP1 PUSH2 0x5B26 JUMP JUMPDEST SWAP1 POP DUP5 DUP2 LT ISZERO PUSH2 0x34FD JUMPI PUSH1 0x40 MLOAD PUSH3 0x461BCD PUSH1 0xE5 SHL DUP2 MSTORE PUSH1 0x20 PUSH1 0x4 DUP3 ADD MSTORE PUSH1 0x1 PUSH1 0x24 DUP3 ADD MSTORE PUSH1 0x31 PUSH1 0xF8 SHL PUSH1 0x44 DUP3 ADD MSTORE PUSH1 0x64 ADD PUSH2 0xA48 JUMP JUMPDEST DUP4 PUSH1 0xB DUP2 SWAP1 SSTORE POP DUP3 PUSH1 0x9 DUP11 DUP2 SLOAD DUP2 LT PUSH2 0x3518 JUMPI PUSH2 0x3518 PUSH2 0x5A76 JUMP JUMPDEST SWAP1 PUSH1 0x0 MSTORE PUSH1 0x20 PUSH1 0x0 KECCAK256 SWAP1 PUSH1 0x4 MUL ADD PUSH1 0x1 ADD PUSH1 0x10 PUSH2 0x100 EXP DUP2 SLOAD DUP2 PUSH1 0x1 PUSH1 0x1 PUSH1 0x80 SHL SUB MUL NOT AND SWAP1 DUP4 PUSH1 0x1 PUSH1 0x1 PUSH1 0x80 SHL SUB AND MUL OR SWAP1 SSTORE POP DUP2 PUSH1 0x9 DUP11 DUP2 SLOAD DUP2 LT PUSH2 0x3561 JUMPI PUSH2 0x3561 PUSH2 0x5A76 JUMP JUMPDEST SWAP1 PUSH1 0x0 MSTORE PUSH1 0x20 PUSH1 0x0 KECCAK256 SWAP1 PUSH1 0x4 MUL ADD PUSH1 0x1 ADD PUSH1 0x0 PUSH2 0x100 EXP DUP2 SLOAD DUP2 PUSH1 0x1 PUSH1 0x1 PUSH1 0x80 SHL SUB MUL NOT AND SWAP1 DUP4 PUSH1 0x1 PUSH1 0x1 PUSH1 0x80 SHL SUB AND MUL OR SWAP1 SSTORE POP PUSH1 0x0 NOT PUSH1 0x9 DUP11 DUP2 SLOAD DUP2 LT PUSH2 0x35AC JUMPI PUSH2 0x35AC PUSH2 0x5A76 JUMP JUMPDEST SWAP1 PUSH1 0x0 MSTORE PUSH1 0x20 PUSH1 0x0 KECCAK256 SWAP1 PUSH1 0x4 MUL ADD PUSH1 0x3 ADD SLOAD LT ISZERO PUSH2 0x3628 JUMPI DUP12 DUP9 PUSH1 0x9 DUP12 DUP2 SLOAD DUP2 LT PUSH2 0x35D9 JUMPI PUSH2 0x35D9 PUSH2 0x5A76 JUMP JUMPDEST SWAP1 PUSH1 0x0 MSTORE PUSH1 0x20 PUSH1 0x0 KECCAK256 SWAP1 PUSH1 0x4 MUL ADD PUSH1 0x3 ADD SLOAD PUSH2 0x35F5 SWAP2 SWAP1 PUSH2 0x5C59 JUMP JUMPDEST PUSH2 0x35FF SWAP2 SWAP1 PUSH2 0x5AA2 JUMP JUMPDEST PUSH1 0x9 DUP11 DUP2 SLOAD DUP2 LT PUSH2 0x3612 JUMPI PUSH2 0x3612 PUSH2 0x5A76 JUMP JUMPDEST SWAP1 PUSH1 0x0 MSTORE PUSH1 0x20 PUSH1 0x0 KECCAK256 SWAP1 PUSH1 0x4 MUL ADD PUSH1 0x3 ADD DUP2 SWAP1 SSTORE POP JUMPDEST POP POP POP POP POP PUSH1 0x0 PUSH2 0x3637 PUSH2 0x4E3A JUMP JUMPDEST SWAP1 POP PUSH1 0x0 PUSH1 0x8 PUSH2 0x3645 PUSH2 0x4E3A JUMP JUMPDEST PUSH2 0x3650 SWAP1 PUSH1 0x1 PUSH2 0x5C59 JUMP JUMPDEST PUSH2 0x365A SWAP2 SWAP1 PUSH2 0x5DB5 JUMP JUMPDEST SWAP1 POP PUSH8 0x8AC7230489E80000 DUP10 GT ISZERO PUSH2 0x375A JUMPI PUSH1 0x0 PUSH2 0x3680 PUSH8 0x8AC7230489E80000 DUP12 PUSH2 0x5CBD JUMP JUMPDEST PUSH1 0x9 DUP9 DUP2 SLOAD DUP2 LT PUSH2 0x3693 JUMPI PUSH2 0x3693 PUSH2 0x5A76 JUMP JUMPDEST SWAP1 PUSH1 0x0 MSTORE PUSH1 0x20 PUSH1 0x0 KECCAK256 SWAP1 PUSH1 0x4 MUL ADD PUSH1 0x0 ADD DUP5 PUSH1 0x8 DUP2 LT PUSH2 0x36B5 JUMPI PUSH2 0x36B5 PUSH2 0x5A76 JUMP JUMPDEST PUSH1 0x8 SWAP2 DUP3 DUP3 DIV ADD SWAP2 SWAP1 MOD PUSH1 0x4 MUL SWAP1 SLOAD SWAP1 PUSH2 0x100 EXP SWAP1 DIV PUSH4 0xFFFFFFFF AND PUSH4 0xFFFFFFFF AND PUSH2 0x36E1 SWAP2 SWAP1 PUSH2 0x5C59 JUMP JUMPDEST SWAP1 POP PUSH4 0xFFFFFFFF DUP2 LT PUSH2 0x36F8 JUMPI PUSH4 0xFFFFFFFF PUSH2 0x36FA JUMP JUMPDEST DUP1 JUMPDEST PUSH1 0x9 DUP9 DUP2 SLOAD DUP2 LT PUSH2 0x370D JUMPI PUSH2 0x370D PUSH2 0x5A76 JUMP JUMPDEST SWAP1 PUSH1 0x0 MSTORE PUSH1 0x20 PUSH1 0x0 KECCAK256 SWAP1 PUSH1 0x4 MUL ADD PUSH1 0x0 ADD DUP5 PUSH1 0x8 DUP2 LT PUSH2 0x372F JUMPI PUSH2 0x372F PUSH2 0x5A76 JUMP JUMPDEST PUSH1 0x8 SWAP2 DUP3 DUP3 DIV ADD SWAP2 SWAP1 MOD PUSH1 0x4 MUL PUSH2 0x100 EXP DUP2 SLOAD DUP2 PUSH4 0xFFFFFFFF MUL NOT AND SWAP1 DUP4 PUSH4 0xFFFFFFFF AND MUL OR SWAP1 SSTORE POP POP JUMPDEST PUSH1 0x1 PUSH1 0x9 DUP8 DUP2 SLOAD DUP2 LT PUSH2 0x376F JUMPI PUSH2 0x376F PUSH2 0x5A76 JUMP JUMPDEST SWAP1 PUSH1 0x0 MSTORE PUSH1 0x20 PUSH1 0x0 KECCAK256 SWAP1 PUSH1 0x4 MUL ADD PUSH1 0x0 ADD DUP3 PUSH1 0x8 DUP2 LT PUSH2 0x3791 JUMPI PUSH2 0x3791 PUSH2 0x5A76 JUMP JUMPDEST PUSH1 0x8 SWAP2 DUP3 DUP3 DIV ADD SWAP2 SWAP1 MOD PUSH1 0x4 MUL SWAP1 SLOAD SWAP1 PUSH2 0x100 EXP SWAP1 DIV PUSH4 0xFFFFFFFF AND PUSH4 0xFFFFFFFF AND GT ISZERO PUSH2 0x381A JUMPI PUSH1 0x1 PUSH1 0x9 DUP8 DUP2 SLOAD DUP2 LT PUSH2 0x37CE JUMPI PUSH2 0x37CE PUSH2 0x5A76 JUMP JUMPDEST SWAP1 PUSH1 0x0 MSTORE PUSH1 0x20 PUSH1 0x0 KECCAK256 SWAP1 PUSH1 0x4 MUL ADD PUSH1 0x0 ADD DUP3 PUSH1 0x8 DUP2 LT PUSH2 0x37F0 JUMPI PUSH2 0x37F0 PUSH2 0x5A76 JUMP JUMPDEST PUSH1 0x8 SWAP2 DUP3 DUP3 DIV ADD SWAP2 SWAP1 MOD PUSH1 0x4 MUL PUSH2 0x100 EXP DUP2 SLOAD DUP2 PUSH4 0xFFFFFFFF MUL NOT AND SWAP1 DUP4 PUSH4 0xFFFFFFFF AND MUL OR SWAP1 SSTORE POP JUMPDEST DUP10 ISZERO PUSH2 0x388B JUMPI PUSH2 0x382D DUP12 DUP10 DUP13 PUSH1 0x1 PUSH2 0x2A1B JUMP JUMPDEST PUSH1 0x0 PUSH2 0x3838 DUP13 PUSH2 0x298E JUMP JUMPDEST SWAP1 POP PUSH1 0x9 DUP8 DUP2 SLOAD DUP2 LT PUSH2 0x384D JUMPI PUSH2 0x384D PUSH2 0x5A76 JUMP JUMPDEST PUSH1 0x0 SWAP2 DUP3 MSTORE PUSH1 0x20 SWAP1 SWAP2 KECCAK256 PUSH1 0x1 PUSH1 0x4 SWAP1 SWAP3 MUL ADD ADD SLOAD PUSH1 0x1 PUSH1 0x1 PUSH1 0x80 SHL SUB AND DUP2 EQ PUSH2 0x3889 JUMPI PUSH1 0x40 MLOAD PUSH4 0xA8B538D3 PUSH1 0xE0 SHL DUP2 MSTORE PUSH1 0x4 ADD PUSH1 0x40 MLOAD DUP1 SWAP2 SUB SWAP1 REVERT JUMPDEST POP JUMPDEST DUP9 ISZERO PUSH2 0x38AA JUMPI PUSH1 0xD SLOAD PUSH2 0x38AA SWAP1 PUSH1 0x1 PUSH1 0x1 PUSH1 0xA0 SHL SUB AND DUP10 DUP12 PUSH1 0x1 PUSH2 0x2A1B JUMP JUMPDEST PUSH32 0x4AB7F3F4678BF8F6CBE4D85E4007B7C64DF8E1D5D97DE1628F4A6416F9D1DB03 DUP12 CALLER DUP7 DUP9 DUP15 DUP15 PUSH2 0x38DD DUP11 PUSH2 0x2710 PUSH2 0x5AA2 JUMP JUMPDEST PUSH1 0x40 DUP1 MLOAD PUSH1 0x1 PUSH1 0x1 PUSH1 0xA0 SHL SUB SWAP9 DUP10 AND DUP2 MSTORE SWAP7 DUP9 AND PUSH1 0x20 DUP9 ADD MSTORE DUP7 ADD SWAP5 SWAP1 SWAP5 MSTORE PUSH1 0x60 DUP6 ADD SWAP3 SWAP1 SWAP3 MSTORE PUSH1 0x80 DUP5 ADD MSTORE PUSH1 0xA0 DUP4 ADD MSTORE PUSH1 0xC0 DUP3 ADD MSTORE SWAP1 DUP11 AND PUSH1 0xE0 DUP3 ADD MSTORE PUSH2 0x100 ADD PUSH1 0x40 MLOAD DUP1 SWAP2 SUB SWAP1 LOG1 PUSH1 0x0 DUP1 MLOAD PUSH1 0x20 PUSH2 0x5E7B DUP4 CODECOPY DUP2 MLOAD SWAP2 MSTORE DUP12 PUSH1 0x9 DUP9 DUP2 SLOAD DUP2 LT PUSH2 0x394A JUMPI PUSH2 0x394A PUSH2 0x5A76 JUMP JUMPDEST SWAP1 PUSH1 0x0 MSTORE PUSH1 0x20 PUSH1 0x0 KECCAK256 SWAP1 PUSH1 0x4 MUL ADD PUSH1 0x1 ADD PUSH1 0x0 SWAP1 SLOAD SWAP1 PUSH2 0x100 EXP SWAP1 DIV PUSH1 0x1 PUSH1 0x1 PUSH1 0x80 SHL SUB AND PUSH1 0x9 DUP10 DUP2 SLOAD DUP2 LT PUSH2 0x3982 JUMPI PUSH2 0x3982 PUSH2 0x5A76 JUMP JUMPDEST SWAP1 PUSH1 0x0 MSTORE PUSH1 0x20 PUSH1 0x0 KECCAK256 SWAP1 PUSH1 0x4 MUL ADD PUSH1 0x1 ADD PUSH1 0x10 SWAP1 SLOAD SWAP1 PUSH2 0x100 EXP SWAP1 DIV PUSH1 0x1 PUSH1 0x1 PUSH1 0x80 SHL SUB AND PUSH1 0x9 DUP11 DUP2 SLOAD DUP2 LT PUSH2 0x39BA JUMPI PUSH2 0x39BA PUSH2 0x5A76 JUMP JUMPDEST SWAP1 PUSH1 0x0 MSTORE PUSH1 0x20 PUSH1 0x0 KECCAK256 SWAP1 PUSH1 0x4 MUL ADD PUSH1 0x3 ADD SLOAD PUSH1 0x40 MLOAD PUSH2 0x39DC SWAP5 SWAP4 SWAP3 SWAP2 SWAP1 PUSH2 0x5D22 JUMP JUMPDEST PUSH1 0x40 MLOAD DUP1 SWAP2 SUB SWAP1 LOG1 POP POP POP POP POP POP POP POP POP POP POP JUMP JUMPDEST PUSH1 0x1 PUSH1 0x1 PUSH1 0xA0 SHL SUB DUP4 AND PUSH1 0x0 SWAP1 DUP2 MSTORE PUSH1 0xA PUSH1 0x20 MSTORE PUSH1 0x40 DUP2 KECCAK256 SLOAD DUP2 PUSH2 0x3A14 DUP7 PUSH2 0x298E JUMP JUMPDEST SWAP1 POP PUSH1 0x0 PUSH1 0x9 DUP4 DUP2 SLOAD DUP2 LT PUSH2 0x3A2B JUMPI PUSH2 0x3A2B PUSH2 0x5A76 JUMP JUMPDEST PUSH1 0x0 SWAP2 DUP3 MSTORE PUSH1 0x20 SWAP1 SWAP2 KECCAK256 PUSH1 0x1 PUSH1 0x4 SWAP1 SWAP3 MUL ADD ADD SLOAD PUSH2 0x3A52 SWAP1 PUSH1 0x1 PUSH1 0x1 PUSH1 0x80 SHL SUB AND DUP4 PUSH2 0x5AA2 JUMP JUMPDEST PUSH1 0xB SLOAD PUSH1 0xD SLOAD SWAP2 SWAP3 POP PUSH1 0x0 SWAP2 PUSH2 0x3A70 SWAP1 PUSH1 0x1 PUSH1 0x1 PUSH1 0xA0 SHL SUB AND PUSH2 0x298E JUMP JUMPDEST PUSH2 0x3A7A SWAP2 SWAP1 PUSH2 0x5AA2 JUMP JUMPDEST PUSH1 0x0 DUP6 DUP2 MSTORE PUSH1 0x3 PUSH1 0x20 MSTORE PUSH1 0x40 DUP2 KECCAK256 SLOAD PUSH1 0x9 DUP1 SLOAD SWAP4 SWAP5 POP SWAP1 SWAP3 DUP4 SWAP2 DUP12 SWAP2 DUP10 SWAP1 DUP2 LT PUSH2 0x3AA6 JUMPI PUSH2 0x3AA6 PUSH2 0x5A76 JUMP JUMPDEST PUSH1 0x0 SWAP2 DUP3 MSTORE PUSH1 0x20 SWAP1 SWAP2 KECCAK256 PUSH1 0x1 PUSH1 0x4 SWAP1 SWAP3 MUL ADD ADD SLOAD PUSH2 0x3ACD SWAP2 SWAP1 PUSH1 0x1 PUSH1 0x1 PUSH1 0x80 SHL SUB AND PUSH2 0x5B26 JUMP JUMPDEST PUSH2 0x3AD7 SWAP2 SWAP1 PUSH2 0x5CBD JUMP JUMPDEST SWAP1 POP PUSH1 0x0 DUP3 DUP11 PUSH1 0x9 DUP10 DUP2 SLOAD DUP2 LT PUSH2 0x3AF0 JUMPI PUSH2 0x3AF0 PUSH2 0x5A76 JUMP JUMPDEST PUSH1 0x0 SWAP2 DUP3 MSTORE PUSH1 0x20 SWAP1 SWAP2 KECCAK256 PUSH1 0x4 SWAP1 SWAP2 MUL ADD PUSH1 0x1 ADD SLOAD PUSH2 0x3B1E SWAP2 SWAP1 PUSH1 0x1 PUSH1 0x80 SHL SWAP1 DIV PUSH1 0x1 PUSH1 0x1 PUSH1 0x80 SHL SUB AND PUSH2 0x5B26 JUMP JUMPDEST PUSH2 0x3B28 SWAP2 SWAP1 PUSH2 0x5CBD JUMP JUMPDEST SWAP1 POP PUSH1 0x0 PUSH2 0x3B83 PUSH1 0x9 DUP10 DUP2 SLOAD DUP2 LT PUSH2 0x3B42 JUMPI PUSH2 0x3B42 PUSH2 0x5A76 JUMP JUMPDEST SWAP1 PUSH1 0x0 MSTORE PUSH1 0x20 PUSH1 0x0 KECCAK256 SWAP1 PUSH1 0x4 MUL ADD PUSH1 0x1 ADD PUSH1 0x10 SWAP1 SLOAD SWAP1 PUSH2 0x100 EXP SWAP1 DIV PUSH1 0x1 PUSH1 0x1 PUSH1 0x80 SHL SUB AND PUSH1 0x1 PUSH1 0x1 PUSH1 0x80 SHL SUB AND PUSH1 0x9 DUP11 DUP2 SLOAD DUP2 LT PUSH2 0x11C6 JUMPI PUSH2 0x11C6 PUSH2 0x5A76 JUMP JUMPDEST SWAP1 POP PUSH1 0x0 PUSH2 0x3BC1 PUSH1 0x9 DUP11 DUP2 SLOAD DUP2 LT PUSH2 0x3B9D JUMPI PUSH2 0x3B9D PUSH2 0x5A76 JUMP JUMPDEST PUSH1 0x0 SWAP2 DUP3 MSTORE PUSH1 0x20 SWAP1 SWAP2 KECCAK256 PUSH1 0x2 PUSH1 0x4 SWAP1 SWAP3 MUL ADD ADD SLOAD PUSH1 0x1 PUSH1 0x1 PUSH1 0x80 SHL SUB AND DUP4 DUP8 PUSH2 0x2C11 JUMP JUMPDEST SWAP1 POP DUP1 ISZERO PUSH2 0x3BF2 JUMPI PUSH1 0x10 SLOAD PUSH1 0x40 DUP1 MLOAD PUSH1 0x20 DUP2 ADD SWAP1 SWAP2 MSTORE PUSH1 0x0 DUP2 MSTORE PUSH2 0x3BF2 SWAP2 PUSH1 0x1 PUSH1 0x1 PUSH1 0xA0 SHL SUB AND SWAP1 DUP12 SWAP1 DUP5 SWAP1 PUSH2 0x2C96 JUMP JUMPDEST DUP3 DUP7 PUSH1 0xB SLOAD PUSH2 0x3C01 SWAP2 SWAP1 PUSH2 0x5C59 JUMP JUMPDEST PUSH2 0x3C0B SWAP2 SWAP1 PUSH2 0x5AA2 JUMP JUMPDEST PUSH1 0xB DUP2 SWAP1 SSTORE POP DUP4 DUP8 PUSH1 0x9 DUP12 DUP2 SLOAD DUP2 LT PUSH2 0x3C26 JUMPI PUSH2 0x3C26 PUSH2 0x5A76 JUMP JUMPDEST PUSH1 0x0 SWAP2 DUP3 MSTORE PUSH1 0x20 SWAP1 SWAP2 KECCAK256 PUSH1 0x1 PUSH1 0x4 SWAP1 SWAP3 MUL ADD ADD SLOAD PUSH2 0x3C4D SWAP2 SWAP1 PUSH1 0x1 PUSH1 0x1 PUSH1 0x80 SHL SUB AND PUSH2 0x5CD1 JUMP JUMPDEST PUSH2 0x3C57 SWAP2 SWAP1 PUSH2 0x5DC9 JUMP JUMPDEST PUSH1 0x9 DUP11 DUP2 SLOAD DUP2 LT PUSH2 0x3C6A JUMPI PUSH2 0x3C6A PUSH2 0x5A76 JUMP JUMPDEST SWAP1 PUSH1 0x0 MSTORE PUSH1 0x20 PUSH1 0x0 KECCAK256 SWAP1 PUSH1 0x4 MUL ADD PUSH1 0x1 ADD PUSH1 0x0 PUSH2 0x100 EXP DUP2 SLOAD DUP2 PUSH1 0x1 PUSH1 0x1 PUSH1 0x80 SHL SUB MUL NOT AND SWAP1 DUP4 PUSH1 0x1 PUSH1 0x1 PUSH1 0x80 SHL SUB AND MUL OR SWAP1 SSTORE POP DUP3 DUP7 PUSH1 0x9 DUP12 DUP2 SLOAD DUP2 LT PUSH2 0x3CB4 JUMPI PUSH2 0x3CB4 PUSH2 0x5A76 JUMP JUMPDEST SWAP1 PUSH1 0x0 MSTORE PUSH1 0x20 PUSH1 0x0 KECCAK256 SWAP1 PUSH1 0x4 MUL ADD PUSH1 0x1 ADD PUSH1 0x10 SWAP1 SLOAD SWAP1 PUSH2 0x100 EXP SWAP1 DIV PUSH1 0x1 PUSH1 0x1 PUSH1 0x80 SHL SUB AND PUSH2 0x3CE3 SWAP2 SWAP1 PUSH2 0x5CD1 JUMP JUMPDEST PUSH2 0x3CED SWAP2 SWAP1 PUSH2 0x5DC9 JUMP JUMPDEST PUSH1 0x9 DUP11 DUP2 SLOAD DUP2 LT PUSH2 0x3D00 JUMPI PUSH2 0x3D00 PUSH2 0x5A76 JUMP JUMPDEST SWAP1 PUSH1 0x0 MSTORE PUSH1 0x20 PUSH1 0x0 KECCAK256 SWAP1 PUSH1 0x4 MUL ADD PUSH1 0x1 ADD PUSH1 0x10 PUSH2 0x100 EXP DUP2 SLOAD DUP2 PUSH1 0x1 PUSH1 0x1 PUSH1 0x80 SHL SUB MUL NOT AND SWAP1 DUP4 PUSH1 0x1 PUSH1 0x1 PUSH1 0x80 SHL SUB AND MUL OR SWAP1 SSTORE POP PUSH2 0x3D8C PUSH1 0x9 DUP11 DUP2 SLOAD DUP2 LT PUSH2 0x3D4B JUMPI PUSH2 0x3D4B PUSH2 0x5A76 JUMP JUMPDEST SWAP1 PUSH1 0x0 MSTORE PUSH1 0x20 PUSH1 0x0 KECCAK256 SWAP1 PUSH1 0x4 MUL ADD PUSH1 0x1 ADD PUSH1 0x10 SWAP1 SLOAD SWAP1 PUSH2 0x100 EXP SWAP1 DIV PUSH1 0x1 PUSH1 0x1 PUSH1 0x80 SHL SUB AND PUSH1 0x1 PUSH1 0x1 PUSH1 0x80 SHL SUB AND PUSH1 0x9 DUP12 DUP2 SLOAD DUP2 LT PUSH2 0x11C6 JUMPI PUSH2 0x11C6 PUSH2 0x5A76 JUMP JUMPDEST PUSH1 0x9 DUP11 DUP2 SLOAD DUP2 LT PUSH2 0x3D9F JUMPI PUSH2 0x3D9F PUSH2 0x5A76 JUMP JUMPDEST SWAP1 PUSH1 0x0 MSTORE PUSH1 0x20 PUSH1 0x0 KECCAK256 SWAP1 PUSH1 0x4 MUL ADD PUSH1 0x2 ADD PUSH1 0x0 PUSH2 0x100 EXP DUP2 SLOAD DUP2 PUSH1 0x1 PUSH1 0x1 PUSH1 0x80 SHL SUB MUL NOT AND SWAP1 DUP4 PUSH1 0x1 PUSH1 0x1 PUSH1 0x80 SHL SUB AND MUL OR SWAP1 SSTORE POP PUSH2 0x3DDF CALLER DUP11 DUP15 PUSH2 0x47AD JUMP JUMPDEST PUSH1 0xD SLOAD PUSH1 0x40 MLOAD PUSH4 0x18A8AD87 PUSH1 0xE0 SHL DUP2 MSTORE ADDRESS PUSH1 0x4 DUP3 ADD MSTORE PUSH1 0x24 DUP2 ADD DUP6 SWAP1 MSTORE PUSH1 0x1 PUSH1 0x1 PUSH1 0xA0 SHL SUB SWAP1 SWAP2 AND SWAP1 PUSH4 0x18A8AD87 SWAP1 PUSH1 0x44 ADD PUSH1 0x0 PUSH1 0x40 MLOAD DUP1 DUP4 SUB DUP2 PUSH1 0x0 DUP8 DUP1 EXTCODESIZE ISZERO DUP1 ISZERO PUSH2 0x3E2B JUMPI PUSH1 0x0 DUP1 REVERT JUMPDEST POP GAS CALL ISZERO DUP1 ISZERO PUSH2 0x3E3F JUMPI RETURNDATASIZE PUSH1 0x0 DUP1 RETURNDATACOPY RETURNDATASIZE PUSH1 0x0 REVERT JUMPDEST POP POP POP POP POP POP PUSH2 0x3E52 DUP12 DUP11 DUP5 PUSH1 0x1 PUSH2 0x2A1B JUMP JUMPDEST PUSH1 0x0 PUSH2 0x3E5D DUP13 PUSH2 0x298E JUMP JUMPDEST SWAP1 POP DUP7 PUSH2 0x3E6A DUP5 DUP4 PUSH2 0x5C59 JUMP JUMPDEST EQ PUSH2 0x3E88 JUMPI PUSH1 0x40 MLOAD PUSH4 0xA8B538D3 PUSH1 0xE0 SHL DUP2 MSTORE PUSH1 0x4 ADD PUSH1 0x40 MLOAD DUP1 SWAP2 SUB SWAP1 REVERT JUMPDEST PUSH32 0x1DC8BB69DF2B8E91FBDCBFCF93D951B3F0000F085A95FE3F7946D6161439245D DUP13 DUP5 DUP5 DUP15 PUSH1 0x40 MLOAD PUSH2 0x3EBD SWAP5 SWAP4 SWAP3 SWAP2 SWAP1 PUSH2 0x5CFC JUMP JUMPDEST PUSH1 0x40 MLOAD DUP1 SWAP2 SUB SWAP1 LOG1 POP SWAP1 SWAP11 SWAP10 POP POP POP POP POP POP POP POP POP POP JUMP JUMPDEST PUSH1 0x1 PUSH1 0x1 PUSH1 0xA0 SHL SUB DUP6 AND PUSH1 0x0 SWAP1 DUP2 MSTORE PUSH1 0xA PUSH1 0x20 MSTORE PUSH1 0x40 SWAP1 KECCAK256 SLOAD DUP6 SWAP1 ISZERO PUSH2 0x3F0E JUMPI PUSH1 0x40 MLOAD PUSH4 0x402670DF PUSH1 0xE0 SHL DUP2 MSTORE PUSH1 0x4 ADD PUSH1 0x40 MLOAD DUP1 SWAP2 SUB SWAP1 REVERT JUMPDEST PUSH2 0x3F19 DUP7 CALLER DUP8 PUSH2 0x2ADE JUMP JUMPDEST PUSH1 0xD SLOAD PUSH1 0x40 MLOAD PUSH4 0xBB9FF5D PUSH1 0xE0 SHL DUP2 MSTORE ADDRESS PUSH1 0x4 DUP3 ADD MSTORE PUSH1 0x24 DUP2 ADD DUP7 SWAP1 MSTORE PUSH1 0x1 PUSH1 0x1 PUSH1 0xA0 SHL SUB SWAP1 SWAP2 AND SWAP1 PUSH4 0xBB9FF5D SWAP1 PUSH1 0x44 ADD PUSH1 0x0 PUSH1 0x40 MLOAD DUP1 DUP4 SUB DUP2 PUSH1 0x0 DUP8 DUP1 EXTCODESIZE ISZERO DUP1 ISZERO PUSH2 0x3F65 JUMPI PUSH1 0x0 DUP1 REVERT JUMPDEST POP GAS CALL ISZERO DUP1 ISZERO PUSH2 0x3F79 JUMPI RETURNDATASIZE PUSH1 0x0 DUP1 RETURNDATACOPY RETURNDATASIZE PUSH1 0x0 REVERT JUMPDEST POP POP POP POP PUSH2 0x3F86 DUP7 PUSH2 0x298E JUMP JUMPDEST SWAP5 POP PUSH1 0x1 DUP6 GT PUSH2 0x3FA8 JUMPI PUSH1 0x40 MLOAD PUSH3 0x461BCD PUSH1 0xE5 SHL DUP2 MSTORE PUSH1 0x4 ADD PUSH2 0xA48 SWAP1 PUSH2 0x5C8C JUMP JUMPDEST PUSH1 0x0 PUSH2 0x3FB7 PUSH2 0x11ED DUP7 DUP9 PUSH2 0x5B26 JUMP JUMPDEST SWAP1 POP PUSH2 0x3FC1 PUSH2 0x507C JUMP JUMPDEST PUSH1 0x0 JUMPDEST PUSH1 0x8 DUP2 LT ISZERO PUSH2 0x4003 JUMPI PUSH1 0x1 DUP3 DUP3 PUSH1 0x8 DUP2 LT PUSH2 0x3FE1 JUMPI PUSH2 0x3FE1 PUSH2 0x5A76 JUMP JUMPDEST PUSH4 0xFFFFFFFF SWAP1 SWAP3 AND PUSH1 0x20 SWAP3 SWAP1 SWAP3 MUL ADD MSTORE DUP1 PUSH2 0x3FFB DUP2 PUSH2 0x5AB9 JUMP JUMPDEST SWAP2 POP POP PUSH2 0x3FC4 JUMP JUMPDEST POP PUSH1 0x40 DUP1 MLOAD PUSH1 0xA0 DUP2 ADD DUP3 MSTORE DUP3 DUP2 MSTORE PUSH1 0x1 PUSH1 0x1 PUSH1 0x80 SHL SUB DUP1 DUP11 AND PUSH1 0x20 DUP4 ADD MSTORE DUP9 DUP2 AND SWAP3 DUP3 ADD SWAP3 SWAP1 SWAP3 MSTORE SWAP1 DUP4 AND PUSH1 0x60 DUP3 ADD MSTORE PUSH1 0x80 DUP2 ADD DUP7 SWAP1 MSTORE PUSH1 0x9 DUP1 SLOAD PUSH1 0x1 DUP2 ADD DUP3 SSTORE PUSH1 0x0 SWAP2 SWAP1 SWAP2 MSTORE DUP2 MLOAD DUP3 SWAP1 PUSH1 0x4 DUP4 MUL PUSH32 0x6E1540171B6C0C960B71A7020D9F60077F6AF931A8BBF590DA0223DACF75C7AF ADD SWAP1 PUSH2 0x4082 SWAP1 DUP3 SWAP1 PUSH1 0x8 PUSH2 0x509B JUMP JUMPDEST POP PUSH1 0x20 DUP3 DUP2 ADD MLOAD PUSH1 0x40 DUP1 DUP6 ADD MLOAD PUSH1 0x1 PUSH1 0x1 PUSH1 0x80 SHL SUB SWAP3 DUP4 AND PUSH1 0x1 PUSH1 0x80 SHL SWAP2 DUP5 AND SWAP2 SWAP1 SWAP2 MUL OR PUSH1 0x1 DUP6 ADD SSTORE PUSH1 0x60 DUP6 ADD MLOAD PUSH1 0x2 DUP6 ADD DUP1 SLOAD PUSH1 0x1 PUSH1 0x1 PUSH1 0x80 SHL SUB NOT AND SWAP2 SWAP1 SWAP4 AND OR SWAP1 SWAP2 SSTORE PUSH1 0x80 SWAP1 SWAP4 ADD MLOAD PUSH1 0x3 SWAP1 SWAP3 ADD SWAP2 SWAP1 SWAP2 SSTORE PUSH1 0x1 PUSH1 0x1 PUSH1 0xA0 SHL SUB DUP13 AND PUSH1 0x0 SWAP1 DUP2 MSTORE PUSH1 0xA SWAP1 SWAP2 MSTORE SWAP1 DUP2 KECCAK256 DUP3 SWAP1 SSTORE PUSH1 0xB DUP1 SLOAD DUP11 SWAP3 SWAP1 PUSH2 0x4104 SWAP1 DUP5 SWAP1 PUSH2 0x5C59 JUMP JUMPDEST SWAP3 POP POP DUP2 SWAP1 SSTORE POP PUSH2 0x412A PUSH2 0xDEAD DUP3 PUSH2 0x3E8 PUSH1 0x40 MLOAD DUP1 PUSH1 0x20 ADD PUSH1 0x40 MSTORE DUP1 PUSH1 0x0 DUP2 MSTORE POP PUSH2 0x2C96 JUMP JUMPDEST PUSH1 0x0 PUSH2 0x3E8 PUSH2 0x413C PUSH2 0x11ED DUP12 DUP14 PUSH2 0x5B26 JUMP JUMPDEST PUSH2 0x4146 SWAP2 SWAP1 PUSH2 0x5AA2 JUMP JUMPDEST SWAP1 POP PUSH2 0x4163 DUP8 DUP4 DUP4 PUSH1 0x40 MLOAD DUP1 PUSH1 0x20 ADD PUSH1 0x40 MSTORE DUP1 PUSH1 0x0 DUP2 MSTORE POP PUSH2 0x2C96 JUMP JUMPDEST PUSH1 0x40 DUP1 MLOAD PUSH1 0x1 PUSH1 0x1 PUSH1 0xA0 SHL SUB DUP14 AND DUP2 MSTORE PUSH1 0x20 DUP2 ADD DUP5 SWAP1 MSTORE PUSH32 0x17AA8D0E85DB1D0531A8181B5BB84E1D4ED744DB1CADD8814ACD3D181FF30137 SWAP2 ADD PUSH1 0x40 MLOAD DUP1 SWAP2 SUB SWAP1 LOG1 PUSH32 0x64B83944E79C3CE8D4C297411DE637C3E102D064677AAC0C163976EBDCD6F50E DUP12 DUP12 DUP12 DUP5 PUSH1 0x40 MLOAD PUSH2 0x41DA SWAP5 SWAP4 SWAP3 SWAP2 SWAP1 PUSH2 0x5CFC JUMP JUMPDEST PUSH1 0x40 MLOAD DUP1 SWAP2 SUB SWAP1 LOG1 PUSH1 0x0 DUP1 MLOAD PUSH1 0x20 PUSH2 0x5E7B DUP4 CODECOPY DUP2 MLOAD SWAP2 MSTORE DUP12 PUSH1 0x9 DUP5 DUP2 SLOAD DUP2 LT PUSH2 0x4205 JUMPI PUSH2 0x4205 PUSH2 0x5A76 JUMP JUMPDEST SWAP1 PUSH1 0x0 MSTORE PUSH1 0x20 PUSH1 0x0 KECCAK256 SWAP1 PUSH1 0x4 MUL ADD PUSH1 0x1 ADD PUSH1 0x0 SWAP1 SLOAD SWAP1 PUSH2 0x100 EXP SWAP1 DIV PUSH1 0x1 PUSH1 0x1 PUSH1 0x80 SHL SUB AND PUSH1 0x9 DUP6 DUP2 SLOAD DUP2 LT PUSH2 0x423D JUMPI PUSH2 0x423D PUSH2 0x5A76 JUMP JUMPDEST SWAP1 PUSH1 0x0 MSTORE PUSH1 0x20 PUSH1 0x0 KECCAK256 SWAP1 PUSH1 0x4 MUL ADD PUSH1 0x1 ADD PUSH1 0x10 SWAP1 SLOAD SWAP1 PUSH2 0x100 EXP SWAP1 DIV PUSH1 0x1 PUSH1 0x1 PUSH1 0x80 SHL SUB AND PUSH1 0x9 DUP7 DUP2 SLOAD DUP2 LT PUSH2 0x39BA JUMPI PUSH2 0x39BA PUSH2 0x5A76 JUMP JUMPDEST PUSH1 0x0 PUSH2 0x16DE DUP4 DUP4 PUSH2 0x4E59 JUMP JUMPDEST DUP2 PUSH1 0x1 PUSH1 0x1 PUSH1 0xA0 SHL SUB AND DUP4 PUSH1 0x1 PUSH1 0x1 PUSH1 0xA0 SHL SUB AND EQ ISZERO PUSH2 0x42B4 JUMPI PUSH1 0x40 MLOAD PUSH4 0x180A65B9 PUSH1 0xE3 SHL DUP2 MSTORE PUSH1 0x4 ADD PUSH1 0x40 MLOAD DUP1 SWAP2 SUB SWAP1 REVERT JUMPDEST PUSH1 0x1 PUSH1 0x1 PUSH1 0xA0 SHL SUB DUP4 DUP2 AND PUSH1 0x0 DUP2 DUP2 MSTORE PUSH1 0x1 PUSH1 0x20 SWAP1 DUP2 MSTORE PUSH1 0x40 DUP1 DUP4 KECCAK256 SWAP5 DUP8 AND DUP1 DUP5 MSTORE SWAP5 DUP3 MSTORE SWAP2 DUP3 SWAP1 KECCAK256 DUP1 SLOAD PUSH1 0xFF NOT AND DUP7 ISZERO ISZERO SWAP1 DUP2 OR SWAP1 SWAP2 SSTORE SWAP2 MLOAD SWAP2 DUP3 MSTORE PUSH32 0x17307EAB39AB6107E8899845AD3D59BD9653F200F220920489CA2B5937696C31 SWAP2 ADD PUSH1 0x40 MLOAD DUP1 SWAP2 SUB SWAP1 LOG3 POP POP POP JUMP JUMPDEST DUP1 MLOAD PUSH2 0x100B SWAP1 PUSH1 0x2 SWAP1 PUSH1 0x20 DUP5 ADD SWAP1 PUSH2 0x4FF8 JUMP JUMPDEST PUSH1 0x1 PUSH1 0x1 PUSH1 0xA0 SHL SUB DUP3 AND PUSH1 0x0 SWAP1 DUP2 MSTORE PUSH1 0xA PUSH1 0x20 MSTORE PUSH1 0x40 DUP2 KECCAK256 SLOAD DUP4 SWAP1 ISZERO DUP1 PUSH2 0x4368 JUMPI POP PUSH1 0xD SLOAD PUSH1 0x1 PUSH1 0x1 PUSH1 0xA0 SHL SUB DUP3 DUP2 AND SWAP2 AND EQ JUMPDEST ISZERO PUSH2 0x4385 JUMPI PUSH1 0x40 MLOAD PUSH3 0x461BCD PUSH1 0xE5 SHL DUP2 MSTORE PUSH1 0x4 ADD PUSH2 0xA48 SWAP1 PUSH2 0x5A5B JUMP JUMPDEST PUSH1 0x1 PUSH1 0x1 PUSH1 0xA0 SHL SUB DUP5 AND PUSH1 0x0 SWAP1 DUP2 MSTORE PUSH1 0xA PUSH1 0x20 MSTORE PUSH1 0x40 SWAP1 KECCAK256 SLOAD PUSH1 0x9 DUP1 SLOAD PUSH2 0x2E57 SWAP2 DUP7 SWAP2 DUP5 SWAP1 DUP2 LT PUSH2 0x43B8 JUMPI PUSH2 0x43B8 PUSH2 0x5A76 JUMP JUMPDEST PUSH1 0x0 SWAP2 DUP3 MSTORE PUSH1 0x20 SWAP1 SWAP2 KECCAK256 PUSH1 0x1 PUSH1 0x4 SWAP1 SWAP3 MUL ADD ADD SLOAD PUSH1 0x9 DUP1 SLOAD PUSH1 0x1 PUSH1 0x1 PUSH1 0x80 SHL SUB SWAP1 SWAP3 AND SWAP2 DUP6 SWAP1 DUP2 LT PUSH2 0x43EC JUMPI PUSH2 0x43EC PUSH2 0x5A76 JUMP JUMPDEST PUSH1 0x0 SWAP2 DUP3 MSTORE PUSH1 0x20 SWAP1 SWAP2 KECCAK256 PUSH1 0x4 SWAP1 SWAP2 MUL ADD PUSH1 0x1 ADD SLOAD PUSH1 0x1 PUSH1 0x80 SHL SWAP1 DIV PUSH1 0x1 PUSH1 0x1 PUSH1 0x80 SHL SUB AND PUSH2 0x4419 DUP6 PUSH2 0x2F4A JUMP JUMPDEST PUSH2 0x4E83 JUMP JUMPDEST PUSH1 0x1 PUSH1 0x1 PUSH1 0xA0 SHL SUB DUP3 AND PUSH1 0x0 SWAP1 DUP2 MSTORE PUSH1 0xA PUSH1 0x20 MSTORE PUSH1 0x40 DUP2 KECCAK256 SLOAD DUP4 SWAP1 ISZERO DUP1 PUSH2 0x4452 JUMPI POP PUSH1 0xD SLOAD PUSH1 0x1 PUSH1 0x1 PUSH1 0xA0 SHL SUB DUP3 DUP2 AND SWAP2 AND EQ JUMPDEST ISZERO PUSH2 0x446F JUMPI PUSH1 0x40 MLOAD PUSH3 0x461BCD PUSH1 0xE5 SHL DUP2 MSTORE PUSH1 0x4 ADD PUSH2 0xA48 SWAP1 PUSH2 0x5A5B JUMP JUMPDEST PUSH1 0x1 PUSH1 0x1 PUSH1 0xA0 SHL SUB DUP5 AND PUSH1 0x0 SWAP1 DUP2 MSTORE PUSH1 0xA PUSH1 0x20 MSTORE PUSH1 0x40 SWAP1 KECCAK256 SLOAD PUSH1 0x9 DUP1 SLOAD PUSH2 0x2E57 SWAP2 DUP7 SWAP2 DUP5 SWAP1 DUP2 LT PUSH2 0x44A2 JUMPI PUSH2 0x44A2 PUSH2 0x5A76 JUMP JUMPDEST SWAP1 PUSH1 0x0 MSTORE PUSH1 0x20 PUSH1 0x0 KECCAK256 SWAP1 PUSH1 0x4 MUL ADD PUSH1 0x1 ADD PUSH1 0x10 SWAP1 SLOAD SWAP1 PUSH2 0x100 EXP SWAP1 DIV PUSH1 0x1 PUSH1 0x1 PUSH1 0x80 SHL SUB AND PUSH1 0x1 PUSH1 0x1 PUSH1 0x80 SHL SUB AND PUSH1 0x9 DUP5 DUP2 SLOAD DUP2 LT PUSH2 0x44E3 JUMPI PUSH2 0x44E3 PUSH2 0x5A76 JUMP JUMPDEST PUSH1 0x0 SWAP2 DUP3 MSTORE PUSH1 0x20 SWAP1 SWAP2 KECCAK256 PUSH1 0x1 PUSH1 0x4 SWAP1 SWAP3 MUL ADD ADD SLOAD PUSH1 0x1 PUSH1 0x1 PUSH1 0x80 SHL SUB AND PUSH2 0x2710 PUSH2 0x4E83 JUMP JUMPDEST PUSH1 0x0 PUSH2 0x9B1 DUP3 SLOAD SWAP1 JUMP JUMPDEST PUSH1 0x40 MLOAD PUSH4 0x6FB1A07 PUSH1 0xE0 SHL DUP2 MSTORE PUSH1 0x3 PUSH1 0x4 DUP3 ADD MSTORE PUSH1 0x0 SWAP1 PUSH20 0xDEF1FAC7BF08F173D286BBBDCBEEADE695129840 SWAP1 PUSH4 0x6FB1A07 SWAP1 PUSH1 0x24 ADD PUSH1 0x20 PUSH1 0x40 MLOAD DUP1 DUP4 SUB DUP2 DUP7 GAS STATICCALL ISZERO DUP1 ISZERO PUSH2 0x4565 JUMPI RETURNDATASIZE PUSH1 0x0 DUP1 RETURNDATACOPY RETURNDATASIZE PUSH1 0x0 REVERT JUMPDEST POP POP POP POP PUSH1 0x40 MLOAD RETURNDATASIZE PUSH1 0x1F NOT PUSH1 0x1F DUP3 ADD AND DUP3 ADD DUP1 PUSH1 0x40 MSTORE POP DUP2 ADD SWAP1 PUSH2 0x4589 SWAP2 SWAP1 PUSH2 0x5AD4 JUMP JUMPDEST PUSH1 0x40 MLOAD PUSH4 0xC8B57EF PUSH1 0xE2 SHL DUP2 MSTORE PUSH1 0x1 PUSH1 0x1 PUSH1 0xA0 SHL SUB DUP7 DUP2 AND PUSH1 0x4 DUP4 ADD MSTORE DUP6 DUP2 AND PUSH1 0x24 DUP4 ADD MSTORE SWAP2 SWAP3 POP SWAP1 DUP3 AND SWAP1 PUSH4 0x322D5FBC SWAP1 PUSH1 0x44 ADD PUSH1 0x20 PUSH1 0x40 MLOAD DUP1 DUP4 SUB DUP2 PUSH1 0x0 DUP8 GAS CALL ISZERO DUP1 ISZERO PUSH2 0x45DD JUMPI RETURNDATASIZE PUSH1 0x0 DUP1 RETURNDATACOPY RETURNDATASIZE PUSH1 0x0 REVERT JUMPDEST POP POP POP POP PUSH1 0x40 MLOAD RETURNDATASIZE PUSH1 0x1F NOT PUSH1 0x1F DUP3 ADD AND DUP3 ADD DUP1 PUSH1 0x40 MSTORE POP DUP2 ADD SWAP1 PUSH2 0x4601 SWAP2 SWAP1 PUSH2 0x5D52 JUMP JUMPDEST PUSH2 0x461E JUMPI PUSH1 0x40 MLOAD PUSH4 0x30267993 PUSH1 0xE1 SHL DUP2 MSTORE PUSH1 0x4 ADD PUSH1 0x40 MLOAD DUP1 SWAP2 SUB SWAP1 REVERT JUMPDEST PUSH1 0x1 PUSH1 0x1 PUSH1 0xA0 SHL SUB DUP3 AND ADDRESS EQ PUSH2 0xBC6 JUMPI PUSH1 0x40 MLOAD PUSH4 0x3973256B PUSH1 0xE1 SHL DUP2 MSTORE PUSH1 0x1 PUSH1 0x1 PUSH1 0xA0 SHL SUB DUP6 DUP2 AND PUSH1 0x4 DUP4 ADD MSTORE DUP4 DUP2 AND PUSH1 0x24 DUP4 ADD MSTORE DUP3 AND SWAP1 PUSH4 0x72E64AD6 SWAP1 PUSH1 0x44 ADD PUSH1 0x0 PUSH1 0x40 MLOAD DUP1 DUP4 SUB DUP2 PUSH1 0x0 DUP8 DUP1 EXTCODESIZE ISZERO DUP1 ISZERO PUSH2 0x4679 JUMPI PUSH1 0x0 DUP1 REVERT JUMPDEST POP GAS CALL ISZERO DUP1 ISZERO PUSH2 0x468D JUMPI RETURNDATASIZE PUSH1 0x0 DUP1 RETURNDATACOPY RETURNDATASIZE PUSH1 0x0 REVERT JUMPDEST POP POP POP POP POP POP POP POP JUMP JUMPDEST PUSH1 0x1 PUSH1 0x1 PUSH1 0xA0 SHL SUB DUP5 AND PUSH2 0x46BE JUMPI PUSH1 0x40 MLOAD PUSH4 0x7CC7869 PUSH1 0xE3 SHL DUP2 MSTORE PUSH1 0x4 ADD PUSH1 0x40 MLOAD DUP1 SWAP2 SUB SWAP1 REVERT JUMPDEST CALLER PUSH2 0x46CE DUP2 DUP8 DUP8 PUSH2 0x2CCE DUP9 PUSH2 0x4BE3 JUMP JUMPDEST PUSH1 0x0 DUP5 DUP2 MSTORE PUSH1 0x20 DUP2 DUP2 MSTORE PUSH1 0x40 DUP1 DUP4 KECCAK256 PUSH1 0x1 PUSH1 0x1 PUSH1 0xA0 SHL SUB DUP11 AND DUP5 MSTORE SWAP1 SWAP2 MSTORE SWAP1 KECCAK256 SLOAD DUP4 DUP2 LT ISZERO PUSH2 0x4710 JUMPI PUSH1 0x40 MLOAD PUSH4 0x2D688F61 PUSH1 0xE1 SHL DUP2 MSTORE PUSH1 0x4 ADD PUSH1 0x40 MLOAD DUP1 SWAP2 SUB SWAP1 REVERT JUMPDEST PUSH1 0x0 DUP6 DUP2 MSTORE PUSH1 0x20 DUP2 DUP2 MSTORE PUSH1 0x40 DUP1 DUP4 KECCAK256 PUSH1 0x1 PUSH1 0x1 PUSH1 0xA0 SHL SUB DUP12 DUP2 AND DUP6 MSTORE SWAP3 MSTORE DUP1 DUP4 KECCAK256 DUP8 DUP6 SUB SWAP1 SSTORE SWAP1 DUP9 AND DUP3 MSTORE DUP2 KECCAK256 DUP1 SLOAD DUP7 SWAP3 SWAP1 PUSH2 0x474D SWAP1 DUP5 SWAP1 PUSH2 0x5C59 JUMP JUMPDEST SWAP1 SWAP2 SSTORE POP POP PUSH1 0x40 DUP1 MLOAD DUP7 DUP2 MSTORE PUSH1 0x20 DUP2 ADD DUP7 SWAP1 MSTORE PUSH1 0x1 PUSH1 0x1 PUSH1 0xA0 SHL SUB DUP1 DUP10 AND SWAP3 DUP11 DUP3 AND SWAP3 SWAP2 DUP7 AND SWAP2 PUSH32 0xC3D58168C5AE7397731D063D5BBF3D657854427343F4C083240F7AACAA2D0F62 SWAP2 ADD PUSH1 0x40 MLOAD DUP1 SWAP2 SUB SWAP1 LOG4 PUSH2 0xB46 DUP3 DUP9 DUP9 DUP9 DUP9 DUP9 PUSH2 0x4D3A JUMP JUMPDEST PUSH1 0x1 PUSH1 0x1 PUSH1 0xA0 SHL SUB DUP4 AND PUSH2 0x47D4 JUMPI PUSH1 0x40 MLOAD PUSH4 0xEDBA591D PUSH1 0xE0 SHL DUP2 MSTORE PUSH1 0x4 ADD PUSH1 0x40 MLOAD DUP1 SWAP2 SUB SWAP1 REVERT JUMPDEST CALLER PUSH2 0x4803 DUP2 DUP6 PUSH1 0x0 PUSH2 0x47E5 DUP8 PUSH2 0x4BE3 JUMP JUMPDEST PUSH2 0x47EE DUP8 PUSH2 0x4BE3 JUMP JUMPDEST PUSH1 0x40 MLOAD DUP1 PUSH1 0x20 ADD PUSH1 0x40 MSTORE DUP1 PUSH1 0x0 DUP2 MSTORE POP PUSH2 0x4C2E JUMP JUMPDEST PUSH1 0x0 DUP4 DUP2 MSTORE PUSH1 0x20 DUP2 DUP2 MSTORE PUSH1 0x40 DUP1 DUP4 KECCAK256 PUSH1 0x1 PUSH1 0x1 PUSH1 0xA0 SHL SUB DUP9 AND DUP5 MSTORE SWAP1 SWAP2 MSTORE SWAP1 KECCAK256 SLOAD DUP3 DUP2 LT ISZERO PUSH2 0x4845 JUMPI PUSH1 0x40 MLOAD PUSH4 0x1CFB29E1 PUSH1 0xE2 SHL DUP2 MSTORE PUSH1 0x4 ADD PUSH1 0x40 MLOAD DUP1 SWAP2 SUB SWAP1 REVERT JUMPDEST PUSH1 0x0 DUP5 DUP2 MSTORE PUSH1 0x20 DUP2 DUP2 MSTORE PUSH1 0x40 DUP1 DUP4 KECCAK256 PUSH1 0x1 PUSH1 0x1 PUSH1 0xA0 SHL SUB DUP10 DUP2 AND DUP1 DUP7 MSTORE SWAP2 DUP5 MSTORE DUP3 DUP6 KECCAK256 DUP9 DUP8 SUB SWAP1 SSTORE DUP3 MLOAD DUP10 DUP2 MSTORE SWAP4 DUP5 ADD DUP9 SWAP1 MSTORE SWAP1 SWAP3 SWAP1 DUP7 AND SWAP2 PUSH32 0xC3D58168C5AE7397731D063D5BBF3D657854427343F4C083240F7AACAA2D0F62 SWAP2 ADD PUSH1 0x40 MLOAD DUP1 SWAP2 SUB SWAP1 LOG4 POP POP POP POP POP JUMP JUMPDEST PUSH1 0x0 DUP2 DUP2 MSTORE PUSH1 0x1 DUP4 ADD PUSH1 0x20 MSTORE PUSH1 0x40 DUP2 KECCAK256 SLOAD PUSH2 0x48F7 JUMPI POP DUP2 SLOAD PUSH1 0x1 DUP2 DUP2 ADD DUP5 SSTORE PUSH1 0x0 DUP5 DUP2 MSTORE PUSH1 0x20 DUP1 DUP3 KECCAK256 SWAP1 SWAP4 ADD DUP5 SWAP1 SSTORE DUP5 SLOAD DUP5 DUP3 MSTORE DUP3 DUP7 ADD SWAP1 SWAP4 MSTORE PUSH1 0x40 SWAP1 KECCAK256 SWAP2 SWAP1 SWAP2 SSTORE PUSH2 0x9B1 JUMP JUMPDEST POP PUSH1 0x0 PUSH2 0x9B1 JUMP JUMPDEST PUSH1 0x40 DUP1 MLOAD PUSH1 0x0 DUP1 DUP3 MSTORE PUSH1 0x20 DUP3 ADD SWAP1 SWAP3 MSTORE PUSH1 0x1 PUSH1 0x1 PUSH1 0xA0 SHL SUB DUP5 AND SWAP1 DUP4 SWAP1 PUSH1 0x40 MLOAD PUSH2 0x4929 SWAP2 SWAP1 PUSH2 0x5DF1 JUMP JUMPDEST PUSH1 0x0 PUSH1 0x40 MLOAD DUP1 DUP4 SUB DUP2 DUP6 DUP8 GAS CALL SWAP3 POP POP POP RETURNDATASIZE DUP1 PUSH1 0x0 DUP2 EQ PUSH2 0x4966 JUMPI PUSH1 0x40 MLOAD SWAP2 POP PUSH1 0x1F NOT PUSH1 0x3F RETURNDATASIZE ADD AND DUP3 ADD PUSH1 0x40 MSTORE RETURNDATASIZE DUP3 MSTORE RETURNDATASIZE PUSH1 0x0 PUSH1 0x20 DUP5 ADD RETURNDATACOPY PUSH2 0x496B JUMP JUMPDEST PUSH1 0x60 SWAP2 POP JUMPDEST POP POP SWAP1 POP DUP1 PUSH2 0xE2A JUMPI PUSH1 0x40 MLOAD PUSH4 0x30667AAB PUSH1 0xE0 SHL DUP2 MSTORE PUSH1 0x4 ADD PUSH1 0x40 MLOAD DUP1 SWAP2 SUB SWAP1 REVERT JUMPDEST PUSH1 0x40 DUP1 MLOAD PUSH1 0x1 PUSH1 0x1 PUSH1 0xA0 SHL SUB DUP5 DUP2 AND PUSH1 0x24 DUP4 ADD MSTORE PUSH1 0x44 DUP1 DUP4 ADD DUP6 SWAP1 MSTORE DUP4 MLOAD DUP1 DUP5 SUB SWAP1 SWAP2 ADD DUP2 MSTORE PUSH1 0x64 SWAP1 SWAP3 ADD DUP4 MSTORE PUSH1 0x20 DUP3 ADD DUP1 MLOAD PUSH1 0x1 PUSH1 0x1 PUSH1 0xE0 SHL SUB AND PUSH4 0xA9059CBB PUSH1 0xE0 SHL OR SWAP1 MSTORE SWAP2 MLOAD PUSH1 0x0 SWAP3 DUP4 SWAP3 SWAP1 DUP8 AND SWAP2 PUSH2 0x49E9 SWAP2 SWAP1 PUSH2 0x5DF1 JUMP JUMPDEST PUSH1 0x0 PUSH1 0x40 MLOAD DUP1 DUP4 SUB DUP2 PUSH1 0x0 DUP7 GAS CALL SWAP2 POP POP RETURNDATASIZE DUP1 PUSH1 0x0 DUP2 EQ PUSH2 0x4A26 JUMPI PUSH1 0x40 MLOAD SWAP2 POP PUSH1 0x1F NOT PUSH1 0x3F RETURNDATASIZE ADD AND DUP3 ADD PUSH1 0x40 MSTORE RETURNDATASIZE DUP3 MSTORE RETURNDATASIZE PUSH1 0x0 PUSH1 0x20 DUP5 ADD RETURNDATACOPY PUSH2 0x4A2B JUMP JUMPDEST PUSH1 0x60 SWAP2 POP JUMPDEST POP SWAP2 POP SWAP2 POP DUP2 DUP1 ISZERO PUSH2 0x4A55 JUMPI POP DUP1 MLOAD ISZERO DUP1 PUSH2 0x4A55 JUMPI POP DUP1 DUP1 PUSH1 0x20 ADD SWAP1 MLOAD DUP2 ADD SWAP1 PUSH2 0x4A55 SWAP2 SWAP1 PUSH2 0x5D52 JUMP JUMPDEST PUSH2 0x45C JUMPI PUSH1 0x40 MLOAD PUSH4 0x7805DA53 PUSH1 0xE0 SHL DUP2 MSTORE PUSH1 0x4 ADD PUSH1 0x40 MLOAD DUP1 SWAP2 SUB SWAP1 REVERT JUMPDEST PUSH2 0x4A7C DUP3 DUP3 PUSH2 0x1A7C JUMP JUMPDEST ISZERO PUSH2 0x100B JUMPI PUSH1 0x0 DUP3 DUP2 MSTORE PUSH1 0x4 PUSH1 0x20 SWAP1 DUP2 MSTORE PUSH1 0x40 DUP1 DUP4 KECCAK256 PUSH1 0x1 PUSH1 0x1 PUSH1 0xA0 SHL SUB DUP6 AND DUP1 DUP6 MSTORE SWAP3 MSTORE DUP1 DUP4 KECCAK256 DUP1 SLOAD PUSH1 0xFF NOT AND SWAP1 SSTORE MLOAD CALLER SWAP3 DUP6 SWAP2 PUSH32 0xF6391F5C32D9C69D2A47EA670B442974B53935D1EDC7FD64EB21E047A839171B SWAP2 SWAP1 LOG4 POP POP JUMP JUMPDEST PUSH1 0x0 PUSH2 0x16DE DUP4 PUSH1 0x1 PUSH1 0x1 PUSH1 0xA0 SHL SUB DUP5 AND PUSH2 0x4ED0 JUMP JUMPDEST PUSH1 0x40 DUP1 MLOAD PUSH1 0x1 PUSH1 0x1 PUSH1 0xA0 SHL SUB DUP6 DUP2 AND PUSH1 0x24 DUP4 ADD MSTORE DUP5 DUP2 AND PUSH1 0x44 DUP4 ADD MSTORE PUSH1 0x64 DUP1 DUP4 ADD DUP6 SWAP1 MSTORE DUP4 MLOAD DUP1 DUP5 SUB SWAP1 SWAP2 ADD DUP2 MSTORE PUSH1 0x84 SWAP1 SWAP3 ADD DUP4 MSTORE PUSH1 0x20 DUP3 ADD DUP1 MLOAD PUSH1 0x1 PUSH1 0x1 PUSH1 0xE0 SHL SUB AND PUSH4 0x23B872DD PUSH1 0xE0 SHL OR SWAP1 MSTORE SWAP2 MLOAD PUSH1 0x0 SWAP3 DUP4 SWAP3 SWAP1 DUP9 AND SWAP2 PUSH2 0x4B52 SWAP2 SWAP1 PUSH2 0x5DF1 JUMP JUMPDEST PUSH1 0x0 PUSH1 0x40 MLOAD DUP1 DUP4 SUB DUP2 PUSH1 0x0 DUP7 GAS CALL SWAP2 POP POP RETURNDATASIZE DUP1 PUSH1 0x0 DUP2 EQ PUSH2 0x4B8F JUMPI PUSH1 0x40 MLOAD SWAP2 POP PUSH1 0x1F NOT PUSH1 0x3F RETURNDATASIZE ADD AND DUP3 ADD PUSH1 0x40 MSTORE RETURNDATASIZE DUP3 MSTORE RETURNDATASIZE PUSH1 0x0 PUSH1 0x20 DUP5 ADD RETURNDATACOPY PUSH2 0x4B94 JUMP JUMPDEST PUSH1 0x60 SWAP2 POP JUMPDEST POP SWAP2 POP SWAP2 POP DUP2 DUP1 ISZERO PUSH2 0x4BBE JUMPI POP DUP1 MLOAD ISZERO DUP1 PUSH2 0x4BBE JUMPI POP DUP1 DUP1 PUSH1 0x20 ADD SWAP1 MLOAD DUP2 ADD SWAP1 PUSH2 0x4BBE SWAP2 SWAP1 PUSH2 0x5D52 JUMP JUMPDEST PUSH2 0x4BDB JUMPI PUSH1 0x40 MLOAD PUSH4 0x6050FE29 PUSH1 0xE0 SHL DUP2 MSTORE PUSH1 0x4 ADD PUSH1 0x40 MLOAD DUP1 SWAP2 SUB SWAP1 REVERT JUMPDEST POP POP POP POP POP POP JUMP JUMPDEST PUSH1 0x40 DUP1 MLOAD PUSH1 0x1 DUP1 DUP3 MSTORE DUP2 DUP4 ADD SWAP1 SWAP3 MSTORE PUSH1 0x60 SWAP2 PUSH1 0x0 SWAP2 SWAP1 PUSH1 0x20 DUP1 DUP4 ADD SWAP1 DUP1 CALLDATASIZE DUP4 CALLDATACOPY ADD SWAP1 POP POP SWAP1 POP DUP3 DUP2 PUSH1 0x0 DUP2 MLOAD DUP2 LT PUSH2 0x4C1D JUMPI PUSH2 0x4C1D PUSH2 0x5A76 JUMP JUMPDEST PUSH1 0x20 SWAP1 DUP2 MUL SWAP2 SWAP1 SWAP2 ADD ADD MSTORE SWAP3 SWAP2 POP POP JUMP JUMPDEST PUSH1 0x1 PUSH1 0x1 PUSH1 0xA0 SHL SUB DUP6 AND PUSH2 0x4CB5 JUMPI PUSH1 0x0 JUMPDEST DUP4 MLOAD DUP2 LT ISZERO PUSH2 0x4CB3 JUMPI DUP3 DUP2 DUP2 MLOAD DUP2 LT PUSH2 0x4C5A JUMPI PUSH2 0x4C5A PUSH2 0x5A76 JUMP JUMPDEST PUSH1 0x20 MUL PUSH1 0x20 ADD ADD MLOAD PUSH1 0x3 PUSH1 0x0 DUP7 DUP5 DUP2 MLOAD DUP2 LT PUSH2 0x4C78 JUMPI PUSH2 0x4C78 PUSH2 0x5A76 JUMP JUMPDEST PUSH1 0x20 MUL PUSH1 0x20 ADD ADD MLOAD DUP2 MSTORE PUSH1 0x20 ADD SWAP1 DUP2 MSTORE PUSH1 0x20 ADD PUSH1 0x0 KECCAK256 PUSH1 0x0 DUP3 DUP3 SLOAD PUSH2 0x4C9D SWAP2 SWAP1 PUSH2 0x5C59 JUMP JUMPDEST SWAP1 SWAP2 SSTORE POP PUSH2 0x4CAC SWAP1 POP DUP2 PUSH2 0x5AB9 JUMP JUMPDEST SWAP1 POP PUSH2 0x4C3F JUMP JUMPDEST POP JUMPDEST PUSH1 0x1 PUSH1 0x1 PUSH1 0xA0 SHL SUB DUP5 AND PUSH2 0x4BDB JUMPI PUSH1 0x0 JUMPDEST DUP4 MLOAD DUP2 LT ISZERO PUSH2 0xB46 JUMPI DUP3 DUP2 DUP2 MLOAD DUP2 LT PUSH2 0x4CE1 JUMPI PUSH2 0x4CE1 PUSH2 0x5A76 JUMP JUMPDEST PUSH1 0x20 MUL PUSH1 0x20 ADD ADD MLOAD PUSH1 0x3 PUSH1 0x0 DUP7 DUP5 DUP2 MLOAD DUP2 LT PUSH2 0x4CFF JUMPI PUSH2 0x4CFF PUSH2 0x5A76 JUMP JUMPDEST PUSH1 0x20 MUL PUSH1 0x20 ADD ADD MLOAD DUP2 MSTORE PUSH1 0x20 ADD SWAP1 DUP2 MSTORE PUSH1 0x20 ADD PUSH1 0x0 KECCAK256 PUSH1 0x0 DUP3 DUP3 SLOAD PUSH2 0x4D24 SWAP2 SWAP1 PUSH2 0x5AA2 JUMP JUMPDEST SWAP1 SWAP2 SSTORE POP PUSH2 0x4D33 SWAP1 POP DUP2 PUSH2 0x5AB9 JUMP JUMPDEST SWAP1 POP PUSH2 0x4CC6 JUMP JUMPDEST DUP4 EXTCODESIZE ISZERO PUSH2 0x4BDB JUMPI PUSH1 0x40 MLOAD PUSH4 0xF23A6E61 PUSH1 0xE0 SHL DUP2 MSTORE PUSH1 0x1 PUSH1 0x1 PUSH1 0xA0 SHL SUB DUP6 AND SWAP1 PUSH4 0xF23A6E61 SWAP1 PUSH2 0x4D75 SWAP1 DUP10 SWAP1 DUP10 SWAP1 DUP9 SWAP1 DUP9 SWAP1 DUP9 SWAP1 PUSH1 0x4 ADD PUSH2 0x5E0D JUMP JUMPDEST PUSH1 0x20 PUSH1 0x40 MLOAD DUP1 DUP4 SUB DUP2 PUSH1 0x0 DUP8 GAS CALL SWAP3 POP POP POP DUP1 ISZERO PUSH2 0x4DB0 JUMPI POP PUSH1 0x40 DUP1 MLOAD PUSH1 0x1F RETURNDATASIZE SWAP1 DUP2 ADD PUSH1 0x1F NOT AND DUP3 ADD SWAP1 SWAP3 MSTORE PUSH2 0x4DAD SWAP2 DUP2 ADD SWAP1 PUSH2 0x5E47 JUMP JUMPDEST PUSH1 0x1 JUMPDEST PUSH2 0x4DCD JUMPI PUSH1 0x40 MLOAD PUSH4 0x22EA0359 PUSH1 0xE1 SHL DUP2 MSTORE PUSH1 0x4 ADD PUSH1 0x40 MLOAD DUP1 SWAP2 SUB SWAP1 REVERT JUMPDEST PUSH1 0x1 PUSH1 0x1 PUSH1 0xE0 SHL SUB NOT DUP2 AND PUSH4 0xF23A6E61 PUSH1 0xE0 SHL EQ PUSH2 0xB46 JUMPI PUSH1 0x40 MLOAD PUSH4 0x15D52937 PUSH1 0xE1 SHL DUP2 MSTORE PUSH1 0x4 ADD PUSH1 0x40 MLOAD DUP1 SWAP2 SUB SWAP1 REVERT JUMPDEST PUSH1 0x0 DUP1 PUSH2 0x4E0B DUP4 DUP8 PUSH2 0x5B26 JUMP JUMPDEST SWAP1 POP PUSH1 0x0 DUP2 PUSH2 0x4E1C PUSH2 0x2710 DUP9 PUSH2 0x5B26 JUMP JUMPDEST PUSH2 0x4E26 SWAP2 SWAP1 PUSH2 0x5C59 JUMP JUMPDEST PUSH2 0x4E30 DUP4 DUP8 PUSH2 0x5B26 JUMP JUMPDEST PUSH2 0x1A4B SWAP2 SWAP1 PUSH2 0x5CBD JUMP JUMPDEST PUSH1 0x0 PUSH1 0x8 PUSH2 0x4E4A PUSH2 0x3840 TIMESTAMP PUSH2 0x5CBD JUMP JUMPDEST PUSH2 0x4E54 SWAP2 SWAP1 PUSH2 0x5DB5 JUMP JUMPDEST SWAP1 POP SWAP1 JUMP JUMPDEST PUSH1 0x0 DUP3 PUSH1 0x0 ADD DUP3 DUP2 SLOAD DUP2 LT PUSH2 0x4E70 JUMPI PUSH2 0x4E70 PUSH2 0x5A76 JUMP JUMPDEST SWAP1 PUSH1 0x0 MSTORE PUSH1 0x20 PUSH1 0x0 KECCAK256 ADD SLOAD SWAP1 POP SWAP3 SWAP2 POP POP JUMP JUMPDEST PUSH1 0x0 DUP1 PUSH2 0x4E90 DUP7 DUP6 PUSH2 0x5AA2 JUMP JUMPDEST PUSH2 0x4E9A SWAP1 DUP5 PUSH2 0x5B26 JUMP JUMPDEST PUSH2 0x2710 PUSH2 0x4EA7 DUP9 DUP9 PUSH2 0x5B26 JUMP JUMPDEST PUSH2 0x4EB1 SWAP2 SWAP1 PUSH2 0x5B26 JUMP JUMPDEST PUSH2 0x4EBB SWAP2 SWAP1 PUSH2 0x5CBD JUMP JUMPDEST PUSH2 0x4EC6 SWAP1 PUSH1 0x1 PUSH2 0x5C59 JUMP JUMPDEST SWAP7 SWAP6 POP POP POP POP POP POP JUMP JUMPDEST PUSH1 0x0 DUP2 DUP2 MSTORE PUSH1 0x1 DUP4 ADD PUSH1 0x20 MSTORE PUSH1 0x40 DUP2 KECCAK256 SLOAD DUP1 ISZERO PUSH2 0x4FB9 JUMPI PUSH1 0x0 PUSH2 0x4EF4 PUSH1 0x1 DUP4 PUSH2 0x5AA2 JUMP JUMPDEST DUP6 SLOAD SWAP1 SWAP2 POP PUSH1 0x0 SWAP1 PUSH2 0x4F08 SWAP1 PUSH1 0x1 SWAP1 PUSH2 0x5AA2 JUMP JUMPDEST SWAP1 POP DUP2 DUP2 EQ PUSH2 0x4F6D JUMPI PUSH1 0x0 DUP7 PUSH1 0x0 ADD DUP3 DUP2 SLOAD DUP2 LT PUSH2 0x4F28 JUMPI PUSH2 0x4F28 PUSH2 0x5A76 JUMP JUMPDEST SWAP1 PUSH1 0x0 MSTORE PUSH1 0x20 PUSH1 0x0 KECCAK256 ADD SLOAD SWAP1 POP DUP1 DUP8 PUSH1 0x0 ADD DUP5 DUP2 SLOAD DUP2 LT PUSH2 0x4F4B JUMPI PUSH2 0x4F4B PUSH2 0x5A76 JUMP JUMPDEST PUSH1 0x0 SWAP2 DUP3 MSTORE PUSH1 0x20 DUP1 DUP4 KECCAK256 SWAP1 SWAP2 ADD SWAP3 SWAP1 SWAP3 SSTORE SWAP2 DUP3 MSTORE PUSH1 0x1 DUP9 ADD SWAP1 MSTORE PUSH1 0x40 SWAP1 KECCAK256 DUP4 SWAP1 SSTORE JUMPDEST DUP6 SLOAD DUP7 SWAP1 DUP1 PUSH2 0x4F7E JUMPI PUSH2 0x4F7E PUSH2 0x5E64 JUMP JUMPDEST PUSH1 0x1 SWAP1 SUB DUP2 DUP2 SWAP1 PUSH1 0x0 MSTORE PUSH1 0x20 PUSH1 0x0 KECCAK256 ADD PUSH1 0x0 SWAP1 SSTORE SWAP1 SSTORE DUP6 PUSH1 0x1 ADD PUSH1 0x0 DUP7 DUP2 MSTORE PUSH1 0x20 ADD SWAP1 DUP2 MSTORE PUSH1 0x20 ADD PUSH1 0x0 KECCAK256 PUSH1 0x0 SWAP1 SSTORE PUSH1 0x1 SWAP4 POP POP POP POP PUSH2 0x9B1 JUMP JUMPDEST PUSH1 0x0 SWAP2 POP POP PUSH2 0x9B1 JUMP JUMPDEST PUSH1 0x40 MLOAD DUP1 PUSH1 0xA0 ADD PUSH1 0x40 MSTORE DUP1 PUSH2 0x4FD6 PUSH2 0x507C JUMP JUMPDEST DUP2 MSTORE PUSH1 0x0 PUSH1 0x20 DUP3 ADD DUP2 SWAP1 MSTORE PUSH1 0x40 DUP3 ADD DUP2 SWAP1 MSTORE PUSH1 0x60 DUP3 ADD DUP2 SWAP1 MSTORE PUSH1 0x80 SWAP1 SWAP2 ADD MSTORE SWAP1 JUMP JUMPDEST DUP3 DUP1 SLOAD PUSH2 0x5004 SWAP1 PUSH2 0x5AF1 JUMP JUMPDEST SWAP1 PUSH1 0x0 MSTORE PUSH1 0x20 PUSH1 0x0 KECCAK256 SWAP1 PUSH1 0x1F ADD PUSH1 0x20 SWAP1 DIV DUP2 ADD SWAP3 DUP3 PUSH2 0x5026 JUMPI PUSH1 0x0 DUP6 SSTORE PUSH2 0x506C JUMP JUMPDEST DUP3 PUSH1 0x1F LT PUSH2 0x503F JUMPI DUP1 MLOAD PUSH1 0xFF NOT AND DUP4 DUP1 ADD OR DUP6 SSTORE PUSH2 0x506C JUMP JUMPDEST DUP3 DUP1 ADD PUSH1 0x1 ADD DUP6 SSTORE DUP3 ISZERO PUSH2 0x506C JUMPI SWAP2 DUP3 ADD JUMPDEST DUP3 DUP2 GT ISZERO PUSH2 0x506C JUMPI DUP3 MLOAD DUP3 SSTORE SWAP2 PUSH1 0x20 ADD SWAP2 SWAP1 PUSH1 0x1 ADD SWAP1 PUSH2 0x5051 JUMP JUMPDEST POP PUSH2 0x5078 SWAP3 SWAP2 POP PUSH2 0x512E JUMP JUMPDEST POP SWAP1 JUMP JUMPDEST PUSH1 0x40 MLOAD DUP1 PUSH2 0x100 ADD PUSH1 0x40 MSTORE DUP1 PUSH1 0x8 SWAP1 PUSH1 0x20 DUP3 MUL DUP1 CALLDATASIZE DUP4 CALLDATACOPY POP SWAP2 SWAP3 SWAP2 POP POP JUMP JUMPDEST PUSH1 0x1 DUP4 ADD SWAP2 DUP4 SWAP1 DUP3 ISZERO PUSH2 0x506C JUMPI SWAP2 PUSH1 0x20 MUL DUP3 ADD PUSH1 0x0 JUMPDEST DUP4 DUP3 GT ISZERO PUSH2 0x50F5 JUMPI DUP4 MLOAD DUP4 DUP3 PUSH2 0x100 EXP DUP2 SLOAD DUP2 PUSH4 0xFFFFFFFF MUL NOT AND SWAP1 DUP4 PUSH4 0xFFFFFFFF AND MUL OR SWAP1 SSTORE POP SWAP3 PUSH1 0x20 ADD SWAP3 PUSH1 0x4 ADD PUSH1 0x20 DUP2 PUSH1 0x3 ADD DIV SWAP3 DUP4 ADD SWAP3 PUSH1 0x1 SUB MUL PUSH2 0x50B1 JUMP JUMPDEST DUP1 ISZERO PUSH2 0x5125 JUMPI DUP3 DUP2 PUSH2 0x100 EXP DUP2 SLOAD SWAP1 PUSH4 0xFFFFFFFF MUL NOT AND SWAP1 SSTORE PUSH1 0x4 ADD PUSH1 0x20 DUP2 PUSH1 0x3 ADD DIV SWAP3 DUP4 ADD SWAP3 PUSH1 0x1 SUB MUL PUSH2 0x50F5 JUMP JUMPDEST POP POP PUSH2 0x5078 SWAP3 SWAP2 POP JUMPDEST JUMPDEST DUP1 DUP3 GT ISZERO PUSH2 0x5078 JUMPI PUSH1 0x0 DUP2 SSTORE PUSH1 0x1 ADD PUSH2 0x512F JUMP JUMPDEST PUSH1 0x1 PUSH1 0x1 PUSH1 0xA0 SHL SUB DUP2 AND DUP2 EQ PUSH2 0x233F JUMPI PUSH1 0x0 DUP1 REVERT JUMPDEST PUSH1 0x0 DUP1 PUSH1 0x40 DUP4 DUP6 SUB SLT ISZERO PUSH2 0x516B JUMPI PUSH1 0x0 DUP1 REVERT JUMPDEST DUP3 CALLDATALOAD PUSH2 0x5176 DUP2 PUSH2 0x5143 JUMP JUMPDEST SWAP5 PUSH1 0x20 SWAP4 SWAP1 SWAP4 ADD CALLDATALOAD SWAP4 POP POP POP JUMP JUMPDEST PUSH1 0x1 PUSH1 0x1 PUSH1 0xE0 SHL SUB NOT DUP2 AND DUP2 EQ PUSH2 0x233F JUMPI PUSH1 0x0 DUP1 REVERT JUMPDEST PUSH1 0x0 PUSH1 0x20 DUP3 DUP5 SUB SLT ISZERO PUSH2 0x51AC JUMPI PUSH1 0x0 DUP1 REVERT JUMPDEST DUP2 CALLDATALOAD PUSH2 0x16DE DUP2 PUSH2 0x5184 JUMP JUMPDEST PUSH1 0x0 PUSH1 0x20 DUP3 DUP5 SUB SLT ISZERO PUSH2 0x51C9 JUMPI PUSH1 0x0 DUP1 REVERT JUMPDEST DUP2 CALLDATALOAD PUSH2 0x16DE DUP2 PUSH2 0x5143 JUMP JUMPDEST PUSH1 0x0 DUP1 PUSH1 0x20 DUP4 DUP6 SUB SLT ISZERO PUSH2 0x51E7 JUMPI PUSH1 0x0 DUP1 REVERT JUMPDEST DUP3 CALLDATALOAD PUSH1 0x1 PUSH1 0x1 PUSH1 0x40 SHL SUB DUP1 DUP3 GT ISZERO PUSH2 0x51FE JUMPI PUSH1 0x0 DUP1 REVERT JUMPDEST DUP2 DUP6 ADD SWAP2 POP DUP6 PUSH1 0x1F DUP4 ADD SLT PUSH2 0x5212 JUMPI PUSH1 0x0 DUP1 REVERT JUMPDEST DUP2 CALLDATALOAD DUP2 DUP2 GT ISZERO PUSH2 0x5221 JUMPI PUSH1 0x0 DUP1 REVERT JUMPDEST DUP7 PUSH1 0x20 DUP3 PUSH1 0x6 SHL DUP6 ADD ADD GT ISZERO PUSH2 0x5236 JUMPI PUSH1 0x0 DUP1 REVERT JUMPDEST PUSH1 0x20 SWAP3 SWAP1 SWAP3 ADD SWAP7 SWAP2 SWAP6 POP SWAP1 SWAP4 POP POP POP POP JUMP JUMPDEST PUSH1 0x0 PUSH1 0x20 DUP3 DUP5 SUB SLT ISZERO PUSH2 0x525A JUMPI PUSH1 0x0 DUP1 REVERT JUMPDEST POP CALLDATALOAD SWAP2 SWAP1 POP JUMP JUMPDEST PUSH1 0x0 JUMPDEST DUP4 DUP2 LT ISZERO PUSH2 0x527C JUMPI DUP2 DUP2 ADD MLOAD DUP4 DUP3 ADD MSTORE PUSH1 0x20 ADD PUSH2 0x5264 JUMP JUMPDEST DUP4 DUP2 GT ISZERO PUSH2 0xBC6 JUMPI POP POP PUSH1 0x0 SWAP2 ADD MSTORE JUMP JUMPDEST PUSH1 0x0 DUP2 MLOAD DUP1 DUP5 MSTORE PUSH2 0x52A5 DUP2 PUSH1 0x20 DUP7 ADD PUSH1 0x20 DUP7 ADD PUSH2 0x5261 JUMP JUMPDEST PUSH1 0x1F ADD PUSH1 0x1F NOT AND SWAP3 SWAP1 SWAP3 ADD PUSH1 0x20 ADD SWAP3 SWAP2 POP POP JUMP JUMPDEST PUSH1 0x20 DUP2 MSTORE PUSH1 0x0 PUSH2 0x16DE PUSH1 0x20 DUP4 ADD DUP5 PUSH2 0x528D JUMP JUMPDEST PUSH1 0x0 PUSH1 0xC0 DUP3 DUP5 SUB SLT ISZERO PUSH2 0x2BFD JUMPI PUSH1 0x0 DUP1 REVERT JUMPDEST PUSH4 0x4E487B71 PUSH1 0xE0 SHL PUSH1 0x0 MSTORE PUSH1 0x41 PUSH1 0x4 MSTORE PUSH1 0x24 PUSH1 0x0 REVERT JUMPDEST PUSH1 0x40 MLOAD PUSH1 0x1F DUP3 ADD PUSH1 0x1F NOT AND DUP2 ADD PUSH1 0x1 PUSH1 0x1 PUSH1 0x40 SHL SUB DUP2 GT DUP3 DUP3 LT OR ISZERO PUSH2 0x531C JUMPI PUSH2 0x531C PUSH2 0x52DE JUMP JUMPDEST PUSH1 0x40 MSTORE SWAP2 SWAP1 POP JUMP JUMPDEST PUSH1 0x0 PUSH1 0x1 PUSH1 0x1 PUSH1 0x40 SHL SUB DUP3 GT ISZERO PUSH2 0x533D JUMPI PUSH2 0x533D PUSH2 0x52DE JUMP JUMPDEST POP PUSH1 0x5 SHL PUSH1 0x20 ADD SWAP1 JUMP JUMPDEST PUSH1 0x0 DUP3 PUSH1 0x1F DUP4 ADD SLT PUSH2 0x5358 JUMPI PUSH1 0x0 DUP1 REVERT JUMPDEST DUP2 CALLDATALOAD PUSH1 0x20 PUSH2 0x536D PUSH2 0x5368 DUP4 PUSH2 0x5324 JUMP JUMPDEST PUSH2 0x52F4 JUMP JUMPDEST DUP3 DUP2 MSTORE PUSH1 0x5 SWAP3 SWAP1 SWAP3 SHL DUP5 ADD DUP2 ADD SWAP2 DUP2 DUP2 ADD SWAP1 DUP7 DUP5 GT ISZERO PUSH2 0x538C JUMPI PUSH1 0x0 DUP1 REVERT JUMPDEST DUP3 DUP7 ADD JUMPDEST DUP5 DUP2 LT ISZERO PUSH2 0x53A7 JUMPI DUP1 CALLDATALOAD DUP4 MSTORE SWAP2 DUP4 ADD SWAP2 DUP4 ADD PUSH2 0x5390 JUMP JUMPDEST POP SWAP7 SWAP6 POP POP POP POP POP POP JUMP JUMPDEST PUSH1 0x0 DUP3 PUSH1 0x1F DUP4 ADD SLT PUSH2 0x53C3 JUMPI PUSH1 0x0 DUP1 REVERT JUMPDEST DUP2 CALLDATALOAD PUSH1 0x1 PUSH1 0x1 PUSH1 0x40 SHL SUB DUP2 GT ISZERO PUSH2 0x53DC JUMPI PUSH2 0x53DC PUSH2 0x52DE JUMP JUMPDEST PUSH2 0x53EF PUSH1 0x1F DUP3 ADD PUSH1 0x1F NOT AND PUSH1 0x20 ADD PUSH2 0x52F4 JUMP JUMPDEST DUP2 DUP2 MSTORE DUP5 PUSH1 0x20 DUP4 DUP7 ADD ADD GT ISZERO PUSH2 0x5404 JUMPI PUSH1 0x0 DUP1 REVERT JUMPDEST DUP2 PUSH1 0x20 DUP6 ADD PUSH1 0x20 DUP4 ADD CALLDATACOPY PUSH1 0x0 SWAP2 DUP2 ADD PUSH1 0x20 ADD SWAP2 SWAP1 SWAP2 MSTORE SWAP4 SWAP3 POP POP POP JUMP JUMPDEST PUSH1 0x0 DUP1 PUSH1 0x0 DUP1 PUSH1 0x0 PUSH1 0xA0 DUP7 DUP9 SUB SLT ISZERO PUSH2 0x5439 JUMPI PUSH1 0x0 DUP1 REVERT JUMPDEST DUP6 CALLDATALOAD PUSH2 0x5444 DUP2 PUSH2 0x5143 JUMP JUMPDEST SWAP5 POP PUSH1 0x20 DUP7 ADD CALLDATALOAD PUSH2 0x5454 DUP2 PUSH2 0x5143 JUMP JUMPDEST SWAP4 POP PUSH1 0x40 DUP7 ADD CALLDATALOAD PUSH1 0x1 PUSH1 0x1 PUSH1 0x40 SHL SUB DUP1 DUP3 GT ISZERO PUSH2 0x5470 JUMPI PUSH1 0x0 DUP1 REVERT JUMPDEST PUSH2 0x547C DUP10 DUP4 DUP11 ADD PUSH2 0x5347 JUMP JUMPDEST SWAP5 POP PUSH1 0x60 DUP9 ADD CALLDATALOAD SWAP2 POP DUP1 DUP3 GT ISZERO PUSH2 0x5492 JUMPI PUSH1 0x0 DUP1 REVERT JUMPDEST PUSH2 0x549E DUP10 DUP4 DUP11 ADD PUSH2 0x5347 JUMP JUMPDEST SWAP4 POP PUSH1 0x80 DUP9 ADD CALLDATALOAD SWAP2 POP DUP1 DUP3 GT ISZERO PUSH2 0x54B4 JUMPI PUSH1 0x0 DUP1 REVERT JUMPDEST POP PUSH2 0x54C1 DUP9 DUP3 DUP10 ADD PUSH2 0x53B2 JUMP JUMPDEST SWAP2 POP POP SWAP3 SWAP6 POP SWAP3 SWAP6 SWAP1 SWAP4 POP JUMP JUMPDEST PUSH1 0x0 DUP1 PUSH1 0x40 DUP4 DUP6 SUB SLT ISZERO PUSH2 0x54E1 JUMPI PUSH1 0x0 DUP1 REVERT JUMPDEST DUP3 CALLDATALOAD SWAP2 POP PUSH1 0x20 DUP4 ADD CALLDATALOAD PUSH2 0x54F3 DUP2 PUSH2 0x5143 JUMP JUMPDEST DUP1 SWAP2 POP POP SWAP3 POP SWAP3 SWAP1 POP JUMP JUMPDEST PUSH1 0x0 DUP1 DUP4 PUSH1 0x1F DUP5 ADD SLT PUSH2 0x5510 JUMPI PUSH1 0x0 DUP1 REVERT JUMPDEST POP DUP2 CALLDATALOAD PUSH1 0x1 PUSH1 0x1 PUSH1 0x40 SHL SUB DUP2 GT ISZERO PUSH2 0x5527 JUMPI PUSH1 0x0 DUP1 REVERT JUMPDEST PUSH1 0x20 DUP4 ADD SWAP2 POP DUP4 PUSH1 0x20 DUP3 PUSH1 0x5 SHL DUP6 ADD ADD GT ISZERO PUSH2 0x5542 JUMPI PUSH1 0x0 DUP1 REVERT JUMPDEST SWAP3 POP SWAP3 SWAP1 POP JUMP JUMPDEST PUSH1 0x0 DUP1 PUSH1 0x20 DUP4 DUP6 SUB SLT ISZERO PUSH2 0x555C JUMPI PUSH1 0x0 DUP1 REVERT JUMPDEST DUP3 CALLDATALOAD PUSH1 0x1 PUSH1 0x1 PUSH1 0x40 SHL SUB DUP2 GT ISZERO PUSH2 0x5572 JUMPI PUSH1 0x0 DUP1 REVERT JUMPDEST PUSH2 0x557E DUP6 DUP3 DUP7 ADD PUSH2 0x54FE JUMP JUMPDEST SWAP1 SWAP7 SWAP1 SWAP6 POP SWAP4 POP POP POP POP JUMP JUMPDEST PUSH1 0x20 DUP1 DUP3 MSTORE DUP3 MLOAD DUP3 DUP3 ADD DUP2 SWAP1 MSTORE PUSH1 0x0 SWAP2 SWAP1 PUSH1 0x40 SWAP1 DUP2 DUP6 ADD SWAP1 DUP7 DUP5 ADD DUP6 DUP1 JUMPDEST DUP4 DUP2 LT ISZERO PUSH2 0x5627 JUMPI DUP3 MLOAD DUP1 MLOAD DUP7 DUP5 JUMPDEST PUSH1 0x8 DUP2 LT ISZERO PUSH2 0x55DA JUMPI DUP3 MLOAD PUSH4 0xFFFFFFFF AND DUP3 MSTORE SWAP2 DUP11 ADD SWAP2 SWAP1 DUP11 ADD SWAP1 PUSH1 0x1 ADD PUSH2 0x55B7 JUMP JUMPDEST POP POP POP DUP8 DUP2 ADD MLOAD PUSH1 0x1 PUSH1 0x1 PUSH1 0x80 SHL SUB SWAP1 DUP2 AND PUSH2 0x100 DUP9 ADD MSTORE DUP8 DUP3 ADD MLOAD DUP2 AND PUSH2 0x120 DUP9 ADD MSTORE PUSH1 0x60 DUP3 ADD MLOAD AND PUSH2 0x140 DUP8 ADD MSTORE PUSH1 0x80 ADD MLOAD PUSH2 0x160 DUP7 ADD MSTORE PUSH2 0x180 SWAP1 SWAP5 ADD SWAP4 SWAP2 DUP7 ADD SWAP2 PUSH1 0x1 ADD PUSH2 0x55A8 JUMP JUMPDEST POP SWAP3 SWAP9 SWAP8 POP POP POP POP POP POP POP POP JUMP JUMPDEST PUSH1 0x0 DUP1 PUSH1 0x40 DUP4 DUP6 SUB SLT ISZERO PUSH2 0x5648 JUMPI PUSH1 0x0 DUP1 REVERT JUMPDEST DUP3 CALLDATALOAD PUSH1 0x1 PUSH1 0x1 PUSH1 0x40 SHL SUB DUP1 DUP3 GT ISZERO PUSH2 0x565F JUMPI PUSH1 0x0 DUP1 REVERT JUMPDEST PUSH2 0x566B DUP7 DUP4 DUP8 ADD PUSH2 0x53B2 JUMP JUMPDEST SWAP4 POP PUSH1 0x20 DUP6 ADD CALLDATALOAD SWAP2 POP DUP1 DUP3 GT ISZERO PUSH2 0x5681 JUMPI PUSH1 0x0 DUP1 REVERT JUMPDEST POP PUSH2 0x568E DUP6 DUP3 DUP7 ADD PUSH2 0x53B2 JUMP JUMPDEST SWAP2 POP POP SWAP3 POP SWAP3 SWAP1 POP JUMP JUMPDEST PUSH1 0x0 DUP1 PUSH1 0x0 DUP1 PUSH1 0x80 DUP6 DUP8 SUB SLT ISZERO PUSH2 0x56AE JUMPI PUSH1 0x0 DUP1 REVERT JUMPDEST DUP5 CALLDATALOAD PUSH2 0x56B9 DUP2 PUSH2 0x5143 JUMP JUMPDEST SWAP4 POP PUSH1 0x20 DUP6 ADD CALLDATALOAD SWAP3 POP PUSH1 0x40 DUP6 ADD CALLDATALOAD SWAP2 POP PUSH1 0x60 DUP6 ADD CALLDATALOAD PUSH2 0x56D7 DUP2 PUSH2 0x5143 JUMP JUMPDEST SWAP4 SWAP7 SWAP3 SWAP6 POP SWAP1 SWAP4 POP POP JUMP JUMPDEST PUSH1 0x0 DUP1 PUSH1 0x0 PUSH1 0x60 DUP5 DUP7 SUB SLT ISZERO PUSH2 0x56F7 JUMPI PUSH1 0x0 DUP1 REVERT JUMPDEST DUP4 CALLDATALOAD PUSH2 0x5702 DUP2 PUSH2 0x5143 JUMP JUMPDEST SWAP3 POP PUSH1 0x20 DUP5 ADD CALLDATALOAD PUSH2 0x5712 DUP2 PUSH2 0x5143 JUMP JUMPDEST SWAP3 SWAP6 SWAP3 SWAP5 POP POP POP PUSH1 0x40 SWAP2 SWAP1 SWAP2 ADD CALLDATALOAD SWAP1 JUMP JUMPDEST PUSH1 0x0 DUP1 PUSH1 0x40 DUP4 DUP6 SUB SLT ISZERO PUSH2 0x5736 JUMPI PUSH1 0x0 DUP1 REVERT JUMPDEST DUP3 CALLDATALOAD PUSH1 0x1 PUSH1 0x1 PUSH1 0x40 SHL SUB DUP1 DUP3 GT ISZERO PUSH2 0x574D JUMPI PUSH1 0x0 DUP1 REVERT JUMPDEST DUP2 DUP6 ADD SWAP2 POP DUP6 PUSH1 0x1F DUP4 ADD SLT PUSH2 0x5761 JUMPI PUSH1 0x0 DUP1 REVERT JUMPDEST DUP2 CALLDATALOAD PUSH1 0x20 PUSH2 0x5771 PUSH2 0x5368 DUP4 PUSH2 0x5324 JUMP JUMPDEST DUP3 DUP2 MSTORE PUSH1 0x5 SWAP3 SWAP1 SWAP3 SHL DUP5 ADD DUP2 ADD SWAP2 DUP2 DUP2 ADD SWAP1 DUP10 DUP5 GT ISZERO PUSH2 0x5790 JUMPI PUSH1 0x0 DUP1 REVERT JUMPDEST SWAP5 DUP3 ADD SWAP5 JUMPDEST DUP4 DUP7 LT ISZERO PUSH2 0x57B7 JUMPI DUP6 CALLDATALOAD PUSH2 0x57A8 DUP2 PUSH2 0x5143 JUMP JUMPDEST DUP3 MSTORE SWAP5 DUP3 ADD SWAP5 SWAP1 DUP3 ADD SWAP1 PUSH2 0x5795 JUMP JUMPDEST SWAP7 POP POP DUP7 ADD CALLDATALOAD SWAP3 POP POP DUP1 DUP3 GT ISZERO PUSH2 0x57CD JUMPI PUSH1 0x0 DUP1 REVERT JUMPDEST POP PUSH2 0x568E DUP6 DUP3 DUP7 ADD PUSH2 0x5347 JUMP JUMPDEST PUSH1 0x20 DUP1 DUP3 MSTORE DUP3 MLOAD DUP3 DUP3 ADD DUP2 SWAP1 MSTORE PUSH1 0x0 SWAP2 SWAP1 DUP5 DUP3 ADD SWAP1 PUSH1 0x40 DUP6 ADD SWAP1 DUP5 JUMPDEST DUP2 DUP2 LT ISZERO PUSH2 0x5812 JUMPI DUP4 MLOAD DUP4 MSTORE SWAP3 DUP5 ADD SWAP3 SWAP2 DUP5 ADD SWAP2 PUSH1 0x1 ADD PUSH2 0x57F6 JUMP JUMPDEST POP SWAP1 SWAP7 SWAP6 POP POP POP POP POP POP JUMP JUMPDEST PUSH1 0x0 DUP1 PUSH1 0x40 DUP4 DUP6 SUB SLT ISZERO PUSH2 0x5831 JUMPI PUSH1 0x0 DUP1 REVERT JUMPDEST POP POP DUP1 CALLDATALOAD SWAP3 PUSH1 0x20 SWAP1 SWAP2 ADD CALLDATALOAD SWAP2 POP JUMP JUMPDEST DUP1 ISZERO ISZERO DUP2 EQ PUSH2 0x233F JUMPI PUSH1 0x0 DUP1 REVERT JUMPDEST PUSH1 0x0 DUP1 PUSH1 0x40 DUP4 DUP6 SUB SLT ISZERO PUSH2 0x5861 JUMPI PUSH1 0x0 DUP1 REVERT JUMPDEST DUP3 CALLDATALOAD PUSH2 0x586C DUP2 PUSH2 0x5143 JUMP JUMPDEST SWAP2 POP PUSH1 0x20 DUP4 ADD CALLDATALOAD PUSH2 0x54F3 DUP2 PUSH2 0x5840 JUMP JUMPDEST PUSH1 0x0 DUP1 PUSH1 0x0 DUP1 PUSH1 0x0 DUP1 PUSH1 0xC0 DUP8 DUP10 SUB SLT ISZERO PUSH2 0x5895 JUMPI PUSH1 0x0 DUP1 REVERT JUMPDEST DUP7 CALLDATALOAD PUSH2 0x58A0 DUP2 PUSH2 0x5143 JUMP JUMPDEST SWAP6 POP PUSH1 0x20 DUP8 ADD CALLDATALOAD PUSH2 0x58B0 DUP2 PUSH2 0x5143 JUMP JUMPDEST SWAP5 POP PUSH1 0x40 DUP8 ADD CALLDATALOAD SWAP4 POP PUSH1 0x60 DUP8 ADD CALLDATALOAD SWAP3 POP PUSH1 0x80 DUP8 ADD CALLDATALOAD SWAP2 POP PUSH1 0xA0 DUP8 ADD CALLDATALOAD PUSH2 0x58D5 DUP2 PUSH2 0x5143 JUMP JUMPDEST DUP1 SWAP2 POP POP SWAP3 SWAP6 POP SWAP3 SWAP6 POP SWAP3 SWAP6 JUMP JUMPDEST PUSH1 0x0 PUSH1 0x20 DUP3 DUP5 SUB SLT ISZERO PUSH2 0x58F5 JUMPI PUSH1 0x0 DUP1 REVERT JUMPDEST DUP2 CALLDATALOAD PUSH1 0x1 PUSH1 0x1 PUSH1 0x40 SHL SUB DUP2 GT ISZERO PUSH2 0x590B JUMPI PUSH1 0x0 DUP1 REVERT JUMPDEST PUSH2 0x5917 DUP5 DUP3 DUP6 ADD PUSH2 0x53B2 JUMP JUMPDEST SWAP5 SWAP4 POP POP POP POP JUMP JUMPDEST PUSH1 0x0 DUP1 PUSH1 0x40 DUP4 DUP6 SUB SLT ISZERO PUSH2 0x5932 JUMPI PUSH1 0x0 DUP1 REVERT JUMPDEST DUP3 CALLDATALOAD PUSH2 0x593D DUP2 PUSH2 0x5143 JUMP JUMPDEST SWAP2 POP PUSH1 0x20 DUP4 ADD CALLDATALOAD PUSH2 0x54F3 DUP2 PUSH2 0x5143 JUMP JUMPDEST PUSH1 0x0 DUP1 PUSH1 0x0 DUP1 PUSH1 0x0 PUSH1 0xA0 DUP7 DUP9 SUB SLT ISZERO PUSH2 0x5965 JUMPI PUSH1 0x0 DUP1 REVERT JUMPDEST DUP6 CALLDATALOAD PUSH2 0x5970 DUP2 PUSH2 0x5143 JUMP JUMPDEST SWAP5 POP PUSH1 0x20 DUP7 ADD CALLDATALOAD PUSH2 0x5980 DUP2 PUSH2 0x5143 JUMP JUMPDEST SWAP4 POP PUSH1 0x40 DUP7 ADD CALLDATALOAD PUSH2 0x5990 DUP2 PUSH2 0x5143 JUMP JUMPDEST SWAP3 POP PUSH1 0x60 DUP7 ADD CALLDATALOAD PUSH2 0x59A0 DUP2 PUSH2 0x5143 JUMP JUMPDEST SWAP2 POP PUSH1 0x80 DUP7 ADD CALLDATALOAD PUSH2 0x59B0 DUP2 PUSH2 0x5143 JUMP JUMPDEST DUP1 SWAP2 POP POP SWAP3 SWAP6 POP SWAP3 SWAP6 SWAP1 SWAP4 POP JUMP JUMPDEST PUSH1 0x0 DUP1 PUSH1 0x0 DUP1 PUSH1 0x0 PUSH1 0xA0 DUP7 DUP9 SUB SLT ISZERO PUSH2 0x59D6 JUMPI PUSH1 0x0 DUP1 REVERT JUMPDEST DUP6 CALLDATALOAD PUSH2 0x59E1 DUP2 PUSH2 0x5143 JUMP JUMPDEST SWAP5 POP PUSH1 0x20 DUP7 ADD CALLDATALOAD PUSH2 0x59F1 DUP2 PUSH2 0x5143 JUMP JUMPDEST SWAP4 POP PUSH1 0x40 DUP7 ADD CALLDATALOAD SWAP3 POP PUSH1 0x60 DUP7 ADD CALLDATALOAD SWAP2 POP PUSH1 0x80 DUP7 ADD CALLDATALOAD PUSH1 0x1 PUSH1 0x1 PUSH1 0x40 SHL SUB DUP2 GT ISZERO PUSH2 0x5A1A JUMPI PUSH1 0x0 DUP1 REVERT JUMPDEST PUSH2 0x54C1 DUP9 DUP3 DUP10 ADD PUSH2 0x53B2 JUMP JUMPDEST PUSH1 0x0 DUP1 PUSH1 0x0 PUSH1 0x60 DUP5 DUP7 SUB SLT ISZERO PUSH2 0x5A3B JUMPI PUSH1 0x0 DUP1 REVERT JUMPDEST DUP4 CALLDATALOAD PUSH2 0x5A46 DUP2 PUSH2 0x5143 JUMP JUMPDEST SWAP6 PUSH1 0x20 DUP6 ADD CALLDATALOAD SWAP6 POP PUSH1 0x40 SWAP1 SWAP5 ADD CALLDATALOAD SWAP4 SWAP3 POP POP POP JUMP JUMPDEST PUSH1 0x20 DUP1 DUP3 MSTORE PUSH1 0x1 SWAP1 DUP3 ADD MSTORE PUSH1 0x43 PUSH1 0xF8 SHL PUSH1 0x40 DUP3 ADD MSTORE PUSH1 0x60 ADD SWAP1 JUMP JUMPDEST PUSH4 0x4E487B71 PUSH1 0xE0 SHL PUSH1 0x0 MSTORE PUSH1 0x32 PUSH1 0x4 MSTORE PUSH1 0x24 PUSH1 0x0 REVERT JUMPDEST PUSH4 0x4E487B71 PUSH1 0xE0 SHL PUSH1 0x0 MSTORE PUSH1 0x11 PUSH1 0x4 MSTORE PUSH1 0x24 PUSH1 0x0 REVERT JUMPDEST PUSH1 0x0 DUP3 DUP3 LT ISZERO PUSH2 0x5AB4 JUMPI PUSH2 0x5AB4 PUSH2 0x5A8C JUMP JUMPDEST POP SUB SWAP1 JUMP JUMPDEST PUSH1 0x0 PUSH1 0x0 NOT DUP3 EQ ISZERO PUSH2 0x5ACD JUMPI PUSH2 0x5ACD PUSH2 0x5A8C JUMP JUMPDEST POP PUSH1 0x1 ADD SWAP1 JUMP JUMPDEST PUSH1 0x0 PUSH1 0x20 DUP3 DUP5 SUB SLT ISZERO PUSH2 0x5AE6 JUMPI PUSH1 0x0 DUP1 REVERT JUMPDEST DUP2 MLOAD PUSH2 0x16DE DUP2 PUSH2 0x5143 JUMP JUMPDEST PUSH1 0x1 DUP2 DUP2 SHR SWAP1 DUP3 AND DUP1 PUSH2 0x5B05 JUMPI PUSH1 0x7F DUP3 AND SWAP2 POP JUMPDEST PUSH1 0x20 DUP3 LT DUP2 EQ ISZERO PUSH2 0x2BFD JUMPI PUSH4 0x4E487B71 PUSH1 0xE0 SHL PUSH1 0x0 MSTORE PUSH1 0x22 PUSH1 0x4 MSTORE PUSH1 0x24 PUSH1 0x0 REVERT JUMPDEST PUSH1 0x0 DUP2 PUSH1 0x0 NOT DIV DUP4 GT DUP3 ISZERO ISZERO AND ISZERO PUSH2 0x5B40 JUMPI PUSH2 0x5B40 PUSH2 0x5A8C JUMP JUMPDEST POP MUL SWAP1 JUMP JUMPDEST DUP2 CALLDATALOAD PUSH2 0x5B50 DUP2 PUSH2 0x5143 JUMP JUMPDEST DUP2 SLOAD PUSH1 0x1 PUSH1 0x1 PUSH1 0xA0 SHL SUB NOT AND PUSH1 0x1 PUSH1 0x1 PUSH1 0xA0 SHL SUB SWAP2 SWAP1 SWAP2 AND OR DUP2 SSTORE PUSH1 0x20 DUP3 ADD CALLDATALOAD PUSH1 0x1 DUP3 ADD SSTORE PUSH1 0x40 DUP3 ADD CALLDATALOAD PUSH1 0x2 DUP3 ADD SSTORE PUSH1 0x60 DUP3 ADD CALLDATALOAD PUSH1 0x3 DUP3 ADD SSTORE PUSH1 0x80 DUP3 ADD CALLDATALOAD PUSH1 0x4 DUP3 ADD SSTORE PUSH1 0xA0 SWAP2 SWAP1 SWAP2 ADD CALLDATALOAD PUSH1 0x5 SWAP1 SWAP2 ADD SSTORE JUMP JUMPDEST PUSH1 0x0 DUP1 DUP5 SLOAD DUP2 PUSH1 0x1 DUP3 DUP2 SHR SWAP2 POP DUP1 DUP4 AND DUP1 PUSH2 0x5BBE JUMPI PUSH1 0x7F DUP4 AND SWAP3 POP JUMPDEST PUSH1 0x20 DUP1 DUP5 LT DUP3 EQ ISZERO PUSH2 0x5BDE JUMPI PUSH4 0x4E487B71 PUSH1 0xE0 SHL DUP7 MSTORE PUSH1 0x22 PUSH1 0x4 MSTORE PUSH1 0x24 DUP7 REVERT JUMPDEST DUP2 DUP1 ISZERO PUSH2 0x5BF2 JUMPI PUSH1 0x1 DUP2 EQ PUSH2 0x5C03 JUMPI PUSH2 0x5C30 JUMP JUMPDEST PUSH1 0xFF NOT DUP7 AND DUP10 MSTORE DUP5 DUP10 ADD SWAP7 POP PUSH2 0x5C30 JUMP JUMPDEST PUSH1 0x0 DUP12 DUP2 MSTORE PUSH1 0x20 SWAP1 KECCAK256 PUSH1 0x0 JUMPDEST DUP7 DUP2 LT ISZERO PUSH2 0x5C28 JUMPI DUP2 SLOAD DUP12 DUP3 ADD MSTORE SWAP1 DUP6 ADD SWAP1 DUP4 ADD PUSH2 0x5C0F JUMP JUMPDEST POP POP DUP5 DUP10 ADD SWAP7 POP JUMPDEST POP DUP9 DUP7 MSTORE PUSH2 0x5C4B DUP2 DUP8 ADD PUSH5 0x173539B7B7 PUSH1 0xD9 SHL DUP2 MSTORE PUSH1 0x5 ADD SWAP1 JUMP JUMPDEST SWAP11 SWAP10 POP POP POP POP POP POP POP POP POP POP JUMP JUMPDEST PUSH1 0x0 DUP3 NOT DUP3 GT ISZERO PUSH2 0x5C6C JUMPI PUSH2 0x5C6C PUSH2 0x5A8C JUMP JUMPDEST POP ADD SWAP1 JUMP JUMPDEST PUSH1 0x20 DUP1 DUP3 MSTORE PUSH1 0x1 SWAP1 DUP3 ADD MSTORE PUSH1 0x11 PUSH1 0xFA SHL PUSH1 0x40 DUP3 ADD MSTORE PUSH1 0x60 ADD SWAP1 JUMP JUMPDEST PUSH1 0x20 DUP1 DUP3 MSTORE PUSH1 0x1 SWAP1 DUP3 ADD MSTORE PUSH1 0x23 PUSH1 0xF9 SHL PUSH1 0x40 DUP3 ADD MSTORE PUSH1 0x60 ADD SWAP1 JUMP JUMPDEST PUSH4 0x4E487B71 PUSH1 0xE0 SHL PUSH1 0x0 MSTORE PUSH1 0x12 PUSH1 0x4 MSTORE PUSH1 0x24 PUSH1 0x0 REVERT JUMPDEST PUSH1 0x0 DUP3 PUSH2 0x5CCC JUMPI PUSH2 0x5CCC PUSH2 0x5CA7 JUMP JUMPDEST POP DIV SWAP1 JUMP JUMPDEST PUSH1 0x0 PUSH1 0x1 PUSH1 0x1 PUSH1 0x80 SHL SUB DUP1 DUP4 AND DUP2 DUP6 AND DUP1 DUP4 SUB DUP3 GT ISZERO PUSH2 0x5CF3 JUMPI PUSH2 0x5CF3 PUSH2 0x5A8C JUMP JUMPDEST ADD SWAP5 SWAP4 POP POP POP POP JUMP JUMPDEST PUSH1 0x1 PUSH1 0x1 PUSH1 0xA0 SHL SUB SWAP5 SWAP1 SWAP5 AND DUP5 MSTORE PUSH1 0x20 DUP5 ADD SWAP3 SWAP1 SWAP3 MSTORE PUSH1 0x40 DUP4 ADD MSTORE PUSH1 0x60 DUP3 ADD MSTORE PUSH1 0x80 ADD SWAP1 JUMP JUMPDEST PUSH1 0x1 PUSH1 0x1 PUSH1 0xA0 SHL SUB SWAP5 SWAP1 SWAP5 AND DUP5 MSTORE PUSH1 0x1 PUSH1 0x1 PUSH1 0x80 SHL SUB SWAP3 DUP4 AND PUSH1 0x20 DUP6 ADD MSTORE SWAP2 AND PUSH1 0x40 DUP4 ADD MSTORE PUSH1 0x60 DUP3 ADD MSTORE PUSH1 0x80 ADD SWAP1 JUMP JUMPDEST PUSH1 0x0 PUSH1 0x20 DUP3 DUP5 SUB SLT ISZERO PUSH2 0x5D64 JUMPI PUSH1 0x0 DUP1 REVERT JUMPDEST DUP2 MLOAD PUSH2 0x16DE DUP2 PUSH2 0x5840 JUMP JUMPDEST PUSH1 0x0 DUP3 MLOAD PUSH2 0x5D81 DUP2 DUP5 PUSH1 0x20 DUP8 ADD PUSH2 0x5261 JUMP JUMPDEST PUSH9 0x3DB4B23E973539B7B7 PUSH1 0xB9 SHL SWAP3 ADD SWAP2 DUP3 MSTORE POP PUSH1 0x9 ADD SWAP2 SWAP1 POP JUMP JUMPDEST PUSH1 0x0 PUSH1 0x20 DUP3 DUP5 SUB SLT ISZERO PUSH2 0x5DAE JUMPI PUSH1 0x0 DUP1 REVERT JUMPDEST POP MLOAD SWAP2 SWAP1 POP JUMP JUMPDEST PUSH1 0x0 DUP3 PUSH2 0x5DC4 JUMPI PUSH2 0x5DC4 PUSH2 0x5CA7 JUMP JUMPDEST POP MOD SWAP1 JUMP JUMPDEST PUSH1 0x0 PUSH1 0x1 PUSH1 0x1 PUSH1 0x80 SHL SUB DUP4 DUP2 AND SWAP1 DUP4 AND DUP2 DUP2 LT ISZERO PUSH2 0x5DE9 JUMPI PUSH2 0x5DE9 PUSH2 0x5A8C JUMP JUMPDEST SUB SWAP4 SWAP3 POP POP POP JUMP JUMPDEST PUSH1 0x0 DUP3 MLOAD PUSH2 0x5E03 DUP2 DUP5 PUSH1 0x20 DUP8 ADD PUSH2 0x5261 JUMP JUMPDEST SWAP2 SWAP1 SWAP2 ADD SWAP3 SWAP2 POP POP JUMP JUMPDEST PUSH1 0x1 PUSH1 0x1 PUSH1 0xA0 SHL SUB DUP7 DUP2 AND DUP3 MSTORE DUP6 AND PUSH1 0x20 DUP3 ADD MSTORE PUSH1 0x40 DUP2 ADD DUP5 SWAP1 MSTORE PUSH1 0x60 DUP2 ADD DUP4 SWAP1 MSTORE PUSH1 0xA0 PUSH1 0x80 DUP3 ADD DUP2 SWAP1 MSTORE PUSH1 0x0 SWAP1 PUSH2 0x1A4B SWAP1 DUP4 ADD DUP5 PUSH2 0x528D JUMP JUMPDEST PUSH1 0x0 PUSH1 0x20 DUP3 DUP5 SUB SLT ISZERO PUSH2 0x5E59 JUMPI PUSH1 0x0 DUP1 REVERT JUMPDEST DUP2 MLOAD PUSH2 0x16DE DUP2 PUSH2 0x5184 JUMP JUMPDEST PUSH4 0x4E487B71 PUSH1 0xE0 SHL PUSH1 0x0 MSTORE PUSH1 0x31 PUSH1 0x4 MSTORE PUSH1 0x24 PUSH1 0x0 REVERT INVALID MLOAD 0xAB SLT ORIGIN 0xA7 EXTCODESIZE DUP3 0xB6 0xB0 0xAC 0xB0 STATICCALL SWAP2 0xB8 CALLVALUE 0xCF PUSH15 0x258A1858C4E23C72CE97241C71AA0D LOG2 PUSH5 0x6970667358 0x22 SLT KECCAK256 PUSH22 0xE12350273C02E1D573FC062F5ED56CDA8CEEB2E2F206 0x5C 0xBA 0x28 BALANCE SMOD CALLCODE SDIV LOG1 0xEB PUSH5 0x736F6C6343 STOP ADDMOD SIGNEXTEND STOP CALLER PUSH9 0x747470733A2F2F6461 PUSH21 0x612E63657262792E66692F4365726279537761702F PUSH23 0x312F000000000000000000000000000000000000000000 "
		},
		"gasEstimates": {
			"creation": {
				"codeDepositCost": "4854400",
				"executionCost": "infinite",
				"totalCost": "infinite"
			},
			"external": {
				"ROLE_ADMIN()": "317",
				"addTokenLiquidity(address,uint256,uint256,address)": "infinite",
				"adminChangeCerUsdCreditInPool(address,uint256)": "infinite",
				"adminCreatePool(address,uint256,uint256,address)": "infinite",
				"adminInitialize()": "infinite",
				"adminSetURI(string)": "infinite",
				"adminUpdateFeesAndTvlMultipliers((address,uint256,uint256,uint256,uint256,uint256))": "137889",
				"adminUpdateNameAndSymbol(string,string)": "infinite",
				"balanceOf(address,uint256)": "2717",
				"balanceOfBatch(address[],uint256[])": "infinite",
				"burn(address,uint256,uint256)": "infinite",
				"createPool(address,uint256,uint256,address)": "infinite",
				"decimals()": "227",
				"exists(uint256)": "2539",
				"getCurrentOneMinusFeeBasedOnTrades(address)": "infinite",
				"getInputTokensForExactTokens(address,address,uint256)": "infinite",
				"getOutputExactTokensForTokens(address,address,uint256)": "infinite",
				"getPoolsByIds(uint256[])": "infinite",
				"getPoolsByTokens(address[])": "infinite",
				"getRoleAdmin(bytes32)": "2545",
				"getRoleMember(bytes32,uint256)": "infinite",
				"getRoleMemberCount(bytes32)": "infinite",
				"getTokenToPoolId(address)": "2653",
				"getUtilsContractAtPos(uint256)": "infinite",
				"grantRole(bytes32,address)": "infinite",
				"grantRolesBulk((bytes32,address)[])": "infinite",
				"hasRole(bytes32,address)": "2776",
				"increaseCerUsdCreditInPool(address,uint256)": "infinite",
				"isApprovedForAll(address,address)": "infinite",
				"lowLevelSwap(address,uint256,uint256,address)": "infinite",
				"name()": "infinite",
				"removeTokenLiquidity(address,uint256,uint256,address)": "infinite",
				"renounceRole(bytes32,address)": "infinite",
				"revokeRole(bytes32,address)": "infinite",
				"safeBatchTransferFrom(address,address,uint256[],uint256[],bytes)": "infinite",
				"safeTransferFrom(address,address,uint256,uint256,bytes)": "infinite",
				"setApprovalForAll(address,bool)": "infinite",
				"settings()": "13052",
				"skimPool(address)": "infinite",
				"supportsInterface(bytes4)": "infinite",
				"swapExactTokensForTokens(address,address,uint256,uint256,uint256,address)": "infinite",
				"swapTokensForExactTokens(address,address,uint256,uint256,uint256,address)": "infinite",
				"symbol()": "infinite",
				"syncTokenBalanceInPool(address)": "infinite",
				"testInit()": "infinite",
				"testSetupTokens(address,address,address,address,address)": "infinite",
				"totalSupply()": "infinite",
				"totalSupply(uint256)": "2582",
				"uri(uint256)": "infinite"
			},
			"internal": {
				"_createPool(address,uint256,uint256,uint256,address)": "infinite",
				"_getInput(uint256,uint256,uint256,uint256)": "infinite",
				"_getMintFeeLiquidityAmount(uint256,uint256,uint256)": "infinite",
				"_getOutput(uint256,uint256,uint256,uint256)": "infinite",
				"_getTokenBalance(address)": "infinite",
				"_removeTokenLiquidity(address,uint256,address)": "infinite",
				"_safeTransferFrom(address,address,address,uint256)": "infinite",
				"_safeTransferFromHelper(address,address,uint256)": "infinite",
				"_safeTransferHelper(address,address,uint256,bool)": "infinite",
				"_safeTransferNative(address,uint256)": "infinite",
				"_safeTransferToken(address,address,uint256)": "infinite",
				"_swap(address,uint256,uint256,address)": "infinite",
				"getCurrentOneMinusFeeBasedOnTrades(uint256)": "infinite",
				"getCurrentPeriod()": "142",
				"getInputCerUsdForExactTokens(address,uint256)": "infinite",
				"getInputTokensForExactCerUsd(address,uint256)": "infinite",
				"getOutputExactCerUsdForTokens(address,uint256)": "infinite",
				"getOutputExactTokensForCerUsd(address,uint256)": "infinite",
				"sqrt(uint256)": "infinite"
			}
		},
		"methodIdentifiers": {
			"ROLE_ADMIN()": "d391014b",
			"addTokenLiquidity(address,uint256,uint256,address)": "43fefad4",
			"adminChangeCerUsdCreditInPool(address,uint256)": "cab4ba82",
			"adminCreatePool(address,uint256,uint256,address)": "d5d60737",
			"adminInitialize()": "c09c923b",
			"adminSetURI(string)": "a7fd40bf",
			"adminUpdateFeesAndTvlMultipliers((address,uint256,uint256,uint256,uint256,uint256))": "0c2e075b",
			"adminUpdateNameAndSymbol(string,string)": "3935ac11",
			"balanceOf(address,uint256)": "00fdd58e",
			"balanceOfBatch(address[],uint256[])": "4e1273f4",
			"burn(address,uint256,uint256)": "f5298aca",
			"createPool(address,uint256,uint256,address)": "842980f4",
			"decimals()": "313ce567",
			"exists(uint256)": "4f558e79",
			"getCurrentOneMinusFeeBasedOnTrades(address)": "4c3c0eb2",
			"getInputTokensForExactTokens(address,address,uint256)": "c790985a",
			"getOutputExactTokensForTokens(address,address,uint256)": "48b08d62",
			"getPoolsByIds(uint256[])": "a6d8ad39",
			"getPoolsByTokens(address[])": "34e150ab",
			"getRoleAdmin(bytes32)": "248a9ca3",
			"getRoleMember(bytes32,uint256)": "9010d07c",
			"getRoleMemberCount(bytes32)": "ca15c873",
			"getTokenToPoolId(address)": "61417516",
			"getUtilsContractAtPos(uint256)": "06fb1a07",
			"grantRole(bytes32,address)": "2f2ff15d",
			"grantRolesBulk((bytes32,address)[])": "03ed957f",
			"hasRole(bytes32,address)": "91d14854",
			"increaseCerUsdCreditInPool(address,uint256)": "71858049",
			"isApprovedForAll(address,address)": "e985e9c5",
			"lowLevelSwap(address,uint256,uint256,address)": "5c41dbe0",
			"name()": "06fdde03",
			"removeTokenLiquidity(address,uint256,uint256,address)": "74fcf071",
			"renounceRole(bytes32,address)": "36568abe",
			"revokeRole(bytes32,address)": "d547741f",
			"safeBatchTransferFrom(address,address,uint256[],uint256[],bytes)": "2eb2c2d6",
			"safeTransferFrom(address,address,uint256,uint256,bytes)": "f242432a",
			"setApprovalForAll(address,bool)": "a22cb465",
			"settings()": "e06174e4",
			"skimPool(address)": "03d604bd",
			"supportsInterface(bytes4)": "01ffc9a7",
			"swapExactTokensForTokens(address,address,uint256,uint256,uint256,address)": "a60c6e55",
			"swapTokensForExactTokens(address,address,uint256,uint256,uint256,address)": "f6524724",
			"symbol()": "95d89b41",
			"syncTokenBalanceInPool(address)": "9bc731fc",
			"testInit()": "b5d11e99",
			"testSetupTokens(address,address,address,address,address)": "eca01093",
			"totalSupply()": "18160ddd",
			"totalSupply(uint256)": "bd85b039",
			"uri(uint256)": "0e89341c"
		}
	},
	"abi": [
		{
			"inputs": [],
			"stateMutability": "nonpayable",
			"type": "constructor"
		},
		{
			"inputs": [
				{
					"internalType": "address",
					"name": "account",
					"type": "address"
				},
				{
					"internalType": "bytes32",
					"name": "role",
					"type": "bytes32"
				}
			],
			"name": "AccountIsMissingRole",
			"type": "error"
		},
		{
			"inputs": [],
			"name": "CanOnlyRenounceRoleForSelf",
			"type": "error"
		},
		{
			"inputs": [],
			"name": "CerbyCronJobsExecution_TransactionsAreTemporarilyDisabled",
			"type": "error"
		},
		{
			"inputs": [],
			"name": "CerbySwapLP1155V1_CallerIsNotOwnerNorApproved",
			"type": "error"
		},
		{
			"inputs": [],
			"name": "CerbySwapLP1155V1_TransactionsAreTemporarilyDisabled",
			"type": "error"
		},
		{
			"inputs": [],
			"name": "CerbySwapV1_AmountOfCerUsdMustBeLargerThanOne",
			"type": "error"
		},
		{
			"inputs": [],
			"name": "CerbySwapV1_AmountOfCerUsdOrTokensInMustBeLargerThanOne",
			"type": "error"
		},
		{
			"inputs": [],
			"name": "CerbySwapV1_AmountOfTokensMustBeLargerThanOne",
			"type": "error"
		},
		{
			"inputs": [],
			"name": "CerbySwapV1_CreditCerUsdIsOverflown",
			"type": "error"
		},
		{
			"inputs": [],
			"name": "CerbySwapV1_CreditCerUsdMustNotBeBelowZero",
			"type": "error"
		},
		{
			"inputs": [],
			"name": "CerbySwapV1_FeeIsWrong",
			"type": "error"
		},
		{
			"inputs": [],
			"name": "CerbySwapV1_FeeOnTransferTokensArentSupported",
			"type": "error"
		},
		{
			"inputs": [],
			"name": "CerbySwapV1_InputCerUsdAmountIsLargerThanMaximumSpecified",
			"type": "error"
		},
		{
			"inputs": [],
			"name": "CerbySwapV1_InputTokensAmountIsLargerThanMaximumSpecified",
			"type": "error"
		},
		{
			"inputs": [],
			"name": "CerbySwapV1_InvariantKValueMustBeSameOrIncreasedOnAnySwaps",
			"type": "error"
		},
		{
			"inputs": [],
			"name": "CerbySwapV1_MintFeeMultiplierMustNotBeLargerThan50Percent",
			"type": "error"
		},
		{
			"inputs": [],
			"name": "CerbySwapV1_MsgValueProvidedMustBeLargerThanAmountIn",
			"type": "error"
		},
		{
			"inputs": [],
			"name": "CerbySwapV1_MsgValueProvidedMustBeZero",
			"type": "error"
		},
		{
			"inputs": [],
			"name": "CerbySwapV1_OutputCerUsdAmountIsLowerThanMinimumSpecified",
			"type": "error"
		},
		{
			"inputs": [],
			"name": "CerbySwapV1_OutputTokensAmountIsLowerThanMinimumSpecified",
			"type": "error"
		},
		{
			"inputs": [],
			"name": "CerbySwapV1_SafeTransferFromFailed",
			"type": "error"
		},
		{
			"inputs": [],
			"name": "CerbySwapV1_SafeTransferNativeFailed",
			"type": "error"
		},
		{
			"inputs": [],
			"name": "CerbySwapV1_SafeTransferTokensFailed",
			"type": "error"
		},
		{
			"inputs": [],
			"name": "CerbySwapV1_SwappingTokenToSameTokenIsForbidden",
			"type": "error"
		},
		{
			"inputs": [],
			"name": "CerbySwapV1_TokenAlreadyExists",
			"type": "error"
		},
		{
			"inputs": [],
			"name": "CerbySwapV1_TokenDoesNotExist",
			"type": "error"
		},
		{
			"inputs": [],
			"name": "CerbySwapV1_TransactionIsExpired",
			"type": "error"
		},
		{
			"inputs": [],
			"name": "CerbySwapV1_TvlMultiplierIsWrong",
			"type": "error"
		},
		{
			"inputs": [],
			"name": "ERC1155_AccountsAndIdsLengthMismatch",
			"type": "error"
		},
		{
			"inputs": [],
			"name": "ERC1155_BalanceQueryForTheZeroAddress",
			"type": "error"
		},
		{
			"inputs": [],
			"name": "ERC1155_BurnAmountExceedsBalance",
			"type": "error"
		},
		{
			"inputs": [],
			"name": "ERC1155_BurnFromZeroAddress",
			"type": "error"
		},
		{
			"inputs": [],
			"name": "ERC1155_ERC1155ReceiverRejectsTokens",
			"type": "error"
		},
		{
			"inputs": [],
			"name": "ERC1155_IdsAndAmountsLengthMismatch",
			"type": "error"
		},
		{
			"inputs": [],
			"name": "ERC1155_InsufficientBalanceForTransfer",
			"type": "error"
		},
		{
			"inputs": [],
			"name": "ERC1155_MintToZeroAddress",
			"type": "error"
		},
		{
			"inputs": [],
			"name": "ERC1155_SettingApprovalStatusForSelf",
			"type": "error"
		},
		{
			"inputs": [],
			"name": "ERC1155_TransferToNonERC1155ReceiverImplementer",
			"type": "error"
		},
		{
			"inputs": [],
			"name": "ERC1155_TransferToZeroAddress",
			"type": "error"
		},
		{
			"anonymous": false,
			"inputs": [
				{
					"indexed": true,
					"internalType": "address",
					"name": "account",
					"type": "address"
				},
				{
					"indexed": true,
					"internalType": "address",
					"name": "operator",
					"type": "address"
				},
				{
					"indexed": false,
					"internalType": "bool",
					"name": "approved",
					"type": "bool"
				}
			],
			"name": "ApprovalForAll",
			"type": "event"
		},
		{
			"anonymous": false,
			"inputs": [
				{
					"indexed": false,
					"internalType": "address",
					"name": "token",
					"type": "address"
				},
				{
					"indexed": false,
					"internalType": "uint256",
					"name": "amountTokensIn",
					"type": "uint256"
				},
				{
					"indexed": false,
					"internalType": "uint256",
					"name": "amountCerUsdToMint",
					"type": "uint256"
				},
				{
					"indexed": false,
					"internalType": "uint256",
					"name": "lpAmount",
					"type": "uint256"
				}
			],
			"name": "LiquidityAdded",
			"type": "event"
		},
		{
			"anonymous": false,
			"inputs": [
				{
					"indexed": false,
					"internalType": "address",
					"name": "token",
					"type": "address"
				},
				{
					"indexed": false,
					"internalType": "uint256",
					"name": "amountTokensOut",
					"type": "uint256"
				},
				{
					"indexed": false,
					"internalType": "uint256",
					"name": "amountCerUsdToBurn",
					"type": "uint256"
				},
				{
					"indexed": false,
					"internalType": "uint256",
					"name": "amountLpTokensBalanceToBurn",
					"type": "uint256"
				}
			],
			"name": "LiquidityRemoved",
			"type": "event"
		},
		{
			"anonymous": false,
			"inputs": [
				{
					"indexed": false,
					"internalType": "address",
					"name": "token",
					"type": "address"
				},
				{
					"indexed": false,
					"internalType": "uint256",
					"name": "poolId",
					"type": "uint256"
				}
			],
			"name": "PairCreated",
			"type": "event"
		},
		{
			"anonymous": false,
			"inputs": [
				{
					"indexed": true,
					"internalType": "bytes32",
					"name": "role",
					"type": "bytes32"
				},
				{
					"indexed": true,
					"internalType": "bytes32",
					"name": "previousAdminRole",
					"type": "bytes32"
				},
				{
					"indexed": true,
					"internalType": "bytes32",
					"name": "newAdminRole",
					"type": "bytes32"
				}
			],
			"name": "RoleAdminChanged",
			"type": "event"
		},
		{
			"anonymous": false,
			"inputs": [
				{
					"indexed": true,
					"internalType": "bytes32",
					"name": "role",
					"type": "bytes32"
				},
				{
					"indexed": true,
					"internalType": "address",
					"name": "account",
					"type": "address"
				},
				{
					"indexed": true,
					"internalType": "address",
					"name": "sender",
					"type": "address"
				}
			],
			"name": "RoleGranted",
			"type": "event"
		},
		{
			"anonymous": false,
			"inputs": [
				{
					"indexed": true,
					"internalType": "bytes32",
					"name": "role",
					"type": "bytes32"
				},
				{
					"indexed": true,
					"internalType": "address",
					"name": "account",
					"type": "address"
				},
				{
					"indexed": true,
					"internalType": "address",
					"name": "sender",
					"type": "address"
				}
			],
			"name": "RoleRevoked",
			"type": "event"
		},
		{
			"anonymous": false,
			"inputs": [
				{
					"indexed": false,
					"internalType": "address",
					"name": "token",
					"type": "address"
				},
				{
					"indexed": false,
					"internalType": "address",
					"name": "sender",
					"type": "address"
				},
				{
					"indexed": false,
					"internalType": "uint256",
					"name": "amountTokensIn",
					"type": "uint256"
				},
				{
					"indexed": false,
					"internalType": "uint256",
					"name": "amountCerUsdIn",
					"type": "uint256"
				},
				{
					"indexed": false,
					"internalType": "uint256",
					"name": "amountTokensOut",
					"type": "uint256"
				},
				{
					"indexed": false,
					"internalType": "uint256",
					"name": "amountCerUsdOut",
					"type": "uint256"
				},
				{
					"indexed": false,
					"internalType": "uint256",
					"name": "currentFee",
					"type": "uint256"
				},
				{
					"indexed": false,
					"internalType": "address",
					"name": "transferTo",
					"type": "address"
				}
			],
			"name": "Swap",
			"type": "event"
		},
		{
			"anonymous": false,
			"inputs": [
				{
					"indexed": false,
					"internalType": "address",
					"name": "token",
					"type": "address"
				},
				{
					"indexed": false,
					"internalType": "uint256",
					"name": "newBalanceToken",
					"type": "uint256"
				},
				{
					"indexed": false,
					"internalType": "uint256",
					"name": "newBalanceCerUsd",
					"type": "uint256"
				},
				{
					"indexed": false,
					"internalType": "uint256",
					"name": "newCreditCerUsd",
					"type": "uint256"
				}
			],
			"name": "Sync",
			"type": "event"
		},
		{
			"anonymous": false,
			"inputs": [
				{
					"indexed": true,
					"internalType": "address",
					"name": "operator",
					"type": "address"
				},
				{
					"indexed": true,
					"internalType": "address",
					"name": "from",
					"type": "address"
				},
				{
					"indexed": true,
					"internalType": "address",
					"name": "to",
					"type": "address"
				},
				{
					"indexed": false,
					"internalType": "uint256[]",
					"name": "ids",
					"type": "uint256[]"
				},
				{
					"indexed": false,
					"internalType": "uint256[]",
					"name": "values",
					"type": "uint256[]"
				}
			],
			"name": "TransferBatch",
			"type": "event"
		},
		{
			"anonymous": false,
			"inputs": [
				{
					"indexed": true,
					"internalType": "address",
					"name": "operator",
					"type": "address"
				},
				{
					"indexed": true,
					"internalType": "address",
					"name": "from",
					"type": "address"
				},
				{
					"indexed": true,
					"internalType": "address",
					"name": "to",
					"type": "address"
				},
				{
					"indexed": false,
					"internalType": "uint256",
					"name": "id",
					"type": "uint256"
				},
				{
					"indexed": false,
					"internalType": "uint256",
					"name": "value",
					"type": "uint256"
				}
			],
			"name": "TransferSingle",
			"type": "event"
		},
		{
			"anonymous": false,
			"inputs": [
				{
					"indexed": false,
					"internalType": "string",
					"name": "value",
					"type": "string"
				},
				{
					"indexed": true,
					"internalType": "uint256",
					"name": "id",
					"type": "uint256"
				}
			],
			"name": "URI",
			"type": "event"
		},
		{
			"inputs": [],
			"name": "ROLE_ADMIN",
			"outputs": [
				{
					"internalType": "bytes32",
					"name": "",
					"type": "bytes32"
				}
			],
			"stateMutability": "view",
			"type": "function"
		},
		{
			"inputs": [
				{
					"internalType": "address",
					"name": "token",
					"type": "address"
				},
				{
					"internalType": "uint256",
					"name": "amountTokensIn",
					"type": "uint256"
				},
				{
					"internalType": "uint256",
					"name": "expireTimestamp",
					"type": "uint256"
				},
				{
					"internalType": "address",
					"name": "transferTo",
					"type": "address"
				}
			],
			"name": "addTokenLiquidity",
			"outputs": [
				{
					"internalType": "uint256",
					"name": "",
					"type": "uint256"
				}
			],
			"stateMutability": "payable",
			"type": "function"
		},
		{
			"inputs": [
				{
					"internalType": "address",
					"name": "token",
					"type": "address"
				},
				{
					"internalType": "uint256",
					"name": "amountCerUsdCredit",
					"type": "uint256"
				}
			],
			"name": "adminChangeCerUsdCreditInPool",
			"outputs": [],
			"stateMutability": "nonpayable",
			"type": "function"
		},
		{
			"inputs": [
				{
					"internalType": "address",
					"name": "token",
					"type": "address"
				},
				{
					"internalType": "uint256",
					"name": "amountTokensIn",
					"type": "uint256"
				},
				{
					"internalType": "uint256",
					"name": "amountCerUsdToMint",
					"type": "uint256"
				},
				{
					"internalType": "address",
					"name": "transferTo",
					"type": "address"
				}
			],
			"name": "adminCreatePool",
			"outputs": [],
			"stateMutability": "payable",
			"type": "function"
		},
		{
			"inputs": [],
			"name": "adminInitialize",
			"outputs": [],
			"stateMutability": "payable",
			"type": "function"
		},
		{
			"inputs": [
				{
					"internalType": "string",
					"name": "newUrlPrefix",
					"type": "string"
				}
			],
			"name": "adminSetURI",
			"outputs": [],
			"stateMutability": "nonpayable",
			"type": "function"
		},
		{
			"inputs": [
				{
					"components": [
						{
							"internalType": "address",
							"name": "mintFeeBeneficiary",
							"type": "address"
						},
						{
							"internalType": "uint256",
							"name": "mintFeeMultiplier",
							"type": "uint256"
						},
						{
							"internalType": "uint256",
							"name": "feeMinimum",
							"type": "uint256"
						},
						{
							"internalType": "uint256",
							"name": "feeMaximum",
							"type": "uint256"
						},
						{
							"internalType": "uint256",
							"name": "tvlMultiplierMinimum",
							"type": "uint256"
						},
						{
							"internalType": "uint256",
							"name": "tvlMultiplierMaximum",
							"type": "uint256"
						}
					],
					"internalType": "struct CerbySwapV1.Settings",
					"name": "_settings",
					"type": "tuple"
				}
			],
			"name": "adminUpdateFeesAndTvlMultipliers",
			"outputs": [],
			"stateMutability": "nonpayable",
			"type": "function"
		},
		{
			"inputs": [
				{
					"internalType": "string",
					"name": "newName",
					"type": "string"
				},
				{
					"internalType": "string",
					"name": "newSymbol",
					"type": "string"
				}
			],
			"name": "adminUpdateNameAndSymbol",
			"outputs": [],
			"stateMutability": "nonpayable",
			"type": "function"
		},
		{
			"inputs": [
				{
					"internalType": "address",
					"name": "account",
					"type": "address"
				},
				{
					"internalType": "uint256",
					"name": "id",
					"type": "uint256"
				}
			],
			"name": "balanceOf",
			"outputs": [
				{
					"internalType": "uint256",
					"name": "",
					"type": "uint256"
				}
			],
			"stateMutability": "view",
			"type": "function"
		},
		{
			"inputs": [
				{
					"internalType": "address[]",
					"name": "accounts",
					"type": "address[]"
				},
				{
					"internalType": "uint256[]",
					"name": "ids",
					"type": "uint256[]"
				}
			],
			"name": "balanceOfBatch",
			"outputs": [
				{
					"internalType": "uint256[]",
					"name": "",
					"type": "uint256[]"
				}
			],
			"stateMutability": "view",
			"type": "function"
		},
		{
			"inputs": [
				{
					"internalType": "address",
					"name": "account",
					"type": "address"
				},
				{
					"internalType": "uint256",
					"name": "id",
					"type": "uint256"
				},
				{
					"internalType": "uint256",
					"name": "value",
					"type": "uint256"
				}
			],
			"name": "burn",
			"outputs": [],
			"stateMutability": "nonpayable",
			"type": "function"
		},
		{
			"inputs": [
				{
					"internalType": "address",
					"name": "token",
					"type": "address"
				},
				{
					"internalType": "uint256",
					"name": "amountTokensIn",
					"type": "uint256"
				},
				{
					"internalType": "uint256",
					"name": "amountCerUsdToMint",
					"type": "uint256"
				},
				{
					"internalType": "address",
					"name": "transferTo",
					"type": "address"
				}
			],
			"name": "createPool",
			"outputs": [],
			"stateMutability": "payable",
			"type": "function"
		},
		{
			"inputs": [],
			"name": "decimals",
			"outputs": [
				{
					"internalType": "uint256",
					"name": "",
					"type": "uint256"
				}
			],
			"stateMutability": "pure",
			"type": "function"
		},
		{
			"inputs": [
				{
					"internalType": "uint256",
					"name": "id",
					"type": "uint256"
				}
			],
			"name": "exists",
			"outputs": [
				{
					"internalType": "bool",
					"name": "",
					"type": "bool"
				}
			],
			"stateMutability": "view",
			"type": "function"
		},
		{
			"inputs": [
				{
					"internalType": "address",
					"name": "token",
					"type": "address"
				}
			],
			"name": "getCurrentOneMinusFeeBasedOnTrades",
			"outputs": [
				{
					"internalType": "uint256",
					"name": "fee",
					"type": "uint256"
				}
			],
			"stateMutability": "view",
			"type": "function"
		},
		{
			"inputs": [
				{
					"internalType": "address",
					"name": "tokenIn",
					"type": "address"
				},
				{
					"internalType": "address",
					"name": "tokenOut",
					"type": "address"
				},
				{
					"internalType": "uint256",
					"name": "amountTokensOut",
					"type": "uint256"
				}
			],
			"name": "getInputTokensForExactTokens",
			"outputs": [
				{
					"internalType": "uint256",
					"name": "amountTokensIn",
					"type": "uint256"
				}
			],
			"stateMutability": "view",
			"type": "function"
		},
		{
			"inputs": [
				{
					"internalType": "address",
					"name": "tokenIn",
					"type": "address"
				},
				{
					"internalType": "address",
					"name": "tokenOut",
					"type": "address"
				},
				{
					"internalType": "uint256",
					"name": "amountTokensIn",
					"type": "uint256"
				}
			],
			"name": "getOutputExactTokensForTokens",
			"outputs": [
				{
					"internalType": "uint256",
					"name": "amountTokensOut",
					"type": "uint256"
				}
			],
			"stateMutability": "view",
			"type": "function"
		},
		{
			"inputs": [
				{
					"internalType": "uint256[]",
					"name": "ids",
					"type": "uint256[]"
				}
			],
			"name": "getPoolsByIds",
			"outputs": [
				{
					"components": [
						{
							"internalType": "uint32[8]",
							"name": "tradeVolumePerPeriodInCerUsd",
							"type": "uint32[8]"
						},
						{
							"internalType": "uint128",
							"name": "balanceToken",
							"type": "uint128"
						},
						{
							"internalType": "uint128",
							"name": "balanceCerUsd",
							"type": "uint128"
						},
						{
							"internalType": "uint128",
							"name": "lastSqrtKValue",
							"type": "uint128"
						},
						{
							"internalType": "uint256",
							"name": "creditCerUsd",
							"type": "uint256"
						}
					],
					"internalType": "struct CerbySwapV1.Pool[]",
					"name": "",
					"type": "tuple[]"
				}
			],
			"stateMutability": "view",
			"type": "function"
		},
		{
			"inputs": [
				{
					"internalType": "address[]",
					"name": "tokens",
					"type": "address[]"
				}
			],
			"name": "getPoolsByTokens",
			"outputs": [
				{
					"components": [
						{
							"internalType": "uint32[8]",
							"name": "tradeVolumePerPeriodInCerUsd",
							"type": "uint32[8]"
						},
						{
							"internalType": "uint128",
							"name": "balanceToken",
							"type": "uint128"
						},
						{
							"internalType": "uint128",
							"name": "balanceCerUsd",
							"type": "uint128"
						},
						{
							"internalType": "uint128",
							"name": "lastSqrtKValue",
							"type": "uint128"
						},
						{
							"internalType": "uint256",
							"name": "creditCerUsd",
							"type": "uint256"
						}
					],
					"internalType": "struct CerbySwapV1.Pool[]",
					"name": "",
					"type": "tuple[]"
				}
			],
			"stateMutability": "view",
			"type": "function"
		},
		{
			"inputs": [
				{
					"internalType": "bytes32",
					"name": "role",
					"type": "bytes32"
				}
			],
			"name": "getRoleAdmin",
			"outputs": [
				{
					"internalType": "bytes32",
					"name": "",
					"type": "bytes32"
				}
			],
			"stateMutability": "view",
			"type": "function"
		},
		{
			"inputs": [
				{
					"internalType": "bytes32",
					"name": "role",
					"type": "bytes32"
				},
				{
					"internalType": "uint256",
					"name": "index",
					"type": "uint256"
				}
			],
			"name": "getRoleMember",
			"outputs": [
				{
					"internalType": "address",
					"name": "",
					"type": "address"
				}
			],
			"stateMutability": "view",
			"type": "function"
		},
		{
			"inputs": [
				{
					"internalType": "bytes32",
					"name": "role",
					"type": "bytes32"
				}
			],
			"name": "getRoleMemberCount",
			"outputs": [
				{
					"internalType": "uint256",
					"name": "",
					"type": "uint256"
				}
			],
			"stateMutability": "view",
			"type": "function"
		},
		{
			"inputs": [
				{
					"internalType": "address",
					"name": "token",
					"type": "address"
				}
			],
			"name": "getTokenToPoolId",
			"outputs": [
				{
					"internalType": "uint256",
					"name": "",
					"type": "uint256"
				}
			],
			"stateMutability": "view",
			"type": "function"
		},
		{
			"inputs": [
				{
					"internalType": "uint256",
					"name": "pos",
					"type": "uint256"
				}
			],
			"name": "getUtilsContractAtPos",
			"outputs": [
				{
					"internalType": "address",
					"name": "",
					"type": "address"
				}
			],
			"stateMutability": "view",
			"type": "function"
		},
		{
			"inputs": [
				{
					"internalType": "bytes32",
					"name": "role",
					"type": "bytes32"
				},
				{
					"internalType": "address",
					"name": "account",
					"type": "address"
				}
			],
			"name": "grantRole",
			"outputs": [],
			"stateMutability": "nonpayable",
			"type": "function"
		},
		{
			"inputs": [
				{
					"components": [
						{
							"internalType": "bytes32",
							"name": "role",
							"type": "bytes32"
						},
						{
							"internalType": "address",
							"name": "addr",
							"type": "address"
						}
					],
					"internalType": "struct RoleAccess[]",
					"name": "roles",
					"type": "tuple[]"
				}
			],
			"name": "grantRolesBulk",
			"outputs": [],
			"stateMutability": "nonpayable",
			"type": "function"
		},
		{
			"inputs": [
				{
					"internalType": "bytes32",
					"name": "role",
					"type": "bytes32"
				},
				{
					"internalType": "address",
					"name": "account",
					"type": "address"
				}
			],
			"name": "hasRole",
			"outputs": [
				{
					"internalType": "bool",
					"name": "",
					"type": "bool"
				}
			],
			"stateMutability": "view",
			"type": "function"
		},
		{
			"inputs": [
				{
					"internalType": "address",
					"name": "token",
					"type": "address"
				},
				{
					"internalType": "uint256",
					"name": "amountCerUsdCredit",
					"type": "uint256"
				}
			],
			"name": "increaseCerUsdCreditInPool",
			"outputs": [],
			"stateMutability": "nonpayable",
			"type": "function"
		},
		{
			"inputs": [
				{
					"internalType": "address",
					"name": "account",
					"type": "address"
				},
				{
					"internalType": "address",
					"name": "operator",
					"type": "address"
				}
			],
			"name": "isApprovedForAll",
			"outputs": [
				{
					"internalType": "bool",
					"name": "",
					"type": "bool"
				}
			],
			"stateMutability": "view",
			"type": "function"
		},
		{
			"inputs": [
				{
					"internalType": "address",
					"name": "token",
					"type": "address"
				},
				{
					"internalType": "uint256",
					"name": "amountTokensOut",
					"type": "uint256"
				},
				{
					"internalType": "uint256",
					"name": "amountCerUsdOut",
					"type": "uint256"
				},
				{
					"internalType": "address",
					"name": "transferTo",
					"type": "address"
				}
			],
			"name": "lowLevelSwap",
			"outputs": [],
			"stateMutability": "payable",
			"type": "function"
		},
		{
			"inputs": [],
			"name": "name",
			"outputs": [
				{
					"internalType": "string",
					"name": "",
					"type": "string"
				}
			],
			"stateMutability": "view",
			"type": "function"
		},
		{
			"inputs": [
				{
					"internalType": "address",
					"name": "token",
					"type": "address"
				},
				{
					"internalType": "uint256",
					"name": "amountLpTokensBalanceToBurn",
					"type": "uint256"
				},
				{
					"internalType": "uint256",
					"name": "expireTimestamp",
					"type": "uint256"
				},
				{
					"internalType": "address",
					"name": "transferTo",
					"type": "address"
				}
			],
			"name": "removeTokenLiquidity",
			"outputs": [
				{
					"internalType": "uint256",
					"name": "",
					"type": "uint256"
				}
			],
			"stateMutability": "nonpayable",
			"type": "function"
		},
		{
			"inputs": [
				{
					"internalType": "bytes32",
					"name": "role",
					"type": "bytes32"
				},
				{
					"internalType": "address",
					"name": "account",
					"type": "address"
				}
			],
			"name": "renounceRole",
			"outputs": [],
			"stateMutability": "nonpayable",
			"type": "function"
		},
		{
			"inputs": [
				{
					"internalType": "bytes32",
					"name": "role",
					"type": "bytes32"
				},
				{
					"internalType": "address",
					"name": "account",
					"type": "address"
				}
			],
			"name": "revokeRole",
			"outputs": [],
			"stateMutability": "nonpayable",
			"type": "function"
		},
		{
			"inputs": [
				{
					"internalType": "address",
					"name": "from",
					"type": "address"
				},
				{
					"internalType": "address",
					"name": "to",
					"type": "address"
				},
				{
					"internalType": "uint256[]",
					"name": "ids",
					"type": "uint256[]"
				},
				{
					"internalType": "uint256[]",
					"name": "amounts",
					"type": "uint256[]"
				},
				{
					"internalType": "bytes",
					"name": "data",
					"type": "bytes"
				}
			],
			"name": "safeBatchTransferFrom",
			"outputs": [],
			"stateMutability": "nonpayable",
			"type": "function"
		},
		{
			"inputs": [
				{
					"internalType": "address",
					"name": "from",
					"type": "address"
				},
				{
					"internalType": "address",
					"name": "to",
					"type": "address"
				},
				{
					"internalType": "uint256",
					"name": "id",
					"type": "uint256"
				},
				{
					"internalType": "uint256",
					"name": "amount",
					"type": "uint256"
				},
				{
					"internalType": "bytes",
					"name": "data",
					"type": "bytes"
				}
			],
			"name": "safeTransferFrom",
			"outputs": [],
			"stateMutability": "nonpayable",
			"type": "function"
		},
		{
			"inputs": [
				{
					"internalType": "address",
					"name": "operator",
					"type": "address"
				},
				{
					"internalType": "bool",
					"name": "approved",
					"type": "bool"
				}
			],
			"name": "setApprovalForAll",
			"outputs": [],
			"stateMutability": "nonpayable",
			"type": "function"
		},
		{
			"inputs": [],
			"name": "settings",
			"outputs": [
				{
					"internalType": "address",
					"name": "mintFeeBeneficiary",
					"type": "address"
				},
				{
					"internalType": "uint256",
					"name": "mintFeeMultiplier",
					"type": "uint256"
				},
				{
					"internalType": "uint256",
					"name": "feeMinimum",
					"type": "uint256"
				},
				{
					"internalType": "uint256",
					"name": "feeMaximum",
					"type": "uint256"
				},
				{
					"internalType": "uint256",
					"name": "tvlMultiplierMinimum",
					"type": "uint256"
				},
				{
					"internalType": "uint256",
					"name": "tvlMultiplierMaximum",
					"type": "uint256"
				}
			],
			"stateMutability": "view",
			"type": "function"
		},
		{
			"inputs": [
				{
					"internalType": "address",
					"name": "token",
					"type": "address"
				}
			],
			"name": "skimPool",
			"outputs": [],
			"stateMutability": "nonpayable",
			"type": "function"
		},
		{
			"inputs": [
				{
					"internalType": "bytes4",
					"name": "interfaceId",
					"type": "bytes4"
				}
			],
			"name": "supportsInterface",
			"outputs": [
				{
					"internalType": "bool",
					"name": "",
					"type": "bool"
				}
			],
			"stateMutability": "view",
			"type": "function"
		},
		{
			"inputs": [
				{
					"internalType": "address",
					"name": "tokenIn",
					"type": "address"
				},
				{
					"internalType": "address",
					"name": "tokenOut",
					"type": "address"
				},
				{
					"internalType": "uint256",
					"name": "amountTokensIn",
					"type": "uint256"
				},
				{
					"internalType": "uint256",
					"name": "minAmountTokensOut",
					"type": "uint256"
				},
				{
					"internalType": "uint256",
					"name": "expireTimestamp",
					"type": "uint256"
				},
				{
					"internalType": "address",
					"name": "transferTo",
					"type": "address"
				}
			],
			"name": "swapExactTokensForTokens",
			"outputs": [
				{
					"internalType": "uint256",
					"name": "",
					"type": "uint256"
				},
				{
					"internalType": "uint256",
					"name": "",
					"type": "uint256"
				}
			],
			"stateMutability": "payable",
			"type": "function"
		},
		{
			"inputs": [
				{
					"internalType": "address",
					"name": "tokenIn",
					"type": "address"
				},
				{
					"internalType": "address",
					"name": "tokenOut",
					"type": "address"
				},
				{
					"internalType": "uint256",
					"name": "amountTokensOut",
					"type": "uint256"
				},
				{
					"internalType": "uint256",
					"name": "maxAmountTokensIn",
					"type": "uint256"
				},
				{
					"internalType": "uint256",
					"name": "expireTimestamp",
					"type": "uint256"
				},
				{
					"internalType": "address",
					"name": "transferTo",
					"type": "address"
				}
			],
			"name": "swapTokensForExactTokens",
			"outputs": [
				{
					"internalType": "uint256",
					"name": "",
					"type": "uint256"
				},
				{
					"internalType": "uint256",
					"name": "",
					"type": "uint256"
				}
			],
			"stateMutability": "payable",
			"type": "function"
		},
		{
			"inputs": [],
			"name": "symbol",
			"outputs": [
				{
					"internalType": "string",
					"name": "",
					"type": "string"
				}
			],
			"stateMutability": "view",
			"type": "function"
		},
		{
			"inputs": [
				{
					"internalType": "address",
					"name": "token",
					"type": "address"
				}
			],
			"name": "syncTokenBalanceInPool",
			"outputs": [],
			"stateMutability": "nonpayable",
			"type": "function"
		},
		{
			"inputs": [],
			"name": "testInit",
			"outputs": [],
			"stateMutability": "nonpayable",
			"type": "function"
		},
		{
			"inputs": [
				{
					"internalType": "address",
					"name": "",
					"type": "address"
				},
				{
					"internalType": "address",
					"name": "_testCerbyToken",
					"type": "address"
				},
				{
					"internalType": "address",
					"name": "_cerUsdToken",
					"type": "address"
				},
				{
					"internalType": "address",
					"name": "_testUsdcToken",
					"type": "address"
				},
				{
					"internalType": "address",
					"name": "",
					"type": "address"
				}
			],
			"name": "testSetupTokens",
			"outputs": [],
			"stateMutability": "nonpayable",
			"type": "function"
		},
		{
			"inputs": [],
			"name": "totalSupply",
			"outputs": [
				{
					"internalType": "uint256",
					"name": "",
					"type": "uint256"
				}
			],
			"stateMutability": "view",
			"type": "function"
		},
		{
			"inputs": [
				{
					"internalType": "uint256",
					"name": "id",
					"type": "uint256"
				}
			],
			"name": "totalSupply",
			"outputs": [
				{
					"internalType": "uint256",
					"name": "",
					"type": "uint256"
				}
			],
			"stateMutability": "view",
			"type": "function"
		},
		{
			"inputs": [
				{
					"internalType": "uint256",
					"name": "id",
					"type": "uint256"
				}
			],
			"name": "uri",
			"outputs": [
				{
					"internalType": "string",
					"name": "",
					"type": "string"
				}
			],
			"stateMutability": "view",
			"type": "function"
		},
		{
			"stateMutability": "payable",
			"type": "receive"
		}
	]
}