{
	"data": {
		"bytecode": {
			"linkReferences": {},
			"object": "6080604052600580546001600160a01b031990811673370a4ba20191804aeeab8eb39e3ea83d77feb68d17909155600680548216732c4fe51d1ad5b88cd2cc2f45ad1c0c857f06225e17905560078054821673f3b07f8167b665ba3e2dd29c661dee3a1da2380a179055600880548216732a5e269bf364e347942c464a999d8c8ac2e6ce94179055600a805490911661dead179055348015620000a157600080fd5b50620000af60003362000133565b600a80546001600160a01b03191633179055613039461415620000e657600980546001600160a01b03191661dead17905562000107565b46620181cd14156200010757600980546001600160a01b03191661dead1790555b600980546001600160a01b0319167314769f96e57b80c66837701de0b43686fb4632de17905562000298565b6200013f828262000143565b5050565b6200015a82826200018660201b620024c41760201c565b6000828152600160209081526040909120620001819183906200254862000226821b17901c565b505050565b6000828152602081815260408083206001600160a01b038516845290915290205460ff166200013f576000828152602081815260408083206001600160a01b03851684529091529020805460ff19166001179055620001e23390565b6001600160a01b0316816001600160a01b0316837f2f8788117e7eff1d82e926ec794901d17c78024a50270940304540a733656f0d60405160405180910390a45050565b60006200023d836001600160a01b03841662000246565b90505b92915050565b60008181526001830160205260408120546200028f5750815460018181018455600084815260208082209093018490558454848252828601909352604090209190915562000240565b50600062000240565b6150c180620002a86000396000f3fe6080604052600436106102465760003560e01c806391d1485411610139578063ca15c873116100b6578063d547741f1161007a578063d547741f146106da578063d5d60737146106fa578063e07bf7ad1461071a578063ebda953114610744578063eca0109314610764578063f6524724146107de57600080fd5b8063ca15c87314610652578063cd01a60a14610672578063cf8ae86414610692578063d01350bd146106a5578063d391014b146106c557600080fd5b8063a8d68366116100fd578063a8d68366146105dd578063aaa10dd2146105f0578063b771e42514610587578063bbadc03b14610610578063c09c923b1461063d57600080fd5b806391d14854146105325780639bc731fc14610552578063a465626f14610572578063a47ba4fa14610587578063a60c6e55146105bd57600080fd5b80632f2ff15d116101c75780637b4b233c1161018b5780637b4b233c146104925780638d6d61d9146104b25780639010d07c146104d25780639035620b146104f25780639162ebf01461051257600080fd5b80632f2ff15d146103fc57806336568abe1461041c5780635e6104b11461043c5780636853ac261461045f5780636fba344d1461047f57600080fd5b8063121fb9bc1161020e578063121fb9bc14610356578063186efad914610369578063195df43e146103995780632375dabc146103ac578063248a9ca3146103cc57600080fd5b806301ffc9a71461024b5780630369679e1461029157806303ed957f146102bf57806306edd763146102e157806306fb1a071461031e575b600080fd5b34801561025757600080fd5b5061027c6102663660046149be565b6001600160e01b0319166301ffc9a760e01b1490565b60405190151581526020015b60405180910390f35b34801561029d57600080fd5b506102b16102ac3660046149fd565b6107fe565b604051908152602001610288565b3480156102cb57600080fd5b506102df6102da366004614a3f565b61088c565b005b3480156102ed57600080fd5b506102df6102fc366004614ab4565b600a80546001600160a01b0319166001600160a01b0392909216919091179055565b34801561032a57600080fd5b5061033e610339366004614ad1565b610909565b6040516001600160a01b039091168152602001610288565b6102df610364366004614ab4565b610986565b34801561037557600080fd5b5061037e610a05565b60408051938452602084019290925290820152606001610288565b6102b16103a7366004614aea565b610b59565b3480156103b857600080fd5b506102b16103c7366004614b40565b610ccb565b3480156103d857600080fd5b506102b16103e7366004614ad1565b60009081526020819052604090206001015490565b34801561040857600080fd5b506102df610417366004614b62565b610d51565b34801561042857600080fd5b506102df610437366004614b62565b610d7c565b34801561044857600080fd5b50610451610df6565b604051610288929190614c04565b34801561046b57600080fd5b506102b161047a366004614ad1565b610fe2565b6102b161048d366004614c21565b61119a565b34801561049e57600080fd5b50600a5461033e906001600160a01b031681565b3480156104be57600080fd5b506102df6104cd3660046149fd565b6112d4565b3480156104de57600080fd5b5061033e6104ed366004614b40565b6112e0565b3480156104fe57600080fd5b506102b161050d366004614b40565b6112f8565b34801561051e57600080fd5b506102b161052d366004614ab4565b611378565b34801561053e57600080fd5b5061027c61054d366004614b62565b61139a565b34801561055e57600080fd5b506102df61056d366004614ab4565b6113c3565b34801561057e57600080fd5b506102b1611566565b34801561059357600080fd5b506102b16105a2366004614ab4565b6001600160a01b031660009081526003602052604090205490565b3480156105c957600080fd5b506102b16105d8366004614c6b565b611585565b6102b16105eb366004614c21565b61164e565b3480156105fc57600080fd5b506102df61060b366004614b62565b61182c565b34801561061c57600080fd5b5061063061062b366004614ab4565b6118dd565b6040516102889190614cd2565b34801561064957600080fd5b506102df6119df565b34801561065e57600080fd5b506102b161066d366004614ad1565b611bd3565b34801561067e57600080fd5b506102b161068d366004614b40565b611bea565b6102b16106a0366004614aea565b611c69565b3480156106b157600080fd5b506106306106c0366004614ad1565b611dd8565b3480156106d157600080fd5b506102b1600081565b3480156106e657600080fd5b506102df6106f5366004614b62565b611df3565b34801561070657600080fd5b506102df610715366004614c21565b611e19565b34801561072657600080fd5b5061072f61223e565b60408051928352602083019190915201610288565b34801561075057600080fd5b506102b161075f366004614b40565b612388565b34801561077057600080fd5b506102df61077f366004614ce1565b600580546001600160a01b03199081166001600160a01b03978816179091556006805482169587169590951790945560078054851693861693909317909255600880548416918516919091179055600980549092169216919091179055565b3480156107ea57600080fd5b506102b16107f9366004614c6b565b612408565b6001600160a01b03831660009081526003602052604081205484901580159061083557506007546001600160a01b03828116911614155b604051806040016040528060018152602001602760f91b815250906108765760405162461bcd60e51b815260040161086d9190614d9c565b60405180910390fd5b506108833386868661255d565b95945050505050565b60006108988133612d27565b60005b82811015610903576108f18484838181106108b8576108b8614daf565b905060400201600001358585848181106108d4576108d4614daf565b90506040020160200160208101906108ec9190614ab4565b612d8b565b806108fb81614ddb565b91505061089b565b50505050565b6040516306fb1a0760e01b81526004810182905260009073def1fac7bf08f173d286bbbdcbeeade695129840906306fb1a0790602401602060405180830381865afa15801561095c573d6000803e3d6000fd5b505050506040513d601f19601f820116820180604052508101906109809190614df6565b92915050565b60095460408051630d0e30db60e41b8152905134926001600160a01b03169163d0e30db091849160048082019260009290919082900301818588803b1580156109ce57600080fd5b505af11580156109e2573d6000803e3d6000fd5b5050600954610a0193503092506001600160a01b031690508385612d95565b5050565b6006546040516370a0823160e01b8152306004820152600091829182916001600160a01b0316906370a0823190602401602060405180830381865afa158015610a52573d6000803e3d6000fd5b505050506040513d601f19601f82011682018060405250810190610a769190614e13565b6008546040516370a0823160e01b81523060048201526001600160a01b03909116906370a0823190602401602060405180830381865afa158015610abe573d6000803e3d6000fd5b505050506040513d601f19601f82011682018060405250810190610ae29190614e13565b6007546040516370a0823160e01b81523060048201526001600160a01b03909116906370a0823190602401602060405180830381865afa158015610b2a573d6000803e3d6000fd5b505050506040513d601f19601f82011682018060405250810190610b4e9190614e13565b925092509250909192565b6009546001600160a01b031660008181526003602052604081205490919015801590610b9357506007546001600160a01b03828116911614155b604051806040016040528060018152602001602760f91b81525090610bcb5760405162461bcd60e51b815260040161086d9190614d9c565b508380421115604051806040016040528060018152602001601560fa1b81525090610c095760405162461bcd60e51b815260040161086d9190614d9c565b50600954600090610c299030908b906001600160a01b03168b8b8a613416565b600954604051632e1a7d4d60e01b8152600481018390529192506001600160a01b031690632e1a7d4d90602401600060405180830381600087803b158015610c7057600080fd5b505af1158015610c84573d6000803e3d6000fd5b50506040516001600160a01b038816925083156108fc02915083906000818181858888f19350505050158015610cbe573d6000803e3d6000fd5b5098975050505050505050565b6000610d4a8260028581548110610ce457610ce4614daf565b6000918252602090912060016004909202010154600280546001600160701b039092169187908110610d1857610d18614daf565b6000918252602090912060049091020160010154600160701b90046001600160701b0316610d4587610fe2565b6134e3565b9392505050565b600082815260208190526040902060010154610d6d8133612d27565b610d778383613530565b505050565b6001600160a01b0381163314610dec5760405162461bcd60e51b815260206004820152602f60248201527f416363657373436f6e74726f6c3a2063616e206f6e6c792072656e6f756e636560448201526e103937b632b9903337b91039b2b63360891b606482015260840161086d565b610a018282613552565b610dfe6148b9565b610e066148b9565b6006546001600160a01b039081166000908152600360205260408082205460085490931682529020546002805483908110610e4357610e43614daf565b906000526020600020906004020160028281548110610e6457610e64614daf565b60009182526020918290206040805160a08101825285546001600160a01b0316815260018601546001600160701b0380821696830196909652600160701b900485168183015260028601549094166060850152805161010081019091526004909202019190839060808301906003830160088282826020028201916000905b82829054906101000a900463ffffffff1663ffffffff1681526020019060040190602082600301049283019260010382029150808411610ee3575050509290935250506040805160a08101825285546001600160a01b0316815260018601546001600160701b038082166020840152600160701b9091048116828401526002870154166060820152815161010081019283905294965093859350608085019250906003840190600890826000855b82829054906101000a900463ffffffff1663ffffffff1681526020019060040190602082600301049283019260010382029150808411610f9157905050505050508152505090509350935050509091565b600080610fed611566565b905060006008610ffe836001614e2c565b6110089190614e5a565b90506000805b60088110156110a5578381148061102457508281145b1561102e57611093565b6002868154811061104157611041614daf565b9060005260206000209060040201600301816008811061106357611063614daf565b600891828204019190066004029054906101000a900463ffffffff1663ffffffff16826110909190614e2c565b91505b8061109d81614ddb565b91505061100e565b5060006110ba82670de0b6b3a7640000614e6e565b6110c6906103e8614e6e565b90506000600287815481106110dd576110dd614daf565b600091825260209091206004909102016001015461110c90600160701b90046001600160701b03166002614e8d565b611117906096614e8d565b6001600160701b03169050808211611133576126ac9550611190565b818110801561114b5750611148816064614e6e565b82105b15611178578061115b8184614ebc565b6111659190614ed3565b611171906126ac614e2c565b9550611190565b611183816064614e6e565b8211156111905761270f95505b5050505050919050565b6009546001600160a01b0316600081815260036020526040812054909190158015906111d457506007546001600160a01b03828116911614155b604051806040016040528060018152602001602760f91b8152509061120c5760405162461bcd60e51b815260040161086d9190614d9c565b508380421115604051806040016040528060018152602001601560fa1b8152509061124a5760405162461bcd60e51b815260040161086d9190614d9c565b5060095460408051630d0e30db60e41b8152905134926001600160a01b03169163d0e30db091849160048082019260009290919082900301818588803b15801561129357600080fd5b505af11580156112a7573d6000803e3d6000fd5b50506009546112c893503092506001600160a01b031690508a848b8a613416565b98975050505050505050565b610d7733848484612d95565b6000828152600160205260408120610d4a9083613574565b6000610d4a826002858154811061131157611311614daf565b9060005260206000209060040201600101600e9054906101000a90046001600160701b03166001600160701b03166002868154811061135257611352614daf565b60009182526020909120600160049092020101546001600160701b0316610d4587610fe2565b6001600160a01b03811660009081526003602052604081205461098090610fe2565b6000918252602082815260408084206001600160a01b0393909316845291905290205460ff1690565b6001600160a01b0381166000908152600360205260409020548190158015906113fa57506007546001600160a01b03828116911614155b604051806040016040528060018152602001602760f91b815250906114325760405162461bcd60e51b815260040161086d9190614d9c565b506001600160a01b038216600081815260036020526040908190205490516370a0823160e01b81523060048201529091906370a0823190602401602060405180830381865afa158015611489573d6000803e3d6000fd5b505050506040513d601f19601f820116820180604052508101906114ad9190614e13565b600282815481106114c0576114c0614daf565b6000918252602090912060049182020160010180546001600160701b0319166001600160701b0393909316929092179091556007546040516370a0823160e01b815230928101929092526001600160a01b0316906370a0823190602401602060405180830381865afa15801561153a573d6000803e3d6000fd5b505050506040513d601f19601f8201168201806040525081019061155e9190614e13565b600455505050565b6000600861157661384042614ed3565b6115809190614e5a565b905090565b6001600160a01b0386166000908152600360205260408120548790158015906115bc57506007546001600160a01b03828116911614155b604051806040016040528060018152602001602760f91b815250906115f45760405162461bcd60e51b815260040161086d9190614d9c565b508380421115604051806040016040528060018152602001601560fa1b815250906116325760405162461bcd60e51b815260040161086d9190614d9c565b50611641338a8a8a8a89613416565b9998505050505050505050565b6009546001600160a01b03166000818152600360205260408120549091901580159061168857506007546001600160a01b03828116911614155b604051806040016040528060018152602001602760f91b815250906116c05760405162461bcd60e51b815260040161086d9190614d9c565b508380421115604051806040016040528060018152602001601560fa1b815250906116fe5760405162461bcd60e51b815260040161086d9190614d9c565b5060095460408051630d0e30db60e41b8152905134926001600160a01b03169163d0e30db091849160048082019260009290919082900301818588803b15801561174757600080fd5b505af115801561175b573d6000803e3d6000fd5b505060095461177c93503092506001600160a01b031690508a848b8a613580565b5060006117898883614ebc565b600954604051632e1a7d4d60e01b8152600481018390529192506001600160a01b031690632e1a7d4d90602401600060405180830381600087803b1580156117d057600080fd5b505af11580156117e4573d6000803e3d6000fd5b50506040516001600160a01b038916925083156108fc02915083906000818181858888f1935050505015801561181e573d6000803e3d6000fd5b509698975050505050505050565b6009546000906118489033906001600160a01b0316853061255d565b600954604051632e1a7d4d60e01b8152600481018390529192506001600160a01b031690632e1a7d4d90602401600060405180830381600087803b15801561188f57600080fd5b505af11580156118a3573d6000803e3d6000fd5b50506040516001600160a01b038516925083156108fc02915083906000818181858888f19350505050158015610903573d6000803e3d6000fd5b6118e56148b9565b6001600160a01b03821660009081526003602052604090205460028054909190811061191357611913614daf565b60009182526020918290206040805160a081018252600490930290910180546001600160a01b0316835260018101546001600160701b0380821695850195909552600160701b9004841683830152600281015490931660608301528051610100810190915290919060808301906003830160088282826020028201916000905b82829054906101000a900463ffffffff1663ffffffff16815260200190600401906020826003010492830192600103820291508084116119935790505050505050815250509050919050565b600a546040805180820190915260018152604160f81b602082015290600160a01b900460ff1615611a235760405162461bcd60e51b815260040161086d9190614d9c565b50600a805460ff60a01b1916600160a01b179055611a3f6148ee565b6040805160a081018252600080825260208201818152928201818152606083018281526080840186815260028054600181018255945284517f405787fa12a823e0f2b7631cc41b3ba8828b3321ca811111fa75cd3aa3bb5ace600490950294850180546001600160a01b0319166001600160a01b0390921691909117815595517f405787fa12a823e0f2b7631cc41b3ba8828b3321ca811111fa75cd3aa3bb5acf8501805494516001600160701b039283166001600160e01b031990961695909517600160701b958316959095029490941790935590517f405787fa12a823e0f2b7631cc41b3ba8828b3321ca811111fa75cd3aa3bb5ad0840180546001600160701b031916919093161790915551919291611b7f917f405787fa12a823e0f2b7631cc41b3ba8828b3321ca811111fa75cd3aa3bb5ad10190600861490d565b5050600654611bae91506001600160a01b031669d3c21bcecceda10000006969e10de76676d080000033611e19565b600854611bd0906001600160a01b031669943b1377290cbd8000008033611e19565b50565b600081815260016020526040812061098090613819565b6000610d4a8260028581548110611c0357611c03614daf565b6000918252602090912060016004909202010154600280546001600160701b039092169187908110611c3757611c37614daf565b6000918252602090912060049091020160010154600160701b90046001600160701b0316611c6487610fe2565b613823565b6009546001600160a01b031660008181526003602052604081205490919015801590611ca357506007546001600160a01b03828116911614155b604051806040016040528060018152602001602760f91b81525090611cdb5760405162461bcd60e51b815260040161086d9190614d9c565b508380421115604051806040016040528060018152602001601560fa1b81525090611d195760405162461bcd60e51b815260040161086d9190614d9c565b50600954611d369033908a906001600160a01b03168a8a30613580565b50600954604051632e1a7d4d60e01b8152600481018890526001600160a01b0390911690632e1a7d4d90602401600060405180830381600087803b158015611d7d57600080fd5b505af1158015611d91573d6000803e3d6000fd5b50506040516001600160a01b038716925088156108fc02915088906000818181858888f19350505050158015611dcb573d6000803e3d6000fd5b5094979650505050505050565b611de06148b9565b6002828154811061191357611913614daf565b600082815260208190526040902060010154611e0f8133612d27565b610d778383613552565b6001600160a01b0384166000908152600360205260409020548490158015611e4f57506007546001600160a01b03828116911614155b604051806040016040528060018152602001604560f81b81525090611e875760405162461bcd60e51b815260040161086d9190614d9c565b50600254611ea06001600160a01b03871633308861385f565b600754604051630bb9ff5d60e01b8152306004820152602481018690526001600160a01b0390911690630bb9ff5d90604401600060405180830381600087803b158015611eec57600080fd5b505af1158015611f00573d6000803e3d6000fd5b50506040516370a0823160e01b81523060048201526001600160a01b03891692506370a082319150602401602060405180830381865afa158015611f48573d6000803e3d6000fd5b505050506040513d601f19601f82011682018060405250810190611f6c9190614e13565b945060008511604051806040016040528060018152602001602d60f91b81525090611faa5760405162461bcd60e51b815260040161086d9190614d9c565b506000611fbf611fba8688614e6e565b6138ca565b9050611fc96148ee565b6040805160a0810182526001600160a01b038a811682526001600160701b038a8116602084019081528a821694840194855286821660608501908152608085018781526002805460018101825560009190915286517f405787fa12a823e0f2b7631cc41b3ba8828b3321ca811111fa75cd3aa3bb5ace600490920291820180546001600160a01b0319169190971617865592517f405787fa12a823e0f2b7631cc41b3ba8828b3321ca811111fa75cd3aa3bb5acf8401805498519186166001600160e01b031990991698909817600160701b9186169190910217909655517f405787fa12a823e0f2b7631cc41b3ba8828b3321ca811111fa75cd3aa3bb5ad0820180546001600160701b0319169190931617909155925191928392612112917f405787fa12a823e0f2b7631cc41b3ba8828b3321ca811111fa75cd3aa3bb5ad10190600861490d565b5050506001600160a01b038916600090815260036020526040812085905560048054899290612142908490614e2c565b9091555050600554604051624a84cb60e01b81526001600160a01b0390911690624a84cb9061217d9061dead9088906103e890600401614ee7565b600060405180830381600087803b15801561219757600080fd5b505af11580156121ab573d6000803e3d6000fd5b5050505060006103e86121c3898b611fba9190614e6e565b6121cd9190614ebc565b600554604051624a84cb60e01b81529192506001600160a01b031690624a84cb90612200908a9089908690600401614ee7565b600060405180830381600087803b15801561221a57600080fd5b505af115801561222e573d6000803e3d6000fd5b5050505050505050505050505050565b6006546001600160a01b039081166000908152600360205260408082205460085490931682528120546002805492938493909291908390811061228357612283614daf565b6000918252602090912060016004909202010154600280546001600160701b0390921691849081106122b7576122b7614daf565b60009182526020909120600490910201600101546122ed90600160701b90046001600160701b0316670de0b6b3a7640000614e6e565b6122f79190614ed3565b6002828154811061230a5761230a614daf565b6000918252602090912060016004909202010154600280546001600160701b03909216918490811061233e5761233e614daf565b600091825260209091206004909102016001015461237490600160701b90046001600160701b0316670de0b6b3a7640000614e6e565b61237e9190614ed3565b9350935050509091565b6000610d4a82600285815481106123a1576123a1614daf565b9060005260206000209060040201600101600e9054906101000a90046001600160701b03166001600160701b0316600286815481106123e2576123e2614daf565b60009182526020909120600160049092020101546001600160701b0316611c6487610fe2565b6001600160a01b03861660009081526003602052604081205487901580159061243f57506007546001600160a01b03828116911614155b604051806040016040528060018152602001602760f91b815250906124775760405162461bcd60e51b815260040161086d9190614d9c565b508380421115604051806040016040528060018152602001601560fa1b815250906124b55760405162461bcd60e51b815260040161086d9190614d9c565b50611641338a8a8a8a89613580565b6124ce828261139a565b610a01576000828152602081815260408083206001600160a01b03851684529091529020805460ff191660011790556125043390565b6001600160a01b0316816001600160a01b0316837f2f8788117e7eff1d82e926ec794901d17c78024a50270940304540a733656f0d60405160405180910390a45050565b6000610d4a836001600160a01b038416613923565b6001600160a01b03831660009081526003602052604081205484901580159061259457506007546001600160a01b03828116911614155b604051806040016040528060018152602001602760f91b815250906125cc5760405162461bcd60e51b815260040161086d9190614d9c565b506001600160a01b03808616600090815260036020526040902054908716301461265d57600554604051637921219560e11b81526060916001600160a01b03169063f242432a90612629908b90309087908c908890600401614f08565b600060405180830381600087803b15801561264357600080fd5b505af1158015612657573d6000803e3d6000fd5b50505050505b6040516370a0823160e01b81523060048201526000906001600160a01b038816906370a0823190602401602060405180830381865afa1580156126a4573d6000803e3d6000fd5b505050506040513d601f19601f820116820180604052508101906126c89190614e13565b90506000600283815481106126df576126df614daf565b6000918252602090912060016004909202010154612706906001600160701b031683614ebc565b600480546007546040516370a0823160e01b8152309381019390935292935060009290916001600160a01b03909116906370a0823190602401602060405180830381865afa15801561275c573d6000803e3d6000fd5b505050506040513d601f19601f820116820180604052508101906127809190614e13565b61278a9190614ebc565b60055460405163bd85b03960e01b8152600481018790529192506000916001600160a01b039091169063bd85b03990602401602060405180830381865afa1580156127d9573d6000803e3d6000fd5b505050506040513d601f19601f820116820180604052508101906127fd9190614e13565b90506000818a6002888154811061281657612816614daf565b600091825260209091206001600490920201015461283d91906001600160701b0316614e6e565b6128479190614ed3565b90506000828b6002898154811061286057612860614daf565b600091825260209091206004909102016001015461288e9190600160701b90046001600160701b0316614e6e565b6128989190614ed3565b90506000600288815481106128af576128af614daf565b600091825260208220600260049092020181015481546001600160701b03909116935061294f91908b9081106128e7576128e7614daf565b9060005260206000209060040201600101600e9054906101000a90046001600160701b03166001600160701b031660028b8154811061292857612928614daf565b6000918252602090912060016004909202010154611fba91906001600160701b0316614e6e565b905082866004546129609190614e2c565b61296a9190614ebc565b6004819055508060028a8154811061298457612984614daf565b906000526020600020906004020160020160006101000a8154816001600160701b0302191690836001600160701b03160217905550838760028b815481106129ce576129ce614daf565b60009182526020909120600160049092020101546129f591906001600160701b0316614f42565b6129ff9190614f6d565b60028a81548110612a1257612a12614daf565b906000526020600020906004020160010160006101000a8154816001600160701b0302191690836001600160701b03160217905550828660028b81548110612a5c57612a5c614daf565b9060005260206000209060040201600101600e9054906101000a90046001600160701b0316612a8b9190614f42565b612a959190614f6d565b60028a81548110612aa857612aa8614daf565b600091825260209091206004918202016001018054600160701b600160e01b031916600160701b6001600160701b0394909416939093029290921790915560055460405163b390c0ab60e01b81529182018b9052602482018f90526001600160a01b03169063b390c0ab90604401600060405180830381600087803b158015612b3057600080fd5b505af1158015612b44573d6000803e3d6000fd5b50506007546040516318a8ad8760e01b8152306004820152602481018790526001600160a01b0390911692506318a8ad879150604401600060405180830381600087803b158015612b9457600080fd5b505af1158015612ba8573d6000803e3d6000fd5b505050506000612bcb836001600160701b0316836001600160701b031688613972565b90508015612c3c57600554600a54604051624a84cb60e01b81526001600160a01b0392831692624a84cb92612c09929116908e908690600401614ee7565b600060405180830381600087803b158015612c2357600080fd5b505af1158015612c37573d6000803e3d6000fd5b505050505b5050506001600160a01b038a163014612c6357612c636001600160a01b038d168b846139c4565b6040516370a0823160e01b81523060048201526000906001600160a01b038e16906370a0823190602401602060405180830381865afa158015612caa573d6000803e3d6000fd5b505050506040513d601f19601f82011682018060405250810190612cce9190614e13565b905086612cdb8483614e2c565b14604051806040016040528060018152602001602360f91b81525090612d145760405162461bcd60e51b815260040161086d9190614d9c565b50919d9c50505050505050505050505050565b612d31828261139a565b610a0157612d49816001600160a01b031660146139f4565b612d548360206139f4565b604051602001612d65929190614f95565b60408051601f198184030181529082905262461bcd60e51b825261086d91600401614d9c565b610a018282613530565b6001600160a01b038316600090815260036020526040902054839015801590612dcc57506007546001600160a01b03828116911614155b604051806040016040528060018152602001602760f91b81525090612e045760405162461bcd60e51b815260040161086d9190614d9c565b506001600160a01b038085166000908152600360205260409020549086163014612e3d57612e3d6001600160a01b03861687308761385f565b6040516370a0823160e01b81523060048201526000906001600160a01b038716906370a0823190602401602060405180830381865afa158015612e84573d6000803e3d6000fd5b505050506040513d601f19601f82011682018060405250810190612ea89190614e13565b905060028281548110612ebd57612ebd614daf565b6000918252602090912060016004909202010154612ee4906001600160701b031682614ebc565b945060008511604051806040016040528060018152602001602d60f91b81525090612f225760405162461bcd60e51b815260040161086d9190614d9c565b506007546040516370a0823160e01b81523060048201526000916001600160a01b0316906370a0823190602401602060405180830381865afa158015612f6c573d6000803e3d6000fd5b505050506040513d601f19601f82011682018060405250810190612f909190614e13565b9050600060045482612fa29190614ebc565b905060008160028681548110612fba57612fba614daf565b6000918252602090912060016004909202010154600280546001600160701b039092169188908110612fee57612fee614daf565b600091825260209091206004909102016001015461301c90600160701b90046001600160701b03168b614e6e565b6130269190614ed3565b6130309190614ebc565b905060006002868154811061304757613047614daf565b600091825260208220600260049092020181015481546001600160701b0390911693506130c091908990811061307f5761307f614daf565b9060005260206000209060040201600101600e9054906101000a90046001600160701b03166001600160701b03166002898154811061292857612928614daf565b90508460048190555080600288815481106130dd576130dd614daf565b906000526020600020906004020160020160006101000a8154816001600160701b0302191690836001600160701b03160217905550856002888154811061312657613126614daf565b6000918252602090912060049091020160010180546001600160701b0319166001600160701b03929092169190911790556131618385614e2c565b6002888154811061317457613174614daf565b9060005260206000209060040201600101600e9054906101000a90046001600160701b03166131a39190614f42565b600288815481106131b6576131b6614daf565b600091825260209091206004918202016001018054600160701b600160e01b031916600160701b6001600160701b03949094169390930292909217909155600754604051630bb9ff5d60e01b81523092810192909252602482018590526001600160a01b031690630bb9ff5d90604401600060405180830381600087803b15801561324057600080fd5b505af1158015613254573d6000803e3d6000fd5b505060055460405163bd85b03960e01b8152600481018b9052600093506001600160a01b03909116915063bd85b03990602401602060405180830381865afa1580156132a4573d6000803e3d6000fd5b505050506040513d601f19601f820116820180604052508101906132c89190614e13565b90506000600289815481106132df576132df614daf565b60009182526020909120600160049092020101546001600160701b0316613306838e614e6e565b6133109190614ed3565b600554604051624a84cb60e01b81529192506001600160a01b031690624a84cb90613343908e908d908690600401614ee7565b600060405180830381600087803b15801561335d57600080fd5b505af1158015613371573d6000803e3d6000fd5b505050506000613394856001600160701b0316856001600160701b031685613972565b9050801561340557600554600a54604051624a84cb60e01b81526001600160a01b0392831692624a84cb926133d2929116908e908690600401614ee7565b600060405180830381600087803b1580156133ec57600080fd5b505af1158015613400573d6000803e3d6000fd5b505050505b505050505050505050505050505050565b60006001600160a01b038716301461343d5761343d6001600160a01b03871688308761385f565b6007546000906001600160a01b03888116911614801561346b57506007546001600160a01b03878116911614155b156134825761347b868585613b90565b90506134d8565b6007546001600160a01b038881169116148015906134ad57506007546001600160a01b038781169116145b156134bd5761347b87858561410d565b6134c98760003061410d565b506134d5868585613b90565b90505b979650505050505050565b6000806134f08685614ebc565b6134fa9084614e6e565b6127106135078888614e6e565b6135119190614e6e565b61351b9190614ed3565b613526906001614e2c565b9695505050505050565b61353a82826124c4565b6000828152600160205260409020610d779082612548565b61355c8282614555565b6000828152600160205260409020610d7790826145ba565b6000610d4a83836145cf565b600754600090819081906001600160a01b0389811691161480156135b257506007546001600160a01b03888116911614155b15613651576001600160a01b0387166000908152600360205260409020546135da90866112f8565b915085821115604051806040016040528060018152602001600b60fb1b815250906136185760405162461bcd60e51b815260040161086d9190614d9c565b506001600160a01b038916301461363e5761363e6001600160a01b0389168a308561385f565b61364a87600086613b90565b90506112c8565b6007546001600160a01b0389811691161480159061367c57506007546001600160a01b038881169116145b15613714576001600160a01b0388166000908152600360205260409020546136a49086610ccb565b915085821115604051806040016040528060018152602001605960f81b815250906136e25760405162461bcd60e51b815260040161086d9190614d9c565b506001600160a01b0389163014613708576137086001600160a01b0389168a308561385f565b61364a8860008661410d565b6007546001600160a01b0389811691161480159061374057506007546001600160a01b03888116911614155b156112c8576001600160a01b03871660009081526003602052604081205461376890876112f8565b6001600160a01b038a1660009081526003602052604090205490915061378e9082610ccb565b925086831115604051806040016040528060018152602001605960f81b815250906137cc5760405162461bcd60e51b815260040161086d9190614d9c565b506001600160a01b038a1630146137f2576137f26001600160a01b038a168b308661385f565b6137fe8960003061410d565b5061380b88600087613b90565b9a9950505050505050505050565b6000610980825490565b6000806138308387614e6e565b905060008161384161271088614e6e565b61384b9190614e2c565b6138558387614e6e565b6134d89190614ed3565b6040516001600160a01b03808516602483015283166044820152606481018290526109039085906323b872dd60e01b906084015b60408051601f198184030181529190526020810180516001600160e01b03166001600160e01b0319909316929092179091526145f9565b60008060026138da846001614e2c565b6138e49190614ed3565b90508291505b8181101561391d579050806002816139028186614ed3565b61390c9190614e2c565b6139169190614ed3565b90506138ea565b50919050565b600081815260018301602052604081205461396a57508154600181810184556000848152602080822090930184905584548482528286019093526040902091909155610980565b506000610980565b600083831180156139835750600084115b15610d4a5783613994846005614e6e565b61399e9190614e2c565b6139a88585614ebc565b6139b29084614e6e565b6139bc9190614ed3565b949350505050565b6040516001600160a01b038316602482015260448101829052610d7790849063a9059cbb60e01b90606401613893565b60606000613a03836002614e6e565b613a0e906002614e2c565b67ffffffffffffffff811115613a2657613a2661500a565b6040519080825280601f01601f191660200182016040528015613a50576020820181803683370190505b509050600360fc1b81600081518110613a6b57613a6b614daf565b60200101906001600160f81b031916908160001a905350600f60fb1b81600181518110613a9a57613a9a614daf565b60200101906001600160f81b031916908160001a9053506000613abe846002614e6e565b613ac9906001614e2c565b90505b6001811115613b41576f181899199a1a9b1b9c1cb0b131b232b360811b85600f1660108110613afd57613afd614daf565b1a60f81b828281518110613b1357613b13614daf565b60200101906001600160f81b031916908160001a90535060049490941c93613b3a81615020565b9050613acc565b508315610d4a5760405162461bcd60e51b815260206004820181905260248201527f537472696e67733a20686578206c656e67746820696e73756666696369656e74604482015260640161086d565b6001600160a01b038381166000908152600360205260408082205460075491516370a0823160e01b8152306004820152929390928492909116906370a0823190602401602060405180830381865afa158015613bf0573d6000803e3d6000fd5b505050506040513d601f19601f82011682018060405250810190613c149190614e13565b9050600060045482613c269190614ebc565b905060008111604051806040016040528060018152602001605560f81b81525090613c645760405162461bcd60e51b815260040161086d9190614d9c565b506040516370a0823160e01b81523060048201526000906001600160a01b038916906370a0823190602401602060405180830381865afa158015613cac573d6000803e3d6000fd5b505050506040513d601f19601f82011682018060405250810190613cd09190614e13565b9050600060028581548110613ce757613ce7614daf565b6000918252602090912060016004909202010154613d0e906001600160701b031683614ebc565b90506000613d1c8685612388565b905088811015604051806040016040528060018152602001602760f91b81525090613d5a5760405162461bcd60e51b815260040161086d9190614d9c565b50846004819055508360028781548110613d7657613d76614daf565b9060005260206000209060040201600101600e9054906101000a90046001600160701b0316613da59190614f42565b60028781548110613db857613db8614daf565b9060005260206000209060040201600101600e6101000a8154816001600160701b0302191690836001600160701b03160217905550808260028881548110613e0257613e02614daf565b6000918252602090912060016004909202010154613e2991906001600160701b0316614f42565b613e339190614f6d565b60028781548110613e4657613e46614daf565b906000526020600020906004020160010160006101000a8154816001600160701b0302191690836001600160701b031602179055506000613e85611566565b9050600060028881548110613e9c57613e9c614daf565b506000526008613eaa611566565b613eb5906001614e2c565b613ebf9190614e5a565b9050670de0b6b3a7640000860460028981548110613edf57613edf614daf565b90600052602060002090600402016003018360088110613f0157613f01614daf565b600891828204019190066004028282829054906101000a900463ffffffff160192506101000a81548163ffffffff021916908363ffffffff160217905550600060028981548110613f5457613f54614daf565b90600052602060002090600402016003018260088110613f7657613f76614daf565b600891828204019190066004029054906101000a900463ffffffff1663ffffffff161115613fff57600060028981548110613fb357613fb3614daf565b90600052602060002090600402016003018260088110613fd557613fd5614daf565b600891828204019190066004026101000a81548163ffffffff021916908363ffffffff1602179055505b6001600160a01b038a163014614023576140236001600160a01b038d168b856139c4565b6040516370a0823160e01b81523060048201526000906001600160a01b038e16906370a0823190602401602060405180830381865afa15801561406a573d6000803e3d6000fd5b505050506040513d601f19601f8201168201806040525081019061408e9190614e13565b9050600289815481106140a3576140a3614daf565b6000918252602091829020600160049092020181015460408051808201909152918252602360f91b92820192909252906001600160701b031682146140fb5760405162461bcd60e51b815260040161086d9190614d9c565b50929c9b505050505050505050505050565b6001600160a01b0383166000818152600360205260408082205490516370a0823160e01b8152306004820152919290918391906370a0823190602401602060405180830381865afa158015614166573d6000803e3d6000fd5b505050506040513d601f19601f8201168201806040525081019061418a9190614e13565b90506000600283815481106141a1576141a1614daf565b60009182526020909120600160049092020101546141c8906001600160701b031683614ebc565b905060008111604051806040016040528060018152602001602d60f91b815250906142065760405162461bcd60e51b815260040161086d9190614d9c565b506007546040516370a0823160e01b81523060048201526000916001600160a01b0316906370a0823190602401602060405180830381865afa158015614250573d6000803e3d6000fd5b505050506040513d601f19601f820116820180604052508101906142749190614e13565b90506000600454826142869190614ebc565b905060006142948685611bea565b905088811015604051806040016040528060018152602001604d60f81b815250906142d25760405162461bcd60e51b815260040161086d9190614d9c565b50826004819055508082600288815481106142ef576142ef614daf565b9060005260206000209060040201600101600e9054906101000a90046001600160701b031661431e9190614f42565b6143289190614f6d565b6002878154811061433b5761433b614daf565b9060005260206000209060040201600101600e6101000a8154816001600160701b0302191690836001600160701b03160217905550846002878154811061438457614384614daf565b906000526020600020906004020160010160006101000a8154816001600160701b0302191690836001600160701b0316021790555060006143c3611566565b9050600060086143d4836001614e2c565b6143de9190614e5a565b9050670de0b6b3a76400008304600289815481106143fe576143fe614daf565b9060005260206000209060040201600301836008811061442057614420614daf565b600891828204019190066004028282829054906101000a900463ffffffff160192506101000a81548163ffffffff021916908363ffffffff16021790555060006002898154811061447357614473614daf565b9060005260206000209060040201600301826008811061449557614495614daf565b600891828204019190066004029054906101000a900463ffffffff1663ffffffff16111561451e576000600289815481106144d2576144d2614daf565b906000526020600020906004020160030182600881106144f4576144f4614daf565b600891828204019190066004026101000a81548163ffffffff021916908363ffffffff1602179055505b6001600160a01b038a16301461454557600754614545906001600160a01b03168b856139c4565b50909a9950505050505050505050565b61455f828261139a565b15610a01576000828152602081815260408083206001600160a01b0385168085529252808320805460ff1916905551339285917ff6391f5c32d9c69d2a47ea670b442974b53935d1edc7fd64eb21e047a839171b9190a45050565b6000610d4a836001600160a01b0384166146cb565b60008260000182815481106145e6576145e6614daf565b9060005260206000200154905092915050565b600061464e826040518060400160405280602081526020017f5361666545524332303a206c6f772d6c6576656c2063616c6c206661696c6564815250856001600160a01b03166147be9092919063ffffffff16565b805190915015610d77578080602001905181019061466c9190615037565b610d775760405162461bcd60e51b815260206004820152602a60248201527f5361666545524332303a204552433230206f7065726174696f6e20646964206e6044820152691bdd081cdd58d8d9595960b21b606482015260840161086d565b600081815260018301602052604081205480156147b45760006146ef600183614ebc565b855490915060009061470390600190614ebc565b905081811461476857600086600001828154811061472357614723614daf565b906000526020600020015490508087600001848154811061474657614746614daf565b6000918252602080832090910192909255918252600188019052604090208390555b855486908061477957614779615059565b600190038181906000526020600020016000905590558560010160008681526020019081526020016000206000905560019350505050610980565b6000915050610980565b60606139bc848460008585843b6148175760405162461bcd60e51b815260206004820152601d60248201527f416464726573733a2063616c6c20746f206e6f6e2d636f6e7472616374000000604482015260640161086d565b600080866001600160a01b03168587604051614833919061506f565b60006040518083038185875af1925050503d8060008114614870576040519150601f19603f3d011682016040523d82523d6000602084013e614875565b606091505b50915091506134d88282866060831561488f575081610d4a565b82511561489f5782518084602001fd5b8160405162461bcd60e51b815260040161086d9190614d9c565b6040805160a0810182526000808252602082018190529181018290526060810191909152608081016148e96148ee565b905290565b6040518061010001604052806008906020820280368337509192915050565b6001830191839082156149995791602002820160005b8382111561496757835183826101000a81548163ffffffff021916908363ffffffff1602179055509260200192600401602081600301049283019260010302614923565b80156149975782816101000a81549063ffffffff0219169055600401602081600301049283019260010302614967565b505b506149a59291506149a9565b5090565b5b808211156149a557600081556001016149aa565b6000602082840312156149d057600080fd5b81356001600160e01b031981168114610d4a57600080fd5b6001600160a01b0381168114611bd057600080fd5b600080600060608486031215614a1257600080fd5b8335614a1d816149e8565b9250602084013591506040840135614a34816149e8565b809150509250925092565b60008060208385031215614a5257600080fd5b823567ffffffffffffffff80821115614a6a57600080fd5b818501915085601f830112614a7e57600080fd5b813581811115614a8d57600080fd5b8660208260061b8501011115614aa257600080fd5b60209290920196919550909350505050565b600060208284031215614ac657600080fd5b8135610d4a816149e8565b600060208284031215614ae357600080fd5b5035919050565b600080600080600060a08688031215614b0257600080fd5b8535614b0d816149e8565b94506020860135935060408601359250606086013591506080860135614b32816149e8565b809150509295509295909350565b60008060408385031215614b5357600080fd5b50508035926020909101359150565b60008060408385031215614b7557600080fd5b823591506020830135614b87816149e8565b809150509250929050565b80516001600160a01b031682526020808201516001600160701b03908116828501526040808401518216908501526060808401519091169084015260808083015190840160005b6008811015614bfc57825163ffffffff1682529183019190830190600101614bd9565b505050505050565b6103008101614c138285614b92565b610d4a610180830184614b92565b60008060008060808587031215614c3757600080fd5b8435614c42816149e8565b935060208501359250604085013591506060850135614c60816149e8565b939692955090935050565b60008060008060008060c08789031215614c8457600080fd5b8635614c8f816149e8565b95506020870135614c9f816149e8565b945060408701359350606087013592506080870135915060a0870135614cc4816149e8565b809150509295509295509295565b61018081016109808284614b92565b600080600080600060a08688031215614cf957600080fd5b8535614d04816149e8565b94506020860135614d14816149e8565b93506040860135614d24816149e8565b92506060860135614d34816149e8565b91506080860135614b32816149e8565b60005b83811015614d5f578181015183820152602001614d47565b838111156109035750506000910152565b60008151808452614d88816020860160208601614d44565b601f01601f19169290920160200192915050565b602081526000610d4a6020830184614d70565b634e487b7160e01b600052603260045260246000fd5b634e487b7160e01b600052601160045260246000fd5b6000600019821415614def57614def614dc5565b5060010190565b600060208284031215614e0857600080fd5b8151610d4a816149e8565b600060208284031215614e2557600080fd5b5051919050565b60008219821115614e3f57614e3f614dc5565b500190565b634e487b7160e01b600052601260045260246000fd5b600082614e6957614e69614e44565b500690565b6000816000190483118215151615614e8857614e88614dc5565b500290565b60006001600160701b0380831681851681830481118215151615614eb357614eb3614dc5565b02949350505050565b600082821015614ece57614ece614dc5565b500390565b600082614ee257614ee2614e44565b500490565b6001600160a01b039390931683526020830191909152604082015260600190565b6001600160a01b03868116825285166020820152604081018490526060810183905260a0608082018190526000906134d890830184614d70565b60006001600160701b03808316818516808303821115614f6457614f64614dc5565b01949350505050565b60006001600160701b0383811690831681811015614f8d57614f8d614dc5565b039392505050565b7f416363657373436f6e74726f6c3a206163636f756e7420000000000000000000815260008351614fcd816017850160208801614d44565b7001034b99036b4b9b9b4b733903937b6329607d1b6017918401918201528351614ffe816028840160208801614d44565b01602801949350505050565b634e487b7160e01b600052604160045260246000fd5b60008161502f5761502f614dc5565b506000190190565b60006020828403121561504957600080fd5b81518015158114610d4a57600080fd5b634e487b7160e01b600052603160045260246000fd5b60008251615081818460208701614d44565b919091019291505056fea26469706673582212201a3d661617bcae32cf43fc77d94df2402e7603292a7d4e778b21ec34a140f69e64736f6c634300080b0033",
			"opcodes": "PUSH1 0x80 PUSH1 0x40 MSTORE PUSH1 0x5 DUP1 SLOAD PUSH1 0x1 PUSH1 0x1 PUSH1 0xA0 SHL SUB NOT SWAP1 DUP2 AND PUSH20 0x370A4BA20191804AEEAB8EB39E3EA83D77FEB68D OR SWAP1 SWAP2 SSTORE PUSH1 0x6 DUP1 SLOAD DUP3 AND PUSH20 0x2C4FE51D1AD5B88CD2CC2F45AD1C0C857F06225E OR SWAP1 SSTORE PUSH1 0x7 DUP1 SLOAD DUP3 AND PUSH20 0xF3B07F8167B665BA3E2DD29C661DEE3A1DA2380A OR SWAP1 SSTORE PUSH1 0x8 DUP1 SLOAD DUP3 AND PUSH20 0x2A5E269BF364E347942C464A999D8C8AC2E6CE94 OR SWAP1 SSTORE PUSH1 0xA DUP1 SLOAD SWAP1 SWAP2 AND PUSH2 0xDEAD OR SWAP1 SSTORE CALLVALUE DUP1 ISZERO PUSH3 0xA1 JUMPI PUSH1 0x0 DUP1 REVERT JUMPDEST POP PUSH3 0xAF PUSH1 0x0 CALLER PUSH3 0x133 JUMP JUMPDEST PUSH1 0xA DUP1 SLOAD PUSH1 0x1 PUSH1 0x1 PUSH1 0xA0 SHL SUB NOT AND CALLER OR SWAP1 SSTORE PUSH2 0x3039 CHAINID EQ ISZERO PUSH3 0xE6 JUMPI PUSH1 0x9 DUP1 SLOAD PUSH1 0x1 PUSH1 0x1 PUSH1 0xA0 SHL SUB NOT AND PUSH2 0xDEAD OR SWAP1 SSTORE PUSH3 0x107 JUMP JUMPDEST CHAINID PUSH3 0x181CD EQ ISZERO PUSH3 0x107 JUMPI PUSH1 0x9 DUP1 SLOAD PUSH1 0x1 PUSH1 0x1 PUSH1 0xA0 SHL SUB NOT AND PUSH2 0xDEAD OR SWAP1 SSTORE JUMPDEST PUSH1 0x9 DUP1 SLOAD PUSH1 0x1 PUSH1 0x1 PUSH1 0xA0 SHL SUB NOT AND PUSH20 0x14769F96E57B80C66837701DE0B43686FB4632DE OR SWAP1 SSTORE PUSH3 0x298 JUMP JUMPDEST PUSH3 0x13F DUP3 DUP3 PUSH3 0x143 JUMP JUMPDEST POP POP JUMP JUMPDEST PUSH3 0x15A DUP3 DUP3 PUSH3 0x186 PUSH1 0x20 SHL PUSH3 0x24C4 OR PUSH1 0x20 SHR JUMP JUMPDEST PUSH1 0x0 DUP3 DUP2 MSTORE PUSH1 0x1 PUSH1 0x20 SWAP1 DUP2 MSTORE PUSH1 0x40 SWAP1 SWAP2 KECCAK256 PUSH3 0x181 SWAP2 DUP4 SWAP1 PUSH3 0x2548 PUSH3 0x226 DUP3 SHL OR SWAP1 SHR JUMP JUMPDEST POP POP POP JUMP JUMPDEST PUSH1 0x0 DUP3 DUP2 MSTORE PUSH1 0x20 DUP2 DUP2 MSTORE PUSH1 0x40 DUP1 DUP4 KECCAK256 PUSH1 0x1 PUSH1 0x1 PUSH1 0xA0 SHL SUB DUP6 AND DUP5 MSTORE SWAP1 SWAP2 MSTORE SWAP1 KECCAK256 SLOAD PUSH1 0xFF AND PUSH3 0x13F JUMPI PUSH1 0x0 DUP3 DUP2 MSTORE PUSH1 0x20 DUP2 DUP2 MSTORE PUSH1 0x40 DUP1 DUP4 KECCAK256 PUSH1 0x1 PUSH1 0x1 PUSH1 0xA0 SHL SUB DUP6 AND DUP5 MSTORE SWAP1 SWAP2 MSTORE SWAP1 KECCAK256 DUP1 SLOAD PUSH1 0xFF NOT AND PUSH1 0x1 OR SWAP1 SSTORE PUSH3 0x1E2 CALLER SWAP1 JUMP JUMPDEST PUSH1 0x1 PUSH1 0x1 PUSH1 0xA0 SHL SUB AND DUP2 PUSH1 0x1 PUSH1 0x1 PUSH1 0xA0 SHL SUB AND DUP4 PUSH32 0x2F8788117E7EFF1D82E926EC794901D17C78024A50270940304540A733656F0D PUSH1 0x40 MLOAD PUSH1 0x40 MLOAD DUP1 SWAP2 SUB SWAP1 LOG4 POP POP JUMP JUMPDEST PUSH1 0x0 PUSH3 0x23D DUP4 PUSH1 0x1 PUSH1 0x1 PUSH1 0xA0 SHL SUB DUP5 AND PUSH3 0x246 JUMP JUMPDEST SWAP1 POP JUMPDEST SWAP3 SWAP2 POP POP JUMP JUMPDEST PUSH1 0x0 DUP2 DUP2 MSTORE PUSH1 0x1 DUP4 ADD PUSH1 0x20 MSTORE PUSH1 0x40 DUP2 KECCAK256 SLOAD PUSH3 0x28F JUMPI POP DUP2 SLOAD PUSH1 0x1 DUP2 DUP2 ADD DUP5 SSTORE PUSH1 0x0 DUP5 DUP2 MSTORE PUSH1 0x20 DUP1 DUP3 KECCAK256 SWAP1 SWAP4 ADD DUP5 SWAP1 SSTORE DUP5 SLOAD DUP5 DUP3 MSTORE DUP3 DUP7 ADD SWAP1 SWAP4 MSTORE PUSH1 0x40 SWAP1 KECCAK256 SWAP2 SWAP1 SWAP2 SSTORE PUSH3 0x240 JUMP JUMPDEST POP PUSH1 0x0 PUSH3 0x240 JUMP JUMPDEST PUSH2 0x50C1 DUP1 PUSH3 0x2A8 PUSH1 0x0 CODECOPY PUSH1 0x0 RETURN INVALID PUSH1 0x80 PUSH1 0x40 MSTORE PUSH1 0x4 CALLDATASIZE LT PUSH2 0x246 JUMPI PUSH1 0x0 CALLDATALOAD PUSH1 0xE0 SHR DUP1 PUSH4 0x91D14854 GT PUSH2 0x139 JUMPI DUP1 PUSH4 0xCA15C873 GT PUSH2 0xB6 JUMPI DUP1 PUSH4 0xD547741F GT PUSH2 0x7A JUMPI DUP1 PUSH4 0xD547741F EQ PUSH2 0x6DA JUMPI DUP1 PUSH4 0xD5D60737 EQ PUSH2 0x6FA JUMPI DUP1 PUSH4 0xE07BF7AD EQ PUSH2 0x71A JUMPI DUP1 PUSH4 0xEBDA9531 EQ PUSH2 0x744 JUMPI DUP1 PUSH4 0xECA01093 EQ PUSH2 0x764 JUMPI DUP1 PUSH4 0xF6524724 EQ PUSH2 0x7DE JUMPI PUSH1 0x0 DUP1 REVERT JUMPDEST DUP1 PUSH4 0xCA15C873 EQ PUSH2 0x652 JUMPI DUP1 PUSH4 0xCD01A60A EQ PUSH2 0x672 JUMPI DUP1 PUSH4 0xCF8AE864 EQ PUSH2 0x692 JUMPI DUP1 PUSH4 0xD01350BD EQ PUSH2 0x6A5 JUMPI DUP1 PUSH4 0xD391014B EQ PUSH2 0x6C5 JUMPI PUSH1 0x0 DUP1 REVERT JUMPDEST DUP1 PUSH4 0xA8D68366 GT PUSH2 0xFD JUMPI DUP1 PUSH4 0xA8D68366 EQ PUSH2 0x5DD JUMPI DUP1 PUSH4 0xAAA10DD2 EQ PUSH2 0x5F0 JUMPI DUP1 PUSH4 0xB771E425 EQ PUSH2 0x587 JUMPI DUP1 PUSH4 0xBBADC03B EQ PUSH2 0x610 JUMPI DUP1 PUSH4 0xC09C923B EQ PUSH2 0x63D JUMPI PUSH1 0x0 DUP1 REVERT JUMPDEST DUP1 PUSH4 0x91D14854 EQ PUSH2 0x532 JUMPI DUP1 PUSH4 0x9BC731FC EQ PUSH2 0x552 JUMPI DUP1 PUSH4 0xA465626F EQ PUSH2 0x572 JUMPI DUP1 PUSH4 0xA47BA4FA EQ PUSH2 0x587 JUMPI DUP1 PUSH4 0xA60C6E55 EQ PUSH2 0x5BD JUMPI PUSH1 0x0 DUP1 REVERT JUMPDEST DUP1 PUSH4 0x2F2FF15D GT PUSH2 0x1C7 JUMPI DUP1 PUSH4 0x7B4B233C GT PUSH2 0x18B JUMPI DUP1 PUSH4 0x7B4B233C EQ PUSH2 0x492 JUMPI DUP1 PUSH4 0x8D6D61D9 EQ PUSH2 0x4B2 JUMPI DUP1 PUSH4 0x9010D07C EQ PUSH2 0x4D2 JUMPI DUP1 PUSH4 0x9035620B EQ PUSH2 0x4F2 JUMPI DUP1 PUSH4 0x9162EBF0 EQ PUSH2 0x512 JUMPI PUSH1 0x0 DUP1 REVERT JUMPDEST DUP1 PUSH4 0x2F2FF15D EQ PUSH2 0x3FC JUMPI DUP1 PUSH4 0x36568ABE EQ PUSH2 0x41C JUMPI DUP1 PUSH4 0x5E6104B1 EQ PUSH2 0x43C JUMPI DUP1 PUSH4 0x6853AC26 EQ PUSH2 0x45F JUMPI DUP1 PUSH4 0x6FBA344D EQ PUSH2 0x47F JUMPI PUSH1 0x0 DUP1 REVERT JUMPDEST DUP1 PUSH4 0x121FB9BC GT PUSH2 0x20E JUMPI DUP1 PUSH4 0x121FB9BC EQ PUSH2 0x356 JUMPI DUP1 PUSH4 0x186EFAD9 EQ PUSH2 0x369 JUMPI DUP1 PUSH4 0x195DF43E EQ PUSH2 0x399 JUMPI DUP1 PUSH4 0x2375DABC EQ PUSH2 0x3AC JUMPI DUP1 PUSH4 0x248A9CA3 EQ PUSH2 0x3CC JUMPI PUSH1 0x0 DUP1 REVERT JUMPDEST DUP1 PUSH4 0x1FFC9A7 EQ PUSH2 0x24B JUMPI DUP1 PUSH4 0x369679E EQ PUSH2 0x291 JUMPI DUP1 PUSH4 0x3ED957F EQ PUSH2 0x2BF JUMPI DUP1 PUSH4 0x6EDD763 EQ PUSH2 0x2E1 JUMPI DUP1 PUSH4 0x6FB1A07 EQ PUSH2 0x31E JUMPI JUMPDEST PUSH1 0x0 DUP1 REVERT JUMPDEST CALLVALUE DUP1 ISZERO PUSH2 0x257 JUMPI PUSH1 0x0 DUP1 REVERT JUMPDEST POP PUSH2 0x27C PUSH2 0x266 CALLDATASIZE PUSH1 0x4 PUSH2 0x49BE JUMP JUMPDEST PUSH1 0x1 PUSH1 0x1 PUSH1 0xE0 SHL SUB NOT AND PUSH4 0x1FFC9A7 PUSH1 0xE0 SHL EQ SWAP1 JUMP JUMPDEST PUSH1 0x40 MLOAD SWAP1 ISZERO ISZERO DUP2 MSTORE PUSH1 0x20 ADD JUMPDEST PUSH1 0x40 MLOAD DUP1 SWAP2 SUB SWAP1 RETURN JUMPDEST CALLVALUE DUP1 ISZERO PUSH2 0x29D JUMPI PUSH1 0x0 DUP1 REVERT JUMPDEST POP PUSH2 0x2B1 PUSH2 0x2AC CALLDATASIZE PUSH1 0x4 PUSH2 0x49FD JUMP JUMPDEST PUSH2 0x7FE JUMP JUMPDEST PUSH1 0x40 MLOAD SWAP1 DUP2 MSTORE PUSH1 0x20 ADD PUSH2 0x288 JUMP JUMPDEST CALLVALUE DUP1 ISZERO PUSH2 0x2CB JUMPI PUSH1 0x0 DUP1 REVERT JUMPDEST POP PUSH2 0x2DF PUSH2 0x2DA CALLDATASIZE PUSH1 0x4 PUSH2 0x4A3F JUMP JUMPDEST PUSH2 0x88C JUMP JUMPDEST STOP JUMPDEST CALLVALUE DUP1 ISZERO PUSH2 0x2ED JUMPI PUSH1 0x0 DUP1 REVERT JUMPDEST POP PUSH2 0x2DF PUSH2 0x2FC CALLDATASIZE PUSH1 0x4 PUSH2 0x4AB4 JUMP JUMPDEST PUSH1 0xA DUP1 SLOAD PUSH1 0x1 PUSH1 0x1 PUSH1 0xA0 SHL SUB NOT AND PUSH1 0x1 PUSH1 0x1 PUSH1 0xA0 SHL SUB SWAP3 SWAP1 SWAP3 AND SWAP2 SWAP1 SWAP2 OR SWAP1 SSTORE JUMP JUMPDEST CALLVALUE DUP1 ISZERO PUSH2 0x32A JUMPI PUSH1 0x0 DUP1 REVERT JUMPDEST POP PUSH2 0x33E PUSH2 0x339 CALLDATASIZE PUSH1 0x4 PUSH2 0x4AD1 JUMP JUMPDEST PUSH2 0x909 JUMP JUMPDEST PUSH1 0x40 MLOAD PUSH1 0x1 PUSH1 0x1 PUSH1 0xA0 SHL SUB SWAP1 SWAP2 AND DUP2 MSTORE PUSH1 0x20 ADD PUSH2 0x288 JUMP JUMPDEST PUSH2 0x2DF PUSH2 0x364 CALLDATASIZE PUSH1 0x4 PUSH2 0x4AB4 JUMP JUMPDEST PUSH2 0x986 JUMP JUMPDEST CALLVALUE DUP1 ISZERO PUSH2 0x375 JUMPI PUSH1 0x0 DUP1 REVERT JUMPDEST POP PUSH2 0x37E PUSH2 0xA05 JUMP JUMPDEST PUSH1 0x40 DUP1 MLOAD SWAP4 DUP5 MSTORE PUSH1 0x20 DUP5 ADD SWAP3 SWAP1 SWAP3 MSTORE SWAP1 DUP3 ADD MSTORE PUSH1 0x60 ADD PUSH2 0x288 JUMP JUMPDEST PUSH2 0x2B1 PUSH2 0x3A7 CALLDATASIZE PUSH1 0x4 PUSH2 0x4AEA JUMP JUMPDEST PUSH2 0xB59 JUMP JUMPDEST CALLVALUE DUP1 ISZERO PUSH2 0x3B8 JUMPI PUSH1 0x0 DUP1 REVERT JUMPDEST POP PUSH2 0x2B1 PUSH2 0x3C7 CALLDATASIZE PUSH1 0x4 PUSH2 0x4B40 JUMP JUMPDEST PUSH2 0xCCB JUMP JUMPDEST CALLVALUE DUP1 ISZERO PUSH2 0x3D8 JUMPI PUSH1 0x0 DUP1 REVERT JUMPDEST POP PUSH2 0x2B1 PUSH2 0x3E7 CALLDATASIZE PUSH1 0x4 PUSH2 0x4AD1 JUMP JUMPDEST PUSH1 0x0 SWAP1 DUP2 MSTORE PUSH1 0x20 DUP2 SWAP1 MSTORE PUSH1 0x40 SWAP1 KECCAK256 PUSH1 0x1 ADD SLOAD SWAP1 JUMP JUMPDEST CALLVALUE DUP1 ISZERO PUSH2 0x408 JUMPI PUSH1 0x0 DUP1 REVERT JUMPDEST POP PUSH2 0x2DF PUSH2 0x417 CALLDATASIZE PUSH1 0x4 PUSH2 0x4B62 JUMP JUMPDEST PUSH2 0xD51 JUMP JUMPDEST CALLVALUE DUP1 ISZERO PUSH2 0x428 JUMPI PUSH1 0x0 DUP1 REVERT JUMPDEST POP PUSH2 0x2DF PUSH2 0x437 CALLDATASIZE PUSH1 0x4 PUSH2 0x4B62 JUMP JUMPDEST PUSH2 0xD7C JUMP JUMPDEST CALLVALUE DUP1 ISZERO PUSH2 0x448 JUMPI PUSH1 0x0 DUP1 REVERT JUMPDEST POP PUSH2 0x451 PUSH2 0xDF6 JUMP JUMPDEST PUSH1 0x40 MLOAD PUSH2 0x288 SWAP3 SWAP2 SWAP1 PUSH2 0x4C04 JUMP JUMPDEST CALLVALUE DUP1 ISZERO PUSH2 0x46B JUMPI PUSH1 0x0 DUP1 REVERT JUMPDEST POP PUSH2 0x2B1 PUSH2 0x47A CALLDATASIZE PUSH1 0x4 PUSH2 0x4AD1 JUMP JUMPDEST PUSH2 0xFE2 JUMP JUMPDEST PUSH2 0x2B1 PUSH2 0x48D CALLDATASIZE PUSH1 0x4 PUSH2 0x4C21 JUMP JUMPDEST PUSH2 0x119A JUMP JUMPDEST CALLVALUE DUP1 ISZERO PUSH2 0x49E JUMPI PUSH1 0x0 DUP1 REVERT JUMPDEST POP PUSH1 0xA SLOAD PUSH2 0x33E SWAP1 PUSH1 0x1 PUSH1 0x1 PUSH1 0xA0 SHL SUB AND DUP2 JUMP JUMPDEST CALLVALUE DUP1 ISZERO PUSH2 0x4BE JUMPI PUSH1 0x0 DUP1 REVERT JUMPDEST POP PUSH2 0x2DF PUSH2 0x4CD CALLDATASIZE PUSH1 0x4 PUSH2 0x49FD JUMP JUMPDEST PUSH2 0x12D4 JUMP JUMPDEST CALLVALUE DUP1 ISZERO PUSH2 0x4DE JUMPI PUSH1 0x0 DUP1 REVERT JUMPDEST POP PUSH2 0x33E PUSH2 0x4ED CALLDATASIZE PUSH1 0x4 PUSH2 0x4B40 JUMP JUMPDEST PUSH2 0x12E0 JUMP JUMPDEST CALLVALUE DUP1 ISZERO PUSH2 0x4FE JUMPI PUSH1 0x0 DUP1 REVERT JUMPDEST POP PUSH2 0x2B1 PUSH2 0x50D CALLDATASIZE PUSH1 0x4 PUSH2 0x4B40 JUMP JUMPDEST PUSH2 0x12F8 JUMP JUMPDEST CALLVALUE DUP1 ISZERO PUSH2 0x51E JUMPI PUSH1 0x0 DUP1 REVERT JUMPDEST POP PUSH2 0x2B1 PUSH2 0x52D CALLDATASIZE PUSH1 0x4 PUSH2 0x4AB4 JUMP JUMPDEST PUSH2 0x1378 JUMP JUMPDEST CALLVALUE DUP1 ISZERO PUSH2 0x53E JUMPI PUSH1 0x0 DUP1 REVERT JUMPDEST POP PUSH2 0x27C PUSH2 0x54D CALLDATASIZE PUSH1 0x4 PUSH2 0x4B62 JUMP JUMPDEST PUSH2 0x139A JUMP JUMPDEST CALLVALUE DUP1 ISZERO PUSH2 0x55E JUMPI PUSH1 0x0 DUP1 REVERT JUMPDEST POP PUSH2 0x2DF PUSH2 0x56D CALLDATASIZE PUSH1 0x4 PUSH2 0x4AB4 JUMP JUMPDEST PUSH2 0x13C3 JUMP JUMPDEST CALLVALUE DUP1 ISZERO PUSH2 0x57E JUMPI PUSH1 0x0 DUP1 REVERT JUMPDEST POP PUSH2 0x2B1 PUSH2 0x1566 JUMP JUMPDEST CALLVALUE DUP1 ISZERO PUSH2 0x593 JUMPI PUSH1 0x0 DUP1 REVERT JUMPDEST POP PUSH2 0x2B1 PUSH2 0x5A2 CALLDATASIZE PUSH1 0x4 PUSH2 0x4AB4 JUMP JUMPDEST PUSH1 0x1 PUSH1 0x1 PUSH1 0xA0 SHL SUB AND PUSH1 0x0 SWAP1 DUP2 MSTORE PUSH1 0x3 PUSH1 0x20 MSTORE PUSH1 0x40 SWAP1 KECCAK256 SLOAD SWAP1 JUMP JUMPDEST CALLVALUE DUP1 ISZERO PUSH2 0x5C9 JUMPI PUSH1 0x0 DUP1 REVERT JUMPDEST POP PUSH2 0x2B1 PUSH2 0x5D8 CALLDATASIZE PUSH1 0x4 PUSH2 0x4C6B JUMP JUMPDEST PUSH2 0x1585 JUMP JUMPDEST PUSH2 0x2B1 PUSH2 0x5EB CALLDATASIZE PUSH1 0x4 PUSH2 0x4C21 JUMP JUMPDEST PUSH2 0x164E JUMP JUMPDEST CALLVALUE DUP1 ISZERO PUSH2 0x5FC JUMPI PUSH1 0x0 DUP1 REVERT JUMPDEST POP PUSH2 0x2DF PUSH2 0x60B CALLDATASIZE PUSH1 0x4 PUSH2 0x4B62 JUMP JUMPDEST PUSH2 0x182C JUMP JUMPDEST CALLVALUE DUP1 ISZERO PUSH2 0x61C JUMPI PUSH1 0x0 DUP1 REVERT JUMPDEST POP PUSH2 0x630 PUSH2 0x62B CALLDATASIZE PUSH1 0x4 PUSH2 0x4AB4 JUMP JUMPDEST PUSH2 0x18DD JUMP JUMPDEST PUSH1 0x40 MLOAD PUSH2 0x288 SWAP2 SWAP1 PUSH2 0x4CD2 JUMP JUMPDEST CALLVALUE DUP1 ISZERO PUSH2 0x649 JUMPI PUSH1 0x0 DUP1 REVERT JUMPDEST POP PUSH2 0x2DF PUSH2 0x19DF JUMP JUMPDEST CALLVALUE DUP1 ISZERO PUSH2 0x65E JUMPI PUSH1 0x0 DUP1 REVERT JUMPDEST POP PUSH2 0x2B1 PUSH2 0x66D CALLDATASIZE PUSH1 0x4 PUSH2 0x4AD1 JUMP JUMPDEST PUSH2 0x1BD3 JUMP JUMPDEST CALLVALUE DUP1 ISZERO PUSH2 0x67E JUMPI PUSH1 0x0 DUP1 REVERT JUMPDEST POP PUSH2 0x2B1 PUSH2 0x68D CALLDATASIZE PUSH1 0x4 PUSH2 0x4B40 JUMP JUMPDEST PUSH2 0x1BEA JUMP JUMPDEST PUSH2 0x2B1 PUSH2 0x6A0 CALLDATASIZE PUSH1 0x4 PUSH2 0x4AEA JUMP JUMPDEST PUSH2 0x1C69 JUMP JUMPDEST CALLVALUE DUP1 ISZERO PUSH2 0x6B1 JUMPI PUSH1 0x0 DUP1 REVERT JUMPDEST POP PUSH2 0x630 PUSH2 0x6C0 CALLDATASIZE PUSH1 0x4 PUSH2 0x4AD1 JUMP JUMPDEST PUSH2 0x1DD8 JUMP JUMPDEST CALLVALUE DUP1 ISZERO PUSH2 0x6D1 JUMPI PUSH1 0x0 DUP1 REVERT JUMPDEST POP PUSH2 0x2B1 PUSH1 0x0 DUP2 JUMP JUMPDEST CALLVALUE DUP1 ISZERO PUSH2 0x6E6 JUMPI PUSH1 0x0 DUP1 REVERT JUMPDEST POP PUSH2 0x2DF PUSH2 0x6F5 CALLDATASIZE PUSH1 0x4 PUSH2 0x4B62 JUMP JUMPDEST PUSH2 0x1DF3 JUMP JUMPDEST CALLVALUE DUP1 ISZERO PUSH2 0x706 JUMPI PUSH1 0x0 DUP1 REVERT JUMPDEST POP PUSH2 0x2DF PUSH2 0x715 CALLDATASIZE PUSH1 0x4 PUSH2 0x4C21 JUMP JUMPDEST PUSH2 0x1E19 JUMP JUMPDEST CALLVALUE DUP1 ISZERO PUSH2 0x726 JUMPI PUSH1 0x0 DUP1 REVERT JUMPDEST POP PUSH2 0x72F PUSH2 0x223E JUMP JUMPDEST PUSH1 0x40 DUP1 MLOAD SWAP3 DUP4 MSTORE PUSH1 0x20 DUP4 ADD SWAP2 SWAP1 SWAP2 MSTORE ADD PUSH2 0x288 JUMP JUMPDEST CALLVALUE DUP1 ISZERO PUSH2 0x750 JUMPI PUSH1 0x0 DUP1 REVERT JUMPDEST POP PUSH2 0x2B1 PUSH2 0x75F CALLDATASIZE PUSH1 0x4 PUSH2 0x4B40 JUMP JUMPDEST PUSH2 0x2388 JUMP JUMPDEST CALLVALUE DUP1 ISZERO PUSH2 0x770 JUMPI PUSH1 0x0 DUP1 REVERT JUMPDEST POP PUSH2 0x2DF PUSH2 0x77F CALLDATASIZE PUSH1 0x4 PUSH2 0x4CE1 JUMP JUMPDEST PUSH1 0x5 DUP1 SLOAD PUSH1 0x1 PUSH1 0x1 PUSH1 0xA0 SHL SUB NOT SWAP1 DUP2 AND PUSH1 0x1 PUSH1 0x1 PUSH1 0xA0 SHL SUB SWAP8 DUP9 AND OR SWAP1 SWAP2 SSTORE PUSH1 0x6 DUP1 SLOAD DUP3 AND SWAP6 DUP8 AND SWAP6 SWAP1 SWAP6 OR SWAP1 SWAP5 SSTORE PUSH1 0x7 DUP1 SLOAD DUP6 AND SWAP4 DUP7 AND SWAP4 SWAP1 SWAP4 OR SWAP1 SWAP3 SSTORE PUSH1 0x8 DUP1 SLOAD DUP5 AND SWAP2 DUP6 AND SWAP2 SWAP1 SWAP2 OR SWAP1 SSTORE PUSH1 0x9 DUP1 SLOAD SWAP1 SWAP3 AND SWAP3 AND SWAP2 SWAP1 SWAP2 OR SWAP1 SSTORE JUMP JUMPDEST CALLVALUE DUP1 ISZERO PUSH2 0x7EA JUMPI PUSH1 0x0 DUP1 REVERT JUMPDEST POP PUSH2 0x2B1 PUSH2 0x7F9 CALLDATASIZE PUSH1 0x4 PUSH2 0x4C6B JUMP JUMPDEST PUSH2 0x2408 JUMP JUMPDEST PUSH1 0x1 PUSH1 0x1 PUSH1 0xA0 SHL SUB DUP4 AND PUSH1 0x0 SWAP1 DUP2 MSTORE PUSH1 0x3 PUSH1 0x20 MSTORE PUSH1 0x40 DUP2 KECCAK256 SLOAD DUP5 SWAP1 ISZERO DUP1 ISZERO SWAP1 PUSH2 0x835 JUMPI POP PUSH1 0x7 SLOAD PUSH1 0x1 PUSH1 0x1 PUSH1 0xA0 SHL SUB DUP3 DUP2 AND SWAP2 AND EQ ISZERO JUMPDEST PUSH1 0x40 MLOAD DUP1 PUSH1 0x40 ADD PUSH1 0x40 MSTORE DUP1 PUSH1 0x1 DUP2 MSTORE PUSH1 0x20 ADD PUSH1 0x27 PUSH1 0xF9 SHL DUP2 MSTORE POP SWAP1 PUSH2 0x876 JUMPI PUSH1 0x40 MLOAD PUSH3 0x461BCD PUSH1 0xE5 SHL DUP2 MSTORE PUSH1 0x4 ADD PUSH2 0x86D SWAP2 SWAP1 PUSH2 0x4D9C JUMP JUMPDEST PUSH1 0x40 MLOAD DUP1 SWAP2 SUB SWAP1 REVERT JUMPDEST POP PUSH2 0x883 CALLER DUP7 DUP7 DUP7 PUSH2 0x255D JUMP JUMPDEST SWAP6 SWAP5 POP POP POP POP POP JUMP JUMPDEST PUSH1 0x0 PUSH2 0x898 DUP2 CALLER PUSH2 0x2D27 JUMP JUMPDEST PUSH1 0x0 JUMPDEST DUP3 DUP2 LT ISZERO PUSH2 0x903 JUMPI PUSH2 0x8F1 DUP5 DUP5 DUP4 DUP2 DUP2 LT PUSH2 0x8B8 JUMPI PUSH2 0x8B8 PUSH2 0x4DAF JUMP JUMPDEST SWAP1 POP PUSH1 0x40 MUL ADD PUSH1 0x0 ADD CALLDATALOAD DUP6 DUP6 DUP5 DUP2 DUP2 LT PUSH2 0x8D4 JUMPI PUSH2 0x8D4 PUSH2 0x4DAF JUMP JUMPDEST SWAP1 POP PUSH1 0x40 MUL ADD PUSH1 0x20 ADD PUSH1 0x20 DUP2 ADD SWAP1 PUSH2 0x8EC SWAP2 SWAP1 PUSH2 0x4AB4 JUMP JUMPDEST PUSH2 0x2D8B JUMP JUMPDEST DUP1 PUSH2 0x8FB DUP2 PUSH2 0x4DDB JUMP JUMPDEST SWAP2 POP POP PUSH2 0x89B JUMP JUMPDEST POP POP POP POP JUMP JUMPDEST PUSH1 0x40 MLOAD PUSH4 0x6FB1A07 PUSH1 0xE0 SHL DUP2 MSTORE PUSH1 0x4 DUP2 ADD DUP3 SWAP1 MSTORE PUSH1 0x0 SWAP1 PUSH20 0xDEF1FAC7BF08F173D286BBBDCBEEADE695129840 SWAP1 PUSH4 0x6FB1A07 SWAP1 PUSH1 0x24 ADD PUSH1 0x20 PUSH1 0x40 MLOAD DUP1 DUP4 SUB DUP2 DUP7 GAS STATICCALL ISZERO DUP1 ISZERO PUSH2 0x95C JUMPI RETURNDATASIZE PUSH1 0x0 DUP1 RETURNDATACOPY RETURNDATASIZE PUSH1 0x0 REVERT JUMPDEST POP POP POP POP PUSH1 0x40 MLOAD RETURNDATASIZE PUSH1 0x1F NOT PUSH1 0x1F DUP3 ADD AND DUP3 ADD DUP1 PUSH1 0x40 MSTORE POP DUP2 ADD SWAP1 PUSH2 0x980 SWAP2 SWAP1 PUSH2 0x4DF6 JUMP JUMPDEST SWAP3 SWAP2 POP POP JUMP JUMPDEST PUSH1 0x9 SLOAD PUSH1 0x40 DUP1 MLOAD PUSH4 0xD0E30DB PUSH1 0xE4 SHL DUP2 MSTORE SWAP1 MLOAD CALLVALUE SWAP3 PUSH1 0x1 PUSH1 0x1 PUSH1 0xA0 SHL SUB AND SWAP2 PUSH4 0xD0E30DB0 SWAP2 DUP5 SWAP2 PUSH1 0x4 DUP1 DUP3 ADD SWAP3 PUSH1 0x0 SWAP3 SWAP1 SWAP2 SWAP1 DUP3 SWAP1 SUB ADD DUP2 DUP6 DUP9 DUP1 EXTCODESIZE ISZERO DUP1 ISZERO PUSH2 0x9CE JUMPI PUSH1 0x0 DUP1 REVERT JUMPDEST POP GAS CALL ISZERO DUP1 ISZERO PUSH2 0x9E2 JUMPI RETURNDATASIZE PUSH1 0x0 DUP1 RETURNDATACOPY RETURNDATASIZE PUSH1 0x0 REVERT JUMPDEST POP POP PUSH1 0x9 SLOAD PUSH2 0xA01 SWAP4 POP ADDRESS SWAP3 POP PUSH1 0x1 PUSH1 0x1 PUSH1 0xA0 SHL SUB AND SWAP1 POP DUP4 DUP6 PUSH2 0x2D95 JUMP JUMPDEST POP POP JUMP JUMPDEST PUSH1 0x6 SLOAD PUSH1 0x40 MLOAD PUSH4 0x70A08231 PUSH1 0xE0 SHL DUP2 MSTORE ADDRESS PUSH1 0x4 DUP3 ADD MSTORE PUSH1 0x0 SWAP2 DUP3 SWAP2 DUP3 SWAP2 PUSH1 0x1 PUSH1 0x1 PUSH1 0xA0 SHL SUB AND SWAP1 PUSH4 0x70A08231 SWAP1 PUSH1 0x24 ADD PUSH1 0x20 PUSH1 0x40 MLOAD DUP1 DUP4 SUB DUP2 DUP7 GAS STATICCALL ISZERO DUP1 ISZERO PUSH2 0xA52 JUMPI RETURNDATASIZE PUSH1 0x0 DUP1 RETURNDATACOPY RETURNDATASIZE PUSH1 0x0 REVERT JUMPDEST POP POP POP POP PUSH1 0x40 MLOAD RETURNDATASIZE PUSH1 0x1F NOT PUSH1 0x1F DUP3 ADD AND DUP3 ADD DUP1 PUSH1 0x40 MSTORE POP DUP2 ADD SWAP1 PUSH2 0xA76 SWAP2 SWAP1 PUSH2 0x4E13 JUMP JUMPDEST PUSH1 0x8 SLOAD PUSH1 0x40 MLOAD PUSH4 0x70A08231 PUSH1 0xE0 SHL DUP2 MSTORE ADDRESS PUSH1 0x4 DUP3 ADD MSTORE PUSH1 0x1 PUSH1 0x1 PUSH1 0xA0 SHL SUB SWAP1 SWAP2 AND SWAP1 PUSH4 0x70A08231 SWAP1 PUSH1 0x24 ADD PUSH1 0x20 PUSH1 0x40 MLOAD DUP1 DUP4 SUB DUP2 DUP7 GAS STATICCALL ISZERO DUP1 ISZERO PUSH2 0xABE JUMPI RETURNDATASIZE PUSH1 0x0 DUP1 RETURNDATACOPY RETURNDATASIZE PUSH1 0x0 REVERT JUMPDEST POP POP POP POP PUSH1 0x40 MLOAD RETURNDATASIZE PUSH1 0x1F NOT PUSH1 0x1F DUP3 ADD AND DUP3 ADD DUP1 PUSH1 0x40 MSTORE POP DUP2 ADD SWAP1 PUSH2 0xAE2 SWAP2 SWAP1 PUSH2 0x4E13 JUMP JUMPDEST PUSH1 0x7 SLOAD PUSH1 0x40 MLOAD PUSH4 0x70A08231 PUSH1 0xE0 SHL DUP2 MSTORE ADDRESS PUSH1 0x4 DUP3 ADD MSTORE PUSH1 0x1 PUSH1 0x1 PUSH1 0xA0 SHL SUB SWAP1 SWAP2 AND SWAP1 PUSH4 0x70A08231 SWAP1 PUSH1 0x24 ADD PUSH1 0x20 PUSH1 0x40 MLOAD DUP1 DUP4 SUB DUP2 DUP7 GAS STATICCALL ISZERO DUP1 ISZERO PUSH2 0xB2A JUMPI RETURNDATASIZE PUSH1 0x0 DUP1 RETURNDATACOPY RETURNDATASIZE PUSH1 0x0 REVERT JUMPDEST POP POP POP POP PUSH1 0x40 MLOAD RETURNDATASIZE PUSH1 0x1F NOT PUSH1 0x1F DUP3 ADD AND DUP3 ADD DUP1 PUSH1 0x40 MSTORE POP DUP2 ADD SWAP1 PUSH2 0xB4E SWAP2 SWAP1 PUSH2 0x4E13 JUMP JUMPDEST SWAP3 POP SWAP3 POP SWAP3 POP SWAP1 SWAP2 SWAP3 JUMP JUMPDEST PUSH1 0x9 SLOAD PUSH1 0x1 PUSH1 0x1 PUSH1 0xA0 SHL SUB AND PUSH1 0x0 DUP2 DUP2 MSTORE PUSH1 0x3 PUSH1 0x20 MSTORE PUSH1 0x40 DUP2 KECCAK256 SLOAD SWAP1 SWAP2 SWAP1 ISZERO DUP1 ISZERO SWAP1 PUSH2 0xB93 JUMPI POP PUSH1 0x7 SLOAD PUSH1 0x1 PUSH1 0x1 PUSH1 0xA0 SHL SUB DUP3 DUP2 AND SWAP2 AND EQ ISZERO JUMPDEST PUSH1 0x40 MLOAD DUP1 PUSH1 0x40 ADD PUSH1 0x40 MSTORE DUP1 PUSH1 0x1 DUP2 MSTORE PUSH1 0x20 ADD PUSH1 0x27 PUSH1 0xF9 SHL DUP2 MSTORE POP SWAP1 PUSH2 0xBCB JUMPI PUSH1 0x40 MLOAD PUSH3 0x461BCD PUSH1 0xE5 SHL DUP2 MSTORE PUSH1 0x4 ADD PUSH2 0x86D SWAP2 SWAP1 PUSH2 0x4D9C JUMP JUMPDEST POP DUP4 DUP1 TIMESTAMP GT ISZERO PUSH1 0x40 MLOAD DUP1 PUSH1 0x40 ADD PUSH1 0x40 MSTORE DUP1 PUSH1 0x1 DUP2 MSTORE PUSH1 0x20 ADD PUSH1 0x15 PUSH1 0xFA SHL DUP2 MSTORE POP SWAP1 PUSH2 0xC09 JUMPI PUSH1 0x40 MLOAD PUSH3 0x461BCD PUSH1 0xE5 SHL DUP2 MSTORE PUSH1 0x4 ADD PUSH2 0x86D SWAP2 SWAP1 PUSH2 0x4D9C JUMP JUMPDEST POP PUSH1 0x9 SLOAD PUSH1 0x0 SWAP1 PUSH2 0xC29 SWAP1 ADDRESS SWAP1 DUP12 SWAP1 PUSH1 0x1 PUSH1 0x1 PUSH1 0xA0 SHL SUB AND DUP12 DUP12 DUP11 PUSH2 0x3416 JUMP JUMPDEST PUSH1 0x9 SLOAD PUSH1 0x40 MLOAD PUSH4 0x2E1A7D4D PUSH1 0xE0 SHL DUP2 MSTORE PUSH1 0x4 DUP2 ADD DUP4 SWAP1 MSTORE SWAP2 SWAP3 POP PUSH1 0x1 PUSH1 0x1 PUSH1 0xA0 SHL SUB AND SWAP1 PUSH4 0x2E1A7D4D SWAP1 PUSH1 0x24 ADD PUSH1 0x0 PUSH1 0x40 MLOAD DUP1 DUP4 SUB DUP2 PUSH1 0x0 DUP8 DUP1 EXTCODESIZE ISZERO DUP1 ISZERO PUSH2 0xC70 JUMPI PUSH1 0x0 DUP1 REVERT JUMPDEST POP GAS CALL ISZERO DUP1 ISZERO PUSH2 0xC84 JUMPI RETURNDATASIZE PUSH1 0x0 DUP1 RETURNDATACOPY RETURNDATASIZE PUSH1 0x0 REVERT JUMPDEST POP POP PUSH1 0x40 MLOAD PUSH1 0x1 PUSH1 0x1 PUSH1 0xA0 SHL SUB DUP9 AND SWAP3 POP DUP4 ISZERO PUSH2 0x8FC MUL SWAP2 POP DUP4 SWAP1 PUSH1 0x0 DUP2 DUP2 DUP2 DUP6 DUP9 DUP9 CALL SWAP4 POP POP POP POP ISZERO DUP1 ISZERO PUSH2 0xCBE JUMPI RETURNDATASIZE PUSH1 0x0 DUP1 RETURNDATACOPY RETURNDATASIZE PUSH1 0x0 REVERT JUMPDEST POP SWAP9 SWAP8 POP POP POP POP POP POP POP POP JUMP JUMPDEST PUSH1 0x0 PUSH2 0xD4A DUP3 PUSH1 0x2 DUP6 DUP2 SLOAD DUP2 LT PUSH2 0xCE4 JUMPI PUSH2 0xCE4 PUSH2 0x4DAF JUMP JUMPDEST PUSH1 0x0 SWAP2 DUP3 MSTORE PUSH1 0x20 SWAP1 SWAP2 KECCAK256 PUSH1 0x1 PUSH1 0x4 SWAP1 SWAP3 MUL ADD ADD SLOAD PUSH1 0x2 DUP1 SLOAD PUSH1 0x1 PUSH1 0x1 PUSH1 0x70 SHL SUB SWAP1 SWAP3 AND SWAP2 DUP8 SWAP1 DUP2 LT PUSH2 0xD18 JUMPI PUSH2 0xD18 PUSH2 0x4DAF JUMP JUMPDEST PUSH1 0x0 SWAP2 DUP3 MSTORE PUSH1 0x20 SWAP1 SWAP2 KECCAK256 PUSH1 0x4 SWAP1 SWAP2 MUL ADD PUSH1 0x1 ADD SLOAD PUSH1 0x1 PUSH1 0x70 SHL SWAP1 DIV PUSH1 0x1 PUSH1 0x1 PUSH1 0x70 SHL SUB AND PUSH2 0xD45 DUP8 PUSH2 0xFE2 JUMP JUMPDEST PUSH2 0x34E3 JUMP JUMPDEST SWAP4 SWAP3 POP POP POP JUMP JUMPDEST PUSH1 0x0 DUP3 DUP2 MSTORE PUSH1 0x20 DUP2 SWAP1 MSTORE PUSH1 0x40 SWAP1 KECCAK256 PUSH1 0x1 ADD SLOAD PUSH2 0xD6D DUP2 CALLER PUSH2 0x2D27 JUMP JUMPDEST PUSH2 0xD77 DUP4 DUP4 PUSH2 0x3530 JUMP JUMPDEST POP POP POP JUMP JUMPDEST PUSH1 0x1 PUSH1 0x1 PUSH1 0xA0 SHL SUB DUP2 AND CALLER EQ PUSH2 0xDEC JUMPI PUSH1 0x40 MLOAD PUSH3 0x461BCD PUSH1 0xE5 SHL DUP2 MSTORE PUSH1 0x20 PUSH1 0x4 DUP3 ADD MSTORE PUSH1 0x2F PUSH1 0x24 DUP3 ADD MSTORE PUSH32 0x416363657373436F6E74726F6C3A2063616E206F6E6C792072656E6F756E6365 PUSH1 0x44 DUP3 ADD MSTORE PUSH15 0x103937B632B9903337B91039B2B633 PUSH1 0x89 SHL PUSH1 0x64 DUP3 ADD MSTORE PUSH1 0x84 ADD PUSH2 0x86D JUMP JUMPDEST PUSH2 0xA01 DUP3 DUP3 PUSH2 0x3552 JUMP JUMPDEST PUSH2 0xDFE PUSH2 0x48B9 JUMP JUMPDEST PUSH2 0xE06 PUSH2 0x48B9 JUMP JUMPDEST PUSH1 0x6 SLOAD PUSH1 0x1 PUSH1 0x1 PUSH1 0xA0 SHL SUB SWAP1 DUP2 AND PUSH1 0x0 SWAP1 DUP2 MSTORE PUSH1 0x3 PUSH1 0x20 MSTORE PUSH1 0x40 DUP1 DUP3 KECCAK256 SLOAD PUSH1 0x8 SLOAD SWAP1 SWAP4 AND DUP3 MSTORE SWAP1 KECCAK256 SLOAD PUSH1 0x2 DUP1 SLOAD DUP4 SWAP1 DUP2 LT PUSH2 0xE43 JUMPI PUSH2 0xE43 PUSH2 0x4DAF JUMP JUMPDEST SWAP1 PUSH1 0x0 MSTORE PUSH1 0x20 PUSH1 0x0 KECCAK256 SWAP1 PUSH1 0x4 MUL ADD PUSH1 0x2 DUP3 DUP2 SLOAD DUP2 LT PUSH2 0xE64 JUMPI PUSH2 0xE64 PUSH2 0x4DAF JUMP JUMPDEST PUSH1 0x0 SWAP2 DUP3 MSTORE PUSH1 0x20 SWAP2 DUP3 SWAP1 KECCAK256 PUSH1 0x40 DUP1 MLOAD PUSH1 0xA0 DUP2 ADD DUP3 MSTORE DUP6 SLOAD PUSH1 0x1 PUSH1 0x1 PUSH1 0xA0 SHL SUB AND DUP2 MSTORE PUSH1 0x1 DUP7 ADD SLOAD PUSH1 0x1 PUSH1 0x1 PUSH1 0x70 SHL SUB DUP1 DUP3 AND SWAP7 DUP4 ADD SWAP7 SWAP1 SWAP7 MSTORE PUSH1 0x1 PUSH1 0x70 SHL SWAP1 DIV DUP6 AND DUP2 DUP4 ADD MSTORE PUSH1 0x2 DUP7 ADD SLOAD SWAP1 SWAP5 AND PUSH1 0x60 DUP6 ADD MSTORE DUP1 MLOAD PUSH2 0x100 DUP2 ADD SWAP1 SWAP2 MSTORE PUSH1 0x4 SWAP1 SWAP3 MUL ADD SWAP2 SWAP1 DUP4 SWAP1 PUSH1 0x80 DUP4 ADD SWAP1 PUSH1 0x3 DUP4 ADD PUSH1 0x8 DUP3 DUP3 DUP3 PUSH1 0x20 MUL DUP3 ADD SWAP2 PUSH1 0x0 SWAP1 JUMPDEST DUP3 DUP3 SWAP1 SLOAD SWAP1 PUSH2 0x100 EXP SWAP1 DIV PUSH4 0xFFFFFFFF AND PUSH4 0xFFFFFFFF AND DUP2 MSTORE PUSH1 0x20 ADD SWAP1 PUSH1 0x4 ADD SWAP1 PUSH1 0x20 DUP3 PUSH1 0x3 ADD DIV SWAP3 DUP4 ADD SWAP3 PUSH1 0x1 SUB DUP3 MUL SWAP2 POP DUP1 DUP5 GT PUSH2 0xEE3 JUMPI POP POP POP SWAP3 SWAP1 SWAP4 MSTORE POP POP PUSH1 0x40 DUP1 MLOAD PUSH1 0xA0 DUP2 ADD DUP3 MSTORE DUP6 SLOAD PUSH1 0x1 PUSH1 0x1 PUSH1 0xA0 SHL SUB AND DUP2 MSTORE PUSH1 0x1 DUP7 ADD SLOAD PUSH1 0x1 PUSH1 0x1 PUSH1 0x70 SHL SUB DUP1 DUP3 AND PUSH1 0x20 DUP5 ADD MSTORE PUSH1 0x1 PUSH1 0x70 SHL SWAP1 SWAP2 DIV DUP2 AND DUP3 DUP5 ADD MSTORE PUSH1 0x2 DUP8 ADD SLOAD AND PUSH1 0x60 DUP3 ADD MSTORE DUP2 MLOAD PUSH2 0x100 DUP2 ADD SWAP3 DUP4 SWAP1 MSTORE SWAP5 SWAP7 POP SWAP4 DUP6 SWAP4 POP PUSH1 0x80 DUP6 ADD SWAP3 POP SWAP1 PUSH1 0x3 DUP5 ADD SWAP1 PUSH1 0x8 SWAP1 DUP3 PUSH1 0x0 DUP6 JUMPDEST DUP3 DUP3 SWAP1 SLOAD SWAP1 PUSH2 0x100 EXP SWAP1 DIV PUSH4 0xFFFFFFFF AND PUSH4 0xFFFFFFFF AND DUP2 MSTORE PUSH1 0x20 ADD SWAP1 PUSH1 0x4 ADD SWAP1 PUSH1 0x20 DUP3 PUSH1 0x3 ADD DIV SWAP3 DUP4 ADD SWAP3 PUSH1 0x1 SUB DUP3 MUL SWAP2 POP DUP1 DUP5 GT PUSH2 0xF91 JUMPI SWAP1 POP POP POP POP POP POP DUP2 MSTORE POP POP SWAP1 POP SWAP4 POP SWAP4 POP POP POP SWAP1 SWAP2 JUMP JUMPDEST PUSH1 0x0 DUP1 PUSH2 0xFED PUSH2 0x1566 JUMP JUMPDEST SWAP1 POP PUSH1 0x0 PUSH1 0x8 PUSH2 0xFFE DUP4 PUSH1 0x1 PUSH2 0x4E2C JUMP JUMPDEST PUSH2 0x1008 SWAP2 SWAP1 PUSH2 0x4E5A JUMP JUMPDEST SWAP1 POP PUSH1 0x0 DUP1 JUMPDEST PUSH1 0x8 DUP2 LT ISZERO PUSH2 0x10A5 JUMPI DUP4 DUP2 EQ DUP1 PUSH2 0x1024 JUMPI POP DUP3 DUP2 EQ JUMPDEST ISZERO PUSH2 0x102E JUMPI PUSH2 0x1093 JUMP JUMPDEST PUSH1 0x2 DUP7 DUP2 SLOAD DUP2 LT PUSH2 0x1041 JUMPI PUSH2 0x1041 PUSH2 0x4DAF JUMP JUMPDEST SWAP1 PUSH1 0x0 MSTORE PUSH1 0x20 PUSH1 0x0 KECCAK256 SWAP1 PUSH1 0x4 MUL ADD PUSH1 0x3 ADD DUP2 PUSH1 0x8 DUP2 LT PUSH2 0x1063 JUMPI PUSH2 0x1063 PUSH2 0x4DAF JUMP JUMPDEST PUSH1 0x8 SWAP2 DUP3 DUP3 DIV ADD SWAP2 SWAP1 MOD PUSH1 0x4 MUL SWAP1 SLOAD SWAP1 PUSH2 0x100 EXP SWAP1 DIV PUSH4 0xFFFFFFFF AND PUSH4 0xFFFFFFFF AND DUP3 PUSH2 0x1090 SWAP2 SWAP1 PUSH2 0x4E2C JUMP JUMPDEST SWAP2 POP JUMPDEST DUP1 PUSH2 0x109D DUP2 PUSH2 0x4DDB JUMP JUMPDEST SWAP2 POP POP PUSH2 0x100E JUMP JUMPDEST POP PUSH1 0x0 PUSH2 0x10BA DUP3 PUSH8 0xDE0B6B3A7640000 PUSH2 0x4E6E JUMP JUMPDEST PUSH2 0x10C6 SWAP1 PUSH2 0x3E8 PUSH2 0x4E6E JUMP JUMPDEST SWAP1 POP PUSH1 0x0 PUSH1 0x2 DUP8 DUP2 SLOAD DUP2 LT PUSH2 0x10DD JUMPI PUSH2 0x10DD PUSH2 0x4DAF JUMP JUMPDEST PUSH1 0x0 SWAP2 DUP3 MSTORE PUSH1 0x20 SWAP1 SWAP2 KECCAK256 PUSH1 0x4 SWAP1 SWAP2 MUL ADD PUSH1 0x1 ADD SLOAD PUSH2 0x110C SWAP1 PUSH1 0x1 PUSH1 0x70 SHL SWAP1 DIV PUSH1 0x1 PUSH1 0x1 PUSH1 0x70 SHL SUB AND PUSH1 0x2 PUSH2 0x4E8D JUMP JUMPDEST PUSH2 0x1117 SWAP1 PUSH1 0x96 PUSH2 0x4E8D JUMP JUMPDEST PUSH1 0x1 PUSH1 0x1 PUSH1 0x70 SHL SUB AND SWAP1 POP DUP1 DUP3 GT PUSH2 0x1133 JUMPI PUSH2 0x26AC SWAP6 POP PUSH2 0x1190 JUMP JUMPDEST DUP2 DUP2 LT DUP1 ISZERO PUSH2 0x114B JUMPI POP PUSH2 0x1148 DUP2 PUSH1 0x64 PUSH2 0x4E6E JUMP JUMPDEST DUP3 LT JUMPDEST ISZERO PUSH2 0x1178 JUMPI DUP1 PUSH2 0x115B DUP2 DUP5 PUSH2 0x4EBC JUMP JUMPDEST PUSH2 0x1165 SWAP2 SWAP1 PUSH2 0x4ED3 JUMP JUMPDEST PUSH2 0x1171 SWAP1 PUSH2 0x26AC PUSH2 0x4E2C JUMP JUMPDEST SWAP6 POP PUSH2 0x1190 JUMP JUMPDEST PUSH2 0x1183 DUP2 PUSH1 0x64 PUSH2 0x4E6E JUMP JUMPDEST DUP3 GT ISZERO PUSH2 0x1190 JUMPI PUSH2 0x270F SWAP6 POP JUMPDEST POP POP POP POP POP SWAP2 SWAP1 POP JUMP JUMPDEST PUSH1 0x9 SLOAD PUSH1 0x1 PUSH1 0x1 PUSH1 0xA0 SHL SUB AND PUSH1 0x0 DUP2 DUP2 MSTORE PUSH1 0x3 PUSH1 0x20 MSTORE PUSH1 0x40 DUP2 KECCAK256 SLOAD SWAP1 SWAP2 SWAP1 ISZERO DUP1 ISZERO SWAP1 PUSH2 0x11D4 JUMPI POP PUSH1 0x7 SLOAD PUSH1 0x1 PUSH1 0x1 PUSH1 0xA0 SHL SUB DUP3 DUP2 AND SWAP2 AND EQ ISZERO JUMPDEST PUSH1 0x40 MLOAD DUP1 PUSH1 0x40 ADD PUSH1 0x40 MSTORE DUP1 PUSH1 0x1 DUP2 MSTORE PUSH1 0x20 ADD PUSH1 0x27 PUSH1 0xF9 SHL DUP2 MSTORE POP SWAP1 PUSH2 0x120C JUMPI PUSH1 0x40 MLOAD PUSH3 0x461BCD PUSH1 0xE5 SHL DUP2 MSTORE PUSH1 0x4 ADD PUSH2 0x86D SWAP2 SWAP1 PUSH2 0x4D9C JUMP JUMPDEST POP DUP4 DUP1 TIMESTAMP GT ISZERO PUSH1 0x40 MLOAD DUP1 PUSH1 0x40 ADD PUSH1 0x40 MSTORE DUP1 PUSH1 0x1 DUP2 MSTORE PUSH1 0x20 ADD PUSH1 0x15 PUSH1 0xFA SHL DUP2 MSTORE POP SWAP1 PUSH2 0x124A JUMPI PUSH1 0x40 MLOAD PUSH3 0x461BCD PUSH1 0xE5 SHL DUP2 MSTORE PUSH1 0x4 ADD PUSH2 0x86D SWAP2 SWAP1 PUSH2 0x4D9C JUMP JUMPDEST POP PUSH1 0x9 SLOAD PUSH1 0x40 DUP1 MLOAD PUSH4 0xD0E30DB PUSH1 0xE4 SHL DUP2 MSTORE SWAP1 MLOAD CALLVALUE SWAP3 PUSH1 0x1 PUSH1 0x1 PUSH1 0xA0 SHL SUB AND SWAP2 PUSH4 0xD0E30DB0 SWAP2 DUP5 SWAP2 PUSH1 0x4 DUP1 DUP3 ADD SWAP3 PUSH1 0x0 SWAP3 SWAP1 SWAP2 SWAP1 DUP3 SWAP1 SUB ADD DUP2 DUP6 DUP9 DUP1 EXTCODESIZE ISZERO DUP1 ISZERO PUSH2 0x1293 JUMPI PUSH1 0x0 DUP1 REVERT JUMPDEST POP GAS CALL ISZERO DUP1 ISZERO PUSH2 0x12A7 JUMPI RETURNDATASIZE PUSH1 0x0 DUP1 RETURNDATACOPY RETURNDATASIZE PUSH1 0x0 REVERT JUMPDEST POP POP PUSH1 0x9 SLOAD PUSH2 0x12C8 SWAP4 POP ADDRESS SWAP3 POP PUSH1 0x1 PUSH1 0x1 PUSH1 0xA0 SHL SUB AND SWAP1 POP DUP11 DUP5 DUP12 DUP11 PUSH2 0x3416 JUMP JUMPDEST SWAP9 SWAP8 POP POP POP POP POP POP POP POP JUMP JUMPDEST PUSH2 0xD77 CALLER DUP5 DUP5 DUP5 PUSH2 0x2D95 JUMP JUMPDEST PUSH1 0x0 DUP3 DUP2 MSTORE PUSH1 0x1 PUSH1 0x20 MSTORE PUSH1 0x40 DUP2 KECCAK256 PUSH2 0xD4A SWAP1 DUP4 PUSH2 0x3574 JUMP JUMPDEST PUSH1 0x0 PUSH2 0xD4A DUP3 PUSH1 0x2 DUP6 DUP2 SLOAD DUP2 LT PUSH2 0x1311 JUMPI PUSH2 0x1311 PUSH2 0x4DAF JUMP JUMPDEST SWAP1 PUSH1 0x0 MSTORE PUSH1 0x20 PUSH1 0x0 KECCAK256 SWAP1 PUSH1 0x4 MUL ADD PUSH1 0x1 ADD PUSH1 0xE SWAP1 SLOAD SWAP1 PUSH2 0x100 EXP SWAP1 DIV PUSH1 0x1 PUSH1 0x1 PUSH1 0x70 SHL SUB AND PUSH1 0x1 PUSH1 0x1 PUSH1 0x70 SHL SUB AND PUSH1 0x2 DUP7 DUP2 SLOAD DUP2 LT PUSH2 0x1352 JUMPI PUSH2 0x1352 PUSH2 0x4DAF JUMP JUMPDEST PUSH1 0x0 SWAP2 DUP3 MSTORE PUSH1 0x20 SWAP1 SWAP2 KECCAK256 PUSH1 0x1 PUSH1 0x4 SWAP1 SWAP3 MUL ADD ADD SLOAD PUSH1 0x1 PUSH1 0x1 PUSH1 0x70 SHL SUB AND PUSH2 0xD45 DUP8 PUSH2 0xFE2 JUMP JUMPDEST PUSH1 0x1 PUSH1 0x1 PUSH1 0xA0 SHL SUB DUP2 AND PUSH1 0x0 SWAP1 DUP2 MSTORE PUSH1 0x3 PUSH1 0x20 MSTORE PUSH1 0x40 DUP2 KECCAK256 SLOAD PUSH2 0x980 SWAP1 PUSH2 0xFE2 JUMP JUMPDEST PUSH1 0x0 SWAP2 DUP3 MSTORE PUSH1 0x20 DUP3 DUP2 MSTORE PUSH1 0x40 DUP1 DUP5 KECCAK256 PUSH1 0x1 PUSH1 0x1 PUSH1 0xA0 SHL SUB SWAP4 SWAP1 SWAP4 AND DUP5 MSTORE SWAP2 SWAP1 MSTORE SWAP1 KECCAK256 SLOAD PUSH1 0xFF AND SWAP1 JUMP JUMPDEST PUSH1 0x1 PUSH1 0x1 PUSH1 0xA0 SHL SUB DUP2 AND PUSH1 0x0 SWAP1 DUP2 MSTORE PUSH1 0x3 PUSH1 0x20 MSTORE PUSH1 0x40 SWAP1 KECCAK256 SLOAD DUP2 SWAP1 ISZERO DUP1 ISZERO SWAP1 PUSH2 0x13FA JUMPI POP PUSH1 0x7 SLOAD PUSH1 0x1 PUSH1 0x1 PUSH1 0xA0 SHL SUB DUP3 DUP2 AND SWAP2 AND EQ ISZERO JUMPDEST PUSH1 0x40 MLOAD DUP1 PUSH1 0x40 ADD PUSH1 0x40 MSTORE DUP1 PUSH1 0x1 DUP2 MSTORE PUSH1 0x20 ADD PUSH1 0x27 PUSH1 0xF9 SHL DUP2 MSTORE POP SWAP1 PUSH2 0x1432 JUMPI PUSH1 0x40 MLOAD PUSH3 0x461BCD PUSH1 0xE5 SHL DUP2 MSTORE PUSH1 0x4 ADD PUSH2 0x86D SWAP2 SWAP1 PUSH2 0x4D9C JUMP JUMPDEST POP PUSH1 0x1 PUSH1 0x1 PUSH1 0xA0 SHL SUB DUP3 AND PUSH1 0x0 DUP2 DUP2 MSTORE PUSH1 0x3 PUSH1 0x20 MSTORE PUSH1 0x40 SWAP1 DUP2 SWAP1 KECCAK256 SLOAD SWAP1 MLOAD PUSH4 0x70A08231 PUSH1 0xE0 SHL DUP2 MSTORE ADDRESS PUSH1 0x4 DUP3 ADD MSTORE SWAP1 SWAP2 SWAP1 PUSH4 0x70A08231 SWAP1 PUSH1 0x24 ADD PUSH1 0x20 PUSH1 0x40 MLOAD DUP1 DUP4 SUB DUP2 DUP7 GAS STATICCALL ISZERO DUP1 ISZERO PUSH2 0x1489 JUMPI RETURNDATASIZE PUSH1 0x0 DUP1 RETURNDATACOPY RETURNDATASIZE PUSH1 0x0 REVERT JUMPDEST POP POP POP POP PUSH1 0x40 MLOAD RETURNDATASIZE PUSH1 0x1F NOT PUSH1 0x1F DUP3 ADD AND DUP3 ADD DUP1 PUSH1 0x40 MSTORE POP DUP2 ADD SWAP1 PUSH2 0x14AD SWAP2 SWAP1 PUSH2 0x4E13 JUMP JUMPDEST PUSH1 0x2 DUP3 DUP2 SLOAD DUP2 LT PUSH2 0x14C0 JUMPI PUSH2 0x14C0 PUSH2 0x4DAF JUMP JUMPDEST PUSH1 0x0 SWAP2 DUP3 MSTORE PUSH1 0x20 SWAP1 SWAP2 KECCAK256 PUSH1 0x4 SWAP2 DUP3 MUL ADD PUSH1 0x1 ADD DUP1 SLOAD PUSH1 0x1 PUSH1 0x1 PUSH1 0x70 SHL SUB NOT AND PUSH1 0x1 PUSH1 0x1 PUSH1 0x70 SHL SUB SWAP4 SWAP1 SWAP4 AND SWAP3 SWAP1 SWAP3 OR SWAP1 SWAP2 SSTORE PUSH1 0x7 SLOAD PUSH1 0x40 MLOAD PUSH4 0x70A08231 PUSH1 0xE0 SHL DUP2 MSTORE ADDRESS SWAP3 DUP2 ADD SWAP3 SWAP1 SWAP3 MSTORE PUSH1 0x1 PUSH1 0x1 PUSH1 0xA0 SHL SUB AND SWAP1 PUSH4 0x70A08231 SWAP1 PUSH1 0x24 ADD PUSH1 0x20 PUSH1 0x40 MLOAD DUP1 DUP4 SUB DUP2 DUP7 GAS STATICCALL ISZERO DUP1 ISZERO PUSH2 0x153A JUMPI RETURNDATASIZE PUSH1 0x0 DUP1 RETURNDATACOPY RETURNDATASIZE PUSH1 0x0 REVERT JUMPDEST POP POP POP POP PUSH1 0x40 MLOAD RETURNDATASIZE PUSH1 0x1F NOT PUSH1 0x1F DUP3 ADD AND DUP3 ADD DUP1 PUSH1 0x40 MSTORE POP DUP2 ADD SWAP1 PUSH2 0x155E SWAP2 SWAP1 PUSH2 0x4E13 JUMP JUMPDEST PUSH1 0x4 SSTORE POP POP POP JUMP JUMPDEST PUSH1 0x0 PUSH1 0x8 PUSH2 0x1576 PUSH2 0x3840 TIMESTAMP PUSH2 0x4ED3 JUMP JUMPDEST PUSH2 0x1580 SWAP2 SWAP1 PUSH2 0x4E5A JUMP JUMPDEST SWAP1 POP SWAP1 JUMP JUMPDEST PUSH1 0x1 PUSH1 0x1 PUSH1 0xA0 SHL SUB DUP7 AND PUSH1 0x0 SWAP1 DUP2 MSTORE PUSH1 0x3 PUSH1 0x20 MSTORE PUSH1 0x40 DUP2 KECCAK256 SLOAD DUP8 SWAP1 ISZERO DUP1 ISZERO SWAP1 PUSH2 0x15BC JUMPI POP PUSH1 0x7 SLOAD PUSH1 0x1 PUSH1 0x1 PUSH1 0xA0 SHL SUB DUP3 DUP2 AND SWAP2 AND EQ ISZERO JUMPDEST PUSH1 0x40 MLOAD DUP1 PUSH1 0x40 ADD PUSH1 0x40 MSTORE DUP1 PUSH1 0x1 DUP2 MSTORE PUSH1 0x20 ADD PUSH1 0x27 PUSH1 0xF9 SHL DUP2 MSTORE POP SWAP1 PUSH2 0x15F4 JUMPI PUSH1 0x40 MLOAD PUSH3 0x461BCD PUSH1 0xE5 SHL DUP2 MSTORE PUSH1 0x4 ADD PUSH2 0x86D SWAP2 SWAP1 PUSH2 0x4D9C JUMP JUMPDEST POP DUP4 DUP1 TIMESTAMP GT ISZERO PUSH1 0x40 MLOAD DUP1 PUSH1 0x40 ADD PUSH1 0x40 MSTORE DUP1 PUSH1 0x1 DUP2 MSTORE PUSH1 0x20 ADD PUSH1 0x15 PUSH1 0xFA SHL DUP2 MSTORE POP SWAP1 PUSH2 0x1632 JUMPI PUSH1 0x40 MLOAD PUSH3 0x461BCD PUSH1 0xE5 SHL DUP2 MSTORE PUSH1 0x4 ADD PUSH2 0x86D SWAP2 SWAP1 PUSH2 0x4D9C JUMP JUMPDEST POP PUSH2 0x1641 CALLER DUP11 DUP11 DUP11 DUP11 DUP10 PUSH2 0x3416 JUMP JUMPDEST SWAP10 SWAP9 POP POP POP POP POP POP POP POP POP JUMP JUMPDEST PUSH1 0x9 SLOAD PUSH1 0x1 PUSH1 0x1 PUSH1 0xA0 SHL SUB AND PUSH1 0x0 DUP2 DUP2 MSTORE PUSH1 0x3 PUSH1 0x20 MSTORE PUSH1 0x40 DUP2 KECCAK256 SLOAD SWAP1 SWAP2 SWAP1 ISZERO DUP1 ISZERO SWAP1 PUSH2 0x1688 JUMPI POP PUSH1 0x7 SLOAD PUSH1 0x1 PUSH1 0x1 PUSH1 0xA0 SHL SUB DUP3 DUP2 AND SWAP2 AND EQ ISZERO JUMPDEST PUSH1 0x40 MLOAD DUP1 PUSH1 0x40 ADD PUSH1 0x40 MSTORE DUP1 PUSH1 0x1 DUP2 MSTORE PUSH1 0x20 ADD PUSH1 0x27 PUSH1 0xF9 SHL DUP2 MSTORE POP SWAP1 PUSH2 0x16C0 JUMPI PUSH1 0x40 MLOAD PUSH3 0x461BCD PUSH1 0xE5 SHL DUP2 MSTORE PUSH1 0x4 ADD PUSH2 0x86D SWAP2 SWAP1 PUSH2 0x4D9C JUMP JUMPDEST POP DUP4 DUP1 TIMESTAMP GT ISZERO PUSH1 0x40 MLOAD DUP1 PUSH1 0x40 ADD PUSH1 0x40 MSTORE DUP1 PUSH1 0x1 DUP2 MSTORE PUSH1 0x20 ADD PUSH1 0x15 PUSH1 0xFA SHL DUP2 MSTORE POP SWAP1 PUSH2 0x16FE JUMPI PUSH1 0x40 MLOAD PUSH3 0x461BCD PUSH1 0xE5 SHL DUP2 MSTORE PUSH1 0x4 ADD PUSH2 0x86D SWAP2 SWAP1 PUSH2 0x4D9C JUMP JUMPDEST POP PUSH1 0x9 SLOAD PUSH1 0x40 DUP1 MLOAD PUSH4 0xD0E30DB PUSH1 0xE4 SHL DUP2 MSTORE SWAP1 MLOAD CALLVALUE SWAP3 PUSH1 0x1 PUSH1 0x1 PUSH1 0xA0 SHL SUB AND SWAP2 PUSH4 0xD0E30DB0 SWAP2 DUP5 SWAP2 PUSH1 0x4 DUP1 DUP3 ADD SWAP3 PUSH1 0x0 SWAP3 SWAP1 SWAP2 SWAP1 DUP3 SWAP1 SUB ADD DUP2 DUP6 DUP9 DUP1 EXTCODESIZE ISZERO DUP1 ISZERO PUSH2 0x1747 JUMPI PUSH1 0x0 DUP1 REVERT JUMPDEST POP GAS CALL ISZERO DUP1 ISZERO PUSH2 0x175B JUMPI RETURNDATASIZE PUSH1 0x0 DUP1 RETURNDATACOPY RETURNDATASIZE PUSH1 0x0 REVERT JUMPDEST POP POP PUSH1 0x9 SLOAD PUSH2 0x177C SWAP4 POP ADDRESS SWAP3 POP PUSH1 0x1 PUSH1 0x1 PUSH1 0xA0 SHL SUB AND SWAP1 POP DUP11 DUP5 DUP12 DUP11 PUSH2 0x3580 JUMP JUMPDEST POP PUSH1 0x0 PUSH2 0x1789 DUP9 DUP4 PUSH2 0x4EBC JUMP JUMPDEST PUSH1 0x9 SLOAD PUSH1 0x40 MLOAD PUSH4 0x2E1A7D4D PUSH1 0xE0 SHL DUP2 MSTORE PUSH1 0x4 DUP2 ADD DUP4 SWAP1 MSTORE SWAP2 SWAP3 POP PUSH1 0x1 PUSH1 0x1 PUSH1 0xA0 SHL SUB AND SWAP1 PUSH4 0x2E1A7D4D SWAP1 PUSH1 0x24 ADD PUSH1 0x0 PUSH1 0x40 MLOAD DUP1 DUP4 SUB DUP2 PUSH1 0x0 DUP8 DUP1 EXTCODESIZE ISZERO DUP1 ISZERO PUSH2 0x17D0 JUMPI PUSH1 0x0 DUP1 REVERT JUMPDEST POP GAS CALL ISZERO DUP1 ISZERO PUSH2 0x17E4 JUMPI RETURNDATASIZE PUSH1 0x0 DUP1 RETURNDATACOPY RETURNDATASIZE PUSH1 0x0 REVERT JUMPDEST POP POP PUSH1 0x40 MLOAD PUSH1 0x1 PUSH1 0x1 PUSH1 0xA0 SHL SUB DUP10 AND SWAP3 POP DUP4 ISZERO PUSH2 0x8FC MUL SWAP2 POP DUP4 SWAP1 PUSH1 0x0 DUP2 DUP2 DUP2 DUP6 DUP9 DUP9 CALL SWAP4 POP POP POP POP ISZERO DUP1 ISZERO PUSH2 0x181E JUMPI RETURNDATASIZE PUSH1 0x0 DUP1 RETURNDATACOPY RETURNDATASIZE PUSH1 0x0 REVERT JUMPDEST POP SWAP7 SWAP9 SWAP8 POP POP POP POP POP POP POP POP JUMP JUMPDEST PUSH1 0x9 SLOAD PUSH1 0x0 SWAP1 PUSH2 0x1848 SWAP1 CALLER SWAP1 PUSH1 0x1 PUSH1 0x1 PUSH1 0xA0 SHL SUB AND DUP6 ADDRESS PUSH2 0x255D JUMP JUMPDEST PUSH1 0x9 SLOAD PUSH1 0x40 MLOAD PUSH4 0x2E1A7D4D PUSH1 0xE0 SHL DUP2 MSTORE PUSH1 0x4 DUP2 ADD DUP4 SWAP1 MSTORE SWAP2 SWAP3 POP PUSH1 0x1 PUSH1 0x1 PUSH1 0xA0 SHL SUB AND SWAP1 PUSH4 0x2E1A7D4D SWAP1 PUSH1 0x24 ADD PUSH1 0x0 PUSH1 0x40 MLOAD DUP1 DUP4 SUB DUP2 PUSH1 0x0 DUP8 DUP1 EXTCODESIZE ISZERO DUP1 ISZERO PUSH2 0x188F JUMPI PUSH1 0x0 DUP1 REVERT JUMPDEST POP GAS CALL ISZERO DUP1 ISZERO PUSH2 0x18A3 JUMPI RETURNDATASIZE PUSH1 0x0 DUP1 RETURNDATACOPY RETURNDATASIZE PUSH1 0x0 REVERT JUMPDEST POP POP PUSH1 0x40 MLOAD PUSH1 0x1 PUSH1 0x1 PUSH1 0xA0 SHL SUB DUP6 AND SWAP3 POP DUP4 ISZERO PUSH2 0x8FC MUL SWAP2 POP DUP4 SWAP1 PUSH1 0x0 DUP2 DUP2 DUP2 DUP6 DUP9 DUP9 CALL SWAP4 POP POP POP POP ISZERO DUP1 ISZERO PUSH2 0x903 JUMPI RETURNDATASIZE PUSH1 0x0 DUP1 RETURNDATACOPY RETURNDATASIZE PUSH1 0x0 REVERT JUMPDEST PUSH2 0x18E5 PUSH2 0x48B9 JUMP JUMPDEST PUSH1 0x1 PUSH1 0x1 PUSH1 0xA0 SHL SUB DUP3 AND PUSH1 0x0 SWAP1 DUP2 MSTORE PUSH1 0x3 PUSH1 0x20 MSTORE PUSH1 0x40 SWAP1 KECCAK256 SLOAD PUSH1 0x2 DUP1 SLOAD SWAP1 SWAP2 SWAP1 DUP2 LT PUSH2 0x1913 JUMPI PUSH2 0x1913 PUSH2 0x4DAF JUMP JUMPDEST PUSH1 0x0 SWAP2 DUP3 MSTORE PUSH1 0x20 SWAP2 DUP3 SWAP1 KECCAK256 PUSH1 0x40 DUP1 MLOAD PUSH1 0xA0 DUP2 ADD DUP3 MSTORE PUSH1 0x4 SWAP1 SWAP4 MUL SWAP1 SWAP2 ADD DUP1 SLOAD PUSH1 0x1 PUSH1 0x1 PUSH1 0xA0 SHL SUB AND DUP4 MSTORE PUSH1 0x1 DUP2 ADD SLOAD PUSH1 0x1 PUSH1 0x1 PUSH1 0x70 SHL SUB DUP1 DUP3 AND SWAP6 DUP6 ADD SWAP6 SWAP1 SWAP6 MSTORE PUSH1 0x1 PUSH1 0x70 SHL SWAP1 DIV DUP5 AND DUP4 DUP4 ADD MSTORE PUSH1 0x2 DUP2 ADD SLOAD SWAP1 SWAP4 AND PUSH1 0x60 DUP4 ADD MSTORE DUP1 MLOAD PUSH2 0x100 DUP2 ADD SWAP1 SWAP2 MSTORE SWAP1 SWAP2 SWAP1 PUSH1 0x80 DUP4 ADD SWAP1 PUSH1 0x3 DUP4 ADD PUSH1 0x8 DUP3 DUP3 DUP3 PUSH1 0x20 MUL DUP3 ADD SWAP2 PUSH1 0x0 SWAP1 JUMPDEST DUP3 DUP3 SWAP1 SLOAD SWAP1 PUSH2 0x100 EXP SWAP1 DIV PUSH4 0xFFFFFFFF AND PUSH4 0xFFFFFFFF AND DUP2 MSTORE PUSH1 0x20 ADD SWAP1 PUSH1 0x4 ADD SWAP1 PUSH1 0x20 DUP3 PUSH1 0x3 ADD DIV SWAP3 DUP4 ADD SWAP3 PUSH1 0x1 SUB DUP3 MUL SWAP2 POP DUP1 DUP5 GT PUSH2 0x1993 JUMPI SWAP1 POP POP POP POP POP POP DUP2 MSTORE POP POP SWAP1 POP SWAP2 SWAP1 POP JUMP JUMPDEST PUSH1 0xA SLOAD PUSH1 0x40 DUP1 MLOAD DUP1 DUP3 ADD SWAP1 SWAP2 MSTORE PUSH1 0x1 DUP2 MSTORE PUSH1 0x41 PUSH1 0xF8 SHL PUSH1 0x20 DUP3 ADD MSTORE SWAP1 PUSH1 0x1 PUSH1 0xA0 SHL SWAP1 DIV PUSH1 0xFF AND ISZERO PUSH2 0x1A23 JUMPI PUSH1 0x40 MLOAD PUSH3 0x461BCD PUSH1 0xE5 SHL DUP2 MSTORE PUSH1 0x4 ADD PUSH2 0x86D SWAP2 SWAP1 PUSH2 0x4D9C JUMP JUMPDEST POP PUSH1 0xA DUP1 SLOAD PUSH1 0xFF PUSH1 0xA0 SHL NOT AND PUSH1 0x1 PUSH1 0xA0 SHL OR SWAP1 SSTORE PUSH2 0x1A3F PUSH2 0x48EE JUMP JUMPDEST PUSH1 0x40 DUP1 MLOAD PUSH1 0xA0 DUP2 ADD DUP3 MSTORE PUSH1 0x0 DUP1 DUP3 MSTORE PUSH1 0x20 DUP3 ADD DUP2 DUP2 MSTORE SWAP3 DUP3 ADD DUP2 DUP2 MSTORE PUSH1 0x60 DUP4 ADD DUP3 DUP2 MSTORE PUSH1 0x80 DUP5 ADD DUP7 DUP2 MSTORE PUSH1 0x2 DUP1 SLOAD PUSH1 0x1 DUP2 ADD DUP3 SSTORE SWAP5 MSTORE DUP5 MLOAD PUSH32 0x405787FA12A823E0F2B7631CC41B3BA8828B3321CA811111FA75CD3AA3BB5ACE PUSH1 0x4 SWAP1 SWAP6 MUL SWAP5 DUP6 ADD DUP1 SLOAD PUSH1 0x1 PUSH1 0x1 PUSH1 0xA0 SHL SUB NOT AND PUSH1 0x1 PUSH1 0x1 PUSH1 0xA0 SHL SUB SWAP1 SWAP3 AND SWAP2 SWAP1 SWAP2 OR DUP2 SSTORE SWAP6 MLOAD PUSH32 0x405787FA12A823E0F2B7631CC41B3BA8828B3321CA811111FA75CD3AA3BB5ACF DUP6 ADD DUP1 SLOAD SWAP5 MLOAD PUSH1 0x1 PUSH1 0x1 PUSH1 0x70 SHL SUB SWAP3 DUP4 AND PUSH1 0x1 PUSH1 0x1 PUSH1 0xE0 SHL SUB NOT SWAP1 SWAP7 AND SWAP6 SWAP1 SWAP6 OR PUSH1 0x1 PUSH1 0x70 SHL SWAP6 DUP4 AND SWAP6 SWAP1 SWAP6 MUL SWAP5 SWAP1 SWAP5 OR SWAP1 SWAP4 SSTORE SWAP1 MLOAD PUSH32 0x405787FA12A823E0F2B7631CC41B3BA8828B3321CA811111FA75CD3AA3BB5AD0 DUP5 ADD DUP1 SLOAD PUSH1 0x1 PUSH1 0x1 PUSH1 0x70 SHL SUB NOT AND SWAP2 SWAP1 SWAP4 AND OR SWAP1 SWAP2 SSTORE MLOAD SWAP2 SWAP3 SWAP2 PUSH2 0x1B7F SWAP2 PUSH32 0x405787FA12A823E0F2B7631CC41B3BA8828B3321CA811111FA75CD3AA3BB5AD1 ADD SWAP1 PUSH1 0x8 PUSH2 0x490D JUMP JUMPDEST POP POP PUSH1 0x6 SLOAD PUSH2 0x1BAE SWAP2 POP PUSH1 0x1 PUSH1 0x1 PUSH1 0xA0 SHL SUB AND PUSH10 0xD3C21BCECCEDA1000000 PUSH10 0x69E10DE76676D0800000 CALLER PUSH2 0x1E19 JUMP JUMPDEST PUSH1 0x8 SLOAD PUSH2 0x1BD0 SWAP1 PUSH1 0x1 PUSH1 0x1 PUSH1 0xA0 SHL SUB AND PUSH10 0x943B1377290CBD800000 DUP1 CALLER PUSH2 0x1E19 JUMP JUMPDEST POP JUMP JUMPDEST PUSH1 0x0 DUP2 DUP2 MSTORE PUSH1 0x1 PUSH1 0x20 MSTORE PUSH1 0x40 DUP2 KECCAK256 PUSH2 0x980 SWAP1 PUSH2 0x3819 JUMP JUMPDEST PUSH1 0x0 PUSH2 0xD4A DUP3 PUSH1 0x2 DUP6 DUP2 SLOAD DUP2 LT PUSH2 0x1C03 JUMPI PUSH2 0x1C03 PUSH2 0x4DAF JUMP JUMPDEST PUSH1 0x0 SWAP2 DUP3 MSTORE PUSH1 0x20 SWAP1 SWAP2 KECCAK256 PUSH1 0x1 PUSH1 0x4 SWAP1 SWAP3 MUL ADD ADD SLOAD PUSH1 0x2 DUP1 SLOAD PUSH1 0x1 PUSH1 0x1 PUSH1 0x70 SHL SUB SWAP1 SWAP3 AND SWAP2 DUP8 SWAP1 DUP2 LT PUSH2 0x1C37 JUMPI PUSH2 0x1C37 PUSH2 0x4DAF JUMP JUMPDEST PUSH1 0x0 SWAP2 DUP3 MSTORE PUSH1 0x20 SWAP1 SWAP2 KECCAK256 PUSH1 0x4 SWAP1 SWAP2 MUL ADD PUSH1 0x1 ADD SLOAD PUSH1 0x1 PUSH1 0x70 SHL SWAP1 DIV PUSH1 0x1 PUSH1 0x1 PUSH1 0x70 SHL SUB AND PUSH2 0x1C64 DUP8 PUSH2 0xFE2 JUMP JUMPDEST PUSH2 0x3823 JUMP JUMPDEST PUSH1 0x9 SLOAD PUSH1 0x1 PUSH1 0x1 PUSH1 0xA0 SHL SUB AND PUSH1 0x0 DUP2 DUP2 MSTORE PUSH1 0x3 PUSH1 0x20 MSTORE PUSH1 0x40 DUP2 KECCAK256 SLOAD SWAP1 SWAP2 SWAP1 ISZERO DUP1 ISZERO SWAP1 PUSH2 0x1CA3 JUMPI POP PUSH1 0x7 SLOAD PUSH1 0x1 PUSH1 0x1 PUSH1 0xA0 SHL SUB DUP3 DUP2 AND SWAP2 AND EQ ISZERO JUMPDEST PUSH1 0x40 MLOAD DUP1 PUSH1 0x40 ADD PUSH1 0x40 MSTORE DUP1 PUSH1 0x1 DUP2 MSTORE PUSH1 0x20 ADD PUSH1 0x27 PUSH1 0xF9 SHL DUP2 MSTORE POP SWAP1 PUSH2 0x1CDB JUMPI PUSH1 0x40 MLOAD PUSH3 0x461BCD PUSH1 0xE5 SHL DUP2 MSTORE PUSH1 0x4 ADD PUSH2 0x86D SWAP2 SWAP1 PUSH2 0x4D9C JUMP JUMPDEST POP DUP4 DUP1 TIMESTAMP GT ISZERO PUSH1 0x40 MLOAD DUP1 PUSH1 0x40 ADD PUSH1 0x40 MSTORE DUP1 PUSH1 0x1 DUP2 MSTORE PUSH1 0x20 ADD PUSH1 0x15 PUSH1 0xFA SHL DUP2 MSTORE POP SWAP1 PUSH2 0x1D19 JUMPI PUSH1 0x40 MLOAD PUSH3 0x461BCD PUSH1 0xE5 SHL DUP2 MSTORE PUSH1 0x4 ADD PUSH2 0x86D SWAP2 SWAP1 PUSH2 0x4D9C JUMP JUMPDEST POP PUSH1 0x9 SLOAD PUSH2 0x1D36 SWAP1 CALLER SWAP1 DUP11 SWAP1 PUSH1 0x1 PUSH1 0x1 PUSH1 0xA0 SHL SUB AND DUP11 DUP11 ADDRESS PUSH2 0x3580 JUMP JUMPDEST POP PUSH1 0x9 SLOAD PUSH1 0x40 MLOAD PUSH4 0x2E1A7D4D PUSH1 0xE0 SHL DUP2 MSTORE PUSH1 0x4 DUP2 ADD DUP9 SWAP1 MSTORE PUSH1 0x1 PUSH1 0x1 PUSH1 0xA0 SHL SUB SWAP1 SWAP2 AND SWAP1 PUSH4 0x2E1A7D4D SWAP1 PUSH1 0x24 ADD PUSH1 0x0 PUSH1 0x40 MLOAD DUP1 DUP4 SUB DUP2 PUSH1 0x0 DUP8 DUP1 EXTCODESIZE ISZERO DUP1 ISZERO PUSH2 0x1D7D JUMPI PUSH1 0x0 DUP1 REVERT JUMPDEST POP GAS CALL ISZERO DUP1 ISZERO PUSH2 0x1D91 JUMPI RETURNDATASIZE PUSH1 0x0 DUP1 RETURNDATACOPY RETURNDATASIZE PUSH1 0x0 REVERT JUMPDEST POP POP PUSH1 0x40 MLOAD PUSH1 0x1 PUSH1 0x1 PUSH1 0xA0 SHL SUB DUP8 AND SWAP3 POP DUP9 ISZERO PUSH2 0x8FC MUL SWAP2 POP DUP9 SWAP1 PUSH1 0x0 DUP2 DUP2 DUP2 DUP6 DUP9 DUP9 CALL SWAP4 POP POP POP POP ISZERO DUP1 ISZERO PUSH2 0x1DCB JUMPI RETURNDATASIZE PUSH1 0x0 DUP1 RETURNDATACOPY RETURNDATASIZE PUSH1 0x0 REVERT JUMPDEST POP SWAP5 SWAP8 SWAP7 POP POP POP POP POP POP POP JUMP JUMPDEST PUSH2 0x1DE0 PUSH2 0x48B9 JUMP JUMPDEST PUSH1 0x2 DUP3 DUP2 SLOAD DUP2 LT PUSH2 0x1913 JUMPI PUSH2 0x1913 PUSH2 0x4DAF JUMP JUMPDEST PUSH1 0x0 DUP3 DUP2 MSTORE PUSH1 0x20 DUP2 SWAP1 MSTORE PUSH1 0x40 SWAP1 KECCAK256 PUSH1 0x1 ADD SLOAD PUSH2 0x1E0F DUP2 CALLER PUSH2 0x2D27 JUMP JUMPDEST PUSH2 0xD77 DUP4 DUP4 PUSH2 0x3552 JUMP JUMPDEST PUSH1 0x1 PUSH1 0x1 PUSH1 0xA0 SHL SUB DUP5 AND PUSH1 0x0 SWAP1 DUP2 MSTORE PUSH1 0x3 PUSH1 0x20 MSTORE PUSH1 0x40 SWAP1 KECCAK256 SLOAD DUP5 SWAP1 ISZERO DUP1 ISZERO PUSH2 0x1E4F JUMPI POP PUSH1 0x7 SLOAD PUSH1 0x1 PUSH1 0x1 PUSH1 0xA0 SHL SUB DUP3 DUP2 AND SWAP2 AND EQ ISZERO JUMPDEST PUSH1 0x40 MLOAD DUP1 PUSH1 0x40 ADD PUSH1 0x40 MSTORE DUP1 PUSH1 0x1 DUP2 MSTORE PUSH1 0x20 ADD PUSH1 0x45 PUSH1 0xF8 SHL DUP2 MSTORE POP SWAP1 PUSH2 0x1E87 JUMPI PUSH1 0x40 MLOAD PUSH3 0x461BCD PUSH1 0xE5 SHL DUP2 MSTORE PUSH1 0x4 ADD PUSH2 0x86D SWAP2 SWAP1 PUSH2 0x4D9C JUMP JUMPDEST POP PUSH1 0x2 SLOAD PUSH2 0x1EA0 PUSH1 0x1 PUSH1 0x1 PUSH1 0xA0 SHL SUB DUP8 AND CALLER ADDRESS DUP9 PUSH2 0x385F JUMP JUMPDEST PUSH1 0x7 SLOAD PUSH1 0x40 MLOAD PUSH4 0xBB9FF5D PUSH1 0xE0 SHL DUP2 MSTORE ADDRESS PUSH1 0x4 DUP3 ADD MSTORE PUSH1 0x24 DUP2 ADD DUP7 SWAP1 MSTORE PUSH1 0x1 PUSH1 0x1 PUSH1 0xA0 SHL SUB SWAP1 SWAP2 AND SWAP1 PUSH4 0xBB9FF5D SWAP1 PUSH1 0x44 ADD PUSH1 0x0 PUSH1 0x40 MLOAD DUP1 DUP4 SUB DUP2 PUSH1 0x0 DUP8 DUP1 EXTCODESIZE ISZERO DUP1 ISZERO PUSH2 0x1EEC JUMPI PUSH1 0x0 DUP1 REVERT JUMPDEST POP GAS CALL ISZERO DUP1 ISZERO PUSH2 0x1F00 JUMPI RETURNDATASIZE PUSH1 0x0 DUP1 RETURNDATACOPY RETURNDATASIZE PUSH1 0x0 REVERT JUMPDEST POP POP PUSH1 0x40 MLOAD PUSH4 0x70A08231 PUSH1 0xE0 SHL DUP2 MSTORE ADDRESS PUSH1 0x4 DUP3 ADD MSTORE PUSH1 0x1 PUSH1 0x1 PUSH1 0xA0 SHL SUB DUP10 AND SWAP3 POP PUSH4 0x70A08231 SWAP2 POP PUSH1 0x24 ADD PUSH1 0x20 PUSH1 0x40 MLOAD DUP1 DUP4 SUB DUP2 DUP7 GAS STATICCALL ISZERO DUP1 ISZERO PUSH2 0x1F48 JUMPI RETURNDATASIZE PUSH1 0x0 DUP1 RETURNDATACOPY RETURNDATASIZE PUSH1 0x0 REVERT JUMPDEST POP POP POP POP PUSH1 0x40 MLOAD RETURNDATASIZE PUSH1 0x1F NOT PUSH1 0x1F DUP3 ADD AND DUP3 ADD DUP1 PUSH1 0x40 MSTORE POP DUP2 ADD SWAP1 PUSH2 0x1F6C SWAP2 SWAP1 PUSH2 0x4E13 JUMP JUMPDEST SWAP5 POP PUSH1 0x0 DUP6 GT PUSH1 0x40 MLOAD DUP1 PUSH1 0x40 ADD PUSH1 0x40 MSTORE DUP1 PUSH1 0x1 DUP2 MSTORE PUSH1 0x20 ADD PUSH1 0x2D PUSH1 0xF9 SHL DUP2 MSTORE POP SWAP1 PUSH2 0x1FAA JUMPI PUSH1 0x40 MLOAD PUSH3 0x461BCD PUSH1 0xE5 SHL DUP2 MSTORE PUSH1 0x4 ADD PUSH2 0x86D SWAP2 SWAP1 PUSH2 0x4D9C JUMP JUMPDEST POP PUSH1 0x0 PUSH2 0x1FBF PUSH2 0x1FBA DUP7 DUP9 PUSH2 0x4E6E JUMP JUMPDEST PUSH2 0x38CA JUMP JUMPDEST SWAP1 POP PUSH2 0x1FC9 PUSH2 0x48EE JUMP JUMPDEST PUSH1 0x40 DUP1 MLOAD PUSH1 0xA0 DUP2 ADD DUP3 MSTORE PUSH1 0x1 PUSH1 0x1 PUSH1 0xA0 SHL SUB DUP11 DUP2 AND DUP3 MSTORE PUSH1 0x1 PUSH1 0x1 PUSH1 0x70 SHL SUB DUP11 DUP2 AND PUSH1 0x20 DUP5 ADD SWAP1 DUP2 MSTORE DUP11 DUP3 AND SWAP5 DUP5 ADD SWAP5 DUP6 MSTORE DUP7 DUP3 AND PUSH1 0x60 DUP6 ADD SWAP1 DUP2 MSTORE PUSH1 0x80 DUP6 ADD DUP8 DUP2 MSTORE PUSH1 0x2 DUP1 SLOAD PUSH1 0x1 DUP2 ADD DUP3 SSTORE PUSH1 0x0 SWAP2 SWAP1 SWAP2 MSTORE DUP7 MLOAD PUSH32 0x405787FA12A823E0F2B7631CC41B3BA8828B3321CA811111FA75CD3AA3BB5ACE PUSH1 0x4 SWAP1 SWAP3 MUL SWAP2 DUP3 ADD DUP1 SLOAD PUSH1 0x1 PUSH1 0x1 PUSH1 0xA0 SHL SUB NOT AND SWAP2 SWAP1 SWAP8 AND OR DUP7 SSTORE SWAP3 MLOAD PUSH32 0x405787FA12A823E0F2B7631CC41B3BA8828B3321CA811111FA75CD3AA3BB5ACF DUP5 ADD DUP1 SLOAD SWAP9 MLOAD SWAP2 DUP7 AND PUSH1 0x1 PUSH1 0x1 PUSH1 0xE0 SHL SUB NOT SWAP1 SWAP10 AND SWAP9 SWAP1 SWAP9 OR PUSH1 0x1 PUSH1 0x70 SHL SWAP2 DUP7 AND SWAP2 SWAP1 SWAP2 MUL OR SWAP1 SWAP7 SSTORE MLOAD PUSH32 0x405787FA12A823E0F2B7631CC41B3BA8828B3321CA811111FA75CD3AA3BB5AD0 DUP3 ADD DUP1 SLOAD PUSH1 0x1 PUSH1 0x1 PUSH1 0x70 SHL SUB NOT AND SWAP2 SWAP1 SWAP4 AND OR SWAP1 SWAP2 SSTORE SWAP3 MLOAD SWAP2 SWAP3 DUP4 SWAP3 PUSH2 0x2112 SWAP2 PUSH32 0x405787FA12A823E0F2B7631CC41B3BA8828B3321CA811111FA75CD3AA3BB5AD1 ADD SWAP1 PUSH1 0x8 PUSH2 0x490D JUMP JUMPDEST POP POP POP PUSH1 0x1 PUSH1 0x1 PUSH1 0xA0 SHL SUB DUP10 AND PUSH1 0x0 SWAP1 DUP2 MSTORE PUSH1 0x3 PUSH1 0x20 MSTORE PUSH1 0x40 DUP2 KECCAK256 DUP6 SWAP1 SSTORE PUSH1 0x4 DUP1 SLOAD DUP10 SWAP3 SWAP1 PUSH2 0x2142 SWAP1 DUP5 SWAP1 PUSH2 0x4E2C JUMP JUMPDEST SWAP1 SWAP2 SSTORE POP POP PUSH1 0x5 SLOAD PUSH1 0x40 MLOAD PUSH3 0x4A84CB PUSH1 0xE0 SHL DUP2 MSTORE PUSH1 0x1 PUSH1 0x1 PUSH1 0xA0 SHL SUB SWAP1 SWAP2 AND SWAP1 PUSH3 0x4A84CB SWAP1 PUSH2 0x217D SWAP1 PUSH2 0xDEAD SWAP1 DUP9 SWAP1 PUSH2 0x3E8 SWAP1 PUSH1 0x4 ADD PUSH2 0x4EE7 JUMP JUMPDEST PUSH1 0x0 PUSH1 0x40 MLOAD DUP1 DUP4 SUB DUP2 PUSH1 0x0 DUP8 DUP1 EXTCODESIZE ISZERO DUP1 ISZERO PUSH2 0x2197 JUMPI PUSH1 0x0 DUP1 REVERT JUMPDEST POP GAS CALL ISZERO DUP1 ISZERO PUSH2 0x21AB JUMPI RETURNDATASIZE PUSH1 0x0 DUP1 RETURNDATACOPY RETURNDATASIZE PUSH1 0x0 REVERT JUMPDEST POP POP POP POP PUSH1 0x0 PUSH2 0x3E8 PUSH2 0x21C3 DUP10 DUP12 PUSH2 0x1FBA SWAP2 SWAP1 PUSH2 0x4E6E JUMP JUMPDEST PUSH2 0x21CD SWAP2 SWAP1 PUSH2 0x4EBC JUMP JUMPDEST PUSH1 0x5 SLOAD PUSH1 0x40 MLOAD PUSH3 0x4A84CB PUSH1 0xE0 SHL DUP2 MSTORE SWAP2 SWAP3 POP PUSH1 0x1 PUSH1 0x1 PUSH1 0xA0 SHL SUB AND SWAP1 PUSH3 0x4A84CB SWAP1 PUSH2 0x2200 SWAP1 DUP11 SWAP1 DUP10 SWAP1 DUP7 SWAP1 PUSH1 0x4 ADD PUSH2 0x4EE7 JUMP JUMPDEST PUSH1 0x0 PUSH1 0x40 MLOAD DUP1 DUP4 SUB DUP2 PUSH1 0x0 DUP8 DUP1 EXTCODESIZE ISZERO DUP1 ISZERO PUSH2 0x221A JUMPI PUSH1 0x0 DUP1 REVERT JUMPDEST POP GAS CALL ISZERO DUP1 ISZERO PUSH2 0x222E JUMPI RETURNDATASIZE PUSH1 0x0 DUP1 RETURNDATACOPY RETURNDATASIZE PUSH1 0x0 REVERT JUMPDEST POP POP POP POP POP POP POP POP POP POP POP POP POP POP JUMP JUMPDEST PUSH1 0x6 SLOAD PUSH1 0x1 PUSH1 0x1 PUSH1 0xA0 SHL SUB SWAP1 DUP2 AND PUSH1 0x0 SWAP1 DUP2 MSTORE PUSH1 0x3 PUSH1 0x20 MSTORE PUSH1 0x40 DUP1 DUP3 KECCAK256 SLOAD PUSH1 0x8 SLOAD SWAP1 SWAP4 AND DUP3 MSTORE DUP2 KECCAK256 SLOAD PUSH1 0x2 DUP1 SLOAD SWAP3 SWAP4 DUP5 SWAP4 SWAP1 SWAP3 SWAP2 SWAP1 DUP4 SWAP1 DUP2 LT PUSH2 0x2283 JUMPI PUSH2 0x2283 PUSH2 0x4DAF JUMP JUMPDEST PUSH1 0x0 SWAP2 DUP3 MSTORE PUSH1 0x20 SWAP1 SWAP2 KECCAK256 PUSH1 0x1 PUSH1 0x4 SWAP1 SWAP3 MUL ADD ADD SLOAD PUSH1 0x2 DUP1 SLOAD PUSH1 0x1 PUSH1 0x1 PUSH1 0x70 SHL SUB SWAP1 SWAP3 AND SWAP2 DUP5 SWAP1 DUP2 LT PUSH2 0x22B7 JUMPI PUSH2 0x22B7 PUSH2 0x4DAF JUMP JUMPDEST PUSH1 0x0 SWAP2 DUP3 MSTORE PUSH1 0x20 SWAP1 SWAP2 KECCAK256 PUSH1 0x4 SWAP1 SWAP2 MUL ADD PUSH1 0x1 ADD SLOAD PUSH2 0x22ED SWAP1 PUSH1 0x1 PUSH1 0x70 SHL SWAP1 DIV PUSH1 0x1 PUSH1 0x1 PUSH1 0x70 SHL SUB AND PUSH8 0xDE0B6B3A7640000 PUSH2 0x4E6E JUMP JUMPDEST PUSH2 0x22F7 SWAP2 SWAP1 PUSH2 0x4ED3 JUMP JUMPDEST PUSH1 0x2 DUP3 DUP2 SLOAD DUP2 LT PUSH2 0x230A JUMPI PUSH2 0x230A PUSH2 0x4DAF JUMP JUMPDEST PUSH1 0x0 SWAP2 DUP3 MSTORE PUSH1 0x20 SWAP1 SWAP2 KECCAK256 PUSH1 0x1 PUSH1 0x4 SWAP1 SWAP3 MUL ADD ADD SLOAD PUSH1 0x2 DUP1 SLOAD PUSH1 0x1 PUSH1 0x1 PUSH1 0x70 SHL SUB SWAP1 SWAP3 AND SWAP2 DUP5 SWAP1 DUP2 LT PUSH2 0x233E JUMPI PUSH2 0x233E PUSH2 0x4DAF JUMP JUMPDEST PUSH1 0x0 SWAP2 DUP3 MSTORE PUSH1 0x20 SWAP1 SWAP2 KECCAK256 PUSH1 0x4 SWAP1 SWAP2 MUL ADD PUSH1 0x1 ADD SLOAD PUSH2 0x2374 SWAP1 PUSH1 0x1 PUSH1 0x70 SHL SWAP1 DIV PUSH1 0x1 PUSH1 0x1 PUSH1 0x70 SHL SUB AND PUSH8 0xDE0B6B3A7640000 PUSH2 0x4E6E JUMP JUMPDEST PUSH2 0x237E SWAP2 SWAP1 PUSH2 0x4ED3 JUMP JUMPDEST SWAP4 POP SWAP4 POP POP POP SWAP1 SWAP2 JUMP JUMPDEST PUSH1 0x0 PUSH2 0xD4A DUP3 PUSH1 0x2 DUP6 DUP2 SLOAD DUP2 LT PUSH2 0x23A1 JUMPI PUSH2 0x23A1 PUSH2 0x4DAF JUMP JUMPDEST SWAP1 PUSH1 0x0 MSTORE PUSH1 0x20 PUSH1 0x0 KECCAK256 SWAP1 PUSH1 0x4 MUL ADD PUSH1 0x1 ADD PUSH1 0xE SWAP1 SLOAD SWAP1 PUSH2 0x100 EXP SWAP1 DIV PUSH1 0x1 PUSH1 0x1 PUSH1 0x70 SHL SUB AND PUSH1 0x1 PUSH1 0x1 PUSH1 0x70 SHL SUB AND PUSH1 0x2 DUP7 DUP2 SLOAD DUP2 LT PUSH2 0x23E2 JUMPI PUSH2 0x23E2 PUSH2 0x4DAF JUMP JUMPDEST PUSH1 0x0 SWAP2 DUP3 MSTORE PUSH1 0x20 SWAP1 SWAP2 KECCAK256 PUSH1 0x1 PUSH1 0x4 SWAP1 SWAP3 MUL ADD ADD SLOAD PUSH1 0x1 PUSH1 0x1 PUSH1 0x70 SHL SUB AND PUSH2 0x1C64 DUP8 PUSH2 0xFE2 JUMP JUMPDEST PUSH1 0x1 PUSH1 0x1 PUSH1 0xA0 SHL SUB DUP7 AND PUSH1 0x0 SWAP1 DUP2 MSTORE PUSH1 0x3 PUSH1 0x20 MSTORE PUSH1 0x40 DUP2 KECCAK256 SLOAD DUP8 SWAP1 ISZERO DUP1 ISZERO SWAP1 PUSH2 0x243F JUMPI POP PUSH1 0x7 SLOAD PUSH1 0x1 PUSH1 0x1 PUSH1 0xA0 SHL SUB DUP3 DUP2 AND SWAP2 AND EQ ISZERO JUMPDEST PUSH1 0x40 MLOAD DUP1 PUSH1 0x40 ADD PUSH1 0x40 MSTORE DUP1 PUSH1 0x1 DUP2 MSTORE PUSH1 0x20 ADD PUSH1 0x27 PUSH1 0xF9 SHL DUP2 MSTORE POP SWAP1 PUSH2 0x2477 JUMPI PUSH1 0x40 MLOAD PUSH3 0x461BCD PUSH1 0xE5 SHL DUP2 MSTORE PUSH1 0x4 ADD PUSH2 0x86D SWAP2 SWAP1 PUSH2 0x4D9C JUMP JUMPDEST POP DUP4 DUP1 TIMESTAMP GT ISZERO PUSH1 0x40 MLOAD DUP1 PUSH1 0x40 ADD PUSH1 0x40 MSTORE DUP1 PUSH1 0x1 DUP2 MSTORE PUSH1 0x20 ADD PUSH1 0x15 PUSH1 0xFA SHL DUP2 MSTORE POP SWAP1 PUSH2 0x24B5 JUMPI PUSH1 0x40 MLOAD PUSH3 0x461BCD PUSH1 0xE5 SHL DUP2 MSTORE PUSH1 0x4 ADD PUSH2 0x86D SWAP2 SWAP1 PUSH2 0x4D9C JUMP JUMPDEST POP PUSH2 0x1641 CALLER DUP11 DUP11 DUP11 DUP11 DUP10 PUSH2 0x3580 JUMP JUMPDEST PUSH2 0x24CE DUP3 DUP3 PUSH2 0x139A JUMP JUMPDEST PUSH2 0xA01 JUMPI PUSH1 0x0 DUP3 DUP2 MSTORE PUSH1 0x20 DUP2 DUP2 MSTORE PUSH1 0x40 DUP1 DUP4 KECCAK256 PUSH1 0x1 PUSH1 0x1 PUSH1 0xA0 SHL SUB DUP6 AND DUP5 MSTORE SWAP1 SWAP2 MSTORE SWAP1 KECCAK256 DUP1 SLOAD PUSH1 0xFF NOT AND PUSH1 0x1 OR SWAP1 SSTORE PUSH2 0x2504 CALLER SWAP1 JUMP JUMPDEST PUSH1 0x1 PUSH1 0x1 PUSH1 0xA0 SHL SUB AND DUP2 PUSH1 0x1 PUSH1 0x1 PUSH1 0xA0 SHL SUB AND DUP4 PUSH32 0x2F8788117E7EFF1D82E926EC794901D17C78024A50270940304540A733656F0D PUSH1 0x40 MLOAD PUSH1 0x40 MLOAD DUP1 SWAP2 SUB SWAP1 LOG4 POP POP JUMP JUMPDEST PUSH1 0x0 PUSH2 0xD4A DUP4 PUSH1 0x1 PUSH1 0x1 PUSH1 0xA0 SHL SUB DUP5 AND PUSH2 0x3923 JUMP JUMPDEST PUSH1 0x1 PUSH1 0x1 PUSH1 0xA0 SHL SUB DUP4 AND PUSH1 0x0 SWAP1 DUP2 MSTORE PUSH1 0x3 PUSH1 0x20 MSTORE PUSH1 0x40 DUP2 KECCAK256 SLOAD DUP5 SWAP1 ISZERO DUP1 ISZERO SWAP1 PUSH2 0x2594 JUMPI POP PUSH1 0x7 SLOAD PUSH1 0x1 PUSH1 0x1 PUSH1 0xA0 SHL SUB DUP3 DUP2 AND SWAP2 AND EQ ISZERO JUMPDEST PUSH1 0x40 MLOAD DUP1 PUSH1 0x40 ADD PUSH1 0x40 MSTORE DUP1 PUSH1 0x1 DUP2 MSTORE PUSH1 0x20 ADD PUSH1 0x27 PUSH1 0xF9 SHL DUP2 MSTORE POP SWAP1 PUSH2 0x25CC JUMPI PUSH1 0x40 MLOAD PUSH3 0x461BCD PUSH1 0xE5 SHL DUP2 MSTORE PUSH1 0x4 ADD PUSH2 0x86D SWAP2 SWAP1 PUSH2 0x4D9C JUMP JUMPDEST POP PUSH1 0x1 PUSH1 0x1 PUSH1 0xA0 SHL SUB DUP1 DUP7 AND PUSH1 0x0 SWAP1 DUP2 MSTORE PUSH1 0x3 PUSH1 0x20 MSTORE PUSH1 0x40 SWAP1 KECCAK256 SLOAD SWAP1 DUP8 AND ADDRESS EQ PUSH2 0x265D JUMPI PUSH1 0x5 SLOAD PUSH1 0x40 MLOAD PUSH4 0x79212195 PUSH1 0xE1 SHL DUP2 MSTORE PUSH1 0x60 SWAP2 PUSH1 0x1 PUSH1 0x1 PUSH1 0xA0 SHL SUB AND SWAP1 PUSH4 0xF242432A SWAP1 PUSH2 0x2629 SWAP1 DUP12 SWAP1 ADDRESS SWAP1 DUP8 SWAP1 DUP13 SWAP1 DUP9 SWAP1 PUSH1 0x4 ADD PUSH2 0x4F08 JUMP JUMPDEST PUSH1 0x0 PUSH1 0x40 MLOAD DUP1 DUP4 SUB DUP2 PUSH1 0x0 DUP8 DUP1 EXTCODESIZE ISZERO DUP1 ISZERO PUSH2 0x2643 JUMPI PUSH1 0x0 DUP1 REVERT JUMPDEST POP GAS CALL ISZERO DUP1 ISZERO PUSH2 0x2657 JUMPI RETURNDATASIZE PUSH1 0x0 DUP1 RETURNDATACOPY RETURNDATASIZE PUSH1 0x0 REVERT JUMPDEST POP POP POP POP POP JUMPDEST PUSH1 0x40 MLOAD PUSH4 0x70A08231 PUSH1 0xE0 SHL DUP2 MSTORE ADDRESS PUSH1 0x4 DUP3 ADD MSTORE PUSH1 0x0 SWAP1 PUSH1 0x1 PUSH1 0x1 PUSH1 0xA0 SHL SUB DUP9 AND SWAP1 PUSH4 0x70A08231 SWAP1 PUSH1 0x24 ADD PUSH1 0x20 PUSH1 0x40 MLOAD DUP1 DUP4 SUB DUP2 DUP7 GAS STATICCALL ISZERO DUP1 ISZERO PUSH2 0x26A4 JUMPI RETURNDATASIZE PUSH1 0x0 DUP1 RETURNDATACOPY RETURNDATASIZE PUSH1 0x0 REVERT JUMPDEST POP POP POP POP PUSH1 0x40 MLOAD RETURNDATASIZE PUSH1 0x1F NOT PUSH1 0x1F DUP3 ADD AND DUP3 ADD DUP1 PUSH1 0x40 MSTORE POP DUP2 ADD SWAP1 PUSH2 0x26C8 SWAP2 SWAP1 PUSH2 0x4E13 JUMP JUMPDEST SWAP1 POP PUSH1 0x0 PUSH1 0x2 DUP4 DUP2 SLOAD DUP2 LT PUSH2 0x26DF JUMPI PUSH2 0x26DF PUSH2 0x4DAF JUMP JUMPDEST PUSH1 0x0 SWAP2 DUP3 MSTORE PUSH1 0x20 SWAP1 SWAP2 KECCAK256 PUSH1 0x1 PUSH1 0x4 SWAP1 SWAP3 MUL ADD ADD SLOAD PUSH2 0x2706 SWAP1 PUSH1 0x1 PUSH1 0x1 PUSH1 0x70 SHL SUB AND DUP4 PUSH2 0x4EBC JUMP JUMPDEST PUSH1 0x4 DUP1 SLOAD PUSH1 0x7 SLOAD PUSH1 0x40 MLOAD PUSH4 0x70A08231 PUSH1 0xE0 SHL DUP2 MSTORE ADDRESS SWAP4 DUP2 ADD SWAP4 SWAP1 SWAP4 MSTORE SWAP3 SWAP4 POP PUSH1 0x0 SWAP3 SWAP1 SWAP2 PUSH1 0x1 PUSH1 0x1 PUSH1 0xA0 SHL SUB SWAP1 SWAP2 AND SWAP1 PUSH4 0x70A08231 SWAP1 PUSH1 0x24 ADD PUSH1 0x20 PUSH1 0x40 MLOAD DUP1 DUP4 SUB DUP2 DUP7 GAS STATICCALL ISZERO DUP1 ISZERO PUSH2 0x275C JUMPI RETURNDATASIZE PUSH1 0x0 DUP1 RETURNDATACOPY RETURNDATASIZE PUSH1 0x0 REVERT JUMPDEST POP POP POP POP PUSH1 0x40 MLOAD RETURNDATASIZE PUSH1 0x1F NOT PUSH1 0x1F DUP3 ADD AND DUP3 ADD DUP1 PUSH1 0x40 MSTORE POP DUP2 ADD SWAP1 PUSH2 0x2780 SWAP2 SWAP1 PUSH2 0x4E13 JUMP JUMPDEST PUSH2 0x278A SWAP2 SWAP1 PUSH2 0x4EBC JUMP JUMPDEST PUSH1 0x5 SLOAD PUSH1 0x40 MLOAD PUSH4 0xBD85B039 PUSH1 0xE0 SHL DUP2 MSTORE PUSH1 0x4 DUP2 ADD DUP8 SWAP1 MSTORE SWAP2 SWAP3 POP PUSH1 0x0 SWAP2 PUSH1 0x1 PUSH1 0x1 PUSH1 0xA0 SHL SUB SWAP1 SWAP2 AND SWAP1 PUSH4 0xBD85B039 SWAP1 PUSH1 0x24 ADD PUSH1 0x20 PUSH1 0x40 MLOAD DUP1 DUP4 SUB DUP2 DUP7 GAS STATICCALL ISZERO DUP1 ISZERO PUSH2 0x27D9 JUMPI RETURNDATASIZE PUSH1 0x0 DUP1 RETURNDATACOPY RETURNDATASIZE PUSH1 0x0 REVERT JUMPDEST POP POP POP POP PUSH1 0x40 MLOAD RETURNDATASIZE PUSH1 0x1F NOT PUSH1 0x1F DUP3 ADD AND DUP3 ADD DUP1 PUSH1 0x40 MSTORE POP DUP2 ADD SWAP1 PUSH2 0x27FD SWAP2 SWAP1 PUSH2 0x4E13 JUMP JUMPDEST SWAP1 POP PUSH1 0x0 DUP2 DUP11 PUSH1 0x2 DUP9 DUP2 SLOAD DUP2 LT PUSH2 0x2816 JUMPI PUSH2 0x2816 PUSH2 0x4DAF JUMP JUMPDEST PUSH1 0x0 SWAP2 DUP3 MSTORE PUSH1 0x20 SWAP1 SWAP2 KECCAK256 PUSH1 0x1 PUSH1 0x4 SWAP1 SWAP3 MUL ADD ADD SLOAD PUSH2 0x283D SWAP2 SWAP1 PUSH1 0x1 PUSH1 0x1 PUSH1 0x70 SHL SUB AND PUSH2 0x4E6E JUMP JUMPDEST PUSH2 0x2847 SWAP2 SWAP1 PUSH2 0x4ED3 JUMP JUMPDEST SWAP1 POP PUSH1 0x0 DUP3 DUP12 PUSH1 0x2 DUP10 DUP2 SLOAD DUP2 LT PUSH2 0x2860 JUMPI PUSH2 0x2860 PUSH2 0x4DAF JUMP JUMPDEST PUSH1 0x0 SWAP2 DUP3 MSTORE PUSH1 0x20 SWAP1 SWAP2 KECCAK256 PUSH1 0x4 SWAP1 SWAP2 MUL ADD PUSH1 0x1 ADD SLOAD PUSH2 0x288E SWAP2 SWAP1 PUSH1 0x1 PUSH1 0x70 SHL SWAP1 DIV PUSH1 0x1 PUSH1 0x1 PUSH1 0x70 SHL SUB AND PUSH2 0x4E6E JUMP JUMPDEST PUSH2 0x2898 SWAP2 SWAP1 PUSH2 0x4ED3 JUMP JUMPDEST SWAP1 POP PUSH1 0x0 PUSH1 0x2 DUP9 DUP2 SLOAD DUP2 LT PUSH2 0x28AF JUMPI PUSH2 0x28AF PUSH2 0x4DAF JUMP JUMPDEST PUSH1 0x0 SWAP2 DUP3 MSTORE PUSH1 0x20 DUP3 KECCAK256 PUSH1 0x2 PUSH1 0x4 SWAP1 SWAP3 MUL ADD DUP2 ADD SLOAD DUP2 SLOAD PUSH1 0x1 PUSH1 0x1 PUSH1 0x70 SHL SUB SWAP1 SWAP2 AND SWAP4 POP PUSH2 0x294F SWAP2 SWAP1 DUP12 SWAP1 DUP2 LT PUSH2 0x28E7 JUMPI PUSH2 0x28E7 PUSH2 0x4DAF JUMP JUMPDEST SWAP1 PUSH1 0x0 MSTORE PUSH1 0x20 PUSH1 0x0 KECCAK256 SWAP1 PUSH1 0x4 MUL ADD PUSH1 0x1 ADD PUSH1 0xE SWAP1 SLOAD SWAP1 PUSH2 0x100 EXP SWAP1 DIV PUSH1 0x1 PUSH1 0x1 PUSH1 0x70 SHL SUB AND PUSH1 0x1 PUSH1 0x1 PUSH1 0x70 SHL SUB AND PUSH1 0x2 DUP12 DUP2 SLOAD DUP2 LT PUSH2 0x2928 JUMPI PUSH2 0x2928 PUSH2 0x4DAF JUMP JUMPDEST PUSH1 0x0 SWAP2 DUP3 MSTORE PUSH1 0x20 SWAP1 SWAP2 KECCAK256 PUSH1 0x1 PUSH1 0x4 SWAP1 SWAP3 MUL ADD ADD SLOAD PUSH2 0x1FBA SWAP2 SWAP1 PUSH1 0x1 PUSH1 0x1 PUSH1 0x70 SHL SUB AND PUSH2 0x4E6E JUMP JUMPDEST SWAP1 POP DUP3 DUP7 PUSH1 0x4 SLOAD PUSH2 0x2960 SWAP2 SWAP1 PUSH2 0x4E2C JUMP JUMPDEST PUSH2 0x296A SWAP2 SWAP1 PUSH2 0x4EBC JUMP JUMPDEST PUSH1 0x4 DUP2 SWAP1 SSTORE POP DUP1 PUSH1 0x2 DUP11 DUP2 SLOAD DUP2 LT PUSH2 0x2984 JUMPI PUSH2 0x2984 PUSH2 0x4DAF JUMP JUMPDEST SWAP1 PUSH1 0x0 MSTORE PUSH1 0x20 PUSH1 0x0 KECCAK256 SWAP1 PUSH1 0x4 MUL ADD PUSH1 0x2 ADD PUSH1 0x0 PUSH2 0x100 EXP DUP2 SLOAD DUP2 PUSH1 0x1 PUSH1 0x1 PUSH1 0x70 SHL SUB MUL NOT AND SWAP1 DUP4 PUSH1 0x1 PUSH1 0x1 PUSH1 0x70 SHL SUB AND MUL OR SWAP1 SSTORE POP DUP4 DUP8 PUSH1 0x2 DUP12 DUP2 SLOAD DUP2 LT PUSH2 0x29CE JUMPI PUSH2 0x29CE PUSH2 0x4DAF JUMP JUMPDEST PUSH1 0x0 SWAP2 DUP3 MSTORE PUSH1 0x20 SWAP1 SWAP2 KECCAK256 PUSH1 0x1 PUSH1 0x4 SWAP1 SWAP3 MUL ADD ADD SLOAD PUSH2 0x29F5 SWAP2 SWAP1 PUSH1 0x1 PUSH1 0x1 PUSH1 0x70 SHL SUB AND PUSH2 0x4F42 JUMP JUMPDEST PUSH2 0x29FF SWAP2 SWAP1 PUSH2 0x4F6D JUMP JUMPDEST PUSH1 0x2 DUP11 DUP2 SLOAD DUP2 LT PUSH2 0x2A12 JUMPI PUSH2 0x2A12 PUSH2 0x4DAF JUMP JUMPDEST SWAP1 PUSH1 0x0 MSTORE PUSH1 0x20 PUSH1 0x0 KECCAK256 SWAP1 PUSH1 0x4 MUL ADD PUSH1 0x1 ADD PUSH1 0x0 PUSH2 0x100 EXP DUP2 SLOAD DUP2 PUSH1 0x1 PUSH1 0x1 PUSH1 0x70 SHL SUB MUL NOT AND SWAP1 DUP4 PUSH1 0x1 PUSH1 0x1 PUSH1 0x70 SHL SUB AND MUL OR SWAP1 SSTORE POP DUP3 DUP7 PUSH1 0x2 DUP12 DUP2 SLOAD DUP2 LT PUSH2 0x2A5C JUMPI PUSH2 0x2A5C PUSH2 0x4DAF JUMP JUMPDEST SWAP1 PUSH1 0x0 MSTORE PUSH1 0x20 PUSH1 0x0 KECCAK256 SWAP1 PUSH1 0x4 MUL ADD PUSH1 0x1 ADD PUSH1 0xE SWAP1 SLOAD SWAP1 PUSH2 0x100 EXP SWAP1 DIV PUSH1 0x1 PUSH1 0x1 PUSH1 0x70 SHL SUB AND PUSH2 0x2A8B SWAP2 SWAP1 PUSH2 0x4F42 JUMP JUMPDEST PUSH2 0x2A95 SWAP2 SWAP1 PUSH2 0x4F6D JUMP JUMPDEST PUSH1 0x2 DUP11 DUP2 SLOAD DUP2 LT PUSH2 0x2AA8 JUMPI PUSH2 0x2AA8 PUSH2 0x4DAF JUMP JUMPDEST PUSH1 0x0 SWAP2 DUP3 MSTORE PUSH1 0x20 SWAP1 SWAP2 KECCAK256 PUSH1 0x4 SWAP2 DUP3 MUL ADD PUSH1 0x1 ADD DUP1 SLOAD PUSH1 0x1 PUSH1 0x70 SHL PUSH1 0x1 PUSH1 0xE0 SHL SUB NOT AND PUSH1 0x1 PUSH1 0x70 SHL PUSH1 0x1 PUSH1 0x1 PUSH1 0x70 SHL SUB SWAP5 SWAP1 SWAP5 AND SWAP4 SWAP1 SWAP4 MUL SWAP3 SWAP1 SWAP3 OR SWAP1 SWAP2 SSTORE PUSH1 0x5 SLOAD PUSH1 0x40 MLOAD PUSH4 0xB390C0AB PUSH1 0xE0 SHL DUP2 MSTORE SWAP2 DUP3 ADD DUP12 SWAP1 MSTORE PUSH1 0x24 DUP3 ADD DUP16 SWAP1 MSTORE PUSH1 0x1 PUSH1 0x1 PUSH1 0xA0 SHL SUB AND SWAP1 PUSH4 0xB390C0AB SWAP1 PUSH1 0x44 ADD PUSH1 0x0 PUSH1 0x40 MLOAD DUP1 DUP4 SUB DUP2 PUSH1 0x0 DUP8 DUP1 EXTCODESIZE ISZERO DUP1 ISZERO PUSH2 0x2B30 JUMPI PUSH1 0x0 DUP1 REVERT JUMPDEST POP GAS CALL ISZERO DUP1 ISZERO PUSH2 0x2B44 JUMPI RETURNDATASIZE PUSH1 0x0 DUP1 RETURNDATACOPY RETURNDATASIZE PUSH1 0x0 REVERT JUMPDEST POP POP PUSH1 0x7 SLOAD PUSH1 0x40 MLOAD PUSH4 0x18A8AD87 PUSH1 0xE0 SHL DUP2 MSTORE ADDRESS PUSH1 0x4 DUP3 ADD MSTORE PUSH1 0x24 DUP2 ADD DUP8 SWAP1 MSTORE PUSH1 0x1 PUSH1 0x1 PUSH1 0xA0 SHL SUB SWAP1 SWAP2 AND SWAP3 POP PUSH4 0x18A8AD87 SWAP2 POP PUSH1 0x44 ADD PUSH1 0x0 PUSH1 0x40 MLOAD DUP1 DUP4 SUB DUP2 PUSH1 0x0 DUP8 DUP1 EXTCODESIZE ISZERO DUP1 ISZERO PUSH2 0x2B94 JUMPI PUSH1 0x0 DUP1 REVERT JUMPDEST POP GAS CALL ISZERO DUP1 ISZERO PUSH2 0x2BA8 JUMPI RETURNDATASIZE PUSH1 0x0 DUP1 RETURNDATACOPY RETURNDATASIZE PUSH1 0x0 REVERT JUMPDEST POP POP POP POP PUSH1 0x0 PUSH2 0x2BCB DUP4 PUSH1 0x1 PUSH1 0x1 PUSH1 0x70 SHL SUB AND DUP4 PUSH1 0x1 PUSH1 0x1 PUSH1 0x70 SHL SUB AND DUP9 PUSH2 0x3972 JUMP JUMPDEST SWAP1 POP DUP1 ISZERO PUSH2 0x2C3C JUMPI PUSH1 0x5 SLOAD PUSH1 0xA SLOAD PUSH1 0x40 MLOAD PUSH3 0x4A84CB PUSH1 0xE0 SHL DUP2 MSTORE PUSH1 0x1 PUSH1 0x1 PUSH1 0xA0 SHL SUB SWAP3 DUP4 AND SWAP3 PUSH3 0x4A84CB SWAP3 PUSH2 0x2C09 SWAP3 SWAP2 AND SWAP1 DUP15 SWAP1 DUP7 SWAP1 PUSH1 0x4 ADD PUSH2 0x4EE7 JUMP JUMPDEST PUSH1 0x0 PUSH1 0x40 MLOAD DUP1 DUP4 SUB DUP2 PUSH1 0x0 DUP8 DUP1 EXTCODESIZE ISZERO DUP1 ISZERO PUSH2 0x2C23 JUMPI PUSH1 0x0 DUP1 REVERT JUMPDEST POP GAS CALL ISZERO DUP1 ISZERO PUSH2 0x2C37 JUMPI RETURNDATASIZE PUSH1 0x0 DUP1 RETURNDATACOPY RETURNDATASIZE PUSH1 0x0 REVERT JUMPDEST POP POP POP POP JUMPDEST POP POP POP PUSH1 0x1 PUSH1 0x1 PUSH1 0xA0 SHL SUB DUP11 AND ADDRESS EQ PUSH2 0x2C63 JUMPI PUSH2 0x2C63 PUSH1 0x1 PUSH1 0x1 PUSH1 0xA0 SHL SUB DUP14 AND DUP12 DUP5 PUSH2 0x39C4 JUMP JUMPDEST PUSH1 0x40 MLOAD PUSH4 0x70A08231 PUSH1 0xE0 SHL DUP2 MSTORE ADDRESS PUSH1 0x4 DUP3 ADD MSTORE PUSH1 0x0 SWAP1 PUSH1 0x1 PUSH1 0x1 PUSH1 0xA0 SHL SUB DUP15 AND SWAP1 PUSH4 0x70A08231 SWAP1 PUSH1 0x24 ADD PUSH1 0x20 PUSH1 0x40 MLOAD DUP1 DUP4 SUB DUP2 DUP7 GAS STATICCALL ISZERO DUP1 ISZERO PUSH2 0x2CAA JUMPI RETURNDATASIZE PUSH1 0x0 DUP1 RETURNDATACOPY RETURNDATASIZE PUSH1 0x0 REVERT JUMPDEST POP POP POP POP PUSH1 0x40 MLOAD RETURNDATASIZE PUSH1 0x1F NOT PUSH1 0x1F DUP3 ADD AND DUP3 ADD DUP1 PUSH1 0x40 MSTORE POP DUP2 ADD SWAP1 PUSH2 0x2CCE SWAP2 SWAP1 PUSH2 0x4E13 JUMP JUMPDEST SWAP1 POP DUP7 PUSH2 0x2CDB DUP5 DUP4 PUSH2 0x4E2C JUMP JUMPDEST EQ PUSH1 0x40 MLOAD DUP1 PUSH1 0x40 ADD PUSH1 0x40 MSTORE DUP1 PUSH1 0x1 DUP2 MSTORE PUSH1 0x20 ADD PUSH1 0x23 PUSH1 0xF9 SHL DUP2 MSTORE POP SWAP1 PUSH2 0x2D14 JUMPI PUSH1 0x40 MLOAD PUSH3 0x461BCD PUSH1 0xE5 SHL DUP2 MSTORE PUSH1 0x4 ADD PUSH2 0x86D SWAP2 SWAP1 PUSH2 0x4D9C JUMP JUMPDEST POP SWAP2 SWAP14 SWAP13 POP POP POP POP POP POP POP POP POP POP POP POP POP JUMP JUMPDEST PUSH2 0x2D31 DUP3 DUP3 PUSH2 0x139A JUMP JUMPDEST PUSH2 0xA01 JUMPI PUSH2 0x2D49 DUP2 PUSH1 0x1 PUSH1 0x1 PUSH1 0xA0 SHL SUB AND PUSH1 0x14 PUSH2 0x39F4 JUMP JUMPDEST PUSH2 0x2D54 DUP4 PUSH1 0x20 PUSH2 0x39F4 JUMP JUMPDEST PUSH1 0x40 MLOAD PUSH1 0x20 ADD PUSH2 0x2D65 SWAP3 SWAP2 SWAP1 PUSH2 0x4F95 JUMP JUMPDEST PUSH1 0x40 DUP1 MLOAD PUSH1 0x1F NOT DUP2 DUP5 SUB ADD DUP2 MSTORE SWAP1 DUP3 SWAP1 MSTORE PUSH3 0x461BCD PUSH1 0xE5 SHL DUP3 MSTORE PUSH2 0x86D SWAP2 PUSH1 0x4 ADD PUSH2 0x4D9C JUMP JUMPDEST PUSH2 0xA01 DUP3 DUP3 PUSH2 0x3530 JUMP JUMPDEST PUSH1 0x1 PUSH1 0x1 PUSH1 0xA0 SHL SUB DUP4 AND PUSH1 0x0 SWAP1 DUP2 MSTORE PUSH1 0x3 PUSH1 0x20 MSTORE PUSH1 0x40 SWAP1 KECCAK256 SLOAD DUP4 SWAP1 ISZERO DUP1 ISZERO SWAP1 PUSH2 0x2DCC JUMPI POP PUSH1 0x7 SLOAD PUSH1 0x1 PUSH1 0x1 PUSH1 0xA0 SHL SUB DUP3 DUP2 AND SWAP2 AND EQ ISZERO JUMPDEST PUSH1 0x40 MLOAD DUP1 PUSH1 0x40 ADD PUSH1 0x40 MSTORE DUP1 PUSH1 0x1 DUP2 MSTORE PUSH1 0x20 ADD PUSH1 0x27 PUSH1 0xF9 SHL DUP2 MSTORE POP SWAP1 PUSH2 0x2E04 JUMPI PUSH1 0x40 MLOAD PUSH3 0x461BCD PUSH1 0xE5 SHL DUP2 MSTORE PUSH1 0x4 ADD PUSH2 0x86D SWAP2 SWAP1 PUSH2 0x4D9C JUMP JUMPDEST POP PUSH1 0x1 PUSH1 0x1 PUSH1 0xA0 SHL SUB DUP1 DUP6 AND PUSH1 0x0 SWAP1 DUP2 MSTORE PUSH1 0x3 PUSH1 0x20 MSTORE PUSH1 0x40 SWAP1 KECCAK256 SLOAD SWAP1 DUP7 AND ADDRESS EQ PUSH2 0x2E3D JUMPI PUSH2 0x2E3D PUSH1 0x1 PUSH1 0x1 PUSH1 0xA0 SHL SUB DUP7 AND DUP8 ADDRESS DUP8 PUSH2 0x385F JUMP JUMPDEST PUSH1 0x40 MLOAD PUSH4 0x70A08231 PUSH1 0xE0 SHL DUP2 MSTORE ADDRESS PUSH1 0x4 DUP3 ADD MSTORE PUSH1 0x0 SWAP1 PUSH1 0x1 PUSH1 0x1 PUSH1 0xA0 SHL SUB DUP8 AND SWAP1 PUSH4 0x70A08231 SWAP1 PUSH1 0x24 ADD PUSH1 0x20 PUSH1 0x40 MLOAD DUP1 DUP4 SUB DUP2 DUP7 GAS STATICCALL ISZERO DUP1 ISZERO PUSH2 0x2E84 JUMPI RETURNDATASIZE PUSH1 0x0 DUP1 RETURNDATACOPY RETURNDATASIZE PUSH1 0x0 REVERT JUMPDEST POP POP POP POP PUSH1 0x40 MLOAD RETURNDATASIZE PUSH1 0x1F NOT PUSH1 0x1F DUP3 ADD AND DUP3 ADD DUP1 PUSH1 0x40 MSTORE POP DUP2 ADD SWAP1 PUSH2 0x2EA8 SWAP2 SWAP1 PUSH2 0x4E13 JUMP JUMPDEST SWAP1 POP PUSH1 0x2 DUP3 DUP2 SLOAD DUP2 LT PUSH2 0x2EBD JUMPI PUSH2 0x2EBD PUSH2 0x4DAF JUMP JUMPDEST PUSH1 0x0 SWAP2 DUP3 MSTORE PUSH1 0x20 SWAP1 SWAP2 KECCAK256 PUSH1 0x1 PUSH1 0x4 SWAP1 SWAP3 MUL ADD ADD SLOAD PUSH2 0x2EE4 SWAP1 PUSH1 0x1 PUSH1 0x1 PUSH1 0x70 SHL SUB AND DUP3 PUSH2 0x4EBC JUMP JUMPDEST SWAP5 POP PUSH1 0x0 DUP6 GT PUSH1 0x40 MLOAD DUP1 PUSH1 0x40 ADD PUSH1 0x40 MSTORE DUP1 PUSH1 0x1 DUP2 MSTORE PUSH1 0x20 ADD PUSH1 0x2D PUSH1 0xF9 SHL DUP2 MSTORE POP SWAP1 PUSH2 0x2F22 JUMPI PUSH1 0x40 MLOAD PUSH3 0x461BCD PUSH1 0xE5 SHL DUP2 MSTORE PUSH1 0x4 ADD PUSH2 0x86D SWAP2 SWAP1 PUSH2 0x4D9C JUMP JUMPDEST POP PUSH1 0x7 SLOAD PUSH1 0x40 MLOAD PUSH4 0x70A08231 PUSH1 0xE0 SHL DUP2 MSTORE ADDRESS PUSH1 0x4 DUP3 ADD MSTORE PUSH1 0x0 SWAP2 PUSH1 0x1 PUSH1 0x1 PUSH1 0xA0 SHL SUB AND SWAP1 PUSH4 0x70A08231 SWAP1 PUSH1 0x24 ADD PUSH1 0x20 PUSH1 0x40 MLOAD DUP1 DUP4 SUB DUP2 DUP7 GAS STATICCALL ISZERO DUP1 ISZERO PUSH2 0x2F6C JUMPI RETURNDATASIZE PUSH1 0x0 DUP1 RETURNDATACOPY RETURNDATASIZE PUSH1 0x0 REVERT JUMPDEST POP POP POP POP PUSH1 0x40 MLOAD RETURNDATASIZE PUSH1 0x1F NOT PUSH1 0x1F DUP3 ADD AND DUP3 ADD DUP1 PUSH1 0x40 MSTORE POP DUP2 ADD SWAP1 PUSH2 0x2F90 SWAP2 SWAP1 PUSH2 0x4E13 JUMP JUMPDEST SWAP1 POP PUSH1 0x0 PUSH1 0x4 SLOAD DUP3 PUSH2 0x2FA2 SWAP2 SWAP1 PUSH2 0x4EBC JUMP JUMPDEST SWAP1 POP PUSH1 0x0 DUP2 PUSH1 0x2 DUP7 DUP2 SLOAD DUP2 LT PUSH2 0x2FBA JUMPI PUSH2 0x2FBA PUSH2 0x4DAF JUMP JUMPDEST PUSH1 0x0 SWAP2 DUP3 MSTORE PUSH1 0x20 SWAP1 SWAP2 KECCAK256 PUSH1 0x1 PUSH1 0x4 SWAP1 SWAP3 MUL ADD ADD SLOAD PUSH1 0x2 DUP1 SLOAD PUSH1 0x1 PUSH1 0x1 PUSH1 0x70 SHL SUB SWAP1 SWAP3 AND SWAP2 DUP9 SWAP1 DUP2 LT PUSH2 0x2FEE JUMPI PUSH2 0x2FEE PUSH2 0x4DAF JUMP JUMPDEST PUSH1 0x0 SWAP2 DUP3 MSTORE PUSH1 0x20 SWAP1 SWAP2 KECCAK256 PUSH1 0x4 SWAP1 SWAP2 MUL ADD PUSH1 0x1 ADD SLOAD PUSH2 0x301C SWAP1 PUSH1 0x1 PUSH1 0x70 SHL SWAP1 DIV PUSH1 0x1 PUSH1 0x1 PUSH1 0x70 SHL SUB AND DUP12 PUSH2 0x4E6E JUMP JUMPDEST PUSH2 0x3026 SWAP2 SWAP1 PUSH2 0x4ED3 JUMP JUMPDEST PUSH2 0x3030 SWAP2 SWAP1 PUSH2 0x4EBC JUMP JUMPDEST SWAP1 POP PUSH1 0x0 PUSH1 0x2 DUP7 DUP2 SLOAD DUP2 LT PUSH2 0x3047 JUMPI PUSH2 0x3047 PUSH2 0x4DAF JUMP JUMPDEST PUSH1 0x0 SWAP2 DUP3 MSTORE PUSH1 0x20 DUP3 KECCAK256 PUSH1 0x2 PUSH1 0x4 SWAP1 SWAP3 MUL ADD DUP2 ADD SLOAD DUP2 SLOAD PUSH1 0x1 PUSH1 0x1 PUSH1 0x70 SHL SUB SWAP1 SWAP2 AND SWAP4 POP PUSH2 0x30C0 SWAP2 SWAP1 DUP10 SWAP1 DUP2 LT PUSH2 0x307F JUMPI PUSH2 0x307F PUSH2 0x4DAF JUMP JUMPDEST SWAP1 PUSH1 0x0 MSTORE PUSH1 0x20 PUSH1 0x0 KECCAK256 SWAP1 PUSH1 0x4 MUL ADD PUSH1 0x1 ADD PUSH1 0xE SWAP1 SLOAD SWAP1 PUSH2 0x100 EXP SWAP1 DIV PUSH1 0x1 PUSH1 0x1 PUSH1 0x70 SHL SUB AND PUSH1 0x1 PUSH1 0x1 PUSH1 0x70 SHL SUB AND PUSH1 0x2 DUP10 DUP2 SLOAD DUP2 LT PUSH2 0x2928 JUMPI PUSH2 0x2928 PUSH2 0x4DAF JUMP JUMPDEST SWAP1 POP DUP5 PUSH1 0x4 DUP2 SWAP1 SSTORE POP DUP1 PUSH1 0x2 DUP9 DUP2 SLOAD DUP2 LT PUSH2 0x30DD JUMPI PUSH2 0x30DD PUSH2 0x4DAF JUMP JUMPDEST SWAP1 PUSH1 0x0 MSTORE PUSH1 0x20 PUSH1 0x0 KECCAK256 SWAP1 PUSH1 0x4 MUL ADD PUSH1 0x2 ADD PUSH1 0x0 PUSH2 0x100 EXP DUP2 SLOAD DUP2 PUSH1 0x1 PUSH1 0x1 PUSH1 0x70 SHL SUB MUL NOT AND SWAP1 DUP4 PUSH1 0x1 PUSH1 0x1 PUSH1 0x70 SHL SUB AND MUL OR SWAP1 SSTORE POP DUP6 PUSH1 0x2 DUP9 DUP2 SLOAD DUP2 LT PUSH2 0x3126 JUMPI PUSH2 0x3126 PUSH2 0x4DAF JUMP JUMPDEST PUSH1 0x0 SWAP2 DUP3 MSTORE PUSH1 0x20 SWAP1 SWAP2 KECCAK256 PUSH1 0x4 SWAP1 SWAP2 MUL ADD PUSH1 0x1 ADD DUP1 SLOAD PUSH1 0x1 PUSH1 0x1 PUSH1 0x70 SHL SUB NOT AND PUSH1 0x1 PUSH1 0x1 PUSH1 0x70 SHL SUB SWAP3 SWAP1 SWAP3 AND SWAP2 SWAP1 SWAP2 OR SWAP1 SSTORE PUSH2 0x3161 DUP4 DUP6 PUSH2 0x4E2C JUMP JUMPDEST PUSH1 0x2 DUP9 DUP2 SLOAD DUP2 LT PUSH2 0x3174 JUMPI PUSH2 0x3174 PUSH2 0x4DAF JUMP JUMPDEST SWAP1 PUSH1 0x0 MSTORE PUSH1 0x20 PUSH1 0x0 KECCAK256 SWAP1 PUSH1 0x4 MUL ADD PUSH1 0x1 ADD PUSH1 0xE SWAP1 SLOAD SWAP1 PUSH2 0x100 EXP SWAP1 DIV PUSH1 0x1 PUSH1 0x1 PUSH1 0x70 SHL SUB AND PUSH2 0x31A3 SWAP2 SWAP1 PUSH2 0x4F42 JUMP JUMPDEST PUSH1 0x2 DUP9 DUP2 SLOAD DUP2 LT PUSH2 0x31B6 JUMPI PUSH2 0x31B6 PUSH2 0x4DAF JUMP JUMPDEST PUSH1 0x0 SWAP2 DUP3 MSTORE PUSH1 0x20 SWAP1 SWAP2 KECCAK256 PUSH1 0x4 SWAP2 DUP3 MUL ADD PUSH1 0x1 ADD DUP1 SLOAD PUSH1 0x1 PUSH1 0x70 SHL PUSH1 0x1 PUSH1 0xE0 SHL SUB NOT AND PUSH1 0x1 PUSH1 0x70 SHL PUSH1 0x1 PUSH1 0x1 PUSH1 0x70 SHL SUB SWAP5 SWAP1 SWAP5 AND SWAP4 SWAP1 SWAP4 MUL SWAP3 SWAP1 SWAP3 OR SWAP1 SWAP2 SSTORE PUSH1 0x7 SLOAD PUSH1 0x40 MLOAD PUSH4 0xBB9FF5D PUSH1 0xE0 SHL DUP2 MSTORE ADDRESS SWAP3 DUP2 ADD SWAP3 SWAP1 SWAP3 MSTORE PUSH1 0x24 DUP3 ADD DUP6 SWAP1 MSTORE PUSH1 0x1 PUSH1 0x1 PUSH1 0xA0 SHL SUB AND SWAP1 PUSH4 0xBB9FF5D SWAP1 PUSH1 0x44 ADD PUSH1 0x0 PUSH1 0x40 MLOAD DUP1 DUP4 SUB DUP2 PUSH1 0x0 DUP8 DUP1 EXTCODESIZE ISZERO DUP1 ISZERO PUSH2 0x3240 JUMPI PUSH1 0x0 DUP1 REVERT JUMPDEST POP GAS CALL ISZERO DUP1 ISZERO PUSH2 0x3254 JUMPI RETURNDATASIZE PUSH1 0x0 DUP1 RETURNDATACOPY RETURNDATASIZE PUSH1 0x0 REVERT JUMPDEST POP POP PUSH1 0x5 SLOAD PUSH1 0x40 MLOAD PUSH4 0xBD85B039 PUSH1 0xE0 SHL DUP2 MSTORE PUSH1 0x4 DUP2 ADD DUP12 SWAP1 MSTORE PUSH1 0x0 SWAP4 POP PUSH1 0x1 PUSH1 0x1 PUSH1 0xA0 SHL SUB SWAP1 SWAP2 AND SWAP2 POP PUSH4 0xBD85B039 SWAP1 PUSH1 0x24 ADD PUSH1 0x20 PUSH1 0x40 MLOAD DUP1 DUP4 SUB DUP2 DUP7 GAS STATICCALL ISZERO DUP1 ISZERO PUSH2 0x32A4 JUMPI RETURNDATASIZE PUSH1 0x0 DUP1 RETURNDATACOPY RETURNDATASIZE PUSH1 0x0 REVERT JUMPDEST POP POP POP POP PUSH1 0x40 MLOAD RETURNDATASIZE PUSH1 0x1F NOT PUSH1 0x1F DUP3 ADD AND DUP3 ADD DUP1 PUSH1 0x40 MSTORE POP DUP2 ADD SWAP1 PUSH2 0x32C8 SWAP2 SWAP1 PUSH2 0x4E13 JUMP JUMPDEST SWAP1 POP PUSH1 0x0 PUSH1 0x2 DUP10 DUP2 SLOAD DUP2 LT PUSH2 0x32DF JUMPI PUSH2 0x32DF PUSH2 0x4DAF JUMP JUMPDEST PUSH1 0x0 SWAP2 DUP3 MSTORE PUSH1 0x20 SWAP1 SWAP2 KECCAK256 PUSH1 0x1 PUSH1 0x4 SWAP1 SWAP3 MUL ADD ADD SLOAD PUSH1 0x1 PUSH1 0x1 PUSH1 0x70 SHL SUB AND PUSH2 0x3306 DUP4 DUP15 PUSH2 0x4E6E JUMP JUMPDEST PUSH2 0x3310 SWAP2 SWAP1 PUSH2 0x4ED3 JUMP JUMPDEST PUSH1 0x5 SLOAD PUSH1 0x40 MLOAD PUSH3 0x4A84CB PUSH1 0xE0 SHL DUP2 MSTORE SWAP2 SWAP3 POP PUSH1 0x1 PUSH1 0x1 PUSH1 0xA0 SHL SUB AND SWAP1 PUSH3 0x4A84CB SWAP1 PUSH2 0x3343 SWAP1 DUP15 SWAP1 DUP14 SWAP1 DUP7 SWAP1 PUSH1 0x4 ADD PUSH2 0x4EE7 JUMP JUMPDEST PUSH1 0x0 PUSH1 0x40 MLOAD DUP1 DUP4 SUB DUP2 PUSH1 0x0 DUP8 DUP1 EXTCODESIZE ISZERO DUP1 ISZERO PUSH2 0x335D JUMPI PUSH1 0x0 DUP1 REVERT JUMPDEST POP GAS CALL ISZERO DUP1 ISZERO PUSH2 0x3371 JUMPI RETURNDATASIZE PUSH1 0x0 DUP1 RETURNDATACOPY RETURNDATASIZE PUSH1 0x0 REVERT JUMPDEST POP POP POP POP PUSH1 0x0 PUSH2 0x3394 DUP6 PUSH1 0x1 PUSH1 0x1 PUSH1 0x70 SHL SUB AND DUP6 PUSH1 0x1 PUSH1 0x1 PUSH1 0x70 SHL SUB AND DUP6 PUSH2 0x3972 JUMP JUMPDEST SWAP1 POP DUP1 ISZERO PUSH2 0x3405 JUMPI PUSH1 0x5 SLOAD PUSH1 0xA SLOAD PUSH1 0x40 MLOAD PUSH3 0x4A84CB PUSH1 0xE0 SHL DUP2 MSTORE PUSH1 0x1 PUSH1 0x1 PUSH1 0xA0 SHL SUB SWAP3 DUP4 AND SWAP3 PUSH3 0x4A84CB SWAP3 PUSH2 0x33D2 SWAP3 SWAP2 AND SWAP1 DUP15 SWAP1 DUP7 SWAP1 PUSH1 0x4 ADD PUSH2 0x4EE7 JUMP JUMPDEST PUSH1 0x0 PUSH1 0x40 MLOAD DUP1 DUP4 SUB DUP2 PUSH1 0x0 DUP8 DUP1 EXTCODESIZE ISZERO DUP1 ISZERO PUSH2 0x33EC JUMPI PUSH1 0x0 DUP1 REVERT JUMPDEST POP GAS CALL ISZERO DUP1 ISZERO PUSH2 0x3400 JUMPI RETURNDATASIZE PUSH1 0x0 DUP1 RETURNDATACOPY RETURNDATASIZE PUSH1 0x0 REVERT JUMPDEST POP POP POP POP JUMPDEST POP POP POP POP POP POP POP POP POP POP POP POP POP POP POP JUMP JUMPDEST PUSH1 0x0 PUSH1 0x1 PUSH1 0x1 PUSH1 0xA0 SHL SUB DUP8 AND ADDRESS EQ PUSH2 0x343D JUMPI PUSH2 0x343D PUSH1 0x1 PUSH1 0x1 PUSH1 0xA0 SHL SUB DUP8 AND DUP9 ADDRESS DUP8 PUSH2 0x385F JUMP JUMPDEST PUSH1 0x7 SLOAD PUSH1 0x0 SWAP1 PUSH1 0x1 PUSH1 0x1 PUSH1 0xA0 SHL SUB DUP9 DUP2 AND SWAP2 AND EQ DUP1 ISZERO PUSH2 0x346B JUMPI POP PUSH1 0x7 SLOAD PUSH1 0x1 PUSH1 0x1 PUSH1 0xA0 SHL SUB DUP8 DUP2 AND SWAP2 AND EQ ISZERO JUMPDEST ISZERO PUSH2 0x3482 JUMPI PUSH2 0x347B DUP7 DUP6 DUP6 PUSH2 0x3B90 JUMP JUMPDEST SWAP1 POP PUSH2 0x34D8 JUMP JUMPDEST PUSH1 0x7 SLOAD PUSH1 0x1 PUSH1 0x1 PUSH1 0xA0 SHL SUB DUP9 DUP2 AND SWAP2 AND EQ DUP1 ISZERO SWAP1 PUSH2 0x34AD JUMPI POP PUSH1 0x7 SLOAD PUSH1 0x1 PUSH1 0x1 PUSH1 0xA0 SHL SUB DUP8 DUP2 AND SWAP2 AND EQ JUMPDEST ISZERO PUSH2 0x34BD JUMPI PUSH2 0x347B DUP8 DUP6 DUP6 PUSH2 0x410D JUMP JUMPDEST PUSH2 0x34C9 DUP8 PUSH1 0x0 ADDRESS PUSH2 0x410D JUMP JUMPDEST POP PUSH2 0x34D5 DUP7 DUP6 DUP6 PUSH2 0x3B90 JUMP JUMPDEST SWAP1 POP JUMPDEST SWAP8 SWAP7 POP POP POP POP POP POP POP JUMP JUMPDEST PUSH1 0x0 DUP1 PUSH2 0x34F0 DUP7 DUP6 PUSH2 0x4EBC JUMP JUMPDEST PUSH2 0x34FA SWAP1 DUP5 PUSH2 0x4E6E JUMP JUMPDEST PUSH2 0x2710 PUSH2 0x3507 DUP9 DUP9 PUSH2 0x4E6E JUMP JUMPDEST PUSH2 0x3511 SWAP2 SWAP1 PUSH2 0x4E6E JUMP JUMPDEST PUSH2 0x351B SWAP2 SWAP1 PUSH2 0x4ED3 JUMP JUMPDEST PUSH2 0x3526 SWAP1 PUSH1 0x1 PUSH2 0x4E2C JUMP JUMPDEST SWAP7 SWAP6 POP POP POP POP POP POP JUMP JUMPDEST PUSH2 0x353A DUP3 DUP3 PUSH2 0x24C4 JUMP JUMPDEST PUSH1 0x0 DUP3 DUP2 MSTORE PUSH1 0x1 PUSH1 0x20 MSTORE PUSH1 0x40 SWAP1 KECCAK256 PUSH2 0xD77 SWAP1 DUP3 PUSH2 0x2548 JUMP JUMPDEST PUSH2 0x355C DUP3 DUP3 PUSH2 0x4555 JUMP JUMPDEST PUSH1 0x0 DUP3 DUP2 MSTORE PUSH1 0x1 PUSH1 0x20 MSTORE PUSH1 0x40 SWAP1 KECCAK256 PUSH2 0xD77 SWAP1 DUP3 PUSH2 0x45BA JUMP JUMPDEST PUSH1 0x0 PUSH2 0xD4A DUP4 DUP4 PUSH2 0x45CF JUMP JUMPDEST PUSH1 0x7 SLOAD PUSH1 0x0 SWAP1 DUP2 SWAP1 DUP2 SWAP1 PUSH1 0x1 PUSH1 0x1 PUSH1 0xA0 SHL SUB DUP10 DUP2 AND SWAP2 AND EQ DUP1 ISZERO PUSH2 0x35B2 JUMPI POP PUSH1 0x7 SLOAD PUSH1 0x1 PUSH1 0x1 PUSH1 0xA0 SHL SUB DUP9 DUP2 AND SWAP2 AND EQ ISZERO JUMPDEST ISZERO PUSH2 0x3651 JUMPI PUSH1 0x1 PUSH1 0x1 PUSH1 0xA0 SHL SUB DUP8 AND PUSH1 0x0 SWAP1 DUP2 MSTORE PUSH1 0x3 PUSH1 0x20 MSTORE PUSH1 0x40 SWAP1 KECCAK256 SLOAD PUSH2 0x35DA SWAP1 DUP7 PUSH2 0x12F8 JUMP JUMPDEST SWAP2 POP DUP6 DUP3 GT ISZERO PUSH1 0x40 MLOAD DUP1 PUSH1 0x40 ADD PUSH1 0x40 MSTORE DUP1 PUSH1 0x1 DUP2 MSTORE PUSH1 0x20 ADD PUSH1 0xB PUSH1 0xFB SHL DUP2 MSTORE POP SWAP1 PUSH2 0x3618 JUMPI PUSH1 0x40 MLOAD PUSH3 0x461BCD PUSH1 0xE5 SHL DUP2 MSTORE PUSH1 0x4 ADD PUSH2 0x86D SWAP2 SWAP1 PUSH2 0x4D9C JUMP JUMPDEST POP PUSH1 0x1 PUSH1 0x1 PUSH1 0xA0 SHL SUB DUP10 AND ADDRESS EQ PUSH2 0x363E JUMPI PUSH2 0x363E PUSH1 0x1 PUSH1 0x1 PUSH1 0xA0 SHL SUB DUP10 AND DUP11 ADDRESS DUP6 PUSH2 0x385F JUMP JUMPDEST PUSH2 0x364A DUP8 PUSH1 0x0 DUP7 PUSH2 0x3B90 JUMP JUMPDEST SWAP1 POP PUSH2 0x12C8 JUMP JUMPDEST PUSH1 0x7 SLOAD PUSH1 0x1 PUSH1 0x1 PUSH1 0xA0 SHL SUB DUP10 DUP2 AND SWAP2 AND EQ DUP1 ISZERO SWAP1 PUSH2 0x367C JUMPI POP PUSH1 0x7 SLOAD PUSH1 0x1 PUSH1 0x1 PUSH1 0xA0 SHL SUB DUP9 DUP2 AND SWAP2 AND EQ JUMPDEST ISZERO PUSH2 0x3714 JUMPI PUSH1 0x1 PUSH1 0x1 PUSH1 0xA0 SHL SUB DUP9 AND PUSH1 0x0 SWAP1 DUP2 MSTORE PUSH1 0x3 PUSH1 0x20 MSTORE PUSH1 0x40 SWAP1 KECCAK256 SLOAD PUSH2 0x36A4 SWAP1 DUP7 PUSH2 0xCCB JUMP JUMPDEST SWAP2 POP DUP6 DUP3 GT ISZERO PUSH1 0x40 MLOAD DUP1 PUSH1 0x40 ADD PUSH1 0x40 MSTORE DUP1 PUSH1 0x1 DUP2 MSTORE PUSH1 0x20 ADD PUSH1 0x59 PUSH1 0xF8 SHL DUP2 MSTORE POP SWAP1 PUSH2 0x36E2 JUMPI PUSH1 0x40 MLOAD PUSH3 0x461BCD PUSH1 0xE5 SHL DUP2 MSTORE PUSH1 0x4 ADD PUSH2 0x86D SWAP2 SWAP1 PUSH2 0x4D9C JUMP JUMPDEST POP PUSH1 0x1 PUSH1 0x1 PUSH1 0xA0 SHL SUB DUP10 AND ADDRESS EQ PUSH2 0x3708 JUMPI PUSH2 0x3708 PUSH1 0x1 PUSH1 0x1 PUSH1 0xA0 SHL SUB DUP10 AND DUP11 ADDRESS DUP6 PUSH2 0x385F JUMP JUMPDEST PUSH2 0x364A DUP9 PUSH1 0x0 DUP7 PUSH2 0x410D JUMP JUMPDEST PUSH1 0x7 SLOAD PUSH1 0x1 PUSH1 0x1 PUSH1 0xA0 SHL SUB DUP10 DUP2 AND SWAP2 AND EQ DUP1 ISZERO SWAP1 PUSH2 0x3740 JUMPI POP PUSH1 0x7 SLOAD PUSH1 0x1 PUSH1 0x1 PUSH1 0xA0 SHL SUB DUP9 DUP2 AND SWAP2 AND EQ ISZERO JUMPDEST ISZERO PUSH2 0x12C8 JUMPI PUSH1 0x1 PUSH1 0x1 PUSH1 0xA0 SHL SUB DUP8 AND PUSH1 0x0 SWAP1 DUP2 MSTORE PUSH1 0x3 PUSH1 0x20 MSTORE PUSH1 0x40 DUP2 KECCAK256 SLOAD PUSH2 0x3768 SWAP1 DUP8 PUSH2 0x12F8 JUMP JUMPDEST PUSH1 0x1 PUSH1 0x1 PUSH1 0xA0 SHL SUB DUP11 AND PUSH1 0x0 SWAP1 DUP2 MSTORE PUSH1 0x3 PUSH1 0x20 MSTORE PUSH1 0x40 SWAP1 KECCAK256 SLOAD SWAP1 SWAP2 POP PUSH2 0x378E SWAP1 DUP3 PUSH2 0xCCB JUMP JUMPDEST SWAP3 POP DUP7 DUP4 GT ISZERO PUSH1 0x40 MLOAD DUP1 PUSH1 0x40 ADD PUSH1 0x40 MSTORE DUP1 PUSH1 0x1 DUP2 MSTORE PUSH1 0x20 ADD PUSH1 0x59 PUSH1 0xF8 SHL DUP2 MSTORE POP SWAP1 PUSH2 0x37CC JUMPI PUSH1 0x40 MLOAD PUSH3 0x461BCD PUSH1 0xE5 SHL DUP2 MSTORE PUSH1 0x4 ADD PUSH2 0x86D SWAP2 SWAP1 PUSH2 0x4D9C JUMP JUMPDEST POP PUSH1 0x1 PUSH1 0x1 PUSH1 0xA0 SHL SUB DUP11 AND ADDRESS EQ PUSH2 0x37F2 JUMPI PUSH2 0x37F2 PUSH1 0x1 PUSH1 0x1 PUSH1 0xA0 SHL SUB DUP11 AND DUP12 ADDRESS DUP7 PUSH2 0x385F JUMP JUMPDEST PUSH2 0x37FE DUP10 PUSH1 0x0 ADDRESS PUSH2 0x410D JUMP JUMPDEST POP PUSH2 0x380B DUP9 PUSH1 0x0 DUP8 PUSH2 0x3B90 JUMP JUMPDEST SWAP11 SWAP10 POP POP POP POP POP POP POP POP POP POP JUMP JUMPDEST PUSH1 0x0 PUSH2 0x980 DUP3 SLOAD SWAP1 JUMP JUMPDEST PUSH1 0x0 DUP1 PUSH2 0x3830 DUP4 DUP8 PUSH2 0x4E6E JUMP JUMPDEST SWAP1 POP PUSH1 0x0 DUP2 PUSH2 0x3841 PUSH2 0x2710 DUP9 PUSH2 0x4E6E JUMP JUMPDEST PUSH2 0x384B SWAP2 SWAP1 PUSH2 0x4E2C JUMP JUMPDEST PUSH2 0x3855 DUP4 DUP8 PUSH2 0x4E6E JUMP JUMPDEST PUSH2 0x34D8 SWAP2 SWAP1 PUSH2 0x4ED3 JUMP JUMPDEST PUSH1 0x40 MLOAD PUSH1 0x1 PUSH1 0x1 PUSH1 0xA0 SHL SUB DUP1 DUP6 AND PUSH1 0x24 DUP4 ADD MSTORE DUP4 AND PUSH1 0x44 DUP3 ADD MSTORE PUSH1 0x64 DUP2 ADD DUP3 SWAP1 MSTORE PUSH2 0x903 SWAP1 DUP6 SWAP1 PUSH4 0x23B872DD PUSH1 0xE0 SHL SWAP1 PUSH1 0x84 ADD JUMPDEST PUSH1 0x40 DUP1 MLOAD PUSH1 0x1F NOT DUP2 DUP5 SUB ADD DUP2 MSTORE SWAP2 SWAP1 MSTORE PUSH1 0x20 DUP2 ADD DUP1 MLOAD PUSH1 0x1 PUSH1 0x1 PUSH1 0xE0 SHL SUB AND PUSH1 0x1 PUSH1 0x1 PUSH1 0xE0 SHL SUB NOT SWAP1 SWAP4 AND SWAP3 SWAP1 SWAP3 OR SWAP1 SWAP2 MSTORE PUSH2 0x45F9 JUMP JUMPDEST PUSH1 0x0 DUP1 PUSH1 0x2 PUSH2 0x38DA DUP5 PUSH1 0x1 PUSH2 0x4E2C JUMP JUMPDEST PUSH2 0x38E4 SWAP2 SWAP1 PUSH2 0x4ED3 JUMP JUMPDEST SWAP1 POP DUP3 SWAP2 POP JUMPDEST DUP2 DUP2 LT ISZERO PUSH2 0x391D JUMPI SWAP1 POP DUP1 PUSH1 0x2 DUP2 PUSH2 0x3902 DUP2 DUP7 PUSH2 0x4ED3 JUMP JUMPDEST PUSH2 0x390C SWAP2 SWAP1 PUSH2 0x4E2C JUMP JUMPDEST PUSH2 0x3916 SWAP2 SWAP1 PUSH2 0x4ED3 JUMP JUMPDEST SWAP1 POP PUSH2 0x38EA JUMP JUMPDEST POP SWAP2 SWAP1 POP JUMP JUMPDEST PUSH1 0x0 DUP2 DUP2 MSTORE PUSH1 0x1 DUP4 ADD PUSH1 0x20 MSTORE PUSH1 0x40 DUP2 KECCAK256 SLOAD PUSH2 0x396A JUMPI POP DUP2 SLOAD PUSH1 0x1 DUP2 DUP2 ADD DUP5 SSTORE PUSH1 0x0 DUP5 DUP2 MSTORE PUSH1 0x20 DUP1 DUP3 KECCAK256 SWAP1 SWAP4 ADD DUP5 SWAP1 SSTORE DUP5 SLOAD DUP5 DUP3 MSTORE DUP3 DUP7 ADD SWAP1 SWAP4 MSTORE PUSH1 0x40 SWAP1 KECCAK256 SWAP2 SWAP1 SWAP2 SSTORE PUSH2 0x980 JUMP JUMPDEST POP PUSH1 0x0 PUSH2 0x980 JUMP JUMPDEST PUSH1 0x0 DUP4 DUP4 GT DUP1 ISZERO PUSH2 0x3983 JUMPI POP PUSH1 0x0 DUP5 GT JUMPDEST ISZERO PUSH2 0xD4A JUMPI DUP4 PUSH2 0x3994 DUP5 PUSH1 0x5 PUSH2 0x4E6E JUMP JUMPDEST PUSH2 0x399E SWAP2 SWAP1 PUSH2 0x4E2C JUMP JUMPDEST PUSH2 0x39A8 DUP6 DUP6 PUSH2 0x4EBC JUMP JUMPDEST PUSH2 0x39B2 SWAP1 DUP5 PUSH2 0x4E6E JUMP JUMPDEST PUSH2 0x39BC SWAP2 SWAP1 PUSH2 0x4ED3 JUMP JUMPDEST SWAP5 SWAP4 POP POP POP POP JUMP JUMPDEST PUSH1 0x40 MLOAD PUSH1 0x1 PUSH1 0x1 PUSH1 0xA0 SHL SUB DUP4 AND PUSH1 0x24 DUP3 ADD MSTORE PUSH1 0x44 DUP2 ADD DUP3 SWAP1 MSTORE PUSH2 0xD77 SWAP1 DUP5 SWAP1 PUSH4 0xA9059CBB PUSH1 0xE0 SHL SWAP1 PUSH1 0x64 ADD PUSH2 0x3893 JUMP JUMPDEST PUSH1 0x60 PUSH1 0x0 PUSH2 0x3A03 DUP4 PUSH1 0x2 PUSH2 0x4E6E JUMP JUMPDEST PUSH2 0x3A0E SWAP1 PUSH1 0x2 PUSH2 0x4E2C JUMP JUMPDEST PUSH8 0xFFFFFFFFFFFFFFFF DUP2 GT ISZERO PUSH2 0x3A26 JUMPI PUSH2 0x3A26 PUSH2 0x500A JUMP JUMPDEST PUSH1 0x40 MLOAD SWAP1 DUP1 DUP3 MSTORE DUP1 PUSH1 0x1F ADD PUSH1 0x1F NOT AND PUSH1 0x20 ADD DUP3 ADD PUSH1 0x40 MSTORE DUP1 ISZERO PUSH2 0x3A50 JUMPI PUSH1 0x20 DUP3 ADD DUP2 DUP1 CALLDATASIZE DUP4 CALLDATACOPY ADD SWAP1 POP JUMPDEST POP SWAP1 POP PUSH1 0x3 PUSH1 0xFC SHL DUP2 PUSH1 0x0 DUP2 MLOAD DUP2 LT PUSH2 0x3A6B JUMPI PUSH2 0x3A6B PUSH2 0x4DAF JUMP JUMPDEST PUSH1 0x20 ADD ADD SWAP1 PUSH1 0x1 PUSH1 0x1 PUSH1 0xF8 SHL SUB NOT AND SWAP1 DUP2 PUSH1 0x0 BYTE SWAP1 MSTORE8 POP PUSH1 0xF PUSH1 0xFB SHL DUP2 PUSH1 0x1 DUP2 MLOAD DUP2 LT PUSH2 0x3A9A JUMPI PUSH2 0x3A9A PUSH2 0x4DAF JUMP JUMPDEST PUSH1 0x20 ADD ADD SWAP1 PUSH1 0x1 PUSH1 0x1 PUSH1 0xF8 SHL SUB NOT AND SWAP1 DUP2 PUSH1 0x0 BYTE SWAP1 MSTORE8 POP PUSH1 0x0 PUSH2 0x3ABE DUP5 PUSH1 0x2 PUSH2 0x4E6E JUMP JUMPDEST PUSH2 0x3AC9 SWAP1 PUSH1 0x1 PUSH2 0x4E2C JUMP JUMPDEST SWAP1 POP JUMPDEST PUSH1 0x1 DUP2 GT ISZERO PUSH2 0x3B41 JUMPI PUSH16 0x181899199A1A9B1B9C1CB0B131B232B3 PUSH1 0x81 SHL DUP6 PUSH1 0xF AND PUSH1 0x10 DUP2 LT PUSH2 0x3AFD JUMPI PUSH2 0x3AFD PUSH2 0x4DAF JUMP JUMPDEST BYTE PUSH1 0xF8 SHL DUP3 DUP3 DUP2 MLOAD DUP2 LT PUSH2 0x3B13 JUMPI PUSH2 0x3B13 PUSH2 0x4DAF JUMP JUMPDEST PUSH1 0x20 ADD ADD SWAP1 PUSH1 0x1 PUSH1 0x1 PUSH1 0xF8 SHL SUB NOT AND SWAP1 DUP2 PUSH1 0x0 BYTE SWAP1 MSTORE8 POP PUSH1 0x4 SWAP5 SWAP1 SWAP5 SHR SWAP4 PUSH2 0x3B3A DUP2 PUSH2 0x5020 JUMP JUMPDEST SWAP1 POP PUSH2 0x3ACC JUMP JUMPDEST POP DUP4 ISZERO PUSH2 0xD4A JUMPI PUSH1 0x40 MLOAD PUSH3 0x461BCD PUSH1 0xE5 SHL DUP2 MSTORE PUSH1 0x20 PUSH1 0x4 DUP3 ADD DUP2 SWAP1 MSTORE PUSH1 0x24 DUP3 ADD MSTORE PUSH32 0x537472696E67733A20686578206C656E67746820696E73756666696369656E74 PUSH1 0x44 DUP3 ADD MSTORE PUSH1 0x64 ADD PUSH2 0x86D JUMP JUMPDEST PUSH1 0x1 PUSH1 0x1 PUSH1 0xA0 SHL SUB DUP4 DUP2 AND PUSH1 0x0 SWAP1 DUP2 MSTORE PUSH1 0x3 PUSH1 0x20 MSTORE PUSH1 0x40 DUP1 DUP3 KECCAK256 SLOAD PUSH1 0x7 SLOAD SWAP2 MLOAD PUSH4 0x70A08231 PUSH1 0xE0 SHL DUP2 MSTORE ADDRESS PUSH1 0x4 DUP3 ADD MSTORE SWAP3 SWAP4 SWAP1 SWAP3 DUP5 SWAP3 SWAP1 SWAP2 AND SWAP1 PUSH4 0x70A08231 SWAP1 PUSH1 0x24 ADD PUSH1 0x20 PUSH1 0x40 MLOAD DUP1 DUP4 SUB DUP2 DUP7 GAS STATICCALL ISZERO DUP1 ISZERO PUSH2 0x3BF0 JUMPI RETURNDATASIZE PUSH1 0x0 DUP1 RETURNDATACOPY RETURNDATASIZE PUSH1 0x0 REVERT JUMPDEST POP POP POP POP PUSH1 0x40 MLOAD RETURNDATASIZE PUSH1 0x1F NOT PUSH1 0x1F DUP3 ADD AND DUP3 ADD DUP1 PUSH1 0x40 MSTORE POP DUP2 ADD SWAP1 PUSH2 0x3C14 SWAP2 SWAP1 PUSH2 0x4E13 JUMP JUMPDEST SWAP1 POP PUSH1 0x0 PUSH1 0x4 SLOAD DUP3 PUSH2 0x3C26 SWAP2 SWAP1 PUSH2 0x4EBC JUMP JUMPDEST SWAP1 POP PUSH1 0x0 DUP2 GT PUSH1 0x40 MLOAD DUP1 PUSH1 0x40 ADD PUSH1 0x40 MSTORE DUP1 PUSH1 0x1 DUP2 MSTORE PUSH1 0x20 ADD PUSH1 0x55 PUSH1 0xF8 SHL DUP2 MSTORE POP SWAP1 PUSH2 0x3C64 JUMPI PUSH1 0x40 MLOAD PUSH3 0x461BCD PUSH1 0xE5 SHL DUP2 MSTORE PUSH1 0x4 ADD PUSH2 0x86D SWAP2 SWAP1 PUSH2 0x4D9C JUMP JUMPDEST POP PUSH1 0x40 MLOAD PUSH4 0x70A08231 PUSH1 0xE0 SHL DUP2 MSTORE ADDRESS PUSH1 0x4 DUP3 ADD MSTORE PUSH1 0x0 SWAP1 PUSH1 0x1 PUSH1 0x1 PUSH1 0xA0 SHL SUB DUP10 AND SWAP1 PUSH4 0x70A08231 SWAP1 PUSH1 0x24 ADD PUSH1 0x20 PUSH1 0x40 MLOAD DUP1 DUP4 SUB DUP2 DUP7 GAS STATICCALL ISZERO DUP1 ISZERO PUSH2 0x3CAC JUMPI RETURNDATASIZE PUSH1 0x0 DUP1 RETURNDATACOPY RETURNDATASIZE PUSH1 0x0 REVERT JUMPDEST POP POP POP POP PUSH1 0x40 MLOAD RETURNDATASIZE PUSH1 0x1F NOT PUSH1 0x1F DUP3 ADD AND DUP3 ADD DUP1 PUSH1 0x40 MSTORE POP DUP2 ADD SWAP1 PUSH2 0x3CD0 SWAP2 SWAP1 PUSH2 0x4E13 JUMP JUMPDEST SWAP1 POP PUSH1 0x0 PUSH1 0x2 DUP6 DUP2 SLOAD DUP2 LT PUSH2 0x3CE7 JUMPI PUSH2 0x3CE7 PUSH2 0x4DAF JUMP JUMPDEST PUSH1 0x0 SWAP2 DUP3 MSTORE PUSH1 0x20 SWAP1 SWAP2 KECCAK256 PUSH1 0x1 PUSH1 0x4 SWAP1 SWAP3 MUL ADD ADD SLOAD PUSH2 0x3D0E SWAP1 PUSH1 0x1 PUSH1 0x1 PUSH1 0x70 SHL SUB AND DUP4 PUSH2 0x4EBC JUMP JUMPDEST SWAP1 POP PUSH1 0x0 PUSH2 0x3D1C DUP7 DUP6 PUSH2 0x2388 JUMP JUMPDEST SWAP1 POP DUP9 DUP2 LT ISZERO PUSH1 0x40 MLOAD DUP1 PUSH1 0x40 ADD PUSH1 0x40 MSTORE DUP1 PUSH1 0x1 DUP2 MSTORE PUSH1 0x20 ADD PUSH1 0x27 PUSH1 0xF9 SHL DUP2 MSTORE POP SWAP1 PUSH2 0x3D5A JUMPI PUSH1 0x40 MLOAD PUSH3 0x461BCD PUSH1 0xE5 SHL DUP2 MSTORE PUSH1 0x4 ADD PUSH2 0x86D SWAP2 SWAP1 PUSH2 0x4D9C JUMP JUMPDEST POP DUP5 PUSH1 0x4 DUP2 SWAP1 SSTORE POP DUP4 PUSH1 0x2 DUP8 DUP2 SLOAD DUP2 LT PUSH2 0x3D76 JUMPI PUSH2 0x3D76 PUSH2 0x4DAF JUMP JUMPDEST SWAP1 PUSH1 0x0 MSTORE PUSH1 0x20 PUSH1 0x0 KECCAK256 SWAP1 PUSH1 0x4 MUL ADD PUSH1 0x1 ADD PUSH1 0xE SWAP1 SLOAD SWAP1 PUSH2 0x100 EXP SWAP1 DIV PUSH1 0x1 PUSH1 0x1 PUSH1 0x70 SHL SUB AND PUSH2 0x3DA5 SWAP2 SWAP1 PUSH2 0x4F42 JUMP JUMPDEST PUSH1 0x2 DUP8 DUP2 SLOAD DUP2 LT PUSH2 0x3DB8 JUMPI PUSH2 0x3DB8 PUSH2 0x4DAF JUMP JUMPDEST SWAP1 PUSH1 0x0 MSTORE PUSH1 0x20 PUSH1 0x0 KECCAK256 SWAP1 PUSH1 0x4 MUL ADD PUSH1 0x1 ADD PUSH1 0xE PUSH2 0x100 EXP DUP2 SLOAD DUP2 PUSH1 0x1 PUSH1 0x1 PUSH1 0x70 SHL SUB MUL NOT AND SWAP1 DUP4 PUSH1 0x1 PUSH1 0x1 PUSH1 0x70 SHL SUB AND MUL OR SWAP1 SSTORE POP DUP1 DUP3 PUSH1 0x2 DUP9 DUP2 SLOAD DUP2 LT PUSH2 0x3E02 JUMPI PUSH2 0x3E02 PUSH2 0x4DAF JUMP JUMPDEST PUSH1 0x0 SWAP2 DUP3 MSTORE PUSH1 0x20 SWAP1 SWAP2 KECCAK256 PUSH1 0x1 PUSH1 0x4 SWAP1 SWAP3 MUL ADD ADD SLOAD PUSH2 0x3E29 SWAP2 SWAP1 PUSH1 0x1 PUSH1 0x1 PUSH1 0x70 SHL SUB AND PUSH2 0x4F42 JUMP JUMPDEST PUSH2 0x3E33 SWAP2 SWAP1 PUSH2 0x4F6D JUMP JUMPDEST PUSH1 0x2 DUP8 DUP2 SLOAD DUP2 LT PUSH2 0x3E46 JUMPI PUSH2 0x3E46 PUSH2 0x4DAF JUMP JUMPDEST SWAP1 PUSH1 0x0 MSTORE PUSH1 0x20 PUSH1 0x0 KECCAK256 SWAP1 PUSH1 0x4 MUL ADD PUSH1 0x1 ADD PUSH1 0x0 PUSH2 0x100 EXP DUP2 SLOAD DUP2 PUSH1 0x1 PUSH1 0x1 PUSH1 0x70 SHL SUB MUL NOT AND SWAP1 DUP4 PUSH1 0x1 PUSH1 0x1 PUSH1 0x70 SHL SUB AND MUL OR SWAP1 SSTORE POP PUSH1 0x0 PUSH2 0x3E85 PUSH2 0x1566 JUMP JUMPDEST SWAP1 POP PUSH1 0x0 PUSH1 0x2 DUP9 DUP2 SLOAD DUP2 LT PUSH2 0x3E9C JUMPI PUSH2 0x3E9C PUSH2 0x4DAF JUMP JUMPDEST POP PUSH1 0x0 MSTORE PUSH1 0x8 PUSH2 0x3EAA PUSH2 0x1566 JUMP JUMPDEST PUSH2 0x3EB5 SWAP1 PUSH1 0x1 PUSH2 0x4E2C JUMP JUMPDEST PUSH2 0x3EBF SWAP2 SWAP1 PUSH2 0x4E5A JUMP JUMPDEST SWAP1 POP PUSH8 0xDE0B6B3A7640000 DUP7 DIV PUSH1 0x2 DUP10 DUP2 SLOAD DUP2 LT PUSH2 0x3EDF JUMPI PUSH2 0x3EDF PUSH2 0x4DAF JUMP JUMPDEST SWAP1 PUSH1 0x0 MSTORE PUSH1 0x20 PUSH1 0x0 KECCAK256 SWAP1 PUSH1 0x4 MUL ADD PUSH1 0x3 ADD DUP4 PUSH1 0x8 DUP2 LT PUSH2 0x3F01 JUMPI PUSH2 0x3F01 PUSH2 0x4DAF JUMP JUMPDEST PUSH1 0x8 SWAP2 DUP3 DUP3 DIV ADD SWAP2 SWAP1 MOD PUSH1 0x4 MUL DUP3 DUP3 DUP3 SWAP1 SLOAD SWAP1 PUSH2 0x100 EXP SWAP1 DIV PUSH4 0xFFFFFFFF AND ADD SWAP3 POP PUSH2 0x100 EXP DUP2 SLOAD DUP2 PUSH4 0xFFFFFFFF MUL NOT AND SWAP1 DUP4 PUSH4 0xFFFFFFFF AND MUL OR SWAP1 SSTORE POP PUSH1 0x0 PUSH1 0x2 DUP10 DUP2 SLOAD DUP2 LT PUSH2 0x3F54 JUMPI PUSH2 0x3F54 PUSH2 0x4DAF JUMP JUMPDEST SWAP1 PUSH1 0x0 MSTORE PUSH1 0x20 PUSH1 0x0 KECCAK256 SWAP1 PUSH1 0x4 MUL ADD PUSH1 0x3 ADD DUP3 PUSH1 0x8 DUP2 LT PUSH2 0x3F76 JUMPI PUSH2 0x3F76 PUSH2 0x4DAF JUMP JUMPDEST PUSH1 0x8 SWAP2 DUP3 DUP3 DIV ADD SWAP2 SWAP1 MOD PUSH1 0x4 MUL SWAP1 SLOAD SWAP1 PUSH2 0x100 EXP SWAP1 DIV PUSH4 0xFFFFFFFF AND PUSH4 0xFFFFFFFF AND GT ISZERO PUSH2 0x3FFF JUMPI PUSH1 0x0 PUSH1 0x2 DUP10 DUP2 SLOAD DUP2 LT PUSH2 0x3FB3 JUMPI PUSH2 0x3FB3 PUSH2 0x4DAF JUMP JUMPDEST SWAP1 PUSH1 0x0 MSTORE PUSH1 0x20 PUSH1 0x0 KECCAK256 SWAP1 PUSH1 0x4 MUL ADD PUSH1 0x3 ADD DUP3 PUSH1 0x8 DUP2 LT PUSH2 0x3FD5 JUMPI PUSH2 0x3FD5 PUSH2 0x4DAF JUMP JUMPDEST PUSH1 0x8 SWAP2 DUP3 DUP3 DIV ADD SWAP2 SWAP1 MOD PUSH1 0x4 MUL PUSH2 0x100 EXP DUP2 SLOAD DUP2 PUSH4 0xFFFFFFFF MUL NOT AND SWAP1 DUP4 PUSH4 0xFFFFFFFF AND MUL OR SWAP1 SSTORE POP JUMPDEST PUSH1 0x1 PUSH1 0x1 PUSH1 0xA0 SHL SUB DUP11 AND ADDRESS EQ PUSH2 0x4023 JUMPI PUSH2 0x4023 PUSH1 0x1 PUSH1 0x1 PUSH1 0xA0 SHL SUB DUP14 AND DUP12 DUP6 PUSH2 0x39C4 JUMP JUMPDEST PUSH1 0x40 MLOAD PUSH4 0x70A08231 PUSH1 0xE0 SHL DUP2 MSTORE ADDRESS PUSH1 0x4 DUP3 ADD MSTORE PUSH1 0x0 SWAP1 PUSH1 0x1 PUSH1 0x1 PUSH1 0xA0 SHL SUB DUP15 AND SWAP1 PUSH4 0x70A08231 SWAP1 PUSH1 0x24 ADD PUSH1 0x20 PUSH1 0x40 MLOAD DUP1 DUP4 SUB DUP2 DUP7 GAS STATICCALL ISZERO DUP1 ISZERO PUSH2 0x406A JUMPI RETURNDATASIZE PUSH1 0x0 DUP1 RETURNDATACOPY RETURNDATASIZE PUSH1 0x0 REVERT JUMPDEST POP POP POP POP PUSH1 0x40 MLOAD RETURNDATASIZE PUSH1 0x1F NOT PUSH1 0x1F DUP3 ADD AND DUP3 ADD DUP1 PUSH1 0x40 MSTORE POP DUP2 ADD SWAP1 PUSH2 0x408E SWAP2 SWAP1 PUSH2 0x4E13 JUMP JUMPDEST SWAP1 POP PUSH1 0x2 DUP10 DUP2 SLOAD DUP2 LT PUSH2 0x40A3 JUMPI PUSH2 0x40A3 PUSH2 0x4DAF JUMP JUMPDEST PUSH1 0x0 SWAP2 DUP3 MSTORE PUSH1 0x20 SWAP2 DUP3 SWAP1 KECCAK256 PUSH1 0x1 PUSH1 0x4 SWAP1 SWAP3 MUL ADD DUP2 ADD SLOAD PUSH1 0x40 DUP1 MLOAD DUP1 DUP3 ADD SWAP1 SWAP2 MSTORE SWAP2 DUP3 MSTORE PUSH1 0x23 PUSH1 0xF9 SHL SWAP3 DUP3 ADD SWAP3 SWAP1 SWAP3 MSTORE SWAP1 PUSH1 0x1 PUSH1 0x1 PUSH1 0x70 SHL SUB AND DUP3 EQ PUSH2 0x40FB JUMPI PUSH1 0x40 MLOAD PUSH3 0x461BCD PUSH1 0xE5 SHL DUP2 MSTORE PUSH1 0x4 ADD PUSH2 0x86D SWAP2 SWAP1 PUSH2 0x4D9C JUMP JUMPDEST POP SWAP3 SWAP13 SWAP12 POP POP POP POP POP POP POP POP POP POP POP POP JUMP JUMPDEST PUSH1 0x1 PUSH1 0x1 PUSH1 0xA0 SHL SUB DUP4 AND PUSH1 0x0 DUP2 DUP2 MSTORE PUSH1 0x3 PUSH1 0x20 MSTORE PUSH1 0x40 DUP1 DUP3 KECCAK256 SLOAD SWAP1 MLOAD PUSH4 0x70A08231 PUSH1 0xE0 SHL DUP2 MSTORE ADDRESS PUSH1 0x4 DUP3 ADD MSTORE SWAP2 SWAP3 SWAP1 SWAP2 DUP4 SWAP2 SWAP1 PUSH4 0x70A08231 SWAP1 PUSH1 0x24 ADD PUSH1 0x20 PUSH1 0x40 MLOAD DUP1 DUP4 SUB DUP2 DUP7 GAS STATICCALL ISZERO DUP1 ISZERO PUSH2 0x4166 JUMPI RETURNDATASIZE PUSH1 0x0 DUP1 RETURNDATACOPY RETURNDATASIZE PUSH1 0x0 REVERT JUMPDEST POP POP POP POP PUSH1 0x40 MLOAD RETURNDATASIZE PUSH1 0x1F NOT PUSH1 0x1F DUP3 ADD AND DUP3 ADD DUP1 PUSH1 0x40 MSTORE POP DUP2 ADD SWAP1 PUSH2 0x418A SWAP2 SWAP1 PUSH2 0x4E13 JUMP JUMPDEST SWAP1 POP PUSH1 0x0 PUSH1 0x2 DUP4 DUP2 SLOAD DUP2 LT PUSH2 0x41A1 JUMPI PUSH2 0x41A1 PUSH2 0x4DAF JUMP JUMPDEST PUSH1 0x0 SWAP2 DUP3 MSTORE PUSH1 0x20 SWAP1 SWAP2 KECCAK256 PUSH1 0x1 PUSH1 0x4 SWAP1 SWAP3 MUL ADD ADD SLOAD PUSH2 0x41C8 SWAP1 PUSH1 0x1 PUSH1 0x1 PUSH1 0x70 SHL SUB AND DUP4 PUSH2 0x4EBC JUMP JUMPDEST SWAP1 POP PUSH1 0x0 DUP2 GT PUSH1 0x40 MLOAD DUP1 PUSH1 0x40 ADD PUSH1 0x40 MSTORE DUP1 PUSH1 0x1 DUP2 MSTORE PUSH1 0x20 ADD PUSH1 0x2D PUSH1 0xF9 SHL DUP2 MSTORE POP SWAP1 PUSH2 0x4206 JUMPI PUSH1 0x40 MLOAD PUSH3 0x461BCD PUSH1 0xE5 SHL DUP2 MSTORE PUSH1 0x4 ADD PUSH2 0x86D SWAP2 SWAP1 PUSH2 0x4D9C JUMP JUMPDEST POP PUSH1 0x7 SLOAD PUSH1 0x40 MLOAD PUSH4 0x70A08231 PUSH1 0xE0 SHL DUP2 MSTORE ADDRESS PUSH1 0x4 DUP3 ADD MSTORE PUSH1 0x0 SWAP2 PUSH1 0x1 PUSH1 0x1 PUSH1 0xA0 SHL SUB AND SWAP1 PUSH4 0x70A08231 SWAP1 PUSH1 0x24 ADD PUSH1 0x20 PUSH1 0x40 MLOAD DUP1 DUP4 SUB DUP2 DUP7 GAS STATICCALL ISZERO DUP1 ISZERO PUSH2 0x4250 JUMPI RETURNDATASIZE PUSH1 0x0 DUP1 RETURNDATACOPY RETURNDATASIZE PUSH1 0x0 REVERT JUMPDEST POP POP POP POP PUSH1 0x40 MLOAD RETURNDATASIZE PUSH1 0x1F NOT PUSH1 0x1F DUP3 ADD AND DUP3 ADD DUP1 PUSH1 0x40 MSTORE POP DUP2 ADD SWAP1 PUSH2 0x4274 SWAP2 SWAP1 PUSH2 0x4E13 JUMP JUMPDEST SWAP1 POP PUSH1 0x0 PUSH1 0x4 SLOAD DUP3 PUSH2 0x4286 SWAP2 SWAP1 PUSH2 0x4EBC JUMP JUMPDEST SWAP1 POP PUSH1 0x0 PUSH2 0x4294 DUP7 DUP6 PUSH2 0x1BEA JUMP JUMPDEST SWAP1 POP DUP9 DUP2 LT ISZERO PUSH1 0x40 MLOAD DUP1 PUSH1 0x40 ADD PUSH1 0x40 MSTORE DUP1 PUSH1 0x1 DUP2 MSTORE PUSH1 0x20 ADD PUSH1 0x4D PUSH1 0xF8 SHL DUP2 MSTORE POP SWAP1 PUSH2 0x42D2 JUMPI PUSH1 0x40 MLOAD PUSH3 0x461BCD PUSH1 0xE5 SHL DUP2 MSTORE PUSH1 0x4 ADD PUSH2 0x86D SWAP2 SWAP1 PUSH2 0x4D9C JUMP JUMPDEST POP DUP3 PUSH1 0x4 DUP2 SWAP1 SSTORE POP DUP1 DUP3 PUSH1 0x2 DUP9 DUP2 SLOAD DUP2 LT PUSH2 0x42EF JUMPI PUSH2 0x42EF PUSH2 0x4DAF JUMP JUMPDEST SWAP1 PUSH1 0x0 MSTORE PUSH1 0x20 PUSH1 0x0 KECCAK256 SWAP1 PUSH1 0x4 MUL ADD PUSH1 0x1 ADD PUSH1 0xE SWAP1 SLOAD SWAP1 PUSH2 0x100 EXP SWAP1 DIV PUSH1 0x1 PUSH1 0x1 PUSH1 0x70 SHL SUB AND PUSH2 0x431E SWAP2 SWAP1 PUSH2 0x4F42 JUMP JUMPDEST PUSH2 0x4328 SWAP2 SWAP1 PUSH2 0x4F6D JUMP JUMPDEST PUSH1 0x2 DUP8 DUP2 SLOAD DUP2 LT PUSH2 0x433B JUMPI PUSH2 0x433B PUSH2 0x4DAF JUMP JUMPDEST SWAP1 PUSH1 0x0 MSTORE PUSH1 0x20 PUSH1 0x0 KECCAK256 SWAP1 PUSH1 0x4 MUL ADD PUSH1 0x1 ADD PUSH1 0xE PUSH2 0x100 EXP DUP2 SLOAD DUP2 PUSH1 0x1 PUSH1 0x1 PUSH1 0x70 SHL SUB MUL NOT AND SWAP1 DUP4 PUSH1 0x1 PUSH1 0x1 PUSH1 0x70 SHL SUB AND MUL OR SWAP1 SSTORE POP DUP5 PUSH1 0x2 DUP8 DUP2 SLOAD DUP2 LT PUSH2 0x4384 JUMPI PUSH2 0x4384 PUSH2 0x4DAF JUMP JUMPDEST SWAP1 PUSH1 0x0 MSTORE PUSH1 0x20 PUSH1 0x0 KECCAK256 SWAP1 PUSH1 0x4 MUL ADD PUSH1 0x1 ADD PUSH1 0x0 PUSH2 0x100 EXP DUP2 SLOAD DUP2 PUSH1 0x1 PUSH1 0x1 PUSH1 0x70 SHL SUB MUL NOT AND SWAP1 DUP4 PUSH1 0x1 PUSH1 0x1 PUSH1 0x70 SHL SUB AND MUL OR SWAP1 SSTORE POP PUSH1 0x0 PUSH2 0x43C3 PUSH2 0x1566 JUMP JUMPDEST SWAP1 POP PUSH1 0x0 PUSH1 0x8 PUSH2 0x43D4 DUP4 PUSH1 0x1 PUSH2 0x4E2C JUMP JUMPDEST PUSH2 0x43DE SWAP2 SWAP1 PUSH2 0x4E5A JUMP JUMPDEST SWAP1 POP PUSH8 0xDE0B6B3A7640000 DUP4 DIV PUSH1 0x2 DUP10 DUP2 SLOAD DUP2 LT PUSH2 0x43FE JUMPI PUSH2 0x43FE PUSH2 0x4DAF JUMP JUMPDEST SWAP1 PUSH1 0x0 MSTORE PUSH1 0x20 PUSH1 0x0 KECCAK256 SWAP1 PUSH1 0x4 MUL ADD PUSH1 0x3 ADD DUP4 PUSH1 0x8 DUP2 LT PUSH2 0x4420 JUMPI PUSH2 0x4420 PUSH2 0x4DAF JUMP JUMPDEST PUSH1 0x8 SWAP2 DUP3 DUP3 DIV ADD SWAP2 SWAP1 MOD PUSH1 0x4 MUL DUP3 DUP3 DUP3 SWAP1 SLOAD SWAP1 PUSH2 0x100 EXP SWAP1 DIV PUSH4 0xFFFFFFFF AND ADD SWAP3 POP PUSH2 0x100 EXP DUP2 SLOAD DUP2 PUSH4 0xFFFFFFFF MUL NOT AND SWAP1 DUP4 PUSH4 0xFFFFFFFF AND MUL OR SWAP1 SSTORE POP PUSH1 0x0 PUSH1 0x2 DUP10 DUP2 SLOAD DUP2 LT PUSH2 0x4473 JUMPI PUSH2 0x4473 PUSH2 0x4DAF JUMP JUMPDEST SWAP1 PUSH1 0x0 MSTORE PUSH1 0x20 PUSH1 0x0 KECCAK256 SWAP1 PUSH1 0x4 MUL ADD PUSH1 0x3 ADD DUP3 PUSH1 0x8 DUP2 LT PUSH2 0x4495 JUMPI PUSH2 0x4495 PUSH2 0x4DAF JUMP JUMPDEST PUSH1 0x8 SWAP2 DUP3 DUP3 DIV ADD SWAP2 SWAP1 MOD PUSH1 0x4 MUL SWAP1 SLOAD SWAP1 PUSH2 0x100 EXP SWAP1 DIV PUSH4 0xFFFFFFFF AND PUSH4 0xFFFFFFFF AND GT ISZERO PUSH2 0x451E JUMPI PUSH1 0x0 PUSH1 0x2 DUP10 DUP2 SLOAD DUP2 LT PUSH2 0x44D2 JUMPI PUSH2 0x44D2 PUSH2 0x4DAF JUMP JUMPDEST SWAP1 PUSH1 0x0 MSTORE PUSH1 0x20 PUSH1 0x0 KECCAK256 SWAP1 PUSH1 0x4 MUL ADD PUSH1 0x3 ADD DUP3 PUSH1 0x8 DUP2 LT PUSH2 0x44F4 JUMPI PUSH2 0x44F4 PUSH2 0x4DAF JUMP JUMPDEST PUSH1 0x8 SWAP2 DUP3 DUP3 DIV ADD SWAP2 SWAP1 MOD PUSH1 0x4 MUL PUSH2 0x100 EXP DUP2 SLOAD DUP2 PUSH4 0xFFFFFFFF MUL NOT AND SWAP1 DUP4 PUSH4 0xFFFFFFFF AND MUL OR SWAP1 SSTORE POP JUMPDEST PUSH1 0x1 PUSH1 0x1 PUSH1 0xA0 SHL SUB DUP11 AND ADDRESS EQ PUSH2 0x4545 JUMPI PUSH1 0x7 SLOAD PUSH2 0x4545 SWAP1 PUSH1 0x1 PUSH1 0x1 PUSH1 0xA0 SHL SUB AND DUP12 DUP6 PUSH2 0x39C4 JUMP JUMPDEST POP SWAP1 SWAP11 SWAP10 POP POP POP POP POP POP POP POP POP POP JUMP JUMPDEST PUSH2 0x455F DUP3 DUP3 PUSH2 0x139A JUMP JUMPDEST ISZERO PUSH2 0xA01 JUMPI PUSH1 0x0 DUP3 DUP2 MSTORE PUSH1 0x20 DUP2 DUP2 MSTORE PUSH1 0x40 DUP1 DUP4 KECCAK256 PUSH1 0x1 PUSH1 0x1 PUSH1 0xA0 SHL SUB DUP6 AND DUP1 DUP6 MSTORE SWAP3 MSTORE DUP1 DUP4 KECCAK256 DUP1 SLOAD PUSH1 0xFF NOT AND SWAP1 SSTORE MLOAD CALLER SWAP3 DUP6 SWAP2 PUSH32 0xF6391F5C32D9C69D2A47EA670B442974B53935D1EDC7FD64EB21E047A839171B SWAP2 SWAP1 LOG4 POP POP JUMP JUMPDEST PUSH1 0x0 PUSH2 0xD4A DUP4 PUSH1 0x1 PUSH1 0x1 PUSH1 0xA0 SHL SUB DUP5 AND PUSH2 0x46CB JUMP JUMPDEST PUSH1 0x0 DUP3 PUSH1 0x0 ADD DUP3 DUP2 SLOAD DUP2 LT PUSH2 0x45E6 JUMPI PUSH2 0x45E6 PUSH2 0x4DAF JUMP JUMPDEST SWAP1 PUSH1 0x0 MSTORE PUSH1 0x20 PUSH1 0x0 KECCAK256 ADD SLOAD SWAP1 POP SWAP3 SWAP2 POP POP JUMP JUMPDEST PUSH1 0x0 PUSH2 0x464E DUP3 PUSH1 0x40 MLOAD DUP1 PUSH1 0x40 ADD PUSH1 0x40 MSTORE DUP1 PUSH1 0x20 DUP2 MSTORE PUSH1 0x20 ADD PUSH32 0x5361666545524332303A206C6F772D6C6576656C2063616C6C206661696C6564 DUP2 MSTORE POP DUP6 PUSH1 0x1 PUSH1 0x1 PUSH1 0xA0 SHL SUB AND PUSH2 0x47BE SWAP1 SWAP3 SWAP2 SWAP1 PUSH4 0xFFFFFFFF AND JUMP JUMPDEST DUP1 MLOAD SWAP1 SWAP2 POP ISZERO PUSH2 0xD77 JUMPI DUP1 DUP1 PUSH1 0x20 ADD SWAP1 MLOAD DUP2 ADD SWAP1 PUSH2 0x466C SWAP2 SWAP1 PUSH2 0x5037 JUMP JUMPDEST PUSH2 0xD77 JUMPI PUSH1 0x40 MLOAD PUSH3 0x461BCD PUSH1 0xE5 SHL DUP2 MSTORE PUSH1 0x20 PUSH1 0x4 DUP3 ADD MSTORE PUSH1 0x2A PUSH1 0x24 DUP3 ADD MSTORE PUSH32 0x5361666545524332303A204552433230206F7065726174696F6E20646964206E PUSH1 0x44 DUP3 ADD MSTORE PUSH10 0x1BDD081CDD58D8D95959 PUSH1 0xB2 SHL PUSH1 0x64 DUP3 ADD MSTORE PUSH1 0x84 ADD PUSH2 0x86D JUMP JUMPDEST PUSH1 0x0 DUP2 DUP2 MSTORE PUSH1 0x1 DUP4 ADD PUSH1 0x20 MSTORE PUSH1 0x40 DUP2 KECCAK256 SLOAD DUP1 ISZERO PUSH2 0x47B4 JUMPI PUSH1 0x0 PUSH2 0x46EF PUSH1 0x1 DUP4 PUSH2 0x4EBC JUMP JUMPDEST DUP6 SLOAD SWAP1 SWAP2 POP PUSH1 0x0 SWAP1 PUSH2 0x4703 SWAP1 PUSH1 0x1 SWAP1 PUSH2 0x4EBC JUMP JUMPDEST SWAP1 POP DUP2 DUP2 EQ PUSH2 0x4768 JUMPI PUSH1 0x0 DUP7 PUSH1 0x0 ADD DUP3 DUP2 SLOAD DUP2 LT PUSH2 0x4723 JUMPI PUSH2 0x4723 PUSH2 0x4DAF JUMP JUMPDEST SWAP1 PUSH1 0x0 MSTORE PUSH1 0x20 PUSH1 0x0 KECCAK256 ADD SLOAD SWAP1 POP DUP1 DUP8 PUSH1 0x0 ADD DUP5 DUP2 SLOAD DUP2 LT PUSH2 0x4746 JUMPI PUSH2 0x4746 PUSH2 0x4DAF JUMP JUMPDEST PUSH1 0x0 SWAP2 DUP3 MSTORE PUSH1 0x20 DUP1 DUP4 KECCAK256 SWAP1 SWAP2 ADD SWAP3 SWAP1 SWAP3 SSTORE SWAP2 DUP3 MSTORE PUSH1 0x1 DUP9 ADD SWAP1 MSTORE PUSH1 0x40 SWAP1 KECCAK256 DUP4 SWAP1 SSTORE JUMPDEST DUP6 SLOAD DUP7 SWAP1 DUP1 PUSH2 0x4779 JUMPI PUSH2 0x4779 PUSH2 0x5059 JUMP JUMPDEST PUSH1 0x1 SWAP1 SUB DUP2 DUP2 SWAP1 PUSH1 0x0 MSTORE PUSH1 0x20 PUSH1 0x0 KECCAK256 ADD PUSH1 0x0 SWAP1 SSTORE SWAP1 SSTORE DUP6 PUSH1 0x1 ADD PUSH1 0x0 DUP7 DUP2 MSTORE PUSH1 0x20 ADD SWAP1 DUP2 MSTORE PUSH1 0x20 ADD PUSH1 0x0 KECCAK256 PUSH1 0x0 SWAP1 SSTORE PUSH1 0x1 SWAP4 POP POP POP POP PUSH2 0x980 JUMP JUMPDEST PUSH1 0x0 SWAP2 POP POP PUSH2 0x980 JUMP JUMPDEST PUSH1 0x60 PUSH2 0x39BC DUP5 DUP5 PUSH1 0x0 DUP6 DUP6 DUP5 EXTCODESIZE PUSH2 0x4817 JUMPI PUSH1 0x40 MLOAD PUSH3 0x461BCD PUSH1 0xE5 SHL DUP2 MSTORE PUSH1 0x20 PUSH1 0x4 DUP3 ADD MSTORE PUSH1 0x1D PUSH1 0x24 DUP3 ADD MSTORE PUSH32 0x416464726573733A2063616C6C20746F206E6F6E2D636F6E7472616374000000 PUSH1 0x44 DUP3 ADD MSTORE PUSH1 0x64 ADD PUSH2 0x86D JUMP JUMPDEST PUSH1 0x0 DUP1 DUP7 PUSH1 0x1 PUSH1 0x1 PUSH1 0xA0 SHL SUB AND DUP6 DUP8 PUSH1 0x40 MLOAD PUSH2 0x4833 SWAP2 SWAP1 PUSH2 0x506F JUMP JUMPDEST PUSH1 0x0 PUSH1 0x40 MLOAD DUP1 DUP4 SUB DUP2 DUP6 DUP8 GAS CALL SWAP3 POP POP POP RETURNDATASIZE DUP1 PUSH1 0x0 DUP2 EQ PUSH2 0x4870 JUMPI PUSH1 0x40 MLOAD SWAP2 POP PUSH1 0x1F NOT PUSH1 0x3F RETURNDATASIZE ADD AND DUP3 ADD PUSH1 0x40 MSTORE RETURNDATASIZE DUP3 MSTORE RETURNDATASIZE PUSH1 0x0 PUSH1 0x20 DUP5 ADD RETURNDATACOPY PUSH2 0x4875 JUMP JUMPDEST PUSH1 0x60 SWAP2 POP JUMPDEST POP SWAP2 POP SWAP2 POP PUSH2 0x34D8 DUP3 DUP3 DUP7 PUSH1 0x60 DUP4 ISZERO PUSH2 0x488F JUMPI POP DUP2 PUSH2 0xD4A JUMP JUMPDEST DUP3 MLOAD ISZERO PUSH2 0x489F JUMPI DUP3 MLOAD DUP1 DUP5 PUSH1 0x20 ADD REVERT JUMPDEST DUP2 PUSH1 0x40 MLOAD PUSH3 0x461BCD PUSH1 0xE5 SHL DUP2 MSTORE PUSH1 0x4 ADD PUSH2 0x86D SWAP2 SWAP1 PUSH2 0x4D9C JUMP JUMPDEST PUSH1 0x40 DUP1 MLOAD PUSH1 0xA0 DUP2 ADD DUP3 MSTORE PUSH1 0x0 DUP1 DUP3 MSTORE PUSH1 0x20 DUP3 ADD DUP2 SWAP1 MSTORE SWAP2 DUP2 ADD DUP3 SWAP1 MSTORE PUSH1 0x60 DUP2 ADD SWAP2 SWAP1 SWAP2 MSTORE PUSH1 0x80 DUP2 ADD PUSH2 0x48E9 PUSH2 0x48EE JUMP JUMPDEST SWAP1 MSTORE SWAP1 JUMP JUMPDEST PUSH1 0x40 MLOAD DUP1 PUSH2 0x100 ADD PUSH1 0x40 MSTORE DUP1 PUSH1 0x8 SWAP1 PUSH1 0x20 DUP3 MUL DUP1 CALLDATASIZE DUP4 CALLDATACOPY POP SWAP2 SWAP3 SWAP2 POP POP JUMP JUMPDEST PUSH1 0x1 DUP4 ADD SWAP2 DUP4 SWAP1 DUP3 ISZERO PUSH2 0x4999 JUMPI SWAP2 PUSH1 0x20 MUL DUP3 ADD PUSH1 0x0 JUMPDEST DUP4 DUP3 GT ISZERO PUSH2 0x4967 JUMPI DUP4 MLOAD DUP4 DUP3 PUSH2 0x100 EXP DUP2 SLOAD DUP2 PUSH4 0xFFFFFFFF MUL NOT AND SWAP1 DUP4 PUSH4 0xFFFFFFFF AND MUL OR SWAP1 SSTORE POP SWAP3 PUSH1 0x20 ADD SWAP3 PUSH1 0x4 ADD PUSH1 0x20 DUP2 PUSH1 0x3 ADD DIV SWAP3 DUP4 ADD SWAP3 PUSH1 0x1 SUB MUL PUSH2 0x4923 JUMP JUMPDEST DUP1 ISZERO PUSH2 0x4997 JUMPI DUP3 DUP2 PUSH2 0x100 EXP DUP2 SLOAD SWAP1 PUSH4 0xFFFFFFFF MUL NOT AND SWAP1 SSTORE PUSH1 0x4 ADD PUSH1 0x20 DUP2 PUSH1 0x3 ADD DIV SWAP3 DUP4 ADD SWAP3 PUSH1 0x1 SUB MUL PUSH2 0x4967 JUMP JUMPDEST POP JUMPDEST POP PUSH2 0x49A5 SWAP3 SWAP2 POP PUSH2 0x49A9 JUMP JUMPDEST POP SWAP1 JUMP JUMPDEST JUMPDEST DUP1 DUP3 GT ISZERO PUSH2 0x49A5 JUMPI PUSH1 0x0 DUP2 SSTORE PUSH1 0x1 ADD PUSH2 0x49AA JUMP JUMPDEST PUSH1 0x0 PUSH1 0x20 DUP3 DUP5 SUB SLT ISZERO PUSH2 0x49D0 JUMPI PUSH1 0x0 DUP1 REVERT JUMPDEST DUP2 CALLDATALOAD PUSH1 0x1 PUSH1 0x1 PUSH1 0xE0 SHL SUB NOT DUP2 AND DUP2 EQ PUSH2 0xD4A JUMPI PUSH1 0x0 DUP1 REVERT JUMPDEST PUSH1 0x1 PUSH1 0x1 PUSH1 0xA0 SHL SUB DUP2 AND DUP2 EQ PUSH2 0x1BD0 JUMPI PUSH1 0x0 DUP1 REVERT JUMPDEST PUSH1 0x0 DUP1 PUSH1 0x0 PUSH1 0x60 DUP5 DUP7 SUB SLT ISZERO PUSH2 0x4A12 JUMPI PUSH1 0x0 DUP1 REVERT JUMPDEST DUP4 CALLDATALOAD PUSH2 0x4A1D DUP2 PUSH2 0x49E8 JUMP JUMPDEST SWAP3 POP PUSH1 0x20 DUP5 ADD CALLDATALOAD SWAP2 POP PUSH1 0x40 DUP5 ADD CALLDATALOAD PUSH2 0x4A34 DUP2 PUSH2 0x49E8 JUMP JUMPDEST DUP1 SWAP2 POP POP SWAP3 POP SWAP3 POP SWAP3 JUMP JUMPDEST PUSH1 0x0 DUP1 PUSH1 0x20 DUP4 DUP6 SUB SLT ISZERO PUSH2 0x4A52 JUMPI PUSH1 0x0 DUP1 REVERT JUMPDEST DUP3 CALLDATALOAD PUSH8 0xFFFFFFFFFFFFFFFF DUP1 DUP3 GT ISZERO PUSH2 0x4A6A JUMPI PUSH1 0x0 DUP1 REVERT JUMPDEST DUP2 DUP6 ADD SWAP2 POP DUP6 PUSH1 0x1F DUP4 ADD SLT PUSH2 0x4A7E JUMPI PUSH1 0x0 DUP1 REVERT JUMPDEST DUP2 CALLDATALOAD DUP2 DUP2 GT ISZERO PUSH2 0x4A8D JUMPI PUSH1 0x0 DUP1 REVERT JUMPDEST DUP7 PUSH1 0x20 DUP3 PUSH1 0x6 SHL DUP6 ADD ADD GT ISZERO PUSH2 0x4AA2 JUMPI PUSH1 0x0 DUP1 REVERT JUMPDEST PUSH1 0x20 SWAP3 SWAP1 SWAP3 ADD SWAP7 SWAP2 SWAP6 POP SWAP1 SWAP4 POP POP POP POP JUMP JUMPDEST PUSH1 0x0 PUSH1 0x20 DUP3 DUP5 SUB SLT ISZERO PUSH2 0x4AC6 JUMPI PUSH1 0x0 DUP1 REVERT JUMPDEST DUP2 CALLDATALOAD PUSH2 0xD4A DUP2 PUSH2 0x49E8 JUMP JUMPDEST PUSH1 0x0 PUSH1 0x20 DUP3 DUP5 SUB SLT ISZERO PUSH2 0x4AE3 JUMPI PUSH1 0x0 DUP1 REVERT JUMPDEST POP CALLDATALOAD SWAP2 SWAP1 POP JUMP JUMPDEST PUSH1 0x0 DUP1 PUSH1 0x0 DUP1 PUSH1 0x0 PUSH1 0xA0 DUP7 DUP9 SUB SLT ISZERO PUSH2 0x4B02 JUMPI PUSH1 0x0 DUP1 REVERT JUMPDEST DUP6 CALLDATALOAD PUSH2 0x4B0D DUP2 PUSH2 0x49E8 JUMP JUMPDEST SWAP5 POP PUSH1 0x20 DUP7 ADD CALLDATALOAD SWAP4 POP PUSH1 0x40 DUP7 ADD CALLDATALOAD SWAP3 POP PUSH1 0x60 DUP7 ADD CALLDATALOAD SWAP2 POP PUSH1 0x80 DUP7 ADD CALLDATALOAD PUSH2 0x4B32 DUP2 PUSH2 0x49E8 JUMP JUMPDEST DUP1 SWAP2 POP POP SWAP3 SWAP6 POP SWAP3 SWAP6 SWAP1 SWAP4 POP JUMP JUMPDEST PUSH1 0x0 DUP1 PUSH1 0x40 DUP4 DUP6 SUB SLT ISZERO PUSH2 0x4B53 JUMPI PUSH1 0x0 DUP1 REVERT JUMPDEST POP POP DUP1 CALLDATALOAD SWAP3 PUSH1 0x20 SWAP1 SWAP2 ADD CALLDATALOAD SWAP2 POP JUMP JUMPDEST PUSH1 0x0 DUP1 PUSH1 0x40 DUP4 DUP6 SUB SLT ISZERO PUSH2 0x4B75 JUMPI PUSH1 0x0 DUP1 REVERT JUMPDEST DUP3 CALLDATALOAD SWAP2 POP PUSH1 0x20 DUP4 ADD CALLDATALOAD PUSH2 0x4B87 DUP2 PUSH2 0x49E8 JUMP JUMPDEST DUP1 SWAP2 POP POP SWAP3 POP SWAP3 SWAP1 POP JUMP JUMPDEST DUP1 MLOAD PUSH1 0x1 PUSH1 0x1 PUSH1 0xA0 SHL SUB AND DUP3 MSTORE PUSH1 0x20 DUP1 DUP3 ADD MLOAD PUSH1 0x1 PUSH1 0x1 PUSH1 0x70 SHL SUB SWAP1 DUP2 AND DUP3 DUP6 ADD MSTORE PUSH1 0x40 DUP1 DUP5 ADD MLOAD DUP3 AND SWAP1 DUP6 ADD MSTORE PUSH1 0x60 DUP1 DUP5 ADD MLOAD SWAP1 SWAP2 AND SWAP1 DUP5 ADD MSTORE PUSH1 0x80 DUP1 DUP4 ADD MLOAD SWAP1 DUP5 ADD PUSH1 0x0 JUMPDEST PUSH1 0x8 DUP2 LT ISZERO PUSH2 0x4BFC JUMPI DUP3 MLOAD PUSH4 0xFFFFFFFF AND DUP3 MSTORE SWAP2 DUP4 ADD SWAP2 SWAP1 DUP4 ADD SWAP1 PUSH1 0x1 ADD PUSH2 0x4BD9 JUMP JUMPDEST POP POP POP POP POP POP JUMP JUMPDEST PUSH2 0x300 DUP2 ADD PUSH2 0x4C13 DUP3 DUP6 PUSH2 0x4B92 JUMP JUMPDEST PUSH2 0xD4A PUSH2 0x180 DUP4 ADD DUP5 PUSH2 0x4B92 JUMP JUMPDEST PUSH1 0x0 DUP1 PUSH1 0x0 DUP1 PUSH1 0x80 DUP6 DUP8 SUB SLT ISZERO PUSH2 0x4C37 JUMPI PUSH1 0x0 DUP1 REVERT JUMPDEST DUP5 CALLDATALOAD PUSH2 0x4C42 DUP2 PUSH2 0x49E8 JUMP JUMPDEST SWAP4 POP PUSH1 0x20 DUP6 ADD CALLDATALOAD SWAP3 POP PUSH1 0x40 DUP6 ADD CALLDATALOAD SWAP2 POP PUSH1 0x60 DUP6 ADD CALLDATALOAD PUSH2 0x4C60 DUP2 PUSH2 0x49E8 JUMP JUMPDEST SWAP4 SWAP7 SWAP3 SWAP6 POP SWAP1 SWAP4 POP POP JUMP JUMPDEST PUSH1 0x0 DUP1 PUSH1 0x0 DUP1 PUSH1 0x0 DUP1 PUSH1 0xC0 DUP8 DUP10 SUB SLT ISZERO PUSH2 0x4C84 JUMPI PUSH1 0x0 DUP1 REVERT JUMPDEST DUP7 CALLDATALOAD PUSH2 0x4C8F DUP2 PUSH2 0x49E8 JUMP JUMPDEST SWAP6 POP PUSH1 0x20 DUP8 ADD CALLDATALOAD PUSH2 0x4C9F DUP2 PUSH2 0x49E8 JUMP JUMPDEST SWAP5 POP PUSH1 0x40 DUP8 ADD CALLDATALOAD SWAP4 POP PUSH1 0x60 DUP8 ADD CALLDATALOAD SWAP3 POP PUSH1 0x80 DUP8 ADD CALLDATALOAD SWAP2 POP PUSH1 0xA0 DUP8 ADD CALLDATALOAD PUSH2 0x4CC4 DUP2 PUSH2 0x49E8 JUMP JUMPDEST DUP1 SWAP2 POP POP SWAP3 SWAP6 POP SWAP3 SWAP6 POP SWAP3 SWAP6 JUMP JUMPDEST PUSH2 0x180 DUP2 ADD PUSH2 0x980 DUP3 DUP5 PUSH2 0x4B92 JUMP JUMPDEST PUSH1 0x0 DUP1 PUSH1 0x0 DUP1 PUSH1 0x0 PUSH1 0xA0 DUP7 DUP9 SUB SLT ISZERO PUSH2 0x4CF9 JUMPI PUSH1 0x0 DUP1 REVERT JUMPDEST DUP6 CALLDATALOAD PUSH2 0x4D04 DUP2 PUSH2 0x49E8 JUMP JUMPDEST SWAP5 POP PUSH1 0x20 DUP7 ADD CALLDATALOAD PUSH2 0x4D14 DUP2 PUSH2 0x49E8 JUMP JUMPDEST SWAP4 POP PUSH1 0x40 DUP7 ADD CALLDATALOAD PUSH2 0x4D24 DUP2 PUSH2 0x49E8 JUMP JUMPDEST SWAP3 POP PUSH1 0x60 DUP7 ADD CALLDATALOAD PUSH2 0x4D34 DUP2 PUSH2 0x49E8 JUMP JUMPDEST SWAP2 POP PUSH1 0x80 DUP7 ADD CALLDATALOAD PUSH2 0x4B32 DUP2 PUSH2 0x49E8 JUMP JUMPDEST PUSH1 0x0 JUMPDEST DUP4 DUP2 LT ISZERO PUSH2 0x4D5F JUMPI DUP2 DUP2 ADD MLOAD DUP4 DUP3 ADD MSTORE PUSH1 0x20 ADD PUSH2 0x4D47 JUMP JUMPDEST DUP4 DUP2 GT ISZERO PUSH2 0x903 JUMPI POP POP PUSH1 0x0 SWAP2 ADD MSTORE JUMP JUMPDEST PUSH1 0x0 DUP2 MLOAD DUP1 DUP5 MSTORE PUSH2 0x4D88 DUP2 PUSH1 0x20 DUP7 ADD PUSH1 0x20 DUP7 ADD PUSH2 0x4D44 JUMP JUMPDEST PUSH1 0x1F ADD PUSH1 0x1F NOT AND SWAP3 SWAP1 SWAP3 ADD PUSH1 0x20 ADD SWAP3 SWAP2 POP POP JUMP JUMPDEST PUSH1 0x20 DUP2 MSTORE PUSH1 0x0 PUSH2 0xD4A PUSH1 0x20 DUP4 ADD DUP5 PUSH2 0x4D70 JUMP JUMPDEST PUSH4 0x4E487B71 PUSH1 0xE0 SHL PUSH1 0x0 MSTORE PUSH1 0x32 PUSH1 0x4 MSTORE PUSH1 0x24 PUSH1 0x0 REVERT JUMPDEST PUSH4 0x4E487B71 PUSH1 0xE0 SHL PUSH1 0x0 MSTORE PUSH1 0x11 PUSH1 0x4 MSTORE PUSH1 0x24 PUSH1 0x0 REVERT JUMPDEST PUSH1 0x0 PUSH1 0x0 NOT DUP3 EQ ISZERO PUSH2 0x4DEF JUMPI PUSH2 0x4DEF PUSH2 0x4DC5 JUMP JUMPDEST POP PUSH1 0x1 ADD SWAP1 JUMP JUMPDEST PUSH1 0x0 PUSH1 0x20 DUP3 DUP5 SUB SLT ISZERO PUSH2 0x4E08 JUMPI PUSH1 0x0 DUP1 REVERT JUMPDEST DUP2 MLOAD PUSH2 0xD4A DUP2 PUSH2 0x49E8 JUMP JUMPDEST PUSH1 0x0 PUSH1 0x20 DUP3 DUP5 SUB SLT ISZERO PUSH2 0x4E25 JUMPI PUSH1 0x0 DUP1 REVERT JUMPDEST POP MLOAD SWAP2 SWAP1 POP JUMP JUMPDEST PUSH1 0x0 DUP3 NOT DUP3 GT ISZERO PUSH2 0x4E3F JUMPI PUSH2 0x4E3F PUSH2 0x4DC5 JUMP JUMPDEST POP ADD SWAP1 JUMP JUMPDEST PUSH4 0x4E487B71 PUSH1 0xE0 SHL PUSH1 0x0 MSTORE PUSH1 0x12 PUSH1 0x4 MSTORE PUSH1 0x24 PUSH1 0x0 REVERT JUMPDEST PUSH1 0x0 DUP3 PUSH2 0x4E69 JUMPI PUSH2 0x4E69 PUSH2 0x4E44 JUMP JUMPDEST POP MOD SWAP1 JUMP JUMPDEST PUSH1 0x0 DUP2 PUSH1 0x0 NOT DIV DUP4 GT DUP3 ISZERO ISZERO AND ISZERO PUSH2 0x4E88 JUMPI PUSH2 0x4E88 PUSH2 0x4DC5 JUMP JUMPDEST POP MUL SWAP1 JUMP JUMPDEST PUSH1 0x0 PUSH1 0x1 PUSH1 0x1 PUSH1 0x70 SHL SUB DUP1 DUP4 AND DUP2 DUP6 AND DUP2 DUP4 DIV DUP2 GT DUP3 ISZERO ISZERO AND ISZERO PUSH2 0x4EB3 JUMPI PUSH2 0x4EB3 PUSH2 0x4DC5 JUMP JUMPDEST MUL SWAP5 SWAP4 POP POP POP POP JUMP JUMPDEST PUSH1 0x0 DUP3 DUP3 LT ISZERO PUSH2 0x4ECE JUMPI PUSH2 0x4ECE PUSH2 0x4DC5 JUMP JUMPDEST POP SUB SWAP1 JUMP JUMPDEST PUSH1 0x0 DUP3 PUSH2 0x4EE2 JUMPI PUSH2 0x4EE2 PUSH2 0x4E44 JUMP JUMPDEST POP DIV SWAP1 JUMP JUMPDEST PUSH1 0x1 PUSH1 0x1 PUSH1 0xA0 SHL SUB SWAP4 SWAP1 SWAP4 AND DUP4 MSTORE PUSH1 0x20 DUP4 ADD SWAP2 SWAP1 SWAP2 MSTORE PUSH1 0x40 DUP3 ADD MSTORE PUSH1 0x60 ADD SWAP1 JUMP JUMPDEST PUSH1 0x1 PUSH1 0x1 PUSH1 0xA0 SHL SUB DUP7 DUP2 AND DUP3 MSTORE DUP6 AND PUSH1 0x20 DUP3 ADD MSTORE PUSH1 0x40 DUP2 ADD DUP5 SWAP1 MSTORE PUSH1 0x60 DUP2 ADD DUP4 SWAP1 MSTORE PUSH1 0xA0 PUSH1 0x80 DUP3 ADD DUP2 SWAP1 MSTORE PUSH1 0x0 SWAP1 PUSH2 0x34D8 SWAP1 DUP4 ADD DUP5 PUSH2 0x4D70 JUMP JUMPDEST PUSH1 0x0 PUSH1 0x1 PUSH1 0x1 PUSH1 0x70 SHL SUB DUP1 DUP4 AND DUP2 DUP6 AND DUP1 DUP4 SUB DUP3 GT ISZERO PUSH2 0x4F64 JUMPI PUSH2 0x4F64 PUSH2 0x4DC5 JUMP JUMPDEST ADD SWAP5 SWAP4 POP POP POP POP JUMP JUMPDEST PUSH1 0x0 PUSH1 0x1 PUSH1 0x1 PUSH1 0x70 SHL SUB DUP4 DUP2 AND SWAP1 DUP4 AND DUP2 DUP2 LT ISZERO PUSH2 0x4F8D JUMPI PUSH2 0x4F8D PUSH2 0x4DC5 JUMP JUMPDEST SUB SWAP4 SWAP3 POP POP POP JUMP JUMPDEST PUSH32 0x416363657373436F6E74726F6C3A206163636F756E7420000000000000000000 DUP2 MSTORE PUSH1 0x0 DUP4 MLOAD PUSH2 0x4FCD DUP2 PUSH1 0x17 DUP6 ADD PUSH1 0x20 DUP9 ADD PUSH2 0x4D44 JUMP JUMPDEST PUSH17 0x1034B99036B4B9B9B4B733903937B6329 PUSH1 0x7D SHL PUSH1 0x17 SWAP2 DUP5 ADD SWAP2 DUP3 ADD MSTORE DUP4 MLOAD PUSH2 0x4FFE DUP2 PUSH1 0x28 DUP5 ADD PUSH1 0x20 DUP9 ADD PUSH2 0x4D44 JUMP JUMPDEST ADD PUSH1 0x28 ADD SWAP5 SWAP4 POP POP POP POP JUMP JUMPDEST PUSH4 0x4E487B71 PUSH1 0xE0 SHL PUSH1 0x0 MSTORE PUSH1 0x41 PUSH1 0x4 MSTORE PUSH1 0x24 PUSH1 0x0 REVERT JUMPDEST PUSH1 0x0 DUP2 PUSH2 0x502F JUMPI PUSH2 0x502F PUSH2 0x4DC5 JUMP JUMPDEST POP PUSH1 0x0 NOT ADD SWAP1 JUMP JUMPDEST PUSH1 0x0 PUSH1 0x20 DUP3 DUP5 SUB SLT ISZERO PUSH2 0x5049 JUMPI PUSH1 0x0 DUP1 REVERT JUMPDEST DUP2 MLOAD DUP1 ISZERO ISZERO DUP2 EQ PUSH2 0xD4A JUMPI PUSH1 0x0 DUP1 REVERT JUMPDEST PUSH4 0x4E487B71 PUSH1 0xE0 SHL PUSH1 0x0 MSTORE PUSH1 0x31 PUSH1 0x4 MSTORE PUSH1 0x24 PUSH1 0x0 REVERT JUMPDEST PUSH1 0x0 DUP3 MLOAD PUSH2 0x5081 DUP2 DUP5 PUSH1 0x20 DUP8 ADD PUSH2 0x4D44 JUMP JUMPDEST SWAP2 SWAP1 SWAP2 ADD SWAP3 SWAP2 POP POP JUMP INVALID LOG2 PUSH5 0x6970667358 0x22 SLT KECCAK256 BYTE RETURNDATASIZE PUSH7 0x1617BCAE32CF43 0xFC PUSH24 0xD94DF2402E7603292A7D4E778B21EC34A140F69E64736F6C PUSH4 0x4300080B STOP CALLER "
		},
		"gasEstimates": {
			"creation": {
				"codeDepositCost": "4134600",
				"executionCost": "infinite",
				"totalCost": "infinite"
			},
			"external": {
				"ROLE_ADMIN()": "328",
				"addNativeLiquidity(address)": "infinite",
				"addTokenLiquidity(address,uint256,address)": "infinite",
				"adminCreatePool(address,uint256,uint256,address)": "infinite",
				"adminInitialize()": "infinite",
				"adminUpdateFeeToBeneficiary(address)": "24666",
				"feeToBeneficiary()": "2382",
				"getCurrent4Hour()": "424",
				"getCurrentFeeBasedOnTrades(address)": "infinite",
				"getCurrentFeeBasedOnTrades(uint256)": "infinite",
				"getInputCerUsdForExactTokens(uint256,uint256)": "infinite",
				"getInputTokensForExactCerUsd(uint256,uint256)": "infinite",
				"getOutputExactCerUsdForTokens(uint256,uint256)": "infinite",
				"getOutputExactTokensForCerUsd(uint256,uint256)": "infinite",
				"getPoolByPosition(uint256)": "infinite",
				"getPoolByToken(address)": "infinite",
				"getRoleAdmin(bytes32)": "2581",
				"getRoleMember(bytes32,uint256)": "infinite",
				"getRoleMemberCount(bytes32)": "infinite",
				"getTokenToPoolPosition(address)": "2620",
				"getUtilsContractAtPos(uint256)": "infinite",
				"grantRole(bytes32,address)": "infinite",
				"grantRolesBulk((bytes32,address)[])": "infinite",
				"hasRole(bytes32,address)": "2696",
				"removeNativeLiquidity(uint256,address)": "infinite",
				"removeTokenLiquidity(address,uint256,address)": "infinite",
				"renounceRole(bytes32,address)": "infinite",
				"revokeRole(bytes32,address)": "infinite",
				"supportsInterface(bytes4)": "393",
				"swapExactNativeForTokens(address,uint256,uint256,address)": "infinite",
				"swapExactTokensForNative(address,uint256,uint256,uint256,address)": "infinite",
				"swapExactTokensForTokens(address,address,uint256,uint256,uint256,address)": "infinite",
				"swapNativeForExactTokens(address,uint256,uint256,address)": "infinite",
				"swapTokensForExactNative(address,uint256,uint256,uint256,address)": "infinite",
				"swapTokensForExactTokens(address,address,uint256,uint256,uint256,address)": "infinite",
				"syncTokenBalanceInPool(address)": "infinite",
				"testGetBalances()": "infinite",
				"testGetPools()": "infinite",
				"testGetPrices()": "infinite",
				"testGetTokenToPoolPosition(address)": "2643",
				"testSetupTokens(address,address,address,address,address)": "infinite"
			},
			"internal": {
				"_addTokenLiquidity(address,address,uint256,address)": "infinite",
				"_getInput(uint256,uint256,uint256,uint256)": "infinite",
				"_getMintFeeLiquidityAmount(uint256,uint256,uint256)": "infinite",
				"_getOutput(uint256,uint256,uint256,uint256)": "infinite",
				"_removeTokenLiquidity(address,address,uint256,address)": "infinite",
				"_swapExactCerUsdForTokens(address,uint256,address)": "infinite",
				"_swapExactTokensForCerUsd(address,uint256,address)": "infinite",
				"_swapExactTokensForTokens(address,address,address,uint256,uint256,address)": "infinite",
				"_swapTokensForExactTokens(address,address,address,uint256,uint256,address)": "infinite",
				"sqrt(uint256)": "infinite"
			}
		},
		"methodIdentifiers": {
			"ROLE_ADMIN()": "d391014b",
			"addNativeLiquidity(address)": "121fb9bc",
			"addTokenLiquidity(address,uint256,address)": "8d6d61d9",
			"adminCreatePool(address,uint256,uint256,address)": "d5d60737",
			"adminInitialize()": "c09c923b",
			"adminUpdateFeeToBeneficiary(address)": "06edd763",
			"feeToBeneficiary()": "7b4b233c",
			"getCurrent4Hour()": "a465626f",
			"getCurrentFeeBasedOnTrades(address)": "9162ebf0",
			"getCurrentFeeBasedOnTrades(uint256)": "6853ac26",
			"getInputCerUsdForExactTokens(uint256,uint256)": "9035620b",
			"getInputTokensForExactCerUsd(uint256,uint256)": "2375dabc",
			"getOutputExactCerUsdForTokens(uint256,uint256)": "ebda9531",
			"getOutputExactTokensForCerUsd(uint256,uint256)": "cd01a60a",
			"getPoolByPosition(uint256)": "d01350bd",
			"getPoolByToken(address)": "bbadc03b",
			"getRoleAdmin(bytes32)": "248a9ca3",
			"getRoleMember(bytes32,uint256)": "9010d07c",
			"getRoleMemberCount(bytes32)": "ca15c873",
			"getTokenToPoolPosition(address)": "b771e425",
			"getUtilsContractAtPos(uint256)": "06fb1a07",
			"grantRole(bytes32,address)": "2f2ff15d",
			"grantRolesBulk((bytes32,address)[])": "03ed957f",
			"hasRole(bytes32,address)": "91d14854",
			"removeNativeLiquidity(uint256,address)": "aaa10dd2",
			"removeTokenLiquidity(address,uint256,address)": "0369679e",
			"renounceRole(bytes32,address)": "36568abe",
			"revokeRole(bytes32,address)": "d547741f",
			"supportsInterface(bytes4)": "01ffc9a7",
			"swapExactNativeForTokens(address,uint256,uint256,address)": "6fba344d",
			"swapExactTokensForNative(address,uint256,uint256,uint256,address)": "195df43e",
			"swapExactTokensForTokens(address,address,uint256,uint256,uint256,address)": "a60c6e55",
			"swapNativeForExactTokens(address,uint256,uint256,address)": "a8d68366",
			"swapTokensForExactNative(address,uint256,uint256,uint256,address)": "cf8ae864",
			"swapTokensForExactTokens(address,address,uint256,uint256,uint256,address)": "f6524724",
			"syncTokenBalanceInPool(address)": "9bc731fc",
			"testGetBalances()": "186efad9",
			"testGetPools()": "5e6104b1",
			"testGetPrices()": "e07bf7ad",
			"testGetTokenToPoolPosition(address)": "a47ba4fa",
			"testSetupTokens(address,address,address,address,address)": "eca01093"
		}
	},
	"abi": [
		{
			"inputs": [],
			"stateMutability": "nonpayable",
			"type": "constructor"
		},
		{
			"anonymous": false,
			"inputs": [
				{
					"indexed": true,
					"internalType": "bytes32",
					"name": "role",
					"type": "bytes32"
				},
				{
					"indexed": true,
					"internalType": "bytes32",
					"name": "previousAdminRole",
					"type": "bytes32"
				},
				{
					"indexed": true,
					"internalType": "bytes32",
					"name": "newAdminRole",
					"type": "bytes32"
				}
			],
			"name": "RoleAdminChanged",
			"type": "event"
		},
		{
			"anonymous": false,
			"inputs": [
				{
					"indexed": true,
					"internalType": "bytes32",
					"name": "role",
					"type": "bytes32"
				},
				{
					"indexed": true,
					"internalType": "address",
					"name": "account",
					"type": "address"
				},
				{
					"indexed": true,
					"internalType": "address",
					"name": "sender",
					"type": "address"
				}
			],
			"name": "RoleGranted",
			"type": "event"
		},
		{
			"anonymous": false,
			"inputs": [
				{
					"indexed": true,
					"internalType": "bytes32",
					"name": "role",
					"type": "bytes32"
				},
				{
					"indexed": true,
					"internalType": "address",
					"name": "account",
					"type": "address"
				},
				{
					"indexed": true,
					"internalType": "address",
					"name": "sender",
					"type": "address"
				}
			],
			"name": "RoleRevoked",
			"type": "event"
		},
		{
			"inputs": [],
			"name": "ROLE_ADMIN",
			"outputs": [
				{
					"internalType": "bytes32",
					"name": "",
					"type": "bytes32"
				}
			],
			"stateMutability": "view",
			"type": "function"
		},
		{
			"inputs": [
				{
					"internalType": "address",
					"name": "transferTo",
					"type": "address"
				}
			],
			"name": "addNativeLiquidity",
			"outputs": [],
			"stateMutability": "payable",
			"type": "function"
		},
		{
			"inputs": [
				{
					"internalType": "address",
					"name": "token",
					"type": "address"
				},
				{
					"internalType": "uint256",
					"name": "amountTokensIn",
					"type": "uint256"
				},
				{
					"internalType": "address",
					"name": "transferTo",
					"type": "address"
				}
			],
			"name": "addTokenLiquidity",
			"outputs": [],
			"stateMutability": "nonpayable",
			"type": "function"
		},
		{
			"inputs": [
				{
					"internalType": "address",
					"name": "token",
					"type": "address"
				},
				{
					"internalType": "uint256",
					"name": "amountTokensIn",
					"type": "uint256"
				},
				{
					"internalType": "uint256",
					"name": "amountCerUsdIn",
					"type": "uint256"
				},
				{
					"internalType": "address",
					"name": "transferTo",
					"type": "address"
				}
			],
			"name": "adminCreatePool",
			"outputs": [],
			"stateMutability": "nonpayable",
			"type": "function"
		},
		{
			"inputs": [],
			"name": "adminInitialize",
			"outputs": [],
			"stateMutability": "nonpayable",
			"type": "function"
		},
		{
			"inputs": [
				{
					"internalType": "address",
					"name": "newFeeToBeneficiary",
					"type": "address"
				}
			],
			"name": "adminUpdateFeeToBeneficiary",
			"outputs": [],
			"stateMutability": "nonpayable",
			"type": "function"
		},
		{
			"inputs": [],
			"name": "feeToBeneficiary",
			"outputs": [
				{
					"internalType": "address",
					"name": "",
					"type": "address"
				}
			],
			"stateMutability": "view",
			"type": "function"
		},
		{
			"inputs": [],
			"name": "getCurrent4Hour",
			"outputs": [
				{
					"internalType": "uint256",
					"name": "",
					"type": "uint256"
				}
			],
			"stateMutability": "view",
			"type": "function"
		},
		{
			"inputs": [
				{
					"internalType": "uint256",
					"name": "poolPos",
					"type": "uint256"
				}
			],
			"name": "getCurrentFeeBasedOnTrades",
			"outputs": [
				{
					"internalType": "uint256",
					"name": "fee",
					"type": "uint256"
				}
			],
			"stateMutability": "view",
			"type": "function"
		},
		{
			"inputs": [
				{
					"internalType": "address",
					"name": "token",
					"type": "address"
				}
			],
			"name": "getCurrentFeeBasedOnTrades",
			"outputs": [
				{
					"internalType": "uint256",
					"name": "fee",
					"type": "uint256"
				}
			],
			"stateMutability": "view",
			"type": "function"
		},
		{
			"inputs": [
				{
					"internalType": "uint256",
					"name": "poolPos",
					"type": "uint256"
				},
				{
					"internalType": "uint256",
					"name": "amountTokensOut",
					"type": "uint256"
				}
			],
			"name": "getInputCerUsdForExactTokens",
			"outputs": [
				{
					"internalType": "uint256",
					"name": "",
					"type": "uint256"
				}
			],
			"stateMutability": "view",
			"type": "function"
		},
		{
			"inputs": [
				{
					"internalType": "uint256",
					"name": "poolPos",
					"type": "uint256"
				},
				{
					"internalType": "uint256",
					"name": "amountCerUsdOut",
					"type": "uint256"
				}
			],
			"name": "getInputTokensForExactCerUsd",
			"outputs": [
				{
					"internalType": "uint256",
					"name": "",
					"type": "uint256"
				}
			],
			"stateMutability": "view",
			"type": "function"
		},
		{
			"inputs": [
				{
					"internalType": "uint256",
					"name": "poolPos",
					"type": "uint256"
				},
				{
					"internalType": "uint256",
					"name": "amountCerUsdIn",
					"type": "uint256"
				}
			],
			"name": "getOutputExactCerUsdForTokens",
			"outputs": [
				{
					"internalType": "uint256",
					"name": "",
					"type": "uint256"
				}
			],
			"stateMutability": "view",
			"type": "function"
		},
		{
			"inputs": [
				{
					"internalType": "uint256",
					"name": "poolPos",
					"type": "uint256"
				},
				{
					"internalType": "uint256",
					"name": "amountTokensIn",
					"type": "uint256"
				}
			],
			"name": "getOutputExactTokensForCerUsd",
			"outputs": [
				{
					"internalType": "uint256",
					"name": "",
					"type": "uint256"
				}
			],
			"stateMutability": "view",
			"type": "function"
		},
		{
			"inputs": [
				{
					"internalType": "uint256",
					"name": "pos",
					"type": "uint256"
				}
			],
			"name": "getPoolByPosition",
			"outputs": [
				{
					"components": [
						{
							"internalType": "address",
							"name": "token",
							"type": "address"
						},
						{
							"internalType": "uint112",
							"name": "balanceToken",
							"type": "uint112"
						},
						{
							"internalType": "uint112",
							"name": "balanceCerUsd",
							"type": "uint112"
						},
						{
							"internalType": "uint112",
							"name": "lastSqrtKValue",
							"type": "uint112"
						},
						{
							"internalType": "uint32[8]",
							"name": "hourlyTradeVolumeInCerUsd",
							"type": "uint32[8]"
						}
					],
					"internalType": "struct CerbySwapV1.Pool",
					"name": "",
					"type": "tuple"
				}
			],
			"stateMutability": "view",
			"type": "function"
		},
		{
			"inputs": [
				{
					"internalType": "address",
					"name": "token",
					"type": "address"
				}
			],
			"name": "getPoolByToken",
			"outputs": [
				{
					"components": [
						{
							"internalType": "address",
							"name": "token",
							"type": "address"
						},
						{
							"internalType": "uint112",
							"name": "balanceToken",
							"type": "uint112"
						},
						{
							"internalType": "uint112",
							"name": "balanceCerUsd",
							"type": "uint112"
						},
						{
							"internalType": "uint112",
							"name": "lastSqrtKValue",
							"type": "uint112"
						},
						{
							"internalType": "uint32[8]",
							"name": "hourlyTradeVolumeInCerUsd",
							"type": "uint32[8]"
						}
					],
					"internalType": "struct CerbySwapV1.Pool",
					"name": "",
					"type": "tuple"
				}
			],
			"stateMutability": "view",
			"type": "function"
		},
		{
			"inputs": [
				{
					"internalType": "bytes32",
					"name": "role",
					"type": "bytes32"
				}
			],
			"name": "getRoleAdmin",
			"outputs": [
				{
					"internalType": "bytes32",
					"name": "",
					"type": "bytes32"
				}
			],
			"stateMutability": "view",
			"type": "function"
		},
		{
			"inputs": [
				{
					"internalType": "bytes32",
					"name": "role",
					"type": "bytes32"
				},
				{
					"internalType": "uint256",
					"name": "index",
					"type": "uint256"
				}
			],
			"name": "getRoleMember",
			"outputs": [
				{
					"internalType": "address",
					"name": "",
					"type": "address"
				}
			],
			"stateMutability": "view",
			"type": "function"
		},
		{
			"inputs": [
				{
					"internalType": "bytes32",
					"name": "role",
					"type": "bytes32"
				}
			],
			"name": "getRoleMemberCount",
			"outputs": [
				{
					"internalType": "uint256",
					"name": "",
					"type": "uint256"
				}
			],
			"stateMutability": "view",
			"type": "function"
		},
		{
			"inputs": [
				{
					"internalType": "address",
					"name": "token",
					"type": "address"
				}
			],
			"name": "getTokenToPoolPosition",
			"outputs": [
				{
					"internalType": "uint256",
					"name": "",
					"type": "uint256"
				}
			],
			"stateMutability": "view",
			"type": "function"
		},
		{
			"inputs": [
				{
					"internalType": "uint256",
					"name": "pos",
					"type": "uint256"
				}
			],
			"name": "getUtilsContractAtPos",
			"outputs": [
				{
					"internalType": "address",
					"name": "",
					"type": "address"
				}
			],
			"stateMutability": "view",
			"type": "function"
		},
		{
			"inputs": [
				{
					"internalType": "bytes32",
					"name": "role",
					"type": "bytes32"
				},
				{
					"internalType": "address",
					"name": "account",
					"type": "address"
				}
			],
			"name": "grantRole",
			"outputs": [],
			"stateMutability": "nonpayable",
			"type": "function"
		},
		{
			"inputs": [
				{
					"components": [
						{
							"internalType": "bytes32",
							"name": "role",
							"type": "bytes32"
						},
						{
							"internalType": "address",
							"name": "addr",
							"type": "address"
						}
					],
					"internalType": "struct RoleAccess[]",
					"name": "roles",
					"type": "tuple[]"
				}
			],
			"name": "grantRolesBulk",
			"outputs": [],
			"stateMutability": "nonpayable",
			"type": "function"
		},
		{
			"inputs": [
				{
					"internalType": "bytes32",
					"name": "role",
					"type": "bytes32"
				},
				{
					"internalType": "address",
					"name": "account",
					"type": "address"
				}
			],
			"name": "hasRole",
			"outputs": [
				{
					"internalType": "bool",
					"name": "",
					"type": "bool"
				}
			],
			"stateMutability": "view",
			"type": "function"
		},
		{
			"inputs": [
				{
					"internalType": "uint256",
					"name": "amountLpTokensBalanceToBurn",
					"type": "uint256"
				},
				{
					"internalType": "address",
					"name": "transferTo",
					"type": "address"
				}
			],
			"name": "removeNativeLiquidity",
			"outputs": [],
			"stateMutability": "nonpayable",
			"type": "function"
		},
		{
			"inputs": [
				{
					"internalType": "address",
					"name": "token",
					"type": "address"
				},
				{
					"internalType": "uint256",
					"name": "amountLpTokensBalanceToBurn",
					"type": "uint256"
				},
				{
					"internalType": "address",
					"name": "transferTo",
					"type": "address"
				}
			],
			"name": "removeTokenLiquidity",
			"outputs": [
				{
					"internalType": "uint256",
					"name": "",
					"type": "uint256"
				}
			],
			"stateMutability": "nonpayable",
			"type": "function"
		},
		{
			"inputs": [
				{
					"internalType": "bytes32",
					"name": "role",
					"type": "bytes32"
				},
				{
					"internalType": "address",
					"name": "account",
					"type": "address"
				}
			],
			"name": "renounceRole",
			"outputs": [],
			"stateMutability": "nonpayable",
			"type": "function"
		},
		{
			"inputs": [
				{
					"internalType": "bytes32",
					"name": "role",
					"type": "bytes32"
				},
				{
					"internalType": "address",
					"name": "account",
					"type": "address"
				}
			],
			"name": "revokeRole",
			"outputs": [],
			"stateMutability": "nonpayable",
			"type": "function"
		},
		{
			"inputs": [
				{
					"internalType": "bytes4",
					"name": "interfaceId",
					"type": "bytes4"
				}
			],
			"name": "supportsInterface",
			"outputs": [
				{
					"internalType": "bool",
					"name": "",
					"type": "bool"
				}
			],
			"stateMutability": "view",
			"type": "function"
		},
		{
			"inputs": [
				{
					"internalType": "address",
					"name": "tokenOut",
					"type": "address"
				},
				{
					"internalType": "uint256",
					"name": "minAmountTokensOut",
					"type": "uint256"
				},
				{
					"internalType": "uint256",
					"name": "expireTimestamp",
					"type": "uint256"
				},
				{
					"internalType": "address",
					"name": "transferTo",
					"type": "address"
				}
			],
			"name": "swapExactNativeForTokens",
			"outputs": [
				{
					"internalType": "uint256",
					"name": "",
					"type": "uint256"
				}
			],
			"stateMutability": "payable",
			"type": "function"
		},
		{
			"inputs": [
				{
					"internalType": "address",
					"name": "tokenIn",
					"type": "address"
				},
				{
					"internalType": "uint256",
					"name": "amountTokensIn",
					"type": "uint256"
				},
				{
					"internalType": "uint256",
					"name": "minAmountTokensOut",
					"type": "uint256"
				},
				{
					"internalType": "uint256",
					"name": "expireTimestamp",
					"type": "uint256"
				},
				{
					"internalType": "address",
					"name": "transferTo",
					"type": "address"
				}
			],
			"name": "swapExactTokensForNative",
			"outputs": [
				{
					"internalType": "uint256",
					"name": "",
					"type": "uint256"
				}
			],
			"stateMutability": "payable",
			"type": "function"
		},
		{
			"inputs": [
				{
					"internalType": "address",
					"name": "tokenIn",
					"type": "address"
				},
				{
					"internalType": "address",
					"name": "tokenOut",
					"type": "address"
				},
				{
					"internalType": "uint256",
					"name": "amountTokensIn",
					"type": "uint256"
				},
				{
					"internalType": "uint256",
					"name": "minAmountTokensOut",
					"type": "uint256"
				},
				{
					"internalType": "uint256",
					"name": "expireTimestamp",
					"type": "uint256"
				},
				{
					"internalType": "address",
					"name": "transferTo",
					"type": "address"
				}
			],
			"name": "swapExactTokensForTokens",
			"outputs": [
				{
					"internalType": "uint256",
					"name": "",
					"type": "uint256"
				}
			],
			"stateMutability": "nonpayable",
			"type": "function"
		},
		{
			"inputs": [
				{
					"internalType": "address",
					"name": "tokenOut",
					"type": "address"
				},
				{
					"internalType": "uint256",
					"name": "amountTokensOut",
					"type": "uint256"
				},
				{
					"internalType": "uint256",
					"name": "expireTimestamp",
					"type": "uint256"
				},
				{
					"internalType": "address",
					"name": "transferTo",
					"type": "address"
				}
			],
			"name": "swapNativeForExactTokens",
			"outputs": [
				{
					"internalType": "uint256",
					"name": "",
					"type": "uint256"
				}
			],
			"stateMutability": "payable",
			"type": "function"
		},
		{
			"inputs": [
				{
					"internalType": "address",
					"name": "tokenIn",
					"type": "address"
				},
				{
					"internalType": "uint256",
					"name": "maxAmountTokensIn",
					"type": "uint256"
				},
				{
					"internalType": "uint256",
					"name": "amountTokensOut",
					"type": "uint256"
				},
				{
					"internalType": "uint256",
					"name": "expireTimestamp",
					"type": "uint256"
				},
				{
					"internalType": "address",
					"name": "transferTo",
					"type": "address"
				}
			],
			"name": "swapTokensForExactNative",
			"outputs": [
				{
					"internalType": "uint256",
					"name": "",
					"type": "uint256"
				}
			],
			"stateMutability": "payable",
			"type": "function"
		},
		{
			"inputs": [
				{
					"internalType": "address",
					"name": "tokenIn",
					"type": "address"
				},
				{
					"internalType": "address",
					"name": "tokenOut",
					"type": "address"
				},
				{
					"internalType": "uint256",
					"name": "maxAmountTokensIn",
					"type": "uint256"
				},
				{
					"internalType": "uint256",
					"name": "amountTokensOut",
					"type": "uint256"
				},
				{
					"internalType": "uint256",
					"name": "expireTimestamp",
					"type": "uint256"
				},
				{
					"internalType": "address",
					"name": "transferTo",
					"type": "address"
				}
			],
			"name": "swapTokensForExactTokens",
			"outputs": [
				{
					"internalType": "uint256",
					"name": "",
					"type": "uint256"
				}
			],
			"stateMutability": "nonpayable",
			"type": "function"
		},
		{
			"inputs": [
				{
					"internalType": "address",
					"name": "token",
					"type": "address"
				}
			],
			"name": "syncTokenBalanceInPool",
			"outputs": [],
			"stateMutability": "nonpayable",
			"type": "function"
		},
		{
			"inputs": [],
			"name": "testGetBalances",
			"outputs": [
				{
					"internalType": "uint256",
					"name": "",
					"type": "uint256"
				},
				{
					"internalType": "uint256",
					"name": "",
					"type": "uint256"
				},
				{
					"internalType": "uint256",
					"name": "",
					"type": "uint256"
				}
			],
			"stateMutability": "view",
			"type": "function"
		},
		{
			"inputs": [],
			"name": "testGetPools",
			"outputs": [
				{
					"components": [
						{
							"internalType": "address",
							"name": "token",
							"type": "address"
						},
						{
							"internalType": "uint112",
							"name": "balanceToken",
							"type": "uint112"
						},
						{
							"internalType": "uint112",
							"name": "balanceCerUsd",
							"type": "uint112"
						},
						{
							"internalType": "uint112",
							"name": "lastSqrtKValue",
							"type": "uint112"
						},
						{
							"internalType": "uint32[8]",
							"name": "hourlyTradeVolumeInCerUsd",
							"type": "uint32[8]"
						}
					],
					"internalType": "struct CerbySwapV1.Pool",
					"name": "",
					"type": "tuple"
				},
				{
					"components": [
						{
							"internalType": "address",
							"name": "token",
							"type": "address"
						},
						{
							"internalType": "uint112",
							"name": "balanceToken",
							"type": "uint112"
						},
						{
							"internalType": "uint112",
							"name": "balanceCerUsd",
							"type": "uint112"
						},
						{
							"internalType": "uint112",
							"name": "lastSqrtKValue",
							"type": "uint112"
						},
						{
							"internalType": "uint32[8]",
							"name": "hourlyTradeVolumeInCerUsd",
							"type": "uint32[8]"
						}
					],
					"internalType": "struct CerbySwapV1.Pool",
					"name": "",
					"type": "tuple"
				}
			],
			"stateMutability": "view",
			"type": "function"
		},
		{
			"inputs": [],
			"name": "testGetPrices",
			"outputs": [
				{
					"internalType": "uint256",
					"name": "",
					"type": "uint256"
				},
				{
					"internalType": "uint256",
					"name": "",
					"type": "uint256"
				}
			],
			"stateMutability": "view",
			"type": "function"
		},
		{
			"inputs": [
				{
					"internalType": "address",
					"name": "token",
					"type": "address"
				}
			],
			"name": "testGetTokenToPoolPosition",
			"outputs": [
				{
					"internalType": "uint256",
					"name": "",
					"type": "uint256"
				}
			],
			"stateMutability": "view",
			"type": "function"
		},
		{
			"inputs": [
				{
					"internalType": "address",
					"name": "_lpErc1155V1",
					"type": "address"
				},
				{
					"internalType": "address",
					"name": "_testCerbyToken",
					"type": "address"
				},
				{
					"internalType": "address",
					"name": "_cerUsdToken",
					"type": "address"
				},
				{
					"internalType": "address",
					"name": "_testUsdcToken",
					"type": "address"
				},
				{
					"internalType": "address",
					"name": "_nativeToken",
					"type": "address"
				}
			],
			"name": "testSetupTokens",
			"outputs": [],
			"stateMutability": "nonpayable",
			"type": "function"
		}
	]
}