{
	"data": {
		"bytecode": {
			"linkReferences": {},
			"object": "6080604052600680546001600160a01b03191661dead1790553480156200002557600080fd5b5062000033600033620000b3565b600680546001600160a01b031916331790556130394614156200006657600580546001600160a01b031916905562000087565b46620181cd14156200008757600580546001600160a01b03191661dead1790555b600580546001600160a01b0319167314769f96e57b80c66837701de0b43686fb4632de17905562000218565b620000bf8282620000c3565b5050565b620000da82826200010660201b62002db51760201c565b60008281526001602090815260409091206200010191839062002e39620001a6821b17901c565b505050565b6000828152602081815260408083206001600160a01b038516845290915290205460ff16620000bf576000828152602081815260408083206001600160a01b03851684529091529020805460ff19166001179055620001623390565b6001600160a01b0316816001600160a01b0316837f2f8788117e7eff1d82e926ec794901d17c78024a50270940304540a733656f0d60405160405180910390a45050565b6000620001bd836001600160a01b038416620001c6565b90505b92915050565b60008181526001830160205260408120546200020f57508154600181810184556000848152602080822090930184905584548482528286019093526040902091909155620001c0565b506000620001c0565b614c9b80620002286000396000f3fe6080604052600436106102045760003560e01c80638d6d61d911610118578063cd01a60a116100a0578063d547741f1161006f578063d547741f146105f2578063d5d6073714610612578063e07bf7ad14610632578063e40a99a81461065c578063f65247241461067c57600080fd5b8063cd01a60a1461058a578063cf8ae864146105aa578063d01350bd146105bd578063d391014b146105dd57600080fd5b8063a465626f116100e7578063a465626f146104f3578063a60c6e5514610508578063bbadc03b14610528578063c09c923b14610555578063ca15c8731461056a57600080fd5b80638d6d61d9146104735780639010d07c1461049357806391d14854146104b35780639bc731fc146104d357600080fd5b8063248a9ca31161019b5780634fa8f1971161016a5780634fa8f197146103d05780635e6104b1146103f05780636853ac26146104135780636ec14858146104335780637b4b233c1461045357600080fd5b8063248a9ca31461034d5780632f2ff15d1461037d57806336568abe1461039d57806341d310ec146103bd57600080fd5b806306fb1a07116101d757806306fb1a07146102b15780630975552e146102e9578063186efad91461030a578063195df43e1461033a57600080fd5b806301ffc9a7146102095780630369679e1461024f57806303ed957f1461027157806306edd76314610291575b600080fd5b34801561021557600080fd5b5061023a61022436600461461e565b6001600160e01b0319166301ffc9a760e01b1490565b60405190151581526020015b60405180910390f35b34801561025b57600080fd5b5061026f61026a366004614660565b61069c565b005b34801561027d57600080fd5b5061026f61028c3660046146a2565b610e02565b34801561029d57600080fd5b5061026f6102ac366004614717565b610e7f565b3480156102bd57600080fd5b506102d16102cc366004614734565b610eae565b6040516001600160a01b039091168152602001610246565b6102fc6102f736600461474d565b610f2b565b604051908152602001610246565b34801561031657600080fd5b5061031f61100c565b60408051938452602084019290925290820152606001610246565b6102fc61034836600461474d565b611171565b34801561035957600080fd5b506102fc610368366004614734565b60009081526020819052604090206001015490565b34801561038957600080fd5b5061026f6103983660046147a3565b611247565b3480156103a957600080fd5b5061026f6103b83660046147a3565b611272565b6102fc6103cb36600461474d565b6112f0565b3480156103dc57600080fd5b506102fc6103eb3660046147d3565b6113c5565b3480156103fc57600080fd5b5061040561144b565b604051610246929190614867565b34801561041f57600080fd5b506102fc61042e366004614734565b61166f565b34801561043f57600080fd5b506102fc61044e3660046147d3565b611827565b34801561045f57600080fd5b506006546102d1906001600160a01b031681565b34801561047f57600080fd5b5061026f61048e366004614660565b6118a7565b34801561049f57600080fd5b506102d16104ae3660046147d3565b611f30565b3480156104bf57600080fd5b5061023a6104ce3660046147a3565b611f48565b3480156104df57600080fd5b5061026f6104ee366004614717565b611f71565b3480156104ff57600080fd5b506102fc612120565b34801561051457600080fd5b506102fc610523366004614884565b61213f565b34801561053457600080fd5b50610548610543366004614717565b612211565b60405161024691906148eb565b34801561056157600080fd5b5061026f612313565b34801561057657600080fd5b506102fc610585366004614734565b612520565b34801561059657600080fd5b506102fc6105a53660046147d3565b612537565b6102fc6105b836600461474d565b6125b6565b3480156105c957600080fd5b506105486105d8366004614734565b61268c565b3480156105e957600080fd5b506102fc600081565b3480156105fe57600080fd5b5061026f61060d3660046147a3565b6126a7565b34801561061e57600080fd5b5061026f61062d3660046148fa565b6126cd565b34801561063e57600080fd5b50610647612aec565b60408051928352602083019190915201610246565b34801561066857600080fd5b506102fc6106773660046147d3565b612c70565b34801561068857600080fd5b506102fc610697366004614884565b612cf0565b6001600160a01b0383166000908152600360205260409020548390158015906106dc57506001600160a01b038116600080516020614c4683398151915214155b604051806040016040528060018152602001602760f91b8152509061071d5760405162461bcd60e51b81526004016107149190614970565b60405180910390fd5b506001600160a01b0384166000818152600360205260408082205490516370a0823160e01b81523060048201529092906370a0823190602401602060405180830381865afa158015610773573d6000803e3d6000fd5b505050506040513d601f19601f8201168201806040525081019061079791906149a3565b90506000600283815481106107ae576107ae6149bc565b60009182526020909120600160049092020101546107d5906001600160701b0316836149e8565b600480546040516370a0823160e01b8152309281019290925291925060009190600080516020614c46833981519152906370a0823190602401602060405180830381865afa15801561082b573d6000803e3d6000fd5b505050506040513d601f19601f8201168201806040525081019061084f91906149a3565b61085991906149e8565b60405163bd85b03960e01b81526004810186905290915060009073e94efbcaa00665c8faa47e18741da9f212a15c209063bd85b03990602401602060405180830381865afa1580156108af573d6000803e3d6000fd5b505050506040513d601f19601f820116820180604052508101906108d391906149a3565b905060008189600288815481106108ec576108ec6149bc565b600091825260209091206001600490920201015461091391906001600160701b03166149ff565b61091d9190614a34565b90506000828a60028981548110610936576109366149bc565b60009182526020909120600490910201600101546109649190600160701b90046001600160701b03166149ff565b61096e9190614a34565b9050600060028881548110610985576109856149bc565b600091825260208220600260049092020181015481546001600160701b039091169350610a2a91908b9081106109bd576109bd6149bc565b9060005260206000209060040201600101600e9054906101000a90046001600160701b03166001600160701b031660028b815481106109fe576109fe6149bc565b6000918252602090912060016004909202010154610a2591906001600160701b03166149ff565b612e4e565b90508560046000828254610a3e9190614a48565b925050819055508060028a81548110610a5957610a596149bc565b906000526020600020906004020160020160006101000a8154816001600160701b0302191690836001600160701b03160217905550838760028b81548110610aa357610aa36149bc565b6000918252602090912060016004909202010154610aca91906001600160701b0316614a60565b610ad49190614a8b565b60028a81548110610ae757610ae76149bc565b906000526020600020906004020160010160006101000a8154816001600160701b0302191690836001600160701b03160217905550828660028b81548110610b3157610b316149bc565b9060005260206000209060040201600101600e9054906101000a90046001600160701b0316610b609190614a60565b610b6a9190614a8b565b60028a81548110610b7d57610b7d6149bc565b9060005260206000209060040201600101600e6101000a8154816001600160701b0302191690836001600160701b0316021790555073e94efbcaa00665c8faa47e18741da9f212a15c206001600160a01b0316631b56a5be308b8f6040518463ffffffff1660e01b8152600401610bf693929190614ab3565b600060405180830381600087803b158015610c1057600080fd5b505af1158015610c24573d6000803e3d6000fd5b50506040516318a8ad8760e01b815230600482015260248101869052600080516020614c4683398151915292506318a8ad879150604401600060405180830381600087803b158015610c7557600080fd5b505af1158015610c89573d6000803e3d6000fd5b505050506000610cac836001600160701b0316836001600160701b031688612ea7565b90508015610d2b57600654604051624a84cb60e01b815273e94efbcaa00665c8faa47e18741da9f212a15c2091624a84cb91610cf8916001600160a01b0316908e908690600401614ab3565b600060405180830381600087803b158015610d1257600080fd5b505af1158015610d26573d6000803e3d6000fd5b505050505b50610d406001600160a01b038e168c86612ef9565b6040516370a0823160e01b81523060048201526000906001600160a01b038f16906370a0823190602401602060405180830381865afa158015610d87573d6000803e3d6000fd5b505050506040513d601f19601f82011682018060405250810190610dab91906149a3565b905088610db88683614a48565b14604051806040016040528060018152602001602360f91b81525090610df15760405162461bcd60e51b81526004016107149190614970565b505050505050505050505050505050565b6000610e0e8133612f5c565b60005b82811015610e7957610e67848483818110610e2e57610e2e6149bc565b90506040020160000135858584818110610e4a57610e4a6149bc565b9050604002016020016020810190610e629190614717565b612fc0565b80610e7181614ad4565b915050610e11565b50505050565b6000610e8b8133612f5c565b50600680546001600160a01b0319166001600160a01b0392909216919091179055565b6040516306fb1a0760e01b81526004810182905260009073def1fac7bf08f173d286bbbdcbeeade695129840906306fb1a0790602401602060405180830381865afa158015610f01573d6000803e3d6000fd5b505050506040513d601f19601f82011682018060405250810190610f259190614aef565b92915050565b6005546001600160a01b031660008181526003602052604081205490919015801590610f6e57506001600160a01b038116600080516020614c4683398151915214155b604051806040016040528060018152602001602760f91b81525090610fa65760405162461bcd60e51b81526004016107149190614970565b508380421115604051806040016040528060018152602001601560fa1b81525090610fe45760405162461bcd60e51b81526004016107149190614970565b506005546110009030906001600160a01b03168a8a8a89612fca565b98975050505050505050565b6040516370a0823160e01b81523060048201526000908190819073cd300dd54345f48ba108df3d792b6c2dbb17edd2906370a0823190602401602060405180830381865afa158015611062573d6000803e3d6000fd5b505050506040513d601f19601f8201168201806040525081019061108691906149a3565b6040516370a0823160e01b815230600482015273de402e9d305bad483d47bc858cc373c5a040a62d906370a0823190602401602060405180830381865afa1580156110d5573d6000803e3d6000fd5b505050506040513d601f19601f820116820180604052508101906110f991906149a3565b6040516370a0823160e01b8152306004820152600080516020614c46833981519152906370a0823190602401602060405180830381865afa158015611142573d6000803e3d6000fd5b505050506040513d601f19601f8201168201806040525081019061116691906149a3565b925092509250909192565b6005546001600160a01b0316600081815260036020526040812054909190158015906111b457506001600160a01b038116600080516020614c4683398151915214155b604051806040016040528060018152602001602760f91b815250906111ec5760405162461bcd60e51b81526004016107149190614970565b508380421115604051806040016040528060018152602001601560fa1b8152509061122a5760405162461bcd60e51b81526004016107149190614970565b506005546110009030908a906001600160a01b03168a8a89613296565b6000828152602081905260409020600101546112638133612f5c565b61126d8383613386565b505050565b6001600160a01b03811633146112e25760405162461bcd60e51b815260206004820152602f60248201527f416363657373436f6e74726f6c3a2063616e206f6e6c792072656e6f756e636560448201526e103937b632b9903337b91039b2b63360891b6064820152608401610714565b6112ec82826133a8565b5050565b6005546001600160a01b03166000818152600360205260408120549091901580159061133357506001600160a01b038116600080516020614c4683398151915214155b604051806040016040528060018152602001602760f91b8152509061136b5760405162461bcd60e51b81526004016107149190614970565b508380421115604051806040016040528060018152602001601560fa1b815250906113a95760405162461bcd60e51b81526004016107149190614970565b506005546110009030906001600160a01b03168a8a8a89613296565b600061144482600285815481106113de576113de6149bc565b6000918252602090912060016004909202010154600280546001600160701b039092169187908110611412576114126149bc565b6000918252602090912060049091020160010154600160701b90046001600160701b031661143f8761166f565b6133ca565b9392505050565b611453614519565b61145b614519565b60036020527f152b26db60bc4892711d3dd42317109fb33caa41efedf600ddcb4c1ddb9f2ad75473de402e9d305bad483d47bc858cc373c5a040a62d6000527fa2bd018ed947f59f9909a33eef41337a0ba625658072b40e2cd24448d2bbcbd35460028054839081106114d0576114d06149bc565b9060005260206000209060040201600282815481106114f1576114f16149bc565b60009182526020918290206040805160a08101825285546001600160a01b0316815260018601546001600160701b0380821696830196909652600160701b900485168183015260028601549094166060850152805161010081019091526004909202019190839060808301906003830160088282826020028201916000905b82829054906101000a900463ffffffff1663ffffffff1681526020019060040190602082600301049283019260010382029150808411611570575050509290935250506040805160a08101825285546001600160a01b0316815260018601546001600160701b038082166020840152600160701b9091048116828401526002870154166060820152815161010081019283905294965093859350608085019250906003840190600890826000855b82829054906101000a900463ffffffff1663ffffffff168152602001906004019060208260030104928301926001038202915080841161161e57905050505050508152505090509350935050509091565b60008061167a612120565b90506000600861168b836001614a48565b6116959190614b0c565b90506000805b600881101561173257838114806116b157508281145b156116bb57611720565b600286815481106116ce576116ce6149bc565b906000526020600020906004020160030181600881106116f0576116f06149bc565b600891828204019190066004029054906101000a900463ffffffff1663ffffffff168261171d9190614a48565b91505b8061172a81614ad4565b91505061169b565b50600061174782670de0b6b3a76400006149ff565b611753906103e86149ff565b905060006002878154811061176a5761176a6149bc565b600091825260209091206004909102016001015461179990600160701b90046001600160701b03166002614b20565b6117a4906096614b20565b6001600160701b031690508082116117c0576126ac955061181d565b81811080156117d857506117d58160646149ff565b82105b1561180557806117e881846149e8565b6117f29190614a34565b6117fe906126ac614a48565b955061181d565b6118108160646149ff565b82111561181d5761270f95505b5050505050919050565b60006114448260028581548110611840576118406149bc565b9060005260206000209060040201600101600e9054906101000a90046001600160701b03166001600160701b031660028681548110611881576118816149bc565b60009182526020909120600160049092020101546001600160701b031661143f8761166f565b6001600160a01b0383166000908152600360205260409020548390158015906118e757506001600160a01b038116600080516020614c4683398151915214155b604051806040016040528060018152602001602760f91b8152509061191f5760405162461bcd60e51b81526004016107149190614970565b506001600160a01b0384166000818152600360205260409020549061194690333087613417565b6040516370a0823160e01b81523060048201526000906001600160a01b038716906370a0823190602401602060405180830381865afa15801561198d573d6000803e3d6000fd5b505050506040513d601f19601f820116820180604052508101906119b191906149a3565b9050600282815481106119c6576119c66149bc565b60009182526020909120600160049092020101546119ed906001600160701b0316826149e8565b945060008511604051806040016040528060018152602001602d60f91b81525090611a2b5760405162461bcd60e51b81526004016107149190614970565b506040516370a0823160e01b8152306004820152600090600080516020614c46833981519152906370a0823190602401602060405180830381865afa158015611a78573d6000803e3d6000fd5b505050506040513d601f19601f82011682018060405250810190611a9c91906149a3565b9050600060045482611aae91906149e8565b905060008160028681548110611ac657611ac66149bc565b6000918252602090912060016004909202010154600280546001600160701b039092169188908110611afa57611afa6149bc565b6000918252602090912060049091020160010154611b2890600160701b90046001600160701b03168b6149ff565b611b329190614a34565b611b3c91906149e8565b9050600060028681548110611b5357611b536149bc565b600091825260208220600260049092020181015481546001600160701b039091169350611bcc919089908110611b8b57611b8b6149bc565b9060005260206000209060040201600101600e9054906101000a90046001600160701b03166001600160701b0316600289815481106109fe576109fe6149bc565b9050611bd88385614a48565b60046000828254611be99190614a48565b925050819055508060028881548110611c0457611c046149bc565b906000526020600020906004020160020160006101000a8154816001600160701b0302191690836001600160701b031602179055508560028881548110611c4d57611c4d6149bc565b6000918252602090912060049091020160010180546001600160701b0319166001600160701b0392909216919091179055611c888385614a48565b60028881548110611c9b57611c9b6149bc565b9060005260206000209060040201600101600e8282829054906101000a90046001600160701b0316611ccd9190614a60565b82546001600160701b039182166101009390930a928302919092021990911617905550604051630bb9ff5d60e01b815230600482015260248101849052600080516020614c4683398151915290630bb9ff5d90604401600060405180830381600087803b158015611d3d57600080fd5b505af1158015611d51573d6000803e3d6000fd5b505060405163bd85b03960e01b8152600481018a90526000925073e94efbcaa00665c8faa47e18741da9f212a15c20915063bd85b03990602401602060405180830381865afa158015611da8573d6000803e3d6000fd5b505050506040513d601f19601f82011682018060405250810190611dcc91906149a3565b9050600060028981548110611de357611de36149bc565b60009182526020909120600160049092020101546001600160701b0316611e0a838e6149ff565b611e149190614a34565b604051624a84cb60e01b815290915073e94efbcaa00665c8faa47e18741da9f212a15c2090624a84cb90611e50908e908d908690600401614ab3565b600060405180830381600087803b158015611e6a57600080fd5b505af1158015611e7e573d6000803e3d6000fd5b505050506000611ea1856001600160701b0316856001600160701b031685612ea7565b90508015611f2057600654604051624a84cb60e01b815273e94efbcaa00665c8faa47e18741da9f212a15c2091624a84cb91611eed916001600160a01b0316908e908690600401614ab3565b600060405180830381600087803b158015611f0757600080fd5b505af1158015611f1b573d6000803e3d6000fd5b505050505b5050505050505050505050505050565b6000828152600160205260408120611444908361344f565b6000918252602082815260408084206001600160a01b0393909316845291905290205460ff1690565b6001600160a01b038116600090815260036020526040902054819015801590611fb157506001600160a01b038116600080516020614c4683398151915214155b604051806040016040528060018152602001602760f91b81525090611fe95760405162461bcd60e51b81526004016107149190614970565b506001600160a01b038216600081815260036020526040908190205490516370a0823160e01b81523060048201529091906370a0823190602401602060405180830381865afa158015612040573d6000803e3d6000fd5b505050506040513d601f19601f8201168201806040525081019061206491906149a3565b60028281548110612077576120776149bc565b6000918252602090912060049182020160010180546001600160701b0319166001600160701b0393909316929092179091556040516370a0823160e01b81523091810191909152600080516020614c46833981519152906370a0823190602401602060405180830381865afa1580156120f4573d6000803e3d6000fd5b505050506040513d601f19601f8201168201806040525081019061211891906149a3565b600455505050565b6000600861213061384042614a34565b61213a9190614b0c565b905090565b6001600160a01b03861660009081526003602052604081205487901580159061217f57506001600160a01b038116600080516020614c4683398151915214155b604051806040016040528060018152602001602760f91b815250906121b75760405162461bcd60e51b81526004016107149190614970565b508380421115604051806040016040528060018152602001601560fa1b815250906121f55760405162461bcd60e51b81526004016107149190614970565b50612204338a8a8a8a89613296565b9998505050505050505050565b612219614519565b6001600160a01b038216600090815260036020526040902054600280549091908110612247576122476149bc565b60009182526020918290206040805160a081018252600490930290910180546001600160a01b0316835260018101546001600160701b0380821695850195909552600160701b9004841683830152600281015490931660608301528051610100810190915290919060808301906003830160088282826020028201916000905b82829054906101000a900463ffffffff1663ffffffff16815260200190600401906020826003010492830192600103820291508084116122c75790505050505050815250509050919050565b600061231f8133612f5c565b6006546040805180820190915260018152604160f81b602082015290600160a01b900460ff16156123635760405162461bcd60e51b81526004016107149190614970565b506006805460ff60a01b1916600160a01b17905561237f61454e565b6040805160a081018252600080825260208201818152928201818152606083018281526080840186815260028054600181018255945284517f405787fa12a823e0f2b7631cc41b3ba8828b3321ca811111fa75cd3aa3bb5ace600490950294850180546001600160a01b0319166001600160a01b0390921691909117815595517f405787fa12a823e0f2b7631cc41b3ba8828b3321ca811111fa75cd3aa3bb5acf8501805494516001600160701b039283166001600160e01b031990961695909517600160701b958316959095029490941790935590517f405787fa12a823e0f2b7631cc41b3ba8828b3321ca811111fa75cd3aa3bb5ad0840180546001600160701b0319169190931617909155519192916124bf917f405787fa12a823e0f2b7631cc41b3ba8828b3321ca811111fa75cd3aa3bb5ad10190600861456d565b5050506124f673cd300dd54345f48ba108df3d792b6c2dbb17edd269d3c21bcecceda10000006969e10de76676d0800000336126cd565b6112ec73de402e9d305bad483d47bc858cc373c5a040a62d69943b1377290cbd80000080336126cd565b6000818152600160205260408120610f259061345b565b60006114448260028581548110612550576125506149bc565b6000918252602090912060016004909202010154600280546001600160701b039092169187908110612584576125846149bc565b6000918252602090912060049091020160010154600160701b90046001600160701b03166125b18761166f565b613465565b6005546001600160a01b0316600081815260036020526040812054909190158015906125f957506001600160a01b038116600080516020614c4683398151915214155b604051806040016040528060018152602001602760f91b815250906126315760405162461bcd60e51b81526004016107149190614970565b508380421115604051806040016040528060018152602001601560fa1b8152509061266f5760405162461bcd60e51b81526004016107149190614970565b506005546110009033908a906001600160a01b03168a8a30612fca565b612694614519565b60028281548110612247576122476149bc565b6000828152602081905260409020600101546126c38133612f5c565b61126d83836133a8565b60006126d98133612f5c565b6001600160a01b038516600090815260036020526040902054859015801561271857506001600160a01b038116600080516020614c4683398151915214155b604051806040016040528060018152602001604560f81b815250906127505760405162461bcd60e51b81526004016107149190614970565b506002546127696001600160a01b038816333089613417565b604051630bb9ff5d60e01b815230600482015260248101879052600080516020614c4683398151915290630bb9ff5d90604401600060405180830381600087803b1580156127b657600080fd5b505af11580156127ca573d6000803e3d6000fd5b50506040516370a0823160e01b81523060048201526001600160a01b038a1692506370a082319150602401602060405180830381865afa158015612812573d6000803e3d6000fd5b505050506040513d601f19601f8201168201806040525081019061283691906149a3565b955060008611604051806040016040528060018152602001602d60f91b815250906128745760405162461bcd60e51b81526004016107149190614970565b506000612884610a2587896149ff565b905061288e61454e565b6040805160a0810182526001600160a01b038b811682526001600160701b038b8116602084019081528b821694840194855286821660608501908152608085018781526002805460018101825560009190915286517f405787fa12a823e0f2b7631cc41b3ba8828b3321ca811111fa75cd3aa3bb5ace600490920291820180546001600160a01b0319169190971617865592517f405787fa12a823e0f2b7631cc41b3ba8828b3321ca811111fa75cd3aa3bb5acf8401805498519186166001600160e01b031990991698909817600160701b9186169190910217909655517f405787fa12a823e0f2b7631cc41b3ba8828b3321ca811111fa75cd3aa3bb5ad0820180546001600160701b03191691909316179091559251919283926129d7917f405787fa12a823e0f2b7631cc41b3ba8828b3321ca811111fa75cd3aa3bb5ad10190600861456d565b5050506001600160a01b038a166000908152600360205260409081902085905551624a84cb60e01b815273e94efbcaa00665c8faa47e18741da9f212a15c2090624a84cb90612a329061dead9088906103e890600401614ab3565b600060405180830381600087803b158015612a4c57600080fd5b505af1158015612a60573d6000803e3d6000fd5b5050505060006103e8612a788a8c610a2591906149ff565b612a8291906149e8565b604051624a84cb60e01b815290915073e94efbcaa00665c8faa47e18741da9f212a15c2090624a84cb90612abe908b9089908690600401614ab3565b600060405180830381600087803b158015612ad857600080fd5b505af1158015610df1573d6000803e3d6000fd5b60036020527f152b26db60bc4892711d3dd42317109fb33caa41efedf600ddcb4c1ddb9f2ad75473de402e9d305bad483d47bc858cc373c5a040a62d60009081527fa2bd018ed947f59f9909a33eef41337a0ba625658072b40e2cd24448d2bbcbd35460028054929384939092919083908110612b6b57612b6b6149bc565b6000918252602090912060016004909202010154600280546001600160701b039092169184908110612b9f57612b9f6149bc565b6000918252602090912060049091020160010154612bd590600160701b90046001600160701b0316670de0b6b3a76400006149ff565b612bdf9190614a34565b60028281548110612bf257612bf26149bc565b6000918252602090912060016004909202010154600280546001600160701b039092169184908110612c2657612c266149bc565b6000918252602090912060049091020160010154612c5c90600160701b90046001600160701b0316670de0b6b3a76400006149ff565b612c669190614a34565b9350935050509091565b60006114448260028581548110612c8957612c896149bc565b9060005260206000209060040201600101600e9054906101000a90046001600160701b03166001600160701b031660028681548110612cca57612cca6149bc565b60009182526020909120600160049092020101546001600160701b03166125b18761166f565b6001600160a01b038616600090815260036020526040812054879015801590612d3057506001600160a01b038116600080516020614c4683398151915214155b604051806040016040528060018152602001602760f91b81525090612d685760405162461bcd60e51b81526004016107149190614970565b508380421115604051806040016040528060018152602001601560fa1b81525090612da65760405162461bcd60e51b81526004016107149190614970565b50612204338a8a8a8a89612fca565b612dbf8282611f48565b6112ec576000828152602081815260408083206001600160a01b03851684529091529020805460ff19166001179055612df53390565b6001600160a01b0316816001600160a01b0316837f2f8788117e7eff1d82e926ec794901d17c78024a50270940304540a733656f0d60405160405180910390a45050565b6000611444836001600160a01b0384166134a1565b6000806002612e5e846001614a48565b612e689190614a34565b90508291505b81811015612ea157905080600281612e868186614a34565b612e909190614a48565b612e9a9190614a34565b9050612e6e565b50919050565b60008383118015612eb85750600084115b156114445783612ec98460056149ff565b612ed39190614a48565b612edd85856149e8565b612ee790846149ff565b612ef19190614a34565b949350505050565b6040516001600160a01b03831660248201526044810182905261126d90849063a9059cbb60e01b906064015b60408051601f198184030181529190526020810180516001600160e01b03166001600160e01b0319909316929092179091526134f0565b612f668282611f48565b6112ec57612f7e816001600160a01b031660146135c2565b612f898360206135c2565b604051602001612f9a929190614b4f565b60408051601f198184030181529082905262461bcd60e51b825261071491600401614970565b6112ec8282613386565b600080806001600160a01b038816600080516020614c4683398151915214801561300b57506001600160a01b038716600080516020614c4683398151915214155b156130aa576001600160a01b0387166000908152600360205260409020546130339086611827565b915085821115604051806040016040528060018152602001600b60fb1b815250906130715760405162461bcd60e51b81526004016107149190614970565b506001600160a01b0389163014613097576130976001600160a01b0389168a3085613417565b6130a38760008661375e565b9050611000565b6001600160a01b038816600080516020614c46833981519152148015906130e757506001600160a01b038716600080516020614c46833981519152145b1561317f576001600160a01b03881660009081526003602052604090205461310f90866113c5565b915085821115604051806040016040528060018152602001605960f81b8152509061314d5760405162461bcd60e51b81526004016107149190614970565b506001600160a01b0389163014613173576131736001600160a01b0389168a3085613417565b6130a388600086613d56565b6001600160a01b038816600080516020614c46833981519152148015906131bd57506001600160a01b038716600080516020614c4683398151915214155b15611000576001600160a01b0387166000908152600360205260408120546131e59087611827565b6001600160a01b038a1660009081526003602052604090205490915061320b90826113c5565b925086831115604051806040016040528060018152602001605960f81b815250906132495760405162461bcd60e51b81526004016107149190614970565b506001600160a01b038a16301461326f5761326f6001600160a01b038a168b3086613417565b61327b89600080613d56565b506132888860008761375e565b9a9950505050505050505050565b60006001600160a01b03871630146132bd576132bd6001600160a01b038716883087613417565b60006001600160a01b038716600080516020614c468339815191521480156132fc57506001600160a01b038616600080516020614c4683398151915214155b156133135761330c86858561375e565b905061337b565b6001600160a01b038716600080516020614c468339815191521480159061335057506001600160a01b038616600080516020614c46833981519152145b156133605761330c878585613d56565b61336c87600080613d56565b5061337886858561375e565b90505b979650505050505050565b6133908282612db5565b600082815260016020526040902061126d9082612e39565b6133b28282614222565b600082815260016020526040902061126d9082614287565b6000806133d786856149e8565b6133e190846149ff565b6127106133ee88886149ff565b6133f891906149ff565b6134029190614a34565b61340d906001614a48565b9695505050505050565b6040516001600160a01b0380851660248301528316604482015260648101829052610e799085906323b872dd60e01b90608401612f25565b6000611444838361429c565b6000610f25825490565b60008061347283876149ff565b9050600081613483612710886149ff565b61348d9190614a48565b61349783876149ff565b61337b9190614a34565b60008181526001830160205260408120546134e857508154600181810184556000848152602080822090930184905584548482528286019093526040902091909155610f25565b506000610f25565b6000613545826040518060400160405280602081526020017f5361666545524332303a206c6f772d6c6576656c2063616c6c206661696c6564815250856001600160a01b03166142c69092919063ffffffff16565b80519091501561126d57808060200190518101906135639190614bc4565b61126d5760405162461bcd60e51b815260206004820152602a60248201527f5361666545524332303a204552433230206f7065726174696f6e20646964206e6044820152691bdd081cdd58d8d9595960b21b6064820152608401610714565b606060006135d18360026149ff565b6135dc906002614a48565b67ffffffffffffffff8111156135f4576135f4614be6565b6040519080825280601f01601f19166020018201604052801561361e576020820181803683370190505b509050600360fc1b81600081518110613639576136396149bc565b60200101906001600160f81b031916908160001a905350600f60fb1b81600181518110613668576136686149bc565b60200101906001600160f81b031916908160001a905350600061368c8460026149ff565b613697906001614a48565b90505b600181111561370f576f181899199a1a9b1b9c1cb0b131b232b360811b85600f16601081106136cb576136cb6149bc565b1a60f81b8282815181106136e1576136e16149bc565b60200101906001600160f81b031916908160001a90535060049490941c9361370881614bfc565b905061369a565b5083156114445760405162461bcd60e51b815260206004820181905260248201527f537472696e67733a20686578206c656e67746820696e73756666696369656e746044820152606401610714565b6001600160a01b0383166000908152600360205260408082205490516370a0823160e01b81523060048201528290600080516020614c46833981519152906370a0823190602401602060405180830381865afa1580156137c2573d6000803e3d6000fd5b505050506040513d601f19601f820116820180604052508101906137e691906149a3565b90506000600454826137f891906149e8565b905060008111604051806040016040528060018152602001605560f81b815250906138365760405162461bcd60e51b81526004016107149190614970565b506040516370a0823160e01b81523060048201526000906001600160a01b038916906370a0823190602401602060405180830381865afa15801561387e573d6000803e3d6000fd5b505050506040513d601f19601f820116820180604052508101906138a291906149a3565b90506000600285815481106138b9576138b96149bc565b60009182526020909120600160049092020101546138e0906001600160701b0316836149e8565b905060006138ee8685612c70565b905088811015604051806040016040528060018152602001602760f91b8152509061392c5760405162461bcd60e51b81526004016107149190614970565b50836004600082825461393f9190614a48565b92505081905550836002878154811061395a5761395a6149bc565b9060005260206000209060040201600101600e8282829054906101000a90046001600160701b031661398c9190614a60565b92506101000a8154816001600160701b0302191690836001600160701b031602179055508082600288815481106139c5576139c56149bc565b60009182526020909120600160049092020101546139ec91906001600160701b0316614a60565b6139f69190614a8b565b60028781548110613a0957613a096149bc565b906000526020600020906004020160010160006101000a8154816001600160701b0302191690836001600160701b031602179055506000613a48612120565b9050600060028881548110613a5f57613a5f6149bc565b506000526008613a6d612120565b613a78906001614a48565b613a829190614b0c565b9050670de0b6b3a7640000860460028981548110613aa257613aa26149bc565b90600052602060002090600402016003018360088110613ac457613ac46149bc565b600891828204019190066004028282829054906101000a900463ffffffff160192506101000a81548163ffffffff021916908363ffffffff160217905550600060028981548110613b1757613b176149bc565b90600052602060002090600402016003018260088110613b3957613b396149bc565b600891828204019190066004029054906101000a900463ffffffff1663ffffffff161115613bc257600060028981548110613b7657613b766149bc565b90600052602060002090600402016003018260088110613b9857613b986149bc565b600891828204019190066004026101000a81548163ffffffff021916908363ffffffff1602179055505b6001600160a01b038a1615613c58576040516323b872dd60e01b81526001600160a01b038b16600482015230602482015260448101879052600080516020614c46833981519152906323b872dd906064016020604051808303816000875af1158015613c32573d6000803e3d6000fd5b505050506040513d601f19601f82011682018060405250810190613c569190614bc4565b505b613c6c6001600160a01b038d168b85612ef9565b6040516370a0823160e01b81523060048201526000906001600160a01b038e16906370a0823190602401602060405180830381865afa158015613cb3573d6000803e3d6000fd5b505050506040513d601f19601f82011682018060405250810190613cd791906149a3565b905060028981548110613cec57613cec6149bc565b6000918252602091829020600160049092020181015460408051808201909152918252602360f91b92820192909252906001600160701b03168214613d445760405162461bcd60e51b81526004016107149190614970565b50929c9b505050505050505050505050565b6001600160a01b0383166000818152600360205260408082205490516370a0823160e01b8152306004820152919290918391906370a0823190602401602060405180830381865afa158015613daf573d6000803e3d6000fd5b505050506040513d601f19601f82011682018060405250810190613dd391906149a3565b9050600060028381548110613dea57613dea6149bc565b6000918252602090912060016004909202010154613e11906001600160701b0316836149e8565b905060008111604051806040016040528060018152602001602d60f91b81525090613e4f5760405162461bcd60e51b81526004016107149190614970565b506040516370a0823160e01b8152306004820152600090600080516020614c46833981519152906370a0823190602401602060405180830381865afa158015613e9c573d6000803e3d6000fd5b505050506040513d601f19601f82011682018060405250810190613ec091906149a3565b9050600060045482613ed291906149e8565b90506000613ee08685612537565b905088811015604051806040016040528060018152602001604d60f81b81525090613f1e5760405162461bcd60e51b81526004016107149190614970565b508082600454613f2e9190614a48565b613f3891906149e8565b600481905550808260028881548110613f5357613f536149bc565b9060005260206000209060040201600101600e9054906101000a90046001600160701b0316613f829190614a60565b613f8c9190614a8b565b60028781548110613f9f57613f9f6149bc565b9060005260206000209060040201600101600e6101000a8154816001600160701b0302191690836001600160701b031602179055508460028781548110613fe857613fe86149bc565b906000526020600020906004020160010160006101000a8154816001600160701b0302191690836001600160701b031602179055506000614027612120565b905060006008614038836001614a48565b6140429190614b0c565b9050670de0b6b3a7640000830460028981548110614062576140626149bc565b90600052602060002090600402016003018360088110614084576140846149bc565b600891828204019190066004028282829054906101000a900463ffffffff160192506101000a81548163ffffffff021916908363ffffffff1602179055506000600289815481106140d7576140d76149bc565b906000526020600020906004020160030182600881106140f9576140f96149bc565b600891828204019190066004029054906101000a900463ffffffff1663ffffffff16111561418257600060028981548110614136576141366149bc565b90600052602060002090600402016003018260088110614158576141586149bc565b600891828204019190066004026101000a81548163ffffffff021916908363ffffffff1602179055505b6001600160a01b038a16156142125760405163a9059cbb60e01b81526001600160a01b038b16600482015260248101849052600080516020614c468339815191529063a9059cbb906044016020604051808303816000875af11580156141ec573d6000803e3d6000fd5b505050506040513d601f19601f820116820180604052508101906142109190614bc4565b505b50909a9950505050505050505050565b61422c8282611f48565b156112ec576000828152602081815260408083206001600160a01b0385168085529252808320805460ff1916905551339285917ff6391f5c32d9c69d2a47ea670b442974b53935d1edc7fd64eb21e047a839171b9190a45050565b6000611444836001600160a01b0384166142d5565b60008260000182815481106142b3576142b36149bc565b9060005260206000200154905092915050565b6060612ef184846000856143c8565b600081815260018301602052604081205480156143be5760006142f96001836149e8565b855490915060009061430d906001906149e8565b905081811461437257600086600001828154811061432d5761432d6149bc565b9060005260206000200154905080876000018481548110614350576143506149bc565b6000918252602080832090910192909255918252600188019052604090208390555b855486908061438357614383614c13565b600190038181906000526020600020016000905590558560010160008681526020019081526020016000206000905560019350505050610f25565b6000915050610f25565b6060824710156144295760405162461bcd60e51b815260206004820152602660248201527f416464726573733a20696e73756666696369656e742062616c616e636520666f6044820152651c8818d85b1b60d21b6064820152608401610714565b843b6144775760405162461bcd60e51b815260206004820152601d60248201527f416464726573733a2063616c6c20746f206e6f6e2d636f6e74726163740000006044820152606401610714565b600080866001600160a01b031685876040516144939190614c29565b60006040518083038185875af1925050503d80600081146144d0576040519150601f19603f3d011682016040523d82523d6000602084013e6144d5565b606091505b509150915061337b828286606083156144ef575081611444565b8251156144ff5782518084602001fd5b8160405162461bcd60e51b81526004016107149190614970565b6040805160a08101825260008082526020820181905291810182905260608101919091526080810161454961454e565b905290565b6040518061010001604052806008906020820280368337509192915050565b6001830191839082156145f95791602002820160005b838211156145c757835183826101000a81548163ffffffff021916908363ffffffff1602179055509260200192600401602081600301049283019260010302614583565b80156145f75782816101000a81549063ffffffff02191690556004016020816003010492830192600103026145c7565b505b50614605929150614609565b5090565b5b80821115614605576000815560010161460a565b60006020828403121561463057600080fd5b81356001600160e01b03198116811461144457600080fd5b6001600160a01b038116811461465d57600080fd5b50565b60008060006060848603121561467557600080fd5b833561468081614648565b925060208401359150604084013561469781614648565b809150509250925092565b600080602083850312156146b557600080fd5b823567ffffffffffffffff808211156146cd57600080fd5b818501915085601f8301126146e157600080fd5b8135818111156146f057600080fd5b8660208260061b850101111561470557600080fd5b60209290920196919550909350505050565b60006020828403121561472957600080fd5b813561144481614648565b60006020828403121561474657600080fd5b5035919050565b600080600080600060a0868803121561476557600080fd5b853561477081614648565b9450602086013593506040860135925060608601359150608086013561479581614648565b809150509295509295909350565b600080604083850312156147b657600080fd5b8235915060208301356147c881614648565b809150509250929050565b600080604083850312156147e657600080fd5b50508035926020909101359150565b80516001600160a01b031682526020808201516001600160701b03908116828501526040808401518216908501526060808401519091169084015260808083015190840160005b600881101561485f57825163ffffffff168252918301919083019060010161483c565b505050505050565b610300810161487682856147f5565b6114446101808301846147f5565b60008060008060008060c0878903121561489d57600080fd5b86356148a881614648565b955060208701356148b881614648565b945060408701359350606087013592506080870135915060a08701356148dd81614648565b809150509295509295509295565b6101808101610f2582846147f5565b6000806000806080858703121561491057600080fd5b843561491b81614648565b93506020850135925060408501359150606085013561493981614648565b939692955090935050565b60005b8381101561495f578181015183820152602001614947565b83811115610e795750506000910152565b602081526000825180602084015261498f816040850160208701614944565b601f01601f19169190910160400192915050565b6000602082840312156149b557600080fd5b5051919050565b634e487b7160e01b600052603260045260246000fd5b634e487b7160e01b600052601160045260246000fd5b6000828210156149fa576149fa6149d2565b500390565b6000816000190483118215151615614a1957614a196149d2565b500290565b634e487b7160e01b600052601260045260246000fd5b600082614a4357614a43614a1e565b500490565b60008219821115614a5b57614a5b6149d2565b500190565b60006001600160701b03808316818516808303821115614a8257614a826149d2565b01949350505050565b60006001600160701b0383811690831681811015614aab57614aab6149d2565b039392505050565b6001600160a01b039390931683526020830191909152604082015260600190565b6000600019821415614ae857614ae86149d2565b5060010190565b600060208284031215614b0157600080fd5b815161144481614648565b600082614b1b57614b1b614a1e565b500690565b60006001600160701b0380831681851681830481118215151615614b4657614b466149d2565b02949350505050565b7f416363657373436f6e74726f6c3a206163636f756e7420000000000000000000815260008351614b87816017850160208801614944565b7001034b99036b4b9b9b4b733903937b6329607d1b6017918401918201528351614bb8816028840160208801614944565b01602801949350505050565b600060208284031215614bd657600080fd5b8151801515811461144457600080fd5b634e487b7160e01b600052604160045260246000fd5b600081614c0b57614c0b6149d2565b506000190190565b634e487b7160e01b600052603160045260246000fd5b60008251614c3b818460208701614944565b919091019291505056fe00000000000000000000000004d7000cc826349a872757d82b3e0f68a713b3c5a264697066735822122006b0abdddb462b2d7e22872733cf29ffe50781fe63976e72c3f588754eac287164736f6c634300080b0033",
			"opcodes": "PUSH1 0x80 PUSH1 0x40 MSTORE PUSH1 0x6 DUP1 SLOAD PUSH1 0x1 PUSH1 0x1 PUSH1 0xA0 SHL SUB NOT AND PUSH2 0xDEAD OR SWAP1 SSTORE CALLVALUE DUP1 ISZERO PUSH3 0x25 JUMPI PUSH1 0x0 DUP1 REVERT JUMPDEST POP PUSH3 0x33 PUSH1 0x0 CALLER PUSH3 0xB3 JUMP JUMPDEST PUSH1 0x6 DUP1 SLOAD PUSH1 0x1 PUSH1 0x1 PUSH1 0xA0 SHL SUB NOT AND CALLER OR SWAP1 SSTORE PUSH2 0x3039 CHAINID EQ ISZERO PUSH3 0x66 JUMPI PUSH1 0x5 DUP1 SLOAD PUSH1 0x1 PUSH1 0x1 PUSH1 0xA0 SHL SUB NOT AND SWAP1 SSTORE PUSH3 0x87 JUMP JUMPDEST CHAINID PUSH3 0x181CD EQ ISZERO PUSH3 0x87 JUMPI PUSH1 0x5 DUP1 SLOAD PUSH1 0x1 PUSH1 0x1 PUSH1 0xA0 SHL SUB NOT AND PUSH2 0xDEAD OR SWAP1 SSTORE JUMPDEST PUSH1 0x5 DUP1 SLOAD PUSH1 0x1 PUSH1 0x1 PUSH1 0xA0 SHL SUB NOT AND PUSH20 0x14769F96E57B80C66837701DE0B43686FB4632DE OR SWAP1 SSTORE PUSH3 0x218 JUMP JUMPDEST PUSH3 0xBF DUP3 DUP3 PUSH3 0xC3 JUMP JUMPDEST POP POP JUMP JUMPDEST PUSH3 0xDA DUP3 DUP3 PUSH3 0x106 PUSH1 0x20 SHL PUSH3 0x2DB5 OR PUSH1 0x20 SHR JUMP JUMPDEST PUSH1 0x0 DUP3 DUP2 MSTORE PUSH1 0x1 PUSH1 0x20 SWAP1 DUP2 MSTORE PUSH1 0x40 SWAP1 SWAP2 KECCAK256 PUSH3 0x101 SWAP2 DUP4 SWAP1 PUSH3 0x2E39 PUSH3 0x1A6 DUP3 SHL OR SWAP1 SHR JUMP JUMPDEST POP POP POP JUMP JUMPDEST PUSH1 0x0 DUP3 DUP2 MSTORE PUSH1 0x20 DUP2 DUP2 MSTORE PUSH1 0x40 DUP1 DUP4 KECCAK256 PUSH1 0x1 PUSH1 0x1 PUSH1 0xA0 SHL SUB DUP6 AND DUP5 MSTORE SWAP1 SWAP2 MSTORE SWAP1 KECCAK256 SLOAD PUSH1 0xFF AND PUSH3 0xBF JUMPI PUSH1 0x0 DUP3 DUP2 MSTORE PUSH1 0x20 DUP2 DUP2 MSTORE PUSH1 0x40 DUP1 DUP4 KECCAK256 PUSH1 0x1 PUSH1 0x1 PUSH1 0xA0 SHL SUB DUP6 AND DUP5 MSTORE SWAP1 SWAP2 MSTORE SWAP1 KECCAK256 DUP1 SLOAD PUSH1 0xFF NOT AND PUSH1 0x1 OR SWAP1 SSTORE PUSH3 0x162 CALLER SWAP1 JUMP JUMPDEST PUSH1 0x1 PUSH1 0x1 PUSH1 0xA0 SHL SUB AND DUP2 PUSH1 0x1 PUSH1 0x1 PUSH1 0xA0 SHL SUB AND DUP4 PUSH32 0x2F8788117E7EFF1D82E926EC794901D17C78024A50270940304540A733656F0D PUSH1 0x40 MLOAD PUSH1 0x40 MLOAD DUP1 SWAP2 SUB SWAP1 LOG4 POP POP JUMP JUMPDEST PUSH1 0x0 PUSH3 0x1BD DUP4 PUSH1 0x1 PUSH1 0x1 PUSH1 0xA0 SHL SUB DUP5 AND PUSH3 0x1C6 JUMP JUMPDEST SWAP1 POP JUMPDEST SWAP3 SWAP2 POP POP JUMP JUMPDEST PUSH1 0x0 DUP2 DUP2 MSTORE PUSH1 0x1 DUP4 ADD PUSH1 0x20 MSTORE PUSH1 0x40 DUP2 KECCAK256 SLOAD PUSH3 0x20F JUMPI POP DUP2 SLOAD PUSH1 0x1 DUP2 DUP2 ADD DUP5 SSTORE PUSH1 0x0 DUP5 DUP2 MSTORE PUSH1 0x20 DUP1 DUP3 KECCAK256 SWAP1 SWAP4 ADD DUP5 SWAP1 SSTORE DUP5 SLOAD DUP5 DUP3 MSTORE DUP3 DUP7 ADD SWAP1 SWAP4 MSTORE PUSH1 0x40 SWAP1 KECCAK256 SWAP2 SWAP1 SWAP2 SSTORE PUSH3 0x1C0 JUMP JUMPDEST POP PUSH1 0x0 PUSH3 0x1C0 JUMP JUMPDEST PUSH2 0x4C9B DUP1 PUSH3 0x228 PUSH1 0x0 CODECOPY PUSH1 0x0 RETURN INVALID PUSH1 0x80 PUSH1 0x40 MSTORE PUSH1 0x4 CALLDATASIZE LT PUSH2 0x204 JUMPI PUSH1 0x0 CALLDATALOAD PUSH1 0xE0 SHR DUP1 PUSH4 0x8D6D61D9 GT PUSH2 0x118 JUMPI DUP1 PUSH4 0xCD01A60A GT PUSH2 0xA0 JUMPI DUP1 PUSH4 0xD547741F GT PUSH2 0x6F JUMPI DUP1 PUSH4 0xD547741F EQ PUSH2 0x5F2 JUMPI DUP1 PUSH4 0xD5D60737 EQ PUSH2 0x612 JUMPI DUP1 PUSH4 0xE07BF7AD EQ PUSH2 0x632 JUMPI DUP1 PUSH4 0xE40A99A8 EQ PUSH2 0x65C JUMPI DUP1 PUSH4 0xF6524724 EQ PUSH2 0x67C JUMPI PUSH1 0x0 DUP1 REVERT JUMPDEST DUP1 PUSH4 0xCD01A60A EQ PUSH2 0x58A JUMPI DUP1 PUSH4 0xCF8AE864 EQ PUSH2 0x5AA JUMPI DUP1 PUSH4 0xD01350BD EQ PUSH2 0x5BD JUMPI DUP1 PUSH4 0xD391014B EQ PUSH2 0x5DD JUMPI PUSH1 0x0 DUP1 REVERT JUMPDEST DUP1 PUSH4 0xA465626F GT PUSH2 0xE7 JUMPI DUP1 PUSH4 0xA465626F EQ PUSH2 0x4F3 JUMPI DUP1 PUSH4 0xA60C6E55 EQ PUSH2 0x508 JUMPI DUP1 PUSH4 0xBBADC03B EQ PUSH2 0x528 JUMPI DUP1 PUSH4 0xC09C923B EQ PUSH2 0x555 JUMPI DUP1 PUSH4 0xCA15C873 EQ PUSH2 0x56A JUMPI PUSH1 0x0 DUP1 REVERT JUMPDEST DUP1 PUSH4 0x8D6D61D9 EQ PUSH2 0x473 JUMPI DUP1 PUSH4 0x9010D07C EQ PUSH2 0x493 JUMPI DUP1 PUSH4 0x91D14854 EQ PUSH2 0x4B3 JUMPI DUP1 PUSH4 0x9BC731FC EQ PUSH2 0x4D3 JUMPI PUSH1 0x0 DUP1 REVERT JUMPDEST DUP1 PUSH4 0x248A9CA3 GT PUSH2 0x19B JUMPI DUP1 PUSH4 0x4FA8F197 GT PUSH2 0x16A JUMPI DUP1 PUSH4 0x4FA8F197 EQ PUSH2 0x3D0 JUMPI DUP1 PUSH4 0x5E6104B1 EQ PUSH2 0x3F0 JUMPI DUP1 PUSH4 0x6853AC26 EQ PUSH2 0x413 JUMPI DUP1 PUSH4 0x6EC14858 EQ PUSH2 0x433 JUMPI DUP1 PUSH4 0x7B4B233C EQ PUSH2 0x453 JUMPI PUSH1 0x0 DUP1 REVERT JUMPDEST DUP1 PUSH4 0x248A9CA3 EQ PUSH2 0x34D JUMPI DUP1 PUSH4 0x2F2FF15D EQ PUSH2 0x37D JUMPI DUP1 PUSH4 0x36568ABE EQ PUSH2 0x39D JUMPI DUP1 PUSH4 0x41D310EC EQ PUSH2 0x3BD JUMPI PUSH1 0x0 DUP1 REVERT JUMPDEST DUP1 PUSH4 0x6FB1A07 GT PUSH2 0x1D7 JUMPI DUP1 PUSH4 0x6FB1A07 EQ PUSH2 0x2B1 JUMPI DUP1 PUSH4 0x975552E EQ PUSH2 0x2E9 JUMPI DUP1 PUSH4 0x186EFAD9 EQ PUSH2 0x30A JUMPI DUP1 PUSH4 0x195DF43E EQ PUSH2 0x33A JUMPI PUSH1 0x0 DUP1 REVERT JUMPDEST DUP1 PUSH4 0x1FFC9A7 EQ PUSH2 0x209 JUMPI DUP1 PUSH4 0x369679E EQ PUSH2 0x24F JUMPI DUP1 PUSH4 0x3ED957F EQ PUSH2 0x271 JUMPI DUP1 PUSH4 0x6EDD763 EQ PUSH2 0x291 JUMPI JUMPDEST PUSH1 0x0 DUP1 REVERT JUMPDEST CALLVALUE DUP1 ISZERO PUSH2 0x215 JUMPI PUSH1 0x0 DUP1 REVERT JUMPDEST POP PUSH2 0x23A PUSH2 0x224 CALLDATASIZE PUSH1 0x4 PUSH2 0x461E JUMP JUMPDEST PUSH1 0x1 PUSH1 0x1 PUSH1 0xE0 SHL SUB NOT AND PUSH4 0x1FFC9A7 PUSH1 0xE0 SHL EQ SWAP1 JUMP JUMPDEST PUSH1 0x40 MLOAD SWAP1 ISZERO ISZERO DUP2 MSTORE PUSH1 0x20 ADD JUMPDEST PUSH1 0x40 MLOAD DUP1 SWAP2 SUB SWAP1 RETURN JUMPDEST CALLVALUE DUP1 ISZERO PUSH2 0x25B JUMPI PUSH1 0x0 DUP1 REVERT JUMPDEST POP PUSH2 0x26F PUSH2 0x26A CALLDATASIZE PUSH1 0x4 PUSH2 0x4660 JUMP JUMPDEST PUSH2 0x69C JUMP JUMPDEST STOP JUMPDEST CALLVALUE DUP1 ISZERO PUSH2 0x27D JUMPI PUSH1 0x0 DUP1 REVERT JUMPDEST POP PUSH2 0x26F PUSH2 0x28C CALLDATASIZE PUSH1 0x4 PUSH2 0x46A2 JUMP JUMPDEST PUSH2 0xE02 JUMP JUMPDEST CALLVALUE DUP1 ISZERO PUSH2 0x29D JUMPI PUSH1 0x0 DUP1 REVERT JUMPDEST POP PUSH2 0x26F PUSH2 0x2AC CALLDATASIZE PUSH1 0x4 PUSH2 0x4717 JUMP JUMPDEST PUSH2 0xE7F JUMP JUMPDEST CALLVALUE DUP1 ISZERO PUSH2 0x2BD JUMPI PUSH1 0x0 DUP1 REVERT JUMPDEST POP PUSH2 0x2D1 PUSH2 0x2CC CALLDATASIZE PUSH1 0x4 PUSH2 0x4734 JUMP JUMPDEST PUSH2 0xEAE JUMP JUMPDEST PUSH1 0x40 MLOAD PUSH1 0x1 PUSH1 0x1 PUSH1 0xA0 SHL SUB SWAP1 SWAP2 AND DUP2 MSTORE PUSH1 0x20 ADD PUSH2 0x246 JUMP JUMPDEST PUSH2 0x2FC PUSH2 0x2F7 CALLDATASIZE PUSH1 0x4 PUSH2 0x474D JUMP JUMPDEST PUSH2 0xF2B JUMP JUMPDEST PUSH1 0x40 MLOAD SWAP1 DUP2 MSTORE PUSH1 0x20 ADD PUSH2 0x246 JUMP JUMPDEST CALLVALUE DUP1 ISZERO PUSH2 0x316 JUMPI PUSH1 0x0 DUP1 REVERT JUMPDEST POP PUSH2 0x31F PUSH2 0x100C JUMP JUMPDEST PUSH1 0x40 DUP1 MLOAD SWAP4 DUP5 MSTORE PUSH1 0x20 DUP5 ADD SWAP3 SWAP1 SWAP3 MSTORE SWAP1 DUP3 ADD MSTORE PUSH1 0x60 ADD PUSH2 0x246 JUMP JUMPDEST PUSH2 0x2FC PUSH2 0x348 CALLDATASIZE PUSH1 0x4 PUSH2 0x474D JUMP JUMPDEST PUSH2 0x1171 JUMP JUMPDEST CALLVALUE DUP1 ISZERO PUSH2 0x359 JUMPI PUSH1 0x0 DUP1 REVERT JUMPDEST POP PUSH2 0x2FC PUSH2 0x368 CALLDATASIZE PUSH1 0x4 PUSH2 0x4734 JUMP JUMPDEST PUSH1 0x0 SWAP1 DUP2 MSTORE PUSH1 0x20 DUP2 SWAP1 MSTORE PUSH1 0x40 SWAP1 KECCAK256 PUSH1 0x1 ADD SLOAD SWAP1 JUMP JUMPDEST CALLVALUE DUP1 ISZERO PUSH2 0x389 JUMPI PUSH1 0x0 DUP1 REVERT JUMPDEST POP PUSH2 0x26F PUSH2 0x398 CALLDATASIZE PUSH1 0x4 PUSH2 0x47A3 JUMP JUMPDEST PUSH2 0x1247 JUMP JUMPDEST CALLVALUE DUP1 ISZERO PUSH2 0x3A9 JUMPI PUSH1 0x0 DUP1 REVERT JUMPDEST POP PUSH2 0x26F PUSH2 0x3B8 CALLDATASIZE PUSH1 0x4 PUSH2 0x47A3 JUMP JUMPDEST PUSH2 0x1272 JUMP JUMPDEST PUSH2 0x2FC PUSH2 0x3CB CALLDATASIZE PUSH1 0x4 PUSH2 0x474D JUMP JUMPDEST PUSH2 0x12F0 JUMP JUMPDEST CALLVALUE DUP1 ISZERO PUSH2 0x3DC JUMPI PUSH1 0x0 DUP1 REVERT JUMPDEST POP PUSH2 0x2FC PUSH2 0x3EB CALLDATASIZE PUSH1 0x4 PUSH2 0x47D3 JUMP JUMPDEST PUSH2 0x13C5 JUMP JUMPDEST CALLVALUE DUP1 ISZERO PUSH2 0x3FC JUMPI PUSH1 0x0 DUP1 REVERT JUMPDEST POP PUSH2 0x405 PUSH2 0x144B JUMP JUMPDEST PUSH1 0x40 MLOAD PUSH2 0x246 SWAP3 SWAP2 SWAP1 PUSH2 0x4867 JUMP JUMPDEST CALLVALUE DUP1 ISZERO PUSH2 0x41F JUMPI PUSH1 0x0 DUP1 REVERT JUMPDEST POP PUSH2 0x2FC PUSH2 0x42E CALLDATASIZE PUSH1 0x4 PUSH2 0x4734 JUMP JUMPDEST PUSH2 0x166F JUMP JUMPDEST CALLVALUE DUP1 ISZERO PUSH2 0x43F JUMPI PUSH1 0x0 DUP1 REVERT JUMPDEST POP PUSH2 0x2FC PUSH2 0x44E CALLDATASIZE PUSH1 0x4 PUSH2 0x47D3 JUMP JUMPDEST PUSH2 0x1827 JUMP JUMPDEST CALLVALUE DUP1 ISZERO PUSH2 0x45F JUMPI PUSH1 0x0 DUP1 REVERT JUMPDEST POP PUSH1 0x6 SLOAD PUSH2 0x2D1 SWAP1 PUSH1 0x1 PUSH1 0x1 PUSH1 0xA0 SHL SUB AND DUP2 JUMP JUMPDEST CALLVALUE DUP1 ISZERO PUSH2 0x47F JUMPI PUSH1 0x0 DUP1 REVERT JUMPDEST POP PUSH2 0x26F PUSH2 0x48E CALLDATASIZE PUSH1 0x4 PUSH2 0x4660 JUMP JUMPDEST PUSH2 0x18A7 JUMP JUMPDEST CALLVALUE DUP1 ISZERO PUSH2 0x49F JUMPI PUSH1 0x0 DUP1 REVERT JUMPDEST POP PUSH2 0x2D1 PUSH2 0x4AE CALLDATASIZE PUSH1 0x4 PUSH2 0x47D3 JUMP JUMPDEST PUSH2 0x1F30 JUMP JUMPDEST CALLVALUE DUP1 ISZERO PUSH2 0x4BF JUMPI PUSH1 0x0 DUP1 REVERT JUMPDEST POP PUSH2 0x23A PUSH2 0x4CE CALLDATASIZE PUSH1 0x4 PUSH2 0x47A3 JUMP JUMPDEST PUSH2 0x1F48 JUMP JUMPDEST CALLVALUE DUP1 ISZERO PUSH2 0x4DF JUMPI PUSH1 0x0 DUP1 REVERT JUMPDEST POP PUSH2 0x26F PUSH2 0x4EE CALLDATASIZE PUSH1 0x4 PUSH2 0x4717 JUMP JUMPDEST PUSH2 0x1F71 JUMP JUMPDEST CALLVALUE DUP1 ISZERO PUSH2 0x4FF JUMPI PUSH1 0x0 DUP1 REVERT JUMPDEST POP PUSH2 0x2FC PUSH2 0x2120 JUMP JUMPDEST CALLVALUE DUP1 ISZERO PUSH2 0x514 JUMPI PUSH1 0x0 DUP1 REVERT JUMPDEST POP PUSH2 0x2FC PUSH2 0x523 CALLDATASIZE PUSH1 0x4 PUSH2 0x4884 JUMP JUMPDEST PUSH2 0x213F JUMP JUMPDEST CALLVALUE DUP1 ISZERO PUSH2 0x534 JUMPI PUSH1 0x0 DUP1 REVERT JUMPDEST POP PUSH2 0x548 PUSH2 0x543 CALLDATASIZE PUSH1 0x4 PUSH2 0x4717 JUMP JUMPDEST PUSH2 0x2211 JUMP JUMPDEST PUSH1 0x40 MLOAD PUSH2 0x246 SWAP2 SWAP1 PUSH2 0x48EB JUMP JUMPDEST CALLVALUE DUP1 ISZERO PUSH2 0x561 JUMPI PUSH1 0x0 DUP1 REVERT JUMPDEST POP PUSH2 0x26F PUSH2 0x2313 JUMP JUMPDEST CALLVALUE DUP1 ISZERO PUSH2 0x576 JUMPI PUSH1 0x0 DUP1 REVERT JUMPDEST POP PUSH2 0x2FC PUSH2 0x585 CALLDATASIZE PUSH1 0x4 PUSH2 0x4734 JUMP JUMPDEST PUSH2 0x2520 JUMP JUMPDEST CALLVALUE DUP1 ISZERO PUSH2 0x596 JUMPI PUSH1 0x0 DUP1 REVERT JUMPDEST POP PUSH2 0x2FC PUSH2 0x5A5 CALLDATASIZE PUSH1 0x4 PUSH2 0x47D3 JUMP JUMPDEST PUSH2 0x2537 JUMP JUMPDEST PUSH2 0x2FC PUSH2 0x5B8 CALLDATASIZE PUSH1 0x4 PUSH2 0x474D JUMP JUMPDEST PUSH2 0x25B6 JUMP JUMPDEST CALLVALUE DUP1 ISZERO PUSH2 0x5C9 JUMPI PUSH1 0x0 DUP1 REVERT JUMPDEST POP PUSH2 0x548 PUSH2 0x5D8 CALLDATASIZE PUSH1 0x4 PUSH2 0x4734 JUMP JUMPDEST PUSH2 0x268C JUMP JUMPDEST CALLVALUE DUP1 ISZERO PUSH2 0x5E9 JUMPI PUSH1 0x0 DUP1 REVERT JUMPDEST POP PUSH2 0x2FC PUSH1 0x0 DUP2 JUMP JUMPDEST CALLVALUE DUP1 ISZERO PUSH2 0x5FE JUMPI PUSH1 0x0 DUP1 REVERT JUMPDEST POP PUSH2 0x26F PUSH2 0x60D CALLDATASIZE PUSH1 0x4 PUSH2 0x47A3 JUMP JUMPDEST PUSH2 0x26A7 JUMP JUMPDEST CALLVALUE DUP1 ISZERO PUSH2 0x61E JUMPI PUSH1 0x0 DUP1 REVERT JUMPDEST POP PUSH2 0x26F PUSH2 0x62D CALLDATASIZE PUSH1 0x4 PUSH2 0x48FA JUMP JUMPDEST PUSH2 0x26CD JUMP JUMPDEST CALLVALUE DUP1 ISZERO PUSH2 0x63E JUMPI PUSH1 0x0 DUP1 REVERT JUMPDEST POP PUSH2 0x647 PUSH2 0x2AEC JUMP JUMPDEST PUSH1 0x40 DUP1 MLOAD SWAP3 DUP4 MSTORE PUSH1 0x20 DUP4 ADD SWAP2 SWAP1 SWAP2 MSTORE ADD PUSH2 0x246 JUMP JUMPDEST CALLVALUE DUP1 ISZERO PUSH2 0x668 JUMPI PUSH1 0x0 DUP1 REVERT JUMPDEST POP PUSH2 0x2FC PUSH2 0x677 CALLDATASIZE PUSH1 0x4 PUSH2 0x47D3 JUMP JUMPDEST PUSH2 0x2C70 JUMP JUMPDEST CALLVALUE DUP1 ISZERO PUSH2 0x688 JUMPI PUSH1 0x0 DUP1 REVERT JUMPDEST POP PUSH2 0x2FC PUSH2 0x697 CALLDATASIZE PUSH1 0x4 PUSH2 0x4884 JUMP JUMPDEST PUSH2 0x2CF0 JUMP JUMPDEST PUSH1 0x1 PUSH1 0x1 PUSH1 0xA0 SHL SUB DUP4 AND PUSH1 0x0 SWAP1 DUP2 MSTORE PUSH1 0x3 PUSH1 0x20 MSTORE PUSH1 0x40 SWAP1 KECCAK256 SLOAD DUP4 SWAP1 ISZERO DUP1 ISZERO SWAP1 PUSH2 0x6DC JUMPI POP PUSH1 0x1 PUSH1 0x1 PUSH1 0xA0 SHL SUB DUP2 AND PUSH1 0x0 DUP1 MLOAD PUSH1 0x20 PUSH2 0x4C46 DUP4 CODECOPY DUP2 MLOAD SWAP2 MSTORE EQ ISZERO JUMPDEST PUSH1 0x40 MLOAD DUP1 PUSH1 0x40 ADD PUSH1 0x40 MSTORE DUP1 PUSH1 0x1 DUP2 MSTORE PUSH1 0x20 ADD PUSH1 0x27 PUSH1 0xF9 SHL DUP2 MSTORE POP SWAP1 PUSH2 0x71D JUMPI PUSH1 0x40 MLOAD PUSH3 0x461BCD PUSH1 0xE5 SHL DUP2 MSTORE PUSH1 0x4 ADD PUSH2 0x714 SWAP2 SWAP1 PUSH2 0x4970 JUMP JUMPDEST PUSH1 0x40 MLOAD DUP1 SWAP2 SUB SWAP1 REVERT JUMPDEST POP PUSH1 0x1 PUSH1 0x1 PUSH1 0xA0 SHL SUB DUP5 AND PUSH1 0x0 DUP2 DUP2 MSTORE PUSH1 0x3 PUSH1 0x20 MSTORE PUSH1 0x40 DUP1 DUP3 KECCAK256 SLOAD SWAP1 MLOAD PUSH4 0x70A08231 PUSH1 0xE0 SHL DUP2 MSTORE ADDRESS PUSH1 0x4 DUP3 ADD MSTORE SWAP1 SWAP3 SWAP1 PUSH4 0x70A08231 SWAP1 PUSH1 0x24 ADD PUSH1 0x20 PUSH1 0x40 MLOAD DUP1 DUP4 SUB DUP2 DUP7 GAS STATICCALL ISZERO DUP1 ISZERO PUSH2 0x773 JUMPI RETURNDATASIZE PUSH1 0x0 DUP1 RETURNDATACOPY RETURNDATASIZE PUSH1 0x0 REVERT JUMPDEST POP POP POP POP PUSH1 0x40 MLOAD RETURNDATASIZE PUSH1 0x1F NOT PUSH1 0x1F DUP3 ADD AND DUP3 ADD DUP1 PUSH1 0x40 MSTORE POP DUP2 ADD SWAP1 PUSH2 0x797 SWAP2 SWAP1 PUSH2 0x49A3 JUMP JUMPDEST SWAP1 POP PUSH1 0x0 PUSH1 0x2 DUP4 DUP2 SLOAD DUP2 LT PUSH2 0x7AE JUMPI PUSH2 0x7AE PUSH2 0x49BC JUMP JUMPDEST PUSH1 0x0 SWAP2 DUP3 MSTORE PUSH1 0x20 SWAP1 SWAP2 KECCAK256 PUSH1 0x1 PUSH1 0x4 SWAP1 SWAP3 MUL ADD ADD SLOAD PUSH2 0x7D5 SWAP1 PUSH1 0x1 PUSH1 0x1 PUSH1 0x70 SHL SUB AND DUP4 PUSH2 0x49E8 JUMP JUMPDEST PUSH1 0x4 DUP1 SLOAD PUSH1 0x40 MLOAD PUSH4 0x70A08231 PUSH1 0xE0 SHL DUP2 MSTORE ADDRESS SWAP3 DUP2 ADD SWAP3 SWAP1 SWAP3 MSTORE SWAP2 SWAP3 POP PUSH1 0x0 SWAP2 SWAP1 PUSH1 0x0 DUP1 MLOAD PUSH1 0x20 PUSH2 0x4C46 DUP4 CODECOPY DUP2 MLOAD SWAP2 MSTORE SWAP1 PUSH4 0x70A08231 SWAP1 PUSH1 0x24 ADD PUSH1 0x20 PUSH1 0x40 MLOAD DUP1 DUP4 SUB DUP2 DUP7 GAS STATICCALL ISZERO DUP1 ISZERO PUSH2 0x82B JUMPI RETURNDATASIZE PUSH1 0x0 DUP1 RETURNDATACOPY RETURNDATASIZE PUSH1 0x0 REVERT JUMPDEST POP POP POP POP PUSH1 0x40 MLOAD RETURNDATASIZE PUSH1 0x1F NOT PUSH1 0x1F DUP3 ADD AND DUP3 ADD DUP1 PUSH1 0x40 MSTORE POP DUP2 ADD SWAP1 PUSH2 0x84F SWAP2 SWAP1 PUSH2 0x49A3 JUMP JUMPDEST PUSH2 0x859 SWAP2 SWAP1 PUSH2 0x49E8 JUMP JUMPDEST PUSH1 0x40 MLOAD PUSH4 0xBD85B039 PUSH1 0xE0 SHL DUP2 MSTORE PUSH1 0x4 DUP2 ADD DUP7 SWAP1 MSTORE SWAP1 SWAP2 POP PUSH1 0x0 SWAP1 PUSH20 0xE94EFBCAA00665C8FAA47E18741DA9F212A15C20 SWAP1 PUSH4 0xBD85B039 SWAP1 PUSH1 0x24 ADD PUSH1 0x20 PUSH1 0x40 MLOAD DUP1 DUP4 SUB DUP2 DUP7 GAS STATICCALL ISZERO DUP1 ISZERO PUSH2 0x8AF JUMPI RETURNDATASIZE PUSH1 0x0 DUP1 RETURNDATACOPY RETURNDATASIZE PUSH1 0x0 REVERT JUMPDEST POP POP POP POP PUSH1 0x40 MLOAD RETURNDATASIZE PUSH1 0x1F NOT PUSH1 0x1F DUP3 ADD AND DUP3 ADD DUP1 PUSH1 0x40 MSTORE POP DUP2 ADD SWAP1 PUSH2 0x8D3 SWAP2 SWAP1 PUSH2 0x49A3 JUMP JUMPDEST SWAP1 POP PUSH1 0x0 DUP2 DUP10 PUSH1 0x2 DUP9 DUP2 SLOAD DUP2 LT PUSH2 0x8EC JUMPI PUSH2 0x8EC PUSH2 0x49BC JUMP JUMPDEST PUSH1 0x0 SWAP2 DUP3 MSTORE PUSH1 0x20 SWAP1 SWAP2 KECCAK256 PUSH1 0x1 PUSH1 0x4 SWAP1 SWAP3 MUL ADD ADD SLOAD PUSH2 0x913 SWAP2 SWAP1 PUSH1 0x1 PUSH1 0x1 PUSH1 0x70 SHL SUB AND PUSH2 0x49FF JUMP JUMPDEST PUSH2 0x91D SWAP2 SWAP1 PUSH2 0x4A34 JUMP JUMPDEST SWAP1 POP PUSH1 0x0 DUP3 DUP11 PUSH1 0x2 DUP10 DUP2 SLOAD DUP2 LT PUSH2 0x936 JUMPI PUSH2 0x936 PUSH2 0x49BC JUMP JUMPDEST PUSH1 0x0 SWAP2 DUP3 MSTORE PUSH1 0x20 SWAP1 SWAP2 KECCAK256 PUSH1 0x4 SWAP1 SWAP2 MUL ADD PUSH1 0x1 ADD SLOAD PUSH2 0x964 SWAP2 SWAP1 PUSH1 0x1 PUSH1 0x70 SHL SWAP1 DIV PUSH1 0x1 PUSH1 0x1 PUSH1 0x70 SHL SUB AND PUSH2 0x49FF JUMP JUMPDEST PUSH2 0x96E SWAP2 SWAP1 PUSH2 0x4A34 JUMP JUMPDEST SWAP1 POP PUSH1 0x0 PUSH1 0x2 DUP9 DUP2 SLOAD DUP2 LT PUSH2 0x985 JUMPI PUSH2 0x985 PUSH2 0x49BC JUMP JUMPDEST PUSH1 0x0 SWAP2 DUP3 MSTORE PUSH1 0x20 DUP3 KECCAK256 PUSH1 0x2 PUSH1 0x4 SWAP1 SWAP3 MUL ADD DUP2 ADD SLOAD DUP2 SLOAD PUSH1 0x1 PUSH1 0x1 PUSH1 0x70 SHL SUB SWAP1 SWAP2 AND SWAP4 POP PUSH2 0xA2A SWAP2 SWAP1 DUP12 SWAP1 DUP2 LT PUSH2 0x9BD JUMPI PUSH2 0x9BD PUSH2 0x49BC JUMP JUMPDEST SWAP1 PUSH1 0x0 MSTORE PUSH1 0x20 PUSH1 0x0 KECCAK256 SWAP1 PUSH1 0x4 MUL ADD PUSH1 0x1 ADD PUSH1 0xE SWAP1 SLOAD SWAP1 PUSH2 0x100 EXP SWAP1 DIV PUSH1 0x1 PUSH1 0x1 PUSH1 0x70 SHL SUB AND PUSH1 0x1 PUSH1 0x1 PUSH1 0x70 SHL SUB AND PUSH1 0x2 DUP12 DUP2 SLOAD DUP2 LT PUSH2 0x9FE JUMPI PUSH2 0x9FE PUSH2 0x49BC JUMP JUMPDEST PUSH1 0x0 SWAP2 DUP3 MSTORE PUSH1 0x20 SWAP1 SWAP2 KECCAK256 PUSH1 0x1 PUSH1 0x4 SWAP1 SWAP3 MUL ADD ADD SLOAD PUSH2 0xA25 SWAP2 SWAP1 PUSH1 0x1 PUSH1 0x1 PUSH1 0x70 SHL SUB AND PUSH2 0x49FF JUMP JUMPDEST PUSH2 0x2E4E JUMP JUMPDEST SWAP1 POP DUP6 PUSH1 0x4 PUSH1 0x0 DUP3 DUP3 SLOAD PUSH2 0xA3E SWAP2 SWAP1 PUSH2 0x4A48 JUMP JUMPDEST SWAP3 POP POP DUP2 SWAP1 SSTORE POP DUP1 PUSH1 0x2 DUP11 DUP2 SLOAD DUP2 LT PUSH2 0xA59 JUMPI PUSH2 0xA59 PUSH2 0x49BC JUMP JUMPDEST SWAP1 PUSH1 0x0 MSTORE PUSH1 0x20 PUSH1 0x0 KECCAK256 SWAP1 PUSH1 0x4 MUL ADD PUSH1 0x2 ADD PUSH1 0x0 PUSH2 0x100 EXP DUP2 SLOAD DUP2 PUSH1 0x1 PUSH1 0x1 PUSH1 0x70 SHL SUB MUL NOT AND SWAP1 DUP4 PUSH1 0x1 PUSH1 0x1 PUSH1 0x70 SHL SUB AND MUL OR SWAP1 SSTORE POP DUP4 DUP8 PUSH1 0x2 DUP12 DUP2 SLOAD DUP2 LT PUSH2 0xAA3 JUMPI PUSH2 0xAA3 PUSH2 0x49BC JUMP JUMPDEST PUSH1 0x0 SWAP2 DUP3 MSTORE PUSH1 0x20 SWAP1 SWAP2 KECCAK256 PUSH1 0x1 PUSH1 0x4 SWAP1 SWAP3 MUL ADD ADD SLOAD PUSH2 0xACA SWAP2 SWAP1 PUSH1 0x1 PUSH1 0x1 PUSH1 0x70 SHL SUB AND PUSH2 0x4A60 JUMP JUMPDEST PUSH2 0xAD4 SWAP2 SWAP1 PUSH2 0x4A8B JUMP JUMPDEST PUSH1 0x2 DUP11 DUP2 SLOAD DUP2 LT PUSH2 0xAE7 JUMPI PUSH2 0xAE7 PUSH2 0x49BC JUMP JUMPDEST SWAP1 PUSH1 0x0 MSTORE PUSH1 0x20 PUSH1 0x0 KECCAK256 SWAP1 PUSH1 0x4 MUL ADD PUSH1 0x1 ADD PUSH1 0x0 PUSH2 0x100 EXP DUP2 SLOAD DUP2 PUSH1 0x1 PUSH1 0x1 PUSH1 0x70 SHL SUB MUL NOT AND SWAP1 DUP4 PUSH1 0x1 PUSH1 0x1 PUSH1 0x70 SHL SUB AND MUL OR SWAP1 SSTORE POP DUP3 DUP7 PUSH1 0x2 DUP12 DUP2 SLOAD DUP2 LT PUSH2 0xB31 JUMPI PUSH2 0xB31 PUSH2 0x49BC JUMP JUMPDEST SWAP1 PUSH1 0x0 MSTORE PUSH1 0x20 PUSH1 0x0 KECCAK256 SWAP1 PUSH1 0x4 MUL ADD PUSH1 0x1 ADD PUSH1 0xE SWAP1 SLOAD SWAP1 PUSH2 0x100 EXP SWAP1 DIV PUSH1 0x1 PUSH1 0x1 PUSH1 0x70 SHL SUB AND PUSH2 0xB60 SWAP2 SWAP1 PUSH2 0x4A60 JUMP JUMPDEST PUSH2 0xB6A SWAP2 SWAP1 PUSH2 0x4A8B JUMP JUMPDEST PUSH1 0x2 DUP11 DUP2 SLOAD DUP2 LT PUSH2 0xB7D JUMPI PUSH2 0xB7D PUSH2 0x49BC JUMP JUMPDEST SWAP1 PUSH1 0x0 MSTORE PUSH1 0x20 PUSH1 0x0 KECCAK256 SWAP1 PUSH1 0x4 MUL ADD PUSH1 0x1 ADD PUSH1 0xE PUSH2 0x100 EXP DUP2 SLOAD DUP2 PUSH1 0x1 PUSH1 0x1 PUSH1 0x70 SHL SUB MUL NOT AND SWAP1 DUP4 PUSH1 0x1 PUSH1 0x1 PUSH1 0x70 SHL SUB AND MUL OR SWAP1 SSTORE POP PUSH20 0xE94EFBCAA00665C8FAA47E18741DA9F212A15C20 PUSH1 0x1 PUSH1 0x1 PUSH1 0xA0 SHL SUB AND PUSH4 0x1B56A5BE ADDRESS DUP12 DUP16 PUSH1 0x40 MLOAD DUP5 PUSH4 0xFFFFFFFF AND PUSH1 0xE0 SHL DUP2 MSTORE PUSH1 0x4 ADD PUSH2 0xBF6 SWAP4 SWAP3 SWAP2 SWAP1 PUSH2 0x4AB3 JUMP JUMPDEST PUSH1 0x0 PUSH1 0x40 MLOAD DUP1 DUP4 SUB DUP2 PUSH1 0x0 DUP8 DUP1 EXTCODESIZE ISZERO DUP1 ISZERO PUSH2 0xC10 JUMPI PUSH1 0x0 DUP1 REVERT JUMPDEST POP GAS CALL ISZERO DUP1 ISZERO PUSH2 0xC24 JUMPI RETURNDATASIZE PUSH1 0x0 DUP1 RETURNDATACOPY RETURNDATASIZE PUSH1 0x0 REVERT JUMPDEST POP POP PUSH1 0x40 MLOAD PUSH4 0x18A8AD87 PUSH1 0xE0 SHL DUP2 MSTORE ADDRESS PUSH1 0x4 DUP3 ADD MSTORE PUSH1 0x24 DUP2 ADD DUP7 SWAP1 MSTORE PUSH1 0x0 DUP1 MLOAD PUSH1 0x20 PUSH2 0x4C46 DUP4 CODECOPY DUP2 MLOAD SWAP2 MSTORE SWAP3 POP PUSH4 0x18A8AD87 SWAP2 POP PUSH1 0x44 ADD PUSH1 0x0 PUSH1 0x40 MLOAD DUP1 DUP4 SUB DUP2 PUSH1 0x0 DUP8 DUP1 EXTCODESIZE ISZERO DUP1 ISZERO PUSH2 0xC75 JUMPI PUSH1 0x0 DUP1 REVERT JUMPDEST POP GAS CALL ISZERO DUP1 ISZERO PUSH2 0xC89 JUMPI RETURNDATASIZE PUSH1 0x0 DUP1 RETURNDATACOPY RETURNDATASIZE PUSH1 0x0 REVERT JUMPDEST POP POP POP POP PUSH1 0x0 PUSH2 0xCAC DUP4 PUSH1 0x1 PUSH1 0x1 PUSH1 0x70 SHL SUB AND DUP4 PUSH1 0x1 PUSH1 0x1 PUSH1 0x70 SHL SUB AND DUP9 PUSH2 0x2EA7 JUMP JUMPDEST SWAP1 POP DUP1 ISZERO PUSH2 0xD2B JUMPI PUSH1 0x6 SLOAD PUSH1 0x40 MLOAD PUSH3 0x4A84CB PUSH1 0xE0 SHL DUP2 MSTORE PUSH20 0xE94EFBCAA00665C8FAA47E18741DA9F212A15C20 SWAP2 PUSH3 0x4A84CB SWAP2 PUSH2 0xCF8 SWAP2 PUSH1 0x1 PUSH1 0x1 PUSH1 0xA0 SHL SUB AND SWAP1 DUP15 SWAP1 DUP7 SWAP1 PUSH1 0x4 ADD PUSH2 0x4AB3 JUMP JUMPDEST PUSH1 0x0 PUSH1 0x40 MLOAD DUP1 DUP4 SUB DUP2 PUSH1 0x0 DUP8 DUP1 EXTCODESIZE ISZERO DUP1 ISZERO PUSH2 0xD12 JUMPI PUSH1 0x0 DUP1 REVERT JUMPDEST POP GAS CALL ISZERO DUP1 ISZERO PUSH2 0xD26 JUMPI RETURNDATASIZE PUSH1 0x0 DUP1 RETURNDATACOPY RETURNDATASIZE PUSH1 0x0 REVERT JUMPDEST POP POP POP POP JUMPDEST POP PUSH2 0xD40 PUSH1 0x1 PUSH1 0x1 PUSH1 0xA0 SHL SUB DUP15 AND DUP13 DUP7 PUSH2 0x2EF9 JUMP JUMPDEST PUSH1 0x40 MLOAD PUSH4 0x70A08231 PUSH1 0xE0 SHL DUP2 MSTORE ADDRESS PUSH1 0x4 DUP3 ADD MSTORE PUSH1 0x0 SWAP1 PUSH1 0x1 PUSH1 0x1 PUSH1 0xA0 SHL SUB DUP16 AND SWAP1 PUSH4 0x70A08231 SWAP1 PUSH1 0x24 ADD PUSH1 0x20 PUSH1 0x40 MLOAD DUP1 DUP4 SUB DUP2 DUP7 GAS STATICCALL ISZERO DUP1 ISZERO PUSH2 0xD87 JUMPI RETURNDATASIZE PUSH1 0x0 DUP1 RETURNDATACOPY RETURNDATASIZE PUSH1 0x0 REVERT JUMPDEST POP POP POP POP PUSH1 0x40 MLOAD RETURNDATASIZE PUSH1 0x1F NOT PUSH1 0x1F DUP3 ADD AND DUP3 ADD DUP1 PUSH1 0x40 MSTORE POP DUP2 ADD SWAP1 PUSH2 0xDAB SWAP2 SWAP1 PUSH2 0x49A3 JUMP JUMPDEST SWAP1 POP DUP9 PUSH2 0xDB8 DUP7 DUP4 PUSH2 0x4A48 JUMP JUMPDEST EQ PUSH1 0x40 MLOAD DUP1 PUSH1 0x40 ADD PUSH1 0x40 MSTORE DUP1 PUSH1 0x1 DUP2 MSTORE PUSH1 0x20 ADD PUSH1 0x23 PUSH1 0xF9 SHL DUP2 MSTORE POP SWAP1 PUSH2 0xDF1 JUMPI PUSH1 0x40 MLOAD PUSH3 0x461BCD PUSH1 0xE5 SHL DUP2 MSTORE PUSH1 0x4 ADD PUSH2 0x714 SWAP2 SWAP1 PUSH2 0x4970 JUMP JUMPDEST POP POP POP POP POP POP POP POP POP POP POP POP POP POP POP JUMP JUMPDEST PUSH1 0x0 PUSH2 0xE0E DUP2 CALLER PUSH2 0x2F5C JUMP JUMPDEST PUSH1 0x0 JUMPDEST DUP3 DUP2 LT ISZERO PUSH2 0xE79 JUMPI PUSH2 0xE67 DUP5 DUP5 DUP4 DUP2 DUP2 LT PUSH2 0xE2E JUMPI PUSH2 0xE2E PUSH2 0x49BC JUMP JUMPDEST SWAP1 POP PUSH1 0x40 MUL ADD PUSH1 0x0 ADD CALLDATALOAD DUP6 DUP6 DUP5 DUP2 DUP2 LT PUSH2 0xE4A JUMPI PUSH2 0xE4A PUSH2 0x49BC JUMP JUMPDEST SWAP1 POP PUSH1 0x40 MUL ADD PUSH1 0x20 ADD PUSH1 0x20 DUP2 ADD SWAP1 PUSH2 0xE62 SWAP2 SWAP1 PUSH2 0x4717 JUMP JUMPDEST PUSH2 0x2FC0 JUMP JUMPDEST DUP1 PUSH2 0xE71 DUP2 PUSH2 0x4AD4 JUMP JUMPDEST SWAP2 POP POP PUSH2 0xE11 JUMP JUMPDEST POP POP POP POP JUMP JUMPDEST PUSH1 0x0 PUSH2 0xE8B DUP2 CALLER PUSH2 0x2F5C JUMP JUMPDEST POP PUSH1 0x6 DUP1 SLOAD PUSH1 0x1 PUSH1 0x1 PUSH1 0xA0 SHL SUB NOT AND PUSH1 0x1 PUSH1 0x1 PUSH1 0xA0 SHL SUB SWAP3 SWAP1 SWAP3 AND SWAP2 SWAP1 SWAP2 OR SWAP1 SSTORE JUMP JUMPDEST PUSH1 0x40 MLOAD PUSH4 0x6FB1A07 PUSH1 0xE0 SHL DUP2 MSTORE PUSH1 0x4 DUP2 ADD DUP3 SWAP1 MSTORE PUSH1 0x0 SWAP1 PUSH20 0xDEF1FAC7BF08F173D286BBBDCBEEADE695129840 SWAP1 PUSH4 0x6FB1A07 SWAP1 PUSH1 0x24 ADD PUSH1 0x20 PUSH1 0x40 MLOAD DUP1 DUP4 SUB DUP2 DUP7 GAS STATICCALL ISZERO DUP1 ISZERO PUSH2 0xF01 JUMPI RETURNDATASIZE PUSH1 0x0 DUP1 RETURNDATACOPY RETURNDATASIZE PUSH1 0x0 REVERT JUMPDEST POP POP POP POP PUSH1 0x40 MLOAD RETURNDATASIZE PUSH1 0x1F NOT PUSH1 0x1F DUP3 ADD AND DUP3 ADD DUP1 PUSH1 0x40 MSTORE POP DUP2 ADD SWAP1 PUSH2 0xF25 SWAP2 SWAP1 PUSH2 0x4AEF JUMP JUMPDEST SWAP3 SWAP2 POP POP JUMP JUMPDEST PUSH1 0x5 SLOAD PUSH1 0x1 PUSH1 0x1 PUSH1 0xA0 SHL SUB AND PUSH1 0x0 DUP2 DUP2 MSTORE PUSH1 0x3 PUSH1 0x20 MSTORE PUSH1 0x40 DUP2 KECCAK256 SLOAD SWAP1 SWAP2 SWAP1 ISZERO DUP1 ISZERO SWAP1 PUSH2 0xF6E JUMPI POP PUSH1 0x1 PUSH1 0x1 PUSH1 0xA0 SHL SUB DUP2 AND PUSH1 0x0 DUP1 MLOAD PUSH1 0x20 PUSH2 0x4C46 DUP4 CODECOPY DUP2 MLOAD SWAP2 MSTORE EQ ISZERO JUMPDEST PUSH1 0x40 MLOAD DUP1 PUSH1 0x40 ADD PUSH1 0x40 MSTORE DUP1 PUSH1 0x1 DUP2 MSTORE PUSH1 0x20 ADD PUSH1 0x27 PUSH1 0xF9 SHL DUP2 MSTORE POP SWAP1 PUSH2 0xFA6 JUMPI PUSH1 0x40 MLOAD PUSH3 0x461BCD PUSH1 0xE5 SHL DUP2 MSTORE PUSH1 0x4 ADD PUSH2 0x714 SWAP2 SWAP1 PUSH2 0x4970 JUMP JUMPDEST POP DUP4 DUP1 TIMESTAMP GT ISZERO PUSH1 0x40 MLOAD DUP1 PUSH1 0x40 ADD PUSH1 0x40 MSTORE DUP1 PUSH1 0x1 DUP2 MSTORE PUSH1 0x20 ADD PUSH1 0x15 PUSH1 0xFA SHL DUP2 MSTORE POP SWAP1 PUSH2 0xFE4 JUMPI PUSH1 0x40 MLOAD PUSH3 0x461BCD PUSH1 0xE5 SHL DUP2 MSTORE PUSH1 0x4 ADD PUSH2 0x714 SWAP2 SWAP1 PUSH2 0x4970 JUMP JUMPDEST POP PUSH1 0x5 SLOAD PUSH2 0x1000 SWAP1 ADDRESS SWAP1 PUSH1 0x1 PUSH1 0x1 PUSH1 0xA0 SHL SUB AND DUP11 DUP11 DUP11 DUP10 PUSH2 0x2FCA JUMP JUMPDEST SWAP9 SWAP8 POP POP POP POP POP POP POP POP JUMP JUMPDEST PUSH1 0x40 MLOAD PUSH4 0x70A08231 PUSH1 0xE0 SHL DUP2 MSTORE ADDRESS PUSH1 0x4 DUP3 ADD MSTORE PUSH1 0x0 SWAP1 DUP2 SWAP1 DUP2 SWAP1 PUSH20 0xCD300DD54345F48BA108DF3D792B6C2DBB17EDD2 SWAP1 PUSH4 0x70A08231 SWAP1 PUSH1 0x24 ADD PUSH1 0x20 PUSH1 0x40 MLOAD DUP1 DUP4 SUB DUP2 DUP7 GAS STATICCALL ISZERO DUP1 ISZERO PUSH2 0x1062 JUMPI RETURNDATASIZE PUSH1 0x0 DUP1 RETURNDATACOPY RETURNDATASIZE PUSH1 0x0 REVERT JUMPDEST POP POP POP POP PUSH1 0x40 MLOAD RETURNDATASIZE PUSH1 0x1F NOT PUSH1 0x1F DUP3 ADD AND DUP3 ADD DUP1 PUSH1 0x40 MSTORE POP DUP2 ADD SWAP1 PUSH2 0x1086 SWAP2 SWAP1 PUSH2 0x49A3 JUMP JUMPDEST PUSH1 0x40 MLOAD PUSH4 0x70A08231 PUSH1 0xE0 SHL DUP2 MSTORE ADDRESS PUSH1 0x4 DUP3 ADD MSTORE PUSH20 0xDE402E9D305BAD483D47BC858CC373C5A040A62D SWAP1 PUSH4 0x70A08231 SWAP1 PUSH1 0x24 ADD PUSH1 0x20 PUSH1 0x40 MLOAD DUP1 DUP4 SUB DUP2 DUP7 GAS STATICCALL ISZERO DUP1 ISZERO PUSH2 0x10D5 JUMPI RETURNDATASIZE PUSH1 0x0 DUP1 RETURNDATACOPY RETURNDATASIZE PUSH1 0x0 REVERT JUMPDEST POP POP POP POP PUSH1 0x40 MLOAD RETURNDATASIZE PUSH1 0x1F NOT PUSH1 0x1F DUP3 ADD AND DUP3 ADD DUP1 PUSH1 0x40 MSTORE POP DUP2 ADD SWAP1 PUSH2 0x10F9 SWAP2 SWAP1 PUSH2 0x49A3 JUMP JUMPDEST PUSH1 0x40 MLOAD PUSH4 0x70A08231 PUSH1 0xE0 SHL DUP2 MSTORE ADDRESS PUSH1 0x4 DUP3 ADD MSTORE PUSH1 0x0 DUP1 MLOAD PUSH1 0x20 PUSH2 0x4C46 DUP4 CODECOPY DUP2 MLOAD SWAP2 MSTORE SWAP1 PUSH4 0x70A08231 SWAP1 PUSH1 0x24 ADD PUSH1 0x20 PUSH1 0x40 MLOAD DUP1 DUP4 SUB DUP2 DUP7 GAS STATICCALL ISZERO DUP1 ISZERO PUSH2 0x1142 JUMPI RETURNDATASIZE PUSH1 0x0 DUP1 RETURNDATACOPY RETURNDATASIZE PUSH1 0x0 REVERT JUMPDEST POP POP POP POP PUSH1 0x40 MLOAD RETURNDATASIZE PUSH1 0x1F NOT PUSH1 0x1F DUP3 ADD AND DUP3 ADD DUP1 PUSH1 0x40 MSTORE POP DUP2 ADD SWAP1 PUSH2 0x1166 SWAP2 SWAP1 PUSH2 0x49A3 JUMP JUMPDEST SWAP3 POP SWAP3 POP SWAP3 POP SWAP1 SWAP2 SWAP3 JUMP JUMPDEST PUSH1 0x5 SLOAD PUSH1 0x1 PUSH1 0x1 PUSH1 0xA0 SHL SUB AND PUSH1 0x0 DUP2 DUP2 MSTORE PUSH1 0x3 PUSH1 0x20 MSTORE PUSH1 0x40 DUP2 KECCAK256 SLOAD SWAP1 SWAP2 SWAP1 ISZERO DUP1 ISZERO SWAP1 PUSH2 0x11B4 JUMPI POP PUSH1 0x1 PUSH1 0x1 PUSH1 0xA0 SHL SUB DUP2 AND PUSH1 0x0 DUP1 MLOAD PUSH1 0x20 PUSH2 0x4C46 DUP4 CODECOPY DUP2 MLOAD SWAP2 MSTORE EQ ISZERO JUMPDEST PUSH1 0x40 MLOAD DUP1 PUSH1 0x40 ADD PUSH1 0x40 MSTORE DUP1 PUSH1 0x1 DUP2 MSTORE PUSH1 0x20 ADD PUSH1 0x27 PUSH1 0xF9 SHL DUP2 MSTORE POP SWAP1 PUSH2 0x11EC JUMPI PUSH1 0x40 MLOAD PUSH3 0x461BCD PUSH1 0xE5 SHL DUP2 MSTORE PUSH1 0x4 ADD PUSH2 0x714 SWAP2 SWAP1 PUSH2 0x4970 JUMP JUMPDEST POP DUP4 DUP1 TIMESTAMP GT ISZERO PUSH1 0x40 MLOAD DUP1 PUSH1 0x40 ADD PUSH1 0x40 MSTORE DUP1 PUSH1 0x1 DUP2 MSTORE PUSH1 0x20 ADD PUSH1 0x15 PUSH1 0xFA SHL DUP2 MSTORE POP SWAP1 PUSH2 0x122A JUMPI PUSH1 0x40 MLOAD PUSH3 0x461BCD PUSH1 0xE5 SHL DUP2 MSTORE PUSH1 0x4 ADD PUSH2 0x714 SWAP2 SWAP1 PUSH2 0x4970 JUMP JUMPDEST POP PUSH1 0x5 SLOAD PUSH2 0x1000 SWAP1 ADDRESS SWAP1 DUP11 SWAP1 PUSH1 0x1 PUSH1 0x1 PUSH1 0xA0 SHL SUB AND DUP11 DUP11 DUP10 PUSH2 0x3296 JUMP JUMPDEST PUSH1 0x0 DUP3 DUP2 MSTORE PUSH1 0x20 DUP2 SWAP1 MSTORE PUSH1 0x40 SWAP1 KECCAK256 PUSH1 0x1 ADD SLOAD PUSH2 0x1263 DUP2 CALLER PUSH2 0x2F5C JUMP JUMPDEST PUSH2 0x126D DUP4 DUP4 PUSH2 0x3386 JUMP JUMPDEST POP POP POP JUMP JUMPDEST PUSH1 0x1 PUSH1 0x1 PUSH1 0xA0 SHL SUB DUP2 AND CALLER EQ PUSH2 0x12E2 JUMPI PUSH1 0x40 MLOAD PUSH3 0x461BCD PUSH1 0xE5 SHL DUP2 MSTORE PUSH1 0x20 PUSH1 0x4 DUP3 ADD MSTORE PUSH1 0x2F PUSH1 0x24 DUP3 ADD MSTORE PUSH32 0x416363657373436F6E74726F6C3A2063616E206F6E6C792072656E6F756E6365 PUSH1 0x44 DUP3 ADD MSTORE PUSH15 0x103937B632B9903337B91039B2B633 PUSH1 0x89 SHL PUSH1 0x64 DUP3 ADD MSTORE PUSH1 0x84 ADD PUSH2 0x714 JUMP JUMPDEST PUSH2 0x12EC DUP3 DUP3 PUSH2 0x33A8 JUMP JUMPDEST POP POP JUMP JUMPDEST PUSH1 0x5 SLOAD PUSH1 0x1 PUSH1 0x1 PUSH1 0xA0 SHL SUB AND PUSH1 0x0 DUP2 DUP2 MSTORE PUSH1 0x3 PUSH1 0x20 MSTORE PUSH1 0x40 DUP2 KECCAK256 SLOAD SWAP1 SWAP2 SWAP1 ISZERO DUP1 ISZERO SWAP1 PUSH2 0x1333 JUMPI POP PUSH1 0x1 PUSH1 0x1 PUSH1 0xA0 SHL SUB DUP2 AND PUSH1 0x0 DUP1 MLOAD PUSH1 0x20 PUSH2 0x4C46 DUP4 CODECOPY DUP2 MLOAD SWAP2 MSTORE EQ ISZERO JUMPDEST PUSH1 0x40 MLOAD DUP1 PUSH1 0x40 ADD PUSH1 0x40 MSTORE DUP1 PUSH1 0x1 DUP2 MSTORE PUSH1 0x20 ADD PUSH1 0x27 PUSH1 0xF9 SHL DUP2 MSTORE POP SWAP1 PUSH2 0x136B JUMPI PUSH1 0x40 MLOAD PUSH3 0x461BCD PUSH1 0xE5 SHL DUP2 MSTORE PUSH1 0x4 ADD PUSH2 0x714 SWAP2 SWAP1 PUSH2 0x4970 JUMP JUMPDEST POP DUP4 DUP1 TIMESTAMP GT ISZERO PUSH1 0x40 MLOAD DUP1 PUSH1 0x40 ADD PUSH1 0x40 MSTORE DUP1 PUSH1 0x1 DUP2 MSTORE PUSH1 0x20 ADD PUSH1 0x15 PUSH1 0xFA SHL DUP2 MSTORE POP SWAP1 PUSH2 0x13A9 JUMPI PUSH1 0x40 MLOAD PUSH3 0x461BCD PUSH1 0xE5 SHL DUP2 MSTORE PUSH1 0x4 ADD PUSH2 0x714 SWAP2 SWAP1 PUSH2 0x4970 JUMP JUMPDEST POP PUSH1 0x5 SLOAD PUSH2 0x1000 SWAP1 ADDRESS SWAP1 PUSH1 0x1 PUSH1 0x1 PUSH1 0xA0 SHL SUB AND DUP11 DUP11 DUP11 DUP10 PUSH2 0x3296 JUMP JUMPDEST PUSH1 0x0 PUSH2 0x1444 DUP3 PUSH1 0x2 DUP6 DUP2 SLOAD DUP2 LT PUSH2 0x13DE JUMPI PUSH2 0x13DE PUSH2 0x49BC JUMP JUMPDEST PUSH1 0x0 SWAP2 DUP3 MSTORE PUSH1 0x20 SWAP1 SWAP2 KECCAK256 PUSH1 0x1 PUSH1 0x4 SWAP1 SWAP3 MUL ADD ADD SLOAD PUSH1 0x2 DUP1 SLOAD PUSH1 0x1 PUSH1 0x1 PUSH1 0x70 SHL SUB SWAP1 SWAP3 AND SWAP2 DUP8 SWAP1 DUP2 LT PUSH2 0x1412 JUMPI PUSH2 0x1412 PUSH2 0x49BC JUMP JUMPDEST PUSH1 0x0 SWAP2 DUP3 MSTORE PUSH1 0x20 SWAP1 SWAP2 KECCAK256 PUSH1 0x4 SWAP1 SWAP2 MUL ADD PUSH1 0x1 ADD SLOAD PUSH1 0x1 PUSH1 0x70 SHL SWAP1 DIV PUSH1 0x1 PUSH1 0x1 PUSH1 0x70 SHL SUB AND PUSH2 0x143F DUP8 PUSH2 0x166F JUMP JUMPDEST PUSH2 0x33CA JUMP JUMPDEST SWAP4 SWAP3 POP POP POP JUMP JUMPDEST PUSH2 0x1453 PUSH2 0x4519 JUMP JUMPDEST PUSH2 0x145B PUSH2 0x4519 JUMP JUMPDEST PUSH1 0x3 PUSH1 0x20 MSTORE PUSH32 0x152B26DB60BC4892711D3DD42317109FB33CAA41EFEDF600DDCB4C1DDB9F2AD7 SLOAD PUSH20 0xDE402E9D305BAD483D47BC858CC373C5A040A62D PUSH1 0x0 MSTORE PUSH32 0xA2BD018ED947F59F9909A33EEF41337A0BA625658072B40E2CD24448D2BBCBD3 SLOAD PUSH1 0x2 DUP1 SLOAD DUP4 SWAP1 DUP2 LT PUSH2 0x14D0 JUMPI PUSH2 0x14D0 PUSH2 0x49BC JUMP JUMPDEST SWAP1 PUSH1 0x0 MSTORE PUSH1 0x20 PUSH1 0x0 KECCAK256 SWAP1 PUSH1 0x4 MUL ADD PUSH1 0x2 DUP3 DUP2 SLOAD DUP2 LT PUSH2 0x14F1 JUMPI PUSH2 0x14F1 PUSH2 0x49BC JUMP JUMPDEST PUSH1 0x0 SWAP2 DUP3 MSTORE PUSH1 0x20 SWAP2 DUP3 SWAP1 KECCAK256 PUSH1 0x40 DUP1 MLOAD PUSH1 0xA0 DUP2 ADD DUP3 MSTORE DUP6 SLOAD PUSH1 0x1 PUSH1 0x1 PUSH1 0xA0 SHL SUB AND DUP2 MSTORE PUSH1 0x1 DUP7 ADD SLOAD PUSH1 0x1 PUSH1 0x1 PUSH1 0x70 SHL SUB DUP1 DUP3 AND SWAP7 DUP4 ADD SWAP7 SWAP1 SWAP7 MSTORE PUSH1 0x1 PUSH1 0x70 SHL SWAP1 DIV DUP6 AND DUP2 DUP4 ADD MSTORE PUSH1 0x2 DUP7 ADD SLOAD SWAP1 SWAP5 AND PUSH1 0x60 DUP6 ADD MSTORE DUP1 MLOAD PUSH2 0x100 DUP2 ADD SWAP1 SWAP2 MSTORE PUSH1 0x4 SWAP1 SWAP3 MUL ADD SWAP2 SWAP1 DUP4 SWAP1 PUSH1 0x80 DUP4 ADD SWAP1 PUSH1 0x3 DUP4 ADD PUSH1 0x8 DUP3 DUP3 DUP3 PUSH1 0x20 MUL DUP3 ADD SWAP2 PUSH1 0x0 SWAP1 JUMPDEST DUP3 DUP3 SWAP1 SLOAD SWAP1 PUSH2 0x100 EXP SWAP1 DIV PUSH4 0xFFFFFFFF AND PUSH4 0xFFFFFFFF AND DUP2 MSTORE PUSH1 0x20 ADD SWAP1 PUSH1 0x4 ADD SWAP1 PUSH1 0x20 DUP3 PUSH1 0x3 ADD DIV SWAP3 DUP4 ADD SWAP3 PUSH1 0x1 SUB DUP3 MUL SWAP2 POP DUP1 DUP5 GT PUSH2 0x1570 JUMPI POP POP POP SWAP3 SWAP1 SWAP4 MSTORE POP POP PUSH1 0x40 DUP1 MLOAD PUSH1 0xA0 DUP2 ADD DUP3 MSTORE DUP6 SLOAD PUSH1 0x1 PUSH1 0x1 PUSH1 0xA0 SHL SUB AND DUP2 MSTORE PUSH1 0x1 DUP7 ADD SLOAD PUSH1 0x1 PUSH1 0x1 PUSH1 0x70 SHL SUB DUP1 DUP3 AND PUSH1 0x20 DUP5 ADD MSTORE PUSH1 0x1 PUSH1 0x70 SHL SWAP1 SWAP2 DIV DUP2 AND DUP3 DUP5 ADD MSTORE PUSH1 0x2 DUP8 ADD SLOAD AND PUSH1 0x60 DUP3 ADD MSTORE DUP2 MLOAD PUSH2 0x100 DUP2 ADD SWAP3 DUP4 SWAP1 MSTORE SWAP5 SWAP7 POP SWAP4 DUP6 SWAP4 POP PUSH1 0x80 DUP6 ADD SWAP3 POP SWAP1 PUSH1 0x3 DUP5 ADD SWAP1 PUSH1 0x8 SWAP1 DUP3 PUSH1 0x0 DUP6 JUMPDEST DUP3 DUP3 SWAP1 SLOAD SWAP1 PUSH2 0x100 EXP SWAP1 DIV PUSH4 0xFFFFFFFF AND PUSH4 0xFFFFFFFF AND DUP2 MSTORE PUSH1 0x20 ADD SWAP1 PUSH1 0x4 ADD SWAP1 PUSH1 0x20 DUP3 PUSH1 0x3 ADD DIV SWAP3 DUP4 ADD SWAP3 PUSH1 0x1 SUB DUP3 MUL SWAP2 POP DUP1 DUP5 GT PUSH2 0x161E JUMPI SWAP1 POP POP POP POP POP POP DUP2 MSTORE POP POP SWAP1 POP SWAP4 POP SWAP4 POP POP POP SWAP1 SWAP2 JUMP JUMPDEST PUSH1 0x0 DUP1 PUSH2 0x167A PUSH2 0x2120 JUMP JUMPDEST SWAP1 POP PUSH1 0x0 PUSH1 0x8 PUSH2 0x168B DUP4 PUSH1 0x1 PUSH2 0x4A48 JUMP JUMPDEST PUSH2 0x1695 SWAP2 SWAP1 PUSH2 0x4B0C JUMP JUMPDEST SWAP1 POP PUSH1 0x0 DUP1 JUMPDEST PUSH1 0x8 DUP2 LT ISZERO PUSH2 0x1732 JUMPI DUP4 DUP2 EQ DUP1 PUSH2 0x16B1 JUMPI POP DUP3 DUP2 EQ JUMPDEST ISZERO PUSH2 0x16BB JUMPI PUSH2 0x1720 JUMP JUMPDEST PUSH1 0x2 DUP7 DUP2 SLOAD DUP2 LT PUSH2 0x16CE JUMPI PUSH2 0x16CE PUSH2 0x49BC JUMP JUMPDEST SWAP1 PUSH1 0x0 MSTORE PUSH1 0x20 PUSH1 0x0 KECCAK256 SWAP1 PUSH1 0x4 MUL ADD PUSH1 0x3 ADD DUP2 PUSH1 0x8 DUP2 LT PUSH2 0x16F0 JUMPI PUSH2 0x16F0 PUSH2 0x49BC JUMP JUMPDEST PUSH1 0x8 SWAP2 DUP3 DUP3 DIV ADD SWAP2 SWAP1 MOD PUSH1 0x4 MUL SWAP1 SLOAD SWAP1 PUSH2 0x100 EXP SWAP1 DIV PUSH4 0xFFFFFFFF AND PUSH4 0xFFFFFFFF AND DUP3 PUSH2 0x171D SWAP2 SWAP1 PUSH2 0x4A48 JUMP JUMPDEST SWAP2 POP JUMPDEST DUP1 PUSH2 0x172A DUP2 PUSH2 0x4AD4 JUMP JUMPDEST SWAP2 POP POP PUSH2 0x169B JUMP JUMPDEST POP PUSH1 0x0 PUSH2 0x1747 DUP3 PUSH8 0xDE0B6B3A7640000 PUSH2 0x49FF JUMP JUMPDEST PUSH2 0x1753 SWAP1 PUSH2 0x3E8 PUSH2 0x49FF JUMP JUMPDEST SWAP1 POP PUSH1 0x0 PUSH1 0x2 DUP8 DUP2 SLOAD DUP2 LT PUSH2 0x176A JUMPI PUSH2 0x176A PUSH2 0x49BC JUMP JUMPDEST PUSH1 0x0 SWAP2 DUP3 MSTORE PUSH1 0x20 SWAP1 SWAP2 KECCAK256 PUSH1 0x4 SWAP1 SWAP2 MUL ADD PUSH1 0x1 ADD SLOAD PUSH2 0x1799 SWAP1 PUSH1 0x1 PUSH1 0x70 SHL SWAP1 DIV PUSH1 0x1 PUSH1 0x1 PUSH1 0x70 SHL SUB AND PUSH1 0x2 PUSH2 0x4B20 JUMP JUMPDEST PUSH2 0x17A4 SWAP1 PUSH1 0x96 PUSH2 0x4B20 JUMP JUMPDEST PUSH1 0x1 PUSH1 0x1 PUSH1 0x70 SHL SUB AND SWAP1 POP DUP1 DUP3 GT PUSH2 0x17C0 JUMPI PUSH2 0x26AC SWAP6 POP PUSH2 0x181D JUMP JUMPDEST DUP2 DUP2 LT DUP1 ISZERO PUSH2 0x17D8 JUMPI POP PUSH2 0x17D5 DUP2 PUSH1 0x64 PUSH2 0x49FF JUMP JUMPDEST DUP3 LT JUMPDEST ISZERO PUSH2 0x1805 JUMPI DUP1 PUSH2 0x17E8 DUP2 DUP5 PUSH2 0x49E8 JUMP JUMPDEST PUSH2 0x17F2 SWAP2 SWAP1 PUSH2 0x4A34 JUMP JUMPDEST PUSH2 0x17FE SWAP1 PUSH2 0x26AC PUSH2 0x4A48 JUMP JUMPDEST SWAP6 POP PUSH2 0x181D JUMP JUMPDEST PUSH2 0x1810 DUP2 PUSH1 0x64 PUSH2 0x49FF JUMP JUMPDEST DUP3 GT ISZERO PUSH2 0x181D JUMPI PUSH2 0x270F SWAP6 POP JUMPDEST POP POP POP POP POP SWAP2 SWAP1 POP JUMP JUMPDEST PUSH1 0x0 PUSH2 0x1444 DUP3 PUSH1 0x2 DUP6 DUP2 SLOAD DUP2 LT PUSH2 0x1840 JUMPI PUSH2 0x1840 PUSH2 0x49BC JUMP JUMPDEST SWAP1 PUSH1 0x0 MSTORE PUSH1 0x20 PUSH1 0x0 KECCAK256 SWAP1 PUSH1 0x4 MUL ADD PUSH1 0x1 ADD PUSH1 0xE SWAP1 SLOAD SWAP1 PUSH2 0x100 EXP SWAP1 DIV PUSH1 0x1 PUSH1 0x1 PUSH1 0x70 SHL SUB AND PUSH1 0x1 PUSH1 0x1 PUSH1 0x70 SHL SUB AND PUSH1 0x2 DUP7 DUP2 SLOAD DUP2 LT PUSH2 0x1881 JUMPI PUSH2 0x1881 PUSH2 0x49BC JUMP JUMPDEST PUSH1 0x0 SWAP2 DUP3 MSTORE PUSH1 0x20 SWAP1 SWAP2 KECCAK256 PUSH1 0x1 PUSH1 0x4 SWAP1 SWAP3 MUL ADD ADD SLOAD PUSH1 0x1 PUSH1 0x1 PUSH1 0x70 SHL SUB AND PUSH2 0x143F DUP8 PUSH2 0x166F JUMP JUMPDEST PUSH1 0x1 PUSH1 0x1 PUSH1 0xA0 SHL SUB DUP4 AND PUSH1 0x0 SWAP1 DUP2 MSTORE PUSH1 0x3 PUSH1 0x20 MSTORE PUSH1 0x40 SWAP1 KECCAK256 SLOAD DUP4 SWAP1 ISZERO DUP1 ISZERO SWAP1 PUSH2 0x18E7 JUMPI POP PUSH1 0x1 PUSH1 0x1 PUSH1 0xA0 SHL SUB DUP2 AND PUSH1 0x0 DUP1 MLOAD PUSH1 0x20 PUSH2 0x4C46 DUP4 CODECOPY DUP2 MLOAD SWAP2 MSTORE EQ ISZERO JUMPDEST PUSH1 0x40 MLOAD DUP1 PUSH1 0x40 ADD PUSH1 0x40 MSTORE DUP1 PUSH1 0x1 DUP2 MSTORE PUSH1 0x20 ADD PUSH1 0x27 PUSH1 0xF9 SHL DUP2 MSTORE POP SWAP1 PUSH2 0x191F JUMPI PUSH1 0x40 MLOAD PUSH3 0x461BCD PUSH1 0xE5 SHL DUP2 MSTORE PUSH1 0x4 ADD PUSH2 0x714 SWAP2 SWAP1 PUSH2 0x4970 JUMP JUMPDEST POP PUSH1 0x1 PUSH1 0x1 PUSH1 0xA0 SHL SUB DUP5 AND PUSH1 0x0 DUP2 DUP2 MSTORE PUSH1 0x3 PUSH1 0x20 MSTORE PUSH1 0x40 SWAP1 KECCAK256 SLOAD SWAP1 PUSH2 0x1946 SWAP1 CALLER ADDRESS DUP8 PUSH2 0x3417 JUMP JUMPDEST PUSH1 0x40 MLOAD PUSH4 0x70A08231 PUSH1 0xE0 SHL DUP2 MSTORE ADDRESS PUSH1 0x4 DUP3 ADD MSTORE PUSH1 0x0 SWAP1 PUSH1 0x1 PUSH1 0x1 PUSH1 0xA0 SHL SUB DUP8 AND SWAP1 PUSH4 0x70A08231 SWAP1 PUSH1 0x24 ADD PUSH1 0x20 PUSH1 0x40 MLOAD DUP1 DUP4 SUB DUP2 DUP7 GAS STATICCALL ISZERO DUP1 ISZERO PUSH2 0x198D JUMPI RETURNDATASIZE PUSH1 0x0 DUP1 RETURNDATACOPY RETURNDATASIZE PUSH1 0x0 REVERT JUMPDEST POP POP POP POP PUSH1 0x40 MLOAD RETURNDATASIZE PUSH1 0x1F NOT PUSH1 0x1F DUP3 ADD AND DUP3 ADD DUP1 PUSH1 0x40 MSTORE POP DUP2 ADD SWAP1 PUSH2 0x19B1 SWAP2 SWAP1 PUSH2 0x49A3 JUMP JUMPDEST SWAP1 POP PUSH1 0x2 DUP3 DUP2 SLOAD DUP2 LT PUSH2 0x19C6 JUMPI PUSH2 0x19C6 PUSH2 0x49BC JUMP JUMPDEST PUSH1 0x0 SWAP2 DUP3 MSTORE PUSH1 0x20 SWAP1 SWAP2 KECCAK256 PUSH1 0x1 PUSH1 0x4 SWAP1 SWAP3 MUL ADD ADD SLOAD PUSH2 0x19ED SWAP1 PUSH1 0x1 PUSH1 0x1 PUSH1 0x70 SHL SUB AND DUP3 PUSH2 0x49E8 JUMP JUMPDEST SWAP5 POP PUSH1 0x0 DUP6 GT PUSH1 0x40 MLOAD DUP1 PUSH1 0x40 ADD PUSH1 0x40 MSTORE DUP1 PUSH1 0x1 DUP2 MSTORE PUSH1 0x20 ADD PUSH1 0x2D PUSH1 0xF9 SHL DUP2 MSTORE POP SWAP1 PUSH2 0x1A2B JUMPI PUSH1 0x40 MLOAD PUSH3 0x461BCD PUSH1 0xE5 SHL DUP2 MSTORE PUSH1 0x4 ADD PUSH2 0x714 SWAP2 SWAP1 PUSH2 0x4970 JUMP JUMPDEST POP PUSH1 0x40 MLOAD PUSH4 0x70A08231 PUSH1 0xE0 SHL DUP2 MSTORE ADDRESS PUSH1 0x4 DUP3 ADD MSTORE PUSH1 0x0 SWAP1 PUSH1 0x0 DUP1 MLOAD PUSH1 0x20 PUSH2 0x4C46 DUP4 CODECOPY DUP2 MLOAD SWAP2 MSTORE SWAP1 PUSH4 0x70A08231 SWAP1 PUSH1 0x24 ADD PUSH1 0x20 PUSH1 0x40 MLOAD DUP1 DUP4 SUB DUP2 DUP7 GAS STATICCALL ISZERO DUP1 ISZERO PUSH2 0x1A78 JUMPI RETURNDATASIZE PUSH1 0x0 DUP1 RETURNDATACOPY RETURNDATASIZE PUSH1 0x0 REVERT JUMPDEST POP POP POP POP PUSH1 0x40 MLOAD RETURNDATASIZE PUSH1 0x1F NOT PUSH1 0x1F DUP3 ADD AND DUP3 ADD DUP1 PUSH1 0x40 MSTORE POP DUP2 ADD SWAP1 PUSH2 0x1A9C SWAP2 SWAP1 PUSH2 0x49A3 JUMP JUMPDEST SWAP1 POP PUSH1 0x0 PUSH1 0x4 SLOAD DUP3 PUSH2 0x1AAE SWAP2 SWAP1 PUSH2 0x49E8 JUMP JUMPDEST SWAP1 POP PUSH1 0x0 DUP2 PUSH1 0x2 DUP7 DUP2 SLOAD DUP2 LT PUSH2 0x1AC6 JUMPI PUSH2 0x1AC6 PUSH2 0x49BC JUMP JUMPDEST PUSH1 0x0 SWAP2 DUP3 MSTORE PUSH1 0x20 SWAP1 SWAP2 KECCAK256 PUSH1 0x1 PUSH1 0x4 SWAP1 SWAP3 MUL ADD ADD SLOAD PUSH1 0x2 DUP1 SLOAD PUSH1 0x1 PUSH1 0x1 PUSH1 0x70 SHL SUB SWAP1 SWAP3 AND SWAP2 DUP9 SWAP1 DUP2 LT PUSH2 0x1AFA JUMPI PUSH2 0x1AFA PUSH2 0x49BC JUMP JUMPDEST PUSH1 0x0 SWAP2 DUP3 MSTORE PUSH1 0x20 SWAP1 SWAP2 KECCAK256 PUSH1 0x4 SWAP1 SWAP2 MUL ADD PUSH1 0x1 ADD SLOAD PUSH2 0x1B28 SWAP1 PUSH1 0x1 PUSH1 0x70 SHL SWAP1 DIV PUSH1 0x1 PUSH1 0x1 PUSH1 0x70 SHL SUB AND DUP12 PUSH2 0x49FF JUMP JUMPDEST PUSH2 0x1B32 SWAP2 SWAP1 PUSH2 0x4A34 JUMP JUMPDEST PUSH2 0x1B3C SWAP2 SWAP1 PUSH2 0x49E8 JUMP JUMPDEST SWAP1 POP PUSH1 0x0 PUSH1 0x2 DUP7 DUP2 SLOAD DUP2 LT PUSH2 0x1B53 JUMPI PUSH2 0x1B53 PUSH2 0x49BC JUMP JUMPDEST PUSH1 0x0 SWAP2 DUP3 MSTORE PUSH1 0x20 DUP3 KECCAK256 PUSH1 0x2 PUSH1 0x4 SWAP1 SWAP3 MUL ADD DUP2 ADD SLOAD DUP2 SLOAD PUSH1 0x1 PUSH1 0x1 PUSH1 0x70 SHL SUB SWAP1 SWAP2 AND SWAP4 POP PUSH2 0x1BCC SWAP2 SWAP1 DUP10 SWAP1 DUP2 LT PUSH2 0x1B8B JUMPI PUSH2 0x1B8B PUSH2 0x49BC JUMP JUMPDEST SWAP1 PUSH1 0x0 MSTORE PUSH1 0x20 PUSH1 0x0 KECCAK256 SWAP1 PUSH1 0x4 MUL ADD PUSH1 0x1 ADD PUSH1 0xE SWAP1 SLOAD SWAP1 PUSH2 0x100 EXP SWAP1 DIV PUSH1 0x1 PUSH1 0x1 PUSH1 0x70 SHL SUB AND PUSH1 0x1 PUSH1 0x1 PUSH1 0x70 SHL SUB AND PUSH1 0x2 DUP10 DUP2 SLOAD DUP2 LT PUSH2 0x9FE JUMPI PUSH2 0x9FE PUSH2 0x49BC JUMP JUMPDEST SWAP1 POP PUSH2 0x1BD8 DUP4 DUP6 PUSH2 0x4A48 JUMP JUMPDEST PUSH1 0x4 PUSH1 0x0 DUP3 DUP3 SLOAD PUSH2 0x1BE9 SWAP2 SWAP1 PUSH2 0x4A48 JUMP JUMPDEST SWAP3 POP POP DUP2 SWAP1 SSTORE POP DUP1 PUSH1 0x2 DUP9 DUP2 SLOAD DUP2 LT PUSH2 0x1C04 JUMPI PUSH2 0x1C04 PUSH2 0x49BC JUMP JUMPDEST SWAP1 PUSH1 0x0 MSTORE PUSH1 0x20 PUSH1 0x0 KECCAK256 SWAP1 PUSH1 0x4 MUL ADD PUSH1 0x2 ADD PUSH1 0x0 PUSH2 0x100 EXP DUP2 SLOAD DUP2 PUSH1 0x1 PUSH1 0x1 PUSH1 0x70 SHL SUB MUL NOT AND SWAP1 DUP4 PUSH1 0x1 PUSH1 0x1 PUSH1 0x70 SHL SUB AND MUL OR SWAP1 SSTORE POP DUP6 PUSH1 0x2 DUP9 DUP2 SLOAD DUP2 LT PUSH2 0x1C4D JUMPI PUSH2 0x1C4D PUSH2 0x49BC JUMP JUMPDEST PUSH1 0x0 SWAP2 DUP3 MSTORE PUSH1 0x20 SWAP1 SWAP2 KECCAK256 PUSH1 0x4 SWAP1 SWAP2 MUL ADD PUSH1 0x1 ADD DUP1 SLOAD PUSH1 0x1 PUSH1 0x1 PUSH1 0x70 SHL SUB NOT AND PUSH1 0x1 PUSH1 0x1 PUSH1 0x70 SHL SUB SWAP3 SWAP1 SWAP3 AND SWAP2 SWAP1 SWAP2 OR SWAP1 SSTORE PUSH2 0x1C88 DUP4 DUP6 PUSH2 0x4A48 JUMP JUMPDEST PUSH1 0x2 DUP9 DUP2 SLOAD DUP2 LT PUSH2 0x1C9B JUMPI PUSH2 0x1C9B PUSH2 0x49BC JUMP JUMPDEST SWAP1 PUSH1 0x0 MSTORE PUSH1 0x20 PUSH1 0x0 KECCAK256 SWAP1 PUSH1 0x4 MUL ADD PUSH1 0x1 ADD PUSH1 0xE DUP3 DUP3 DUP3 SWAP1 SLOAD SWAP1 PUSH2 0x100 EXP SWAP1 DIV PUSH1 0x1 PUSH1 0x1 PUSH1 0x70 SHL SUB AND PUSH2 0x1CCD SWAP2 SWAP1 PUSH2 0x4A60 JUMP JUMPDEST DUP3 SLOAD PUSH1 0x1 PUSH1 0x1 PUSH1 0x70 SHL SUB SWAP2 DUP3 AND PUSH2 0x100 SWAP4 SWAP1 SWAP4 EXP SWAP3 DUP4 MUL SWAP2 SWAP1 SWAP3 MUL NOT SWAP1 SWAP2 AND OR SWAP1 SSTORE POP PUSH1 0x40 MLOAD PUSH4 0xBB9FF5D PUSH1 0xE0 SHL DUP2 MSTORE ADDRESS PUSH1 0x4 DUP3 ADD MSTORE PUSH1 0x24 DUP2 ADD DUP5 SWAP1 MSTORE PUSH1 0x0 DUP1 MLOAD PUSH1 0x20 PUSH2 0x4C46 DUP4 CODECOPY DUP2 MLOAD SWAP2 MSTORE SWAP1 PUSH4 0xBB9FF5D SWAP1 PUSH1 0x44 ADD PUSH1 0x0 PUSH1 0x40 MLOAD DUP1 DUP4 SUB DUP2 PUSH1 0x0 DUP8 DUP1 EXTCODESIZE ISZERO DUP1 ISZERO PUSH2 0x1D3D JUMPI PUSH1 0x0 DUP1 REVERT JUMPDEST POP GAS CALL ISZERO DUP1 ISZERO PUSH2 0x1D51 JUMPI RETURNDATASIZE PUSH1 0x0 DUP1 RETURNDATACOPY RETURNDATASIZE PUSH1 0x0 REVERT JUMPDEST POP POP PUSH1 0x40 MLOAD PUSH4 0xBD85B039 PUSH1 0xE0 SHL DUP2 MSTORE PUSH1 0x4 DUP2 ADD DUP11 SWAP1 MSTORE PUSH1 0x0 SWAP3 POP PUSH20 0xE94EFBCAA00665C8FAA47E18741DA9F212A15C20 SWAP2 POP PUSH4 0xBD85B039 SWAP1 PUSH1 0x24 ADD PUSH1 0x20 PUSH1 0x40 MLOAD DUP1 DUP4 SUB DUP2 DUP7 GAS STATICCALL ISZERO DUP1 ISZERO PUSH2 0x1DA8 JUMPI RETURNDATASIZE PUSH1 0x0 DUP1 RETURNDATACOPY RETURNDATASIZE PUSH1 0x0 REVERT JUMPDEST POP POP POP POP PUSH1 0x40 MLOAD RETURNDATASIZE PUSH1 0x1F NOT PUSH1 0x1F DUP3 ADD AND DUP3 ADD DUP1 PUSH1 0x40 MSTORE POP DUP2 ADD SWAP1 PUSH2 0x1DCC SWAP2 SWAP1 PUSH2 0x49A3 JUMP JUMPDEST SWAP1 POP PUSH1 0x0 PUSH1 0x2 DUP10 DUP2 SLOAD DUP2 LT PUSH2 0x1DE3 JUMPI PUSH2 0x1DE3 PUSH2 0x49BC JUMP JUMPDEST PUSH1 0x0 SWAP2 DUP3 MSTORE PUSH1 0x20 SWAP1 SWAP2 KECCAK256 PUSH1 0x1 PUSH1 0x4 SWAP1 SWAP3 MUL ADD ADD SLOAD PUSH1 0x1 PUSH1 0x1 PUSH1 0x70 SHL SUB AND PUSH2 0x1E0A DUP4 DUP15 PUSH2 0x49FF JUMP JUMPDEST PUSH2 0x1E14 SWAP2 SWAP1 PUSH2 0x4A34 JUMP JUMPDEST PUSH1 0x40 MLOAD PUSH3 0x4A84CB PUSH1 0xE0 SHL DUP2 MSTORE SWAP1 SWAP2 POP PUSH20 0xE94EFBCAA00665C8FAA47E18741DA9F212A15C20 SWAP1 PUSH3 0x4A84CB SWAP1 PUSH2 0x1E50 SWAP1 DUP15 SWAP1 DUP14 SWAP1 DUP7 SWAP1 PUSH1 0x4 ADD PUSH2 0x4AB3 JUMP JUMPDEST PUSH1 0x0 PUSH1 0x40 MLOAD DUP1 DUP4 SUB DUP2 PUSH1 0x0 DUP8 DUP1 EXTCODESIZE ISZERO DUP1 ISZERO PUSH2 0x1E6A JUMPI PUSH1 0x0 DUP1 REVERT JUMPDEST POP GAS CALL ISZERO DUP1 ISZERO PUSH2 0x1E7E JUMPI RETURNDATASIZE PUSH1 0x0 DUP1 RETURNDATACOPY RETURNDATASIZE PUSH1 0x0 REVERT JUMPDEST POP POP POP POP PUSH1 0x0 PUSH2 0x1EA1 DUP6 PUSH1 0x1 PUSH1 0x1 PUSH1 0x70 SHL SUB AND DUP6 PUSH1 0x1 PUSH1 0x1 PUSH1 0x70 SHL SUB AND DUP6 PUSH2 0x2EA7 JUMP JUMPDEST SWAP1 POP DUP1 ISZERO PUSH2 0x1F20 JUMPI PUSH1 0x6 SLOAD PUSH1 0x40 MLOAD PUSH3 0x4A84CB PUSH1 0xE0 SHL DUP2 MSTORE PUSH20 0xE94EFBCAA00665C8FAA47E18741DA9F212A15C20 SWAP2 PUSH3 0x4A84CB SWAP2 PUSH2 0x1EED SWAP2 PUSH1 0x1 PUSH1 0x1 PUSH1 0xA0 SHL SUB AND SWAP1 DUP15 SWAP1 DUP7 SWAP1 PUSH1 0x4 ADD PUSH2 0x4AB3 JUMP JUMPDEST PUSH1 0x0 PUSH1 0x40 MLOAD DUP1 DUP4 SUB DUP2 PUSH1 0x0 DUP8 DUP1 EXTCODESIZE ISZERO DUP1 ISZERO PUSH2 0x1F07 JUMPI PUSH1 0x0 DUP1 REVERT JUMPDEST POP GAS CALL ISZERO DUP1 ISZERO PUSH2 0x1F1B JUMPI RETURNDATASIZE PUSH1 0x0 DUP1 RETURNDATACOPY RETURNDATASIZE PUSH1 0x0 REVERT JUMPDEST POP POP POP POP JUMPDEST POP POP POP POP POP POP POP POP POP POP POP POP POP POP JUMP JUMPDEST PUSH1 0x0 DUP3 DUP2 MSTORE PUSH1 0x1 PUSH1 0x20 MSTORE PUSH1 0x40 DUP2 KECCAK256 PUSH2 0x1444 SWAP1 DUP4 PUSH2 0x344F JUMP JUMPDEST PUSH1 0x0 SWAP2 DUP3 MSTORE PUSH1 0x20 DUP3 DUP2 MSTORE PUSH1 0x40 DUP1 DUP5 KECCAK256 PUSH1 0x1 PUSH1 0x1 PUSH1 0xA0 SHL SUB SWAP4 SWAP1 SWAP4 AND DUP5 MSTORE SWAP2 SWAP1 MSTORE SWAP1 KECCAK256 SLOAD PUSH1 0xFF AND SWAP1 JUMP JUMPDEST PUSH1 0x1 PUSH1 0x1 PUSH1 0xA0 SHL SUB DUP2 AND PUSH1 0x0 SWAP1 DUP2 MSTORE PUSH1 0x3 PUSH1 0x20 MSTORE PUSH1 0x40 SWAP1 KECCAK256 SLOAD DUP2 SWAP1 ISZERO DUP1 ISZERO SWAP1 PUSH2 0x1FB1 JUMPI POP PUSH1 0x1 PUSH1 0x1 PUSH1 0xA0 SHL SUB DUP2 AND PUSH1 0x0 DUP1 MLOAD PUSH1 0x20 PUSH2 0x4C46 DUP4 CODECOPY DUP2 MLOAD SWAP2 MSTORE EQ ISZERO JUMPDEST PUSH1 0x40 MLOAD DUP1 PUSH1 0x40 ADD PUSH1 0x40 MSTORE DUP1 PUSH1 0x1 DUP2 MSTORE PUSH1 0x20 ADD PUSH1 0x27 PUSH1 0xF9 SHL DUP2 MSTORE POP SWAP1 PUSH2 0x1FE9 JUMPI PUSH1 0x40 MLOAD PUSH3 0x461BCD PUSH1 0xE5 SHL DUP2 MSTORE PUSH1 0x4 ADD PUSH2 0x714 SWAP2 SWAP1 PUSH2 0x4970 JUMP JUMPDEST POP PUSH1 0x1 PUSH1 0x1 PUSH1 0xA0 SHL SUB DUP3 AND PUSH1 0x0 DUP2 DUP2 MSTORE PUSH1 0x3 PUSH1 0x20 MSTORE PUSH1 0x40 SWAP1 DUP2 SWAP1 KECCAK256 SLOAD SWAP1 MLOAD PUSH4 0x70A08231 PUSH1 0xE0 SHL DUP2 MSTORE ADDRESS PUSH1 0x4 DUP3 ADD MSTORE SWAP1 SWAP2 SWAP1 PUSH4 0x70A08231 SWAP1 PUSH1 0x24 ADD PUSH1 0x20 PUSH1 0x40 MLOAD DUP1 DUP4 SUB DUP2 DUP7 GAS STATICCALL ISZERO DUP1 ISZERO PUSH2 0x2040 JUMPI RETURNDATASIZE PUSH1 0x0 DUP1 RETURNDATACOPY RETURNDATASIZE PUSH1 0x0 REVERT JUMPDEST POP POP POP POP PUSH1 0x40 MLOAD RETURNDATASIZE PUSH1 0x1F NOT PUSH1 0x1F DUP3 ADD AND DUP3 ADD DUP1 PUSH1 0x40 MSTORE POP DUP2 ADD SWAP1 PUSH2 0x2064 SWAP2 SWAP1 PUSH2 0x49A3 JUMP JUMPDEST PUSH1 0x2 DUP3 DUP2 SLOAD DUP2 LT PUSH2 0x2077 JUMPI PUSH2 0x2077 PUSH2 0x49BC JUMP JUMPDEST PUSH1 0x0 SWAP2 DUP3 MSTORE PUSH1 0x20 SWAP1 SWAP2 KECCAK256 PUSH1 0x4 SWAP2 DUP3 MUL ADD PUSH1 0x1 ADD DUP1 SLOAD PUSH1 0x1 PUSH1 0x1 PUSH1 0x70 SHL SUB NOT AND PUSH1 0x1 PUSH1 0x1 PUSH1 0x70 SHL SUB SWAP4 SWAP1 SWAP4 AND SWAP3 SWAP1 SWAP3 OR SWAP1 SWAP2 SSTORE PUSH1 0x40 MLOAD PUSH4 0x70A08231 PUSH1 0xE0 SHL DUP2 MSTORE ADDRESS SWAP2 DUP2 ADD SWAP2 SWAP1 SWAP2 MSTORE PUSH1 0x0 DUP1 MLOAD PUSH1 0x20 PUSH2 0x4C46 DUP4 CODECOPY DUP2 MLOAD SWAP2 MSTORE SWAP1 PUSH4 0x70A08231 SWAP1 PUSH1 0x24 ADD PUSH1 0x20 PUSH1 0x40 MLOAD DUP1 DUP4 SUB DUP2 DUP7 GAS STATICCALL ISZERO DUP1 ISZERO PUSH2 0x20F4 JUMPI RETURNDATASIZE PUSH1 0x0 DUP1 RETURNDATACOPY RETURNDATASIZE PUSH1 0x0 REVERT JUMPDEST POP POP POP POP PUSH1 0x40 MLOAD RETURNDATASIZE PUSH1 0x1F NOT PUSH1 0x1F DUP3 ADD AND DUP3 ADD DUP1 PUSH1 0x40 MSTORE POP DUP2 ADD SWAP1 PUSH2 0x2118 SWAP2 SWAP1 PUSH2 0x49A3 JUMP JUMPDEST PUSH1 0x4 SSTORE POP POP POP JUMP JUMPDEST PUSH1 0x0 PUSH1 0x8 PUSH2 0x2130 PUSH2 0x3840 TIMESTAMP PUSH2 0x4A34 JUMP JUMPDEST PUSH2 0x213A SWAP2 SWAP1 PUSH2 0x4B0C JUMP JUMPDEST SWAP1 POP SWAP1 JUMP JUMPDEST PUSH1 0x1 PUSH1 0x1 PUSH1 0xA0 SHL SUB DUP7 AND PUSH1 0x0 SWAP1 DUP2 MSTORE PUSH1 0x3 PUSH1 0x20 MSTORE PUSH1 0x40 DUP2 KECCAK256 SLOAD DUP8 SWAP1 ISZERO DUP1 ISZERO SWAP1 PUSH2 0x217F JUMPI POP PUSH1 0x1 PUSH1 0x1 PUSH1 0xA0 SHL SUB DUP2 AND PUSH1 0x0 DUP1 MLOAD PUSH1 0x20 PUSH2 0x4C46 DUP4 CODECOPY DUP2 MLOAD SWAP2 MSTORE EQ ISZERO JUMPDEST PUSH1 0x40 MLOAD DUP1 PUSH1 0x40 ADD PUSH1 0x40 MSTORE DUP1 PUSH1 0x1 DUP2 MSTORE PUSH1 0x20 ADD PUSH1 0x27 PUSH1 0xF9 SHL DUP2 MSTORE POP SWAP1 PUSH2 0x21B7 JUMPI PUSH1 0x40 MLOAD PUSH3 0x461BCD PUSH1 0xE5 SHL DUP2 MSTORE PUSH1 0x4 ADD PUSH2 0x714 SWAP2 SWAP1 PUSH2 0x4970 JUMP JUMPDEST POP DUP4 DUP1 TIMESTAMP GT ISZERO PUSH1 0x40 MLOAD DUP1 PUSH1 0x40 ADD PUSH1 0x40 MSTORE DUP1 PUSH1 0x1 DUP2 MSTORE PUSH1 0x20 ADD PUSH1 0x15 PUSH1 0xFA SHL DUP2 MSTORE POP SWAP1 PUSH2 0x21F5 JUMPI PUSH1 0x40 MLOAD PUSH3 0x461BCD PUSH1 0xE5 SHL DUP2 MSTORE PUSH1 0x4 ADD PUSH2 0x714 SWAP2 SWAP1 PUSH2 0x4970 JUMP JUMPDEST POP PUSH2 0x2204 CALLER DUP11 DUP11 DUP11 DUP11 DUP10 PUSH2 0x3296 JUMP JUMPDEST SWAP10 SWAP9 POP POP POP POP POP POP POP POP POP JUMP JUMPDEST PUSH2 0x2219 PUSH2 0x4519 JUMP JUMPDEST PUSH1 0x1 PUSH1 0x1 PUSH1 0xA0 SHL SUB DUP3 AND PUSH1 0x0 SWAP1 DUP2 MSTORE PUSH1 0x3 PUSH1 0x20 MSTORE PUSH1 0x40 SWAP1 KECCAK256 SLOAD PUSH1 0x2 DUP1 SLOAD SWAP1 SWAP2 SWAP1 DUP2 LT PUSH2 0x2247 JUMPI PUSH2 0x2247 PUSH2 0x49BC JUMP JUMPDEST PUSH1 0x0 SWAP2 DUP3 MSTORE PUSH1 0x20 SWAP2 DUP3 SWAP1 KECCAK256 PUSH1 0x40 DUP1 MLOAD PUSH1 0xA0 DUP2 ADD DUP3 MSTORE PUSH1 0x4 SWAP1 SWAP4 MUL SWAP1 SWAP2 ADD DUP1 SLOAD PUSH1 0x1 PUSH1 0x1 PUSH1 0xA0 SHL SUB AND DUP4 MSTORE PUSH1 0x1 DUP2 ADD SLOAD PUSH1 0x1 PUSH1 0x1 PUSH1 0x70 SHL SUB DUP1 DUP3 AND SWAP6 DUP6 ADD SWAP6 SWAP1 SWAP6 MSTORE PUSH1 0x1 PUSH1 0x70 SHL SWAP1 DIV DUP5 AND DUP4 DUP4 ADD MSTORE PUSH1 0x2 DUP2 ADD SLOAD SWAP1 SWAP4 AND PUSH1 0x60 DUP4 ADD MSTORE DUP1 MLOAD PUSH2 0x100 DUP2 ADD SWAP1 SWAP2 MSTORE SWAP1 SWAP2 SWAP1 PUSH1 0x80 DUP4 ADD SWAP1 PUSH1 0x3 DUP4 ADD PUSH1 0x8 DUP3 DUP3 DUP3 PUSH1 0x20 MUL DUP3 ADD SWAP2 PUSH1 0x0 SWAP1 JUMPDEST DUP3 DUP3 SWAP1 SLOAD SWAP1 PUSH2 0x100 EXP SWAP1 DIV PUSH4 0xFFFFFFFF AND PUSH4 0xFFFFFFFF AND DUP2 MSTORE PUSH1 0x20 ADD SWAP1 PUSH1 0x4 ADD SWAP1 PUSH1 0x20 DUP3 PUSH1 0x3 ADD DIV SWAP3 DUP4 ADD SWAP3 PUSH1 0x1 SUB DUP3 MUL SWAP2 POP DUP1 DUP5 GT PUSH2 0x22C7 JUMPI SWAP1 POP POP POP POP POP POP DUP2 MSTORE POP POP SWAP1 POP SWAP2 SWAP1 POP JUMP JUMPDEST PUSH1 0x0 PUSH2 0x231F DUP2 CALLER PUSH2 0x2F5C JUMP JUMPDEST PUSH1 0x6 SLOAD PUSH1 0x40 DUP1 MLOAD DUP1 DUP3 ADD SWAP1 SWAP2 MSTORE PUSH1 0x1 DUP2 MSTORE PUSH1 0x41 PUSH1 0xF8 SHL PUSH1 0x20 DUP3 ADD MSTORE SWAP1 PUSH1 0x1 PUSH1 0xA0 SHL SWAP1 DIV PUSH1 0xFF AND ISZERO PUSH2 0x2363 JUMPI PUSH1 0x40 MLOAD PUSH3 0x461BCD PUSH1 0xE5 SHL DUP2 MSTORE PUSH1 0x4 ADD PUSH2 0x714 SWAP2 SWAP1 PUSH2 0x4970 JUMP JUMPDEST POP PUSH1 0x6 DUP1 SLOAD PUSH1 0xFF PUSH1 0xA0 SHL NOT AND PUSH1 0x1 PUSH1 0xA0 SHL OR SWAP1 SSTORE PUSH2 0x237F PUSH2 0x454E JUMP JUMPDEST PUSH1 0x40 DUP1 MLOAD PUSH1 0xA0 DUP2 ADD DUP3 MSTORE PUSH1 0x0 DUP1 DUP3 MSTORE PUSH1 0x20 DUP3 ADD DUP2 DUP2 MSTORE SWAP3 DUP3 ADD DUP2 DUP2 MSTORE PUSH1 0x60 DUP4 ADD DUP3 DUP2 MSTORE PUSH1 0x80 DUP5 ADD DUP7 DUP2 MSTORE PUSH1 0x2 DUP1 SLOAD PUSH1 0x1 DUP2 ADD DUP3 SSTORE SWAP5 MSTORE DUP5 MLOAD PUSH32 0x405787FA12A823E0F2B7631CC41B3BA8828B3321CA811111FA75CD3AA3BB5ACE PUSH1 0x4 SWAP1 SWAP6 MUL SWAP5 DUP6 ADD DUP1 SLOAD PUSH1 0x1 PUSH1 0x1 PUSH1 0xA0 SHL SUB NOT AND PUSH1 0x1 PUSH1 0x1 PUSH1 0xA0 SHL SUB SWAP1 SWAP3 AND SWAP2 SWAP1 SWAP2 OR DUP2 SSTORE SWAP6 MLOAD PUSH32 0x405787FA12A823E0F2B7631CC41B3BA8828B3321CA811111FA75CD3AA3BB5ACF DUP6 ADD DUP1 SLOAD SWAP5 MLOAD PUSH1 0x1 PUSH1 0x1 PUSH1 0x70 SHL SUB SWAP3 DUP4 AND PUSH1 0x1 PUSH1 0x1 PUSH1 0xE0 SHL SUB NOT SWAP1 SWAP7 AND SWAP6 SWAP1 SWAP6 OR PUSH1 0x1 PUSH1 0x70 SHL SWAP6 DUP4 AND SWAP6 SWAP1 SWAP6 MUL SWAP5 SWAP1 SWAP5 OR SWAP1 SWAP4 SSTORE SWAP1 MLOAD PUSH32 0x405787FA12A823E0F2B7631CC41B3BA8828B3321CA811111FA75CD3AA3BB5AD0 DUP5 ADD DUP1 SLOAD PUSH1 0x1 PUSH1 0x1 PUSH1 0x70 SHL SUB NOT AND SWAP2 SWAP1 SWAP4 AND OR SWAP1 SWAP2 SSTORE MLOAD SWAP2 SWAP3 SWAP2 PUSH2 0x24BF SWAP2 PUSH32 0x405787FA12A823E0F2B7631CC41B3BA8828B3321CA811111FA75CD3AA3BB5AD1 ADD SWAP1 PUSH1 0x8 PUSH2 0x456D JUMP JUMPDEST POP POP POP PUSH2 0x24F6 PUSH20 0xCD300DD54345F48BA108DF3D792B6C2DBB17EDD2 PUSH10 0xD3C21BCECCEDA1000000 PUSH10 0x69E10DE76676D0800000 CALLER PUSH2 0x26CD JUMP JUMPDEST PUSH2 0x12EC PUSH20 0xDE402E9D305BAD483D47BC858CC373C5A040A62D PUSH10 0x943B1377290CBD800000 DUP1 CALLER PUSH2 0x26CD JUMP JUMPDEST PUSH1 0x0 DUP2 DUP2 MSTORE PUSH1 0x1 PUSH1 0x20 MSTORE PUSH1 0x40 DUP2 KECCAK256 PUSH2 0xF25 SWAP1 PUSH2 0x345B JUMP JUMPDEST PUSH1 0x0 PUSH2 0x1444 DUP3 PUSH1 0x2 DUP6 DUP2 SLOAD DUP2 LT PUSH2 0x2550 JUMPI PUSH2 0x2550 PUSH2 0x49BC JUMP JUMPDEST PUSH1 0x0 SWAP2 DUP3 MSTORE PUSH1 0x20 SWAP1 SWAP2 KECCAK256 PUSH1 0x1 PUSH1 0x4 SWAP1 SWAP3 MUL ADD ADD SLOAD PUSH1 0x2 DUP1 SLOAD PUSH1 0x1 PUSH1 0x1 PUSH1 0x70 SHL SUB SWAP1 SWAP3 AND SWAP2 DUP8 SWAP1 DUP2 LT PUSH2 0x2584 JUMPI PUSH2 0x2584 PUSH2 0x49BC JUMP JUMPDEST PUSH1 0x0 SWAP2 DUP3 MSTORE PUSH1 0x20 SWAP1 SWAP2 KECCAK256 PUSH1 0x4 SWAP1 SWAP2 MUL ADD PUSH1 0x1 ADD SLOAD PUSH1 0x1 PUSH1 0x70 SHL SWAP1 DIV PUSH1 0x1 PUSH1 0x1 PUSH1 0x70 SHL SUB AND PUSH2 0x25B1 DUP8 PUSH2 0x166F JUMP JUMPDEST PUSH2 0x3465 JUMP JUMPDEST PUSH1 0x5 SLOAD PUSH1 0x1 PUSH1 0x1 PUSH1 0xA0 SHL SUB AND PUSH1 0x0 DUP2 DUP2 MSTORE PUSH1 0x3 PUSH1 0x20 MSTORE PUSH1 0x40 DUP2 KECCAK256 SLOAD SWAP1 SWAP2 SWAP1 ISZERO DUP1 ISZERO SWAP1 PUSH2 0x25F9 JUMPI POP PUSH1 0x1 PUSH1 0x1 PUSH1 0xA0 SHL SUB DUP2 AND PUSH1 0x0 DUP1 MLOAD PUSH1 0x20 PUSH2 0x4C46 DUP4 CODECOPY DUP2 MLOAD SWAP2 MSTORE EQ ISZERO JUMPDEST PUSH1 0x40 MLOAD DUP1 PUSH1 0x40 ADD PUSH1 0x40 MSTORE DUP1 PUSH1 0x1 DUP2 MSTORE PUSH1 0x20 ADD PUSH1 0x27 PUSH1 0xF9 SHL DUP2 MSTORE POP SWAP1 PUSH2 0x2631 JUMPI PUSH1 0x40 MLOAD PUSH3 0x461BCD PUSH1 0xE5 SHL DUP2 MSTORE PUSH1 0x4 ADD PUSH2 0x714 SWAP2 SWAP1 PUSH2 0x4970 JUMP JUMPDEST POP DUP4 DUP1 TIMESTAMP GT ISZERO PUSH1 0x40 MLOAD DUP1 PUSH1 0x40 ADD PUSH1 0x40 MSTORE DUP1 PUSH1 0x1 DUP2 MSTORE PUSH1 0x20 ADD PUSH1 0x15 PUSH1 0xFA SHL DUP2 MSTORE POP SWAP1 PUSH2 0x266F JUMPI PUSH1 0x40 MLOAD PUSH3 0x461BCD PUSH1 0xE5 SHL DUP2 MSTORE PUSH1 0x4 ADD PUSH2 0x714 SWAP2 SWAP1 PUSH2 0x4970 JUMP JUMPDEST POP PUSH1 0x5 SLOAD PUSH2 0x1000 SWAP1 CALLER SWAP1 DUP11 SWAP1 PUSH1 0x1 PUSH1 0x1 PUSH1 0xA0 SHL SUB AND DUP11 DUP11 ADDRESS PUSH2 0x2FCA JUMP JUMPDEST PUSH2 0x2694 PUSH2 0x4519 JUMP JUMPDEST PUSH1 0x2 DUP3 DUP2 SLOAD DUP2 LT PUSH2 0x2247 JUMPI PUSH2 0x2247 PUSH2 0x49BC JUMP JUMPDEST PUSH1 0x0 DUP3 DUP2 MSTORE PUSH1 0x20 DUP2 SWAP1 MSTORE PUSH1 0x40 SWAP1 KECCAK256 PUSH1 0x1 ADD SLOAD PUSH2 0x26C3 DUP2 CALLER PUSH2 0x2F5C JUMP JUMPDEST PUSH2 0x126D DUP4 DUP4 PUSH2 0x33A8 JUMP JUMPDEST PUSH1 0x0 PUSH2 0x26D9 DUP2 CALLER PUSH2 0x2F5C JUMP JUMPDEST PUSH1 0x1 PUSH1 0x1 PUSH1 0xA0 SHL SUB DUP6 AND PUSH1 0x0 SWAP1 DUP2 MSTORE PUSH1 0x3 PUSH1 0x20 MSTORE PUSH1 0x40 SWAP1 KECCAK256 SLOAD DUP6 SWAP1 ISZERO DUP1 ISZERO PUSH2 0x2718 JUMPI POP PUSH1 0x1 PUSH1 0x1 PUSH1 0xA0 SHL SUB DUP2 AND PUSH1 0x0 DUP1 MLOAD PUSH1 0x20 PUSH2 0x4C46 DUP4 CODECOPY DUP2 MLOAD SWAP2 MSTORE EQ ISZERO JUMPDEST PUSH1 0x40 MLOAD DUP1 PUSH1 0x40 ADD PUSH1 0x40 MSTORE DUP1 PUSH1 0x1 DUP2 MSTORE PUSH1 0x20 ADD PUSH1 0x45 PUSH1 0xF8 SHL DUP2 MSTORE POP SWAP1 PUSH2 0x2750 JUMPI PUSH1 0x40 MLOAD PUSH3 0x461BCD PUSH1 0xE5 SHL DUP2 MSTORE PUSH1 0x4 ADD PUSH2 0x714 SWAP2 SWAP1 PUSH2 0x4970 JUMP JUMPDEST POP PUSH1 0x2 SLOAD PUSH2 0x2769 PUSH1 0x1 PUSH1 0x1 PUSH1 0xA0 SHL SUB DUP9 AND CALLER ADDRESS DUP10 PUSH2 0x3417 JUMP JUMPDEST PUSH1 0x40 MLOAD PUSH4 0xBB9FF5D PUSH1 0xE0 SHL DUP2 MSTORE ADDRESS PUSH1 0x4 DUP3 ADD MSTORE PUSH1 0x24 DUP2 ADD DUP8 SWAP1 MSTORE PUSH1 0x0 DUP1 MLOAD PUSH1 0x20 PUSH2 0x4C46 DUP4 CODECOPY DUP2 MLOAD SWAP2 MSTORE SWAP1 PUSH4 0xBB9FF5D SWAP1 PUSH1 0x44 ADD PUSH1 0x0 PUSH1 0x40 MLOAD DUP1 DUP4 SUB DUP2 PUSH1 0x0 DUP8 DUP1 EXTCODESIZE ISZERO DUP1 ISZERO PUSH2 0x27B6 JUMPI PUSH1 0x0 DUP1 REVERT JUMPDEST POP GAS CALL ISZERO DUP1 ISZERO PUSH2 0x27CA JUMPI RETURNDATASIZE PUSH1 0x0 DUP1 RETURNDATACOPY RETURNDATASIZE PUSH1 0x0 REVERT JUMPDEST POP POP PUSH1 0x40 MLOAD PUSH4 0x70A08231 PUSH1 0xE0 SHL DUP2 MSTORE ADDRESS PUSH1 0x4 DUP3 ADD MSTORE PUSH1 0x1 PUSH1 0x1 PUSH1 0xA0 SHL SUB DUP11 AND SWAP3 POP PUSH4 0x70A08231 SWAP2 POP PUSH1 0x24 ADD PUSH1 0x20 PUSH1 0x40 MLOAD DUP1 DUP4 SUB DUP2 DUP7 GAS STATICCALL ISZERO DUP1 ISZERO PUSH2 0x2812 JUMPI RETURNDATASIZE PUSH1 0x0 DUP1 RETURNDATACOPY RETURNDATASIZE PUSH1 0x0 REVERT JUMPDEST POP POP POP POP PUSH1 0x40 MLOAD RETURNDATASIZE PUSH1 0x1F NOT PUSH1 0x1F DUP3 ADD AND DUP3 ADD DUP1 PUSH1 0x40 MSTORE POP DUP2 ADD SWAP1 PUSH2 0x2836 SWAP2 SWAP1 PUSH2 0x49A3 JUMP JUMPDEST SWAP6 POP PUSH1 0x0 DUP7 GT PUSH1 0x40 MLOAD DUP1 PUSH1 0x40 ADD PUSH1 0x40 MSTORE DUP1 PUSH1 0x1 DUP2 MSTORE PUSH1 0x20 ADD PUSH1 0x2D PUSH1 0xF9 SHL DUP2 MSTORE POP SWAP1 PUSH2 0x2874 JUMPI PUSH1 0x40 MLOAD PUSH3 0x461BCD PUSH1 0xE5 SHL DUP2 MSTORE PUSH1 0x4 ADD PUSH2 0x714 SWAP2 SWAP1 PUSH2 0x4970 JUMP JUMPDEST POP PUSH1 0x0 PUSH2 0x2884 PUSH2 0xA25 DUP8 DUP10 PUSH2 0x49FF JUMP JUMPDEST SWAP1 POP PUSH2 0x288E PUSH2 0x454E JUMP JUMPDEST PUSH1 0x40 DUP1 MLOAD PUSH1 0xA0 DUP2 ADD DUP3 MSTORE PUSH1 0x1 PUSH1 0x1 PUSH1 0xA0 SHL SUB DUP12 DUP2 AND DUP3 MSTORE PUSH1 0x1 PUSH1 0x1 PUSH1 0x70 SHL SUB DUP12 DUP2 AND PUSH1 0x20 DUP5 ADD SWAP1 DUP2 MSTORE DUP12 DUP3 AND SWAP5 DUP5 ADD SWAP5 DUP6 MSTORE DUP7 DUP3 AND PUSH1 0x60 DUP6 ADD SWAP1 DUP2 MSTORE PUSH1 0x80 DUP6 ADD DUP8 DUP2 MSTORE PUSH1 0x2 DUP1 SLOAD PUSH1 0x1 DUP2 ADD DUP3 SSTORE PUSH1 0x0 SWAP2 SWAP1 SWAP2 MSTORE DUP7 MLOAD PUSH32 0x405787FA12A823E0F2B7631CC41B3BA8828B3321CA811111FA75CD3AA3BB5ACE PUSH1 0x4 SWAP1 SWAP3 MUL SWAP2 DUP3 ADD DUP1 SLOAD PUSH1 0x1 PUSH1 0x1 PUSH1 0xA0 SHL SUB NOT AND SWAP2 SWAP1 SWAP8 AND OR DUP7 SSTORE SWAP3 MLOAD PUSH32 0x405787FA12A823E0F2B7631CC41B3BA8828B3321CA811111FA75CD3AA3BB5ACF DUP5 ADD DUP1 SLOAD SWAP9 MLOAD SWAP2 DUP7 AND PUSH1 0x1 PUSH1 0x1 PUSH1 0xE0 SHL SUB NOT SWAP1 SWAP10 AND SWAP9 SWAP1 SWAP9 OR PUSH1 0x1 PUSH1 0x70 SHL SWAP2 DUP7 AND SWAP2 SWAP1 SWAP2 MUL OR SWAP1 SWAP7 SSTORE MLOAD PUSH32 0x405787FA12A823E0F2B7631CC41B3BA8828B3321CA811111FA75CD3AA3BB5AD0 DUP3 ADD DUP1 SLOAD PUSH1 0x1 PUSH1 0x1 PUSH1 0x70 SHL SUB NOT AND SWAP2 SWAP1 SWAP4 AND OR SWAP1 SWAP2 SSTORE SWAP3 MLOAD SWAP2 SWAP3 DUP4 SWAP3 PUSH2 0x29D7 SWAP2 PUSH32 0x405787FA12A823E0F2B7631CC41B3BA8828B3321CA811111FA75CD3AA3BB5AD1 ADD SWAP1 PUSH1 0x8 PUSH2 0x456D JUMP JUMPDEST POP POP POP PUSH1 0x1 PUSH1 0x1 PUSH1 0xA0 SHL SUB DUP11 AND PUSH1 0x0 SWAP1 DUP2 MSTORE PUSH1 0x3 PUSH1 0x20 MSTORE PUSH1 0x40 SWAP1 DUP2 SWAP1 KECCAK256 DUP6 SWAP1 SSTORE MLOAD PUSH3 0x4A84CB PUSH1 0xE0 SHL DUP2 MSTORE PUSH20 0xE94EFBCAA00665C8FAA47E18741DA9F212A15C20 SWAP1 PUSH3 0x4A84CB SWAP1 PUSH2 0x2A32 SWAP1 PUSH2 0xDEAD SWAP1 DUP9 SWAP1 PUSH2 0x3E8 SWAP1 PUSH1 0x4 ADD PUSH2 0x4AB3 JUMP JUMPDEST PUSH1 0x0 PUSH1 0x40 MLOAD DUP1 DUP4 SUB DUP2 PUSH1 0x0 DUP8 DUP1 EXTCODESIZE ISZERO DUP1 ISZERO PUSH2 0x2A4C JUMPI PUSH1 0x0 DUP1 REVERT JUMPDEST POP GAS CALL ISZERO DUP1 ISZERO PUSH2 0x2A60 JUMPI RETURNDATASIZE PUSH1 0x0 DUP1 RETURNDATACOPY RETURNDATASIZE PUSH1 0x0 REVERT JUMPDEST POP POP POP POP PUSH1 0x0 PUSH2 0x3E8 PUSH2 0x2A78 DUP11 DUP13 PUSH2 0xA25 SWAP2 SWAP1 PUSH2 0x49FF JUMP JUMPDEST PUSH2 0x2A82 SWAP2 SWAP1 PUSH2 0x49E8 JUMP JUMPDEST PUSH1 0x40 MLOAD PUSH3 0x4A84CB PUSH1 0xE0 SHL DUP2 MSTORE SWAP1 SWAP2 POP PUSH20 0xE94EFBCAA00665C8FAA47E18741DA9F212A15C20 SWAP1 PUSH3 0x4A84CB SWAP1 PUSH2 0x2ABE SWAP1 DUP12 SWAP1 DUP10 SWAP1 DUP7 SWAP1 PUSH1 0x4 ADD PUSH2 0x4AB3 JUMP JUMPDEST PUSH1 0x0 PUSH1 0x40 MLOAD DUP1 DUP4 SUB DUP2 PUSH1 0x0 DUP8 DUP1 EXTCODESIZE ISZERO DUP1 ISZERO PUSH2 0x2AD8 JUMPI PUSH1 0x0 DUP1 REVERT JUMPDEST POP GAS CALL ISZERO DUP1 ISZERO PUSH2 0xDF1 JUMPI RETURNDATASIZE PUSH1 0x0 DUP1 RETURNDATACOPY RETURNDATASIZE PUSH1 0x0 REVERT JUMPDEST PUSH1 0x3 PUSH1 0x20 MSTORE PUSH32 0x152B26DB60BC4892711D3DD42317109FB33CAA41EFEDF600DDCB4C1DDB9F2AD7 SLOAD PUSH20 0xDE402E9D305BAD483D47BC858CC373C5A040A62D PUSH1 0x0 SWAP1 DUP2 MSTORE PUSH32 0xA2BD018ED947F59F9909A33EEF41337A0BA625658072B40E2CD24448D2BBCBD3 SLOAD PUSH1 0x2 DUP1 SLOAD SWAP3 SWAP4 DUP5 SWAP4 SWAP1 SWAP3 SWAP2 SWAP1 DUP4 SWAP1 DUP2 LT PUSH2 0x2B6B JUMPI PUSH2 0x2B6B PUSH2 0x49BC JUMP JUMPDEST PUSH1 0x0 SWAP2 DUP3 MSTORE PUSH1 0x20 SWAP1 SWAP2 KECCAK256 PUSH1 0x1 PUSH1 0x4 SWAP1 SWAP3 MUL ADD ADD SLOAD PUSH1 0x2 DUP1 SLOAD PUSH1 0x1 PUSH1 0x1 PUSH1 0x70 SHL SUB SWAP1 SWAP3 AND SWAP2 DUP5 SWAP1 DUP2 LT PUSH2 0x2B9F JUMPI PUSH2 0x2B9F PUSH2 0x49BC JUMP JUMPDEST PUSH1 0x0 SWAP2 DUP3 MSTORE PUSH1 0x20 SWAP1 SWAP2 KECCAK256 PUSH1 0x4 SWAP1 SWAP2 MUL ADD PUSH1 0x1 ADD SLOAD PUSH2 0x2BD5 SWAP1 PUSH1 0x1 PUSH1 0x70 SHL SWAP1 DIV PUSH1 0x1 PUSH1 0x1 PUSH1 0x70 SHL SUB AND PUSH8 0xDE0B6B3A7640000 PUSH2 0x49FF JUMP JUMPDEST PUSH2 0x2BDF SWAP2 SWAP1 PUSH2 0x4A34 JUMP JUMPDEST PUSH1 0x2 DUP3 DUP2 SLOAD DUP2 LT PUSH2 0x2BF2 JUMPI PUSH2 0x2BF2 PUSH2 0x49BC JUMP JUMPDEST PUSH1 0x0 SWAP2 DUP3 MSTORE PUSH1 0x20 SWAP1 SWAP2 KECCAK256 PUSH1 0x1 PUSH1 0x4 SWAP1 SWAP3 MUL ADD ADD SLOAD PUSH1 0x2 DUP1 SLOAD PUSH1 0x1 PUSH1 0x1 PUSH1 0x70 SHL SUB SWAP1 SWAP3 AND SWAP2 DUP5 SWAP1 DUP2 LT PUSH2 0x2C26 JUMPI PUSH2 0x2C26 PUSH2 0x49BC JUMP JUMPDEST PUSH1 0x0 SWAP2 DUP3 MSTORE PUSH1 0x20 SWAP1 SWAP2 KECCAK256 PUSH1 0x4 SWAP1 SWAP2 MUL ADD PUSH1 0x1 ADD SLOAD PUSH2 0x2C5C SWAP1 PUSH1 0x1 PUSH1 0x70 SHL SWAP1 DIV PUSH1 0x1 PUSH1 0x1 PUSH1 0x70 SHL SUB AND PUSH8 0xDE0B6B3A7640000 PUSH2 0x49FF JUMP JUMPDEST PUSH2 0x2C66 SWAP2 SWAP1 PUSH2 0x4A34 JUMP JUMPDEST SWAP4 POP SWAP4 POP POP POP SWAP1 SWAP2 JUMP JUMPDEST PUSH1 0x0 PUSH2 0x1444 DUP3 PUSH1 0x2 DUP6 DUP2 SLOAD DUP2 LT PUSH2 0x2C89 JUMPI PUSH2 0x2C89 PUSH2 0x49BC JUMP JUMPDEST SWAP1 PUSH1 0x0 MSTORE PUSH1 0x20 PUSH1 0x0 KECCAK256 SWAP1 PUSH1 0x4 MUL ADD PUSH1 0x1 ADD PUSH1 0xE SWAP1 SLOAD SWAP1 PUSH2 0x100 EXP SWAP1 DIV PUSH1 0x1 PUSH1 0x1 PUSH1 0x70 SHL SUB AND PUSH1 0x1 PUSH1 0x1 PUSH1 0x70 SHL SUB AND PUSH1 0x2 DUP7 DUP2 SLOAD DUP2 LT PUSH2 0x2CCA JUMPI PUSH2 0x2CCA PUSH2 0x49BC JUMP JUMPDEST PUSH1 0x0 SWAP2 DUP3 MSTORE PUSH1 0x20 SWAP1 SWAP2 KECCAK256 PUSH1 0x1 PUSH1 0x4 SWAP1 SWAP3 MUL ADD ADD SLOAD PUSH1 0x1 PUSH1 0x1 PUSH1 0x70 SHL SUB AND PUSH2 0x25B1 DUP8 PUSH2 0x166F JUMP JUMPDEST PUSH1 0x1 PUSH1 0x1 PUSH1 0xA0 SHL SUB DUP7 AND PUSH1 0x0 SWAP1 DUP2 MSTORE PUSH1 0x3 PUSH1 0x20 MSTORE PUSH1 0x40 DUP2 KECCAK256 SLOAD DUP8 SWAP1 ISZERO DUP1 ISZERO SWAP1 PUSH2 0x2D30 JUMPI POP PUSH1 0x1 PUSH1 0x1 PUSH1 0xA0 SHL SUB DUP2 AND PUSH1 0x0 DUP1 MLOAD PUSH1 0x20 PUSH2 0x4C46 DUP4 CODECOPY DUP2 MLOAD SWAP2 MSTORE EQ ISZERO JUMPDEST PUSH1 0x40 MLOAD DUP1 PUSH1 0x40 ADD PUSH1 0x40 MSTORE DUP1 PUSH1 0x1 DUP2 MSTORE PUSH1 0x20 ADD PUSH1 0x27 PUSH1 0xF9 SHL DUP2 MSTORE POP SWAP1 PUSH2 0x2D68 JUMPI PUSH1 0x40 MLOAD PUSH3 0x461BCD PUSH1 0xE5 SHL DUP2 MSTORE PUSH1 0x4 ADD PUSH2 0x714 SWAP2 SWAP1 PUSH2 0x4970 JUMP JUMPDEST POP DUP4 DUP1 TIMESTAMP GT ISZERO PUSH1 0x40 MLOAD DUP1 PUSH1 0x40 ADD PUSH1 0x40 MSTORE DUP1 PUSH1 0x1 DUP2 MSTORE PUSH1 0x20 ADD PUSH1 0x15 PUSH1 0xFA SHL DUP2 MSTORE POP SWAP1 PUSH2 0x2DA6 JUMPI PUSH1 0x40 MLOAD PUSH3 0x461BCD PUSH1 0xE5 SHL DUP2 MSTORE PUSH1 0x4 ADD PUSH2 0x714 SWAP2 SWAP1 PUSH2 0x4970 JUMP JUMPDEST POP PUSH2 0x2204 CALLER DUP11 DUP11 DUP11 DUP11 DUP10 PUSH2 0x2FCA JUMP JUMPDEST PUSH2 0x2DBF DUP3 DUP3 PUSH2 0x1F48 JUMP JUMPDEST PUSH2 0x12EC JUMPI PUSH1 0x0 DUP3 DUP2 MSTORE PUSH1 0x20 DUP2 DUP2 MSTORE PUSH1 0x40 DUP1 DUP4 KECCAK256 PUSH1 0x1 PUSH1 0x1 PUSH1 0xA0 SHL SUB DUP6 AND DUP5 MSTORE SWAP1 SWAP2 MSTORE SWAP1 KECCAK256 DUP1 SLOAD PUSH1 0xFF NOT AND PUSH1 0x1 OR SWAP1 SSTORE PUSH2 0x2DF5 CALLER SWAP1 JUMP JUMPDEST PUSH1 0x1 PUSH1 0x1 PUSH1 0xA0 SHL SUB AND DUP2 PUSH1 0x1 PUSH1 0x1 PUSH1 0xA0 SHL SUB AND DUP4 PUSH32 0x2F8788117E7EFF1D82E926EC794901D17C78024A50270940304540A733656F0D PUSH1 0x40 MLOAD PUSH1 0x40 MLOAD DUP1 SWAP2 SUB SWAP1 LOG4 POP POP JUMP JUMPDEST PUSH1 0x0 PUSH2 0x1444 DUP4 PUSH1 0x1 PUSH1 0x1 PUSH1 0xA0 SHL SUB DUP5 AND PUSH2 0x34A1 JUMP JUMPDEST PUSH1 0x0 DUP1 PUSH1 0x2 PUSH2 0x2E5E DUP5 PUSH1 0x1 PUSH2 0x4A48 JUMP JUMPDEST PUSH2 0x2E68 SWAP2 SWAP1 PUSH2 0x4A34 JUMP JUMPDEST SWAP1 POP DUP3 SWAP2 POP JUMPDEST DUP2 DUP2 LT ISZERO PUSH2 0x2EA1 JUMPI SWAP1 POP DUP1 PUSH1 0x2 DUP2 PUSH2 0x2E86 DUP2 DUP7 PUSH2 0x4A34 JUMP JUMPDEST PUSH2 0x2E90 SWAP2 SWAP1 PUSH2 0x4A48 JUMP JUMPDEST PUSH2 0x2E9A SWAP2 SWAP1 PUSH2 0x4A34 JUMP JUMPDEST SWAP1 POP PUSH2 0x2E6E JUMP JUMPDEST POP SWAP2 SWAP1 POP JUMP JUMPDEST PUSH1 0x0 DUP4 DUP4 GT DUP1 ISZERO PUSH2 0x2EB8 JUMPI POP PUSH1 0x0 DUP5 GT JUMPDEST ISZERO PUSH2 0x1444 JUMPI DUP4 PUSH2 0x2EC9 DUP5 PUSH1 0x5 PUSH2 0x49FF JUMP JUMPDEST PUSH2 0x2ED3 SWAP2 SWAP1 PUSH2 0x4A48 JUMP JUMPDEST PUSH2 0x2EDD DUP6 DUP6 PUSH2 0x49E8 JUMP JUMPDEST PUSH2 0x2EE7 SWAP1 DUP5 PUSH2 0x49FF JUMP JUMPDEST PUSH2 0x2EF1 SWAP2 SWAP1 PUSH2 0x4A34 JUMP JUMPDEST SWAP5 SWAP4 POP POP POP POP JUMP JUMPDEST PUSH1 0x40 MLOAD PUSH1 0x1 PUSH1 0x1 PUSH1 0xA0 SHL SUB DUP4 AND PUSH1 0x24 DUP3 ADD MSTORE PUSH1 0x44 DUP2 ADD DUP3 SWAP1 MSTORE PUSH2 0x126D SWAP1 DUP5 SWAP1 PUSH4 0xA9059CBB PUSH1 0xE0 SHL SWAP1 PUSH1 0x64 ADD JUMPDEST PUSH1 0x40 DUP1 MLOAD PUSH1 0x1F NOT DUP2 DUP5 SUB ADD DUP2 MSTORE SWAP2 SWAP1 MSTORE PUSH1 0x20 DUP2 ADD DUP1 MLOAD PUSH1 0x1 PUSH1 0x1 PUSH1 0xE0 SHL SUB AND PUSH1 0x1 PUSH1 0x1 PUSH1 0xE0 SHL SUB NOT SWAP1 SWAP4 AND SWAP3 SWAP1 SWAP3 OR SWAP1 SWAP2 MSTORE PUSH2 0x34F0 JUMP JUMPDEST PUSH2 0x2F66 DUP3 DUP3 PUSH2 0x1F48 JUMP JUMPDEST PUSH2 0x12EC JUMPI PUSH2 0x2F7E DUP2 PUSH1 0x1 PUSH1 0x1 PUSH1 0xA0 SHL SUB AND PUSH1 0x14 PUSH2 0x35C2 JUMP JUMPDEST PUSH2 0x2F89 DUP4 PUSH1 0x20 PUSH2 0x35C2 JUMP JUMPDEST PUSH1 0x40 MLOAD PUSH1 0x20 ADD PUSH2 0x2F9A SWAP3 SWAP2 SWAP1 PUSH2 0x4B4F JUMP JUMPDEST PUSH1 0x40 DUP1 MLOAD PUSH1 0x1F NOT DUP2 DUP5 SUB ADD DUP2 MSTORE SWAP1 DUP3 SWAP1 MSTORE PUSH3 0x461BCD PUSH1 0xE5 SHL DUP3 MSTORE PUSH2 0x714 SWAP2 PUSH1 0x4 ADD PUSH2 0x4970 JUMP JUMPDEST PUSH2 0x12EC DUP3 DUP3 PUSH2 0x3386 JUMP JUMPDEST PUSH1 0x0 DUP1 DUP1 PUSH1 0x1 PUSH1 0x1 PUSH1 0xA0 SHL SUB DUP9 AND PUSH1 0x0 DUP1 MLOAD PUSH1 0x20 PUSH2 0x4C46 DUP4 CODECOPY DUP2 MLOAD SWAP2 MSTORE EQ DUP1 ISZERO PUSH2 0x300B JUMPI POP PUSH1 0x1 PUSH1 0x1 PUSH1 0xA0 SHL SUB DUP8 AND PUSH1 0x0 DUP1 MLOAD PUSH1 0x20 PUSH2 0x4C46 DUP4 CODECOPY DUP2 MLOAD SWAP2 MSTORE EQ ISZERO JUMPDEST ISZERO PUSH2 0x30AA JUMPI PUSH1 0x1 PUSH1 0x1 PUSH1 0xA0 SHL SUB DUP8 AND PUSH1 0x0 SWAP1 DUP2 MSTORE PUSH1 0x3 PUSH1 0x20 MSTORE PUSH1 0x40 SWAP1 KECCAK256 SLOAD PUSH2 0x3033 SWAP1 DUP7 PUSH2 0x1827 JUMP JUMPDEST SWAP2 POP DUP6 DUP3 GT ISZERO PUSH1 0x40 MLOAD DUP1 PUSH1 0x40 ADD PUSH1 0x40 MSTORE DUP1 PUSH1 0x1 DUP2 MSTORE PUSH1 0x20 ADD PUSH1 0xB PUSH1 0xFB SHL DUP2 MSTORE POP SWAP1 PUSH2 0x3071 JUMPI PUSH1 0x40 MLOAD PUSH3 0x461BCD PUSH1 0xE5 SHL DUP2 MSTORE PUSH1 0x4 ADD PUSH2 0x714 SWAP2 SWAP1 PUSH2 0x4970 JUMP JUMPDEST POP PUSH1 0x1 PUSH1 0x1 PUSH1 0xA0 SHL SUB DUP10 AND ADDRESS EQ PUSH2 0x3097 JUMPI PUSH2 0x3097 PUSH1 0x1 PUSH1 0x1 PUSH1 0xA0 SHL SUB DUP10 AND DUP11 ADDRESS DUP6 PUSH2 0x3417 JUMP JUMPDEST PUSH2 0x30A3 DUP8 PUSH1 0x0 DUP7 PUSH2 0x375E JUMP JUMPDEST SWAP1 POP PUSH2 0x1000 JUMP JUMPDEST PUSH1 0x1 PUSH1 0x1 PUSH1 0xA0 SHL SUB DUP9 AND PUSH1 0x0 DUP1 MLOAD PUSH1 0x20 PUSH2 0x4C46 DUP4 CODECOPY DUP2 MLOAD SWAP2 MSTORE EQ DUP1 ISZERO SWAP1 PUSH2 0x30E7 JUMPI POP PUSH1 0x1 PUSH1 0x1 PUSH1 0xA0 SHL SUB DUP8 AND PUSH1 0x0 DUP1 MLOAD PUSH1 0x20 PUSH2 0x4C46 DUP4 CODECOPY DUP2 MLOAD SWAP2 MSTORE EQ JUMPDEST ISZERO PUSH2 0x317F JUMPI PUSH1 0x1 PUSH1 0x1 PUSH1 0xA0 SHL SUB DUP9 AND PUSH1 0x0 SWAP1 DUP2 MSTORE PUSH1 0x3 PUSH1 0x20 MSTORE PUSH1 0x40 SWAP1 KECCAK256 SLOAD PUSH2 0x310F SWAP1 DUP7 PUSH2 0x13C5 JUMP JUMPDEST SWAP2 POP DUP6 DUP3 GT ISZERO PUSH1 0x40 MLOAD DUP1 PUSH1 0x40 ADD PUSH1 0x40 MSTORE DUP1 PUSH1 0x1 DUP2 MSTORE PUSH1 0x20 ADD PUSH1 0x59 PUSH1 0xF8 SHL DUP2 MSTORE POP SWAP1 PUSH2 0x314D JUMPI PUSH1 0x40 MLOAD PUSH3 0x461BCD PUSH1 0xE5 SHL DUP2 MSTORE PUSH1 0x4 ADD PUSH2 0x714 SWAP2 SWAP1 PUSH2 0x4970 JUMP JUMPDEST POP PUSH1 0x1 PUSH1 0x1 PUSH1 0xA0 SHL SUB DUP10 AND ADDRESS EQ PUSH2 0x3173 JUMPI PUSH2 0x3173 PUSH1 0x1 PUSH1 0x1 PUSH1 0xA0 SHL SUB DUP10 AND DUP11 ADDRESS DUP6 PUSH2 0x3417 JUMP JUMPDEST PUSH2 0x30A3 DUP9 PUSH1 0x0 DUP7 PUSH2 0x3D56 JUMP JUMPDEST PUSH1 0x1 PUSH1 0x1 PUSH1 0xA0 SHL SUB DUP9 AND PUSH1 0x0 DUP1 MLOAD PUSH1 0x20 PUSH2 0x4C46 DUP4 CODECOPY DUP2 MLOAD SWAP2 MSTORE EQ DUP1 ISZERO SWAP1 PUSH2 0x31BD JUMPI POP PUSH1 0x1 PUSH1 0x1 PUSH1 0xA0 SHL SUB DUP8 AND PUSH1 0x0 DUP1 MLOAD PUSH1 0x20 PUSH2 0x4C46 DUP4 CODECOPY DUP2 MLOAD SWAP2 MSTORE EQ ISZERO JUMPDEST ISZERO PUSH2 0x1000 JUMPI PUSH1 0x1 PUSH1 0x1 PUSH1 0xA0 SHL SUB DUP8 AND PUSH1 0x0 SWAP1 DUP2 MSTORE PUSH1 0x3 PUSH1 0x20 MSTORE PUSH1 0x40 DUP2 KECCAK256 SLOAD PUSH2 0x31E5 SWAP1 DUP8 PUSH2 0x1827 JUMP JUMPDEST PUSH1 0x1 PUSH1 0x1 PUSH1 0xA0 SHL SUB DUP11 AND PUSH1 0x0 SWAP1 DUP2 MSTORE PUSH1 0x3 PUSH1 0x20 MSTORE PUSH1 0x40 SWAP1 KECCAK256 SLOAD SWAP1 SWAP2 POP PUSH2 0x320B SWAP1 DUP3 PUSH2 0x13C5 JUMP JUMPDEST SWAP3 POP DUP7 DUP4 GT ISZERO PUSH1 0x40 MLOAD DUP1 PUSH1 0x40 ADD PUSH1 0x40 MSTORE DUP1 PUSH1 0x1 DUP2 MSTORE PUSH1 0x20 ADD PUSH1 0x59 PUSH1 0xF8 SHL DUP2 MSTORE POP SWAP1 PUSH2 0x3249 JUMPI PUSH1 0x40 MLOAD PUSH3 0x461BCD PUSH1 0xE5 SHL DUP2 MSTORE PUSH1 0x4 ADD PUSH2 0x714 SWAP2 SWAP1 PUSH2 0x4970 JUMP JUMPDEST POP PUSH1 0x1 PUSH1 0x1 PUSH1 0xA0 SHL SUB DUP11 AND ADDRESS EQ PUSH2 0x326F JUMPI PUSH2 0x326F PUSH1 0x1 PUSH1 0x1 PUSH1 0xA0 SHL SUB DUP11 AND DUP12 ADDRESS DUP7 PUSH2 0x3417 JUMP JUMPDEST PUSH2 0x327B DUP10 PUSH1 0x0 DUP1 PUSH2 0x3D56 JUMP JUMPDEST POP PUSH2 0x3288 DUP9 PUSH1 0x0 DUP8 PUSH2 0x375E JUMP JUMPDEST SWAP11 SWAP10 POP POP POP POP POP POP POP POP POP POP JUMP JUMPDEST PUSH1 0x0 PUSH1 0x1 PUSH1 0x1 PUSH1 0xA0 SHL SUB DUP8 AND ADDRESS EQ PUSH2 0x32BD JUMPI PUSH2 0x32BD PUSH1 0x1 PUSH1 0x1 PUSH1 0xA0 SHL SUB DUP8 AND DUP9 ADDRESS DUP8 PUSH2 0x3417 JUMP JUMPDEST PUSH1 0x0 PUSH1 0x1 PUSH1 0x1 PUSH1 0xA0 SHL SUB DUP8 AND PUSH1 0x0 DUP1 MLOAD PUSH1 0x20 PUSH2 0x4C46 DUP4 CODECOPY DUP2 MLOAD SWAP2 MSTORE EQ DUP1 ISZERO PUSH2 0x32FC JUMPI POP PUSH1 0x1 PUSH1 0x1 PUSH1 0xA0 SHL SUB DUP7 AND PUSH1 0x0 DUP1 MLOAD PUSH1 0x20 PUSH2 0x4C46 DUP4 CODECOPY DUP2 MLOAD SWAP2 MSTORE EQ ISZERO JUMPDEST ISZERO PUSH2 0x3313 JUMPI PUSH2 0x330C DUP7 DUP6 DUP6 PUSH2 0x375E JUMP JUMPDEST SWAP1 POP PUSH2 0x337B JUMP JUMPDEST PUSH1 0x1 PUSH1 0x1 PUSH1 0xA0 SHL SUB DUP8 AND PUSH1 0x0 DUP1 MLOAD PUSH1 0x20 PUSH2 0x4C46 DUP4 CODECOPY DUP2 MLOAD SWAP2 MSTORE EQ DUP1 ISZERO SWAP1 PUSH2 0x3350 JUMPI POP PUSH1 0x1 PUSH1 0x1 PUSH1 0xA0 SHL SUB DUP7 AND PUSH1 0x0 DUP1 MLOAD PUSH1 0x20 PUSH2 0x4C46 DUP4 CODECOPY DUP2 MLOAD SWAP2 MSTORE EQ JUMPDEST ISZERO PUSH2 0x3360 JUMPI PUSH2 0x330C DUP8 DUP6 DUP6 PUSH2 0x3D56 JUMP JUMPDEST PUSH2 0x336C DUP8 PUSH1 0x0 DUP1 PUSH2 0x3D56 JUMP JUMPDEST POP PUSH2 0x3378 DUP7 DUP6 DUP6 PUSH2 0x375E JUMP JUMPDEST SWAP1 POP JUMPDEST SWAP8 SWAP7 POP POP POP POP POP POP POP JUMP JUMPDEST PUSH2 0x3390 DUP3 DUP3 PUSH2 0x2DB5 JUMP JUMPDEST PUSH1 0x0 DUP3 DUP2 MSTORE PUSH1 0x1 PUSH1 0x20 MSTORE PUSH1 0x40 SWAP1 KECCAK256 PUSH2 0x126D SWAP1 DUP3 PUSH2 0x2E39 JUMP JUMPDEST PUSH2 0x33B2 DUP3 DUP3 PUSH2 0x4222 JUMP JUMPDEST PUSH1 0x0 DUP3 DUP2 MSTORE PUSH1 0x1 PUSH1 0x20 MSTORE PUSH1 0x40 SWAP1 KECCAK256 PUSH2 0x126D SWAP1 DUP3 PUSH2 0x4287 JUMP JUMPDEST PUSH1 0x0 DUP1 PUSH2 0x33D7 DUP7 DUP6 PUSH2 0x49E8 JUMP JUMPDEST PUSH2 0x33E1 SWAP1 DUP5 PUSH2 0x49FF JUMP JUMPDEST PUSH2 0x2710 PUSH2 0x33EE DUP9 DUP9 PUSH2 0x49FF JUMP JUMPDEST PUSH2 0x33F8 SWAP2 SWAP1 PUSH2 0x49FF JUMP JUMPDEST PUSH2 0x3402 SWAP2 SWAP1 PUSH2 0x4A34 JUMP JUMPDEST PUSH2 0x340D SWAP1 PUSH1 0x1 PUSH2 0x4A48 JUMP JUMPDEST SWAP7 SWAP6 POP POP POP POP POP POP JUMP JUMPDEST PUSH1 0x40 MLOAD PUSH1 0x1 PUSH1 0x1 PUSH1 0xA0 SHL SUB DUP1 DUP6 AND PUSH1 0x24 DUP4 ADD MSTORE DUP4 AND PUSH1 0x44 DUP3 ADD MSTORE PUSH1 0x64 DUP2 ADD DUP3 SWAP1 MSTORE PUSH2 0xE79 SWAP1 DUP6 SWAP1 PUSH4 0x23B872DD PUSH1 0xE0 SHL SWAP1 PUSH1 0x84 ADD PUSH2 0x2F25 JUMP JUMPDEST PUSH1 0x0 PUSH2 0x1444 DUP4 DUP4 PUSH2 0x429C JUMP JUMPDEST PUSH1 0x0 PUSH2 0xF25 DUP3 SLOAD SWAP1 JUMP JUMPDEST PUSH1 0x0 DUP1 PUSH2 0x3472 DUP4 DUP8 PUSH2 0x49FF JUMP JUMPDEST SWAP1 POP PUSH1 0x0 DUP2 PUSH2 0x3483 PUSH2 0x2710 DUP9 PUSH2 0x49FF JUMP JUMPDEST PUSH2 0x348D SWAP2 SWAP1 PUSH2 0x4A48 JUMP JUMPDEST PUSH2 0x3497 DUP4 DUP8 PUSH2 0x49FF JUMP JUMPDEST PUSH2 0x337B SWAP2 SWAP1 PUSH2 0x4A34 JUMP JUMPDEST PUSH1 0x0 DUP2 DUP2 MSTORE PUSH1 0x1 DUP4 ADD PUSH1 0x20 MSTORE PUSH1 0x40 DUP2 KECCAK256 SLOAD PUSH2 0x34E8 JUMPI POP DUP2 SLOAD PUSH1 0x1 DUP2 DUP2 ADD DUP5 SSTORE PUSH1 0x0 DUP5 DUP2 MSTORE PUSH1 0x20 DUP1 DUP3 KECCAK256 SWAP1 SWAP4 ADD DUP5 SWAP1 SSTORE DUP5 SLOAD DUP5 DUP3 MSTORE DUP3 DUP7 ADD SWAP1 SWAP4 MSTORE PUSH1 0x40 SWAP1 KECCAK256 SWAP2 SWAP1 SWAP2 SSTORE PUSH2 0xF25 JUMP JUMPDEST POP PUSH1 0x0 PUSH2 0xF25 JUMP JUMPDEST PUSH1 0x0 PUSH2 0x3545 DUP3 PUSH1 0x40 MLOAD DUP1 PUSH1 0x40 ADD PUSH1 0x40 MSTORE DUP1 PUSH1 0x20 DUP2 MSTORE PUSH1 0x20 ADD PUSH32 0x5361666545524332303A206C6F772D6C6576656C2063616C6C206661696C6564 DUP2 MSTORE POP DUP6 PUSH1 0x1 PUSH1 0x1 PUSH1 0xA0 SHL SUB AND PUSH2 0x42C6 SWAP1 SWAP3 SWAP2 SWAP1 PUSH4 0xFFFFFFFF AND JUMP JUMPDEST DUP1 MLOAD SWAP1 SWAP2 POP ISZERO PUSH2 0x126D JUMPI DUP1 DUP1 PUSH1 0x20 ADD SWAP1 MLOAD DUP2 ADD SWAP1 PUSH2 0x3563 SWAP2 SWAP1 PUSH2 0x4BC4 JUMP JUMPDEST PUSH2 0x126D JUMPI PUSH1 0x40 MLOAD PUSH3 0x461BCD PUSH1 0xE5 SHL DUP2 MSTORE PUSH1 0x20 PUSH1 0x4 DUP3 ADD MSTORE PUSH1 0x2A PUSH1 0x24 DUP3 ADD MSTORE PUSH32 0x5361666545524332303A204552433230206F7065726174696F6E20646964206E PUSH1 0x44 DUP3 ADD MSTORE PUSH10 0x1BDD081CDD58D8D95959 PUSH1 0xB2 SHL PUSH1 0x64 DUP3 ADD MSTORE PUSH1 0x84 ADD PUSH2 0x714 JUMP JUMPDEST PUSH1 0x60 PUSH1 0x0 PUSH2 0x35D1 DUP4 PUSH1 0x2 PUSH2 0x49FF JUMP JUMPDEST PUSH2 0x35DC SWAP1 PUSH1 0x2 PUSH2 0x4A48 JUMP JUMPDEST PUSH8 0xFFFFFFFFFFFFFFFF DUP2 GT ISZERO PUSH2 0x35F4 JUMPI PUSH2 0x35F4 PUSH2 0x4BE6 JUMP JUMPDEST PUSH1 0x40 MLOAD SWAP1 DUP1 DUP3 MSTORE DUP1 PUSH1 0x1F ADD PUSH1 0x1F NOT AND PUSH1 0x20 ADD DUP3 ADD PUSH1 0x40 MSTORE DUP1 ISZERO PUSH2 0x361E JUMPI PUSH1 0x20 DUP3 ADD DUP2 DUP1 CALLDATASIZE DUP4 CALLDATACOPY ADD SWAP1 POP JUMPDEST POP SWAP1 POP PUSH1 0x3 PUSH1 0xFC SHL DUP2 PUSH1 0x0 DUP2 MLOAD DUP2 LT PUSH2 0x3639 JUMPI PUSH2 0x3639 PUSH2 0x49BC JUMP JUMPDEST PUSH1 0x20 ADD ADD SWAP1 PUSH1 0x1 PUSH1 0x1 PUSH1 0xF8 SHL SUB NOT AND SWAP1 DUP2 PUSH1 0x0 BYTE SWAP1 MSTORE8 POP PUSH1 0xF PUSH1 0xFB SHL DUP2 PUSH1 0x1 DUP2 MLOAD DUP2 LT PUSH2 0x3668 JUMPI PUSH2 0x3668 PUSH2 0x49BC JUMP JUMPDEST PUSH1 0x20 ADD ADD SWAP1 PUSH1 0x1 PUSH1 0x1 PUSH1 0xF8 SHL SUB NOT AND SWAP1 DUP2 PUSH1 0x0 BYTE SWAP1 MSTORE8 POP PUSH1 0x0 PUSH2 0x368C DUP5 PUSH1 0x2 PUSH2 0x49FF JUMP JUMPDEST PUSH2 0x3697 SWAP1 PUSH1 0x1 PUSH2 0x4A48 JUMP JUMPDEST SWAP1 POP JUMPDEST PUSH1 0x1 DUP2 GT ISZERO PUSH2 0x370F JUMPI PUSH16 0x181899199A1A9B1B9C1CB0B131B232B3 PUSH1 0x81 SHL DUP6 PUSH1 0xF AND PUSH1 0x10 DUP2 LT PUSH2 0x36CB JUMPI PUSH2 0x36CB PUSH2 0x49BC JUMP JUMPDEST BYTE PUSH1 0xF8 SHL DUP3 DUP3 DUP2 MLOAD DUP2 LT PUSH2 0x36E1 JUMPI PUSH2 0x36E1 PUSH2 0x49BC JUMP JUMPDEST PUSH1 0x20 ADD ADD SWAP1 PUSH1 0x1 PUSH1 0x1 PUSH1 0xF8 SHL SUB NOT AND SWAP1 DUP2 PUSH1 0x0 BYTE SWAP1 MSTORE8 POP PUSH1 0x4 SWAP5 SWAP1 SWAP5 SHR SWAP4 PUSH2 0x3708 DUP2 PUSH2 0x4BFC JUMP JUMPDEST SWAP1 POP PUSH2 0x369A JUMP JUMPDEST POP DUP4 ISZERO PUSH2 0x1444 JUMPI PUSH1 0x40 MLOAD PUSH3 0x461BCD PUSH1 0xE5 SHL DUP2 MSTORE PUSH1 0x20 PUSH1 0x4 DUP3 ADD DUP2 SWAP1 MSTORE PUSH1 0x24 DUP3 ADD MSTORE PUSH32 0x537472696E67733A20686578206C656E67746820696E73756666696369656E74 PUSH1 0x44 DUP3 ADD MSTORE PUSH1 0x64 ADD PUSH2 0x714 JUMP JUMPDEST PUSH1 0x1 PUSH1 0x1 PUSH1 0xA0 SHL SUB DUP4 AND PUSH1 0x0 SWAP1 DUP2 MSTORE PUSH1 0x3 PUSH1 0x20 MSTORE PUSH1 0x40 DUP1 DUP3 KECCAK256 SLOAD SWAP1 MLOAD PUSH4 0x70A08231 PUSH1 0xE0 SHL DUP2 MSTORE ADDRESS PUSH1 0x4 DUP3 ADD MSTORE DUP3 SWAP1 PUSH1 0x0 DUP1 MLOAD PUSH1 0x20 PUSH2 0x4C46 DUP4 CODECOPY DUP2 MLOAD SWAP2 MSTORE SWAP1 PUSH4 0x70A08231 SWAP1 PUSH1 0x24 ADD PUSH1 0x20 PUSH1 0x40 MLOAD DUP1 DUP4 SUB DUP2 DUP7 GAS STATICCALL ISZERO DUP1 ISZERO PUSH2 0x37C2 JUMPI RETURNDATASIZE PUSH1 0x0 DUP1 RETURNDATACOPY RETURNDATASIZE PUSH1 0x0 REVERT JUMPDEST POP POP POP POP PUSH1 0x40 MLOAD RETURNDATASIZE PUSH1 0x1F NOT PUSH1 0x1F DUP3 ADD AND DUP3 ADD DUP1 PUSH1 0x40 MSTORE POP DUP2 ADD SWAP1 PUSH2 0x37E6 SWAP2 SWAP1 PUSH2 0x49A3 JUMP JUMPDEST SWAP1 POP PUSH1 0x0 PUSH1 0x4 SLOAD DUP3 PUSH2 0x37F8 SWAP2 SWAP1 PUSH2 0x49E8 JUMP JUMPDEST SWAP1 POP PUSH1 0x0 DUP2 GT PUSH1 0x40 MLOAD DUP1 PUSH1 0x40 ADD PUSH1 0x40 MSTORE DUP1 PUSH1 0x1 DUP2 MSTORE PUSH1 0x20 ADD PUSH1 0x55 PUSH1 0xF8 SHL DUP2 MSTORE POP SWAP1 PUSH2 0x3836 JUMPI PUSH1 0x40 MLOAD PUSH3 0x461BCD PUSH1 0xE5 SHL DUP2 MSTORE PUSH1 0x4 ADD PUSH2 0x714 SWAP2 SWAP1 PUSH2 0x4970 JUMP JUMPDEST POP PUSH1 0x40 MLOAD PUSH4 0x70A08231 PUSH1 0xE0 SHL DUP2 MSTORE ADDRESS PUSH1 0x4 DUP3 ADD MSTORE PUSH1 0x0 SWAP1 PUSH1 0x1 PUSH1 0x1 PUSH1 0xA0 SHL SUB DUP10 AND SWAP1 PUSH4 0x70A08231 SWAP1 PUSH1 0x24 ADD PUSH1 0x20 PUSH1 0x40 MLOAD DUP1 DUP4 SUB DUP2 DUP7 GAS STATICCALL ISZERO DUP1 ISZERO PUSH2 0x387E JUMPI RETURNDATASIZE PUSH1 0x0 DUP1 RETURNDATACOPY RETURNDATASIZE PUSH1 0x0 REVERT JUMPDEST POP POP POP POP PUSH1 0x40 MLOAD RETURNDATASIZE PUSH1 0x1F NOT PUSH1 0x1F DUP3 ADD AND DUP3 ADD DUP1 PUSH1 0x40 MSTORE POP DUP2 ADD SWAP1 PUSH2 0x38A2 SWAP2 SWAP1 PUSH2 0x49A3 JUMP JUMPDEST SWAP1 POP PUSH1 0x0 PUSH1 0x2 DUP6 DUP2 SLOAD DUP2 LT PUSH2 0x38B9 JUMPI PUSH2 0x38B9 PUSH2 0x49BC JUMP JUMPDEST PUSH1 0x0 SWAP2 DUP3 MSTORE PUSH1 0x20 SWAP1 SWAP2 KECCAK256 PUSH1 0x1 PUSH1 0x4 SWAP1 SWAP3 MUL ADD ADD SLOAD PUSH2 0x38E0 SWAP1 PUSH1 0x1 PUSH1 0x1 PUSH1 0x70 SHL SUB AND DUP4 PUSH2 0x49E8 JUMP JUMPDEST SWAP1 POP PUSH1 0x0 PUSH2 0x38EE DUP7 DUP6 PUSH2 0x2C70 JUMP JUMPDEST SWAP1 POP DUP9 DUP2 LT ISZERO PUSH1 0x40 MLOAD DUP1 PUSH1 0x40 ADD PUSH1 0x40 MSTORE DUP1 PUSH1 0x1 DUP2 MSTORE PUSH1 0x20 ADD PUSH1 0x27 PUSH1 0xF9 SHL DUP2 MSTORE POP SWAP1 PUSH2 0x392C JUMPI PUSH1 0x40 MLOAD PUSH3 0x461BCD PUSH1 0xE5 SHL DUP2 MSTORE PUSH1 0x4 ADD PUSH2 0x714 SWAP2 SWAP1 PUSH2 0x4970 JUMP JUMPDEST POP DUP4 PUSH1 0x4 PUSH1 0x0 DUP3 DUP3 SLOAD PUSH2 0x393F SWAP2 SWAP1 PUSH2 0x4A48 JUMP JUMPDEST SWAP3 POP POP DUP2 SWAP1 SSTORE POP DUP4 PUSH1 0x2 DUP8 DUP2 SLOAD DUP2 LT PUSH2 0x395A JUMPI PUSH2 0x395A PUSH2 0x49BC JUMP JUMPDEST SWAP1 PUSH1 0x0 MSTORE PUSH1 0x20 PUSH1 0x0 KECCAK256 SWAP1 PUSH1 0x4 MUL ADD PUSH1 0x1 ADD PUSH1 0xE DUP3 DUP3 DUP3 SWAP1 SLOAD SWAP1 PUSH2 0x100 EXP SWAP1 DIV PUSH1 0x1 PUSH1 0x1 PUSH1 0x70 SHL SUB AND PUSH2 0x398C SWAP2 SWAP1 PUSH2 0x4A60 JUMP JUMPDEST SWAP3 POP PUSH2 0x100 EXP DUP2 SLOAD DUP2 PUSH1 0x1 PUSH1 0x1 PUSH1 0x70 SHL SUB MUL NOT AND SWAP1 DUP4 PUSH1 0x1 PUSH1 0x1 PUSH1 0x70 SHL SUB AND MUL OR SWAP1 SSTORE POP DUP1 DUP3 PUSH1 0x2 DUP9 DUP2 SLOAD DUP2 LT PUSH2 0x39C5 JUMPI PUSH2 0x39C5 PUSH2 0x49BC JUMP JUMPDEST PUSH1 0x0 SWAP2 DUP3 MSTORE PUSH1 0x20 SWAP1 SWAP2 KECCAK256 PUSH1 0x1 PUSH1 0x4 SWAP1 SWAP3 MUL ADD ADD SLOAD PUSH2 0x39EC SWAP2 SWAP1 PUSH1 0x1 PUSH1 0x1 PUSH1 0x70 SHL SUB AND PUSH2 0x4A60 JUMP JUMPDEST PUSH2 0x39F6 SWAP2 SWAP1 PUSH2 0x4A8B JUMP JUMPDEST PUSH1 0x2 DUP8 DUP2 SLOAD DUP2 LT PUSH2 0x3A09 JUMPI PUSH2 0x3A09 PUSH2 0x49BC JUMP JUMPDEST SWAP1 PUSH1 0x0 MSTORE PUSH1 0x20 PUSH1 0x0 KECCAK256 SWAP1 PUSH1 0x4 MUL ADD PUSH1 0x1 ADD PUSH1 0x0 PUSH2 0x100 EXP DUP2 SLOAD DUP2 PUSH1 0x1 PUSH1 0x1 PUSH1 0x70 SHL SUB MUL NOT AND SWAP1 DUP4 PUSH1 0x1 PUSH1 0x1 PUSH1 0x70 SHL SUB AND MUL OR SWAP1 SSTORE POP PUSH1 0x0 PUSH2 0x3A48 PUSH2 0x2120 JUMP JUMPDEST SWAP1 POP PUSH1 0x0 PUSH1 0x2 DUP9 DUP2 SLOAD DUP2 LT PUSH2 0x3A5F JUMPI PUSH2 0x3A5F PUSH2 0x49BC JUMP JUMPDEST POP PUSH1 0x0 MSTORE PUSH1 0x8 PUSH2 0x3A6D PUSH2 0x2120 JUMP JUMPDEST PUSH2 0x3A78 SWAP1 PUSH1 0x1 PUSH2 0x4A48 JUMP JUMPDEST PUSH2 0x3A82 SWAP2 SWAP1 PUSH2 0x4B0C JUMP JUMPDEST SWAP1 POP PUSH8 0xDE0B6B3A7640000 DUP7 DIV PUSH1 0x2 DUP10 DUP2 SLOAD DUP2 LT PUSH2 0x3AA2 JUMPI PUSH2 0x3AA2 PUSH2 0x49BC JUMP JUMPDEST SWAP1 PUSH1 0x0 MSTORE PUSH1 0x20 PUSH1 0x0 KECCAK256 SWAP1 PUSH1 0x4 MUL ADD PUSH1 0x3 ADD DUP4 PUSH1 0x8 DUP2 LT PUSH2 0x3AC4 JUMPI PUSH2 0x3AC4 PUSH2 0x49BC JUMP JUMPDEST PUSH1 0x8 SWAP2 DUP3 DUP3 DIV ADD SWAP2 SWAP1 MOD PUSH1 0x4 MUL DUP3 DUP3 DUP3 SWAP1 SLOAD SWAP1 PUSH2 0x100 EXP SWAP1 DIV PUSH4 0xFFFFFFFF AND ADD SWAP3 POP PUSH2 0x100 EXP DUP2 SLOAD DUP2 PUSH4 0xFFFFFFFF MUL NOT AND SWAP1 DUP4 PUSH4 0xFFFFFFFF AND MUL OR SWAP1 SSTORE POP PUSH1 0x0 PUSH1 0x2 DUP10 DUP2 SLOAD DUP2 LT PUSH2 0x3B17 JUMPI PUSH2 0x3B17 PUSH2 0x49BC JUMP JUMPDEST SWAP1 PUSH1 0x0 MSTORE PUSH1 0x20 PUSH1 0x0 KECCAK256 SWAP1 PUSH1 0x4 MUL ADD PUSH1 0x3 ADD DUP3 PUSH1 0x8 DUP2 LT PUSH2 0x3B39 JUMPI PUSH2 0x3B39 PUSH2 0x49BC JUMP JUMPDEST PUSH1 0x8 SWAP2 DUP3 DUP3 DIV ADD SWAP2 SWAP1 MOD PUSH1 0x4 MUL SWAP1 SLOAD SWAP1 PUSH2 0x100 EXP SWAP1 DIV PUSH4 0xFFFFFFFF AND PUSH4 0xFFFFFFFF AND GT ISZERO PUSH2 0x3BC2 JUMPI PUSH1 0x0 PUSH1 0x2 DUP10 DUP2 SLOAD DUP2 LT PUSH2 0x3B76 JUMPI PUSH2 0x3B76 PUSH2 0x49BC JUMP JUMPDEST SWAP1 PUSH1 0x0 MSTORE PUSH1 0x20 PUSH1 0x0 KECCAK256 SWAP1 PUSH1 0x4 MUL ADD PUSH1 0x3 ADD DUP3 PUSH1 0x8 DUP2 LT PUSH2 0x3B98 JUMPI PUSH2 0x3B98 PUSH2 0x49BC JUMP JUMPDEST PUSH1 0x8 SWAP2 DUP3 DUP3 DIV ADD SWAP2 SWAP1 MOD PUSH1 0x4 MUL PUSH2 0x100 EXP DUP2 SLOAD DUP2 PUSH4 0xFFFFFFFF MUL NOT AND SWAP1 DUP4 PUSH4 0xFFFFFFFF AND MUL OR SWAP1 SSTORE POP JUMPDEST PUSH1 0x1 PUSH1 0x1 PUSH1 0xA0 SHL SUB DUP11 AND ISZERO PUSH2 0x3C58 JUMPI PUSH1 0x40 MLOAD PUSH4 0x23B872DD PUSH1 0xE0 SHL DUP2 MSTORE PUSH1 0x1 PUSH1 0x1 PUSH1 0xA0 SHL SUB DUP12 AND PUSH1 0x4 DUP3 ADD MSTORE ADDRESS PUSH1 0x24 DUP3 ADD MSTORE PUSH1 0x44 DUP2 ADD DUP8 SWAP1 MSTORE PUSH1 0x0 DUP1 MLOAD PUSH1 0x20 PUSH2 0x4C46 DUP4 CODECOPY DUP2 MLOAD SWAP2 MSTORE SWAP1 PUSH4 0x23B872DD SWAP1 PUSH1 0x64 ADD PUSH1 0x20 PUSH1 0x40 MLOAD DUP1 DUP4 SUB DUP2 PUSH1 0x0 DUP8 GAS CALL ISZERO DUP1 ISZERO PUSH2 0x3C32 JUMPI RETURNDATASIZE PUSH1 0x0 DUP1 RETURNDATACOPY RETURNDATASIZE PUSH1 0x0 REVERT JUMPDEST POP POP POP POP PUSH1 0x40 MLOAD RETURNDATASIZE PUSH1 0x1F NOT PUSH1 0x1F DUP3 ADD AND DUP3 ADD DUP1 PUSH1 0x40 MSTORE POP DUP2 ADD SWAP1 PUSH2 0x3C56 SWAP2 SWAP1 PUSH2 0x4BC4 JUMP JUMPDEST POP JUMPDEST PUSH2 0x3C6C PUSH1 0x1 PUSH1 0x1 PUSH1 0xA0 SHL SUB DUP14 AND DUP12 DUP6 PUSH2 0x2EF9 JUMP JUMPDEST PUSH1 0x40 MLOAD PUSH4 0x70A08231 PUSH1 0xE0 SHL DUP2 MSTORE ADDRESS PUSH1 0x4 DUP3 ADD MSTORE PUSH1 0x0 SWAP1 PUSH1 0x1 PUSH1 0x1 PUSH1 0xA0 SHL SUB DUP15 AND SWAP1 PUSH4 0x70A08231 SWAP1 PUSH1 0x24 ADD PUSH1 0x20 PUSH1 0x40 MLOAD DUP1 DUP4 SUB DUP2 DUP7 GAS STATICCALL ISZERO DUP1 ISZERO PUSH2 0x3CB3 JUMPI RETURNDATASIZE PUSH1 0x0 DUP1 RETURNDATACOPY RETURNDATASIZE PUSH1 0x0 REVERT JUMPDEST POP POP POP POP PUSH1 0x40 MLOAD RETURNDATASIZE PUSH1 0x1F NOT PUSH1 0x1F DUP3 ADD AND DUP3 ADD DUP1 PUSH1 0x40 MSTORE POP DUP2 ADD SWAP1 PUSH2 0x3CD7 SWAP2 SWAP1 PUSH2 0x49A3 JUMP JUMPDEST SWAP1 POP PUSH1 0x2 DUP10 DUP2 SLOAD DUP2 LT PUSH2 0x3CEC JUMPI PUSH2 0x3CEC PUSH2 0x49BC JUMP JUMPDEST PUSH1 0x0 SWAP2 DUP3 MSTORE PUSH1 0x20 SWAP2 DUP3 SWAP1 KECCAK256 PUSH1 0x1 PUSH1 0x4 SWAP1 SWAP3 MUL ADD DUP2 ADD SLOAD PUSH1 0x40 DUP1 MLOAD DUP1 DUP3 ADD SWAP1 SWAP2 MSTORE SWAP2 DUP3 MSTORE PUSH1 0x23 PUSH1 0xF9 SHL SWAP3 DUP3 ADD SWAP3 SWAP1 SWAP3 MSTORE SWAP1 PUSH1 0x1 PUSH1 0x1 PUSH1 0x70 SHL SUB AND DUP3 EQ PUSH2 0x3D44 JUMPI PUSH1 0x40 MLOAD PUSH3 0x461BCD PUSH1 0xE5 SHL DUP2 MSTORE PUSH1 0x4 ADD PUSH2 0x714 SWAP2 SWAP1 PUSH2 0x4970 JUMP JUMPDEST POP SWAP3 SWAP13 SWAP12 POP POP POP POP POP POP POP POP POP POP POP POP JUMP JUMPDEST PUSH1 0x1 PUSH1 0x1 PUSH1 0xA0 SHL SUB DUP4 AND PUSH1 0x0 DUP2 DUP2 MSTORE PUSH1 0x3 PUSH1 0x20 MSTORE PUSH1 0x40 DUP1 DUP3 KECCAK256 SLOAD SWAP1 MLOAD PUSH4 0x70A08231 PUSH1 0xE0 SHL DUP2 MSTORE ADDRESS PUSH1 0x4 DUP3 ADD MSTORE SWAP2 SWAP3 SWAP1 SWAP2 DUP4 SWAP2 SWAP1 PUSH4 0x70A08231 SWAP1 PUSH1 0x24 ADD PUSH1 0x20 PUSH1 0x40 MLOAD DUP1 DUP4 SUB DUP2 DUP7 GAS STATICCALL ISZERO DUP1 ISZERO PUSH2 0x3DAF JUMPI RETURNDATASIZE PUSH1 0x0 DUP1 RETURNDATACOPY RETURNDATASIZE PUSH1 0x0 REVERT JUMPDEST POP POP POP POP PUSH1 0x40 MLOAD RETURNDATASIZE PUSH1 0x1F NOT PUSH1 0x1F DUP3 ADD AND DUP3 ADD DUP1 PUSH1 0x40 MSTORE POP DUP2 ADD SWAP1 PUSH2 0x3DD3 SWAP2 SWAP1 PUSH2 0x49A3 JUMP JUMPDEST SWAP1 POP PUSH1 0x0 PUSH1 0x2 DUP4 DUP2 SLOAD DUP2 LT PUSH2 0x3DEA JUMPI PUSH2 0x3DEA PUSH2 0x49BC JUMP JUMPDEST PUSH1 0x0 SWAP2 DUP3 MSTORE PUSH1 0x20 SWAP1 SWAP2 KECCAK256 PUSH1 0x1 PUSH1 0x4 SWAP1 SWAP3 MUL ADD ADD SLOAD PUSH2 0x3E11 SWAP1 PUSH1 0x1 PUSH1 0x1 PUSH1 0x70 SHL SUB AND DUP4 PUSH2 0x49E8 JUMP JUMPDEST SWAP1 POP PUSH1 0x0 DUP2 GT PUSH1 0x40 MLOAD DUP1 PUSH1 0x40 ADD PUSH1 0x40 MSTORE DUP1 PUSH1 0x1 DUP2 MSTORE PUSH1 0x20 ADD PUSH1 0x2D PUSH1 0xF9 SHL DUP2 MSTORE POP SWAP1 PUSH2 0x3E4F JUMPI PUSH1 0x40 MLOAD PUSH3 0x461BCD PUSH1 0xE5 SHL DUP2 MSTORE PUSH1 0x4 ADD PUSH2 0x714 SWAP2 SWAP1 PUSH2 0x4970 JUMP JUMPDEST POP PUSH1 0x40 MLOAD PUSH4 0x70A08231 PUSH1 0xE0 SHL DUP2 MSTORE ADDRESS PUSH1 0x4 DUP3 ADD MSTORE PUSH1 0x0 SWAP1 PUSH1 0x0 DUP1 MLOAD PUSH1 0x20 PUSH2 0x4C46 DUP4 CODECOPY DUP2 MLOAD SWAP2 MSTORE SWAP1 PUSH4 0x70A08231 SWAP1 PUSH1 0x24 ADD PUSH1 0x20 PUSH1 0x40 MLOAD DUP1 DUP4 SUB DUP2 DUP7 GAS STATICCALL ISZERO DUP1 ISZERO PUSH2 0x3E9C JUMPI RETURNDATASIZE PUSH1 0x0 DUP1 RETURNDATACOPY RETURNDATASIZE PUSH1 0x0 REVERT JUMPDEST POP POP POP POP PUSH1 0x40 MLOAD RETURNDATASIZE PUSH1 0x1F NOT PUSH1 0x1F DUP3 ADD AND DUP3 ADD DUP1 PUSH1 0x40 MSTORE POP DUP2 ADD SWAP1 PUSH2 0x3EC0 SWAP2 SWAP1 PUSH2 0x49A3 JUMP JUMPDEST SWAP1 POP PUSH1 0x0 PUSH1 0x4 SLOAD DUP3 PUSH2 0x3ED2 SWAP2 SWAP1 PUSH2 0x49E8 JUMP JUMPDEST SWAP1 POP PUSH1 0x0 PUSH2 0x3EE0 DUP7 DUP6 PUSH2 0x2537 JUMP JUMPDEST SWAP1 POP DUP9 DUP2 LT ISZERO PUSH1 0x40 MLOAD DUP1 PUSH1 0x40 ADD PUSH1 0x40 MSTORE DUP1 PUSH1 0x1 DUP2 MSTORE PUSH1 0x20 ADD PUSH1 0x4D PUSH1 0xF8 SHL DUP2 MSTORE POP SWAP1 PUSH2 0x3F1E JUMPI PUSH1 0x40 MLOAD PUSH3 0x461BCD PUSH1 0xE5 SHL DUP2 MSTORE PUSH1 0x4 ADD PUSH2 0x714 SWAP2 SWAP1 PUSH2 0x4970 JUMP JUMPDEST POP DUP1 DUP3 PUSH1 0x4 SLOAD PUSH2 0x3F2E SWAP2 SWAP1 PUSH2 0x4A48 JUMP JUMPDEST PUSH2 0x3F38 SWAP2 SWAP1 PUSH2 0x49E8 JUMP JUMPDEST PUSH1 0x4 DUP2 SWAP1 SSTORE POP DUP1 DUP3 PUSH1 0x2 DUP9 DUP2 SLOAD DUP2 LT PUSH2 0x3F53 JUMPI PUSH2 0x3F53 PUSH2 0x49BC JUMP JUMPDEST SWAP1 PUSH1 0x0 MSTORE PUSH1 0x20 PUSH1 0x0 KECCAK256 SWAP1 PUSH1 0x4 MUL ADD PUSH1 0x1 ADD PUSH1 0xE SWAP1 SLOAD SWAP1 PUSH2 0x100 EXP SWAP1 DIV PUSH1 0x1 PUSH1 0x1 PUSH1 0x70 SHL SUB AND PUSH2 0x3F82 SWAP2 SWAP1 PUSH2 0x4A60 JUMP JUMPDEST PUSH2 0x3F8C SWAP2 SWAP1 PUSH2 0x4A8B JUMP JUMPDEST PUSH1 0x2 DUP8 DUP2 SLOAD DUP2 LT PUSH2 0x3F9F JUMPI PUSH2 0x3F9F PUSH2 0x49BC JUMP JUMPDEST SWAP1 PUSH1 0x0 MSTORE PUSH1 0x20 PUSH1 0x0 KECCAK256 SWAP1 PUSH1 0x4 MUL ADD PUSH1 0x1 ADD PUSH1 0xE PUSH2 0x100 EXP DUP2 SLOAD DUP2 PUSH1 0x1 PUSH1 0x1 PUSH1 0x70 SHL SUB MUL NOT AND SWAP1 DUP4 PUSH1 0x1 PUSH1 0x1 PUSH1 0x70 SHL SUB AND MUL OR SWAP1 SSTORE POP DUP5 PUSH1 0x2 DUP8 DUP2 SLOAD DUP2 LT PUSH2 0x3FE8 JUMPI PUSH2 0x3FE8 PUSH2 0x49BC JUMP JUMPDEST SWAP1 PUSH1 0x0 MSTORE PUSH1 0x20 PUSH1 0x0 KECCAK256 SWAP1 PUSH1 0x4 MUL ADD PUSH1 0x1 ADD PUSH1 0x0 PUSH2 0x100 EXP DUP2 SLOAD DUP2 PUSH1 0x1 PUSH1 0x1 PUSH1 0x70 SHL SUB MUL NOT AND SWAP1 DUP4 PUSH1 0x1 PUSH1 0x1 PUSH1 0x70 SHL SUB AND MUL OR SWAP1 SSTORE POP PUSH1 0x0 PUSH2 0x4027 PUSH2 0x2120 JUMP JUMPDEST SWAP1 POP PUSH1 0x0 PUSH1 0x8 PUSH2 0x4038 DUP4 PUSH1 0x1 PUSH2 0x4A48 JUMP JUMPDEST PUSH2 0x4042 SWAP2 SWAP1 PUSH2 0x4B0C JUMP JUMPDEST SWAP1 POP PUSH8 0xDE0B6B3A7640000 DUP4 DIV PUSH1 0x2 DUP10 DUP2 SLOAD DUP2 LT PUSH2 0x4062 JUMPI PUSH2 0x4062 PUSH2 0x49BC JUMP JUMPDEST SWAP1 PUSH1 0x0 MSTORE PUSH1 0x20 PUSH1 0x0 KECCAK256 SWAP1 PUSH1 0x4 MUL ADD PUSH1 0x3 ADD DUP4 PUSH1 0x8 DUP2 LT PUSH2 0x4084 JUMPI PUSH2 0x4084 PUSH2 0x49BC JUMP JUMPDEST PUSH1 0x8 SWAP2 DUP3 DUP3 DIV ADD SWAP2 SWAP1 MOD PUSH1 0x4 MUL DUP3 DUP3 DUP3 SWAP1 SLOAD SWAP1 PUSH2 0x100 EXP SWAP1 DIV PUSH4 0xFFFFFFFF AND ADD SWAP3 POP PUSH2 0x100 EXP DUP2 SLOAD DUP2 PUSH4 0xFFFFFFFF MUL NOT AND SWAP1 DUP4 PUSH4 0xFFFFFFFF AND MUL OR SWAP1 SSTORE POP PUSH1 0x0 PUSH1 0x2 DUP10 DUP2 SLOAD DUP2 LT PUSH2 0x40D7 JUMPI PUSH2 0x40D7 PUSH2 0x49BC JUMP JUMPDEST SWAP1 PUSH1 0x0 MSTORE PUSH1 0x20 PUSH1 0x0 KECCAK256 SWAP1 PUSH1 0x4 MUL ADD PUSH1 0x3 ADD DUP3 PUSH1 0x8 DUP2 LT PUSH2 0x40F9 JUMPI PUSH2 0x40F9 PUSH2 0x49BC JUMP JUMPDEST PUSH1 0x8 SWAP2 DUP3 DUP3 DIV ADD SWAP2 SWAP1 MOD PUSH1 0x4 MUL SWAP1 SLOAD SWAP1 PUSH2 0x100 EXP SWAP1 DIV PUSH4 0xFFFFFFFF AND PUSH4 0xFFFFFFFF AND GT ISZERO PUSH2 0x4182 JUMPI PUSH1 0x0 PUSH1 0x2 DUP10 DUP2 SLOAD DUP2 LT PUSH2 0x4136 JUMPI PUSH2 0x4136 PUSH2 0x49BC JUMP JUMPDEST SWAP1 PUSH1 0x0 MSTORE PUSH1 0x20 PUSH1 0x0 KECCAK256 SWAP1 PUSH1 0x4 MUL ADD PUSH1 0x3 ADD DUP3 PUSH1 0x8 DUP2 LT PUSH2 0x4158 JUMPI PUSH2 0x4158 PUSH2 0x49BC JUMP JUMPDEST PUSH1 0x8 SWAP2 DUP3 DUP3 DIV ADD SWAP2 SWAP1 MOD PUSH1 0x4 MUL PUSH2 0x100 EXP DUP2 SLOAD DUP2 PUSH4 0xFFFFFFFF MUL NOT AND SWAP1 DUP4 PUSH4 0xFFFFFFFF AND MUL OR SWAP1 SSTORE POP JUMPDEST PUSH1 0x1 PUSH1 0x1 PUSH1 0xA0 SHL SUB DUP11 AND ISZERO PUSH2 0x4212 JUMPI PUSH1 0x40 MLOAD PUSH4 0xA9059CBB PUSH1 0xE0 SHL DUP2 MSTORE PUSH1 0x1 PUSH1 0x1 PUSH1 0xA0 SHL SUB DUP12 AND PUSH1 0x4 DUP3 ADD MSTORE PUSH1 0x24 DUP2 ADD DUP5 SWAP1 MSTORE PUSH1 0x0 DUP1 MLOAD PUSH1 0x20 PUSH2 0x4C46 DUP4 CODECOPY DUP2 MLOAD SWAP2 MSTORE SWAP1 PUSH4 0xA9059CBB SWAP1 PUSH1 0x44 ADD PUSH1 0x20 PUSH1 0x40 MLOAD DUP1 DUP4 SUB DUP2 PUSH1 0x0 DUP8 GAS CALL ISZERO DUP1 ISZERO PUSH2 0x41EC JUMPI RETURNDATASIZE PUSH1 0x0 DUP1 RETURNDATACOPY RETURNDATASIZE PUSH1 0x0 REVERT JUMPDEST POP POP POP POP PUSH1 0x40 MLOAD RETURNDATASIZE PUSH1 0x1F NOT PUSH1 0x1F DUP3 ADD AND DUP3 ADD DUP1 PUSH1 0x40 MSTORE POP DUP2 ADD SWAP1 PUSH2 0x4210 SWAP2 SWAP1 PUSH2 0x4BC4 JUMP JUMPDEST POP JUMPDEST POP SWAP1 SWAP11 SWAP10 POP POP POP POP POP POP POP POP POP POP JUMP JUMPDEST PUSH2 0x422C DUP3 DUP3 PUSH2 0x1F48 JUMP JUMPDEST ISZERO PUSH2 0x12EC JUMPI PUSH1 0x0 DUP3 DUP2 MSTORE PUSH1 0x20 DUP2 DUP2 MSTORE PUSH1 0x40 DUP1 DUP4 KECCAK256 PUSH1 0x1 PUSH1 0x1 PUSH1 0xA0 SHL SUB DUP6 AND DUP1 DUP6 MSTORE SWAP3 MSTORE DUP1 DUP4 KECCAK256 DUP1 SLOAD PUSH1 0xFF NOT AND SWAP1 SSTORE MLOAD CALLER SWAP3 DUP6 SWAP2 PUSH32 0xF6391F5C32D9C69D2A47EA670B442974B53935D1EDC7FD64EB21E047A839171B SWAP2 SWAP1 LOG4 POP POP JUMP JUMPDEST PUSH1 0x0 PUSH2 0x1444 DUP4 PUSH1 0x1 PUSH1 0x1 PUSH1 0xA0 SHL SUB DUP5 AND PUSH2 0x42D5 JUMP JUMPDEST PUSH1 0x0 DUP3 PUSH1 0x0 ADD DUP3 DUP2 SLOAD DUP2 LT PUSH2 0x42B3 JUMPI PUSH2 0x42B3 PUSH2 0x49BC JUMP JUMPDEST SWAP1 PUSH1 0x0 MSTORE PUSH1 0x20 PUSH1 0x0 KECCAK256 ADD SLOAD SWAP1 POP SWAP3 SWAP2 POP POP JUMP JUMPDEST PUSH1 0x60 PUSH2 0x2EF1 DUP5 DUP5 PUSH1 0x0 DUP6 PUSH2 0x43C8 JUMP JUMPDEST PUSH1 0x0 DUP2 DUP2 MSTORE PUSH1 0x1 DUP4 ADD PUSH1 0x20 MSTORE PUSH1 0x40 DUP2 KECCAK256 SLOAD DUP1 ISZERO PUSH2 0x43BE JUMPI PUSH1 0x0 PUSH2 0x42F9 PUSH1 0x1 DUP4 PUSH2 0x49E8 JUMP JUMPDEST DUP6 SLOAD SWAP1 SWAP2 POP PUSH1 0x0 SWAP1 PUSH2 0x430D SWAP1 PUSH1 0x1 SWAP1 PUSH2 0x49E8 JUMP JUMPDEST SWAP1 POP DUP2 DUP2 EQ PUSH2 0x4372 JUMPI PUSH1 0x0 DUP7 PUSH1 0x0 ADD DUP3 DUP2 SLOAD DUP2 LT PUSH2 0x432D JUMPI PUSH2 0x432D PUSH2 0x49BC JUMP JUMPDEST SWAP1 PUSH1 0x0 MSTORE PUSH1 0x20 PUSH1 0x0 KECCAK256 ADD SLOAD SWAP1 POP DUP1 DUP8 PUSH1 0x0 ADD DUP5 DUP2 SLOAD DUP2 LT PUSH2 0x4350 JUMPI PUSH2 0x4350 PUSH2 0x49BC JUMP JUMPDEST PUSH1 0x0 SWAP2 DUP3 MSTORE PUSH1 0x20 DUP1 DUP4 KECCAK256 SWAP1 SWAP2 ADD SWAP3 SWAP1 SWAP3 SSTORE SWAP2 DUP3 MSTORE PUSH1 0x1 DUP9 ADD SWAP1 MSTORE PUSH1 0x40 SWAP1 KECCAK256 DUP4 SWAP1 SSTORE JUMPDEST DUP6 SLOAD DUP7 SWAP1 DUP1 PUSH2 0x4383 JUMPI PUSH2 0x4383 PUSH2 0x4C13 JUMP JUMPDEST PUSH1 0x1 SWAP1 SUB DUP2 DUP2 SWAP1 PUSH1 0x0 MSTORE PUSH1 0x20 PUSH1 0x0 KECCAK256 ADD PUSH1 0x0 SWAP1 SSTORE SWAP1 SSTORE DUP6 PUSH1 0x1 ADD PUSH1 0x0 DUP7 DUP2 MSTORE PUSH1 0x20 ADD SWAP1 DUP2 MSTORE PUSH1 0x20 ADD PUSH1 0x0 KECCAK256 PUSH1 0x0 SWAP1 SSTORE PUSH1 0x1 SWAP4 POP POP POP POP PUSH2 0xF25 JUMP JUMPDEST PUSH1 0x0 SWAP2 POP POP PUSH2 0xF25 JUMP JUMPDEST PUSH1 0x60 DUP3 SELFBALANCE LT ISZERO PUSH2 0x4429 JUMPI PUSH1 0x40 MLOAD PUSH3 0x461BCD PUSH1 0xE5 SHL DUP2 MSTORE PUSH1 0x20 PUSH1 0x4 DUP3 ADD MSTORE PUSH1 0x26 PUSH1 0x24 DUP3 ADD MSTORE PUSH32 0x416464726573733A20696E73756666696369656E742062616C616E636520666F PUSH1 0x44 DUP3 ADD MSTORE PUSH6 0x1C8818D85B1B PUSH1 0xD2 SHL PUSH1 0x64 DUP3 ADD MSTORE PUSH1 0x84 ADD PUSH2 0x714 JUMP JUMPDEST DUP5 EXTCODESIZE PUSH2 0x4477 JUMPI PUSH1 0x40 MLOAD PUSH3 0x461BCD PUSH1 0xE5 SHL DUP2 MSTORE PUSH1 0x20 PUSH1 0x4 DUP3 ADD MSTORE PUSH1 0x1D PUSH1 0x24 DUP3 ADD MSTORE PUSH32 0x416464726573733A2063616C6C20746F206E6F6E2D636F6E7472616374000000 PUSH1 0x44 DUP3 ADD MSTORE PUSH1 0x64 ADD PUSH2 0x714 JUMP JUMPDEST PUSH1 0x0 DUP1 DUP7 PUSH1 0x1 PUSH1 0x1 PUSH1 0xA0 SHL SUB AND DUP6 DUP8 PUSH1 0x40 MLOAD PUSH2 0x4493 SWAP2 SWAP1 PUSH2 0x4C29 JUMP JUMPDEST PUSH1 0x0 PUSH1 0x40 MLOAD DUP1 DUP4 SUB DUP2 DUP6 DUP8 GAS CALL SWAP3 POP POP POP RETURNDATASIZE DUP1 PUSH1 0x0 DUP2 EQ PUSH2 0x44D0 JUMPI PUSH1 0x40 MLOAD SWAP2 POP PUSH1 0x1F NOT PUSH1 0x3F RETURNDATASIZE ADD AND DUP3 ADD PUSH1 0x40 MSTORE RETURNDATASIZE DUP3 MSTORE RETURNDATASIZE PUSH1 0x0 PUSH1 0x20 DUP5 ADD RETURNDATACOPY PUSH2 0x44D5 JUMP JUMPDEST PUSH1 0x60 SWAP2 POP JUMPDEST POP SWAP2 POP SWAP2 POP PUSH2 0x337B DUP3 DUP3 DUP7 PUSH1 0x60 DUP4 ISZERO PUSH2 0x44EF JUMPI POP DUP2 PUSH2 0x1444 JUMP JUMPDEST DUP3 MLOAD ISZERO PUSH2 0x44FF JUMPI DUP3 MLOAD DUP1 DUP5 PUSH1 0x20 ADD REVERT JUMPDEST DUP2 PUSH1 0x40 MLOAD PUSH3 0x461BCD PUSH1 0xE5 SHL DUP2 MSTORE PUSH1 0x4 ADD PUSH2 0x714 SWAP2 SWAP1 PUSH2 0x4970 JUMP JUMPDEST PUSH1 0x40 DUP1 MLOAD PUSH1 0xA0 DUP2 ADD DUP3 MSTORE PUSH1 0x0 DUP1 DUP3 MSTORE PUSH1 0x20 DUP3 ADD DUP2 SWAP1 MSTORE SWAP2 DUP2 ADD DUP3 SWAP1 MSTORE PUSH1 0x60 DUP2 ADD SWAP2 SWAP1 SWAP2 MSTORE PUSH1 0x80 DUP2 ADD PUSH2 0x4549 PUSH2 0x454E JUMP JUMPDEST SWAP1 MSTORE SWAP1 JUMP JUMPDEST PUSH1 0x40 MLOAD DUP1 PUSH2 0x100 ADD PUSH1 0x40 MSTORE DUP1 PUSH1 0x8 SWAP1 PUSH1 0x20 DUP3 MUL DUP1 CALLDATASIZE DUP4 CALLDATACOPY POP SWAP2 SWAP3 SWAP2 POP POP JUMP JUMPDEST PUSH1 0x1 DUP4 ADD SWAP2 DUP4 SWAP1 DUP3 ISZERO PUSH2 0x45F9 JUMPI SWAP2 PUSH1 0x20 MUL DUP3 ADD PUSH1 0x0 JUMPDEST DUP4 DUP3 GT ISZERO PUSH2 0x45C7 JUMPI DUP4 MLOAD DUP4 DUP3 PUSH2 0x100 EXP DUP2 SLOAD DUP2 PUSH4 0xFFFFFFFF MUL NOT AND SWAP1 DUP4 PUSH4 0xFFFFFFFF AND MUL OR SWAP1 SSTORE POP SWAP3 PUSH1 0x20 ADD SWAP3 PUSH1 0x4 ADD PUSH1 0x20 DUP2 PUSH1 0x3 ADD DIV SWAP3 DUP4 ADD SWAP3 PUSH1 0x1 SUB MUL PUSH2 0x4583 JUMP JUMPDEST DUP1 ISZERO PUSH2 0x45F7 JUMPI DUP3 DUP2 PUSH2 0x100 EXP DUP2 SLOAD SWAP1 PUSH4 0xFFFFFFFF MUL NOT AND SWAP1 SSTORE PUSH1 0x4 ADD PUSH1 0x20 DUP2 PUSH1 0x3 ADD DIV SWAP3 DUP4 ADD SWAP3 PUSH1 0x1 SUB MUL PUSH2 0x45C7 JUMP JUMPDEST POP JUMPDEST POP PUSH2 0x4605 SWAP3 SWAP2 POP PUSH2 0x4609 JUMP JUMPDEST POP SWAP1 JUMP JUMPDEST JUMPDEST DUP1 DUP3 GT ISZERO PUSH2 0x4605 JUMPI PUSH1 0x0 DUP2 SSTORE PUSH1 0x1 ADD PUSH2 0x460A JUMP JUMPDEST PUSH1 0x0 PUSH1 0x20 DUP3 DUP5 SUB SLT ISZERO PUSH2 0x4630 JUMPI PUSH1 0x0 DUP1 REVERT JUMPDEST DUP2 CALLDATALOAD PUSH1 0x1 PUSH1 0x1 PUSH1 0xE0 SHL SUB NOT DUP2 AND DUP2 EQ PUSH2 0x1444 JUMPI PUSH1 0x0 DUP1 REVERT JUMPDEST PUSH1 0x1 PUSH1 0x1 PUSH1 0xA0 SHL SUB DUP2 AND DUP2 EQ PUSH2 0x465D JUMPI PUSH1 0x0 DUP1 REVERT JUMPDEST POP JUMP JUMPDEST PUSH1 0x0 DUP1 PUSH1 0x0 PUSH1 0x60 DUP5 DUP7 SUB SLT ISZERO PUSH2 0x4675 JUMPI PUSH1 0x0 DUP1 REVERT JUMPDEST DUP4 CALLDATALOAD PUSH2 0x4680 DUP2 PUSH2 0x4648 JUMP JUMPDEST SWAP3 POP PUSH1 0x20 DUP5 ADD CALLDATALOAD SWAP2 POP PUSH1 0x40 DUP5 ADD CALLDATALOAD PUSH2 0x4697 DUP2 PUSH2 0x4648 JUMP JUMPDEST DUP1 SWAP2 POP POP SWAP3 POP SWAP3 POP SWAP3 JUMP JUMPDEST PUSH1 0x0 DUP1 PUSH1 0x20 DUP4 DUP6 SUB SLT ISZERO PUSH2 0x46B5 JUMPI PUSH1 0x0 DUP1 REVERT JUMPDEST DUP3 CALLDATALOAD PUSH8 0xFFFFFFFFFFFFFFFF DUP1 DUP3 GT ISZERO PUSH2 0x46CD JUMPI PUSH1 0x0 DUP1 REVERT JUMPDEST DUP2 DUP6 ADD SWAP2 POP DUP6 PUSH1 0x1F DUP4 ADD SLT PUSH2 0x46E1 JUMPI PUSH1 0x0 DUP1 REVERT JUMPDEST DUP2 CALLDATALOAD DUP2 DUP2 GT ISZERO PUSH2 0x46F0 JUMPI PUSH1 0x0 DUP1 REVERT JUMPDEST DUP7 PUSH1 0x20 DUP3 PUSH1 0x6 SHL DUP6 ADD ADD GT ISZERO PUSH2 0x4705 JUMPI PUSH1 0x0 DUP1 REVERT JUMPDEST PUSH1 0x20 SWAP3 SWAP1 SWAP3 ADD SWAP7 SWAP2 SWAP6 POP SWAP1 SWAP4 POP POP POP POP JUMP JUMPDEST PUSH1 0x0 PUSH1 0x20 DUP3 DUP5 SUB SLT ISZERO PUSH2 0x4729 JUMPI PUSH1 0x0 DUP1 REVERT JUMPDEST DUP2 CALLDATALOAD PUSH2 0x1444 DUP2 PUSH2 0x4648 JUMP JUMPDEST PUSH1 0x0 PUSH1 0x20 DUP3 DUP5 SUB SLT ISZERO PUSH2 0x4746 JUMPI PUSH1 0x0 DUP1 REVERT JUMPDEST POP CALLDATALOAD SWAP2 SWAP1 POP JUMP JUMPDEST PUSH1 0x0 DUP1 PUSH1 0x0 DUP1 PUSH1 0x0 PUSH1 0xA0 DUP7 DUP9 SUB SLT ISZERO PUSH2 0x4765 JUMPI PUSH1 0x0 DUP1 REVERT JUMPDEST DUP6 CALLDATALOAD PUSH2 0x4770 DUP2 PUSH2 0x4648 JUMP JUMPDEST SWAP5 POP PUSH1 0x20 DUP7 ADD CALLDATALOAD SWAP4 POP PUSH1 0x40 DUP7 ADD CALLDATALOAD SWAP3 POP PUSH1 0x60 DUP7 ADD CALLDATALOAD SWAP2 POP PUSH1 0x80 DUP7 ADD CALLDATALOAD PUSH2 0x4795 DUP2 PUSH2 0x4648 JUMP JUMPDEST DUP1 SWAP2 POP POP SWAP3 SWAP6 POP SWAP3 SWAP6 SWAP1 SWAP4 POP JUMP JUMPDEST PUSH1 0x0 DUP1 PUSH1 0x40 DUP4 DUP6 SUB SLT ISZERO PUSH2 0x47B6 JUMPI PUSH1 0x0 DUP1 REVERT JUMPDEST DUP3 CALLDATALOAD SWAP2 POP PUSH1 0x20 DUP4 ADD CALLDATALOAD PUSH2 0x47C8 DUP2 PUSH2 0x4648 JUMP JUMPDEST DUP1 SWAP2 POP POP SWAP3 POP SWAP3 SWAP1 POP JUMP JUMPDEST PUSH1 0x0 DUP1 PUSH1 0x40 DUP4 DUP6 SUB SLT ISZERO PUSH2 0x47E6 JUMPI PUSH1 0x0 DUP1 REVERT JUMPDEST POP POP DUP1 CALLDATALOAD SWAP3 PUSH1 0x20 SWAP1 SWAP2 ADD CALLDATALOAD SWAP2 POP JUMP JUMPDEST DUP1 MLOAD PUSH1 0x1 PUSH1 0x1 PUSH1 0xA0 SHL SUB AND DUP3 MSTORE PUSH1 0x20 DUP1 DUP3 ADD MLOAD PUSH1 0x1 PUSH1 0x1 PUSH1 0x70 SHL SUB SWAP1 DUP2 AND DUP3 DUP6 ADD MSTORE PUSH1 0x40 DUP1 DUP5 ADD MLOAD DUP3 AND SWAP1 DUP6 ADD MSTORE PUSH1 0x60 DUP1 DUP5 ADD MLOAD SWAP1 SWAP2 AND SWAP1 DUP5 ADD MSTORE PUSH1 0x80 DUP1 DUP4 ADD MLOAD SWAP1 DUP5 ADD PUSH1 0x0 JUMPDEST PUSH1 0x8 DUP2 LT ISZERO PUSH2 0x485F JUMPI DUP3 MLOAD PUSH4 0xFFFFFFFF AND DUP3 MSTORE SWAP2 DUP4 ADD SWAP2 SWAP1 DUP4 ADD SWAP1 PUSH1 0x1 ADD PUSH2 0x483C JUMP JUMPDEST POP POP POP POP POP POP JUMP JUMPDEST PUSH2 0x300 DUP2 ADD PUSH2 0x4876 DUP3 DUP6 PUSH2 0x47F5 JUMP JUMPDEST PUSH2 0x1444 PUSH2 0x180 DUP4 ADD DUP5 PUSH2 0x47F5 JUMP JUMPDEST PUSH1 0x0 DUP1 PUSH1 0x0 DUP1 PUSH1 0x0 DUP1 PUSH1 0xC0 DUP8 DUP10 SUB SLT ISZERO PUSH2 0x489D JUMPI PUSH1 0x0 DUP1 REVERT JUMPDEST DUP7 CALLDATALOAD PUSH2 0x48A8 DUP2 PUSH2 0x4648 JUMP JUMPDEST SWAP6 POP PUSH1 0x20 DUP8 ADD CALLDATALOAD PUSH2 0x48B8 DUP2 PUSH2 0x4648 JUMP JUMPDEST SWAP5 POP PUSH1 0x40 DUP8 ADD CALLDATALOAD SWAP4 POP PUSH1 0x60 DUP8 ADD CALLDATALOAD SWAP3 POP PUSH1 0x80 DUP8 ADD CALLDATALOAD SWAP2 POP PUSH1 0xA0 DUP8 ADD CALLDATALOAD PUSH2 0x48DD DUP2 PUSH2 0x4648 JUMP JUMPDEST DUP1 SWAP2 POP POP SWAP3 SWAP6 POP SWAP3 SWAP6 POP SWAP3 SWAP6 JUMP JUMPDEST PUSH2 0x180 DUP2 ADD PUSH2 0xF25 DUP3 DUP5 PUSH2 0x47F5 JUMP JUMPDEST PUSH1 0x0 DUP1 PUSH1 0x0 DUP1 PUSH1 0x80 DUP6 DUP8 SUB SLT ISZERO PUSH2 0x4910 JUMPI PUSH1 0x0 DUP1 REVERT JUMPDEST DUP5 CALLDATALOAD PUSH2 0x491B DUP2 PUSH2 0x4648 JUMP JUMPDEST SWAP4 POP PUSH1 0x20 DUP6 ADD CALLDATALOAD SWAP3 POP PUSH1 0x40 DUP6 ADD CALLDATALOAD SWAP2 POP PUSH1 0x60 DUP6 ADD CALLDATALOAD PUSH2 0x4939 DUP2 PUSH2 0x4648 JUMP JUMPDEST SWAP4 SWAP7 SWAP3 SWAP6 POP SWAP1 SWAP4 POP POP JUMP JUMPDEST PUSH1 0x0 JUMPDEST DUP4 DUP2 LT ISZERO PUSH2 0x495F JUMPI DUP2 DUP2 ADD MLOAD DUP4 DUP3 ADD MSTORE PUSH1 0x20 ADD PUSH2 0x4947 JUMP JUMPDEST DUP4 DUP2 GT ISZERO PUSH2 0xE79 JUMPI POP POP PUSH1 0x0 SWAP2 ADD MSTORE JUMP JUMPDEST PUSH1 0x20 DUP2 MSTORE PUSH1 0x0 DUP3 MLOAD DUP1 PUSH1 0x20 DUP5 ADD MSTORE PUSH2 0x498F DUP2 PUSH1 0x40 DUP6 ADD PUSH1 0x20 DUP8 ADD PUSH2 0x4944 JUMP JUMPDEST PUSH1 0x1F ADD PUSH1 0x1F NOT AND SWAP2 SWAP1 SWAP2 ADD PUSH1 0x40 ADD SWAP3 SWAP2 POP POP JUMP JUMPDEST PUSH1 0x0 PUSH1 0x20 DUP3 DUP5 SUB SLT ISZERO PUSH2 0x49B5 JUMPI PUSH1 0x0 DUP1 REVERT JUMPDEST POP MLOAD SWAP2 SWAP1 POP JUMP JUMPDEST PUSH4 0x4E487B71 PUSH1 0xE0 SHL PUSH1 0x0 MSTORE PUSH1 0x32 PUSH1 0x4 MSTORE PUSH1 0x24 PUSH1 0x0 REVERT JUMPDEST PUSH4 0x4E487B71 PUSH1 0xE0 SHL PUSH1 0x0 MSTORE PUSH1 0x11 PUSH1 0x4 MSTORE PUSH1 0x24 PUSH1 0x0 REVERT JUMPDEST PUSH1 0x0 DUP3 DUP3 LT ISZERO PUSH2 0x49FA JUMPI PUSH2 0x49FA PUSH2 0x49D2 JUMP JUMPDEST POP SUB SWAP1 JUMP JUMPDEST PUSH1 0x0 DUP2 PUSH1 0x0 NOT DIV DUP4 GT DUP3 ISZERO ISZERO AND ISZERO PUSH2 0x4A19 JUMPI PUSH2 0x4A19 PUSH2 0x49D2 JUMP JUMPDEST POP MUL SWAP1 JUMP JUMPDEST PUSH4 0x4E487B71 PUSH1 0xE0 SHL PUSH1 0x0 MSTORE PUSH1 0x12 PUSH1 0x4 MSTORE PUSH1 0x24 PUSH1 0x0 REVERT JUMPDEST PUSH1 0x0 DUP3 PUSH2 0x4A43 JUMPI PUSH2 0x4A43 PUSH2 0x4A1E JUMP JUMPDEST POP DIV SWAP1 JUMP JUMPDEST PUSH1 0x0 DUP3 NOT DUP3 GT ISZERO PUSH2 0x4A5B JUMPI PUSH2 0x4A5B PUSH2 0x49D2 JUMP JUMPDEST POP ADD SWAP1 JUMP JUMPDEST PUSH1 0x0 PUSH1 0x1 PUSH1 0x1 PUSH1 0x70 SHL SUB DUP1 DUP4 AND DUP2 DUP6 AND DUP1 DUP4 SUB DUP3 GT ISZERO PUSH2 0x4A82 JUMPI PUSH2 0x4A82 PUSH2 0x49D2 JUMP JUMPDEST ADD SWAP5 SWAP4 POP POP POP POP JUMP JUMPDEST PUSH1 0x0 PUSH1 0x1 PUSH1 0x1 PUSH1 0x70 SHL SUB DUP4 DUP2 AND SWAP1 DUP4 AND DUP2 DUP2 LT ISZERO PUSH2 0x4AAB JUMPI PUSH2 0x4AAB PUSH2 0x49D2 JUMP JUMPDEST SUB SWAP4 SWAP3 POP POP POP JUMP JUMPDEST PUSH1 0x1 PUSH1 0x1 PUSH1 0xA0 SHL SUB SWAP4 SWAP1 SWAP4 AND DUP4 MSTORE PUSH1 0x20 DUP4 ADD SWAP2 SWAP1 SWAP2 MSTORE PUSH1 0x40 DUP3 ADD MSTORE PUSH1 0x60 ADD SWAP1 JUMP JUMPDEST PUSH1 0x0 PUSH1 0x0 NOT DUP3 EQ ISZERO PUSH2 0x4AE8 JUMPI PUSH2 0x4AE8 PUSH2 0x49D2 JUMP JUMPDEST POP PUSH1 0x1 ADD SWAP1 JUMP JUMPDEST PUSH1 0x0 PUSH1 0x20 DUP3 DUP5 SUB SLT ISZERO PUSH2 0x4B01 JUMPI PUSH1 0x0 DUP1 REVERT JUMPDEST DUP2 MLOAD PUSH2 0x1444 DUP2 PUSH2 0x4648 JUMP JUMPDEST PUSH1 0x0 DUP3 PUSH2 0x4B1B JUMPI PUSH2 0x4B1B PUSH2 0x4A1E JUMP JUMPDEST POP MOD SWAP1 JUMP JUMPDEST PUSH1 0x0 PUSH1 0x1 PUSH1 0x1 PUSH1 0x70 SHL SUB DUP1 DUP4 AND DUP2 DUP6 AND DUP2 DUP4 DIV DUP2 GT DUP3 ISZERO ISZERO AND ISZERO PUSH2 0x4B46 JUMPI PUSH2 0x4B46 PUSH2 0x49D2 JUMP JUMPDEST MUL SWAP5 SWAP4 POP POP POP POP JUMP JUMPDEST PUSH32 0x416363657373436F6E74726F6C3A206163636F756E7420000000000000000000 DUP2 MSTORE PUSH1 0x0 DUP4 MLOAD PUSH2 0x4B87 DUP2 PUSH1 0x17 DUP6 ADD PUSH1 0x20 DUP9 ADD PUSH2 0x4944 JUMP JUMPDEST PUSH17 0x1034B99036B4B9B9B4B733903937B6329 PUSH1 0x7D SHL PUSH1 0x17 SWAP2 DUP5 ADD SWAP2 DUP3 ADD MSTORE DUP4 MLOAD PUSH2 0x4BB8 DUP2 PUSH1 0x28 DUP5 ADD PUSH1 0x20 DUP9 ADD PUSH2 0x4944 JUMP JUMPDEST ADD PUSH1 0x28 ADD SWAP5 SWAP4 POP POP POP POP JUMP JUMPDEST PUSH1 0x0 PUSH1 0x20 DUP3 DUP5 SUB SLT ISZERO PUSH2 0x4BD6 JUMPI PUSH1 0x0 DUP1 REVERT JUMPDEST DUP2 MLOAD DUP1 ISZERO ISZERO DUP2 EQ PUSH2 0x1444 JUMPI PUSH1 0x0 DUP1 REVERT JUMPDEST PUSH4 0x4E487B71 PUSH1 0xE0 SHL PUSH1 0x0 MSTORE PUSH1 0x41 PUSH1 0x4 MSTORE PUSH1 0x24 PUSH1 0x0 REVERT JUMPDEST PUSH1 0x0 DUP2 PUSH2 0x4C0B JUMPI PUSH2 0x4C0B PUSH2 0x49D2 JUMP JUMPDEST POP PUSH1 0x0 NOT ADD SWAP1 JUMP JUMPDEST PUSH4 0x4E487B71 PUSH1 0xE0 SHL PUSH1 0x0 MSTORE PUSH1 0x31 PUSH1 0x4 MSTORE PUSH1 0x24 PUSH1 0x0 REVERT JUMPDEST PUSH1 0x0 DUP3 MLOAD PUSH2 0x4C3B DUP2 DUP5 PUSH1 0x20 DUP8 ADD PUSH2 0x4944 JUMP JUMPDEST SWAP2 SWAP1 SWAP2 ADD SWAP3 SWAP2 POP POP JUMP INVALID STOP STOP STOP STOP STOP STOP STOP STOP STOP STOP STOP STOP DIV 0xD7 STOP 0xC 0xC8 0x26 CALLVALUE SWAP11 DUP8 0x27 JUMPI 0xD8 0x2B RETURNDATACOPY 0xF PUSH9 0xA713B3C5A264697066 PUSH20 0x5822122006B0ABDDDB462B2D7E22872733CF29FF 0xE5 SMOD DUP2 INVALID PUSH4 0x976E72C3 CREATE2 DUP9 PUSH22 0x4EAC287164736F6C634300080B003300000000000000 "
		},
		"gasEstimates": {
			"creation": {
				"codeDepositCost": "3922200",
				"executionCost": "infinite",
				"totalCost": "infinite"
			},
			"external": {
				"ROLE_ADMIN()": "306",
				"addTokenLiquidity(address,uint256,address)": "infinite",
				"adminCreatePool(address,uint256,uint256,address)": "infinite",
				"adminInitialize()": "infinite",
				"adminUpdateFeeToBeneficiary(address)": "infinite",
				"feeToBeneficiary()": "2470",
				"getCurrent4Hour()": "379",
				"getCurrentFeeBasedOnTrades(uint256)": "infinite",
				"getInputCerUsdForExactToken(uint256,uint256)": "infinite",
				"getInputTokenForExactCerUsd(uint256,uint256)": "infinite",
				"getOutputExactCerUsdForToken(uint256,uint256)": "infinite",
				"getOutputExactTokensForCerUsd(uint256,uint256)": "infinite",
				"getPoolByPosition(uint256)": "infinite",
				"getPoolByToken(address)": "infinite",
				"getRoleAdmin(bytes32)": "2493",
				"getRoleMember(bytes32,uint256)": "infinite",
				"getRoleMemberCount(bytes32)": "infinite",
				"getUtilsContractAtPos(uint256)": "infinite",
				"grantRole(bytes32,address)": "infinite",
				"grantRolesBulk((bytes32,address)[])": "infinite",
				"hasRole(bytes32,address)": "2740",
				"removeTokenLiquidity(address,uint256,address)": "infinite",
				"renounceRole(bytes32,address)": "infinite",
				"revokeRole(bytes32,address)": "infinite",
				"supportsInterface(bytes4)": "393",
				"swapExactNativeForTokens(address,uint256,uint256,uint256,address)": "infinite",
				"swapExactTokensForNative(address,uint256,uint256,uint256,address)": "infinite",
				"swapExactTokensForTokens(address,address,uint256,uint256,uint256,address)": "infinite",
				"swapNativeForExactTokens(address,uint256,uint256,uint256,address)": "infinite",
				"swapTokensForExactNative(address,uint256,uint256,uint256,address)": "infinite",
				"swapTokensForExactTokens(address,address,uint256,uint256,uint256,address)": "infinite",
				"syncTokenBalanceInPool(address)": "infinite",
				"testGetBalances()": "infinite",
				"testGetPools()": "infinite",
				"testGetPrices()": "infinite"
			},
			"internal": {
				"_getInput(uint256,uint256,uint256,uint256)": "infinite",
				"_getMintFeeLiquidityAmount(uint256,uint256,uint256)": "infinite",
				"_getOutput(uint256,uint256,uint256,uint256)": "infinite",
				"_swapExactCerUsdForToken(address,uint256,address)": "infinite",
				"_swapExactTokenForCerUsd(address,uint256,address)": "infinite",
				"_swapExactTokensForTokens(address,address,address,uint256,uint256,address)": "infinite",
				"_swapTokensForExactTokens(address,address,address,uint256,uint256,address)": "infinite",
				"sqrt(uint256)": "infinite"
			}
		},
		"methodIdentifiers": {
			"ROLE_ADMIN()": "d391014b",
			"addTokenLiquidity(address,uint256,address)": "8d6d61d9",
			"adminCreatePool(address,uint256,uint256,address)": "d5d60737",
			"adminInitialize()": "c09c923b",
			"adminUpdateFeeToBeneficiary(address)": "06edd763",
			"feeToBeneficiary()": "7b4b233c",
			"getCurrent4Hour()": "a465626f",
			"getCurrentFeeBasedOnTrades(uint256)": "6853ac26",
			"getInputCerUsdForExactToken(uint256,uint256)": "6ec14858",
			"getInputTokenForExactCerUsd(uint256,uint256)": "4fa8f197",
			"getOutputExactCerUsdForToken(uint256,uint256)": "e40a99a8",
			"getOutputExactTokensForCerUsd(uint256,uint256)": "cd01a60a",
			"getPoolByPosition(uint256)": "d01350bd",
			"getPoolByToken(address)": "bbadc03b",
			"getRoleAdmin(bytes32)": "248a9ca3",
			"getRoleMember(bytes32,uint256)": "9010d07c",
			"getRoleMemberCount(bytes32)": "ca15c873",
			"getUtilsContractAtPos(uint256)": "06fb1a07",
			"grantRole(bytes32,address)": "2f2ff15d",
			"grantRolesBulk((bytes32,address)[])": "03ed957f",
			"hasRole(bytes32,address)": "91d14854",
			"removeTokenLiquidity(address,uint256,address)": "0369679e",
			"renounceRole(bytes32,address)": "36568abe",
			"revokeRole(bytes32,address)": "d547741f",
			"supportsInterface(bytes4)": "01ffc9a7",
			"swapExactNativeForTokens(address,uint256,uint256,uint256,address)": "41d310ec",
			"swapExactTokensForNative(address,uint256,uint256,uint256,address)": "195df43e",
			"swapExactTokensForTokens(address,address,uint256,uint256,uint256,address)": "a60c6e55",
			"swapNativeForExactTokens(address,uint256,uint256,uint256,address)": "0975552e",
			"swapTokensForExactNative(address,uint256,uint256,uint256,address)": "cf8ae864",
			"swapTokensForExactTokens(address,address,uint256,uint256,uint256,address)": "f6524724",
			"syncTokenBalanceInPool(address)": "9bc731fc",
			"testGetBalances()": "186efad9",
			"testGetPools()": "5e6104b1",
			"testGetPrices()": "e07bf7ad"
		}
	},
	"abi": [
		{
			"inputs": [],
			"stateMutability": "nonpayable",
			"type": "constructor"
		},
		{
			"anonymous": false,
			"inputs": [
				{
					"indexed": true,
					"internalType": "bytes32",
					"name": "role",
					"type": "bytes32"
				},
				{
					"indexed": true,
					"internalType": "bytes32",
					"name": "previousAdminRole",
					"type": "bytes32"
				},
				{
					"indexed": true,
					"internalType": "bytes32",
					"name": "newAdminRole",
					"type": "bytes32"
				}
			],
			"name": "RoleAdminChanged",
			"type": "event"
		},
		{
			"anonymous": false,
			"inputs": [
				{
					"indexed": true,
					"internalType": "bytes32",
					"name": "role",
					"type": "bytes32"
				},
				{
					"indexed": true,
					"internalType": "address",
					"name": "account",
					"type": "address"
				},
				{
					"indexed": true,
					"internalType": "address",
					"name": "sender",
					"type": "address"
				}
			],
			"name": "RoleGranted",
			"type": "event"
		},
		{
			"anonymous": false,
			"inputs": [
				{
					"indexed": true,
					"internalType": "bytes32",
					"name": "role",
					"type": "bytes32"
				},
				{
					"indexed": true,
					"internalType": "address",
					"name": "account",
					"type": "address"
				},
				{
					"indexed": true,
					"internalType": "address",
					"name": "sender",
					"type": "address"
				}
			],
			"name": "RoleRevoked",
			"type": "event"
		},
		{
			"inputs": [],
			"name": "ROLE_ADMIN",
			"outputs": [
				{
					"internalType": "bytes32",
					"name": "",
					"type": "bytes32"
				}
			],
			"stateMutability": "view",
			"type": "function"
		},
		{
			"inputs": [
				{
					"internalType": "address",
					"name": "token",
					"type": "address"
				},
				{
					"internalType": "uint256",
					"name": "amountTokensIn",
					"type": "uint256"
				},
				{
					"internalType": "address",
					"name": "transferTo",
					"type": "address"
				}
			],
			"name": "addTokenLiquidity",
			"outputs": [],
			"stateMutability": "nonpayable",
			"type": "function"
		},
		{
			"inputs": [
				{
					"internalType": "address",
					"name": "token",
					"type": "address"
				},
				{
					"internalType": "uint256",
					"name": "amountTokensIn",
					"type": "uint256"
				},
				{
					"internalType": "uint256",
					"name": "amountCerUsdIn",
					"type": "uint256"
				},
				{
					"internalType": "address",
					"name": "transferTo",
					"type": "address"
				}
			],
			"name": "adminCreatePool",
			"outputs": [],
			"stateMutability": "nonpayable",
			"type": "function"
		},
		{
			"inputs": [],
			"name": "adminInitialize",
			"outputs": [],
			"stateMutability": "nonpayable",
			"type": "function"
		},
		{
			"inputs": [
				{
					"internalType": "address",
					"name": "newFeeToBeneficiary",
					"type": "address"
				}
			],
			"name": "adminUpdateFeeToBeneficiary",
			"outputs": [],
			"stateMutability": "nonpayable",
			"type": "function"
		},
		{
			"inputs": [],
			"name": "feeToBeneficiary",
			"outputs": [
				{
					"internalType": "address",
					"name": "",
					"type": "address"
				}
			],
			"stateMutability": "view",
			"type": "function"
		},
		{
			"inputs": [],
			"name": "getCurrent4Hour",
			"outputs": [
				{
					"internalType": "uint256",
					"name": "",
					"type": "uint256"
				}
			],
			"stateMutability": "view",
			"type": "function"
		},
		{
			"inputs": [
				{
					"internalType": "uint256",
					"name": "poolPos",
					"type": "uint256"
				}
			],
			"name": "getCurrentFeeBasedOnTrades",
			"outputs": [
				{
					"internalType": "uint256",
					"name": "fee",
					"type": "uint256"
				}
			],
			"stateMutability": "view",
			"type": "function"
		},
		{
			"inputs": [
				{
					"internalType": "uint256",
					"name": "poolPos",
					"type": "uint256"
				},
				{
					"internalType": "uint256",
					"name": "amountTokensOut",
					"type": "uint256"
				}
			],
			"name": "getInputCerUsdForExactToken",
			"outputs": [
				{
					"internalType": "uint256",
					"name": "",
					"type": "uint256"
				}
			],
			"stateMutability": "view",
			"type": "function"
		},
		{
			"inputs": [
				{
					"internalType": "uint256",
					"name": "poolPos",
					"type": "uint256"
				},
				{
					"internalType": "uint256",
					"name": "amountCerUsdOut",
					"type": "uint256"
				}
			],
			"name": "getInputTokenForExactCerUsd",
			"outputs": [
				{
					"internalType": "uint256",
					"name": "",
					"type": "uint256"
				}
			],
			"stateMutability": "view",
			"type": "function"
		},
		{
			"inputs": [
				{
					"internalType": "uint256",
					"name": "poolPos",
					"type": "uint256"
				},
				{
					"internalType": "uint256",
					"name": "amountCerUsdIn",
					"type": "uint256"
				}
			],
			"name": "getOutputExactCerUsdForToken",
			"outputs": [
				{
					"internalType": "uint256",
					"name": "",
					"type": "uint256"
				}
			],
			"stateMutability": "view",
			"type": "function"
		},
		{
			"inputs": [
				{
					"internalType": "uint256",
					"name": "poolPos",
					"type": "uint256"
				},
				{
					"internalType": "uint256",
					"name": "amountTokensIn",
					"type": "uint256"
				}
			],
			"name": "getOutputExactTokensForCerUsd",
			"outputs": [
				{
					"internalType": "uint256",
					"name": "",
					"type": "uint256"
				}
			],
			"stateMutability": "view",
			"type": "function"
		},
		{
			"inputs": [
				{
					"internalType": "uint256",
					"name": "pos",
					"type": "uint256"
				}
			],
			"name": "getPoolByPosition",
			"outputs": [
				{
					"components": [
						{
							"internalType": "address",
							"name": "token",
							"type": "address"
						},
						{
							"internalType": "uint112",
							"name": "balanceToken",
							"type": "uint112"
						},
						{
							"internalType": "uint112",
							"name": "balanceCerUsd",
							"type": "uint112"
						},
						{
							"internalType": "uint112",
							"name": "lastRootKValue",
							"type": "uint112"
						},
						{
							"internalType": "uint32[8]",
							"name": "hourlyTradeVolumeInCerUsd",
							"type": "uint32[8]"
						}
					],
					"internalType": "struct CerbySwapV1.Pool",
					"name": "",
					"type": "tuple"
				}
			],
			"stateMutability": "view",
			"type": "function"
		},
		{
			"inputs": [
				{
					"internalType": "address",
					"name": "token",
					"type": "address"
				}
			],
			"name": "getPoolByToken",
			"outputs": [
				{
					"components": [
						{
							"internalType": "address",
							"name": "token",
							"type": "address"
						},
						{
							"internalType": "uint112",
							"name": "balanceToken",
							"type": "uint112"
						},
						{
							"internalType": "uint112",
							"name": "balanceCerUsd",
							"type": "uint112"
						},
						{
							"internalType": "uint112",
							"name": "lastRootKValue",
							"type": "uint112"
						},
						{
							"internalType": "uint32[8]",
							"name": "hourlyTradeVolumeInCerUsd",
							"type": "uint32[8]"
						}
					],
					"internalType": "struct CerbySwapV1.Pool",
					"name": "",
					"type": "tuple"
				}
			],
			"stateMutability": "view",
			"type": "function"
		},
		{
			"inputs": [
				{
					"internalType": "bytes32",
					"name": "role",
					"type": "bytes32"
				}
			],
			"name": "getRoleAdmin",
			"outputs": [
				{
					"internalType": "bytes32",
					"name": "",
					"type": "bytes32"
				}
			],
			"stateMutability": "view",
			"type": "function"
		},
		{
			"inputs": [
				{
					"internalType": "bytes32",
					"name": "role",
					"type": "bytes32"
				},
				{
					"internalType": "uint256",
					"name": "index",
					"type": "uint256"
				}
			],
			"name": "getRoleMember",
			"outputs": [
				{
					"internalType": "address",
					"name": "",
					"type": "address"
				}
			],
			"stateMutability": "view",
			"type": "function"
		},
		{
			"inputs": [
				{
					"internalType": "bytes32",
					"name": "role",
					"type": "bytes32"
				}
			],
			"name": "getRoleMemberCount",
			"outputs": [
				{
					"internalType": "uint256",
					"name": "",
					"type": "uint256"
				}
			],
			"stateMutability": "view",
			"type": "function"
		},
		{
			"inputs": [
				{
					"internalType": "uint256",
					"name": "pos",
					"type": "uint256"
				}
			],
			"name": "getUtilsContractAtPos",
			"outputs": [
				{
					"internalType": "address",
					"name": "",
					"type": "address"
				}
			],
			"stateMutability": "view",
			"type": "function"
		},
		{
			"inputs": [
				{
					"internalType": "bytes32",
					"name": "role",
					"type": "bytes32"
				},
				{
					"internalType": "address",
					"name": "account",
					"type": "address"
				}
			],
			"name": "grantRole",
			"outputs": [],
			"stateMutability": "nonpayable",
			"type": "function"
		},
		{
			"inputs": [
				{
					"components": [
						{
							"internalType": "bytes32",
							"name": "role",
							"type": "bytes32"
						},
						{
							"internalType": "address",
							"name": "addr",
							"type": "address"
						}
					],
					"internalType": "struct RoleAccess[]",
					"name": "roles",
					"type": "tuple[]"
				}
			],
			"name": "grantRolesBulk",
			"outputs": [],
			"stateMutability": "nonpayable",
			"type": "function"
		},
		{
			"inputs": [
				{
					"internalType": "bytes32",
					"name": "role",
					"type": "bytes32"
				},
				{
					"internalType": "address",
					"name": "account",
					"type": "address"
				}
			],
			"name": "hasRole",
			"outputs": [
				{
					"internalType": "bool",
					"name": "",
					"type": "bool"
				}
			],
			"stateMutability": "view",
			"type": "function"
		},
		{
			"inputs": [
				{
					"internalType": "address",
					"name": "token",
					"type": "address"
				},
				{
					"internalType": "uint256",
					"name": "amountLpTokensBalanceToBurn",
					"type": "uint256"
				},
				{
					"internalType": "address",
					"name": "transferTo",
					"type": "address"
				}
			],
			"name": "removeTokenLiquidity",
			"outputs": [],
			"stateMutability": "nonpayable",
			"type": "function"
		},
		{
			"inputs": [
				{
					"internalType": "bytes32",
					"name": "role",
					"type": "bytes32"
				},
				{
					"internalType": "address",
					"name": "account",
					"type": "address"
				}
			],
			"name": "renounceRole",
			"outputs": [],
			"stateMutability": "nonpayable",
			"type": "function"
		},
		{
			"inputs": [
				{
					"internalType": "bytes32",
					"name": "role",
					"type": "bytes32"
				},
				{
					"internalType": "address",
					"name": "account",
					"type": "address"
				}
			],
			"name": "revokeRole",
			"outputs": [],
			"stateMutability": "nonpayable",
			"type": "function"
		},
		{
			"inputs": [
				{
					"internalType": "bytes4",
					"name": "interfaceId",
					"type": "bytes4"
				}
			],
			"name": "supportsInterface",
			"outputs": [
				{
					"internalType": "bool",
					"name": "",
					"type": "bool"
				}
			],
			"stateMutability": "view",
			"type": "function"
		},
		{
			"inputs": [
				{
					"internalType": "address",
					"name": "tokenOut",
					"type": "address"
				},
				{
					"internalType": "uint256",
					"name": "amountTokensIn",
					"type": "uint256"
				},
				{
					"internalType": "uint256",
					"name": "minAmountTokensOut",
					"type": "uint256"
				},
				{
					"internalType": "uint256",
					"name": "expireTimestamp",
					"type": "uint256"
				},
				{
					"internalType": "address",
					"name": "transferTo",
					"type": "address"
				}
			],
			"name": "swapExactNativeForTokens",
			"outputs": [
				{
					"internalType": "uint256",
					"name": "",
					"type": "uint256"
				}
			],
			"stateMutability": "payable",
			"type": "function"
		},
		{
			"inputs": [
				{
					"internalType": "address",
					"name": "tokenIn",
					"type": "address"
				},
				{
					"internalType": "uint256",
					"name": "amountTokensIn",
					"type": "uint256"
				},
				{
					"internalType": "uint256",
					"name": "minAmountTokensOut",
					"type": "uint256"
				},
				{
					"internalType": "uint256",
					"name": "expireTimestamp",
					"type": "uint256"
				},
				{
					"internalType": "address",
					"name": "transferTo",
					"type": "address"
				}
			],
			"name": "swapExactTokensForNative",
			"outputs": [
				{
					"internalType": "uint256",
					"name": "",
					"type": "uint256"
				}
			],
			"stateMutability": "payable",
			"type": "function"
		},
		{
			"inputs": [
				{
					"internalType": "address",
					"name": "tokenIn",
					"type": "address"
				},
				{
					"internalType": "address",
					"name": "tokenOut",
					"type": "address"
				},
				{
					"internalType": "uint256",
					"name": "amountTokensIn",
					"type": "uint256"
				},
				{
					"internalType": "uint256",
					"name": "minAmountTokensOut",
					"type": "uint256"
				},
				{
					"internalType": "uint256",
					"name": "expireTimestamp",
					"type": "uint256"
				},
				{
					"internalType": "address",
					"name": "transferTo",
					"type": "address"
				}
			],
			"name": "swapExactTokensForTokens",
			"outputs": [
				{
					"internalType": "uint256",
					"name": "",
					"type": "uint256"
				}
			],
			"stateMutability": "nonpayable",
			"type": "function"
		},
		{
			"inputs": [
				{
					"internalType": "address",
					"name": "tokenOut",
					"type": "address"
				},
				{
					"internalType": "uint256",
					"name": "maxAmountTokensIn",
					"type": "uint256"
				},
				{
					"internalType": "uint256",
					"name": "amountTokensOut",
					"type": "uint256"
				},
				{
					"internalType": "uint256",
					"name": "expireTimestamp",
					"type": "uint256"
				},
				{
					"internalType": "address",
					"name": "transferTo",
					"type": "address"
				}
			],
			"name": "swapNativeForExactTokens",
			"outputs": [
				{
					"internalType": "uint256",
					"name": "",
					"type": "uint256"
				}
			],
			"stateMutability": "payable",
			"type": "function"
		},
		{
			"inputs": [
				{
					"internalType": "address",
					"name": "tokenIn",
					"type": "address"
				},
				{
					"internalType": "uint256",
					"name": "maxAmountTokensIn",
					"type": "uint256"
				},
				{
					"internalType": "uint256",
					"name": "amountTokensOut",
					"type": "uint256"
				},
				{
					"internalType": "uint256",
					"name": "expireTimestamp",
					"type": "uint256"
				},
				{
					"internalType": "address",
					"name": "transferTo",
					"type": "address"
				}
			],
			"name": "swapTokensForExactNative",
			"outputs": [
				{
					"internalType": "uint256",
					"name": "",
					"type": "uint256"
				}
			],
			"stateMutability": "payable",
			"type": "function"
		},
		{
			"inputs": [
				{
					"internalType": "address",
					"name": "tokenIn",
					"type": "address"
				},
				{
					"internalType": "address",
					"name": "tokenOut",
					"type": "address"
				},
				{
					"internalType": "uint256",
					"name": "maxAmountTokensIn",
					"type": "uint256"
				},
				{
					"internalType": "uint256",
					"name": "amountTokensOut",
					"type": "uint256"
				},
				{
					"internalType": "uint256",
					"name": "expireTimestamp",
					"type": "uint256"
				},
				{
					"internalType": "address",
					"name": "transferTo",
					"type": "address"
				}
			],
			"name": "swapTokensForExactTokens",
			"outputs": [
				{
					"internalType": "uint256",
					"name": "",
					"type": "uint256"
				}
			],
			"stateMutability": "nonpayable",
			"type": "function"
		},
		{
			"inputs": [
				{
					"internalType": "address",
					"name": "token",
					"type": "address"
				}
			],
			"name": "syncTokenBalanceInPool",
			"outputs": [],
			"stateMutability": "nonpayable",
			"type": "function"
		},
		{
			"inputs": [],
			"name": "testGetBalances",
			"outputs": [
				{
					"internalType": "uint256",
					"name": "",
					"type": "uint256"
				},
				{
					"internalType": "uint256",
					"name": "",
					"type": "uint256"
				},
				{
					"internalType": "uint256",
					"name": "",
					"type": "uint256"
				}
			],
			"stateMutability": "view",
			"type": "function"
		},
		{
			"inputs": [],
			"name": "testGetPools",
			"outputs": [
				{
					"components": [
						{
							"internalType": "address",
							"name": "token",
							"type": "address"
						},
						{
							"internalType": "uint112",
							"name": "balanceToken",
							"type": "uint112"
						},
						{
							"internalType": "uint112",
							"name": "balanceCerUsd",
							"type": "uint112"
						},
						{
							"internalType": "uint112",
							"name": "lastRootKValue",
							"type": "uint112"
						},
						{
							"internalType": "uint32[8]",
							"name": "hourlyTradeVolumeInCerUsd",
							"type": "uint32[8]"
						}
					],
					"internalType": "struct CerbySwapV1.Pool",
					"name": "",
					"type": "tuple"
				},
				{
					"components": [
						{
							"internalType": "address",
							"name": "token",
							"type": "address"
						},
						{
							"internalType": "uint112",
							"name": "balanceToken",
							"type": "uint112"
						},
						{
							"internalType": "uint112",
							"name": "balanceCerUsd",
							"type": "uint112"
						},
						{
							"internalType": "uint112",
							"name": "lastRootKValue",
							"type": "uint112"
						},
						{
							"internalType": "uint32[8]",
							"name": "hourlyTradeVolumeInCerUsd",
							"type": "uint32[8]"
						}
					],
					"internalType": "struct CerbySwapV1.Pool",
					"name": "",
					"type": "tuple"
				}
			],
			"stateMutability": "view",
			"type": "function"
		},
		{
			"inputs": [],
			"name": "testGetPrices",
			"outputs": [
				{
					"internalType": "uint256",
					"name": "",
					"type": "uint256"
				},
				{
					"internalType": "uint256",
					"name": "",
					"type": "uint256"
				}
			],
			"stateMutability": "view",
			"type": "function"
		}
	]
}