{
	"data": {
		"bytecode": {
			"linkReferences": {},
			"object": "60806040526040518060400160405280600d81526020017f43657262792053776170205631000000000000000000000000000000000000008152506006908051906020019062000051929190620011df565b506040518060400160405280600d81526020017f43455242595f535741505f563100000000000000000000000000000000000000815250600790805190602001906200009f929190620011df565b506040518060600160405280602381526020016200bb5f6023913960089080519060200190620000d1929190620011df565b50733d982cb3bc8d1248b17f22b567524bf7bffd3b11602560006101000a81548173ffffffffffffffffffffffffffffffffffffffff021916908373ffffffffffffffffffffffffffffffffffffffff1602179055507337e140032ac3a8428ed43761a9881d4741eb3a73602660006101000a81548173ffffffffffffffffffffffffffffffffffffffff021916908373ffffffffffffffffffffffffffffffffffffffff16021790555073d575ef966cfe21a5a5602dfadad3d1cae8c60fdb602760006101000a81548173ffffffffffffffffffffffffffffffffffffffff021916908373ffffffffffffffffffffffffffffffffffffffff1602179055507314769f96e57b80c66837701de0b43686fb4632de602960006101000a81548173ffffffffffffffffffffffffffffffffffffffff021916908373ffffffffffffffffffffffffffffffffffffffff1602179055503480156200023357600080fd5b506008604051602001620002489190620014bc565b604051602081830303815290604052620002688162000f2b60201b60201c565b506200027e6000801b3362000f4760201b60201c565b6040518061032001604052806040518060400160405280600181526020017f410000000000000000000000000000000000000000000000000000000000000081525081526020016040518060400160405280600181526020017f420000000000000000000000000000000000000000000000000000000000000081525081526020016040518060400160405280600181526020017f430000000000000000000000000000000000000000000000000000000000000081525081526020016040518060400160405280600181526020017f440000000000000000000000000000000000000000000000000000000000000081525081526020016040518060400160405280600181526020017f450000000000000000000000000000000000000000000000000000000000000081525081526020016040518060400160405280600181526020017f460000000000000000000000000000000000000000000000000000000000000081525081526020016040518060400160405280600181526020017f470000000000000000000000000000000000000000000000000000000000000081525081526020016040518060400160405280600181526020017f480000000000000000000000000000000000000000000000000000000000000081525081526020016040518060400160405280600181526020017f690000000000000000000000000000000000000000000000000000000000000081525081526020016040518060400160405280600181526020017f4a0000000000000000000000000000000000000000000000000000000000000081525081526020016040518060400160405280600181526020017f4b0000000000000000000000000000000000000000000000000000000000000081525081526020016040518060400160405280600181526020017f4c0000000000000000000000000000000000000000000000000000000000000081525081526020016040518060400160405280600181526020017f4d0000000000000000000000000000000000000000000000000000000000000081525081526020016040518060400160405280600181526020017f4e0000000000000000000000000000000000000000000000000000000000000081525081526020016040518060400160405280600181526020017f4f0000000000000000000000000000000000000000000000000000000000000081525081526020016040518060400160405280600181526020017f500000000000000000000000000000000000000000000000000000000000000081525081526020016040518060400160405280600181526020017f510000000000000000000000000000000000000000000000000000000000000081525081526020016040518060400160405280600181526020017f520000000000000000000000000000000000000000000000000000000000000081525081526020016040518060400160405280600181526020017f530000000000000000000000000000000000000000000000000000000000000081525081526020016040518060400160405280600181526020017f540000000000000000000000000000000000000000000000000000000000000081525081526020016040518060400160405280600181526020017f550000000000000000000000000000000000000000000000000000000000000081525081526020016040518060400160405280600181526020017f560000000000000000000000000000000000000000000000000000000000000081525081526020016040518060400160405280600181526020017f570000000000000000000000000000000000000000000000000000000000000081525081526020016040518060400160405280600181526020017f580000000000000000000000000000000000000000000000000000000000000081525081526020016040518060400160405280600181526020017f5900000000000000000000000000000000000000000000000000000000000000815250815250600960008201518160000190805190602001906200086b929190620011df565b5060208201518160010190805190602001906200088a929190620011df565b506040820151816002019080519060200190620008a9929190620011df565b506060820151816003019080519060200190620008c8929190620011df565b506080820151816004019080519060200190620008e7929190620011df565b5060a082015181600501908051906020019062000906929190620011df565b5060c082015181600601908051906020019062000925929190620011df565b5060e082015181600701908051906020019062000944929190620011df565b5061010082015181600801908051906020019062000964929190620011df565b5061012082015181600901908051906020019062000984929190620011df565b5061014082015181600a019080519060200190620009a4929190620011df565b5061016082015181600b019080519060200190620009c4929190620011df565b5061018082015181600c019080519060200190620009e4929190620011df565b506101a082015181600d01908051906020019062000a04929190620011df565b506101c082015181600e01908051906020019062000a24929190620011df565b506101e082015181600f01908051906020019062000a44929190620011df565b5061020082015181601001908051906020019062000a64929190620011df565b5061022082015181601101908051906020019062000a84929190620011df565b5061024082015181601201908051906020019062000aa4929190620011df565b5061026082015181601301908051906020019062000ac4929190620011df565b5061028082015181601401908051906020019062000ae4929190620011df565b506102a082015181601501908051906020019062000b04929190620011df565b506102c082015181601601908051906020019062000b24929190620011df565b506102e082015181601701908051906020019062000b44929190620011df565b5061030082015181601801908051906020019062000b64929190620011df565b509050506040518060c00160405280630dead12373ffffffffffffffffffffffffffffffffffffffff1681526020016000815260200160018152602001606481526020016064600f61271062000bbb91906200151b565b62000bc79190620015ab565b8152602001600f61271062000bdd91906200151b565b815250602a60008201518160000160006101000a81548173ffffffffffffffffffffffffffffffffffffffff021916908373ffffffffffffffffffffffffffffffffffffffff1602179055506020820151816001015560408201518160020155606082015181600301556080820151816004015560a0820151816005015590505062000c6862001270565b60226040518060a00160405280600073ffffffffffffffffffffffffffffffffffffffff16815260200183815260200160006fffffffffffffffffffffffffffffffff16815260200160006fffffffffffffffffffffffffffffffff16815260200160006fffffffffffffffffffffffffffffffff16815250908060018154018082558091505060019003906000526020600020906004020160009091909190915060008201518160000160006101000a81548173ffffffffffffffffffffffffffffffffffffffff021916908373ffffffffffffffffffffffffffffffffffffffff16021790555060208201518160010190600862000d6a92919062001293565b5060408201518160020160006101000a8154816fffffffffffffffffffffffffffffffff02191690836fffffffffffffffffffffffffffffffff16021790555060608201518160020160106101000a8154816fffffffffffffffffffffffffffffffff02191690836fffffffffffffffffffffffffffffffff16021790555060808201518160030160006101000a8154816fffffffffffffffffffffffffffffffff02191690836fffffffffffffffffffffffffffffffff160217905550505061303946141562000e7e5761dead602960006101000a81548173ffffffffffffffffffffffffffffffffffffffff021916908373ffffffffffffffffffffffffffffffffffffffff16021790555062000ecf565b620181cd46141562000ece5761dead602960006101000a81548173ffffffffffffffffffffffffffffffffffffffff021916908373ffffffffffffffffffffffffffffffffffffffff1602179055505b5b7314769f96e57b80c66837701de0b43686fb4632de602960006101000a81548173ffffffffffffffffffffffffffffffffffffffff021916908373ffffffffffffffffffffffffffffffffffffffff16021790555050620015e3565b806002908051906020019062000f43929190620011df565b5050565b62000f59828262000f5d60201b60201c565b5050565b62000f74828262000fa560201b620043151760201c565b62000fa081600560008581526020019081526020016000206200109760201b620043f61790919060201c565b505050565b62000fb78282620010cf60201b60201c565b620010935760016004600084815260200190815260200160002060000160008373ffffffffffffffffffffffffffffffffffffffff1673ffffffffffffffffffffffffffffffffffffffff16815260200190815260200160002060006101000a81548160ff021916908315150217905550620010386200113a60201b60201c565b73ffffffffffffffffffffffffffffffffffffffff168173ffffffffffffffffffffffffffffffffffffffff16837f2f8788117e7eff1d82e926ec794901d17c78024a50270940304540a733656f0d60405160405180910390a45b5050565b6000620010c7836000018373ffffffffffffffffffffffffffffffffffffffff1660001b6200114260201b60201c565b905092915050565b60006004600084815260200190815260200160002060000160008373ffffffffffffffffffffffffffffffffffffffff1673ffffffffffffffffffffffffffffffffffffffff16815260200190815260200160002060009054906101000a900460ff16905092915050565b600033905090565b6000620011568383620011bc60201b60201c565b620011b1578260000182908060018154018082558091505060019003906000526020600020016000909190919091505582600001805490508360010160008481526020019081526020016000208190555060019050620011b6565b600090505b92915050565b600080836001016000848152602001908152602001600020541415905092915050565b828054620011ed906200138b565b90600052602060002090601f0160209004810192826200121157600085556200125d565b82601f106200122c57805160ff19168380011785556200125d565b828001600101855582156200125d579182015b828111156200125c5782518255916020019190600101906200123f565b5b5090506200126c91906200133d565b5090565b604051806101000160405280600890602082028036833780820191505090505090565b8260086007016008900481019282156200132a5791602002820160005b83821115620012f657835183826101000a81548163ffffffff021916908363ffffffff1602179055509260200192600401602081600301049283019260010302620012b0565b8015620013285782816101000a81549063ffffffff0219169055600401602081600301049283019260010302620012f6565b505b5090506200133991906200133d565b5090565b5b80821115620013585760008160009055506001016200133e565b5090565b7f4e487b7100000000000000000000000000000000000000000000000000000000600052602260045260246000fd5b60006002820490506001821680620013a457607f821691505b60208210811415620013bb57620013ba6200135c565b5b50919050565b600081905092915050565b60008190508160005260206000209050919050565b60008154620013f0816200138b565b620013fc8186620013c1565b945060018216600081146200141a57600181146200142c5762001463565b60ff1983168652818601935062001463565b6200143785620013cc565b60005b838110156200145b578154818901526001820191506020810190506200143a565b838801955050505b50505092915050565b7f7b69647d2e6a736f6e0000000000000000000000000000000000000000000000600082015250565b6000620014a4600983620013c1565b9150620014b1826200146c565b600982019050919050565b6000620014ca8284620013e1565b9150620014d78262001495565b915081905092915050565b6000819050919050565b7f4e487b7100000000000000000000000000000000000000000000000000000000600052601160045260246000fd5b60006200152882620014e2565b91506200153583620014e2565b9250817fffffffffffffffffffffffffffffffffffffffffffffffffffffffffffffffff0483118215151615620015715762001570620014ec565b5b828202905092915050565b7f4e487b7100000000000000000000000000000000000000000000000000000000600052601260045260246000fd5b6000620015b882620014e2565b9150620015c583620014e2565b925082620015d857620015d76200157c565b5b828204905092915050565b61a56c80620015f36000396000f3fe6080604052600436106102805760003560e01c806395d89b411161014f578063ca15c873116100c1578063e985e9c51161007a578063e985e9c514610a16578063eca0109314610a53578063f242432a14610a7c578063f3e6ea8a14610aa5578063f5298aca14610ac1578063f652472414610aea57610287565b8063ca15c873146108fc578063d01350bd14610939578063d391014b14610976578063d547741f146109a1578063d5d60737146109ca578063e06174e4146109e657610287565b8063b5d11e9911610113578063b5d11e99146107e7578063b771e425146107fe578063bbadc03b1461083b578063bd85b03914610878578063c09c923b146108b5578063c790985a146108bf57610287565b806395d89b41146107105780639bc731fc1461073b578063a22cb46514610764578063a60c6e551461078d578063a7fd40bf146107be57610287565b80632f2ff15d116101f35780634e1273f4116101ac5780634e1273f4146105b65780634f558e79146105f357806374fcf071146106305780639010d07c146106595780639162ebf01461069657806391d14854146106d357610287565b80632f2ff15d146104b7578063313ce567146104e057806336568abe1461050b5780633935ac111461053457806343fefad41461055d57806348b08d621461057957610287565b806306fdde031161024557806306fdde03146103955780630c2e075b146103c05780630e89341c146103e957806318160ddd14610426578063248a9ca3146104515780632eb2c2d61461048e57610287565b8062fdd58e1461028c57806301ffc9a7146102c957806303d604bd1461030657806303ed957f1461032f57806306fb1a071461035857610287565b3661028757005b600080fd5b34801561029857600080fd5b506102b360048036038101906102ae9190617f77565b610b1b565b6040516102c09190617fc6565b60405180910390f35b3480156102d557600080fd5b506102f060048036038101906102eb9190618039565b610be4565b6040516102fd9190618081565b60405180910390f35b34801561031257600080fd5b5061032d6004803603810190610328919061809c565b610cc6565b005b34801561033b57600080fd5b506103566004803603810190610351919061812e565b610f4a565b005b34801561036457600080fd5b5061037f600480360381019061037a919061817b565b610fd6565b60405161038c91906181b7565b60405180910390f35b3480156103a157600080fd5b506103aa61106d565b6040516103b7919061826b565b60405180910390f35b3480156103cc57600080fd5b506103e760048036038101906103e291906182b1565b6110ff565b005b3480156103f557600080fd5b50610410600480360381019061040b919061817b565b6111ef565b60405161041d919061826b565b60405180910390f35b34801561043257600080fd5b5061043b61121b565b6040516104489190617fc6565b60405180910390f35b34801561045d57600080fd5b5061047860048036038101906104739190618314565b611277565b6040516104859190618350565b60405180910390f35b34801561049a57600080fd5b506104b560048036038101906104b0919061855e565b611297565b005b3480156104c357600080fd5b506104de60048036038101906104d9919061862d565b61129e565b005b3480156104ec57600080fd5b506104f56112c7565b6040516105029190617fc6565b60405180910390f35b34801561051757600080fd5b50610532600480360381019061052d919061862d565b6112d0565b005b34801561054057600080fd5b5061055b6004803603810190610556919061870e565b611353565b005b61057760048036038101906105729190618786565b61139b565b005b34801561058557600080fd5b506105a0600480360381019061059b91906187ed565b611ca5565b6040516105ad9190617fc6565b60405180910390f35b3480156105c257600080fd5b506105dd60048036038101906105d89190618903565b611eff565b6040516105ea9190618a39565b60405180910390f35b3480156105ff57600080fd5b5061061a6004803603810190610615919061817b565b612018565b6040516106279190618081565b60405180910390f35b34801561063c57600080fd5b5061065760048036038101906106529190618786565b61202c565b005b34801561066557600080fd5b50610680600480360381019061067b9190618a5b565b612170565b60405161068d91906181b7565b60405180910390f35b3480156106a257600080fd5b506106bd60048036038101906106b8919061809c565b61219f565b6040516106ca9190617fc6565b60405180910390f35b3480156106df57600080fd5b506106fa60048036038101906106f5919061862d565b6121f0565b6040516107079190618081565b60405180910390f35b34801561071c57600080fd5b5061072561225b565b604051610732919061826b565b60405180910390f35b34801561074757600080fd5b50610762600480360381019061075d919061809c565b6122ed565b005b34801561077057600080fd5b5061078b60048036038101906107869190618ac7565b612691565b005b6107a760048036038101906107a29190618b07565b61285d565b6040516107b5929190618b94565b60405180910390f35b3480156107ca57600080fd5b506107e560048036038101906107e09190618bbd565b612cde565b005b3480156107f357600080fd5b506107fc612d36565b005b34801561080a57600080fd5b506108256004803603810190610820919061809c565b612db2565b6040516108329190617fc6565b60405180910390f35b34801561084757600080fd5b50610862600480360381019061085d919061809c565b612dfb565b60405161086f9190618d67565b60405180910390f35b34801561088457600080fd5b5061089f600480360381019061089a919061817b565b61301b565b6040516108ac9190617fc6565b60405180910390f35b6108bd613038565b005b3480156108cb57600080fd5b506108e660048036038101906108e191906187ed565b613079565b6040516108f39190617fc6565b60405180910390f35b34801561090857600080fd5b50610923600480360381019061091e9190618314565b6132d3565b6040516109309190617fc6565b60405180910390f35b34801561094557600080fd5b50610960600480360381019061095b919061817b565b6132f7565b60405161096d9190618d67565b60405180910390f35b34801561098257600080fd5b5061098b6134d8565b6040516109989190618350565b60405180910390f35b3480156109ad57600080fd5b506109c860048036038101906109c3919061862d565b6134df565b005b6109e460048036038101906109df9190618786565b613508565b005b3480156109f257600080fd5b506109fb613a68565b604051610a0d96959493929190618d83565b60405180910390f35b348015610a2257600080fd5b50610a3d6004803603810190610a389190618de4565b613ab2565b604051610a4a9190618081565b60405180910390f35b348015610a5f57600080fd5b50610a7a6004803603810190610a759190618e24565b613b46565b005b348015610a8857600080fd5b50610aa36004803603810190610a9e9190618e9f565b613c59565b005b610abf6004803603810190610aba9190618786565b613d05565b005b348015610acd57600080fd5b50610ae86004803603810190610ae39190618f36565b613d17565b005b610b046004803603810190610aff9190618b07565b613db4565b604051610b12929190618b94565b60405180910390f35b60008073ffffffffffffffffffffffffffffffffffffffff168373ffffffffffffffffffffffffffffffffffffffff161415610b8c576040517f08c379a0000000000000000000000000000000000000000000000000000000008152600401610b8390618ffb565b60405180910390fd5b60008083815260200190815260200160002060008473ffffffffffffffffffffffffffffffffffffffff1673ffffffffffffffffffffffffffffffffffffffff16815260200190815260200160002054905092915050565b60007fd9b67a26000000000000000000000000000000000000000000000000000000007bffffffffffffffffffffffffffffffffffffffffffffffffffffffff1916827bffffffffffffffffffffffffffffffffffffffffffffffffffffffff19161480610caf57507f0e89341c000000000000000000000000000000000000000000000000000000007bffffffffffffffffffffffffffffffffffffffffffffffffffffffff1916827bffffffffffffffffffffffffffffffffffffffffffffffffffffffff1916145b80610cbf5750610cbe82614426565b5b9050919050565b806000602360008373ffffffffffffffffffffffffffffffffffffffff1673ffffffffffffffffffffffffffffffffffffffff16815260200190815260200160002054118015610d645750602660009054906101000a900473ffffffffffffffffffffffffffffffffffffffff1673ffffffffffffffffffffffffffffffffffffffff168173ffffffffffffffffffffffffffffffffffffffff1614155b600960020190610daa576040517f08c379a0000000000000000000000000000000000000000000000000000000008152600401610da19190619111565b60405180910390fd5b506000602360008473ffffffffffffffffffffffffffffffffffffffff1673ffffffffffffffffffffffffffffffffffffffff1681526020019081526020016000205490506000610dfa846144a0565b90506000610e29602660009054906101000a900473ffffffffffffffffffffffffffffffffffffffff166144a0565b9050600060228481548110610e4157610e40619133565b5b906000526020600020906004020160020160009054906101000a90046fffffffffffffffffffffffffffffffff166fffffffffffffffffffffffffffffffff1683610e8c9190619191565b90506000811115610ea557610ea48633836000614582565b5b600060228581548110610ebb57610eba619133565b5b906000526020600020906004020160020160109054906101000a90046fffffffffffffffffffffffffffffffff166fffffffffffffffffffffffffffffffff1683610f069190619191565b90506000811115610f4157610f40602660009054906101000a900473ffffffffffffffffffffffffffffffffffffffff1633836000614582565b5b50505050505050565b6000801b610f5f81610f5a61462d565b614635565b60005b83839050811015610fd057610fbd848483818110610f8357610f82619133565b5b90506040020160000135858584818110610fa057610f9f619133565b5b9050604002016020016020810190610fb8919061809c565b6146d2565b8080610fc8906191c5565b915050610f62565b50505050565b600073def1fac7bf08f173d286bbbdcbeeade69512984073ffffffffffffffffffffffffffffffffffffffff166306fb1a07836040518263ffffffff1660e01b81526004016110259190617fc6565b602060405180830381865afa158015611042573d6000803e3d6000fd5b505050506040513d601f19601f820116820180604052508101906110669190619223565b9050919050565b60606006805461107c9061904a565b80601f01602080910402602001604051908101604052809291908181526020018280546110a89061904a565b80156110f55780601f106110ca576101008083540402835291602001916110f5565b820191906000526020600020905b8154815290600101906020018083116110d857829003601f168201915b5050505050905090565b6000801b6111148161110f61462d565b614635565b8160400135600010801561112f575081606001358260400135105b801561114057506101f48260600135105b600960170190611186576040517f08c379a000000000000000000000000000000000000000000000000000000000815260040161117d9190619111565b60405180910390fd5b508160a001358260800135106009601801906111d8576040517f08c379a00000000000000000000000000000000000000000000000000000000081526004016111cf9190619111565b60405180910390fd5b5081602a81816111e89190619497565b9050505050565b606060088260405160200161120592919061959c565b6040516020818303038152906040529050919050565b60008060005b60006003600084611231906191c5565b945084815260200190815260200160002054111561126f5760036000838152602001908152602001600020548161126891906195cf565b9050611221565b809250505090565b600060046000838152602001908152602001600020600101549050919050565b5050505050565b6112a782611277565b6112b8816112b361462d565b614635565b6112c283836146e0565b505050565b60006012905090565b6112d861462d565b73ffffffffffffffffffffffffffffffffffffffff168173ffffffffffffffffffffffffffffffffffffffff1614611345576040517f08c379a000000000000000000000000000000000000000000000000000000000815260040161133c90619697565b60405180910390fd5b61134f8282614714565b5050565b6000801b6113688161136361462d565b614635565b826006908051906020019061137e929190617ce5565b508160079080519060200190611395929190617ce5565b50505050565b836000602360008373ffffffffffffffffffffffffffffffffffffffff1673ffffffffffffffffffffffffffffffffffffffff168152602001908152602001600020541180156114395750602660009054906101000a900473ffffffffffffffffffffffffffffffffffffffff1673ffffffffffffffffffffffffffffffffffffffff168173ffffffffffffffffffffffffffffffffffffffff1614155b60096002019061147f576040517f08c379a00000000000000000000000000000000000000000000000000000000081526004016114769190619111565b60405180910390fd5b5082804211156009600301906114cb576040517f08c379a00000000000000000000000000000000000000000000000000000000081526004016114c29190619111565b60405180910390fd5b506000602360008873ffffffffffffffffffffffffffffffffffffffff1673ffffffffffffffffffffffffffffffffffffffff16815260200190815260200160002054905061151b873388614748565b6000611526886144a0565b90506022828154811061153c5761153b619133565b5b906000526020600020906004020160020160009054906101000a90046fffffffffffffffffffffffffffffffff166fffffffffffffffffffffffffffffffff16816115879190619191565b9650600087116009600501906115d3576040517f08c379a00000000000000000000000000000000000000000000000000000000081526004016115ca9190619111565b60405180910390fd5b506000611601602660009054906101000a900473ffffffffffffffffffffffffffffffffffffffff166144a0565b90506000602454826116139190619191565b905060006116d16022868154811061162e5761162d619133565b5b906000526020600020906004020160020160109054906101000a90046fffffffffffffffffffffffffffffffff166fffffffffffffffffffffffffffffffff166022878154811061168257611681619133565b5b906000526020600020906004020160020160009054906101000a90046fffffffffffffffffffffffffffffffff166fffffffffffffffffffffffffffffffff166116cc91906196b7565b614918565b90506000611746602287815481106116ec576116eb619133565b5b906000526020600020906004020160030160009054906101000a90046fffffffffffffffffffffffffffffffff166fffffffffffffffffffffffffffffffff1683600360008a815260200190815260200160002054614975565b9050600081111561179257611791602a60000160009054906101000a900473ffffffffffffffffffffffffffffffffffffffff168783604051806020016040528060008152506149fb565b5b50506000602285815481106117aa576117a9619133565b5b906000526020600020906004020160020160009054906101000a90046fffffffffffffffffffffffffffffffff166fffffffffffffffffffffffffffffffff1660036000878152602001908152602001600020548b61180991906196b7565b6118139190619740565b9050611830888683604051806020016040528060008152506149fb565b60006022868154811061184657611845619133565b5b906000526020600020906004020160020160009054906101000a90046fffffffffffffffffffffffffffffffff166fffffffffffffffffffffffffffffffff166022878154811061189a57611899619133565b5b906000526020600020906004020160020160109054906101000a90046fffffffffffffffffffffffffffffffff166fffffffffffffffffffffffffffffffff168c6118e591906196b7565b6118ef9190619740565b90506000811160096014019061193b576040517f08c379a00000000000000000000000000000000000000000000000000000000081526004016119329190619111565b60405180910390fd5b50602660009054906101000a900473ffffffffffffffffffffffffffffffffffffffff1673ffffffffffffffffffffffffffffffffffffffff16630bb9ff5d30836040518363ffffffff1660e01b8152600401611999929190619771565b600060405180830381600087803b1580156119b357600080fd5b505af11580156119c7573d6000803e3d6000fd5b5050505080836024546119da91906195cf565b6119e491906195cf565b6024819055508a602287815481106119ff576119fe619133565b5b906000526020600020906004020160020160009054906101000a90046fffffffffffffffffffffffffffffffff16611a37919061979a565b60228781548110611a4b57611a4a619133565b5b906000526020600020906004020160020160006101000a8154816fffffffffffffffffffffffffffffffff02191690836fffffffffffffffffffffffffffffffff1602179055508083611a9e91906195cf565b60228781548110611ab257611ab1619133565b5b906000526020600020906004020160020160109054906101000a90046fffffffffffffffffffffffffffffffff16611aea919061979a565b60228781548110611afe57611afd619133565b5b906000526020600020906004020160020160106101000a8154816fffffffffffffffffffffffffffffffff02191690836fffffffffffffffffffffffffffffffff160217905550611bff60228781548110611b5c57611b5b619133565b5b906000526020600020906004020160020160109054906101000a90046fffffffffffffffffffffffffffffffff166fffffffffffffffffffffffffffffffff1660228881548110611bb057611baf619133565b5b906000526020600020906004020160020160009054906101000a90046fffffffffffffffffffffffffffffffff166fffffffffffffffffffffffffffffffff16611bfa91906196b7565b614918565b60228781548110611c1357611c12619133565b5b906000526020600020906004020160030160006101000a8154816fffffffffffffffffffffffffffffffff02191690836fffffffffffffffffffffffffffffffff1602179055507f64b83944e79c3ce8d4c297411de637c3e102d064677aac0c163976ebdcd6f50e8c8c8385604051611c8f94939291906197e0565b60405180910390a1505050505050505050505050565b6000602660009054906101000a900473ffffffffffffffffffffffffffffffffffffffff1673ffffffffffffffffffffffffffffffffffffffff168473ffffffffffffffffffffffffffffffffffffffff1614158015611d525750602660009054906101000a900473ffffffffffffffffffffffffffffffffffffffff1673ffffffffffffffffffffffffffffffffffffffff168373ffffffffffffffffffffffffffffffffffffffff16145b15611d6857611d618483614b91565b9050611ef8565b602660009054906101000a900473ffffffffffffffffffffffffffffffffffffffff1673ffffffffffffffffffffffffffffffffffffffff168473ffffffffffffffffffffffffffffffffffffffff16148015611e135750602660009054906101000a900473ffffffffffffffffffffffffffffffffffffffff1673ffffffffffffffffffffffffffffffffffffffff168373ffffffffffffffffffffffffffffffffffffffff1614155b15611e2957611e228383614d80565b9050611ef7565b602660009054906101000a900473ffffffffffffffffffffffffffffffffffffffff1673ffffffffffffffffffffffffffffffffffffffff168473ffffffffffffffffffffffffffffffffffffffff1614158015611ed55750602660009054906101000a900473ffffffffffffffffffffffffffffffffffffffff1673ffffffffffffffffffffffffffffffffffffffff168473ffffffffffffffffffffffffffffffffffffffff1614155b15611ef6576000611ee68584614b91565b9050611ef28482614d80565b9150505b5b5b9392505050565b60608151835114611f45576040517f08c379a0000000000000000000000000000000000000000000000000000000008152600401611f3c90619897565b60405180910390fd5b6000835167ffffffffffffffff811115611f6257611f6161836b565b5b604051908082528060200260200182016040528015611f905781602001602082028036833780820191505090505b50905060005b845181101561200d57611fdd858281518110611fb557611fb4619133565b5b6020026020010151858381518110611fd057611fcf619133565b5b6020026020010151610b1b565b828281518110611ff057611fef619133565b5b60200260200101818152505080612006906191c5565b9050611f96565b508091505092915050565b6000806120248361301b565b119050919050565b836000602360008373ffffffffffffffffffffffffffffffffffffffff1673ffffffffffffffffffffffffffffffffffffffff168152602001908152602001600020541180156120ca5750602660009054906101000a900473ffffffffffffffffffffffffffffffffffffffff1673ffffffffffffffffffffffffffffffffffffffff168173ffffffffffffffffffffffffffffffffffffffff1614155b600960020190612110576040517f08c379a00000000000000000000000000000000000000000000000000000000081526004016121079190619111565b60405180910390fd5b50828042111560096003019061215c576040517f08c379a00000000000000000000000000000000000000000000000000000000081526004016121539190619111565b60405180910390fd5b50612168868685614f6f565b505050505050565b600061219782600560008681526020019081526020016000206156ac90919063ffffffff16565b905092915050565b60006121e9602360008473ffffffffffffffffffffffffffffffffffffffff1673ffffffffffffffffffffffffffffffffffffffff168152602001908152602001600020546156c6565b9050919050565b60006004600084815260200190815260200160002060000160008373ffffffffffffffffffffffffffffffffffffffff1673ffffffffffffffffffffffffffffffffffffffff16815260200190815260200160002060009054906101000a900460ff16905092915050565b60606007805461226a9061904a565b80601f01602080910402602001604051908101604052809291908181526020018280546122969061904a565b80156122e35780601f106122b8576101008083540402835291602001916122e3565b820191906000526020600020905b8154815290600101906020018083116122c657829003601f168201915b5050505050905090565b806000602360008373ffffffffffffffffffffffffffffffffffffffff1673ffffffffffffffffffffffffffffffffffffffff1681526020019081526020016000205411801561238b5750602660009054906101000a900473ffffffffffffffffffffffffffffffffffffffff1673ffffffffffffffffffffffffffffffffffffffff168173ffffffffffffffffffffffffffffffffffffffff1614155b6009600201906123d1576040517f08c379a00000000000000000000000000000000000000000000000000000000081526004016123c89190619111565b60405180910390fd5b506000602360008473ffffffffffffffffffffffffffffffffffffffff1673ffffffffffffffffffffffffffffffffffffffff16815260200190815260200160002054905061241f836144a0565b6022828154811061243357612432619133565b5b906000526020600020906004020160020160006101000a8154816fffffffffffffffffffffffffffffffff02191690836fffffffffffffffffffffffffffffffff16021790555060006124a7602660009054906101000a900473ffffffffffffffffffffffffffffffffffffffff166144a0565b9050602454811161251157806024546124c09190619191565b602283815481106124d4576124d3619133565b5b906000526020600020906004020160020160109054906101000a90046fffffffffffffffffffffffffffffffff1661250c91906198b7565b61256c565b6024548161251f9190619191565b6022838154811061253357612532619133565b5b906000526020600020906004020160020160109054906101000a90046fffffffffffffffffffffffffffffffff1661256b919061979a565b5b602283815481106125805761257f619133565b5b906000526020600020906004020160020160106101000a8154816fffffffffffffffffffffffffffffffff02191690836fffffffffffffffffffffffffffffffff160217905550806024819055507ff10fc780c78f994a214c79a2ae8d8b7bfe7cc3f0f935a8f05a29525e71d7f127846022848154811061260457612603619133565b5b906000526020600020906004020160020160009054906101000a90046fffffffffffffffffffffffffffffffff166022858154811061264657612645619133565b5b906000526020600020906004020160020160109054906101000a90046fffffffffffffffffffffffffffffffff166040516126839392919061991c565b60405180910390a150505050565b3033600073def1fac7bf08f173d286bbbdcbeeade69512984073ffffffffffffffffffffffffffffffffffffffff166306fb1a0760036040518263ffffffff1660e01b81526004016126e39190617fc6565b602060405180830381865afa158015612700573d6000803e3d6000fd5b505050506040513d601f19601f820116820180604052508101906127249190619223565b90508073ffffffffffffffffffffffffffffffffffffffff1663322d5fbc84846040518363ffffffff1660e01b8152600401612761929190619953565b6020604051808303816000875af1158015612780573d6000803e3d6000fd5b505050506040513d601f19601f820116820180604052508101906127a49190619991565b156127e4576040517f08c379a00000000000000000000000000000000000000000000000000000000081526004016127db90619a30565b60405180910390fd5b8073ffffffffffffffffffffffffffffffffffffffff1663eef84ba16040518163ffffffff1660e01b8152600401600060405180830381600087803b15801561282c57600080fd5b505af1158015612840573d6000803e3d6000fd5b5050505061285661284f61462d565b868661593c565b5050505050565b60008083804211156009600301906128ab576040517f08c379a00000000000000000000000000000000000000000000000000000000081526004016128a29190619111565b60405180910390fd5b50600187116009600501906128f6576040517f08c379a00000000000000000000000000000000000000000000000000000000081526004016128ed9190619111565b60405180910390fd5b5060003390506000602660009054906101000a900473ffffffffffffffffffffffffffffffffffffffff1673ffffffffffffffffffffffffffffffffffffffff168b73ffffffffffffffffffffffffffffffffffffffff16141580156129a95750602660009054906101000a900473ffffffffffffffffffffffffffffffffffffffff1673ffffffffffffffffffffffffffffffffffffffff168a73ffffffffffffffffffffffffffffffffffffffff16145b15612a22576129b88b8a614b91565b905087811015600960070190612a04576040517f08c379a00000000000000000000000000000000000000000000000000000000081526004016129fb9190619111565b60405180910390fd5b50612a108b838b614748565b612a1d8b60008389615aa9565b612cca565b602660009054906101000a900473ffffffffffffffffffffffffffffffffffffffff1673ffffffffffffffffffffffffffffffffffffffff168b73ffffffffffffffffffffffffffffffffffffffff16148015612acd5750602660009054906101000a900473ffffffffffffffffffffffffffffffffffffffff1673ffffffffffffffffffffffffffffffffffffffff168a73ffffffffffffffffffffffffffffffffffffffff1614155b15612b4657612adc8a8a614d80565b905087811015600960080190612b28576040517f08c379a0000000000000000000000000000000000000000000000000000000008152600401612b1f9190619111565b60405180910390fd5b50612b348b838b614748565b612b418a82600089615aa9565b612cc9565b602660009054906101000a900473ffffffffffffffffffffffffffffffffffffffff1673ffffffffffffffffffffffffffffffffffffffff168b73ffffffffffffffffffffffffffffffffffffffff1614158015612bf25750602660009054906101000a900473ffffffffffffffffffffffffffffffffffffffff1673ffffffffffffffffffffffffffffffffffffffff168b73ffffffffffffffffffffffffffffffffffffffff1614155b15612c87576000612c038c8b614b91565b9050612c0f8b82614d80565b915088821015600960080190612c5b576040517f08c379a0000000000000000000000000000000000000000000000000000000008152600401612c529190619111565b60405180910390fd5b50612c678c848c614748565b612c748c60008330615aa9565b612c818b8360008a615aa9565b50612cc8565b6009600b016040517f08c379a0000000000000000000000000000000000000000000000000000000008152600401612cbf9190619111565b60405180910390fd5b5b5b888194509450505050965096945050505050565b6000801b612cf381612cee61462d565b614635565b612d1b82604051602001612d079190619acd565b6040516020818303038152906040526163bc565b8160089080519060200190612d31929190617ce5565b505050565b612d78602560009054906101000a900473ffffffffffffffffffffffffffffffffffffffff1669d3c21bcecceda10000006969e10de76676d080000033613508565b612db0602760009054906101000a900473ffffffffffffffffffffffffffffffffffffffff1669943b1377290cbd8000008033613508565b565b6000602360008373ffffffffffffffffffffffffffffffffffffffff1673ffffffffffffffffffffffffffffffffffffffff168152602001908152602001600020549050919050565b612e03617d6b565b6022602360008473ffffffffffffffffffffffffffffffffffffffff1673ffffffffffffffffffffffffffffffffffffffff1681526020019081526020016000205481548110612e5657612e55619133565b5b90600052602060002090600402016040518060a00160405290816000820160009054906101000a900473ffffffffffffffffffffffffffffffffffffffff1673ffffffffffffffffffffffffffffffffffffffff1673ffffffffffffffffffffffffffffffffffffffff16815260200160018201600880602002604051908101604052809291908260088015612f2d576020028201916000905b82829054906101000a900463ffffffff1663ffffffff1681526020019060040190602082600301049283019260010382029150808411612ef05790505b505050505081526020016002820160009054906101000a90046fffffffffffffffffffffffffffffffff166fffffffffffffffffffffffffffffffff166fffffffffffffffffffffffffffffffff1681526020016002820160109054906101000a90046fffffffffffffffffffffffffffffffff166fffffffffffffffffffffffffffffffff166fffffffffffffffffffffffffffffffff1681526020016003820160009054906101000a90046fffffffffffffffffffffffffffffffff166fffffffffffffffffffffffffffffffff166fffffffffffffffffffffffffffffffff16815250509050919050565b600060036000838152602001908152602001600020549050919050565b613077602960009054906101000a900473ffffffffffffffffffffffffffffffffffffffff1666038d7ea4c6800069d3c21bcecceda100000033613508565b565b6000602660009054906101000a900473ffffffffffffffffffffffffffffffffffffffff1673ffffffffffffffffffffffffffffffffffffffff168473ffffffffffffffffffffffffffffffffffffffff16141580156131265750602660009054906101000a900473ffffffffffffffffffffffffffffffffffffffff1673ffffffffffffffffffffffffffffffffffffffff168373ffffffffffffffffffffffffffffffffffffffff16145b1561313c5761313584836163d6565b90506132cc565b602660009054906101000a900473ffffffffffffffffffffffffffffffffffffffff1673ffffffffffffffffffffffffffffffffffffffff168473ffffffffffffffffffffffffffffffffffffffff161480156131e75750602660009054906101000a900473ffffffffffffffffffffffffffffffffffffffff1673ffffffffffffffffffffffffffffffffffffffff168373ffffffffffffffffffffffffffffffffffffffff1614155b156131fd576131f683836165c5565b90506132cb565b602660009054906101000a900473ffffffffffffffffffffffffffffffffffffffff1673ffffffffffffffffffffffffffffffffffffffff168473ffffffffffffffffffffffffffffffffffffffff16141580156132a95750602660009054906101000a900473ffffffffffffffffffffffffffffffffffffffff1673ffffffffffffffffffffffffffffffffffffffff168373ffffffffffffffffffffffffffffffffffffffff1614155b156132ca5760006132ba84846165c5565b90506132c685826163d6565b9150505b5b5b9392505050565b60006132f0600560008481526020019081526020016000206167b4565b9050919050565b6132ff617d6b565b6022828154811061331357613312619133565b5b90600052602060002090600402016040518060a00160405290816000820160009054906101000a900473ffffffffffffffffffffffffffffffffffffffff1673ffffffffffffffffffffffffffffffffffffffff1673ffffffffffffffffffffffffffffffffffffffff168152602001600182016008806020026040519081016040528092919082600880156133ea576020028201916000905b82829054906101000a900463ffffffff1663ffffffff16815260200190600401906020826003010492830192600103820291508084116133ad5790505b505050505081526020016002820160009054906101000a90046fffffffffffffffffffffffffffffffff166fffffffffffffffffffffffffffffffff166fffffffffffffffffffffffffffffffff1681526020016002820160109054906101000a90046fffffffffffffffffffffffffffffffff166fffffffffffffffffffffffffffffffff166fffffffffffffffffffffffffffffffff1681526020016003820160009054906101000a90046fffffffffffffffffffffffffffffffff166fffffffffffffffffffffffffffffffff166fffffffffffffffffffffffffffffffff16815250509050919050565b6000801b81565b6134e882611277565b6134f9816134f461462d565b614635565b6135038383614714565b505050565b6000801b61351d8161351861462d565b614635565b846000602360008373ffffffffffffffffffffffffffffffffffffffff1673ffffffffffffffffffffffffffffffffffffffff168152602001908152602001600020541480156135bb5750602660009054906101000a900473ffffffffffffffffffffffffffffffffffffffff1673ffffffffffffffffffffffffffffffffffffffff168173ffffffffffffffffffffffffffffffffffffffff1614155b600960010190613601576040517f08c379a00000000000000000000000000000000000000000000000000000000081526004016135f89190619111565b60405180910390fd5b5060006022805490509050613617873388614748565b602660009054906101000a900473ffffffffffffffffffffffffffffffffffffffff1673ffffffffffffffffffffffffffffffffffffffff16630bb9ff5d30876040518363ffffffff1660e01b8152600401613674929190619771565b600060405180830381600087803b15801561368e57600080fd5b505af11580156136a2573d6000803e3d6000fd5b505050506136af876144a0565b9550600086116009600501906136fb576040517f08c379a00000000000000000000000000000000000000000000000000000000081526004016136f29190619111565b60405180910390fd5b506000613712868861370d91906196b7565b614918565b905061371c617dec565b60005b600881101561376757600182826008811061373d5761373c619133565b5b602002019063ffffffff16908163ffffffff1681525050808061375f906191c5565b91505061371f565b5060006040518060a001604052808b73ffffffffffffffffffffffffffffffffffffffff1681526020018381526020018a6fffffffffffffffffffffffffffffffff168152602001896fffffffffffffffffffffffffffffffff168152602001846fffffffffffffffffffffffffffffffff168152509050602281908060018154018082558091505060019003906000526020600020906004020160009091909190915060008201518160000160006101000a81548173ffffffffffffffffffffffffffffffffffffffff021916908373ffffffffffffffffffffffffffffffffffffffff160217905550602082015181600101906008613869929190617e0f565b5060408201518160020160006101000a8154816fffffffffffffffffffffffffffffffff02191690836fffffffffffffffffffffffffffffffff16021790555060608201518160020160106101000a8154816fffffffffffffffffffffffffffffffff02191690836fffffffffffffffffffffffffffffffff16021790555060808201518160030160006101000a8154816fffffffffffffffffffffffffffffffff02191690836fffffffffffffffffffffffffffffffff160217905550505083602360008c73ffffffffffffffffffffffffffffffffffffffff1673ffffffffffffffffffffffffffffffffffffffff16815260200190815260200160002081905550876024600082825461397f91906195cf565b925050819055506139a561dead856103e8604051806020016040528060008152506149fb565b60006103e86139be8a8c6139b991906196b7565b614918565b6139c89190619191565b90506139e5888683604051806020016040528060008152506149fb565b7f17aa8d0e85db1d0531a8181b5bb84e1d4ed744db1cadd8814acd3d181ff301378b86604051613a16929190619771565b60405180910390a17f64b83944e79c3ce8d4c297411de637c3e102d064677aac0c163976ebdcd6f50e8b8b8b84604051613a5394939291906197e0565b60405180910390a15050505050505050505050565b602a8060000160009054906101000a900473ffffffffffffffffffffffffffffffffffffffff16908060010154908060020154908060030154908060040154908060050154905086565b6000600160008473ffffffffffffffffffffffffffffffffffffffff1673ffffffffffffffffffffffffffffffffffffffff16815260200190815260200160002060008373ffffffffffffffffffffffffffffffffffffffff1673ffffffffffffffffffffffffffffffffffffffff16815260200190815260200160002060009054906101000a900460ff16905092915050565b84602860006101000a81548173ffffffffffffffffffffffffffffffffffffffff021916908373ffffffffffffffffffffffffffffffffffffffff16021790555083602560006101000a81548173ffffffffffffffffffffffffffffffffffffffff021916908373ffffffffffffffffffffffffffffffffffffffff16021790555082602660006101000a81548173ffffffffffffffffffffffffffffffffffffffff021916908373ffffffffffffffffffffffffffffffffffffffff16021790555081602760006101000a81548173ffffffffffffffffffffffffffffffffffffffff021916908373ffffffffffffffffffffffffffffffffffffffff160217905550613c52612d36565b5050505050565b613c6161462d565b73ffffffffffffffffffffffffffffffffffffffff168573ffffffffffffffffffffffffffffffffffffffff161480613ca75750613ca685613ca161462d565b613ab2565b5b613ce6576040517f08c379a0000000000000000000000000000000000000000000000000000000008152600401613cdd90619b61565b60405180910390fd5b613cf13086866167c9565b613cfe85858585856169c0565b5050505050565b613d1184848484615aa9565b50505050565b613d1f61462d565b73ffffffffffffffffffffffffffffffffffffffff168373ffffffffffffffffffffffffffffffffffffffff161480613d655750613d6483613d5f61462d565b613ab2565b5b613da4576040517f08c379a0000000000000000000000000000000000000000000000000000000008152600401613d9b90619b61565b60405180910390fd5b613daf838383616c42565b505050565b6000808380421115600960030190613e02576040517f08c379a0000000000000000000000000000000000000000000000000000000008152600401613df99190619111565b60405180910390fd5b5060003390506000602660009054906101000a900473ffffffffffffffffffffffffffffffffffffffff1673ffffffffffffffffffffffffffffffffffffffff168b73ffffffffffffffffffffffffffffffffffffffff1614158015613eb55750602660009054906101000a900473ffffffffffffffffffffffffffffffffffffffff1673ffffffffffffffffffffffffffffffffffffffff168a73ffffffffffffffffffffffffffffffffffffffff16145b15613f7957613ec48b8a6163d6565b9050878111156009600a0190613f10576040517f08c379a0000000000000000000000000000000000000000000000000000000008152600401613f079190619111565b60405180910390fd5b5060018111600960050190613f5b576040517f08c379a0000000000000000000000000000000000000000000000000000000008152600401613f529190619111565b60405180910390fd5b50613f678b8383614748565b613f748b60008b89615aa9565b614301565b602660009054906101000a900473ffffffffffffffffffffffffffffffffffffffff1673ffffffffffffffffffffffffffffffffffffffff168b73ffffffffffffffffffffffffffffffffffffffff161480156140245750602660009054906101000a900473ffffffffffffffffffffffffffffffffffffffff1673ffffffffffffffffffffffffffffffffffffffff168a73ffffffffffffffffffffffffffffffffffffffff1614155b156140e7576140338a8a6165c5565b905087811115600980019061407e576040517f08c379a00000000000000000000000000000000000000000000000000000000081526004016140759190619111565b60405180910390fd5b50600181116009601401906140c9576040517f08c379a00000000000000000000000000000000000000000000000000000000081526004016140c09190619111565b60405180910390fd5b506140d58b8383614748565b6140e28a8a600089615aa9565b614300565b602660009054906101000a900473ffffffffffffffffffffffffffffffffffffffff1673ffffffffffffffffffffffffffffffffffffffff168b73ffffffffffffffffffffffffffffffffffffffff16141580156141935750602660009054906101000a900473ffffffffffffffffffffffffffffffffffffffff1673ffffffffffffffffffffffffffffffffffffffff168a73ffffffffffffffffffffffffffffffffffffffff1614155b156142be5760006141a48b8b6165c5565b9050600181116009601401906141f0576040517f08c379a00000000000000000000000000000000000000000000000000000000081526004016141e79190619111565b60405180910390fd5b506141fb8c826163d6565b9150888211156009600a0190614247576040517f08c379a000000000000000000000000000000000000000000000000000000000815260040161423e9190619111565b60405180910390fd5b5060018211600960050190614292576040517f08c379a00000000000000000000000000000000000000000000000000000000081526004016142899190619111565b60405180910390fd5b5061429e8c8484614748565b6142ab8c60008330615aa9565b6142b88b8b60008a615aa9565b506142ff565b6009600b016040517f08c379a00000000000000000000000000000000000000000000000000000000081526004016142f69190619111565b60405180910390fd5b5b5b808994509450505050965096945050505050565b61431f82826121f0565b6143f25760016004600084815260200190815260200160002060000160008373ffffffffffffffffffffffffffffffffffffffff1673ffffffffffffffffffffffffffffffffffffffff16815260200190815260200160002060006101000a81548160ff02191690831515021790555061439761462d565b73ffffffffffffffffffffffffffffffffffffffff168173ffffffffffffffffffffffffffffffffffffffff16837f2f8788117e7eff1d82e926ec794901d17c78024a50270940304540a733656f0d60405160405180910390a45b5050565b600061441e836000018373ffffffffffffffffffffffffffffffffffffffff1660001b616e5f565b905092915050565b60007f5a05180f000000000000000000000000000000000000000000000000000000007bffffffffffffffffffffffffffffffffffffffffffffffffffffffff1916827bffffffffffffffffffffffffffffffffffffffffffffffffffffffff19161480614499575061449882616ecf565b5b9050919050565b6000602960009054906101000a900473ffffffffffffffffffffffffffffffffffffffff1673ffffffffffffffffffffffffffffffffffffffff168273ffffffffffffffffffffffffffffffffffffffff1614156145005747905061457d565b8173ffffffffffffffffffffffffffffffffffffffff166370a08231306040518263ffffffff1660e01b815260040161453991906181b7565b602060405180830381865afa158015614556573d6000803e3d6000fd5b505050506040513d601f19601f8201168201806040525081019061457a9190619b96565b90505b919050565b3073ffffffffffffffffffffffffffffffffffffffff168373ffffffffffffffffffffffffffffffffffffffff161461462757602960009054906101000a900473ffffffffffffffffffffffffffffffffffffffff1673ffffffffffffffffffffffffffffffffffffffff168473ffffffffffffffffffffffffffffffffffffffff16141561461a576146158383616f39565b614626565b614625848484617041565b5b5b50505050565b600033905090565b61463f82826121f0565b6146ce576146648173ffffffffffffffffffffffffffffffffffffffff16601461717f565b6146728360001c602061717f565b604051602001614683929190619c5b565b6040516020818303038152906040526040517f08c379a00000000000000000000000000000000000000000000000000000000081526004016146c5919061826b565b60405180910390fd5b5050565b6146dc82826146e0565b5050565b6146ea8282614315565b61470f81600560008581526020019081526020016000206143f690919063ffffffff16565b505050565b61471e82826173bb565b614743816005600085815260200190815260200160002061749d90919063ffffffff16565b505050565b602960009054906101000a900473ffffffffffffffffffffffffffffffffffffffff1673ffffffffffffffffffffffffffffffffffffffff168373ffffffffffffffffffffffffffffffffffffffff161461482d57600034146009600601906147e7576040517f08c379a00000000000000000000000000000000000000000000000000000000081526004016147de9190619111565b60405180910390fd5b503073ffffffffffffffffffffffffffffffffffffffff168273ffffffffffffffffffffffffffffffffffffffff161461482857614827838330846174cd565b5b614913565b602960009054906101000a900473ffffffffffffffffffffffffffffffffffffffff1673ffffffffffffffffffffffffffffffffffffffff168373ffffffffffffffffffffffffffffffffffffffff16141561491257803410156009601301906148cd576040517f08c379a00000000000000000000000000000000000000000000000000000000081526004016148c49190619111565b60405180910390fd5b508034111561491157614910602960009054906101000a900473ffffffffffffffffffffffffffffffffffffffff163383346149099190619191565b6000614582565b5b5b5b505050565b600080600260018461492a91906195cf565b6149349190619740565b90508291505b8181101561496f5780915060028182856149549190619740565b61495e91906195cf565b6149689190619740565b905061493a565b50919050565b600083831180156149865750600084115b801561499757506000602a60010154115b156149f4576064846149a991906196b7565b602a60010154846149ba91906196b7565b6149c491906195cf565b84846149d09190619191565b6064846149dd91906196b7565b6149e791906196b7565b6149f19190619740565b90505b9392505050565b600073ffffffffffffffffffffffffffffffffffffffff168473ffffffffffffffffffffffffffffffffffffffff161415614a6b576040517f08c379a0000000000000000000000000000000000000000000000000000000008152600401614a6290619d07565b60405180910390fd5b6000614a7561462d565b9050614a9681600087614a878861760e565b614a908861760e565b87617688565b8260008086815260200190815260200160002060008773ffffffffffffffffffffffffffffffffffffffff1673ffffffffffffffffffffffffffffffffffffffff1681526020019081526020016000206000828254614af591906195cf565b925050819055508473ffffffffffffffffffffffffffffffffffffffff16600073ffffffffffffffffffffffffffffffffffffffff168273ffffffffffffffffffffffffffffffffffffffff167fc3d58168c5ae7397731d063d5bbf3d657854427343f4c083240f7aacaa2d0f628787604051614b73929190618b94565b60405180910390a4614b8a81600087878787617802565b5050505050565b6000826000602360008373ffffffffffffffffffffffffffffffffffffffff1673ffffffffffffffffffffffffffffffffffffffff16815260200190815260200160002054118015614c315750602660009054906101000a900473ffffffffffffffffffffffffffffffffffffffff1673ffffffffffffffffffffffffffffffffffffffff168173ffffffffffffffffffffffffffffffffffffffff1614155b600960020190614c77576040517f08c379a0000000000000000000000000000000000000000000000000000000008152600401614c6e9190619111565b60405180910390fd5b506000602360008673ffffffffffffffffffffffffffffffffffffffff1673ffffffffffffffffffffffffffffffffffffffff168152602001908152602001600020549050614d768460228381548110614cd457614cd3619133565b5b906000526020600020906004020160020160009054906101000a90046fffffffffffffffffffffffffffffffff166fffffffffffffffffffffffffffffffff1660228481548110614d2857614d27619133565b5b906000526020600020906004020160020160109054906101000a90046fffffffffffffffffffffffffffffffff166fffffffffffffffffffffffffffffffff16614d71856156c6565b6179da565b9250505092915050565b6000826000602360008373ffffffffffffffffffffffffffffffffffffffff1673ffffffffffffffffffffffffffffffffffffffff16815260200190815260200160002054118015614e205750602660009054906101000a900473ffffffffffffffffffffffffffffffffffffffff1673ffffffffffffffffffffffffffffffffffffffff168173ffffffffffffffffffffffffffffffffffffffff1614155b600960020190614e66576040517f08c379a0000000000000000000000000000000000000000000000000000000008152600401614e5d9190619111565b60405180910390fd5b506000602360008673ffffffffffffffffffffffffffffffffffffffff1673ffffffffffffffffffffffffffffffffffffffff168152602001908152602001600020549050614f658460228381548110614ec357614ec2619133565b5b906000526020600020906004020160020160109054906101000a90046fffffffffffffffffffffffffffffffff166fffffffffffffffffffffffffffffffff1660228481548110614f1757614f16619133565b5b906000526020600020906004020160020160009054906101000a90046fffffffffffffffffffffffffffffffff166fffffffffffffffffffffffffffffffff16614f60856156c6565b6179da565b9250505092915050565b6000602360008573ffffffffffffffffffffffffffffffffffffffff1673ffffffffffffffffffffffffffffffffffffffff1681526020019081526020016000205490506000614fbe856144a0565b9050600060228381548110614fd657614fd5619133565b5b906000526020600020906004020160020160009054906101000a90046fffffffffffffffffffffffffffffffff166fffffffffffffffffffffffffffffffff16826150219190619191565b90506000602454615053602660009054906101000a900473ffffffffffffffffffffffffffffffffffffffff166144a0565b61505d9190619191565b9050600060036000868152602001908152602001600020549050600081886022888154811061508f5761508e619133565b5b906000526020600020906004020160020160009054906101000a90046fffffffffffffffffffffffffffffffff166fffffffffffffffffffffffffffffffff166150d991906196b7565b6150e39190619740565b905060008289602289815481106150fd576150fc619133565b5b906000526020600020906004020160020160109054906101000a90046fffffffffffffffffffffffffffffffff166fffffffffffffffffffffffffffffffff1661514791906196b7565b6151519190619740565b9050600061520f6022898154811061516c5761516b619133565b5b906000526020600020906004020160020160109054906101000a90046fffffffffffffffffffffffffffffffff166fffffffffffffffffffffffffffffffff1660228a815481106151c0576151bf619133565b5b906000526020600020906004020160020160009054906101000a90046fffffffffffffffffffffffffffffffff166fffffffffffffffffffffffffffffffff1661520a91906196b7565b614918565b9050600061527160228a8154811061522a57615229619133565b5b906000526020600020906004020160030160009054906101000a90046fffffffffffffffffffffffffffffffff166fffffffffffffffffffffffffffffffff168387614975565b905060008111156152bd576152bc602a60000160009054906101000a900473ffffffffffffffffffffffffffffffffffffffff168a83604051806020016040528060008152506149fb565b5b82866024546152cc91906195cf565b6152d69190619191565b602481905550838760228b815481106152f2576152f1619133565b5b906000526020600020906004020160020160009054906101000a90046fffffffffffffffffffffffffffffffff1661532a919061979a565b61533491906198b7565b60228a8154811061534857615347619133565b5b906000526020600020906004020160020160006101000a8154816fffffffffffffffffffffffffffffffff02191690836fffffffffffffffffffffffffffffffff160217905550828660228b815481106153a5576153a4619133565b5b906000526020600020906004020160020160109054906101000a90046fffffffffffffffffffffffffffffffff166153dd919061979a565b6153e791906198b7565b60228a815481106153fb576153fa619133565b5b906000526020600020906004020160020160106101000a8154816fffffffffffffffffffffffffffffffff02191690836fffffffffffffffffffffffffffffffff1602179055506154fc60228a8154811061545957615458619133565b5b906000526020600020906004020160020160109054906101000a90046fffffffffffffffffffffffffffffffff166fffffffffffffffffffffffffffffffff1660228b815481106154ad576154ac619133565b5b906000526020600020906004020160020160009054906101000a90046fffffffffffffffffffffffffffffffff166fffffffffffffffffffffffffffffffff166154f791906196b7565b614918565b60228a815481106155105761550f619133565b5b906000526020600020906004020160030160006101000a8154816fffffffffffffffffffffffffffffffff02191690836fffffffffffffffffffffffffffffffff160217905550615562338a8d613d17565b602660009054906101000a900473ffffffffffffffffffffffffffffffffffffffff1673ffffffffffffffffffffffffffffffffffffffff166318a8ad8730856040518363ffffffff1660e01b81526004016155bf929190619771565b600060405180830381600087803b1580156155d957600080fd5b505af11580156155ed573d6000803e3d6000fd5b5050505050506156008a89846001614582565b600061560b8b6144a0565b905086838261561a91906195cf565b14600960040190615661576040517f08c379a00000000000000000000000000000000000000000000000000000000081526004016156589190619111565b60405180910390fd5b507f1dc8bb69df2b8e91fbdcbfcf93d951b3f0000f085a95fe3f7946d6161439245d8b84848d60405161569794939291906197e0565b60405180910390a15050505050505050505050565b60006156bb8360000183617a85565b60001c905092915050565b6000806156d1617ab0565b9050600060086001836156e491906195cf565b6156ee9190619d27565b90506000805b600881101561578e578381148061570a57508281145b156157145761577b565b6022868154811061572857615727619133565b5b9060005260206000209060040201600101816008811061574b5761574a619133565b5b600891828204019190066004029054906101000a900463ffffffff1663ffffffff168261577891906195cf565b91505b8080615786906191c5565b9150506156f4565b50670de0b6b3a7640000816157a391906196b7565b90506000612710602a60040154602288815481106157c4576157c3619133565b5b906000526020600020906004020160020160109054906101000a90046fffffffffffffffffffffffffffffffff166fffffffffffffffffffffffffffffffff1661580e91906196b7565b6158189190619740565b90506000612710602a600501546022898154811061583957615838619133565b5b906000526020600020906004020160020160109054906101000a90046fffffffffffffffffffffffffffffffff166fffffffffffffffffffffffffffffffff1661588391906196b7565b61588d9190619740565b90508183116158a357602a600301549550615922565b82821080156158b157508083105b1561590f5781816158c29190619191565b602a60020154602a600301546158d89190619191565b83856158e49190619191565b6158ee91906196b7565b6158f89190619740565b602a600301546159089190619191565b9550615921565b8083111561592057602a6002015495505b5b5b856127106159309190619191565b95505050505050919050565b8173ffffffffffffffffffffffffffffffffffffffff168373ffffffffffffffffffffffffffffffffffffffff1614156159ab576040517f08c379a00000000000000000000000000000000000000000000000000000000081526004016159a290619dca565b60405180910390fd5b80600160008573ffffffffffffffffffffffffffffffffffffffff1673ffffffffffffffffffffffffffffffffffffffff16815260200190815260200160002060008473ffffffffffffffffffffffffffffffffffffffff1673ffffffffffffffffffffffffffffffffffffffff16815260200190815260200160002060006101000a81548160ff0219169083151502179055508173ffffffffffffffffffffffffffffffffffffffff168373ffffffffffffffffffffffffffffffffffffffff167f17307eab39ab6107e8899845ad3d59bd9653f200f220920489ca2b5937696c3183604051615a9c9190618081565b60405180910390a3505050565b836000602360008373ffffffffffffffffffffffffffffffffffffffff1673ffffffffffffffffffffffffffffffffffffffff16815260200190815260200160002054118015615b475750602660009054906101000a900473ffffffffffffffffffffffffffffffffffffffff1673ffffffffffffffffffffffffffffffffffffffff168173ffffffffffffffffffffffffffffffffffffffff1614155b600960020190615b8d576040517f08c379a0000000000000000000000000000000000000000000000000000000008152600401615b849190619111565b60405180910390fd5b506000602360008773ffffffffffffffffffffffffffffffffffffffff1673ffffffffffffffffffffffffffffffffffffffff1681526020019081526020016000205490506000615bff602660009054906101000a900473ffffffffffffffffffffffffffffffffffffffff166144a0565b9050600060245482615c119190619191565b90506000615c1e896144a0565b9050600060228581548110615c3657615c35619133565b5b906000526020600020906004020160020160009054906101000a90046fffffffffffffffffffffffffffffffff166fffffffffffffffffffffffffffffffff1682615c819190619191565b905060018382615c9191906195cf565b116009600e0190615cd8576040517f08c379a0000000000000000000000000000000000000000000000000000000008152600401615ccf9190619111565b60405180910390fd5b506000615ce4866156c6565b9050600061271060228881548110615cff57615cfe619133565b5b906000526020600020906004020160020160009054906101000a90046fffffffffffffffffffffffffffffffff166fffffffffffffffffffffffffffffffff1661271060228a81548110615d5657615d55619133565b5b906000526020600020906004020160020160109054906101000a90046fffffffffffffffffffffffffffffffff166fffffffffffffffffffffffffffffffff16615da091906196b7565b615daa91906196b7565b615db491906196b7565b905060008a86602454615dc791906195cf565b615dd19190619191565b905060008b8760228b81548110615deb57615dea619133565b5b906000526020600020906004020160020160109054906101000a90046fffffffffffffffffffffffffffffffff166fffffffffffffffffffffffffffffffff16615e3591906195cf565b615e3f9190619191565b905060008d8660228c81548110615e5957615e58619133565b5b906000526020600020906004020160020160009054906101000a90046fffffffffffffffffffffffffffffffff166fffffffffffffffffffffffffffffffff16615ea391906195cf565b615ead9190619191565b9050600085612710615ebf9190619191565b87615eca91906196b7565b61271083615ed891906196b7565b615ee29190619191565b86612710615ef09190619191565b8a615efb91906196b7565b61271085615f0991906196b7565b615f139190619191565b615f1d91906196b7565b9050848110156009600f0190615f69576040517f08c379a0000000000000000000000000000000000000000000000000000000008152600401615f609190619111565b60405180910390fd5b50836024819055508260228c81548110615f8657615f85619133565b5b906000526020600020906004020160020160106101000a8154816fffffffffffffffffffffffffffffffff02191690836fffffffffffffffffffffffffffffffff1602179055508160228c81548110615fe257615fe1619133565b5b906000526020600020906004020160020160006101000a8154816fffffffffffffffffffffffffffffffff02191690836fffffffffffffffffffffffffffffffff1602179055505050505050506000616039617ab0565b9050600060086001616049617ab0565b61605391906195cf565b61605d9190619d27565b9050670de0b6b3a76400008a86018161607957616078619711565b5b046022888154811061608e5761608d619133565b5b906000526020600020906004020160010183600881106160b1576160b0619133565b5b600891828204019190066004028282829054906101000a900463ffffffff160192506101000a81548163ffffffff021916908363ffffffff16021790555060016022888154811061610557616104619133565b5b9060005260206000209060040201600101826008811061612857616127619133565b5b600891828204019190066004029054906101000a900463ffffffff1663ffffffff1611156161b35760016022888154811061616657616165619133565b5b9060005260206000209060040201600101826008811061618957616188619133565b5b600891828204019190066004026101000a81548163ffffffff021916908363ffffffff1602179055505b60008b1115616275576161c98c8a8d6001614582565b60006161d48d6144a0565b9050602288815481106161ea576161e9619133565b5b906000526020600020906004020160020160009054906101000a90046fffffffffffffffffffffffffffffffff166fffffffffffffffffffffffffffffffff168114600960040190616272576040517f08c379a00000000000000000000000000000000000000000000000000000000081526004016162699190619111565b60405180910390fd5b50505b60008a11156162ae576162ad602660009054906101000a900473ffffffffffffffffffffffffffffffffffffffff168a8c6001614582565b5b7f236c64fd115dc00cafeeaf44b6ca2af23a66ba0e282852756756b073c55150758c3385888f8f8f6040516162e99796959493929190619dea565b60405180910390a17ff10fc780c78f994a214c79a2ae8d8b7bfe7cc3f0f935a8f05a29525e71d7f1278c6022898154811061632757616326619133565b5b906000526020600020906004020160020160009054906101000a90046fffffffffffffffffffffffffffffffff1660228a8154811061636957616368619133565b5b906000526020600020906004020160020160109054906101000a90046fffffffffffffffffffffffffffffffff166040516163a69392919061991c565b60405180910390a1505050505050505050505050565b80600290805190602001906163d2929190617ce5565b5050565b6000826000602360008373ffffffffffffffffffffffffffffffffffffffff1673ffffffffffffffffffffffffffffffffffffffff168152602001908152602001600020541180156164765750602660009054906101000a900473ffffffffffffffffffffffffffffffffffffffff1673ffffffffffffffffffffffffffffffffffffffff168173ffffffffffffffffffffffffffffffffffffffff1614155b6009600201906164bc576040517f08c379a00000000000000000000000000000000000000000000000000000000081526004016164b39190619111565b60405180910390fd5b506000602360008673ffffffffffffffffffffffffffffffffffffffff1673ffffffffffffffffffffffffffffffffffffffff1681526020019081526020016000205490506165bb846022838154811061651957616518619133565b5b906000526020600020906004020160020160009054906101000a90046fffffffffffffffffffffffffffffffff166fffffffffffffffffffffffffffffffff166022848154811061656d5761656c619133565b5b906000526020600020906004020160020160109054906101000a90046fffffffffffffffffffffffffffffffff166fffffffffffffffffffffffffffffffff166165b6856156c6565b617ad1565b9250505092915050565b6000826000602360008373ffffffffffffffffffffffffffffffffffffffff1673ffffffffffffffffffffffffffffffffffffffff168152602001908152602001600020541180156166655750602660009054906101000a900473ffffffffffffffffffffffffffffffffffffffff1673ffffffffffffffffffffffffffffffffffffffff168173ffffffffffffffffffffffffffffffffffffffff1614155b6009600201906166ab576040517f08c379a00000000000000000000000000000000000000000000000000000000081526004016166a29190619111565b60405180910390fd5b506000602360008673ffffffffffffffffffffffffffffffffffffffff1673ffffffffffffffffffffffffffffffffffffffff1681526020019081526020016000205490506167aa846022838154811061670857616707619133565b5b906000526020600020906004020160020160109054906101000a90046fffffffffffffffffffffffffffffffff166fffffffffffffffffffffffffffffffff166022848154811061675c5761675b619133565b5b906000526020600020906004020160020160009054906101000a90046fffffffffffffffffffffffffffffffff166fffffffffffffffffffffffffffffffff166167a5856156c6565b617ad1565b9250505092915050565b60006167c282600001617b82565b9050919050565b600073def1fac7bf08f173d286bbbdcbeeade69512984073ffffffffffffffffffffffffffffffffffffffff166306fb1a0760036040518263ffffffff1660e01b81526004016168199190617fc6565b602060405180830381865afa158015616836573d6000803e3d6000fd5b505050506040513d601f19601f8201168201806040525081019061685a9190619223565b90508073ffffffffffffffffffffffffffffffffffffffff1663322d5fbc85856040518363ffffffff1660e01b8152600401616897929190619953565b6020604051808303816000875af11580156168b6573d6000803e3d6000fd5b505050506040513d601f19601f820116820180604052508101906168da9190619991565b616919576040517f08c379a000000000000000000000000000000000000000000000000000000000815260040161691090619ea5565b60405180910390fd5b3073ffffffffffffffffffffffffffffffffffffffff168273ffffffffffffffffffffffffffffffffffffffff16146169ba578073ffffffffffffffffffffffffffffffffffffffff166372e64ad685846040518363ffffffff1660e01b8152600401616987929190619953565b600060405180830381600087803b1580156169a157600080fd5b505af11580156169b5573d6000803e3d6000fd5b505050505b50505050565b600073ffffffffffffffffffffffffffffffffffffffff168473ffffffffffffffffffffffffffffffffffffffff161415616a30576040517f08c379a0000000000000000000000000000000000000000000000000000000008152600401616a2790619f37565b60405180910390fd5b6000616a3a61462d565b9050616a5a818787616a4b8861760e565b616a548861760e565b87617688565b600080600086815260200190815260200160002060008873ffffffffffffffffffffffffffffffffffffffff1673ffffffffffffffffffffffffffffffffffffffff16815260200190815260200160002054905083811015616af1576040517f08c379a0000000000000000000000000000000000000000000000000000000008152600401616ae890619fc9565b60405180910390fd5b83810360008087815260200190815260200160002060008973ffffffffffffffffffffffffffffffffffffffff1673ffffffffffffffffffffffffffffffffffffffff168152602001908152602001600020819055508360008087815260200190815260200160002060008873ffffffffffffffffffffffffffffffffffffffff1673ffffffffffffffffffffffffffffffffffffffff1681526020019081526020016000206000828254616ba691906195cf565b925050819055508573ffffffffffffffffffffffffffffffffffffffff168773ffffffffffffffffffffffffffffffffffffffff168373ffffffffffffffffffffffffffffffffffffffff167fc3d58168c5ae7397731d063d5bbf3d657854427343f4c083240f7aacaa2d0f628888604051616c23929190618b94565b60405180910390a4616c39828888888888617802565b50505050505050565b600073ffffffffffffffffffffffffffffffffffffffff168373ffffffffffffffffffffffffffffffffffffffff161415616cb2576040517f08c379a0000000000000000000000000000000000000000000000000000000008152600401616ca99061a05b565b60405180910390fd5b6000616cbc61462d565b9050616cec81856000616cce8761760e565b616cd78761760e565b60405180602001604052806000815250617688565b600080600085815260200190815260200160002060008673ffffffffffffffffffffffffffffffffffffffff1673ffffffffffffffffffffffffffffffffffffffff16815260200190815260200160002054905082811015616d83576040517f08c379a0000000000000000000000000000000000000000000000000000000008152600401616d7a9061a0ed565b60405180910390fd5b82810360008086815260200190815260200160002060008773ffffffffffffffffffffffffffffffffffffffff1673ffffffffffffffffffffffffffffffffffffffff16815260200190815260200160002081905550600073ffffffffffffffffffffffffffffffffffffffff168573ffffffffffffffffffffffffffffffffffffffff168373ffffffffffffffffffffffffffffffffffffffff167fc3d58168c5ae7397731d063d5bbf3d657854427343f4c083240f7aacaa2d0f628787604051616e50929190618b94565b60405180910390a45050505050565b6000616e6b8383617b93565b616ec4578260000182908060018154018082558091505060019003906000526020600020016000909190919091505582600001805490508360010160008481526020019081526020016000208190555060019050616ec9565b600090505b92915050565b60007f01ffc9a7000000000000000000000000000000000000000000000000000000007bffffffffffffffffffffffffffffffffffffffffffffffffffffffff1916827bffffffffffffffffffffffffffffffffffffffffffffffffffffffff1916149050919050565b60008273ffffffffffffffffffffffffffffffffffffffff1682600067ffffffffffffffff811115616f6e57616f6d61836b565b5b6040519080825280601f01601f191660200182016040528015616fa05781602001600182028036833780820191505090505b50604051616fae919061a154565b60006040518083038185875af1925050503d8060008114616feb576040519150601f19603f3d011682016040523d82523d6000602084013e616ff0565b606091505b505090508060096010019061703b576040517f08c379a00000000000000000000000000000000000000000000000000000000081526004016170329190619111565b60405180910390fd5b50505050565b6000808473ffffffffffffffffffffffffffffffffffffffff1663a9059cbb8585604051602401617073929190619771565b6040516020818303038152906040529060e01b6020820180517bffffffffffffffffffffffffffffffffffffffffffffffffffffffff83818316178352505050506040516170c1919061a154565b6000604051808303816000865af19150503d80600081146170fe576040519150601f19603f3d011682016040523d82523d6000602084013e617103565b606091505b5091509150818015617131575060008151148061713057508080602001905181019061712f9190619991565b5b5b600960110190617177576040517f08c379a000000000000000000000000000000000000000000000000000000000815260040161716e9190619111565b60405180910390fd5b505050505050565b60606000600283600261719291906196b7565b61719c91906195cf565b67ffffffffffffffff8111156171b5576171b461836b565b5b6040519080825280601f01601f1916602001820160405280156171e75781602001600182028036833780820191505090505b5090507f30000000000000000000000000000000000000000000000000000000000000008160008151811061721f5761721e619133565b5b60200101907effffffffffffffffffffffffffffffffffffffffffffffffffffffffffffff1916908160001a9053507f78000000000000000000000000000000000000000000000000000000000000008160018151811061728357617282619133565b5b60200101907effffffffffffffffffffffffffffffffffffffffffffffffffffffffffffff1916908160001a905350600060018460026172c391906196b7565b6172cd91906195cf565b90505b600181111561736d577f3031323334353637383961626364656600000000000000000000000000000000600f86166010811061730f5761730e619133565b5b1a60f81b82828151811061732657617325619133565b5b60200101907effffffffffffffffffffffffffffffffffffffffffffffffffffffffffffff1916908160001a905350600485901c9450806173669061a16b565b90506172d0565b50600084146173b1576040517f08c379a00000000000000000000000000000000000000000000000000000000081526004016173a89061a1e1565b60405180910390fd5b8091505092915050565b6173c582826121f0565b156174995760006004600084815260200190815260200160002060000160008373ffffffffffffffffffffffffffffffffffffffff1673ffffffffffffffffffffffffffffffffffffffff16815260200190815260200160002060006101000a81548160ff02191690831515021790555061743e61462d565b73ffffffffffffffffffffffffffffffffffffffff168173ffffffffffffffffffffffffffffffffffffffff16837ff6391f5c32d9c69d2a47ea670b442974b53935d1edc7fd64eb21e047a839171b60405160405180910390a45b5050565b60006174c5836000018373ffffffffffffffffffffffffffffffffffffffff1660001b617bb6565b905092915050565b6000808573ffffffffffffffffffffffffffffffffffffffff166323b872dd8686866040516024016175019392919061a201565b6040516020818303038152906040529060e01b6020820180517bffffffffffffffffffffffffffffffffffffffffffffffffffffffff838183161783525050505060405161754f919061a154565b6000604051808303816000865af19150503d806000811461758c576040519150601f19603f3d011682016040523d82523d6000602084013e617591565b606091505b50915091508180156175bf57506000815114806175be5750808060200190518101906175bd9190619991565b5b5b600960120190617605576040517f08c379a00000000000000000000000000000000000000000000000000000000081526004016175fc9190619111565b60405180910390fd5b50505050505050565b60606000600167ffffffffffffffff81111561762d5761762c61836b565b5b60405190808252806020026020018201604052801561765b5781602001602082028036833780820191505090505b509050828160008151811061767357617672619133565b5b60200260200101818152505080915050919050565b617696868686868686617cca565b600073ffffffffffffffffffffffffffffffffffffffff168573ffffffffffffffffffffffffffffffffffffffff1614156177485760005b8351811015617746578281815181106176ea576176e9619133565b5b60200260200101516003600086848151811061770957617708619133565b5b60200260200101518152602001908152602001600020600082825461772e91906195cf565b925050819055508061773f906191c5565b90506176ce565b505b600073ffffffffffffffffffffffffffffffffffffffff168473ffffffffffffffffffffffffffffffffffffffff1614156177fa5760005b83518110156177f85782818151811061779c5761779b619133565b5b6020026020010151600360008684815181106177bb576177ba619133565b5b6020026020010151815260200190815260200160002060008282546177e09190619191565b92505081905550806177f1906191c5565b9050617780565b505b505050505050565b6178218473ffffffffffffffffffffffffffffffffffffffff16617cd2565b156179d2578373ffffffffffffffffffffffffffffffffffffffff1663f23a6e6187878686866040518663ffffffff1660e01b815260040161786795949392919061a282565b6020604051808303816000875af19250505080156178a357506040513d601f19601f820116820180604052508101906178a0919061a2f1565b60015b617949576178af61a32b565b806308c379a0141561790c57506178c461a34d565b806178cf575061790e565b806040517f08c379a0000000000000000000000000000000000000000000000000000000008152600401617903919061826b565b60405180910390fd5b505b6040517f08c379a00000000000000000000000000000000000000000000000000000000081526004016179409061a455565b60405180910390fd5b63f23a6e6160e01b7bffffffffffffffffffffffffffffffffffffffffffffffffffffffff1916817bffffffffffffffffffffffffffffffffffffffffffffffffffffffff1916146179d0576040517f08c379a00000000000000000000000000000000000000000000000000000000081526004016179c79061a4e7565b60405180910390fd5b505b505050505050565b60006103e8841180156179ee57506103e883115b600960150190617a34576040517f08c379a0000000000000000000000000000000000000000000000000000000008152600401617a2b9190619111565b60405180910390fd5b5060008286617a4391906196b7565b905060008161271087617a5691906196b7565b617a6091906195cf565b8286617a6c91906196b7565b617a769190619740565b90508092505050949350505050565b6000826000018281548110617a9d57617a9c619133565b5b9060005260206000200154905092915050565b6000600861384042617ac29190619740565b617acc9190619d27565b905090565b60006103e884118015617ae557506103e883115b600960150190617b2b576040517f08c379a0000000000000000000000000000000000000000000000000000000008152600401617b229190619111565b60405180910390fd5b50600060018685617b3c9190619191565b84617b4791906196b7565b6127108888617b5691906196b7565b617b6091906196b7565b617b6a9190619740565b617b7491906195cf565b905080915050949350505050565b600081600001805490509050919050565b600080836001016000848152602001908152602001600020541415905092915050565b60008083600101600084815260200190815260200160002054905060008114617cbe576000600182617be89190619191565b9050600060018660000180549050617c009190619191565b9050818114617c6f576000866000018281548110617c2157617c20619133565b5b9060005260206000200154905080876000018481548110617c4557617c44619133565b5b90600052602060002001819055508387600101600083815260200190815260200160002081905550505b85600001805480617c8357617c8261a507565b5b600190038181906000526020600020016000905590558560010160008681526020019081526020016000206000905560019350505050617cc4565b60009150505b92915050565b505050505050565b600080823b905060008111915050919050565b828054617cf19061904a565b90600052602060002090601f016020900481019282617d135760008555617d5a565b82601f10617d2c57805160ff1916838001178555617d5a565b82800160010185558215617d5a579182015b82811115617d59578251825591602001919060010190617d3e565b5b509050617d679190617eb2565b5090565b6040518060a00160405280600073ffffffffffffffffffffffffffffffffffffffff168152602001617d9b617dec565b815260200160006fffffffffffffffffffffffffffffffff16815260200160006fffffffffffffffffffffffffffffffff16815260200160006fffffffffffffffffffffffffffffffff1681525090565b604051806101000160405280600890602082028036833780820191505090505090565b826008600701600890048101928215617ea15791602002820160005b83821115617e6f57835183826101000a81548163ffffffff021916908363ffffffff1602179055509260200192600401602081600301049283019260010302617e2b565b8015617e9f5782816101000a81549063ffffffff0219169055600401602081600301049283019260010302617e6f565b505b509050617eae9190617eb2565b5090565b5b80821115617ecb576000816000905550600101617eb3565b5090565b6000604051905090565b600080fd5b600080fd5b600073ffffffffffffffffffffffffffffffffffffffff82169050919050565b6000617f0e82617ee3565b9050919050565b617f1e81617f03565b8114617f2957600080fd5b50565b600081359050617f3b81617f15565b92915050565b6000819050919050565b617f5481617f41565b8114617f5f57600080fd5b50565b600081359050617f7181617f4b565b92915050565b60008060408385031215617f8e57617f8d617ed9565b5b6000617f9c85828601617f2c565b9250506020617fad85828601617f62565b9150509250929050565b617fc081617f41565b82525050565b6000602082019050617fdb6000830184617fb7565b92915050565b60007fffffffff0000000000000000000000000000000000000000000000000000000082169050919050565b61801681617fe1565b811461802157600080fd5b50565b6000813590506180338161800d565b92915050565b60006020828403121561804f5761804e617ed9565b5b600061805d84828501618024565b91505092915050565b60008115159050919050565b61807b81618066565b82525050565b60006020820190506180966000830184618072565b92915050565b6000602082840312156180b2576180b1617ed9565b5b60006180c084828501617f2c565b91505092915050565b600080fd5b600080fd5b600080fd5b60008083601f8401126180ee576180ed6180c9565b5b8235905067ffffffffffffffff81111561810b5761810a6180ce565b5b602083019150836040820283011115618127576181266180d3565b5b9250929050565b6000806020838503121561814557618144617ed9565b5b600083013567ffffffffffffffff81111561816357618162617ede565b5b61816f858286016180d8565b92509250509250929050565b60006020828403121561819157618190617ed9565b5b600061819f84828501617f62565b91505092915050565b6181b181617f03565b82525050565b60006020820190506181cc60008301846181a8565b92915050565b600081519050919050565b600082825260208201905092915050565b60005b8381101561820c5780820151818401526020810190506181f1565b8381111561821b576000848401525b50505050565b6000601f19601f8301169050919050565b600061823d826181d2565b61824781856181dd565b93506182578185602086016181ee565b61826081618221565b840191505092915050565b600060208201905081810360008301526182858184618232565b905092915050565b600080fd5b600060c082840312156182a8576182a761828d565b5b81905092915050565b600060c082840312156182c7576182c6617ed9565b5b60006182d584828501618292565b91505092915050565b6000819050919050565b6182f1816182de565b81146182fc57600080fd5b50565b60008135905061830e816182e8565b92915050565b60006020828403121561832a57618329617ed9565b5b6000618338848285016182ff565b91505092915050565b61834a816182de565b82525050565b60006020820190506183656000830184618341565b92915050565b7f4e487b7100000000000000000000000000000000000000000000000000000000600052604160045260246000fd5b6183a382618221565b810181811067ffffffffffffffff821117156183c2576183c161836b565b5b80604052505050565b60006183d5617ecf565b90506183e1828261839a565b919050565b600067ffffffffffffffff8211156184015761840061836b565b5b602082029050602081019050919050565b6000618425618420846183e6565b6183cb565b90508083825260208201905060208402830185811115618448576184476180d3565b5b835b81811015618471578061845d8882617f62565b84526020840193505060208101905061844a565b5050509392505050565b600082601f8301126184905761848f6180c9565b5b81356184a0848260208601618412565b91505092915050565b600080fd5b600067ffffffffffffffff8211156184c9576184c861836b565b5b6184d282618221565b9050602081019050919050565b82818337600083830152505050565b60006185016184fc846184ae565b6183cb565b90508281526020810184848401111561851d5761851c6184a9565b5b6185288482856184df565b509392505050565b600082601f830112618545576185446180c9565b5b81356185558482602086016184ee565b91505092915050565b600080600080600060a0868803121561857a57618579617ed9565b5b600061858888828901617f2c565b955050602061859988828901617f2c565b945050604086013567ffffffffffffffff8111156185ba576185b9617ede565b5b6185c68882890161847b565b935050606086013567ffffffffffffffff8111156185e7576185e6617ede565b5b6185f38882890161847b565b925050608086013567ffffffffffffffff81111561861457618613617ede565b5b61862088828901618530565b9150509295509295909350565b6000806040838503121561864457618643617ed9565b5b6000618652858286016182ff565b925050602061866385828601617f2c565b9150509250929050565b600067ffffffffffffffff8211156186885761868761836b565b5b61869182618221565b9050602081019050919050565b60006186b16186ac8461866d565b6183cb565b9050828152602081018484840111156186cd576186cc6184a9565b5b6186d88482856184df565b509392505050565b600082601f8301126186f5576186f46180c9565b5b813561870584826020860161869e565b91505092915050565b6000806040838503121561872557618724617ed9565b5b600083013567ffffffffffffffff81111561874357618742617ede565b5b61874f858286016186e0565b925050602083013567ffffffffffffffff8111156187705761876f617ede565b5b61877c858286016186e0565b9150509250929050565b600080600080608085870312156187a05761879f617ed9565b5b60006187ae87828801617f2c565b94505060206187bf87828801617f62565b93505060406187d087828801617f62565b92505060606187e187828801617f2c565b91505092959194509250565b60008060006060848603121561880657618805617ed9565b5b600061881486828701617f2c565b935050602061882586828701617f2c565b925050604061883686828701617f62565b9150509250925092565b600067ffffffffffffffff82111561885b5761885a61836b565b5b602082029050602081019050919050565b600061887f61887a84618840565b6183cb565b905080838252602082019050602084028301858111156188a2576188a16180d3565b5b835b818110156188cb57806188b78882617f2c565b8452602084019350506020810190506188a4565b5050509392505050565b600082601f8301126188ea576188e96180c9565b5b81356188fa84826020860161886c565b91505092915050565b6000806040838503121561891a57618919617ed9565b5b600083013567ffffffffffffffff81111561893857618937617ede565b5b618944858286016188d5565b925050602083013567ffffffffffffffff81111561896557618964617ede565b5b6189718582860161847b565b9150509250929050565b600081519050919050565b600082825260208201905092915050565b6000819050602082019050919050565b6189b081617f41565b82525050565b60006189c283836189a7565b60208301905092915050565b6000602082019050919050565b60006189e68261897b565b6189f08185618986565b93506189fb83618997565b8060005b83811015618a2c578151618a1388826189b6565b9750618a1e836189ce565b9250506001810190506189ff565b5085935050505092915050565b60006020820190508181036000830152618a5381846189db565b905092915050565b60008060408385031215618a7257618a71617ed9565b5b6000618a80858286016182ff565b9250506020618a9185828601617f62565b9150509250929050565b618aa481618066565b8114618aaf57600080fd5b50565b600081359050618ac181618a9b565b92915050565b60008060408385031215618ade57618add617ed9565b5b6000618aec85828601617f2c565b9250506020618afd85828601618ab2565b9150509250929050565b60008060008060008060c08789031215618b2457618b23617ed9565b5b6000618b3289828a01617f2c565b9650506020618b4389828a01617f2c565b9550506040618b5489828a01617f62565b9450506060618b6589828a01617f62565b9350506080618b7689828a01617f62565b92505060a0618b8789828a01617f2c565b9150509295509295509295565b6000604082019050618ba96000830185617fb7565b618bb66020830184617fb7565b9392505050565b600060208284031215618bd357618bd2617ed9565b5b600082013567ffffffffffffffff811115618bf157618bf0617ede565b5b618bfd848285016186e0565b91505092915050565b618c0f81617f03565b82525050565b600060089050919050565b600081905092915050565b6000819050919050565b600063ffffffff82169050919050565b618c4e81618c35565b82525050565b6000618c608383618c45565b60208301905092915050565b6000602082019050919050565b618c8281618c15565b618c8c8184618c20565b9250618c9782618c2b565b8060005b83811015618cc8578151618caf8782618c54565b9650618cba83618c6c565b925050600181019050618c9b565b505050505050565b60006fffffffffffffffffffffffffffffffff82169050919050565b618cf581618cd0565b82525050565b61018082016000820151618d126000850182618c06565b506020820151618d256020850182618c79565b506040820151618d39610120850182618cec565b506060820151618d4d610140850182618cec565b506080820151618d61610160850182618cec565b50505050565b600061018082019050618d7d6000830184618cfb565b92915050565b600060c082019050618d9860008301896181a8565b618da56020830188617fb7565b618db26040830187617fb7565b618dbf6060830186617fb7565b618dcc6080830185617fb7565b618dd960a0830184617fb7565b979650505050505050565b60008060408385031215618dfb57618dfa617ed9565b5b6000618e0985828601617f2c565b9250506020618e1a85828601617f2c565b9150509250929050565b600080600080600060a08688031215618e4057618e3f617ed9565b5b6000618e4e88828901617f2c565b9550506020618e5f88828901617f2c565b9450506040618e7088828901617f2c565b9350506060618e8188828901617f2c565b9250506080618e9288828901617f2c565b9150509295509295909350565b600080600080600060a08688031215618ebb57618eba617ed9565b5b6000618ec988828901617f2c565b9550506020618eda88828901617f2c565b9450506040618eeb88828901617f62565b9350506060618efc88828901617f62565b925050608086013567ffffffffffffffff811115618f1d57618f1c617ede565b5b618f2988828901618530565b9150509295509295909350565b600080600060608486031215618f4f57618f4e617ed9565b5b6000618f5d86828701617f2c565b9350506020618f6e86828701617f62565b9250506040618f7f86828701617f62565b9150509250925092565b7f455243313135353a2062616c616e636520717565727920666f7220746865207a60008201527f65726f2061646472657373000000000000000000000000000000000000000000602082015250565b6000618fe5602b836181dd565b9150618ff082618f89565b604082019050919050565b6000602082019050818103600083015261901481618fd8565b9050919050565b7f4e487b7100000000000000000000000000000000000000000000000000000000600052602260045260246000fd5b6000600282049050600182168061906257607f821691505b602082108114156190765761907561901b565b5b50919050565b60008190508160005260206000209050919050565b6000815461909e8161904a565b6190a881866181dd565b945060018216600081146190c357600181146190d557619108565b60ff1983168652602086019350619108565b6190de8561907c565b60005b83811015619100578154818901526001820191506020810190506190e1565b808801955050505b50505092915050565b6000602082019050818103600083015261912b8184619091565b905092915050565b7f4e487b7100000000000000000000000000000000000000000000000000000000600052603260045260246000fd5b7f4e487b7100000000000000000000000000000000000000000000000000000000600052601160045260246000fd5b600061919c82617f41565b91506191a783617f41565b9250828210156191ba576191b9619162565b5b828203905092915050565b60006191d082617f41565b91507fffffffffffffffffffffffffffffffffffffffffffffffffffffffffffffffff82141561920357619202619162565b5b600182019050919050565b60008151905061921d81617f15565b92915050565b60006020828403121561923957619238617ed9565b5b60006192478482850161920e565b91505092915050565b6000813561925d81617f15565b80915050919050565b60008160001b9050919050565b600073ffffffffffffffffffffffffffffffffffffffff61929384619266565b9350801983169250808416831791505092915050565b6000819050919050565b60006192ce6192c96192c484617ee3565b6192a9565b617ee3565b9050919050565b60006192e0826192b3565b9050919050565b60006192f2826192d5565b9050919050565b6000819050919050565b61930c826192e7565b61931f619318826192f9565b8354619273565b8255505050565b6000813561933381617f4b565b80915050919050565b60007fffffffffffffffffffffffffffffffffffffffffffffffffffffffffffffffff61936884619266565b9350801983169250808416831791505092915050565b600061939961939461938f84617f41565b6192a9565b617f41565b9050919050565b6000819050919050565b6193b38261937e565b6193c66193bf826193a0565b835461933c565b8255505050565b6000810160008301806193df81619250565b90506193eb8184619303565b50505060018101602083018061940081619326565b905061940c81846193aa565b50505060028101604083018061942181619326565b905061942d81846193aa565b50505060038101606083018061944281619326565b905061944e81846193aa565b50505060048101608083018061946381619326565b905061946f81846193aa565b5050506005810160a083018061948481619326565b905061949081846193aa565b5050505050565b6194a182826193cd565b5050565b600081905092915050565b600081546194bd8161904a565b6194c781866194a5565b945060018216600081146194e257600181146194f357619526565b60ff19831686528186019350619526565b6194fc8561907c565b60005b8381101561951e578154818901526001820191506020810190506194ff565b838801955050505b50505092915050565b6000819050919050565b61954a61954582617f41565b61952f565b82525050565b7f2e6a736f6e000000000000000000000000000000000000000000000000000000600082015250565b60006195866005836194a5565b915061959182619550565b600582019050919050565b60006195a882856194b0565b91506195b48284619539565b6020820191506195c382619579565b91508190509392505050565b60006195da82617f41565b91506195e583617f41565b9250827fffffffffffffffffffffffffffffffffffffffffffffffffffffffffffffffff0382111561961a57619619619162565b5b828201905092915050565b7f416363657373436f6e74726f6c3a2063616e206f6e6c792072656e6f756e636560008201527f20726f6c657320666f722073656c660000000000000000000000000000000000602082015250565b6000619681602f836181dd565b915061968c82619625565b604082019050919050565b600060208201905081810360008301526196b081619674565b9050919050565b60006196c282617f41565b91506196cd83617f41565b9250817fffffffffffffffffffffffffffffffffffffffffffffffffffffffffffffffff048311821515161561970657619705619162565b5b828202905092915050565b7f4e487b7100000000000000000000000000000000000000000000000000000000600052601260045260246000fd5b600061974b82617f41565b915061975683617f41565b92508261976657619765619711565b5b828204905092915050565b600060408201905061978660008301856181a8565b6197936020830184617fb7565b9392505050565b60006197a582618cd0565b91506197b083618cd0565b9250826fffffffffffffffffffffffffffffffff038211156197d5576197d4619162565b5b828201905092915050565b60006080820190506197f560008301876181a8565b6198026020830186617fb7565b61980f6040830185617fb7565b61981c6060830184617fb7565b95945050505050565b7f455243313135353a206163636f756e747320616e6420696473206c656e67746860008201527f206d69736d617463680000000000000000000000000000000000000000000000602082015250565b60006198816029836181dd565b915061988c82619825565b604082019050919050565b600060208201905081810360008301526198b081619874565b9050919050565b60006198c282618cd0565b91506198cd83618cd0565b9250828210156198e0576198df619162565b5b828203905092915050565b60006199066199016198fc84618cd0565b6192a9565b617f41565b9050919050565b619916816198eb565b82525050565b600060608201905061993160008301866181a8565b61993e602083018561990d565b61994b604083018461990d565b949350505050565b600060408201905061996860008301856181a8565b61997560208301846181a8565b9392505050565b60008151905061998b81618a9b565b92915050565b6000602082840312156199a7576199a6617ed9565b5b60006199b58482850161997c565b91505092915050565b7f43434a453a205472616e73616374696f6e73206172652074656d706f7261726960008201527f6c792064697361626c6564000000000000000000000000000000000000000000602082015250565b6000619a1a602b836181dd565b9150619a25826199be565b604082019050919050565b60006020820190508181036000830152619a4981619a0d565b9050919050565b6000619a5b826181d2565b619a6581856194a5565b9350619a758185602086016181ee565b80840191505092915050565b7f7b69647d2e6a736f6e0000000000000000000000000000000000000000000000600082015250565b6000619ab76009836194a5565b9150619ac282619a81565b600982019050919050565b6000619ad98284619a50565b9150619ae482619aaa565b915081905092915050565b7f455243313135353a2063616c6c6572206973206e6f74206f776e6572206e6f7260008201527f20617070726f7665640000000000000000000000000000000000000000000000602082015250565b6000619b4b6029836181dd565b9150619b5682619aef565b604082019050919050565b60006020820190508181036000830152619b7a81619b3e565b9050919050565b600081519050619b9081617f4b565b92915050565b600060208284031215619bac57619bab617ed9565b5b6000619bba84828501619b81565b91505092915050565b7f416363657373436f6e74726f6c3a206163636f756e7420000000000000000000600082015250565b6000619bf96017836194a5565b9150619c0482619bc3565b601782019050919050565b7f206973206d697373696e6720726f6c6520000000000000000000000000000000600082015250565b6000619c456011836194a5565b9150619c5082619c0f565b601182019050919050565b6000619c6682619bec565b9150619c728285619a50565b9150619c7d82619c38565b9150619c898284619a50565b91508190509392505050565b7f455243313135353a206d696e7420746f20746865207a65726f2061646472657360008201527f7300000000000000000000000000000000000000000000000000000000000000602082015250565b6000619cf16021836181dd565b9150619cfc82619c95565b604082019050919050565b60006020820190508181036000830152619d2081619ce4565b9050919050565b6000619d3282617f41565b9150619d3d83617f41565b925082619d4d57619d4c619711565b5b828206905092915050565b7f455243313135353a2073657474696e6720617070726f76616c2073746174757360008201527f20666f722073656c660000000000000000000000000000000000000000000000602082015250565b6000619db46029836181dd565b9150619dbf82619d58565b604082019050919050565b60006020820190508181036000830152619de381619da7565b9050919050565b600060e082019050619dff600083018a6181a8565b619e0c60208301896181a8565b619e196040830188617fb7565b619e266060830187617fb7565b619e336080830186617fb7565b619e4060a0830185617fb7565b619e4d60c08301846181a8565b98975050505050505050565b7f2154580000000000000000000000000000000000000000000000000000000000600082015250565b6000619e8f6003836181dd565b9150619e9a82619e59565b602082019050919050565b60006020820190508181036000830152619ebe81619e82565b9050919050565b7f455243313135353a207472616e7366657220746f20746865207a65726f20616460008201527f6472657373000000000000000000000000000000000000000000000000000000602082015250565b6000619f216025836181dd565b9150619f2c82619ec5565b604082019050919050565b60006020820190508181036000830152619f5081619f14565b9050919050565b7f455243313135353a20696e73756666696369656e742062616c616e636520666f60008201527f72207472616e7366657200000000000000000000000000000000000000000000602082015250565b6000619fb3602a836181dd565b9150619fbe82619f57565b604082019050919050565b60006020820190508181036000830152619fe281619fa6565b9050919050565b7f455243313135353a206275726e2066726f6d20746865207a65726f206164647260008201527f6573730000000000000000000000000000000000000000000000000000000000602082015250565b600061a0456023836181dd565b915061a05082619fe9565b604082019050919050565b6000602082019050818103600083015261a0748161a038565b9050919050565b7f455243313135353a206275726e20616d6f756e7420657863656564732062616c60008201527f616e636500000000000000000000000000000000000000000000000000000000602082015250565b600061a0d76024836181dd565b915061a0e28261a07b565b604082019050919050565b6000602082019050818103600083015261a1068161a0ca565b9050919050565b600081519050919050565b600081905092915050565b600061a12e8261a10d565b61a138818561a118565b935061a1488185602086016181ee565b80840191505092915050565b600061a160828461a123565b915081905092915050565b600061a17682617f41565b9150600082141561a18a5761a189619162565b5b600182039050919050565b7f537472696e67733a20686578206c656e67746820696e73756666696369656e74600082015250565b600061a1cb6020836181dd565b915061a1d68261a195565b602082019050919050565b6000602082019050818103600083015261a1fa8161a1be565b9050919050565b600060608201905061a21660008301866181a8565b61a22360208301856181a8565b61a2306040830184617fb7565b949350505050565b600082825260208201905092915050565b600061a2548261a10d565b61a25e818561a238565b935061a26e8185602086016181ee565b61a27781618221565b840191505092915050565b600060a08201905061a29760008301886181a8565b61a2a460208301876181a8565b61a2b16040830186617fb7565b61a2be6060830185617fb7565b818103608083015261a2d0818461a249565b90509695505050505050565b60008151905061a2eb8161800d565b92915050565b60006020828403121561a3075761a306617ed9565b5b600061a3158482850161a2dc565b91505092915050565b60008160e01c9050919050565b600060033d111561a34a5760046000803e61a34760005161a31e565b90505b90565b600060443d101561a35d5761a3e0565b61a365617ecf565b60043d036004823e80513d602482011167ffffffffffffffff8211171561a38d57505061a3e0565b808201805167ffffffffffffffff81111561a3ab575050505061a3e0565b80602083010160043d03850181111561a3c857505050505061a3e0565b61a3d78260200185018661839a565b82955050505050505b90565b7f455243313135353a207472616e7366657220746f206e6f6e204552433131353560008201527f526563656976657220696d706c656d656e746572000000000000000000000000602082015250565b600061a43f6034836181dd565b915061a44a8261a3e3565b604082019050919050565b6000602082019050818103600083015261a46e8161a432565b9050919050565b7f455243313135353a204552433131353552656365697665722072656a6563746560008201527f6420746f6b656e73000000000000000000000000000000000000000000000000602082015250565b600061a4d16028836181dd565b915061a4dc8261a475565b604082019050919050565b6000602082019050818103600083015261a5008161a4c4565b9050919050565b7f4e487b7100000000000000000000000000000000000000000000000000000000600052603160045260246000fdfea2646970667358221220f9cd570967c829c0caf811fa5a3ce257d2001dfff85da33bd4ed684848c7ea4964736f6c634300080b003368747470733a2f2f646174612e63657262792e66692f4365726279537761702f76312f",
			"opcodes": "PUSH1 0x80 PUSH1 0x40 MSTORE PUSH1 0x40 MLOAD DUP1 PUSH1 0x40 ADD PUSH1 0x40 MSTORE DUP1 PUSH1 0xD DUP2 MSTORE PUSH1 0x20 ADD PUSH32 0x4365726279205377617020563100000000000000000000000000000000000000 DUP2 MSTORE POP PUSH1 0x6 SWAP1 DUP1 MLOAD SWAP1 PUSH1 0x20 ADD SWAP1 PUSH3 0x51 SWAP3 SWAP2 SWAP1 PUSH3 0x11DF JUMP JUMPDEST POP PUSH1 0x40 MLOAD DUP1 PUSH1 0x40 ADD PUSH1 0x40 MSTORE DUP1 PUSH1 0xD DUP2 MSTORE PUSH1 0x20 ADD PUSH32 0x43455242595F535741505F563100000000000000000000000000000000000000 DUP2 MSTORE POP PUSH1 0x7 SWAP1 DUP1 MLOAD SWAP1 PUSH1 0x20 ADD SWAP1 PUSH3 0x9F SWAP3 SWAP2 SWAP1 PUSH3 0x11DF JUMP JUMPDEST POP PUSH1 0x40 MLOAD DUP1 PUSH1 0x60 ADD PUSH1 0x40 MSTORE DUP1 PUSH1 0x23 DUP2 MSTORE PUSH1 0x20 ADD PUSH3 0xBB5F PUSH1 0x23 SWAP2 CODECOPY PUSH1 0x8 SWAP1 DUP1 MLOAD SWAP1 PUSH1 0x20 ADD SWAP1 PUSH3 0xD1 SWAP3 SWAP2 SWAP1 PUSH3 0x11DF JUMP JUMPDEST POP PUSH20 0x3D982CB3BC8D1248B17F22B567524BF7BFFD3B11 PUSH1 0x25 PUSH1 0x0 PUSH2 0x100 EXP DUP2 SLOAD DUP2 PUSH20 0xFFFFFFFFFFFFFFFFFFFFFFFFFFFFFFFFFFFFFFFF MUL NOT AND SWAP1 DUP4 PUSH20 0xFFFFFFFFFFFFFFFFFFFFFFFFFFFFFFFFFFFFFFFF AND MUL OR SWAP1 SSTORE POP PUSH20 0x37E140032AC3A8428ED43761A9881D4741EB3A73 PUSH1 0x26 PUSH1 0x0 PUSH2 0x100 EXP DUP2 SLOAD DUP2 PUSH20 0xFFFFFFFFFFFFFFFFFFFFFFFFFFFFFFFFFFFFFFFF MUL NOT AND SWAP1 DUP4 PUSH20 0xFFFFFFFFFFFFFFFFFFFFFFFFFFFFFFFFFFFFFFFF AND MUL OR SWAP1 SSTORE POP PUSH20 0xD575EF966CFE21A5A5602DFADAD3D1CAE8C60FDB PUSH1 0x27 PUSH1 0x0 PUSH2 0x100 EXP DUP2 SLOAD DUP2 PUSH20 0xFFFFFFFFFFFFFFFFFFFFFFFFFFFFFFFFFFFFFFFF MUL NOT AND SWAP1 DUP4 PUSH20 0xFFFFFFFFFFFFFFFFFFFFFFFFFFFFFFFFFFFFFFFF AND MUL OR SWAP1 SSTORE POP PUSH20 0x14769F96E57B80C66837701DE0B43686FB4632DE PUSH1 0x29 PUSH1 0x0 PUSH2 0x100 EXP DUP2 SLOAD DUP2 PUSH20 0xFFFFFFFFFFFFFFFFFFFFFFFFFFFFFFFFFFFFFFFF MUL NOT AND SWAP1 DUP4 PUSH20 0xFFFFFFFFFFFFFFFFFFFFFFFFFFFFFFFFFFFFFFFF AND MUL OR SWAP1 SSTORE POP CALLVALUE DUP1 ISZERO PUSH3 0x233 JUMPI PUSH1 0x0 DUP1 REVERT JUMPDEST POP PUSH1 0x8 PUSH1 0x40 MLOAD PUSH1 0x20 ADD PUSH3 0x248 SWAP2 SWAP1 PUSH3 0x14BC JUMP JUMPDEST PUSH1 0x40 MLOAD PUSH1 0x20 DUP2 DUP4 SUB SUB DUP2 MSTORE SWAP1 PUSH1 0x40 MSTORE PUSH3 0x268 DUP2 PUSH3 0xF2B PUSH1 0x20 SHL PUSH1 0x20 SHR JUMP JUMPDEST POP PUSH3 0x27E PUSH1 0x0 DUP1 SHL CALLER PUSH3 0xF47 PUSH1 0x20 SHL PUSH1 0x20 SHR JUMP JUMPDEST PUSH1 0x40 MLOAD DUP1 PUSH2 0x320 ADD PUSH1 0x40 MSTORE DUP1 PUSH1 0x40 MLOAD DUP1 PUSH1 0x40 ADD PUSH1 0x40 MSTORE DUP1 PUSH1 0x1 DUP2 MSTORE PUSH1 0x20 ADD PUSH32 0x4100000000000000000000000000000000000000000000000000000000000000 DUP2 MSTORE POP DUP2 MSTORE PUSH1 0x20 ADD PUSH1 0x40 MLOAD DUP1 PUSH1 0x40 ADD PUSH1 0x40 MSTORE DUP1 PUSH1 0x1 DUP2 MSTORE PUSH1 0x20 ADD PUSH32 0x4200000000000000000000000000000000000000000000000000000000000000 DUP2 MSTORE POP DUP2 MSTORE PUSH1 0x20 ADD PUSH1 0x40 MLOAD DUP1 PUSH1 0x40 ADD PUSH1 0x40 MSTORE DUP1 PUSH1 0x1 DUP2 MSTORE PUSH1 0x20 ADD PUSH32 0x4300000000000000000000000000000000000000000000000000000000000000 DUP2 MSTORE POP DUP2 MSTORE PUSH1 0x20 ADD PUSH1 0x40 MLOAD DUP1 PUSH1 0x40 ADD PUSH1 0x40 MSTORE DUP1 PUSH1 0x1 DUP2 MSTORE PUSH1 0x20 ADD PUSH32 0x4400000000000000000000000000000000000000000000000000000000000000 DUP2 MSTORE POP DUP2 MSTORE PUSH1 0x20 ADD PUSH1 0x40 MLOAD DUP1 PUSH1 0x40 ADD PUSH1 0x40 MSTORE DUP1 PUSH1 0x1 DUP2 MSTORE PUSH1 0x20 ADD PUSH32 0x4500000000000000000000000000000000000000000000000000000000000000 DUP2 MSTORE POP DUP2 MSTORE PUSH1 0x20 ADD PUSH1 0x40 MLOAD DUP1 PUSH1 0x40 ADD PUSH1 0x40 MSTORE DUP1 PUSH1 0x1 DUP2 MSTORE PUSH1 0x20 ADD PUSH32 0x4600000000000000000000000000000000000000000000000000000000000000 DUP2 MSTORE POP DUP2 MSTORE PUSH1 0x20 ADD PUSH1 0x40 MLOAD DUP1 PUSH1 0x40 ADD PUSH1 0x40 MSTORE DUP1 PUSH1 0x1 DUP2 MSTORE PUSH1 0x20 ADD PUSH32 0x4700000000000000000000000000000000000000000000000000000000000000 DUP2 MSTORE POP DUP2 MSTORE PUSH1 0x20 ADD PUSH1 0x40 MLOAD DUP1 PUSH1 0x40 ADD PUSH1 0x40 MSTORE DUP1 PUSH1 0x1 DUP2 MSTORE PUSH1 0x20 ADD PUSH32 0x4800000000000000000000000000000000000000000000000000000000000000 DUP2 MSTORE POP DUP2 MSTORE PUSH1 0x20 ADD PUSH1 0x40 MLOAD DUP1 PUSH1 0x40 ADD PUSH1 0x40 MSTORE DUP1 PUSH1 0x1 DUP2 MSTORE PUSH1 0x20 ADD PUSH32 0x6900000000000000000000000000000000000000000000000000000000000000 DUP2 MSTORE POP DUP2 MSTORE PUSH1 0x20 ADD PUSH1 0x40 MLOAD DUP1 PUSH1 0x40 ADD PUSH1 0x40 MSTORE DUP1 PUSH1 0x1 DUP2 MSTORE PUSH1 0x20 ADD PUSH32 0x4A00000000000000000000000000000000000000000000000000000000000000 DUP2 MSTORE POP DUP2 MSTORE PUSH1 0x20 ADD PUSH1 0x40 MLOAD DUP1 PUSH1 0x40 ADD PUSH1 0x40 MSTORE DUP1 PUSH1 0x1 DUP2 MSTORE PUSH1 0x20 ADD PUSH32 0x4B00000000000000000000000000000000000000000000000000000000000000 DUP2 MSTORE POP DUP2 MSTORE PUSH1 0x20 ADD PUSH1 0x40 MLOAD DUP1 PUSH1 0x40 ADD PUSH1 0x40 MSTORE DUP1 PUSH1 0x1 DUP2 MSTORE PUSH1 0x20 ADD PUSH32 0x4C00000000000000000000000000000000000000000000000000000000000000 DUP2 MSTORE POP DUP2 MSTORE PUSH1 0x20 ADD PUSH1 0x40 MLOAD DUP1 PUSH1 0x40 ADD PUSH1 0x40 MSTORE DUP1 PUSH1 0x1 DUP2 MSTORE PUSH1 0x20 ADD PUSH32 0x4D00000000000000000000000000000000000000000000000000000000000000 DUP2 MSTORE POP DUP2 MSTORE PUSH1 0x20 ADD PUSH1 0x40 MLOAD DUP1 PUSH1 0x40 ADD PUSH1 0x40 MSTORE DUP1 PUSH1 0x1 DUP2 MSTORE PUSH1 0x20 ADD PUSH32 0x4E00000000000000000000000000000000000000000000000000000000000000 DUP2 MSTORE POP DUP2 MSTORE PUSH1 0x20 ADD PUSH1 0x40 MLOAD DUP1 PUSH1 0x40 ADD PUSH1 0x40 MSTORE DUP1 PUSH1 0x1 DUP2 MSTORE PUSH1 0x20 ADD PUSH32 0x4F00000000000000000000000000000000000000000000000000000000000000 DUP2 MSTORE POP DUP2 MSTORE PUSH1 0x20 ADD PUSH1 0x40 MLOAD DUP1 PUSH1 0x40 ADD PUSH1 0x40 MSTORE DUP1 PUSH1 0x1 DUP2 MSTORE PUSH1 0x20 ADD PUSH32 0x5000000000000000000000000000000000000000000000000000000000000000 DUP2 MSTORE POP DUP2 MSTORE PUSH1 0x20 ADD PUSH1 0x40 MLOAD DUP1 PUSH1 0x40 ADD PUSH1 0x40 MSTORE DUP1 PUSH1 0x1 DUP2 MSTORE PUSH1 0x20 ADD PUSH32 0x5100000000000000000000000000000000000000000000000000000000000000 DUP2 MSTORE POP DUP2 MSTORE PUSH1 0x20 ADD PUSH1 0x40 MLOAD DUP1 PUSH1 0x40 ADD PUSH1 0x40 MSTORE DUP1 PUSH1 0x1 DUP2 MSTORE PUSH1 0x20 ADD PUSH32 0x5200000000000000000000000000000000000000000000000000000000000000 DUP2 MSTORE POP DUP2 MSTORE PUSH1 0x20 ADD PUSH1 0x40 MLOAD DUP1 PUSH1 0x40 ADD PUSH1 0x40 MSTORE DUP1 PUSH1 0x1 DUP2 MSTORE PUSH1 0x20 ADD PUSH32 0x5300000000000000000000000000000000000000000000000000000000000000 DUP2 MSTORE POP DUP2 MSTORE PUSH1 0x20 ADD PUSH1 0x40 MLOAD DUP1 PUSH1 0x40 ADD PUSH1 0x40 MSTORE DUP1 PUSH1 0x1 DUP2 MSTORE PUSH1 0x20 ADD PUSH32 0x5400000000000000000000000000000000000000000000000000000000000000 DUP2 MSTORE POP DUP2 MSTORE PUSH1 0x20 ADD PUSH1 0x40 MLOAD DUP1 PUSH1 0x40 ADD PUSH1 0x40 MSTORE DUP1 PUSH1 0x1 DUP2 MSTORE PUSH1 0x20 ADD PUSH32 0x5500000000000000000000000000000000000000000000000000000000000000 DUP2 MSTORE POP DUP2 MSTORE PUSH1 0x20 ADD PUSH1 0x40 MLOAD DUP1 PUSH1 0x40 ADD PUSH1 0x40 MSTORE DUP1 PUSH1 0x1 DUP2 MSTORE PUSH1 0x20 ADD PUSH32 0x5600000000000000000000000000000000000000000000000000000000000000 DUP2 MSTORE POP DUP2 MSTORE PUSH1 0x20 ADD PUSH1 0x40 MLOAD DUP1 PUSH1 0x40 ADD PUSH1 0x40 MSTORE DUP1 PUSH1 0x1 DUP2 MSTORE PUSH1 0x20 ADD PUSH32 0x5700000000000000000000000000000000000000000000000000000000000000 DUP2 MSTORE POP DUP2 MSTORE PUSH1 0x20 ADD PUSH1 0x40 MLOAD DUP1 PUSH1 0x40 ADD PUSH1 0x40 MSTORE DUP1 PUSH1 0x1 DUP2 MSTORE PUSH1 0x20 ADD PUSH32 0x5800000000000000000000000000000000000000000000000000000000000000 DUP2 MSTORE POP DUP2 MSTORE PUSH1 0x20 ADD PUSH1 0x40 MLOAD DUP1 PUSH1 0x40 ADD PUSH1 0x40 MSTORE DUP1 PUSH1 0x1 DUP2 MSTORE PUSH1 0x20 ADD PUSH32 0x5900000000000000000000000000000000000000000000000000000000000000 DUP2 MSTORE POP DUP2 MSTORE POP PUSH1 0x9 PUSH1 0x0 DUP3 ADD MLOAD DUP2 PUSH1 0x0 ADD SWAP1 DUP1 MLOAD SWAP1 PUSH1 0x20 ADD SWAP1 PUSH3 0x86B SWAP3 SWAP2 SWAP1 PUSH3 0x11DF JUMP JUMPDEST POP PUSH1 0x20 DUP3 ADD MLOAD DUP2 PUSH1 0x1 ADD SWAP1 DUP1 MLOAD SWAP1 PUSH1 0x20 ADD SWAP1 PUSH3 0x88A SWAP3 SWAP2 SWAP1 PUSH3 0x11DF JUMP JUMPDEST POP PUSH1 0x40 DUP3 ADD MLOAD DUP2 PUSH1 0x2 ADD SWAP1 DUP1 MLOAD SWAP1 PUSH1 0x20 ADD SWAP1 PUSH3 0x8A9 SWAP3 SWAP2 SWAP1 PUSH3 0x11DF JUMP JUMPDEST POP PUSH1 0x60 DUP3 ADD MLOAD DUP2 PUSH1 0x3 ADD SWAP1 DUP1 MLOAD SWAP1 PUSH1 0x20 ADD SWAP1 PUSH3 0x8C8 SWAP3 SWAP2 SWAP1 PUSH3 0x11DF JUMP JUMPDEST POP PUSH1 0x80 DUP3 ADD MLOAD DUP2 PUSH1 0x4 ADD SWAP1 DUP1 MLOAD SWAP1 PUSH1 0x20 ADD SWAP1 PUSH3 0x8E7 SWAP3 SWAP2 SWAP1 PUSH3 0x11DF JUMP JUMPDEST POP PUSH1 0xA0 DUP3 ADD MLOAD DUP2 PUSH1 0x5 ADD SWAP1 DUP1 MLOAD SWAP1 PUSH1 0x20 ADD SWAP1 PUSH3 0x906 SWAP3 SWAP2 SWAP1 PUSH3 0x11DF JUMP JUMPDEST POP PUSH1 0xC0 DUP3 ADD MLOAD DUP2 PUSH1 0x6 ADD SWAP1 DUP1 MLOAD SWAP1 PUSH1 0x20 ADD SWAP1 PUSH3 0x925 SWAP3 SWAP2 SWAP1 PUSH3 0x11DF JUMP JUMPDEST POP PUSH1 0xE0 DUP3 ADD MLOAD DUP2 PUSH1 0x7 ADD SWAP1 DUP1 MLOAD SWAP1 PUSH1 0x20 ADD SWAP1 PUSH3 0x944 SWAP3 SWAP2 SWAP1 PUSH3 0x11DF JUMP JUMPDEST POP PUSH2 0x100 DUP3 ADD MLOAD DUP2 PUSH1 0x8 ADD SWAP1 DUP1 MLOAD SWAP1 PUSH1 0x20 ADD SWAP1 PUSH3 0x964 SWAP3 SWAP2 SWAP1 PUSH3 0x11DF JUMP JUMPDEST POP PUSH2 0x120 DUP3 ADD MLOAD DUP2 PUSH1 0x9 ADD SWAP1 DUP1 MLOAD SWAP1 PUSH1 0x20 ADD SWAP1 PUSH3 0x984 SWAP3 SWAP2 SWAP1 PUSH3 0x11DF JUMP JUMPDEST POP PUSH2 0x140 DUP3 ADD MLOAD DUP2 PUSH1 0xA ADD SWAP1 DUP1 MLOAD SWAP1 PUSH1 0x20 ADD SWAP1 PUSH3 0x9A4 SWAP3 SWAP2 SWAP1 PUSH3 0x11DF JUMP JUMPDEST POP PUSH2 0x160 DUP3 ADD MLOAD DUP2 PUSH1 0xB ADD SWAP1 DUP1 MLOAD SWAP1 PUSH1 0x20 ADD SWAP1 PUSH3 0x9C4 SWAP3 SWAP2 SWAP1 PUSH3 0x11DF JUMP JUMPDEST POP PUSH2 0x180 DUP3 ADD MLOAD DUP2 PUSH1 0xC ADD SWAP1 DUP1 MLOAD SWAP1 PUSH1 0x20 ADD SWAP1 PUSH3 0x9E4 SWAP3 SWAP2 SWAP1 PUSH3 0x11DF JUMP JUMPDEST POP PUSH2 0x1A0 DUP3 ADD MLOAD DUP2 PUSH1 0xD ADD SWAP1 DUP1 MLOAD SWAP1 PUSH1 0x20 ADD SWAP1 PUSH3 0xA04 SWAP3 SWAP2 SWAP1 PUSH3 0x11DF JUMP JUMPDEST POP PUSH2 0x1C0 DUP3 ADD MLOAD DUP2 PUSH1 0xE ADD SWAP1 DUP1 MLOAD SWAP1 PUSH1 0x20 ADD SWAP1 PUSH3 0xA24 SWAP3 SWAP2 SWAP1 PUSH3 0x11DF JUMP JUMPDEST POP PUSH2 0x1E0 DUP3 ADD MLOAD DUP2 PUSH1 0xF ADD SWAP1 DUP1 MLOAD SWAP1 PUSH1 0x20 ADD SWAP1 PUSH3 0xA44 SWAP3 SWAP2 SWAP1 PUSH3 0x11DF JUMP JUMPDEST POP PUSH2 0x200 DUP3 ADD MLOAD DUP2 PUSH1 0x10 ADD SWAP1 DUP1 MLOAD SWAP1 PUSH1 0x20 ADD SWAP1 PUSH3 0xA64 SWAP3 SWAP2 SWAP1 PUSH3 0x11DF JUMP JUMPDEST POP PUSH2 0x220 DUP3 ADD MLOAD DUP2 PUSH1 0x11 ADD SWAP1 DUP1 MLOAD SWAP1 PUSH1 0x20 ADD SWAP1 PUSH3 0xA84 SWAP3 SWAP2 SWAP1 PUSH3 0x11DF JUMP JUMPDEST POP PUSH2 0x240 DUP3 ADD MLOAD DUP2 PUSH1 0x12 ADD SWAP1 DUP1 MLOAD SWAP1 PUSH1 0x20 ADD SWAP1 PUSH3 0xAA4 SWAP3 SWAP2 SWAP1 PUSH3 0x11DF JUMP JUMPDEST POP PUSH2 0x260 DUP3 ADD MLOAD DUP2 PUSH1 0x13 ADD SWAP1 DUP1 MLOAD SWAP1 PUSH1 0x20 ADD SWAP1 PUSH3 0xAC4 SWAP3 SWAP2 SWAP1 PUSH3 0x11DF JUMP JUMPDEST POP PUSH2 0x280 DUP3 ADD MLOAD DUP2 PUSH1 0x14 ADD SWAP1 DUP1 MLOAD SWAP1 PUSH1 0x20 ADD SWAP1 PUSH3 0xAE4 SWAP3 SWAP2 SWAP1 PUSH3 0x11DF JUMP JUMPDEST POP PUSH2 0x2A0 DUP3 ADD MLOAD DUP2 PUSH1 0x15 ADD SWAP1 DUP1 MLOAD SWAP1 PUSH1 0x20 ADD SWAP1 PUSH3 0xB04 SWAP3 SWAP2 SWAP1 PUSH3 0x11DF JUMP JUMPDEST POP PUSH2 0x2C0 DUP3 ADD MLOAD DUP2 PUSH1 0x16 ADD SWAP1 DUP1 MLOAD SWAP1 PUSH1 0x20 ADD SWAP1 PUSH3 0xB24 SWAP3 SWAP2 SWAP1 PUSH3 0x11DF JUMP JUMPDEST POP PUSH2 0x2E0 DUP3 ADD MLOAD DUP2 PUSH1 0x17 ADD SWAP1 DUP1 MLOAD SWAP1 PUSH1 0x20 ADD SWAP1 PUSH3 0xB44 SWAP3 SWAP2 SWAP1 PUSH3 0x11DF JUMP JUMPDEST POP PUSH2 0x300 DUP3 ADD MLOAD DUP2 PUSH1 0x18 ADD SWAP1 DUP1 MLOAD SWAP1 PUSH1 0x20 ADD SWAP1 PUSH3 0xB64 SWAP3 SWAP2 SWAP1 PUSH3 0x11DF JUMP JUMPDEST POP SWAP1 POP POP PUSH1 0x40 MLOAD DUP1 PUSH1 0xC0 ADD PUSH1 0x40 MSTORE DUP1 PUSH4 0xDEAD123 PUSH20 0xFFFFFFFFFFFFFFFFFFFFFFFFFFFFFFFFFFFFFFFF AND DUP2 MSTORE PUSH1 0x20 ADD PUSH1 0x0 DUP2 MSTORE PUSH1 0x20 ADD PUSH1 0x1 DUP2 MSTORE PUSH1 0x20 ADD PUSH1 0x64 DUP2 MSTORE PUSH1 0x20 ADD PUSH1 0x64 PUSH1 0xF PUSH2 0x2710 PUSH3 0xBBB SWAP2 SWAP1 PUSH3 0x151B JUMP JUMPDEST PUSH3 0xBC7 SWAP2 SWAP1 PUSH3 0x15AB JUMP JUMPDEST DUP2 MSTORE PUSH1 0x20 ADD PUSH1 0xF PUSH2 0x2710 PUSH3 0xBDD SWAP2 SWAP1 PUSH3 0x151B JUMP JUMPDEST DUP2 MSTORE POP PUSH1 0x2A PUSH1 0x0 DUP3 ADD MLOAD DUP2 PUSH1 0x0 ADD PUSH1 0x0 PUSH2 0x100 EXP DUP2 SLOAD DUP2 PUSH20 0xFFFFFFFFFFFFFFFFFFFFFFFFFFFFFFFFFFFFFFFF MUL NOT AND SWAP1 DUP4 PUSH20 0xFFFFFFFFFFFFFFFFFFFFFFFFFFFFFFFFFFFFFFFF AND MUL OR SWAP1 SSTORE POP PUSH1 0x20 DUP3 ADD MLOAD DUP2 PUSH1 0x1 ADD SSTORE PUSH1 0x40 DUP3 ADD MLOAD DUP2 PUSH1 0x2 ADD SSTORE PUSH1 0x60 DUP3 ADD MLOAD DUP2 PUSH1 0x3 ADD SSTORE PUSH1 0x80 DUP3 ADD MLOAD DUP2 PUSH1 0x4 ADD SSTORE PUSH1 0xA0 DUP3 ADD MLOAD DUP2 PUSH1 0x5 ADD SSTORE SWAP1 POP POP PUSH3 0xC68 PUSH3 0x1270 JUMP JUMPDEST PUSH1 0x22 PUSH1 0x40 MLOAD DUP1 PUSH1 0xA0 ADD PUSH1 0x40 MSTORE DUP1 PUSH1 0x0 PUSH20 0xFFFFFFFFFFFFFFFFFFFFFFFFFFFFFFFFFFFFFFFF AND DUP2 MSTORE PUSH1 0x20 ADD DUP4 DUP2 MSTORE PUSH1 0x20 ADD PUSH1 0x0 PUSH16 0xFFFFFFFFFFFFFFFFFFFFFFFFFFFFFFFF AND DUP2 MSTORE PUSH1 0x20 ADD PUSH1 0x0 PUSH16 0xFFFFFFFFFFFFFFFFFFFFFFFFFFFFFFFF AND DUP2 MSTORE PUSH1 0x20 ADD PUSH1 0x0 PUSH16 0xFFFFFFFFFFFFFFFFFFFFFFFFFFFFFFFF AND DUP2 MSTORE POP SWAP1 DUP1 PUSH1 0x1 DUP2 SLOAD ADD DUP1 DUP3 SSTORE DUP1 SWAP2 POP POP PUSH1 0x1 SWAP1 SUB SWAP1 PUSH1 0x0 MSTORE PUSH1 0x20 PUSH1 0x0 KECCAK256 SWAP1 PUSH1 0x4 MUL ADD PUSH1 0x0 SWAP1 SWAP2 SWAP1 SWAP2 SWAP1 SWAP2 POP PUSH1 0x0 DUP3 ADD MLOAD DUP2 PUSH1 0x0 ADD PUSH1 0x0 PUSH2 0x100 EXP DUP2 SLOAD DUP2 PUSH20 0xFFFFFFFFFFFFFFFFFFFFFFFFFFFFFFFFFFFFFFFF MUL NOT AND SWAP1 DUP4 PUSH20 0xFFFFFFFFFFFFFFFFFFFFFFFFFFFFFFFFFFFFFFFF AND MUL OR SWAP1 SSTORE POP PUSH1 0x20 DUP3 ADD MLOAD DUP2 PUSH1 0x1 ADD SWAP1 PUSH1 0x8 PUSH3 0xD6A SWAP3 SWAP2 SWAP1 PUSH3 0x1293 JUMP JUMPDEST POP PUSH1 0x40 DUP3 ADD MLOAD DUP2 PUSH1 0x2 ADD PUSH1 0x0 PUSH2 0x100 EXP DUP2 SLOAD DUP2 PUSH16 0xFFFFFFFFFFFFFFFFFFFFFFFFFFFFFFFF MUL NOT AND SWAP1 DUP4 PUSH16 0xFFFFFFFFFFFFFFFFFFFFFFFFFFFFFFFF AND MUL OR SWAP1 SSTORE POP PUSH1 0x60 DUP3 ADD MLOAD DUP2 PUSH1 0x2 ADD PUSH1 0x10 PUSH2 0x100 EXP DUP2 SLOAD DUP2 PUSH16 0xFFFFFFFFFFFFFFFFFFFFFFFFFFFFFFFF MUL NOT AND SWAP1 DUP4 PUSH16 0xFFFFFFFFFFFFFFFFFFFFFFFFFFFFFFFF AND MUL OR SWAP1 SSTORE POP PUSH1 0x80 DUP3 ADD MLOAD DUP2 PUSH1 0x3 ADD PUSH1 0x0 PUSH2 0x100 EXP DUP2 SLOAD DUP2 PUSH16 0xFFFFFFFFFFFFFFFFFFFFFFFFFFFFFFFF MUL NOT AND SWAP1 DUP4 PUSH16 0xFFFFFFFFFFFFFFFFFFFFFFFFFFFFFFFF AND MUL OR SWAP1 SSTORE POP POP POP PUSH2 0x3039 CHAINID EQ ISZERO PUSH3 0xE7E JUMPI PUSH2 0xDEAD PUSH1 0x29 PUSH1 0x0 PUSH2 0x100 EXP DUP2 SLOAD DUP2 PUSH20 0xFFFFFFFFFFFFFFFFFFFFFFFFFFFFFFFFFFFFFFFF MUL NOT AND SWAP1 DUP4 PUSH20 0xFFFFFFFFFFFFFFFFFFFFFFFFFFFFFFFFFFFFFFFF AND MUL OR SWAP1 SSTORE POP PUSH3 0xECF JUMP JUMPDEST PUSH3 0x181CD CHAINID EQ ISZERO PUSH3 0xECE JUMPI PUSH2 0xDEAD PUSH1 0x29 PUSH1 0x0 PUSH2 0x100 EXP DUP2 SLOAD DUP2 PUSH20 0xFFFFFFFFFFFFFFFFFFFFFFFFFFFFFFFFFFFFFFFF MUL NOT AND SWAP1 DUP4 PUSH20 0xFFFFFFFFFFFFFFFFFFFFFFFFFFFFFFFFFFFFFFFF AND MUL OR SWAP1 SSTORE POP JUMPDEST JUMPDEST PUSH20 0x14769F96E57B80C66837701DE0B43686FB4632DE PUSH1 0x29 PUSH1 0x0 PUSH2 0x100 EXP DUP2 SLOAD DUP2 PUSH20 0xFFFFFFFFFFFFFFFFFFFFFFFFFFFFFFFFFFFFFFFF MUL NOT AND SWAP1 DUP4 PUSH20 0xFFFFFFFFFFFFFFFFFFFFFFFFFFFFFFFFFFFFFFFF AND MUL OR SWAP1 SSTORE POP POP PUSH3 0x15E3 JUMP JUMPDEST DUP1 PUSH1 0x2 SWAP1 DUP1 MLOAD SWAP1 PUSH1 0x20 ADD SWAP1 PUSH3 0xF43 SWAP3 SWAP2 SWAP1 PUSH3 0x11DF JUMP JUMPDEST POP POP JUMP JUMPDEST PUSH3 0xF59 DUP3 DUP3 PUSH3 0xF5D PUSH1 0x20 SHL PUSH1 0x20 SHR JUMP JUMPDEST POP POP JUMP JUMPDEST PUSH3 0xF74 DUP3 DUP3 PUSH3 0xFA5 PUSH1 0x20 SHL PUSH3 0x4315 OR PUSH1 0x20 SHR JUMP JUMPDEST PUSH3 0xFA0 DUP2 PUSH1 0x5 PUSH1 0x0 DUP6 DUP2 MSTORE PUSH1 0x20 ADD SWAP1 DUP2 MSTORE PUSH1 0x20 ADD PUSH1 0x0 KECCAK256 PUSH3 0x1097 PUSH1 0x20 SHL PUSH3 0x43F6 OR SWAP1 SWAP2 SWAP1 PUSH1 0x20 SHR JUMP JUMPDEST POP POP POP JUMP JUMPDEST PUSH3 0xFB7 DUP3 DUP3 PUSH3 0x10CF PUSH1 0x20 SHL PUSH1 0x20 SHR JUMP JUMPDEST PUSH3 0x1093 JUMPI PUSH1 0x1 PUSH1 0x4 PUSH1 0x0 DUP5 DUP2 MSTORE PUSH1 0x20 ADD SWAP1 DUP2 MSTORE PUSH1 0x20 ADD PUSH1 0x0 KECCAK256 PUSH1 0x0 ADD PUSH1 0x0 DUP4 PUSH20 0xFFFFFFFFFFFFFFFFFFFFFFFFFFFFFFFFFFFFFFFF AND PUSH20 0xFFFFFFFFFFFFFFFFFFFFFFFFFFFFFFFFFFFFFFFF AND DUP2 MSTORE PUSH1 0x20 ADD SWAP1 DUP2 MSTORE PUSH1 0x20 ADD PUSH1 0x0 KECCAK256 PUSH1 0x0 PUSH2 0x100 EXP DUP2 SLOAD DUP2 PUSH1 0xFF MUL NOT AND SWAP1 DUP4 ISZERO ISZERO MUL OR SWAP1 SSTORE POP PUSH3 0x1038 PUSH3 0x113A PUSH1 0x20 SHL PUSH1 0x20 SHR JUMP JUMPDEST PUSH20 0xFFFFFFFFFFFFFFFFFFFFFFFFFFFFFFFFFFFFFFFF AND DUP2 PUSH20 0xFFFFFFFFFFFFFFFFFFFFFFFFFFFFFFFFFFFFFFFF AND DUP4 PUSH32 0x2F8788117E7EFF1D82E926EC794901D17C78024A50270940304540A733656F0D PUSH1 0x40 MLOAD PUSH1 0x40 MLOAD DUP1 SWAP2 SUB SWAP1 LOG4 JUMPDEST POP POP JUMP JUMPDEST PUSH1 0x0 PUSH3 0x10C7 DUP4 PUSH1 0x0 ADD DUP4 PUSH20 0xFFFFFFFFFFFFFFFFFFFFFFFFFFFFFFFFFFFFFFFF AND PUSH1 0x0 SHL PUSH3 0x1142 PUSH1 0x20 SHL PUSH1 0x20 SHR JUMP JUMPDEST SWAP1 POP SWAP3 SWAP2 POP POP JUMP JUMPDEST PUSH1 0x0 PUSH1 0x4 PUSH1 0x0 DUP5 DUP2 MSTORE PUSH1 0x20 ADD SWAP1 DUP2 MSTORE PUSH1 0x20 ADD PUSH1 0x0 KECCAK256 PUSH1 0x0 ADD PUSH1 0x0 DUP4 PUSH20 0xFFFFFFFFFFFFFFFFFFFFFFFFFFFFFFFFFFFFFFFF AND PUSH20 0xFFFFFFFFFFFFFFFFFFFFFFFFFFFFFFFFFFFFFFFF AND DUP2 MSTORE PUSH1 0x20 ADD SWAP1 DUP2 MSTORE PUSH1 0x20 ADD PUSH1 0x0 KECCAK256 PUSH1 0x0 SWAP1 SLOAD SWAP1 PUSH2 0x100 EXP SWAP1 DIV PUSH1 0xFF AND SWAP1 POP SWAP3 SWAP2 POP POP JUMP JUMPDEST PUSH1 0x0 CALLER SWAP1 POP SWAP1 JUMP JUMPDEST PUSH1 0x0 PUSH3 0x1156 DUP4 DUP4 PUSH3 0x11BC PUSH1 0x20 SHL PUSH1 0x20 SHR JUMP JUMPDEST PUSH3 0x11B1 JUMPI DUP3 PUSH1 0x0 ADD DUP3 SWAP1 DUP1 PUSH1 0x1 DUP2 SLOAD ADD DUP1 DUP3 SSTORE DUP1 SWAP2 POP POP PUSH1 0x1 SWAP1 SUB SWAP1 PUSH1 0x0 MSTORE PUSH1 0x20 PUSH1 0x0 KECCAK256 ADD PUSH1 0x0 SWAP1 SWAP2 SWAP1 SWAP2 SWAP1 SWAP2 POP SSTORE DUP3 PUSH1 0x0 ADD DUP1 SLOAD SWAP1 POP DUP4 PUSH1 0x1 ADD PUSH1 0x0 DUP5 DUP2 MSTORE PUSH1 0x20 ADD SWAP1 DUP2 MSTORE PUSH1 0x20 ADD PUSH1 0x0 KECCAK256 DUP2 SWAP1 SSTORE POP PUSH1 0x1 SWAP1 POP PUSH3 0x11B6 JUMP JUMPDEST PUSH1 0x0 SWAP1 POP JUMPDEST SWAP3 SWAP2 POP POP JUMP JUMPDEST PUSH1 0x0 DUP1 DUP4 PUSH1 0x1 ADD PUSH1 0x0 DUP5 DUP2 MSTORE PUSH1 0x20 ADD SWAP1 DUP2 MSTORE PUSH1 0x20 ADD PUSH1 0x0 KECCAK256 SLOAD EQ ISZERO SWAP1 POP SWAP3 SWAP2 POP POP JUMP JUMPDEST DUP3 DUP1 SLOAD PUSH3 0x11ED SWAP1 PUSH3 0x138B JUMP JUMPDEST SWAP1 PUSH1 0x0 MSTORE PUSH1 0x20 PUSH1 0x0 KECCAK256 SWAP1 PUSH1 0x1F ADD PUSH1 0x20 SWAP1 DIV DUP2 ADD SWAP3 DUP3 PUSH3 0x1211 JUMPI PUSH1 0x0 DUP6 SSTORE PUSH3 0x125D JUMP JUMPDEST DUP3 PUSH1 0x1F LT PUSH3 0x122C JUMPI DUP1 MLOAD PUSH1 0xFF NOT AND DUP4 DUP1 ADD OR DUP6 SSTORE PUSH3 0x125D JUMP JUMPDEST DUP3 DUP1 ADD PUSH1 0x1 ADD DUP6 SSTORE DUP3 ISZERO PUSH3 0x125D JUMPI SWAP2 DUP3 ADD JUMPDEST DUP3 DUP2 GT ISZERO PUSH3 0x125C JUMPI DUP3 MLOAD DUP3 SSTORE SWAP2 PUSH1 0x20 ADD SWAP2 SWAP1 PUSH1 0x1 ADD SWAP1 PUSH3 0x123F JUMP JUMPDEST JUMPDEST POP SWAP1 POP PUSH3 0x126C SWAP2 SWAP1 PUSH3 0x133D JUMP JUMPDEST POP SWAP1 JUMP JUMPDEST PUSH1 0x40 MLOAD DUP1 PUSH2 0x100 ADD PUSH1 0x40 MSTORE DUP1 PUSH1 0x8 SWAP1 PUSH1 0x20 DUP3 MUL DUP1 CALLDATASIZE DUP4 CALLDATACOPY DUP1 DUP3 ADD SWAP2 POP POP SWAP1 POP POP SWAP1 JUMP JUMPDEST DUP3 PUSH1 0x8 PUSH1 0x7 ADD PUSH1 0x8 SWAP1 DIV DUP2 ADD SWAP3 DUP3 ISZERO PUSH3 0x132A JUMPI SWAP2 PUSH1 0x20 MUL DUP3 ADD PUSH1 0x0 JUMPDEST DUP4 DUP3 GT ISZERO PUSH3 0x12F6 JUMPI DUP4 MLOAD DUP4 DUP3 PUSH2 0x100 EXP DUP2 SLOAD DUP2 PUSH4 0xFFFFFFFF MUL NOT AND SWAP1 DUP4 PUSH4 0xFFFFFFFF AND MUL OR SWAP1 SSTORE POP SWAP3 PUSH1 0x20 ADD SWAP3 PUSH1 0x4 ADD PUSH1 0x20 DUP2 PUSH1 0x3 ADD DIV SWAP3 DUP4 ADD SWAP3 PUSH1 0x1 SUB MUL PUSH3 0x12B0 JUMP JUMPDEST DUP1 ISZERO PUSH3 0x1328 JUMPI DUP3 DUP2 PUSH2 0x100 EXP DUP2 SLOAD SWAP1 PUSH4 0xFFFFFFFF MUL NOT AND SWAP1 SSTORE PUSH1 0x4 ADD PUSH1 0x20 DUP2 PUSH1 0x3 ADD DIV SWAP3 DUP4 ADD SWAP3 PUSH1 0x1 SUB MUL PUSH3 0x12F6 JUMP JUMPDEST POP JUMPDEST POP SWAP1 POP PUSH3 0x1339 SWAP2 SWAP1 PUSH3 0x133D JUMP JUMPDEST POP SWAP1 JUMP JUMPDEST JUMPDEST DUP1 DUP3 GT ISZERO PUSH3 0x1358 JUMPI PUSH1 0x0 DUP2 PUSH1 0x0 SWAP1 SSTORE POP PUSH1 0x1 ADD PUSH3 0x133E JUMP JUMPDEST POP SWAP1 JUMP JUMPDEST PUSH32 0x4E487B7100000000000000000000000000000000000000000000000000000000 PUSH1 0x0 MSTORE PUSH1 0x22 PUSH1 0x4 MSTORE PUSH1 0x24 PUSH1 0x0 REVERT JUMPDEST PUSH1 0x0 PUSH1 0x2 DUP3 DIV SWAP1 POP PUSH1 0x1 DUP3 AND DUP1 PUSH3 0x13A4 JUMPI PUSH1 0x7F DUP3 AND SWAP2 POP JUMPDEST PUSH1 0x20 DUP3 LT DUP2 EQ ISZERO PUSH3 0x13BB JUMPI PUSH3 0x13BA PUSH3 0x135C JUMP JUMPDEST JUMPDEST POP SWAP2 SWAP1 POP JUMP JUMPDEST PUSH1 0x0 DUP2 SWAP1 POP SWAP3 SWAP2 POP POP JUMP JUMPDEST PUSH1 0x0 DUP2 SWAP1 POP DUP2 PUSH1 0x0 MSTORE PUSH1 0x20 PUSH1 0x0 KECCAK256 SWAP1 POP SWAP2 SWAP1 POP JUMP JUMPDEST PUSH1 0x0 DUP2 SLOAD PUSH3 0x13F0 DUP2 PUSH3 0x138B JUMP JUMPDEST PUSH3 0x13FC DUP2 DUP7 PUSH3 0x13C1 JUMP JUMPDEST SWAP5 POP PUSH1 0x1 DUP3 AND PUSH1 0x0 DUP2 EQ PUSH3 0x141A JUMPI PUSH1 0x1 DUP2 EQ PUSH3 0x142C JUMPI PUSH3 0x1463 JUMP JUMPDEST PUSH1 0xFF NOT DUP4 AND DUP7 MSTORE DUP2 DUP7 ADD SWAP4 POP PUSH3 0x1463 JUMP JUMPDEST PUSH3 0x1437 DUP6 PUSH3 0x13CC JUMP JUMPDEST PUSH1 0x0 JUMPDEST DUP4 DUP2 LT ISZERO PUSH3 0x145B JUMPI DUP2 SLOAD DUP2 DUP10 ADD MSTORE PUSH1 0x1 DUP3 ADD SWAP2 POP PUSH1 0x20 DUP2 ADD SWAP1 POP PUSH3 0x143A JUMP JUMPDEST DUP4 DUP9 ADD SWAP6 POP POP POP JUMPDEST POP POP POP SWAP3 SWAP2 POP POP JUMP JUMPDEST PUSH32 0x7B69647D2E6A736F6E0000000000000000000000000000000000000000000000 PUSH1 0x0 DUP3 ADD MSTORE POP JUMP JUMPDEST PUSH1 0x0 PUSH3 0x14A4 PUSH1 0x9 DUP4 PUSH3 0x13C1 JUMP JUMPDEST SWAP2 POP PUSH3 0x14B1 DUP3 PUSH3 0x146C JUMP JUMPDEST PUSH1 0x9 DUP3 ADD SWAP1 POP SWAP2 SWAP1 POP JUMP JUMPDEST PUSH1 0x0 PUSH3 0x14CA DUP3 DUP5 PUSH3 0x13E1 JUMP JUMPDEST SWAP2 POP PUSH3 0x14D7 DUP3 PUSH3 0x1495 JUMP JUMPDEST SWAP2 POP DUP2 SWAP1 POP SWAP3 SWAP2 POP POP JUMP JUMPDEST PUSH1 0x0 DUP2 SWAP1 POP SWAP2 SWAP1 POP JUMP JUMPDEST PUSH32 0x4E487B7100000000000000000000000000000000000000000000000000000000 PUSH1 0x0 MSTORE PUSH1 0x11 PUSH1 0x4 MSTORE PUSH1 0x24 PUSH1 0x0 REVERT JUMPDEST PUSH1 0x0 PUSH3 0x1528 DUP3 PUSH3 0x14E2 JUMP JUMPDEST SWAP2 POP PUSH3 0x1535 DUP4 PUSH3 0x14E2 JUMP JUMPDEST SWAP3 POP DUP2 PUSH32 0xFFFFFFFFFFFFFFFFFFFFFFFFFFFFFFFFFFFFFFFFFFFFFFFFFFFFFFFFFFFFFFFF DIV DUP4 GT DUP3 ISZERO ISZERO AND ISZERO PUSH3 0x1571 JUMPI PUSH3 0x1570 PUSH3 0x14EC JUMP JUMPDEST JUMPDEST DUP3 DUP3 MUL SWAP1 POP SWAP3 SWAP2 POP POP JUMP JUMPDEST PUSH32 0x4E487B7100000000000000000000000000000000000000000000000000000000 PUSH1 0x0 MSTORE PUSH1 0x12 PUSH1 0x4 MSTORE PUSH1 0x24 PUSH1 0x0 REVERT JUMPDEST PUSH1 0x0 PUSH3 0x15B8 DUP3 PUSH3 0x14E2 JUMP JUMPDEST SWAP2 POP PUSH3 0x15C5 DUP4 PUSH3 0x14E2 JUMP JUMPDEST SWAP3 POP DUP3 PUSH3 0x15D8 JUMPI PUSH3 0x15D7 PUSH3 0x157C JUMP JUMPDEST JUMPDEST DUP3 DUP3 DIV SWAP1 POP SWAP3 SWAP2 POP POP JUMP JUMPDEST PUSH2 0xA56C DUP1 PUSH3 0x15F3 PUSH1 0x0 CODECOPY PUSH1 0x0 RETURN INVALID PUSH1 0x80 PUSH1 0x40 MSTORE PUSH1 0x4 CALLDATASIZE LT PUSH2 0x280 JUMPI PUSH1 0x0 CALLDATALOAD PUSH1 0xE0 SHR DUP1 PUSH4 0x95D89B41 GT PUSH2 0x14F JUMPI DUP1 PUSH4 0xCA15C873 GT PUSH2 0xC1 JUMPI DUP1 PUSH4 0xE985E9C5 GT PUSH2 0x7A JUMPI DUP1 PUSH4 0xE985E9C5 EQ PUSH2 0xA16 JUMPI DUP1 PUSH4 0xECA01093 EQ PUSH2 0xA53 JUMPI DUP1 PUSH4 0xF242432A EQ PUSH2 0xA7C JUMPI DUP1 PUSH4 0xF3E6EA8A EQ PUSH2 0xAA5 JUMPI DUP1 PUSH4 0xF5298ACA EQ PUSH2 0xAC1 JUMPI DUP1 PUSH4 0xF6524724 EQ PUSH2 0xAEA JUMPI PUSH2 0x287 JUMP JUMPDEST DUP1 PUSH4 0xCA15C873 EQ PUSH2 0x8FC JUMPI DUP1 PUSH4 0xD01350BD EQ PUSH2 0x939 JUMPI DUP1 PUSH4 0xD391014B EQ PUSH2 0x976 JUMPI DUP1 PUSH4 0xD547741F EQ PUSH2 0x9A1 JUMPI DUP1 PUSH4 0xD5D60737 EQ PUSH2 0x9CA JUMPI DUP1 PUSH4 0xE06174E4 EQ PUSH2 0x9E6 JUMPI PUSH2 0x287 JUMP JUMPDEST DUP1 PUSH4 0xB5D11E99 GT PUSH2 0x113 JUMPI DUP1 PUSH4 0xB5D11E99 EQ PUSH2 0x7E7 JUMPI DUP1 PUSH4 0xB771E425 EQ PUSH2 0x7FE JUMPI DUP1 PUSH4 0xBBADC03B EQ PUSH2 0x83B JUMPI DUP1 PUSH4 0xBD85B039 EQ PUSH2 0x878 JUMPI DUP1 PUSH4 0xC09C923B EQ PUSH2 0x8B5 JUMPI DUP1 PUSH4 0xC790985A EQ PUSH2 0x8BF JUMPI PUSH2 0x287 JUMP JUMPDEST DUP1 PUSH4 0x95D89B41 EQ PUSH2 0x710 JUMPI DUP1 PUSH4 0x9BC731FC EQ PUSH2 0x73B JUMPI DUP1 PUSH4 0xA22CB465 EQ PUSH2 0x764 JUMPI DUP1 PUSH4 0xA60C6E55 EQ PUSH2 0x78D JUMPI DUP1 PUSH4 0xA7FD40BF EQ PUSH2 0x7BE JUMPI PUSH2 0x287 JUMP JUMPDEST DUP1 PUSH4 0x2F2FF15D GT PUSH2 0x1F3 JUMPI DUP1 PUSH4 0x4E1273F4 GT PUSH2 0x1AC JUMPI DUP1 PUSH4 0x4E1273F4 EQ PUSH2 0x5B6 JUMPI DUP1 PUSH4 0x4F558E79 EQ PUSH2 0x5F3 JUMPI DUP1 PUSH4 0x74FCF071 EQ PUSH2 0x630 JUMPI DUP1 PUSH4 0x9010D07C EQ PUSH2 0x659 JUMPI DUP1 PUSH4 0x9162EBF0 EQ PUSH2 0x696 JUMPI DUP1 PUSH4 0x91D14854 EQ PUSH2 0x6D3 JUMPI PUSH2 0x287 JUMP JUMPDEST DUP1 PUSH4 0x2F2FF15D EQ PUSH2 0x4B7 JUMPI DUP1 PUSH4 0x313CE567 EQ PUSH2 0x4E0 JUMPI DUP1 PUSH4 0x36568ABE EQ PUSH2 0x50B JUMPI DUP1 PUSH4 0x3935AC11 EQ PUSH2 0x534 JUMPI DUP1 PUSH4 0x43FEFAD4 EQ PUSH2 0x55D JUMPI DUP1 PUSH4 0x48B08D62 EQ PUSH2 0x579 JUMPI PUSH2 0x287 JUMP JUMPDEST DUP1 PUSH4 0x6FDDE03 GT PUSH2 0x245 JUMPI DUP1 PUSH4 0x6FDDE03 EQ PUSH2 0x395 JUMPI DUP1 PUSH4 0xC2E075B EQ PUSH2 0x3C0 JUMPI DUP1 PUSH4 0xE89341C EQ PUSH2 0x3E9 JUMPI DUP1 PUSH4 0x18160DDD EQ PUSH2 0x426 JUMPI DUP1 PUSH4 0x248A9CA3 EQ PUSH2 0x451 JUMPI DUP1 PUSH4 0x2EB2C2D6 EQ PUSH2 0x48E JUMPI PUSH2 0x287 JUMP JUMPDEST DUP1 PUSH3 0xFDD58E EQ PUSH2 0x28C JUMPI DUP1 PUSH4 0x1FFC9A7 EQ PUSH2 0x2C9 JUMPI DUP1 PUSH4 0x3D604BD EQ PUSH2 0x306 JUMPI DUP1 PUSH4 0x3ED957F EQ PUSH2 0x32F JUMPI DUP1 PUSH4 0x6FB1A07 EQ PUSH2 0x358 JUMPI PUSH2 0x287 JUMP JUMPDEST CALLDATASIZE PUSH2 0x287 JUMPI STOP JUMPDEST PUSH1 0x0 DUP1 REVERT JUMPDEST CALLVALUE DUP1 ISZERO PUSH2 0x298 JUMPI PUSH1 0x0 DUP1 REVERT JUMPDEST POP PUSH2 0x2B3 PUSH1 0x4 DUP1 CALLDATASIZE SUB DUP2 ADD SWAP1 PUSH2 0x2AE SWAP2 SWAP1 PUSH2 0x7F77 JUMP JUMPDEST PUSH2 0xB1B JUMP JUMPDEST PUSH1 0x40 MLOAD PUSH2 0x2C0 SWAP2 SWAP1 PUSH2 0x7FC6 JUMP JUMPDEST PUSH1 0x40 MLOAD DUP1 SWAP2 SUB SWAP1 RETURN JUMPDEST CALLVALUE DUP1 ISZERO PUSH2 0x2D5 JUMPI PUSH1 0x0 DUP1 REVERT JUMPDEST POP PUSH2 0x2F0 PUSH1 0x4 DUP1 CALLDATASIZE SUB DUP2 ADD SWAP1 PUSH2 0x2EB SWAP2 SWAP1 PUSH2 0x8039 JUMP JUMPDEST PUSH2 0xBE4 JUMP JUMPDEST PUSH1 0x40 MLOAD PUSH2 0x2FD SWAP2 SWAP1 PUSH2 0x8081 JUMP JUMPDEST PUSH1 0x40 MLOAD DUP1 SWAP2 SUB SWAP1 RETURN JUMPDEST CALLVALUE DUP1 ISZERO PUSH2 0x312 JUMPI PUSH1 0x0 DUP1 REVERT JUMPDEST POP PUSH2 0x32D PUSH1 0x4 DUP1 CALLDATASIZE SUB DUP2 ADD SWAP1 PUSH2 0x328 SWAP2 SWAP1 PUSH2 0x809C JUMP JUMPDEST PUSH2 0xCC6 JUMP JUMPDEST STOP JUMPDEST CALLVALUE DUP1 ISZERO PUSH2 0x33B JUMPI PUSH1 0x0 DUP1 REVERT JUMPDEST POP PUSH2 0x356 PUSH1 0x4 DUP1 CALLDATASIZE SUB DUP2 ADD SWAP1 PUSH2 0x351 SWAP2 SWAP1 PUSH2 0x812E JUMP JUMPDEST PUSH2 0xF4A JUMP JUMPDEST STOP JUMPDEST CALLVALUE DUP1 ISZERO PUSH2 0x364 JUMPI PUSH1 0x0 DUP1 REVERT JUMPDEST POP PUSH2 0x37F PUSH1 0x4 DUP1 CALLDATASIZE SUB DUP2 ADD SWAP1 PUSH2 0x37A SWAP2 SWAP1 PUSH2 0x817B JUMP JUMPDEST PUSH2 0xFD6 JUMP JUMPDEST PUSH1 0x40 MLOAD PUSH2 0x38C SWAP2 SWAP1 PUSH2 0x81B7 JUMP JUMPDEST PUSH1 0x40 MLOAD DUP1 SWAP2 SUB SWAP1 RETURN JUMPDEST CALLVALUE DUP1 ISZERO PUSH2 0x3A1 JUMPI PUSH1 0x0 DUP1 REVERT JUMPDEST POP PUSH2 0x3AA PUSH2 0x106D JUMP JUMPDEST PUSH1 0x40 MLOAD PUSH2 0x3B7 SWAP2 SWAP1 PUSH2 0x826B JUMP JUMPDEST PUSH1 0x40 MLOAD DUP1 SWAP2 SUB SWAP1 RETURN JUMPDEST CALLVALUE DUP1 ISZERO PUSH2 0x3CC JUMPI PUSH1 0x0 DUP1 REVERT JUMPDEST POP PUSH2 0x3E7 PUSH1 0x4 DUP1 CALLDATASIZE SUB DUP2 ADD SWAP1 PUSH2 0x3E2 SWAP2 SWAP1 PUSH2 0x82B1 JUMP JUMPDEST PUSH2 0x10FF JUMP JUMPDEST STOP JUMPDEST CALLVALUE DUP1 ISZERO PUSH2 0x3F5 JUMPI PUSH1 0x0 DUP1 REVERT JUMPDEST POP PUSH2 0x410 PUSH1 0x4 DUP1 CALLDATASIZE SUB DUP2 ADD SWAP1 PUSH2 0x40B SWAP2 SWAP1 PUSH2 0x817B JUMP JUMPDEST PUSH2 0x11EF JUMP JUMPDEST PUSH1 0x40 MLOAD PUSH2 0x41D SWAP2 SWAP1 PUSH2 0x826B JUMP JUMPDEST PUSH1 0x40 MLOAD DUP1 SWAP2 SUB SWAP1 RETURN JUMPDEST CALLVALUE DUP1 ISZERO PUSH2 0x432 JUMPI PUSH1 0x0 DUP1 REVERT JUMPDEST POP PUSH2 0x43B PUSH2 0x121B JUMP JUMPDEST PUSH1 0x40 MLOAD PUSH2 0x448 SWAP2 SWAP1 PUSH2 0x7FC6 JUMP JUMPDEST PUSH1 0x40 MLOAD DUP1 SWAP2 SUB SWAP1 RETURN JUMPDEST CALLVALUE DUP1 ISZERO PUSH2 0x45D JUMPI PUSH1 0x0 DUP1 REVERT JUMPDEST POP PUSH2 0x478 PUSH1 0x4 DUP1 CALLDATASIZE SUB DUP2 ADD SWAP1 PUSH2 0x473 SWAP2 SWAP1 PUSH2 0x8314 JUMP JUMPDEST PUSH2 0x1277 JUMP JUMPDEST PUSH1 0x40 MLOAD PUSH2 0x485 SWAP2 SWAP1 PUSH2 0x8350 JUMP JUMPDEST PUSH1 0x40 MLOAD DUP1 SWAP2 SUB SWAP1 RETURN JUMPDEST CALLVALUE DUP1 ISZERO PUSH2 0x49A JUMPI PUSH1 0x0 DUP1 REVERT JUMPDEST POP PUSH2 0x4B5 PUSH1 0x4 DUP1 CALLDATASIZE SUB DUP2 ADD SWAP1 PUSH2 0x4B0 SWAP2 SWAP1 PUSH2 0x855E JUMP JUMPDEST PUSH2 0x1297 JUMP JUMPDEST STOP JUMPDEST CALLVALUE DUP1 ISZERO PUSH2 0x4C3 JUMPI PUSH1 0x0 DUP1 REVERT JUMPDEST POP PUSH2 0x4DE PUSH1 0x4 DUP1 CALLDATASIZE SUB DUP2 ADD SWAP1 PUSH2 0x4D9 SWAP2 SWAP1 PUSH2 0x862D JUMP JUMPDEST PUSH2 0x129E JUMP JUMPDEST STOP JUMPDEST CALLVALUE DUP1 ISZERO PUSH2 0x4EC JUMPI PUSH1 0x0 DUP1 REVERT JUMPDEST POP PUSH2 0x4F5 PUSH2 0x12C7 JUMP JUMPDEST PUSH1 0x40 MLOAD PUSH2 0x502 SWAP2 SWAP1 PUSH2 0x7FC6 JUMP JUMPDEST PUSH1 0x40 MLOAD DUP1 SWAP2 SUB SWAP1 RETURN JUMPDEST CALLVALUE DUP1 ISZERO PUSH2 0x517 JUMPI PUSH1 0x0 DUP1 REVERT JUMPDEST POP PUSH2 0x532 PUSH1 0x4 DUP1 CALLDATASIZE SUB DUP2 ADD SWAP1 PUSH2 0x52D SWAP2 SWAP1 PUSH2 0x862D JUMP JUMPDEST PUSH2 0x12D0 JUMP JUMPDEST STOP JUMPDEST CALLVALUE DUP1 ISZERO PUSH2 0x540 JUMPI PUSH1 0x0 DUP1 REVERT JUMPDEST POP PUSH2 0x55B PUSH1 0x4 DUP1 CALLDATASIZE SUB DUP2 ADD SWAP1 PUSH2 0x556 SWAP2 SWAP1 PUSH2 0x870E JUMP JUMPDEST PUSH2 0x1353 JUMP JUMPDEST STOP JUMPDEST PUSH2 0x577 PUSH1 0x4 DUP1 CALLDATASIZE SUB DUP2 ADD SWAP1 PUSH2 0x572 SWAP2 SWAP1 PUSH2 0x8786 JUMP JUMPDEST PUSH2 0x139B JUMP JUMPDEST STOP JUMPDEST CALLVALUE DUP1 ISZERO PUSH2 0x585 JUMPI PUSH1 0x0 DUP1 REVERT JUMPDEST POP PUSH2 0x5A0 PUSH1 0x4 DUP1 CALLDATASIZE SUB DUP2 ADD SWAP1 PUSH2 0x59B SWAP2 SWAP1 PUSH2 0x87ED JUMP JUMPDEST PUSH2 0x1CA5 JUMP JUMPDEST PUSH1 0x40 MLOAD PUSH2 0x5AD SWAP2 SWAP1 PUSH2 0x7FC6 JUMP JUMPDEST PUSH1 0x40 MLOAD DUP1 SWAP2 SUB SWAP1 RETURN JUMPDEST CALLVALUE DUP1 ISZERO PUSH2 0x5C2 JUMPI PUSH1 0x0 DUP1 REVERT JUMPDEST POP PUSH2 0x5DD PUSH1 0x4 DUP1 CALLDATASIZE SUB DUP2 ADD SWAP1 PUSH2 0x5D8 SWAP2 SWAP1 PUSH2 0x8903 JUMP JUMPDEST PUSH2 0x1EFF JUMP JUMPDEST PUSH1 0x40 MLOAD PUSH2 0x5EA SWAP2 SWAP1 PUSH2 0x8A39 JUMP JUMPDEST PUSH1 0x40 MLOAD DUP1 SWAP2 SUB SWAP1 RETURN JUMPDEST CALLVALUE DUP1 ISZERO PUSH2 0x5FF JUMPI PUSH1 0x0 DUP1 REVERT JUMPDEST POP PUSH2 0x61A PUSH1 0x4 DUP1 CALLDATASIZE SUB DUP2 ADD SWAP1 PUSH2 0x615 SWAP2 SWAP1 PUSH2 0x817B JUMP JUMPDEST PUSH2 0x2018 JUMP JUMPDEST PUSH1 0x40 MLOAD PUSH2 0x627 SWAP2 SWAP1 PUSH2 0x8081 JUMP JUMPDEST PUSH1 0x40 MLOAD DUP1 SWAP2 SUB SWAP1 RETURN JUMPDEST CALLVALUE DUP1 ISZERO PUSH2 0x63C JUMPI PUSH1 0x0 DUP1 REVERT JUMPDEST POP PUSH2 0x657 PUSH1 0x4 DUP1 CALLDATASIZE SUB DUP2 ADD SWAP1 PUSH2 0x652 SWAP2 SWAP1 PUSH2 0x8786 JUMP JUMPDEST PUSH2 0x202C JUMP JUMPDEST STOP JUMPDEST CALLVALUE DUP1 ISZERO PUSH2 0x665 JUMPI PUSH1 0x0 DUP1 REVERT JUMPDEST POP PUSH2 0x680 PUSH1 0x4 DUP1 CALLDATASIZE SUB DUP2 ADD SWAP1 PUSH2 0x67B SWAP2 SWAP1 PUSH2 0x8A5B JUMP JUMPDEST PUSH2 0x2170 JUMP JUMPDEST PUSH1 0x40 MLOAD PUSH2 0x68D SWAP2 SWAP1 PUSH2 0x81B7 JUMP JUMPDEST PUSH1 0x40 MLOAD DUP1 SWAP2 SUB SWAP1 RETURN JUMPDEST CALLVALUE DUP1 ISZERO PUSH2 0x6A2 JUMPI PUSH1 0x0 DUP1 REVERT JUMPDEST POP PUSH2 0x6BD PUSH1 0x4 DUP1 CALLDATASIZE SUB DUP2 ADD SWAP1 PUSH2 0x6B8 SWAP2 SWAP1 PUSH2 0x809C JUMP JUMPDEST PUSH2 0x219F JUMP JUMPDEST PUSH1 0x40 MLOAD PUSH2 0x6CA SWAP2 SWAP1 PUSH2 0x7FC6 JUMP JUMPDEST PUSH1 0x40 MLOAD DUP1 SWAP2 SUB SWAP1 RETURN JUMPDEST CALLVALUE DUP1 ISZERO PUSH2 0x6DF JUMPI PUSH1 0x0 DUP1 REVERT JUMPDEST POP PUSH2 0x6FA PUSH1 0x4 DUP1 CALLDATASIZE SUB DUP2 ADD SWAP1 PUSH2 0x6F5 SWAP2 SWAP1 PUSH2 0x862D JUMP JUMPDEST PUSH2 0x21F0 JUMP JUMPDEST PUSH1 0x40 MLOAD PUSH2 0x707 SWAP2 SWAP1 PUSH2 0x8081 JUMP JUMPDEST PUSH1 0x40 MLOAD DUP1 SWAP2 SUB SWAP1 RETURN JUMPDEST CALLVALUE DUP1 ISZERO PUSH2 0x71C JUMPI PUSH1 0x0 DUP1 REVERT JUMPDEST POP PUSH2 0x725 PUSH2 0x225B JUMP JUMPDEST PUSH1 0x40 MLOAD PUSH2 0x732 SWAP2 SWAP1 PUSH2 0x826B JUMP JUMPDEST PUSH1 0x40 MLOAD DUP1 SWAP2 SUB SWAP1 RETURN JUMPDEST CALLVALUE DUP1 ISZERO PUSH2 0x747 JUMPI PUSH1 0x0 DUP1 REVERT JUMPDEST POP PUSH2 0x762 PUSH1 0x4 DUP1 CALLDATASIZE SUB DUP2 ADD SWAP1 PUSH2 0x75D SWAP2 SWAP1 PUSH2 0x809C JUMP JUMPDEST PUSH2 0x22ED JUMP JUMPDEST STOP JUMPDEST CALLVALUE DUP1 ISZERO PUSH2 0x770 JUMPI PUSH1 0x0 DUP1 REVERT JUMPDEST POP PUSH2 0x78B PUSH1 0x4 DUP1 CALLDATASIZE SUB DUP2 ADD SWAP1 PUSH2 0x786 SWAP2 SWAP1 PUSH2 0x8AC7 JUMP JUMPDEST PUSH2 0x2691 JUMP JUMPDEST STOP JUMPDEST PUSH2 0x7A7 PUSH1 0x4 DUP1 CALLDATASIZE SUB DUP2 ADD SWAP1 PUSH2 0x7A2 SWAP2 SWAP1 PUSH2 0x8B07 JUMP JUMPDEST PUSH2 0x285D JUMP JUMPDEST PUSH1 0x40 MLOAD PUSH2 0x7B5 SWAP3 SWAP2 SWAP1 PUSH2 0x8B94 JUMP JUMPDEST PUSH1 0x40 MLOAD DUP1 SWAP2 SUB SWAP1 RETURN JUMPDEST CALLVALUE DUP1 ISZERO PUSH2 0x7CA JUMPI PUSH1 0x0 DUP1 REVERT JUMPDEST POP PUSH2 0x7E5 PUSH1 0x4 DUP1 CALLDATASIZE SUB DUP2 ADD SWAP1 PUSH2 0x7E0 SWAP2 SWAP1 PUSH2 0x8BBD JUMP JUMPDEST PUSH2 0x2CDE JUMP JUMPDEST STOP JUMPDEST CALLVALUE DUP1 ISZERO PUSH2 0x7F3 JUMPI PUSH1 0x0 DUP1 REVERT JUMPDEST POP PUSH2 0x7FC PUSH2 0x2D36 JUMP JUMPDEST STOP JUMPDEST CALLVALUE DUP1 ISZERO PUSH2 0x80A JUMPI PUSH1 0x0 DUP1 REVERT JUMPDEST POP PUSH2 0x825 PUSH1 0x4 DUP1 CALLDATASIZE SUB DUP2 ADD SWAP1 PUSH2 0x820 SWAP2 SWAP1 PUSH2 0x809C JUMP JUMPDEST PUSH2 0x2DB2 JUMP JUMPDEST PUSH1 0x40 MLOAD PUSH2 0x832 SWAP2 SWAP1 PUSH2 0x7FC6 JUMP JUMPDEST PUSH1 0x40 MLOAD DUP1 SWAP2 SUB SWAP1 RETURN JUMPDEST CALLVALUE DUP1 ISZERO PUSH2 0x847 JUMPI PUSH1 0x0 DUP1 REVERT JUMPDEST POP PUSH2 0x862 PUSH1 0x4 DUP1 CALLDATASIZE SUB DUP2 ADD SWAP1 PUSH2 0x85D SWAP2 SWAP1 PUSH2 0x809C JUMP JUMPDEST PUSH2 0x2DFB JUMP JUMPDEST PUSH1 0x40 MLOAD PUSH2 0x86F SWAP2 SWAP1 PUSH2 0x8D67 JUMP JUMPDEST PUSH1 0x40 MLOAD DUP1 SWAP2 SUB SWAP1 RETURN JUMPDEST CALLVALUE DUP1 ISZERO PUSH2 0x884 JUMPI PUSH1 0x0 DUP1 REVERT JUMPDEST POP PUSH2 0x89F PUSH1 0x4 DUP1 CALLDATASIZE SUB DUP2 ADD SWAP1 PUSH2 0x89A SWAP2 SWAP1 PUSH2 0x817B JUMP JUMPDEST PUSH2 0x301B JUMP JUMPDEST PUSH1 0x40 MLOAD PUSH2 0x8AC SWAP2 SWAP1 PUSH2 0x7FC6 JUMP JUMPDEST PUSH1 0x40 MLOAD DUP1 SWAP2 SUB SWAP1 RETURN JUMPDEST PUSH2 0x8BD PUSH2 0x3038 JUMP JUMPDEST STOP JUMPDEST CALLVALUE DUP1 ISZERO PUSH2 0x8CB JUMPI PUSH1 0x0 DUP1 REVERT JUMPDEST POP PUSH2 0x8E6 PUSH1 0x4 DUP1 CALLDATASIZE SUB DUP2 ADD SWAP1 PUSH2 0x8E1 SWAP2 SWAP1 PUSH2 0x87ED JUMP JUMPDEST PUSH2 0x3079 JUMP JUMPDEST PUSH1 0x40 MLOAD PUSH2 0x8F3 SWAP2 SWAP1 PUSH2 0x7FC6 JUMP JUMPDEST PUSH1 0x40 MLOAD DUP1 SWAP2 SUB SWAP1 RETURN JUMPDEST CALLVALUE DUP1 ISZERO PUSH2 0x908 JUMPI PUSH1 0x0 DUP1 REVERT JUMPDEST POP PUSH2 0x923 PUSH1 0x4 DUP1 CALLDATASIZE SUB DUP2 ADD SWAP1 PUSH2 0x91E SWAP2 SWAP1 PUSH2 0x8314 JUMP JUMPDEST PUSH2 0x32D3 JUMP JUMPDEST PUSH1 0x40 MLOAD PUSH2 0x930 SWAP2 SWAP1 PUSH2 0x7FC6 JUMP JUMPDEST PUSH1 0x40 MLOAD DUP1 SWAP2 SUB SWAP1 RETURN JUMPDEST CALLVALUE DUP1 ISZERO PUSH2 0x945 JUMPI PUSH1 0x0 DUP1 REVERT JUMPDEST POP PUSH2 0x960 PUSH1 0x4 DUP1 CALLDATASIZE SUB DUP2 ADD SWAP1 PUSH2 0x95B SWAP2 SWAP1 PUSH2 0x817B JUMP JUMPDEST PUSH2 0x32F7 JUMP JUMPDEST PUSH1 0x40 MLOAD PUSH2 0x96D SWAP2 SWAP1 PUSH2 0x8D67 JUMP JUMPDEST PUSH1 0x40 MLOAD DUP1 SWAP2 SUB SWAP1 RETURN JUMPDEST CALLVALUE DUP1 ISZERO PUSH2 0x982 JUMPI PUSH1 0x0 DUP1 REVERT JUMPDEST POP PUSH2 0x98B PUSH2 0x34D8 JUMP JUMPDEST PUSH1 0x40 MLOAD PUSH2 0x998 SWAP2 SWAP1 PUSH2 0x8350 JUMP JUMPDEST PUSH1 0x40 MLOAD DUP1 SWAP2 SUB SWAP1 RETURN JUMPDEST CALLVALUE DUP1 ISZERO PUSH2 0x9AD JUMPI PUSH1 0x0 DUP1 REVERT JUMPDEST POP PUSH2 0x9C8 PUSH1 0x4 DUP1 CALLDATASIZE SUB DUP2 ADD SWAP1 PUSH2 0x9C3 SWAP2 SWAP1 PUSH2 0x862D JUMP JUMPDEST PUSH2 0x34DF JUMP JUMPDEST STOP JUMPDEST PUSH2 0x9E4 PUSH1 0x4 DUP1 CALLDATASIZE SUB DUP2 ADD SWAP1 PUSH2 0x9DF SWAP2 SWAP1 PUSH2 0x8786 JUMP JUMPDEST PUSH2 0x3508 JUMP JUMPDEST STOP JUMPDEST CALLVALUE DUP1 ISZERO PUSH2 0x9F2 JUMPI PUSH1 0x0 DUP1 REVERT JUMPDEST POP PUSH2 0x9FB PUSH2 0x3A68 JUMP JUMPDEST PUSH1 0x40 MLOAD PUSH2 0xA0D SWAP7 SWAP6 SWAP5 SWAP4 SWAP3 SWAP2 SWAP1 PUSH2 0x8D83 JUMP JUMPDEST PUSH1 0x40 MLOAD DUP1 SWAP2 SUB SWAP1 RETURN JUMPDEST CALLVALUE DUP1 ISZERO PUSH2 0xA22 JUMPI PUSH1 0x0 DUP1 REVERT JUMPDEST POP PUSH2 0xA3D PUSH1 0x4 DUP1 CALLDATASIZE SUB DUP2 ADD SWAP1 PUSH2 0xA38 SWAP2 SWAP1 PUSH2 0x8DE4 JUMP JUMPDEST PUSH2 0x3AB2 JUMP JUMPDEST PUSH1 0x40 MLOAD PUSH2 0xA4A SWAP2 SWAP1 PUSH2 0x8081 JUMP JUMPDEST PUSH1 0x40 MLOAD DUP1 SWAP2 SUB SWAP1 RETURN JUMPDEST CALLVALUE DUP1 ISZERO PUSH2 0xA5F JUMPI PUSH1 0x0 DUP1 REVERT JUMPDEST POP PUSH2 0xA7A PUSH1 0x4 DUP1 CALLDATASIZE SUB DUP2 ADD SWAP1 PUSH2 0xA75 SWAP2 SWAP1 PUSH2 0x8E24 JUMP JUMPDEST PUSH2 0x3B46 JUMP JUMPDEST STOP JUMPDEST CALLVALUE DUP1 ISZERO PUSH2 0xA88 JUMPI PUSH1 0x0 DUP1 REVERT JUMPDEST POP PUSH2 0xAA3 PUSH1 0x4 DUP1 CALLDATASIZE SUB DUP2 ADD SWAP1 PUSH2 0xA9E SWAP2 SWAP1 PUSH2 0x8E9F JUMP JUMPDEST PUSH2 0x3C59 JUMP JUMPDEST STOP JUMPDEST PUSH2 0xABF PUSH1 0x4 DUP1 CALLDATASIZE SUB DUP2 ADD SWAP1 PUSH2 0xABA SWAP2 SWAP1 PUSH2 0x8786 JUMP JUMPDEST PUSH2 0x3D05 JUMP JUMPDEST STOP JUMPDEST CALLVALUE DUP1 ISZERO PUSH2 0xACD JUMPI PUSH1 0x0 DUP1 REVERT JUMPDEST POP PUSH2 0xAE8 PUSH1 0x4 DUP1 CALLDATASIZE SUB DUP2 ADD SWAP1 PUSH2 0xAE3 SWAP2 SWAP1 PUSH2 0x8F36 JUMP JUMPDEST PUSH2 0x3D17 JUMP JUMPDEST STOP JUMPDEST PUSH2 0xB04 PUSH1 0x4 DUP1 CALLDATASIZE SUB DUP2 ADD SWAP1 PUSH2 0xAFF SWAP2 SWAP1 PUSH2 0x8B07 JUMP JUMPDEST PUSH2 0x3DB4 JUMP JUMPDEST PUSH1 0x40 MLOAD PUSH2 0xB12 SWAP3 SWAP2 SWAP1 PUSH2 0x8B94 JUMP JUMPDEST PUSH1 0x40 MLOAD DUP1 SWAP2 SUB SWAP1 RETURN JUMPDEST PUSH1 0x0 DUP1 PUSH20 0xFFFFFFFFFFFFFFFFFFFFFFFFFFFFFFFFFFFFFFFF AND DUP4 PUSH20 0xFFFFFFFFFFFFFFFFFFFFFFFFFFFFFFFFFFFFFFFF AND EQ ISZERO PUSH2 0xB8C JUMPI PUSH1 0x40 MLOAD PUSH32 0x8C379A000000000000000000000000000000000000000000000000000000000 DUP2 MSTORE PUSH1 0x4 ADD PUSH2 0xB83 SWAP1 PUSH2 0x8FFB JUMP JUMPDEST PUSH1 0x40 MLOAD DUP1 SWAP2 SUB SWAP1 REVERT JUMPDEST PUSH1 0x0 DUP1 DUP4 DUP2 MSTORE PUSH1 0x20 ADD SWAP1 DUP2 MSTORE PUSH1 0x20 ADD PUSH1 0x0 KECCAK256 PUSH1 0x0 DUP5 PUSH20 0xFFFFFFFFFFFFFFFFFFFFFFFFFFFFFFFFFFFFFFFF AND PUSH20 0xFFFFFFFFFFFFFFFFFFFFFFFFFFFFFFFFFFFFFFFF AND DUP2 MSTORE PUSH1 0x20 ADD SWAP1 DUP2 MSTORE PUSH1 0x20 ADD PUSH1 0x0 KECCAK256 SLOAD SWAP1 POP SWAP3 SWAP2 POP POP JUMP JUMPDEST PUSH1 0x0 PUSH32 0xD9B67A2600000000000000000000000000000000000000000000000000000000 PUSH28 0xFFFFFFFFFFFFFFFFFFFFFFFFFFFFFFFFFFFFFFFFFFFFFFFFFFFFFFFF NOT AND DUP3 PUSH28 0xFFFFFFFFFFFFFFFFFFFFFFFFFFFFFFFFFFFFFFFFFFFFFFFFFFFFFFFF NOT AND EQ DUP1 PUSH2 0xCAF JUMPI POP PUSH32 0xE89341C00000000000000000000000000000000000000000000000000000000 PUSH28 0xFFFFFFFFFFFFFFFFFFFFFFFFFFFFFFFFFFFFFFFFFFFFFFFFFFFFFFFF NOT AND DUP3 PUSH28 0xFFFFFFFFFFFFFFFFFFFFFFFFFFFFFFFFFFFFFFFFFFFFFFFFFFFFFFFF NOT AND EQ JUMPDEST DUP1 PUSH2 0xCBF JUMPI POP PUSH2 0xCBE DUP3 PUSH2 0x4426 JUMP JUMPDEST JUMPDEST SWAP1 POP SWAP2 SWAP1 POP JUMP JUMPDEST DUP1 PUSH1 0x0 PUSH1 0x23 PUSH1 0x0 DUP4 PUSH20 0xFFFFFFFFFFFFFFFFFFFFFFFFFFFFFFFFFFFFFFFF AND PUSH20 0xFFFFFFFFFFFFFFFFFFFFFFFFFFFFFFFFFFFFFFFF AND DUP2 MSTORE PUSH1 0x20 ADD SWAP1 DUP2 MSTORE PUSH1 0x20 ADD PUSH1 0x0 KECCAK256 SLOAD GT DUP1 ISZERO PUSH2 0xD64 JUMPI POP PUSH1 0x26 PUSH1 0x0 SWAP1 SLOAD SWAP1 PUSH2 0x100 EXP SWAP1 DIV PUSH20 0xFFFFFFFFFFFFFFFFFFFFFFFFFFFFFFFFFFFFFFFF AND PUSH20 0xFFFFFFFFFFFFFFFFFFFFFFFFFFFFFFFFFFFFFFFF AND DUP2 PUSH20 0xFFFFFFFFFFFFFFFFFFFFFFFFFFFFFFFFFFFFFFFF AND EQ ISZERO JUMPDEST PUSH1 0x9 PUSH1 0x2 ADD SWAP1 PUSH2 0xDAA JUMPI PUSH1 0x40 MLOAD PUSH32 0x8C379A000000000000000000000000000000000000000000000000000000000 DUP2 MSTORE PUSH1 0x4 ADD PUSH2 0xDA1 SWAP2 SWAP1 PUSH2 0x9111 JUMP JUMPDEST PUSH1 0x40 MLOAD DUP1 SWAP2 SUB SWAP1 REVERT JUMPDEST POP PUSH1 0x0 PUSH1 0x23 PUSH1 0x0 DUP5 PUSH20 0xFFFFFFFFFFFFFFFFFFFFFFFFFFFFFFFFFFFFFFFF AND PUSH20 0xFFFFFFFFFFFFFFFFFFFFFFFFFFFFFFFFFFFFFFFF AND DUP2 MSTORE PUSH1 0x20 ADD SWAP1 DUP2 MSTORE PUSH1 0x20 ADD PUSH1 0x0 KECCAK256 SLOAD SWAP1 POP PUSH1 0x0 PUSH2 0xDFA DUP5 PUSH2 0x44A0 JUMP JUMPDEST SWAP1 POP PUSH1 0x0 PUSH2 0xE29 PUSH1 0x26 PUSH1 0x0 SWAP1 SLOAD SWAP1 PUSH2 0x100 EXP SWAP1 DIV PUSH20 0xFFFFFFFFFFFFFFFFFFFFFFFFFFFFFFFFFFFFFFFF AND PUSH2 0x44A0 JUMP JUMPDEST SWAP1 POP PUSH1 0x0 PUSH1 0x22 DUP5 DUP2 SLOAD DUP2 LT PUSH2 0xE41 JUMPI PUSH2 0xE40 PUSH2 0x9133 JUMP JUMPDEST JUMPDEST SWAP1 PUSH1 0x0 MSTORE PUSH1 0x20 PUSH1 0x0 KECCAK256 SWAP1 PUSH1 0x4 MUL ADD PUSH1 0x2 ADD PUSH1 0x0 SWAP1 SLOAD SWAP1 PUSH2 0x100 EXP SWAP1 DIV PUSH16 0xFFFFFFFFFFFFFFFFFFFFFFFFFFFFFFFF AND PUSH16 0xFFFFFFFFFFFFFFFFFFFFFFFFFFFFFFFF AND DUP4 PUSH2 0xE8C SWAP2 SWAP1 PUSH2 0x9191 JUMP JUMPDEST SWAP1 POP PUSH1 0x0 DUP2 GT ISZERO PUSH2 0xEA5 JUMPI PUSH2 0xEA4 DUP7 CALLER DUP4 PUSH1 0x0 PUSH2 0x4582 JUMP JUMPDEST JUMPDEST PUSH1 0x0 PUSH1 0x22 DUP6 DUP2 SLOAD DUP2 LT PUSH2 0xEBB JUMPI PUSH2 0xEBA PUSH2 0x9133 JUMP JUMPDEST JUMPDEST SWAP1 PUSH1 0x0 MSTORE PUSH1 0x20 PUSH1 0x0 KECCAK256 SWAP1 PUSH1 0x4 MUL ADD PUSH1 0x2 ADD PUSH1 0x10 SWAP1 SLOAD SWAP1 PUSH2 0x100 EXP SWAP1 DIV PUSH16 0xFFFFFFFFFFFFFFFFFFFFFFFFFFFFFFFF AND PUSH16 0xFFFFFFFFFFFFFFFFFFFFFFFFFFFFFFFF AND DUP4 PUSH2 0xF06 SWAP2 SWAP1 PUSH2 0x9191 JUMP JUMPDEST SWAP1 POP PUSH1 0x0 DUP2 GT ISZERO PUSH2 0xF41 JUMPI PUSH2 0xF40 PUSH1 0x26 PUSH1 0x0 SWAP1 SLOAD SWAP1 PUSH2 0x100 EXP SWAP1 DIV PUSH20 0xFFFFFFFFFFFFFFFFFFFFFFFFFFFFFFFFFFFFFFFF AND CALLER DUP4 PUSH1 0x0 PUSH2 0x4582 JUMP JUMPDEST JUMPDEST POP POP POP POP POP POP POP JUMP JUMPDEST PUSH1 0x0 DUP1 SHL PUSH2 0xF5F DUP2 PUSH2 0xF5A PUSH2 0x462D JUMP JUMPDEST PUSH2 0x4635 JUMP JUMPDEST PUSH1 0x0 JUMPDEST DUP4 DUP4 SWAP1 POP DUP2 LT ISZERO PUSH2 0xFD0 JUMPI PUSH2 0xFBD DUP5 DUP5 DUP4 DUP2 DUP2 LT PUSH2 0xF83 JUMPI PUSH2 0xF82 PUSH2 0x9133 JUMP JUMPDEST JUMPDEST SWAP1 POP PUSH1 0x40 MUL ADD PUSH1 0x0 ADD CALLDATALOAD DUP6 DUP6 DUP5 DUP2 DUP2 LT PUSH2 0xFA0 JUMPI PUSH2 0xF9F PUSH2 0x9133 JUMP JUMPDEST JUMPDEST SWAP1 POP PUSH1 0x40 MUL ADD PUSH1 0x20 ADD PUSH1 0x20 DUP2 ADD SWAP1 PUSH2 0xFB8 SWAP2 SWAP1 PUSH2 0x809C JUMP JUMPDEST PUSH2 0x46D2 JUMP JUMPDEST DUP1 DUP1 PUSH2 0xFC8 SWAP1 PUSH2 0x91C5 JUMP JUMPDEST SWAP2 POP POP PUSH2 0xF62 JUMP JUMPDEST POP POP POP POP JUMP JUMPDEST PUSH1 0x0 PUSH20 0xDEF1FAC7BF08F173D286BBBDCBEEADE695129840 PUSH20 0xFFFFFFFFFFFFFFFFFFFFFFFFFFFFFFFFFFFFFFFF AND PUSH4 0x6FB1A07 DUP4 PUSH1 0x40 MLOAD DUP3 PUSH4 0xFFFFFFFF AND PUSH1 0xE0 SHL DUP2 MSTORE PUSH1 0x4 ADD PUSH2 0x1025 SWAP2 SWAP1 PUSH2 0x7FC6 JUMP JUMPDEST PUSH1 0x20 PUSH1 0x40 MLOAD DUP1 DUP4 SUB DUP2 DUP7 GAS STATICCALL ISZERO DUP1 ISZERO PUSH2 0x1042 JUMPI RETURNDATASIZE PUSH1 0x0 DUP1 RETURNDATACOPY RETURNDATASIZE PUSH1 0x0 REVERT JUMPDEST POP POP POP POP PUSH1 0x40 MLOAD RETURNDATASIZE PUSH1 0x1F NOT PUSH1 0x1F DUP3 ADD AND DUP3 ADD DUP1 PUSH1 0x40 MSTORE POP DUP2 ADD SWAP1 PUSH2 0x1066 SWAP2 SWAP1 PUSH2 0x9223 JUMP JUMPDEST SWAP1 POP SWAP2 SWAP1 POP JUMP JUMPDEST PUSH1 0x60 PUSH1 0x6 DUP1 SLOAD PUSH2 0x107C SWAP1 PUSH2 0x904A JUMP JUMPDEST DUP1 PUSH1 0x1F ADD PUSH1 0x20 DUP1 SWAP2 DIV MUL PUSH1 0x20 ADD PUSH1 0x40 MLOAD SWAP1 DUP2 ADD PUSH1 0x40 MSTORE DUP1 SWAP3 SWAP2 SWAP1 DUP2 DUP2 MSTORE PUSH1 0x20 ADD DUP3 DUP1 SLOAD PUSH2 0x10A8 SWAP1 PUSH2 0x904A JUMP JUMPDEST DUP1 ISZERO PUSH2 0x10F5 JUMPI DUP1 PUSH1 0x1F LT PUSH2 0x10CA JUMPI PUSH2 0x100 DUP1 DUP4 SLOAD DIV MUL DUP4 MSTORE SWAP2 PUSH1 0x20 ADD SWAP2 PUSH2 0x10F5 JUMP JUMPDEST DUP3 ADD SWAP2 SWAP1 PUSH1 0x0 MSTORE PUSH1 0x20 PUSH1 0x0 KECCAK256 SWAP1 JUMPDEST DUP2 SLOAD DUP2 MSTORE SWAP1 PUSH1 0x1 ADD SWAP1 PUSH1 0x20 ADD DUP1 DUP4 GT PUSH2 0x10D8 JUMPI DUP3 SWAP1 SUB PUSH1 0x1F AND DUP3 ADD SWAP2 JUMPDEST POP POP POP POP POP SWAP1 POP SWAP1 JUMP JUMPDEST PUSH1 0x0 DUP1 SHL PUSH2 0x1114 DUP2 PUSH2 0x110F PUSH2 0x462D JUMP JUMPDEST PUSH2 0x4635 JUMP JUMPDEST DUP2 PUSH1 0x40 ADD CALLDATALOAD PUSH1 0x0 LT DUP1 ISZERO PUSH2 0x112F JUMPI POP DUP2 PUSH1 0x60 ADD CALLDATALOAD DUP3 PUSH1 0x40 ADD CALLDATALOAD LT JUMPDEST DUP1 ISZERO PUSH2 0x1140 JUMPI POP PUSH2 0x1F4 DUP3 PUSH1 0x60 ADD CALLDATALOAD LT JUMPDEST PUSH1 0x9 PUSH1 0x17 ADD SWAP1 PUSH2 0x1186 JUMPI PUSH1 0x40 MLOAD PUSH32 0x8C379A000000000000000000000000000000000000000000000000000000000 DUP2 MSTORE PUSH1 0x4 ADD PUSH2 0x117D SWAP2 SWAP1 PUSH2 0x9111 JUMP JUMPDEST PUSH1 0x40 MLOAD DUP1 SWAP2 SUB SWAP1 REVERT JUMPDEST POP DUP2 PUSH1 0xA0 ADD CALLDATALOAD DUP3 PUSH1 0x80 ADD CALLDATALOAD LT PUSH1 0x9 PUSH1 0x18 ADD SWAP1 PUSH2 0x11D8 JUMPI PUSH1 0x40 MLOAD PUSH32 0x8C379A000000000000000000000000000000000000000000000000000000000 DUP2 MSTORE PUSH1 0x4 ADD PUSH2 0x11CF SWAP2 SWAP1 PUSH2 0x9111 JUMP JUMPDEST PUSH1 0x40 MLOAD DUP1 SWAP2 SUB SWAP1 REVERT JUMPDEST POP DUP2 PUSH1 0x2A DUP2 DUP2 PUSH2 0x11E8 SWAP2 SWAP1 PUSH2 0x9497 JUMP JUMPDEST SWAP1 POP POP POP POP JUMP JUMPDEST PUSH1 0x60 PUSH1 0x8 DUP3 PUSH1 0x40 MLOAD PUSH1 0x20 ADD PUSH2 0x1205 SWAP3 SWAP2 SWAP1 PUSH2 0x959C JUMP JUMPDEST PUSH1 0x40 MLOAD PUSH1 0x20 DUP2 DUP4 SUB SUB DUP2 MSTORE SWAP1 PUSH1 0x40 MSTORE SWAP1 POP SWAP2 SWAP1 POP JUMP JUMPDEST PUSH1 0x0 DUP1 PUSH1 0x0 JUMPDEST PUSH1 0x0 PUSH1 0x3 PUSH1 0x0 DUP5 PUSH2 0x1231 SWAP1 PUSH2 0x91C5 JUMP JUMPDEST SWAP5 POP DUP5 DUP2 MSTORE PUSH1 0x20 ADD SWAP1 DUP2 MSTORE PUSH1 0x20 ADD PUSH1 0x0 KECCAK256 SLOAD GT ISZERO PUSH2 0x126F JUMPI PUSH1 0x3 PUSH1 0x0 DUP4 DUP2 MSTORE PUSH1 0x20 ADD SWAP1 DUP2 MSTORE PUSH1 0x20 ADD PUSH1 0x0 KECCAK256 SLOAD DUP2 PUSH2 0x1268 SWAP2 SWAP1 PUSH2 0x95CF JUMP JUMPDEST SWAP1 POP PUSH2 0x1221 JUMP JUMPDEST DUP1 SWAP3 POP POP POP SWAP1 JUMP JUMPDEST PUSH1 0x0 PUSH1 0x4 PUSH1 0x0 DUP4 DUP2 MSTORE PUSH1 0x20 ADD SWAP1 DUP2 MSTORE PUSH1 0x20 ADD PUSH1 0x0 KECCAK256 PUSH1 0x1 ADD SLOAD SWAP1 POP SWAP2 SWAP1 POP JUMP JUMPDEST POP POP POP POP POP JUMP JUMPDEST PUSH2 0x12A7 DUP3 PUSH2 0x1277 JUMP JUMPDEST PUSH2 0x12B8 DUP2 PUSH2 0x12B3 PUSH2 0x462D JUMP JUMPDEST PUSH2 0x4635 JUMP JUMPDEST PUSH2 0x12C2 DUP4 DUP4 PUSH2 0x46E0 JUMP JUMPDEST POP POP POP JUMP JUMPDEST PUSH1 0x0 PUSH1 0x12 SWAP1 POP SWAP1 JUMP JUMPDEST PUSH2 0x12D8 PUSH2 0x462D JUMP JUMPDEST PUSH20 0xFFFFFFFFFFFFFFFFFFFFFFFFFFFFFFFFFFFFFFFF AND DUP2 PUSH20 0xFFFFFFFFFFFFFFFFFFFFFFFFFFFFFFFFFFFFFFFF AND EQ PUSH2 0x1345 JUMPI PUSH1 0x40 MLOAD PUSH32 0x8C379A000000000000000000000000000000000000000000000000000000000 DUP2 MSTORE PUSH1 0x4 ADD PUSH2 0x133C SWAP1 PUSH2 0x9697 JUMP JUMPDEST PUSH1 0x40 MLOAD DUP1 SWAP2 SUB SWAP1 REVERT JUMPDEST PUSH2 0x134F DUP3 DUP3 PUSH2 0x4714 JUMP JUMPDEST POP POP JUMP JUMPDEST PUSH1 0x0 DUP1 SHL PUSH2 0x1368 DUP2 PUSH2 0x1363 PUSH2 0x462D JUMP JUMPDEST PUSH2 0x4635 JUMP JUMPDEST DUP3 PUSH1 0x6 SWAP1 DUP1 MLOAD SWAP1 PUSH1 0x20 ADD SWAP1 PUSH2 0x137E SWAP3 SWAP2 SWAP1 PUSH2 0x7CE5 JUMP JUMPDEST POP DUP2 PUSH1 0x7 SWAP1 DUP1 MLOAD SWAP1 PUSH1 0x20 ADD SWAP1 PUSH2 0x1395 SWAP3 SWAP2 SWAP1 PUSH2 0x7CE5 JUMP JUMPDEST POP POP POP POP JUMP JUMPDEST DUP4 PUSH1 0x0 PUSH1 0x23 PUSH1 0x0 DUP4 PUSH20 0xFFFFFFFFFFFFFFFFFFFFFFFFFFFFFFFFFFFFFFFF AND PUSH20 0xFFFFFFFFFFFFFFFFFFFFFFFFFFFFFFFFFFFFFFFF AND DUP2 MSTORE PUSH1 0x20 ADD SWAP1 DUP2 MSTORE PUSH1 0x20 ADD PUSH1 0x0 KECCAK256 SLOAD GT DUP1 ISZERO PUSH2 0x1439 JUMPI POP PUSH1 0x26 PUSH1 0x0 SWAP1 SLOAD SWAP1 PUSH2 0x100 EXP SWAP1 DIV PUSH20 0xFFFFFFFFFFFFFFFFFFFFFFFFFFFFFFFFFFFFFFFF AND PUSH20 0xFFFFFFFFFFFFFFFFFFFFFFFFFFFFFFFFFFFFFFFF AND DUP2 PUSH20 0xFFFFFFFFFFFFFFFFFFFFFFFFFFFFFFFFFFFFFFFF AND EQ ISZERO JUMPDEST PUSH1 0x9 PUSH1 0x2 ADD SWAP1 PUSH2 0x147F JUMPI PUSH1 0x40 MLOAD PUSH32 0x8C379A000000000000000000000000000000000000000000000000000000000 DUP2 MSTORE PUSH1 0x4 ADD PUSH2 0x1476 SWAP2 SWAP1 PUSH2 0x9111 JUMP JUMPDEST PUSH1 0x40 MLOAD DUP1 SWAP2 SUB SWAP1 REVERT JUMPDEST POP DUP3 DUP1 TIMESTAMP GT ISZERO PUSH1 0x9 PUSH1 0x3 ADD SWAP1 PUSH2 0x14CB JUMPI PUSH1 0x40 MLOAD PUSH32 0x8C379A000000000000000000000000000000000000000000000000000000000 DUP2 MSTORE PUSH1 0x4 ADD PUSH2 0x14C2 SWAP2 SWAP1 PUSH2 0x9111 JUMP JUMPDEST PUSH1 0x40 MLOAD DUP1 SWAP2 SUB SWAP1 REVERT JUMPDEST POP PUSH1 0x0 PUSH1 0x23 PUSH1 0x0 DUP9 PUSH20 0xFFFFFFFFFFFFFFFFFFFFFFFFFFFFFFFFFFFFFFFF AND PUSH20 0xFFFFFFFFFFFFFFFFFFFFFFFFFFFFFFFFFFFFFFFF AND DUP2 MSTORE PUSH1 0x20 ADD SWAP1 DUP2 MSTORE PUSH1 0x20 ADD PUSH1 0x0 KECCAK256 SLOAD SWAP1 POP PUSH2 0x151B DUP8 CALLER DUP9 PUSH2 0x4748 JUMP JUMPDEST PUSH1 0x0 PUSH2 0x1526 DUP9 PUSH2 0x44A0 JUMP JUMPDEST SWAP1 POP PUSH1 0x22 DUP3 DUP2 SLOAD DUP2 LT PUSH2 0x153C JUMPI PUSH2 0x153B PUSH2 0x9133 JUMP JUMPDEST JUMPDEST SWAP1 PUSH1 0x0 MSTORE PUSH1 0x20 PUSH1 0x0 KECCAK256 SWAP1 PUSH1 0x4 MUL ADD PUSH1 0x2 ADD PUSH1 0x0 SWAP1 SLOAD SWAP1 PUSH2 0x100 EXP SWAP1 DIV PUSH16 0xFFFFFFFFFFFFFFFFFFFFFFFFFFFFFFFF AND PUSH16 0xFFFFFFFFFFFFFFFFFFFFFFFFFFFFFFFF AND DUP2 PUSH2 0x1587 SWAP2 SWAP1 PUSH2 0x9191 JUMP JUMPDEST SWAP7 POP PUSH1 0x0 DUP8 GT PUSH1 0x9 PUSH1 0x5 ADD SWAP1 PUSH2 0x15D3 JUMPI PUSH1 0x40 MLOAD PUSH32 0x8C379A000000000000000000000000000000000000000000000000000000000 DUP2 MSTORE PUSH1 0x4 ADD PUSH2 0x15CA SWAP2 SWAP1 PUSH2 0x9111 JUMP JUMPDEST PUSH1 0x40 MLOAD DUP1 SWAP2 SUB SWAP1 REVERT JUMPDEST POP PUSH1 0x0 PUSH2 0x1601 PUSH1 0x26 PUSH1 0x0 SWAP1 SLOAD SWAP1 PUSH2 0x100 EXP SWAP1 DIV PUSH20 0xFFFFFFFFFFFFFFFFFFFFFFFFFFFFFFFFFFFFFFFF AND PUSH2 0x44A0 JUMP JUMPDEST SWAP1 POP PUSH1 0x0 PUSH1 0x24 SLOAD DUP3 PUSH2 0x1613 SWAP2 SWAP1 PUSH2 0x9191 JUMP JUMPDEST SWAP1 POP PUSH1 0x0 PUSH2 0x16D1 PUSH1 0x22 DUP7 DUP2 SLOAD DUP2 LT PUSH2 0x162E JUMPI PUSH2 0x162D PUSH2 0x9133 JUMP JUMPDEST JUMPDEST SWAP1 PUSH1 0x0 MSTORE PUSH1 0x20 PUSH1 0x0 KECCAK256 SWAP1 PUSH1 0x4 MUL ADD PUSH1 0x2 ADD PUSH1 0x10 SWAP1 SLOAD SWAP1 PUSH2 0x100 EXP SWAP1 DIV PUSH16 0xFFFFFFFFFFFFFFFFFFFFFFFFFFFFFFFF AND PUSH16 0xFFFFFFFFFFFFFFFFFFFFFFFFFFFFFFFF AND PUSH1 0x22 DUP8 DUP2 SLOAD DUP2 LT PUSH2 0x1682 JUMPI PUSH2 0x1681 PUSH2 0x9133 JUMP JUMPDEST JUMPDEST SWAP1 PUSH1 0x0 MSTORE PUSH1 0x20 PUSH1 0x0 KECCAK256 SWAP1 PUSH1 0x4 MUL ADD PUSH1 0x2 ADD PUSH1 0x0 SWAP1 SLOAD SWAP1 PUSH2 0x100 EXP SWAP1 DIV PUSH16 0xFFFFFFFFFFFFFFFFFFFFFFFFFFFFFFFF AND PUSH16 0xFFFFFFFFFFFFFFFFFFFFFFFFFFFFFFFF AND PUSH2 0x16CC SWAP2 SWAP1 PUSH2 0x96B7 JUMP JUMPDEST PUSH2 0x4918 JUMP JUMPDEST SWAP1 POP PUSH1 0x0 PUSH2 0x1746 PUSH1 0x22 DUP8 DUP2 SLOAD DUP2 LT PUSH2 0x16EC JUMPI PUSH2 0x16EB PUSH2 0x9133 JUMP JUMPDEST JUMPDEST SWAP1 PUSH1 0x0 MSTORE PUSH1 0x20 PUSH1 0x0 KECCAK256 SWAP1 PUSH1 0x4 MUL ADD PUSH1 0x3 ADD PUSH1 0x0 SWAP1 SLOAD SWAP1 PUSH2 0x100 EXP SWAP1 DIV PUSH16 0xFFFFFFFFFFFFFFFFFFFFFFFFFFFFFFFF AND PUSH16 0xFFFFFFFFFFFFFFFFFFFFFFFFFFFFFFFF AND DUP4 PUSH1 0x3 PUSH1 0x0 DUP11 DUP2 MSTORE PUSH1 0x20 ADD SWAP1 DUP2 MSTORE PUSH1 0x20 ADD PUSH1 0x0 KECCAK256 SLOAD PUSH2 0x4975 JUMP JUMPDEST SWAP1 POP PUSH1 0x0 DUP2 GT ISZERO PUSH2 0x1792 JUMPI PUSH2 0x1791 PUSH1 0x2A PUSH1 0x0 ADD PUSH1 0x0 SWAP1 SLOAD SWAP1 PUSH2 0x100 EXP SWAP1 DIV PUSH20 0xFFFFFFFFFFFFFFFFFFFFFFFFFFFFFFFFFFFFFFFF AND DUP8 DUP4 PUSH1 0x40 MLOAD DUP1 PUSH1 0x20 ADD PUSH1 0x40 MSTORE DUP1 PUSH1 0x0 DUP2 MSTORE POP PUSH2 0x49FB JUMP JUMPDEST JUMPDEST POP POP PUSH1 0x0 PUSH1 0x22 DUP6 DUP2 SLOAD DUP2 LT PUSH2 0x17AA JUMPI PUSH2 0x17A9 PUSH2 0x9133 JUMP JUMPDEST JUMPDEST SWAP1 PUSH1 0x0 MSTORE PUSH1 0x20 PUSH1 0x0 KECCAK256 SWAP1 PUSH1 0x4 MUL ADD PUSH1 0x2 ADD PUSH1 0x0 SWAP1 SLOAD SWAP1 PUSH2 0x100 EXP SWAP1 DIV PUSH16 0xFFFFFFFFFFFFFFFFFFFFFFFFFFFFFFFF AND PUSH16 0xFFFFFFFFFFFFFFFFFFFFFFFFFFFFFFFF AND PUSH1 0x3 PUSH1 0x0 DUP8 DUP2 MSTORE PUSH1 0x20 ADD SWAP1 DUP2 MSTORE PUSH1 0x20 ADD PUSH1 0x0 KECCAK256 SLOAD DUP12 PUSH2 0x1809 SWAP2 SWAP1 PUSH2 0x96B7 JUMP JUMPDEST PUSH2 0x1813 SWAP2 SWAP1 PUSH2 0x9740 JUMP JUMPDEST SWAP1 POP PUSH2 0x1830 DUP9 DUP7 DUP4 PUSH1 0x40 MLOAD DUP1 PUSH1 0x20 ADD PUSH1 0x40 MSTORE DUP1 PUSH1 0x0 DUP2 MSTORE POP PUSH2 0x49FB JUMP JUMPDEST PUSH1 0x0 PUSH1 0x22 DUP7 DUP2 SLOAD DUP2 LT PUSH2 0x1846 JUMPI PUSH2 0x1845 PUSH2 0x9133 JUMP JUMPDEST JUMPDEST SWAP1 PUSH1 0x0 MSTORE PUSH1 0x20 PUSH1 0x0 KECCAK256 SWAP1 PUSH1 0x4 MUL ADD PUSH1 0x2 ADD PUSH1 0x0 SWAP1 SLOAD SWAP1 PUSH2 0x100 EXP SWAP1 DIV PUSH16 0xFFFFFFFFFFFFFFFFFFFFFFFFFFFFFFFF AND PUSH16 0xFFFFFFFFFFFFFFFFFFFFFFFFFFFFFFFF AND PUSH1 0x22 DUP8 DUP2 SLOAD DUP2 LT PUSH2 0x189A JUMPI PUSH2 0x1899 PUSH2 0x9133 JUMP JUMPDEST JUMPDEST SWAP1 PUSH1 0x0 MSTORE PUSH1 0x20 PUSH1 0x0 KECCAK256 SWAP1 PUSH1 0x4 MUL ADD PUSH1 0x2 ADD PUSH1 0x10 SWAP1 SLOAD SWAP1 PUSH2 0x100 EXP SWAP1 DIV PUSH16 0xFFFFFFFFFFFFFFFFFFFFFFFFFFFFFFFF AND PUSH16 0xFFFFFFFFFFFFFFFFFFFFFFFFFFFFFFFF AND DUP13 PUSH2 0x18E5 SWAP2 SWAP1 PUSH2 0x96B7 JUMP JUMPDEST PUSH2 0x18EF SWAP2 SWAP1 PUSH2 0x9740 JUMP JUMPDEST SWAP1 POP PUSH1 0x0 DUP2 GT PUSH1 0x9 PUSH1 0x14 ADD SWAP1 PUSH2 0x193B JUMPI PUSH1 0x40 MLOAD PUSH32 0x8C379A000000000000000000000000000000000000000000000000000000000 DUP2 MSTORE PUSH1 0x4 ADD PUSH2 0x1932 SWAP2 SWAP1 PUSH2 0x9111 JUMP JUMPDEST PUSH1 0x40 MLOAD DUP1 SWAP2 SUB SWAP1 REVERT JUMPDEST POP PUSH1 0x26 PUSH1 0x0 SWAP1 SLOAD SWAP1 PUSH2 0x100 EXP SWAP1 DIV PUSH20 0xFFFFFFFFFFFFFFFFFFFFFFFFFFFFFFFFFFFFFFFF AND PUSH20 0xFFFFFFFFFFFFFFFFFFFFFFFFFFFFFFFFFFFFFFFF AND PUSH4 0xBB9FF5D ADDRESS DUP4 PUSH1 0x40 MLOAD DUP4 PUSH4 0xFFFFFFFF AND PUSH1 0xE0 SHL DUP2 MSTORE PUSH1 0x4 ADD PUSH2 0x1999 SWAP3 SWAP2 SWAP1 PUSH2 0x9771 JUMP JUMPDEST PUSH1 0x0 PUSH1 0x40 MLOAD DUP1 DUP4 SUB DUP2 PUSH1 0x0 DUP8 DUP1 EXTCODESIZE ISZERO DUP1 ISZERO PUSH2 0x19B3 JUMPI PUSH1 0x0 DUP1 REVERT JUMPDEST POP GAS CALL ISZERO DUP1 ISZERO PUSH2 0x19C7 JUMPI RETURNDATASIZE PUSH1 0x0 DUP1 RETURNDATACOPY RETURNDATASIZE PUSH1 0x0 REVERT JUMPDEST POP POP POP POP DUP1 DUP4 PUSH1 0x24 SLOAD PUSH2 0x19DA SWAP2 SWAP1 PUSH2 0x95CF JUMP JUMPDEST PUSH2 0x19E4 SWAP2 SWAP1 PUSH2 0x95CF JUMP JUMPDEST PUSH1 0x24 DUP2 SWAP1 SSTORE POP DUP11 PUSH1 0x22 DUP8 DUP2 SLOAD DUP2 LT PUSH2 0x19FF JUMPI PUSH2 0x19FE PUSH2 0x9133 JUMP JUMPDEST JUMPDEST SWAP1 PUSH1 0x0 MSTORE PUSH1 0x20 PUSH1 0x0 KECCAK256 SWAP1 PUSH1 0x4 MUL ADD PUSH1 0x2 ADD PUSH1 0x0 SWAP1 SLOAD SWAP1 PUSH2 0x100 EXP SWAP1 DIV PUSH16 0xFFFFFFFFFFFFFFFFFFFFFFFFFFFFFFFF AND PUSH2 0x1A37 SWAP2 SWAP1 PUSH2 0x979A JUMP JUMPDEST PUSH1 0x22 DUP8 DUP2 SLOAD DUP2 LT PUSH2 0x1A4B JUMPI PUSH2 0x1A4A PUSH2 0x9133 JUMP JUMPDEST JUMPDEST SWAP1 PUSH1 0x0 MSTORE PUSH1 0x20 PUSH1 0x0 KECCAK256 SWAP1 PUSH1 0x4 MUL ADD PUSH1 0x2 ADD PUSH1 0x0 PUSH2 0x100 EXP DUP2 SLOAD DUP2 PUSH16 0xFFFFFFFFFFFFFFFFFFFFFFFFFFFFFFFF MUL NOT AND SWAP1 DUP4 PUSH16 0xFFFFFFFFFFFFFFFFFFFFFFFFFFFFFFFF AND MUL OR SWAP1 SSTORE POP DUP1 DUP4 PUSH2 0x1A9E SWAP2 SWAP1 PUSH2 0x95CF JUMP JUMPDEST PUSH1 0x22 DUP8 DUP2 SLOAD DUP2 LT PUSH2 0x1AB2 JUMPI PUSH2 0x1AB1 PUSH2 0x9133 JUMP JUMPDEST JUMPDEST SWAP1 PUSH1 0x0 MSTORE PUSH1 0x20 PUSH1 0x0 KECCAK256 SWAP1 PUSH1 0x4 MUL ADD PUSH1 0x2 ADD PUSH1 0x10 SWAP1 SLOAD SWAP1 PUSH2 0x100 EXP SWAP1 DIV PUSH16 0xFFFFFFFFFFFFFFFFFFFFFFFFFFFFFFFF AND PUSH2 0x1AEA SWAP2 SWAP1 PUSH2 0x979A JUMP JUMPDEST PUSH1 0x22 DUP8 DUP2 SLOAD DUP2 LT PUSH2 0x1AFE JUMPI PUSH2 0x1AFD PUSH2 0x9133 JUMP JUMPDEST JUMPDEST SWAP1 PUSH1 0x0 MSTORE PUSH1 0x20 PUSH1 0x0 KECCAK256 SWAP1 PUSH1 0x4 MUL ADD PUSH1 0x2 ADD PUSH1 0x10 PUSH2 0x100 EXP DUP2 SLOAD DUP2 PUSH16 0xFFFFFFFFFFFFFFFFFFFFFFFFFFFFFFFF MUL NOT AND SWAP1 DUP4 PUSH16 0xFFFFFFFFFFFFFFFFFFFFFFFFFFFFFFFF AND MUL OR SWAP1 SSTORE POP PUSH2 0x1BFF PUSH1 0x22 DUP8 DUP2 SLOAD DUP2 LT PUSH2 0x1B5C JUMPI PUSH2 0x1B5B PUSH2 0x9133 JUMP JUMPDEST JUMPDEST SWAP1 PUSH1 0x0 MSTORE PUSH1 0x20 PUSH1 0x0 KECCAK256 SWAP1 PUSH1 0x4 MUL ADD PUSH1 0x2 ADD PUSH1 0x10 SWAP1 SLOAD SWAP1 PUSH2 0x100 EXP SWAP1 DIV PUSH16 0xFFFFFFFFFFFFFFFFFFFFFFFFFFFFFFFF AND PUSH16 0xFFFFFFFFFFFFFFFFFFFFFFFFFFFFFFFF AND PUSH1 0x22 DUP9 DUP2 SLOAD DUP2 LT PUSH2 0x1BB0 JUMPI PUSH2 0x1BAF PUSH2 0x9133 JUMP JUMPDEST JUMPDEST SWAP1 PUSH1 0x0 MSTORE PUSH1 0x20 PUSH1 0x0 KECCAK256 SWAP1 PUSH1 0x4 MUL ADD PUSH1 0x2 ADD PUSH1 0x0 SWAP1 SLOAD SWAP1 PUSH2 0x100 EXP SWAP1 DIV PUSH16 0xFFFFFFFFFFFFFFFFFFFFFFFFFFFFFFFF AND PUSH16 0xFFFFFFFFFFFFFFFFFFFFFFFFFFFFFFFF AND PUSH2 0x1BFA SWAP2 SWAP1 PUSH2 0x96B7 JUMP JUMPDEST PUSH2 0x4918 JUMP JUMPDEST PUSH1 0x22 DUP8 DUP2 SLOAD DUP2 LT PUSH2 0x1C13 JUMPI PUSH2 0x1C12 PUSH2 0x9133 JUMP JUMPDEST JUMPDEST SWAP1 PUSH1 0x0 MSTORE PUSH1 0x20 PUSH1 0x0 KECCAK256 SWAP1 PUSH1 0x4 MUL ADD PUSH1 0x3 ADD PUSH1 0x0 PUSH2 0x100 EXP DUP2 SLOAD DUP2 PUSH16 0xFFFFFFFFFFFFFFFFFFFFFFFFFFFFFFFF MUL NOT AND SWAP1 DUP4 PUSH16 0xFFFFFFFFFFFFFFFFFFFFFFFFFFFFFFFF AND MUL OR SWAP1 SSTORE POP PUSH32 0x64B83944E79C3CE8D4C297411DE637C3E102D064677AAC0C163976EBDCD6F50E DUP13 DUP13 DUP4 DUP6 PUSH1 0x40 MLOAD PUSH2 0x1C8F SWAP5 SWAP4 SWAP3 SWAP2 SWAP1 PUSH2 0x97E0 JUMP JUMPDEST PUSH1 0x40 MLOAD DUP1 SWAP2 SUB SWAP1 LOG1 POP POP POP POP POP POP POP POP POP POP POP POP JUMP JUMPDEST PUSH1 0x0 PUSH1 0x26 PUSH1 0x0 SWAP1 SLOAD SWAP1 PUSH2 0x100 EXP SWAP1 DIV PUSH20 0xFFFFFFFFFFFFFFFFFFFFFFFFFFFFFFFFFFFFFFFF AND PUSH20 0xFFFFFFFFFFFFFFFFFFFFFFFFFFFFFFFFFFFFFFFF AND DUP5 PUSH20 0xFFFFFFFFFFFFFFFFFFFFFFFFFFFFFFFFFFFFFFFF AND EQ ISZERO DUP1 ISZERO PUSH2 0x1D52 JUMPI POP PUSH1 0x26 PUSH1 0x0 SWAP1 SLOAD SWAP1 PUSH2 0x100 EXP SWAP1 DIV PUSH20 0xFFFFFFFFFFFFFFFFFFFFFFFFFFFFFFFFFFFFFFFF AND PUSH20 0xFFFFFFFFFFFFFFFFFFFFFFFFFFFFFFFFFFFFFFFF AND DUP4 PUSH20 0xFFFFFFFFFFFFFFFFFFFFFFFFFFFFFFFFFFFFFFFF AND EQ JUMPDEST ISZERO PUSH2 0x1D68 JUMPI PUSH2 0x1D61 DUP5 DUP4 PUSH2 0x4B91 JUMP JUMPDEST SWAP1 POP PUSH2 0x1EF8 JUMP JUMPDEST PUSH1 0x26 PUSH1 0x0 SWAP1 SLOAD SWAP1 PUSH2 0x100 EXP SWAP1 DIV PUSH20 0xFFFFFFFFFFFFFFFFFFFFFFFFFFFFFFFFFFFFFFFF AND PUSH20 0xFFFFFFFFFFFFFFFFFFFFFFFFFFFFFFFFFFFFFFFF AND DUP5 PUSH20 0xFFFFFFFFFFFFFFFFFFFFFFFFFFFFFFFFFFFFFFFF AND EQ DUP1 ISZERO PUSH2 0x1E13 JUMPI POP PUSH1 0x26 PUSH1 0x0 SWAP1 SLOAD SWAP1 PUSH2 0x100 EXP SWAP1 DIV PUSH20 0xFFFFFFFFFFFFFFFFFFFFFFFFFFFFFFFFFFFFFFFF AND PUSH20 0xFFFFFFFFFFFFFFFFFFFFFFFFFFFFFFFFFFFFFFFF AND DUP4 PUSH20 0xFFFFFFFFFFFFFFFFFFFFFFFFFFFFFFFFFFFFFFFF AND EQ ISZERO JUMPDEST ISZERO PUSH2 0x1E29 JUMPI PUSH2 0x1E22 DUP4 DUP4 PUSH2 0x4D80 JUMP JUMPDEST SWAP1 POP PUSH2 0x1EF7 JUMP JUMPDEST PUSH1 0x26 PUSH1 0x0 SWAP1 SLOAD SWAP1 PUSH2 0x100 EXP SWAP1 DIV PUSH20 0xFFFFFFFFFFFFFFFFFFFFFFFFFFFFFFFFFFFFFFFF AND PUSH20 0xFFFFFFFFFFFFFFFFFFFFFFFFFFFFFFFFFFFFFFFF AND DUP5 PUSH20 0xFFFFFFFFFFFFFFFFFFFFFFFFFFFFFFFFFFFFFFFF AND EQ ISZERO DUP1 ISZERO PUSH2 0x1ED5 JUMPI POP PUSH1 0x26 PUSH1 0x0 SWAP1 SLOAD SWAP1 PUSH2 0x100 EXP SWAP1 DIV PUSH20 0xFFFFFFFFFFFFFFFFFFFFFFFFFFFFFFFFFFFFFFFF AND PUSH20 0xFFFFFFFFFFFFFFFFFFFFFFFFFFFFFFFFFFFFFFFF AND DUP5 PUSH20 0xFFFFFFFFFFFFFFFFFFFFFFFFFFFFFFFFFFFFFFFF AND EQ ISZERO JUMPDEST ISZERO PUSH2 0x1EF6 JUMPI PUSH1 0x0 PUSH2 0x1EE6 DUP6 DUP5 PUSH2 0x4B91 JUMP JUMPDEST SWAP1 POP PUSH2 0x1EF2 DUP5 DUP3 PUSH2 0x4D80 JUMP JUMPDEST SWAP2 POP POP JUMPDEST JUMPDEST JUMPDEST SWAP4 SWAP3 POP POP POP JUMP JUMPDEST PUSH1 0x60 DUP2 MLOAD DUP4 MLOAD EQ PUSH2 0x1F45 JUMPI PUSH1 0x40 MLOAD PUSH32 0x8C379A000000000000000000000000000000000000000000000000000000000 DUP2 MSTORE PUSH1 0x4 ADD PUSH2 0x1F3C SWAP1 PUSH2 0x9897 JUMP JUMPDEST PUSH1 0x40 MLOAD DUP1 SWAP2 SUB SWAP1 REVERT JUMPDEST PUSH1 0x0 DUP4 MLOAD PUSH8 0xFFFFFFFFFFFFFFFF DUP2 GT ISZERO PUSH2 0x1F62 JUMPI PUSH2 0x1F61 PUSH2 0x836B JUMP JUMPDEST JUMPDEST PUSH1 0x40 MLOAD SWAP1 DUP1 DUP3 MSTORE DUP1 PUSH1 0x20 MUL PUSH1 0x20 ADD DUP3 ADD PUSH1 0x40 MSTORE DUP1 ISZERO PUSH2 0x1F90 JUMPI DUP2 PUSH1 0x20 ADD PUSH1 0x20 DUP3 MUL DUP1 CALLDATASIZE DUP4 CALLDATACOPY DUP1 DUP3 ADD SWAP2 POP POP SWAP1 POP JUMPDEST POP SWAP1 POP PUSH1 0x0 JUMPDEST DUP5 MLOAD DUP2 LT ISZERO PUSH2 0x200D JUMPI PUSH2 0x1FDD DUP6 DUP3 DUP2 MLOAD DUP2 LT PUSH2 0x1FB5 JUMPI PUSH2 0x1FB4 PUSH2 0x9133 JUMP JUMPDEST JUMPDEST PUSH1 0x20 MUL PUSH1 0x20 ADD ADD MLOAD DUP6 DUP4 DUP2 MLOAD DUP2 LT PUSH2 0x1FD0 JUMPI PUSH2 0x1FCF PUSH2 0x9133 JUMP JUMPDEST JUMPDEST PUSH1 0x20 MUL PUSH1 0x20 ADD ADD MLOAD PUSH2 0xB1B JUMP JUMPDEST DUP3 DUP3 DUP2 MLOAD DUP2 LT PUSH2 0x1FF0 JUMPI PUSH2 0x1FEF PUSH2 0x9133 JUMP JUMPDEST JUMPDEST PUSH1 0x20 MUL PUSH1 0x20 ADD ADD DUP2 DUP2 MSTORE POP POP DUP1 PUSH2 0x2006 SWAP1 PUSH2 0x91C5 JUMP JUMPDEST SWAP1 POP PUSH2 0x1F96 JUMP JUMPDEST POP DUP1 SWAP2 POP POP SWAP3 SWAP2 POP POP JUMP JUMPDEST PUSH1 0x0 DUP1 PUSH2 0x2024 DUP4 PUSH2 0x301B JUMP JUMPDEST GT SWAP1 POP SWAP2 SWAP1 POP JUMP JUMPDEST DUP4 PUSH1 0x0 PUSH1 0x23 PUSH1 0x0 DUP4 PUSH20 0xFFFFFFFFFFFFFFFFFFFFFFFFFFFFFFFFFFFFFFFF AND PUSH20 0xFFFFFFFFFFFFFFFFFFFFFFFFFFFFFFFFFFFFFFFF AND DUP2 MSTORE PUSH1 0x20 ADD SWAP1 DUP2 MSTORE PUSH1 0x20 ADD PUSH1 0x0 KECCAK256 SLOAD GT DUP1 ISZERO PUSH2 0x20CA JUMPI POP PUSH1 0x26 PUSH1 0x0 SWAP1 SLOAD SWAP1 PUSH2 0x100 EXP SWAP1 DIV PUSH20 0xFFFFFFFFFFFFFFFFFFFFFFFFFFFFFFFFFFFFFFFF AND PUSH20 0xFFFFFFFFFFFFFFFFFFFFFFFFFFFFFFFFFFFFFFFF AND DUP2 PUSH20 0xFFFFFFFFFFFFFFFFFFFFFFFFFFFFFFFFFFFFFFFF AND EQ ISZERO JUMPDEST PUSH1 0x9 PUSH1 0x2 ADD SWAP1 PUSH2 0x2110 JUMPI PUSH1 0x40 MLOAD PUSH32 0x8C379A000000000000000000000000000000000000000000000000000000000 DUP2 MSTORE PUSH1 0x4 ADD PUSH2 0x2107 SWAP2 SWAP1 PUSH2 0x9111 JUMP JUMPDEST PUSH1 0x40 MLOAD DUP1 SWAP2 SUB SWAP1 REVERT JUMPDEST POP DUP3 DUP1 TIMESTAMP GT ISZERO PUSH1 0x9 PUSH1 0x3 ADD SWAP1 PUSH2 0x215C JUMPI PUSH1 0x40 MLOAD PUSH32 0x8C379A000000000000000000000000000000000000000000000000000000000 DUP2 MSTORE PUSH1 0x4 ADD PUSH2 0x2153 SWAP2 SWAP1 PUSH2 0x9111 JUMP JUMPDEST PUSH1 0x40 MLOAD DUP1 SWAP2 SUB SWAP1 REVERT JUMPDEST POP PUSH2 0x2168 DUP7 DUP7 DUP6 PUSH2 0x4F6F JUMP JUMPDEST POP POP POP POP POP POP JUMP JUMPDEST PUSH1 0x0 PUSH2 0x2197 DUP3 PUSH1 0x5 PUSH1 0x0 DUP7 DUP2 MSTORE PUSH1 0x20 ADD SWAP1 DUP2 MSTORE PUSH1 0x20 ADD PUSH1 0x0 KECCAK256 PUSH2 0x56AC SWAP1 SWAP2 SWAP1 PUSH4 0xFFFFFFFF AND JUMP JUMPDEST SWAP1 POP SWAP3 SWAP2 POP POP JUMP JUMPDEST PUSH1 0x0 PUSH2 0x21E9 PUSH1 0x23 PUSH1 0x0 DUP5 PUSH20 0xFFFFFFFFFFFFFFFFFFFFFFFFFFFFFFFFFFFFFFFF AND PUSH20 0xFFFFFFFFFFFFFFFFFFFFFFFFFFFFFFFFFFFFFFFF AND DUP2 MSTORE PUSH1 0x20 ADD SWAP1 DUP2 MSTORE PUSH1 0x20 ADD PUSH1 0x0 KECCAK256 SLOAD PUSH2 0x56C6 JUMP JUMPDEST SWAP1 POP SWAP2 SWAP1 POP JUMP JUMPDEST PUSH1 0x0 PUSH1 0x4 PUSH1 0x0 DUP5 DUP2 MSTORE PUSH1 0x20 ADD SWAP1 DUP2 MSTORE PUSH1 0x20 ADD PUSH1 0x0 KECCAK256 PUSH1 0x0 ADD PUSH1 0x0 DUP4 PUSH20 0xFFFFFFFFFFFFFFFFFFFFFFFFFFFFFFFFFFFFFFFF AND PUSH20 0xFFFFFFFFFFFFFFFFFFFFFFFFFFFFFFFFFFFFFFFF AND DUP2 MSTORE PUSH1 0x20 ADD SWAP1 DUP2 MSTORE PUSH1 0x20 ADD PUSH1 0x0 KECCAK256 PUSH1 0x0 SWAP1 SLOAD SWAP1 PUSH2 0x100 EXP SWAP1 DIV PUSH1 0xFF AND SWAP1 POP SWAP3 SWAP2 POP POP JUMP JUMPDEST PUSH1 0x60 PUSH1 0x7 DUP1 SLOAD PUSH2 0x226A SWAP1 PUSH2 0x904A JUMP JUMPDEST DUP1 PUSH1 0x1F ADD PUSH1 0x20 DUP1 SWAP2 DIV MUL PUSH1 0x20 ADD PUSH1 0x40 MLOAD SWAP1 DUP2 ADD PUSH1 0x40 MSTORE DUP1 SWAP3 SWAP2 SWAP1 DUP2 DUP2 MSTORE PUSH1 0x20 ADD DUP3 DUP1 SLOAD PUSH2 0x2296 SWAP1 PUSH2 0x904A JUMP JUMPDEST DUP1 ISZERO PUSH2 0x22E3 JUMPI DUP1 PUSH1 0x1F LT PUSH2 0x22B8 JUMPI PUSH2 0x100 DUP1 DUP4 SLOAD DIV MUL DUP4 MSTORE SWAP2 PUSH1 0x20 ADD SWAP2 PUSH2 0x22E3 JUMP JUMPDEST DUP3 ADD SWAP2 SWAP1 PUSH1 0x0 MSTORE PUSH1 0x20 PUSH1 0x0 KECCAK256 SWAP1 JUMPDEST DUP2 SLOAD DUP2 MSTORE SWAP1 PUSH1 0x1 ADD SWAP1 PUSH1 0x20 ADD DUP1 DUP4 GT PUSH2 0x22C6 JUMPI DUP3 SWAP1 SUB PUSH1 0x1F AND DUP3 ADD SWAP2 JUMPDEST POP POP POP POP POP SWAP1 POP SWAP1 JUMP JUMPDEST DUP1 PUSH1 0x0 PUSH1 0x23 PUSH1 0x0 DUP4 PUSH20 0xFFFFFFFFFFFFFFFFFFFFFFFFFFFFFFFFFFFFFFFF AND PUSH20 0xFFFFFFFFFFFFFFFFFFFFFFFFFFFFFFFFFFFFFFFF AND DUP2 MSTORE PUSH1 0x20 ADD SWAP1 DUP2 MSTORE PUSH1 0x20 ADD PUSH1 0x0 KECCAK256 SLOAD GT DUP1 ISZERO PUSH2 0x238B JUMPI POP PUSH1 0x26 PUSH1 0x0 SWAP1 SLOAD SWAP1 PUSH2 0x100 EXP SWAP1 DIV PUSH20 0xFFFFFFFFFFFFFFFFFFFFFFFFFFFFFFFFFFFFFFFF AND PUSH20 0xFFFFFFFFFFFFFFFFFFFFFFFFFFFFFFFFFFFFFFFF AND DUP2 PUSH20 0xFFFFFFFFFFFFFFFFFFFFFFFFFFFFFFFFFFFFFFFF AND EQ ISZERO JUMPDEST PUSH1 0x9 PUSH1 0x2 ADD SWAP1 PUSH2 0x23D1 JUMPI PUSH1 0x40 MLOAD PUSH32 0x8C379A000000000000000000000000000000000000000000000000000000000 DUP2 MSTORE PUSH1 0x4 ADD PUSH2 0x23C8 SWAP2 SWAP1 PUSH2 0x9111 JUMP JUMPDEST PUSH1 0x40 MLOAD DUP1 SWAP2 SUB SWAP1 REVERT JUMPDEST POP PUSH1 0x0 PUSH1 0x23 PUSH1 0x0 DUP5 PUSH20 0xFFFFFFFFFFFFFFFFFFFFFFFFFFFFFFFFFFFFFFFF AND PUSH20 0xFFFFFFFFFFFFFFFFFFFFFFFFFFFFFFFFFFFFFFFF AND DUP2 MSTORE PUSH1 0x20 ADD SWAP1 DUP2 MSTORE PUSH1 0x20 ADD PUSH1 0x0 KECCAK256 SLOAD SWAP1 POP PUSH2 0x241F DUP4 PUSH2 0x44A0 JUMP JUMPDEST PUSH1 0x22 DUP3 DUP2 SLOAD DUP2 LT PUSH2 0x2433 JUMPI PUSH2 0x2432 PUSH2 0x9133 JUMP JUMPDEST JUMPDEST SWAP1 PUSH1 0x0 MSTORE PUSH1 0x20 PUSH1 0x0 KECCAK256 SWAP1 PUSH1 0x4 MUL ADD PUSH1 0x2 ADD PUSH1 0x0 PUSH2 0x100 EXP DUP2 SLOAD DUP2 PUSH16 0xFFFFFFFFFFFFFFFFFFFFFFFFFFFFFFFF MUL NOT AND SWAP1 DUP4 PUSH16 0xFFFFFFFFFFFFFFFFFFFFFFFFFFFFFFFF AND MUL OR SWAP1 SSTORE POP PUSH1 0x0 PUSH2 0x24A7 PUSH1 0x26 PUSH1 0x0 SWAP1 SLOAD SWAP1 PUSH2 0x100 EXP SWAP1 DIV PUSH20 0xFFFFFFFFFFFFFFFFFFFFFFFFFFFFFFFFFFFFFFFF AND PUSH2 0x44A0 JUMP JUMPDEST SWAP1 POP PUSH1 0x24 SLOAD DUP2 GT PUSH2 0x2511 JUMPI DUP1 PUSH1 0x24 SLOAD PUSH2 0x24C0 SWAP2 SWAP1 PUSH2 0x9191 JUMP JUMPDEST PUSH1 0x22 DUP4 DUP2 SLOAD DUP2 LT PUSH2 0x24D4 JUMPI PUSH2 0x24D3 PUSH2 0x9133 JUMP JUMPDEST JUMPDEST SWAP1 PUSH1 0x0 MSTORE PUSH1 0x20 PUSH1 0x0 KECCAK256 SWAP1 PUSH1 0x4 MUL ADD PUSH1 0x2 ADD PUSH1 0x10 SWAP1 SLOAD SWAP1 PUSH2 0x100 EXP SWAP1 DIV PUSH16 0xFFFFFFFFFFFFFFFFFFFFFFFFFFFFFFFF AND PUSH2 0x250C SWAP2 SWAP1 PUSH2 0x98B7 JUMP JUMPDEST PUSH2 0x256C JUMP JUMPDEST PUSH1 0x24 SLOAD DUP2 PUSH2 0x251F SWAP2 SWAP1 PUSH2 0x9191 JUMP JUMPDEST PUSH1 0x22 DUP4 DUP2 SLOAD DUP2 LT PUSH2 0x2533 JUMPI PUSH2 0x2532 PUSH2 0x9133 JUMP JUMPDEST JUMPDEST SWAP1 PUSH1 0x0 MSTORE PUSH1 0x20 PUSH1 0x0 KECCAK256 SWAP1 PUSH1 0x4 MUL ADD PUSH1 0x2 ADD PUSH1 0x10 SWAP1 SLOAD SWAP1 PUSH2 0x100 EXP SWAP1 DIV PUSH16 0xFFFFFFFFFFFFFFFFFFFFFFFFFFFFFFFF AND PUSH2 0x256B SWAP2 SWAP1 PUSH2 0x979A JUMP JUMPDEST JUMPDEST PUSH1 0x22 DUP4 DUP2 SLOAD DUP2 LT PUSH2 0x2580 JUMPI PUSH2 0x257F PUSH2 0x9133 JUMP JUMPDEST JUMPDEST SWAP1 PUSH1 0x0 MSTORE PUSH1 0x20 PUSH1 0x0 KECCAK256 SWAP1 PUSH1 0x4 MUL ADD PUSH1 0x2 ADD PUSH1 0x10 PUSH2 0x100 EXP DUP2 SLOAD DUP2 PUSH16 0xFFFFFFFFFFFFFFFFFFFFFFFFFFFFFFFF MUL NOT AND SWAP1 DUP4 PUSH16 0xFFFFFFFFFFFFFFFFFFFFFFFFFFFFFFFF AND MUL OR SWAP1 SSTORE POP DUP1 PUSH1 0x24 DUP2 SWAP1 SSTORE POP PUSH32 0xF10FC780C78F994A214C79A2AE8D8B7BFE7CC3F0F935A8F05A29525E71D7F127 DUP5 PUSH1 0x22 DUP5 DUP2 SLOAD DUP2 LT PUSH2 0x2604 JUMPI PUSH2 0x2603 PUSH2 0x9133 JUMP JUMPDEST JUMPDEST SWAP1 PUSH1 0x0 MSTORE PUSH1 0x20 PUSH1 0x0 KECCAK256 SWAP1 PUSH1 0x4 MUL ADD PUSH1 0x2 ADD PUSH1 0x0 SWAP1 SLOAD SWAP1 PUSH2 0x100 EXP SWAP1 DIV PUSH16 0xFFFFFFFFFFFFFFFFFFFFFFFFFFFFFFFF AND PUSH1 0x22 DUP6 DUP2 SLOAD DUP2 LT PUSH2 0x2646 JUMPI PUSH2 0x2645 PUSH2 0x9133 JUMP JUMPDEST JUMPDEST SWAP1 PUSH1 0x0 MSTORE PUSH1 0x20 PUSH1 0x0 KECCAK256 SWAP1 PUSH1 0x4 MUL ADD PUSH1 0x2 ADD PUSH1 0x10 SWAP1 SLOAD SWAP1 PUSH2 0x100 EXP SWAP1 DIV PUSH16 0xFFFFFFFFFFFFFFFFFFFFFFFFFFFFFFFF AND PUSH1 0x40 MLOAD PUSH2 0x2683 SWAP4 SWAP3 SWAP2 SWAP1 PUSH2 0x991C JUMP JUMPDEST PUSH1 0x40 MLOAD DUP1 SWAP2 SUB SWAP1 LOG1 POP POP POP POP JUMP JUMPDEST ADDRESS CALLER PUSH1 0x0 PUSH20 0xDEF1FAC7BF08F173D286BBBDCBEEADE695129840 PUSH20 0xFFFFFFFFFFFFFFFFFFFFFFFFFFFFFFFFFFFFFFFF AND PUSH4 0x6FB1A07 PUSH1 0x3 PUSH1 0x40 MLOAD DUP3 PUSH4 0xFFFFFFFF AND PUSH1 0xE0 SHL DUP2 MSTORE PUSH1 0x4 ADD PUSH2 0x26E3 SWAP2 SWAP1 PUSH2 0x7FC6 JUMP JUMPDEST PUSH1 0x20 PUSH1 0x40 MLOAD DUP1 DUP4 SUB DUP2 DUP7 GAS STATICCALL ISZERO DUP1 ISZERO PUSH2 0x2700 JUMPI RETURNDATASIZE PUSH1 0x0 DUP1 RETURNDATACOPY RETURNDATASIZE PUSH1 0x0 REVERT JUMPDEST POP POP POP POP PUSH1 0x40 MLOAD RETURNDATASIZE PUSH1 0x1F NOT PUSH1 0x1F DUP3 ADD AND DUP3 ADD DUP1 PUSH1 0x40 MSTORE POP DUP2 ADD SWAP1 PUSH2 0x2724 SWAP2 SWAP1 PUSH2 0x9223 JUMP JUMPDEST SWAP1 POP DUP1 PUSH20 0xFFFFFFFFFFFFFFFFFFFFFFFFFFFFFFFFFFFFFFFF AND PUSH4 0x322D5FBC DUP5 DUP5 PUSH1 0x40 MLOAD DUP4 PUSH4 0xFFFFFFFF AND PUSH1 0xE0 SHL DUP2 MSTORE PUSH1 0x4 ADD PUSH2 0x2761 SWAP3 SWAP2 SWAP1 PUSH2 0x9953 JUMP JUMPDEST PUSH1 0x20 PUSH1 0x40 MLOAD DUP1 DUP4 SUB DUP2 PUSH1 0x0 DUP8 GAS CALL ISZERO DUP1 ISZERO PUSH2 0x2780 JUMPI RETURNDATASIZE PUSH1 0x0 DUP1 RETURNDATACOPY RETURNDATASIZE PUSH1 0x0 REVERT JUMPDEST POP POP POP POP PUSH1 0x40 MLOAD RETURNDATASIZE PUSH1 0x1F NOT PUSH1 0x1F DUP3 ADD AND DUP3 ADD DUP1 PUSH1 0x40 MSTORE POP DUP2 ADD SWAP1 PUSH2 0x27A4 SWAP2 SWAP1 PUSH2 0x9991 JUMP JUMPDEST ISZERO PUSH2 0x27E4 JUMPI PUSH1 0x40 MLOAD PUSH32 0x8C379A000000000000000000000000000000000000000000000000000000000 DUP2 MSTORE PUSH1 0x4 ADD PUSH2 0x27DB SWAP1 PUSH2 0x9A30 JUMP JUMPDEST PUSH1 0x40 MLOAD DUP1 SWAP2 SUB SWAP1 REVERT JUMPDEST DUP1 PUSH20 0xFFFFFFFFFFFFFFFFFFFFFFFFFFFFFFFFFFFFFFFF AND PUSH4 0xEEF84BA1 PUSH1 0x40 MLOAD DUP2 PUSH4 0xFFFFFFFF AND PUSH1 0xE0 SHL DUP2 MSTORE PUSH1 0x4 ADD PUSH1 0x0 PUSH1 0x40 MLOAD DUP1 DUP4 SUB DUP2 PUSH1 0x0 DUP8 DUP1 EXTCODESIZE ISZERO DUP1 ISZERO PUSH2 0x282C JUMPI PUSH1 0x0 DUP1 REVERT JUMPDEST POP GAS CALL ISZERO DUP1 ISZERO PUSH2 0x2840 JUMPI RETURNDATASIZE PUSH1 0x0 DUP1 RETURNDATACOPY RETURNDATASIZE PUSH1 0x0 REVERT JUMPDEST POP POP POP POP PUSH2 0x2856 PUSH2 0x284F PUSH2 0x462D JUMP JUMPDEST DUP7 DUP7 PUSH2 0x593C JUMP JUMPDEST POP POP POP POP POP JUMP JUMPDEST PUSH1 0x0 DUP1 DUP4 DUP1 TIMESTAMP GT ISZERO PUSH1 0x9 PUSH1 0x3 ADD SWAP1 PUSH2 0x28AB JUMPI PUSH1 0x40 MLOAD PUSH32 0x8C379A000000000000000000000000000000000000000000000000000000000 DUP2 MSTORE PUSH1 0x4 ADD PUSH2 0x28A2 SWAP2 SWAP1 PUSH2 0x9111 JUMP JUMPDEST PUSH1 0x40 MLOAD DUP1 SWAP2 SUB SWAP1 REVERT JUMPDEST POP PUSH1 0x1 DUP8 GT PUSH1 0x9 PUSH1 0x5 ADD SWAP1 PUSH2 0x28F6 JUMPI PUSH1 0x40 MLOAD PUSH32 0x8C379A000000000000000000000000000000000000000000000000000000000 DUP2 MSTORE PUSH1 0x4 ADD PUSH2 0x28ED SWAP2 SWAP1 PUSH2 0x9111 JUMP JUMPDEST PUSH1 0x40 MLOAD DUP1 SWAP2 SUB SWAP1 REVERT JUMPDEST POP PUSH1 0x0 CALLER SWAP1 POP PUSH1 0x0 PUSH1 0x26 PUSH1 0x0 SWAP1 SLOAD SWAP1 PUSH2 0x100 EXP SWAP1 DIV PUSH20 0xFFFFFFFFFFFFFFFFFFFFFFFFFFFFFFFFFFFFFFFF AND PUSH20 0xFFFFFFFFFFFFFFFFFFFFFFFFFFFFFFFFFFFFFFFF AND DUP12 PUSH20 0xFFFFFFFFFFFFFFFFFFFFFFFFFFFFFFFFFFFFFFFF AND EQ ISZERO DUP1 ISZERO PUSH2 0x29A9 JUMPI POP PUSH1 0x26 PUSH1 0x0 SWAP1 SLOAD SWAP1 PUSH2 0x100 EXP SWAP1 DIV PUSH20 0xFFFFFFFFFFFFFFFFFFFFFFFFFFFFFFFFFFFFFFFF AND PUSH20 0xFFFFFFFFFFFFFFFFFFFFFFFFFFFFFFFFFFFFFFFF AND DUP11 PUSH20 0xFFFFFFFFFFFFFFFFFFFFFFFFFFFFFFFFFFFFFFFF AND EQ JUMPDEST ISZERO PUSH2 0x2A22 JUMPI PUSH2 0x29B8 DUP12 DUP11 PUSH2 0x4B91 JUMP JUMPDEST SWAP1 POP DUP8 DUP2 LT ISZERO PUSH1 0x9 PUSH1 0x7 ADD SWAP1 PUSH2 0x2A04 JUMPI PUSH1 0x40 MLOAD PUSH32 0x8C379A000000000000000000000000000000000000000000000000000000000 DUP2 MSTORE PUSH1 0x4 ADD PUSH2 0x29FB SWAP2 SWAP1 PUSH2 0x9111 JUMP JUMPDEST PUSH1 0x40 MLOAD DUP1 SWAP2 SUB SWAP1 REVERT JUMPDEST POP PUSH2 0x2A10 DUP12 DUP4 DUP12 PUSH2 0x4748 JUMP JUMPDEST PUSH2 0x2A1D DUP12 PUSH1 0x0 DUP4 DUP10 PUSH2 0x5AA9 JUMP JUMPDEST PUSH2 0x2CCA JUMP JUMPDEST PUSH1 0x26 PUSH1 0x0 SWAP1 SLOAD SWAP1 PUSH2 0x100 EXP SWAP1 DIV PUSH20 0xFFFFFFFFFFFFFFFFFFFFFFFFFFFFFFFFFFFFFFFF AND PUSH20 0xFFFFFFFFFFFFFFFFFFFFFFFFFFFFFFFFFFFFFFFF AND DUP12 PUSH20 0xFFFFFFFFFFFFFFFFFFFFFFFFFFFFFFFFFFFFFFFF AND EQ DUP1 ISZERO PUSH2 0x2ACD JUMPI POP PUSH1 0x26 PUSH1 0x0 SWAP1 SLOAD SWAP1 PUSH2 0x100 EXP SWAP1 DIV PUSH20 0xFFFFFFFFFFFFFFFFFFFFFFFFFFFFFFFFFFFFFFFF AND PUSH20 0xFFFFFFFFFFFFFFFFFFFFFFFFFFFFFFFFFFFFFFFF AND DUP11 PUSH20 0xFFFFFFFFFFFFFFFFFFFFFFFFFFFFFFFFFFFFFFFF AND EQ ISZERO JUMPDEST ISZERO PUSH2 0x2B46 JUMPI PUSH2 0x2ADC DUP11 DUP11 PUSH2 0x4D80 JUMP JUMPDEST SWAP1 POP DUP8 DUP2 LT ISZERO PUSH1 0x9 PUSH1 0x8 ADD SWAP1 PUSH2 0x2B28 JUMPI PUSH1 0x40 MLOAD PUSH32 0x8C379A000000000000000000000000000000000000000000000000000000000 DUP2 MSTORE PUSH1 0x4 ADD PUSH2 0x2B1F SWAP2 SWAP1 PUSH2 0x9111 JUMP JUMPDEST PUSH1 0x40 MLOAD DUP1 SWAP2 SUB SWAP1 REVERT JUMPDEST POP PUSH2 0x2B34 DUP12 DUP4 DUP12 PUSH2 0x4748 JUMP JUMPDEST PUSH2 0x2B41 DUP11 DUP3 PUSH1 0x0 DUP10 PUSH2 0x5AA9 JUMP JUMPDEST PUSH2 0x2CC9 JUMP JUMPDEST PUSH1 0x26 PUSH1 0x0 SWAP1 SLOAD SWAP1 PUSH2 0x100 EXP SWAP1 DIV PUSH20 0xFFFFFFFFFFFFFFFFFFFFFFFFFFFFFFFFFFFFFFFF AND PUSH20 0xFFFFFFFFFFFFFFFFFFFFFFFFFFFFFFFFFFFFFFFF AND DUP12 PUSH20 0xFFFFFFFFFFFFFFFFFFFFFFFFFFFFFFFFFFFFFFFF AND EQ ISZERO DUP1 ISZERO PUSH2 0x2BF2 JUMPI POP PUSH1 0x26 PUSH1 0x0 SWAP1 SLOAD SWAP1 PUSH2 0x100 EXP SWAP1 DIV PUSH20 0xFFFFFFFFFFFFFFFFFFFFFFFFFFFFFFFFFFFFFFFF AND PUSH20 0xFFFFFFFFFFFFFFFFFFFFFFFFFFFFFFFFFFFFFFFF AND DUP12 PUSH20 0xFFFFFFFFFFFFFFFFFFFFFFFFFFFFFFFFFFFFFFFF AND EQ ISZERO JUMPDEST ISZERO PUSH2 0x2C87 JUMPI PUSH1 0x0 PUSH2 0x2C03 DUP13 DUP12 PUSH2 0x4B91 JUMP JUMPDEST SWAP1 POP PUSH2 0x2C0F DUP12 DUP3 PUSH2 0x4D80 JUMP JUMPDEST SWAP2 POP DUP9 DUP3 LT ISZERO PUSH1 0x9 PUSH1 0x8 ADD SWAP1 PUSH2 0x2C5B JUMPI PUSH1 0x40 MLOAD PUSH32 0x8C379A000000000000000000000000000000000000000000000000000000000 DUP2 MSTORE PUSH1 0x4 ADD PUSH2 0x2C52 SWAP2 SWAP1 PUSH2 0x9111 JUMP JUMPDEST PUSH1 0x40 MLOAD DUP1 SWAP2 SUB SWAP1 REVERT JUMPDEST POP PUSH2 0x2C67 DUP13 DUP5 DUP13 PUSH2 0x4748 JUMP JUMPDEST PUSH2 0x2C74 DUP13 PUSH1 0x0 DUP4 ADDRESS PUSH2 0x5AA9 JUMP JUMPDEST PUSH2 0x2C81 DUP12 DUP4 PUSH1 0x0 DUP11 PUSH2 0x5AA9 JUMP JUMPDEST POP PUSH2 0x2CC8 JUMP JUMPDEST PUSH1 0x9 PUSH1 0xB ADD PUSH1 0x40 MLOAD PUSH32 0x8C379A000000000000000000000000000000000000000000000000000000000 DUP2 MSTORE PUSH1 0x4 ADD PUSH2 0x2CBF SWAP2 SWAP1 PUSH2 0x9111 JUMP JUMPDEST PUSH1 0x40 MLOAD DUP1 SWAP2 SUB SWAP1 REVERT JUMPDEST JUMPDEST JUMPDEST DUP9 DUP2 SWAP5 POP SWAP5 POP POP POP POP SWAP7 POP SWAP7 SWAP5 POP POP POP POP POP JUMP JUMPDEST PUSH1 0x0 DUP1 SHL PUSH2 0x2CF3 DUP2 PUSH2 0x2CEE PUSH2 0x462D JUMP JUMPDEST PUSH2 0x4635 JUMP JUMPDEST PUSH2 0x2D1B DUP3 PUSH1 0x40 MLOAD PUSH1 0x20 ADD PUSH2 0x2D07 SWAP2 SWAP1 PUSH2 0x9ACD JUMP JUMPDEST PUSH1 0x40 MLOAD PUSH1 0x20 DUP2 DUP4 SUB SUB DUP2 MSTORE SWAP1 PUSH1 0x40 MSTORE PUSH2 0x63BC JUMP JUMPDEST DUP2 PUSH1 0x8 SWAP1 DUP1 MLOAD SWAP1 PUSH1 0x20 ADD SWAP1 PUSH2 0x2D31 SWAP3 SWAP2 SWAP1 PUSH2 0x7CE5 JUMP JUMPDEST POP POP POP JUMP JUMPDEST PUSH2 0x2D78 PUSH1 0x25 PUSH1 0x0 SWAP1 SLOAD SWAP1 PUSH2 0x100 EXP SWAP1 DIV PUSH20 0xFFFFFFFFFFFFFFFFFFFFFFFFFFFFFFFFFFFFFFFF AND PUSH10 0xD3C21BCECCEDA1000000 PUSH10 0x69E10DE76676D0800000 CALLER PUSH2 0x3508 JUMP JUMPDEST PUSH2 0x2DB0 PUSH1 0x27 PUSH1 0x0 SWAP1 SLOAD SWAP1 PUSH2 0x100 EXP SWAP1 DIV PUSH20 0xFFFFFFFFFFFFFFFFFFFFFFFFFFFFFFFFFFFFFFFF AND PUSH10 0x943B1377290CBD800000 DUP1 CALLER PUSH2 0x3508 JUMP JUMPDEST JUMP JUMPDEST PUSH1 0x0 PUSH1 0x23 PUSH1 0x0 DUP4 PUSH20 0xFFFFFFFFFFFFFFFFFFFFFFFFFFFFFFFFFFFFFFFF AND PUSH20 0xFFFFFFFFFFFFFFFFFFFFFFFFFFFFFFFFFFFFFFFF AND DUP2 MSTORE PUSH1 0x20 ADD SWAP1 DUP2 MSTORE PUSH1 0x20 ADD PUSH1 0x0 KECCAK256 SLOAD SWAP1 POP SWAP2 SWAP1 POP JUMP JUMPDEST PUSH2 0x2E03 PUSH2 0x7D6B JUMP JUMPDEST PUSH1 0x22 PUSH1 0x23 PUSH1 0x0 DUP5 PUSH20 0xFFFFFFFFFFFFFFFFFFFFFFFFFFFFFFFFFFFFFFFF AND PUSH20 0xFFFFFFFFFFFFFFFFFFFFFFFFFFFFFFFFFFFFFFFF AND DUP2 MSTORE PUSH1 0x20 ADD SWAP1 DUP2 MSTORE PUSH1 0x20 ADD PUSH1 0x0 KECCAK256 SLOAD DUP2 SLOAD DUP2 LT PUSH2 0x2E56 JUMPI PUSH2 0x2E55 PUSH2 0x9133 JUMP JUMPDEST JUMPDEST SWAP1 PUSH1 0x0 MSTORE PUSH1 0x20 PUSH1 0x0 KECCAK256 SWAP1 PUSH1 0x4 MUL ADD PUSH1 0x40 MLOAD DUP1 PUSH1 0xA0 ADD PUSH1 0x40 MSTORE SWAP1 DUP2 PUSH1 0x0 DUP3 ADD PUSH1 0x0 SWAP1 SLOAD SWAP1 PUSH2 0x100 EXP SWAP1 DIV PUSH20 0xFFFFFFFFFFFFFFFFFFFFFFFFFFFFFFFFFFFFFFFF AND PUSH20 0xFFFFFFFFFFFFFFFFFFFFFFFFFFFFFFFFFFFFFFFF AND PUSH20 0xFFFFFFFFFFFFFFFFFFFFFFFFFFFFFFFFFFFFFFFF AND DUP2 MSTORE PUSH1 0x20 ADD PUSH1 0x1 DUP3 ADD PUSH1 0x8 DUP1 PUSH1 0x20 MUL PUSH1 0x40 MLOAD SWAP1 DUP2 ADD PUSH1 0x40 MSTORE DUP1 SWAP3 SWAP2 SWAP1 DUP3 PUSH1 0x8 DUP1 ISZERO PUSH2 0x2F2D JUMPI PUSH1 0x20 MUL DUP3 ADD SWAP2 PUSH1 0x0 SWAP1 JUMPDEST DUP3 DUP3 SWAP1 SLOAD SWAP1 PUSH2 0x100 EXP SWAP1 DIV PUSH4 0xFFFFFFFF AND PUSH4 0xFFFFFFFF AND DUP2 MSTORE PUSH1 0x20 ADD SWAP1 PUSH1 0x4 ADD SWAP1 PUSH1 0x20 DUP3 PUSH1 0x3 ADD DIV SWAP3 DUP4 ADD SWAP3 PUSH1 0x1 SUB DUP3 MUL SWAP2 POP DUP1 DUP5 GT PUSH2 0x2EF0 JUMPI SWAP1 POP JUMPDEST POP POP POP POP POP DUP2 MSTORE PUSH1 0x20 ADD PUSH1 0x2 DUP3 ADD PUSH1 0x0 SWAP1 SLOAD SWAP1 PUSH2 0x100 EXP SWAP1 DIV PUSH16 0xFFFFFFFFFFFFFFFFFFFFFFFFFFFFFFFF AND PUSH16 0xFFFFFFFFFFFFFFFFFFFFFFFFFFFFFFFF AND PUSH16 0xFFFFFFFFFFFFFFFFFFFFFFFFFFFFFFFF AND DUP2 MSTORE PUSH1 0x20 ADD PUSH1 0x2 DUP3 ADD PUSH1 0x10 SWAP1 SLOAD SWAP1 PUSH2 0x100 EXP SWAP1 DIV PUSH16 0xFFFFFFFFFFFFFFFFFFFFFFFFFFFFFFFF AND PUSH16 0xFFFFFFFFFFFFFFFFFFFFFFFFFFFFFFFF AND PUSH16 0xFFFFFFFFFFFFFFFFFFFFFFFFFFFFFFFF AND DUP2 MSTORE PUSH1 0x20 ADD PUSH1 0x3 DUP3 ADD PUSH1 0x0 SWAP1 SLOAD SWAP1 PUSH2 0x100 EXP SWAP1 DIV PUSH16 0xFFFFFFFFFFFFFFFFFFFFFFFFFFFFFFFF AND PUSH16 0xFFFFFFFFFFFFFFFFFFFFFFFFFFFFFFFF AND PUSH16 0xFFFFFFFFFFFFFFFFFFFFFFFFFFFFFFFF AND DUP2 MSTORE POP POP SWAP1 POP SWAP2 SWAP1 POP JUMP JUMPDEST PUSH1 0x0 PUSH1 0x3 PUSH1 0x0 DUP4 DUP2 MSTORE PUSH1 0x20 ADD SWAP1 DUP2 MSTORE PUSH1 0x20 ADD PUSH1 0x0 KECCAK256 SLOAD SWAP1 POP SWAP2 SWAP1 POP JUMP JUMPDEST PUSH2 0x3077 PUSH1 0x29 PUSH1 0x0 SWAP1 SLOAD SWAP1 PUSH2 0x100 EXP SWAP1 DIV PUSH20 0xFFFFFFFFFFFFFFFFFFFFFFFFFFFFFFFFFFFFFFFF AND PUSH7 0x38D7EA4C68000 PUSH10 0xD3C21BCECCEDA1000000 CALLER PUSH2 0x3508 JUMP JUMPDEST JUMP JUMPDEST PUSH1 0x0 PUSH1 0x26 PUSH1 0x0 SWAP1 SLOAD SWAP1 PUSH2 0x100 EXP SWAP1 DIV PUSH20 0xFFFFFFFFFFFFFFFFFFFFFFFFFFFFFFFFFFFFFFFF AND PUSH20 0xFFFFFFFFFFFFFFFFFFFFFFFFFFFFFFFFFFFFFFFF AND DUP5 PUSH20 0xFFFFFFFFFFFFFFFFFFFFFFFFFFFFFFFFFFFFFFFF AND EQ ISZERO DUP1 ISZERO PUSH2 0x3126 JUMPI POP PUSH1 0x26 PUSH1 0x0 SWAP1 SLOAD SWAP1 PUSH2 0x100 EXP SWAP1 DIV PUSH20 0xFFFFFFFFFFFFFFFFFFFFFFFFFFFFFFFFFFFFFFFF AND PUSH20 0xFFFFFFFFFFFFFFFFFFFFFFFFFFFFFFFFFFFFFFFF AND DUP4 PUSH20 0xFFFFFFFFFFFFFFFFFFFFFFFFFFFFFFFFFFFFFFFF AND EQ JUMPDEST ISZERO PUSH2 0x313C JUMPI PUSH2 0x3135 DUP5 DUP4 PUSH2 0x63D6 JUMP JUMPDEST SWAP1 POP PUSH2 0x32CC JUMP JUMPDEST PUSH1 0x26 PUSH1 0x0 SWAP1 SLOAD SWAP1 PUSH2 0x100 EXP SWAP1 DIV PUSH20 0xFFFFFFFFFFFFFFFFFFFFFFFFFFFFFFFFFFFFFFFF AND PUSH20 0xFFFFFFFFFFFFFFFFFFFFFFFFFFFFFFFFFFFFFFFF AND DUP5 PUSH20 0xFFFFFFFFFFFFFFFFFFFFFFFFFFFFFFFFFFFFFFFF AND EQ DUP1 ISZERO PUSH2 0x31E7 JUMPI POP PUSH1 0x26 PUSH1 0x0 SWAP1 SLOAD SWAP1 PUSH2 0x100 EXP SWAP1 DIV PUSH20 0xFFFFFFFFFFFFFFFFFFFFFFFFFFFFFFFFFFFFFFFF AND PUSH20 0xFFFFFFFFFFFFFFFFFFFFFFFFFFFFFFFFFFFFFFFF AND DUP4 PUSH20 0xFFFFFFFFFFFFFFFFFFFFFFFFFFFFFFFFFFFFFFFF AND EQ ISZERO JUMPDEST ISZERO PUSH2 0x31FD JUMPI PUSH2 0x31F6 DUP4 DUP4 PUSH2 0x65C5 JUMP JUMPDEST SWAP1 POP PUSH2 0x32CB JUMP JUMPDEST PUSH1 0x26 PUSH1 0x0 SWAP1 SLOAD SWAP1 PUSH2 0x100 EXP SWAP1 DIV PUSH20 0xFFFFFFFFFFFFFFFFFFFFFFFFFFFFFFFFFFFFFFFF AND PUSH20 0xFFFFFFFFFFFFFFFFFFFFFFFFFFFFFFFFFFFFFFFF AND DUP5 PUSH20 0xFFFFFFFFFFFFFFFFFFFFFFFFFFFFFFFFFFFFFFFF AND EQ ISZERO DUP1 ISZERO PUSH2 0x32A9 JUMPI POP PUSH1 0x26 PUSH1 0x0 SWAP1 SLOAD SWAP1 PUSH2 0x100 EXP SWAP1 DIV PUSH20 0xFFFFFFFFFFFFFFFFFFFFFFFFFFFFFFFFFFFFFFFF AND PUSH20 0xFFFFFFFFFFFFFFFFFFFFFFFFFFFFFFFFFFFFFFFF AND DUP4 PUSH20 0xFFFFFFFFFFFFFFFFFFFFFFFFFFFFFFFFFFFFFFFF AND EQ ISZERO JUMPDEST ISZERO PUSH2 0x32CA JUMPI PUSH1 0x0 PUSH2 0x32BA DUP5 DUP5 PUSH2 0x65C5 JUMP JUMPDEST SWAP1 POP PUSH2 0x32C6 DUP6 DUP3 PUSH2 0x63D6 JUMP JUMPDEST SWAP2 POP POP JUMPDEST JUMPDEST JUMPDEST SWAP4 SWAP3 POP POP POP JUMP JUMPDEST PUSH1 0x0 PUSH2 0x32F0 PUSH1 0x5 PUSH1 0x0 DUP5 DUP2 MSTORE PUSH1 0x20 ADD SWAP1 DUP2 MSTORE PUSH1 0x20 ADD PUSH1 0x0 KECCAK256 PUSH2 0x67B4 JUMP JUMPDEST SWAP1 POP SWAP2 SWAP1 POP JUMP JUMPDEST PUSH2 0x32FF PUSH2 0x7D6B JUMP JUMPDEST PUSH1 0x22 DUP3 DUP2 SLOAD DUP2 LT PUSH2 0x3313 JUMPI PUSH2 0x3312 PUSH2 0x9133 JUMP JUMPDEST JUMPDEST SWAP1 PUSH1 0x0 MSTORE PUSH1 0x20 PUSH1 0x0 KECCAK256 SWAP1 PUSH1 0x4 MUL ADD PUSH1 0x40 MLOAD DUP1 PUSH1 0xA0 ADD PUSH1 0x40 MSTORE SWAP1 DUP2 PUSH1 0x0 DUP3 ADD PUSH1 0x0 SWAP1 SLOAD SWAP1 PUSH2 0x100 EXP SWAP1 DIV PUSH20 0xFFFFFFFFFFFFFFFFFFFFFFFFFFFFFFFFFFFFFFFF AND PUSH20 0xFFFFFFFFFFFFFFFFFFFFFFFFFFFFFFFFFFFFFFFF AND PUSH20 0xFFFFFFFFFFFFFFFFFFFFFFFFFFFFFFFFFFFFFFFF AND DUP2 MSTORE PUSH1 0x20 ADD PUSH1 0x1 DUP3 ADD PUSH1 0x8 DUP1 PUSH1 0x20 MUL PUSH1 0x40 MLOAD SWAP1 DUP2 ADD PUSH1 0x40 MSTORE DUP1 SWAP3 SWAP2 SWAP1 DUP3 PUSH1 0x8 DUP1 ISZERO PUSH2 0x33EA JUMPI PUSH1 0x20 MUL DUP3 ADD SWAP2 PUSH1 0x0 SWAP1 JUMPDEST DUP3 DUP3 SWAP1 SLOAD SWAP1 PUSH2 0x100 EXP SWAP1 DIV PUSH4 0xFFFFFFFF AND PUSH4 0xFFFFFFFF AND DUP2 MSTORE PUSH1 0x20 ADD SWAP1 PUSH1 0x4 ADD SWAP1 PUSH1 0x20 DUP3 PUSH1 0x3 ADD DIV SWAP3 DUP4 ADD SWAP3 PUSH1 0x1 SUB DUP3 MUL SWAP2 POP DUP1 DUP5 GT PUSH2 0x33AD JUMPI SWAP1 POP JUMPDEST POP POP POP POP POP DUP2 MSTORE PUSH1 0x20 ADD PUSH1 0x2 DUP3 ADD PUSH1 0x0 SWAP1 SLOAD SWAP1 PUSH2 0x100 EXP SWAP1 DIV PUSH16 0xFFFFFFFFFFFFFFFFFFFFFFFFFFFFFFFF AND PUSH16 0xFFFFFFFFFFFFFFFFFFFFFFFFFFFFFFFF AND PUSH16 0xFFFFFFFFFFFFFFFFFFFFFFFFFFFFFFFF AND DUP2 MSTORE PUSH1 0x20 ADD PUSH1 0x2 DUP3 ADD PUSH1 0x10 SWAP1 SLOAD SWAP1 PUSH2 0x100 EXP SWAP1 DIV PUSH16 0xFFFFFFFFFFFFFFFFFFFFFFFFFFFFFFFF AND PUSH16 0xFFFFFFFFFFFFFFFFFFFFFFFFFFFFFFFF AND PUSH16 0xFFFFFFFFFFFFFFFFFFFFFFFFFFFFFFFF AND DUP2 MSTORE PUSH1 0x20 ADD PUSH1 0x3 DUP3 ADD PUSH1 0x0 SWAP1 SLOAD SWAP1 PUSH2 0x100 EXP SWAP1 DIV PUSH16 0xFFFFFFFFFFFFFFFFFFFFFFFFFFFFFFFF AND PUSH16 0xFFFFFFFFFFFFFFFFFFFFFFFFFFFFFFFF AND PUSH16 0xFFFFFFFFFFFFFFFFFFFFFFFFFFFFFFFF AND DUP2 MSTORE POP POP SWAP1 POP SWAP2 SWAP1 POP JUMP JUMPDEST PUSH1 0x0 DUP1 SHL DUP2 JUMP JUMPDEST PUSH2 0x34E8 DUP3 PUSH2 0x1277 JUMP JUMPDEST PUSH2 0x34F9 DUP2 PUSH2 0x34F4 PUSH2 0x462D JUMP JUMPDEST PUSH2 0x4635 JUMP JUMPDEST PUSH2 0x3503 DUP4 DUP4 PUSH2 0x4714 JUMP JUMPDEST POP POP POP JUMP JUMPDEST PUSH1 0x0 DUP1 SHL PUSH2 0x351D DUP2 PUSH2 0x3518 PUSH2 0x462D JUMP JUMPDEST PUSH2 0x4635 JUMP JUMPDEST DUP5 PUSH1 0x0 PUSH1 0x23 PUSH1 0x0 DUP4 PUSH20 0xFFFFFFFFFFFFFFFFFFFFFFFFFFFFFFFFFFFFFFFF AND PUSH20 0xFFFFFFFFFFFFFFFFFFFFFFFFFFFFFFFFFFFFFFFF AND DUP2 MSTORE PUSH1 0x20 ADD SWAP1 DUP2 MSTORE PUSH1 0x20 ADD PUSH1 0x0 KECCAK256 SLOAD EQ DUP1 ISZERO PUSH2 0x35BB JUMPI POP PUSH1 0x26 PUSH1 0x0 SWAP1 SLOAD SWAP1 PUSH2 0x100 EXP SWAP1 DIV PUSH20 0xFFFFFFFFFFFFFFFFFFFFFFFFFFFFFFFFFFFFFFFF AND PUSH20 0xFFFFFFFFFFFFFFFFFFFFFFFFFFFFFFFFFFFFFFFF AND DUP2 PUSH20 0xFFFFFFFFFFFFFFFFFFFFFFFFFFFFFFFFFFFFFFFF AND EQ ISZERO JUMPDEST PUSH1 0x9 PUSH1 0x1 ADD SWAP1 PUSH2 0x3601 JUMPI PUSH1 0x40 MLOAD PUSH32 0x8C379A000000000000000000000000000000000000000000000000000000000 DUP2 MSTORE PUSH1 0x4 ADD PUSH2 0x35F8 SWAP2 SWAP1 PUSH2 0x9111 JUMP JUMPDEST PUSH1 0x40 MLOAD DUP1 SWAP2 SUB SWAP1 REVERT JUMPDEST POP PUSH1 0x0 PUSH1 0x22 DUP1 SLOAD SWAP1 POP SWAP1 POP PUSH2 0x3617 DUP8 CALLER DUP9 PUSH2 0x4748 JUMP JUMPDEST PUSH1 0x26 PUSH1 0x0 SWAP1 SLOAD SWAP1 PUSH2 0x100 EXP SWAP1 DIV PUSH20 0xFFFFFFFFFFFFFFFFFFFFFFFFFFFFFFFFFFFFFFFF AND PUSH20 0xFFFFFFFFFFFFFFFFFFFFFFFFFFFFFFFFFFFFFFFF AND PUSH4 0xBB9FF5D ADDRESS DUP8 PUSH1 0x40 MLOAD DUP4 PUSH4 0xFFFFFFFF AND PUSH1 0xE0 SHL DUP2 MSTORE PUSH1 0x4 ADD PUSH2 0x3674 SWAP3 SWAP2 SWAP1 PUSH2 0x9771 JUMP JUMPDEST PUSH1 0x0 PUSH1 0x40 MLOAD DUP1 DUP4 SUB DUP2 PUSH1 0x0 DUP8 DUP1 EXTCODESIZE ISZERO DUP1 ISZERO PUSH2 0x368E JUMPI PUSH1 0x0 DUP1 REVERT JUMPDEST POP GAS CALL ISZERO DUP1 ISZERO PUSH2 0x36A2 JUMPI RETURNDATASIZE PUSH1 0x0 DUP1 RETURNDATACOPY RETURNDATASIZE PUSH1 0x0 REVERT JUMPDEST POP POP POP POP PUSH2 0x36AF DUP8 PUSH2 0x44A0 JUMP JUMPDEST SWAP6 POP PUSH1 0x0 DUP7 GT PUSH1 0x9 PUSH1 0x5 ADD SWAP1 PUSH2 0x36FB JUMPI PUSH1 0x40 MLOAD PUSH32 0x8C379A000000000000000000000000000000000000000000000000000000000 DUP2 MSTORE PUSH1 0x4 ADD PUSH2 0x36F2 SWAP2 SWAP1 PUSH2 0x9111 JUMP JUMPDEST PUSH1 0x40 MLOAD DUP1 SWAP2 SUB SWAP1 REVERT JUMPDEST POP PUSH1 0x0 PUSH2 0x3712 DUP7 DUP9 PUSH2 0x370D SWAP2 SWAP1 PUSH2 0x96B7 JUMP JUMPDEST PUSH2 0x4918 JUMP JUMPDEST SWAP1 POP PUSH2 0x371C PUSH2 0x7DEC JUMP JUMPDEST PUSH1 0x0 JUMPDEST PUSH1 0x8 DUP2 LT ISZERO PUSH2 0x3767 JUMPI PUSH1 0x1 DUP3 DUP3 PUSH1 0x8 DUP2 LT PUSH2 0x373D JUMPI PUSH2 0x373C PUSH2 0x9133 JUMP JUMPDEST JUMPDEST PUSH1 0x20 MUL ADD SWAP1 PUSH4 0xFFFFFFFF AND SWAP1 DUP2 PUSH4 0xFFFFFFFF AND DUP2 MSTORE POP POP DUP1 DUP1 PUSH2 0x375F SWAP1 PUSH2 0x91C5 JUMP JUMPDEST SWAP2 POP POP PUSH2 0x371F JUMP JUMPDEST POP PUSH1 0x0 PUSH1 0x40 MLOAD DUP1 PUSH1 0xA0 ADD PUSH1 0x40 MSTORE DUP1 DUP12 PUSH20 0xFFFFFFFFFFFFFFFFFFFFFFFFFFFFFFFFFFFFFFFF AND DUP2 MSTORE PUSH1 0x20 ADD DUP4 DUP2 MSTORE PUSH1 0x20 ADD DUP11 PUSH16 0xFFFFFFFFFFFFFFFFFFFFFFFFFFFFFFFF AND DUP2 MSTORE PUSH1 0x20 ADD DUP10 PUSH16 0xFFFFFFFFFFFFFFFFFFFFFFFFFFFFFFFF AND DUP2 MSTORE PUSH1 0x20 ADD DUP5 PUSH16 0xFFFFFFFFFFFFFFFFFFFFFFFFFFFFFFFF AND DUP2 MSTORE POP SWAP1 POP PUSH1 0x22 DUP2 SWAP1 DUP1 PUSH1 0x1 DUP2 SLOAD ADD DUP1 DUP3 SSTORE DUP1 SWAP2 POP POP PUSH1 0x1 SWAP1 SUB SWAP1 PUSH1 0x0 MSTORE PUSH1 0x20 PUSH1 0x0 KECCAK256 SWAP1 PUSH1 0x4 MUL ADD PUSH1 0x0 SWAP1 SWAP2 SWAP1 SWAP2 SWAP1 SWAP2 POP PUSH1 0x0 DUP3 ADD MLOAD DUP2 PUSH1 0x0 ADD PUSH1 0x0 PUSH2 0x100 EXP DUP2 SLOAD DUP2 PUSH20 0xFFFFFFFFFFFFFFFFFFFFFFFFFFFFFFFFFFFFFFFF MUL NOT AND SWAP1 DUP4 PUSH20 0xFFFFFFFFFFFFFFFFFFFFFFFFFFFFFFFFFFFFFFFF AND MUL OR SWAP1 SSTORE POP PUSH1 0x20 DUP3 ADD MLOAD DUP2 PUSH1 0x1 ADD SWAP1 PUSH1 0x8 PUSH2 0x3869 SWAP3 SWAP2 SWAP1 PUSH2 0x7E0F JUMP JUMPDEST POP PUSH1 0x40 DUP3 ADD MLOAD DUP2 PUSH1 0x2 ADD PUSH1 0x0 PUSH2 0x100 EXP DUP2 SLOAD DUP2 PUSH16 0xFFFFFFFFFFFFFFFFFFFFFFFFFFFFFFFF MUL NOT AND SWAP1 DUP4 PUSH16 0xFFFFFFFFFFFFFFFFFFFFFFFFFFFFFFFF AND MUL OR SWAP1 SSTORE POP PUSH1 0x60 DUP3 ADD MLOAD DUP2 PUSH1 0x2 ADD PUSH1 0x10 PUSH2 0x100 EXP DUP2 SLOAD DUP2 PUSH16 0xFFFFFFFFFFFFFFFFFFFFFFFFFFFFFFFF MUL NOT AND SWAP1 DUP4 PUSH16 0xFFFFFFFFFFFFFFFFFFFFFFFFFFFFFFFF AND MUL OR SWAP1 SSTORE POP PUSH1 0x80 DUP3 ADD MLOAD DUP2 PUSH1 0x3 ADD PUSH1 0x0 PUSH2 0x100 EXP DUP2 SLOAD DUP2 PUSH16 0xFFFFFFFFFFFFFFFFFFFFFFFFFFFFFFFF MUL NOT AND SWAP1 DUP4 PUSH16 0xFFFFFFFFFFFFFFFFFFFFFFFFFFFFFFFF AND MUL OR SWAP1 SSTORE POP POP POP DUP4 PUSH1 0x23 PUSH1 0x0 DUP13 PUSH20 0xFFFFFFFFFFFFFFFFFFFFFFFFFFFFFFFFFFFFFFFF AND PUSH20 0xFFFFFFFFFFFFFFFFFFFFFFFFFFFFFFFFFFFFFFFF AND DUP2 MSTORE PUSH1 0x20 ADD SWAP1 DUP2 MSTORE PUSH1 0x20 ADD PUSH1 0x0 KECCAK256 DUP2 SWAP1 SSTORE POP DUP8 PUSH1 0x24 PUSH1 0x0 DUP3 DUP3 SLOAD PUSH2 0x397F SWAP2 SWAP1 PUSH2 0x95CF JUMP JUMPDEST SWAP3 POP POP DUP2 SWAP1 SSTORE POP PUSH2 0x39A5 PUSH2 0xDEAD DUP6 PUSH2 0x3E8 PUSH1 0x40 MLOAD DUP1 PUSH1 0x20 ADD PUSH1 0x40 MSTORE DUP1 PUSH1 0x0 DUP2 MSTORE POP PUSH2 0x49FB JUMP JUMPDEST PUSH1 0x0 PUSH2 0x3E8 PUSH2 0x39BE DUP11 DUP13 PUSH2 0x39B9 SWAP2 SWAP1 PUSH2 0x96B7 JUMP JUMPDEST PUSH2 0x4918 JUMP JUMPDEST PUSH2 0x39C8 SWAP2 SWAP1 PUSH2 0x9191 JUMP JUMPDEST SWAP1 POP PUSH2 0x39E5 DUP9 DUP7 DUP4 PUSH1 0x40 MLOAD DUP1 PUSH1 0x20 ADD PUSH1 0x40 MSTORE DUP1 PUSH1 0x0 DUP2 MSTORE POP PUSH2 0x49FB JUMP JUMPDEST PUSH32 0x17AA8D0E85DB1D0531A8181B5BB84E1D4ED744DB1CADD8814ACD3D181FF30137 DUP12 DUP7 PUSH1 0x40 MLOAD PUSH2 0x3A16 SWAP3 SWAP2 SWAP1 PUSH2 0x9771 JUMP JUMPDEST PUSH1 0x40 MLOAD DUP1 SWAP2 SUB SWAP1 LOG1 PUSH32 0x64B83944E79C3CE8D4C297411DE637C3E102D064677AAC0C163976EBDCD6F50E DUP12 DUP12 DUP12 DUP5 PUSH1 0x40 MLOAD PUSH2 0x3A53 SWAP5 SWAP4 SWAP3 SWAP2 SWAP1 PUSH2 0x97E0 JUMP JUMPDEST PUSH1 0x40 MLOAD DUP1 SWAP2 SUB SWAP1 LOG1 POP POP POP POP POP POP POP POP POP POP POP JUMP JUMPDEST PUSH1 0x2A DUP1 PUSH1 0x0 ADD PUSH1 0x0 SWAP1 SLOAD SWAP1 PUSH2 0x100 EXP SWAP1 DIV PUSH20 0xFFFFFFFFFFFFFFFFFFFFFFFFFFFFFFFFFFFFFFFF AND SWAP1 DUP1 PUSH1 0x1 ADD SLOAD SWAP1 DUP1 PUSH1 0x2 ADD SLOAD SWAP1 DUP1 PUSH1 0x3 ADD SLOAD SWAP1 DUP1 PUSH1 0x4 ADD SLOAD SWAP1 DUP1 PUSH1 0x5 ADD SLOAD SWAP1 POP DUP7 JUMP JUMPDEST PUSH1 0x0 PUSH1 0x1 PUSH1 0x0 DUP5 PUSH20 0xFFFFFFFFFFFFFFFFFFFFFFFFFFFFFFFFFFFFFFFF AND PUSH20 0xFFFFFFFFFFFFFFFFFFFFFFFFFFFFFFFFFFFFFFFF AND DUP2 MSTORE PUSH1 0x20 ADD SWAP1 DUP2 MSTORE PUSH1 0x20 ADD PUSH1 0x0 KECCAK256 PUSH1 0x0 DUP4 PUSH20 0xFFFFFFFFFFFFFFFFFFFFFFFFFFFFFFFFFFFFFFFF AND PUSH20 0xFFFFFFFFFFFFFFFFFFFFFFFFFFFFFFFFFFFFFFFF AND DUP2 MSTORE PUSH1 0x20 ADD SWAP1 DUP2 MSTORE PUSH1 0x20 ADD PUSH1 0x0 KECCAK256 PUSH1 0x0 SWAP1 SLOAD SWAP1 PUSH2 0x100 EXP SWAP1 DIV PUSH1 0xFF AND SWAP1 POP SWAP3 SWAP2 POP POP JUMP JUMPDEST DUP5 PUSH1 0x28 PUSH1 0x0 PUSH2 0x100 EXP DUP2 SLOAD DUP2 PUSH20 0xFFFFFFFFFFFFFFFFFFFFFFFFFFFFFFFFFFFFFFFF MUL NOT AND SWAP1 DUP4 PUSH20 0xFFFFFFFFFFFFFFFFFFFFFFFFFFFFFFFFFFFFFFFF AND MUL OR SWAP1 SSTORE POP DUP4 PUSH1 0x25 PUSH1 0x0 PUSH2 0x100 EXP DUP2 SLOAD DUP2 PUSH20 0xFFFFFFFFFFFFFFFFFFFFFFFFFFFFFFFFFFFFFFFF MUL NOT AND SWAP1 DUP4 PUSH20 0xFFFFFFFFFFFFFFFFFFFFFFFFFFFFFFFFFFFFFFFF AND MUL OR SWAP1 SSTORE POP DUP3 PUSH1 0x26 PUSH1 0x0 PUSH2 0x100 EXP DUP2 SLOAD DUP2 PUSH20 0xFFFFFFFFFFFFFFFFFFFFFFFFFFFFFFFFFFFFFFFF MUL NOT AND SWAP1 DUP4 PUSH20 0xFFFFFFFFFFFFFFFFFFFFFFFFFFFFFFFFFFFFFFFF AND MUL OR SWAP1 SSTORE POP DUP2 PUSH1 0x27 PUSH1 0x0 PUSH2 0x100 EXP DUP2 SLOAD DUP2 PUSH20 0xFFFFFFFFFFFFFFFFFFFFFFFFFFFFFFFFFFFFFFFF MUL NOT AND SWAP1 DUP4 PUSH20 0xFFFFFFFFFFFFFFFFFFFFFFFFFFFFFFFFFFFFFFFF AND MUL OR SWAP1 SSTORE POP PUSH2 0x3C52 PUSH2 0x2D36 JUMP JUMPDEST POP POP POP POP POP JUMP JUMPDEST PUSH2 0x3C61 PUSH2 0x462D JUMP JUMPDEST PUSH20 0xFFFFFFFFFFFFFFFFFFFFFFFFFFFFFFFFFFFFFFFF AND DUP6 PUSH20 0xFFFFFFFFFFFFFFFFFFFFFFFFFFFFFFFFFFFFFFFF AND EQ DUP1 PUSH2 0x3CA7 JUMPI POP PUSH2 0x3CA6 DUP6 PUSH2 0x3CA1 PUSH2 0x462D JUMP JUMPDEST PUSH2 0x3AB2 JUMP JUMPDEST JUMPDEST PUSH2 0x3CE6 JUMPI PUSH1 0x40 MLOAD PUSH32 0x8C379A000000000000000000000000000000000000000000000000000000000 DUP2 MSTORE PUSH1 0x4 ADD PUSH2 0x3CDD SWAP1 PUSH2 0x9B61 JUMP JUMPDEST PUSH1 0x40 MLOAD DUP1 SWAP2 SUB SWAP1 REVERT JUMPDEST PUSH2 0x3CF1 ADDRESS DUP7 DUP7 PUSH2 0x67C9 JUMP JUMPDEST PUSH2 0x3CFE DUP6 DUP6 DUP6 DUP6 DUP6 PUSH2 0x69C0 JUMP JUMPDEST POP POP POP POP POP JUMP JUMPDEST PUSH2 0x3D11 DUP5 DUP5 DUP5 DUP5 PUSH2 0x5AA9 JUMP JUMPDEST POP POP POP POP JUMP JUMPDEST PUSH2 0x3D1F PUSH2 0x462D JUMP JUMPDEST PUSH20 0xFFFFFFFFFFFFFFFFFFFFFFFFFFFFFFFFFFFFFFFF AND DUP4 PUSH20 0xFFFFFFFFFFFFFFFFFFFFFFFFFFFFFFFFFFFFFFFF AND EQ DUP1 PUSH2 0x3D65 JUMPI POP PUSH2 0x3D64 DUP4 PUSH2 0x3D5F PUSH2 0x462D JUMP JUMPDEST PUSH2 0x3AB2 JUMP JUMPDEST JUMPDEST PUSH2 0x3DA4 JUMPI PUSH1 0x40 MLOAD PUSH32 0x8C379A000000000000000000000000000000000000000000000000000000000 DUP2 MSTORE PUSH1 0x4 ADD PUSH2 0x3D9B SWAP1 PUSH2 0x9B61 JUMP JUMPDEST PUSH1 0x40 MLOAD DUP1 SWAP2 SUB SWAP1 REVERT JUMPDEST PUSH2 0x3DAF DUP4 DUP4 DUP4 PUSH2 0x6C42 JUMP JUMPDEST POP POP POP JUMP JUMPDEST PUSH1 0x0 DUP1 DUP4 DUP1 TIMESTAMP GT ISZERO PUSH1 0x9 PUSH1 0x3 ADD SWAP1 PUSH2 0x3E02 JUMPI PUSH1 0x40 MLOAD PUSH32 0x8C379A000000000000000000000000000000000000000000000000000000000 DUP2 MSTORE PUSH1 0x4 ADD PUSH2 0x3DF9 SWAP2 SWAP1 PUSH2 0x9111 JUMP JUMPDEST PUSH1 0x40 MLOAD DUP1 SWAP2 SUB SWAP1 REVERT JUMPDEST POP PUSH1 0x0 CALLER SWAP1 POP PUSH1 0x0 PUSH1 0x26 PUSH1 0x0 SWAP1 SLOAD SWAP1 PUSH2 0x100 EXP SWAP1 DIV PUSH20 0xFFFFFFFFFFFFFFFFFFFFFFFFFFFFFFFFFFFFFFFF AND PUSH20 0xFFFFFFFFFFFFFFFFFFFFFFFFFFFFFFFFFFFFFFFF AND DUP12 PUSH20 0xFFFFFFFFFFFFFFFFFFFFFFFFFFFFFFFFFFFFFFFF AND EQ ISZERO DUP1 ISZERO PUSH2 0x3EB5 JUMPI POP PUSH1 0x26 PUSH1 0x0 SWAP1 SLOAD SWAP1 PUSH2 0x100 EXP SWAP1 DIV PUSH20 0xFFFFFFFFFFFFFFFFFFFFFFFFFFFFFFFFFFFFFFFF AND PUSH20 0xFFFFFFFFFFFFFFFFFFFFFFFFFFFFFFFFFFFFFFFF AND DUP11 PUSH20 0xFFFFFFFFFFFFFFFFFFFFFFFFFFFFFFFFFFFFFFFF AND EQ JUMPDEST ISZERO PUSH2 0x3F79 JUMPI PUSH2 0x3EC4 DUP12 DUP11 PUSH2 0x63D6 JUMP JUMPDEST SWAP1 POP DUP8 DUP2 GT ISZERO PUSH1 0x9 PUSH1 0xA ADD SWAP1 PUSH2 0x3F10 JUMPI PUSH1 0x40 MLOAD PUSH32 0x8C379A000000000000000000000000000000000000000000000000000000000 DUP2 MSTORE PUSH1 0x4 ADD PUSH2 0x3F07 SWAP2 SWAP1 PUSH2 0x9111 JUMP JUMPDEST PUSH1 0x40 MLOAD DUP1 SWAP2 SUB SWAP1 REVERT JUMPDEST POP PUSH1 0x1 DUP2 GT PUSH1 0x9 PUSH1 0x5 ADD SWAP1 PUSH2 0x3F5B JUMPI PUSH1 0x40 MLOAD PUSH32 0x8C379A000000000000000000000000000000000000000000000000000000000 DUP2 MSTORE PUSH1 0x4 ADD PUSH2 0x3F52 SWAP2 SWAP1 PUSH2 0x9111 JUMP JUMPDEST PUSH1 0x40 MLOAD DUP1 SWAP2 SUB SWAP1 REVERT JUMPDEST POP PUSH2 0x3F67 DUP12 DUP4 DUP4 PUSH2 0x4748 JUMP JUMPDEST PUSH2 0x3F74 DUP12 PUSH1 0x0 DUP12 DUP10 PUSH2 0x5AA9 JUMP JUMPDEST PUSH2 0x4301 JUMP JUMPDEST PUSH1 0x26 PUSH1 0x0 SWAP1 SLOAD SWAP1 PUSH2 0x100 EXP SWAP1 DIV PUSH20 0xFFFFFFFFFFFFFFFFFFFFFFFFFFFFFFFFFFFFFFFF AND PUSH20 0xFFFFFFFFFFFFFFFFFFFFFFFFFFFFFFFFFFFFFFFF AND DUP12 PUSH20 0xFFFFFFFFFFFFFFFFFFFFFFFFFFFFFFFFFFFFFFFF AND EQ DUP1 ISZERO PUSH2 0x4024 JUMPI POP PUSH1 0x26 PUSH1 0x0 SWAP1 SLOAD SWAP1 PUSH2 0x100 EXP SWAP1 DIV PUSH20 0xFFFFFFFFFFFFFFFFFFFFFFFFFFFFFFFFFFFFFFFF AND PUSH20 0xFFFFFFFFFFFFFFFFFFFFFFFFFFFFFFFFFFFFFFFF AND DUP11 PUSH20 0xFFFFFFFFFFFFFFFFFFFFFFFFFFFFFFFFFFFFFFFF AND EQ ISZERO JUMPDEST ISZERO PUSH2 0x40E7 JUMPI PUSH2 0x4033 DUP11 DUP11 PUSH2 0x65C5 JUMP JUMPDEST SWAP1 POP DUP8 DUP2 GT ISZERO PUSH1 0x9 DUP1 ADD SWAP1 PUSH2 0x407E JUMPI PUSH1 0x40 MLOAD PUSH32 0x8C379A000000000000000000000000000000000000000000000000000000000 DUP2 MSTORE PUSH1 0x4 ADD PUSH2 0x4075 SWAP2 SWAP1 PUSH2 0x9111 JUMP JUMPDEST PUSH1 0x40 MLOAD DUP1 SWAP2 SUB SWAP1 REVERT JUMPDEST POP PUSH1 0x1 DUP2 GT PUSH1 0x9 PUSH1 0x14 ADD SWAP1 PUSH2 0x40C9 JUMPI PUSH1 0x40 MLOAD PUSH32 0x8C379A000000000000000000000000000000000000000000000000000000000 DUP2 MSTORE PUSH1 0x4 ADD PUSH2 0x40C0 SWAP2 SWAP1 PUSH2 0x9111 JUMP JUMPDEST PUSH1 0x40 MLOAD DUP1 SWAP2 SUB SWAP1 REVERT JUMPDEST POP PUSH2 0x40D5 DUP12 DUP4 DUP4 PUSH2 0x4748 JUMP JUMPDEST PUSH2 0x40E2 DUP11 DUP11 PUSH1 0x0 DUP10 PUSH2 0x5AA9 JUMP JUMPDEST PUSH2 0x4300 JUMP JUMPDEST PUSH1 0x26 PUSH1 0x0 SWAP1 SLOAD SWAP1 PUSH2 0x100 EXP SWAP1 DIV PUSH20 0xFFFFFFFFFFFFFFFFFFFFFFFFFFFFFFFFFFFFFFFF AND PUSH20 0xFFFFFFFFFFFFFFFFFFFFFFFFFFFFFFFFFFFFFFFF AND DUP12 PUSH20 0xFFFFFFFFFFFFFFFFFFFFFFFFFFFFFFFFFFFFFFFF AND EQ ISZERO DUP1 ISZERO PUSH2 0x4193 JUMPI POP PUSH1 0x26 PUSH1 0x0 SWAP1 SLOAD SWAP1 PUSH2 0x100 EXP SWAP1 DIV PUSH20 0xFFFFFFFFFFFFFFFFFFFFFFFFFFFFFFFFFFFFFFFF AND PUSH20 0xFFFFFFFFFFFFFFFFFFFFFFFFFFFFFFFFFFFFFFFF AND DUP11 PUSH20 0xFFFFFFFFFFFFFFFFFFFFFFFFFFFFFFFFFFFFFFFF AND EQ ISZERO JUMPDEST ISZERO PUSH2 0x42BE JUMPI PUSH1 0x0 PUSH2 0x41A4 DUP12 DUP12 PUSH2 0x65C5 JUMP JUMPDEST SWAP1 POP PUSH1 0x1 DUP2 GT PUSH1 0x9 PUSH1 0x14 ADD SWAP1 PUSH2 0x41F0 JUMPI PUSH1 0x40 MLOAD PUSH32 0x8C379A000000000000000000000000000000000000000000000000000000000 DUP2 MSTORE PUSH1 0x4 ADD PUSH2 0x41E7 SWAP2 SWAP1 PUSH2 0x9111 JUMP JUMPDEST PUSH1 0x40 MLOAD DUP1 SWAP2 SUB SWAP1 REVERT JUMPDEST POP PUSH2 0x41FB DUP13 DUP3 PUSH2 0x63D6 JUMP JUMPDEST SWAP2 POP DUP9 DUP3 GT ISZERO PUSH1 0x9 PUSH1 0xA ADD SWAP1 PUSH2 0x4247 JUMPI PUSH1 0x40 MLOAD PUSH32 0x8C379A000000000000000000000000000000000000000000000000000000000 DUP2 MSTORE PUSH1 0x4 ADD PUSH2 0x423E SWAP2 SWAP1 PUSH2 0x9111 JUMP JUMPDEST PUSH1 0x40 MLOAD DUP1 SWAP2 SUB SWAP1 REVERT JUMPDEST POP PUSH1 0x1 DUP3 GT PUSH1 0x9 PUSH1 0x5 ADD SWAP1 PUSH2 0x4292 JUMPI PUSH1 0x40 MLOAD PUSH32 0x8C379A000000000000000000000000000000000000000000000000000000000 DUP2 MSTORE PUSH1 0x4 ADD PUSH2 0x4289 SWAP2 SWAP1 PUSH2 0x9111 JUMP JUMPDEST PUSH1 0x40 MLOAD DUP1 SWAP2 SUB SWAP1 REVERT JUMPDEST POP PUSH2 0x429E DUP13 DUP5 DUP5 PUSH2 0x4748 JUMP JUMPDEST PUSH2 0x42AB DUP13 PUSH1 0x0 DUP4 ADDRESS PUSH2 0x5AA9 JUMP JUMPDEST PUSH2 0x42B8 DUP12 DUP12 PUSH1 0x0 DUP11 PUSH2 0x5AA9 JUMP JUMPDEST POP PUSH2 0x42FF JUMP JUMPDEST PUSH1 0x9 PUSH1 0xB ADD PUSH1 0x40 MLOAD PUSH32 0x8C379A000000000000000000000000000000000000000000000000000000000 DUP2 MSTORE PUSH1 0x4 ADD PUSH2 0x42F6 SWAP2 SWAP1 PUSH2 0x9111 JUMP JUMPDEST PUSH1 0x40 MLOAD DUP1 SWAP2 SUB SWAP1 REVERT JUMPDEST JUMPDEST JUMPDEST DUP1 DUP10 SWAP5 POP SWAP5 POP POP POP POP SWAP7 POP SWAP7 SWAP5 POP POP POP POP POP JUMP JUMPDEST PUSH2 0x431F DUP3 DUP3 PUSH2 0x21F0 JUMP JUMPDEST PUSH2 0x43F2 JUMPI PUSH1 0x1 PUSH1 0x4 PUSH1 0x0 DUP5 DUP2 MSTORE PUSH1 0x20 ADD SWAP1 DUP2 MSTORE PUSH1 0x20 ADD PUSH1 0x0 KECCAK256 PUSH1 0x0 ADD PUSH1 0x0 DUP4 PUSH20 0xFFFFFFFFFFFFFFFFFFFFFFFFFFFFFFFFFFFFFFFF AND PUSH20 0xFFFFFFFFFFFFFFFFFFFFFFFFFFFFFFFFFFFFFFFF AND DUP2 MSTORE PUSH1 0x20 ADD SWAP1 DUP2 MSTORE PUSH1 0x20 ADD PUSH1 0x0 KECCAK256 PUSH1 0x0 PUSH2 0x100 EXP DUP2 SLOAD DUP2 PUSH1 0xFF MUL NOT AND SWAP1 DUP4 ISZERO ISZERO MUL OR SWAP1 SSTORE POP PUSH2 0x4397 PUSH2 0x462D JUMP JUMPDEST PUSH20 0xFFFFFFFFFFFFFFFFFFFFFFFFFFFFFFFFFFFFFFFF AND DUP2 PUSH20 0xFFFFFFFFFFFFFFFFFFFFFFFFFFFFFFFFFFFFFFFF AND DUP4 PUSH32 0x2F8788117E7EFF1D82E926EC794901D17C78024A50270940304540A733656F0D PUSH1 0x40 MLOAD PUSH1 0x40 MLOAD DUP1 SWAP2 SUB SWAP1 LOG4 JUMPDEST POP POP JUMP JUMPDEST PUSH1 0x0 PUSH2 0x441E DUP4 PUSH1 0x0 ADD DUP4 PUSH20 0xFFFFFFFFFFFFFFFFFFFFFFFFFFFFFFFFFFFFFFFF AND PUSH1 0x0 SHL PUSH2 0x6E5F JUMP JUMPDEST SWAP1 POP SWAP3 SWAP2 POP POP JUMP JUMPDEST PUSH1 0x0 PUSH32 0x5A05180F00000000000000000000000000000000000000000000000000000000 PUSH28 0xFFFFFFFFFFFFFFFFFFFFFFFFFFFFFFFFFFFFFFFFFFFFFFFFFFFFFFFF NOT AND DUP3 PUSH28 0xFFFFFFFFFFFFFFFFFFFFFFFFFFFFFFFFFFFFFFFFFFFFFFFFFFFFFFFF NOT AND EQ DUP1 PUSH2 0x4499 JUMPI POP PUSH2 0x4498 DUP3 PUSH2 0x6ECF JUMP JUMPDEST JUMPDEST SWAP1 POP SWAP2 SWAP1 POP JUMP JUMPDEST PUSH1 0x0 PUSH1 0x29 PUSH1 0x0 SWAP1 SLOAD SWAP1 PUSH2 0x100 EXP SWAP1 DIV PUSH20 0xFFFFFFFFFFFFFFFFFFFFFFFFFFFFFFFFFFFFFFFF AND PUSH20 0xFFFFFFFFFFFFFFFFFFFFFFFFFFFFFFFFFFFFFFFF AND DUP3 PUSH20 0xFFFFFFFFFFFFFFFFFFFFFFFFFFFFFFFFFFFFFFFF AND EQ ISZERO PUSH2 0x4500 JUMPI SELFBALANCE SWAP1 POP PUSH2 0x457D JUMP JUMPDEST DUP2 PUSH20 0xFFFFFFFFFFFFFFFFFFFFFFFFFFFFFFFFFFFFFFFF AND PUSH4 0x70A08231 ADDRESS PUSH1 0x40 MLOAD DUP3 PUSH4 0xFFFFFFFF AND PUSH1 0xE0 SHL DUP2 MSTORE PUSH1 0x4 ADD PUSH2 0x4539 SWAP2 SWAP1 PUSH2 0x81B7 JUMP JUMPDEST PUSH1 0x20 PUSH1 0x40 MLOAD DUP1 DUP4 SUB DUP2 DUP7 GAS STATICCALL ISZERO DUP1 ISZERO PUSH2 0x4556 JUMPI RETURNDATASIZE PUSH1 0x0 DUP1 RETURNDATACOPY RETURNDATASIZE PUSH1 0x0 REVERT JUMPDEST POP POP POP POP PUSH1 0x40 MLOAD RETURNDATASIZE PUSH1 0x1F NOT PUSH1 0x1F DUP3 ADD AND DUP3 ADD DUP1 PUSH1 0x40 MSTORE POP DUP2 ADD SWAP1 PUSH2 0x457A SWAP2 SWAP1 PUSH2 0x9B96 JUMP JUMPDEST SWAP1 POP JUMPDEST SWAP2 SWAP1 POP JUMP JUMPDEST ADDRESS PUSH20 0xFFFFFFFFFFFFFFFFFFFFFFFFFFFFFFFFFFFFFFFF AND DUP4 PUSH20 0xFFFFFFFFFFFFFFFFFFFFFFFFFFFFFFFFFFFFFFFF AND EQ PUSH2 0x4627 JUMPI PUSH1 0x29 PUSH1 0x0 SWAP1 SLOAD SWAP1 PUSH2 0x100 EXP SWAP1 DIV PUSH20 0xFFFFFFFFFFFFFFFFFFFFFFFFFFFFFFFFFFFFFFFF AND PUSH20 0xFFFFFFFFFFFFFFFFFFFFFFFFFFFFFFFFFFFFFFFF AND DUP5 PUSH20 0xFFFFFFFFFFFFFFFFFFFFFFFFFFFFFFFFFFFFFFFF AND EQ ISZERO PUSH2 0x461A JUMPI PUSH2 0x4615 DUP4 DUP4 PUSH2 0x6F39 JUMP JUMPDEST PUSH2 0x4626 JUMP JUMPDEST PUSH2 0x4625 DUP5 DUP5 DUP5 PUSH2 0x7041 JUMP JUMPDEST JUMPDEST JUMPDEST POP POP POP POP JUMP JUMPDEST PUSH1 0x0 CALLER SWAP1 POP SWAP1 JUMP JUMPDEST PUSH2 0x463F DUP3 DUP3 PUSH2 0x21F0 JUMP JUMPDEST PUSH2 0x46CE JUMPI PUSH2 0x4664 DUP2 PUSH20 0xFFFFFFFFFFFFFFFFFFFFFFFFFFFFFFFFFFFFFFFF AND PUSH1 0x14 PUSH2 0x717F JUMP JUMPDEST PUSH2 0x4672 DUP4 PUSH1 0x0 SHR PUSH1 0x20 PUSH2 0x717F JUMP JUMPDEST PUSH1 0x40 MLOAD PUSH1 0x20 ADD PUSH2 0x4683 SWAP3 SWAP2 SWAP1 PUSH2 0x9C5B JUMP JUMPDEST PUSH1 0x40 MLOAD PUSH1 0x20 DUP2 DUP4 SUB SUB DUP2 MSTORE SWAP1 PUSH1 0x40 MSTORE PUSH1 0x40 MLOAD PUSH32 0x8C379A000000000000000000000000000000000000000000000000000000000 DUP2 MSTORE PUSH1 0x4 ADD PUSH2 0x46C5 SWAP2 SWAP1 PUSH2 0x826B JUMP JUMPDEST PUSH1 0x40 MLOAD DUP1 SWAP2 SUB SWAP1 REVERT JUMPDEST POP POP JUMP JUMPDEST PUSH2 0x46DC DUP3 DUP3 PUSH2 0x46E0 JUMP JUMPDEST POP POP JUMP JUMPDEST PUSH2 0x46EA DUP3 DUP3 PUSH2 0x4315 JUMP JUMPDEST PUSH2 0x470F DUP2 PUSH1 0x5 PUSH1 0x0 DUP6 DUP2 MSTORE PUSH1 0x20 ADD SWAP1 DUP2 MSTORE PUSH1 0x20 ADD PUSH1 0x0 KECCAK256 PUSH2 0x43F6 SWAP1 SWAP2 SWAP1 PUSH4 0xFFFFFFFF AND JUMP JUMPDEST POP POP POP JUMP JUMPDEST PUSH2 0x471E DUP3 DUP3 PUSH2 0x73BB JUMP JUMPDEST PUSH2 0x4743 DUP2 PUSH1 0x5 PUSH1 0x0 DUP6 DUP2 MSTORE PUSH1 0x20 ADD SWAP1 DUP2 MSTORE PUSH1 0x20 ADD PUSH1 0x0 KECCAK256 PUSH2 0x749D SWAP1 SWAP2 SWAP1 PUSH4 0xFFFFFFFF AND JUMP JUMPDEST POP POP POP JUMP JUMPDEST PUSH1 0x29 PUSH1 0x0 SWAP1 SLOAD SWAP1 PUSH2 0x100 EXP SWAP1 DIV PUSH20 0xFFFFFFFFFFFFFFFFFFFFFFFFFFFFFFFFFFFFFFFF AND PUSH20 0xFFFFFFFFFFFFFFFFFFFFFFFFFFFFFFFFFFFFFFFF AND DUP4 PUSH20 0xFFFFFFFFFFFFFFFFFFFFFFFFFFFFFFFFFFFFFFFF AND EQ PUSH2 0x482D JUMPI PUSH1 0x0 CALLVALUE EQ PUSH1 0x9 PUSH1 0x6 ADD SWAP1 PUSH2 0x47E7 JUMPI PUSH1 0x40 MLOAD PUSH32 0x8C379A000000000000000000000000000000000000000000000000000000000 DUP2 MSTORE PUSH1 0x4 ADD PUSH2 0x47DE SWAP2 SWAP1 PUSH2 0x9111 JUMP JUMPDEST PUSH1 0x40 MLOAD DUP1 SWAP2 SUB SWAP1 REVERT JUMPDEST POP ADDRESS PUSH20 0xFFFFFFFFFFFFFFFFFFFFFFFFFFFFFFFFFFFFFFFF AND DUP3 PUSH20 0xFFFFFFFFFFFFFFFFFFFFFFFFFFFFFFFFFFFFFFFF AND EQ PUSH2 0x4828 JUMPI PUSH2 0x4827 DUP4 DUP4 ADDRESS DUP5 PUSH2 0x74CD JUMP JUMPDEST JUMPDEST PUSH2 0x4913 JUMP JUMPDEST PUSH1 0x29 PUSH1 0x0 SWAP1 SLOAD SWAP1 PUSH2 0x100 EXP SWAP1 DIV PUSH20 0xFFFFFFFFFFFFFFFFFFFFFFFFFFFFFFFFFFFFFFFF AND PUSH20 0xFFFFFFFFFFFFFFFFFFFFFFFFFFFFFFFFFFFFFFFF AND DUP4 PUSH20 0xFFFFFFFFFFFFFFFFFFFFFFFFFFFFFFFFFFFFFFFF AND EQ ISZERO PUSH2 0x4912 JUMPI DUP1 CALLVALUE LT ISZERO PUSH1 0x9 PUSH1 0x13 ADD SWAP1 PUSH2 0x48CD JUMPI PUSH1 0x40 MLOAD PUSH32 0x8C379A000000000000000000000000000000000000000000000000000000000 DUP2 MSTORE PUSH1 0x4 ADD PUSH2 0x48C4 SWAP2 SWAP1 PUSH2 0x9111 JUMP JUMPDEST PUSH1 0x40 MLOAD DUP1 SWAP2 SUB SWAP1 REVERT JUMPDEST POP DUP1 CALLVALUE GT ISZERO PUSH2 0x4911 JUMPI PUSH2 0x4910 PUSH1 0x29 PUSH1 0x0 SWAP1 SLOAD SWAP1 PUSH2 0x100 EXP SWAP1 DIV PUSH20 0xFFFFFFFFFFFFFFFFFFFFFFFFFFFFFFFFFFFFFFFF AND CALLER DUP4 CALLVALUE PUSH2 0x4909 SWAP2 SWAP1 PUSH2 0x9191 JUMP JUMPDEST PUSH1 0x0 PUSH2 0x4582 JUMP JUMPDEST JUMPDEST JUMPDEST JUMPDEST POP POP POP JUMP JUMPDEST PUSH1 0x0 DUP1 PUSH1 0x2 PUSH1 0x1 DUP5 PUSH2 0x492A SWAP2 SWAP1 PUSH2 0x95CF JUMP JUMPDEST PUSH2 0x4934 SWAP2 SWAP1 PUSH2 0x9740 JUMP JUMPDEST SWAP1 POP DUP3 SWAP2 POP JUMPDEST DUP2 DUP2 LT ISZERO PUSH2 0x496F JUMPI DUP1 SWAP2 POP PUSH1 0x2 DUP2 DUP3 DUP6 PUSH2 0x4954 SWAP2 SWAP1 PUSH2 0x9740 JUMP JUMPDEST PUSH2 0x495E SWAP2 SWAP1 PUSH2 0x95CF JUMP JUMPDEST PUSH2 0x4968 SWAP2 SWAP1 PUSH2 0x9740 JUMP JUMPDEST SWAP1 POP PUSH2 0x493A JUMP JUMPDEST POP SWAP2 SWAP1 POP JUMP JUMPDEST PUSH1 0x0 DUP4 DUP4 GT DUP1 ISZERO PUSH2 0x4986 JUMPI POP PUSH1 0x0 DUP5 GT JUMPDEST DUP1 ISZERO PUSH2 0x4997 JUMPI POP PUSH1 0x0 PUSH1 0x2A PUSH1 0x1 ADD SLOAD GT JUMPDEST ISZERO PUSH2 0x49F4 JUMPI PUSH1 0x64 DUP5 PUSH2 0x49A9 SWAP2 SWAP1 PUSH2 0x96B7 JUMP JUMPDEST PUSH1 0x2A PUSH1 0x1 ADD SLOAD DUP5 PUSH2 0x49BA SWAP2 SWAP1 PUSH2 0x96B7 JUMP JUMPDEST PUSH2 0x49C4 SWAP2 SWAP1 PUSH2 0x95CF JUMP JUMPDEST DUP5 DUP5 PUSH2 0x49D0 SWAP2 SWAP1 PUSH2 0x9191 JUMP JUMPDEST PUSH1 0x64 DUP5 PUSH2 0x49DD SWAP2 SWAP1 PUSH2 0x96B7 JUMP JUMPDEST PUSH2 0x49E7 SWAP2 SWAP1 PUSH2 0x96B7 JUMP JUMPDEST PUSH2 0x49F1 SWAP2 SWAP1 PUSH2 0x9740 JUMP JUMPDEST SWAP1 POP JUMPDEST SWAP4 SWAP3 POP POP POP JUMP JUMPDEST PUSH1 0x0 PUSH20 0xFFFFFFFFFFFFFFFFFFFFFFFFFFFFFFFFFFFFFFFF AND DUP5 PUSH20 0xFFFFFFFFFFFFFFFFFFFFFFFFFFFFFFFFFFFFFFFF AND EQ ISZERO PUSH2 0x4A6B JUMPI PUSH1 0x40 MLOAD PUSH32 0x8C379A000000000000000000000000000000000000000000000000000000000 DUP2 MSTORE PUSH1 0x4 ADD PUSH2 0x4A62 SWAP1 PUSH2 0x9D07 JUMP JUMPDEST PUSH1 0x40 MLOAD DUP1 SWAP2 SUB SWAP1 REVERT JUMPDEST PUSH1 0x0 PUSH2 0x4A75 PUSH2 0x462D JUMP JUMPDEST SWAP1 POP PUSH2 0x4A96 DUP2 PUSH1 0x0 DUP8 PUSH2 0x4A87 DUP9 PUSH2 0x760E JUMP JUMPDEST PUSH2 0x4A90 DUP9 PUSH2 0x760E JUMP JUMPDEST DUP8 PUSH2 0x7688 JUMP JUMPDEST DUP3 PUSH1 0x0 DUP1 DUP7 DUP2 MSTORE PUSH1 0x20 ADD SWAP1 DUP2 MSTORE PUSH1 0x20 ADD PUSH1 0x0 KECCAK256 PUSH1 0x0 DUP8 PUSH20 0xFFFFFFFFFFFFFFFFFFFFFFFFFFFFFFFFFFFFFFFF AND PUSH20 0xFFFFFFFFFFFFFFFFFFFFFFFFFFFFFFFFFFFFFFFF AND DUP2 MSTORE PUSH1 0x20 ADD SWAP1 DUP2 MSTORE PUSH1 0x20 ADD PUSH1 0x0 KECCAK256 PUSH1 0x0 DUP3 DUP3 SLOAD PUSH2 0x4AF5 SWAP2 SWAP1 PUSH2 0x95CF JUMP JUMPDEST SWAP3 POP POP DUP2 SWAP1 SSTORE POP DUP5 PUSH20 0xFFFFFFFFFFFFFFFFFFFFFFFFFFFFFFFFFFFFFFFF AND PUSH1 0x0 PUSH20 0xFFFFFFFFFFFFFFFFFFFFFFFFFFFFFFFFFFFFFFFF AND DUP3 PUSH20 0xFFFFFFFFFFFFFFFFFFFFFFFFFFFFFFFFFFFFFFFF AND PUSH32 0xC3D58168C5AE7397731D063D5BBF3D657854427343F4C083240F7AACAA2D0F62 DUP8 DUP8 PUSH1 0x40 MLOAD PUSH2 0x4B73 SWAP3 SWAP2 SWAP1 PUSH2 0x8B94 JUMP JUMPDEST PUSH1 0x40 MLOAD DUP1 SWAP2 SUB SWAP1 LOG4 PUSH2 0x4B8A DUP2 PUSH1 0x0 DUP8 DUP8 DUP8 DUP8 PUSH2 0x7802 JUMP JUMPDEST POP POP POP POP POP JUMP JUMPDEST PUSH1 0x0 DUP3 PUSH1 0x0 PUSH1 0x23 PUSH1 0x0 DUP4 PUSH20 0xFFFFFFFFFFFFFFFFFFFFFFFFFFFFFFFFFFFFFFFF AND PUSH20 0xFFFFFFFFFFFFFFFFFFFFFFFFFFFFFFFFFFFFFFFF AND DUP2 MSTORE PUSH1 0x20 ADD SWAP1 DUP2 MSTORE PUSH1 0x20 ADD PUSH1 0x0 KECCAK256 SLOAD GT DUP1 ISZERO PUSH2 0x4C31 JUMPI POP PUSH1 0x26 PUSH1 0x0 SWAP1 SLOAD SWAP1 PUSH2 0x100 EXP SWAP1 DIV PUSH20 0xFFFFFFFFFFFFFFFFFFFFFFFFFFFFFFFFFFFFFFFF AND PUSH20 0xFFFFFFFFFFFFFFFFFFFFFFFFFFFFFFFFFFFFFFFF AND DUP2 PUSH20 0xFFFFFFFFFFFFFFFFFFFFFFFFFFFFFFFFFFFFFFFF AND EQ ISZERO JUMPDEST PUSH1 0x9 PUSH1 0x2 ADD SWAP1 PUSH2 0x4C77 JUMPI PUSH1 0x40 MLOAD PUSH32 0x8C379A000000000000000000000000000000000000000000000000000000000 DUP2 MSTORE PUSH1 0x4 ADD PUSH2 0x4C6E SWAP2 SWAP1 PUSH2 0x9111 JUMP JUMPDEST PUSH1 0x40 MLOAD DUP1 SWAP2 SUB SWAP1 REVERT JUMPDEST POP PUSH1 0x0 PUSH1 0x23 PUSH1 0x0 DUP7 PUSH20 0xFFFFFFFFFFFFFFFFFFFFFFFFFFFFFFFFFFFFFFFF AND PUSH20 0xFFFFFFFFFFFFFFFFFFFFFFFFFFFFFFFFFFFFFFFF AND DUP2 MSTORE PUSH1 0x20 ADD SWAP1 DUP2 MSTORE PUSH1 0x20 ADD PUSH1 0x0 KECCAK256 SLOAD SWAP1 POP PUSH2 0x4D76 DUP5 PUSH1 0x22 DUP4 DUP2 SLOAD DUP2 LT PUSH2 0x4CD4 JUMPI PUSH2 0x4CD3 PUSH2 0x9133 JUMP JUMPDEST JUMPDEST SWAP1 PUSH1 0x0 MSTORE PUSH1 0x20 PUSH1 0x0 KECCAK256 SWAP1 PUSH1 0x4 MUL ADD PUSH1 0x2 ADD PUSH1 0x0 SWAP1 SLOAD SWAP1 PUSH2 0x100 EXP SWAP1 DIV PUSH16 0xFFFFFFFFFFFFFFFFFFFFFFFFFFFFFFFF AND PUSH16 0xFFFFFFFFFFFFFFFFFFFFFFFFFFFFFFFF AND PUSH1 0x22 DUP5 DUP2 SLOAD DUP2 LT PUSH2 0x4D28 JUMPI PUSH2 0x4D27 PUSH2 0x9133 JUMP JUMPDEST JUMPDEST SWAP1 PUSH1 0x0 MSTORE PUSH1 0x20 PUSH1 0x0 KECCAK256 SWAP1 PUSH1 0x4 MUL ADD PUSH1 0x2 ADD PUSH1 0x10 SWAP1 SLOAD SWAP1 PUSH2 0x100 EXP SWAP1 DIV PUSH16 0xFFFFFFFFFFFFFFFFFFFFFFFFFFFFFFFF AND PUSH16 0xFFFFFFFFFFFFFFFFFFFFFFFFFFFFFFFF AND PUSH2 0x4D71 DUP6 PUSH2 0x56C6 JUMP JUMPDEST PUSH2 0x79DA JUMP JUMPDEST SWAP3 POP POP POP SWAP3 SWAP2 POP POP JUMP JUMPDEST PUSH1 0x0 DUP3 PUSH1 0x0 PUSH1 0x23 PUSH1 0x0 DUP4 PUSH20 0xFFFFFFFFFFFFFFFFFFFFFFFFFFFFFFFFFFFFFFFF AND PUSH20 0xFFFFFFFFFFFFFFFFFFFFFFFFFFFFFFFFFFFFFFFF AND DUP2 MSTORE PUSH1 0x20 ADD SWAP1 DUP2 MSTORE PUSH1 0x20 ADD PUSH1 0x0 KECCAK256 SLOAD GT DUP1 ISZERO PUSH2 0x4E20 JUMPI POP PUSH1 0x26 PUSH1 0x0 SWAP1 SLOAD SWAP1 PUSH2 0x100 EXP SWAP1 DIV PUSH20 0xFFFFFFFFFFFFFFFFFFFFFFFFFFFFFFFFFFFFFFFF AND PUSH20 0xFFFFFFFFFFFFFFFFFFFFFFFFFFFFFFFFFFFFFFFF AND DUP2 PUSH20 0xFFFFFFFFFFFFFFFFFFFFFFFFFFFFFFFFFFFFFFFF AND EQ ISZERO JUMPDEST PUSH1 0x9 PUSH1 0x2 ADD SWAP1 PUSH2 0x4E66 JUMPI PUSH1 0x40 MLOAD PUSH32 0x8C379A000000000000000000000000000000000000000000000000000000000 DUP2 MSTORE PUSH1 0x4 ADD PUSH2 0x4E5D SWAP2 SWAP1 PUSH2 0x9111 JUMP JUMPDEST PUSH1 0x40 MLOAD DUP1 SWAP2 SUB SWAP1 REVERT JUMPDEST POP PUSH1 0x0 PUSH1 0x23 PUSH1 0x0 DUP7 PUSH20 0xFFFFFFFFFFFFFFFFFFFFFFFFFFFFFFFFFFFFFFFF AND PUSH20 0xFFFFFFFFFFFFFFFFFFFFFFFFFFFFFFFFFFFFFFFF AND DUP2 MSTORE PUSH1 0x20 ADD SWAP1 DUP2 MSTORE PUSH1 0x20 ADD PUSH1 0x0 KECCAK256 SLOAD SWAP1 POP PUSH2 0x4F65 DUP5 PUSH1 0x22 DUP4 DUP2 SLOAD DUP2 LT PUSH2 0x4EC3 JUMPI PUSH2 0x4EC2 PUSH2 0x9133 JUMP JUMPDEST JUMPDEST SWAP1 PUSH1 0x0 MSTORE PUSH1 0x20 PUSH1 0x0 KECCAK256 SWAP1 PUSH1 0x4 MUL ADD PUSH1 0x2 ADD PUSH1 0x10 SWAP1 SLOAD SWAP1 PUSH2 0x100 EXP SWAP1 DIV PUSH16 0xFFFFFFFFFFFFFFFFFFFFFFFFFFFFFFFF AND PUSH16 0xFFFFFFFFFFFFFFFFFFFFFFFFFFFFFFFF AND PUSH1 0x22 DUP5 DUP2 SLOAD DUP2 LT PUSH2 0x4F17 JUMPI PUSH2 0x4F16 PUSH2 0x9133 JUMP JUMPDEST JUMPDEST SWAP1 PUSH1 0x0 MSTORE PUSH1 0x20 PUSH1 0x0 KECCAK256 SWAP1 PUSH1 0x4 MUL ADD PUSH1 0x2 ADD PUSH1 0x0 SWAP1 SLOAD SWAP1 PUSH2 0x100 EXP SWAP1 DIV PUSH16 0xFFFFFFFFFFFFFFFFFFFFFFFFFFFFFFFF AND PUSH16 0xFFFFFFFFFFFFFFFFFFFFFFFFFFFFFFFF AND PUSH2 0x4F60 DUP6 PUSH2 0x56C6 JUMP JUMPDEST PUSH2 0x79DA JUMP JUMPDEST SWAP3 POP POP POP SWAP3 SWAP2 POP POP JUMP JUMPDEST PUSH1 0x0 PUSH1 0x23 PUSH1 0x0 DUP6 PUSH20 0xFFFFFFFFFFFFFFFFFFFFFFFFFFFFFFFFFFFFFFFF AND PUSH20 0xFFFFFFFFFFFFFFFFFFFFFFFFFFFFFFFFFFFFFFFF AND DUP2 MSTORE PUSH1 0x20 ADD SWAP1 DUP2 MSTORE PUSH1 0x20 ADD PUSH1 0x0 KECCAK256 SLOAD SWAP1 POP PUSH1 0x0 PUSH2 0x4FBE DUP6 PUSH2 0x44A0 JUMP JUMPDEST SWAP1 POP PUSH1 0x0 PUSH1 0x22 DUP4 DUP2 SLOAD DUP2 LT PUSH2 0x4FD6 JUMPI PUSH2 0x4FD5 PUSH2 0x9133 JUMP JUMPDEST JUMPDEST SWAP1 PUSH1 0x0 MSTORE PUSH1 0x20 PUSH1 0x0 KECCAK256 SWAP1 PUSH1 0x4 MUL ADD PUSH1 0x2 ADD PUSH1 0x0 SWAP1 SLOAD SWAP1 PUSH2 0x100 EXP SWAP1 DIV PUSH16 0xFFFFFFFFFFFFFFFFFFFFFFFFFFFFFFFF AND PUSH16 0xFFFFFFFFFFFFFFFFFFFFFFFFFFFFFFFF AND DUP3 PUSH2 0x5021 SWAP2 SWAP1 PUSH2 0x9191 JUMP JUMPDEST SWAP1 POP PUSH1 0x0 PUSH1 0x24 SLOAD PUSH2 0x5053 PUSH1 0x26 PUSH1 0x0 SWAP1 SLOAD SWAP1 PUSH2 0x100 EXP SWAP1 DIV PUSH20 0xFFFFFFFFFFFFFFFFFFFFFFFFFFFFFFFFFFFFFFFF AND PUSH2 0x44A0 JUMP JUMPDEST PUSH2 0x505D SWAP2 SWAP1 PUSH2 0x9191 JUMP JUMPDEST SWAP1 POP PUSH1 0x0 PUSH1 0x3 PUSH1 0x0 DUP7 DUP2 MSTORE PUSH1 0x20 ADD SWAP1 DUP2 MSTORE PUSH1 0x20 ADD PUSH1 0x0 KECCAK256 SLOAD SWAP1 POP PUSH1 0x0 DUP2 DUP9 PUSH1 0x22 DUP9 DUP2 SLOAD DUP2 LT PUSH2 0x508F JUMPI PUSH2 0x508E PUSH2 0x9133 JUMP JUMPDEST JUMPDEST SWAP1 PUSH1 0x0 MSTORE PUSH1 0x20 PUSH1 0x0 KECCAK256 SWAP1 PUSH1 0x4 MUL ADD PUSH1 0x2 ADD PUSH1 0x0 SWAP1 SLOAD SWAP1 PUSH2 0x100 EXP SWAP1 DIV PUSH16 0xFFFFFFFFFFFFFFFFFFFFFFFFFFFFFFFF AND PUSH16 0xFFFFFFFFFFFFFFFFFFFFFFFFFFFFFFFF AND PUSH2 0x50D9 SWAP2 SWAP1 PUSH2 0x96B7 JUMP JUMPDEST PUSH2 0x50E3 SWAP2 SWAP1 PUSH2 0x9740 JUMP JUMPDEST SWAP1 POP PUSH1 0x0 DUP3 DUP10 PUSH1 0x22 DUP10 DUP2 SLOAD DUP2 LT PUSH2 0x50FD JUMPI PUSH2 0x50FC PUSH2 0x9133 JUMP JUMPDEST JUMPDEST SWAP1 PUSH1 0x0 MSTORE PUSH1 0x20 PUSH1 0x0 KECCAK256 SWAP1 PUSH1 0x4 MUL ADD PUSH1 0x2 ADD PUSH1 0x10 SWAP1 SLOAD SWAP1 PUSH2 0x100 EXP SWAP1 DIV PUSH16 0xFFFFFFFFFFFFFFFFFFFFFFFFFFFFFFFF AND PUSH16 0xFFFFFFFFFFFFFFFFFFFFFFFFFFFFFFFF AND PUSH2 0x5147 SWAP2 SWAP1 PUSH2 0x96B7 JUMP JUMPDEST PUSH2 0x5151 SWAP2 SWAP1 PUSH2 0x9740 JUMP JUMPDEST SWAP1 POP PUSH1 0x0 PUSH2 0x520F PUSH1 0x22 DUP10 DUP2 SLOAD DUP2 LT PUSH2 0x516C JUMPI PUSH2 0x516B PUSH2 0x9133 JUMP JUMPDEST JUMPDEST SWAP1 PUSH1 0x0 MSTORE PUSH1 0x20 PUSH1 0x0 KECCAK256 SWAP1 PUSH1 0x4 MUL ADD PUSH1 0x2 ADD PUSH1 0x10 SWAP1 SLOAD SWAP1 PUSH2 0x100 EXP SWAP1 DIV PUSH16 0xFFFFFFFFFFFFFFFFFFFFFFFFFFFFFFFF AND PUSH16 0xFFFFFFFFFFFFFFFFFFFFFFFFFFFFFFFF AND PUSH1 0x22 DUP11 DUP2 SLOAD DUP2 LT PUSH2 0x51C0 JUMPI PUSH2 0x51BF PUSH2 0x9133 JUMP JUMPDEST JUMPDEST SWAP1 PUSH1 0x0 MSTORE PUSH1 0x20 PUSH1 0x0 KECCAK256 SWAP1 PUSH1 0x4 MUL ADD PUSH1 0x2 ADD PUSH1 0x0 SWAP1 SLOAD SWAP1 PUSH2 0x100 EXP SWAP1 DIV PUSH16 0xFFFFFFFFFFFFFFFFFFFFFFFFFFFFFFFF AND PUSH16 0xFFFFFFFFFFFFFFFFFFFFFFFFFFFFFFFF AND PUSH2 0x520A SWAP2 SWAP1 PUSH2 0x96B7 JUMP JUMPDEST PUSH2 0x4918 JUMP JUMPDEST SWAP1 POP PUSH1 0x0 PUSH2 0x5271 PUSH1 0x22 DUP11 DUP2 SLOAD DUP2 LT PUSH2 0x522A JUMPI PUSH2 0x5229 PUSH2 0x9133 JUMP JUMPDEST JUMPDEST SWAP1 PUSH1 0x0 MSTORE PUSH1 0x20 PUSH1 0x0 KECCAK256 SWAP1 PUSH1 0x4 MUL ADD PUSH1 0x3 ADD PUSH1 0x0 SWAP1 SLOAD SWAP1 PUSH2 0x100 EXP SWAP1 DIV PUSH16 0xFFFFFFFFFFFFFFFFFFFFFFFFFFFFFFFF AND PUSH16 0xFFFFFFFFFFFFFFFFFFFFFFFFFFFFFFFF AND DUP4 DUP8 PUSH2 0x4975 JUMP JUMPDEST SWAP1 POP PUSH1 0x0 DUP2 GT ISZERO PUSH2 0x52BD JUMPI PUSH2 0x52BC PUSH1 0x2A PUSH1 0x0 ADD PUSH1 0x0 SWAP1 SLOAD SWAP1 PUSH2 0x100 EXP SWAP1 DIV PUSH20 0xFFFFFFFFFFFFFFFFFFFFFFFFFFFFFFFFFFFFFFFF AND DUP11 DUP4 PUSH1 0x40 MLOAD DUP1 PUSH1 0x20 ADD PUSH1 0x40 MSTORE DUP1 PUSH1 0x0 DUP2 MSTORE POP PUSH2 0x49FB JUMP JUMPDEST JUMPDEST DUP3 DUP7 PUSH1 0x24 SLOAD PUSH2 0x52CC SWAP2 SWAP1 PUSH2 0x95CF JUMP JUMPDEST PUSH2 0x52D6 SWAP2 SWAP1 PUSH2 0x9191 JUMP JUMPDEST PUSH1 0x24 DUP2 SWAP1 SSTORE POP DUP4 DUP8 PUSH1 0x22 DUP12 DUP2 SLOAD DUP2 LT PUSH2 0x52F2 JUMPI PUSH2 0x52F1 PUSH2 0x9133 JUMP JUMPDEST JUMPDEST SWAP1 PUSH1 0x0 MSTORE PUSH1 0x20 PUSH1 0x0 KECCAK256 SWAP1 PUSH1 0x4 MUL ADD PUSH1 0x2 ADD PUSH1 0x0 SWAP1 SLOAD SWAP1 PUSH2 0x100 EXP SWAP1 DIV PUSH16 0xFFFFFFFFFFFFFFFFFFFFFFFFFFFFFFFF AND PUSH2 0x532A SWAP2 SWAP1 PUSH2 0x979A JUMP JUMPDEST PUSH2 0x5334 SWAP2 SWAP1 PUSH2 0x98B7 JUMP JUMPDEST PUSH1 0x22 DUP11 DUP2 SLOAD DUP2 LT PUSH2 0x5348 JUMPI PUSH2 0x5347 PUSH2 0x9133 JUMP JUMPDEST JUMPDEST SWAP1 PUSH1 0x0 MSTORE PUSH1 0x20 PUSH1 0x0 KECCAK256 SWAP1 PUSH1 0x4 MUL ADD PUSH1 0x2 ADD PUSH1 0x0 PUSH2 0x100 EXP DUP2 SLOAD DUP2 PUSH16 0xFFFFFFFFFFFFFFFFFFFFFFFFFFFFFFFF MUL NOT AND SWAP1 DUP4 PUSH16 0xFFFFFFFFFFFFFFFFFFFFFFFFFFFFFFFF AND MUL OR SWAP1 SSTORE POP DUP3 DUP7 PUSH1 0x22 DUP12 DUP2 SLOAD DUP2 LT PUSH2 0x53A5 JUMPI PUSH2 0x53A4 PUSH2 0x9133 JUMP JUMPDEST JUMPDEST SWAP1 PUSH1 0x0 MSTORE PUSH1 0x20 PUSH1 0x0 KECCAK256 SWAP1 PUSH1 0x4 MUL ADD PUSH1 0x2 ADD PUSH1 0x10 SWAP1 SLOAD SWAP1 PUSH2 0x100 EXP SWAP1 DIV PUSH16 0xFFFFFFFFFFFFFFFFFFFFFFFFFFFFFFFF AND PUSH2 0x53DD SWAP2 SWAP1 PUSH2 0x979A JUMP JUMPDEST PUSH2 0x53E7 SWAP2 SWAP1 PUSH2 0x98B7 JUMP JUMPDEST PUSH1 0x22 DUP11 DUP2 SLOAD DUP2 LT PUSH2 0x53FB JUMPI PUSH2 0x53FA PUSH2 0x9133 JUMP JUMPDEST JUMPDEST SWAP1 PUSH1 0x0 MSTORE PUSH1 0x20 PUSH1 0x0 KECCAK256 SWAP1 PUSH1 0x4 MUL ADD PUSH1 0x2 ADD PUSH1 0x10 PUSH2 0x100 EXP DUP2 SLOAD DUP2 PUSH16 0xFFFFFFFFFFFFFFFFFFFFFFFFFFFFFFFF MUL NOT AND SWAP1 DUP4 PUSH16 0xFFFFFFFFFFFFFFFFFFFFFFFFFFFFFFFF AND MUL OR SWAP1 SSTORE POP PUSH2 0x54FC PUSH1 0x22 DUP11 DUP2 SLOAD DUP2 LT PUSH2 0x5459 JUMPI PUSH2 0x5458 PUSH2 0x9133 JUMP JUMPDEST JUMPDEST SWAP1 PUSH1 0x0 MSTORE PUSH1 0x20 PUSH1 0x0 KECCAK256 SWAP1 PUSH1 0x4 MUL ADD PUSH1 0x2 ADD PUSH1 0x10 SWAP1 SLOAD SWAP1 PUSH2 0x100 EXP SWAP1 DIV PUSH16 0xFFFFFFFFFFFFFFFFFFFFFFFFFFFFFFFF AND PUSH16 0xFFFFFFFFFFFFFFFFFFFFFFFFFFFFFFFF AND PUSH1 0x22 DUP12 DUP2 SLOAD DUP2 LT PUSH2 0x54AD JUMPI PUSH2 0x54AC PUSH2 0x9133 JUMP JUMPDEST JUMPDEST SWAP1 PUSH1 0x0 MSTORE PUSH1 0x20 PUSH1 0x0 KECCAK256 SWAP1 PUSH1 0x4 MUL ADD PUSH1 0x2 ADD PUSH1 0x0 SWAP1 SLOAD SWAP1 PUSH2 0x100 EXP SWAP1 DIV PUSH16 0xFFFFFFFFFFFFFFFFFFFFFFFFFFFFFFFF AND PUSH16 0xFFFFFFFFFFFFFFFFFFFFFFFFFFFFFFFF AND PUSH2 0x54F7 SWAP2 SWAP1 PUSH2 0x96B7 JUMP JUMPDEST PUSH2 0x4918 JUMP JUMPDEST PUSH1 0x22 DUP11 DUP2 SLOAD DUP2 LT PUSH2 0x5510 JUMPI PUSH2 0x550F PUSH2 0x9133 JUMP JUMPDEST JUMPDEST SWAP1 PUSH1 0x0 MSTORE PUSH1 0x20 PUSH1 0x0 KECCAK256 SWAP1 PUSH1 0x4 MUL ADD PUSH1 0x3 ADD PUSH1 0x0 PUSH2 0x100 EXP DUP2 SLOAD DUP2 PUSH16 0xFFFFFFFFFFFFFFFFFFFFFFFFFFFFFFFF MUL NOT AND SWAP1 DUP4 PUSH16 0xFFFFFFFFFFFFFFFFFFFFFFFFFFFFFFFF AND MUL OR SWAP1 SSTORE POP PUSH2 0x5562 CALLER DUP11 DUP14 PUSH2 0x3D17 JUMP JUMPDEST PUSH1 0x26 PUSH1 0x0 SWAP1 SLOAD SWAP1 PUSH2 0x100 EXP SWAP1 DIV PUSH20 0xFFFFFFFFFFFFFFFFFFFFFFFFFFFFFFFFFFFFFFFF AND PUSH20 0xFFFFFFFFFFFFFFFFFFFFFFFFFFFFFFFFFFFFFFFF AND PUSH4 0x18A8AD87 ADDRESS DUP6 PUSH1 0x40 MLOAD DUP4 PUSH4 0xFFFFFFFF AND PUSH1 0xE0 SHL DUP2 MSTORE PUSH1 0x4 ADD PUSH2 0x55BF SWAP3 SWAP2 SWAP1 PUSH2 0x9771 JUMP JUMPDEST PUSH1 0x0 PUSH1 0x40 MLOAD DUP1 DUP4 SUB DUP2 PUSH1 0x0 DUP8 DUP1 EXTCODESIZE ISZERO DUP1 ISZERO PUSH2 0x55D9 JUMPI PUSH1 0x0 DUP1 REVERT JUMPDEST POP GAS CALL ISZERO DUP1 ISZERO PUSH2 0x55ED JUMPI RETURNDATASIZE PUSH1 0x0 DUP1 RETURNDATACOPY RETURNDATASIZE PUSH1 0x0 REVERT JUMPDEST POP POP POP POP POP POP PUSH2 0x5600 DUP11 DUP10 DUP5 PUSH1 0x1 PUSH2 0x4582 JUMP JUMPDEST PUSH1 0x0 PUSH2 0x560B DUP12 PUSH2 0x44A0 JUMP JUMPDEST SWAP1 POP DUP7 DUP4 DUP3 PUSH2 0x561A SWAP2 SWAP1 PUSH2 0x95CF JUMP JUMPDEST EQ PUSH1 0x9 PUSH1 0x4 ADD SWAP1 PUSH2 0x5661 JUMPI PUSH1 0x40 MLOAD PUSH32 0x8C379A000000000000000000000000000000000000000000000000000000000 DUP2 MSTORE PUSH1 0x4 ADD PUSH2 0x5658 SWAP2 SWAP1 PUSH2 0x9111 JUMP JUMPDEST PUSH1 0x40 MLOAD DUP1 SWAP2 SUB SWAP1 REVERT JUMPDEST POP PUSH32 0x1DC8BB69DF2B8E91FBDCBFCF93D951B3F0000F085A95FE3F7946D6161439245D DUP12 DUP5 DUP5 DUP14 PUSH1 0x40 MLOAD PUSH2 0x5697 SWAP5 SWAP4 SWAP3 SWAP2 SWAP1 PUSH2 0x97E0 JUMP JUMPDEST PUSH1 0x40 MLOAD DUP1 SWAP2 SUB SWAP1 LOG1 POP POP POP POP POP POP POP POP POP POP POP JUMP JUMPDEST PUSH1 0x0 PUSH2 0x56BB DUP4 PUSH1 0x0 ADD DUP4 PUSH2 0x7A85 JUMP JUMPDEST PUSH1 0x0 SHR SWAP1 POP SWAP3 SWAP2 POP POP JUMP JUMPDEST PUSH1 0x0 DUP1 PUSH2 0x56D1 PUSH2 0x7AB0 JUMP JUMPDEST SWAP1 POP PUSH1 0x0 PUSH1 0x8 PUSH1 0x1 DUP4 PUSH2 0x56E4 SWAP2 SWAP1 PUSH2 0x95CF JUMP JUMPDEST PUSH2 0x56EE SWAP2 SWAP1 PUSH2 0x9D27 JUMP JUMPDEST SWAP1 POP PUSH1 0x0 DUP1 JUMPDEST PUSH1 0x8 DUP2 LT ISZERO PUSH2 0x578E JUMPI DUP4 DUP2 EQ DUP1 PUSH2 0x570A JUMPI POP DUP3 DUP2 EQ JUMPDEST ISZERO PUSH2 0x5714 JUMPI PUSH2 0x577B JUMP JUMPDEST PUSH1 0x22 DUP7 DUP2 SLOAD DUP2 LT PUSH2 0x5728 JUMPI PUSH2 0x5727 PUSH2 0x9133 JUMP JUMPDEST JUMPDEST SWAP1 PUSH1 0x0 MSTORE PUSH1 0x20 PUSH1 0x0 KECCAK256 SWAP1 PUSH1 0x4 MUL ADD PUSH1 0x1 ADD DUP2 PUSH1 0x8 DUP2 LT PUSH2 0x574B JUMPI PUSH2 0x574A PUSH2 0x9133 JUMP JUMPDEST JUMPDEST PUSH1 0x8 SWAP2 DUP3 DUP3 DIV ADD SWAP2 SWAP1 MOD PUSH1 0x4 MUL SWAP1 SLOAD SWAP1 PUSH2 0x100 EXP SWAP1 DIV PUSH4 0xFFFFFFFF AND PUSH4 0xFFFFFFFF AND DUP3 PUSH2 0x5778 SWAP2 SWAP1 PUSH2 0x95CF JUMP JUMPDEST SWAP2 POP JUMPDEST DUP1 DUP1 PUSH2 0x5786 SWAP1 PUSH2 0x91C5 JUMP JUMPDEST SWAP2 POP POP PUSH2 0x56F4 JUMP JUMPDEST POP PUSH8 0xDE0B6B3A7640000 DUP2 PUSH2 0x57A3 SWAP2 SWAP1 PUSH2 0x96B7 JUMP JUMPDEST SWAP1 POP PUSH1 0x0 PUSH2 0x2710 PUSH1 0x2A PUSH1 0x4 ADD SLOAD PUSH1 0x22 DUP9 DUP2 SLOAD DUP2 LT PUSH2 0x57C4 JUMPI PUSH2 0x57C3 PUSH2 0x9133 JUMP JUMPDEST JUMPDEST SWAP1 PUSH1 0x0 MSTORE PUSH1 0x20 PUSH1 0x0 KECCAK256 SWAP1 PUSH1 0x4 MUL ADD PUSH1 0x2 ADD PUSH1 0x10 SWAP1 SLOAD SWAP1 PUSH2 0x100 EXP SWAP1 DIV PUSH16 0xFFFFFFFFFFFFFFFFFFFFFFFFFFFFFFFF AND PUSH16 0xFFFFFFFFFFFFFFFFFFFFFFFFFFFFFFFF AND PUSH2 0x580E SWAP2 SWAP1 PUSH2 0x96B7 JUMP JUMPDEST PUSH2 0x5818 SWAP2 SWAP1 PUSH2 0x9740 JUMP JUMPDEST SWAP1 POP PUSH1 0x0 PUSH2 0x2710 PUSH1 0x2A PUSH1 0x5 ADD SLOAD PUSH1 0x22 DUP10 DUP2 SLOAD DUP2 LT PUSH2 0x5839 JUMPI PUSH2 0x5838 PUSH2 0x9133 JUMP JUMPDEST JUMPDEST SWAP1 PUSH1 0x0 MSTORE PUSH1 0x20 PUSH1 0x0 KECCAK256 SWAP1 PUSH1 0x4 MUL ADD PUSH1 0x2 ADD PUSH1 0x10 SWAP1 SLOAD SWAP1 PUSH2 0x100 EXP SWAP1 DIV PUSH16 0xFFFFFFFFFFFFFFFFFFFFFFFFFFFFFFFF AND PUSH16 0xFFFFFFFFFFFFFFFFFFFFFFFFFFFFFFFF AND PUSH2 0x5883 SWAP2 SWAP1 PUSH2 0x96B7 JUMP JUMPDEST PUSH2 0x588D SWAP2 SWAP1 PUSH2 0x9740 JUMP JUMPDEST SWAP1 POP DUP2 DUP4 GT PUSH2 0x58A3 JUMPI PUSH1 0x2A PUSH1 0x3 ADD SLOAD SWAP6 POP PUSH2 0x5922 JUMP JUMPDEST DUP3 DUP3 LT DUP1 ISZERO PUSH2 0x58B1 JUMPI POP DUP1 DUP4 LT JUMPDEST ISZERO PUSH2 0x590F JUMPI DUP2 DUP2 PUSH2 0x58C2 SWAP2 SWAP1 PUSH2 0x9191 JUMP JUMPDEST PUSH1 0x2A PUSH1 0x2 ADD SLOAD PUSH1 0x2A PUSH1 0x3 ADD SLOAD PUSH2 0x58D8 SWAP2 SWAP1 PUSH2 0x9191 JUMP JUMPDEST DUP4 DUP6 PUSH2 0x58E4 SWAP2 SWAP1 PUSH2 0x9191 JUMP JUMPDEST PUSH2 0x58EE SWAP2 SWAP1 PUSH2 0x96B7 JUMP JUMPDEST PUSH2 0x58F8 SWAP2 SWAP1 PUSH2 0x9740 JUMP JUMPDEST PUSH1 0x2A PUSH1 0x3 ADD SLOAD PUSH2 0x5908 SWAP2 SWAP1 PUSH2 0x9191 JUMP JUMPDEST SWAP6 POP PUSH2 0x5921 JUMP JUMPDEST DUP1 DUP4 GT ISZERO PUSH2 0x5920 JUMPI PUSH1 0x2A PUSH1 0x2 ADD SLOAD SWAP6 POP JUMPDEST JUMPDEST JUMPDEST DUP6 PUSH2 0x2710 PUSH2 0x5930 SWAP2 SWAP1 PUSH2 0x9191 JUMP JUMPDEST SWAP6 POP POP POP POP POP POP SWAP2 SWAP1 POP JUMP JUMPDEST DUP2 PUSH20 0xFFFFFFFFFFFFFFFFFFFFFFFFFFFFFFFFFFFFFFFF AND DUP4 PUSH20 0xFFFFFFFFFFFFFFFFFFFFFFFFFFFFFFFFFFFFFFFF AND EQ ISZERO PUSH2 0x59AB JUMPI PUSH1 0x40 MLOAD PUSH32 0x8C379A000000000000000000000000000000000000000000000000000000000 DUP2 MSTORE PUSH1 0x4 ADD PUSH2 0x59A2 SWAP1 PUSH2 0x9DCA JUMP JUMPDEST PUSH1 0x40 MLOAD DUP1 SWAP2 SUB SWAP1 REVERT JUMPDEST DUP1 PUSH1 0x1 PUSH1 0x0 DUP6 PUSH20 0xFFFFFFFFFFFFFFFFFFFFFFFFFFFFFFFFFFFFFFFF AND PUSH20 0xFFFFFFFFFFFFFFFFFFFFFFFFFFFFFFFFFFFFFFFF AND DUP2 MSTORE PUSH1 0x20 ADD SWAP1 DUP2 MSTORE PUSH1 0x20 ADD PUSH1 0x0 KECCAK256 PUSH1 0x0 DUP5 PUSH20 0xFFFFFFFFFFFFFFFFFFFFFFFFFFFFFFFFFFFFFFFF AND PUSH20 0xFFFFFFFFFFFFFFFFFFFFFFFFFFFFFFFFFFFFFFFF AND DUP2 MSTORE PUSH1 0x20 ADD SWAP1 DUP2 MSTORE PUSH1 0x20 ADD PUSH1 0x0 KECCAK256 PUSH1 0x0 PUSH2 0x100 EXP DUP2 SLOAD DUP2 PUSH1 0xFF MUL NOT AND SWAP1 DUP4 ISZERO ISZERO MUL OR SWAP1 SSTORE POP DUP2 PUSH20 0xFFFFFFFFFFFFFFFFFFFFFFFFFFFFFFFFFFFFFFFF AND DUP4 PUSH20 0xFFFFFFFFFFFFFFFFFFFFFFFFFFFFFFFFFFFFFFFF AND PUSH32 0x17307EAB39AB6107E8899845AD3D59BD9653F200F220920489CA2B5937696C31 DUP4 PUSH1 0x40 MLOAD PUSH2 0x5A9C SWAP2 SWAP1 PUSH2 0x8081 JUMP JUMPDEST PUSH1 0x40 MLOAD DUP1 SWAP2 SUB SWAP1 LOG3 POP POP POP JUMP JUMPDEST DUP4 PUSH1 0x0 PUSH1 0x23 PUSH1 0x0 DUP4 PUSH20 0xFFFFFFFFFFFFFFFFFFFFFFFFFFFFFFFFFFFFFFFF AND PUSH20 0xFFFFFFFFFFFFFFFFFFFFFFFFFFFFFFFFFFFFFFFF AND DUP2 MSTORE PUSH1 0x20 ADD SWAP1 DUP2 MSTORE PUSH1 0x20 ADD PUSH1 0x0 KECCAK256 SLOAD GT DUP1 ISZERO PUSH2 0x5B47 JUMPI POP PUSH1 0x26 PUSH1 0x0 SWAP1 SLOAD SWAP1 PUSH2 0x100 EXP SWAP1 DIV PUSH20 0xFFFFFFFFFFFFFFFFFFFFFFFFFFFFFFFFFFFFFFFF AND PUSH20 0xFFFFFFFFFFFFFFFFFFFFFFFFFFFFFFFFFFFFFFFF AND DUP2 PUSH20 0xFFFFFFFFFFFFFFFFFFFFFFFFFFFFFFFFFFFFFFFF AND EQ ISZERO JUMPDEST PUSH1 0x9 PUSH1 0x2 ADD SWAP1 PUSH2 0x5B8D JUMPI PUSH1 0x40 MLOAD PUSH32 0x8C379A000000000000000000000000000000000000000000000000000000000 DUP2 MSTORE PUSH1 0x4 ADD PUSH2 0x5B84 SWAP2 SWAP1 PUSH2 0x9111 JUMP JUMPDEST PUSH1 0x40 MLOAD DUP1 SWAP2 SUB SWAP1 REVERT JUMPDEST POP PUSH1 0x0 PUSH1 0x23 PUSH1 0x0 DUP8 PUSH20 0xFFFFFFFFFFFFFFFFFFFFFFFFFFFFFFFFFFFFFFFF AND PUSH20 0xFFFFFFFFFFFFFFFFFFFFFFFFFFFFFFFFFFFFFFFF AND DUP2 MSTORE PUSH1 0x20 ADD SWAP1 DUP2 MSTORE PUSH1 0x20 ADD PUSH1 0x0 KECCAK256 SLOAD SWAP1 POP PUSH1 0x0 PUSH2 0x5BFF PUSH1 0x26 PUSH1 0x0 SWAP1 SLOAD SWAP1 PUSH2 0x100 EXP SWAP1 DIV PUSH20 0xFFFFFFFFFFFFFFFFFFFFFFFFFFFFFFFFFFFFFFFF AND PUSH2 0x44A0 JUMP JUMPDEST SWAP1 POP PUSH1 0x0 PUSH1 0x24 SLOAD DUP3 PUSH2 0x5C11 SWAP2 SWAP1 PUSH2 0x9191 JUMP JUMPDEST SWAP1 POP PUSH1 0x0 PUSH2 0x5C1E DUP10 PUSH2 0x44A0 JUMP JUMPDEST SWAP1 POP PUSH1 0x0 PUSH1 0x22 DUP6 DUP2 SLOAD DUP2 LT PUSH2 0x5C36 JUMPI PUSH2 0x5C35 PUSH2 0x9133 JUMP JUMPDEST JUMPDEST SWAP1 PUSH1 0x0 MSTORE PUSH1 0x20 PUSH1 0x0 KECCAK256 SWAP1 PUSH1 0x4 MUL ADD PUSH1 0x2 ADD PUSH1 0x0 SWAP1 SLOAD SWAP1 PUSH2 0x100 EXP SWAP1 DIV PUSH16 0xFFFFFFFFFFFFFFFFFFFFFFFFFFFFFFFF AND PUSH16 0xFFFFFFFFFFFFFFFFFFFFFFFFFFFFFFFF AND DUP3 PUSH2 0x5C81 SWAP2 SWAP1 PUSH2 0x9191 JUMP JUMPDEST SWAP1 POP PUSH1 0x1 DUP4 DUP3 PUSH2 0x5C91 SWAP2 SWAP1 PUSH2 0x95CF JUMP JUMPDEST GT PUSH1 0x9 PUSH1 0xE ADD SWAP1 PUSH2 0x5CD8 JUMPI PUSH1 0x40 MLOAD PUSH32 0x8C379A000000000000000000000000000000000000000000000000000000000 DUP2 MSTORE PUSH1 0x4 ADD PUSH2 0x5CCF SWAP2 SWAP1 PUSH2 0x9111 JUMP JUMPDEST PUSH1 0x40 MLOAD DUP1 SWAP2 SUB SWAP1 REVERT JUMPDEST POP PUSH1 0x0 PUSH2 0x5CE4 DUP7 PUSH2 0x56C6 JUMP JUMPDEST SWAP1 POP PUSH1 0x0 PUSH2 0x2710 PUSH1 0x22 DUP9 DUP2 SLOAD DUP2 LT PUSH2 0x5CFF JUMPI PUSH2 0x5CFE PUSH2 0x9133 JUMP JUMPDEST JUMPDEST SWAP1 PUSH1 0x0 MSTORE PUSH1 0x20 PUSH1 0x0 KECCAK256 SWAP1 PUSH1 0x4 MUL ADD PUSH1 0x2 ADD PUSH1 0x0 SWAP1 SLOAD SWAP1 PUSH2 0x100 EXP SWAP1 DIV PUSH16 0xFFFFFFFFFFFFFFFFFFFFFFFFFFFFFFFF AND PUSH16 0xFFFFFFFFFFFFFFFFFFFFFFFFFFFFFFFF AND PUSH2 0x2710 PUSH1 0x22 DUP11 DUP2 SLOAD DUP2 LT PUSH2 0x5D56 JUMPI PUSH2 0x5D55 PUSH2 0x9133 JUMP JUMPDEST JUMPDEST SWAP1 PUSH1 0x0 MSTORE PUSH1 0x20 PUSH1 0x0 KECCAK256 SWAP1 PUSH1 0x4 MUL ADD PUSH1 0x2 ADD PUSH1 0x10 SWAP1 SLOAD SWAP1 PUSH2 0x100 EXP SWAP1 DIV PUSH16 0xFFFFFFFFFFFFFFFFFFFFFFFFFFFFFFFF AND PUSH16 0xFFFFFFFFFFFFFFFFFFFFFFFFFFFFFFFF AND PUSH2 0x5DA0 SWAP2 SWAP1 PUSH2 0x96B7 JUMP JUMPDEST PUSH2 0x5DAA SWAP2 SWAP1 PUSH2 0x96B7 JUMP JUMPDEST PUSH2 0x5DB4 SWAP2 SWAP1 PUSH2 0x96B7 JUMP JUMPDEST SWAP1 POP PUSH1 0x0 DUP11 DUP7 PUSH1 0x24 SLOAD PUSH2 0x5DC7 SWAP2 SWAP1 PUSH2 0x95CF JUMP JUMPDEST PUSH2 0x5DD1 SWAP2 SWAP1 PUSH2 0x9191 JUMP JUMPDEST SWAP1 POP PUSH1 0x0 DUP12 DUP8 PUSH1 0x22 DUP12 DUP2 SLOAD DUP2 LT PUSH2 0x5DEB JUMPI PUSH2 0x5DEA PUSH2 0x9133 JUMP JUMPDEST JUMPDEST SWAP1 PUSH1 0x0 MSTORE PUSH1 0x20 PUSH1 0x0 KECCAK256 SWAP1 PUSH1 0x4 MUL ADD PUSH1 0x2 ADD PUSH1 0x10 SWAP1 SLOAD SWAP1 PUSH2 0x100 EXP SWAP1 DIV PUSH16 0xFFFFFFFFFFFFFFFFFFFFFFFFFFFFFFFF AND PUSH16 0xFFFFFFFFFFFFFFFFFFFFFFFFFFFFFFFF AND PUSH2 0x5E35 SWAP2 SWAP1 PUSH2 0x95CF JUMP JUMPDEST PUSH2 0x5E3F SWAP2 SWAP1 PUSH2 0x9191 JUMP JUMPDEST SWAP1 POP PUSH1 0x0 DUP14 DUP7 PUSH1 0x22 DUP13 DUP2 SLOAD DUP2 LT PUSH2 0x5E59 JUMPI PUSH2 0x5E58 PUSH2 0x9133 JUMP JUMPDEST JUMPDEST SWAP1 PUSH1 0x0 MSTORE PUSH1 0x20 PUSH1 0x0 KECCAK256 SWAP1 PUSH1 0x4 MUL ADD PUSH1 0x2 ADD PUSH1 0x0 SWAP1 SLOAD SWAP1 PUSH2 0x100 EXP SWAP1 DIV PUSH16 0xFFFFFFFFFFFFFFFFFFFFFFFFFFFFFFFF AND PUSH16 0xFFFFFFFFFFFFFFFFFFFFFFFFFFFFFFFF AND PUSH2 0x5EA3 SWAP2 SWAP1 PUSH2 0x95CF JUMP JUMPDEST PUSH2 0x5EAD SWAP2 SWAP1 PUSH2 0x9191 JUMP JUMPDEST SWAP1 POP PUSH1 0x0 DUP6 PUSH2 0x2710 PUSH2 0x5EBF SWAP2 SWAP1 PUSH2 0x9191 JUMP JUMPDEST DUP8 PUSH2 0x5ECA SWAP2 SWAP1 PUSH2 0x96B7 JUMP JUMPDEST PUSH2 0x2710 DUP4 PUSH2 0x5ED8 SWAP2 SWAP1 PUSH2 0x96B7 JUMP JUMPDEST PUSH2 0x5EE2 SWAP2 SWAP1 PUSH2 0x9191 JUMP JUMPDEST DUP7 PUSH2 0x2710 PUSH2 0x5EF0 SWAP2 SWAP1 PUSH2 0x9191 JUMP JUMPDEST DUP11 PUSH2 0x5EFB SWAP2 SWAP1 PUSH2 0x96B7 JUMP JUMPDEST PUSH2 0x2710 DUP6 PUSH2 0x5F09 SWAP2 SWAP1 PUSH2 0x96B7 JUMP JUMPDEST PUSH2 0x5F13 SWAP2 SWAP1 PUSH2 0x9191 JUMP JUMPDEST PUSH2 0x5F1D SWAP2 SWAP1 PUSH2 0x96B7 JUMP JUMPDEST SWAP1 POP DUP5 DUP2 LT ISZERO PUSH1 0x9 PUSH1 0xF ADD SWAP1 PUSH2 0x5F69 JUMPI PUSH1 0x40 MLOAD PUSH32 0x8C379A000000000000000000000000000000000000000000000000000000000 DUP2 MSTORE PUSH1 0x4 ADD PUSH2 0x5F60 SWAP2 SWAP1 PUSH2 0x9111 JUMP JUMPDEST PUSH1 0x40 MLOAD DUP1 SWAP2 SUB SWAP1 REVERT JUMPDEST POP DUP4 PUSH1 0x24 DUP2 SWAP1 SSTORE POP DUP3 PUSH1 0x22 DUP13 DUP2 SLOAD DUP2 LT PUSH2 0x5F86 JUMPI PUSH2 0x5F85 PUSH2 0x9133 JUMP JUMPDEST JUMPDEST SWAP1 PUSH1 0x0 MSTORE PUSH1 0x20 PUSH1 0x0 KECCAK256 SWAP1 PUSH1 0x4 MUL ADD PUSH1 0x2 ADD PUSH1 0x10 PUSH2 0x100 EXP DUP2 SLOAD DUP2 PUSH16 0xFFFFFFFFFFFFFFFFFFFFFFFFFFFFFFFF MUL NOT AND SWAP1 DUP4 PUSH16 0xFFFFFFFFFFFFFFFFFFFFFFFFFFFFFFFF AND MUL OR SWAP1 SSTORE POP DUP2 PUSH1 0x22 DUP13 DUP2 SLOAD DUP2 LT PUSH2 0x5FE2 JUMPI PUSH2 0x5FE1 PUSH2 0x9133 JUMP JUMPDEST JUMPDEST SWAP1 PUSH1 0x0 MSTORE PUSH1 0x20 PUSH1 0x0 KECCAK256 SWAP1 PUSH1 0x4 MUL ADD PUSH1 0x2 ADD PUSH1 0x0 PUSH2 0x100 EXP DUP2 SLOAD DUP2 PUSH16 0xFFFFFFFFFFFFFFFFFFFFFFFFFFFFFFFF MUL NOT AND SWAP1 DUP4 PUSH16 0xFFFFFFFFFFFFFFFFFFFFFFFFFFFFFFFF AND MUL OR SWAP1 SSTORE POP POP POP POP POP POP POP PUSH1 0x0 PUSH2 0x6039 PUSH2 0x7AB0 JUMP JUMPDEST SWAP1 POP PUSH1 0x0 PUSH1 0x8 PUSH1 0x1 PUSH2 0x6049 PUSH2 0x7AB0 JUMP JUMPDEST PUSH2 0x6053 SWAP2 SWAP1 PUSH2 0x95CF JUMP JUMPDEST PUSH2 0x605D SWAP2 SWAP1 PUSH2 0x9D27 JUMP JUMPDEST SWAP1 POP PUSH8 0xDE0B6B3A7640000 DUP11 DUP7 ADD DUP2 PUSH2 0x6079 JUMPI PUSH2 0x6078 PUSH2 0x9711 JUMP JUMPDEST JUMPDEST DIV PUSH1 0x22 DUP9 DUP2 SLOAD DUP2 LT PUSH2 0x608E JUMPI PUSH2 0x608D PUSH2 0x9133 JUMP JUMPDEST JUMPDEST SWAP1 PUSH1 0x0 MSTORE PUSH1 0x20 PUSH1 0x0 KECCAK256 SWAP1 PUSH1 0x4 MUL ADD PUSH1 0x1 ADD DUP4 PUSH1 0x8 DUP2 LT PUSH2 0x60B1 JUMPI PUSH2 0x60B0 PUSH2 0x9133 JUMP JUMPDEST JUMPDEST PUSH1 0x8 SWAP2 DUP3 DUP3 DIV ADD SWAP2 SWAP1 MOD PUSH1 0x4 MUL DUP3 DUP3 DUP3 SWAP1 SLOAD SWAP1 PUSH2 0x100 EXP SWAP1 DIV PUSH4 0xFFFFFFFF AND ADD SWAP3 POP PUSH2 0x100 EXP DUP2 SLOAD DUP2 PUSH4 0xFFFFFFFF MUL NOT AND SWAP1 DUP4 PUSH4 0xFFFFFFFF AND MUL OR SWAP1 SSTORE POP PUSH1 0x1 PUSH1 0x22 DUP9 DUP2 SLOAD DUP2 LT PUSH2 0x6105 JUMPI PUSH2 0x6104 PUSH2 0x9133 JUMP JUMPDEST JUMPDEST SWAP1 PUSH1 0x0 MSTORE PUSH1 0x20 PUSH1 0x0 KECCAK256 SWAP1 PUSH1 0x4 MUL ADD PUSH1 0x1 ADD DUP3 PUSH1 0x8 DUP2 LT PUSH2 0x6128 JUMPI PUSH2 0x6127 PUSH2 0x9133 JUMP JUMPDEST JUMPDEST PUSH1 0x8 SWAP2 DUP3 DUP3 DIV ADD SWAP2 SWAP1 MOD PUSH1 0x4 MUL SWAP1 SLOAD SWAP1 PUSH2 0x100 EXP SWAP1 DIV PUSH4 0xFFFFFFFF AND PUSH4 0xFFFFFFFF AND GT ISZERO PUSH2 0x61B3 JUMPI PUSH1 0x1 PUSH1 0x22 DUP9 DUP2 SLOAD DUP2 LT PUSH2 0x6166 JUMPI PUSH2 0x6165 PUSH2 0x9133 JUMP JUMPDEST JUMPDEST SWAP1 PUSH1 0x0 MSTORE PUSH1 0x20 PUSH1 0x0 KECCAK256 SWAP1 PUSH1 0x4 MUL ADD PUSH1 0x1 ADD DUP3 PUSH1 0x8 DUP2 LT PUSH2 0x6189 JUMPI PUSH2 0x6188 PUSH2 0x9133 JUMP JUMPDEST JUMPDEST PUSH1 0x8 SWAP2 DUP3 DUP3 DIV ADD SWAP2 SWAP1 MOD PUSH1 0x4 MUL PUSH2 0x100 EXP DUP2 SLOAD DUP2 PUSH4 0xFFFFFFFF MUL NOT AND SWAP1 DUP4 PUSH4 0xFFFFFFFF AND MUL OR SWAP1 SSTORE POP JUMPDEST PUSH1 0x0 DUP12 GT ISZERO PUSH2 0x6275 JUMPI PUSH2 0x61C9 DUP13 DUP11 DUP14 PUSH1 0x1 PUSH2 0x4582 JUMP JUMPDEST PUSH1 0x0 PUSH2 0x61D4 DUP14 PUSH2 0x44A0 JUMP JUMPDEST SWAP1 POP PUSH1 0x22 DUP9 DUP2 SLOAD DUP2 LT PUSH2 0x61EA JUMPI PUSH2 0x61E9 PUSH2 0x9133 JUMP JUMPDEST JUMPDEST SWAP1 PUSH1 0x0 MSTORE PUSH1 0x20 PUSH1 0x0 KECCAK256 SWAP1 PUSH1 0x4 MUL ADD PUSH1 0x2 ADD PUSH1 0x0 SWAP1 SLOAD SWAP1 PUSH2 0x100 EXP SWAP1 DIV PUSH16 0xFFFFFFFFFFFFFFFFFFFFFFFFFFFFFFFF AND PUSH16 0xFFFFFFFFFFFFFFFFFFFFFFFFFFFFFFFF AND DUP2 EQ PUSH1 0x9 PUSH1 0x4 ADD SWAP1 PUSH2 0x6272 JUMPI PUSH1 0x40 MLOAD PUSH32 0x8C379A000000000000000000000000000000000000000000000000000000000 DUP2 MSTORE PUSH1 0x4 ADD PUSH2 0x6269 SWAP2 SWAP1 PUSH2 0x9111 JUMP JUMPDEST PUSH1 0x40 MLOAD DUP1 SWAP2 SUB SWAP1 REVERT JUMPDEST POP POP JUMPDEST PUSH1 0x0 DUP11 GT ISZERO PUSH2 0x62AE JUMPI PUSH2 0x62AD PUSH1 0x26 PUSH1 0x0 SWAP1 SLOAD SWAP1 PUSH2 0x100 EXP SWAP1 DIV PUSH20 0xFFFFFFFFFFFFFFFFFFFFFFFFFFFFFFFFFFFFFFFF AND DUP11 DUP13 PUSH1 0x1 PUSH2 0x4582 JUMP JUMPDEST JUMPDEST PUSH32 0x236C64FD115DC00CAFEEAF44B6CA2AF23A66BA0E282852756756B073C5515075 DUP13 CALLER DUP6 DUP9 DUP16 DUP16 DUP16 PUSH1 0x40 MLOAD PUSH2 0x62E9 SWAP8 SWAP7 SWAP6 SWAP5 SWAP4 SWAP3 SWAP2 SWAP1 PUSH2 0x9DEA JUMP JUMPDEST PUSH1 0x40 MLOAD DUP1 SWAP2 SUB SWAP1 LOG1 PUSH32 0xF10FC780C78F994A214C79A2AE8D8B7BFE7CC3F0F935A8F05A29525E71D7F127 DUP13 PUSH1 0x22 DUP10 DUP2 SLOAD DUP2 LT PUSH2 0x6327 JUMPI PUSH2 0x6326 PUSH2 0x9133 JUMP JUMPDEST JUMPDEST SWAP1 PUSH1 0x0 MSTORE PUSH1 0x20 PUSH1 0x0 KECCAK256 SWAP1 PUSH1 0x4 MUL ADD PUSH1 0x2 ADD PUSH1 0x0 SWAP1 SLOAD SWAP1 PUSH2 0x100 EXP SWAP1 DIV PUSH16 0xFFFFFFFFFFFFFFFFFFFFFFFFFFFFFFFF AND PUSH1 0x22 DUP11 DUP2 SLOAD DUP2 LT PUSH2 0x6369 JUMPI PUSH2 0x6368 PUSH2 0x9133 JUMP JUMPDEST JUMPDEST SWAP1 PUSH1 0x0 MSTORE PUSH1 0x20 PUSH1 0x0 KECCAK256 SWAP1 PUSH1 0x4 MUL ADD PUSH1 0x2 ADD PUSH1 0x10 SWAP1 SLOAD SWAP1 PUSH2 0x100 EXP SWAP1 DIV PUSH16 0xFFFFFFFFFFFFFFFFFFFFFFFFFFFFFFFF AND PUSH1 0x40 MLOAD PUSH2 0x63A6 SWAP4 SWAP3 SWAP2 SWAP1 PUSH2 0x991C JUMP JUMPDEST PUSH1 0x40 MLOAD DUP1 SWAP2 SUB SWAP1 LOG1 POP POP POP POP POP POP POP POP POP POP POP POP JUMP JUMPDEST DUP1 PUSH1 0x2 SWAP1 DUP1 MLOAD SWAP1 PUSH1 0x20 ADD SWAP1 PUSH2 0x63D2 SWAP3 SWAP2 SWAP1 PUSH2 0x7CE5 JUMP JUMPDEST POP POP JUMP JUMPDEST PUSH1 0x0 DUP3 PUSH1 0x0 PUSH1 0x23 PUSH1 0x0 DUP4 PUSH20 0xFFFFFFFFFFFFFFFFFFFFFFFFFFFFFFFFFFFFFFFF AND PUSH20 0xFFFFFFFFFFFFFFFFFFFFFFFFFFFFFFFFFFFFFFFF AND DUP2 MSTORE PUSH1 0x20 ADD SWAP1 DUP2 MSTORE PUSH1 0x20 ADD PUSH1 0x0 KECCAK256 SLOAD GT DUP1 ISZERO PUSH2 0x6476 JUMPI POP PUSH1 0x26 PUSH1 0x0 SWAP1 SLOAD SWAP1 PUSH2 0x100 EXP SWAP1 DIV PUSH20 0xFFFFFFFFFFFFFFFFFFFFFFFFFFFFFFFFFFFFFFFF AND PUSH20 0xFFFFFFFFFFFFFFFFFFFFFFFFFFFFFFFFFFFFFFFF AND DUP2 PUSH20 0xFFFFFFFFFFFFFFFFFFFFFFFFFFFFFFFFFFFFFFFF AND EQ ISZERO JUMPDEST PUSH1 0x9 PUSH1 0x2 ADD SWAP1 PUSH2 0x64BC JUMPI PUSH1 0x40 MLOAD PUSH32 0x8C379A000000000000000000000000000000000000000000000000000000000 DUP2 MSTORE PUSH1 0x4 ADD PUSH2 0x64B3 SWAP2 SWAP1 PUSH2 0x9111 JUMP JUMPDEST PUSH1 0x40 MLOAD DUP1 SWAP2 SUB SWAP1 REVERT JUMPDEST POP PUSH1 0x0 PUSH1 0x23 PUSH1 0x0 DUP7 PUSH20 0xFFFFFFFFFFFFFFFFFFFFFFFFFFFFFFFFFFFFFFFF AND PUSH20 0xFFFFFFFFFFFFFFFFFFFFFFFFFFFFFFFFFFFFFFFF AND DUP2 MSTORE PUSH1 0x20 ADD SWAP1 DUP2 MSTORE PUSH1 0x20 ADD PUSH1 0x0 KECCAK256 SLOAD SWAP1 POP PUSH2 0x65BB DUP5 PUSH1 0x22 DUP4 DUP2 SLOAD DUP2 LT PUSH2 0x6519 JUMPI PUSH2 0x6518 PUSH2 0x9133 JUMP JUMPDEST JUMPDEST SWAP1 PUSH1 0x0 MSTORE PUSH1 0x20 PUSH1 0x0 KECCAK256 SWAP1 PUSH1 0x4 MUL ADD PUSH1 0x2 ADD PUSH1 0x0 SWAP1 SLOAD SWAP1 PUSH2 0x100 EXP SWAP1 DIV PUSH16 0xFFFFFFFFFFFFFFFFFFFFFFFFFFFFFFFF AND PUSH16 0xFFFFFFFFFFFFFFFFFFFFFFFFFFFFFFFF AND PUSH1 0x22 DUP5 DUP2 SLOAD DUP2 LT PUSH2 0x656D JUMPI PUSH2 0x656C PUSH2 0x9133 JUMP JUMPDEST JUMPDEST SWAP1 PUSH1 0x0 MSTORE PUSH1 0x20 PUSH1 0x0 KECCAK256 SWAP1 PUSH1 0x4 MUL ADD PUSH1 0x2 ADD PUSH1 0x10 SWAP1 SLOAD SWAP1 PUSH2 0x100 EXP SWAP1 DIV PUSH16 0xFFFFFFFFFFFFFFFFFFFFFFFFFFFFFFFF AND PUSH16 0xFFFFFFFFFFFFFFFFFFFFFFFFFFFFFFFF AND PUSH2 0x65B6 DUP6 PUSH2 0x56C6 JUMP JUMPDEST PUSH2 0x7AD1 JUMP JUMPDEST SWAP3 POP POP POP SWAP3 SWAP2 POP POP JUMP JUMPDEST PUSH1 0x0 DUP3 PUSH1 0x0 PUSH1 0x23 PUSH1 0x0 DUP4 PUSH20 0xFFFFFFFFFFFFFFFFFFFFFFFFFFFFFFFFFFFFFFFF AND PUSH20 0xFFFFFFFFFFFFFFFFFFFFFFFFFFFFFFFFFFFFFFFF AND DUP2 MSTORE PUSH1 0x20 ADD SWAP1 DUP2 MSTORE PUSH1 0x20 ADD PUSH1 0x0 KECCAK256 SLOAD GT DUP1 ISZERO PUSH2 0x6665 JUMPI POP PUSH1 0x26 PUSH1 0x0 SWAP1 SLOAD SWAP1 PUSH2 0x100 EXP SWAP1 DIV PUSH20 0xFFFFFFFFFFFFFFFFFFFFFFFFFFFFFFFFFFFFFFFF AND PUSH20 0xFFFFFFFFFFFFFFFFFFFFFFFFFFFFFFFFFFFFFFFF AND DUP2 PUSH20 0xFFFFFFFFFFFFFFFFFFFFFFFFFFFFFFFFFFFFFFFF AND EQ ISZERO JUMPDEST PUSH1 0x9 PUSH1 0x2 ADD SWAP1 PUSH2 0x66AB JUMPI PUSH1 0x40 MLOAD PUSH32 0x8C379A000000000000000000000000000000000000000000000000000000000 DUP2 MSTORE PUSH1 0x4 ADD PUSH2 0x66A2 SWAP2 SWAP1 PUSH2 0x9111 JUMP JUMPDEST PUSH1 0x40 MLOAD DUP1 SWAP2 SUB SWAP1 REVERT JUMPDEST POP PUSH1 0x0 PUSH1 0x23 PUSH1 0x0 DUP7 PUSH20 0xFFFFFFFFFFFFFFFFFFFFFFFFFFFFFFFFFFFFFFFF AND PUSH20 0xFFFFFFFFFFFFFFFFFFFFFFFFFFFFFFFFFFFFFFFF AND DUP2 MSTORE PUSH1 0x20 ADD SWAP1 DUP2 MSTORE PUSH1 0x20 ADD PUSH1 0x0 KECCAK256 SLOAD SWAP1 POP PUSH2 0x67AA DUP5 PUSH1 0x22 DUP4 DUP2 SLOAD DUP2 LT PUSH2 0x6708 JUMPI PUSH2 0x6707 PUSH2 0x9133 JUMP JUMPDEST JUMPDEST SWAP1 PUSH1 0x0 MSTORE PUSH1 0x20 PUSH1 0x0 KECCAK256 SWAP1 PUSH1 0x4 MUL ADD PUSH1 0x2 ADD PUSH1 0x10 SWAP1 SLOAD SWAP1 PUSH2 0x100 EXP SWAP1 DIV PUSH16 0xFFFFFFFFFFFFFFFFFFFFFFFFFFFFFFFF AND PUSH16 0xFFFFFFFFFFFFFFFFFFFFFFFFFFFFFFFF AND PUSH1 0x22 DUP5 DUP2 SLOAD DUP2 LT PUSH2 0x675C JUMPI PUSH2 0x675B PUSH2 0x9133 JUMP JUMPDEST JUMPDEST SWAP1 PUSH1 0x0 MSTORE PUSH1 0x20 PUSH1 0x0 KECCAK256 SWAP1 PUSH1 0x4 MUL ADD PUSH1 0x2 ADD PUSH1 0x0 SWAP1 SLOAD SWAP1 PUSH2 0x100 EXP SWAP1 DIV PUSH16 0xFFFFFFFFFFFFFFFFFFFFFFFFFFFFFFFF AND PUSH16 0xFFFFFFFFFFFFFFFFFFFFFFFFFFFFFFFF AND PUSH2 0x67A5 DUP6 PUSH2 0x56C6 JUMP JUMPDEST PUSH2 0x7AD1 JUMP JUMPDEST SWAP3 POP POP POP SWAP3 SWAP2 POP POP JUMP JUMPDEST PUSH1 0x0 PUSH2 0x67C2 DUP3 PUSH1 0x0 ADD PUSH2 0x7B82 JUMP JUMPDEST SWAP1 POP SWAP2 SWAP1 POP JUMP JUMPDEST PUSH1 0x0 PUSH20 0xDEF1FAC7BF08F173D286BBBDCBEEADE695129840 PUSH20 0xFFFFFFFFFFFFFFFFFFFFFFFFFFFFFFFFFFFFFFFF AND PUSH4 0x6FB1A07 PUSH1 0x3 PUSH1 0x40 MLOAD DUP3 PUSH4 0xFFFFFFFF AND PUSH1 0xE0 SHL DUP2 MSTORE PUSH1 0x4 ADD PUSH2 0x6819 SWAP2 SWAP1 PUSH2 0x7FC6 JUMP JUMPDEST PUSH1 0x20 PUSH1 0x40 MLOAD DUP1 DUP4 SUB DUP2 DUP7 GAS STATICCALL ISZERO DUP1 ISZERO PUSH2 0x6836 JUMPI RETURNDATASIZE PUSH1 0x0 DUP1 RETURNDATACOPY RETURNDATASIZE PUSH1 0x0 REVERT JUMPDEST POP POP POP POP PUSH1 0x40 MLOAD RETURNDATASIZE PUSH1 0x1F NOT PUSH1 0x1F DUP3 ADD AND DUP3 ADD DUP1 PUSH1 0x40 MSTORE POP DUP2 ADD SWAP1 PUSH2 0x685A SWAP2 SWAP1 PUSH2 0x9223 JUMP JUMPDEST SWAP1 POP DUP1 PUSH20 0xFFFFFFFFFFFFFFFFFFFFFFFFFFFFFFFFFFFFFFFF AND PUSH4 0x322D5FBC DUP6 DUP6 PUSH1 0x40 MLOAD DUP4 PUSH4 0xFFFFFFFF AND PUSH1 0xE0 SHL DUP2 MSTORE PUSH1 0x4 ADD PUSH2 0x6897 SWAP3 SWAP2 SWAP1 PUSH2 0x9953 JUMP JUMPDEST PUSH1 0x20 PUSH1 0x40 MLOAD DUP1 DUP4 SUB DUP2 PUSH1 0x0 DUP8 GAS CALL ISZERO DUP1 ISZERO PUSH2 0x68B6 JUMPI RETURNDATASIZE PUSH1 0x0 DUP1 RETURNDATACOPY RETURNDATASIZE PUSH1 0x0 REVERT JUMPDEST POP POP POP POP PUSH1 0x40 MLOAD RETURNDATASIZE PUSH1 0x1F NOT PUSH1 0x1F DUP3 ADD AND DUP3 ADD DUP1 PUSH1 0x40 MSTORE POP DUP2 ADD SWAP1 PUSH2 0x68DA SWAP2 SWAP1 PUSH2 0x9991 JUMP JUMPDEST PUSH2 0x6919 JUMPI PUSH1 0x40 MLOAD PUSH32 0x8C379A000000000000000000000000000000000000000000000000000000000 DUP2 MSTORE PUSH1 0x4 ADD PUSH2 0x6910 SWAP1 PUSH2 0x9EA5 JUMP JUMPDEST PUSH1 0x40 MLOAD DUP1 SWAP2 SUB SWAP1 REVERT JUMPDEST ADDRESS PUSH20 0xFFFFFFFFFFFFFFFFFFFFFFFFFFFFFFFFFFFFFFFF AND DUP3 PUSH20 0xFFFFFFFFFFFFFFFFFFFFFFFFFFFFFFFFFFFFFFFF AND EQ PUSH2 0x69BA JUMPI DUP1 PUSH20 0xFFFFFFFFFFFFFFFFFFFFFFFFFFFFFFFFFFFFFFFF AND PUSH4 0x72E64AD6 DUP6 DUP5 PUSH1 0x40 MLOAD DUP4 PUSH4 0xFFFFFFFF AND PUSH1 0xE0 SHL DUP2 MSTORE PUSH1 0x4 ADD PUSH2 0x6987 SWAP3 SWAP2 SWAP1 PUSH2 0x9953 JUMP JUMPDEST PUSH1 0x0 PUSH1 0x40 MLOAD DUP1 DUP4 SUB DUP2 PUSH1 0x0 DUP8 DUP1 EXTCODESIZE ISZERO DUP1 ISZERO PUSH2 0x69A1 JUMPI PUSH1 0x0 DUP1 REVERT JUMPDEST POP GAS CALL ISZERO DUP1 ISZERO PUSH2 0x69B5 JUMPI RETURNDATASIZE PUSH1 0x0 DUP1 RETURNDATACOPY RETURNDATASIZE PUSH1 0x0 REVERT JUMPDEST POP POP POP POP JUMPDEST POP POP POP POP JUMP JUMPDEST PUSH1 0x0 PUSH20 0xFFFFFFFFFFFFFFFFFFFFFFFFFFFFFFFFFFFFFFFF AND DUP5 PUSH20 0xFFFFFFFFFFFFFFFFFFFFFFFFFFFFFFFFFFFFFFFF AND EQ ISZERO PUSH2 0x6A30 JUMPI PUSH1 0x40 MLOAD PUSH32 0x8C379A000000000000000000000000000000000000000000000000000000000 DUP2 MSTORE PUSH1 0x4 ADD PUSH2 0x6A27 SWAP1 PUSH2 0x9F37 JUMP JUMPDEST PUSH1 0x40 MLOAD DUP1 SWAP2 SUB SWAP1 REVERT JUMPDEST PUSH1 0x0 PUSH2 0x6A3A PUSH2 0x462D JUMP JUMPDEST SWAP1 POP PUSH2 0x6A5A DUP2 DUP8 DUP8 PUSH2 0x6A4B DUP9 PUSH2 0x760E JUMP JUMPDEST PUSH2 0x6A54 DUP9 PUSH2 0x760E JUMP JUMPDEST DUP8 PUSH2 0x7688 JUMP JUMPDEST PUSH1 0x0 DUP1 PUSH1 0x0 DUP7 DUP2 MSTORE PUSH1 0x20 ADD SWAP1 DUP2 MSTORE PUSH1 0x20 ADD PUSH1 0x0 KECCAK256 PUSH1 0x0 DUP9 PUSH20 0xFFFFFFFFFFFFFFFFFFFFFFFFFFFFFFFFFFFFFFFF AND PUSH20 0xFFFFFFFFFFFFFFFFFFFFFFFFFFFFFFFFFFFFFFFF AND DUP2 MSTORE PUSH1 0x20 ADD SWAP1 DUP2 MSTORE PUSH1 0x20 ADD PUSH1 0x0 KECCAK256 SLOAD SWAP1 POP DUP4 DUP2 LT ISZERO PUSH2 0x6AF1 JUMPI PUSH1 0x40 MLOAD PUSH32 0x8C379A000000000000000000000000000000000000000000000000000000000 DUP2 MSTORE PUSH1 0x4 ADD PUSH2 0x6AE8 SWAP1 PUSH2 0x9FC9 JUMP JUMPDEST PUSH1 0x40 MLOAD DUP1 SWAP2 SUB SWAP1 REVERT JUMPDEST DUP4 DUP2 SUB PUSH1 0x0 DUP1 DUP8 DUP2 MSTORE PUSH1 0x20 ADD SWAP1 DUP2 MSTORE PUSH1 0x20 ADD PUSH1 0x0 KECCAK256 PUSH1 0x0 DUP10 PUSH20 0xFFFFFFFFFFFFFFFFFFFFFFFFFFFFFFFFFFFFFFFF AND PUSH20 0xFFFFFFFFFFFFFFFFFFFFFFFFFFFFFFFFFFFFFFFF AND DUP2 MSTORE PUSH1 0x20 ADD SWAP1 DUP2 MSTORE PUSH1 0x20 ADD PUSH1 0x0 KECCAK256 DUP2 SWAP1 SSTORE POP DUP4 PUSH1 0x0 DUP1 DUP8 DUP2 MSTORE PUSH1 0x20 ADD SWAP1 DUP2 MSTORE PUSH1 0x20 ADD PUSH1 0x0 KECCAK256 PUSH1 0x0 DUP9 PUSH20 0xFFFFFFFFFFFFFFFFFFFFFFFFFFFFFFFFFFFFFFFF AND PUSH20 0xFFFFFFFFFFFFFFFFFFFFFFFFFFFFFFFFFFFFFFFF AND DUP2 MSTORE PUSH1 0x20 ADD SWAP1 DUP2 MSTORE PUSH1 0x20 ADD PUSH1 0x0 KECCAK256 PUSH1 0x0 DUP3 DUP3 SLOAD PUSH2 0x6BA6 SWAP2 SWAP1 PUSH2 0x95CF JUMP JUMPDEST SWAP3 POP POP DUP2 SWAP1 SSTORE POP DUP6 PUSH20 0xFFFFFFFFFFFFFFFFFFFFFFFFFFFFFFFFFFFFFFFF AND DUP8 PUSH20 0xFFFFFFFFFFFFFFFFFFFFFFFFFFFFFFFFFFFFFFFF AND DUP4 PUSH20 0xFFFFFFFFFFFFFFFFFFFFFFFFFFFFFFFFFFFFFFFF AND PUSH32 0xC3D58168C5AE7397731D063D5BBF3D657854427343F4C083240F7AACAA2D0F62 DUP9 DUP9 PUSH1 0x40 MLOAD PUSH2 0x6C23 SWAP3 SWAP2 SWAP1 PUSH2 0x8B94 JUMP JUMPDEST PUSH1 0x40 MLOAD DUP1 SWAP2 SUB SWAP1 LOG4 PUSH2 0x6C39 DUP3 DUP9 DUP9 DUP9 DUP9 DUP9 PUSH2 0x7802 JUMP JUMPDEST POP POP POP POP POP POP POP JUMP JUMPDEST PUSH1 0x0 PUSH20 0xFFFFFFFFFFFFFFFFFFFFFFFFFFFFFFFFFFFFFFFF AND DUP4 PUSH20 0xFFFFFFFFFFFFFFFFFFFFFFFFFFFFFFFFFFFFFFFF AND EQ ISZERO PUSH2 0x6CB2 JUMPI PUSH1 0x40 MLOAD PUSH32 0x8C379A000000000000000000000000000000000000000000000000000000000 DUP2 MSTORE PUSH1 0x4 ADD PUSH2 0x6CA9 SWAP1 PUSH2 0xA05B JUMP JUMPDEST PUSH1 0x40 MLOAD DUP1 SWAP2 SUB SWAP1 REVERT JUMPDEST PUSH1 0x0 PUSH2 0x6CBC PUSH2 0x462D JUMP JUMPDEST SWAP1 POP PUSH2 0x6CEC DUP2 DUP6 PUSH1 0x0 PUSH2 0x6CCE DUP8 PUSH2 0x760E JUMP JUMPDEST PUSH2 0x6CD7 DUP8 PUSH2 0x760E JUMP JUMPDEST PUSH1 0x40 MLOAD DUP1 PUSH1 0x20 ADD PUSH1 0x40 MSTORE DUP1 PUSH1 0x0 DUP2 MSTORE POP PUSH2 0x7688 JUMP JUMPDEST PUSH1 0x0 DUP1 PUSH1 0x0 DUP6 DUP2 MSTORE PUSH1 0x20 ADD SWAP1 DUP2 MSTORE PUSH1 0x20 ADD PUSH1 0x0 KECCAK256 PUSH1 0x0 DUP7 PUSH20 0xFFFFFFFFFFFFFFFFFFFFFFFFFFFFFFFFFFFFFFFF AND PUSH20 0xFFFFFFFFFFFFFFFFFFFFFFFFFFFFFFFFFFFFFFFF AND DUP2 MSTORE PUSH1 0x20 ADD SWAP1 DUP2 MSTORE PUSH1 0x20 ADD PUSH1 0x0 KECCAK256 SLOAD SWAP1 POP DUP3 DUP2 LT ISZERO PUSH2 0x6D83 JUMPI PUSH1 0x40 MLOAD PUSH32 0x8C379A000000000000000000000000000000000000000000000000000000000 DUP2 MSTORE PUSH1 0x4 ADD PUSH2 0x6D7A SWAP1 PUSH2 0xA0ED JUMP JUMPDEST PUSH1 0x40 MLOAD DUP1 SWAP2 SUB SWAP1 REVERT JUMPDEST DUP3 DUP2 SUB PUSH1 0x0 DUP1 DUP7 DUP2 MSTORE PUSH1 0x20 ADD SWAP1 DUP2 MSTORE PUSH1 0x20 ADD PUSH1 0x0 KECCAK256 PUSH1 0x0 DUP8 PUSH20 0xFFFFFFFFFFFFFFFFFFFFFFFFFFFFFFFFFFFFFFFF AND PUSH20 0xFFFFFFFFFFFFFFFFFFFFFFFFFFFFFFFFFFFFFFFF AND DUP2 MSTORE PUSH1 0x20 ADD SWAP1 DUP2 MSTORE PUSH1 0x20 ADD PUSH1 0x0 KECCAK256 DUP2 SWAP1 SSTORE POP PUSH1 0x0 PUSH20 0xFFFFFFFFFFFFFFFFFFFFFFFFFFFFFFFFFFFFFFFF AND DUP6 PUSH20 0xFFFFFFFFFFFFFFFFFFFFFFFFFFFFFFFFFFFFFFFF AND DUP4 PUSH20 0xFFFFFFFFFFFFFFFFFFFFFFFFFFFFFFFFFFFFFFFF AND PUSH32 0xC3D58168C5AE7397731D063D5BBF3D657854427343F4C083240F7AACAA2D0F62 DUP8 DUP8 PUSH1 0x40 MLOAD PUSH2 0x6E50 SWAP3 SWAP2 SWAP1 PUSH2 0x8B94 JUMP JUMPDEST PUSH1 0x40 MLOAD DUP1 SWAP2 SUB SWAP1 LOG4 POP POP POP POP POP JUMP JUMPDEST PUSH1 0x0 PUSH2 0x6E6B DUP4 DUP4 PUSH2 0x7B93 JUMP JUMPDEST PUSH2 0x6EC4 JUMPI DUP3 PUSH1 0x0 ADD DUP3 SWAP1 DUP1 PUSH1 0x1 DUP2 SLOAD ADD DUP1 DUP3 SSTORE DUP1 SWAP2 POP POP PUSH1 0x1 SWAP1 SUB SWAP1 PUSH1 0x0 MSTORE PUSH1 0x20 PUSH1 0x0 KECCAK256 ADD PUSH1 0x0 SWAP1 SWAP2 SWAP1 SWAP2 SWAP1 SWAP2 POP SSTORE DUP3 PUSH1 0x0 ADD DUP1 SLOAD SWAP1 POP DUP4 PUSH1 0x1 ADD PUSH1 0x0 DUP5 DUP2 MSTORE PUSH1 0x20 ADD SWAP1 DUP2 MSTORE PUSH1 0x20 ADD PUSH1 0x0 KECCAK256 DUP2 SWAP1 SSTORE POP PUSH1 0x1 SWAP1 POP PUSH2 0x6EC9 JUMP JUMPDEST PUSH1 0x0 SWAP1 POP JUMPDEST SWAP3 SWAP2 POP POP JUMP JUMPDEST PUSH1 0x0 PUSH32 0x1FFC9A700000000000000000000000000000000000000000000000000000000 PUSH28 0xFFFFFFFFFFFFFFFFFFFFFFFFFFFFFFFFFFFFFFFFFFFFFFFFFFFFFFFF NOT AND DUP3 PUSH28 0xFFFFFFFFFFFFFFFFFFFFFFFFFFFFFFFFFFFFFFFFFFFFFFFFFFFFFFFF NOT AND EQ SWAP1 POP SWAP2 SWAP1 POP JUMP JUMPDEST PUSH1 0x0 DUP3 PUSH20 0xFFFFFFFFFFFFFFFFFFFFFFFFFFFFFFFFFFFFFFFF AND DUP3 PUSH1 0x0 PUSH8 0xFFFFFFFFFFFFFFFF DUP2 GT ISZERO PUSH2 0x6F6E JUMPI PUSH2 0x6F6D PUSH2 0x836B JUMP JUMPDEST JUMPDEST PUSH1 0x40 MLOAD SWAP1 DUP1 DUP3 MSTORE DUP1 PUSH1 0x1F ADD PUSH1 0x1F NOT AND PUSH1 0x20 ADD DUP3 ADD PUSH1 0x40 MSTORE DUP1 ISZERO PUSH2 0x6FA0 JUMPI DUP2 PUSH1 0x20 ADD PUSH1 0x1 DUP3 MUL DUP1 CALLDATASIZE DUP4 CALLDATACOPY DUP1 DUP3 ADD SWAP2 POP POP SWAP1 POP JUMPDEST POP PUSH1 0x40 MLOAD PUSH2 0x6FAE SWAP2 SWAP1 PUSH2 0xA154 JUMP JUMPDEST PUSH1 0x0 PUSH1 0x40 MLOAD DUP1 DUP4 SUB DUP2 DUP6 DUP8 GAS CALL SWAP3 POP POP POP RETURNDATASIZE DUP1 PUSH1 0x0 DUP2 EQ PUSH2 0x6FEB JUMPI PUSH1 0x40 MLOAD SWAP2 POP PUSH1 0x1F NOT PUSH1 0x3F RETURNDATASIZE ADD AND DUP3 ADD PUSH1 0x40 MSTORE RETURNDATASIZE DUP3 MSTORE RETURNDATASIZE PUSH1 0x0 PUSH1 0x20 DUP5 ADD RETURNDATACOPY PUSH2 0x6FF0 JUMP JUMPDEST PUSH1 0x60 SWAP2 POP JUMPDEST POP POP SWAP1 POP DUP1 PUSH1 0x9 PUSH1 0x10 ADD SWAP1 PUSH2 0x703B JUMPI PUSH1 0x40 MLOAD PUSH32 0x8C379A000000000000000000000000000000000000000000000000000000000 DUP2 MSTORE PUSH1 0x4 ADD PUSH2 0x7032 SWAP2 SWAP1 PUSH2 0x9111 JUMP JUMPDEST PUSH1 0x40 MLOAD DUP1 SWAP2 SUB SWAP1 REVERT JUMPDEST POP POP POP POP JUMP JUMPDEST PUSH1 0x0 DUP1 DUP5 PUSH20 0xFFFFFFFFFFFFFFFFFFFFFFFFFFFFFFFFFFFFFFFF AND PUSH4 0xA9059CBB DUP6 DUP6 PUSH1 0x40 MLOAD PUSH1 0x24 ADD PUSH2 0x7073 SWAP3 SWAP2 SWAP1 PUSH2 0x9771 JUMP JUMPDEST PUSH1 0x40 MLOAD PUSH1 0x20 DUP2 DUP4 SUB SUB DUP2 MSTORE SWAP1 PUSH1 0x40 MSTORE SWAP1 PUSH1 0xE0 SHL PUSH1 0x20 DUP3 ADD DUP1 MLOAD PUSH28 0xFFFFFFFFFFFFFFFFFFFFFFFFFFFFFFFFFFFFFFFFFFFFFFFFFFFFFFFF DUP4 DUP2 DUP4 AND OR DUP4 MSTORE POP POP POP POP PUSH1 0x40 MLOAD PUSH2 0x70C1 SWAP2 SWAP1 PUSH2 0xA154 JUMP JUMPDEST PUSH1 0x0 PUSH1 0x40 MLOAD DUP1 DUP4 SUB DUP2 PUSH1 0x0 DUP7 GAS CALL SWAP2 POP POP RETURNDATASIZE DUP1 PUSH1 0x0 DUP2 EQ PUSH2 0x70FE JUMPI PUSH1 0x40 MLOAD SWAP2 POP PUSH1 0x1F NOT PUSH1 0x3F RETURNDATASIZE ADD AND DUP3 ADD PUSH1 0x40 MSTORE RETURNDATASIZE DUP3 MSTORE RETURNDATASIZE PUSH1 0x0 PUSH1 0x20 DUP5 ADD RETURNDATACOPY PUSH2 0x7103 JUMP JUMPDEST PUSH1 0x60 SWAP2 POP JUMPDEST POP SWAP2 POP SWAP2 POP DUP2 DUP1 ISZERO PUSH2 0x7131 JUMPI POP PUSH1 0x0 DUP2 MLOAD EQ DUP1 PUSH2 0x7130 JUMPI POP DUP1 DUP1 PUSH1 0x20 ADD SWAP1 MLOAD DUP2 ADD SWAP1 PUSH2 0x712F SWAP2 SWAP1 PUSH2 0x9991 JUMP JUMPDEST JUMPDEST JUMPDEST PUSH1 0x9 PUSH1 0x11 ADD SWAP1 PUSH2 0x7177 JUMPI PUSH1 0x40 MLOAD PUSH32 0x8C379A000000000000000000000000000000000000000000000000000000000 DUP2 MSTORE PUSH1 0x4 ADD PUSH2 0x716E SWAP2 SWAP1 PUSH2 0x9111 JUMP JUMPDEST PUSH1 0x40 MLOAD DUP1 SWAP2 SUB SWAP1 REVERT JUMPDEST POP POP POP POP POP POP JUMP JUMPDEST PUSH1 0x60 PUSH1 0x0 PUSH1 0x2 DUP4 PUSH1 0x2 PUSH2 0x7192 SWAP2 SWAP1 PUSH2 0x96B7 JUMP JUMPDEST PUSH2 0x719C SWAP2 SWAP1 PUSH2 0x95CF JUMP JUMPDEST PUSH8 0xFFFFFFFFFFFFFFFF DUP2 GT ISZERO PUSH2 0x71B5 JUMPI PUSH2 0x71B4 PUSH2 0x836B JUMP JUMPDEST JUMPDEST PUSH1 0x40 MLOAD SWAP1 DUP1 DUP3 MSTORE DUP1 PUSH1 0x1F ADD PUSH1 0x1F NOT AND PUSH1 0x20 ADD DUP3 ADD PUSH1 0x40 MSTORE DUP1 ISZERO PUSH2 0x71E7 JUMPI DUP2 PUSH1 0x20 ADD PUSH1 0x1 DUP3 MUL DUP1 CALLDATASIZE DUP4 CALLDATACOPY DUP1 DUP3 ADD SWAP2 POP POP SWAP1 POP JUMPDEST POP SWAP1 POP PUSH32 0x3000000000000000000000000000000000000000000000000000000000000000 DUP2 PUSH1 0x0 DUP2 MLOAD DUP2 LT PUSH2 0x721F JUMPI PUSH2 0x721E PUSH2 0x9133 JUMP JUMPDEST JUMPDEST PUSH1 0x20 ADD ADD SWAP1 PUSH31 0xFFFFFFFFFFFFFFFFFFFFFFFFFFFFFFFFFFFFFFFFFFFFFFFFFFFFFFFFFFFFFF NOT AND SWAP1 DUP2 PUSH1 0x0 BYTE SWAP1 MSTORE8 POP PUSH32 0x7800000000000000000000000000000000000000000000000000000000000000 DUP2 PUSH1 0x1 DUP2 MLOAD DUP2 LT PUSH2 0x7283 JUMPI PUSH2 0x7282 PUSH2 0x9133 JUMP JUMPDEST JUMPDEST PUSH1 0x20 ADD ADD SWAP1 PUSH31 0xFFFFFFFFFFFFFFFFFFFFFFFFFFFFFFFFFFFFFFFFFFFFFFFFFFFFFFFFFFFFFF NOT AND SWAP1 DUP2 PUSH1 0x0 BYTE SWAP1 MSTORE8 POP PUSH1 0x0 PUSH1 0x1 DUP5 PUSH1 0x2 PUSH2 0x72C3 SWAP2 SWAP1 PUSH2 0x96B7 JUMP JUMPDEST PUSH2 0x72CD SWAP2 SWAP1 PUSH2 0x95CF JUMP JUMPDEST SWAP1 POP JUMPDEST PUSH1 0x1 DUP2 GT ISZERO PUSH2 0x736D JUMPI PUSH32 0x3031323334353637383961626364656600000000000000000000000000000000 PUSH1 0xF DUP7 AND PUSH1 0x10 DUP2 LT PUSH2 0x730F JUMPI PUSH2 0x730E PUSH2 0x9133 JUMP JUMPDEST JUMPDEST BYTE PUSH1 0xF8 SHL DUP3 DUP3 DUP2 MLOAD DUP2 LT PUSH2 0x7326 JUMPI PUSH2 0x7325 PUSH2 0x9133 JUMP JUMPDEST JUMPDEST PUSH1 0x20 ADD ADD SWAP1 PUSH31 0xFFFFFFFFFFFFFFFFFFFFFFFFFFFFFFFFFFFFFFFFFFFFFFFFFFFFFFFFFFFFFF NOT AND SWAP1 DUP2 PUSH1 0x0 BYTE SWAP1 MSTORE8 POP PUSH1 0x4 DUP6 SWAP1 SHR SWAP5 POP DUP1 PUSH2 0x7366 SWAP1 PUSH2 0xA16B JUMP JUMPDEST SWAP1 POP PUSH2 0x72D0 JUMP JUMPDEST POP PUSH1 0x0 DUP5 EQ PUSH2 0x73B1 JUMPI PUSH1 0x40 MLOAD PUSH32 0x8C379A000000000000000000000000000000000000000000000000000000000 DUP2 MSTORE PUSH1 0x4 ADD PUSH2 0x73A8 SWAP1 PUSH2 0xA1E1 JUMP JUMPDEST PUSH1 0x40 MLOAD DUP1 SWAP2 SUB SWAP1 REVERT JUMPDEST DUP1 SWAP2 POP POP SWAP3 SWAP2 POP POP JUMP JUMPDEST PUSH2 0x73C5 DUP3 DUP3 PUSH2 0x21F0 JUMP JUMPDEST ISZERO PUSH2 0x7499 JUMPI PUSH1 0x0 PUSH1 0x4 PUSH1 0x0 DUP5 DUP2 MSTORE PUSH1 0x20 ADD SWAP1 DUP2 MSTORE PUSH1 0x20 ADD PUSH1 0x0 KECCAK256 PUSH1 0x0 ADD PUSH1 0x0 DUP4 PUSH20 0xFFFFFFFFFFFFFFFFFFFFFFFFFFFFFFFFFFFFFFFF AND PUSH20 0xFFFFFFFFFFFFFFFFFFFFFFFFFFFFFFFFFFFFFFFF AND DUP2 MSTORE PUSH1 0x20 ADD SWAP1 DUP2 MSTORE PUSH1 0x20 ADD PUSH1 0x0 KECCAK256 PUSH1 0x0 PUSH2 0x100 EXP DUP2 SLOAD DUP2 PUSH1 0xFF MUL NOT AND SWAP1 DUP4 ISZERO ISZERO MUL OR SWAP1 SSTORE POP PUSH2 0x743E PUSH2 0x462D JUMP JUMPDEST PUSH20 0xFFFFFFFFFFFFFFFFFFFFFFFFFFFFFFFFFFFFFFFF AND DUP2 PUSH20 0xFFFFFFFFFFFFFFFFFFFFFFFFFFFFFFFFFFFFFFFF AND DUP4 PUSH32 0xF6391F5C32D9C69D2A47EA670B442974B53935D1EDC7FD64EB21E047A839171B PUSH1 0x40 MLOAD PUSH1 0x40 MLOAD DUP1 SWAP2 SUB SWAP1 LOG4 JUMPDEST POP POP JUMP JUMPDEST PUSH1 0x0 PUSH2 0x74C5 DUP4 PUSH1 0x0 ADD DUP4 PUSH20 0xFFFFFFFFFFFFFFFFFFFFFFFFFFFFFFFFFFFFFFFF AND PUSH1 0x0 SHL PUSH2 0x7BB6 JUMP JUMPDEST SWAP1 POP SWAP3 SWAP2 POP POP JUMP JUMPDEST PUSH1 0x0 DUP1 DUP6 PUSH20 0xFFFFFFFFFFFFFFFFFFFFFFFFFFFFFFFFFFFFFFFF AND PUSH4 0x23B872DD DUP7 DUP7 DUP7 PUSH1 0x40 MLOAD PUSH1 0x24 ADD PUSH2 0x7501 SWAP4 SWAP3 SWAP2 SWAP1 PUSH2 0xA201 JUMP JUMPDEST PUSH1 0x40 MLOAD PUSH1 0x20 DUP2 DUP4 SUB SUB DUP2 MSTORE SWAP1 PUSH1 0x40 MSTORE SWAP1 PUSH1 0xE0 SHL PUSH1 0x20 DUP3 ADD DUP1 MLOAD PUSH28 0xFFFFFFFFFFFFFFFFFFFFFFFFFFFFFFFFFFFFFFFFFFFFFFFFFFFFFFFF DUP4 DUP2 DUP4 AND OR DUP4 MSTORE POP POP POP POP PUSH1 0x40 MLOAD PUSH2 0x754F SWAP2 SWAP1 PUSH2 0xA154 JUMP JUMPDEST PUSH1 0x0 PUSH1 0x40 MLOAD DUP1 DUP4 SUB DUP2 PUSH1 0x0 DUP7 GAS CALL SWAP2 POP POP RETURNDATASIZE DUP1 PUSH1 0x0 DUP2 EQ PUSH2 0x758C JUMPI PUSH1 0x40 MLOAD SWAP2 POP PUSH1 0x1F NOT PUSH1 0x3F RETURNDATASIZE ADD AND DUP3 ADD PUSH1 0x40 MSTORE RETURNDATASIZE DUP3 MSTORE RETURNDATASIZE PUSH1 0x0 PUSH1 0x20 DUP5 ADD RETURNDATACOPY PUSH2 0x7591 JUMP JUMPDEST PUSH1 0x60 SWAP2 POP JUMPDEST POP SWAP2 POP SWAP2 POP DUP2 DUP1 ISZERO PUSH2 0x75BF JUMPI POP PUSH1 0x0 DUP2 MLOAD EQ DUP1 PUSH2 0x75BE JUMPI POP DUP1 DUP1 PUSH1 0x20 ADD SWAP1 MLOAD DUP2 ADD SWAP1 PUSH2 0x75BD SWAP2 SWAP1 PUSH2 0x9991 JUMP JUMPDEST JUMPDEST JUMPDEST PUSH1 0x9 PUSH1 0x12 ADD SWAP1 PUSH2 0x7605 JUMPI PUSH1 0x40 MLOAD PUSH32 0x8C379A000000000000000000000000000000000000000000000000000000000 DUP2 MSTORE PUSH1 0x4 ADD PUSH2 0x75FC SWAP2 SWAP1 PUSH2 0x9111 JUMP JUMPDEST PUSH1 0x40 MLOAD DUP1 SWAP2 SUB SWAP1 REVERT JUMPDEST POP POP POP POP POP POP POP JUMP JUMPDEST PUSH1 0x60 PUSH1 0x0 PUSH1 0x1 PUSH8 0xFFFFFFFFFFFFFFFF DUP2 GT ISZERO PUSH2 0x762D JUMPI PUSH2 0x762C PUSH2 0x836B JUMP JUMPDEST JUMPDEST PUSH1 0x40 MLOAD SWAP1 DUP1 DUP3 MSTORE DUP1 PUSH1 0x20 MUL PUSH1 0x20 ADD DUP3 ADD PUSH1 0x40 MSTORE DUP1 ISZERO PUSH2 0x765B JUMPI DUP2 PUSH1 0x20 ADD PUSH1 0x20 DUP3 MUL DUP1 CALLDATASIZE DUP4 CALLDATACOPY DUP1 DUP3 ADD SWAP2 POP POP SWAP1 POP JUMPDEST POP SWAP1 POP DUP3 DUP2 PUSH1 0x0 DUP2 MLOAD DUP2 LT PUSH2 0x7673 JUMPI PUSH2 0x7672 PUSH2 0x9133 JUMP JUMPDEST JUMPDEST PUSH1 0x20 MUL PUSH1 0x20 ADD ADD DUP2 DUP2 MSTORE POP POP DUP1 SWAP2 POP POP SWAP2 SWAP1 POP JUMP JUMPDEST PUSH2 0x7696 DUP7 DUP7 DUP7 DUP7 DUP7 DUP7 PUSH2 0x7CCA JUMP JUMPDEST PUSH1 0x0 PUSH20 0xFFFFFFFFFFFFFFFFFFFFFFFFFFFFFFFFFFFFFFFF AND DUP6 PUSH20 0xFFFFFFFFFFFFFFFFFFFFFFFFFFFFFFFFFFFFFFFF AND EQ ISZERO PUSH2 0x7748 JUMPI PUSH1 0x0 JUMPDEST DUP4 MLOAD DUP2 LT ISZERO PUSH2 0x7746 JUMPI DUP3 DUP2 DUP2 MLOAD DUP2 LT PUSH2 0x76EA JUMPI PUSH2 0x76E9 PUSH2 0x9133 JUMP JUMPDEST JUMPDEST PUSH1 0x20 MUL PUSH1 0x20 ADD ADD MLOAD PUSH1 0x3 PUSH1 0x0 DUP7 DUP5 DUP2 MLOAD DUP2 LT PUSH2 0x7709 JUMPI PUSH2 0x7708 PUSH2 0x9133 JUMP JUMPDEST JUMPDEST PUSH1 0x20 MUL PUSH1 0x20 ADD ADD MLOAD DUP2 MSTORE PUSH1 0x20 ADD SWAP1 DUP2 MSTORE PUSH1 0x20 ADD PUSH1 0x0 KECCAK256 PUSH1 0x0 DUP3 DUP3 SLOAD PUSH2 0x772E SWAP2 SWAP1 PUSH2 0x95CF JUMP JUMPDEST SWAP3 POP POP DUP2 SWAP1 SSTORE POP DUP1 PUSH2 0x773F SWAP1 PUSH2 0x91C5 JUMP JUMPDEST SWAP1 POP PUSH2 0x76CE JUMP JUMPDEST POP JUMPDEST PUSH1 0x0 PUSH20 0xFFFFFFFFFFFFFFFFFFFFFFFFFFFFFFFFFFFFFFFF AND DUP5 PUSH20 0xFFFFFFFFFFFFFFFFFFFFFFFFFFFFFFFFFFFFFFFF AND EQ ISZERO PUSH2 0x77FA JUMPI PUSH1 0x0 JUMPDEST DUP4 MLOAD DUP2 LT ISZERO PUSH2 0x77F8 JUMPI DUP3 DUP2 DUP2 MLOAD DUP2 LT PUSH2 0x779C JUMPI PUSH2 0x779B PUSH2 0x9133 JUMP JUMPDEST JUMPDEST PUSH1 0x20 MUL PUSH1 0x20 ADD ADD MLOAD PUSH1 0x3 PUSH1 0x0 DUP7 DUP5 DUP2 MLOAD DUP2 LT PUSH2 0x77BB JUMPI PUSH2 0x77BA PUSH2 0x9133 JUMP JUMPDEST JUMPDEST PUSH1 0x20 MUL PUSH1 0x20 ADD ADD MLOAD DUP2 MSTORE PUSH1 0x20 ADD SWAP1 DUP2 MSTORE PUSH1 0x20 ADD PUSH1 0x0 KECCAK256 PUSH1 0x0 DUP3 DUP3 SLOAD PUSH2 0x77E0 SWAP2 SWAP1 PUSH2 0x9191 JUMP JUMPDEST SWAP3 POP POP DUP2 SWAP1 SSTORE POP DUP1 PUSH2 0x77F1 SWAP1 PUSH2 0x91C5 JUMP JUMPDEST SWAP1 POP PUSH2 0x7780 JUMP JUMPDEST POP JUMPDEST POP POP POP POP POP POP JUMP JUMPDEST PUSH2 0x7821 DUP5 PUSH20 0xFFFFFFFFFFFFFFFFFFFFFFFFFFFFFFFFFFFFFFFF AND PUSH2 0x7CD2 JUMP JUMPDEST ISZERO PUSH2 0x79D2 JUMPI DUP4 PUSH20 0xFFFFFFFFFFFFFFFFFFFFFFFFFFFFFFFFFFFFFFFF AND PUSH4 0xF23A6E61 DUP8 DUP8 DUP7 DUP7 DUP7 PUSH1 0x40 MLOAD DUP7 PUSH4 0xFFFFFFFF AND PUSH1 0xE0 SHL DUP2 MSTORE PUSH1 0x4 ADD PUSH2 0x7867 SWAP6 SWAP5 SWAP4 SWAP3 SWAP2 SWAP1 PUSH2 0xA282 JUMP JUMPDEST PUSH1 0x20 PUSH1 0x40 MLOAD DUP1 DUP4 SUB DUP2 PUSH1 0x0 DUP8 GAS CALL SWAP3 POP POP POP DUP1 ISZERO PUSH2 0x78A3 JUMPI POP PUSH1 0x40 MLOAD RETURNDATASIZE PUSH1 0x1F NOT PUSH1 0x1F DUP3 ADD AND DUP3 ADD DUP1 PUSH1 0x40 MSTORE POP DUP2 ADD SWAP1 PUSH2 0x78A0 SWAP2 SWAP1 PUSH2 0xA2F1 JUMP JUMPDEST PUSH1 0x1 JUMPDEST PUSH2 0x7949 JUMPI PUSH2 0x78AF PUSH2 0xA32B JUMP JUMPDEST DUP1 PUSH4 0x8C379A0 EQ ISZERO PUSH2 0x790C JUMPI POP PUSH2 0x78C4 PUSH2 0xA34D JUMP JUMPDEST DUP1 PUSH2 0x78CF JUMPI POP PUSH2 0x790E JUMP JUMPDEST DUP1 PUSH1 0x40 MLOAD PUSH32 0x8C379A000000000000000000000000000000000000000000000000000000000 DUP2 MSTORE PUSH1 0x4 ADD PUSH2 0x7903 SWAP2 SWAP1 PUSH2 0x826B JUMP JUMPDEST PUSH1 0x40 MLOAD DUP1 SWAP2 SUB SWAP1 REVERT JUMPDEST POP JUMPDEST PUSH1 0x40 MLOAD PUSH32 0x8C379A000000000000000000000000000000000000000000000000000000000 DUP2 MSTORE PUSH1 0x4 ADD PUSH2 0x7940 SWAP1 PUSH2 0xA455 JUMP JUMPDEST PUSH1 0x40 MLOAD DUP1 SWAP2 SUB SWAP1 REVERT JUMPDEST PUSH4 0xF23A6E61 PUSH1 0xE0 SHL PUSH28 0xFFFFFFFFFFFFFFFFFFFFFFFFFFFFFFFFFFFFFFFFFFFFFFFFFFFFFFFF NOT AND DUP2 PUSH28 0xFFFFFFFFFFFFFFFFFFFFFFFFFFFFFFFFFFFFFFFFFFFFFFFFFFFFFFFF NOT AND EQ PUSH2 0x79D0 JUMPI PUSH1 0x40 MLOAD PUSH32 0x8C379A000000000000000000000000000000000000000000000000000000000 DUP2 MSTORE PUSH1 0x4 ADD PUSH2 0x79C7 SWAP1 PUSH2 0xA4E7 JUMP JUMPDEST PUSH1 0x40 MLOAD DUP1 SWAP2 SUB SWAP1 REVERT JUMPDEST POP JUMPDEST POP POP POP POP POP POP JUMP JUMPDEST PUSH1 0x0 PUSH2 0x3E8 DUP5 GT DUP1 ISZERO PUSH2 0x79EE JUMPI POP PUSH2 0x3E8 DUP4 GT JUMPDEST PUSH1 0x9 PUSH1 0x15 ADD SWAP1 PUSH2 0x7A34 JUMPI PUSH1 0x40 MLOAD PUSH32 0x8C379A000000000000000000000000000000000000000000000000000000000 DUP2 MSTORE PUSH1 0x4 ADD PUSH2 0x7A2B SWAP2 SWAP1 PUSH2 0x9111 JUMP JUMPDEST PUSH1 0x40 MLOAD DUP1 SWAP2 SUB SWAP1 REVERT JUMPDEST POP PUSH1 0x0 DUP3 DUP7 PUSH2 0x7A43 SWAP2 SWAP1 PUSH2 0x96B7 JUMP JUMPDEST SWAP1 POP PUSH1 0x0 DUP2 PUSH2 0x2710 DUP8 PUSH2 0x7A56 SWAP2 SWAP1 PUSH2 0x96B7 JUMP JUMPDEST PUSH2 0x7A60 SWAP2 SWAP1 PUSH2 0x95CF JUMP JUMPDEST DUP3 DUP7 PUSH2 0x7A6C SWAP2 SWAP1 PUSH2 0x96B7 JUMP JUMPDEST PUSH2 0x7A76 SWAP2 SWAP1 PUSH2 0x9740 JUMP JUMPDEST SWAP1 POP DUP1 SWAP3 POP POP POP SWAP5 SWAP4 POP POP POP POP JUMP JUMPDEST PUSH1 0x0 DUP3 PUSH1 0x0 ADD DUP3 DUP2 SLOAD DUP2 LT PUSH2 0x7A9D JUMPI PUSH2 0x7A9C PUSH2 0x9133 JUMP JUMPDEST JUMPDEST SWAP1 PUSH1 0x0 MSTORE PUSH1 0x20 PUSH1 0x0 KECCAK256 ADD SLOAD SWAP1 POP SWAP3 SWAP2 POP POP JUMP JUMPDEST PUSH1 0x0 PUSH1 0x8 PUSH2 0x3840 TIMESTAMP PUSH2 0x7AC2 SWAP2 SWAP1 PUSH2 0x9740 JUMP JUMPDEST PUSH2 0x7ACC SWAP2 SWAP1 PUSH2 0x9D27 JUMP JUMPDEST SWAP1 POP SWAP1 JUMP JUMPDEST PUSH1 0x0 PUSH2 0x3E8 DUP5 GT DUP1 ISZERO PUSH2 0x7AE5 JUMPI POP PUSH2 0x3E8 DUP4 GT JUMPDEST PUSH1 0x9 PUSH1 0x15 ADD SWAP1 PUSH2 0x7B2B JUMPI PUSH1 0x40 MLOAD PUSH32 0x8C379A000000000000000000000000000000000000000000000000000000000 DUP2 MSTORE PUSH1 0x4 ADD PUSH2 0x7B22 SWAP2 SWAP1 PUSH2 0x9111 JUMP JUMPDEST PUSH1 0x40 MLOAD DUP1 SWAP2 SUB SWAP1 REVERT JUMPDEST POP PUSH1 0x0 PUSH1 0x1 DUP7 DUP6 PUSH2 0x7B3C SWAP2 SWAP1 PUSH2 0x9191 JUMP JUMPDEST DUP5 PUSH2 0x7B47 SWAP2 SWAP1 PUSH2 0x96B7 JUMP JUMPDEST PUSH2 0x2710 DUP9 DUP9 PUSH2 0x7B56 SWAP2 SWAP1 PUSH2 0x96B7 JUMP JUMPDEST PUSH2 0x7B60 SWAP2 SWAP1 PUSH2 0x96B7 JUMP JUMPDEST PUSH2 0x7B6A SWAP2 SWAP1 PUSH2 0x9740 JUMP JUMPDEST PUSH2 0x7B74 SWAP2 SWAP1 PUSH2 0x95CF JUMP JUMPDEST SWAP1 POP DUP1 SWAP2 POP POP SWAP5 SWAP4 POP POP POP POP JUMP JUMPDEST PUSH1 0x0 DUP2 PUSH1 0x0 ADD DUP1 SLOAD SWAP1 POP SWAP1 POP SWAP2 SWAP1 POP JUMP JUMPDEST PUSH1 0x0 DUP1 DUP4 PUSH1 0x1 ADD PUSH1 0x0 DUP5 DUP2 MSTORE PUSH1 0x20 ADD SWAP1 DUP2 MSTORE PUSH1 0x20 ADD PUSH1 0x0 KECCAK256 SLOAD EQ ISZERO SWAP1 POP SWAP3 SWAP2 POP POP JUMP JUMPDEST PUSH1 0x0 DUP1 DUP4 PUSH1 0x1 ADD PUSH1 0x0 DUP5 DUP2 MSTORE PUSH1 0x20 ADD SWAP1 DUP2 MSTORE PUSH1 0x20 ADD PUSH1 0x0 KECCAK256 SLOAD SWAP1 POP PUSH1 0x0 DUP2 EQ PUSH2 0x7CBE JUMPI PUSH1 0x0 PUSH1 0x1 DUP3 PUSH2 0x7BE8 SWAP2 SWAP1 PUSH2 0x9191 JUMP JUMPDEST SWAP1 POP PUSH1 0x0 PUSH1 0x1 DUP7 PUSH1 0x0 ADD DUP1 SLOAD SWAP1 POP PUSH2 0x7C00 SWAP2 SWAP1 PUSH2 0x9191 JUMP JUMPDEST SWAP1 POP DUP2 DUP2 EQ PUSH2 0x7C6F JUMPI PUSH1 0x0 DUP7 PUSH1 0x0 ADD DUP3 DUP2 SLOAD DUP2 LT PUSH2 0x7C21 JUMPI PUSH2 0x7C20 PUSH2 0x9133 JUMP JUMPDEST JUMPDEST SWAP1 PUSH1 0x0 MSTORE PUSH1 0x20 PUSH1 0x0 KECCAK256 ADD SLOAD SWAP1 POP DUP1 DUP8 PUSH1 0x0 ADD DUP5 DUP2 SLOAD DUP2 LT PUSH2 0x7C45 JUMPI PUSH2 0x7C44 PUSH2 0x9133 JUMP JUMPDEST JUMPDEST SWAP1 PUSH1 0x0 MSTORE PUSH1 0x20 PUSH1 0x0 KECCAK256 ADD DUP2 SWAP1 SSTORE POP DUP4 DUP8 PUSH1 0x1 ADD PUSH1 0x0 DUP4 DUP2 MSTORE PUSH1 0x20 ADD SWAP1 DUP2 MSTORE PUSH1 0x20 ADD PUSH1 0x0 KECCAK256 DUP2 SWAP1 SSTORE POP POP JUMPDEST DUP6 PUSH1 0x0 ADD DUP1 SLOAD DUP1 PUSH2 0x7C83 JUMPI PUSH2 0x7C82 PUSH2 0xA507 JUMP JUMPDEST JUMPDEST PUSH1 0x1 SWAP1 SUB DUP2 DUP2 SWAP1 PUSH1 0x0 MSTORE PUSH1 0x20 PUSH1 0x0 KECCAK256 ADD PUSH1 0x0 SWAP1 SSTORE SWAP1 SSTORE DUP6 PUSH1 0x1 ADD PUSH1 0x0 DUP7 DUP2 MSTORE PUSH1 0x20 ADD SWAP1 DUP2 MSTORE PUSH1 0x20 ADD PUSH1 0x0 KECCAK256 PUSH1 0x0 SWAP1 SSTORE PUSH1 0x1 SWAP4 POP POP POP POP PUSH2 0x7CC4 JUMP JUMPDEST PUSH1 0x0 SWAP2 POP POP JUMPDEST SWAP3 SWAP2 POP POP JUMP JUMPDEST POP POP POP POP POP POP JUMP JUMPDEST PUSH1 0x0 DUP1 DUP3 EXTCODESIZE SWAP1 POP PUSH1 0x0 DUP2 GT SWAP2 POP POP SWAP2 SWAP1 POP JUMP JUMPDEST DUP3 DUP1 SLOAD PUSH2 0x7CF1 SWAP1 PUSH2 0x904A JUMP JUMPDEST SWAP1 PUSH1 0x0 MSTORE PUSH1 0x20 PUSH1 0x0 KECCAK256 SWAP1 PUSH1 0x1F ADD PUSH1 0x20 SWAP1 DIV DUP2 ADD SWAP3 DUP3 PUSH2 0x7D13 JUMPI PUSH1 0x0 DUP6 SSTORE PUSH2 0x7D5A JUMP JUMPDEST DUP3 PUSH1 0x1F LT PUSH2 0x7D2C JUMPI DUP1 MLOAD PUSH1 0xFF NOT AND DUP4 DUP1 ADD OR DUP6 SSTORE PUSH2 0x7D5A JUMP JUMPDEST DUP3 DUP1 ADD PUSH1 0x1 ADD DUP6 SSTORE DUP3 ISZERO PUSH2 0x7D5A JUMPI SWAP2 DUP3 ADD JUMPDEST DUP3 DUP2 GT ISZERO PUSH2 0x7D59 JUMPI DUP3 MLOAD DUP3 SSTORE SWAP2 PUSH1 0x20 ADD SWAP2 SWAP1 PUSH1 0x1 ADD SWAP1 PUSH2 0x7D3E JUMP JUMPDEST JUMPDEST POP SWAP1 POP PUSH2 0x7D67 SWAP2 SWAP1 PUSH2 0x7EB2 JUMP JUMPDEST POP SWAP1 JUMP JUMPDEST PUSH1 0x40 MLOAD DUP1 PUSH1 0xA0 ADD PUSH1 0x40 MSTORE DUP1 PUSH1 0x0 PUSH20 0xFFFFFFFFFFFFFFFFFFFFFFFFFFFFFFFFFFFFFFFF AND DUP2 MSTORE PUSH1 0x20 ADD PUSH2 0x7D9B PUSH2 0x7DEC JUMP JUMPDEST DUP2 MSTORE PUSH1 0x20 ADD PUSH1 0x0 PUSH16 0xFFFFFFFFFFFFFFFFFFFFFFFFFFFFFFFF AND DUP2 MSTORE PUSH1 0x20 ADD PUSH1 0x0 PUSH16 0xFFFFFFFFFFFFFFFFFFFFFFFFFFFFFFFF AND DUP2 MSTORE PUSH1 0x20 ADD PUSH1 0x0 PUSH16 0xFFFFFFFFFFFFFFFFFFFFFFFFFFFFFFFF AND DUP2 MSTORE POP SWAP1 JUMP JUMPDEST PUSH1 0x40 MLOAD DUP1 PUSH2 0x100 ADD PUSH1 0x40 MSTORE DUP1 PUSH1 0x8 SWAP1 PUSH1 0x20 DUP3 MUL DUP1 CALLDATASIZE DUP4 CALLDATACOPY DUP1 DUP3 ADD SWAP2 POP POP SWAP1 POP POP SWAP1 JUMP JUMPDEST DUP3 PUSH1 0x8 PUSH1 0x7 ADD PUSH1 0x8 SWAP1 DIV DUP2 ADD SWAP3 DUP3 ISZERO PUSH2 0x7EA1 JUMPI SWAP2 PUSH1 0x20 MUL DUP3 ADD PUSH1 0x0 JUMPDEST DUP4 DUP3 GT ISZERO PUSH2 0x7E6F JUMPI DUP4 MLOAD DUP4 DUP3 PUSH2 0x100 EXP DUP2 SLOAD DUP2 PUSH4 0xFFFFFFFF MUL NOT AND SWAP1 DUP4 PUSH4 0xFFFFFFFF AND MUL OR SWAP1 SSTORE POP SWAP3 PUSH1 0x20 ADD SWAP3 PUSH1 0x4 ADD PUSH1 0x20 DUP2 PUSH1 0x3 ADD DIV SWAP3 DUP4 ADD SWAP3 PUSH1 0x1 SUB MUL PUSH2 0x7E2B JUMP JUMPDEST DUP1 ISZERO PUSH2 0x7E9F JUMPI DUP3 DUP2 PUSH2 0x100 EXP DUP2 SLOAD SWAP1 PUSH4 0xFFFFFFFF MUL NOT AND SWAP1 SSTORE PUSH1 0x4 ADD PUSH1 0x20 DUP2 PUSH1 0x3 ADD DIV SWAP3 DUP4 ADD SWAP3 PUSH1 0x1 SUB MUL PUSH2 0x7E6F JUMP JUMPDEST POP JUMPDEST POP SWAP1 POP PUSH2 0x7EAE SWAP2 SWAP1 PUSH2 0x7EB2 JUMP JUMPDEST POP SWAP1 JUMP JUMPDEST JUMPDEST DUP1 DUP3 GT ISZERO PUSH2 0x7ECB JUMPI PUSH1 0x0 DUP2 PUSH1 0x0 SWAP1 SSTORE POP PUSH1 0x1 ADD PUSH2 0x7EB3 JUMP JUMPDEST POP SWAP1 JUMP JUMPDEST PUSH1 0x0 PUSH1 0x40 MLOAD SWAP1 POP SWAP1 JUMP JUMPDEST PUSH1 0x0 DUP1 REVERT JUMPDEST PUSH1 0x0 DUP1 REVERT JUMPDEST PUSH1 0x0 PUSH20 0xFFFFFFFFFFFFFFFFFFFFFFFFFFFFFFFFFFFFFFFF DUP3 AND SWAP1 POP SWAP2 SWAP1 POP JUMP JUMPDEST PUSH1 0x0 PUSH2 0x7F0E DUP3 PUSH2 0x7EE3 JUMP JUMPDEST SWAP1 POP SWAP2 SWAP1 POP JUMP JUMPDEST PUSH2 0x7F1E DUP2 PUSH2 0x7F03 JUMP JUMPDEST DUP2 EQ PUSH2 0x7F29 JUMPI PUSH1 0x0 DUP1 REVERT JUMPDEST POP JUMP JUMPDEST PUSH1 0x0 DUP2 CALLDATALOAD SWAP1 POP PUSH2 0x7F3B DUP2 PUSH2 0x7F15 JUMP JUMPDEST SWAP3 SWAP2 POP POP JUMP JUMPDEST PUSH1 0x0 DUP2 SWAP1 POP SWAP2 SWAP1 POP JUMP JUMPDEST PUSH2 0x7F54 DUP2 PUSH2 0x7F41 JUMP JUMPDEST DUP2 EQ PUSH2 0x7F5F JUMPI PUSH1 0x0 DUP1 REVERT JUMPDEST POP JUMP JUMPDEST PUSH1 0x0 DUP2 CALLDATALOAD SWAP1 POP PUSH2 0x7F71 DUP2 PUSH2 0x7F4B JUMP JUMPDEST SWAP3 SWAP2 POP POP JUMP JUMPDEST PUSH1 0x0 DUP1 PUSH1 0x40 DUP4 DUP6 SUB SLT ISZERO PUSH2 0x7F8E JUMPI PUSH2 0x7F8D PUSH2 0x7ED9 JUMP JUMPDEST JUMPDEST PUSH1 0x0 PUSH2 0x7F9C DUP6 DUP3 DUP7 ADD PUSH2 0x7F2C JUMP JUMPDEST SWAP3 POP POP PUSH1 0x20 PUSH2 0x7FAD DUP6 DUP3 DUP7 ADD PUSH2 0x7F62 JUMP JUMPDEST SWAP2 POP POP SWAP3 POP SWAP3 SWAP1 POP JUMP JUMPDEST PUSH2 0x7FC0 DUP2 PUSH2 0x7F41 JUMP JUMPDEST DUP3 MSTORE POP POP JUMP JUMPDEST PUSH1 0x0 PUSH1 0x20 DUP3 ADD SWAP1 POP PUSH2 0x7FDB PUSH1 0x0 DUP4 ADD DUP5 PUSH2 0x7FB7 JUMP JUMPDEST SWAP3 SWAP2 POP POP JUMP JUMPDEST PUSH1 0x0 PUSH32 0xFFFFFFFF00000000000000000000000000000000000000000000000000000000 DUP3 AND SWAP1 POP SWAP2 SWAP1 POP JUMP JUMPDEST PUSH2 0x8016 DUP2 PUSH2 0x7FE1 JUMP JUMPDEST DUP2 EQ PUSH2 0x8021 JUMPI PUSH1 0x0 DUP1 REVERT JUMPDEST POP JUMP JUMPDEST PUSH1 0x0 DUP2 CALLDATALOAD SWAP1 POP PUSH2 0x8033 DUP2 PUSH2 0x800D JUMP JUMPDEST SWAP3 SWAP2 POP POP JUMP JUMPDEST PUSH1 0x0 PUSH1 0x20 DUP3 DUP5 SUB SLT ISZERO PUSH2 0x804F JUMPI PUSH2 0x804E PUSH2 0x7ED9 JUMP JUMPDEST JUMPDEST PUSH1 0x0 PUSH2 0x805D DUP5 DUP3 DUP6 ADD PUSH2 0x8024 JUMP JUMPDEST SWAP2 POP POP SWAP3 SWAP2 POP POP JUMP JUMPDEST PUSH1 0x0 DUP2 ISZERO ISZERO SWAP1 POP SWAP2 SWAP1 POP JUMP JUMPDEST PUSH2 0x807B DUP2 PUSH2 0x8066 JUMP JUMPDEST DUP3 MSTORE POP POP JUMP JUMPDEST PUSH1 0x0 PUSH1 0x20 DUP3 ADD SWAP1 POP PUSH2 0x8096 PUSH1 0x0 DUP4 ADD DUP5 PUSH2 0x8072 JUMP JUMPDEST SWAP3 SWAP2 POP POP JUMP JUMPDEST PUSH1 0x0 PUSH1 0x20 DUP3 DUP5 SUB SLT ISZERO PUSH2 0x80B2 JUMPI PUSH2 0x80B1 PUSH2 0x7ED9 JUMP JUMPDEST JUMPDEST PUSH1 0x0 PUSH2 0x80C0 DUP5 DUP3 DUP6 ADD PUSH2 0x7F2C JUMP JUMPDEST SWAP2 POP POP SWAP3 SWAP2 POP POP JUMP JUMPDEST PUSH1 0x0 DUP1 REVERT JUMPDEST PUSH1 0x0 DUP1 REVERT JUMPDEST PUSH1 0x0 DUP1 REVERT JUMPDEST PUSH1 0x0 DUP1 DUP4 PUSH1 0x1F DUP5 ADD SLT PUSH2 0x80EE JUMPI PUSH2 0x80ED PUSH2 0x80C9 JUMP JUMPDEST JUMPDEST DUP3 CALLDATALOAD SWAP1 POP PUSH8 0xFFFFFFFFFFFFFFFF DUP2 GT ISZERO PUSH2 0x810B JUMPI PUSH2 0x810A PUSH2 0x80CE JUMP JUMPDEST JUMPDEST PUSH1 0x20 DUP4 ADD SWAP2 POP DUP4 PUSH1 0x40 DUP3 MUL DUP4 ADD GT ISZERO PUSH2 0x8127 JUMPI PUSH2 0x8126 PUSH2 0x80D3 JUMP JUMPDEST JUMPDEST SWAP3 POP SWAP3 SWAP1 POP JUMP JUMPDEST PUSH1 0x0 DUP1 PUSH1 0x20 DUP4 DUP6 SUB SLT ISZERO PUSH2 0x8145 JUMPI PUSH2 0x8144 PUSH2 0x7ED9 JUMP JUMPDEST JUMPDEST PUSH1 0x0 DUP4 ADD CALLDATALOAD PUSH8 0xFFFFFFFFFFFFFFFF DUP2 GT ISZERO PUSH2 0x8163 JUMPI PUSH2 0x8162 PUSH2 0x7EDE JUMP JUMPDEST JUMPDEST PUSH2 0x816F DUP6 DUP3 DUP7 ADD PUSH2 0x80D8 JUMP JUMPDEST SWAP3 POP SWAP3 POP POP SWAP3 POP SWAP3 SWAP1 POP JUMP JUMPDEST PUSH1 0x0 PUSH1 0x20 DUP3 DUP5 SUB SLT ISZERO PUSH2 0x8191 JUMPI PUSH2 0x8190 PUSH2 0x7ED9 JUMP JUMPDEST JUMPDEST PUSH1 0x0 PUSH2 0x819F DUP5 DUP3 DUP6 ADD PUSH2 0x7F62 JUMP JUMPDEST SWAP2 POP POP SWAP3 SWAP2 POP POP JUMP JUMPDEST PUSH2 0x81B1 DUP2 PUSH2 0x7F03 JUMP JUMPDEST DUP3 MSTORE POP POP JUMP JUMPDEST PUSH1 0x0 PUSH1 0x20 DUP3 ADD SWAP1 POP PUSH2 0x81CC PUSH1 0x0 DUP4 ADD DUP5 PUSH2 0x81A8 JUMP JUMPDEST SWAP3 SWAP2 POP POP JUMP JUMPDEST PUSH1 0x0 DUP2 MLOAD SWAP1 POP SWAP2 SWAP1 POP JUMP JUMPDEST PUSH1 0x0 DUP3 DUP3 MSTORE PUSH1 0x20 DUP3 ADD SWAP1 POP SWAP3 SWAP2 POP POP JUMP JUMPDEST PUSH1 0x0 JUMPDEST DUP4 DUP2 LT ISZERO PUSH2 0x820C JUMPI DUP1 DUP3 ADD MLOAD DUP2 DUP5 ADD MSTORE PUSH1 0x20 DUP2 ADD SWAP1 POP PUSH2 0x81F1 JUMP JUMPDEST DUP4 DUP2 GT ISZERO PUSH2 0x821B JUMPI PUSH1 0x0 DUP5 DUP5 ADD MSTORE JUMPDEST POP POP POP POP JUMP JUMPDEST PUSH1 0x0 PUSH1 0x1F NOT PUSH1 0x1F DUP4 ADD AND SWAP1 POP SWAP2 SWAP1 POP JUMP JUMPDEST PUSH1 0x0 PUSH2 0x823D DUP3 PUSH2 0x81D2 JUMP JUMPDEST PUSH2 0x8247 DUP2 DUP6 PUSH2 0x81DD JUMP JUMPDEST SWAP4 POP PUSH2 0x8257 DUP2 DUP6 PUSH1 0x20 DUP7 ADD PUSH2 0x81EE JUMP JUMPDEST PUSH2 0x8260 DUP2 PUSH2 0x8221 JUMP JUMPDEST DUP5 ADD SWAP2 POP POP SWAP3 SWAP2 POP POP JUMP JUMPDEST PUSH1 0x0 PUSH1 0x20 DUP3 ADD SWAP1 POP DUP2 DUP2 SUB PUSH1 0x0 DUP4 ADD MSTORE PUSH2 0x8285 DUP2 DUP5 PUSH2 0x8232 JUMP JUMPDEST SWAP1 POP SWAP3 SWAP2 POP POP JUMP JUMPDEST PUSH1 0x0 DUP1 REVERT JUMPDEST PUSH1 0x0 PUSH1 0xC0 DUP3 DUP5 SUB SLT ISZERO PUSH2 0x82A8 JUMPI PUSH2 0x82A7 PUSH2 0x828D JUMP JUMPDEST JUMPDEST DUP2 SWAP1 POP SWAP3 SWAP2 POP POP JUMP JUMPDEST PUSH1 0x0 PUSH1 0xC0 DUP3 DUP5 SUB SLT ISZERO PUSH2 0x82C7 JUMPI PUSH2 0x82C6 PUSH2 0x7ED9 JUMP JUMPDEST JUMPDEST PUSH1 0x0 PUSH2 0x82D5 DUP5 DUP3 DUP6 ADD PUSH2 0x8292 JUMP JUMPDEST SWAP2 POP POP SWAP3 SWAP2 POP POP JUMP JUMPDEST PUSH1 0x0 DUP2 SWAP1 POP SWAP2 SWAP1 POP JUMP JUMPDEST PUSH2 0x82F1 DUP2 PUSH2 0x82DE JUMP JUMPDEST DUP2 EQ PUSH2 0x82FC JUMPI PUSH1 0x0 DUP1 REVERT JUMPDEST POP JUMP JUMPDEST PUSH1 0x0 DUP2 CALLDATALOAD SWAP1 POP PUSH2 0x830E DUP2 PUSH2 0x82E8 JUMP JUMPDEST SWAP3 SWAP2 POP POP JUMP JUMPDEST PUSH1 0x0 PUSH1 0x20 DUP3 DUP5 SUB SLT ISZERO PUSH2 0x832A JUMPI PUSH2 0x8329 PUSH2 0x7ED9 JUMP JUMPDEST JUMPDEST PUSH1 0x0 PUSH2 0x8338 DUP5 DUP3 DUP6 ADD PUSH2 0x82FF JUMP JUMPDEST SWAP2 POP POP SWAP3 SWAP2 POP POP JUMP JUMPDEST PUSH2 0x834A DUP2 PUSH2 0x82DE JUMP JUMPDEST DUP3 MSTORE POP POP JUMP JUMPDEST PUSH1 0x0 PUSH1 0x20 DUP3 ADD SWAP1 POP PUSH2 0x8365 PUSH1 0x0 DUP4 ADD DUP5 PUSH2 0x8341 JUMP JUMPDEST SWAP3 SWAP2 POP POP JUMP JUMPDEST PUSH32 0x4E487B7100000000000000000000000000000000000000000000000000000000 PUSH1 0x0 MSTORE PUSH1 0x41 PUSH1 0x4 MSTORE PUSH1 0x24 PUSH1 0x0 REVERT JUMPDEST PUSH2 0x83A3 DUP3 PUSH2 0x8221 JUMP JUMPDEST DUP2 ADD DUP2 DUP2 LT PUSH8 0xFFFFFFFFFFFFFFFF DUP3 GT OR ISZERO PUSH2 0x83C2 JUMPI PUSH2 0x83C1 PUSH2 0x836B JUMP JUMPDEST JUMPDEST DUP1 PUSH1 0x40 MSTORE POP POP POP JUMP JUMPDEST PUSH1 0x0 PUSH2 0x83D5 PUSH2 0x7ECF JUMP JUMPDEST SWAP1 POP PUSH2 0x83E1 DUP3 DUP3 PUSH2 0x839A JUMP JUMPDEST SWAP2 SWAP1 POP JUMP JUMPDEST PUSH1 0x0 PUSH8 0xFFFFFFFFFFFFFFFF DUP3 GT ISZERO PUSH2 0x8401 JUMPI PUSH2 0x8400 PUSH2 0x836B JUMP JUMPDEST JUMPDEST PUSH1 0x20 DUP3 MUL SWAP1 POP PUSH1 0x20 DUP2 ADD SWAP1 POP SWAP2 SWAP1 POP JUMP JUMPDEST PUSH1 0x0 PUSH2 0x8425 PUSH2 0x8420 DUP5 PUSH2 0x83E6 JUMP JUMPDEST PUSH2 0x83CB JUMP JUMPDEST SWAP1 POP DUP1 DUP4 DUP3 MSTORE PUSH1 0x20 DUP3 ADD SWAP1 POP PUSH1 0x20 DUP5 MUL DUP4 ADD DUP6 DUP2 GT ISZERO PUSH2 0x8448 JUMPI PUSH2 0x8447 PUSH2 0x80D3 JUMP JUMPDEST JUMPDEST DUP4 JUMPDEST DUP2 DUP2 LT ISZERO PUSH2 0x8471 JUMPI DUP1 PUSH2 0x845D DUP9 DUP3 PUSH2 0x7F62 JUMP JUMPDEST DUP5 MSTORE PUSH1 0x20 DUP5 ADD SWAP4 POP POP PUSH1 0x20 DUP2 ADD SWAP1 POP PUSH2 0x844A JUMP JUMPDEST POP POP POP SWAP4 SWAP3 POP POP POP JUMP JUMPDEST PUSH1 0x0 DUP3 PUSH1 0x1F DUP4 ADD SLT PUSH2 0x8490 JUMPI PUSH2 0x848F PUSH2 0x80C9 JUMP JUMPDEST JUMPDEST DUP2 CALLDATALOAD PUSH2 0x84A0 DUP5 DUP3 PUSH1 0x20 DUP7 ADD PUSH2 0x8412 JUMP JUMPDEST SWAP2 POP POP SWAP3 SWAP2 POP POP JUMP JUMPDEST PUSH1 0x0 DUP1 REVERT JUMPDEST PUSH1 0x0 PUSH8 0xFFFFFFFFFFFFFFFF DUP3 GT ISZERO PUSH2 0x84C9 JUMPI PUSH2 0x84C8 PUSH2 0x836B JUMP JUMPDEST JUMPDEST PUSH2 0x84D2 DUP3 PUSH2 0x8221 JUMP JUMPDEST SWAP1 POP PUSH1 0x20 DUP2 ADD SWAP1 POP SWAP2 SWAP1 POP JUMP JUMPDEST DUP3 DUP2 DUP4 CALLDATACOPY PUSH1 0x0 DUP4 DUP4 ADD MSTORE POP POP POP JUMP JUMPDEST PUSH1 0x0 PUSH2 0x8501 PUSH2 0x84FC DUP5 PUSH2 0x84AE JUMP JUMPDEST PUSH2 0x83CB JUMP JUMPDEST SWAP1 POP DUP3 DUP2 MSTORE PUSH1 0x20 DUP2 ADD DUP5 DUP5 DUP5 ADD GT ISZERO PUSH2 0x851D JUMPI PUSH2 0x851C PUSH2 0x84A9 JUMP JUMPDEST JUMPDEST PUSH2 0x8528 DUP5 DUP3 DUP6 PUSH2 0x84DF JUMP JUMPDEST POP SWAP4 SWAP3 POP POP POP JUMP JUMPDEST PUSH1 0x0 DUP3 PUSH1 0x1F DUP4 ADD SLT PUSH2 0x8545 JUMPI PUSH2 0x8544 PUSH2 0x80C9 JUMP JUMPDEST JUMPDEST DUP2 CALLDATALOAD PUSH2 0x8555 DUP5 DUP3 PUSH1 0x20 DUP7 ADD PUSH2 0x84EE JUMP JUMPDEST SWAP2 POP POP SWAP3 SWAP2 POP POP JUMP JUMPDEST PUSH1 0x0 DUP1 PUSH1 0x0 DUP1 PUSH1 0x0 PUSH1 0xA0 DUP7 DUP9 SUB SLT ISZERO PUSH2 0x857A JUMPI PUSH2 0x8579 PUSH2 0x7ED9 JUMP JUMPDEST JUMPDEST PUSH1 0x0 PUSH2 0x8588 DUP9 DUP3 DUP10 ADD PUSH2 0x7F2C JUMP JUMPDEST SWAP6 POP POP PUSH1 0x20 PUSH2 0x8599 DUP9 DUP3 DUP10 ADD PUSH2 0x7F2C JUMP JUMPDEST SWAP5 POP POP PUSH1 0x40 DUP7 ADD CALLDATALOAD PUSH8 0xFFFFFFFFFFFFFFFF DUP2 GT ISZERO PUSH2 0x85BA JUMPI PUSH2 0x85B9 PUSH2 0x7EDE JUMP JUMPDEST JUMPDEST PUSH2 0x85C6 DUP9 DUP3 DUP10 ADD PUSH2 0x847B JUMP JUMPDEST SWAP4 POP POP PUSH1 0x60 DUP7 ADD CALLDATALOAD PUSH8 0xFFFFFFFFFFFFFFFF DUP2 GT ISZERO PUSH2 0x85E7 JUMPI PUSH2 0x85E6 PUSH2 0x7EDE JUMP JUMPDEST JUMPDEST PUSH2 0x85F3 DUP9 DUP3 DUP10 ADD PUSH2 0x847B JUMP JUMPDEST SWAP3 POP POP PUSH1 0x80 DUP7 ADD CALLDATALOAD PUSH8 0xFFFFFFFFFFFFFFFF DUP2 GT ISZERO PUSH2 0x8614 JUMPI PUSH2 0x8613 PUSH2 0x7EDE JUMP JUMPDEST JUMPDEST PUSH2 0x8620 DUP9 DUP3 DUP10 ADD PUSH2 0x8530 JUMP JUMPDEST SWAP2 POP POP SWAP3 SWAP6 POP SWAP3 SWAP6 SWAP1 SWAP4 POP JUMP JUMPDEST PUSH1 0x0 DUP1 PUSH1 0x40 DUP4 DUP6 SUB SLT ISZERO PUSH2 0x8644 JUMPI PUSH2 0x8643 PUSH2 0x7ED9 JUMP JUMPDEST JUMPDEST PUSH1 0x0 PUSH2 0x8652 DUP6 DUP3 DUP7 ADD PUSH2 0x82FF JUMP JUMPDEST SWAP3 POP POP PUSH1 0x20 PUSH2 0x8663 DUP6 DUP3 DUP7 ADD PUSH2 0x7F2C JUMP JUMPDEST SWAP2 POP POP SWAP3 POP SWAP3 SWAP1 POP JUMP JUMPDEST PUSH1 0x0 PUSH8 0xFFFFFFFFFFFFFFFF DUP3 GT ISZERO PUSH2 0x8688 JUMPI PUSH2 0x8687 PUSH2 0x836B JUMP JUMPDEST JUMPDEST PUSH2 0x8691 DUP3 PUSH2 0x8221 JUMP JUMPDEST SWAP1 POP PUSH1 0x20 DUP2 ADD SWAP1 POP SWAP2 SWAP1 POP JUMP JUMPDEST PUSH1 0x0 PUSH2 0x86B1 PUSH2 0x86AC DUP5 PUSH2 0x866D JUMP JUMPDEST PUSH2 0x83CB JUMP JUMPDEST SWAP1 POP DUP3 DUP2 MSTORE PUSH1 0x20 DUP2 ADD DUP5 DUP5 DUP5 ADD GT ISZERO PUSH2 0x86CD JUMPI PUSH2 0x86CC PUSH2 0x84A9 JUMP JUMPDEST JUMPDEST PUSH2 0x86D8 DUP5 DUP3 DUP6 PUSH2 0x84DF JUMP JUMPDEST POP SWAP4 SWAP3 POP POP POP JUMP JUMPDEST PUSH1 0x0 DUP3 PUSH1 0x1F DUP4 ADD SLT PUSH2 0x86F5 JUMPI PUSH2 0x86F4 PUSH2 0x80C9 JUMP JUMPDEST JUMPDEST DUP2 CALLDATALOAD PUSH2 0x8705 DUP5 DUP3 PUSH1 0x20 DUP7 ADD PUSH2 0x869E JUMP JUMPDEST SWAP2 POP POP SWAP3 SWAP2 POP POP JUMP JUMPDEST PUSH1 0x0 DUP1 PUSH1 0x40 DUP4 DUP6 SUB SLT ISZERO PUSH2 0x8725 JUMPI PUSH2 0x8724 PUSH2 0x7ED9 JUMP JUMPDEST JUMPDEST PUSH1 0x0 DUP4 ADD CALLDATALOAD PUSH8 0xFFFFFFFFFFFFFFFF DUP2 GT ISZERO PUSH2 0x8743 JUMPI PUSH2 0x8742 PUSH2 0x7EDE JUMP JUMPDEST JUMPDEST PUSH2 0x874F DUP6 DUP3 DUP7 ADD PUSH2 0x86E0 JUMP JUMPDEST SWAP3 POP POP PUSH1 0x20 DUP4 ADD CALLDATALOAD PUSH8 0xFFFFFFFFFFFFFFFF DUP2 GT ISZERO PUSH2 0x8770 JUMPI PUSH2 0x876F PUSH2 0x7EDE JUMP JUMPDEST JUMPDEST PUSH2 0x877C DUP6 DUP3 DUP7 ADD PUSH2 0x86E0 JUMP JUMPDEST SWAP2 POP POP SWAP3 POP SWAP3 SWAP1 POP JUMP JUMPDEST PUSH1 0x0 DUP1 PUSH1 0x0 DUP1 PUSH1 0x80 DUP6 DUP8 SUB SLT ISZERO PUSH2 0x87A0 JUMPI PUSH2 0x879F PUSH2 0x7ED9 JUMP JUMPDEST JUMPDEST PUSH1 0x0 PUSH2 0x87AE DUP8 DUP3 DUP9 ADD PUSH2 0x7F2C JUMP JUMPDEST SWAP5 POP POP PUSH1 0x20 PUSH2 0x87BF DUP8 DUP3 DUP9 ADD PUSH2 0x7F62 JUMP JUMPDEST SWAP4 POP POP PUSH1 0x40 PUSH2 0x87D0 DUP8 DUP3 DUP9 ADD PUSH2 0x7F62 JUMP JUMPDEST SWAP3 POP POP PUSH1 0x60 PUSH2 0x87E1 DUP8 DUP3 DUP9 ADD PUSH2 0x7F2C JUMP JUMPDEST SWAP2 POP POP SWAP3 SWAP6 SWAP2 SWAP5 POP SWAP3 POP JUMP JUMPDEST PUSH1 0x0 DUP1 PUSH1 0x0 PUSH1 0x60 DUP5 DUP7 SUB SLT ISZERO PUSH2 0x8806 JUMPI PUSH2 0x8805 PUSH2 0x7ED9 JUMP JUMPDEST JUMPDEST PUSH1 0x0 PUSH2 0x8814 DUP7 DUP3 DUP8 ADD PUSH2 0x7F2C JUMP JUMPDEST SWAP4 POP POP PUSH1 0x20 PUSH2 0x8825 DUP7 DUP3 DUP8 ADD PUSH2 0x7F2C JUMP JUMPDEST SWAP3 POP POP PUSH1 0x40 PUSH2 0x8836 DUP7 DUP3 DUP8 ADD PUSH2 0x7F62 JUMP JUMPDEST SWAP2 POP POP SWAP3 POP SWAP3 POP SWAP3 JUMP JUMPDEST PUSH1 0x0 PUSH8 0xFFFFFFFFFFFFFFFF DUP3 GT ISZERO PUSH2 0x885B JUMPI PUSH2 0x885A PUSH2 0x836B JUMP JUMPDEST JUMPDEST PUSH1 0x20 DUP3 MUL SWAP1 POP PUSH1 0x20 DUP2 ADD SWAP1 POP SWAP2 SWAP1 POP JUMP JUMPDEST PUSH1 0x0 PUSH2 0x887F PUSH2 0x887A DUP5 PUSH2 0x8840 JUMP JUMPDEST PUSH2 0x83CB JUMP JUMPDEST SWAP1 POP DUP1 DUP4 DUP3 MSTORE PUSH1 0x20 DUP3 ADD SWAP1 POP PUSH1 0x20 DUP5 MUL DUP4 ADD DUP6 DUP2 GT ISZERO PUSH2 0x88A2 JUMPI PUSH2 0x88A1 PUSH2 0x80D3 JUMP JUMPDEST JUMPDEST DUP4 JUMPDEST DUP2 DUP2 LT ISZERO PUSH2 0x88CB JUMPI DUP1 PUSH2 0x88B7 DUP9 DUP3 PUSH2 0x7F2C JUMP JUMPDEST DUP5 MSTORE PUSH1 0x20 DUP5 ADD SWAP4 POP POP PUSH1 0x20 DUP2 ADD SWAP1 POP PUSH2 0x88A4 JUMP JUMPDEST POP POP POP SWAP4 SWAP3 POP POP POP JUMP JUMPDEST PUSH1 0x0 DUP3 PUSH1 0x1F DUP4 ADD SLT PUSH2 0x88EA JUMPI PUSH2 0x88E9 PUSH2 0x80C9 JUMP JUMPDEST JUMPDEST DUP2 CALLDATALOAD PUSH2 0x88FA DUP5 DUP3 PUSH1 0x20 DUP7 ADD PUSH2 0x886C JUMP JUMPDEST SWAP2 POP POP SWAP3 SWAP2 POP POP JUMP JUMPDEST PUSH1 0x0 DUP1 PUSH1 0x40 DUP4 DUP6 SUB SLT ISZERO PUSH2 0x891A JUMPI PUSH2 0x8919 PUSH2 0x7ED9 JUMP JUMPDEST JUMPDEST PUSH1 0x0 DUP4 ADD CALLDATALOAD PUSH8 0xFFFFFFFFFFFFFFFF DUP2 GT ISZERO PUSH2 0x8938 JUMPI PUSH2 0x8937 PUSH2 0x7EDE JUMP JUMPDEST JUMPDEST PUSH2 0x8944 DUP6 DUP3 DUP7 ADD PUSH2 0x88D5 JUMP JUMPDEST SWAP3 POP POP PUSH1 0x20 DUP4 ADD CALLDATALOAD PUSH8 0xFFFFFFFFFFFFFFFF DUP2 GT ISZERO PUSH2 0x8965 JUMPI PUSH2 0x8964 PUSH2 0x7EDE JUMP JUMPDEST JUMPDEST PUSH2 0x8971 DUP6 DUP3 DUP7 ADD PUSH2 0x847B JUMP JUMPDEST SWAP2 POP POP SWAP3 POP SWAP3 SWAP1 POP JUMP JUMPDEST PUSH1 0x0 DUP2 MLOAD SWAP1 POP SWAP2 SWAP1 POP JUMP JUMPDEST PUSH1 0x0 DUP3 DUP3 MSTORE PUSH1 0x20 DUP3 ADD SWAP1 POP SWAP3 SWAP2 POP POP JUMP JUMPDEST PUSH1 0x0 DUP2 SWAP1 POP PUSH1 0x20 DUP3 ADD SWAP1 POP SWAP2 SWAP1 POP JUMP JUMPDEST PUSH2 0x89B0 DUP2 PUSH2 0x7F41 JUMP JUMPDEST DUP3 MSTORE POP POP JUMP JUMPDEST PUSH1 0x0 PUSH2 0x89C2 DUP4 DUP4 PUSH2 0x89A7 JUMP JUMPDEST PUSH1 0x20 DUP4 ADD SWAP1 POP SWAP3 SWAP2 POP POP JUMP JUMPDEST PUSH1 0x0 PUSH1 0x20 DUP3 ADD SWAP1 POP SWAP2 SWAP1 POP JUMP JUMPDEST PUSH1 0x0 PUSH2 0x89E6 DUP3 PUSH2 0x897B JUMP JUMPDEST PUSH2 0x89F0 DUP2 DUP6 PUSH2 0x8986 JUMP JUMPDEST SWAP4 POP PUSH2 0x89FB DUP4 PUSH2 0x8997 JUMP JUMPDEST DUP1 PUSH1 0x0 JUMPDEST DUP4 DUP2 LT ISZERO PUSH2 0x8A2C JUMPI DUP2 MLOAD PUSH2 0x8A13 DUP9 DUP3 PUSH2 0x89B6 JUMP JUMPDEST SWAP8 POP PUSH2 0x8A1E DUP4 PUSH2 0x89CE JUMP JUMPDEST SWAP3 POP POP PUSH1 0x1 DUP2 ADD SWAP1 POP PUSH2 0x89FF JUMP JUMPDEST POP DUP6 SWAP4 POP POP POP POP SWAP3 SWAP2 POP POP JUMP JUMPDEST PUSH1 0x0 PUSH1 0x20 DUP3 ADD SWAP1 POP DUP2 DUP2 SUB PUSH1 0x0 DUP4 ADD MSTORE PUSH2 0x8A53 DUP2 DUP5 PUSH2 0x89DB JUMP JUMPDEST SWAP1 POP SWAP3 SWAP2 POP POP JUMP JUMPDEST PUSH1 0x0 DUP1 PUSH1 0x40 DUP4 DUP6 SUB SLT ISZERO PUSH2 0x8A72 JUMPI PUSH2 0x8A71 PUSH2 0x7ED9 JUMP JUMPDEST JUMPDEST PUSH1 0x0 PUSH2 0x8A80 DUP6 DUP3 DUP7 ADD PUSH2 0x82FF JUMP JUMPDEST SWAP3 POP POP PUSH1 0x20 PUSH2 0x8A91 DUP6 DUP3 DUP7 ADD PUSH2 0x7F62 JUMP JUMPDEST SWAP2 POP POP SWAP3 POP SWAP3 SWAP1 POP JUMP JUMPDEST PUSH2 0x8AA4 DUP2 PUSH2 0x8066 JUMP JUMPDEST DUP2 EQ PUSH2 0x8AAF JUMPI PUSH1 0x0 DUP1 REVERT JUMPDEST POP JUMP JUMPDEST PUSH1 0x0 DUP2 CALLDATALOAD SWAP1 POP PUSH2 0x8AC1 DUP2 PUSH2 0x8A9B JUMP JUMPDEST SWAP3 SWAP2 POP POP JUMP JUMPDEST PUSH1 0x0 DUP1 PUSH1 0x40 DUP4 DUP6 SUB SLT ISZERO PUSH2 0x8ADE JUMPI PUSH2 0x8ADD PUSH2 0x7ED9 JUMP JUMPDEST JUMPDEST PUSH1 0x0 PUSH2 0x8AEC DUP6 DUP3 DUP7 ADD PUSH2 0x7F2C JUMP JUMPDEST SWAP3 POP POP PUSH1 0x20 PUSH2 0x8AFD DUP6 DUP3 DUP7 ADD PUSH2 0x8AB2 JUMP JUMPDEST SWAP2 POP POP SWAP3 POP SWAP3 SWAP1 POP JUMP JUMPDEST PUSH1 0x0 DUP1 PUSH1 0x0 DUP1 PUSH1 0x0 DUP1 PUSH1 0xC0 DUP8 DUP10 SUB SLT ISZERO PUSH2 0x8B24 JUMPI PUSH2 0x8B23 PUSH2 0x7ED9 JUMP JUMPDEST JUMPDEST PUSH1 0x0 PUSH2 0x8B32 DUP10 DUP3 DUP11 ADD PUSH2 0x7F2C JUMP JUMPDEST SWAP7 POP POP PUSH1 0x20 PUSH2 0x8B43 DUP10 DUP3 DUP11 ADD PUSH2 0x7F2C JUMP JUMPDEST SWAP6 POP POP PUSH1 0x40 PUSH2 0x8B54 DUP10 DUP3 DUP11 ADD PUSH2 0x7F62 JUMP JUMPDEST SWAP5 POP POP PUSH1 0x60 PUSH2 0x8B65 DUP10 DUP3 DUP11 ADD PUSH2 0x7F62 JUMP JUMPDEST SWAP4 POP POP PUSH1 0x80 PUSH2 0x8B76 DUP10 DUP3 DUP11 ADD PUSH2 0x7F62 JUMP JUMPDEST SWAP3 POP POP PUSH1 0xA0 PUSH2 0x8B87 DUP10 DUP3 DUP11 ADD PUSH2 0x7F2C JUMP JUMPDEST SWAP2 POP POP SWAP3 SWAP6 POP SWAP3 SWAP6 POP SWAP3 SWAP6 JUMP JUMPDEST PUSH1 0x0 PUSH1 0x40 DUP3 ADD SWAP1 POP PUSH2 0x8BA9 PUSH1 0x0 DUP4 ADD DUP6 PUSH2 0x7FB7 JUMP JUMPDEST PUSH2 0x8BB6 PUSH1 0x20 DUP4 ADD DUP5 PUSH2 0x7FB7 JUMP JUMPDEST SWAP4 SWAP3 POP POP POP JUMP JUMPDEST PUSH1 0x0 PUSH1 0x20 DUP3 DUP5 SUB SLT ISZERO PUSH2 0x8BD3 JUMPI PUSH2 0x8BD2 PUSH2 0x7ED9 JUMP JUMPDEST JUMPDEST PUSH1 0x0 DUP3 ADD CALLDATALOAD PUSH8 0xFFFFFFFFFFFFFFFF DUP2 GT ISZERO PUSH2 0x8BF1 JUMPI PUSH2 0x8BF0 PUSH2 0x7EDE JUMP JUMPDEST JUMPDEST PUSH2 0x8BFD DUP5 DUP3 DUP6 ADD PUSH2 0x86E0 JUMP JUMPDEST SWAP2 POP POP SWAP3 SWAP2 POP POP JUMP JUMPDEST PUSH2 0x8C0F DUP2 PUSH2 0x7F03 JUMP JUMPDEST DUP3 MSTORE POP POP JUMP JUMPDEST PUSH1 0x0 PUSH1 0x8 SWAP1 POP SWAP2 SWAP1 POP JUMP JUMPDEST PUSH1 0x0 DUP2 SWAP1 POP SWAP3 SWAP2 POP POP JUMP JUMPDEST PUSH1 0x0 DUP2 SWAP1 POP SWAP2 SWAP1 POP JUMP JUMPDEST PUSH1 0x0 PUSH4 0xFFFFFFFF DUP3 AND SWAP1 POP SWAP2 SWAP1 POP JUMP JUMPDEST PUSH2 0x8C4E DUP2 PUSH2 0x8C35 JUMP JUMPDEST DUP3 MSTORE POP POP JUMP JUMPDEST PUSH1 0x0 PUSH2 0x8C60 DUP4 DUP4 PUSH2 0x8C45 JUMP JUMPDEST PUSH1 0x20 DUP4 ADD SWAP1 POP SWAP3 SWAP2 POP POP JUMP JUMPDEST PUSH1 0x0 PUSH1 0x20 DUP3 ADD SWAP1 POP SWAP2 SWAP1 POP JUMP JUMPDEST PUSH2 0x8C82 DUP2 PUSH2 0x8C15 JUMP JUMPDEST PUSH2 0x8C8C DUP2 DUP5 PUSH2 0x8C20 JUMP JUMPDEST SWAP3 POP PUSH2 0x8C97 DUP3 PUSH2 0x8C2B JUMP JUMPDEST DUP1 PUSH1 0x0 JUMPDEST DUP4 DUP2 LT ISZERO PUSH2 0x8CC8 JUMPI DUP2 MLOAD PUSH2 0x8CAF DUP8 DUP3 PUSH2 0x8C54 JUMP JUMPDEST SWAP7 POP PUSH2 0x8CBA DUP4 PUSH2 0x8C6C JUMP JUMPDEST SWAP3 POP POP PUSH1 0x1 DUP2 ADD SWAP1 POP PUSH2 0x8C9B JUMP JUMPDEST POP POP POP POP POP POP JUMP JUMPDEST PUSH1 0x0 PUSH16 0xFFFFFFFFFFFFFFFFFFFFFFFFFFFFFFFF DUP3 AND SWAP1 POP SWAP2 SWAP1 POP JUMP JUMPDEST PUSH2 0x8CF5 DUP2 PUSH2 0x8CD0 JUMP JUMPDEST DUP3 MSTORE POP POP JUMP JUMPDEST PUSH2 0x180 DUP3 ADD PUSH1 0x0 DUP3 ADD MLOAD PUSH2 0x8D12 PUSH1 0x0 DUP6 ADD DUP3 PUSH2 0x8C06 JUMP JUMPDEST POP PUSH1 0x20 DUP3 ADD MLOAD PUSH2 0x8D25 PUSH1 0x20 DUP6 ADD DUP3 PUSH2 0x8C79 JUMP JUMPDEST POP PUSH1 0x40 DUP3 ADD MLOAD PUSH2 0x8D39 PUSH2 0x120 DUP6 ADD DUP3 PUSH2 0x8CEC JUMP JUMPDEST POP PUSH1 0x60 DUP3 ADD MLOAD PUSH2 0x8D4D PUSH2 0x140 DUP6 ADD DUP3 PUSH2 0x8CEC JUMP JUMPDEST POP PUSH1 0x80 DUP3 ADD MLOAD PUSH2 0x8D61 PUSH2 0x160 DUP6 ADD DUP3 PUSH2 0x8CEC JUMP JUMPDEST POP POP POP POP JUMP JUMPDEST PUSH1 0x0 PUSH2 0x180 DUP3 ADD SWAP1 POP PUSH2 0x8D7D PUSH1 0x0 DUP4 ADD DUP5 PUSH2 0x8CFB JUMP JUMPDEST SWAP3 SWAP2 POP POP JUMP JUMPDEST PUSH1 0x0 PUSH1 0xC0 DUP3 ADD SWAP1 POP PUSH2 0x8D98 PUSH1 0x0 DUP4 ADD DUP10 PUSH2 0x81A8 JUMP JUMPDEST PUSH2 0x8DA5 PUSH1 0x20 DUP4 ADD DUP9 PUSH2 0x7FB7 JUMP JUMPDEST PUSH2 0x8DB2 PUSH1 0x40 DUP4 ADD DUP8 PUSH2 0x7FB7 JUMP JUMPDEST PUSH2 0x8DBF PUSH1 0x60 DUP4 ADD DUP7 PUSH2 0x7FB7 JUMP JUMPDEST PUSH2 0x8DCC PUSH1 0x80 DUP4 ADD DUP6 PUSH2 0x7FB7 JUMP JUMPDEST PUSH2 0x8DD9 PUSH1 0xA0 DUP4 ADD DUP5 PUSH2 0x7FB7 JUMP JUMPDEST SWAP8 SWAP7 POP POP POP POP POP POP POP JUMP JUMPDEST PUSH1 0x0 DUP1 PUSH1 0x40 DUP4 DUP6 SUB SLT ISZERO PUSH2 0x8DFB JUMPI PUSH2 0x8DFA PUSH2 0x7ED9 JUMP JUMPDEST JUMPDEST PUSH1 0x0 PUSH2 0x8E09 DUP6 DUP3 DUP7 ADD PUSH2 0x7F2C JUMP JUMPDEST SWAP3 POP POP PUSH1 0x20 PUSH2 0x8E1A DUP6 DUP3 DUP7 ADD PUSH2 0x7F2C JUMP JUMPDEST SWAP2 POP POP SWAP3 POP SWAP3 SWAP1 POP JUMP JUMPDEST PUSH1 0x0 DUP1 PUSH1 0x0 DUP1 PUSH1 0x0 PUSH1 0xA0 DUP7 DUP9 SUB SLT ISZERO PUSH2 0x8E40 JUMPI PUSH2 0x8E3F PUSH2 0x7ED9 JUMP JUMPDEST JUMPDEST PUSH1 0x0 PUSH2 0x8E4E DUP9 DUP3 DUP10 ADD PUSH2 0x7F2C JUMP JUMPDEST SWAP6 POP POP PUSH1 0x20 PUSH2 0x8E5F DUP9 DUP3 DUP10 ADD PUSH2 0x7F2C JUMP JUMPDEST SWAP5 POP POP PUSH1 0x40 PUSH2 0x8E70 DUP9 DUP3 DUP10 ADD PUSH2 0x7F2C JUMP JUMPDEST SWAP4 POP POP PUSH1 0x60 PUSH2 0x8E81 DUP9 DUP3 DUP10 ADD PUSH2 0x7F2C JUMP JUMPDEST SWAP3 POP POP PUSH1 0x80 PUSH2 0x8E92 DUP9 DUP3 DUP10 ADD PUSH2 0x7F2C JUMP JUMPDEST SWAP2 POP POP SWAP3 SWAP6 POP SWAP3 SWAP6 SWAP1 SWAP4 POP JUMP JUMPDEST PUSH1 0x0 DUP1 PUSH1 0x0 DUP1 PUSH1 0x0 PUSH1 0xA0 DUP7 DUP9 SUB SLT ISZERO PUSH2 0x8EBB JUMPI PUSH2 0x8EBA PUSH2 0x7ED9 JUMP JUMPDEST JUMPDEST PUSH1 0x0 PUSH2 0x8EC9 DUP9 DUP3 DUP10 ADD PUSH2 0x7F2C JUMP JUMPDEST SWAP6 POP POP PUSH1 0x20 PUSH2 0x8EDA DUP9 DUP3 DUP10 ADD PUSH2 0x7F2C JUMP JUMPDEST SWAP5 POP POP PUSH1 0x40 PUSH2 0x8EEB DUP9 DUP3 DUP10 ADD PUSH2 0x7F62 JUMP JUMPDEST SWAP4 POP POP PUSH1 0x60 PUSH2 0x8EFC DUP9 DUP3 DUP10 ADD PUSH2 0x7F62 JUMP JUMPDEST SWAP3 POP POP PUSH1 0x80 DUP7 ADD CALLDATALOAD PUSH8 0xFFFFFFFFFFFFFFFF DUP2 GT ISZERO PUSH2 0x8F1D JUMPI PUSH2 0x8F1C PUSH2 0x7EDE JUMP JUMPDEST JUMPDEST PUSH2 0x8F29 DUP9 DUP3 DUP10 ADD PUSH2 0x8530 JUMP JUMPDEST SWAP2 POP POP SWAP3 SWAP6 POP SWAP3 SWAP6 SWAP1 SWAP4 POP JUMP JUMPDEST PUSH1 0x0 DUP1 PUSH1 0x0 PUSH1 0x60 DUP5 DUP7 SUB SLT ISZERO PUSH2 0x8F4F JUMPI PUSH2 0x8F4E PUSH2 0x7ED9 JUMP JUMPDEST JUMPDEST PUSH1 0x0 PUSH2 0x8F5D DUP7 DUP3 DUP8 ADD PUSH2 0x7F2C JUMP JUMPDEST SWAP4 POP POP PUSH1 0x20 PUSH2 0x8F6E DUP7 DUP3 DUP8 ADD PUSH2 0x7F62 JUMP JUMPDEST SWAP3 POP POP PUSH1 0x40 PUSH2 0x8F7F DUP7 DUP3 DUP8 ADD PUSH2 0x7F62 JUMP JUMPDEST SWAP2 POP POP SWAP3 POP SWAP3 POP SWAP3 JUMP JUMPDEST PUSH32 0x455243313135353A2062616C616E636520717565727920666F7220746865207A PUSH1 0x0 DUP3 ADD MSTORE PUSH32 0x65726F2061646472657373000000000000000000000000000000000000000000 PUSH1 0x20 DUP3 ADD MSTORE POP JUMP JUMPDEST PUSH1 0x0 PUSH2 0x8FE5 PUSH1 0x2B DUP4 PUSH2 0x81DD JUMP JUMPDEST SWAP2 POP PUSH2 0x8FF0 DUP3 PUSH2 0x8F89 JUMP JUMPDEST PUSH1 0x40 DUP3 ADD SWAP1 POP SWAP2 SWAP1 POP JUMP JUMPDEST PUSH1 0x0 PUSH1 0x20 DUP3 ADD SWAP1 POP DUP2 DUP2 SUB PUSH1 0x0 DUP4 ADD MSTORE PUSH2 0x9014 DUP2 PUSH2 0x8FD8 JUMP JUMPDEST SWAP1 POP SWAP2 SWAP1 POP JUMP JUMPDEST PUSH32 0x4E487B7100000000000000000000000000000000000000000000000000000000 PUSH1 0x0 MSTORE PUSH1 0x22 PUSH1 0x4 MSTORE PUSH1 0x24 PUSH1 0x0 REVERT JUMPDEST PUSH1 0x0 PUSH1 0x2 DUP3 DIV SWAP1 POP PUSH1 0x1 DUP3 AND DUP1 PUSH2 0x9062 JUMPI PUSH1 0x7F DUP3 AND SWAP2 POP JUMPDEST PUSH1 0x20 DUP3 LT DUP2 EQ ISZERO PUSH2 0x9076 JUMPI PUSH2 0x9075 PUSH2 0x901B JUMP JUMPDEST JUMPDEST POP SWAP2 SWAP1 POP JUMP JUMPDEST PUSH1 0x0 DUP2 SWAP1 POP DUP2 PUSH1 0x0 MSTORE PUSH1 0x20 PUSH1 0x0 KECCAK256 SWAP1 POP SWAP2 SWAP1 POP JUMP JUMPDEST PUSH1 0x0 DUP2 SLOAD PUSH2 0x909E DUP2 PUSH2 0x904A JUMP JUMPDEST PUSH2 0x90A8 DUP2 DUP7 PUSH2 0x81DD JUMP JUMPDEST SWAP5 POP PUSH1 0x1 DUP3 AND PUSH1 0x0 DUP2 EQ PUSH2 0x90C3 JUMPI PUSH1 0x1 DUP2 EQ PUSH2 0x90D5 JUMPI PUSH2 0x9108 JUMP JUMPDEST PUSH1 0xFF NOT DUP4 AND DUP7 MSTORE PUSH1 0x20 DUP7 ADD SWAP4 POP PUSH2 0x9108 JUMP JUMPDEST PUSH2 0x90DE DUP6 PUSH2 0x907C JUMP JUMPDEST PUSH1 0x0 JUMPDEST DUP4 DUP2 LT ISZERO PUSH2 0x9100 JUMPI DUP2 SLOAD DUP2 DUP10 ADD MSTORE PUSH1 0x1 DUP3 ADD SWAP2 POP PUSH1 0x20 DUP2 ADD SWAP1 POP PUSH2 0x90E1 JUMP JUMPDEST DUP1 DUP9 ADD SWAP6 POP POP POP JUMPDEST POP POP POP SWAP3 SWAP2 POP POP JUMP JUMPDEST PUSH1 0x0 PUSH1 0x20 DUP3 ADD SWAP1 POP DUP2 DUP2 SUB PUSH1 0x0 DUP4 ADD MSTORE PUSH2 0x912B DUP2 DUP5 PUSH2 0x9091 JUMP JUMPDEST SWAP1 POP SWAP3 SWAP2 POP POP JUMP JUMPDEST PUSH32 0x4E487B7100000000000000000000000000000000000000000000000000000000 PUSH1 0x0 MSTORE PUSH1 0x32 PUSH1 0x4 MSTORE PUSH1 0x24 PUSH1 0x0 REVERT JUMPDEST PUSH32 0x4E487B7100000000000000000000000000000000000000000000000000000000 PUSH1 0x0 MSTORE PUSH1 0x11 PUSH1 0x4 MSTORE PUSH1 0x24 PUSH1 0x0 REVERT JUMPDEST PUSH1 0x0 PUSH2 0x919C DUP3 PUSH2 0x7F41 JUMP JUMPDEST SWAP2 POP PUSH2 0x91A7 DUP4 PUSH2 0x7F41 JUMP JUMPDEST SWAP3 POP DUP3 DUP3 LT ISZERO PUSH2 0x91BA JUMPI PUSH2 0x91B9 PUSH2 0x9162 JUMP JUMPDEST JUMPDEST DUP3 DUP3 SUB SWAP1 POP SWAP3 SWAP2 POP POP JUMP JUMPDEST PUSH1 0x0 PUSH2 0x91D0 DUP3 PUSH2 0x7F41 JUMP JUMPDEST SWAP2 POP PUSH32 0xFFFFFFFFFFFFFFFFFFFFFFFFFFFFFFFFFFFFFFFFFFFFFFFFFFFFFFFFFFFFFFFF DUP3 EQ ISZERO PUSH2 0x9203 JUMPI PUSH2 0x9202 PUSH2 0x9162 JUMP JUMPDEST JUMPDEST PUSH1 0x1 DUP3 ADD SWAP1 POP SWAP2 SWAP1 POP JUMP JUMPDEST PUSH1 0x0 DUP2 MLOAD SWAP1 POP PUSH2 0x921D DUP2 PUSH2 0x7F15 JUMP JUMPDEST SWAP3 SWAP2 POP POP JUMP JUMPDEST PUSH1 0x0 PUSH1 0x20 DUP3 DUP5 SUB SLT ISZERO PUSH2 0x9239 JUMPI PUSH2 0x9238 PUSH2 0x7ED9 JUMP JUMPDEST JUMPDEST PUSH1 0x0 PUSH2 0x9247 DUP5 DUP3 DUP6 ADD PUSH2 0x920E JUMP JUMPDEST SWAP2 POP POP SWAP3 SWAP2 POP POP JUMP JUMPDEST PUSH1 0x0 DUP2 CALLDATALOAD PUSH2 0x925D DUP2 PUSH2 0x7F15 JUMP JUMPDEST DUP1 SWAP2 POP POP SWAP2 SWAP1 POP JUMP JUMPDEST PUSH1 0x0 DUP2 PUSH1 0x0 SHL SWAP1 POP SWAP2 SWAP1 POP JUMP JUMPDEST PUSH1 0x0 PUSH20 0xFFFFFFFFFFFFFFFFFFFFFFFFFFFFFFFFFFFFFFFF PUSH2 0x9293 DUP5 PUSH2 0x9266 JUMP JUMPDEST SWAP4 POP DUP1 NOT DUP4 AND SWAP3 POP DUP1 DUP5 AND DUP4 OR SWAP2 POP POP SWAP3 SWAP2 POP POP JUMP JUMPDEST PUSH1 0x0 DUP2 SWAP1 POP SWAP2 SWAP1 POP JUMP JUMPDEST PUSH1 0x0 PUSH2 0x92CE PUSH2 0x92C9 PUSH2 0x92C4 DUP5 PUSH2 0x7EE3 JUMP JUMPDEST PUSH2 0x92A9 JUMP JUMPDEST PUSH2 0x7EE3 JUMP JUMPDEST SWAP1 POP SWAP2 SWAP1 POP JUMP JUMPDEST PUSH1 0x0 PUSH2 0x92E0 DUP3 PUSH2 0x92B3 JUMP JUMPDEST SWAP1 POP SWAP2 SWAP1 POP JUMP JUMPDEST PUSH1 0x0 PUSH2 0x92F2 DUP3 PUSH2 0x92D5 JUMP JUMPDEST SWAP1 POP SWAP2 SWAP1 POP JUMP JUMPDEST PUSH1 0x0 DUP2 SWAP1 POP SWAP2 SWAP1 POP JUMP JUMPDEST PUSH2 0x930C DUP3 PUSH2 0x92E7 JUMP JUMPDEST PUSH2 0x931F PUSH2 0x9318 DUP3 PUSH2 0x92F9 JUMP JUMPDEST DUP4 SLOAD PUSH2 0x9273 JUMP JUMPDEST DUP3 SSTORE POP POP POP JUMP JUMPDEST PUSH1 0x0 DUP2 CALLDATALOAD PUSH2 0x9333 DUP2 PUSH2 0x7F4B JUMP JUMPDEST DUP1 SWAP2 POP POP SWAP2 SWAP1 POP JUMP JUMPDEST PUSH1 0x0 PUSH32 0xFFFFFFFFFFFFFFFFFFFFFFFFFFFFFFFFFFFFFFFFFFFFFFFFFFFFFFFFFFFFFFFF PUSH2 0x9368 DUP5 PUSH2 0x9266 JUMP JUMPDEST SWAP4 POP DUP1 NOT DUP4 AND SWAP3 POP DUP1 DUP5 AND DUP4 OR SWAP2 POP POP SWAP3 SWAP2 POP POP JUMP JUMPDEST PUSH1 0x0 PUSH2 0x9399 PUSH2 0x9394 PUSH2 0x938F DUP5 PUSH2 0x7F41 JUMP JUMPDEST PUSH2 0x92A9 JUMP JUMPDEST PUSH2 0x7F41 JUMP JUMPDEST SWAP1 POP SWAP2 SWAP1 POP JUMP JUMPDEST PUSH1 0x0 DUP2 SWAP1 POP SWAP2 SWAP1 POP JUMP JUMPDEST PUSH2 0x93B3 DUP3 PUSH2 0x937E JUMP JUMPDEST PUSH2 0x93C6 PUSH2 0x93BF DUP3 PUSH2 0x93A0 JUMP JUMPDEST DUP4 SLOAD PUSH2 0x933C JUMP JUMPDEST DUP3 SSTORE POP POP POP JUMP JUMPDEST PUSH1 0x0 DUP2 ADD PUSH1 0x0 DUP4 ADD DUP1 PUSH2 0x93DF DUP2 PUSH2 0x9250 JUMP JUMPDEST SWAP1 POP PUSH2 0x93EB DUP2 DUP5 PUSH2 0x9303 JUMP JUMPDEST POP POP POP PUSH1 0x1 DUP2 ADD PUSH1 0x20 DUP4 ADD DUP1 PUSH2 0x9400 DUP2 PUSH2 0x9326 JUMP JUMPDEST SWAP1 POP PUSH2 0x940C DUP2 DUP5 PUSH2 0x93AA JUMP JUMPDEST POP POP POP PUSH1 0x2 DUP2 ADD PUSH1 0x40 DUP4 ADD DUP1 PUSH2 0x9421 DUP2 PUSH2 0x9326 JUMP JUMPDEST SWAP1 POP PUSH2 0x942D DUP2 DUP5 PUSH2 0x93AA JUMP JUMPDEST POP POP POP PUSH1 0x3 DUP2 ADD PUSH1 0x60 DUP4 ADD DUP1 PUSH2 0x9442 DUP2 PUSH2 0x9326 JUMP JUMPDEST SWAP1 POP PUSH2 0x944E DUP2 DUP5 PUSH2 0x93AA JUMP JUMPDEST POP POP POP PUSH1 0x4 DUP2 ADD PUSH1 0x80 DUP4 ADD DUP1 PUSH2 0x9463 DUP2 PUSH2 0x9326 JUMP JUMPDEST SWAP1 POP PUSH2 0x946F DUP2 DUP5 PUSH2 0x93AA JUMP JUMPDEST POP POP POP PUSH1 0x5 DUP2 ADD PUSH1 0xA0 DUP4 ADD DUP1 PUSH2 0x9484 DUP2 PUSH2 0x9326 JUMP JUMPDEST SWAP1 POP PUSH2 0x9490 DUP2 DUP5 PUSH2 0x93AA JUMP JUMPDEST POP POP POP POP POP JUMP JUMPDEST PUSH2 0x94A1 DUP3 DUP3 PUSH2 0x93CD JUMP JUMPDEST POP POP JUMP JUMPDEST PUSH1 0x0 DUP2 SWAP1 POP SWAP3 SWAP2 POP POP JUMP JUMPDEST PUSH1 0x0 DUP2 SLOAD PUSH2 0x94BD DUP2 PUSH2 0x904A JUMP JUMPDEST PUSH2 0x94C7 DUP2 DUP7 PUSH2 0x94A5 JUMP JUMPDEST SWAP5 POP PUSH1 0x1 DUP3 AND PUSH1 0x0 DUP2 EQ PUSH2 0x94E2 JUMPI PUSH1 0x1 DUP2 EQ PUSH2 0x94F3 JUMPI PUSH2 0x9526 JUMP JUMPDEST PUSH1 0xFF NOT DUP4 AND DUP7 MSTORE DUP2 DUP7 ADD SWAP4 POP PUSH2 0x9526 JUMP JUMPDEST PUSH2 0x94FC DUP6 PUSH2 0x907C JUMP JUMPDEST PUSH1 0x0 JUMPDEST DUP4 DUP2 LT ISZERO PUSH2 0x951E JUMPI DUP2 SLOAD DUP2 DUP10 ADD MSTORE PUSH1 0x1 DUP3 ADD SWAP2 POP PUSH1 0x20 DUP2 ADD SWAP1 POP PUSH2 0x94FF JUMP JUMPDEST DUP4 DUP9 ADD SWAP6 POP POP POP JUMPDEST POP POP POP SWAP3 SWAP2 POP POP JUMP JUMPDEST PUSH1 0x0 DUP2 SWAP1 POP SWAP2 SWAP1 POP JUMP JUMPDEST PUSH2 0x954A PUSH2 0x9545 DUP3 PUSH2 0x7F41 JUMP JUMPDEST PUSH2 0x952F JUMP JUMPDEST DUP3 MSTORE POP POP JUMP JUMPDEST PUSH32 0x2E6A736F6E000000000000000000000000000000000000000000000000000000 PUSH1 0x0 DUP3 ADD MSTORE POP JUMP JUMPDEST PUSH1 0x0 PUSH2 0x9586 PUSH1 0x5 DUP4 PUSH2 0x94A5 JUMP JUMPDEST SWAP2 POP PUSH2 0x9591 DUP3 PUSH2 0x9550 JUMP JUMPDEST PUSH1 0x5 DUP3 ADD SWAP1 POP SWAP2 SWAP1 POP JUMP JUMPDEST PUSH1 0x0 PUSH2 0x95A8 DUP3 DUP6 PUSH2 0x94B0 JUMP JUMPDEST SWAP2 POP PUSH2 0x95B4 DUP3 DUP5 PUSH2 0x9539 JUMP JUMPDEST PUSH1 0x20 DUP3 ADD SWAP2 POP PUSH2 0x95C3 DUP3 PUSH2 0x9579 JUMP JUMPDEST SWAP2 POP DUP2 SWAP1 POP SWAP4 SWAP3 POP POP POP JUMP JUMPDEST PUSH1 0x0 PUSH2 0x95DA DUP3 PUSH2 0x7F41 JUMP JUMPDEST SWAP2 POP PUSH2 0x95E5 DUP4 PUSH2 0x7F41 JUMP JUMPDEST SWAP3 POP DUP3 PUSH32 0xFFFFFFFFFFFFFFFFFFFFFFFFFFFFFFFFFFFFFFFFFFFFFFFFFFFFFFFFFFFFFFFF SUB DUP3 GT ISZERO PUSH2 0x961A JUMPI PUSH2 0x9619 PUSH2 0x9162 JUMP JUMPDEST JUMPDEST DUP3 DUP3 ADD SWAP1 POP SWAP3 SWAP2 POP POP JUMP JUMPDEST PUSH32 0x416363657373436F6E74726F6C3A2063616E206F6E6C792072656E6F756E6365 PUSH1 0x0 DUP3 ADD MSTORE PUSH32 0x20726F6C657320666F722073656C660000000000000000000000000000000000 PUSH1 0x20 DUP3 ADD MSTORE POP JUMP JUMPDEST PUSH1 0x0 PUSH2 0x9681 PUSH1 0x2F DUP4 PUSH2 0x81DD JUMP JUMPDEST SWAP2 POP PUSH2 0x968C DUP3 PUSH2 0x9625 JUMP JUMPDEST PUSH1 0x40 DUP3 ADD SWAP1 POP SWAP2 SWAP1 POP JUMP JUMPDEST PUSH1 0x0 PUSH1 0x20 DUP3 ADD SWAP1 POP DUP2 DUP2 SUB PUSH1 0x0 DUP4 ADD MSTORE PUSH2 0x96B0 DUP2 PUSH2 0x9674 JUMP JUMPDEST SWAP1 POP SWAP2 SWAP1 POP JUMP JUMPDEST PUSH1 0x0 PUSH2 0x96C2 DUP3 PUSH2 0x7F41 JUMP JUMPDEST SWAP2 POP PUSH2 0x96CD DUP4 PUSH2 0x7F41 JUMP JUMPDEST SWAP3 POP DUP2 PUSH32 0xFFFFFFFFFFFFFFFFFFFFFFFFFFFFFFFFFFFFFFFFFFFFFFFFFFFFFFFFFFFFFFFF DIV DUP4 GT DUP3 ISZERO ISZERO AND ISZERO PUSH2 0x9706 JUMPI PUSH2 0x9705 PUSH2 0x9162 JUMP JUMPDEST JUMPDEST DUP3 DUP3 MUL SWAP1 POP SWAP3 SWAP2 POP POP JUMP JUMPDEST PUSH32 0x4E487B7100000000000000000000000000000000000000000000000000000000 PUSH1 0x0 MSTORE PUSH1 0x12 PUSH1 0x4 MSTORE PUSH1 0x24 PUSH1 0x0 REVERT JUMPDEST PUSH1 0x0 PUSH2 0x974B DUP3 PUSH2 0x7F41 JUMP JUMPDEST SWAP2 POP PUSH2 0x9756 DUP4 PUSH2 0x7F41 JUMP JUMPDEST SWAP3 POP DUP3 PUSH2 0x9766 JUMPI PUSH2 0x9765 PUSH2 0x9711 JUMP JUMPDEST JUMPDEST DUP3 DUP3 DIV SWAP1 POP SWAP3 SWAP2 POP POP JUMP JUMPDEST PUSH1 0x0 PUSH1 0x40 DUP3 ADD SWAP1 POP PUSH2 0x9786 PUSH1 0x0 DUP4 ADD DUP6 PUSH2 0x81A8 JUMP JUMPDEST PUSH2 0x9793 PUSH1 0x20 DUP4 ADD DUP5 PUSH2 0x7FB7 JUMP JUMPDEST SWAP4 SWAP3 POP POP POP JUMP JUMPDEST PUSH1 0x0 PUSH2 0x97A5 DUP3 PUSH2 0x8CD0 JUMP JUMPDEST SWAP2 POP PUSH2 0x97B0 DUP4 PUSH2 0x8CD0 JUMP JUMPDEST SWAP3 POP DUP3 PUSH16 0xFFFFFFFFFFFFFFFFFFFFFFFFFFFFFFFF SUB DUP3 GT ISZERO PUSH2 0x97D5 JUMPI PUSH2 0x97D4 PUSH2 0x9162 JUMP JUMPDEST JUMPDEST DUP3 DUP3 ADD SWAP1 POP SWAP3 SWAP2 POP POP JUMP JUMPDEST PUSH1 0x0 PUSH1 0x80 DUP3 ADD SWAP1 POP PUSH2 0x97F5 PUSH1 0x0 DUP4 ADD DUP8 PUSH2 0x81A8 JUMP JUMPDEST PUSH2 0x9802 PUSH1 0x20 DUP4 ADD DUP7 PUSH2 0x7FB7 JUMP JUMPDEST PUSH2 0x980F PUSH1 0x40 DUP4 ADD DUP6 PUSH2 0x7FB7 JUMP JUMPDEST PUSH2 0x981C PUSH1 0x60 DUP4 ADD DUP5 PUSH2 0x7FB7 JUMP JUMPDEST SWAP6 SWAP5 POP POP POP POP POP JUMP JUMPDEST PUSH32 0x455243313135353A206163636F756E747320616E6420696473206C656E677468 PUSH1 0x0 DUP3 ADD MSTORE PUSH32 0x206D69736D617463680000000000000000000000000000000000000000000000 PUSH1 0x20 DUP3 ADD MSTORE POP JUMP JUMPDEST PUSH1 0x0 PUSH2 0x9881 PUSH1 0x29 DUP4 PUSH2 0x81DD JUMP JUMPDEST SWAP2 POP PUSH2 0x988C DUP3 PUSH2 0x9825 JUMP JUMPDEST PUSH1 0x40 DUP3 ADD SWAP1 POP SWAP2 SWAP1 POP JUMP JUMPDEST PUSH1 0x0 PUSH1 0x20 DUP3 ADD SWAP1 POP DUP2 DUP2 SUB PUSH1 0x0 DUP4 ADD MSTORE PUSH2 0x98B0 DUP2 PUSH2 0x9874 JUMP JUMPDEST SWAP1 POP SWAP2 SWAP1 POP JUMP JUMPDEST PUSH1 0x0 PUSH2 0x98C2 DUP3 PUSH2 0x8CD0 JUMP JUMPDEST SWAP2 POP PUSH2 0x98CD DUP4 PUSH2 0x8CD0 JUMP JUMPDEST SWAP3 POP DUP3 DUP3 LT ISZERO PUSH2 0x98E0 JUMPI PUSH2 0x98DF PUSH2 0x9162 JUMP JUMPDEST JUMPDEST DUP3 DUP3 SUB SWAP1 POP SWAP3 SWAP2 POP POP JUMP JUMPDEST PUSH1 0x0 PUSH2 0x9906 PUSH2 0x9901 PUSH2 0x98FC DUP5 PUSH2 0x8CD0 JUMP JUMPDEST PUSH2 0x92A9 JUMP JUMPDEST PUSH2 0x7F41 JUMP JUMPDEST SWAP1 POP SWAP2 SWAP1 POP JUMP JUMPDEST PUSH2 0x9916 DUP2 PUSH2 0x98EB JUMP JUMPDEST DUP3 MSTORE POP POP JUMP JUMPDEST PUSH1 0x0 PUSH1 0x60 DUP3 ADD SWAP1 POP PUSH2 0x9931 PUSH1 0x0 DUP4 ADD DUP7 PUSH2 0x81A8 JUMP JUMPDEST PUSH2 0x993E PUSH1 0x20 DUP4 ADD DUP6 PUSH2 0x990D JUMP JUMPDEST PUSH2 0x994B PUSH1 0x40 DUP4 ADD DUP5 PUSH2 0x990D JUMP JUMPDEST SWAP5 SWAP4 POP POP POP POP JUMP JUMPDEST PUSH1 0x0 PUSH1 0x40 DUP3 ADD SWAP1 POP PUSH2 0x9968 PUSH1 0x0 DUP4 ADD DUP6 PUSH2 0x81A8 JUMP JUMPDEST PUSH2 0x9975 PUSH1 0x20 DUP4 ADD DUP5 PUSH2 0x81A8 JUMP JUMPDEST SWAP4 SWAP3 POP POP POP JUMP JUMPDEST PUSH1 0x0 DUP2 MLOAD SWAP1 POP PUSH2 0x998B DUP2 PUSH2 0x8A9B JUMP JUMPDEST SWAP3 SWAP2 POP POP JUMP JUMPDEST PUSH1 0x0 PUSH1 0x20 DUP3 DUP5 SUB SLT ISZERO PUSH2 0x99A7 JUMPI PUSH2 0x99A6 PUSH2 0x7ED9 JUMP JUMPDEST JUMPDEST PUSH1 0x0 PUSH2 0x99B5 DUP5 DUP3 DUP6 ADD PUSH2 0x997C JUMP JUMPDEST SWAP2 POP POP SWAP3 SWAP2 POP POP JUMP JUMPDEST PUSH32 0x43434A453A205472616E73616374696F6E73206172652074656D706F72617269 PUSH1 0x0 DUP3 ADD MSTORE PUSH32 0x6C792064697361626C6564000000000000000000000000000000000000000000 PUSH1 0x20 DUP3 ADD MSTORE POP JUMP JUMPDEST PUSH1 0x0 PUSH2 0x9A1A PUSH1 0x2B DUP4 PUSH2 0x81DD JUMP JUMPDEST SWAP2 POP PUSH2 0x9A25 DUP3 PUSH2 0x99BE JUMP JUMPDEST PUSH1 0x40 DUP3 ADD SWAP1 POP SWAP2 SWAP1 POP JUMP JUMPDEST PUSH1 0x0 PUSH1 0x20 DUP3 ADD SWAP1 POP DUP2 DUP2 SUB PUSH1 0x0 DUP4 ADD MSTORE PUSH2 0x9A49 DUP2 PUSH2 0x9A0D JUMP JUMPDEST SWAP1 POP SWAP2 SWAP1 POP JUMP JUMPDEST PUSH1 0x0 PUSH2 0x9A5B DUP3 PUSH2 0x81D2 JUMP JUMPDEST PUSH2 0x9A65 DUP2 DUP6 PUSH2 0x94A5 JUMP JUMPDEST SWAP4 POP PUSH2 0x9A75 DUP2 DUP6 PUSH1 0x20 DUP7 ADD PUSH2 0x81EE JUMP JUMPDEST DUP1 DUP5 ADD SWAP2 POP POP SWAP3 SWAP2 POP POP JUMP JUMPDEST PUSH32 0x7B69647D2E6A736F6E0000000000000000000000000000000000000000000000 PUSH1 0x0 DUP3 ADD MSTORE POP JUMP JUMPDEST PUSH1 0x0 PUSH2 0x9AB7 PUSH1 0x9 DUP4 PUSH2 0x94A5 JUMP JUMPDEST SWAP2 POP PUSH2 0x9AC2 DUP3 PUSH2 0x9A81 JUMP JUMPDEST PUSH1 0x9 DUP3 ADD SWAP1 POP SWAP2 SWAP1 POP JUMP JUMPDEST PUSH1 0x0 PUSH2 0x9AD9 DUP3 DUP5 PUSH2 0x9A50 JUMP JUMPDEST SWAP2 POP PUSH2 0x9AE4 DUP3 PUSH2 0x9AAA JUMP JUMPDEST SWAP2 POP DUP2 SWAP1 POP SWAP3 SWAP2 POP POP JUMP JUMPDEST PUSH32 0x455243313135353A2063616C6C6572206973206E6F74206F776E6572206E6F72 PUSH1 0x0 DUP3 ADD MSTORE PUSH32 0x20617070726F7665640000000000000000000000000000000000000000000000 PUSH1 0x20 DUP3 ADD MSTORE POP JUMP JUMPDEST PUSH1 0x0 PUSH2 0x9B4B PUSH1 0x29 DUP4 PUSH2 0x81DD JUMP JUMPDEST SWAP2 POP PUSH2 0x9B56 DUP3 PUSH2 0x9AEF JUMP JUMPDEST PUSH1 0x40 DUP3 ADD SWAP1 POP SWAP2 SWAP1 POP JUMP JUMPDEST PUSH1 0x0 PUSH1 0x20 DUP3 ADD SWAP1 POP DUP2 DUP2 SUB PUSH1 0x0 DUP4 ADD MSTORE PUSH2 0x9B7A DUP2 PUSH2 0x9B3E JUMP JUMPDEST SWAP1 POP SWAP2 SWAP1 POP JUMP JUMPDEST PUSH1 0x0 DUP2 MLOAD SWAP1 POP PUSH2 0x9B90 DUP2 PUSH2 0x7F4B JUMP JUMPDEST SWAP3 SWAP2 POP POP JUMP JUMPDEST PUSH1 0x0 PUSH1 0x20 DUP3 DUP5 SUB SLT ISZERO PUSH2 0x9BAC JUMPI PUSH2 0x9BAB PUSH2 0x7ED9 JUMP JUMPDEST JUMPDEST PUSH1 0x0 PUSH2 0x9BBA DUP5 DUP3 DUP6 ADD PUSH2 0x9B81 JUMP JUMPDEST SWAP2 POP POP SWAP3 SWAP2 POP POP JUMP JUMPDEST PUSH32 0x416363657373436F6E74726F6C3A206163636F756E7420000000000000000000 PUSH1 0x0 DUP3 ADD MSTORE POP JUMP JUMPDEST PUSH1 0x0 PUSH2 0x9BF9 PUSH1 0x17 DUP4 PUSH2 0x94A5 JUMP JUMPDEST SWAP2 POP PUSH2 0x9C04 DUP3 PUSH2 0x9BC3 JUMP JUMPDEST PUSH1 0x17 DUP3 ADD SWAP1 POP SWAP2 SWAP1 POP JUMP JUMPDEST PUSH32 0x206973206D697373696E6720726F6C6520000000000000000000000000000000 PUSH1 0x0 DUP3 ADD MSTORE POP JUMP JUMPDEST PUSH1 0x0 PUSH2 0x9C45 PUSH1 0x11 DUP4 PUSH2 0x94A5 JUMP JUMPDEST SWAP2 POP PUSH2 0x9C50 DUP3 PUSH2 0x9C0F JUMP JUMPDEST PUSH1 0x11 DUP3 ADD SWAP1 POP SWAP2 SWAP1 POP JUMP JUMPDEST PUSH1 0x0 PUSH2 0x9C66 DUP3 PUSH2 0x9BEC JUMP JUMPDEST SWAP2 POP PUSH2 0x9C72 DUP3 DUP6 PUSH2 0x9A50 JUMP JUMPDEST SWAP2 POP PUSH2 0x9C7D DUP3 PUSH2 0x9C38 JUMP JUMPDEST SWAP2 POP PUSH2 0x9C89 DUP3 DUP5 PUSH2 0x9A50 JUMP JUMPDEST SWAP2 POP DUP2 SWAP1 POP SWAP4 SWAP3 POP POP POP JUMP JUMPDEST PUSH32 0x455243313135353A206D696E7420746F20746865207A65726F20616464726573 PUSH1 0x0 DUP3 ADD MSTORE PUSH32 0x7300000000000000000000000000000000000000000000000000000000000000 PUSH1 0x20 DUP3 ADD MSTORE POP JUMP JUMPDEST PUSH1 0x0 PUSH2 0x9CF1 PUSH1 0x21 DUP4 PUSH2 0x81DD JUMP JUMPDEST SWAP2 POP PUSH2 0x9CFC DUP3 PUSH2 0x9C95 JUMP JUMPDEST PUSH1 0x40 DUP3 ADD SWAP1 POP SWAP2 SWAP1 POP JUMP JUMPDEST PUSH1 0x0 PUSH1 0x20 DUP3 ADD SWAP1 POP DUP2 DUP2 SUB PUSH1 0x0 DUP4 ADD MSTORE PUSH2 0x9D20 DUP2 PUSH2 0x9CE4 JUMP JUMPDEST SWAP1 POP SWAP2 SWAP1 POP JUMP JUMPDEST PUSH1 0x0 PUSH2 0x9D32 DUP3 PUSH2 0x7F41 JUMP JUMPDEST SWAP2 POP PUSH2 0x9D3D DUP4 PUSH2 0x7F41 JUMP JUMPDEST SWAP3 POP DUP3 PUSH2 0x9D4D JUMPI PUSH2 0x9D4C PUSH2 0x9711 JUMP JUMPDEST JUMPDEST DUP3 DUP3 MOD SWAP1 POP SWAP3 SWAP2 POP POP JUMP JUMPDEST PUSH32 0x455243313135353A2073657474696E6720617070726F76616C20737461747573 PUSH1 0x0 DUP3 ADD MSTORE PUSH32 0x20666F722073656C660000000000000000000000000000000000000000000000 PUSH1 0x20 DUP3 ADD MSTORE POP JUMP JUMPDEST PUSH1 0x0 PUSH2 0x9DB4 PUSH1 0x29 DUP4 PUSH2 0x81DD JUMP JUMPDEST SWAP2 POP PUSH2 0x9DBF DUP3 PUSH2 0x9D58 JUMP JUMPDEST PUSH1 0x40 DUP3 ADD SWAP1 POP SWAP2 SWAP1 POP JUMP JUMPDEST PUSH1 0x0 PUSH1 0x20 DUP3 ADD SWAP1 POP DUP2 DUP2 SUB PUSH1 0x0 DUP4 ADD MSTORE PUSH2 0x9DE3 DUP2 PUSH2 0x9DA7 JUMP JUMPDEST SWAP1 POP SWAP2 SWAP1 POP JUMP JUMPDEST PUSH1 0x0 PUSH1 0xE0 DUP3 ADD SWAP1 POP PUSH2 0x9DFF PUSH1 0x0 DUP4 ADD DUP11 PUSH2 0x81A8 JUMP JUMPDEST PUSH2 0x9E0C PUSH1 0x20 DUP4 ADD DUP10 PUSH2 0x81A8 JUMP JUMPDEST PUSH2 0x9E19 PUSH1 0x40 DUP4 ADD DUP9 PUSH2 0x7FB7 JUMP JUMPDEST PUSH2 0x9E26 PUSH1 0x60 DUP4 ADD DUP8 PUSH2 0x7FB7 JUMP JUMPDEST PUSH2 0x9E33 PUSH1 0x80 DUP4 ADD DUP7 PUSH2 0x7FB7 JUMP JUMPDEST PUSH2 0x9E40 PUSH1 0xA0 DUP4 ADD DUP6 PUSH2 0x7FB7 JUMP JUMPDEST PUSH2 0x9E4D PUSH1 0xC0 DUP4 ADD DUP5 PUSH2 0x81A8 JUMP JUMPDEST SWAP9 SWAP8 POP POP POP POP POP POP POP POP JUMP JUMPDEST PUSH32 0x2154580000000000000000000000000000000000000000000000000000000000 PUSH1 0x0 DUP3 ADD MSTORE POP JUMP JUMPDEST PUSH1 0x0 PUSH2 0x9E8F PUSH1 0x3 DUP4 PUSH2 0x81DD JUMP JUMPDEST SWAP2 POP PUSH2 0x9E9A DUP3 PUSH2 0x9E59 JUMP JUMPDEST PUSH1 0x20 DUP3 ADD SWAP1 POP SWAP2 SWAP1 POP JUMP JUMPDEST PUSH1 0x0 PUSH1 0x20 DUP3 ADD SWAP1 POP DUP2 DUP2 SUB PUSH1 0x0 DUP4 ADD MSTORE PUSH2 0x9EBE DUP2 PUSH2 0x9E82 JUMP JUMPDEST SWAP1 POP SWAP2 SWAP1 POP JUMP JUMPDEST PUSH32 0x455243313135353A207472616E7366657220746F20746865207A65726F206164 PUSH1 0x0 DUP3 ADD MSTORE PUSH32 0x6472657373000000000000000000000000000000000000000000000000000000 PUSH1 0x20 DUP3 ADD MSTORE POP JUMP JUMPDEST PUSH1 0x0 PUSH2 0x9F21 PUSH1 0x25 DUP4 PUSH2 0x81DD JUMP JUMPDEST SWAP2 POP PUSH2 0x9F2C DUP3 PUSH2 0x9EC5 JUMP JUMPDEST PUSH1 0x40 DUP3 ADD SWAP1 POP SWAP2 SWAP1 POP JUMP JUMPDEST PUSH1 0x0 PUSH1 0x20 DUP3 ADD SWAP1 POP DUP2 DUP2 SUB PUSH1 0x0 DUP4 ADD MSTORE PUSH2 0x9F50 DUP2 PUSH2 0x9F14 JUMP JUMPDEST SWAP1 POP SWAP2 SWAP1 POP JUMP JUMPDEST PUSH32 0x455243313135353A20696E73756666696369656E742062616C616E636520666F PUSH1 0x0 DUP3 ADD MSTORE PUSH32 0x72207472616E7366657200000000000000000000000000000000000000000000 PUSH1 0x20 DUP3 ADD MSTORE POP JUMP JUMPDEST PUSH1 0x0 PUSH2 0x9FB3 PUSH1 0x2A DUP4 PUSH2 0x81DD JUMP JUMPDEST SWAP2 POP PUSH2 0x9FBE DUP3 PUSH2 0x9F57 JUMP JUMPDEST PUSH1 0x40 DUP3 ADD SWAP1 POP SWAP2 SWAP1 POP JUMP JUMPDEST PUSH1 0x0 PUSH1 0x20 DUP3 ADD SWAP1 POP DUP2 DUP2 SUB PUSH1 0x0 DUP4 ADD MSTORE PUSH2 0x9FE2 DUP2 PUSH2 0x9FA6 JUMP JUMPDEST SWAP1 POP SWAP2 SWAP1 POP JUMP JUMPDEST PUSH32 0x455243313135353A206275726E2066726F6D20746865207A65726F2061646472 PUSH1 0x0 DUP3 ADD MSTORE PUSH32 0x6573730000000000000000000000000000000000000000000000000000000000 PUSH1 0x20 DUP3 ADD MSTORE POP JUMP JUMPDEST PUSH1 0x0 PUSH2 0xA045 PUSH1 0x23 DUP4 PUSH2 0x81DD JUMP JUMPDEST SWAP2 POP PUSH2 0xA050 DUP3 PUSH2 0x9FE9 JUMP JUMPDEST PUSH1 0x40 DUP3 ADD SWAP1 POP SWAP2 SWAP1 POP JUMP JUMPDEST PUSH1 0x0 PUSH1 0x20 DUP3 ADD SWAP1 POP DUP2 DUP2 SUB PUSH1 0x0 DUP4 ADD MSTORE PUSH2 0xA074 DUP2 PUSH2 0xA038 JUMP JUMPDEST SWAP1 POP SWAP2 SWAP1 POP JUMP JUMPDEST PUSH32 0x455243313135353A206275726E20616D6F756E7420657863656564732062616C PUSH1 0x0 DUP3 ADD MSTORE PUSH32 0x616E636500000000000000000000000000000000000000000000000000000000 PUSH1 0x20 DUP3 ADD MSTORE POP JUMP JUMPDEST PUSH1 0x0 PUSH2 0xA0D7 PUSH1 0x24 DUP4 PUSH2 0x81DD JUMP JUMPDEST SWAP2 POP PUSH2 0xA0E2 DUP3 PUSH2 0xA07B JUMP JUMPDEST PUSH1 0x40 DUP3 ADD SWAP1 POP SWAP2 SWAP1 POP JUMP JUMPDEST PUSH1 0x0 PUSH1 0x20 DUP3 ADD SWAP1 POP DUP2 DUP2 SUB PUSH1 0x0 DUP4 ADD MSTORE PUSH2 0xA106 DUP2 PUSH2 0xA0CA JUMP JUMPDEST SWAP1 POP SWAP2 SWAP1 POP JUMP JUMPDEST PUSH1 0x0 DUP2 MLOAD SWAP1 POP SWAP2 SWAP1 POP JUMP JUMPDEST PUSH1 0x0 DUP2 SWAP1 POP SWAP3 SWAP2 POP POP JUMP JUMPDEST PUSH1 0x0 PUSH2 0xA12E DUP3 PUSH2 0xA10D JUMP JUMPDEST PUSH2 0xA138 DUP2 DUP6 PUSH2 0xA118 JUMP JUMPDEST SWAP4 POP PUSH2 0xA148 DUP2 DUP6 PUSH1 0x20 DUP7 ADD PUSH2 0x81EE JUMP JUMPDEST DUP1 DUP5 ADD SWAP2 POP POP SWAP3 SWAP2 POP POP JUMP JUMPDEST PUSH1 0x0 PUSH2 0xA160 DUP3 DUP5 PUSH2 0xA123 JUMP JUMPDEST SWAP2 POP DUP2 SWAP1 POP SWAP3 SWAP2 POP POP JUMP JUMPDEST PUSH1 0x0 PUSH2 0xA176 DUP3 PUSH2 0x7F41 JUMP JUMPDEST SWAP2 POP PUSH1 0x0 DUP3 EQ ISZERO PUSH2 0xA18A JUMPI PUSH2 0xA189 PUSH2 0x9162 JUMP JUMPDEST JUMPDEST PUSH1 0x1 DUP3 SUB SWAP1 POP SWAP2 SWAP1 POP JUMP JUMPDEST PUSH32 0x537472696E67733A20686578206C656E67746820696E73756666696369656E74 PUSH1 0x0 DUP3 ADD MSTORE POP JUMP JUMPDEST PUSH1 0x0 PUSH2 0xA1CB PUSH1 0x20 DUP4 PUSH2 0x81DD JUMP JUMPDEST SWAP2 POP PUSH2 0xA1D6 DUP3 PUSH2 0xA195 JUMP JUMPDEST PUSH1 0x20 DUP3 ADD SWAP1 POP SWAP2 SWAP1 POP JUMP JUMPDEST PUSH1 0x0 PUSH1 0x20 DUP3 ADD SWAP1 POP DUP2 DUP2 SUB PUSH1 0x0 DUP4 ADD MSTORE PUSH2 0xA1FA DUP2 PUSH2 0xA1BE JUMP JUMPDEST SWAP1 POP SWAP2 SWAP1 POP JUMP JUMPDEST PUSH1 0x0 PUSH1 0x60 DUP3 ADD SWAP1 POP PUSH2 0xA216 PUSH1 0x0 DUP4 ADD DUP7 PUSH2 0x81A8 JUMP JUMPDEST PUSH2 0xA223 PUSH1 0x20 DUP4 ADD DUP6 PUSH2 0x81A8 JUMP JUMPDEST PUSH2 0xA230 PUSH1 0x40 DUP4 ADD DUP5 PUSH2 0x7FB7 JUMP JUMPDEST SWAP5 SWAP4 POP POP POP POP JUMP JUMPDEST PUSH1 0x0 DUP3 DUP3 MSTORE PUSH1 0x20 DUP3 ADD SWAP1 POP SWAP3 SWAP2 POP POP JUMP JUMPDEST PUSH1 0x0 PUSH2 0xA254 DUP3 PUSH2 0xA10D JUMP JUMPDEST PUSH2 0xA25E DUP2 DUP6 PUSH2 0xA238 JUMP JUMPDEST SWAP4 POP PUSH2 0xA26E DUP2 DUP6 PUSH1 0x20 DUP7 ADD PUSH2 0x81EE JUMP JUMPDEST PUSH2 0xA277 DUP2 PUSH2 0x8221 JUMP JUMPDEST DUP5 ADD SWAP2 POP POP SWAP3 SWAP2 POP POP JUMP JUMPDEST PUSH1 0x0 PUSH1 0xA0 DUP3 ADD SWAP1 POP PUSH2 0xA297 PUSH1 0x0 DUP4 ADD DUP9 PUSH2 0x81A8 JUMP JUMPDEST PUSH2 0xA2A4 PUSH1 0x20 DUP4 ADD DUP8 PUSH2 0x81A8 JUMP JUMPDEST PUSH2 0xA2B1 PUSH1 0x40 DUP4 ADD DUP7 PUSH2 0x7FB7 JUMP JUMPDEST PUSH2 0xA2BE PUSH1 0x60 DUP4 ADD DUP6 PUSH2 0x7FB7 JUMP JUMPDEST DUP2 DUP2 SUB PUSH1 0x80 DUP4 ADD MSTORE PUSH2 0xA2D0 DUP2 DUP5 PUSH2 0xA249 JUMP JUMPDEST SWAP1 POP SWAP7 SWAP6 POP POP POP POP POP POP JUMP JUMPDEST PUSH1 0x0 DUP2 MLOAD SWAP1 POP PUSH2 0xA2EB DUP2 PUSH2 0x800D JUMP JUMPDEST SWAP3 SWAP2 POP POP JUMP JUMPDEST PUSH1 0x0 PUSH1 0x20 DUP3 DUP5 SUB SLT ISZERO PUSH2 0xA307 JUMPI PUSH2 0xA306 PUSH2 0x7ED9 JUMP JUMPDEST JUMPDEST PUSH1 0x0 PUSH2 0xA315 DUP5 DUP3 DUP6 ADD PUSH2 0xA2DC JUMP JUMPDEST SWAP2 POP POP SWAP3 SWAP2 POP POP JUMP JUMPDEST PUSH1 0x0 DUP2 PUSH1 0xE0 SHR SWAP1 POP SWAP2 SWAP1 POP JUMP JUMPDEST PUSH1 0x0 PUSH1 0x3 RETURNDATASIZE GT ISZERO PUSH2 0xA34A JUMPI PUSH1 0x4 PUSH1 0x0 DUP1 RETURNDATACOPY PUSH2 0xA347 PUSH1 0x0 MLOAD PUSH2 0xA31E JUMP JUMPDEST SWAP1 POP JUMPDEST SWAP1 JUMP JUMPDEST PUSH1 0x0 PUSH1 0x44 RETURNDATASIZE LT ISZERO PUSH2 0xA35D JUMPI PUSH2 0xA3E0 JUMP JUMPDEST PUSH2 0xA365 PUSH2 0x7ECF JUMP JUMPDEST PUSH1 0x4 RETURNDATASIZE SUB PUSH1 0x4 DUP3 RETURNDATACOPY DUP1 MLOAD RETURNDATASIZE PUSH1 0x24 DUP3 ADD GT PUSH8 0xFFFFFFFFFFFFFFFF DUP3 GT OR ISZERO PUSH2 0xA38D JUMPI POP POP PUSH2 0xA3E0 JUMP JUMPDEST DUP1 DUP3 ADD DUP1 MLOAD PUSH8 0xFFFFFFFFFFFFFFFF DUP2 GT ISZERO PUSH2 0xA3AB JUMPI POP POP POP POP PUSH2 0xA3E0 JUMP JUMPDEST DUP1 PUSH1 0x20 DUP4 ADD ADD PUSH1 0x4 RETURNDATASIZE SUB DUP6 ADD DUP2 GT ISZERO PUSH2 0xA3C8 JUMPI POP POP POP POP POP PUSH2 0xA3E0 JUMP JUMPDEST PUSH2 0xA3D7 DUP3 PUSH1 0x20 ADD DUP6 ADD DUP7 PUSH2 0x839A JUMP JUMPDEST DUP3 SWAP6 POP POP POP POP POP POP JUMPDEST SWAP1 JUMP JUMPDEST PUSH32 0x455243313135353A207472616E7366657220746F206E6F6E2045524331313535 PUSH1 0x0 DUP3 ADD MSTORE PUSH32 0x526563656976657220696D706C656D656E746572000000000000000000000000 PUSH1 0x20 DUP3 ADD MSTORE POP JUMP JUMPDEST PUSH1 0x0 PUSH2 0xA43F PUSH1 0x34 DUP4 PUSH2 0x81DD JUMP JUMPDEST SWAP2 POP PUSH2 0xA44A DUP3 PUSH2 0xA3E3 JUMP JUMPDEST PUSH1 0x40 DUP3 ADD SWAP1 POP SWAP2 SWAP1 POP JUMP JUMPDEST PUSH1 0x0 PUSH1 0x20 DUP3 ADD SWAP1 POP DUP2 DUP2 SUB PUSH1 0x0 DUP4 ADD MSTORE PUSH2 0xA46E DUP2 PUSH2 0xA432 JUMP JUMPDEST SWAP1 POP SWAP2 SWAP1 POP JUMP JUMPDEST PUSH32 0x455243313135353A204552433131353552656365697665722072656A65637465 PUSH1 0x0 DUP3 ADD MSTORE PUSH32 0x6420746F6B656E73000000000000000000000000000000000000000000000000 PUSH1 0x20 DUP3 ADD MSTORE POP JUMP JUMPDEST PUSH1 0x0 PUSH2 0xA4D1 PUSH1 0x28 DUP4 PUSH2 0x81DD JUMP JUMPDEST SWAP2 POP PUSH2 0xA4DC DUP3 PUSH2 0xA475 JUMP JUMPDEST PUSH1 0x40 DUP3 ADD SWAP1 POP SWAP2 SWAP1 POP JUMP JUMPDEST PUSH1 0x0 PUSH1 0x20 DUP3 ADD SWAP1 POP DUP2 DUP2 SUB PUSH1 0x0 DUP4 ADD MSTORE PUSH2 0xA500 DUP2 PUSH2 0xA4C4 JUMP JUMPDEST SWAP1 POP SWAP2 SWAP1 POP JUMP JUMPDEST PUSH32 0x4E487B7100000000000000000000000000000000000000000000000000000000 PUSH1 0x0 MSTORE PUSH1 0x31 PUSH1 0x4 MSTORE PUSH1 0x24 PUSH1 0x0 REVERT INVALID LOG2 PUSH5 0x6970667358 0x22 SLT KECCAK256 0xF9 0xCD JUMPI MULMOD PUSH8 0xC829C0CAF811FA5A EXTCODECOPY 0xE2 JUMPI 0xD2 STOP SAR SELFDESTRUCT 0xF8 0x5D LOG3 EXTCODESIZE 0xD4 0xED PUSH9 0x4848C7EA4964736F6C PUSH4 0x4300080B STOP CALLER PUSH9 0x747470733A2F2F6461 PUSH21 0x612E63657262792E66692F4365726279537761702F PUSH23 0x312F000000000000000000000000000000000000000000 "
		},
		"gasEstimates": {
			"creation": {
				"codeDepositCost": "8469600",
				"executionCost": "infinite",
				"totalCost": "infinite"
			},
			"external": {
				"ROLE_ADMIN()": "424",
				"addTokenLiquidity(address,uint256,uint256,address)": "infinite",
				"adminCreatePool(address,uint256,uint256,address)": "infinite",
				"adminInitialize()": "infinite",
				"adminSetURI(string)": "infinite",
				"adminUpdateFeesAndTvlMultipliers((address,uint256,uint256,uint256,uint256,uint256))": "infinite",
				"adminUpdateNameAndSymbol(string,string)": "infinite",
				"balanceOf(address,uint256)": "infinite",
				"balanceOfBatch(address[],uint256[])": "infinite",
				"burn(address,uint256,uint256)": "infinite",
				"decimals()": "405",
				"exists(uint256)": "2902",
				"getCurrentFeeBasedOnTrades(address)": "infinite",
				"getInputTokensForExactTokens(address,address,uint256)": "infinite",
				"getOutputExactTokensForTokens(address,address,uint256)": "infinite",
				"getPoolByPosition(uint256)": "infinite",
				"getPoolByToken(address)": "infinite",
				"getRoleAdmin(bytes32)": "infinite",
				"getRoleMember(bytes32,uint256)": "infinite",
				"getRoleMemberCount(bytes32)": "2931",
				"getTokenToPoolPosition(address)": "2908",
				"getUtilsContractAtPos(uint256)": "infinite",
				"grantRole(bytes32,address)": "infinite",
				"grantRolesBulk((bytes32,address)[])": "infinite",
				"hasRole(bytes32,address)": "3295",
				"isApprovedForAll(address,address)": "infinite",
				"name()": "infinite",
				"removeTokenLiquidity(address,uint256,uint256,address)": "infinite",
				"renounceRole(bytes32,address)": "infinite",
				"revokeRole(bytes32,address)": "infinite",
				"safeBatchTransferFrom(address,address,uint256[],uint256[],bytes)": "infinite",
				"safeTransferFrom(address,address,uint256,uint256,bytes)": "infinite",
				"setApprovalForAll(address,bool)": "infinite",
				"settings()": "infinite",
				"skimPool(address)": "infinite",
				"supportsInterface(bytes4)": "931",
				"swap(address,uint256,uint256,address)": "infinite",
				"swapExactTokensForTokens(address,address,uint256,uint256,uint256,address)": "infinite",
				"swapTokensForExactTokens(address,address,uint256,uint256,uint256,address)": "infinite",
				"symbol()": "infinite",
				"syncTokenBalanceInPool(address)": "infinite",
				"testInit()": "infinite",
				"testSetupTokens(address,address,address,address,address)": "infinite",
				"totalSupply()": "infinite",
				"totalSupply(uint256)": "infinite",
				"uri(uint256)": "infinite"
			},
			"internal": {
				"_getInput(uint256,uint256,uint256,uint256)": "infinite",
				"_getMintFeeLiquidityAmount(uint256,uint256,uint256)": "infinite",
				"_getOutput(uint256,uint256,uint256,uint256)": "infinite",
				"_getTokenBalance(address)": "infinite",
				"_removeTokenLiquidity(address,uint256,address)": "infinite",
				"_safeTransferFrom(address,address,address,uint256)": "infinite",
				"_safeTransferFromHelper(address,address,uint256)": "infinite",
				"_safeTransferHelper(address,address,uint256,bool)": "infinite",
				"_safeTransferNative(address,uint256)": "infinite",
				"_safeTransferToken(address,address,uint256)": "infinite",
				"_swap(address,uint256,uint256,address)": "infinite",
				"getCurrentFeeBasedOnTrades(uint256)": "infinite",
				"getCurrentPeriod()": "infinite",
				"getInputCerUsdForExactTokens(address,uint256)": "infinite",
				"getInputTokensForExactCerUsd(address,uint256)": "infinite",
				"getOutputExactCerUsdForTokens(address,uint256)": "infinite",
				"getOutputExactTokensForCerUsd(address,uint256)": "infinite",
				"sqrt(uint256)": "infinite"
			}
		},
		"methodIdentifiers": {
			"ROLE_ADMIN()": "d391014b",
			"addTokenLiquidity(address,uint256,uint256,address)": "43fefad4",
			"adminCreatePool(address,uint256,uint256,address)": "d5d60737",
			"adminInitialize()": "c09c923b",
			"adminSetURI(string)": "a7fd40bf",
			"adminUpdateFeesAndTvlMultipliers((address,uint256,uint256,uint256,uint256,uint256))": "0c2e075b",
			"adminUpdateNameAndSymbol(string,string)": "3935ac11",
			"balanceOf(address,uint256)": "00fdd58e",
			"balanceOfBatch(address[],uint256[])": "4e1273f4",
			"burn(address,uint256,uint256)": "f5298aca",
			"decimals()": "313ce567",
			"exists(uint256)": "4f558e79",
			"getCurrentFeeBasedOnTrades(address)": "9162ebf0",
			"getInputTokensForExactTokens(address,address,uint256)": "c790985a",
			"getOutputExactTokensForTokens(address,address,uint256)": "48b08d62",
			"getPoolByPosition(uint256)": "d01350bd",
			"getPoolByToken(address)": "bbadc03b",
			"getRoleAdmin(bytes32)": "248a9ca3",
			"getRoleMember(bytes32,uint256)": "9010d07c",
			"getRoleMemberCount(bytes32)": "ca15c873",
			"getTokenToPoolPosition(address)": "b771e425",
			"getUtilsContractAtPos(uint256)": "06fb1a07",
			"grantRole(bytes32,address)": "2f2ff15d",
			"grantRolesBulk((bytes32,address)[])": "03ed957f",
			"hasRole(bytes32,address)": "91d14854",
			"isApprovedForAll(address,address)": "e985e9c5",
			"name()": "06fdde03",
			"removeTokenLiquidity(address,uint256,uint256,address)": "74fcf071",
			"renounceRole(bytes32,address)": "36568abe",
			"revokeRole(bytes32,address)": "d547741f",
			"safeBatchTransferFrom(address,address,uint256[],uint256[],bytes)": "2eb2c2d6",
			"safeTransferFrom(address,address,uint256,uint256,bytes)": "f242432a",
			"setApprovalForAll(address,bool)": "a22cb465",
			"settings()": "e06174e4",
			"skimPool(address)": "03d604bd",
			"supportsInterface(bytes4)": "01ffc9a7",
			"swap(address,uint256,uint256,address)": "f3e6ea8a",
			"swapExactTokensForTokens(address,address,uint256,uint256,uint256,address)": "a60c6e55",
			"swapTokensForExactTokens(address,address,uint256,uint256,uint256,address)": "f6524724",
			"symbol()": "95d89b41",
			"syncTokenBalanceInPool(address)": "9bc731fc",
			"testInit()": "b5d11e99",
			"testSetupTokens(address,address,address,address,address)": "eca01093",
			"totalSupply()": "18160ddd",
			"totalSupply(uint256)": "bd85b039",
			"uri(uint256)": "0e89341c"
		}
	},
	"abi": [
		{
			"inputs": [],
			"stateMutability": "nonpayable",
			"type": "constructor"
		},
		{
			"anonymous": false,
			"inputs": [
				{
					"indexed": true,
					"internalType": "address",
					"name": "account",
					"type": "address"
				},
				{
					"indexed": true,
					"internalType": "address",
					"name": "operator",
					"type": "address"
				},
				{
					"indexed": false,
					"internalType": "bool",
					"name": "approved",
					"type": "bool"
				}
			],
			"name": "ApprovalForAll",
			"type": "event"
		},
		{
			"anonymous": false,
			"inputs": [
				{
					"indexed": false,
					"internalType": "address",
					"name": "token",
					"type": "address"
				},
				{
					"indexed": false,
					"internalType": "uint256",
					"name": "amountTokensIn",
					"type": "uint256"
				},
				{
					"indexed": false,
					"internalType": "uint256",
					"name": "mintCerUsdAmount",
					"type": "uint256"
				},
				{
					"indexed": false,
					"internalType": "uint256",
					"name": "lpAmount",
					"type": "uint256"
				}
			],
			"name": "LiquidityAdded",
			"type": "event"
		},
		{
			"anonymous": false,
			"inputs": [
				{
					"indexed": false,
					"internalType": "address",
					"name": "token",
					"type": "address"
				},
				{
					"indexed": false,
					"internalType": "uint256",
					"name": "amountTokensOut",
					"type": "uint256"
				},
				{
					"indexed": false,
					"internalType": "uint256",
					"name": "amountCerUsdToBurn",
					"type": "uint256"
				},
				{
					"indexed": false,
					"internalType": "uint256",
					"name": "amountLpTokensBalanceToBurn",
					"type": "uint256"
				}
			],
			"name": "LiquidityRemoved",
			"type": "event"
		},
		{
			"anonymous": false,
			"inputs": [
				{
					"indexed": false,
					"internalType": "address",
					"name": "token",
					"type": "address"
				},
				{
					"indexed": false,
					"internalType": "uint256",
					"name": "poolPos",
					"type": "uint256"
				}
			],
			"name": "PairCreated",
			"type": "event"
		},
		{
			"anonymous": false,
			"inputs": [
				{
					"indexed": true,
					"internalType": "bytes32",
					"name": "role",
					"type": "bytes32"
				},
				{
					"indexed": true,
					"internalType": "bytes32",
					"name": "previousAdminRole",
					"type": "bytes32"
				},
				{
					"indexed": true,
					"internalType": "bytes32",
					"name": "newAdminRole",
					"type": "bytes32"
				}
			],
			"name": "RoleAdminChanged",
			"type": "event"
		},
		{
			"anonymous": false,
			"inputs": [
				{
					"indexed": true,
					"internalType": "bytes32",
					"name": "role",
					"type": "bytes32"
				},
				{
					"indexed": true,
					"internalType": "address",
					"name": "account",
					"type": "address"
				},
				{
					"indexed": true,
					"internalType": "address",
					"name": "sender",
					"type": "address"
				}
			],
			"name": "RoleGranted",
			"type": "event"
		},
		{
			"anonymous": false,
			"inputs": [
				{
					"indexed": true,
					"internalType": "bytes32",
					"name": "role",
					"type": "bytes32"
				},
				{
					"indexed": true,
					"internalType": "address",
					"name": "account",
					"type": "address"
				},
				{
					"indexed": true,
					"internalType": "address",
					"name": "sender",
					"type": "address"
				}
			],
			"name": "RoleRevoked",
			"type": "event"
		},
		{
			"anonymous": false,
			"inputs": [
				{
					"indexed": false,
					"internalType": "address",
					"name": "token",
					"type": "address"
				},
				{
					"indexed": false,
					"internalType": "address",
					"name": "sender",
					"type": "address"
				},
				{
					"indexed": false,
					"internalType": "uint256",
					"name": "amountTokensIn",
					"type": "uint256"
				},
				{
					"indexed": false,
					"internalType": "uint256",
					"name": "amountCerUsdIn",
					"type": "uint256"
				},
				{
					"indexed": false,
					"internalType": "uint256",
					"name": "amountTokensOut",
					"type": "uint256"
				},
				{
					"indexed": false,
					"internalType": "uint256",
					"name": "amountCerUsdOut",
					"type": "uint256"
				},
				{
					"indexed": false,
					"internalType": "address",
					"name": "transferTo",
					"type": "address"
				}
			],
			"name": "Swap",
			"type": "event"
		},
		{
			"anonymous": false,
			"inputs": [
				{
					"indexed": false,
					"internalType": "address",
					"name": "token",
					"type": "address"
				},
				{
					"indexed": false,
					"internalType": "uint256",
					"name": "balanceToken",
					"type": "uint256"
				},
				{
					"indexed": false,
					"internalType": "uint256",
					"name": "balanceCerUsd",
					"type": "uint256"
				}
			],
			"name": "Sync",
			"type": "event"
		},
		{
			"anonymous": false,
			"inputs": [
				{
					"indexed": true,
					"internalType": "address",
					"name": "operator",
					"type": "address"
				},
				{
					"indexed": true,
					"internalType": "address",
					"name": "from",
					"type": "address"
				},
				{
					"indexed": true,
					"internalType": "address",
					"name": "to",
					"type": "address"
				},
				{
					"indexed": false,
					"internalType": "uint256[]",
					"name": "ids",
					"type": "uint256[]"
				},
				{
					"indexed": false,
					"internalType": "uint256[]",
					"name": "values",
					"type": "uint256[]"
				}
			],
			"name": "TransferBatch",
			"type": "event"
		},
		{
			"anonymous": false,
			"inputs": [
				{
					"indexed": true,
					"internalType": "address",
					"name": "operator",
					"type": "address"
				},
				{
					"indexed": true,
					"internalType": "address",
					"name": "from",
					"type": "address"
				},
				{
					"indexed": true,
					"internalType": "address",
					"name": "to",
					"type": "address"
				},
				{
					"indexed": false,
					"internalType": "uint256",
					"name": "id",
					"type": "uint256"
				},
				{
					"indexed": false,
					"internalType": "uint256",
					"name": "value",
					"type": "uint256"
				}
			],
			"name": "TransferSingle",
			"type": "event"
		},
		{
			"anonymous": false,
			"inputs": [
				{
					"indexed": false,
					"internalType": "string",
					"name": "value",
					"type": "string"
				},
				{
					"indexed": true,
					"internalType": "uint256",
					"name": "id",
					"type": "uint256"
				}
			],
			"name": "URI",
			"type": "event"
		},
		{
			"inputs": [],
			"name": "ROLE_ADMIN",
			"outputs": [
				{
					"internalType": "bytes32",
					"name": "",
					"type": "bytes32"
				}
			],
			"stateMutability": "view",
			"type": "function"
		},
		{
			"inputs": [
				{
					"internalType": "address",
					"name": "token",
					"type": "address"
				},
				{
					"internalType": "uint256",
					"name": "amountTokensIn",
					"type": "uint256"
				},
				{
					"internalType": "uint256",
					"name": "expireTimestamp",
					"type": "uint256"
				},
				{
					"internalType": "address",
					"name": "transferTo",
					"type": "address"
				}
			],
			"name": "addTokenLiquidity",
			"outputs": [],
			"stateMutability": "payable",
			"type": "function"
		},
		{
			"inputs": [
				{
					"internalType": "address",
					"name": "token",
					"type": "address"
				},
				{
					"internalType": "uint256",
					"name": "amountTokensIn",
					"type": "uint256"
				},
				{
					"internalType": "uint256",
					"name": "amountCerUsdToMint",
					"type": "uint256"
				},
				{
					"internalType": "address",
					"name": "transferTo",
					"type": "address"
				}
			],
			"name": "adminCreatePool",
			"outputs": [],
			"stateMutability": "payable",
			"type": "function"
		},
		{
			"inputs": [],
			"name": "adminInitialize",
			"outputs": [],
			"stateMutability": "payable",
			"type": "function"
		},
		{
			"inputs": [
				{
					"internalType": "string",
					"name": "newUrlPrefix",
					"type": "string"
				}
			],
			"name": "adminSetURI",
			"outputs": [],
			"stateMutability": "nonpayable",
			"type": "function"
		},
		{
			"inputs": [
				{
					"components": [
						{
							"internalType": "address",
							"name": "feeToBeneficiary",
							"type": "address"
						},
						{
							"internalType": "uint256",
							"name": "mintFeeMultiplier",
							"type": "uint256"
						},
						{
							"internalType": "uint256",
							"name": "feeMinimum",
							"type": "uint256"
						},
						{
							"internalType": "uint256",
							"name": "feeMaximum",
							"type": "uint256"
						},
						{
							"internalType": "uint256",
							"name": "tvlMultiplierMinimum",
							"type": "uint256"
						},
						{
							"internalType": "uint256",
							"name": "tvlMultiplierMaximum",
							"type": "uint256"
						}
					],
					"internalType": "struct CerbySwapV1.Settings",
					"name": "_settings",
					"type": "tuple"
				}
			],
			"name": "adminUpdateFeesAndTvlMultipliers",
			"outputs": [],
			"stateMutability": "nonpayable",
			"type": "function"
		},
		{
			"inputs": [
				{
					"internalType": "string",
					"name": "newName",
					"type": "string"
				},
				{
					"internalType": "string",
					"name": "newSymbol",
					"type": "string"
				}
			],
			"name": "adminUpdateNameAndSymbol",
			"outputs": [],
			"stateMutability": "nonpayable",
			"type": "function"
		},
		{
			"inputs": [
				{
					"internalType": "address",
					"name": "account",
					"type": "address"
				},
				{
					"internalType": "uint256",
					"name": "id",
					"type": "uint256"
				}
			],
			"name": "balanceOf",
			"outputs": [
				{
					"internalType": "uint256",
					"name": "",
					"type": "uint256"
				}
			],
			"stateMutability": "view",
			"type": "function"
		},
		{
			"inputs": [
				{
					"internalType": "address[]",
					"name": "accounts",
					"type": "address[]"
				},
				{
					"internalType": "uint256[]",
					"name": "ids",
					"type": "uint256[]"
				}
			],
			"name": "balanceOfBatch",
			"outputs": [
				{
					"internalType": "uint256[]",
					"name": "",
					"type": "uint256[]"
				}
			],
			"stateMutability": "view",
			"type": "function"
		},
		{
			"inputs": [
				{
					"internalType": "address",
					"name": "account",
					"type": "address"
				},
				{
					"internalType": "uint256",
					"name": "id",
					"type": "uint256"
				},
				{
					"internalType": "uint256",
					"name": "value",
					"type": "uint256"
				}
			],
			"name": "burn",
			"outputs": [],
			"stateMutability": "nonpayable",
			"type": "function"
		},
		{
			"inputs": [],
			"name": "decimals",
			"outputs": [
				{
					"internalType": "uint256",
					"name": "",
					"type": "uint256"
				}
			],
			"stateMutability": "pure",
			"type": "function"
		},
		{
			"inputs": [
				{
					"internalType": "uint256",
					"name": "id",
					"type": "uint256"
				}
			],
			"name": "exists",
			"outputs": [
				{
					"internalType": "bool",
					"name": "",
					"type": "bool"
				}
			],
			"stateMutability": "view",
			"type": "function"
		},
		{
			"inputs": [
				{
					"internalType": "address",
					"name": "token",
					"type": "address"
				}
			],
			"name": "getCurrentFeeBasedOnTrades",
			"outputs": [
				{
					"internalType": "uint256",
					"name": "fee",
					"type": "uint256"
				}
			],
			"stateMutability": "view",
			"type": "function"
		},
		{
			"inputs": [
				{
					"internalType": "address",
					"name": "tokenIn",
					"type": "address"
				},
				{
					"internalType": "address",
					"name": "tokenOut",
					"type": "address"
				},
				{
					"internalType": "uint256",
					"name": "amountTokensOut",
					"type": "uint256"
				}
			],
			"name": "getInputTokensForExactTokens",
			"outputs": [
				{
					"internalType": "uint256",
					"name": "amountTokensIn",
					"type": "uint256"
				}
			],
			"stateMutability": "view",
			"type": "function"
		},
		{
			"inputs": [
				{
					"internalType": "address",
					"name": "tokenIn",
					"type": "address"
				},
				{
					"internalType": "address",
					"name": "tokenOut",
					"type": "address"
				},
				{
					"internalType": "uint256",
					"name": "amountTokensIn",
					"type": "uint256"
				}
			],
			"name": "getOutputExactTokensForTokens",
			"outputs": [
				{
					"internalType": "uint256",
					"name": "amountTokensOut",
					"type": "uint256"
				}
			],
			"stateMutability": "view",
			"type": "function"
		},
		{
			"inputs": [
				{
					"internalType": "uint256",
					"name": "pos",
					"type": "uint256"
				}
			],
			"name": "getPoolByPosition",
			"outputs": [
				{
					"components": [
						{
							"internalType": "address",
							"name": "token",
							"type": "address"
						},
						{
							"internalType": "uint32[8]",
							"name": "tradeVolumePerPeriodInCerUsd",
							"type": "uint32[8]"
						},
						{
							"internalType": "uint128",
							"name": "balanceToken",
							"type": "uint128"
						},
						{
							"internalType": "uint128",
							"name": "balanceCerUsd",
							"type": "uint128"
						},
						{
							"internalType": "uint128",
							"name": "lastSqrtKValue",
							"type": "uint128"
						}
					],
					"internalType": "struct CerbySwapV1.Pool",
					"name": "",
					"type": "tuple"
				}
			],
			"stateMutability": "view",
			"type": "function"
		},
		{
			"inputs": [
				{
					"internalType": "address",
					"name": "token",
					"type": "address"
				}
			],
			"name": "getPoolByToken",
			"outputs": [
				{
					"components": [
						{
							"internalType": "address",
							"name": "token",
							"type": "address"
						},
						{
							"internalType": "uint32[8]",
							"name": "tradeVolumePerPeriodInCerUsd",
							"type": "uint32[8]"
						},
						{
							"internalType": "uint128",
							"name": "balanceToken",
							"type": "uint128"
						},
						{
							"internalType": "uint128",
							"name": "balanceCerUsd",
							"type": "uint128"
						},
						{
							"internalType": "uint128",
							"name": "lastSqrtKValue",
							"type": "uint128"
						}
					],
					"internalType": "struct CerbySwapV1.Pool",
					"name": "",
					"type": "tuple"
				}
			],
			"stateMutability": "view",
			"type": "function"
		},
		{
			"inputs": [
				{
					"internalType": "bytes32",
					"name": "role",
					"type": "bytes32"
				}
			],
			"name": "getRoleAdmin",
			"outputs": [
				{
					"internalType": "bytes32",
					"name": "",
					"type": "bytes32"
				}
			],
			"stateMutability": "view",
			"type": "function"
		},
		{
			"inputs": [
				{
					"internalType": "bytes32",
					"name": "role",
					"type": "bytes32"
				},
				{
					"internalType": "uint256",
					"name": "index",
					"type": "uint256"
				}
			],
			"name": "getRoleMember",
			"outputs": [
				{
					"internalType": "address",
					"name": "",
					"type": "address"
				}
			],
			"stateMutability": "view",
			"type": "function"
		},
		{
			"inputs": [
				{
					"internalType": "bytes32",
					"name": "role",
					"type": "bytes32"
				}
			],
			"name": "getRoleMemberCount",
			"outputs": [
				{
					"internalType": "uint256",
					"name": "",
					"type": "uint256"
				}
			],
			"stateMutability": "view",
			"type": "function"
		},
		{
			"inputs": [
				{
					"internalType": "address",
					"name": "token",
					"type": "address"
				}
			],
			"name": "getTokenToPoolPosition",
			"outputs": [
				{
					"internalType": "uint256",
					"name": "",
					"type": "uint256"
				}
			],
			"stateMutability": "view",
			"type": "function"
		},
		{
			"inputs": [
				{
					"internalType": "uint256",
					"name": "pos",
					"type": "uint256"
				}
			],
			"name": "getUtilsContractAtPos",
			"outputs": [
				{
					"internalType": "address",
					"name": "",
					"type": "address"
				}
			],
			"stateMutability": "view",
			"type": "function"
		},
		{
			"inputs": [
				{
					"internalType": "bytes32",
					"name": "role",
					"type": "bytes32"
				},
				{
					"internalType": "address",
					"name": "account",
					"type": "address"
				}
			],
			"name": "grantRole",
			"outputs": [],
			"stateMutability": "nonpayable",
			"type": "function"
		},
		{
			"inputs": [
				{
					"components": [
						{
							"internalType": "bytes32",
							"name": "role",
							"type": "bytes32"
						},
						{
							"internalType": "address",
							"name": "addr",
							"type": "address"
						}
					],
					"internalType": "struct RoleAccess[]",
					"name": "roles",
					"type": "tuple[]"
				}
			],
			"name": "grantRolesBulk",
			"outputs": [],
			"stateMutability": "nonpayable",
			"type": "function"
		},
		{
			"inputs": [
				{
					"internalType": "bytes32",
					"name": "role",
					"type": "bytes32"
				},
				{
					"internalType": "address",
					"name": "account",
					"type": "address"
				}
			],
			"name": "hasRole",
			"outputs": [
				{
					"internalType": "bool",
					"name": "",
					"type": "bool"
				}
			],
			"stateMutability": "view",
			"type": "function"
		},
		{
			"inputs": [
				{
					"internalType": "address",
					"name": "account",
					"type": "address"
				},
				{
					"internalType": "address",
					"name": "operator",
					"type": "address"
				}
			],
			"name": "isApprovedForAll",
			"outputs": [
				{
					"internalType": "bool",
					"name": "",
					"type": "bool"
				}
			],
			"stateMutability": "view",
			"type": "function"
		},
		{
			"inputs": [],
			"name": "name",
			"outputs": [
				{
					"internalType": "string",
					"name": "",
					"type": "string"
				}
			],
			"stateMutability": "view",
			"type": "function"
		},
		{
			"inputs": [
				{
					"internalType": "address",
					"name": "token",
					"type": "address"
				},
				{
					"internalType": "uint256",
					"name": "amountLpTokensBalanceToBurn",
					"type": "uint256"
				},
				{
					"internalType": "uint256",
					"name": "expireTimestamp",
					"type": "uint256"
				},
				{
					"internalType": "address",
					"name": "transferTo",
					"type": "address"
				}
			],
			"name": "removeTokenLiquidity",
			"outputs": [],
			"stateMutability": "nonpayable",
			"type": "function"
		},
		{
			"inputs": [
				{
					"internalType": "bytes32",
					"name": "role",
					"type": "bytes32"
				},
				{
					"internalType": "address",
					"name": "account",
					"type": "address"
				}
			],
			"name": "renounceRole",
			"outputs": [],
			"stateMutability": "nonpayable",
			"type": "function"
		},
		{
			"inputs": [
				{
					"internalType": "bytes32",
					"name": "role",
					"type": "bytes32"
				},
				{
					"internalType": "address",
					"name": "account",
					"type": "address"
				}
			],
			"name": "revokeRole",
			"outputs": [],
			"stateMutability": "nonpayable",
			"type": "function"
		},
		{
			"inputs": [
				{
					"internalType": "address",
					"name": "from",
					"type": "address"
				},
				{
					"internalType": "address",
					"name": "to",
					"type": "address"
				},
				{
					"internalType": "uint256[]",
					"name": "ids",
					"type": "uint256[]"
				},
				{
					"internalType": "uint256[]",
					"name": "amounts",
					"type": "uint256[]"
				},
				{
					"internalType": "bytes",
					"name": "data",
					"type": "bytes"
				}
			],
			"name": "safeBatchTransferFrom",
			"outputs": [],
			"stateMutability": "nonpayable",
			"type": "function"
		},
		{
			"inputs": [
				{
					"internalType": "address",
					"name": "from",
					"type": "address"
				},
				{
					"internalType": "address",
					"name": "to",
					"type": "address"
				},
				{
					"internalType": "uint256",
					"name": "id",
					"type": "uint256"
				},
				{
					"internalType": "uint256",
					"name": "amount",
					"type": "uint256"
				},
				{
					"internalType": "bytes",
					"name": "data",
					"type": "bytes"
				}
			],
			"name": "safeTransferFrom",
			"outputs": [],
			"stateMutability": "nonpayable",
			"type": "function"
		},
		{
			"inputs": [
				{
					"internalType": "address",
					"name": "operator",
					"type": "address"
				},
				{
					"internalType": "bool",
					"name": "approved",
					"type": "bool"
				}
			],
			"name": "setApprovalForAll",
			"outputs": [],
			"stateMutability": "nonpayable",
			"type": "function"
		},
		{
			"inputs": [],
			"name": "settings",
			"outputs": [
				{
					"internalType": "address",
					"name": "feeToBeneficiary",
					"type": "address"
				},
				{
					"internalType": "uint256",
					"name": "mintFeeMultiplier",
					"type": "uint256"
				},
				{
					"internalType": "uint256",
					"name": "feeMinimum",
					"type": "uint256"
				},
				{
					"internalType": "uint256",
					"name": "feeMaximum",
					"type": "uint256"
				},
				{
					"internalType": "uint256",
					"name": "tvlMultiplierMinimum",
					"type": "uint256"
				},
				{
					"internalType": "uint256",
					"name": "tvlMultiplierMaximum",
					"type": "uint256"
				}
			],
			"stateMutability": "view",
			"type": "function"
		},
		{
			"inputs": [
				{
					"internalType": "address",
					"name": "token",
					"type": "address"
				}
			],
			"name": "skimPool",
			"outputs": [],
			"stateMutability": "nonpayable",
			"type": "function"
		},
		{
			"inputs": [
				{
					"internalType": "bytes4",
					"name": "interfaceId",
					"type": "bytes4"
				}
			],
			"name": "supportsInterface",
			"outputs": [
				{
					"internalType": "bool",
					"name": "",
					"type": "bool"
				}
			],
			"stateMutability": "view",
			"type": "function"
		},
		{
			"inputs": [
				{
					"internalType": "address",
					"name": "token",
					"type": "address"
				},
				{
					"internalType": "uint256",
					"name": "amountTokensOut",
					"type": "uint256"
				},
				{
					"internalType": "uint256",
					"name": "amountCerUsdOut",
					"type": "uint256"
				},
				{
					"internalType": "address",
					"name": "transferTo",
					"type": "address"
				}
			],
			"name": "swap",
			"outputs": [],
			"stateMutability": "payable",
			"type": "function"
		},
		{
			"inputs": [
				{
					"internalType": "address",
					"name": "tokenIn",
					"type": "address"
				},
				{
					"internalType": "address",
					"name": "tokenOut",
					"type": "address"
				},
				{
					"internalType": "uint256",
					"name": "amountTokensIn",
					"type": "uint256"
				},
				{
					"internalType": "uint256",
					"name": "minAmountTokensOut",
					"type": "uint256"
				},
				{
					"internalType": "uint256",
					"name": "expireTimestamp",
					"type": "uint256"
				},
				{
					"internalType": "address",
					"name": "transferTo",
					"type": "address"
				}
			],
			"name": "swapExactTokensForTokens",
			"outputs": [
				{
					"internalType": "uint256",
					"name": "",
					"type": "uint256"
				},
				{
					"internalType": "uint256",
					"name": "",
					"type": "uint256"
				}
			],
			"stateMutability": "payable",
			"type": "function"
		},
		{
			"inputs": [
				{
					"internalType": "address",
					"name": "tokenIn",
					"type": "address"
				},
				{
					"internalType": "address",
					"name": "tokenOut",
					"type": "address"
				},
				{
					"internalType": "uint256",
					"name": "amountTokensOut",
					"type": "uint256"
				},
				{
					"internalType": "uint256",
					"name": "maxAmountTokensIn",
					"type": "uint256"
				},
				{
					"internalType": "uint256",
					"name": "expireTimestamp",
					"type": "uint256"
				},
				{
					"internalType": "address",
					"name": "transferTo",
					"type": "address"
				}
			],
			"name": "swapTokensForExactTokens",
			"outputs": [
				{
					"internalType": "uint256",
					"name": "",
					"type": "uint256"
				},
				{
					"internalType": "uint256",
					"name": "",
					"type": "uint256"
				}
			],
			"stateMutability": "payable",
			"type": "function"
		},
		{
			"inputs": [],
			"name": "symbol",
			"outputs": [
				{
					"internalType": "string",
					"name": "",
					"type": "string"
				}
			],
			"stateMutability": "view",
			"type": "function"
		},
		{
			"inputs": [
				{
					"internalType": "address",
					"name": "token",
					"type": "address"
				}
			],
			"name": "syncTokenBalanceInPool",
			"outputs": [],
			"stateMutability": "nonpayable",
			"type": "function"
		},
		{
			"inputs": [],
			"name": "testInit",
			"outputs": [],
			"stateMutability": "nonpayable",
			"type": "function"
		},
		{
			"inputs": [
				{
					"internalType": "address",
					"name": "_testCerbyBotDetectionContract",
					"type": "address"
				},
				{
					"internalType": "address",
					"name": "_testCerbyToken",
					"type": "address"
				},
				{
					"internalType": "address",
					"name": "_cerUsdToken",
					"type": "address"
				},
				{
					"internalType": "address",
					"name": "_testUsdcToken",
					"type": "address"
				},
				{
					"internalType": "address",
					"name": "",
					"type": "address"
				}
			],
			"name": "testSetupTokens",
			"outputs": [],
			"stateMutability": "nonpayable",
			"type": "function"
		},
		{
			"inputs": [],
			"name": "totalSupply",
			"outputs": [
				{
					"internalType": "uint256",
					"name": "",
					"type": "uint256"
				}
			],
			"stateMutability": "view",
			"type": "function"
		},
		{
			"inputs": [
				{
					"internalType": "uint256",
					"name": "id",
					"type": "uint256"
				}
			],
			"name": "totalSupply",
			"outputs": [
				{
					"internalType": "uint256",
					"name": "",
					"type": "uint256"
				}
			],
			"stateMutability": "view",
			"type": "function"
		},
		{
			"inputs": [
				{
					"internalType": "uint256",
					"name": "id",
					"type": "uint256"
				}
			],
			"name": "uri",
			"outputs": [
				{
					"internalType": "string",
					"name": "",
					"type": "string"
				}
			],
			"stateMutability": "view",
			"type": "function"
		},
		{
			"stateMutability": "payable",
			"type": "receive"
		}
	]
}