{
	"data": {
		"bytecode": {
			"linkReferences": {},
			"object": "60c0604052600d60808190526c4365726279205377617020563160981b60a0908152620000309160069190620008ad565b5060408051808201909152600d8082526c43455242595f535741505f563160981b60209092019182526200006791600791620008ad565b50604051806060016040528060238152602001620060916023913980516200009891600891602090910190620008ad565b50601f80546001600160a01b0319908116732c4fe51d1ad5b88cd2cc2f45ad1c0c857f06225e1790915560208054821673f3b07f8167b665ba3e2dd29c661dee3a1da2380a179055602180548216732a5e269bf364e347942c464a999d8c8ac2e6ce941790556022805482167314769f96e57b80c66837701de0b43686fb4632de1790556023805490911661dead1790553480156200013657600080fd5b5060086040516020016200014b919062000a48565b60408051601f19818403018152919052620001668162000735565b50620001746000336200074e565b604080516102a08101825260016102608201818152604160f81b610280840152825282518084018452818152602160f91b6020828101919091528084019190915283518085018552828152604360f81b818301528385015283518085018552828152601160fa1b81830152606084015283518085018552828152604560f81b81830152608084015283518085018552828152602360f91b8183015260a084015283518085018552828152604760f81b8183015260c084015283518085018552828152600960fb1b8183015260e084015283518085018552828152606960f81b8183015261010084015283518085018552828152602560f91b8183015261012084015283518085018552828152604b60f81b8183015261014084015283518085018552828152601360fa1b8183015261016084015283518085018552828152604d60f81b8183015261018084015283518085018552828152602760f91b818301526101a084015283518085018552828152604f60f81b818301526101c084015283518085018552828152600560fc1b818301526101e084015283518085018552828152605160f81b8183015261020084015283518085018552828152602960f91b818301526102208401528351808501909452908352605360f81b83820152610240820192909252805180519192600992620003739284920190620008ad565b5060208281015180516200038e9260018501920190620008ad565b5060408201518051620003ac916002840191602090910190620008ad565b5060608201518051620003ca916003840191602090910190620008ad565b5060808201518051620003e8916004840191602090910190620008ad565b5060a0820151805162000406916005840191602090910190620008ad565b5060c0820151805162000424916006840191602090910190620008ad565b5060e0820151805162000442916007840191602090910190620008ad565b50610100820151805162000461916008840191602090910190620008ad565b50610120820151805162000480916009840191602090910190620008ad565b5061014082015180516200049f91600a840191602090910190620008ad565b506101608201518051620004be91600b840191602090910190620008ad565b506101808201518051620004dd91600c840191602090910190620008ad565b506101a08201518051620004fc91600d840191602090910190620008ad565b506101c082015180516200051b91600e840191602090910190620008ad565b506101e082015180516200053a91600f840191602090910190620008ad565b50610200820151805162000559916010840191602090910190620008ad565b50610220820151805162000578916011840191602090910190620008ad565b50610240820151805162000597916012840191602090910190620008ad565b5050602380546001600160a01b0319163317905550620005b66200093c565b6040805160a0810182526000808252602082018481529282018190526060820181905260808201819052601c8054600181018255915281517f0e4562a10381dec21b205ed72637e6b1b523bdd0e4d4d50af5cd23dd4500a211600490920291820180546001600160a01b0319166001600160a01b03909216919091178155925191929162000669917f0e4562a10381dec21b205ed72637e6b1b523bdd0e4d4d50af5cd23dd4500a212019060086200095b565b50604082015160028201805460608501516001600160701b03908116600160701b026001600160e01b03199092169381169390931717905560809092015160039091018054919092166001600160701b031991909116179055613039461415620006e757602280546001600160a01b03191661dead17905562000708565b46620181cd14156200070857602280546001600160a01b03191661dead1790555b50602280546001600160a01b0319167314769f96e57b80c66837701de0b43686fb4632de17905562000b06565b80516200074a906002906020840190620008ad565b5050565b6200074a82826200076b82826200079760201b620025391760201c565b600082815260056020908152604090912062000792918390620025bf6200083b821b17901c565b505050565b60008281526004602090815260408083206001600160a01b038516845290915290205460ff166200074a5760008281526004602090815260408083206001600160a01b03851684529091529020805460ff19166001179055620007f73390565b6001600160a01b0316816001600160a01b0316837f2f8788117e7eff1d82e926ec794901d17c78024a50270940304540a733656f0d60405160405180910390a45050565b600062000852836001600160a01b0384166200085b565b90505b92915050565b6000818152600183016020526040812054620008a45750815460018181018455600084815260208082209093018490558454848252828601909352604090209190915562000855565b50600062000855565b828054620008bb9062000a0b565b90600052602060002090601f016020900481019282620008df57600085556200092a565b82601f10620008fa57805160ff19168380011785556200092a565b828001600101855582156200092a579182015b828111156200092a5782518255916020019190600101906200090d565b5062000938929150620009f4565b5090565b6040518061010001604052806008906020820280368337509192915050565b6001830191839082156200092a5791602002820160005b83821115620009b857835183826101000a81548163ffffffff021916908363ffffffff160217905550926020019260040160208160030104928301926001030262000972565b8015620009ea5782816101000a81549063ffffffff0219169055600401602081600301049283019260010302620009b8565b5050620009389291505b5b80821115620009385760008155600101620009f5565b600181811c9082168062000a2057607f821691505b6020821081141562000a4257634e487b7160e01b600052602260045260246000fd5b50919050565b600080835481600182811c91508083168062000a6557607f831692505b602080841082141562000a8657634e487b7160e01b86526022600452602486fd5b81801562000a9d576001811462000aaf5762000ade565b60ff1986168952848901965062000ade565b60008a81526020902060005b8681101562000ad65781548b82015290850190830162000abb565b505084890196505b50505050505062000afe81683db4b23e973539b7b760b91b815260090190565b949350505050565b61557b8062000b166000396000f3fe6080604052600436106102755760003560e01c806391d148541161014f578063c790985a116100c1578063df465a1a1161007a578063df465a1a146107c2578063e985e9c5146107d7578063eca0109314610820578063f242432a14610840578063f3e6ea8a14610860578063f65247241461087357600080fd5b8063c790985a1461071a578063ca15c8731461073a578063d01350bd1461075a578063d391014b1461077a578063d547741f1461078f578063d5d60737146107af57600080fd5b8063a7fd40bf11610113578063a7fd40bf14610642578063b390c0ab14610662578063b771e42514610682578063bbadc03b146106b8578063bd85b039146106e5578063c09c923b1461071257600080fd5b806391d14854146105a557806395d89b41146105c55780639bc731fc146105da578063a22cb465146105fa578063a60c6e551461061a57600080fd5b80632f2ff15d116101e85780634e1273f4116101ac5780634e1273f4146104c95780634f558e79146104f65780637b4b233c146105255780637de25ae7146105455780639010d07c146105655780639162ebf01461058557600080fd5b80632f2ff15d14610435578063313ce5671461045557806336568abe146104695780633935ac111461048957806348b08d62146104a957600080fd5b806306fdde031161023a57806306fdde031461037b578063094811f71461039d5780630e89341c146103b057806318160ddd146103d0578063248a9ca3146103e55780632eb2c2d61461041557600080fd5b8062fdd58e1461028157806301ffc9a7146102b457806303ed957f146102e457806306edd7631461030657806306fb1a071461034357600080fd5b3661027c57005b600080fd5b34801561028d57600080fd5b506102a161029c3660046146b6565b610886565b6040519081526020015b60405180910390f35b3480156102c057600080fd5b506102d46102cf3660046146f8565b610920565b60405190151581526020016102ab565b3480156102f057600080fd5b506103046102ff366004614715565b610970565b005b34801561031257600080fd5b5061030461032136600461478a565b602380546001600160a01b0319166001600160a01b0392909216919091179055565b34801561034f57600080fd5b5061036361035e3660046147a7565b6109ed565b6040516001600160a01b0390911681526020016102ab565b34801561038757600080fd5b50610390610a64565b6040516102ab9190614818565b6103046103ab36600461482b565b610af6565b3480156103bc57600080fd5b506103906103cb3660046147a7565b610fbc565b3480156103dc57600080fd5b506102a1610fe8565b3480156103f157600080fd5b506102a16104003660046147a7565b60009081526004602052604090206001015490565b34801561042157600080fd5b506103046104303660046149ca565b611034565b34801561044157600080fd5b50610304610450366004614a78565b6110cb565b34801561046157600080fd5b5060126102a1565b34801561047557600080fd5b50610304610484366004614a78565b6110f6565b34801561049557600080fd5b506103046104a4366004614aa8565b611174565b3480156104b557600080fd5b506102a16104c4366004614b0c565b6111a7565b3480156104d557600080fd5b506104e96104e4366004614b4d565b611279565b6040516102ab9190614c4b565b34801561050257600080fd5b506102d46105113660046147a7565b600090815260036020526040902054151590565b34801561053157600080fd5b50602354610363906001600160a01b031681565b34801561055157600080fd5b506102a161056036600461482b565b6113a3565b34801561057157600080fd5b50610363610580366004614c5e565b61188f565b34801561059157600080fd5b506102a16105a036600461478a565b6118a7565b3480156105b157600080fd5b506102d46105c0366004614a78565b6118c9565b3480156105d157600080fd5b506103906118f4565b3480156105e657600080fd5b506103046105f536600461478a565b611903565b34801561060657600080fd5b50610304610615366004614c8e565b611adf565b61062d610628366004614cbc565b611aea565b604080519283526020830191909152016102ab565b34801561064e57600080fd5b5061030461065d366004614d23565b611cf3565b34801561066e57600080fd5b5061030461067d366004614c5e565b611d3a565b34801561068e57600080fd5b506102a161069d36600461478a565b6001600160a01b03166000908152601d602052604090205490565b3480156106c457600080fd5b506106d86106d336600461478a565b611d45565b6040516102ab9190614d58565b3480156106f157600080fd5b506102a16107003660046147a7565b60009081526003602052604090205490565b610304611e43565b34801561072657600080fd5b506102a1610735366004614b0c565b611e6e565b34801561074657600080fd5b506102a16107553660046147a7565b611f2e565b34801561076657600080fd5b506106d86107753660046147a7565b611f45565b34801561078657600080fd5b506102a1600081565b34801561079b57600080fd5b506103046107aa366004614a78565b611f60565b6103046107bd366004614dd5565b611f86565b3480156107ce57600080fd5b50601e546102a1565b3480156107e357600080fd5b506102d46107f2366004614e14565b6001600160a01b03918216600090815260016020908152604080832093909416825291909152205460ff1690565b34801561082c57600080fd5b5061030461083b366004614e42565b61224b565b34801561084c57600080fd5b5061030461085b366004614eb3565b6122c8565b61030461086e366004614dd5565b6122d5565b61062d610881366004614cbc565b6122e1565b60006001600160a01b0383166108f75760405162461bcd60e51b815260206004820152602b60248201527f455243313135353a2062616c616e636520717565727920666f7220746865207a60448201526a65726f206164647265737360a81b60648201526084015b60405180910390fd5b506000818152602081815260408083206001600160a01b03861684529091529020545b92915050565b60006001600160e01b03198216636cdb3d1360e11b148061095157506001600160e01b031982166303a24d0760e21b145b8061091a57506301ffc9a760e01b6001600160e01b031983161461091a565b600061097c81336125d4565b60005b828110156109e7576109d584848381811061099c5761099c614f1c565b905060400201600001358585848181106109b8576109b8614f1c565b90506040020160200160208101906109d0919061478a565b612638565b806109df81614f48565b91505061097f565b50505050565b6040516306fb1a0760e01b81526004810182905260009073def1fac7bf08f173d286bbbdcbeeade695129840906306fb1a0790602401602060405180830381865afa158015610a40573d6000803e3d6000fd5b505050506040513d601f19601f8201168201806040525081019061091a9190614f63565b606060068054610a7390614f80565b80601f0160208091040260200160405190810160405280929190818152602001828054610a9f90614f80565b8015610aec5780601f10610ac157610100808354040283529160200191610aec565b820191906000526020600020905b815481529060010190602001808311610acf57829003601f168201915b5050505050905090565b6001600160a01b0383166000908152601d6020526040902054839015801590610b2d57506020546001600160a01b03828116911614155b600b90610b4d5760405162461bcd60e51b81526004016108ee9190614fb5565b506001600160a01b0384166000908152601d6020526040902054610b72858786612642565b6000610b7d866126d5565b9050601c8281548110610b9257610b92614f1c565b6000918252602090912060026004909202010154610bb9906001600160701b03168261503a565b9450600e85610bdb5760405162461bcd60e51b81526004016108ee9190614fb5565b50602054600090610bf4906001600160a01b03166126d5565b90506000601e5482610c06919061503a565b9050600081601c8681548110610c1e57610c1e614f1c565b6000918252602090912060026004909202010154601c80546001600160701b039092169188908110610c5257610c52614f1c565b6000918252602090912060049091020160020154610c8090600160701b90046001600160701b03168b615051565b610c8a9190615086565b610c94919061503a565b90506000601c8681548110610cab57610cab614f1c565b60009182526020822060036004909202010154601c80546001600160701b039092169350610d509189908110610ce357610ce3614f1c565b9060005260206000209060040201600201600e9054906101000a90046001600160701b03166001600160701b0316601c8981548110610d2457610d24614f1c565b6000918252602090912060026004909202010154610d4b91906001600160701b0316615051565b61275d565b905084601e8190555080601c8881548110610d6d57610d6d614f1c565b906000526020600020906004020160030160006101000a8154816001600160701b0302191690836001600160701b0316021790555085601c8881548110610db657610db6614f1c565b6000918252602090912060049091020160020180546001600160701b0319166001600160701b0392909216919091179055610df1838561509a565b601c8881548110610e0457610e04614f1c565b9060005260206000209060040201600201600e9054906101000a90046001600160701b0316610e3391906150b2565b601c8881548110610e4657610e46614f1c565b60009182526020918290206004918202016002018054600160701b600160e01b031916600160701b6001600160701b0395909516949094029390931790925554604051630bb9ff5d60e01b81523092810192909252602482018590526001600160a01b031690630bb9ff5d90604401600060405180830381600087803b158015610ecf57600080fd5b505af1158015610ee3573d6000803e3d6000fd5b505050600088815260036020526040812054601c8054919350908a908110610f0d57610f0d614f1c565b60009182526020909120600260049092020101546001600160701b0316610f34838e615051565b610f3e9190615086565b9050610f5b8b8a83604051806020016040528060008152506127b6565b6000610f7a856001600160701b0316856001600160701b0316856128c6565b90508015610fab57602354604080516020810190915260008152610fab916001600160a01b0316908c9084906127b6565b505050505050505050505050505050565b6060600882604051602001610fd29291906150dd565b6040516020818303038152906040529050919050565b60008060005b6000600381610ffc85614f48565b945084815260200190815260200160002054111561091a5760008281526003602052604090205461102d908261509a565b9050610fee565b6001600160a01b038516331480611050575061105085336107f2565b6110b75760405162461bcd60e51b815260206004820152603260248201527f455243313135353a207472616e736665722063616c6c6572206973206e6f74206044820152711bdddb995c881b9bdc88185c1c1c9bdd995960721b60648201526084016108ee565b6110c48585858585612918565b5050505050565b6000828152600460205260409020600101546110e781336125d4565b6110f18383612b03565b505050565b6001600160a01b03811633146111665760405162461bcd60e51b815260206004820152602f60248201527f416363657373436f6e74726f6c3a2063616e206f6e6c792072656e6f756e636560448201526e103937b632b9903337b91039b2b63360891b60648201526084016108ee565b6111708282612b25565b5050565b600061118081336125d4565b8251611193906006906020860190614515565b5081516109e7906007906020850190614515565b6020546000906001600160a01b038581169116148015906111d557506020546001600160a01b038481169116145b156111eb576111e48483612b47565b9050611272565b6020546001600160a01b03858116911614801561121657506020546001600160a01b03848116911614155b15611225576111e48383612c43565b6020546001600160a01b0385811691161480159061125157506020546001600160a01b03858116911614155b156112725760006112628584612b47565b905061126e8482612c43565b9150505b9392505050565b606081518351146112de5760405162461bcd60e51b815260206004820152602960248201527f455243313135353a206163636f756e747320616e6420696473206c656e677468604482015268040dad2e6dac2e8c6d60bb1b60648201526084016108ee565b6000835167ffffffffffffffff8111156112fa576112fa61487e565b604051908082528060200260200182016040528015611323578160200160208202803683370190505b50905060005b845181101561139b5761136e85828151811061134757611347614f1c565b602002602001015185838151811061136157611361614f1c565b6020026020010151610886565b82828151811061138057611380614f1c565b602090810291909101015261139481614f48565b9050611329565b509392505050565b6001600160a01b0383166000908152601d60205260408120548490158015906113da57506020546001600160a01b03828116911614155b600b906113fa5760405162461bcd60e51b81526004016108ee9190614fb5565b506001600160a01b038086166000908152601d6020526040902054908716301461143a5761143a87308388604051806020016040528060008152506122c8565b6000611445876126d5565b90506000601c838154811061145c5761145c614f1c565b6000918252602090912060026004909202010154611483906001600160701b03168361503a565b601e546020549192506000916114a1906001600160a01b03166126d5565b6114ab919061503a565b600085815260036020526040812054601c8054939450909283918c91899081106114d7576114d7614f1c565b60009182526020909120600260049092020101546114fe91906001600160701b0316615051565b6115089190615086565b90506000828b601c898154811061152157611521614f1c565b600091825260209091206004909102016002015461154f9190600160701b90046001600160701b0316615051565b6115599190615086565b90506000601c888154811061157057611570614f1c565b60009182526020822060036004909202010154601c80546001600160701b0390921693506115e9918b9081106115a8576115a8614f1c565b9060005260206000209060040201600201600e9054906101000a90046001600160701b03166001600160701b0316601c8b81548110610d2457610d24614f1c565b90508286601e546115fa919061509a565b611604919061503a565b601e8190555080601c8a8154811061161e5761161e614f1c565b906000526020600020906004020160030160006101000a8154816001600160701b0302191690836001600160701b031602179055508387601c8b8154811061166857611668614f1c565b600091825260209091206002600490920201015461168f91906001600160701b03166150b2565b6116999190615162565b601c8a815481106116ac576116ac614f1c565b906000526020600020906004020160020160006101000a8154816001600160701b0302191690836001600160701b031602179055508286601c8b815481106116f6576116f6614f1c565b9060005260206000209060040201600201600e9054906101000a90046001600160701b031661172591906150b2565b61172f9190615162565b601c8a8154811061174257611742614f1c565b9060005260206000209060040201600201600e6101000a8154816001600160701b0302191690836001600160701b03160217905550611781898e611d3a565b6020546040516318a8ad8760e01b8152306004820152602481018590526001600160a01b03909116906318a8ad8790604401600060405180830381600087803b1580156117cd57600080fd5b505af11580156117e1573d6000803e3d6000fd5b505050506000611804836001600160701b0316836001600160701b0316886128c6565b9050801561183557602354604080516020810190915260008152611835916001600160a01b0316908c9084906127b6565b5050506118438c8b84612d35565b600061184e8d6126d5565b90508661185b848361509a565b600d911461187c5760405162461bcd60e51b81526004016108ee9190614fb5565b50919d9c50505050505050505050505050565b60008281526005602052604081206112729083612d70565b6001600160a01b0381166000908152601d602052604081205461091a90612d7c565b60009182526004602090815260408084206001600160a01b0393909316845291905290205460ff1690565b606060078054610a7390614f80565b6001600160a01b0381166000908152601d602052604090205481901580159061193a57506020546001600160a01b03828116911614155b600b9061195a5760405162461bcd60e51b81526004016108ee9190614fb5565b506001600160a01b0382166000908152601d602052604090205461197d836126d5565b601c828154811061199057611990614f1c565b6000918252602080832060049290920290910160020180546001600160701b0319166001600160701b03949094169390931790925590546119d9906001600160a01b03166126d5565b9050601e548111611a395780601e546119f2919061503a565b601c8381548110611a0557611a05614f1c565b9060005260206000209060040201600201600e9054906101000a90046001600160701b0316611a349190615162565b611a88565b601e54611a46908261503a565b601c8381548110611a5957611a59614f1c565b9060005260206000209060040201600201600e9054906101000a90046001600160701b0316611a8891906150b2565b601c8381548110611a9b57611a9b614f1c565b6000918252602090912060026004909202010180546001600160701b0392909216600160701b02600160701b600160e01b0319909216919091179055601e55505050565b611170338383612f36565b60008083600c42821015611b115760405162461bcd60e51b81526004016108ee9190614fb5565b50601787611b325760405162461bcd60e51b81526004016108ee9190614fb5565b5060205433906000906001600160a01b038c8116911614801590611b6357506020546001600160a01b038b81169116145b15611bb557611b728b8a612b47565b9050601088821015611b975760405162461bcd60e51b81526004016108ee9190614fb5565b50611ba38b838b612642565b611bb08b60008389613017565b611ce2565b6020546001600160a01b038c81169116148015611be057506020546001600160a01b038b8116911614155b15611c2d57611bef8a8a612c43565b9050601188821015611c145760405162461bcd60e51b81526004016108ee9190614fb5565b50611c208b838b612642565b611bb08a82600089613017565b6020546001600160a01b038c8116911614801590611c5957506020546001600160a01b038c8116911614155b15611cc7576000611c6a8c8b612b47565b9050611c768b82612c43565b9150601189831015611c9b5760405162461bcd60e51b81526004016108ee9190614fb5565b50611ca78c848c612642565b611cb48c60008330613017565b611cc18b8360008a613017565b50611ce2565b60405162461bcd60e51b81526108ee90601490600401614fb5565b979a97995096975050505050505050565b6000611cff81336125d4565b611d2782604051602001611d13919061518a565b604051602081830303815290604052613670565b81516110f1906008906020850190614515565b611170338383613683565b611d4d614599565b6001600160a01b0382166000908152601d6020526040902054601c80549091908110611d7b57611d7b614f1c565b60009182526020918290206040805160a081018252600490930290910180546001600160a01b031683528151610100810190925291928301906001830160088282826020028201916000905b82829054906101000a900463ffffffff1663ffffffff1681526020019060040190602082600301049283019260010382029150808411611dc75750505092845250505060028201546001600160701b038082166020840152600160701b9091048116604083015260039092015490911660609091015292915050565b602254611e6c906001600160a01b0316662386f26fc1000069152d02c7e14af680000033611f86565b565b6020546000906001600160a01b03858116911614801590611e9c57506020546001600160a01b038481169116145b15611eab576111e484836137fc565b6020546001600160a01b038581169116148015611ed657506020546001600160a01b03848116911614155b15611ee5576111e483836138ed565b6020546001600160a01b03858116911614801590611f1157506020546001600160a01b03848116911614155b15611272576000611f2284846138ed565b905061126e85826137fc565b600081815260056020526040812061091a906139df565b611f4d614599565b601c8281548110611d7b57611d7b614f1c565b600082815260046020526040902060010154611f7c81336125d4565b6110f18383612b25565b6001600160a01b0384166000908152601d60205260409020548490158015611fbc57506020546001600160a01b03828116911614155b600a90611fdc5760405162461bcd60e51b81526004016108ee9190614fb5565b50601c54611feb863387612642565b602054604051630bb9ff5d60e01b8152306004820152602481018690526001600160a01b0390911690630bb9ff5d90604401600060405180830381600087803b15801561203757600080fd5b505af115801561204b573d6000803e3d6000fd5b50505050612058866126d5565b9450600e8561207a5760405162461bcd60e51b81526004016108ee9190614fb5565b50600061208a610d4b8688615051565b90506120946145d7565b6040805160a0810182526001600160a01b038a81168252602082018481526001600160701b038b81169484019490945289841660608401529285166080830152601c805460018101825560009190915282517f0e4562a10381dec21b205ed72637e6b1b523bdd0e4d4d50af5cd23dd4500a211600490920291820180546001600160a01b03191691909316178255925191928392612156917f0e4562a10381dec21b205ed72637e6b1b523bdd0e4d4d50af5cd23dd4500a212019060086145f6565b5060408281015160028301805460608601516001600160701b03908116600160701b026001600160e01b03199092169381169390931717905560809093015160039092018054929093166001600160701b031992909216919091179091556001600160a01b038a166000908152601d602052908120859055601e80548992906121e090849061509a565b9250508190555061220661dead856103e8604051806020016040528060008152506127b6565b60006103e8612218610d4b8a8c615051565b612222919061503a565b905061223f878683604051806020016040528060008152506127b6565b50505050505050505050565b601f80546001600160a01b038087166001600160a01b031992831681179093556020805487831690841617905560218054918616919092161790556122a69069d3c21bcecceda10000006969e10de76676d080000033611f86565b6021546110c4906001600160a01b031669943b1377290cbd8000008033611f86565b6110c485858585856139e9565b6109e784848484613017565b60008083600c428210156123085760405162461bcd60e51b81526004016108ee9190614fb5565b5060205433906000906001600160a01b038c811691161480159061233957506020546001600160a01b038b81169116145b156123af576123488b8a6137fc565b905060138882111561236d5760405162461bcd60e51b81526004016108ee9190614fb5565b506017600182116123915760405162461bcd60e51b81526004016108ee9190614fb5565b5061239d8b8383612642565b6123aa8b60008b89613017565b612529565b6020546001600160a01b038c811691161480156123da57506020546001600160a01b038b8116911614155b1561244b576123e98a8a6138ed565b905060128882111561240e5760405162461bcd60e51b81526004016108ee9190614fb5565b506017600182116124325760405162461bcd60e51b81526004016108ee9190614fb5565b5061243e8b8383612642565b6123aa8a8a600089613017565b6020546001600160a01b038c811691161480159061247757506020546001600160a01b038b8116911614155b15611cc75760006124888b8b6138ed565b90506017600182116124ad5760405162461bcd60e51b81526004016108ee9190614fb5565b506124b88c826137fc565b91506013898311156124dd5760405162461bcd60e51b81526004016108ee9190614fb5565b506017600183116125015760405162461bcd60e51b81526004016108ee9190614fb5565b5061250d8c8484612642565b61251a8c60008330613017565b6125278b8b60008a613017565b505b9a97995096975050505050505050565b61254382826118c9565b6111705760008281526004602090815260408083206001600160a01b03851684529091529020805460ff1916600117905561257b3390565b6001600160a01b0316816001600160a01b0316837f2f8788117e7eff1d82e926ec794901d17c78024a50270940304540a733656f0d60405160405180910390a45050565b6000611272836001600160a01b038416613b06565b6125de82826118c9565b611170576125f6816001600160a01b03166014613b55565b612601836020613b55565b6040516020016126129291906151b7565b60408051601f198184030181529082905262461bcd60e51b82526108ee91600401614818565b6111708282612b03565b6022546001600160a01b0384811691161480159061266957506001600160a01b0382163014155b1561269c57600f341561268f5760405162461bcd60e51b81526004016108ee9190614fb5565b506110f183833084613cf1565b6022546001600160a01b03848116911614156110f157600f348211156109e75760405162461bcd60e51b81526004016108ee9190614fb5565b6022546000906001600160a01b03838116911614156126f5575047919050565b6040516370a0823160e01b81523060048201526001600160a01b038316906370a0823190602401602060405180830381865afa158015612739573d6000803e3d6000fd5b505050506040513d601f19601f8201168201806040525081019061091a919061522c565b600080600261276d84600161509a565b6127779190615086565b90508291505b818110156127b0579050806002816127958186615086565b61279f919061509a565b6127a99190615086565b905061277d565b50919050565b6001600160a01b0384166128165760405162461bcd60e51b815260206004820152602160248201527f455243313135353a206d696e7420746f20746865207a65726f206164647265736044820152607360f81b60648201526084016108ee565b336128368160008761282788613de1565b61283088613de1565b87613e2c565b6000848152602081815260408083206001600160a01b03891684529091528120805485929061286690849061509a565b909155505060408051858152602081018590526001600160a01b0380881692600092918516917fc3d58168c5ae7397731d063d5bbf3d657854427343f4c083240f7aacaa2d0f62910160405180910390a46110c481600087878787613f38565b600083831180156128d75750600084115b1561127257836128e8846005615051565b6128f2919061509a565b6128fc858561503a565b6129069084615051565b6129109190615086565b949350505050565b815183511461297a5760405162461bcd60e51b815260206004820152602860248201527f455243313135353a2069647320616e6420616d6f756e7473206c656e677468206044820152670dad2e6dac2e8c6d60c31b60648201526084016108ee565b6001600160a01b0384166129a05760405162461bcd60e51b81526004016108ee90615245565b336129af818787878787613e2c565b60005b8451811015612a955760008582815181106129cf576129cf614f1c565b6020026020010151905060008583815181106129ed576129ed614f1c565b602090810291909101810151600084815280835260408082206001600160a01b038e168352909352919091205490915081811015612a3d5760405162461bcd60e51b81526004016108ee9061528a565b6000838152602081815260408083206001600160a01b038e8116855292528083208585039055908b16825281208054849290612a7a90849061509a565b9250508190555050505080612a8e90614f48565b90506129b2565b50846001600160a01b0316866001600160a01b0316826001600160a01b03167f4a39dc06d4c0dbc64b70af90fd698a233a518aa5d07e595d983b8c0526c8f7fb8787604051612ae59291906152d4565b60405180910390a4612afb818787878787614094565b505050505050565b612b0d8282612539565b60008281526005602052604090206110f190826125bf565b612b2f828261414f565b60008281526005602052604090206110f190826141b6565b6001600160a01b0382166000908152601d6020526040812054839015801590612b7e57506020546001600160a01b03828116911614155b600b90612b9e5760405162461bcd60e51b81526004016108ee9190614fb5565b506001600160a01b0384166000908152601d6020526040902054601c8054612c3891869184908110612bd257612bd2614f1c565b6000918252602090912060026004909202010154601c80546001600160701b039092169185908110612c0657612c06614f1c565b6000918252602090912060049091020160020154600160701b90046001600160701b0316612c3385612d7c565b6141cb565b9250505b5092915050565b6001600160a01b0382166000908152601d6020526040812054839015801590612c7a57506020546001600160a01b03828116911614155b600b90612c9a5760405162461bcd60e51b81526004016108ee9190614fb5565b506001600160a01b0384166000908152601d6020526040902054601c8054612c3891869184908110612cce57612cce614f1c565b9060005260206000209060040201600201600e9054906101000a90046001600160701b03166001600160701b0316601c8481548110612d0f57612d0f614f1c565b60009182526020909120600260049092020101546001600160701b0316612c3385612d7c565b6001600160a01b03821630146110f1576022546001600160a01b0384811691161415612d65576110f18282614212565b6110f18383836142a4565b6000611272838361438c565b600080612d876143b6565b905060006008612d9883600161509a565b612da291906152f9565b90506000805b6008811015612e3f5783811480612dbe57508281145b15612dc857612e2d565b601c8681548110612ddb57612ddb614f1c565b90600052602060002090600402016001018160088110612dfd57612dfd614f1c565b600891828204019190066004029054906101000a900463ffffffff1663ffffffff1682612e2a919061509a565b91505b80612e3781614f48565b915050612da8565b506000612e5482670de0b6b3a7640000615051565b612e60906103e8615051565b90506000601c8781548110612e7757612e77614f1c565b9060005260206000209060040201600201600e9054906101000a90046001600160701b03166002612ea8919061530d565b612eb390609661530d565b6001600160701b03169050808211612ecf576126ac9550612f2c565b8181108015612ee75750612ee4816064615051565b82105b15612f145780612ef7818461503a565b612f019190615086565b612f0d906126ac61509a565b9550612f2c565b612f1f816064615051565b821115612f2c5761270f95505b5050505050919050565b816001600160a01b0316836001600160a01b03161415612faa5760405162461bcd60e51b815260206004820152602960248201527f455243313135353a2073657474696e6720617070726f76616c20737461747573604482015268103337b91039b2b63360b91b60648201526084016108ee565b6001600160a01b03838116600081815260016020908152604080832094871680845294825291829020805460ff191686151590811790915591519182527f17307eab39ab6107e8899845ad3d59bd9653f200f220920489ca2b5937696c31910160405180910390a3505050565b6001600160a01b0384166000908152601d602052604090205484901580159061304e57506020546001600160a01b03828116911614155b600b9061306e5760405162461bcd60e51b81526004016108ee9190614fb5565b506001600160a01b038086166000908152601d602090815260408220549054909261309991166126d5565b90506000601e54826130ab919061503a565b905060006130b8896126d5565b90506000601c85815481106130cf576130cf614f1c565b60009182526020909120600260049092020101546130f6906001600160701b03168361503a565b90506000613104848361509a565b601791106131255760405162461bcd60e51b81526004016108ee9190614fb5565b50600061313186612d7c565b90506000612710601c888154811061314b5761314b614f1c565b906000526020600020906004020160020160009054906101000a90046001600160701b03166001600160701b0316612710601c8a8154811061318f5761318f614f1c565b60009182526020909120600490910201600201546131bd9190600160701b90046001600160701b0316615051565b6131c79190615051565b6131d19190615051565b905060008a86601e546131e4919061509a565b6131ee919061503a565b905060008b87601c8b8154811061320757613207614f1c565b60009182526020909120600490910201600201546132359190600160701b90046001600160701b031661509a565b61323f919061503a565b905060008d86601c8c8154811061325857613258614f1c565b600091825260209091206002600490920201015461327f91906001600160701b031661509a565b613289919061503a565b905060006132998661271061503a565b6132a39088615051565b6132af61271084615051565b6132b9919061503a565b6132c58761271061503a565b6132cf908b615051565b6132db61271086615051565b6132e5919061503a565b6132ef9190615051565b90506018858210156133145760405162461bcd60e51b81526004016108ee9190614fb5565b5083601e8190555082601c8c8154811061333057613330614f1c565b9060005260206000209060040201600201600e6101000a8154816001600160701b0302191690836001600160701b0316021790555081601c8c8154811061337957613379614f1c565b906000526020600020906004020160020160006101000a8154816001600160701b0302191690836001600160701b0316021790555050505050505060006133be6143b6565b9050600060086133cc6143b6565b6133d790600161509a565b6133e191906152f9565b9050670de0b6b3a7640000858b0104601c888154811061340357613403614f1c565b9060005260206000209060040201600101836008811061342557613425614f1c565b600891828204019190066004028282829054906101000a900463ffffffff160192506101000a81548163ffffffff021916908363ffffffff1602179055506000601c888154811061347857613478614f1c565b9060005260206000209060040201600101826008811061349a5761349a614f1c565b600891828204019190066004029054906101000a900463ffffffff1663ffffffff161115613523576000601c88815481106134d7576134d7614f1c565b906000526020600020906004020160010182600881106134f9576134f9614f1c565b600891828204019190066004026101000a81548163ffffffff021916908363ffffffff1602179055505b8a15613596576135348c8a8d612d35565b600061353f8d6126d5565b9050601c888154811061355457613554614f1c565b6000918252602090912060026004909202010154600d906001600160701b031682146135935760405162461bcd60e51b81526004016108ee9190614fb5565b50505b8915613662576020546135b3906001600160a01b03168a8c612d35565b6022546001600160a01b038d8116911614156136625760006135d48d6126d5565b9050601c88815481106135e9576135e9614f1c565b60009182526020909120600260049092020101546001600160701b031681111561366057602254601c8054613660926001600160a01b03169133918c90811061363457613634614f1c565b600091825260209091206002600490920201015461365b906001600160701b03168561503a565b612d35565b505b505050505050505050505050565b8051611170906002906020840190614515565b6001600160a01b0383166136e55760405162461bcd60e51b815260206004820152602360248201527f455243313135353a206275726e2066726f6d20746865207a65726f206164647260448201526265737360e81b60648201526084016108ee565b33613714818560006136f687613de1565b6136ff87613de1565b60405180602001604052806000815250613e2c565b6000838152602081815260408083206001600160a01b0388168452909152902054828110156137915760405162461bcd60e51b8152602060048201526024808201527f455243313135353a206275726e20616d6f756e7420657863656564732062616c604482015263616e636560e01b60648201526084016108ee565b6000848152602081815260408083206001600160a01b03898116808652918452828520888703905582518981529384018890529092908616917fc3d58168c5ae7397731d063d5bbf3d657854427343f4c083240f7aacaa2d0f62910160405180910390a45050505050565b6001600160a01b0382166000908152601d602052604081205483901580159061383357506020546001600160a01b03828116911614155b600b906138535760405162461bcd60e51b81526004016108ee9190614fb5565b506001600160a01b0384166000908152601d6020526040902054601c8054612c389186918490811061388757613887614f1c565b6000918252602090912060026004909202010154601c80546001600160701b0390921691859081106138bb576138bb614f1c565b6000918252602090912060049091020160020154600160701b90046001600160701b03166138e885612d7c565b6143d5565b6001600160a01b0382166000908152601d602052604081205483901580159061392457506020546001600160a01b03828116911614155b600b906139445760405162461bcd60e51b81526004016108ee9190614fb5565b506001600160a01b0384166000908152601d6020526040902054601c8054612c389186918490811061397857613978614f1c565b9060005260206000209060040201600201600e9054906101000a90046001600160701b03166001600160701b0316601c84815481106139b9576139b9614f1c565b60009182526020909120600260049092020101546001600160701b03166138e885612d7c565b600061091a825490565b6001600160a01b038416613a0f5760405162461bcd60e51b81526004016108ee90615245565b33613a1f81878761282788613de1565b6000848152602081815260408083206001600160a01b038a16845290915290205483811015613a605760405162461bcd60e51b81526004016108ee9061528a565b6000858152602081815260408083206001600160a01b038b8116855292528083208785039055908816825281208054869290613a9d90849061509a565b909155505060408051868152602081018690526001600160a01b03808916928a821692918616917fc3d58168c5ae7397731d063d5bbf3d657854427343f4c083240f7aacaa2d0f62910160405180910390a4613afd828888888888613f38565b50505050505050565b6000818152600183016020526040812054613b4d5750815460018181018455600084815260208082209093018490558454848252828601909352604090209190915561091a565b50600061091a565b60606000613b64836002615051565b613b6f90600261509a565b67ffffffffffffffff811115613b8757613b8761487e565b6040519080825280601f01601f191660200182016040528015613bb1576020820181803683370190505b509050600360fc1b81600081518110613bcc57613bcc614f1c565b60200101906001600160f81b031916908160001a905350600f60fb1b81600181518110613bfb57613bfb614f1c565b60200101906001600160f81b031916908160001a9053506000613c1f846002615051565b613c2a90600161509a565b90505b6001811115613ca2576f181899199a1a9b1b9c1cb0b131b232b360811b85600f1660108110613c5e57613c5e614f1c565b1a60f81b828281518110613c7457613c74614f1c565b60200101906001600160f81b031916908160001a90535060049490941c93613c9b8161533c565b9050613c2d565b5083156112725760405162461bcd60e51b815260206004820181905260248201527f537472696e67733a20686578206c656e67746820696e73756666696369656e7460448201526064016108ee565b604080516001600160a01b0385811660248301528481166044830152606480830185905283518084039091018152608490920183526020820180516001600160e01b03166323b872dd60e01b1790529151600092839290881691613d559190615353565b6000604051808303816000865af19150503d8060008114613d92576040519150601f19603f3d011682016040523d82523d6000602084013e613d97565b606091505b5091509150818015613dc1575080511580613dc1575080806020019051810190613dc1919061536f565b601b90613afd5760405162461bcd60e51b81526004016108ee9190614fb5565b60408051600180825281830190925260609160009190602080830190803683370190505090508281600081518110613e1b57613e1b614f1c565b602090810291909101015292915050565b6001600160a01b038516613eb35760005b8351811015613eb157828181518110613e5857613e58614f1c565b602002602001015160036000868481518110613e7657613e76614f1c565b602002602001015181526020019081526020016000206000828254613e9b919061509a565b90915550613eaa905081614f48565b9050613e3d565b505b6001600160a01b038416612afb5760005b8351811015613afd57828181518110613edf57613edf614f1c565b602002602001015160036000868481518110613efd57613efd614f1c565b602002602001015181526020019081526020016000206000828254613f22919061503a565b90915550613f31905081614f48565b9050613ec4565b6001600160a01b0384163b15612afb5760405163f23a6e6160e01b81526001600160a01b0385169063f23a6e6190613f7c908990899088908890889060040161538c565b6020604051808303816000875af1925050508015613fb7575060408051601f3d908101601f19168201909252613fb4918101906153c6565b60015b61406457613fc36153e3565b806308c379a01415613ffd5750613fd86153ff565b80613fe35750613fff565b8060405162461bcd60e51b81526004016108ee9190614818565b505b60405162461bcd60e51b815260206004820152603460248201527f455243313135353a207472616e7366657220746f206e6f6e20455243313135356044820152732932b1b2b4bb32b91034b6b83632b6b2b73a32b960611b60648201526084016108ee565b6001600160e01b0319811663f23a6e6160e01b14613afd5760405162461bcd60e51b81526004016108ee90615489565b6001600160a01b0384163b15612afb5760405163bc197c8160e01b81526001600160a01b0385169063bc197c81906140d890899089908890889088906004016154d1565b6020604051808303816000875af1925050508015614113575060408051601f3d908101601f19168201909252614110918101906153c6565b60015b61411f57613fc36153e3565b6001600160e01b0319811663bc197c8160e01b14613afd5760405162461bcd60e51b81526004016108ee90615489565b61415982826118c9565b156111705760008281526004602090815260408083206001600160a01b0385168085529252808320805460ff1916905551339285917ff6391f5c32d9c69d2a47ea670b442974b53935d1edc7fd64eb21e047a839171b9190a45050565b6000611272836001600160a01b038416614422565b6000806141d88387615051565b90506000816141e961271088615051565b6141f3919061509a565b6141fd8387615051565b6142079190615086565b979650505050505050565b604080516000808252602082019092526001600160a01b03841690839060405161423c9190615353565b60006040518083038185875af1925050503d8060008114614279576040519150601f19603f3d011682016040523d82523d6000602084013e61427e565b606091505b5090915060199050816109e75760405162461bcd60e51b81526004016108ee9190614fb5565b604080516001600160a01b038481166024830152604480830185905283518084039091018152606490920183526020820180516001600160e01b031663a9059cbb60e01b17905291516000928392908716916143009190615353565b6000604051808303816000865af19150503d806000811461433d576040519150601f19603f3d011682016040523d82523d6000602084013e614342565b606091505b509150915081801561436c57508051158061436c57508080602001905181019061436c919061536f565b601a90612afb5760405162461bcd60e51b81526004016108ee9190614fb5565b60008260000182815481106143a3576143a3614f1c565b9060005260206000200154905092915050565b600060086143c661384042615086565b6143d091906152f9565b905090565b6000806143e2868561503a565b6143ec9084615051565b6127106143f98888615051565b6144039190615051565b61440d9190615086565b61441890600161509a565b9695505050505050565b6000818152600183016020526040812054801561450b57600061444660018361503a565b855490915060009061445a9060019061503a565b90508181146144bf57600086600001828154811061447a5761447a614f1c565b906000526020600020015490508087600001848154811061449d5761449d614f1c565b6000918252602080832090910192909255918252600188019052604090208390555b85548690806144d0576144d061552f565b60019003818190600052602060002001600090559055856001016000868152602001908152602001600020600090556001935050505061091a565b600091505061091a565b82805461452190614f80565b90600052602060002090601f0160209004810192826145435760008555614589565b82601f1061455c57805160ff1916838001178555614589565b82800160010185558215614589579182015b8281111561458957825182559160200191906001019061456e565b50614595929150614689565b5090565b6040518060a0016040528060006001600160a01b031681526020016145bc6145d7565b81526000602082018190526040820181905260609091015290565b6040518061010001604052806008906020820280368337509192915050565b6001830191839082156145895791602002820160005b8382111561465057835183826101000a81548163ffffffff021916908363ffffffff160217905550926020019260040160208160030104928301926001030261460c565b80156146805782816101000a81549063ffffffff0219169055600401602081600301049283019260010302614650565b50506145959291505b5b80821115614595576000815560010161468a565b6001600160a01b03811681146146b357600080fd5b50565b600080604083850312156146c957600080fd5b82356146d48161469e565b946020939093013593505050565b6001600160e01b0319811681146146b357600080fd5b60006020828403121561470a57600080fd5b8135611272816146e2565b6000806020838503121561472857600080fd5b823567ffffffffffffffff8082111561474057600080fd5b818501915085601f83011261475457600080fd5b81358181111561476357600080fd5b8660208260061b850101111561477857600080fd5b60209290920196919550909350505050565b60006020828403121561479c57600080fd5b81356112728161469e565b6000602082840312156147b957600080fd5b5035919050565b60005b838110156147db5781810151838201526020016147c3565b838111156109e75750506000910152565b600081518084526148048160208601602086016147c0565b601f01601f19169290920160200192915050565b60208152600061127260208301846147ec565b6000806000806080858703121561484157600080fd5b843561484c8161469e565b9350602085013561485c8161469e565b92506040850135915060608501356148738161469e565b939692955090935050565b634e487b7160e01b600052604160045260246000fd5b601f8201601f1916810167ffffffffffffffff811182821017156148ba576148ba61487e565b6040525050565b600067ffffffffffffffff8211156148db576148db61487e565b5060051b60200190565b600082601f8301126148f657600080fd5b81356020614903826148c1565b6040516149108282614894565b83815260059390931b850182019282810191508684111561493057600080fd5b8286015b8481101561494b5780358352918301918301614934565b509695505050505050565b600082601f83011261496757600080fd5b813567ffffffffffffffff8111156149815761498161487e565b604051614998601f8301601f191660200182614894565b8181528460208386010111156149ad57600080fd5b816020850160208301376000918101602001919091529392505050565b600080600080600060a086880312156149e257600080fd5b85356149ed8161469e565b945060208601356149fd8161469e565b9350604086013567ffffffffffffffff80821115614a1a57600080fd5b614a2689838a016148e5565b94506060880135915080821115614a3c57600080fd5b614a4889838a016148e5565b93506080880135915080821115614a5e57600080fd5b50614a6b88828901614956565b9150509295509295909350565b60008060408385031215614a8b57600080fd5b823591506020830135614a9d8161469e565b809150509250929050565b60008060408385031215614abb57600080fd5b823567ffffffffffffffff80821115614ad357600080fd5b614adf86838701614956565b93506020850135915080821115614af557600080fd5b50614b0285828601614956565b9150509250929050565b600080600060608486031215614b2157600080fd5b8335614b2c8161469e565b92506020840135614b3c8161469e565b929592945050506040919091013590565b60008060408385031215614b6057600080fd5b823567ffffffffffffffff80821115614b7857600080fd5b818501915085601f830112614b8c57600080fd5b81356020614b99826148c1565b604051614ba68282614894565b83815260059390931b8501820192828101915089841115614bc657600080fd5b948201945b83861015614bed578535614bde8161469e565b82529482019490820190614bcb565b96505086013592505080821115614c0357600080fd5b50614b02858286016148e5565b600081518084526020808501945080840160005b83811015614c4057815187529582019590820190600101614c24565b509495945050505050565b6020815260006112726020830184614c10565b60008060408385031215614c7157600080fd5b50508035926020909101359150565b80151581146146b357600080fd5b60008060408385031215614ca157600080fd5b8235614cac8161469e565b91506020830135614a9d81614c80565b60008060008060008060c08789031215614cd557600080fd5b8635614ce08161469e565b95506020870135614cf08161469e565b945060408701359350606087013592506080870135915060a0870135614d158161469e565b809150509295509295509295565b600060208284031215614d3557600080fd5b813567ffffffffffffffff811115614d4c57600080fd5b61291084828501614956565b81516001600160a01b031681526020808301516101808301919081840160005b6008811015614d9b57825163ffffffff1682529183019190830190600101614d78565b5050505060408301516001600160701b03908116610120840152606084015181166101408401526080840151908116610160840152612c3c565b60008060008060808587031215614deb57600080fd5b8435614df68161469e565b9350602085013592506040850135915060608501356148738161469e565b60008060408385031215614e2757600080fd5b8235614e328161469e565b91506020830135614a9d8161469e565b600080600080600060a08688031215614e5a57600080fd5b8535614e658161469e565b94506020860135614e758161469e565b93506040860135614e858161469e565b92506060860135614e958161469e565b91506080860135614ea58161469e565b809150509295509295909350565b600080600080600060a08688031215614ecb57600080fd5b8535614ed68161469e565b94506020860135614ee68161469e565b93506040860135925060608601359150608086013567ffffffffffffffff811115614f1057600080fd5b614a6b88828901614956565b634e487b7160e01b600052603260045260246000fd5b634e487b7160e01b600052601160045260246000fd5b6000600019821415614f5c57614f5c614f32565b5060010190565b600060208284031215614f7557600080fd5b81516112728161469e565b600181811c90821680614f9457607f821691505b602082108114156127b057634e487b7160e01b600052602260045260246000fd5b6000602080835260008454614fc981614f80565b80848701526040600180841660008114614fea5760018114614ffe5761502c565b60ff1985168984015260608901955061502c565b896000528660002060005b858110156150245781548b8201860152908301908801615009565b8a0184019650505b509398975050505050505050565b60008282101561504c5761504c614f32565b500390565b600081600019048311821515161561506b5761506b614f32565b500290565b634e487b7160e01b600052601260045260246000fd5b60008261509557615095615070565b500490565b600082198211156150ad576150ad614f32565b500190565b60006001600160701b038083168185168083038211156150d4576150d4614f32565b01949350505050565b60008084546150eb81614f80565b60018281168015615103576001811461511457615143565b60ff19841687528287019450615143565b8860005260208060002060005b8581101561513a5781548a820152908401908201615121565b50505082870194505b50505093815264173539b7b760d91b6020820152602501949350505050565b60006001600160701b038381169083168181101561518257615182614f32565b039392505050565b6000825161519c8184602087016147c0565b683db4b23e973539b7b760b91b920191825250600901919050565b7f416363657373436f6e74726f6c3a206163636f756e74200000000000000000008152600083516151ef8160178501602088016147c0565b7001034b99036b4b9b9b4b733903937b6329607d1b60179184019182015283516152208160288401602088016147c0565b01602801949350505050565b60006020828403121561523e57600080fd5b5051919050565b60208082526025908201527f455243313135353a207472616e7366657220746f20746865207a65726f206164604082015264647265737360d81b606082015260800190565b6020808252602a908201527f455243313135353a20696e73756666696369656e742062616c616e636520666f60408201526939103a3930b739b332b960b11b606082015260800190565b6040815260006152e76040830185614c10565b828103602084015261126e8185614c10565b60008261530857615308615070565b500690565b60006001600160701b038083168185168183048111821515161561533357615333614f32565b02949350505050565b60008161534b5761534b614f32565b506000190190565b600082516153658184602087016147c0565b9190910192915050565b60006020828403121561538157600080fd5b815161127281614c80565b6001600160a01b03868116825285166020820152604081018490526060810183905260a060808201819052600090614207908301846147ec565b6000602082840312156153d857600080fd5b8151611272816146e2565b600060033d11156153fc5760046000803e5060005160e01c5b90565b600060443d101561540d5790565b6040516003193d81016004833e81513d67ffffffffffffffff816024840111818411171561543d57505050505090565b82850191508151818111156154555750505050505090565b843d870101602082850101111561546f5750505050505090565b61547e60208286010187614894565b509095945050505050565b60208082526028908201527f455243313135353a204552433131353552656365697665722072656a656374656040820152676420746f6b656e7360c01b606082015260800190565b6001600160a01b0386811682528516602082015260a0604082018190526000906154fd90830186614c10565b828103606084015261550f8186614c10565b9050828103608084015261552381856147ec565b98975050505050505050565b634e487b7160e01b600052603160045260246000fdfea264697066735822122009229793bac12cb585fcf95d065675304d1afc16b551bac49ac3ebf25e6e239f64736f6c634300080b003368747470733a2f2f646174612e63657262792e66692f4365726279537761702f76312f",
			"opcodes": "PUSH1 0xC0 PUSH1 0x40 MSTORE PUSH1 0xD PUSH1 0x80 DUP2 SWAP1 MSTORE PUSH13 0x43657262792053776170205631 PUSH1 0x98 SHL PUSH1 0xA0 SWAP1 DUP2 MSTORE PUSH3 0x30 SWAP2 PUSH1 0x6 SWAP2 SWAP1 PUSH3 0x8AD JUMP JUMPDEST POP PUSH1 0x40 DUP1 MLOAD DUP1 DUP3 ADD SWAP1 SWAP2 MSTORE PUSH1 0xD DUP1 DUP3 MSTORE PUSH13 0x43455242595F535741505F5631 PUSH1 0x98 SHL PUSH1 0x20 SWAP1 SWAP3 ADD SWAP2 DUP3 MSTORE PUSH3 0x67 SWAP2 PUSH1 0x7 SWAP2 PUSH3 0x8AD JUMP JUMPDEST POP PUSH1 0x40 MLOAD DUP1 PUSH1 0x60 ADD PUSH1 0x40 MSTORE DUP1 PUSH1 0x23 DUP2 MSTORE PUSH1 0x20 ADD PUSH3 0x6091 PUSH1 0x23 SWAP2 CODECOPY DUP1 MLOAD PUSH3 0x98 SWAP2 PUSH1 0x8 SWAP2 PUSH1 0x20 SWAP1 SWAP2 ADD SWAP1 PUSH3 0x8AD JUMP JUMPDEST POP PUSH1 0x1F DUP1 SLOAD PUSH1 0x1 PUSH1 0x1 PUSH1 0xA0 SHL SUB NOT SWAP1 DUP2 AND PUSH20 0x2C4FE51D1AD5B88CD2CC2F45AD1C0C857F06225E OR SWAP1 SWAP2 SSTORE PUSH1 0x20 DUP1 SLOAD DUP3 AND PUSH20 0xF3B07F8167B665BA3E2DD29C661DEE3A1DA2380A OR SWAP1 SSTORE PUSH1 0x21 DUP1 SLOAD DUP3 AND PUSH20 0x2A5E269BF364E347942C464A999D8C8AC2E6CE94 OR SWAP1 SSTORE PUSH1 0x22 DUP1 SLOAD DUP3 AND PUSH20 0x14769F96E57B80C66837701DE0B43686FB4632DE OR SWAP1 SSTORE PUSH1 0x23 DUP1 SLOAD SWAP1 SWAP2 AND PUSH2 0xDEAD OR SWAP1 SSTORE CALLVALUE DUP1 ISZERO PUSH3 0x136 JUMPI PUSH1 0x0 DUP1 REVERT JUMPDEST POP PUSH1 0x8 PUSH1 0x40 MLOAD PUSH1 0x20 ADD PUSH3 0x14B SWAP2 SWAP1 PUSH3 0xA48 JUMP JUMPDEST PUSH1 0x40 DUP1 MLOAD PUSH1 0x1F NOT DUP2 DUP5 SUB ADD DUP2 MSTORE SWAP2 SWAP1 MSTORE PUSH3 0x166 DUP2 PUSH3 0x735 JUMP JUMPDEST POP PUSH3 0x174 PUSH1 0x0 CALLER PUSH3 0x74E JUMP JUMPDEST PUSH1 0x40 DUP1 MLOAD PUSH2 0x2A0 DUP2 ADD DUP3 MSTORE PUSH1 0x1 PUSH2 0x260 DUP3 ADD DUP2 DUP2 MSTORE PUSH1 0x41 PUSH1 0xF8 SHL PUSH2 0x280 DUP5 ADD MSTORE DUP3 MSTORE DUP3 MLOAD DUP1 DUP5 ADD DUP5 MSTORE DUP2 DUP2 MSTORE PUSH1 0x21 PUSH1 0xF9 SHL PUSH1 0x20 DUP3 DUP2 ADD SWAP2 SWAP1 SWAP2 MSTORE DUP1 DUP5 ADD SWAP2 SWAP1 SWAP2 MSTORE DUP4 MLOAD DUP1 DUP6 ADD DUP6 MSTORE DUP3 DUP2 MSTORE PUSH1 0x43 PUSH1 0xF8 SHL DUP2 DUP4 ADD MSTORE DUP4 DUP6 ADD MSTORE DUP4 MLOAD DUP1 DUP6 ADD DUP6 MSTORE DUP3 DUP2 MSTORE PUSH1 0x11 PUSH1 0xFA SHL DUP2 DUP4 ADD MSTORE PUSH1 0x60 DUP5 ADD MSTORE DUP4 MLOAD DUP1 DUP6 ADD DUP6 MSTORE DUP3 DUP2 MSTORE PUSH1 0x45 PUSH1 0xF8 SHL DUP2 DUP4 ADD MSTORE PUSH1 0x80 DUP5 ADD MSTORE DUP4 MLOAD DUP1 DUP6 ADD DUP6 MSTORE DUP3 DUP2 MSTORE PUSH1 0x23 PUSH1 0xF9 SHL DUP2 DUP4 ADD MSTORE PUSH1 0xA0 DUP5 ADD MSTORE DUP4 MLOAD DUP1 DUP6 ADD DUP6 MSTORE DUP3 DUP2 MSTORE PUSH1 0x47 PUSH1 0xF8 SHL DUP2 DUP4 ADD MSTORE PUSH1 0xC0 DUP5 ADD MSTORE DUP4 MLOAD DUP1 DUP6 ADD DUP6 MSTORE DUP3 DUP2 MSTORE PUSH1 0x9 PUSH1 0xFB SHL DUP2 DUP4 ADD MSTORE PUSH1 0xE0 DUP5 ADD MSTORE DUP4 MLOAD DUP1 DUP6 ADD DUP6 MSTORE DUP3 DUP2 MSTORE PUSH1 0x69 PUSH1 0xF8 SHL DUP2 DUP4 ADD MSTORE PUSH2 0x100 DUP5 ADD MSTORE DUP4 MLOAD DUP1 DUP6 ADD DUP6 MSTORE DUP3 DUP2 MSTORE PUSH1 0x25 PUSH1 0xF9 SHL DUP2 DUP4 ADD MSTORE PUSH2 0x120 DUP5 ADD MSTORE DUP4 MLOAD DUP1 DUP6 ADD DUP6 MSTORE DUP3 DUP2 MSTORE PUSH1 0x4B PUSH1 0xF8 SHL DUP2 DUP4 ADD MSTORE PUSH2 0x140 DUP5 ADD MSTORE DUP4 MLOAD DUP1 DUP6 ADD DUP6 MSTORE DUP3 DUP2 MSTORE PUSH1 0x13 PUSH1 0xFA SHL DUP2 DUP4 ADD MSTORE PUSH2 0x160 DUP5 ADD MSTORE DUP4 MLOAD DUP1 DUP6 ADD DUP6 MSTORE DUP3 DUP2 MSTORE PUSH1 0x4D PUSH1 0xF8 SHL DUP2 DUP4 ADD MSTORE PUSH2 0x180 DUP5 ADD MSTORE DUP4 MLOAD DUP1 DUP6 ADD DUP6 MSTORE DUP3 DUP2 MSTORE PUSH1 0x27 PUSH1 0xF9 SHL DUP2 DUP4 ADD MSTORE PUSH2 0x1A0 DUP5 ADD MSTORE DUP4 MLOAD DUP1 DUP6 ADD DUP6 MSTORE DUP3 DUP2 MSTORE PUSH1 0x4F PUSH1 0xF8 SHL DUP2 DUP4 ADD MSTORE PUSH2 0x1C0 DUP5 ADD MSTORE DUP4 MLOAD DUP1 DUP6 ADD DUP6 MSTORE DUP3 DUP2 MSTORE PUSH1 0x5 PUSH1 0xFC SHL DUP2 DUP4 ADD MSTORE PUSH2 0x1E0 DUP5 ADD MSTORE DUP4 MLOAD DUP1 DUP6 ADD DUP6 MSTORE DUP3 DUP2 MSTORE PUSH1 0x51 PUSH1 0xF8 SHL DUP2 DUP4 ADD MSTORE PUSH2 0x200 DUP5 ADD MSTORE DUP4 MLOAD DUP1 DUP6 ADD DUP6 MSTORE DUP3 DUP2 MSTORE PUSH1 0x29 PUSH1 0xF9 SHL DUP2 DUP4 ADD MSTORE PUSH2 0x220 DUP5 ADD MSTORE DUP4 MLOAD DUP1 DUP6 ADD SWAP1 SWAP5 MSTORE SWAP1 DUP4 MSTORE PUSH1 0x53 PUSH1 0xF8 SHL DUP4 DUP3 ADD MSTORE PUSH2 0x240 DUP3 ADD SWAP3 SWAP1 SWAP3 MSTORE DUP1 MLOAD DUP1 MLOAD SWAP2 SWAP3 PUSH1 0x9 SWAP3 PUSH3 0x373 SWAP3 DUP5 SWAP3 ADD SWAP1 PUSH3 0x8AD JUMP JUMPDEST POP PUSH1 0x20 DUP3 DUP2 ADD MLOAD DUP1 MLOAD PUSH3 0x38E SWAP3 PUSH1 0x1 DUP6 ADD SWAP3 ADD SWAP1 PUSH3 0x8AD JUMP JUMPDEST POP PUSH1 0x40 DUP3 ADD MLOAD DUP1 MLOAD PUSH3 0x3AC SWAP2 PUSH1 0x2 DUP5 ADD SWAP2 PUSH1 0x20 SWAP1 SWAP2 ADD SWAP1 PUSH3 0x8AD JUMP JUMPDEST POP PUSH1 0x60 DUP3 ADD MLOAD DUP1 MLOAD PUSH3 0x3CA SWAP2 PUSH1 0x3 DUP5 ADD SWAP2 PUSH1 0x20 SWAP1 SWAP2 ADD SWAP1 PUSH3 0x8AD JUMP JUMPDEST POP PUSH1 0x80 DUP3 ADD MLOAD DUP1 MLOAD PUSH3 0x3E8 SWAP2 PUSH1 0x4 DUP5 ADD SWAP2 PUSH1 0x20 SWAP1 SWAP2 ADD SWAP1 PUSH3 0x8AD JUMP JUMPDEST POP PUSH1 0xA0 DUP3 ADD MLOAD DUP1 MLOAD PUSH3 0x406 SWAP2 PUSH1 0x5 DUP5 ADD SWAP2 PUSH1 0x20 SWAP1 SWAP2 ADD SWAP1 PUSH3 0x8AD JUMP JUMPDEST POP PUSH1 0xC0 DUP3 ADD MLOAD DUP1 MLOAD PUSH3 0x424 SWAP2 PUSH1 0x6 DUP5 ADD SWAP2 PUSH1 0x20 SWAP1 SWAP2 ADD SWAP1 PUSH3 0x8AD JUMP JUMPDEST POP PUSH1 0xE0 DUP3 ADD MLOAD DUP1 MLOAD PUSH3 0x442 SWAP2 PUSH1 0x7 DUP5 ADD SWAP2 PUSH1 0x20 SWAP1 SWAP2 ADD SWAP1 PUSH3 0x8AD JUMP JUMPDEST POP PUSH2 0x100 DUP3 ADD MLOAD DUP1 MLOAD PUSH3 0x461 SWAP2 PUSH1 0x8 DUP5 ADD SWAP2 PUSH1 0x20 SWAP1 SWAP2 ADD SWAP1 PUSH3 0x8AD JUMP JUMPDEST POP PUSH2 0x120 DUP3 ADD MLOAD DUP1 MLOAD PUSH3 0x480 SWAP2 PUSH1 0x9 DUP5 ADD SWAP2 PUSH1 0x20 SWAP1 SWAP2 ADD SWAP1 PUSH3 0x8AD JUMP JUMPDEST POP PUSH2 0x140 DUP3 ADD MLOAD DUP1 MLOAD PUSH3 0x49F SWAP2 PUSH1 0xA DUP5 ADD SWAP2 PUSH1 0x20 SWAP1 SWAP2 ADD SWAP1 PUSH3 0x8AD JUMP JUMPDEST POP PUSH2 0x160 DUP3 ADD MLOAD DUP1 MLOAD PUSH3 0x4BE SWAP2 PUSH1 0xB DUP5 ADD SWAP2 PUSH1 0x20 SWAP1 SWAP2 ADD SWAP1 PUSH3 0x8AD JUMP JUMPDEST POP PUSH2 0x180 DUP3 ADD MLOAD DUP1 MLOAD PUSH3 0x4DD SWAP2 PUSH1 0xC DUP5 ADD SWAP2 PUSH1 0x20 SWAP1 SWAP2 ADD SWAP1 PUSH3 0x8AD JUMP JUMPDEST POP PUSH2 0x1A0 DUP3 ADD MLOAD DUP1 MLOAD PUSH3 0x4FC SWAP2 PUSH1 0xD DUP5 ADD SWAP2 PUSH1 0x20 SWAP1 SWAP2 ADD SWAP1 PUSH3 0x8AD JUMP JUMPDEST POP PUSH2 0x1C0 DUP3 ADD MLOAD DUP1 MLOAD PUSH3 0x51B SWAP2 PUSH1 0xE DUP5 ADD SWAP2 PUSH1 0x20 SWAP1 SWAP2 ADD SWAP1 PUSH3 0x8AD JUMP JUMPDEST POP PUSH2 0x1E0 DUP3 ADD MLOAD DUP1 MLOAD PUSH3 0x53A SWAP2 PUSH1 0xF DUP5 ADD SWAP2 PUSH1 0x20 SWAP1 SWAP2 ADD SWAP1 PUSH3 0x8AD JUMP JUMPDEST POP PUSH2 0x200 DUP3 ADD MLOAD DUP1 MLOAD PUSH3 0x559 SWAP2 PUSH1 0x10 DUP5 ADD SWAP2 PUSH1 0x20 SWAP1 SWAP2 ADD SWAP1 PUSH3 0x8AD JUMP JUMPDEST POP PUSH2 0x220 DUP3 ADD MLOAD DUP1 MLOAD PUSH3 0x578 SWAP2 PUSH1 0x11 DUP5 ADD SWAP2 PUSH1 0x20 SWAP1 SWAP2 ADD SWAP1 PUSH3 0x8AD JUMP JUMPDEST POP PUSH2 0x240 DUP3 ADD MLOAD DUP1 MLOAD PUSH3 0x597 SWAP2 PUSH1 0x12 DUP5 ADD SWAP2 PUSH1 0x20 SWAP1 SWAP2 ADD SWAP1 PUSH3 0x8AD JUMP JUMPDEST POP POP PUSH1 0x23 DUP1 SLOAD PUSH1 0x1 PUSH1 0x1 PUSH1 0xA0 SHL SUB NOT AND CALLER OR SWAP1 SSTORE POP PUSH3 0x5B6 PUSH3 0x93C JUMP JUMPDEST PUSH1 0x40 DUP1 MLOAD PUSH1 0xA0 DUP2 ADD DUP3 MSTORE PUSH1 0x0 DUP1 DUP3 MSTORE PUSH1 0x20 DUP3 ADD DUP5 DUP2 MSTORE SWAP3 DUP3 ADD DUP2 SWAP1 MSTORE PUSH1 0x60 DUP3 ADD DUP2 SWAP1 MSTORE PUSH1 0x80 DUP3 ADD DUP2 SWAP1 MSTORE PUSH1 0x1C DUP1 SLOAD PUSH1 0x1 DUP2 ADD DUP3 SSTORE SWAP2 MSTORE DUP2 MLOAD PUSH32 0xE4562A10381DEC21B205ED72637E6B1B523BDD0E4D4D50AF5CD23DD4500A211 PUSH1 0x4 SWAP1 SWAP3 MUL SWAP2 DUP3 ADD DUP1 SLOAD PUSH1 0x1 PUSH1 0x1 PUSH1 0xA0 SHL SUB NOT AND PUSH1 0x1 PUSH1 0x1 PUSH1 0xA0 SHL SUB SWAP1 SWAP3 AND SWAP2 SWAP1 SWAP2 OR DUP2 SSTORE SWAP3 MLOAD SWAP2 SWAP3 SWAP2 PUSH3 0x669 SWAP2 PUSH32 0xE4562A10381DEC21B205ED72637E6B1B523BDD0E4D4D50AF5CD23DD4500A212 ADD SWAP1 PUSH1 0x8 PUSH3 0x95B JUMP JUMPDEST POP PUSH1 0x40 DUP3 ADD MLOAD PUSH1 0x2 DUP3 ADD DUP1 SLOAD PUSH1 0x60 DUP6 ADD MLOAD PUSH1 0x1 PUSH1 0x1 PUSH1 0x70 SHL SUB SWAP1 DUP2 AND PUSH1 0x1 PUSH1 0x70 SHL MUL PUSH1 0x1 PUSH1 0x1 PUSH1 0xE0 SHL SUB NOT SWAP1 SWAP3 AND SWAP4 DUP2 AND SWAP4 SWAP1 SWAP4 OR OR SWAP1 SSTORE PUSH1 0x80 SWAP1 SWAP3 ADD MLOAD PUSH1 0x3 SWAP1 SWAP2 ADD DUP1 SLOAD SWAP2 SWAP1 SWAP3 AND PUSH1 0x1 PUSH1 0x1 PUSH1 0x70 SHL SUB NOT SWAP2 SWAP1 SWAP2 AND OR SWAP1 SSTORE PUSH2 0x3039 CHAINID EQ ISZERO PUSH3 0x6E7 JUMPI PUSH1 0x22 DUP1 SLOAD PUSH1 0x1 PUSH1 0x1 PUSH1 0xA0 SHL SUB NOT AND PUSH2 0xDEAD OR SWAP1 SSTORE PUSH3 0x708 JUMP JUMPDEST CHAINID PUSH3 0x181CD EQ ISZERO PUSH3 0x708 JUMPI PUSH1 0x22 DUP1 SLOAD PUSH1 0x1 PUSH1 0x1 PUSH1 0xA0 SHL SUB NOT AND PUSH2 0xDEAD OR SWAP1 SSTORE JUMPDEST POP PUSH1 0x22 DUP1 SLOAD PUSH1 0x1 PUSH1 0x1 PUSH1 0xA0 SHL SUB NOT AND PUSH20 0x14769F96E57B80C66837701DE0B43686FB4632DE OR SWAP1 SSTORE PUSH3 0xB06 JUMP JUMPDEST DUP1 MLOAD PUSH3 0x74A SWAP1 PUSH1 0x2 SWAP1 PUSH1 0x20 DUP5 ADD SWAP1 PUSH3 0x8AD JUMP JUMPDEST POP POP JUMP JUMPDEST PUSH3 0x74A DUP3 DUP3 PUSH3 0x76B DUP3 DUP3 PUSH3 0x797 PUSH1 0x20 SHL PUSH3 0x2539 OR PUSH1 0x20 SHR JUMP JUMPDEST PUSH1 0x0 DUP3 DUP2 MSTORE PUSH1 0x5 PUSH1 0x20 SWAP1 DUP2 MSTORE PUSH1 0x40 SWAP1 SWAP2 KECCAK256 PUSH3 0x792 SWAP2 DUP4 SWAP1 PUSH3 0x25BF PUSH3 0x83B DUP3 SHL OR SWAP1 SHR JUMP JUMPDEST POP POP POP JUMP JUMPDEST PUSH1 0x0 DUP3 DUP2 MSTORE PUSH1 0x4 PUSH1 0x20 SWAP1 DUP2 MSTORE PUSH1 0x40 DUP1 DUP4 KECCAK256 PUSH1 0x1 PUSH1 0x1 PUSH1 0xA0 SHL SUB DUP6 AND DUP5 MSTORE SWAP1 SWAP2 MSTORE SWAP1 KECCAK256 SLOAD PUSH1 0xFF AND PUSH3 0x74A JUMPI PUSH1 0x0 DUP3 DUP2 MSTORE PUSH1 0x4 PUSH1 0x20 SWAP1 DUP2 MSTORE PUSH1 0x40 DUP1 DUP4 KECCAK256 PUSH1 0x1 PUSH1 0x1 PUSH1 0xA0 SHL SUB DUP6 AND DUP5 MSTORE SWAP1 SWAP2 MSTORE SWAP1 KECCAK256 DUP1 SLOAD PUSH1 0xFF NOT AND PUSH1 0x1 OR SWAP1 SSTORE PUSH3 0x7F7 CALLER SWAP1 JUMP JUMPDEST PUSH1 0x1 PUSH1 0x1 PUSH1 0xA0 SHL SUB AND DUP2 PUSH1 0x1 PUSH1 0x1 PUSH1 0xA0 SHL SUB AND DUP4 PUSH32 0x2F8788117E7EFF1D82E926EC794901D17C78024A50270940304540A733656F0D PUSH1 0x40 MLOAD PUSH1 0x40 MLOAD DUP1 SWAP2 SUB SWAP1 LOG4 POP POP JUMP JUMPDEST PUSH1 0x0 PUSH3 0x852 DUP4 PUSH1 0x1 PUSH1 0x1 PUSH1 0xA0 SHL SUB DUP5 AND PUSH3 0x85B JUMP JUMPDEST SWAP1 POP JUMPDEST SWAP3 SWAP2 POP POP JUMP JUMPDEST PUSH1 0x0 DUP2 DUP2 MSTORE PUSH1 0x1 DUP4 ADD PUSH1 0x20 MSTORE PUSH1 0x40 DUP2 KECCAK256 SLOAD PUSH3 0x8A4 JUMPI POP DUP2 SLOAD PUSH1 0x1 DUP2 DUP2 ADD DUP5 SSTORE PUSH1 0x0 DUP5 DUP2 MSTORE PUSH1 0x20 DUP1 DUP3 KECCAK256 SWAP1 SWAP4 ADD DUP5 SWAP1 SSTORE DUP5 SLOAD DUP5 DUP3 MSTORE DUP3 DUP7 ADD SWAP1 SWAP4 MSTORE PUSH1 0x40 SWAP1 KECCAK256 SWAP2 SWAP1 SWAP2 SSTORE PUSH3 0x855 JUMP JUMPDEST POP PUSH1 0x0 PUSH3 0x855 JUMP JUMPDEST DUP3 DUP1 SLOAD PUSH3 0x8BB SWAP1 PUSH3 0xA0B JUMP JUMPDEST SWAP1 PUSH1 0x0 MSTORE PUSH1 0x20 PUSH1 0x0 KECCAK256 SWAP1 PUSH1 0x1F ADD PUSH1 0x20 SWAP1 DIV DUP2 ADD SWAP3 DUP3 PUSH3 0x8DF JUMPI PUSH1 0x0 DUP6 SSTORE PUSH3 0x92A JUMP JUMPDEST DUP3 PUSH1 0x1F LT PUSH3 0x8FA JUMPI DUP1 MLOAD PUSH1 0xFF NOT AND DUP4 DUP1 ADD OR DUP6 SSTORE PUSH3 0x92A JUMP JUMPDEST DUP3 DUP1 ADD PUSH1 0x1 ADD DUP6 SSTORE DUP3 ISZERO PUSH3 0x92A JUMPI SWAP2 DUP3 ADD JUMPDEST DUP3 DUP2 GT ISZERO PUSH3 0x92A JUMPI DUP3 MLOAD DUP3 SSTORE SWAP2 PUSH1 0x20 ADD SWAP2 SWAP1 PUSH1 0x1 ADD SWAP1 PUSH3 0x90D JUMP JUMPDEST POP PUSH3 0x938 SWAP3 SWAP2 POP PUSH3 0x9F4 JUMP JUMPDEST POP SWAP1 JUMP JUMPDEST PUSH1 0x40 MLOAD DUP1 PUSH2 0x100 ADD PUSH1 0x40 MSTORE DUP1 PUSH1 0x8 SWAP1 PUSH1 0x20 DUP3 MUL DUP1 CALLDATASIZE DUP4 CALLDATACOPY POP SWAP2 SWAP3 SWAP2 POP POP JUMP JUMPDEST PUSH1 0x1 DUP4 ADD SWAP2 DUP4 SWAP1 DUP3 ISZERO PUSH3 0x92A JUMPI SWAP2 PUSH1 0x20 MUL DUP3 ADD PUSH1 0x0 JUMPDEST DUP4 DUP3 GT ISZERO PUSH3 0x9B8 JUMPI DUP4 MLOAD DUP4 DUP3 PUSH2 0x100 EXP DUP2 SLOAD DUP2 PUSH4 0xFFFFFFFF MUL NOT AND SWAP1 DUP4 PUSH4 0xFFFFFFFF AND MUL OR SWAP1 SSTORE POP SWAP3 PUSH1 0x20 ADD SWAP3 PUSH1 0x4 ADD PUSH1 0x20 DUP2 PUSH1 0x3 ADD DIV SWAP3 DUP4 ADD SWAP3 PUSH1 0x1 SUB MUL PUSH3 0x972 JUMP JUMPDEST DUP1 ISZERO PUSH3 0x9EA JUMPI DUP3 DUP2 PUSH2 0x100 EXP DUP2 SLOAD SWAP1 PUSH4 0xFFFFFFFF MUL NOT AND SWAP1 SSTORE PUSH1 0x4 ADD PUSH1 0x20 DUP2 PUSH1 0x3 ADD DIV SWAP3 DUP4 ADD SWAP3 PUSH1 0x1 SUB MUL PUSH3 0x9B8 JUMP JUMPDEST POP POP PUSH3 0x938 SWAP3 SWAP2 POP JUMPDEST JUMPDEST DUP1 DUP3 GT ISZERO PUSH3 0x938 JUMPI PUSH1 0x0 DUP2 SSTORE PUSH1 0x1 ADD PUSH3 0x9F5 JUMP JUMPDEST PUSH1 0x1 DUP2 DUP2 SHR SWAP1 DUP3 AND DUP1 PUSH3 0xA20 JUMPI PUSH1 0x7F DUP3 AND SWAP2 POP JUMPDEST PUSH1 0x20 DUP3 LT DUP2 EQ ISZERO PUSH3 0xA42 JUMPI PUSH4 0x4E487B71 PUSH1 0xE0 SHL PUSH1 0x0 MSTORE PUSH1 0x22 PUSH1 0x4 MSTORE PUSH1 0x24 PUSH1 0x0 REVERT JUMPDEST POP SWAP2 SWAP1 POP JUMP JUMPDEST PUSH1 0x0 DUP1 DUP4 SLOAD DUP2 PUSH1 0x1 DUP3 DUP2 SHR SWAP2 POP DUP1 DUP4 AND DUP1 PUSH3 0xA65 JUMPI PUSH1 0x7F DUP4 AND SWAP3 POP JUMPDEST PUSH1 0x20 DUP1 DUP5 LT DUP3 EQ ISZERO PUSH3 0xA86 JUMPI PUSH4 0x4E487B71 PUSH1 0xE0 SHL DUP7 MSTORE PUSH1 0x22 PUSH1 0x4 MSTORE PUSH1 0x24 DUP7 REVERT JUMPDEST DUP2 DUP1 ISZERO PUSH3 0xA9D JUMPI PUSH1 0x1 DUP2 EQ PUSH3 0xAAF JUMPI PUSH3 0xADE JUMP JUMPDEST PUSH1 0xFF NOT DUP7 AND DUP10 MSTORE DUP5 DUP10 ADD SWAP7 POP PUSH3 0xADE JUMP JUMPDEST PUSH1 0x0 DUP11 DUP2 MSTORE PUSH1 0x20 SWAP1 KECCAK256 PUSH1 0x0 JUMPDEST DUP7 DUP2 LT ISZERO PUSH3 0xAD6 JUMPI DUP2 SLOAD DUP12 DUP3 ADD MSTORE SWAP1 DUP6 ADD SWAP1 DUP4 ADD PUSH3 0xABB JUMP JUMPDEST POP POP DUP5 DUP10 ADD SWAP7 POP JUMPDEST POP POP POP POP POP POP PUSH3 0xAFE DUP2 PUSH9 0x3DB4B23E973539B7B7 PUSH1 0xB9 SHL DUP2 MSTORE PUSH1 0x9 ADD SWAP1 JUMP JUMPDEST SWAP5 SWAP4 POP POP POP POP JUMP JUMPDEST PUSH2 0x557B DUP1 PUSH3 0xB16 PUSH1 0x0 CODECOPY PUSH1 0x0 RETURN INVALID PUSH1 0x80 PUSH1 0x40 MSTORE PUSH1 0x4 CALLDATASIZE LT PUSH2 0x275 JUMPI PUSH1 0x0 CALLDATALOAD PUSH1 0xE0 SHR DUP1 PUSH4 0x91D14854 GT PUSH2 0x14F JUMPI DUP1 PUSH4 0xC790985A GT PUSH2 0xC1 JUMPI DUP1 PUSH4 0xDF465A1A GT PUSH2 0x7A JUMPI DUP1 PUSH4 0xDF465A1A EQ PUSH2 0x7C2 JUMPI DUP1 PUSH4 0xE985E9C5 EQ PUSH2 0x7D7 JUMPI DUP1 PUSH4 0xECA01093 EQ PUSH2 0x820 JUMPI DUP1 PUSH4 0xF242432A EQ PUSH2 0x840 JUMPI DUP1 PUSH4 0xF3E6EA8A EQ PUSH2 0x860 JUMPI DUP1 PUSH4 0xF6524724 EQ PUSH2 0x873 JUMPI PUSH1 0x0 DUP1 REVERT JUMPDEST DUP1 PUSH4 0xC790985A EQ PUSH2 0x71A JUMPI DUP1 PUSH4 0xCA15C873 EQ PUSH2 0x73A JUMPI DUP1 PUSH4 0xD01350BD EQ PUSH2 0x75A JUMPI DUP1 PUSH4 0xD391014B EQ PUSH2 0x77A JUMPI DUP1 PUSH4 0xD547741F EQ PUSH2 0x78F JUMPI DUP1 PUSH4 0xD5D60737 EQ PUSH2 0x7AF JUMPI PUSH1 0x0 DUP1 REVERT JUMPDEST DUP1 PUSH4 0xA7FD40BF GT PUSH2 0x113 JUMPI DUP1 PUSH4 0xA7FD40BF EQ PUSH2 0x642 JUMPI DUP1 PUSH4 0xB390C0AB EQ PUSH2 0x662 JUMPI DUP1 PUSH4 0xB771E425 EQ PUSH2 0x682 JUMPI DUP1 PUSH4 0xBBADC03B EQ PUSH2 0x6B8 JUMPI DUP1 PUSH4 0xBD85B039 EQ PUSH2 0x6E5 JUMPI DUP1 PUSH4 0xC09C923B EQ PUSH2 0x712 JUMPI PUSH1 0x0 DUP1 REVERT JUMPDEST DUP1 PUSH4 0x91D14854 EQ PUSH2 0x5A5 JUMPI DUP1 PUSH4 0x95D89B41 EQ PUSH2 0x5C5 JUMPI DUP1 PUSH4 0x9BC731FC EQ PUSH2 0x5DA JUMPI DUP1 PUSH4 0xA22CB465 EQ PUSH2 0x5FA JUMPI DUP1 PUSH4 0xA60C6E55 EQ PUSH2 0x61A JUMPI PUSH1 0x0 DUP1 REVERT JUMPDEST DUP1 PUSH4 0x2F2FF15D GT PUSH2 0x1E8 JUMPI DUP1 PUSH4 0x4E1273F4 GT PUSH2 0x1AC JUMPI DUP1 PUSH4 0x4E1273F4 EQ PUSH2 0x4C9 JUMPI DUP1 PUSH4 0x4F558E79 EQ PUSH2 0x4F6 JUMPI DUP1 PUSH4 0x7B4B233C EQ PUSH2 0x525 JUMPI DUP1 PUSH4 0x7DE25AE7 EQ PUSH2 0x545 JUMPI DUP1 PUSH4 0x9010D07C EQ PUSH2 0x565 JUMPI DUP1 PUSH4 0x9162EBF0 EQ PUSH2 0x585 JUMPI PUSH1 0x0 DUP1 REVERT JUMPDEST DUP1 PUSH4 0x2F2FF15D EQ PUSH2 0x435 JUMPI DUP1 PUSH4 0x313CE567 EQ PUSH2 0x455 JUMPI DUP1 PUSH4 0x36568ABE EQ PUSH2 0x469 JUMPI DUP1 PUSH4 0x3935AC11 EQ PUSH2 0x489 JUMPI DUP1 PUSH4 0x48B08D62 EQ PUSH2 0x4A9 JUMPI PUSH1 0x0 DUP1 REVERT JUMPDEST DUP1 PUSH4 0x6FDDE03 GT PUSH2 0x23A JUMPI DUP1 PUSH4 0x6FDDE03 EQ PUSH2 0x37B JUMPI DUP1 PUSH4 0x94811F7 EQ PUSH2 0x39D JUMPI DUP1 PUSH4 0xE89341C EQ PUSH2 0x3B0 JUMPI DUP1 PUSH4 0x18160DDD EQ PUSH2 0x3D0 JUMPI DUP1 PUSH4 0x248A9CA3 EQ PUSH2 0x3E5 JUMPI DUP1 PUSH4 0x2EB2C2D6 EQ PUSH2 0x415 JUMPI PUSH1 0x0 DUP1 REVERT JUMPDEST DUP1 PUSH3 0xFDD58E EQ PUSH2 0x281 JUMPI DUP1 PUSH4 0x1FFC9A7 EQ PUSH2 0x2B4 JUMPI DUP1 PUSH4 0x3ED957F EQ PUSH2 0x2E4 JUMPI DUP1 PUSH4 0x6EDD763 EQ PUSH2 0x306 JUMPI DUP1 PUSH4 0x6FB1A07 EQ PUSH2 0x343 JUMPI PUSH1 0x0 DUP1 REVERT JUMPDEST CALLDATASIZE PUSH2 0x27C JUMPI STOP JUMPDEST PUSH1 0x0 DUP1 REVERT JUMPDEST CALLVALUE DUP1 ISZERO PUSH2 0x28D JUMPI PUSH1 0x0 DUP1 REVERT JUMPDEST POP PUSH2 0x2A1 PUSH2 0x29C CALLDATASIZE PUSH1 0x4 PUSH2 0x46B6 JUMP JUMPDEST PUSH2 0x886 JUMP JUMPDEST PUSH1 0x40 MLOAD SWAP1 DUP2 MSTORE PUSH1 0x20 ADD JUMPDEST PUSH1 0x40 MLOAD DUP1 SWAP2 SUB SWAP1 RETURN JUMPDEST CALLVALUE DUP1 ISZERO PUSH2 0x2C0 JUMPI PUSH1 0x0 DUP1 REVERT JUMPDEST POP PUSH2 0x2D4 PUSH2 0x2CF CALLDATASIZE PUSH1 0x4 PUSH2 0x46F8 JUMP JUMPDEST PUSH2 0x920 JUMP JUMPDEST PUSH1 0x40 MLOAD SWAP1 ISZERO ISZERO DUP2 MSTORE PUSH1 0x20 ADD PUSH2 0x2AB JUMP JUMPDEST CALLVALUE DUP1 ISZERO PUSH2 0x2F0 JUMPI PUSH1 0x0 DUP1 REVERT JUMPDEST POP PUSH2 0x304 PUSH2 0x2FF CALLDATASIZE PUSH1 0x4 PUSH2 0x4715 JUMP JUMPDEST PUSH2 0x970 JUMP JUMPDEST STOP JUMPDEST CALLVALUE DUP1 ISZERO PUSH2 0x312 JUMPI PUSH1 0x0 DUP1 REVERT JUMPDEST POP PUSH2 0x304 PUSH2 0x321 CALLDATASIZE PUSH1 0x4 PUSH2 0x478A JUMP JUMPDEST PUSH1 0x23 DUP1 SLOAD PUSH1 0x1 PUSH1 0x1 PUSH1 0xA0 SHL SUB NOT AND PUSH1 0x1 PUSH1 0x1 PUSH1 0xA0 SHL SUB SWAP3 SWAP1 SWAP3 AND SWAP2 SWAP1 SWAP2 OR SWAP1 SSTORE JUMP JUMPDEST CALLVALUE DUP1 ISZERO PUSH2 0x34F JUMPI PUSH1 0x0 DUP1 REVERT JUMPDEST POP PUSH2 0x363 PUSH2 0x35E CALLDATASIZE PUSH1 0x4 PUSH2 0x47A7 JUMP JUMPDEST PUSH2 0x9ED JUMP JUMPDEST PUSH1 0x40 MLOAD PUSH1 0x1 PUSH1 0x1 PUSH1 0xA0 SHL SUB SWAP1 SWAP2 AND DUP2 MSTORE PUSH1 0x20 ADD PUSH2 0x2AB JUMP JUMPDEST CALLVALUE DUP1 ISZERO PUSH2 0x387 JUMPI PUSH1 0x0 DUP1 REVERT JUMPDEST POP PUSH2 0x390 PUSH2 0xA64 JUMP JUMPDEST PUSH1 0x40 MLOAD PUSH2 0x2AB SWAP2 SWAP1 PUSH2 0x4818 JUMP JUMPDEST PUSH2 0x304 PUSH2 0x3AB CALLDATASIZE PUSH1 0x4 PUSH2 0x482B JUMP JUMPDEST PUSH2 0xAF6 JUMP JUMPDEST CALLVALUE DUP1 ISZERO PUSH2 0x3BC JUMPI PUSH1 0x0 DUP1 REVERT JUMPDEST POP PUSH2 0x390 PUSH2 0x3CB CALLDATASIZE PUSH1 0x4 PUSH2 0x47A7 JUMP JUMPDEST PUSH2 0xFBC JUMP JUMPDEST CALLVALUE DUP1 ISZERO PUSH2 0x3DC JUMPI PUSH1 0x0 DUP1 REVERT JUMPDEST POP PUSH2 0x2A1 PUSH2 0xFE8 JUMP JUMPDEST CALLVALUE DUP1 ISZERO PUSH2 0x3F1 JUMPI PUSH1 0x0 DUP1 REVERT JUMPDEST POP PUSH2 0x2A1 PUSH2 0x400 CALLDATASIZE PUSH1 0x4 PUSH2 0x47A7 JUMP JUMPDEST PUSH1 0x0 SWAP1 DUP2 MSTORE PUSH1 0x4 PUSH1 0x20 MSTORE PUSH1 0x40 SWAP1 KECCAK256 PUSH1 0x1 ADD SLOAD SWAP1 JUMP JUMPDEST CALLVALUE DUP1 ISZERO PUSH2 0x421 JUMPI PUSH1 0x0 DUP1 REVERT JUMPDEST POP PUSH2 0x304 PUSH2 0x430 CALLDATASIZE PUSH1 0x4 PUSH2 0x49CA JUMP JUMPDEST PUSH2 0x1034 JUMP JUMPDEST CALLVALUE DUP1 ISZERO PUSH2 0x441 JUMPI PUSH1 0x0 DUP1 REVERT JUMPDEST POP PUSH2 0x304 PUSH2 0x450 CALLDATASIZE PUSH1 0x4 PUSH2 0x4A78 JUMP JUMPDEST PUSH2 0x10CB JUMP JUMPDEST CALLVALUE DUP1 ISZERO PUSH2 0x461 JUMPI PUSH1 0x0 DUP1 REVERT JUMPDEST POP PUSH1 0x12 PUSH2 0x2A1 JUMP JUMPDEST CALLVALUE DUP1 ISZERO PUSH2 0x475 JUMPI PUSH1 0x0 DUP1 REVERT JUMPDEST POP PUSH2 0x304 PUSH2 0x484 CALLDATASIZE PUSH1 0x4 PUSH2 0x4A78 JUMP JUMPDEST PUSH2 0x10F6 JUMP JUMPDEST CALLVALUE DUP1 ISZERO PUSH2 0x495 JUMPI PUSH1 0x0 DUP1 REVERT JUMPDEST POP PUSH2 0x304 PUSH2 0x4A4 CALLDATASIZE PUSH1 0x4 PUSH2 0x4AA8 JUMP JUMPDEST PUSH2 0x1174 JUMP JUMPDEST CALLVALUE DUP1 ISZERO PUSH2 0x4B5 JUMPI PUSH1 0x0 DUP1 REVERT JUMPDEST POP PUSH2 0x2A1 PUSH2 0x4C4 CALLDATASIZE PUSH1 0x4 PUSH2 0x4B0C JUMP JUMPDEST PUSH2 0x11A7 JUMP JUMPDEST CALLVALUE DUP1 ISZERO PUSH2 0x4D5 JUMPI PUSH1 0x0 DUP1 REVERT JUMPDEST POP PUSH2 0x4E9 PUSH2 0x4E4 CALLDATASIZE PUSH1 0x4 PUSH2 0x4B4D JUMP JUMPDEST PUSH2 0x1279 JUMP JUMPDEST PUSH1 0x40 MLOAD PUSH2 0x2AB SWAP2 SWAP1 PUSH2 0x4C4B JUMP JUMPDEST CALLVALUE DUP1 ISZERO PUSH2 0x502 JUMPI PUSH1 0x0 DUP1 REVERT JUMPDEST POP PUSH2 0x2D4 PUSH2 0x511 CALLDATASIZE PUSH1 0x4 PUSH2 0x47A7 JUMP JUMPDEST PUSH1 0x0 SWAP1 DUP2 MSTORE PUSH1 0x3 PUSH1 0x20 MSTORE PUSH1 0x40 SWAP1 KECCAK256 SLOAD ISZERO ISZERO SWAP1 JUMP JUMPDEST CALLVALUE DUP1 ISZERO PUSH2 0x531 JUMPI PUSH1 0x0 DUP1 REVERT JUMPDEST POP PUSH1 0x23 SLOAD PUSH2 0x363 SWAP1 PUSH1 0x1 PUSH1 0x1 PUSH1 0xA0 SHL SUB AND DUP2 JUMP JUMPDEST CALLVALUE DUP1 ISZERO PUSH2 0x551 JUMPI PUSH1 0x0 DUP1 REVERT JUMPDEST POP PUSH2 0x2A1 PUSH2 0x560 CALLDATASIZE PUSH1 0x4 PUSH2 0x482B JUMP JUMPDEST PUSH2 0x13A3 JUMP JUMPDEST CALLVALUE DUP1 ISZERO PUSH2 0x571 JUMPI PUSH1 0x0 DUP1 REVERT JUMPDEST POP PUSH2 0x363 PUSH2 0x580 CALLDATASIZE PUSH1 0x4 PUSH2 0x4C5E JUMP JUMPDEST PUSH2 0x188F JUMP JUMPDEST CALLVALUE DUP1 ISZERO PUSH2 0x591 JUMPI PUSH1 0x0 DUP1 REVERT JUMPDEST POP PUSH2 0x2A1 PUSH2 0x5A0 CALLDATASIZE PUSH1 0x4 PUSH2 0x478A JUMP JUMPDEST PUSH2 0x18A7 JUMP JUMPDEST CALLVALUE DUP1 ISZERO PUSH2 0x5B1 JUMPI PUSH1 0x0 DUP1 REVERT JUMPDEST POP PUSH2 0x2D4 PUSH2 0x5C0 CALLDATASIZE PUSH1 0x4 PUSH2 0x4A78 JUMP JUMPDEST PUSH2 0x18C9 JUMP JUMPDEST CALLVALUE DUP1 ISZERO PUSH2 0x5D1 JUMPI PUSH1 0x0 DUP1 REVERT JUMPDEST POP PUSH2 0x390 PUSH2 0x18F4 JUMP JUMPDEST CALLVALUE DUP1 ISZERO PUSH2 0x5E6 JUMPI PUSH1 0x0 DUP1 REVERT JUMPDEST POP PUSH2 0x304 PUSH2 0x5F5 CALLDATASIZE PUSH1 0x4 PUSH2 0x478A JUMP JUMPDEST PUSH2 0x1903 JUMP JUMPDEST CALLVALUE DUP1 ISZERO PUSH2 0x606 JUMPI PUSH1 0x0 DUP1 REVERT JUMPDEST POP PUSH2 0x304 PUSH2 0x615 CALLDATASIZE PUSH1 0x4 PUSH2 0x4C8E JUMP JUMPDEST PUSH2 0x1ADF JUMP JUMPDEST PUSH2 0x62D PUSH2 0x628 CALLDATASIZE PUSH1 0x4 PUSH2 0x4CBC JUMP JUMPDEST PUSH2 0x1AEA JUMP JUMPDEST PUSH1 0x40 DUP1 MLOAD SWAP3 DUP4 MSTORE PUSH1 0x20 DUP4 ADD SWAP2 SWAP1 SWAP2 MSTORE ADD PUSH2 0x2AB JUMP JUMPDEST CALLVALUE DUP1 ISZERO PUSH2 0x64E JUMPI PUSH1 0x0 DUP1 REVERT JUMPDEST POP PUSH2 0x304 PUSH2 0x65D CALLDATASIZE PUSH1 0x4 PUSH2 0x4D23 JUMP JUMPDEST PUSH2 0x1CF3 JUMP JUMPDEST CALLVALUE DUP1 ISZERO PUSH2 0x66E JUMPI PUSH1 0x0 DUP1 REVERT JUMPDEST POP PUSH2 0x304 PUSH2 0x67D CALLDATASIZE PUSH1 0x4 PUSH2 0x4C5E JUMP JUMPDEST PUSH2 0x1D3A JUMP JUMPDEST CALLVALUE DUP1 ISZERO PUSH2 0x68E JUMPI PUSH1 0x0 DUP1 REVERT JUMPDEST POP PUSH2 0x2A1 PUSH2 0x69D CALLDATASIZE PUSH1 0x4 PUSH2 0x478A JUMP JUMPDEST PUSH1 0x1 PUSH1 0x1 PUSH1 0xA0 SHL SUB AND PUSH1 0x0 SWAP1 DUP2 MSTORE PUSH1 0x1D PUSH1 0x20 MSTORE PUSH1 0x40 SWAP1 KECCAK256 SLOAD SWAP1 JUMP JUMPDEST CALLVALUE DUP1 ISZERO PUSH2 0x6C4 JUMPI PUSH1 0x0 DUP1 REVERT JUMPDEST POP PUSH2 0x6D8 PUSH2 0x6D3 CALLDATASIZE PUSH1 0x4 PUSH2 0x478A JUMP JUMPDEST PUSH2 0x1D45 JUMP JUMPDEST PUSH1 0x40 MLOAD PUSH2 0x2AB SWAP2 SWAP1 PUSH2 0x4D58 JUMP JUMPDEST CALLVALUE DUP1 ISZERO PUSH2 0x6F1 JUMPI PUSH1 0x0 DUP1 REVERT JUMPDEST POP PUSH2 0x2A1 PUSH2 0x700 CALLDATASIZE PUSH1 0x4 PUSH2 0x47A7 JUMP JUMPDEST PUSH1 0x0 SWAP1 DUP2 MSTORE PUSH1 0x3 PUSH1 0x20 MSTORE PUSH1 0x40 SWAP1 KECCAK256 SLOAD SWAP1 JUMP JUMPDEST PUSH2 0x304 PUSH2 0x1E43 JUMP JUMPDEST CALLVALUE DUP1 ISZERO PUSH2 0x726 JUMPI PUSH1 0x0 DUP1 REVERT JUMPDEST POP PUSH2 0x2A1 PUSH2 0x735 CALLDATASIZE PUSH1 0x4 PUSH2 0x4B0C JUMP JUMPDEST PUSH2 0x1E6E JUMP JUMPDEST CALLVALUE DUP1 ISZERO PUSH2 0x746 JUMPI PUSH1 0x0 DUP1 REVERT JUMPDEST POP PUSH2 0x2A1 PUSH2 0x755 CALLDATASIZE PUSH1 0x4 PUSH2 0x47A7 JUMP JUMPDEST PUSH2 0x1F2E JUMP JUMPDEST CALLVALUE DUP1 ISZERO PUSH2 0x766 JUMPI PUSH1 0x0 DUP1 REVERT JUMPDEST POP PUSH2 0x6D8 PUSH2 0x775 CALLDATASIZE PUSH1 0x4 PUSH2 0x47A7 JUMP JUMPDEST PUSH2 0x1F45 JUMP JUMPDEST CALLVALUE DUP1 ISZERO PUSH2 0x786 JUMPI PUSH1 0x0 DUP1 REVERT JUMPDEST POP PUSH2 0x2A1 PUSH1 0x0 DUP2 JUMP JUMPDEST CALLVALUE DUP1 ISZERO PUSH2 0x79B JUMPI PUSH1 0x0 DUP1 REVERT JUMPDEST POP PUSH2 0x304 PUSH2 0x7AA CALLDATASIZE PUSH1 0x4 PUSH2 0x4A78 JUMP JUMPDEST PUSH2 0x1F60 JUMP JUMPDEST PUSH2 0x304 PUSH2 0x7BD CALLDATASIZE PUSH1 0x4 PUSH2 0x4DD5 JUMP JUMPDEST PUSH2 0x1F86 JUMP JUMPDEST CALLVALUE DUP1 ISZERO PUSH2 0x7CE JUMPI PUSH1 0x0 DUP1 REVERT JUMPDEST POP PUSH1 0x1E SLOAD PUSH2 0x2A1 JUMP JUMPDEST CALLVALUE DUP1 ISZERO PUSH2 0x7E3 JUMPI PUSH1 0x0 DUP1 REVERT JUMPDEST POP PUSH2 0x2D4 PUSH2 0x7F2 CALLDATASIZE PUSH1 0x4 PUSH2 0x4E14 JUMP JUMPDEST PUSH1 0x1 PUSH1 0x1 PUSH1 0xA0 SHL SUB SWAP2 DUP3 AND PUSH1 0x0 SWAP1 DUP2 MSTORE PUSH1 0x1 PUSH1 0x20 SWAP1 DUP2 MSTORE PUSH1 0x40 DUP1 DUP4 KECCAK256 SWAP4 SWAP1 SWAP5 AND DUP3 MSTORE SWAP2 SWAP1 SWAP2 MSTORE KECCAK256 SLOAD PUSH1 0xFF AND SWAP1 JUMP JUMPDEST CALLVALUE DUP1 ISZERO PUSH2 0x82C JUMPI PUSH1 0x0 DUP1 REVERT JUMPDEST POP PUSH2 0x304 PUSH2 0x83B CALLDATASIZE PUSH1 0x4 PUSH2 0x4E42 JUMP JUMPDEST PUSH2 0x224B JUMP JUMPDEST CALLVALUE DUP1 ISZERO PUSH2 0x84C JUMPI PUSH1 0x0 DUP1 REVERT JUMPDEST POP PUSH2 0x304 PUSH2 0x85B CALLDATASIZE PUSH1 0x4 PUSH2 0x4EB3 JUMP JUMPDEST PUSH2 0x22C8 JUMP JUMPDEST PUSH2 0x304 PUSH2 0x86E CALLDATASIZE PUSH1 0x4 PUSH2 0x4DD5 JUMP JUMPDEST PUSH2 0x22D5 JUMP JUMPDEST PUSH2 0x62D PUSH2 0x881 CALLDATASIZE PUSH1 0x4 PUSH2 0x4CBC JUMP JUMPDEST PUSH2 0x22E1 JUMP JUMPDEST PUSH1 0x0 PUSH1 0x1 PUSH1 0x1 PUSH1 0xA0 SHL SUB DUP4 AND PUSH2 0x8F7 JUMPI PUSH1 0x40 MLOAD PUSH3 0x461BCD PUSH1 0xE5 SHL DUP2 MSTORE PUSH1 0x20 PUSH1 0x4 DUP3 ADD MSTORE PUSH1 0x2B PUSH1 0x24 DUP3 ADD MSTORE PUSH32 0x455243313135353A2062616C616E636520717565727920666F7220746865207A PUSH1 0x44 DUP3 ADD MSTORE PUSH11 0x65726F2061646472657373 PUSH1 0xA8 SHL PUSH1 0x64 DUP3 ADD MSTORE PUSH1 0x84 ADD JUMPDEST PUSH1 0x40 MLOAD DUP1 SWAP2 SUB SWAP1 REVERT JUMPDEST POP PUSH1 0x0 DUP2 DUP2 MSTORE PUSH1 0x20 DUP2 DUP2 MSTORE PUSH1 0x40 DUP1 DUP4 KECCAK256 PUSH1 0x1 PUSH1 0x1 PUSH1 0xA0 SHL SUB DUP7 AND DUP5 MSTORE SWAP1 SWAP2 MSTORE SWAP1 KECCAK256 SLOAD JUMPDEST SWAP3 SWAP2 POP POP JUMP JUMPDEST PUSH1 0x0 PUSH1 0x1 PUSH1 0x1 PUSH1 0xE0 SHL SUB NOT DUP3 AND PUSH4 0x6CDB3D13 PUSH1 0xE1 SHL EQ DUP1 PUSH2 0x951 JUMPI POP PUSH1 0x1 PUSH1 0x1 PUSH1 0xE0 SHL SUB NOT DUP3 AND PUSH4 0x3A24D07 PUSH1 0xE2 SHL EQ JUMPDEST DUP1 PUSH2 0x91A JUMPI POP PUSH4 0x1FFC9A7 PUSH1 0xE0 SHL PUSH1 0x1 PUSH1 0x1 PUSH1 0xE0 SHL SUB NOT DUP4 AND EQ PUSH2 0x91A JUMP JUMPDEST PUSH1 0x0 PUSH2 0x97C DUP2 CALLER PUSH2 0x25D4 JUMP JUMPDEST PUSH1 0x0 JUMPDEST DUP3 DUP2 LT ISZERO PUSH2 0x9E7 JUMPI PUSH2 0x9D5 DUP5 DUP5 DUP4 DUP2 DUP2 LT PUSH2 0x99C JUMPI PUSH2 0x99C PUSH2 0x4F1C JUMP JUMPDEST SWAP1 POP PUSH1 0x40 MUL ADD PUSH1 0x0 ADD CALLDATALOAD DUP6 DUP6 DUP5 DUP2 DUP2 LT PUSH2 0x9B8 JUMPI PUSH2 0x9B8 PUSH2 0x4F1C JUMP JUMPDEST SWAP1 POP PUSH1 0x40 MUL ADD PUSH1 0x20 ADD PUSH1 0x20 DUP2 ADD SWAP1 PUSH2 0x9D0 SWAP2 SWAP1 PUSH2 0x478A JUMP JUMPDEST PUSH2 0x2638 JUMP JUMPDEST DUP1 PUSH2 0x9DF DUP2 PUSH2 0x4F48 JUMP JUMPDEST SWAP2 POP POP PUSH2 0x97F JUMP JUMPDEST POP POP POP POP JUMP JUMPDEST PUSH1 0x40 MLOAD PUSH4 0x6FB1A07 PUSH1 0xE0 SHL DUP2 MSTORE PUSH1 0x4 DUP2 ADD DUP3 SWAP1 MSTORE PUSH1 0x0 SWAP1 PUSH20 0xDEF1FAC7BF08F173D286BBBDCBEEADE695129840 SWAP1 PUSH4 0x6FB1A07 SWAP1 PUSH1 0x24 ADD PUSH1 0x20 PUSH1 0x40 MLOAD DUP1 DUP4 SUB DUP2 DUP7 GAS STATICCALL ISZERO DUP1 ISZERO PUSH2 0xA40 JUMPI RETURNDATASIZE PUSH1 0x0 DUP1 RETURNDATACOPY RETURNDATASIZE PUSH1 0x0 REVERT JUMPDEST POP POP POP POP PUSH1 0x40 MLOAD RETURNDATASIZE PUSH1 0x1F NOT PUSH1 0x1F DUP3 ADD AND DUP3 ADD DUP1 PUSH1 0x40 MSTORE POP DUP2 ADD SWAP1 PUSH2 0x91A SWAP2 SWAP1 PUSH2 0x4F63 JUMP JUMPDEST PUSH1 0x60 PUSH1 0x6 DUP1 SLOAD PUSH2 0xA73 SWAP1 PUSH2 0x4F80 JUMP JUMPDEST DUP1 PUSH1 0x1F ADD PUSH1 0x20 DUP1 SWAP2 DIV MUL PUSH1 0x20 ADD PUSH1 0x40 MLOAD SWAP1 DUP2 ADD PUSH1 0x40 MSTORE DUP1 SWAP3 SWAP2 SWAP1 DUP2 DUP2 MSTORE PUSH1 0x20 ADD DUP3 DUP1 SLOAD PUSH2 0xA9F SWAP1 PUSH2 0x4F80 JUMP JUMPDEST DUP1 ISZERO PUSH2 0xAEC JUMPI DUP1 PUSH1 0x1F LT PUSH2 0xAC1 JUMPI PUSH2 0x100 DUP1 DUP4 SLOAD DIV MUL DUP4 MSTORE SWAP2 PUSH1 0x20 ADD SWAP2 PUSH2 0xAEC JUMP JUMPDEST DUP3 ADD SWAP2 SWAP1 PUSH1 0x0 MSTORE PUSH1 0x20 PUSH1 0x0 KECCAK256 SWAP1 JUMPDEST DUP2 SLOAD DUP2 MSTORE SWAP1 PUSH1 0x1 ADD SWAP1 PUSH1 0x20 ADD DUP1 DUP4 GT PUSH2 0xACF JUMPI DUP3 SWAP1 SUB PUSH1 0x1F AND DUP3 ADD SWAP2 JUMPDEST POP POP POP POP POP SWAP1 POP SWAP1 JUMP JUMPDEST PUSH1 0x1 PUSH1 0x1 PUSH1 0xA0 SHL SUB DUP4 AND PUSH1 0x0 SWAP1 DUP2 MSTORE PUSH1 0x1D PUSH1 0x20 MSTORE PUSH1 0x40 SWAP1 KECCAK256 SLOAD DUP4 SWAP1 ISZERO DUP1 ISZERO SWAP1 PUSH2 0xB2D JUMPI POP PUSH1 0x20 SLOAD PUSH1 0x1 PUSH1 0x1 PUSH1 0xA0 SHL SUB DUP3 DUP2 AND SWAP2 AND EQ ISZERO JUMPDEST PUSH1 0xB SWAP1 PUSH2 0xB4D JUMPI PUSH1 0x40 MLOAD PUSH3 0x461BCD PUSH1 0xE5 SHL DUP2 MSTORE PUSH1 0x4 ADD PUSH2 0x8EE SWAP2 SWAP1 PUSH2 0x4FB5 JUMP JUMPDEST POP PUSH1 0x1 PUSH1 0x1 PUSH1 0xA0 SHL SUB DUP5 AND PUSH1 0x0 SWAP1 DUP2 MSTORE PUSH1 0x1D PUSH1 0x20 MSTORE PUSH1 0x40 SWAP1 KECCAK256 SLOAD PUSH2 0xB72 DUP6 DUP8 DUP7 PUSH2 0x2642 JUMP JUMPDEST PUSH1 0x0 PUSH2 0xB7D DUP7 PUSH2 0x26D5 JUMP JUMPDEST SWAP1 POP PUSH1 0x1C DUP3 DUP2 SLOAD DUP2 LT PUSH2 0xB92 JUMPI PUSH2 0xB92 PUSH2 0x4F1C JUMP JUMPDEST PUSH1 0x0 SWAP2 DUP3 MSTORE PUSH1 0x20 SWAP1 SWAP2 KECCAK256 PUSH1 0x2 PUSH1 0x4 SWAP1 SWAP3 MUL ADD ADD SLOAD PUSH2 0xBB9 SWAP1 PUSH1 0x1 PUSH1 0x1 PUSH1 0x70 SHL SUB AND DUP3 PUSH2 0x503A JUMP JUMPDEST SWAP5 POP PUSH1 0xE DUP6 PUSH2 0xBDB JUMPI PUSH1 0x40 MLOAD PUSH3 0x461BCD PUSH1 0xE5 SHL DUP2 MSTORE PUSH1 0x4 ADD PUSH2 0x8EE SWAP2 SWAP1 PUSH2 0x4FB5 JUMP JUMPDEST POP PUSH1 0x20 SLOAD PUSH1 0x0 SWAP1 PUSH2 0xBF4 SWAP1 PUSH1 0x1 PUSH1 0x1 PUSH1 0xA0 SHL SUB AND PUSH2 0x26D5 JUMP JUMPDEST SWAP1 POP PUSH1 0x0 PUSH1 0x1E SLOAD DUP3 PUSH2 0xC06 SWAP2 SWAP1 PUSH2 0x503A JUMP JUMPDEST SWAP1 POP PUSH1 0x0 DUP2 PUSH1 0x1C DUP7 DUP2 SLOAD DUP2 LT PUSH2 0xC1E JUMPI PUSH2 0xC1E PUSH2 0x4F1C JUMP JUMPDEST PUSH1 0x0 SWAP2 DUP3 MSTORE PUSH1 0x20 SWAP1 SWAP2 KECCAK256 PUSH1 0x2 PUSH1 0x4 SWAP1 SWAP3 MUL ADD ADD SLOAD PUSH1 0x1C DUP1 SLOAD PUSH1 0x1 PUSH1 0x1 PUSH1 0x70 SHL SUB SWAP1 SWAP3 AND SWAP2 DUP9 SWAP1 DUP2 LT PUSH2 0xC52 JUMPI PUSH2 0xC52 PUSH2 0x4F1C JUMP JUMPDEST PUSH1 0x0 SWAP2 DUP3 MSTORE PUSH1 0x20 SWAP1 SWAP2 KECCAK256 PUSH1 0x4 SWAP1 SWAP2 MUL ADD PUSH1 0x2 ADD SLOAD PUSH2 0xC80 SWAP1 PUSH1 0x1 PUSH1 0x70 SHL SWAP1 DIV PUSH1 0x1 PUSH1 0x1 PUSH1 0x70 SHL SUB AND DUP12 PUSH2 0x5051 JUMP JUMPDEST PUSH2 0xC8A SWAP2 SWAP1 PUSH2 0x5086 JUMP JUMPDEST PUSH2 0xC94 SWAP2 SWAP1 PUSH2 0x503A JUMP JUMPDEST SWAP1 POP PUSH1 0x0 PUSH1 0x1C DUP7 DUP2 SLOAD DUP2 LT PUSH2 0xCAB JUMPI PUSH2 0xCAB PUSH2 0x4F1C JUMP JUMPDEST PUSH1 0x0 SWAP2 DUP3 MSTORE PUSH1 0x20 DUP3 KECCAK256 PUSH1 0x3 PUSH1 0x4 SWAP1 SWAP3 MUL ADD ADD SLOAD PUSH1 0x1C DUP1 SLOAD PUSH1 0x1 PUSH1 0x1 PUSH1 0x70 SHL SUB SWAP1 SWAP3 AND SWAP4 POP PUSH2 0xD50 SWAP2 DUP10 SWAP1 DUP2 LT PUSH2 0xCE3 JUMPI PUSH2 0xCE3 PUSH2 0x4F1C JUMP JUMPDEST SWAP1 PUSH1 0x0 MSTORE PUSH1 0x20 PUSH1 0x0 KECCAK256 SWAP1 PUSH1 0x4 MUL ADD PUSH1 0x2 ADD PUSH1 0xE SWAP1 SLOAD SWAP1 PUSH2 0x100 EXP SWAP1 DIV PUSH1 0x1 PUSH1 0x1 PUSH1 0x70 SHL SUB AND PUSH1 0x1 PUSH1 0x1 PUSH1 0x70 SHL SUB AND PUSH1 0x1C DUP10 DUP2 SLOAD DUP2 LT PUSH2 0xD24 JUMPI PUSH2 0xD24 PUSH2 0x4F1C JUMP JUMPDEST PUSH1 0x0 SWAP2 DUP3 MSTORE PUSH1 0x20 SWAP1 SWAP2 KECCAK256 PUSH1 0x2 PUSH1 0x4 SWAP1 SWAP3 MUL ADD ADD SLOAD PUSH2 0xD4B SWAP2 SWAP1 PUSH1 0x1 PUSH1 0x1 PUSH1 0x70 SHL SUB AND PUSH2 0x5051 JUMP JUMPDEST PUSH2 0x275D JUMP JUMPDEST SWAP1 POP DUP5 PUSH1 0x1E DUP2 SWAP1 SSTORE POP DUP1 PUSH1 0x1C DUP9 DUP2 SLOAD DUP2 LT PUSH2 0xD6D JUMPI PUSH2 0xD6D PUSH2 0x4F1C JUMP JUMPDEST SWAP1 PUSH1 0x0 MSTORE PUSH1 0x20 PUSH1 0x0 KECCAK256 SWAP1 PUSH1 0x4 MUL ADD PUSH1 0x3 ADD PUSH1 0x0 PUSH2 0x100 EXP DUP2 SLOAD DUP2 PUSH1 0x1 PUSH1 0x1 PUSH1 0x70 SHL SUB MUL NOT AND SWAP1 DUP4 PUSH1 0x1 PUSH1 0x1 PUSH1 0x70 SHL SUB AND MUL OR SWAP1 SSTORE POP DUP6 PUSH1 0x1C DUP9 DUP2 SLOAD DUP2 LT PUSH2 0xDB6 JUMPI PUSH2 0xDB6 PUSH2 0x4F1C JUMP JUMPDEST PUSH1 0x0 SWAP2 DUP3 MSTORE PUSH1 0x20 SWAP1 SWAP2 KECCAK256 PUSH1 0x4 SWAP1 SWAP2 MUL ADD PUSH1 0x2 ADD DUP1 SLOAD PUSH1 0x1 PUSH1 0x1 PUSH1 0x70 SHL SUB NOT AND PUSH1 0x1 PUSH1 0x1 PUSH1 0x70 SHL SUB SWAP3 SWAP1 SWAP3 AND SWAP2 SWAP1 SWAP2 OR SWAP1 SSTORE PUSH2 0xDF1 DUP4 DUP6 PUSH2 0x509A JUMP JUMPDEST PUSH1 0x1C DUP9 DUP2 SLOAD DUP2 LT PUSH2 0xE04 JUMPI PUSH2 0xE04 PUSH2 0x4F1C JUMP JUMPDEST SWAP1 PUSH1 0x0 MSTORE PUSH1 0x20 PUSH1 0x0 KECCAK256 SWAP1 PUSH1 0x4 MUL ADD PUSH1 0x2 ADD PUSH1 0xE SWAP1 SLOAD SWAP1 PUSH2 0x100 EXP SWAP1 DIV PUSH1 0x1 PUSH1 0x1 PUSH1 0x70 SHL SUB AND PUSH2 0xE33 SWAP2 SWAP1 PUSH2 0x50B2 JUMP JUMPDEST PUSH1 0x1C DUP9 DUP2 SLOAD DUP2 LT PUSH2 0xE46 JUMPI PUSH2 0xE46 PUSH2 0x4F1C JUMP JUMPDEST PUSH1 0x0 SWAP2 DUP3 MSTORE PUSH1 0x20 SWAP2 DUP3 SWAP1 KECCAK256 PUSH1 0x4 SWAP2 DUP3 MUL ADD PUSH1 0x2 ADD DUP1 SLOAD PUSH1 0x1 PUSH1 0x70 SHL PUSH1 0x1 PUSH1 0xE0 SHL SUB NOT AND PUSH1 0x1 PUSH1 0x70 SHL PUSH1 0x1 PUSH1 0x1 PUSH1 0x70 SHL SUB SWAP6 SWAP1 SWAP6 AND SWAP5 SWAP1 SWAP5 MUL SWAP4 SWAP1 SWAP4 OR SWAP1 SWAP3 SSTORE SLOAD PUSH1 0x40 MLOAD PUSH4 0xBB9FF5D PUSH1 0xE0 SHL DUP2 MSTORE ADDRESS SWAP3 DUP2 ADD SWAP3 SWAP1 SWAP3 MSTORE PUSH1 0x24 DUP3 ADD DUP6 SWAP1 MSTORE PUSH1 0x1 PUSH1 0x1 PUSH1 0xA0 SHL SUB AND SWAP1 PUSH4 0xBB9FF5D SWAP1 PUSH1 0x44 ADD PUSH1 0x0 PUSH1 0x40 MLOAD DUP1 DUP4 SUB DUP2 PUSH1 0x0 DUP8 DUP1 EXTCODESIZE ISZERO DUP1 ISZERO PUSH2 0xECF JUMPI PUSH1 0x0 DUP1 REVERT JUMPDEST POP GAS CALL ISZERO DUP1 ISZERO PUSH2 0xEE3 JUMPI RETURNDATASIZE PUSH1 0x0 DUP1 RETURNDATACOPY RETURNDATASIZE PUSH1 0x0 REVERT JUMPDEST POP POP POP PUSH1 0x0 DUP9 DUP2 MSTORE PUSH1 0x3 PUSH1 0x20 MSTORE PUSH1 0x40 DUP2 KECCAK256 SLOAD PUSH1 0x1C DUP1 SLOAD SWAP2 SWAP4 POP SWAP1 DUP11 SWAP1 DUP2 LT PUSH2 0xF0D JUMPI PUSH2 0xF0D PUSH2 0x4F1C JUMP JUMPDEST PUSH1 0x0 SWAP2 DUP3 MSTORE PUSH1 0x20 SWAP1 SWAP2 KECCAK256 PUSH1 0x2 PUSH1 0x4 SWAP1 SWAP3 MUL ADD ADD SLOAD PUSH1 0x1 PUSH1 0x1 PUSH1 0x70 SHL SUB AND PUSH2 0xF34 DUP4 DUP15 PUSH2 0x5051 JUMP JUMPDEST PUSH2 0xF3E SWAP2 SWAP1 PUSH2 0x5086 JUMP JUMPDEST SWAP1 POP PUSH2 0xF5B DUP12 DUP11 DUP4 PUSH1 0x40 MLOAD DUP1 PUSH1 0x20 ADD PUSH1 0x40 MSTORE DUP1 PUSH1 0x0 DUP2 MSTORE POP PUSH2 0x27B6 JUMP JUMPDEST PUSH1 0x0 PUSH2 0xF7A DUP6 PUSH1 0x1 PUSH1 0x1 PUSH1 0x70 SHL SUB AND DUP6 PUSH1 0x1 PUSH1 0x1 PUSH1 0x70 SHL SUB AND DUP6 PUSH2 0x28C6 JUMP JUMPDEST SWAP1 POP DUP1 ISZERO PUSH2 0xFAB JUMPI PUSH1 0x23 SLOAD PUSH1 0x40 DUP1 MLOAD PUSH1 0x20 DUP2 ADD SWAP1 SWAP2 MSTORE PUSH1 0x0 DUP2 MSTORE PUSH2 0xFAB SWAP2 PUSH1 0x1 PUSH1 0x1 PUSH1 0xA0 SHL SUB AND SWAP1 DUP13 SWAP1 DUP5 SWAP1 PUSH2 0x27B6 JUMP JUMPDEST POP POP POP POP POP POP POP POP POP POP POP POP POP POP POP JUMP JUMPDEST PUSH1 0x60 PUSH1 0x8 DUP3 PUSH1 0x40 MLOAD PUSH1 0x20 ADD PUSH2 0xFD2 SWAP3 SWAP2 SWAP1 PUSH2 0x50DD JUMP JUMPDEST PUSH1 0x40 MLOAD PUSH1 0x20 DUP2 DUP4 SUB SUB DUP2 MSTORE SWAP1 PUSH1 0x40 MSTORE SWAP1 POP SWAP2 SWAP1 POP JUMP JUMPDEST PUSH1 0x0 DUP1 PUSH1 0x0 JUMPDEST PUSH1 0x0 PUSH1 0x3 DUP2 PUSH2 0xFFC DUP6 PUSH2 0x4F48 JUMP JUMPDEST SWAP5 POP DUP5 DUP2 MSTORE PUSH1 0x20 ADD SWAP1 DUP2 MSTORE PUSH1 0x20 ADD PUSH1 0x0 KECCAK256 SLOAD GT ISZERO PUSH2 0x91A JUMPI PUSH1 0x0 DUP3 DUP2 MSTORE PUSH1 0x3 PUSH1 0x20 MSTORE PUSH1 0x40 SWAP1 KECCAK256 SLOAD PUSH2 0x102D SWAP1 DUP3 PUSH2 0x509A JUMP JUMPDEST SWAP1 POP PUSH2 0xFEE JUMP JUMPDEST PUSH1 0x1 PUSH1 0x1 PUSH1 0xA0 SHL SUB DUP6 AND CALLER EQ DUP1 PUSH2 0x1050 JUMPI POP PUSH2 0x1050 DUP6 CALLER PUSH2 0x7F2 JUMP JUMPDEST PUSH2 0x10B7 JUMPI PUSH1 0x40 MLOAD PUSH3 0x461BCD PUSH1 0xE5 SHL DUP2 MSTORE PUSH1 0x20 PUSH1 0x4 DUP3 ADD MSTORE PUSH1 0x32 PUSH1 0x24 DUP3 ADD MSTORE PUSH32 0x455243313135353A207472616E736665722063616C6C6572206973206E6F7420 PUSH1 0x44 DUP3 ADD MSTORE PUSH18 0x1BDDDB995C881B9BDC88185C1C1C9BDD9959 PUSH1 0x72 SHL PUSH1 0x64 DUP3 ADD MSTORE PUSH1 0x84 ADD PUSH2 0x8EE JUMP JUMPDEST PUSH2 0x10C4 DUP6 DUP6 DUP6 DUP6 DUP6 PUSH2 0x2918 JUMP JUMPDEST POP POP POP POP POP JUMP JUMPDEST PUSH1 0x0 DUP3 DUP2 MSTORE PUSH1 0x4 PUSH1 0x20 MSTORE PUSH1 0x40 SWAP1 KECCAK256 PUSH1 0x1 ADD SLOAD PUSH2 0x10E7 DUP2 CALLER PUSH2 0x25D4 JUMP JUMPDEST PUSH2 0x10F1 DUP4 DUP4 PUSH2 0x2B03 JUMP JUMPDEST POP POP POP JUMP JUMPDEST PUSH1 0x1 PUSH1 0x1 PUSH1 0xA0 SHL SUB DUP2 AND CALLER EQ PUSH2 0x1166 JUMPI PUSH1 0x40 MLOAD PUSH3 0x461BCD PUSH1 0xE5 SHL DUP2 MSTORE PUSH1 0x20 PUSH1 0x4 DUP3 ADD MSTORE PUSH1 0x2F PUSH1 0x24 DUP3 ADD MSTORE PUSH32 0x416363657373436F6E74726F6C3A2063616E206F6E6C792072656E6F756E6365 PUSH1 0x44 DUP3 ADD MSTORE PUSH15 0x103937B632B9903337B91039B2B633 PUSH1 0x89 SHL PUSH1 0x64 DUP3 ADD MSTORE PUSH1 0x84 ADD PUSH2 0x8EE JUMP JUMPDEST PUSH2 0x1170 DUP3 DUP3 PUSH2 0x2B25 JUMP JUMPDEST POP POP JUMP JUMPDEST PUSH1 0x0 PUSH2 0x1180 DUP2 CALLER PUSH2 0x25D4 JUMP JUMPDEST DUP3 MLOAD PUSH2 0x1193 SWAP1 PUSH1 0x6 SWAP1 PUSH1 0x20 DUP7 ADD SWAP1 PUSH2 0x4515 JUMP JUMPDEST POP DUP2 MLOAD PUSH2 0x9E7 SWAP1 PUSH1 0x7 SWAP1 PUSH1 0x20 DUP6 ADD SWAP1 PUSH2 0x4515 JUMP JUMPDEST PUSH1 0x20 SLOAD PUSH1 0x0 SWAP1 PUSH1 0x1 PUSH1 0x1 PUSH1 0xA0 SHL SUB DUP6 DUP2 AND SWAP2 AND EQ DUP1 ISZERO SWAP1 PUSH2 0x11D5 JUMPI POP PUSH1 0x20 SLOAD PUSH1 0x1 PUSH1 0x1 PUSH1 0xA0 SHL SUB DUP5 DUP2 AND SWAP2 AND EQ JUMPDEST ISZERO PUSH2 0x11EB JUMPI PUSH2 0x11E4 DUP5 DUP4 PUSH2 0x2B47 JUMP JUMPDEST SWAP1 POP PUSH2 0x1272 JUMP JUMPDEST PUSH1 0x20 SLOAD PUSH1 0x1 PUSH1 0x1 PUSH1 0xA0 SHL SUB DUP6 DUP2 AND SWAP2 AND EQ DUP1 ISZERO PUSH2 0x1216 JUMPI POP PUSH1 0x20 SLOAD PUSH1 0x1 PUSH1 0x1 PUSH1 0xA0 SHL SUB DUP5 DUP2 AND SWAP2 AND EQ ISZERO JUMPDEST ISZERO PUSH2 0x1225 JUMPI PUSH2 0x11E4 DUP4 DUP4 PUSH2 0x2C43 JUMP JUMPDEST PUSH1 0x20 SLOAD PUSH1 0x1 PUSH1 0x1 PUSH1 0xA0 SHL SUB DUP6 DUP2 AND SWAP2 AND EQ DUP1 ISZERO SWAP1 PUSH2 0x1251 JUMPI POP PUSH1 0x20 SLOAD PUSH1 0x1 PUSH1 0x1 PUSH1 0xA0 SHL SUB DUP6 DUP2 AND SWAP2 AND EQ ISZERO JUMPDEST ISZERO PUSH2 0x1272 JUMPI PUSH1 0x0 PUSH2 0x1262 DUP6 DUP5 PUSH2 0x2B47 JUMP JUMPDEST SWAP1 POP PUSH2 0x126E DUP5 DUP3 PUSH2 0x2C43 JUMP JUMPDEST SWAP2 POP POP JUMPDEST SWAP4 SWAP3 POP POP POP JUMP JUMPDEST PUSH1 0x60 DUP2 MLOAD DUP4 MLOAD EQ PUSH2 0x12DE JUMPI PUSH1 0x40 MLOAD PUSH3 0x461BCD PUSH1 0xE5 SHL DUP2 MSTORE PUSH1 0x20 PUSH1 0x4 DUP3 ADD MSTORE PUSH1 0x29 PUSH1 0x24 DUP3 ADD MSTORE PUSH32 0x455243313135353A206163636F756E747320616E6420696473206C656E677468 PUSH1 0x44 DUP3 ADD MSTORE PUSH9 0x40DAD2E6DAC2E8C6D PUSH1 0xBB SHL PUSH1 0x64 DUP3 ADD MSTORE PUSH1 0x84 ADD PUSH2 0x8EE JUMP JUMPDEST PUSH1 0x0 DUP4 MLOAD PUSH8 0xFFFFFFFFFFFFFFFF DUP2 GT ISZERO PUSH2 0x12FA JUMPI PUSH2 0x12FA PUSH2 0x487E JUMP JUMPDEST PUSH1 0x40 MLOAD SWAP1 DUP1 DUP3 MSTORE DUP1 PUSH1 0x20 MUL PUSH1 0x20 ADD DUP3 ADD PUSH1 0x40 MSTORE DUP1 ISZERO PUSH2 0x1323 JUMPI DUP2 PUSH1 0x20 ADD PUSH1 0x20 DUP3 MUL DUP1 CALLDATASIZE DUP4 CALLDATACOPY ADD SWAP1 POP JUMPDEST POP SWAP1 POP PUSH1 0x0 JUMPDEST DUP5 MLOAD DUP2 LT ISZERO PUSH2 0x139B JUMPI PUSH2 0x136E DUP6 DUP3 DUP2 MLOAD DUP2 LT PUSH2 0x1347 JUMPI PUSH2 0x1347 PUSH2 0x4F1C JUMP JUMPDEST PUSH1 0x20 MUL PUSH1 0x20 ADD ADD MLOAD DUP6 DUP4 DUP2 MLOAD DUP2 LT PUSH2 0x1361 JUMPI PUSH2 0x1361 PUSH2 0x4F1C JUMP JUMPDEST PUSH1 0x20 MUL PUSH1 0x20 ADD ADD MLOAD PUSH2 0x886 JUMP JUMPDEST DUP3 DUP3 DUP2 MLOAD DUP2 LT PUSH2 0x1380 JUMPI PUSH2 0x1380 PUSH2 0x4F1C JUMP JUMPDEST PUSH1 0x20 SWAP1 DUP2 MUL SWAP2 SWAP1 SWAP2 ADD ADD MSTORE PUSH2 0x1394 DUP2 PUSH2 0x4F48 JUMP JUMPDEST SWAP1 POP PUSH2 0x1329 JUMP JUMPDEST POP SWAP4 SWAP3 POP POP POP JUMP JUMPDEST PUSH1 0x1 PUSH1 0x1 PUSH1 0xA0 SHL SUB DUP4 AND PUSH1 0x0 SWAP1 DUP2 MSTORE PUSH1 0x1D PUSH1 0x20 MSTORE PUSH1 0x40 DUP2 KECCAK256 SLOAD DUP5 SWAP1 ISZERO DUP1 ISZERO SWAP1 PUSH2 0x13DA JUMPI POP PUSH1 0x20 SLOAD PUSH1 0x1 PUSH1 0x1 PUSH1 0xA0 SHL SUB DUP3 DUP2 AND SWAP2 AND EQ ISZERO JUMPDEST PUSH1 0xB SWAP1 PUSH2 0x13FA JUMPI PUSH1 0x40 MLOAD PUSH3 0x461BCD PUSH1 0xE5 SHL DUP2 MSTORE PUSH1 0x4 ADD PUSH2 0x8EE SWAP2 SWAP1 PUSH2 0x4FB5 JUMP JUMPDEST POP PUSH1 0x1 PUSH1 0x1 PUSH1 0xA0 SHL SUB DUP1 DUP7 AND PUSH1 0x0 SWAP1 DUP2 MSTORE PUSH1 0x1D PUSH1 0x20 MSTORE PUSH1 0x40 SWAP1 KECCAK256 SLOAD SWAP1 DUP8 AND ADDRESS EQ PUSH2 0x143A JUMPI PUSH2 0x143A DUP8 ADDRESS DUP4 DUP9 PUSH1 0x40 MLOAD DUP1 PUSH1 0x20 ADD PUSH1 0x40 MSTORE DUP1 PUSH1 0x0 DUP2 MSTORE POP PUSH2 0x22C8 JUMP JUMPDEST PUSH1 0x0 PUSH2 0x1445 DUP8 PUSH2 0x26D5 JUMP JUMPDEST SWAP1 POP PUSH1 0x0 PUSH1 0x1C DUP4 DUP2 SLOAD DUP2 LT PUSH2 0x145C JUMPI PUSH2 0x145C PUSH2 0x4F1C JUMP JUMPDEST PUSH1 0x0 SWAP2 DUP3 MSTORE PUSH1 0x20 SWAP1 SWAP2 KECCAK256 PUSH1 0x2 PUSH1 0x4 SWAP1 SWAP3 MUL ADD ADD SLOAD PUSH2 0x1483 SWAP1 PUSH1 0x1 PUSH1 0x1 PUSH1 0x70 SHL SUB AND DUP4 PUSH2 0x503A JUMP JUMPDEST PUSH1 0x1E SLOAD PUSH1 0x20 SLOAD SWAP2 SWAP3 POP PUSH1 0x0 SWAP2 PUSH2 0x14A1 SWAP1 PUSH1 0x1 PUSH1 0x1 PUSH1 0xA0 SHL SUB AND PUSH2 0x26D5 JUMP JUMPDEST PUSH2 0x14AB SWAP2 SWAP1 PUSH2 0x503A JUMP JUMPDEST PUSH1 0x0 DUP6 DUP2 MSTORE PUSH1 0x3 PUSH1 0x20 MSTORE PUSH1 0x40 DUP2 KECCAK256 SLOAD PUSH1 0x1C DUP1 SLOAD SWAP4 SWAP5 POP SWAP1 SWAP3 DUP4 SWAP2 DUP13 SWAP2 DUP10 SWAP1 DUP2 LT PUSH2 0x14D7 JUMPI PUSH2 0x14D7 PUSH2 0x4F1C JUMP JUMPDEST PUSH1 0x0 SWAP2 DUP3 MSTORE PUSH1 0x20 SWAP1 SWAP2 KECCAK256 PUSH1 0x2 PUSH1 0x4 SWAP1 SWAP3 MUL ADD ADD SLOAD PUSH2 0x14FE SWAP2 SWAP1 PUSH1 0x1 PUSH1 0x1 PUSH1 0x70 SHL SUB AND PUSH2 0x5051 JUMP JUMPDEST PUSH2 0x1508 SWAP2 SWAP1 PUSH2 0x5086 JUMP JUMPDEST SWAP1 POP PUSH1 0x0 DUP3 DUP12 PUSH1 0x1C DUP10 DUP2 SLOAD DUP2 LT PUSH2 0x1521 JUMPI PUSH2 0x1521 PUSH2 0x4F1C JUMP JUMPDEST PUSH1 0x0 SWAP2 DUP3 MSTORE PUSH1 0x20 SWAP1 SWAP2 KECCAK256 PUSH1 0x4 SWAP1 SWAP2 MUL ADD PUSH1 0x2 ADD SLOAD PUSH2 0x154F SWAP2 SWAP1 PUSH1 0x1 PUSH1 0x70 SHL SWAP1 DIV PUSH1 0x1 PUSH1 0x1 PUSH1 0x70 SHL SUB AND PUSH2 0x5051 JUMP JUMPDEST PUSH2 0x1559 SWAP2 SWAP1 PUSH2 0x5086 JUMP JUMPDEST SWAP1 POP PUSH1 0x0 PUSH1 0x1C DUP9 DUP2 SLOAD DUP2 LT PUSH2 0x1570 JUMPI PUSH2 0x1570 PUSH2 0x4F1C JUMP JUMPDEST PUSH1 0x0 SWAP2 DUP3 MSTORE PUSH1 0x20 DUP3 KECCAK256 PUSH1 0x3 PUSH1 0x4 SWAP1 SWAP3 MUL ADD ADD SLOAD PUSH1 0x1C DUP1 SLOAD PUSH1 0x1 PUSH1 0x1 PUSH1 0x70 SHL SUB SWAP1 SWAP3 AND SWAP4 POP PUSH2 0x15E9 SWAP2 DUP12 SWAP1 DUP2 LT PUSH2 0x15A8 JUMPI PUSH2 0x15A8 PUSH2 0x4F1C JUMP JUMPDEST SWAP1 PUSH1 0x0 MSTORE PUSH1 0x20 PUSH1 0x0 KECCAK256 SWAP1 PUSH1 0x4 MUL ADD PUSH1 0x2 ADD PUSH1 0xE SWAP1 SLOAD SWAP1 PUSH2 0x100 EXP SWAP1 DIV PUSH1 0x1 PUSH1 0x1 PUSH1 0x70 SHL SUB AND PUSH1 0x1 PUSH1 0x1 PUSH1 0x70 SHL SUB AND PUSH1 0x1C DUP12 DUP2 SLOAD DUP2 LT PUSH2 0xD24 JUMPI PUSH2 0xD24 PUSH2 0x4F1C JUMP JUMPDEST SWAP1 POP DUP3 DUP7 PUSH1 0x1E SLOAD PUSH2 0x15FA SWAP2 SWAP1 PUSH2 0x509A JUMP JUMPDEST PUSH2 0x1604 SWAP2 SWAP1 PUSH2 0x503A JUMP JUMPDEST PUSH1 0x1E DUP2 SWAP1 SSTORE POP DUP1 PUSH1 0x1C DUP11 DUP2 SLOAD DUP2 LT PUSH2 0x161E JUMPI PUSH2 0x161E PUSH2 0x4F1C JUMP JUMPDEST SWAP1 PUSH1 0x0 MSTORE PUSH1 0x20 PUSH1 0x0 KECCAK256 SWAP1 PUSH1 0x4 MUL ADD PUSH1 0x3 ADD PUSH1 0x0 PUSH2 0x100 EXP DUP2 SLOAD DUP2 PUSH1 0x1 PUSH1 0x1 PUSH1 0x70 SHL SUB MUL NOT AND SWAP1 DUP4 PUSH1 0x1 PUSH1 0x1 PUSH1 0x70 SHL SUB AND MUL OR SWAP1 SSTORE POP DUP4 DUP8 PUSH1 0x1C DUP12 DUP2 SLOAD DUP2 LT PUSH2 0x1668 JUMPI PUSH2 0x1668 PUSH2 0x4F1C JUMP JUMPDEST PUSH1 0x0 SWAP2 DUP3 MSTORE PUSH1 0x20 SWAP1 SWAP2 KECCAK256 PUSH1 0x2 PUSH1 0x4 SWAP1 SWAP3 MUL ADD ADD SLOAD PUSH2 0x168F SWAP2 SWAP1 PUSH1 0x1 PUSH1 0x1 PUSH1 0x70 SHL SUB AND PUSH2 0x50B2 JUMP JUMPDEST PUSH2 0x1699 SWAP2 SWAP1 PUSH2 0x5162 JUMP JUMPDEST PUSH1 0x1C DUP11 DUP2 SLOAD DUP2 LT PUSH2 0x16AC JUMPI PUSH2 0x16AC PUSH2 0x4F1C JUMP JUMPDEST SWAP1 PUSH1 0x0 MSTORE PUSH1 0x20 PUSH1 0x0 KECCAK256 SWAP1 PUSH1 0x4 MUL ADD PUSH1 0x2 ADD PUSH1 0x0 PUSH2 0x100 EXP DUP2 SLOAD DUP2 PUSH1 0x1 PUSH1 0x1 PUSH1 0x70 SHL SUB MUL NOT AND SWAP1 DUP4 PUSH1 0x1 PUSH1 0x1 PUSH1 0x70 SHL SUB AND MUL OR SWAP1 SSTORE POP DUP3 DUP7 PUSH1 0x1C DUP12 DUP2 SLOAD DUP2 LT PUSH2 0x16F6 JUMPI PUSH2 0x16F6 PUSH2 0x4F1C JUMP JUMPDEST SWAP1 PUSH1 0x0 MSTORE PUSH1 0x20 PUSH1 0x0 KECCAK256 SWAP1 PUSH1 0x4 MUL ADD PUSH1 0x2 ADD PUSH1 0xE SWAP1 SLOAD SWAP1 PUSH2 0x100 EXP SWAP1 DIV PUSH1 0x1 PUSH1 0x1 PUSH1 0x70 SHL SUB AND PUSH2 0x1725 SWAP2 SWAP1 PUSH2 0x50B2 JUMP JUMPDEST PUSH2 0x172F SWAP2 SWAP1 PUSH2 0x5162 JUMP JUMPDEST PUSH1 0x1C DUP11 DUP2 SLOAD DUP2 LT PUSH2 0x1742 JUMPI PUSH2 0x1742 PUSH2 0x4F1C JUMP JUMPDEST SWAP1 PUSH1 0x0 MSTORE PUSH1 0x20 PUSH1 0x0 KECCAK256 SWAP1 PUSH1 0x4 MUL ADD PUSH1 0x2 ADD PUSH1 0xE PUSH2 0x100 EXP DUP2 SLOAD DUP2 PUSH1 0x1 PUSH1 0x1 PUSH1 0x70 SHL SUB MUL NOT AND SWAP1 DUP4 PUSH1 0x1 PUSH1 0x1 PUSH1 0x70 SHL SUB AND MUL OR SWAP1 SSTORE POP PUSH2 0x1781 DUP10 DUP15 PUSH2 0x1D3A JUMP JUMPDEST PUSH1 0x20 SLOAD PUSH1 0x40 MLOAD PUSH4 0x18A8AD87 PUSH1 0xE0 SHL DUP2 MSTORE ADDRESS PUSH1 0x4 DUP3 ADD MSTORE PUSH1 0x24 DUP2 ADD DUP6 SWAP1 MSTORE PUSH1 0x1 PUSH1 0x1 PUSH1 0xA0 SHL SUB SWAP1 SWAP2 AND SWAP1 PUSH4 0x18A8AD87 SWAP1 PUSH1 0x44 ADD PUSH1 0x0 PUSH1 0x40 MLOAD DUP1 DUP4 SUB DUP2 PUSH1 0x0 DUP8 DUP1 EXTCODESIZE ISZERO DUP1 ISZERO PUSH2 0x17CD JUMPI PUSH1 0x0 DUP1 REVERT JUMPDEST POP GAS CALL ISZERO DUP1 ISZERO PUSH2 0x17E1 JUMPI RETURNDATASIZE PUSH1 0x0 DUP1 RETURNDATACOPY RETURNDATASIZE PUSH1 0x0 REVERT JUMPDEST POP POP POP POP PUSH1 0x0 PUSH2 0x1804 DUP4 PUSH1 0x1 PUSH1 0x1 PUSH1 0x70 SHL SUB AND DUP4 PUSH1 0x1 PUSH1 0x1 PUSH1 0x70 SHL SUB AND DUP9 PUSH2 0x28C6 JUMP JUMPDEST SWAP1 POP DUP1 ISZERO PUSH2 0x1835 JUMPI PUSH1 0x23 SLOAD PUSH1 0x40 DUP1 MLOAD PUSH1 0x20 DUP2 ADD SWAP1 SWAP2 MSTORE PUSH1 0x0 DUP2 MSTORE PUSH2 0x1835 SWAP2 PUSH1 0x1 PUSH1 0x1 PUSH1 0xA0 SHL SUB AND SWAP1 DUP13 SWAP1 DUP5 SWAP1 PUSH2 0x27B6 JUMP JUMPDEST POP POP POP PUSH2 0x1843 DUP13 DUP12 DUP5 PUSH2 0x2D35 JUMP JUMPDEST PUSH1 0x0 PUSH2 0x184E DUP14 PUSH2 0x26D5 JUMP JUMPDEST SWAP1 POP DUP7 PUSH2 0x185B DUP5 DUP4 PUSH2 0x509A JUMP JUMPDEST PUSH1 0xD SWAP2 EQ PUSH2 0x187C JUMPI PUSH1 0x40 MLOAD PUSH3 0x461BCD PUSH1 0xE5 SHL DUP2 MSTORE PUSH1 0x4 ADD PUSH2 0x8EE SWAP2 SWAP1 PUSH2 0x4FB5 JUMP JUMPDEST POP SWAP2 SWAP14 SWAP13 POP POP POP POP POP POP POP POP POP POP POP POP POP JUMP JUMPDEST PUSH1 0x0 DUP3 DUP2 MSTORE PUSH1 0x5 PUSH1 0x20 MSTORE PUSH1 0x40 DUP2 KECCAK256 PUSH2 0x1272 SWAP1 DUP4 PUSH2 0x2D70 JUMP JUMPDEST PUSH1 0x1 PUSH1 0x1 PUSH1 0xA0 SHL SUB DUP2 AND PUSH1 0x0 SWAP1 DUP2 MSTORE PUSH1 0x1D PUSH1 0x20 MSTORE PUSH1 0x40 DUP2 KECCAK256 SLOAD PUSH2 0x91A SWAP1 PUSH2 0x2D7C JUMP JUMPDEST PUSH1 0x0 SWAP2 DUP3 MSTORE PUSH1 0x4 PUSH1 0x20 SWAP1 DUP2 MSTORE PUSH1 0x40 DUP1 DUP5 KECCAK256 PUSH1 0x1 PUSH1 0x1 PUSH1 0xA0 SHL SUB SWAP4 SWAP1 SWAP4 AND DUP5 MSTORE SWAP2 SWAP1 MSTORE SWAP1 KECCAK256 SLOAD PUSH1 0xFF AND SWAP1 JUMP JUMPDEST PUSH1 0x60 PUSH1 0x7 DUP1 SLOAD PUSH2 0xA73 SWAP1 PUSH2 0x4F80 JUMP JUMPDEST PUSH1 0x1 PUSH1 0x1 PUSH1 0xA0 SHL SUB DUP2 AND PUSH1 0x0 SWAP1 DUP2 MSTORE PUSH1 0x1D PUSH1 0x20 MSTORE PUSH1 0x40 SWAP1 KECCAK256 SLOAD DUP2 SWAP1 ISZERO DUP1 ISZERO SWAP1 PUSH2 0x193A JUMPI POP PUSH1 0x20 SLOAD PUSH1 0x1 PUSH1 0x1 PUSH1 0xA0 SHL SUB DUP3 DUP2 AND SWAP2 AND EQ ISZERO JUMPDEST PUSH1 0xB SWAP1 PUSH2 0x195A JUMPI PUSH1 0x40 MLOAD PUSH3 0x461BCD PUSH1 0xE5 SHL DUP2 MSTORE PUSH1 0x4 ADD PUSH2 0x8EE SWAP2 SWAP1 PUSH2 0x4FB5 JUMP JUMPDEST POP PUSH1 0x1 PUSH1 0x1 PUSH1 0xA0 SHL SUB DUP3 AND PUSH1 0x0 SWAP1 DUP2 MSTORE PUSH1 0x1D PUSH1 0x20 MSTORE PUSH1 0x40 SWAP1 KECCAK256 SLOAD PUSH2 0x197D DUP4 PUSH2 0x26D5 JUMP JUMPDEST PUSH1 0x1C DUP3 DUP2 SLOAD DUP2 LT PUSH2 0x1990 JUMPI PUSH2 0x1990 PUSH2 0x4F1C JUMP JUMPDEST PUSH1 0x0 SWAP2 DUP3 MSTORE PUSH1 0x20 DUP1 DUP4 KECCAK256 PUSH1 0x4 SWAP3 SWAP1 SWAP3 MUL SWAP1 SWAP2 ADD PUSH1 0x2 ADD DUP1 SLOAD PUSH1 0x1 PUSH1 0x1 PUSH1 0x70 SHL SUB NOT AND PUSH1 0x1 PUSH1 0x1 PUSH1 0x70 SHL SUB SWAP5 SWAP1 SWAP5 AND SWAP4 SWAP1 SWAP4 OR SWAP1 SWAP3 SSTORE SWAP1 SLOAD PUSH2 0x19D9 SWAP1 PUSH1 0x1 PUSH1 0x1 PUSH1 0xA0 SHL SUB AND PUSH2 0x26D5 JUMP JUMPDEST SWAP1 POP PUSH1 0x1E SLOAD DUP2 GT PUSH2 0x1A39 JUMPI DUP1 PUSH1 0x1E SLOAD PUSH2 0x19F2 SWAP2 SWAP1 PUSH2 0x503A JUMP JUMPDEST PUSH1 0x1C DUP4 DUP2 SLOAD DUP2 LT PUSH2 0x1A05 JUMPI PUSH2 0x1A05 PUSH2 0x4F1C JUMP JUMPDEST SWAP1 PUSH1 0x0 MSTORE PUSH1 0x20 PUSH1 0x0 KECCAK256 SWAP1 PUSH1 0x4 MUL ADD PUSH1 0x2 ADD PUSH1 0xE SWAP1 SLOAD SWAP1 PUSH2 0x100 EXP SWAP1 DIV PUSH1 0x1 PUSH1 0x1 PUSH1 0x70 SHL SUB AND PUSH2 0x1A34 SWAP2 SWAP1 PUSH2 0x5162 JUMP JUMPDEST PUSH2 0x1A88 JUMP JUMPDEST PUSH1 0x1E SLOAD PUSH2 0x1A46 SWAP1 DUP3 PUSH2 0x503A JUMP JUMPDEST PUSH1 0x1C DUP4 DUP2 SLOAD DUP2 LT PUSH2 0x1A59 JUMPI PUSH2 0x1A59 PUSH2 0x4F1C JUMP JUMPDEST SWAP1 PUSH1 0x0 MSTORE PUSH1 0x20 PUSH1 0x0 KECCAK256 SWAP1 PUSH1 0x4 MUL ADD PUSH1 0x2 ADD PUSH1 0xE SWAP1 SLOAD SWAP1 PUSH2 0x100 EXP SWAP1 DIV PUSH1 0x1 PUSH1 0x1 PUSH1 0x70 SHL SUB AND PUSH2 0x1A88 SWAP2 SWAP1 PUSH2 0x50B2 JUMP JUMPDEST PUSH1 0x1C DUP4 DUP2 SLOAD DUP2 LT PUSH2 0x1A9B JUMPI PUSH2 0x1A9B PUSH2 0x4F1C JUMP JUMPDEST PUSH1 0x0 SWAP2 DUP3 MSTORE PUSH1 0x20 SWAP1 SWAP2 KECCAK256 PUSH1 0x2 PUSH1 0x4 SWAP1 SWAP3 MUL ADD ADD DUP1 SLOAD PUSH1 0x1 PUSH1 0x1 PUSH1 0x70 SHL SUB SWAP3 SWAP1 SWAP3 AND PUSH1 0x1 PUSH1 0x70 SHL MUL PUSH1 0x1 PUSH1 0x70 SHL PUSH1 0x1 PUSH1 0xE0 SHL SUB NOT SWAP1 SWAP3 AND SWAP2 SWAP1 SWAP2 OR SWAP1 SSTORE PUSH1 0x1E SSTORE POP POP POP JUMP JUMPDEST PUSH2 0x1170 CALLER DUP4 DUP4 PUSH2 0x2F36 JUMP JUMPDEST PUSH1 0x0 DUP1 DUP4 PUSH1 0xC TIMESTAMP DUP3 LT ISZERO PUSH2 0x1B11 JUMPI PUSH1 0x40 MLOAD PUSH3 0x461BCD PUSH1 0xE5 SHL DUP2 MSTORE PUSH1 0x4 ADD PUSH2 0x8EE SWAP2 SWAP1 PUSH2 0x4FB5 JUMP JUMPDEST POP PUSH1 0x17 DUP8 PUSH2 0x1B32 JUMPI PUSH1 0x40 MLOAD PUSH3 0x461BCD PUSH1 0xE5 SHL DUP2 MSTORE PUSH1 0x4 ADD PUSH2 0x8EE SWAP2 SWAP1 PUSH2 0x4FB5 JUMP JUMPDEST POP PUSH1 0x20 SLOAD CALLER SWAP1 PUSH1 0x0 SWAP1 PUSH1 0x1 PUSH1 0x1 PUSH1 0xA0 SHL SUB DUP13 DUP2 AND SWAP2 AND EQ DUP1 ISZERO SWAP1 PUSH2 0x1B63 JUMPI POP PUSH1 0x20 SLOAD PUSH1 0x1 PUSH1 0x1 PUSH1 0xA0 SHL SUB DUP12 DUP2 AND SWAP2 AND EQ JUMPDEST ISZERO PUSH2 0x1BB5 JUMPI PUSH2 0x1B72 DUP12 DUP11 PUSH2 0x2B47 JUMP JUMPDEST SWAP1 POP PUSH1 0x10 DUP9 DUP3 LT ISZERO PUSH2 0x1B97 JUMPI PUSH1 0x40 MLOAD PUSH3 0x461BCD PUSH1 0xE5 SHL DUP2 MSTORE PUSH1 0x4 ADD PUSH2 0x8EE SWAP2 SWAP1 PUSH2 0x4FB5 JUMP JUMPDEST POP PUSH2 0x1BA3 DUP12 DUP4 DUP12 PUSH2 0x2642 JUMP JUMPDEST PUSH2 0x1BB0 DUP12 PUSH1 0x0 DUP4 DUP10 PUSH2 0x3017 JUMP JUMPDEST PUSH2 0x1CE2 JUMP JUMPDEST PUSH1 0x20 SLOAD PUSH1 0x1 PUSH1 0x1 PUSH1 0xA0 SHL SUB DUP13 DUP2 AND SWAP2 AND EQ DUP1 ISZERO PUSH2 0x1BE0 JUMPI POP PUSH1 0x20 SLOAD PUSH1 0x1 PUSH1 0x1 PUSH1 0xA0 SHL SUB DUP12 DUP2 AND SWAP2 AND EQ ISZERO JUMPDEST ISZERO PUSH2 0x1C2D JUMPI PUSH2 0x1BEF DUP11 DUP11 PUSH2 0x2C43 JUMP JUMPDEST SWAP1 POP PUSH1 0x11 DUP9 DUP3 LT ISZERO PUSH2 0x1C14 JUMPI PUSH1 0x40 MLOAD PUSH3 0x461BCD PUSH1 0xE5 SHL DUP2 MSTORE PUSH1 0x4 ADD PUSH2 0x8EE SWAP2 SWAP1 PUSH2 0x4FB5 JUMP JUMPDEST POP PUSH2 0x1C20 DUP12 DUP4 DUP12 PUSH2 0x2642 JUMP JUMPDEST PUSH2 0x1BB0 DUP11 DUP3 PUSH1 0x0 DUP10 PUSH2 0x3017 JUMP JUMPDEST PUSH1 0x20 SLOAD PUSH1 0x1 PUSH1 0x1 PUSH1 0xA0 SHL SUB DUP13 DUP2 AND SWAP2 AND EQ DUP1 ISZERO SWAP1 PUSH2 0x1C59 JUMPI POP PUSH1 0x20 SLOAD PUSH1 0x1 PUSH1 0x1 PUSH1 0xA0 SHL SUB DUP13 DUP2 AND SWAP2 AND EQ ISZERO JUMPDEST ISZERO PUSH2 0x1CC7 JUMPI PUSH1 0x0 PUSH2 0x1C6A DUP13 DUP12 PUSH2 0x2B47 JUMP JUMPDEST SWAP1 POP PUSH2 0x1C76 DUP12 DUP3 PUSH2 0x2C43 JUMP JUMPDEST SWAP2 POP PUSH1 0x11 DUP10 DUP4 LT ISZERO PUSH2 0x1C9B JUMPI PUSH1 0x40 MLOAD PUSH3 0x461BCD PUSH1 0xE5 SHL DUP2 MSTORE PUSH1 0x4 ADD PUSH2 0x8EE SWAP2 SWAP1 PUSH2 0x4FB5 JUMP JUMPDEST POP PUSH2 0x1CA7 DUP13 DUP5 DUP13 PUSH2 0x2642 JUMP JUMPDEST PUSH2 0x1CB4 DUP13 PUSH1 0x0 DUP4 ADDRESS PUSH2 0x3017 JUMP JUMPDEST PUSH2 0x1CC1 DUP12 DUP4 PUSH1 0x0 DUP11 PUSH2 0x3017 JUMP JUMPDEST POP PUSH2 0x1CE2 JUMP JUMPDEST PUSH1 0x40 MLOAD PUSH3 0x461BCD PUSH1 0xE5 SHL DUP2 MSTORE PUSH2 0x8EE SWAP1 PUSH1 0x14 SWAP1 PUSH1 0x4 ADD PUSH2 0x4FB5 JUMP JUMPDEST SWAP8 SWAP11 SWAP8 SWAP10 POP SWAP7 SWAP8 POP POP POP POP POP POP POP POP JUMP JUMPDEST PUSH1 0x0 PUSH2 0x1CFF DUP2 CALLER PUSH2 0x25D4 JUMP JUMPDEST PUSH2 0x1D27 DUP3 PUSH1 0x40 MLOAD PUSH1 0x20 ADD PUSH2 0x1D13 SWAP2 SWAP1 PUSH2 0x518A JUMP JUMPDEST PUSH1 0x40 MLOAD PUSH1 0x20 DUP2 DUP4 SUB SUB DUP2 MSTORE SWAP1 PUSH1 0x40 MSTORE PUSH2 0x3670 JUMP JUMPDEST DUP2 MLOAD PUSH2 0x10F1 SWAP1 PUSH1 0x8 SWAP1 PUSH1 0x20 DUP6 ADD SWAP1 PUSH2 0x4515 JUMP JUMPDEST PUSH2 0x1170 CALLER DUP4 DUP4 PUSH2 0x3683 JUMP JUMPDEST PUSH2 0x1D4D PUSH2 0x4599 JUMP JUMPDEST PUSH1 0x1 PUSH1 0x1 PUSH1 0xA0 SHL SUB DUP3 AND PUSH1 0x0 SWAP1 DUP2 MSTORE PUSH1 0x1D PUSH1 0x20 MSTORE PUSH1 0x40 SWAP1 KECCAK256 SLOAD PUSH1 0x1C DUP1 SLOAD SWAP1 SWAP2 SWAP1 DUP2 LT PUSH2 0x1D7B JUMPI PUSH2 0x1D7B PUSH2 0x4F1C JUMP JUMPDEST PUSH1 0x0 SWAP2 DUP3 MSTORE PUSH1 0x20 SWAP2 DUP3 SWAP1 KECCAK256 PUSH1 0x40 DUP1 MLOAD PUSH1 0xA0 DUP2 ADD DUP3 MSTORE PUSH1 0x4 SWAP1 SWAP4 MUL SWAP1 SWAP2 ADD DUP1 SLOAD PUSH1 0x1 PUSH1 0x1 PUSH1 0xA0 SHL SUB AND DUP4 MSTORE DUP2 MLOAD PUSH2 0x100 DUP2 ADD SWAP1 SWAP3 MSTORE SWAP2 SWAP3 DUP4 ADD SWAP1 PUSH1 0x1 DUP4 ADD PUSH1 0x8 DUP3 DUP3 DUP3 PUSH1 0x20 MUL DUP3 ADD SWAP2 PUSH1 0x0 SWAP1 JUMPDEST DUP3 DUP3 SWAP1 SLOAD SWAP1 PUSH2 0x100 EXP SWAP1 DIV PUSH4 0xFFFFFFFF AND PUSH4 0xFFFFFFFF AND DUP2 MSTORE PUSH1 0x20 ADD SWAP1 PUSH1 0x4 ADD SWAP1 PUSH1 0x20 DUP3 PUSH1 0x3 ADD DIV SWAP3 DUP4 ADD SWAP3 PUSH1 0x1 SUB DUP3 MUL SWAP2 POP DUP1 DUP5 GT PUSH2 0x1DC7 JUMPI POP POP POP SWAP3 DUP5 MSTORE POP POP POP PUSH1 0x2 DUP3 ADD SLOAD PUSH1 0x1 PUSH1 0x1 PUSH1 0x70 SHL SUB DUP1 DUP3 AND PUSH1 0x20 DUP5 ADD MSTORE PUSH1 0x1 PUSH1 0x70 SHL SWAP1 SWAP2 DIV DUP2 AND PUSH1 0x40 DUP4 ADD MSTORE PUSH1 0x3 SWAP1 SWAP3 ADD SLOAD SWAP1 SWAP2 AND PUSH1 0x60 SWAP1 SWAP2 ADD MSTORE SWAP3 SWAP2 POP POP JUMP JUMPDEST PUSH1 0x22 SLOAD PUSH2 0x1E6C SWAP1 PUSH1 0x1 PUSH1 0x1 PUSH1 0xA0 SHL SUB AND PUSH7 0x2386F26FC10000 PUSH10 0x152D02C7E14AF6800000 CALLER PUSH2 0x1F86 JUMP JUMPDEST JUMP JUMPDEST PUSH1 0x20 SLOAD PUSH1 0x0 SWAP1 PUSH1 0x1 PUSH1 0x1 PUSH1 0xA0 SHL SUB DUP6 DUP2 AND SWAP2 AND EQ DUP1 ISZERO SWAP1 PUSH2 0x1E9C JUMPI POP PUSH1 0x20 SLOAD PUSH1 0x1 PUSH1 0x1 PUSH1 0xA0 SHL SUB DUP5 DUP2 AND SWAP2 AND EQ JUMPDEST ISZERO PUSH2 0x1EAB JUMPI PUSH2 0x11E4 DUP5 DUP4 PUSH2 0x37FC JUMP JUMPDEST PUSH1 0x20 SLOAD PUSH1 0x1 PUSH1 0x1 PUSH1 0xA0 SHL SUB DUP6 DUP2 AND SWAP2 AND EQ DUP1 ISZERO PUSH2 0x1ED6 JUMPI POP PUSH1 0x20 SLOAD PUSH1 0x1 PUSH1 0x1 PUSH1 0xA0 SHL SUB DUP5 DUP2 AND SWAP2 AND EQ ISZERO JUMPDEST ISZERO PUSH2 0x1EE5 JUMPI PUSH2 0x11E4 DUP4 DUP4 PUSH2 0x38ED JUMP JUMPDEST PUSH1 0x20 SLOAD PUSH1 0x1 PUSH1 0x1 PUSH1 0xA0 SHL SUB DUP6 DUP2 AND SWAP2 AND EQ DUP1 ISZERO SWAP1 PUSH2 0x1F11 JUMPI POP PUSH1 0x20 SLOAD PUSH1 0x1 PUSH1 0x1 PUSH1 0xA0 SHL SUB DUP5 DUP2 AND SWAP2 AND EQ ISZERO JUMPDEST ISZERO PUSH2 0x1272 JUMPI PUSH1 0x0 PUSH2 0x1F22 DUP5 DUP5 PUSH2 0x38ED JUMP JUMPDEST SWAP1 POP PUSH2 0x126E DUP6 DUP3 PUSH2 0x37FC JUMP JUMPDEST PUSH1 0x0 DUP2 DUP2 MSTORE PUSH1 0x5 PUSH1 0x20 MSTORE PUSH1 0x40 DUP2 KECCAK256 PUSH2 0x91A SWAP1 PUSH2 0x39DF JUMP JUMPDEST PUSH2 0x1F4D PUSH2 0x4599 JUMP JUMPDEST PUSH1 0x1C DUP3 DUP2 SLOAD DUP2 LT PUSH2 0x1D7B JUMPI PUSH2 0x1D7B PUSH2 0x4F1C JUMP JUMPDEST PUSH1 0x0 DUP3 DUP2 MSTORE PUSH1 0x4 PUSH1 0x20 MSTORE PUSH1 0x40 SWAP1 KECCAK256 PUSH1 0x1 ADD SLOAD PUSH2 0x1F7C DUP2 CALLER PUSH2 0x25D4 JUMP JUMPDEST PUSH2 0x10F1 DUP4 DUP4 PUSH2 0x2B25 JUMP JUMPDEST PUSH1 0x1 PUSH1 0x1 PUSH1 0xA0 SHL SUB DUP5 AND PUSH1 0x0 SWAP1 DUP2 MSTORE PUSH1 0x1D PUSH1 0x20 MSTORE PUSH1 0x40 SWAP1 KECCAK256 SLOAD DUP5 SWAP1 ISZERO DUP1 ISZERO PUSH2 0x1FBC JUMPI POP PUSH1 0x20 SLOAD PUSH1 0x1 PUSH1 0x1 PUSH1 0xA0 SHL SUB DUP3 DUP2 AND SWAP2 AND EQ ISZERO JUMPDEST PUSH1 0xA SWAP1 PUSH2 0x1FDC JUMPI PUSH1 0x40 MLOAD PUSH3 0x461BCD PUSH1 0xE5 SHL DUP2 MSTORE PUSH1 0x4 ADD PUSH2 0x8EE SWAP2 SWAP1 PUSH2 0x4FB5 JUMP JUMPDEST POP PUSH1 0x1C SLOAD PUSH2 0x1FEB DUP7 CALLER DUP8 PUSH2 0x2642 JUMP JUMPDEST PUSH1 0x20 SLOAD PUSH1 0x40 MLOAD PUSH4 0xBB9FF5D PUSH1 0xE0 SHL DUP2 MSTORE ADDRESS PUSH1 0x4 DUP3 ADD MSTORE PUSH1 0x24 DUP2 ADD DUP7 SWAP1 MSTORE PUSH1 0x1 PUSH1 0x1 PUSH1 0xA0 SHL SUB SWAP1 SWAP2 AND SWAP1 PUSH4 0xBB9FF5D SWAP1 PUSH1 0x44 ADD PUSH1 0x0 PUSH1 0x40 MLOAD DUP1 DUP4 SUB DUP2 PUSH1 0x0 DUP8 DUP1 EXTCODESIZE ISZERO DUP1 ISZERO PUSH2 0x2037 JUMPI PUSH1 0x0 DUP1 REVERT JUMPDEST POP GAS CALL ISZERO DUP1 ISZERO PUSH2 0x204B JUMPI RETURNDATASIZE PUSH1 0x0 DUP1 RETURNDATACOPY RETURNDATASIZE PUSH1 0x0 REVERT JUMPDEST POP POP POP POP PUSH2 0x2058 DUP7 PUSH2 0x26D5 JUMP JUMPDEST SWAP5 POP PUSH1 0xE DUP6 PUSH2 0x207A JUMPI PUSH1 0x40 MLOAD PUSH3 0x461BCD PUSH1 0xE5 SHL DUP2 MSTORE PUSH1 0x4 ADD PUSH2 0x8EE SWAP2 SWAP1 PUSH2 0x4FB5 JUMP JUMPDEST POP PUSH1 0x0 PUSH2 0x208A PUSH2 0xD4B DUP7 DUP9 PUSH2 0x5051 JUMP JUMPDEST SWAP1 POP PUSH2 0x2094 PUSH2 0x45D7 JUMP JUMPDEST PUSH1 0x40 DUP1 MLOAD PUSH1 0xA0 DUP2 ADD DUP3 MSTORE PUSH1 0x1 PUSH1 0x1 PUSH1 0xA0 SHL SUB DUP11 DUP2 AND DUP3 MSTORE PUSH1 0x20 DUP3 ADD DUP5 DUP2 MSTORE PUSH1 0x1 PUSH1 0x1 PUSH1 0x70 SHL SUB DUP12 DUP2 AND SWAP5 DUP5 ADD SWAP5 SWAP1 SWAP5 MSTORE DUP10 DUP5 AND PUSH1 0x60 DUP5 ADD MSTORE SWAP3 DUP6 AND PUSH1 0x80 DUP4 ADD MSTORE PUSH1 0x1C DUP1 SLOAD PUSH1 0x1 DUP2 ADD DUP3 SSTORE PUSH1 0x0 SWAP2 SWAP1 SWAP2 MSTORE DUP3 MLOAD PUSH32 0xE4562A10381DEC21B205ED72637E6B1B523BDD0E4D4D50AF5CD23DD4500A211 PUSH1 0x4 SWAP1 SWAP3 MUL SWAP2 DUP3 ADD DUP1 SLOAD PUSH1 0x1 PUSH1 0x1 PUSH1 0xA0 SHL SUB NOT AND SWAP2 SWAP1 SWAP4 AND OR DUP3 SSTORE SWAP3 MLOAD SWAP2 SWAP3 DUP4 SWAP3 PUSH2 0x2156 SWAP2 PUSH32 0xE4562A10381DEC21B205ED72637E6B1B523BDD0E4D4D50AF5CD23DD4500A212 ADD SWAP1 PUSH1 0x8 PUSH2 0x45F6 JUMP JUMPDEST POP PUSH1 0x40 DUP3 DUP2 ADD MLOAD PUSH1 0x2 DUP4 ADD DUP1 SLOAD PUSH1 0x60 DUP7 ADD MLOAD PUSH1 0x1 PUSH1 0x1 PUSH1 0x70 SHL SUB SWAP1 DUP2 AND PUSH1 0x1 PUSH1 0x70 SHL MUL PUSH1 0x1 PUSH1 0x1 PUSH1 0xE0 SHL SUB NOT SWAP1 SWAP3 AND SWAP4 DUP2 AND SWAP4 SWAP1 SWAP4 OR OR SWAP1 SSTORE PUSH1 0x80 SWAP1 SWAP4 ADD MLOAD PUSH1 0x3 SWAP1 SWAP3 ADD DUP1 SLOAD SWAP3 SWAP1 SWAP4 AND PUSH1 0x1 PUSH1 0x1 PUSH1 0x70 SHL SUB NOT SWAP3 SWAP1 SWAP3 AND SWAP2 SWAP1 SWAP2 OR SWAP1 SWAP2 SSTORE PUSH1 0x1 PUSH1 0x1 PUSH1 0xA0 SHL SUB DUP11 AND PUSH1 0x0 SWAP1 DUP2 MSTORE PUSH1 0x1D PUSH1 0x20 MSTORE SWAP1 DUP2 KECCAK256 DUP6 SWAP1 SSTORE PUSH1 0x1E DUP1 SLOAD DUP10 SWAP3 SWAP1 PUSH2 0x21E0 SWAP1 DUP5 SWAP1 PUSH2 0x509A JUMP JUMPDEST SWAP3 POP POP DUP2 SWAP1 SSTORE POP PUSH2 0x2206 PUSH2 0xDEAD DUP6 PUSH2 0x3E8 PUSH1 0x40 MLOAD DUP1 PUSH1 0x20 ADD PUSH1 0x40 MSTORE DUP1 PUSH1 0x0 DUP2 MSTORE POP PUSH2 0x27B6 JUMP JUMPDEST PUSH1 0x0 PUSH2 0x3E8 PUSH2 0x2218 PUSH2 0xD4B DUP11 DUP13 PUSH2 0x5051 JUMP JUMPDEST PUSH2 0x2222 SWAP2 SWAP1 PUSH2 0x503A JUMP JUMPDEST SWAP1 POP PUSH2 0x223F DUP8 DUP7 DUP4 PUSH1 0x40 MLOAD DUP1 PUSH1 0x20 ADD PUSH1 0x40 MSTORE DUP1 PUSH1 0x0 DUP2 MSTORE POP PUSH2 0x27B6 JUMP JUMPDEST POP POP POP POP POP POP POP POP POP POP JUMP JUMPDEST PUSH1 0x1F DUP1 SLOAD PUSH1 0x1 PUSH1 0x1 PUSH1 0xA0 SHL SUB DUP1 DUP8 AND PUSH1 0x1 PUSH1 0x1 PUSH1 0xA0 SHL SUB NOT SWAP3 DUP4 AND DUP2 OR SWAP1 SWAP4 SSTORE PUSH1 0x20 DUP1 SLOAD DUP8 DUP4 AND SWAP1 DUP5 AND OR SWAP1 SSTORE PUSH1 0x21 DUP1 SLOAD SWAP2 DUP7 AND SWAP2 SWAP1 SWAP3 AND OR SWAP1 SSTORE PUSH2 0x22A6 SWAP1 PUSH10 0xD3C21BCECCEDA1000000 PUSH10 0x69E10DE76676D0800000 CALLER PUSH2 0x1F86 JUMP JUMPDEST PUSH1 0x21 SLOAD PUSH2 0x10C4 SWAP1 PUSH1 0x1 PUSH1 0x1 PUSH1 0xA0 SHL SUB AND PUSH10 0x943B1377290CBD800000 DUP1 CALLER PUSH2 0x1F86 JUMP JUMPDEST PUSH2 0x10C4 DUP6 DUP6 DUP6 DUP6 DUP6 PUSH2 0x39E9 JUMP JUMPDEST PUSH2 0x9E7 DUP5 DUP5 DUP5 DUP5 PUSH2 0x3017 JUMP JUMPDEST PUSH1 0x0 DUP1 DUP4 PUSH1 0xC TIMESTAMP DUP3 LT ISZERO PUSH2 0x2308 JUMPI PUSH1 0x40 MLOAD PUSH3 0x461BCD PUSH1 0xE5 SHL DUP2 MSTORE PUSH1 0x4 ADD PUSH2 0x8EE SWAP2 SWAP1 PUSH2 0x4FB5 JUMP JUMPDEST POP PUSH1 0x20 SLOAD CALLER SWAP1 PUSH1 0x0 SWAP1 PUSH1 0x1 PUSH1 0x1 PUSH1 0xA0 SHL SUB DUP13 DUP2 AND SWAP2 AND EQ DUP1 ISZERO SWAP1 PUSH2 0x2339 JUMPI POP PUSH1 0x20 SLOAD PUSH1 0x1 PUSH1 0x1 PUSH1 0xA0 SHL SUB DUP12 DUP2 AND SWAP2 AND EQ JUMPDEST ISZERO PUSH2 0x23AF JUMPI PUSH2 0x2348 DUP12 DUP11 PUSH2 0x37FC JUMP JUMPDEST SWAP1 POP PUSH1 0x13 DUP9 DUP3 GT ISZERO PUSH2 0x236D JUMPI PUSH1 0x40 MLOAD PUSH3 0x461BCD PUSH1 0xE5 SHL DUP2 MSTORE PUSH1 0x4 ADD PUSH2 0x8EE SWAP2 SWAP1 PUSH2 0x4FB5 JUMP JUMPDEST POP PUSH1 0x17 PUSH1 0x1 DUP3 GT PUSH2 0x2391 JUMPI PUSH1 0x40 MLOAD PUSH3 0x461BCD PUSH1 0xE5 SHL DUP2 MSTORE PUSH1 0x4 ADD PUSH2 0x8EE SWAP2 SWAP1 PUSH2 0x4FB5 JUMP JUMPDEST POP PUSH2 0x239D DUP12 DUP4 DUP4 PUSH2 0x2642 JUMP JUMPDEST PUSH2 0x23AA DUP12 PUSH1 0x0 DUP12 DUP10 PUSH2 0x3017 JUMP JUMPDEST PUSH2 0x2529 JUMP JUMPDEST PUSH1 0x20 SLOAD PUSH1 0x1 PUSH1 0x1 PUSH1 0xA0 SHL SUB DUP13 DUP2 AND SWAP2 AND EQ DUP1 ISZERO PUSH2 0x23DA JUMPI POP PUSH1 0x20 SLOAD PUSH1 0x1 PUSH1 0x1 PUSH1 0xA0 SHL SUB DUP12 DUP2 AND SWAP2 AND EQ ISZERO JUMPDEST ISZERO PUSH2 0x244B JUMPI PUSH2 0x23E9 DUP11 DUP11 PUSH2 0x38ED JUMP JUMPDEST SWAP1 POP PUSH1 0x12 DUP9 DUP3 GT ISZERO PUSH2 0x240E JUMPI PUSH1 0x40 MLOAD PUSH3 0x461BCD PUSH1 0xE5 SHL DUP2 MSTORE PUSH1 0x4 ADD PUSH2 0x8EE SWAP2 SWAP1 PUSH2 0x4FB5 JUMP JUMPDEST POP PUSH1 0x17 PUSH1 0x1 DUP3 GT PUSH2 0x2432 JUMPI PUSH1 0x40 MLOAD PUSH3 0x461BCD PUSH1 0xE5 SHL DUP2 MSTORE PUSH1 0x4 ADD PUSH2 0x8EE SWAP2 SWAP1 PUSH2 0x4FB5 JUMP JUMPDEST POP PUSH2 0x243E DUP12 DUP4 DUP4 PUSH2 0x2642 JUMP JUMPDEST PUSH2 0x23AA DUP11 DUP11 PUSH1 0x0 DUP10 PUSH2 0x3017 JUMP JUMPDEST PUSH1 0x20 SLOAD PUSH1 0x1 PUSH1 0x1 PUSH1 0xA0 SHL SUB DUP13 DUP2 AND SWAP2 AND EQ DUP1 ISZERO SWAP1 PUSH2 0x2477 JUMPI POP PUSH1 0x20 SLOAD PUSH1 0x1 PUSH1 0x1 PUSH1 0xA0 SHL SUB DUP12 DUP2 AND SWAP2 AND EQ ISZERO JUMPDEST ISZERO PUSH2 0x1CC7 JUMPI PUSH1 0x0 PUSH2 0x2488 DUP12 DUP12 PUSH2 0x38ED JUMP JUMPDEST SWAP1 POP PUSH1 0x17 PUSH1 0x1 DUP3 GT PUSH2 0x24AD JUMPI PUSH1 0x40 MLOAD PUSH3 0x461BCD PUSH1 0xE5 SHL DUP2 MSTORE PUSH1 0x4 ADD PUSH2 0x8EE SWAP2 SWAP1 PUSH2 0x4FB5 JUMP JUMPDEST POP PUSH2 0x24B8 DUP13 DUP3 PUSH2 0x37FC JUMP JUMPDEST SWAP2 POP PUSH1 0x13 DUP10 DUP4 GT ISZERO PUSH2 0x24DD JUMPI PUSH1 0x40 MLOAD PUSH3 0x461BCD PUSH1 0xE5 SHL DUP2 MSTORE PUSH1 0x4 ADD PUSH2 0x8EE SWAP2 SWAP1 PUSH2 0x4FB5 JUMP JUMPDEST POP PUSH1 0x17 PUSH1 0x1 DUP4 GT PUSH2 0x2501 JUMPI PUSH1 0x40 MLOAD PUSH3 0x461BCD PUSH1 0xE5 SHL DUP2 MSTORE PUSH1 0x4 ADD PUSH2 0x8EE SWAP2 SWAP1 PUSH2 0x4FB5 JUMP JUMPDEST POP PUSH2 0x250D DUP13 DUP5 DUP5 PUSH2 0x2642 JUMP JUMPDEST PUSH2 0x251A DUP13 PUSH1 0x0 DUP4 ADDRESS PUSH2 0x3017 JUMP JUMPDEST PUSH2 0x2527 DUP12 DUP12 PUSH1 0x0 DUP11 PUSH2 0x3017 JUMP JUMPDEST POP JUMPDEST SWAP11 SWAP8 SWAP10 POP SWAP7 SWAP8 POP POP POP POP POP POP POP POP JUMP JUMPDEST PUSH2 0x2543 DUP3 DUP3 PUSH2 0x18C9 JUMP JUMPDEST PUSH2 0x1170 JUMPI PUSH1 0x0 DUP3 DUP2 MSTORE PUSH1 0x4 PUSH1 0x20 SWAP1 DUP2 MSTORE PUSH1 0x40 DUP1 DUP4 KECCAK256 PUSH1 0x1 PUSH1 0x1 PUSH1 0xA0 SHL SUB DUP6 AND DUP5 MSTORE SWAP1 SWAP2 MSTORE SWAP1 KECCAK256 DUP1 SLOAD PUSH1 0xFF NOT AND PUSH1 0x1 OR SWAP1 SSTORE PUSH2 0x257B CALLER SWAP1 JUMP JUMPDEST PUSH1 0x1 PUSH1 0x1 PUSH1 0xA0 SHL SUB AND DUP2 PUSH1 0x1 PUSH1 0x1 PUSH1 0xA0 SHL SUB AND DUP4 PUSH32 0x2F8788117E7EFF1D82E926EC794901D17C78024A50270940304540A733656F0D PUSH1 0x40 MLOAD PUSH1 0x40 MLOAD DUP1 SWAP2 SUB SWAP1 LOG4 POP POP JUMP JUMPDEST PUSH1 0x0 PUSH2 0x1272 DUP4 PUSH1 0x1 PUSH1 0x1 PUSH1 0xA0 SHL SUB DUP5 AND PUSH2 0x3B06 JUMP JUMPDEST PUSH2 0x25DE DUP3 DUP3 PUSH2 0x18C9 JUMP JUMPDEST PUSH2 0x1170 JUMPI PUSH2 0x25F6 DUP2 PUSH1 0x1 PUSH1 0x1 PUSH1 0xA0 SHL SUB AND PUSH1 0x14 PUSH2 0x3B55 JUMP JUMPDEST PUSH2 0x2601 DUP4 PUSH1 0x20 PUSH2 0x3B55 JUMP JUMPDEST PUSH1 0x40 MLOAD PUSH1 0x20 ADD PUSH2 0x2612 SWAP3 SWAP2 SWAP1 PUSH2 0x51B7 JUMP JUMPDEST PUSH1 0x40 DUP1 MLOAD PUSH1 0x1F NOT DUP2 DUP5 SUB ADD DUP2 MSTORE SWAP1 DUP3 SWAP1 MSTORE PUSH3 0x461BCD PUSH1 0xE5 SHL DUP3 MSTORE PUSH2 0x8EE SWAP2 PUSH1 0x4 ADD PUSH2 0x4818 JUMP JUMPDEST PUSH2 0x1170 DUP3 DUP3 PUSH2 0x2B03 JUMP JUMPDEST PUSH1 0x22 SLOAD PUSH1 0x1 PUSH1 0x1 PUSH1 0xA0 SHL SUB DUP5 DUP2 AND SWAP2 AND EQ DUP1 ISZERO SWAP1 PUSH2 0x2669 JUMPI POP PUSH1 0x1 PUSH1 0x1 PUSH1 0xA0 SHL SUB DUP3 AND ADDRESS EQ ISZERO JUMPDEST ISZERO PUSH2 0x269C JUMPI PUSH1 0xF CALLVALUE ISZERO PUSH2 0x268F JUMPI PUSH1 0x40 MLOAD PUSH3 0x461BCD PUSH1 0xE5 SHL DUP2 MSTORE PUSH1 0x4 ADD PUSH2 0x8EE SWAP2 SWAP1 PUSH2 0x4FB5 JUMP JUMPDEST POP PUSH2 0x10F1 DUP4 DUP4 ADDRESS DUP5 PUSH2 0x3CF1 JUMP JUMPDEST PUSH1 0x22 SLOAD PUSH1 0x1 PUSH1 0x1 PUSH1 0xA0 SHL SUB DUP5 DUP2 AND SWAP2 AND EQ ISZERO PUSH2 0x10F1 JUMPI PUSH1 0xF CALLVALUE DUP3 GT ISZERO PUSH2 0x9E7 JUMPI PUSH1 0x40 MLOAD PUSH3 0x461BCD PUSH1 0xE5 SHL DUP2 MSTORE PUSH1 0x4 ADD PUSH2 0x8EE SWAP2 SWAP1 PUSH2 0x4FB5 JUMP JUMPDEST PUSH1 0x22 SLOAD PUSH1 0x0 SWAP1 PUSH1 0x1 PUSH1 0x1 PUSH1 0xA0 SHL SUB DUP4 DUP2 AND SWAP2 AND EQ ISZERO PUSH2 0x26F5 JUMPI POP SELFBALANCE SWAP2 SWAP1 POP JUMP JUMPDEST PUSH1 0x40 MLOAD PUSH4 0x70A08231 PUSH1 0xE0 SHL DUP2 MSTORE ADDRESS PUSH1 0x4 DUP3 ADD MSTORE PUSH1 0x1 PUSH1 0x1 PUSH1 0xA0 SHL SUB DUP4 AND SWAP1 PUSH4 0x70A08231 SWAP1 PUSH1 0x24 ADD PUSH1 0x20 PUSH1 0x40 MLOAD DUP1 DUP4 SUB DUP2 DUP7 GAS STATICCALL ISZERO DUP1 ISZERO PUSH2 0x2739 JUMPI RETURNDATASIZE PUSH1 0x0 DUP1 RETURNDATACOPY RETURNDATASIZE PUSH1 0x0 REVERT JUMPDEST POP POP POP POP PUSH1 0x40 MLOAD RETURNDATASIZE PUSH1 0x1F NOT PUSH1 0x1F DUP3 ADD AND DUP3 ADD DUP1 PUSH1 0x40 MSTORE POP DUP2 ADD SWAP1 PUSH2 0x91A SWAP2 SWAP1 PUSH2 0x522C JUMP JUMPDEST PUSH1 0x0 DUP1 PUSH1 0x2 PUSH2 0x276D DUP5 PUSH1 0x1 PUSH2 0x509A JUMP JUMPDEST PUSH2 0x2777 SWAP2 SWAP1 PUSH2 0x5086 JUMP JUMPDEST SWAP1 POP DUP3 SWAP2 POP JUMPDEST DUP2 DUP2 LT ISZERO PUSH2 0x27B0 JUMPI SWAP1 POP DUP1 PUSH1 0x2 DUP2 PUSH2 0x2795 DUP2 DUP7 PUSH2 0x5086 JUMP JUMPDEST PUSH2 0x279F SWAP2 SWAP1 PUSH2 0x509A JUMP JUMPDEST PUSH2 0x27A9 SWAP2 SWAP1 PUSH2 0x5086 JUMP JUMPDEST SWAP1 POP PUSH2 0x277D JUMP JUMPDEST POP SWAP2 SWAP1 POP JUMP JUMPDEST PUSH1 0x1 PUSH1 0x1 PUSH1 0xA0 SHL SUB DUP5 AND PUSH2 0x2816 JUMPI PUSH1 0x40 MLOAD PUSH3 0x461BCD PUSH1 0xE5 SHL DUP2 MSTORE PUSH1 0x20 PUSH1 0x4 DUP3 ADD MSTORE PUSH1 0x21 PUSH1 0x24 DUP3 ADD MSTORE PUSH32 0x455243313135353A206D696E7420746F20746865207A65726F20616464726573 PUSH1 0x44 DUP3 ADD MSTORE PUSH1 0x73 PUSH1 0xF8 SHL PUSH1 0x64 DUP3 ADD MSTORE PUSH1 0x84 ADD PUSH2 0x8EE JUMP JUMPDEST CALLER PUSH2 0x2836 DUP2 PUSH1 0x0 DUP8 PUSH2 0x2827 DUP9 PUSH2 0x3DE1 JUMP JUMPDEST PUSH2 0x2830 DUP9 PUSH2 0x3DE1 JUMP JUMPDEST DUP8 PUSH2 0x3E2C JUMP JUMPDEST PUSH1 0x0 DUP5 DUP2 MSTORE PUSH1 0x20 DUP2 DUP2 MSTORE PUSH1 0x40 DUP1 DUP4 KECCAK256 PUSH1 0x1 PUSH1 0x1 PUSH1 0xA0 SHL SUB DUP10 AND DUP5 MSTORE SWAP1 SWAP2 MSTORE DUP2 KECCAK256 DUP1 SLOAD DUP6 SWAP3 SWAP1 PUSH2 0x2866 SWAP1 DUP5 SWAP1 PUSH2 0x509A JUMP JUMPDEST SWAP1 SWAP2 SSTORE POP POP PUSH1 0x40 DUP1 MLOAD DUP6 DUP2 MSTORE PUSH1 0x20 DUP2 ADD DUP6 SWAP1 MSTORE PUSH1 0x1 PUSH1 0x1 PUSH1 0xA0 SHL SUB DUP1 DUP9 AND SWAP3 PUSH1 0x0 SWAP3 SWAP2 DUP6 AND SWAP2 PUSH32 0xC3D58168C5AE7397731D063D5BBF3D657854427343F4C083240F7AACAA2D0F62 SWAP2 ADD PUSH1 0x40 MLOAD DUP1 SWAP2 SUB SWAP1 LOG4 PUSH2 0x10C4 DUP2 PUSH1 0x0 DUP8 DUP8 DUP8 DUP8 PUSH2 0x3F38 JUMP JUMPDEST PUSH1 0x0 DUP4 DUP4 GT DUP1 ISZERO PUSH2 0x28D7 JUMPI POP PUSH1 0x0 DUP5 GT JUMPDEST ISZERO PUSH2 0x1272 JUMPI DUP4 PUSH2 0x28E8 DUP5 PUSH1 0x5 PUSH2 0x5051 JUMP JUMPDEST PUSH2 0x28F2 SWAP2 SWAP1 PUSH2 0x509A JUMP JUMPDEST PUSH2 0x28FC DUP6 DUP6 PUSH2 0x503A JUMP JUMPDEST PUSH2 0x2906 SWAP1 DUP5 PUSH2 0x5051 JUMP JUMPDEST PUSH2 0x2910 SWAP2 SWAP1 PUSH2 0x5086 JUMP JUMPDEST SWAP5 SWAP4 POP POP POP POP JUMP JUMPDEST DUP2 MLOAD DUP4 MLOAD EQ PUSH2 0x297A JUMPI PUSH1 0x40 MLOAD PUSH3 0x461BCD PUSH1 0xE5 SHL DUP2 MSTORE PUSH1 0x20 PUSH1 0x4 DUP3 ADD MSTORE PUSH1 0x28 PUSH1 0x24 DUP3 ADD MSTORE PUSH32 0x455243313135353A2069647320616E6420616D6F756E7473206C656E67746820 PUSH1 0x44 DUP3 ADD MSTORE PUSH8 0xDAD2E6DAC2E8C6D PUSH1 0xC3 SHL PUSH1 0x64 DUP3 ADD MSTORE PUSH1 0x84 ADD PUSH2 0x8EE JUMP JUMPDEST PUSH1 0x1 PUSH1 0x1 PUSH1 0xA0 SHL SUB DUP5 AND PUSH2 0x29A0 JUMPI PUSH1 0x40 MLOAD PUSH3 0x461BCD PUSH1 0xE5 SHL DUP2 MSTORE PUSH1 0x4 ADD PUSH2 0x8EE SWAP1 PUSH2 0x5245 JUMP JUMPDEST CALLER PUSH2 0x29AF DUP2 DUP8 DUP8 DUP8 DUP8 DUP8 PUSH2 0x3E2C JUMP JUMPDEST PUSH1 0x0 JUMPDEST DUP5 MLOAD DUP2 LT ISZERO PUSH2 0x2A95 JUMPI PUSH1 0x0 DUP6 DUP3 DUP2 MLOAD DUP2 LT PUSH2 0x29CF JUMPI PUSH2 0x29CF PUSH2 0x4F1C JUMP JUMPDEST PUSH1 0x20 MUL PUSH1 0x20 ADD ADD MLOAD SWAP1 POP PUSH1 0x0 DUP6 DUP4 DUP2 MLOAD DUP2 LT PUSH2 0x29ED JUMPI PUSH2 0x29ED PUSH2 0x4F1C JUMP JUMPDEST PUSH1 0x20 SWAP1 DUP2 MUL SWAP2 SWAP1 SWAP2 ADD DUP2 ADD MLOAD PUSH1 0x0 DUP5 DUP2 MSTORE DUP1 DUP4 MSTORE PUSH1 0x40 DUP1 DUP3 KECCAK256 PUSH1 0x1 PUSH1 0x1 PUSH1 0xA0 SHL SUB DUP15 AND DUP4 MSTORE SWAP1 SWAP4 MSTORE SWAP2 SWAP1 SWAP2 KECCAK256 SLOAD SWAP1 SWAP2 POP DUP2 DUP2 LT ISZERO PUSH2 0x2A3D JUMPI PUSH1 0x40 MLOAD PUSH3 0x461BCD PUSH1 0xE5 SHL DUP2 MSTORE PUSH1 0x4 ADD PUSH2 0x8EE SWAP1 PUSH2 0x528A JUMP JUMPDEST PUSH1 0x0 DUP4 DUP2 MSTORE PUSH1 0x20 DUP2 DUP2 MSTORE PUSH1 0x40 DUP1 DUP4 KECCAK256 PUSH1 0x1 PUSH1 0x1 PUSH1 0xA0 SHL SUB DUP15 DUP2 AND DUP6 MSTORE SWAP3 MSTORE DUP1 DUP4 KECCAK256 DUP6 DUP6 SUB SWAP1 SSTORE SWAP1 DUP12 AND DUP3 MSTORE DUP2 KECCAK256 DUP1 SLOAD DUP5 SWAP3 SWAP1 PUSH2 0x2A7A SWAP1 DUP5 SWAP1 PUSH2 0x509A JUMP JUMPDEST SWAP3 POP POP DUP2 SWAP1 SSTORE POP POP POP POP DUP1 PUSH2 0x2A8E SWAP1 PUSH2 0x4F48 JUMP JUMPDEST SWAP1 POP PUSH2 0x29B2 JUMP JUMPDEST POP DUP5 PUSH1 0x1 PUSH1 0x1 PUSH1 0xA0 SHL SUB AND DUP7 PUSH1 0x1 PUSH1 0x1 PUSH1 0xA0 SHL SUB AND DUP3 PUSH1 0x1 PUSH1 0x1 PUSH1 0xA0 SHL SUB AND PUSH32 0x4A39DC06D4C0DBC64B70AF90FD698A233A518AA5D07E595D983B8C0526C8F7FB DUP8 DUP8 PUSH1 0x40 MLOAD PUSH2 0x2AE5 SWAP3 SWAP2 SWAP1 PUSH2 0x52D4 JUMP JUMPDEST PUSH1 0x40 MLOAD DUP1 SWAP2 SUB SWAP1 LOG4 PUSH2 0x2AFB DUP2 DUP8 DUP8 DUP8 DUP8 DUP8 PUSH2 0x4094 JUMP JUMPDEST POP POP POP POP POP POP JUMP JUMPDEST PUSH2 0x2B0D DUP3 DUP3 PUSH2 0x2539 JUMP JUMPDEST PUSH1 0x0 DUP3 DUP2 MSTORE PUSH1 0x5 PUSH1 0x20 MSTORE PUSH1 0x40 SWAP1 KECCAK256 PUSH2 0x10F1 SWAP1 DUP3 PUSH2 0x25BF JUMP JUMPDEST PUSH2 0x2B2F DUP3 DUP3 PUSH2 0x414F JUMP JUMPDEST PUSH1 0x0 DUP3 DUP2 MSTORE PUSH1 0x5 PUSH1 0x20 MSTORE PUSH1 0x40 SWAP1 KECCAK256 PUSH2 0x10F1 SWAP1 DUP3 PUSH2 0x41B6 JUMP JUMPDEST PUSH1 0x1 PUSH1 0x1 PUSH1 0xA0 SHL SUB DUP3 AND PUSH1 0x0 SWAP1 DUP2 MSTORE PUSH1 0x1D PUSH1 0x20 MSTORE PUSH1 0x40 DUP2 KECCAK256 SLOAD DUP4 SWAP1 ISZERO DUP1 ISZERO SWAP1 PUSH2 0x2B7E JUMPI POP PUSH1 0x20 SLOAD PUSH1 0x1 PUSH1 0x1 PUSH1 0xA0 SHL SUB DUP3 DUP2 AND SWAP2 AND EQ ISZERO JUMPDEST PUSH1 0xB SWAP1 PUSH2 0x2B9E JUMPI PUSH1 0x40 MLOAD PUSH3 0x461BCD PUSH1 0xE5 SHL DUP2 MSTORE PUSH1 0x4 ADD PUSH2 0x8EE SWAP2 SWAP1 PUSH2 0x4FB5 JUMP JUMPDEST POP PUSH1 0x1 PUSH1 0x1 PUSH1 0xA0 SHL SUB DUP5 AND PUSH1 0x0 SWAP1 DUP2 MSTORE PUSH1 0x1D PUSH1 0x20 MSTORE PUSH1 0x40 SWAP1 KECCAK256 SLOAD PUSH1 0x1C DUP1 SLOAD PUSH2 0x2C38 SWAP2 DUP7 SWAP2 DUP5 SWAP1 DUP2 LT PUSH2 0x2BD2 JUMPI PUSH2 0x2BD2 PUSH2 0x4F1C JUMP JUMPDEST PUSH1 0x0 SWAP2 DUP3 MSTORE PUSH1 0x20 SWAP1 SWAP2 KECCAK256 PUSH1 0x2 PUSH1 0x4 SWAP1 SWAP3 MUL ADD ADD SLOAD PUSH1 0x1C DUP1 SLOAD PUSH1 0x1 PUSH1 0x1 PUSH1 0x70 SHL SUB SWAP1 SWAP3 AND SWAP2 DUP6 SWAP1 DUP2 LT PUSH2 0x2C06 JUMPI PUSH2 0x2C06 PUSH2 0x4F1C JUMP JUMPDEST PUSH1 0x0 SWAP2 DUP3 MSTORE PUSH1 0x20 SWAP1 SWAP2 KECCAK256 PUSH1 0x4 SWAP1 SWAP2 MUL ADD PUSH1 0x2 ADD SLOAD PUSH1 0x1 PUSH1 0x70 SHL SWAP1 DIV PUSH1 0x1 PUSH1 0x1 PUSH1 0x70 SHL SUB AND PUSH2 0x2C33 DUP6 PUSH2 0x2D7C JUMP JUMPDEST PUSH2 0x41CB JUMP JUMPDEST SWAP3 POP POP JUMPDEST POP SWAP3 SWAP2 POP POP JUMP JUMPDEST PUSH1 0x1 PUSH1 0x1 PUSH1 0xA0 SHL SUB DUP3 AND PUSH1 0x0 SWAP1 DUP2 MSTORE PUSH1 0x1D PUSH1 0x20 MSTORE PUSH1 0x40 DUP2 KECCAK256 SLOAD DUP4 SWAP1 ISZERO DUP1 ISZERO SWAP1 PUSH2 0x2C7A JUMPI POP PUSH1 0x20 SLOAD PUSH1 0x1 PUSH1 0x1 PUSH1 0xA0 SHL SUB DUP3 DUP2 AND SWAP2 AND EQ ISZERO JUMPDEST PUSH1 0xB SWAP1 PUSH2 0x2C9A JUMPI PUSH1 0x40 MLOAD PUSH3 0x461BCD PUSH1 0xE5 SHL DUP2 MSTORE PUSH1 0x4 ADD PUSH2 0x8EE SWAP2 SWAP1 PUSH2 0x4FB5 JUMP JUMPDEST POP PUSH1 0x1 PUSH1 0x1 PUSH1 0xA0 SHL SUB DUP5 AND PUSH1 0x0 SWAP1 DUP2 MSTORE PUSH1 0x1D PUSH1 0x20 MSTORE PUSH1 0x40 SWAP1 KECCAK256 SLOAD PUSH1 0x1C DUP1 SLOAD PUSH2 0x2C38 SWAP2 DUP7 SWAP2 DUP5 SWAP1 DUP2 LT PUSH2 0x2CCE JUMPI PUSH2 0x2CCE PUSH2 0x4F1C JUMP JUMPDEST SWAP1 PUSH1 0x0 MSTORE PUSH1 0x20 PUSH1 0x0 KECCAK256 SWAP1 PUSH1 0x4 MUL ADD PUSH1 0x2 ADD PUSH1 0xE SWAP1 SLOAD SWAP1 PUSH2 0x100 EXP SWAP1 DIV PUSH1 0x1 PUSH1 0x1 PUSH1 0x70 SHL SUB AND PUSH1 0x1 PUSH1 0x1 PUSH1 0x70 SHL SUB AND PUSH1 0x1C DUP5 DUP2 SLOAD DUP2 LT PUSH2 0x2D0F JUMPI PUSH2 0x2D0F PUSH2 0x4F1C JUMP JUMPDEST PUSH1 0x0 SWAP2 DUP3 MSTORE PUSH1 0x20 SWAP1 SWAP2 KECCAK256 PUSH1 0x2 PUSH1 0x4 SWAP1 SWAP3 MUL ADD ADD SLOAD PUSH1 0x1 PUSH1 0x1 PUSH1 0x70 SHL SUB AND PUSH2 0x2C33 DUP6 PUSH2 0x2D7C JUMP JUMPDEST PUSH1 0x1 PUSH1 0x1 PUSH1 0xA0 SHL SUB DUP3 AND ADDRESS EQ PUSH2 0x10F1 JUMPI PUSH1 0x22 SLOAD PUSH1 0x1 PUSH1 0x1 PUSH1 0xA0 SHL SUB DUP5 DUP2 AND SWAP2 AND EQ ISZERO PUSH2 0x2D65 JUMPI PUSH2 0x10F1 DUP3 DUP3 PUSH2 0x4212 JUMP JUMPDEST PUSH2 0x10F1 DUP4 DUP4 DUP4 PUSH2 0x42A4 JUMP JUMPDEST PUSH1 0x0 PUSH2 0x1272 DUP4 DUP4 PUSH2 0x438C JUMP JUMPDEST PUSH1 0x0 DUP1 PUSH2 0x2D87 PUSH2 0x43B6 JUMP JUMPDEST SWAP1 POP PUSH1 0x0 PUSH1 0x8 PUSH2 0x2D98 DUP4 PUSH1 0x1 PUSH2 0x509A JUMP JUMPDEST PUSH2 0x2DA2 SWAP2 SWAP1 PUSH2 0x52F9 JUMP JUMPDEST SWAP1 POP PUSH1 0x0 DUP1 JUMPDEST PUSH1 0x8 DUP2 LT ISZERO PUSH2 0x2E3F JUMPI DUP4 DUP2 EQ DUP1 PUSH2 0x2DBE JUMPI POP DUP3 DUP2 EQ JUMPDEST ISZERO PUSH2 0x2DC8 JUMPI PUSH2 0x2E2D JUMP JUMPDEST PUSH1 0x1C DUP7 DUP2 SLOAD DUP2 LT PUSH2 0x2DDB JUMPI PUSH2 0x2DDB PUSH2 0x4F1C JUMP JUMPDEST SWAP1 PUSH1 0x0 MSTORE PUSH1 0x20 PUSH1 0x0 KECCAK256 SWAP1 PUSH1 0x4 MUL ADD PUSH1 0x1 ADD DUP2 PUSH1 0x8 DUP2 LT PUSH2 0x2DFD JUMPI PUSH2 0x2DFD PUSH2 0x4F1C JUMP JUMPDEST PUSH1 0x8 SWAP2 DUP3 DUP3 DIV ADD SWAP2 SWAP1 MOD PUSH1 0x4 MUL SWAP1 SLOAD SWAP1 PUSH2 0x100 EXP SWAP1 DIV PUSH4 0xFFFFFFFF AND PUSH4 0xFFFFFFFF AND DUP3 PUSH2 0x2E2A SWAP2 SWAP1 PUSH2 0x509A JUMP JUMPDEST SWAP2 POP JUMPDEST DUP1 PUSH2 0x2E37 DUP2 PUSH2 0x4F48 JUMP JUMPDEST SWAP2 POP POP PUSH2 0x2DA8 JUMP JUMPDEST POP PUSH1 0x0 PUSH2 0x2E54 DUP3 PUSH8 0xDE0B6B3A7640000 PUSH2 0x5051 JUMP JUMPDEST PUSH2 0x2E60 SWAP1 PUSH2 0x3E8 PUSH2 0x5051 JUMP JUMPDEST SWAP1 POP PUSH1 0x0 PUSH1 0x1C DUP8 DUP2 SLOAD DUP2 LT PUSH2 0x2E77 JUMPI PUSH2 0x2E77 PUSH2 0x4F1C JUMP JUMPDEST SWAP1 PUSH1 0x0 MSTORE PUSH1 0x20 PUSH1 0x0 KECCAK256 SWAP1 PUSH1 0x4 MUL ADD PUSH1 0x2 ADD PUSH1 0xE SWAP1 SLOAD SWAP1 PUSH2 0x100 EXP SWAP1 DIV PUSH1 0x1 PUSH1 0x1 PUSH1 0x70 SHL SUB AND PUSH1 0x2 PUSH2 0x2EA8 SWAP2 SWAP1 PUSH2 0x530D JUMP JUMPDEST PUSH2 0x2EB3 SWAP1 PUSH1 0x96 PUSH2 0x530D JUMP JUMPDEST PUSH1 0x1 PUSH1 0x1 PUSH1 0x70 SHL SUB AND SWAP1 POP DUP1 DUP3 GT PUSH2 0x2ECF JUMPI PUSH2 0x26AC SWAP6 POP PUSH2 0x2F2C JUMP JUMPDEST DUP2 DUP2 LT DUP1 ISZERO PUSH2 0x2EE7 JUMPI POP PUSH2 0x2EE4 DUP2 PUSH1 0x64 PUSH2 0x5051 JUMP JUMPDEST DUP3 LT JUMPDEST ISZERO PUSH2 0x2F14 JUMPI DUP1 PUSH2 0x2EF7 DUP2 DUP5 PUSH2 0x503A JUMP JUMPDEST PUSH2 0x2F01 SWAP2 SWAP1 PUSH2 0x5086 JUMP JUMPDEST PUSH2 0x2F0D SWAP1 PUSH2 0x26AC PUSH2 0x509A JUMP JUMPDEST SWAP6 POP PUSH2 0x2F2C JUMP JUMPDEST PUSH2 0x2F1F DUP2 PUSH1 0x64 PUSH2 0x5051 JUMP JUMPDEST DUP3 GT ISZERO PUSH2 0x2F2C JUMPI PUSH2 0x270F SWAP6 POP JUMPDEST POP POP POP POP POP SWAP2 SWAP1 POP JUMP JUMPDEST DUP2 PUSH1 0x1 PUSH1 0x1 PUSH1 0xA0 SHL SUB AND DUP4 PUSH1 0x1 PUSH1 0x1 PUSH1 0xA0 SHL SUB AND EQ ISZERO PUSH2 0x2FAA JUMPI PUSH1 0x40 MLOAD PUSH3 0x461BCD PUSH1 0xE5 SHL DUP2 MSTORE PUSH1 0x20 PUSH1 0x4 DUP3 ADD MSTORE PUSH1 0x29 PUSH1 0x24 DUP3 ADD MSTORE PUSH32 0x455243313135353A2073657474696E6720617070726F76616C20737461747573 PUSH1 0x44 DUP3 ADD MSTORE PUSH9 0x103337B91039B2B633 PUSH1 0xB9 SHL PUSH1 0x64 DUP3 ADD MSTORE PUSH1 0x84 ADD PUSH2 0x8EE JUMP JUMPDEST PUSH1 0x1 PUSH1 0x1 PUSH1 0xA0 SHL SUB DUP4 DUP2 AND PUSH1 0x0 DUP2 DUP2 MSTORE PUSH1 0x1 PUSH1 0x20 SWAP1 DUP2 MSTORE PUSH1 0x40 DUP1 DUP4 KECCAK256 SWAP5 DUP8 AND DUP1 DUP5 MSTORE SWAP5 DUP3 MSTORE SWAP2 DUP3 SWAP1 KECCAK256 DUP1 SLOAD PUSH1 0xFF NOT AND DUP7 ISZERO ISZERO SWAP1 DUP2 OR SWAP1 SWAP2 SSTORE SWAP2 MLOAD SWAP2 DUP3 MSTORE PUSH32 0x17307EAB39AB6107E8899845AD3D59BD9653F200F220920489CA2B5937696C31 SWAP2 ADD PUSH1 0x40 MLOAD DUP1 SWAP2 SUB SWAP1 LOG3 POP POP POP JUMP JUMPDEST PUSH1 0x1 PUSH1 0x1 PUSH1 0xA0 SHL SUB DUP5 AND PUSH1 0x0 SWAP1 DUP2 MSTORE PUSH1 0x1D PUSH1 0x20 MSTORE PUSH1 0x40 SWAP1 KECCAK256 SLOAD DUP5 SWAP1 ISZERO DUP1 ISZERO SWAP1 PUSH2 0x304E JUMPI POP PUSH1 0x20 SLOAD PUSH1 0x1 PUSH1 0x1 PUSH1 0xA0 SHL SUB DUP3 DUP2 AND SWAP2 AND EQ ISZERO JUMPDEST PUSH1 0xB SWAP1 PUSH2 0x306E JUMPI PUSH1 0x40 MLOAD PUSH3 0x461BCD PUSH1 0xE5 SHL DUP2 MSTORE PUSH1 0x4 ADD PUSH2 0x8EE SWAP2 SWAP1 PUSH2 0x4FB5 JUMP JUMPDEST POP PUSH1 0x1 PUSH1 0x1 PUSH1 0xA0 SHL SUB DUP1 DUP7 AND PUSH1 0x0 SWAP1 DUP2 MSTORE PUSH1 0x1D PUSH1 0x20 SWAP1 DUP2 MSTORE PUSH1 0x40 DUP3 KECCAK256 SLOAD SWAP1 SLOAD SWAP1 SWAP3 PUSH2 0x3099 SWAP2 AND PUSH2 0x26D5 JUMP JUMPDEST SWAP1 POP PUSH1 0x0 PUSH1 0x1E SLOAD DUP3 PUSH2 0x30AB SWAP2 SWAP1 PUSH2 0x503A JUMP JUMPDEST SWAP1 POP PUSH1 0x0 PUSH2 0x30B8 DUP10 PUSH2 0x26D5 JUMP JUMPDEST SWAP1 POP PUSH1 0x0 PUSH1 0x1C DUP6 DUP2 SLOAD DUP2 LT PUSH2 0x30CF JUMPI PUSH2 0x30CF PUSH2 0x4F1C JUMP JUMPDEST PUSH1 0x0 SWAP2 DUP3 MSTORE PUSH1 0x20 SWAP1 SWAP2 KECCAK256 PUSH1 0x2 PUSH1 0x4 SWAP1 SWAP3 MUL ADD ADD SLOAD PUSH2 0x30F6 SWAP1 PUSH1 0x1 PUSH1 0x1 PUSH1 0x70 SHL SUB AND DUP4 PUSH2 0x503A JUMP JUMPDEST SWAP1 POP PUSH1 0x0 PUSH2 0x3104 DUP5 DUP4 PUSH2 0x509A JUMP JUMPDEST PUSH1 0x17 SWAP2 LT PUSH2 0x3125 JUMPI PUSH1 0x40 MLOAD PUSH3 0x461BCD PUSH1 0xE5 SHL DUP2 MSTORE PUSH1 0x4 ADD PUSH2 0x8EE SWAP2 SWAP1 PUSH2 0x4FB5 JUMP JUMPDEST POP PUSH1 0x0 PUSH2 0x3131 DUP7 PUSH2 0x2D7C JUMP JUMPDEST SWAP1 POP PUSH1 0x0 PUSH2 0x2710 PUSH1 0x1C DUP9 DUP2 SLOAD DUP2 LT PUSH2 0x314B JUMPI PUSH2 0x314B PUSH2 0x4F1C JUMP JUMPDEST SWAP1 PUSH1 0x0 MSTORE PUSH1 0x20 PUSH1 0x0 KECCAK256 SWAP1 PUSH1 0x4 MUL ADD PUSH1 0x2 ADD PUSH1 0x0 SWAP1 SLOAD SWAP1 PUSH2 0x100 EXP SWAP1 DIV PUSH1 0x1 PUSH1 0x1 PUSH1 0x70 SHL SUB AND PUSH1 0x1 PUSH1 0x1 PUSH1 0x70 SHL SUB AND PUSH2 0x2710 PUSH1 0x1C DUP11 DUP2 SLOAD DUP2 LT PUSH2 0x318F JUMPI PUSH2 0x318F PUSH2 0x4F1C JUMP JUMPDEST PUSH1 0x0 SWAP2 DUP3 MSTORE PUSH1 0x20 SWAP1 SWAP2 KECCAK256 PUSH1 0x4 SWAP1 SWAP2 MUL ADD PUSH1 0x2 ADD SLOAD PUSH2 0x31BD SWAP2 SWAP1 PUSH1 0x1 PUSH1 0x70 SHL SWAP1 DIV PUSH1 0x1 PUSH1 0x1 PUSH1 0x70 SHL SUB AND PUSH2 0x5051 JUMP JUMPDEST PUSH2 0x31C7 SWAP2 SWAP1 PUSH2 0x5051 JUMP JUMPDEST PUSH2 0x31D1 SWAP2 SWAP1 PUSH2 0x5051 JUMP JUMPDEST SWAP1 POP PUSH1 0x0 DUP11 DUP7 PUSH1 0x1E SLOAD PUSH2 0x31E4 SWAP2 SWAP1 PUSH2 0x509A JUMP JUMPDEST PUSH2 0x31EE SWAP2 SWAP1 PUSH2 0x503A JUMP JUMPDEST SWAP1 POP PUSH1 0x0 DUP12 DUP8 PUSH1 0x1C DUP12 DUP2 SLOAD DUP2 LT PUSH2 0x3207 JUMPI PUSH2 0x3207 PUSH2 0x4F1C JUMP JUMPDEST PUSH1 0x0 SWAP2 DUP3 MSTORE PUSH1 0x20 SWAP1 SWAP2 KECCAK256 PUSH1 0x4 SWAP1 SWAP2 MUL ADD PUSH1 0x2 ADD SLOAD PUSH2 0x3235 SWAP2 SWAP1 PUSH1 0x1 PUSH1 0x70 SHL SWAP1 DIV PUSH1 0x1 PUSH1 0x1 PUSH1 0x70 SHL SUB AND PUSH2 0x509A JUMP JUMPDEST PUSH2 0x323F SWAP2 SWAP1 PUSH2 0x503A JUMP JUMPDEST SWAP1 POP PUSH1 0x0 DUP14 DUP7 PUSH1 0x1C DUP13 DUP2 SLOAD DUP2 LT PUSH2 0x3258 JUMPI PUSH2 0x3258 PUSH2 0x4F1C JUMP JUMPDEST PUSH1 0x0 SWAP2 DUP3 MSTORE PUSH1 0x20 SWAP1 SWAP2 KECCAK256 PUSH1 0x2 PUSH1 0x4 SWAP1 SWAP3 MUL ADD ADD SLOAD PUSH2 0x327F SWAP2 SWAP1 PUSH1 0x1 PUSH1 0x1 PUSH1 0x70 SHL SUB AND PUSH2 0x509A JUMP JUMPDEST PUSH2 0x3289 SWAP2 SWAP1 PUSH2 0x503A JUMP JUMPDEST SWAP1 POP PUSH1 0x0 PUSH2 0x3299 DUP7 PUSH2 0x2710 PUSH2 0x503A JUMP JUMPDEST PUSH2 0x32A3 SWAP1 DUP9 PUSH2 0x5051 JUMP JUMPDEST PUSH2 0x32AF PUSH2 0x2710 DUP5 PUSH2 0x5051 JUMP JUMPDEST PUSH2 0x32B9 SWAP2 SWAP1 PUSH2 0x503A JUMP JUMPDEST PUSH2 0x32C5 DUP8 PUSH2 0x2710 PUSH2 0x503A JUMP JUMPDEST PUSH2 0x32CF SWAP1 DUP12 PUSH2 0x5051 JUMP JUMPDEST PUSH2 0x32DB PUSH2 0x2710 DUP7 PUSH2 0x5051 JUMP JUMPDEST PUSH2 0x32E5 SWAP2 SWAP1 PUSH2 0x503A JUMP JUMPDEST PUSH2 0x32EF SWAP2 SWAP1 PUSH2 0x5051 JUMP JUMPDEST SWAP1 POP PUSH1 0x18 DUP6 DUP3 LT ISZERO PUSH2 0x3314 JUMPI PUSH1 0x40 MLOAD PUSH3 0x461BCD PUSH1 0xE5 SHL DUP2 MSTORE PUSH1 0x4 ADD PUSH2 0x8EE SWAP2 SWAP1 PUSH2 0x4FB5 JUMP JUMPDEST POP DUP4 PUSH1 0x1E DUP2 SWAP1 SSTORE POP DUP3 PUSH1 0x1C DUP13 DUP2 SLOAD DUP2 LT PUSH2 0x3330 JUMPI PUSH2 0x3330 PUSH2 0x4F1C JUMP JUMPDEST SWAP1 PUSH1 0x0 MSTORE PUSH1 0x20 PUSH1 0x0 KECCAK256 SWAP1 PUSH1 0x4 MUL ADD PUSH1 0x2 ADD PUSH1 0xE PUSH2 0x100 EXP DUP2 SLOAD DUP2 PUSH1 0x1 PUSH1 0x1 PUSH1 0x70 SHL SUB MUL NOT AND SWAP1 DUP4 PUSH1 0x1 PUSH1 0x1 PUSH1 0x70 SHL SUB AND MUL OR SWAP1 SSTORE POP DUP2 PUSH1 0x1C DUP13 DUP2 SLOAD DUP2 LT PUSH2 0x3379 JUMPI PUSH2 0x3379 PUSH2 0x4F1C JUMP JUMPDEST SWAP1 PUSH1 0x0 MSTORE PUSH1 0x20 PUSH1 0x0 KECCAK256 SWAP1 PUSH1 0x4 MUL ADD PUSH1 0x2 ADD PUSH1 0x0 PUSH2 0x100 EXP DUP2 SLOAD DUP2 PUSH1 0x1 PUSH1 0x1 PUSH1 0x70 SHL SUB MUL NOT AND SWAP1 DUP4 PUSH1 0x1 PUSH1 0x1 PUSH1 0x70 SHL SUB AND MUL OR SWAP1 SSTORE POP POP POP POP POP POP POP PUSH1 0x0 PUSH2 0x33BE PUSH2 0x43B6 JUMP JUMPDEST SWAP1 POP PUSH1 0x0 PUSH1 0x8 PUSH2 0x33CC PUSH2 0x43B6 JUMP JUMPDEST PUSH2 0x33D7 SWAP1 PUSH1 0x1 PUSH2 0x509A JUMP JUMPDEST PUSH2 0x33E1 SWAP2 SWAP1 PUSH2 0x52F9 JUMP JUMPDEST SWAP1 POP PUSH8 0xDE0B6B3A7640000 DUP6 DUP12 ADD DIV PUSH1 0x1C DUP9 DUP2 SLOAD DUP2 LT PUSH2 0x3403 JUMPI PUSH2 0x3403 PUSH2 0x4F1C JUMP JUMPDEST SWAP1 PUSH1 0x0 MSTORE PUSH1 0x20 PUSH1 0x0 KECCAK256 SWAP1 PUSH1 0x4 MUL ADD PUSH1 0x1 ADD DUP4 PUSH1 0x8 DUP2 LT PUSH2 0x3425 JUMPI PUSH2 0x3425 PUSH2 0x4F1C JUMP JUMPDEST PUSH1 0x8 SWAP2 DUP3 DUP3 DIV ADD SWAP2 SWAP1 MOD PUSH1 0x4 MUL DUP3 DUP3 DUP3 SWAP1 SLOAD SWAP1 PUSH2 0x100 EXP SWAP1 DIV PUSH4 0xFFFFFFFF AND ADD SWAP3 POP PUSH2 0x100 EXP DUP2 SLOAD DUP2 PUSH4 0xFFFFFFFF MUL NOT AND SWAP1 DUP4 PUSH4 0xFFFFFFFF AND MUL OR SWAP1 SSTORE POP PUSH1 0x0 PUSH1 0x1C DUP9 DUP2 SLOAD DUP2 LT PUSH2 0x3478 JUMPI PUSH2 0x3478 PUSH2 0x4F1C JUMP JUMPDEST SWAP1 PUSH1 0x0 MSTORE PUSH1 0x20 PUSH1 0x0 KECCAK256 SWAP1 PUSH1 0x4 MUL ADD PUSH1 0x1 ADD DUP3 PUSH1 0x8 DUP2 LT PUSH2 0x349A JUMPI PUSH2 0x349A PUSH2 0x4F1C JUMP JUMPDEST PUSH1 0x8 SWAP2 DUP3 DUP3 DIV ADD SWAP2 SWAP1 MOD PUSH1 0x4 MUL SWAP1 SLOAD SWAP1 PUSH2 0x100 EXP SWAP1 DIV PUSH4 0xFFFFFFFF AND PUSH4 0xFFFFFFFF AND GT ISZERO PUSH2 0x3523 JUMPI PUSH1 0x0 PUSH1 0x1C DUP9 DUP2 SLOAD DUP2 LT PUSH2 0x34D7 JUMPI PUSH2 0x34D7 PUSH2 0x4F1C JUMP JUMPDEST SWAP1 PUSH1 0x0 MSTORE PUSH1 0x20 PUSH1 0x0 KECCAK256 SWAP1 PUSH1 0x4 MUL ADD PUSH1 0x1 ADD DUP3 PUSH1 0x8 DUP2 LT PUSH2 0x34F9 JUMPI PUSH2 0x34F9 PUSH2 0x4F1C JUMP JUMPDEST PUSH1 0x8 SWAP2 DUP3 DUP3 DIV ADD SWAP2 SWAP1 MOD PUSH1 0x4 MUL PUSH2 0x100 EXP DUP2 SLOAD DUP2 PUSH4 0xFFFFFFFF MUL NOT AND SWAP1 DUP4 PUSH4 0xFFFFFFFF AND MUL OR SWAP1 SSTORE POP JUMPDEST DUP11 ISZERO PUSH2 0x3596 JUMPI PUSH2 0x3534 DUP13 DUP11 DUP14 PUSH2 0x2D35 JUMP JUMPDEST PUSH1 0x0 PUSH2 0x353F DUP14 PUSH2 0x26D5 JUMP JUMPDEST SWAP1 POP PUSH1 0x1C DUP9 DUP2 SLOAD DUP2 LT PUSH2 0x3554 JUMPI PUSH2 0x3554 PUSH2 0x4F1C JUMP JUMPDEST PUSH1 0x0 SWAP2 DUP3 MSTORE PUSH1 0x20 SWAP1 SWAP2 KECCAK256 PUSH1 0x2 PUSH1 0x4 SWAP1 SWAP3 MUL ADD ADD SLOAD PUSH1 0xD SWAP1 PUSH1 0x1 PUSH1 0x1 PUSH1 0x70 SHL SUB AND DUP3 EQ PUSH2 0x3593 JUMPI PUSH1 0x40 MLOAD PUSH3 0x461BCD PUSH1 0xE5 SHL DUP2 MSTORE PUSH1 0x4 ADD PUSH2 0x8EE SWAP2 SWAP1 PUSH2 0x4FB5 JUMP JUMPDEST POP POP JUMPDEST DUP10 ISZERO PUSH2 0x3662 JUMPI PUSH1 0x20 SLOAD PUSH2 0x35B3 SWAP1 PUSH1 0x1 PUSH1 0x1 PUSH1 0xA0 SHL SUB AND DUP11 DUP13 PUSH2 0x2D35 JUMP JUMPDEST PUSH1 0x22 SLOAD PUSH1 0x1 PUSH1 0x1 PUSH1 0xA0 SHL SUB DUP14 DUP2 AND SWAP2 AND EQ ISZERO PUSH2 0x3662 JUMPI PUSH1 0x0 PUSH2 0x35D4 DUP14 PUSH2 0x26D5 JUMP JUMPDEST SWAP1 POP PUSH1 0x1C DUP9 DUP2 SLOAD DUP2 LT PUSH2 0x35E9 JUMPI PUSH2 0x35E9 PUSH2 0x4F1C JUMP JUMPDEST PUSH1 0x0 SWAP2 DUP3 MSTORE PUSH1 0x20 SWAP1 SWAP2 KECCAK256 PUSH1 0x2 PUSH1 0x4 SWAP1 SWAP3 MUL ADD ADD SLOAD PUSH1 0x1 PUSH1 0x1 PUSH1 0x70 SHL SUB AND DUP2 GT ISZERO PUSH2 0x3660 JUMPI PUSH1 0x22 SLOAD PUSH1 0x1C DUP1 SLOAD PUSH2 0x3660 SWAP3 PUSH1 0x1 PUSH1 0x1 PUSH1 0xA0 SHL SUB AND SWAP2 CALLER SWAP2 DUP13 SWAP1 DUP2 LT PUSH2 0x3634 JUMPI PUSH2 0x3634 PUSH2 0x4F1C JUMP JUMPDEST PUSH1 0x0 SWAP2 DUP3 MSTORE PUSH1 0x20 SWAP1 SWAP2 KECCAK256 PUSH1 0x2 PUSH1 0x4 SWAP1 SWAP3 MUL ADD ADD SLOAD PUSH2 0x365B SWAP1 PUSH1 0x1 PUSH1 0x1 PUSH1 0x70 SHL SUB AND DUP6 PUSH2 0x503A JUMP JUMPDEST PUSH2 0x2D35 JUMP JUMPDEST POP JUMPDEST POP POP POP POP POP POP POP POP POP POP POP POP JUMP JUMPDEST DUP1 MLOAD PUSH2 0x1170 SWAP1 PUSH1 0x2 SWAP1 PUSH1 0x20 DUP5 ADD SWAP1 PUSH2 0x4515 JUMP JUMPDEST PUSH1 0x1 PUSH1 0x1 PUSH1 0xA0 SHL SUB DUP4 AND PUSH2 0x36E5 JUMPI PUSH1 0x40 MLOAD PUSH3 0x461BCD PUSH1 0xE5 SHL DUP2 MSTORE PUSH1 0x20 PUSH1 0x4 DUP3 ADD MSTORE PUSH1 0x23 PUSH1 0x24 DUP3 ADD MSTORE PUSH32 0x455243313135353A206275726E2066726F6D20746865207A65726F2061646472 PUSH1 0x44 DUP3 ADD MSTORE PUSH3 0x657373 PUSH1 0xE8 SHL PUSH1 0x64 DUP3 ADD MSTORE PUSH1 0x84 ADD PUSH2 0x8EE JUMP JUMPDEST CALLER PUSH2 0x3714 DUP2 DUP6 PUSH1 0x0 PUSH2 0x36F6 DUP8 PUSH2 0x3DE1 JUMP JUMPDEST PUSH2 0x36FF DUP8 PUSH2 0x3DE1 JUMP JUMPDEST PUSH1 0x40 MLOAD DUP1 PUSH1 0x20 ADD PUSH1 0x40 MSTORE DUP1 PUSH1 0x0 DUP2 MSTORE POP PUSH2 0x3E2C JUMP JUMPDEST PUSH1 0x0 DUP4 DUP2 MSTORE PUSH1 0x20 DUP2 DUP2 MSTORE PUSH1 0x40 DUP1 DUP4 KECCAK256 PUSH1 0x1 PUSH1 0x1 PUSH1 0xA0 SHL SUB DUP9 AND DUP5 MSTORE SWAP1 SWAP2 MSTORE SWAP1 KECCAK256 SLOAD DUP3 DUP2 LT ISZERO PUSH2 0x3791 JUMPI PUSH1 0x40 MLOAD PUSH3 0x461BCD PUSH1 0xE5 SHL DUP2 MSTORE PUSH1 0x20 PUSH1 0x4 DUP3 ADD MSTORE PUSH1 0x24 DUP1 DUP3 ADD MSTORE PUSH32 0x455243313135353A206275726E20616D6F756E7420657863656564732062616C PUSH1 0x44 DUP3 ADD MSTORE PUSH4 0x616E6365 PUSH1 0xE0 SHL PUSH1 0x64 DUP3 ADD MSTORE PUSH1 0x84 ADD PUSH2 0x8EE JUMP JUMPDEST PUSH1 0x0 DUP5 DUP2 MSTORE PUSH1 0x20 DUP2 DUP2 MSTORE PUSH1 0x40 DUP1 DUP4 KECCAK256 PUSH1 0x1 PUSH1 0x1 PUSH1 0xA0 SHL SUB DUP10 DUP2 AND DUP1 DUP7 MSTORE SWAP2 DUP5 MSTORE DUP3 DUP6 KECCAK256 DUP9 DUP8 SUB SWAP1 SSTORE DUP3 MLOAD DUP10 DUP2 MSTORE SWAP4 DUP5 ADD DUP9 SWAP1 MSTORE SWAP1 SWAP3 SWAP1 DUP7 AND SWAP2 PUSH32 0xC3D58168C5AE7397731D063D5BBF3D657854427343F4C083240F7AACAA2D0F62 SWAP2 ADD PUSH1 0x40 MLOAD DUP1 SWAP2 SUB SWAP1 LOG4 POP POP POP POP POP JUMP JUMPDEST PUSH1 0x1 PUSH1 0x1 PUSH1 0xA0 SHL SUB DUP3 AND PUSH1 0x0 SWAP1 DUP2 MSTORE PUSH1 0x1D PUSH1 0x20 MSTORE PUSH1 0x40 DUP2 KECCAK256 SLOAD DUP4 SWAP1 ISZERO DUP1 ISZERO SWAP1 PUSH2 0x3833 JUMPI POP PUSH1 0x20 SLOAD PUSH1 0x1 PUSH1 0x1 PUSH1 0xA0 SHL SUB DUP3 DUP2 AND SWAP2 AND EQ ISZERO JUMPDEST PUSH1 0xB SWAP1 PUSH2 0x3853 JUMPI PUSH1 0x40 MLOAD PUSH3 0x461BCD PUSH1 0xE5 SHL DUP2 MSTORE PUSH1 0x4 ADD PUSH2 0x8EE SWAP2 SWAP1 PUSH2 0x4FB5 JUMP JUMPDEST POP PUSH1 0x1 PUSH1 0x1 PUSH1 0xA0 SHL SUB DUP5 AND PUSH1 0x0 SWAP1 DUP2 MSTORE PUSH1 0x1D PUSH1 0x20 MSTORE PUSH1 0x40 SWAP1 KECCAK256 SLOAD PUSH1 0x1C DUP1 SLOAD PUSH2 0x2C38 SWAP2 DUP7 SWAP2 DUP5 SWAP1 DUP2 LT PUSH2 0x3887 JUMPI PUSH2 0x3887 PUSH2 0x4F1C JUMP JUMPDEST PUSH1 0x0 SWAP2 DUP3 MSTORE PUSH1 0x20 SWAP1 SWAP2 KECCAK256 PUSH1 0x2 PUSH1 0x4 SWAP1 SWAP3 MUL ADD ADD SLOAD PUSH1 0x1C DUP1 SLOAD PUSH1 0x1 PUSH1 0x1 PUSH1 0x70 SHL SUB SWAP1 SWAP3 AND SWAP2 DUP6 SWAP1 DUP2 LT PUSH2 0x38BB JUMPI PUSH2 0x38BB PUSH2 0x4F1C JUMP JUMPDEST PUSH1 0x0 SWAP2 DUP3 MSTORE PUSH1 0x20 SWAP1 SWAP2 KECCAK256 PUSH1 0x4 SWAP1 SWAP2 MUL ADD PUSH1 0x2 ADD SLOAD PUSH1 0x1 PUSH1 0x70 SHL SWAP1 DIV PUSH1 0x1 PUSH1 0x1 PUSH1 0x70 SHL SUB AND PUSH2 0x38E8 DUP6 PUSH2 0x2D7C JUMP JUMPDEST PUSH2 0x43D5 JUMP JUMPDEST PUSH1 0x1 PUSH1 0x1 PUSH1 0xA0 SHL SUB DUP3 AND PUSH1 0x0 SWAP1 DUP2 MSTORE PUSH1 0x1D PUSH1 0x20 MSTORE PUSH1 0x40 DUP2 KECCAK256 SLOAD DUP4 SWAP1 ISZERO DUP1 ISZERO SWAP1 PUSH2 0x3924 JUMPI POP PUSH1 0x20 SLOAD PUSH1 0x1 PUSH1 0x1 PUSH1 0xA0 SHL SUB DUP3 DUP2 AND SWAP2 AND EQ ISZERO JUMPDEST PUSH1 0xB SWAP1 PUSH2 0x3944 JUMPI PUSH1 0x40 MLOAD PUSH3 0x461BCD PUSH1 0xE5 SHL DUP2 MSTORE PUSH1 0x4 ADD PUSH2 0x8EE SWAP2 SWAP1 PUSH2 0x4FB5 JUMP JUMPDEST POP PUSH1 0x1 PUSH1 0x1 PUSH1 0xA0 SHL SUB DUP5 AND PUSH1 0x0 SWAP1 DUP2 MSTORE PUSH1 0x1D PUSH1 0x20 MSTORE PUSH1 0x40 SWAP1 KECCAK256 SLOAD PUSH1 0x1C DUP1 SLOAD PUSH2 0x2C38 SWAP2 DUP7 SWAP2 DUP5 SWAP1 DUP2 LT PUSH2 0x3978 JUMPI PUSH2 0x3978 PUSH2 0x4F1C JUMP JUMPDEST SWAP1 PUSH1 0x0 MSTORE PUSH1 0x20 PUSH1 0x0 KECCAK256 SWAP1 PUSH1 0x4 MUL ADD PUSH1 0x2 ADD PUSH1 0xE SWAP1 SLOAD SWAP1 PUSH2 0x100 EXP SWAP1 DIV PUSH1 0x1 PUSH1 0x1 PUSH1 0x70 SHL SUB AND PUSH1 0x1 PUSH1 0x1 PUSH1 0x70 SHL SUB AND PUSH1 0x1C DUP5 DUP2 SLOAD DUP2 LT PUSH2 0x39B9 JUMPI PUSH2 0x39B9 PUSH2 0x4F1C JUMP JUMPDEST PUSH1 0x0 SWAP2 DUP3 MSTORE PUSH1 0x20 SWAP1 SWAP2 KECCAK256 PUSH1 0x2 PUSH1 0x4 SWAP1 SWAP3 MUL ADD ADD SLOAD PUSH1 0x1 PUSH1 0x1 PUSH1 0x70 SHL SUB AND PUSH2 0x38E8 DUP6 PUSH2 0x2D7C JUMP JUMPDEST PUSH1 0x0 PUSH2 0x91A DUP3 SLOAD SWAP1 JUMP JUMPDEST PUSH1 0x1 PUSH1 0x1 PUSH1 0xA0 SHL SUB DUP5 AND PUSH2 0x3A0F JUMPI PUSH1 0x40 MLOAD PUSH3 0x461BCD PUSH1 0xE5 SHL DUP2 MSTORE PUSH1 0x4 ADD PUSH2 0x8EE SWAP1 PUSH2 0x5245 JUMP JUMPDEST CALLER PUSH2 0x3A1F DUP2 DUP8 DUP8 PUSH2 0x2827 DUP9 PUSH2 0x3DE1 JUMP JUMPDEST PUSH1 0x0 DUP5 DUP2 MSTORE PUSH1 0x20 DUP2 DUP2 MSTORE PUSH1 0x40 DUP1 DUP4 KECCAK256 PUSH1 0x1 PUSH1 0x1 PUSH1 0xA0 SHL SUB DUP11 AND DUP5 MSTORE SWAP1 SWAP2 MSTORE SWAP1 KECCAK256 SLOAD DUP4 DUP2 LT ISZERO PUSH2 0x3A60 JUMPI PUSH1 0x40 MLOAD PUSH3 0x461BCD PUSH1 0xE5 SHL DUP2 MSTORE PUSH1 0x4 ADD PUSH2 0x8EE SWAP1 PUSH2 0x528A JUMP JUMPDEST PUSH1 0x0 DUP6 DUP2 MSTORE PUSH1 0x20 DUP2 DUP2 MSTORE PUSH1 0x40 DUP1 DUP4 KECCAK256 PUSH1 0x1 PUSH1 0x1 PUSH1 0xA0 SHL SUB DUP12 DUP2 AND DUP6 MSTORE SWAP3 MSTORE DUP1 DUP4 KECCAK256 DUP8 DUP6 SUB SWAP1 SSTORE SWAP1 DUP9 AND DUP3 MSTORE DUP2 KECCAK256 DUP1 SLOAD DUP7 SWAP3 SWAP1 PUSH2 0x3A9D SWAP1 DUP5 SWAP1 PUSH2 0x509A JUMP JUMPDEST SWAP1 SWAP2 SSTORE POP POP PUSH1 0x40 DUP1 MLOAD DUP7 DUP2 MSTORE PUSH1 0x20 DUP2 ADD DUP7 SWAP1 MSTORE PUSH1 0x1 PUSH1 0x1 PUSH1 0xA0 SHL SUB DUP1 DUP10 AND SWAP3 DUP11 DUP3 AND SWAP3 SWAP2 DUP7 AND SWAP2 PUSH32 0xC3D58168C5AE7397731D063D5BBF3D657854427343F4C083240F7AACAA2D0F62 SWAP2 ADD PUSH1 0x40 MLOAD DUP1 SWAP2 SUB SWAP1 LOG4 PUSH2 0x3AFD DUP3 DUP9 DUP9 DUP9 DUP9 DUP9 PUSH2 0x3F38 JUMP JUMPDEST POP POP POP POP POP POP POP JUMP JUMPDEST PUSH1 0x0 DUP2 DUP2 MSTORE PUSH1 0x1 DUP4 ADD PUSH1 0x20 MSTORE PUSH1 0x40 DUP2 KECCAK256 SLOAD PUSH2 0x3B4D JUMPI POP DUP2 SLOAD PUSH1 0x1 DUP2 DUP2 ADD DUP5 SSTORE PUSH1 0x0 DUP5 DUP2 MSTORE PUSH1 0x20 DUP1 DUP3 KECCAK256 SWAP1 SWAP4 ADD DUP5 SWAP1 SSTORE DUP5 SLOAD DUP5 DUP3 MSTORE DUP3 DUP7 ADD SWAP1 SWAP4 MSTORE PUSH1 0x40 SWAP1 KECCAK256 SWAP2 SWAP1 SWAP2 SSTORE PUSH2 0x91A JUMP JUMPDEST POP PUSH1 0x0 PUSH2 0x91A JUMP JUMPDEST PUSH1 0x60 PUSH1 0x0 PUSH2 0x3B64 DUP4 PUSH1 0x2 PUSH2 0x5051 JUMP JUMPDEST PUSH2 0x3B6F SWAP1 PUSH1 0x2 PUSH2 0x509A JUMP JUMPDEST PUSH8 0xFFFFFFFFFFFFFFFF DUP2 GT ISZERO PUSH2 0x3B87 JUMPI PUSH2 0x3B87 PUSH2 0x487E JUMP JUMPDEST PUSH1 0x40 MLOAD SWAP1 DUP1 DUP3 MSTORE DUP1 PUSH1 0x1F ADD PUSH1 0x1F NOT AND PUSH1 0x20 ADD DUP3 ADD PUSH1 0x40 MSTORE DUP1 ISZERO PUSH2 0x3BB1 JUMPI PUSH1 0x20 DUP3 ADD DUP2 DUP1 CALLDATASIZE DUP4 CALLDATACOPY ADD SWAP1 POP JUMPDEST POP SWAP1 POP PUSH1 0x3 PUSH1 0xFC SHL DUP2 PUSH1 0x0 DUP2 MLOAD DUP2 LT PUSH2 0x3BCC JUMPI PUSH2 0x3BCC PUSH2 0x4F1C JUMP JUMPDEST PUSH1 0x20 ADD ADD SWAP1 PUSH1 0x1 PUSH1 0x1 PUSH1 0xF8 SHL SUB NOT AND SWAP1 DUP2 PUSH1 0x0 BYTE SWAP1 MSTORE8 POP PUSH1 0xF PUSH1 0xFB SHL DUP2 PUSH1 0x1 DUP2 MLOAD DUP2 LT PUSH2 0x3BFB JUMPI PUSH2 0x3BFB PUSH2 0x4F1C JUMP JUMPDEST PUSH1 0x20 ADD ADD SWAP1 PUSH1 0x1 PUSH1 0x1 PUSH1 0xF8 SHL SUB NOT AND SWAP1 DUP2 PUSH1 0x0 BYTE SWAP1 MSTORE8 POP PUSH1 0x0 PUSH2 0x3C1F DUP5 PUSH1 0x2 PUSH2 0x5051 JUMP JUMPDEST PUSH2 0x3C2A SWAP1 PUSH1 0x1 PUSH2 0x509A JUMP JUMPDEST SWAP1 POP JUMPDEST PUSH1 0x1 DUP2 GT ISZERO PUSH2 0x3CA2 JUMPI PUSH16 0x181899199A1A9B1B9C1CB0B131B232B3 PUSH1 0x81 SHL DUP6 PUSH1 0xF AND PUSH1 0x10 DUP2 LT PUSH2 0x3C5E JUMPI PUSH2 0x3C5E PUSH2 0x4F1C JUMP JUMPDEST BYTE PUSH1 0xF8 SHL DUP3 DUP3 DUP2 MLOAD DUP2 LT PUSH2 0x3C74 JUMPI PUSH2 0x3C74 PUSH2 0x4F1C JUMP JUMPDEST PUSH1 0x20 ADD ADD SWAP1 PUSH1 0x1 PUSH1 0x1 PUSH1 0xF8 SHL SUB NOT AND SWAP1 DUP2 PUSH1 0x0 BYTE SWAP1 MSTORE8 POP PUSH1 0x4 SWAP5 SWAP1 SWAP5 SHR SWAP4 PUSH2 0x3C9B DUP2 PUSH2 0x533C JUMP JUMPDEST SWAP1 POP PUSH2 0x3C2D JUMP JUMPDEST POP DUP4 ISZERO PUSH2 0x1272 JUMPI PUSH1 0x40 MLOAD PUSH3 0x461BCD PUSH1 0xE5 SHL DUP2 MSTORE PUSH1 0x20 PUSH1 0x4 DUP3 ADD DUP2 SWAP1 MSTORE PUSH1 0x24 DUP3 ADD MSTORE PUSH32 0x537472696E67733A20686578206C656E67746820696E73756666696369656E74 PUSH1 0x44 DUP3 ADD MSTORE PUSH1 0x64 ADD PUSH2 0x8EE JUMP JUMPDEST PUSH1 0x40 DUP1 MLOAD PUSH1 0x1 PUSH1 0x1 PUSH1 0xA0 SHL SUB DUP6 DUP2 AND PUSH1 0x24 DUP4 ADD MSTORE DUP5 DUP2 AND PUSH1 0x44 DUP4 ADD MSTORE PUSH1 0x64 DUP1 DUP4 ADD DUP6 SWAP1 MSTORE DUP4 MLOAD DUP1 DUP5 SUB SWAP1 SWAP2 ADD DUP2 MSTORE PUSH1 0x84 SWAP1 SWAP3 ADD DUP4 MSTORE PUSH1 0x20 DUP3 ADD DUP1 MLOAD PUSH1 0x1 PUSH1 0x1 PUSH1 0xE0 SHL SUB AND PUSH4 0x23B872DD PUSH1 0xE0 SHL OR SWAP1 MSTORE SWAP2 MLOAD PUSH1 0x0 SWAP3 DUP4 SWAP3 SWAP1 DUP9 AND SWAP2 PUSH2 0x3D55 SWAP2 SWAP1 PUSH2 0x5353 JUMP JUMPDEST PUSH1 0x0 PUSH1 0x40 MLOAD DUP1 DUP4 SUB DUP2 PUSH1 0x0 DUP7 GAS CALL SWAP2 POP POP RETURNDATASIZE DUP1 PUSH1 0x0 DUP2 EQ PUSH2 0x3D92 JUMPI PUSH1 0x40 MLOAD SWAP2 POP PUSH1 0x1F NOT PUSH1 0x3F RETURNDATASIZE ADD AND DUP3 ADD PUSH1 0x40 MSTORE RETURNDATASIZE DUP3 MSTORE RETURNDATASIZE PUSH1 0x0 PUSH1 0x20 DUP5 ADD RETURNDATACOPY PUSH2 0x3D97 JUMP JUMPDEST PUSH1 0x60 SWAP2 POP JUMPDEST POP SWAP2 POP SWAP2 POP DUP2 DUP1 ISZERO PUSH2 0x3DC1 JUMPI POP DUP1 MLOAD ISZERO DUP1 PUSH2 0x3DC1 JUMPI POP DUP1 DUP1 PUSH1 0x20 ADD SWAP1 MLOAD DUP2 ADD SWAP1 PUSH2 0x3DC1 SWAP2 SWAP1 PUSH2 0x536F JUMP JUMPDEST PUSH1 0x1B SWAP1 PUSH2 0x3AFD JUMPI PUSH1 0x40 MLOAD PUSH3 0x461BCD PUSH1 0xE5 SHL DUP2 MSTORE PUSH1 0x4 ADD PUSH2 0x8EE SWAP2 SWAP1 PUSH2 0x4FB5 JUMP JUMPDEST PUSH1 0x40 DUP1 MLOAD PUSH1 0x1 DUP1 DUP3 MSTORE DUP2 DUP4 ADD SWAP1 SWAP3 MSTORE PUSH1 0x60 SWAP2 PUSH1 0x0 SWAP2 SWAP1 PUSH1 0x20 DUP1 DUP4 ADD SWAP1 DUP1 CALLDATASIZE DUP4 CALLDATACOPY ADD SWAP1 POP POP SWAP1 POP DUP3 DUP2 PUSH1 0x0 DUP2 MLOAD DUP2 LT PUSH2 0x3E1B JUMPI PUSH2 0x3E1B PUSH2 0x4F1C JUMP JUMPDEST PUSH1 0x20 SWAP1 DUP2 MUL SWAP2 SWAP1 SWAP2 ADD ADD MSTORE SWAP3 SWAP2 POP POP JUMP JUMPDEST PUSH1 0x1 PUSH1 0x1 PUSH1 0xA0 SHL SUB DUP6 AND PUSH2 0x3EB3 JUMPI PUSH1 0x0 JUMPDEST DUP4 MLOAD DUP2 LT ISZERO PUSH2 0x3EB1 JUMPI DUP3 DUP2 DUP2 MLOAD DUP2 LT PUSH2 0x3E58 JUMPI PUSH2 0x3E58 PUSH2 0x4F1C JUMP JUMPDEST PUSH1 0x20 MUL PUSH1 0x20 ADD ADD MLOAD PUSH1 0x3 PUSH1 0x0 DUP7 DUP5 DUP2 MLOAD DUP2 LT PUSH2 0x3E76 JUMPI PUSH2 0x3E76 PUSH2 0x4F1C JUMP JUMPDEST PUSH1 0x20 MUL PUSH1 0x20 ADD ADD MLOAD DUP2 MSTORE PUSH1 0x20 ADD SWAP1 DUP2 MSTORE PUSH1 0x20 ADD PUSH1 0x0 KECCAK256 PUSH1 0x0 DUP3 DUP3 SLOAD PUSH2 0x3E9B SWAP2 SWAP1 PUSH2 0x509A JUMP JUMPDEST SWAP1 SWAP2 SSTORE POP PUSH2 0x3EAA SWAP1 POP DUP2 PUSH2 0x4F48 JUMP JUMPDEST SWAP1 POP PUSH2 0x3E3D JUMP JUMPDEST POP JUMPDEST PUSH1 0x1 PUSH1 0x1 PUSH1 0xA0 SHL SUB DUP5 AND PUSH2 0x2AFB JUMPI PUSH1 0x0 JUMPDEST DUP4 MLOAD DUP2 LT ISZERO PUSH2 0x3AFD JUMPI DUP3 DUP2 DUP2 MLOAD DUP2 LT PUSH2 0x3EDF JUMPI PUSH2 0x3EDF PUSH2 0x4F1C JUMP JUMPDEST PUSH1 0x20 MUL PUSH1 0x20 ADD ADD MLOAD PUSH1 0x3 PUSH1 0x0 DUP7 DUP5 DUP2 MLOAD DUP2 LT PUSH2 0x3EFD JUMPI PUSH2 0x3EFD PUSH2 0x4F1C JUMP JUMPDEST PUSH1 0x20 MUL PUSH1 0x20 ADD ADD MLOAD DUP2 MSTORE PUSH1 0x20 ADD SWAP1 DUP2 MSTORE PUSH1 0x20 ADD PUSH1 0x0 KECCAK256 PUSH1 0x0 DUP3 DUP3 SLOAD PUSH2 0x3F22 SWAP2 SWAP1 PUSH2 0x503A JUMP JUMPDEST SWAP1 SWAP2 SSTORE POP PUSH2 0x3F31 SWAP1 POP DUP2 PUSH2 0x4F48 JUMP JUMPDEST SWAP1 POP PUSH2 0x3EC4 JUMP JUMPDEST PUSH1 0x1 PUSH1 0x1 PUSH1 0xA0 SHL SUB DUP5 AND EXTCODESIZE ISZERO PUSH2 0x2AFB JUMPI PUSH1 0x40 MLOAD PUSH4 0xF23A6E61 PUSH1 0xE0 SHL DUP2 MSTORE PUSH1 0x1 PUSH1 0x1 PUSH1 0xA0 SHL SUB DUP6 AND SWAP1 PUSH4 0xF23A6E61 SWAP1 PUSH2 0x3F7C SWAP1 DUP10 SWAP1 DUP10 SWAP1 DUP9 SWAP1 DUP9 SWAP1 DUP9 SWAP1 PUSH1 0x4 ADD PUSH2 0x538C JUMP JUMPDEST PUSH1 0x20 PUSH1 0x40 MLOAD DUP1 DUP4 SUB DUP2 PUSH1 0x0 DUP8 GAS CALL SWAP3 POP POP POP DUP1 ISZERO PUSH2 0x3FB7 JUMPI POP PUSH1 0x40 DUP1 MLOAD PUSH1 0x1F RETURNDATASIZE SWAP1 DUP2 ADD PUSH1 0x1F NOT AND DUP3 ADD SWAP1 SWAP3 MSTORE PUSH2 0x3FB4 SWAP2 DUP2 ADD SWAP1 PUSH2 0x53C6 JUMP JUMPDEST PUSH1 0x1 JUMPDEST PUSH2 0x4064 JUMPI PUSH2 0x3FC3 PUSH2 0x53E3 JUMP JUMPDEST DUP1 PUSH4 0x8C379A0 EQ ISZERO PUSH2 0x3FFD JUMPI POP PUSH2 0x3FD8 PUSH2 0x53FF JUMP JUMPDEST DUP1 PUSH2 0x3FE3 JUMPI POP PUSH2 0x3FFF JUMP JUMPDEST DUP1 PUSH1 0x40 MLOAD PUSH3 0x461BCD PUSH1 0xE5 SHL DUP2 MSTORE PUSH1 0x4 ADD PUSH2 0x8EE SWAP2 SWAP1 PUSH2 0x4818 JUMP JUMPDEST POP JUMPDEST PUSH1 0x40 MLOAD PUSH3 0x461BCD PUSH1 0xE5 SHL DUP2 MSTORE PUSH1 0x20 PUSH1 0x4 DUP3 ADD MSTORE PUSH1 0x34 PUSH1 0x24 DUP3 ADD MSTORE PUSH32 0x455243313135353A207472616E7366657220746F206E6F6E2045524331313535 PUSH1 0x44 DUP3 ADD MSTORE PUSH20 0x2932B1B2B4BB32B91034B6B83632B6B2B73A32B9 PUSH1 0x61 SHL PUSH1 0x64 DUP3 ADD MSTORE PUSH1 0x84 ADD PUSH2 0x8EE JUMP JUMPDEST PUSH1 0x1 PUSH1 0x1 PUSH1 0xE0 SHL SUB NOT DUP2 AND PUSH4 0xF23A6E61 PUSH1 0xE0 SHL EQ PUSH2 0x3AFD JUMPI PUSH1 0x40 MLOAD PUSH3 0x461BCD PUSH1 0xE5 SHL DUP2 MSTORE PUSH1 0x4 ADD PUSH2 0x8EE SWAP1 PUSH2 0x5489 JUMP JUMPDEST PUSH1 0x1 PUSH1 0x1 PUSH1 0xA0 SHL SUB DUP5 AND EXTCODESIZE ISZERO PUSH2 0x2AFB JUMPI PUSH1 0x40 MLOAD PUSH4 0xBC197C81 PUSH1 0xE0 SHL DUP2 MSTORE PUSH1 0x1 PUSH1 0x1 PUSH1 0xA0 SHL SUB DUP6 AND SWAP1 PUSH4 0xBC197C81 SWAP1 PUSH2 0x40D8 SWAP1 DUP10 SWAP1 DUP10 SWAP1 DUP9 SWAP1 DUP9 SWAP1 DUP9 SWAP1 PUSH1 0x4 ADD PUSH2 0x54D1 JUMP JUMPDEST PUSH1 0x20 PUSH1 0x40 MLOAD DUP1 DUP4 SUB DUP2 PUSH1 0x0 DUP8 GAS CALL SWAP3 POP POP POP DUP1 ISZERO PUSH2 0x4113 JUMPI POP PUSH1 0x40 DUP1 MLOAD PUSH1 0x1F RETURNDATASIZE SWAP1 DUP2 ADD PUSH1 0x1F NOT AND DUP3 ADD SWAP1 SWAP3 MSTORE PUSH2 0x4110 SWAP2 DUP2 ADD SWAP1 PUSH2 0x53C6 JUMP JUMPDEST PUSH1 0x1 JUMPDEST PUSH2 0x411F JUMPI PUSH2 0x3FC3 PUSH2 0x53E3 JUMP JUMPDEST PUSH1 0x1 PUSH1 0x1 PUSH1 0xE0 SHL SUB NOT DUP2 AND PUSH4 0xBC197C81 PUSH1 0xE0 SHL EQ PUSH2 0x3AFD JUMPI PUSH1 0x40 MLOAD PUSH3 0x461BCD PUSH1 0xE5 SHL DUP2 MSTORE PUSH1 0x4 ADD PUSH2 0x8EE SWAP1 PUSH2 0x5489 JUMP JUMPDEST PUSH2 0x4159 DUP3 DUP3 PUSH2 0x18C9 JUMP JUMPDEST ISZERO PUSH2 0x1170 JUMPI PUSH1 0x0 DUP3 DUP2 MSTORE PUSH1 0x4 PUSH1 0x20 SWAP1 DUP2 MSTORE PUSH1 0x40 DUP1 DUP4 KECCAK256 PUSH1 0x1 PUSH1 0x1 PUSH1 0xA0 SHL SUB DUP6 AND DUP1 DUP6 MSTORE SWAP3 MSTORE DUP1 DUP4 KECCAK256 DUP1 SLOAD PUSH1 0xFF NOT AND SWAP1 SSTORE MLOAD CALLER SWAP3 DUP6 SWAP2 PUSH32 0xF6391F5C32D9C69D2A47EA670B442974B53935D1EDC7FD64EB21E047A839171B SWAP2 SWAP1 LOG4 POP POP JUMP JUMPDEST PUSH1 0x0 PUSH2 0x1272 DUP4 PUSH1 0x1 PUSH1 0x1 PUSH1 0xA0 SHL SUB DUP5 AND PUSH2 0x4422 JUMP JUMPDEST PUSH1 0x0 DUP1 PUSH2 0x41D8 DUP4 DUP8 PUSH2 0x5051 JUMP JUMPDEST SWAP1 POP PUSH1 0x0 DUP2 PUSH2 0x41E9 PUSH2 0x2710 DUP9 PUSH2 0x5051 JUMP JUMPDEST PUSH2 0x41F3 SWAP2 SWAP1 PUSH2 0x509A JUMP JUMPDEST PUSH2 0x41FD DUP4 DUP8 PUSH2 0x5051 JUMP JUMPDEST PUSH2 0x4207 SWAP2 SWAP1 PUSH2 0x5086 JUMP JUMPDEST SWAP8 SWAP7 POP POP POP POP POP POP POP JUMP JUMPDEST PUSH1 0x40 DUP1 MLOAD PUSH1 0x0 DUP1 DUP3 MSTORE PUSH1 0x20 DUP3 ADD SWAP1 SWAP3 MSTORE PUSH1 0x1 PUSH1 0x1 PUSH1 0xA0 SHL SUB DUP5 AND SWAP1 DUP4 SWAP1 PUSH1 0x40 MLOAD PUSH2 0x423C SWAP2 SWAP1 PUSH2 0x5353 JUMP JUMPDEST PUSH1 0x0 PUSH1 0x40 MLOAD DUP1 DUP4 SUB DUP2 DUP6 DUP8 GAS CALL SWAP3 POP POP POP RETURNDATASIZE DUP1 PUSH1 0x0 DUP2 EQ PUSH2 0x4279 JUMPI PUSH1 0x40 MLOAD SWAP2 POP PUSH1 0x1F NOT PUSH1 0x3F RETURNDATASIZE ADD AND DUP3 ADD PUSH1 0x40 MSTORE RETURNDATASIZE DUP3 MSTORE RETURNDATASIZE PUSH1 0x0 PUSH1 0x20 DUP5 ADD RETURNDATACOPY PUSH2 0x427E JUMP JUMPDEST PUSH1 0x60 SWAP2 POP JUMPDEST POP SWAP1 SWAP2 POP PUSH1 0x19 SWAP1 POP DUP2 PUSH2 0x9E7 JUMPI PUSH1 0x40 MLOAD PUSH3 0x461BCD PUSH1 0xE5 SHL DUP2 MSTORE PUSH1 0x4 ADD PUSH2 0x8EE SWAP2 SWAP1 PUSH2 0x4FB5 JUMP JUMPDEST PUSH1 0x40 DUP1 MLOAD PUSH1 0x1 PUSH1 0x1 PUSH1 0xA0 SHL SUB DUP5 DUP2 AND PUSH1 0x24 DUP4 ADD MSTORE PUSH1 0x44 DUP1 DUP4 ADD DUP6 SWAP1 MSTORE DUP4 MLOAD DUP1 DUP5 SUB SWAP1 SWAP2 ADD DUP2 MSTORE PUSH1 0x64 SWAP1 SWAP3 ADD DUP4 MSTORE PUSH1 0x20 DUP3 ADD DUP1 MLOAD PUSH1 0x1 PUSH1 0x1 PUSH1 0xE0 SHL SUB AND PUSH4 0xA9059CBB PUSH1 0xE0 SHL OR SWAP1 MSTORE SWAP2 MLOAD PUSH1 0x0 SWAP3 DUP4 SWAP3 SWAP1 DUP8 AND SWAP2 PUSH2 0x4300 SWAP2 SWAP1 PUSH2 0x5353 JUMP JUMPDEST PUSH1 0x0 PUSH1 0x40 MLOAD DUP1 DUP4 SUB DUP2 PUSH1 0x0 DUP7 GAS CALL SWAP2 POP POP RETURNDATASIZE DUP1 PUSH1 0x0 DUP2 EQ PUSH2 0x433D JUMPI PUSH1 0x40 MLOAD SWAP2 POP PUSH1 0x1F NOT PUSH1 0x3F RETURNDATASIZE ADD AND DUP3 ADD PUSH1 0x40 MSTORE RETURNDATASIZE DUP3 MSTORE RETURNDATASIZE PUSH1 0x0 PUSH1 0x20 DUP5 ADD RETURNDATACOPY PUSH2 0x4342 JUMP JUMPDEST PUSH1 0x60 SWAP2 POP JUMPDEST POP SWAP2 POP SWAP2 POP DUP2 DUP1 ISZERO PUSH2 0x436C JUMPI POP DUP1 MLOAD ISZERO DUP1 PUSH2 0x436C JUMPI POP DUP1 DUP1 PUSH1 0x20 ADD SWAP1 MLOAD DUP2 ADD SWAP1 PUSH2 0x436C SWAP2 SWAP1 PUSH2 0x536F JUMP JUMPDEST PUSH1 0x1A SWAP1 PUSH2 0x2AFB JUMPI PUSH1 0x40 MLOAD PUSH3 0x461BCD PUSH1 0xE5 SHL DUP2 MSTORE PUSH1 0x4 ADD PUSH2 0x8EE SWAP2 SWAP1 PUSH2 0x4FB5 JUMP JUMPDEST PUSH1 0x0 DUP3 PUSH1 0x0 ADD DUP3 DUP2 SLOAD DUP2 LT PUSH2 0x43A3 JUMPI PUSH2 0x43A3 PUSH2 0x4F1C JUMP JUMPDEST SWAP1 PUSH1 0x0 MSTORE PUSH1 0x20 PUSH1 0x0 KECCAK256 ADD SLOAD SWAP1 POP SWAP3 SWAP2 POP POP JUMP JUMPDEST PUSH1 0x0 PUSH1 0x8 PUSH2 0x43C6 PUSH2 0x3840 TIMESTAMP PUSH2 0x5086 JUMP JUMPDEST PUSH2 0x43D0 SWAP2 SWAP1 PUSH2 0x52F9 JUMP JUMPDEST SWAP1 POP SWAP1 JUMP JUMPDEST PUSH1 0x0 DUP1 PUSH2 0x43E2 DUP7 DUP6 PUSH2 0x503A JUMP JUMPDEST PUSH2 0x43EC SWAP1 DUP5 PUSH2 0x5051 JUMP JUMPDEST PUSH2 0x2710 PUSH2 0x43F9 DUP9 DUP9 PUSH2 0x5051 JUMP JUMPDEST PUSH2 0x4403 SWAP2 SWAP1 PUSH2 0x5051 JUMP JUMPDEST PUSH2 0x440D SWAP2 SWAP1 PUSH2 0x5086 JUMP JUMPDEST PUSH2 0x4418 SWAP1 PUSH1 0x1 PUSH2 0x509A JUMP JUMPDEST SWAP7 SWAP6 POP POP POP POP POP POP JUMP JUMPDEST PUSH1 0x0 DUP2 DUP2 MSTORE PUSH1 0x1 DUP4 ADD PUSH1 0x20 MSTORE PUSH1 0x40 DUP2 KECCAK256 SLOAD DUP1 ISZERO PUSH2 0x450B JUMPI PUSH1 0x0 PUSH2 0x4446 PUSH1 0x1 DUP4 PUSH2 0x503A JUMP JUMPDEST DUP6 SLOAD SWAP1 SWAP2 POP PUSH1 0x0 SWAP1 PUSH2 0x445A SWAP1 PUSH1 0x1 SWAP1 PUSH2 0x503A JUMP JUMPDEST SWAP1 POP DUP2 DUP2 EQ PUSH2 0x44BF JUMPI PUSH1 0x0 DUP7 PUSH1 0x0 ADD DUP3 DUP2 SLOAD DUP2 LT PUSH2 0x447A JUMPI PUSH2 0x447A PUSH2 0x4F1C JUMP JUMPDEST SWAP1 PUSH1 0x0 MSTORE PUSH1 0x20 PUSH1 0x0 KECCAK256 ADD SLOAD SWAP1 POP DUP1 DUP8 PUSH1 0x0 ADD DUP5 DUP2 SLOAD DUP2 LT PUSH2 0x449D JUMPI PUSH2 0x449D PUSH2 0x4F1C JUMP JUMPDEST PUSH1 0x0 SWAP2 DUP3 MSTORE PUSH1 0x20 DUP1 DUP4 KECCAK256 SWAP1 SWAP2 ADD SWAP3 SWAP1 SWAP3 SSTORE SWAP2 DUP3 MSTORE PUSH1 0x1 DUP9 ADD SWAP1 MSTORE PUSH1 0x40 SWAP1 KECCAK256 DUP4 SWAP1 SSTORE JUMPDEST DUP6 SLOAD DUP7 SWAP1 DUP1 PUSH2 0x44D0 JUMPI PUSH2 0x44D0 PUSH2 0x552F JUMP JUMPDEST PUSH1 0x1 SWAP1 SUB DUP2 DUP2 SWAP1 PUSH1 0x0 MSTORE PUSH1 0x20 PUSH1 0x0 KECCAK256 ADD PUSH1 0x0 SWAP1 SSTORE SWAP1 SSTORE DUP6 PUSH1 0x1 ADD PUSH1 0x0 DUP7 DUP2 MSTORE PUSH1 0x20 ADD SWAP1 DUP2 MSTORE PUSH1 0x20 ADD PUSH1 0x0 KECCAK256 PUSH1 0x0 SWAP1 SSTORE PUSH1 0x1 SWAP4 POP POP POP POP PUSH2 0x91A JUMP JUMPDEST PUSH1 0x0 SWAP2 POP POP PUSH2 0x91A JUMP JUMPDEST DUP3 DUP1 SLOAD PUSH2 0x4521 SWAP1 PUSH2 0x4F80 JUMP JUMPDEST SWAP1 PUSH1 0x0 MSTORE PUSH1 0x20 PUSH1 0x0 KECCAK256 SWAP1 PUSH1 0x1F ADD PUSH1 0x20 SWAP1 DIV DUP2 ADD SWAP3 DUP3 PUSH2 0x4543 JUMPI PUSH1 0x0 DUP6 SSTORE PUSH2 0x4589 JUMP JUMPDEST DUP3 PUSH1 0x1F LT PUSH2 0x455C JUMPI DUP1 MLOAD PUSH1 0xFF NOT AND DUP4 DUP1 ADD OR DUP6 SSTORE PUSH2 0x4589 JUMP JUMPDEST DUP3 DUP1 ADD PUSH1 0x1 ADD DUP6 SSTORE DUP3 ISZERO PUSH2 0x4589 JUMPI SWAP2 DUP3 ADD JUMPDEST DUP3 DUP2 GT ISZERO PUSH2 0x4589 JUMPI DUP3 MLOAD DUP3 SSTORE SWAP2 PUSH1 0x20 ADD SWAP2 SWAP1 PUSH1 0x1 ADD SWAP1 PUSH2 0x456E JUMP JUMPDEST POP PUSH2 0x4595 SWAP3 SWAP2 POP PUSH2 0x4689 JUMP JUMPDEST POP SWAP1 JUMP JUMPDEST PUSH1 0x40 MLOAD DUP1 PUSH1 0xA0 ADD PUSH1 0x40 MSTORE DUP1 PUSH1 0x0 PUSH1 0x1 PUSH1 0x1 PUSH1 0xA0 SHL SUB AND DUP2 MSTORE PUSH1 0x20 ADD PUSH2 0x45BC PUSH2 0x45D7 JUMP JUMPDEST DUP2 MSTORE PUSH1 0x0 PUSH1 0x20 DUP3 ADD DUP2 SWAP1 MSTORE PUSH1 0x40 DUP3 ADD DUP2 SWAP1 MSTORE PUSH1 0x60 SWAP1 SWAP2 ADD MSTORE SWAP1 JUMP JUMPDEST PUSH1 0x40 MLOAD DUP1 PUSH2 0x100 ADD PUSH1 0x40 MSTORE DUP1 PUSH1 0x8 SWAP1 PUSH1 0x20 DUP3 MUL DUP1 CALLDATASIZE DUP4 CALLDATACOPY POP SWAP2 SWAP3 SWAP2 POP POP JUMP JUMPDEST PUSH1 0x1 DUP4 ADD SWAP2 DUP4 SWAP1 DUP3 ISZERO PUSH2 0x4589 JUMPI SWAP2 PUSH1 0x20 MUL DUP3 ADD PUSH1 0x0 JUMPDEST DUP4 DUP3 GT ISZERO PUSH2 0x4650 JUMPI DUP4 MLOAD DUP4 DUP3 PUSH2 0x100 EXP DUP2 SLOAD DUP2 PUSH4 0xFFFFFFFF MUL NOT AND SWAP1 DUP4 PUSH4 0xFFFFFFFF AND MUL OR SWAP1 SSTORE POP SWAP3 PUSH1 0x20 ADD SWAP3 PUSH1 0x4 ADD PUSH1 0x20 DUP2 PUSH1 0x3 ADD DIV SWAP3 DUP4 ADD SWAP3 PUSH1 0x1 SUB MUL PUSH2 0x460C JUMP JUMPDEST DUP1 ISZERO PUSH2 0x4680 JUMPI DUP3 DUP2 PUSH2 0x100 EXP DUP2 SLOAD SWAP1 PUSH4 0xFFFFFFFF MUL NOT AND SWAP1 SSTORE PUSH1 0x4 ADD PUSH1 0x20 DUP2 PUSH1 0x3 ADD DIV SWAP3 DUP4 ADD SWAP3 PUSH1 0x1 SUB MUL PUSH2 0x4650 JUMP JUMPDEST POP POP PUSH2 0x4595 SWAP3 SWAP2 POP JUMPDEST JUMPDEST DUP1 DUP3 GT ISZERO PUSH2 0x4595 JUMPI PUSH1 0x0 DUP2 SSTORE PUSH1 0x1 ADD PUSH2 0x468A JUMP JUMPDEST PUSH1 0x1 PUSH1 0x1 PUSH1 0xA0 SHL SUB DUP2 AND DUP2 EQ PUSH2 0x46B3 JUMPI PUSH1 0x0 DUP1 REVERT JUMPDEST POP JUMP JUMPDEST PUSH1 0x0 DUP1 PUSH1 0x40 DUP4 DUP6 SUB SLT ISZERO PUSH2 0x46C9 JUMPI PUSH1 0x0 DUP1 REVERT JUMPDEST DUP3 CALLDATALOAD PUSH2 0x46D4 DUP2 PUSH2 0x469E JUMP JUMPDEST SWAP5 PUSH1 0x20 SWAP4 SWAP1 SWAP4 ADD CALLDATALOAD SWAP4 POP POP POP JUMP JUMPDEST PUSH1 0x1 PUSH1 0x1 PUSH1 0xE0 SHL SUB NOT DUP2 AND DUP2 EQ PUSH2 0x46B3 JUMPI PUSH1 0x0 DUP1 REVERT JUMPDEST PUSH1 0x0 PUSH1 0x20 DUP3 DUP5 SUB SLT ISZERO PUSH2 0x470A JUMPI PUSH1 0x0 DUP1 REVERT JUMPDEST DUP2 CALLDATALOAD PUSH2 0x1272 DUP2 PUSH2 0x46E2 JUMP JUMPDEST PUSH1 0x0 DUP1 PUSH1 0x20 DUP4 DUP6 SUB SLT ISZERO PUSH2 0x4728 JUMPI PUSH1 0x0 DUP1 REVERT JUMPDEST DUP3 CALLDATALOAD PUSH8 0xFFFFFFFFFFFFFFFF DUP1 DUP3 GT ISZERO PUSH2 0x4740 JUMPI PUSH1 0x0 DUP1 REVERT JUMPDEST DUP2 DUP6 ADD SWAP2 POP DUP6 PUSH1 0x1F DUP4 ADD SLT PUSH2 0x4754 JUMPI PUSH1 0x0 DUP1 REVERT JUMPDEST DUP2 CALLDATALOAD DUP2 DUP2 GT ISZERO PUSH2 0x4763 JUMPI PUSH1 0x0 DUP1 REVERT JUMPDEST DUP7 PUSH1 0x20 DUP3 PUSH1 0x6 SHL DUP6 ADD ADD GT ISZERO PUSH2 0x4778 JUMPI PUSH1 0x0 DUP1 REVERT JUMPDEST PUSH1 0x20 SWAP3 SWAP1 SWAP3 ADD SWAP7 SWAP2 SWAP6 POP SWAP1 SWAP4 POP POP POP POP JUMP JUMPDEST PUSH1 0x0 PUSH1 0x20 DUP3 DUP5 SUB SLT ISZERO PUSH2 0x479C JUMPI PUSH1 0x0 DUP1 REVERT JUMPDEST DUP2 CALLDATALOAD PUSH2 0x1272 DUP2 PUSH2 0x469E JUMP JUMPDEST PUSH1 0x0 PUSH1 0x20 DUP3 DUP5 SUB SLT ISZERO PUSH2 0x47B9 JUMPI PUSH1 0x0 DUP1 REVERT JUMPDEST POP CALLDATALOAD SWAP2 SWAP1 POP JUMP JUMPDEST PUSH1 0x0 JUMPDEST DUP4 DUP2 LT ISZERO PUSH2 0x47DB JUMPI DUP2 DUP2 ADD MLOAD DUP4 DUP3 ADD MSTORE PUSH1 0x20 ADD PUSH2 0x47C3 JUMP JUMPDEST DUP4 DUP2 GT ISZERO PUSH2 0x9E7 JUMPI POP POP PUSH1 0x0 SWAP2 ADD MSTORE JUMP JUMPDEST PUSH1 0x0 DUP2 MLOAD DUP1 DUP5 MSTORE PUSH2 0x4804 DUP2 PUSH1 0x20 DUP7 ADD PUSH1 0x20 DUP7 ADD PUSH2 0x47C0 JUMP JUMPDEST PUSH1 0x1F ADD PUSH1 0x1F NOT AND SWAP3 SWAP1 SWAP3 ADD PUSH1 0x20 ADD SWAP3 SWAP2 POP POP JUMP JUMPDEST PUSH1 0x20 DUP2 MSTORE PUSH1 0x0 PUSH2 0x1272 PUSH1 0x20 DUP4 ADD DUP5 PUSH2 0x47EC JUMP JUMPDEST PUSH1 0x0 DUP1 PUSH1 0x0 DUP1 PUSH1 0x80 DUP6 DUP8 SUB SLT ISZERO PUSH2 0x4841 JUMPI PUSH1 0x0 DUP1 REVERT JUMPDEST DUP5 CALLDATALOAD PUSH2 0x484C DUP2 PUSH2 0x469E JUMP JUMPDEST SWAP4 POP PUSH1 0x20 DUP6 ADD CALLDATALOAD PUSH2 0x485C DUP2 PUSH2 0x469E JUMP JUMPDEST SWAP3 POP PUSH1 0x40 DUP6 ADD CALLDATALOAD SWAP2 POP PUSH1 0x60 DUP6 ADD CALLDATALOAD PUSH2 0x4873 DUP2 PUSH2 0x469E JUMP JUMPDEST SWAP4 SWAP7 SWAP3 SWAP6 POP SWAP1 SWAP4 POP POP JUMP JUMPDEST PUSH4 0x4E487B71 PUSH1 0xE0 SHL PUSH1 0x0 MSTORE PUSH1 0x41 PUSH1 0x4 MSTORE PUSH1 0x24 PUSH1 0x0 REVERT JUMPDEST PUSH1 0x1F DUP3 ADD PUSH1 0x1F NOT AND DUP2 ADD PUSH8 0xFFFFFFFFFFFFFFFF DUP2 GT DUP3 DUP3 LT OR ISZERO PUSH2 0x48BA JUMPI PUSH2 0x48BA PUSH2 0x487E JUMP JUMPDEST PUSH1 0x40 MSTORE POP POP JUMP JUMPDEST PUSH1 0x0 PUSH8 0xFFFFFFFFFFFFFFFF DUP3 GT ISZERO PUSH2 0x48DB JUMPI PUSH2 0x48DB PUSH2 0x487E JUMP JUMPDEST POP PUSH1 0x5 SHL PUSH1 0x20 ADD SWAP1 JUMP JUMPDEST PUSH1 0x0 DUP3 PUSH1 0x1F DUP4 ADD SLT PUSH2 0x48F6 JUMPI PUSH1 0x0 DUP1 REVERT JUMPDEST DUP2 CALLDATALOAD PUSH1 0x20 PUSH2 0x4903 DUP3 PUSH2 0x48C1 JUMP JUMPDEST PUSH1 0x40 MLOAD PUSH2 0x4910 DUP3 DUP3 PUSH2 0x4894 JUMP JUMPDEST DUP4 DUP2 MSTORE PUSH1 0x5 SWAP4 SWAP1 SWAP4 SHL DUP6 ADD DUP3 ADD SWAP3 DUP3 DUP2 ADD SWAP2 POP DUP7 DUP5 GT ISZERO PUSH2 0x4930 JUMPI PUSH1 0x0 DUP1 REVERT JUMPDEST DUP3 DUP7 ADD JUMPDEST DUP5 DUP2 LT ISZERO PUSH2 0x494B JUMPI DUP1 CALLDATALOAD DUP4 MSTORE SWAP2 DUP4 ADD SWAP2 DUP4 ADD PUSH2 0x4934 JUMP JUMPDEST POP SWAP7 SWAP6 POP POP POP POP POP POP JUMP JUMPDEST PUSH1 0x0 DUP3 PUSH1 0x1F DUP4 ADD SLT PUSH2 0x4967 JUMPI PUSH1 0x0 DUP1 REVERT JUMPDEST DUP2 CALLDATALOAD PUSH8 0xFFFFFFFFFFFFFFFF DUP2 GT ISZERO PUSH2 0x4981 JUMPI PUSH2 0x4981 PUSH2 0x487E JUMP JUMPDEST PUSH1 0x40 MLOAD PUSH2 0x4998 PUSH1 0x1F DUP4 ADD PUSH1 0x1F NOT AND PUSH1 0x20 ADD DUP3 PUSH2 0x4894 JUMP JUMPDEST DUP2 DUP2 MSTORE DUP5 PUSH1 0x20 DUP4 DUP7 ADD ADD GT ISZERO PUSH2 0x49AD JUMPI PUSH1 0x0 DUP1 REVERT JUMPDEST DUP2 PUSH1 0x20 DUP6 ADD PUSH1 0x20 DUP4 ADD CALLDATACOPY PUSH1 0x0 SWAP2 DUP2 ADD PUSH1 0x20 ADD SWAP2 SWAP1 SWAP2 MSTORE SWAP4 SWAP3 POP POP POP JUMP JUMPDEST PUSH1 0x0 DUP1 PUSH1 0x0 DUP1 PUSH1 0x0 PUSH1 0xA0 DUP7 DUP9 SUB SLT ISZERO PUSH2 0x49E2 JUMPI PUSH1 0x0 DUP1 REVERT JUMPDEST DUP6 CALLDATALOAD PUSH2 0x49ED DUP2 PUSH2 0x469E JUMP JUMPDEST SWAP5 POP PUSH1 0x20 DUP7 ADD CALLDATALOAD PUSH2 0x49FD DUP2 PUSH2 0x469E JUMP JUMPDEST SWAP4 POP PUSH1 0x40 DUP7 ADD CALLDATALOAD PUSH8 0xFFFFFFFFFFFFFFFF DUP1 DUP3 GT ISZERO PUSH2 0x4A1A JUMPI PUSH1 0x0 DUP1 REVERT JUMPDEST PUSH2 0x4A26 DUP10 DUP4 DUP11 ADD PUSH2 0x48E5 JUMP JUMPDEST SWAP5 POP PUSH1 0x60 DUP9 ADD CALLDATALOAD SWAP2 POP DUP1 DUP3 GT ISZERO PUSH2 0x4A3C JUMPI PUSH1 0x0 DUP1 REVERT JUMPDEST PUSH2 0x4A48 DUP10 DUP4 DUP11 ADD PUSH2 0x48E5 JUMP JUMPDEST SWAP4 POP PUSH1 0x80 DUP9 ADD CALLDATALOAD SWAP2 POP DUP1 DUP3 GT ISZERO PUSH2 0x4A5E JUMPI PUSH1 0x0 DUP1 REVERT JUMPDEST POP PUSH2 0x4A6B DUP9 DUP3 DUP10 ADD PUSH2 0x4956 JUMP JUMPDEST SWAP2 POP POP SWAP3 SWAP6 POP SWAP3 SWAP6 SWAP1 SWAP4 POP JUMP JUMPDEST PUSH1 0x0 DUP1 PUSH1 0x40 DUP4 DUP6 SUB SLT ISZERO PUSH2 0x4A8B JUMPI PUSH1 0x0 DUP1 REVERT JUMPDEST DUP3 CALLDATALOAD SWAP2 POP PUSH1 0x20 DUP4 ADD CALLDATALOAD PUSH2 0x4A9D DUP2 PUSH2 0x469E JUMP JUMPDEST DUP1 SWAP2 POP POP SWAP3 POP SWAP3 SWAP1 POP JUMP JUMPDEST PUSH1 0x0 DUP1 PUSH1 0x40 DUP4 DUP6 SUB SLT ISZERO PUSH2 0x4ABB JUMPI PUSH1 0x0 DUP1 REVERT JUMPDEST DUP3 CALLDATALOAD PUSH8 0xFFFFFFFFFFFFFFFF DUP1 DUP3 GT ISZERO PUSH2 0x4AD3 JUMPI PUSH1 0x0 DUP1 REVERT JUMPDEST PUSH2 0x4ADF DUP7 DUP4 DUP8 ADD PUSH2 0x4956 JUMP JUMPDEST SWAP4 POP PUSH1 0x20 DUP6 ADD CALLDATALOAD SWAP2 POP DUP1 DUP3 GT ISZERO PUSH2 0x4AF5 JUMPI PUSH1 0x0 DUP1 REVERT JUMPDEST POP PUSH2 0x4B02 DUP6 DUP3 DUP7 ADD PUSH2 0x4956 JUMP JUMPDEST SWAP2 POP POP SWAP3 POP SWAP3 SWAP1 POP JUMP JUMPDEST PUSH1 0x0 DUP1 PUSH1 0x0 PUSH1 0x60 DUP5 DUP7 SUB SLT ISZERO PUSH2 0x4B21 JUMPI PUSH1 0x0 DUP1 REVERT JUMPDEST DUP4 CALLDATALOAD PUSH2 0x4B2C DUP2 PUSH2 0x469E JUMP JUMPDEST SWAP3 POP PUSH1 0x20 DUP5 ADD CALLDATALOAD PUSH2 0x4B3C DUP2 PUSH2 0x469E JUMP JUMPDEST SWAP3 SWAP6 SWAP3 SWAP5 POP POP POP PUSH1 0x40 SWAP2 SWAP1 SWAP2 ADD CALLDATALOAD SWAP1 JUMP JUMPDEST PUSH1 0x0 DUP1 PUSH1 0x40 DUP4 DUP6 SUB SLT ISZERO PUSH2 0x4B60 JUMPI PUSH1 0x0 DUP1 REVERT JUMPDEST DUP3 CALLDATALOAD PUSH8 0xFFFFFFFFFFFFFFFF DUP1 DUP3 GT ISZERO PUSH2 0x4B78 JUMPI PUSH1 0x0 DUP1 REVERT JUMPDEST DUP2 DUP6 ADD SWAP2 POP DUP6 PUSH1 0x1F DUP4 ADD SLT PUSH2 0x4B8C JUMPI PUSH1 0x0 DUP1 REVERT JUMPDEST DUP2 CALLDATALOAD PUSH1 0x20 PUSH2 0x4B99 DUP3 PUSH2 0x48C1 JUMP JUMPDEST PUSH1 0x40 MLOAD PUSH2 0x4BA6 DUP3 DUP3 PUSH2 0x4894 JUMP JUMPDEST DUP4 DUP2 MSTORE PUSH1 0x5 SWAP4 SWAP1 SWAP4 SHL DUP6 ADD DUP3 ADD SWAP3 DUP3 DUP2 ADD SWAP2 POP DUP10 DUP5 GT ISZERO PUSH2 0x4BC6 JUMPI PUSH1 0x0 DUP1 REVERT JUMPDEST SWAP5 DUP3 ADD SWAP5 JUMPDEST DUP4 DUP7 LT ISZERO PUSH2 0x4BED JUMPI DUP6 CALLDATALOAD PUSH2 0x4BDE DUP2 PUSH2 0x469E JUMP JUMPDEST DUP3 MSTORE SWAP5 DUP3 ADD SWAP5 SWAP1 DUP3 ADD SWAP1 PUSH2 0x4BCB JUMP JUMPDEST SWAP7 POP POP DUP7 ADD CALLDATALOAD SWAP3 POP POP DUP1 DUP3 GT ISZERO PUSH2 0x4C03 JUMPI PUSH1 0x0 DUP1 REVERT JUMPDEST POP PUSH2 0x4B02 DUP6 DUP3 DUP7 ADD PUSH2 0x48E5 JUMP JUMPDEST PUSH1 0x0 DUP2 MLOAD DUP1 DUP5 MSTORE PUSH1 0x20 DUP1 DUP6 ADD SWAP5 POP DUP1 DUP5 ADD PUSH1 0x0 JUMPDEST DUP4 DUP2 LT ISZERO PUSH2 0x4C40 JUMPI DUP2 MLOAD DUP8 MSTORE SWAP6 DUP3 ADD SWAP6 SWAP1 DUP3 ADD SWAP1 PUSH1 0x1 ADD PUSH2 0x4C24 JUMP JUMPDEST POP SWAP5 SWAP6 SWAP5 POP POP POP POP POP JUMP JUMPDEST PUSH1 0x20 DUP2 MSTORE PUSH1 0x0 PUSH2 0x1272 PUSH1 0x20 DUP4 ADD DUP5 PUSH2 0x4C10 JUMP JUMPDEST PUSH1 0x0 DUP1 PUSH1 0x40 DUP4 DUP6 SUB SLT ISZERO PUSH2 0x4C71 JUMPI PUSH1 0x0 DUP1 REVERT JUMPDEST POP POP DUP1 CALLDATALOAD SWAP3 PUSH1 0x20 SWAP1 SWAP2 ADD CALLDATALOAD SWAP2 POP JUMP JUMPDEST DUP1 ISZERO ISZERO DUP2 EQ PUSH2 0x46B3 JUMPI PUSH1 0x0 DUP1 REVERT JUMPDEST PUSH1 0x0 DUP1 PUSH1 0x40 DUP4 DUP6 SUB SLT ISZERO PUSH2 0x4CA1 JUMPI PUSH1 0x0 DUP1 REVERT JUMPDEST DUP3 CALLDATALOAD PUSH2 0x4CAC DUP2 PUSH2 0x469E JUMP JUMPDEST SWAP2 POP PUSH1 0x20 DUP4 ADD CALLDATALOAD PUSH2 0x4A9D DUP2 PUSH2 0x4C80 JUMP JUMPDEST PUSH1 0x0 DUP1 PUSH1 0x0 DUP1 PUSH1 0x0 DUP1 PUSH1 0xC0 DUP8 DUP10 SUB SLT ISZERO PUSH2 0x4CD5 JUMPI PUSH1 0x0 DUP1 REVERT JUMPDEST DUP7 CALLDATALOAD PUSH2 0x4CE0 DUP2 PUSH2 0x469E JUMP JUMPDEST SWAP6 POP PUSH1 0x20 DUP8 ADD CALLDATALOAD PUSH2 0x4CF0 DUP2 PUSH2 0x469E JUMP JUMPDEST SWAP5 POP PUSH1 0x40 DUP8 ADD CALLDATALOAD SWAP4 POP PUSH1 0x60 DUP8 ADD CALLDATALOAD SWAP3 POP PUSH1 0x80 DUP8 ADD CALLDATALOAD SWAP2 POP PUSH1 0xA0 DUP8 ADD CALLDATALOAD PUSH2 0x4D15 DUP2 PUSH2 0x469E JUMP JUMPDEST DUP1 SWAP2 POP POP SWAP3 SWAP6 POP SWAP3 SWAP6 POP SWAP3 SWAP6 JUMP JUMPDEST PUSH1 0x0 PUSH1 0x20 DUP3 DUP5 SUB SLT ISZERO PUSH2 0x4D35 JUMPI PUSH1 0x0 DUP1 REVERT JUMPDEST DUP2 CALLDATALOAD PUSH8 0xFFFFFFFFFFFFFFFF DUP2 GT ISZERO PUSH2 0x4D4C JUMPI PUSH1 0x0 DUP1 REVERT JUMPDEST PUSH2 0x2910 DUP5 DUP3 DUP6 ADD PUSH2 0x4956 JUMP JUMPDEST DUP2 MLOAD PUSH1 0x1 PUSH1 0x1 PUSH1 0xA0 SHL SUB AND DUP2 MSTORE PUSH1 0x20 DUP1 DUP4 ADD MLOAD PUSH2 0x180 DUP4 ADD SWAP2 SWAP1 DUP2 DUP5 ADD PUSH1 0x0 JUMPDEST PUSH1 0x8 DUP2 LT ISZERO PUSH2 0x4D9B JUMPI DUP3 MLOAD PUSH4 0xFFFFFFFF AND DUP3 MSTORE SWAP2 DUP4 ADD SWAP2 SWAP1 DUP4 ADD SWAP1 PUSH1 0x1 ADD PUSH2 0x4D78 JUMP JUMPDEST POP POP POP POP PUSH1 0x40 DUP4 ADD MLOAD PUSH1 0x1 PUSH1 0x1 PUSH1 0x70 SHL SUB SWAP1 DUP2 AND PUSH2 0x120 DUP5 ADD MSTORE PUSH1 0x60 DUP5 ADD MLOAD DUP2 AND PUSH2 0x140 DUP5 ADD MSTORE PUSH1 0x80 DUP5 ADD MLOAD SWAP1 DUP2 AND PUSH2 0x160 DUP5 ADD MSTORE PUSH2 0x2C3C JUMP JUMPDEST PUSH1 0x0 DUP1 PUSH1 0x0 DUP1 PUSH1 0x80 DUP6 DUP8 SUB SLT ISZERO PUSH2 0x4DEB JUMPI PUSH1 0x0 DUP1 REVERT JUMPDEST DUP5 CALLDATALOAD PUSH2 0x4DF6 DUP2 PUSH2 0x469E JUMP JUMPDEST SWAP4 POP PUSH1 0x20 DUP6 ADD CALLDATALOAD SWAP3 POP PUSH1 0x40 DUP6 ADD CALLDATALOAD SWAP2 POP PUSH1 0x60 DUP6 ADD CALLDATALOAD PUSH2 0x4873 DUP2 PUSH2 0x469E JUMP JUMPDEST PUSH1 0x0 DUP1 PUSH1 0x40 DUP4 DUP6 SUB SLT ISZERO PUSH2 0x4E27 JUMPI PUSH1 0x0 DUP1 REVERT JUMPDEST DUP3 CALLDATALOAD PUSH2 0x4E32 DUP2 PUSH2 0x469E JUMP JUMPDEST SWAP2 POP PUSH1 0x20 DUP4 ADD CALLDATALOAD PUSH2 0x4A9D DUP2 PUSH2 0x469E JUMP JUMPDEST PUSH1 0x0 DUP1 PUSH1 0x0 DUP1 PUSH1 0x0 PUSH1 0xA0 DUP7 DUP9 SUB SLT ISZERO PUSH2 0x4E5A JUMPI PUSH1 0x0 DUP1 REVERT JUMPDEST DUP6 CALLDATALOAD PUSH2 0x4E65 DUP2 PUSH2 0x469E JUMP JUMPDEST SWAP5 POP PUSH1 0x20 DUP7 ADD CALLDATALOAD PUSH2 0x4E75 DUP2 PUSH2 0x469E JUMP JUMPDEST SWAP4 POP PUSH1 0x40 DUP7 ADD CALLDATALOAD PUSH2 0x4E85 DUP2 PUSH2 0x469E JUMP JUMPDEST SWAP3 POP PUSH1 0x60 DUP7 ADD CALLDATALOAD PUSH2 0x4E95 DUP2 PUSH2 0x469E JUMP JUMPDEST SWAP2 POP PUSH1 0x80 DUP7 ADD CALLDATALOAD PUSH2 0x4EA5 DUP2 PUSH2 0x469E JUMP JUMPDEST DUP1 SWAP2 POP POP SWAP3 SWAP6 POP SWAP3 SWAP6 SWAP1 SWAP4 POP JUMP JUMPDEST PUSH1 0x0 DUP1 PUSH1 0x0 DUP1 PUSH1 0x0 PUSH1 0xA0 DUP7 DUP9 SUB SLT ISZERO PUSH2 0x4ECB JUMPI PUSH1 0x0 DUP1 REVERT JUMPDEST DUP6 CALLDATALOAD PUSH2 0x4ED6 DUP2 PUSH2 0x469E JUMP JUMPDEST SWAP5 POP PUSH1 0x20 DUP7 ADD CALLDATALOAD PUSH2 0x4EE6 DUP2 PUSH2 0x469E JUMP JUMPDEST SWAP4 POP PUSH1 0x40 DUP7 ADD CALLDATALOAD SWAP3 POP PUSH1 0x60 DUP7 ADD CALLDATALOAD SWAP2 POP PUSH1 0x80 DUP7 ADD CALLDATALOAD PUSH8 0xFFFFFFFFFFFFFFFF DUP2 GT ISZERO PUSH2 0x4F10 JUMPI PUSH1 0x0 DUP1 REVERT JUMPDEST PUSH2 0x4A6B DUP9 DUP3 DUP10 ADD PUSH2 0x4956 JUMP JUMPDEST PUSH4 0x4E487B71 PUSH1 0xE0 SHL PUSH1 0x0 MSTORE PUSH1 0x32 PUSH1 0x4 MSTORE PUSH1 0x24 PUSH1 0x0 REVERT JUMPDEST PUSH4 0x4E487B71 PUSH1 0xE0 SHL PUSH1 0x0 MSTORE PUSH1 0x11 PUSH1 0x4 MSTORE PUSH1 0x24 PUSH1 0x0 REVERT JUMPDEST PUSH1 0x0 PUSH1 0x0 NOT DUP3 EQ ISZERO PUSH2 0x4F5C JUMPI PUSH2 0x4F5C PUSH2 0x4F32 JUMP JUMPDEST POP PUSH1 0x1 ADD SWAP1 JUMP JUMPDEST PUSH1 0x0 PUSH1 0x20 DUP3 DUP5 SUB SLT ISZERO PUSH2 0x4F75 JUMPI PUSH1 0x0 DUP1 REVERT JUMPDEST DUP2 MLOAD PUSH2 0x1272 DUP2 PUSH2 0x469E JUMP JUMPDEST PUSH1 0x1 DUP2 DUP2 SHR SWAP1 DUP3 AND DUP1 PUSH2 0x4F94 JUMPI PUSH1 0x7F DUP3 AND SWAP2 POP JUMPDEST PUSH1 0x20 DUP3 LT DUP2 EQ ISZERO PUSH2 0x27B0 JUMPI PUSH4 0x4E487B71 PUSH1 0xE0 SHL PUSH1 0x0 MSTORE PUSH1 0x22 PUSH1 0x4 MSTORE PUSH1 0x24 PUSH1 0x0 REVERT JUMPDEST PUSH1 0x0 PUSH1 0x20 DUP1 DUP4 MSTORE PUSH1 0x0 DUP5 SLOAD PUSH2 0x4FC9 DUP2 PUSH2 0x4F80 JUMP JUMPDEST DUP1 DUP5 DUP8 ADD MSTORE PUSH1 0x40 PUSH1 0x1 DUP1 DUP5 AND PUSH1 0x0 DUP2 EQ PUSH2 0x4FEA JUMPI PUSH1 0x1 DUP2 EQ PUSH2 0x4FFE JUMPI PUSH2 0x502C JUMP JUMPDEST PUSH1 0xFF NOT DUP6 AND DUP10 DUP5 ADD MSTORE PUSH1 0x60 DUP10 ADD SWAP6 POP PUSH2 0x502C JUMP JUMPDEST DUP10 PUSH1 0x0 MSTORE DUP7 PUSH1 0x0 KECCAK256 PUSH1 0x0 JUMPDEST DUP6 DUP2 LT ISZERO PUSH2 0x5024 JUMPI DUP2 SLOAD DUP12 DUP3 ADD DUP7 ADD MSTORE SWAP1 DUP4 ADD SWAP1 DUP9 ADD PUSH2 0x5009 JUMP JUMPDEST DUP11 ADD DUP5 ADD SWAP7 POP POP JUMPDEST POP SWAP4 SWAP9 SWAP8 POP POP POP POP POP POP POP POP JUMP JUMPDEST PUSH1 0x0 DUP3 DUP3 LT ISZERO PUSH2 0x504C JUMPI PUSH2 0x504C PUSH2 0x4F32 JUMP JUMPDEST POP SUB SWAP1 JUMP JUMPDEST PUSH1 0x0 DUP2 PUSH1 0x0 NOT DIV DUP4 GT DUP3 ISZERO ISZERO AND ISZERO PUSH2 0x506B JUMPI PUSH2 0x506B PUSH2 0x4F32 JUMP JUMPDEST POP MUL SWAP1 JUMP JUMPDEST PUSH4 0x4E487B71 PUSH1 0xE0 SHL PUSH1 0x0 MSTORE PUSH1 0x12 PUSH1 0x4 MSTORE PUSH1 0x24 PUSH1 0x0 REVERT JUMPDEST PUSH1 0x0 DUP3 PUSH2 0x5095 JUMPI PUSH2 0x5095 PUSH2 0x5070 JUMP JUMPDEST POP DIV SWAP1 JUMP JUMPDEST PUSH1 0x0 DUP3 NOT DUP3 GT ISZERO PUSH2 0x50AD JUMPI PUSH2 0x50AD PUSH2 0x4F32 JUMP JUMPDEST POP ADD SWAP1 JUMP JUMPDEST PUSH1 0x0 PUSH1 0x1 PUSH1 0x1 PUSH1 0x70 SHL SUB DUP1 DUP4 AND DUP2 DUP6 AND DUP1 DUP4 SUB DUP3 GT ISZERO PUSH2 0x50D4 JUMPI PUSH2 0x50D4 PUSH2 0x4F32 JUMP JUMPDEST ADD SWAP5 SWAP4 POP POP POP POP JUMP JUMPDEST PUSH1 0x0 DUP1 DUP5 SLOAD PUSH2 0x50EB DUP2 PUSH2 0x4F80 JUMP JUMPDEST PUSH1 0x1 DUP3 DUP2 AND DUP1 ISZERO PUSH2 0x5103 JUMPI PUSH1 0x1 DUP2 EQ PUSH2 0x5114 JUMPI PUSH2 0x5143 JUMP JUMPDEST PUSH1 0xFF NOT DUP5 AND DUP8 MSTORE DUP3 DUP8 ADD SWAP5 POP PUSH2 0x5143 JUMP JUMPDEST DUP9 PUSH1 0x0 MSTORE PUSH1 0x20 DUP1 PUSH1 0x0 KECCAK256 PUSH1 0x0 JUMPDEST DUP6 DUP2 LT ISZERO PUSH2 0x513A JUMPI DUP2 SLOAD DUP11 DUP3 ADD MSTORE SWAP1 DUP5 ADD SWAP1 DUP3 ADD PUSH2 0x5121 JUMP JUMPDEST POP POP POP DUP3 DUP8 ADD SWAP5 POP JUMPDEST POP POP POP SWAP4 DUP2 MSTORE PUSH5 0x173539B7B7 PUSH1 0xD9 SHL PUSH1 0x20 DUP3 ADD MSTORE PUSH1 0x25 ADD SWAP5 SWAP4 POP POP POP POP JUMP JUMPDEST PUSH1 0x0 PUSH1 0x1 PUSH1 0x1 PUSH1 0x70 SHL SUB DUP4 DUP2 AND SWAP1 DUP4 AND DUP2 DUP2 LT ISZERO PUSH2 0x5182 JUMPI PUSH2 0x5182 PUSH2 0x4F32 JUMP JUMPDEST SUB SWAP4 SWAP3 POP POP POP JUMP JUMPDEST PUSH1 0x0 DUP3 MLOAD PUSH2 0x519C DUP2 DUP5 PUSH1 0x20 DUP8 ADD PUSH2 0x47C0 JUMP JUMPDEST PUSH9 0x3DB4B23E973539B7B7 PUSH1 0xB9 SHL SWAP3 ADD SWAP2 DUP3 MSTORE POP PUSH1 0x9 ADD SWAP2 SWAP1 POP JUMP JUMPDEST PUSH32 0x416363657373436F6E74726F6C3A206163636F756E7420000000000000000000 DUP2 MSTORE PUSH1 0x0 DUP4 MLOAD PUSH2 0x51EF DUP2 PUSH1 0x17 DUP6 ADD PUSH1 0x20 DUP9 ADD PUSH2 0x47C0 JUMP JUMPDEST PUSH17 0x1034B99036B4B9B9B4B733903937B6329 PUSH1 0x7D SHL PUSH1 0x17 SWAP2 DUP5 ADD SWAP2 DUP3 ADD MSTORE DUP4 MLOAD PUSH2 0x5220 DUP2 PUSH1 0x28 DUP5 ADD PUSH1 0x20 DUP9 ADD PUSH2 0x47C0 JUMP JUMPDEST ADD PUSH1 0x28 ADD SWAP5 SWAP4 POP POP POP POP JUMP JUMPDEST PUSH1 0x0 PUSH1 0x20 DUP3 DUP5 SUB SLT ISZERO PUSH2 0x523E JUMPI PUSH1 0x0 DUP1 REVERT JUMPDEST POP MLOAD SWAP2 SWAP1 POP JUMP JUMPDEST PUSH1 0x20 DUP1 DUP3 MSTORE PUSH1 0x25 SWAP1 DUP3 ADD MSTORE PUSH32 0x455243313135353A207472616E7366657220746F20746865207A65726F206164 PUSH1 0x40 DUP3 ADD MSTORE PUSH5 0x6472657373 PUSH1 0xD8 SHL PUSH1 0x60 DUP3 ADD MSTORE PUSH1 0x80 ADD SWAP1 JUMP JUMPDEST PUSH1 0x20 DUP1 DUP3 MSTORE PUSH1 0x2A SWAP1 DUP3 ADD MSTORE PUSH32 0x455243313135353A20696E73756666696369656E742062616C616E636520666F PUSH1 0x40 DUP3 ADD MSTORE PUSH10 0x39103A3930B739B332B9 PUSH1 0xB1 SHL PUSH1 0x60 DUP3 ADD MSTORE PUSH1 0x80 ADD SWAP1 JUMP JUMPDEST PUSH1 0x40 DUP2 MSTORE PUSH1 0x0 PUSH2 0x52E7 PUSH1 0x40 DUP4 ADD DUP6 PUSH2 0x4C10 JUMP JUMPDEST DUP3 DUP2 SUB PUSH1 0x20 DUP5 ADD MSTORE PUSH2 0x126E DUP2 DUP6 PUSH2 0x4C10 JUMP JUMPDEST PUSH1 0x0 DUP3 PUSH2 0x5308 JUMPI PUSH2 0x5308 PUSH2 0x5070 JUMP JUMPDEST POP MOD SWAP1 JUMP JUMPDEST PUSH1 0x0 PUSH1 0x1 PUSH1 0x1 PUSH1 0x70 SHL SUB DUP1 DUP4 AND DUP2 DUP6 AND DUP2 DUP4 DIV DUP2 GT DUP3 ISZERO ISZERO AND ISZERO PUSH2 0x5333 JUMPI PUSH2 0x5333 PUSH2 0x4F32 JUMP JUMPDEST MUL SWAP5 SWAP4 POP POP POP POP JUMP JUMPDEST PUSH1 0x0 DUP2 PUSH2 0x534B JUMPI PUSH2 0x534B PUSH2 0x4F32 JUMP JUMPDEST POP PUSH1 0x0 NOT ADD SWAP1 JUMP JUMPDEST PUSH1 0x0 DUP3 MLOAD PUSH2 0x5365 DUP2 DUP5 PUSH1 0x20 DUP8 ADD PUSH2 0x47C0 JUMP JUMPDEST SWAP2 SWAP1 SWAP2 ADD SWAP3 SWAP2 POP POP JUMP JUMPDEST PUSH1 0x0 PUSH1 0x20 DUP3 DUP5 SUB SLT ISZERO PUSH2 0x5381 JUMPI PUSH1 0x0 DUP1 REVERT JUMPDEST DUP2 MLOAD PUSH2 0x1272 DUP2 PUSH2 0x4C80 JUMP JUMPDEST PUSH1 0x1 PUSH1 0x1 PUSH1 0xA0 SHL SUB DUP7 DUP2 AND DUP3 MSTORE DUP6 AND PUSH1 0x20 DUP3 ADD MSTORE PUSH1 0x40 DUP2 ADD DUP5 SWAP1 MSTORE PUSH1 0x60 DUP2 ADD DUP4 SWAP1 MSTORE PUSH1 0xA0 PUSH1 0x80 DUP3 ADD DUP2 SWAP1 MSTORE PUSH1 0x0 SWAP1 PUSH2 0x4207 SWAP1 DUP4 ADD DUP5 PUSH2 0x47EC JUMP JUMPDEST PUSH1 0x0 PUSH1 0x20 DUP3 DUP5 SUB SLT ISZERO PUSH2 0x53D8 JUMPI PUSH1 0x0 DUP1 REVERT JUMPDEST DUP2 MLOAD PUSH2 0x1272 DUP2 PUSH2 0x46E2 JUMP JUMPDEST PUSH1 0x0 PUSH1 0x3 RETURNDATASIZE GT ISZERO PUSH2 0x53FC JUMPI PUSH1 0x4 PUSH1 0x0 DUP1 RETURNDATACOPY POP PUSH1 0x0 MLOAD PUSH1 0xE0 SHR JUMPDEST SWAP1 JUMP JUMPDEST PUSH1 0x0 PUSH1 0x44 RETURNDATASIZE LT ISZERO PUSH2 0x540D JUMPI SWAP1 JUMP JUMPDEST PUSH1 0x40 MLOAD PUSH1 0x3 NOT RETURNDATASIZE DUP2 ADD PUSH1 0x4 DUP4 RETURNDATACOPY DUP2 MLOAD RETURNDATASIZE PUSH8 0xFFFFFFFFFFFFFFFF DUP2 PUSH1 0x24 DUP5 ADD GT DUP2 DUP5 GT OR ISZERO PUSH2 0x543D JUMPI POP POP POP POP POP SWAP1 JUMP JUMPDEST DUP3 DUP6 ADD SWAP2 POP DUP2 MLOAD DUP2 DUP2 GT ISZERO PUSH2 0x5455 JUMPI POP POP POP POP POP POP SWAP1 JUMP JUMPDEST DUP5 RETURNDATASIZE DUP8 ADD ADD PUSH1 0x20 DUP3 DUP6 ADD ADD GT ISZERO PUSH2 0x546F JUMPI POP POP POP POP POP POP SWAP1 JUMP JUMPDEST PUSH2 0x547E PUSH1 0x20 DUP3 DUP7 ADD ADD DUP8 PUSH2 0x4894 JUMP JUMPDEST POP SWAP1 SWAP6 SWAP5 POP POP POP POP POP JUMP JUMPDEST PUSH1 0x20 DUP1 DUP3 MSTORE PUSH1 0x28 SWAP1 DUP3 ADD MSTORE PUSH32 0x455243313135353A204552433131353552656365697665722072656A65637465 PUSH1 0x40 DUP3 ADD MSTORE PUSH8 0x6420746F6B656E73 PUSH1 0xC0 SHL PUSH1 0x60 DUP3 ADD MSTORE PUSH1 0x80 ADD SWAP1 JUMP JUMPDEST PUSH1 0x1 PUSH1 0x1 PUSH1 0xA0 SHL SUB DUP7 DUP2 AND DUP3 MSTORE DUP6 AND PUSH1 0x20 DUP3 ADD MSTORE PUSH1 0xA0 PUSH1 0x40 DUP3 ADD DUP2 SWAP1 MSTORE PUSH1 0x0 SWAP1 PUSH2 0x54FD SWAP1 DUP4 ADD DUP7 PUSH2 0x4C10 JUMP JUMPDEST DUP3 DUP2 SUB PUSH1 0x60 DUP5 ADD MSTORE PUSH2 0x550F DUP2 DUP7 PUSH2 0x4C10 JUMP JUMPDEST SWAP1 POP DUP3 DUP2 SUB PUSH1 0x80 DUP5 ADD MSTORE PUSH2 0x5523 DUP2 DUP6 PUSH2 0x47EC JUMP JUMPDEST SWAP9 SWAP8 POP POP POP POP POP POP POP POP JUMP JUMPDEST PUSH4 0x4E487B71 PUSH1 0xE0 SHL PUSH1 0x0 MSTORE PUSH1 0x31 PUSH1 0x4 MSTORE PUSH1 0x24 PUSH1 0x0 REVERT INVALID LOG2 PUSH5 0x6970667358 0x22 SLT KECCAK256 MULMOD 0x22 SWAP8 SWAP4 0xBA 0xC1 0x2C 0xB5 DUP6 0xFC 0xF9 0x5D MOD JUMP PUSH22 0x304D1AFC16B551BAC49AC3EBF25E6E239F64736F6C63 NUMBER STOP ADDMOD SIGNEXTEND STOP CALLER PUSH9 0x747470733A2F2F6461 PUSH21 0x612E63657262792E66692F4365726279537761702F PUSH23 0x312F000000000000000000000000000000000000000000 "
		},
		"gasEstimates": {
			"creation": {
				"codeDepositCost": "4376600",
				"executionCost": "infinite",
				"totalCost": "infinite"
			},
			"external": {
				"ROLE_ADMIN()": "295",
				"addTokenLiquidity(address,address,uint256,address)": "infinite",
				"adminCreatePool(address,uint256,uint256,address)": "infinite",
				"adminInitialize()": "infinite",
				"adminSetURI(string)": "infinite",
				"adminUpdateFeeToBeneficiary(address)": "24666",
				"adminUpdateNameAndSymbol(string,string)": "infinite",
				"balanceOf(address,uint256)": "2717",
				"balanceOfBatch(address[],uint256[])": "infinite",
				"burn(uint256,uint256)": "infinite",
				"decimals()": "249",
				"exists(uint256)": "2517",
				"feeToBeneficiary()": "2426",
				"getCurrentFeeBasedOnTrades(address)": "infinite",
				"getInputTokensForExactTokens(address,address,uint256)": "infinite",
				"getOutputExactTokensForTokens(address,address,uint256)": "infinite",
				"getPoolByPosition(uint256)": "infinite",
				"getPoolByToken(address)": "infinite",
				"getRoleAdmin(bytes32)": "2567",
				"getRoleMember(bytes32,uint256)": "infinite",
				"getRoleMemberCount(bytes32)": "infinite",
				"getTokenToPoolPosition(address)": "2609",
				"getTotalCerUsdBalance()": "2325",
				"getUtilsContractAtPos(uint256)": "infinite",
				"grantRole(bytes32,address)": "infinite",
				"grantRolesBulk((bytes32,address)[])": "infinite",
				"hasRole(bytes32,address)": "2710",
				"isApprovedForAll(address,address)": "infinite",
				"name()": "infinite",
				"removeTokenLiquidity(address,address,uint256,address)": "infinite",
				"renounceRole(bytes32,address)": "infinite",
				"revokeRole(bytes32,address)": "infinite",
				"safeBatchTransferFrom(address,address,uint256[],uint256[],bytes)": "infinite",
				"safeTransferFrom(address,address,uint256,uint256,bytes)": "infinite",
				"setApprovalForAll(address,bool)": "infinite",
				"supportsInterface(bytes4)": "601",
				"swap(address,uint256,uint256,address)": "infinite",
				"swapExactTokensForTokens(address,address,uint256,uint256,uint256,address)": "infinite",
				"swapTokensForExactTokens(address,address,uint256,uint256,uint256,address)": "infinite",
				"symbol()": "infinite",
				"syncTokenBalanceInPool(address)": "infinite",
				"testSetupTokens(address,address,address,address,address)": "infinite",
				"totalSupply()": "infinite",
				"totalSupply(uint256)": "2560",
				"uri(uint256)": "infinite"
			},
			"internal": {
				"_getInput(uint256,uint256,uint256,uint256)": "infinite",
				"_getMintFeeLiquidityAmount(uint256,uint256,uint256)": "infinite",
				"_getOutput(uint256,uint256,uint256,uint256)": "infinite",
				"_getTokenBalance(address)": "infinite",
				"_safeTransfer(address,address,uint256)": "infinite",
				"_safeTransferFrom(address,address,address,uint256)": "infinite",
				"_safeTransferFromHelper(address,address,uint256)": "infinite",
				"_safeTransferHelper(address,address,uint256)": "infinite",
				"_safeTransferNative(address,uint256)": "infinite",
				"_swap(address,uint256,uint256,address)": "infinite",
				"getCurrent4Hour()": "142",
				"getCurrentFeeBasedOnTrades(uint256)": "infinite",
				"getInputCerUsdForExactTokens(address,uint256)": "infinite",
				"getInputTokensForExactCerUsd(address,uint256)": "infinite",
				"getOutputExactCerUsdForTokens(address,uint256)": "infinite",
				"getOutputExactTokensForCerUsd(address,uint256)": "infinite",
				"sqrt(uint256)": "infinite"
			}
		},
		"methodIdentifiers": {
			"ROLE_ADMIN()": "d391014b",
			"addTokenLiquidity(address,address,uint256,address)": "094811f7",
			"adminCreatePool(address,uint256,uint256,address)": "d5d60737",
			"adminInitialize()": "c09c923b",
			"adminSetURI(string)": "a7fd40bf",
			"adminUpdateFeeToBeneficiary(address)": "06edd763",
			"adminUpdateNameAndSymbol(string,string)": "3935ac11",
			"balanceOf(address,uint256)": "00fdd58e",
			"balanceOfBatch(address[],uint256[])": "4e1273f4",
			"burn(uint256,uint256)": "b390c0ab",
			"decimals()": "313ce567",
			"exists(uint256)": "4f558e79",
			"feeToBeneficiary()": "7b4b233c",
			"getCurrentFeeBasedOnTrades(address)": "9162ebf0",
			"getInputTokensForExactTokens(address,address,uint256)": "c790985a",
			"getOutputExactTokensForTokens(address,address,uint256)": "48b08d62",
			"getPoolByPosition(uint256)": "d01350bd",
			"getPoolByToken(address)": "bbadc03b",
			"getRoleAdmin(bytes32)": "248a9ca3",
			"getRoleMember(bytes32,uint256)": "9010d07c",
			"getRoleMemberCount(bytes32)": "ca15c873",
			"getTokenToPoolPosition(address)": "b771e425",
			"getTotalCerUsdBalance()": "df465a1a",
			"getUtilsContractAtPos(uint256)": "06fb1a07",
			"grantRole(bytes32,address)": "2f2ff15d",
			"grantRolesBulk((bytes32,address)[])": "03ed957f",
			"hasRole(bytes32,address)": "91d14854",
			"isApprovedForAll(address,address)": "e985e9c5",
			"name()": "06fdde03",
			"removeTokenLiquidity(address,address,uint256,address)": "7de25ae7",
			"renounceRole(bytes32,address)": "36568abe",
			"revokeRole(bytes32,address)": "d547741f",
			"safeBatchTransferFrom(address,address,uint256[],uint256[],bytes)": "2eb2c2d6",
			"safeTransferFrom(address,address,uint256,uint256,bytes)": "f242432a",
			"setApprovalForAll(address,bool)": "a22cb465",
			"supportsInterface(bytes4)": "01ffc9a7",
			"swap(address,uint256,uint256,address)": "f3e6ea8a",
			"swapExactTokensForTokens(address,address,uint256,uint256,uint256,address)": "a60c6e55",
			"swapTokensForExactTokens(address,address,uint256,uint256,uint256,address)": "f6524724",
			"symbol()": "95d89b41",
			"syncTokenBalanceInPool(address)": "9bc731fc",
			"testSetupTokens(address,address,address,address,address)": "eca01093",
			"totalSupply()": "18160ddd",
			"totalSupply(uint256)": "bd85b039",
			"uri(uint256)": "0e89341c"
		}
	},
	"abi": [
		{
			"inputs": [],
			"stateMutability": "nonpayable",
			"type": "constructor"
		},
		{
			"anonymous": false,
			"inputs": [
				{
					"indexed": true,
					"internalType": "address",
					"name": "account",
					"type": "address"
				},
				{
					"indexed": true,
					"internalType": "address",
					"name": "operator",
					"type": "address"
				},
				{
					"indexed": false,
					"internalType": "bool",
					"name": "approved",
					"type": "bool"
				}
			],
			"name": "ApprovalForAll",
			"type": "event"
		},
		{
			"anonymous": false,
			"inputs": [
				{
					"indexed": true,
					"internalType": "bytes32",
					"name": "role",
					"type": "bytes32"
				},
				{
					"indexed": true,
					"internalType": "bytes32",
					"name": "previousAdminRole",
					"type": "bytes32"
				},
				{
					"indexed": true,
					"internalType": "bytes32",
					"name": "newAdminRole",
					"type": "bytes32"
				}
			],
			"name": "RoleAdminChanged",
			"type": "event"
		},
		{
			"anonymous": false,
			"inputs": [
				{
					"indexed": true,
					"internalType": "bytes32",
					"name": "role",
					"type": "bytes32"
				},
				{
					"indexed": true,
					"internalType": "address",
					"name": "account",
					"type": "address"
				},
				{
					"indexed": true,
					"internalType": "address",
					"name": "sender",
					"type": "address"
				}
			],
			"name": "RoleGranted",
			"type": "event"
		},
		{
			"anonymous": false,
			"inputs": [
				{
					"indexed": true,
					"internalType": "bytes32",
					"name": "role",
					"type": "bytes32"
				},
				{
					"indexed": true,
					"internalType": "address",
					"name": "account",
					"type": "address"
				},
				{
					"indexed": true,
					"internalType": "address",
					"name": "sender",
					"type": "address"
				}
			],
			"name": "RoleRevoked",
			"type": "event"
		},
		{
			"anonymous": false,
			"inputs": [
				{
					"indexed": true,
					"internalType": "address",
					"name": "operator",
					"type": "address"
				},
				{
					"indexed": true,
					"internalType": "address",
					"name": "from",
					"type": "address"
				},
				{
					"indexed": true,
					"internalType": "address",
					"name": "to",
					"type": "address"
				},
				{
					"indexed": false,
					"internalType": "uint256[]",
					"name": "ids",
					"type": "uint256[]"
				},
				{
					"indexed": false,
					"internalType": "uint256[]",
					"name": "values",
					"type": "uint256[]"
				}
			],
			"name": "TransferBatch",
			"type": "event"
		},
		{
			"anonymous": false,
			"inputs": [
				{
					"indexed": true,
					"internalType": "address",
					"name": "operator",
					"type": "address"
				},
				{
					"indexed": true,
					"internalType": "address",
					"name": "from",
					"type": "address"
				},
				{
					"indexed": true,
					"internalType": "address",
					"name": "to",
					"type": "address"
				},
				{
					"indexed": false,
					"internalType": "uint256",
					"name": "id",
					"type": "uint256"
				},
				{
					"indexed": false,
					"internalType": "uint256",
					"name": "value",
					"type": "uint256"
				}
			],
			"name": "TransferSingle",
			"type": "event"
		},
		{
			"anonymous": false,
			"inputs": [
				{
					"indexed": false,
					"internalType": "string",
					"name": "value",
					"type": "string"
				},
				{
					"indexed": true,
					"internalType": "uint256",
					"name": "id",
					"type": "uint256"
				}
			],
			"name": "URI",
			"type": "event"
		},
		{
			"inputs": [],
			"name": "ROLE_ADMIN",
			"outputs": [
				{
					"internalType": "bytes32",
					"name": "",
					"type": "bytes32"
				}
			],
			"stateMutability": "view",
			"type": "function"
		},
		{
			"inputs": [
				{
					"internalType": "address",
					"name": "fromAddress",
					"type": "address"
				},
				{
					"internalType": "address",
					"name": "token",
					"type": "address"
				},
				{
					"internalType": "uint256",
					"name": "amountTokensIn",
					"type": "uint256"
				},
				{
					"internalType": "address",
					"name": "transferTo",
					"type": "address"
				}
			],
			"name": "addTokenLiquidity",
			"outputs": [],
			"stateMutability": "payable",
			"type": "function"
		},
		{
			"inputs": [
				{
					"internalType": "address",
					"name": "token",
					"type": "address"
				},
				{
					"internalType": "uint256",
					"name": "amountTokensIn",
					"type": "uint256"
				},
				{
					"internalType": "uint256",
					"name": "amountCerUsdIn",
					"type": "uint256"
				},
				{
					"internalType": "address",
					"name": "transferTo",
					"type": "address"
				}
			],
			"name": "adminCreatePool",
			"outputs": [],
			"stateMutability": "payable",
			"type": "function"
		},
		{
			"inputs": [],
			"name": "adminInitialize",
			"outputs": [],
			"stateMutability": "payable",
			"type": "function"
		},
		{
			"inputs": [
				{
					"internalType": "string",
					"name": "newUrlPrefix",
					"type": "string"
				}
			],
			"name": "adminSetURI",
			"outputs": [],
			"stateMutability": "nonpayable",
			"type": "function"
		},
		{
			"inputs": [
				{
					"internalType": "address",
					"name": "newFeeToBeneficiary",
					"type": "address"
				}
			],
			"name": "adminUpdateFeeToBeneficiary",
			"outputs": [],
			"stateMutability": "nonpayable",
			"type": "function"
		},
		{
			"inputs": [
				{
					"internalType": "string",
					"name": "newName",
					"type": "string"
				},
				{
					"internalType": "string",
					"name": "newSymbol",
					"type": "string"
				}
			],
			"name": "adminUpdateNameAndSymbol",
			"outputs": [],
			"stateMutability": "nonpayable",
			"type": "function"
		},
		{
			"inputs": [
				{
					"internalType": "address",
					"name": "account",
					"type": "address"
				},
				{
					"internalType": "uint256",
					"name": "id",
					"type": "uint256"
				}
			],
			"name": "balanceOf",
			"outputs": [
				{
					"internalType": "uint256",
					"name": "",
					"type": "uint256"
				}
			],
			"stateMutability": "view",
			"type": "function"
		},
		{
			"inputs": [
				{
					"internalType": "address[]",
					"name": "accounts",
					"type": "address[]"
				},
				{
					"internalType": "uint256[]",
					"name": "ids",
					"type": "uint256[]"
				}
			],
			"name": "balanceOfBatch",
			"outputs": [
				{
					"internalType": "uint256[]",
					"name": "",
					"type": "uint256[]"
				}
			],
			"stateMutability": "view",
			"type": "function"
		},
		{
			"inputs": [
				{
					"internalType": "uint256",
					"name": "id",
					"type": "uint256"
				},
				{
					"internalType": "uint256",
					"name": "amount",
					"type": "uint256"
				}
			],
			"name": "burn",
			"outputs": [],
			"stateMutability": "nonpayable",
			"type": "function"
		},
		{
			"inputs": [],
			"name": "decimals",
			"outputs": [
				{
					"internalType": "uint256",
					"name": "",
					"type": "uint256"
				}
			],
			"stateMutability": "pure",
			"type": "function"
		},
		{
			"inputs": [
				{
					"internalType": "uint256",
					"name": "id",
					"type": "uint256"
				}
			],
			"name": "exists",
			"outputs": [
				{
					"internalType": "bool",
					"name": "",
					"type": "bool"
				}
			],
			"stateMutability": "view",
			"type": "function"
		},
		{
			"inputs": [],
			"name": "feeToBeneficiary",
			"outputs": [
				{
					"internalType": "address",
					"name": "",
					"type": "address"
				}
			],
			"stateMutability": "view",
			"type": "function"
		},
		{
			"inputs": [
				{
					"internalType": "address",
					"name": "token",
					"type": "address"
				}
			],
			"name": "getCurrentFeeBasedOnTrades",
			"outputs": [
				{
					"internalType": "uint256",
					"name": "fee",
					"type": "uint256"
				}
			],
			"stateMutability": "view",
			"type": "function"
		},
		{
			"inputs": [
				{
					"internalType": "address",
					"name": "tokenIn",
					"type": "address"
				},
				{
					"internalType": "address",
					"name": "tokenOut",
					"type": "address"
				},
				{
					"internalType": "uint256",
					"name": "amountTokensOut",
					"type": "uint256"
				}
			],
			"name": "getInputTokensForExactTokens",
			"outputs": [
				{
					"internalType": "uint256",
					"name": "amountTokensIn",
					"type": "uint256"
				}
			],
			"stateMutability": "view",
			"type": "function"
		},
		{
			"inputs": [
				{
					"internalType": "address",
					"name": "tokenIn",
					"type": "address"
				},
				{
					"internalType": "address",
					"name": "tokenOut",
					"type": "address"
				},
				{
					"internalType": "uint256",
					"name": "amountTokensIn",
					"type": "uint256"
				}
			],
			"name": "getOutputExactTokensForTokens",
			"outputs": [
				{
					"internalType": "uint256",
					"name": "amountTokensOut",
					"type": "uint256"
				}
			],
			"stateMutability": "view",
			"type": "function"
		},
		{
			"inputs": [
				{
					"internalType": "uint256",
					"name": "pos",
					"type": "uint256"
				}
			],
			"name": "getPoolByPosition",
			"outputs": [
				{
					"components": [
						{
							"internalType": "address",
							"name": "token",
							"type": "address"
						},
						{
							"internalType": "uint32[8]",
							"name": "hourlyTradeVolumeInCerUsd",
							"type": "uint32[8]"
						},
						{
							"internalType": "uint112",
							"name": "balanceToken",
							"type": "uint112"
						},
						{
							"internalType": "uint112",
							"name": "balanceCerUsd",
							"type": "uint112"
						},
						{
							"internalType": "uint112",
							"name": "lastSqrtKValue",
							"type": "uint112"
						}
					],
					"internalType": "struct CerbySwapV1.Pool",
					"name": "",
					"type": "tuple"
				}
			],
			"stateMutability": "view",
			"type": "function"
		},
		{
			"inputs": [
				{
					"internalType": "address",
					"name": "token",
					"type": "address"
				}
			],
			"name": "getPoolByToken",
			"outputs": [
				{
					"components": [
						{
							"internalType": "address",
							"name": "token",
							"type": "address"
						},
						{
							"internalType": "uint32[8]",
							"name": "hourlyTradeVolumeInCerUsd",
							"type": "uint32[8]"
						},
						{
							"internalType": "uint112",
							"name": "balanceToken",
							"type": "uint112"
						},
						{
							"internalType": "uint112",
							"name": "balanceCerUsd",
							"type": "uint112"
						},
						{
							"internalType": "uint112",
							"name": "lastSqrtKValue",
							"type": "uint112"
						}
					],
					"internalType": "struct CerbySwapV1.Pool",
					"name": "",
					"type": "tuple"
				}
			],
			"stateMutability": "view",
			"type": "function"
		},
		{
			"inputs": [
				{
					"internalType": "bytes32",
					"name": "role",
					"type": "bytes32"
				}
			],
			"name": "getRoleAdmin",
			"outputs": [
				{
					"internalType": "bytes32",
					"name": "",
					"type": "bytes32"
				}
			],
			"stateMutability": "view",
			"type": "function"
		},
		{
			"inputs": [
				{
					"internalType": "bytes32",
					"name": "role",
					"type": "bytes32"
				},
				{
					"internalType": "uint256",
					"name": "index",
					"type": "uint256"
				}
			],
			"name": "getRoleMember",
			"outputs": [
				{
					"internalType": "address",
					"name": "",
					"type": "address"
				}
			],
			"stateMutability": "view",
			"type": "function"
		},
		{
			"inputs": [
				{
					"internalType": "bytes32",
					"name": "role",
					"type": "bytes32"
				}
			],
			"name": "getRoleMemberCount",
			"outputs": [
				{
					"internalType": "uint256",
					"name": "",
					"type": "uint256"
				}
			],
			"stateMutability": "view",
			"type": "function"
		},
		{
			"inputs": [
				{
					"internalType": "address",
					"name": "token",
					"type": "address"
				}
			],
			"name": "getTokenToPoolPosition",
			"outputs": [
				{
					"internalType": "uint256",
					"name": "",
					"type": "uint256"
				}
			],
			"stateMutability": "view",
			"type": "function"
		},
		{
			"inputs": [],
			"name": "getTotalCerUsdBalance",
			"outputs": [
				{
					"internalType": "uint256",
					"name": "",
					"type": "uint256"
				}
			],
			"stateMutability": "view",
			"type": "function"
		},
		{
			"inputs": [
				{
					"internalType": "uint256",
					"name": "pos",
					"type": "uint256"
				}
			],
			"name": "getUtilsContractAtPos",
			"outputs": [
				{
					"internalType": "address",
					"name": "",
					"type": "address"
				}
			],
			"stateMutability": "view",
			"type": "function"
		},
		{
			"inputs": [
				{
					"internalType": "bytes32",
					"name": "role",
					"type": "bytes32"
				},
				{
					"internalType": "address",
					"name": "account",
					"type": "address"
				}
			],
			"name": "grantRole",
			"outputs": [],
			"stateMutability": "nonpayable",
			"type": "function"
		},
		{
			"inputs": [
				{
					"components": [
						{
							"internalType": "bytes32",
							"name": "role",
							"type": "bytes32"
						},
						{
							"internalType": "address",
							"name": "addr",
							"type": "address"
						}
					],
					"internalType": "struct RoleAccess[]",
					"name": "roles",
					"type": "tuple[]"
				}
			],
			"name": "grantRolesBulk",
			"outputs": [],
			"stateMutability": "nonpayable",
			"type": "function"
		},
		{
			"inputs": [
				{
					"internalType": "bytes32",
					"name": "role",
					"type": "bytes32"
				},
				{
					"internalType": "address",
					"name": "account",
					"type": "address"
				}
			],
			"name": "hasRole",
			"outputs": [
				{
					"internalType": "bool",
					"name": "",
					"type": "bool"
				}
			],
			"stateMutability": "view",
			"type": "function"
		},
		{
			"inputs": [
				{
					"internalType": "address",
					"name": "account",
					"type": "address"
				},
				{
					"internalType": "address",
					"name": "operator",
					"type": "address"
				}
			],
			"name": "isApprovedForAll",
			"outputs": [
				{
					"internalType": "bool",
					"name": "",
					"type": "bool"
				}
			],
			"stateMutability": "view",
			"type": "function"
		},
		{
			"inputs": [],
			"name": "name",
			"outputs": [
				{
					"internalType": "string",
					"name": "",
					"type": "string"
				}
			],
			"stateMutability": "view",
			"type": "function"
		},
		{
			"inputs": [
				{
					"internalType": "address",
					"name": "fromAddress",
					"type": "address"
				},
				{
					"internalType": "address",
					"name": "token",
					"type": "address"
				},
				{
					"internalType": "uint256",
					"name": "amountLpTokensBalanceToBurn",
					"type": "uint256"
				},
				{
					"internalType": "address",
					"name": "transferTo",
					"type": "address"
				}
			],
			"name": "removeTokenLiquidity",
			"outputs": [
				{
					"internalType": "uint256",
					"name": "",
					"type": "uint256"
				}
			],
			"stateMutability": "nonpayable",
			"type": "function"
		},
		{
			"inputs": [
				{
					"internalType": "bytes32",
					"name": "role",
					"type": "bytes32"
				},
				{
					"internalType": "address",
					"name": "account",
					"type": "address"
				}
			],
			"name": "renounceRole",
			"outputs": [],
			"stateMutability": "nonpayable",
			"type": "function"
		},
		{
			"inputs": [
				{
					"internalType": "bytes32",
					"name": "role",
					"type": "bytes32"
				},
				{
					"internalType": "address",
					"name": "account",
					"type": "address"
				}
			],
			"name": "revokeRole",
			"outputs": [],
			"stateMutability": "nonpayable",
			"type": "function"
		},
		{
			"inputs": [
				{
					"internalType": "address",
					"name": "from",
					"type": "address"
				},
				{
					"internalType": "address",
					"name": "to",
					"type": "address"
				},
				{
					"internalType": "uint256[]",
					"name": "ids",
					"type": "uint256[]"
				},
				{
					"internalType": "uint256[]",
					"name": "amounts",
					"type": "uint256[]"
				},
				{
					"internalType": "bytes",
					"name": "data",
					"type": "bytes"
				}
			],
			"name": "safeBatchTransferFrom",
			"outputs": [],
			"stateMutability": "nonpayable",
			"type": "function"
		},
		{
			"inputs": [
				{
					"internalType": "address",
					"name": "from",
					"type": "address"
				},
				{
					"internalType": "address",
					"name": "to",
					"type": "address"
				},
				{
					"internalType": "uint256",
					"name": "id",
					"type": "uint256"
				},
				{
					"internalType": "uint256",
					"name": "amount",
					"type": "uint256"
				},
				{
					"internalType": "bytes",
					"name": "data",
					"type": "bytes"
				}
			],
			"name": "safeTransferFrom",
			"outputs": [],
			"stateMutability": "nonpayable",
			"type": "function"
		},
		{
			"inputs": [
				{
					"internalType": "address",
					"name": "operator",
					"type": "address"
				},
				{
					"internalType": "bool",
					"name": "approved",
					"type": "bool"
				}
			],
			"name": "setApprovalForAll",
			"outputs": [],
			"stateMutability": "nonpayable",
			"type": "function"
		},
		{
			"inputs": [
				{
					"internalType": "bytes4",
					"name": "interfaceId",
					"type": "bytes4"
				}
			],
			"name": "supportsInterface",
			"outputs": [
				{
					"internalType": "bool",
					"name": "",
					"type": "bool"
				}
			],
			"stateMutability": "view",
			"type": "function"
		},
		{
			"inputs": [
				{
					"internalType": "address",
					"name": "token",
					"type": "address"
				},
				{
					"internalType": "uint256",
					"name": "amountTokensOut",
					"type": "uint256"
				},
				{
					"internalType": "uint256",
					"name": "amountCerUsdOut",
					"type": "uint256"
				},
				{
					"internalType": "address",
					"name": "transferTo",
					"type": "address"
				}
			],
			"name": "swap",
			"outputs": [],
			"stateMutability": "payable",
			"type": "function"
		},
		{
			"inputs": [
				{
					"internalType": "address",
					"name": "tokenIn",
					"type": "address"
				},
				{
					"internalType": "address",
					"name": "tokenOut",
					"type": "address"
				},
				{
					"internalType": "uint256",
					"name": "amountTokensIn",
					"type": "uint256"
				},
				{
					"internalType": "uint256",
					"name": "minAmountTokensOut",
					"type": "uint256"
				},
				{
					"internalType": "uint256",
					"name": "expireTimestamp",
					"type": "uint256"
				},
				{
					"internalType": "address",
					"name": "transferTo",
					"type": "address"
				}
			],
			"name": "swapExactTokensForTokens",
			"outputs": [
				{
					"internalType": "uint256",
					"name": "",
					"type": "uint256"
				},
				{
					"internalType": "uint256",
					"name": "",
					"type": "uint256"
				}
			],
			"stateMutability": "payable",
			"type": "function"
		},
		{
			"inputs": [
				{
					"internalType": "address",
					"name": "tokenIn",
					"type": "address"
				},
				{
					"internalType": "address",
					"name": "tokenOut",
					"type": "address"
				},
				{
					"internalType": "uint256",
					"name": "amountTokensOut",
					"type": "uint256"
				},
				{
					"internalType": "uint256",
					"name": "maxAmountTokensIn",
					"type": "uint256"
				},
				{
					"internalType": "uint256",
					"name": "expireTimestamp",
					"type": "uint256"
				},
				{
					"internalType": "address",
					"name": "transferTo",
					"type": "address"
				}
			],
			"name": "swapTokensForExactTokens",
			"outputs": [
				{
					"internalType": "uint256",
					"name": "",
					"type": "uint256"
				},
				{
					"internalType": "uint256",
					"name": "",
					"type": "uint256"
				}
			],
			"stateMutability": "payable",
			"type": "function"
		},
		{
			"inputs": [],
			"name": "symbol",
			"outputs": [
				{
					"internalType": "string",
					"name": "",
					"type": "string"
				}
			],
			"stateMutability": "view",
			"type": "function"
		},
		{
			"inputs": [
				{
					"internalType": "address",
					"name": "token",
					"type": "address"
				}
			],
			"name": "syncTokenBalanceInPool",
			"outputs": [],
			"stateMutability": "nonpayable",
			"type": "function"
		},
		{
			"inputs": [
				{
					"internalType": "address",
					"name": "",
					"type": "address"
				},
				{
					"internalType": "address",
					"name": "_testCerbyToken",
					"type": "address"
				},
				{
					"internalType": "address",
					"name": "_cerUsdToken",
					"type": "address"
				},
				{
					"internalType": "address",
					"name": "_testUsdcToken",
					"type": "address"
				},
				{
					"internalType": "address",
					"name": "",
					"type": "address"
				}
			],
			"name": "testSetupTokens",
			"outputs": [],
			"stateMutability": "nonpayable",
			"type": "function"
		},
		{
			"inputs": [],
			"name": "totalSupply",
			"outputs": [
				{
					"internalType": "uint256",
					"name": "",
					"type": "uint256"
				}
			],
			"stateMutability": "view",
			"type": "function"
		},
		{
			"inputs": [
				{
					"internalType": "uint256",
					"name": "id",
					"type": "uint256"
				}
			],
			"name": "totalSupply",
			"outputs": [
				{
					"internalType": "uint256",
					"name": "",
					"type": "uint256"
				}
			],
			"stateMutability": "view",
			"type": "function"
		},
		{
			"inputs": [
				{
					"internalType": "uint256",
					"name": "id",
					"type": "uint256"
				}
			],
			"name": "uri",
			"outputs": [
				{
					"internalType": "string",
					"name": "",
					"type": "string"
				}
			],
			"stateMutability": "view",
			"type": "function"
		},
		{
			"stateMutability": "payable",
			"type": "receive"
		}
	]
}