{
	"data": {
		"bytecode": {
			"linkReferences": {},
			"object": "60c0604052600d60808190526c4365726279205377617020563160981b60a090815262000030916006919062000a3c565b5060408051808201909152600d8082526c43455242595f535741505f563160981b6020909201918252620000679160079162000a3c565b5060405180606001604052806023815260200162006960602391398051620000989160089160209091019062000a3c565b50602580546001600160a01b0319908116733d982cb3bc8d1248b17f22b567524bf7bffd3b11179091556026805482167337e140032ac3a8428ed43761a9881d4741eb3a7317905560278054821673d575ef966cfe21a5a5602dfadad3d1cae8c60fdb179055602980549091167314769f96e57b80c66837701de0b43686fb4632de1790556000602a556001602b556064602c8190556200013d612710600f62000b9a565b62000149919062000bc8565b602d556200015b612710600f62000b9a565b602e55602f80546001600160a01b03191661dead1790553480156200017f57600080fd5b50600860405160200162000194919062000c28565b60408051601f19818403018152919052620001af81620008c4565b50620001bd600033620008dd565b604080516103608101825260016103208201818152604160f81b610340840152825282518084018452818152602160f91b6020828101919091528084019190915283518085018552828152604360f81b818301528385015283518085018552828152601160fa1b81830152606084015283518085018552828152604560f81b81830152608084015283518085018552828152602360f91b8183015260a084015283518085018552828152604760f81b8183015260c084015283518085018552828152600960fb1b8183015260e084015283518085018552828152606960f81b8183015261010084015283518085018552828152602560f91b8183015261012084015283518085018552828152604b60f81b8183015261014084015283518085018552828152601360fa1b8183015261016084015283518085018552828152604d60f81b8183015261018084015283518085018552828152602760f91b818301526101a084015283518085018552828152604f60f81b818301526101c084015283518085018552828152600560fc1b818301526101e084015283518085018552828152605160f81b8183015261020084015283518085018552828152602960f91b8183015261022084015283518085018552828152605360f81b8183015261024084015283518085018552828152601560fa1b8183015261026084015283518085018552828152605560f81b8183015261028084015283518085018552828152602b60f91b818301526102a084015283518085018552828152605760f81b818301526102c084015283518085018552828152600b60fb1b818301526102e08401528351808501909452908352605960f81b8382015261030082019290925280518051919260099262000452928492019062000a3c565b5060208281015180516200046d926001850192019062000a3c565b50604082015180516200048b91600284019160209091019062000a3c565b5060608201518051620004a991600384019160209091019062000a3c565b5060808201518051620004c791600484019160209091019062000a3c565b5060a08201518051620004e591600584019160209091019062000a3c565b5060c082015180516200050391600684019160209091019062000a3c565b5060e082015180516200052191600784019160209091019062000a3c565b5061010082015180516200054091600884019160209091019062000a3c565b5061012082015180516200055f91600984019160209091019062000a3c565b5061014082015180516200057e91600a84019160209091019062000a3c565b5061016082015180516200059d91600b84019160209091019062000a3c565b506101808201518051620005bc91600c84019160209091019062000a3c565b506101a08201518051620005db91600d84019160209091019062000a3c565b506101c08201518051620005fa91600e84019160209091019062000a3c565b506101e082015180516200061991600f84019160209091019062000a3c565b5061020082015180516200063891601084019160209091019062000a3c565b5061022082015180516200065791601184019160209091019062000a3c565b5061024082015180516200067691601284019160209091019062000a3c565b5061026082015180516200069591601384019160209091019062000a3c565b506102808201518051620006b491601484019160209091019062000a3c565b506102a08201518051620006d391601584019160209091019062000a3c565b506102c08201518051620006f291601684019160209091019062000a3c565b506102e082015180516200071191601784019160209091019062000a3c565b5061030082015180516200073091601884019160209091019062000a3c565b5050602f80546001600160a01b0319338116911617630dead123179055506200075862000acb565b6040805160a081018252600080825260208201848152928201819052606082018190526080820181905260228054600181018255915281517f61035b26e3e9eee00e0d72fd1ee8ddca6894550dca6916ea2ac6baa90d11e510600490920291820180546001600160a01b0319166001600160a01b0390921691909117815592519192916200080b917f61035b26e3e9eee00e0d72fd1ee8ddca6894550dca6916ea2ac6baa90d11e5110190600862000aea565b50604082015160608301516001600160801b03918216600160801b91831691909102176002830155608090920151600390910180546001600160801b031916919092161790554661303914156200087657602980546001600160a01b03191661dead17905562000897565b46620181cd14156200089757602980546001600160a01b03191661dead1790555b50602980546001600160a01b0319167314769f96e57b80c66837701de0b43686fb4632de17905562000ce6565b8051620008d990600290602084019062000a3c565b5050565b620008d98282620008fa82826200092660201b620023581760201c565b600082815260056020908152604090912062000921918390620023de620009ca821b17901c565b505050565b60008281526004602090815260408083206001600160a01b038516845290915290205460ff16620008d95760008281526004602090815260408083206001600160a01b03851684529091529020805460ff19166001179055620009863390565b6001600160a01b0316816001600160a01b0316837f2f8788117e7eff1d82e926ec794901d17c78024a50270940304540a733656f0d60405160405180910390a45050565b6000620009e1836001600160a01b038416620009ea565b90505b92915050565b600081815260018301602052604081205462000a3357508154600181810184556000848152602080822090930184905584548482528286019093526040902091909155620009e4565b506000620009e4565b82805462000a4a9062000beb565b90600052602060002090601f01602090048101928262000a6e576000855562000ab9565b82601f1062000a8957805160ff191683800117855562000ab9565b8280016001018555821562000ab9579182015b8281111562000ab957825182559160200191906001019062000a9c565b5062000ac792915062000b83565b5090565b6040518061010001604052806008906020820280368337509192915050565b60018301918390821562000ab95791602002820160005b8382111562000b4757835183826101000a81548163ffffffff021916908363ffffffff160217905550926020019260040160208160030104928301926001030262000b01565b801562000b795782816101000a81549063ffffffff021916905560040160208160030104928301926001030262000b47565b505062000ac79291505b5b8082111562000ac7576000815560010162000b84565b600081600019048311821515161562000bc357634e487b7160e01b600052601160045260246000fd5b500290565b60008262000be657634e487b7160e01b600052601260045260246000fd5b500490565b600181811c9082168062000c0057607f821691505b6020821081141562000c2257634e487b7160e01b600052602260045260246000fd5b50919050565b600080835481600182811c91508083168062000c4557607f831692505b602080841082141562000c6657634e487b7160e01b86526022600452602486fd5b81801562000c7d576001811462000c8f5762000cbe565b60ff1986168952848901965062000cbe565b60008a81526020902060005b8681101562000cb65781548b82015290850190830162000c9b565b505084890196505b50505050505062000cde81683db4b23e973539b7b760b91b815260090190565b949350505050565b615c6a8062000cf66000396000f3fe60806040526004361061028b5760003560e01c806391d148541161015a578063ca15c873116100c1578063e985e9c51161007a578063e985e9c5146107e5578063eca010931461082e578063f242432a1461084e578063f3e6ea8a1461086e578063f5298aca14610881578063f6524724146108a157600080fd5b8063ca15c87314610748578063d01350bd14610768578063d391014b14610788578063d547741f1461079d578063d5d60737146107bd578063df465a1a146107d057600080fd5b8063b5d11e9911610113578063b5d11e991461067b578063b771e42514610690578063bbadc03b146106c6578063bd85b039146106f3578063c09c923b14610720578063c790985a1461072857600080fd5b806391d14854146105be57806395d89b41146105de5780639bc731fc146105f3578063a22cb46514610613578063a60c6e5514610633578063a7fd40bf1461065b57600080fd5b806336568abe116101fe5780636b20c454116101b75780636b20c454146104fe57806374fcf0711461051e5780637b4b233c1461053e578063806801b21461055e5780639010d07c1461057e5780639162ebf01461059e57600080fd5b806336568abe1461042f5780633935ac111461044f57806343fefad41461046f57806348b08d62146104825780634e1273f4146104a25780634f558e79146104cf57600080fd5b80630e89341c116102505780630e89341c1461037657806318160ddd14610396578063248a9ca3146103ab5780632eb2c2d6146103db5780632f2ff15d146103fb578063313ce5671461041b57600080fd5b8062fdd58e1461029757806301ffc9a7146102ca57806303ed957f146102fa57806306fb1a071461031c57806306fdde031461035457600080fd5b3661029257005b600080fd5b3480156102a357600080fd5b506102b76102b2366004614c66565b6108b4565b6040519081526020015b60405180910390f35b3480156102d657600080fd5b506102ea6102e5366004614ca8565b61094e565b60405190151581526020016102c1565b34801561030657600080fd5b5061031a610315366004614cc5565b61098e565b005b34801561032857600080fd5b5061033c610337366004614d39565b610a0b565b6040516001600160a01b0390911681526020016102c1565b34801561036057600080fd5b50610369610a82565b6040516102c19190614daa565b34801561038257600080fd5b50610369610391366004614d39565b610b14565b3480156103a257600080fd5b506102b7610b40565b3480156103b757600080fd5b506102b76103c6366004614d39565b60009081526004602052604090206001015490565b3480156103e757600080fd5b5061031a6103f6366004614f06565b610b8c565b34801561040757600080fd5b5061031a610416366004614fb3565b610c2e565b34801561042757600080fd5b5060126102b7565b34801561043b57600080fd5b5061031a61044a366004614fb3565b610c59565b34801561045b57600080fd5b5061031a61046a366004614fe3565b610cd7565b61031a61047d366004615046565b610d0a565b34801561048e57600080fd5b506102b761049d366004615090565b6112a5565b3480156104ae57600080fd5b506104c26104bd3660046150d1565b611377565b6040516102c191906151ce565b3480156104db57600080fd5b506102ea6104ea366004614d39565b600090815260036020526040902054151590565b34801561050a57600080fd5b5061031a6105193660046151e1565b6114a0565b34801561052a57600080fd5b5061031a610539366004615046565b611525565b34801561054a57600080fd5b50602f5461033c906001600160a01b031681565b34801561056a57600080fd5b5061031a610579366004615256565b6115b5565b34801561058a57600080fd5b5061033c6105993660046152ab565b611668565b3480156105aa57600080fd5b506102b76105b93660046152cd565b611680565b3480156105ca57600080fd5b506102ea6105d9366004614fb3565b6116a2565b3480156105ea57600080fd5b506103696116cd565b3480156105ff57600080fd5b5061031a61060e3660046152cd565b6116dc565b34801561061f57600080fd5b5061031a61062e3660046152f8565b6118a8565b610646610641366004615326565b6118b3565b604080519283526020830191909152016102c1565b34801561066757600080fd5b5061031a61067636600461537f565b611abf565b34801561068757600080fd5b5061031a611b06565b34801561069c57600080fd5b506102b76106ab3660046152cd565b6001600160a01b031660009081526023602052604090205490565b3480156106d257600080fd5b506106e66106e13660046152cd565b611b56565b6040516102c191906153b3565b3480156106ff57600080fd5b506102b761070e366004614d39565b60009081526003602052604090205490565b61031a611c54565b34801561073457600080fd5b506102b7610743366004615090565b611c7d565b34801561075457600080fd5b506102b7610763366004614d39565b611d3d565b34801561077457600080fd5b506106e6610783366004614d39565b611d54565b34801561079457600080fd5b506102b7600081565b3480156107a957600080fd5b5061031a6107b8366004614fb3565b611d6f565b61031a6107cb366004615046565b611d95565b3480156107dc57600080fd5b506024546102b7565b3480156107f157600080fd5b506102ea610800366004615430565b6001600160a01b03918216600090815260016020908152604080832093909416825291909152205460ff1690565b34801561083a57600080fd5b5061031a61084936600461545e565b61208a565b34801561085a57600080fd5b5061031a6108693660046154cf565b6120dc565b61031a61087c366004615046565b6120e9565b34801561088d57600080fd5b5061031a61089c366004615537565b6120f5565b6106466108af366004615326565b612100565b60006001600160a01b0383166109255760405162461bcd60e51b815260206004820152602b60248201527f455243313135353a2062616c616e636520717565727920666f7220746865207a60448201526a65726f206164647265737360a81b60648201526084015b60405180910390fd5b506000818152602081815260408083206001600160a01b03861684529091529020545b92915050565b60006001600160e01b03198216636cdb3d1360e11b148061097f57506001600160e01b031982166303a24d0760e21b145b806109485750610948826123f3565b600061099a8133612428565b60005b82811015610a05576109f38484838181106109ba576109ba61556c565b905060400201600001358585848181106109d6576109d661556c565b90506040020160200160208101906109ee91906152cd565b61248c565b806109fd81615598565b91505061099d565b50505050565b6040516306fb1a0760e01b81526004810182905260009073def1fac7bf08f173d286bbbdcbeeade695129840906306fb1a0790602401602060405180830381865afa158015610a5e573d6000803e3d6000fd5b505050506040513d601f19601f8201168201806040525081019061094891906155b3565b606060068054610a91906155d0565b80601f0160208091040260200160405190810160405280929190818152602001828054610abd906155d0565b8015610b0a5780601f10610adf57610100808354040283529160200191610b0a565b820191906000526020600020905b815481529060010190602001808311610aed57829003601f168201915b5050505050905090565b6060600882604051602001610b2a929190615605565b6040516020818303038152906040529050919050565b60008060005b6000600381610b5485615598565b945084815260200190815260200160002054111561094857600082815260036020526040902054610b85908261568a565b9050610b46565b6001600160a01b038516331480610ba85750610ba88533610800565b610c0f5760405162461bcd60e51b815260206004820152603260248201527f455243313135353a207472616e736665722063616c6c6572206973206e6f74206044820152711bdddb995c881b9bdc88185c1c1c9bdd995960721b606482015260840161091c565b610c1a308686612496565b610c278585858585612630565b5050505050565b600082815260046020526040902060010154610c4a8133612428565b610c5483836127d2565b505050565b6001600160a01b0381163314610cc95760405162461bcd60e51b815260206004820152602f60248201527f416363657373436f6e74726f6c3a2063616e206f6e6c792072656e6f756e636560448201526e103937b632b9903337b91039b2b63360891b606482015260840161091c565b610cd382826127f4565b5050565b6000610ce38133612428565b8251610cf6906006906020860190614ac5565b508151610a05906007906020850190614ac5565b6001600160a01b038416600090815260236020526040902054849015801590610d4157506026546001600160a01b03828116911614155b600b90610d615760405162461bcd60e51b815260040161091c91906156a2565b5082600c42821015610d865760405162461bcd60e51b815260040161091c91906156a2565b506001600160a01b038616600090815260236020526040902054610dab873388612816565b6000610db6886128cd565b905060228281548110610dcb57610dcb61556c565b6000918252602090912060026004909202010154610df2906001600160801b031682615727565b9650600e87610e145760405162461bcd60e51b815260040161091c91906156a2565b50602654600090610e2d906001600160a01b03166128cd565b9050600060245482610e3f9190615727565b90506000610ec660228681548110610e5957610e5961556c565b906000526020600020906004020160020160109054906101000a90046001600160801b03166001600160801b031660228781548110610e9a57610e9a61556c565b6000918252602090912060026004909202010154610ec191906001600160801b031661573e565b612955565b90506000610f1460228781548110610ee057610ee061556c565b6000918252602080832060036004909302018201548a84529190526040909120546001600160801b039091169084906129ae565b90508015610f4557602f54604080516020810190915260008152610f45916001600160a01b03169088908490612a25565b5050600060228581548110610f5c57610f5c61556c565b600091825260208083206002600490930201919091015487835260039091526040909120546001600160801b0390911690610f97908c61573e565b610fa19190615773565b9050610fbe88868360405180602001604052806000815250612a25565b600060228681548110610fd357610fd361556c565b6000918252602090912060026004909202010154602280546001600160801b0390921691889081106110075761100761556c565b600091825260209091206004909102016002015461103590600160801b90046001600160801b03168d61573e565b61103f9190615773565b9050601d816110615760405162461bcd60e51b815260040161091c91906156a2565b50602654604051630bb9ff5d60e01b8152306004820152602481018390526001600160a01b0390911690630bb9ff5d90604401600060405180830381600087803b1580156110ae57600080fd5b505af11580156110c2573d6000803e3d6000fd5b5050505080836024546110d5919061568a565b6110df919061568a565b6024819055508a602287815481106110f9576110f961556c565b600091825260209091206002600490920201015461112091906001600160801b0316615787565b602287815481106111335761113361556c565b6000918252602090912060049091020160020180546001600160801b0319166001600160801b039290921691909117905561116e818461568a565b602287815481106111815761118161556c565b906000526020600020906004020160020160109054906101000a90046001600160801b03166111b09190615787565b602287815481106111c3576111c361556c565b906000526020600020906004020160020160106101000a8154816001600160801b0302191690836001600160801b0316021790555061124f6022878154811061120e5761120e61556c565b906000526020600020906004020160020160109054906101000a90046001600160801b03166001600160801b031660228881548110610e9a57610e9a61556c565b602287815481106112625761126261556c565b906000526020600020906004020160030160006101000a8154816001600160801b0302191690836001600160801b03160217905550505050505050505050505050565b6026546000906001600160a01b038581169116148015906112d357506026546001600160a01b038481169116145b156112e9576112e28483612b35565b9050611370565b6026546001600160a01b03858116911614801561131457506026546001600160a01b03848116911614155b15611323576112e28383612c31565b6026546001600160a01b0385811691161480159061134f57506026546001600160a01b03858116911614155b156113705760006113608584612b35565b905061136c8482612c31565b9150505b9392505050565b606081518351146113dc5760405162461bcd60e51b815260206004820152602960248201527f455243313135353a206163636f756e747320616e6420696473206c656e677468604482015268040dad2e6dac2e8c6d60bb1b606482015260840161091c565b600083516001600160401b038111156113f7576113f7614dbd565b604051908082528060200260200182016040528015611420578160200160208202803683370190505b50905060005b84518110156114985761146b8582815181106114445761144461556c565b602002602001015185838151811061145e5761145e61556c565b60200260200101516108b4565b82828151811061147d5761147d61556c565b602090810291909101015261149181615598565b9050611426565b509392505050565b6001600160a01b0383163314806114bc57506114bc8333610800565b61151a5760405162461bcd60e51b815260206004820152602960248201527f455243313135353a2063616c6c6572206973206e6f74206f776e6572206e6f7260448201526808185c1c1c9bdd995960ba1b606482015260840161091c565b610c54838383612d23565b6001600160a01b03841660009081526023602052604090205484901580159061155c57506026546001600160a01b03828116911614155b600b9061157c5760405162461bcd60e51b815260040161091c91906156a2565b5082600c428210156115a15760405162461bcd60e51b815260040161091c91906156a2565b506115ad868685612eb1565b505050505050565b60006115c18133612428565b602b5460001080156115d65750602c54602b54105b80156115e557506101f4602c54105b6020906116055760405162461bcd60e51b815260040161091c91906156a2565b50602e54602d546021911161162d5760405162461bcd60e51b815260040161091c91906156a2565b5050602b95909555602c93909355602d91909155602e55602a55602f80546001600160a01b0319166001600160a01b03909216919091179055565b60008281526005602052604081206113709083613359565b6001600160a01b03811660009081526023602052604081205461094890613365565b60009182526004602090815260408084206001600160a01b0393909316845291905290205460ff1690565b606060078054610a91906155d0565b6001600160a01b03811660009081526023602052604090205481901580159061171357506026546001600160a01b03828116911614155b600b906117335760405162461bcd60e51b815260040161091c91906156a2565b506001600160a01b038216600090815260236020526040902054611756836128cd565b602282815481106117695761176961556c565b6000918252602082206004919091020160020180546001600160801b0319166001600160801b0393909316929092179091556026546117b0906001600160a01b03166128cd565b9050602454811161181057806024546117c99190615727565b602283815481106117dc576117dc61556c565b906000526020600020906004020160020160109054906101000a90046001600160801b031661180b91906157b2565b61185f565b60245461181d9082615727565b602283815481106118305761183061556c565b906000526020600020906004020160020160109054906101000a90046001600160801b031661185f9190615787565b602283815481106118725761187261556c565b6000918252602090912060026004909202010180546001600160801b03928316600160801b029216919091179055602455505050565b610cd333838361357c565b60008083600c428210156118da5760405162461bcd60e51b815260040161091c91906156a2565b50600e600188116118fe5760405162461bcd60e51b815260040161091c91906156a2565b5060265433906000906001600160a01b038c811691161480159061192f57506026546001600160a01b038b81169116145b156119815761193e8b8a612b35565b90506010888210156119635760405162461bcd60e51b815260040161091c91906156a2565b5061196f8b838b612816565b61197c8b6000838961365d565b611aae565b6026546001600160a01b038c811691161480156119ac57506026546001600160a01b038b8116911614155b156119f9576119bb8a8a612c31565b90506011888210156119e05760405162461bcd60e51b815260040161091c91906156a2565b506119ec8b838b612816565b61197c8a8260008961365d565b6026546001600160a01b038c8116911614801590611a2557506026546001600160a01b038c8116911614155b15611a93576000611a368c8b612b35565b9050611a428b82612c31565b9150601189831015611a675760405162461bcd60e51b815260040161091c91906156a2565b50611a738c848c612816565b611a808c6000833061365d565b611a8d8b8360008a61365d565b50611aae565b60405162461bcd60e51b815261091c906014906004016156a2565b979a97995096975050505050505050565b6000611acb8133612428565b611af382604051602001611adf91906157da565b604051602081830303815290604052613bfc565b8151610c54906008906020850190614ac5565b602554611b32906001600160a01b031669d3c21bcecceda10000006969e10de76676d080000033611d95565b602754611b54906001600160a01b031669943b1377290cbd8000008033611d95565b565b611b5e614b49565b6001600160a01b038216600090815260236020526040902054602280549091908110611b8c57611b8c61556c565b60009182526020918290206040805160a081018252600490930290910180546001600160a01b031683528151610100810190925291928301906001830160088282826020028201916000905b82829054906101000a900463ffffffff1663ffffffff1681526020019060040190602082600301049283019260010382029150808411611bd85750505092845250505060028201546001600160801b038082166020840152600160801b9091048116604083015260039092015490911660609091015292915050565b602954611b54906001600160a01b031666038d7ea4c6800069d3c21bcecceda100000033611d95565b6026546000906001600160a01b03858116911614801590611cab57506026546001600160a01b038481169116145b15611cba576112e28483613c0f565b6026546001600160a01b038581169116148015611ce557506026546001600160a01b03848116911614155b15611cf4576112e28383613d00565b6026546001600160a01b03858116911614801590611d2057506026546001600160a01b03848116911614155b15611370576000611d318484613d00565b905061136c8582613c0f565b600081815260056020526040812061094890613df2565b611d5c614b49565b60228281548110611b8c57611b8c61556c565b600082815260046020526040902060010154611d8b8133612428565b610c5483836127f4565b6001600160a01b0384166000908152602360205260409020548490158015611dcb57506026546001600160a01b03828116911614155b600a90611deb5760405162461bcd60e51b815260040161091c91906156a2565b50602254611dfa863387612816565b602654604051630bb9ff5d60e01b8152306004820152602481018690526001600160a01b0390911690630bb9ff5d90604401600060405180830381600087803b158015611e4657600080fd5b505af1158015611e5a573d6000803e3d6000fd5b50505050611e67866128cd565b9450600e85611e895760405162461bcd60e51b815260040161091c91906156a2565b506000611e99610ec1868861573e565b9050611ea3614b87565b60005b6008811015611ee5576001828260088110611ec357611ec361556c565b63ffffffff909216602092909202015280611edd81615598565b915050611ea6565b506040805160a0810182526001600160a01b038a81168252602082018481526001600160801b038b811694840194909452898416606084015292851660808301526022805460018101825560009190915282517f61035b26e3e9eee00e0d72fd1ee8ddca6894550dca6916ea2ac6baa90d11e510600490920291820180546001600160a01b03191691909316178255925191928392611fa8917f61035b26e3e9eee00e0d72fd1ee8ddca6894550dca6916ea2ac6baa90d11e51101906008614ba6565b5060408281015160608401516001600160801b03918216600160801b91831691909102176002840155608090930151600390920180546001600160801b03191692909316919091179091556001600160a01b038a16600090815260236020529081208590556024805489929061201f90849061568a565b9250508190555061204561dead856103e860405180602001604052806000815250612a25565b60006103e8612057610ec18a8c61573e565b6120619190615727565b905061207e87868360405180602001604052806000815250612a25565b50505050505050505050565b602880546001600160a01b038088166001600160a01b03199283161790925560258054878416908316179055602680548684169083161790556027805492851692909116919091179055610c27611b06565b610c278585858585613dfc565b610a058484848461365d565b610c54838383613f19565b60008083600c428210156121275760405162461bcd60e51b815260040161091c91906156a2565b5060265433906000906001600160a01b038c811691161480159061215857506026546001600160a01b038b81169116145b156121ce576121678b8a613c0f565b905060138882111561218c5760405162461bcd60e51b815260040161091c91906156a2565b50600e600182116121b05760405162461bcd60e51b815260040161091c91906156a2565b506121bc8b8383612816565b6121c98b60008b8961365d565b612348565b6026546001600160a01b038c811691161480156121f957506026546001600160a01b038b8116911614155b1561226a576122088a8a613d00565b905060128882111561222d5760405162461bcd60e51b815260040161091c91906156a2565b50601d600182116122515760405162461bcd60e51b815260040161091c91906156a2565b5061225d8b8383612816565b6121c98a8a60008961365d565b6026546001600160a01b038c811691161480159061229657506026546001600160a01b038b8116911614155b15611a935760006122a78b8b613d00565b9050601d600182116122cc5760405162461bcd60e51b815260040161091c91906156a2565b506122d78c82613c0f565b91506013898311156122fc5760405162461bcd60e51b815260040161091c91906156a2565b50600e600183116123205760405162461bcd60e51b815260040161091c91906156a2565b5061232c8c8484612816565b6123398c6000833061365d565b6123468b8b60008a61365d565b505b9a97995096975050505050505050565b61236282826116a2565b610cd35760008281526004602090815260408083206001600160a01b03851684529091529020805460ff1916600117905561239a3390565b6001600160a01b0316816001600160a01b0316837f2f8788117e7eff1d82e926ec794901d17c78024a50270940304540a733656f0d60405160405180910390a45050565b6000611370836001600160a01b03841661401a565b60006001600160e01b03198216635a05180f60e01b148061094857506301ffc9a760e01b6001600160e01b0319831614610948565b61243282826116a2565b610cd35761244a816001600160a01b03166014614069565b612455836020614069565b604051602001612466929190615807565b60408051601f198184030181529082905262461bcd60e51b825261091c91600401614daa565b610cd382826127d2565b6040516306fb1a0760e01b81526003600482015260009073def1fac7bf08f173d286bbbdcbeeade695129840906306fb1a0790602401602060405180830381865afa1580156124e9573d6000803e3d6000fd5b505050506040513d601f19601f8201168201806040525081019061250d91906155b3565b604051630c8b57ef60e21b81526001600160a01b03868116600483015285811660248301529192509082169063322d5fbc906044016020604051808303816000875af1158015612561573d6000803e3d6000fd5b505050506040513d601f19601f82011682018060405250810190612585919061587c565b6125b75760405162461bcd60e51b8152602060048201526003602482015262042a8b60eb1b604482015260640161091c565b6001600160a01b0382163014610a0557604051633973256b60e11b81526001600160a01b03858116600483015283811660248301528216906372e64ad690604401600060405180830381600087803b15801561261257600080fd5b505af1158015612626573d6000803e3d6000fd5b5050505050505050565b81518351146126515760405162461bcd60e51b815260040161091c90615899565b6001600160a01b0384166126775760405162461bcd60e51b815260040161091c906158e1565b33612686818787878787614204565b60005b845181101561276c5760008582815181106126a6576126a661556c565b6020026020010151905060008583815181106126c4576126c461556c565b602090810291909101810151600084815280835260408082206001600160a01b038e1683529093529190912054909150818110156127145760405162461bcd60e51b815260040161091c90615926565b6000838152602081815260408083206001600160a01b038e8116855292528083208585039055908b1682528120805484929061275190849061568a565b925050819055505050508061276590615598565b9050612689565b50846001600160a01b0316866001600160a01b0316826001600160a01b03167f4a39dc06d4c0dbc64b70af90fd698a233a518aa5d07e595d983b8c0526c8f7fb87876040516127bc929190615970565b60405180910390a46115ad818787878787614310565b6127dc8282612358565b6000828152600560205260409020610c5490826123de565b6127fe828261446c565b6000828152600560205260409020610c5490826144d3565b6029546001600160a01b0384811691161461286957600f341561284c5760405162461bcd60e51b815260040161091c91906156a2565b506001600160a01b0382163014610c5457610c54838330846144e8565b6029546001600160a01b0384811691161415610c5457601c348211156128a25760405162461bcd60e51b815260040161091c91906156a2565b5080341115610c5457602954610c54906001600160a01b0316336128c68434615727565b60006145d8565b6029546000906001600160a01b03838116911614156128ed575047919050565b6040516370a0823160e01b81523060048201526001600160a01b038316906370a0823190602401602060405180830381865afa158015612931573d6000803e3d6000fd5b505050506040513d601f19601f820116820180604052508101906109489190615995565b600080600261296584600161568a565b61296f9190615773565b90508291505b818110156129a85790508060028161298d8186615773565b612997919061568a565b6129a19190615773565b9050612975565b50919050565b600083831180156129bf5750600084115b80156129cd57506000602a54115b15611370576129dd60648561573e565b602a546129ea908561573e565b6129f4919061568a565b6129fe8585615727565b612a0960648561573e565b612a13919061573e565b612a1d9190615773565b949350505050565b6001600160a01b038416612a855760405162461bcd60e51b815260206004820152602160248201527f455243313135353a206d696e7420746f20746865207a65726f206164647265736044820152607360f81b606482015260840161091c565b33612aa581600087612a9688614618565b612a9f88614618565b87614204565b6000848152602081815260408083206001600160a01b038916845290915281208054859290612ad590849061568a565b909155505060408051858152602081018590526001600160a01b0380881692600092918516917fc3d58168c5ae7397731d063d5bbf3d657854427343f4c083240f7aacaa2d0f62910160405180910390a4610c2781600087878787614663565b6001600160a01b038216600090815260236020526040812054839015801590612b6c57506026546001600160a01b03828116911614155b600b90612b8c5760405162461bcd60e51b815260040161091c91906156a2565b506001600160a01b03841660009081526023602052604090205460228054612c2691869184908110612bc057612bc061556c565b6000918252602090912060026004909202010154602280546001600160801b039092169185908110612bf457612bf461556c565b6000918252602090912060049091020160020154600160801b90046001600160801b0316612c2185613365565b61471e565b9250505b5092915050565b6001600160a01b038216600090815260236020526040812054839015801590612c6857506026546001600160a01b03828116911614155b600b90612c885760405162461bcd60e51b815260040161091c91906156a2565b506001600160a01b03841660009081526023602052604090205460228054612c2691869184908110612cbc57612cbc61556c565b906000526020600020906004020160020160109054906101000a90046001600160801b03166001600160801b031660228481548110612cfd57612cfd61556c565b60009182526020909120600260049092020101546001600160801b0316612c2185613365565b6001600160a01b038316612d495760405162461bcd60e51b815260040161091c906159ae565b8051825114612d6a5760405162461bcd60e51b815260040161091c90615899565b6000339050612d8d81856000868660405180602001604052806000815250614204565b60005b8351811015612e52576000848281518110612dad57612dad61556c565b602002602001015190506000848381518110612dcb57612dcb61556c565b602090810291909101810151600084815280835260408082206001600160a01b038c168352909352919091205490915081811015612e1b5760405162461bcd60e51b815260040161091c906159f1565b6000928352602083815260408085206001600160a01b038b1686529091529092209103905580612e4a81615598565b915050612d90565b5060006001600160a01b0316846001600160a01b0316826001600160a01b03167f4a39dc06d4c0dbc64b70af90fd698a233a518aa5d07e595d983b8c0526c8f7fb8686604051612ea3929190615970565b60405180910390a450505050565b6001600160a01b03831660009081526023602052604081205490612ed4856128cd565b9050600060228381548110612eeb57612eeb61556c565b6000918252602090912060026004909202010154612f12906001600160801b031683615727565b602454602654919250600091612f30906001600160a01b03166128cd565b612f3a9190615727565b60008581526003602052604081205460228054939450909283918a9189908110612f6657612f6661556c565b6000918252602090912060026004909202010154612f8d91906001600160801b031661573e565b612f979190615773565b90506000828960228981548110612fb057612fb061556c565b6000918252602090912060049091020160020154612fde9190600160801b90046001600160801b031661573e565b612fe89190615773565b90506000613043602289815481106130025761300261556c565b906000526020600020906004020160020160109054906101000a90046001600160801b03166001600160801b031660228a81548110610e9a57610e9a61556c565b9050600061308160228a8154811061305d5761305d61556c565b60009182526020909120600360049092020101546001600160801b031683876129ae565b905080156130b257602f546040805160208101909152600081526130b2916001600160a01b0316908b908490612a25565b82866024546130c1919061568a565b6130cb9190615727565b602481905550838760228b815481106130e6576130e661556c565b600091825260209091206002600490920201015461310d91906001600160801b0316615787565b61311791906157b2565b60228a8154811061312a5761312a61556c565b906000526020600020906004020160020160006101000a8154816001600160801b0302191690836001600160801b03160217905550828660228b815481106131745761317461556c565b906000526020600020906004020160020160109054906101000a90046001600160801b03166131a39190615787565b6131ad91906157b2565b60228a815481106131c0576131c061556c565b906000526020600020906004020160020160106101000a8154816001600160801b0302191690836001600160801b0316021790555061324c60228a8154811061320b5761320b61556c565b906000526020600020906004020160020160109054906101000a90046001600160801b03166001600160801b031660228b81548110610e9a57610e9a61556c565b60228a8154811061325f5761325f61556c565b906000526020600020906004020160030160006101000a8154816001600160801b0302191690836001600160801b0316021790555061329f338a8d6120f5565b6026546040516318a8ad8760e01b8152306004820152602481018590526001600160a01b03909116906318a8ad8790604401600060405180830381600087803b1580156132eb57600080fd5b505af11580156132ff573d6000803e3d6000fd5b5050505050506133128a898460016145d8565b600061331d8b6128cd565b90508661332a848361568a565b600d911461334b5760405162461bcd60e51b815260040161091c91906156a2565b505050505050505050505050565b6000611370838361478e565b6000806133706147b8565b90506000600861338183600161568a565b61338b9190615a35565b90506000805b600881101561342857838114806133a757508281145b156133b157613416565b602286815481106133c4576133c461556c565b906000526020600020906004020160010181600881106133e6576133e661556c565b600891828204019190066004029054906101000a900463ffffffff1663ffffffff1682613413919061568a565b91505b8061342081615598565b915050613391565b5061343b81670de0b6b3a764000061573e565b90506000612710602d54602288815481106134585761345861556c565b60009182526020909120600490910201600201546134869190600160801b90046001600160801b031661573e565b6134909190615773565b90506000612710602e54602289815481106134ad576134ad61556c565b60009182526020909120600490910201600201546134db9190600160801b90046001600160801b031661573e565b6134e59190615773565b90508183116134f857602c549550613565565b828210801561350657508083105b15613557576135158282615727565b602b54602c546135259190615727565b61352f8486615727565b613539919061573e565b6135439190615773565b602c546135509190615727565b9550613565565b8083111561356557602b5495505b61357186612710615727565b979650505050505050565b816001600160a01b0316836001600160a01b031614156135f05760405162461bcd60e51b815260206004820152602960248201527f455243313135353a2073657474696e6720617070726f76616c20737461747573604482015268103337b91039b2b63360b91b606482015260840161091c565b6001600160a01b03838116600081815260016020908152604080832094871680845294825291829020805460ff191686151590811790915591519182527f17307eab39ab6107e8899845ad3d59bd9653f200f220920489ca2b5937696c31910160405180910390a3505050565b6001600160a01b03841660009081526023602052604090205484901580159061369457506026546001600160a01b03828116911614155b600b906136b45760405162461bcd60e51b815260040161091c91906156a2565b506001600160a01b0380861660009081526023602052604081205460265490926136de91166128cd565b90506000602454826136f09190615727565b905060006136fd896128cd565b90506000602285815481106137145761371461556c565b600091825260209091206002600490920201015461373b906001600160801b031683615727565b90506001613749848361568a565b6017911061376a5760405162461bcd60e51b815260040161091c91906156a2565b50600061377686613365565b90506000612710602288815481106137905761379061556c565b906000526020600020906004020160020160009054906101000a90046001600160801b03166001600160801b031661271060228a815481106137d4576137d461556c565b60009182526020909120600490910201600201546138029190600160801b90046001600160801b031661573e565b61380c919061573e565b613816919061573e565b905060008a86602454613829919061568a565b6138339190615727565b905060008b8760228b8154811061384c5761384c61556c565b600091825260209091206004909102016002015461387a9190600160801b90046001600160801b031661568a565b6138849190615727565b905060008d8660228c8154811061389d5761389d61556c565b60009182526020909120600260049092020101546138c491906001600160801b031661568a565b6138ce9190615727565b905060006138de86612710615727565b6138e8908861573e565b6138f46127108461573e565b6138fe9190615727565b61390a87612710615727565b613914908b61573e565b6139206127108661573e565b61392a9190615727565b613934919061573e565b90506018858210156139595760405162461bcd60e51b815260040161091c91906156a2565b50836024819055508260228c815481106139755761397561556c565b906000526020600020906004020160020160106101000a8154816001600160801b0302191690836001600160801b031602179055508160228c815481106139be576139be61556c565b906000526020600020906004020160020160006101000a8154816001600160801b0302191690836001600160801b031602179055505050505050506000613a036147b8565b905060006008613a116147b8565b613a1c90600161568a565b613a269190615a35565b9050670de0b6b3a7640000858b010460228881548110613a4857613a4861556c565b90600052602060002090600402016001018360088110613a6a57613a6a61556c565b600891828204019190066004028282829054906101000a900463ffffffff160192506101000a81548163ffffffff021916908363ffffffff160217905550600160228881548110613abd57613abd61556c565b90600052602060002090600402016001018260088110613adf57613adf61556c565b600891828204019190066004029054906101000a900463ffffffff1663ffffffff161115613b6857600160228881548110613b1c57613b1c61556c565b90600052602060002090600402016001018260088110613b3e57613b3e61556c565b600891828204019190066004026101000a81548163ffffffff021916908363ffffffff1602179055505b8a15613bdd57613b7b8c8a8d60016145d8565b6000613b868d6128cd565b905060228881548110613b9b57613b9b61556c565b6000918252602090912060026004909202010154600d906001600160801b03168214613bda5760405162461bcd60e51b815260040161091c91906156a2565b50505b891561334b5760265461334b906001600160a01b03168a8c60016145d8565b8051610cd3906002906020840190614ac5565b6001600160a01b038216600090815260236020526040812054839015801590613c4657506026546001600160a01b03828116911614155b600b90613c665760405162461bcd60e51b815260040161091c91906156a2565b506001600160a01b03841660009081526023602052604090205460228054612c2691869184908110613c9a57613c9a61556c565b6000918252602090912060026004909202010154602280546001600160801b039092169185908110613cce57613cce61556c565b6000918252602090912060049091020160020154600160801b90046001600160801b0316613cfb85613365565b6147d7565b6001600160a01b038216600090815260236020526040812054839015801590613d3757506026546001600160a01b03828116911614155b600b90613d575760405162461bcd60e51b815260040161091c91906156a2565b506001600160a01b03841660009081526023602052604090205460228054612c2691869184908110613d8b57613d8b61556c565b906000526020600020906004020160020160109054906101000a90046001600160801b03166001600160801b031660228481548110613dcc57613dcc61556c565b60009182526020909120600260049092020101546001600160801b0316613cfb85613365565b6000610948825490565b6001600160a01b038416613e225760405162461bcd60e51b815260040161091c906158e1565b33613e32818787612a9688614618565b6000848152602081815260408083206001600160a01b038a16845290915290205483811015613e735760405162461bcd60e51b815260040161091c90615926565b6000858152602081815260408083206001600160a01b038b8116855292528083208785039055908816825281208054869290613eb090849061568a565b909155505060408051868152602081018690526001600160a01b03808916928a821692918616917fc3d58168c5ae7397731d063d5bbf3d657854427343f4c083240f7aacaa2d0f62910160405180910390a4613f10828888888888614663565b50505050505050565b6001600160a01b038316613f3f5760405162461bcd60e51b815260040161091c906159ae565b33613f6e81856000613f5087614618565b613f5987614618565b60405180602001604052806000815250614204565b6000838152602081815260408083206001600160a01b038816845290915290205482811015613faf5760405162461bcd60e51b815260040161091c906159f1565b6000848152602081815260408083206001600160a01b03898116808652918452828520888703905582518981529384018890529092908616917fc3d58168c5ae7397731d063d5bbf3d657854427343f4c083240f7aacaa2d0f62910160405180910390a45050505050565b600081815260018301602052604081205461406157508154600181810184556000848152602080822090930184905584548482528286019093526040902091909155610948565b506000610948565b6060600061407883600261573e565b61408390600261568a565b6001600160401b0381111561409a5761409a614dbd565b6040519080825280601f01601f1916602001820160405280156140c4576020820181803683370190505b509050600360fc1b816000815181106140df576140df61556c565b60200101906001600160f81b031916908160001a905350600f60fb1b8160018151811061410e5761410e61556c565b60200101906001600160f81b031916908160001a905350600061413284600261573e565b61413d90600161568a565b90505b60018111156141b5576f181899199a1a9b1b9c1cb0b131b232b360811b85600f16601081106141715761417161556c565b1a60f81b8282815181106141875761418761556c565b60200101906001600160f81b031916908160001a90535060049490941c936141ae81615a49565b9050614140565b5083156113705760405162461bcd60e51b815260206004820181905260248201527f537472696e67733a20686578206c656e67746820696e73756666696369656e74604482015260640161091c565b6001600160a01b03851661428b5760005b8351811015614289578281815181106142305761423061556c565b60200260200101516003600086848151811061424e5761424e61556c565b602002602001015181526020019081526020016000206000828254614273919061568a565b90915550614282905081615598565b9050614215565b505b6001600160a01b0384166115ad5760005b8351811015613f10578281815181106142b7576142b761556c565b6020026020010151600360008684815181106142d5576142d561556c565b6020026020010151815260200190815260200160002060008282546142fa9190615727565b90915550614309905081615598565b905061429c565b6001600160a01b0384163b156115ad5760405163bc197c8160e01b81526001600160a01b0385169063bc197c81906143549089908990889088908890600401615a60565b6020604051808303816000875af192505050801561438f575060408051601f3d908101601f1916820190925261438c91810190615abe565b60015b61443c5761439b615adb565b806308c379a014156143d557506143b0615af7565b806143bb57506143d7565b8060405162461bcd60e51b815260040161091c9190614daa565b505b60405162461bcd60e51b815260206004820152603460248201527f455243313135353a207472616e7366657220746f206e6f6e20455243313135356044820152732932b1b2b4bb32b91034b6b83632b6b2b73a32b960611b606482015260840161091c565b6001600160e01b0319811663bc197c8160e01b14613f105760405162461bcd60e51b815260040161091c90615b80565b61447682826116a2565b15610cd35760008281526004602090815260408083206001600160a01b0385168085529252808320805460ff1916905551339285917ff6391f5c32d9c69d2a47ea670b442974b53935d1edc7fd64eb21e047a839171b9190a45050565b6000611370836001600160a01b038416614858565b604080516001600160a01b0385811660248301528481166044830152606480830185905283518084039091018152608490920183526020820180516001600160e01b03166323b872dd60e01b179052915160009283929088169161454c9190615bc8565b6000604051808303816000865af19150503d8060008114614589576040519150601f19603f3d011682016040523d82523d6000602084013e61458e565b606091505b50915091508180156145b85750805115806145b85750808060200190518101906145b8919061587c565b601b90613f105760405162461bcd60e51b815260040161091c91906156a2565b6001600160a01b0383163014610a05576029546001600160a01b038581169116141561460d57614608838361494b565b610a05565b610a058484846149dd565b604080516001808252818301909252606091600091906020808301908036833701905050905082816000815181106146525761465261556c565b602090810291909101015292915050565b6001600160a01b0384163b156115ad5760405163f23a6e6160e01b81526001600160a01b0385169063f23a6e61906146a79089908990889088908890600401615be4565b6020604051808303816000875af19250505080156146e2575060408051601f3d908101601f191682019092526146df91810190615abe565b60015b6146ee5761439b615adb565b6001600160e01b0319811663f23a6e6160e01b14613f105760405162461bcd60e51b815260040161091c90615b80565b60006103e88411801561473257506103e883115b601e906147525760405162461bcd60e51b815260040161091c91906156a2565b50600061475f838761573e565b90506000816147706127108861573e565b61477a919061568a565b614784838761573e565b6135719190615773565b60008260000182815481106147a5576147a561556c565b9060005260206000200154905092915050565b600060086147c861384042615773565b6147d29190615a35565b905090565b60006103e8841180156147eb57506103e883115b601e9061480b5760405162461bcd60e51b815260040161091c91906156a2565b5060006148188685615727565b614822908461573e565b61271061482f888861573e565b614839919061573e565b6148439190615773565b61484e90600161568a565b9695505050505050565b6000818152600183016020526040812054801561494157600061487c600183615727565b855490915060009061489090600190615727565b90508181146148f55760008660000182815481106148b0576148b061556c565b90600052602060002001549050808760000184815481106148d3576148d361556c565b6000918252602080832090910192909255918252600188019052604090208390555b855486908061490657614906615c1e565b600190038181906000526020600020016000905590558560010160008681526020019081526020016000206000905560019350505050610948565b6000915050610948565b604080516000808252602082019092526001600160a01b0384169083906040516149759190615bc8565b60006040518083038185875af1925050503d80600081146149b2576040519150601f19603f3d011682016040523d82523d6000602084013e6149b7565b606091505b509091506019905081610a055760405162461bcd60e51b815260040161091c91906156a2565b604080516001600160a01b038481166024830152604480830185905283518084039091018152606490920183526020820180516001600160e01b031663a9059cbb60e01b1790529151600092839290871691614a399190615bc8565b6000604051808303816000865af19150503d8060008114614a76576040519150601f19603f3d011682016040523d82523d6000602084013e614a7b565b606091505b5091509150818015614aa5575080511580614aa5575080806020019051810190614aa5919061587c565b601a906115ad5760405162461bcd60e51b815260040161091c91906156a2565b828054614ad1906155d0565b90600052602060002090601f016020900481019282614af35760008555614b39565b82601f10614b0c57805160ff1916838001178555614b39565b82800160010185558215614b39579182015b82811115614b39578251825591602001919060010190614b1e565b50614b45929150614c39565b5090565b6040518060a0016040528060006001600160a01b03168152602001614b6c614b87565b81526000602082018190526040820181905260609091015290565b6040518061010001604052806008906020820280368337509192915050565b600183019183908215614b395791602002820160005b83821115614c0057835183826101000a81548163ffffffff021916908363ffffffff1602179055509260200192600401602081600301049283019260010302614bbc565b8015614c305782816101000a81549063ffffffff0219169055600401602081600301049283019260010302614c00565b5050614b459291505b5b80821115614b455760008155600101614c3a565b6001600160a01b0381168114614c6357600080fd5b50565b60008060408385031215614c7957600080fd5b8235614c8481614c4e565b946020939093013593505050565b6001600160e01b031981168114614c6357600080fd5b600060208284031215614cba57600080fd5b813561137081614c92565b60008060208385031215614cd857600080fd5b82356001600160401b0380821115614cef57600080fd5b818501915085601f830112614d0357600080fd5b813581811115614d1257600080fd5b8660208260061b8501011115614d2757600080fd5b60209290920196919550909350505050565b600060208284031215614d4b57600080fd5b5035919050565b60005b83811015614d6d578181015183820152602001614d55565b83811115610a055750506000910152565b60008151808452614d96816020860160208601614d52565b601f01601f19169290920160200192915050565b6020815260006113706020830184614d7e565b634e487b7160e01b600052604160045260246000fd5b601f8201601f191681016001600160401b0381118282101715614df857614df8614dbd565b6040525050565b60006001600160401b03821115614e1857614e18614dbd565b5060051b60200190565b600082601f830112614e3357600080fd5b81356020614e4082614dff565b604051614e4d8282614dd3565b83815260059390931b8501820192828101915086841115614e6d57600080fd5b8286015b84811015614e885780358352918301918301614e71565b509695505050505050565b600082601f830112614ea457600080fd5b81356001600160401b03811115614ebd57614ebd614dbd565b604051614ed4601f8301601f191660200182614dd3565b818152846020838601011115614ee957600080fd5b816020850160208301376000918101602001919091529392505050565b600080600080600060a08688031215614f1e57600080fd5b8535614f2981614c4e565b94506020860135614f3981614c4e565b935060408601356001600160401b0380821115614f5557600080fd5b614f6189838a01614e22565b94506060880135915080821115614f7757600080fd5b614f8389838a01614e22565b93506080880135915080821115614f9957600080fd5b50614fa688828901614e93565b9150509295509295909350565b60008060408385031215614fc657600080fd5b823591506020830135614fd881614c4e565b809150509250929050565b60008060408385031215614ff657600080fd5b82356001600160401b038082111561500d57600080fd5b61501986838701614e93565b9350602085013591508082111561502f57600080fd5b5061503c85828601614e93565b9150509250929050565b6000806000806080858703121561505c57600080fd5b843561506781614c4e565b93506020850135925060408501359150606085013561508581614c4e565b939692955090935050565b6000806000606084860312156150a557600080fd5b83356150b081614c4e565b925060208401356150c081614c4e565b929592945050506040919091013590565b600080604083850312156150e457600080fd5b82356001600160401b03808211156150fb57600080fd5b818501915085601f83011261510f57600080fd5b8135602061511c82614dff565b6040516151298282614dd3565b83815260059390931b850182019282810191508984111561514957600080fd5b948201945b8386101561517057853561516181614c4e565b8252948201949082019061514e565b9650508601359250508082111561518657600080fd5b5061503c85828601614e22565b600081518084526020808501945080840160005b838110156151c3578151875295820195908201906001016151a7565b509495945050505050565b6020815260006113706020830184615193565b6000806000606084860312156151f657600080fd5b833561520181614c4e565b925060208401356001600160401b038082111561521d57600080fd5b61522987838801614e22565b9350604086013591508082111561523f57600080fd5b5061524c86828701614e22565b9150509250925092565b60008060008060008060c0878903121561526f57600080fd5b863595506020870135945060408701359350606087013592506080870135915060a087013561529d81614c4e565b809150509295509295509295565b600080604083850312156152be57600080fd5b50508035926020909101359150565b6000602082840312156152df57600080fd5b813561137081614c4e565b8015158114614c6357600080fd5b6000806040838503121561530b57600080fd5b823561531681614c4e565b91506020830135614fd8816152ea565b60008060008060008060c0878903121561533f57600080fd5b863561534a81614c4e565b9550602087013561535a81614c4e565b945060408701359350606087013592506080870135915060a087013561529d81614c4e565b60006020828403121561539157600080fd5b81356001600160401b038111156153a757600080fd5b612a1d84828501614e93565b81516001600160a01b031681526020808301516101808301919081840160005b60088110156153f657825163ffffffff16825291830191908301906001016153d3565b5050505060408301516001600160801b03908116610120840152606084015181166101408401526080840151908116610160840152612c2a565b6000806040838503121561544357600080fd5b823561544e81614c4e565b91506020830135614fd881614c4e565b600080600080600060a0868803121561547657600080fd5b853561548181614c4e565b9450602086013561549181614c4e565b935060408601356154a181614c4e565b925060608601356154b181614c4e565b915060808601356154c181614c4e565b809150509295509295909350565b600080600080600060a086880312156154e757600080fd5b85356154f281614c4e565b9450602086013561550281614c4e565b9350604086013592506060860135915060808601356001600160401b0381111561552b57600080fd5b614fa688828901614e93565b60008060006060848603121561554c57600080fd5b833561555781614c4e565b95602085013595506040909401359392505050565b634e487b7160e01b600052603260045260246000fd5b634e487b7160e01b600052601160045260246000fd5b60006000198214156155ac576155ac615582565b5060010190565b6000602082840312156155c557600080fd5b815161137081614c4e565b600181811c908216806155e457607f821691505b602082108114156129a857634e487b7160e01b600052602260045260246000fd5b6000808454615613816155d0565b6001828116801561562b576001811461563c5761566b565b60ff1984168752828701945061566b565b8860005260208060002060005b858110156156625781548a820152908401908201615649565b50505082870194505b50505093815264173539b7b760d91b6020820152602501949350505050565b6000821982111561569d5761569d615582565b500190565b60006020808352600084546156b6816155d0565b808487015260406001808416600081146156d757600181146156eb57615719565b60ff19851689840152606089019550615719565b896000528660002060005b858110156157115781548b82018601529083019088016156f6565b8a0184019650505b509398975050505050505050565b60008282101561573957615739615582565b500390565b600081600019048311821515161561575857615758615582565b500290565b634e487b7160e01b600052601260045260246000fd5b6000826157825761578261575d565b500490565b60006001600160801b038083168185168083038211156157a9576157a9615582565b01949350505050565b60006001600160801b03838116908316818110156157d2576157d2615582565b039392505050565b600082516157ec818460208701614d52565b683db4b23e973539b7b760b91b920191825250600901919050565b7f416363657373436f6e74726f6c3a206163636f756e742000000000000000000081526000835161583f816017850160208801614d52565b7001034b99036b4b9b9b4b733903937b6329607d1b6017918401918201528351615870816028840160208801614d52565b01602801949350505050565b60006020828403121561588e57600080fd5b8151611370816152ea565b60208082526028908201527f455243313135353a2069647320616e6420616d6f756e7473206c656e677468206040820152670dad2e6dac2e8c6d60c31b606082015260800190565b60208082526025908201527f455243313135353a207472616e7366657220746f20746865207a65726f206164604082015264647265737360d81b606082015260800190565b6020808252602a908201527f455243313135353a20696e73756666696369656e742062616c616e636520666f60408201526939103a3930b739b332b960b11b606082015260800190565b6040815260006159836040830185615193565b828103602084015261136c8185615193565b6000602082840312156159a757600080fd5b5051919050565b60208082526023908201527f455243313135353a206275726e2066726f6d20746865207a65726f206164647260408201526265737360e81b606082015260800190565b60208082526024908201527f455243313135353a206275726e20616d6f756e7420657863656564732062616c604082015263616e636560e01b606082015260800190565b600082615a4457615a4461575d565b500690565b600081615a5857615a58615582565b506000190190565b6001600160a01b0386811682528516602082015260a060408201819052600090615a8c90830186615193565b8281036060840152615a9e8186615193565b90508281036080840152615ab28185614d7e565b98975050505050505050565b600060208284031215615ad057600080fd5b815161137081614c92565b600060033d1115615af45760046000803e5060005160e01c5b90565b600060443d1015615b055790565b6040516003193d81016004833e81513d6001600160401b038160248401118184111715615b3457505050505090565b8285019150815181811115615b4c5750505050505090565b843d8701016020828501011115615b665750505050505090565b615b7560208286010187614dd3565b509095945050505050565b60208082526028908201527f455243313135353a204552433131353552656365697665722072656a656374656040820152676420746f6b656e7360c01b606082015260800190565b60008251615bda818460208701614d52565b9190910192915050565b6001600160a01b03868116825285166020820152604081018490526060810183905260a06080820181905260009061357190830184614d7e565b634e487b7160e01b600052603160045260246000fdfea2646970667358221220d26ca207977ef59aad7c852fdb00ca19c53a1f93377521a136baeba0237e133f64736f6c634300080b003368747470733a2f2f646174612e63657262792e66692f4365726279537761702f76312f",
			"opcodes": "PUSH1 0xC0 PUSH1 0x40 MSTORE PUSH1 0xD PUSH1 0x80 DUP2 SWAP1 MSTORE PUSH13 0x43657262792053776170205631 PUSH1 0x98 SHL PUSH1 0xA0 SWAP1 DUP2 MSTORE PUSH3 0x30 SWAP2 PUSH1 0x6 SWAP2 SWAP1 PUSH3 0xA3C JUMP JUMPDEST POP PUSH1 0x40 DUP1 MLOAD DUP1 DUP3 ADD SWAP1 SWAP2 MSTORE PUSH1 0xD DUP1 DUP3 MSTORE PUSH13 0x43455242595F535741505F5631 PUSH1 0x98 SHL PUSH1 0x20 SWAP1 SWAP3 ADD SWAP2 DUP3 MSTORE PUSH3 0x67 SWAP2 PUSH1 0x7 SWAP2 PUSH3 0xA3C JUMP JUMPDEST POP PUSH1 0x40 MLOAD DUP1 PUSH1 0x60 ADD PUSH1 0x40 MSTORE DUP1 PUSH1 0x23 DUP2 MSTORE PUSH1 0x20 ADD PUSH3 0x6960 PUSH1 0x23 SWAP2 CODECOPY DUP1 MLOAD PUSH3 0x98 SWAP2 PUSH1 0x8 SWAP2 PUSH1 0x20 SWAP1 SWAP2 ADD SWAP1 PUSH3 0xA3C JUMP JUMPDEST POP PUSH1 0x25 DUP1 SLOAD PUSH1 0x1 PUSH1 0x1 PUSH1 0xA0 SHL SUB NOT SWAP1 DUP2 AND PUSH20 0x3D982CB3BC8D1248B17F22B567524BF7BFFD3B11 OR SWAP1 SWAP2 SSTORE PUSH1 0x26 DUP1 SLOAD DUP3 AND PUSH20 0x37E140032AC3A8428ED43761A9881D4741EB3A73 OR SWAP1 SSTORE PUSH1 0x27 DUP1 SLOAD DUP3 AND PUSH20 0xD575EF966CFE21A5A5602DFADAD3D1CAE8C60FDB OR SWAP1 SSTORE PUSH1 0x29 DUP1 SLOAD SWAP1 SWAP2 AND PUSH20 0x14769F96E57B80C66837701DE0B43686FB4632DE OR SWAP1 SSTORE PUSH1 0x0 PUSH1 0x2A SSTORE PUSH1 0x1 PUSH1 0x2B SSTORE PUSH1 0x64 PUSH1 0x2C DUP2 SWAP1 SSTORE PUSH3 0x13D PUSH2 0x2710 PUSH1 0xF PUSH3 0xB9A JUMP JUMPDEST PUSH3 0x149 SWAP2 SWAP1 PUSH3 0xBC8 JUMP JUMPDEST PUSH1 0x2D SSTORE PUSH3 0x15B PUSH2 0x2710 PUSH1 0xF PUSH3 0xB9A JUMP JUMPDEST PUSH1 0x2E SSTORE PUSH1 0x2F DUP1 SLOAD PUSH1 0x1 PUSH1 0x1 PUSH1 0xA0 SHL SUB NOT AND PUSH2 0xDEAD OR SWAP1 SSTORE CALLVALUE DUP1 ISZERO PUSH3 0x17F JUMPI PUSH1 0x0 DUP1 REVERT JUMPDEST POP PUSH1 0x8 PUSH1 0x40 MLOAD PUSH1 0x20 ADD PUSH3 0x194 SWAP2 SWAP1 PUSH3 0xC28 JUMP JUMPDEST PUSH1 0x40 DUP1 MLOAD PUSH1 0x1F NOT DUP2 DUP5 SUB ADD DUP2 MSTORE SWAP2 SWAP1 MSTORE PUSH3 0x1AF DUP2 PUSH3 0x8C4 JUMP JUMPDEST POP PUSH3 0x1BD PUSH1 0x0 CALLER PUSH3 0x8DD JUMP JUMPDEST PUSH1 0x40 DUP1 MLOAD PUSH2 0x360 DUP2 ADD DUP3 MSTORE PUSH1 0x1 PUSH2 0x320 DUP3 ADD DUP2 DUP2 MSTORE PUSH1 0x41 PUSH1 0xF8 SHL PUSH2 0x340 DUP5 ADD MSTORE DUP3 MSTORE DUP3 MLOAD DUP1 DUP5 ADD DUP5 MSTORE DUP2 DUP2 MSTORE PUSH1 0x21 PUSH1 0xF9 SHL PUSH1 0x20 DUP3 DUP2 ADD SWAP2 SWAP1 SWAP2 MSTORE DUP1 DUP5 ADD SWAP2 SWAP1 SWAP2 MSTORE DUP4 MLOAD DUP1 DUP6 ADD DUP6 MSTORE DUP3 DUP2 MSTORE PUSH1 0x43 PUSH1 0xF8 SHL DUP2 DUP4 ADD MSTORE DUP4 DUP6 ADD MSTORE DUP4 MLOAD DUP1 DUP6 ADD DUP6 MSTORE DUP3 DUP2 MSTORE PUSH1 0x11 PUSH1 0xFA SHL DUP2 DUP4 ADD MSTORE PUSH1 0x60 DUP5 ADD MSTORE DUP4 MLOAD DUP1 DUP6 ADD DUP6 MSTORE DUP3 DUP2 MSTORE PUSH1 0x45 PUSH1 0xF8 SHL DUP2 DUP4 ADD MSTORE PUSH1 0x80 DUP5 ADD MSTORE DUP4 MLOAD DUP1 DUP6 ADD DUP6 MSTORE DUP3 DUP2 MSTORE PUSH1 0x23 PUSH1 0xF9 SHL DUP2 DUP4 ADD MSTORE PUSH1 0xA0 DUP5 ADD MSTORE DUP4 MLOAD DUP1 DUP6 ADD DUP6 MSTORE DUP3 DUP2 MSTORE PUSH1 0x47 PUSH1 0xF8 SHL DUP2 DUP4 ADD MSTORE PUSH1 0xC0 DUP5 ADD MSTORE DUP4 MLOAD DUP1 DUP6 ADD DUP6 MSTORE DUP3 DUP2 MSTORE PUSH1 0x9 PUSH1 0xFB SHL DUP2 DUP4 ADD MSTORE PUSH1 0xE0 DUP5 ADD MSTORE DUP4 MLOAD DUP1 DUP6 ADD DUP6 MSTORE DUP3 DUP2 MSTORE PUSH1 0x69 PUSH1 0xF8 SHL DUP2 DUP4 ADD MSTORE PUSH2 0x100 DUP5 ADD MSTORE DUP4 MLOAD DUP1 DUP6 ADD DUP6 MSTORE DUP3 DUP2 MSTORE PUSH1 0x25 PUSH1 0xF9 SHL DUP2 DUP4 ADD MSTORE PUSH2 0x120 DUP5 ADD MSTORE DUP4 MLOAD DUP1 DUP6 ADD DUP6 MSTORE DUP3 DUP2 MSTORE PUSH1 0x4B PUSH1 0xF8 SHL DUP2 DUP4 ADD MSTORE PUSH2 0x140 DUP5 ADD MSTORE DUP4 MLOAD DUP1 DUP6 ADD DUP6 MSTORE DUP3 DUP2 MSTORE PUSH1 0x13 PUSH1 0xFA SHL DUP2 DUP4 ADD MSTORE PUSH2 0x160 DUP5 ADD MSTORE DUP4 MLOAD DUP1 DUP6 ADD DUP6 MSTORE DUP3 DUP2 MSTORE PUSH1 0x4D PUSH1 0xF8 SHL DUP2 DUP4 ADD MSTORE PUSH2 0x180 DUP5 ADD MSTORE DUP4 MLOAD DUP1 DUP6 ADD DUP6 MSTORE DUP3 DUP2 MSTORE PUSH1 0x27 PUSH1 0xF9 SHL DUP2 DUP4 ADD MSTORE PUSH2 0x1A0 DUP5 ADD MSTORE DUP4 MLOAD DUP1 DUP6 ADD DUP6 MSTORE DUP3 DUP2 MSTORE PUSH1 0x4F PUSH1 0xF8 SHL DUP2 DUP4 ADD MSTORE PUSH2 0x1C0 DUP5 ADD MSTORE DUP4 MLOAD DUP1 DUP6 ADD DUP6 MSTORE DUP3 DUP2 MSTORE PUSH1 0x5 PUSH1 0xFC SHL DUP2 DUP4 ADD MSTORE PUSH2 0x1E0 DUP5 ADD MSTORE DUP4 MLOAD DUP1 DUP6 ADD DUP6 MSTORE DUP3 DUP2 MSTORE PUSH1 0x51 PUSH1 0xF8 SHL DUP2 DUP4 ADD MSTORE PUSH2 0x200 DUP5 ADD MSTORE DUP4 MLOAD DUP1 DUP6 ADD DUP6 MSTORE DUP3 DUP2 MSTORE PUSH1 0x29 PUSH1 0xF9 SHL DUP2 DUP4 ADD MSTORE PUSH2 0x220 DUP5 ADD MSTORE DUP4 MLOAD DUP1 DUP6 ADD DUP6 MSTORE DUP3 DUP2 MSTORE PUSH1 0x53 PUSH1 0xF8 SHL DUP2 DUP4 ADD MSTORE PUSH2 0x240 DUP5 ADD MSTORE DUP4 MLOAD DUP1 DUP6 ADD DUP6 MSTORE DUP3 DUP2 MSTORE PUSH1 0x15 PUSH1 0xFA SHL DUP2 DUP4 ADD MSTORE PUSH2 0x260 DUP5 ADD MSTORE DUP4 MLOAD DUP1 DUP6 ADD DUP6 MSTORE DUP3 DUP2 MSTORE PUSH1 0x55 PUSH1 0xF8 SHL DUP2 DUP4 ADD MSTORE PUSH2 0x280 DUP5 ADD MSTORE DUP4 MLOAD DUP1 DUP6 ADD DUP6 MSTORE DUP3 DUP2 MSTORE PUSH1 0x2B PUSH1 0xF9 SHL DUP2 DUP4 ADD MSTORE PUSH2 0x2A0 DUP5 ADD MSTORE DUP4 MLOAD DUP1 DUP6 ADD DUP6 MSTORE DUP3 DUP2 MSTORE PUSH1 0x57 PUSH1 0xF8 SHL DUP2 DUP4 ADD MSTORE PUSH2 0x2C0 DUP5 ADD MSTORE DUP4 MLOAD DUP1 DUP6 ADD DUP6 MSTORE DUP3 DUP2 MSTORE PUSH1 0xB PUSH1 0xFB SHL DUP2 DUP4 ADD MSTORE PUSH2 0x2E0 DUP5 ADD MSTORE DUP4 MLOAD DUP1 DUP6 ADD SWAP1 SWAP5 MSTORE SWAP1 DUP4 MSTORE PUSH1 0x59 PUSH1 0xF8 SHL DUP4 DUP3 ADD MSTORE PUSH2 0x300 DUP3 ADD SWAP3 SWAP1 SWAP3 MSTORE DUP1 MLOAD DUP1 MLOAD SWAP2 SWAP3 PUSH1 0x9 SWAP3 PUSH3 0x452 SWAP3 DUP5 SWAP3 ADD SWAP1 PUSH3 0xA3C JUMP JUMPDEST POP PUSH1 0x20 DUP3 DUP2 ADD MLOAD DUP1 MLOAD PUSH3 0x46D SWAP3 PUSH1 0x1 DUP6 ADD SWAP3 ADD SWAP1 PUSH3 0xA3C JUMP JUMPDEST POP PUSH1 0x40 DUP3 ADD MLOAD DUP1 MLOAD PUSH3 0x48B SWAP2 PUSH1 0x2 DUP5 ADD SWAP2 PUSH1 0x20 SWAP1 SWAP2 ADD SWAP1 PUSH3 0xA3C JUMP JUMPDEST POP PUSH1 0x60 DUP3 ADD MLOAD DUP1 MLOAD PUSH3 0x4A9 SWAP2 PUSH1 0x3 DUP5 ADD SWAP2 PUSH1 0x20 SWAP1 SWAP2 ADD SWAP1 PUSH3 0xA3C JUMP JUMPDEST POP PUSH1 0x80 DUP3 ADD MLOAD DUP1 MLOAD PUSH3 0x4C7 SWAP2 PUSH1 0x4 DUP5 ADD SWAP2 PUSH1 0x20 SWAP1 SWAP2 ADD SWAP1 PUSH3 0xA3C JUMP JUMPDEST POP PUSH1 0xA0 DUP3 ADD MLOAD DUP1 MLOAD PUSH3 0x4E5 SWAP2 PUSH1 0x5 DUP5 ADD SWAP2 PUSH1 0x20 SWAP1 SWAP2 ADD SWAP1 PUSH3 0xA3C JUMP JUMPDEST POP PUSH1 0xC0 DUP3 ADD MLOAD DUP1 MLOAD PUSH3 0x503 SWAP2 PUSH1 0x6 DUP5 ADD SWAP2 PUSH1 0x20 SWAP1 SWAP2 ADD SWAP1 PUSH3 0xA3C JUMP JUMPDEST POP PUSH1 0xE0 DUP3 ADD MLOAD DUP1 MLOAD PUSH3 0x521 SWAP2 PUSH1 0x7 DUP5 ADD SWAP2 PUSH1 0x20 SWAP1 SWAP2 ADD SWAP1 PUSH3 0xA3C JUMP JUMPDEST POP PUSH2 0x100 DUP3 ADD MLOAD DUP1 MLOAD PUSH3 0x540 SWAP2 PUSH1 0x8 DUP5 ADD SWAP2 PUSH1 0x20 SWAP1 SWAP2 ADD SWAP1 PUSH3 0xA3C JUMP JUMPDEST POP PUSH2 0x120 DUP3 ADD MLOAD DUP1 MLOAD PUSH3 0x55F SWAP2 PUSH1 0x9 DUP5 ADD SWAP2 PUSH1 0x20 SWAP1 SWAP2 ADD SWAP1 PUSH3 0xA3C JUMP JUMPDEST POP PUSH2 0x140 DUP3 ADD MLOAD DUP1 MLOAD PUSH3 0x57E SWAP2 PUSH1 0xA DUP5 ADD SWAP2 PUSH1 0x20 SWAP1 SWAP2 ADD SWAP1 PUSH3 0xA3C JUMP JUMPDEST POP PUSH2 0x160 DUP3 ADD MLOAD DUP1 MLOAD PUSH3 0x59D SWAP2 PUSH1 0xB DUP5 ADD SWAP2 PUSH1 0x20 SWAP1 SWAP2 ADD SWAP1 PUSH3 0xA3C JUMP JUMPDEST POP PUSH2 0x180 DUP3 ADD MLOAD DUP1 MLOAD PUSH3 0x5BC SWAP2 PUSH1 0xC DUP5 ADD SWAP2 PUSH1 0x20 SWAP1 SWAP2 ADD SWAP1 PUSH3 0xA3C JUMP JUMPDEST POP PUSH2 0x1A0 DUP3 ADD MLOAD DUP1 MLOAD PUSH3 0x5DB SWAP2 PUSH1 0xD DUP5 ADD SWAP2 PUSH1 0x20 SWAP1 SWAP2 ADD SWAP1 PUSH3 0xA3C JUMP JUMPDEST POP PUSH2 0x1C0 DUP3 ADD MLOAD DUP1 MLOAD PUSH3 0x5FA SWAP2 PUSH1 0xE DUP5 ADD SWAP2 PUSH1 0x20 SWAP1 SWAP2 ADD SWAP1 PUSH3 0xA3C JUMP JUMPDEST POP PUSH2 0x1E0 DUP3 ADD MLOAD DUP1 MLOAD PUSH3 0x619 SWAP2 PUSH1 0xF DUP5 ADD SWAP2 PUSH1 0x20 SWAP1 SWAP2 ADD SWAP1 PUSH3 0xA3C JUMP JUMPDEST POP PUSH2 0x200 DUP3 ADD MLOAD DUP1 MLOAD PUSH3 0x638 SWAP2 PUSH1 0x10 DUP5 ADD SWAP2 PUSH1 0x20 SWAP1 SWAP2 ADD SWAP1 PUSH3 0xA3C JUMP JUMPDEST POP PUSH2 0x220 DUP3 ADD MLOAD DUP1 MLOAD PUSH3 0x657 SWAP2 PUSH1 0x11 DUP5 ADD SWAP2 PUSH1 0x20 SWAP1 SWAP2 ADD SWAP1 PUSH3 0xA3C JUMP JUMPDEST POP PUSH2 0x240 DUP3 ADD MLOAD DUP1 MLOAD PUSH3 0x676 SWAP2 PUSH1 0x12 DUP5 ADD SWAP2 PUSH1 0x20 SWAP1 SWAP2 ADD SWAP1 PUSH3 0xA3C JUMP JUMPDEST POP PUSH2 0x260 DUP3 ADD MLOAD DUP1 MLOAD PUSH3 0x695 SWAP2 PUSH1 0x13 DUP5 ADD SWAP2 PUSH1 0x20 SWAP1 SWAP2 ADD SWAP1 PUSH3 0xA3C JUMP JUMPDEST POP PUSH2 0x280 DUP3 ADD MLOAD DUP1 MLOAD PUSH3 0x6B4 SWAP2 PUSH1 0x14 DUP5 ADD SWAP2 PUSH1 0x20 SWAP1 SWAP2 ADD SWAP1 PUSH3 0xA3C JUMP JUMPDEST POP PUSH2 0x2A0 DUP3 ADD MLOAD DUP1 MLOAD PUSH3 0x6D3 SWAP2 PUSH1 0x15 DUP5 ADD SWAP2 PUSH1 0x20 SWAP1 SWAP2 ADD SWAP1 PUSH3 0xA3C JUMP JUMPDEST POP PUSH2 0x2C0 DUP3 ADD MLOAD DUP1 MLOAD PUSH3 0x6F2 SWAP2 PUSH1 0x16 DUP5 ADD SWAP2 PUSH1 0x20 SWAP1 SWAP2 ADD SWAP1 PUSH3 0xA3C JUMP JUMPDEST POP PUSH2 0x2E0 DUP3 ADD MLOAD DUP1 MLOAD PUSH3 0x711 SWAP2 PUSH1 0x17 DUP5 ADD SWAP2 PUSH1 0x20 SWAP1 SWAP2 ADD SWAP1 PUSH3 0xA3C JUMP JUMPDEST POP PUSH2 0x300 DUP3 ADD MLOAD DUP1 MLOAD PUSH3 0x730 SWAP2 PUSH1 0x18 DUP5 ADD SWAP2 PUSH1 0x20 SWAP1 SWAP2 ADD SWAP1 PUSH3 0xA3C JUMP JUMPDEST POP POP PUSH1 0x2F DUP1 SLOAD PUSH1 0x1 PUSH1 0x1 PUSH1 0xA0 SHL SUB NOT CALLER DUP2 AND SWAP2 AND OR PUSH4 0xDEAD123 OR SWAP1 SSTORE POP PUSH3 0x758 PUSH3 0xACB JUMP JUMPDEST PUSH1 0x40 DUP1 MLOAD PUSH1 0xA0 DUP2 ADD DUP3 MSTORE PUSH1 0x0 DUP1 DUP3 MSTORE PUSH1 0x20 DUP3 ADD DUP5 DUP2 MSTORE SWAP3 DUP3 ADD DUP2 SWAP1 MSTORE PUSH1 0x60 DUP3 ADD DUP2 SWAP1 MSTORE PUSH1 0x80 DUP3 ADD DUP2 SWAP1 MSTORE PUSH1 0x22 DUP1 SLOAD PUSH1 0x1 DUP2 ADD DUP3 SSTORE SWAP2 MSTORE DUP2 MLOAD PUSH32 0x61035B26E3E9EEE00E0D72FD1EE8DDCA6894550DCA6916EA2AC6BAA90D11E510 PUSH1 0x4 SWAP1 SWAP3 MUL SWAP2 DUP3 ADD DUP1 SLOAD PUSH1 0x1 PUSH1 0x1 PUSH1 0xA0 SHL SUB NOT AND PUSH1 0x1 PUSH1 0x1 PUSH1 0xA0 SHL SUB SWAP1 SWAP3 AND SWAP2 SWAP1 SWAP2 OR DUP2 SSTORE SWAP3 MLOAD SWAP2 SWAP3 SWAP2 PUSH3 0x80B SWAP2 PUSH32 0x61035B26E3E9EEE00E0D72FD1EE8DDCA6894550DCA6916EA2AC6BAA90D11E511 ADD SWAP1 PUSH1 0x8 PUSH3 0xAEA JUMP JUMPDEST POP PUSH1 0x40 DUP3 ADD MLOAD PUSH1 0x60 DUP4 ADD MLOAD PUSH1 0x1 PUSH1 0x1 PUSH1 0x80 SHL SUB SWAP2 DUP3 AND PUSH1 0x1 PUSH1 0x80 SHL SWAP2 DUP4 AND SWAP2 SWAP1 SWAP2 MUL OR PUSH1 0x2 DUP4 ADD SSTORE PUSH1 0x80 SWAP1 SWAP3 ADD MLOAD PUSH1 0x3 SWAP1 SWAP2 ADD DUP1 SLOAD PUSH1 0x1 PUSH1 0x1 PUSH1 0x80 SHL SUB NOT AND SWAP2 SWAP1 SWAP3 AND OR SWAP1 SSTORE CHAINID PUSH2 0x3039 EQ ISZERO PUSH3 0x876 JUMPI PUSH1 0x29 DUP1 SLOAD PUSH1 0x1 PUSH1 0x1 PUSH1 0xA0 SHL SUB NOT AND PUSH2 0xDEAD OR SWAP1 SSTORE PUSH3 0x897 JUMP JUMPDEST CHAINID PUSH3 0x181CD EQ ISZERO PUSH3 0x897 JUMPI PUSH1 0x29 DUP1 SLOAD PUSH1 0x1 PUSH1 0x1 PUSH1 0xA0 SHL SUB NOT AND PUSH2 0xDEAD OR SWAP1 SSTORE JUMPDEST POP PUSH1 0x29 DUP1 SLOAD PUSH1 0x1 PUSH1 0x1 PUSH1 0xA0 SHL SUB NOT AND PUSH20 0x14769F96E57B80C66837701DE0B43686FB4632DE OR SWAP1 SSTORE PUSH3 0xCE6 JUMP JUMPDEST DUP1 MLOAD PUSH3 0x8D9 SWAP1 PUSH1 0x2 SWAP1 PUSH1 0x20 DUP5 ADD SWAP1 PUSH3 0xA3C JUMP JUMPDEST POP POP JUMP JUMPDEST PUSH3 0x8D9 DUP3 DUP3 PUSH3 0x8FA DUP3 DUP3 PUSH3 0x926 PUSH1 0x20 SHL PUSH3 0x2358 OR PUSH1 0x20 SHR JUMP JUMPDEST PUSH1 0x0 DUP3 DUP2 MSTORE PUSH1 0x5 PUSH1 0x20 SWAP1 DUP2 MSTORE PUSH1 0x40 SWAP1 SWAP2 KECCAK256 PUSH3 0x921 SWAP2 DUP4 SWAP1 PUSH3 0x23DE PUSH3 0x9CA DUP3 SHL OR SWAP1 SHR JUMP JUMPDEST POP POP POP JUMP JUMPDEST PUSH1 0x0 DUP3 DUP2 MSTORE PUSH1 0x4 PUSH1 0x20 SWAP1 DUP2 MSTORE PUSH1 0x40 DUP1 DUP4 KECCAK256 PUSH1 0x1 PUSH1 0x1 PUSH1 0xA0 SHL SUB DUP6 AND DUP5 MSTORE SWAP1 SWAP2 MSTORE SWAP1 KECCAK256 SLOAD PUSH1 0xFF AND PUSH3 0x8D9 JUMPI PUSH1 0x0 DUP3 DUP2 MSTORE PUSH1 0x4 PUSH1 0x20 SWAP1 DUP2 MSTORE PUSH1 0x40 DUP1 DUP4 KECCAK256 PUSH1 0x1 PUSH1 0x1 PUSH1 0xA0 SHL SUB DUP6 AND DUP5 MSTORE SWAP1 SWAP2 MSTORE SWAP1 KECCAK256 DUP1 SLOAD PUSH1 0xFF NOT AND PUSH1 0x1 OR SWAP1 SSTORE PUSH3 0x986 CALLER SWAP1 JUMP JUMPDEST PUSH1 0x1 PUSH1 0x1 PUSH1 0xA0 SHL SUB AND DUP2 PUSH1 0x1 PUSH1 0x1 PUSH1 0xA0 SHL SUB AND DUP4 PUSH32 0x2F8788117E7EFF1D82E926EC794901D17C78024A50270940304540A733656F0D PUSH1 0x40 MLOAD PUSH1 0x40 MLOAD DUP1 SWAP2 SUB SWAP1 LOG4 POP POP JUMP JUMPDEST PUSH1 0x0 PUSH3 0x9E1 DUP4 PUSH1 0x1 PUSH1 0x1 PUSH1 0xA0 SHL SUB DUP5 AND PUSH3 0x9EA JUMP JUMPDEST SWAP1 POP JUMPDEST SWAP3 SWAP2 POP POP JUMP JUMPDEST PUSH1 0x0 DUP2 DUP2 MSTORE PUSH1 0x1 DUP4 ADD PUSH1 0x20 MSTORE PUSH1 0x40 DUP2 KECCAK256 SLOAD PUSH3 0xA33 JUMPI POP DUP2 SLOAD PUSH1 0x1 DUP2 DUP2 ADD DUP5 SSTORE PUSH1 0x0 DUP5 DUP2 MSTORE PUSH1 0x20 DUP1 DUP3 KECCAK256 SWAP1 SWAP4 ADD DUP5 SWAP1 SSTORE DUP5 SLOAD DUP5 DUP3 MSTORE DUP3 DUP7 ADD SWAP1 SWAP4 MSTORE PUSH1 0x40 SWAP1 KECCAK256 SWAP2 SWAP1 SWAP2 SSTORE PUSH3 0x9E4 JUMP JUMPDEST POP PUSH1 0x0 PUSH3 0x9E4 JUMP JUMPDEST DUP3 DUP1 SLOAD PUSH3 0xA4A SWAP1 PUSH3 0xBEB JUMP JUMPDEST SWAP1 PUSH1 0x0 MSTORE PUSH1 0x20 PUSH1 0x0 KECCAK256 SWAP1 PUSH1 0x1F ADD PUSH1 0x20 SWAP1 DIV DUP2 ADD SWAP3 DUP3 PUSH3 0xA6E JUMPI PUSH1 0x0 DUP6 SSTORE PUSH3 0xAB9 JUMP JUMPDEST DUP3 PUSH1 0x1F LT PUSH3 0xA89 JUMPI DUP1 MLOAD PUSH1 0xFF NOT AND DUP4 DUP1 ADD OR DUP6 SSTORE PUSH3 0xAB9 JUMP JUMPDEST DUP3 DUP1 ADD PUSH1 0x1 ADD DUP6 SSTORE DUP3 ISZERO PUSH3 0xAB9 JUMPI SWAP2 DUP3 ADD JUMPDEST DUP3 DUP2 GT ISZERO PUSH3 0xAB9 JUMPI DUP3 MLOAD DUP3 SSTORE SWAP2 PUSH1 0x20 ADD SWAP2 SWAP1 PUSH1 0x1 ADD SWAP1 PUSH3 0xA9C JUMP JUMPDEST POP PUSH3 0xAC7 SWAP3 SWAP2 POP PUSH3 0xB83 JUMP JUMPDEST POP SWAP1 JUMP JUMPDEST PUSH1 0x40 MLOAD DUP1 PUSH2 0x100 ADD PUSH1 0x40 MSTORE DUP1 PUSH1 0x8 SWAP1 PUSH1 0x20 DUP3 MUL DUP1 CALLDATASIZE DUP4 CALLDATACOPY POP SWAP2 SWAP3 SWAP2 POP POP JUMP JUMPDEST PUSH1 0x1 DUP4 ADD SWAP2 DUP4 SWAP1 DUP3 ISZERO PUSH3 0xAB9 JUMPI SWAP2 PUSH1 0x20 MUL DUP3 ADD PUSH1 0x0 JUMPDEST DUP4 DUP3 GT ISZERO PUSH3 0xB47 JUMPI DUP4 MLOAD DUP4 DUP3 PUSH2 0x100 EXP DUP2 SLOAD DUP2 PUSH4 0xFFFFFFFF MUL NOT AND SWAP1 DUP4 PUSH4 0xFFFFFFFF AND MUL OR SWAP1 SSTORE POP SWAP3 PUSH1 0x20 ADD SWAP3 PUSH1 0x4 ADD PUSH1 0x20 DUP2 PUSH1 0x3 ADD DIV SWAP3 DUP4 ADD SWAP3 PUSH1 0x1 SUB MUL PUSH3 0xB01 JUMP JUMPDEST DUP1 ISZERO PUSH3 0xB79 JUMPI DUP3 DUP2 PUSH2 0x100 EXP DUP2 SLOAD SWAP1 PUSH4 0xFFFFFFFF MUL NOT AND SWAP1 SSTORE PUSH1 0x4 ADD PUSH1 0x20 DUP2 PUSH1 0x3 ADD DIV SWAP3 DUP4 ADD SWAP3 PUSH1 0x1 SUB MUL PUSH3 0xB47 JUMP JUMPDEST POP POP PUSH3 0xAC7 SWAP3 SWAP2 POP JUMPDEST JUMPDEST DUP1 DUP3 GT ISZERO PUSH3 0xAC7 JUMPI PUSH1 0x0 DUP2 SSTORE PUSH1 0x1 ADD PUSH3 0xB84 JUMP JUMPDEST PUSH1 0x0 DUP2 PUSH1 0x0 NOT DIV DUP4 GT DUP3 ISZERO ISZERO AND ISZERO PUSH3 0xBC3 JUMPI PUSH4 0x4E487B71 PUSH1 0xE0 SHL PUSH1 0x0 MSTORE PUSH1 0x11 PUSH1 0x4 MSTORE PUSH1 0x24 PUSH1 0x0 REVERT JUMPDEST POP MUL SWAP1 JUMP JUMPDEST PUSH1 0x0 DUP3 PUSH3 0xBE6 JUMPI PUSH4 0x4E487B71 PUSH1 0xE0 SHL PUSH1 0x0 MSTORE PUSH1 0x12 PUSH1 0x4 MSTORE PUSH1 0x24 PUSH1 0x0 REVERT JUMPDEST POP DIV SWAP1 JUMP JUMPDEST PUSH1 0x1 DUP2 DUP2 SHR SWAP1 DUP3 AND DUP1 PUSH3 0xC00 JUMPI PUSH1 0x7F DUP3 AND SWAP2 POP JUMPDEST PUSH1 0x20 DUP3 LT DUP2 EQ ISZERO PUSH3 0xC22 JUMPI PUSH4 0x4E487B71 PUSH1 0xE0 SHL PUSH1 0x0 MSTORE PUSH1 0x22 PUSH1 0x4 MSTORE PUSH1 0x24 PUSH1 0x0 REVERT JUMPDEST POP SWAP2 SWAP1 POP JUMP JUMPDEST PUSH1 0x0 DUP1 DUP4 SLOAD DUP2 PUSH1 0x1 DUP3 DUP2 SHR SWAP2 POP DUP1 DUP4 AND DUP1 PUSH3 0xC45 JUMPI PUSH1 0x7F DUP4 AND SWAP3 POP JUMPDEST PUSH1 0x20 DUP1 DUP5 LT DUP3 EQ ISZERO PUSH3 0xC66 JUMPI PUSH4 0x4E487B71 PUSH1 0xE0 SHL DUP7 MSTORE PUSH1 0x22 PUSH1 0x4 MSTORE PUSH1 0x24 DUP7 REVERT JUMPDEST DUP2 DUP1 ISZERO PUSH3 0xC7D JUMPI PUSH1 0x1 DUP2 EQ PUSH3 0xC8F JUMPI PUSH3 0xCBE JUMP JUMPDEST PUSH1 0xFF NOT DUP7 AND DUP10 MSTORE DUP5 DUP10 ADD SWAP7 POP PUSH3 0xCBE JUMP JUMPDEST PUSH1 0x0 DUP11 DUP2 MSTORE PUSH1 0x20 SWAP1 KECCAK256 PUSH1 0x0 JUMPDEST DUP7 DUP2 LT ISZERO PUSH3 0xCB6 JUMPI DUP2 SLOAD DUP12 DUP3 ADD MSTORE SWAP1 DUP6 ADD SWAP1 DUP4 ADD PUSH3 0xC9B JUMP JUMPDEST POP POP DUP5 DUP10 ADD SWAP7 POP JUMPDEST POP POP POP POP POP POP PUSH3 0xCDE DUP2 PUSH9 0x3DB4B23E973539B7B7 PUSH1 0xB9 SHL DUP2 MSTORE PUSH1 0x9 ADD SWAP1 JUMP JUMPDEST SWAP5 SWAP4 POP POP POP POP JUMP JUMPDEST PUSH2 0x5C6A DUP1 PUSH3 0xCF6 PUSH1 0x0 CODECOPY PUSH1 0x0 RETURN INVALID PUSH1 0x80 PUSH1 0x40 MSTORE PUSH1 0x4 CALLDATASIZE LT PUSH2 0x28B JUMPI PUSH1 0x0 CALLDATALOAD PUSH1 0xE0 SHR DUP1 PUSH4 0x91D14854 GT PUSH2 0x15A JUMPI DUP1 PUSH4 0xCA15C873 GT PUSH2 0xC1 JUMPI DUP1 PUSH4 0xE985E9C5 GT PUSH2 0x7A JUMPI DUP1 PUSH4 0xE985E9C5 EQ PUSH2 0x7E5 JUMPI DUP1 PUSH4 0xECA01093 EQ PUSH2 0x82E JUMPI DUP1 PUSH4 0xF242432A EQ PUSH2 0x84E JUMPI DUP1 PUSH4 0xF3E6EA8A EQ PUSH2 0x86E JUMPI DUP1 PUSH4 0xF5298ACA EQ PUSH2 0x881 JUMPI DUP1 PUSH4 0xF6524724 EQ PUSH2 0x8A1 JUMPI PUSH1 0x0 DUP1 REVERT JUMPDEST DUP1 PUSH4 0xCA15C873 EQ PUSH2 0x748 JUMPI DUP1 PUSH4 0xD01350BD EQ PUSH2 0x768 JUMPI DUP1 PUSH4 0xD391014B EQ PUSH2 0x788 JUMPI DUP1 PUSH4 0xD547741F EQ PUSH2 0x79D JUMPI DUP1 PUSH4 0xD5D60737 EQ PUSH2 0x7BD JUMPI DUP1 PUSH4 0xDF465A1A EQ PUSH2 0x7D0 JUMPI PUSH1 0x0 DUP1 REVERT JUMPDEST DUP1 PUSH4 0xB5D11E99 GT PUSH2 0x113 JUMPI DUP1 PUSH4 0xB5D11E99 EQ PUSH2 0x67B JUMPI DUP1 PUSH4 0xB771E425 EQ PUSH2 0x690 JUMPI DUP1 PUSH4 0xBBADC03B EQ PUSH2 0x6C6 JUMPI DUP1 PUSH4 0xBD85B039 EQ PUSH2 0x6F3 JUMPI DUP1 PUSH4 0xC09C923B EQ PUSH2 0x720 JUMPI DUP1 PUSH4 0xC790985A EQ PUSH2 0x728 JUMPI PUSH1 0x0 DUP1 REVERT JUMPDEST DUP1 PUSH4 0x91D14854 EQ PUSH2 0x5BE JUMPI DUP1 PUSH4 0x95D89B41 EQ PUSH2 0x5DE JUMPI DUP1 PUSH4 0x9BC731FC EQ PUSH2 0x5F3 JUMPI DUP1 PUSH4 0xA22CB465 EQ PUSH2 0x613 JUMPI DUP1 PUSH4 0xA60C6E55 EQ PUSH2 0x633 JUMPI DUP1 PUSH4 0xA7FD40BF EQ PUSH2 0x65B JUMPI PUSH1 0x0 DUP1 REVERT JUMPDEST DUP1 PUSH4 0x36568ABE GT PUSH2 0x1FE JUMPI DUP1 PUSH4 0x6B20C454 GT PUSH2 0x1B7 JUMPI DUP1 PUSH4 0x6B20C454 EQ PUSH2 0x4FE JUMPI DUP1 PUSH4 0x74FCF071 EQ PUSH2 0x51E JUMPI DUP1 PUSH4 0x7B4B233C EQ PUSH2 0x53E JUMPI DUP1 PUSH4 0x806801B2 EQ PUSH2 0x55E JUMPI DUP1 PUSH4 0x9010D07C EQ PUSH2 0x57E JUMPI DUP1 PUSH4 0x9162EBF0 EQ PUSH2 0x59E JUMPI PUSH1 0x0 DUP1 REVERT JUMPDEST DUP1 PUSH4 0x36568ABE EQ PUSH2 0x42F JUMPI DUP1 PUSH4 0x3935AC11 EQ PUSH2 0x44F JUMPI DUP1 PUSH4 0x43FEFAD4 EQ PUSH2 0x46F JUMPI DUP1 PUSH4 0x48B08D62 EQ PUSH2 0x482 JUMPI DUP1 PUSH4 0x4E1273F4 EQ PUSH2 0x4A2 JUMPI DUP1 PUSH4 0x4F558E79 EQ PUSH2 0x4CF JUMPI PUSH1 0x0 DUP1 REVERT JUMPDEST DUP1 PUSH4 0xE89341C GT PUSH2 0x250 JUMPI DUP1 PUSH4 0xE89341C EQ PUSH2 0x376 JUMPI DUP1 PUSH4 0x18160DDD EQ PUSH2 0x396 JUMPI DUP1 PUSH4 0x248A9CA3 EQ PUSH2 0x3AB JUMPI DUP1 PUSH4 0x2EB2C2D6 EQ PUSH2 0x3DB JUMPI DUP1 PUSH4 0x2F2FF15D EQ PUSH2 0x3FB JUMPI DUP1 PUSH4 0x313CE567 EQ PUSH2 0x41B JUMPI PUSH1 0x0 DUP1 REVERT JUMPDEST DUP1 PUSH3 0xFDD58E EQ PUSH2 0x297 JUMPI DUP1 PUSH4 0x1FFC9A7 EQ PUSH2 0x2CA JUMPI DUP1 PUSH4 0x3ED957F EQ PUSH2 0x2FA JUMPI DUP1 PUSH4 0x6FB1A07 EQ PUSH2 0x31C JUMPI DUP1 PUSH4 0x6FDDE03 EQ PUSH2 0x354 JUMPI PUSH1 0x0 DUP1 REVERT JUMPDEST CALLDATASIZE PUSH2 0x292 JUMPI STOP JUMPDEST PUSH1 0x0 DUP1 REVERT JUMPDEST CALLVALUE DUP1 ISZERO PUSH2 0x2A3 JUMPI PUSH1 0x0 DUP1 REVERT JUMPDEST POP PUSH2 0x2B7 PUSH2 0x2B2 CALLDATASIZE PUSH1 0x4 PUSH2 0x4C66 JUMP JUMPDEST PUSH2 0x8B4 JUMP JUMPDEST PUSH1 0x40 MLOAD SWAP1 DUP2 MSTORE PUSH1 0x20 ADD JUMPDEST PUSH1 0x40 MLOAD DUP1 SWAP2 SUB SWAP1 RETURN JUMPDEST CALLVALUE DUP1 ISZERO PUSH2 0x2D6 JUMPI PUSH1 0x0 DUP1 REVERT JUMPDEST POP PUSH2 0x2EA PUSH2 0x2E5 CALLDATASIZE PUSH1 0x4 PUSH2 0x4CA8 JUMP JUMPDEST PUSH2 0x94E JUMP JUMPDEST PUSH1 0x40 MLOAD SWAP1 ISZERO ISZERO DUP2 MSTORE PUSH1 0x20 ADD PUSH2 0x2C1 JUMP JUMPDEST CALLVALUE DUP1 ISZERO PUSH2 0x306 JUMPI PUSH1 0x0 DUP1 REVERT JUMPDEST POP PUSH2 0x31A PUSH2 0x315 CALLDATASIZE PUSH1 0x4 PUSH2 0x4CC5 JUMP JUMPDEST PUSH2 0x98E JUMP JUMPDEST STOP JUMPDEST CALLVALUE DUP1 ISZERO PUSH2 0x328 JUMPI PUSH1 0x0 DUP1 REVERT JUMPDEST POP PUSH2 0x33C PUSH2 0x337 CALLDATASIZE PUSH1 0x4 PUSH2 0x4D39 JUMP JUMPDEST PUSH2 0xA0B JUMP JUMPDEST PUSH1 0x40 MLOAD PUSH1 0x1 PUSH1 0x1 PUSH1 0xA0 SHL SUB SWAP1 SWAP2 AND DUP2 MSTORE PUSH1 0x20 ADD PUSH2 0x2C1 JUMP JUMPDEST CALLVALUE DUP1 ISZERO PUSH2 0x360 JUMPI PUSH1 0x0 DUP1 REVERT JUMPDEST POP PUSH2 0x369 PUSH2 0xA82 JUMP JUMPDEST PUSH1 0x40 MLOAD PUSH2 0x2C1 SWAP2 SWAP1 PUSH2 0x4DAA JUMP JUMPDEST CALLVALUE DUP1 ISZERO PUSH2 0x382 JUMPI PUSH1 0x0 DUP1 REVERT JUMPDEST POP PUSH2 0x369 PUSH2 0x391 CALLDATASIZE PUSH1 0x4 PUSH2 0x4D39 JUMP JUMPDEST PUSH2 0xB14 JUMP JUMPDEST CALLVALUE DUP1 ISZERO PUSH2 0x3A2 JUMPI PUSH1 0x0 DUP1 REVERT JUMPDEST POP PUSH2 0x2B7 PUSH2 0xB40 JUMP JUMPDEST CALLVALUE DUP1 ISZERO PUSH2 0x3B7 JUMPI PUSH1 0x0 DUP1 REVERT JUMPDEST POP PUSH2 0x2B7 PUSH2 0x3C6 CALLDATASIZE PUSH1 0x4 PUSH2 0x4D39 JUMP JUMPDEST PUSH1 0x0 SWAP1 DUP2 MSTORE PUSH1 0x4 PUSH1 0x20 MSTORE PUSH1 0x40 SWAP1 KECCAK256 PUSH1 0x1 ADD SLOAD SWAP1 JUMP JUMPDEST CALLVALUE DUP1 ISZERO PUSH2 0x3E7 JUMPI PUSH1 0x0 DUP1 REVERT JUMPDEST POP PUSH2 0x31A PUSH2 0x3F6 CALLDATASIZE PUSH1 0x4 PUSH2 0x4F06 JUMP JUMPDEST PUSH2 0xB8C JUMP JUMPDEST CALLVALUE DUP1 ISZERO PUSH2 0x407 JUMPI PUSH1 0x0 DUP1 REVERT JUMPDEST POP PUSH2 0x31A PUSH2 0x416 CALLDATASIZE PUSH1 0x4 PUSH2 0x4FB3 JUMP JUMPDEST PUSH2 0xC2E JUMP JUMPDEST CALLVALUE DUP1 ISZERO PUSH2 0x427 JUMPI PUSH1 0x0 DUP1 REVERT JUMPDEST POP PUSH1 0x12 PUSH2 0x2B7 JUMP JUMPDEST CALLVALUE DUP1 ISZERO PUSH2 0x43B JUMPI PUSH1 0x0 DUP1 REVERT JUMPDEST POP PUSH2 0x31A PUSH2 0x44A CALLDATASIZE PUSH1 0x4 PUSH2 0x4FB3 JUMP JUMPDEST PUSH2 0xC59 JUMP JUMPDEST CALLVALUE DUP1 ISZERO PUSH2 0x45B JUMPI PUSH1 0x0 DUP1 REVERT JUMPDEST POP PUSH2 0x31A PUSH2 0x46A CALLDATASIZE PUSH1 0x4 PUSH2 0x4FE3 JUMP JUMPDEST PUSH2 0xCD7 JUMP JUMPDEST PUSH2 0x31A PUSH2 0x47D CALLDATASIZE PUSH1 0x4 PUSH2 0x5046 JUMP JUMPDEST PUSH2 0xD0A JUMP JUMPDEST CALLVALUE DUP1 ISZERO PUSH2 0x48E JUMPI PUSH1 0x0 DUP1 REVERT JUMPDEST POP PUSH2 0x2B7 PUSH2 0x49D CALLDATASIZE PUSH1 0x4 PUSH2 0x5090 JUMP JUMPDEST PUSH2 0x12A5 JUMP JUMPDEST CALLVALUE DUP1 ISZERO PUSH2 0x4AE JUMPI PUSH1 0x0 DUP1 REVERT JUMPDEST POP PUSH2 0x4C2 PUSH2 0x4BD CALLDATASIZE PUSH1 0x4 PUSH2 0x50D1 JUMP JUMPDEST PUSH2 0x1377 JUMP JUMPDEST PUSH1 0x40 MLOAD PUSH2 0x2C1 SWAP2 SWAP1 PUSH2 0x51CE JUMP JUMPDEST CALLVALUE DUP1 ISZERO PUSH2 0x4DB JUMPI PUSH1 0x0 DUP1 REVERT JUMPDEST POP PUSH2 0x2EA PUSH2 0x4EA CALLDATASIZE PUSH1 0x4 PUSH2 0x4D39 JUMP JUMPDEST PUSH1 0x0 SWAP1 DUP2 MSTORE PUSH1 0x3 PUSH1 0x20 MSTORE PUSH1 0x40 SWAP1 KECCAK256 SLOAD ISZERO ISZERO SWAP1 JUMP JUMPDEST CALLVALUE DUP1 ISZERO PUSH2 0x50A JUMPI PUSH1 0x0 DUP1 REVERT JUMPDEST POP PUSH2 0x31A PUSH2 0x519 CALLDATASIZE PUSH1 0x4 PUSH2 0x51E1 JUMP JUMPDEST PUSH2 0x14A0 JUMP JUMPDEST CALLVALUE DUP1 ISZERO PUSH2 0x52A JUMPI PUSH1 0x0 DUP1 REVERT JUMPDEST POP PUSH2 0x31A PUSH2 0x539 CALLDATASIZE PUSH1 0x4 PUSH2 0x5046 JUMP JUMPDEST PUSH2 0x1525 JUMP JUMPDEST CALLVALUE DUP1 ISZERO PUSH2 0x54A JUMPI PUSH1 0x0 DUP1 REVERT JUMPDEST POP PUSH1 0x2F SLOAD PUSH2 0x33C SWAP1 PUSH1 0x1 PUSH1 0x1 PUSH1 0xA0 SHL SUB AND DUP2 JUMP JUMPDEST CALLVALUE DUP1 ISZERO PUSH2 0x56A JUMPI PUSH1 0x0 DUP1 REVERT JUMPDEST POP PUSH2 0x31A PUSH2 0x579 CALLDATASIZE PUSH1 0x4 PUSH2 0x5256 JUMP JUMPDEST PUSH2 0x15B5 JUMP JUMPDEST CALLVALUE DUP1 ISZERO PUSH2 0x58A JUMPI PUSH1 0x0 DUP1 REVERT JUMPDEST POP PUSH2 0x33C PUSH2 0x599 CALLDATASIZE PUSH1 0x4 PUSH2 0x52AB JUMP JUMPDEST PUSH2 0x1668 JUMP JUMPDEST CALLVALUE DUP1 ISZERO PUSH2 0x5AA JUMPI PUSH1 0x0 DUP1 REVERT JUMPDEST POP PUSH2 0x2B7 PUSH2 0x5B9 CALLDATASIZE PUSH1 0x4 PUSH2 0x52CD JUMP JUMPDEST PUSH2 0x1680 JUMP JUMPDEST CALLVALUE DUP1 ISZERO PUSH2 0x5CA JUMPI PUSH1 0x0 DUP1 REVERT JUMPDEST POP PUSH2 0x2EA PUSH2 0x5D9 CALLDATASIZE PUSH1 0x4 PUSH2 0x4FB3 JUMP JUMPDEST PUSH2 0x16A2 JUMP JUMPDEST CALLVALUE DUP1 ISZERO PUSH2 0x5EA JUMPI PUSH1 0x0 DUP1 REVERT JUMPDEST POP PUSH2 0x369 PUSH2 0x16CD JUMP JUMPDEST CALLVALUE DUP1 ISZERO PUSH2 0x5FF JUMPI PUSH1 0x0 DUP1 REVERT JUMPDEST POP PUSH2 0x31A PUSH2 0x60E CALLDATASIZE PUSH1 0x4 PUSH2 0x52CD JUMP JUMPDEST PUSH2 0x16DC JUMP JUMPDEST CALLVALUE DUP1 ISZERO PUSH2 0x61F JUMPI PUSH1 0x0 DUP1 REVERT JUMPDEST POP PUSH2 0x31A PUSH2 0x62E CALLDATASIZE PUSH1 0x4 PUSH2 0x52F8 JUMP JUMPDEST PUSH2 0x18A8 JUMP JUMPDEST PUSH2 0x646 PUSH2 0x641 CALLDATASIZE PUSH1 0x4 PUSH2 0x5326 JUMP JUMPDEST PUSH2 0x18B3 JUMP JUMPDEST PUSH1 0x40 DUP1 MLOAD SWAP3 DUP4 MSTORE PUSH1 0x20 DUP4 ADD SWAP2 SWAP1 SWAP2 MSTORE ADD PUSH2 0x2C1 JUMP JUMPDEST CALLVALUE DUP1 ISZERO PUSH2 0x667 JUMPI PUSH1 0x0 DUP1 REVERT JUMPDEST POP PUSH2 0x31A PUSH2 0x676 CALLDATASIZE PUSH1 0x4 PUSH2 0x537F JUMP JUMPDEST PUSH2 0x1ABF JUMP JUMPDEST CALLVALUE DUP1 ISZERO PUSH2 0x687 JUMPI PUSH1 0x0 DUP1 REVERT JUMPDEST POP PUSH2 0x31A PUSH2 0x1B06 JUMP JUMPDEST CALLVALUE DUP1 ISZERO PUSH2 0x69C JUMPI PUSH1 0x0 DUP1 REVERT JUMPDEST POP PUSH2 0x2B7 PUSH2 0x6AB CALLDATASIZE PUSH1 0x4 PUSH2 0x52CD JUMP JUMPDEST PUSH1 0x1 PUSH1 0x1 PUSH1 0xA0 SHL SUB AND PUSH1 0x0 SWAP1 DUP2 MSTORE PUSH1 0x23 PUSH1 0x20 MSTORE PUSH1 0x40 SWAP1 KECCAK256 SLOAD SWAP1 JUMP JUMPDEST CALLVALUE DUP1 ISZERO PUSH2 0x6D2 JUMPI PUSH1 0x0 DUP1 REVERT JUMPDEST POP PUSH2 0x6E6 PUSH2 0x6E1 CALLDATASIZE PUSH1 0x4 PUSH2 0x52CD JUMP JUMPDEST PUSH2 0x1B56 JUMP JUMPDEST PUSH1 0x40 MLOAD PUSH2 0x2C1 SWAP2 SWAP1 PUSH2 0x53B3 JUMP JUMPDEST CALLVALUE DUP1 ISZERO PUSH2 0x6FF JUMPI PUSH1 0x0 DUP1 REVERT JUMPDEST POP PUSH2 0x2B7 PUSH2 0x70E CALLDATASIZE PUSH1 0x4 PUSH2 0x4D39 JUMP JUMPDEST PUSH1 0x0 SWAP1 DUP2 MSTORE PUSH1 0x3 PUSH1 0x20 MSTORE PUSH1 0x40 SWAP1 KECCAK256 SLOAD SWAP1 JUMP JUMPDEST PUSH2 0x31A PUSH2 0x1C54 JUMP JUMPDEST CALLVALUE DUP1 ISZERO PUSH2 0x734 JUMPI PUSH1 0x0 DUP1 REVERT JUMPDEST POP PUSH2 0x2B7 PUSH2 0x743 CALLDATASIZE PUSH1 0x4 PUSH2 0x5090 JUMP JUMPDEST PUSH2 0x1C7D JUMP JUMPDEST CALLVALUE DUP1 ISZERO PUSH2 0x754 JUMPI PUSH1 0x0 DUP1 REVERT JUMPDEST POP PUSH2 0x2B7 PUSH2 0x763 CALLDATASIZE PUSH1 0x4 PUSH2 0x4D39 JUMP JUMPDEST PUSH2 0x1D3D JUMP JUMPDEST CALLVALUE DUP1 ISZERO PUSH2 0x774 JUMPI PUSH1 0x0 DUP1 REVERT JUMPDEST POP PUSH2 0x6E6 PUSH2 0x783 CALLDATASIZE PUSH1 0x4 PUSH2 0x4D39 JUMP JUMPDEST PUSH2 0x1D54 JUMP JUMPDEST CALLVALUE DUP1 ISZERO PUSH2 0x794 JUMPI PUSH1 0x0 DUP1 REVERT JUMPDEST POP PUSH2 0x2B7 PUSH1 0x0 DUP2 JUMP JUMPDEST CALLVALUE DUP1 ISZERO PUSH2 0x7A9 JUMPI PUSH1 0x0 DUP1 REVERT JUMPDEST POP PUSH2 0x31A PUSH2 0x7B8 CALLDATASIZE PUSH1 0x4 PUSH2 0x4FB3 JUMP JUMPDEST PUSH2 0x1D6F JUMP JUMPDEST PUSH2 0x31A PUSH2 0x7CB CALLDATASIZE PUSH1 0x4 PUSH2 0x5046 JUMP JUMPDEST PUSH2 0x1D95 JUMP JUMPDEST CALLVALUE DUP1 ISZERO PUSH2 0x7DC JUMPI PUSH1 0x0 DUP1 REVERT JUMPDEST POP PUSH1 0x24 SLOAD PUSH2 0x2B7 JUMP JUMPDEST CALLVALUE DUP1 ISZERO PUSH2 0x7F1 JUMPI PUSH1 0x0 DUP1 REVERT JUMPDEST POP PUSH2 0x2EA PUSH2 0x800 CALLDATASIZE PUSH1 0x4 PUSH2 0x5430 JUMP JUMPDEST PUSH1 0x1 PUSH1 0x1 PUSH1 0xA0 SHL SUB SWAP2 DUP3 AND PUSH1 0x0 SWAP1 DUP2 MSTORE PUSH1 0x1 PUSH1 0x20 SWAP1 DUP2 MSTORE PUSH1 0x40 DUP1 DUP4 KECCAK256 SWAP4 SWAP1 SWAP5 AND DUP3 MSTORE SWAP2 SWAP1 SWAP2 MSTORE KECCAK256 SLOAD PUSH1 0xFF AND SWAP1 JUMP JUMPDEST CALLVALUE DUP1 ISZERO PUSH2 0x83A JUMPI PUSH1 0x0 DUP1 REVERT JUMPDEST POP PUSH2 0x31A PUSH2 0x849 CALLDATASIZE PUSH1 0x4 PUSH2 0x545E JUMP JUMPDEST PUSH2 0x208A JUMP JUMPDEST CALLVALUE DUP1 ISZERO PUSH2 0x85A JUMPI PUSH1 0x0 DUP1 REVERT JUMPDEST POP PUSH2 0x31A PUSH2 0x869 CALLDATASIZE PUSH1 0x4 PUSH2 0x54CF JUMP JUMPDEST PUSH2 0x20DC JUMP JUMPDEST PUSH2 0x31A PUSH2 0x87C CALLDATASIZE PUSH1 0x4 PUSH2 0x5046 JUMP JUMPDEST PUSH2 0x20E9 JUMP JUMPDEST CALLVALUE DUP1 ISZERO PUSH2 0x88D JUMPI PUSH1 0x0 DUP1 REVERT JUMPDEST POP PUSH2 0x31A PUSH2 0x89C CALLDATASIZE PUSH1 0x4 PUSH2 0x5537 JUMP JUMPDEST PUSH2 0x20F5 JUMP JUMPDEST PUSH2 0x646 PUSH2 0x8AF CALLDATASIZE PUSH1 0x4 PUSH2 0x5326 JUMP JUMPDEST PUSH2 0x2100 JUMP JUMPDEST PUSH1 0x0 PUSH1 0x1 PUSH1 0x1 PUSH1 0xA0 SHL SUB DUP4 AND PUSH2 0x925 JUMPI PUSH1 0x40 MLOAD PUSH3 0x461BCD PUSH1 0xE5 SHL DUP2 MSTORE PUSH1 0x20 PUSH1 0x4 DUP3 ADD MSTORE PUSH1 0x2B PUSH1 0x24 DUP3 ADD MSTORE PUSH32 0x455243313135353A2062616C616E636520717565727920666F7220746865207A PUSH1 0x44 DUP3 ADD MSTORE PUSH11 0x65726F2061646472657373 PUSH1 0xA8 SHL PUSH1 0x64 DUP3 ADD MSTORE PUSH1 0x84 ADD JUMPDEST PUSH1 0x40 MLOAD DUP1 SWAP2 SUB SWAP1 REVERT JUMPDEST POP PUSH1 0x0 DUP2 DUP2 MSTORE PUSH1 0x20 DUP2 DUP2 MSTORE PUSH1 0x40 DUP1 DUP4 KECCAK256 PUSH1 0x1 PUSH1 0x1 PUSH1 0xA0 SHL SUB DUP7 AND DUP5 MSTORE SWAP1 SWAP2 MSTORE SWAP1 KECCAK256 SLOAD JUMPDEST SWAP3 SWAP2 POP POP JUMP JUMPDEST PUSH1 0x0 PUSH1 0x1 PUSH1 0x1 PUSH1 0xE0 SHL SUB NOT DUP3 AND PUSH4 0x6CDB3D13 PUSH1 0xE1 SHL EQ DUP1 PUSH2 0x97F JUMPI POP PUSH1 0x1 PUSH1 0x1 PUSH1 0xE0 SHL SUB NOT DUP3 AND PUSH4 0x3A24D07 PUSH1 0xE2 SHL EQ JUMPDEST DUP1 PUSH2 0x948 JUMPI POP PUSH2 0x948 DUP3 PUSH2 0x23F3 JUMP JUMPDEST PUSH1 0x0 PUSH2 0x99A DUP2 CALLER PUSH2 0x2428 JUMP JUMPDEST PUSH1 0x0 JUMPDEST DUP3 DUP2 LT ISZERO PUSH2 0xA05 JUMPI PUSH2 0x9F3 DUP5 DUP5 DUP4 DUP2 DUP2 LT PUSH2 0x9BA JUMPI PUSH2 0x9BA PUSH2 0x556C JUMP JUMPDEST SWAP1 POP PUSH1 0x40 MUL ADD PUSH1 0x0 ADD CALLDATALOAD DUP6 DUP6 DUP5 DUP2 DUP2 LT PUSH2 0x9D6 JUMPI PUSH2 0x9D6 PUSH2 0x556C JUMP JUMPDEST SWAP1 POP PUSH1 0x40 MUL ADD PUSH1 0x20 ADD PUSH1 0x20 DUP2 ADD SWAP1 PUSH2 0x9EE SWAP2 SWAP1 PUSH2 0x52CD JUMP JUMPDEST PUSH2 0x248C JUMP JUMPDEST DUP1 PUSH2 0x9FD DUP2 PUSH2 0x5598 JUMP JUMPDEST SWAP2 POP POP PUSH2 0x99D JUMP JUMPDEST POP POP POP POP JUMP JUMPDEST PUSH1 0x40 MLOAD PUSH4 0x6FB1A07 PUSH1 0xE0 SHL DUP2 MSTORE PUSH1 0x4 DUP2 ADD DUP3 SWAP1 MSTORE PUSH1 0x0 SWAP1 PUSH20 0xDEF1FAC7BF08F173D286BBBDCBEEADE695129840 SWAP1 PUSH4 0x6FB1A07 SWAP1 PUSH1 0x24 ADD PUSH1 0x20 PUSH1 0x40 MLOAD DUP1 DUP4 SUB DUP2 DUP7 GAS STATICCALL ISZERO DUP1 ISZERO PUSH2 0xA5E JUMPI RETURNDATASIZE PUSH1 0x0 DUP1 RETURNDATACOPY RETURNDATASIZE PUSH1 0x0 REVERT JUMPDEST POP POP POP POP PUSH1 0x40 MLOAD RETURNDATASIZE PUSH1 0x1F NOT PUSH1 0x1F DUP3 ADD AND DUP3 ADD DUP1 PUSH1 0x40 MSTORE POP DUP2 ADD SWAP1 PUSH2 0x948 SWAP2 SWAP1 PUSH2 0x55B3 JUMP JUMPDEST PUSH1 0x60 PUSH1 0x6 DUP1 SLOAD PUSH2 0xA91 SWAP1 PUSH2 0x55D0 JUMP JUMPDEST DUP1 PUSH1 0x1F ADD PUSH1 0x20 DUP1 SWAP2 DIV MUL PUSH1 0x20 ADD PUSH1 0x40 MLOAD SWAP1 DUP2 ADD PUSH1 0x40 MSTORE DUP1 SWAP3 SWAP2 SWAP1 DUP2 DUP2 MSTORE PUSH1 0x20 ADD DUP3 DUP1 SLOAD PUSH2 0xABD SWAP1 PUSH2 0x55D0 JUMP JUMPDEST DUP1 ISZERO PUSH2 0xB0A JUMPI DUP1 PUSH1 0x1F LT PUSH2 0xADF JUMPI PUSH2 0x100 DUP1 DUP4 SLOAD DIV MUL DUP4 MSTORE SWAP2 PUSH1 0x20 ADD SWAP2 PUSH2 0xB0A JUMP JUMPDEST DUP3 ADD SWAP2 SWAP1 PUSH1 0x0 MSTORE PUSH1 0x20 PUSH1 0x0 KECCAK256 SWAP1 JUMPDEST DUP2 SLOAD DUP2 MSTORE SWAP1 PUSH1 0x1 ADD SWAP1 PUSH1 0x20 ADD DUP1 DUP4 GT PUSH2 0xAED JUMPI DUP3 SWAP1 SUB PUSH1 0x1F AND DUP3 ADD SWAP2 JUMPDEST POP POP POP POP POP SWAP1 POP SWAP1 JUMP JUMPDEST PUSH1 0x60 PUSH1 0x8 DUP3 PUSH1 0x40 MLOAD PUSH1 0x20 ADD PUSH2 0xB2A SWAP3 SWAP2 SWAP1 PUSH2 0x5605 JUMP JUMPDEST PUSH1 0x40 MLOAD PUSH1 0x20 DUP2 DUP4 SUB SUB DUP2 MSTORE SWAP1 PUSH1 0x40 MSTORE SWAP1 POP SWAP2 SWAP1 POP JUMP JUMPDEST PUSH1 0x0 DUP1 PUSH1 0x0 JUMPDEST PUSH1 0x0 PUSH1 0x3 DUP2 PUSH2 0xB54 DUP6 PUSH2 0x5598 JUMP JUMPDEST SWAP5 POP DUP5 DUP2 MSTORE PUSH1 0x20 ADD SWAP1 DUP2 MSTORE PUSH1 0x20 ADD PUSH1 0x0 KECCAK256 SLOAD GT ISZERO PUSH2 0x948 JUMPI PUSH1 0x0 DUP3 DUP2 MSTORE PUSH1 0x3 PUSH1 0x20 MSTORE PUSH1 0x40 SWAP1 KECCAK256 SLOAD PUSH2 0xB85 SWAP1 DUP3 PUSH2 0x568A JUMP JUMPDEST SWAP1 POP PUSH2 0xB46 JUMP JUMPDEST PUSH1 0x1 PUSH1 0x1 PUSH1 0xA0 SHL SUB DUP6 AND CALLER EQ DUP1 PUSH2 0xBA8 JUMPI POP PUSH2 0xBA8 DUP6 CALLER PUSH2 0x800 JUMP JUMPDEST PUSH2 0xC0F JUMPI PUSH1 0x40 MLOAD PUSH3 0x461BCD PUSH1 0xE5 SHL DUP2 MSTORE PUSH1 0x20 PUSH1 0x4 DUP3 ADD MSTORE PUSH1 0x32 PUSH1 0x24 DUP3 ADD MSTORE PUSH32 0x455243313135353A207472616E736665722063616C6C6572206973206E6F7420 PUSH1 0x44 DUP3 ADD MSTORE PUSH18 0x1BDDDB995C881B9BDC88185C1C1C9BDD9959 PUSH1 0x72 SHL PUSH1 0x64 DUP3 ADD MSTORE PUSH1 0x84 ADD PUSH2 0x91C JUMP JUMPDEST PUSH2 0xC1A ADDRESS DUP7 DUP7 PUSH2 0x2496 JUMP JUMPDEST PUSH2 0xC27 DUP6 DUP6 DUP6 DUP6 DUP6 PUSH2 0x2630 JUMP JUMPDEST POP POP POP POP POP JUMP JUMPDEST PUSH1 0x0 DUP3 DUP2 MSTORE PUSH1 0x4 PUSH1 0x20 MSTORE PUSH1 0x40 SWAP1 KECCAK256 PUSH1 0x1 ADD SLOAD PUSH2 0xC4A DUP2 CALLER PUSH2 0x2428 JUMP JUMPDEST PUSH2 0xC54 DUP4 DUP4 PUSH2 0x27D2 JUMP JUMPDEST POP POP POP JUMP JUMPDEST PUSH1 0x1 PUSH1 0x1 PUSH1 0xA0 SHL SUB DUP2 AND CALLER EQ PUSH2 0xCC9 JUMPI PUSH1 0x40 MLOAD PUSH3 0x461BCD PUSH1 0xE5 SHL DUP2 MSTORE PUSH1 0x20 PUSH1 0x4 DUP3 ADD MSTORE PUSH1 0x2F PUSH1 0x24 DUP3 ADD MSTORE PUSH32 0x416363657373436F6E74726F6C3A2063616E206F6E6C792072656E6F756E6365 PUSH1 0x44 DUP3 ADD MSTORE PUSH15 0x103937B632B9903337B91039B2B633 PUSH1 0x89 SHL PUSH1 0x64 DUP3 ADD MSTORE PUSH1 0x84 ADD PUSH2 0x91C JUMP JUMPDEST PUSH2 0xCD3 DUP3 DUP3 PUSH2 0x27F4 JUMP JUMPDEST POP POP JUMP JUMPDEST PUSH1 0x0 PUSH2 0xCE3 DUP2 CALLER PUSH2 0x2428 JUMP JUMPDEST DUP3 MLOAD PUSH2 0xCF6 SWAP1 PUSH1 0x6 SWAP1 PUSH1 0x20 DUP7 ADD SWAP1 PUSH2 0x4AC5 JUMP JUMPDEST POP DUP2 MLOAD PUSH2 0xA05 SWAP1 PUSH1 0x7 SWAP1 PUSH1 0x20 DUP6 ADD SWAP1 PUSH2 0x4AC5 JUMP JUMPDEST PUSH1 0x1 PUSH1 0x1 PUSH1 0xA0 SHL SUB DUP5 AND PUSH1 0x0 SWAP1 DUP2 MSTORE PUSH1 0x23 PUSH1 0x20 MSTORE PUSH1 0x40 SWAP1 KECCAK256 SLOAD DUP5 SWAP1 ISZERO DUP1 ISZERO SWAP1 PUSH2 0xD41 JUMPI POP PUSH1 0x26 SLOAD PUSH1 0x1 PUSH1 0x1 PUSH1 0xA0 SHL SUB DUP3 DUP2 AND SWAP2 AND EQ ISZERO JUMPDEST PUSH1 0xB SWAP1 PUSH2 0xD61 JUMPI PUSH1 0x40 MLOAD PUSH3 0x461BCD PUSH1 0xE5 SHL DUP2 MSTORE PUSH1 0x4 ADD PUSH2 0x91C SWAP2 SWAP1 PUSH2 0x56A2 JUMP JUMPDEST POP DUP3 PUSH1 0xC TIMESTAMP DUP3 LT ISZERO PUSH2 0xD86 JUMPI PUSH1 0x40 MLOAD PUSH3 0x461BCD PUSH1 0xE5 SHL DUP2 MSTORE PUSH1 0x4 ADD PUSH2 0x91C SWAP2 SWAP1 PUSH2 0x56A2 JUMP JUMPDEST POP PUSH1 0x1 PUSH1 0x1 PUSH1 0xA0 SHL SUB DUP7 AND PUSH1 0x0 SWAP1 DUP2 MSTORE PUSH1 0x23 PUSH1 0x20 MSTORE PUSH1 0x40 SWAP1 KECCAK256 SLOAD PUSH2 0xDAB DUP8 CALLER DUP9 PUSH2 0x2816 JUMP JUMPDEST PUSH1 0x0 PUSH2 0xDB6 DUP9 PUSH2 0x28CD JUMP JUMPDEST SWAP1 POP PUSH1 0x22 DUP3 DUP2 SLOAD DUP2 LT PUSH2 0xDCB JUMPI PUSH2 0xDCB PUSH2 0x556C JUMP JUMPDEST PUSH1 0x0 SWAP2 DUP3 MSTORE PUSH1 0x20 SWAP1 SWAP2 KECCAK256 PUSH1 0x2 PUSH1 0x4 SWAP1 SWAP3 MUL ADD ADD SLOAD PUSH2 0xDF2 SWAP1 PUSH1 0x1 PUSH1 0x1 PUSH1 0x80 SHL SUB AND DUP3 PUSH2 0x5727 JUMP JUMPDEST SWAP7 POP PUSH1 0xE DUP8 PUSH2 0xE14 JUMPI PUSH1 0x40 MLOAD PUSH3 0x461BCD PUSH1 0xE5 SHL DUP2 MSTORE PUSH1 0x4 ADD PUSH2 0x91C SWAP2 SWAP1 PUSH2 0x56A2 JUMP JUMPDEST POP PUSH1 0x26 SLOAD PUSH1 0x0 SWAP1 PUSH2 0xE2D SWAP1 PUSH1 0x1 PUSH1 0x1 PUSH1 0xA0 SHL SUB AND PUSH2 0x28CD JUMP JUMPDEST SWAP1 POP PUSH1 0x0 PUSH1 0x24 SLOAD DUP3 PUSH2 0xE3F SWAP2 SWAP1 PUSH2 0x5727 JUMP JUMPDEST SWAP1 POP PUSH1 0x0 PUSH2 0xEC6 PUSH1 0x22 DUP7 DUP2 SLOAD DUP2 LT PUSH2 0xE59 JUMPI PUSH2 0xE59 PUSH2 0x556C JUMP JUMPDEST SWAP1 PUSH1 0x0 MSTORE PUSH1 0x20 PUSH1 0x0 KECCAK256 SWAP1 PUSH1 0x4 MUL ADD PUSH1 0x2 ADD PUSH1 0x10 SWAP1 SLOAD SWAP1 PUSH2 0x100 EXP SWAP1 DIV PUSH1 0x1 PUSH1 0x1 PUSH1 0x80 SHL SUB AND PUSH1 0x1 PUSH1 0x1 PUSH1 0x80 SHL SUB AND PUSH1 0x22 DUP8 DUP2 SLOAD DUP2 LT PUSH2 0xE9A JUMPI PUSH2 0xE9A PUSH2 0x556C JUMP JUMPDEST PUSH1 0x0 SWAP2 DUP3 MSTORE PUSH1 0x20 SWAP1 SWAP2 KECCAK256 PUSH1 0x2 PUSH1 0x4 SWAP1 SWAP3 MUL ADD ADD SLOAD PUSH2 0xEC1 SWAP2 SWAP1 PUSH1 0x1 PUSH1 0x1 PUSH1 0x80 SHL SUB AND PUSH2 0x573E JUMP JUMPDEST PUSH2 0x2955 JUMP JUMPDEST SWAP1 POP PUSH1 0x0 PUSH2 0xF14 PUSH1 0x22 DUP8 DUP2 SLOAD DUP2 LT PUSH2 0xEE0 JUMPI PUSH2 0xEE0 PUSH2 0x556C JUMP JUMPDEST PUSH1 0x0 SWAP2 DUP3 MSTORE PUSH1 0x20 DUP1 DUP4 KECCAK256 PUSH1 0x3 PUSH1 0x4 SWAP1 SWAP4 MUL ADD DUP3 ADD SLOAD DUP11 DUP5 MSTORE SWAP2 SWAP1 MSTORE PUSH1 0x40 SWAP1 SWAP2 KECCAK256 SLOAD PUSH1 0x1 PUSH1 0x1 PUSH1 0x80 SHL SUB SWAP1 SWAP2 AND SWAP1 DUP5 SWAP1 PUSH2 0x29AE JUMP JUMPDEST SWAP1 POP DUP1 ISZERO PUSH2 0xF45 JUMPI PUSH1 0x2F SLOAD PUSH1 0x40 DUP1 MLOAD PUSH1 0x20 DUP2 ADD SWAP1 SWAP2 MSTORE PUSH1 0x0 DUP2 MSTORE PUSH2 0xF45 SWAP2 PUSH1 0x1 PUSH1 0x1 PUSH1 0xA0 SHL SUB AND SWAP1 DUP9 SWAP1 DUP5 SWAP1 PUSH2 0x2A25 JUMP JUMPDEST POP POP PUSH1 0x0 PUSH1 0x22 DUP6 DUP2 SLOAD DUP2 LT PUSH2 0xF5C JUMPI PUSH2 0xF5C PUSH2 0x556C JUMP JUMPDEST PUSH1 0x0 SWAP2 DUP3 MSTORE PUSH1 0x20 DUP1 DUP4 KECCAK256 PUSH1 0x2 PUSH1 0x4 SWAP1 SWAP4 MUL ADD SWAP2 SWAP1 SWAP2 ADD SLOAD DUP8 DUP4 MSTORE PUSH1 0x3 SWAP1 SWAP2 MSTORE PUSH1 0x40 SWAP1 SWAP2 KECCAK256 SLOAD PUSH1 0x1 PUSH1 0x1 PUSH1 0x80 SHL SUB SWAP1 SWAP2 AND SWAP1 PUSH2 0xF97 SWAP1 DUP13 PUSH2 0x573E JUMP JUMPDEST PUSH2 0xFA1 SWAP2 SWAP1 PUSH2 0x5773 JUMP JUMPDEST SWAP1 POP PUSH2 0xFBE DUP9 DUP7 DUP4 PUSH1 0x40 MLOAD DUP1 PUSH1 0x20 ADD PUSH1 0x40 MSTORE DUP1 PUSH1 0x0 DUP2 MSTORE POP PUSH2 0x2A25 JUMP JUMPDEST PUSH1 0x0 PUSH1 0x22 DUP7 DUP2 SLOAD DUP2 LT PUSH2 0xFD3 JUMPI PUSH2 0xFD3 PUSH2 0x556C JUMP JUMPDEST PUSH1 0x0 SWAP2 DUP3 MSTORE PUSH1 0x20 SWAP1 SWAP2 KECCAK256 PUSH1 0x2 PUSH1 0x4 SWAP1 SWAP3 MUL ADD ADD SLOAD PUSH1 0x22 DUP1 SLOAD PUSH1 0x1 PUSH1 0x1 PUSH1 0x80 SHL SUB SWAP1 SWAP3 AND SWAP2 DUP9 SWAP1 DUP2 LT PUSH2 0x1007 JUMPI PUSH2 0x1007 PUSH2 0x556C JUMP JUMPDEST PUSH1 0x0 SWAP2 DUP3 MSTORE PUSH1 0x20 SWAP1 SWAP2 KECCAK256 PUSH1 0x4 SWAP1 SWAP2 MUL ADD PUSH1 0x2 ADD SLOAD PUSH2 0x1035 SWAP1 PUSH1 0x1 PUSH1 0x80 SHL SWAP1 DIV PUSH1 0x1 PUSH1 0x1 PUSH1 0x80 SHL SUB AND DUP14 PUSH2 0x573E JUMP JUMPDEST PUSH2 0x103F SWAP2 SWAP1 PUSH2 0x5773 JUMP JUMPDEST SWAP1 POP PUSH1 0x1D DUP2 PUSH2 0x1061 JUMPI PUSH1 0x40 MLOAD PUSH3 0x461BCD PUSH1 0xE5 SHL DUP2 MSTORE PUSH1 0x4 ADD PUSH2 0x91C SWAP2 SWAP1 PUSH2 0x56A2 JUMP JUMPDEST POP PUSH1 0x26 SLOAD PUSH1 0x40 MLOAD PUSH4 0xBB9FF5D PUSH1 0xE0 SHL DUP2 MSTORE ADDRESS PUSH1 0x4 DUP3 ADD MSTORE PUSH1 0x24 DUP2 ADD DUP4 SWAP1 MSTORE PUSH1 0x1 PUSH1 0x1 PUSH1 0xA0 SHL SUB SWAP1 SWAP2 AND SWAP1 PUSH4 0xBB9FF5D SWAP1 PUSH1 0x44 ADD PUSH1 0x0 PUSH1 0x40 MLOAD DUP1 DUP4 SUB DUP2 PUSH1 0x0 DUP8 DUP1 EXTCODESIZE ISZERO DUP1 ISZERO PUSH2 0x10AE JUMPI PUSH1 0x0 DUP1 REVERT JUMPDEST POP GAS CALL ISZERO DUP1 ISZERO PUSH2 0x10C2 JUMPI RETURNDATASIZE PUSH1 0x0 DUP1 RETURNDATACOPY RETURNDATASIZE PUSH1 0x0 REVERT JUMPDEST POP POP POP POP DUP1 DUP4 PUSH1 0x24 SLOAD PUSH2 0x10D5 SWAP2 SWAP1 PUSH2 0x568A JUMP JUMPDEST PUSH2 0x10DF SWAP2 SWAP1 PUSH2 0x568A JUMP JUMPDEST PUSH1 0x24 DUP2 SWAP1 SSTORE POP DUP11 PUSH1 0x22 DUP8 DUP2 SLOAD DUP2 LT PUSH2 0x10F9 JUMPI PUSH2 0x10F9 PUSH2 0x556C JUMP JUMPDEST PUSH1 0x0 SWAP2 DUP3 MSTORE PUSH1 0x20 SWAP1 SWAP2 KECCAK256 PUSH1 0x2 PUSH1 0x4 SWAP1 SWAP3 MUL ADD ADD SLOAD PUSH2 0x1120 SWAP2 SWAP1 PUSH1 0x1 PUSH1 0x1 PUSH1 0x80 SHL SUB AND PUSH2 0x5787 JUMP JUMPDEST PUSH1 0x22 DUP8 DUP2 SLOAD DUP2 LT PUSH2 0x1133 JUMPI PUSH2 0x1133 PUSH2 0x556C JUMP JUMPDEST PUSH1 0x0 SWAP2 DUP3 MSTORE PUSH1 0x20 SWAP1 SWAP2 KECCAK256 PUSH1 0x4 SWAP1 SWAP2 MUL ADD PUSH1 0x2 ADD DUP1 SLOAD PUSH1 0x1 PUSH1 0x1 PUSH1 0x80 SHL SUB NOT AND PUSH1 0x1 PUSH1 0x1 PUSH1 0x80 SHL SUB SWAP3 SWAP1 SWAP3 AND SWAP2 SWAP1 SWAP2 OR SWAP1 SSTORE PUSH2 0x116E DUP2 DUP5 PUSH2 0x568A JUMP JUMPDEST PUSH1 0x22 DUP8 DUP2 SLOAD DUP2 LT PUSH2 0x1181 JUMPI PUSH2 0x1181 PUSH2 0x556C JUMP JUMPDEST SWAP1 PUSH1 0x0 MSTORE PUSH1 0x20 PUSH1 0x0 KECCAK256 SWAP1 PUSH1 0x4 MUL ADD PUSH1 0x2 ADD PUSH1 0x10 SWAP1 SLOAD SWAP1 PUSH2 0x100 EXP SWAP1 DIV PUSH1 0x1 PUSH1 0x1 PUSH1 0x80 SHL SUB AND PUSH2 0x11B0 SWAP2 SWAP1 PUSH2 0x5787 JUMP JUMPDEST PUSH1 0x22 DUP8 DUP2 SLOAD DUP2 LT PUSH2 0x11C3 JUMPI PUSH2 0x11C3 PUSH2 0x556C JUMP JUMPDEST SWAP1 PUSH1 0x0 MSTORE PUSH1 0x20 PUSH1 0x0 KECCAK256 SWAP1 PUSH1 0x4 MUL ADD PUSH1 0x2 ADD PUSH1 0x10 PUSH2 0x100 EXP DUP2 SLOAD DUP2 PUSH1 0x1 PUSH1 0x1 PUSH1 0x80 SHL SUB MUL NOT AND SWAP1 DUP4 PUSH1 0x1 PUSH1 0x1 PUSH1 0x80 SHL SUB AND MUL OR SWAP1 SSTORE POP PUSH2 0x124F PUSH1 0x22 DUP8 DUP2 SLOAD DUP2 LT PUSH2 0x120E JUMPI PUSH2 0x120E PUSH2 0x556C JUMP JUMPDEST SWAP1 PUSH1 0x0 MSTORE PUSH1 0x20 PUSH1 0x0 KECCAK256 SWAP1 PUSH1 0x4 MUL ADD PUSH1 0x2 ADD PUSH1 0x10 SWAP1 SLOAD SWAP1 PUSH2 0x100 EXP SWAP1 DIV PUSH1 0x1 PUSH1 0x1 PUSH1 0x80 SHL SUB AND PUSH1 0x1 PUSH1 0x1 PUSH1 0x80 SHL SUB AND PUSH1 0x22 DUP9 DUP2 SLOAD DUP2 LT PUSH2 0xE9A JUMPI PUSH2 0xE9A PUSH2 0x556C JUMP JUMPDEST PUSH1 0x22 DUP8 DUP2 SLOAD DUP2 LT PUSH2 0x1262 JUMPI PUSH2 0x1262 PUSH2 0x556C JUMP JUMPDEST SWAP1 PUSH1 0x0 MSTORE PUSH1 0x20 PUSH1 0x0 KECCAK256 SWAP1 PUSH1 0x4 MUL ADD PUSH1 0x3 ADD PUSH1 0x0 PUSH2 0x100 EXP DUP2 SLOAD DUP2 PUSH1 0x1 PUSH1 0x1 PUSH1 0x80 SHL SUB MUL NOT AND SWAP1 DUP4 PUSH1 0x1 PUSH1 0x1 PUSH1 0x80 SHL SUB AND MUL OR SWAP1 SSTORE POP POP POP POP POP POP POP POP POP POP POP POP POP JUMP JUMPDEST PUSH1 0x26 SLOAD PUSH1 0x0 SWAP1 PUSH1 0x1 PUSH1 0x1 PUSH1 0xA0 SHL SUB DUP6 DUP2 AND SWAP2 AND EQ DUP1 ISZERO SWAP1 PUSH2 0x12D3 JUMPI POP PUSH1 0x26 SLOAD PUSH1 0x1 PUSH1 0x1 PUSH1 0xA0 SHL SUB DUP5 DUP2 AND SWAP2 AND EQ JUMPDEST ISZERO PUSH2 0x12E9 JUMPI PUSH2 0x12E2 DUP5 DUP4 PUSH2 0x2B35 JUMP JUMPDEST SWAP1 POP PUSH2 0x1370 JUMP JUMPDEST PUSH1 0x26 SLOAD PUSH1 0x1 PUSH1 0x1 PUSH1 0xA0 SHL SUB DUP6 DUP2 AND SWAP2 AND EQ DUP1 ISZERO PUSH2 0x1314 JUMPI POP PUSH1 0x26 SLOAD PUSH1 0x1 PUSH1 0x1 PUSH1 0xA0 SHL SUB DUP5 DUP2 AND SWAP2 AND EQ ISZERO JUMPDEST ISZERO PUSH2 0x1323 JUMPI PUSH2 0x12E2 DUP4 DUP4 PUSH2 0x2C31 JUMP JUMPDEST PUSH1 0x26 SLOAD PUSH1 0x1 PUSH1 0x1 PUSH1 0xA0 SHL SUB DUP6 DUP2 AND SWAP2 AND EQ DUP1 ISZERO SWAP1 PUSH2 0x134F JUMPI POP PUSH1 0x26 SLOAD PUSH1 0x1 PUSH1 0x1 PUSH1 0xA0 SHL SUB DUP6 DUP2 AND SWAP2 AND EQ ISZERO JUMPDEST ISZERO PUSH2 0x1370 JUMPI PUSH1 0x0 PUSH2 0x1360 DUP6 DUP5 PUSH2 0x2B35 JUMP JUMPDEST SWAP1 POP PUSH2 0x136C DUP5 DUP3 PUSH2 0x2C31 JUMP JUMPDEST SWAP2 POP POP JUMPDEST SWAP4 SWAP3 POP POP POP JUMP JUMPDEST PUSH1 0x60 DUP2 MLOAD DUP4 MLOAD EQ PUSH2 0x13DC JUMPI PUSH1 0x40 MLOAD PUSH3 0x461BCD PUSH1 0xE5 SHL DUP2 MSTORE PUSH1 0x20 PUSH1 0x4 DUP3 ADD MSTORE PUSH1 0x29 PUSH1 0x24 DUP3 ADD MSTORE PUSH32 0x455243313135353A206163636F756E747320616E6420696473206C656E677468 PUSH1 0x44 DUP3 ADD MSTORE PUSH9 0x40DAD2E6DAC2E8C6D PUSH1 0xBB SHL PUSH1 0x64 DUP3 ADD MSTORE PUSH1 0x84 ADD PUSH2 0x91C JUMP JUMPDEST PUSH1 0x0 DUP4 MLOAD PUSH1 0x1 PUSH1 0x1 PUSH1 0x40 SHL SUB DUP2 GT ISZERO PUSH2 0x13F7 JUMPI PUSH2 0x13F7 PUSH2 0x4DBD JUMP JUMPDEST PUSH1 0x40 MLOAD SWAP1 DUP1 DUP3 MSTORE DUP1 PUSH1 0x20 MUL PUSH1 0x20 ADD DUP3 ADD PUSH1 0x40 MSTORE DUP1 ISZERO PUSH2 0x1420 JUMPI DUP2 PUSH1 0x20 ADD PUSH1 0x20 DUP3 MUL DUP1 CALLDATASIZE DUP4 CALLDATACOPY ADD SWAP1 POP JUMPDEST POP SWAP1 POP PUSH1 0x0 JUMPDEST DUP5 MLOAD DUP2 LT ISZERO PUSH2 0x1498 JUMPI PUSH2 0x146B DUP6 DUP3 DUP2 MLOAD DUP2 LT PUSH2 0x1444 JUMPI PUSH2 0x1444 PUSH2 0x556C JUMP JUMPDEST PUSH1 0x20 MUL PUSH1 0x20 ADD ADD MLOAD DUP6 DUP4 DUP2 MLOAD DUP2 LT PUSH2 0x145E JUMPI PUSH2 0x145E PUSH2 0x556C JUMP JUMPDEST PUSH1 0x20 MUL PUSH1 0x20 ADD ADD MLOAD PUSH2 0x8B4 JUMP JUMPDEST DUP3 DUP3 DUP2 MLOAD DUP2 LT PUSH2 0x147D JUMPI PUSH2 0x147D PUSH2 0x556C JUMP JUMPDEST PUSH1 0x20 SWAP1 DUP2 MUL SWAP2 SWAP1 SWAP2 ADD ADD MSTORE PUSH2 0x1491 DUP2 PUSH2 0x5598 JUMP JUMPDEST SWAP1 POP PUSH2 0x1426 JUMP JUMPDEST POP SWAP4 SWAP3 POP POP POP JUMP JUMPDEST PUSH1 0x1 PUSH1 0x1 PUSH1 0xA0 SHL SUB DUP4 AND CALLER EQ DUP1 PUSH2 0x14BC JUMPI POP PUSH2 0x14BC DUP4 CALLER PUSH2 0x800 JUMP JUMPDEST PUSH2 0x151A JUMPI PUSH1 0x40 MLOAD PUSH3 0x461BCD PUSH1 0xE5 SHL DUP2 MSTORE PUSH1 0x20 PUSH1 0x4 DUP3 ADD MSTORE PUSH1 0x29 PUSH1 0x24 DUP3 ADD MSTORE PUSH32 0x455243313135353A2063616C6C6572206973206E6F74206F776E6572206E6F72 PUSH1 0x44 DUP3 ADD MSTORE PUSH9 0x8185C1C1C9BDD9959 PUSH1 0xBA SHL PUSH1 0x64 DUP3 ADD MSTORE PUSH1 0x84 ADD PUSH2 0x91C JUMP JUMPDEST PUSH2 0xC54 DUP4 DUP4 DUP4 PUSH2 0x2D23 JUMP JUMPDEST PUSH1 0x1 PUSH1 0x1 PUSH1 0xA0 SHL SUB DUP5 AND PUSH1 0x0 SWAP1 DUP2 MSTORE PUSH1 0x23 PUSH1 0x20 MSTORE PUSH1 0x40 SWAP1 KECCAK256 SLOAD DUP5 SWAP1 ISZERO DUP1 ISZERO SWAP1 PUSH2 0x155C JUMPI POP PUSH1 0x26 SLOAD PUSH1 0x1 PUSH1 0x1 PUSH1 0xA0 SHL SUB DUP3 DUP2 AND SWAP2 AND EQ ISZERO JUMPDEST PUSH1 0xB SWAP1 PUSH2 0x157C JUMPI PUSH1 0x40 MLOAD PUSH3 0x461BCD PUSH1 0xE5 SHL DUP2 MSTORE PUSH1 0x4 ADD PUSH2 0x91C SWAP2 SWAP1 PUSH2 0x56A2 JUMP JUMPDEST POP DUP3 PUSH1 0xC TIMESTAMP DUP3 LT ISZERO PUSH2 0x15A1 JUMPI PUSH1 0x40 MLOAD PUSH3 0x461BCD PUSH1 0xE5 SHL DUP2 MSTORE PUSH1 0x4 ADD PUSH2 0x91C SWAP2 SWAP1 PUSH2 0x56A2 JUMP JUMPDEST POP PUSH2 0x15AD DUP7 DUP7 DUP6 PUSH2 0x2EB1 JUMP JUMPDEST POP POP POP POP POP POP JUMP JUMPDEST PUSH1 0x0 PUSH2 0x15C1 DUP2 CALLER PUSH2 0x2428 JUMP JUMPDEST PUSH1 0x2B SLOAD PUSH1 0x0 LT DUP1 ISZERO PUSH2 0x15D6 JUMPI POP PUSH1 0x2C SLOAD PUSH1 0x2B SLOAD LT JUMPDEST DUP1 ISZERO PUSH2 0x15E5 JUMPI POP PUSH2 0x1F4 PUSH1 0x2C SLOAD LT JUMPDEST PUSH1 0x20 SWAP1 PUSH2 0x1605 JUMPI PUSH1 0x40 MLOAD PUSH3 0x461BCD PUSH1 0xE5 SHL DUP2 MSTORE PUSH1 0x4 ADD PUSH2 0x91C SWAP2 SWAP1 PUSH2 0x56A2 JUMP JUMPDEST POP PUSH1 0x2E SLOAD PUSH1 0x2D SLOAD PUSH1 0x21 SWAP2 GT PUSH2 0x162D JUMPI PUSH1 0x40 MLOAD PUSH3 0x461BCD PUSH1 0xE5 SHL DUP2 MSTORE PUSH1 0x4 ADD PUSH2 0x91C SWAP2 SWAP1 PUSH2 0x56A2 JUMP JUMPDEST POP POP PUSH1 0x2B SWAP6 SWAP1 SWAP6 SSTORE PUSH1 0x2C SWAP4 SWAP1 SWAP4 SSTORE PUSH1 0x2D SWAP2 SWAP1 SWAP2 SSTORE PUSH1 0x2E SSTORE PUSH1 0x2A SSTORE PUSH1 0x2F DUP1 SLOAD PUSH1 0x1 PUSH1 0x1 PUSH1 0xA0 SHL SUB NOT AND PUSH1 0x1 PUSH1 0x1 PUSH1 0xA0 SHL SUB SWAP1 SWAP3 AND SWAP2 SWAP1 SWAP2 OR SWAP1 SSTORE JUMP JUMPDEST PUSH1 0x0 DUP3 DUP2 MSTORE PUSH1 0x5 PUSH1 0x20 MSTORE PUSH1 0x40 DUP2 KECCAK256 PUSH2 0x1370 SWAP1 DUP4 PUSH2 0x3359 JUMP JUMPDEST PUSH1 0x1 PUSH1 0x1 PUSH1 0xA0 SHL SUB DUP2 AND PUSH1 0x0 SWAP1 DUP2 MSTORE PUSH1 0x23 PUSH1 0x20 MSTORE PUSH1 0x40 DUP2 KECCAK256 SLOAD PUSH2 0x948 SWAP1 PUSH2 0x3365 JUMP JUMPDEST PUSH1 0x0 SWAP2 DUP3 MSTORE PUSH1 0x4 PUSH1 0x20 SWAP1 DUP2 MSTORE PUSH1 0x40 DUP1 DUP5 KECCAK256 PUSH1 0x1 PUSH1 0x1 PUSH1 0xA0 SHL SUB SWAP4 SWAP1 SWAP4 AND DUP5 MSTORE SWAP2 SWAP1 MSTORE SWAP1 KECCAK256 SLOAD PUSH1 0xFF AND SWAP1 JUMP JUMPDEST PUSH1 0x60 PUSH1 0x7 DUP1 SLOAD PUSH2 0xA91 SWAP1 PUSH2 0x55D0 JUMP JUMPDEST PUSH1 0x1 PUSH1 0x1 PUSH1 0xA0 SHL SUB DUP2 AND PUSH1 0x0 SWAP1 DUP2 MSTORE PUSH1 0x23 PUSH1 0x20 MSTORE PUSH1 0x40 SWAP1 KECCAK256 SLOAD DUP2 SWAP1 ISZERO DUP1 ISZERO SWAP1 PUSH2 0x1713 JUMPI POP PUSH1 0x26 SLOAD PUSH1 0x1 PUSH1 0x1 PUSH1 0xA0 SHL SUB DUP3 DUP2 AND SWAP2 AND EQ ISZERO JUMPDEST PUSH1 0xB SWAP1 PUSH2 0x1733 JUMPI PUSH1 0x40 MLOAD PUSH3 0x461BCD PUSH1 0xE5 SHL DUP2 MSTORE PUSH1 0x4 ADD PUSH2 0x91C SWAP2 SWAP1 PUSH2 0x56A2 JUMP JUMPDEST POP PUSH1 0x1 PUSH1 0x1 PUSH1 0xA0 SHL SUB DUP3 AND PUSH1 0x0 SWAP1 DUP2 MSTORE PUSH1 0x23 PUSH1 0x20 MSTORE PUSH1 0x40 SWAP1 KECCAK256 SLOAD PUSH2 0x1756 DUP4 PUSH2 0x28CD JUMP JUMPDEST PUSH1 0x22 DUP3 DUP2 SLOAD DUP2 LT PUSH2 0x1769 JUMPI PUSH2 0x1769 PUSH2 0x556C JUMP JUMPDEST PUSH1 0x0 SWAP2 DUP3 MSTORE PUSH1 0x20 DUP3 KECCAK256 PUSH1 0x4 SWAP2 SWAP1 SWAP2 MUL ADD PUSH1 0x2 ADD DUP1 SLOAD PUSH1 0x1 PUSH1 0x1 PUSH1 0x80 SHL SUB NOT AND PUSH1 0x1 PUSH1 0x1 PUSH1 0x80 SHL SUB SWAP4 SWAP1 SWAP4 AND SWAP3 SWAP1 SWAP3 OR SWAP1 SWAP2 SSTORE PUSH1 0x26 SLOAD PUSH2 0x17B0 SWAP1 PUSH1 0x1 PUSH1 0x1 PUSH1 0xA0 SHL SUB AND PUSH2 0x28CD JUMP JUMPDEST SWAP1 POP PUSH1 0x24 SLOAD DUP2 GT PUSH2 0x1810 JUMPI DUP1 PUSH1 0x24 SLOAD PUSH2 0x17C9 SWAP2 SWAP1 PUSH2 0x5727 JUMP JUMPDEST PUSH1 0x22 DUP4 DUP2 SLOAD DUP2 LT PUSH2 0x17DC JUMPI PUSH2 0x17DC PUSH2 0x556C JUMP JUMPDEST SWAP1 PUSH1 0x0 MSTORE PUSH1 0x20 PUSH1 0x0 KECCAK256 SWAP1 PUSH1 0x4 MUL ADD PUSH1 0x2 ADD PUSH1 0x10 SWAP1 SLOAD SWAP1 PUSH2 0x100 EXP SWAP1 DIV PUSH1 0x1 PUSH1 0x1 PUSH1 0x80 SHL SUB AND PUSH2 0x180B SWAP2 SWAP1 PUSH2 0x57B2 JUMP JUMPDEST PUSH2 0x185F JUMP JUMPDEST PUSH1 0x24 SLOAD PUSH2 0x181D SWAP1 DUP3 PUSH2 0x5727 JUMP JUMPDEST PUSH1 0x22 DUP4 DUP2 SLOAD DUP2 LT PUSH2 0x1830 JUMPI PUSH2 0x1830 PUSH2 0x556C JUMP JUMPDEST SWAP1 PUSH1 0x0 MSTORE PUSH1 0x20 PUSH1 0x0 KECCAK256 SWAP1 PUSH1 0x4 MUL ADD PUSH1 0x2 ADD PUSH1 0x10 SWAP1 SLOAD SWAP1 PUSH2 0x100 EXP SWAP1 DIV PUSH1 0x1 PUSH1 0x1 PUSH1 0x80 SHL SUB AND PUSH2 0x185F SWAP2 SWAP1 PUSH2 0x5787 JUMP JUMPDEST PUSH1 0x22 DUP4 DUP2 SLOAD DUP2 LT PUSH2 0x1872 JUMPI PUSH2 0x1872 PUSH2 0x556C JUMP JUMPDEST PUSH1 0x0 SWAP2 DUP3 MSTORE PUSH1 0x20 SWAP1 SWAP2 KECCAK256 PUSH1 0x2 PUSH1 0x4 SWAP1 SWAP3 MUL ADD ADD DUP1 SLOAD PUSH1 0x1 PUSH1 0x1 PUSH1 0x80 SHL SUB SWAP3 DUP4 AND PUSH1 0x1 PUSH1 0x80 SHL MUL SWAP3 AND SWAP2 SWAP1 SWAP2 OR SWAP1 SSTORE PUSH1 0x24 SSTORE POP POP POP JUMP JUMPDEST PUSH2 0xCD3 CALLER DUP4 DUP4 PUSH2 0x357C JUMP JUMPDEST PUSH1 0x0 DUP1 DUP4 PUSH1 0xC TIMESTAMP DUP3 LT ISZERO PUSH2 0x18DA JUMPI PUSH1 0x40 MLOAD PUSH3 0x461BCD PUSH1 0xE5 SHL DUP2 MSTORE PUSH1 0x4 ADD PUSH2 0x91C SWAP2 SWAP1 PUSH2 0x56A2 JUMP JUMPDEST POP PUSH1 0xE PUSH1 0x1 DUP9 GT PUSH2 0x18FE JUMPI PUSH1 0x40 MLOAD PUSH3 0x461BCD PUSH1 0xE5 SHL DUP2 MSTORE PUSH1 0x4 ADD PUSH2 0x91C SWAP2 SWAP1 PUSH2 0x56A2 JUMP JUMPDEST POP PUSH1 0x26 SLOAD CALLER SWAP1 PUSH1 0x0 SWAP1 PUSH1 0x1 PUSH1 0x1 PUSH1 0xA0 SHL SUB DUP13 DUP2 AND SWAP2 AND EQ DUP1 ISZERO SWAP1 PUSH2 0x192F JUMPI POP PUSH1 0x26 SLOAD PUSH1 0x1 PUSH1 0x1 PUSH1 0xA0 SHL SUB DUP12 DUP2 AND SWAP2 AND EQ JUMPDEST ISZERO PUSH2 0x1981 JUMPI PUSH2 0x193E DUP12 DUP11 PUSH2 0x2B35 JUMP JUMPDEST SWAP1 POP PUSH1 0x10 DUP9 DUP3 LT ISZERO PUSH2 0x1963 JUMPI PUSH1 0x40 MLOAD PUSH3 0x461BCD PUSH1 0xE5 SHL DUP2 MSTORE PUSH1 0x4 ADD PUSH2 0x91C SWAP2 SWAP1 PUSH2 0x56A2 JUMP JUMPDEST POP PUSH2 0x196F DUP12 DUP4 DUP12 PUSH2 0x2816 JUMP JUMPDEST PUSH2 0x197C DUP12 PUSH1 0x0 DUP4 DUP10 PUSH2 0x365D JUMP JUMPDEST PUSH2 0x1AAE JUMP JUMPDEST PUSH1 0x26 SLOAD PUSH1 0x1 PUSH1 0x1 PUSH1 0xA0 SHL SUB DUP13 DUP2 AND SWAP2 AND EQ DUP1 ISZERO PUSH2 0x19AC JUMPI POP PUSH1 0x26 SLOAD PUSH1 0x1 PUSH1 0x1 PUSH1 0xA0 SHL SUB DUP12 DUP2 AND SWAP2 AND EQ ISZERO JUMPDEST ISZERO PUSH2 0x19F9 JUMPI PUSH2 0x19BB DUP11 DUP11 PUSH2 0x2C31 JUMP JUMPDEST SWAP1 POP PUSH1 0x11 DUP9 DUP3 LT ISZERO PUSH2 0x19E0 JUMPI PUSH1 0x40 MLOAD PUSH3 0x461BCD PUSH1 0xE5 SHL DUP2 MSTORE PUSH1 0x4 ADD PUSH2 0x91C SWAP2 SWAP1 PUSH2 0x56A2 JUMP JUMPDEST POP PUSH2 0x19EC DUP12 DUP4 DUP12 PUSH2 0x2816 JUMP JUMPDEST PUSH2 0x197C DUP11 DUP3 PUSH1 0x0 DUP10 PUSH2 0x365D JUMP JUMPDEST PUSH1 0x26 SLOAD PUSH1 0x1 PUSH1 0x1 PUSH1 0xA0 SHL SUB DUP13 DUP2 AND SWAP2 AND EQ DUP1 ISZERO SWAP1 PUSH2 0x1A25 JUMPI POP PUSH1 0x26 SLOAD PUSH1 0x1 PUSH1 0x1 PUSH1 0xA0 SHL SUB DUP13 DUP2 AND SWAP2 AND EQ ISZERO JUMPDEST ISZERO PUSH2 0x1A93 JUMPI PUSH1 0x0 PUSH2 0x1A36 DUP13 DUP12 PUSH2 0x2B35 JUMP JUMPDEST SWAP1 POP PUSH2 0x1A42 DUP12 DUP3 PUSH2 0x2C31 JUMP JUMPDEST SWAP2 POP PUSH1 0x11 DUP10 DUP4 LT ISZERO PUSH2 0x1A67 JUMPI PUSH1 0x40 MLOAD PUSH3 0x461BCD PUSH1 0xE5 SHL DUP2 MSTORE PUSH1 0x4 ADD PUSH2 0x91C SWAP2 SWAP1 PUSH2 0x56A2 JUMP JUMPDEST POP PUSH2 0x1A73 DUP13 DUP5 DUP13 PUSH2 0x2816 JUMP JUMPDEST PUSH2 0x1A80 DUP13 PUSH1 0x0 DUP4 ADDRESS PUSH2 0x365D JUMP JUMPDEST PUSH2 0x1A8D DUP12 DUP4 PUSH1 0x0 DUP11 PUSH2 0x365D JUMP JUMPDEST POP PUSH2 0x1AAE JUMP JUMPDEST PUSH1 0x40 MLOAD PUSH3 0x461BCD PUSH1 0xE5 SHL DUP2 MSTORE PUSH2 0x91C SWAP1 PUSH1 0x14 SWAP1 PUSH1 0x4 ADD PUSH2 0x56A2 JUMP JUMPDEST SWAP8 SWAP11 SWAP8 SWAP10 POP SWAP7 SWAP8 POP POP POP POP POP POP POP POP JUMP JUMPDEST PUSH1 0x0 PUSH2 0x1ACB DUP2 CALLER PUSH2 0x2428 JUMP JUMPDEST PUSH2 0x1AF3 DUP3 PUSH1 0x40 MLOAD PUSH1 0x20 ADD PUSH2 0x1ADF SWAP2 SWAP1 PUSH2 0x57DA JUMP JUMPDEST PUSH1 0x40 MLOAD PUSH1 0x20 DUP2 DUP4 SUB SUB DUP2 MSTORE SWAP1 PUSH1 0x40 MSTORE PUSH2 0x3BFC JUMP JUMPDEST DUP2 MLOAD PUSH2 0xC54 SWAP1 PUSH1 0x8 SWAP1 PUSH1 0x20 DUP6 ADD SWAP1 PUSH2 0x4AC5 JUMP JUMPDEST PUSH1 0x25 SLOAD PUSH2 0x1B32 SWAP1 PUSH1 0x1 PUSH1 0x1 PUSH1 0xA0 SHL SUB AND PUSH10 0xD3C21BCECCEDA1000000 PUSH10 0x69E10DE76676D0800000 CALLER PUSH2 0x1D95 JUMP JUMPDEST PUSH1 0x27 SLOAD PUSH2 0x1B54 SWAP1 PUSH1 0x1 PUSH1 0x1 PUSH1 0xA0 SHL SUB AND PUSH10 0x943B1377290CBD800000 DUP1 CALLER PUSH2 0x1D95 JUMP JUMPDEST JUMP JUMPDEST PUSH2 0x1B5E PUSH2 0x4B49 JUMP JUMPDEST PUSH1 0x1 PUSH1 0x1 PUSH1 0xA0 SHL SUB DUP3 AND PUSH1 0x0 SWAP1 DUP2 MSTORE PUSH1 0x23 PUSH1 0x20 MSTORE PUSH1 0x40 SWAP1 KECCAK256 SLOAD PUSH1 0x22 DUP1 SLOAD SWAP1 SWAP2 SWAP1 DUP2 LT PUSH2 0x1B8C JUMPI PUSH2 0x1B8C PUSH2 0x556C JUMP JUMPDEST PUSH1 0x0 SWAP2 DUP3 MSTORE PUSH1 0x20 SWAP2 DUP3 SWAP1 KECCAK256 PUSH1 0x40 DUP1 MLOAD PUSH1 0xA0 DUP2 ADD DUP3 MSTORE PUSH1 0x4 SWAP1 SWAP4 MUL SWAP1 SWAP2 ADD DUP1 SLOAD PUSH1 0x1 PUSH1 0x1 PUSH1 0xA0 SHL SUB AND DUP4 MSTORE DUP2 MLOAD PUSH2 0x100 DUP2 ADD SWAP1 SWAP3 MSTORE SWAP2 SWAP3 DUP4 ADD SWAP1 PUSH1 0x1 DUP4 ADD PUSH1 0x8 DUP3 DUP3 DUP3 PUSH1 0x20 MUL DUP3 ADD SWAP2 PUSH1 0x0 SWAP1 JUMPDEST DUP3 DUP3 SWAP1 SLOAD SWAP1 PUSH2 0x100 EXP SWAP1 DIV PUSH4 0xFFFFFFFF AND PUSH4 0xFFFFFFFF AND DUP2 MSTORE PUSH1 0x20 ADD SWAP1 PUSH1 0x4 ADD SWAP1 PUSH1 0x20 DUP3 PUSH1 0x3 ADD DIV SWAP3 DUP4 ADD SWAP3 PUSH1 0x1 SUB DUP3 MUL SWAP2 POP DUP1 DUP5 GT PUSH2 0x1BD8 JUMPI POP POP POP SWAP3 DUP5 MSTORE POP POP POP PUSH1 0x2 DUP3 ADD SLOAD PUSH1 0x1 PUSH1 0x1 PUSH1 0x80 SHL SUB DUP1 DUP3 AND PUSH1 0x20 DUP5 ADD MSTORE PUSH1 0x1 PUSH1 0x80 SHL SWAP1 SWAP2 DIV DUP2 AND PUSH1 0x40 DUP4 ADD MSTORE PUSH1 0x3 SWAP1 SWAP3 ADD SLOAD SWAP1 SWAP2 AND PUSH1 0x60 SWAP1 SWAP2 ADD MSTORE SWAP3 SWAP2 POP POP JUMP JUMPDEST PUSH1 0x29 SLOAD PUSH2 0x1B54 SWAP1 PUSH1 0x1 PUSH1 0x1 PUSH1 0xA0 SHL SUB AND PUSH7 0x38D7EA4C68000 PUSH10 0xD3C21BCECCEDA1000000 CALLER PUSH2 0x1D95 JUMP JUMPDEST PUSH1 0x26 SLOAD PUSH1 0x0 SWAP1 PUSH1 0x1 PUSH1 0x1 PUSH1 0xA0 SHL SUB DUP6 DUP2 AND SWAP2 AND EQ DUP1 ISZERO SWAP1 PUSH2 0x1CAB JUMPI POP PUSH1 0x26 SLOAD PUSH1 0x1 PUSH1 0x1 PUSH1 0xA0 SHL SUB DUP5 DUP2 AND SWAP2 AND EQ JUMPDEST ISZERO PUSH2 0x1CBA JUMPI PUSH2 0x12E2 DUP5 DUP4 PUSH2 0x3C0F JUMP JUMPDEST PUSH1 0x26 SLOAD PUSH1 0x1 PUSH1 0x1 PUSH1 0xA0 SHL SUB DUP6 DUP2 AND SWAP2 AND EQ DUP1 ISZERO PUSH2 0x1CE5 JUMPI POP PUSH1 0x26 SLOAD PUSH1 0x1 PUSH1 0x1 PUSH1 0xA0 SHL SUB DUP5 DUP2 AND SWAP2 AND EQ ISZERO JUMPDEST ISZERO PUSH2 0x1CF4 JUMPI PUSH2 0x12E2 DUP4 DUP4 PUSH2 0x3D00 JUMP JUMPDEST PUSH1 0x26 SLOAD PUSH1 0x1 PUSH1 0x1 PUSH1 0xA0 SHL SUB DUP6 DUP2 AND SWAP2 AND EQ DUP1 ISZERO SWAP1 PUSH2 0x1D20 JUMPI POP PUSH1 0x26 SLOAD PUSH1 0x1 PUSH1 0x1 PUSH1 0xA0 SHL SUB DUP5 DUP2 AND SWAP2 AND EQ ISZERO JUMPDEST ISZERO PUSH2 0x1370 JUMPI PUSH1 0x0 PUSH2 0x1D31 DUP5 DUP5 PUSH2 0x3D00 JUMP JUMPDEST SWAP1 POP PUSH2 0x136C DUP6 DUP3 PUSH2 0x3C0F JUMP JUMPDEST PUSH1 0x0 DUP2 DUP2 MSTORE PUSH1 0x5 PUSH1 0x20 MSTORE PUSH1 0x40 DUP2 KECCAK256 PUSH2 0x948 SWAP1 PUSH2 0x3DF2 JUMP JUMPDEST PUSH2 0x1D5C PUSH2 0x4B49 JUMP JUMPDEST PUSH1 0x22 DUP3 DUP2 SLOAD DUP2 LT PUSH2 0x1B8C JUMPI PUSH2 0x1B8C PUSH2 0x556C JUMP JUMPDEST PUSH1 0x0 DUP3 DUP2 MSTORE PUSH1 0x4 PUSH1 0x20 MSTORE PUSH1 0x40 SWAP1 KECCAK256 PUSH1 0x1 ADD SLOAD PUSH2 0x1D8B DUP2 CALLER PUSH2 0x2428 JUMP JUMPDEST PUSH2 0xC54 DUP4 DUP4 PUSH2 0x27F4 JUMP JUMPDEST PUSH1 0x1 PUSH1 0x1 PUSH1 0xA0 SHL SUB DUP5 AND PUSH1 0x0 SWAP1 DUP2 MSTORE PUSH1 0x23 PUSH1 0x20 MSTORE PUSH1 0x40 SWAP1 KECCAK256 SLOAD DUP5 SWAP1 ISZERO DUP1 ISZERO PUSH2 0x1DCB JUMPI POP PUSH1 0x26 SLOAD PUSH1 0x1 PUSH1 0x1 PUSH1 0xA0 SHL SUB DUP3 DUP2 AND SWAP2 AND EQ ISZERO JUMPDEST PUSH1 0xA SWAP1 PUSH2 0x1DEB JUMPI PUSH1 0x40 MLOAD PUSH3 0x461BCD PUSH1 0xE5 SHL DUP2 MSTORE PUSH1 0x4 ADD PUSH2 0x91C SWAP2 SWAP1 PUSH2 0x56A2 JUMP JUMPDEST POP PUSH1 0x22 SLOAD PUSH2 0x1DFA DUP7 CALLER DUP8 PUSH2 0x2816 JUMP JUMPDEST PUSH1 0x26 SLOAD PUSH1 0x40 MLOAD PUSH4 0xBB9FF5D PUSH1 0xE0 SHL DUP2 MSTORE ADDRESS PUSH1 0x4 DUP3 ADD MSTORE PUSH1 0x24 DUP2 ADD DUP7 SWAP1 MSTORE PUSH1 0x1 PUSH1 0x1 PUSH1 0xA0 SHL SUB SWAP1 SWAP2 AND SWAP1 PUSH4 0xBB9FF5D SWAP1 PUSH1 0x44 ADD PUSH1 0x0 PUSH1 0x40 MLOAD DUP1 DUP4 SUB DUP2 PUSH1 0x0 DUP8 DUP1 EXTCODESIZE ISZERO DUP1 ISZERO PUSH2 0x1E46 JUMPI PUSH1 0x0 DUP1 REVERT JUMPDEST POP GAS CALL ISZERO DUP1 ISZERO PUSH2 0x1E5A JUMPI RETURNDATASIZE PUSH1 0x0 DUP1 RETURNDATACOPY RETURNDATASIZE PUSH1 0x0 REVERT JUMPDEST POP POP POP POP PUSH2 0x1E67 DUP7 PUSH2 0x28CD JUMP JUMPDEST SWAP5 POP PUSH1 0xE DUP6 PUSH2 0x1E89 JUMPI PUSH1 0x40 MLOAD PUSH3 0x461BCD PUSH1 0xE5 SHL DUP2 MSTORE PUSH1 0x4 ADD PUSH2 0x91C SWAP2 SWAP1 PUSH2 0x56A2 JUMP JUMPDEST POP PUSH1 0x0 PUSH2 0x1E99 PUSH2 0xEC1 DUP7 DUP9 PUSH2 0x573E JUMP JUMPDEST SWAP1 POP PUSH2 0x1EA3 PUSH2 0x4B87 JUMP JUMPDEST PUSH1 0x0 JUMPDEST PUSH1 0x8 DUP2 LT ISZERO PUSH2 0x1EE5 JUMPI PUSH1 0x1 DUP3 DUP3 PUSH1 0x8 DUP2 LT PUSH2 0x1EC3 JUMPI PUSH2 0x1EC3 PUSH2 0x556C JUMP JUMPDEST PUSH4 0xFFFFFFFF SWAP1 SWAP3 AND PUSH1 0x20 SWAP3 SWAP1 SWAP3 MUL ADD MSTORE DUP1 PUSH2 0x1EDD DUP2 PUSH2 0x5598 JUMP JUMPDEST SWAP2 POP POP PUSH2 0x1EA6 JUMP JUMPDEST POP PUSH1 0x40 DUP1 MLOAD PUSH1 0xA0 DUP2 ADD DUP3 MSTORE PUSH1 0x1 PUSH1 0x1 PUSH1 0xA0 SHL SUB DUP11 DUP2 AND DUP3 MSTORE PUSH1 0x20 DUP3 ADD DUP5 DUP2 MSTORE PUSH1 0x1 PUSH1 0x1 PUSH1 0x80 SHL SUB DUP12 DUP2 AND SWAP5 DUP5 ADD SWAP5 SWAP1 SWAP5 MSTORE DUP10 DUP5 AND PUSH1 0x60 DUP5 ADD MSTORE SWAP3 DUP6 AND PUSH1 0x80 DUP4 ADD MSTORE PUSH1 0x22 DUP1 SLOAD PUSH1 0x1 DUP2 ADD DUP3 SSTORE PUSH1 0x0 SWAP2 SWAP1 SWAP2 MSTORE DUP3 MLOAD PUSH32 0x61035B26E3E9EEE00E0D72FD1EE8DDCA6894550DCA6916EA2AC6BAA90D11E510 PUSH1 0x4 SWAP1 SWAP3 MUL SWAP2 DUP3 ADD DUP1 SLOAD PUSH1 0x1 PUSH1 0x1 PUSH1 0xA0 SHL SUB NOT AND SWAP2 SWAP1 SWAP4 AND OR DUP3 SSTORE SWAP3 MLOAD SWAP2 SWAP3 DUP4 SWAP3 PUSH2 0x1FA8 SWAP2 PUSH32 0x61035B26E3E9EEE00E0D72FD1EE8DDCA6894550DCA6916EA2AC6BAA90D11E511 ADD SWAP1 PUSH1 0x8 PUSH2 0x4BA6 JUMP JUMPDEST POP PUSH1 0x40 DUP3 DUP2 ADD MLOAD PUSH1 0x60 DUP5 ADD MLOAD PUSH1 0x1 PUSH1 0x1 PUSH1 0x80 SHL SUB SWAP2 DUP3 AND PUSH1 0x1 PUSH1 0x80 SHL SWAP2 DUP4 AND SWAP2 SWAP1 SWAP2 MUL OR PUSH1 0x2 DUP5 ADD SSTORE PUSH1 0x80 SWAP1 SWAP4 ADD MLOAD PUSH1 0x3 SWAP1 SWAP3 ADD DUP1 SLOAD PUSH1 0x1 PUSH1 0x1 PUSH1 0x80 SHL SUB NOT AND SWAP3 SWAP1 SWAP4 AND SWAP2 SWAP1 SWAP2 OR SWAP1 SWAP2 SSTORE PUSH1 0x1 PUSH1 0x1 PUSH1 0xA0 SHL SUB DUP11 AND PUSH1 0x0 SWAP1 DUP2 MSTORE PUSH1 0x23 PUSH1 0x20 MSTORE SWAP1 DUP2 KECCAK256 DUP6 SWAP1 SSTORE PUSH1 0x24 DUP1 SLOAD DUP10 SWAP3 SWAP1 PUSH2 0x201F SWAP1 DUP5 SWAP1 PUSH2 0x568A JUMP JUMPDEST SWAP3 POP POP DUP2 SWAP1 SSTORE POP PUSH2 0x2045 PUSH2 0xDEAD DUP6 PUSH2 0x3E8 PUSH1 0x40 MLOAD DUP1 PUSH1 0x20 ADD PUSH1 0x40 MSTORE DUP1 PUSH1 0x0 DUP2 MSTORE POP PUSH2 0x2A25 JUMP JUMPDEST PUSH1 0x0 PUSH2 0x3E8 PUSH2 0x2057 PUSH2 0xEC1 DUP11 DUP13 PUSH2 0x573E JUMP JUMPDEST PUSH2 0x2061 SWAP2 SWAP1 PUSH2 0x5727 JUMP JUMPDEST SWAP1 POP PUSH2 0x207E DUP8 DUP7 DUP4 PUSH1 0x40 MLOAD DUP1 PUSH1 0x20 ADD PUSH1 0x40 MSTORE DUP1 PUSH1 0x0 DUP2 MSTORE POP PUSH2 0x2A25 JUMP JUMPDEST POP POP POP POP POP POP POP POP POP POP JUMP JUMPDEST PUSH1 0x28 DUP1 SLOAD PUSH1 0x1 PUSH1 0x1 PUSH1 0xA0 SHL SUB DUP1 DUP9 AND PUSH1 0x1 PUSH1 0x1 PUSH1 0xA0 SHL SUB NOT SWAP3 DUP4 AND OR SWAP1 SWAP3 SSTORE PUSH1 0x25 DUP1 SLOAD DUP8 DUP5 AND SWAP1 DUP4 AND OR SWAP1 SSTORE PUSH1 0x26 DUP1 SLOAD DUP7 DUP5 AND SWAP1 DUP4 AND OR SWAP1 SSTORE PUSH1 0x27 DUP1 SLOAD SWAP3 DUP6 AND SWAP3 SWAP1 SWAP2 AND SWAP2 SWAP1 SWAP2 OR SWAP1 SSTORE PUSH2 0xC27 PUSH2 0x1B06 JUMP JUMPDEST PUSH2 0xC27 DUP6 DUP6 DUP6 DUP6 DUP6 PUSH2 0x3DFC JUMP JUMPDEST PUSH2 0xA05 DUP5 DUP5 DUP5 DUP5 PUSH2 0x365D JUMP JUMPDEST PUSH2 0xC54 DUP4 DUP4 DUP4 PUSH2 0x3F19 JUMP JUMPDEST PUSH1 0x0 DUP1 DUP4 PUSH1 0xC TIMESTAMP DUP3 LT ISZERO PUSH2 0x2127 JUMPI PUSH1 0x40 MLOAD PUSH3 0x461BCD PUSH1 0xE5 SHL DUP2 MSTORE PUSH1 0x4 ADD PUSH2 0x91C SWAP2 SWAP1 PUSH2 0x56A2 JUMP JUMPDEST POP PUSH1 0x26 SLOAD CALLER SWAP1 PUSH1 0x0 SWAP1 PUSH1 0x1 PUSH1 0x1 PUSH1 0xA0 SHL SUB DUP13 DUP2 AND SWAP2 AND EQ DUP1 ISZERO SWAP1 PUSH2 0x2158 JUMPI POP PUSH1 0x26 SLOAD PUSH1 0x1 PUSH1 0x1 PUSH1 0xA0 SHL SUB DUP12 DUP2 AND SWAP2 AND EQ JUMPDEST ISZERO PUSH2 0x21CE JUMPI PUSH2 0x2167 DUP12 DUP11 PUSH2 0x3C0F JUMP JUMPDEST SWAP1 POP PUSH1 0x13 DUP9 DUP3 GT ISZERO PUSH2 0x218C JUMPI PUSH1 0x40 MLOAD PUSH3 0x461BCD PUSH1 0xE5 SHL DUP2 MSTORE PUSH1 0x4 ADD PUSH2 0x91C SWAP2 SWAP1 PUSH2 0x56A2 JUMP JUMPDEST POP PUSH1 0xE PUSH1 0x1 DUP3 GT PUSH2 0x21B0 JUMPI PUSH1 0x40 MLOAD PUSH3 0x461BCD PUSH1 0xE5 SHL DUP2 MSTORE PUSH1 0x4 ADD PUSH2 0x91C SWAP2 SWAP1 PUSH2 0x56A2 JUMP JUMPDEST POP PUSH2 0x21BC DUP12 DUP4 DUP4 PUSH2 0x2816 JUMP JUMPDEST PUSH2 0x21C9 DUP12 PUSH1 0x0 DUP12 DUP10 PUSH2 0x365D JUMP JUMPDEST PUSH2 0x2348 JUMP JUMPDEST PUSH1 0x26 SLOAD PUSH1 0x1 PUSH1 0x1 PUSH1 0xA0 SHL SUB DUP13 DUP2 AND SWAP2 AND EQ DUP1 ISZERO PUSH2 0x21F9 JUMPI POP PUSH1 0x26 SLOAD PUSH1 0x1 PUSH1 0x1 PUSH1 0xA0 SHL SUB DUP12 DUP2 AND SWAP2 AND EQ ISZERO JUMPDEST ISZERO PUSH2 0x226A JUMPI PUSH2 0x2208 DUP11 DUP11 PUSH2 0x3D00 JUMP JUMPDEST SWAP1 POP PUSH1 0x12 DUP9 DUP3 GT ISZERO PUSH2 0x222D JUMPI PUSH1 0x40 MLOAD PUSH3 0x461BCD PUSH1 0xE5 SHL DUP2 MSTORE PUSH1 0x4 ADD PUSH2 0x91C SWAP2 SWAP1 PUSH2 0x56A2 JUMP JUMPDEST POP PUSH1 0x1D PUSH1 0x1 DUP3 GT PUSH2 0x2251 JUMPI PUSH1 0x40 MLOAD PUSH3 0x461BCD PUSH1 0xE5 SHL DUP2 MSTORE PUSH1 0x4 ADD PUSH2 0x91C SWAP2 SWAP1 PUSH2 0x56A2 JUMP JUMPDEST POP PUSH2 0x225D DUP12 DUP4 DUP4 PUSH2 0x2816 JUMP JUMPDEST PUSH2 0x21C9 DUP11 DUP11 PUSH1 0x0 DUP10 PUSH2 0x365D JUMP JUMPDEST PUSH1 0x26 SLOAD PUSH1 0x1 PUSH1 0x1 PUSH1 0xA0 SHL SUB DUP13 DUP2 AND SWAP2 AND EQ DUP1 ISZERO SWAP1 PUSH2 0x2296 JUMPI POP PUSH1 0x26 SLOAD PUSH1 0x1 PUSH1 0x1 PUSH1 0xA0 SHL SUB DUP12 DUP2 AND SWAP2 AND EQ ISZERO JUMPDEST ISZERO PUSH2 0x1A93 JUMPI PUSH1 0x0 PUSH2 0x22A7 DUP12 DUP12 PUSH2 0x3D00 JUMP JUMPDEST SWAP1 POP PUSH1 0x1D PUSH1 0x1 DUP3 GT PUSH2 0x22CC JUMPI PUSH1 0x40 MLOAD PUSH3 0x461BCD PUSH1 0xE5 SHL DUP2 MSTORE PUSH1 0x4 ADD PUSH2 0x91C SWAP2 SWAP1 PUSH2 0x56A2 JUMP JUMPDEST POP PUSH2 0x22D7 DUP13 DUP3 PUSH2 0x3C0F JUMP JUMPDEST SWAP2 POP PUSH1 0x13 DUP10 DUP4 GT ISZERO PUSH2 0x22FC JUMPI PUSH1 0x40 MLOAD PUSH3 0x461BCD PUSH1 0xE5 SHL DUP2 MSTORE PUSH1 0x4 ADD PUSH2 0x91C SWAP2 SWAP1 PUSH2 0x56A2 JUMP JUMPDEST POP PUSH1 0xE PUSH1 0x1 DUP4 GT PUSH2 0x2320 JUMPI PUSH1 0x40 MLOAD PUSH3 0x461BCD PUSH1 0xE5 SHL DUP2 MSTORE PUSH1 0x4 ADD PUSH2 0x91C SWAP2 SWAP1 PUSH2 0x56A2 JUMP JUMPDEST POP PUSH2 0x232C DUP13 DUP5 DUP5 PUSH2 0x2816 JUMP JUMPDEST PUSH2 0x2339 DUP13 PUSH1 0x0 DUP4 ADDRESS PUSH2 0x365D JUMP JUMPDEST PUSH2 0x2346 DUP12 DUP12 PUSH1 0x0 DUP11 PUSH2 0x365D JUMP JUMPDEST POP JUMPDEST SWAP11 SWAP8 SWAP10 POP SWAP7 SWAP8 POP POP POP POP POP POP POP POP JUMP JUMPDEST PUSH2 0x2362 DUP3 DUP3 PUSH2 0x16A2 JUMP JUMPDEST PUSH2 0xCD3 JUMPI PUSH1 0x0 DUP3 DUP2 MSTORE PUSH1 0x4 PUSH1 0x20 SWAP1 DUP2 MSTORE PUSH1 0x40 DUP1 DUP4 KECCAK256 PUSH1 0x1 PUSH1 0x1 PUSH1 0xA0 SHL SUB DUP6 AND DUP5 MSTORE SWAP1 SWAP2 MSTORE SWAP1 KECCAK256 DUP1 SLOAD PUSH1 0xFF NOT AND PUSH1 0x1 OR SWAP1 SSTORE PUSH2 0x239A CALLER SWAP1 JUMP JUMPDEST PUSH1 0x1 PUSH1 0x1 PUSH1 0xA0 SHL SUB AND DUP2 PUSH1 0x1 PUSH1 0x1 PUSH1 0xA0 SHL SUB AND DUP4 PUSH32 0x2F8788117E7EFF1D82E926EC794901D17C78024A50270940304540A733656F0D PUSH1 0x40 MLOAD PUSH1 0x40 MLOAD DUP1 SWAP2 SUB SWAP1 LOG4 POP POP JUMP JUMPDEST PUSH1 0x0 PUSH2 0x1370 DUP4 PUSH1 0x1 PUSH1 0x1 PUSH1 0xA0 SHL SUB DUP5 AND PUSH2 0x401A JUMP JUMPDEST PUSH1 0x0 PUSH1 0x1 PUSH1 0x1 PUSH1 0xE0 SHL SUB NOT DUP3 AND PUSH4 0x5A05180F PUSH1 0xE0 SHL EQ DUP1 PUSH2 0x948 JUMPI POP PUSH4 0x1FFC9A7 PUSH1 0xE0 SHL PUSH1 0x1 PUSH1 0x1 PUSH1 0xE0 SHL SUB NOT DUP4 AND EQ PUSH2 0x948 JUMP JUMPDEST PUSH2 0x2432 DUP3 DUP3 PUSH2 0x16A2 JUMP JUMPDEST PUSH2 0xCD3 JUMPI PUSH2 0x244A DUP2 PUSH1 0x1 PUSH1 0x1 PUSH1 0xA0 SHL SUB AND PUSH1 0x14 PUSH2 0x4069 JUMP JUMPDEST PUSH2 0x2455 DUP4 PUSH1 0x20 PUSH2 0x4069 JUMP JUMPDEST PUSH1 0x40 MLOAD PUSH1 0x20 ADD PUSH2 0x2466 SWAP3 SWAP2 SWAP1 PUSH2 0x5807 JUMP JUMPDEST PUSH1 0x40 DUP1 MLOAD PUSH1 0x1F NOT DUP2 DUP5 SUB ADD DUP2 MSTORE SWAP1 DUP3 SWAP1 MSTORE PUSH3 0x461BCD PUSH1 0xE5 SHL DUP3 MSTORE PUSH2 0x91C SWAP2 PUSH1 0x4 ADD PUSH2 0x4DAA JUMP JUMPDEST PUSH2 0xCD3 DUP3 DUP3 PUSH2 0x27D2 JUMP JUMPDEST PUSH1 0x40 MLOAD PUSH4 0x6FB1A07 PUSH1 0xE0 SHL DUP2 MSTORE PUSH1 0x3 PUSH1 0x4 DUP3 ADD MSTORE PUSH1 0x0 SWAP1 PUSH20 0xDEF1FAC7BF08F173D286BBBDCBEEADE695129840 SWAP1 PUSH4 0x6FB1A07 SWAP1 PUSH1 0x24 ADD PUSH1 0x20 PUSH1 0x40 MLOAD DUP1 DUP4 SUB DUP2 DUP7 GAS STATICCALL ISZERO DUP1 ISZERO PUSH2 0x24E9 JUMPI RETURNDATASIZE PUSH1 0x0 DUP1 RETURNDATACOPY RETURNDATASIZE PUSH1 0x0 REVERT JUMPDEST POP POP POP POP PUSH1 0x40 MLOAD RETURNDATASIZE PUSH1 0x1F NOT PUSH1 0x1F DUP3 ADD AND DUP3 ADD DUP1 PUSH1 0x40 MSTORE POP DUP2 ADD SWAP1 PUSH2 0x250D SWAP2 SWAP1 PUSH2 0x55B3 JUMP JUMPDEST PUSH1 0x40 MLOAD PUSH4 0xC8B57EF PUSH1 0xE2 SHL DUP2 MSTORE PUSH1 0x1 PUSH1 0x1 PUSH1 0xA0 SHL SUB DUP7 DUP2 AND PUSH1 0x4 DUP4 ADD MSTORE DUP6 DUP2 AND PUSH1 0x24 DUP4 ADD MSTORE SWAP2 SWAP3 POP SWAP1 DUP3 AND SWAP1 PUSH4 0x322D5FBC SWAP1 PUSH1 0x44 ADD PUSH1 0x20 PUSH1 0x40 MLOAD DUP1 DUP4 SUB DUP2 PUSH1 0x0 DUP8 GAS CALL ISZERO DUP1 ISZERO PUSH2 0x2561 JUMPI RETURNDATASIZE PUSH1 0x0 DUP1 RETURNDATACOPY RETURNDATASIZE PUSH1 0x0 REVERT JUMPDEST POP POP POP POP PUSH1 0x40 MLOAD RETURNDATASIZE PUSH1 0x1F NOT PUSH1 0x1F DUP3 ADD AND DUP3 ADD DUP1 PUSH1 0x40 MSTORE POP DUP2 ADD SWAP1 PUSH2 0x2585 SWAP2 SWAP1 PUSH2 0x587C JUMP JUMPDEST PUSH2 0x25B7 JUMPI PUSH1 0x40 MLOAD PUSH3 0x461BCD PUSH1 0xE5 SHL DUP2 MSTORE PUSH1 0x20 PUSH1 0x4 DUP3 ADD MSTORE PUSH1 0x3 PUSH1 0x24 DUP3 ADD MSTORE PUSH3 0x42A8B PUSH1 0xEB SHL PUSH1 0x44 DUP3 ADD MSTORE PUSH1 0x64 ADD PUSH2 0x91C JUMP JUMPDEST PUSH1 0x1 PUSH1 0x1 PUSH1 0xA0 SHL SUB DUP3 AND ADDRESS EQ PUSH2 0xA05 JUMPI PUSH1 0x40 MLOAD PUSH4 0x3973256B PUSH1 0xE1 SHL DUP2 MSTORE PUSH1 0x1 PUSH1 0x1 PUSH1 0xA0 SHL SUB DUP6 DUP2 AND PUSH1 0x4 DUP4 ADD MSTORE DUP4 DUP2 AND PUSH1 0x24 DUP4 ADD MSTORE DUP3 AND SWAP1 PUSH4 0x72E64AD6 SWAP1 PUSH1 0x44 ADD PUSH1 0x0 PUSH1 0x40 MLOAD DUP1 DUP4 SUB DUP2 PUSH1 0x0 DUP8 DUP1 EXTCODESIZE ISZERO DUP1 ISZERO PUSH2 0x2612 JUMPI PUSH1 0x0 DUP1 REVERT JUMPDEST POP GAS CALL ISZERO DUP1 ISZERO PUSH2 0x2626 JUMPI RETURNDATASIZE PUSH1 0x0 DUP1 RETURNDATACOPY RETURNDATASIZE PUSH1 0x0 REVERT JUMPDEST POP POP POP POP POP POP POP POP JUMP JUMPDEST DUP2 MLOAD DUP4 MLOAD EQ PUSH2 0x2651 JUMPI PUSH1 0x40 MLOAD PUSH3 0x461BCD PUSH1 0xE5 SHL DUP2 MSTORE PUSH1 0x4 ADD PUSH2 0x91C SWAP1 PUSH2 0x5899 JUMP JUMPDEST PUSH1 0x1 PUSH1 0x1 PUSH1 0xA0 SHL SUB DUP5 AND PUSH2 0x2677 JUMPI PUSH1 0x40 MLOAD PUSH3 0x461BCD PUSH1 0xE5 SHL DUP2 MSTORE PUSH1 0x4 ADD PUSH2 0x91C SWAP1 PUSH2 0x58E1 JUMP JUMPDEST CALLER PUSH2 0x2686 DUP2 DUP8 DUP8 DUP8 DUP8 DUP8 PUSH2 0x4204 JUMP JUMPDEST PUSH1 0x0 JUMPDEST DUP5 MLOAD DUP2 LT ISZERO PUSH2 0x276C JUMPI PUSH1 0x0 DUP6 DUP3 DUP2 MLOAD DUP2 LT PUSH2 0x26A6 JUMPI PUSH2 0x26A6 PUSH2 0x556C JUMP JUMPDEST PUSH1 0x20 MUL PUSH1 0x20 ADD ADD MLOAD SWAP1 POP PUSH1 0x0 DUP6 DUP4 DUP2 MLOAD DUP2 LT PUSH2 0x26C4 JUMPI PUSH2 0x26C4 PUSH2 0x556C JUMP JUMPDEST PUSH1 0x20 SWAP1 DUP2 MUL SWAP2 SWAP1 SWAP2 ADD DUP2 ADD MLOAD PUSH1 0x0 DUP5 DUP2 MSTORE DUP1 DUP4 MSTORE PUSH1 0x40 DUP1 DUP3 KECCAK256 PUSH1 0x1 PUSH1 0x1 PUSH1 0xA0 SHL SUB DUP15 AND DUP4 MSTORE SWAP1 SWAP4 MSTORE SWAP2 SWAP1 SWAP2 KECCAK256 SLOAD SWAP1 SWAP2 POP DUP2 DUP2 LT ISZERO PUSH2 0x2714 JUMPI PUSH1 0x40 MLOAD PUSH3 0x461BCD PUSH1 0xE5 SHL DUP2 MSTORE PUSH1 0x4 ADD PUSH2 0x91C SWAP1 PUSH2 0x5926 JUMP JUMPDEST PUSH1 0x0 DUP4 DUP2 MSTORE PUSH1 0x20 DUP2 DUP2 MSTORE PUSH1 0x40 DUP1 DUP4 KECCAK256 PUSH1 0x1 PUSH1 0x1 PUSH1 0xA0 SHL SUB DUP15 DUP2 AND DUP6 MSTORE SWAP3 MSTORE DUP1 DUP4 KECCAK256 DUP6 DUP6 SUB SWAP1 SSTORE SWAP1 DUP12 AND DUP3 MSTORE DUP2 KECCAK256 DUP1 SLOAD DUP5 SWAP3 SWAP1 PUSH2 0x2751 SWAP1 DUP5 SWAP1 PUSH2 0x568A JUMP JUMPDEST SWAP3 POP POP DUP2 SWAP1 SSTORE POP POP POP POP DUP1 PUSH2 0x2765 SWAP1 PUSH2 0x5598 JUMP JUMPDEST SWAP1 POP PUSH2 0x2689 JUMP JUMPDEST POP DUP5 PUSH1 0x1 PUSH1 0x1 PUSH1 0xA0 SHL SUB AND DUP7 PUSH1 0x1 PUSH1 0x1 PUSH1 0xA0 SHL SUB AND DUP3 PUSH1 0x1 PUSH1 0x1 PUSH1 0xA0 SHL SUB AND PUSH32 0x4A39DC06D4C0DBC64B70AF90FD698A233A518AA5D07E595D983B8C0526C8F7FB DUP8 DUP8 PUSH1 0x40 MLOAD PUSH2 0x27BC SWAP3 SWAP2 SWAP1 PUSH2 0x5970 JUMP JUMPDEST PUSH1 0x40 MLOAD DUP1 SWAP2 SUB SWAP1 LOG4 PUSH2 0x15AD DUP2 DUP8 DUP8 DUP8 DUP8 DUP8 PUSH2 0x4310 JUMP JUMPDEST PUSH2 0x27DC DUP3 DUP3 PUSH2 0x2358 JUMP JUMPDEST PUSH1 0x0 DUP3 DUP2 MSTORE PUSH1 0x5 PUSH1 0x20 MSTORE PUSH1 0x40 SWAP1 KECCAK256 PUSH2 0xC54 SWAP1 DUP3 PUSH2 0x23DE JUMP JUMPDEST PUSH2 0x27FE DUP3 DUP3 PUSH2 0x446C JUMP JUMPDEST PUSH1 0x0 DUP3 DUP2 MSTORE PUSH1 0x5 PUSH1 0x20 MSTORE PUSH1 0x40 SWAP1 KECCAK256 PUSH2 0xC54 SWAP1 DUP3 PUSH2 0x44D3 JUMP JUMPDEST PUSH1 0x29 SLOAD PUSH1 0x1 PUSH1 0x1 PUSH1 0xA0 SHL SUB DUP5 DUP2 AND SWAP2 AND EQ PUSH2 0x2869 JUMPI PUSH1 0xF CALLVALUE ISZERO PUSH2 0x284C JUMPI PUSH1 0x40 MLOAD PUSH3 0x461BCD PUSH1 0xE5 SHL DUP2 MSTORE PUSH1 0x4 ADD PUSH2 0x91C SWAP2 SWAP1 PUSH2 0x56A2 JUMP JUMPDEST POP PUSH1 0x1 PUSH1 0x1 PUSH1 0xA0 SHL SUB DUP3 AND ADDRESS EQ PUSH2 0xC54 JUMPI PUSH2 0xC54 DUP4 DUP4 ADDRESS DUP5 PUSH2 0x44E8 JUMP JUMPDEST PUSH1 0x29 SLOAD PUSH1 0x1 PUSH1 0x1 PUSH1 0xA0 SHL SUB DUP5 DUP2 AND SWAP2 AND EQ ISZERO PUSH2 0xC54 JUMPI PUSH1 0x1C CALLVALUE DUP3 GT ISZERO PUSH2 0x28A2 JUMPI PUSH1 0x40 MLOAD PUSH3 0x461BCD PUSH1 0xE5 SHL DUP2 MSTORE PUSH1 0x4 ADD PUSH2 0x91C SWAP2 SWAP1 PUSH2 0x56A2 JUMP JUMPDEST POP DUP1 CALLVALUE GT ISZERO PUSH2 0xC54 JUMPI PUSH1 0x29 SLOAD PUSH2 0xC54 SWAP1 PUSH1 0x1 PUSH1 0x1 PUSH1 0xA0 SHL SUB AND CALLER PUSH2 0x28C6 DUP5 CALLVALUE PUSH2 0x5727 JUMP JUMPDEST PUSH1 0x0 PUSH2 0x45D8 JUMP JUMPDEST PUSH1 0x29 SLOAD PUSH1 0x0 SWAP1 PUSH1 0x1 PUSH1 0x1 PUSH1 0xA0 SHL SUB DUP4 DUP2 AND SWAP2 AND EQ ISZERO PUSH2 0x28ED JUMPI POP SELFBALANCE SWAP2 SWAP1 POP JUMP JUMPDEST PUSH1 0x40 MLOAD PUSH4 0x70A08231 PUSH1 0xE0 SHL DUP2 MSTORE ADDRESS PUSH1 0x4 DUP3 ADD MSTORE PUSH1 0x1 PUSH1 0x1 PUSH1 0xA0 SHL SUB DUP4 AND SWAP1 PUSH4 0x70A08231 SWAP1 PUSH1 0x24 ADD PUSH1 0x20 PUSH1 0x40 MLOAD DUP1 DUP4 SUB DUP2 DUP7 GAS STATICCALL ISZERO DUP1 ISZERO PUSH2 0x2931 JUMPI RETURNDATASIZE PUSH1 0x0 DUP1 RETURNDATACOPY RETURNDATASIZE PUSH1 0x0 REVERT JUMPDEST POP POP POP POP PUSH1 0x40 MLOAD RETURNDATASIZE PUSH1 0x1F NOT PUSH1 0x1F DUP3 ADD AND DUP3 ADD DUP1 PUSH1 0x40 MSTORE POP DUP2 ADD SWAP1 PUSH2 0x948 SWAP2 SWAP1 PUSH2 0x5995 JUMP JUMPDEST PUSH1 0x0 DUP1 PUSH1 0x2 PUSH2 0x2965 DUP5 PUSH1 0x1 PUSH2 0x568A JUMP JUMPDEST PUSH2 0x296F SWAP2 SWAP1 PUSH2 0x5773 JUMP JUMPDEST SWAP1 POP DUP3 SWAP2 POP JUMPDEST DUP2 DUP2 LT ISZERO PUSH2 0x29A8 JUMPI SWAP1 POP DUP1 PUSH1 0x2 DUP2 PUSH2 0x298D DUP2 DUP7 PUSH2 0x5773 JUMP JUMPDEST PUSH2 0x2997 SWAP2 SWAP1 PUSH2 0x568A JUMP JUMPDEST PUSH2 0x29A1 SWAP2 SWAP1 PUSH2 0x5773 JUMP JUMPDEST SWAP1 POP PUSH2 0x2975 JUMP JUMPDEST POP SWAP2 SWAP1 POP JUMP JUMPDEST PUSH1 0x0 DUP4 DUP4 GT DUP1 ISZERO PUSH2 0x29BF JUMPI POP PUSH1 0x0 DUP5 GT JUMPDEST DUP1 ISZERO PUSH2 0x29CD JUMPI POP PUSH1 0x0 PUSH1 0x2A SLOAD GT JUMPDEST ISZERO PUSH2 0x1370 JUMPI PUSH2 0x29DD PUSH1 0x64 DUP6 PUSH2 0x573E JUMP JUMPDEST PUSH1 0x2A SLOAD PUSH2 0x29EA SWAP1 DUP6 PUSH2 0x573E JUMP JUMPDEST PUSH2 0x29F4 SWAP2 SWAP1 PUSH2 0x568A JUMP JUMPDEST PUSH2 0x29FE DUP6 DUP6 PUSH2 0x5727 JUMP JUMPDEST PUSH2 0x2A09 PUSH1 0x64 DUP6 PUSH2 0x573E JUMP JUMPDEST PUSH2 0x2A13 SWAP2 SWAP1 PUSH2 0x573E JUMP JUMPDEST PUSH2 0x2A1D SWAP2 SWAP1 PUSH2 0x5773 JUMP JUMPDEST SWAP5 SWAP4 POP POP POP POP JUMP JUMPDEST PUSH1 0x1 PUSH1 0x1 PUSH1 0xA0 SHL SUB DUP5 AND PUSH2 0x2A85 JUMPI PUSH1 0x40 MLOAD PUSH3 0x461BCD PUSH1 0xE5 SHL DUP2 MSTORE PUSH1 0x20 PUSH1 0x4 DUP3 ADD MSTORE PUSH1 0x21 PUSH1 0x24 DUP3 ADD MSTORE PUSH32 0x455243313135353A206D696E7420746F20746865207A65726F20616464726573 PUSH1 0x44 DUP3 ADD MSTORE PUSH1 0x73 PUSH1 0xF8 SHL PUSH1 0x64 DUP3 ADD MSTORE PUSH1 0x84 ADD PUSH2 0x91C JUMP JUMPDEST CALLER PUSH2 0x2AA5 DUP2 PUSH1 0x0 DUP8 PUSH2 0x2A96 DUP9 PUSH2 0x4618 JUMP JUMPDEST PUSH2 0x2A9F DUP9 PUSH2 0x4618 JUMP JUMPDEST DUP8 PUSH2 0x4204 JUMP JUMPDEST PUSH1 0x0 DUP5 DUP2 MSTORE PUSH1 0x20 DUP2 DUP2 MSTORE PUSH1 0x40 DUP1 DUP4 KECCAK256 PUSH1 0x1 PUSH1 0x1 PUSH1 0xA0 SHL SUB DUP10 AND DUP5 MSTORE SWAP1 SWAP2 MSTORE DUP2 KECCAK256 DUP1 SLOAD DUP6 SWAP3 SWAP1 PUSH2 0x2AD5 SWAP1 DUP5 SWAP1 PUSH2 0x568A JUMP JUMPDEST SWAP1 SWAP2 SSTORE POP POP PUSH1 0x40 DUP1 MLOAD DUP6 DUP2 MSTORE PUSH1 0x20 DUP2 ADD DUP6 SWAP1 MSTORE PUSH1 0x1 PUSH1 0x1 PUSH1 0xA0 SHL SUB DUP1 DUP9 AND SWAP3 PUSH1 0x0 SWAP3 SWAP2 DUP6 AND SWAP2 PUSH32 0xC3D58168C5AE7397731D063D5BBF3D657854427343F4C083240F7AACAA2D0F62 SWAP2 ADD PUSH1 0x40 MLOAD DUP1 SWAP2 SUB SWAP1 LOG4 PUSH2 0xC27 DUP2 PUSH1 0x0 DUP8 DUP8 DUP8 DUP8 PUSH2 0x4663 JUMP JUMPDEST PUSH1 0x1 PUSH1 0x1 PUSH1 0xA0 SHL SUB DUP3 AND PUSH1 0x0 SWAP1 DUP2 MSTORE PUSH1 0x23 PUSH1 0x20 MSTORE PUSH1 0x40 DUP2 KECCAK256 SLOAD DUP4 SWAP1 ISZERO DUP1 ISZERO SWAP1 PUSH2 0x2B6C JUMPI POP PUSH1 0x26 SLOAD PUSH1 0x1 PUSH1 0x1 PUSH1 0xA0 SHL SUB DUP3 DUP2 AND SWAP2 AND EQ ISZERO JUMPDEST PUSH1 0xB SWAP1 PUSH2 0x2B8C JUMPI PUSH1 0x40 MLOAD PUSH3 0x461BCD PUSH1 0xE5 SHL DUP2 MSTORE PUSH1 0x4 ADD PUSH2 0x91C SWAP2 SWAP1 PUSH2 0x56A2 JUMP JUMPDEST POP PUSH1 0x1 PUSH1 0x1 PUSH1 0xA0 SHL SUB DUP5 AND PUSH1 0x0 SWAP1 DUP2 MSTORE PUSH1 0x23 PUSH1 0x20 MSTORE PUSH1 0x40 SWAP1 KECCAK256 SLOAD PUSH1 0x22 DUP1 SLOAD PUSH2 0x2C26 SWAP2 DUP7 SWAP2 DUP5 SWAP1 DUP2 LT PUSH2 0x2BC0 JUMPI PUSH2 0x2BC0 PUSH2 0x556C JUMP JUMPDEST PUSH1 0x0 SWAP2 DUP3 MSTORE PUSH1 0x20 SWAP1 SWAP2 KECCAK256 PUSH1 0x2 PUSH1 0x4 SWAP1 SWAP3 MUL ADD ADD SLOAD PUSH1 0x22 DUP1 SLOAD PUSH1 0x1 PUSH1 0x1 PUSH1 0x80 SHL SUB SWAP1 SWAP3 AND SWAP2 DUP6 SWAP1 DUP2 LT PUSH2 0x2BF4 JUMPI PUSH2 0x2BF4 PUSH2 0x556C JUMP JUMPDEST PUSH1 0x0 SWAP2 DUP3 MSTORE PUSH1 0x20 SWAP1 SWAP2 KECCAK256 PUSH1 0x4 SWAP1 SWAP2 MUL ADD PUSH1 0x2 ADD SLOAD PUSH1 0x1 PUSH1 0x80 SHL SWAP1 DIV PUSH1 0x1 PUSH1 0x1 PUSH1 0x80 SHL SUB AND PUSH2 0x2C21 DUP6 PUSH2 0x3365 JUMP JUMPDEST PUSH2 0x471E JUMP JUMPDEST SWAP3 POP POP JUMPDEST POP SWAP3 SWAP2 POP POP JUMP JUMPDEST PUSH1 0x1 PUSH1 0x1 PUSH1 0xA0 SHL SUB DUP3 AND PUSH1 0x0 SWAP1 DUP2 MSTORE PUSH1 0x23 PUSH1 0x20 MSTORE PUSH1 0x40 DUP2 KECCAK256 SLOAD DUP4 SWAP1 ISZERO DUP1 ISZERO SWAP1 PUSH2 0x2C68 JUMPI POP PUSH1 0x26 SLOAD PUSH1 0x1 PUSH1 0x1 PUSH1 0xA0 SHL SUB DUP3 DUP2 AND SWAP2 AND EQ ISZERO JUMPDEST PUSH1 0xB SWAP1 PUSH2 0x2C88 JUMPI PUSH1 0x40 MLOAD PUSH3 0x461BCD PUSH1 0xE5 SHL DUP2 MSTORE PUSH1 0x4 ADD PUSH2 0x91C SWAP2 SWAP1 PUSH2 0x56A2 JUMP JUMPDEST POP PUSH1 0x1 PUSH1 0x1 PUSH1 0xA0 SHL SUB DUP5 AND PUSH1 0x0 SWAP1 DUP2 MSTORE PUSH1 0x23 PUSH1 0x20 MSTORE PUSH1 0x40 SWAP1 KECCAK256 SLOAD PUSH1 0x22 DUP1 SLOAD PUSH2 0x2C26 SWAP2 DUP7 SWAP2 DUP5 SWAP1 DUP2 LT PUSH2 0x2CBC JUMPI PUSH2 0x2CBC PUSH2 0x556C JUMP JUMPDEST SWAP1 PUSH1 0x0 MSTORE PUSH1 0x20 PUSH1 0x0 KECCAK256 SWAP1 PUSH1 0x4 MUL ADD PUSH1 0x2 ADD PUSH1 0x10 SWAP1 SLOAD SWAP1 PUSH2 0x100 EXP SWAP1 DIV PUSH1 0x1 PUSH1 0x1 PUSH1 0x80 SHL SUB AND PUSH1 0x1 PUSH1 0x1 PUSH1 0x80 SHL SUB AND PUSH1 0x22 DUP5 DUP2 SLOAD DUP2 LT PUSH2 0x2CFD JUMPI PUSH2 0x2CFD PUSH2 0x556C JUMP JUMPDEST PUSH1 0x0 SWAP2 DUP3 MSTORE PUSH1 0x20 SWAP1 SWAP2 KECCAK256 PUSH1 0x2 PUSH1 0x4 SWAP1 SWAP3 MUL ADD ADD SLOAD PUSH1 0x1 PUSH1 0x1 PUSH1 0x80 SHL SUB AND PUSH2 0x2C21 DUP6 PUSH2 0x3365 JUMP JUMPDEST PUSH1 0x1 PUSH1 0x1 PUSH1 0xA0 SHL SUB DUP4 AND PUSH2 0x2D49 JUMPI PUSH1 0x40 MLOAD PUSH3 0x461BCD PUSH1 0xE5 SHL DUP2 MSTORE PUSH1 0x4 ADD PUSH2 0x91C SWAP1 PUSH2 0x59AE JUMP JUMPDEST DUP1 MLOAD DUP3 MLOAD EQ PUSH2 0x2D6A JUMPI PUSH1 0x40 MLOAD PUSH3 0x461BCD PUSH1 0xE5 SHL DUP2 MSTORE PUSH1 0x4 ADD PUSH2 0x91C SWAP1 PUSH2 0x5899 JUMP JUMPDEST PUSH1 0x0 CALLER SWAP1 POP PUSH2 0x2D8D DUP2 DUP6 PUSH1 0x0 DUP7 DUP7 PUSH1 0x40 MLOAD DUP1 PUSH1 0x20 ADD PUSH1 0x40 MSTORE DUP1 PUSH1 0x0 DUP2 MSTORE POP PUSH2 0x4204 JUMP JUMPDEST PUSH1 0x0 JUMPDEST DUP4 MLOAD DUP2 LT ISZERO PUSH2 0x2E52 JUMPI PUSH1 0x0 DUP5 DUP3 DUP2 MLOAD DUP2 LT PUSH2 0x2DAD JUMPI PUSH2 0x2DAD PUSH2 0x556C JUMP JUMPDEST PUSH1 0x20 MUL PUSH1 0x20 ADD ADD MLOAD SWAP1 POP PUSH1 0x0 DUP5 DUP4 DUP2 MLOAD DUP2 LT PUSH2 0x2DCB JUMPI PUSH2 0x2DCB PUSH2 0x556C JUMP JUMPDEST PUSH1 0x20 SWAP1 DUP2 MUL SWAP2 SWAP1 SWAP2 ADD DUP2 ADD MLOAD PUSH1 0x0 DUP5 DUP2 MSTORE DUP1 DUP4 MSTORE PUSH1 0x40 DUP1 DUP3 KECCAK256 PUSH1 0x1 PUSH1 0x1 PUSH1 0xA0 SHL SUB DUP13 AND DUP4 MSTORE SWAP1 SWAP4 MSTORE SWAP2 SWAP1 SWAP2 KECCAK256 SLOAD SWAP1 SWAP2 POP DUP2 DUP2 LT ISZERO PUSH2 0x2E1B JUMPI PUSH1 0x40 MLOAD PUSH3 0x461BCD PUSH1 0xE5 SHL DUP2 MSTORE PUSH1 0x4 ADD PUSH2 0x91C SWAP1 PUSH2 0x59F1 JUMP JUMPDEST PUSH1 0x0 SWAP3 DUP4 MSTORE PUSH1 0x20 DUP4 DUP2 MSTORE PUSH1 0x40 DUP1 DUP6 KECCAK256 PUSH1 0x1 PUSH1 0x1 PUSH1 0xA0 SHL SUB DUP12 AND DUP7 MSTORE SWAP1 SWAP2 MSTORE SWAP1 SWAP3 KECCAK256 SWAP2 SUB SWAP1 SSTORE DUP1 PUSH2 0x2E4A DUP2 PUSH2 0x5598 JUMP JUMPDEST SWAP2 POP POP PUSH2 0x2D90 JUMP JUMPDEST POP PUSH1 0x0 PUSH1 0x1 PUSH1 0x1 PUSH1 0xA0 SHL SUB AND DUP5 PUSH1 0x1 PUSH1 0x1 PUSH1 0xA0 SHL SUB AND DUP3 PUSH1 0x1 PUSH1 0x1 PUSH1 0xA0 SHL SUB AND PUSH32 0x4A39DC06D4C0DBC64B70AF90FD698A233A518AA5D07E595D983B8C0526C8F7FB DUP7 DUP7 PUSH1 0x40 MLOAD PUSH2 0x2EA3 SWAP3 SWAP2 SWAP1 PUSH2 0x5970 JUMP JUMPDEST PUSH1 0x40 MLOAD DUP1 SWAP2 SUB SWAP1 LOG4 POP POP POP POP JUMP JUMPDEST PUSH1 0x1 PUSH1 0x1 PUSH1 0xA0 SHL SUB DUP4 AND PUSH1 0x0 SWAP1 DUP2 MSTORE PUSH1 0x23 PUSH1 0x20 MSTORE PUSH1 0x40 DUP2 KECCAK256 SLOAD SWAP1 PUSH2 0x2ED4 DUP6 PUSH2 0x28CD JUMP JUMPDEST SWAP1 POP PUSH1 0x0 PUSH1 0x22 DUP4 DUP2 SLOAD DUP2 LT PUSH2 0x2EEB JUMPI PUSH2 0x2EEB PUSH2 0x556C JUMP JUMPDEST PUSH1 0x0 SWAP2 DUP3 MSTORE PUSH1 0x20 SWAP1 SWAP2 KECCAK256 PUSH1 0x2 PUSH1 0x4 SWAP1 SWAP3 MUL ADD ADD SLOAD PUSH2 0x2F12 SWAP1 PUSH1 0x1 PUSH1 0x1 PUSH1 0x80 SHL SUB AND DUP4 PUSH2 0x5727 JUMP JUMPDEST PUSH1 0x24 SLOAD PUSH1 0x26 SLOAD SWAP2 SWAP3 POP PUSH1 0x0 SWAP2 PUSH2 0x2F30 SWAP1 PUSH1 0x1 PUSH1 0x1 PUSH1 0xA0 SHL SUB AND PUSH2 0x28CD JUMP JUMPDEST PUSH2 0x2F3A SWAP2 SWAP1 PUSH2 0x5727 JUMP JUMPDEST PUSH1 0x0 DUP6 DUP2 MSTORE PUSH1 0x3 PUSH1 0x20 MSTORE PUSH1 0x40 DUP2 KECCAK256 SLOAD PUSH1 0x22 DUP1 SLOAD SWAP4 SWAP5 POP SWAP1 SWAP3 DUP4 SWAP2 DUP11 SWAP2 DUP10 SWAP1 DUP2 LT PUSH2 0x2F66 JUMPI PUSH2 0x2F66 PUSH2 0x556C JUMP JUMPDEST PUSH1 0x0 SWAP2 DUP3 MSTORE PUSH1 0x20 SWAP1 SWAP2 KECCAK256 PUSH1 0x2 PUSH1 0x4 SWAP1 SWAP3 MUL ADD ADD SLOAD PUSH2 0x2F8D SWAP2 SWAP1 PUSH1 0x1 PUSH1 0x1 PUSH1 0x80 SHL SUB AND PUSH2 0x573E JUMP JUMPDEST PUSH2 0x2F97 SWAP2 SWAP1 PUSH2 0x5773 JUMP JUMPDEST SWAP1 POP PUSH1 0x0 DUP3 DUP10 PUSH1 0x22 DUP10 DUP2 SLOAD DUP2 LT PUSH2 0x2FB0 JUMPI PUSH2 0x2FB0 PUSH2 0x556C JUMP JUMPDEST PUSH1 0x0 SWAP2 DUP3 MSTORE PUSH1 0x20 SWAP1 SWAP2 KECCAK256 PUSH1 0x4 SWAP1 SWAP2 MUL ADD PUSH1 0x2 ADD SLOAD PUSH2 0x2FDE SWAP2 SWAP1 PUSH1 0x1 PUSH1 0x80 SHL SWAP1 DIV PUSH1 0x1 PUSH1 0x1 PUSH1 0x80 SHL SUB AND PUSH2 0x573E JUMP JUMPDEST PUSH2 0x2FE8 SWAP2 SWAP1 PUSH2 0x5773 JUMP JUMPDEST SWAP1 POP PUSH1 0x0 PUSH2 0x3043 PUSH1 0x22 DUP10 DUP2 SLOAD DUP2 LT PUSH2 0x3002 JUMPI PUSH2 0x3002 PUSH2 0x556C JUMP JUMPDEST SWAP1 PUSH1 0x0 MSTORE PUSH1 0x20 PUSH1 0x0 KECCAK256 SWAP1 PUSH1 0x4 MUL ADD PUSH1 0x2 ADD PUSH1 0x10 SWAP1 SLOAD SWAP1 PUSH2 0x100 EXP SWAP1 DIV PUSH1 0x1 PUSH1 0x1 PUSH1 0x80 SHL SUB AND PUSH1 0x1 PUSH1 0x1 PUSH1 0x80 SHL SUB AND PUSH1 0x22 DUP11 DUP2 SLOAD DUP2 LT PUSH2 0xE9A JUMPI PUSH2 0xE9A PUSH2 0x556C JUMP JUMPDEST SWAP1 POP PUSH1 0x0 PUSH2 0x3081 PUSH1 0x22 DUP11 DUP2 SLOAD DUP2 LT PUSH2 0x305D JUMPI PUSH2 0x305D PUSH2 0x556C JUMP JUMPDEST PUSH1 0x0 SWAP2 DUP3 MSTORE PUSH1 0x20 SWAP1 SWAP2 KECCAK256 PUSH1 0x3 PUSH1 0x4 SWAP1 SWAP3 MUL ADD ADD SLOAD PUSH1 0x1 PUSH1 0x1 PUSH1 0x80 SHL SUB AND DUP4 DUP8 PUSH2 0x29AE JUMP JUMPDEST SWAP1 POP DUP1 ISZERO PUSH2 0x30B2 JUMPI PUSH1 0x2F SLOAD PUSH1 0x40 DUP1 MLOAD PUSH1 0x20 DUP2 ADD SWAP1 SWAP2 MSTORE PUSH1 0x0 DUP2 MSTORE PUSH2 0x30B2 SWAP2 PUSH1 0x1 PUSH1 0x1 PUSH1 0xA0 SHL SUB AND SWAP1 DUP12 SWAP1 DUP5 SWAP1 PUSH2 0x2A25 JUMP JUMPDEST DUP3 DUP7 PUSH1 0x24 SLOAD PUSH2 0x30C1 SWAP2 SWAP1 PUSH2 0x568A JUMP JUMPDEST PUSH2 0x30CB SWAP2 SWAP1 PUSH2 0x5727 JUMP JUMPDEST PUSH1 0x24 DUP2 SWAP1 SSTORE POP DUP4 DUP8 PUSH1 0x22 DUP12 DUP2 SLOAD DUP2 LT PUSH2 0x30E6 JUMPI PUSH2 0x30E6 PUSH2 0x556C JUMP JUMPDEST PUSH1 0x0 SWAP2 DUP3 MSTORE PUSH1 0x20 SWAP1 SWAP2 KECCAK256 PUSH1 0x2 PUSH1 0x4 SWAP1 SWAP3 MUL ADD ADD SLOAD PUSH2 0x310D SWAP2 SWAP1 PUSH1 0x1 PUSH1 0x1 PUSH1 0x80 SHL SUB AND PUSH2 0x5787 JUMP JUMPDEST PUSH2 0x3117 SWAP2 SWAP1 PUSH2 0x57B2 JUMP JUMPDEST PUSH1 0x22 DUP11 DUP2 SLOAD DUP2 LT PUSH2 0x312A JUMPI PUSH2 0x312A PUSH2 0x556C JUMP JUMPDEST SWAP1 PUSH1 0x0 MSTORE PUSH1 0x20 PUSH1 0x0 KECCAK256 SWAP1 PUSH1 0x4 MUL ADD PUSH1 0x2 ADD PUSH1 0x0 PUSH2 0x100 EXP DUP2 SLOAD DUP2 PUSH1 0x1 PUSH1 0x1 PUSH1 0x80 SHL SUB MUL NOT AND SWAP1 DUP4 PUSH1 0x1 PUSH1 0x1 PUSH1 0x80 SHL SUB AND MUL OR SWAP1 SSTORE POP DUP3 DUP7 PUSH1 0x22 DUP12 DUP2 SLOAD DUP2 LT PUSH2 0x3174 JUMPI PUSH2 0x3174 PUSH2 0x556C JUMP JUMPDEST SWAP1 PUSH1 0x0 MSTORE PUSH1 0x20 PUSH1 0x0 KECCAK256 SWAP1 PUSH1 0x4 MUL ADD PUSH1 0x2 ADD PUSH1 0x10 SWAP1 SLOAD SWAP1 PUSH2 0x100 EXP SWAP1 DIV PUSH1 0x1 PUSH1 0x1 PUSH1 0x80 SHL SUB AND PUSH2 0x31A3 SWAP2 SWAP1 PUSH2 0x5787 JUMP JUMPDEST PUSH2 0x31AD SWAP2 SWAP1 PUSH2 0x57B2 JUMP JUMPDEST PUSH1 0x22 DUP11 DUP2 SLOAD DUP2 LT PUSH2 0x31C0 JUMPI PUSH2 0x31C0 PUSH2 0x556C JUMP JUMPDEST SWAP1 PUSH1 0x0 MSTORE PUSH1 0x20 PUSH1 0x0 KECCAK256 SWAP1 PUSH1 0x4 MUL ADD PUSH1 0x2 ADD PUSH1 0x10 PUSH2 0x100 EXP DUP2 SLOAD DUP2 PUSH1 0x1 PUSH1 0x1 PUSH1 0x80 SHL SUB MUL NOT AND SWAP1 DUP4 PUSH1 0x1 PUSH1 0x1 PUSH1 0x80 SHL SUB AND MUL OR SWAP1 SSTORE POP PUSH2 0x324C PUSH1 0x22 DUP11 DUP2 SLOAD DUP2 LT PUSH2 0x320B JUMPI PUSH2 0x320B PUSH2 0x556C JUMP JUMPDEST SWAP1 PUSH1 0x0 MSTORE PUSH1 0x20 PUSH1 0x0 KECCAK256 SWAP1 PUSH1 0x4 MUL ADD PUSH1 0x2 ADD PUSH1 0x10 SWAP1 SLOAD SWAP1 PUSH2 0x100 EXP SWAP1 DIV PUSH1 0x1 PUSH1 0x1 PUSH1 0x80 SHL SUB AND PUSH1 0x1 PUSH1 0x1 PUSH1 0x80 SHL SUB AND PUSH1 0x22 DUP12 DUP2 SLOAD DUP2 LT PUSH2 0xE9A JUMPI PUSH2 0xE9A PUSH2 0x556C JUMP JUMPDEST PUSH1 0x22 DUP11 DUP2 SLOAD DUP2 LT PUSH2 0x325F JUMPI PUSH2 0x325F PUSH2 0x556C JUMP JUMPDEST SWAP1 PUSH1 0x0 MSTORE PUSH1 0x20 PUSH1 0x0 KECCAK256 SWAP1 PUSH1 0x4 MUL ADD PUSH1 0x3 ADD PUSH1 0x0 PUSH2 0x100 EXP DUP2 SLOAD DUP2 PUSH1 0x1 PUSH1 0x1 PUSH1 0x80 SHL SUB MUL NOT AND SWAP1 DUP4 PUSH1 0x1 PUSH1 0x1 PUSH1 0x80 SHL SUB AND MUL OR SWAP1 SSTORE POP PUSH2 0x329F CALLER DUP11 DUP14 PUSH2 0x20F5 JUMP JUMPDEST PUSH1 0x26 SLOAD PUSH1 0x40 MLOAD PUSH4 0x18A8AD87 PUSH1 0xE0 SHL DUP2 MSTORE ADDRESS PUSH1 0x4 DUP3 ADD MSTORE PUSH1 0x24 DUP2 ADD DUP6 SWAP1 MSTORE PUSH1 0x1 PUSH1 0x1 PUSH1 0xA0 SHL SUB SWAP1 SWAP2 AND SWAP1 PUSH4 0x18A8AD87 SWAP1 PUSH1 0x44 ADD PUSH1 0x0 PUSH1 0x40 MLOAD DUP1 DUP4 SUB DUP2 PUSH1 0x0 DUP8 DUP1 EXTCODESIZE ISZERO DUP1 ISZERO PUSH2 0x32EB JUMPI PUSH1 0x0 DUP1 REVERT JUMPDEST POP GAS CALL ISZERO DUP1 ISZERO PUSH2 0x32FF JUMPI RETURNDATASIZE PUSH1 0x0 DUP1 RETURNDATACOPY RETURNDATASIZE PUSH1 0x0 REVERT JUMPDEST POP POP POP POP POP POP PUSH2 0x3312 DUP11 DUP10 DUP5 PUSH1 0x1 PUSH2 0x45D8 JUMP JUMPDEST PUSH1 0x0 PUSH2 0x331D DUP12 PUSH2 0x28CD JUMP JUMPDEST SWAP1 POP DUP7 PUSH2 0x332A DUP5 DUP4 PUSH2 0x568A JUMP JUMPDEST PUSH1 0xD SWAP2 EQ PUSH2 0x334B JUMPI PUSH1 0x40 MLOAD PUSH3 0x461BCD PUSH1 0xE5 SHL DUP2 MSTORE PUSH1 0x4 ADD PUSH2 0x91C SWAP2 SWAP1 PUSH2 0x56A2 JUMP JUMPDEST POP POP POP POP POP POP POP POP POP POP POP POP JUMP JUMPDEST PUSH1 0x0 PUSH2 0x1370 DUP4 DUP4 PUSH2 0x478E JUMP JUMPDEST PUSH1 0x0 DUP1 PUSH2 0x3370 PUSH2 0x47B8 JUMP JUMPDEST SWAP1 POP PUSH1 0x0 PUSH1 0x8 PUSH2 0x3381 DUP4 PUSH1 0x1 PUSH2 0x568A JUMP JUMPDEST PUSH2 0x338B SWAP2 SWAP1 PUSH2 0x5A35 JUMP JUMPDEST SWAP1 POP PUSH1 0x0 DUP1 JUMPDEST PUSH1 0x8 DUP2 LT ISZERO PUSH2 0x3428 JUMPI DUP4 DUP2 EQ DUP1 PUSH2 0x33A7 JUMPI POP DUP3 DUP2 EQ JUMPDEST ISZERO PUSH2 0x33B1 JUMPI PUSH2 0x3416 JUMP JUMPDEST PUSH1 0x22 DUP7 DUP2 SLOAD DUP2 LT PUSH2 0x33C4 JUMPI PUSH2 0x33C4 PUSH2 0x556C JUMP JUMPDEST SWAP1 PUSH1 0x0 MSTORE PUSH1 0x20 PUSH1 0x0 KECCAK256 SWAP1 PUSH1 0x4 MUL ADD PUSH1 0x1 ADD DUP2 PUSH1 0x8 DUP2 LT PUSH2 0x33E6 JUMPI PUSH2 0x33E6 PUSH2 0x556C JUMP JUMPDEST PUSH1 0x8 SWAP2 DUP3 DUP3 DIV ADD SWAP2 SWAP1 MOD PUSH1 0x4 MUL SWAP1 SLOAD SWAP1 PUSH2 0x100 EXP SWAP1 DIV PUSH4 0xFFFFFFFF AND PUSH4 0xFFFFFFFF AND DUP3 PUSH2 0x3413 SWAP2 SWAP1 PUSH2 0x568A JUMP JUMPDEST SWAP2 POP JUMPDEST DUP1 PUSH2 0x3420 DUP2 PUSH2 0x5598 JUMP JUMPDEST SWAP2 POP POP PUSH2 0x3391 JUMP JUMPDEST POP PUSH2 0x343B DUP2 PUSH8 0xDE0B6B3A7640000 PUSH2 0x573E JUMP JUMPDEST SWAP1 POP PUSH1 0x0 PUSH2 0x2710 PUSH1 0x2D SLOAD PUSH1 0x22 DUP9 DUP2 SLOAD DUP2 LT PUSH2 0x3458 JUMPI PUSH2 0x3458 PUSH2 0x556C JUMP JUMPDEST PUSH1 0x0 SWAP2 DUP3 MSTORE PUSH1 0x20 SWAP1 SWAP2 KECCAK256 PUSH1 0x4 SWAP1 SWAP2 MUL ADD PUSH1 0x2 ADD SLOAD PUSH2 0x3486 SWAP2 SWAP1 PUSH1 0x1 PUSH1 0x80 SHL SWAP1 DIV PUSH1 0x1 PUSH1 0x1 PUSH1 0x80 SHL SUB AND PUSH2 0x573E JUMP JUMPDEST PUSH2 0x3490 SWAP2 SWAP1 PUSH2 0x5773 JUMP JUMPDEST SWAP1 POP PUSH1 0x0 PUSH2 0x2710 PUSH1 0x2E SLOAD PUSH1 0x22 DUP10 DUP2 SLOAD DUP2 LT PUSH2 0x34AD JUMPI PUSH2 0x34AD PUSH2 0x556C JUMP JUMPDEST PUSH1 0x0 SWAP2 DUP3 MSTORE PUSH1 0x20 SWAP1 SWAP2 KECCAK256 PUSH1 0x4 SWAP1 SWAP2 MUL ADD PUSH1 0x2 ADD SLOAD PUSH2 0x34DB SWAP2 SWAP1 PUSH1 0x1 PUSH1 0x80 SHL SWAP1 DIV PUSH1 0x1 PUSH1 0x1 PUSH1 0x80 SHL SUB AND PUSH2 0x573E JUMP JUMPDEST PUSH2 0x34E5 SWAP2 SWAP1 PUSH2 0x5773 JUMP JUMPDEST SWAP1 POP DUP2 DUP4 GT PUSH2 0x34F8 JUMPI PUSH1 0x2C SLOAD SWAP6 POP PUSH2 0x3565 JUMP JUMPDEST DUP3 DUP3 LT DUP1 ISZERO PUSH2 0x3506 JUMPI POP DUP1 DUP4 LT JUMPDEST ISZERO PUSH2 0x3557 JUMPI PUSH2 0x3515 DUP3 DUP3 PUSH2 0x5727 JUMP JUMPDEST PUSH1 0x2B SLOAD PUSH1 0x2C SLOAD PUSH2 0x3525 SWAP2 SWAP1 PUSH2 0x5727 JUMP JUMPDEST PUSH2 0x352F DUP5 DUP7 PUSH2 0x5727 JUMP JUMPDEST PUSH2 0x3539 SWAP2 SWAP1 PUSH2 0x573E JUMP JUMPDEST PUSH2 0x3543 SWAP2 SWAP1 PUSH2 0x5773 JUMP JUMPDEST PUSH1 0x2C SLOAD PUSH2 0x3550 SWAP2 SWAP1 PUSH2 0x5727 JUMP JUMPDEST SWAP6 POP PUSH2 0x3565 JUMP JUMPDEST DUP1 DUP4 GT ISZERO PUSH2 0x3565 JUMPI PUSH1 0x2B SLOAD SWAP6 POP JUMPDEST PUSH2 0x3571 DUP7 PUSH2 0x2710 PUSH2 0x5727 JUMP JUMPDEST SWAP8 SWAP7 POP POP POP POP POP POP POP JUMP JUMPDEST DUP2 PUSH1 0x1 PUSH1 0x1 PUSH1 0xA0 SHL SUB AND DUP4 PUSH1 0x1 PUSH1 0x1 PUSH1 0xA0 SHL SUB AND EQ ISZERO PUSH2 0x35F0 JUMPI PUSH1 0x40 MLOAD PUSH3 0x461BCD PUSH1 0xE5 SHL DUP2 MSTORE PUSH1 0x20 PUSH1 0x4 DUP3 ADD MSTORE PUSH1 0x29 PUSH1 0x24 DUP3 ADD MSTORE PUSH32 0x455243313135353A2073657474696E6720617070726F76616C20737461747573 PUSH1 0x44 DUP3 ADD MSTORE PUSH9 0x103337B91039B2B633 PUSH1 0xB9 SHL PUSH1 0x64 DUP3 ADD MSTORE PUSH1 0x84 ADD PUSH2 0x91C JUMP JUMPDEST PUSH1 0x1 PUSH1 0x1 PUSH1 0xA0 SHL SUB DUP4 DUP2 AND PUSH1 0x0 DUP2 DUP2 MSTORE PUSH1 0x1 PUSH1 0x20 SWAP1 DUP2 MSTORE PUSH1 0x40 DUP1 DUP4 KECCAK256 SWAP5 DUP8 AND DUP1 DUP5 MSTORE SWAP5 DUP3 MSTORE SWAP2 DUP3 SWAP1 KECCAK256 DUP1 SLOAD PUSH1 0xFF NOT AND DUP7 ISZERO ISZERO SWAP1 DUP2 OR SWAP1 SWAP2 SSTORE SWAP2 MLOAD SWAP2 DUP3 MSTORE PUSH32 0x17307EAB39AB6107E8899845AD3D59BD9653F200F220920489CA2B5937696C31 SWAP2 ADD PUSH1 0x40 MLOAD DUP1 SWAP2 SUB SWAP1 LOG3 POP POP POP JUMP JUMPDEST PUSH1 0x1 PUSH1 0x1 PUSH1 0xA0 SHL SUB DUP5 AND PUSH1 0x0 SWAP1 DUP2 MSTORE PUSH1 0x23 PUSH1 0x20 MSTORE PUSH1 0x40 SWAP1 KECCAK256 SLOAD DUP5 SWAP1 ISZERO DUP1 ISZERO SWAP1 PUSH2 0x3694 JUMPI POP PUSH1 0x26 SLOAD PUSH1 0x1 PUSH1 0x1 PUSH1 0xA0 SHL SUB DUP3 DUP2 AND SWAP2 AND EQ ISZERO JUMPDEST PUSH1 0xB SWAP1 PUSH2 0x36B4 JUMPI PUSH1 0x40 MLOAD PUSH3 0x461BCD PUSH1 0xE5 SHL DUP2 MSTORE PUSH1 0x4 ADD PUSH2 0x91C SWAP2 SWAP1 PUSH2 0x56A2 JUMP JUMPDEST POP PUSH1 0x1 PUSH1 0x1 PUSH1 0xA0 SHL SUB DUP1 DUP7 AND PUSH1 0x0 SWAP1 DUP2 MSTORE PUSH1 0x23 PUSH1 0x20 MSTORE PUSH1 0x40 DUP2 KECCAK256 SLOAD PUSH1 0x26 SLOAD SWAP1 SWAP3 PUSH2 0x36DE SWAP2 AND PUSH2 0x28CD JUMP JUMPDEST SWAP1 POP PUSH1 0x0 PUSH1 0x24 SLOAD DUP3 PUSH2 0x36F0 SWAP2 SWAP1 PUSH2 0x5727 JUMP JUMPDEST SWAP1 POP PUSH1 0x0 PUSH2 0x36FD DUP10 PUSH2 0x28CD JUMP JUMPDEST SWAP1 POP PUSH1 0x0 PUSH1 0x22 DUP6 DUP2 SLOAD DUP2 LT PUSH2 0x3714 JUMPI PUSH2 0x3714 PUSH2 0x556C JUMP JUMPDEST PUSH1 0x0 SWAP2 DUP3 MSTORE PUSH1 0x20 SWAP1 SWAP2 KECCAK256 PUSH1 0x2 PUSH1 0x4 SWAP1 SWAP3 MUL ADD ADD SLOAD PUSH2 0x373B SWAP1 PUSH1 0x1 PUSH1 0x1 PUSH1 0x80 SHL SUB AND DUP4 PUSH2 0x5727 JUMP JUMPDEST SWAP1 POP PUSH1 0x1 PUSH2 0x3749 DUP5 DUP4 PUSH2 0x568A JUMP JUMPDEST PUSH1 0x17 SWAP2 LT PUSH2 0x376A JUMPI PUSH1 0x40 MLOAD PUSH3 0x461BCD PUSH1 0xE5 SHL DUP2 MSTORE PUSH1 0x4 ADD PUSH2 0x91C SWAP2 SWAP1 PUSH2 0x56A2 JUMP JUMPDEST POP PUSH1 0x0 PUSH2 0x3776 DUP7 PUSH2 0x3365 JUMP JUMPDEST SWAP1 POP PUSH1 0x0 PUSH2 0x2710 PUSH1 0x22 DUP9 DUP2 SLOAD DUP2 LT PUSH2 0x3790 JUMPI PUSH2 0x3790 PUSH2 0x556C JUMP JUMPDEST SWAP1 PUSH1 0x0 MSTORE PUSH1 0x20 PUSH1 0x0 KECCAK256 SWAP1 PUSH1 0x4 MUL ADD PUSH1 0x2 ADD PUSH1 0x0 SWAP1 SLOAD SWAP1 PUSH2 0x100 EXP SWAP1 DIV PUSH1 0x1 PUSH1 0x1 PUSH1 0x80 SHL SUB AND PUSH1 0x1 PUSH1 0x1 PUSH1 0x80 SHL SUB AND PUSH2 0x2710 PUSH1 0x22 DUP11 DUP2 SLOAD DUP2 LT PUSH2 0x37D4 JUMPI PUSH2 0x37D4 PUSH2 0x556C JUMP JUMPDEST PUSH1 0x0 SWAP2 DUP3 MSTORE PUSH1 0x20 SWAP1 SWAP2 KECCAK256 PUSH1 0x4 SWAP1 SWAP2 MUL ADD PUSH1 0x2 ADD SLOAD PUSH2 0x3802 SWAP2 SWAP1 PUSH1 0x1 PUSH1 0x80 SHL SWAP1 DIV PUSH1 0x1 PUSH1 0x1 PUSH1 0x80 SHL SUB AND PUSH2 0x573E JUMP JUMPDEST PUSH2 0x380C SWAP2 SWAP1 PUSH2 0x573E JUMP JUMPDEST PUSH2 0x3816 SWAP2 SWAP1 PUSH2 0x573E JUMP JUMPDEST SWAP1 POP PUSH1 0x0 DUP11 DUP7 PUSH1 0x24 SLOAD PUSH2 0x3829 SWAP2 SWAP1 PUSH2 0x568A JUMP JUMPDEST PUSH2 0x3833 SWAP2 SWAP1 PUSH2 0x5727 JUMP JUMPDEST SWAP1 POP PUSH1 0x0 DUP12 DUP8 PUSH1 0x22 DUP12 DUP2 SLOAD DUP2 LT PUSH2 0x384C JUMPI PUSH2 0x384C PUSH2 0x556C JUMP JUMPDEST PUSH1 0x0 SWAP2 DUP3 MSTORE PUSH1 0x20 SWAP1 SWAP2 KECCAK256 PUSH1 0x4 SWAP1 SWAP2 MUL ADD PUSH1 0x2 ADD SLOAD PUSH2 0x387A SWAP2 SWAP1 PUSH1 0x1 PUSH1 0x80 SHL SWAP1 DIV PUSH1 0x1 PUSH1 0x1 PUSH1 0x80 SHL SUB AND PUSH2 0x568A JUMP JUMPDEST PUSH2 0x3884 SWAP2 SWAP1 PUSH2 0x5727 JUMP JUMPDEST SWAP1 POP PUSH1 0x0 DUP14 DUP7 PUSH1 0x22 DUP13 DUP2 SLOAD DUP2 LT PUSH2 0x389D JUMPI PUSH2 0x389D PUSH2 0x556C JUMP JUMPDEST PUSH1 0x0 SWAP2 DUP3 MSTORE PUSH1 0x20 SWAP1 SWAP2 KECCAK256 PUSH1 0x2 PUSH1 0x4 SWAP1 SWAP3 MUL ADD ADD SLOAD PUSH2 0x38C4 SWAP2 SWAP1 PUSH1 0x1 PUSH1 0x1 PUSH1 0x80 SHL SUB AND PUSH2 0x568A JUMP JUMPDEST PUSH2 0x38CE SWAP2 SWAP1 PUSH2 0x5727 JUMP JUMPDEST SWAP1 POP PUSH1 0x0 PUSH2 0x38DE DUP7 PUSH2 0x2710 PUSH2 0x5727 JUMP JUMPDEST PUSH2 0x38E8 SWAP1 DUP9 PUSH2 0x573E JUMP JUMPDEST PUSH2 0x38F4 PUSH2 0x2710 DUP5 PUSH2 0x573E JUMP JUMPDEST PUSH2 0x38FE SWAP2 SWAP1 PUSH2 0x5727 JUMP JUMPDEST PUSH2 0x390A DUP8 PUSH2 0x2710 PUSH2 0x5727 JUMP JUMPDEST PUSH2 0x3914 SWAP1 DUP12 PUSH2 0x573E JUMP JUMPDEST PUSH2 0x3920 PUSH2 0x2710 DUP7 PUSH2 0x573E JUMP JUMPDEST PUSH2 0x392A SWAP2 SWAP1 PUSH2 0x5727 JUMP JUMPDEST PUSH2 0x3934 SWAP2 SWAP1 PUSH2 0x573E JUMP JUMPDEST SWAP1 POP PUSH1 0x18 DUP6 DUP3 LT ISZERO PUSH2 0x3959 JUMPI PUSH1 0x40 MLOAD PUSH3 0x461BCD PUSH1 0xE5 SHL DUP2 MSTORE PUSH1 0x4 ADD PUSH2 0x91C SWAP2 SWAP1 PUSH2 0x56A2 JUMP JUMPDEST POP DUP4 PUSH1 0x24 DUP2 SWAP1 SSTORE POP DUP3 PUSH1 0x22 DUP13 DUP2 SLOAD DUP2 LT PUSH2 0x3975 JUMPI PUSH2 0x3975 PUSH2 0x556C JUMP JUMPDEST SWAP1 PUSH1 0x0 MSTORE PUSH1 0x20 PUSH1 0x0 KECCAK256 SWAP1 PUSH1 0x4 MUL ADD PUSH1 0x2 ADD PUSH1 0x10 PUSH2 0x100 EXP DUP2 SLOAD DUP2 PUSH1 0x1 PUSH1 0x1 PUSH1 0x80 SHL SUB MUL NOT AND SWAP1 DUP4 PUSH1 0x1 PUSH1 0x1 PUSH1 0x80 SHL SUB AND MUL OR SWAP1 SSTORE POP DUP2 PUSH1 0x22 DUP13 DUP2 SLOAD DUP2 LT PUSH2 0x39BE JUMPI PUSH2 0x39BE PUSH2 0x556C JUMP JUMPDEST SWAP1 PUSH1 0x0 MSTORE PUSH1 0x20 PUSH1 0x0 KECCAK256 SWAP1 PUSH1 0x4 MUL ADD PUSH1 0x2 ADD PUSH1 0x0 PUSH2 0x100 EXP DUP2 SLOAD DUP2 PUSH1 0x1 PUSH1 0x1 PUSH1 0x80 SHL SUB MUL NOT AND SWAP1 DUP4 PUSH1 0x1 PUSH1 0x1 PUSH1 0x80 SHL SUB AND MUL OR SWAP1 SSTORE POP POP POP POP POP POP POP PUSH1 0x0 PUSH2 0x3A03 PUSH2 0x47B8 JUMP JUMPDEST SWAP1 POP PUSH1 0x0 PUSH1 0x8 PUSH2 0x3A11 PUSH2 0x47B8 JUMP JUMPDEST PUSH2 0x3A1C SWAP1 PUSH1 0x1 PUSH2 0x568A JUMP JUMPDEST PUSH2 0x3A26 SWAP2 SWAP1 PUSH2 0x5A35 JUMP JUMPDEST SWAP1 POP PUSH8 0xDE0B6B3A7640000 DUP6 DUP12 ADD DIV PUSH1 0x22 DUP9 DUP2 SLOAD DUP2 LT PUSH2 0x3A48 JUMPI PUSH2 0x3A48 PUSH2 0x556C JUMP JUMPDEST SWAP1 PUSH1 0x0 MSTORE PUSH1 0x20 PUSH1 0x0 KECCAK256 SWAP1 PUSH1 0x4 MUL ADD PUSH1 0x1 ADD DUP4 PUSH1 0x8 DUP2 LT PUSH2 0x3A6A JUMPI PUSH2 0x3A6A PUSH2 0x556C JUMP JUMPDEST PUSH1 0x8 SWAP2 DUP3 DUP3 DIV ADD SWAP2 SWAP1 MOD PUSH1 0x4 MUL DUP3 DUP3 DUP3 SWAP1 SLOAD SWAP1 PUSH2 0x100 EXP SWAP1 DIV PUSH4 0xFFFFFFFF AND ADD SWAP3 POP PUSH2 0x100 EXP DUP2 SLOAD DUP2 PUSH4 0xFFFFFFFF MUL NOT AND SWAP1 DUP4 PUSH4 0xFFFFFFFF AND MUL OR SWAP1 SSTORE POP PUSH1 0x1 PUSH1 0x22 DUP9 DUP2 SLOAD DUP2 LT PUSH2 0x3ABD JUMPI PUSH2 0x3ABD PUSH2 0x556C JUMP JUMPDEST SWAP1 PUSH1 0x0 MSTORE PUSH1 0x20 PUSH1 0x0 KECCAK256 SWAP1 PUSH1 0x4 MUL ADD PUSH1 0x1 ADD DUP3 PUSH1 0x8 DUP2 LT PUSH2 0x3ADF JUMPI PUSH2 0x3ADF PUSH2 0x556C JUMP JUMPDEST PUSH1 0x8 SWAP2 DUP3 DUP3 DIV ADD SWAP2 SWAP1 MOD PUSH1 0x4 MUL SWAP1 SLOAD SWAP1 PUSH2 0x100 EXP SWAP1 DIV PUSH4 0xFFFFFFFF AND PUSH4 0xFFFFFFFF AND GT ISZERO PUSH2 0x3B68 JUMPI PUSH1 0x1 PUSH1 0x22 DUP9 DUP2 SLOAD DUP2 LT PUSH2 0x3B1C JUMPI PUSH2 0x3B1C PUSH2 0x556C JUMP JUMPDEST SWAP1 PUSH1 0x0 MSTORE PUSH1 0x20 PUSH1 0x0 KECCAK256 SWAP1 PUSH1 0x4 MUL ADD PUSH1 0x1 ADD DUP3 PUSH1 0x8 DUP2 LT PUSH2 0x3B3E JUMPI PUSH2 0x3B3E PUSH2 0x556C JUMP JUMPDEST PUSH1 0x8 SWAP2 DUP3 DUP3 DIV ADD SWAP2 SWAP1 MOD PUSH1 0x4 MUL PUSH2 0x100 EXP DUP2 SLOAD DUP2 PUSH4 0xFFFFFFFF MUL NOT AND SWAP1 DUP4 PUSH4 0xFFFFFFFF AND MUL OR SWAP1 SSTORE POP JUMPDEST DUP11 ISZERO PUSH2 0x3BDD JUMPI PUSH2 0x3B7B DUP13 DUP11 DUP14 PUSH1 0x1 PUSH2 0x45D8 JUMP JUMPDEST PUSH1 0x0 PUSH2 0x3B86 DUP14 PUSH2 0x28CD JUMP JUMPDEST SWAP1 POP PUSH1 0x22 DUP9 DUP2 SLOAD DUP2 LT PUSH2 0x3B9B JUMPI PUSH2 0x3B9B PUSH2 0x556C JUMP JUMPDEST PUSH1 0x0 SWAP2 DUP3 MSTORE PUSH1 0x20 SWAP1 SWAP2 KECCAK256 PUSH1 0x2 PUSH1 0x4 SWAP1 SWAP3 MUL ADD ADD SLOAD PUSH1 0xD SWAP1 PUSH1 0x1 PUSH1 0x1 PUSH1 0x80 SHL SUB AND DUP3 EQ PUSH2 0x3BDA JUMPI PUSH1 0x40 MLOAD PUSH3 0x461BCD PUSH1 0xE5 SHL DUP2 MSTORE PUSH1 0x4 ADD PUSH2 0x91C SWAP2 SWAP1 PUSH2 0x56A2 JUMP JUMPDEST POP POP JUMPDEST DUP10 ISZERO PUSH2 0x334B JUMPI PUSH1 0x26 SLOAD PUSH2 0x334B SWAP1 PUSH1 0x1 PUSH1 0x1 PUSH1 0xA0 SHL SUB AND DUP11 DUP13 PUSH1 0x1 PUSH2 0x45D8 JUMP JUMPDEST DUP1 MLOAD PUSH2 0xCD3 SWAP1 PUSH1 0x2 SWAP1 PUSH1 0x20 DUP5 ADD SWAP1 PUSH2 0x4AC5 JUMP JUMPDEST PUSH1 0x1 PUSH1 0x1 PUSH1 0xA0 SHL SUB DUP3 AND PUSH1 0x0 SWAP1 DUP2 MSTORE PUSH1 0x23 PUSH1 0x20 MSTORE PUSH1 0x40 DUP2 KECCAK256 SLOAD DUP4 SWAP1 ISZERO DUP1 ISZERO SWAP1 PUSH2 0x3C46 JUMPI POP PUSH1 0x26 SLOAD PUSH1 0x1 PUSH1 0x1 PUSH1 0xA0 SHL SUB DUP3 DUP2 AND SWAP2 AND EQ ISZERO JUMPDEST PUSH1 0xB SWAP1 PUSH2 0x3C66 JUMPI PUSH1 0x40 MLOAD PUSH3 0x461BCD PUSH1 0xE5 SHL DUP2 MSTORE PUSH1 0x4 ADD PUSH2 0x91C SWAP2 SWAP1 PUSH2 0x56A2 JUMP JUMPDEST POP PUSH1 0x1 PUSH1 0x1 PUSH1 0xA0 SHL SUB DUP5 AND PUSH1 0x0 SWAP1 DUP2 MSTORE PUSH1 0x23 PUSH1 0x20 MSTORE PUSH1 0x40 SWAP1 KECCAK256 SLOAD PUSH1 0x22 DUP1 SLOAD PUSH2 0x2C26 SWAP2 DUP7 SWAP2 DUP5 SWAP1 DUP2 LT PUSH2 0x3C9A JUMPI PUSH2 0x3C9A PUSH2 0x556C JUMP JUMPDEST PUSH1 0x0 SWAP2 DUP3 MSTORE PUSH1 0x20 SWAP1 SWAP2 KECCAK256 PUSH1 0x2 PUSH1 0x4 SWAP1 SWAP3 MUL ADD ADD SLOAD PUSH1 0x22 DUP1 SLOAD PUSH1 0x1 PUSH1 0x1 PUSH1 0x80 SHL SUB SWAP1 SWAP3 AND SWAP2 DUP6 SWAP1 DUP2 LT PUSH2 0x3CCE JUMPI PUSH2 0x3CCE PUSH2 0x556C JUMP JUMPDEST PUSH1 0x0 SWAP2 DUP3 MSTORE PUSH1 0x20 SWAP1 SWAP2 KECCAK256 PUSH1 0x4 SWAP1 SWAP2 MUL ADD PUSH1 0x2 ADD SLOAD PUSH1 0x1 PUSH1 0x80 SHL SWAP1 DIV PUSH1 0x1 PUSH1 0x1 PUSH1 0x80 SHL SUB AND PUSH2 0x3CFB DUP6 PUSH2 0x3365 JUMP JUMPDEST PUSH2 0x47D7 JUMP JUMPDEST PUSH1 0x1 PUSH1 0x1 PUSH1 0xA0 SHL SUB DUP3 AND PUSH1 0x0 SWAP1 DUP2 MSTORE PUSH1 0x23 PUSH1 0x20 MSTORE PUSH1 0x40 DUP2 KECCAK256 SLOAD DUP4 SWAP1 ISZERO DUP1 ISZERO SWAP1 PUSH2 0x3D37 JUMPI POP PUSH1 0x26 SLOAD PUSH1 0x1 PUSH1 0x1 PUSH1 0xA0 SHL SUB DUP3 DUP2 AND SWAP2 AND EQ ISZERO JUMPDEST PUSH1 0xB SWAP1 PUSH2 0x3D57 JUMPI PUSH1 0x40 MLOAD PUSH3 0x461BCD PUSH1 0xE5 SHL DUP2 MSTORE PUSH1 0x4 ADD PUSH2 0x91C SWAP2 SWAP1 PUSH2 0x56A2 JUMP JUMPDEST POP PUSH1 0x1 PUSH1 0x1 PUSH1 0xA0 SHL SUB DUP5 AND PUSH1 0x0 SWAP1 DUP2 MSTORE PUSH1 0x23 PUSH1 0x20 MSTORE PUSH1 0x40 SWAP1 KECCAK256 SLOAD PUSH1 0x22 DUP1 SLOAD PUSH2 0x2C26 SWAP2 DUP7 SWAP2 DUP5 SWAP1 DUP2 LT PUSH2 0x3D8B JUMPI PUSH2 0x3D8B PUSH2 0x556C JUMP JUMPDEST SWAP1 PUSH1 0x0 MSTORE PUSH1 0x20 PUSH1 0x0 KECCAK256 SWAP1 PUSH1 0x4 MUL ADD PUSH1 0x2 ADD PUSH1 0x10 SWAP1 SLOAD SWAP1 PUSH2 0x100 EXP SWAP1 DIV PUSH1 0x1 PUSH1 0x1 PUSH1 0x80 SHL SUB AND PUSH1 0x1 PUSH1 0x1 PUSH1 0x80 SHL SUB AND PUSH1 0x22 DUP5 DUP2 SLOAD DUP2 LT PUSH2 0x3DCC JUMPI PUSH2 0x3DCC PUSH2 0x556C JUMP JUMPDEST PUSH1 0x0 SWAP2 DUP3 MSTORE PUSH1 0x20 SWAP1 SWAP2 KECCAK256 PUSH1 0x2 PUSH1 0x4 SWAP1 SWAP3 MUL ADD ADD SLOAD PUSH1 0x1 PUSH1 0x1 PUSH1 0x80 SHL SUB AND PUSH2 0x3CFB DUP6 PUSH2 0x3365 JUMP JUMPDEST PUSH1 0x0 PUSH2 0x948 DUP3 SLOAD SWAP1 JUMP JUMPDEST PUSH1 0x1 PUSH1 0x1 PUSH1 0xA0 SHL SUB DUP5 AND PUSH2 0x3E22 JUMPI PUSH1 0x40 MLOAD PUSH3 0x461BCD PUSH1 0xE5 SHL DUP2 MSTORE PUSH1 0x4 ADD PUSH2 0x91C SWAP1 PUSH2 0x58E1 JUMP JUMPDEST CALLER PUSH2 0x3E32 DUP2 DUP8 DUP8 PUSH2 0x2A96 DUP9 PUSH2 0x4618 JUMP JUMPDEST PUSH1 0x0 DUP5 DUP2 MSTORE PUSH1 0x20 DUP2 DUP2 MSTORE PUSH1 0x40 DUP1 DUP4 KECCAK256 PUSH1 0x1 PUSH1 0x1 PUSH1 0xA0 SHL SUB DUP11 AND DUP5 MSTORE SWAP1 SWAP2 MSTORE SWAP1 KECCAK256 SLOAD DUP4 DUP2 LT ISZERO PUSH2 0x3E73 JUMPI PUSH1 0x40 MLOAD PUSH3 0x461BCD PUSH1 0xE5 SHL DUP2 MSTORE PUSH1 0x4 ADD PUSH2 0x91C SWAP1 PUSH2 0x5926 JUMP JUMPDEST PUSH1 0x0 DUP6 DUP2 MSTORE PUSH1 0x20 DUP2 DUP2 MSTORE PUSH1 0x40 DUP1 DUP4 KECCAK256 PUSH1 0x1 PUSH1 0x1 PUSH1 0xA0 SHL SUB DUP12 DUP2 AND DUP6 MSTORE SWAP3 MSTORE DUP1 DUP4 KECCAK256 DUP8 DUP6 SUB SWAP1 SSTORE SWAP1 DUP9 AND DUP3 MSTORE DUP2 KECCAK256 DUP1 SLOAD DUP7 SWAP3 SWAP1 PUSH2 0x3EB0 SWAP1 DUP5 SWAP1 PUSH2 0x568A JUMP JUMPDEST SWAP1 SWAP2 SSTORE POP POP PUSH1 0x40 DUP1 MLOAD DUP7 DUP2 MSTORE PUSH1 0x20 DUP2 ADD DUP7 SWAP1 MSTORE PUSH1 0x1 PUSH1 0x1 PUSH1 0xA0 SHL SUB DUP1 DUP10 AND SWAP3 DUP11 DUP3 AND SWAP3 SWAP2 DUP7 AND SWAP2 PUSH32 0xC3D58168C5AE7397731D063D5BBF3D657854427343F4C083240F7AACAA2D0F62 SWAP2 ADD PUSH1 0x40 MLOAD DUP1 SWAP2 SUB SWAP1 LOG4 PUSH2 0x3F10 DUP3 DUP9 DUP9 DUP9 DUP9 DUP9 PUSH2 0x4663 JUMP JUMPDEST POP POP POP POP POP POP POP JUMP JUMPDEST PUSH1 0x1 PUSH1 0x1 PUSH1 0xA0 SHL SUB DUP4 AND PUSH2 0x3F3F JUMPI PUSH1 0x40 MLOAD PUSH3 0x461BCD PUSH1 0xE5 SHL DUP2 MSTORE PUSH1 0x4 ADD PUSH2 0x91C SWAP1 PUSH2 0x59AE JUMP JUMPDEST CALLER PUSH2 0x3F6E DUP2 DUP6 PUSH1 0x0 PUSH2 0x3F50 DUP8 PUSH2 0x4618 JUMP JUMPDEST PUSH2 0x3F59 DUP8 PUSH2 0x4618 JUMP JUMPDEST PUSH1 0x40 MLOAD DUP1 PUSH1 0x20 ADD PUSH1 0x40 MSTORE DUP1 PUSH1 0x0 DUP2 MSTORE POP PUSH2 0x4204 JUMP JUMPDEST PUSH1 0x0 DUP4 DUP2 MSTORE PUSH1 0x20 DUP2 DUP2 MSTORE PUSH1 0x40 DUP1 DUP4 KECCAK256 PUSH1 0x1 PUSH1 0x1 PUSH1 0xA0 SHL SUB DUP9 AND DUP5 MSTORE SWAP1 SWAP2 MSTORE SWAP1 KECCAK256 SLOAD DUP3 DUP2 LT ISZERO PUSH2 0x3FAF JUMPI PUSH1 0x40 MLOAD PUSH3 0x461BCD PUSH1 0xE5 SHL DUP2 MSTORE PUSH1 0x4 ADD PUSH2 0x91C SWAP1 PUSH2 0x59F1 JUMP JUMPDEST PUSH1 0x0 DUP5 DUP2 MSTORE PUSH1 0x20 DUP2 DUP2 MSTORE PUSH1 0x40 DUP1 DUP4 KECCAK256 PUSH1 0x1 PUSH1 0x1 PUSH1 0xA0 SHL SUB DUP10 DUP2 AND DUP1 DUP7 MSTORE SWAP2 DUP5 MSTORE DUP3 DUP6 KECCAK256 DUP9 DUP8 SUB SWAP1 SSTORE DUP3 MLOAD DUP10 DUP2 MSTORE SWAP4 DUP5 ADD DUP9 SWAP1 MSTORE SWAP1 SWAP3 SWAP1 DUP7 AND SWAP2 PUSH32 0xC3D58168C5AE7397731D063D5BBF3D657854427343F4C083240F7AACAA2D0F62 SWAP2 ADD PUSH1 0x40 MLOAD DUP1 SWAP2 SUB SWAP1 LOG4 POP POP POP POP POP JUMP JUMPDEST PUSH1 0x0 DUP2 DUP2 MSTORE PUSH1 0x1 DUP4 ADD PUSH1 0x20 MSTORE PUSH1 0x40 DUP2 KECCAK256 SLOAD PUSH2 0x4061 JUMPI POP DUP2 SLOAD PUSH1 0x1 DUP2 DUP2 ADD DUP5 SSTORE PUSH1 0x0 DUP5 DUP2 MSTORE PUSH1 0x20 DUP1 DUP3 KECCAK256 SWAP1 SWAP4 ADD DUP5 SWAP1 SSTORE DUP5 SLOAD DUP5 DUP3 MSTORE DUP3 DUP7 ADD SWAP1 SWAP4 MSTORE PUSH1 0x40 SWAP1 KECCAK256 SWAP2 SWAP1 SWAP2 SSTORE PUSH2 0x948 JUMP JUMPDEST POP PUSH1 0x0 PUSH2 0x948 JUMP JUMPDEST PUSH1 0x60 PUSH1 0x0 PUSH2 0x4078 DUP4 PUSH1 0x2 PUSH2 0x573E JUMP JUMPDEST PUSH2 0x4083 SWAP1 PUSH1 0x2 PUSH2 0x568A JUMP JUMPDEST PUSH1 0x1 PUSH1 0x1 PUSH1 0x40 SHL SUB DUP2 GT ISZERO PUSH2 0x409A JUMPI PUSH2 0x409A PUSH2 0x4DBD JUMP JUMPDEST PUSH1 0x40 MLOAD SWAP1 DUP1 DUP3 MSTORE DUP1 PUSH1 0x1F ADD PUSH1 0x1F NOT AND PUSH1 0x20 ADD DUP3 ADD PUSH1 0x40 MSTORE DUP1 ISZERO PUSH2 0x40C4 JUMPI PUSH1 0x20 DUP3 ADD DUP2 DUP1 CALLDATASIZE DUP4 CALLDATACOPY ADD SWAP1 POP JUMPDEST POP SWAP1 POP PUSH1 0x3 PUSH1 0xFC SHL DUP2 PUSH1 0x0 DUP2 MLOAD DUP2 LT PUSH2 0x40DF JUMPI PUSH2 0x40DF PUSH2 0x556C JUMP JUMPDEST PUSH1 0x20 ADD ADD SWAP1 PUSH1 0x1 PUSH1 0x1 PUSH1 0xF8 SHL SUB NOT AND SWAP1 DUP2 PUSH1 0x0 BYTE SWAP1 MSTORE8 POP PUSH1 0xF PUSH1 0xFB SHL DUP2 PUSH1 0x1 DUP2 MLOAD DUP2 LT PUSH2 0x410E JUMPI PUSH2 0x410E PUSH2 0x556C JUMP JUMPDEST PUSH1 0x20 ADD ADD SWAP1 PUSH1 0x1 PUSH1 0x1 PUSH1 0xF8 SHL SUB NOT AND SWAP1 DUP2 PUSH1 0x0 BYTE SWAP1 MSTORE8 POP PUSH1 0x0 PUSH2 0x4132 DUP5 PUSH1 0x2 PUSH2 0x573E JUMP JUMPDEST PUSH2 0x413D SWAP1 PUSH1 0x1 PUSH2 0x568A JUMP JUMPDEST SWAP1 POP JUMPDEST PUSH1 0x1 DUP2 GT ISZERO PUSH2 0x41B5 JUMPI PUSH16 0x181899199A1A9B1B9C1CB0B131B232B3 PUSH1 0x81 SHL DUP6 PUSH1 0xF AND PUSH1 0x10 DUP2 LT PUSH2 0x4171 JUMPI PUSH2 0x4171 PUSH2 0x556C JUMP JUMPDEST BYTE PUSH1 0xF8 SHL DUP3 DUP3 DUP2 MLOAD DUP2 LT PUSH2 0x4187 JUMPI PUSH2 0x4187 PUSH2 0x556C JUMP JUMPDEST PUSH1 0x20 ADD ADD SWAP1 PUSH1 0x1 PUSH1 0x1 PUSH1 0xF8 SHL SUB NOT AND SWAP1 DUP2 PUSH1 0x0 BYTE SWAP1 MSTORE8 POP PUSH1 0x4 SWAP5 SWAP1 SWAP5 SHR SWAP4 PUSH2 0x41AE DUP2 PUSH2 0x5A49 JUMP JUMPDEST SWAP1 POP PUSH2 0x4140 JUMP JUMPDEST POP DUP4 ISZERO PUSH2 0x1370 JUMPI PUSH1 0x40 MLOAD PUSH3 0x461BCD PUSH1 0xE5 SHL DUP2 MSTORE PUSH1 0x20 PUSH1 0x4 DUP3 ADD DUP2 SWAP1 MSTORE PUSH1 0x24 DUP3 ADD MSTORE PUSH32 0x537472696E67733A20686578206C656E67746820696E73756666696369656E74 PUSH1 0x44 DUP3 ADD MSTORE PUSH1 0x64 ADD PUSH2 0x91C JUMP JUMPDEST PUSH1 0x1 PUSH1 0x1 PUSH1 0xA0 SHL SUB DUP6 AND PUSH2 0x428B JUMPI PUSH1 0x0 JUMPDEST DUP4 MLOAD DUP2 LT ISZERO PUSH2 0x4289 JUMPI DUP3 DUP2 DUP2 MLOAD DUP2 LT PUSH2 0x4230 JUMPI PUSH2 0x4230 PUSH2 0x556C JUMP JUMPDEST PUSH1 0x20 MUL PUSH1 0x20 ADD ADD MLOAD PUSH1 0x3 PUSH1 0x0 DUP7 DUP5 DUP2 MLOAD DUP2 LT PUSH2 0x424E JUMPI PUSH2 0x424E PUSH2 0x556C JUMP JUMPDEST PUSH1 0x20 MUL PUSH1 0x20 ADD ADD MLOAD DUP2 MSTORE PUSH1 0x20 ADD SWAP1 DUP2 MSTORE PUSH1 0x20 ADD PUSH1 0x0 KECCAK256 PUSH1 0x0 DUP3 DUP3 SLOAD PUSH2 0x4273 SWAP2 SWAP1 PUSH2 0x568A JUMP JUMPDEST SWAP1 SWAP2 SSTORE POP PUSH2 0x4282 SWAP1 POP DUP2 PUSH2 0x5598 JUMP JUMPDEST SWAP1 POP PUSH2 0x4215 JUMP JUMPDEST POP JUMPDEST PUSH1 0x1 PUSH1 0x1 PUSH1 0xA0 SHL SUB DUP5 AND PUSH2 0x15AD JUMPI PUSH1 0x0 JUMPDEST DUP4 MLOAD DUP2 LT ISZERO PUSH2 0x3F10 JUMPI DUP3 DUP2 DUP2 MLOAD DUP2 LT PUSH2 0x42B7 JUMPI PUSH2 0x42B7 PUSH2 0x556C JUMP JUMPDEST PUSH1 0x20 MUL PUSH1 0x20 ADD ADD MLOAD PUSH1 0x3 PUSH1 0x0 DUP7 DUP5 DUP2 MLOAD DUP2 LT PUSH2 0x42D5 JUMPI PUSH2 0x42D5 PUSH2 0x556C JUMP JUMPDEST PUSH1 0x20 MUL PUSH1 0x20 ADD ADD MLOAD DUP2 MSTORE PUSH1 0x20 ADD SWAP1 DUP2 MSTORE PUSH1 0x20 ADD PUSH1 0x0 KECCAK256 PUSH1 0x0 DUP3 DUP3 SLOAD PUSH2 0x42FA SWAP2 SWAP1 PUSH2 0x5727 JUMP JUMPDEST SWAP1 SWAP2 SSTORE POP PUSH2 0x4309 SWAP1 POP DUP2 PUSH2 0x5598 JUMP JUMPDEST SWAP1 POP PUSH2 0x429C JUMP JUMPDEST PUSH1 0x1 PUSH1 0x1 PUSH1 0xA0 SHL SUB DUP5 AND EXTCODESIZE ISZERO PUSH2 0x15AD JUMPI PUSH1 0x40 MLOAD PUSH4 0xBC197C81 PUSH1 0xE0 SHL DUP2 MSTORE PUSH1 0x1 PUSH1 0x1 PUSH1 0xA0 SHL SUB DUP6 AND SWAP1 PUSH4 0xBC197C81 SWAP1 PUSH2 0x4354 SWAP1 DUP10 SWAP1 DUP10 SWAP1 DUP9 SWAP1 DUP9 SWAP1 DUP9 SWAP1 PUSH1 0x4 ADD PUSH2 0x5A60 JUMP JUMPDEST PUSH1 0x20 PUSH1 0x40 MLOAD DUP1 DUP4 SUB DUP2 PUSH1 0x0 DUP8 GAS CALL SWAP3 POP POP POP DUP1 ISZERO PUSH2 0x438F JUMPI POP PUSH1 0x40 DUP1 MLOAD PUSH1 0x1F RETURNDATASIZE SWAP1 DUP2 ADD PUSH1 0x1F NOT AND DUP3 ADD SWAP1 SWAP3 MSTORE PUSH2 0x438C SWAP2 DUP2 ADD SWAP1 PUSH2 0x5ABE JUMP JUMPDEST PUSH1 0x1 JUMPDEST PUSH2 0x443C JUMPI PUSH2 0x439B PUSH2 0x5ADB JUMP JUMPDEST DUP1 PUSH4 0x8C379A0 EQ ISZERO PUSH2 0x43D5 JUMPI POP PUSH2 0x43B0 PUSH2 0x5AF7 JUMP JUMPDEST DUP1 PUSH2 0x43BB JUMPI POP PUSH2 0x43D7 JUMP JUMPDEST DUP1 PUSH1 0x40 MLOAD PUSH3 0x461BCD PUSH1 0xE5 SHL DUP2 MSTORE PUSH1 0x4 ADD PUSH2 0x91C SWAP2 SWAP1 PUSH2 0x4DAA JUMP JUMPDEST POP JUMPDEST PUSH1 0x40 MLOAD PUSH3 0x461BCD PUSH1 0xE5 SHL DUP2 MSTORE PUSH1 0x20 PUSH1 0x4 DUP3 ADD MSTORE PUSH1 0x34 PUSH1 0x24 DUP3 ADD MSTORE PUSH32 0x455243313135353A207472616E7366657220746F206E6F6E2045524331313535 PUSH1 0x44 DUP3 ADD MSTORE PUSH20 0x2932B1B2B4BB32B91034B6B83632B6B2B73A32B9 PUSH1 0x61 SHL PUSH1 0x64 DUP3 ADD MSTORE PUSH1 0x84 ADD PUSH2 0x91C JUMP JUMPDEST PUSH1 0x1 PUSH1 0x1 PUSH1 0xE0 SHL SUB NOT DUP2 AND PUSH4 0xBC197C81 PUSH1 0xE0 SHL EQ PUSH2 0x3F10 JUMPI PUSH1 0x40 MLOAD PUSH3 0x461BCD PUSH1 0xE5 SHL DUP2 MSTORE PUSH1 0x4 ADD PUSH2 0x91C SWAP1 PUSH2 0x5B80 JUMP JUMPDEST PUSH2 0x4476 DUP3 DUP3 PUSH2 0x16A2 JUMP JUMPDEST ISZERO PUSH2 0xCD3 JUMPI PUSH1 0x0 DUP3 DUP2 MSTORE PUSH1 0x4 PUSH1 0x20 SWAP1 DUP2 MSTORE PUSH1 0x40 DUP1 DUP4 KECCAK256 PUSH1 0x1 PUSH1 0x1 PUSH1 0xA0 SHL SUB DUP6 AND DUP1 DUP6 MSTORE SWAP3 MSTORE DUP1 DUP4 KECCAK256 DUP1 SLOAD PUSH1 0xFF NOT AND SWAP1 SSTORE MLOAD CALLER SWAP3 DUP6 SWAP2 PUSH32 0xF6391F5C32D9C69D2A47EA670B442974B53935D1EDC7FD64EB21E047A839171B SWAP2 SWAP1 LOG4 POP POP JUMP JUMPDEST PUSH1 0x0 PUSH2 0x1370 DUP4 PUSH1 0x1 PUSH1 0x1 PUSH1 0xA0 SHL SUB DUP5 AND PUSH2 0x4858 JUMP JUMPDEST PUSH1 0x40 DUP1 MLOAD PUSH1 0x1 PUSH1 0x1 PUSH1 0xA0 SHL SUB DUP6 DUP2 AND PUSH1 0x24 DUP4 ADD MSTORE DUP5 DUP2 AND PUSH1 0x44 DUP4 ADD MSTORE PUSH1 0x64 DUP1 DUP4 ADD DUP6 SWAP1 MSTORE DUP4 MLOAD DUP1 DUP5 SUB SWAP1 SWAP2 ADD DUP2 MSTORE PUSH1 0x84 SWAP1 SWAP3 ADD DUP4 MSTORE PUSH1 0x20 DUP3 ADD DUP1 MLOAD PUSH1 0x1 PUSH1 0x1 PUSH1 0xE0 SHL SUB AND PUSH4 0x23B872DD PUSH1 0xE0 SHL OR SWAP1 MSTORE SWAP2 MLOAD PUSH1 0x0 SWAP3 DUP4 SWAP3 SWAP1 DUP9 AND SWAP2 PUSH2 0x454C SWAP2 SWAP1 PUSH2 0x5BC8 JUMP JUMPDEST PUSH1 0x0 PUSH1 0x40 MLOAD DUP1 DUP4 SUB DUP2 PUSH1 0x0 DUP7 GAS CALL SWAP2 POP POP RETURNDATASIZE DUP1 PUSH1 0x0 DUP2 EQ PUSH2 0x4589 JUMPI PUSH1 0x40 MLOAD SWAP2 POP PUSH1 0x1F NOT PUSH1 0x3F RETURNDATASIZE ADD AND DUP3 ADD PUSH1 0x40 MSTORE RETURNDATASIZE DUP3 MSTORE RETURNDATASIZE PUSH1 0x0 PUSH1 0x20 DUP5 ADD RETURNDATACOPY PUSH2 0x458E JUMP JUMPDEST PUSH1 0x60 SWAP2 POP JUMPDEST POP SWAP2 POP SWAP2 POP DUP2 DUP1 ISZERO PUSH2 0x45B8 JUMPI POP DUP1 MLOAD ISZERO DUP1 PUSH2 0x45B8 JUMPI POP DUP1 DUP1 PUSH1 0x20 ADD SWAP1 MLOAD DUP2 ADD SWAP1 PUSH2 0x45B8 SWAP2 SWAP1 PUSH2 0x587C JUMP JUMPDEST PUSH1 0x1B SWAP1 PUSH2 0x3F10 JUMPI PUSH1 0x40 MLOAD PUSH3 0x461BCD PUSH1 0xE5 SHL DUP2 MSTORE PUSH1 0x4 ADD PUSH2 0x91C SWAP2 SWAP1 PUSH2 0x56A2 JUMP JUMPDEST PUSH1 0x1 PUSH1 0x1 PUSH1 0xA0 SHL SUB DUP4 AND ADDRESS EQ PUSH2 0xA05 JUMPI PUSH1 0x29 SLOAD PUSH1 0x1 PUSH1 0x1 PUSH1 0xA0 SHL SUB DUP6 DUP2 AND SWAP2 AND EQ ISZERO PUSH2 0x460D JUMPI PUSH2 0x4608 DUP4 DUP4 PUSH2 0x494B JUMP JUMPDEST PUSH2 0xA05 JUMP JUMPDEST PUSH2 0xA05 DUP5 DUP5 DUP5 PUSH2 0x49DD JUMP JUMPDEST PUSH1 0x40 DUP1 MLOAD PUSH1 0x1 DUP1 DUP3 MSTORE DUP2 DUP4 ADD SWAP1 SWAP3 MSTORE PUSH1 0x60 SWAP2 PUSH1 0x0 SWAP2 SWAP1 PUSH1 0x20 DUP1 DUP4 ADD SWAP1 DUP1 CALLDATASIZE DUP4 CALLDATACOPY ADD SWAP1 POP POP SWAP1 POP DUP3 DUP2 PUSH1 0x0 DUP2 MLOAD DUP2 LT PUSH2 0x4652 JUMPI PUSH2 0x4652 PUSH2 0x556C JUMP JUMPDEST PUSH1 0x20 SWAP1 DUP2 MUL SWAP2 SWAP1 SWAP2 ADD ADD MSTORE SWAP3 SWAP2 POP POP JUMP JUMPDEST PUSH1 0x1 PUSH1 0x1 PUSH1 0xA0 SHL SUB DUP5 AND EXTCODESIZE ISZERO PUSH2 0x15AD JUMPI PUSH1 0x40 MLOAD PUSH4 0xF23A6E61 PUSH1 0xE0 SHL DUP2 MSTORE PUSH1 0x1 PUSH1 0x1 PUSH1 0xA0 SHL SUB DUP6 AND SWAP1 PUSH4 0xF23A6E61 SWAP1 PUSH2 0x46A7 SWAP1 DUP10 SWAP1 DUP10 SWAP1 DUP9 SWAP1 DUP9 SWAP1 DUP9 SWAP1 PUSH1 0x4 ADD PUSH2 0x5BE4 JUMP JUMPDEST PUSH1 0x20 PUSH1 0x40 MLOAD DUP1 DUP4 SUB DUP2 PUSH1 0x0 DUP8 GAS CALL SWAP3 POP POP POP DUP1 ISZERO PUSH2 0x46E2 JUMPI POP PUSH1 0x40 DUP1 MLOAD PUSH1 0x1F RETURNDATASIZE SWAP1 DUP2 ADD PUSH1 0x1F NOT AND DUP3 ADD SWAP1 SWAP3 MSTORE PUSH2 0x46DF SWAP2 DUP2 ADD SWAP1 PUSH2 0x5ABE JUMP JUMPDEST PUSH1 0x1 JUMPDEST PUSH2 0x46EE JUMPI PUSH2 0x439B PUSH2 0x5ADB JUMP JUMPDEST PUSH1 0x1 PUSH1 0x1 PUSH1 0xE0 SHL SUB NOT DUP2 AND PUSH4 0xF23A6E61 PUSH1 0xE0 SHL EQ PUSH2 0x3F10 JUMPI PUSH1 0x40 MLOAD PUSH3 0x461BCD PUSH1 0xE5 SHL DUP2 MSTORE PUSH1 0x4 ADD PUSH2 0x91C SWAP1 PUSH2 0x5B80 JUMP JUMPDEST PUSH1 0x0 PUSH2 0x3E8 DUP5 GT DUP1 ISZERO PUSH2 0x4732 JUMPI POP PUSH2 0x3E8 DUP4 GT JUMPDEST PUSH1 0x1E SWAP1 PUSH2 0x4752 JUMPI PUSH1 0x40 MLOAD PUSH3 0x461BCD PUSH1 0xE5 SHL DUP2 MSTORE PUSH1 0x4 ADD PUSH2 0x91C SWAP2 SWAP1 PUSH2 0x56A2 JUMP JUMPDEST POP PUSH1 0x0 PUSH2 0x475F DUP4 DUP8 PUSH2 0x573E JUMP JUMPDEST SWAP1 POP PUSH1 0x0 DUP2 PUSH2 0x4770 PUSH2 0x2710 DUP9 PUSH2 0x573E JUMP JUMPDEST PUSH2 0x477A SWAP2 SWAP1 PUSH2 0x568A JUMP JUMPDEST PUSH2 0x4784 DUP4 DUP8 PUSH2 0x573E JUMP JUMPDEST PUSH2 0x3571 SWAP2 SWAP1 PUSH2 0x5773 JUMP JUMPDEST PUSH1 0x0 DUP3 PUSH1 0x0 ADD DUP3 DUP2 SLOAD DUP2 LT PUSH2 0x47A5 JUMPI PUSH2 0x47A5 PUSH2 0x556C JUMP JUMPDEST SWAP1 PUSH1 0x0 MSTORE PUSH1 0x20 PUSH1 0x0 KECCAK256 ADD SLOAD SWAP1 POP SWAP3 SWAP2 POP POP JUMP JUMPDEST PUSH1 0x0 PUSH1 0x8 PUSH2 0x47C8 PUSH2 0x3840 TIMESTAMP PUSH2 0x5773 JUMP JUMPDEST PUSH2 0x47D2 SWAP2 SWAP1 PUSH2 0x5A35 JUMP JUMPDEST SWAP1 POP SWAP1 JUMP JUMPDEST PUSH1 0x0 PUSH2 0x3E8 DUP5 GT DUP1 ISZERO PUSH2 0x47EB JUMPI POP PUSH2 0x3E8 DUP4 GT JUMPDEST PUSH1 0x1E SWAP1 PUSH2 0x480B JUMPI PUSH1 0x40 MLOAD PUSH3 0x461BCD PUSH1 0xE5 SHL DUP2 MSTORE PUSH1 0x4 ADD PUSH2 0x91C SWAP2 SWAP1 PUSH2 0x56A2 JUMP JUMPDEST POP PUSH1 0x0 PUSH2 0x4818 DUP7 DUP6 PUSH2 0x5727 JUMP JUMPDEST PUSH2 0x4822 SWAP1 DUP5 PUSH2 0x573E JUMP JUMPDEST PUSH2 0x2710 PUSH2 0x482F DUP9 DUP9 PUSH2 0x573E JUMP JUMPDEST PUSH2 0x4839 SWAP2 SWAP1 PUSH2 0x573E JUMP JUMPDEST PUSH2 0x4843 SWAP2 SWAP1 PUSH2 0x5773 JUMP JUMPDEST PUSH2 0x484E SWAP1 PUSH1 0x1 PUSH2 0x568A JUMP JUMPDEST SWAP7 SWAP6 POP POP POP POP POP POP JUMP JUMPDEST PUSH1 0x0 DUP2 DUP2 MSTORE PUSH1 0x1 DUP4 ADD PUSH1 0x20 MSTORE PUSH1 0x40 DUP2 KECCAK256 SLOAD DUP1 ISZERO PUSH2 0x4941 JUMPI PUSH1 0x0 PUSH2 0x487C PUSH1 0x1 DUP4 PUSH2 0x5727 JUMP JUMPDEST DUP6 SLOAD SWAP1 SWAP2 POP PUSH1 0x0 SWAP1 PUSH2 0x4890 SWAP1 PUSH1 0x1 SWAP1 PUSH2 0x5727 JUMP JUMPDEST SWAP1 POP DUP2 DUP2 EQ PUSH2 0x48F5 JUMPI PUSH1 0x0 DUP7 PUSH1 0x0 ADD DUP3 DUP2 SLOAD DUP2 LT PUSH2 0x48B0 JUMPI PUSH2 0x48B0 PUSH2 0x556C JUMP JUMPDEST SWAP1 PUSH1 0x0 MSTORE PUSH1 0x20 PUSH1 0x0 KECCAK256 ADD SLOAD SWAP1 POP DUP1 DUP8 PUSH1 0x0 ADD DUP5 DUP2 SLOAD DUP2 LT PUSH2 0x48D3 JUMPI PUSH2 0x48D3 PUSH2 0x556C JUMP JUMPDEST PUSH1 0x0 SWAP2 DUP3 MSTORE PUSH1 0x20 DUP1 DUP4 KECCAK256 SWAP1 SWAP2 ADD SWAP3 SWAP1 SWAP3 SSTORE SWAP2 DUP3 MSTORE PUSH1 0x1 DUP9 ADD SWAP1 MSTORE PUSH1 0x40 SWAP1 KECCAK256 DUP4 SWAP1 SSTORE JUMPDEST DUP6 SLOAD DUP7 SWAP1 DUP1 PUSH2 0x4906 JUMPI PUSH2 0x4906 PUSH2 0x5C1E JUMP JUMPDEST PUSH1 0x1 SWAP1 SUB DUP2 DUP2 SWAP1 PUSH1 0x0 MSTORE PUSH1 0x20 PUSH1 0x0 KECCAK256 ADD PUSH1 0x0 SWAP1 SSTORE SWAP1 SSTORE DUP6 PUSH1 0x1 ADD PUSH1 0x0 DUP7 DUP2 MSTORE PUSH1 0x20 ADD SWAP1 DUP2 MSTORE PUSH1 0x20 ADD PUSH1 0x0 KECCAK256 PUSH1 0x0 SWAP1 SSTORE PUSH1 0x1 SWAP4 POP POP POP POP PUSH2 0x948 JUMP JUMPDEST PUSH1 0x0 SWAP2 POP POP PUSH2 0x948 JUMP JUMPDEST PUSH1 0x40 DUP1 MLOAD PUSH1 0x0 DUP1 DUP3 MSTORE PUSH1 0x20 DUP3 ADD SWAP1 SWAP3 MSTORE PUSH1 0x1 PUSH1 0x1 PUSH1 0xA0 SHL SUB DUP5 AND SWAP1 DUP4 SWAP1 PUSH1 0x40 MLOAD PUSH2 0x4975 SWAP2 SWAP1 PUSH2 0x5BC8 JUMP JUMPDEST PUSH1 0x0 PUSH1 0x40 MLOAD DUP1 DUP4 SUB DUP2 DUP6 DUP8 GAS CALL SWAP3 POP POP POP RETURNDATASIZE DUP1 PUSH1 0x0 DUP2 EQ PUSH2 0x49B2 JUMPI PUSH1 0x40 MLOAD SWAP2 POP PUSH1 0x1F NOT PUSH1 0x3F RETURNDATASIZE ADD AND DUP3 ADD PUSH1 0x40 MSTORE RETURNDATASIZE DUP3 MSTORE RETURNDATASIZE PUSH1 0x0 PUSH1 0x20 DUP5 ADD RETURNDATACOPY PUSH2 0x49B7 JUMP JUMPDEST PUSH1 0x60 SWAP2 POP JUMPDEST POP SWAP1 SWAP2 POP PUSH1 0x19 SWAP1 POP DUP2 PUSH2 0xA05 JUMPI PUSH1 0x40 MLOAD PUSH3 0x461BCD PUSH1 0xE5 SHL DUP2 MSTORE PUSH1 0x4 ADD PUSH2 0x91C SWAP2 SWAP1 PUSH2 0x56A2 JUMP JUMPDEST PUSH1 0x40 DUP1 MLOAD PUSH1 0x1 PUSH1 0x1 PUSH1 0xA0 SHL SUB DUP5 DUP2 AND PUSH1 0x24 DUP4 ADD MSTORE PUSH1 0x44 DUP1 DUP4 ADD DUP6 SWAP1 MSTORE DUP4 MLOAD DUP1 DUP5 SUB SWAP1 SWAP2 ADD DUP2 MSTORE PUSH1 0x64 SWAP1 SWAP3 ADD DUP4 MSTORE PUSH1 0x20 DUP3 ADD DUP1 MLOAD PUSH1 0x1 PUSH1 0x1 PUSH1 0xE0 SHL SUB AND PUSH4 0xA9059CBB PUSH1 0xE0 SHL OR SWAP1 MSTORE SWAP2 MLOAD PUSH1 0x0 SWAP3 DUP4 SWAP3 SWAP1 DUP8 AND SWAP2 PUSH2 0x4A39 SWAP2 SWAP1 PUSH2 0x5BC8 JUMP JUMPDEST PUSH1 0x0 PUSH1 0x40 MLOAD DUP1 DUP4 SUB DUP2 PUSH1 0x0 DUP7 GAS CALL SWAP2 POP POP RETURNDATASIZE DUP1 PUSH1 0x0 DUP2 EQ PUSH2 0x4A76 JUMPI PUSH1 0x40 MLOAD SWAP2 POP PUSH1 0x1F NOT PUSH1 0x3F RETURNDATASIZE ADD AND DUP3 ADD PUSH1 0x40 MSTORE RETURNDATASIZE DUP3 MSTORE RETURNDATASIZE PUSH1 0x0 PUSH1 0x20 DUP5 ADD RETURNDATACOPY PUSH2 0x4A7B JUMP JUMPDEST PUSH1 0x60 SWAP2 POP JUMPDEST POP SWAP2 POP SWAP2 POP DUP2 DUP1 ISZERO PUSH2 0x4AA5 JUMPI POP DUP1 MLOAD ISZERO DUP1 PUSH2 0x4AA5 JUMPI POP DUP1 DUP1 PUSH1 0x20 ADD SWAP1 MLOAD DUP2 ADD SWAP1 PUSH2 0x4AA5 SWAP2 SWAP1 PUSH2 0x587C JUMP JUMPDEST PUSH1 0x1A SWAP1 PUSH2 0x15AD JUMPI PUSH1 0x40 MLOAD PUSH3 0x461BCD PUSH1 0xE5 SHL DUP2 MSTORE PUSH1 0x4 ADD PUSH2 0x91C SWAP2 SWAP1 PUSH2 0x56A2 JUMP JUMPDEST DUP3 DUP1 SLOAD PUSH2 0x4AD1 SWAP1 PUSH2 0x55D0 JUMP JUMPDEST SWAP1 PUSH1 0x0 MSTORE PUSH1 0x20 PUSH1 0x0 KECCAK256 SWAP1 PUSH1 0x1F ADD PUSH1 0x20 SWAP1 DIV DUP2 ADD SWAP3 DUP3 PUSH2 0x4AF3 JUMPI PUSH1 0x0 DUP6 SSTORE PUSH2 0x4B39 JUMP JUMPDEST DUP3 PUSH1 0x1F LT PUSH2 0x4B0C JUMPI DUP1 MLOAD PUSH1 0xFF NOT AND DUP4 DUP1 ADD OR DUP6 SSTORE PUSH2 0x4B39 JUMP JUMPDEST DUP3 DUP1 ADD PUSH1 0x1 ADD DUP6 SSTORE DUP3 ISZERO PUSH2 0x4B39 JUMPI SWAP2 DUP3 ADD JUMPDEST DUP3 DUP2 GT ISZERO PUSH2 0x4B39 JUMPI DUP3 MLOAD DUP3 SSTORE SWAP2 PUSH1 0x20 ADD SWAP2 SWAP1 PUSH1 0x1 ADD SWAP1 PUSH2 0x4B1E JUMP JUMPDEST POP PUSH2 0x4B45 SWAP3 SWAP2 POP PUSH2 0x4C39 JUMP JUMPDEST POP SWAP1 JUMP JUMPDEST PUSH1 0x40 MLOAD DUP1 PUSH1 0xA0 ADD PUSH1 0x40 MSTORE DUP1 PUSH1 0x0 PUSH1 0x1 PUSH1 0x1 PUSH1 0xA0 SHL SUB AND DUP2 MSTORE PUSH1 0x20 ADD PUSH2 0x4B6C PUSH2 0x4B87 JUMP JUMPDEST DUP2 MSTORE PUSH1 0x0 PUSH1 0x20 DUP3 ADD DUP2 SWAP1 MSTORE PUSH1 0x40 DUP3 ADD DUP2 SWAP1 MSTORE PUSH1 0x60 SWAP1 SWAP2 ADD MSTORE SWAP1 JUMP JUMPDEST PUSH1 0x40 MLOAD DUP1 PUSH2 0x100 ADD PUSH1 0x40 MSTORE DUP1 PUSH1 0x8 SWAP1 PUSH1 0x20 DUP3 MUL DUP1 CALLDATASIZE DUP4 CALLDATACOPY POP SWAP2 SWAP3 SWAP2 POP POP JUMP JUMPDEST PUSH1 0x1 DUP4 ADD SWAP2 DUP4 SWAP1 DUP3 ISZERO PUSH2 0x4B39 JUMPI SWAP2 PUSH1 0x20 MUL DUP3 ADD PUSH1 0x0 JUMPDEST DUP4 DUP3 GT ISZERO PUSH2 0x4C00 JUMPI DUP4 MLOAD DUP4 DUP3 PUSH2 0x100 EXP DUP2 SLOAD DUP2 PUSH4 0xFFFFFFFF MUL NOT AND SWAP1 DUP4 PUSH4 0xFFFFFFFF AND MUL OR SWAP1 SSTORE POP SWAP3 PUSH1 0x20 ADD SWAP3 PUSH1 0x4 ADD PUSH1 0x20 DUP2 PUSH1 0x3 ADD DIV SWAP3 DUP4 ADD SWAP3 PUSH1 0x1 SUB MUL PUSH2 0x4BBC JUMP JUMPDEST DUP1 ISZERO PUSH2 0x4C30 JUMPI DUP3 DUP2 PUSH2 0x100 EXP DUP2 SLOAD SWAP1 PUSH4 0xFFFFFFFF MUL NOT AND SWAP1 SSTORE PUSH1 0x4 ADD PUSH1 0x20 DUP2 PUSH1 0x3 ADD DIV SWAP3 DUP4 ADD SWAP3 PUSH1 0x1 SUB MUL PUSH2 0x4C00 JUMP JUMPDEST POP POP PUSH2 0x4B45 SWAP3 SWAP2 POP JUMPDEST JUMPDEST DUP1 DUP3 GT ISZERO PUSH2 0x4B45 JUMPI PUSH1 0x0 DUP2 SSTORE PUSH1 0x1 ADD PUSH2 0x4C3A JUMP JUMPDEST PUSH1 0x1 PUSH1 0x1 PUSH1 0xA0 SHL SUB DUP2 AND DUP2 EQ PUSH2 0x4C63 JUMPI PUSH1 0x0 DUP1 REVERT JUMPDEST POP JUMP JUMPDEST PUSH1 0x0 DUP1 PUSH1 0x40 DUP4 DUP6 SUB SLT ISZERO PUSH2 0x4C79 JUMPI PUSH1 0x0 DUP1 REVERT JUMPDEST DUP3 CALLDATALOAD PUSH2 0x4C84 DUP2 PUSH2 0x4C4E JUMP JUMPDEST SWAP5 PUSH1 0x20 SWAP4 SWAP1 SWAP4 ADD CALLDATALOAD SWAP4 POP POP POP JUMP JUMPDEST PUSH1 0x1 PUSH1 0x1 PUSH1 0xE0 SHL SUB NOT DUP2 AND DUP2 EQ PUSH2 0x4C63 JUMPI PUSH1 0x0 DUP1 REVERT JUMPDEST PUSH1 0x0 PUSH1 0x20 DUP3 DUP5 SUB SLT ISZERO PUSH2 0x4CBA JUMPI PUSH1 0x0 DUP1 REVERT JUMPDEST DUP2 CALLDATALOAD PUSH2 0x1370 DUP2 PUSH2 0x4C92 JUMP JUMPDEST PUSH1 0x0 DUP1 PUSH1 0x20 DUP4 DUP6 SUB SLT ISZERO PUSH2 0x4CD8 JUMPI PUSH1 0x0 DUP1 REVERT JUMPDEST DUP3 CALLDATALOAD PUSH1 0x1 PUSH1 0x1 PUSH1 0x40 SHL SUB DUP1 DUP3 GT ISZERO PUSH2 0x4CEF JUMPI PUSH1 0x0 DUP1 REVERT JUMPDEST DUP2 DUP6 ADD SWAP2 POP DUP6 PUSH1 0x1F DUP4 ADD SLT PUSH2 0x4D03 JUMPI PUSH1 0x0 DUP1 REVERT JUMPDEST DUP2 CALLDATALOAD DUP2 DUP2 GT ISZERO PUSH2 0x4D12 JUMPI PUSH1 0x0 DUP1 REVERT JUMPDEST DUP7 PUSH1 0x20 DUP3 PUSH1 0x6 SHL DUP6 ADD ADD GT ISZERO PUSH2 0x4D27 JUMPI PUSH1 0x0 DUP1 REVERT JUMPDEST PUSH1 0x20 SWAP3 SWAP1 SWAP3 ADD SWAP7 SWAP2 SWAP6 POP SWAP1 SWAP4 POP POP POP POP JUMP JUMPDEST PUSH1 0x0 PUSH1 0x20 DUP3 DUP5 SUB SLT ISZERO PUSH2 0x4D4B JUMPI PUSH1 0x0 DUP1 REVERT JUMPDEST POP CALLDATALOAD SWAP2 SWAP1 POP JUMP JUMPDEST PUSH1 0x0 JUMPDEST DUP4 DUP2 LT ISZERO PUSH2 0x4D6D JUMPI DUP2 DUP2 ADD MLOAD DUP4 DUP3 ADD MSTORE PUSH1 0x20 ADD PUSH2 0x4D55 JUMP JUMPDEST DUP4 DUP2 GT ISZERO PUSH2 0xA05 JUMPI POP POP PUSH1 0x0 SWAP2 ADD MSTORE JUMP JUMPDEST PUSH1 0x0 DUP2 MLOAD DUP1 DUP5 MSTORE PUSH2 0x4D96 DUP2 PUSH1 0x20 DUP7 ADD PUSH1 0x20 DUP7 ADD PUSH2 0x4D52 JUMP JUMPDEST PUSH1 0x1F ADD PUSH1 0x1F NOT AND SWAP3 SWAP1 SWAP3 ADD PUSH1 0x20 ADD SWAP3 SWAP2 POP POP JUMP JUMPDEST PUSH1 0x20 DUP2 MSTORE PUSH1 0x0 PUSH2 0x1370 PUSH1 0x20 DUP4 ADD DUP5 PUSH2 0x4D7E JUMP JUMPDEST PUSH4 0x4E487B71 PUSH1 0xE0 SHL PUSH1 0x0 MSTORE PUSH1 0x41 PUSH1 0x4 MSTORE PUSH1 0x24 PUSH1 0x0 REVERT JUMPDEST PUSH1 0x1F DUP3 ADD PUSH1 0x1F NOT AND DUP2 ADD PUSH1 0x1 PUSH1 0x1 PUSH1 0x40 SHL SUB DUP2 GT DUP3 DUP3 LT OR ISZERO PUSH2 0x4DF8 JUMPI PUSH2 0x4DF8 PUSH2 0x4DBD JUMP JUMPDEST PUSH1 0x40 MSTORE POP POP JUMP JUMPDEST PUSH1 0x0 PUSH1 0x1 PUSH1 0x1 PUSH1 0x40 SHL SUB DUP3 GT ISZERO PUSH2 0x4E18 JUMPI PUSH2 0x4E18 PUSH2 0x4DBD JUMP JUMPDEST POP PUSH1 0x5 SHL PUSH1 0x20 ADD SWAP1 JUMP JUMPDEST PUSH1 0x0 DUP3 PUSH1 0x1F DUP4 ADD SLT PUSH2 0x4E33 JUMPI PUSH1 0x0 DUP1 REVERT JUMPDEST DUP2 CALLDATALOAD PUSH1 0x20 PUSH2 0x4E40 DUP3 PUSH2 0x4DFF JUMP JUMPDEST PUSH1 0x40 MLOAD PUSH2 0x4E4D DUP3 DUP3 PUSH2 0x4DD3 JUMP JUMPDEST DUP4 DUP2 MSTORE PUSH1 0x5 SWAP4 SWAP1 SWAP4 SHL DUP6 ADD DUP3 ADD SWAP3 DUP3 DUP2 ADD SWAP2 POP DUP7 DUP5 GT ISZERO PUSH2 0x4E6D JUMPI PUSH1 0x0 DUP1 REVERT JUMPDEST DUP3 DUP7 ADD JUMPDEST DUP5 DUP2 LT ISZERO PUSH2 0x4E88 JUMPI DUP1 CALLDATALOAD DUP4 MSTORE SWAP2 DUP4 ADD SWAP2 DUP4 ADD PUSH2 0x4E71 JUMP JUMPDEST POP SWAP7 SWAP6 POP POP POP POP POP POP JUMP JUMPDEST PUSH1 0x0 DUP3 PUSH1 0x1F DUP4 ADD SLT PUSH2 0x4EA4 JUMPI PUSH1 0x0 DUP1 REVERT JUMPDEST DUP2 CALLDATALOAD PUSH1 0x1 PUSH1 0x1 PUSH1 0x40 SHL SUB DUP2 GT ISZERO PUSH2 0x4EBD JUMPI PUSH2 0x4EBD PUSH2 0x4DBD JUMP JUMPDEST PUSH1 0x40 MLOAD PUSH2 0x4ED4 PUSH1 0x1F DUP4 ADD PUSH1 0x1F NOT AND PUSH1 0x20 ADD DUP3 PUSH2 0x4DD3 JUMP JUMPDEST DUP2 DUP2 MSTORE DUP5 PUSH1 0x20 DUP4 DUP7 ADD ADD GT ISZERO PUSH2 0x4EE9 JUMPI PUSH1 0x0 DUP1 REVERT JUMPDEST DUP2 PUSH1 0x20 DUP6 ADD PUSH1 0x20 DUP4 ADD CALLDATACOPY PUSH1 0x0 SWAP2 DUP2 ADD PUSH1 0x20 ADD SWAP2 SWAP1 SWAP2 MSTORE SWAP4 SWAP3 POP POP POP JUMP JUMPDEST PUSH1 0x0 DUP1 PUSH1 0x0 DUP1 PUSH1 0x0 PUSH1 0xA0 DUP7 DUP9 SUB SLT ISZERO PUSH2 0x4F1E JUMPI PUSH1 0x0 DUP1 REVERT JUMPDEST DUP6 CALLDATALOAD PUSH2 0x4F29 DUP2 PUSH2 0x4C4E JUMP JUMPDEST SWAP5 POP PUSH1 0x20 DUP7 ADD CALLDATALOAD PUSH2 0x4F39 DUP2 PUSH2 0x4C4E JUMP JUMPDEST SWAP4 POP PUSH1 0x40 DUP7 ADD CALLDATALOAD PUSH1 0x1 PUSH1 0x1 PUSH1 0x40 SHL SUB DUP1 DUP3 GT ISZERO PUSH2 0x4F55 JUMPI PUSH1 0x0 DUP1 REVERT JUMPDEST PUSH2 0x4F61 DUP10 DUP4 DUP11 ADD PUSH2 0x4E22 JUMP JUMPDEST SWAP5 POP PUSH1 0x60 DUP9 ADD CALLDATALOAD SWAP2 POP DUP1 DUP3 GT ISZERO PUSH2 0x4F77 JUMPI PUSH1 0x0 DUP1 REVERT JUMPDEST PUSH2 0x4F83 DUP10 DUP4 DUP11 ADD PUSH2 0x4E22 JUMP JUMPDEST SWAP4 POP PUSH1 0x80 DUP9 ADD CALLDATALOAD SWAP2 POP DUP1 DUP3 GT ISZERO PUSH2 0x4F99 JUMPI PUSH1 0x0 DUP1 REVERT JUMPDEST POP PUSH2 0x4FA6 DUP9 DUP3 DUP10 ADD PUSH2 0x4E93 JUMP JUMPDEST SWAP2 POP POP SWAP3 SWAP6 POP SWAP3 SWAP6 SWAP1 SWAP4 POP JUMP JUMPDEST PUSH1 0x0 DUP1 PUSH1 0x40 DUP4 DUP6 SUB SLT ISZERO PUSH2 0x4FC6 JUMPI PUSH1 0x0 DUP1 REVERT JUMPDEST DUP3 CALLDATALOAD SWAP2 POP PUSH1 0x20 DUP4 ADD CALLDATALOAD PUSH2 0x4FD8 DUP2 PUSH2 0x4C4E JUMP JUMPDEST DUP1 SWAP2 POP POP SWAP3 POP SWAP3 SWAP1 POP JUMP JUMPDEST PUSH1 0x0 DUP1 PUSH1 0x40 DUP4 DUP6 SUB SLT ISZERO PUSH2 0x4FF6 JUMPI PUSH1 0x0 DUP1 REVERT JUMPDEST DUP3 CALLDATALOAD PUSH1 0x1 PUSH1 0x1 PUSH1 0x40 SHL SUB DUP1 DUP3 GT ISZERO PUSH2 0x500D JUMPI PUSH1 0x0 DUP1 REVERT JUMPDEST PUSH2 0x5019 DUP7 DUP4 DUP8 ADD PUSH2 0x4E93 JUMP JUMPDEST SWAP4 POP PUSH1 0x20 DUP6 ADD CALLDATALOAD SWAP2 POP DUP1 DUP3 GT ISZERO PUSH2 0x502F JUMPI PUSH1 0x0 DUP1 REVERT JUMPDEST POP PUSH2 0x503C DUP6 DUP3 DUP7 ADD PUSH2 0x4E93 JUMP JUMPDEST SWAP2 POP POP SWAP3 POP SWAP3 SWAP1 POP JUMP JUMPDEST PUSH1 0x0 DUP1 PUSH1 0x0 DUP1 PUSH1 0x80 DUP6 DUP8 SUB SLT ISZERO PUSH2 0x505C JUMPI PUSH1 0x0 DUP1 REVERT JUMPDEST DUP5 CALLDATALOAD PUSH2 0x5067 DUP2 PUSH2 0x4C4E JUMP JUMPDEST SWAP4 POP PUSH1 0x20 DUP6 ADD CALLDATALOAD SWAP3 POP PUSH1 0x40 DUP6 ADD CALLDATALOAD SWAP2 POP PUSH1 0x60 DUP6 ADD CALLDATALOAD PUSH2 0x5085 DUP2 PUSH2 0x4C4E JUMP JUMPDEST SWAP4 SWAP7 SWAP3 SWAP6 POP SWAP1 SWAP4 POP POP JUMP JUMPDEST PUSH1 0x0 DUP1 PUSH1 0x0 PUSH1 0x60 DUP5 DUP7 SUB SLT ISZERO PUSH2 0x50A5 JUMPI PUSH1 0x0 DUP1 REVERT JUMPDEST DUP4 CALLDATALOAD PUSH2 0x50B0 DUP2 PUSH2 0x4C4E JUMP JUMPDEST SWAP3 POP PUSH1 0x20 DUP5 ADD CALLDATALOAD PUSH2 0x50C0 DUP2 PUSH2 0x4C4E JUMP JUMPDEST SWAP3 SWAP6 SWAP3 SWAP5 POP POP POP PUSH1 0x40 SWAP2 SWAP1 SWAP2 ADD CALLDATALOAD SWAP1 JUMP JUMPDEST PUSH1 0x0 DUP1 PUSH1 0x40 DUP4 DUP6 SUB SLT ISZERO PUSH2 0x50E4 JUMPI PUSH1 0x0 DUP1 REVERT JUMPDEST DUP3 CALLDATALOAD PUSH1 0x1 PUSH1 0x1 PUSH1 0x40 SHL SUB DUP1 DUP3 GT ISZERO PUSH2 0x50FB JUMPI PUSH1 0x0 DUP1 REVERT JUMPDEST DUP2 DUP6 ADD SWAP2 POP DUP6 PUSH1 0x1F DUP4 ADD SLT PUSH2 0x510F JUMPI PUSH1 0x0 DUP1 REVERT JUMPDEST DUP2 CALLDATALOAD PUSH1 0x20 PUSH2 0x511C DUP3 PUSH2 0x4DFF JUMP JUMPDEST PUSH1 0x40 MLOAD PUSH2 0x5129 DUP3 DUP3 PUSH2 0x4DD3 JUMP JUMPDEST DUP4 DUP2 MSTORE PUSH1 0x5 SWAP4 SWAP1 SWAP4 SHL DUP6 ADD DUP3 ADD SWAP3 DUP3 DUP2 ADD SWAP2 POP DUP10 DUP5 GT ISZERO PUSH2 0x5149 JUMPI PUSH1 0x0 DUP1 REVERT JUMPDEST SWAP5 DUP3 ADD SWAP5 JUMPDEST DUP4 DUP7 LT ISZERO PUSH2 0x5170 JUMPI DUP6 CALLDATALOAD PUSH2 0x5161 DUP2 PUSH2 0x4C4E JUMP JUMPDEST DUP3 MSTORE SWAP5 DUP3 ADD SWAP5 SWAP1 DUP3 ADD SWAP1 PUSH2 0x514E JUMP JUMPDEST SWAP7 POP POP DUP7 ADD CALLDATALOAD SWAP3 POP POP DUP1 DUP3 GT ISZERO PUSH2 0x5186 JUMPI PUSH1 0x0 DUP1 REVERT JUMPDEST POP PUSH2 0x503C DUP6 DUP3 DUP7 ADD PUSH2 0x4E22 JUMP JUMPDEST PUSH1 0x0 DUP2 MLOAD DUP1 DUP5 MSTORE PUSH1 0x20 DUP1 DUP6 ADD SWAP5 POP DUP1 DUP5 ADD PUSH1 0x0 JUMPDEST DUP4 DUP2 LT ISZERO PUSH2 0x51C3 JUMPI DUP2 MLOAD DUP8 MSTORE SWAP6 DUP3 ADD SWAP6 SWAP1 DUP3 ADD SWAP1 PUSH1 0x1 ADD PUSH2 0x51A7 JUMP JUMPDEST POP SWAP5 SWAP6 SWAP5 POP POP POP POP POP JUMP JUMPDEST PUSH1 0x20 DUP2 MSTORE PUSH1 0x0 PUSH2 0x1370 PUSH1 0x20 DUP4 ADD DUP5 PUSH2 0x5193 JUMP JUMPDEST PUSH1 0x0 DUP1 PUSH1 0x0 PUSH1 0x60 DUP5 DUP7 SUB SLT ISZERO PUSH2 0x51F6 JUMPI PUSH1 0x0 DUP1 REVERT JUMPDEST DUP4 CALLDATALOAD PUSH2 0x5201 DUP2 PUSH2 0x4C4E JUMP JUMPDEST SWAP3 POP PUSH1 0x20 DUP5 ADD CALLDATALOAD PUSH1 0x1 PUSH1 0x1 PUSH1 0x40 SHL SUB DUP1 DUP3 GT ISZERO PUSH2 0x521D JUMPI PUSH1 0x0 DUP1 REVERT JUMPDEST PUSH2 0x5229 DUP8 DUP4 DUP9 ADD PUSH2 0x4E22 JUMP JUMPDEST SWAP4 POP PUSH1 0x40 DUP7 ADD CALLDATALOAD SWAP2 POP DUP1 DUP3 GT ISZERO PUSH2 0x523F JUMPI PUSH1 0x0 DUP1 REVERT JUMPDEST POP PUSH2 0x524C DUP7 DUP3 DUP8 ADD PUSH2 0x4E22 JUMP JUMPDEST SWAP2 POP POP SWAP3 POP SWAP3 POP SWAP3 JUMP JUMPDEST PUSH1 0x0 DUP1 PUSH1 0x0 DUP1 PUSH1 0x0 DUP1 PUSH1 0xC0 DUP8 DUP10 SUB SLT ISZERO PUSH2 0x526F JUMPI PUSH1 0x0 DUP1 REVERT JUMPDEST DUP7 CALLDATALOAD SWAP6 POP PUSH1 0x20 DUP8 ADD CALLDATALOAD SWAP5 POP PUSH1 0x40 DUP8 ADD CALLDATALOAD SWAP4 POP PUSH1 0x60 DUP8 ADD CALLDATALOAD SWAP3 POP PUSH1 0x80 DUP8 ADD CALLDATALOAD SWAP2 POP PUSH1 0xA0 DUP8 ADD CALLDATALOAD PUSH2 0x529D DUP2 PUSH2 0x4C4E JUMP JUMPDEST DUP1 SWAP2 POP POP SWAP3 SWAP6 POP SWAP3 SWAP6 POP SWAP3 SWAP6 JUMP JUMPDEST PUSH1 0x0 DUP1 PUSH1 0x40 DUP4 DUP6 SUB SLT ISZERO PUSH2 0x52BE JUMPI PUSH1 0x0 DUP1 REVERT JUMPDEST POP POP DUP1 CALLDATALOAD SWAP3 PUSH1 0x20 SWAP1 SWAP2 ADD CALLDATALOAD SWAP2 POP JUMP JUMPDEST PUSH1 0x0 PUSH1 0x20 DUP3 DUP5 SUB SLT ISZERO PUSH2 0x52DF JUMPI PUSH1 0x0 DUP1 REVERT JUMPDEST DUP2 CALLDATALOAD PUSH2 0x1370 DUP2 PUSH2 0x4C4E JUMP JUMPDEST DUP1 ISZERO ISZERO DUP2 EQ PUSH2 0x4C63 JUMPI PUSH1 0x0 DUP1 REVERT JUMPDEST PUSH1 0x0 DUP1 PUSH1 0x40 DUP4 DUP6 SUB SLT ISZERO PUSH2 0x530B JUMPI PUSH1 0x0 DUP1 REVERT JUMPDEST DUP3 CALLDATALOAD PUSH2 0x5316 DUP2 PUSH2 0x4C4E JUMP JUMPDEST SWAP2 POP PUSH1 0x20 DUP4 ADD CALLDATALOAD PUSH2 0x4FD8 DUP2 PUSH2 0x52EA JUMP JUMPDEST PUSH1 0x0 DUP1 PUSH1 0x0 DUP1 PUSH1 0x0 DUP1 PUSH1 0xC0 DUP8 DUP10 SUB SLT ISZERO PUSH2 0x533F JUMPI PUSH1 0x0 DUP1 REVERT JUMPDEST DUP7 CALLDATALOAD PUSH2 0x534A DUP2 PUSH2 0x4C4E JUMP JUMPDEST SWAP6 POP PUSH1 0x20 DUP8 ADD CALLDATALOAD PUSH2 0x535A DUP2 PUSH2 0x4C4E JUMP JUMPDEST SWAP5 POP PUSH1 0x40 DUP8 ADD CALLDATALOAD SWAP4 POP PUSH1 0x60 DUP8 ADD CALLDATALOAD SWAP3 POP PUSH1 0x80 DUP8 ADD CALLDATALOAD SWAP2 POP PUSH1 0xA0 DUP8 ADD CALLDATALOAD PUSH2 0x529D DUP2 PUSH2 0x4C4E JUMP JUMPDEST PUSH1 0x0 PUSH1 0x20 DUP3 DUP5 SUB SLT ISZERO PUSH2 0x5391 JUMPI PUSH1 0x0 DUP1 REVERT JUMPDEST DUP2 CALLDATALOAD PUSH1 0x1 PUSH1 0x1 PUSH1 0x40 SHL SUB DUP2 GT ISZERO PUSH2 0x53A7 JUMPI PUSH1 0x0 DUP1 REVERT JUMPDEST PUSH2 0x2A1D DUP5 DUP3 DUP6 ADD PUSH2 0x4E93 JUMP JUMPDEST DUP2 MLOAD PUSH1 0x1 PUSH1 0x1 PUSH1 0xA0 SHL SUB AND DUP2 MSTORE PUSH1 0x20 DUP1 DUP4 ADD MLOAD PUSH2 0x180 DUP4 ADD SWAP2 SWAP1 DUP2 DUP5 ADD PUSH1 0x0 JUMPDEST PUSH1 0x8 DUP2 LT ISZERO PUSH2 0x53F6 JUMPI DUP3 MLOAD PUSH4 0xFFFFFFFF AND DUP3 MSTORE SWAP2 DUP4 ADD SWAP2 SWAP1 DUP4 ADD SWAP1 PUSH1 0x1 ADD PUSH2 0x53D3 JUMP JUMPDEST POP POP POP POP PUSH1 0x40 DUP4 ADD MLOAD PUSH1 0x1 PUSH1 0x1 PUSH1 0x80 SHL SUB SWAP1 DUP2 AND PUSH2 0x120 DUP5 ADD MSTORE PUSH1 0x60 DUP5 ADD MLOAD DUP2 AND PUSH2 0x140 DUP5 ADD MSTORE PUSH1 0x80 DUP5 ADD MLOAD SWAP1 DUP2 AND PUSH2 0x160 DUP5 ADD MSTORE PUSH2 0x2C2A JUMP JUMPDEST PUSH1 0x0 DUP1 PUSH1 0x40 DUP4 DUP6 SUB SLT ISZERO PUSH2 0x5443 JUMPI PUSH1 0x0 DUP1 REVERT JUMPDEST DUP3 CALLDATALOAD PUSH2 0x544E DUP2 PUSH2 0x4C4E JUMP JUMPDEST SWAP2 POP PUSH1 0x20 DUP4 ADD CALLDATALOAD PUSH2 0x4FD8 DUP2 PUSH2 0x4C4E JUMP JUMPDEST PUSH1 0x0 DUP1 PUSH1 0x0 DUP1 PUSH1 0x0 PUSH1 0xA0 DUP7 DUP9 SUB SLT ISZERO PUSH2 0x5476 JUMPI PUSH1 0x0 DUP1 REVERT JUMPDEST DUP6 CALLDATALOAD PUSH2 0x5481 DUP2 PUSH2 0x4C4E JUMP JUMPDEST SWAP5 POP PUSH1 0x20 DUP7 ADD CALLDATALOAD PUSH2 0x5491 DUP2 PUSH2 0x4C4E JUMP JUMPDEST SWAP4 POP PUSH1 0x40 DUP7 ADD CALLDATALOAD PUSH2 0x54A1 DUP2 PUSH2 0x4C4E JUMP JUMPDEST SWAP3 POP PUSH1 0x60 DUP7 ADD CALLDATALOAD PUSH2 0x54B1 DUP2 PUSH2 0x4C4E JUMP JUMPDEST SWAP2 POP PUSH1 0x80 DUP7 ADD CALLDATALOAD PUSH2 0x54C1 DUP2 PUSH2 0x4C4E JUMP JUMPDEST DUP1 SWAP2 POP POP SWAP3 SWAP6 POP SWAP3 SWAP6 SWAP1 SWAP4 POP JUMP JUMPDEST PUSH1 0x0 DUP1 PUSH1 0x0 DUP1 PUSH1 0x0 PUSH1 0xA0 DUP7 DUP9 SUB SLT ISZERO PUSH2 0x54E7 JUMPI PUSH1 0x0 DUP1 REVERT JUMPDEST DUP6 CALLDATALOAD PUSH2 0x54F2 DUP2 PUSH2 0x4C4E JUMP JUMPDEST SWAP5 POP PUSH1 0x20 DUP7 ADD CALLDATALOAD PUSH2 0x5502 DUP2 PUSH2 0x4C4E JUMP JUMPDEST SWAP4 POP PUSH1 0x40 DUP7 ADD CALLDATALOAD SWAP3 POP PUSH1 0x60 DUP7 ADD CALLDATALOAD SWAP2 POP PUSH1 0x80 DUP7 ADD CALLDATALOAD PUSH1 0x1 PUSH1 0x1 PUSH1 0x40 SHL SUB DUP2 GT ISZERO PUSH2 0x552B JUMPI PUSH1 0x0 DUP1 REVERT JUMPDEST PUSH2 0x4FA6 DUP9 DUP3 DUP10 ADD PUSH2 0x4E93 JUMP JUMPDEST PUSH1 0x0 DUP1 PUSH1 0x0 PUSH1 0x60 DUP5 DUP7 SUB SLT ISZERO PUSH2 0x554C JUMPI PUSH1 0x0 DUP1 REVERT JUMPDEST DUP4 CALLDATALOAD PUSH2 0x5557 DUP2 PUSH2 0x4C4E JUMP JUMPDEST SWAP6 PUSH1 0x20 DUP6 ADD CALLDATALOAD SWAP6 POP PUSH1 0x40 SWAP1 SWAP5 ADD CALLDATALOAD SWAP4 SWAP3 POP POP POP JUMP JUMPDEST PUSH4 0x4E487B71 PUSH1 0xE0 SHL PUSH1 0x0 MSTORE PUSH1 0x32 PUSH1 0x4 MSTORE PUSH1 0x24 PUSH1 0x0 REVERT JUMPDEST PUSH4 0x4E487B71 PUSH1 0xE0 SHL PUSH1 0x0 MSTORE PUSH1 0x11 PUSH1 0x4 MSTORE PUSH1 0x24 PUSH1 0x0 REVERT JUMPDEST PUSH1 0x0 PUSH1 0x0 NOT DUP3 EQ ISZERO PUSH2 0x55AC JUMPI PUSH2 0x55AC PUSH2 0x5582 JUMP JUMPDEST POP PUSH1 0x1 ADD SWAP1 JUMP JUMPDEST PUSH1 0x0 PUSH1 0x20 DUP3 DUP5 SUB SLT ISZERO PUSH2 0x55C5 JUMPI PUSH1 0x0 DUP1 REVERT JUMPDEST DUP2 MLOAD PUSH2 0x1370 DUP2 PUSH2 0x4C4E JUMP JUMPDEST PUSH1 0x1 DUP2 DUP2 SHR SWAP1 DUP3 AND DUP1 PUSH2 0x55E4 JUMPI PUSH1 0x7F DUP3 AND SWAP2 POP JUMPDEST PUSH1 0x20 DUP3 LT DUP2 EQ ISZERO PUSH2 0x29A8 JUMPI PUSH4 0x4E487B71 PUSH1 0xE0 SHL PUSH1 0x0 MSTORE PUSH1 0x22 PUSH1 0x4 MSTORE PUSH1 0x24 PUSH1 0x0 REVERT JUMPDEST PUSH1 0x0 DUP1 DUP5 SLOAD PUSH2 0x5613 DUP2 PUSH2 0x55D0 JUMP JUMPDEST PUSH1 0x1 DUP3 DUP2 AND DUP1 ISZERO PUSH2 0x562B JUMPI PUSH1 0x1 DUP2 EQ PUSH2 0x563C JUMPI PUSH2 0x566B JUMP JUMPDEST PUSH1 0xFF NOT DUP5 AND DUP8 MSTORE DUP3 DUP8 ADD SWAP5 POP PUSH2 0x566B JUMP JUMPDEST DUP9 PUSH1 0x0 MSTORE PUSH1 0x20 DUP1 PUSH1 0x0 KECCAK256 PUSH1 0x0 JUMPDEST DUP6 DUP2 LT ISZERO PUSH2 0x5662 JUMPI DUP2 SLOAD DUP11 DUP3 ADD MSTORE SWAP1 DUP5 ADD SWAP1 DUP3 ADD PUSH2 0x5649 JUMP JUMPDEST POP POP POP DUP3 DUP8 ADD SWAP5 POP JUMPDEST POP POP POP SWAP4 DUP2 MSTORE PUSH5 0x173539B7B7 PUSH1 0xD9 SHL PUSH1 0x20 DUP3 ADD MSTORE PUSH1 0x25 ADD SWAP5 SWAP4 POP POP POP POP JUMP JUMPDEST PUSH1 0x0 DUP3 NOT DUP3 GT ISZERO PUSH2 0x569D JUMPI PUSH2 0x569D PUSH2 0x5582 JUMP JUMPDEST POP ADD SWAP1 JUMP JUMPDEST PUSH1 0x0 PUSH1 0x20 DUP1 DUP4 MSTORE PUSH1 0x0 DUP5 SLOAD PUSH2 0x56B6 DUP2 PUSH2 0x55D0 JUMP JUMPDEST DUP1 DUP5 DUP8 ADD MSTORE PUSH1 0x40 PUSH1 0x1 DUP1 DUP5 AND PUSH1 0x0 DUP2 EQ PUSH2 0x56D7 JUMPI PUSH1 0x1 DUP2 EQ PUSH2 0x56EB JUMPI PUSH2 0x5719 JUMP JUMPDEST PUSH1 0xFF NOT DUP6 AND DUP10 DUP5 ADD MSTORE PUSH1 0x60 DUP10 ADD SWAP6 POP PUSH2 0x5719 JUMP JUMPDEST DUP10 PUSH1 0x0 MSTORE DUP7 PUSH1 0x0 KECCAK256 PUSH1 0x0 JUMPDEST DUP6 DUP2 LT ISZERO PUSH2 0x5711 JUMPI DUP2 SLOAD DUP12 DUP3 ADD DUP7 ADD MSTORE SWAP1 DUP4 ADD SWAP1 DUP9 ADD PUSH2 0x56F6 JUMP JUMPDEST DUP11 ADD DUP5 ADD SWAP7 POP POP JUMPDEST POP SWAP4 SWAP9 SWAP8 POP POP POP POP POP POP POP POP JUMP JUMPDEST PUSH1 0x0 DUP3 DUP3 LT ISZERO PUSH2 0x5739 JUMPI PUSH2 0x5739 PUSH2 0x5582 JUMP JUMPDEST POP SUB SWAP1 JUMP JUMPDEST PUSH1 0x0 DUP2 PUSH1 0x0 NOT DIV DUP4 GT DUP3 ISZERO ISZERO AND ISZERO PUSH2 0x5758 JUMPI PUSH2 0x5758 PUSH2 0x5582 JUMP JUMPDEST POP MUL SWAP1 JUMP JUMPDEST PUSH4 0x4E487B71 PUSH1 0xE0 SHL PUSH1 0x0 MSTORE PUSH1 0x12 PUSH1 0x4 MSTORE PUSH1 0x24 PUSH1 0x0 REVERT JUMPDEST PUSH1 0x0 DUP3 PUSH2 0x5782 JUMPI PUSH2 0x5782 PUSH2 0x575D JUMP JUMPDEST POP DIV SWAP1 JUMP JUMPDEST PUSH1 0x0 PUSH1 0x1 PUSH1 0x1 PUSH1 0x80 SHL SUB DUP1 DUP4 AND DUP2 DUP6 AND DUP1 DUP4 SUB DUP3 GT ISZERO PUSH2 0x57A9 JUMPI PUSH2 0x57A9 PUSH2 0x5582 JUMP JUMPDEST ADD SWAP5 SWAP4 POP POP POP POP JUMP JUMPDEST PUSH1 0x0 PUSH1 0x1 PUSH1 0x1 PUSH1 0x80 SHL SUB DUP4 DUP2 AND SWAP1 DUP4 AND DUP2 DUP2 LT ISZERO PUSH2 0x57D2 JUMPI PUSH2 0x57D2 PUSH2 0x5582 JUMP JUMPDEST SUB SWAP4 SWAP3 POP POP POP JUMP JUMPDEST PUSH1 0x0 DUP3 MLOAD PUSH2 0x57EC DUP2 DUP5 PUSH1 0x20 DUP8 ADD PUSH2 0x4D52 JUMP JUMPDEST PUSH9 0x3DB4B23E973539B7B7 PUSH1 0xB9 SHL SWAP3 ADD SWAP2 DUP3 MSTORE POP PUSH1 0x9 ADD SWAP2 SWAP1 POP JUMP JUMPDEST PUSH32 0x416363657373436F6E74726F6C3A206163636F756E7420000000000000000000 DUP2 MSTORE PUSH1 0x0 DUP4 MLOAD PUSH2 0x583F DUP2 PUSH1 0x17 DUP6 ADD PUSH1 0x20 DUP9 ADD PUSH2 0x4D52 JUMP JUMPDEST PUSH17 0x1034B99036B4B9B9B4B733903937B6329 PUSH1 0x7D SHL PUSH1 0x17 SWAP2 DUP5 ADD SWAP2 DUP3 ADD MSTORE DUP4 MLOAD PUSH2 0x5870 DUP2 PUSH1 0x28 DUP5 ADD PUSH1 0x20 DUP9 ADD PUSH2 0x4D52 JUMP JUMPDEST ADD PUSH1 0x28 ADD SWAP5 SWAP4 POP POP POP POP JUMP JUMPDEST PUSH1 0x0 PUSH1 0x20 DUP3 DUP5 SUB SLT ISZERO PUSH2 0x588E JUMPI PUSH1 0x0 DUP1 REVERT JUMPDEST DUP2 MLOAD PUSH2 0x1370 DUP2 PUSH2 0x52EA JUMP JUMPDEST PUSH1 0x20 DUP1 DUP3 MSTORE PUSH1 0x28 SWAP1 DUP3 ADD MSTORE PUSH32 0x455243313135353A2069647320616E6420616D6F756E7473206C656E67746820 PUSH1 0x40 DUP3 ADD MSTORE PUSH8 0xDAD2E6DAC2E8C6D PUSH1 0xC3 SHL PUSH1 0x60 DUP3 ADD MSTORE PUSH1 0x80 ADD SWAP1 JUMP JUMPDEST PUSH1 0x20 DUP1 DUP3 MSTORE PUSH1 0x25 SWAP1 DUP3 ADD MSTORE PUSH32 0x455243313135353A207472616E7366657220746F20746865207A65726F206164 PUSH1 0x40 DUP3 ADD MSTORE PUSH5 0x6472657373 PUSH1 0xD8 SHL PUSH1 0x60 DUP3 ADD MSTORE PUSH1 0x80 ADD SWAP1 JUMP JUMPDEST PUSH1 0x20 DUP1 DUP3 MSTORE PUSH1 0x2A SWAP1 DUP3 ADD MSTORE PUSH32 0x455243313135353A20696E73756666696369656E742062616C616E636520666F PUSH1 0x40 DUP3 ADD MSTORE PUSH10 0x39103A3930B739B332B9 PUSH1 0xB1 SHL PUSH1 0x60 DUP3 ADD MSTORE PUSH1 0x80 ADD SWAP1 JUMP JUMPDEST PUSH1 0x40 DUP2 MSTORE PUSH1 0x0 PUSH2 0x5983 PUSH1 0x40 DUP4 ADD DUP6 PUSH2 0x5193 JUMP JUMPDEST DUP3 DUP2 SUB PUSH1 0x20 DUP5 ADD MSTORE PUSH2 0x136C DUP2 DUP6 PUSH2 0x5193 JUMP JUMPDEST PUSH1 0x0 PUSH1 0x20 DUP3 DUP5 SUB SLT ISZERO PUSH2 0x59A7 JUMPI PUSH1 0x0 DUP1 REVERT JUMPDEST POP MLOAD SWAP2 SWAP1 POP JUMP JUMPDEST PUSH1 0x20 DUP1 DUP3 MSTORE PUSH1 0x23 SWAP1 DUP3 ADD MSTORE PUSH32 0x455243313135353A206275726E2066726F6D20746865207A65726F2061646472 PUSH1 0x40 DUP3 ADD MSTORE PUSH3 0x657373 PUSH1 0xE8 SHL PUSH1 0x60 DUP3 ADD MSTORE PUSH1 0x80 ADD SWAP1 JUMP JUMPDEST PUSH1 0x20 DUP1 DUP3 MSTORE PUSH1 0x24 SWAP1 DUP3 ADD MSTORE PUSH32 0x455243313135353A206275726E20616D6F756E7420657863656564732062616C PUSH1 0x40 DUP3 ADD MSTORE PUSH4 0x616E6365 PUSH1 0xE0 SHL PUSH1 0x60 DUP3 ADD MSTORE PUSH1 0x80 ADD SWAP1 JUMP JUMPDEST PUSH1 0x0 DUP3 PUSH2 0x5A44 JUMPI PUSH2 0x5A44 PUSH2 0x575D JUMP JUMPDEST POP MOD SWAP1 JUMP JUMPDEST PUSH1 0x0 DUP2 PUSH2 0x5A58 JUMPI PUSH2 0x5A58 PUSH2 0x5582 JUMP JUMPDEST POP PUSH1 0x0 NOT ADD SWAP1 JUMP JUMPDEST PUSH1 0x1 PUSH1 0x1 PUSH1 0xA0 SHL SUB DUP7 DUP2 AND DUP3 MSTORE DUP6 AND PUSH1 0x20 DUP3 ADD MSTORE PUSH1 0xA0 PUSH1 0x40 DUP3 ADD DUP2 SWAP1 MSTORE PUSH1 0x0 SWAP1 PUSH2 0x5A8C SWAP1 DUP4 ADD DUP7 PUSH2 0x5193 JUMP JUMPDEST DUP3 DUP2 SUB PUSH1 0x60 DUP5 ADD MSTORE PUSH2 0x5A9E DUP2 DUP7 PUSH2 0x5193 JUMP JUMPDEST SWAP1 POP DUP3 DUP2 SUB PUSH1 0x80 DUP5 ADD MSTORE PUSH2 0x5AB2 DUP2 DUP6 PUSH2 0x4D7E JUMP JUMPDEST SWAP9 SWAP8 POP POP POP POP POP POP POP POP JUMP JUMPDEST PUSH1 0x0 PUSH1 0x20 DUP3 DUP5 SUB SLT ISZERO PUSH2 0x5AD0 JUMPI PUSH1 0x0 DUP1 REVERT JUMPDEST DUP2 MLOAD PUSH2 0x1370 DUP2 PUSH2 0x4C92 JUMP JUMPDEST PUSH1 0x0 PUSH1 0x3 RETURNDATASIZE GT ISZERO PUSH2 0x5AF4 JUMPI PUSH1 0x4 PUSH1 0x0 DUP1 RETURNDATACOPY POP PUSH1 0x0 MLOAD PUSH1 0xE0 SHR JUMPDEST SWAP1 JUMP JUMPDEST PUSH1 0x0 PUSH1 0x44 RETURNDATASIZE LT ISZERO PUSH2 0x5B05 JUMPI SWAP1 JUMP JUMPDEST PUSH1 0x40 MLOAD PUSH1 0x3 NOT RETURNDATASIZE DUP2 ADD PUSH1 0x4 DUP4 RETURNDATACOPY DUP2 MLOAD RETURNDATASIZE PUSH1 0x1 PUSH1 0x1 PUSH1 0x40 SHL SUB DUP2 PUSH1 0x24 DUP5 ADD GT DUP2 DUP5 GT OR ISZERO PUSH2 0x5B34 JUMPI POP POP POP POP POP SWAP1 JUMP JUMPDEST DUP3 DUP6 ADD SWAP2 POP DUP2 MLOAD DUP2 DUP2 GT ISZERO PUSH2 0x5B4C JUMPI POP POP POP POP POP POP SWAP1 JUMP JUMPDEST DUP5 RETURNDATASIZE DUP8 ADD ADD PUSH1 0x20 DUP3 DUP6 ADD ADD GT ISZERO PUSH2 0x5B66 JUMPI POP POP POP POP POP POP SWAP1 JUMP JUMPDEST PUSH2 0x5B75 PUSH1 0x20 DUP3 DUP7 ADD ADD DUP8 PUSH2 0x4DD3 JUMP JUMPDEST POP SWAP1 SWAP6 SWAP5 POP POP POP POP POP JUMP JUMPDEST PUSH1 0x20 DUP1 DUP3 MSTORE PUSH1 0x28 SWAP1 DUP3 ADD MSTORE PUSH32 0x455243313135353A204552433131353552656365697665722072656A65637465 PUSH1 0x40 DUP3 ADD MSTORE PUSH8 0x6420746F6B656E73 PUSH1 0xC0 SHL PUSH1 0x60 DUP3 ADD MSTORE PUSH1 0x80 ADD SWAP1 JUMP JUMPDEST PUSH1 0x0 DUP3 MLOAD PUSH2 0x5BDA DUP2 DUP5 PUSH1 0x20 DUP8 ADD PUSH2 0x4D52 JUMP JUMPDEST SWAP2 SWAP1 SWAP2 ADD SWAP3 SWAP2 POP POP JUMP JUMPDEST PUSH1 0x1 PUSH1 0x1 PUSH1 0xA0 SHL SUB DUP7 DUP2 AND DUP3 MSTORE DUP6 AND PUSH1 0x20 DUP3 ADD MSTORE PUSH1 0x40 DUP2 ADD DUP5 SWAP1 MSTORE PUSH1 0x60 DUP2 ADD DUP4 SWAP1 MSTORE PUSH1 0xA0 PUSH1 0x80 DUP3 ADD DUP2 SWAP1 MSTORE PUSH1 0x0 SWAP1 PUSH2 0x3571 SWAP1 DUP4 ADD DUP5 PUSH2 0x4D7E JUMP JUMPDEST PUSH4 0x4E487B71 PUSH1 0xE0 SHL PUSH1 0x0 MSTORE PUSH1 0x31 PUSH1 0x4 MSTORE PUSH1 0x24 PUSH1 0x0 REVERT INVALID LOG2 PUSH5 0x6970667358 0x22 SLT KECCAK256 0xD2 PUSH13 0xA207977EF59AAD7C852FDB00CA NOT 0xC5 GASPRICE 0x1F SWAP4 CALLDATACOPY PUSH22 0x21A136BAEBA0237E133F64736F6C634300080B003368 PUSH21 0x7470733A2F2F646174612E63657262792E66692F43 PUSH6 0x726279537761 PUSH17 0x2F76312F00000000000000000000000000 "
		},
		"gasEstimates": {
			"creation": {
				"codeDepositCost": "4731600",
				"executionCost": "infinite",
				"totalCost": "infinite"
			},
			"external": {
				"ROLE_ADMIN()": "273",
				"addTokenLiquidity(address,uint256,uint256,address)": "infinite",
				"adminCreatePool(address,uint256,uint256,address)": "infinite",
				"adminInitialize()": "infinite",
				"adminSetURI(string)": "infinite",
				"adminUpdateFeesAndTvlMultipliers(uint256,uint256,uint256,uint256,uint256,address)": "infinite",
				"adminUpdateNameAndSymbol(string,string)": "infinite",
				"balanceOf(address,uint256)": "2717",
				"balanceOfBatch(address[],uint256[])": "infinite",
				"burn(address,uint256,uint256)": "infinite",
				"burnBatch(address,uint256[],uint256[])": "infinite",
				"decimals()": "337",
				"exists(uint256)": "2606",
				"feeToBeneficiary()": "2426",
				"getCurrentFeeBasedOnTrades(address)": "infinite",
				"getInputTokensForExactTokens(address,address,uint256)": "infinite",
				"getOutputExactTokensForTokens(address,address,uint256)": "infinite",
				"getPoolByPosition(uint256)": "infinite",
				"getPoolByToken(address)": "infinite",
				"getRoleAdmin(bytes32)": "2523",
				"getRoleMember(bytes32,uint256)": "infinite",
				"getRoleMemberCount(bytes32)": "infinite",
				"getTokenToPoolPosition(address)": "2587",
				"getTotalCerUsdBalance()": "2436",
				"getUtilsContractAtPos(uint256)": "infinite",
				"grantRole(bytes32,address)": "infinite",
				"grantRolesBulk((bytes32,address)[])": "infinite",
				"hasRole(bytes32,address)": "2710",
				"isApprovedForAll(address,address)": "infinite",
				"name()": "infinite",
				"removeTokenLiquidity(address,uint256,uint256,address)": "infinite",
				"renounceRole(bytes32,address)": "infinite",
				"revokeRole(bytes32,address)": "infinite",
				"safeBatchTransferFrom(address,address,uint256[],uint256[],bytes)": "infinite",
				"safeTransferFrom(address,address,uint256,uint256,bytes)": "infinite",
				"setApprovalForAll(address,bool)": "infinite",
				"supportsInterface(bytes4)": "infinite",
				"swap(address,uint256,uint256,address)": "infinite",
				"swapExactTokensForTokens(address,address,uint256,uint256,uint256,address)": "infinite",
				"swapTokensForExactTokens(address,address,uint256,uint256,uint256,address)": "infinite",
				"symbol()": "infinite",
				"syncTokenBalanceInPool(address)": "infinite",
				"testInit()": "infinite",
				"testSetupTokens(address,address,address,address,address)": "infinite",
				"totalSupply()": "infinite",
				"totalSupply(uint256)": "2538",
				"uri(uint256)": "infinite"
			},
			"internal": {
				"_getInput(uint256,uint256,uint256,uint256)": "infinite",
				"_getMintFeeLiquidityAmount(uint256,uint256,uint256)": "infinite",
				"_getOutput(uint256,uint256,uint256,uint256)": "infinite",
				"_getTokenBalance(address)": "infinite",
				"_removeTokenLiquidity(address,uint256,address)": "infinite",
				"_safeTransferFrom(address,address,address,uint256)": "infinite",
				"_safeTransferFromHelper(address,address,uint256)": "infinite",
				"_safeTransferHelper(address,address,uint256,bool)": "infinite",
				"_safeTransferNative(address,uint256)": "infinite",
				"_safeTransferToken(address,address,uint256)": "infinite",
				"_swap(address,uint256,uint256,address)": "infinite",
				"getCurrentFeeBasedOnTrades(uint256)": "infinite",
				"getCurrentPeriod()": "142",
				"getInputCerUsdForExactTokens(address,uint256)": "infinite",
				"getInputTokensForExactCerUsd(address,uint256)": "infinite",
				"getOutputExactCerUsdForTokens(address,uint256)": "infinite",
				"getOutputExactTokensForCerUsd(address,uint256)": "infinite",
				"sqrt(uint256)": "infinite"
			}
		},
		"methodIdentifiers": {
			"ROLE_ADMIN()": "d391014b",
			"addTokenLiquidity(address,uint256,uint256,address)": "43fefad4",
			"adminCreatePool(address,uint256,uint256,address)": "d5d60737",
			"adminInitialize()": "c09c923b",
			"adminSetURI(string)": "a7fd40bf",
			"adminUpdateFeesAndTvlMultipliers(uint256,uint256,uint256,uint256,uint256,address)": "806801b2",
			"adminUpdateNameAndSymbol(string,string)": "3935ac11",
			"balanceOf(address,uint256)": "00fdd58e",
			"balanceOfBatch(address[],uint256[])": "4e1273f4",
			"burn(address,uint256,uint256)": "f5298aca",
			"burnBatch(address,uint256[],uint256[])": "6b20c454",
			"decimals()": "313ce567",
			"exists(uint256)": "4f558e79",
			"feeToBeneficiary()": "7b4b233c",
			"getCurrentFeeBasedOnTrades(address)": "9162ebf0",
			"getInputTokensForExactTokens(address,address,uint256)": "c790985a",
			"getOutputExactTokensForTokens(address,address,uint256)": "48b08d62",
			"getPoolByPosition(uint256)": "d01350bd",
			"getPoolByToken(address)": "bbadc03b",
			"getRoleAdmin(bytes32)": "248a9ca3",
			"getRoleMember(bytes32,uint256)": "9010d07c",
			"getRoleMemberCount(bytes32)": "ca15c873",
			"getTokenToPoolPosition(address)": "b771e425",
			"getTotalCerUsdBalance()": "df465a1a",
			"getUtilsContractAtPos(uint256)": "06fb1a07",
			"grantRole(bytes32,address)": "2f2ff15d",
			"grantRolesBulk((bytes32,address)[])": "03ed957f",
			"hasRole(bytes32,address)": "91d14854",
			"isApprovedForAll(address,address)": "e985e9c5",
			"name()": "06fdde03",
			"removeTokenLiquidity(address,uint256,uint256,address)": "74fcf071",
			"renounceRole(bytes32,address)": "36568abe",
			"revokeRole(bytes32,address)": "d547741f",
			"safeBatchTransferFrom(address,address,uint256[],uint256[],bytes)": "2eb2c2d6",
			"safeTransferFrom(address,address,uint256,uint256,bytes)": "f242432a",
			"setApprovalForAll(address,bool)": "a22cb465",
			"supportsInterface(bytes4)": "01ffc9a7",
			"swap(address,uint256,uint256,address)": "f3e6ea8a",
			"swapExactTokensForTokens(address,address,uint256,uint256,uint256,address)": "a60c6e55",
			"swapTokensForExactTokens(address,address,uint256,uint256,uint256,address)": "f6524724",
			"symbol()": "95d89b41",
			"syncTokenBalanceInPool(address)": "9bc731fc",
			"testInit()": "b5d11e99",
			"testSetupTokens(address,address,address,address,address)": "eca01093",
			"totalSupply()": "18160ddd",
			"totalSupply(uint256)": "bd85b039",
			"uri(uint256)": "0e89341c"
		}
	},
	"abi": [
		{
			"inputs": [],
			"stateMutability": "nonpayable",
			"type": "constructor"
		},
		{
			"anonymous": false,
			"inputs": [
				{
					"indexed": true,
					"internalType": "address",
					"name": "account",
					"type": "address"
				},
				{
					"indexed": true,
					"internalType": "address",
					"name": "operator",
					"type": "address"
				},
				{
					"indexed": false,
					"internalType": "bool",
					"name": "approved",
					"type": "bool"
				}
			],
			"name": "ApprovalForAll",
			"type": "event"
		},
		{
			"anonymous": false,
			"inputs": [
				{
					"indexed": true,
					"internalType": "bytes32",
					"name": "role",
					"type": "bytes32"
				},
				{
					"indexed": true,
					"internalType": "bytes32",
					"name": "previousAdminRole",
					"type": "bytes32"
				},
				{
					"indexed": true,
					"internalType": "bytes32",
					"name": "newAdminRole",
					"type": "bytes32"
				}
			],
			"name": "RoleAdminChanged",
			"type": "event"
		},
		{
			"anonymous": false,
			"inputs": [
				{
					"indexed": true,
					"internalType": "bytes32",
					"name": "role",
					"type": "bytes32"
				},
				{
					"indexed": true,
					"internalType": "address",
					"name": "account",
					"type": "address"
				},
				{
					"indexed": true,
					"internalType": "address",
					"name": "sender",
					"type": "address"
				}
			],
			"name": "RoleGranted",
			"type": "event"
		},
		{
			"anonymous": false,
			"inputs": [
				{
					"indexed": true,
					"internalType": "bytes32",
					"name": "role",
					"type": "bytes32"
				},
				{
					"indexed": true,
					"internalType": "address",
					"name": "account",
					"type": "address"
				},
				{
					"indexed": true,
					"internalType": "address",
					"name": "sender",
					"type": "address"
				}
			],
			"name": "RoleRevoked",
			"type": "event"
		},
		{
			"anonymous": false,
			"inputs": [
				{
					"indexed": true,
					"internalType": "address",
					"name": "operator",
					"type": "address"
				},
				{
					"indexed": true,
					"internalType": "address",
					"name": "from",
					"type": "address"
				},
				{
					"indexed": true,
					"internalType": "address",
					"name": "to",
					"type": "address"
				},
				{
					"indexed": false,
					"internalType": "uint256[]",
					"name": "ids",
					"type": "uint256[]"
				},
				{
					"indexed": false,
					"internalType": "uint256[]",
					"name": "values",
					"type": "uint256[]"
				}
			],
			"name": "TransferBatch",
			"type": "event"
		},
		{
			"anonymous": false,
			"inputs": [
				{
					"indexed": true,
					"internalType": "address",
					"name": "operator",
					"type": "address"
				},
				{
					"indexed": true,
					"internalType": "address",
					"name": "from",
					"type": "address"
				},
				{
					"indexed": true,
					"internalType": "address",
					"name": "to",
					"type": "address"
				},
				{
					"indexed": false,
					"internalType": "uint256",
					"name": "id",
					"type": "uint256"
				},
				{
					"indexed": false,
					"internalType": "uint256",
					"name": "value",
					"type": "uint256"
				}
			],
			"name": "TransferSingle",
			"type": "event"
		},
		{
			"anonymous": false,
			"inputs": [
				{
					"indexed": false,
					"internalType": "string",
					"name": "value",
					"type": "string"
				},
				{
					"indexed": true,
					"internalType": "uint256",
					"name": "id",
					"type": "uint256"
				}
			],
			"name": "URI",
			"type": "event"
		},
		{
			"inputs": [],
			"name": "ROLE_ADMIN",
			"outputs": [
				{
					"internalType": "bytes32",
					"name": "",
					"type": "bytes32"
				}
			],
			"stateMutability": "view",
			"type": "function"
		},
		{
			"inputs": [
				{
					"internalType": "address",
					"name": "token",
					"type": "address"
				},
				{
					"internalType": "uint256",
					"name": "amountTokensIn",
					"type": "uint256"
				},
				{
					"internalType": "uint256",
					"name": "expireTimestamp",
					"type": "uint256"
				},
				{
					"internalType": "address",
					"name": "transferTo",
					"type": "address"
				}
			],
			"name": "addTokenLiquidity",
			"outputs": [],
			"stateMutability": "payable",
			"type": "function"
		},
		{
			"inputs": [
				{
					"internalType": "address",
					"name": "token",
					"type": "address"
				},
				{
					"internalType": "uint256",
					"name": "amountTokensIn",
					"type": "uint256"
				},
				{
					"internalType": "uint256",
					"name": "amountCerUsdIn",
					"type": "uint256"
				},
				{
					"internalType": "address",
					"name": "transferTo",
					"type": "address"
				}
			],
			"name": "adminCreatePool",
			"outputs": [],
			"stateMutability": "payable",
			"type": "function"
		},
		{
			"inputs": [],
			"name": "adminInitialize",
			"outputs": [],
			"stateMutability": "payable",
			"type": "function"
		},
		{
			"inputs": [
				{
					"internalType": "string",
					"name": "newUrlPrefix",
					"type": "string"
				}
			],
			"name": "adminSetURI",
			"outputs": [],
			"stateMutability": "nonpayable",
			"type": "function"
		},
		{
			"inputs": [
				{
					"internalType": "uint256",
					"name": "_feeMinimum",
					"type": "uint256"
				},
				{
					"internalType": "uint256",
					"name": "_feeMaximum",
					"type": "uint256"
				},
				{
					"internalType": "uint256",
					"name": "_tvlMultiplierMinimum",
					"type": "uint256"
				},
				{
					"internalType": "uint256",
					"name": "_tvlMultiplierMaximum",
					"type": "uint256"
				},
				{
					"internalType": "uint256",
					"name": "_mintFeeMultiplier",
					"type": "uint256"
				},
				{
					"internalType": "address",
					"name": "_feeToBeneficiary",
					"type": "address"
				}
			],
			"name": "adminUpdateFeesAndTvlMultipliers",
			"outputs": [],
			"stateMutability": "nonpayable",
			"type": "function"
		},
		{
			"inputs": [
				{
					"internalType": "string",
					"name": "newName",
					"type": "string"
				},
				{
					"internalType": "string",
					"name": "newSymbol",
					"type": "string"
				}
			],
			"name": "adminUpdateNameAndSymbol",
			"outputs": [],
			"stateMutability": "nonpayable",
			"type": "function"
		},
		{
			"inputs": [
				{
					"internalType": "address",
					"name": "account",
					"type": "address"
				},
				{
					"internalType": "uint256",
					"name": "id",
					"type": "uint256"
				}
			],
			"name": "balanceOf",
			"outputs": [
				{
					"internalType": "uint256",
					"name": "",
					"type": "uint256"
				}
			],
			"stateMutability": "view",
			"type": "function"
		},
		{
			"inputs": [
				{
					"internalType": "address[]",
					"name": "accounts",
					"type": "address[]"
				},
				{
					"internalType": "uint256[]",
					"name": "ids",
					"type": "uint256[]"
				}
			],
			"name": "balanceOfBatch",
			"outputs": [
				{
					"internalType": "uint256[]",
					"name": "",
					"type": "uint256[]"
				}
			],
			"stateMutability": "view",
			"type": "function"
		},
		{
			"inputs": [
				{
					"internalType": "address",
					"name": "account",
					"type": "address"
				},
				{
					"internalType": "uint256",
					"name": "id",
					"type": "uint256"
				},
				{
					"internalType": "uint256",
					"name": "value",
					"type": "uint256"
				}
			],
			"name": "burn",
			"outputs": [],
			"stateMutability": "nonpayable",
			"type": "function"
		},
		{
			"inputs": [
				{
					"internalType": "address",
					"name": "account",
					"type": "address"
				},
				{
					"internalType": "uint256[]",
					"name": "ids",
					"type": "uint256[]"
				},
				{
					"internalType": "uint256[]",
					"name": "values",
					"type": "uint256[]"
				}
			],
			"name": "burnBatch",
			"outputs": [],
			"stateMutability": "nonpayable",
			"type": "function"
		},
		{
			"inputs": [],
			"name": "decimals",
			"outputs": [
				{
					"internalType": "uint256",
					"name": "",
					"type": "uint256"
				}
			],
			"stateMutability": "pure",
			"type": "function"
		},
		{
			"inputs": [
				{
					"internalType": "uint256",
					"name": "id",
					"type": "uint256"
				}
			],
			"name": "exists",
			"outputs": [
				{
					"internalType": "bool",
					"name": "",
					"type": "bool"
				}
			],
			"stateMutability": "view",
			"type": "function"
		},
		{
			"inputs": [],
			"name": "feeToBeneficiary",
			"outputs": [
				{
					"internalType": "address",
					"name": "",
					"type": "address"
				}
			],
			"stateMutability": "view",
			"type": "function"
		},
		{
			"inputs": [
				{
					"internalType": "address",
					"name": "token",
					"type": "address"
				}
			],
			"name": "getCurrentFeeBasedOnTrades",
			"outputs": [
				{
					"internalType": "uint256",
					"name": "fee",
					"type": "uint256"
				}
			],
			"stateMutability": "view",
			"type": "function"
		},
		{
			"inputs": [
				{
					"internalType": "address",
					"name": "tokenIn",
					"type": "address"
				},
				{
					"internalType": "address",
					"name": "tokenOut",
					"type": "address"
				},
				{
					"internalType": "uint256",
					"name": "amountTokensOut",
					"type": "uint256"
				}
			],
			"name": "getInputTokensForExactTokens",
			"outputs": [
				{
					"internalType": "uint256",
					"name": "amountTokensIn",
					"type": "uint256"
				}
			],
			"stateMutability": "view",
			"type": "function"
		},
		{
			"inputs": [
				{
					"internalType": "address",
					"name": "tokenIn",
					"type": "address"
				},
				{
					"internalType": "address",
					"name": "tokenOut",
					"type": "address"
				},
				{
					"internalType": "uint256",
					"name": "amountTokensIn",
					"type": "uint256"
				}
			],
			"name": "getOutputExactTokensForTokens",
			"outputs": [
				{
					"internalType": "uint256",
					"name": "amountTokensOut",
					"type": "uint256"
				}
			],
			"stateMutability": "view",
			"type": "function"
		},
		{
			"inputs": [
				{
					"internalType": "uint256",
					"name": "pos",
					"type": "uint256"
				}
			],
			"name": "getPoolByPosition",
			"outputs": [
				{
					"components": [
						{
							"internalType": "address",
							"name": "token",
							"type": "address"
						},
						{
							"internalType": "uint32[8]",
							"name": "tradeVolumePerPeriodInCerUsd",
							"type": "uint32[8]"
						},
						{
							"internalType": "uint128",
							"name": "balanceToken",
							"type": "uint128"
						},
						{
							"internalType": "uint128",
							"name": "balanceCerUsd",
							"type": "uint128"
						},
						{
							"internalType": "uint128",
							"name": "lastSqrtKValue",
							"type": "uint128"
						}
					],
					"internalType": "struct CerbySwapV1.Pool",
					"name": "",
					"type": "tuple"
				}
			],
			"stateMutability": "view",
			"type": "function"
		},
		{
			"inputs": [
				{
					"internalType": "address",
					"name": "token",
					"type": "address"
				}
			],
			"name": "getPoolByToken",
			"outputs": [
				{
					"components": [
						{
							"internalType": "address",
							"name": "token",
							"type": "address"
						},
						{
							"internalType": "uint32[8]",
							"name": "tradeVolumePerPeriodInCerUsd",
							"type": "uint32[8]"
						},
						{
							"internalType": "uint128",
							"name": "balanceToken",
							"type": "uint128"
						},
						{
							"internalType": "uint128",
							"name": "balanceCerUsd",
							"type": "uint128"
						},
						{
							"internalType": "uint128",
							"name": "lastSqrtKValue",
							"type": "uint128"
						}
					],
					"internalType": "struct CerbySwapV1.Pool",
					"name": "",
					"type": "tuple"
				}
			],
			"stateMutability": "view",
			"type": "function"
		},
		{
			"inputs": [
				{
					"internalType": "bytes32",
					"name": "role",
					"type": "bytes32"
				}
			],
			"name": "getRoleAdmin",
			"outputs": [
				{
					"internalType": "bytes32",
					"name": "",
					"type": "bytes32"
				}
			],
			"stateMutability": "view",
			"type": "function"
		},
		{
			"inputs": [
				{
					"internalType": "bytes32",
					"name": "role",
					"type": "bytes32"
				},
				{
					"internalType": "uint256",
					"name": "index",
					"type": "uint256"
				}
			],
			"name": "getRoleMember",
			"outputs": [
				{
					"internalType": "address",
					"name": "",
					"type": "address"
				}
			],
			"stateMutability": "view",
			"type": "function"
		},
		{
			"inputs": [
				{
					"internalType": "bytes32",
					"name": "role",
					"type": "bytes32"
				}
			],
			"name": "getRoleMemberCount",
			"outputs": [
				{
					"internalType": "uint256",
					"name": "",
					"type": "uint256"
				}
			],
			"stateMutability": "view",
			"type": "function"
		},
		{
			"inputs": [
				{
					"internalType": "address",
					"name": "token",
					"type": "address"
				}
			],
			"name": "getTokenToPoolPosition",
			"outputs": [
				{
					"internalType": "uint256",
					"name": "",
					"type": "uint256"
				}
			],
			"stateMutability": "view",
			"type": "function"
		},
		{
			"inputs": [],
			"name": "getTotalCerUsdBalance",
			"outputs": [
				{
					"internalType": "uint256",
					"name": "",
					"type": "uint256"
				}
			],
			"stateMutability": "view",
			"type": "function"
		},
		{
			"inputs": [
				{
					"internalType": "uint256",
					"name": "pos",
					"type": "uint256"
				}
			],
			"name": "getUtilsContractAtPos",
			"outputs": [
				{
					"internalType": "address",
					"name": "",
					"type": "address"
				}
			],
			"stateMutability": "view",
			"type": "function"
		},
		{
			"inputs": [
				{
					"internalType": "bytes32",
					"name": "role",
					"type": "bytes32"
				},
				{
					"internalType": "address",
					"name": "account",
					"type": "address"
				}
			],
			"name": "grantRole",
			"outputs": [],
			"stateMutability": "nonpayable",
			"type": "function"
		},
		{
			"inputs": [
				{
					"components": [
						{
							"internalType": "bytes32",
							"name": "role",
							"type": "bytes32"
						},
						{
							"internalType": "address",
							"name": "addr",
							"type": "address"
						}
					],
					"internalType": "struct RoleAccess[]",
					"name": "roles",
					"type": "tuple[]"
				}
			],
			"name": "grantRolesBulk",
			"outputs": [],
			"stateMutability": "nonpayable",
			"type": "function"
		},
		{
			"inputs": [
				{
					"internalType": "bytes32",
					"name": "role",
					"type": "bytes32"
				},
				{
					"internalType": "address",
					"name": "account",
					"type": "address"
				}
			],
			"name": "hasRole",
			"outputs": [
				{
					"internalType": "bool",
					"name": "",
					"type": "bool"
				}
			],
			"stateMutability": "view",
			"type": "function"
		},
		{
			"inputs": [
				{
					"internalType": "address",
					"name": "account",
					"type": "address"
				},
				{
					"internalType": "address",
					"name": "operator",
					"type": "address"
				}
			],
			"name": "isApprovedForAll",
			"outputs": [
				{
					"internalType": "bool",
					"name": "",
					"type": "bool"
				}
			],
			"stateMutability": "view",
			"type": "function"
		},
		{
			"inputs": [],
			"name": "name",
			"outputs": [
				{
					"internalType": "string",
					"name": "",
					"type": "string"
				}
			],
			"stateMutability": "view",
			"type": "function"
		},
		{
			"inputs": [
				{
					"internalType": "address",
					"name": "token",
					"type": "address"
				},
				{
					"internalType": "uint256",
					"name": "amountLpTokensBalanceToBurn",
					"type": "uint256"
				},
				{
					"internalType": "uint256",
					"name": "expireTimestamp",
					"type": "uint256"
				},
				{
					"internalType": "address",
					"name": "transferTo",
					"type": "address"
				}
			],
			"name": "removeTokenLiquidity",
			"outputs": [],
			"stateMutability": "nonpayable",
			"type": "function"
		},
		{
			"inputs": [
				{
					"internalType": "bytes32",
					"name": "role",
					"type": "bytes32"
				},
				{
					"internalType": "address",
					"name": "account",
					"type": "address"
				}
			],
			"name": "renounceRole",
			"outputs": [],
			"stateMutability": "nonpayable",
			"type": "function"
		},
		{
			"inputs": [
				{
					"internalType": "bytes32",
					"name": "role",
					"type": "bytes32"
				},
				{
					"internalType": "address",
					"name": "account",
					"type": "address"
				}
			],
			"name": "revokeRole",
			"outputs": [],
			"stateMutability": "nonpayable",
			"type": "function"
		},
		{
			"inputs": [
				{
					"internalType": "address",
					"name": "from",
					"type": "address"
				},
				{
					"internalType": "address",
					"name": "to",
					"type": "address"
				},
				{
					"internalType": "uint256[]",
					"name": "ids",
					"type": "uint256[]"
				},
				{
					"internalType": "uint256[]",
					"name": "amounts",
					"type": "uint256[]"
				},
				{
					"internalType": "bytes",
					"name": "data",
					"type": "bytes"
				}
			],
			"name": "safeBatchTransferFrom",
			"outputs": [],
			"stateMutability": "nonpayable",
			"type": "function"
		},
		{
			"inputs": [
				{
					"internalType": "address",
					"name": "from",
					"type": "address"
				},
				{
					"internalType": "address",
					"name": "to",
					"type": "address"
				},
				{
					"internalType": "uint256",
					"name": "id",
					"type": "uint256"
				},
				{
					"internalType": "uint256",
					"name": "amount",
					"type": "uint256"
				},
				{
					"internalType": "bytes",
					"name": "data",
					"type": "bytes"
				}
			],
			"name": "safeTransferFrom",
			"outputs": [],
			"stateMutability": "nonpayable",
			"type": "function"
		},
		{
			"inputs": [
				{
					"internalType": "address",
					"name": "operator",
					"type": "address"
				},
				{
					"internalType": "bool",
					"name": "approved",
					"type": "bool"
				}
			],
			"name": "setApprovalForAll",
			"outputs": [],
			"stateMutability": "nonpayable",
			"type": "function"
		},
		{
			"inputs": [
				{
					"internalType": "bytes4",
					"name": "interfaceId",
					"type": "bytes4"
				}
			],
			"name": "supportsInterface",
			"outputs": [
				{
					"internalType": "bool",
					"name": "",
					"type": "bool"
				}
			],
			"stateMutability": "view",
			"type": "function"
		},
		{
			"inputs": [
				{
					"internalType": "address",
					"name": "token",
					"type": "address"
				},
				{
					"internalType": "uint256",
					"name": "amountTokensOut",
					"type": "uint256"
				},
				{
					"internalType": "uint256",
					"name": "amountCerUsdOut",
					"type": "uint256"
				},
				{
					"internalType": "address",
					"name": "transferTo",
					"type": "address"
				}
			],
			"name": "swap",
			"outputs": [],
			"stateMutability": "payable",
			"type": "function"
		},
		{
			"inputs": [
				{
					"internalType": "address",
					"name": "tokenIn",
					"type": "address"
				},
				{
					"internalType": "address",
					"name": "tokenOut",
					"type": "address"
				},
				{
					"internalType": "uint256",
					"name": "amountTokensIn",
					"type": "uint256"
				},
				{
					"internalType": "uint256",
					"name": "minAmountTokensOut",
					"type": "uint256"
				},
				{
					"internalType": "uint256",
					"name": "expireTimestamp",
					"type": "uint256"
				},
				{
					"internalType": "address",
					"name": "transferTo",
					"type": "address"
				}
			],
			"name": "swapExactTokensForTokens",
			"outputs": [
				{
					"internalType": "uint256",
					"name": "",
					"type": "uint256"
				},
				{
					"internalType": "uint256",
					"name": "",
					"type": "uint256"
				}
			],
			"stateMutability": "payable",
			"type": "function"
		},
		{
			"inputs": [
				{
					"internalType": "address",
					"name": "tokenIn",
					"type": "address"
				},
				{
					"internalType": "address",
					"name": "tokenOut",
					"type": "address"
				},
				{
					"internalType": "uint256",
					"name": "amountTokensOut",
					"type": "uint256"
				},
				{
					"internalType": "uint256",
					"name": "maxAmountTokensIn",
					"type": "uint256"
				},
				{
					"internalType": "uint256",
					"name": "expireTimestamp",
					"type": "uint256"
				},
				{
					"internalType": "address",
					"name": "transferTo",
					"type": "address"
				}
			],
			"name": "swapTokensForExactTokens",
			"outputs": [
				{
					"internalType": "uint256",
					"name": "",
					"type": "uint256"
				},
				{
					"internalType": "uint256",
					"name": "",
					"type": "uint256"
				}
			],
			"stateMutability": "payable",
			"type": "function"
		},
		{
			"inputs": [],
			"name": "symbol",
			"outputs": [
				{
					"internalType": "string",
					"name": "",
					"type": "string"
				}
			],
			"stateMutability": "view",
			"type": "function"
		},
		{
			"inputs": [
				{
					"internalType": "address",
					"name": "token",
					"type": "address"
				}
			],
			"name": "syncTokenBalanceInPool",
			"outputs": [],
			"stateMutability": "nonpayable",
			"type": "function"
		},
		{
			"inputs": [],
			"name": "testInit",
			"outputs": [],
			"stateMutability": "nonpayable",
			"type": "function"
		},
		{
			"inputs": [
				{
					"internalType": "address",
					"name": "_testCerbyBotDetectionContract",
					"type": "address"
				},
				{
					"internalType": "address",
					"name": "_testCerbyToken",
					"type": "address"
				},
				{
					"internalType": "address",
					"name": "_cerUsdToken",
					"type": "address"
				},
				{
					"internalType": "address",
					"name": "_testUsdcToken",
					"type": "address"
				},
				{
					"internalType": "address",
					"name": "",
					"type": "address"
				}
			],
			"name": "testSetupTokens",
			"outputs": [],
			"stateMutability": "nonpayable",
			"type": "function"
		},
		{
			"inputs": [],
			"name": "totalSupply",
			"outputs": [
				{
					"internalType": "uint256",
					"name": "",
					"type": "uint256"
				}
			],
			"stateMutability": "view",
			"type": "function"
		},
		{
			"inputs": [
				{
					"internalType": "uint256",
					"name": "id",
					"type": "uint256"
				}
			],
			"name": "totalSupply",
			"outputs": [
				{
					"internalType": "uint256",
					"name": "",
					"type": "uint256"
				}
			],
			"stateMutability": "view",
			"type": "function"
		},
		{
			"inputs": [
				{
					"internalType": "uint256",
					"name": "id",
					"type": "uint256"
				}
			],
			"name": "uri",
			"outputs": [
				{
					"internalType": "string",
					"name": "",
					"type": "string"
				}
			],
			"stateMutability": "view",
			"type": "function"
		},
		{
			"stateMutability": "payable",
			"type": "receive"
		}
	]
}