{
	"data": {
		"bytecode": {
			"linkReferences": {},
			"object": "60c0604052600d60808190526c4365726279205377617020563160981b60a090815262000030916006919062000a7d565b5060408051808201909152600d8082526c43455242595f535741505f563160981b6020909201918252620000679160079162000a7d565b5060405180606001604052806023815260200162006de1602391398051620000989160089160209091019062000a7d565b50602580546001600160a01b0319908116733d982cb3bc8d1248b17f22b567524bf7bffd3b11179091556026805482167337e140032ac3a8428ed43761a9881d4741eb3a7317905560278054821673d575ef966cfe21a5a5602dfadad3d1cae8c60fdb179055602980549091167314769f96e57b80c66837701de0b43686fb4632de1790553480156200012a57600080fd5b5060086040516020016200013f919062000c18565b60408051601f198184030181529190526200015a8162000905565b50620001686000336200091e565b604080516103608101825260016103208201818152604160f81b610340840152825282518084018452818152602160f91b6020828101919091528084019190915283518085018552828152604360f81b818301528385015283518085018552828152601160fa1b81830152606084015283518085018552828152604560f81b81830152608084015283518085018552828152602360f91b8183015260a084015283518085018552828152604760f81b8183015260c084015283518085018552828152600960fb1b8183015260e084015283518085018552828152606960f81b8183015261010084015283518085018552828152602560f91b8183015261012084015283518085018552828152604b60f81b8183015261014084015283518085018552828152601360fa1b8183015261016084015283518085018552828152604d60f81b8183015261018084015283518085018552828152602760f91b818301526101a084015283518085018552828152604f60f81b818301526101c084015283518085018552828152600560fc1b818301526101e084015283518085018552828152605160f81b8183015261020084015283518085018552828152602960f91b8183015261022084015283518085018552828152605360f81b8183015261024084015283518085018552828152601560fa1b8183015261026084015283518085018552828152605560f81b8183015261028084015283518085018552828152602b60f91b818301526102a084015283518085018552828152605760f81b818301526102c084015283518085018552828152600b60fb1b818301526102e08401528351808501909452908352605960f81b83820152610300820192909252805180519192600992620003fd928492019062000a7d565b50602082810151805162000418926001850192019062000a7d565b50604082015180516200043691600284019160209091019062000a7d565b50606082015180516200045491600384019160209091019062000a7d565b50608082015180516200047291600484019160209091019062000a7d565b5060a082015180516200049091600584019160209091019062000a7d565b5060c08201518051620004ae91600684019160209091019062000a7d565b5060e08201518051620004cc91600784019160209091019062000a7d565b506101008201518051620004eb91600884019160209091019062000a7d565b5061012082015180516200050a91600984019160209091019062000a7d565b5061014082015180516200052991600a84019160209091019062000a7d565b5061016082015180516200054891600b84019160209091019062000a7d565b5061018082015180516200056791600c84019160209091019062000a7d565b506101a082015180516200058691600d84019160209091019062000a7d565b506101c08201518051620005a591600e84019160209091019062000a7d565b506101e08201518051620005c491600f84019160209091019062000a7d565b506102008201518051620005e391601084019160209091019062000a7d565b5061022082015180516200060291601184019160209091019062000a7d565b5061024082015180516200062191601284019160209091019062000a7d565b5061026082015180516200064091601384019160209091019062000a7d565b5061028082015180516200065f91601484019160209091019062000a7d565b506102a082015180516200067e91601584019160209091019062000a7d565b506102c082015180516200069d91601684019160209091019062000a7d565b506102e08201518051620006bc91601784019160209091019062000a7d565b506103008201518051620006db91601884019160209091019062000a7d565b509050506040518060c00160405280630dead1236001600160a01b031681526020016000815260200160018152602001606481526020016064612710600f62000725919062000cd6565b62000731919062000d04565b815260200162000745612710600f62000cd6565b90528051602a80546001600160a01b0319166001600160a01b039092169190911790556020810151602b556040810151602c556060810151602d556080810151602e5560a00151602f556200079962000b0c565b6040805160a081018252600080825260208201848152928201819052606082018190526080820181905260228054600181018255915281517f61035b26e3e9eee00e0d72fd1ee8ddca6894550dca6916ea2ac6baa90d11e510600490920291820180546001600160a01b0319166001600160a01b0390921691909117815592519192916200084c917f61035b26e3e9eee00e0d72fd1ee8ddca6894550dca6916ea2ac6baa90d11e5110190600862000b2b565b50604082015160608301516001600160801b03918216600160801b91831691909102176002830155608090920151600390910180546001600160801b03191691909216179055466130391415620008b757602980546001600160a01b03191661dead179055620008d8565b46620181cd1415620008d857602980546001600160a01b03191661dead1790555b50602980546001600160a01b0319167314769f96e57b80c66837701de0b43686fb4632de17905562000d27565b80516200091a90600290602084019062000a7d565b5050565b6200091a82826200093b82826200096760201b62002a441760201c565b60008281526005602090815260409091206200096291839062002aca62000a0b821b17901c565b505050565b60008281526004602090815260408083206001600160a01b038516845290915290205460ff166200091a5760008281526004602090815260408083206001600160a01b03851684529091529020805460ff19166001179055620009c73390565b6001600160a01b0316816001600160a01b0316837f2f8788117e7eff1d82e926ec794901d17c78024a50270940304540a733656f0d60405160405180910390a45050565b600062000a22836001600160a01b03841662000a2b565b90505b92915050565b600081815260018301602052604081205462000a745750815460018181018455600084815260208082209093018490558454848252828601909352604090209190915562000a25565b50600062000a25565b82805462000a8b9062000bdb565b90600052602060002090601f01602090048101928262000aaf576000855562000afa565b82601f1062000aca57805160ff191683800117855562000afa565b8280016001018555821562000afa579182015b8281111562000afa57825182559160200191906001019062000add565b5062000b0892915062000bc4565b5090565b6040518061010001604052806008906020820280368337509192915050565b60018301918390821562000afa5791602002820160005b8382111562000b8857835183826101000a81548163ffffffff021916908363ffffffff160217905550926020019260040160208160030104928301926001030262000b42565b801562000bba5782816101000a81549063ffffffff021916905560040160208160030104928301926001030262000b88565b505062000b089291505b5b8082111562000b08576000815560010162000bc5565b600181811c9082168062000bf057607f821691505b6020821081141562000c1257634e487b7160e01b600052602260045260246000fd5b50919050565b600080835481600182811c91508083168062000c3557607f831692505b602080841082141562000c5657634e487b7160e01b86526022600452602486fd5b81801562000c6d576001811462000c7f5762000cae565b60ff1986168952848901965062000cae565b60008a81526020902060005b8681101562000ca65781548b82015290850190830162000c8b565b505084890196505b50505050505062000cce81683db4b23e973539b7b760b91b815260090190565b949350505050565b600081600019048311821515161562000cff57634e487b7160e01b600052601160045260246000fd5b500290565b60008262000d2257634e487b7160e01b600052601260045260246000fd5b500490565b6160aa8062000d376000396000f3fe60806040526004361061028b5760003560e01c806391d148541161015a578063ca15c873116100c1578063e985e9c51161007a578063e985e9c51461083d578063eca0109314610886578063f242432a146108a6578063f3e6ea8a146108c6578063f5298aca146108d9578063f6524724146108f957600080fd5b8063ca15c87314610734578063d391014b14610754578063d547741f14610769578063d5d6073714610789578063da0bcf401461079c578063e06174e4146107d257600080fd5b8063a6d8ad3911610113578063a6d8ad391461068a578063a7fd40bf146106aa578063b5d11e99146106ca578063bd85b039146106df578063c09c923b1461070c578063c790985a1461071457600080fd5b806391d14854146105cd57806395d89b41146105ed5780639bc731fc14610602578063a22cb46514610622578063a5534d7c14610642578063a60c6e551461066257600080fd5b80632f2ff15d116101fe57806348b08d62116101b757806348b08d62146104f15780634e1273f4146105115780634f558e791461053e57806374fcf0711461056d5780639010d07c1461058d5780639162ebf0146105ad57600080fd5b80632f2ff15d1461043d578063313ce5671461045d57806334e150ab1461047157806336568abe1461049e5780633935ac11146104be57806343fefad4146104de57600080fd5b806306fdde031161025057806306fdde03146103745780630c2e075b146103965780630e89341c146103b657806318160ddd146103d6578063248a9ca3146103eb5780632eb2c2d61461041b57600080fd5b8062fdd58e1461029757806301ffc9a7146102ca57806303d604bd146102fa57806303ed957f1461031c57806306fb1a071461033c57600080fd5b3661029257005b600080fd5b3480156102a357600080fd5b506102b76102b236600461521a565b61090c565b6040519081526020015b60405180910390f35b3480156102d657600080fd5b506102ea6102e536600461525c565b6109a6565b60405190151581526020016102c1565b34801561030657600080fd5b5061031a610315366004615279565b6109e6565b005b34801561032857600080fd5b5061031a610337366004615296565b610b3c565b34801561034857600080fd5b5061035c61035736600461530a565b610bb9565b6040516001600160a01b0390911681526020016102c1565b34801561038057600080fd5b50610389610c30565b6040516102c1919061537b565b3480156103a257600080fd5b5061031a6103b136600461538e565b610cc2565b3480156103c257600080fd5b506103896103d136600461530a565b610d53565b3480156103e257600080fd5b506102b7610d7f565b3480156103f757600080fd5b506102b761040636600461530a565b60009081526004602052604090206001015490565b34801561042757600080fd5b5061031a6104363660046154e9565b5050505050565b34801561044957600080fd5b5061031a610458366004615596565b610dcb565b34801561046957600080fd5b5060126102b7565b34801561047d57600080fd5b5061049161048c366004615611565b610df6565b6040516102c19190615652565b3480156104aa57600080fd5b5061031a6104b9366004615596565b610fb3565b3480156104ca57600080fd5b5061031a6104d9366004615706565b611031565b6102b76104ec366004615769565b611064565b3480156104fd57600080fd5b506102b761050c3660046157b3565b61165f565b34801561051d57600080fd5b5061053161052c3660046157f4565b611731565b6040516102c191906158b6565b34801561054a57600080fd5b506102ea61055936600461530a565b600090815260036020526040902054151590565b34801561057957600080fd5b506102b7610588366004615769565b611852565b34801561059957600080fd5b5061035c6105a83660046158fa565b6118e5565b3480156105b957600080fd5b506102b76105c8366004615279565b6118fd565b3480156105d957600080fd5b506102ea6105e8366004615596565b61191f565b3480156105f957600080fd5b5061038961194a565b34801561060e57600080fd5b5061031a61061d366004615279565b611959565b34801561062e57600080fd5b5061031a61063d36600461592a565b611bf0565b34801561064e57600080fd5b5061053161065d366004615611565b611da8565b610675610670366004615958565b611e56565b604080519283526020830191909152016102c1565b34801561069657600080fd5b506104916106a5366004615611565b612062565b3480156106b657600080fd5b5061031a6106c53660046159bf565b6121e4565b3480156106d657600080fd5b5061031a61222b565b3480156106eb57600080fd5b506102b76106fa36600461530a565b60009081526003602052604090205490565b61031a61227b565b34801561072057600080fd5b506102b761072f3660046157b3565b6122a4565b34801561074057600080fd5b506102b761074f36600461530a565b612364565b34801561076057600080fd5b506102b7600081565b34801561077557600080fd5b5061031a610784366004615596565b61237b565b61031a610797366004615769565b6123a1565b3480156107a857600080fd5b506102b76107b7366004615279565b6001600160a01b031660009081526023602052604090205490565b3480156107de57600080fd5b50602a54602b54602c54602d54602e54602f54610806956001600160a01b0316949392919086565b604080516001600160a01b0390971687526020870195909552938501929092526060840152608083015260a082015260c0016102c1565b34801561084957600080fd5b506102ea6108583660046159f3565b6001600160a01b03918216600090815260016020908152604080832093909416825291909152205460ff1690565b34801561089257600080fd5b5061031a6108a1366004615a21565b6126fb565b3480156108b257600080fd5b5061031a6108c1366004615a92565b61274d565b61031a6108d4366004615769565b61279d565b3480156108e557600080fd5b5061031a6108f4366004615afa565b6127a9565b610675610907366004615958565b6127ec565b60006001600160a01b03831661097d5760405162461bcd60e51b815260206004820152602b60248201527f455243313135353a2062616c616e636520717565727920666f7220746865207a60448201526a65726f206164647265737360a81b60648201526084015b60405180910390fd5b506000818152602081815260408083206001600160a01b03861684529091529020545b92915050565b60006001600160e01b03198216636cdb3d1360e11b14806109d757506001600160e01b031982166303a24d0760e21b145b806109a057506109a082612adf565b6001600160a01b038116600090815260236020526040902054819015801590610a1d57506026546001600160a01b03828116911614155b600b90610a3d5760405162461bcd60e51b81526004016109749190615b64565b506001600160a01b03821660009081526023602052604081205490610a6184612b14565b602654909150600090610a7c906001600160a01b0316612b14565b9050600060228481548110610a9357610a93615be9565b6000918252602090912060026004909202010154610aba906001600160801b031684615c15565b90508015610acf57610acf8633836000612b9c565b600060228581548110610ae457610ae4615be9565b6000918252602090912060049091020160020154610b1290600160801b90046001600160801b031684615c15565b90508015610b3357602654610b33906001600160a01b031633836000612b9c565b50505050505050565b6000610b488133612bdc565b60005b82811015610bb357610ba1848483818110610b6857610b68615be9565b90506040020160000135858584818110610b8457610b84615be9565b9050604002016020016020810190610b9c9190615279565b612c40565b80610bab81615c2c565b915050610b4b565b50505050565b6040516306fb1a0760e01b81526004810182905260009073def1fac7bf08f173d286bbbdcbeeade695129840906306fb1a0790602401602060405180830381865afa158015610c0c573d6000803e3d6000fd5b505050506040513d601f19601f820116820180604052508101906109a09190615c47565b606060068054610c3f90615b2f565b80601f0160208091040260200160405190810160405280929190818152602001828054610c6b90615b2f565b8015610cb85780601f10610c8d57610100808354040283529160200191610cb8565b820191906000526020600020905b815481529060010190602001808311610c9b57829003601f168201915b5050505050905090565b6000610cce8133612bdc565b81604001356000108015610ce9575081606001358260400135105b8015610cfa57506101f48260600135105b602090610d1a5760405162461bcd60e51b81526004016109749190615b64565b50602160a0830135608084013510610d455760405162461bcd60e51b81526004016109749190615b64565b5081602a610bb38282615c64565b6060600882604051602001610d69929190615cc1565b6040516020818303038152906040529050919050565b60008060005b6000600381610d9385615c2c565b94508481526020019081526020016000205411156109a057600082815260036020526040902054610dc49082615d46565b9050610d85565b600082815260046020526040902060010154610de78133612bdc565b610df18383612c46565b505050565b60606000826001600160401b03811115610e1257610e126153a0565b604051908082528060200260200182016040528015610e4b57816020015b610e38615079565b815260200190600190039081610e305790505b50905060005b83811015610fab57602260236000878785818110610e7157610e71615be9565b9050602002016020810190610e869190615279565b6001600160a01b03166001600160a01b031681526020019081526020016000205481548110610eb757610eb7615be9565b60009182526020918290206040805160a081018252600490930290910180546001600160a01b031683528151610100810190925291928301906001830160088282826020028201916000905b82829054906101000a900463ffffffff1663ffffffff1681526020019060040190602082600301049283019260010382029150808411610f035750505092845250505060028201546001600160801b038082166020840152600160801b909104811660408301526003909201549091166060909101528251839083908110610f8d57610f8d615be9565b60200260200101819052508080610fa390615c2c565b915050610e51565b509392505050565b6001600160a01b03811633146110235760405162461bcd60e51b815260206004820152602f60248201527f416363657373436f6e74726f6c3a2063616e206f6e6c792072656e6f756e636560448201526e103937b632b9903337b91039b2b63360891b6064820152608401610974565b61102d8282612c68565b5050565b600061103d8133612bdc565b82516110509060069060208601906150b7565b508151610bb39060079060208501906150b7565b6001600160a01b03841660009081526023602052604081205485901580159061109b57506026546001600160a01b03828116911614155b600b906110bb5760405162461bcd60e51b81526004016109749190615b64565b5083600c428210156110e05760405162461bcd60e51b81526004016109749190615b64565b506001600160a01b038716600090815260236020526040902054611105883389612c8a565b600061111089612b14565b90506022828154811061112557611125615be9565b600091825260209091206002600490920201015461114c906001600160801b031682615c15565b9750600e8861116e5760405162461bcd60e51b81526004016109749190615b64565b50602654600090611187906001600160a01b0316612b14565b90506000602454826111999190615c15565b90506000611220602286815481106111b3576111b3615be9565b906000526020600020906004020160020160109054906101000a90046001600160801b03166001600160801b0316602287815481106111f4576111f4615be9565b600091825260209091206002600490920201015461121b91906001600160801b0316615d5e565b612d41565b9050600061126e6022878154811061123a5761123a615be9565b6000918252602080832060036004909302018201548a84529190526040909120546001600160801b03909116908490612d9a565b9050801561129f57602a5460408051602081019091526000815261129f916001600160a01b03169088908490612e10565b50506000602285815481106112b6576112b6615be9565b600091825260208083206002600490930201919091015487835260039091526040909120546001600160801b03909116906112f1908d615d5e565b6112fb9190615d93565b905061131889868360405180602001604052806000815250612e10565b60006022868154811061132d5761132d615be9565b6000918252602090912060026004909202010154602280546001600160801b03909216918890811061136157611361615be9565b600091825260209091206004909102016002015461138f90600160801b90046001600160801b03168e615d5e565b6113999190615d93565b9050601d816113bb5760405162461bcd60e51b81526004016109749190615b64565b50602654604051630bb9ff5d60e01b8152306004820152602481018390526001600160a01b0390911690630bb9ff5d90604401600060405180830381600087803b15801561140857600080fd5b505af115801561141c573d6000803e3d6000fd5b50505050808360245461142f9190615d46565b6114399190615d46565b6024819055508b6022878154811061145357611453615be9565b600091825260209091206002600490920201015461147a91906001600160801b0316615da7565b6022878154811061148d5761148d615be9565b6000918252602090912060049091020160020180546001600160801b0319166001600160801b03929092169190911790556114c88184615d46565b602287815481106114db576114db615be9565b906000526020600020906004020160020160109054906101000a90046001600160801b031661150a9190615da7565b6022878154811061151d5761151d615be9565b906000526020600020906004020160020160106101000a8154816001600160801b0302191690836001600160801b031602179055506115a96022878154811061156857611568615be9565b906000526020600020906004020160020160109054906101000a90046001600160801b03166001600160801b0316602288815481106111f4576111f4615be9565b602287815481106115bc576115bc615be9565b906000526020600020906004020160030160006101000a8154816001600160801b0302191690836001600160801b031602179055507f64b83944e79c3ce8d4c297411de637c3e102d064677aac0c163976ebdcd6f50e8d8d838560405161164794939291906001600160a01b0394909416845260208401929092526040830152606082015260800190565b60405180910390a1509b9a5050505050505050505050565b6026546000906001600160a01b0385811691161480159061168d57506026546001600160a01b038481169116145b156116a35761169c8483612f20565b905061172a565b6026546001600160a01b0385811691161480156116ce57506026546001600160a01b03848116911614155b156116dd5761169c838361301a565b6026546001600160a01b0385811691161480159061170957506026546001600160a01b03858116911614155b1561172a57600061171a8584612f20565b9050611726848261301a565b9150505b9392505050565b606081518351146117965760405162461bcd60e51b815260206004820152602960248201527f455243313135353a206163636f756e747320616e6420696473206c656e677468604482015268040dad2e6dac2e8c6d60bb1b6064820152608401610974565b600083516001600160401b038111156117b1576117b16153a0565b6040519080825280602002602001820160405280156117da578160200160208202803683370190505b50905060005b8451811015610fab576118258582815181106117fe576117fe615be9565b602002602001015185838151811061181857611818615be9565b602002602001015161090c565b82828151811061183757611837615be9565b602090810291909101015261184b81615c2c565b90506117e0565b6001600160a01b03841660009081526023602052604081205485901580159061188957506026546001600160a01b03828116911614155b600b906118a95760405162461bcd60e51b81526004016109749190615b64565b5083600c428210156118ce5760405162461bcd60e51b81526004016109749190615b64565b506118da87878661310c565b979650505050505050565b600082815260056020526040812061172a9083613608565b6001600160a01b0381166000908152602360205260408120546109a090613614565b60009182526004602090815260408084206001600160a01b0393909316845291905290205460ff1690565b606060078054610c3f90615b2f565b6001600160a01b03811660009081526023602052604090205481901580159061199057506026546001600160a01b03828116911614155b600b906119b05760405162461bcd60e51b81526004016109749190615b64565b506001600160a01b0382166000908152602360205260409020546119d383612b14565b602282815481106119e6576119e6615be9565b6000918252602082206004919091020160020180546001600160801b0319166001600160801b039390931692909217909155602654611a2d906001600160a01b0316612b14565b90506024548111611a8d5780602454611a469190615c15565b60228381548110611a5957611a59615be9565b906000526020600020906004020160020160109054906101000a90046001600160801b0316611a889190615dd2565b611adc565b602454611a9a9082615c15565b60228381548110611aad57611aad615be9565b906000526020600020906004020160020160109054906101000a90046001600160801b0316611adc9190615da7565b60228381548110611aef57611aef615be9565b906000526020600020906004020160020160106101000a8154816001600160801b0302191690836001600160801b03160217905550806024819055507ff10fc780c78f994a214c79a2ae8d8b7bfe7cc3f0f935a8f05a29525e71d7f1278460228481548110611b6057611b60615be9565b906000526020600020906004020160020160009054906101000a90046001600160801b031660228581548110611b9857611b98615be9565b600091825260209182902060026004909202010154604080516001600160a01b0390951685526001600160801b0393841692850192909252600160801b9004919091169082015260600160405180910390a150505050565b6040516306fb1a0760e01b8152600360048201523090339060009073def1fac7bf08f173d286bbbdcbeeade695129840906306fb1a0790602401602060405180830381865afa158015611c47573d6000803e3d6000fd5b505050506040513d601f19601f82011682018060405250810190611c6b9190615c47565b604051630c8b57ef60e21b81526001600160a01b03858116600483015284811660248301529192509082169063322d5fbc906044016020604051808303816000875af1158015611cbf573d6000803e3d6000fd5b505050506040513d601f19601f82011682018060405250810190611ce39190615dfa565b15611d445760405162461bcd60e51b815260206004820152602b60248201527f43434a453a205472616e73616374696f6e73206172652074656d706f7261726960448201526a1b1e48191a5cd8589b195960aa1b6064820152608401610974565b806001600160a01b031663eef84ba16040518163ffffffff1660e01b8152600401600060405180830381600087803b158015611d7f57600080fd5b505af1158015611d93573d6000803e3d6000fd5b50505050610436611da13390565b8686613826565b60606000826001600160401b03811115611dc457611dc46153a0565b604051908082528060200260200182016040528015611ded578160200160208202803683370190505b50905060005b83811015610fab5760036000868684818110611e1157611e11615be9565b90506020020135815260200190815260200160002054828281518110611e3957611e39615be9565b602090810291909101015280611e4e81615c2c565b915050611df3565b60008083600c42821015611e7d5760405162461bcd60e51b81526004016109749190615b64565b50600e60018811611ea15760405162461bcd60e51b81526004016109749190615b64565b5060265433906000906001600160a01b038c8116911614801590611ed257506026546001600160a01b038b81169116145b15611f2457611ee18b8a612f20565b9050601088821015611f065760405162461bcd60e51b81526004016109749190615b64565b50611f128b838b612c8a565b611f1f8b60008389613907565b612051565b6026546001600160a01b038c81169116148015611f4f57506026546001600160a01b038b8116911614155b15611f9c57611f5e8a8a61301a565b9050601188821015611f835760405162461bcd60e51b81526004016109749190615b64565b50611f8f8b838b612c8a565b611f1f8a82600089613907565b6026546001600160a01b038c8116911614801590611fc857506026546001600160a01b038c8116911614155b15612036576000611fd98c8b612f20565b9050611fe58b8261301a565b915060118983101561200a5760405162461bcd60e51b81526004016109749190615b64565b506120168c848c612c8a565b6120238c60008330613907565b6120308b8360008a613907565b50612051565b60405162461bcd60e51b815261097490601490600401615b64565b979a97995096975050505050505050565b60606000826001600160401b0381111561207e5761207e6153a0565b6040519080825280602002602001820160405280156120b757816020015b6120a4615079565b81526020019060019003908161209c5790505b50905060005b83811015610fab5760228585838181106120d9576120d9615be9565b90506020020135815481106120f0576120f0615be9565b60009182526020918290206040805160a081018252600490930290910180546001600160a01b031683528151610100810190925291928301906001830160088282826020028201916000905b82829054906101000a900463ffffffff1663ffffffff168152602001906004019060208260030104928301926001038202915080841161213c5750505092845250505060028201546001600160801b038082166020840152600160801b9091048116604083015260039092015490911660609091015282518390839081106121c6576121c6615be9565b602002602001018190525080806121dc90615c2c565b9150506120bd565b60006121f08133612bdc565b612218826040516020016122049190615e17565b604051602081830303815290604052613fd8565b8151610df19060089060208501906150b7565b602554612257906001600160a01b031669d3c21bcecceda10000006969e10de76676d0800000336123a1565b602754612279906001600160a01b031669943b1377290cbd80000080336123a1565b565b602954612279906001600160a01b031666038d7ea4c6800069d3c21bcecceda1000000336123a1565b6026546000906001600160a01b038581169116148015906122d257506026546001600160a01b038481169116145b156122e15761169c8483613feb565b6026546001600160a01b03858116911614801561230c57506026546001600160a01b03848116911614155b1561231b5761169c83836140dc565b6026546001600160a01b0385811691161480159061234757506026546001600160a01b03848116911614155b1561172a57600061235884846140dc565b90506117268582613feb565b60008181526005602052604081206109a0906141ce565b6000828152600460205260409020600101546123978133612bdc565b610df18383612c68565b60006123ad8133612bdc565b6001600160a01b03851660009081526023602052604090205485901580156123e357506026546001600160a01b03828116911614155b600a906124035760405162461bcd60e51b81526004016109749190615b64565b50602254612412873388612c8a565b602654604051630bb9ff5d60e01b8152306004820152602481018790526001600160a01b0390911690630bb9ff5d90604401600060405180830381600087803b15801561245e57600080fd5b505af1158015612472573d6000803e3d6000fd5b5050505061247f87612b14565b9550600e866124a15760405162461bcd60e51b81526004016109749190615b64565b5060006124b161121b8789615d5e565b90506124bb61513b565b60005b60088110156124fd5760018282600881106124db576124db615be9565b63ffffffff9092166020929092020152806124f581615c2c565b9150506124be565b506040805160a0810182526001600160a01b038b81168252602082018481526001600160801b038c8116948401949094528a8416606084015292851660808301526022805460018101825560009190915282517f61035b26e3e9eee00e0d72fd1ee8ddca6894550dca6916ea2ac6baa90d11e510600490920291820180546001600160a01b031916919093161782559251919283926125c0917f61035b26e3e9eee00e0d72fd1ee8ddca6894550dca6916ea2ac6baa90d11e5110190600861515a565b5060408281015160608401516001600160801b03918216600160801b91831691909102176002840155608090930151600390920180546001600160801b03191692909316919091179091556001600160a01b038b1660009081526023602052908120859055602480548a9290612637908490615d46565b9250508190555061265d61dead856103e860405180602001604052806000815250612e10565b60006103e861266f61121b8b8d615d5e565b6126799190615c15565b905061269688868360405180602001604052806000815250612e10565b604080516001600160a01b038d168152602081018c90529081018a905260608101829052608081018690527fe25069febe02950bda1ede7288798e9f99267811a7d0b3c5f0026821d1584b0e9060a00160405180910390a15050505050505050505050565b602880546001600160a01b038088166001600160a01b0319928316179092556025805487841690831617905560268054868416908316179055602780549285169290911691909117905561043661222b565b6001600160a01b03851633148061276957506127698533610858565b6127855760405162461bcd60e51b815260040161097490615e44565b6127903086866141d8565b6104368585858585614372565b610bb384848484613907565b6001600160a01b0383163314806127c557506127c58333610858565b6127e15760405162461bcd60e51b815260040161097490615e44565b610df1838383614507565b60008083600c428210156128135760405162461bcd60e51b81526004016109749190615b64565b5060265433906000906001600160a01b038c811691161480159061284457506026546001600160a01b038b81169116145b156128ba576128538b8a613feb565b90506013888211156128785760405162461bcd60e51b81526004016109749190615b64565b50600e6001821161289c5760405162461bcd60e51b81526004016109749190615b64565b506128a88b8383612c8a565b6128b58b60008b89613907565b612a34565b6026546001600160a01b038c811691161480156128e557506026546001600160a01b038b8116911614155b15612956576128f48a8a6140dc565b90506012888211156129195760405162461bcd60e51b81526004016109749190615b64565b50601d6001821161293d5760405162461bcd60e51b81526004016109749190615b64565b506129498b8383612c8a565b6128b58a8a600089613907565b6026546001600160a01b038c811691161480159061298257506026546001600160a01b038b8116911614155b156120365760006129938b8b6140dc565b9050601d600182116129b85760405162461bcd60e51b81526004016109749190615b64565b506129c38c82613feb565b91506013898311156129e85760405162461bcd60e51b81526004016109749190615b64565b50600e60018311612a0c5760405162461bcd60e51b81526004016109749190615b64565b50612a188c8484612c8a565b612a258c60008330613907565b612a328b8b60008a613907565b505b9a97995096975050505050505050565b612a4e828261191f565b61102d5760008281526004602090815260408083206001600160a01b03851684529091529020805460ff19166001179055612a863390565b6001600160a01b0316816001600160a01b0316837f2f8788117e7eff1d82e926ec794901d17c78024a50270940304540a733656f0d60405160405180910390a45050565b600061172a836001600160a01b038416614680565b60006001600160e01b03198216635a05180f60e01b14806109a057506301ffc9a760e01b6001600160e01b03198316146109a0565b6029546000906001600160a01b0383811691161415612b34575047919050565b6040516370a0823160e01b81523060048201526001600160a01b038316906370a0823190602401602060405180830381865afa158015612b78573d6000803e3d6000fd5b505050506040513d601f19601f820116820180604052508101906109a09190615e8d565b6001600160a01b0383163014610bb3576029546001600160a01b0385811691161415612bd157612bcc83836146cf565b610bb3565b610bb3848484614761565b612be6828261191f565b61102d57612bfe816001600160a01b03166014614851565b612c09836020614851565b604051602001612c1a929190615ea6565b60408051601f198184030181529082905262461bcd60e51b82526109749160040161537b565b61102d82825b612c508282612a44565b6000828152600560205260409020610df19082612aca565b612c7282826149ec565b6000828152600560205260409020610df19082614a53565b6029546001600160a01b03848116911614612cdd57600f3415612cc05760405162461bcd60e51b81526004016109749190615b64565b506001600160a01b0382163014610df157610df183833084614a68565b6029546001600160a01b0384811691161415610df157601c34821115612d165760405162461bcd60e51b81526004016109749190615b64565b5080341115610df157602954610df1906001600160a01b031633612d3a8434615c15565b6000612b9c565b6000806002612d51846001615d46565b612d5b9190615d93565b90508291505b81811015612d9457905080600281612d798186615d93565b612d839190615d46565b612d8d9190615d93565b9050612d61565b50919050565b60008383118015612dab5750600084115b8015612db85750602b5415155b1561172a57612dc8606485615d5e565b602b54612dd59085615d5e565b612ddf9190615d46565b612de98585615c15565b612df4606485615d5e565b612dfe9190615d5e565b612e089190615d93565b949350505050565b6001600160a01b038416612e705760405162461bcd60e51b815260206004820152602160248201527f455243313135353a206d696e7420746f20746865207a65726f206164647265736044820152607360f81b6064820152608401610974565b33612e9081600087612e8188614b58565b612e8a88614b58565b87614ba3565b6000848152602081815260408083206001600160a01b038916845290915281208054859290612ec0908490615d46565b909155505060408051858152602081018590526001600160a01b0380881692600092918516917fc3d58168c5ae7397731d063d5bbf3d657854427343f4c083240f7aacaa2d0f62910160405180910390a461043681600087878787614caf565b6001600160a01b038216600090815260236020526040812054839015801590612f5757506026546001600160a01b03828116911614155b600b90612f775760405162461bcd60e51b81526004016109749190615b64565b506001600160a01b0384166000908152602360205260409020546022805461301191869184908110612fab57612fab615be9565b6000918252602090912060026004909202010154602280546001600160801b039092169185908110612fdf57612fdf615be9565b6000918252602090912060049091020160020154600160801b90046001600160801b031661300c85613614565b614e4c565b95945050505050565b6001600160a01b03821660009081526023602052604081205483901580159061305157506026546001600160a01b03828116911614155b600b906130715760405162461bcd60e51b81526004016109749190615b64565b506001600160a01b03841660009081526023602052604090205460228054613011918691849081106130a5576130a5615be9565b906000526020600020906004020160020160109054906101000a90046001600160801b03166001600160801b0316602284815481106130e6576130e6615be9565b60009182526020909120600260049092020101546001600160801b031661300c85613614565b6001600160a01b0383166000908152602360205260408120548161312f86612b14565b905060006022838154811061314657613146615be9565b600091825260209091206002600490920201015461316d906001600160801b031683615c15565b60245460265491925060009161318b906001600160a01b0316612b14565b6131959190615c15565b60008581526003602052604081205460228054939450909283918b91899081106131c1576131c1615be9565b60009182526020909120600260049092020101546131e891906001600160801b0316615d5e565b6131f29190615d93565b90506000828a6022898154811061320b5761320b615be9565b60009182526020909120600490910201600201546132399190600160801b90046001600160801b0316615d5e565b6132439190615d93565b9050600061329e6022898154811061325d5761325d615be9565b906000526020600020906004020160020160109054906101000a90046001600160801b03166001600160801b031660228a815481106111f4576111f4615be9565b905060006132dc60228a815481106132b8576132b8615be9565b60009182526020909120600360049092020101546001600160801b03168387612d9a565b9050801561330d57602a5460408051602081019091526000815261330d916001600160a01b0316908b908490612e10565b828660245461331c9190615d46565b6133269190615c15565b602481905550838760228b8154811061334157613341615be9565b600091825260209091206002600490920201015461336891906001600160801b0316615da7565b6133729190615dd2565b60228a8154811061338557613385615be9565b906000526020600020906004020160020160006101000a8154816001600160801b0302191690836001600160801b03160217905550828660228b815481106133cf576133cf615be9565b906000526020600020906004020160020160109054906101000a90046001600160801b03166133fe9190615da7565b6134089190615dd2565b60228a8154811061341b5761341b615be9565b906000526020600020906004020160020160106101000a8154816001600160801b0302191690836001600160801b031602179055506134a760228a8154811061346657613466615be9565b906000526020600020906004020160020160109054906101000a90046001600160801b03166001600160801b031660228b815481106111f4576111f4615be9565b60228a815481106134ba576134ba615be9565b906000526020600020906004020160030160006101000a8154816001600160801b0302191690836001600160801b031602179055506134fa338a8e6127a9565b6026546040516318a8ad8760e01b8152306004820152602481018590526001600160a01b03909116906318a8ad8790604401600060405180830381600087803b15801561354657600080fd5b505af115801561355a573d6000803e3d6000fd5b50505050505061356d8b8a846001612b9c565b60006135788c612b14565b9050866135858483615d46565b600d91146135a65760405162461bcd60e51b81526004016109749190615b64565b50604080516001600160a01b038e16815260208101859052908101839052606081018c90527f1dc8bb69df2b8e91fbdcbfcf93d951b3f0000f085a95fe3f7946d6161439245d9060800160405180910390a150909a9950505050505050505050565b600061172a8383614ebc565b60008061361f614ee6565b905060006008613630836001615d46565b61363a9190615f1b565b90506000805b60088110156136d7578381148061365657508281145b15613660576136c5565b6022868154811061367357613673615be9565b9060005260206000209060040201600101816008811061369557613695615be9565b600891828204019190066004029054906101000a900463ffffffff1663ffffffff16826136c29190615d46565b91505b806136cf81615c2c565b915050613640565b506136ea81670de0b6b3a7640000615d5e565b90506000612710602a600401546022888154811061370a5761370a615be9565b60009182526020909120600490910201600201546137389190600160801b90046001600160801b0316615d5e565b6137429190615d93565b90506000612710602a600501546022898154811061376257613762615be9565b60009182526020909120600490910201600201546137909190600160801b90046001600160801b0316615d5e565b61379a9190615d93565b90508183116137ad57602d54955061381a565b82821080156137bb57508083105b1561380c576137ca8282615c15565b602c54602d546137da9190615c15565b6137e48486615c15565b6137ee9190615d5e565b6137f89190615d93565b602d546138059190615c15565b955061381a565b8083111561381a57602c5495505b6118da86612710615c15565b816001600160a01b0316836001600160a01b0316141561389a5760405162461bcd60e51b815260206004820152602960248201527f455243313135353a2073657474696e6720617070726f76616c20737461747573604482015268103337b91039b2b63360b91b6064820152608401610974565b6001600160a01b03838116600081815260016020908152604080832094871680845294825291829020805460ff191686151590811790915591519182527f17307eab39ab6107e8899845ad3d59bd9653f200f220920489ca2b5937696c31910160405180910390a3505050565b6001600160a01b03841660009081526023602052604090205484901580159061393e57506026546001600160a01b03828116911614155b600b9061395e5760405162461bcd60e51b81526004016109749190615b64565b506001600160a01b0380861660009081526023602052604081205460265490926139889116612b14565b905060006024548261399a9190615c15565b905060006139a789612b14565b90506000602285815481106139be576139be615be9565b60009182526020909120600260049092020101546139e5906001600160801b031683615c15565b905060016139f38483615d46565b60179110613a145760405162461bcd60e51b81526004016109749190615b64565b506000613a2086613614565b9050600061271060228881548110613a3a57613a3a615be9565b906000526020600020906004020160020160009054906101000a90046001600160801b03166001600160801b031661271060228a81548110613a7e57613a7e615be9565b6000918252602090912060049091020160020154613aac9190600160801b90046001600160801b0316615d5e565b613ab69190615d5e565b613ac09190615d5e565b905060008a86602454613ad39190615d46565b613add9190615c15565b905060008b8760228b81548110613af657613af6615be9565b6000918252602090912060049091020160020154613b249190600160801b90046001600160801b0316615d46565b613b2e9190615c15565b905060008d8660228c81548110613b4757613b47615be9565b6000918252602090912060026004909202010154613b6e91906001600160801b0316615d46565b613b789190615c15565b90506000613b8886612710615c15565b613b929088615d5e565b613b9e61271084615d5e565b613ba89190615c15565b613bb487612710615c15565b613bbe908b615d5e565b613bca61271086615d5e565b613bd49190615c15565b613bde9190615d5e565b9050601885821015613c035760405162461bcd60e51b81526004016109749190615b64565b50836024819055508260228c81548110613c1f57613c1f615be9565b906000526020600020906004020160020160106101000a8154816001600160801b0302191690836001600160801b031602179055508160228c81548110613c6857613c68615be9565b906000526020600020906004020160020160006101000a8154816001600160801b0302191690836001600160801b031602179055505050505050506000613cad614ee6565b905060006008613cbb614ee6565b613cc6906001615d46565b613cd09190615f1b565b9050670de0b6b3a7640000858b010460228881548110613cf257613cf2615be9565b90600052602060002090600402016001018360088110613d1457613d14615be9565b600891828204019190066004028282829054906101000a900463ffffffff160192506101000a81548163ffffffff021916908363ffffffff160217905550600160228881548110613d6757613d67615be9565b90600052602060002090600402016001018260088110613d8957613d89615be9565b600891828204019190066004029054906101000a900463ffffffff1663ffffffff161115613e1257600160228881548110613dc657613dc6615be9565b90600052602060002090600402016001018260088110613de857613de8615be9565b600891828204019190066004026101000a81548163ffffffff021916908363ffffffff1602179055505b8a15613e8757613e258c8a8d6001612b9c565b6000613e308d612b14565b905060228881548110613e4557613e45615be9565b6000918252602090912060026004909202010154600d906001600160801b03168214613e845760405162461bcd60e51b81526004016109749190615b64565b50505b8915613ea657602654613ea6906001600160a01b03168a8c6001612b9c565b604080516001600160a01b038e8116825233602083015281830186905260608201889052608082018e905260a082018d90528b1660c082015290517f236c64fd115dc00cafeeaf44b6ca2af23a66ba0e282852756756b073c55150759181900360e00190a17ff10fc780c78f994a214c79a2ae8d8b7bfe7cc3f0f935a8f05a29525e71d7f1278c60228981548110613f4057613f40615be9565b906000526020600020906004020160020160009054906101000a90046001600160801b031660228a81548110613f7857613f78615be9565b600091825260209182902060026004909202010154604080516001600160a01b0390951685526001600160801b0393841692850192909252600160801b9004919091169082015260600160405180910390a1505050505050505050505050565b805161102d9060029060208401906150b7565b6001600160a01b03821660009081526023602052604081205483901580159061402257506026546001600160a01b03828116911614155b600b906140425760405162461bcd60e51b81526004016109749190615b64565b506001600160a01b038416600090815260236020526040902054602280546130119186918490811061407657614076615be9565b6000918252602090912060026004909202010154602280546001600160801b0390921691859081106140aa576140aa615be9565b6000918252602090912060049091020160020154600160801b90046001600160801b03166140d785613614565b614f05565b6001600160a01b03821660009081526023602052604081205483901580159061411357506026546001600160a01b03828116911614155b600b906141335760405162461bcd60e51b81526004016109749190615b64565b506001600160a01b038416600090815260236020526040902054602280546130119186918490811061416757614167615be9565b906000526020600020906004020160020160109054906101000a90046001600160801b03166001600160801b0316602284815481106141a8576141a8615be9565b60009182526020909120600260049092020101546001600160801b03166140d785613614565b60006109a0825490565b6040516306fb1a0760e01b81526003600482015260009073def1fac7bf08f173d286bbbdcbeeade695129840906306fb1a0790602401602060405180830381865afa15801561422b573d6000803e3d6000fd5b505050506040513d601f19601f8201168201806040525081019061424f9190615c47565b604051630c8b57ef60e21b81526001600160a01b03868116600483015285811660248301529192509082169063322d5fbc906044016020604051808303816000875af11580156142a3573d6000803e3d6000fd5b505050506040513d601f19601f820116820180604052508101906142c79190615dfa565b6142f95760405162461bcd60e51b8152602060048201526003602482015262042a8b60eb1b6044820152606401610974565b6001600160a01b0382163014610bb357604051633973256b60e11b81526001600160a01b03858116600483015283811660248301528216906372e64ad690604401600060405180830381600087803b15801561435457600080fd5b505af1158015614368573d6000803e3d6000fd5b5050505050505050565b6001600160a01b0384166143d65760405162461bcd60e51b815260206004820152602560248201527f455243313135353a207472616e7366657220746f20746865207a65726f206164604482015264647265737360d81b6064820152608401610974565b336143e6818787612e8188614b58565b6000848152602081815260408083206001600160a01b038a1684529091529020548381101561446a5760405162461bcd60e51b815260206004820152602a60248201527f455243313135353a20696e73756666696369656e742062616c616e636520666f60448201526939103a3930b739b332b960b11b6064820152608401610974565b6000858152602081815260408083206001600160a01b038b81168552925280832087850390559088168252812080548692906144a7908490615d46565b909155505060408051868152602081018690526001600160a01b03808916928a821692918616917fc3d58168c5ae7397731d063d5bbf3d657854427343f4c083240f7aacaa2d0f62910160405180910390a4610b33828888888888614caf565b6001600160a01b0383166145695760405162461bcd60e51b815260206004820152602360248201527f455243313135353a206275726e2066726f6d20746865207a65726f206164647260448201526265737360e81b6064820152608401610974565b336145988185600061457a87614b58565b61458387614b58565b60405180602001604052806000815250614ba3565b6000838152602081815260408083206001600160a01b0388168452909152902054828110156146155760405162461bcd60e51b8152602060048201526024808201527f455243313135353a206275726e20616d6f756e7420657863656564732062616c604482015263616e636560e01b6064820152608401610974565b6000848152602081815260408083206001600160a01b03898116808652918452828520888703905582518981529384018890529092908616917fc3d58168c5ae7397731d063d5bbf3d657854427343f4c083240f7aacaa2d0f62910160405180910390a45050505050565b60008181526001830160205260408120546146c7575081546001818101845560008481526020808220909301849055845484825282860190935260409020919091556109a0565b5060006109a0565b604080516000808252602082019092526001600160a01b0384169083906040516146f99190615f2f565b60006040518083038185875af1925050503d8060008114614736576040519150601f19603f3d011682016040523d82523d6000602084013e61473b565b606091505b509091506019905081610bb35760405162461bcd60e51b81526004016109749190615b64565b604080516001600160a01b038481166024830152604480830185905283518084039091018152606490920183526020820180516001600160e01b031663a9059cbb60e01b17905291516000928392908716916147bd9190615f2f565b6000604051808303816000865af19150503d80600081146147fa576040519150601f19603f3d011682016040523d82523d6000602084013e6147ff565b606091505b50915091508180156148295750805115806148295750808060200190518101906148299190615dfa565b601a906148495760405162461bcd60e51b81526004016109749190615b64565b505050505050565b60606000614860836002615d5e565b61486b906002615d46565b6001600160401b03811115614882576148826153a0565b6040519080825280601f01601f1916602001820160405280156148ac576020820181803683370190505b509050600360fc1b816000815181106148c7576148c7615be9565b60200101906001600160f81b031916908160001a905350600f60fb1b816001815181106148f6576148f6615be9565b60200101906001600160f81b031916908160001a905350600061491a846002615d5e565b614925906001615d46565b90505b600181111561499d576f181899199a1a9b1b9c1cb0b131b232b360811b85600f166010811061495957614959615be9565b1a60f81b82828151811061496f5761496f615be9565b60200101906001600160f81b031916908160001a90535060049490941c9361499681615f4b565b9050614928565b50831561172a5760405162461bcd60e51b815260206004820181905260248201527f537472696e67733a20686578206c656e67746820696e73756666696369656e746044820152606401610974565b6149f6828261191f565b1561102d5760008281526004602090815260408083206001600160a01b0385168085529252808320805460ff1916905551339285917ff6391f5c32d9c69d2a47ea670b442974b53935d1edc7fd64eb21e047a839171b9190a45050565b600061172a836001600160a01b038416614f86565b604080516001600160a01b0385811660248301528481166044830152606480830185905283518084039091018152608490920183526020820180516001600160e01b03166323b872dd60e01b1790529151600092839290881691614acc9190615f2f565b6000604051808303816000865af19150503d8060008114614b09576040519150601f19603f3d011682016040523d82523d6000602084013e614b0e565b606091505b5091509150818015614b38575080511580614b38575080806020019051810190614b389190615dfa565b601b90610b335760405162461bcd60e51b81526004016109749190615b64565b60408051600180825281830190925260609160009190602080830190803683370190505090508281600081518110614b9257614b92615be9565b602090810291909101015292915050565b6001600160a01b038516614c2a5760005b8351811015614c2857828181518110614bcf57614bcf615be9565b602002602001015160036000868481518110614bed57614bed615be9565b602002602001015181526020019081526020016000206000828254614c129190615d46565b90915550614c21905081615c2c565b9050614bb4565b505b6001600160a01b0384166148495760005b8351811015610b3357828181518110614c5657614c56615be9565b602002602001015160036000868481518110614c7457614c74615be9565b602002602001015181526020019081526020016000206000828254614c999190615c15565b90915550614ca8905081615c2c565b9050614c3b565b6001600160a01b0384163b156148495760405163f23a6e6160e01b81526001600160a01b0385169063f23a6e6190614cf39089908990889088908890600401615f62565b6020604051808303816000875af1925050508015614d2e575060408051601f3d908101601f19168201909252614d2b91810190615f9c565b60015b614ddb57614d3a615fb9565b806308c379a01415614d745750614d4f615fd5565b80614d5a5750614d76565b8060405162461bcd60e51b8152600401610974919061537b565b505b60405162461bcd60e51b815260206004820152603460248201527f455243313135353a207472616e7366657220746f206e6f6e20455243313135356044820152732932b1b2b4bb32b91034b6b83632b6b2b73a32b960611b6064820152608401610974565b6001600160e01b0319811663f23a6e6160e01b14610b335760405162461bcd60e51b815260206004820152602860248201527f455243313135353a204552433131353552656365697665722072656a656374656044820152676420746f6b656e7360c01b6064820152608401610974565b60006103e884118015614e6057506103e883115b601e90614e805760405162461bcd60e51b81526004016109749190615b64565b506000614e8d8387615d5e565b9050600081614e9e61271088615d5e565b614ea89190615d46565b614eb28387615d5e565b6118da9190615d93565b6000826000018281548110614ed357614ed3615be9565b9060005260206000200154905092915050565b60006008614ef661384042615d93565b614f009190615f1b565b905090565b60006103e884118015614f1957506103e883115b601e90614f395760405162461bcd60e51b81526004016109749190615b64565b506000614f468685615c15565b614f509084615d5e565b612710614f5d8888615d5e565b614f679190615d5e565b614f719190615d93565b614f7c906001615d46565b9695505050505050565b6000818152600183016020526040812054801561506f576000614faa600183615c15565b8554909150600090614fbe90600190615c15565b9050818114615023576000866000018281548110614fde57614fde615be9565b906000526020600020015490508087600001848154811061500157615001615be9565b6000918252602080832090910192909255918252600188019052604090208390555b85548690806150345761503461605e565b6001900381819060005260206000200160009055905585600101600086815260200190815260200160002060009055600193505050506109a0565b60009150506109a0565b6040518060a0016040528060006001600160a01b0316815260200161509c61513b565b81526000602082018190526040820181905260609091015290565b8280546150c390615b2f565b90600052602060002090601f0160209004810192826150e5576000855561512b565b82601f106150fe57805160ff191683800117855561512b565b8280016001018555821561512b579182015b8281111561512b578251825591602001919060010190615110565b506151379291506151ed565b5090565b6040518061010001604052806008906020820280368337509192915050565b60018301918390821561512b5791602002820160005b838211156151b457835183826101000a81548163ffffffff021916908363ffffffff1602179055509260200192600401602081600301049283019260010302615170565b80156151e45782816101000a81549063ffffffff02191690556004016020816003010492830192600103026151b4565b50506151379291505b5b8082111561513757600081556001016151ee565b6001600160a01b038116811461521757600080fd5b50565b6000806040838503121561522d57600080fd5b823561523881615202565b946020939093013593505050565b6001600160e01b03198116811461521757600080fd5b60006020828403121561526e57600080fd5b813561172a81615246565b60006020828403121561528b57600080fd5b813561172a81615202565b600080602083850312156152a957600080fd5b82356001600160401b03808211156152c057600080fd5b818501915085601f8301126152d457600080fd5b8135818111156152e357600080fd5b8660208260061b85010111156152f857600080fd5b60209290920196919550909350505050565b60006020828403121561531c57600080fd5b5035919050565b60005b8381101561533e578181015183820152602001615326565b83811115610bb35750506000910152565b60008151808452615367816020860160208601615323565b601f01601f19169290920160200192915050565b60208152600061172a602083018461534f565b600060c08284031215612d9457600080fd5b634e487b7160e01b600052604160045260246000fd5b601f8201601f191681016001600160401b03811182821017156153db576153db6153a0565b6040525050565b60006001600160401b038211156153fb576153fb6153a0565b5060051b60200190565b600082601f83011261541657600080fd5b81356020615423826153e2565b60405161543082826153b6565b83815260059390931b850182019282810191508684111561545057600080fd5b8286015b8481101561546b5780358352918301918301615454565b509695505050505050565b600082601f83011261548757600080fd5b81356001600160401b038111156154a0576154a06153a0565b6040516154b7601f8301601f1916602001826153b6565b8181528460208386010111156154cc57600080fd5b816020850160208301376000918101602001919091529392505050565b600080600080600060a0868803121561550157600080fd5b853561550c81615202565b9450602086013561551c81615202565b935060408601356001600160401b038082111561553857600080fd5b61554489838a01615405565b9450606088013591508082111561555a57600080fd5b61556689838a01615405565b9350608088013591508082111561557c57600080fd5b5061558988828901615476565b9150509295509295909350565b600080604083850312156155a957600080fd5b8235915060208301356155bb81615202565b809150509250929050565b60008083601f8401126155d857600080fd5b5081356001600160401b038111156155ef57600080fd5b6020830191508360208260051b850101111561560a57600080fd5b9250929050565b6000806020838503121561562457600080fd5b82356001600160401b0381111561563a57600080fd5b615646858286016155c6565b90969095509350505050565b60208082528251828201819052600091906040908185019086840185805b838110156156f857825180516001600160a01b0316865287810151888701845b60088110156156b357825163ffffffff168252918a0191908a0190600101615690565b505050868101516001600160801b0390811661012088015260608201518116610140880152608090910151166101608601526101809094019391860191600101615670565b509298975050505050505050565b6000806040838503121561571957600080fd5b82356001600160401b038082111561573057600080fd5b61573c86838701615476565b9350602085013591508082111561575257600080fd5b5061575f85828601615476565b9150509250929050565b6000806000806080858703121561577f57600080fd5b843561578a81615202565b9350602085013592506040850135915060608501356157a881615202565b939692955090935050565b6000806000606084860312156157c857600080fd5b83356157d381615202565b925060208401356157e381615202565b929592945050506040919091013590565b6000806040838503121561580757600080fd5b82356001600160401b038082111561581e57600080fd5b818501915085601f83011261583257600080fd5b8135602061583f826153e2565b60405161584c82826153b6565b83815260059390931b850182019282810191508984111561586c57600080fd5b948201945b8386101561589357853561588481615202565b82529482019490820190615871565b965050860135925050808211156158a957600080fd5b5061575f85828601615405565b6020808252825182820181905260009190848201906040850190845b818110156158ee578351835292840192918401916001016158d2565b50909695505050505050565b6000806040838503121561590d57600080fd5b50508035926020909101359150565b801515811461521757600080fd5b6000806040838503121561593d57600080fd5b823561594881615202565b915060208301356155bb8161591c565b60008060008060008060c0878903121561597157600080fd5b863561597c81615202565b9550602087013561598c81615202565b945060408701359350606087013592506080870135915060a08701356159b181615202565b809150509295509295509295565b6000602082840312156159d157600080fd5b81356001600160401b038111156159e757600080fd5b612e0884828501615476565b60008060408385031215615a0657600080fd5b8235615a1181615202565b915060208301356155bb81615202565b600080600080600060a08688031215615a3957600080fd5b8535615a4481615202565b94506020860135615a5481615202565b93506040860135615a6481615202565b92506060860135615a7481615202565b91506080860135615a8481615202565b809150509295509295909350565b600080600080600060a08688031215615aaa57600080fd5b8535615ab581615202565b94506020860135615ac581615202565b9350604086013592506060860135915060808601356001600160401b03811115615aee57600080fd5b61558988828901615476565b600080600060608486031215615b0f57600080fd5b8335615b1a81615202565b95602085013595506040909401359392505050565b600181811c90821680615b4357607f821691505b60208210811415612d9457634e487b7160e01b600052602260045260246000fd5b6000602080835260008454615b7881615b2f565b80848701526040600180841660008114615b995760018114615bad57615bdb565b60ff19851689840152606089019550615bdb565b896000528660002060005b85811015615bd35781548b8201860152908301908801615bb8565b8a0184019650505b509398975050505050505050565b634e487b7160e01b600052603260045260246000fd5b634e487b7160e01b600052601160045260246000fd5b600082821015615c2757615c27615bff565b500390565b6000600019821415615c4057615c40615bff565b5060010190565b600060208284031215615c5957600080fd5b815161172a81615202565b8135615c6f81615202565b81546001600160a01b0319166001600160a01b03919091161781556020820135600182015560408201356002820155606082013560038201556080820135600482015560a09190910135600590910155565b6000808454615ccf81615b2f565b60018281168015615ce75760018114615cf857615d27565b60ff19841687528287019450615d27565b8860005260208060002060005b85811015615d1e5781548a820152908401908201615d05565b50505082870194505b50505093815264173539b7b760d91b6020820152602501949350505050565b60008219821115615d5957615d59615bff565b500190565b6000816000190483118215151615615d7857615d78615bff565b500290565b634e487b7160e01b600052601260045260246000fd5b600082615da257615da2615d7d565b500490565b60006001600160801b03808316818516808303821115615dc957615dc9615bff565b01949350505050565b60006001600160801b0383811690831681811015615df257615df2615bff565b039392505050565b600060208284031215615e0c57600080fd5b815161172a8161591c565b60008251615e29818460208701615323565b683db4b23e973539b7b760b91b920191825250600901919050565b60208082526029908201527f455243313135353a2063616c6c6572206973206e6f74206f776e6572206e6f7260408201526808185c1c1c9bdd995960ba1b606082015260800190565b600060208284031215615e9f57600080fd5b5051919050565b7f416363657373436f6e74726f6c3a206163636f756e7420000000000000000000815260008351615ede816017850160208801615323565b7001034b99036b4b9b9b4b733903937b6329607d1b6017918401918201528351615f0f816028840160208801615323565b01602801949350505050565b600082615f2a57615f2a615d7d565b500690565b60008251615f41818460208701615323565b9190910192915050565b600081615f5a57615f5a615bff565b506000190190565b6001600160a01b03868116825285166020820152604081018490526060810183905260a0608082018190526000906118da9083018461534f565b600060208284031215615fae57600080fd5b815161172a81615246565b600060033d1115615fd25760046000803e5060005160e01c5b90565b600060443d1015615fe35790565b6040516003193d81016004833e81513d6001600160401b03816024840111818411171561601257505050505090565b828501915081518181111561602a5750505050505090565b843d87010160208285010111156160445750505050505090565b616053602082860101876153b6565b509095945050505050565b634e487b7160e01b600052603160045260246000fdfea264697066735822122073c2b7a6d9b73882aacd0647889d33f84ec7e0b66c620fe77359d2753f8239b864736f6c634300080b003368747470733a2f2f646174612e63657262792e66692f4365726279537761702f76312f",
			"opcodes": "PUSH1 0xC0 PUSH1 0x40 MSTORE PUSH1 0xD PUSH1 0x80 DUP2 SWAP1 MSTORE PUSH13 0x43657262792053776170205631 PUSH1 0x98 SHL PUSH1 0xA0 SWAP1 DUP2 MSTORE PUSH3 0x30 SWAP2 PUSH1 0x6 SWAP2 SWAP1 PUSH3 0xA7D JUMP JUMPDEST POP PUSH1 0x40 DUP1 MLOAD DUP1 DUP3 ADD SWAP1 SWAP2 MSTORE PUSH1 0xD DUP1 DUP3 MSTORE PUSH13 0x43455242595F535741505F5631 PUSH1 0x98 SHL PUSH1 0x20 SWAP1 SWAP3 ADD SWAP2 DUP3 MSTORE PUSH3 0x67 SWAP2 PUSH1 0x7 SWAP2 PUSH3 0xA7D JUMP JUMPDEST POP PUSH1 0x40 MLOAD DUP1 PUSH1 0x60 ADD PUSH1 0x40 MSTORE DUP1 PUSH1 0x23 DUP2 MSTORE PUSH1 0x20 ADD PUSH3 0x6DE1 PUSH1 0x23 SWAP2 CODECOPY DUP1 MLOAD PUSH3 0x98 SWAP2 PUSH1 0x8 SWAP2 PUSH1 0x20 SWAP1 SWAP2 ADD SWAP1 PUSH3 0xA7D JUMP JUMPDEST POP PUSH1 0x25 DUP1 SLOAD PUSH1 0x1 PUSH1 0x1 PUSH1 0xA0 SHL SUB NOT SWAP1 DUP2 AND PUSH20 0x3D982CB3BC8D1248B17F22B567524BF7BFFD3B11 OR SWAP1 SWAP2 SSTORE PUSH1 0x26 DUP1 SLOAD DUP3 AND PUSH20 0x37E140032AC3A8428ED43761A9881D4741EB3A73 OR SWAP1 SSTORE PUSH1 0x27 DUP1 SLOAD DUP3 AND PUSH20 0xD575EF966CFE21A5A5602DFADAD3D1CAE8C60FDB OR SWAP1 SSTORE PUSH1 0x29 DUP1 SLOAD SWAP1 SWAP2 AND PUSH20 0x14769F96E57B80C66837701DE0B43686FB4632DE OR SWAP1 SSTORE CALLVALUE DUP1 ISZERO PUSH3 0x12A JUMPI PUSH1 0x0 DUP1 REVERT JUMPDEST POP PUSH1 0x8 PUSH1 0x40 MLOAD PUSH1 0x20 ADD PUSH3 0x13F SWAP2 SWAP1 PUSH3 0xC18 JUMP JUMPDEST PUSH1 0x40 DUP1 MLOAD PUSH1 0x1F NOT DUP2 DUP5 SUB ADD DUP2 MSTORE SWAP2 SWAP1 MSTORE PUSH3 0x15A DUP2 PUSH3 0x905 JUMP JUMPDEST POP PUSH3 0x168 PUSH1 0x0 CALLER PUSH3 0x91E JUMP JUMPDEST PUSH1 0x40 DUP1 MLOAD PUSH2 0x360 DUP2 ADD DUP3 MSTORE PUSH1 0x1 PUSH2 0x320 DUP3 ADD DUP2 DUP2 MSTORE PUSH1 0x41 PUSH1 0xF8 SHL PUSH2 0x340 DUP5 ADD MSTORE DUP3 MSTORE DUP3 MLOAD DUP1 DUP5 ADD DUP5 MSTORE DUP2 DUP2 MSTORE PUSH1 0x21 PUSH1 0xF9 SHL PUSH1 0x20 DUP3 DUP2 ADD SWAP2 SWAP1 SWAP2 MSTORE DUP1 DUP5 ADD SWAP2 SWAP1 SWAP2 MSTORE DUP4 MLOAD DUP1 DUP6 ADD DUP6 MSTORE DUP3 DUP2 MSTORE PUSH1 0x43 PUSH1 0xF8 SHL DUP2 DUP4 ADD MSTORE DUP4 DUP6 ADD MSTORE DUP4 MLOAD DUP1 DUP6 ADD DUP6 MSTORE DUP3 DUP2 MSTORE PUSH1 0x11 PUSH1 0xFA SHL DUP2 DUP4 ADD MSTORE PUSH1 0x60 DUP5 ADD MSTORE DUP4 MLOAD DUP1 DUP6 ADD DUP6 MSTORE DUP3 DUP2 MSTORE PUSH1 0x45 PUSH1 0xF8 SHL DUP2 DUP4 ADD MSTORE PUSH1 0x80 DUP5 ADD MSTORE DUP4 MLOAD DUP1 DUP6 ADD DUP6 MSTORE DUP3 DUP2 MSTORE PUSH1 0x23 PUSH1 0xF9 SHL DUP2 DUP4 ADD MSTORE PUSH1 0xA0 DUP5 ADD MSTORE DUP4 MLOAD DUP1 DUP6 ADD DUP6 MSTORE DUP3 DUP2 MSTORE PUSH1 0x47 PUSH1 0xF8 SHL DUP2 DUP4 ADD MSTORE PUSH1 0xC0 DUP5 ADD MSTORE DUP4 MLOAD DUP1 DUP6 ADD DUP6 MSTORE DUP3 DUP2 MSTORE PUSH1 0x9 PUSH1 0xFB SHL DUP2 DUP4 ADD MSTORE PUSH1 0xE0 DUP5 ADD MSTORE DUP4 MLOAD DUP1 DUP6 ADD DUP6 MSTORE DUP3 DUP2 MSTORE PUSH1 0x69 PUSH1 0xF8 SHL DUP2 DUP4 ADD MSTORE PUSH2 0x100 DUP5 ADD MSTORE DUP4 MLOAD DUP1 DUP6 ADD DUP6 MSTORE DUP3 DUP2 MSTORE PUSH1 0x25 PUSH1 0xF9 SHL DUP2 DUP4 ADD MSTORE PUSH2 0x120 DUP5 ADD MSTORE DUP4 MLOAD DUP1 DUP6 ADD DUP6 MSTORE DUP3 DUP2 MSTORE PUSH1 0x4B PUSH1 0xF8 SHL DUP2 DUP4 ADD MSTORE PUSH2 0x140 DUP5 ADD MSTORE DUP4 MLOAD DUP1 DUP6 ADD DUP6 MSTORE DUP3 DUP2 MSTORE PUSH1 0x13 PUSH1 0xFA SHL DUP2 DUP4 ADD MSTORE PUSH2 0x160 DUP5 ADD MSTORE DUP4 MLOAD DUP1 DUP6 ADD DUP6 MSTORE DUP3 DUP2 MSTORE PUSH1 0x4D PUSH1 0xF8 SHL DUP2 DUP4 ADD MSTORE PUSH2 0x180 DUP5 ADD MSTORE DUP4 MLOAD DUP1 DUP6 ADD DUP6 MSTORE DUP3 DUP2 MSTORE PUSH1 0x27 PUSH1 0xF9 SHL DUP2 DUP4 ADD MSTORE PUSH2 0x1A0 DUP5 ADD MSTORE DUP4 MLOAD DUP1 DUP6 ADD DUP6 MSTORE DUP3 DUP2 MSTORE PUSH1 0x4F PUSH1 0xF8 SHL DUP2 DUP4 ADD MSTORE PUSH2 0x1C0 DUP5 ADD MSTORE DUP4 MLOAD DUP1 DUP6 ADD DUP6 MSTORE DUP3 DUP2 MSTORE PUSH1 0x5 PUSH1 0xFC SHL DUP2 DUP4 ADD MSTORE PUSH2 0x1E0 DUP5 ADD MSTORE DUP4 MLOAD DUP1 DUP6 ADD DUP6 MSTORE DUP3 DUP2 MSTORE PUSH1 0x51 PUSH1 0xF8 SHL DUP2 DUP4 ADD MSTORE PUSH2 0x200 DUP5 ADD MSTORE DUP4 MLOAD DUP1 DUP6 ADD DUP6 MSTORE DUP3 DUP2 MSTORE PUSH1 0x29 PUSH1 0xF9 SHL DUP2 DUP4 ADD MSTORE PUSH2 0x220 DUP5 ADD MSTORE DUP4 MLOAD DUP1 DUP6 ADD DUP6 MSTORE DUP3 DUP2 MSTORE PUSH1 0x53 PUSH1 0xF8 SHL DUP2 DUP4 ADD MSTORE PUSH2 0x240 DUP5 ADD MSTORE DUP4 MLOAD DUP1 DUP6 ADD DUP6 MSTORE DUP3 DUP2 MSTORE PUSH1 0x15 PUSH1 0xFA SHL DUP2 DUP4 ADD MSTORE PUSH2 0x260 DUP5 ADD MSTORE DUP4 MLOAD DUP1 DUP6 ADD DUP6 MSTORE DUP3 DUP2 MSTORE PUSH1 0x55 PUSH1 0xF8 SHL DUP2 DUP4 ADD MSTORE PUSH2 0x280 DUP5 ADD MSTORE DUP4 MLOAD DUP1 DUP6 ADD DUP6 MSTORE DUP3 DUP2 MSTORE PUSH1 0x2B PUSH1 0xF9 SHL DUP2 DUP4 ADD MSTORE PUSH2 0x2A0 DUP5 ADD MSTORE DUP4 MLOAD DUP1 DUP6 ADD DUP6 MSTORE DUP3 DUP2 MSTORE PUSH1 0x57 PUSH1 0xF8 SHL DUP2 DUP4 ADD MSTORE PUSH2 0x2C0 DUP5 ADD MSTORE DUP4 MLOAD DUP1 DUP6 ADD DUP6 MSTORE DUP3 DUP2 MSTORE PUSH1 0xB PUSH1 0xFB SHL DUP2 DUP4 ADD MSTORE PUSH2 0x2E0 DUP5 ADD MSTORE DUP4 MLOAD DUP1 DUP6 ADD SWAP1 SWAP5 MSTORE SWAP1 DUP4 MSTORE PUSH1 0x59 PUSH1 0xF8 SHL DUP4 DUP3 ADD MSTORE PUSH2 0x300 DUP3 ADD SWAP3 SWAP1 SWAP3 MSTORE DUP1 MLOAD DUP1 MLOAD SWAP2 SWAP3 PUSH1 0x9 SWAP3 PUSH3 0x3FD SWAP3 DUP5 SWAP3 ADD SWAP1 PUSH3 0xA7D JUMP JUMPDEST POP PUSH1 0x20 DUP3 DUP2 ADD MLOAD DUP1 MLOAD PUSH3 0x418 SWAP3 PUSH1 0x1 DUP6 ADD SWAP3 ADD SWAP1 PUSH3 0xA7D JUMP JUMPDEST POP PUSH1 0x40 DUP3 ADD MLOAD DUP1 MLOAD PUSH3 0x436 SWAP2 PUSH1 0x2 DUP5 ADD SWAP2 PUSH1 0x20 SWAP1 SWAP2 ADD SWAP1 PUSH3 0xA7D JUMP JUMPDEST POP PUSH1 0x60 DUP3 ADD MLOAD DUP1 MLOAD PUSH3 0x454 SWAP2 PUSH1 0x3 DUP5 ADD SWAP2 PUSH1 0x20 SWAP1 SWAP2 ADD SWAP1 PUSH3 0xA7D JUMP JUMPDEST POP PUSH1 0x80 DUP3 ADD MLOAD DUP1 MLOAD PUSH3 0x472 SWAP2 PUSH1 0x4 DUP5 ADD SWAP2 PUSH1 0x20 SWAP1 SWAP2 ADD SWAP1 PUSH3 0xA7D JUMP JUMPDEST POP PUSH1 0xA0 DUP3 ADD MLOAD DUP1 MLOAD PUSH3 0x490 SWAP2 PUSH1 0x5 DUP5 ADD SWAP2 PUSH1 0x20 SWAP1 SWAP2 ADD SWAP1 PUSH3 0xA7D JUMP JUMPDEST POP PUSH1 0xC0 DUP3 ADD MLOAD DUP1 MLOAD PUSH3 0x4AE SWAP2 PUSH1 0x6 DUP5 ADD SWAP2 PUSH1 0x20 SWAP1 SWAP2 ADD SWAP1 PUSH3 0xA7D JUMP JUMPDEST POP PUSH1 0xE0 DUP3 ADD MLOAD DUP1 MLOAD PUSH3 0x4CC SWAP2 PUSH1 0x7 DUP5 ADD SWAP2 PUSH1 0x20 SWAP1 SWAP2 ADD SWAP1 PUSH3 0xA7D JUMP JUMPDEST POP PUSH2 0x100 DUP3 ADD MLOAD DUP1 MLOAD PUSH3 0x4EB SWAP2 PUSH1 0x8 DUP5 ADD SWAP2 PUSH1 0x20 SWAP1 SWAP2 ADD SWAP1 PUSH3 0xA7D JUMP JUMPDEST POP PUSH2 0x120 DUP3 ADD MLOAD DUP1 MLOAD PUSH3 0x50A SWAP2 PUSH1 0x9 DUP5 ADD SWAP2 PUSH1 0x20 SWAP1 SWAP2 ADD SWAP1 PUSH3 0xA7D JUMP JUMPDEST POP PUSH2 0x140 DUP3 ADD MLOAD DUP1 MLOAD PUSH3 0x529 SWAP2 PUSH1 0xA DUP5 ADD SWAP2 PUSH1 0x20 SWAP1 SWAP2 ADD SWAP1 PUSH3 0xA7D JUMP JUMPDEST POP PUSH2 0x160 DUP3 ADD MLOAD DUP1 MLOAD PUSH3 0x548 SWAP2 PUSH1 0xB DUP5 ADD SWAP2 PUSH1 0x20 SWAP1 SWAP2 ADD SWAP1 PUSH3 0xA7D JUMP JUMPDEST POP PUSH2 0x180 DUP3 ADD MLOAD DUP1 MLOAD PUSH3 0x567 SWAP2 PUSH1 0xC DUP5 ADD SWAP2 PUSH1 0x20 SWAP1 SWAP2 ADD SWAP1 PUSH3 0xA7D JUMP JUMPDEST POP PUSH2 0x1A0 DUP3 ADD MLOAD DUP1 MLOAD PUSH3 0x586 SWAP2 PUSH1 0xD DUP5 ADD SWAP2 PUSH1 0x20 SWAP1 SWAP2 ADD SWAP1 PUSH3 0xA7D JUMP JUMPDEST POP PUSH2 0x1C0 DUP3 ADD MLOAD DUP1 MLOAD PUSH3 0x5A5 SWAP2 PUSH1 0xE DUP5 ADD SWAP2 PUSH1 0x20 SWAP1 SWAP2 ADD SWAP1 PUSH3 0xA7D JUMP JUMPDEST POP PUSH2 0x1E0 DUP3 ADD MLOAD DUP1 MLOAD PUSH3 0x5C4 SWAP2 PUSH1 0xF DUP5 ADD SWAP2 PUSH1 0x20 SWAP1 SWAP2 ADD SWAP1 PUSH3 0xA7D JUMP JUMPDEST POP PUSH2 0x200 DUP3 ADD MLOAD DUP1 MLOAD PUSH3 0x5E3 SWAP2 PUSH1 0x10 DUP5 ADD SWAP2 PUSH1 0x20 SWAP1 SWAP2 ADD SWAP1 PUSH3 0xA7D JUMP JUMPDEST POP PUSH2 0x220 DUP3 ADD MLOAD DUP1 MLOAD PUSH3 0x602 SWAP2 PUSH1 0x11 DUP5 ADD SWAP2 PUSH1 0x20 SWAP1 SWAP2 ADD SWAP1 PUSH3 0xA7D JUMP JUMPDEST POP PUSH2 0x240 DUP3 ADD MLOAD DUP1 MLOAD PUSH3 0x621 SWAP2 PUSH1 0x12 DUP5 ADD SWAP2 PUSH1 0x20 SWAP1 SWAP2 ADD SWAP1 PUSH3 0xA7D JUMP JUMPDEST POP PUSH2 0x260 DUP3 ADD MLOAD DUP1 MLOAD PUSH3 0x640 SWAP2 PUSH1 0x13 DUP5 ADD SWAP2 PUSH1 0x20 SWAP1 SWAP2 ADD SWAP1 PUSH3 0xA7D JUMP JUMPDEST POP PUSH2 0x280 DUP3 ADD MLOAD DUP1 MLOAD PUSH3 0x65F SWAP2 PUSH1 0x14 DUP5 ADD SWAP2 PUSH1 0x20 SWAP1 SWAP2 ADD SWAP1 PUSH3 0xA7D JUMP JUMPDEST POP PUSH2 0x2A0 DUP3 ADD MLOAD DUP1 MLOAD PUSH3 0x67E SWAP2 PUSH1 0x15 DUP5 ADD SWAP2 PUSH1 0x20 SWAP1 SWAP2 ADD SWAP1 PUSH3 0xA7D JUMP JUMPDEST POP PUSH2 0x2C0 DUP3 ADD MLOAD DUP1 MLOAD PUSH3 0x69D SWAP2 PUSH1 0x16 DUP5 ADD SWAP2 PUSH1 0x20 SWAP1 SWAP2 ADD SWAP1 PUSH3 0xA7D JUMP JUMPDEST POP PUSH2 0x2E0 DUP3 ADD MLOAD DUP1 MLOAD PUSH3 0x6BC SWAP2 PUSH1 0x17 DUP5 ADD SWAP2 PUSH1 0x20 SWAP1 SWAP2 ADD SWAP1 PUSH3 0xA7D JUMP JUMPDEST POP PUSH2 0x300 DUP3 ADD MLOAD DUP1 MLOAD PUSH3 0x6DB SWAP2 PUSH1 0x18 DUP5 ADD SWAP2 PUSH1 0x20 SWAP1 SWAP2 ADD SWAP1 PUSH3 0xA7D JUMP JUMPDEST POP SWAP1 POP POP PUSH1 0x40 MLOAD DUP1 PUSH1 0xC0 ADD PUSH1 0x40 MSTORE DUP1 PUSH4 0xDEAD123 PUSH1 0x1 PUSH1 0x1 PUSH1 0xA0 SHL SUB AND DUP2 MSTORE PUSH1 0x20 ADD PUSH1 0x0 DUP2 MSTORE PUSH1 0x20 ADD PUSH1 0x1 DUP2 MSTORE PUSH1 0x20 ADD PUSH1 0x64 DUP2 MSTORE PUSH1 0x20 ADD PUSH1 0x64 PUSH2 0x2710 PUSH1 0xF PUSH3 0x725 SWAP2 SWAP1 PUSH3 0xCD6 JUMP JUMPDEST PUSH3 0x731 SWAP2 SWAP1 PUSH3 0xD04 JUMP JUMPDEST DUP2 MSTORE PUSH1 0x20 ADD PUSH3 0x745 PUSH2 0x2710 PUSH1 0xF PUSH3 0xCD6 JUMP JUMPDEST SWAP1 MSTORE DUP1 MLOAD PUSH1 0x2A DUP1 SLOAD PUSH1 0x1 PUSH1 0x1 PUSH1 0xA0 SHL SUB NOT AND PUSH1 0x1 PUSH1 0x1 PUSH1 0xA0 SHL SUB SWAP1 SWAP3 AND SWAP2 SWAP1 SWAP2 OR SWAP1 SSTORE PUSH1 0x20 DUP2 ADD MLOAD PUSH1 0x2B SSTORE PUSH1 0x40 DUP2 ADD MLOAD PUSH1 0x2C SSTORE PUSH1 0x60 DUP2 ADD MLOAD PUSH1 0x2D SSTORE PUSH1 0x80 DUP2 ADD MLOAD PUSH1 0x2E SSTORE PUSH1 0xA0 ADD MLOAD PUSH1 0x2F SSTORE PUSH3 0x799 PUSH3 0xB0C JUMP JUMPDEST PUSH1 0x40 DUP1 MLOAD PUSH1 0xA0 DUP2 ADD DUP3 MSTORE PUSH1 0x0 DUP1 DUP3 MSTORE PUSH1 0x20 DUP3 ADD DUP5 DUP2 MSTORE SWAP3 DUP3 ADD DUP2 SWAP1 MSTORE PUSH1 0x60 DUP3 ADD DUP2 SWAP1 MSTORE PUSH1 0x80 DUP3 ADD DUP2 SWAP1 MSTORE PUSH1 0x22 DUP1 SLOAD PUSH1 0x1 DUP2 ADD DUP3 SSTORE SWAP2 MSTORE DUP2 MLOAD PUSH32 0x61035B26E3E9EEE00E0D72FD1EE8DDCA6894550DCA6916EA2AC6BAA90D11E510 PUSH1 0x4 SWAP1 SWAP3 MUL SWAP2 DUP3 ADD DUP1 SLOAD PUSH1 0x1 PUSH1 0x1 PUSH1 0xA0 SHL SUB NOT AND PUSH1 0x1 PUSH1 0x1 PUSH1 0xA0 SHL SUB SWAP1 SWAP3 AND SWAP2 SWAP1 SWAP2 OR DUP2 SSTORE SWAP3 MLOAD SWAP2 SWAP3 SWAP2 PUSH3 0x84C SWAP2 PUSH32 0x61035B26E3E9EEE00E0D72FD1EE8DDCA6894550DCA6916EA2AC6BAA90D11E511 ADD SWAP1 PUSH1 0x8 PUSH3 0xB2B JUMP JUMPDEST POP PUSH1 0x40 DUP3 ADD MLOAD PUSH1 0x60 DUP4 ADD MLOAD PUSH1 0x1 PUSH1 0x1 PUSH1 0x80 SHL SUB SWAP2 DUP3 AND PUSH1 0x1 PUSH1 0x80 SHL SWAP2 DUP4 AND SWAP2 SWAP1 SWAP2 MUL OR PUSH1 0x2 DUP4 ADD SSTORE PUSH1 0x80 SWAP1 SWAP3 ADD MLOAD PUSH1 0x3 SWAP1 SWAP2 ADD DUP1 SLOAD PUSH1 0x1 PUSH1 0x1 PUSH1 0x80 SHL SUB NOT AND SWAP2 SWAP1 SWAP3 AND OR SWAP1 SSTORE CHAINID PUSH2 0x3039 EQ ISZERO PUSH3 0x8B7 JUMPI PUSH1 0x29 DUP1 SLOAD PUSH1 0x1 PUSH1 0x1 PUSH1 0xA0 SHL SUB NOT AND PUSH2 0xDEAD OR SWAP1 SSTORE PUSH3 0x8D8 JUMP JUMPDEST CHAINID PUSH3 0x181CD EQ ISZERO PUSH3 0x8D8 JUMPI PUSH1 0x29 DUP1 SLOAD PUSH1 0x1 PUSH1 0x1 PUSH1 0xA0 SHL SUB NOT AND PUSH2 0xDEAD OR SWAP1 SSTORE JUMPDEST POP PUSH1 0x29 DUP1 SLOAD PUSH1 0x1 PUSH1 0x1 PUSH1 0xA0 SHL SUB NOT AND PUSH20 0x14769F96E57B80C66837701DE0B43686FB4632DE OR SWAP1 SSTORE PUSH3 0xD27 JUMP JUMPDEST DUP1 MLOAD PUSH3 0x91A SWAP1 PUSH1 0x2 SWAP1 PUSH1 0x20 DUP5 ADD SWAP1 PUSH3 0xA7D JUMP JUMPDEST POP POP JUMP JUMPDEST PUSH3 0x91A DUP3 DUP3 PUSH3 0x93B DUP3 DUP3 PUSH3 0x967 PUSH1 0x20 SHL PUSH3 0x2A44 OR PUSH1 0x20 SHR JUMP JUMPDEST PUSH1 0x0 DUP3 DUP2 MSTORE PUSH1 0x5 PUSH1 0x20 SWAP1 DUP2 MSTORE PUSH1 0x40 SWAP1 SWAP2 KECCAK256 PUSH3 0x962 SWAP2 DUP4 SWAP1 PUSH3 0x2ACA PUSH3 0xA0B DUP3 SHL OR SWAP1 SHR JUMP JUMPDEST POP POP POP JUMP JUMPDEST PUSH1 0x0 DUP3 DUP2 MSTORE PUSH1 0x4 PUSH1 0x20 SWAP1 DUP2 MSTORE PUSH1 0x40 DUP1 DUP4 KECCAK256 PUSH1 0x1 PUSH1 0x1 PUSH1 0xA0 SHL SUB DUP6 AND DUP5 MSTORE SWAP1 SWAP2 MSTORE SWAP1 KECCAK256 SLOAD PUSH1 0xFF AND PUSH3 0x91A JUMPI PUSH1 0x0 DUP3 DUP2 MSTORE PUSH1 0x4 PUSH1 0x20 SWAP1 DUP2 MSTORE PUSH1 0x40 DUP1 DUP4 KECCAK256 PUSH1 0x1 PUSH1 0x1 PUSH1 0xA0 SHL SUB DUP6 AND DUP5 MSTORE SWAP1 SWAP2 MSTORE SWAP1 KECCAK256 DUP1 SLOAD PUSH1 0xFF NOT AND PUSH1 0x1 OR SWAP1 SSTORE PUSH3 0x9C7 CALLER SWAP1 JUMP JUMPDEST PUSH1 0x1 PUSH1 0x1 PUSH1 0xA0 SHL SUB AND DUP2 PUSH1 0x1 PUSH1 0x1 PUSH1 0xA0 SHL SUB AND DUP4 PUSH32 0x2F8788117E7EFF1D82E926EC794901D17C78024A50270940304540A733656F0D PUSH1 0x40 MLOAD PUSH1 0x40 MLOAD DUP1 SWAP2 SUB SWAP1 LOG4 POP POP JUMP JUMPDEST PUSH1 0x0 PUSH3 0xA22 DUP4 PUSH1 0x1 PUSH1 0x1 PUSH1 0xA0 SHL SUB DUP5 AND PUSH3 0xA2B JUMP JUMPDEST SWAP1 POP JUMPDEST SWAP3 SWAP2 POP POP JUMP JUMPDEST PUSH1 0x0 DUP2 DUP2 MSTORE PUSH1 0x1 DUP4 ADD PUSH1 0x20 MSTORE PUSH1 0x40 DUP2 KECCAK256 SLOAD PUSH3 0xA74 JUMPI POP DUP2 SLOAD PUSH1 0x1 DUP2 DUP2 ADD DUP5 SSTORE PUSH1 0x0 DUP5 DUP2 MSTORE PUSH1 0x20 DUP1 DUP3 KECCAK256 SWAP1 SWAP4 ADD DUP5 SWAP1 SSTORE DUP5 SLOAD DUP5 DUP3 MSTORE DUP3 DUP7 ADD SWAP1 SWAP4 MSTORE PUSH1 0x40 SWAP1 KECCAK256 SWAP2 SWAP1 SWAP2 SSTORE PUSH3 0xA25 JUMP JUMPDEST POP PUSH1 0x0 PUSH3 0xA25 JUMP JUMPDEST DUP3 DUP1 SLOAD PUSH3 0xA8B SWAP1 PUSH3 0xBDB JUMP JUMPDEST SWAP1 PUSH1 0x0 MSTORE PUSH1 0x20 PUSH1 0x0 KECCAK256 SWAP1 PUSH1 0x1F ADD PUSH1 0x20 SWAP1 DIV DUP2 ADD SWAP3 DUP3 PUSH3 0xAAF JUMPI PUSH1 0x0 DUP6 SSTORE PUSH3 0xAFA JUMP JUMPDEST DUP3 PUSH1 0x1F LT PUSH3 0xACA JUMPI DUP1 MLOAD PUSH1 0xFF NOT AND DUP4 DUP1 ADD OR DUP6 SSTORE PUSH3 0xAFA JUMP JUMPDEST DUP3 DUP1 ADD PUSH1 0x1 ADD DUP6 SSTORE DUP3 ISZERO PUSH3 0xAFA JUMPI SWAP2 DUP3 ADD JUMPDEST DUP3 DUP2 GT ISZERO PUSH3 0xAFA JUMPI DUP3 MLOAD DUP3 SSTORE SWAP2 PUSH1 0x20 ADD SWAP2 SWAP1 PUSH1 0x1 ADD SWAP1 PUSH3 0xADD JUMP JUMPDEST POP PUSH3 0xB08 SWAP3 SWAP2 POP PUSH3 0xBC4 JUMP JUMPDEST POP SWAP1 JUMP JUMPDEST PUSH1 0x40 MLOAD DUP1 PUSH2 0x100 ADD PUSH1 0x40 MSTORE DUP1 PUSH1 0x8 SWAP1 PUSH1 0x20 DUP3 MUL DUP1 CALLDATASIZE DUP4 CALLDATACOPY POP SWAP2 SWAP3 SWAP2 POP POP JUMP JUMPDEST PUSH1 0x1 DUP4 ADD SWAP2 DUP4 SWAP1 DUP3 ISZERO PUSH3 0xAFA JUMPI SWAP2 PUSH1 0x20 MUL DUP3 ADD PUSH1 0x0 JUMPDEST DUP4 DUP3 GT ISZERO PUSH3 0xB88 JUMPI DUP4 MLOAD DUP4 DUP3 PUSH2 0x100 EXP DUP2 SLOAD DUP2 PUSH4 0xFFFFFFFF MUL NOT AND SWAP1 DUP4 PUSH4 0xFFFFFFFF AND MUL OR SWAP1 SSTORE POP SWAP3 PUSH1 0x20 ADD SWAP3 PUSH1 0x4 ADD PUSH1 0x20 DUP2 PUSH1 0x3 ADD DIV SWAP3 DUP4 ADD SWAP3 PUSH1 0x1 SUB MUL PUSH3 0xB42 JUMP JUMPDEST DUP1 ISZERO PUSH3 0xBBA JUMPI DUP3 DUP2 PUSH2 0x100 EXP DUP2 SLOAD SWAP1 PUSH4 0xFFFFFFFF MUL NOT AND SWAP1 SSTORE PUSH1 0x4 ADD PUSH1 0x20 DUP2 PUSH1 0x3 ADD DIV SWAP3 DUP4 ADD SWAP3 PUSH1 0x1 SUB MUL PUSH3 0xB88 JUMP JUMPDEST POP POP PUSH3 0xB08 SWAP3 SWAP2 POP JUMPDEST JUMPDEST DUP1 DUP3 GT ISZERO PUSH3 0xB08 JUMPI PUSH1 0x0 DUP2 SSTORE PUSH1 0x1 ADD PUSH3 0xBC5 JUMP JUMPDEST PUSH1 0x1 DUP2 DUP2 SHR SWAP1 DUP3 AND DUP1 PUSH3 0xBF0 JUMPI PUSH1 0x7F DUP3 AND SWAP2 POP JUMPDEST PUSH1 0x20 DUP3 LT DUP2 EQ ISZERO PUSH3 0xC12 JUMPI PUSH4 0x4E487B71 PUSH1 0xE0 SHL PUSH1 0x0 MSTORE PUSH1 0x22 PUSH1 0x4 MSTORE PUSH1 0x24 PUSH1 0x0 REVERT JUMPDEST POP SWAP2 SWAP1 POP JUMP JUMPDEST PUSH1 0x0 DUP1 DUP4 SLOAD DUP2 PUSH1 0x1 DUP3 DUP2 SHR SWAP2 POP DUP1 DUP4 AND DUP1 PUSH3 0xC35 JUMPI PUSH1 0x7F DUP4 AND SWAP3 POP JUMPDEST PUSH1 0x20 DUP1 DUP5 LT DUP3 EQ ISZERO PUSH3 0xC56 JUMPI PUSH4 0x4E487B71 PUSH1 0xE0 SHL DUP7 MSTORE PUSH1 0x22 PUSH1 0x4 MSTORE PUSH1 0x24 DUP7 REVERT JUMPDEST DUP2 DUP1 ISZERO PUSH3 0xC6D JUMPI PUSH1 0x1 DUP2 EQ PUSH3 0xC7F JUMPI PUSH3 0xCAE JUMP JUMPDEST PUSH1 0xFF NOT DUP7 AND DUP10 MSTORE DUP5 DUP10 ADD SWAP7 POP PUSH3 0xCAE JUMP JUMPDEST PUSH1 0x0 DUP11 DUP2 MSTORE PUSH1 0x20 SWAP1 KECCAK256 PUSH1 0x0 JUMPDEST DUP7 DUP2 LT ISZERO PUSH3 0xCA6 JUMPI DUP2 SLOAD DUP12 DUP3 ADD MSTORE SWAP1 DUP6 ADD SWAP1 DUP4 ADD PUSH3 0xC8B JUMP JUMPDEST POP POP DUP5 DUP10 ADD SWAP7 POP JUMPDEST POP POP POP POP POP POP PUSH3 0xCCE DUP2 PUSH9 0x3DB4B23E973539B7B7 PUSH1 0xB9 SHL DUP2 MSTORE PUSH1 0x9 ADD SWAP1 JUMP JUMPDEST SWAP5 SWAP4 POP POP POP POP JUMP JUMPDEST PUSH1 0x0 DUP2 PUSH1 0x0 NOT DIV DUP4 GT DUP3 ISZERO ISZERO AND ISZERO PUSH3 0xCFF JUMPI PUSH4 0x4E487B71 PUSH1 0xE0 SHL PUSH1 0x0 MSTORE PUSH1 0x11 PUSH1 0x4 MSTORE PUSH1 0x24 PUSH1 0x0 REVERT JUMPDEST POP MUL SWAP1 JUMP JUMPDEST PUSH1 0x0 DUP3 PUSH3 0xD22 JUMPI PUSH4 0x4E487B71 PUSH1 0xE0 SHL PUSH1 0x0 MSTORE PUSH1 0x12 PUSH1 0x4 MSTORE PUSH1 0x24 PUSH1 0x0 REVERT JUMPDEST POP DIV SWAP1 JUMP JUMPDEST PUSH2 0x60AA DUP1 PUSH3 0xD37 PUSH1 0x0 CODECOPY PUSH1 0x0 RETURN INVALID PUSH1 0x80 PUSH1 0x40 MSTORE PUSH1 0x4 CALLDATASIZE LT PUSH2 0x28B JUMPI PUSH1 0x0 CALLDATALOAD PUSH1 0xE0 SHR DUP1 PUSH4 0x91D14854 GT PUSH2 0x15A JUMPI DUP1 PUSH4 0xCA15C873 GT PUSH2 0xC1 JUMPI DUP1 PUSH4 0xE985E9C5 GT PUSH2 0x7A JUMPI DUP1 PUSH4 0xE985E9C5 EQ PUSH2 0x83D JUMPI DUP1 PUSH4 0xECA01093 EQ PUSH2 0x886 JUMPI DUP1 PUSH4 0xF242432A EQ PUSH2 0x8A6 JUMPI DUP1 PUSH4 0xF3E6EA8A EQ PUSH2 0x8C6 JUMPI DUP1 PUSH4 0xF5298ACA EQ PUSH2 0x8D9 JUMPI DUP1 PUSH4 0xF6524724 EQ PUSH2 0x8F9 JUMPI PUSH1 0x0 DUP1 REVERT JUMPDEST DUP1 PUSH4 0xCA15C873 EQ PUSH2 0x734 JUMPI DUP1 PUSH4 0xD391014B EQ PUSH2 0x754 JUMPI DUP1 PUSH4 0xD547741F EQ PUSH2 0x769 JUMPI DUP1 PUSH4 0xD5D60737 EQ PUSH2 0x789 JUMPI DUP1 PUSH4 0xDA0BCF40 EQ PUSH2 0x79C JUMPI DUP1 PUSH4 0xE06174E4 EQ PUSH2 0x7D2 JUMPI PUSH1 0x0 DUP1 REVERT JUMPDEST DUP1 PUSH4 0xA6D8AD39 GT PUSH2 0x113 JUMPI DUP1 PUSH4 0xA6D8AD39 EQ PUSH2 0x68A JUMPI DUP1 PUSH4 0xA7FD40BF EQ PUSH2 0x6AA JUMPI DUP1 PUSH4 0xB5D11E99 EQ PUSH2 0x6CA JUMPI DUP1 PUSH4 0xBD85B039 EQ PUSH2 0x6DF JUMPI DUP1 PUSH4 0xC09C923B EQ PUSH2 0x70C JUMPI DUP1 PUSH4 0xC790985A EQ PUSH2 0x714 JUMPI PUSH1 0x0 DUP1 REVERT JUMPDEST DUP1 PUSH4 0x91D14854 EQ PUSH2 0x5CD JUMPI DUP1 PUSH4 0x95D89B41 EQ PUSH2 0x5ED JUMPI DUP1 PUSH4 0x9BC731FC EQ PUSH2 0x602 JUMPI DUP1 PUSH4 0xA22CB465 EQ PUSH2 0x622 JUMPI DUP1 PUSH4 0xA5534D7C EQ PUSH2 0x642 JUMPI DUP1 PUSH4 0xA60C6E55 EQ PUSH2 0x662 JUMPI PUSH1 0x0 DUP1 REVERT JUMPDEST DUP1 PUSH4 0x2F2FF15D GT PUSH2 0x1FE JUMPI DUP1 PUSH4 0x48B08D62 GT PUSH2 0x1B7 JUMPI DUP1 PUSH4 0x48B08D62 EQ PUSH2 0x4F1 JUMPI DUP1 PUSH4 0x4E1273F4 EQ PUSH2 0x511 JUMPI DUP1 PUSH4 0x4F558E79 EQ PUSH2 0x53E JUMPI DUP1 PUSH4 0x74FCF071 EQ PUSH2 0x56D JUMPI DUP1 PUSH4 0x9010D07C EQ PUSH2 0x58D JUMPI DUP1 PUSH4 0x9162EBF0 EQ PUSH2 0x5AD JUMPI PUSH1 0x0 DUP1 REVERT JUMPDEST DUP1 PUSH4 0x2F2FF15D EQ PUSH2 0x43D JUMPI DUP1 PUSH4 0x313CE567 EQ PUSH2 0x45D JUMPI DUP1 PUSH4 0x34E150AB EQ PUSH2 0x471 JUMPI DUP1 PUSH4 0x36568ABE EQ PUSH2 0x49E JUMPI DUP1 PUSH4 0x3935AC11 EQ PUSH2 0x4BE JUMPI DUP1 PUSH4 0x43FEFAD4 EQ PUSH2 0x4DE JUMPI PUSH1 0x0 DUP1 REVERT JUMPDEST DUP1 PUSH4 0x6FDDE03 GT PUSH2 0x250 JUMPI DUP1 PUSH4 0x6FDDE03 EQ PUSH2 0x374 JUMPI DUP1 PUSH4 0xC2E075B EQ PUSH2 0x396 JUMPI DUP1 PUSH4 0xE89341C EQ PUSH2 0x3B6 JUMPI DUP1 PUSH4 0x18160DDD EQ PUSH2 0x3D6 JUMPI DUP1 PUSH4 0x248A9CA3 EQ PUSH2 0x3EB JUMPI DUP1 PUSH4 0x2EB2C2D6 EQ PUSH2 0x41B JUMPI PUSH1 0x0 DUP1 REVERT JUMPDEST DUP1 PUSH3 0xFDD58E EQ PUSH2 0x297 JUMPI DUP1 PUSH4 0x1FFC9A7 EQ PUSH2 0x2CA JUMPI DUP1 PUSH4 0x3D604BD EQ PUSH2 0x2FA JUMPI DUP1 PUSH4 0x3ED957F EQ PUSH2 0x31C JUMPI DUP1 PUSH4 0x6FB1A07 EQ PUSH2 0x33C JUMPI PUSH1 0x0 DUP1 REVERT JUMPDEST CALLDATASIZE PUSH2 0x292 JUMPI STOP JUMPDEST PUSH1 0x0 DUP1 REVERT JUMPDEST CALLVALUE DUP1 ISZERO PUSH2 0x2A3 JUMPI PUSH1 0x0 DUP1 REVERT JUMPDEST POP PUSH2 0x2B7 PUSH2 0x2B2 CALLDATASIZE PUSH1 0x4 PUSH2 0x521A JUMP JUMPDEST PUSH2 0x90C JUMP JUMPDEST PUSH1 0x40 MLOAD SWAP1 DUP2 MSTORE PUSH1 0x20 ADD JUMPDEST PUSH1 0x40 MLOAD DUP1 SWAP2 SUB SWAP1 RETURN JUMPDEST CALLVALUE DUP1 ISZERO PUSH2 0x2D6 JUMPI PUSH1 0x0 DUP1 REVERT JUMPDEST POP PUSH2 0x2EA PUSH2 0x2E5 CALLDATASIZE PUSH1 0x4 PUSH2 0x525C JUMP JUMPDEST PUSH2 0x9A6 JUMP JUMPDEST PUSH1 0x40 MLOAD SWAP1 ISZERO ISZERO DUP2 MSTORE PUSH1 0x20 ADD PUSH2 0x2C1 JUMP JUMPDEST CALLVALUE DUP1 ISZERO PUSH2 0x306 JUMPI PUSH1 0x0 DUP1 REVERT JUMPDEST POP PUSH2 0x31A PUSH2 0x315 CALLDATASIZE PUSH1 0x4 PUSH2 0x5279 JUMP JUMPDEST PUSH2 0x9E6 JUMP JUMPDEST STOP JUMPDEST CALLVALUE DUP1 ISZERO PUSH2 0x328 JUMPI PUSH1 0x0 DUP1 REVERT JUMPDEST POP PUSH2 0x31A PUSH2 0x337 CALLDATASIZE PUSH1 0x4 PUSH2 0x5296 JUMP JUMPDEST PUSH2 0xB3C JUMP JUMPDEST CALLVALUE DUP1 ISZERO PUSH2 0x348 JUMPI PUSH1 0x0 DUP1 REVERT JUMPDEST POP PUSH2 0x35C PUSH2 0x357 CALLDATASIZE PUSH1 0x4 PUSH2 0x530A JUMP JUMPDEST PUSH2 0xBB9 JUMP JUMPDEST PUSH1 0x40 MLOAD PUSH1 0x1 PUSH1 0x1 PUSH1 0xA0 SHL SUB SWAP1 SWAP2 AND DUP2 MSTORE PUSH1 0x20 ADD PUSH2 0x2C1 JUMP JUMPDEST CALLVALUE DUP1 ISZERO PUSH2 0x380 JUMPI PUSH1 0x0 DUP1 REVERT JUMPDEST POP PUSH2 0x389 PUSH2 0xC30 JUMP JUMPDEST PUSH1 0x40 MLOAD PUSH2 0x2C1 SWAP2 SWAP1 PUSH2 0x537B JUMP JUMPDEST CALLVALUE DUP1 ISZERO PUSH2 0x3A2 JUMPI PUSH1 0x0 DUP1 REVERT JUMPDEST POP PUSH2 0x31A PUSH2 0x3B1 CALLDATASIZE PUSH1 0x4 PUSH2 0x538E JUMP JUMPDEST PUSH2 0xCC2 JUMP JUMPDEST CALLVALUE DUP1 ISZERO PUSH2 0x3C2 JUMPI PUSH1 0x0 DUP1 REVERT JUMPDEST POP PUSH2 0x389 PUSH2 0x3D1 CALLDATASIZE PUSH1 0x4 PUSH2 0x530A JUMP JUMPDEST PUSH2 0xD53 JUMP JUMPDEST CALLVALUE DUP1 ISZERO PUSH2 0x3E2 JUMPI PUSH1 0x0 DUP1 REVERT JUMPDEST POP PUSH2 0x2B7 PUSH2 0xD7F JUMP JUMPDEST CALLVALUE DUP1 ISZERO PUSH2 0x3F7 JUMPI PUSH1 0x0 DUP1 REVERT JUMPDEST POP PUSH2 0x2B7 PUSH2 0x406 CALLDATASIZE PUSH1 0x4 PUSH2 0x530A JUMP JUMPDEST PUSH1 0x0 SWAP1 DUP2 MSTORE PUSH1 0x4 PUSH1 0x20 MSTORE PUSH1 0x40 SWAP1 KECCAK256 PUSH1 0x1 ADD SLOAD SWAP1 JUMP JUMPDEST CALLVALUE DUP1 ISZERO PUSH2 0x427 JUMPI PUSH1 0x0 DUP1 REVERT JUMPDEST POP PUSH2 0x31A PUSH2 0x436 CALLDATASIZE PUSH1 0x4 PUSH2 0x54E9 JUMP JUMPDEST POP POP POP POP POP JUMP JUMPDEST CALLVALUE DUP1 ISZERO PUSH2 0x449 JUMPI PUSH1 0x0 DUP1 REVERT JUMPDEST POP PUSH2 0x31A PUSH2 0x458 CALLDATASIZE PUSH1 0x4 PUSH2 0x5596 JUMP JUMPDEST PUSH2 0xDCB JUMP JUMPDEST CALLVALUE DUP1 ISZERO PUSH2 0x469 JUMPI PUSH1 0x0 DUP1 REVERT JUMPDEST POP PUSH1 0x12 PUSH2 0x2B7 JUMP JUMPDEST CALLVALUE DUP1 ISZERO PUSH2 0x47D JUMPI PUSH1 0x0 DUP1 REVERT JUMPDEST POP PUSH2 0x491 PUSH2 0x48C CALLDATASIZE PUSH1 0x4 PUSH2 0x5611 JUMP JUMPDEST PUSH2 0xDF6 JUMP JUMPDEST PUSH1 0x40 MLOAD PUSH2 0x2C1 SWAP2 SWAP1 PUSH2 0x5652 JUMP JUMPDEST CALLVALUE DUP1 ISZERO PUSH2 0x4AA JUMPI PUSH1 0x0 DUP1 REVERT JUMPDEST POP PUSH2 0x31A PUSH2 0x4B9 CALLDATASIZE PUSH1 0x4 PUSH2 0x5596 JUMP JUMPDEST PUSH2 0xFB3 JUMP JUMPDEST CALLVALUE DUP1 ISZERO PUSH2 0x4CA JUMPI PUSH1 0x0 DUP1 REVERT JUMPDEST POP PUSH2 0x31A PUSH2 0x4D9 CALLDATASIZE PUSH1 0x4 PUSH2 0x5706 JUMP JUMPDEST PUSH2 0x1031 JUMP JUMPDEST PUSH2 0x2B7 PUSH2 0x4EC CALLDATASIZE PUSH1 0x4 PUSH2 0x5769 JUMP JUMPDEST PUSH2 0x1064 JUMP JUMPDEST CALLVALUE DUP1 ISZERO PUSH2 0x4FD JUMPI PUSH1 0x0 DUP1 REVERT JUMPDEST POP PUSH2 0x2B7 PUSH2 0x50C CALLDATASIZE PUSH1 0x4 PUSH2 0x57B3 JUMP JUMPDEST PUSH2 0x165F JUMP JUMPDEST CALLVALUE DUP1 ISZERO PUSH2 0x51D JUMPI PUSH1 0x0 DUP1 REVERT JUMPDEST POP PUSH2 0x531 PUSH2 0x52C CALLDATASIZE PUSH1 0x4 PUSH2 0x57F4 JUMP JUMPDEST PUSH2 0x1731 JUMP JUMPDEST PUSH1 0x40 MLOAD PUSH2 0x2C1 SWAP2 SWAP1 PUSH2 0x58B6 JUMP JUMPDEST CALLVALUE DUP1 ISZERO PUSH2 0x54A JUMPI PUSH1 0x0 DUP1 REVERT JUMPDEST POP PUSH2 0x2EA PUSH2 0x559 CALLDATASIZE PUSH1 0x4 PUSH2 0x530A JUMP JUMPDEST PUSH1 0x0 SWAP1 DUP2 MSTORE PUSH1 0x3 PUSH1 0x20 MSTORE PUSH1 0x40 SWAP1 KECCAK256 SLOAD ISZERO ISZERO SWAP1 JUMP JUMPDEST CALLVALUE DUP1 ISZERO PUSH2 0x579 JUMPI PUSH1 0x0 DUP1 REVERT JUMPDEST POP PUSH2 0x2B7 PUSH2 0x588 CALLDATASIZE PUSH1 0x4 PUSH2 0x5769 JUMP JUMPDEST PUSH2 0x1852 JUMP JUMPDEST CALLVALUE DUP1 ISZERO PUSH2 0x599 JUMPI PUSH1 0x0 DUP1 REVERT JUMPDEST POP PUSH2 0x35C PUSH2 0x5A8 CALLDATASIZE PUSH1 0x4 PUSH2 0x58FA JUMP JUMPDEST PUSH2 0x18E5 JUMP JUMPDEST CALLVALUE DUP1 ISZERO PUSH2 0x5B9 JUMPI PUSH1 0x0 DUP1 REVERT JUMPDEST POP PUSH2 0x2B7 PUSH2 0x5C8 CALLDATASIZE PUSH1 0x4 PUSH2 0x5279 JUMP JUMPDEST PUSH2 0x18FD JUMP JUMPDEST CALLVALUE DUP1 ISZERO PUSH2 0x5D9 JUMPI PUSH1 0x0 DUP1 REVERT JUMPDEST POP PUSH2 0x2EA PUSH2 0x5E8 CALLDATASIZE PUSH1 0x4 PUSH2 0x5596 JUMP JUMPDEST PUSH2 0x191F JUMP JUMPDEST CALLVALUE DUP1 ISZERO PUSH2 0x5F9 JUMPI PUSH1 0x0 DUP1 REVERT JUMPDEST POP PUSH2 0x389 PUSH2 0x194A JUMP JUMPDEST CALLVALUE DUP1 ISZERO PUSH2 0x60E JUMPI PUSH1 0x0 DUP1 REVERT JUMPDEST POP PUSH2 0x31A PUSH2 0x61D CALLDATASIZE PUSH1 0x4 PUSH2 0x5279 JUMP JUMPDEST PUSH2 0x1959 JUMP JUMPDEST CALLVALUE DUP1 ISZERO PUSH2 0x62E JUMPI PUSH1 0x0 DUP1 REVERT JUMPDEST POP PUSH2 0x31A PUSH2 0x63D CALLDATASIZE PUSH1 0x4 PUSH2 0x592A JUMP JUMPDEST PUSH2 0x1BF0 JUMP JUMPDEST CALLVALUE DUP1 ISZERO PUSH2 0x64E JUMPI PUSH1 0x0 DUP1 REVERT JUMPDEST POP PUSH2 0x531 PUSH2 0x65D CALLDATASIZE PUSH1 0x4 PUSH2 0x5611 JUMP JUMPDEST PUSH2 0x1DA8 JUMP JUMPDEST PUSH2 0x675 PUSH2 0x670 CALLDATASIZE PUSH1 0x4 PUSH2 0x5958 JUMP JUMPDEST PUSH2 0x1E56 JUMP JUMPDEST PUSH1 0x40 DUP1 MLOAD SWAP3 DUP4 MSTORE PUSH1 0x20 DUP4 ADD SWAP2 SWAP1 SWAP2 MSTORE ADD PUSH2 0x2C1 JUMP JUMPDEST CALLVALUE DUP1 ISZERO PUSH2 0x696 JUMPI PUSH1 0x0 DUP1 REVERT JUMPDEST POP PUSH2 0x491 PUSH2 0x6A5 CALLDATASIZE PUSH1 0x4 PUSH2 0x5611 JUMP JUMPDEST PUSH2 0x2062 JUMP JUMPDEST CALLVALUE DUP1 ISZERO PUSH2 0x6B6 JUMPI PUSH1 0x0 DUP1 REVERT JUMPDEST POP PUSH2 0x31A PUSH2 0x6C5 CALLDATASIZE PUSH1 0x4 PUSH2 0x59BF JUMP JUMPDEST PUSH2 0x21E4 JUMP JUMPDEST CALLVALUE DUP1 ISZERO PUSH2 0x6D6 JUMPI PUSH1 0x0 DUP1 REVERT JUMPDEST POP PUSH2 0x31A PUSH2 0x222B JUMP JUMPDEST CALLVALUE DUP1 ISZERO PUSH2 0x6EB JUMPI PUSH1 0x0 DUP1 REVERT JUMPDEST POP PUSH2 0x2B7 PUSH2 0x6FA CALLDATASIZE PUSH1 0x4 PUSH2 0x530A JUMP JUMPDEST PUSH1 0x0 SWAP1 DUP2 MSTORE PUSH1 0x3 PUSH1 0x20 MSTORE PUSH1 0x40 SWAP1 KECCAK256 SLOAD SWAP1 JUMP JUMPDEST PUSH2 0x31A PUSH2 0x227B JUMP JUMPDEST CALLVALUE DUP1 ISZERO PUSH2 0x720 JUMPI PUSH1 0x0 DUP1 REVERT JUMPDEST POP PUSH2 0x2B7 PUSH2 0x72F CALLDATASIZE PUSH1 0x4 PUSH2 0x57B3 JUMP JUMPDEST PUSH2 0x22A4 JUMP JUMPDEST CALLVALUE DUP1 ISZERO PUSH2 0x740 JUMPI PUSH1 0x0 DUP1 REVERT JUMPDEST POP PUSH2 0x2B7 PUSH2 0x74F CALLDATASIZE PUSH1 0x4 PUSH2 0x530A JUMP JUMPDEST PUSH2 0x2364 JUMP JUMPDEST CALLVALUE DUP1 ISZERO PUSH2 0x760 JUMPI PUSH1 0x0 DUP1 REVERT JUMPDEST POP PUSH2 0x2B7 PUSH1 0x0 DUP2 JUMP JUMPDEST CALLVALUE DUP1 ISZERO PUSH2 0x775 JUMPI PUSH1 0x0 DUP1 REVERT JUMPDEST POP PUSH2 0x31A PUSH2 0x784 CALLDATASIZE PUSH1 0x4 PUSH2 0x5596 JUMP JUMPDEST PUSH2 0x237B JUMP JUMPDEST PUSH2 0x31A PUSH2 0x797 CALLDATASIZE PUSH1 0x4 PUSH2 0x5769 JUMP JUMPDEST PUSH2 0x23A1 JUMP JUMPDEST CALLVALUE DUP1 ISZERO PUSH2 0x7A8 JUMPI PUSH1 0x0 DUP1 REVERT JUMPDEST POP PUSH2 0x2B7 PUSH2 0x7B7 CALLDATASIZE PUSH1 0x4 PUSH2 0x5279 JUMP JUMPDEST PUSH1 0x1 PUSH1 0x1 PUSH1 0xA0 SHL SUB AND PUSH1 0x0 SWAP1 DUP2 MSTORE PUSH1 0x23 PUSH1 0x20 MSTORE PUSH1 0x40 SWAP1 KECCAK256 SLOAD SWAP1 JUMP JUMPDEST CALLVALUE DUP1 ISZERO PUSH2 0x7DE JUMPI PUSH1 0x0 DUP1 REVERT JUMPDEST POP PUSH1 0x2A SLOAD PUSH1 0x2B SLOAD PUSH1 0x2C SLOAD PUSH1 0x2D SLOAD PUSH1 0x2E SLOAD PUSH1 0x2F SLOAD PUSH2 0x806 SWAP6 PUSH1 0x1 PUSH1 0x1 PUSH1 0xA0 SHL SUB AND SWAP5 SWAP4 SWAP3 SWAP2 SWAP1 DUP7 JUMP JUMPDEST PUSH1 0x40 DUP1 MLOAD PUSH1 0x1 PUSH1 0x1 PUSH1 0xA0 SHL SUB SWAP1 SWAP8 AND DUP8 MSTORE PUSH1 0x20 DUP8 ADD SWAP6 SWAP1 SWAP6 MSTORE SWAP4 DUP6 ADD SWAP3 SWAP1 SWAP3 MSTORE PUSH1 0x60 DUP5 ADD MSTORE PUSH1 0x80 DUP4 ADD MSTORE PUSH1 0xA0 DUP3 ADD MSTORE PUSH1 0xC0 ADD PUSH2 0x2C1 JUMP JUMPDEST CALLVALUE DUP1 ISZERO PUSH2 0x849 JUMPI PUSH1 0x0 DUP1 REVERT JUMPDEST POP PUSH2 0x2EA PUSH2 0x858 CALLDATASIZE PUSH1 0x4 PUSH2 0x59F3 JUMP JUMPDEST PUSH1 0x1 PUSH1 0x1 PUSH1 0xA0 SHL SUB SWAP2 DUP3 AND PUSH1 0x0 SWAP1 DUP2 MSTORE PUSH1 0x1 PUSH1 0x20 SWAP1 DUP2 MSTORE PUSH1 0x40 DUP1 DUP4 KECCAK256 SWAP4 SWAP1 SWAP5 AND DUP3 MSTORE SWAP2 SWAP1 SWAP2 MSTORE KECCAK256 SLOAD PUSH1 0xFF AND SWAP1 JUMP JUMPDEST CALLVALUE DUP1 ISZERO PUSH2 0x892 JUMPI PUSH1 0x0 DUP1 REVERT JUMPDEST POP PUSH2 0x31A PUSH2 0x8A1 CALLDATASIZE PUSH1 0x4 PUSH2 0x5A21 JUMP JUMPDEST PUSH2 0x26FB JUMP JUMPDEST CALLVALUE DUP1 ISZERO PUSH2 0x8B2 JUMPI PUSH1 0x0 DUP1 REVERT JUMPDEST POP PUSH2 0x31A PUSH2 0x8C1 CALLDATASIZE PUSH1 0x4 PUSH2 0x5A92 JUMP JUMPDEST PUSH2 0x274D JUMP JUMPDEST PUSH2 0x31A PUSH2 0x8D4 CALLDATASIZE PUSH1 0x4 PUSH2 0x5769 JUMP JUMPDEST PUSH2 0x279D JUMP JUMPDEST CALLVALUE DUP1 ISZERO PUSH2 0x8E5 JUMPI PUSH1 0x0 DUP1 REVERT JUMPDEST POP PUSH2 0x31A PUSH2 0x8F4 CALLDATASIZE PUSH1 0x4 PUSH2 0x5AFA JUMP JUMPDEST PUSH2 0x27A9 JUMP JUMPDEST PUSH2 0x675 PUSH2 0x907 CALLDATASIZE PUSH1 0x4 PUSH2 0x5958 JUMP JUMPDEST PUSH2 0x27EC JUMP JUMPDEST PUSH1 0x0 PUSH1 0x1 PUSH1 0x1 PUSH1 0xA0 SHL SUB DUP4 AND PUSH2 0x97D JUMPI PUSH1 0x40 MLOAD PUSH3 0x461BCD PUSH1 0xE5 SHL DUP2 MSTORE PUSH1 0x20 PUSH1 0x4 DUP3 ADD MSTORE PUSH1 0x2B PUSH1 0x24 DUP3 ADD MSTORE PUSH32 0x455243313135353A2062616C616E636520717565727920666F7220746865207A PUSH1 0x44 DUP3 ADD MSTORE PUSH11 0x65726F2061646472657373 PUSH1 0xA8 SHL PUSH1 0x64 DUP3 ADD MSTORE PUSH1 0x84 ADD JUMPDEST PUSH1 0x40 MLOAD DUP1 SWAP2 SUB SWAP1 REVERT JUMPDEST POP PUSH1 0x0 DUP2 DUP2 MSTORE PUSH1 0x20 DUP2 DUP2 MSTORE PUSH1 0x40 DUP1 DUP4 KECCAK256 PUSH1 0x1 PUSH1 0x1 PUSH1 0xA0 SHL SUB DUP7 AND DUP5 MSTORE SWAP1 SWAP2 MSTORE SWAP1 KECCAK256 SLOAD JUMPDEST SWAP3 SWAP2 POP POP JUMP JUMPDEST PUSH1 0x0 PUSH1 0x1 PUSH1 0x1 PUSH1 0xE0 SHL SUB NOT DUP3 AND PUSH4 0x6CDB3D13 PUSH1 0xE1 SHL EQ DUP1 PUSH2 0x9D7 JUMPI POP PUSH1 0x1 PUSH1 0x1 PUSH1 0xE0 SHL SUB NOT DUP3 AND PUSH4 0x3A24D07 PUSH1 0xE2 SHL EQ JUMPDEST DUP1 PUSH2 0x9A0 JUMPI POP PUSH2 0x9A0 DUP3 PUSH2 0x2ADF JUMP JUMPDEST PUSH1 0x1 PUSH1 0x1 PUSH1 0xA0 SHL SUB DUP2 AND PUSH1 0x0 SWAP1 DUP2 MSTORE PUSH1 0x23 PUSH1 0x20 MSTORE PUSH1 0x40 SWAP1 KECCAK256 SLOAD DUP2 SWAP1 ISZERO DUP1 ISZERO SWAP1 PUSH2 0xA1D JUMPI POP PUSH1 0x26 SLOAD PUSH1 0x1 PUSH1 0x1 PUSH1 0xA0 SHL SUB DUP3 DUP2 AND SWAP2 AND EQ ISZERO JUMPDEST PUSH1 0xB SWAP1 PUSH2 0xA3D JUMPI PUSH1 0x40 MLOAD PUSH3 0x461BCD PUSH1 0xE5 SHL DUP2 MSTORE PUSH1 0x4 ADD PUSH2 0x974 SWAP2 SWAP1 PUSH2 0x5B64 JUMP JUMPDEST POP PUSH1 0x1 PUSH1 0x1 PUSH1 0xA0 SHL SUB DUP3 AND PUSH1 0x0 SWAP1 DUP2 MSTORE PUSH1 0x23 PUSH1 0x20 MSTORE PUSH1 0x40 DUP2 KECCAK256 SLOAD SWAP1 PUSH2 0xA61 DUP5 PUSH2 0x2B14 JUMP JUMPDEST PUSH1 0x26 SLOAD SWAP1 SWAP2 POP PUSH1 0x0 SWAP1 PUSH2 0xA7C SWAP1 PUSH1 0x1 PUSH1 0x1 PUSH1 0xA0 SHL SUB AND PUSH2 0x2B14 JUMP JUMPDEST SWAP1 POP PUSH1 0x0 PUSH1 0x22 DUP5 DUP2 SLOAD DUP2 LT PUSH2 0xA93 JUMPI PUSH2 0xA93 PUSH2 0x5BE9 JUMP JUMPDEST PUSH1 0x0 SWAP2 DUP3 MSTORE PUSH1 0x20 SWAP1 SWAP2 KECCAK256 PUSH1 0x2 PUSH1 0x4 SWAP1 SWAP3 MUL ADD ADD SLOAD PUSH2 0xABA SWAP1 PUSH1 0x1 PUSH1 0x1 PUSH1 0x80 SHL SUB AND DUP5 PUSH2 0x5C15 JUMP JUMPDEST SWAP1 POP DUP1 ISZERO PUSH2 0xACF JUMPI PUSH2 0xACF DUP7 CALLER DUP4 PUSH1 0x0 PUSH2 0x2B9C JUMP JUMPDEST PUSH1 0x0 PUSH1 0x22 DUP6 DUP2 SLOAD DUP2 LT PUSH2 0xAE4 JUMPI PUSH2 0xAE4 PUSH2 0x5BE9 JUMP JUMPDEST PUSH1 0x0 SWAP2 DUP3 MSTORE PUSH1 0x20 SWAP1 SWAP2 KECCAK256 PUSH1 0x4 SWAP1 SWAP2 MUL ADD PUSH1 0x2 ADD SLOAD PUSH2 0xB12 SWAP1 PUSH1 0x1 PUSH1 0x80 SHL SWAP1 DIV PUSH1 0x1 PUSH1 0x1 PUSH1 0x80 SHL SUB AND DUP5 PUSH2 0x5C15 JUMP JUMPDEST SWAP1 POP DUP1 ISZERO PUSH2 0xB33 JUMPI PUSH1 0x26 SLOAD PUSH2 0xB33 SWAP1 PUSH1 0x1 PUSH1 0x1 PUSH1 0xA0 SHL SUB AND CALLER DUP4 PUSH1 0x0 PUSH2 0x2B9C JUMP JUMPDEST POP POP POP POP POP POP POP JUMP JUMPDEST PUSH1 0x0 PUSH2 0xB48 DUP2 CALLER PUSH2 0x2BDC JUMP JUMPDEST PUSH1 0x0 JUMPDEST DUP3 DUP2 LT ISZERO PUSH2 0xBB3 JUMPI PUSH2 0xBA1 DUP5 DUP5 DUP4 DUP2 DUP2 LT PUSH2 0xB68 JUMPI PUSH2 0xB68 PUSH2 0x5BE9 JUMP JUMPDEST SWAP1 POP PUSH1 0x40 MUL ADD PUSH1 0x0 ADD CALLDATALOAD DUP6 DUP6 DUP5 DUP2 DUP2 LT PUSH2 0xB84 JUMPI PUSH2 0xB84 PUSH2 0x5BE9 JUMP JUMPDEST SWAP1 POP PUSH1 0x40 MUL ADD PUSH1 0x20 ADD PUSH1 0x20 DUP2 ADD SWAP1 PUSH2 0xB9C SWAP2 SWAP1 PUSH2 0x5279 JUMP JUMPDEST PUSH2 0x2C40 JUMP JUMPDEST DUP1 PUSH2 0xBAB DUP2 PUSH2 0x5C2C JUMP JUMPDEST SWAP2 POP POP PUSH2 0xB4B JUMP JUMPDEST POP POP POP POP JUMP JUMPDEST PUSH1 0x40 MLOAD PUSH4 0x6FB1A07 PUSH1 0xE0 SHL DUP2 MSTORE PUSH1 0x4 DUP2 ADD DUP3 SWAP1 MSTORE PUSH1 0x0 SWAP1 PUSH20 0xDEF1FAC7BF08F173D286BBBDCBEEADE695129840 SWAP1 PUSH4 0x6FB1A07 SWAP1 PUSH1 0x24 ADD PUSH1 0x20 PUSH1 0x40 MLOAD DUP1 DUP4 SUB DUP2 DUP7 GAS STATICCALL ISZERO DUP1 ISZERO PUSH2 0xC0C JUMPI RETURNDATASIZE PUSH1 0x0 DUP1 RETURNDATACOPY RETURNDATASIZE PUSH1 0x0 REVERT JUMPDEST POP POP POP POP PUSH1 0x40 MLOAD RETURNDATASIZE PUSH1 0x1F NOT PUSH1 0x1F DUP3 ADD AND DUP3 ADD DUP1 PUSH1 0x40 MSTORE POP DUP2 ADD SWAP1 PUSH2 0x9A0 SWAP2 SWAP1 PUSH2 0x5C47 JUMP JUMPDEST PUSH1 0x60 PUSH1 0x6 DUP1 SLOAD PUSH2 0xC3F SWAP1 PUSH2 0x5B2F JUMP JUMPDEST DUP1 PUSH1 0x1F ADD PUSH1 0x20 DUP1 SWAP2 DIV MUL PUSH1 0x20 ADD PUSH1 0x40 MLOAD SWAP1 DUP2 ADD PUSH1 0x40 MSTORE DUP1 SWAP3 SWAP2 SWAP1 DUP2 DUP2 MSTORE PUSH1 0x20 ADD DUP3 DUP1 SLOAD PUSH2 0xC6B SWAP1 PUSH2 0x5B2F JUMP JUMPDEST DUP1 ISZERO PUSH2 0xCB8 JUMPI DUP1 PUSH1 0x1F LT PUSH2 0xC8D JUMPI PUSH2 0x100 DUP1 DUP4 SLOAD DIV MUL DUP4 MSTORE SWAP2 PUSH1 0x20 ADD SWAP2 PUSH2 0xCB8 JUMP JUMPDEST DUP3 ADD SWAP2 SWAP1 PUSH1 0x0 MSTORE PUSH1 0x20 PUSH1 0x0 KECCAK256 SWAP1 JUMPDEST DUP2 SLOAD DUP2 MSTORE SWAP1 PUSH1 0x1 ADD SWAP1 PUSH1 0x20 ADD DUP1 DUP4 GT PUSH2 0xC9B JUMPI DUP3 SWAP1 SUB PUSH1 0x1F AND DUP3 ADD SWAP2 JUMPDEST POP POP POP POP POP SWAP1 POP SWAP1 JUMP JUMPDEST PUSH1 0x0 PUSH2 0xCCE DUP2 CALLER PUSH2 0x2BDC JUMP JUMPDEST DUP2 PUSH1 0x40 ADD CALLDATALOAD PUSH1 0x0 LT DUP1 ISZERO PUSH2 0xCE9 JUMPI POP DUP2 PUSH1 0x60 ADD CALLDATALOAD DUP3 PUSH1 0x40 ADD CALLDATALOAD LT JUMPDEST DUP1 ISZERO PUSH2 0xCFA JUMPI POP PUSH2 0x1F4 DUP3 PUSH1 0x60 ADD CALLDATALOAD LT JUMPDEST PUSH1 0x20 SWAP1 PUSH2 0xD1A JUMPI PUSH1 0x40 MLOAD PUSH3 0x461BCD PUSH1 0xE5 SHL DUP2 MSTORE PUSH1 0x4 ADD PUSH2 0x974 SWAP2 SWAP1 PUSH2 0x5B64 JUMP JUMPDEST POP PUSH1 0x21 PUSH1 0xA0 DUP4 ADD CALLDATALOAD PUSH1 0x80 DUP5 ADD CALLDATALOAD LT PUSH2 0xD45 JUMPI PUSH1 0x40 MLOAD PUSH3 0x461BCD PUSH1 0xE5 SHL DUP2 MSTORE PUSH1 0x4 ADD PUSH2 0x974 SWAP2 SWAP1 PUSH2 0x5B64 JUMP JUMPDEST POP DUP2 PUSH1 0x2A PUSH2 0xBB3 DUP3 DUP3 PUSH2 0x5C64 JUMP JUMPDEST PUSH1 0x60 PUSH1 0x8 DUP3 PUSH1 0x40 MLOAD PUSH1 0x20 ADD PUSH2 0xD69 SWAP3 SWAP2 SWAP1 PUSH2 0x5CC1 JUMP JUMPDEST PUSH1 0x40 MLOAD PUSH1 0x20 DUP2 DUP4 SUB SUB DUP2 MSTORE SWAP1 PUSH1 0x40 MSTORE SWAP1 POP SWAP2 SWAP1 POP JUMP JUMPDEST PUSH1 0x0 DUP1 PUSH1 0x0 JUMPDEST PUSH1 0x0 PUSH1 0x3 DUP2 PUSH2 0xD93 DUP6 PUSH2 0x5C2C JUMP JUMPDEST SWAP5 POP DUP5 DUP2 MSTORE PUSH1 0x20 ADD SWAP1 DUP2 MSTORE PUSH1 0x20 ADD PUSH1 0x0 KECCAK256 SLOAD GT ISZERO PUSH2 0x9A0 JUMPI PUSH1 0x0 DUP3 DUP2 MSTORE PUSH1 0x3 PUSH1 0x20 MSTORE PUSH1 0x40 SWAP1 KECCAK256 SLOAD PUSH2 0xDC4 SWAP1 DUP3 PUSH2 0x5D46 JUMP JUMPDEST SWAP1 POP PUSH2 0xD85 JUMP JUMPDEST PUSH1 0x0 DUP3 DUP2 MSTORE PUSH1 0x4 PUSH1 0x20 MSTORE PUSH1 0x40 SWAP1 KECCAK256 PUSH1 0x1 ADD SLOAD PUSH2 0xDE7 DUP2 CALLER PUSH2 0x2BDC JUMP JUMPDEST PUSH2 0xDF1 DUP4 DUP4 PUSH2 0x2C46 JUMP JUMPDEST POP POP POP JUMP JUMPDEST PUSH1 0x60 PUSH1 0x0 DUP3 PUSH1 0x1 PUSH1 0x1 PUSH1 0x40 SHL SUB DUP2 GT ISZERO PUSH2 0xE12 JUMPI PUSH2 0xE12 PUSH2 0x53A0 JUMP JUMPDEST PUSH1 0x40 MLOAD SWAP1 DUP1 DUP3 MSTORE DUP1 PUSH1 0x20 MUL PUSH1 0x20 ADD DUP3 ADD PUSH1 0x40 MSTORE DUP1 ISZERO PUSH2 0xE4B JUMPI DUP2 PUSH1 0x20 ADD JUMPDEST PUSH2 0xE38 PUSH2 0x5079 JUMP JUMPDEST DUP2 MSTORE PUSH1 0x20 ADD SWAP1 PUSH1 0x1 SWAP1 SUB SWAP1 DUP2 PUSH2 0xE30 JUMPI SWAP1 POP JUMPDEST POP SWAP1 POP PUSH1 0x0 JUMPDEST DUP4 DUP2 LT ISZERO PUSH2 0xFAB JUMPI PUSH1 0x22 PUSH1 0x23 PUSH1 0x0 DUP8 DUP8 DUP6 DUP2 DUP2 LT PUSH2 0xE71 JUMPI PUSH2 0xE71 PUSH2 0x5BE9 JUMP JUMPDEST SWAP1 POP PUSH1 0x20 MUL ADD PUSH1 0x20 DUP2 ADD SWAP1 PUSH2 0xE86 SWAP2 SWAP1 PUSH2 0x5279 JUMP JUMPDEST PUSH1 0x1 PUSH1 0x1 PUSH1 0xA0 SHL SUB AND PUSH1 0x1 PUSH1 0x1 PUSH1 0xA0 SHL SUB AND DUP2 MSTORE PUSH1 0x20 ADD SWAP1 DUP2 MSTORE PUSH1 0x20 ADD PUSH1 0x0 KECCAK256 SLOAD DUP2 SLOAD DUP2 LT PUSH2 0xEB7 JUMPI PUSH2 0xEB7 PUSH2 0x5BE9 JUMP JUMPDEST PUSH1 0x0 SWAP2 DUP3 MSTORE PUSH1 0x20 SWAP2 DUP3 SWAP1 KECCAK256 PUSH1 0x40 DUP1 MLOAD PUSH1 0xA0 DUP2 ADD DUP3 MSTORE PUSH1 0x4 SWAP1 SWAP4 MUL SWAP1 SWAP2 ADD DUP1 SLOAD PUSH1 0x1 PUSH1 0x1 PUSH1 0xA0 SHL SUB AND DUP4 MSTORE DUP2 MLOAD PUSH2 0x100 DUP2 ADD SWAP1 SWAP3 MSTORE SWAP2 SWAP3 DUP4 ADD SWAP1 PUSH1 0x1 DUP4 ADD PUSH1 0x8 DUP3 DUP3 DUP3 PUSH1 0x20 MUL DUP3 ADD SWAP2 PUSH1 0x0 SWAP1 JUMPDEST DUP3 DUP3 SWAP1 SLOAD SWAP1 PUSH2 0x100 EXP SWAP1 DIV PUSH4 0xFFFFFFFF AND PUSH4 0xFFFFFFFF AND DUP2 MSTORE PUSH1 0x20 ADD SWAP1 PUSH1 0x4 ADD SWAP1 PUSH1 0x20 DUP3 PUSH1 0x3 ADD DIV SWAP3 DUP4 ADD SWAP3 PUSH1 0x1 SUB DUP3 MUL SWAP2 POP DUP1 DUP5 GT PUSH2 0xF03 JUMPI POP POP POP SWAP3 DUP5 MSTORE POP POP POP PUSH1 0x2 DUP3 ADD SLOAD PUSH1 0x1 PUSH1 0x1 PUSH1 0x80 SHL SUB DUP1 DUP3 AND PUSH1 0x20 DUP5 ADD MSTORE PUSH1 0x1 PUSH1 0x80 SHL SWAP1 SWAP2 DIV DUP2 AND PUSH1 0x40 DUP4 ADD MSTORE PUSH1 0x3 SWAP1 SWAP3 ADD SLOAD SWAP1 SWAP2 AND PUSH1 0x60 SWAP1 SWAP2 ADD MSTORE DUP3 MLOAD DUP4 SWAP1 DUP4 SWAP1 DUP2 LT PUSH2 0xF8D JUMPI PUSH2 0xF8D PUSH2 0x5BE9 JUMP JUMPDEST PUSH1 0x20 MUL PUSH1 0x20 ADD ADD DUP2 SWAP1 MSTORE POP DUP1 DUP1 PUSH2 0xFA3 SWAP1 PUSH2 0x5C2C JUMP JUMPDEST SWAP2 POP POP PUSH2 0xE51 JUMP JUMPDEST POP SWAP4 SWAP3 POP POP POP JUMP JUMPDEST PUSH1 0x1 PUSH1 0x1 PUSH1 0xA0 SHL SUB DUP2 AND CALLER EQ PUSH2 0x1023 JUMPI PUSH1 0x40 MLOAD PUSH3 0x461BCD PUSH1 0xE5 SHL DUP2 MSTORE PUSH1 0x20 PUSH1 0x4 DUP3 ADD MSTORE PUSH1 0x2F PUSH1 0x24 DUP3 ADD MSTORE PUSH32 0x416363657373436F6E74726F6C3A2063616E206F6E6C792072656E6F756E6365 PUSH1 0x44 DUP3 ADD MSTORE PUSH15 0x103937B632B9903337B91039B2B633 PUSH1 0x89 SHL PUSH1 0x64 DUP3 ADD MSTORE PUSH1 0x84 ADD PUSH2 0x974 JUMP JUMPDEST PUSH2 0x102D DUP3 DUP3 PUSH2 0x2C68 JUMP JUMPDEST POP POP JUMP JUMPDEST PUSH1 0x0 PUSH2 0x103D DUP2 CALLER PUSH2 0x2BDC JUMP JUMPDEST DUP3 MLOAD PUSH2 0x1050 SWAP1 PUSH1 0x6 SWAP1 PUSH1 0x20 DUP7 ADD SWAP1 PUSH2 0x50B7 JUMP JUMPDEST POP DUP2 MLOAD PUSH2 0xBB3 SWAP1 PUSH1 0x7 SWAP1 PUSH1 0x20 DUP6 ADD SWAP1 PUSH2 0x50B7 JUMP JUMPDEST PUSH1 0x1 PUSH1 0x1 PUSH1 0xA0 SHL SUB DUP5 AND PUSH1 0x0 SWAP1 DUP2 MSTORE PUSH1 0x23 PUSH1 0x20 MSTORE PUSH1 0x40 DUP2 KECCAK256 SLOAD DUP6 SWAP1 ISZERO DUP1 ISZERO SWAP1 PUSH2 0x109B JUMPI POP PUSH1 0x26 SLOAD PUSH1 0x1 PUSH1 0x1 PUSH1 0xA0 SHL SUB DUP3 DUP2 AND SWAP2 AND EQ ISZERO JUMPDEST PUSH1 0xB SWAP1 PUSH2 0x10BB JUMPI PUSH1 0x40 MLOAD PUSH3 0x461BCD PUSH1 0xE5 SHL DUP2 MSTORE PUSH1 0x4 ADD PUSH2 0x974 SWAP2 SWAP1 PUSH2 0x5B64 JUMP JUMPDEST POP DUP4 PUSH1 0xC TIMESTAMP DUP3 LT ISZERO PUSH2 0x10E0 JUMPI PUSH1 0x40 MLOAD PUSH3 0x461BCD PUSH1 0xE5 SHL DUP2 MSTORE PUSH1 0x4 ADD PUSH2 0x974 SWAP2 SWAP1 PUSH2 0x5B64 JUMP JUMPDEST POP PUSH1 0x1 PUSH1 0x1 PUSH1 0xA0 SHL SUB DUP8 AND PUSH1 0x0 SWAP1 DUP2 MSTORE PUSH1 0x23 PUSH1 0x20 MSTORE PUSH1 0x40 SWAP1 KECCAK256 SLOAD PUSH2 0x1105 DUP9 CALLER DUP10 PUSH2 0x2C8A JUMP JUMPDEST PUSH1 0x0 PUSH2 0x1110 DUP10 PUSH2 0x2B14 JUMP JUMPDEST SWAP1 POP PUSH1 0x22 DUP3 DUP2 SLOAD DUP2 LT PUSH2 0x1125 JUMPI PUSH2 0x1125 PUSH2 0x5BE9 JUMP JUMPDEST PUSH1 0x0 SWAP2 DUP3 MSTORE PUSH1 0x20 SWAP1 SWAP2 KECCAK256 PUSH1 0x2 PUSH1 0x4 SWAP1 SWAP3 MUL ADD ADD SLOAD PUSH2 0x114C SWAP1 PUSH1 0x1 PUSH1 0x1 PUSH1 0x80 SHL SUB AND DUP3 PUSH2 0x5C15 JUMP JUMPDEST SWAP8 POP PUSH1 0xE DUP9 PUSH2 0x116E JUMPI PUSH1 0x40 MLOAD PUSH3 0x461BCD PUSH1 0xE5 SHL DUP2 MSTORE PUSH1 0x4 ADD PUSH2 0x974 SWAP2 SWAP1 PUSH2 0x5B64 JUMP JUMPDEST POP PUSH1 0x26 SLOAD PUSH1 0x0 SWAP1 PUSH2 0x1187 SWAP1 PUSH1 0x1 PUSH1 0x1 PUSH1 0xA0 SHL SUB AND PUSH2 0x2B14 JUMP JUMPDEST SWAP1 POP PUSH1 0x0 PUSH1 0x24 SLOAD DUP3 PUSH2 0x1199 SWAP2 SWAP1 PUSH2 0x5C15 JUMP JUMPDEST SWAP1 POP PUSH1 0x0 PUSH2 0x1220 PUSH1 0x22 DUP7 DUP2 SLOAD DUP2 LT PUSH2 0x11B3 JUMPI PUSH2 0x11B3 PUSH2 0x5BE9 JUMP JUMPDEST SWAP1 PUSH1 0x0 MSTORE PUSH1 0x20 PUSH1 0x0 KECCAK256 SWAP1 PUSH1 0x4 MUL ADD PUSH1 0x2 ADD PUSH1 0x10 SWAP1 SLOAD SWAP1 PUSH2 0x100 EXP SWAP1 DIV PUSH1 0x1 PUSH1 0x1 PUSH1 0x80 SHL SUB AND PUSH1 0x1 PUSH1 0x1 PUSH1 0x80 SHL SUB AND PUSH1 0x22 DUP8 DUP2 SLOAD DUP2 LT PUSH2 0x11F4 JUMPI PUSH2 0x11F4 PUSH2 0x5BE9 JUMP JUMPDEST PUSH1 0x0 SWAP2 DUP3 MSTORE PUSH1 0x20 SWAP1 SWAP2 KECCAK256 PUSH1 0x2 PUSH1 0x4 SWAP1 SWAP3 MUL ADD ADD SLOAD PUSH2 0x121B SWAP2 SWAP1 PUSH1 0x1 PUSH1 0x1 PUSH1 0x80 SHL SUB AND PUSH2 0x5D5E JUMP JUMPDEST PUSH2 0x2D41 JUMP JUMPDEST SWAP1 POP PUSH1 0x0 PUSH2 0x126E PUSH1 0x22 DUP8 DUP2 SLOAD DUP2 LT PUSH2 0x123A JUMPI PUSH2 0x123A PUSH2 0x5BE9 JUMP JUMPDEST PUSH1 0x0 SWAP2 DUP3 MSTORE PUSH1 0x20 DUP1 DUP4 KECCAK256 PUSH1 0x3 PUSH1 0x4 SWAP1 SWAP4 MUL ADD DUP3 ADD SLOAD DUP11 DUP5 MSTORE SWAP2 SWAP1 MSTORE PUSH1 0x40 SWAP1 SWAP2 KECCAK256 SLOAD PUSH1 0x1 PUSH1 0x1 PUSH1 0x80 SHL SUB SWAP1 SWAP2 AND SWAP1 DUP5 SWAP1 PUSH2 0x2D9A JUMP JUMPDEST SWAP1 POP DUP1 ISZERO PUSH2 0x129F JUMPI PUSH1 0x2A SLOAD PUSH1 0x40 DUP1 MLOAD PUSH1 0x20 DUP2 ADD SWAP1 SWAP2 MSTORE PUSH1 0x0 DUP2 MSTORE PUSH2 0x129F SWAP2 PUSH1 0x1 PUSH1 0x1 PUSH1 0xA0 SHL SUB AND SWAP1 DUP9 SWAP1 DUP5 SWAP1 PUSH2 0x2E10 JUMP JUMPDEST POP POP PUSH1 0x0 PUSH1 0x22 DUP6 DUP2 SLOAD DUP2 LT PUSH2 0x12B6 JUMPI PUSH2 0x12B6 PUSH2 0x5BE9 JUMP JUMPDEST PUSH1 0x0 SWAP2 DUP3 MSTORE PUSH1 0x20 DUP1 DUP4 KECCAK256 PUSH1 0x2 PUSH1 0x4 SWAP1 SWAP4 MUL ADD SWAP2 SWAP1 SWAP2 ADD SLOAD DUP8 DUP4 MSTORE PUSH1 0x3 SWAP1 SWAP2 MSTORE PUSH1 0x40 SWAP1 SWAP2 KECCAK256 SLOAD PUSH1 0x1 PUSH1 0x1 PUSH1 0x80 SHL SUB SWAP1 SWAP2 AND SWAP1 PUSH2 0x12F1 SWAP1 DUP14 PUSH2 0x5D5E JUMP JUMPDEST PUSH2 0x12FB SWAP2 SWAP1 PUSH2 0x5D93 JUMP JUMPDEST SWAP1 POP PUSH2 0x1318 DUP10 DUP7 DUP4 PUSH1 0x40 MLOAD DUP1 PUSH1 0x20 ADD PUSH1 0x40 MSTORE DUP1 PUSH1 0x0 DUP2 MSTORE POP PUSH2 0x2E10 JUMP JUMPDEST PUSH1 0x0 PUSH1 0x22 DUP7 DUP2 SLOAD DUP2 LT PUSH2 0x132D JUMPI PUSH2 0x132D PUSH2 0x5BE9 JUMP JUMPDEST PUSH1 0x0 SWAP2 DUP3 MSTORE PUSH1 0x20 SWAP1 SWAP2 KECCAK256 PUSH1 0x2 PUSH1 0x4 SWAP1 SWAP3 MUL ADD ADD SLOAD PUSH1 0x22 DUP1 SLOAD PUSH1 0x1 PUSH1 0x1 PUSH1 0x80 SHL SUB SWAP1 SWAP3 AND SWAP2 DUP9 SWAP1 DUP2 LT PUSH2 0x1361 JUMPI PUSH2 0x1361 PUSH2 0x5BE9 JUMP JUMPDEST PUSH1 0x0 SWAP2 DUP3 MSTORE PUSH1 0x20 SWAP1 SWAP2 KECCAK256 PUSH1 0x4 SWAP1 SWAP2 MUL ADD PUSH1 0x2 ADD SLOAD PUSH2 0x138F SWAP1 PUSH1 0x1 PUSH1 0x80 SHL SWAP1 DIV PUSH1 0x1 PUSH1 0x1 PUSH1 0x80 SHL SUB AND DUP15 PUSH2 0x5D5E JUMP JUMPDEST PUSH2 0x1399 SWAP2 SWAP1 PUSH2 0x5D93 JUMP JUMPDEST SWAP1 POP PUSH1 0x1D DUP2 PUSH2 0x13BB JUMPI PUSH1 0x40 MLOAD PUSH3 0x461BCD PUSH1 0xE5 SHL DUP2 MSTORE PUSH1 0x4 ADD PUSH2 0x974 SWAP2 SWAP1 PUSH2 0x5B64 JUMP JUMPDEST POP PUSH1 0x26 SLOAD PUSH1 0x40 MLOAD PUSH4 0xBB9FF5D PUSH1 0xE0 SHL DUP2 MSTORE ADDRESS PUSH1 0x4 DUP3 ADD MSTORE PUSH1 0x24 DUP2 ADD DUP4 SWAP1 MSTORE PUSH1 0x1 PUSH1 0x1 PUSH1 0xA0 SHL SUB SWAP1 SWAP2 AND SWAP1 PUSH4 0xBB9FF5D SWAP1 PUSH1 0x44 ADD PUSH1 0x0 PUSH1 0x40 MLOAD DUP1 DUP4 SUB DUP2 PUSH1 0x0 DUP8 DUP1 EXTCODESIZE ISZERO DUP1 ISZERO PUSH2 0x1408 JUMPI PUSH1 0x0 DUP1 REVERT JUMPDEST POP GAS CALL ISZERO DUP1 ISZERO PUSH2 0x141C JUMPI RETURNDATASIZE PUSH1 0x0 DUP1 RETURNDATACOPY RETURNDATASIZE PUSH1 0x0 REVERT JUMPDEST POP POP POP POP DUP1 DUP4 PUSH1 0x24 SLOAD PUSH2 0x142F SWAP2 SWAP1 PUSH2 0x5D46 JUMP JUMPDEST PUSH2 0x1439 SWAP2 SWAP1 PUSH2 0x5D46 JUMP JUMPDEST PUSH1 0x24 DUP2 SWAP1 SSTORE POP DUP12 PUSH1 0x22 DUP8 DUP2 SLOAD DUP2 LT PUSH2 0x1453 JUMPI PUSH2 0x1453 PUSH2 0x5BE9 JUMP JUMPDEST PUSH1 0x0 SWAP2 DUP3 MSTORE PUSH1 0x20 SWAP1 SWAP2 KECCAK256 PUSH1 0x2 PUSH1 0x4 SWAP1 SWAP3 MUL ADD ADD SLOAD PUSH2 0x147A SWAP2 SWAP1 PUSH1 0x1 PUSH1 0x1 PUSH1 0x80 SHL SUB AND PUSH2 0x5DA7 JUMP JUMPDEST PUSH1 0x22 DUP8 DUP2 SLOAD DUP2 LT PUSH2 0x148D JUMPI PUSH2 0x148D PUSH2 0x5BE9 JUMP JUMPDEST PUSH1 0x0 SWAP2 DUP3 MSTORE PUSH1 0x20 SWAP1 SWAP2 KECCAK256 PUSH1 0x4 SWAP1 SWAP2 MUL ADD PUSH1 0x2 ADD DUP1 SLOAD PUSH1 0x1 PUSH1 0x1 PUSH1 0x80 SHL SUB NOT AND PUSH1 0x1 PUSH1 0x1 PUSH1 0x80 SHL SUB SWAP3 SWAP1 SWAP3 AND SWAP2 SWAP1 SWAP2 OR SWAP1 SSTORE PUSH2 0x14C8 DUP2 DUP5 PUSH2 0x5D46 JUMP JUMPDEST PUSH1 0x22 DUP8 DUP2 SLOAD DUP2 LT PUSH2 0x14DB JUMPI PUSH2 0x14DB PUSH2 0x5BE9 JUMP JUMPDEST SWAP1 PUSH1 0x0 MSTORE PUSH1 0x20 PUSH1 0x0 KECCAK256 SWAP1 PUSH1 0x4 MUL ADD PUSH1 0x2 ADD PUSH1 0x10 SWAP1 SLOAD SWAP1 PUSH2 0x100 EXP SWAP1 DIV PUSH1 0x1 PUSH1 0x1 PUSH1 0x80 SHL SUB AND PUSH2 0x150A SWAP2 SWAP1 PUSH2 0x5DA7 JUMP JUMPDEST PUSH1 0x22 DUP8 DUP2 SLOAD DUP2 LT PUSH2 0x151D JUMPI PUSH2 0x151D PUSH2 0x5BE9 JUMP JUMPDEST SWAP1 PUSH1 0x0 MSTORE PUSH1 0x20 PUSH1 0x0 KECCAK256 SWAP1 PUSH1 0x4 MUL ADD PUSH1 0x2 ADD PUSH1 0x10 PUSH2 0x100 EXP DUP2 SLOAD DUP2 PUSH1 0x1 PUSH1 0x1 PUSH1 0x80 SHL SUB MUL NOT AND SWAP1 DUP4 PUSH1 0x1 PUSH1 0x1 PUSH1 0x80 SHL SUB AND MUL OR SWAP1 SSTORE POP PUSH2 0x15A9 PUSH1 0x22 DUP8 DUP2 SLOAD DUP2 LT PUSH2 0x1568 JUMPI PUSH2 0x1568 PUSH2 0x5BE9 JUMP JUMPDEST SWAP1 PUSH1 0x0 MSTORE PUSH1 0x20 PUSH1 0x0 KECCAK256 SWAP1 PUSH1 0x4 MUL ADD PUSH1 0x2 ADD PUSH1 0x10 SWAP1 SLOAD SWAP1 PUSH2 0x100 EXP SWAP1 DIV PUSH1 0x1 PUSH1 0x1 PUSH1 0x80 SHL SUB AND PUSH1 0x1 PUSH1 0x1 PUSH1 0x80 SHL SUB AND PUSH1 0x22 DUP9 DUP2 SLOAD DUP2 LT PUSH2 0x11F4 JUMPI PUSH2 0x11F4 PUSH2 0x5BE9 JUMP JUMPDEST PUSH1 0x22 DUP8 DUP2 SLOAD DUP2 LT PUSH2 0x15BC JUMPI PUSH2 0x15BC PUSH2 0x5BE9 JUMP JUMPDEST SWAP1 PUSH1 0x0 MSTORE PUSH1 0x20 PUSH1 0x0 KECCAK256 SWAP1 PUSH1 0x4 MUL ADD PUSH1 0x3 ADD PUSH1 0x0 PUSH2 0x100 EXP DUP2 SLOAD DUP2 PUSH1 0x1 PUSH1 0x1 PUSH1 0x80 SHL SUB MUL NOT AND SWAP1 DUP4 PUSH1 0x1 PUSH1 0x1 PUSH1 0x80 SHL SUB AND MUL OR SWAP1 SSTORE POP PUSH32 0x64B83944E79C3CE8D4C297411DE637C3E102D064677AAC0C163976EBDCD6F50E DUP14 DUP14 DUP4 DUP6 PUSH1 0x40 MLOAD PUSH2 0x1647 SWAP5 SWAP4 SWAP3 SWAP2 SWAP1 PUSH1 0x1 PUSH1 0x1 PUSH1 0xA0 SHL SUB SWAP5 SWAP1 SWAP5 AND DUP5 MSTORE PUSH1 0x20 DUP5 ADD SWAP3 SWAP1 SWAP3 MSTORE PUSH1 0x40 DUP4 ADD MSTORE PUSH1 0x60 DUP3 ADD MSTORE PUSH1 0x80 ADD SWAP1 JUMP JUMPDEST PUSH1 0x40 MLOAD DUP1 SWAP2 SUB SWAP1 LOG1 POP SWAP12 SWAP11 POP POP POP POP POP POP POP POP POP POP POP JUMP JUMPDEST PUSH1 0x26 SLOAD PUSH1 0x0 SWAP1 PUSH1 0x1 PUSH1 0x1 PUSH1 0xA0 SHL SUB DUP6 DUP2 AND SWAP2 AND EQ DUP1 ISZERO SWAP1 PUSH2 0x168D JUMPI POP PUSH1 0x26 SLOAD PUSH1 0x1 PUSH1 0x1 PUSH1 0xA0 SHL SUB DUP5 DUP2 AND SWAP2 AND EQ JUMPDEST ISZERO PUSH2 0x16A3 JUMPI PUSH2 0x169C DUP5 DUP4 PUSH2 0x2F20 JUMP JUMPDEST SWAP1 POP PUSH2 0x172A JUMP JUMPDEST PUSH1 0x26 SLOAD PUSH1 0x1 PUSH1 0x1 PUSH1 0xA0 SHL SUB DUP6 DUP2 AND SWAP2 AND EQ DUP1 ISZERO PUSH2 0x16CE JUMPI POP PUSH1 0x26 SLOAD PUSH1 0x1 PUSH1 0x1 PUSH1 0xA0 SHL SUB DUP5 DUP2 AND SWAP2 AND EQ ISZERO JUMPDEST ISZERO PUSH2 0x16DD JUMPI PUSH2 0x169C DUP4 DUP4 PUSH2 0x301A JUMP JUMPDEST PUSH1 0x26 SLOAD PUSH1 0x1 PUSH1 0x1 PUSH1 0xA0 SHL SUB DUP6 DUP2 AND SWAP2 AND EQ DUP1 ISZERO SWAP1 PUSH2 0x1709 JUMPI POP PUSH1 0x26 SLOAD PUSH1 0x1 PUSH1 0x1 PUSH1 0xA0 SHL SUB DUP6 DUP2 AND SWAP2 AND EQ ISZERO JUMPDEST ISZERO PUSH2 0x172A JUMPI PUSH1 0x0 PUSH2 0x171A DUP6 DUP5 PUSH2 0x2F20 JUMP JUMPDEST SWAP1 POP PUSH2 0x1726 DUP5 DUP3 PUSH2 0x301A JUMP JUMPDEST SWAP2 POP POP JUMPDEST SWAP4 SWAP3 POP POP POP JUMP JUMPDEST PUSH1 0x60 DUP2 MLOAD DUP4 MLOAD EQ PUSH2 0x1796 JUMPI PUSH1 0x40 MLOAD PUSH3 0x461BCD PUSH1 0xE5 SHL DUP2 MSTORE PUSH1 0x20 PUSH1 0x4 DUP3 ADD MSTORE PUSH1 0x29 PUSH1 0x24 DUP3 ADD MSTORE PUSH32 0x455243313135353A206163636F756E747320616E6420696473206C656E677468 PUSH1 0x44 DUP3 ADD MSTORE PUSH9 0x40DAD2E6DAC2E8C6D PUSH1 0xBB SHL PUSH1 0x64 DUP3 ADD MSTORE PUSH1 0x84 ADD PUSH2 0x974 JUMP JUMPDEST PUSH1 0x0 DUP4 MLOAD PUSH1 0x1 PUSH1 0x1 PUSH1 0x40 SHL SUB DUP2 GT ISZERO PUSH2 0x17B1 JUMPI PUSH2 0x17B1 PUSH2 0x53A0 JUMP JUMPDEST PUSH1 0x40 MLOAD SWAP1 DUP1 DUP3 MSTORE DUP1 PUSH1 0x20 MUL PUSH1 0x20 ADD DUP3 ADD PUSH1 0x40 MSTORE DUP1 ISZERO PUSH2 0x17DA JUMPI DUP2 PUSH1 0x20 ADD PUSH1 0x20 DUP3 MUL DUP1 CALLDATASIZE DUP4 CALLDATACOPY ADD SWAP1 POP JUMPDEST POP SWAP1 POP PUSH1 0x0 JUMPDEST DUP5 MLOAD DUP2 LT ISZERO PUSH2 0xFAB JUMPI PUSH2 0x1825 DUP6 DUP3 DUP2 MLOAD DUP2 LT PUSH2 0x17FE JUMPI PUSH2 0x17FE PUSH2 0x5BE9 JUMP JUMPDEST PUSH1 0x20 MUL PUSH1 0x20 ADD ADD MLOAD DUP6 DUP4 DUP2 MLOAD DUP2 LT PUSH2 0x1818 JUMPI PUSH2 0x1818 PUSH2 0x5BE9 JUMP JUMPDEST PUSH1 0x20 MUL PUSH1 0x20 ADD ADD MLOAD PUSH2 0x90C JUMP JUMPDEST DUP3 DUP3 DUP2 MLOAD DUP2 LT PUSH2 0x1837 JUMPI PUSH2 0x1837 PUSH2 0x5BE9 JUMP JUMPDEST PUSH1 0x20 SWAP1 DUP2 MUL SWAP2 SWAP1 SWAP2 ADD ADD MSTORE PUSH2 0x184B DUP2 PUSH2 0x5C2C JUMP JUMPDEST SWAP1 POP PUSH2 0x17E0 JUMP JUMPDEST PUSH1 0x1 PUSH1 0x1 PUSH1 0xA0 SHL SUB DUP5 AND PUSH1 0x0 SWAP1 DUP2 MSTORE PUSH1 0x23 PUSH1 0x20 MSTORE PUSH1 0x40 DUP2 KECCAK256 SLOAD DUP6 SWAP1 ISZERO DUP1 ISZERO SWAP1 PUSH2 0x1889 JUMPI POP PUSH1 0x26 SLOAD PUSH1 0x1 PUSH1 0x1 PUSH1 0xA0 SHL SUB DUP3 DUP2 AND SWAP2 AND EQ ISZERO JUMPDEST PUSH1 0xB SWAP1 PUSH2 0x18A9 JUMPI PUSH1 0x40 MLOAD PUSH3 0x461BCD PUSH1 0xE5 SHL DUP2 MSTORE PUSH1 0x4 ADD PUSH2 0x974 SWAP2 SWAP1 PUSH2 0x5B64 JUMP JUMPDEST POP DUP4 PUSH1 0xC TIMESTAMP DUP3 LT ISZERO PUSH2 0x18CE JUMPI PUSH1 0x40 MLOAD PUSH3 0x461BCD PUSH1 0xE5 SHL DUP2 MSTORE PUSH1 0x4 ADD PUSH2 0x974 SWAP2 SWAP1 PUSH2 0x5B64 JUMP JUMPDEST POP PUSH2 0x18DA DUP8 DUP8 DUP7 PUSH2 0x310C JUMP JUMPDEST SWAP8 SWAP7 POP POP POP POP POP POP POP JUMP JUMPDEST PUSH1 0x0 DUP3 DUP2 MSTORE PUSH1 0x5 PUSH1 0x20 MSTORE PUSH1 0x40 DUP2 KECCAK256 PUSH2 0x172A SWAP1 DUP4 PUSH2 0x3608 JUMP JUMPDEST PUSH1 0x1 PUSH1 0x1 PUSH1 0xA0 SHL SUB DUP2 AND PUSH1 0x0 SWAP1 DUP2 MSTORE PUSH1 0x23 PUSH1 0x20 MSTORE PUSH1 0x40 DUP2 KECCAK256 SLOAD PUSH2 0x9A0 SWAP1 PUSH2 0x3614 JUMP JUMPDEST PUSH1 0x0 SWAP2 DUP3 MSTORE PUSH1 0x4 PUSH1 0x20 SWAP1 DUP2 MSTORE PUSH1 0x40 DUP1 DUP5 KECCAK256 PUSH1 0x1 PUSH1 0x1 PUSH1 0xA0 SHL SUB SWAP4 SWAP1 SWAP4 AND DUP5 MSTORE SWAP2 SWAP1 MSTORE SWAP1 KECCAK256 SLOAD PUSH1 0xFF AND SWAP1 JUMP JUMPDEST PUSH1 0x60 PUSH1 0x7 DUP1 SLOAD PUSH2 0xC3F SWAP1 PUSH2 0x5B2F JUMP JUMPDEST PUSH1 0x1 PUSH1 0x1 PUSH1 0xA0 SHL SUB DUP2 AND PUSH1 0x0 SWAP1 DUP2 MSTORE PUSH1 0x23 PUSH1 0x20 MSTORE PUSH1 0x40 SWAP1 KECCAK256 SLOAD DUP2 SWAP1 ISZERO DUP1 ISZERO SWAP1 PUSH2 0x1990 JUMPI POP PUSH1 0x26 SLOAD PUSH1 0x1 PUSH1 0x1 PUSH1 0xA0 SHL SUB DUP3 DUP2 AND SWAP2 AND EQ ISZERO JUMPDEST PUSH1 0xB SWAP1 PUSH2 0x19B0 JUMPI PUSH1 0x40 MLOAD PUSH3 0x461BCD PUSH1 0xE5 SHL DUP2 MSTORE PUSH1 0x4 ADD PUSH2 0x974 SWAP2 SWAP1 PUSH2 0x5B64 JUMP JUMPDEST POP PUSH1 0x1 PUSH1 0x1 PUSH1 0xA0 SHL SUB DUP3 AND PUSH1 0x0 SWAP1 DUP2 MSTORE PUSH1 0x23 PUSH1 0x20 MSTORE PUSH1 0x40 SWAP1 KECCAK256 SLOAD PUSH2 0x19D3 DUP4 PUSH2 0x2B14 JUMP JUMPDEST PUSH1 0x22 DUP3 DUP2 SLOAD DUP2 LT PUSH2 0x19E6 JUMPI PUSH2 0x19E6 PUSH2 0x5BE9 JUMP JUMPDEST PUSH1 0x0 SWAP2 DUP3 MSTORE PUSH1 0x20 DUP3 KECCAK256 PUSH1 0x4 SWAP2 SWAP1 SWAP2 MUL ADD PUSH1 0x2 ADD DUP1 SLOAD PUSH1 0x1 PUSH1 0x1 PUSH1 0x80 SHL SUB NOT AND PUSH1 0x1 PUSH1 0x1 PUSH1 0x80 SHL SUB SWAP4 SWAP1 SWAP4 AND SWAP3 SWAP1 SWAP3 OR SWAP1 SWAP2 SSTORE PUSH1 0x26 SLOAD PUSH2 0x1A2D SWAP1 PUSH1 0x1 PUSH1 0x1 PUSH1 0xA0 SHL SUB AND PUSH2 0x2B14 JUMP JUMPDEST SWAP1 POP PUSH1 0x24 SLOAD DUP2 GT PUSH2 0x1A8D JUMPI DUP1 PUSH1 0x24 SLOAD PUSH2 0x1A46 SWAP2 SWAP1 PUSH2 0x5C15 JUMP JUMPDEST PUSH1 0x22 DUP4 DUP2 SLOAD DUP2 LT PUSH2 0x1A59 JUMPI PUSH2 0x1A59 PUSH2 0x5BE9 JUMP JUMPDEST SWAP1 PUSH1 0x0 MSTORE PUSH1 0x20 PUSH1 0x0 KECCAK256 SWAP1 PUSH1 0x4 MUL ADD PUSH1 0x2 ADD PUSH1 0x10 SWAP1 SLOAD SWAP1 PUSH2 0x100 EXP SWAP1 DIV PUSH1 0x1 PUSH1 0x1 PUSH1 0x80 SHL SUB AND PUSH2 0x1A88 SWAP2 SWAP1 PUSH2 0x5DD2 JUMP JUMPDEST PUSH2 0x1ADC JUMP JUMPDEST PUSH1 0x24 SLOAD PUSH2 0x1A9A SWAP1 DUP3 PUSH2 0x5C15 JUMP JUMPDEST PUSH1 0x22 DUP4 DUP2 SLOAD DUP2 LT PUSH2 0x1AAD JUMPI PUSH2 0x1AAD PUSH2 0x5BE9 JUMP JUMPDEST SWAP1 PUSH1 0x0 MSTORE PUSH1 0x20 PUSH1 0x0 KECCAK256 SWAP1 PUSH1 0x4 MUL ADD PUSH1 0x2 ADD PUSH1 0x10 SWAP1 SLOAD SWAP1 PUSH2 0x100 EXP SWAP1 DIV PUSH1 0x1 PUSH1 0x1 PUSH1 0x80 SHL SUB AND PUSH2 0x1ADC SWAP2 SWAP1 PUSH2 0x5DA7 JUMP JUMPDEST PUSH1 0x22 DUP4 DUP2 SLOAD DUP2 LT PUSH2 0x1AEF JUMPI PUSH2 0x1AEF PUSH2 0x5BE9 JUMP JUMPDEST SWAP1 PUSH1 0x0 MSTORE PUSH1 0x20 PUSH1 0x0 KECCAK256 SWAP1 PUSH1 0x4 MUL ADD PUSH1 0x2 ADD PUSH1 0x10 PUSH2 0x100 EXP DUP2 SLOAD DUP2 PUSH1 0x1 PUSH1 0x1 PUSH1 0x80 SHL SUB MUL NOT AND SWAP1 DUP4 PUSH1 0x1 PUSH1 0x1 PUSH1 0x80 SHL SUB AND MUL OR SWAP1 SSTORE POP DUP1 PUSH1 0x24 DUP2 SWAP1 SSTORE POP PUSH32 0xF10FC780C78F994A214C79A2AE8D8B7BFE7CC3F0F935A8F05A29525E71D7F127 DUP5 PUSH1 0x22 DUP5 DUP2 SLOAD DUP2 LT PUSH2 0x1B60 JUMPI PUSH2 0x1B60 PUSH2 0x5BE9 JUMP JUMPDEST SWAP1 PUSH1 0x0 MSTORE PUSH1 0x20 PUSH1 0x0 KECCAK256 SWAP1 PUSH1 0x4 MUL ADD PUSH1 0x2 ADD PUSH1 0x0 SWAP1 SLOAD SWAP1 PUSH2 0x100 EXP SWAP1 DIV PUSH1 0x1 PUSH1 0x1 PUSH1 0x80 SHL SUB AND PUSH1 0x22 DUP6 DUP2 SLOAD DUP2 LT PUSH2 0x1B98 JUMPI PUSH2 0x1B98 PUSH2 0x5BE9 JUMP JUMPDEST PUSH1 0x0 SWAP2 DUP3 MSTORE PUSH1 0x20 SWAP2 DUP3 SWAP1 KECCAK256 PUSH1 0x2 PUSH1 0x4 SWAP1 SWAP3 MUL ADD ADD SLOAD PUSH1 0x40 DUP1 MLOAD PUSH1 0x1 PUSH1 0x1 PUSH1 0xA0 SHL SUB SWAP1 SWAP6 AND DUP6 MSTORE PUSH1 0x1 PUSH1 0x1 PUSH1 0x80 SHL SUB SWAP4 DUP5 AND SWAP3 DUP6 ADD SWAP3 SWAP1 SWAP3 MSTORE PUSH1 0x1 PUSH1 0x80 SHL SWAP1 DIV SWAP2 SWAP1 SWAP2 AND SWAP1 DUP3 ADD MSTORE PUSH1 0x60 ADD PUSH1 0x40 MLOAD DUP1 SWAP2 SUB SWAP1 LOG1 POP POP POP POP JUMP JUMPDEST PUSH1 0x40 MLOAD PUSH4 0x6FB1A07 PUSH1 0xE0 SHL DUP2 MSTORE PUSH1 0x3 PUSH1 0x4 DUP3 ADD MSTORE ADDRESS SWAP1 CALLER SWAP1 PUSH1 0x0 SWAP1 PUSH20 0xDEF1FAC7BF08F173D286BBBDCBEEADE695129840 SWAP1 PUSH4 0x6FB1A07 SWAP1 PUSH1 0x24 ADD PUSH1 0x20 PUSH1 0x40 MLOAD DUP1 DUP4 SUB DUP2 DUP7 GAS STATICCALL ISZERO DUP1 ISZERO PUSH2 0x1C47 JUMPI RETURNDATASIZE PUSH1 0x0 DUP1 RETURNDATACOPY RETURNDATASIZE PUSH1 0x0 REVERT JUMPDEST POP POP POP POP PUSH1 0x40 MLOAD RETURNDATASIZE PUSH1 0x1F NOT PUSH1 0x1F DUP3 ADD AND DUP3 ADD DUP1 PUSH1 0x40 MSTORE POP DUP2 ADD SWAP1 PUSH2 0x1C6B SWAP2 SWAP1 PUSH2 0x5C47 JUMP JUMPDEST PUSH1 0x40 MLOAD PUSH4 0xC8B57EF PUSH1 0xE2 SHL DUP2 MSTORE PUSH1 0x1 PUSH1 0x1 PUSH1 0xA0 SHL SUB DUP6 DUP2 AND PUSH1 0x4 DUP4 ADD MSTORE DUP5 DUP2 AND PUSH1 0x24 DUP4 ADD MSTORE SWAP2 SWAP3 POP SWAP1 DUP3 AND SWAP1 PUSH4 0x322D5FBC SWAP1 PUSH1 0x44 ADD PUSH1 0x20 PUSH1 0x40 MLOAD DUP1 DUP4 SUB DUP2 PUSH1 0x0 DUP8 GAS CALL ISZERO DUP1 ISZERO PUSH2 0x1CBF JUMPI RETURNDATASIZE PUSH1 0x0 DUP1 RETURNDATACOPY RETURNDATASIZE PUSH1 0x0 REVERT JUMPDEST POP POP POP POP PUSH1 0x40 MLOAD RETURNDATASIZE PUSH1 0x1F NOT PUSH1 0x1F DUP3 ADD AND DUP3 ADD DUP1 PUSH1 0x40 MSTORE POP DUP2 ADD SWAP1 PUSH2 0x1CE3 SWAP2 SWAP1 PUSH2 0x5DFA JUMP JUMPDEST ISZERO PUSH2 0x1D44 JUMPI PUSH1 0x40 MLOAD PUSH3 0x461BCD PUSH1 0xE5 SHL DUP2 MSTORE PUSH1 0x20 PUSH1 0x4 DUP3 ADD MSTORE PUSH1 0x2B PUSH1 0x24 DUP3 ADD MSTORE PUSH32 0x43434A453A205472616E73616374696F6E73206172652074656D706F72617269 PUSH1 0x44 DUP3 ADD MSTORE PUSH11 0x1B1E48191A5CD8589B1959 PUSH1 0xAA SHL PUSH1 0x64 DUP3 ADD MSTORE PUSH1 0x84 ADD PUSH2 0x974 JUMP JUMPDEST DUP1 PUSH1 0x1 PUSH1 0x1 PUSH1 0xA0 SHL SUB AND PUSH4 0xEEF84BA1 PUSH1 0x40 MLOAD DUP2 PUSH4 0xFFFFFFFF AND PUSH1 0xE0 SHL DUP2 MSTORE PUSH1 0x4 ADD PUSH1 0x0 PUSH1 0x40 MLOAD DUP1 DUP4 SUB DUP2 PUSH1 0x0 DUP8 DUP1 EXTCODESIZE ISZERO DUP1 ISZERO PUSH2 0x1D7F JUMPI PUSH1 0x0 DUP1 REVERT JUMPDEST POP GAS CALL ISZERO DUP1 ISZERO PUSH2 0x1D93 JUMPI RETURNDATASIZE PUSH1 0x0 DUP1 RETURNDATACOPY RETURNDATASIZE PUSH1 0x0 REVERT JUMPDEST POP POP POP POP PUSH2 0x436 PUSH2 0x1DA1 CALLER SWAP1 JUMP JUMPDEST DUP7 DUP7 PUSH2 0x3826 JUMP JUMPDEST PUSH1 0x60 PUSH1 0x0 DUP3 PUSH1 0x1 PUSH1 0x1 PUSH1 0x40 SHL SUB DUP2 GT ISZERO PUSH2 0x1DC4 JUMPI PUSH2 0x1DC4 PUSH2 0x53A0 JUMP JUMPDEST PUSH1 0x40 MLOAD SWAP1 DUP1 DUP3 MSTORE DUP1 PUSH1 0x20 MUL PUSH1 0x20 ADD DUP3 ADD PUSH1 0x40 MSTORE DUP1 ISZERO PUSH2 0x1DED JUMPI DUP2 PUSH1 0x20 ADD PUSH1 0x20 DUP3 MUL DUP1 CALLDATASIZE DUP4 CALLDATACOPY ADD SWAP1 POP JUMPDEST POP SWAP1 POP PUSH1 0x0 JUMPDEST DUP4 DUP2 LT ISZERO PUSH2 0xFAB JUMPI PUSH1 0x3 PUSH1 0x0 DUP7 DUP7 DUP5 DUP2 DUP2 LT PUSH2 0x1E11 JUMPI PUSH2 0x1E11 PUSH2 0x5BE9 JUMP JUMPDEST SWAP1 POP PUSH1 0x20 MUL ADD CALLDATALOAD DUP2 MSTORE PUSH1 0x20 ADD SWAP1 DUP2 MSTORE PUSH1 0x20 ADD PUSH1 0x0 KECCAK256 SLOAD DUP3 DUP3 DUP2 MLOAD DUP2 LT PUSH2 0x1E39 JUMPI PUSH2 0x1E39 PUSH2 0x5BE9 JUMP JUMPDEST PUSH1 0x20 SWAP1 DUP2 MUL SWAP2 SWAP1 SWAP2 ADD ADD MSTORE DUP1 PUSH2 0x1E4E DUP2 PUSH2 0x5C2C JUMP JUMPDEST SWAP2 POP POP PUSH2 0x1DF3 JUMP JUMPDEST PUSH1 0x0 DUP1 DUP4 PUSH1 0xC TIMESTAMP DUP3 LT ISZERO PUSH2 0x1E7D JUMPI PUSH1 0x40 MLOAD PUSH3 0x461BCD PUSH1 0xE5 SHL DUP2 MSTORE PUSH1 0x4 ADD PUSH2 0x974 SWAP2 SWAP1 PUSH2 0x5B64 JUMP JUMPDEST POP PUSH1 0xE PUSH1 0x1 DUP9 GT PUSH2 0x1EA1 JUMPI PUSH1 0x40 MLOAD PUSH3 0x461BCD PUSH1 0xE5 SHL DUP2 MSTORE PUSH1 0x4 ADD PUSH2 0x974 SWAP2 SWAP1 PUSH2 0x5B64 JUMP JUMPDEST POP PUSH1 0x26 SLOAD CALLER SWAP1 PUSH1 0x0 SWAP1 PUSH1 0x1 PUSH1 0x1 PUSH1 0xA0 SHL SUB DUP13 DUP2 AND SWAP2 AND EQ DUP1 ISZERO SWAP1 PUSH2 0x1ED2 JUMPI POP PUSH1 0x26 SLOAD PUSH1 0x1 PUSH1 0x1 PUSH1 0xA0 SHL SUB DUP12 DUP2 AND SWAP2 AND EQ JUMPDEST ISZERO PUSH2 0x1F24 JUMPI PUSH2 0x1EE1 DUP12 DUP11 PUSH2 0x2F20 JUMP JUMPDEST SWAP1 POP PUSH1 0x10 DUP9 DUP3 LT ISZERO PUSH2 0x1F06 JUMPI PUSH1 0x40 MLOAD PUSH3 0x461BCD PUSH1 0xE5 SHL DUP2 MSTORE PUSH1 0x4 ADD PUSH2 0x974 SWAP2 SWAP1 PUSH2 0x5B64 JUMP JUMPDEST POP PUSH2 0x1F12 DUP12 DUP4 DUP12 PUSH2 0x2C8A JUMP JUMPDEST PUSH2 0x1F1F DUP12 PUSH1 0x0 DUP4 DUP10 PUSH2 0x3907 JUMP JUMPDEST PUSH2 0x2051 JUMP JUMPDEST PUSH1 0x26 SLOAD PUSH1 0x1 PUSH1 0x1 PUSH1 0xA0 SHL SUB DUP13 DUP2 AND SWAP2 AND EQ DUP1 ISZERO PUSH2 0x1F4F JUMPI POP PUSH1 0x26 SLOAD PUSH1 0x1 PUSH1 0x1 PUSH1 0xA0 SHL SUB DUP12 DUP2 AND SWAP2 AND EQ ISZERO JUMPDEST ISZERO PUSH2 0x1F9C JUMPI PUSH2 0x1F5E DUP11 DUP11 PUSH2 0x301A JUMP JUMPDEST SWAP1 POP PUSH1 0x11 DUP9 DUP3 LT ISZERO PUSH2 0x1F83 JUMPI PUSH1 0x40 MLOAD PUSH3 0x461BCD PUSH1 0xE5 SHL DUP2 MSTORE PUSH1 0x4 ADD PUSH2 0x974 SWAP2 SWAP1 PUSH2 0x5B64 JUMP JUMPDEST POP PUSH2 0x1F8F DUP12 DUP4 DUP12 PUSH2 0x2C8A JUMP JUMPDEST PUSH2 0x1F1F DUP11 DUP3 PUSH1 0x0 DUP10 PUSH2 0x3907 JUMP JUMPDEST PUSH1 0x26 SLOAD PUSH1 0x1 PUSH1 0x1 PUSH1 0xA0 SHL SUB DUP13 DUP2 AND SWAP2 AND EQ DUP1 ISZERO SWAP1 PUSH2 0x1FC8 JUMPI POP PUSH1 0x26 SLOAD PUSH1 0x1 PUSH1 0x1 PUSH1 0xA0 SHL SUB DUP13 DUP2 AND SWAP2 AND EQ ISZERO JUMPDEST ISZERO PUSH2 0x2036 JUMPI PUSH1 0x0 PUSH2 0x1FD9 DUP13 DUP12 PUSH2 0x2F20 JUMP JUMPDEST SWAP1 POP PUSH2 0x1FE5 DUP12 DUP3 PUSH2 0x301A JUMP JUMPDEST SWAP2 POP PUSH1 0x11 DUP10 DUP4 LT ISZERO PUSH2 0x200A JUMPI PUSH1 0x40 MLOAD PUSH3 0x461BCD PUSH1 0xE5 SHL DUP2 MSTORE PUSH1 0x4 ADD PUSH2 0x974 SWAP2 SWAP1 PUSH2 0x5B64 JUMP JUMPDEST POP PUSH2 0x2016 DUP13 DUP5 DUP13 PUSH2 0x2C8A JUMP JUMPDEST PUSH2 0x2023 DUP13 PUSH1 0x0 DUP4 ADDRESS PUSH2 0x3907 JUMP JUMPDEST PUSH2 0x2030 DUP12 DUP4 PUSH1 0x0 DUP11 PUSH2 0x3907 JUMP JUMPDEST POP PUSH2 0x2051 JUMP JUMPDEST PUSH1 0x40 MLOAD PUSH3 0x461BCD PUSH1 0xE5 SHL DUP2 MSTORE PUSH2 0x974 SWAP1 PUSH1 0x14 SWAP1 PUSH1 0x4 ADD PUSH2 0x5B64 JUMP JUMPDEST SWAP8 SWAP11 SWAP8 SWAP10 POP SWAP7 SWAP8 POP POP POP POP POP POP POP POP JUMP JUMPDEST PUSH1 0x60 PUSH1 0x0 DUP3 PUSH1 0x1 PUSH1 0x1 PUSH1 0x40 SHL SUB DUP2 GT ISZERO PUSH2 0x207E JUMPI PUSH2 0x207E PUSH2 0x53A0 JUMP JUMPDEST PUSH1 0x40 MLOAD SWAP1 DUP1 DUP3 MSTORE DUP1 PUSH1 0x20 MUL PUSH1 0x20 ADD DUP3 ADD PUSH1 0x40 MSTORE DUP1 ISZERO PUSH2 0x20B7 JUMPI DUP2 PUSH1 0x20 ADD JUMPDEST PUSH2 0x20A4 PUSH2 0x5079 JUMP JUMPDEST DUP2 MSTORE PUSH1 0x20 ADD SWAP1 PUSH1 0x1 SWAP1 SUB SWAP1 DUP2 PUSH2 0x209C JUMPI SWAP1 POP JUMPDEST POP SWAP1 POP PUSH1 0x0 JUMPDEST DUP4 DUP2 LT ISZERO PUSH2 0xFAB JUMPI PUSH1 0x22 DUP6 DUP6 DUP4 DUP2 DUP2 LT PUSH2 0x20D9 JUMPI PUSH2 0x20D9 PUSH2 0x5BE9 JUMP JUMPDEST SWAP1 POP PUSH1 0x20 MUL ADD CALLDATALOAD DUP2 SLOAD DUP2 LT PUSH2 0x20F0 JUMPI PUSH2 0x20F0 PUSH2 0x5BE9 JUMP JUMPDEST PUSH1 0x0 SWAP2 DUP3 MSTORE PUSH1 0x20 SWAP2 DUP3 SWAP1 KECCAK256 PUSH1 0x40 DUP1 MLOAD PUSH1 0xA0 DUP2 ADD DUP3 MSTORE PUSH1 0x4 SWAP1 SWAP4 MUL SWAP1 SWAP2 ADD DUP1 SLOAD PUSH1 0x1 PUSH1 0x1 PUSH1 0xA0 SHL SUB AND DUP4 MSTORE DUP2 MLOAD PUSH2 0x100 DUP2 ADD SWAP1 SWAP3 MSTORE SWAP2 SWAP3 DUP4 ADD SWAP1 PUSH1 0x1 DUP4 ADD PUSH1 0x8 DUP3 DUP3 DUP3 PUSH1 0x20 MUL DUP3 ADD SWAP2 PUSH1 0x0 SWAP1 JUMPDEST DUP3 DUP3 SWAP1 SLOAD SWAP1 PUSH2 0x100 EXP SWAP1 DIV PUSH4 0xFFFFFFFF AND PUSH4 0xFFFFFFFF AND DUP2 MSTORE PUSH1 0x20 ADD SWAP1 PUSH1 0x4 ADD SWAP1 PUSH1 0x20 DUP3 PUSH1 0x3 ADD DIV SWAP3 DUP4 ADD SWAP3 PUSH1 0x1 SUB DUP3 MUL SWAP2 POP DUP1 DUP5 GT PUSH2 0x213C JUMPI POP POP POP SWAP3 DUP5 MSTORE POP POP POP PUSH1 0x2 DUP3 ADD SLOAD PUSH1 0x1 PUSH1 0x1 PUSH1 0x80 SHL SUB DUP1 DUP3 AND PUSH1 0x20 DUP5 ADD MSTORE PUSH1 0x1 PUSH1 0x80 SHL SWAP1 SWAP2 DIV DUP2 AND PUSH1 0x40 DUP4 ADD MSTORE PUSH1 0x3 SWAP1 SWAP3 ADD SLOAD SWAP1 SWAP2 AND PUSH1 0x60 SWAP1 SWAP2 ADD MSTORE DUP3 MLOAD DUP4 SWAP1 DUP4 SWAP1 DUP2 LT PUSH2 0x21C6 JUMPI PUSH2 0x21C6 PUSH2 0x5BE9 JUMP JUMPDEST PUSH1 0x20 MUL PUSH1 0x20 ADD ADD DUP2 SWAP1 MSTORE POP DUP1 DUP1 PUSH2 0x21DC SWAP1 PUSH2 0x5C2C JUMP JUMPDEST SWAP2 POP POP PUSH2 0x20BD JUMP JUMPDEST PUSH1 0x0 PUSH2 0x21F0 DUP2 CALLER PUSH2 0x2BDC JUMP JUMPDEST PUSH2 0x2218 DUP3 PUSH1 0x40 MLOAD PUSH1 0x20 ADD PUSH2 0x2204 SWAP2 SWAP1 PUSH2 0x5E17 JUMP JUMPDEST PUSH1 0x40 MLOAD PUSH1 0x20 DUP2 DUP4 SUB SUB DUP2 MSTORE SWAP1 PUSH1 0x40 MSTORE PUSH2 0x3FD8 JUMP JUMPDEST DUP2 MLOAD PUSH2 0xDF1 SWAP1 PUSH1 0x8 SWAP1 PUSH1 0x20 DUP6 ADD SWAP1 PUSH2 0x50B7 JUMP JUMPDEST PUSH1 0x25 SLOAD PUSH2 0x2257 SWAP1 PUSH1 0x1 PUSH1 0x1 PUSH1 0xA0 SHL SUB AND PUSH10 0xD3C21BCECCEDA1000000 PUSH10 0x69E10DE76676D0800000 CALLER PUSH2 0x23A1 JUMP JUMPDEST PUSH1 0x27 SLOAD PUSH2 0x2279 SWAP1 PUSH1 0x1 PUSH1 0x1 PUSH1 0xA0 SHL SUB AND PUSH10 0x943B1377290CBD800000 DUP1 CALLER PUSH2 0x23A1 JUMP JUMPDEST JUMP JUMPDEST PUSH1 0x29 SLOAD PUSH2 0x2279 SWAP1 PUSH1 0x1 PUSH1 0x1 PUSH1 0xA0 SHL SUB AND PUSH7 0x38D7EA4C68000 PUSH10 0xD3C21BCECCEDA1000000 CALLER PUSH2 0x23A1 JUMP JUMPDEST PUSH1 0x26 SLOAD PUSH1 0x0 SWAP1 PUSH1 0x1 PUSH1 0x1 PUSH1 0xA0 SHL SUB DUP6 DUP2 AND SWAP2 AND EQ DUP1 ISZERO SWAP1 PUSH2 0x22D2 JUMPI POP PUSH1 0x26 SLOAD PUSH1 0x1 PUSH1 0x1 PUSH1 0xA0 SHL SUB DUP5 DUP2 AND SWAP2 AND EQ JUMPDEST ISZERO PUSH2 0x22E1 JUMPI PUSH2 0x169C DUP5 DUP4 PUSH2 0x3FEB JUMP JUMPDEST PUSH1 0x26 SLOAD PUSH1 0x1 PUSH1 0x1 PUSH1 0xA0 SHL SUB DUP6 DUP2 AND SWAP2 AND EQ DUP1 ISZERO PUSH2 0x230C JUMPI POP PUSH1 0x26 SLOAD PUSH1 0x1 PUSH1 0x1 PUSH1 0xA0 SHL SUB DUP5 DUP2 AND SWAP2 AND EQ ISZERO JUMPDEST ISZERO PUSH2 0x231B JUMPI PUSH2 0x169C DUP4 DUP4 PUSH2 0x40DC JUMP JUMPDEST PUSH1 0x26 SLOAD PUSH1 0x1 PUSH1 0x1 PUSH1 0xA0 SHL SUB DUP6 DUP2 AND SWAP2 AND EQ DUP1 ISZERO SWAP1 PUSH2 0x2347 JUMPI POP PUSH1 0x26 SLOAD PUSH1 0x1 PUSH1 0x1 PUSH1 0xA0 SHL SUB DUP5 DUP2 AND SWAP2 AND EQ ISZERO JUMPDEST ISZERO PUSH2 0x172A JUMPI PUSH1 0x0 PUSH2 0x2358 DUP5 DUP5 PUSH2 0x40DC JUMP JUMPDEST SWAP1 POP PUSH2 0x1726 DUP6 DUP3 PUSH2 0x3FEB JUMP JUMPDEST PUSH1 0x0 DUP2 DUP2 MSTORE PUSH1 0x5 PUSH1 0x20 MSTORE PUSH1 0x40 DUP2 KECCAK256 PUSH2 0x9A0 SWAP1 PUSH2 0x41CE JUMP JUMPDEST PUSH1 0x0 DUP3 DUP2 MSTORE PUSH1 0x4 PUSH1 0x20 MSTORE PUSH1 0x40 SWAP1 KECCAK256 PUSH1 0x1 ADD SLOAD PUSH2 0x2397 DUP2 CALLER PUSH2 0x2BDC JUMP JUMPDEST PUSH2 0xDF1 DUP4 DUP4 PUSH2 0x2C68 JUMP JUMPDEST PUSH1 0x0 PUSH2 0x23AD DUP2 CALLER PUSH2 0x2BDC JUMP JUMPDEST PUSH1 0x1 PUSH1 0x1 PUSH1 0xA0 SHL SUB DUP6 AND PUSH1 0x0 SWAP1 DUP2 MSTORE PUSH1 0x23 PUSH1 0x20 MSTORE PUSH1 0x40 SWAP1 KECCAK256 SLOAD DUP6 SWAP1 ISZERO DUP1 ISZERO PUSH2 0x23E3 JUMPI POP PUSH1 0x26 SLOAD PUSH1 0x1 PUSH1 0x1 PUSH1 0xA0 SHL SUB DUP3 DUP2 AND SWAP2 AND EQ ISZERO JUMPDEST PUSH1 0xA SWAP1 PUSH2 0x2403 JUMPI PUSH1 0x40 MLOAD PUSH3 0x461BCD PUSH1 0xE5 SHL DUP2 MSTORE PUSH1 0x4 ADD PUSH2 0x974 SWAP2 SWAP1 PUSH2 0x5B64 JUMP JUMPDEST POP PUSH1 0x22 SLOAD PUSH2 0x2412 DUP8 CALLER DUP9 PUSH2 0x2C8A JUMP JUMPDEST PUSH1 0x26 SLOAD PUSH1 0x40 MLOAD PUSH4 0xBB9FF5D PUSH1 0xE0 SHL DUP2 MSTORE ADDRESS PUSH1 0x4 DUP3 ADD MSTORE PUSH1 0x24 DUP2 ADD DUP8 SWAP1 MSTORE PUSH1 0x1 PUSH1 0x1 PUSH1 0xA0 SHL SUB SWAP1 SWAP2 AND SWAP1 PUSH4 0xBB9FF5D SWAP1 PUSH1 0x44 ADD PUSH1 0x0 PUSH1 0x40 MLOAD DUP1 DUP4 SUB DUP2 PUSH1 0x0 DUP8 DUP1 EXTCODESIZE ISZERO DUP1 ISZERO PUSH2 0x245E JUMPI PUSH1 0x0 DUP1 REVERT JUMPDEST POP GAS CALL ISZERO DUP1 ISZERO PUSH2 0x2472 JUMPI RETURNDATASIZE PUSH1 0x0 DUP1 RETURNDATACOPY RETURNDATASIZE PUSH1 0x0 REVERT JUMPDEST POP POP POP POP PUSH2 0x247F DUP8 PUSH2 0x2B14 JUMP JUMPDEST SWAP6 POP PUSH1 0xE DUP7 PUSH2 0x24A1 JUMPI PUSH1 0x40 MLOAD PUSH3 0x461BCD PUSH1 0xE5 SHL DUP2 MSTORE PUSH1 0x4 ADD PUSH2 0x974 SWAP2 SWAP1 PUSH2 0x5B64 JUMP JUMPDEST POP PUSH1 0x0 PUSH2 0x24B1 PUSH2 0x121B DUP8 DUP10 PUSH2 0x5D5E JUMP JUMPDEST SWAP1 POP PUSH2 0x24BB PUSH2 0x513B JUMP JUMPDEST PUSH1 0x0 JUMPDEST PUSH1 0x8 DUP2 LT ISZERO PUSH2 0x24FD JUMPI PUSH1 0x1 DUP3 DUP3 PUSH1 0x8 DUP2 LT PUSH2 0x24DB JUMPI PUSH2 0x24DB PUSH2 0x5BE9 JUMP JUMPDEST PUSH4 0xFFFFFFFF SWAP1 SWAP3 AND PUSH1 0x20 SWAP3 SWAP1 SWAP3 MUL ADD MSTORE DUP1 PUSH2 0x24F5 DUP2 PUSH2 0x5C2C JUMP JUMPDEST SWAP2 POP POP PUSH2 0x24BE JUMP JUMPDEST POP PUSH1 0x40 DUP1 MLOAD PUSH1 0xA0 DUP2 ADD DUP3 MSTORE PUSH1 0x1 PUSH1 0x1 PUSH1 0xA0 SHL SUB DUP12 DUP2 AND DUP3 MSTORE PUSH1 0x20 DUP3 ADD DUP5 DUP2 MSTORE PUSH1 0x1 PUSH1 0x1 PUSH1 0x80 SHL SUB DUP13 DUP2 AND SWAP5 DUP5 ADD SWAP5 SWAP1 SWAP5 MSTORE DUP11 DUP5 AND PUSH1 0x60 DUP5 ADD MSTORE SWAP3 DUP6 AND PUSH1 0x80 DUP4 ADD MSTORE PUSH1 0x22 DUP1 SLOAD PUSH1 0x1 DUP2 ADD DUP3 SSTORE PUSH1 0x0 SWAP2 SWAP1 SWAP2 MSTORE DUP3 MLOAD PUSH32 0x61035B26E3E9EEE00E0D72FD1EE8DDCA6894550DCA6916EA2AC6BAA90D11E510 PUSH1 0x4 SWAP1 SWAP3 MUL SWAP2 DUP3 ADD DUP1 SLOAD PUSH1 0x1 PUSH1 0x1 PUSH1 0xA0 SHL SUB NOT AND SWAP2 SWAP1 SWAP4 AND OR DUP3 SSTORE SWAP3 MLOAD SWAP2 SWAP3 DUP4 SWAP3 PUSH2 0x25C0 SWAP2 PUSH32 0x61035B26E3E9EEE00E0D72FD1EE8DDCA6894550DCA6916EA2AC6BAA90D11E511 ADD SWAP1 PUSH1 0x8 PUSH2 0x515A JUMP JUMPDEST POP PUSH1 0x40 DUP3 DUP2 ADD MLOAD PUSH1 0x60 DUP5 ADD MLOAD PUSH1 0x1 PUSH1 0x1 PUSH1 0x80 SHL SUB SWAP2 DUP3 AND PUSH1 0x1 PUSH1 0x80 SHL SWAP2 DUP4 AND SWAP2 SWAP1 SWAP2 MUL OR PUSH1 0x2 DUP5 ADD SSTORE PUSH1 0x80 SWAP1 SWAP4 ADD MLOAD PUSH1 0x3 SWAP1 SWAP3 ADD DUP1 SLOAD PUSH1 0x1 PUSH1 0x1 PUSH1 0x80 SHL SUB NOT AND SWAP3 SWAP1 SWAP4 AND SWAP2 SWAP1 SWAP2 OR SWAP1 SWAP2 SSTORE PUSH1 0x1 PUSH1 0x1 PUSH1 0xA0 SHL SUB DUP12 AND PUSH1 0x0 SWAP1 DUP2 MSTORE PUSH1 0x23 PUSH1 0x20 MSTORE SWAP1 DUP2 KECCAK256 DUP6 SWAP1 SSTORE PUSH1 0x24 DUP1 SLOAD DUP11 SWAP3 SWAP1 PUSH2 0x2637 SWAP1 DUP5 SWAP1 PUSH2 0x5D46 JUMP JUMPDEST SWAP3 POP POP DUP2 SWAP1 SSTORE POP PUSH2 0x265D PUSH2 0xDEAD DUP6 PUSH2 0x3E8 PUSH1 0x40 MLOAD DUP1 PUSH1 0x20 ADD PUSH1 0x40 MSTORE DUP1 PUSH1 0x0 DUP2 MSTORE POP PUSH2 0x2E10 JUMP JUMPDEST PUSH1 0x0 PUSH2 0x3E8 PUSH2 0x266F PUSH2 0x121B DUP12 DUP14 PUSH2 0x5D5E JUMP JUMPDEST PUSH2 0x2679 SWAP2 SWAP1 PUSH2 0x5C15 JUMP JUMPDEST SWAP1 POP PUSH2 0x2696 DUP9 DUP7 DUP4 PUSH1 0x40 MLOAD DUP1 PUSH1 0x20 ADD PUSH1 0x40 MSTORE DUP1 PUSH1 0x0 DUP2 MSTORE POP PUSH2 0x2E10 JUMP JUMPDEST PUSH1 0x40 DUP1 MLOAD PUSH1 0x1 PUSH1 0x1 PUSH1 0xA0 SHL SUB DUP14 AND DUP2 MSTORE PUSH1 0x20 DUP2 ADD DUP13 SWAP1 MSTORE SWAP1 DUP2 ADD DUP11 SWAP1 MSTORE PUSH1 0x60 DUP2 ADD DUP3 SWAP1 MSTORE PUSH1 0x80 DUP2 ADD DUP7 SWAP1 MSTORE PUSH32 0xE25069FEBE02950BDA1EDE7288798E9F99267811A7D0B3C5F0026821D1584B0E SWAP1 PUSH1 0xA0 ADD PUSH1 0x40 MLOAD DUP1 SWAP2 SUB SWAP1 LOG1 POP POP POP POP POP POP POP POP POP POP POP JUMP JUMPDEST PUSH1 0x28 DUP1 SLOAD PUSH1 0x1 PUSH1 0x1 PUSH1 0xA0 SHL SUB DUP1 DUP9 AND PUSH1 0x1 PUSH1 0x1 PUSH1 0xA0 SHL SUB NOT SWAP3 DUP4 AND OR SWAP1 SWAP3 SSTORE PUSH1 0x25 DUP1 SLOAD DUP8 DUP5 AND SWAP1 DUP4 AND OR SWAP1 SSTORE PUSH1 0x26 DUP1 SLOAD DUP7 DUP5 AND SWAP1 DUP4 AND OR SWAP1 SSTORE PUSH1 0x27 DUP1 SLOAD SWAP3 DUP6 AND SWAP3 SWAP1 SWAP2 AND SWAP2 SWAP1 SWAP2 OR SWAP1 SSTORE PUSH2 0x436 PUSH2 0x222B JUMP JUMPDEST PUSH1 0x1 PUSH1 0x1 PUSH1 0xA0 SHL SUB DUP6 AND CALLER EQ DUP1 PUSH2 0x2769 JUMPI POP PUSH2 0x2769 DUP6 CALLER PUSH2 0x858 JUMP JUMPDEST PUSH2 0x2785 JUMPI PUSH1 0x40 MLOAD PUSH3 0x461BCD PUSH1 0xE5 SHL DUP2 MSTORE PUSH1 0x4 ADD PUSH2 0x974 SWAP1 PUSH2 0x5E44 JUMP JUMPDEST PUSH2 0x2790 ADDRESS DUP7 DUP7 PUSH2 0x41D8 JUMP JUMPDEST PUSH2 0x436 DUP6 DUP6 DUP6 DUP6 DUP6 PUSH2 0x4372 JUMP JUMPDEST PUSH2 0xBB3 DUP5 DUP5 DUP5 DUP5 PUSH2 0x3907 JUMP JUMPDEST PUSH1 0x1 PUSH1 0x1 PUSH1 0xA0 SHL SUB DUP4 AND CALLER EQ DUP1 PUSH2 0x27C5 JUMPI POP PUSH2 0x27C5 DUP4 CALLER PUSH2 0x858 JUMP JUMPDEST PUSH2 0x27E1 JUMPI PUSH1 0x40 MLOAD PUSH3 0x461BCD PUSH1 0xE5 SHL DUP2 MSTORE PUSH1 0x4 ADD PUSH2 0x974 SWAP1 PUSH2 0x5E44 JUMP JUMPDEST PUSH2 0xDF1 DUP4 DUP4 DUP4 PUSH2 0x4507 JUMP JUMPDEST PUSH1 0x0 DUP1 DUP4 PUSH1 0xC TIMESTAMP DUP3 LT ISZERO PUSH2 0x2813 JUMPI PUSH1 0x40 MLOAD PUSH3 0x461BCD PUSH1 0xE5 SHL DUP2 MSTORE PUSH1 0x4 ADD PUSH2 0x974 SWAP2 SWAP1 PUSH2 0x5B64 JUMP JUMPDEST POP PUSH1 0x26 SLOAD CALLER SWAP1 PUSH1 0x0 SWAP1 PUSH1 0x1 PUSH1 0x1 PUSH1 0xA0 SHL SUB DUP13 DUP2 AND SWAP2 AND EQ DUP1 ISZERO SWAP1 PUSH2 0x2844 JUMPI POP PUSH1 0x26 SLOAD PUSH1 0x1 PUSH1 0x1 PUSH1 0xA0 SHL SUB DUP12 DUP2 AND SWAP2 AND EQ JUMPDEST ISZERO PUSH2 0x28BA JUMPI PUSH2 0x2853 DUP12 DUP11 PUSH2 0x3FEB JUMP JUMPDEST SWAP1 POP PUSH1 0x13 DUP9 DUP3 GT ISZERO PUSH2 0x2878 JUMPI PUSH1 0x40 MLOAD PUSH3 0x461BCD PUSH1 0xE5 SHL DUP2 MSTORE PUSH1 0x4 ADD PUSH2 0x974 SWAP2 SWAP1 PUSH2 0x5B64 JUMP JUMPDEST POP PUSH1 0xE PUSH1 0x1 DUP3 GT PUSH2 0x289C JUMPI PUSH1 0x40 MLOAD PUSH3 0x461BCD PUSH1 0xE5 SHL DUP2 MSTORE PUSH1 0x4 ADD PUSH2 0x974 SWAP2 SWAP1 PUSH2 0x5B64 JUMP JUMPDEST POP PUSH2 0x28A8 DUP12 DUP4 DUP4 PUSH2 0x2C8A JUMP JUMPDEST PUSH2 0x28B5 DUP12 PUSH1 0x0 DUP12 DUP10 PUSH2 0x3907 JUMP JUMPDEST PUSH2 0x2A34 JUMP JUMPDEST PUSH1 0x26 SLOAD PUSH1 0x1 PUSH1 0x1 PUSH1 0xA0 SHL SUB DUP13 DUP2 AND SWAP2 AND EQ DUP1 ISZERO PUSH2 0x28E5 JUMPI POP PUSH1 0x26 SLOAD PUSH1 0x1 PUSH1 0x1 PUSH1 0xA0 SHL SUB DUP12 DUP2 AND SWAP2 AND EQ ISZERO JUMPDEST ISZERO PUSH2 0x2956 JUMPI PUSH2 0x28F4 DUP11 DUP11 PUSH2 0x40DC JUMP JUMPDEST SWAP1 POP PUSH1 0x12 DUP9 DUP3 GT ISZERO PUSH2 0x2919 JUMPI PUSH1 0x40 MLOAD PUSH3 0x461BCD PUSH1 0xE5 SHL DUP2 MSTORE PUSH1 0x4 ADD PUSH2 0x974 SWAP2 SWAP1 PUSH2 0x5B64 JUMP JUMPDEST POP PUSH1 0x1D PUSH1 0x1 DUP3 GT PUSH2 0x293D JUMPI PUSH1 0x40 MLOAD PUSH3 0x461BCD PUSH1 0xE5 SHL DUP2 MSTORE PUSH1 0x4 ADD PUSH2 0x974 SWAP2 SWAP1 PUSH2 0x5B64 JUMP JUMPDEST POP PUSH2 0x2949 DUP12 DUP4 DUP4 PUSH2 0x2C8A JUMP JUMPDEST PUSH2 0x28B5 DUP11 DUP11 PUSH1 0x0 DUP10 PUSH2 0x3907 JUMP JUMPDEST PUSH1 0x26 SLOAD PUSH1 0x1 PUSH1 0x1 PUSH1 0xA0 SHL SUB DUP13 DUP2 AND SWAP2 AND EQ DUP1 ISZERO SWAP1 PUSH2 0x2982 JUMPI POP PUSH1 0x26 SLOAD PUSH1 0x1 PUSH1 0x1 PUSH1 0xA0 SHL SUB DUP12 DUP2 AND SWAP2 AND EQ ISZERO JUMPDEST ISZERO PUSH2 0x2036 JUMPI PUSH1 0x0 PUSH2 0x2993 DUP12 DUP12 PUSH2 0x40DC JUMP JUMPDEST SWAP1 POP PUSH1 0x1D PUSH1 0x1 DUP3 GT PUSH2 0x29B8 JUMPI PUSH1 0x40 MLOAD PUSH3 0x461BCD PUSH1 0xE5 SHL DUP2 MSTORE PUSH1 0x4 ADD PUSH2 0x974 SWAP2 SWAP1 PUSH2 0x5B64 JUMP JUMPDEST POP PUSH2 0x29C3 DUP13 DUP3 PUSH2 0x3FEB JUMP JUMPDEST SWAP2 POP PUSH1 0x13 DUP10 DUP4 GT ISZERO PUSH2 0x29E8 JUMPI PUSH1 0x40 MLOAD PUSH3 0x461BCD PUSH1 0xE5 SHL DUP2 MSTORE PUSH1 0x4 ADD PUSH2 0x974 SWAP2 SWAP1 PUSH2 0x5B64 JUMP JUMPDEST POP PUSH1 0xE PUSH1 0x1 DUP4 GT PUSH2 0x2A0C JUMPI PUSH1 0x40 MLOAD PUSH3 0x461BCD PUSH1 0xE5 SHL DUP2 MSTORE PUSH1 0x4 ADD PUSH2 0x974 SWAP2 SWAP1 PUSH2 0x5B64 JUMP JUMPDEST POP PUSH2 0x2A18 DUP13 DUP5 DUP5 PUSH2 0x2C8A JUMP JUMPDEST PUSH2 0x2A25 DUP13 PUSH1 0x0 DUP4 ADDRESS PUSH2 0x3907 JUMP JUMPDEST PUSH2 0x2A32 DUP12 DUP12 PUSH1 0x0 DUP11 PUSH2 0x3907 JUMP JUMPDEST POP JUMPDEST SWAP11 SWAP8 SWAP10 POP SWAP7 SWAP8 POP POP POP POP POP POP POP POP JUMP JUMPDEST PUSH2 0x2A4E DUP3 DUP3 PUSH2 0x191F JUMP JUMPDEST PUSH2 0x102D JUMPI PUSH1 0x0 DUP3 DUP2 MSTORE PUSH1 0x4 PUSH1 0x20 SWAP1 DUP2 MSTORE PUSH1 0x40 DUP1 DUP4 KECCAK256 PUSH1 0x1 PUSH1 0x1 PUSH1 0xA0 SHL SUB DUP6 AND DUP5 MSTORE SWAP1 SWAP2 MSTORE SWAP1 KECCAK256 DUP1 SLOAD PUSH1 0xFF NOT AND PUSH1 0x1 OR SWAP1 SSTORE PUSH2 0x2A86 CALLER SWAP1 JUMP JUMPDEST PUSH1 0x1 PUSH1 0x1 PUSH1 0xA0 SHL SUB AND DUP2 PUSH1 0x1 PUSH1 0x1 PUSH1 0xA0 SHL SUB AND DUP4 PUSH32 0x2F8788117E7EFF1D82E926EC794901D17C78024A50270940304540A733656F0D PUSH1 0x40 MLOAD PUSH1 0x40 MLOAD DUP1 SWAP2 SUB SWAP1 LOG4 POP POP JUMP JUMPDEST PUSH1 0x0 PUSH2 0x172A DUP4 PUSH1 0x1 PUSH1 0x1 PUSH1 0xA0 SHL SUB DUP5 AND PUSH2 0x4680 JUMP JUMPDEST PUSH1 0x0 PUSH1 0x1 PUSH1 0x1 PUSH1 0xE0 SHL SUB NOT DUP3 AND PUSH4 0x5A05180F PUSH1 0xE0 SHL EQ DUP1 PUSH2 0x9A0 JUMPI POP PUSH4 0x1FFC9A7 PUSH1 0xE0 SHL PUSH1 0x1 PUSH1 0x1 PUSH1 0xE0 SHL SUB NOT DUP4 AND EQ PUSH2 0x9A0 JUMP JUMPDEST PUSH1 0x29 SLOAD PUSH1 0x0 SWAP1 PUSH1 0x1 PUSH1 0x1 PUSH1 0xA0 SHL SUB DUP4 DUP2 AND SWAP2 AND EQ ISZERO PUSH2 0x2B34 JUMPI POP SELFBALANCE SWAP2 SWAP1 POP JUMP JUMPDEST PUSH1 0x40 MLOAD PUSH4 0x70A08231 PUSH1 0xE0 SHL DUP2 MSTORE ADDRESS PUSH1 0x4 DUP3 ADD MSTORE PUSH1 0x1 PUSH1 0x1 PUSH1 0xA0 SHL SUB DUP4 AND SWAP1 PUSH4 0x70A08231 SWAP1 PUSH1 0x24 ADD PUSH1 0x20 PUSH1 0x40 MLOAD DUP1 DUP4 SUB DUP2 DUP7 GAS STATICCALL ISZERO DUP1 ISZERO PUSH2 0x2B78 JUMPI RETURNDATASIZE PUSH1 0x0 DUP1 RETURNDATACOPY RETURNDATASIZE PUSH1 0x0 REVERT JUMPDEST POP POP POP POP PUSH1 0x40 MLOAD RETURNDATASIZE PUSH1 0x1F NOT PUSH1 0x1F DUP3 ADD AND DUP3 ADD DUP1 PUSH1 0x40 MSTORE POP DUP2 ADD SWAP1 PUSH2 0x9A0 SWAP2 SWAP1 PUSH2 0x5E8D JUMP JUMPDEST PUSH1 0x1 PUSH1 0x1 PUSH1 0xA0 SHL SUB DUP4 AND ADDRESS EQ PUSH2 0xBB3 JUMPI PUSH1 0x29 SLOAD PUSH1 0x1 PUSH1 0x1 PUSH1 0xA0 SHL SUB DUP6 DUP2 AND SWAP2 AND EQ ISZERO PUSH2 0x2BD1 JUMPI PUSH2 0x2BCC DUP4 DUP4 PUSH2 0x46CF JUMP JUMPDEST PUSH2 0xBB3 JUMP JUMPDEST PUSH2 0xBB3 DUP5 DUP5 DUP5 PUSH2 0x4761 JUMP JUMPDEST PUSH2 0x2BE6 DUP3 DUP3 PUSH2 0x191F JUMP JUMPDEST PUSH2 0x102D JUMPI PUSH2 0x2BFE DUP2 PUSH1 0x1 PUSH1 0x1 PUSH1 0xA0 SHL SUB AND PUSH1 0x14 PUSH2 0x4851 JUMP JUMPDEST PUSH2 0x2C09 DUP4 PUSH1 0x20 PUSH2 0x4851 JUMP JUMPDEST PUSH1 0x40 MLOAD PUSH1 0x20 ADD PUSH2 0x2C1A SWAP3 SWAP2 SWAP1 PUSH2 0x5EA6 JUMP JUMPDEST PUSH1 0x40 DUP1 MLOAD PUSH1 0x1F NOT DUP2 DUP5 SUB ADD DUP2 MSTORE SWAP1 DUP3 SWAP1 MSTORE PUSH3 0x461BCD PUSH1 0xE5 SHL DUP3 MSTORE PUSH2 0x974 SWAP2 PUSH1 0x4 ADD PUSH2 0x537B JUMP JUMPDEST PUSH2 0x102D DUP3 DUP3 JUMPDEST PUSH2 0x2C50 DUP3 DUP3 PUSH2 0x2A44 JUMP JUMPDEST PUSH1 0x0 DUP3 DUP2 MSTORE PUSH1 0x5 PUSH1 0x20 MSTORE PUSH1 0x40 SWAP1 KECCAK256 PUSH2 0xDF1 SWAP1 DUP3 PUSH2 0x2ACA JUMP JUMPDEST PUSH2 0x2C72 DUP3 DUP3 PUSH2 0x49EC JUMP JUMPDEST PUSH1 0x0 DUP3 DUP2 MSTORE PUSH1 0x5 PUSH1 0x20 MSTORE PUSH1 0x40 SWAP1 KECCAK256 PUSH2 0xDF1 SWAP1 DUP3 PUSH2 0x4A53 JUMP JUMPDEST PUSH1 0x29 SLOAD PUSH1 0x1 PUSH1 0x1 PUSH1 0xA0 SHL SUB DUP5 DUP2 AND SWAP2 AND EQ PUSH2 0x2CDD JUMPI PUSH1 0xF CALLVALUE ISZERO PUSH2 0x2CC0 JUMPI PUSH1 0x40 MLOAD PUSH3 0x461BCD PUSH1 0xE5 SHL DUP2 MSTORE PUSH1 0x4 ADD PUSH2 0x974 SWAP2 SWAP1 PUSH2 0x5B64 JUMP JUMPDEST POP PUSH1 0x1 PUSH1 0x1 PUSH1 0xA0 SHL SUB DUP3 AND ADDRESS EQ PUSH2 0xDF1 JUMPI PUSH2 0xDF1 DUP4 DUP4 ADDRESS DUP5 PUSH2 0x4A68 JUMP JUMPDEST PUSH1 0x29 SLOAD PUSH1 0x1 PUSH1 0x1 PUSH1 0xA0 SHL SUB DUP5 DUP2 AND SWAP2 AND EQ ISZERO PUSH2 0xDF1 JUMPI PUSH1 0x1C CALLVALUE DUP3 GT ISZERO PUSH2 0x2D16 JUMPI PUSH1 0x40 MLOAD PUSH3 0x461BCD PUSH1 0xE5 SHL DUP2 MSTORE PUSH1 0x4 ADD PUSH2 0x974 SWAP2 SWAP1 PUSH2 0x5B64 JUMP JUMPDEST POP DUP1 CALLVALUE GT ISZERO PUSH2 0xDF1 JUMPI PUSH1 0x29 SLOAD PUSH2 0xDF1 SWAP1 PUSH1 0x1 PUSH1 0x1 PUSH1 0xA0 SHL SUB AND CALLER PUSH2 0x2D3A DUP5 CALLVALUE PUSH2 0x5C15 JUMP JUMPDEST PUSH1 0x0 PUSH2 0x2B9C JUMP JUMPDEST PUSH1 0x0 DUP1 PUSH1 0x2 PUSH2 0x2D51 DUP5 PUSH1 0x1 PUSH2 0x5D46 JUMP JUMPDEST PUSH2 0x2D5B SWAP2 SWAP1 PUSH2 0x5D93 JUMP JUMPDEST SWAP1 POP DUP3 SWAP2 POP JUMPDEST DUP2 DUP2 LT ISZERO PUSH2 0x2D94 JUMPI SWAP1 POP DUP1 PUSH1 0x2 DUP2 PUSH2 0x2D79 DUP2 DUP7 PUSH2 0x5D93 JUMP JUMPDEST PUSH2 0x2D83 SWAP2 SWAP1 PUSH2 0x5D46 JUMP JUMPDEST PUSH2 0x2D8D SWAP2 SWAP1 PUSH2 0x5D93 JUMP JUMPDEST SWAP1 POP PUSH2 0x2D61 JUMP JUMPDEST POP SWAP2 SWAP1 POP JUMP JUMPDEST PUSH1 0x0 DUP4 DUP4 GT DUP1 ISZERO PUSH2 0x2DAB JUMPI POP PUSH1 0x0 DUP5 GT JUMPDEST DUP1 ISZERO PUSH2 0x2DB8 JUMPI POP PUSH1 0x2B SLOAD ISZERO ISZERO JUMPDEST ISZERO PUSH2 0x172A JUMPI PUSH2 0x2DC8 PUSH1 0x64 DUP6 PUSH2 0x5D5E JUMP JUMPDEST PUSH1 0x2B SLOAD PUSH2 0x2DD5 SWAP1 DUP6 PUSH2 0x5D5E JUMP JUMPDEST PUSH2 0x2DDF SWAP2 SWAP1 PUSH2 0x5D46 JUMP JUMPDEST PUSH2 0x2DE9 DUP6 DUP6 PUSH2 0x5C15 JUMP JUMPDEST PUSH2 0x2DF4 PUSH1 0x64 DUP6 PUSH2 0x5D5E JUMP JUMPDEST PUSH2 0x2DFE SWAP2 SWAP1 PUSH2 0x5D5E JUMP JUMPDEST PUSH2 0x2E08 SWAP2 SWAP1 PUSH2 0x5D93 JUMP JUMPDEST SWAP5 SWAP4 POP POP POP POP JUMP JUMPDEST PUSH1 0x1 PUSH1 0x1 PUSH1 0xA0 SHL SUB DUP5 AND PUSH2 0x2E70 JUMPI PUSH1 0x40 MLOAD PUSH3 0x461BCD PUSH1 0xE5 SHL DUP2 MSTORE PUSH1 0x20 PUSH1 0x4 DUP3 ADD MSTORE PUSH1 0x21 PUSH1 0x24 DUP3 ADD MSTORE PUSH32 0x455243313135353A206D696E7420746F20746865207A65726F20616464726573 PUSH1 0x44 DUP3 ADD MSTORE PUSH1 0x73 PUSH1 0xF8 SHL PUSH1 0x64 DUP3 ADD MSTORE PUSH1 0x84 ADD PUSH2 0x974 JUMP JUMPDEST CALLER PUSH2 0x2E90 DUP2 PUSH1 0x0 DUP8 PUSH2 0x2E81 DUP9 PUSH2 0x4B58 JUMP JUMPDEST PUSH2 0x2E8A DUP9 PUSH2 0x4B58 JUMP JUMPDEST DUP8 PUSH2 0x4BA3 JUMP JUMPDEST PUSH1 0x0 DUP5 DUP2 MSTORE PUSH1 0x20 DUP2 DUP2 MSTORE PUSH1 0x40 DUP1 DUP4 KECCAK256 PUSH1 0x1 PUSH1 0x1 PUSH1 0xA0 SHL SUB DUP10 AND DUP5 MSTORE SWAP1 SWAP2 MSTORE DUP2 KECCAK256 DUP1 SLOAD DUP6 SWAP3 SWAP1 PUSH2 0x2EC0 SWAP1 DUP5 SWAP1 PUSH2 0x5D46 JUMP JUMPDEST SWAP1 SWAP2 SSTORE POP POP PUSH1 0x40 DUP1 MLOAD DUP6 DUP2 MSTORE PUSH1 0x20 DUP2 ADD DUP6 SWAP1 MSTORE PUSH1 0x1 PUSH1 0x1 PUSH1 0xA0 SHL SUB DUP1 DUP9 AND SWAP3 PUSH1 0x0 SWAP3 SWAP2 DUP6 AND SWAP2 PUSH32 0xC3D58168C5AE7397731D063D5BBF3D657854427343F4C083240F7AACAA2D0F62 SWAP2 ADD PUSH1 0x40 MLOAD DUP1 SWAP2 SUB SWAP1 LOG4 PUSH2 0x436 DUP2 PUSH1 0x0 DUP8 DUP8 DUP8 DUP8 PUSH2 0x4CAF JUMP JUMPDEST PUSH1 0x1 PUSH1 0x1 PUSH1 0xA0 SHL SUB DUP3 AND PUSH1 0x0 SWAP1 DUP2 MSTORE PUSH1 0x23 PUSH1 0x20 MSTORE PUSH1 0x40 DUP2 KECCAK256 SLOAD DUP4 SWAP1 ISZERO DUP1 ISZERO SWAP1 PUSH2 0x2F57 JUMPI POP PUSH1 0x26 SLOAD PUSH1 0x1 PUSH1 0x1 PUSH1 0xA0 SHL SUB DUP3 DUP2 AND SWAP2 AND EQ ISZERO JUMPDEST PUSH1 0xB SWAP1 PUSH2 0x2F77 JUMPI PUSH1 0x40 MLOAD PUSH3 0x461BCD PUSH1 0xE5 SHL DUP2 MSTORE PUSH1 0x4 ADD PUSH2 0x974 SWAP2 SWAP1 PUSH2 0x5B64 JUMP JUMPDEST POP PUSH1 0x1 PUSH1 0x1 PUSH1 0xA0 SHL SUB DUP5 AND PUSH1 0x0 SWAP1 DUP2 MSTORE PUSH1 0x23 PUSH1 0x20 MSTORE PUSH1 0x40 SWAP1 KECCAK256 SLOAD PUSH1 0x22 DUP1 SLOAD PUSH2 0x3011 SWAP2 DUP7 SWAP2 DUP5 SWAP1 DUP2 LT PUSH2 0x2FAB JUMPI PUSH2 0x2FAB PUSH2 0x5BE9 JUMP JUMPDEST PUSH1 0x0 SWAP2 DUP3 MSTORE PUSH1 0x20 SWAP1 SWAP2 KECCAK256 PUSH1 0x2 PUSH1 0x4 SWAP1 SWAP3 MUL ADD ADD SLOAD PUSH1 0x22 DUP1 SLOAD PUSH1 0x1 PUSH1 0x1 PUSH1 0x80 SHL SUB SWAP1 SWAP3 AND SWAP2 DUP6 SWAP1 DUP2 LT PUSH2 0x2FDF JUMPI PUSH2 0x2FDF PUSH2 0x5BE9 JUMP JUMPDEST PUSH1 0x0 SWAP2 DUP3 MSTORE PUSH1 0x20 SWAP1 SWAP2 KECCAK256 PUSH1 0x4 SWAP1 SWAP2 MUL ADD PUSH1 0x2 ADD SLOAD PUSH1 0x1 PUSH1 0x80 SHL SWAP1 DIV PUSH1 0x1 PUSH1 0x1 PUSH1 0x80 SHL SUB AND PUSH2 0x300C DUP6 PUSH2 0x3614 JUMP JUMPDEST PUSH2 0x4E4C JUMP JUMPDEST SWAP6 SWAP5 POP POP POP POP POP JUMP JUMPDEST PUSH1 0x1 PUSH1 0x1 PUSH1 0xA0 SHL SUB DUP3 AND PUSH1 0x0 SWAP1 DUP2 MSTORE PUSH1 0x23 PUSH1 0x20 MSTORE PUSH1 0x40 DUP2 KECCAK256 SLOAD DUP4 SWAP1 ISZERO DUP1 ISZERO SWAP1 PUSH2 0x3051 JUMPI POP PUSH1 0x26 SLOAD PUSH1 0x1 PUSH1 0x1 PUSH1 0xA0 SHL SUB DUP3 DUP2 AND SWAP2 AND EQ ISZERO JUMPDEST PUSH1 0xB SWAP1 PUSH2 0x3071 JUMPI PUSH1 0x40 MLOAD PUSH3 0x461BCD PUSH1 0xE5 SHL DUP2 MSTORE PUSH1 0x4 ADD PUSH2 0x974 SWAP2 SWAP1 PUSH2 0x5B64 JUMP JUMPDEST POP PUSH1 0x1 PUSH1 0x1 PUSH1 0xA0 SHL SUB DUP5 AND PUSH1 0x0 SWAP1 DUP2 MSTORE PUSH1 0x23 PUSH1 0x20 MSTORE PUSH1 0x40 SWAP1 KECCAK256 SLOAD PUSH1 0x22 DUP1 SLOAD PUSH2 0x3011 SWAP2 DUP7 SWAP2 DUP5 SWAP1 DUP2 LT PUSH2 0x30A5 JUMPI PUSH2 0x30A5 PUSH2 0x5BE9 JUMP JUMPDEST SWAP1 PUSH1 0x0 MSTORE PUSH1 0x20 PUSH1 0x0 KECCAK256 SWAP1 PUSH1 0x4 MUL ADD PUSH1 0x2 ADD PUSH1 0x10 SWAP1 SLOAD SWAP1 PUSH2 0x100 EXP SWAP1 DIV PUSH1 0x1 PUSH1 0x1 PUSH1 0x80 SHL SUB AND PUSH1 0x1 PUSH1 0x1 PUSH1 0x80 SHL SUB AND PUSH1 0x22 DUP5 DUP2 SLOAD DUP2 LT PUSH2 0x30E6 JUMPI PUSH2 0x30E6 PUSH2 0x5BE9 JUMP JUMPDEST PUSH1 0x0 SWAP2 DUP3 MSTORE PUSH1 0x20 SWAP1 SWAP2 KECCAK256 PUSH1 0x2 PUSH1 0x4 SWAP1 SWAP3 MUL ADD ADD SLOAD PUSH1 0x1 PUSH1 0x1 PUSH1 0x80 SHL SUB AND PUSH2 0x300C DUP6 PUSH2 0x3614 JUMP JUMPDEST PUSH1 0x1 PUSH1 0x1 PUSH1 0xA0 SHL SUB DUP4 AND PUSH1 0x0 SWAP1 DUP2 MSTORE PUSH1 0x23 PUSH1 0x20 MSTORE PUSH1 0x40 DUP2 KECCAK256 SLOAD DUP2 PUSH2 0x312F DUP7 PUSH2 0x2B14 JUMP JUMPDEST SWAP1 POP PUSH1 0x0 PUSH1 0x22 DUP4 DUP2 SLOAD DUP2 LT PUSH2 0x3146 JUMPI PUSH2 0x3146 PUSH2 0x5BE9 JUMP JUMPDEST PUSH1 0x0 SWAP2 DUP3 MSTORE PUSH1 0x20 SWAP1 SWAP2 KECCAK256 PUSH1 0x2 PUSH1 0x4 SWAP1 SWAP3 MUL ADD ADD SLOAD PUSH2 0x316D SWAP1 PUSH1 0x1 PUSH1 0x1 PUSH1 0x80 SHL SUB AND DUP4 PUSH2 0x5C15 JUMP JUMPDEST PUSH1 0x24 SLOAD PUSH1 0x26 SLOAD SWAP2 SWAP3 POP PUSH1 0x0 SWAP2 PUSH2 0x318B SWAP1 PUSH1 0x1 PUSH1 0x1 PUSH1 0xA0 SHL SUB AND PUSH2 0x2B14 JUMP JUMPDEST PUSH2 0x3195 SWAP2 SWAP1 PUSH2 0x5C15 JUMP JUMPDEST PUSH1 0x0 DUP6 DUP2 MSTORE PUSH1 0x3 PUSH1 0x20 MSTORE PUSH1 0x40 DUP2 KECCAK256 SLOAD PUSH1 0x22 DUP1 SLOAD SWAP4 SWAP5 POP SWAP1 SWAP3 DUP4 SWAP2 DUP12 SWAP2 DUP10 SWAP1 DUP2 LT PUSH2 0x31C1 JUMPI PUSH2 0x31C1 PUSH2 0x5BE9 JUMP JUMPDEST PUSH1 0x0 SWAP2 DUP3 MSTORE PUSH1 0x20 SWAP1 SWAP2 KECCAK256 PUSH1 0x2 PUSH1 0x4 SWAP1 SWAP3 MUL ADD ADD SLOAD PUSH2 0x31E8 SWAP2 SWAP1 PUSH1 0x1 PUSH1 0x1 PUSH1 0x80 SHL SUB AND PUSH2 0x5D5E JUMP JUMPDEST PUSH2 0x31F2 SWAP2 SWAP1 PUSH2 0x5D93 JUMP JUMPDEST SWAP1 POP PUSH1 0x0 DUP3 DUP11 PUSH1 0x22 DUP10 DUP2 SLOAD DUP2 LT PUSH2 0x320B JUMPI PUSH2 0x320B PUSH2 0x5BE9 JUMP JUMPDEST PUSH1 0x0 SWAP2 DUP3 MSTORE PUSH1 0x20 SWAP1 SWAP2 KECCAK256 PUSH1 0x4 SWAP1 SWAP2 MUL ADD PUSH1 0x2 ADD SLOAD PUSH2 0x3239 SWAP2 SWAP1 PUSH1 0x1 PUSH1 0x80 SHL SWAP1 DIV PUSH1 0x1 PUSH1 0x1 PUSH1 0x80 SHL SUB AND PUSH2 0x5D5E JUMP JUMPDEST PUSH2 0x3243 SWAP2 SWAP1 PUSH2 0x5D93 JUMP JUMPDEST SWAP1 POP PUSH1 0x0 PUSH2 0x329E PUSH1 0x22 DUP10 DUP2 SLOAD DUP2 LT PUSH2 0x325D JUMPI PUSH2 0x325D PUSH2 0x5BE9 JUMP JUMPDEST SWAP1 PUSH1 0x0 MSTORE PUSH1 0x20 PUSH1 0x0 KECCAK256 SWAP1 PUSH1 0x4 MUL ADD PUSH1 0x2 ADD PUSH1 0x10 SWAP1 SLOAD SWAP1 PUSH2 0x100 EXP SWAP1 DIV PUSH1 0x1 PUSH1 0x1 PUSH1 0x80 SHL SUB AND PUSH1 0x1 PUSH1 0x1 PUSH1 0x80 SHL SUB AND PUSH1 0x22 DUP11 DUP2 SLOAD DUP2 LT PUSH2 0x11F4 JUMPI PUSH2 0x11F4 PUSH2 0x5BE9 JUMP JUMPDEST SWAP1 POP PUSH1 0x0 PUSH2 0x32DC PUSH1 0x22 DUP11 DUP2 SLOAD DUP2 LT PUSH2 0x32B8 JUMPI PUSH2 0x32B8 PUSH2 0x5BE9 JUMP JUMPDEST PUSH1 0x0 SWAP2 DUP3 MSTORE PUSH1 0x20 SWAP1 SWAP2 KECCAK256 PUSH1 0x3 PUSH1 0x4 SWAP1 SWAP3 MUL ADD ADD SLOAD PUSH1 0x1 PUSH1 0x1 PUSH1 0x80 SHL SUB AND DUP4 DUP8 PUSH2 0x2D9A JUMP JUMPDEST SWAP1 POP DUP1 ISZERO PUSH2 0x330D JUMPI PUSH1 0x2A SLOAD PUSH1 0x40 DUP1 MLOAD PUSH1 0x20 DUP2 ADD SWAP1 SWAP2 MSTORE PUSH1 0x0 DUP2 MSTORE PUSH2 0x330D SWAP2 PUSH1 0x1 PUSH1 0x1 PUSH1 0xA0 SHL SUB AND SWAP1 DUP12 SWAP1 DUP5 SWAP1 PUSH2 0x2E10 JUMP JUMPDEST DUP3 DUP7 PUSH1 0x24 SLOAD PUSH2 0x331C SWAP2 SWAP1 PUSH2 0x5D46 JUMP JUMPDEST PUSH2 0x3326 SWAP2 SWAP1 PUSH2 0x5C15 JUMP JUMPDEST PUSH1 0x24 DUP2 SWAP1 SSTORE POP DUP4 DUP8 PUSH1 0x22 DUP12 DUP2 SLOAD DUP2 LT PUSH2 0x3341 JUMPI PUSH2 0x3341 PUSH2 0x5BE9 JUMP JUMPDEST PUSH1 0x0 SWAP2 DUP3 MSTORE PUSH1 0x20 SWAP1 SWAP2 KECCAK256 PUSH1 0x2 PUSH1 0x4 SWAP1 SWAP3 MUL ADD ADD SLOAD PUSH2 0x3368 SWAP2 SWAP1 PUSH1 0x1 PUSH1 0x1 PUSH1 0x80 SHL SUB AND PUSH2 0x5DA7 JUMP JUMPDEST PUSH2 0x3372 SWAP2 SWAP1 PUSH2 0x5DD2 JUMP JUMPDEST PUSH1 0x22 DUP11 DUP2 SLOAD DUP2 LT PUSH2 0x3385 JUMPI PUSH2 0x3385 PUSH2 0x5BE9 JUMP JUMPDEST SWAP1 PUSH1 0x0 MSTORE PUSH1 0x20 PUSH1 0x0 KECCAK256 SWAP1 PUSH1 0x4 MUL ADD PUSH1 0x2 ADD PUSH1 0x0 PUSH2 0x100 EXP DUP2 SLOAD DUP2 PUSH1 0x1 PUSH1 0x1 PUSH1 0x80 SHL SUB MUL NOT AND SWAP1 DUP4 PUSH1 0x1 PUSH1 0x1 PUSH1 0x80 SHL SUB AND MUL OR SWAP1 SSTORE POP DUP3 DUP7 PUSH1 0x22 DUP12 DUP2 SLOAD DUP2 LT PUSH2 0x33CF JUMPI PUSH2 0x33CF PUSH2 0x5BE9 JUMP JUMPDEST SWAP1 PUSH1 0x0 MSTORE PUSH1 0x20 PUSH1 0x0 KECCAK256 SWAP1 PUSH1 0x4 MUL ADD PUSH1 0x2 ADD PUSH1 0x10 SWAP1 SLOAD SWAP1 PUSH2 0x100 EXP SWAP1 DIV PUSH1 0x1 PUSH1 0x1 PUSH1 0x80 SHL SUB AND PUSH2 0x33FE SWAP2 SWAP1 PUSH2 0x5DA7 JUMP JUMPDEST PUSH2 0x3408 SWAP2 SWAP1 PUSH2 0x5DD2 JUMP JUMPDEST PUSH1 0x22 DUP11 DUP2 SLOAD DUP2 LT PUSH2 0x341B JUMPI PUSH2 0x341B PUSH2 0x5BE9 JUMP JUMPDEST SWAP1 PUSH1 0x0 MSTORE PUSH1 0x20 PUSH1 0x0 KECCAK256 SWAP1 PUSH1 0x4 MUL ADD PUSH1 0x2 ADD PUSH1 0x10 PUSH2 0x100 EXP DUP2 SLOAD DUP2 PUSH1 0x1 PUSH1 0x1 PUSH1 0x80 SHL SUB MUL NOT AND SWAP1 DUP4 PUSH1 0x1 PUSH1 0x1 PUSH1 0x80 SHL SUB AND MUL OR SWAP1 SSTORE POP PUSH2 0x34A7 PUSH1 0x22 DUP11 DUP2 SLOAD DUP2 LT PUSH2 0x3466 JUMPI PUSH2 0x3466 PUSH2 0x5BE9 JUMP JUMPDEST SWAP1 PUSH1 0x0 MSTORE PUSH1 0x20 PUSH1 0x0 KECCAK256 SWAP1 PUSH1 0x4 MUL ADD PUSH1 0x2 ADD PUSH1 0x10 SWAP1 SLOAD SWAP1 PUSH2 0x100 EXP SWAP1 DIV PUSH1 0x1 PUSH1 0x1 PUSH1 0x80 SHL SUB AND PUSH1 0x1 PUSH1 0x1 PUSH1 0x80 SHL SUB AND PUSH1 0x22 DUP12 DUP2 SLOAD DUP2 LT PUSH2 0x11F4 JUMPI PUSH2 0x11F4 PUSH2 0x5BE9 JUMP JUMPDEST PUSH1 0x22 DUP11 DUP2 SLOAD DUP2 LT PUSH2 0x34BA JUMPI PUSH2 0x34BA PUSH2 0x5BE9 JUMP JUMPDEST SWAP1 PUSH1 0x0 MSTORE PUSH1 0x20 PUSH1 0x0 KECCAK256 SWAP1 PUSH1 0x4 MUL ADD PUSH1 0x3 ADD PUSH1 0x0 PUSH2 0x100 EXP DUP2 SLOAD DUP2 PUSH1 0x1 PUSH1 0x1 PUSH1 0x80 SHL SUB MUL NOT AND SWAP1 DUP4 PUSH1 0x1 PUSH1 0x1 PUSH1 0x80 SHL SUB AND MUL OR SWAP1 SSTORE POP PUSH2 0x34FA CALLER DUP11 DUP15 PUSH2 0x27A9 JUMP JUMPDEST PUSH1 0x26 SLOAD PUSH1 0x40 MLOAD PUSH4 0x18A8AD87 PUSH1 0xE0 SHL DUP2 MSTORE ADDRESS PUSH1 0x4 DUP3 ADD MSTORE PUSH1 0x24 DUP2 ADD DUP6 SWAP1 MSTORE PUSH1 0x1 PUSH1 0x1 PUSH1 0xA0 SHL SUB SWAP1 SWAP2 AND SWAP1 PUSH4 0x18A8AD87 SWAP1 PUSH1 0x44 ADD PUSH1 0x0 PUSH1 0x40 MLOAD DUP1 DUP4 SUB DUP2 PUSH1 0x0 DUP8 DUP1 EXTCODESIZE ISZERO DUP1 ISZERO PUSH2 0x3546 JUMPI PUSH1 0x0 DUP1 REVERT JUMPDEST POP GAS CALL ISZERO DUP1 ISZERO PUSH2 0x355A JUMPI RETURNDATASIZE PUSH1 0x0 DUP1 RETURNDATACOPY RETURNDATASIZE PUSH1 0x0 REVERT JUMPDEST POP POP POP POP POP POP PUSH2 0x356D DUP12 DUP11 DUP5 PUSH1 0x1 PUSH2 0x2B9C JUMP JUMPDEST PUSH1 0x0 PUSH2 0x3578 DUP13 PUSH2 0x2B14 JUMP JUMPDEST SWAP1 POP DUP7 PUSH2 0x3585 DUP5 DUP4 PUSH2 0x5D46 JUMP JUMPDEST PUSH1 0xD SWAP2 EQ PUSH2 0x35A6 JUMPI PUSH1 0x40 MLOAD PUSH3 0x461BCD PUSH1 0xE5 SHL DUP2 MSTORE PUSH1 0x4 ADD PUSH2 0x974 SWAP2 SWAP1 PUSH2 0x5B64 JUMP JUMPDEST POP PUSH1 0x40 DUP1 MLOAD PUSH1 0x1 PUSH1 0x1 PUSH1 0xA0 SHL SUB DUP15 AND DUP2 MSTORE PUSH1 0x20 DUP2 ADD DUP6 SWAP1 MSTORE SWAP1 DUP2 ADD DUP4 SWAP1 MSTORE PUSH1 0x60 DUP2 ADD DUP13 SWAP1 MSTORE PUSH32 0x1DC8BB69DF2B8E91FBDCBFCF93D951B3F0000F085A95FE3F7946D6161439245D SWAP1 PUSH1 0x80 ADD PUSH1 0x40 MLOAD DUP1 SWAP2 SUB SWAP1 LOG1 POP SWAP1 SWAP11 SWAP10 POP POP POP POP POP POP POP POP POP POP JUMP JUMPDEST PUSH1 0x0 PUSH2 0x172A DUP4 DUP4 PUSH2 0x4EBC JUMP JUMPDEST PUSH1 0x0 DUP1 PUSH2 0x361F PUSH2 0x4EE6 JUMP JUMPDEST SWAP1 POP PUSH1 0x0 PUSH1 0x8 PUSH2 0x3630 DUP4 PUSH1 0x1 PUSH2 0x5D46 JUMP JUMPDEST PUSH2 0x363A SWAP2 SWAP1 PUSH2 0x5F1B JUMP JUMPDEST SWAP1 POP PUSH1 0x0 DUP1 JUMPDEST PUSH1 0x8 DUP2 LT ISZERO PUSH2 0x36D7 JUMPI DUP4 DUP2 EQ DUP1 PUSH2 0x3656 JUMPI POP DUP3 DUP2 EQ JUMPDEST ISZERO PUSH2 0x3660 JUMPI PUSH2 0x36C5 JUMP JUMPDEST PUSH1 0x22 DUP7 DUP2 SLOAD DUP2 LT PUSH2 0x3673 JUMPI PUSH2 0x3673 PUSH2 0x5BE9 JUMP JUMPDEST SWAP1 PUSH1 0x0 MSTORE PUSH1 0x20 PUSH1 0x0 KECCAK256 SWAP1 PUSH1 0x4 MUL ADD PUSH1 0x1 ADD DUP2 PUSH1 0x8 DUP2 LT PUSH2 0x3695 JUMPI PUSH2 0x3695 PUSH2 0x5BE9 JUMP JUMPDEST PUSH1 0x8 SWAP2 DUP3 DUP3 DIV ADD SWAP2 SWAP1 MOD PUSH1 0x4 MUL SWAP1 SLOAD SWAP1 PUSH2 0x100 EXP SWAP1 DIV PUSH4 0xFFFFFFFF AND PUSH4 0xFFFFFFFF AND DUP3 PUSH2 0x36C2 SWAP2 SWAP1 PUSH2 0x5D46 JUMP JUMPDEST SWAP2 POP JUMPDEST DUP1 PUSH2 0x36CF DUP2 PUSH2 0x5C2C JUMP JUMPDEST SWAP2 POP POP PUSH2 0x3640 JUMP JUMPDEST POP PUSH2 0x36EA DUP2 PUSH8 0xDE0B6B3A7640000 PUSH2 0x5D5E JUMP JUMPDEST SWAP1 POP PUSH1 0x0 PUSH2 0x2710 PUSH1 0x2A PUSH1 0x4 ADD SLOAD PUSH1 0x22 DUP9 DUP2 SLOAD DUP2 LT PUSH2 0x370A JUMPI PUSH2 0x370A PUSH2 0x5BE9 JUMP JUMPDEST PUSH1 0x0 SWAP2 DUP3 MSTORE PUSH1 0x20 SWAP1 SWAP2 KECCAK256 PUSH1 0x4 SWAP1 SWAP2 MUL ADD PUSH1 0x2 ADD SLOAD PUSH2 0x3738 SWAP2 SWAP1 PUSH1 0x1 PUSH1 0x80 SHL SWAP1 DIV PUSH1 0x1 PUSH1 0x1 PUSH1 0x80 SHL SUB AND PUSH2 0x5D5E JUMP JUMPDEST PUSH2 0x3742 SWAP2 SWAP1 PUSH2 0x5D93 JUMP JUMPDEST SWAP1 POP PUSH1 0x0 PUSH2 0x2710 PUSH1 0x2A PUSH1 0x5 ADD SLOAD PUSH1 0x22 DUP10 DUP2 SLOAD DUP2 LT PUSH2 0x3762 JUMPI PUSH2 0x3762 PUSH2 0x5BE9 JUMP JUMPDEST PUSH1 0x0 SWAP2 DUP3 MSTORE PUSH1 0x20 SWAP1 SWAP2 KECCAK256 PUSH1 0x4 SWAP1 SWAP2 MUL ADD PUSH1 0x2 ADD SLOAD PUSH2 0x3790 SWAP2 SWAP1 PUSH1 0x1 PUSH1 0x80 SHL SWAP1 DIV PUSH1 0x1 PUSH1 0x1 PUSH1 0x80 SHL SUB AND PUSH2 0x5D5E JUMP JUMPDEST PUSH2 0x379A SWAP2 SWAP1 PUSH2 0x5D93 JUMP JUMPDEST SWAP1 POP DUP2 DUP4 GT PUSH2 0x37AD JUMPI PUSH1 0x2D SLOAD SWAP6 POP PUSH2 0x381A JUMP JUMPDEST DUP3 DUP3 LT DUP1 ISZERO PUSH2 0x37BB JUMPI POP DUP1 DUP4 LT JUMPDEST ISZERO PUSH2 0x380C JUMPI PUSH2 0x37CA DUP3 DUP3 PUSH2 0x5C15 JUMP JUMPDEST PUSH1 0x2C SLOAD PUSH1 0x2D SLOAD PUSH2 0x37DA SWAP2 SWAP1 PUSH2 0x5C15 JUMP JUMPDEST PUSH2 0x37E4 DUP5 DUP7 PUSH2 0x5C15 JUMP JUMPDEST PUSH2 0x37EE SWAP2 SWAP1 PUSH2 0x5D5E JUMP JUMPDEST PUSH2 0x37F8 SWAP2 SWAP1 PUSH2 0x5D93 JUMP JUMPDEST PUSH1 0x2D SLOAD PUSH2 0x3805 SWAP2 SWAP1 PUSH2 0x5C15 JUMP JUMPDEST SWAP6 POP PUSH2 0x381A JUMP JUMPDEST DUP1 DUP4 GT ISZERO PUSH2 0x381A JUMPI PUSH1 0x2C SLOAD SWAP6 POP JUMPDEST PUSH2 0x18DA DUP7 PUSH2 0x2710 PUSH2 0x5C15 JUMP JUMPDEST DUP2 PUSH1 0x1 PUSH1 0x1 PUSH1 0xA0 SHL SUB AND DUP4 PUSH1 0x1 PUSH1 0x1 PUSH1 0xA0 SHL SUB AND EQ ISZERO PUSH2 0x389A JUMPI PUSH1 0x40 MLOAD PUSH3 0x461BCD PUSH1 0xE5 SHL DUP2 MSTORE PUSH1 0x20 PUSH1 0x4 DUP3 ADD MSTORE PUSH1 0x29 PUSH1 0x24 DUP3 ADD MSTORE PUSH32 0x455243313135353A2073657474696E6720617070726F76616C20737461747573 PUSH1 0x44 DUP3 ADD MSTORE PUSH9 0x103337B91039B2B633 PUSH1 0xB9 SHL PUSH1 0x64 DUP3 ADD MSTORE PUSH1 0x84 ADD PUSH2 0x974 JUMP JUMPDEST PUSH1 0x1 PUSH1 0x1 PUSH1 0xA0 SHL SUB DUP4 DUP2 AND PUSH1 0x0 DUP2 DUP2 MSTORE PUSH1 0x1 PUSH1 0x20 SWAP1 DUP2 MSTORE PUSH1 0x40 DUP1 DUP4 KECCAK256 SWAP5 DUP8 AND DUP1 DUP5 MSTORE SWAP5 DUP3 MSTORE SWAP2 DUP3 SWAP1 KECCAK256 DUP1 SLOAD PUSH1 0xFF NOT AND DUP7 ISZERO ISZERO SWAP1 DUP2 OR SWAP1 SWAP2 SSTORE SWAP2 MLOAD SWAP2 DUP3 MSTORE PUSH32 0x17307EAB39AB6107E8899845AD3D59BD9653F200F220920489CA2B5937696C31 SWAP2 ADD PUSH1 0x40 MLOAD DUP1 SWAP2 SUB SWAP1 LOG3 POP POP POP JUMP JUMPDEST PUSH1 0x1 PUSH1 0x1 PUSH1 0xA0 SHL SUB DUP5 AND PUSH1 0x0 SWAP1 DUP2 MSTORE PUSH1 0x23 PUSH1 0x20 MSTORE PUSH1 0x40 SWAP1 KECCAK256 SLOAD DUP5 SWAP1 ISZERO DUP1 ISZERO SWAP1 PUSH2 0x393E JUMPI POP PUSH1 0x26 SLOAD PUSH1 0x1 PUSH1 0x1 PUSH1 0xA0 SHL SUB DUP3 DUP2 AND SWAP2 AND EQ ISZERO JUMPDEST PUSH1 0xB SWAP1 PUSH2 0x395E JUMPI PUSH1 0x40 MLOAD PUSH3 0x461BCD PUSH1 0xE5 SHL DUP2 MSTORE PUSH1 0x4 ADD PUSH2 0x974 SWAP2 SWAP1 PUSH2 0x5B64 JUMP JUMPDEST POP PUSH1 0x1 PUSH1 0x1 PUSH1 0xA0 SHL SUB DUP1 DUP7 AND PUSH1 0x0 SWAP1 DUP2 MSTORE PUSH1 0x23 PUSH1 0x20 MSTORE PUSH1 0x40 DUP2 KECCAK256 SLOAD PUSH1 0x26 SLOAD SWAP1 SWAP3 PUSH2 0x3988 SWAP2 AND PUSH2 0x2B14 JUMP JUMPDEST SWAP1 POP PUSH1 0x0 PUSH1 0x24 SLOAD DUP3 PUSH2 0x399A SWAP2 SWAP1 PUSH2 0x5C15 JUMP JUMPDEST SWAP1 POP PUSH1 0x0 PUSH2 0x39A7 DUP10 PUSH2 0x2B14 JUMP JUMPDEST SWAP1 POP PUSH1 0x0 PUSH1 0x22 DUP6 DUP2 SLOAD DUP2 LT PUSH2 0x39BE JUMPI PUSH2 0x39BE PUSH2 0x5BE9 JUMP JUMPDEST PUSH1 0x0 SWAP2 DUP3 MSTORE PUSH1 0x20 SWAP1 SWAP2 KECCAK256 PUSH1 0x2 PUSH1 0x4 SWAP1 SWAP3 MUL ADD ADD SLOAD PUSH2 0x39E5 SWAP1 PUSH1 0x1 PUSH1 0x1 PUSH1 0x80 SHL SUB AND DUP4 PUSH2 0x5C15 JUMP JUMPDEST SWAP1 POP PUSH1 0x1 PUSH2 0x39F3 DUP5 DUP4 PUSH2 0x5D46 JUMP JUMPDEST PUSH1 0x17 SWAP2 LT PUSH2 0x3A14 JUMPI PUSH1 0x40 MLOAD PUSH3 0x461BCD PUSH1 0xE5 SHL DUP2 MSTORE PUSH1 0x4 ADD PUSH2 0x974 SWAP2 SWAP1 PUSH2 0x5B64 JUMP JUMPDEST POP PUSH1 0x0 PUSH2 0x3A20 DUP7 PUSH2 0x3614 JUMP JUMPDEST SWAP1 POP PUSH1 0x0 PUSH2 0x2710 PUSH1 0x22 DUP9 DUP2 SLOAD DUP2 LT PUSH2 0x3A3A JUMPI PUSH2 0x3A3A PUSH2 0x5BE9 JUMP JUMPDEST SWAP1 PUSH1 0x0 MSTORE PUSH1 0x20 PUSH1 0x0 KECCAK256 SWAP1 PUSH1 0x4 MUL ADD PUSH1 0x2 ADD PUSH1 0x0 SWAP1 SLOAD SWAP1 PUSH2 0x100 EXP SWAP1 DIV PUSH1 0x1 PUSH1 0x1 PUSH1 0x80 SHL SUB AND PUSH1 0x1 PUSH1 0x1 PUSH1 0x80 SHL SUB AND PUSH2 0x2710 PUSH1 0x22 DUP11 DUP2 SLOAD DUP2 LT PUSH2 0x3A7E JUMPI PUSH2 0x3A7E PUSH2 0x5BE9 JUMP JUMPDEST PUSH1 0x0 SWAP2 DUP3 MSTORE PUSH1 0x20 SWAP1 SWAP2 KECCAK256 PUSH1 0x4 SWAP1 SWAP2 MUL ADD PUSH1 0x2 ADD SLOAD PUSH2 0x3AAC SWAP2 SWAP1 PUSH1 0x1 PUSH1 0x80 SHL SWAP1 DIV PUSH1 0x1 PUSH1 0x1 PUSH1 0x80 SHL SUB AND PUSH2 0x5D5E JUMP JUMPDEST PUSH2 0x3AB6 SWAP2 SWAP1 PUSH2 0x5D5E JUMP JUMPDEST PUSH2 0x3AC0 SWAP2 SWAP1 PUSH2 0x5D5E JUMP JUMPDEST SWAP1 POP PUSH1 0x0 DUP11 DUP7 PUSH1 0x24 SLOAD PUSH2 0x3AD3 SWAP2 SWAP1 PUSH2 0x5D46 JUMP JUMPDEST PUSH2 0x3ADD SWAP2 SWAP1 PUSH2 0x5C15 JUMP JUMPDEST SWAP1 POP PUSH1 0x0 DUP12 DUP8 PUSH1 0x22 DUP12 DUP2 SLOAD DUP2 LT PUSH2 0x3AF6 JUMPI PUSH2 0x3AF6 PUSH2 0x5BE9 JUMP JUMPDEST PUSH1 0x0 SWAP2 DUP3 MSTORE PUSH1 0x20 SWAP1 SWAP2 KECCAK256 PUSH1 0x4 SWAP1 SWAP2 MUL ADD PUSH1 0x2 ADD SLOAD PUSH2 0x3B24 SWAP2 SWAP1 PUSH1 0x1 PUSH1 0x80 SHL SWAP1 DIV PUSH1 0x1 PUSH1 0x1 PUSH1 0x80 SHL SUB AND PUSH2 0x5D46 JUMP JUMPDEST PUSH2 0x3B2E SWAP2 SWAP1 PUSH2 0x5C15 JUMP JUMPDEST SWAP1 POP PUSH1 0x0 DUP14 DUP7 PUSH1 0x22 DUP13 DUP2 SLOAD DUP2 LT PUSH2 0x3B47 JUMPI PUSH2 0x3B47 PUSH2 0x5BE9 JUMP JUMPDEST PUSH1 0x0 SWAP2 DUP3 MSTORE PUSH1 0x20 SWAP1 SWAP2 KECCAK256 PUSH1 0x2 PUSH1 0x4 SWAP1 SWAP3 MUL ADD ADD SLOAD PUSH2 0x3B6E SWAP2 SWAP1 PUSH1 0x1 PUSH1 0x1 PUSH1 0x80 SHL SUB AND PUSH2 0x5D46 JUMP JUMPDEST PUSH2 0x3B78 SWAP2 SWAP1 PUSH2 0x5C15 JUMP JUMPDEST SWAP1 POP PUSH1 0x0 PUSH2 0x3B88 DUP7 PUSH2 0x2710 PUSH2 0x5C15 JUMP JUMPDEST PUSH2 0x3B92 SWAP1 DUP9 PUSH2 0x5D5E JUMP JUMPDEST PUSH2 0x3B9E PUSH2 0x2710 DUP5 PUSH2 0x5D5E JUMP JUMPDEST PUSH2 0x3BA8 SWAP2 SWAP1 PUSH2 0x5C15 JUMP JUMPDEST PUSH2 0x3BB4 DUP8 PUSH2 0x2710 PUSH2 0x5C15 JUMP JUMPDEST PUSH2 0x3BBE SWAP1 DUP12 PUSH2 0x5D5E JUMP JUMPDEST PUSH2 0x3BCA PUSH2 0x2710 DUP7 PUSH2 0x5D5E JUMP JUMPDEST PUSH2 0x3BD4 SWAP2 SWAP1 PUSH2 0x5C15 JUMP JUMPDEST PUSH2 0x3BDE SWAP2 SWAP1 PUSH2 0x5D5E JUMP JUMPDEST SWAP1 POP PUSH1 0x18 DUP6 DUP3 LT ISZERO PUSH2 0x3C03 JUMPI PUSH1 0x40 MLOAD PUSH3 0x461BCD PUSH1 0xE5 SHL DUP2 MSTORE PUSH1 0x4 ADD PUSH2 0x974 SWAP2 SWAP1 PUSH2 0x5B64 JUMP JUMPDEST POP DUP4 PUSH1 0x24 DUP2 SWAP1 SSTORE POP DUP3 PUSH1 0x22 DUP13 DUP2 SLOAD DUP2 LT PUSH2 0x3C1F JUMPI PUSH2 0x3C1F PUSH2 0x5BE9 JUMP JUMPDEST SWAP1 PUSH1 0x0 MSTORE PUSH1 0x20 PUSH1 0x0 KECCAK256 SWAP1 PUSH1 0x4 MUL ADD PUSH1 0x2 ADD PUSH1 0x10 PUSH2 0x100 EXP DUP2 SLOAD DUP2 PUSH1 0x1 PUSH1 0x1 PUSH1 0x80 SHL SUB MUL NOT AND SWAP1 DUP4 PUSH1 0x1 PUSH1 0x1 PUSH1 0x80 SHL SUB AND MUL OR SWAP1 SSTORE POP DUP2 PUSH1 0x22 DUP13 DUP2 SLOAD DUP2 LT PUSH2 0x3C68 JUMPI PUSH2 0x3C68 PUSH2 0x5BE9 JUMP JUMPDEST SWAP1 PUSH1 0x0 MSTORE PUSH1 0x20 PUSH1 0x0 KECCAK256 SWAP1 PUSH1 0x4 MUL ADD PUSH1 0x2 ADD PUSH1 0x0 PUSH2 0x100 EXP DUP2 SLOAD DUP2 PUSH1 0x1 PUSH1 0x1 PUSH1 0x80 SHL SUB MUL NOT AND SWAP1 DUP4 PUSH1 0x1 PUSH1 0x1 PUSH1 0x80 SHL SUB AND MUL OR SWAP1 SSTORE POP POP POP POP POP POP POP PUSH1 0x0 PUSH2 0x3CAD PUSH2 0x4EE6 JUMP JUMPDEST SWAP1 POP PUSH1 0x0 PUSH1 0x8 PUSH2 0x3CBB PUSH2 0x4EE6 JUMP JUMPDEST PUSH2 0x3CC6 SWAP1 PUSH1 0x1 PUSH2 0x5D46 JUMP JUMPDEST PUSH2 0x3CD0 SWAP2 SWAP1 PUSH2 0x5F1B JUMP JUMPDEST SWAP1 POP PUSH8 0xDE0B6B3A7640000 DUP6 DUP12 ADD DIV PUSH1 0x22 DUP9 DUP2 SLOAD DUP2 LT PUSH2 0x3CF2 JUMPI PUSH2 0x3CF2 PUSH2 0x5BE9 JUMP JUMPDEST SWAP1 PUSH1 0x0 MSTORE PUSH1 0x20 PUSH1 0x0 KECCAK256 SWAP1 PUSH1 0x4 MUL ADD PUSH1 0x1 ADD DUP4 PUSH1 0x8 DUP2 LT PUSH2 0x3D14 JUMPI PUSH2 0x3D14 PUSH2 0x5BE9 JUMP JUMPDEST PUSH1 0x8 SWAP2 DUP3 DUP3 DIV ADD SWAP2 SWAP1 MOD PUSH1 0x4 MUL DUP3 DUP3 DUP3 SWAP1 SLOAD SWAP1 PUSH2 0x100 EXP SWAP1 DIV PUSH4 0xFFFFFFFF AND ADD SWAP3 POP PUSH2 0x100 EXP DUP2 SLOAD DUP2 PUSH4 0xFFFFFFFF MUL NOT AND SWAP1 DUP4 PUSH4 0xFFFFFFFF AND MUL OR SWAP1 SSTORE POP PUSH1 0x1 PUSH1 0x22 DUP9 DUP2 SLOAD DUP2 LT PUSH2 0x3D67 JUMPI PUSH2 0x3D67 PUSH2 0x5BE9 JUMP JUMPDEST SWAP1 PUSH1 0x0 MSTORE PUSH1 0x20 PUSH1 0x0 KECCAK256 SWAP1 PUSH1 0x4 MUL ADD PUSH1 0x1 ADD DUP3 PUSH1 0x8 DUP2 LT PUSH2 0x3D89 JUMPI PUSH2 0x3D89 PUSH2 0x5BE9 JUMP JUMPDEST PUSH1 0x8 SWAP2 DUP3 DUP3 DIV ADD SWAP2 SWAP1 MOD PUSH1 0x4 MUL SWAP1 SLOAD SWAP1 PUSH2 0x100 EXP SWAP1 DIV PUSH4 0xFFFFFFFF AND PUSH4 0xFFFFFFFF AND GT ISZERO PUSH2 0x3E12 JUMPI PUSH1 0x1 PUSH1 0x22 DUP9 DUP2 SLOAD DUP2 LT PUSH2 0x3DC6 JUMPI PUSH2 0x3DC6 PUSH2 0x5BE9 JUMP JUMPDEST SWAP1 PUSH1 0x0 MSTORE PUSH1 0x20 PUSH1 0x0 KECCAK256 SWAP1 PUSH1 0x4 MUL ADD PUSH1 0x1 ADD DUP3 PUSH1 0x8 DUP2 LT PUSH2 0x3DE8 JUMPI PUSH2 0x3DE8 PUSH2 0x5BE9 JUMP JUMPDEST PUSH1 0x8 SWAP2 DUP3 DUP3 DIV ADD SWAP2 SWAP1 MOD PUSH1 0x4 MUL PUSH2 0x100 EXP DUP2 SLOAD DUP2 PUSH4 0xFFFFFFFF MUL NOT AND SWAP1 DUP4 PUSH4 0xFFFFFFFF AND MUL OR SWAP1 SSTORE POP JUMPDEST DUP11 ISZERO PUSH2 0x3E87 JUMPI PUSH2 0x3E25 DUP13 DUP11 DUP14 PUSH1 0x1 PUSH2 0x2B9C JUMP JUMPDEST PUSH1 0x0 PUSH2 0x3E30 DUP14 PUSH2 0x2B14 JUMP JUMPDEST SWAP1 POP PUSH1 0x22 DUP9 DUP2 SLOAD DUP2 LT PUSH2 0x3E45 JUMPI PUSH2 0x3E45 PUSH2 0x5BE9 JUMP JUMPDEST PUSH1 0x0 SWAP2 DUP3 MSTORE PUSH1 0x20 SWAP1 SWAP2 KECCAK256 PUSH1 0x2 PUSH1 0x4 SWAP1 SWAP3 MUL ADD ADD SLOAD PUSH1 0xD SWAP1 PUSH1 0x1 PUSH1 0x1 PUSH1 0x80 SHL SUB AND DUP3 EQ PUSH2 0x3E84 JUMPI PUSH1 0x40 MLOAD PUSH3 0x461BCD PUSH1 0xE5 SHL DUP2 MSTORE PUSH1 0x4 ADD PUSH2 0x974 SWAP2 SWAP1 PUSH2 0x5B64 JUMP JUMPDEST POP POP JUMPDEST DUP10 ISZERO PUSH2 0x3EA6 JUMPI PUSH1 0x26 SLOAD PUSH2 0x3EA6 SWAP1 PUSH1 0x1 PUSH1 0x1 PUSH1 0xA0 SHL SUB AND DUP11 DUP13 PUSH1 0x1 PUSH2 0x2B9C JUMP JUMPDEST PUSH1 0x40 DUP1 MLOAD PUSH1 0x1 PUSH1 0x1 PUSH1 0xA0 SHL SUB DUP15 DUP2 AND DUP3 MSTORE CALLER PUSH1 0x20 DUP4 ADD MSTORE DUP2 DUP4 ADD DUP7 SWAP1 MSTORE PUSH1 0x60 DUP3 ADD DUP9 SWAP1 MSTORE PUSH1 0x80 DUP3 ADD DUP15 SWAP1 MSTORE PUSH1 0xA0 DUP3 ADD DUP14 SWAP1 MSTORE DUP12 AND PUSH1 0xC0 DUP3 ADD MSTORE SWAP1 MLOAD PUSH32 0x236C64FD115DC00CAFEEAF44B6CA2AF23A66BA0E282852756756B073C5515075 SWAP2 DUP2 SWAP1 SUB PUSH1 0xE0 ADD SWAP1 LOG1 PUSH32 0xF10FC780C78F994A214C79A2AE8D8B7BFE7CC3F0F935A8F05A29525E71D7F127 DUP13 PUSH1 0x22 DUP10 DUP2 SLOAD DUP2 LT PUSH2 0x3F40 JUMPI PUSH2 0x3F40 PUSH2 0x5BE9 JUMP JUMPDEST SWAP1 PUSH1 0x0 MSTORE PUSH1 0x20 PUSH1 0x0 KECCAK256 SWAP1 PUSH1 0x4 MUL ADD PUSH1 0x2 ADD PUSH1 0x0 SWAP1 SLOAD SWAP1 PUSH2 0x100 EXP SWAP1 DIV PUSH1 0x1 PUSH1 0x1 PUSH1 0x80 SHL SUB AND PUSH1 0x22 DUP11 DUP2 SLOAD DUP2 LT PUSH2 0x3F78 JUMPI PUSH2 0x3F78 PUSH2 0x5BE9 JUMP JUMPDEST PUSH1 0x0 SWAP2 DUP3 MSTORE PUSH1 0x20 SWAP2 DUP3 SWAP1 KECCAK256 PUSH1 0x2 PUSH1 0x4 SWAP1 SWAP3 MUL ADD ADD SLOAD PUSH1 0x40 DUP1 MLOAD PUSH1 0x1 PUSH1 0x1 PUSH1 0xA0 SHL SUB SWAP1 SWAP6 AND DUP6 MSTORE PUSH1 0x1 PUSH1 0x1 PUSH1 0x80 SHL SUB SWAP4 DUP5 AND SWAP3 DUP6 ADD SWAP3 SWAP1 SWAP3 MSTORE PUSH1 0x1 PUSH1 0x80 SHL SWAP1 DIV SWAP2 SWAP1 SWAP2 AND SWAP1 DUP3 ADD MSTORE PUSH1 0x60 ADD PUSH1 0x40 MLOAD DUP1 SWAP2 SUB SWAP1 LOG1 POP POP POP POP POP POP POP POP POP POP POP POP JUMP JUMPDEST DUP1 MLOAD PUSH2 0x102D SWAP1 PUSH1 0x2 SWAP1 PUSH1 0x20 DUP5 ADD SWAP1 PUSH2 0x50B7 JUMP JUMPDEST PUSH1 0x1 PUSH1 0x1 PUSH1 0xA0 SHL SUB DUP3 AND PUSH1 0x0 SWAP1 DUP2 MSTORE PUSH1 0x23 PUSH1 0x20 MSTORE PUSH1 0x40 DUP2 KECCAK256 SLOAD DUP4 SWAP1 ISZERO DUP1 ISZERO SWAP1 PUSH2 0x4022 JUMPI POP PUSH1 0x26 SLOAD PUSH1 0x1 PUSH1 0x1 PUSH1 0xA0 SHL SUB DUP3 DUP2 AND SWAP2 AND EQ ISZERO JUMPDEST PUSH1 0xB SWAP1 PUSH2 0x4042 JUMPI PUSH1 0x40 MLOAD PUSH3 0x461BCD PUSH1 0xE5 SHL DUP2 MSTORE PUSH1 0x4 ADD PUSH2 0x974 SWAP2 SWAP1 PUSH2 0x5B64 JUMP JUMPDEST POP PUSH1 0x1 PUSH1 0x1 PUSH1 0xA0 SHL SUB DUP5 AND PUSH1 0x0 SWAP1 DUP2 MSTORE PUSH1 0x23 PUSH1 0x20 MSTORE PUSH1 0x40 SWAP1 KECCAK256 SLOAD PUSH1 0x22 DUP1 SLOAD PUSH2 0x3011 SWAP2 DUP7 SWAP2 DUP5 SWAP1 DUP2 LT PUSH2 0x4076 JUMPI PUSH2 0x4076 PUSH2 0x5BE9 JUMP JUMPDEST PUSH1 0x0 SWAP2 DUP3 MSTORE PUSH1 0x20 SWAP1 SWAP2 KECCAK256 PUSH1 0x2 PUSH1 0x4 SWAP1 SWAP3 MUL ADD ADD SLOAD PUSH1 0x22 DUP1 SLOAD PUSH1 0x1 PUSH1 0x1 PUSH1 0x80 SHL SUB SWAP1 SWAP3 AND SWAP2 DUP6 SWAP1 DUP2 LT PUSH2 0x40AA JUMPI PUSH2 0x40AA PUSH2 0x5BE9 JUMP JUMPDEST PUSH1 0x0 SWAP2 DUP3 MSTORE PUSH1 0x20 SWAP1 SWAP2 KECCAK256 PUSH1 0x4 SWAP1 SWAP2 MUL ADD PUSH1 0x2 ADD SLOAD PUSH1 0x1 PUSH1 0x80 SHL SWAP1 DIV PUSH1 0x1 PUSH1 0x1 PUSH1 0x80 SHL SUB AND PUSH2 0x40D7 DUP6 PUSH2 0x3614 JUMP JUMPDEST PUSH2 0x4F05 JUMP JUMPDEST PUSH1 0x1 PUSH1 0x1 PUSH1 0xA0 SHL SUB DUP3 AND PUSH1 0x0 SWAP1 DUP2 MSTORE PUSH1 0x23 PUSH1 0x20 MSTORE PUSH1 0x40 DUP2 KECCAK256 SLOAD DUP4 SWAP1 ISZERO DUP1 ISZERO SWAP1 PUSH2 0x4113 JUMPI POP PUSH1 0x26 SLOAD PUSH1 0x1 PUSH1 0x1 PUSH1 0xA0 SHL SUB DUP3 DUP2 AND SWAP2 AND EQ ISZERO JUMPDEST PUSH1 0xB SWAP1 PUSH2 0x4133 JUMPI PUSH1 0x40 MLOAD PUSH3 0x461BCD PUSH1 0xE5 SHL DUP2 MSTORE PUSH1 0x4 ADD PUSH2 0x974 SWAP2 SWAP1 PUSH2 0x5B64 JUMP JUMPDEST POP PUSH1 0x1 PUSH1 0x1 PUSH1 0xA0 SHL SUB DUP5 AND PUSH1 0x0 SWAP1 DUP2 MSTORE PUSH1 0x23 PUSH1 0x20 MSTORE PUSH1 0x40 SWAP1 KECCAK256 SLOAD PUSH1 0x22 DUP1 SLOAD PUSH2 0x3011 SWAP2 DUP7 SWAP2 DUP5 SWAP1 DUP2 LT PUSH2 0x4167 JUMPI PUSH2 0x4167 PUSH2 0x5BE9 JUMP JUMPDEST SWAP1 PUSH1 0x0 MSTORE PUSH1 0x20 PUSH1 0x0 KECCAK256 SWAP1 PUSH1 0x4 MUL ADD PUSH1 0x2 ADD PUSH1 0x10 SWAP1 SLOAD SWAP1 PUSH2 0x100 EXP SWAP1 DIV PUSH1 0x1 PUSH1 0x1 PUSH1 0x80 SHL SUB AND PUSH1 0x1 PUSH1 0x1 PUSH1 0x80 SHL SUB AND PUSH1 0x22 DUP5 DUP2 SLOAD DUP2 LT PUSH2 0x41A8 JUMPI PUSH2 0x41A8 PUSH2 0x5BE9 JUMP JUMPDEST PUSH1 0x0 SWAP2 DUP3 MSTORE PUSH1 0x20 SWAP1 SWAP2 KECCAK256 PUSH1 0x2 PUSH1 0x4 SWAP1 SWAP3 MUL ADD ADD SLOAD PUSH1 0x1 PUSH1 0x1 PUSH1 0x80 SHL SUB AND PUSH2 0x40D7 DUP6 PUSH2 0x3614 JUMP JUMPDEST PUSH1 0x0 PUSH2 0x9A0 DUP3 SLOAD SWAP1 JUMP JUMPDEST PUSH1 0x40 MLOAD PUSH4 0x6FB1A07 PUSH1 0xE0 SHL DUP2 MSTORE PUSH1 0x3 PUSH1 0x4 DUP3 ADD MSTORE PUSH1 0x0 SWAP1 PUSH20 0xDEF1FAC7BF08F173D286BBBDCBEEADE695129840 SWAP1 PUSH4 0x6FB1A07 SWAP1 PUSH1 0x24 ADD PUSH1 0x20 PUSH1 0x40 MLOAD DUP1 DUP4 SUB DUP2 DUP7 GAS STATICCALL ISZERO DUP1 ISZERO PUSH2 0x422B JUMPI RETURNDATASIZE PUSH1 0x0 DUP1 RETURNDATACOPY RETURNDATASIZE PUSH1 0x0 REVERT JUMPDEST POP POP POP POP PUSH1 0x40 MLOAD RETURNDATASIZE PUSH1 0x1F NOT PUSH1 0x1F DUP3 ADD AND DUP3 ADD DUP1 PUSH1 0x40 MSTORE POP DUP2 ADD SWAP1 PUSH2 0x424F SWAP2 SWAP1 PUSH2 0x5C47 JUMP JUMPDEST PUSH1 0x40 MLOAD PUSH4 0xC8B57EF PUSH1 0xE2 SHL DUP2 MSTORE PUSH1 0x1 PUSH1 0x1 PUSH1 0xA0 SHL SUB DUP7 DUP2 AND PUSH1 0x4 DUP4 ADD MSTORE DUP6 DUP2 AND PUSH1 0x24 DUP4 ADD MSTORE SWAP2 SWAP3 POP SWAP1 DUP3 AND SWAP1 PUSH4 0x322D5FBC SWAP1 PUSH1 0x44 ADD PUSH1 0x20 PUSH1 0x40 MLOAD DUP1 DUP4 SUB DUP2 PUSH1 0x0 DUP8 GAS CALL ISZERO DUP1 ISZERO PUSH2 0x42A3 JUMPI RETURNDATASIZE PUSH1 0x0 DUP1 RETURNDATACOPY RETURNDATASIZE PUSH1 0x0 REVERT JUMPDEST POP POP POP POP PUSH1 0x40 MLOAD RETURNDATASIZE PUSH1 0x1F NOT PUSH1 0x1F DUP3 ADD AND DUP3 ADD DUP1 PUSH1 0x40 MSTORE POP DUP2 ADD SWAP1 PUSH2 0x42C7 SWAP2 SWAP1 PUSH2 0x5DFA JUMP JUMPDEST PUSH2 0x42F9 JUMPI PUSH1 0x40 MLOAD PUSH3 0x461BCD PUSH1 0xE5 SHL DUP2 MSTORE PUSH1 0x20 PUSH1 0x4 DUP3 ADD MSTORE PUSH1 0x3 PUSH1 0x24 DUP3 ADD MSTORE PUSH3 0x42A8B PUSH1 0xEB SHL PUSH1 0x44 DUP3 ADD MSTORE PUSH1 0x64 ADD PUSH2 0x974 JUMP JUMPDEST PUSH1 0x1 PUSH1 0x1 PUSH1 0xA0 SHL SUB DUP3 AND ADDRESS EQ PUSH2 0xBB3 JUMPI PUSH1 0x40 MLOAD PUSH4 0x3973256B PUSH1 0xE1 SHL DUP2 MSTORE PUSH1 0x1 PUSH1 0x1 PUSH1 0xA0 SHL SUB DUP6 DUP2 AND PUSH1 0x4 DUP4 ADD MSTORE DUP4 DUP2 AND PUSH1 0x24 DUP4 ADD MSTORE DUP3 AND SWAP1 PUSH4 0x72E64AD6 SWAP1 PUSH1 0x44 ADD PUSH1 0x0 PUSH1 0x40 MLOAD DUP1 DUP4 SUB DUP2 PUSH1 0x0 DUP8 DUP1 EXTCODESIZE ISZERO DUP1 ISZERO PUSH2 0x4354 JUMPI PUSH1 0x0 DUP1 REVERT JUMPDEST POP GAS CALL ISZERO DUP1 ISZERO PUSH2 0x4368 JUMPI RETURNDATASIZE PUSH1 0x0 DUP1 RETURNDATACOPY RETURNDATASIZE PUSH1 0x0 REVERT JUMPDEST POP POP POP POP POP POP POP POP JUMP JUMPDEST PUSH1 0x1 PUSH1 0x1 PUSH1 0xA0 SHL SUB DUP5 AND PUSH2 0x43D6 JUMPI PUSH1 0x40 MLOAD PUSH3 0x461BCD PUSH1 0xE5 SHL DUP2 MSTORE PUSH1 0x20 PUSH1 0x4 DUP3 ADD MSTORE PUSH1 0x25 PUSH1 0x24 DUP3 ADD MSTORE PUSH32 0x455243313135353A207472616E7366657220746F20746865207A65726F206164 PUSH1 0x44 DUP3 ADD MSTORE PUSH5 0x6472657373 PUSH1 0xD8 SHL PUSH1 0x64 DUP3 ADD MSTORE PUSH1 0x84 ADD PUSH2 0x974 JUMP JUMPDEST CALLER PUSH2 0x43E6 DUP2 DUP8 DUP8 PUSH2 0x2E81 DUP9 PUSH2 0x4B58 JUMP JUMPDEST PUSH1 0x0 DUP5 DUP2 MSTORE PUSH1 0x20 DUP2 DUP2 MSTORE PUSH1 0x40 DUP1 DUP4 KECCAK256 PUSH1 0x1 PUSH1 0x1 PUSH1 0xA0 SHL SUB DUP11 AND DUP5 MSTORE SWAP1 SWAP2 MSTORE SWAP1 KECCAK256 SLOAD DUP4 DUP2 LT ISZERO PUSH2 0x446A JUMPI PUSH1 0x40 MLOAD PUSH3 0x461BCD PUSH1 0xE5 SHL DUP2 MSTORE PUSH1 0x20 PUSH1 0x4 DUP3 ADD MSTORE PUSH1 0x2A PUSH1 0x24 DUP3 ADD MSTORE PUSH32 0x455243313135353A20696E73756666696369656E742062616C616E636520666F PUSH1 0x44 DUP3 ADD MSTORE PUSH10 0x39103A3930B739B332B9 PUSH1 0xB1 SHL PUSH1 0x64 DUP3 ADD MSTORE PUSH1 0x84 ADD PUSH2 0x974 JUMP JUMPDEST PUSH1 0x0 DUP6 DUP2 MSTORE PUSH1 0x20 DUP2 DUP2 MSTORE PUSH1 0x40 DUP1 DUP4 KECCAK256 PUSH1 0x1 PUSH1 0x1 PUSH1 0xA0 SHL SUB DUP12 DUP2 AND DUP6 MSTORE SWAP3 MSTORE DUP1 DUP4 KECCAK256 DUP8 DUP6 SUB SWAP1 SSTORE SWAP1 DUP9 AND DUP3 MSTORE DUP2 KECCAK256 DUP1 SLOAD DUP7 SWAP3 SWAP1 PUSH2 0x44A7 SWAP1 DUP5 SWAP1 PUSH2 0x5D46 JUMP JUMPDEST SWAP1 SWAP2 SSTORE POP POP PUSH1 0x40 DUP1 MLOAD DUP7 DUP2 MSTORE PUSH1 0x20 DUP2 ADD DUP7 SWAP1 MSTORE PUSH1 0x1 PUSH1 0x1 PUSH1 0xA0 SHL SUB DUP1 DUP10 AND SWAP3 DUP11 DUP3 AND SWAP3 SWAP2 DUP7 AND SWAP2 PUSH32 0xC3D58168C5AE7397731D063D5BBF3D657854427343F4C083240F7AACAA2D0F62 SWAP2 ADD PUSH1 0x40 MLOAD DUP1 SWAP2 SUB SWAP1 LOG4 PUSH2 0xB33 DUP3 DUP9 DUP9 DUP9 DUP9 DUP9 PUSH2 0x4CAF JUMP JUMPDEST PUSH1 0x1 PUSH1 0x1 PUSH1 0xA0 SHL SUB DUP4 AND PUSH2 0x4569 JUMPI PUSH1 0x40 MLOAD PUSH3 0x461BCD PUSH1 0xE5 SHL DUP2 MSTORE PUSH1 0x20 PUSH1 0x4 DUP3 ADD MSTORE PUSH1 0x23 PUSH1 0x24 DUP3 ADD MSTORE PUSH32 0x455243313135353A206275726E2066726F6D20746865207A65726F2061646472 PUSH1 0x44 DUP3 ADD MSTORE PUSH3 0x657373 PUSH1 0xE8 SHL PUSH1 0x64 DUP3 ADD MSTORE PUSH1 0x84 ADD PUSH2 0x974 JUMP JUMPDEST CALLER PUSH2 0x4598 DUP2 DUP6 PUSH1 0x0 PUSH2 0x457A DUP8 PUSH2 0x4B58 JUMP JUMPDEST PUSH2 0x4583 DUP8 PUSH2 0x4B58 JUMP JUMPDEST PUSH1 0x40 MLOAD DUP1 PUSH1 0x20 ADD PUSH1 0x40 MSTORE DUP1 PUSH1 0x0 DUP2 MSTORE POP PUSH2 0x4BA3 JUMP JUMPDEST PUSH1 0x0 DUP4 DUP2 MSTORE PUSH1 0x20 DUP2 DUP2 MSTORE PUSH1 0x40 DUP1 DUP4 KECCAK256 PUSH1 0x1 PUSH1 0x1 PUSH1 0xA0 SHL SUB DUP9 AND DUP5 MSTORE SWAP1 SWAP2 MSTORE SWAP1 KECCAK256 SLOAD DUP3 DUP2 LT ISZERO PUSH2 0x4615 JUMPI PUSH1 0x40 MLOAD PUSH3 0x461BCD PUSH1 0xE5 SHL DUP2 MSTORE PUSH1 0x20 PUSH1 0x4 DUP3 ADD MSTORE PUSH1 0x24 DUP1 DUP3 ADD MSTORE PUSH32 0x455243313135353A206275726E20616D6F756E7420657863656564732062616C PUSH1 0x44 DUP3 ADD MSTORE PUSH4 0x616E6365 PUSH1 0xE0 SHL PUSH1 0x64 DUP3 ADD MSTORE PUSH1 0x84 ADD PUSH2 0x974 JUMP JUMPDEST PUSH1 0x0 DUP5 DUP2 MSTORE PUSH1 0x20 DUP2 DUP2 MSTORE PUSH1 0x40 DUP1 DUP4 KECCAK256 PUSH1 0x1 PUSH1 0x1 PUSH1 0xA0 SHL SUB DUP10 DUP2 AND DUP1 DUP7 MSTORE SWAP2 DUP5 MSTORE DUP3 DUP6 KECCAK256 DUP9 DUP8 SUB SWAP1 SSTORE DUP3 MLOAD DUP10 DUP2 MSTORE SWAP4 DUP5 ADD DUP9 SWAP1 MSTORE SWAP1 SWAP3 SWAP1 DUP7 AND SWAP2 PUSH32 0xC3D58168C5AE7397731D063D5BBF3D657854427343F4C083240F7AACAA2D0F62 SWAP2 ADD PUSH1 0x40 MLOAD DUP1 SWAP2 SUB SWAP1 LOG4 POP POP POP POP POP JUMP JUMPDEST PUSH1 0x0 DUP2 DUP2 MSTORE PUSH1 0x1 DUP4 ADD PUSH1 0x20 MSTORE PUSH1 0x40 DUP2 KECCAK256 SLOAD PUSH2 0x46C7 JUMPI POP DUP2 SLOAD PUSH1 0x1 DUP2 DUP2 ADD DUP5 SSTORE PUSH1 0x0 DUP5 DUP2 MSTORE PUSH1 0x20 DUP1 DUP3 KECCAK256 SWAP1 SWAP4 ADD DUP5 SWAP1 SSTORE DUP5 SLOAD DUP5 DUP3 MSTORE DUP3 DUP7 ADD SWAP1 SWAP4 MSTORE PUSH1 0x40 SWAP1 KECCAK256 SWAP2 SWAP1 SWAP2 SSTORE PUSH2 0x9A0 JUMP JUMPDEST POP PUSH1 0x0 PUSH2 0x9A0 JUMP JUMPDEST PUSH1 0x40 DUP1 MLOAD PUSH1 0x0 DUP1 DUP3 MSTORE PUSH1 0x20 DUP3 ADD SWAP1 SWAP3 MSTORE PUSH1 0x1 PUSH1 0x1 PUSH1 0xA0 SHL SUB DUP5 AND SWAP1 DUP4 SWAP1 PUSH1 0x40 MLOAD PUSH2 0x46F9 SWAP2 SWAP1 PUSH2 0x5F2F JUMP JUMPDEST PUSH1 0x0 PUSH1 0x40 MLOAD DUP1 DUP4 SUB DUP2 DUP6 DUP8 GAS CALL SWAP3 POP POP POP RETURNDATASIZE DUP1 PUSH1 0x0 DUP2 EQ PUSH2 0x4736 JUMPI PUSH1 0x40 MLOAD SWAP2 POP PUSH1 0x1F NOT PUSH1 0x3F RETURNDATASIZE ADD AND DUP3 ADD PUSH1 0x40 MSTORE RETURNDATASIZE DUP3 MSTORE RETURNDATASIZE PUSH1 0x0 PUSH1 0x20 DUP5 ADD RETURNDATACOPY PUSH2 0x473B JUMP JUMPDEST PUSH1 0x60 SWAP2 POP JUMPDEST POP SWAP1 SWAP2 POP PUSH1 0x19 SWAP1 POP DUP2 PUSH2 0xBB3 JUMPI PUSH1 0x40 MLOAD PUSH3 0x461BCD PUSH1 0xE5 SHL DUP2 MSTORE PUSH1 0x4 ADD PUSH2 0x974 SWAP2 SWAP1 PUSH2 0x5B64 JUMP JUMPDEST PUSH1 0x40 DUP1 MLOAD PUSH1 0x1 PUSH1 0x1 PUSH1 0xA0 SHL SUB DUP5 DUP2 AND PUSH1 0x24 DUP4 ADD MSTORE PUSH1 0x44 DUP1 DUP4 ADD DUP6 SWAP1 MSTORE DUP4 MLOAD DUP1 DUP5 SUB SWAP1 SWAP2 ADD DUP2 MSTORE PUSH1 0x64 SWAP1 SWAP3 ADD DUP4 MSTORE PUSH1 0x20 DUP3 ADD DUP1 MLOAD PUSH1 0x1 PUSH1 0x1 PUSH1 0xE0 SHL SUB AND PUSH4 0xA9059CBB PUSH1 0xE0 SHL OR SWAP1 MSTORE SWAP2 MLOAD PUSH1 0x0 SWAP3 DUP4 SWAP3 SWAP1 DUP8 AND SWAP2 PUSH2 0x47BD SWAP2 SWAP1 PUSH2 0x5F2F JUMP JUMPDEST PUSH1 0x0 PUSH1 0x40 MLOAD DUP1 DUP4 SUB DUP2 PUSH1 0x0 DUP7 GAS CALL SWAP2 POP POP RETURNDATASIZE DUP1 PUSH1 0x0 DUP2 EQ PUSH2 0x47FA JUMPI PUSH1 0x40 MLOAD SWAP2 POP PUSH1 0x1F NOT PUSH1 0x3F RETURNDATASIZE ADD AND DUP3 ADD PUSH1 0x40 MSTORE RETURNDATASIZE DUP3 MSTORE RETURNDATASIZE PUSH1 0x0 PUSH1 0x20 DUP5 ADD RETURNDATACOPY PUSH2 0x47FF JUMP JUMPDEST PUSH1 0x60 SWAP2 POP JUMPDEST POP SWAP2 POP SWAP2 POP DUP2 DUP1 ISZERO PUSH2 0x4829 JUMPI POP DUP1 MLOAD ISZERO DUP1 PUSH2 0x4829 JUMPI POP DUP1 DUP1 PUSH1 0x20 ADD SWAP1 MLOAD DUP2 ADD SWAP1 PUSH2 0x4829 SWAP2 SWAP1 PUSH2 0x5DFA JUMP JUMPDEST PUSH1 0x1A SWAP1 PUSH2 0x4849 JUMPI PUSH1 0x40 MLOAD PUSH3 0x461BCD PUSH1 0xE5 SHL DUP2 MSTORE PUSH1 0x4 ADD PUSH2 0x974 SWAP2 SWAP1 PUSH2 0x5B64 JUMP JUMPDEST POP POP POP POP POP POP JUMP JUMPDEST PUSH1 0x60 PUSH1 0x0 PUSH2 0x4860 DUP4 PUSH1 0x2 PUSH2 0x5D5E JUMP JUMPDEST PUSH2 0x486B SWAP1 PUSH1 0x2 PUSH2 0x5D46 JUMP JUMPDEST PUSH1 0x1 PUSH1 0x1 PUSH1 0x40 SHL SUB DUP2 GT ISZERO PUSH2 0x4882 JUMPI PUSH2 0x4882 PUSH2 0x53A0 JUMP JUMPDEST PUSH1 0x40 MLOAD SWAP1 DUP1 DUP3 MSTORE DUP1 PUSH1 0x1F ADD PUSH1 0x1F NOT AND PUSH1 0x20 ADD DUP3 ADD PUSH1 0x40 MSTORE DUP1 ISZERO PUSH2 0x48AC JUMPI PUSH1 0x20 DUP3 ADD DUP2 DUP1 CALLDATASIZE DUP4 CALLDATACOPY ADD SWAP1 POP JUMPDEST POP SWAP1 POP PUSH1 0x3 PUSH1 0xFC SHL DUP2 PUSH1 0x0 DUP2 MLOAD DUP2 LT PUSH2 0x48C7 JUMPI PUSH2 0x48C7 PUSH2 0x5BE9 JUMP JUMPDEST PUSH1 0x20 ADD ADD SWAP1 PUSH1 0x1 PUSH1 0x1 PUSH1 0xF8 SHL SUB NOT AND SWAP1 DUP2 PUSH1 0x0 BYTE SWAP1 MSTORE8 POP PUSH1 0xF PUSH1 0xFB SHL DUP2 PUSH1 0x1 DUP2 MLOAD DUP2 LT PUSH2 0x48F6 JUMPI PUSH2 0x48F6 PUSH2 0x5BE9 JUMP JUMPDEST PUSH1 0x20 ADD ADD SWAP1 PUSH1 0x1 PUSH1 0x1 PUSH1 0xF8 SHL SUB NOT AND SWAP1 DUP2 PUSH1 0x0 BYTE SWAP1 MSTORE8 POP PUSH1 0x0 PUSH2 0x491A DUP5 PUSH1 0x2 PUSH2 0x5D5E JUMP JUMPDEST PUSH2 0x4925 SWAP1 PUSH1 0x1 PUSH2 0x5D46 JUMP JUMPDEST SWAP1 POP JUMPDEST PUSH1 0x1 DUP2 GT ISZERO PUSH2 0x499D JUMPI PUSH16 0x181899199A1A9B1B9C1CB0B131B232B3 PUSH1 0x81 SHL DUP6 PUSH1 0xF AND PUSH1 0x10 DUP2 LT PUSH2 0x4959 JUMPI PUSH2 0x4959 PUSH2 0x5BE9 JUMP JUMPDEST BYTE PUSH1 0xF8 SHL DUP3 DUP3 DUP2 MLOAD DUP2 LT PUSH2 0x496F JUMPI PUSH2 0x496F PUSH2 0x5BE9 JUMP JUMPDEST PUSH1 0x20 ADD ADD SWAP1 PUSH1 0x1 PUSH1 0x1 PUSH1 0xF8 SHL SUB NOT AND SWAP1 DUP2 PUSH1 0x0 BYTE SWAP1 MSTORE8 POP PUSH1 0x4 SWAP5 SWAP1 SWAP5 SHR SWAP4 PUSH2 0x4996 DUP2 PUSH2 0x5F4B JUMP JUMPDEST SWAP1 POP PUSH2 0x4928 JUMP JUMPDEST POP DUP4 ISZERO PUSH2 0x172A JUMPI PUSH1 0x40 MLOAD PUSH3 0x461BCD PUSH1 0xE5 SHL DUP2 MSTORE PUSH1 0x20 PUSH1 0x4 DUP3 ADD DUP2 SWAP1 MSTORE PUSH1 0x24 DUP3 ADD MSTORE PUSH32 0x537472696E67733A20686578206C656E67746820696E73756666696369656E74 PUSH1 0x44 DUP3 ADD MSTORE PUSH1 0x64 ADD PUSH2 0x974 JUMP JUMPDEST PUSH2 0x49F6 DUP3 DUP3 PUSH2 0x191F JUMP JUMPDEST ISZERO PUSH2 0x102D JUMPI PUSH1 0x0 DUP3 DUP2 MSTORE PUSH1 0x4 PUSH1 0x20 SWAP1 DUP2 MSTORE PUSH1 0x40 DUP1 DUP4 KECCAK256 PUSH1 0x1 PUSH1 0x1 PUSH1 0xA0 SHL SUB DUP6 AND DUP1 DUP6 MSTORE SWAP3 MSTORE DUP1 DUP4 KECCAK256 DUP1 SLOAD PUSH1 0xFF NOT AND SWAP1 SSTORE MLOAD CALLER SWAP3 DUP6 SWAP2 PUSH32 0xF6391F5C32D9C69D2A47EA670B442974B53935D1EDC7FD64EB21E047A839171B SWAP2 SWAP1 LOG4 POP POP JUMP JUMPDEST PUSH1 0x0 PUSH2 0x172A DUP4 PUSH1 0x1 PUSH1 0x1 PUSH1 0xA0 SHL SUB DUP5 AND PUSH2 0x4F86 JUMP JUMPDEST PUSH1 0x40 DUP1 MLOAD PUSH1 0x1 PUSH1 0x1 PUSH1 0xA0 SHL SUB DUP6 DUP2 AND PUSH1 0x24 DUP4 ADD MSTORE DUP5 DUP2 AND PUSH1 0x44 DUP4 ADD MSTORE PUSH1 0x64 DUP1 DUP4 ADD DUP6 SWAP1 MSTORE DUP4 MLOAD DUP1 DUP5 SUB SWAP1 SWAP2 ADD DUP2 MSTORE PUSH1 0x84 SWAP1 SWAP3 ADD DUP4 MSTORE PUSH1 0x20 DUP3 ADD DUP1 MLOAD PUSH1 0x1 PUSH1 0x1 PUSH1 0xE0 SHL SUB AND PUSH4 0x23B872DD PUSH1 0xE0 SHL OR SWAP1 MSTORE SWAP2 MLOAD PUSH1 0x0 SWAP3 DUP4 SWAP3 SWAP1 DUP9 AND SWAP2 PUSH2 0x4ACC SWAP2 SWAP1 PUSH2 0x5F2F JUMP JUMPDEST PUSH1 0x0 PUSH1 0x40 MLOAD DUP1 DUP4 SUB DUP2 PUSH1 0x0 DUP7 GAS CALL SWAP2 POP POP RETURNDATASIZE DUP1 PUSH1 0x0 DUP2 EQ PUSH2 0x4B09 JUMPI PUSH1 0x40 MLOAD SWAP2 POP PUSH1 0x1F NOT PUSH1 0x3F RETURNDATASIZE ADD AND DUP3 ADD PUSH1 0x40 MSTORE RETURNDATASIZE DUP3 MSTORE RETURNDATASIZE PUSH1 0x0 PUSH1 0x20 DUP5 ADD RETURNDATACOPY PUSH2 0x4B0E JUMP JUMPDEST PUSH1 0x60 SWAP2 POP JUMPDEST POP SWAP2 POP SWAP2 POP DUP2 DUP1 ISZERO PUSH2 0x4B38 JUMPI POP DUP1 MLOAD ISZERO DUP1 PUSH2 0x4B38 JUMPI POP DUP1 DUP1 PUSH1 0x20 ADD SWAP1 MLOAD DUP2 ADD SWAP1 PUSH2 0x4B38 SWAP2 SWAP1 PUSH2 0x5DFA JUMP JUMPDEST PUSH1 0x1B SWAP1 PUSH2 0xB33 JUMPI PUSH1 0x40 MLOAD PUSH3 0x461BCD PUSH1 0xE5 SHL DUP2 MSTORE PUSH1 0x4 ADD PUSH2 0x974 SWAP2 SWAP1 PUSH2 0x5B64 JUMP JUMPDEST PUSH1 0x40 DUP1 MLOAD PUSH1 0x1 DUP1 DUP3 MSTORE DUP2 DUP4 ADD SWAP1 SWAP3 MSTORE PUSH1 0x60 SWAP2 PUSH1 0x0 SWAP2 SWAP1 PUSH1 0x20 DUP1 DUP4 ADD SWAP1 DUP1 CALLDATASIZE DUP4 CALLDATACOPY ADD SWAP1 POP POP SWAP1 POP DUP3 DUP2 PUSH1 0x0 DUP2 MLOAD DUP2 LT PUSH2 0x4B92 JUMPI PUSH2 0x4B92 PUSH2 0x5BE9 JUMP JUMPDEST PUSH1 0x20 SWAP1 DUP2 MUL SWAP2 SWAP1 SWAP2 ADD ADD MSTORE SWAP3 SWAP2 POP POP JUMP JUMPDEST PUSH1 0x1 PUSH1 0x1 PUSH1 0xA0 SHL SUB DUP6 AND PUSH2 0x4C2A JUMPI PUSH1 0x0 JUMPDEST DUP4 MLOAD DUP2 LT ISZERO PUSH2 0x4C28 JUMPI DUP3 DUP2 DUP2 MLOAD DUP2 LT PUSH2 0x4BCF JUMPI PUSH2 0x4BCF PUSH2 0x5BE9 JUMP JUMPDEST PUSH1 0x20 MUL PUSH1 0x20 ADD ADD MLOAD PUSH1 0x3 PUSH1 0x0 DUP7 DUP5 DUP2 MLOAD DUP2 LT PUSH2 0x4BED JUMPI PUSH2 0x4BED PUSH2 0x5BE9 JUMP JUMPDEST PUSH1 0x20 MUL PUSH1 0x20 ADD ADD MLOAD DUP2 MSTORE PUSH1 0x20 ADD SWAP1 DUP2 MSTORE PUSH1 0x20 ADD PUSH1 0x0 KECCAK256 PUSH1 0x0 DUP3 DUP3 SLOAD PUSH2 0x4C12 SWAP2 SWAP1 PUSH2 0x5D46 JUMP JUMPDEST SWAP1 SWAP2 SSTORE POP PUSH2 0x4C21 SWAP1 POP DUP2 PUSH2 0x5C2C JUMP JUMPDEST SWAP1 POP PUSH2 0x4BB4 JUMP JUMPDEST POP JUMPDEST PUSH1 0x1 PUSH1 0x1 PUSH1 0xA0 SHL SUB DUP5 AND PUSH2 0x4849 JUMPI PUSH1 0x0 JUMPDEST DUP4 MLOAD DUP2 LT ISZERO PUSH2 0xB33 JUMPI DUP3 DUP2 DUP2 MLOAD DUP2 LT PUSH2 0x4C56 JUMPI PUSH2 0x4C56 PUSH2 0x5BE9 JUMP JUMPDEST PUSH1 0x20 MUL PUSH1 0x20 ADD ADD MLOAD PUSH1 0x3 PUSH1 0x0 DUP7 DUP5 DUP2 MLOAD DUP2 LT PUSH2 0x4C74 JUMPI PUSH2 0x4C74 PUSH2 0x5BE9 JUMP JUMPDEST PUSH1 0x20 MUL PUSH1 0x20 ADD ADD MLOAD DUP2 MSTORE PUSH1 0x20 ADD SWAP1 DUP2 MSTORE PUSH1 0x20 ADD PUSH1 0x0 KECCAK256 PUSH1 0x0 DUP3 DUP3 SLOAD PUSH2 0x4C99 SWAP2 SWAP1 PUSH2 0x5C15 JUMP JUMPDEST SWAP1 SWAP2 SSTORE POP PUSH2 0x4CA8 SWAP1 POP DUP2 PUSH2 0x5C2C JUMP JUMPDEST SWAP1 POP PUSH2 0x4C3B JUMP JUMPDEST PUSH1 0x1 PUSH1 0x1 PUSH1 0xA0 SHL SUB DUP5 AND EXTCODESIZE ISZERO PUSH2 0x4849 JUMPI PUSH1 0x40 MLOAD PUSH4 0xF23A6E61 PUSH1 0xE0 SHL DUP2 MSTORE PUSH1 0x1 PUSH1 0x1 PUSH1 0xA0 SHL SUB DUP6 AND SWAP1 PUSH4 0xF23A6E61 SWAP1 PUSH2 0x4CF3 SWAP1 DUP10 SWAP1 DUP10 SWAP1 DUP9 SWAP1 DUP9 SWAP1 DUP9 SWAP1 PUSH1 0x4 ADD PUSH2 0x5F62 JUMP JUMPDEST PUSH1 0x20 PUSH1 0x40 MLOAD DUP1 DUP4 SUB DUP2 PUSH1 0x0 DUP8 GAS CALL SWAP3 POP POP POP DUP1 ISZERO PUSH2 0x4D2E JUMPI POP PUSH1 0x40 DUP1 MLOAD PUSH1 0x1F RETURNDATASIZE SWAP1 DUP2 ADD PUSH1 0x1F NOT AND DUP3 ADD SWAP1 SWAP3 MSTORE PUSH2 0x4D2B SWAP2 DUP2 ADD SWAP1 PUSH2 0x5F9C JUMP JUMPDEST PUSH1 0x1 JUMPDEST PUSH2 0x4DDB JUMPI PUSH2 0x4D3A PUSH2 0x5FB9 JUMP JUMPDEST DUP1 PUSH4 0x8C379A0 EQ ISZERO PUSH2 0x4D74 JUMPI POP PUSH2 0x4D4F PUSH2 0x5FD5 JUMP JUMPDEST DUP1 PUSH2 0x4D5A JUMPI POP PUSH2 0x4D76 JUMP JUMPDEST DUP1 PUSH1 0x40 MLOAD PUSH3 0x461BCD PUSH1 0xE5 SHL DUP2 MSTORE PUSH1 0x4 ADD PUSH2 0x974 SWAP2 SWAP1 PUSH2 0x537B JUMP JUMPDEST POP JUMPDEST PUSH1 0x40 MLOAD PUSH3 0x461BCD PUSH1 0xE5 SHL DUP2 MSTORE PUSH1 0x20 PUSH1 0x4 DUP3 ADD MSTORE PUSH1 0x34 PUSH1 0x24 DUP3 ADD MSTORE PUSH32 0x455243313135353A207472616E7366657220746F206E6F6E2045524331313535 PUSH1 0x44 DUP3 ADD MSTORE PUSH20 0x2932B1B2B4BB32B91034B6B83632B6B2B73A32B9 PUSH1 0x61 SHL PUSH1 0x64 DUP3 ADD MSTORE PUSH1 0x84 ADD PUSH2 0x974 JUMP JUMPDEST PUSH1 0x1 PUSH1 0x1 PUSH1 0xE0 SHL SUB NOT DUP2 AND PUSH4 0xF23A6E61 PUSH1 0xE0 SHL EQ PUSH2 0xB33 JUMPI PUSH1 0x40 MLOAD PUSH3 0x461BCD PUSH1 0xE5 SHL DUP2 MSTORE PUSH1 0x20 PUSH1 0x4 DUP3 ADD MSTORE PUSH1 0x28 PUSH1 0x24 DUP3 ADD MSTORE PUSH32 0x455243313135353A204552433131353552656365697665722072656A65637465 PUSH1 0x44 DUP3 ADD MSTORE PUSH8 0x6420746F6B656E73 PUSH1 0xC0 SHL PUSH1 0x64 DUP3 ADD MSTORE PUSH1 0x84 ADD PUSH2 0x974 JUMP JUMPDEST PUSH1 0x0 PUSH2 0x3E8 DUP5 GT DUP1 ISZERO PUSH2 0x4E60 JUMPI POP PUSH2 0x3E8 DUP4 GT JUMPDEST PUSH1 0x1E SWAP1 PUSH2 0x4E80 JUMPI PUSH1 0x40 MLOAD PUSH3 0x461BCD PUSH1 0xE5 SHL DUP2 MSTORE PUSH1 0x4 ADD PUSH2 0x974 SWAP2 SWAP1 PUSH2 0x5B64 JUMP JUMPDEST POP PUSH1 0x0 PUSH2 0x4E8D DUP4 DUP8 PUSH2 0x5D5E JUMP JUMPDEST SWAP1 POP PUSH1 0x0 DUP2 PUSH2 0x4E9E PUSH2 0x2710 DUP9 PUSH2 0x5D5E JUMP JUMPDEST PUSH2 0x4EA8 SWAP2 SWAP1 PUSH2 0x5D46 JUMP JUMPDEST PUSH2 0x4EB2 DUP4 DUP8 PUSH2 0x5D5E JUMP JUMPDEST PUSH2 0x18DA SWAP2 SWAP1 PUSH2 0x5D93 JUMP JUMPDEST PUSH1 0x0 DUP3 PUSH1 0x0 ADD DUP3 DUP2 SLOAD DUP2 LT PUSH2 0x4ED3 JUMPI PUSH2 0x4ED3 PUSH2 0x5BE9 JUMP JUMPDEST SWAP1 PUSH1 0x0 MSTORE PUSH1 0x20 PUSH1 0x0 KECCAK256 ADD SLOAD SWAP1 POP SWAP3 SWAP2 POP POP JUMP JUMPDEST PUSH1 0x0 PUSH1 0x8 PUSH2 0x4EF6 PUSH2 0x3840 TIMESTAMP PUSH2 0x5D93 JUMP JUMPDEST PUSH2 0x4F00 SWAP2 SWAP1 PUSH2 0x5F1B JUMP JUMPDEST SWAP1 POP SWAP1 JUMP JUMPDEST PUSH1 0x0 PUSH2 0x3E8 DUP5 GT DUP1 ISZERO PUSH2 0x4F19 JUMPI POP PUSH2 0x3E8 DUP4 GT JUMPDEST PUSH1 0x1E SWAP1 PUSH2 0x4F39 JUMPI PUSH1 0x40 MLOAD PUSH3 0x461BCD PUSH1 0xE5 SHL DUP2 MSTORE PUSH1 0x4 ADD PUSH2 0x974 SWAP2 SWAP1 PUSH2 0x5B64 JUMP JUMPDEST POP PUSH1 0x0 PUSH2 0x4F46 DUP7 DUP6 PUSH2 0x5C15 JUMP JUMPDEST PUSH2 0x4F50 SWAP1 DUP5 PUSH2 0x5D5E JUMP JUMPDEST PUSH2 0x2710 PUSH2 0x4F5D DUP9 DUP9 PUSH2 0x5D5E JUMP JUMPDEST PUSH2 0x4F67 SWAP2 SWAP1 PUSH2 0x5D5E JUMP JUMPDEST PUSH2 0x4F71 SWAP2 SWAP1 PUSH2 0x5D93 JUMP JUMPDEST PUSH2 0x4F7C SWAP1 PUSH1 0x1 PUSH2 0x5D46 JUMP JUMPDEST SWAP7 SWAP6 POP POP POP POP POP POP JUMP JUMPDEST PUSH1 0x0 DUP2 DUP2 MSTORE PUSH1 0x1 DUP4 ADD PUSH1 0x20 MSTORE PUSH1 0x40 DUP2 KECCAK256 SLOAD DUP1 ISZERO PUSH2 0x506F JUMPI PUSH1 0x0 PUSH2 0x4FAA PUSH1 0x1 DUP4 PUSH2 0x5C15 JUMP JUMPDEST DUP6 SLOAD SWAP1 SWAP2 POP PUSH1 0x0 SWAP1 PUSH2 0x4FBE SWAP1 PUSH1 0x1 SWAP1 PUSH2 0x5C15 JUMP JUMPDEST SWAP1 POP DUP2 DUP2 EQ PUSH2 0x5023 JUMPI PUSH1 0x0 DUP7 PUSH1 0x0 ADD DUP3 DUP2 SLOAD DUP2 LT PUSH2 0x4FDE JUMPI PUSH2 0x4FDE PUSH2 0x5BE9 JUMP JUMPDEST SWAP1 PUSH1 0x0 MSTORE PUSH1 0x20 PUSH1 0x0 KECCAK256 ADD SLOAD SWAP1 POP DUP1 DUP8 PUSH1 0x0 ADD DUP5 DUP2 SLOAD DUP2 LT PUSH2 0x5001 JUMPI PUSH2 0x5001 PUSH2 0x5BE9 JUMP JUMPDEST PUSH1 0x0 SWAP2 DUP3 MSTORE PUSH1 0x20 DUP1 DUP4 KECCAK256 SWAP1 SWAP2 ADD SWAP3 SWAP1 SWAP3 SSTORE SWAP2 DUP3 MSTORE PUSH1 0x1 DUP9 ADD SWAP1 MSTORE PUSH1 0x40 SWAP1 KECCAK256 DUP4 SWAP1 SSTORE JUMPDEST DUP6 SLOAD DUP7 SWAP1 DUP1 PUSH2 0x5034 JUMPI PUSH2 0x5034 PUSH2 0x605E JUMP JUMPDEST PUSH1 0x1 SWAP1 SUB DUP2 DUP2 SWAP1 PUSH1 0x0 MSTORE PUSH1 0x20 PUSH1 0x0 KECCAK256 ADD PUSH1 0x0 SWAP1 SSTORE SWAP1 SSTORE DUP6 PUSH1 0x1 ADD PUSH1 0x0 DUP7 DUP2 MSTORE PUSH1 0x20 ADD SWAP1 DUP2 MSTORE PUSH1 0x20 ADD PUSH1 0x0 KECCAK256 PUSH1 0x0 SWAP1 SSTORE PUSH1 0x1 SWAP4 POP POP POP POP PUSH2 0x9A0 JUMP JUMPDEST PUSH1 0x0 SWAP2 POP POP PUSH2 0x9A0 JUMP JUMPDEST PUSH1 0x40 MLOAD DUP1 PUSH1 0xA0 ADD PUSH1 0x40 MSTORE DUP1 PUSH1 0x0 PUSH1 0x1 PUSH1 0x1 PUSH1 0xA0 SHL SUB AND DUP2 MSTORE PUSH1 0x20 ADD PUSH2 0x509C PUSH2 0x513B JUMP JUMPDEST DUP2 MSTORE PUSH1 0x0 PUSH1 0x20 DUP3 ADD DUP2 SWAP1 MSTORE PUSH1 0x40 DUP3 ADD DUP2 SWAP1 MSTORE PUSH1 0x60 SWAP1 SWAP2 ADD MSTORE SWAP1 JUMP JUMPDEST DUP3 DUP1 SLOAD PUSH2 0x50C3 SWAP1 PUSH2 0x5B2F JUMP JUMPDEST SWAP1 PUSH1 0x0 MSTORE PUSH1 0x20 PUSH1 0x0 KECCAK256 SWAP1 PUSH1 0x1F ADD PUSH1 0x20 SWAP1 DIV DUP2 ADD SWAP3 DUP3 PUSH2 0x50E5 JUMPI PUSH1 0x0 DUP6 SSTORE PUSH2 0x512B JUMP JUMPDEST DUP3 PUSH1 0x1F LT PUSH2 0x50FE JUMPI DUP1 MLOAD PUSH1 0xFF NOT AND DUP4 DUP1 ADD OR DUP6 SSTORE PUSH2 0x512B JUMP JUMPDEST DUP3 DUP1 ADD PUSH1 0x1 ADD DUP6 SSTORE DUP3 ISZERO PUSH2 0x512B JUMPI SWAP2 DUP3 ADD JUMPDEST DUP3 DUP2 GT ISZERO PUSH2 0x512B JUMPI DUP3 MLOAD DUP3 SSTORE SWAP2 PUSH1 0x20 ADD SWAP2 SWAP1 PUSH1 0x1 ADD SWAP1 PUSH2 0x5110 JUMP JUMPDEST POP PUSH2 0x5137 SWAP3 SWAP2 POP PUSH2 0x51ED JUMP JUMPDEST POP SWAP1 JUMP JUMPDEST PUSH1 0x40 MLOAD DUP1 PUSH2 0x100 ADD PUSH1 0x40 MSTORE DUP1 PUSH1 0x8 SWAP1 PUSH1 0x20 DUP3 MUL DUP1 CALLDATASIZE DUP4 CALLDATACOPY POP SWAP2 SWAP3 SWAP2 POP POP JUMP JUMPDEST PUSH1 0x1 DUP4 ADD SWAP2 DUP4 SWAP1 DUP3 ISZERO PUSH2 0x512B JUMPI SWAP2 PUSH1 0x20 MUL DUP3 ADD PUSH1 0x0 JUMPDEST DUP4 DUP3 GT ISZERO PUSH2 0x51B4 JUMPI DUP4 MLOAD DUP4 DUP3 PUSH2 0x100 EXP DUP2 SLOAD DUP2 PUSH4 0xFFFFFFFF MUL NOT AND SWAP1 DUP4 PUSH4 0xFFFFFFFF AND MUL OR SWAP1 SSTORE POP SWAP3 PUSH1 0x20 ADD SWAP3 PUSH1 0x4 ADD PUSH1 0x20 DUP2 PUSH1 0x3 ADD DIV SWAP3 DUP4 ADD SWAP3 PUSH1 0x1 SUB MUL PUSH2 0x5170 JUMP JUMPDEST DUP1 ISZERO PUSH2 0x51E4 JUMPI DUP3 DUP2 PUSH2 0x100 EXP DUP2 SLOAD SWAP1 PUSH4 0xFFFFFFFF MUL NOT AND SWAP1 SSTORE PUSH1 0x4 ADD PUSH1 0x20 DUP2 PUSH1 0x3 ADD DIV SWAP3 DUP4 ADD SWAP3 PUSH1 0x1 SUB MUL PUSH2 0x51B4 JUMP JUMPDEST POP POP PUSH2 0x5137 SWAP3 SWAP2 POP JUMPDEST JUMPDEST DUP1 DUP3 GT ISZERO PUSH2 0x5137 JUMPI PUSH1 0x0 DUP2 SSTORE PUSH1 0x1 ADD PUSH2 0x51EE JUMP JUMPDEST PUSH1 0x1 PUSH1 0x1 PUSH1 0xA0 SHL SUB DUP2 AND DUP2 EQ PUSH2 0x5217 JUMPI PUSH1 0x0 DUP1 REVERT JUMPDEST POP JUMP JUMPDEST PUSH1 0x0 DUP1 PUSH1 0x40 DUP4 DUP6 SUB SLT ISZERO PUSH2 0x522D JUMPI PUSH1 0x0 DUP1 REVERT JUMPDEST DUP3 CALLDATALOAD PUSH2 0x5238 DUP2 PUSH2 0x5202 JUMP JUMPDEST SWAP5 PUSH1 0x20 SWAP4 SWAP1 SWAP4 ADD CALLDATALOAD SWAP4 POP POP POP JUMP JUMPDEST PUSH1 0x1 PUSH1 0x1 PUSH1 0xE0 SHL SUB NOT DUP2 AND DUP2 EQ PUSH2 0x5217 JUMPI PUSH1 0x0 DUP1 REVERT JUMPDEST PUSH1 0x0 PUSH1 0x20 DUP3 DUP5 SUB SLT ISZERO PUSH2 0x526E JUMPI PUSH1 0x0 DUP1 REVERT JUMPDEST DUP2 CALLDATALOAD PUSH2 0x172A DUP2 PUSH2 0x5246 JUMP JUMPDEST PUSH1 0x0 PUSH1 0x20 DUP3 DUP5 SUB SLT ISZERO PUSH2 0x528B JUMPI PUSH1 0x0 DUP1 REVERT JUMPDEST DUP2 CALLDATALOAD PUSH2 0x172A DUP2 PUSH2 0x5202 JUMP JUMPDEST PUSH1 0x0 DUP1 PUSH1 0x20 DUP4 DUP6 SUB SLT ISZERO PUSH2 0x52A9 JUMPI PUSH1 0x0 DUP1 REVERT JUMPDEST DUP3 CALLDATALOAD PUSH1 0x1 PUSH1 0x1 PUSH1 0x40 SHL SUB DUP1 DUP3 GT ISZERO PUSH2 0x52C0 JUMPI PUSH1 0x0 DUP1 REVERT JUMPDEST DUP2 DUP6 ADD SWAP2 POP DUP6 PUSH1 0x1F DUP4 ADD SLT PUSH2 0x52D4 JUMPI PUSH1 0x0 DUP1 REVERT JUMPDEST DUP2 CALLDATALOAD DUP2 DUP2 GT ISZERO PUSH2 0x52E3 JUMPI PUSH1 0x0 DUP1 REVERT JUMPDEST DUP7 PUSH1 0x20 DUP3 PUSH1 0x6 SHL DUP6 ADD ADD GT ISZERO PUSH2 0x52F8 JUMPI PUSH1 0x0 DUP1 REVERT JUMPDEST PUSH1 0x20 SWAP3 SWAP1 SWAP3 ADD SWAP7 SWAP2 SWAP6 POP SWAP1 SWAP4 POP POP POP POP JUMP JUMPDEST PUSH1 0x0 PUSH1 0x20 DUP3 DUP5 SUB SLT ISZERO PUSH2 0x531C JUMPI PUSH1 0x0 DUP1 REVERT JUMPDEST POP CALLDATALOAD SWAP2 SWAP1 POP JUMP JUMPDEST PUSH1 0x0 JUMPDEST DUP4 DUP2 LT ISZERO PUSH2 0x533E JUMPI DUP2 DUP2 ADD MLOAD DUP4 DUP3 ADD MSTORE PUSH1 0x20 ADD PUSH2 0x5326 JUMP JUMPDEST DUP4 DUP2 GT ISZERO PUSH2 0xBB3 JUMPI POP POP PUSH1 0x0 SWAP2 ADD MSTORE JUMP JUMPDEST PUSH1 0x0 DUP2 MLOAD DUP1 DUP5 MSTORE PUSH2 0x5367 DUP2 PUSH1 0x20 DUP7 ADD PUSH1 0x20 DUP7 ADD PUSH2 0x5323 JUMP JUMPDEST PUSH1 0x1F ADD PUSH1 0x1F NOT AND SWAP3 SWAP1 SWAP3 ADD PUSH1 0x20 ADD SWAP3 SWAP2 POP POP JUMP JUMPDEST PUSH1 0x20 DUP2 MSTORE PUSH1 0x0 PUSH2 0x172A PUSH1 0x20 DUP4 ADD DUP5 PUSH2 0x534F JUMP JUMPDEST PUSH1 0x0 PUSH1 0xC0 DUP3 DUP5 SUB SLT ISZERO PUSH2 0x2D94 JUMPI PUSH1 0x0 DUP1 REVERT JUMPDEST PUSH4 0x4E487B71 PUSH1 0xE0 SHL PUSH1 0x0 MSTORE PUSH1 0x41 PUSH1 0x4 MSTORE PUSH1 0x24 PUSH1 0x0 REVERT JUMPDEST PUSH1 0x1F DUP3 ADD PUSH1 0x1F NOT AND DUP2 ADD PUSH1 0x1 PUSH1 0x1 PUSH1 0x40 SHL SUB DUP2 GT DUP3 DUP3 LT OR ISZERO PUSH2 0x53DB JUMPI PUSH2 0x53DB PUSH2 0x53A0 JUMP JUMPDEST PUSH1 0x40 MSTORE POP POP JUMP JUMPDEST PUSH1 0x0 PUSH1 0x1 PUSH1 0x1 PUSH1 0x40 SHL SUB DUP3 GT ISZERO PUSH2 0x53FB JUMPI PUSH2 0x53FB PUSH2 0x53A0 JUMP JUMPDEST POP PUSH1 0x5 SHL PUSH1 0x20 ADD SWAP1 JUMP JUMPDEST PUSH1 0x0 DUP3 PUSH1 0x1F DUP4 ADD SLT PUSH2 0x5416 JUMPI PUSH1 0x0 DUP1 REVERT JUMPDEST DUP2 CALLDATALOAD PUSH1 0x20 PUSH2 0x5423 DUP3 PUSH2 0x53E2 JUMP JUMPDEST PUSH1 0x40 MLOAD PUSH2 0x5430 DUP3 DUP3 PUSH2 0x53B6 JUMP JUMPDEST DUP4 DUP2 MSTORE PUSH1 0x5 SWAP4 SWAP1 SWAP4 SHL DUP6 ADD DUP3 ADD SWAP3 DUP3 DUP2 ADD SWAP2 POP DUP7 DUP5 GT ISZERO PUSH2 0x5450 JUMPI PUSH1 0x0 DUP1 REVERT JUMPDEST DUP3 DUP7 ADD JUMPDEST DUP5 DUP2 LT ISZERO PUSH2 0x546B JUMPI DUP1 CALLDATALOAD DUP4 MSTORE SWAP2 DUP4 ADD SWAP2 DUP4 ADD PUSH2 0x5454 JUMP JUMPDEST POP SWAP7 SWAP6 POP POP POP POP POP POP JUMP JUMPDEST PUSH1 0x0 DUP3 PUSH1 0x1F DUP4 ADD SLT PUSH2 0x5487 JUMPI PUSH1 0x0 DUP1 REVERT JUMPDEST DUP2 CALLDATALOAD PUSH1 0x1 PUSH1 0x1 PUSH1 0x40 SHL SUB DUP2 GT ISZERO PUSH2 0x54A0 JUMPI PUSH2 0x54A0 PUSH2 0x53A0 JUMP JUMPDEST PUSH1 0x40 MLOAD PUSH2 0x54B7 PUSH1 0x1F DUP4 ADD PUSH1 0x1F NOT AND PUSH1 0x20 ADD DUP3 PUSH2 0x53B6 JUMP JUMPDEST DUP2 DUP2 MSTORE DUP5 PUSH1 0x20 DUP4 DUP7 ADD ADD GT ISZERO PUSH2 0x54CC JUMPI PUSH1 0x0 DUP1 REVERT JUMPDEST DUP2 PUSH1 0x20 DUP6 ADD PUSH1 0x20 DUP4 ADD CALLDATACOPY PUSH1 0x0 SWAP2 DUP2 ADD PUSH1 0x20 ADD SWAP2 SWAP1 SWAP2 MSTORE SWAP4 SWAP3 POP POP POP JUMP JUMPDEST PUSH1 0x0 DUP1 PUSH1 0x0 DUP1 PUSH1 0x0 PUSH1 0xA0 DUP7 DUP9 SUB SLT ISZERO PUSH2 0x5501 JUMPI PUSH1 0x0 DUP1 REVERT JUMPDEST DUP6 CALLDATALOAD PUSH2 0x550C DUP2 PUSH2 0x5202 JUMP JUMPDEST SWAP5 POP PUSH1 0x20 DUP7 ADD CALLDATALOAD PUSH2 0x551C DUP2 PUSH2 0x5202 JUMP JUMPDEST SWAP4 POP PUSH1 0x40 DUP7 ADD CALLDATALOAD PUSH1 0x1 PUSH1 0x1 PUSH1 0x40 SHL SUB DUP1 DUP3 GT ISZERO PUSH2 0x5538 JUMPI PUSH1 0x0 DUP1 REVERT JUMPDEST PUSH2 0x5544 DUP10 DUP4 DUP11 ADD PUSH2 0x5405 JUMP JUMPDEST SWAP5 POP PUSH1 0x60 DUP9 ADD CALLDATALOAD SWAP2 POP DUP1 DUP3 GT ISZERO PUSH2 0x555A JUMPI PUSH1 0x0 DUP1 REVERT JUMPDEST PUSH2 0x5566 DUP10 DUP4 DUP11 ADD PUSH2 0x5405 JUMP JUMPDEST SWAP4 POP PUSH1 0x80 DUP9 ADD CALLDATALOAD SWAP2 POP DUP1 DUP3 GT ISZERO PUSH2 0x557C JUMPI PUSH1 0x0 DUP1 REVERT JUMPDEST POP PUSH2 0x5589 DUP9 DUP3 DUP10 ADD PUSH2 0x5476 JUMP JUMPDEST SWAP2 POP POP SWAP3 SWAP6 POP SWAP3 SWAP6 SWAP1 SWAP4 POP JUMP JUMPDEST PUSH1 0x0 DUP1 PUSH1 0x40 DUP4 DUP6 SUB SLT ISZERO PUSH2 0x55A9 JUMPI PUSH1 0x0 DUP1 REVERT JUMPDEST DUP3 CALLDATALOAD SWAP2 POP PUSH1 0x20 DUP4 ADD CALLDATALOAD PUSH2 0x55BB DUP2 PUSH2 0x5202 JUMP JUMPDEST DUP1 SWAP2 POP POP SWAP3 POP SWAP3 SWAP1 POP JUMP JUMPDEST PUSH1 0x0 DUP1 DUP4 PUSH1 0x1F DUP5 ADD SLT PUSH2 0x55D8 JUMPI PUSH1 0x0 DUP1 REVERT JUMPDEST POP DUP2 CALLDATALOAD PUSH1 0x1 PUSH1 0x1 PUSH1 0x40 SHL SUB DUP2 GT ISZERO PUSH2 0x55EF JUMPI PUSH1 0x0 DUP1 REVERT JUMPDEST PUSH1 0x20 DUP4 ADD SWAP2 POP DUP4 PUSH1 0x20 DUP3 PUSH1 0x5 SHL DUP6 ADD ADD GT ISZERO PUSH2 0x560A JUMPI PUSH1 0x0 DUP1 REVERT JUMPDEST SWAP3 POP SWAP3 SWAP1 POP JUMP JUMPDEST PUSH1 0x0 DUP1 PUSH1 0x20 DUP4 DUP6 SUB SLT ISZERO PUSH2 0x5624 JUMPI PUSH1 0x0 DUP1 REVERT JUMPDEST DUP3 CALLDATALOAD PUSH1 0x1 PUSH1 0x1 PUSH1 0x40 SHL SUB DUP2 GT ISZERO PUSH2 0x563A JUMPI PUSH1 0x0 DUP1 REVERT JUMPDEST PUSH2 0x5646 DUP6 DUP3 DUP7 ADD PUSH2 0x55C6 JUMP JUMPDEST SWAP1 SWAP7 SWAP1 SWAP6 POP SWAP4 POP POP POP POP JUMP JUMPDEST PUSH1 0x20 DUP1 DUP3 MSTORE DUP3 MLOAD DUP3 DUP3 ADD DUP2 SWAP1 MSTORE PUSH1 0x0 SWAP2 SWAP1 PUSH1 0x40 SWAP1 DUP2 DUP6 ADD SWAP1 DUP7 DUP5 ADD DUP6 DUP1 JUMPDEST DUP4 DUP2 LT ISZERO PUSH2 0x56F8 JUMPI DUP3 MLOAD DUP1 MLOAD PUSH1 0x1 PUSH1 0x1 PUSH1 0xA0 SHL SUB AND DUP7 MSTORE DUP8 DUP2 ADD MLOAD DUP9 DUP8 ADD DUP5 JUMPDEST PUSH1 0x8 DUP2 LT ISZERO PUSH2 0x56B3 JUMPI DUP3 MLOAD PUSH4 0xFFFFFFFF AND DUP3 MSTORE SWAP2 DUP11 ADD SWAP2 SWAP1 DUP11 ADD SWAP1 PUSH1 0x1 ADD PUSH2 0x5690 JUMP JUMPDEST POP POP POP DUP7 DUP2 ADD MLOAD PUSH1 0x1 PUSH1 0x1 PUSH1 0x80 SHL SUB SWAP1 DUP2 AND PUSH2 0x120 DUP9 ADD MSTORE PUSH1 0x60 DUP3 ADD MLOAD DUP2 AND PUSH2 0x140 DUP9 ADD MSTORE PUSH1 0x80 SWAP1 SWAP2 ADD MLOAD AND PUSH2 0x160 DUP7 ADD MSTORE PUSH2 0x180 SWAP1 SWAP5 ADD SWAP4 SWAP2 DUP7 ADD SWAP2 PUSH1 0x1 ADD PUSH2 0x5670 JUMP JUMPDEST POP SWAP3 SWAP9 SWAP8 POP POP POP POP POP POP POP POP JUMP JUMPDEST PUSH1 0x0 DUP1 PUSH1 0x40 DUP4 DUP6 SUB SLT ISZERO PUSH2 0x5719 JUMPI PUSH1 0x0 DUP1 REVERT JUMPDEST DUP3 CALLDATALOAD PUSH1 0x1 PUSH1 0x1 PUSH1 0x40 SHL SUB DUP1 DUP3 GT ISZERO PUSH2 0x5730 JUMPI PUSH1 0x0 DUP1 REVERT JUMPDEST PUSH2 0x573C DUP7 DUP4 DUP8 ADD PUSH2 0x5476 JUMP JUMPDEST SWAP4 POP PUSH1 0x20 DUP6 ADD CALLDATALOAD SWAP2 POP DUP1 DUP3 GT ISZERO PUSH2 0x5752 JUMPI PUSH1 0x0 DUP1 REVERT JUMPDEST POP PUSH2 0x575F DUP6 DUP3 DUP7 ADD PUSH2 0x5476 JUMP JUMPDEST SWAP2 POP POP SWAP3 POP SWAP3 SWAP1 POP JUMP JUMPDEST PUSH1 0x0 DUP1 PUSH1 0x0 DUP1 PUSH1 0x80 DUP6 DUP8 SUB SLT ISZERO PUSH2 0x577F JUMPI PUSH1 0x0 DUP1 REVERT JUMPDEST DUP5 CALLDATALOAD PUSH2 0x578A DUP2 PUSH2 0x5202 JUMP JUMPDEST SWAP4 POP PUSH1 0x20 DUP6 ADD CALLDATALOAD SWAP3 POP PUSH1 0x40 DUP6 ADD CALLDATALOAD SWAP2 POP PUSH1 0x60 DUP6 ADD CALLDATALOAD PUSH2 0x57A8 DUP2 PUSH2 0x5202 JUMP JUMPDEST SWAP4 SWAP7 SWAP3 SWAP6 POP SWAP1 SWAP4 POP POP JUMP JUMPDEST PUSH1 0x0 DUP1 PUSH1 0x0 PUSH1 0x60 DUP5 DUP7 SUB SLT ISZERO PUSH2 0x57C8 JUMPI PUSH1 0x0 DUP1 REVERT JUMPDEST DUP4 CALLDATALOAD PUSH2 0x57D3 DUP2 PUSH2 0x5202 JUMP JUMPDEST SWAP3 POP PUSH1 0x20 DUP5 ADD CALLDATALOAD PUSH2 0x57E3 DUP2 PUSH2 0x5202 JUMP JUMPDEST SWAP3 SWAP6 SWAP3 SWAP5 POP POP POP PUSH1 0x40 SWAP2 SWAP1 SWAP2 ADD CALLDATALOAD SWAP1 JUMP JUMPDEST PUSH1 0x0 DUP1 PUSH1 0x40 DUP4 DUP6 SUB SLT ISZERO PUSH2 0x5807 JUMPI PUSH1 0x0 DUP1 REVERT JUMPDEST DUP3 CALLDATALOAD PUSH1 0x1 PUSH1 0x1 PUSH1 0x40 SHL SUB DUP1 DUP3 GT ISZERO PUSH2 0x581E JUMPI PUSH1 0x0 DUP1 REVERT JUMPDEST DUP2 DUP6 ADD SWAP2 POP DUP6 PUSH1 0x1F DUP4 ADD SLT PUSH2 0x5832 JUMPI PUSH1 0x0 DUP1 REVERT JUMPDEST DUP2 CALLDATALOAD PUSH1 0x20 PUSH2 0x583F DUP3 PUSH2 0x53E2 JUMP JUMPDEST PUSH1 0x40 MLOAD PUSH2 0x584C DUP3 DUP3 PUSH2 0x53B6 JUMP JUMPDEST DUP4 DUP2 MSTORE PUSH1 0x5 SWAP4 SWAP1 SWAP4 SHL DUP6 ADD DUP3 ADD SWAP3 DUP3 DUP2 ADD SWAP2 POP DUP10 DUP5 GT ISZERO PUSH2 0x586C JUMPI PUSH1 0x0 DUP1 REVERT JUMPDEST SWAP5 DUP3 ADD SWAP5 JUMPDEST DUP4 DUP7 LT ISZERO PUSH2 0x5893 JUMPI DUP6 CALLDATALOAD PUSH2 0x5884 DUP2 PUSH2 0x5202 JUMP JUMPDEST DUP3 MSTORE SWAP5 DUP3 ADD SWAP5 SWAP1 DUP3 ADD SWAP1 PUSH2 0x5871 JUMP JUMPDEST SWAP7 POP POP DUP7 ADD CALLDATALOAD SWAP3 POP POP DUP1 DUP3 GT ISZERO PUSH2 0x58A9 JUMPI PUSH1 0x0 DUP1 REVERT JUMPDEST POP PUSH2 0x575F DUP6 DUP3 DUP7 ADD PUSH2 0x5405 JUMP JUMPDEST PUSH1 0x20 DUP1 DUP3 MSTORE DUP3 MLOAD DUP3 DUP3 ADD DUP2 SWAP1 MSTORE PUSH1 0x0 SWAP2 SWAP1 DUP5 DUP3 ADD SWAP1 PUSH1 0x40 DUP6 ADD SWAP1 DUP5 JUMPDEST DUP2 DUP2 LT ISZERO PUSH2 0x58EE JUMPI DUP4 MLOAD DUP4 MSTORE SWAP3 DUP5 ADD SWAP3 SWAP2 DUP5 ADD SWAP2 PUSH1 0x1 ADD PUSH2 0x58D2 JUMP JUMPDEST POP SWAP1 SWAP7 SWAP6 POP POP POP POP POP POP JUMP JUMPDEST PUSH1 0x0 DUP1 PUSH1 0x40 DUP4 DUP6 SUB SLT ISZERO PUSH2 0x590D JUMPI PUSH1 0x0 DUP1 REVERT JUMPDEST POP POP DUP1 CALLDATALOAD SWAP3 PUSH1 0x20 SWAP1 SWAP2 ADD CALLDATALOAD SWAP2 POP JUMP JUMPDEST DUP1 ISZERO ISZERO DUP2 EQ PUSH2 0x5217 JUMPI PUSH1 0x0 DUP1 REVERT JUMPDEST PUSH1 0x0 DUP1 PUSH1 0x40 DUP4 DUP6 SUB SLT ISZERO PUSH2 0x593D JUMPI PUSH1 0x0 DUP1 REVERT JUMPDEST DUP3 CALLDATALOAD PUSH2 0x5948 DUP2 PUSH2 0x5202 JUMP JUMPDEST SWAP2 POP PUSH1 0x20 DUP4 ADD CALLDATALOAD PUSH2 0x55BB DUP2 PUSH2 0x591C JUMP JUMPDEST PUSH1 0x0 DUP1 PUSH1 0x0 DUP1 PUSH1 0x0 DUP1 PUSH1 0xC0 DUP8 DUP10 SUB SLT ISZERO PUSH2 0x5971 JUMPI PUSH1 0x0 DUP1 REVERT JUMPDEST DUP7 CALLDATALOAD PUSH2 0x597C DUP2 PUSH2 0x5202 JUMP JUMPDEST SWAP6 POP PUSH1 0x20 DUP8 ADD CALLDATALOAD PUSH2 0x598C DUP2 PUSH2 0x5202 JUMP JUMPDEST SWAP5 POP PUSH1 0x40 DUP8 ADD CALLDATALOAD SWAP4 POP PUSH1 0x60 DUP8 ADD CALLDATALOAD SWAP3 POP PUSH1 0x80 DUP8 ADD CALLDATALOAD SWAP2 POP PUSH1 0xA0 DUP8 ADD CALLDATALOAD PUSH2 0x59B1 DUP2 PUSH2 0x5202 JUMP JUMPDEST DUP1 SWAP2 POP POP SWAP3 SWAP6 POP SWAP3 SWAP6 POP SWAP3 SWAP6 JUMP JUMPDEST PUSH1 0x0 PUSH1 0x20 DUP3 DUP5 SUB SLT ISZERO PUSH2 0x59D1 JUMPI PUSH1 0x0 DUP1 REVERT JUMPDEST DUP2 CALLDATALOAD PUSH1 0x1 PUSH1 0x1 PUSH1 0x40 SHL SUB DUP2 GT ISZERO PUSH2 0x59E7 JUMPI PUSH1 0x0 DUP1 REVERT JUMPDEST PUSH2 0x2E08 DUP5 DUP3 DUP6 ADD PUSH2 0x5476 JUMP JUMPDEST PUSH1 0x0 DUP1 PUSH1 0x40 DUP4 DUP6 SUB SLT ISZERO PUSH2 0x5A06 JUMPI PUSH1 0x0 DUP1 REVERT JUMPDEST DUP3 CALLDATALOAD PUSH2 0x5A11 DUP2 PUSH2 0x5202 JUMP JUMPDEST SWAP2 POP PUSH1 0x20 DUP4 ADD CALLDATALOAD PUSH2 0x55BB DUP2 PUSH2 0x5202 JUMP JUMPDEST PUSH1 0x0 DUP1 PUSH1 0x0 DUP1 PUSH1 0x0 PUSH1 0xA0 DUP7 DUP9 SUB SLT ISZERO PUSH2 0x5A39 JUMPI PUSH1 0x0 DUP1 REVERT JUMPDEST DUP6 CALLDATALOAD PUSH2 0x5A44 DUP2 PUSH2 0x5202 JUMP JUMPDEST SWAP5 POP PUSH1 0x20 DUP7 ADD CALLDATALOAD PUSH2 0x5A54 DUP2 PUSH2 0x5202 JUMP JUMPDEST SWAP4 POP PUSH1 0x40 DUP7 ADD CALLDATALOAD PUSH2 0x5A64 DUP2 PUSH2 0x5202 JUMP JUMPDEST SWAP3 POP PUSH1 0x60 DUP7 ADD CALLDATALOAD PUSH2 0x5A74 DUP2 PUSH2 0x5202 JUMP JUMPDEST SWAP2 POP PUSH1 0x80 DUP7 ADD CALLDATALOAD PUSH2 0x5A84 DUP2 PUSH2 0x5202 JUMP JUMPDEST DUP1 SWAP2 POP POP SWAP3 SWAP6 POP SWAP3 SWAP6 SWAP1 SWAP4 POP JUMP JUMPDEST PUSH1 0x0 DUP1 PUSH1 0x0 DUP1 PUSH1 0x0 PUSH1 0xA0 DUP7 DUP9 SUB SLT ISZERO PUSH2 0x5AAA JUMPI PUSH1 0x0 DUP1 REVERT JUMPDEST DUP6 CALLDATALOAD PUSH2 0x5AB5 DUP2 PUSH2 0x5202 JUMP JUMPDEST SWAP5 POP PUSH1 0x20 DUP7 ADD CALLDATALOAD PUSH2 0x5AC5 DUP2 PUSH2 0x5202 JUMP JUMPDEST SWAP4 POP PUSH1 0x40 DUP7 ADD CALLDATALOAD SWAP3 POP PUSH1 0x60 DUP7 ADD CALLDATALOAD SWAP2 POP PUSH1 0x80 DUP7 ADD CALLDATALOAD PUSH1 0x1 PUSH1 0x1 PUSH1 0x40 SHL SUB DUP2 GT ISZERO PUSH2 0x5AEE JUMPI PUSH1 0x0 DUP1 REVERT JUMPDEST PUSH2 0x5589 DUP9 DUP3 DUP10 ADD PUSH2 0x5476 JUMP JUMPDEST PUSH1 0x0 DUP1 PUSH1 0x0 PUSH1 0x60 DUP5 DUP7 SUB SLT ISZERO PUSH2 0x5B0F JUMPI PUSH1 0x0 DUP1 REVERT JUMPDEST DUP4 CALLDATALOAD PUSH2 0x5B1A DUP2 PUSH2 0x5202 JUMP JUMPDEST SWAP6 PUSH1 0x20 DUP6 ADD CALLDATALOAD SWAP6 POP PUSH1 0x40 SWAP1 SWAP5 ADD CALLDATALOAD SWAP4 SWAP3 POP POP POP JUMP JUMPDEST PUSH1 0x1 DUP2 DUP2 SHR SWAP1 DUP3 AND DUP1 PUSH2 0x5B43 JUMPI PUSH1 0x7F DUP3 AND SWAP2 POP JUMPDEST PUSH1 0x20 DUP3 LT DUP2 EQ ISZERO PUSH2 0x2D94 JUMPI PUSH4 0x4E487B71 PUSH1 0xE0 SHL PUSH1 0x0 MSTORE PUSH1 0x22 PUSH1 0x4 MSTORE PUSH1 0x24 PUSH1 0x0 REVERT JUMPDEST PUSH1 0x0 PUSH1 0x20 DUP1 DUP4 MSTORE PUSH1 0x0 DUP5 SLOAD PUSH2 0x5B78 DUP2 PUSH2 0x5B2F JUMP JUMPDEST DUP1 DUP5 DUP8 ADD MSTORE PUSH1 0x40 PUSH1 0x1 DUP1 DUP5 AND PUSH1 0x0 DUP2 EQ PUSH2 0x5B99 JUMPI PUSH1 0x1 DUP2 EQ PUSH2 0x5BAD JUMPI PUSH2 0x5BDB JUMP JUMPDEST PUSH1 0xFF NOT DUP6 AND DUP10 DUP5 ADD MSTORE PUSH1 0x60 DUP10 ADD SWAP6 POP PUSH2 0x5BDB JUMP JUMPDEST DUP10 PUSH1 0x0 MSTORE DUP7 PUSH1 0x0 KECCAK256 PUSH1 0x0 JUMPDEST DUP6 DUP2 LT ISZERO PUSH2 0x5BD3 JUMPI DUP2 SLOAD DUP12 DUP3 ADD DUP7 ADD MSTORE SWAP1 DUP4 ADD SWAP1 DUP9 ADD PUSH2 0x5BB8 JUMP JUMPDEST DUP11 ADD DUP5 ADD SWAP7 POP POP JUMPDEST POP SWAP4 SWAP9 SWAP8 POP POP POP POP POP POP POP POP JUMP JUMPDEST PUSH4 0x4E487B71 PUSH1 0xE0 SHL PUSH1 0x0 MSTORE PUSH1 0x32 PUSH1 0x4 MSTORE PUSH1 0x24 PUSH1 0x0 REVERT JUMPDEST PUSH4 0x4E487B71 PUSH1 0xE0 SHL PUSH1 0x0 MSTORE PUSH1 0x11 PUSH1 0x4 MSTORE PUSH1 0x24 PUSH1 0x0 REVERT JUMPDEST PUSH1 0x0 DUP3 DUP3 LT ISZERO PUSH2 0x5C27 JUMPI PUSH2 0x5C27 PUSH2 0x5BFF JUMP JUMPDEST POP SUB SWAP1 JUMP JUMPDEST PUSH1 0x0 PUSH1 0x0 NOT DUP3 EQ ISZERO PUSH2 0x5C40 JUMPI PUSH2 0x5C40 PUSH2 0x5BFF JUMP JUMPDEST POP PUSH1 0x1 ADD SWAP1 JUMP JUMPDEST PUSH1 0x0 PUSH1 0x20 DUP3 DUP5 SUB SLT ISZERO PUSH2 0x5C59 JUMPI PUSH1 0x0 DUP1 REVERT JUMPDEST DUP2 MLOAD PUSH2 0x172A DUP2 PUSH2 0x5202 JUMP JUMPDEST DUP2 CALLDATALOAD PUSH2 0x5C6F DUP2 PUSH2 0x5202 JUMP JUMPDEST DUP2 SLOAD PUSH1 0x1 PUSH1 0x1 PUSH1 0xA0 SHL SUB NOT AND PUSH1 0x1 PUSH1 0x1 PUSH1 0xA0 SHL SUB SWAP2 SWAP1 SWAP2 AND OR DUP2 SSTORE PUSH1 0x20 DUP3 ADD CALLDATALOAD PUSH1 0x1 DUP3 ADD SSTORE PUSH1 0x40 DUP3 ADD CALLDATALOAD PUSH1 0x2 DUP3 ADD SSTORE PUSH1 0x60 DUP3 ADD CALLDATALOAD PUSH1 0x3 DUP3 ADD SSTORE PUSH1 0x80 DUP3 ADD CALLDATALOAD PUSH1 0x4 DUP3 ADD SSTORE PUSH1 0xA0 SWAP2 SWAP1 SWAP2 ADD CALLDATALOAD PUSH1 0x5 SWAP1 SWAP2 ADD SSTORE JUMP JUMPDEST PUSH1 0x0 DUP1 DUP5 SLOAD PUSH2 0x5CCF DUP2 PUSH2 0x5B2F JUMP JUMPDEST PUSH1 0x1 DUP3 DUP2 AND DUP1 ISZERO PUSH2 0x5CE7 JUMPI PUSH1 0x1 DUP2 EQ PUSH2 0x5CF8 JUMPI PUSH2 0x5D27 JUMP JUMPDEST PUSH1 0xFF NOT DUP5 AND DUP8 MSTORE DUP3 DUP8 ADD SWAP5 POP PUSH2 0x5D27 JUMP JUMPDEST DUP9 PUSH1 0x0 MSTORE PUSH1 0x20 DUP1 PUSH1 0x0 KECCAK256 PUSH1 0x0 JUMPDEST DUP6 DUP2 LT ISZERO PUSH2 0x5D1E JUMPI DUP2 SLOAD DUP11 DUP3 ADD MSTORE SWAP1 DUP5 ADD SWAP1 DUP3 ADD PUSH2 0x5D05 JUMP JUMPDEST POP POP POP DUP3 DUP8 ADD SWAP5 POP JUMPDEST POP POP POP SWAP4 DUP2 MSTORE PUSH5 0x173539B7B7 PUSH1 0xD9 SHL PUSH1 0x20 DUP3 ADD MSTORE PUSH1 0x25 ADD SWAP5 SWAP4 POP POP POP POP JUMP JUMPDEST PUSH1 0x0 DUP3 NOT DUP3 GT ISZERO PUSH2 0x5D59 JUMPI PUSH2 0x5D59 PUSH2 0x5BFF JUMP JUMPDEST POP ADD SWAP1 JUMP JUMPDEST PUSH1 0x0 DUP2 PUSH1 0x0 NOT DIV DUP4 GT DUP3 ISZERO ISZERO AND ISZERO PUSH2 0x5D78 JUMPI PUSH2 0x5D78 PUSH2 0x5BFF JUMP JUMPDEST POP MUL SWAP1 JUMP JUMPDEST PUSH4 0x4E487B71 PUSH1 0xE0 SHL PUSH1 0x0 MSTORE PUSH1 0x12 PUSH1 0x4 MSTORE PUSH1 0x24 PUSH1 0x0 REVERT JUMPDEST PUSH1 0x0 DUP3 PUSH2 0x5DA2 JUMPI PUSH2 0x5DA2 PUSH2 0x5D7D JUMP JUMPDEST POP DIV SWAP1 JUMP JUMPDEST PUSH1 0x0 PUSH1 0x1 PUSH1 0x1 PUSH1 0x80 SHL SUB DUP1 DUP4 AND DUP2 DUP6 AND DUP1 DUP4 SUB DUP3 GT ISZERO PUSH2 0x5DC9 JUMPI PUSH2 0x5DC9 PUSH2 0x5BFF JUMP JUMPDEST ADD SWAP5 SWAP4 POP POP POP POP JUMP JUMPDEST PUSH1 0x0 PUSH1 0x1 PUSH1 0x1 PUSH1 0x80 SHL SUB DUP4 DUP2 AND SWAP1 DUP4 AND DUP2 DUP2 LT ISZERO PUSH2 0x5DF2 JUMPI PUSH2 0x5DF2 PUSH2 0x5BFF JUMP JUMPDEST SUB SWAP4 SWAP3 POP POP POP JUMP JUMPDEST PUSH1 0x0 PUSH1 0x20 DUP3 DUP5 SUB SLT ISZERO PUSH2 0x5E0C JUMPI PUSH1 0x0 DUP1 REVERT JUMPDEST DUP2 MLOAD PUSH2 0x172A DUP2 PUSH2 0x591C JUMP JUMPDEST PUSH1 0x0 DUP3 MLOAD PUSH2 0x5E29 DUP2 DUP5 PUSH1 0x20 DUP8 ADD PUSH2 0x5323 JUMP JUMPDEST PUSH9 0x3DB4B23E973539B7B7 PUSH1 0xB9 SHL SWAP3 ADD SWAP2 DUP3 MSTORE POP PUSH1 0x9 ADD SWAP2 SWAP1 POP JUMP JUMPDEST PUSH1 0x20 DUP1 DUP3 MSTORE PUSH1 0x29 SWAP1 DUP3 ADD MSTORE PUSH32 0x455243313135353A2063616C6C6572206973206E6F74206F776E6572206E6F72 PUSH1 0x40 DUP3 ADD MSTORE PUSH9 0x8185C1C1C9BDD9959 PUSH1 0xBA SHL PUSH1 0x60 DUP3 ADD MSTORE PUSH1 0x80 ADD SWAP1 JUMP JUMPDEST PUSH1 0x0 PUSH1 0x20 DUP3 DUP5 SUB SLT ISZERO PUSH2 0x5E9F JUMPI PUSH1 0x0 DUP1 REVERT JUMPDEST POP MLOAD SWAP2 SWAP1 POP JUMP JUMPDEST PUSH32 0x416363657373436F6E74726F6C3A206163636F756E7420000000000000000000 DUP2 MSTORE PUSH1 0x0 DUP4 MLOAD PUSH2 0x5EDE DUP2 PUSH1 0x17 DUP6 ADD PUSH1 0x20 DUP9 ADD PUSH2 0x5323 JUMP JUMPDEST PUSH17 0x1034B99036B4B9B9B4B733903937B6329 PUSH1 0x7D SHL PUSH1 0x17 SWAP2 DUP5 ADD SWAP2 DUP3 ADD MSTORE DUP4 MLOAD PUSH2 0x5F0F DUP2 PUSH1 0x28 DUP5 ADD PUSH1 0x20 DUP9 ADD PUSH2 0x5323 JUMP JUMPDEST ADD PUSH1 0x28 ADD SWAP5 SWAP4 POP POP POP POP JUMP JUMPDEST PUSH1 0x0 DUP3 PUSH2 0x5F2A JUMPI PUSH2 0x5F2A PUSH2 0x5D7D JUMP JUMPDEST POP MOD SWAP1 JUMP JUMPDEST PUSH1 0x0 DUP3 MLOAD PUSH2 0x5F41 DUP2 DUP5 PUSH1 0x20 DUP8 ADD PUSH2 0x5323 JUMP JUMPDEST SWAP2 SWAP1 SWAP2 ADD SWAP3 SWAP2 POP POP JUMP JUMPDEST PUSH1 0x0 DUP2 PUSH2 0x5F5A JUMPI PUSH2 0x5F5A PUSH2 0x5BFF JUMP JUMPDEST POP PUSH1 0x0 NOT ADD SWAP1 JUMP JUMPDEST PUSH1 0x1 PUSH1 0x1 PUSH1 0xA0 SHL SUB DUP7 DUP2 AND DUP3 MSTORE DUP6 AND PUSH1 0x20 DUP3 ADD MSTORE PUSH1 0x40 DUP2 ADD DUP5 SWAP1 MSTORE PUSH1 0x60 DUP2 ADD DUP4 SWAP1 MSTORE PUSH1 0xA0 PUSH1 0x80 DUP3 ADD DUP2 SWAP1 MSTORE PUSH1 0x0 SWAP1 PUSH2 0x18DA SWAP1 DUP4 ADD DUP5 PUSH2 0x534F JUMP JUMPDEST PUSH1 0x0 PUSH1 0x20 DUP3 DUP5 SUB SLT ISZERO PUSH2 0x5FAE JUMPI PUSH1 0x0 DUP1 REVERT JUMPDEST DUP2 MLOAD PUSH2 0x172A DUP2 PUSH2 0x5246 JUMP JUMPDEST PUSH1 0x0 PUSH1 0x3 RETURNDATASIZE GT ISZERO PUSH2 0x5FD2 JUMPI PUSH1 0x4 PUSH1 0x0 DUP1 RETURNDATACOPY POP PUSH1 0x0 MLOAD PUSH1 0xE0 SHR JUMPDEST SWAP1 JUMP JUMPDEST PUSH1 0x0 PUSH1 0x44 RETURNDATASIZE LT ISZERO PUSH2 0x5FE3 JUMPI SWAP1 JUMP JUMPDEST PUSH1 0x40 MLOAD PUSH1 0x3 NOT RETURNDATASIZE DUP2 ADD PUSH1 0x4 DUP4 RETURNDATACOPY DUP2 MLOAD RETURNDATASIZE PUSH1 0x1 PUSH1 0x1 PUSH1 0x40 SHL SUB DUP2 PUSH1 0x24 DUP5 ADD GT DUP2 DUP5 GT OR ISZERO PUSH2 0x6012 JUMPI POP POP POP POP POP SWAP1 JUMP JUMPDEST DUP3 DUP6 ADD SWAP2 POP DUP2 MLOAD DUP2 DUP2 GT ISZERO PUSH2 0x602A JUMPI POP POP POP POP POP POP SWAP1 JUMP JUMPDEST DUP5 RETURNDATASIZE DUP8 ADD ADD PUSH1 0x20 DUP3 DUP6 ADD ADD GT ISZERO PUSH2 0x6044 JUMPI POP POP POP POP POP POP SWAP1 JUMP JUMPDEST PUSH2 0x6053 PUSH1 0x20 DUP3 DUP7 ADD ADD DUP8 PUSH2 0x53B6 JUMP JUMPDEST POP SWAP1 SWAP6 SWAP5 POP POP POP POP POP JUMP JUMPDEST PUSH4 0x4E487B71 PUSH1 0xE0 SHL PUSH1 0x0 MSTORE PUSH1 0x31 PUSH1 0x4 MSTORE PUSH1 0x24 PUSH1 0x0 REVERT INVALID LOG2 PUSH5 0x6970667358 0x22 SLT KECCAK256 PUSH20 0xC2B7A6D9B73882AACD0647889D33F84EC7E0B66C PUSH3 0xFE773 MSIZE 0xD2 PUSH22 0x3F8239B864736F6C634300080B003368747470733A2F 0x2F PUSH5 0x6174612E63 PUSH6 0x7262792E6669 0x2F NUMBER PUSH6 0x726279537761 PUSH17 0x2F76312F00000000000000000000000000 "
		},
		"gasEstimates": {
			"creation": {
				"codeDepositCost": "4949200",
				"executionCost": "infinite",
				"totalCost": "infinite"
			},
			"external": {
				"ROLE_ADMIN()": "251",
				"addTokenLiquidity(address,uint256,uint256,address)": "infinite",
				"adminCreatePool(address,uint256,uint256,address)": "infinite",
				"adminInitialize()": "infinite",
				"adminSetURI(string)": "infinite",
				"adminUpdateFeesAndTvlMultipliers((address,uint256,uint256,uint256,uint256,uint256))": "infinite",
				"adminUpdateNameAndSymbol(string,string)": "infinite",
				"balanceOf(address,uint256)": "2717",
				"balanceOfBatch(address[],uint256[])": "infinite",
				"burn(address,uint256,uint256)": "infinite",
				"decimals()": "249",
				"exists(uint256)": "2539",
				"getCurrentFeeBasedOnTrades(address)": "infinite",
				"getInputTokensForExactTokens(address,address,uint256)": "infinite",
				"getOutputExactTokensForTokens(address,address,uint256)": "infinite",
				"getPoolsByIds(uint256[])": "infinite",
				"getPoolsByTokens(address[])": "infinite",
				"getRoleAdmin(bytes32)": "2567",
				"getRoleMember(bytes32,uint256)": "infinite",
				"getRoleMemberCount(bytes32)": "infinite",
				"getUtilsContractAtPos(uint256)": "infinite",
				"gettokenToPoolId(address)": "2653",
				"grantRole(bytes32,address)": "infinite",
				"grantRolesBulk((bytes32,address)[])": "infinite",
				"hasRole(bytes32,address)": "2710",
				"isApprovedForAll(address,address)": "infinite",
				"name()": "infinite",
				"removeTokenLiquidity(address,uint256,uint256,address)": "infinite",
				"renounceRole(bytes32,address)": "infinite",
				"revokeRole(bytes32,address)": "infinite",
				"safeBatchTransferFrom(address,address,uint256[],uint256[],bytes)": "infinite",
				"safeTransferFrom(address,address,uint256,uint256,bytes)": "infinite",
				"setApprovalForAll(address,bool)": "infinite",
				"settings()": "13118",
				"skimPool(address)": "infinite",
				"supportsInterface(bytes4)": "infinite",
				"swap(address,uint256,uint256,address)": "infinite",
				"swapExactTokensForTokens(address,address,uint256,uint256,uint256,address)": "infinite",
				"swapTokensForExactTokens(address,address,uint256,uint256,uint256,address)": "infinite",
				"symbol()": "infinite",
				"syncTokenBalanceInPool(address)": "infinite",
				"testInit()": "infinite",
				"testSetupTokens(address,address,address,address,address)": "infinite",
				"totalBatchSupply(uint256[])": "infinite",
				"totalSupply()": "infinite",
				"totalSupply(uint256)": "2538",
				"uri(uint256)": "infinite"
			},
			"internal": {
				"_getInput(uint256,uint256,uint256,uint256)": "infinite",
				"_getMintFeeLiquidityAmount(uint256,uint256,uint256)": "infinite",
				"_getOutput(uint256,uint256,uint256,uint256)": "infinite",
				"_getTokenBalance(address)": "infinite",
				"_removeTokenLiquidity(address,uint256,address)": "infinite",
				"_safeTransferFrom(address,address,address,uint256)": "infinite",
				"_safeTransferFromHelper(address,address,uint256)": "infinite",
				"_safeTransferHelper(address,address,uint256,bool)": "infinite",
				"_safeTransferNative(address,uint256)": "infinite",
				"_safeTransferToken(address,address,uint256)": "infinite",
				"_swap(address,uint256,uint256,address)": "infinite",
				"getCurrentFeeBasedOnTrades(uint256)": "infinite",
				"getCurrentPeriod()": "142",
				"getInputCerUsdForExactTokens(address,uint256)": "infinite",
				"getInputTokensForExactCerUsd(address,uint256)": "infinite",
				"getOutputExactCerUsdForTokens(address,uint256)": "infinite",
				"getOutputExactTokensForCerUsd(address,uint256)": "infinite",
				"sqrt(uint256)": "infinite"
			}
		},
		"methodIdentifiers": {
			"ROLE_ADMIN()": "d391014b",
			"addTokenLiquidity(address,uint256,uint256,address)": "43fefad4",
			"adminCreatePool(address,uint256,uint256,address)": "d5d60737",
			"adminInitialize()": "c09c923b",
			"adminSetURI(string)": "a7fd40bf",
			"adminUpdateFeesAndTvlMultipliers((address,uint256,uint256,uint256,uint256,uint256))": "0c2e075b",
			"adminUpdateNameAndSymbol(string,string)": "3935ac11",
			"balanceOf(address,uint256)": "00fdd58e",
			"balanceOfBatch(address[],uint256[])": "4e1273f4",
			"burn(address,uint256,uint256)": "f5298aca",
			"decimals()": "313ce567",
			"exists(uint256)": "4f558e79",
			"getCurrentFeeBasedOnTrades(address)": "9162ebf0",
			"getInputTokensForExactTokens(address,address,uint256)": "c790985a",
			"getOutputExactTokensForTokens(address,address,uint256)": "48b08d62",
			"getPoolsByIds(uint256[])": "a6d8ad39",
			"getPoolsByTokens(address[])": "34e150ab",
			"getRoleAdmin(bytes32)": "248a9ca3",
			"getRoleMember(bytes32,uint256)": "9010d07c",
			"getRoleMemberCount(bytes32)": "ca15c873",
			"getUtilsContractAtPos(uint256)": "06fb1a07",
			"gettokenToPoolId(address)": "da0bcf40",
			"grantRole(bytes32,address)": "2f2ff15d",
			"grantRolesBulk((bytes32,address)[])": "03ed957f",
			"hasRole(bytes32,address)": "91d14854",
			"isApprovedForAll(address,address)": "e985e9c5",
			"name()": "06fdde03",
			"removeTokenLiquidity(address,uint256,uint256,address)": "74fcf071",
			"renounceRole(bytes32,address)": "36568abe",
			"revokeRole(bytes32,address)": "d547741f",
			"safeBatchTransferFrom(address,address,uint256[],uint256[],bytes)": "2eb2c2d6",
			"safeTransferFrom(address,address,uint256,uint256,bytes)": "f242432a",
			"setApprovalForAll(address,bool)": "a22cb465",
			"settings()": "e06174e4",
			"skimPool(address)": "03d604bd",
			"supportsInterface(bytes4)": "01ffc9a7",
			"swap(address,uint256,uint256,address)": "f3e6ea8a",
			"swapExactTokensForTokens(address,address,uint256,uint256,uint256,address)": "a60c6e55",
			"swapTokensForExactTokens(address,address,uint256,uint256,uint256,address)": "f6524724",
			"symbol()": "95d89b41",
			"syncTokenBalanceInPool(address)": "9bc731fc",
			"testInit()": "b5d11e99",
			"testSetupTokens(address,address,address,address,address)": "eca01093",
			"totalBatchSupply(uint256[])": "a5534d7c",
			"totalSupply()": "18160ddd",
			"totalSupply(uint256)": "bd85b039",
			"uri(uint256)": "0e89341c"
		}
	},
	"abi": [
		{
			"inputs": [],
			"stateMutability": "nonpayable",
			"type": "constructor"
		},
		{
			"anonymous": false,
			"inputs": [
				{
					"indexed": true,
					"internalType": "address",
					"name": "account",
					"type": "address"
				},
				{
					"indexed": true,
					"internalType": "address",
					"name": "operator",
					"type": "address"
				},
				{
					"indexed": false,
					"internalType": "bool",
					"name": "approved",
					"type": "bool"
				}
			],
			"name": "ApprovalForAll",
			"type": "event"
		},
		{
			"anonymous": false,
			"inputs": [
				{
					"indexed": false,
					"internalType": "address",
					"name": "token",
					"type": "address"
				},
				{
					"indexed": false,
					"internalType": "uint256",
					"name": "amountTokensIn",
					"type": "uint256"
				},
				{
					"indexed": false,
					"internalType": "uint256",
					"name": "mintCerUsdAmount",
					"type": "uint256"
				},
				{
					"indexed": false,
					"internalType": "uint256",
					"name": "lpAmount",
					"type": "uint256"
				}
			],
			"name": "LiquidityAdded",
			"type": "event"
		},
		{
			"anonymous": false,
			"inputs": [
				{
					"indexed": false,
					"internalType": "address",
					"name": "token",
					"type": "address"
				},
				{
					"indexed": false,
					"internalType": "uint256",
					"name": "amountTokensOut",
					"type": "uint256"
				},
				{
					"indexed": false,
					"internalType": "uint256",
					"name": "amountCerUsdToBurn",
					"type": "uint256"
				},
				{
					"indexed": false,
					"internalType": "uint256",
					"name": "amountLpTokensBalanceToBurn",
					"type": "uint256"
				}
			],
			"name": "LiquidityRemoved",
			"type": "event"
		},
		{
			"anonymous": false,
			"inputs": [
				{
					"indexed": false,
					"internalType": "address",
					"name": "token",
					"type": "address"
				},
				{
					"indexed": false,
					"internalType": "uint256",
					"name": "amountTokensIn",
					"type": "uint256"
				},
				{
					"indexed": false,
					"internalType": "uint256",
					"name": "amountCerUsdIn",
					"type": "uint256"
				},
				{
					"indexed": false,
					"internalType": "uint256",
					"name": "lpAmount",
					"type": "uint256"
				},
				{
					"indexed": false,
					"internalType": "uint256",
					"name": "poolId",
					"type": "uint256"
				}
			],
			"name": "PairCreated",
			"type": "event"
		},
		{
			"anonymous": false,
			"inputs": [
				{
					"indexed": true,
					"internalType": "bytes32",
					"name": "role",
					"type": "bytes32"
				},
				{
					"indexed": true,
					"internalType": "bytes32",
					"name": "previousAdminRole",
					"type": "bytes32"
				},
				{
					"indexed": true,
					"internalType": "bytes32",
					"name": "newAdminRole",
					"type": "bytes32"
				}
			],
			"name": "RoleAdminChanged",
			"type": "event"
		},
		{
			"anonymous": false,
			"inputs": [
				{
					"indexed": true,
					"internalType": "bytes32",
					"name": "role",
					"type": "bytes32"
				},
				{
					"indexed": true,
					"internalType": "address",
					"name": "account",
					"type": "address"
				},
				{
					"indexed": true,
					"internalType": "address",
					"name": "sender",
					"type": "address"
				}
			],
			"name": "RoleGranted",
			"type": "event"
		},
		{
			"anonymous": false,
			"inputs": [
				{
					"indexed": true,
					"internalType": "bytes32",
					"name": "role",
					"type": "bytes32"
				},
				{
					"indexed": true,
					"internalType": "address",
					"name": "account",
					"type": "address"
				},
				{
					"indexed": true,
					"internalType": "address",
					"name": "sender",
					"type": "address"
				}
			],
			"name": "RoleRevoked",
			"type": "event"
		},
		{
			"anonymous": false,
			"inputs": [
				{
					"indexed": false,
					"internalType": "address",
					"name": "token",
					"type": "address"
				},
				{
					"indexed": false,
					"internalType": "address",
					"name": "sender",
					"type": "address"
				},
				{
					"indexed": false,
					"internalType": "uint256",
					"name": "amountTokensIn",
					"type": "uint256"
				},
				{
					"indexed": false,
					"internalType": "uint256",
					"name": "amountCerUsdIn",
					"type": "uint256"
				},
				{
					"indexed": false,
					"internalType": "uint256",
					"name": "amountTokensOut",
					"type": "uint256"
				},
				{
					"indexed": false,
					"internalType": "uint256",
					"name": "amountCerUsdOut",
					"type": "uint256"
				},
				{
					"indexed": false,
					"internalType": "address",
					"name": "transferTo",
					"type": "address"
				}
			],
			"name": "Swap",
			"type": "event"
		},
		{
			"anonymous": false,
			"inputs": [
				{
					"indexed": false,
					"internalType": "address",
					"name": "token",
					"type": "address"
				},
				{
					"indexed": false,
					"internalType": "uint256",
					"name": "balanceToken",
					"type": "uint256"
				},
				{
					"indexed": false,
					"internalType": "uint256",
					"name": "balanceCerUsd",
					"type": "uint256"
				}
			],
			"name": "Sync",
			"type": "event"
		},
		{
			"anonymous": false,
			"inputs": [
				{
					"indexed": true,
					"internalType": "address",
					"name": "operator",
					"type": "address"
				},
				{
					"indexed": true,
					"internalType": "address",
					"name": "from",
					"type": "address"
				},
				{
					"indexed": true,
					"internalType": "address",
					"name": "to",
					"type": "address"
				},
				{
					"indexed": false,
					"internalType": "uint256[]",
					"name": "ids",
					"type": "uint256[]"
				},
				{
					"indexed": false,
					"internalType": "uint256[]",
					"name": "values",
					"type": "uint256[]"
				}
			],
			"name": "TransferBatch",
			"type": "event"
		},
		{
			"anonymous": false,
			"inputs": [
				{
					"indexed": true,
					"internalType": "address",
					"name": "operator",
					"type": "address"
				},
				{
					"indexed": true,
					"internalType": "address",
					"name": "from",
					"type": "address"
				},
				{
					"indexed": true,
					"internalType": "address",
					"name": "to",
					"type": "address"
				},
				{
					"indexed": false,
					"internalType": "uint256",
					"name": "id",
					"type": "uint256"
				},
				{
					"indexed": false,
					"internalType": "uint256",
					"name": "value",
					"type": "uint256"
				}
			],
			"name": "TransferSingle",
			"type": "event"
		},
		{
			"anonymous": false,
			"inputs": [
				{
					"indexed": false,
					"internalType": "string",
					"name": "value",
					"type": "string"
				},
				{
					"indexed": true,
					"internalType": "uint256",
					"name": "id",
					"type": "uint256"
				}
			],
			"name": "URI",
			"type": "event"
		},
		{
			"inputs": [],
			"name": "ROLE_ADMIN",
			"outputs": [
				{
					"internalType": "bytes32",
					"name": "",
					"type": "bytes32"
				}
			],
			"stateMutability": "view",
			"type": "function"
		},
		{
			"inputs": [
				{
					"internalType": "address",
					"name": "token",
					"type": "address"
				},
				{
					"internalType": "uint256",
					"name": "amountTokensIn",
					"type": "uint256"
				},
				{
					"internalType": "uint256",
					"name": "expireTimestamp",
					"type": "uint256"
				},
				{
					"internalType": "address",
					"name": "transferTo",
					"type": "address"
				}
			],
			"name": "addTokenLiquidity",
			"outputs": [
				{
					"internalType": "uint256",
					"name": "",
					"type": "uint256"
				}
			],
			"stateMutability": "payable",
			"type": "function"
		},
		{
			"inputs": [
				{
					"internalType": "address",
					"name": "token",
					"type": "address"
				},
				{
					"internalType": "uint256",
					"name": "amountTokensIn",
					"type": "uint256"
				},
				{
					"internalType": "uint256",
					"name": "amountCerUsdIn",
					"type": "uint256"
				},
				{
					"internalType": "address",
					"name": "transferTo",
					"type": "address"
				}
			],
			"name": "adminCreatePool",
			"outputs": [],
			"stateMutability": "payable",
			"type": "function"
		},
		{
			"inputs": [],
			"name": "adminInitialize",
			"outputs": [],
			"stateMutability": "payable",
			"type": "function"
		},
		{
			"inputs": [
				{
					"internalType": "string",
					"name": "newUrlPrefix",
					"type": "string"
				}
			],
			"name": "adminSetURI",
			"outputs": [],
			"stateMutability": "nonpayable",
			"type": "function"
		},
		{
			"inputs": [
				{
					"components": [
						{
							"internalType": "address",
							"name": "feeToBeneficiary",
							"type": "address"
						},
						{
							"internalType": "uint256",
							"name": "mintFeeMultiplier",
							"type": "uint256"
						},
						{
							"internalType": "uint256",
							"name": "feeMinimum",
							"type": "uint256"
						},
						{
							"internalType": "uint256",
							"name": "feeMaximum",
							"type": "uint256"
						},
						{
							"internalType": "uint256",
							"name": "tvlMultiplierMinimum",
							"type": "uint256"
						},
						{
							"internalType": "uint256",
							"name": "tvlMultiplierMaximum",
							"type": "uint256"
						}
					],
					"internalType": "struct CerbySwapV1.Settings",
					"name": "_settings",
					"type": "tuple"
				}
			],
			"name": "adminUpdateFeesAndTvlMultipliers",
			"outputs": [],
			"stateMutability": "nonpayable",
			"type": "function"
		},
		{
			"inputs": [
				{
					"internalType": "string",
					"name": "newName",
					"type": "string"
				},
				{
					"internalType": "string",
					"name": "newSymbol",
					"type": "string"
				}
			],
			"name": "adminUpdateNameAndSymbol",
			"outputs": [],
			"stateMutability": "nonpayable",
			"type": "function"
		},
		{
			"inputs": [
				{
					"internalType": "address",
					"name": "account",
					"type": "address"
				},
				{
					"internalType": "uint256",
					"name": "id",
					"type": "uint256"
				}
			],
			"name": "balanceOf",
			"outputs": [
				{
					"internalType": "uint256",
					"name": "",
					"type": "uint256"
				}
			],
			"stateMutability": "view",
			"type": "function"
		},
		{
			"inputs": [
				{
					"internalType": "address[]",
					"name": "accounts",
					"type": "address[]"
				},
				{
					"internalType": "uint256[]",
					"name": "ids",
					"type": "uint256[]"
				}
			],
			"name": "balanceOfBatch",
			"outputs": [
				{
					"internalType": "uint256[]",
					"name": "",
					"type": "uint256[]"
				}
			],
			"stateMutability": "view",
			"type": "function"
		},
		{
			"inputs": [
				{
					"internalType": "address",
					"name": "account",
					"type": "address"
				},
				{
					"internalType": "uint256",
					"name": "id",
					"type": "uint256"
				},
				{
					"internalType": "uint256",
					"name": "value",
					"type": "uint256"
				}
			],
			"name": "burn",
			"outputs": [],
			"stateMutability": "nonpayable",
			"type": "function"
		},
		{
			"inputs": [],
			"name": "decimals",
			"outputs": [
				{
					"internalType": "uint256",
					"name": "",
					"type": "uint256"
				}
			],
			"stateMutability": "pure",
			"type": "function"
		},
		{
			"inputs": [
				{
					"internalType": "uint256",
					"name": "id",
					"type": "uint256"
				}
			],
			"name": "exists",
			"outputs": [
				{
					"internalType": "bool",
					"name": "",
					"type": "bool"
				}
			],
			"stateMutability": "view",
			"type": "function"
		},
		{
			"inputs": [
				{
					"internalType": "address",
					"name": "token",
					"type": "address"
				}
			],
			"name": "getCurrentFeeBasedOnTrades",
			"outputs": [
				{
					"internalType": "uint256",
					"name": "fee",
					"type": "uint256"
				}
			],
			"stateMutability": "view",
			"type": "function"
		},
		{
			"inputs": [
				{
					"internalType": "address",
					"name": "tokenIn",
					"type": "address"
				},
				{
					"internalType": "address",
					"name": "tokenOut",
					"type": "address"
				},
				{
					"internalType": "uint256",
					"name": "amountTokensOut",
					"type": "uint256"
				}
			],
			"name": "getInputTokensForExactTokens",
			"outputs": [
				{
					"internalType": "uint256",
					"name": "amountTokensIn",
					"type": "uint256"
				}
			],
			"stateMutability": "view",
			"type": "function"
		},
		{
			"inputs": [
				{
					"internalType": "address",
					"name": "tokenIn",
					"type": "address"
				},
				{
					"internalType": "address",
					"name": "tokenOut",
					"type": "address"
				},
				{
					"internalType": "uint256",
					"name": "amountTokensIn",
					"type": "uint256"
				}
			],
			"name": "getOutputExactTokensForTokens",
			"outputs": [
				{
					"internalType": "uint256",
					"name": "amountTokensOut",
					"type": "uint256"
				}
			],
			"stateMutability": "view",
			"type": "function"
		},
		{
			"inputs": [
				{
					"internalType": "uint256[]",
					"name": "ids",
					"type": "uint256[]"
				}
			],
			"name": "getPoolsByIds",
			"outputs": [
				{
					"components": [
						{
							"internalType": "address",
							"name": "token",
							"type": "address"
						},
						{
							"internalType": "uint32[8]",
							"name": "tradeVolumePerPeriodInCerUsd",
							"type": "uint32[8]"
						},
						{
							"internalType": "uint128",
							"name": "balanceToken",
							"type": "uint128"
						},
						{
							"internalType": "uint128",
							"name": "balanceCerUsd",
							"type": "uint128"
						},
						{
							"internalType": "uint128",
							"name": "lastSqrtKValue",
							"type": "uint128"
						}
					],
					"internalType": "struct CerbySwapV1.Pool[]",
					"name": "",
					"type": "tuple[]"
				}
			],
			"stateMutability": "view",
			"type": "function"
		},
		{
			"inputs": [
				{
					"internalType": "address[]",
					"name": "tokens",
					"type": "address[]"
				}
			],
			"name": "getPoolsByTokens",
			"outputs": [
				{
					"components": [
						{
							"internalType": "address",
							"name": "token",
							"type": "address"
						},
						{
							"internalType": "uint32[8]",
							"name": "tradeVolumePerPeriodInCerUsd",
							"type": "uint32[8]"
						},
						{
							"internalType": "uint128",
							"name": "balanceToken",
							"type": "uint128"
						},
						{
							"internalType": "uint128",
							"name": "balanceCerUsd",
							"type": "uint128"
						},
						{
							"internalType": "uint128",
							"name": "lastSqrtKValue",
							"type": "uint128"
						}
					],
					"internalType": "struct CerbySwapV1.Pool[]",
					"name": "",
					"type": "tuple[]"
				}
			],
			"stateMutability": "view",
			"type": "function"
		},
		{
			"inputs": [
				{
					"internalType": "bytes32",
					"name": "role",
					"type": "bytes32"
				}
			],
			"name": "getRoleAdmin",
			"outputs": [
				{
					"internalType": "bytes32",
					"name": "",
					"type": "bytes32"
				}
			],
			"stateMutability": "view",
			"type": "function"
		},
		{
			"inputs": [
				{
					"internalType": "bytes32",
					"name": "role",
					"type": "bytes32"
				},
				{
					"internalType": "uint256",
					"name": "index",
					"type": "uint256"
				}
			],
			"name": "getRoleMember",
			"outputs": [
				{
					"internalType": "address",
					"name": "",
					"type": "address"
				}
			],
			"stateMutability": "view",
			"type": "function"
		},
		{
			"inputs": [
				{
					"internalType": "bytes32",
					"name": "role",
					"type": "bytes32"
				}
			],
			"name": "getRoleMemberCount",
			"outputs": [
				{
					"internalType": "uint256",
					"name": "",
					"type": "uint256"
				}
			],
			"stateMutability": "view",
			"type": "function"
		},
		{
			"inputs": [
				{
					"internalType": "uint256",
					"name": "pos",
					"type": "uint256"
				}
			],
			"name": "getUtilsContractAtPos",
			"outputs": [
				{
					"internalType": "address",
					"name": "",
					"type": "address"
				}
			],
			"stateMutability": "view",
			"type": "function"
		},
		{
			"inputs": [
				{
					"internalType": "address",
					"name": "token",
					"type": "address"
				}
			],
			"name": "gettokenToPoolId",
			"outputs": [
				{
					"internalType": "uint256",
					"name": "",
					"type": "uint256"
				}
			],
			"stateMutability": "view",
			"type": "function"
		},
		{
			"inputs": [
				{
					"internalType": "bytes32",
					"name": "role",
					"type": "bytes32"
				},
				{
					"internalType": "address",
					"name": "account",
					"type": "address"
				}
			],
			"name": "grantRole",
			"outputs": [],
			"stateMutability": "nonpayable",
			"type": "function"
		},
		{
			"inputs": [
				{
					"components": [
						{
							"internalType": "bytes32",
							"name": "role",
							"type": "bytes32"
						},
						{
							"internalType": "address",
							"name": "addr",
							"type": "address"
						}
					],
					"internalType": "struct RoleAccess[]",
					"name": "roles",
					"type": "tuple[]"
				}
			],
			"name": "grantRolesBulk",
			"outputs": [],
			"stateMutability": "nonpayable",
			"type": "function"
		},
		{
			"inputs": [
				{
					"internalType": "bytes32",
					"name": "role",
					"type": "bytes32"
				},
				{
					"internalType": "address",
					"name": "account",
					"type": "address"
				}
			],
			"name": "hasRole",
			"outputs": [
				{
					"internalType": "bool",
					"name": "",
					"type": "bool"
				}
			],
			"stateMutability": "view",
			"type": "function"
		},
		{
			"inputs": [
				{
					"internalType": "address",
					"name": "account",
					"type": "address"
				},
				{
					"internalType": "address",
					"name": "operator",
					"type": "address"
				}
			],
			"name": "isApprovedForAll",
			"outputs": [
				{
					"internalType": "bool",
					"name": "",
					"type": "bool"
				}
			],
			"stateMutability": "view",
			"type": "function"
		},
		{
			"inputs": [],
			"name": "name",
			"outputs": [
				{
					"internalType": "string",
					"name": "",
					"type": "string"
				}
			],
			"stateMutability": "view",
			"type": "function"
		},
		{
			"inputs": [
				{
					"internalType": "address",
					"name": "token",
					"type": "address"
				},
				{
					"internalType": "uint256",
					"name": "amountLpTokensBalanceToBurn",
					"type": "uint256"
				},
				{
					"internalType": "uint256",
					"name": "expireTimestamp",
					"type": "uint256"
				},
				{
					"internalType": "address",
					"name": "transferTo",
					"type": "address"
				}
			],
			"name": "removeTokenLiquidity",
			"outputs": [
				{
					"internalType": "uint256",
					"name": "",
					"type": "uint256"
				}
			],
			"stateMutability": "nonpayable",
			"type": "function"
		},
		{
			"inputs": [
				{
					"internalType": "bytes32",
					"name": "role",
					"type": "bytes32"
				},
				{
					"internalType": "address",
					"name": "account",
					"type": "address"
				}
			],
			"name": "renounceRole",
			"outputs": [],
			"stateMutability": "nonpayable",
			"type": "function"
		},
		{
			"inputs": [
				{
					"internalType": "bytes32",
					"name": "role",
					"type": "bytes32"
				},
				{
					"internalType": "address",
					"name": "account",
					"type": "address"
				}
			],
			"name": "revokeRole",
			"outputs": [],
			"stateMutability": "nonpayable",
			"type": "function"
		},
		{
			"inputs": [
				{
					"internalType": "address",
					"name": "from",
					"type": "address"
				},
				{
					"internalType": "address",
					"name": "to",
					"type": "address"
				},
				{
					"internalType": "uint256[]",
					"name": "ids",
					"type": "uint256[]"
				},
				{
					"internalType": "uint256[]",
					"name": "amounts",
					"type": "uint256[]"
				},
				{
					"internalType": "bytes",
					"name": "data",
					"type": "bytes"
				}
			],
			"name": "safeBatchTransferFrom",
			"outputs": [],
			"stateMutability": "nonpayable",
			"type": "function"
		},
		{
			"inputs": [
				{
					"internalType": "address",
					"name": "from",
					"type": "address"
				},
				{
					"internalType": "address",
					"name": "to",
					"type": "address"
				},
				{
					"internalType": "uint256",
					"name": "id",
					"type": "uint256"
				},
				{
					"internalType": "uint256",
					"name": "amount",
					"type": "uint256"
				},
				{
					"internalType": "bytes",
					"name": "data",
					"type": "bytes"
				}
			],
			"name": "safeTransferFrom",
			"outputs": [],
			"stateMutability": "nonpayable",
			"type": "function"
		},
		{
			"inputs": [
				{
					"internalType": "address",
					"name": "operator",
					"type": "address"
				},
				{
					"internalType": "bool",
					"name": "approved",
					"type": "bool"
				}
			],
			"name": "setApprovalForAll",
			"outputs": [],
			"stateMutability": "nonpayable",
			"type": "function"
		},
		{
			"inputs": [],
			"name": "settings",
			"outputs": [
				{
					"internalType": "address",
					"name": "feeToBeneficiary",
					"type": "address"
				},
				{
					"internalType": "uint256",
					"name": "mintFeeMultiplier",
					"type": "uint256"
				},
				{
					"internalType": "uint256",
					"name": "feeMinimum",
					"type": "uint256"
				},
				{
					"internalType": "uint256",
					"name": "feeMaximum",
					"type": "uint256"
				},
				{
					"internalType": "uint256",
					"name": "tvlMultiplierMinimum",
					"type": "uint256"
				},
				{
					"internalType": "uint256",
					"name": "tvlMultiplierMaximum",
					"type": "uint256"
				}
			],
			"stateMutability": "view",
			"type": "function"
		},
		{
			"inputs": [
				{
					"internalType": "address",
					"name": "token",
					"type": "address"
				}
			],
			"name": "skimPool",
			"outputs": [],
			"stateMutability": "nonpayable",
			"type": "function"
		},
		{
			"inputs": [
				{
					"internalType": "bytes4",
					"name": "interfaceId",
					"type": "bytes4"
				}
			],
			"name": "supportsInterface",
			"outputs": [
				{
					"internalType": "bool",
					"name": "",
					"type": "bool"
				}
			],
			"stateMutability": "view",
			"type": "function"
		},
		{
			"inputs": [
				{
					"internalType": "address",
					"name": "token",
					"type": "address"
				},
				{
					"internalType": "uint256",
					"name": "amountTokensOut",
					"type": "uint256"
				},
				{
					"internalType": "uint256",
					"name": "amountCerUsdOut",
					"type": "uint256"
				},
				{
					"internalType": "address",
					"name": "transferTo",
					"type": "address"
				}
			],
			"name": "swap",
			"outputs": [],
			"stateMutability": "payable",
			"type": "function"
		},
		{
			"inputs": [
				{
					"internalType": "address",
					"name": "tokenIn",
					"type": "address"
				},
				{
					"internalType": "address",
					"name": "tokenOut",
					"type": "address"
				},
				{
					"internalType": "uint256",
					"name": "amountTokensIn",
					"type": "uint256"
				},
				{
					"internalType": "uint256",
					"name": "minAmountTokensOut",
					"type": "uint256"
				},
				{
					"internalType": "uint256",
					"name": "expireTimestamp",
					"type": "uint256"
				},
				{
					"internalType": "address",
					"name": "transferTo",
					"type": "address"
				}
			],
			"name": "swapExactTokensForTokens",
			"outputs": [
				{
					"internalType": "uint256",
					"name": "",
					"type": "uint256"
				},
				{
					"internalType": "uint256",
					"name": "",
					"type": "uint256"
				}
			],
			"stateMutability": "payable",
			"type": "function"
		},
		{
			"inputs": [
				{
					"internalType": "address",
					"name": "tokenIn",
					"type": "address"
				},
				{
					"internalType": "address",
					"name": "tokenOut",
					"type": "address"
				},
				{
					"internalType": "uint256",
					"name": "amountTokensOut",
					"type": "uint256"
				},
				{
					"internalType": "uint256",
					"name": "maxAmountTokensIn",
					"type": "uint256"
				},
				{
					"internalType": "uint256",
					"name": "expireTimestamp",
					"type": "uint256"
				},
				{
					"internalType": "address",
					"name": "transferTo",
					"type": "address"
				}
			],
			"name": "swapTokensForExactTokens",
			"outputs": [
				{
					"internalType": "uint256",
					"name": "",
					"type": "uint256"
				},
				{
					"internalType": "uint256",
					"name": "",
					"type": "uint256"
				}
			],
			"stateMutability": "payable",
			"type": "function"
		},
		{
			"inputs": [],
			"name": "symbol",
			"outputs": [
				{
					"internalType": "string",
					"name": "",
					"type": "string"
				}
			],
			"stateMutability": "view",
			"type": "function"
		},
		{
			"inputs": [
				{
					"internalType": "address",
					"name": "token",
					"type": "address"
				}
			],
			"name": "syncTokenBalanceInPool",
			"outputs": [],
			"stateMutability": "nonpayable",
			"type": "function"
		},
		{
			"inputs": [],
			"name": "testInit",
			"outputs": [],
			"stateMutability": "nonpayable",
			"type": "function"
		},
		{
			"inputs": [
				{
					"internalType": "address",
					"name": "_testCerbyBotDetectionContract",
					"type": "address"
				},
				{
					"internalType": "address",
					"name": "_testCerbyToken",
					"type": "address"
				},
				{
					"internalType": "address",
					"name": "_cerUsdToken",
					"type": "address"
				},
				{
					"internalType": "address",
					"name": "_testUsdcToken",
					"type": "address"
				},
				{
					"internalType": "address",
					"name": "",
					"type": "address"
				}
			],
			"name": "testSetupTokens",
			"outputs": [],
			"stateMutability": "nonpayable",
			"type": "function"
		},
		{
			"inputs": [
				{
					"internalType": "uint256[]",
					"name": "ids",
					"type": "uint256[]"
				}
			],
			"name": "totalBatchSupply",
			"outputs": [
				{
					"internalType": "uint256[]",
					"name": "",
					"type": "uint256[]"
				}
			],
			"stateMutability": "view",
			"type": "function"
		},
		{
			"inputs": [],
			"name": "totalSupply",
			"outputs": [
				{
					"internalType": "uint256",
					"name": "",
					"type": "uint256"
				}
			],
			"stateMutability": "view",
			"type": "function"
		},
		{
			"inputs": [
				{
					"internalType": "uint256",
					"name": "id",
					"type": "uint256"
				}
			],
			"name": "totalSupply",
			"outputs": [
				{
					"internalType": "uint256",
					"name": "",
					"type": "uint256"
				}
			],
			"stateMutability": "view",
			"type": "function"
		},
		{
			"inputs": [
				{
					"internalType": "uint256",
					"name": "id",
					"type": "uint256"
				}
			],
			"name": "uri",
			"outputs": [
				{
					"internalType": "string",
					"name": "",
					"type": "string"
				}
			],
			"stateMutability": "view",
			"type": "function"
		},
		{
			"stateMutability": "payable",
			"type": "receive"
		}
	]
}