{
	"data": {
		"bytecode": {
			"linkReferences": {},
			"object": "60806040523480156200001157600080fd5b506200001f60003362000311565b6200003a6000805160206200215c8339815191523362000311565b620000696000805160206200215c83398151915273def78a28c78a461598d948bc0c689ce88f812ad862000311565b600680546001600160a01b03191673def78a28c78a461598d948bc0c689ce88f812ad817905546602a14156200013457620000ba600073539faa851d86781009ec30df437d794bcd090c8f62000311565b620000e96000805160206200215c83398151915273539faa851d86781009ec30df437d794bcd090c8f62000311565b60616000526000805160206200219c83398151915260205269152d02c7e14af68000007f8aec544eecfae9b3930ba18ce4cdf5065638dd51908c52ba24ce0b4722eb90c855620001d5565b6061461415620001d5576200015f600073539faa851d86781009ec30df437d794bcd090c8f62000311565b6200018e6000805160206200215c83398151915273539faa851d86781009ec30df437d794bcd090c8f62000311565b602a6000526000805160206200219c8339815191526020526a01a784379d99db420000007f831e0be01dd5f96f8fa0919ebccbf370221b9801e13a7af57517b7d3a469386d555b60014614156200022c5769152d02c7e14af6800000600080516020620021bc83398151915281905560896000526000805160206200213c8339815191526020526000805160206200217c8339815191525562000476565b60384614156200029e576a01a784379d99db420000007fc3d05b64a2951ebd26bb8e0075577825b359dbd138287534298fb4dfcf211afe5560896000526000805160206200213c83398151915260205269152d02c7e14af68000006000805160206200217c8339815191525562000476565b60894614156200030b576a01a784379d99db420000007fc3d05b64a2951ebd26bb8e0075577825b359dbd138287534298fb4dfcf211afe5560386000526000805160206200213c83398151915260205269152d02c7e14af6800000600080516020620021bc833981519152555b62000476565b6200032882826200035460201b620011211760201c565b60008281526001602090815260409091206200034f9183906200112f62000364821b17901c565b505050565b62000360828262000384565b5050565b60006200037b836001600160a01b03841662000424565b90505b92915050565b6000828152602081815260408083206001600160a01b038516845290915290205460ff1662000360576000828152602081815260408083206001600160a01b03851684529091529020805460ff19166001179055620003e03390565b6001600160a01b0316816001600160a01b0316837f2f8788117e7eff1d82e926ec794901d17c78024a50270940304540a733656f0d60405160405180910390a45050565b60008181526001830160205260408120546200046d575081546001818101845560008481526020808220909301849055845484825282860190935260409020919091556200037e565b5060006200037e565b611cb680620004866000396000f3fe608060405234801561001057600080fd5b50600436106101375760003560e01c80636a74d8f4116100b8578063bf4162651161007c578063bf416265146102e4578063ca15c8731461031a578063d391014b1461032d578063d547741f14610335578063d9c4870e14610348578063e8fa92331461035b57600080fd5b80636a74d8f41461025057806386abc635146102635780639010d07c1461027657806391d14854146102a157806396e66443146102b457600080fd5b80632f2ff15d116100ff5780632f2ff15d146101e457806336568abe146101f75780635c906ac81461020a5780636437ecfc1461021d5780636629b55c1461023d57600080fd5b806301ffc9a71461013c57806303ed957f146101645780630912227e14610179578063248a9ca31461018c578063280a1931146101bd575b600080fd5b61014f61014a3660046116b9565b61036e565b60405190151581526020015b60405180910390f35b6101776101723660046116e3565b610399565b005b610177610187366004611758565b610416565b6101af61019a366004611758565b60009081526020819052604090206001015490565b60405190815260200161015b565b6101af7f275e91c232bd23ca279c3a520270f257f78763ceafeaab6f52a7518cf5e39a7881565b6101776101f2366004611789565b610503565b610177610205366004611789565b61052a565b610177610218366004611800565b61054c565b6101af61022b366004611882565b60056020526000908152604090205481565b61017761024b36600461189f565b610970565b61017761025e3660046118d4565b610f16565b61017761027136600461189f565b611056565b61028961028436600461197a565b611089565b6040516001600160a01b03909116815260200161015b565b61014f6102af366004611789565b6110a8565b6102d76102c2366004611758565b60026020526000908152604090205460ff1681565b60405161015b91906119b2565b6101af6102f23660046119da565b6001600160a01b03919091166000908152600760209081526040808320938352929052205490565b6101af610328366004611758565b6110d1565b6101af600081565b610177610343366004611789565b6110e8565b600654610289906001600160a01b031681565b610177610369366004611882565b6110f2565b60006001600160e01b03198216635a05180f60e01b1480610393575061039382611144565b92915050565b60006103a58133611179565b60005b82811015610410576103fe8484838181106103c5576103c5611a06565b905060400201600001358585848181106103e1576103e1611a06565b90506040020160200160208101906103f99190611882565b6111dd565b8061040881611a32565b9150506103a8565b50505050565b7f275e91c232bd23ca279c3a520270f257f78763ceafeaab6f52a7518cf5e39a786104418133611179565b600260008381526002602052604090205460ff1660038111156104665761046661199c565b106104b05760405162461bcd60e51b815260206004820152601560248201527410d0d08e88105b1c9958591e48185c1c1c9bdd9959605a1b60448201526064015b60405180910390fd5b600082815260026020818152604092839020805460ff191690921790915590518381527f676f23fe79efd64f55f4d6a55416477602f84412dfcdeecb4ba914bc494fee5891015b60405180910390a15050565b61050d82826111e7565b6000828152600160205260409020610525908261112f565b505050565b61053482826111fd565b60008281526001602052604090206105259082611277565b600260a082015160009081526002602052604090205460ff1660038111156105765761057661199c565b146105e05760405162461bcd60e51b815260206004820152603460248201527f4343423a205472616e73616374696f6e206973206e6f7420617070726f766564604482015273081bdc88185b1c9958591e48195e1958dd5d195960621b60648201526084016104a7565b60003382608001518360000151846020015185604001514687606001516040516020016106139796959493929190611a4d565b6040516020818303038152906040528051906020012090508160a00151811461067e5760405162461bcd60e51b815260206004820152601d60248201527f4343423a2050726f7669646564206861736820697320696e76616c696400000060448201526064016104a7565b60808201516001600160a01b03166000908152600760209081526040808320818601518452909152902054806107025760405162461bcd60e51b8152602060048201526024808201527f4343423a2044657374696e6174696f6e20697320666f7262696464656e20286d604482015263696e742960e01b60648201526084016104a7565b608083015146600114806107165750608946145b806107215750603846145b15610876576040516306fb1a0760e01b8152600360048201526000906001600160a01b038316906306fb1a079060240160206040518083038186803b15801561076957600080fd5b505afa15801561077d573d6000803e3d6000fd5b505050506040513d601f19601f820116820180604052508101906107a19190611a95565b60405163eaa8f7e360e01b81523360048201529091506001600160a01b0382169063eaa8f7e39060240160206040518083038186803b1580156107e357600080fd5b505afa1580156107f7573d6000803e3d6000fd5b505050506040513d601f19601f8201168201806040525081019061081b9190611ab2565b156108745760405162461bcd60e51b815260206004820152602360248201527f4343423a204d696e74696e672069732074656d706f726172792064697361626c60448201526265642160e81b60648201526084016104a7565b505b60a084015160009081526002602090815260408220805460ff1916600317905585015185519091906108a9908390611ad4565b6040516307cbae8960e21b8152336004820152602481018290529091506001600160a01b03841690631f2eba2490604401600060405180830381600087803b1580156108f457600080fd5b505af1158015610908573d6000803e3d6000fd5b505050608080880151604080513381526001600160a01b0390921660208301528101859052606081018490529081018790527f5f94eab646e615cb13a8702212a25faef5c4f893ce43dcad826d7cdff975e805915060a00160405180910390a1505050505050565b6040516370a0823160e01b815233600482015283906001600160a01b038216906370a082319060240160206040518083038186803b1580156109b157600080fd5b505afa1580156109c5573d6000803e3d6000fd5b505050506040513d601f19601f820116820180604052508101906109e99190611aeb565b831115610a6e5760405162461bcd60e51b815260206004820152604760248201527f4343423a20416d6f756e74206d757374206e6f7420657863656564206176616960448201527f6c61626c652062616c616e63652e20547279207265647563696e67207468652060648201526630b6b7bab73a1760c91b608482015260a4016104a7565b81461415610ae45760405162461bcd60e51b815260206004820152603b60248201527f4343423a2044657374696e6174696f6e20636861696e206d757374206265206460448201527f6966666572656e742066726f6d2063757272656e7420636861696e000000000060648201526084016104a7565b6001600160a01b038416600090815260076020908152604080832085845290915290205480610b615760405162461bcd60e51b8152602060048201526024808201527f4343423a2044657374696e6174696f6e20697320666f7262696464656e20286260448201526375726e2960e01b60648201526084016104a7565b808411610bcf5760405162461bcd60e51b815260206004820152603660248201527f4343423a20416d6f756e74206973206c6f776572207468616e20746865206d696044820152751b9a5b5d5b481c195c9b5a5d1d195908185b5bdd5b9d60521b60648201526084016104a7565b6001461480610bde5750608946145b80610be95750603846145b15610d3e576040516306fb1a0760e01b8152600360048201526000906001600160a01b038416906306fb1a079060240160206040518083038186803b158015610c3157600080fd5b505afa158015610c45573d6000803e3d6000fd5b505050506040513d601f19601f82011682018060405250810190610c699190611a95565b60405163eaa8f7e360e01b81523360048201529091506001600160a01b0382169063eaa8f7e39060240160206040518083038186803b158015610cab57600080fd5b505afa158015610cbf573d6000803e3d6000fd5b505050506040513d601f19601f82011682018060405250810190610ce39190611ab2565b15610d3c5760405162461bcd60e51b815260206004820152602360248201527f4343423a204275726e696e672069732074656d706f726172792064697361626c60448201526265642160e81b60648201526084016104a7565b505b6001600160a01b0385166000908152600560209081526040808320549051610d729233928a928a92889246928c9201611a4d565b60408051808303601f19018152828252805160209182012060008181526002909252919020805460ff191660011790556366830b2160e01b82523360048301526024820187905291506001600160a01b038416906366830b2190604401600060405180830381600087803b158015610de957600080fd5b505af1158015610dfd573d6000803e3d6000fd5b5050600654604051630bb9ff5d60e01b81526001600160a01b039182166004820152602481018690529086169250630bb9ff5d9150604401600060405180830381600087803b158015610e4f57600080fd5b505af1158015610e63573d6000803e3d6000fd5b505050506001600160a01b038616600081815260056020908152604091829020548251338152918201939093528082018890526060810185905260808101929092524660a083015260c0820186905260e08201839052517f2b929fa34c889d2ad5c6d7ce59f206475b4e3d0e35d4f6e64092c61cd0df2c84918190036101000190a16001600160a01b0386166000908152600560205260408120805491610f0983611a32565b9190505550505050505050565b7f275e91c232bd23ca279c3a520270f257f78763ceafeaab6f52a7518cf5e39a78610f418133611179565b60005b8251811015611026576002806000858481518110610f6457610f64611a06565b60209081029190910181015182528101919091526040016000205460ff166003811115610f9357610f9361199c565b1015610ff1576002806000858481518110610fb057610fb0611a06565b6020026020010151815260200190815260200160002060006101000a81548160ff02191690836003811115610fe757610fe761199c565b0217905550611014565b6000801b83828151811061100757611007611a06565b6020026020010181815250505b8061101e81611a32565b915050610f44565b507f87b1f23c47e907f64d033aed5ac90b317cee74959fcf5efc12993f6ef6cbf101826040516104f79190611b04565b60006110628133611179565b506001600160a01b0390921660009081526007602090815260408083209383529290522055565b60008281526001602052604081206110a1908361128c565b9392505050565b6000918252602082815260408084206001600160a01b0393909316845291905290205460ff1690565b600081815260016020526040812061039390611298565b61053482826112a2565b60006110fe8133611179565b50600680546001600160a01b0319166001600160a01b0392909216919091179055565b61112b82826112c8565b5050565b60006110a1836001600160a01b03841661134c565b60006001600160e01b03198216637965db0b60e01b148061039357506301ffc9a760e01b6001600160e01b0319831614610393565b61118382826110a8565b61112b5761119b816001600160a01b0316601461139b565b6111a683602061139b565b6040516020016111b7929190611b74565b60408051601f198184030181529082905262461bcd60e51b82526104a791600401611be9565b61050d8282611121565b60006111f38133611179565b61052583836112c8565b6001600160a01b038116331461126d5760405162461bcd60e51b815260206004820152602f60248201527f416363657373436f6e74726f6c3a2063616e206f6e6c792072656e6f756e636560448201526e103937b632b9903337b91039b2b63360891b60648201526084016104a7565b61112b8282611537565b60006110a1836001600160a01b03841661159c565b60006110a1838361168f565b6000610393825490565b6000828152602081905260409020600101546112be8133611179565b6105258383611537565b6112d282826110a8565b61112b576000828152602081815260408083206001600160a01b03851684529091529020805460ff191660011790556113083390565b6001600160a01b0316816001600160a01b0316837f2f8788117e7eff1d82e926ec794901d17c78024a50270940304540a733656f0d60405160405180910390a45050565b600081815260018301602052604081205461139357508154600181810184556000848152602080822090930184905584548482528286019093526040902091909155610393565b506000610393565b606060006113aa836002611c1c565b6113b5906002611c3b565b67ffffffffffffffff8111156113cd576113cd6117b9565b6040519080825280601f01601f1916602001820160405280156113f7576020820181803683370190505b509050600360fc1b8160008151811061141257611412611a06565b60200101906001600160f81b031916908160001a905350600f60fb1b8160018151811061144157611441611a06565b60200101906001600160f81b031916908160001a9053506000611465846002611c1c565b611470906001611c3b565b90505b60018111156114e8576f181899199a1a9b1b9c1cb0b131b232b360811b85600f16601081106114a4576114a4611a06565b1a60f81b8282815181106114ba576114ba611a06565b60200101906001600160f81b031916908160001a90535060049490941c936114e181611c53565b9050611473565b5083156110a15760405162461bcd60e51b815260206004820181905260248201527f537472696e67733a20686578206c656e67746820696e73756666696369656e7460448201526064016104a7565b61154182826110a8565b1561112b576000828152602081815260408083206001600160a01b0385168085529252808320805460ff1916905551339285917ff6391f5c32d9c69d2a47ea670b442974b53935d1edc7fd64eb21e047a839171b9190a45050565b600081815260018301602052604081205480156116855760006115c0600183611ad4565b85549091506000906115d490600190611ad4565b90508181146116395760008660000182815481106115f4576115f4611a06565b906000526020600020015490508087600001848154811061161757611617611a06565b6000918252602080832090910192909255918252600188019052604090208390555b855486908061164a5761164a611c6a565b600190038181906000526020600020016000905590558560010160008681526020019081526020016000206000905560019350505050610393565b6000915050610393565b60008260000182815481106116a6576116a6611a06565b9060005260206000200154905092915050565b6000602082840312156116cb57600080fd5b81356001600160e01b0319811681146110a157600080fd5b600080602083850312156116f657600080fd5b823567ffffffffffffffff8082111561170e57600080fd5b818501915085601f83011261172257600080fd5b81358181111561173157600080fd5b8660208260061b850101111561174657600080fd5b60209290920196919550909350505050565b60006020828403121561176a57600080fd5b5035919050565b6001600160a01b038116811461178657600080fd5b50565b6000806040838503121561179c57600080fd5b8235915060208301356117ae81611771565b809150509250929050565b634e487b7160e01b600052604160045260246000fd5b604051601f8201601f1916810167ffffffffffffffff811182821017156117f8576117f86117b9565b604052919050565b600060c0828403121561181257600080fd5b60405160c0810181811067ffffffffffffffff82111715611835576118356117b9565b806040525082358152602083013560208201526040830135604082015260608301356060820152608083013561186a81611771565b608082015260a0928301359281019290925250919050565b60006020828403121561189457600080fd5b81356110a181611771565b6000806000606084860312156118b457600080fd5b83356118bf81611771565b95602085013595506040909401359392505050565b600060208083850312156118e757600080fd5b823567ffffffffffffffff808211156118ff57600080fd5b818501915085601f83011261191357600080fd5b813581811115611925576119256117b9565b8060051b91506119368483016117cf565b818152918301840191848101908884111561195057600080fd5b938501935b8385101561196e57843582529385019390850190611955565b98975050505050505050565b6000806040838503121561198d57600080fd5b50508035926020909101359150565b634e487b7160e01b600052602160045260246000fd5b60208101600483106119d457634e487b7160e01b600052602160045260246000fd5b91905290565b600080604083850312156119ed57600080fd5b82356119f881611771565b946020939093013593505050565b634e487b7160e01b600052603260045260246000fd5b634e487b7160e01b600052601160045260246000fd5b6000600019821415611a4657611a46611a1c565b5060010190565b6bffffffffffffffffffffffff19606098891b811682529690971b9095166014870152602886019390935260488501919091526068840152608883015260a882015260c80190565b600060208284031215611aa757600080fd5b81516110a181611771565b600060208284031215611ac457600080fd5b815180151581146110a157600080fd5b600082821015611ae657611ae6611a1c565b500390565b600060208284031215611afd57600080fd5b5051919050565b6020808252825182820181905260009190848201906040850190845b81811015611b3c57835183529284019291840191600101611b20565b50909695505050505050565b60005b83811015611b63578181015183820152602001611b4b565b838111156104105750506000910152565b7f416363657373436f6e74726f6c3a206163636f756e7420000000000000000000815260008351611bac816017850160208801611b48565b7001034b99036b4b9b9b4b733903937b6329607d1b6017918401918201528351611bdd816028840160208801611b48565b01602801949350505050565b6020815260008251806020840152611c08816040850160208701611b48565b601f01601f19169190910160400192915050565b6000816000190483118215151615611c3657611c36611a1c565b500290565b60008219821115611c4e57611c4e611a1c565b500190565b600081611c6257611c62611a1c565b506000190190565b634e487b7160e01b600052603160045260246000fdfea26469706673582212201aed622d8d22f6907b48e980f4a1ca2d382530195094f1bcdadb0d11a8af46fc64736f6c634300080800338de131c680d7e6e27f0d97f12019b4d428c411f31a9aac4d6bd0e10e559e8d5e275e91c232bd23ca279c3a520270f257f78763ceafeaab6f52a7518cf5e39a788b756fea79b0109bcaa2382ad12eb315f3bc91e2a2b7d95f36c986c22d6b8f46b6e02bc53a2050f5cd12dda26e2d48b0d9e09f637abb573ba5b0065f04fa4a6c68a98414d524bb155a91d13e9978fc3e76dd4307ead2935560363cb858903527",
			"opcodes": "PUSH1 0x80 PUSH1 0x40 MSTORE CALLVALUE DUP1 ISZERO PUSH3 0x11 JUMPI PUSH1 0x0 DUP1 REVERT JUMPDEST POP PUSH3 0x1F PUSH1 0x0 CALLER PUSH3 0x311 JUMP JUMPDEST PUSH3 0x3A PUSH1 0x0 DUP1 MLOAD PUSH1 0x20 PUSH3 0x215C DUP4 CODECOPY DUP2 MLOAD SWAP2 MSTORE CALLER PUSH3 0x311 JUMP JUMPDEST PUSH3 0x69 PUSH1 0x0 DUP1 MLOAD PUSH1 0x20 PUSH3 0x215C DUP4 CODECOPY DUP2 MLOAD SWAP2 MSTORE PUSH20 0xDEF78A28C78A461598D948BC0C689CE88F812AD8 PUSH3 0x311 JUMP JUMPDEST PUSH1 0x6 DUP1 SLOAD PUSH1 0x1 PUSH1 0x1 PUSH1 0xA0 SHL SUB NOT AND PUSH20 0xDEF78A28C78A461598D948BC0C689CE88F812AD8 OR SWAP1 SSTORE CHAINID PUSH1 0x2A EQ ISZERO PUSH3 0x134 JUMPI PUSH3 0xBA PUSH1 0x0 PUSH20 0x539FAA851D86781009EC30DF437D794BCD090C8F PUSH3 0x311 JUMP JUMPDEST PUSH3 0xE9 PUSH1 0x0 DUP1 MLOAD PUSH1 0x20 PUSH3 0x215C DUP4 CODECOPY DUP2 MLOAD SWAP2 MSTORE PUSH20 0x539FAA851D86781009EC30DF437D794BCD090C8F PUSH3 0x311 JUMP JUMPDEST PUSH1 0x61 PUSH1 0x0 MSTORE PUSH1 0x0 DUP1 MLOAD PUSH1 0x20 PUSH3 0x219C DUP4 CODECOPY DUP2 MLOAD SWAP2 MSTORE PUSH1 0x20 MSTORE PUSH10 0x152D02C7E14AF6800000 PUSH32 0x8AEC544EECFAE9B3930BA18CE4CDF5065638DD51908C52BA24CE0B4722EB90C8 SSTORE PUSH3 0x1D5 JUMP JUMPDEST PUSH1 0x61 CHAINID EQ ISZERO PUSH3 0x1D5 JUMPI PUSH3 0x15F PUSH1 0x0 PUSH20 0x539FAA851D86781009EC30DF437D794BCD090C8F PUSH3 0x311 JUMP JUMPDEST PUSH3 0x18E PUSH1 0x0 DUP1 MLOAD PUSH1 0x20 PUSH3 0x215C DUP4 CODECOPY DUP2 MLOAD SWAP2 MSTORE PUSH20 0x539FAA851D86781009EC30DF437D794BCD090C8F PUSH3 0x311 JUMP JUMPDEST PUSH1 0x2A PUSH1 0x0 MSTORE PUSH1 0x0 DUP1 MLOAD PUSH1 0x20 PUSH3 0x219C DUP4 CODECOPY DUP2 MLOAD SWAP2 MSTORE PUSH1 0x20 MSTORE PUSH11 0x1A784379D99DB42000000 PUSH32 0x831E0BE01DD5F96F8FA0919EBCCBF370221B9801E13A7AF57517B7D3A469386D SSTORE JUMPDEST PUSH1 0x1 CHAINID EQ ISZERO PUSH3 0x22C JUMPI PUSH10 0x152D02C7E14AF6800000 PUSH1 0x0 DUP1 MLOAD PUSH1 0x20 PUSH3 0x21BC DUP4 CODECOPY DUP2 MLOAD SWAP2 MSTORE DUP2 SWAP1 SSTORE PUSH1 0x89 PUSH1 0x0 MSTORE PUSH1 0x0 DUP1 MLOAD PUSH1 0x20 PUSH3 0x213C DUP4 CODECOPY DUP2 MLOAD SWAP2 MSTORE PUSH1 0x20 MSTORE PUSH1 0x0 DUP1 MLOAD PUSH1 0x20 PUSH3 0x217C DUP4 CODECOPY DUP2 MLOAD SWAP2 MSTORE SSTORE PUSH3 0x476 JUMP JUMPDEST PUSH1 0x38 CHAINID EQ ISZERO PUSH3 0x29E JUMPI PUSH11 0x1A784379D99DB42000000 PUSH32 0xC3D05B64A2951EBD26BB8E0075577825B359DBD138287534298FB4DFCF211AFE SSTORE PUSH1 0x89 PUSH1 0x0 MSTORE PUSH1 0x0 DUP1 MLOAD PUSH1 0x20 PUSH3 0x213C DUP4 CODECOPY DUP2 MLOAD SWAP2 MSTORE PUSH1 0x20 MSTORE PUSH10 0x152D02C7E14AF6800000 PUSH1 0x0 DUP1 MLOAD PUSH1 0x20 PUSH3 0x217C DUP4 CODECOPY DUP2 MLOAD SWAP2 MSTORE SSTORE PUSH3 0x476 JUMP JUMPDEST PUSH1 0x89 CHAINID EQ ISZERO PUSH3 0x30B JUMPI PUSH11 0x1A784379D99DB42000000 PUSH32 0xC3D05B64A2951EBD26BB8E0075577825B359DBD138287534298FB4DFCF211AFE SSTORE PUSH1 0x38 PUSH1 0x0 MSTORE PUSH1 0x0 DUP1 MLOAD PUSH1 0x20 PUSH3 0x213C DUP4 CODECOPY DUP2 MLOAD SWAP2 MSTORE PUSH1 0x20 MSTORE PUSH10 0x152D02C7E14AF6800000 PUSH1 0x0 DUP1 MLOAD PUSH1 0x20 PUSH3 0x21BC DUP4 CODECOPY DUP2 MLOAD SWAP2 MSTORE SSTORE JUMPDEST PUSH3 0x476 JUMP JUMPDEST PUSH3 0x328 DUP3 DUP3 PUSH3 0x354 PUSH1 0x20 SHL PUSH3 0x1121 OR PUSH1 0x20 SHR JUMP JUMPDEST PUSH1 0x0 DUP3 DUP2 MSTORE PUSH1 0x1 PUSH1 0x20 SWAP1 DUP2 MSTORE PUSH1 0x40 SWAP1 SWAP2 KECCAK256 PUSH3 0x34F SWAP2 DUP4 SWAP1 PUSH3 0x112F PUSH3 0x364 DUP3 SHL OR SWAP1 SHR JUMP JUMPDEST POP POP POP JUMP JUMPDEST PUSH3 0x360 DUP3 DUP3 PUSH3 0x384 JUMP JUMPDEST POP POP JUMP JUMPDEST PUSH1 0x0 PUSH3 0x37B DUP4 PUSH1 0x1 PUSH1 0x1 PUSH1 0xA0 SHL SUB DUP5 AND PUSH3 0x424 JUMP JUMPDEST SWAP1 POP JUMPDEST SWAP3 SWAP2 POP POP JUMP JUMPDEST PUSH1 0x0 DUP3 DUP2 MSTORE PUSH1 0x20 DUP2 DUP2 MSTORE PUSH1 0x40 DUP1 DUP4 KECCAK256 PUSH1 0x1 PUSH1 0x1 PUSH1 0xA0 SHL SUB DUP6 AND DUP5 MSTORE SWAP1 SWAP2 MSTORE SWAP1 KECCAK256 SLOAD PUSH1 0xFF AND PUSH3 0x360 JUMPI PUSH1 0x0 DUP3 DUP2 MSTORE PUSH1 0x20 DUP2 DUP2 MSTORE PUSH1 0x40 DUP1 DUP4 KECCAK256 PUSH1 0x1 PUSH1 0x1 PUSH1 0xA0 SHL SUB DUP6 AND DUP5 MSTORE SWAP1 SWAP2 MSTORE SWAP1 KECCAK256 DUP1 SLOAD PUSH1 0xFF NOT AND PUSH1 0x1 OR SWAP1 SSTORE PUSH3 0x3E0 CALLER SWAP1 JUMP JUMPDEST PUSH1 0x1 PUSH1 0x1 PUSH1 0xA0 SHL SUB AND DUP2 PUSH1 0x1 PUSH1 0x1 PUSH1 0xA0 SHL SUB AND DUP4 PUSH32 0x2F8788117E7EFF1D82E926EC794901D17C78024A50270940304540A733656F0D PUSH1 0x40 MLOAD PUSH1 0x40 MLOAD DUP1 SWAP2 SUB SWAP1 LOG4 POP POP JUMP JUMPDEST PUSH1 0x0 DUP2 DUP2 MSTORE PUSH1 0x1 DUP4 ADD PUSH1 0x20 MSTORE PUSH1 0x40 DUP2 KECCAK256 SLOAD PUSH3 0x46D JUMPI POP DUP2 SLOAD PUSH1 0x1 DUP2 DUP2 ADD DUP5 SSTORE PUSH1 0x0 DUP5 DUP2 MSTORE PUSH1 0x20 DUP1 DUP3 KECCAK256 SWAP1 SWAP4 ADD DUP5 SWAP1 SSTORE DUP5 SLOAD DUP5 DUP3 MSTORE DUP3 DUP7 ADD SWAP1 SWAP4 MSTORE PUSH1 0x40 SWAP1 KECCAK256 SWAP2 SWAP1 SWAP2 SSTORE PUSH3 0x37E JUMP JUMPDEST POP PUSH1 0x0 PUSH3 0x37E JUMP JUMPDEST PUSH2 0x1CB6 DUP1 PUSH3 0x486 PUSH1 0x0 CODECOPY PUSH1 0x0 RETURN INVALID PUSH1 0x80 PUSH1 0x40 MSTORE CALLVALUE DUP1 ISZERO PUSH2 0x10 JUMPI PUSH1 0x0 DUP1 REVERT JUMPDEST POP PUSH1 0x4 CALLDATASIZE LT PUSH2 0x137 JUMPI PUSH1 0x0 CALLDATALOAD PUSH1 0xE0 SHR DUP1 PUSH4 0x6A74D8F4 GT PUSH2 0xB8 JUMPI DUP1 PUSH4 0xBF416265 GT PUSH2 0x7C JUMPI DUP1 PUSH4 0xBF416265 EQ PUSH2 0x2E4 JUMPI DUP1 PUSH4 0xCA15C873 EQ PUSH2 0x31A JUMPI DUP1 PUSH4 0xD391014B EQ PUSH2 0x32D JUMPI DUP1 PUSH4 0xD547741F EQ PUSH2 0x335 JUMPI DUP1 PUSH4 0xD9C4870E EQ PUSH2 0x348 JUMPI DUP1 PUSH4 0xE8FA9233 EQ PUSH2 0x35B JUMPI PUSH1 0x0 DUP1 REVERT JUMPDEST DUP1 PUSH4 0x6A74D8F4 EQ PUSH2 0x250 JUMPI DUP1 PUSH4 0x86ABC635 EQ PUSH2 0x263 JUMPI DUP1 PUSH4 0x9010D07C EQ PUSH2 0x276 JUMPI DUP1 PUSH4 0x91D14854 EQ PUSH2 0x2A1 JUMPI DUP1 PUSH4 0x96E66443 EQ PUSH2 0x2B4 JUMPI PUSH1 0x0 DUP1 REVERT JUMPDEST DUP1 PUSH4 0x2F2FF15D GT PUSH2 0xFF JUMPI DUP1 PUSH4 0x2F2FF15D EQ PUSH2 0x1E4 JUMPI DUP1 PUSH4 0x36568ABE EQ PUSH2 0x1F7 JUMPI DUP1 PUSH4 0x5C906AC8 EQ PUSH2 0x20A JUMPI DUP1 PUSH4 0x6437ECFC EQ PUSH2 0x21D JUMPI DUP1 PUSH4 0x6629B55C EQ PUSH2 0x23D JUMPI PUSH1 0x0 DUP1 REVERT JUMPDEST DUP1 PUSH4 0x1FFC9A7 EQ PUSH2 0x13C JUMPI DUP1 PUSH4 0x3ED957F EQ PUSH2 0x164 JUMPI DUP1 PUSH4 0x912227E EQ PUSH2 0x179 JUMPI DUP1 PUSH4 0x248A9CA3 EQ PUSH2 0x18C JUMPI DUP1 PUSH4 0x280A1931 EQ PUSH2 0x1BD JUMPI JUMPDEST PUSH1 0x0 DUP1 REVERT JUMPDEST PUSH2 0x14F PUSH2 0x14A CALLDATASIZE PUSH1 0x4 PUSH2 0x16B9 JUMP JUMPDEST PUSH2 0x36E JUMP JUMPDEST PUSH1 0x40 MLOAD SWAP1 ISZERO ISZERO DUP2 MSTORE PUSH1 0x20 ADD JUMPDEST PUSH1 0x40 MLOAD DUP1 SWAP2 SUB SWAP1 RETURN JUMPDEST PUSH2 0x177 PUSH2 0x172 CALLDATASIZE PUSH1 0x4 PUSH2 0x16E3 JUMP JUMPDEST PUSH2 0x399 JUMP JUMPDEST STOP JUMPDEST PUSH2 0x177 PUSH2 0x187 CALLDATASIZE PUSH1 0x4 PUSH2 0x1758 JUMP JUMPDEST PUSH2 0x416 JUMP JUMPDEST PUSH2 0x1AF PUSH2 0x19A CALLDATASIZE PUSH1 0x4 PUSH2 0x1758 JUMP JUMPDEST PUSH1 0x0 SWAP1 DUP2 MSTORE PUSH1 0x20 DUP2 SWAP1 MSTORE PUSH1 0x40 SWAP1 KECCAK256 PUSH1 0x1 ADD SLOAD SWAP1 JUMP JUMPDEST PUSH1 0x40 MLOAD SWAP1 DUP2 MSTORE PUSH1 0x20 ADD PUSH2 0x15B JUMP JUMPDEST PUSH2 0x1AF PUSH32 0x275E91C232BD23CA279C3A520270F257F78763CEAFEAAB6F52A7518CF5E39A78 DUP2 JUMP JUMPDEST PUSH2 0x177 PUSH2 0x1F2 CALLDATASIZE PUSH1 0x4 PUSH2 0x1789 JUMP JUMPDEST PUSH2 0x503 JUMP JUMPDEST PUSH2 0x177 PUSH2 0x205 CALLDATASIZE PUSH1 0x4 PUSH2 0x1789 JUMP JUMPDEST PUSH2 0x52A JUMP JUMPDEST PUSH2 0x177 PUSH2 0x218 CALLDATASIZE PUSH1 0x4 PUSH2 0x1800 JUMP JUMPDEST PUSH2 0x54C JUMP JUMPDEST PUSH2 0x1AF PUSH2 0x22B CALLDATASIZE PUSH1 0x4 PUSH2 0x1882 JUMP JUMPDEST PUSH1 0x5 PUSH1 0x20 MSTORE PUSH1 0x0 SWAP1 DUP2 MSTORE PUSH1 0x40 SWAP1 KECCAK256 SLOAD DUP2 JUMP JUMPDEST PUSH2 0x177 PUSH2 0x24B CALLDATASIZE PUSH1 0x4 PUSH2 0x189F JUMP JUMPDEST PUSH2 0x970 JUMP JUMPDEST PUSH2 0x177 PUSH2 0x25E CALLDATASIZE PUSH1 0x4 PUSH2 0x18D4 JUMP JUMPDEST PUSH2 0xF16 JUMP JUMPDEST PUSH2 0x177 PUSH2 0x271 CALLDATASIZE PUSH1 0x4 PUSH2 0x189F JUMP JUMPDEST PUSH2 0x1056 JUMP JUMPDEST PUSH2 0x289 PUSH2 0x284 CALLDATASIZE PUSH1 0x4 PUSH2 0x197A JUMP JUMPDEST PUSH2 0x1089 JUMP JUMPDEST PUSH1 0x40 MLOAD PUSH1 0x1 PUSH1 0x1 PUSH1 0xA0 SHL SUB SWAP1 SWAP2 AND DUP2 MSTORE PUSH1 0x20 ADD PUSH2 0x15B JUMP JUMPDEST PUSH2 0x14F PUSH2 0x2AF CALLDATASIZE PUSH1 0x4 PUSH2 0x1789 JUMP JUMPDEST PUSH2 0x10A8 JUMP JUMPDEST PUSH2 0x2D7 PUSH2 0x2C2 CALLDATASIZE PUSH1 0x4 PUSH2 0x1758 JUMP JUMPDEST PUSH1 0x2 PUSH1 0x20 MSTORE PUSH1 0x0 SWAP1 DUP2 MSTORE PUSH1 0x40 SWAP1 KECCAK256 SLOAD PUSH1 0xFF AND DUP2 JUMP JUMPDEST PUSH1 0x40 MLOAD PUSH2 0x15B SWAP2 SWAP1 PUSH2 0x19B2 JUMP JUMPDEST PUSH2 0x1AF PUSH2 0x2F2 CALLDATASIZE PUSH1 0x4 PUSH2 0x19DA JUMP JUMPDEST PUSH1 0x1 PUSH1 0x1 PUSH1 0xA0 SHL SUB SWAP2 SWAP1 SWAP2 AND PUSH1 0x0 SWAP1 DUP2 MSTORE PUSH1 0x7 PUSH1 0x20 SWAP1 DUP2 MSTORE PUSH1 0x40 DUP1 DUP4 KECCAK256 SWAP4 DUP4 MSTORE SWAP3 SWAP1 MSTORE KECCAK256 SLOAD SWAP1 JUMP JUMPDEST PUSH2 0x1AF PUSH2 0x328 CALLDATASIZE PUSH1 0x4 PUSH2 0x1758 JUMP JUMPDEST PUSH2 0x10D1 JUMP JUMPDEST PUSH2 0x1AF PUSH1 0x0 DUP2 JUMP JUMPDEST PUSH2 0x177 PUSH2 0x343 CALLDATASIZE PUSH1 0x4 PUSH2 0x1789 JUMP JUMPDEST PUSH2 0x10E8 JUMP JUMPDEST PUSH1 0x6 SLOAD PUSH2 0x289 SWAP1 PUSH1 0x1 PUSH1 0x1 PUSH1 0xA0 SHL SUB AND DUP2 JUMP JUMPDEST PUSH2 0x177 PUSH2 0x369 CALLDATASIZE PUSH1 0x4 PUSH2 0x1882 JUMP JUMPDEST PUSH2 0x10F2 JUMP JUMPDEST PUSH1 0x0 PUSH1 0x1 PUSH1 0x1 PUSH1 0xE0 SHL SUB NOT DUP3 AND PUSH4 0x5A05180F PUSH1 0xE0 SHL EQ DUP1 PUSH2 0x393 JUMPI POP PUSH2 0x393 DUP3 PUSH2 0x1144 JUMP JUMPDEST SWAP3 SWAP2 POP POP JUMP JUMPDEST PUSH1 0x0 PUSH2 0x3A5 DUP2 CALLER PUSH2 0x1179 JUMP JUMPDEST PUSH1 0x0 JUMPDEST DUP3 DUP2 LT ISZERO PUSH2 0x410 JUMPI PUSH2 0x3FE DUP5 DUP5 DUP4 DUP2 DUP2 LT PUSH2 0x3C5 JUMPI PUSH2 0x3C5 PUSH2 0x1A06 JUMP JUMPDEST SWAP1 POP PUSH1 0x40 MUL ADD PUSH1 0x0 ADD CALLDATALOAD DUP6 DUP6 DUP5 DUP2 DUP2 LT PUSH2 0x3E1 JUMPI PUSH2 0x3E1 PUSH2 0x1A06 JUMP JUMPDEST SWAP1 POP PUSH1 0x40 MUL ADD PUSH1 0x20 ADD PUSH1 0x20 DUP2 ADD SWAP1 PUSH2 0x3F9 SWAP2 SWAP1 PUSH2 0x1882 JUMP JUMPDEST PUSH2 0x11DD JUMP JUMPDEST DUP1 PUSH2 0x408 DUP2 PUSH2 0x1A32 JUMP JUMPDEST SWAP2 POP POP PUSH2 0x3A8 JUMP JUMPDEST POP POP POP POP JUMP JUMPDEST PUSH32 0x275E91C232BD23CA279C3A520270F257F78763CEAFEAAB6F52A7518CF5E39A78 PUSH2 0x441 DUP2 CALLER PUSH2 0x1179 JUMP JUMPDEST PUSH1 0x2 PUSH1 0x0 DUP4 DUP2 MSTORE PUSH1 0x2 PUSH1 0x20 MSTORE PUSH1 0x40 SWAP1 KECCAK256 SLOAD PUSH1 0xFF AND PUSH1 0x3 DUP2 GT ISZERO PUSH2 0x466 JUMPI PUSH2 0x466 PUSH2 0x199C JUMP JUMPDEST LT PUSH2 0x4B0 JUMPI PUSH1 0x40 MLOAD PUSH3 0x461BCD PUSH1 0xE5 SHL DUP2 MSTORE PUSH1 0x20 PUSH1 0x4 DUP3 ADD MSTORE PUSH1 0x15 PUSH1 0x24 DUP3 ADD MSTORE PUSH21 0x10D0D08E88105B1C9958591E48185C1C1C9BDD9959 PUSH1 0x5A SHL PUSH1 0x44 DUP3 ADD MSTORE PUSH1 0x64 ADD JUMPDEST PUSH1 0x40 MLOAD DUP1 SWAP2 SUB SWAP1 REVERT JUMPDEST PUSH1 0x0 DUP3 DUP2 MSTORE PUSH1 0x2 PUSH1 0x20 DUP2 DUP2 MSTORE PUSH1 0x40 SWAP3 DUP4 SWAP1 KECCAK256 DUP1 SLOAD PUSH1 0xFF NOT AND SWAP1 SWAP3 OR SWAP1 SWAP2 SSTORE SWAP1 MLOAD DUP4 DUP2 MSTORE PUSH32 0x676F23FE79EFD64F55F4D6A55416477602F84412DFCDEECB4BA914BC494FEE58 SWAP2 ADD JUMPDEST PUSH1 0x40 MLOAD DUP1 SWAP2 SUB SWAP1 LOG1 POP POP JUMP JUMPDEST PUSH2 0x50D DUP3 DUP3 PUSH2 0x11E7 JUMP JUMPDEST PUSH1 0x0 DUP3 DUP2 MSTORE PUSH1 0x1 PUSH1 0x20 MSTORE PUSH1 0x40 SWAP1 KECCAK256 PUSH2 0x525 SWAP1 DUP3 PUSH2 0x112F JUMP JUMPDEST POP POP POP JUMP JUMPDEST PUSH2 0x534 DUP3 DUP3 PUSH2 0x11FD JUMP JUMPDEST PUSH1 0x0 DUP3 DUP2 MSTORE PUSH1 0x1 PUSH1 0x20 MSTORE PUSH1 0x40 SWAP1 KECCAK256 PUSH2 0x525 SWAP1 DUP3 PUSH2 0x1277 JUMP JUMPDEST PUSH1 0x2 PUSH1 0xA0 DUP3 ADD MLOAD PUSH1 0x0 SWAP1 DUP2 MSTORE PUSH1 0x2 PUSH1 0x20 MSTORE PUSH1 0x40 SWAP1 KECCAK256 SLOAD PUSH1 0xFF AND PUSH1 0x3 DUP2 GT ISZERO PUSH2 0x576 JUMPI PUSH2 0x576 PUSH2 0x199C JUMP JUMPDEST EQ PUSH2 0x5E0 JUMPI PUSH1 0x40 MLOAD PUSH3 0x461BCD PUSH1 0xE5 SHL DUP2 MSTORE PUSH1 0x20 PUSH1 0x4 DUP3 ADD MSTORE PUSH1 0x34 PUSH1 0x24 DUP3 ADD MSTORE PUSH32 0x4343423A205472616E73616374696F6E206973206E6F7420617070726F766564 PUSH1 0x44 DUP3 ADD MSTORE PUSH20 0x81BDC88185B1C9958591E48195E1958DD5D1959 PUSH1 0x62 SHL PUSH1 0x64 DUP3 ADD MSTORE PUSH1 0x84 ADD PUSH2 0x4A7 JUMP JUMPDEST PUSH1 0x0 CALLER DUP3 PUSH1 0x80 ADD MLOAD DUP4 PUSH1 0x0 ADD MLOAD DUP5 PUSH1 0x20 ADD MLOAD DUP6 PUSH1 0x40 ADD MLOAD CHAINID DUP8 PUSH1 0x60 ADD MLOAD PUSH1 0x40 MLOAD PUSH1 0x20 ADD PUSH2 0x613 SWAP8 SWAP7 SWAP6 SWAP5 SWAP4 SWAP3 SWAP2 SWAP1 PUSH2 0x1A4D JUMP JUMPDEST PUSH1 0x40 MLOAD PUSH1 0x20 DUP2 DUP4 SUB SUB DUP2 MSTORE SWAP1 PUSH1 0x40 MSTORE DUP1 MLOAD SWAP1 PUSH1 0x20 ADD KECCAK256 SWAP1 POP DUP2 PUSH1 0xA0 ADD MLOAD DUP2 EQ PUSH2 0x67E JUMPI PUSH1 0x40 MLOAD PUSH3 0x461BCD PUSH1 0xE5 SHL DUP2 MSTORE PUSH1 0x20 PUSH1 0x4 DUP3 ADD MSTORE PUSH1 0x1D PUSH1 0x24 DUP3 ADD MSTORE PUSH32 0x4343423A2050726F7669646564206861736820697320696E76616C6964000000 PUSH1 0x44 DUP3 ADD MSTORE PUSH1 0x64 ADD PUSH2 0x4A7 JUMP JUMPDEST PUSH1 0x80 DUP3 ADD MLOAD PUSH1 0x1 PUSH1 0x1 PUSH1 0xA0 SHL SUB AND PUSH1 0x0 SWAP1 DUP2 MSTORE PUSH1 0x7 PUSH1 0x20 SWAP1 DUP2 MSTORE PUSH1 0x40 DUP1 DUP4 KECCAK256 DUP2 DUP7 ADD MLOAD DUP5 MSTORE SWAP1 SWAP2 MSTORE SWAP1 KECCAK256 SLOAD DUP1 PUSH2 0x702 JUMPI PUSH1 0x40 MLOAD PUSH3 0x461BCD PUSH1 0xE5 SHL DUP2 MSTORE PUSH1 0x20 PUSH1 0x4 DUP3 ADD MSTORE PUSH1 0x24 DUP1 DUP3 ADD MSTORE PUSH32 0x4343423A2044657374696E6174696F6E20697320666F7262696464656E20286D PUSH1 0x44 DUP3 ADD MSTORE PUSH4 0x696E7429 PUSH1 0xE0 SHL PUSH1 0x64 DUP3 ADD MSTORE PUSH1 0x84 ADD PUSH2 0x4A7 JUMP JUMPDEST PUSH1 0x80 DUP4 ADD MLOAD CHAINID PUSH1 0x1 EQ DUP1 PUSH2 0x716 JUMPI POP PUSH1 0x89 CHAINID EQ JUMPDEST DUP1 PUSH2 0x721 JUMPI POP PUSH1 0x38 CHAINID EQ JUMPDEST ISZERO PUSH2 0x876 JUMPI PUSH1 0x40 MLOAD PUSH4 0x6FB1A07 PUSH1 0xE0 SHL DUP2 MSTORE PUSH1 0x3 PUSH1 0x4 DUP3 ADD MSTORE PUSH1 0x0 SWAP1 PUSH1 0x1 PUSH1 0x1 PUSH1 0xA0 SHL SUB DUP4 AND SWAP1 PUSH4 0x6FB1A07 SWAP1 PUSH1 0x24 ADD PUSH1 0x20 PUSH1 0x40 MLOAD DUP1 DUP4 SUB DUP2 DUP7 DUP1 EXTCODESIZE ISZERO DUP1 ISZERO PUSH2 0x769 JUMPI PUSH1 0x0 DUP1 REVERT JUMPDEST POP GAS STATICCALL ISZERO DUP1 ISZERO PUSH2 0x77D JUMPI RETURNDATASIZE PUSH1 0x0 DUP1 RETURNDATACOPY RETURNDATASIZE PUSH1 0x0 REVERT JUMPDEST POP POP POP POP PUSH1 0x40 MLOAD RETURNDATASIZE PUSH1 0x1F NOT PUSH1 0x1F DUP3 ADD AND DUP3 ADD DUP1 PUSH1 0x40 MSTORE POP DUP2 ADD SWAP1 PUSH2 0x7A1 SWAP2 SWAP1 PUSH2 0x1A95 JUMP JUMPDEST PUSH1 0x40 MLOAD PUSH4 0xEAA8F7E3 PUSH1 0xE0 SHL DUP2 MSTORE CALLER PUSH1 0x4 DUP3 ADD MSTORE SWAP1 SWAP2 POP PUSH1 0x1 PUSH1 0x1 PUSH1 0xA0 SHL SUB DUP3 AND SWAP1 PUSH4 0xEAA8F7E3 SWAP1 PUSH1 0x24 ADD PUSH1 0x20 PUSH1 0x40 MLOAD DUP1 DUP4 SUB DUP2 DUP7 DUP1 EXTCODESIZE ISZERO DUP1 ISZERO PUSH2 0x7E3 JUMPI PUSH1 0x0 DUP1 REVERT JUMPDEST POP GAS STATICCALL ISZERO DUP1 ISZERO PUSH2 0x7F7 JUMPI RETURNDATASIZE PUSH1 0x0 DUP1 RETURNDATACOPY RETURNDATASIZE PUSH1 0x0 REVERT JUMPDEST POP POP POP POP PUSH1 0x40 MLOAD RETURNDATASIZE PUSH1 0x1F NOT PUSH1 0x1F DUP3 ADD AND DUP3 ADD DUP1 PUSH1 0x40 MSTORE POP DUP2 ADD SWAP1 PUSH2 0x81B SWAP2 SWAP1 PUSH2 0x1AB2 JUMP JUMPDEST ISZERO PUSH2 0x874 JUMPI PUSH1 0x40 MLOAD PUSH3 0x461BCD PUSH1 0xE5 SHL DUP2 MSTORE PUSH1 0x20 PUSH1 0x4 DUP3 ADD MSTORE PUSH1 0x23 PUSH1 0x24 DUP3 ADD MSTORE PUSH32 0x4343423A204D696E74696E672069732074656D706F726172792064697361626C PUSH1 0x44 DUP3 ADD MSTORE PUSH3 0x656421 PUSH1 0xE8 SHL PUSH1 0x64 DUP3 ADD MSTORE PUSH1 0x84 ADD PUSH2 0x4A7 JUMP JUMPDEST POP JUMPDEST PUSH1 0xA0 DUP5 ADD MLOAD PUSH1 0x0 SWAP1 DUP2 MSTORE PUSH1 0x2 PUSH1 0x20 SWAP1 DUP2 MSTORE PUSH1 0x40 DUP3 KECCAK256 DUP1 SLOAD PUSH1 0xFF NOT AND PUSH1 0x3 OR SWAP1 SSTORE DUP6 ADD MLOAD DUP6 MLOAD SWAP1 SWAP2 SWAP1 PUSH2 0x8A9 SWAP1 DUP4 SWAP1 PUSH2 0x1AD4 JUMP JUMPDEST PUSH1 0x40 MLOAD PUSH4 0x7CBAE89 PUSH1 0xE2 SHL DUP2 MSTORE CALLER PUSH1 0x4 DUP3 ADD MSTORE PUSH1 0x24 DUP2 ADD DUP3 SWAP1 MSTORE SWAP1 SWAP2 POP PUSH1 0x1 PUSH1 0x1 PUSH1 0xA0 SHL SUB DUP5 AND SWAP1 PUSH4 0x1F2EBA24 SWAP1 PUSH1 0x44 ADD PUSH1 0x0 PUSH1 0x40 MLOAD DUP1 DUP4 SUB DUP2 PUSH1 0x0 DUP8 DUP1 EXTCODESIZE ISZERO DUP1 ISZERO PUSH2 0x8F4 JUMPI PUSH1 0x0 DUP1 REVERT JUMPDEST POP GAS CALL ISZERO DUP1 ISZERO PUSH2 0x908 JUMPI RETURNDATASIZE PUSH1 0x0 DUP1 RETURNDATACOPY RETURNDATASIZE PUSH1 0x0 REVERT JUMPDEST POP POP POP PUSH1 0x80 DUP1 DUP9 ADD MLOAD PUSH1 0x40 DUP1 MLOAD CALLER DUP2 MSTORE PUSH1 0x1 PUSH1 0x1 PUSH1 0xA0 SHL SUB SWAP1 SWAP3 AND PUSH1 0x20 DUP4 ADD MSTORE DUP2 ADD DUP6 SWAP1 MSTORE PUSH1 0x60 DUP2 ADD DUP5 SWAP1 MSTORE SWAP1 DUP2 ADD DUP8 SWAP1 MSTORE PUSH32 0x5F94EAB646E615CB13A8702212A25FAEF5C4F893CE43DCAD826D7CDFF975E805 SWAP2 POP PUSH1 0xA0 ADD PUSH1 0x40 MLOAD DUP1 SWAP2 SUB SWAP1 LOG1 POP POP POP POP POP POP JUMP JUMPDEST PUSH1 0x40 MLOAD PUSH4 0x70A08231 PUSH1 0xE0 SHL DUP2 MSTORE CALLER PUSH1 0x4 DUP3 ADD MSTORE DUP4 SWAP1 PUSH1 0x1 PUSH1 0x1 PUSH1 0xA0 SHL SUB DUP3 AND SWAP1 PUSH4 0x70A08231 SWAP1 PUSH1 0x24 ADD PUSH1 0x20 PUSH1 0x40 MLOAD DUP1 DUP4 SUB DUP2 DUP7 DUP1 EXTCODESIZE ISZERO DUP1 ISZERO PUSH2 0x9B1 JUMPI PUSH1 0x0 DUP1 REVERT JUMPDEST POP GAS STATICCALL ISZERO DUP1 ISZERO PUSH2 0x9C5 JUMPI RETURNDATASIZE PUSH1 0x0 DUP1 RETURNDATACOPY RETURNDATASIZE PUSH1 0x0 REVERT JUMPDEST POP POP POP POP PUSH1 0x40 MLOAD RETURNDATASIZE PUSH1 0x1F NOT PUSH1 0x1F DUP3 ADD AND DUP3 ADD DUP1 PUSH1 0x40 MSTORE POP DUP2 ADD SWAP1 PUSH2 0x9E9 SWAP2 SWAP1 PUSH2 0x1AEB JUMP JUMPDEST DUP4 GT ISZERO PUSH2 0xA6E JUMPI PUSH1 0x40 MLOAD PUSH3 0x461BCD PUSH1 0xE5 SHL DUP2 MSTORE PUSH1 0x20 PUSH1 0x4 DUP3 ADD MSTORE PUSH1 0x47 PUSH1 0x24 DUP3 ADD MSTORE PUSH32 0x4343423A20416D6F756E74206D757374206E6F74206578636565642061766169 PUSH1 0x44 DUP3 ADD MSTORE PUSH32 0x6C61626C652062616C616E63652E20547279207265647563696E672074686520 PUSH1 0x64 DUP3 ADD MSTORE PUSH7 0x30B6B7BAB73A17 PUSH1 0xC9 SHL PUSH1 0x84 DUP3 ADD MSTORE PUSH1 0xA4 ADD PUSH2 0x4A7 JUMP JUMPDEST DUP2 CHAINID EQ ISZERO PUSH2 0xAE4 JUMPI PUSH1 0x40 MLOAD PUSH3 0x461BCD PUSH1 0xE5 SHL DUP2 MSTORE PUSH1 0x20 PUSH1 0x4 DUP3 ADD MSTORE PUSH1 0x3B PUSH1 0x24 DUP3 ADD MSTORE PUSH32 0x4343423A2044657374696E6174696F6E20636861696E206D7573742062652064 PUSH1 0x44 DUP3 ADD MSTORE PUSH32 0x6966666572656E742066726F6D2063757272656E7420636861696E0000000000 PUSH1 0x64 DUP3 ADD MSTORE PUSH1 0x84 ADD PUSH2 0x4A7 JUMP JUMPDEST PUSH1 0x1 PUSH1 0x1 PUSH1 0xA0 SHL SUB DUP5 AND PUSH1 0x0 SWAP1 DUP2 MSTORE PUSH1 0x7 PUSH1 0x20 SWAP1 DUP2 MSTORE PUSH1 0x40 DUP1 DUP4 KECCAK256 DUP6 DUP5 MSTORE SWAP1 SWAP2 MSTORE SWAP1 KECCAK256 SLOAD DUP1 PUSH2 0xB61 JUMPI PUSH1 0x40 MLOAD PUSH3 0x461BCD PUSH1 0xE5 SHL DUP2 MSTORE PUSH1 0x20 PUSH1 0x4 DUP3 ADD MSTORE PUSH1 0x24 DUP1 DUP3 ADD MSTORE PUSH32 0x4343423A2044657374696E6174696F6E20697320666F7262696464656E202862 PUSH1 0x44 DUP3 ADD MSTORE PUSH4 0x75726E29 PUSH1 0xE0 SHL PUSH1 0x64 DUP3 ADD MSTORE PUSH1 0x84 ADD PUSH2 0x4A7 JUMP JUMPDEST DUP1 DUP5 GT PUSH2 0xBCF JUMPI PUSH1 0x40 MLOAD PUSH3 0x461BCD PUSH1 0xE5 SHL DUP2 MSTORE PUSH1 0x20 PUSH1 0x4 DUP3 ADD MSTORE PUSH1 0x36 PUSH1 0x24 DUP3 ADD MSTORE PUSH32 0x4343423A20416D6F756E74206973206C6F776572207468616E20746865206D69 PUSH1 0x44 DUP3 ADD MSTORE PUSH22 0x1B9A5B5D5B481C195C9B5A5D1D195908185B5BDD5B9D PUSH1 0x52 SHL PUSH1 0x64 DUP3 ADD MSTORE PUSH1 0x84 ADD PUSH2 0x4A7 JUMP JUMPDEST PUSH1 0x1 CHAINID EQ DUP1 PUSH2 0xBDE JUMPI POP PUSH1 0x89 CHAINID EQ JUMPDEST DUP1 PUSH2 0xBE9 JUMPI POP PUSH1 0x38 CHAINID EQ JUMPDEST ISZERO PUSH2 0xD3E JUMPI PUSH1 0x40 MLOAD PUSH4 0x6FB1A07 PUSH1 0xE0 SHL DUP2 MSTORE PUSH1 0x3 PUSH1 0x4 DUP3 ADD MSTORE PUSH1 0x0 SWAP1 PUSH1 0x1 PUSH1 0x1 PUSH1 0xA0 SHL SUB DUP5 AND SWAP1 PUSH4 0x6FB1A07 SWAP1 PUSH1 0x24 ADD PUSH1 0x20 PUSH1 0x40 MLOAD DUP1 DUP4 SUB DUP2 DUP7 DUP1 EXTCODESIZE ISZERO DUP1 ISZERO PUSH2 0xC31 JUMPI PUSH1 0x0 DUP1 REVERT JUMPDEST POP GAS STATICCALL ISZERO DUP1 ISZERO PUSH2 0xC45 JUMPI RETURNDATASIZE PUSH1 0x0 DUP1 RETURNDATACOPY RETURNDATASIZE PUSH1 0x0 REVERT JUMPDEST POP POP POP POP PUSH1 0x40 MLOAD RETURNDATASIZE PUSH1 0x1F NOT PUSH1 0x1F DUP3 ADD AND DUP3 ADD DUP1 PUSH1 0x40 MSTORE POP DUP2 ADD SWAP1 PUSH2 0xC69 SWAP2 SWAP1 PUSH2 0x1A95 JUMP JUMPDEST PUSH1 0x40 MLOAD PUSH4 0xEAA8F7E3 PUSH1 0xE0 SHL DUP2 MSTORE CALLER PUSH1 0x4 DUP3 ADD MSTORE SWAP1 SWAP2 POP PUSH1 0x1 PUSH1 0x1 PUSH1 0xA0 SHL SUB DUP3 AND SWAP1 PUSH4 0xEAA8F7E3 SWAP1 PUSH1 0x24 ADD PUSH1 0x20 PUSH1 0x40 MLOAD DUP1 DUP4 SUB DUP2 DUP7 DUP1 EXTCODESIZE ISZERO DUP1 ISZERO PUSH2 0xCAB JUMPI PUSH1 0x0 DUP1 REVERT JUMPDEST POP GAS STATICCALL ISZERO DUP1 ISZERO PUSH2 0xCBF JUMPI RETURNDATASIZE PUSH1 0x0 DUP1 RETURNDATACOPY RETURNDATASIZE PUSH1 0x0 REVERT JUMPDEST POP POP POP POP PUSH1 0x40 MLOAD RETURNDATASIZE PUSH1 0x1F NOT PUSH1 0x1F DUP3 ADD AND DUP3 ADD DUP1 PUSH1 0x40 MSTORE POP DUP2 ADD SWAP1 PUSH2 0xCE3 SWAP2 SWAP1 PUSH2 0x1AB2 JUMP JUMPDEST ISZERO PUSH2 0xD3C JUMPI PUSH1 0x40 MLOAD PUSH3 0x461BCD PUSH1 0xE5 SHL DUP2 MSTORE PUSH1 0x20 PUSH1 0x4 DUP3 ADD MSTORE PUSH1 0x23 PUSH1 0x24 DUP3 ADD MSTORE PUSH32 0x4343423A204275726E696E672069732074656D706F726172792064697361626C PUSH1 0x44 DUP3 ADD MSTORE PUSH3 0x656421 PUSH1 0xE8 SHL PUSH1 0x64 DUP3 ADD MSTORE PUSH1 0x84 ADD PUSH2 0x4A7 JUMP JUMPDEST POP JUMPDEST PUSH1 0x1 PUSH1 0x1 PUSH1 0xA0 SHL SUB DUP6 AND PUSH1 0x0 SWAP1 DUP2 MSTORE PUSH1 0x5 PUSH1 0x20 SWAP1 DUP2 MSTORE PUSH1 0x40 DUP1 DUP4 KECCAK256 SLOAD SWAP1 MLOAD PUSH2 0xD72 SWAP3 CALLER SWAP3 DUP11 SWAP3 DUP11 SWAP3 DUP9 SWAP3 CHAINID SWAP3 DUP13 SWAP3 ADD PUSH2 0x1A4D JUMP JUMPDEST PUSH1 0x40 DUP1 MLOAD DUP1 DUP4 SUB PUSH1 0x1F NOT ADD DUP2 MSTORE DUP3 DUP3 MSTORE DUP1 MLOAD PUSH1 0x20 SWAP2 DUP3 ADD KECCAK256 PUSH1 0x0 DUP2 DUP2 MSTORE PUSH1 0x2 SWAP1 SWAP3 MSTORE SWAP2 SWAP1 KECCAK256 DUP1 SLOAD PUSH1 0xFF NOT AND PUSH1 0x1 OR SWAP1 SSTORE PUSH4 0x66830B21 PUSH1 0xE0 SHL DUP3 MSTORE CALLER PUSH1 0x4 DUP4 ADD MSTORE PUSH1 0x24 DUP3 ADD DUP8 SWAP1 MSTORE SWAP2 POP PUSH1 0x1 PUSH1 0x1 PUSH1 0xA0 SHL SUB DUP5 AND SWAP1 PUSH4 0x66830B21 SWAP1 PUSH1 0x44 ADD PUSH1 0x0 PUSH1 0x40 MLOAD DUP1 DUP4 SUB DUP2 PUSH1 0x0 DUP8 DUP1 EXTCODESIZE ISZERO DUP1 ISZERO PUSH2 0xDE9 JUMPI PUSH1 0x0 DUP1 REVERT JUMPDEST POP GAS CALL ISZERO DUP1 ISZERO PUSH2 0xDFD JUMPI RETURNDATASIZE PUSH1 0x0 DUP1 RETURNDATACOPY RETURNDATASIZE PUSH1 0x0 REVERT JUMPDEST POP POP PUSH1 0x6 SLOAD PUSH1 0x40 MLOAD PUSH4 0xBB9FF5D PUSH1 0xE0 SHL DUP2 MSTORE PUSH1 0x1 PUSH1 0x1 PUSH1 0xA0 SHL SUB SWAP2 DUP3 AND PUSH1 0x4 DUP3 ADD MSTORE PUSH1 0x24 DUP2 ADD DUP7 SWAP1 MSTORE SWAP1 DUP7 AND SWAP3 POP PUSH4 0xBB9FF5D SWAP2 POP PUSH1 0x44 ADD PUSH1 0x0 PUSH1 0x40 MLOAD DUP1 DUP4 SUB DUP2 PUSH1 0x0 DUP8 DUP1 EXTCODESIZE ISZERO DUP1 ISZERO PUSH2 0xE4F JUMPI PUSH1 0x0 DUP1 REVERT JUMPDEST POP GAS CALL ISZERO DUP1 ISZERO PUSH2 0xE63 JUMPI RETURNDATASIZE PUSH1 0x0 DUP1 RETURNDATACOPY RETURNDATASIZE PUSH1 0x0 REVERT JUMPDEST POP POP POP POP PUSH1 0x1 PUSH1 0x1 PUSH1 0xA0 SHL SUB DUP7 AND PUSH1 0x0 DUP2 DUP2 MSTORE PUSH1 0x5 PUSH1 0x20 SWAP1 DUP2 MSTORE PUSH1 0x40 SWAP2 DUP3 SWAP1 KECCAK256 SLOAD DUP3 MLOAD CALLER DUP2 MSTORE SWAP2 DUP3 ADD SWAP4 SWAP1 SWAP4 MSTORE DUP1 DUP3 ADD DUP9 SWAP1 MSTORE PUSH1 0x60 DUP2 ADD DUP6 SWAP1 MSTORE PUSH1 0x80 DUP2 ADD SWAP3 SWAP1 SWAP3 MSTORE CHAINID PUSH1 0xA0 DUP4 ADD MSTORE PUSH1 0xC0 DUP3 ADD DUP7 SWAP1 MSTORE PUSH1 0xE0 DUP3 ADD DUP4 SWAP1 MSTORE MLOAD PUSH32 0x2B929FA34C889D2AD5C6D7CE59F206475B4E3D0E35D4F6E64092C61CD0DF2C84 SWAP2 DUP2 SWAP1 SUB PUSH2 0x100 ADD SWAP1 LOG1 PUSH1 0x1 PUSH1 0x1 PUSH1 0xA0 SHL SUB DUP7 AND PUSH1 0x0 SWAP1 DUP2 MSTORE PUSH1 0x5 PUSH1 0x20 MSTORE PUSH1 0x40 DUP2 KECCAK256 DUP1 SLOAD SWAP2 PUSH2 0xF09 DUP4 PUSH2 0x1A32 JUMP JUMPDEST SWAP2 SWAP1 POP SSTORE POP POP POP POP POP POP POP JUMP JUMPDEST PUSH32 0x275E91C232BD23CA279C3A520270F257F78763CEAFEAAB6F52A7518CF5E39A78 PUSH2 0xF41 DUP2 CALLER PUSH2 0x1179 JUMP JUMPDEST PUSH1 0x0 JUMPDEST DUP3 MLOAD DUP2 LT ISZERO PUSH2 0x1026 JUMPI PUSH1 0x2 DUP1 PUSH1 0x0 DUP6 DUP5 DUP2 MLOAD DUP2 LT PUSH2 0xF64 JUMPI PUSH2 0xF64 PUSH2 0x1A06 JUMP JUMPDEST PUSH1 0x20 SWAP1 DUP2 MUL SWAP2 SWAP1 SWAP2 ADD DUP2 ADD MLOAD DUP3 MSTORE DUP2 ADD SWAP2 SWAP1 SWAP2 MSTORE PUSH1 0x40 ADD PUSH1 0x0 KECCAK256 SLOAD PUSH1 0xFF AND PUSH1 0x3 DUP2 GT ISZERO PUSH2 0xF93 JUMPI PUSH2 0xF93 PUSH2 0x199C JUMP JUMPDEST LT ISZERO PUSH2 0xFF1 JUMPI PUSH1 0x2 DUP1 PUSH1 0x0 DUP6 DUP5 DUP2 MLOAD DUP2 LT PUSH2 0xFB0 JUMPI PUSH2 0xFB0 PUSH2 0x1A06 JUMP JUMPDEST PUSH1 0x20 MUL PUSH1 0x20 ADD ADD MLOAD DUP2 MSTORE PUSH1 0x20 ADD SWAP1 DUP2 MSTORE PUSH1 0x20 ADD PUSH1 0x0 KECCAK256 PUSH1 0x0 PUSH2 0x100 EXP DUP2 SLOAD DUP2 PUSH1 0xFF MUL NOT AND SWAP1 DUP4 PUSH1 0x3 DUP2 GT ISZERO PUSH2 0xFE7 JUMPI PUSH2 0xFE7 PUSH2 0x199C JUMP JUMPDEST MUL OR SWAP1 SSTORE POP PUSH2 0x1014 JUMP JUMPDEST PUSH1 0x0 DUP1 SHL DUP4 DUP3 DUP2 MLOAD DUP2 LT PUSH2 0x1007 JUMPI PUSH2 0x1007 PUSH2 0x1A06 JUMP JUMPDEST PUSH1 0x20 MUL PUSH1 0x20 ADD ADD DUP2 DUP2 MSTORE POP POP JUMPDEST DUP1 PUSH2 0x101E DUP2 PUSH2 0x1A32 JUMP JUMPDEST SWAP2 POP POP PUSH2 0xF44 JUMP JUMPDEST POP PUSH32 0x87B1F23C47E907F64D033AED5AC90B317CEE74959FCF5EFC12993F6EF6CBF101 DUP3 PUSH1 0x40 MLOAD PUSH2 0x4F7 SWAP2 SWAP1 PUSH2 0x1B04 JUMP JUMPDEST PUSH1 0x0 PUSH2 0x1062 DUP2 CALLER PUSH2 0x1179 JUMP JUMPDEST POP PUSH1 0x1 PUSH1 0x1 PUSH1 0xA0 SHL SUB SWAP1 SWAP3 AND PUSH1 0x0 SWAP1 DUP2 MSTORE PUSH1 0x7 PUSH1 0x20 SWAP1 DUP2 MSTORE PUSH1 0x40 DUP1 DUP4 KECCAK256 SWAP4 DUP4 MSTORE SWAP3 SWAP1 MSTORE KECCAK256 SSTORE JUMP JUMPDEST PUSH1 0x0 DUP3 DUP2 MSTORE PUSH1 0x1 PUSH1 0x20 MSTORE PUSH1 0x40 DUP2 KECCAK256 PUSH2 0x10A1 SWAP1 DUP4 PUSH2 0x128C JUMP JUMPDEST SWAP4 SWAP3 POP POP POP JUMP JUMPDEST PUSH1 0x0 SWAP2 DUP3 MSTORE PUSH1 0x20 DUP3 DUP2 MSTORE PUSH1 0x40 DUP1 DUP5 KECCAK256 PUSH1 0x1 PUSH1 0x1 PUSH1 0xA0 SHL SUB SWAP4 SWAP1 SWAP4 AND DUP5 MSTORE SWAP2 SWAP1 MSTORE SWAP1 KECCAK256 SLOAD PUSH1 0xFF AND SWAP1 JUMP JUMPDEST PUSH1 0x0 DUP2 DUP2 MSTORE PUSH1 0x1 PUSH1 0x20 MSTORE PUSH1 0x40 DUP2 KECCAK256 PUSH2 0x393 SWAP1 PUSH2 0x1298 JUMP JUMPDEST PUSH2 0x534 DUP3 DUP3 PUSH2 0x12A2 JUMP JUMPDEST PUSH1 0x0 PUSH2 0x10FE DUP2 CALLER PUSH2 0x1179 JUMP JUMPDEST POP PUSH1 0x6 DUP1 SLOAD PUSH1 0x1 PUSH1 0x1 PUSH1 0xA0 SHL SUB NOT AND PUSH1 0x1 PUSH1 0x1 PUSH1 0xA0 SHL SUB SWAP3 SWAP1 SWAP3 AND SWAP2 SWAP1 SWAP2 OR SWAP1 SSTORE JUMP JUMPDEST PUSH2 0x112B DUP3 DUP3 PUSH2 0x12C8 JUMP JUMPDEST POP POP JUMP JUMPDEST PUSH1 0x0 PUSH2 0x10A1 DUP4 PUSH1 0x1 PUSH1 0x1 PUSH1 0xA0 SHL SUB DUP5 AND PUSH2 0x134C JUMP JUMPDEST PUSH1 0x0 PUSH1 0x1 PUSH1 0x1 PUSH1 0xE0 SHL SUB NOT DUP3 AND PUSH4 0x7965DB0B PUSH1 0xE0 SHL EQ DUP1 PUSH2 0x393 JUMPI POP PUSH4 0x1FFC9A7 PUSH1 0xE0 SHL PUSH1 0x1 PUSH1 0x1 PUSH1 0xE0 SHL SUB NOT DUP4 AND EQ PUSH2 0x393 JUMP JUMPDEST PUSH2 0x1183 DUP3 DUP3 PUSH2 0x10A8 JUMP JUMPDEST PUSH2 0x112B JUMPI PUSH2 0x119B DUP2 PUSH1 0x1 PUSH1 0x1 PUSH1 0xA0 SHL SUB AND PUSH1 0x14 PUSH2 0x139B JUMP JUMPDEST PUSH2 0x11A6 DUP4 PUSH1 0x20 PUSH2 0x139B JUMP JUMPDEST PUSH1 0x40 MLOAD PUSH1 0x20 ADD PUSH2 0x11B7 SWAP3 SWAP2 SWAP1 PUSH2 0x1B74 JUMP JUMPDEST PUSH1 0x40 DUP1 MLOAD PUSH1 0x1F NOT DUP2 DUP5 SUB ADD DUP2 MSTORE SWAP1 DUP3 SWAP1 MSTORE PUSH3 0x461BCD PUSH1 0xE5 SHL DUP3 MSTORE PUSH2 0x4A7 SWAP2 PUSH1 0x4 ADD PUSH2 0x1BE9 JUMP JUMPDEST PUSH2 0x50D DUP3 DUP3 PUSH2 0x1121 JUMP JUMPDEST PUSH1 0x0 PUSH2 0x11F3 DUP2 CALLER PUSH2 0x1179 JUMP JUMPDEST PUSH2 0x525 DUP4 DUP4 PUSH2 0x12C8 JUMP JUMPDEST PUSH1 0x1 PUSH1 0x1 PUSH1 0xA0 SHL SUB DUP2 AND CALLER EQ PUSH2 0x126D JUMPI PUSH1 0x40 MLOAD PUSH3 0x461BCD PUSH1 0xE5 SHL DUP2 MSTORE PUSH1 0x20 PUSH1 0x4 DUP3 ADD MSTORE PUSH1 0x2F PUSH1 0x24 DUP3 ADD MSTORE PUSH32 0x416363657373436F6E74726F6C3A2063616E206F6E6C792072656E6F756E6365 PUSH1 0x44 DUP3 ADD MSTORE PUSH15 0x103937B632B9903337B91039B2B633 PUSH1 0x89 SHL PUSH1 0x64 DUP3 ADD MSTORE PUSH1 0x84 ADD PUSH2 0x4A7 JUMP JUMPDEST PUSH2 0x112B DUP3 DUP3 PUSH2 0x1537 JUMP JUMPDEST PUSH1 0x0 PUSH2 0x10A1 DUP4 PUSH1 0x1 PUSH1 0x1 PUSH1 0xA0 SHL SUB DUP5 AND PUSH2 0x159C JUMP JUMPDEST PUSH1 0x0 PUSH2 0x10A1 DUP4 DUP4 PUSH2 0x168F JUMP JUMPDEST PUSH1 0x0 PUSH2 0x393 DUP3 SLOAD SWAP1 JUMP JUMPDEST PUSH1 0x0 DUP3 DUP2 MSTORE PUSH1 0x20 DUP2 SWAP1 MSTORE PUSH1 0x40 SWAP1 KECCAK256 PUSH1 0x1 ADD SLOAD PUSH2 0x12BE DUP2 CALLER PUSH2 0x1179 JUMP JUMPDEST PUSH2 0x525 DUP4 DUP4 PUSH2 0x1537 JUMP JUMPDEST PUSH2 0x12D2 DUP3 DUP3 PUSH2 0x10A8 JUMP JUMPDEST PUSH2 0x112B JUMPI PUSH1 0x0 DUP3 DUP2 MSTORE PUSH1 0x20 DUP2 DUP2 MSTORE PUSH1 0x40 DUP1 DUP4 KECCAK256 PUSH1 0x1 PUSH1 0x1 PUSH1 0xA0 SHL SUB DUP6 AND DUP5 MSTORE SWAP1 SWAP2 MSTORE SWAP1 KECCAK256 DUP1 SLOAD PUSH1 0xFF NOT AND PUSH1 0x1 OR SWAP1 SSTORE PUSH2 0x1308 CALLER SWAP1 JUMP JUMPDEST PUSH1 0x1 PUSH1 0x1 PUSH1 0xA0 SHL SUB AND DUP2 PUSH1 0x1 PUSH1 0x1 PUSH1 0xA0 SHL SUB AND DUP4 PUSH32 0x2F8788117E7EFF1D82E926EC794901D17C78024A50270940304540A733656F0D PUSH1 0x40 MLOAD PUSH1 0x40 MLOAD DUP1 SWAP2 SUB SWAP1 LOG4 POP POP JUMP JUMPDEST PUSH1 0x0 DUP2 DUP2 MSTORE PUSH1 0x1 DUP4 ADD PUSH1 0x20 MSTORE PUSH1 0x40 DUP2 KECCAK256 SLOAD PUSH2 0x1393 JUMPI POP DUP2 SLOAD PUSH1 0x1 DUP2 DUP2 ADD DUP5 SSTORE PUSH1 0x0 DUP5 DUP2 MSTORE PUSH1 0x20 DUP1 DUP3 KECCAK256 SWAP1 SWAP4 ADD DUP5 SWAP1 SSTORE DUP5 SLOAD DUP5 DUP3 MSTORE DUP3 DUP7 ADD SWAP1 SWAP4 MSTORE PUSH1 0x40 SWAP1 KECCAK256 SWAP2 SWAP1 SWAP2 SSTORE PUSH2 0x393 JUMP JUMPDEST POP PUSH1 0x0 PUSH2 0x393 JUMP JUMPDEST PUSH1 0x60 PUSH1 0x0 PUSH2 0x13AA DUP4 PUSH1 0x2 PUSH2 0x1C1C JUMP JUMPDEST PUSH2 0x13B5 SWAP1 PUSH1 0x2 PUSH2 0x1C3B JUMP JUMPDEST PUSH8 0xFFFFFFFFFFFFFFFF DUP2 GT ISZERO PUSH2 0x13CD JUMPI PUSH2 0x13CD PUSH2 0x17B9 JUMP JUMPDEST PUSH1 0x40 MLOAD SWAP1 DUP1 DUP3 MSTORE DUP1 PUSH1 0x1F ADD PUSH1 0x1F NOT AND PUSH1 0x20 ADD DUP3 ADD PUSH1 0x40 MSTORE DUP1 ISZERO PUSH2 0x13F7 JUMPI PUSH1 0x20 DUP3 ADD DUP2 DUP1 CALLDATASIZE DUP4 CALLDATACOPY ADD SWAP1 POP JUMPDEST POP SWAP1 POP PUSH1 0x3 PUSH1 0xFC SHL DUP2 PUSH1 0x0 DUP2 MLOAD DUP2 LT PUSH2 0x1412 JUMPI PUSH2 0x1412 PUSH2 0x1A06 JUMP JUMPDEST PUSH1 0x20 ADD ADD SWAP1 PUSH1 0x1 PUSH1 0x1 PUSH1 0xF8 SHL SUB NOT AND SWAP1 DUP2 PUSH1 0x0 BYTE SWAP1 MSTORE8 POP PUSH1 0xF PUSH1 0xFB SHL DUP2 PUSH1 0x1 DUP2 MLOAD DUP2 LT PUSH2 0x1441 JUMPI PUSH2 0x1441 PUSH2 0x1A06 JUMP JUMPDEST PUSH1 0x20 ADD ADD SWAP1 PUSH1 0x1 PUSH1 0x1 PUSH1 0xF8 SHL SUB NOT AND SWAP1 DUP2 PUSH1 0x0 BYTE SWAP1 MSTORE8 POP PUSH1 0x0 PUSH2 0x1465 DUP5 PUSH1 0x2 PUSH2 0x1C1C JUMP JUMPDEST PUSH2 0x1470 SWAP1 PUSH1 0x1 PUSH2 0x1C3B JUMP JUMPDEST SWAP1 POP JUMPDEST PUSH1 0x1 DUP2 GT ISZERO PUSH2 0x14E8 JUMPI PUSH16 0x181899199A1A9B1B9C1CB0B131B232B3 PUSH1 0x81 SHL DUP6 PUSH1 0xF AND PUSH1 0x10 DUP2 LT PUSH2 0x14A4 JUMPI PUSH2 0x14A4 PUSH2 0x1A06 JUMP JUMPDEST BYTE PUSH1 0xF8 SHL DUP3 DUP3 DUP2 MLOAD DUP2 LT PUSH2 0x14BA JUMPI PUSH2 0x14BA PUSH2 0x1A06 JUMP JUMPDEST PUSH1 0x20 ADD ADD SWAP1 PUSH1 0x1 PUSH1 0x1 PUSH1 0xF8 SHL SUB NOT AND SWAP1 DUP2 PUSH1 0x0 BYTE SWAP1 MSTORE8 POP PUSH1 0x4 SWAP5 SWAP1 SWAP5 SHR SWAP4 PUSH2 0x14E1 DUP2 PUSH2 0x1C53 JUMP JUMPDEST SWAP1 POP PUSH2 0x1473 JUMP JUMPDEST POP DUP4 ISZERO PUSH2 0x10A1 JUMPI PUSH1 0x40 MLOAD PUSH3 0x461BCD PUSH1 0xE5 SHL DUP2 MSTORE PUSH1 0x20 PUSH1 0x4 DUP3 ADD DUP2 SWAP1 MSTORE PUSH1 0x24 DUP3 ADD MSTORE PUSH32 0x537472696E67733A20686578206C656E67746820696E73756666696369656E74 PUSH1 0x44 DUP3 ADD MSTORE PUSH1 0x64 ADD PUSH2 0x4A7 JUMP JUMPDEST PUSH2 0x1541 DUP3 DUP3 PUSH2 0x10A8 JUMP JUMPDEST ISZERO PUSH2 0x112B JUMPI PUSH1 0x0 DUP3 DUP2 MSTORE PUSH1 0x20 DUP2 DUP2 MSTORE PUSH1 0x40 DUP1 DUP4 KECCAK256 PUSH1 0x1 PUSH1 0x1 PUSH1 0xA0 SHL SUB DUP6 AND DUP1 DUP6 MSTORE SWAP3 MSTORE DUP1 DUP4 KECCAK256 DUP1 SLOAD PUSH1 0xFF NOT AND SWAP1 SSTORE MLOAD CALLER SWAP3 DUP6 SWAP2 PUSH32 0xF6391F5C32D9C69D2A47EA670B442974B53935D1EDC7FD64EB21E047A839171B SWAP2 SWAP1 LOG4 POP POP JUMP JUMPDEST PUSH1 0x0 DUP2 DUP2 MSTORE PUSH1 0x1 DUP4 ADD PUSH1 0x20 MSTORE PUSH1 0x40 DUP2 KECCAK256 SLOAD DUP1 ISZERO PUSH2 0x1685 JUMPI PUSH1 0x0 PUSH2 0x15C0 PUSH1 0x1 DUP4 PUSH2 0x1AD4 JUMP JUMPDEST DUP6 SLOAD SWAP1 SWAP2 POP PUSH1 0x0 SWAP1 PUSH2 0x15D4 SWAP1 PUSH1 0x1 SWAP1 PUSH2 0x1AD4 JUMP JUMPDEST SWAP1 POP DUP2 DUP2 EQ PUSH2 0x1639 JUMPI PUSH1 0x0 DUP7 PUSH1 0x0 ADD DUP3 DUP2 SLOAD DUP2 LT PUSH2 0x15F4 JUMPI PUSH2 0x15F4 PUSH2 0x1A06 JUMP JUMPDEST SWAP1 PUSH1 0x0 MSTORE PUSH1 0x20 PUSH1 0x0 KECCAK256 ADD SLOAD SWAP1 POP DUP1 DUP8 PUSH1 0x0 ADD DUP5 DUP2 SLOAD DUP2 LT PUSH2 0x1617 JUMPI PUSH2 0x1617 PUSH2 0x1A06 JUMP JUMPDEST PUSH1 0x0 SWAP2 DUP3 MSTORE PUSH1 0x20 DUP1 DUP4 KECCAK256 SWAP1 SWAP2 ADD SWAP3 SWAP1 SWAP3 SSTORE SWAP2 DUP3 MSTORE PUSH1 0x1 DUP9 ADD SWAP1 MSTORE PUSH1 0x40 SWAP1 KECCAK256 DUP4 SWAP1 SSTORE JUMPDEST DUP6 SLOAD DUP7 SWAP1 DUP1 PUSH2 0x164A JUMPI PUSH2 0x164A PUSH2 0x1C6A JUMP JUMPDEST PUSH1 0x1 SWAP1 SUB DUP2 DUP2 SWAP1 PUSH1 0x0 MSTORE PUSH1 0x20 PUSH1 0x0 KECCAK256 ADD PUSH1 0x0 SWAP1 SSTORE SWAP1 SSTORE DUP6 PUSH1 0x1 ADD PUSH1 0x0 DUP7 DUP2 MSTORE PUSH1 0x20 ADD SWAP1 DUP2 MSTORE PUSH1 0x20 ADD PUSH1 0x0 KECCAK256 PUSH1 0x0 SWAP1 SSTORE PUSH1 0x1 SWAP4 POP POP POP POP PUSH2 0x393 JUMP JUMPDEST PUSH1 0x0 SWAP2 POP POP PUSH2 0x393 JUMP JUMPDEST PUSH1 0x0 DUP3 PUSH1 0x0 ADD DUP3 DUP2 SLOAD DUP2 LT PUSH2 0x16A6 JUMPI PUSH2 0x16A6 PUSH2 0x1A06 JUMP JUMPDEST SWAP1 PUSH1 0x0 MSTORE PUSH1 0x20 PUSH1 0x0 KECCAK256 ADD SLOAD SWAP1 POP SWAP3 SWAP2 POP POP JUMP JUMPDEST PUSH1 0x0 PUSH1 0x20 DUP3 DUP5 SUB SLT ISZERO PUSH2 0x16CB JUMPI PUSH1 0x0 DUP1 REVERT JUMPDEST DUP2 CALLDATALOAD PUSH1 0x1 PUSH1 0x1 PUSH1 0xE0 SHL SUB NOT DUP2 AND DUP2 EQ PUSH2 0x10A1 JUMPI PUSH1 0x0 DUP1 REVERT JUMPDEST PUSH1 0x0 DUP1 PUSH1 0x20 DUP4 DUP6 SUB SLT ISZERO PUSH2 0x16F6 JUMPI PUSH1 0x0 DUP1 REVERT JUMPDEST DUP3 CALLDATALOAD PUSH8 0xFFFFFFFFFFFFFFFF DUP1 DUP3 GT ISZERO PUSH2 0x170E JUMPI PUSH1 0x0 DUP1 REVERT JUMPDEST DUP2 DUP6 ADD SWAP2 POP DUP6 PUSH1 0x1F DUP4 ADD SLT PUSH2 0x1722 JUMPI PUSH1 0x0 DUP1 REVERT JUMPDEST DUP2 CALLDATALOAD DUP2 DUP2 GT ISZERO PUSH2 0x1731 JUMPI PUSH1 0x0 DUP1 REVERT JUMPDEST DUP7 PUSH1 0x20 DUP3 PUSH1 0x6 SHL DUP6 ADD ADD GT ISZERO PUSH2 0x1746 JUMPI PUSH1 0x0 DUP1 REVERT JUMPDEST PUSH1 0x20 SWAP3 SWAP1 SWAP3 ADD SWAP7 SWAP2 SWAP6 POP SWAP1 SWAP4 POP POP POP POP JUMP JUMPDEST PUSH1 0x0 PUSH1 0x20 DUP3 DUP5 SUB SLT ISZERO PUSH2 0x176A JUMPI PUSH1 0x0 DUP1 REVERT JUMPDEST POP CALLDATALOAD SWAP2 SWAP1 POP JUMP JUMPDEST PUSH1 0x1 PUSH1 0x1 PUSH1 0xA0 SHL SUB DUP2 AND DUP2 EQ PUSH2 0x1786 JUMPI PUSH1 0x0 DUP1 REVERT JUMPDEST POP JUMP JUMPDEST PUSH1 0x0 DUP1 PUSH1 0x40 DUP4 DUP6 SUB SLT ISZERO PUSH2 0x179C JUMPI PUSH1 0x0 DUP1 REVERT JUMPDEST DUP3 CALLDATALOAD SWAP2 POP PUSH1 0x20 DUP4 ADD CALLDATALOAD PUSH2 0x17AE DUP2 PUSH2 0x1771 JUMP JUMPDEST DUP1 SWAP2 POP POP SWAP3 POP SWAP3 SWAP1 POP JUMP JUMPDEST PUSH4 0x4E487B71 PUSH1 0xE0 SHL PUSH1 0x0 MSTORE PUSH1 0x41 PUSH1 0x4 MSTORE PUSH1 0x24 PUSH1 0x0 REVERT JUMPDEST PUSH1 0x40 MLOAD PUSH1 0x1F DUP3 ADD PUSH1 0x1F NOT AND DUP2 ADD PUSH8 0xFFFFFFFFFFFFFFFF DUP2 GT DUP3 DUP3 LT OR ISZERO PUSH2 0x17F8 JUMPI PUSH2 0x17F8 PUSH2 0x17B9 JUMP JUMPDEST PUSH1 0x40 MSTORE SWAP2 SWAP1 POP JUMP JUMPDEST PUSH1 0x0 PUSH1 0xC0 DUP3 DUP5 SUB SLT ISZERO PUSH2 0x1812 JUMPI PUSH1 0x0 DUP1 REVERT JUMPDEST PUSH1 0x40 MLOAD PUSH1 0xC0 DUP2 ADD DUP2 DUP2 LT PUSH8 0xFFFFFFFFFFFFFFFF DUP3 GT OR ISZERO PUSH2 0x1835 JUMPI PUSH2 0x1835 PUSH2 0x17B9 JUMP JUMPDEST DUP1 PUSH1 0x40 MSTORE POP DUP3 CALLDATALOAD DUP2 MSTORE PUSH1 0x20 DUP4 ADD CALLDATALOAD PUSH1 0x20 DUP3 ADD MSTORE PUSH1 0x40 DUP4 ADD CALLDATALOAD PUSH1 0x40 DUP3 ADD MSTORE PUSH1 0x60 DUP4 ADD CALLDATALOAD PUSH1 0x60 DUP3 ADD MSTORE PUSH1 0x80 DUP4 ADD CALLDATALOAD PUSH2 0x186A DUP2 PUSH2 0x1771 JUMP JUMPDEST PUSH1 0x80 DUP3 ADD MSTORE PUSH1 0xA0 SWAP3 DUP4 ADD CALLDATALOAD SWAP3 DUP2 ADD SWAP3 SWAP1 SWAP3 MSTORE POP SWAP2 SWAP1 POP JUMP JUMPDEST PUSH1 0x0 PUSH1 0x20 DUP3 DUP5 SUB SLT ISZERO PUSH2 0x1894 JUMPI PUSH1 0x0 DUP1 REVERT JUMPDEST DUP2 CALLDATALOAD PUSH2 0x10A1 DUP2 PUSH2 0x1771 JUMP JUMPDEST PUSH1 0x0 DUP1 PUSH1 0x0 PUSH1 0x60 DUP5 DUP7 SUB SLT ISZERO PUSH2 0x18B4 JUMPI PUSH1 0x0 DUP1 REVERT JUMPDEST DUP4 CALLDATALOAD PUSH2 0x18BF DUP2 PUSH2 0x1771 JUMP JUMPDEST SWAP6 PUSH1 0x20 DUP6 ADD CALLDATALOAD SWAP6 POP PUSH1 0x40 SWAP1 SWAP5 ADD CALLDATALOAD SWAP4 SWAP3 POP POP POP JUMP JUMPDEST PUSH1 0x0 PUSH1 0x20 DUP1 DUP4 DUP6 SUB SLT ISZERO PUSH2 0x18E7 JUMPI PUSH1 0x0 DUP1 REVERT JUMPDEST DUP3 CALLDATALOAD PUSH8 0xFFFFFFFFFFFFFFFF DUP1 DUP3 GT ISZERO PUSH2 0x18FF JUMPI PUSH1 0x0 DUP1 REVERT JUMPDEST DUP2 DUP6 ADD SWAP2 POP DUP6 PUSH1 0x1F DUP4 ADD SLT PUSH2 0x1913 JUMPI PUSH1 0x0 DUP1 REVERT JUMPDEST DUP2 CALLDATALOAD DUP2 DUP2 GT ISZERO PUSH2 0x1925 JUMPI PUSH2 0x1925 PUSH2 0x17B9 JUMP JUMPDEST DUP1 PUSH1 0x5 SHL SWAP2 POP PUSH2 0x1936 DUP5 DUP4 ADD PUSH2 0x17CF JUMP JUMPDEST DUP2 DUP2 MSTORE SWAP2 DUP4 ADD DUP5 ADD SWAP2 DUP5 DUP2 ADD SWAP1 DUP9 DUP5 GT ISZERO PUSH2 0x1950 JUMPI PUSH1 0x0 DUP1 REVERT JUMPDEST SWAP4 DUP6 ADD SWAP4 JUMPDEST DUP4 DUP6 LT ISZERO PUSH2 0x196E JUMPI DUP5 CALLDATALOAD DUP3 MSTORE SWAP4 DUP6 ADD SWAP4 SWAP1 DUP6 ADD SWAP1 PUSH2 0x1955 JUMP JUMPDEST SWAP9 SWAP8 POP POP POP POP POP POP POP POP JUMP JUMPDEST PUSH1 0x0 DUP1 PUSH1 0x40 DUP4 DUP6 SUB SLT ISZERO PUSH2 0x198D JUMPI PUSH1 0x0 DUP1 REVERT JUMPDEST POP POP DUP1 CALLDATALOAD SWAP3 PUSH1 0x20 SWAP1 SWAP2 ADD CALLDATALOAD SWAP2 POP JUMP JUMPDEST PUSH4 0x4E487B71 PUSH1 0xE0 SHL PUSH1 0x0 MSTORE PUSH1 0x21 PUSH1 0x4 MSTORE PUSH1 0x24 PUSH1 0x0 REVERT JUMPDEST PUSH1 0x20 DUP2 ADD PUSH1 0x4 DUP4 LT PUSH2 0x19D4 JUMPI PUSH4 0x4E487B71 PUSH1 0xE0 SHL PUSH1 0x0 MSTORE PUSH1 0x21 PUSH1 0x4 MSTORE PUSH1 0x24 PUSH1 0x0 REVERT JUMPDEST SWAP2 SWAP1 MSTORE SWAP1 JUMP JUMPDEST PUSH1 0x0 DUP1 PUSH1 0x40 DUP4 DUP6 SUB SLT ISZERO PUSH2 0x19ED JUMPI PUSH1 0x0 DUP1 REVERT JUMPDEST DUP3 CALLDATALOAD PUSH2 0x19F8 DUP2 PUSH2 0x1771 JUMP JUMPDEST SWAP5 PUSH1 0x20 SWAP4 SWAP1 SWAP4 ADD CALLDATALOAD SWAP4 POP POP POP JUMP JUMPDEST PUSH4 0x4E487B71 PUSH1 0xE0 SHL PUSH1 0x0 MSTORE PUSH1 0x32 PUSH1 0x4 MSTORE PUSH1 0x24 PUSH1 0x0 REVERT JUMPDEST PUSH4 0x4E487B71 PUSH1 0xE0 SHL PUSH1 0x0 MSTORE PUSH1 0x11 PUSH1 0x4 MSTORE PUSH1 0x24 PUSH1 0x0 REVERT JUMPDEST PUSH1 0x0 PUSH1 0x0 NOT DUP3 EQ ISZERO PUSH2 0x1A46 JUMPI PUSH2 0x1A46 PUSH2 0x1A1C JUMP JUMPDEST POP PUSH1 0x1 ADD SWAP1 JUMP JUMPDEST PUSH12 0xFFFFFFFFFFFFFFFFFFFFFFFF NOT PUSH1 0x60 SWAP9 DUP10 SHL DUP2 AND DUP3 MSTORE SWAP7 SWAP1 SWAP8 SHL SWAP1 SWAP6 AND PUSH1 0x14 DUP8 ADD MSTORE PUSH1 0x28 DUP7 ADD SWAP4 SWAP1 SWAP4 MSTORE PUSH1 0x48 DUP6 ADD SWAP2 SWAP1 SWAP2 MSTORE PUSH1 0x68 DUP5 ADD MSTORE PUSH1 0x88 DUP4 ADD MSTORE PUSH1 0xA8 DUP3 ADD MSTORE PUSH1 0xC8 ADD SWAP1 JUMP JUMPDEST PUSH1 0x0 PUSH1 0x20 DUP3 DUP5 SUB SLT ISZERO PUSH2 0x1AA7 JUMPI PUSH1 0x0 DUP1 REVERT JUMPDEST DUP2 MLOAD PUSH2 0x10A1 DUP2 PUSH2 0x1771 JUMP JUMPDEST PUSH1 0x0 PUSH1 0x20 DUP3 DUP5 SUB SLT ISZERO PUSH2 0x1AC4 JUMPI PUSH1 0x0 DUP1 REVERT JUMPDEST DUP2 MLOAD DUP1 ISZERO ISZERO DUP2 EQ PUSH2 0x10A1 JUMPI PUSH1 0x0 DUP1 REVERT JUMPDEST PUSH1 0x0 DUP3 DUP3 LT ISZERO PUSH2 0x1AE6 JUMPI PUSH2 0x1AE6 PUSH2 0x1A1C JUMP JUMPDEST POP SUB SWAP1 JUMP JUMPDEST PUSH1 0x0 PUSH1 0x20 DUP3 DUP5 SUB SLT ISZERO PUSH2 0x1AFD JUMPI PUSH1 0x0 DUP1 REVERT JUMPDEST POP MLOAD SWAP2 SWAP1 POP JUMP JUMPDEST PUSH1 0x20 DUP1 DUP3 MSTORE DUP3 MLOAD DUP3 DUP3 ADD DUP2 SWAP1 MSTORE PUSH1 0x0 SWAP2 SWAP1 DUP5 DUP3 ADD SWAP1 PUSH1 0x40 DUP6 ADD SWAP1 DUP5 JUMPDEST DUP2 DUP2 LT ISZERO PUSH2 0x1B3C JUMPI DUP4 MLOAD DUP4 MSTORE SWAP3 DUP5 ADD SWAP3 SWAP2 DUP5 ADD SWAP2 PUSH1 0x1 ADD PUSH2 0x1B20 JUMP JUMPDEST POP SWAP1 SWAP7 SWAP6 POP POP POP POP POP POP JUMP JUMPDEST PUSH1 0x0 JUMPDEST DUP4 DUP2 LT ISZERO PUSH2 0x1B63 JUMPI DUP2 DUP2 ADD MLOAD DUP4 DUP3 ADD MSTORE PUSH1 0x20 ADD PUSH2 0x1B4B JUMP JUMPDEST DUP4 DUP2 GT ISZERO PUSH2 0x410 JUMPI POP POP PUSH1 0x0 SWAP2 ADD MSTORE JUMP JUMPDEST PUSH32 0x416363657373436F6E74726F6C3A206163636F756E7420000000000000000000 DUP2 MSTORE PUSH1 0x0 DUP4 MLOAD PUSH2 0x1BAC DUP2 PUSH1 0x17 DUP6 ADD PUSH1 0x20 DUP9 ADD PUSH2 0x1B48 JUMP JUMPDEST PUSH17 0x1034B99036B4B9B9B4B733903937B6329 PUSH1 0x7D SHL PUSH1 0x17 SWAP2 DUP5 ADD SWAP2 DUP3 ADD MSTORE DUP4 MLOAD PUSH2 0x1BDD DUP2 PUSH1 0x28 DUP5 ADD PUSH1 0x20 DUP9 ADD PUSH2 0x1B48 JUMP JUMPDEST ADD PUSH1 0x28 ADD SWAP5 SWAP4 POP POP POP POP JUMP JUMPDEST PUSH1 0x20 DUP2 MSTORE PUSH1 0x0 DUP3 MLOAD DUP1 PUSH1 0x20 DUP5 ADD MSTORE PUSH2 0x1C08 DUP2 PUSH1 0x40 DUP6 ADD PUSH1 0x20 DUP8 ADD PUSH2 0x1B48 JUMP JUMPDEST PUSH1 0x1F ADD PUSH1 0x1F NOT AND SWAP2 SWAP1 SWAP2 ADD PUSH1 0x40 ADD SWAP3 SWAP2 POP POP JUMP JUMPDEST PUSH1 0x0 DUP2 PUSH1 0x0 NOT DIV DUP4 GT DUP3 ISZERO ISZERO AND ISZERO PUSH2 0x1C36 JUMPI PUSH2 0x1C36 PUSH2 0x1A1C JUMP JUMPDEST POP MUL SWAP1 JUMP JUMPDEST PUSH1 0x0 DUP3 NOT DUP3 GT ISZERO PUSH2 0x1C4E JUMPI PUSH2 0x1C4E PUSH2 0x1A1C JUMP JUMPDEST POP ADD SWAP1 JUMP JUMPDEST PUSH1 0x0 DUP2 PUSH2 0x1C62 JUMPI PUSH2 0x1C62 PUSH2 0x1A1C JUMP JUMPDEST POP PUSH1 0x0 NOT ADD SWAP1 JUMP JUMPDEST PUSH4 0x4E487B71 PUSH1 0xE0 SHL PUSH1 0x0 MSTORE PUSH1 0x31 PUSH1 0x4 MSTORE PUSH1 0x24 PUSH1 0x0 REVERT INVALID LOG2 PUSH5 0x6970667358 0x22 SLT KECCAK256 BYTE 0xED PUSH3 0x2D8D22 0xF6 SWAP1 PUSH28 0x48E980F4A1CA2D382530195094F1BCDADB0D11A8AF46FC64736F6C63 NUMBER STOP ADDMOD ADDMOD STOP CALLER DUP14 0xE1 BALANCE 0xC6 DUP1 0xD7 0xE6 0xE2 PUSH32 0xD97F12019B4D428C411F31A9AAC4D6BD0E10E559E8D5E275E91C232BD23CA27 SWAP13 GASPRICE MSTORE MUL PUSH17 0xF257F78763CEAFEAAB6F52A7518CF5E39A PUSH25 0x8B756FEA79B0109BCAA2382AD12EB315F3BC91E2A2B7D95F36 0xC9 DUP7 0xC2 0x2D PUSH12 0x8F46B6E02BC53A2050F5CD12 0xDD LOG2 PUSH15 0x2D48B0D9E09F637ABB573BA5B0065F DIV STATICCALL 0x4A PUSH13 0x68A98414D524BB155A91D13E99 PUSH25 0xFC3E76DD4307EAD2935560363CB85890352700000000000000 "
		},
		"gasEstimates": {
			"creation": {
				"codeDepositCost": "1470000",
				"executionCost": "infinite",
				"totalCost": "infinite"
			},
			"external": {
				"ROLE_ADMIN()": "261",
				"ROLE_APPROVER()": "307",
				"beneficiaryAddress()": "2447",
				"bulkMarkTransactionsAsApproved(bytes32[])": "infinite",
				"burnAndCreateProof(address,uint256,uint256)": "infinite",
				"currentNonce(address)": "2602",
				"getFeeDependingOnDestinationChainId(address,uint256)": "2652",
				"getRoleAdmin(bytes32)": "2537",
				"getRoleMember(bytes32,uint256)": "infinite",
				"getRoleMemberCount(bytes32)": "infinite",
				"grantRole(bytes32,address)": "infinite",
				"grantRolesBulk((bytes32,address)[])": "infinite",
				"hasRole(bytes32,address)": "2739",
				"markTransactionAsApproved(bytes32)": "infinite",
				"mintWithBurnProof((uint256,uint256,uint256,uint256,address,bytes32))": "infinite",
				"renounceRole(bytes32,address)": "infinite",
				"revokeRole(bytes32,address)": "infinite",
				"supportsInterface(bytes4)": "infinite",
				"transactionStorage(bytes32)": "2602",
				"updateBeneficiaryAddress(address)": "infinite",
				"updateFeeDependingOnDestinationChainId(address,uint256,uint256)": "infinite"
			}
		},
		"methodIdentifiers": {
			"ROLE_ADMIN()": "d391014b",
			"ROLE_APPROVER()": "280a1931",
			"beneficiaryAddress()": "d9c4870e",
			"bulkMarkTransactionsAsApproved(bytes32[])": "6a74d8f4",
			"burnAndCreateProof(address,uint256,uint256)": "6629b55c",
			"currentNonce(address)": "6437ecfc",
			"getFeeDependingOnDestinationChainId(address,uint256)": "bf416265",
			"getRoleAdmin(bytes32)": "248a9ca3",
			"getRoleMember(bytes32,uint256)": "9010d07c",
			"getRoleMemberCount(bytes32)": "ca15c873",
			"grantRole(bytes32,address)": "2f2ff15d",
			"grantRolesBulk((bytes32,address)[])": "03ed957f",
			"hasRole(bytes32,address)": "91d14854",
			"markTransactionAsApproved(bytes32)": "0912227e",
			"mintWithBurnProof((uint256,uint256,uint256,uint256,address,bytes32))": "5c906ac8",
			"renounceRole(bytes32,address)": "36568abe",
			"revokeRole(bytes32,address)": "d547741f",
			"supportsInterface(bytes4)": "01ffc9a7",
			"transactionStorage(bytes32)": "96e66443",
			"updateBeneficiaryAddress(address)": "e8fa9233",
			"updateFeeDependingOnDestinationChainId(address,uint256,uint256)": "86abc635"
		}
	},
	"abi": [
		{
			"inputs": [],
			"stateMutability": "nonpayable",
			"type": "constructor"
		},
		{
			"anonymous": false,
			"inputs": [
				{
					"indexed": false,
					"internalType": "bytes32",
					"name": "transactionHash",
					"type": "bytes32"
				}
			],
			"name": "ApprovedTransaction",
			"type": "event"
		},
		{
			"anonymous": false,
			"inputs": [
				{
					"indexed": false,
					"internalType": "bytes32[]",
					"name": "transactionHashes",
					"type": "bytes32[]"
				}
			],
			"name": "BulkApprovedTransactions",
			"type": "event"
		},
		{
			"anonymous": false,
			"inputs": [
				{
					"indexed": false,
					"internalType": "uint256",
					"name": "newFeePercent",
					"type": "uint256"
				}
			],
			"name": "FeeUpdated",
			"type": "event"
		},
		{
			"anonymous": false,
			"inputs": [
				{
					"indexed": false,
					"internalType": "address",
					"name": "addr",
					"type": "address"
				},
				{
					"indexed": false,
					"internalType": "address",
					"name": "token",
					"type": "address"
				},
				{
					"indexed": false,
					"internalType": "uint256",
					"name": "amount",
					"type": "uint256"
				},
				{
					"indexed": false,
					"internalType": "uint256",
					"name": "amountAsFee",
					"type": "uint256"
				},
				{
					"indexed": false,
					"internalType": "uint256",
					"name": "currentNonce",
					"type": "uint256"
				},
				{
					"indexed": false,
					"internalType": "uint256",
					"name": "sourceChain",
					"type": "uint256"
				},
				{
					"indexed": false,
					"internalType": "uint256",
					"name": "destinationChain",
					"type": "uint256"
				},
				{
					"indexed": false,
					"internalType": "bytes32",
					"name": "transactionHash",
					"type": "bytes32"
				}
			],
			"name": "ProofOfBurn",
			"type": "event"
		},
		{
			"anonymous": false,
			"inputs": [
				{
					"indexed": false,
					"internalType": "address",
					"name": "addr",
					"type": "address"
				},
				{
					"indexed": false,
					"internalType": "address",
					"name": "token",
					"type": "address"
				},
				{
					"indexed": false,
					"internalType": "uint256",
					"name": "amountAsFee",
					"type": "uint256"
				},
				{
					"indexed": false,
					"internalType": "uint256",
					"name": "finalAmount",
					"type": "uint256"
				},
				{
					"indexed": false,
					"internalType": "bytes32",
					"name": "transactionHash",
					"type": "bytes32"
				}
			],
			"name": "ProofOfMint",
			"type": "event"
		},
		{
			"anonymous": false,
			"inputs": [
				{
					"indexed": true,
					"internalType": "bytes32",
					"name": "role",
					"type": "bytes32"
				},
				{
					"indexed": true,
					"internalType": "bytes32",
					"name": "previousAdminRole",
					"type": "bytes32"
				},
				{
					"indexed": true,
					"internalType": "bytes32",
					"name": "newAdminRole",
					"type": "bytes32"
				}
			],
			"name": "RoleAdminChanged",
			"type": "event"
		},
		{
			"anonymous": false,
			"inputs": [
				{
					"indexed": true,
					"internalType": "bytes32",
					"name": "role",
					"type": "bytes32"
				},
				{
					"indexed": true,
					"internalType": "address",
					"name": "account",
					"type": "address"
				},
				{
					"indexed": true,
					"internalType": "address",
					"name": "sender",
					"type": "address"
				}
			],
			"name": "RoleGranted",
			"type": "event"
		},
		{
			"anonymous": false,
			"inputs": [
				{
					"indexed": true,
					"internalType": "bytes32",
					"name": "role",
					"type": "bytes32"
				},
				{
					"indexed": true,
					"internalType": "address",
					"name": "account",
					"type": "address"
				},
				{
					"indexed": true,
					"internalType": "address",
					"name": "sender",
					"type": "address"
				}
			],
			"name": "RoleRevoked",
			"type": "event"
		},
		{
			"inputs": [],
			"name": "ROLE_ADMIN",
			"outputs": [
				{
					"internalType": "bytes32",
					"name": "",
					"type": "bytes32"
				}
			],
			"stateMutability": "view",
			"type": "function"
		},
		{
			"inputs": [],
			"name": "ROLE_APPROVER",
			"outputs": [
				{
					"internalType": "bytes32",
					"name": "",
					"type": "bytes32"
				}
			],
			"stateMutability": "view",
			"type": "function"
		},
		{
			"inputs": [],
			"name": "beneficiaryAddress",
			"outputs": [
				{
					"internalType": "address",
					"name": "",
					"type": "address"
				}
			],
			"stateMutability": "view",
			"type": "function"
		},
		{
			"inputs": [
				{
					"internalType": "bytes32[]",
					"name": "transactionHashes",
					"type": "bytes32[]"
				}
			],
			"name": "bulkMarkTransactionsAsApproved",
			"outputs": [],
			"stateMutability": "nonpayable",
			"type": "function"
		},
		{
			"inputs": [
				{
					"internalType": "address",
					"name": "token",
					"type": "address"
				},
				{
					"internalType": "uint256",
					"name": "amount",
					"type": "uint256"
				},
				{
					"internalType": "uint256",
					"name": "destinationChainId",
					"type": "uint256"
				}
			],
			"name": "burnAndCreateProof",
			"outputs": [],
			"stateMutability": "nonpayable",
			"type": "function"
		},
		{
			"inputs": [
				{
					"internalType": "address",
					"name": "",
					"type": "address"
				}
			],
			"name": "currentNonce",
			"outputs": [
				{
					"internalType": "uint256",
					"name": "",
					"type": "uint256"
				}
			],
			"stateMutability": "view",
			"type": "function"
		},
		{
			"inputs": [
				{
					"internalType": "address",
					"name": "tokenAddr",
					"type": "address"
				},
				{
					"internalType": "uint256",
					"name": "destinationChainId",
					"type": "uint256"
				}
			],
			"name": "getFeeDependingOnDestinationChainId",
			"outputs": [
				{
					"internalType": "uint256",
					"name": "",
					"type": "uint256"
				}
			],
			"stateMutability": "view",
			"type": "function"
		},
		{
			"inputs": [
				{
					"internalType": "bytes32",
					"name": "role",
					"type": "bytes32"
				}
			],
			"name": "getRoleAdmin",
			"outputs": [
				{
					"internalType": "bytes32",
					"name": "",
					"type": "bytes32"
				}
			],
			"stateMutability": "view",
			"type": "function"
		},
		{
			"inputs": [
				{
					"internalType": "bytes32",
					"name": "role",
					"type": "bytes32"
				},
				{
					"internalType": "uint256",
					"name": "index",
					"type": "uint256"
				}
			],
			"name": "getRoleMember",
			"outputs": [
				{
					"internalType": "address",
					"name": "",
					"type": "address"
				}
			],
			"stateMutability": "view",
			"type": "function"
		},
		{
			"inputs": [
				{
					"internalType": "bytes32",
					"name": "role",
					"type": "bytes32"
				}
			],
			"name": "getRoleMemberCount",
			"outputs": [
				{
					"internalType": "uint256",
					"name": "",
					"type": "uint256"
				}
			],
			"stateMutability": "view",
			"type": "function"
		},
		{
			"inputs": [
				{
					"internalType": "bytes32",
					"name": "role",
					"type": "bytes32"
				},
				{
					"internalType": "address",
					"name": "account",
					"type": "address"
				}
			],
			"name": "grantRole",
			"outputs": [],
			"stateMutability": "nonpayable",
			"type": "function"
		},
		{
			"inputs": [
				{
					"components": [
						{
							"internalType": "bytes32",
							"name": "role",
							"type": "bytes32"
						},
						{
							"internalType": "address",
							"name": "addr",
							"type": "address"
						}
					],
					"internalType": "struct RoleAccess[]",
					"name": "roles",
					"type": "tuple[]"
				}
			],
			"name": "grantRolesBulk",
			"outputs": [],
			"stateMutability": "nonpayable",
			"type": "function"
		},
		{
			"inputs": [
				{
					"internalType": "bytes32",
					"name": "role",
					"type": "bytes32"
				},
				{
					"internalType": "address",
					"name": "account",
					"type": "address"
				}
			],
			"name": "hasRole",
			"outputs": [
				{
					"internalType": "bool",
					"name": "",
					"type": "bool"
				}
			],
			"stateMutability": "view",
			"type": "function"
		},
		{
			"inputs": [
				{
					"internalType": "bytes32",
					"name": "transactionHash",
					"type": "bytes32"
				}
			],
			"name": "markTransactionAsApproved",
			"outputs": [],
			"stateMutability": "nonpayable",
			"type": "function"
		},
		{
			"inputs": [
				{
					"components": [
						{
							"internalType": "uint256",
							"name": "amountToBridge",
							"type": "uint256"
						},
						{
							"internalType": "uint256",
							"name": "amountAsFee",
							"type": "uint256"
						},
						{
							"internalType": "uint256",
							"name": "sourceChainId",
							"type": "uint256"
						},
						{
							"internalType": "uint256",
							"name": "sourceNonce",
							"type": "uint256"
						},
						{
							"internalType": "address",
							"name": "sourceTokenAddr",
							"type": "address"
						},
						{
							"internalType": "bytes32",
							"name": "transactionHash",
							"type": "bytes32"
						}
					],
					"internalType": "struct CrossChainBridge.SourceProofOfBurn",
					"name": "sourceProofOfBurn",
					"type": "tuple"
				}
			],
			"name": "mintWithBurnProof",
			"outputs": [],
			"stateMutability": "nonpayable",
			"type": "function"
		},
		{
			"inputs": [
				{
					"internalType": "bytes32",
					"name": "role",
					"type": "bytes32"
				},
				{
					"internalType": "address",
					"name": "account",
					"type": "address"
				}
			],
			"name": "renounceRole",
			"outputs": [],
			"stateMutability": "nonpayable",
			"type": "function"
		},
		{
			"inputs": [
				{
					"internalType": "bytes32",
					"name": "role",
					"type": "bytes32"
				},
				{
					"internalType": "address",
					"name": "account",
					"type": "address"
				}
			],
			"name": "revokeRole",
			"outputs": [],
			"stateMutability": "nonpayable",
			"type": "function"
		},
		{
			"inputs": [
				{
					"internalType": "bytes4",
					"name": "interfaceId",
					"type": "bytes4"
				}
			],
			"name": "supportsInterface",
			"outputs": [
				{
					"internalType": "bool",
					"name": "",
					"type": "bool"
				}
			],
			"stateMutability": "view",
			"type": "function"
		},
		{
			"inputs": [
				{
					"internalType": "bytes32",
					"name": "",
					"type": "bytes32"
				}
			],
			"name": "transactionStorage",
			"outputs": [
				{
					"internalType": "enum CrossChainBridge.States",
					"name": "",
					"type": "uint8"
				}
			],
			"stateMutability": "view",
			"type": "function"
		},
		{
			"inputs": [
				{
					"internalType": "address",
					"name": "newBeneficiaryAddr",
					"type": "address"
				}
			],
			"name": "updateBeneficiaryAddress",
			"outputs": [],
			"stateMutability": "nonpayable",
			"type": "function"
		},
		{
			"inputs": [
				{
					"internalType": "address",
					"name": "token",
					"type": "address"
				},
				{
					"internalType": "uint256",
					"name": "chainId",
					"type": "uint256"
				},
				{
					"internalType": "uint256",
					"name": "amountAsFee",
					"type": "uint256"
				}
			],
			"name": "updateFeeDependingOnDestinationChainId",
			"outputs": [],
			"stateMutability": "nonpayable",
			"type": "function"
		}
	]
}