{
	"data": {
		"bytecode": {
			"linkReferences": {},
			"object": "60806040523480156200001157600080fd5b506001600260006101000a81548173ffffffffffffffffffffffffffffffffffffffff021916908373ffffffffffffffffffffffffffffffffffffffff1602179055506001600260146101000a81548160ff021916908360048111156200007d576200007c62000088565b5b0217905550620000b7565b7f4e487b7100000000000000000000000000000000000000000000000000000000600052602160045260246000fd5b612b9780620000c76000396000f3fe608060405234801561001057600080fd5b50600436106100f55760003560e01c8063a217fddf11610097578063e852072311610066578063e8520723146102aa578063f5feaa74146102c6578063fb6465a0146102e2578063fbce0b5f14610312576100f5565b8063a217fddf14610222578063b3d2ca0714610240578063ca15c8731461025e578063d547741f1461028e576100f5565b80632f2ff15d116100d35780632f2ff15d1461018a57806336568abe146101a65780639010d07c146101c257806391d14854146101f2576100f5565b806301ffc9a7146100fa57806312a4868c1461012a578063248a9ca31461015a575b600080fd5b610114600480360381019061010f919061182d565b61032e565b6040516101219190611875565b60405180910390f35b610144600480360381019061013f91906118c6565b6103a8565b604051610151919061196a565b60405180910390f35b610174600480360381019061016f91906118c6565b6103c8565b6040516101819190611994565b60405180910390f35b6101a4600480360381019061019f9190611a0d565b6103e7565b005b6101c060048036038101906101bb9190611a0d565b610410565b005b6101dc60048036038101906101d79190611a83565b610493565b6040516101e99190611ad2565b60405180910390f35b61020c60048036038101906102079190611a0d565b6104c2565b6040516102199190611875565b60405180910390f35b61022a61052c565b6040516102379190611994565b60405180910390f35b610248610533565b6040516102559190611ad2565b60405180910390f35b610278600480360381019061027391906118c6565b610559565b6040516102859190611afc565b60405180910390f35b6102a860048036038101906102a39190611a0d565b61057d565b005b6102c460048036038101906102bf9190611da4565b6105a6565b005b6102e060048036038101906102db9190611e7e565b61090a565b005b6102fc60048036038101906102f79190611f31565b610dbc565b6040516103099190611afc565b60405180910390f35b61032c600480360381019061032791906118c6565b610dd4565b005b60007f5a05180f000000000000000000000000000000000000000000000000000000007bffffffffffffffffffffffffffffffffffffffffffffffffffffffff1916827bffffffffffffffffffffffffffffffffffffffffffffffffffffffff191614806103a157506103a082610ed1565b5b9050919050565b60036020528060005260406000206000915054906101000a900460ff1681565b6000806000838152602001908152602001600020600101549050919050565b6103f0826103c8565b610401816103fc610f4b565b610f53565b61040b8383610ff0565b505050565b610418610f4b565b73ffffffffffffffffffffffffffffffffffffffff168173ffffffffffffffffffffffffffffffffffffffff1614610485576040517f08c379a000000000000000000000000000000000000000000000000000000000815260040161047c90611fe1565b60405180910390fd5b61048f8282611024565b5050565b60006104ba826001600086815260200190815260200160002061105890919063ffffffff16565b905092915050565b600080600084815260200190815260200160002060000160008373ffffffffffffffffffffffffffffffffffffffff1673ffffffffffffffffffffffffffffffffffffffff16815260200190815260200160002060009054906101000a900460ff16905092915050565b6000801b81565b600260009054906101000a900473ffffffffffffffffffffffffffffffffffffffff1681565b600061057660016000848152602001908152602001600020611072565b9050919050565b610586826103c8565b61059781610592610f4b565b610f53565b6105a18383611024565b505050565b600260038111156105ba576105b96118f3565b5b6003600085815260200190815260200160002060009054906101000a900460ff1660038111156105ed576105ec6118f3565b5b1461062d576040517f08c379a000000000000000000000000000000000000000000000000000000000815260040161062490612073565b60405180910390fd5b6000610637611087565b905060006106436110aa565b905060008260405160200161065891906121d1565b6040516020818303038152906040528960405160200161067891906121d1565b6040516020818303038152906040528360405160200161069891906121d1565b6040516020818303038152906040528c6040516020016106b891906121d1565b60405160208183030381529060405288600260149054906101000a900460ff1660048111156106ea576106e96118f3565b5b468e8e8c6040516020016107079a999897969594939291906122bc565b604051602081830303815290604052905060e681511461075c576040517f08c379a0000000000000000000000000000000000000000000000000000000008152600401610753906123ac565b60405180910390fd5b600060028260405161076e91906123cc565b602060405180830381855afa15801561078b573d6000803e3d6000fd5b5050506040513d601f19601f820116820180604052508101906107ae91906123f8565b90508681146107f2576040517f08c379a00000000000000000000000000000000000000000000000000000000081526004016107e990612471565b60405180910390fd5b600380600089815260200190815260200160002060006101000a81548160ff02191690836003811115610828576108276118f3565b5b0217905550600260009054906101000a900473ffffffffffffffffffffffffffffffffffffffff1673ffffffffffffffffffffffffffffffffffffffff16631f2eba2433886040518363ffffffff1660e01b815260040161088a929190612491565b600060405180830381600087803b1580156108a457600080fd5b505af11580156108b8573d6000803e3d6000fd5b505050507f59a441ae38ef338e85202de07dc8f7a3ec3349942ac3074b9819d7e955a8469b838c868d8a8c6040516108f5969594939291906124ba565b60405180910390a15050505050505050505050565b6000600260009054906101000a900473ffffffffffffffffffffffffffffffffffffffff1690508073ffffffffffffffffffffffffffffffffffffffff166370a08231336040518263ffffffff1660e01b815260040161096a9190611ad2565b6020604051808303816000875af1158015610989573d6000803e3d6000fd5b505050506040513d601f19601f820116820180604052508101906109ad919061254c565b8411156109ef576040517f08c379a00000000000000000000000000000000000000000000000000000000081526004016109e690612611565b60405180910390fd5b60006109f9611087565b90506000610a056110aa565b9050600082604051602001610a1a91906121d1565b60405160208183030381529060405288604051602001610a3a91906121d1565b60405160208183030381529060405283604051602001610a5a91906121d1565b6040516020818303038152906040528b604051602001610a7a91906121d1565b6040516020818303038152906040528a600260149054906101000a900460ff166004811115610aac57610aab6118f3565b5b468c8c60046000600260009054906101000a900473ffffffffffffffffffffffffffffffffffffffff1673ffffffffffffffffffffffffffffffffffffffff1673ffffffffffffffffffffffffffffffffffffffff16815260200190815260200160002054604051602001610b2a9a999897969594939291906122bc565b604051602081830303815290604052905060e6815114610b7f576040517f08c379a0000000000000000000000000000000000000000000000000000000008152600401610b76906123ac565b60405180910390fd5b6000600282604051610b9191906123cc565b602060405180830381855afa158015610bae573d6000803e3d6000fd5b5050506040513d601f19601f82011682018060405250810190610bd191906123f8565b905060016003600083815260200190815260200160002060006101000a81548160ff02191690836003811115610c0a57610c096118f3565b5b02179055508473ffffffffffffffffffffffffffffffffffffffff166366830b21338a6040518363ffffffff1660e01b8152600401610c4a929190612491565b600060405180830381600087803b158015610c6457600080fd5b505af1158015610c78573d6000803e3d6000fd5b505050507f53ce7cac878e8b40f69f3ebde819c9f4400b37cf5d1ead19c63cfbcbc72815d5838b868c8c60046000600260009054906101000a900473ffffffffffffffffffffffffffffffffffffffff1673ffffffffffffffffffffffffffffffffffffffff1673ffffffffffffffffffffffffffffffffffffffff168152602001908152602001600020548d60ff166004811115610d1a57610d196118f3565b5b8d89604051610d3199989796959493929190612688565b60405180910390a160046000600260009054906101000a900473ffffffffffffffffffffffffffffffffffffffff1673ffffffffffffffffffffffffffffffffffffffff1673ffffffffffffffffffffffffffffffffffffffff1681526020019081526020016000206000815480929190610dab90612760565b919050555050505050505050505050565b60046020528060005260406000206000915090505481565b60006003811115610de857610de76118f3565b5b6003600083815260200190815260200160002060009054906101000a900460ff166003811115610e1b57610e1a6118f3565b5b14610e5b576040517f08c379a0000000000000000000000000000000000000000000000000000000008152600401610e52906127f5565b60405180910390fd5b60026003600083815260200190815260200160002060006101000a81548160ff02191690836003811115610e9257610e916118f3565b5b02179055507f47c9aa2561551603155c93121e4ce0923c371458f4707bc5c7455c0554fcf3b681604051610ec69190611994565b60405180910390a150565b60007f7965db0b000000000000000000000000000000000000000000000000000000007bffffffffffffffffffffffffffffffffffffffffffffffffffffffff1916827bffffffffffffffffffffffffffffffffffffffffffffffffffffffff19161480610f445750610f43826110ef565b5b9050919050565b600033905090565b610f5d82826104c2565b610fec57610f828173ffffffffffffffffffffffffffffffffffffffff166014611159565b610f908360001c6020611159565b604051602001610fa19291906128f4565b6040516020818303038152906040526040517f08c379a0000000000000000000000000000000000000000000000000000000008152600401610fe39190612967565b60405180910390fd5b5050565b610ffa8282611395565b61101f816001600085815260200190815260200160002061147590919063ffffffff16565b505050565b61102e82826114a5565b611053816001600085815260200190815260200160002061158690919063ffffffff16565b505050565b600061106783600001836115b6565b60001c905092915050565b6000611080826000016115e1565b9050919050565b61108f611799565b611097611799565b6000339050806028830152819250505090565b6110b2611799565b6110ba611799565b6000600260009054906101000a900473ffffffffffffffffffffffffffffffffffffffff169050806028830152819250505090565b60007f01ffc9a7000000000000000000000000000000000000000000000000000000007bffffffffffffffffffffffffffffffffffffffffffffffffffffffff1916827bffffffffffffffffffffffffffffffffffffffffffffffffffffffff1916149050919050565b60606000600283600261116c9190612989565b61117691906129e3565b67ffffffffffffffff81111561118f5761118e611b2d565b5b6040519080825280601f01601f1916602001820160405280156111c15781602001600182028036833780820191505090505b5090507f3000000000000000000000000000000000000000000000000000000000000000816000815181106111f9576111f8612a39565b5b60200101907effffffffffffffffffffffffffffffffffffffffffffffffffffffffffffff1916908160001a9053507f78000000000000000000000000000000000000000000000000000000000000008160018151811061125d5761125c612a39565b5b60200101907effffffffffffffffffffffffffffffffffffffffffffffffffffffffffffff1916908160001a9053506000600184600261129d9190612989565b6112a791906129e3565b90505b6001811115611347577f3031323334353637383961626364656600000000000000000000000000000000600f8616601081106112e9576112e8612a39565b5b1a60f81b828281518110611300576112ff612a39565b5b60200101907effffffffffffffffffffffffffffffffffffffffffffffffffffffffffffff1916908160001a905350600485901c94508061134090612a68565b90506112aa565b506000841461138b576040517f08c379a000000000000000000000000000000000000000000000000000000000815260040161138290612ade565b60405180910390fd5b8091505092915050565b61139f82826104c2565b61147157600160008084815260200190815260200160002060000160008373ffffffffffffffffffffffffffffffffffffffff1673ffffffffffffffffffffffffffffffffffffffff16815260200190815260200160002060006101000a81548160ff021916908315150217905550611416610f4b565b73ffffffffffffffffffffffffffffffffffffffff168173ffffffffffffffffffffffffffffffffffffffff16837f2f8788117e7eff1d82e926ec794901d17c78024a50270940304540a733656f0d60405160405180910390a45b5050565b600061149d836000018373ffffffffffffffffffffffffffffffffffffffff1660001b6115f2565b905092915050565b6114af82826104c2565b1561158257600080600084815260200190815260200160002060000160008373ffffffffffffffffffffffffffffffffffffffff1673ffffffffffffffffffffffffffffffffffffffff16815260200190815260200160002060006101000a81548160ff021916908315150217905550611527610f4b565b73ffffffffffffffffffffffffffffffffffffffff168173ffffffffffffffffffffffffffffffffffffffff16837ff6391f5c32d9c69d2a47ea670b442974b53935d1edc7fd64eb21e047a839171b60405160405180910390a45b5050565b60006115ae836000018373ffffffffffffffffffffffffffffffffffffffff1660001b611662565b905092915050565b60008260000182815481106115ce576115cd612a39565b5b9060005260206000200154905092915050565b600081600001805490509050919050565b60006115fe8383611776565b61165757826000018290806001815401808255809150506001900390600052602060002001600090919091909150558260000180549050836001016000848152602001908152602001600020819055506001905061165c565b600090505b92915050565b6000808360010160008481526020019081526020016000205490506000811461176a5760006001826116949190612afe565b90506000600186600001805490506116ac9190612afe565b905081811461171b5760008660000182815481106116cd576116cc612a39565b5b90600052602060002001549050808760000184815481106116f1576116f0612a39565b5b90600052602060002001819055508387600101600083815260200190815260200160002081905550505b8560000180548061172f5761172e612b32565b5b600190038181906000526020600020016000905590558560010160008681526020019081526020016000206000905560019350505050611770565b60009150505b92915050565b600080836001016000848152602001908152602001600020541415905092915050565b6040518061050001604052806028905b60608152602001906001900390816117a95790505090565b6000604051905090565b600080fd5b600080fd5b60007fffffffff0000000000000000000000000000000000000000000000000000000082169050919050565b61180a816117d5565b811461181557600080fd5b50565b60008135905061182781611801565b92915050565b600060208284031215611843576118426117cb565b5b600061185184828501611818565b91505092915050565b60008115159050919050565b61186f8161185a565b82525050565b600060208201905061188a6000830184611866565b92915050565b6000819050919050565b6118a381611890565b81146118ae57600080fd5b50565b6000813590506118c08161189a565b92915050565b6000602082840312156118dc576118db6117cb565b5b60006118ea848285016118b1565b91505092915050565b7f4e487b7100000000000000000000000000000000000000000000000000000000600052602160045260246000fd5b60048110611933576119326118f3565b5b50565b600081905061194482611922565b919050565b600061195482611936565b9050919050565b61196481611949565b82525050565b600060208201905061197f600083018461195b565b92915050565b61198e81611890565b82525050565b60006020820190506119a96000830184611985565b92915050565b600073ffffffffffffffffffffffffffffffffffffffff82169050919050565b60006119da826119af565b9050919050565b6119ea816119cf565b81146119f557600080fd5b50565b600081359050611a07816119e1565b92915050565b60008060408385031215611a2457611a236117cb565b5b6000611a32858286016118b1565b9250506020611a43858286016119f8565b9150509250929050565b6000819050919050565b611a6081611a4d565b8114611a6b57600080fd5b50565b600081359050611a7d81611a57565b92915050565b60008060408385031215611a9a57611a996117cb565b5b6000611aa8858286016118b1565b9250506020611ab985828601611a6e565b9150509250929050565b611acc816119cf565b82525050565b6000602082019050611ae76000830184611ac3565b92915050565b611af681611a4d565b82525050565b6000602082019050611b116000830184611aed565b92915050565b600080fd5b6000601f19601f8301169050919050565b7f4e487b7100000000000000000000000000000000000000000000000000000000600052604160045260246000fd5b611b6582611b1c565b810181811067ffffffffffffffff82111715611b8457611b83611b2d565b5b80604052505050565b6000611b976117c1565b9050611ba38282611b5c565b919050565b600067ffffffffffffffff821115611bc357611bc2611b2d565b5b602082029050919050565b600080fd5b600080fd5b600067ffffffffffffffff821115611bf357611bf2611b2d565b5b611bfc82611b1c565b9050602081019050919050565b82818337600083830152505050565b6000611c2b611c2684611bd8565b611b8d565b905082815260208101848484011115611c4757611c46611bd3565b5b611c52848285611c09565b509392505050565b600082601f830112611c6f57611c6e611b17565b5b8135611c7f848260208601611c18565b91505092915050565b6000611c9b611c9684611ba8565b611b8d565b90508060208402830185811115611cb557611cb4611bce565b5b835b81811015611cfc57803567ffffffffffffffff811115611cda57611cd9611b17565b5b808601611ce78982611c5a565b85526020850194505050602081019050611cb7565b5050509392505050565b600082601f830112611d1b57611d1a611b17565b5b6028611d28848285611c88565b91505092915050565b600060ff82169050919050565b611d4781611d31565b8114611d5257600080fd5b50565b600081359050611d6481611d3e565b92915050565b600061ffff82169050919050565b611d8181611d6a565b8114611d8c57600080fd5b50565b600081359050611d9e81611d78565b92915050565b600080600080600080600060e0888a031215611dc357611dc26117cb565b5b600088013567ffffffffffffffff811115611de157611de06117d0565b5b611ded8a828b01611d06565b975050602088013567ffffffffffffffff811115611e0e57611e0d6117d0565b5b611e1a8a828b01611d06565b9650506040611e2b8a828b01611d55565b9550506060611e3c8a828b01611d8f565b9450506080611e4d8a828b016118b1565b93505060a0611e5e8a828b01611a6e565b92505060c0611e6f8a828b01611a6e565b91505092959891949750929550565b600080600080600060a08688031215611e9a57611e996117cb565b5b600086013567ffffffffffffffff811115611eb857611eb76117d0565b5b611ec488828901611d06565b955050602086013567ffffffffffffffff811115611ee557611ee46117d0565b5b611ef188828901611d06565b9450506040611f0288828901611a6e565b9350506060611f1388828901611d55565b9250506080611f2488828901611d8f565b9150509295509295909350565b600060208284031215611f4757611f466117cb565b5b6000611f55848285016119f8565b91505092915050565b600082825260208201905092915050565b7f416363657373436f6e74726f6c3a2063616e206f6e6c792072656e6f756e636560008201527f20726f6c657320666f722073656c660000000000000000000000000000000000602082015250565b6000611fcb602f83611f5e565b9150611fd682611f6f565b604082019050919050565b60006020820190508181036000830152611ffa81611fbe565b9050919050565b7f4343423a2050726f6f66206973206e6f7420617070726f766564206f7220616c60008201527f7265616479206578656375746564000000000000000000000000000000000000602082015250565b600061205d602e83611f5e565b915061206882612001565b604082019050919050565b6000602082019050818103600083015261208c81612050565b9050919050565b600060289050919050565b600081905092915050565b6000819050919050565b600081519050919050565b600082825260208201905092915050565b60005b838110156120ed5780820151818401526020810190506120d2565b838111156120fc576000848401525b50505050565b600061210d826120b3565b61211781856120be565b93506121278185602086016120cf565b61213081611b1c565b840191505092915050565b60006121478383612102565b905092915050565b6000602082019050919050565b600061216782612093565b612171818561209e565b935083602082028501612183856120a9565b8060005b858110156121bf57848403895281516121a0858261213b565b94506121ab8361214f565b925060208a01995050600181019050612187565b50829750879550505050505092915050565b600060208201905081810360008301526121eb818461215c565b905092915050565b600081905092915050565b6000612209826120b3565b61221381856121f3565b93506122238185602086016120cf565b80840191505092915050565b6000819050919050565b61224a61224582611a4d565b61222f565b82525050565b60008160f81b9050919050565b600061226882612250565b9050919050565b61228061227b82611d31565b61225d565b82525050565b60008160f01b9050919050565b600061229e82612286565b9050919050565b6122b66122b182611d6a565b612293565b82525050565b60006122c8828d6121fe565b91506122d4828c6121fe565b91506122e0828b6121fe565b91506122ec828a6121fe565b91506122f88289612239565b602082019150612308828861226f565b60018201915061231882876122a5565b600282019150612328828661226f565b60018201915061233882856122a5565b6002820191506123488284612239565b6020820191508190509b9a5050505050505050505050565b7f7061636b61676520697320696e76616c69640000000000000000000000000000600082015250565b6000612396601283611f5e565b91506123a182612360565b602082019050919050565b600060208201905081810360008301526123c581612389565b9050919050565b60006123d882846121fe565b915081905092915050565b6000815190506123f28161189a565b92915050565b60006020828403121561240e5761240d6117cb565b5b600061241c848285016123e3565b91505092915050565b7f4343423a2050726f7669646564206861736820697320696e76616c6964000000600082015250565b600061245b601d83611f5e565b915061246682612425565b602082019050919050565b6000602082019050818103600083015261248a8161244e565b9050919050565b60006040820190506124a66000830185611ac3565b6124b36020830184611aed565b9392505050565b600060c08201905081810360008301526124d4818961215c565b905081810360208301526124e8818861215c565b905081810360408301526124fc818761215c565b90508181036060830152612510818661215c565b905061251f6080830185611aed565b61252c60a0830184611985565b979650505050505050565b60008151905061254681611a57565b92915050565b600060208284031215612562576125616117cb565b5b600061257084828501612537565b91505092915050565b7f4343423a20416d6f756e74206d757374206e6f7420657863656564206176616960008201527f6c61626c652062616c616e63652e20547279207265647563696e67207468652060208201527f616d6f756e742e00000000000000000000000000000000000000000000000000604082015250565b60006125fb604783611f5e565b915061260682612579565b606082019050919050565b6000602082019050818103600083015261262a816125ee565b9050919050565b60058110612642576126416118f3565b5b50565b600081905061265382612631565b919050565b600061266382612645565b9050919050565b61267381612658565b82525050565b61268281611d6a565b82525050565b60006101208201905081810360008301526126a3818c61215c565b905081810360208301526126b7818b61215c565b905081810360408301526126cb818a61215c565b905081810360608301526126df818961215c565b90506126ee6080830188611aed565b6126fb60a0830187611aed565b61270860c083018661266a565b61271560e0830185612679565b612723610100830184611985565b9a9950505050505050505050565b7f4e487b7100000000000000000000000000000000000000000000000000000000600052601160045260246000fd5b600061276b82611a4d565b91507fffffffffffffffffffffffffffffffffffffffffffffffffffffffffffffffff82141561279e5761279d612731565b5b600182019050919050565b7f4343423a20416c726561647920617070726f7665640000000000000000000000600082015250565b60006127df601583611f5e565b91506127ea826127a9565b602082019050919050565b6000602082019050818103600083015261280e816127d2565b9050919050565b600081905092915050565b7f416363657373436f6e74726f6c3a206163636f756e7420000000000000000000600082015250565b6000612856601783612815565b915061286182612820565b601782019050919050565b600081519050919050565b60006128828261286c565b61288c8185612815565b935061289c8185602086016120cf565b80840191505092915050565b7f206973206d697373696e6720726f6c6520000000000000000000000000000000600082015250565b60006128de601183612815565b91506128e9826128a8565b601182019050919050565b60006128ff82612849565b915061290b8285612877565b9150612916826128d1565b91506129228284612877565b91508190509392505050565b60006129398261286c565b6129438185611f5e565b93506129538185602086016120cf565b61295c81611b1c565b840191505092915050565b60006020820190508181036000830152612981818461292e565b905092915050565b600061299482611a4d565b915061299f83611a4d565b9250817fffffffffffffffffffffffffffffffffffffffffffffffffffffffffffffffff04831182151516156129d8576129d7612731565b5b828202905092915050565b60006129ee82611a4d565b91506129f983611a4d565b9250827fffffffffffffffffffffffffffffffffffffffffffffffffffffffffffffffff03821115612a2e57612a2d612731565b5b828201905092915050565b7f4e487b7100000000000000000000000000000000000000000000000000000000600052603260045260246000fd5b6000612a7382611a4d565b91506000821415612a8757612a86612731565b5b600182039050919050565b7f537472696e67733a20686578206c656e67746820696e73756666696369656e74600082015250565b6000612ac8602083611f5e565b9150612ad382612a92565b602082019050919050565b60006020820190508181036000830152612af781612abb565b9050919050565b6000612b0982611a4d565b9150612b1483611a4d565b925082821015612b2757612b26612731565b5b828203905092915050565b7f4e487b7100000000000000000000000000000000000000000000000000000000600052603160045260246000fdfea2646970667358221220dc5a792030a5a7d11453b31ee54286cb2f32a617faf339d07733c3fb285e152164736f6c634300080b0033",
			"opcodes": "PUSH1 0x80 PUSH1 0x40 MSTORE CALLVALUE DUP1 ISZERO PUSH3 0x11 JUMPI PUSH1 0x0 DUP1 REVERT JUMPDEST POP PUSH1 0x1 PUSH1 0x2 PUSH1 0x0 PUSH2 0x100 EXP DUP2 SLOAD DUP2 PUSH20 0xFFFFFFFFFFFFFFFFFFFFFFFFFFFFFFFFFFFFFFFF MUL NOT AND SWAP1 DUP4 PUSH20 0xFFFFFFFFFFFFFFFFFFFFFFFFFFFFFFFFFFFFFFFF AND MUL OR SWAP1 SSTORE POP PUSH1 0x1 PUSH1 0x2 PUSH1 0x14 PUSH2 0x100 EXP DUP2 SLOAD DUP2 PUSH1 0xFF MUL NOT AND SWAP1 DUP4 PUSH1 0x4 DUP2 GT ISZERO PUSH3 0x7D JUMPI PUSH3 0x7C PUSH3 0x88 JUMP JUMPDEST JUMPDEST MUL OR SWAP1 SSTORE POP PUSH3 0xB7 JUMP JUMPDEST PUSH32 0x4E487B7100000000000000000000000000000000000000000000000000000000 PUSH1 0x0 MSTORE PUSH1 0x21 PUSH1 0x4 MSTORE PUSH1 0x24 PUSH1 0x0 REVERT JUMPDEST PUSH2 0x2B97 DUP1 PUSH3 0xC7 PUSH1 0x0 CODECOPY PUSH1 0x0 RETURN INVALID PUSH1 0x80 PUSH1 0x40 MSTORE CALLVALUE DUP1 ISZERO PUSH2 0x10 JUMPI PUSH1 0x0 DUP1 REVERT JUMPDEST POP PUSH1 0x4 CALLDATASIZE LT PUSH2 0xF5 JUMPI PUSH1 0x0 CALLDATALOAD PUSH1 0xE0 SHR DUP1 PUSH4 0xA217FDDF GT PUSH2 0x97 JUMPI DUP1 PUSH4 0xE8520723 GT PUSH2 0x66 JUMPI DUP1 PUSH4 0xE8520723 EQ PUSH2 0x2AA JUMPI DUP1 PUSH4 0xF5FEAA74 EQ PUSH2 0x2C6 JUMPI DUP1 PUSH4 0xFB6465A0 EQ PUSH2 0x2E2 JUMPI DUP1 PUSH4 0xFBCE0B5F EQ PUSH2 0x312 JUMPI PUSH2 0xF5 JUMP JUMPDEST DUP1 PUSH4 0xA217FDDF EQ PUSH2 0x222 JUMPI DUP1 PUSH4 0xB3D2CA07 EQ PUSH2 0x240 JUMPI DUP1 PUSH4 0xCA15C873 EQ PUSH2 0x25E JUMPI DUP1 PUSH4 0xD547741F EQ PUSH2 0x28E JUMPI PUSH2 0xF5 JUMP JUMPDEST DUP1 PUSH4 0x2F2FF15D GT PUSH2 0xD3 JUMPI DUP1 PUSH4 0x2F2FF15D EQ PUSH2 0x18A JUMPI DUP1 PUSH4 0x36568ABE EQ PUSH2 0x1A6 JUMPI DUP1 PUSH4 0x9010D07C EQ PUSH2 0x1C2 JUMPI DUP1 PUSH4 0x91D14854 EQ PUSH2 0x1F2 JUMPI PUSH2 0xF5 JUMP JUMPDEST DUP1 PUSH4 0x1FFC9A7 EQ PUSH2 0xFA JUMPI DUP1 PUSH4 0x12A4868C EQ PUSH2 0x12A JUMPI DUP1 PUSH4 0x248A9CA3 EQ PUSH2 0x15A JUMPI JUMPDEST PUSH1 0x0 DUP1 REVERT JUMPDEST PUSH2 0x114 PUSH1 0x4 DUP1 CALLDATASIZE SUB DUP2 ADD SWAP1 PUSH2 0x10F SWAP2 SWAP1 PUSH2 0x182D JUMP JUMPDEST PUSH2 0x32E JUMP JUMPDEST PUSH1 0x40 MLOAD PUSH2 0x121 SWAP2 SWAP1 PUSH2 0x1875 JUMP JUMPDEST PUSH1 0x40 MLOAD DUP1 SWAP2 SUB SWAP1 RETURN JUMPDEST PUSH2 0x144 PUSH1 0x4 DUP1 CALLDATASIZE SUB DUP2 ADD SWAP1 PUSH2 0x13F SWAP2 SWAP1 PUSH2 0x18C6 JUMP JUMPDEST PUSH2 0x3A8 JUMP JUMPDEST PUSH1 0x40 MLOAD PUSH2 0x151 SWAP2 SWAP1 PUSH2 0x196A JUMP JUMPDEST PUSH1 0x40 MLOAD DUP1 SWAP2 SUB SWAP1 RETURN JUMPDEST PUSH2 0x174 PUSH1 0x4 DUP1 CALLDATASIZE SUB DUP2 ADD SWAP1 PUSH2 0x16F SWAP2 SWAP1 PUSH2 0x18C6 JUMP JUMPDEST PUSH2 0x3C8 JUMP JUMPDEST PUSH1 0x40 MLOAD PUSH2 0x181 SWAP2 SWAP1 PUSH2 0x1994 JUMP JUMPDEST PUSH1 0x40 MLOAD DUP1 SWAP2 SUB SWAP1 RETURN JUMPDEST PUSH2 0x1A4 PUSH1 0x4 DUP1 CALLDATASIZE SUB DUP2 ADD SWAP1 PUSH2 0x19F SWAP2 SWAP1 PUSH2 0x1A0D JUMP JUMPDEST PUSH2 0x3E7 JUMP JUMPDEST STOP JUMPDEST PUSH2 0x1C0 PUSH1 0x4 DUP1 CALLDATASIZE SUB DUP2 ADD SWAP1 PUSH2 0x1BB SWAP2 SWAP1 PUSH2 0x1A0D JUMP JUMPDEST PUSH2 0x410 JUMP JUMPDEST STOP JUMPDEST PUSH2 0x1DC PUSH1 0x4 DUP1 CALLDATASIZE SUB DUP2 ADD SWAP1 PUSH2 0x1D7 SWAP2 SWAP1 PUSH2 0x1A83 JUMP JUMPDEST PUSH2 0x493 JUMP JUMPDEST PUSH1 0x40 MLOAD PUSH2 0x1E9 SWAP2 SWAP1 PUSH2 0x1AD2 JUMP JUMPDEST PUSH1 0x40 MLOAD DUP1 SWAP2 SUB SWAP1 RETURN JUMPDEST PUSH2 0x20C PUSH1 0x4 DUP1 CALLDATASIZE SUB DUP2 ADD SWAP1 PUSH2 0x207 SWAP2 SWAP1 PUSH2 0x1A0D JUMP JUMPDEST PUSH2 0x4C2 JUMP JUMPDEST PUSH1 0x40 MLOAD PUSH2 0x219 SWAP2 SWAP1 PUSH2 0x1875 JUMP JUMPDEST PUSH1 0x40 MLOAD DUP1 SWAP2 SUB SWAP1 RETURN JUMPDEST PUSH2 0x22A PUSH2 0x52C JUMP JUMPDEST PUSH1 0x40 MLOAD PUSH2 0x237 SWAP2 SWAP1 PUSH2 0x1994 JUMP JUMPDEST PUSH1 0x40 MLOAD DUP1 SWAP2 SUB SWAP1 RETURN JUMPDEST PUSH2 0x248 PUSH2 0x533 JUMP JUMPDEST PUSH1 0x40 MLOAD PUSH2 0x255 SWAP2 SWAP1 PUSH2 0x1AD2 JUMP JUMPDEST PUSH1 0x40 MLOAD DUP1 SWAP2 SUB SWAP1 RETURN JUMPDEST PUSH2 0x278 PUSH1 0x4 DUP1 CALLDATASIZE SUB DUP2 ADD SWAP1 PUSH2 0x273 SWAP2 SWAP1 PUSH2 0x18C6 JUMP JUMPDEST PUSH2 0x559 JUMP JUMPDEST PUSH1 0x40 MLOAD PUSH2 0x285 SWAP2 SWAP1 PUSH2 0x1AFC JUMP JUMPDEST PUSH1 0x40 MLOAD DUP1 SWAP2 SUB SWAP1 RETURN JUMPDEST PUSH2 0x2A8 PUSH1 0x4 DUP1 CALLDATASIZE SUB DUP2 ADD SWAP1 PUSH2 0x2A3 SWAP2 SWAP1 PUSH2 0x1A0D JUMP JUMPDEST PUSH2 0x57D JUMP JUMPDEST STOP JUMPDEST PUSH2 0x2C4 PUSH1 0x4 DUP1 CALLDATASIZE SUB DUP2 ADD SWAP1 PUSH2 0x2BF SWAP2 SWAP1 PUSH2 0x1DA4 JUMP JUMPDEST PUSH2 0x5A6 JUMP JUMPDEST STOP JUMPDEST PUSH2 0x2E0 PUSH1 0x4 DUP1 CALLDATASIZE SUB DUP2 ADD SWAP1 PUSH2 0x2DB SWAP2 SWAP1 PUSH2 0x1E7E JUMP JUMPDEST PUSH2 0x90A JUMP JUMPDEST STOP JUMPDEST PUSH2 0x2FC PUSH1 0x4 DUP1 CALLDATASIZE SUB DUP2 ADD SWAP1 PUSH2 0x2F7 SWAP2 SWAP1 PUSH2 0x1F31 JUMP JUMPDEST PUSH2 0xDBC JUMP JUMPDEST PUSH1 0x40 MLOAD PUSH2 0x309 SWAP2 SWAP1 PUSH2 0x1AFC JUMP JUMPDEST PUSH1 0x40 MLOAD DUP1 SWAP2 SUB SWAP1 RETURN JUMPDEST PUSH2 0x32C PUSH1 0x4 DUP1 CALLDATASIZE SUB DUP2 ADD SWAP1 PUSH2 0x327 SWAP2 SWAP1 PUSH2 0x18C6 JUMP JUMPDEST PUSH2 0xDD4 JUMP JUMPDEST STOP JUMPDEST PUSH1 0x0 PUSH32 0x5A05180F00000000000000000000000000000000000000000000000000000000 PUSH28 0xFFFFFFFFFFFFFFFFFFFFFFFFFFFFFFFFFFFFFFFFFFFFFFFFFFFFFFFF NOT AND DUP3 PUSH28 0xFFFFFFFFFFFFFFFFFFFFFFFFFFFFFFFFFFFFFFFFFFFFFFFFFFFFFFFF NOT AND EQ DUP1 PUSH2 0x3A1 JUMPI POP PUSH2 0x3A0 DUP3 PUSH2 0xED1 JUMP JUMPDEST JUMPDEST SWAP1 POP SWAP2 SWAP1 POP JUMP JUMPDEST PUSH1 0x3 PUSH1 0x20 MSTORE DUP1 PUSH1 0x0 MSTORE PUSH1 0x40 PUSH1 0x0 KECCAK256 PUSH1 0x0 SWAP2 POP SLOAD SWAP1 PUSH2 0x100 EXP SWAP1 DIV PUSH1 0xFF AND DUP2 JUMP JUMPDEST PUSH1 0x0 DUP1 PUSH1 0x0 DUP4 DUP2 MSTORE PUSH1 0x20 ADD SWAP1 DUP2 MSTORE PUSH1 0x20 ADD PUSH1 0x0 KECCAK256 PUSH1 0x1 ADD SLOAD SWAP1 POP SWAP2 SWAP1 POP JUMP JUMPDEST PUSH2 0x3F0 DUP3 PUSH2 0x3C8 JUMP JUMPDEST PUSH2 0x401 DUP2 PUSH2 0x3FC PUSH2 0xF4B JUMP JUMPDEST PUSH2 0xF53 JUMP JUMPDEST PUSH2 0x40B DUP4 DUP4 PUSH2 0xFF0 JUMP JUMPDEST POP POP POP JUMP JUMPDEST PUSH2 0x418 PUSH2 0xF4B JUMP JUMPDEST PUSH20 0xFFFFFFFFFFFFFFFFFFFFFFFFFFFFFFFFFFFFFFFF AND DUP2 PUSH20 0xFFFFFFFFFFFFFFFFFFFFFFFFFFFFFFFFFFFFFFFF AND EQ PUSH2 0x485 JUMPI PUSH1 0x40 MLOAD PUSH32 0x8C379A000000000000000000000000000000000000000000000000000000000 DUP2 MSTORE PUSH1 0x4 ADD PUSH2 0x47C SWAP1 PUSH2 0x1FE1 JUMP JUMPDEST PUSH1 0x40 MLOAD DUP1 SWAP2 SUB SWAP1 REVERT JUMPDEST PUSH2 0x48F DUP3 DUP3 PUSH2 0x1024 JUMP JUMPDEST POP POP JUMP JUMPDEST PUSH1 0x0 PUSH2 0x4BA DUP3 PUSH1 0x1 PUSH1 0x0 DUP7 DUP2 MSTORE PUSH1 0x20 ADD SWAP1 DUP2 MSTORE PUSH1 0x20 ADD PUSH1 0x0 KECCAK256 PUSH2 0x1058 SWAP1 SWAP2 SWAP1 PUSH4 0xFFFFFFFF AND JUMP JUMPDEST SWAP1 POP SWAP3 SWAP2 POP POP JUMP JUMPDEST PUSH1 0x0 DUP1 PUSH1 0x0 DUP5 DUP2 MSTORE PUSH1 0x20 ADD SWAP1 DUP2 MSTORE PUSH1 0x20 ADD PUSH1 0x0 KECCAK256 PUSH1 0x0 ADD PUSH1 0x0 DUP4 PUSH20 0xFFFFFFFFFFFFFFFFFFFFFFFFFFFFFFFFFFFFFFFF AND PUSH20 0xFFFFFFFFFFFFFFFFFFFFFFFFFFFFFFFFFFFFFFFF AND DUP2 MSTORE PUSH1 0x20 ADD SWAP1 DUP2 MSTORE PUSH1 0x20 ADD PUSH1 0x0 KECCAK256 PUSH1 0x0 SWAP1 SLOAD SWAP1 PUSH2 0x100 EXP SWAP1 DIV PUSH1 0xFF AND SWAP1 POP SWAP3 SWAP2 POP POP JUMP JUMPDEST PUSH1 0x0 DUP1 SHL DUP2 JUMP JUMPDEST PUSH1 0x2 PUSH1 0x0 SWAP1 SLOAD SWAP1 PUSH2 0x100 EXP SWAP1 DIV PUSH20 0xFFFFFFFFFFFFFFFFFFFFFFFFFFFFFFFFFFFFFFFF AND DUP2 JUMP JUMPDEST PUSH1 0x0 PUSH2 0x576 PUSH1 0x1 PUSH1 0x0 DUP5 DUP2 MSTORE PUSH1 0x20 ADD SWAP1 DUP2 MSTORE PUSH1 0x20 ADD PUSH1 0x0 KECCAK256 PUSH2 0x1072 JUMP JUMPDEST SWAP1 POP SWAP2 SWAP1 POP JUMP JUMPDEST PUSH2 0x586 DUP3 PUSH2 0x3C8 JUMP JUMPDEST PUSH2 0x597 DUP2 PUSH2 0x592 PUSH2 0xF4B JUMP JUMPDEST PUSH2 0xF53 JUMP JUMPDEST PUSH2 0x5A1 DUP4 DUP4 PUSH2 0x1024 JUMP JUMPDEST POP POP POP JUMP JUMPDEST PUSH1 0x2 PUSH1 0x3 DUP2 GT ISZERO PUSH2 0x5BA JUMPI PUSH2 0x5B9 PUSH2 0x18F3 JUMP JUMPDEST JUMPDEST PUSH1 0x3 PUSH1 0x0 DUP6 DUP2 MSTORE PUSH1 0x20 ADD SWAP1 DUP2 MSTORE PUSH1 0x20 ADD PUSH1 0x0 KECCAK256 PUSH1 0x0 SWAP1 SLOAD SWAP1 PUSH2 0x100 EXP SWAP1 DIV PUSH1 0xFF AND PUSH1 0x3 DUP2 GT ISZERO PUSH2 0x5ED JUMPI PUSH2 0x5EC PUSH2 0x18F3 JUMP JUMPDEST JUMPDEST EQ PUSH2 0x62D JUMPI PUSH1 0x40 MLOAD PUSH32 0x8C379A000000000000000000000000000000000000000000000000000000000 DUP2 MSTORE PUSH1 0x4 ADD PUSH2 0x624 SWAP1 PUSH2 0x2073 JUMP JUMPDEST PUSH1 0x40 MLOAD DUP1 SWAP2 SUB SWAP1 REVERT JUMPDEST PUSH1 0x0 PUSH2 0x637 PUSH2 0x1087 JUMP JUMPDEST SWAP1 POP PUSH1 0x0 PUSH2 0x643 PUSH2 0x10AA JUMP JUMPDEST SWAP1 POP PUSH1 0x0 DUP3 PUSH1 0x40 MLOAD PUSH1 0x20 ADD PUSH2 0x658 SWAP2 SWAP1 PUSH2 0x21D1 JUMP JUMPDEST PUSH1 0x40 MLOAD PUSH1 0x20 DUP2 DUP4 SUB SUB DUP2 MSTORE SWAP1 PUSH1 0x40 MSTORE DUP10 PUSH1 0x40 MLOAD PUSH1 0x20 ADD PUSH2 0x678 SWAP2 SWAP1 PUSH2 0x21D1 JUMP JUMPDEST PUSH1 0x40 MLOAD PUSH1 0x20 DUP2 DUP4 SUB SUB DUP2 MSTORE SWAP1 PUSH1 0x40 MSTORE DUP4 PUSH1 0x40 MLOAD PUSH1 0x20 ADD PUSH2 0x698 SWAP2 SWAP1 PUSH2 0x21D1 JUMP JUMPDEST PUSH1 0x40 MLOAD PUSH1 0x20 DUP2 DUP4 SUB SUB DUP2 MSTORE SWAP1 PUSH1 0x40 MSTORE DUP13 PUSH1 0x40 MLOAD PUSH1 0x20 ADD PUSH2 0x6B8 SWAP2 SWAP1 PUSH2 0x21D1 JUMP JUMPDEST PUSH1 0x40 MLOAD PUSH1 0x20 DUP2 DUP4 SUB SUB DUP2 MSTORE SWAP1 PUSH1 0x40 MSTORE DUP9 PUSH1 0x2 PUSH1 0x14 SWAP1 SLOAD SWAP1 PUSH2 0x100 EXP SWAP1 DIV PUSH1 0xFF AND PUSH1 0x4 DUP2 GT ISZERO PUSH2 0x6EA JUMPI PUSH2 0x6E9 PUSH2 0x18F3 JUMP JUMPDEST JUMPDEST CHAINID DUP15 DUP15 DUP13 PUSH1 0x40 MLOAD PUSH1 0x20 ADD PUSH2 0x707 SWAP11 SWAP10 SWAP9 SWAP8 SWAP7 SWAP6 SWAP5 SWAP4 SWAP3 SWAP2 SWAP1 PUSH2 0x22BC JUMP JUMPDEST PUSH1 0x40 MLOAD PUSH1 0x20 DUP2 DUP4 SUB SUB DUP2 MSTORE SWAP1 PUSH1 0x40 MSTORE SWAP1 POP PUSH1 0xE6 DUP2 MLOAD EQ PUSH2 0x75C JUMPI PUSH1 0x40 MLOAD PUSH32 0x8C379A000000000000000000000000000000000000000000000000000000000 DUP2 MSTORE PUSH1 0x4 ADD PUSH2 0x753 SWAP1 PUSH2 0x23AC JUMP JUMPDEST PUSH1 0x40 MLOAD DUP1 SWAP2 SUB SWAP1 REVERT JUMPDEST PUSH1 0x0 PUSH1 0x2 DUP3 PUSH1 0x40 MLOAD PUSH2 0x76E SWAP2 SWAP1 PUSH2 0x23CC JUMP JUMPDEST PUSH1 0x20 PUSH1 0x40 MLOAD DUP1 DUP4 SUB DUP2 DUP6 GAS STATICCALL ISZERO DUP1 ISZERO PUSH2 0x78B JUMPI RETURNDATASIZE PUSH1 0x0 DUP1 RETURNDATACOPY RETURNDATASIZE PUSH1 0x0 REVERT JUMPDEST POP POP POP PUSH1 0x40 MLOAD RETURNDATASIZE PUSH1 0x1F NOT PUSH1 0x1F DUP3 ADD AND DUP3 ADD DUP1 PUSH1 0x40 MSTORE POP DUP2 ADD SWAP1 PUSH2 0x7AE SWAP2 SWAP1 PUSH2 0x23F8 JUMP JUMPDEST SWAP1 POP DUP7 DUP2 EQ PUSH2 0x7F2 JUMPI PUSH1 0x40 MLOAD PUSH32 0x8C379A000000000000000000000000000000000000000000000000000000000 DUP2 MSTORE PUSH1 0x4 ADD PUSH2 0x7E9 SWAP1 PUSH2 0x2471 JUMP JUMPDEST PUSH1 0x40 MLOAD DUP1 SWAP2 SUB SWAP1 REVERT JUMPDEST PUSH1 0x3 DUP1 PUSH1 0x0 DUP10 DUP2 MSTORE PUSH1 0x20 ADD SWAP1 DUP2 MSTORE PUSH1 0x20 ADD PUSH1 0x0 KECCAK256 PUSH1 0x0 PUSH2 0x100 EXP DUP2 SLOAD DUP2 PUSH1 0xFF MUL NOT AND SWAP1 DUP4 PUSH1 0x3 DUP2 GT ISZERO PUSH2 0x828 JUMPI PUSH2 0x827 PUSH2 0x18F3 JUMP JUMPDEST JUMPDEST MUL OR SWAP1 SSTORE POP PUSH1 0x2 PUSH1 0x0 SWAP1 SLOAD SWAP1 PUSH2 0x100 EXP SWAP1 DIV PUSH20 0xFFFFFFFFFFFFFFFFFFFFFFFFFFFFFFFFFFFFFFFF AND PUSH20 0xFFFFFFFFFFFFFFFFFFFFFFFFFFFFFFFFFFFFFFFF AND PUSH4 0x1F2EBA24 CALLER DUP9 PUSH1 0x40 MLOAD DUP4 PUSH4 0xFFFFFFFF AND PUSH1 0xE0 SHL DUP2 MSTORE PUSH1 0x4 ADD PUSH2 0x88A SWAP3 SWAP2 SWAP1 PUSH2 0x2491 JUMP JUMPDEST PUSH1 0x0 PUSH1 0x40 MLOAD DUP1 DUP4 SUB DUP2 PUSH1 0x0 DUP8 DUP1 EXTCODESIZE ISZERO DUP1 ISZERO PUSH2 0x8A4 JUMPI PUSH1 0x0 DUP1 REVERT JUMPDEST POP GAS CALL ISZERO DUP1 ISZERO PUSH2 0x8B8 JUMPI RETURNDATASIZE PUSH1 0x0 DUP1 RETURNDATACOPY RETURNDATASIZE PUSH1 0x0 REVERT JUMPDEST POP POP POP POP PUSH32 0x59A441AE38EF338E85202DE07DC8F7A3EC3349942AC3074B9819D7E955A8469B DUP4 DUP13 DUP7 DUP14 DUP11 DUP13 PUSH1 0x40 MLOAD PUSH2 0x8F5 SWAP7 SWAP6 SWAP5 SWAP4 SWAP3 SWAP2 SWAP1 PUSH2 0x24BA JUMP JUMPDEST PUSH1 0x40 MLOAD DUP1 SWAP2 SUB SWAP1 LOG1 POP POP POP POP POP POP POP POP POP POP POP JUMP JUMPDEST PUSH1 0x0 PUSH1 0x2 PUSH1 0x0 SWAP1 SLOAD SWAP1 PUSH2 0x100 EXP SWAP1 DIV PUSH20 0xFFFFFFFFFFFFFFFFFFFFFFFFFFFFFFFFFFFFFFFF AND SWAP1 POP DUP1 PUSH20 0xFFFFFFFFFFFFFFFFFFFFFFFFFFFFFFFFFFFFFFFF AND PUSH4 0x70A08231 CALLER PUSH1 0x40 MLOAD DUP3 PUSH4 0xFFFFFFFF AND PUSH1 0xE0 SHL DUP2 MSTORE PUSH1 0x4 ADD PUSH2 0x96A SWAP2 SWAP1 PUSH2 0x1AD2 JUMP JUMPDEST PUSH1 0x20 PUSH1 0x40 MLOAD DUP1 DUP4 SUB DUP2 PUSH1 0x0 DUP8 GAS CALL ISZERO DUP1 ISZERO PUSH2 0x989 JUMPI RETURNDATASIZE PUSH1 0x0 DUP1 RETURNDATACOPY RETURNDATASIZE PUSH1 0x0 REVERT JUMPDEST POP POP POP POP PUSH1 0x40 MLOAD RETURNDATASIZE PUSH1 0x1F NOT PUSH1 0x1F DUP3 ADD AND DUP3 ADD DUP1 PUSH1 0x40 MSTORE POP DUP2 ADD SWAP1 PUSH2 0x9AD SWAP2 SWAP1 PUSH2 0x254C JUMP JUMPDEST DUP5 GT ISZERO PUSH2 0x9EF JUMPI PUSH1 0x40 MLOAD PUSH32 0x8C379A000000000000000000000000000000000000000000000000000000000 DUP2 MSTORE PUSH1 0x4 ADD PUSH2 0x9E6 SWAP1 PUSH2 0x2611 JUMP JUMPDEST PUSH1 0x40 MLOAD DUP1 SWAP2 SUB SWAP1 REVERT JUMPDEST PUSH1 0x0 PUSH2 0x9F9 PUSH2 0x1087 JUMP JUMPDEST SWAP1 POP PUSH1 0x0 PUSH2 0xA05 PUSH2 0x10AA JUMP JUMPDEST SWAP1 POP PUSH1 0x0 DUP3 PUSH1 0x40 MLOAD PUSH1 0x20 ADD PUSH2 0xA1A SWAP2 SWAP1 PUSH2 0x21D1 JUMP JUMPDEST PUSH1 0x40 MLOAD PUSH1 0x20 DUP2 DUP4 SUB SUB DUP2 MSTORE SWAP1 PUSH1 0x40 MSTORE DUP9 PUSH1 0x40 MLOAD PUSH1 0x20 ADD PUSH2 0xA3A SWAP2 SWAP1 PUSH2 0x21D1 JUMP JUMPDEST PUSH1 0x40 MLOAD PUSH1 0x20 DUP2 DUP4 SUB SUB DUP2 MSTORE SWAP1 PUSH1 0x40 MSTORE DUP4 PUSH1 0x40 MLOAD PUSH1 0x20 ADD PUSH2 0xA5A SWAP2 SWAP1 PUSH2 0x21D1 JUMP JUMPDEST PUSH1 0x40 MLOAD PUSH1 0x20 DUP2 DUP4 SUB SUB DUP2 MSTORE SWAP1 PUSH1 0x40 MSTORE DUP12 PUSH1 0x40 MLOAD PUSH1 0x20 ADD PUSH2 0xA7A SWAP2 SWAP1 PUSH2 0x21D1 JUMP JUMPDEST PUSH1 0x40 MLOAD PUSH1 0x20 DUP2 DUP4 SUB SUB DUP2 MSTORE SWAP1 PUSH1 0x40 MSTORE DUP11 PUSH1 0x2 PUSH1 0x14 SWAP1 SLOAD SWAP1 PUSH2 0x100 EXP SWAP1 DIV PUSH1 0xFF AND PUSH1 0x4 DUP2 GT ISZERO PUSH2 0xAAC JUMPI PUSH2 0xAAB PUSH2 0x18F3 JUMP JUMPDEST JUMPDEST CHAINID DUP13 DUP13 PUSH1 0x4 PUSH1 0x0 PUSH1 0x2 PUSH1 0x0 SWAP1 SLOAD SWAP1 PUSH2 0x100 EXP SWAP1 DIV PUSH20 0xFFFFFFFFFFFFFFFFFFFFFFFFFFFFFFFFFFFFFFFF AND PUSH20 0xFFFFFFFFFFFFFFFFFFFFFFFFFFFFFFFFFFFFFFFF AND PUSH20 0xFFFFFFFFFFFFFFFFFFFFFFFFFFFFFFFFFFFFFFFF AND DUP2 MSTORE PUSH1 0x20 ADD SWAP1 DUP2 MSTORE PUSH1 0x20 ADD PUSH1 0x0 KECCAK256 SLOAD PUSH1 0x40 MLOAD PUSH1 0x20 ADD PUSH2 0xB2A SWAP11 SWAP10 SWAP9 SWAP8 SWAP7 SWAP6 SWAP5 SWAP4 SWAP3 SWAP2 SWAP1 PUSH2 0x22BC JUMP JUMPDEST PUSH1 0x40 MLOAD PUSH1 0x20 DUP2 DUP4 SUB SUB DUP2 MSTORE SWAP1 PUSH1 0x40 MSTORE SWAP1 POP PUSH1 0xE6 DUP2 MLOAD EQ PUSH2 0xB7F JUMPI PUSH1 0x40 MLOAD PUSH32 0x8C379A000000000000000000000000000000000000000000000000000000000 DUP2 MSTORE PUSH1 0x4 ADD PUSH2 0xB76 SWAP1 PUSH2 0x23AC JUMP JUMPDEST PUSH1 0x40 MLOAD DUP1 SWAP2 SUB SWAP1 REVERT JUMPDEST PUSH1 0x0 PUSH1 0x2 DUP3 PUSH1 0x40 MLOAD PUSH2 0xB91 SWAP2 SWAP1 PUSH2 0x23CC JUMP JUMPDEST PUSH1 0x20 PUSH1 0x40 MLOAD DUP1 DUP4 SUB DUP2 DUP6 GAS STATICCALL ISZERO DUP1 ISZERO PUSH2 0xBAE JUMPI RETURNDATASIZE PUSH1 0x0 DUP1 RETURNDATACOPY RETURNDATASIZE PUSH1 0x0 REVERT JUMPDEST POP POP POP PUSH1 0x40 MLOAD RETURNDATASIZE PUSH1 0x1F NOT PUSH1 0x1F DUP3 ADD AND DUP3 ADD DUP1 PUSH1 0x40 MSTORE POP DUP2 ADD SWAP1 PUSH2 0xBD1 SWAP2 SWAP1 PUSH2 0x23F8 JUMP JUMPDEST SWAP1 POP PUSH1 0x1 PUSH1 0x3 PUSH1 0x0 DUP4 DUP2 MSTORE PUSH1 0x20 ADD SWAP1 DUP2 MSTORE PUSH1 0x20 ADD PUSH1 0x0 KECCAK256 PUSH1 0x0 PUSH2 0x100 EXP DUP2 SLOAD DUP2 PUSH1 0xFF MUL NOT AND SWAP1 DUP4 PUSH1 0x3 DUP2 GT ISZERO PUSH2 0xC0A JUMPI PUSH2 0xC09 PUSH2 0x18F3 JUMP JUMPDEST JUMPDEST MUL OR SWAP1 SSTORE POP DUP5 PUSH20 0xFFFFFFFFFFFFFFFFFFFFFFFFFFFFFFFFFFFFFFFF AND PUSH4 0x66830B21 CALLER DUP11 PUSH1 0x40 MLOAD DUP4 PUSH4 0xFFFFFFFF AND PUSH1 0xE0 SHL DUP2 MSTORE PUSH1 0x4 ADD PUSH2 0xC4A SWAP3 SWAP2 SWAP1 PUSH2 0x2491 JUMP JUMPDEST PUSH1 0x0 PUSH1 0x40 MLOAD DUP1 DUP4 SUB DUP2 PUSH1 0x0 DUP8 DUP1 EXTCODESIZE ISZERO DUP1 ISZERO PUSH2 0xC64 JUMPI PUSH1 0x0 DUP1 REVERT JUMPDEST POP GAS CALL ISZERO DUP1 ISZERO PUSH2 0xC78 JUMPI RETURNDATASIZE PUSH1 0x0 DUP1 RETURNDATACOPY RETURNDATASIZE PUSH1 0x0 REVERT JUMPDEST POP POP POP POP PUSH32 0x53CE7CAC878E8B40F69F3EBDE819C9F4400B37CF5D1EAD19C63CFBCBC72815D5 DUP4 DUP12 DUP7 DUP13 DUP13 PUSH1 0x4 PUSH1 0x0 PUSH1 0x2 PUSH1 0x0 SWAP1 SLOAD SWAP1 PUSH2 0x100 EXP SWAP1 DIV PUSH20 0xFFFFFFFFFFFFFFFFFFFFFFFFFFFFFFFFFFFFFFFF AND PUSH20 0xFFFFFFFFFFFFFFFFFFFFFFFFFFFFFFFFFFFFFFFF AND PUSH20 0xFFFFFFFFFFFFFFFFFFFFFFFFFFFFFFFFFFFFFFFF AND DUP2 MSTORE PUSH1 0x20 ADD SWAP1 DUP2 MSTORE PUSH1 0x20 ADD PUSH1 0x0 KECCAK256 SLOAD DUP14 PUSH1 0xFF AND PUSH1 0x4 DUP2 GT ISZERO PUSH2 0xD1A JUMPI PUSH2 0xD19 PUSH2 0x18F3 JUMP JUMPDEST JUMPDEST DUP14 DUP10 PUSH1 0x40 MLOAD PUSH2 0xD31 SWAP10 SWAP9 SWAP8 SWAP7 SWAP6 SWAP5 SWAP4 SWAP3 SWAP2 SWAP1 PUSH2 0x2688 JUMP JUMPDEST PUSH1 0x40 MLOAD DUP1 SWAP2 SUB SWAP1 LOG1 PUSH1 0x4 PUSH1 0x0 PUSH1 0x2 PUSH1 0x0 SWAP1 SLOAD SWAP1 PUSH2 0x100 EXP SWAP1 DIV PUSH20 0xFFFFFFFFFFFFFFFFFFFFFFFFFFFFFFFFFFFFFFFF AND PUSH20 0xFFFFFFFFFFFFFFFFFFFFFFFFFFFFFFFFFFFFFFFF AND PUSH20 0xFFFFFFFFFFFFFFFFFFFFFFFFFFFFFFFFFFFFFFFF AND DUP2 MSTORE PUSH1 0x20 ADD SWAP1 DUP2 MSTORE PUSH1 0x20 ADD PUSH1 0x0 KECCAK256 PUSH1 0x0 DUP2 SLOAD DUP1 SWAP3 SWAP2 SWAP1 PUSH2 0xDAB SWAP1 PUSH2 0x2760 JUMP JUMPDEST SWAP2 SWAP1 POP SSTORE POP POP POP POP POP POP POP POP POP POP POP JUMP JUMPDEST PUSH1 0x4 PUSH1 0x20 MSTORE DUP1 PUSH1 0x0 MSTORE PUSH1 0x40 PUSH1 0x0 KECCAK256 PUSH1 0x0 SWAP2 POP SWAP1 POP SLOAD DUP2 JUMP JUMPDEST PUSH1 0x0 PUSH1 0x3 DUP2 GT ISZERO PUSH2 0xDE8 JUMPI PUSH2 0xDE7 PUSH2 0x18F3 JUMP JUMPDEST JUMPDEST PUSH1 0x3 PUSH1 0x0 DUP4 DUP2 MSTORE PUSH1 0x20 ADD SWAP1 DUP2 MSTORE PUSH1 0x20 ADD PUSH1 0x0 KECCAK256 PUSH1 0x0 SWAP1 SLOAD SWAP1 PUSH2 0x100 EXP SWAP1 DIV PUSH1 0xFF AND PUSH1 0x3 DUP2 GT ISZERO PUSH2 0xE1B JUMPI PUSH2 0xE1A PUSH2 0x18F3 JUMP JUMPDEST JUMPDEST EQ PUSH2 0xE5B JUMPI PUSH1 0x40 MLOAD PUSH32 0x8C379A000000000000000000000000000000000000000000000000000000000 DUP2 MSTORE PUSH1 0x4 ADD PUSH2 0xE52 SWAP1 PUSH2 0x27F5 JUMP JUMPDEST PUSH1 0x40 MLOAD DUP1 SWAP2 SUB SWAP1 REVERT JUMPDEST PUSH1 0x2 PUSH1 0x3 PUSH1 0x0 DUP4 DUP2 MSTORE PUSH1 0x20 ADD SWAP1 DUP2 MSTORE PUSH1 0x20 ADD PUSH1 0x0 KECCAK256 PUSH1 0x0 PUSH2 0x100 EXP DUP2 SLOAD DUP2 PUSH1 0xFF MUL NOT AND SWAP1 DUP4 PUSH1 0x3 DUP2 GT ISZERO PUSH2 0xE92 JUMPI PUSH2 0xE91 PUSH2 0x18F3 JUMP JUMPDEST JUMPDEST MUL OR SWAP1 SSTORE POP PUSH32 0x47C9AA2561551603155C93121E4CE0923C371458F4707BC5C7455C0554FCF3B6 DUP2 PUSH1 0x40 MLOAD PUSH2 0xEC6 SWAP2 SWAP1 PUSH2 0x1994 JUMP JUMPDEST PUSH1 0x40 MLOAD DUP1 SWAP2 SUB SWAP1 LOG1 POP JUMP JUMPDEST PUSH1 0x0 PUSH32 0x7965DB0B00000000000000000000000000000000000000000000000000000000 PUSH28 0xFFFFFFFFFFFFFFFFFFFFFFFFFFFFFFFFFFFFFFFFFFFFFFFFFFFFFFFF NOT AND DUP3 PUSH28 0xFFFFFFFFFFFFFFFFFFFFFFFFFFFFFFFFFFFFFFFFFFFFFFFFFFFFFFFF NOT AND EQ DUP1 PUSH2 0xF44 JUMPI POP PUSH2 0xF43 DUP3 PUSH2 0x10EF JUMP JUMPDEST JUMPDEST SWAP1 POP SWAP2 SWAP1 POP JUMP JUMPDEST PUSH1 0x0 CALLER SWAP1 POP SWAP1 JUMP JUMPDEST PUSH2 0xF5D DUP3 DUP3 PUSH2 0x4C2 JUMP JUMPDEST PUSH2 0xFEC JUMPI PUSH2 0xF82 DUP2 PUSH20 0xFFFFFFFFFFFFFFFFFFFFFFFFFFFFFFFFFFFFFFFF AND PUSH1 0x14 PUSH2 0x1159 JUMP JUMPDEST PUSH2 0xF90 DUP4 PUSH1 0x0 SHR PUSH1 0x20 PUSH2 0x1159 JUMP JUMPDEST PUSH1 0x40 MLOAD PUSH1 0x20 ADD PUSH2 0xFA1 SWAP3 SWAP2 SWAP1 PUSH2 0x28F4 JUMP JUMPDEST PUSH1 0x40 MLOAD PUSH1 0x20 DUP2 DUP4 SUB SUB DUP2 MSTORE SWAP1 PUSH1 0x40 MSTORE PUSH1 0x40 MLOAD PUSH32 0x8C379A000000000000000000000000000000000000000000000000000000000 DUP2 MSTORE PUSH1 0x4 ADD PUSH2 0xFE3 SWAP2 SWAP1 PUSH2 0x2967 JUMP JUMPDEST PUSH1 0x40 MLOAD DUP1 SWAP2 SUB SWAP1 REVERT JUMPDEST POP POP JUMP JUMPDEST PUSH2 0xFFA DUP3 DUP3 PUSH2 0x1395 JUMP JUMPDEST PUSH2 0x101F DUP2 PUSH1 0x1 PUSH1 0x0 DUP6 DUP2 MSTORE PUSH1 0x20 ADD SWAP1 DUP2 MSTORE PUSH1 0x20 ADD PUSH1 0x0 KECCAK256 PUSH2 0x1475 SWAP1 SWAP2 SWAP1 PUSH4 0xFFFFFFFF AND JUMP JUMPDEST POP POP POP JUMP JUMPDEST PUSH2 0x102E DUP3 DUP3 PUSH2 0x14A5 JUMP JUMPDEST PUSH2 0x1053 DUP2 PUSH1 0x1 PUSH1 0x0 DUP6 DUP2 MSTORE PUSH1 0x20 ADD SWAP1 DUP2 MSTORE PUSH1 0x20 ADD PUSH1 0x0 KECCAK256 PUSH2 0x1586 SWAP1 SWAP2 SWAP1 PUSH4 0xFFFFFFFF AND JUMP JUMPDEST POP POP POP JUMP JUMPDEST PUSH1 0x0 PUSH2 0x1067 DUP4 PUSH1 0x0 ADD DUP4 PUSH2 0x15B6 JUMP JUMPDEST PUSH1 0x0 SHR SWAP1 POP SWAP3 SWAP2 POP POP JUMP JUMPDEST PUSH1 0x0 PUSH2 0x1080 DUP3 PUSH1 0x0 ADD PUSH2 0x15E1 JUMP JUMPDEST SWAP1 POP SWAP2 SWAP1 POP JUMP JUMPDEST PUSH2 0x108F PUSH2 0x1799 JUMP JUMPDEST PUSH2 0x1097 PUSH2 0x1799 JUMP JUMPDEST PUSH1 0x0 CALLER SWAP1 POP DUP1 PUSH1 0x28 DUP4 ADD MSTORE DUP2 SWAP3 POP POP POP SWAP1 JUMP JUMPDEST PUSH2 0x10B2 PUSH2 0x1799 JUMP JUMPDEST PUSH2 0x10BA PUSH2 0x1799 JUMP JUMPDEST PUSH1 0x0 PUSH1 0x2 PUSH1 0x0 SWAP1 SLOAD SWAP1 PUSH2 0x100 EXP SWAP1 DIV PUSH20 0xFFFFFFFFFFFFFFFFFFFFFFFFFFFFFFFFFFFFFFFF AND SWAP1 POP DUP1 PUSH1 0x28 DUP4 ADD MSTORE DUP2 SWAP3 POP POP POP SWAP1 JUMP JUMPDEST PUSH1 0x0 PUSH32 0x1FFC9A700000000000000000000000000000000000000000000000000000000 PUSH28 0xFFFFFFFFFFFFFFFFFFFFFFFFFFFFFFFFFFFFFFFFFFFFFFFFFFFFFFFF NOT AND DUP3 PUSH28 0xFFFFFFFFFFFFFFFFFFFFFFFFFFFFFFFFFFFFFFFFFFFFFFFFFFFFFFFF NOT AND EQ SWAP1 POP SWAP2 SWAP1 POP JUMP JUMPDEST PUSH1 0x60 PUSH1 0x0 PUSH1 0x2 DUP4 PUSH1 0x2 PUSH2 0x116C SWAP2 SWAP1 PUSH2 0x2989 JUMP JUMPDEST PUSH2 0x1176 SWAP2 SWAP1 PUSH2 0x29E3 JUMP JUMPDEST PUSH8 0xFFFFFFFFFFFFFFFF DUP2 GT ISZERO PUSH2 0x118F JUMPI PUSH2 0x118E PUSH2 0x1B2D JUMP JUMPDEST JUMPDEST PUSH1 0x40 MLOAD SWAP1 DUP1 DUP3 MSTORE DUP1 PUSH1 0x1F ADD PUSH1 0x1F NOT AND PUSH1 0x20 ADD DUP3 ADD PUSH1 0x40 MSTORE DUP1 ISZERO PUSH2 0x11C1 JUMPI DUP2 PUSH1 0x20 ADD PUSH1 0x1 DUP3 MUL DUP1 CALLDATASIZE DUP4 CALLDATACOPY DUP1 DUP3 ADD SWAP2 POP POP SWAP1 POP JUMPDEST POP SWAP1 POP PUSH32 0x3000000000000000000000000000000000000000000000000000000000000000 DUP2 PUSH1 0x0 DUP2 MLOAD DUP2 LT PUSH2 0x11F9 JUMPI PUSH2 0x11F8 PUSH2 0x2A39 JUMP JUMPDEST JUMPDEST PUSH1 0x20 ADD ADD SWAP1 PUSH31 0xFFFFFFFFFFFFFFFFFFFFFFFFFFFFFFFFFFFFFFFFFFFFFFFFFFFFFFFFFFFFFF NOT AND SWAP1 DUP2 PUSH1 0x0 BYTE SWAP1 MSTORE8 POP PUSH32 0x7800000000000000000000000000000000000000000000000000000000000000 DUP2 PUSH1 0x1 DUP2 MLOAD DUP2 LT PUSH2 0x125D JUMPI PUSH2 0x125C PUSH2 0x2A39 JUMP JUMPDEST JUMPDEST PUSH1 0x20 ADD ADD SWAP1 PUSH31 0xFFFFFFFFFFFFFFFFFFFFFFFFFFFFFFFFFFFFFFFFFFFFFFFFFFFFFFFFFFFFFF NOT AND SWAP1 DUP2 PUSH1 0x0 BYTE SWAP1 MSTORE8 POP PUSH1 0x0 PUSH1 0x1 DUP5 PUSH1 0x2 PUSH2 0x129D SWAP2 SWAP1 PUSH2 0x2989 JUMP JUMPDEST PUSH2 0x12A7 SWAP2 SWAP1 PUSH2 0x29E3 JUMP JUMPDEST SWAP1 POP JUMPDEST PUSH1 0x1 DUP2 GT ISZERO PUSH2 0x1347 JUMPI PUSH32 0x3031323334353637383961626364656600000000000000000000000000000000 PUSH1 0xF DUP7 AND PUSH1 0x10 DUP2 LT PUSH2 0x12E9 JUMPI PUSH2 0x12E8 PUSH2 0x2A39 JUMP JUMPDEST JUMPDEST BYTE PUSH1 0xF8 SHL DUP3 DUP3 DUP2 MLOAD DUP2 LT PUSH2 0x1300 JUMPI PUSH2 0x12FF PUSH2 0x2A39 JUMP JUMPDEST JUMPDEST PUSH1 0x20 ADD ADD SWAP1 PUSH31 0xFFFFFFFFFFFFFFFFFFFFFFFFFFFFFFFFFFFFFFFFFFFFFFFFFFFFFFFFFFFFFF NOT AND SWAP1 DUP2 PUSH1 0x0 BYTE SWAP1 MSTORE8 POP PUSH1 0x4 DUP6 SWAP1 SHR SWAP5 POP DUP1 PUSH2 0x1340 SWAP1 PUSH2 0x2A68 JUMP JUMPDEST SWAP1 POP PUSH2 0x12AA JUMP JUMPDEST POP PUSH1 0x0 DUP5 EQ PUSH2 0x138B JUMPI PUSH1 0x40 MLOAD PUSH32 0x8C379A000000000000000000000000000000000000000000000000000000000 DUP2 MSTORE PUSH1 0x4 ADD PUSH2 0x1382 SWAP1 PUSH2 0x2ADE JUMP JUMPDEST PUSH1 0x40 MLOAD DUP1 SWAP2 SUB SWAP1 REVERT JUMPDEST DUP1 SWAP2 POP POP SWAP3 SWAP2 POP POP JUMP JUMPDEST PUSH2 0x139F DUP3 DUP3 PUSH2 0x4C2 JUMP JUMPDEST PUSH2 0x1471 JUMPI PUSH1 0x1 PUSH1 0x0 DUP1 DUP5 DUP2 MSTORE PUSH1 0x20 ADD SWAP1 DUP2 MSTORE PUSH1 0x20 ADD PUSH1 0x0 KECCAK256 PUSH1 0x0 ADD PUSH1 0x0 DUP4 PUSH20 0xFFFFFFFFFFFFFFFFFFFFFFFFFFFFFFFFFFFFFFFF AND PUSH20 0xFFFFFFFFFFFFFFFFFFFFFFFFFFFFFFFFFFFFFFFF AND DUP2 MSTORE PUSH1 0x20 ADD SWAP1 DUP2 MSTORE PUSH1 0x20 ADD PUSH1 0x0 KECCAK256 PUSH1 0x0 PUSH2 0x100 EXP DUP2 SLOAD DUP2 PUSH1 0xFF MUL NOT AND SWAP1 DUP4 ISZERO ISZERO MUL OR SWAP1 SSTORE POP PUSH2 0x1416 PUSH2 0xF4B JUMP JUMPDEST PUSH20 0xFFFFFFFFFFFFFFFFFFFFFFFFFFFFFFFFFFFFFFFF AND DUP2 PUSH20 0xFFFFFFFFFFFFFFFFFFFFFFFFFFFFFFFFFFFFFFFF AND DUP4 PUSH32 0x2F8788117E7EFF1D82E926EC794901D17C78024A50270940304540A733656F0D PUSH1 0x40 MLOAD PUSH1 0x40 MLOAD DUP1 SWAP2 SUB SWAP1 LOG4 JUMPDEST POP POP JUMP JUMPDEST PUSH1 0x0 PUSH2 0x149D DUP4 PUSH1 0x0 ADD DUP4 PUSH20 0xFFFFFFFFFFFFFFFFFFFFFFFFFFFFFFFFFFFFFFFF AND PUSH1 0x0 SHL PUSH2 0x15F2 JUMP JUMPDEST SWAP1 POP SWAP3 SWAP2 POP POP JUMP JUMPDEST PUSH2 0x14AF DUP3 DUP3 PUSH2 0x4C2 JUMP JUMPDEST ISZERO PUSH2 0x1582 JUMPI PUSH1 0x0 DUP1 PUSH1 0x0 DUP5 DUP2 MSTORE PUSH1 0x20 ADD SWAP1 DUP2 MSTORE PUSH1 0x20 ADD PUSH1 0x0 KECCAK256 PUSH1 0x0 ADD PUSH1 0x0 DUP4 PUSH20 0xFFFFFFFFFFFFFFFFFFFFFFFFFFFFFFFFFFFFFFFF AND PUSH20 0xFFFFFFFFFFFFFFFFFFFFFFFFFFFFFFFFFFFFFFFF AND DUP2 MSTORE PUSH1 0x20 ADD SWAP1 DUP2 MSTORE PUSH1 0x20 ADD PUSH1 0x0 KECCAK256 PUSH1 0x0 PUSH2 0x100 EXP DUP2 SLOAD DUP2 PUSH1 0xFF MUL NOT AND SWAP1 DUP4 ISZERO ISZERO MUL OR SWAP1 SSTORE POP PUSH2 0x1527 PUSH2 0xF4B JUMP JUMPDEST PUSH20 0xFFFFFFFFFFFFFFFFFFFFFFFFFFFFFFFFFFFFFFFF AND DUP2 PUSH20 0xFFFFFFFFFFFFFFFFFFFFFFFFFFFFFFFFFFFFFFFF AND DUP4 PUSH32 0xF6391F5C32D9C69D2A47EA670B442974B53935D1EDC7FD64EB21E047A839171B PUSH1 0x40 MLOAD PUSH1 0x40 MLOAD DUP1 SWAP2 SUB SWAP1 LOG4 JUMPDEST POP POP JUMP JUMPDEST PUSH1 0x0 PUSH2 0x15AE DUP4 PUSH1 0x0 ADD DUP4 PUSH20 0xFFFFFFFFFFFFFFFFFFFFFFFFFFFFFFFFFFFFFFFF AND PUSH1 0x0 SHL PUSH2 0x1662 JUMP JUMPDEST SWAP1 POP SWAP3 SWAP2 POP POP JUMP JUMPDEST PUSH1 0x0 DUP3 PUSH1 0x0 ADD DUP3 DUP2 SLOAD DUP2 LT PUSH2 0x15CE JUMPI PUSH2 0x15CD PUSH2 0x2A39 JUMP JUMPDEST JUMPDEST SWAP1 PUSH1 0x0 MSTORE PUSH1 0x20 PUSH1 0x0 KECCAK256 ADD SLOAD SWAP1 POP SWAP3 SWAP2 POP POP JUMP JUMPDEST PUSH1 0x0 DUP2 PUSH1 0x0 ADD DUP1 SLOAD SWAP1 POP SWAP1 POP SWAP2 SWAP1 POP JUMP JUMPDEST PUSH1 0x0 PUSH2 0x15FE DUP4 DUP4 PUSH2 0x1776 JUMP JUMPDEST PUSH2 0x1657 JUMPI DUP3 PUSH1 0x0 ADD DUP3 SWAP1 DUP1 PUSH1 0x1 DUP2 SLOAD ADD DUP1 DUP3 SSTORE DUP1 SWAP2 POP POP PUSH1 0x1 SWAP1 SUB SWAP1 PUSH1 0x0 MSTORE PUSH1 0x20 PUSH1 0x0 KECCAK256 ADD PUSH1 0x0 SWAP1 SWAP2 SWAP1 SWAP2 SWAP1 SWAP2 POP SSTORE DUP3 PUSH1 0x0 ADD DUP1 SLOAD SWAP1 POP DUP4 PUSH1 0x1 ADD PUSH1 0x0 DUP5 DUP2 MSTORE PUSH1 0x20 ADD SWAP1 DUP2 MSTORE PUSH1 0x20 ADD PUSH1 0x0 KECCAK256 DUP2 SWAP1 SSTORE POP PUSH1 0x1 SWAP1 POP PUSH2 0x165C JUMP JUMPDEST PUSH1 0x0 SWAP1 POP JUMPDEST SWAP3 SWAP2 POP POP JUMP JUMPDEST PUSH1 0x0 DUP1 DUP4 PUSH1 0x1 ADD PUSH1 0x0 DUP5 DUP2 MSTORE PUSH1 0x20 ADD SWAP1 DUP2 MSTORE PUSH1 0x20 ADD PUSH1 0x0 KECCAK256 SLOAD SWAP1 POP PUSH1 0x0 DUP2 EQ PUSH2 0x176A JUMPI PUSH1 0x0 PUSH1 0x1 DUP3 PUSH2 0x1694 SWAP2 SWAP1 PUSH2 0x2AFE JUMP JUMPDEST SWAP1 POP PUSH1 0x0 PUSH1 0x1 DUP7 PUSH1 0x0 ADD DUP1 SLOAD SWAP1 POP PUSH2 0x16AC SWAP2 SWAP1 PUSH2 0x2AFE JUMP JUMPDEST SWAP1 POP DUP2 DUP2 EQ PUSH2 0x171B JUMPI PUSH1 0x0 DUP7 PUSH1 0x0 ADD DUP3 DUP2 SLOAD DUP2 LT PUSH2 0x16CD JUMPI PUSH2 0x16CC PUSH2 0x2A39 JUMP JUMPDEST JUMPDEST SWAP1 PUSH1 0x0 MSTORE PUSH1 0x20 PUSH1 0x0 KECCAK256 ADD SLOAD SWAP1 POP DUP1 DUP8 PUSH1 0x0 ADD DUP5 DUP2 SLOAD DUP2 LT PUSH2 0x16F1 JUMPI PUSH2 0x16F0 PUSH2 0x2A39 JUMP JUMPDEST JUMPDEST SWAP1 PUSH1 0x0 MSTORE PUSH1 0x20 PUSH1 0x0 KECCAK256 ADD DUP2 SWAP1 SSTORE POP DUP4 DUP8 PUSH1 0x1 ADD PUSH1 0x0 DUP4 DUP2 MSTORE PUSH1 0x20 ADD SWAP1 DUP2 MSTORE PUSH1 0x20 ADD PUSH1 0x0 KECCAK256 DUP2 SWAP1 SSTORE POP POP JUMPDEST DUP6 PUSH1 0x0 ADD DUP1 SLOAD DUP1 PUSH2 0x172F JUMPI PUSH2 0x172E PUSH2 0x2B32 JUMP JUMPDEST JUMPDEST PUSH1 0x1 SWAP1 SUB DUP2 DUP2 SWAP1 PUSH1 0x0 MSTORE PUSH1 0x20 PUSH1 0x0 KECCAK256 ADD PUSH1 0x0 SWAP1 SSTORE SWAP1 SSTORE DUP6 PUSH1 0x1 ADD PUSH1 0x0 DUP7 DUP2 MSTORE PUSH1 0x20 ADD SWAP1 DUP2 MSTORE PUSH1 0x20 ADD PUSH1 0x0 KECCAK256 PUSH1 0x0 SWAP1 SSTORE PUSH1 0x1 SWAP4 POP POP POP POP PUSH2 0x1770 JUMP JUMPDEST PUSH1 0x0 SWAP2 POP POP JUMPDEST SWAP3 SWAP2 POP POP JUMP JUMPDEST PUSH1 0x0 DUP1 DUP4 PUSH1 0x1 ADD PUSH1 0x0 DUP5 DUP2 MSTORE PUSH1 0x20 ADD SWAP1 DUP2 MSTORE PUSH1 0x20 ADD PUSH1 0x0 KECCAK256 SLOAD EQ ISZERO SWAP1 POP SWAP3 SWAP2 POP POP JUMP JUMPDEST PUSH1 0x40 MLOAD DUP1 PUSH2 0x500 ADD PUSH1 0x40 MSTORE DUP1 PUSH1 0x28 SWAP1 JUMPDEST PUSH1 0x60 DUP2 MSTORE PUSH1 0x20 ADD SWAP1 PUSH1 0x1 SWAP1 SUB SWAP1 DUP2 PUSH2 0x17A9 JUMPI SWAP1 POP POP SWAP1 JUMP JUMPDEST PUSH1 0x0 PUSH1 0x40 MLOAD SWAP1 POP SWAP1 JUMP JUMPDEST PUSH1 0x0 DUP1 REVERT JUMPDEST PUSH1 0x0 DUP1 REVERT JUMPDEST PUSH1 0x0 PUSH32 0xFFFFFFFF00000000000000000000000000000000000000000000000000000000 DUP3 AND SWAP1 POP SWAP2 SWAP1 POP JUMP JUMPDEST PUSH2 0x180A DUP2 PUSH2 0x17D5 JUMP JUMPDEST DUP2 EQ PUSH2 0x1815 JUMPI PUSH1 0x0 DUP1 REVERT JUMPDEST POP JUMP JUMPDEST PUSH1 0x0 DUP2 CALLDATALOAD SWAP1 POP PUSH2 0x1827 DUP2 PUSH2 0x1801 JUMP JUMPDEST SWAP3 SWAP2 POP POP JUMP JUMPDEST PUSH1 0x0 PUSH1 0x20 DUP3 DUP5 SUB SLT ISZERO PUSH2 0x1843 JUMPI PUSH2 0x1842 PUSH2 0x17CB JUMP JUMPDEST JUMPDEST PUSH1 0x0 PUSH2 0x1851 DUP5 DUP3 DUP6 ADD PUSH2 0x1818 JUMP JUMPDEST SWAP2 POP POP SWAP3 SWAP2 POP POP JUMP JUMPDEST PUSH1 0x0 DUP2 ISZERO ISZERO SWAP1 POP SWAP2 SWAP1 POP JUMP JUMPDEST PUSH2 0x186F DUP2 PUSH2 0x185A JUMP JUMPDEST DUP3 MSTORE POP POP JUMP JUMPDEST PUSH1 0x0 PUSH1 0x20 DUP3 ADD SWAP1 POP PUSH2 0x188A PUSH1 0x0 DUP4 ADD DUP5 PUSH2 0x1866 JUMP JUMPDEST SWAP3 SWAP2 POP POP JUMP JUMPDEST PUSH1 0x0 DUP2 SWAP1 POP SWAP2 SWAP1 POP JUMP JUMPDEST PUSH2 0x18A3 DUP2 PUSH2 0x1890 JUMP JUMPDEST DUP2 EQ PUSH2 0x18AE JUMPI PUSH1 0x0 DUP1 REVERT JUMPDEST POP JUMP JUMPDEST PUSH1 0x0 DUP2 CALLDATALOAD SWAP1 POP PUSH2 0x18C0 DUP2 PUSH2 0x189A JUMP JUMPDEST SWAP3 SWAP2 POP POP JUMP JUMPDEST PUSH1 0x0 PUSH1 0x20 DUP3 DUP5 SUB SLT ISZERO PUSH2 0x18DC JUMPI PUSH2 0x18DB PUSH2 0x17CB JUMP JUMPDEST JUMPDEST PUSH1 0x0 PUSH2 0x18EA DUP5 DUP3 DUP6 ADD PUSH2 0x18B1 JUMP JUMPDEST SWAP2 POP POP SWAP3 SWAP2 POP POP JUMP JUMPDEST PUSH32 0x4E487B7100000000000000000000000000000000000000000000000000000000 PUSH1 0x0 MSTORE PUSH1 0x21 PUSH1 0x4 MSTORE PUSH1 0x24 PUSH1 0x0 REVERT JUMPDEST PUSH1 0x4 DUP2 LT PUSH2 0x1933 JUMPI PUSH2 0x1932 PUSH2 0x18F3 JUMP JUMPDEST JUMPDEST POP JUMP JUMPDEST PUSH1 0x0 DUP2 SWAP1 POP PUSH2 0x1944 DUP3 PUSH2 0x1922 JUMP JUMPDEST SWAP2 SWAP1 POP JUMP JUMPDEST PUSH1 0x0 PUSH2 0x1954 DUP3 PUSH2 0x1936 JUMP JUMPDEST SWAP1 POP SWAP2 SWAP1 POP JUMP JUMPDEST PUSH2 0x1964 DUP2 PUSH2 0x1949 JUMP JUMPDEST DUP3 MSTORE POP POP JUMP JUMPDEST PUSH1 0x0 PUSH1 0x20 DUP3 ADD SWAP1 POP PUSH2 0x197F PUSH1 0x0 DUP4 ADD DUP5 PUSH2 0x195B JUMP JUMPDEST SWAP3 SWAP2 POP POP JUMP JUMPDEST PUSH2 0x198E DUP2 PUSH2 0x1890 JUMP JUMPDEST DUP3 MSTORE POP POP JUMP JUMPDEST PUSH1 0x0 PUSH1 0x20 DUP3 ADD SWAP1 POP PUSH2 0x19A9 PUSH1 0x0 DUP4 ADD DUP5 PUSH2 0x1985 JUMP JUMPDEST SWAP3 SWAP2 POP POP JUMP JUMPDEST PUSH1 0x0 PUSH20 0xFFFFFFFFFFFFFFFFFFFFFFFFFFFFFFFFFFFFFFFF DUP3 AND SWAP1 POP SWAP2 SWAP1 POP JUMP JUMPDEST PUSH1 0x0 PUSH2 0x19DA DUP3 PUSH2 0x19AF JUMP JUMPDEST SWAP1 POP SWAP2 SWAP1 POP JUMP JUMPDEST PUSH2 0x19EA DUP2 PUSH2 0x19CF JUMP JUMPDEST DUP2 EQ PUSH2 0x19F5 JUMPI PUSH1 0x0 DUP1 REVERT JUMPDEST POP JUMP JUMPDEST PUSH1 0x0 DUP2 CALLDATALOAD SWAP1 POP PUSH2 0x1A07 DUP2 PUSH2 0x19E1 JUMP JUMPDEST SWAP3 SWAP2 POP POP JUMP JUMPDEST PUSH1 0x0 DUP1 PUSH1 0x40 DUP4 DUP6 SUB SLT ISZERO PUSH2 0x1A24 JUMPI PUSH2 0x1A23 PUSH2 0x17CB JUMP JUMPDEST JUMPDEST PUSH1 0x0 PUSH2 0x1A32 DUP6 DUP3 DUP7 ADD PUSH2 0x18B1 JUMP JUMPDEST SWAP3 POP POP PUSH1 0x20 PUSH2 0x1A43 DUP6 DUP3 DUP7 ADD PUSH2 0x19F8 JUMP JUMPDEST SWAP2 POP POP SWAP3 POP SWAP3 SWAP1 POP JUMP JUMPDEST PUSH1 0x0 DUP2 SWAP1 POP SWAP2 SWAP1 POP JUMP JUMPDEST PUSH2 0x1A60 DUP2 PUSH2 0x1A4D JUMP JUMPDEST DUP2 EQ PUSH2 0x1A6B JUMPI PUSH1 0x0 DUP1 REVERT JUMPDEST POP JUMP JUMPDEST PUSH1 0x0 DUP2 CALLDATALOAD SWAP1 POP PUSH2 0x1A7D DUP2 PUSH2 0x1A57 JUMP JUMPDEST SWAP3 SWAP2 POP POP JUMP JUMPDEST PUSH1 0x0 DUP1 PUSH1 0x40 DUP4 DUP6 SUB SLT ISZERO PUSH2 0x1A9A JUMPI PUSH2 0x1A99 PUSH2 0x17CB JUMP JUMPDEST JUMPDEST PUSH1 0x0 PUSH2 0x1AA8 DUP6 DUP3 DUP7 ADD PUSH2 0x18B1 JUMP JUMPDEST SWAP3 POP POP PUSH1 0x20 PUSH2 0x1AB9 DUP6 DUP3 DUP7 ADD PUSH2 0x1A6E JUMP JUMPDEST SWAP2 POP POP SWAP3 POP SWAP3 SWAP1 POP JUMP JUMPDEST PUSH2 0x1ACC DUP2 PUSH2 0x19CF JUMP JUMPDEST DUP3 MSTORE POP POP JUMP JUMPDEST PUSH1 0x0 PUSH1 0x20 DUP3 ADD SWAP1 POP PUSH2 0x1AE7 PUSH1 0x0 DUP4 ADD DUP5 PUSH2 0x1AC3 JUMP JUMPDEST SWAP3 SWAP2 POP POP JUMP JUMPDEST PUSH2 0x1AF6 DUP2 PUSH2 0x1A4D JUMP JUMPDEST DUP3 MSTORE POP POP JUMP JUMPDEST PUSH1 0x0 PUSH1 0x20 DUP3 ADD SWAP1 POP PUSH2 0x1B11 PUSH1 0x0 DUP4 ADD DUP5 PUSH2 0x1AED JUMP JUMPDEST SWAP3 SWAP2 POP POP JUMP JUMPDEST PUSH1 0x0 DUP1 REVERT JUMPDEST PUSH1 0x0 PUSH1 0x1F NOT PUSH1 0x1F DUP4 ADD AND SWAP1 POP SWAP2 SWAP1 POP JUMP JUMPDEST PUSH32 0x4E487B7100000000000000000000000000000000000000000000000000000000 PUSH1 0x0 MSTORE PUSH1 0x41 PUSH1 0x4 MSTORE PUSH1 0x24 PUSH1 0x0 REVERT JUMPDEST PUSH2 0x1B65 DUP3 PUSH2 0x1B1C JUMP JUMPDEST DUP2 ADD DUP2 DUP2 LT PUSH8 0xFFFFFFFFFFFFFFFF DUP3 GT OR ISZERO PUSH2 0x1B84 JUMPI PUSH2 0x1B83 PUSH2 0x1B2D JUMP JUMPDEST JUMPDEST DUP1 PUSH1 0x40 MSTORE POP POP POP JUMP JUMPDEST PUSH1 0x0 PUSH2 0x1B97 PUSH2 0x17C1 JUMP JUMPDEST SWAP1 POP PUSH2 0x1BA3 DUP3 DUP3 PUSH2 0x1B5C JUMP JUMPDEST SWAP2 SWAP1 POP JUMP JUMPDEST PUSH1 0x0 PUSH8 0xFFFFFFFFFFFFFFFF DUP3 GT ISZERO PUSH2 0x1BC3 JUMPI PUSH2 0x1BC2 PUSH2 0x1B2D JUMP JUMPDEST JUMPDEST PUSH1 0x20 DUP3 MUL SWAP1 POP SWAP2 SWAP1 POP JUMP JUMPDEST PUSH1 0x0 DUP1 REVERT JUMPDEST PUSH1 0x0 DUP1 REVERT JUMPDEST PUSH1 0x0 PUSH8 0xFFFFFFFFFFFFFFFF DUP3 GT ISZERO PUSH2 0x1BF3 JUMPI PUSH2 0x1BF2 PUSH2 0x1B2D JUMP JUMPDEST JUMPDEST PUSH2 0x1BFC DUP3 PUSH2 0x1B1C JUMP JUMPDEST SWAP1 POP PUSH1 0x20 DUP2 ADD SWAP1 POP SWAP2 SWAP1 POP JUMP JUMPDEST DUP3 DUP2 DUP4 CALLDATACOPY PUSH1 0x0 DUP4 DUP4 ADD MSTORE POP POP POP JUMP JUMPDEST PUSH1 0x0 PUSH2 0x1C2B PUSH2 0x1C26 DUP5 PUSH2 0x1BD8 JUMP JUMPDEST PUSH2 0x1B8D JUMP JUMPDEST SWAP1 POP DUP3 DUP2 MSTORE PUSH1 0x20 DUP2 ADD DUP5 DUP5 DUP5 ADD GT ISZERO PUSH2 0x1C47 JUMPI PUSH2 0x1C46 PUSH2 0x1BD3 JUMP JUMPDEST JUMPDEST PUSH2 0x1C52 DUP5 DUP3 DUP6 PUSH2 0x1C09 JUMP JUMPDEST POP SWAP4 SWAP3 POP POP POP JUMP JUMPDEST PUSH1 0x0 DUP3 PUSH1 0x1F DUP4 ADD SLT PUSH2 0x1C6F JUMPI PUSH2 0x1C6E PUSH2 0x1B17 JUMP JUMPDEST JUMPDEST DUP2 CALLDATALOAD PUSH2 0x1C7F DUP5 DUP3 PUSH1 0x20 DUP7 ADD PUSH2 0x1C18 JUMP JUMPDEST SWAP2 POP POP SWAP3 SWAP2 POP POP JUMP JUMPDEST PUSH1 0x0 PUSH2 0x1C9B PUSH2 0x1C96 DUP5 PUSH2 0x1BA8 JUMP JUMPDEST PUSH2 0x1B8D JUMP JUMPDEST SWAP1 POP DUP1 PUSH1 0x20 DUP5 MUL DUP4 ADD DUP6 DUP2 GT ISZERO PUSH2 0x1CB5 JUMPI PUSH2 0x1CB4 PUSH2 0x1BCE JUMP JUMPDEST JUMPDEST DUP4 JUMPDEST DUP2 DUP2 LT ISZERO PUSH2 0x1CFC JUMPI DUP1 CALLDATALOAD PUSH8 0xFFFFFFFFFFFFFFFF DUP2 GT ISZERO PUSH2 0x1CDA JUMPI PUSH2 0x1CD9 PUSH2 0x1B17 JUMP JUMPDEST JUMPDEST DUP1 DUP7 ADD PUSH2 0x1CE7 DUP10 DUP3 PUSH2 0x1C5A JUMP JUMPDEST DUP6 MSTORE PUSH1 0x20 DUP6 ADD SWAP5 POP POP POP PUSH1 0x20 DUP2 ADD SWAP1 POP PUSH2 0x1CB7 JUMP JUMPDEST POP POP POP SWAP4 SWAP3 POP POP POP JUMP JUMPDEST PUSH1 0x0 DUP3 PUSH1 0x1F DUP4 ADD SLT PUSH2 0x1D1B JUMPI PUSH2 0x1D1A PUSH2 0x1B17 JUMP JUMPDEST JUMPDEST PUSH1 0x28 PUSH2 0x1D28 DUP5 DUP3 DUP6 PUSH2 0x1C88 JUMP JUMPDEST SWAP2 POP POP SWAP3 SWAP2 POP POP JUMP JUMPDEST PUSH1 0x0 PUSH1 0xFF DUP3 AND SWAP1 POP SWAP2 SWAP1 POP JUMP JUMPDEST PUSH2 0x1D47 DUP2 PUSH2 0x1D31 JUMP JUMPDEST DUP2 EQ PUSH2 0x1D52 JUMPI PUSH1 0x0 DUP1 REVERT JUMPDEST POP JUMP JUMPDEST PUSH1 0x0 DUP2 CALLDATALOAD SWAP1 POP PUSH2 0x1D64 DUP2 PUSH2 0x1D3E JUMP JUMPDEST SWAP3 SWAP2 POP POP JUMP JUMPDEST PUSH1 0x0 PUSH2 0xFFFF DUP3 AND SWAP1 POP SWAP2 SWAP1 POP JUMP JUMPDEST PUSH2 0x1D81 DUP2 PUSH2 0x1D6A JUMP JUMPDEST DUP2 EQ PUSH2 0x1D8C JUMPI PUSH1 0x0 DUP1 REVERT JUMPDEST POP JUMP JUMPDEST PUSH1 0x0 DUP2 CALLDATALOAD SWAP1 POP PUSH2 0x1D9E DUP2 PUSH2 0x1D78 JUMP JUMPDEST SWAP3 SWAP2 POP POP JUMP JUMPDEST PUSH1 0x0 DUP1 PUSH1 0x0 DUP1 PUSH1 0x0 DUP1 PUSH1 0x0 PUSH1 0xE0 DUP9 DUP11 SUB SLT ISZERO PUSH2 0x1DC3 JUMPI PUSH2 0x1DC2 PUSH2 0x17CB JUMP JUMPDEST JUMPDEST PUSH1 0x0 DUP9 ADD CALLDATALOAD PUSH8 0xFFFFFFFFFFFFFFFF DUP2 GT ISZERO PUSH2 0x1DE1 JUMPI PUSH2 0x1DE0 PUSH2 0x17D0 JUMP JUMPDEST JUMPDEST PUSH2 0x1DED DUP11 DUP3 DUP12 ADD PUSH2 0x1D06 JUMP JUMPDEST SWAP8 POP POP PUSH1 0x20 DUP9 ADD CALLDATALOAD PUSH8 0xFFFFFFFFFFFFFFFF DUP2 GT ISZERO PUSH2 0x1E0E JUMPI PUSH2 0x1E0D PUSH2 0x17D0 JUMP JUMPDEST JUMPDEST PUSH2 0x1E1A DUP11 DUP3 DUP12 ADD PUSH2 0x1D06 JUMP JUMPDEST SWAP7 POP POP PUSH1 0x40 PUSH2 0x1E2B DUP11 DUP3 DUP12 ADD PUSH2 0x1D55 JUMP JUMPDEST SWAP6 POP POP PUSH1 0x60 PUSH2 0x1E3C DUP11 DUP3 DUP12 ADD PUSH2 0x1D8F JUMP JUMPDEST SWAP5 POP POP PUSH1 0x80 PUSH2 0x1E4D DUP11 DUP3 DUP12 ADD PUSH2 0x18B1 JUMP JUMPDEST SWAP4 POP POP PUSH1 0xA0 PUSH2 0x1E5E DUP11 DUP3 DUP12 ADD PUSH2 0x1A6E JUMP JUMPDEST SWAP3 POP POP PUSH1 0xC0 PUSH2 0x1E6F DUP11 DUP3 DUP12 ADD PUSH2 0x1A6E JUMP JUMPDEST SWAP2 POP POP SWAP3 SWAP6 SWAP9 SWAP2 SWAP5 SWAP8 POP SWAP3 SWAP6 POP JUMP JUMPDEST PUSH1 0x0 DUP1 PUSH1 0x0 DUP1 PUSH1 0x0 PUSH1 0xA0 DUP7 DUP9 SUB SLT ISZERO PUSH2 0x1E9A JUMPI PUSH2 0x1E99 PUSH2 0x17CB JUMP JUMPDEST JUMPDEST PUSH1 0x0 DUP7 ADD CALLDATALOAD PUSH8 0xFFFFFFFFFFFFFFFF DUP2 GT ISZERO PUSH2 0x1EB8 JUMPI PUSH2 0x1EB7 PUSH2 0x17D0 JUMP JUMPDEST JUMPDEST PUSH2 0x1EC4 DUP9 DUP3 DUP10 ADD PUSH2 0x1D06 JUMP JUMPDEST SWAP6 POP POP PUSH1 0x20 DUP7 ADD CALLDATALOAD PUSH8 0xFFFFFFFFFFFFFFFF DUP2 GT ISZERO PUSH2 0x1EE5 JUMPI PUSH2 0x1EE4 PUSH2 0x17D0 JUMP JUMPDEST JUMPDEST PUSH2 0x1EF1 DUP9 DUP3 DUP10 ADD PUSH2 0x1D06 JUMP JUMPDEST SWAP5 POP POP PUSH1 0x40 PUSH2 0x1F02 DUP9 DUP3 DUP10 ADD PUSH2 0x1A6E JUMP JUMPDEST SWAP4 POP POP PUSH1 0x60 PUSH2 0x1F13 DUP9 DUP3 DUP10 ADD PUSH2 0x1D55 JUMP JUMPDEST SWAP3 POP POP PUSH1 0x80 PUSH2 0x1F24 DUP9 DUP3 DUP10 ADD PUSH2 0x1D8F JUMP JUMPDEST SWAP2 POP POP SWAP3 SWAP6 POP SWAP3 SWAP6 SWAP1 SWAP4 POP JUMP JUMPDEST PUSH1 0x0 PUSH1 0x20 DUP3 DUP5 SUB SLT ISZERO PUSH2 0x1F47 JUMPI PUSH2 0x1F46 PUSH2 0x17CB JUMP JUMPDEST JUMPDEST PUSH1 0x0 PUSH2 0x1F55 DUP5 DUP3 DUP6 ADD PUSH2 0x19F8 JUMP JUMPDEST SWAP2 POP POP SWAP3 SWAP2 POP POP JUMP JUMPDEST PUSH1 0x0 DUP3 DUP3 MSTORE PUSH1 0x20 DUP3 ADD SWAP1 POP SWAP3 SWAP2 POP POP JUMP JUMPDEST PUSH32 0x416363657373436F6E74726F6C3A2063616E206F6E6C792072656E6F756E6365 PUSH1 0x0 DUP3 ADD MSTORE PUSH32 0x20726F6C657320666F722073656C660000000000000000000000000000000000 PUSH1 0x20 DUP3 ADD MSTORE POP JUMP JUMPDEST PUSH1 0x0 PUSH2 0x1FCB PUSH1 0x2F DUP4 PUSH2 0x1F5E JUMP JUMPDEST SWAP2 POP PUSH2 0x1FD6 DUP3 PUSH2 0x1F6F JUMP JUMPDEST PUSH1 0x40 DUP3 ADD SWAP1 POP SWAP2 SWAP1 POP JUMP JUMPDEST PUSH1 0x0 PUSH1 0x20 DUP3 ADD SWAP1 POP DUP2 DUP2 SUB PUSH1 0x0 DUP4 ADD MSTORE PUSH2 0x1FFA DUP2 PUSH2 0x1FBE JUMP JUMPDEST SWAP1 POP SWAP2 SWAP1 POP JUMP JUMPDEST PUSH32 0x4343423A2050726F6F66206973206E6F7420617070726F766564206F7220616C PUSH1 0x0 DUP3 ADD MSTORE PUSH32 0x7265616479206578656375746564000000000000000000000000000000000000 PUSH1 0x20 DUP3 ADD MSTORE POP JUMP JUMPDEST PUSH1 0x0 PUSH2 0x205D PUSH1 0x2E DUP4 PUSH2 0x1F5E JUMP JUMPDEST SWAP2 POP PUSH2 0x2068 DUP3 PUSH2 0x2001 JUMP JUMPDEST PUSH1 0x40 DUP3 ADD SWAP1 POP SWAP2 SWAP1 POP JUMP JUMPDEST PUSH1 0x0 PUSH1 0x20 DUP3 ADD SWAP1 POP DUP2 DUP2 SUB PUSH1 0x0 DUP4 ADD MSTORE PUSH2 0x208C DUP2 PUSH2 0x2050 JUMP JUMPDEST SWAP1 POP SWAP2 SWAP1 POP JUMP JUMPDEST PUSH1 0x0 PUSH1 0x28 SWAP1 POP SWAP2 SWAP1 POP JUMP JUMPDEST PUSH1 0x0 DUP2 SWAP1 POP SWAP3 SWAP2 POP POP JUMP JUMPDEST PUSH1 0x0 DUP2 SWAP1 POP SWAP2 SWAP1 POP JUMP JUMPDEST PUSH1 0x0 DUP2 MLOAD SWAP1 POP SWAP2 SWAP1 POP JUMP JUMPDEST PUSH1 0x0 DUP3 DUP3 MSTORE PUSH1 0x20 DUP3 ADD SWAP1 POP SWAP3 SWAP2 POP POP JUMP JUMPDEST PUSH1 0x0 JUMPDEST DUP4 DUP2 LT ISZERO PUSH2 0x20ED JUMPI DUP1 DUP3 ADD MLOAD DUP2 DUP5 ADD MSTORE PUSH1 0x20 DUP2 ADD SWAP1 POP PUSH2 0x20D2 JUMP JUMPDEST DUP4 DUP2 GT ISZERO PUSH2 0x20FC JUMPI PUSH1 0x0 DUP5 DUP5 ADD MSTORE JUMPDEST POP POP POP POP JUMP JUMPDEST PUSH1 0x0 PUSH2 0x210D DUP3 PUSH2 0x20B3 JUMP JUMPDEST PUSH2 0x2117 DUP2 DUP6 PUSH2 0x20BE JUMP JUMPDEST SWAP4 POP PUSH2 0x2127 DUP2 DUP6 PUSH1 0x20 DUP7 ADD PUSH2 0x20CF JUMP JUMPDEST PUSH2 0x2130 DUP2 PUSH2 0x1B1C JUMP JUMPDEST DUP5 ADD SWAP2 POP POP SWAP3 SWAP2 POP POP JUMP JUMPDEST PUSH1 0x0 PUSH2 0x2147 DUP4 DUP4 PUSH2 0x2102 JUMP JUMPDEST SWAP1 POP SWAP3 SWAP2 POP POP JUMP JUMPDEST PUSH1 0x0 PUSH1 0x20 DUP3 ADD SWAP1 POP SWAP2 SWAP1 POP JUMP JUMPDEST PUSH1 0x0 PUSH2 0x2167 DUP3 PUSH2 0x2093 JUMP JUMPDEST PUSH2 0x2171 DUP2 DUP6 PUSH2 0x209E JUMP JUMPDEST SWAP4 POP DUP4 PUSH1 0x20 DUP3 MUL DUP6 ADD PUSH2 0x2183 DUP6 PUSH2 0x20A9 JUMP JUMPDEST DUP1 PUSH1 0x0 JUMPDEST DUP6 DUP2 LT ISZERO PUSH2 0x21BF JUMPI DUP5 DUP5 SUB DUP10 MSTORE DUP2 MLOAD PUSH2 0x21A0 DUP6 DUP3 PUSH2 0x213B JUMP JUMPDEST SWAP5 POP PUSH2 0x21AB DUP4 PUSH2 0x214F JUMP JUMPDEST SWAP3 POP PUSH1 0x20 DUP11 ADD SWAP10 POP POP PUSH1 0x1 DUP2 ADD SWAP1 POP PUSH2 0x2187 JUMP JUMPDEST POP DUP3 SWAP8 POP DUP8 SWAP6 POP POP POP POP POP POP SWAP3 SWAP2 POP POP JUMP JUMPDEST PUSH1 0x0 PUSH1 0x20 DUP3 ADD SWAP1 POP DUP2 DUP2 SUB PUSH1 0x0 DUP4 ADD MSTORE PUSH2 0x21EB DUP2 DUP5 PUSH2 0x215C JUMP JUMPDEST SWAP1 POP SWAP3 SWAP2 POP POP JUMP JUMPDEST PUSH1 0x0 DUP2 SWAP1 POP SWAP3 SWAP2 POP POP JUMP JUMPDEST PUSH1 0x0 PUSH2 0x2209 DUP3 PUSH2 0x20B3 JUMP JUMPDEST PUSH2 0x2213 DUP2 DUP6 PUSH2 0x21F3 JUMP JUMPDEST SWAP4 POP PUSH2 0x2223 DUP2 DUP6 PUSH1 0x20 DUP7 ADD PUSH2 0x20CF JUMP JUMPDEST DUP1 DUP5 ADD SWAP2 POP POP SWAP3 SWAP2 POP POP JUMP JUMPDEST PUSH1 0x0 DUP2 SWAP1 POP SWAP2 SWAP1 POP JUMP JUMPDEST PUSH2 0x224A PUSH2 0x2245 DUP3 PUSH2 0x1A4D JUMP JUMPDEST PUSH2 0x222F JUMP JUMPDEST DUP3 MSTORE POP POP JUMP JUMPDEST PUSH1 0x0 DUP2 PUSH1 0xF8 SHL SWAP1 POP SWAP2 SWAP1 POP JUMP JUMPDEST PUSH1 0x0 PUSH2 0x2268 DUP3 PUSH2 0x2250 JUMP JUMPDEST SWAP1 POP SWAP2 SWAP1 POP JUMP JUMPDEST PUSH2 0x2280 PUSH2 0x227B DUP3 PUSH2 0x1D31 JUMP JUMPDEST PUSH2 0x225D JUMP JUMPDEST DUP3 MSTORE POP POP JUMP JUMPDEST PUSH1 0x0 DUP2 PUSH1 0xF0 SHL SWAP1 POP SWAP2 SWAP1 POP JUMP JUMPDEST PUSH1 0x0 PUSH2 0x229E DUP3 PUSH2 0x2286 JUMP JUMPDEST SWAP1 POP SWAP2 SWAP1 POP JUMP JUMPDEST PUSH2 0x22B6 PUSH2 0x22B1 DUP3 PUSH2 0x1D6A JUMP JUMPDEST PUSH2 0x2293 JUMP JUMPDEST DUP3 MSTORE POP POP JUMP JUMPDEST PUSH1 0x0 PUSH2 0x22C8 DUP3 DUP14 PUSH2 0x21FE JUMP JUMPDEST SWAP2 POP PUSH2 0x22D4 DUP3 DUP13 PUSH2 0x21FE JUMP JUMPDEST SWAP2 POP PUSH2 0x22E0 DUP3 DUP12 PUSH2 0x21FE JUMP JUMPDEST SWAP2 POP PUSH2 0x22EC DUP3 DUP11 PUSH2 0x21FE JUMP JUMPDEST SWAP2 POP PUSH2 0x22F8 DUP3 DUP10 PUSH2 0x2239 JUMP JUMPDEST PUSH1 0x20 DUP3 ADD SWAP2 POP PUSH2 0x2308 DUP3 DUP9 PUSH2 0x226F JUMP JUMPDEST PUSH1 0x1 DUP3 ADD SWAP2 POP PUSH2 0x2318 DUP3 DUP8 PUSH2 0x22A5 JUMP JUMPDEST PUSH1 0x2 DUP3 ADD SWAP2 POP PUSH2 0x2328 DUP3 DUP7 PUSH2 0x226F JUMP JUMPDEST PUSH1 0x1 DUP3 ADD SWAP2 POP PUSH2 0x2338 DUP3 DUP6 PUSH2 0x22A5 JUMP JUMPDEST PUSH1 0x2 DUP3 ADD SWAP2 POP PUSH2 0x2348 DUP3 DUP5 PUSH2 0x2239 JUMP JUMPDEST PUSH1 0x20 DUP3 ADD SWAP2 POP DUP2 SWAP1 POP SWAP12 SWAP11 POP POP POP POP POP POP POP POP POP POP POP JUMP JUMPDEST PUSH32 0x7061636B61676520697320696E76616C69640000000000000000000000000000 PUSH1 0x0 DUP3 ADD MSTORE POP JUMP JUMPDEST PUSH1 0x0 PUSH2 0x2396 PUSH1 0x12 DUP4 PUSH2 0x1F5E JUMP JUMPDEST SWAP2 POP PUSH2 0x23A1 DUP3 PUSH2 0x2360 JUMP JUMPDEST PUSH1 0x20 DUP3 ADD SWAP1 POP SWAP2 SWAP1 POP JUMP JUMPDEST PUSH1 0x0 PUSH1 0x20 DUP3 ADD SWAP1 POP DUP2 DUP2 SUB PUSH1 0x0 DUP4 ADD MSTORE PUSH2 0x23C5 DUP2 PUSH2 0x2389 JUMP JUMPDEST SWAP1 POP SWAP2 SWAP1 POP JUMP JUMPDEST PUSH1 0x0 PUSH2 0x23D8 DUP3 DUP5 PUSH2 0x21FE JUMP JUMPDEST SWAP2 POP DUP2 SWAP1 POP SWAP3 SWAP2 POP POP JUMP JUMPDEST PUSH1 0x0 DUP2 MLOAD SWAP1 POP PUSH2 0x23F2 DUP2 PUSH2 0x189A JUMP JUMPDEST SWAP3 SWAP2 POP POP JUMP JUMPDEST PUSH1 0x0 PUSH1 0x20 DUP3 DUP5 SUB SLT ISZERO PUSH2 0x240E JUMPI PUSH2 0x240D PUSH2 0x17CB JUMP JUMPDEST JUMPDEST PUSH1 0x0 PUSH2 0x241C DUP5 DUP3 DUP6 ADD PUSH2 0x23E3 JUMP JUMPDEST SWAP2 POP POP SWAP3 SWAP2 POP POP JUMP JUMPDEST PUSH32 0x4343423A2050726F7669646564206861736820697320696E76616C6964000000 PUSH1 0x0 DUP3 ADD MSTORE POP JUMP JUMPDEST PUSH1 0x0 PUSH2 0x245B PUSH1 0x1D DUP4 PUSH2 0x1F5E JUMP JUMPDEST SWAP2 POP PUSH2 0x2466 DUP3 PUSH2 0x2425 JUMP JUMPDEST PUSH1 0x20 DUP3 ADD SWAP1 POP SWAP2 SWAP1 POP JUMP JUMPDEST PUSH1 0x0 PUSH1 0x20 DUP3 ADD SWAP1 POP DUP2 DUP2 SUB PUSH1 0x0 DUP4 ADD MSTORE PUSH2 0x248A DUP2 PUSH2 0x244E JUMP JUMPDEST SWAP1 POP SWAP2 SWAP1 POP JUMP JUMPDEST PUSH1 0x0 PUSH1 0x40 DUP3 ADD SWAP1 POP PUSH2 0x24A6 PUSH1 0x0 DUP4 ADD DUP6 PUSH2 0x1AC3 JUMP JUMPDEST PUSH2 0x24B3 PUSH1 0x20 DUP4 ADD DUP5 PUSH2 0x1AED JUMP JUMPDEST SWAP4 SWAP3 POP POP POP JUMP JUMPDEST PUSH1 0x0 PUSH1 0xC0 DUP3 ADD SWAP1 POP DUP2 DUP2 SUB PUSH1 0x0 DUP4 ADD MSTORE PUSH2 0x24D4 DUP2 DUP10 PUSH2 0x215C JUMP JUMPDEST SWAP1 POP DUP2 DUP2 SUB PUSH1 0x20 DUP4 ADD MSTORE PUSH2 0x24E8 DUP2 DUP9 PUSH2 0x215C JUMP JUMPDEST SWAP1 POP DUP2 DUP2 SUB PUSH1 0x40 DUP4 ADD MSTORE PUSH2 0x24FC DUP2 DUP8 PUSH2 0x215C JUMP JUMPDEST SWAP1 POP DUP2 DUP2 SUB PUSH1 0x60 DUP4 ADD MSTORE PUSH2 0x2510 DUP2 DUP7 PUSH2 0x215C JUMP JUMPDEST SWAP1 POP PUSH2 0x251F PUSH1 0x80 DUP4 ADD DUP6 PUSH2 0x1AED JUMP JUMPDEST PUSH2 0x252C PUSH1 0xA0 DUP4 ADD DUP5 PUSH2 0x1985 JUMP JUMPDEST SWAP8 SWAP7 POP POP POP POP POP POP POP JUMP JUMPDEST PUSH1 0x0 DUP2 MLOAD SWAP1 POP PUSH2 0x2546 DUP2 PUSH2 0x1A57 JUMP JUMPDEST SWAP3 SWAP2 POP POP JUMP JUMPDEST PUSH1 0x0 PUSH1 0x20 DUP3 DUP5 SUB SLT ISZERO PUSH2 0x2562 JUMPI PUSH2 0x2561 PUSH2 0x17CB JUMP JUMPDEST JUMPDEST PUSH1 0x0 PUSH2 0x2570 DUP5 DUP3 DUP6 ADD PUSH2 0x2537 JUMP JUMPDEST SWAP2 POP POP SWAP3 SWAP2 POP POP JUMP JUMPDEST PUSH32 0x4343423A20416D6F756E74206D757374206E6F74206578636565642061766169 PUSH1 0x0 DUP3 ADD MSTORE PUSH32 0x6C61626C652062616C616E63652E20547279207265647563696E672074686520 PUSH1 0x20 DUP3 ADD MSTORE PUSH32 0x616D6F756E742E00000000000000000000000000000000000000000000000000 PUSH1 0x40 DUP3 ADD MSTORE POP JUMP JUMPDEST PUSH1 0x0 PUSH2 0x25FB PUSH1 0x47 DUP4 PUSH2 0x1F5E JUMP JUMPDEST SWAP2 POP PUSH2 0x2606 DUP3 PUSH2 0x2579 JUMP JUMPDEST PUSH1 0x60 DUP3 ADD SWAP1 POP SWAP2 SWAP1 POP JUMP JUMPDEST PUSH1 0x0 PUSH1 0x20 DUP3 ADD SWAP1 POP DUP2 DUP2 SUB PUSH1 0x0 DUP4 ADD MSTORE PUSH2 0x262A DUP2 PUSH2 0x25EE JUMP JUMPDEST SWAP1 POP SWAP2 SWAP1 POP JUMP JUMPDEST PUSH1 0x5 DUP2 LT PUSH2 0x2642 JUMPI PUSH2 0x2641 PUSH2 0x18F3 JUMP JUMPDEST JUMPDEST POP JUMP JUMPDEST PUSH1 0x0 DUP2 SWAP1 POP PUSH2 0x2653 DUP3 PUSH2 0x2631 JUMP JUMPDEST SWAP2 SWAP1 POP JUMP JUMPDEST PUSH1 0x0 PUSH2 0x2663 DUP3 PUSH2 0x2645 JUMP JUMPDEST SWAP1 POP SWAP2 SWAP1 POP JUMP JUMPDEST PUSH2 0x2673 DUP2 PUSH2 0x2658 JUMP JUMPDEST DUP3 MSTORE POP POP JUMP JUMPDEST PUSH2 0x2682 DUP2 PUSH2 0x1D6A JUMP JUMPDEST DUP3 MSTORE POP POP JUMP JUMPDEST PUSH1 0x0 PUSH2 0x120 DUP3 ADD SWAP1 POP DUP2 DUP2 SUB PUSH1 0x0 DUP4 ADD MSTORE PUSH2 0x26A3 DUP2 DUP13 PUSH2 0x215C JUMP JUMPDEST SWAP1 POP DUP2 DUP2 SUB PUSH1 0x20 DUP4 ADD MSTORE PUSH2 0x26B7 DUP2 DUP12 PUSH2 0x215C JUMP JUMPDEST SWAP1 POP DUP2 DUP2 SUB PUSH1 0x40 DUP4 ADD MSTORE PUSH2 0x26CB DUP2 DUP11 PUSH2 0x215C JUMP JUMPDEST SWAP1 POP DUP2 DUP2 SUB PUSH1 0x60 DUP4 ADD MSTORE PUSH2 0x26DF DUP2 DUP10 PUSH2 0x215C JUMP JUMPDEST SWAP1 POP PUSH2 0x26EE PUSH1 0x80 DUP4 ADD DUP9 PUSH2 0x1AED JUMP JUMPDEST PUSH2 0x26FB PUSH1 0xA0 DUP4 ADD DUP8 PUSH2 0x1AED JUMP JUMPDEST PUSH2 0x2708 PUSH1 0xC0 DUP4 ADD DUP7 PUSH2 0x266A JUMP JUMPDEST PUSH2 0x2715 PUSH1 0xE0 DUP4 ADD DUP6 PUSH2 0x2679 JUMP JUMPDEST PUSH2 0x2723 PUSH2 0x100 DUP4 ADD DUP5 PUSH2 0x1985 JUMP JUMPDEST SWAP11 SWAP10 POP POP POP POP POP POP POP POP POP POP JUMP JUMPDEST PUSH32 0x4E487B7100000000000000000000000000000000000000000000000000000000 PUSH1 0x0 MSTORE PUSH1 0x11 PUSH1 0x4 MSTORE PUSH1 0x24 PUSH1 0x0 REVERT JUMPDEST PUSH1 0x0 PUSH2 0x276B DUP3 PUSH2 0x1A4D JUMP JUMPDEST SWAP2 POP PUSH32 0xFFFFFFFFFFFFFFFFFFFFFFFFFFFFFFFFFFFFFFFFFFFFFFFFFFFFFFFFFFFFFFFF DUP3 EQ ISZERO PUSH2 0x279E JUMPI PUSH2 0x279D PUSH2 0x2731 JUMP JUMPDEST JUMPDEST PUSH1 0x1 DUP3 ADD SWAP1 POP SWAP2 SWAP1 POP JUMP JUMPDEST PUSH32 0x4343423A20416C726561647920617070726F7665640000000000000000000000 PUSH1 0x0 DUP3 ADD MSTORE POP JUMP JUMPDEST PUSH1 0x0 PUSH2 0x27DF PUSH1 0x15 DUP4 PUSH2 0x1F5E JUMP JUMPDEST SWAP2 POP PUSH2 0x27EA DUP3 PUSH2 0x27A9 JUMP JUMPDEST PUSH1 0x20 DUP3 ADD SWAP1 POP SWAP2 SWAP1 POP JUMP JUMPDEST PUSH1 0x0 PUSH1 0x20 DUP3 ADD SWAP1 POP DUP2 DUP2 SUB PUSH1 0x0 DUP4 ADD MSTORE PUSH2 0x280E DUP2 PUSH2 0x27D2 JUMP JUMPDEST SWAP1 POP SWAP2 SWAP1 POP JUMP JUMPDEST PUSH1 0x0 DUP2 SWAP1 POP SWAP3 SWAP2 POP POP JUMP JUMPDEST PUSH32 0x416363657373436F6E74726F6C3A206163636F756E7420000000000000000000 PUSH1 0x0 DUP3 ADD MSTORE POP JUMP JUMPDEST PUSH1 0x0 PUSH2 0x2856 PUSH1 0x17 DUP4 PUSH2 0x2815 JUMP JUMPDEST SWAP2 POP PUSH2 0x2861 DUP3 PUSH2 0x2820 JUMP JUMPDEST PUSH1 0x17 DUP3 ADD SWAP1 POP SWAP2 SWAP1 POP JUMP JUMPDEST PUSH1 0x0 DUP2 MLOAD SWAP1 POP SWAP2 SWAP1 POP JUMP JUMPDEST PUSH1 0x0 PUSH2 0x2882 DUP3 PUSH2 0x286C JUMP JUMPDEST PUSH2 0x288C DUP2 DUP6 PUSH2 0x2815 JUMP JUMPDEST SWAP4 POP PUSH2 0x289C DUP2 DUP6 PUSH1 0x20 DUP7 ADD PUSH2 0x20CF JUMP JUMPDEST DUP1 DUP5 ADD SWAP2 POP POP SWAP3 SWAP2 POP POP JUMP JUMPDEST PUSH32 0x206973206D697373696E6720726F6C6520000000000000000000000000000000 PUSH1 0x0 DUP3 ADD MSTORE POP JUMP JUMPDEST PUSH1 0x0 PUSH2 0x28DE PUSH1 0x11 DUP4 PUSH2 0x2815 JUMP JUMPDEST SWAP2 POP PUSH2 0x28E9 DUP3 PUSH2 0x28A8 JUMP JUMPDEST PUSH1 0x11 DUP3 ADD SWAP1 POP SWAP2 SWAP1 POP JUMP JUMPDEST PUSH1 0x0 PUSH2 0x28FF DUP3 PUSH2 0x2849 JUMP JUMPDEST SWAP2 POP PUSH2 0x290B DUP3 DUP6 PUSH2 0x2877 JUMP JUMPDEST SWAP2 POP PUSH2 0x2916 DUP3 PUSH2 0x28D1 JUMP JUMPDEST SWAP2 POP PUSH2 0x2922 DUP3 DUP5 PUSH2 0x2877 JUMP JUMPDEST SWAP2 POP DUP2 SWAP1 POP SWAP4 SWAP3 POP POP POP JUMP JUMPDEST PUSH1 0x0 PUSH2 0x2939 DUP3 PUSH2 0x286C JUMP JUMPDEST PUSH2 0x2943 DUP2 DUP6 PUSH2 0x1F5E JUMP JUMPDEST SWAP4 POP PUSH2 0x2953 DUP2 DUP6 PUSH1 0x20 DUP7 ADD PUSH2 0x20CF JUMP JUMPDEST PUSH2 0x295C DUP2 PUSH2 0x1B1C JUMP JUMPDEST DUP5 ADD SWAP2 POP POP SWAP3 SWAP2 POP POP JUMP JUMPDEST PUSH1 0x0 PUSH1 0x20 DUP3 ADD SWAP1 POP DUP2 DUP2 SUB PUSH1 0x0 DUP4 ADD MSTORE PUSH2 0x2981 DUP2 DUP5 PUSH2 0x292E JUMP JUMPDEST SWAP1 POP SWAP3 SWAP2 POP POP JUMP JUMPDEST PUSH1 0x0 PUSH2 0x2994 DUP3 PUSH2 0x1A4D JUMP JUMPDEST SWAP2 POP PUSH2 0x299F DUP4 PUSH2 0x1A4D JUMP JUMPDEST SWAP3 POP DUP2 PUSH32 0xFFFFFFFFFFFFFFFFFFFFFFFFFFFFFFFFFFFFFFFFFFFFFFFFFFFFFFFFFFFFFFFF DIV DUP4 GT DUP3 ISZERO ISZERO AND ISZERO PUSH2 0x29D8 JUMPI PUSH2 0x29D7 PUSH2 0x2731 JUMP JUMPDEST JUMPDEST DUP3 DUP3 MUL SWAP1 POP SWAP3 SWAP2 POP POP JUMP JUMPDEST PUSH1 0x0 PUSH2 0x29EE DUP3 PUSH2 0x1A4D JUMP JUMPDEST SWAP2 POP PUSH2 0x29F9 DUP4 PUSH2 0x1A4D JUMP JUMPDEST SWAP3 POP DUP3 PUSH32 0xFFFFFFFFFFFFFFFFFFFFFFFFFFFFFFFFFFFFFFFFFFFFFFFFFFFFFFFFFFFFFFFF SUB DUP3 GT ISZERO PUSH2 0x2A2E JUMPI PUSH2 0x2A2D PUSH2 0x2731 JUMP JUMPDEST JUMPDEST DUP3 DUP3 ADD SWAP1 POP SWAP3 SWAP2 POP POP JUMP JUMPDEST PUSH32 0x4E487B7100000000000000000000000000000000000000000000000000000000 PUSH1 0x0 MSTORE PUSH1 0x32 PUSH1 0x4 MSTORE PUSH1 0x24 PUSH1 0x0 REVERT JUMPDEST PUSH1 0x0 PUSH2 0x2A73 DUP3 PUSH2 0x1A4D JUMP JUMPDEST SWAP2 POP PUSH1 0x0 DUP3 EQ ISZERO PUSH2 0x2A87 JUMPI PUSH2 0x2A86 PUSH2 0x2731 JUMP JUMPDEST JUMPDEST PUSH1 0x1 DUP3 SUB SWAP1 POP SWAP2 SWAP1 POP JUMP JUMPDEST PUSH32 0x537472696E67733A20686578206C656E67746820696E73756666696369656E74 PUSH1 0x0 DUP3 ADD MSTORE POP JUMP JUMPDEST PUSH1 0x0 PUSH2 0x2AC8 PUSH1 0x20 DUP4 PUSH2 0x1F5E JUMP JUMPDEST SWAP2 POP PUSH2 0x2AD3 DUP3 PUSH2 0x2A92 JUMP JUMPDEST PUSH1 0x20 DUP3 ADD SWAP1 POP SWAP2 SWAP1 POP JUMP JUMPDEST PUSH1 0x0 PUSH1 0x20 DUP3 ADD SWAP1 POP DUP2 DUP2 SUB PUSH1 0x0 DUP4 ADD MSTORE PUSH2 0x2AF7 DUP2 PUSH2 0x2ABB JUMP JUMPDEST SWAP1 POP SWAP2 SWAP1 POP JUMP JUMPDEST PUSH1 0x0 PUSH2 0x2B09 DUP3 PUSH2 0x1A4D JUMP JUMPDEST SWAP2 POP PUSH2 0x2B14 DUP4 PUSH2 0x1A4D JUMP JUMPDEST SWAP3 POP DUP3 DUP3 LT ISZERO PUSH2 0x2B27 JUMPI PUSH2 0x2B26 PUSH2 0x2731 JUMP JUMPDEST JUMPDEST DUP3 DUP3 SUB SWAP1 POP SWAP3 SWAP2 POP POP JUMP JUMPDEST PUSH32 0x4E487B7100000000000000000000000000000000000000000000000000000000 PUSH1 0x0 MSTORE PUSH1 0x31 PUSH1 0x4 MSTORE PUSH1 0x24 PUSH1 0x0 REVERT INVALID LOG2 PUSH5 0x6970667358 0x22 SLT KECCAK256 0xDC GAS PUSH26 0x2030A5A7D11453B31EE54286CB2F32A617FAF339D07733C3FB28 0x5E ISZERO 0x21 PUSH5 0x736F6C6343 STOP ADDMOD SIGNEXTEND STOP CALLER "
		},
		"gasEstimates": {
			"creation": {
				"codeDepositCost": "2231800",
				"executionCost": "50998",
				"totalCost": "2282798"
			},
			"external": {
				"DEFAULT_ADMIN_ROLE()": "358",
				"_srcToken()": "2559",
				"approveBurnProof(bytes32)": "infinite",
				"burnAndCreateProof(bytes[40],bytes[40],uint256,uint8,uint16)": "infinite",
				"burnProofStorage(bytes32)": "2931",
				"getRoleAdmin(bytes32)": "infinite",
				"getRoleMember(bytes32,uint256)": "infinite",
				"getRoleMemberCount(bytes32)": "2953",
				"grantRole(bytes32,address)": "infinite",
				"hasRole(bytes32,address)": "3229",
				"mintWithBurnProof(bytes[40],bytes[40],uint8,uint16,bytes32,uint256,uint256)": "infinite",
				"renounceRole(bytes32,address)": "infinite",
				"revokeRole(bytes32,address)": "infinite",
				"srcNonceByToken(address)": "2880",
				"supportsInterface(bytes4)": "840"
			},
			"internal": {
				"getSrcCaller()": "infinite",
				"getSrcToken()": "infinite"
			}
		},
		"methodIdentifiers": {
			"DEFAULT_ADMIN_ROLE()": "a217fddf",
			"_srcToken()": "b3d2ca07",
			"approveBurnProof(bytes32)": "fbce0b5f",
			"burnAndCreateProof(bytes[40],bytes[40],uint256,uint8,uint16)": "f5feaa74",
			"burnProofStorage(bytes32)": "12a4868c",
			"getRoleAdmin(bytes32)": "248a9ca3",
			"getRoleMember(bytes32,uint256)": "9010d07c",
			"getRoleMemberCount(bytes32)": "ca15c873",
			"grantRole(bytes32,address)": "2f2ff15d",
			"hasRole(bytes32,address)": "91d14854",
			"mintWithBurnProof(bytes[40],bytes[40],uint8,uint16,bytes32,uint256,uint256)": "e8520723",
			"renounceRole(bytes32,address)": "36568abe",
			"revokeRole(bytes32,address)": "d547741f",
			"srcNonceByToken(address)": "fb6465a0",
			"supportsInterface(bytes4)": "01ffc9a7"
		}
	},
	"abi": [
		{
			"inputs": [],
			"stateMutability": "nonpayable",
			"type": "constructor"
		},
		{
			"anonymous": false,
			"inputs": [
				{
					"indexed": false,
					"internalType": "bytes32",
					"name": "burnProofHash",
					"type": "bytes32"
				}
			],
			"name": "ApprovedBurnProof",
			"type": "event"
		},
		{
			"anonymous": false,
			"inputs": [
				{
					"indexed": false,
					"internalType": "bytes[40]",
					"name": "srcToken",
					"type": "bytes[40]"
				},
				{
					"indexed": false,
					"internalType": "bytes[40]",
					"name": "destToken",
					"type": "bytes[40]"
				},
				{
					"indexed": false,
					"internalType": "bytes[40]",
					"name": "srcCaller",
					"type": "bytes[40]"
				},
				{
					"indexed": false,
					"internalType": "bytes[40]",
					"name": "destCaller",
					"type": "bytes[40]"
				},
				{
					"indexed": false,
					"internalType": "uint256",
					"name": "srcAmount",
					"type": "uint256"
				},
				{
					"indexed": false,
					"internalType": "uint256",
					"name": "srcNonce",
					"type": "uint256"
				},
				{
					"indexed": false,
					"internalType": "enum CrossChainBridgeV2.ChainType",
					"name": "destChainType",
					"type": "uint8"
				},
				{
					"indexed": false,
					"internalType": "uint16",
					"name": "destChainId",
					"type": "uint16"
				},
				{
					"indexed": false,
					"internalType": "bytes32",
					"name": "burnProofHash",
					"type": "bytes32"
				}
			],
			"name": "ProofOfBurn",
			"type": "event"
		},
		{
			"anonymous": false,
			"inputs": [
				{
					"indexed": false,
					"internalType": "bytes[40]",
					"name": "srcToken",
					"type": "bytes[40]"
				},
				{
					"indexed": false,
					"internalType": "bytes[40]",
					"name": "destToken",
					"type": "bytes[40]"
				},
				{
					"indexed": false,
					"internalType": "bytes[40]",
					"name": "srcCaller",
					"type": "bytes[40]"
				},
				{
					"indexed": false,
					"internalType": "bytes[40]",
					"name": "destCaller",
					"type": "bytes[40]"
				},
				{
					"indexed": false,
					"internalType": "uint256",
					"name": "destAmount",
					"type": "uint256"
				},
				{
					"indexed": false,
					"internalType": "bytes32",
					"name": "burnProofHash",
					"type": "bytes32"
				}
			],
			"name": "ProofOfMint",
			"type": "event"
		},
		{
			"anonymous": false,
			"inputs": [
				{
					"indexed": true,
					"internalType": "bytes32",
					"name": "role",
					"type": "bytes32"
				},
				{
					"indexed": true,
					"internalType": "bytes32",
					"name": "previousAdminRole",
					"type": "bytes32"
				},
				{
					"indexed": true,
					"internalType": "bytes32",
					"name": "newAdminRole",
					"type": "bytes32"
				}
			],
			"name": "RoleAdminChanged",
			"type": "event"
		},
		{
			"anonymous": false,
			"inputs": [
				{
					"indexed": true,
					"internalType": "bytes32",
					"name": "role",
					"type": "bytes32"
				},
				{
					"indexed": true,
					"internalType": "address",
					"name": "account",
					"type": "address"
				},
				{
					"indexed": true,
					"internalType": "address",
					"name": "sender",
					"type": "address"
				}
			],
			"name": "RoleGranted",
			"type": "event"
		},
		{
			"anonymous": false,
			"inputs": [
				{
					"indexed": true,
					"internalType": "bytes32",
					"name": "role",
					"type": "bytes32"
				},
				{
					"indexed": true,
					"internalType": "address",
					"name": "account",
					"type": "address"
				},
				{
					"indexed": true,
					"internalType": "address",
					"name": "sender",
					"type": "address"
				}
			],
			"name": "RoleRevoked",
			"type": "event"
		},
		{
			"inputs": [],
			"name": "DEFAULT_ADMIN_ROLE",
			"outputs": [
				{
					"internalType": "bytes32",
					"name": "",
					"type": "bytes32"
				}
			],
			"stateMutability": "view",
			"type": "function"
		},
		{
			"inputs": [],
			"name": "_srcToken",
			"outputs": [
				{
					"internalType": "address",
					"name": "",
					"type": "address"
				}
			],
			"stateMutability": "view",
			"type": "function"
		},
		{
			"inputs": [
				{
					"internalType": "bytes32",
					"name": "proofHash",
					"type": "bytes32"
				}
			],
			"name": "approveBurnProof",
			"outputs": [],
			"stateMutability": "nonpayable",
			"type": "function"
		},
		{
			"inputs": [
				{
					"internalType": "bytes[40]",
					"name": "destToken",
					"type": "bytes[40]"
				},
				{
					"internalType": "bytes[40]",
					"name": "destCaller",
					"type": "bytes[40]"
				},
				{
					"internalType": "uint256",
					"name": "srcAmount",
					"type": "uint256"
				},
				{
					"internalType": "uint8",
					"name": "destChainType",
					"type": "uint8"
				},
				{
					"internalType": "uint16",
					"name": "destChainId",
					"type": "uint16"
				}
			],
			"name": "burnAndCreateProof",
			"outputs": [],
			"stateMutability": "nonpayable",
			"type": "function"
		},
		{
			"inputs": [
				{
					"internalType": "bytes32",
					"name": "",
					"type": "bytes32"
				}
			],
			"name": "burnProofStorage",
			"outputs": [
				{
					"internalType": "enum CrossChainBridgeV2.States",
					"name": "",
					"type": "uint8"
				}
			],
			"stateMutability": "view",
			"type": "function"
		},
		{
			"inputs": [
				{
					"internalType": "bytes32",
					"name": "role",
					"type": "bytes32"
				}
			],
			"name": "getRoleAdmin",
			"outputs": [
				{
					"internalType": "bytes32",
					"name": "",
					"type": "bytes32"
				}
			],
			"stateMutability": "view",
			"type": "function"
		},
		{
			"inputs": [
				{
					"internalType": "bytes32",
					"name": "role",
					"type": "bytes32"
				},
				{
					"internalType": "uint256",
					"name": "index",
					"type": "uint256"
				}
			],
			"name": "getRoleMember",
			"outputs": [
				{
					"internalType": "address",
					"name": "",
					"type": "address"
				}
			],
			"stateMutability": "view",
			"type": "function"
		},
		{
			"inputs": [
				{
					"internalType": "bytes32",
					"name": "role",
					"type": "bytes32"
				}
			],
			"name": "getRoleMemberCount",
			"outputs": [
				{
					"internalType": "uint256",
					"name": "",
					"type": "uint256"
				}
			],
			"stateMutability": "view",
			"type": "function"
		},
		{
			"inputs": [
				{
					"internalType": "bytes32",
					"name": "role",
					"type": "bytes32"
				},
				{
					"internalType": "address",
					"name": "account",
					"type": "address"
				}
			],
			"name": "grantRole",
			"outputs": [],
			"stateMutability": "nonpayable",
			"type": "function"
		},
		{
			"inputs": [
				{
					"internalType": "bytes32",
					"name": "role",
					"type": "bytes32"
				},
				{
					"internalType": "address",
					"name": "account",
					"type": "address"
				}
			],
			"name": "hasRole",
			"outputs": [
				{
					"internalType": "bool",
					"name": "",
					"type": "bool"
				}
			],
			"stateMutability": "view",
			"type": "function"
		},
		{
			"inputs": [
				{
					"internalType": "bytes[40]",
					"name": "destToken",
					"type": "bytes[40]"
				},
				{
					"internalType": "bytes[40]",
					"name": "destCaller",
					"type": "bytes[40]"
				},
				{
					"internalType": "uint8",
					"name": "destChainType",
					"type": "uint8"
				},
				{
					"internalType": "uint16",
					"name": "destChainId",
					"type": "uint16"
				},
				{
					"internalType": "bytes32",
					"name": "destBurnProofHash",
					"type": "bytes32"
				},
				{
					"internalType": "uint256",
					"name": "destAmount",
					"type": "uint256"
				},
				{
					"internalType": "uint256",
					"name": "destNonce",
					"type": "uint256"
				}
			],
			"name": "mintWithBurnProof",
			"outputs": [],
			"stateMutability": "nonpayable",
			"type": "function"
		},
		{
			"inputs": [
				{
					"internalType": "bytes32",
					"name": "role",
					"type": "bytes32"
				},
				{
					"internalType": "address",
					"name": "account",
					"type": "address"
				}
			],
			"name": "renounceRole",
			"outputs": [],
			"stateMutability": "nonpayable",
			"type": "function"
		},
		{
			"inputs": [
				{
					"internalType": "bytes32",
					"name": "role",
					"type": "bytes32"
				},
				{
					"internalType": "address",
					"name": "account",
					"type": "address"
				}
			],
			"name": "revokeRole",
			"outputs": [],
			"stateMutability": "nonpayable",
			"type": "function"
		},
		{
			"inputs": [
				{
					"internalType": "address",
					"name": "",
					"type": "address"
				}
			],
			"name": "srcNonceByToken",
			"outputs": [
				{
					"internalType": "uint256",
					"name": "",
					"type": "uint256"
				}
			],
			"stateMutability": "view",
			"type": "function"
		},
		{
			"inputs": [
				{
					"internalType": "bytes4",
					"name": "interfaceId",
					"type": "bytes4"
				}
			],
			"name": "supportsInterface",
			"outputs": [
				{
					"internalType": "bool",
					"name": "",
					"type": "bool"
				}
			],
			"stateMutability": "view",
			"type": "function"
		}
	]
}