{
	"data": {
		"bytecode": {
			"linkReferences": {},
			"object": "6101406040527f6e71edae12b1b97f4d1f60370fef10105fa2faae0126114a169c64845d6126c9610120523480156200003757600080fd5b506040518060400160405280600a81526020016915195cdd0812d111519560b21b81525080604051806040016040528060018152602001603160f81b8152506040518060400160405280600a81526020016915195cdd0812d111519560b21b8152506040518060400160405280600981526020016815195cdd12d111519560ba1b8152508160049080519060200190620000d392919062000421565b508051620000e990600590602084019062000421565b5050825160208085019190912083519184019190912060c082905260e08190524660a0529091507f8b73c3c69bb8fe3d512ecc4cf759cc79239f7b179b0ffacaa9a75d522b39400f6200013e81848462000254565b6080526101005250620001639350600092506200015d91505062000290565b62000294565b620001927faeaef46186eb59f884e36929b6d682a6ae35e1e43d8f05f058dcefb92b6014616200015d62000290565b620001c17fb5b5a86cc252b1b75a439c6ff372933ceb0690188924e6461150adeb00ab80d86200015d62000290565b620001f07f02a8464c3e212c8f1064432774c6cc3e76f14bd7ccdafd9a1d1cf9b43b51e5246200015d62000290565b6200021f7f7e3bdf7d439d01bc1797194289ccfbb93f12c17efe2856c054735d4476425b4b6200015d62000290565b6200024e7f5772712b2943d95a931c0b3a7ddf59cba41b664500d9b93626000a17809f04d16200015d62000290565b62000530565b6000838383463060405160200162000271959493929190620004c7565b6040516020818303038152906040528051906020012090509392505050565b3390565b620002ab8282620002d760201b62001db51760201c565b6000828152600160209081526040909120620002d291839062001dbf620002e7821b17901c565b505050565b620002e3828262000307565b5050565b6000620002fe836001600160a01b03841662000391565b90505b92915050565b620003138282620003e0565b620002e3576000828152602081815260408083206001600160a01b03851684529091529020805460ff191660011790556200034d62000290565b6001600160a01b0316816001600160a01b0316837f2f8788117e7eff1d82e926ec794901d17c78024a50270940304540a733656f0d60405160405180910390a45050565b60006200039f838362000409565b620003d75750815460018181018455600084815260208082209093018490558454848252828601909352604090209190915562000301565b50600062000301565b6000918252602082815260408084206001600160a01b0393909316845291905290205460ff1690565b60009081526001919091016020526040902054151590565b8280546200042f90620004f3565b90600052602060002090601f0160209004810192826200045357600085556200049e565b82601f106200046e57805160ff19168380011785556200049e565b828001600101855582156200049e579182015b828111156200049e57825182559160200191906001019062000481565b50620004ac929150620004b0565b5090565b5b80821115620004ac5760008155600101620004b1565b9485526020850193909352604084019190915260608301526001600160a01b0316608082015260a00190565b6002810460018216806200050857607f821691505b602082108114156200052a57634e487b7160e01b600052602260045260246000fd5b50919050565b60805160a05160c05160e0516101005161012051613fc5620005806000396000611c67015260006124f90152600061253b0152600061251a015260006124a7015260006124d00152613fc56000f3fe608060405234801561001057600080fd5b506004361061029f5760003560e01c8063789210b311610167578063a457c2d7116100ce578063d391014b11610087578063d391014b1461058e578063d505accf14610596578063d547741f146105a9578063d963f0cd146105bc578063dd62ed3e146105c4578063eaf9d194146105d75761029f565b8063a457c2d714610532578063a9059cbb14610545578063b187bd2614610558578063b492da9114610560578063c4bc5da514610573578063ca15c8731461057b5761029f565b80639010d07c116101205780639010d07c146104e157806391d14854146104f457806392afc33a1461050757806395d89b411461050f57806397c1d32f146105175780639cff2eba1461051f5761029f565b8063789210b31461046d5780637ecebe001461048057806382e17b65146104935780638493712a146104b357806387b4bf75146104bb5780638cbfeb0c146104ce5761029f565b80632f2ff15d1161020b578063439766ce116101c4578063439766ce146104045780634abd991d1461040c57806354ff02d81461041f5780635aacfa5d1461042757806368a2972f1461043a57806370a082311461045a5761029f565b80632f2ff15d146103a6578063313ce567146103b95780633408e470146103ce5780633644e515146103d657806336568abe146103de57806339509351146103f15761029f565b806318160ddd1161025d57806318160ddd1461034a57806318a8ad87146103525780631bf73b7214610365578063209ab7111461036d57806323b872dd14610380578063248a9ca3146103935761029f565b8062245783146102a457806301ffc9a7146102cd57806306fb1a07146102ed57806306fdde031461030d578063095ea7b3146103225780630bb9ff5d14610335575b600080fd5b6102b76102b2366004612ef1565b6105ea565b6040516102c491906136a7565b60405180910390f35b6102e06102db3660046132af565b6106a6565b6040516102c4919061367b565b6103006102fb366004613252565b6106d3565b6040516102c49190613484565b610315610711565b6040516102c4919061372e565b6102e0610330366004612f44565b6107a4565b610348610343366004612f44565b6107c2565b005b6102b761080f565b610348610360366004612f44565b6108b9565b6102b76108f9565b61034861037b366004612de8565b6108ff565b6102e061038e366004612e3c565b61099d565b6102b76103a1366004613252565b610a34565b6103486103b436600461326a565b610a49565b6103c1610a70565b6040516102c49190613d46565b6102b7610a75565b6102b7610a79565b6103486103ec36600461326a565b610a83565b6102e06103ff366004612f44565b610aa5565b610348610af4565b6102b761041a366004612de8565b610b2c565b6102b7610be4565b610348610435366004612f6f565b610bf6565b61044d610448366004612f6f565b610e43565b6040516102c49190613623565b6102b7610468366004612de8565b610f03565b61034861047b36600461304d565b610fc0565b6102b761048e366004612de8565b611436565b6104a66104a1366004612f6f565b611457565b6040516102c49190613528565b6102b761150f565b6103486104c93660046130bd565b611521565b6103486104dc366004612f44565b61162e565b6103006104ef36600461328e565b6118ac565b6102e061050236600461326a565b6118c4565b6102b76118ed565b6103156118ff565b6102b761190e565b61034861052d366004612e3c565b611920565b6102e0610540366004612f44565b6119ea565b6102e0610553366004612f44565b611a65565b6102e0611a79565b61034861056e366004612f44565b611a82565b610348611bf2565b6102b7610589366004613252565b611c27565b6102b7611c3e565b6103486105a4366004612e7c565b611c43565b6103486105b736600461326a565b611d25565b6102b7611d2f565b6102b76105d2366004612e04565b611d41565b6103486105e53660046132d7565b611d6c565b600080600760008154811061060f57634e487b7160e01b600052603260045260246000fd5b6000918252602090912001546040516224578360e01b81526001600160a01b0390911691508190622457839061064d908890889088906004016134d6565b60206040518083038186803b15801561066557600080fd5b505afa158015610679573d6000803e3d6000fd5b505050506040513d601f19601f8201168201806040525081019061069d9190613387565b95945050505050565b60006001600160e01b03198216635a05180f60e01b14806106cb57506106cb82611dd4565b90505b919050565b6000600782815481106106f657634e487b7160e01b600052603260045260246000fd5b6000918252602090912001546001600160a01b031692915050565b60606004805461072090613e3e565b80601f016020809104026020016040519081016040528092919081815260200182805461074c90613e3e565b80156107995780601f1061076e57610100808354040283529160200191610799565b820191906000526020600020905b81548152906001019060200180831161077c57829003601f168201915b505050505090505b90565b60006107b86107b1611df9565b8484611dfd565b5060015b92915050565b6107dc600080516020613f70833981519152610502611df9565b6108015760405162461bcd60e51b81526004016107f890613cbe565b60405180910390fd5b61080b8282611eb1565b5050565b6000600760008154811061083357634e487b7160e01b600052603260045260246000fd5b60009182526020918290200154604080516362720d9160e11b815290516001600160a01b039092169263c4e41b2292600480840193829003018186803b15801561087c57600080fd5b505afa158015610890573d6000803e3d6000fd5b505050506040513d601f19601f820116820180604052508101906108b49190613387565b905090565b6108d3600080516020613ed0833981519152610502611df9565b6108ef5760405162461bcd60e51b81526004016107f8906139ef565b61080b8282612052565b60075490565b6000600760008154811061092357634e487b7160e01b600052603260045260246000fd5b6000918252602090912001546001600160a01b0316905080635603b9f9610948611df9565b846040518363ffffffff1660e01b8152600401610966929190613498565b600060405180830381600087803b15801561098057600080fd5b505af1158015610994573d6000803e3d6000fd5b50505050505b50565b60006109aa848484612226565b6001600160a01b0384166000908152600360205260408120816109cb611df9565b6001600160a01b03166001600160a01b0316815260200190815260200160002054905082811015610a0e5760405162461bcd60e51b81526004016107f890613ae1565b610a2985610a1a611df9565b610a248685613de0565b611dfd565b506001949350505050565b60009081526020819052604090206001015490565b610a53828261247f565b6000828152600160205260409020610a6b9082611dbf565b505050565b601290565b4690565b60006108b46124a3565b610a8d8282612566565b6000828152600160205260409020610a6b90826125a8565b60006107b8610ab2611df9565b848460036000610ac0611df9565b6001600160a01b03908116825260208083019390935260409182016000908120918b1681529252902054610a249190613da9565b610b016000610502611df9565b610b1d5760405162461bcd60e51b81526004016107f890613908565b6008805460ff19166001179055565b6000806007600081548110610b5157634e487b7160e01b600052603260045260246000fd5b600091825260209091200154604051634abd991d60e01b81526001600160a01b0390911691508190634abd991d90610b8d908690600401613484565b60206040518083038186803b158015610ba557600080fd5b505afa158015610bb9573d6000803e3d6000fd5b505050506040513d601f19601f82011682018060405250810190610bdd9190613387565b9392505050565b600080516020613ed083398151915281565b60085460ff161580610c1d5750610c1d600080516020613f10833981519152610502611df9565b80610c305750610c306000610502611df9565b610c4c5760405162461bcd60e51b81526004016107f890613804565b60006007600081548110610c7057634e487b7160e01b600052603260045260246000fd5b600091825260209091200154604051631c182a8d60e11b81526001600160a01b0390911691508190633830551a90610cae9086908690600401613514565b600060405180830381600087803b158015610cc857600080fd5b505af1158015610cdc573d6000803e3d6000fd5b505050506000816001600160a01b0316634abd991d610cf9611df9565b6040518263ffffffff1660e01b8152600401610d159190613484565b60206040518083038186803b158015610d2d57600080fd5b505afa158015610d41573d6000803e3d6000fd5b505050506040513d601f19601f82011682018060405250810190610d659190613387565b905060008111610d875760405162461bcd60e51b81526004016107f8906137cd565b816001600160a01b031663e3556819610d9e611df9565b6040518263ffffffff1660e01b8152600401610dba9190613484565b600060405180830381600087803b158015610dd457600080fd5b505af1158015610de8573d6000803e3d6000fd5b50505050610dfd610df7611df9565b82611eb1565b7f5b166da4c6bcfd67577f205ac2ee4ef2ce2e24d51237eafb87f82df73f03f614610e26611df9565b82604051610e359291906134fb565b60405180910390a150505050565b606060006007600081548110610e6957634e487b7160e01b600052603260045260246000fd5b6000918252602090912001546040516368a2972f60e01b81526001600160a01b03909116915081906368a2972f90610ea79087908790600401613514565b60006040518083038186803b158015610ebf57600080fd5b505afa158015610ed3573d6000803e3d6000fd5b505050506040513d6000823e601f3d908101601f19168201604052610efb9190810190613186565b949350505050565b60006007600081548110610f2757634e487b7160e01b600052603260045260246000fd5b60009182526020808320909101546001600160a01b038581168452600290925260409283902054925162ac13a160e61b8152911691632b04e84091610f709186916004016134fb565b60206040518083038186803b158015610f8857600080fd5b505afa158015610f9c573d6000803e3d6000fd5b505050506040513d601f19601f820116820180604052508101906106cb9190613387565b610fcd6000610502611df9565b610fe95760405162461bcd60e51b81526004016107f890613908565b60005b60075481101561112157611043600080516020613f708339815191526007838154811061102957634e487b7160e01b600052603260045260246000fd5b6000918252602090912001546001600160a01b0316611d25565b611076600080516020613ed08339815191526007838154811061102957634e487b7160e01b600052603260045260246000fd5b6110a9600080516020613ef08339815191526007838154811061102957634e487b7160e01b600052603260045260246000fd5b6110dc600080516020613f108339815191526007838154811061102957634e487b7160e01b600052603260045260246000fd5b61110f600080516020613f508339815191526007838154811061102957634e487b7160e01b600052603260045260246000fd5b8061111981613e73565b915050610fec565b5061112e60076000612c8d565b60005b818110156113f85782828281811061115957634e487b7160e01b600052603260045260246000fd5b61116f92602060c0909202019081019150613238565b156111be576111be600080516020613f708339815191528484848181106111a657634e487b7160e01b600052603260045260246000fd5b905060c0020160a00160208101906103b49190612de8565b8282828181106111de57634e487b7160e01b600052603260045260246000fd5b905060c0020160200160208101906111f69190613238565b1561122d5761122d600080516020613ed08339815191528484848181106111a657634e487b7160e01b600052603260045260246000fd5b82828281811061124d57634e487b7160e01b600052603260045260246000fd5b905060c0020160400160208101906112659190613238565b1561129c5761129c600080516020613ef08339815191528484848181106111a657634e487b7160e01b600052603260045260246000fd5b8282828181106112bc57634e487b7160e01b600052603260045260246000fd5b905060c0020160600160208101906112d49190613238565b1561130b5761130b600080516020613f108339815191528484848181106111a657634e487b7160e01b600052603260045260246000fd5b82828281811061132b57634e487b7160e01b600052603260045260246000fd5b905060c0020160800160208101906113439190613238565b1561137a5761137a600080516020613f508339815191528484848181106111a657634e487b7160e01b600052603260045260246000fd5b600783838381811061139c57634e487b7160e01b600052603260045260246000fd5b905060c0020160a00160208101906113b49190612de8565b81546001810183556000928352602090922090910180546001600160a01b0319166001600160a01b03909216919091179055806113f081613e73565b915050611131565b507f13340c8e795b6b33898709afdee63a73df74c7ca9d8204d3265aa483ac0e4037828260405161142a929190613575565b60405180910390a15050565b6001600160a01b03811660009081526006602052604081206106cb906125bd565b60606000600760008154811061147d57634e487b7160e01b600052603260045260246000fd5b6000918252602090912001546040516382e17b6560e01b81526001600160a01b03909116915081906382e17b65906114bb9087908790600401613514565b60006040518083038186803b1580156114d357600080fd5b505afa1580156114e7573d6000803e3d6000fd5b505050506040513d6000823e601f3d908101601f19168201604052610efb9190810190612faf565b600080516020613ef083398151915281565b6000600760008154811061154557634e487b7160e01b600052603260045260246000fd5b60009182526020822001546001600160a01b031691505b8251811015610a6b57816001600160a01b0316635603b9f984838151811061159457634e487b7160e01b600052603260045260246000fd5b6020026020010151600001518584815181106115c057634e487b7160e01b600052603260045260246000fd5b6020026020010151602001516040518363ffffffff1660e01b81526004016115e9929190613498565b600060405180830381600087803b15801561160357600080fd5b505af1158015611617573d6000803e3d6000fd5b50505050808061162690613e73565b91505061155c565b60085460ff1615806116555750611655600080516020613f10833981519152610502611df9565b8061166857506116686000610502611df9565b6116845760405162461bcd60e51b81526004016107f890613804565b600060076001815481106116a857634e487b7160e01b600052603260045260246000fd5b6000918252602090912001546001600160a01b031690506116c7611df9565b6001600160a01b0316816001600160a01b0316146116f75760405162461bcd60e51b81526004016107f890613ba4565b6001600160a01b03811660009081526002602052604090205482111561172f5760405162461bcd60e51b81526004016107f8906139b8565b6001600160a01b03811660009081526002602052604081208054849290611757908490613de0565b90915550506007805460009061177d57634e487b7160e01b600052603260045260246000fd5b60009182526020909120015460405163cb12363760e01b81526001600160a01b039091169063cb123637906117b69085906004016136a7565b60206040518083038186803b1580156117ce57600080fd5b505afa1580156117e2573d6000803e3d6000fd5b505050506040513d601f19601f820116820180604052508101906118069190613387565b6001600160a01b0384166000908152600260205260408120805490919061182e908490613da9565b92505081905550826001600160a01b0316816001600160a01b0316600080516020613f308339815191528460405161186691906136a7565b60405180910390a37f814f4cde641f205fbac4d156545ee0a5850d9338c94b952acec9852c0a528043838360405161189f9291906134fb565b60405180910390a1505050565b6000828152600160205260408120610bdd90836125c1565b6000918252602082815260408084206001600160a01b0393909316845291905290205460ff1690565b600080516020613f7083398151915281565b60606005805461072090613e3e565b600080516020613f5083398151915281565b60085460ff1615806119475750611947600080516020613f10833981519152610502611df9565b8061195a575061195a6000610502611df9565b6119765760405162461bcd60e51b81526004016107f890613804565b611990600080516020613ef0833981519152610502611df9565b6119ac5760405162461bcd60e51b81526004016107f890613a68565b6119b7838383612226565b7f4f21c37c3184c9b0bbc63a812b0a1a148f15f1bd6db127e7e562d9b04368032583838360405161189f939291906134b2565b600080600360006119f9611df9565b6001600160a01b0390811682526020808301939093526040918201600090812091881681529252902054905082811015611a455760405162461bcd60e51b81526004016107f890613be7565b611a5b611a50611df9565b85610a248685613de0565b5060019392505050565b60006107b8611a72611df9565b8484612226565b60085460ff1681565b60085460ff161580611aa95750611aa9600080516020613f10833981519152610502611df9565b80611abc5750611abc6000610502611df9565b611ad85760405162461bcd60e51b81526004016107f890613804565b611af2600080516020613f50833981519152610502611df9565b611b0e5760405162461bcd60e51b81526004016107f8906138d1565b60006007600081548110611b3257634e487b7160e01b600052603260045260246000fd5b60009182526020808320909101546001600160a01b03868116845260029092526040928390205492516306c130eb60e31b8152911692508291633609875891611b7f918691600401613d38565b602060405180830381600087803b158015611b9957600080fd5b505af1158015611bad573d6000803e3d6000fd5b505050506040513d601f19601f82011682018060405250810190611bd19190613387565b6001600160a01b039093166000908152600260205260409020929092555050565b611bff6000610502611df9565b611c1b5760405162461bcd60e51b81526004016107f890613908565b6008805460ff19169055565b60008181526001602052604081206106cb906125cd565b600081565b83421115611c635760405162461bcd60e51b81526004016107f89061393f565b60007f0000000000000000000000000000000000000000000000000000000000000000888888611c928c6125d8565b89604051602001611ca8969594939291906136b0565b6040516020818303038152906040528051906020012090506000611ccb8261260a565b90506000611cdb8287878761261d565b9050896001600160a01b0316816001600160a01b031614611d0e5760405162461bcd60e51b81526004016107f890613aaa565b611d198a8a8a611dfd565b50505050505050505050565b610a8d828261270a565b600080516020613f1083398151915281565b6001600160a01b03918216600090815260036020908152604080832093909416825291909152205490565b611d796000610502611df9565b611d955760405162461bcd60e51b81526004016107f890613908565b611da160048585612cab565b50611dae60058383612cab565b5050505050565b61080b8282612729565b6000610bdd836001600160a01b0384166127ae565b60006001600160e01b03198216637965db0b60e01b14806106cb57506106cb826127f8565b3390565b6001600160a01b038316611e235760405162461bcd60e51b81526004016107f890613b29565b6001600160a01b038216611e495760405162461bcd60e51b81526004016107f89061388f565b6001600160a01b0380841660008181526003602090815260408083209487168084529490915290819020849055517f8c5be1e5ebec7d5bd14f71427d1e84f3dd0314c0f7b2291e5b200ac8c7c3b92590611ea49085906136a7565b60405180910390a3505050565b60085460ff161580611ed85750611ed8600080516020613f10833981519152610502611df9565b80611eeb5750611eeb6000610502611df9565b611f075760405162461bcd60e51b81526004016107f890613804565b60006007600081548110611f2b57634e487b7160e01b600052603260045260246000fd5b6000918252602090912001546040516342e58a6360e01b81526001600160a01b03909116906342e58a6390611f699060019087908790600401613686565b602060405180830381600087803b158015611f8357600080fd5b505af1158015611f97573d6000803e3d6000fd5b505050506040513d601f19601f82011682018060405250810190611fbb9190613387565b6001600160a01b038416600090815260026020526040812080549293508392909190611fe8908490613da9565b90915550506040516001600160a01b03841690600090600080516020613f30833981519152906120199086906136a7565b60405180910390a37f099fc78bcf3c24b8cd6ad4eda1e3eb007e511c09c640af1c46437ded34cf10f2838360405161189f9291906134fb565b60085460ff1615806120795750612079600080516020613f10833981519152610502611df9565b8061208c575061208c6000610502611df9565b6120a85760405162461bcd60e51b81526004016107f890613804565b600060076000815481106120cc57634e487b7160e01b600052603260045260246000fd5b60009182526020822001546040516342e58a6360e01b81526001600160a01b03909116916342e58a6391612107919087908790600401613686565b602060405180830381600087803b15801561212157600080fd5b505af1158015612135573d6000803e3d6000fd5b505050506040513d601f19601f820116820180604052508101906121599190613387565b6001600160a01b0384166000908152600260205260409020549091508111156121945760405162461bcd60e51b81526004016107f890613c2c565b6001600160a01b038316600090815260026020526040812080548392906121bc908490613de0565b90915550506040516000906001600160a01b03851690600080516020613f30833981519152906121ed9086906136a7565b60405180910390a37f0a5b82707bc4ce1d57e909b70adb28e393a34c2ab77e30f862ca2e0e9f8da905838360405161189f9291906134fb565b60085460ff16158061224d575061224d600080516020613f10833981519152610502611df9565b8061226057506122606000610502611df9565b61227c5760405162461bcd60e51b81526004016107f890613804565b6001600160a01b0383161580159061229c57506001600160a01b03821615155b6122b85760405162461bcd60e51b81526004016107f890613b6d565b816001600160a01b0316836001600160a01b031614156122ea5760405162461bcd60e51b81526004016107f890613858565b6000600760008154811061230e57634e487b7160e01b600052603260045260246000fd5b60009182526020808320909101546040805160a0810182526001600160a01b038981168083528982168387018190528385018a90529087526002808752848820546060850152908752909452818520546080820152905163040ad30f60e51b8152929091169350839163815a61e09161238991600401613cf5565b608060405180830381600087803b1580156123a357600080fd5b505af11580156123b7573d6000803e3d6000fd5b505050506040513d601f19601f820116820180604052508101906123db9190613340565b80516001600160a01b0380881660008181526002602090815260408083209590955585015192891681528381209290925582840151925193945090929091600080516020613f308339815191529161243391906136a7565b60405180910390a3836001600160a01b0316856001600160a01b0316600080516020613f30833981519152836060015160405161247091906136a7565b60405180910390a35050505050565b61248882610a34565b61249981612494611df9565b612811565b610a6b8383612729565b60007f00000000000000000000000000000000000000000000000000000000000000004614156124f457507f00000000000000000000000000000000000000000000000000000000000000006107a1565b61255f7f00000000000000000000000000000000000000000000000000000000000000007f00000000000000000000000000000000000000000000000000000000000000007f0000000000000000000000000000000000000000000000000000000000000000612875565b90506107a1565b61256e611df9565b6001600160a01b0316816001600160a01b03161461259e5760405162461bcd60e51b81526004016107f890613c6f565b61080b82826128af565b6000610bdd836001600160a01b038416612932565b5490565b6000610bdd8383612a4f565b60006106cb826125bd565b6001600160a01b03811660009081526006602052604081206125f9816125bd565b915061260481612a87565b50919050565b60006106cb6126176124a3565b83612a90565b60007f7fffffffffffffffffffffffffffffff5d576e7357a4501ddfe92f46681b20a082111561265f5760405162461bcd60e51b81526004016107f890613976565b8360ff16601b148061267457508360ff16601c145b6126905760405162461bcd60e51b81526004016107f890613a26565b6000600186868686604051600081526020016040526040516126b59493929190613710565b6020604051602081039080840390855afa1580156126d7573d6000803e3d6000fd5b5050604051601f1901519150506001600160a01b03811661069d5760405162461bcd60e51b81526004016107f890613761565b61271382610a34565b61271f81612494611df9565b610a6b83836128af565b61273382826118c4565b61080b576000828152602081815260408083206001600160a01b03851684529091529020805460ff1916600117905561276a611df9565b6001600160a01b0316816001600160a01b0316837f2f8788117e7eff1d82e926ec794901d17c78024a50270940304540a733656f0d60405160405180910390a45050565b60006127ba8383612ac3565b6127f0575081546001818101845560008481526020808220909301849055845484825282860190935260409020919091556107bc565b5060006107bc565b6001600160e01b031981166301ffc9a760e01b14919050565b61281b82826118c4565b61080b57612833816001600160a01b03166014612adb565b61283e836020612adb565b60405160200161284f92919061340f565b60408051601f198184030181529082905262461bcd60e51b82526107f89160040161372e565b600083838346306040516020016128909594939291906136e4565b6040516020818303038152906040528051906020012090509392505050565b6128b982826118c4565b1561080b576000828152602081815260408083206001600160a01b03851684529091529020805460ff191690556128ee611df9565b6001600160a01b0316816001600160a01b0316837ff6391f5c32d9c69d2a47ea670b442974b53935d1edc7fd64eb21e047a839171b60405160405180910390a45050565b60008181526001830160205260408120548015612a45576000612956600183613de0565b855490915060009061296a90600190613de0565b90508181146129eb57600086600001828154811061299857634e487b7160e01b600052603260045260246000fd5b90600052602060002001549050808760000184815481106129c957634e487b7160e01b600052603260045260246000fd5b6000918252602080832090910192909255918252600188019052604090208390555b8554869080612a0a57634e487b7160e01b600052603160045260246000fd5b6001900381819060005260206000200160009055905585600101600086815260200190815260200160002060009055600193505050506107bc565b60009150506107bc565b6000826000018281548110612a7457634e487b7160e01b600052603260045260246000fd5b9060005260206000200154905092915050565b80546001019055565b60008282604051602001612aa59291906133f4565b60405160208183030381529060405280519060200120905092915050565b60009081526001919091016020526040902054151590565b60606000612aea836002613dc1565b612af5906002613da9565b67ffffffffffffffff811115612b1b57634e487b7160e01b600052604160045260246000fd5b6040519080825280601f01601f191660200182016040528015612b45576020820181803683370190505b509050600360fc1b81600081518110612b6e57634e487b7160e01b600052603260045260246000fd5b60200101906001600160f81b031916908160001a905350600f60fb1b81600181518110612bab57634e487b7160e01b600052603260045260246000fd5b60200101906001600160f81b031916908160001a9053506000612bcf846002613dc1565b612bda906001613da9565b90505b6001811115612c6e576f181899199a1a9b1b9c1cb0b131b232b360811b85600f1660108110612c1c57634e487b7160e01b600052603260045260246000fd5b1a60f81b828281518110612c4057634e487b7160e01b600052603260045260246000fd5b60200101906001600160f81b031916908160001a90535060049490941c93612c6781613e27565b9050612bdd565b508315610bdd5760405162461bcd60e51b81526004016107f890613798565b508054600082559060005260206000209081019061099a9190612d2f565b828054612cb790613e3e565b90600052602060002090601f016020900481019282612cd95760008555612d1f565b82601f10612cf25782800160ff19823516178555612d1f565b82800160010185558215612d1f579182015b82811115612d1f578235825591602001919060010190612d04565b50612d2b929150612d2f565b5090565b5b80821115612d2b5760008155600101612d30565b80356106ce81613eba565b60008083601f840112612d60578182fd5b50813567ffffffffffffffff811115612d77578182fd5b6020830191508360208083028501011115612d9157600080fd5b9250929050565b803580151581146106ce57600080fd5b60008083601f840112612db9578182fd5b50813567ffffffffffffffff811115612dd0578182fd5b602083019150836020828501011115612d9157600080fd5b600060208284031215612df9578081fd5b8135610bdd81613eba565b60008060408385031215612e16578081fd5b8235612e2181613eba565b91506020830135612e3181613eba565b809150509250929050565b600080600060608486031215612e50578081fd5b8335612e5b81613eba565b92506020840135612e6b81613eba565b929592945050506040919091013590565b600080600080600080600060e0888a031215612e96578283fd5b8735612ea181613eba565b96506020880135612eb181613eba565b95506040880135945060608801359350608088013560ff81168114612ed4578384fd5b9699959850939692959460a0840135945060c09093013592915050565b600080600060408486031215612f05578081fd5b8335612f1081613eba565b9250602084013567ffffffffffffffff811115612f2b578182fd5b612f3786828701612d4f565b9497909650939450505050565b60008060408385031215612f56578182fd5b8235612f6181613eba565b946020939093013593505050565b60008060208385031215612f81578182fd5b823567ffffffffffffffff811115612f97578283fd5b612fa385828601612d4f565b90969095509350505050565b60006020808385031215612fc1578182fd5b825167ffffffffffffffff811115612fd7578283fd5b8301601f81018513612fe7578283fd5b8051612ffa612ff582613d85565b613d54565b8181528381019083850185840285018601891015613016578687fd5b8694505b8385101561304157805161302d81613eba565b83526001949094019391850191850161301a565b50979650505050505050565b6000806020838503121561305f578182fd5b823567ffffffffffffffff80821115613076578384fd5b818501915085601f830112613089578384fd5b813581811115613097578485fd5b86602060c0830285010111156130ab578485fd5b60209290920196919550909350505050565b600060208083850312156130cf578182fd5b823567ffffffffffffffff8111156130e5578283fd5b8301601f810185136130f5578283fd5b8035613103612ff582613d85565b818152838101908385016040808502860187018a1015613121578788fd5b8795505b848610156131785780828b03121561313b578788fd5b61314481613d54565b823561314f81613eba565b81528288013561315e81613eba565b818901528452600195909501949286019290810190613125565b509098975050505050505050565b60006020808385031215613198578182fd5b825167ffffffffffffffff8111156131ae578283fd5b8301601f810185136131be578283fd5b80516131cc612ff582613d85565b818152838101908385016040808502860187018a10156131ea578788fd5b8795505b848610156131785780828b031215613204578788fd5b61320d81613d54565b825161321881613eba565b8152828801518882015284526001959095019492860192908101906131ee565b600060208284031215613249578081fd5b610bdd82612d98565b600060208284031215613263578081fd5b5035919050565b6000806040838503121561327c578182fd5b823591506020830135612e3181613eba565b600080604083850312156132a0578182fd5b50508035926020909101359150565b6000602082840312156132c0578081fd5b81356001600160e01b031981168114610bdd578182fd5b600080600080604085870312156132ec578182fd5b843567ffffffffffffffff80821115613303578384fd5b61330f88838901612da8565b90965094506020870135915080821115613327578384fd5b5061333487828801612da8565b95989497509550505050565b600060808284031215613351578081fd5b61335b6080613d54565b825181526020830151602082015260408301516040820152606083015160608201528091505092915050565b600060208284031215613398578081fd5b5051919050565b6001600160a01b03169052565b60008284526020808501945082825b858110156133e95781356133ce81613eba565b6001600160a01b0316875295820195908201906001016133bb565b509495945050505050565b61190160f01b81526002810192909252602282015260420190565b60007f416363657373436f6e74726f6c3a206163636f756e742000000000000000000082528351613447816017850160208801613df7565b7001034b99036b4b9b9b4b733903937b6329607d1b6017918401918201528351613478816028840160208801613df7565b01602801949350505050565b6001600160a01b0391909116815260200190565b6001600160a01b0392831681529116602082015260400190565b6001600160a01b039384168152919092166020820152604081019190915260600190565b6001600160a01b038416815260406020820181905260009061069d90830184866133ac565b6001600160a01b03929092168252602082015260400190565b600060208252610efb6020830184866133ac565b6020808252825182820181905260009190848201906040850190845b818110156135695783516001600160a01b031683529284019291840191600101613544565b50909695505050505050565b6020808252818101839052600090604080840186845b878110156136165761359c82612d98565b151583526135ab858301612d98565b1515858401526135bc848301612d98565b15158484015260606135cf818401612d98565b15159084015260806135e2838201612d98565b15159084015260a06135f5838201612d44565b6136018286018261339f565b505060c092830192919091019060010161358b565b5090979650505050505050565b602080825282518282018190526000919060409081850190868401855b8281101561366e57815180516001600160a01b03168552860151868501529284019290850190600101613640565b5091979650505050505050565b901515815260200190565b92151583526001600160a01b03919091166020830152604082015260600190565b90815260200190565b9586526001600160a01b0394851660208701529290931660408501526060840152608083019190915260a082015260c00190565b9485526020850193909352604084019190915260608301526001600160a01b0316608082015260a00190565b93845260ff9290921660208401526040830152606082015260800190565b600060208252825180602084015261374d816040850160208701613df7565b601f01601f19169190910160400192915050565b60208082526018908201527f45434453413a20696e76616c6964207369676e61747572650000000000000000604082015260600190565b6020808252818101527f537472696e67733a20686578206c656e67746820696e73756666696369656e74604082015260600190565b6020808252601a908201527f44656669466163746f7279546f6b656e3a202172657761726473000000000000604082015260600190565b60208082526034908201527f44656669466163746f7279546f6b656e3a2021524f4c455f414c4c4f5745445f6040820152731513d7d4d1539117d5d212531157d4105554d15160621b606082015260800190565b60208082526017908201527f44656669466163746f7279546f6b656e3a202173656c66000000000000000000604082015260600190565b60208082526022908201527f45524332303a20617070726f766520746f20746865207a65726f206164647265604082015261737360f01b606082015260800190565b6020808252601d908201527f44656669466163746f7279546f6b656e3a2021524f4c455f5441584552000000604082015260600190565b6020808252601d908201527f44656669466163746f7279546f6b656e3a2021524f4c455f41444d494e000000604082015260600190565b6020808252601d908201527f45524332305065726d69743a206578706972656420646561646c696e65000000604082015260600190565b60208082526022908201527f45434453413a20696e76616c6964207369676e6174757265202773272076616c604082015261756560f01b606082015260800190565b60208082526019908201527f44656669466163746f7279546f6b656e3a2021616d6f756e7400000000000000604082015260600190565b6020808252601e908201527f44656669466163746f7279546f6b656e3a2021524f4c455f4255524e45520000604082015260600190565b60208082526022908201527f45434453413a20696e76616c6964207369676e6174757265202776272076616c604082015261756560f01b606082015260800190565b60208082526022908201527f44656669466163746f7279546f6b656e3a2021524f4c455f5452414e5346455260408201526122a960f11b606082015260800190565b6020808252601e908201527f45524332305065726d69743a20696e76616c6964207369676e61747572650000604082015260600190565b60208082526028908201527f45524332303a207472616e7366657220616d6f756e74206578636565647320616040820152676c6c6f77616e636560c01b606082015260800190565b60208082526024908201527f45524332303a20617070726f76652066726f6d20746865207a65726f206164646040820152637265737360e01b606082015260800190565b60208082526017908201527f44656669466163746f7279546f6b656e3a20216275726e000000000000000000604082015260600190565b60208082526023908201527f44656669466163746f7279546f6b656e3a202156455354494e475f434f4e54526040820152621050d560ea1b606082015260800190565b60208082526025908201527f45524332303a2064656372656173656420616c6c6f77616e63652062656c6f77604082015264207a65726f60d81b606082015260800190565b60208082526023908201527f44656669466163746f7279546f6b656e3a20616d6f756e742067742062616c616040820152626e636560e81b606082015260800190565b6020808252602f908201527f416363657373436f6e74726f6c3a2063616e206f6e6c792072656e6f756e636560408201526e103937b632b9903337b91039b2b63360891b606082015260800190565b6020808252601e908201527f44656669466163746f7279546f6b656e3a2021524f4c455f4d494e5445520000604082015260600190565b81516001600160a01b0390811682526020808401519091169082015260408083015190820152606080830151908201526080918201519181019190915260a00190565b918252602082015260400190565b60ff91909116815260200190565b604051601f8201601f1916810167ffffffffffffffff81118282101715613d7d57613d7d613ea4565b604052919050565b600067ffffffffffffffff821115613d9f57613d9f613ea4565b5060209081020190565b60008219821115613dbc57613dbc613e8e565b500190565b6000816000190483118215151615613ddb57613ddb613e8e565b500290565b600082821015613df257613df2613e8e565b500390565b60005b83811015613e12578181015183820152602001613dfa565b83811115613e21576000848401525b50505050565b600081613e3657613e36613e8e565b506000190190565b600281046001821680613e5257607f821691505b6020821081141561260457634e487b7160e01b600052602260045260246000fd5b6000600019821415613e8757613e87613e8e565b5060010190565b634e487b7160e01b600052601160045260246000fd5b634e487b7160e01b600052604160045260246000fd5b6001600160a01b038116811461099a57600080fdfeb5b5a86cc252b1b75a439c6ff372933ceb0690188924e6461150adeb00ab80d802a8464c3e212c8f1064432774c6cc3e76f14bd7ccdafd9a1d1cf9b43b51e5247e3bdf7d439d01bc1797194289ccfbb93f12c17efe2856c054735d4476425b4bddf252ad1be2c89b69c2b068fc378daa952ba7f163c4a11628f55a4df523b3ef5772712b2943d95a931c0b3a7ddf59cba41b664500d9b93626000a17809f04d1aeaef46186eb59f884e36929b6d682a6ae35e1e43d8f05f058dcefb92b601461a26469706673582212203e401d5cdd91efd5f3c629135574432f2dbe89bc8e7c5e12d33ce50706fcc02164736f6c63430008010033",
			"opcodes": "PUSH2 0x140 PUSH1 0x40 MSTORE PUSH32 0x6E71EDAE12B1B97F4D1F60370FEF10105FA2FAAE0126114A169C64845D6126C9 PUSH2 0x120 MSTORE CALLVALUE DUP1 ISZERO PUSH3 0x37 JUMPI PUSH1 0x0 DUP1 REVERT JUMPDEST POP PUSH1 0x40 MLOAD DUP1 PUSH1 0x40 ADD PUSH1 0x40 MSTORE DUP1 PUSH1 0xA DUP2 MSTORE PUSH1 0x20 ADD PUSH10 0x15195CDD0812D1115195 PUSH1 0xB2 SHL DUP2 MSTORE POP DUP1 PUSH1 0x40 MLOAD DUP1 PUSH1 0x40 ADD PUSH1 0x40 MSTORE DUP1 PUSH1 0x1 DUP2 MSTORE PUSH1 0x20 ADD PUSH1 0x31 PUSH1 0xF8 SHL DUP2 MSTORE POP PUSH1 0x40 MLOAD DUP1 PUSH1 0x40 ADD PUSH1 0x40 MSTORE DUP1 PUSH1 0xA DUP2 MSTORE PUSH1 0x20 ADD PUSH10 0x15195CDD0812D1115195 PUSH1 0xB2 SHL DUP2 MSTORE POP PUSH1 0x40 MLOAD DUP1 PUSH1 0x40 ADD PUSH1 0x40 MSTORE DUP1 PUSH1 0x9 DUP2 MSTORE PUSH1 0x20 ADD PUSH9 0x15195CDD12D1115195 PUSH1 0xBA SHL DUP2 MSTORE POP DUP2 PUSH1 0x4 SWAP1 DUP1 MLOAD SWAP1 PUSH1 0x20 ADD SWAP1 PUSH3 0xD3 SWAP3 SWAP2 SWAP1 PUSH3 0x421 JUMP JUMPDEST POP DUP1 MLOAD PUSH3 0xE9 SWAP1 PUSH1 0x5 SWAP1 PUSH1 0x20 DUP5 ADD SWAP1 PUSH3 0x421 JUMP JUMPDEST POP POP DUP3 MLOAD PUSH1 0x20 DUP1 DUP6 ADD SWAP2 SWAP1 SWAP2 KECCAK256 DUP4 MLOAD SWAP2 DUP5 ADD SWAP2 SWAP1 SWAP2 KECCAK256 PUSH1 0xC0 DUP3 SWAP1 MSTORE PUSH1 0xE0 DUP2 SWAP1 MSTORE CHAINID PUSH1 0xA0 MSTORE SWAP1 SWAP2 POP PUSH32 0x8B73C3C69BB8FE3D512ECC4CF759CC79239F7B179B0FFACAA9A75D522B39400F PUSH3 0x13E DUP2 DUP5 DUP5 PUSH3 0x254 JUMP JUMPDEST PUSH1 0x80 MSTORE PUSH2 0x100 MSTORE POP PUSH3 0x163 SWAP4 POP PUSH1 0x0 SWAP3 POP PUSH3 0x15D SWAP2 POP POP PUSH3 0x290 JUMP JUMPDEST PUSH3 0x294 JUMP JUMPDEST PUSH3 0x192 PUSH32 0xAEAEF46186EB59F884E36929B6D682A6AE35E1E43D8F05F058DCEFB92B601461 PUSH3 0x15D PUSH3 0x290 JUMP JUMPDEST PUSH3 0x1C1 PUSH32 0xB5B5A86CC252B1B75A439C6FF372933CEB0690188924E6461150ADEB00AB80D8 PUSH3 0x15D PUSH3 0x290 JUMP JUMPDEST PUSH3 0x1F0 PUSH32 0x2A8464C3E212C8F1064432774C6CC3E76F14BD7CCDAFD9A1D1CF9B43B51E524 PUSH3 0x15D PUSH3 0x290 JUMP JUMPDEST PUSH3 0x21F PUSH32 0x7E3BDF7D439D01BC1797194289CCFBB93F12C17EFE2856C054735D4476425B4B PUSH3 0x15D PUSH3 0x290 JUMP JUMPDEST PUSH3 0x24E PUSH32 0x5772712B2943D95A931C0B3A7DDF59CBA41B664500D9B93626000A17809F04D1 PUSH3 0x15D PUSH3 0x290 JUMP JUMPDEST PUSH3 0x530 JUMP JUMPDEST PUSH1 0x0 DUP4 DUP4 DUP4 CHAINID ADDRESS PUSH1 0x40 MLOAD PUSH1 0x20 ADD PUSH3 0x271 SWAP6 SWAP5 SWAP4 SWAP3 SWAP2 SWAP1 PUSH3 0x4C7 JUMP JUMPDEST PUSH1 0x40 MLOAD PUSH1 0x20 DUP2 DUP4 SUB SUB DUP2 MSTORE SWAP1 PUSH1 0x40 MSTORE DUP1 MLOAD SWAP1 PUSH1 0x20 ADD KECCAK256 SWAP1 POP SWAP4 SWAP3 POP POP POP JUMP JUMPDEST CALLER SWAP1 JUMP JUMPDEST PUSH3 0x2AB DUP3 DUP3 PUSH3 0x2D7 PUSH1 0x20 SHL PUSH3 0x1DB5 OR PUSH1 0x20 SHR JUMP JUMPDEST PUSH1 0x0 DUP3 DUP2 MSTORE PUSH1 0x1 PUSH1 0x20 SWAP1 DUP2 MSTORE PUSH1 0x40 SWAP1 SWAP2 KECCAK256 PUSH3 0x2D2 SWAP2 DUP4 SWAP1 PUSH3 0x1DBF PUSH3 0x2E7 DUP3 SHL OR SWAP1 SHR JUMP JUMPDEST POP POP POP JUMP JUMPDEST PUSH3 0x2E3 DUP3 DUP3 PUSH3 0x307 JUMP JUMPDEST POP POP JUMP JUMPDEST PUSH1 0x0 PUSH3 0x2FE DUP4 PUSH1 0x1 PUSH1 0x1 PUSH1 0xA0 SHL SUB DUP5 AND PUSH3 0x391 JUMP JUMPDEST SWAP1 POP JUMPDEST SWAP3 SWAP2 POP POP JUMP JUMPDEST PUSH3 0x313 DUP3 DUP3 PUSH3 0x3E0 JUMP JUMPDEST PUSH3 0x2E3 JUMPI PUSH1 0x0 DUP3 DUP2 MSTORE PUSH1 0x20 DUP2 DUP2 MSTORE PUSH1 0x40 DUP1 DUP4 KECCAK256 PUSH1 0x1 PUSH1 0x1 PUSH1 0xA0 SHL SUB DUP6 AND DUP5 MSTORE SWAP1 SWAP2 MSTORE SWAP1 KECCAK256 DUP1 SLOAD PUSH1 0xFF NOT AND PUSH1 0x1 OR SWAP1 SSTORE PUSH3 0x34D PUSH3 0x290 JUMP JUMPDEST PUSH1 0x1 PUSH1 0x1 PUSH1 0xA0 SHL SUB AND DUP2 PUSH1 0x1 PUSH1 0x1 PUSH1 0xA0 SHL SUB AND DUP4 PUSH32 0x2F8788117E7EFF1D82E926EC794901D17C78024A50270940304540A733656F0D PUSH1 0x40 MLOAD PUSH1 0x40 MLOAD DUP1 SWAP2 SUB SWAP1 LOG4 POP POP JUMP JUMPDEST PUSH1 0x0 PUSH3 0x39F DUP4 DUP4 PUSH3 0x409 JUMP JUMPDEST PUSH3 0x3D7 JUMPI POP DUP2 SLOAD PUSH1 0x1 DUP2 DUP2 ADD DUP5 SSTORE PUSH1 0x0 DUP5 DUP2 MSTORE PUSH1 0x20 DUP1 DUP3 KECCAK256 SWAP1 SWAP4 ADD DUP5 SWAP1 SSTORE DUP5 SLOAD DUP5 DUP3 MSTORE DUP3 DUP7 ADD SWAP1 SWAP4 MSTORE PUSH1 0x40 SWAP1 KECCAK256 SWAP2 SWAP1 SWAP2 SSTORE PUSH3 0x301 JUMP JUMPDEST POP PUSH1 0x0 PUSH3 0x301 JUMP JUMPDEST PUSH1 0x0 SWAP2 DUP3 MSTORE PUSH1 0x20 DUP3 DUP2 MSTORE PUSH1 0x40 DUP1 DUP5 KECCAK256 PUSH1 0x1 PUSH1 0x1 PUSH1 0xA0 SHL SUB SWAP4 SWAP1 SWAP4 AND DUP5 MSTORE SWAP2 SWAP1 MSTORE SWAP1 KECCAK256 SLOAD PUSH1 0xFF AND SWAP1 JUMP JUMPDEST PUSH1 0x0 SWAP1 DUP2 MSTORE PUSH1 0x1 SWAP2 SWAP1 SWAP2 ADD PUSH1 0x20 MSTORE PUSH1 0x40 SWAP1 KECCAK256 SLOAD ISZERO ISZERO SWAP1 JUMP JUMPDEST DUP3 DUP1 SLOAD PUSH3 0x42F SWAP1 PUSH3 0x4F3 JUMP JUMPDEST SWAP1 PUSH1 0x0 MSTORE PUSH1 0x20 PUSH1 0x0 KECCAK256 SWAP1 PUSH1 0x1F ADD PUSH1 0x20 SWAP1 DIV DUP2 ADD SWAP3 DUP3 PUSH3 0x453 JUMPI PUSH1 0x0 DUP6 SSTORE PUSH3 0x49E JUMP JUMPDEST DUP3 PUSH1 0x1F LT PUSH3 0x46E JUMPI DUP1 MLOAD PUSH1 0xFF NOT AND DUP4 DUP1 ADD OR DUP6 SSTORE PUSH3 0x49E JUMP JUMPDEST DUP3 DUP1 ADD PUSH1 0x1 ADD DUP6 SSTORE DUP3 ISZERO PUSH3 0x49E JUMPI SWAP2 DUP3 ADD JUMPDEST DUP3 DUP2 GT ISZERO PUSH3 0x49E JUMPI DUP3 MLOAD DUP3 SSTORE SWAP2 PUSH1 0x20 ADD SWAP2 SWAP1 PUSH1 0x1 ADD SWAP1 PUSH3 0x481 JUMP JUMPDEST POP PUSH3 0x4AC SWAP3 SWAP2 POP PUSH3 0x4B0 JUMP JUMPDEST POP SWAP1 JUMP JUMPDEST JUMPDEST DUP1 DUP3 GT ISZERO PUSH3 0x4AC JUMPI PUSH1 0x0 DUP2 SSTORE PUSH1 0x1 ADD PUSH3 0x4B1 JUMP JUMPDEST SWAP5 DUP6 MSTORE PUSH1 0x20 DUP6 ADD SWAP4 SWAP1 SWAP4 MSTORE PUSH1 0x40 DUP5 ADD SWAP2 SWAP1 SWAP2 MSTORE PUSH1 0x60 DUP4 ADD MSTORE PUSH1 0x1 PUSH1 0x1 PUSH1 0xA0 SHL SUB AND PUSH1 0x80 DUP3 ADD MSTORE PUSH1 0xA0 ADD SWAP1 JUMP JUMPDEST PUSH1 0x2 DUP2 DIV PUSH1 0x1 DUP3 AND DUP1 PUSH3 0x508 JUMPI PUSH1 0x7F DUP3 AND SWAP2 POP JUMPDEST PUSH1 0x20 DUP3 LT DUP2 EQ ISZERO PUSH3 0x52A JUMPI PUSH4 0x4E487B71 PUSH1 0xE0 SHL PUSH1 0x0 MSTORE PUSH1 0x22 PUSH1 0x4 MSTORE PUSH1 0x24 PUSH1 0x0 REVERT JUMPDEST POP SWAP2 SWAP1 POP JUMP JUMPDEST PUSH1 0x80 MLOAD PUSH1 0xA0 MLOAD PUSH1 0xC0 MLOAD PUSH1 0xE0 MLOAD PUSH2 0x100 MLOAD PUSH2 0x120 MLOAD PUSH2 0x3FC5 PUSH3 0x580 PUSH1 0x0 CODECOPY PUSH1 0x0 PUSH2 0x1C67 ADD MSTORE PUSH1 0x0 PUSH2 0x24F9 ADD MSTORE PUSH1 0x0 PUSH2 0x253B ADD MSTORE PUSH1 0x0 PUSH2 0x251A ADD MSTORE PUSH1 0x0 PUSH2 0x24A7 ADD MSTORE PUSH1 0x0 PUSH2 0x24D0 ADD MSTORE PUSH2 0x3FC5 PUSH1 0x0 RETURN INVALID PUSH1 0x80 PUSH1 0x40 MSTORE CALLVALUE DUP1 ISZERO PUSH2 0x10 JUMPI PUSH1 0x0 DUP1 REVERT JUMPDEST POP PUSH1 0x4 CALLDATASIZE LT PUSH2 0x29F JUMPI PUSH1 0x0 CALLDATALOAD PUSH1 0xE0 SHR DUP1 PUSH4 0x789210B3 GT PUSH2 0x167 JUMPI DUP1 PUSH4 0xA457C2D7 GT PUSH2 0xCE JUMPI DUP1 PUSH4 0xD391014B GT PUSH2 0x87 JUMPI DUP1 PUSH4 0xD391014B EQ PUSH2 0x58E JUMPI DUP1 PUSH4 0xD505ACCF EQ PUSH2 0x596 JUMPI DUP1 PUSH4 0xD547741F EQ PUSH2 0x5A9 JUMPI DUP1 PUSH4 0xD963F0CD EQ PUSH2 0x5BC JUMPI DUP1 PUSH4 0xDD62ED3E EQ PUSH2 0x5C4 JUMPI DUP1 PUSH4 0xEAF9D194 EQ PUSH2 0x5D7 JUMPI PUSH2 0x29F JUMP JUMPDEST DUP1 PUSH4 0xA457C2D7 EQ PUSH2 0x532 JUMPI DUP1 PUSH4 0xA9059CBB EQ PUSH2 0x545 JUMPI DUP1 PUSH4 0xB187BD26 EQ PUSH2 0x558 JUMPI DUP1 PUSH4 0xB492DA91 EQ PUSH2 0x560 JUMPI DUP1 PUSH4 0xC4BC5DA5 EQ PUSH2 0x573 JUMPI DUP1 PUSH4 0xCA15C873 EQ PUSH2 0x57B JUMPI PUSH2 0x29F JUMP JUMPDEST DUP1 PUSH4 0x9010D07C GT PUSH2 0x120 JUMPI DUP1 PUSH4 0x9010D07C EQ PUSH2 0x4E1 JUMPI DUP1 PUSH4 0x91D14854 EQ PUSH2 0x4F4 JUMPI DUP1 PUSH4 0x92AFC33A EQ PUSH2 0x507 JUMPI DUP1 PUSH4 0x95D89B41 EQ PUSH2 0x50F JUMPI DUP1 PUSH4 0x97C1D32F EQ PUSH2 0x517 JUMPI DUP1 PUSH4 0x9CFF2EBA EQ PUSH2 0x51F JUMPI PUSH2 0x29F JUMP JUMPDEST DUP1 PUSH4 0x789210B3 EQ PUSH2 0x46D JUMPI DUP1 PUSH4 0x7ECEBE00 EQ PUSH2 0x480 JUMPI DUP1 PUSH4 0x82E17B65 EQ PUSH2 0x493 JUMPI DUP1 PUSH4 0x8493712A EQ PUSH2 0x4B3 JUMPI DUP1 PUSH4 0x87B4BF75 EQ PUSH2 0x4BB JUMPI DUP1 PUSH4 0x8CBFEB0C EQ PUSH2 0x4CE JUMPI PUSH2 0x29F JUMP JUMPDEST DUP1 PUSH4 0x2F2FF15D GT PUSH2 0x20B JUMPI DUP1 PUSH4 0x439766CE GT PUSH2 0x1C4 JUMPI DUP1 PUSH4 0x439766CE EQ PUSH2 0x404 JUMPI DUP1 PUSH4 0x4ABD991D EQ PUSH2 0x40C JUMPI DUP1 PUSH4 0x54FF02D8 EQ PUSH2 0x41F JUMPI DUP1 PUSH4 0x5AACFA5D EQ PUSH2 0x427 JUMPI DUP1 PUSH4 0x68A2972F EQ PUSH2 0x43A JUMPI DUP1 PUSH4 0x70A08231 EQ PUSH2 0x45A JUMPI PUSH2 0x29F JUMP JUMPDEST DUP1 PUSH4 0x2F2FF15D EQ PUSH2 0x3A6 JUMPI DUP1 PUSH4 0x313CE567 EQ PUSH2 0x3B9 JUMPI DUP1 PUSH4 0x3408E470 EQ PUSH2 0x3CE JUMPI DUP1 PUSH4 0x3644E515 EQ PUSH2 0x3D6 JUMPI DUP1 PUSH4 0x36568ABE EQ PUSH2 0x3DE JUMPI DUP1 PUSH4 0x39509351 EQ PUSH2 0x3F1 JUMPI PUSH2 0x29F JUMP JUMPDEST DUP1 PUSH4 0x18160DDD GT PUSH2 0x25D JUMPI DUP1 PUSH4 0x18160DDD EQ PUSH2 0x34A JUMPI DUP1 PUSH4 0x18A8AD87 EQ PUSH2 0x352 JUMPI DUP1 PUSH4 0x1BF73B72 EQ PUSH2 0x365 JUMPI DUP1 PUSH4 0x209AB711 EQ PUSH2 0x36D JUMPI DUP1 PUSH4 0x23B872DD EQ PUSH2 0x380 JUMPI DUP1 PUSH4 0x248A9CA3 EQ PUSH2 0x393 JUMPI PUSH2 0x29F JUMP JUMPDEST DUP1 PUSH3 0x245783 EQ PUSH2 0x2A4 JUMPI DUP1 PUSH4 0x1FFC9A7 EQ PUSH2 0x2CD JUMPI DUP1 PUSH4 0x6FB1A07 EQ PUSH2 0x2ED JUMPI DUP1 PUSH4 0x6FDDE03 EQ PUSH2 0x30D JUMPI DUP1 PUSH4 0x95EA7B3 EQ PUSH2 0x322 JUMPI DUP1 PUSH4 0xBB9FF5D EQ PUSH2 0x335 JUMPI JUMPDEST PUSH1 0x0 DUP1 REVERT JUMPDEST PUSH2 0x2B7 PUSH2 0x2B2 CALLDATASIZE PUSH1 0x4 PUSH2 0x2EF1 JUMP JUMPDEST PUSH2 0x5EA JUMP JUMPDEST PUSH1 0x40 MLOAD PUSH2 0x2C4 SWAP2 SWAP1 PUSH2 0x36A7 JUMP JUMPDEST PUSH1 0x40 MLOAD DUP1 SWAP2 SUB SWAP1 RETURN JUMPDEST PUSH2 0x2E0 PUSH2 0x2DB CALLDATASIZE PUSH1 0x4 PUSH2 0x32AF JUMP JUMPDEST PUSH2 0x6A6 JUMP JUMPDEST PUSH1 0x40 MLOAD PUSH2 0x2C4 SWAP2 SWAP1 PUSH2 0x367B JUMP JUMPDEST PUSH2 0x300 PUSH2 0x2FB CALLDATASIZE PUSH1 0x4 PUSH2 0x3252 JUMP JUMPDEST PUSH2 0x6D3 JUMP JUMPDEST PUSH1 0x40 MLOAD PUSH2 0x2C4 SWAP2 SWAP1 PUSH2 0x3484 JUMP JUMPDEST PUSH2 0x315 PUSH2 0x711 JUMP JUMPDEST PUSH1 0x40 MLOAD PUSH2 0x2C4 SWAP2 SWAP1 PUSH2 0x372E JUMP JUMPDEST PUSH2 0x2E0 PUSH2 0x330 CALLDATASIZE PUSH1 0x4 PUSH2 0x2F44 JUMP JUMPDEST PUSH2 0x7A4 JUMP JUMPDEST PUSH2 0x348 PUSH2 0x343 CALLDATASIZE PUSH1 0x4 PUSH2 0x2F44 JUMP JUMPDEST PUSH2 0x7C2 JUMP JUMPDEST STOP JUMPDEST PUSH2 0x2B7 PUSH2 0x80F JUMP JUMPDEST PUSH2 0x348 PUSH2 0x360 CALLDATASIZE PUSH1 0x4 PUSH2 0x2F44 JUMP JUMPDEST PUSH2 0x8B9 JUMP JUMPDEST PUSH2 0x2B7 PUSH2 0x8F9 JUMP JUMPDEST PUSH2 0x348 PUSH2 0x37B CALLDATASIZE PUSH1 0x4 PUSH2 0x2DE8 JUMP JUMPDEST PUSH2 0x8FF JUMP JUMPDEST PUSH2 0x2E0 PUSH2 0x38E CALLDATASIZE PUSH1 0x4 PUSH2 0x2E3C JUMP JUMPDEST PUSH2 0x99D JUMP JUMPDEST PUSH2 0x2B7 PUSH2 0x3A1 CALLDATASIZE PUSH1 0x4 PUSH2 0x3252 JUMP JUMPDEST PUSH2 0xA34 JUMP JUMPDEST PUSH2 0x348 PUSH2 0x3B4 CALLDATASIZE PUSH1 0x4 PUSH2 0x326A JUMP JUMPDEST PUSH2 0xA49 JUMP JUMPDEST PUSH2 0x3C1 PUSH2 0xA70 JUMP JUMPDEST PUSH1 0x40 MLOAD PUSH2 0x2C4 SWAP2 SWAP1 PUSH2 0x3D46 JUMP JUMPDEST PUSH2 0x2B7 PUSH2 0xA75 JUMP JUMPDEST PUSH2 0x2B7 PUSH2 0xA79 JUMP JUMPDEST PUSH2 0x348 PUSH2 0x3EC CALLDATASIZE PUSH1 0x4 PUSH2 0x326A JUMP JUMPDEST PUSH2 0xA83 JUMP JUMPDEST PUSH2 0x2E0 PUSH2 0x3FF CALLDATASIZE PUSH1 0x4 PUSH2 0x2F44 JUMP JUMPDEST PUSH2 0xAA5 JUMP JUMPDEST PUSH2 0x348 PUSH2 0xAF4 JUMP JUMPDEST PUSH2 0x2B7 PUSH2 0x41A CALLDATASIZE PUSH1 0x4 PUSH2 0x2DE8 JUMP JUMPDEST PUSH2 0xB2C JUMP JUMPDEST PUSH2 0x2B7 PUSH2 0xBE4 JUMP JUMPDEST PUSH2 0x348 PUSH2 0x435 CALLDATASIZE PUSH1 0x4 PUSH2 0x2F6F JUMP JUMPDEST PUSH2 0xBF6 JUMP JUMPDEST PUSH2 0x44D PUSH2 0x448 CALLDATASIZE PUSH1 0x4 PUSH2 0x2F6F JUMP JUMPDEST PUSH2 0xE43 JUMP JUMPDEST PUSH1 0x40 MLOAD PUSH2 0x2C4 SWAP2 SWAP1 PUSH2 0x3623 JUMP JUMPDEST PUSH2 0x2B7 PUSH2 0x468 CALLDATASIZE PUSH1 0x4 PUSH2 0x2DE8 JUMP JUMPDEST PUSH2 0xF03 JUMP JUMPDEST PUSH2 0x348 PUSH2 0x47B CALLDATASIZE PUSH1 0x4 PUSH2 0x304D JUMP JUMPDEST PUSH2 0xFC0 JUMP JUMPDEST PUSH2 0x2B7 PUSH2 0x48E CALLDATASIZE PUSH1 0x4 PUSH2 0x2DE8 JUMP JUMPDEST PUSH2 0x1436 JUMP JUMPDEST PUSH2 0x4A6 PUSH2 0x4A1 CALLDATASIZE PUSH1 0x4 PUSH2 0x2F6F JUMP JUMPDEST PUSH2 0x1457 JUMP JUMPDEST PUSH1 0x40 MLOAD PUSH2 0x2C4 SWAP2 SWAP1 PUSH2 0x3528 JUMP JUMPDEST PUSH2 0x2B7 PUSH2 0x150F JUMP JUMPDEST PUSH2 0x348 PUSH2 0x4C9 CALLDATASIZE PUSH1 0x4 PUSH2 0x30BD JUMP JUMPDEST PUSH2 0x1521 JUMP JUMPDEST PUSH2 0x348 PUSH2 0x4DC CALLDATASIZE PUSH1 0x4 PUSH2 0x2F44 JUMP JUMPDEST PUSH2 0x162E JUMP JUMPDEST PUSH2 0x300 PUSH2 0x4EF CALLDATASIZE PUSH1 0x4 PUSH2 0x328E JUMP JUMPDEST PUSH2 0x18AC JUMP JUMPDEST PUSH2 0x2E0 PUSH2 0x502 CALLDATASIZE PUSH1 0x4 PUSH2 0x326A JUMP JUMPDEST PUSH2 0x18C4 JUMP JUMPDEST PUSH2 0x2B7 PUSH2 0x18ED JUMP JUMPDEST PUSH2 0x315 PUSH2 0x18FF JUMP JUMPDEST PUSH2 0x2B7 PUSH2 0x190E JUMP JUMPDEST PUSH2 0x348 PUSH2 0x52D CALLDATASIZE PUSH1 0x4 PUSH2 0x2E3C JUMP JUMPDEST PUSH2 0x1920 JUMP JUMPDEST PUSH2 0x2E0 PUSH2 0x540 CALLDATASIZE PUSH1 0x4 PUSH2 0x2F44 JUMP JUMPDEST PUSH2 0x19EA JUMP JUMPDEST PUSH2 0x2E0 PUSH2 0x553 CALLDATASIZE PUSH1 0x4 PUSH2 0x2F44 JUMP JUMPDEST PUSH2 0x1A65 JUMP JUMPDEST PUSH2 0x2E0 PUSH2 0x1A79 JUMP JUMPDEST PUSH2 0x348 PUSH2 0x56E CALLDATASIZE PUSH1 0x4 PUSH2 0x2F44 JUMP JUMPDEST PUSH2 0x1A82 JUMP JUMPDEST PUSH2 0x348 PUSH2 0x1BF2 JUMP JUMPDEST PUSH2 0x2B7 PUSH2 0x589 CALLDATASIZE PUSH1 0x4 PUSH2 0x3252 JUMP JUMPDEST PUSH2 0x1C27 JUMP JUMPDEST PUSH2 0x2B7 PUSH2 0x1C3E JUMP JUMPDEST PUSH2 0x348 PUSH2 0x5A4 CALLDATASIZE PUSH1 0x4 PUSH2 0x2E7C JUMP JUMPDEST PUSH2 0x1C43 JUMP JUMPDEST PUSH2 0x348 PUSH2 0x5B7 CALLDATASIZE PUSH1 0x4 PUSH2 0x326A JUMP JUMPDEST PUSH2 0x1D25 JUMP JUMPDEST PUSH2 0x2B7 PUSH2 0x1D2F JUMP JUMPDEST PUSH2 0x2B7 PUSH2 0x5D2 CALLDATASIZE PUSH1 0x4 PUSH2 0x2E04 JUMP JUMPDEST PUSH2 0x1D41 JUMP JUMPDEST PUSH2 0x348 PUSH2 0x5E5 CALLDATASIZE PUSH1 0x4 PUSH2 0x32D7 JUMP JUMPDEST PUSH2 0x1D6C JUMP JUMPDEST PUSH1 0x0 DUP1 PUSH1 0x7 PUSH1 0x0 DUP2 SLOAD DUP2 LT PUSH2 0x60F JUMPI PUSH4 0x4E487B71 PUSH1 0xE0 SHL PUSH1 0x0 MSTORE PUSH1 0x32 PUSH1 0x4 MSTORE PUSH1 0x24 PUSH1 0x0 REVERT JUMPDEST PUSH1 0x0 SWAP2 DUP3 MSTORE PUSH1 0x20 SWAP1 SWAP2 KECCAK256 ADD SLOAD PUSH1 0x40 MLOAD PUSH3 0x245783 PUSH1 0xE0 SHL DUP2 MSTORE PUSH1 0x1 PUSH1 0x1 PUSH1 0xA0 SHL SUB SWAP1 SWAP2 AND SWAP2 POP DUP2 SWAP1 PUSH3 0x245783 SWAP1 PUSH2 0x64D SWAP1 DUP9 SWAP1 DUP9 SWAP1 DUP9 SWAP1 PUSH1 0x4 ADD PUSH2 0x34D6 JUMP JUMPDEST PUSH1 0x20 PUSH1 0x40 MLOAD DUP1 DUP4 SUB DUP2 DUP7 DUP1 EXTCODESIZE ISZERO DUP1 ISZERO PUSH2 0x665 JUMPI PUSH1 0x0 DUP1 REVERT JUMPDEST POP GAS STATICCALL ISZERO DUP1 ISZERO PUSH2 0x679 JUMPI RETURNDATASIZE PUSH1 0x0 DUP1 RETURNDATACOPY RETURNDATASIZE PUSH1 0x0 REVERT JUMPDEST POP POP POP POP PUSH1 0x40 MLOAD RETURNDATASIZE PUSH1 0x1F NOT PUSH1 0x1F DUP3 ADD AND DUP3 ADD DUP1 PUSH1 0x40 MSTORE POP DUP2 ADD SWAP1 PUSH2 0x69D SWAP2 SWAP1 PUSH2 0x3387 JUMP JUMPDEST SWAP6 SWAP5 POP POP POP POP POP JUMP JUMPDEST PUSH1 0x0 PUSH1 0x1 PUSH1 0x1 PUSH1 0xE0 SHL SUB NOT DUP3 AND PUSH4 0x5A05180F PUSH1 0xE0 SHL EQ DUP1 PUSH2 0x6CB JUMPI POP PUSH2 0x6CB DUP3 PUSH2 0x1DD4 JUMP JUMPDEST SWAP1 POP JUMPDEST SWAP2 SWAP1 POP JUMP JUMPDEST PUSH1 0x0 PUSH1 0x7 DUP3 DUP2 SLOAD DUP2 LT PUSH2 0x6F6 JUMPI PUSH4 0x4E487B71 PUSH1 0xE0 SHL PUSH1 0x0 MSTORE PUSH1 0x32 PUSH1 0x4 MSTORE PUSH1 0x24 PUSH1 0x0 REVERT JUMPDEST PUSH1 0x0 SWAP2 DUP3 MSTORE PUSH1 0x20 SWAP1 SWAP2 KECCAK256 ADD SLOAD PUSH1 0x1 PUSH1 0x1 PUSH1 0xA0 SHL SUB AND SWAP3 SWAP2 POP POP JUMP JUMPDEST PUSH1 0x60 PUSH1 0x4 DUP1 SLOAD PUSH2 0x720 SWAP1 PUSH2 0x3E3E JUMP JUMPDEST DUP1 PUSH1 0x1F ADD PUSH1 0x20 DUP1 SWAP2 DIV MUL PUSH1 0x20 ADD PUSH1 0x40 MLOAD SWAP1 DUP2 ADD PUSH1 0x40 MSTORE DUP1 SWAP3 SWAP2 SWAP1 DUP2 DUP2 MSTORE PUSH1 0x20 ADD DUP3 DUP1 SLOAD PUSH2 0x74C SWAP1 PUSH2 0x3E3E JUMP JUMPDEST DUP1 ISZERO PUSH2 0x799 JUMPI DUP1 PUSH1 0x1F LT PUSH2 0x76E JUMPI PUSH2 0x100 DUP1 DUP4 SLOAD DIV MUL DUP4 MSTORE SWAP2 PUSH1 0x20 ADD SWAP2 PUSH2 0x799 JUMP JUMPDEST DUP3 ADD SWAP2 SWAP1 PUSH1 0x0 MSTORE PUSH1 0x20 PUSH1 0x0 KECCAK256 SWAP1 JUMPDEST DUP2 SLOAD DUP2 MSTORE SWAP1 PUSH1 0x1 ADD SWAP1 PUSH1 0x20 ADD DUP1 DUP4 GT PUSH2 0x77C JUMPI DUP3 SWAP1 SUB PUSH1 0x1F AND DUP3 ADD SWAP2 JUMPDEST POP POP POP POP POP SWAP1 POP JUMPDEST SWAP1 JUMP JUMPDEST PUSH1 0x0 PUSH2 0x7B8 PUSH2 0x7B1 PUSH2 0x1DF9 JUMP JUMPDEST DUP5 DUP5 PUSH2 0x1DFD JUMP JUMPDEST POP PUSH1 0x1 JUMPDEST SWAP3 SWAP2 POP POP JUMP JUMPDEST PUSH2 0x7DC PUSH1 0x0 DUP1 MLOAD PUSH1 0x20 PUSH2 0x3F70 DUP4 CODECOPY DUP2 MLOAD SWAP2 MSTORE PUSH2 0x502 PUSH2 0x1DF9 JUMP JUMPDEST PUSH2 0x801 JUMPI PUSH1 0x40 MLOAD PUSH3 0x461BCD PUSH1 0xE5 SHL DUP2 MSTORE PUSH1 0x4 ADD PUSH2 0x7F8 SWAP1 PUSH2 0x3CBE JUMP JUMPDEST PUSH1 0x40 MLOAD DUP1 SWAP2 SUB SWAP1 REVERT JUMPDEST PUSH2 0x80B DUP3 DUP3 PUSH2 0x1EB1 JUMP JUMPDEST POP POP JUMP JUMPDEST PUSH1 0x0 PUSH1 0x7 PUSH1 0x0 DUP2 SLOAD DUP2 LT PUSH2 0x833 JUMPI PUSH4 0x4E487B71 PUSH1 0xE0 SHL PUSH1 0x0 MSTORE PUSH1 0x32 PUSH1 0x4 MSTORE PUSH1 0x24 PUSH1 0x0 REVERT JUMPDEST PUSH1 0x0 SWAP2 DUP3 MSTORE PUSH1 0x20 SWAP2 DUP3 SWAP1 KECCAK256 ADD SLOAD PUSH1 0x40 DUP1 MLOAD PUSH4 0x62720D91 PUSH1 0xE1 SHL DUP2 MSTORE SWAP1 MLOAD PUSH1 0x1 PUSH1 0x1 PUSH1 0xA0 SHL SUB SWAP1 SWAP3 AND SWAP3 PUSH4 0xC4E41B22 SWAP3 PUSH1 0x4 DUP1 DUP5 ADD SWAP4 DUP3 SWAP1 SUB ADD DUP2 DUP7 DUP1 EXTCODESIZE ISZERO DUP1 ISZERO PUSH2 0x87C JUMPI PUSH1 0x0 DUP1 REVERT JUMPDEST POP GAS STATICCALL ISZERO DUP1 ISZERO PUSH2 0x890 JUMPI RETURNDATASIZE PUSH1 0x0 DUP1 RETURNDATACOPY RETURNDATASIZE PUSH1 0x0 REVERT JUMPDEST POP POP POP POP PUSH1 0x40 MLOAD RETURNDATASIZE PUSH1 0x1F NOT PUSH1 0x1F DUP3 ADD AND DUP3 ADD DUP1 PUSH1 0x40 MSTORE POP DUP2 ADD SWAP1 PUSH2 0x8B4 SWAP2 SWAP1 PUSH2 0x3387 JUMP JUMPDEST SWAP1 POP SWAP1 JUMP JUMPDEST PUSH2 0x8D3 PUSH1 0x0 DUP1 MLOAD PUSH1 0x20 PUSH2 0x3ED0 DUP4 CODECOPY DUP2 MLOAD SWAP2 MSTORE PUSH2 0x502 PUSH2 0x1DF9 JUMP JUMPDEST PUSH2 0x8EF JUMPI PUSH1 0x40 MLOAD PUSH3 0x461BCD PUSH1 0xE5 SHL DUP2 MSTORE PUSH1 0x4 ADD PUSH2 0x7F8 SWAP1 PUSH2 0x39EF JUMP JUMPDEST PUSH2 0x80B DUP3 DUP3 PUSH2 0x2052 JUMP JUMPDEST PUSH1 0x7 SLOAD SWAP1 JUMP JUMPDEST PUSH1 0x0 PUSH1 0x7 PUSH1 0x0 DUP2 SLOAD DUP2 LT PUSH2 0x923 JUMPI PUSH4 0x4E487B71 PUSH1 0xE0 SHL PUSH1 0x0 MSTORE PUSH1 0x32 PUSH1 0x4 MSTORE PUSH1 0x24 PUSH1 0x0 REVERT JUMPDEST PUSH1 0x0 SWAP2 DUP3 MSTORE PUSH1 0x20 SWAP1 SWAP2 KECCAK256 ADD SLOAD PUSH1 0x1 PUSH1 0x1 PUSH1 0xA0 SHL SUB AND SWAP1 POP DUP1 PUSH4 0x5603B9F9 PUSH2 0x948 PUSH2 0x1DF9 JUMP JUMPDEST DUP5 PUSH1 0x40 MLOAD DUP4 PUSH4 0xFFFFFFFF AND PUSH1 0xE0 SHL DUP2 MSTORE PUSH1 0x4 ADD PUSH2 0x966 SWAP3 SWAP2 SWAP1 PUSH2 0x3498 JUMP JUMPDEST PUSH1 0x0 PUSH1 0x40 MLOAD DUP1 DUP4 SUB DUP2 PUSH1 0x0 DUP8 DUP1 EXTCODESIZE ISZERO DUP1 ISZERO PUSH2 0x980 JUMPI PUSH1 0x0 DUP1 REVERT JUMPDEST POP GAS CALL ISZERO DUP1 ISZERO PUSH2 0x994 JUMPI RETURNDATASIZE PUSH1 0x0 DUP1 RETURNDATACOPY RETURNDATASIZE PUSH1 0x0 REVERT JUMPDEST POP POP POP POP POP JUMPDEST POP JUMP JUMPDEST PUSH1 0x0 PUSH2 0x9AA DUP5 DUP5 DUP5 PUSH2 0x2226 JUMP JUMPDEST PUSH1 0x1 PUSH1 0x1 PUSH1 0xA0 SHL SUB DUP5 AND PUSH1 0x0 SWAP1 DUP2 MSTORE PUSH1 0x3 PUSH1 0x20 MSTORE PUSH1 0x40 DUP2 KECCAK256 DUP2 PUSH2 0x9CB PUSH2 0x1DF9 JUMP JUMPDEST PUSH1 0x1 PUSH1 0x1 PUSH1 0xA0 SHL SUB AND PUSH1 0x1 PUSH1 0x1 PUSH1 0xA0 SHL SUB AND DUP2 MSTORE PUSH1 0x20 ADD SWAP1 DUP2 MSTORE PUSH1 0x20 ADD PUSH1 0x0 KECCAK256 SLOAD SWAP1 POP DUP3 DUP2 LT ISZERO PUSH2 0xA0E JUMPI PUSH1 0x40 MLOAD PUSH3 0x461BCD PUSH1 0xE5 SHL DUP2 MSTORE PUSH1 0x4 ADD PUSH2 0x7F8 SWAP1 PUSH2 0x3AE1 JUMP JUMPDEST PUSH2 0xA29 DUP6 PUSH2 0xA1A PUSH2 0x1DF9 JUMP JUMPDEST PUSH2 0xA24 DUP7 DUP6 PUSH2 0x3DE0 JUMP JUMPDEST PUSH2 0x1DFD JUMP JUMPDEST POP PUSH1 0x1 SWAP5 SWAP4 POP POP POP POP JUMP JUMPDEST PUSH1 0x0 SWAP1 DUP2 MSTORE PUSH1 0x20 DUP2 SWAP1 MSTORE PUSH1 0x40 SWAP1 KECCAK256 PUSH1 0x1 ADD SLOAD SWAP1 JUMP JUMPDEST PUSH2 0xA53 DUP3 DUP3 PUSH2 0x247F JUMP JUMPDEST PUSH1 0x0 DUP3 DUP2 MSTORE PUSH1 0x1 PUSH1 0x20 MSTORE PUSH1 0x40 SWAP1 KECCAK256 PUSH2 0xA6B SWAP1 DUP3 PUSH2 0x1DBF JUMP JUMPDEST POP POP POP JUMP JUMPDEST PUSH1 0x12 SWAP1 JUMP JUMPDEST CHAINID SWAP1 JUMP JUMPDEST PUSH1 0x0 PUSH2 0x8B4 PUSH2 0x24A3 JUMP JUMPDEST PUSH2 0xA8D DUP3 DUP3 PUSH2 0x2566 JUMP JUMPDEST PUSH1 0x0 DUP3 DUP2 MSTORE PUSH1 0x1 PUSH1 0x20 MSTORE PUSH1 0x40 SWAP1 KECCAK256 PUSH2 0xA6B SWAP1 DUP3 PUSH2 0x25A8 JUMP JUMPDEST PUSH1 0x0 PUSH2 0x7B8 PUSH2 0xAB2 PUSH2 0x1DF9 JUMP JUMPDEST DUP5 DUP5 PUSH1 0x3 PUSH1 0x0 PUSH2 0xAC0 PUSH2 0x1DF9 JUMP JUMPDEST PUSH1 0x1 PUSH1 0x1 PUSH1 0xA0 SHL SUB SWAP1 DUP2 AND DUP3 MSTORE PUSH1 0x20 DUP1 DUP4 ADD SWAP4 SWAP1 SWAP4 MSTORE PUSH1 0x40 SWAP2 DUP3 ADD PUSH1 0x0 SWAP1 DUP2 KECCAK256 SWAP2 DUP12 AND DUP2 MSTORE SWAP3 MSTORE SWAP1 KECCAK256 SLOAD PUSH2 0xA24 SWAP2 SWAP1 PUSH2 0x3DA9 JUMP JUMPDEST PUSH2 0xB01 PUSH1 0x0 PUSH2 0x502 PUSH2 0x1DF9 JUMP JUMPDEST PUSH2 0xB1D JUMPI PUSH1 0x40 MLOAD PUSH3 0x461BCD PUSH1 0xE5 SHL DUP2 MSTORE PUSH1 0x4 ADD PUSH2 0x7F8 SWAP1 PUSH2 0x3908 JUMP JUMPDEST PUSH1 0x8 DUP1 SLOAD PUSH1 0xFF NOT AND PUSH1 0x1 OR SWAP1 SSTORE JUMP JUMPDEST PUSH1 0x0 DUP1 PUSH1 0x7 PUSH1 0x0 DUP2 SLOAD DUP2 LT PUSH2 0xB51 JUMPI PUSH4 0x4E487B71 PUSH1 0xE0 SHL PUSH1 0x0 MSTORE PUSH1 0x32 PUSH1 0x4 MSTORE PUSH1 0x24 PUSH1 0x0 REVERT JUMPDEST PUSH1 0x0 SWAP2 DUP3 MSTORE PUSH1 0x20 SWAP1 SWAP2 KECCAK256 ADD SLOAD PUSH1 0x40 MLOAD PUSH4 0x4ABD991D PUSH1 0xE0 SHL DUP2 MSTORE PUSH1 0x1 PUSH1 0x1 PUSH1 0xA0 SHL SUB SWAP1 SWAP2 AND SWAP2 POP DUP2 SWAP1 PUSH4 0x4ABD991D SWAP1 PUSH2 0xB8D SWAP1 DUP7 SWAP1 PUSH1 0x4 ADD PUSH2 0x3484 JUMP JUMPDEST PUSH1 0x20 PUSH1 0x40 MLOAD DUP1 DUP4 SUB DUP2 DUP7 DUP1 EXTCODESIZE ISZERO DUP1 ISZERO PUSH2 0xBA5 JUMPI PUSH1 0x0 DUP1 REVERT JUMPDEST POP GAS STATICCALL ISZERO DUP1 ISZERO PUSH2 0xBB9 JUMPI RETURNDATASIZE PUSH1 0x0 DUP1 RETURNDATACOPY RETURNDATASIZE PUSH1 0x0 REVERT JUMPDEST POP POP POP POP PUSH1 0x40 MLOAD RETURNDATASIZE PUSH1 0x1F NOT PUSH1 0x1F DUP3 ADD AND DUP3 ADD DUP1 PUSH1 0x40 MSTORE POP DUP2 ADD SWAP1 PUSH2 0xBDD SWAP2 SWAP1 PUSH2 0x3387 JUMP JUMPDEST SWAP4 SWAP3 POP POP POP JUMP JUMPDEST PUSH1 0x0 DUP1 MLOAD PUSH1 0x20 PUSH2 0x3ED0 DUP4 CODECOPY DUP2 MLOAD SWAP2 MSTORE DUP2 JUMP JUMPDEST PUSH1 0x8 SLOAD PUSH1 0xFF AND ISZERO DUP1 PUSH2 0xC1D JUMPI POP PUSH2 0xC1D PUSH1 0x0 DUP1 MLOAD PUSH1 0x20 PUSH2 0x3F10 DUP4 CODECOPY DUP2 MLOAD SWAP2 MSTORE PUSH2 0x502 PUSH2 0x1DF9 JUMP JUMPDEST DUP1 PUSH2 0xC30 JUMPI POP PUSH2 0xC30 PUSH1 0x0 PUSH2 0x502 PUSH2 0x1DF9 JUMP JUMPDEST PUSH2 0xC4C JUMPI PUSH1 0x40 MLOAD PUSH3 0x461BCD PUSH1 0xE5 SHL DUP2 MSTORE PUSH1 0x4 ADD PUSH2 0x7F8 SWAP1 PUSH2 0x3804 JUMP JUMPDEST PUSH1 0x0 PUSH1 0x7 PUSH1 0x0 DUP2 SLOAD DUP2 LT PUSH2 0xC70 JUMPI PUSH4 0x4E487B71 PUSH1 0xE0 SHL PUSH1 0x0 MSTORE PUSH1 0x32 PUSH1 0x4 MSTORE PUSH1 0x24 PUSH1 0x0 REVERT JUMPDEST PUSH1 0x0 SWAP2 DUP3 MSTORE PUSH1 0x20 SWAP1 SWAP2 KECCAK256 ADD SLOAD PUSH1 0x40 MLOAD PUSH4 0x1C182A8D PUSH1 0xE1 SHL DUP2 MSTORE PUSH1 0x1 PUSH1 0x1 PUSH1 0xA0 SHL SUB SWAP1 SWAP2 AND SWAP2 POP DUP2 SWAP1 PUSH4 0x3830551A SWAP1 PUSH2 0xCAE SWAP1 DUP7 SWAP1 DUP7 SWAP1 PUSH1 0x4 ADD PUSH2 0x3514 JUMP JUMPDEST PUSH1 0x0 PUSH1 0x40 MLOAD DUP1 DUP4 SUB DUP2 PUSH1 0x0 DUP8 DUP1 EXTCODESIZE ISZERO DUP1 ISZERO PUSH2 0xCC8 JUMPI PUSH1 0x0 DUP1 REVERT JUMPDEST POP GAS CALL ISZERO DUP1 ISZERO PUSH2 0xCDC JUMPI RETURNDATASIZE PUSH1 0x0 DUP1 RETURNDATACOPY RETURNDATASIZE PUSH1 0x0 REVERT JUMPDEST POP POP POP POP PUSH1 0x0 DUP2 PUSH1 0x1 PUSH1 0x1 PUSH1 0xA0 SHL SUB AND PUSH4 0x4ABD991D PUSH2 0xCF9 PUSH2 0x1DF9 JUMP JUMPDEST PUSH1 0x40 MLOAD DUP3 PUSH4 0xFFFFFFFF AND PUSH1 0xE0 SHL DUP2 MSTORE PUSH1 0x4 ADD PUSH2 0xD15 SWAP2 SWAP1 PUSH2 0x3484 JUMP JUMPDEST PUSH1 0x20 PUSH1 0x40 MLOAD DUP1 DUP4 SUB DUP2 DUP7 DUP1 EXTCODESIZE ISZERO DUP1 ISZERO PUSH2 0xD2D JUMPI PUSH1 0x0 DUP1 REVERT JUMPDEST POP GAS STATICCALL ISZERO DUP1 ISZERO PUSH2 0xD41 JUMPI RETURNDATASIZE PUSH1 0x0 DUP1 RETURNDATACOPY RETURNDATASIZE PUSH1 0x0 REVERT JUMPDEST POP POP POP POP PUSH1 0x40 MLOAD RETURNDATASIZE PUSH1 0x1F NOT PUSH1 0x1F DUP3 ADD AND DUP3 ADD DUP1 PUSH1 0x40 MSTORE POP DUP2 ADD SWAP1 PUSH2 0xD65 SWAP2 SWAP1 PUSH2 0x3387 JUMP JUMPDEST SWAP1 POP PUSH1 0x0 DUP2 GT PUSH2 0xD87 JUMPI PUSH1 0x40 MLOAD PUSH3 0x461BCD PUSH1 0xE5 SHL DUP2 MSTORE PUSH1 0x4 ADD PUSH2 0x7F8 SWAP1 PUSH2 0x37CD JUMP JUMPDEST DUP2 PUSH1 0x1 PUSH1 0x1 PUSH1 0xA0 SHL SUB AND PUSH4 0xE3556819 PUSH2 0xD9E PUSH2 0x1DF9 JUMP JUMPDEST PUSH1 0x40 MLOAD DUP3 PUSH4 0xFFFFFFFF AND PUSH1 0xE0 SHL DUP2 MSTORE PUSH1 0x4 ADD PUSH2 0xDBA SWAP2 SWAP1 PUSH2 0x3484 JUMP JUMPDEST PUSH1 0x0 PUSH1 0x40 MLOAD DUP1 DUP4 SUB DUP2 PUSH1 0x0 DUP8 DUP1 EXTCODESIZE ISZERO DUP1 ISZERO PUSH2 0xDD4 JUMPI PUSH1 0x0 DUP1 REVERT JUMPDEST POP GAS CALL ISZERO DUP1 ISZERO PUSH2 0xDE8 JUMPI RETURNDATASIZE PUSH1 0x0 DUP1 RETURNDATACOPY RETURNDATASIZE PUSH1 0x0 REVERT JUMPDEST POP POP POP POP PUSH2 0xDFD PUSH2 0xDF7 PUSH2 0x1DF9 JUMP JUMPDEST DUP3 PUSH2 0x1EB1 JUMP JUMPDEST PUSH32 0x5B166DA4C6BCFD67577F205AC2EE4EF2CE2E24D51237EAFB87F82DF73F03F614 PUSH2 0xE26 PUSH2 0x1DF9 JUMP JUMPDEST DUP3 PUSH1 0x40 MLOAD PUSH2 0xE35 SWAP3 SWAP2 SWAP1 PUSH2 0x34FB JUMP JUMPDEST PUSH1 0x40 MLOAD DUP1 SWAP2 SUB SWAP1 LOG1 POP POP POP POP JUMP JUMPDEST PUSH1 0x60 PUSH1 0x0 PUSH1 0x7 PUSH1 0x0 DUP2 SLOAD DUP2 LT PUSH2 0xE69 JUMPI PUSH4 0x4E487B71 PUSH1 0xE0 SHL PUSH1 0x0 MSTORE PUSH1 0x32 PUSH1 0x4 MSTORE PUSH1 0x24 PUSH1 0x0 REVERT JUMPDEST PUSH1 0x0 SWAP2 DUP3 MSTORE PUSH1 0x20 SWAP1 SWAP2 KECCAK256 ADD SLOAD PUSH1 0x40 MLOAD PUSH4 0x68A2972F PUSH1 0xE0 SHL DUP2 MSTORE PUSH1 0x1 PUSH1 0x1 PUSH1 0xA0 SHL SUB SWAP1 SWAP2 AND SWAP2 POP DUP2 SWAP1 PUSH4 0x68A2972F SWAP1 PUSH2 0xEA7 SWAP1 DUP8 SWAP1 DUP8 SWAP1 PUSH1 0x4 ADD PUSH2 0x3514 JUMP JUMPDEST PUSH1 0x0 PUSH1 0x40 MLOAD DUP1 DUP4 SUB DUP2 DUP7 DUP1 EXTCODESIZE ISZERO DUP1 ISZERO PUSH2 0xEBF JUMPI PUSH1 0x0 DUP1 REVERT JUMPDEST POP GAS STATICCALL ISZERO DUP1 ISZERO PUSH2 0xED3 JUMPI RETURNDATASIZE PUSH1 0x0 DUP1 RETURNDATACOPY RETURNDATASIZE PUSH1 0x0 REVERT JUMPDEST POP POP POP POP PUSH1 0x40 MLOAD RETURNDATASIZE PUSH1 0x0 DUP3 RETURNDATACOPY PUSH1 0x1F RETURNDATASIZE SWAP1 DUP2 ADD PUSH1 0x1F NOT AND DUP3 ADD PUSH1 0x40 MSTORE PUSH2 0xEFB SWAP2 SWAP1 DUP2 ADD SWAP1 PUSH2 0x3186 JUMP JUMPDEST SWAP5 SWAP4 POP POP POP POP JUMP JUMPDEST PUSH1 0x0 PUSH1 0x7 PUSH1 0x0 DUP2 SLOAD DUP2 LT PUSH2 0xF27 JUMPI PUSH4 0x4E487B71 PUSH1 0xE0 SHL PUSH1 0x0 MSTORE PUSH1 0x32 PUSH1 0x4 MSTORE PUSH1 0x24 PUSH1 0x0 REVERT JUMPDEST PUSH1 0x0 SWAP2 DUP3 MSTORE PUSH1 0x20 DUP1 DUP4 KECCAK256 SWAP1 SWAP2 ADD SLOAD PUSH1 0x1 PUSH1 0x1 PUSH1 0xA0 SHL SUB DUP6 DUP2 AND DUP5 MSTORE PUSH1 0x2 SWAP1 SWAP3 MSTORE PUSH1 0x40 SWAP3 DUP4 SWAP1 KECCAK256 SLOAD SWAP3 MLOAD PUSH3 0xAC13A1 PUSH1 0xE6 SHL DUP2 MSTORE SWAP2 AND SWAP2 PUSH4 0x2B04E840 SWAP2 PUSH2 0xF70 SWAP2 DUP7 SWAP2 PUSH1 0x4 ADD PUSH2 0x34FB JUMP JUMPDEST PUSH1 0x20 PUSH1 0x40 MLOAD DUP1 DUP4 SUB DUP2 DUP7 DUP1 EXTCODESIZE ISZERO DUP1 ISZERO PUSH2 0xF88 JUMPI PUSH1 0x0 DUP1 REVERT JUMPDEST POP GAS STATICCALL ISZERO DUP1 ISZERO PUSH2 0xF9C JUMPI RETURNDATASIZE PUSH1 0x0 DUP1 RETURNDATACOPY RETURNDATASIZE PUSH1 0x0 REVERT JUMPDEST POP POP POP POP PUSH1 0x40 MLOAD RETURNDATASIZE PUSH1 0x1F NOT PUSH1 0x1F DUP3 ADD AND DUP3 ADD DUP1 PUSH1 0x40 MSTORE POP DUP2 ADD SWAP1 PUSH2 0x6CB SWAP2 SWAP1 PUSH2 0x3387 JUMP JUMPDEST PUSH2 0xFCD PUSH1 0x0 PUSH2 0x502 PUSH2 0x1DF9 JUMP JUMPDEST PUSH2 0xFE9 JUMPI PUSH1 0x40 MLOAD PUSH3 0x461BCD PUSH1 0xE5 SHL DUP2 MSTORE PUSH1 0x4 ADD PUSH2 0x7F8 SWAP1 PUSH2 0x3908 JUMP JUMPDEST PUSH1 0x0 JUMPDEST PUSH1 0x7 SLOAD DUP2 LT ISZERO PUSH2 0x1121 JUMPI PUSH2 0x1043 PUSH1 0x0 DUP1 MLOAD PUSH1 0x20 PUSH2 0x3F70 DUP4 CODECOPY DUP2 MLOAD SWAP2 MSTORE PUSH1 0x7 DUP4 DUP2 SLOAD DUP2 LT PUSH2 0x1029 JUMPI PUSH4 0x4E487B71 PUSH1 0xE0 SHL PUSH1 0x0 MSTORE PUSH1 0x32 PUSH1 0x4 MSTORE PUSH1 0x24 PUSH1 0x0 REVERT JUMPDEST PUSH1 0x0 SWAP2 DUP3 MSTORE PUSH1 0x20 SWAP1 SWAP2 KECCAK256 ADD SLOAD PUSH1 0x1 PUSH1 0x1 PUSH1 0xA0 SHL SUB AND PUSH2 0x1D25 JUMP JUMPDEST PUSH2 0x1076 PUSH1 0x0 DUP1 MLOAD PUSH1 0x20 PUSH2 0x3ED0 DUP4 CODECOPY DUP2 MLOAD SWAP2 MSTORE PUSH1 0x7 DUP4 DUP2 SLOAD DUP2 LT PUSH2 0x1029 JUMPI PUSH4 0x4E487B71 PUSH1 0xE0 SHL PUSH1 0x0 MSTORE PUSH1 0x32 PUSH1 0x4 MSTORE PUSH1 0x24 PUSH1 0x0 REVERT JUMPDEST PUSH2 0x10A9 PUSH1 0x0 DUP1 MLOAD PUSH1 0x20 PUSH2 0x3EF0 DUP4 CODECOPY DUP2 MLOAD SWAP2 MSTORE PUSH1 0x7 DUP4 DUP2 SLOAD DUP2 LT PUSH2 0x1029 JUMPI PUSH4 0x4E487B71 PUSH1 0xE0 SHL PUSH1 0x0 MSTORE PUSH1 0x32 PUSH1 0x4 MSTORE PUSH1 0x24 PUSH1 0x0 REVERT JUMPDEST PUSH2 0x10DC PUSH1 0x0 DUP1 MLOAD PUSH1 0x20 PUSH2 0x3F10 DUP4 CODECOPY DUP2 MLOAD SWAP2 MSTORE PUSH1 0x7 DUP4 DUP2 SLOAD DUP2 LT PUSH2 0x1029 JUMPI PUSH4 0x4E487B71 PUSH1 0xE0 SHL PUSH1 0x0 MSTORE PUSH1 0x32 PUSH1 0x4 MSTORE PUSH1 0x24 PUSH1 0x0 REVERT JUMPDEST PUSH2 0x110F PUSH1 0x0 DUP1 MLOAD PUSH1 0x20 PUSH2 0x3F50 DUP4 CODECOPY DUP2 MLOAD SWAP2 MSTORE PUSH1 0x7 DUP4 DUP2 SLOAD DUP2 LT PUSH2 0x1029 JUMPI PUSH4 0x4E487B71 PUSH1 0xE0 SHL PUSH1 0x0 MSTORE PUSH1 0x32 PUSH1 0x4 MSTORE PUSH1 0x24 PUSH1 0x0 REVERT JUMPDEST DUP1 PUSH2 0x1119 DUP2 PUSH2 0x3E73 JUMP JUMPDEST SWAP2 POP POP PUSH2 0xFEC JUMP JUMPDEST POP PUSH2 0x112E PUSH1 0x7 PUSH1 0x0 PUSH2 0x2C8D JUMP JUMPDEST PUSH1 0x0 JUMPDEST DUP2 DUP2 LT ISZERO PUSH2 0x13F8 JUMPI DUP3 DUP3 DUP3 DUP2 DUP2 LT PUSH2 0x1159 JUMPI PUSH4 0x4E487B71 PUSH1 0xE0 SHL PUSH1 0x0 MSTORE PUSH1 0x32 PUSH1 0x4 MSTORE PUSH1 0x24 PUSH1 0x0 REVERT JUMPDEST PUSH2 0x116F SWAP3 PUSH1 0x20 PUSH1 0xC0 SWAP1 SWAP3 MUL ADD SWAP1 DUP2 ADD SWAP2 POP PUSH2 0x3238 JUMP JUMPDEST ISZERO PUSH2 0x11BE JUMPI PUSH2 0x11BE PUSH1 0x0 DUP1 MLOAD PUSH1 0x20 PUSH2 0x3F70 DUP4 CODECOPY DUP2 MLOAD SWAP2 MSTORE DUP5 DUP5 DUP5 DUP2 DUP2 LT PUSH2 0x11A6 JUMPI PUSH4 0x4E487B71 PUSH1 0xE0 SHL PUSH1 0x0 MSTORE PUSH1 0x32 PUSH1 0x4 MSTORE PUSH1 0x24 PUSH1 0x0 REVERT JUMPDEST SWAP1 POP PUSH1 0xC0 MUL ADD PUSH1 0xA0 ADD PUSH1 0x20 DUP2 ADD SWAP1 PUSH2 0x3B4 SWAP2 SWAP1 PUSH2 0x2DE8 JUMP JUMPDEST DUP3 DUP3 DUP3 DUP2 DUP2 LT PUSH2 0x11DE JUMPI PUSH4 0x4E487B71 PUSH1 0xE0 SHL PUSH1 0x0 MSTORE PUSH1 0x32 PUSH1 0x4 MSTORE PUSH1 0x24 PUSH1 0x0 REVERT JUMPDEST SWAP1 POP PUSH1 0xC0 MUL ADD PUSH1 0x20 ADD PUSH1 0x20 DUP2 ADD SWAP1 PUSH2 0x11F6 SWAP2 SWAP1 PUSH2 0x3238 JUMP JUMPDEST ISZERO PUSH2 0x122D JUMPI PUSH2 0x122D PUSH1 0x0 DUP1 MLOAD PUSH1 0x20 PUSH2 0x3ED0 DUP4 CODECOPY DUP2 MLOAD SWAP2 MSTORE DUP5 DUP5 DUP5 DUP2 DUP2 LT PUSH2 0x11A6 JUMPI PUSH4 0x4E487B71 PUSH1 0xE0 SHL PUSH1 0x0 MSTORE PUSH1 0x32 PUSH1 0x4 MSTORE PUSH1 0x24 PUSH1 0x0 REVERT JUMPDEST DUP3 DUP3 DUP3 DUP2 DUP2 LT PUSH2 0x124D JUMPI PUSH4 0x4E487B71 PUSH1 0xE0 SHL PUSH1 0x0 MSTORE PUSH1 0x32 PUSH1 0x4 MSTORE PUSH1 0x24 PUSH1 0x0 REVERT JUMPDEST SWAP1 POP PUSH1 0xC0 MUL ADD PUSH1 0x40 ADD PUSH1 0x20 DUP2 ADD SWAP1 PUSH2 0x1265 SWAP2 SWAP1 PUSH2 0x3238 JUMP JUMPDEST ISZERO PUSH2 0x129C JUMPI PUSH2 0x129C PUSH1 0x0 DUP1 MLOAD PUSH1 0x20 PUSH2 0x3EF0 DUP4 CODECOPY DUP2 MLOAD SWAP2 MSTORE DUP5 DUP5 DUP5 DUP2 DUP2 LT PUSH2 0x11A6 JUMPI PUSH4 0x4E487B71 PUSH1 0xE0 SHL PUSH1 0x0 MSTORE PUSH1 0x32 PUSH1 0x4 MSTORE PUSH1 0x24 PUSH1 0x0 REVERT JUMPDEST DUP3 DUP3 DUP3 DUP2 DUP2 LT PUSH2 0x12BC JUMPI PUSH4 0x4E487B71 PUSH1 0xE0 SHL PUSH1 0x0 MSTORE PUSH1 0x32 PUSH1 0x4 MSTORE PUSH1 0x24 PUSH1 0x0 REVERT JUMPDEST SWAP1 POP PUSH1 0xC0 MUL ADD PUSH1 0x60 ADD PUSH1 0x20 DUP2 ADD SWAP1 PUSH2 0x12D4 SWAP2 SWAP1 PUSH2 0x3238 JUMP JUMPDEST ISZERO PUSH2 0x130B JUMPI PUSH2 0x130B PUSH1 0x0 DUP1 MLOAD PUSH1 0x20 PUSH2 0x3F10 DUP4 CODECOPY DUP2 MLOAD SWAP2 MSTORE DUP5 DUP5 DUP5 DUP2 DUP2 LT PUSH2 0x11A6 JUMPI PUSH4 0x4E487B71 PUSH1 0xE0 SHL PUSH1 0x0 MSTORE PUSH1 0x32 PUSH1 0x4 MSTORE PUSH1 0x24 PUSH1 0x0 REVERT JUMPDEST DUP3 DUP3 DUP3 DUP2 DUP2 LT PUSH2 0x132B JUMPI PUSH4 0x4E487B71 PUSH1 0xE0 SHL PUSH1 0x0 MSTORE PUSH1 0x32 PUSH1 0x4 MSTORE PUSH1 0x24 PUSH1 0x0 REVERT JUMPDEST SWAP1 POP PUSH1 0xC0 MUL ADD PUSH1 0x80 ADD PUSH1 0x20 DUP2 ADD SWAP1 PUSH2 0x1343 SWAP2 SWAP1 PUSH2 0x3238 JUMP JUMPDEST ISZERO PUSH2 0x137A JUMPI PUSH2 0x137A PUSH1 0x0 DUP1 MLOAD PUSH1 0x20 PUSH2 0x3F50 DUP4 CODECOPY DUP2 MLOAD SWAP2 MSTORE DUP5 DUP5 DUP5 DUP2 DUP2 LT PUSH2 0x11A6 JUMPI PUSH4 0x4E487B71 PUSH1 0xE0 SHL PUSH1 0x0 MSTORE PUSH1 0x32 PUSH1 0x4 MSTORE PUSH1 0x24 PUSH1 0x0 REVERT JUMPDEST PUSH1 0x7 DUP4 DUP4 DUP4 DUP2 DUP2 LT PUSH2 0x139C JUMPI PUSH4 0x4E487B71 PUSH1 0xE0 SHL PUSH1 0x0 MSTORE PUSH1 0x32 PUSH1 0x4 MSTORE PUSH1 0x24 PUSH1 0x0 REVERT JUMPDEST SWAP1 POP PUSH1 0xC0 MUL ADD PUSH1 0xA0 ADD PUSH1 0x20 DUP2 ADD SWAP1 PUSH2 0x13B4 SWAP2 SWAP1 PUSH2 0x2DE8 JUMP JUMPDEST DUP2 SLOAD PUSH1 0x1 DUP2 ADD DUP4 SSTORE PUSH1 0x0 SWAP3 DUP4 MSTORE PUSH1 0x20 SWAP1 SWAP3 KECCAK256 SWAP1 SWAP2 ADD DUP1 SLOAD PUSH1 0x1 PUSH1 0x1 PUSH1 0xA0 SHL SUB NOT AND PUSH1 0x1 PUSH1 0x1 PUSH1 0xA0 SHL SUB SWAP1 SWAP3 AND SWAP2 SWAP1 SWAP2 OR SWAP1 SSTORE DUP1 PUSH2 0x13F0 DUP2 PUSH2 0x3E73 JUMP JUMPDEST SWAP2 POP POP PUSH2 0x1131 JUMP JUMPDEST POP PUSH32 0x13340C8E795B6B33898709AFDEE63A73DF74C7CA9D8204D3265AA483AC0E4037 DUP3 DUP3 PUSH1 0x40 MLOAD PUSH2 0x142A SWAP3 SWAP2 SWAP1 PUSH2 0x3575 JUMP JUMPDEST PUSH1 0x40 MLOAD DUP1 SWAP2 SUB SWAP1 LOG1 POP POP JUMP JUMPDEST PUSH1 0x1 PUSH1 0x1 PUSH1 0xA0 SHL SUB DUP2 AND PUSH1 0x0 SWAP1 DUP2 MSTORE PUSH1 0x6 PUSH1 0x20 MSTORE PUSH1 0x40 DUP2 KECCAK256 PUSH2 0x6CB SWAP1 PUSH2 0x25BD JUMP JUMPDEST PUSH1 0x60 PUSH1 0x0 PUSH1 0x7 PUSH1 0x0 DUP2 SLOAD DUP2 LT PUSH2 0x147D JUMPI PUSH4 0x4E487B71 PUSH1 0xE0 SHL PUSH1 0x0 MSTORE PUSH1 0x32 PUSH1 0x4 MSTORE PUSH1 0x24 PUSH1 0x0 REVERT JUMPDEST PUSH1 0x0 SWAP2 DUP3 MSTORE PUSH1 0x20 SWAP1 SWAP2 KECCAK256 ADD SLOAD PUSH1 0x40 MLOAD PUSH4 0x82E17B65 PUSH1 0xE0 SHL DUP2 MSTORE PUSH1 0x1 PUSH1 0x1 PUSH1 0xA0 SHL SUB SWAP1 SWAP2 AND SWAP2 POP DUP2 SWAP1 PUSH4 0x82E17B65 SWAP1 PUSH2 0x14BB SWAP1 DUP8 SWAP1 DUP8 SWAP1 PUSH1 0x4 ADD PUSH2 0x3514 JUMP JUMPDEST PUSH1 0x0 PUSH1 0x40 MLOAD DUP1 DUP4 SUB DUP2 DUP7 DUP1 EXTCODESIZE ISZERO DUP1 ISZERO PUSH2 0x14D3 JUMPI PUSH1 0x0 DUP1 REVERT JUMPDEST POP GAS STATICCALL ISZERO DUP1 ISZERO PUSH2 0x14E7 JUMPI RETURNDATASIZE PUSH1 0x0 DUP1 RETURNDATACOPY RETURNDATASIZE PUSH1 0x0 REVERT JUMPDEST POP POP POP POP PUSH1 0x40 MLOAD RETURNDATASIZE PUSH1 0x0 DUP3 RETURNDATACOPY PUSH1 0x1F RETURNDATASIZE SWAP1 DUP2 ADD PUSH1 0x1F NOT AND DUP3 ADD PUSH1 0x40 MSTORE PUSH2 0xEFB SWAP2 SWAP1 DUP2 ADD SWAP1 PUSH2 0x2FAF JUMP JUMPDEST PUSH1 0x0 DUP1 MLOAD PUSH1 0x20 PUSH2 0x3EF0 DUP4 CODECOPY DUP2 MLOAD SWAP2 MSTORE DUP2 JUMP JUMPDEST PUSH1 0x0 PUSH1 0x7 PUSH1 0x0 DUP2 SLOAD DUP2 LT PUSH2 0x1545 JUMPI PUSH4 0x4E487B71 PUSH1 0xE0 SHL PUSH1 0x0 MSTORE PUSH1 0x32 PUSH1 0x4 MSTORE PUSH1 0x24 PUSH1 0x0 REVERT JUMPDEST PUSH1 0x0 SWAP2 DUP3 MSTORE PUSH1 0x20 DUP3 KECCAK256 ADD SLOAD PUSH1 0x1 PUSH1 0x1 PUSH1 0xA0 SHL SUB AND SWAP2 POP JUMPDEST DUP3 MLOAD DUP2 LT ISZERO PUSH2 0xA6B JUMPI DUP2 PUSH1 0x1 PUSH1 0x1 PUSH1 0xA0 SHL SUB AND PUSH4 0x5603B9F9 DUP5 DUP4 DUP2 MLOAD DUP2 LT PUSH2 0x1594 JUMPI PUSH4 0x4E487B71 PUSH1 0xE0 SHL PUSH1 0x0 MSTORE PUSH1 0x32 PUSH1 0x4 MSTORE PUSH1 0x24 PUSH1 0x0 REVERT JUMPDEST PUSH1 0x20 MUL PUSH1 0x20 ADD ADD MLOAD PUSH1 0x0 ADD MLOAD DUP6 DUP5 DUP2 MLOAD DUP2 LT PUSH2 0x15C0 JUMPI PUSH4 0x4E487B71 PUSH1 0xE0 SHL PUSH1 0x0 MSTORE PUSH1 0x32 PUSH1 0x4 MSTORE PUSH1 0x24 PUSH1 0x0 REVERT JUMPDEST PUSH1 0x20 MUL PUSH1 0x20 ADD ADD MLOAD PUSH1 0x20 ADD MLOAD PUSH1 0x40 MLOAD DUP4 PUSH4 0xFFFFFFFF AND PUSH1 0xE0 SHL DUP2 MSTORE PUSH1 0x4 ADD PUSH2 0x15E9 SWAP3 SWAP2 SWAP1 PUSH2 0x3498 JUMP JUMPDEST PUSH1 0x0 PUSH1 0x40 MLOAD DUP1 DUP4 SUB DUP2 PUSH1 0x0 DUP8 DUP1 EXTCODESIZE ISZERO DUP1 ISZERO PUSH2 0x1603 JUMPI PUSH1 0x0 DUP1 REVERT JUMPDEST POP GAS CALL ISZERO DUP1 ISZERO PUSH2 0x1617 JUMPI RETURNDATASIZE PUSH1 0x0 DUP1 RETURNDATACOPY RETURNDATASIZE PUSH1 0x0 REVERT JUMPDEST POP POP POP POP DUP1 DUP1 PUSH2 0x1626 SWAP1 PUSH2 0x3E73 JUMP JUMPDEST SWAP2 POP POP PUSH2 0x155C JUMP JUMPDEST PUSH1 0x8 SLOAD PUSH1 0xFF AND ISZERO DUP1 PUSH2 0x1655 JUMPI POP PUSH2 0x1655 PUSH1 0x0 DUP1 MLOAD PUSH1 0x20 PUSH2 0x3F10 DUP4 CODECOPY DUP2 MLOAD SWAP2 MSTORE PUSH2 0x502 PUSH2 0x1DF9 JUMP JUMPDEST DUP1 PUSH2 0x1668 JUMPI POP PUSH2 0x1668 PUSH1 0x0 PUSH2 0x502 PUSH2 0x1DF9 JUMP JUMPDEST PUSH2 0x1684 JUMPI PUSH1 0x40 MLOAD PUSH3 0x461BCD PUSH1 0xE5 SHL DUP2 MSTORE PUSH1 0x4 ADD PUSH2 0x7F8 SWAP1 PUSH2 0x3804 JUMP JUMPDEST PUSH1 0x0 PUSH1 0x7 PUSH1 0x1 DUP2 SLOAD DUP2 LT PUSH2 0x16A8 JUMPI PUSH4 0x4E487B71 PUSH1 0xE0 SHL PUSH1 0x0 MSTORE PUSH1 0x32 PUSH1 0x4 MSTORE PUSH1 0x24 PUSH1 0x0 REVERT JUMPDEST PUSH1 0x0 SWAP2 DUP3 MSTORE PUSH1 0x20 SWAP1 SWAP2 KECCAK256 ADD SLOAD PUSH1 0x1 PUSH1 0x1 PUSH1 0xA0 SHL SUB AND SWAP1 POP PUSH2 0x16C7 PUSH2 0x1DF9 JUMP JUMPDEST PUSH1 0x1 PUSH1 0x1 PUSH1 0xA0 SHL SUB AND DUP2 PUSH1 0x1 PUSH1 0x1 PUSH1 0xA0 SHL SUB AND EQ PUSH2 0x16F7 JUMPI PUSH1 0x40 MLOAD PUSH3 0x461BCD PUSH1 0xE5 SHL DUP2 MSTORE PUSH1 0x4 ADD PUSH2 0x7F8 SWAP1 PUSH2 0x3BA4 JUMP JUMPDEST PUSH1 0x1 PUSH1 0x1 PUSH1 0xA0 SHL SUB DUP2 AND PUSH1 0x0 SWAP1 DUP2 MSTORE PUSH1 0x2 PUSH1 0x20 MSTORE PUSH1 0x40 SWAP1 KECCAK256 SLOAD DUP3 GT ISZERO PUSH2 0x172F JUMPI PUSH1 0x40 MLOAD PUSH3 0x461BCD PUSH1 0xE5 SHL DUP2 MSTORE PUSH1 0x4 ADD PUSH2 0x7F8 SWAP1 PUSH2 0x39B8 JUMP JUMPDEST PUSH1 0x1 PUSH1 0x1 PUSH1 0xA0 SHL SUB DUP2 AND PUSH1 0x0 SWAP1 DUP2 MSTORE PUSH1 0x2 PUSH1 0x20 MSTORE PUSH1 0x40 DUP2 KECCAK256 DUP1 SLOAD DUP5 SWAP3 SWAP1 PUSH2 0x1757 SWAP1 DUP5 SWAP1 PUSH2 0x3DE0 JUMP JUMPDEST SWAP1 SWAP2 SSTORE POP POP PUSH1 0x7 DUP1 SLOAD PUSH1 0x0 SWAP1 PUSH2 0x177D JUMPI PUSH4 0x4E487B71 PUSH1 0xE0 SHL PUSH1 0x0 MSTORE PUSH1 0x32 PUSH1 0x4 MSTORE PUSH1 0x24 PUSH1 0x0 REVERT JUMPDEST PUSH1 0x0 SWAP2 DUP3 MSTORE PUSH1 0x20 SWAP1 SWAP2 KECCAK256 ADD SLOAD PUSH1 0x40 MLOAD PUSH4 0xCB123637 PUSH1 0xE0 SHL DUP2 MSTORE PUSH1 0x1 PUSH1 0x1 PUSH1 0xA0 SHL SUB SWAP1 SWAP2 AND SWAP1 PUSH4 0xCB123637 SWAP1 PUSH2 0x17B6 SWAP1 DUP6 SWAP1 PUSH1 0x4 ADD PUSH2 0x36A7 JUMP JUMPDEST PUSH1 0x20 PUSH1 0x40 MLOAD DUP1 DUP4 SUB DUP2 DUP7 DUP1 EXTCODESIZE ISZERO DUP1 ISZERO PUSH2 0x17CE JUMPI PUSH1 0x0 DUP1 REVERT JUMPDEST POP GAS STATICCALL ISZERO DUP1 ISZERO PUSH2 0x17E2 JUMPI RETURNDATASIZE PUSH1 0x0 DUP1 RETURNDATACOPY RETURNDATASIZE PUSH1 0x0 REVERT JUMPDEST POP POP POP POP PUSH1 0x40 MLOAD RETURNDATASIZE PUSH1 0x1F NOT PUSH1 0x1F DUP3 ADD AND DUP3 ADD DUP1 PUSH1 0x40 MSTORE POP DUP2 ADD SWAP1 PUSH2 0x1806 SWAP2 SWAP1 PUSH2 0x3387 JUMP JUMPDEST PUSH1 0x1 PUSH1 0x1 PUSH1 0xA0 SHL SUB DUP5 AND PUSH1 0x0 SWAP1 DUP2 MSTORE PUSH1 0x2 PUSH1 0x20 MSTORE PUSH1 0x40 DUP2 KECCAK256 DUP1 SLOAD SWAP1 SWAP2 SWAP1 PUSH2 0x182E SWAP1 DUP5 SWAP1 PUSH2 0x3DA9 JUMP JUMPDEST SWAP3 POP POP DUP2 SWAP1 SSTORE POP DUP3 PUSH1 0x1 PUSH1 0x1 PUSH1 0xA0 SHL SUB AND DUP2 PUSH1 0x1 PUSH1 0x1 PUSH1 0xA0 SHL SUB AND PUSH1 0x0 DUP1 MLOAD PUSH1 0x20 PUSH2 0x3F30 DUP4 CODECOPY DUP2 MLOAD SWAP2 MSTORE DUP5 PUSH1 0x40 MLOAD PUSH2 0x1866 SWAP2 SWAP1 PUSH2 0x36A7 JUMP JUMPDEST PUSH1 0x40 MLOAD DUP1 SWAP2 SUB SWAP1 LOG3 PUSH32 0x814F4CDE641F205FBAC4D156545EE0A5850D9338C94B952ACEC9852C0A528043 DUP4 DUP4 PUSH1 0x40 MLOAD PUSH2 0x189F SWAP3 SWAP2 SWAP1 PUSH2 0x34FB JUMP JUMPDEST PUSH1 0x40 MLOAD DUP1 SWAP2 SUB SWAP1 LOG1 POP POP POP JUMP JUMPDEST PUSH1 0x0 DUP3 DUP2 MSTORE PUSH1 0x1 PUSH1 0x20 MSTORE PUSH1 0x40 DUP2 KECCAK256 PUSH2 0xBDD SWAP1 DUP4 PUSH2 0x25C1 JUMP JUMPDEST PUSH1 0x0 SWAP2 DUP3 MSTORE PUSH1 0x20 DUP3 DUP2 MSTORE PUSH1 0x40 DUP1 DUP5 KECCAK256 PUSH1 0x1 PUSH1 0x1 PUSH1 0xA0 SHL SUB SWAP4 SWAP1 SWAP4 AND DUP5 MSTORE SWAP2 SWAP1 MSTORE SWAP1 KECCAK256 SLOAD PUSH1 0xFF AND SWAP1 JUMP JUMPDEST PUSH1 0x0 DUP1 MLOAD PUSH1 0x20 PUSH2 0x3F70 DUP4 CODECOPY DUP2 MLOAD SWAP2 MSTORE DUP2 JUMP JUMPDEST PUSH1 0x60 PUSH1 0x5 DUP1 SLOAD PUSH2 0x720 SWAP1 PUSH2 0x3E3E JUMP JUMPDEST PUSH1 0x0 DUP1 MLOAD PUSH1 0x20 PUSH2 0x3F50 DUP4 CODECOPY DUP2 MLOAD SWAP2 MSTORE DUP2 JUMP JUMPDEST PUSH1 0x8 SLOAD PUSH1 0xFF AND ISZERO DUP1 PUSH2 0x1947 JUMPI POP PUSH2 0x1947 PUSH1 0x0 DUP1 MLOAD PUSH1 0x20 PUSH2 0x3F10 DUP4 CODECOPY DUP2 MLOAD SWAP2 MSTORE PUSH2 0x502 PUSH2 0x1DF9 JUMP JUMPDEST DUP1 PUSH2 0x195A JUMPI POP PUSH2 0x195A PUSH1 0x0 PUSH2 0x502 PUSH2 0x1DF9 JUMP JUMPDEST PUSH2 0x1976 JUMPI PUSH1 0x40 MLOAD PUSH3 0x461BCD PUSH1 0xE5 SHL DUP2 MSTORE PUSH1 0x4 ADD PUSH2 0x7F8 SWAP1 PUSH2 0x3804 JUMP JUMPDEST PUSH2 0x1990 PUSH1 0x0 DUP1 MLOAD PUSH1 0x20 PUSH2 0x3EF0 DUP4 CODECOPY DUP2 MLOAD SWAP2 MSTORE PUSH2 0x502 PUSH2 0x1DF9 JUMP JUMPDEST PUSH2 0x19AC JUMPI PUSH1 0x40 MLOAD PUSH3 0x461BCD PUSH1 0xE5 SHL DUP2 MSTORE PUSH1 0x4 ADD PUSH2 0x7F8 SWAP1 PUSH2 0x3A68 JUMP JUMPDEST PUSH2 0x19B7 DUP4 DUP4 DUP4 PUSH2 0x2226 JUMP JUMPDEST PUSH32 0x4F21C37C3184C9B0BBC63A812B0A1A148F15F1BD6DB127E7E562D9B043680325 DUP4 DUP4 DUP4 PUSH1 0x40 MLOAD PUSH2 0x189F SWAP4 SWAP3 SWAP2 SWAP1 PUSH2 0x34B2 JUMP JUMPDEST PUSH1 0x0 DUP1 PUSH1 0x3 PUSH1 0x0 PUSH2 0x19F9 PUSH2 0x1DF9 JUMP JUMPDEST PUSH1 0x1 PUSH1 0x1 PUSH1 0xA0 SHL SUB SWAP1 DUP2 AND DUP3 MSTORE PUSH1 0x20 DUP1 DUP4 ADD SWAP4 SWAP1 SWAP4 MSTORE PUSH1 0x40 SWAP2 DUP3 ADD PUSH1 0x0 SWAP1 DUP2 KECCAK256 SWAP2 DUP9 AND DUP2 MSTORE SWAP3 MSTORE SWAP1 KECCAK256 SLOAD SWAP1 POP DUP3 DUP2 LT ISZERO PUSH2 0x1A45 JUMPI PUSH1 0x40 MLOAD PUSH3 0x461BCD PUSH1 0xE5 SHL DUP2 MSTORE PUSH1 0x4 ADD PUSH2 0x7F8 SWAP1 PUSH2 0x3BE7 JUMP JUMPDEST PUSH2 0x1A5B PUSH2 0x1A50 PUSH2 0x1DF9 JUMP JUMPDEST DUP6 PUSH2 0xA24 DUP7 DUP6 PUSH2 0x3DE0 JUMP JUMPDEST POP PUSH1 0x1 SWAP4 SWAP3 POP POP POP JUMP JUMPDEST PUSH1 0x0 PUSH2 0x7B8 PUSH2 0x1A72 PUSH2 0x1DF9 JUMP JUMPDEST DUP5 DUP5 PUSH2 0x2226 JUMP JUMPDEST PUSH1 0x8 SLOAD PUSH1 0xFF AND DUP2 JUMP JUMPDEST PUSH1 0x8 SLOAD PUSH1 0xFF AND ISZERO DUP1 PUSH2 0x1AA9 JUMPI POP PUSH2 0x1AA9 PUSH1 0x0 DUP1 MLOAD PUSH1 0x20 PUSH2 0x3F10 DUP4 CODECOPY DUP2 MLOAD SWAP2 MSTORE PUSH2 0x502 PUSH2 0x1DF9 JUMP JUMPDEST DUP1 PUSH2 0x1ABC JUMPI POP PUSH2 0x1ABC PUSH1 0x0 PUSH2 0x502 PUSH2 0x1DF9 JUMP JUMPDEST PUSH2 0x1AD8 JUMPI PUSH1 0x40 MLOAD PUSH3 0x461BCD PUSH1 0xE5 SHL DUP2 MSTORE PUSH1 0x4 ADD PUSH2 0x7F8 SWAP1 PUSH2 0x3804 JUMP JUMPDEST PUSH2 0x1AF2 PUSH1 0x0 DUP1 MLOAD PUSH1 0x20 PUSH2 0x3F50 DUP4 CODECOPY DUP2 MLOAD SWAP2 MSTORE PUSH2 0x502 PUSH2 0x1DF9 JUMP JUMPDEST PUSH2 0x1B0E JUMPI PUSH1 0x40 MLOAD PUSH3 0x461BCD PUSH1 0xE5 SHL DUP2 MSTORE PUSH1 0x4 ADD PUSH2 0x7F8 SWAP1 PUSH2 0x38D1 JUMP JUMPDEST PUSH1 0x0 PUSH1 0x7 PUSH1 0x0 DUP2 SLOAD DUP2 LT PUSH2 0x1B32 JUMPI PUSH4 0x4E487B71 PUSH1 0xE0 SHL PUSH1 0x0 MSTORE PUSH1 0x32 PUSH1 0x4 MSTORE PUSH1 0x24 PUSH1 0x0 REVERT JUMPDEST PUSH1 0x0 SWAP2 DUP3 MSTORE PUSH1 0x20 DUP1 DUP4 KECCAK256 SWAP1 SWAP2 ADD SLOAD PUSH1 0x1 PUSH1 0x1 PUSH1 0xA0 SHL SUB DUP7 DUP2 AND DUP5 MSTORE PUSH1 0x2 SWAP1 SWAP3 MSTORE PUSH1 0x40 SWAP3 DUP4 SWAP1 KECCAK256 SLOAD SWAP3 MLOAD PUSH4 0x6C130EB PUSH1 0xE3 SHL DUP2 MSTORE SWAP2 AND SWAP3 POP DUP3 SWAP2 PUSH4 0x36098758 SWAP2 PUSH2 0x1B7F SWAP2 DUP7 SWAP2 PUSH1 0x4 ADD PUSH2 0x3D38 JUMP JUMPDEST PUSH1 0x20 PUSH1 0x40 MLOAD DUP1 DUP4 SUB DUP2 PUSH1 0x0 DUP8 DUP1 EXTCODESIZE ISZERO DUP1 ISZERO PUSH2 0x1B99 JUMPI PUSH1 0x0 DUP1 REVERT JUMPDEST POP GAS CALL ISZERO DUP1 ISZERO PUSH2 0x1BAD JUMPI RETURNDATASIZE PUSH1 0x0 DUP1 RETURNDATACOPY RETURNDATASIZE PUSH1 0x0 REVERT JUMPDEST POP POP POP POP PUSH1 0x40 MLOAD RETURNDATASIZE PUSH1 0x1F NOT PUSH1 0x1F DUP3 ADD AND DUP3 ADD DUP1 PUSH1 0x40 MSTORE POP DUP2 ADD SWAP1 PUSH2 0x1BD1 SWAP2 SWAP1 PUSH2 0x3387 JUMP JUMPDEST PUSH1 0x1 PUSH1 0x1 PUSH1 0xA0 SHL SUB SWAP1 SWAP4 AND PUSH1 0x0 SWAP1 DUP2 MSTORE PUSH1 0x2 PUSH1 0x20 MSTORE PUSH1 0x40 SWAP1 KECCAK256 SWAP3 SWAP1 SWAP3 SSTORE POP POP JUMP JUMPDEST PUSH2 0x1BFF PUSH1 0x0 PUSH2 0x502 PUSH2 0x1DF9 JUMP JUMPDEST PUSH2 0x1C1B JUMPI PUSH1 0x40 MLOAD PUSH3 0x461BCD PUSH1 0xE5 SHL DUP2 MSTORE PUSH1 0x4 ADD PUSH2 0x7F8 SWAP1 PUSH2 0x3908 JUMP JUMPDEST PUSH1 0x8 DUP1 SLOAD PUSH1 0xFF NOT AND SWAP1 SSTORE JUMP JUMPDEST PUSH1 0x0 DUP2 DUP2 MSTORE PUSH1 0x1 PUSH1 0x20 MSTORE PUSH1 0x40 DUP2 KECCAK256 PUSH2 0x6CB SWAP1 PUSH2 0x25CD JUMP JUMPDEST PUSH1 0x0 DUP2 JUMP JUMPDEST DUP4 TIMESTAMP GT ISZERO PUSH2 0x1C63 JUMPI PUSH1 0x40 MLOAD PUSH3 0x461BCD PUSH1 0xE5 SHL DUP2 MSTORE PUSH1 0x4 ADD PUSH2 0x7F8 SWAP1 PUSH2 0x393F JUMP JUMPDEST PUSH1 0x0 PUSH32 0x0 DUP9 DUP9 DUP9 PUSH2 0x1C92 DUP13 PUSH2 0x25D8 JUMP JUMPDEST DUP10 PUSH1 0x40 MLOAD PUSH1 0x20 ADD PUSH2 0x1CA8 SWAP7 SWAP6 SWAP5 SWAP4 SWAP3 SWAP2 SWAP1 PUSH2 0x36B0 JUMP JUMPDEST PUSH1 0x40 MLOAD PUSH1 0x20 DUP2 DUP4 SUB SUB DUP2 MSTORE SWAP1 PUSH1 0x40 MSTORE DUP1 MLOAD SWAP1 PUSH1 0x20 ADD KECCAK256 SWAP1 POP PUSH1 0x0 PUSH2 0x1CCB DUP3 PUSH2 0x260A JUMP JUMPDEST SWAP1 POP PUSH1 0x0 PUSH2 0x1CDB DUP3 DUP8 DUP8 DUP8 PUSH2 0x261D JUMP JUMPDEST SWAP1 POP DUP10 PUSH1 0x1 PUSH1 0x1 PUSH1 0xA0 SHL SUB AND DUP2 PUSH1 0x1 PUSH1 0x1 PUSH1 0xA0 SHL SUB AND EQ PUSH2 0x1D0E JUMPI PUSH1 0x40 MLOAD PUSH3 0x461BCD PUSH1 0xE5 SHL DUP2 MSTORE PUSH1 0x4 ADD PUSH2 0x7F8 SWAP1 PUSH2 0x3AAA JUMP JUMPDEST PUSH2 0x1D19 DUP11 DUP11 DUP11 PUSH2 0x1DFD JUMP JUMPDEST POP POP POP POP POP POP POP POP POP POP JUMP JUMPDEST PUSH2 0xA8D DUP3 DUP3 PUSH2 0x270A JUMP JUMPDEST PUSH1 0x0 DUP1 MLOAD PUSH1 0x20 PUSH2 0x3F10 DUP4 CODECOPY DUP2 MLOAD SWAP2 MSTORE DUP2 JUMP JUMPDEST PUSH1 0x1 PUSH1 0x1 PUSH1 0xA0 SHL SUB SWAP2 DUP3 AND PUSH1 0x0 SWAP1 DUP2 MSTORE PUSH1 0x3 PUSH1 0x20 SWAP1 DUP2 MSTORE PUSH1 0x40 DUP1 DUP4 KECCAK256 SWAP4 SWAP1 SWAP5 AND DUP3 MSTORE SWAP2 SWAP1 SWAP2 MSTORE KECCAK256 SLOAD SWAP1 JUMP JUMPDEST PUSH2 0x1D79 PUSH1 0x0 PUSH2 0x502 PUSH2 0x1DF9 JUMP JUMPDEST PUSH2 0x1D95 JUMPI PUSH1 0x40 MLOAD PUSH3 0x461BCD PUSH1 0xE5 SHL DUP2 MSTORE PUSH1 0x4 ADD PUSH2 0x7F8 SWAP1 PUSH2 0x3908 JUMP JUMPDEST PUSH2 0x1DA1 PUSH1 0x4 DUP6 DUP6 PUSH2 0x2CAB JUMP JUMPDEST POP PUSH2 0x1DAE PUSH1 0x5 DUP4 DUP4 PUSH2 0x2CAB JUMP JUMPDEST POP POP POP POP POP JUMP JUMPDEST PUSH2 0x80B DUP3 DUP3 PUSH2 0x2729 JUMP JUMPDEST PUSH1 0x0 PUSH2 0xBDD DUP4 PUSH1 0x1 PUSH1 0x1 PUSH1 0xA0 SHL SUB DUP5 AND PUSH2 0x27AE JUMP JUMPDEST PUSH1 0x0 PUSH1 0x1 PUSH1 0x1 PUSH1 0xE0 SHL SUB NOT DUP3 AND PUSH4 0x7965DB0B PUSH1 0xE0 SHL EQ DUP1 PUSH2 0x6CB JUMPI POP PUSH2 0x6CB DUP3 PUSH2 0x27F8 JUMP JUMPDEST CALLER SWAP1 JUMP JUMPDEST PUSH1 0x1 PUSH1 0x1 PUSH1 0xA0 SHL SUB DUP4 AND PUSH2 0x1E23 JUMPI PUSH1 0x40 MLOAD PUSH3 0x461BCD PUSH1 0xE5 SHL DUP2 MSTORE PUSH1 0x4 ADD PUSH2 0x7F8 SWAP1 PUSH2 0x3B29 JUMP JUMPDEST PUSH1 0x1 PUSH1 0x1 PUSH1 0xA0 SHL SUB DUP3 AND PUSH2 0x1E49 JUMPI PUSH1 0x40 MLOAD PUSH3 0x461BCD PUSH1 0xE5 SHL DUP2 MSTORE PUSH1 0x4 ADD PUSH2 0x7F8 SWAP1 PUSH2 0x388F JUMP JUMPDEST PUSH1 0x1 PUSH1 0x1 PUSH1 0xA0 SHL SUB DUP1 DUP5 AND PUSH1 0x0 DUP2 DUP2 MSTORE PUSH1 0x3 PUSH1 0x20 SWAP1 DUP2 MSTORE PUSH1 0x40 DUP1 DUP4 KECCAK256 SWAP5 DUP8 AND DUP1 DUP5 MSTORE SWAP5 SWAP1 SWAP2 MSTORE SWAP1 DUP2 SWAP1 KECCAK256 DUP5 SWAP1 SSTORE MLOAD PUSH32 0x8C5BE1E5EBEC7D5BD14F71427D1E84F3DD0314C0F7B2291E5B200AC8C7C3B925 SWAP1 PUSH2 0x1EA4 SWAP1 DUP6 SWAP1 PUSH2 0x36A7 JUMP JUMPDEST PUSH1 0x40 MLOAD DUP1 SWAP2 SUB SWAP1 LOG3 POP POP POP JUMP JUMPDEST PUSH1 0x8 SLOAD PUSH1 0xFF AND ISZERO DUP1 PUSH2 0x1ED8 JUMPI POP PUSH2 0x1ED8 PUSH1 0x0 DUP1 MLOAD PUSH1 0x20 PUSH2 0x3F10 DUP4 CODECOPY DUP2 MLOAD SWAP2 MSTORE PUSH2 0x502 PUSH2 0x1DF9 JUMP JUMPDEST DUP1 PUSH2 0x1EEB JUMPI POP PUSH2 0x1EEB PUSH1 0x0 PUSH2 0x502 PUSH2 0x1DF9 JUMP JUMPDEST PUSH2 0x1F07 JUMPI PUSH1 0x40 MLOAD PUSH3 0x461BCD PUSH1 0xE5 SHL DUP2 MSTORE PUSH1 0x4 ADD PUSH2 0x7F8 SWAP1 PUSH2 0x3804 JUMP JUMPDEST PUSH1 0x0 PUSH1 0x7 PUSH1 0x0 DUP2 SLOAD DUP2 LT PUSH2 0x1F2B JUMPI PUSH4 0x4E487B71 PUSH1 0xE0 SHL PUSH1 0x0 MSTORE PUSH1 0x32 PUSH1 0x4 MSTORE PUSH1 0x24 PUSH1 0x0 REVERT JUMPDEST PUSH1 0x0 SWAP2 DUP3 MSTORE PUSH1 0x20 SWAP1 SWAP2 KECCAK256 ADD SLOAD PUSH1 0x40 MLOAD PUSH4 0x42E58A63 PUSH1 0xE0 SHL DUP2 MSTORE PUSH1 0x1 PUSH1 0x1 PUSH1 0xA0 SHL SUB SWAP1 SWAP2 AND SWAP1 PUSH4 0x42E58A63 SWAP1 PUSH2 0x1F69 SWAP1 PUSH1 0x1 SWAP1 DUP8 SWAP1 DUP8 SWAP1 PUSH1 0x4 ADD PUSH2 0x3686 JUMP JUMPDEST PUSH1 0x20 PUSH1 0x40 MLOAD DUP1 DUP4 SUB DUP2 PUSH1 0x0 DUP8 DUP1 EXTCODESIZE ISZERO DUP1 ISZERO PUSH2 0x1F83 JUMPI PUSH1 0x0 DUP1 REVERT JUMPDEST POP GAS CALL ISZERO DUP1 ISZERO PUSH2 0x1F97 JUMPI RETURNDATASIZE PUSH1 0x0 DUP1 RETURNDATACOPY RETURNDATASIZE PUSH1 0x0 REVERT JUMPDEST POP POP POP POP PUSH1 0x40 MLOAD RETURNDATASIZE PUSH1 0x1F NOT PUSH1 0x1F DUP3 ADD AND DUP3 ADD DUP1 PUSH1 0x40 MSTORE POP DUP2 ADD SWAP1 PUSH2 0x1FBB SWAP2 SWAP1 PUSH2 0x3387 JUMP JUMPDEST PUSH1 0x1 PUSH1 0x1 PUSH1 0xA0 SHL SUB DUP5 AND PUSH1 0x0 SWAP1 DUP2 MSTORE PUSH1 0x2 PUSH1 0x20 MSTORE PUSH1 0x40 DUP2 KECCAK256 DUP1 SLOAD SWAP3 SWAP4 POP DUP4 SWAP3 SWAP1 SWAP2 SWAP1 PUSH2 0x1FE8 SWAP1 DUP5 SWAP1 PUSH2 0x3DA9 JUMP JUMPDEST SWAP1 SWAP2 SSTORE POP POP PUSH1 0x40 MLOAD PUSH1 0x1 PUSH1 0x1 PUSH1 0xA0 SHL SUB DUP5 AND SWAP1 PUSH1 0x0 SWAP1 PUSH1 0x0 DUP1 MLOAD PUSH1 0x20 PUSH2 0x3F30 DUP4 CODECOPY DUP2 MLOAD SWAP2 MSTORE SWAP1 PUSH2 0x2019 SWAP1 DUP7 SWAP1 PUSH2 0x36A7 JUMP JUMPDEST PUSH1 0x40 MLOAD DUP1 SWAP2 SUB SWAP1 LOG3 PUSH32 0x99FC78BCF3C24B8CD6AD4EDA1E3EB007E511C09C640AF1C46437DED34CF10F2 DUP4 DUP4 PUSH1 0x40 MLOAD PUSH2 0x189F SWAP3 SWAP2 SWAP1 PUSH2 0x34FB JUMP JUMPDEST PUSH1 0x8 SLOAD PUSH1 0xFF AND ISZERO DUP1 PUSH2 0x2079 JUMPI POP PUSH2 0x2079 PUSH1 0x0 DUP1 MLOAD PUSH1 0x20 PUSH2 0x3F10 DUP4 CODECOPY DUP2 MLOAD SWAP2 MSTORE PUSH2 0x502 PUSH2 0x1DF9 JUMP JUMPDEST DUP1 PUSH2 0x208C JUMPI POP PUSH2 0x208C PUSH1 0x0 PUSH2 0x502 PUSH2 0x1DF9 JUMP JUMPDEST PUSH2 0x20A8 JUMPI PUSH1 0x40 MLOAD PUSH3 0x461BCD PUSH1 0xE5 SHL DUP2 MSTORE PUSH1 0x4 ADD PUSH2 0x7F8 SWAP1 PUSH2 0x3804 JUMP JUMPDEST PUSH1 0x0 PUSH1 0x7 PUSH1 0x0 DUP2 SLOAD DUP2 LT PUSH2 0x20CC JUMPI PUSH4 0x4E487B71 PUSH1 0xE0 SHL PUSH1 0x0 MSTORE PUSH1 0x32 PUSH1 0x4 MSTORE PUSH1 0x24 PUSH1 0x0 REVERT JUMPDEST PUSH1 0x0 SWAP2 DUP3 MSTORE PUSH1 0x20 DUP3 KECCAK256 ADD SLOAD PUSH1 0x40 MLOAD PUSH4 0x42E58A63 PUSH1 0xE0 SHL DUP2 MSTORE PUSH1 0x1 PUSH1 0x1 PUSH1 0xA0 SHL SUB SWAP1 SWAP2 AND SWAP2 PUSH4 0x42E58A63 SWAP2 PUSH2 0x2107 SWAP2 SWAP1 DUP8 SWAP1 DUP8 SWAP1 PUSH1 0x4 ADD PUSH2 0x3686 JUMP JUMPDEST PUSH1 0x20 PUSH1 0x40 MLOAD DUP1 DUP4 SUB DUP2 PUSH1 0x0 DUP8 DUP1 EXTCODESIZE ISZERO DUP1 ISZERO PUSH2 0x2121 JUMPI PUSH1 0x0 DUP1 REVERT JUMPDEST POP GAS CALL ISZERO DUP1 ISZERO PUSH2 0x2135 JUMPI RETURNDATASIZE PUSH1 0x0 DUP1 RETURNDATACOPY RETURNDATASIZE PUSH1 0x0 REVERT JUMPDEST POP POP POP POP PUSH1 0x40 MLOAD RETURNDATASIZE PUSH1 0x1F NOT PUSH1 0x1F DUP3 ADD AND DUP3 ADD DUP1 PUSH1 0x40 MSTORE POP DUP2 ADD SWAP1 PUSH2 0x2159 SWAP2 SWAP1 PUSH2 0x3387 JUMP JUMPDEST PUSH1 0x1 PUSH1 0x1 PUSH1 0xA0 SHL SUB DUP5 AND PUSH1 0x0 SWAP1 DUP2 MSTORE PUSH1 0x2 PUSH1 0x20 MSTORE PUSH1 0x40 SWAP1 KECCAK256 SLOAD SWAP1 SWAP2 POP DUP2 GT ISZERO PUSH2 0x2194 JUMPI PUSH1 0x40 MLOAD PUSH3 0x461BCD PUSH1 0xE5 SHL DUP2 MSTORE PUSH1 0x4 ADD PUSH2 0x7F8 SWAP1 PUSH2 0x3C2C JUMP JUMPDEST PUSH1 0x1 PUSH1 0x1 PUSH1 0xA0 SHL SUB DUP4 AND PUSH1 0x0 SWAP1 DUP2 MSTORE PUSH1 0x2 PUSH1 0x20 MSTORE PUSH1 0x40 DUP2 KECCAK256 DUP1 SLOAD DUP4 SWAP3 SWAP1 PUSH2 0x21BC SWAP1 DUP5 SWAP1 PUSH2 0x3DE0 JUMP JUMPDEST SWAP1 SWAP2 SSTORE POP POP PUSH1 0x40 MLOAD PUSH1 0x0 SWAP1 PUSH1 0x1 PUSH1 0x1 PUSH1 0xA0 SHL SUB DUP6 AND SWAP1 PUSH1 0x0 DUP1 MLOAD PUSH1 0x20 PUSH2 0x3F30 DUP4 CODECOPY DUP2 MLOAD SWAP2 MSTORE SWAP1 PUSH2 0x21ED SWAP1 DUP7 SWAP1 PUSH2 0x36A7 JUMP JUMPDEST PUSH1 0x40 MLOAD DUP1 SWAP2 SUB SWAP1 LOG3 PUSH32 0xA5B82707BC4CE1D57E909B70ADB28E393A34C2AB77E30F862CA2E0E9F8DA905 DUP4 DUP4 PUSH1 0x40 MLOAD PUSH2 0x189F SWAP3 SWAP2 SWAP1 PUSH2 0x34FB JUMP JUMPDEST PUSH1 0x8 SLOAD PUSH1 0xFF AND ISZERO DUP1 PUSH2 0x224D JUMPI POP PUSH2 0x224D PUSH1 0x0 DUP1 MLOAD PUSH1 0x20 PUSH2 0x3F10 DUP4 CODECOPY DUP2 MLOAD SWAP2 MSTORE PUSH2 0x502 PUSH2 0x1DF9 JUMP JUMPDEST DUP1 PUSH2 0x2260 JUMPI POP PUSH2 0x2260 PUSH1 0x0 PUSH2 0x502 PUSH2 0x1DF9 JUMP JUMPDEST PUSH2 0x227C JUMPI PUSH1 0x40 MLOAD PUSH3 0x461BCD PUSH1 0xE5 SHL DUP2 MSTORE PUSH1 0x4 ADD PUSH2 0x7F8 SWAP1 PUSH2 0x3804 JUMP JUMPDEST PUSH1 0x1 PUSH1 0x1 PUSH1 0xA0 SHL SUB DUP4 AND ISZERO DUP1 ISZERO SWAP1 PUSH2 0x229C JUMPI POP PUSH1 0x1 PUSH1 0x1 PUSH1 0xA0 SHL SUB DUP3 AND ISZERO ISZERO JUMPDEST PUSH2 0x22B8 JUMPI PUSH1 0x40 MLOAD PUSH3 0x461BCD PUSH1 0xE5 SHL DUP2 MSTORE PUSH1 0x4 ADD PUSH2 0x7F8 SWAP1 PUSH2 0x3B6D JUMP JUMPDEST DUP2 PUSH1 0x1 PUSH1 0x1 PUSH1 0xA0 SHL SUB AND DUP4 PUSH1 0x1 PUSH1 0x1 PUSH1 0xA0 SHL SUB AND EQ ISZERO PUSH2 0x22EA JUMPI PUSH1 0x40 MLOAD PUSH3 0x461BCD PUSH1 0xE5 SHL DUP2 MSTORE PUSH1 0x4 ADD PUSH2 0x7F8 SWAP1 PUSH2 0x3858 JUMP JUMPDEST PUSH1 0x0 PUSH1 0x7 PUSH1 0x0 DUP2 SLOAD DUP2 LT PUSH2 0x230E JUMPI PUSH4 0x4E487B71 PUSH1 0xE0 SHL PUSH1 0x0 MSTORE PUSH1 0x32 PUSH1 0x4 MSTORE PUSH1 0x24 PUSH1 0x0 REVERT JUMPDEST PUSH1 0x0 SWAP2 DUP3 MSTORE PUSH1 0x20 DUP1 DUP4 KECCAK256 SWAP1 SWAP2 ADD SLOAD PUSH1 0x40 DUP1 MLOAD PUSH1 0xA0 DUP2 ADD DUP3 MSTORE PUSH1 0x1 PUSH1 0x1 PUSH1 0xA0 SHL SUB DUP10 DUP2 AND DUP1 DUP4 MSTORE DUP10 DUP3 AND DUP4 DUP8 ADD DUP2 SWAP1 MSTORE DUP4 DUP6 ADD DUP11 SWAP1 MSTORE SWAP1 DUP8 MSTORE PUSH1 0x2 DUP1 DUP8 MSTORE DUP5 DUP9 KECCAK256 SLOAD PUSH1 0x60 DUP6 ADD MSTORE SWAP1 DUP8 MSTORE SWAP1 SWAP5 MSTORE DUP2 DUP6 KECCAK256 SLOAD PUSH1 0x80 DUP3 ADD MSTORE SWAP1 MLOAD PUSH4 0x40AD30F PUSH1 0xE5 SHL DUP2 MSTORE SWAP3 SWAP1 SWAP2 AND SWAP4 POP DUP4 SWAP2 PUSH4 0x815A61E0 SWAP2 PUSH2 0x2389 SWAP2 PUSH1 0x4 ADD PUSH2 0x3CF5 JUMP JUMPDEST PUSH1 0x80 PUSH1 0x40 MLOAD DUP1 DUP4 SUB DUP2 PUSH1 0x0 DUP8 DUP1 EXTCODESIZE ISZERO DUP1 ISZERO PUSH2 0x23A3 JUMPI PUSH1 0x0 DUP1 REVERT JUMPDEST POP GAS CALL ISZERO DUP1 ISZERO PUSH2 0x23B7 JUMPI RETURNDATASIZE PUSH1 0x0 DUP1 RETURNDATACOPY RETURNDATASIZE PUSH1 0x0 REVERT JUMPDEST POP POP POP POP PUSH1 0x40 MLOAD RETURNDATASIZE PUSH1 0x1F NOT PUSH1 0x1F DUP3 ADD AND DUP3 ADD DUP1 PUSH1 0x40 MSTORE POP DUP2 ADD SWAP1 PUSH2 0x23DB SWAP2 SWAP1 PUSH2 0x3340 JUMP JUMPDEST DUP1 MLOAD PUSH1 0x1 PUSH1 0x1 PUSH1 0xA0 SHL SUB DUP1 DUP9 AND PUSH1 0x0 DUP2 DUP2 MSTORE PUSH1 0x2 PUSH1 0x20 SWAP1 DUP2 MSTORE PUSH1 0x40 DUP1 DUP4 KECCAK256 SWAP6 SWAP1 SWAP6 SSTORE DUP6 ADD MLOAD SWAP3 DUP10 AND DUP2 MSTORE DUP4 DUP2 KECCAK256 SWAP3 SWAP1 SWAP3 SSTORE DUP3 DUP5 ADD MLOAD SWAP3 MLOAD SWAP4 SWAP5 POP SWAP1 SWAP3 SWAP1 SWAP2 PUSH1 0x0 DUP1 MLOAD PUSH1 0x20 PUSH2 0x3F30 DUP4 CODECOPY DUP2 MLOAD SWAP2 MSTORE SWAP2 PUSH2 0x2433 SWAP2 SWAP1 PUSH2 0x36A7 JUMP JUMPDEST PUSH1 0x40 MLOAD DUP1 SWAP2 SUB SWAP1 LOG3 DUP4 PUSH1 0x1 PUSH1 0x1 PUSH1 0xA0 SHL SUB AND DUP6 PUSH1 0x1 PUSH1 0x1 PUSH1 0xA0 SHL SUB AND PUSH1 0x0 DUP1 MLOAD PUSH1 0x20 PUSH2 0x3F30 DUP4 CODECOPY DUP2 MLOAD SWAP2 MSTORE DUP4 PUSH1 0x60 ADD MLOAD PUSH1 0x40 MLOAD PUSH2 0x2470 SWAP2 SWAP1 PUSH2 0x36A7 JUMP JUMPDEST PUSH1 0x40 MLOAD DUP1 SWAP2 SUB SWAP1 LOG3 POP POP POP POP POP JUMP JUMPDEST PUSH2 0x2488 DUP3 PUSH2 0xA34 JUMP JUMPDEST PUSH2 0x2499 DUP2 PUSH2 0x2494 PUSH2 0x1DF9 JUMP JUMPDEST PUSH2 0x2811 JUMP JUMPDEST PUSH2 0xA6B DUP4 DUP4 PUSH2 0x2729 JUMP JUMPDEST PUSH1 0x0 PUSH32 0x0 CHAINID EQ ISZERO PUSH2 0x24F4 JUMPI POP PUSH32 0x0 PUSH2 0x7A1 JUMP JUMPDEST PUSH2 0x255F PUSH32 0x0 PUSH32 0x0 PUSH32 0x0 PUSH2 0x2875 JUMP JUMPDEST SWAP1 POP PUSH2 0x7A1 JUMP JUMPDEST PUSH2 0x256E PUSH2 0x1DF9 JUMP JUMPDEST PUSH1 0x1 PUSH1 0x1 PUSH1 0xA0 SHL SUB AND DUP2 PUSH1 0x1 PUSH1 0x1 PUSH1 0xA0 SHL SUB AND EQ PUSH2 0x259E JUMPI PUSH1 0x40 MLOAD PUSH3 0x461BCD PUSH1 0xE5 SHL DUP2 MSTORE PUSH1 0x4 ADD PUSH2 0x7F8 SWAP1 PUSH2 0x3C6F JUMP JUMPDEST PUSH2 0x80B DUP3 DUP3 PUSH2 0x28AF JUMP JUMPDEST PUSH1 0x0 PUSH2 0xBDD DUP4 PUSH1 0x1 PUSH1 0x1 PUSH1 0xA0 SHL SUB DUP5 AND PUSH2 0x2932 JUMP JUMPDEST SLOAD SWAP1 JUMP JUMPDEST PUSH1 0x0 PUSH2 0xBDD DUP4 DUP4 PUSH2 0x2A4F JUMP JUMPDEST PUSH1 0x0 PUSH2 0x6CB DUP3 PUSH2 0x25BD JUMP JUMPDEST PUSH1 0x1 PUSH1 0x1 PUSH1 0xA0 SHL SUB DUP2 AND PUSH1 0x0 SWAP1 DUP2 MSTORE PUSH1 0x6 PUSH1 0x20 MSTORE PUSH1 0x40 DUP2 KECCAK256 PUSH2 0x25F9 DUP2 PUSH2 0x25BD JUMP JUMPDEST SWAP2 POP PUSH2 0x2604 DUP2 PUSH2 0x2A87 JUMP JUMPDEST POP SWAP2 SWAP1 POP JUMP JUMPDEST PUSH1 0x0 PUSH2 0x6CB PUSH2 0x2617 PUSH2 0x24A3 JUMP JUMPDEST DUP4 PUSH2 0x2A90 JUMP JUMPDEST PUSH1 0x0 PUSH32 0x7FFFFFFFFFFFFFFFFFFFFFFFFFFFFFFF5D576E7357A4501DDFE92F46681B20A0 DUP3 GT ISZERO PUSH2 0x265F JUMPI PUSH1 0x40 MLOAD PUSH3 0x461BCD PUSH1 0xE5 SHL DUP2 MSTORE PUSH1 0x4 ADD PUSH2 0x7F8 SWAP1 PUSH2 0x3976 JUMP JUMPDEST DUP4 PUSH1 0xFF AND PUSH1 0x1B EQ DUP1 PUSH2 0x2674 JUMPI POP DUP4 PUSH1 0xFF AND PUSH1 0x1C EQ JUMPDEST PUSH2 0x2690 JUMPI PUSH1 0x40 MLOAD PUSH3 0x461BCD PUSH1 0xE5 SHL DUP2 MSTORE PUSH1 0x4 ADD PUSH2 0x7F8 SWAP1 PUSH2 0x3A26 JUMP JUMPDEST PUSH1 0x0 PUSH1 0x1 DUP7 DUP7 DUP7 DUP7 PUSH1 0x40 MLOAD PUSH1 0x0 DUP2 MSTORE PUSH1 0x20 ADD PUSH1 0x40 MSTORE PUSH1 0x40 MLOAD PUSH2 0x26B5 SWAP5 SWAP4 SWAP3 SWAP2 SWAP1 PUSH2 0x3710 JUMP JUMPDEST PUSH1 0x20 PUSH1 0x40 MLOAD PUSH1 0x20 DUP2 SUB SWAP1 DUP1 DUP5 SUB SWAP1 DUP6 GAS STATICCALL ISZERO DUP1 ISZERO PUSH2 0x26D7 JUMPI RETURNDATASIZE PUSH1 0x0 DUP1 RETURNDATACOPY RETURNDATASIZE PUSH1 0x0 REVERT JUMPDEST POP POP PUSH1 0x40 MLOAD PUSH1 0x1F NOT ADD MLOAD SWAP2 POP POP PUSH1 0x1 PUSH1 0x1 PUSH1 0xA0 SHL SUB DUP2 AND PUSH2 0x69D JUMPI PUSH1 0x40 MLOAD PUSH3 0x461BCD PUSH1 0xE5 SHL DUP2 MSTORE PUSH1 0x4 ADD PUSH2 0x7F8 SWAP1 PUSH2 0x3761 JUMP JUMPDEST PUSH2 0x2713 DUP3 PUSH2 0xA34 JUMP JUMPDEST PUSH2 0x271F DUP2 PUSH2 0x2494 PUSH2 0x1DF9 JUMP JUMPDEST PUSH2 0xA6B DUP4 DUP4 PUSH2 0x28AF JUMP JUMPDEST PUSH2 0x2733 DUP3 DUP3 PUSH2 0x18C4 JUMP JUMPDEST PUSH2 0x80B JUMPI PUSH1 0x0 DUP3 DUP2 MSTORE PUSH1 0x20 DUP2 DUP2 MSTORE PUSH1 0x40 DUP1 DUP4 KECCAK256 PUSH1 0x1 PUSH1 0x1 PUSH1 0xA0 SHL SUB DUP6 AND DUP5 MSTORE SWAP1 SWAP2 MSTORE SWAP1 KECCAK256 DUP1 SLOAD PUSH1 0xFF NOT AND PUSH1 0x1 OR SWAP1 SSTORE PUSH2 0x276A PUSH2 0x1DF9 JUMP JUMPDEST PUSH1 0x1 PUSH1 0x1 PUSH1 0xA0 SHL SUB AND DUP2 PUSH1 0x1 PUSH1 0x1 PUSH1 0xA0 SHL SUB AND DUP4 PUSH32 0x2F8788117E7EFF1D82E926EC794901D17C78024A50270940304540A733656F0D PUSH1 0x40 MLOAD PUSH1 0x40 MLOAD DUP1 SWAP2 SUB SWAP1 LOG4 POP POP JUMP JUMPDEST PUSH1 0x0 PUSH2 0x27BA DUP4 DUP4 PUSH2 0x2AC3 JUMP JUMPDEST PUSH2 0x27F0 JUMPI POP DUP2 SLOAD PUSH1 0x1 DUP2 DUP2 ADD DUP5 SSTORE PUSH1 0x0 DUP5 DUP2 MSTORE PUSH1 0x20 DUP1 DUP3 KECCAK256 SWAP1 SWAP4 ADD DUP5 SWAP1 SSTORE DUP5 SLOAD DUP5 DUP3 MSTORE DUP3 DUP7 ADD SWAP1 SWAP4 MSTORE PUSH1 0x40 SWAP1 KECCAK256 SWAP2 SWAP1 SWAP2 SSTORE PUSH2 0x7BC JUMP JUMPDEST POP PUSH1 0x0 PUSH2 0x7BC JUMP JUMPDEST PUSH1 0x1 PUSH1 0x1 PUSH1 0xE0 SHL SUB NOT DUP2 AND PUSH4 0x1FFC9A7 PUSH1 0xE0 SHL EQ SWAP2 SWAP1 POP JUMP JUMPDEST PUSH2 0x281B DUP3 DUP3 PUSH2 0x18C4 JUMP JUMPDEST PUSH2 0x80B JUMPI PUSH2 0x2833 DUP2 PUSH1 0x1 PUSH1 0x1 PUSH1 0xA0 SHL SUB AND PUSH1 0x14 PUSH2 0x2ADB JUMP JUMPDEST PUSH2 0x283E DUP4 PUSH1 0x20 PUSH2 0x2ADB JUMP JUMPDEST PUSH1 0x40 MLOAD PUSH1 0x20 ADD PUSH2 0x284F SWAP3 SWAP2 SWAP1 PUSH2 0x340F JUMP JUMPDEST PUSH1 0x40 DUP1 MLOAD PUSH1 0x1F NOT DUP2 DUP5 SUB ADD DUP2 MSTORE SWAP1 DUP3 SWAP1 MSTORE PUSH3 0x461BCD PUSH1 0xE5 SHL DUP3 MSTORE PUSH2 0x7F8 SWAP2 PUSH1 0x4 ADD PUSH2 0x372E JUMP JUMPDEST PUSH1 0x0 DUP4 DUP4 DUP4 CHAINID ADDRESS PUSH1 0x40 MLOAD PUSH1 0x20 ADD PUSH2 0x2890 SWAP6 SWAP5 SWAP4 SWAP3 SWAP2 SWAP1 PUSH2 0x36E4 JUMP JUMPDEST PUSH1 0x40 MLOAD PUSH1 0x20 DUP2 DUP4 SUB SUB DUP2 MSTORE SWAP1 PUSH1 0x40 MSTORE DUP1 MLOAD SWAP1 PUSH1 0x20 ADD KECCAK256 SWAP1 POP SWAP4 SWAP3 POP POP POP JUMP JUMPDEST PUSH2 0x28B9 DUP3 DUP3 PUSH2 0x18C4 JUMP JUMPDEST ISZERO PUSH2 0x80B JUMPI PUSH1 0x0 DUP3 DUP2 MSTORE PUSH1 0x20 DUP2 DUP2 MSTORE PUSH1 0x40 DUP1 DUP4 KECCAK256 PUSH1 0x1 PUSH1 0x1 PUSH1 0xA0 SHL SUB DUP6 AND DUP5 MSTORE SWAP1 SWAP2 MSTORE SWAP1 KECCAK256 DUP1 SLOAD PUSH1 0xFF NOT AND SWAP1 SSTORE PUSH2 0x28EE PUSH2 0x1DF9 JUMP JUMPDEST PUSH1 0x1 PUSH1 0x1 PUSH1 0xA0 SHL SUB AND DUP2 PUSH1 0x1 PUSH1 0x1 PUSH1 0xA0 SHL SUB AND DUP4 PUSH32 0xF6391F5C32D9C69D2A47EA670B442974B53935D1EDC7FD64EB21E047A839171B PUSH1 0x40 MLOAD PUSH1 0x40 MLOAD DUP1 SWAP2 SUB SWAP1 LOG4 POP POP JUMP JUMPDEST PUSH1 0x0 DUP2 DUP2 MSTORE PUSH1 0x1 DUP4 ADD PUSH1 0x20 MSTORE PUSH1 0x40 DUP2 KECCAK256 SLOAD DUP1 ISZERO PUSH2 0x2A45 JUMPI PUSH1 0x0 PUSH2 0x2956 PUSH1 0x1 DUP4 PUSH2 0x3DE0 JUMP JUMPDEST DUP6 SLOAD SWAP1 SWAP2 POP PUSH1 0x0 SWAP1 PUSH2 0x296A SWAP1 PUSH1 0x1 SWAP1 PUSH2 0x3DE0 JUMP JUMPDEST SWAP1 POP DUP2 DUP2 EQ PUSH2 0x29EB JUMPI PUSH1 0x0 DUP7 PUSH1 0x0 ADD DUP3 DUP2 SLOAD DUP2 LT PUSH2 0x2998 JUMPI PUSH4 0x4E487B71 PUSH1 0xE0 SHL PUSH1 0x0 MSTORE PUSH1 0x32 PUSH1 0x4 MSTORE PUSH1 0x24 PUSH1 0x0 REVERT JUMPDEST SWAP1 PUSH1 0x0 MSTORE PUSH1 0x20 PUSH1 0x0 KECCAK256 ADD SLOAD SWAP1 POP DUP1 DUP8 PUSH1 0x0 ADD DUP5 DUP2 SLOAD DUP2 LT PUSH2 0x29C9 JUMPI PUSH4 0x4E487B71 PUSH1 0xE0 SHL PUSH1 0x0 MSTORE PUSH1 0x32 PUSH1 0x4 MSTORE PUSH1 0x24 PUSH1 0x0 REVERT JUMPDEST PUSH1 0x0 SWAP2 DUP3 MSTORE PUSH1 0x20 DUP1 DUP4 KECCAK256 SWAP1 SWAP2 ADD SWAP3 SWAP1 SWAP3 SSTORE SWAP2 DUP3 MSTORE PUSH1 0x1 DUP9 ADD SWAP1 MSTORE PUSH1 0x40 SWAP1 KECCAK256 DUP4 SWAP1 SSTORE JUMPDEST DUP6 SLOAD DUP7 SWAP1 DUP1 PUSH2 0x2A0A JUMPI PUSH4 0x4E487B71 PUSH1 0xE0 SHL PUSH1 0x0 MSTORE PUSH1 0x31 PUSH1 0x4 MSTORE PUSH1 0x24 PUSH1 0x0 REVERT JUMPDEST PUSH1 0x1 SWAP1 SUB DUP2 DUP2 SWAP1 PUSH1 0x0 MSTORE PUSH1 0x20 PUSH1 0x0 KECCAK256 ADD PUSH1 0x0 SWAP1 SSTORE SWAP1 SSTORE DUP6 PUSH1 0x1 ADD PUSH1 0x0 DUP7 DUP2 MSTORE PUSH1 0x20 ADD SWAP1 DUP2 MSTORE PUSH1 0x20 ADD PUSH1 0x0 KECCAK256 PUSH1 0x0 SWAP1 SSTORE PUSH1 0x1 SWAP4 POP POP POP POP PUSH2 0x7BC JUMP JUMPDEST PUSH1 0x0 SWAP2 POP POP PUSH2 0x7BC JUMP JUMPDEST PUSH1 0x0 DUP3 PUSH1 0x0 ADD DUP3 DUP2 SLOAD DUP2 LT PUSH2 0x2A74 JUMPI PUSH4 0x4E487B71 PUSH1 0xE0 SHL PUSH1 0x0 MSTORE PUSH1 0x32 PUSH1 0x4 MSTORE PUSH1 0x24 PUSH1 0x0 REVERT JUMPDEST SWAP1 PUSH1 0x0 MSTORE PUSH1 0x20 PUSH1 0x0 KECCAK256 ADD SLOAD SWAP1 POP SWAP3 SWAP2 POP POP JUMP JUMPDEST DUP1 SLOAD PUSH1 0x1 ADD SWAP1 SSTORE JUMP JUMPDEST PUSH1 0x0 DUP3 DUP3 PUSH1 0x40 MLOAD PUSH1 0x20 ADD PUSH2 0x2AA5 SWAP3 SWAP2 SWAP1 PUSH2 0x33F4 JUMP JUMPDEST PUSH1 0x40 MLOAD PUSH1 0x20 DUP2 DUP4 SUB SUB DUP2 MSTORE SWAP1 PUSH1 0x40 MSTORE DUP1 MLOAD SWAP1 PUSH1 0x20 ADD KECCAK256 SWAP1 POP SWAP3 SWAP2 POP POP JUMP JUMPDEST PUSH1 0x0 SWAP1 DUP2 MSTORE PUSH1 0x1 SWAP2 SWAP1 SWAP2 ADD PUSH1 0x20 MSTORE PUSH1 0x40 SWAP1 KECCAK256 SLOAD ISZERO ISZERO SWAP1 JUMP JUMPDEST PUSH1 0x60 PUSH1 0x0 PUSH2 0x2AEA DUP4 PUSH1 0x2 PUSH2 0x3DC1 JUMP JUMPDEST PUSH2 0x2AF5 SWAP1 PUSH1 0x2 PUSH2 0x3DA9 JUMP JUMPDEST PUSH8 0xFFFFFFFFFFFFFFFF DUP2 GT ISZERO PUSH2 0x2B1B JUMPI PUSH4 0x4E487B71 PUSH1 0xE0 SHL PUSH1 0x0 MSTORE PUSH1 0x41 PUSH1 0x4 MSTORE PUSH1 0x24 PUSH1 0x0 REVERT JUMPDEST PUSH1 0x40 MLOAD SWAP1 DUP1 DUP3 MSTORE DUP1 PUSH1 0x1F ADD PUSH1 0x1F NOT AND PUSH1 0x20 ADD DUP3 ADD PUSH1 0x40 MSTORE DUP1 ISZERO PUSH2 0x2B45 JUMPI PUSH1 0x20 DUP3 ADD DUP2 DUP1 CALLDATASIZE DUP4 CALLDATACOPY ADD SWAP1 POP JUMPDEST POP SWAP1 POP PUSH1 0x3 PUSH1 0xFC SHL DUP2 PUSH1 0x0 DUP2 MLOAD DUP2 LT PUSH2 0x2B6E JUMPI PUSH4 0x4E487B71 PUSH1 0xE0 SHL PUSH1 0x0 MSTORE PUSH1 0x32 PUSH1 0x4 MSTORE PUSH1 0x24 PUSH1 0x0 REVERT JUMPDEST PUSH1 0x20 ADD ADD SWAP1 PUSH1 0x1 PUSH1 0x1 PUSH1 0xF8 SHL SUB NOT AND SWAP1 DUP2 PUSH1 0x0 BYTE SWAP1 MSTORE8 POP PUSH1 0xF PUSH1 0xFB SHL DUP2 PUSH1 0x1 DUP2 MLOAD DUP2 LT PUSH2 0x2BAB JUMPI PUSH4 0x4E487B71 PUSH1 0xE0 SHL PUSH1 0x0 MSTORE PUSH1 0x32 PUSH1 0x4 MSTORE PUSH1 0x24 PUSH1 0x0 REVERT JUMPDEST PUSH1 0x20 ADD ADD SWAP1 PUSH1 0x1 PUSH1 0x1 PUSH1 0xF8 SHL SUB NOT AND SWAP1 DUP2 PUSH1 0x0 BYTE SWAP1 MSTORE8 POP PUSH1 0x0 PUSH2 0x2BCF DUP5 PUSH1 0x2 PUSH2 0x3DC1 JUMP JUMPDEST PUSH2 0x2BDA SWAP1 PUSH1 0x1 PUSH2 0x3DA9 JUMP JUMPDEST SWAP1 POP JUMPDEST PUSH1 0x1 DUP2 GT ISZERO PUSH2 0x2C6E JUMPI PUSH16 0x181899199A1A9B1B9C1CB0B131B232B3 PUSH1 0x81 SHL DUP6 PUSH1 0xF AND PUSH1 0x10 DUP2 LT PUSH2 0x2C1C JUMPI PUSH4 0x4E487B71 PUSH1 0xE0 SHL PUSH1 0x0 MSTORE PUSH1 0x32 PUSH1 0x4 MSTORE PUSH1 0x24 PUSH1 0x0 REVERT JUMPDEST BYTE PUSH1 0xF8 SHL DUP3 DUP3 DUP2 MLOAD DUP2 LT PUSH2 0x2C40 JUMPI PUSH4 0x4E487B71 PUSH1 0xE0 SHL PUSH1 0x0 MSTORE PUSH1 0x32 PUSH1 0x4 MSTORE PUSH1 0x24 PUSH1 0x0 REVERT JUMPDEST PUSH1 0x20 ADD ADD SWAP1 PUSH1 0x1 PUSH1 0x1 PUSH1 0xF8 SHL SUB NOT AND SWAP1 DUP2 PUSH1 0x0 BYTE SWAP1 MSTORE8 POP PUSH1 0x4 SWAP5 SWAP1 SWAP5 SHR SWAP4 PUSH2 0x2C67 DUP2 PUSH2 0x3E27 JUMP JUMPDEST SWAP1 POP PUSH2 0x2BDD JUMP JUMPDEST POP DUP4 ISZERO PUSH2 0xBDD JUMPI PUSH1 0x40 MLOAD PUSH3 0x461BCD PUSH1 0xE5 SHL DUP2 MSTORE PUSH1 0x4 ADD PUSH2 0x7F8 SWAP1 PUSH2 0x3798 JUMP JUMPDEST POP DUP1 SLOAD PUSH1 0x0 DUP3 SSTORE SWAP1 PUSH1 0x0 MSTORE PUSH1 0x20 PUSH1 0x0 KECCAK256 SWAP1 DUP2 ADD SWAP1 PUSH2 0x99A SWAP2 SWAP1 PUSH2 0x2D2F JUMP JUMPDEST DUP3 DUP1 SLOAD PUSH2 0x2CB7 SWAP1 PUSH2 0x3E3E JUMP JUMPDEST SWAP1 PUSH1 0x0 MSTORE PUSH1 0x20 PUSH1 0x0 KECCAK256 SWAP1 PUSH1 0x1F ADD PUSH1 0x20 SWAP1 DIV DUP2 ADD SWAP3 DUP3 PUSH2 0x2CD9 JUMPI PUSH1 0x0 DUP6 SSTORE PUSH2 0x2D1F JUMP JUMPDEST DUP3 PUSH1 0x1F LT PUSH2 0x2CF2 JUMPI DUP3 DUP1 ADD PUSH1 0xFF NOT DUP3 CALLDATALOAD AND OR DUP6 SSTORE PUSH2 0x2D1F JUMP JUMPDEST DUP3 DUP1 ADD PUSH1 0x1 ADD DUP6 SSTORE DUP3 ISZERO PUSH2 0x2D1F JUMPI SWAP2 DUP3 ADD JUMPDEST DUP3 DUP2 GT ISZERO PUSH2 0x2D1F JUMPI DUP3 CALLDATALOAD DUP3 SSTORE SWAP2 PUSH1 0x20 ADD SWAP2 SWAP1 PUSH1 0x1 ADD SWAP1 PUSH2 0x2D04 JUMP JUMPDEST POP PUSH2 0x2D2B SWAP3 SWAP2 POP PUSH2 0x2D2F JUMP JUMPDEST POP SWAP1 JUMP JUMPDEST JUMPDEST DUP1 DUP3 GT ISZERO PUSH2 0x2D2B JUMPI PUSH1 0x0 DUP2 SSTORE PUSH1 0x1 ADD PUSH2 0x2D30 JUMP JUMPDEST DUP1 CALLDATALOAD PUSH2 0x6CE DUP2 PUSH2 0x3EBA JUMP JUMPDEST PUSH1 0x0 DUP1 DUP4 PUSH1 0x1F DUP5 ADD SLT PUSH2 0x2D60 JUMPI DUP2 DUP3 REVERT JUMPDEST POP DUP2 CALLDATALOAD PUSH8 0xFFFFFFFFFFFFFFFF DUP2 GT ISZERO PUSH2 0x2D77 JUMPI DUP2 DUP3 REVERT JUMPDEST PUSH1 0x20 DUP4 ADD SWAP2 POP DUP4 PUSH1 0x20 DUP1 DUP4 MUL DUP6 ADD ADD GT ISZERO PUSH2 0x2D91 JUMPI PUSH1 0x0 DUP1 REVERT JUMPDEST SWAP3 POP SWAP3 SWAP1 POP JUMP JUMPDEST DUP1 CALLDATALOAD DUP1 ISZERO ISZERO DUP2 EQ PUSH2 0x6CE JUMPI PUSH1 0x0 DUP1 REVERT JUMPDEST PUSH1 0x0 DUP1 DUP4 PUSH1 0x1F DUP5 ADD SLT PUSH2 0x2DB9 JUMPI DUP2 DUP3 REVERT JUMPDEST POP DUP2 CALLDATALOAD PUSH8 0xFFFFFFFFFFFFFFFF DUP2 GT ISZERO PUSH2 0x2DD0 JUMPI DUP2 DUP3 REVERT JUMPDEST PUSH1 0x20 DUP4 ADD SWAP2 POP DUP4 PUSH1 0x20 DUP3 DUP6 ADD ADD GT ISZERO PUSH2 0x2D91 JUMPI PUSH1 0x0 DUP1 REVERT JUMPDEST PUSH1 0x0 PUSH1 0x20 DUP3 DUP5 SUB SLT ISZERO PUSH2 0x2DF9 JUMPI DUP1 DUP2 REVERT JUMPDEST DUP2 CALLDATALOAD PUSH2 0xBDD DUP2 PUSH2 0x3EBA JUMP JUMPDEST PUSH1 0x0 DUP1 PUSH1 0x40 DUP4 DUP6 SUB SLT ISZERO PUSH2 0x2E16 JUMPI DUP1 DUP2 REVERT JUMPDEST DUP3 CALLDATALOAD PUSH2 0x2E21 DUP2 PUSH2 0x3EBA JUMP JUMPDEST SWAP2 POP PUSH1 0x20 DUP4 ADD CALLDATALOAD PUSH2 0x2E31 DUP2 PUSH2 0x3EBA JUMP JUMPDEST DUP1 SWAP2 POP POP SWAP3 POP SWAP3 SWAP1 POP JUMP JUMPDEST PUSH1 0x0 DUP1 PUSH1 0x0 PUSH1 0x60 DUP5 DUP7 SUB SLT ISZERO PUSH2 0x2E50 JUMPI DUP1 DUP2 REVERT JUMPDEST DUP4 CALLDATALOAD PUSH2 0x2E5B DUP2 PUSH2 0x3EBA JUMP JUMPDEST SWAP3 POP PUSH1 0x20 DUP5 ADD CALLDATALOAD PUSH2 0x2E6B DUP2 PUSH2 0x3EBA JUMP JUMPDEST SWAP3 SWAP6 SWAP3 SWAP5 POP POP POP PUSH1 0x40 SWAP2 SWAP1 SWAP2 ADD CALLDATALOAD SWAP1 JUMP JUMPDEST PUSH1 0x0 DUP1 PUSH1 0x0 DUP1 PUSH1 0x0 DUP1 PUSH1 0x0 PUSH1 0xE0 DUP9 DUP11 SUB SLT ISZERO PUSH2 0x2E96 JUMPI DUP3 DUP4 REVERT JUMPDEST DUP8 CALLDATALOAD PUSH2 0x2EA1 DUP2 PUSH2 0x3EBA JUMP JUMPDEST SWAP7 POP PUSH1 0x20 DUP9 ADD CALLDATALOAD PUSH2 0x2EB1 DUP2 PUSH2 0x3EBA JUMP JUMPDEST SWAP6 POP PUSH1 0x40 DUP9 ADD CALLDATALOAD SWAP5 POP PUSH1 0x60 DUP9 ADD CALLDATALOAD SWAP4 POP PUSH1 0x80 DUP9 ADD CALLDATALOAD PUSH1 0xFF DUP2 AND DUP2 EQ PUSH2 0x2ED4 JUMPI DUP4 DUP5 REVERT JUMPDEST SWAP7 SWAP10 SWAP6 SWAP9 POP SWAP4 SWAP7 SWAP3 SWAP6 SWAP5 PUSH1 0xA0 DUP5 ADD CALLDATALOAD SWAP5 POP PUSH1 0xC0 SWAP1 SWAP4 ADD CALLDATALOAD SWAP3 SWAP2 POP POP JUMP JUMPDEST PUSH1 0x0 DUP1 PUSH1 0x0 PUSH1 0x40 DUP5 DUP7 SUB SLT ISZERO PUSH2 0x2F05 JUMPI DUP1 DUP2 REVERT JUMPDEST DUP4 CALLDATALOAD PUSH2 0x2F10 DUP2 PUSH2 0x3EBA JUMP JUMPDEST SWAP3 POP PUSH1 0x20 DUP5 ADD CALLDATALOAD PUSH8 0xFFFFFFFFFFFFFFFF DUP2 GT ISZERO PUSH2 0x2F2B JUMPI DUP2 DUP3 REVERT JUMPDEST PUSH2 0x2F37 DUP7 DUP3 DUP8 ADD PUSH2 0x2D4F JUMP JUMPDEST SWAP5 SWAP8 SWAP1 SWAP7 POP SWAP4 SWAP5 POP POP POP POP JUMP JUMPDEST PUSH1 0x0 DUP1 PUSH1 0x40 DUP4 DUP6 SUB SLT ISZERO PUSH2 0x2F56 JUMPI DUP2 DUP3 REVERT JUMPDEST DUP3 CALLDATALOAD PUSH2 0x2F61 DUP2 PUSH2 0x3EBA JUMP JUMPDEST SWAP5 PUSH1 0x20 SWAP4 SWAP1 SWAP4 ADD CALLDATALOAD SWAP4 POP POP POP JUMP JUMPDEST PUSH1 0x0 DUP1 PUSH1 0x20 DUP4 DUP6 SUB SLT ISZERO PUSH2 0x2F81 JUMPI DUP2 DUP3 REVERT JUMPDEST DUP3 CALLDATALOAD PUSH8 0xFFFFFFFFFFFFFFFF DUP2 GT ISZERO PUSH2 0x2F97 JUMPI DUP3 DUP4 REVERT JUMPDEST PUSH2 0x2FA3 DUP6 DUP3 DUP7 ADD PUSH2 0x2D4F JUMP JUMPDEST SWAP1 SWAP7 SWAP1 SWAP6 POP SWAP4 POP POP POP POP JUMP JUMPDEST PUSH1 0x0 PUSH1 0x20 DUP1 DUP4 DUP6 SUB SLT ISZERO PUSH2 0x2FC1 JUMPI DUP2 DUP3 REVERT JUMPDEST DUP3 MLOAD PUSH8 0xFFFFFFFFFFFFFFFF DUP2 GT ISZERO PUSH2 0x2FD7 JUMPI DUP3 DUP4 REVERT JUMPDEST DUP4 ADD PUSH1 0x1F DUP2 ADD DUP6 SGT PUSH2 0x2FE7 JUMPI DUP3 DUP4 REVERT JUMPDEST DUP1 MLOAD PUSH2 0x2FFA PUSH2 0x2FF5 DUP3 PUSH2 0x3D85 JUMP JUMPDEST PUSH2 0x3D54 JUMP JUMPDEST DUP2 DUP2 MSTORE DUP4 DUP2 ADD SWAP1 DUP4 DUP6 ADD DUP6 DUP5 MUL DUP6 ADD DUP7 ADD DUP10 LT ISZERO PUSH2 0x3016 JUMPI DUP7 DUP8 REVERT JUMPDEST DUP7 SWAP5 POP JUMPDEST DUP4 DUP6 LT ISZERO PUSH2 0x3041 JUMPI DUP1 MLOAD PUSH2 0x302D DUP2 PUSH2 0x3EBA JUMP JUMPDEST DUP4 MSTORE PUSH1 0x1 SWAP5 SWAP1 SWAP5 ADD SWAP4 SWAP2 DUP6 ADD SWAP2 DUP6 ADD PUSH2 0x301A JUMP JUMPDEST POP SWAP8 SWAP7 POP POP POP POP POP POP POP JUMP JUMPDEST PUSH1 0x0 DUP1 PUSH1 0x20 DUP4 DUP6 SUB SLT ISZERO PUSH2 0x305F JUMPI DUP2 DUP3 REVERT JUMPDEST DUP3 CALLDATALOAD PUSH8 0xFFFFFFFFFFFFFFFF DUP1 DUP3 GT ISZERO PUSH2 0x3076 JUMPI DUP4 DUP5 REVERT JUMPDEST DUP2 DUP6 ADD SWAP2 POP DUP6 PUSH1 0x1F DUP4 ADD SLT PUSH2 0x3089 JUMPI DUP4 DUP5 REVERT JUMPDEST DUP2 CALLDATALOAD DUP2 DUP2 GT ISZERO PUSH2 0x3097 JUMPI DUP5 DUP6 REVERT JUMPDEST DUP7 PUSH1 0x20 PUSH1 0xC0 DUP4 MUL DUP6 ADD ADD GT ISZERO PUSH2 0x30AB JUMPI DUP5 DUP6 REVERT JUMPDEST PUSH1 0x20 SWAP3 SWAP1 SWAP3 ADD SWAP7 SWAP2 SWAP6 POP SWAP1 SWAP4 POP POP POP POP JUMP JUMPDEST PUSH1 0x0 PUSH1 0x20 DUP1 DUP4 DUP6 SUB SLT ISZERO PUSH2 0x30CF JUMPI DUP2 DUP3 REVERT JUMPDEST DUP3 CALLDATALOAD PUSH8 0xFFFFFFFFFFFFFFFF DUP2 GT ISZERO PUSH2 0x30E5 JUMPI DUP3 DUP4 REVERT JUMPDEST DUP4 ADD PUSH1 0x1F DUP2 ADD DUP6 SGT PUSH2 0x30F5 JUMPI DUP3 DUP4 REVERT JUMPDEST DUP1 CALLDATALOAD PUSH2 0x3103 PUSH2 0x2FF5 DUP3 PUSH2 0x3D85 JUMP JUMPDEST DUP2 DUP2 MSTORE DUP4 DUP2 ADD SWAP1 DUP4 DUP6 ADD PUSH1 0x40 DUP1 DUP6 MUL DUP7 ADD DUP8 ADD DUP11 LT ISZERO PUSH2 0x3121 JUMPI DUP8 DUP9 REVERT JUMPDEST DUP8 SWAP6 POP JUMPDEST DUP5 DUP7 LT ISZERO PUSH2 0x3178 JUMPI DUP1 DUP3 DUP12 SUB SLT ISZERO PUSH2 0x313B JUMPI DUP8 DUP9 REVERT JUMPDEST PUSH2 0x3144 DUP2 PUSH2 0x3D54 JUMP JUMPDEST DUP3 CALLDATALOAD PUSH2 0x314F DUP2 PUSH2 0x3EBA JUMP JUMPDEST DUP2 MSTORE DUP3 DUP9 ADD CALLDATALOAD PUSH2 0x315E DUP2 PUSH2 0x3EBA JUMP JUMPDEST DUP2 DUP10 ADD MSTORE DUP5 MSTORE PUSH1 0x1 SWAP6 SWAP1 SWAP6 ADD SWAP5 SWAP3 DUP7 ADD SWAP3 SWAP1 DUP2 ADD SWAP1 PUSH2 0x3125 JUMP JUMPDEST POP SWAP1 SWAP9 SWAP8 POP POP POP POP POP POP POP POP JUMP JUMPDEST PUSH1 0x0 PUSH1 0x20 DUP1 DUP4 DUP6 SUB SLT ISZERO PUSH2 0x3198 JUMPI DUP2 DUP3 REVERT JUMPDEST DUP3 MLOAD PUSH8 0xFFFFFFFFFFFFFFFF DUP2 GT ISZERO PUSH2 0x31AE JUMPI DUP3 DUP4 REVERT JUMPDEST DUP4 ADD PUSH1 0x1F DUP2 ADD DUP6 SGT PUSH2 0x31BE JUMPI DUP3 DUP4 REVERT JUMPDEST DUP1 MLOAD PUSH2 0x31CC PUSH2 0x2FF5 DUP3 PUSH2 0x3D85 JUMP JUMPDEST DUP2 DUP2 MSTORE DUP4 DUP2 ADD SWAP1 DUP4 DUP6 ADD PUSH1 0x40 DUP1 DUP6 MUL DUP7 ADD DUP8 ADD DUP11 LT ISZERO PUSH2 0x31EA JUMPI DUP8 DUP9 REVERT JUMPDEST DUP8 SWAP6 POP JUMPDEST DUP5 DUP7 LT ISZERO PUSH2 0x3178 JUMPI DUP1 DUP3 DUP12 SUB SLT ISZERO PUSH2 0x3204 JUMPI DUP8 DUP9 REVERT JUMPDEST PUSH2 0x320D DUP2 PUSH2 0x3D54 JUMP JUMPDEST DUP3 MLOAD PUSH2 0x3218 DUP2 PUSH2 0x3EBA JUMP JUMPDEST DUP2 MSTORE DUP3 DUP9 ADD MLOAD DUP9 DUP3 ADD MSTORE DUP5 MSTORE PUSH1 0x1 SWAP6 SWAP1 SWAP6 ADD SWAP5 SWAP3 DUP7 ADD SWAP3 SWAP1 DUP2 ADD SWAP1 PUSH2 0x31EE JUMP JUMPDEST PUSH1 0x0 PUSH1 0x20 DUP3 DUP5 SUB SLT ISZERO PUSH2 0x3249 JUMPI DUP1 DUP2 REVERT JUMPDEST PUSH2 0xBDD DUP3 PUSH2 0x2D98 JUMP JUMPDEST PUSH1 0x0 PUSH1 0x20 DUP3 DUP5 SUB SLT ISZERO PUSH2 0x3263 JUMPI DUP1 DUP2 REVERT JUMPDEST POP CALLDATALOAD SWAP2 SWAP1 POP JUMP JUMPDEST PUSH1 0x0 DUP1 PUSH1 0x40 DUP4 DUP6 SUB SLT ISZERO PUSH2 0x327C JUMPI DUP2 DUP3 REVERT JUMPDEST DUP3 CALLDATALOAD SWAP2 POP PUSH1 0x20 DUP4 ADD CALLDATALOAD PUSH2 0x2E31 DUP2 PUSH2 0x3EBA JUMP JUMPDEST PUSH1 0x0 DUP1 PUSH1 0x40 DUP4 DUP6 SUB SLT ISZERO PUSH2 0x32A0 JUMPI DUP2 DUP3 REVERT JUMPDEST POP POP DUP1 CALLDATALOAD SWAP3 PUSH1 0x20 SWAP1 SWAP2 ADD CALLDATALOAD SWAP2 POP JUMP JUMPDEST PUSH1 0x0 PUSH1 0x20 DUP3 DUP5 SUB SLT ISZERO PUSH2 0x32C0 JUMPI DUP1 DUP2 REVERT JUMPDEST DUP2 CALLDATALOAD PUSH1 0x1 PUSH1 0x1 PUSH1 0xE0 SHL SUB NOT DUP2 AND DUP2 EQ PUSH2 0xBDD JUMPI DUP2 DUP3 REVERT JUMPDEST PUSH1 0x0 DUP1 PUSH1 0x0 DUP1 PUSH1 0x40 DUP6 DUP8 SUB SLT ISZERO PUSH2 0x32EC JUMPI DUP2 DUP3 REVERT JUMPDEST DUP5 CALLDATALOAD PUSH8 0xFFFFFFFFFFFFFFFF DUP1 DUP3 GT ISZERO PUSH2 0x3303 JUMPI DUP4 DUP5 REVERT JUMPDEST PUSH2 0x330F DUP9 DUP4 DUP10 ADD PUSH2 0x2DA8 JUMP JUMPDEST SWAP1 SWAP7 POP SWAP5 POP PUSH1 0x20 DUP8 ADD CALLDATALOAD SWAP2 POP DUP1 DUP3 GT ISZERO PUSH2 0x3327 JUMPI DUP4 DUP5 REVERT JUMPDEST POP PUSH2 0x3334 DUP8 DUP3 DUP9 ADD PUSH2 0x2DA8 JUMP JUMPDEST SWAP6 SWAP9 SWAP5 SWAP8 POP SWAP6 POP POP POP POP JUMP JUMPDEST PUSH1 0x0 PUSH1 0x80 DUP3 DUP5 SUB SLT ISZERO PUSH2 0x3351 JUMPI DUP1 DUP2 REVERT JUMPDEST PUSH2 0x335B PUSH1 0x80 PUSH2 0x3D54 JUMP JUMPDEST DUP3 MLOAD DUP2 MSTORE PUSH1 0x20 DUP4 ADD MLOAD PUSH1 0x20 DUP3 ADD MSTORE PUSH1 0x40 DUP4 ADD MLOAD PUSH1 0x40 DUP3 ADD MSTORE PUSH1 0x60 DUP4 ADD MLOAD PUSH1 0x60 DUP3 ADD MSTORE DUP1 SWAP2 POP POP SWAP3 SWAP2 POP POP JUMP JUMPDEST PUSH1 0x0 PUSH1 0x20 DUP3 DUP5 SUB SLT ISZERO PUSH2 0x3398 JUMPI DUP1 DUP2 REVERT JUMPDEST POP MLOAD SWAP2 SWAP1 POP JUMP JUMPDEST PUSH1 0x1 PUSH1 0x1 PUSH1 0xA0 SHL SUB AND SWAP1 MSTORE JUMP JUMPDEST PUSH1 0x0 DUP3 DUP5 MSTORE PUSH1 0x20 DUP1 DUP6 ADD SWAP5 POP DUP3 DUP3 JUMPDEST DUP6 DUP2 LT ISZERO PUSH2 0x33E9 JUMPI DUP2 CALLDATALOAD PUSH2 0x33CE DUP2 PUSH2 0x3EBA JUMP JUMPDEST PUSH1 0x1 PUSH1 0x1 PUSH1 0xA0 SHL SUB AND DUP8 MSTORE SWAP6 DUP3 ADD SWAP6 SWAP1 DUP3 ADD SWAP1 PUSH1 0x1 ADD PUSH2 0x33BB JUMP JUMPDEST POP SWAP5 SWAP6 SWAP5 POP POP POP POP POP JUMP JUMPDEST PUSH2 0x1901 PUSH1 0xF0 SHL DUP2 MSTORE PUSH1 0x2 DUP2 ADD SWAP3 SWAP1 SWAP3 MSTORE PUSH1 0x22 DUP3 ADD MSTORE PUSH1 0x42 ADD SWAP1 JUMP JUMPDEST PUSH1 0x0 PUSH32 0x416363657373436F6E74726F6C3A206163636F756E7420000000000000000000 DUP3 MSTORE DUP4 MLOAD PUSH2 0x3447 DUP2 PUSH1 0x17 DUP6 ADD PUSH1 0x20 DUP9 ADD PUSH2 0x3DF7 JUMP JUMPDEST PUSH17 0x1034B99036B4B9B9B4B733903937B6329 PUSH1 0x7D SHL PUSH1 0x17 SWAP2 DUP5 ADD SWAP2 DUP3 ADD MSTORE DUP4 MLOAD PUSH2 0x3478 DUP2 PUSH1 0x28 DUP5 ADD PUSH1 0x20 DUP9 ADD PUSH2 0x3DF7 JUMP JUMPDEST ADD PUSH1 0x28 ADD SWAP5 SWAP4 POP POP POP POP JUMP JUMPDEST PUSH1 0x1 PUSH1 0x1 PUSH1 0xA0 SHL SUB SWAP2 SWAP1 SWAP2 AND DUP2 MSTORE PUSH1 0x20 ADD SWAP1 JUMP JUMPDEST PUSH1 0x1 PUSH1 0x1 PUSH1 0xA0 SHL SUB SWAP3 DUP4 AND DUP2 MSTORE SWAP2 AND PUSH1 0x20 DUP3 ADD MSTORE PUSH1 0x40 ADD SWAP1 JUMP JUMPDEST PUSH1 0x1 PUSH1 0x1 PUSH1 0xA0 SHL SUB SWAP4 DUP5 AND DUP2 MSTORE SWAP2 SWAP1 SWAP3 AND PUSH1 0x20 DUP3 ADD MSTORE PUSH1 0x40 DUP2 ADD SWAP2 SWAP1 SWAP2 MSTORE PUSH1 0x60 ADD SWAP1 JUMP JUMPDEST PUSH1 0x1 PUSH1 0x1 PUSH1 0xA0 SHL SUB DUP5 AND DUP2 MSTORE PUSH1 0x40 PUSH1 0x20 DUP3 ADD DUP2 SWAP1 MSTORE PUSH1 0x0 SWAP1 PUSH2 0x69D SWAP1 DUP4 ADD DUP5 DUP7 PUSH2 0x33AC JUMP JUMPDEST PUSH1 0x1 PUSH1 0x1 PUSH1 0xA0 SHL SUB SWAP3 SWAP1 SWAP3 AND DUP3 MSTORE PUSH1 0x20 DUP3 ADD MSTORE PUSH1 0x40 ADD SWAP1 JUMP JUMPDEST PUSH1 0x0 PUSH1 0x20 DUP3 MSTORE PUSH2 0xEFB PUSH1 0x20 DUP4 ADD DUP5 DUP7 PUSH2 0x33AC JUMP JUMPDEST PUSH1 0x20 DUP1 DUP3 MSTORE DUP3 MLOAD DUP3 DUP3 ADD DUP2 SWAP1 MSTORE PUSH1 0x0 SWAP2 SWAP1 DUP5 DUP3 ADD SWAP1 PUSH1 0x40 DUP6 ADD SWAP1 DUP5 JUMPDEST DUP2 DUP2 LT ISZERO PUSH2 0x3569 JUMPI DUP4 MLOAD PUSH1 0x1 PUSH1 0x1 PUSH1 0xA0 SHL SUB AND DUP4 MSTORE SWAP3 DUP5 ADD SWAP3 SWAP2 DUP5 ADD SWAP2 PUSH1 0x1 ADD PUSH2 0x3544 JUMP JUMPDEST POP SWAP1 SWAP7 SWAP6 POP POP POP POP POP POP JUMP JUMPDEST PUSH1 0x20 DUP1 DUP3 MSTORE DUP2 DUP2 ADD DUP4 SWAP1 MSTORE PUSH1 0x0 SWAP1 PUSH1 0x40 DUP1 DUP5 ADD DUP7 DUP5 JUMPDEST DUP8 DUP2 LT ISZERO PUSH2 0x3616 JUMPI PUSH2 0x359C DUP3 PUSH2 0x2D98 JUMP JUMPDEST ISZERO ISZERO DUP4 MSTORE PUSH2 0x35AB DUP6 DUP4 ADD PUSH2 0x2D98 JUMP JUMPDEST ISZERO ISZERO DUP6 DUP5 ADD MSTORE PUSH2 0x35BC DUP5 DUP4 ADD PUSH2 0x2D98 JUMP JUMPDEST ISZERO ISZERO DUP5 DUP5 ADD MSTORE PUSH1 0x60 PUSH2 0x35CF DUP2 DUP5 ADD PUSH2 0x2D98 JUMP JUMPDEST ISZERO ISZERO SWAP1 DUP5 ADD MSTORE PUSH1 0x80 PUSH2 0x35E2 DUP4 DUP3 ADD PUSH2 0x2D98 JUMP JUMPDEST ISZERO ISZERO SWAP1 DUP5 ADD MSTORE PUSH1 0xA0 PUSH2 0x35F5 DUP4 DUP3 ADD PUSH2 0x2D44 JUMP JUMPDEST PUSH2 0x3601 DUP3 DUP7 ADD DUP3 PUSH2 0x339F JUMP JUMPDEST POP POP PUSH1 0xC0 SWAP3 DUP4 ADD SWAP3 SWAP2 SWAP1 SWAP2 ADD SWAP1 PUSH1 0x1 ADD PUSH2 0x358B JUMP JUMPDEST POP SWAP1 SWAP8 SWAP7 POP POP POP POP POP POP POP JUMP JUMPDEST PUSH1 0x20 DUP1 DUP3 MSTORE DUP3 MLOAD DUP3 DUP3 ADD DUP2 SWAP1 MSTORE PUSH1 0x0 SWAP2 SWAP1 PUSH1 0x40 SWAP1 DUP2 DUP6 ADD SWAP1 DUP7 DUP5 ADD DUP6 JUMPDEST DUP3 DUP2 LT ISZERO PUSH2 0x366E JUMPI DUP2 MLOAD DUP1 MLOAD PUSH1 0x1 PUSH1 0x1 PUSH1 0xA0 SHL SUB AND DUP6 MSTORE DUP7 ADD MLOAD DUP7 DUP6 ADD MSTORE SWAP3 DUP5 ADD SWAP3 SWAP1 DUP6 ADD SWAP1 PUSH1 0x1 ADD PUSH2 0x3640 JUMP JUMPDEST POP SWAP2 SWAP8 SWAP7 POP POP POP POP POP POP POP JUMP JUMPDEST SWAP1 ISZERO ISZERO DUP2 MSTORE PUSH1 0x20 ADD SWAP1 JUMP JUMPDEST SWAP3 ISZERO ISZERO DUP4 MSTORE PUSH1 0x1 PUSH1 0x1 PUSH1 0xA0 SHL SUB SWAP2 SWAP1 SWAP2 AND PUSH1 0x20 DUP4 ADD MSTORE PUSH1 0x40 DUP3 ADD MSTORE PUSH1 0x60 ADD SWAP1 JUMP JUMPDEST SWAP1 DUP2 MSTORE PUSH1 0x20 ADD SWAP1 JUMP JUMPDEST SWAP6 DUP7 MSTORE PUSH1 0x1 PUSH1 0x1 PUSH1 0xA0 SHL SUB SWAP5 DUP6 AND PUSH1 0x20 DUP8 ADD MSTORE SWAP3 SWAP1 SWAP4 AND PUSH1 0x40 DUP6 ADD MSTORE PUSH1 0x60 DUP5 ADD MSTORE PUSH1 0x80 DUP4 ADD SWAP2 SWAP1 SWAP2 MSTORE PUSH1 0xA0 DUP3 ADD MSTORE PUSH1 0xC0 ADD SWAP1 JUMP JUMPDEST SWAP5 DUP6 MSTORE PUSH1 0x20 DUP6 ADD SWAP4 SWAP1 SWAP4 MSTORE PUSH1 0x40 DUP5 ADD SWAP2 SWAP1 SWAP2 MSTORE PUSH1 0x60 DUP4 ADD MSTORE PUSH1 0x1 PUSH1 0x1 PUSH1 0xA0 SHL SUB AND PUSH1 0x80 DUP3 ADD MSTORE PUSH1 0xA0 ADD SWAP1 JUMP JUMPDEST SWAP4 DUP5 MSTORE PUSH1 0xFF SWAP3 SWAP1 SWAP3 AND PUSH1 0x20 DUP5 ADD MSTORE PUSH1 0x40 DUP4 ADD MSTORE PUSH1 0x60 DUP3 ADD MSTORE PUSH1 0x80 ADD SWAP1 JUMP JUMPDEST PUSH1 0x0 PUSH1 0x20 DUP3 MSTORE DUP3 MLOAD DUP1 PUSH1 0x20 DUP5 ADD MSTORE PUSH2 0x374D DUP2 PUSH1 0x40 DUP6 ADD PUSH1 0x20 DUP8 ADD PUSH2 0x3DF7 JUMP JUMPDEST PUSH1 0x1F ADD PUSH1 0x1F NOT AND SWAP2 SWAP1 SWAP2 ADD PUSH1 0x40 ADD SWAP3 SWAP2 POP POP JUMP JUMPDEST PUSH1 0x20 DUP1 DUP3 MSTORE PUSH1 0x18 SWAP1 DUP3 ADD MSTORE PUSH32 0x45434453413A20696E76616C6964207369676E61747572650000000000000000 PUSH1 0x40 DUP3 ADD MSTORE PUSH1 0x60 ADD SWAP1 JUMP JUMPDEST PUSH1 0x20 DUP1 DUP3 MSTORE DUP2 DUP2 ADD MSTORE PUSH32 0x537472696E67733A20686578206C656E67746820696E73756666696369656E74 PUSH1 0x40 DUP3 ADD MSTORE PUSH1 0x60 ADD SWAP1 JUMP JUMPDEST PUSH1 0x20 DUP1 DUP3 MSTORE PUSH1 0x1A SWAP1 DUP3 ADD MSTORE PUSH32 0x44656669466163746F7279546F6B656E3A202172657761726473000000000000 PUSH1 0x40 DUP3 ADD MSTORE PUSH1 0x60 ADD SWAP1 JUMP JUMPDEST PUSH1 0x20 DUP1 DUP3 MSTORE PUSH1 0x34 SWAP1 DUP3 ADD MSTORE PUSH32 0x44656669466163746F7279546F6B656E3A2021524F4C455F414C4C4F5745445F PUSH1 0x40 DUP3 ADD MSTORE PUSH20 0x1513D7D4D1539117D5D212531157D4105554D151 PUSH1 0x62 SHL PUSH1 0x60 DUP3 ADD MSTORE PUSH1 0x80 ADD SWAP1 JUMP JUMPDEST PUSH1 0x20 DUP1 DUP3 MSTORE PUSH1 0x17 SWAP1 DUP3 ADD MSTORE PUSH32 0x44656669466163746F7279546F6B656E3A202173656C66000000000000000000 PUSH1 0x40 DUP3 ADD MSTORE PUSH1 0x60 ADD SWAP1 JUMP JUMPDEST PUSH1 0x20 DUP1 DUP3 MSTORE PUSH1 0x22 SWAP1 DUP3 ADD MSTORE PUSH32 0x45524332303A20617070726F766520746F20746865207A65726F206164647265 PUSH1 0x40 DUP3 ADD MSTORE PUSH2 0x7373 PUSH1 0xF0 SHL PUSH1 0x60 DUP3 ADD MSTORE PUSH1 0x80 ADD SWAP1 JUMP JUMPDEST PUSH1 0x20 DUP1 DUP3 MSTORE PUSH1 0x1D SWAP1 DUP3 ADD MSTORE PUSH32 0x44656669466163746F7279546F6B656E3A2021524F4C455F5441584552000000 PUSH1 0x40 DUP3 ADD MSTORE PUSH1 0x60 ADD SWAP1 JUMP JUMPDEST PUSH1 0x20 DUP1 DUP3 MSTORE PUSH1 0x1D SWAP1 DUP3 ADD MSTORE PUSH32 0x44656669466163746F7279546F6B656E3A2021524F4C455F41444D494E000000 PUSH1 0x40 DUP3 ADD MSTORE PUSH1 0x60 ADD SWAP1 JUMP JUMPDEST PUSH1 0x20 DUP1 DUP3 MSTORE PUSH1 0x1D SWAP1 DUP3 ADD MSTORE PUSH32 0x45524332305065726D69743A206578706972656420646561646C696E65000000 PUSH1 0x40 DUP3 ADD MSTORE PUSH1 0x60 ADD SWAP1 JUMP JUMPDEST PUSH1 0x20 DUP1 DUP3 MSTORE PUSH1 0x22 SWAP1 DUP3 ADD MSTORE PUSH32 0x45434453413A20696E76616C6964207369676E6174757265202773272076616C PUSH1 0x40 DUP3 ADD MSTORE PUSH2 0x7565 PUSH1 0xF0 SHL PUSH1 0x60 DUP3 ADD MSTORE PUSH1 0x80 ADD SWAP1 JUMP JUMPDEST PUSH1 0x20 DUP1 DUP3 MSTORE PUSH1 0x19 SWAP1 DUP3 ADD MSTORE PUSH32 0x44656669466163746F7279546F6B656E3A2021616D6F756E7400000000000000 PUSH1 0x40 DUP3 ADD MSTORE PUSH1 0x60 ADD SWAP1 JUMP JUMPDEST PUSH1 0x20 DUP1 DUP3 MSTORE PUSH1 0x1E SWAP1 DUP3 ADD MSTORE PUSH32 0x44656669466163746F7279546F6B656E3A2021524F4C455F4255524E45520000 PUSH1 0x40 DUP3 ADD MSTORE PUSH1 0x60 ADD SWAP1 JUMP JUMPDEST PUSH1 0x20 DUP1 DUP3 MSTORE PUSH1 0x22 SWAP1 DUP3 ADD MSTORE PUSH32 0x45434453413A20696E76616C6964207369676E6174757265202776272076616C PUSH1 0x40 DUP3 ADD MSTORE PUSH2 0x7565 PUSH1 0xF0 SHL PUSH1 0x60 DUP3 ADD MSTORE PUSH1 0x80 ADD SWAP1 JUMP JUMPDEST PUSH1 0x20 DUP1 DUP3 MSTORE PUSH1 0x22 SWAP1 DUP3 ADD MSTORE PUSH32 0x44656669466163746F7279546F6B656E3A2021524F4C455F5452414E53464552 PUSH1 0x40 DUP3 ADD MSTORE PUSH2 0x22A9 PUSH1 0xF1 SHL PUSH1 0x60 DUP3 ADD MSTORE PUSH1 0x80 ADD SWAP1 JUMP JUMPDEST PUSH1 0x20 DUP1 DUP3 MSTORE PUSH1 0x1E SWAP1 DUP3 ADD MSTORE PUSH32 0x45524332305065726D69743A20696E76616C6964207369676E61747572650000 PUSH1 0x40 DUP3 ADD MSTORE PUSH1 0x60 ADD SWAP1 JUMP JUMPDEST PUSH1 0x20 DUP1 DUP3 MSTORE PUSH1 0x28 SWAP1 DUP3 ADD MSTORE PUSH32 0x45524332303A207472616E7366657220616D6F756E7420657863656564732061 PUSH1 0x40 DUP3 ADD MSTORE PUSH8 0x6C6C6F77616E6365 PUSH1 0xC0 SHL PUSH1 0x60 DUP3 ADD MSTORE PUSH1 0x80 ADD SWAP1 JUMP JUMPDEST PUSH1 0x20 DUP1 DUP3 MSTORE PUSH1 0x24 SWAP1 DUP3 ADD MSTORE PUSH32 0x45524332303A20617070726F76652066726F6D20746865207A65726F20616464 PUSH1 0x40 DUP3 ADD MSTORE PUSH4 0x72657373 PUSH1 0xE0 SHL PUSH1 0x60 DUP3 ADD MSTORE PUSH1 0x80 ADD SWAP1 JUMP JUMPDEST PUSH1 0x20 DUP1 DUP3 MSTORE PUSH1 0x17 SWAP1 DUP3 ADD MSTORE PUSH32 0x44656669466163746F7279546F6B656E3A20216275726E000000000000000000 PUSH1 0x40 DUP3 ADD MSTORE PUSH1 0x60 ADD SWAP1 JUMP JUMPDEST PUSH1 0x20 DUP1 DUP3 MSTORE PUSH1 0x23 SWAP1 DUP3 ADD MSTORE PUSH32 0x44656669466163746F7279546F6B656E3A202156455354494E475F434F4E5452 PUSH1 0x40 DUP3 ADD MSTORE PUSH3 0x1050D5 PUSH1 0xEA SHL PUSH1 0x60 DUP3 ADD MSTORE PUSH1 0x80 ADD SWAP1 JUMP JUMPDEST PUSH1 0x20 DUP1 DUP3 MSTORE PUSH1 0x25 SWAP1 DUP3 ADD MSTORE PUSH32 0x45524332303A2064656372656173656420616C6C6F77616E63652062656C6F77 PUSH1 0x40 DUP3 ADD MSTORE PUSH5 0x207A65726F PUSH1 0xD8 SHL PUSH1 0x60 DUP3 ADD MSTORE PUSH1 0x80 ADD SWAP1 JUMP JUMPDEST PUSH1 0x20 DUP1 DUP3 MSTORE PUSH1 0x23 SWAP1 DUP3 ADD MSTORE PUSH32 0x44656669466163746F7279546F6B656E3A20616D6F756E742067742062616C61 PUSH1 0x40 DUP3 ADD MSTORE PUSH3 0x6E6365 PUSH1 0xE8 SHL PUSH1 0x60 DUP3 ADD MSTORE PUSH1 0x80 ADD SWAP1 JUMP JUMPDEST PUSH1 0x20 DUP1 DUP3 MSTORE PUSH1 0x2F SWAP1 DUP3 ADD MSTORE PUSH32 0x416363657373436F6E74726F6C3A2063616E206F6E6C792072656E6F756E6365 PUSH1 0x40 DUP3 ADD MSTORE PUSH15 0x103937B632B9903337B91039B2B633 PUSH1 0x89 SHL PUSH1 0x60 DUP3 ADD MSTORE PUSH1 0x80 ADD SWAP1 JUMP JUMPDEST PUSH1 0x20 DUP1 DUP3 MSTORE PUSH1 0x1E SWAP1 DUP3 ADD MSTORE PUSH32 0x44656669466163746F7279546F6B656E3A2021524F4C455F4D494E5445520000 PUSH1 0x40 DUP3 ADD MSTORE PUSH1 0x60 ADD SWAP1 JUMP JUMPDEST DUP2 MLOAD PUSH1 0x1 PUSH1 0x1 PUSH1 0xA0 SHL SUB SWAP1 DUP2 AND DUP3 MSTORE PUSH1 0x20 DUP1 DUP5 ADD MLOAD SWAP1 SWAP2 AND SWAP1 DUP3 ADD MSTORE PUSH1 0x40 DUP1 DUP4 ADD MLOAD SWAP1 DUP3 ADD MSTORE PUSH1 0x60 DUP1 DUP4 ADD MLOAD SWAP1 DUP3 ADD MSTORE PUSH1 0x80 SWAP2 DUP3 ADD MLOAD SWAP2 DUP2 ADD SWAP2 SWAP1 SWAP2 MSTORE PUSH1 0xA0 ADD SWAP1 JUMP JUMPDEST SWAP2 DUP3 MSTORE PUSH1 0x20 DUP3 ADD MSTORE PUSH1 0x40 ADD SWAP1 JUMP JUMPDEST PUSH1 0xFF SWAP2 SWAP1 SWAP2 AND DUP2 MSTORE PUSH1 0x20 ADD SWAP1 JUMP JUMPDEST PUSH1 0x40 MLOAD PUSH1 0x1F DUP3 ADD PUSH1 0x1F NOT AND DUP2 ADD PUSH8 0xFFFFFFFFFFFFFFFF DUP2 GT DUP3 DUP3 LT OR ISZERO PUSH2 0x3D7D JUMPI PUSH2 0x3D7D PUSH2 0x3EA4 JUMP JUMPDEST PUSH1 0x40 MSTORE SWAP2 SWAP1 POP JUMP JUMPDEST PUSH1 0x0 PUSH8 0xFFFFFFFFFFFFFFFF DUP3 GT ISZERO PUSH2 0x3D9F JUMPI PUSH2 0x3D9F PUSH2 0x3EA4 JUMP JUMPDEST POP PUSH1 0x20 SWAP1 DUP2 MUL ADD SWAP1 JUMP JUMPDEST PUSH1 0x0 DUP3 NOT DUP3 GT ISZERO PUSH2 0x3DBC JUMPI PUSH2 0x3DBC PUSH2 0x3E8E JUMP JUMPDEST POP ADD SWAP1 JUMP JUMPDEST PUSH1 0x0 DUP2 PUSH1 0x0 NOT DIV DUP4 GT DUP3 ISZERO ISZERO AND ISZERO PUSH2 0x3DDB JUMPI PUSH2 0x3DDB PUSH2 0x3E8E JUMP JUMPDEST POP MUL SWAP1 JUMP JUMPDEST PUSH1 0x0 DUP3 DUP3 LT ISZERO PUSH2 0x3DF2 JUMPI PUSH2 0x3DF2 PUSH2 0x3E8E JUMP JUMPDEST POP SUB SWAP1 JUMP JUMPDEST PUSH1 0x0 JUMPDEST DUP4 DUP2 LT ISZERO PUSH2 0x3E12 JUMPI DUP2 DUP2 ADD MLOAD DUP4 DUP3 ADD MSTORE PUSH1 0x20 ADD PUSH2 0x3DFA JUMP JUMPDEST DUP4 DUP2 GT ISZERO PUSH2 0x3E21 JUMPI PUSH1 0x0 DUP5 DUP5 ADD MSTORE JUMPDEST POP POP POP POP JUMP JUMPDEST PUSH1 0x0 DUP2 PUSH2 0x3E36 JUMPI PUSH2 0x3E36 PUSH2 0x3E8E JUMP JUMPDEST POP PUSH1 0x0 NOT ADD SWAP1 JUMP JUMPDEST PUSH1 0x2 DUP2 DIV PUSH1 0x1 DUP3 AND DUP1 PUSH2 0x3E52 JUMPI PUSH1 0x7F DUP3 AND SWAP2 POP JUMPDEST PUSH1 0x20 DUP3 LT DUP2 EQ ISZERO PUSH2 0x2604 JUMPI PUSH4 0x4E487B71 PUSH1 0xE0 SHL PUSH1 0x0 MSTORE PUSH1 0x22 PUSH1 0x4 MSTORE PUSH1 0x24 PUSH1 0x0 REVERT JUMPDEST PUSH1 0x0 PUSH1 0x0 NOT DUP3 EQ ISZERO PUSH2 0x3E87 JUMPI PUSH2 0x3E87 PUSH2 0x3E8E JUMP JUMPDEST POP PUSH1 0x1 ADD SWAP1 JUMP JUMPDEST PUSH4 0x4E487B71 PUSH1 0xE0 SHL PUSH1 0x0 MSTORE PUSH1 0x11 PUSH1 0x4 MSTORE PUSH1 0x24 PUSH1 0x0 REVERT JUMPDEST PUSH4 0x4E487B71 PUSH1 0xE0 SHL PUSH1 0x0 MSTORE PUSH1 0x41 PUSH1 0x4 MSTORE PUSH1 0x24 PUSH1 0x0 REVERT JUMPDEST PUSH1 0x1 PUSH1 0x1 PUSH1 0xA0 SHL SUB DUP2 AND DUP2 EQ PUSH2 0x99A JUMPI PUSH1 0x0 DUP1 REVERT INVALID 0xB5 0xB5 0xA8 PUSH13 0xC252B1B75A439C6FF372933CEB MOD SWAP1 XOR DUP10 0x24 0xE6 CHAINID GT POP 0xAD 0xEB STOP 0xAB DUP1 0xD8 MUL 0xA8 CHAINID 0x4C RETURNDATACOPY 0x21 0x2C DUP16 LT PUSH5 0x432774C6CC RETURNDATACOPY PUSH23 0xF14BD7CCDAFD9A1D1CF9B43B51E5247E3BDF7D439D01BC OR SWAP8 NOT TIMESTAMP DUP10 0xCC 0xFB 0xB9 EXTCODEHASH SLT 0xC1 PUSH31 0xFE2856C054735D4476425B4BDDF252AD1BE2C89B69C2B068FC378DAA952BA7 CALL PUSH4 0xC4A11628 CREATE2 GAS 0x4D CREATE2 0x23 0xB3 0xEF JUMPI PUSH19 0x712B2943D95A931C0B3A7DDF59CBA41B664500 0xD9 0xB9 CALLDATASIZE 0x26 STOP EXP OR DUP1 SWAP16 DIV 0xD1 0xAE 0xAE DELEGATECALL PUSH2 0x86EB MSIZE 0xF8 DUP5 0xE3 PUSH10 0x29B6D682A6AE35E1E43D DUP16 SDIV CREATE PC 0xDC 0xEF 0xB9 0x2B PUSH1 0x14 PUSH2 0xA264 PUSH10 0x706673582212203E401D 0x5C 0xDD SWAP2 0xEF 0xD5 RETURN 0xC6 0x29 SGT SSTORE PUSH21 0x432F2DBE89BC8E7C5E12D33CE50706FCC02164736F PUSH13 0x63430008010033000000000000 "
		},
		"gasEstimates": {
			"creation": {
				"codeDepositCost": "3265000",
				"executionCost": "infinite",
				"totalCost": "infinite"
			},
			"external": {
				"DOMAIN_SEPARATOR()": "infinite",
				"ROLE_ADMIN()": "272",
				"ROLE_ALLOWED_TO_SEND_WHILE_PAUSED()": "infinite",
				"ROLE_BURNER()": "infinite",
				"ROLE_MINTER()": "infinite",
				"ROLE_TAXER()": "infinite",
				"ROLE_TRANSFERER()": "infinite",
				"allowance(address,address)": "infinite",
				"approve(address,uint256)": "22713",
				"balanceOf(address)": "infinite",
				"burnHumanAddress(address,uint256)": "infinite",
				"chargeCustomTax(address,uint256)": "infinite",
				"claimReferrerRewards(address[])": "infinite",
				"decimals()": "308",
				"decreaseAllowance(address,uint256)": "infinite",
				"filterNonZeroReferrals(address[])": "infinite",
				"getCachedReferrerRewards(address)": "infinite",
				"getCalculatedReferrerRewards(address,address[])": "infinite",
				"getChainId()": "317",
				"getRoleAdmin(bytes32)": "1336",
				"getRoleMember(bytes32,uint256)": "infinite",
				"getRoleMemberCount(bytes32)": "infinite",
				"getTemporaryReferralRealAmountsBulk(address[])": "infinite",
				"getUtilsContractAtPos(uint256)": "2134",
				"getUtilsContractsCount()": "1118",
				"grantRole(bytes32,address)": "infinite",
				"hasRole(bytes32,address)": "1449",
				"increaseAllowance(address,uint256)": "infinite",
				"isPaused()": "1129",
				"mintHumanAddress(address,uint256)": "infinite",
				"name()": "infinite",
				"nonces(address)": "1376",
				"pauseContract()": "22054",
				"permit(address,address,uint256,uint256,uint8,bytes32,bytes32)": "infinite",
				"registerReferral(address)": "infinite",
				"registerReferralsBulk((address,address)[])": "infinite",
				"renounceRole(bytes32,address)": "infinite",
				"resumeContract()": "22136",
				"revokeRole(bytes32,address)": "infinite",
				"supportsInterface(bytes4)": "infinite",
				"symbol()": "infinite",
				"totalSupply()": "infinite",
				"transfer(address,uint256)": "infinite",
				"transferCustom(address,address,uint256)": "infinite",
				"transferFrom(address,address,uint256)": "infinite",
				"transferFromTeamVestingContract(address,uint256)": "infinite",
				"updateNameAndSymbol(string,string)": "infinite",
				"updateUtilsContracts((bool,bool,bool,bool,bool,address)[])": "infinite"
			},
			"internal": {
				"_burnHumanAddress(address,uint256)": "infinite",
				"_mintHumanAddress(address,uint256)": "infinite",
				"_transfer(address,address,uint256)": "infinite"
			}
		},
		"methodIdentifiers": {
			"DOMAIN_SEPARATOR()": "3644e515",
			"ROLE_ADMIN()": "d391014b",
			"ROLE_ALLOWED_TO_SEND_WHILE_PAUSED()": "d963f0cd",
			"ROLE_BURNER()": "54ff02d8",
			"ROLE_MINTER()": "92afc33a",
			"ROLE_TAXER()": "97c1d32f",
			"ROLE_TRANSFERER()": "8493712a",
			"allowance(address,address)": "dd62ed3e",
			"approve(address,uint256)": "095ea7b3",
			"balanceOf(address)": "70a08231",
			"burnHumanAddress(address,uint256)": "18a8ad87",
			"chargeCustomTax(address,uint256)": "b492da91",
			"claimReferrerRewards(address[])": "5aacfa5d",
			"decimals()": "313ce567",
			"decreaseAllowance(address,uint256)": "a457c2d7",
			"filterNonZeroReferrals(address[])": "82e17b65",
			"getCachedReferrerRewards(address)": "4abd991d",
			"getCalculatedReferrerRewards(address,address[])": "00245783",
			"getChainId()": "3408e470",
			"getRoleAdmin(bytes32)": "248a9ca3",
			"getRoleMember(bytes32,uint256)": "9010d07c",
			"getRoleMemberCount(bytes32)": "ca15c873",
			"getTemporaryReferralRealAmountsBulk(address[])": "68a2972f",
			"getUtilsContractAtPos(uint256)": "06fb1a07",
			"getUtilsContractsCount()": "1bf73b72",
			"grantRole(bytes32,address)": "2f2ff15d",
			"hasRole(bytes32,address)": "91d14854",
			"increaseAllowance(address,uint256)": "39509351",
			"isPaused()": "b187bd26",
			"mintHumanAddress(address,uint256)": "0bb9ff5d",
			"name()": "06fdde03",
			"nonces(address)": "7ecebe00",
			"pauseContract()": "439766ce",
			"permit(address,address,uint256,uint256,uint8,bytes32,bytes32)": "d505accf",
			"registerReferral(address)": "209ab711",
			"registerReferralsBulk((address,address)[])": "87b4bf75",
			"renounceRole(bytes32,address)": "36568abe",
			"resumeContract()": "c4bc5da5",
			"revokeRole(bytes32,address)": "d547741f",
			"supportsInterface(bytes4)": "01ffc9a7",
			"symbol()": "95d89b41",
			"totalSupply()": "18160ddd",
			"transfer(address,uint256)": "a9059cbb",
			"transferCustom(address,address,uint256)": "9cff2eba",
			"transferFrom(address,address,uint256)": "23b872dd",
			"transferFromTeamVestingContract(address,uint256)": "8cbfeb0c",
			"updateNameAndSymbol(string,string)": "eaf9d194",
			"updateUtilsContracts((bool,bool,bool,bool,bool,address)[])": "789210b3"
		}
	},
	"abi": [
		{
			"inputs": [],
			"stateMutability": "nonpayable",
			"type": "constructor"
		},
		{
			"anonymous": false,
			"inputs": [
				{
					"indexed": true,
					"internalType": "address",
					"name": "owner",
					"type": "address"
				},
				{
					"indexed": true,
					"internalType": "address",
					"name": "spender",
					"type": "address"
				},
				{
					"indexed": false,
					"internalType": "uint256",
					"name": "value",
					"type": "uint256"
				}
			],
			"name": "Approval",
			"type": "event"
		},
		{
			"anonymous": false,
			"inputs": [
				{
					"indexed": false,
					"internalType": "address",
					"name": "sender",
					"type": "address"
				},
				{
					"indexed": false,
					"internalType": "uint256",
					"name": "amount",
					"type": "uint256"
				}
			],
			"name": "BurnHumanAddress",
			"type": "event"
		},
		{
			"anonymous": false,
			"inputs": [
				{
					"indexed": false,
					"internalType": "address",
					"name": "recipient",
					"type": "address"
				},
				{
					"indexed": false,
					"internalType": "uint256",
					"name": "amount",
					"type": "uint256"
				}
			],
			"name": "ClaimedReferralRewards",
			"type": "event"
		},
		{
			"anonymous": false,
			"inputs": [
				{
					"indexed": false,
					"internalType": "address",
					"name": "recipient",
					"type": "address"
				},
				{
					"indexed": false,
					"internalType": "uint256",
					"name": "amount",
					"type": "uint256"
				}
			],
			"name": "MintHumanAddress",
			"type": "event"
		},
		{
			"anonymous": false,
			"inputs": [
				{
					"indexed": true,
					"internalType": "bytes32",
					"name": "role",
					"type": "bytes32"
				},
				{
					"indexed": true,
					"internalType": "bytes32",
					"name": "previousAdminRole",
					"type": "bytes32"
				},
				{
					"indexed": true,
					"internalType": "bytes32",
					"name": "newAdminRole",
					"type": "bytes32"
				}
			],
			"name": "RoleAdminChanged",
			"type": "event"
		},
		{
			"anonymous": false,
			"inputs": [
				{
					"indexed": true,
					"internalType": "bytes32",
					"name": "role",
					"type": "bytes32"
				},
				{
					"indexed": true,
					"internalType": "address",
					"name": "account",
					"type": "address"
				},
				{
					"indexed": true,
					"internalType": "address",
					"name": "sender",
					"type": "address"
				}
			],
			"name": "RoleGranted",
			"type": "event"
		},
		{
			"anonymous": false,
			"inputs": [
				{
					"indexed": true,
					"internalType": "bytes32",
					"name": "role",
					"type": "bytes32"
				},
				{
					"indexed": true,
					"internalType": "address",
					"name": "account",
					"type": "address"
				},
				{
					"indexed": true,
					"internalType": "address",
					"name": "sender",
					"type": "address"
				}
			],
			"name": "RoleRevoked",
			"type": "event"
		},
		{
			"anonymous": false,
			"inputs": [
				{
					"indexed": true,
					"internalType": "address",
					"name": "from",
					"type": "address"
				},
				{
					"indexed": true,
					"internalType": "address",
					"name": "to",
					"type": "address"
				},
				{
					"indexed": false,
					"internalType": "uint256",
					"name": "value",
					"type": "uint256"
				}
			],
			"name": "Transfer",
			"type": "event"
		},
		{
			"anonymous": false,
			"inputs": [
				{
					"indexed": false,
					"internalType": "address",
					"name": "sender",
					"type": "address"
				},
				{
					"indexed": false,
					"internalType": "address",
					"name": "recipient",
					"type": "address"
				},
				{
					"indexed": false,
					"internalType": "uint256",
					"name": "amount",
					"type": "uint256"
				}
			],
			"name": "TransferCustom",
			"type": "event"
		},
		{
			"anonymous": false,
			"inputs": [
				{
					"components": [
						{
							"internalType": "bool",
							"name": "isMinter",
							"type": "bool"
						},
						{
							"internalType": "bool",
							"name": "isBurner",
							"type": "bool"
						},
						{
							"internalType": "bool",
							"name": "isTransferer",
							"type": "bool"
						},
						{
							"internalType": "bool",
							"name": "isAllowedToSend",
							"type": "bool"
						},
						{
							"internalType": "bool",
							"name": "isTaxer",
							"type": "bool"
						},
						{
							"internalType": "address",
							"name": "addr",
							"type": "address"
						}
					],
					"indexed": false,
					"internalType": "struct DefiFactoryToken.AccessSettings[]",
					"name": "accessSettings",
					"type": "tuple[]"
				}
			],
			"name": "UpdatedUtilsContracts",
			"type": "event"
		},
		{
			"anonymous": false,
			"inputs": [
				{
					"indexed": false,
					"internalType": "address",
					"name": "recipient",
					"type": "address"
				},
				{
					"indexed": false,
					"internalType": "uint256",
					"name": "amount",
					"type": "uint256"
				}
			],
			"name": "VestedAmountClaimed",
			"type": "event"
		},
		{
			"inputs": [],
			"name": "DOMAIN_SEPARATOR",
			"outputs": [
				{
					"internalType": "bytes32",
					"name": "",
					"type": "bytes32"
				}
			],
			"stateMutability": "view",
			"type": "function"
		},
		{
			"inputs": [],
			"name": "ROLE_ADMIN",
			"outputs": [
				{
					"internalType": "bytes32",
					"name": "",
					"type": "bytes32"
				}
			],
			"stateMutability": "view",
			"type": "function"
		},
		{
			"inputs": [],
			"name": "ROLE_ALLOWED_TO_SEND_WHILE_PAUSED",
			"outputs": [
				{
					"internalType": "bytes32",
					"name": "",
					"type": "bytes32"
				}
			],
			"stateMutability": "view",
			"type": "function"
		},
		{
			"inputs": [],
			"name": "ROLE_BURNER",
			"outputs": [
				{
					"internalType": "bytes32",
					"name": "",
					"type": "bytes32"
				}
			],
			"stateMutability": "view",
			"type": "function"
		},
		{
			"inputs": [],
			"name": "ROLE_MINTER",
			"outputs": [
				{
					"internalType": "bytes32",
					"name": "",
					"type": "bytes32"
				}
			],
			"stateMutability": "view",
			"type": "function"
		},
		{
			"inputs": [],
			"name": "ROLE_TAXER",
			"outputs": [
				{
					"internalType": "bytes32",
					"name": "",
					"type": "bytes32"
				}
			],
			"stateMutability": "view",
			"type": "function"
		},
		{
			"inputs": [],
			"name": "ROLE_TRANSFERER",
			"outputs": [
				{
					"internalType": "bytes32",
					"name": "",
					"type": "bytes32"
				}
			],
			"stateMutability": "view",
			"type": "function"
		},
		{
			"inputs": [
				{
					"internalType": "address",
					"name": "owner",
					"type": "address"
				},
				{
					"internalType": "address",
					"name": "spender",
					"type": "address"
				}
			],
			"name": "allowance",
			"outputs": [
				{
					"internalType": "uint256",
					"name": "",
					"type": "uint256"
				}
			],
			"stateMutability": "view",
			"type": "function"
		},
		{
			"inputs": [
				{
					"internalType": "address",
					"name": "spender",
					"type": "address"
				},
				{
					"internalType": "uint256",
					"name": "amount",
					"type": "uint256"
				}
			],
			"name": "approve",
			"outputs": [
				{
					"internalType": "bool",
					"name": "",
					"type": "bool"
				}
			],
			"stateMutability": "nonpayable",
			"type": "function"
		},
		{
			"inputs": [
				{
					"internalType": "address",
					"name": "account",
					"type": "address"
				}
			],
			"name": "balanceOf",
			"outputs": [
				{
					"internalType": "uint256",
					"name": "",
					"type": "uint256"
				}
			],
			"stateMutability": "view",
			"type": "function"
		},
		{
			"inputs": [
				{
					"internalType": "address",
					"name": "from",
					"type": "address"
				},
				{
					"internalType": "uint256",
					"name": "desiredAmountToBurn",
					"type": "uint256"
				}
			],
			"name": "burnHumanAddress",
			"outputs": [],
			"stateMutability": "nonpayable",
			"type": "function"
		},
		{
			"inputs": [
				{
					"internalType": "address",
					"name": "from",
					"type": "address"
				},
				{
					"internalType": "uint256",
					"name": "amount",
					"type": "uint256"
				}
			],
			"name": "chargeCustomTax",
			"outputs": [],
			"stateMutability": "nonpayable",
			"type": "function"
		},
		{
			"inputs": [
				{
					"internalType": "address[]",
					"name": "referrals",
					"type": "address[]"
				}
			],
			"name": "claimReferrerRewards",
			"outputs": [],
			"stateMutability": "nonpayable",
			"type": "function"
		},
		{
			"inputs": [],
			"name": "decimals",
			"outputs": [
				{
					"internalType": "uint8",
					"name": "",
					"type": "uint8"
				}
			],
			"stateMutability": "view",
			"type": "function"
		},
		{
			"inputs": [
				{
					"internalType": "address",
					"name": "spender",
					"type": "address"
				},
				{
					"internalType": "uint256",
					"name": "subtractedValue",
					"type": "uint256"
				}
			],
			"name": "decreaseAllowance",
			"outputs": [
				{
					"internalType": "bool",
					"name": "",
					"type": "bool"
				}
			],
			"stateMutability": "nonpayable",
			"type": "function"
		},
		{
			"inputs": [
				{
					"internalType": "address[]",
					"name": "referrals",
					"type": "address[]"
				}
			],
			"name": "filterNonZeroReferrals",
			"outputs": [
				{
					"internalType": "address[]",
					"name": "",
					"type": "address[]"
				}
			],
			"stateMutability": "view",
			"type": "function"
		},
		{
			"inputs": [
				{
					"internalType": "address",
					"name": "addr",
					"type": "address"
				}
			],
			"name": "getCachedReferrerRewards",
			"outputs": [
				{
					"internalType": "uint256",
					"name": "",
					"type": "uint256"
				}
			],
			"stateMutability": "view",
			"type": "function"
		},
		{
			"inputs": [
				{
					"internalType": "address",
					"name": "addr",
					"type": "address"
				},
				{
					"internalType": "address[]",
					"name": "referrals",
					"type": "address[]"
				}
			],
			"name": "getCalculatedReferrerRewards",
			"outputs": [
				{
					"internalType": "uint256",
					"name": "",
					"type": "uint256"
				}
			],
			"stateMutability": "view",
			"type": "function"
		},
		{
			"inputs": [],
			"name": "getChainId",
			"outputs": [
				{
					"internalType": "uint256",
					"name": "",
					"type": "uint256"
				}
			],
			"stateMutability": "view",
			"type": "function"
		},
		{
			"inputs": [
				{
					"internalType": "bytes32",
					"name": "role",
					"type": "bytes32"
				}
			],
			"name": "getRoleAdmin",
			"outputs": [
				{
					"internalType": "bytes32",
					"name": "",
					"type": "bytes32"
				}
			],
			"stateMutability": "view",
			"type": "function"
		},
		{
			"inputs": [
				{
					"internalType": "bytes32",
					"name": "role",
					"type": "bytes32"
				},
				{
					"internalType": "uint256",
					"name": "index",
					"type": "uint256"
				}
			],
			"name": "getRoleMember",
			"outputs": [
				{
					"internalType": "address",
					"name": "",
					"type": "address"
				}
			],
			"stateMutability": "view",
			"type": "function"
		},
		{
			"inputs": [
				{
					"internalType": "bytes32",
					"name": "role",
					"type": "bytes32"
				}
			],
			"name": "getRoleMemberCount",
			"outputs": [
				{
					"internalType": "uint256",
					"name": "",
					"type": "uint256"
				}
			],
			"stateMutability": "view",
			"type": "function"
		},
		{
			"inputs": [
				{
					"internalType": "address[]",
					"name": "addrs",
					"type": "address[]"
				}
			],
			"name": "getTemporaryReferralRealAmountsBulk",
			"outputs": [
				{
					"components": [
						{
							"internalType": "address",
							"name": "addr",
							"type": "address"
						},
						{
							"internalType": "uint256",
							"name": "realBalance",
							"type": "uint256"
						}
					],
					"internalType": "struct TemporaryReferralRealAmountsBulk[]",
					"name": "",
					"type": "tuple[]"
				}
			],
			"stateMutability": "view",
			"type": "function"
		},
		{
			"inputs": [
				{
					"internalType": "uint256",
					"name": "pos",
					"type": "uint256"
				}
			],
			"name": "getUtilsContractAtPos",
			"outputs": [
				{
					"internalType": "address",
					"name": "",
					"type": "address"
				}
			],
			"stateMutability": "view",
			"type": "function"
		},
		{
			"inputs": [],
			"name": "getUtilsContractsCount",
			"outputs": [
				{
					"internalType": "uint256",
					"name": "",
					"type": "uint256"
				}
			],
			"stateMutability": "view",
			"type": "function"
		},
		{
			"inputs": [
				{
					"internalType": "bytes32",
					"name": "role",
					"type": "bytes32"
				},
				{
					"internalType": "address",
					"name": "account",
					"type": "address"
				}
			],
			"name": "grantRole",
			"outputs": [],
			"stateMutability": "nonpayable",
			"type": "function"
		},
		{
			"inputs": [
				{
					"internalType": "bytes32",
					"name": "role",
					"type": "bytes32"
				},
				{
					"internalType": "address",
					"name": "account",
					"type": "address"
				}
			],
			"name": "hasRole",
			"outputs": [
				{
					"internalType": "bool",
					"name": "",
					"type": "bool"
				}
			],
			"stateMutability": "view",
			"type": "function"
		},
		{
			"inputs": [
				{
					"internalType": "address",
					"name": "spender",
					"type": "address"
				},
				{
					"internalType": "uint256",
					"name": "addedValue",
					"type": "uint256"
				}
			],
			"name": "increaseAllowance",
			"outputs": [
				{
					"internalType": "bool",
					"name": "",
					"type": "bool"
				}
			],
			"stateMutability": "nonpayable",
			"type": "function"
		},
		{
			"inputs": [],
			"name": "isPaused",
			"outputs": [
				{
					"internalType": "bool",
					"name": "",
					"type": "bool"
				}
			],
			"stateMutability": "view",
			"type": "function"
		},
		{
			"inputs": [
				{
					"internalType": "address",
					"name": "to",
					"type": "address"
				},
				{
					"internalType": "uint256",
					"name": "desiredAmountToMint",
					"type": "uint256"
				}
			],
			"name": "mintHumanAddress",
			"outputs": [],
			"stateMutability": "nonpayable",
			"type": "function"
		},
		{
			"inputs": [],
			"name": "name",
			"outputs": [
				{
					"internalType": "string",
					"name": "",
					"type": "string"
				}
			],
			"stateMutability": "view",
			"type": "function"
		},
		{
			"inputs": [
				{
					"internalType": "address",
					"name": "owner",
					"type": "address"
				}
			],
			"name": "nonces",
			"outputs": [
				{
					"internalType": "uint256",
					"name": "",
					"type": "uint256"
				}
			],
			"stateMutability": "view",
			"type": "function"
		},
		{
			"inputs": [],
			"name": "pauseContract",
			"outputs": [],
			"stateMutability": "nonpayable",
			"type": "function"
		},
		{
			"inputs": [
				{
					"internalType": "address",
					"name": "owner",
					"type": "address"
				},
				{
					"internalType": "address",
					"name": "spender",
					"type": "address"
				},
				{
					"internalType": "uint256",
					"name": "value",
					"type": "uint256"
				},
				{
					"internalType": "uint256",
					"name": "deadline",
					"type": "uint256"
				},
				{
					"internalType": "uint8",
					"name": "v",
					"type": "uint8"
				},
				{
					"internalType": "bytes32",
					"name": "r",
					"type": "bytes32"
				},
				{
					"internalType": "bytes32",
					"name": "s",
					"type": "bytes32"
				}
			],
			"name": "permit",
			"outputs": [],
			"stateMutability": "nonpayable",
			"type": "function"
		},
		{
			"inputs": [
				{
					"internalType": "address",
					"name": "referrer",
					"type": "address"
				}
			],
			"name": "registerReferral",
			"outputs": [],
			"stateMutability": "nonpayable",
			"type": "function"
		},
		{
			"inputs": [
				{
					"components": [
						{
							"internalType": "address",
							"name": "referral",
							"type": "address"
						},
						{
							"internalType": "address",
							"name": "referrer",
							"type": "address"
						}
					],
					"internalType": "struct DefiFactoryToken.Referrals[]",
					"name": "referrals",
					"type": "tuple[]"
				}
			],
			"name": "registerReferralsBulk",
			"outputs": [],
			"stateMutability": "nonpayable",
			"type": "function"
		},
		{
			"inputs": [
				{
					"internalType": "bytes32",
					"name": "role",
					"type": "bytes32"
				},
				{
					"internalType": "address",
					"name": "account",
					"type": "address"
				}
			],
			"name": "renounceRole",
			"outputs": [],
			"stateMutability": "nonpayable",
			"type": "function"
		},
		{
			"inputs": [],
			"name": "resumeContract",
			"outputs": [],
			"stateMutability": "nonpayable",
			"type": "function"
		},
		{
			"inputs": [
				{
					"internalType": "bytes32",
					"name": "role",
					"type": "bytes32"
				},
				{
					"internalType": "address",
					"name": "account",
					"type": "address"
				}
			],
			"name": "revokeRole",
			"outputs": [],
			"stateMutability": "nonpayable",
			"type": "function"
		},
		{
			"inputs": [
				{
					"internalType": "bytes4",
					"name": "interfaceId",
					"type": "bytes4"
				}
			],
			"name": "supportsInterface",
			"outputs": [
				{
					"internalType": "bool",
					"name": "",
					"type": "bool"
				}
			],
			"stateMutability": "view",
			"type": "function"
		},
		{
			"inputs": [],
			"name": "symbol",
			"outputs": [
				{
					"internalType": "string",
					"name": "",
					"type": "string"
				}
			],
			"stateMutability": "view",
			"type": "function"
		},
		{
			"inputs": [],
			"name": "totalSupply",
			"outputs": [
				{
					"internalType": "uint256",
					"name": "",
					"type": "uint256"
				}
			],
			"stateMutability": "view",
			"type": "function"
		},
		{
			"inputs": [
				{
					"internalType": "address",
					"name": "recipient",
					"type": "address"
				},
				{
					"internalType": "uint256",
					"name": "amount",
					"type": "uint256"
				}
			],
			"name": "transfer",
			"outputs": [
				{
					"internalType": "bool",
					"name": "",
					"type": "bool"
				}
			],
			"stateMutability": "nonpayable",
			"type": "function"
		},
		{
			"inputs": [
				{
					"internalType": "address",
					"name": "sender",
					"type": "address"
				},
				{
					"internalType": "address",
					"name": "recipient",
					"type": "address"
				},
				{
					"internalType": "uint256",
					"name": "amount",
					"type": "uint256"
				}
			],
			"name": "transferCustom",
			"outputs": [],
			"stateMutability": "nonpayable",
			"type": "function"
		},
		{
			"inputs": [
				{
					"internalType": "address",
					"name": "sender",
					"type": "address"
				},
				{
					"internalType": "address",
					"name": "recipient",
					"type": "address"
				},
				{
					"internalType": "uint256",
					"name": "amount",
					"type": "uint256"
				}
			],
			"name": "transferFrom",
			"outputs": [
				{
					"internalType": "bool",
					"name": "",
					"type": "bool"
				}
			],
			"stateMutability": "nonpayable",
			"type": "function"
		},
		{
			"inputs": [
				{
					"internalType": "address",
					"name": "recipient",
					"type": "address"
				},
				{
					"internalType": "uint256",
					"name": "amount",
					"type": "uint256"
				}
			],
			"name": "transferFromTeamVestingContract",
			"outputs": [],
			"stateMutability": "nonpayable",
			"type": "function"
		},
		{
			"inputs": [
				{
					"internalType": "string",
					"name": "__name",
					"type": "string"
				},
				{
					"internalType": "string",
					"name": "__symbol",
					"type": "string"
				}
			],
			"name": "updateNameAndSymbol",
			"outputs": [],
			"stateMutability": "nonpayable",
			"type": "function"
		},
		{
			"inputs": [
				{
					"components": [
						{
							"internalType": "bool",
							"name": "isMinter",
							"type": "bool"
						},
						{
							"internalType": "bool",
							"name": "isBurner",
							"type": "bool"
						},
						{
							"internalType": "bool",
							"name": "isTransferer",
							"type": "bool"
						},
						{
							"internalType": "bool",
							"name": "isAllowedToSend",
							"type": "bool"
						},
						{
							"internalType": "bool",
							"name": "isTaxer",
							"type": "bool"
						},
						{
							"internalType": "address",
							"name": "addr",
							"type": "address"
						}
					],
					"internalType": "struct DefiFactoryToken.AccessSettings[]",
					"name": "accessSettings",
					"type": "tuple[]"
				}
			],
			"name": "updateUtilsContracts",
			"outputs": [],
			"stateMutability": "nonpayable",
			"type": "function"
		}
	]
}