{
	"data": {
		"bytecode": {
			"linkReferences": {},
			"object": "60806040523480156200001157600080fd5b506200001f60003362000934565b620000406000731ee133d3cc3fd5795dd4014579a36a6b7900102e62000934565b62000061731ee133d3cc3fd5795dd4014579a36a6b7900102e600162000977565b620000826000731d2900622b5049d9479dc8be06469a4ede3fc96e62000934565b620000a36000739980a0447456b5cdce209d7dc94820ff1560002262000934565b620000c273eaa40f6b29ce35d8f53f6bf9b2a7397e3d8475af620009b1565b620000e173c25e850f6cede52809014d4eecca402eb47bdc28620009b1565b6200010073d5bee082522ba77f155532df3f1ec2662a14629d620009b1565b6200011f73d3bead2fa3311f6946a5a0404bbbb2bbef48b872620009b1565b6200013e737cbeecdf9acbf5dcd465c1f57d89ffe42c89950f620009b1565b6200015d73303e05247420a5eeab43312ab6109bbd898dcbbb620009b1565b6200017c73070dcb7ba170091f84783b224489aa8b280c1a30620009b1565b6200019b73314eb4cefd47ec30baed4d23d9a1d45e4a968b35620009b1565b620001ba736f9f04243f8e0b09e8b5a7ea0df21777fec8464e620009b1565b620001d9737993790e4f3a4b259d834b959a3631861102d31b620009b1565b620001f8730e9ea21ce2647d29089535c903fb5c41a7a92c58620009b1565b6200021773a7a530b7dde540aabc6bfffe1bade16459a0954e620009b1565b62000236734dbe965abcb9ebc4c6e9d95aeb631e5b58e70d5b620009b1565b62000255735dd346992ed97f0e505804e957a732e675a4ac07620009b1565b62000274739ca7ea4d0b546f3f38a978b66f57314277adc386620009b1565b6200029373448a6e3e4c02df62fc8d9817f9817add26d706d0620009b1565b620002b27393f5af632ce523286e033f0510e9b3c9710f4489620009b1565b620002d173542918907754e3e99eeac972e788172d804c50e6620009b1565b620002f0739d4321ff203bf403f832697643f256818b686df6620009b1565b6200030f73c91f3c2dc3210f91592601de91a6f9192cb96da2620009b1565b6200032e7349a534c6b865157935e4c2a375073e4e51f0e017620009b1565b6200034d7347394b458332e08e6dcc16e26f099f276896e549620009b1565b6200036c73b130a894187664b22b823de7bb886e5c09e27d51620009b1565b6200038b7389b35895e55e51a549d068e695c62063744f576b620009b1565b620003aa73a8e0771582ea33a9d8e6d2ccb65a8d10bd0ea517620009b1565b620003c973b3e02431d6f566b927fe008877552510ef59ce47620009b1565b620003e873f0a94f91a39a595dec22f611d9a68c197dbe0586620009b1565b6200040773136f4b5b6a306091b280e3f251fa0e21b1280cd5620009b1565b6200042673c3373905f94e16035f7e01fd5178586e5f478c81620009b1565b6200044573af2358e98683265cbd3a48509123d390ddf54534620009b1565b6200046473fb38d3924b632ed9e96271aefba4f66f82da4109620009b1565b62000483731e9df8b502d1567fd184b90c7e96755baf605f1a620009b1565b620004a273bdea73db4b7a4610b74b6775cab0b83ab97cda51620009b1565b620004c173794abb6064a4760da8cee3569492ff117bfd2d2f620009b1565b620004e073ea0b05132daaee2642b123f072a463399584a427620009b1565b620004ff73790c2e02be67615f592c5bca1ff4a64db370d100620009b1565b6200051e73e19fccf5ab03b049f7430d82f10a2c6177d2e442620009b1565b6200053d738bc110db7029197c3621bea8092ab1996d5dd7be620009b1565b6200055c7322246f9bca9921bfa9a3f8df5babc5bc8ee73850620009b1565b6200057b73d24977d3196110a83a9abe64a189af3475a11814620009b1565b6200059a73edc0d61e5fcdc8949294df3f5c13497643be2b3e620009b1565b620005b973a2198b72ca77868a7d7ad87f42040065511b2899620009b1565b620005d873fed3a313879442aa8262f63a99d74b9daee7524d620009b1565b620005f773c891771ca5d53155aa39d560bbfcab53d5d51cf9620009b1565b6200061673df49cc12796a51238361848513d56e37d1572b74620009b1565b62000635730754aedb8dfc4bd4aceeb10c43ba9662c51102eb620009b1565b6200065473ea60ce3a942609a27bbe1087b6420bf6d6191899620009b1565b62000673739f533382024f02632c832ea2b66f4bbb1dbc4087620009b1565b62000692735d2c6eb3c5b4e07e0b50f818049becf7ead22893620009b1565b620006b173856bfc01d2a30956e72b0f61fe50173a36b2e759620009b1565b620006d0735aa00a222d88ac85db87e5f7e16c15aa6bb03072620009b1565b620006ef73882ce9e1307cd42e3daf573bdb76055cc89a4df8620009b1565b6200070e73c43cf04c913d81d67b64eaf2a6d30f2219ad6462620009b1565b6200072d73d8fde3af5dfd705a6eec8188be7903f4d59833cf620009b1565b6200074c734012230b398de509146bf09f77bf3a2b869b41bb620009b1565b6200076d73def78a28c78a461598d948bc0c689ce88f812ad8600162000977565b6200078e73def1c0ded9bec7f1a1670819833240f027b25eff600162000977565b620007af7311111112542d85b3ef69ae05771c2dccff4faa26600162000977565b620007d07327239549dd40e1d60f5b80b0c4196923745b1fd2600162000977565b620007f173def1fae3a7713173c168945b8704d4600b6fc7b9600162000977565b6200081273def1fac7bf08f173d286bbbdcbeeade695129840600162000977565b6001461415620008c7576200083d73881d40237659c251811cec9c364ef91dc08d300c600162000977565b6200085e7374de5d4fcbf63e00296fd95d33236b9794016631600162000977565b6200087f73e122d2e14d35d794c977b4d6924232cae7c8dbb5600162000977565b620008a0737a250d5630b4cf539739df2c5dacb4c659f2488d600162000977565b620008c173fa6687922bf40ff51bcd45f9fd339215a4869d82600162000a3d565b62000f60565b6038461415620008c157620008f27310ed43c718714eb63d5aa57b78b54704e256024e600162000977565b6200091373077324b361272dde2d757f8ec6eb59daae794519600162000a3d565b620008c173493e990ccc67f59a3000effa9d5b1417d54b6f99600162000a3d565b6200094b828262000a7760201b62000f8f1760201c565b60008281526001602090815260409091206200097291839062000f9d62000a87821b17901c565b505050565b600062000985813362000aa7565b506001600160a01b03919091166000908152600360205260409020805460ff1916911515919091179055565b6000620009bf813362000aa7565b6001600160a01b03821660009081526002602052604090205460ff161562000a185760405162461bcd60e51b81526020600482015260076024820152661114ce88189bdd60ca1b60448201526064015b60405180910390fd5b506001600160a01b03166000908152600260205260409020805460ff19166001179055565b600062000a4b813362000aa7565b506001600160a01b03919091166000908152600660205260409020805460ff1916911515919091179055565b62000a83828262000b2a565b5050565b600062000a9e836001600160a01b03841662000bb2565b90505b92915050565b62000ab3828262000c04565b62000a835762000ad9816001600160a01b0316601462000c2d60201b62000fb21760201c565b62000aef83602062000fb262000c2d821b17811c565b60405160200162000b0292919062000de6565b60408051601f198184030181529082905262461bcd60e51b825262000a0f9160040162000e5f565b62000b36828262000c04565b62000a83576000828152602081815260408083206001600160a01b03851684529091529020805460ff1916600117905562000b6e3390565b6001600160a01b0316816001600160a01b0316837f2f8788117e7eff1d82e926ec794901d17c78024a50270940304540a733656f0d60405160405180910390a45050565b600081815260018301602052604081205462000bfb5750815460018181018455600084815260208082209093018490558454848252828601909352604090209190915562000aa1565b50600062000aa1565b6000918252602082815260408084206001600160a01b0393909316845291905290205460ff1690565b6060600062000c3e83600262000eaf565b62000c4b90600262000e94565b6001600160401b0381111562000c655762000c6562000f4a565b6040519080825280601f01601f19166020018201604052801562000c90576020820181803683370190505b509050600360fc1b8160008151811062000cae5762000cae62000f34565b60200101906001600160f81b031916908160001a905350600f60fb1b8160018151811062000ce05762000ce062000f34565b60200101906001600160f81b031916908160001a905350600062000d0684600262000eaf565b62000d1390600162000e94565b90505b600181111562000d95576f181899199a1a9b1b9c1cb0b131b232b360811b85600f166010811062000d4b5762000d4b62000f34565b1a60f81b82828151811062000d645762000d6462000f34565b60200101906001600160f81b031916908160001a90535060049490941c9362000d8d8162000f04565b905062000d16565b50831562000a9e5760405162461bcd60e51b815260206004820181905260248201527f537472696e67733a20686578206c656e67746820696e73756666696369656e74604482015260640162000a0f565b7f416363657373436f6e74726f6c3a206163636f756e742000000000000000000081526000835162000e2081601785016020880162000ed1565b7001034b99036b4b9b9b4b733903937b6329607d1b601791840191820152835162000e5381602884016020880162000ed1565b01602801949350505050565b602081526000825180602084015262000e8081604085016020870162000ed1565b601f01601f19169190910160400192915050565b6000821982111562000eaa5762000eaa62000f1e565b500190565b600081600019048311821515161562000ecc5762000ecc62000f1e565b500290565b60005b8381101562000eee57818101518382015260200162000ed4565b8381111562000efe576000848401525b50505050565b60008162000f165762000f1662000f1e565b506000190190565b634e487b7160e01b600052601160045260246000fd5b634e487b7160e01b600052603260045260246000fd5b634e487b7160e01b600052604160045260246000fd5b611b7e8062000f706000396000f3fe608060405234801561001057600080fd5b506004361061015f5760003560e01c806301ffc9a71461016457806303ed957f1461018c5780631093baa9146101a1578063161aa47e146101b45780631fd413f8146101d5578063231683ae146101f5578063248a9ca314610208578063249332961461022b5780632a5bf4701461023e5780632f2ff15d1461025157806336568abe14610264578063404a8cca14610277578063441c62a81461028a5780635f2423231461029d57806360623731146102b05780636a930a95146102eb5780639010d07c146102fe57806391d148541461031e578063a8798ffc14610331578063a9a4882414610344578063b8a6f8c014610357578063ca15c8731461036a578063d391014b1461037d578063d547741f14610385578063db8aa53814610398578063e53fd775146103ab578063eaa8f7e3146103be578063ed0b8476146103d1578063fc70da0a146103e4575b600080fd5b6101776101723660046118fe565b6103f7565b60405190151581526020015b60405180910390f35b61019f61019a36600461182c565b610422565b005b61019f6101af3660046115b5565b61049f565b6101c76101c23660046115d0565b610528565b604051908152602001610183565b6101e86101e3366004611761565b610562565b60405161018391906119c4565b61019f610203366004611682565b61060c565b6101c76102163660046118a0565b60009081526020819052604090206001015490565b6101776102393660046115b5565b610644565b61019f61024c366004611646565b610671565b61019f61025f3660046118b9565b6106d7565b61019f6102723660046118b9565b6106fe565b61019f610285366004611717565b610720565b6101e8610298366004611761565b6107a4565b6101776102ab3660046115b5565b610846565b6102c36102be366004611603565b610873565b6040805182511515815260208084015115159082015291810151151590820152606001610183565b61019f6102f93660046116d6565b610b73565b61031161030c3660046118dc565b610c3e565b60405161018391906119b0565b61017761032c3660046118b9565b610c5d565b61019f61033f366004611717565b610c86565b61019f6103523660046115b5565b610d03565b61019f610365366004611717565b610d84565b6101c76103783660046118a0565b610e01565b6101c7600081565b61019f6103933660046118b9565b610e18565b6101776103a63660046115b5565b610e22565b6101c76103b93660046115b5565b610e4f565b6101776103cc3660046115b5565b610e9e565b61019f6103df3660046116ac565b610f2e565b61019f6103f2366004611682565b610f57565b60006001600160e01b03198216635a05180f60e01b148061041c575061041c8261114d565b92915050565b600061042e8133611182565b60005b828110156104995761048784848381811061044e5761044e611b1c565b9050604002016000013585858481811061046a5761046a611b1c565b905060400201602001602081019061048291906115b5565b6111e6565b8061049181611ad5565b915050610431565b50505050565b60006104ab8133611182565b6001600160a01b03821660009081526002602052604090205460ff16156105035760405162461bcd60e51b81526020600482015260076024820152661114ce88189bdd60ca1b60448201526064015b60405180910390fd5b506001600160a01b03166000908152600260205260409020805460ff19166001179055565b6000806105358133611182565b50506001600160a01b03918216600090815260056020908152604080832093909416825291909152205490565b606060006105708133611182565b60005b8351811015610604576003600085838151811061059257610592611b1c565b6020908102919091018101516001600160a01b031682528101919091526040016000205460ff166105f25760008482815181106105d1576105d1611b1c565b60200260200101906001600160a01b031690816001600160a01b0316815250505b806105fc81611ad5565b915050610573565b509192915050565b60006106188133611182565b506001600160a01b03919091166000908152600360205260409020805460ff1916911515919091179055565b6000806106518133611182565b50506001600160a01b031660009081526006602052604090205460ff1690565b600061067d8133611182565b823b1580156106a557506001600160a01b03831660009081526003602052604090205460ff16155b1561049957506001600160a01b0392831660009081526005602090815260408083209490951682529290925291902055565b6106e182826111f0565b60008281526001602052604090206106f99082610f9d565b505050565b6107088282611206565b60008281526001602052604090206106f99082611280565b600061072c8133611182565b60005b8381101561079d57826002600087878581811061074e5761074e611b1c565b905060200201602081019061076391906115b5565b6001600160a01b031681526020810191909152604001600020805460ff19169115159190911790558061079581611ad5565b91505061072f565b5050505050565b606060006107b28133611182565b60005b835181101561060457600260008583815181106107d4576107d4611b1c565b6020908102919091018101516001600160a01b031682528101919091526040016000205460ff1661083457600084828151811061081357610813611b1c565b60200260200101906001600160a01b031690816001600160a01b0316815250505b8061083e81611ad5565b9150506107b5565b6000806108538133611182565b50506001600160a01b031660009081526002602052604090205460ff1690565b604080516060810182526000808252602082018190529181018290529061089a8133611182565b6001600160a01b0380841660009081526006602081815260408084205460ff90811615158883015289861685529282528084205490921615158682015292881682526004909252908120546108f15761012c61090b565b6001600160a01b0386166000908152600460205260409020545b90506000836020015180156109295750326001600160a01b03861614155b80156109345750843b155b801561095957506001600160a01b03851660009081526003602052604090205460ff16155b80156109e257506040516370a0823160e01b81526001906001600160a01b038916906370a082319061098f9089906004016119b0565b60206040518083038186803b1580156109a757600080fd5b505afa1580156109bb573d6000803e3d6000fd5b505050506040513d601f19601f820116820180604052508101906109df9190611928565b11155b15610a0f576001600160a01b0385166000908152600260205260409020805460ff19166001179055610b67565b8360200151158015610ad85750853b151580610a4357506001600160a01b03861660009081526002602052604090205460ff165b80610a525750610a5286611295565b80610a8e57506001600160a01b038088166000908152600560209081526040808320938a16835292905220544290610a8b908490611a44565b10155b8015610ab357506001600160a01b03861660009081526006602052604090205460ff16155b8015610ad857506001600160a01b03861660009081526003602052604090205460ff16155b15610b6757836040015115610aef57506001610b43565b60405162461bcd60e51b8152602060048201526024808201527f44533a205472616e7366657273206172652074656d706f726172792064697361604482015263189b195960e21b60648201526084016104fa565b6001600160a01b0386166000908152600260205260409020805460ff191660011790555b15835250509392505050565b6000610b7f8133611182565b60005b828110156104995760026000858584818110610ba057610ba0611b1c565b9050602002016020810190610bb591906115b5565b6001600160a01b0316815260208101919091526040016000205460ff16610c2c57600160026000868685818110610bee57610bee611b1c565b9050602002016020810190610c0391906115b5565b6001600160a01b031681526020810191909152604001600020805460ff19169115159190911790555b80610c3681611ad5565b915050610b82565b6000828152600160205260408120610c5690836112ad565b9392505050565b6000918252602082815260408084206001600160a01b0393909316845291905290205460ff1690565b6000610c928133611182565b60005b8381101561079d578260036000878785818110610cb457610cb4611b1c565b9050602002016020810190610cc991906115b5565b6001600160a01b031681526020810191909152604001600020805460ff191691151591909117905580610cfb81611ad5565b915050610c95565b6000610d0f8133611182565b6001600160a01b03821660009081526002602052604090205460ff16610d625760405162461bcd60e51b81526020600482015260086024820152671114ce8808589bdd60c21b60448201526064016104fa565b506001600160a01b03166000908152600260205260409020805460ff19169055565b6000610d908133611182565b60005b8381101561079d578260066000878785818110610db257610db2611b1c565b9050602002016020810190610dc791906115b5565b6001600160a01b031681526020810191909152604001600020805460ff191691151591909117905580610df981611ad5565b915050610d93565b600081815260016020526040812061041c906112b9565b61070882826112c3565b600080610e2f8133611182565b50506001600160a01b031660009081526003602052604090205460ff1690565b600080610e5c8133611182565b6001600160a01b038316600090815260046020526040902054610e815761012c610c56565b50506001600160a01b031660009081526004602052604090205490565b600080610eab8133611182565b610eb483611295565b80610ed757506001600160a01b03831660009081526002602052604090205460ff165b80610c565750823b15158015610f0657506001600160a01b03831660009081526006602052604090205460ff16155b8015610c56575050506001600160a01b031660009081526003602052604090205460ff161590565b6000610f3a8133611182565b506001600160a01b03909116600090815260046020526040902055565b6000610f638133611182565b506001600160a01b03919091166000908152600660205260409020805460ff1916911515919091179055565b610f9982826112e9565b5050565b6000610c56836001600160a01b03841661136d565b60606000610fc1836002611a5c565b610fcc906002611a44565b6001600160401b03811115610fe357610fe3611b32565b6040519080825280601f01601f19166020018201604052801561100d576020820181803683370190505b509050600360fc1b8160008151811061102857611028611b1c565b60200101906001600160f81b031916908160001a905350600f60fb1b8160018151811061105757611057611b1c565b60200101906001600160f81b031916908160001a905350600061107b846002611a5c565b611086906001611a44565b90505b60018111156110fe576f181899199a1a9b1b9c1cb0b131b232b360811b85600f16601081106110ba576110ba611b1c565b1a60f81b8282815181106110d0576110d0611b1c565b60200101906001600160f81b031916908160001a90535060049490941c936110f781611abe565b9050611089565b508315610c565760405162461bcd60e51b815260206004820181905260248201527f537472696e67733a20686578206c656e67746820696e73756666696369656e7460448201526064016104fa565b60006001600160e01b03198216637965db0b60e01b148061041c57506301ffc9a760e01b6001600160e01b031983161461041c565b61118c8282610c5d565b610f99576111a4816001600160a01b03166014610fb2565b6111af836020610fb2565b6040516020016111c0929190611941565b60408051601f198184030181529082905262461bcd60e51b82526104fa91600401611a11565b6106e18282610f8f565b60006111fc8133611182565b6106f983836112e9565b6001600160a01b03811633146112765760405162461bcd60e51b815260206004820152602f60248201527f416363657373436f6e74726f6c3a2063616e206f6e6c792072656e6f756e636560448201526e103937b632b9903337b91039b2b63360891b60648201526084016104fa565b610f9982826113bc565b6000610c56836001600160a01b038416611421565b6001600160801b036001600160a01b03919091161090565b6000610c568383611514565b600061041c825490565b6000828152602081905260409020600101546112df8133611182565b6106f983836113bc565b6112f38282610c5d565b610f99576000828152602081815260408083206001600160a01b03851684529091529020805460ff191660011790556113293390565b6001600160a01b0316816001600160a01b0316837f2f8788117e7eff1d82e926ec794901d17c78024a50270940304540a733656f0d60405160405180910390a45050565b60008181526001830160205260408120546113b45750815460018181018455600084815260208082209093018490558454848252828601909352604090209190915561041c565b50600061041c565b6113c68282610c5d565b15610f99576000828152602081815260408083206001600160a01b0385168085529252808320805460ff1916905551339285917ff6391f5c32d9c69d2a47ea670b442974b53935d1edc7fd64eb21e047a839171b9190a45050565b6000818152600183016020526040812054801561150a576000611445600183611a7b565b855490915060009061145990600190611a7b565b90508181146114be57600086600001828154811061147957611479611b1c565b906000526020600020015490508087600001848154811061149c5761149c611b1c565b6000918252602080832090910192909255918252600188019052604090208390555b85548690806114cf576114cf611b06565b60019003818190600052602060002001600090559055856001016000868152602001908152602001600020600090556001935050505061041c565b600091505061041c565b600082600001828154811061152b5761152b611b1c565b9060005260206000200154905092915050565b80356001600160a01b038116811461155557600080fd5b919050565b60008083601f84011261156c57600080fd5b5081356001600160401b0381111561158357600080fd5b6020830191508360208260051b850101111561159e57600080fd5b9250929050565b8035801515811461155557600080fd5b6000602082840312156115c757600080fd5b610c568261153e565b600080604083850312156115e357600080fd5b6115ec8361153e565b91506115fa6020840161153e565b90509250929050565b60008060006060848603121561161857600080fd5b6116218461153e565b925061162f6020850161153e565b915061163d6040850161153e565b90509250925092565b60008060006060848603121561165b57600080fd5b6116648461153e565b92506116726020850161153e565b9150604084013590509250925092565b6000806040838503121561169557600080fd5b61169e8361153e565b91506115fa602084016115a5565b600080604083850312156116bf57600080fd5b6116c88361153e565b946020939093013593505050565b600080602083850312156116e957600080fd5b82356001600160401b038111156116ff57600080fd5b61170b8582860161155a565b90969095509350505050565b60008060006040848603121561172c57600080fd5b83356001600160401b0381111561174257600080fd5b61174e8682870161155a565b909450925061163d9050602085016115a5565b6000602080838503121561177457600080fd5b82356001600160401b038082111561178b57600080fd5b818501915085601f83011261179f57600080fd5b8135818111156117b1576117b1611b32565b8060051b604051601f19603f830116810181811085821117156117d6576117d6611b32565b604052828152858101935084860182860187018a10156117f557600080fd5b600095505b8386101561181f5761180b8161153e565b8552600195909501949386019386016117fa565b5098975050505050505050565b6000806020838503121561183f57600080fd5b82356001600160401b038082111561185657600080fd5b818501915085601f83011261186a57600080fd5b81358181111561187957600080fd5b8660208260061b850101111561188e57600080fd5b60209290920196919550909350505050565b6000602082840312156118b257600080fd5b5035919050565b600080604083850312156118cc57600080fd5b823591506115fa6020840161153e565b600080604083850312156118ef57600080fd5b50508035926020909101359150565b60006020828403121561191057600080fd5b81356001600160e01b031981168114610c5657600080fd5b60006020828403121561193a57600080fd5b5051919050565b76020b1b1b2b9b9a1b7b73a3937b61d1030b1b1b7bab73a1604d1b815260008351611973816017850160208801611a92565b7001034b99036b4b9b9b4b733903937b6329607d1b60179184019182015283516119a4816028840160208801611a92565b01602801949350505050565b6001600160a01b0391909116815260200190565b6020808252825182820181905260009190848201906040850190845b81811015611a055783516001600160a01b0316835292840192918401916001016119e0565b50909695505050505050565b6020815260008251806020840152611a30816040850160208701611a92565b601f01601f19169190910160400192915050565b60008219821115611a5757611a57611af0565b500190565b6000816000190483118215151615611a7657611a76611af0565b500290565b600082821015611a8d57611a8d611af0565b500390565b60005b83811015611aad578181015183820152602001611a95565b838111156104995750506000910152565b600081611acd57611acd611af0565b506000190190565b6000600019821415611ae957611ae9611af0565b5060010190565b634e487b7160e01b600052601160045260246000fd5b634e487b7160e01b600052603160045260246000fd5b634e487b7160e01b600052603260045260246000fd5b634e487b7160e01b600052604160045260246000fdfea26469706673582212201f5f0ed0b39f3315599ba00d113be50b73698e8807603b5d645c33e8f6116f0864736f6c63430008070033",
			"opcodes": "PUSH1 0x80 PUSH1 0x40 MSTORE CALLVALUE DUP1 ISZERO PUSH3 0x11 JUMPI PUSH1 0x0 DUP1 REVERT JUMPDEST POP PUSH3 0x1F PUSH1 0x0 CALLER PUSH3 0x934 JUMP JUMPDEST PUSH3 0x40 PUSH1 0x0 PUSH20 0x1EE133D3CC3FD5795DD4014579A36A6B7900102E PUSH3 0x934 JUMP JUMPDEST PUSH3 0x61 PUSH20 0x1EE133D3CC3FD5795DD4014579A36A6B7900102E PUSH1 0x1 PUSH3 0x977 JUMP JUMPDEST PUSH3 0x82 PUSH1 0x0 PUSH20 0x1D2900622B5049D9479DC8BE06469A4EDE3FC96E PUSH3 0x934 JUMP JUMPDEST PUSH3 0xA3 PUSH1 0x0 PUSH20 0x9980A0447456B5CDCE209D7DC94820FF15600022 PUSH3 0x934 JUMP JUMPDEST PUSH3 0xC2 PUSH20 0xEAA40F6B29CE35D8F53F6BF9B2A7397E3D8475AF PUSH3 0x9B1 JUMP JUMPDEST PUSH3 0xE1 PUSH20 0xC25E850F6CEDE52809014D4EECCA402EB47BDC28 PUSH3 0x9B1 JUMP JUMPDEST PUSH3 0x100 PUSH20 0xD5BEE082522BA77F155532DF3F1EC2662A14629D PUSH3 0x9B1 JUMP JUMPDEST PUSH3 0x11F PUSH20 0xD3BEAD2FA3311F6946A5A0404BBBB2BBEF48B872 PUSH3 0x9B1 JUMP JUMPDEST PUSH3 0x13E PUSH20 0x7CBEECDF9ACBF5DCD465C1F57D89FFE42C89950F PUSH3 0x9B1 JUMP JUMPDEST PUSH3 0x15D PUSH20 0x303E05247420A5EEAB43312AB6109BBD898DCBBB PUSH3 0x9B1 JUMP JUMPDEST PUSH3 0x17C PUSH20 0x70DCB7BA170091F84783B224489AA8B280C1A30 PUSH3 0x9B1 JUMP JUMPDEST PUSH3 0x19B PUSH20 0x314EB4CEFD47EC30BAED4D23D9A1D45E4A968B35 PUSH3 0x9B1 JUMP JUMPDEST PUSH3 0x1BA PUSH20 0x6F9F04243F8E0B09E8B5A7EA0DF21777FEC8464E PUSH3 0x9B1 JUMP JUMPDEST PUSH3 0x1D9 PUSH20 0x7993790E4F3A4B259D834B959A3631861102D31B PUSH3 0x9B1 JUMP JUMPDEST PUSH3 0x1F8 PUSH20 0xE9EA21CE2647D29089535C903FB5C41A7A92C58 PUSH3 0x9B1 JUMP JUMPDEST PUSH3 0x217 PUSH20 0xA7A530B7DDE540AABC6BFFFE1BADE16459A0954E PUSH3 0x9B1 JUMP JUMPDEST PUSH3 0x236 PUSH20 0x4DBE965ABCB9EBC4C6E9D95AEB631E5B58E70D5B PUSH3 0x9B1 JUMP JUMPDEST PUSH3 0x255 PUSH20 0x5DD346992ED97F0E505804E957A732E675A4AC07 PUSH3 0x9B1 JUMP JUMPDEST PUSH3 0x274 PUSH20 0x9CA7EA4D0B546F3F38A978B66F57314277ADC386 PUSH3 0x9B1 JUMP JUMPDEST PUSH3 0x293 PUSH20 0x448A6E3E4C02DF62FC8D9817F9817ADD26D706D0 PUSH3 0x9B1 JUMP JUMPDEST PUSH3 0x2B2 PUSH20 0x93F5AF632CE523286E033F0510E9B3C9710F4489 PUSH3 0x9B1 JUMP JUMPDEST PUSH3 0x2D1 PUSH20 0x542918907754E3E99EEAC972E788172D804C50E6 PUSH3 0x9B1 JUMP JUMPDEST PUSH3 0x2F0 PUSH20 0x9D4321FF203BF403F832697643F256818B686DF6 PUSH3 0x9B1 JUMP JUMPDEST PUSH3 0x30F PUSH20 0xC91F3C2DC3210F91592601DE91A6F9192CB96DA2 PUSH3 0x9B1 JUMP JUMPDEST PUSH3 0x32E PUSH20 0x49A534C6B865157935E4C2A375073E4E51F0E017 PUSH3 0x9B1 JUMP JUMPDEST PUSH3 0x34D PUSH20 0x47394B458332E08E6DCC16E26F099F276896E549 PUSH3 0x9B1 JUMP JUMPDEST PUSH3 0x36C PUSH20 0xB130A894187664B22B823DE7BB886E5C09E27D51 PUSH3 0x9B1 JUMP JUMPDEST PUSH3 0x38B PUSH20 0x89B35895E55E51A549D068E695C62063744F576B PUSH3 0x9B1 JUMP JUMPDEST PUSH3 0x3AA PUSH20 0xA8E0771582EA33A9D8E6D2CCB65A8D10BD0EA517 PUSH3 0x9B1 JUMP JUMPDEST PUSH3 0x3C9 PUSH20 0xB3E02431D6F566B927FE008877552510EF59CE47 PUSH3 0x9B1 JUMP JUMPDEST PUSH3 0x3E8 PUSH20 0xF0A94F91A39A595DEC22F611D9A68C197DBE0586 PUSH3 0x9B1 JUMP JUMPDEST PUSH3 0x407 PUSH20 0x136F4B5B6A306091B280E3F251FA0E21B1280CD5 PUSH3 0x9B1 JUMP JUMPDEST PUSH3 0x426 PUSH20 0xC3373905F94E16035F7E01FD5178586E5F478C81 PUSH3 0x9B1 JUMP JUMPDEST PUSH3 0x445 PUSH20 0xAF2358E98683265CBD3A48509123D390DDF54534 PUSH3 0x9B1 JUMP JUMPDEST PUSH3 0x464 PUSH20 0xFB38D3924B632ED9E96271AEFBA4F66F82DA4109 PUSH3 0x9B1 JUMP JUMPDEST PUSH3 0x483 PUSH20 0x1E9DF8B502D1567FD184B90C7E96755BAF605F1A PUSH3 0x9B1 JUMP JUMPDEST PUSH3 0x4A2 PUSH20 0xBDEA73DB4B7A4610B74B6775CAB0B83AB97CDA51 PUSH3 0x9B1 JUMP JUMPDEST PUSH3 0x4C1 PUSH20 0x794ABB6064A4760DA8CEE3569492FF117BFD2D2F PUSH3 0x9B1 JUMP JUMPDEST PUSH3 0x4E0 PUSH20 0xEA0B05132DAAEE2642B123F072A463399584A427 PUSH3 0x9B1 JUMP JUMPDEST PUSH3 0x4FF PUSH20 0x790C2E02BE67615F592C5BCA1FF4A64DB370D100 PUSH3 0x9B1 JUMP JUMPDEST PUSH3 0x51E PUSH20 0xE19FCCF5AB03B049F7430D82F10A2C6177D2E442 PUSH3 0x9B1 JUMP JUMPDEST PUSH3 0x53D PUSH20 0x8BC110DB7029197C3621BEA8092AB1996D5DD7BE PUSH3 0x9B1 JUMP JUMPDEST PUSH3 0x55C PUSH20 0x22246F9BCA9921BFA9A3F8DF5BABC5BC8EE73850 PUSH3 0x9B1 JUMP JUMPDEST PUSH3 0x57B PUSH20 0xD24977D3196110A83A9ABE64A189AF3475A11814 PUSH3 0x9B1 JUMP JUMPDEST PUSH3 0x59A PUSH20 0xEDC0D61E5FCDC8949294DF3F5C13497643BE2B3E PUSH3 0x9B1 JUMP JUMPDEST PUSH3 0x5B9 PUSH20 0xA2198B72CA77868A7D7AD87F42040065511B2899 PUSH3 0x9B1 JUMP JUMPDEST PUSH3 0x5D8 PUSH20 0xFED3A313879442AA8262F63A99D74B9DAEE7524D PUSH3 0x9B1 JUMP JUMPDEST PUSH3 0x5F7 PUSH20 0xC891771CA5D53155AA39D560BBFCAB53D5D51CF9 PUSH3 0x9B1 JUMP JUMPDEST PUSH3 0x616 PUSH20 0xDF49CC12796A51238361848513D56E37D1572B74 PUSH3 0x9B1 JUMP JUMPDEST PUSH3 0x635 PUSH20 0x754AEDB8DFC4BD4ACEEB10C43BA9662C51102EB PUSH3 0x9B1 JUMP JUMPDEST PUSH3 0x654 PUSH20 0xEA60CE3A942609A27BBE1087B6420BF6D6191899 PUSH3 0x9B1 JUMP JUMPDEST PUSH3 0x673 PUSH20 0x9F533382024F02632C832EA2B66F4BBB1DBC4087 PUSH3 0x9B1 JUMP JUMPDEST PUSH3 0x692 PUSH20 0x5D2C6EB3C5B4E07E0B50F818049BECF7EAD22893 PUSH3 0x9B1 JUMP JUMPDEST PUSH3 0x6B1 PUSH20 0x856BFC01D2A30956E72B0F61FE50173A36B2E759 PUSH3 0x9B1 JUMP JUMPDEST PUSH3 0x6D0 PUSH20 0x5AA00A222D88AC85DB87E5F7E16C15AA6BB03072 PUSH3 0x9B1 JUMP JUMPDEST PUSH3 0x6EF PUSH20 0x882CE9E1307CD42E3DAF573BDB76055CC89A4DF8 PUSH3 0x9B1 JUMP JUMPDEST PUSH3 0x70E PUSH20 0xC43CF04C913D81D67B64EAF2A6D30F2219AD6462 PUSH3 0x9B1 JUMP JUMPDEST PUSH3 0x72D PUSH20 0xD8FDE3AF5DFD705A6EEC8188BE7903F4D59833CF PUSH3 0x9B1 JUMP JUMPDEST PUSH3 0x74C PUSH20 0x4012230B398DE509146BF09F77BF3A2B869B41BB PUSH3 0x9B1 JUMP JUMPDEST PUSH3 0x76D PUSH20 0xDEF78A28C78A461598D948BC0C689CE88F812AD8 PUSH1 0x1 PUSH3 0x977 JUMP JUMPDEST PUSH3 0x78E PUSH20 0xDEF1C0DED9BEC7F1A1670819833240F027B25EFF PUSH1 0x1 PUSH3 0x977 JUMP JUMPDEST PUSH3 0x7AF PUSH20 0x11111112542D85B3EF69AE05771C2DCCFF4FAA26 PUSH1 0x1 PUSH3 0x977 JUMP JUMPDEST PUSH3 0x7D0 PUSH20 0x27239549DD40E1D60F5B80B0C4196923745B1FD2 PUSH1 0x1 PUSH3 0x977 JUMP JUMPDEST PUSH3 0x7F1 PUSH20 0xDEF1FAE3A7713173C168945B8704D4600B6FC7B9 PUSH1 0x1 PUSH3 0x977 JUMP JUMPDEST PUSH3 0x812 PUSH20 0xDEF1FAC7BF08F173D286BBBDCBEEADE695129840 PUSH1 0x1 PUSH3 0x977 JUMP JUMPDEST PUSH1 0x1 CHAINID EQ ISZERO PUSH3 0x8C7 JUMPI PUSH3 0x83D PUSH20 0x881D40237659C251811CEC9C364EF91DC08D300C PUSH1 0x1 PUSH3 0x977 JUMP JUMPDEST PUSH3 0x85E PUSH20 0x74DE5D4FCBF63E00296FD95D33236B9794016631 PUSH1 0x1 PUSH3 0x977 JUMP JUMPDEST PUSH3 0x87F PUSH20 0xE122D2E14D35D794C977B4D6924232CAE7C8DBB5 PUSH1 0x1 PUSH3 0x977 JUMP JUMPDEST PUSH3 0x8A0 PUSH20 0x7A250D5630B4CF539739DF2C5DACB4C659F2488D PUSH1 0x1 PUSH3 0x977 JUMP JUMPDEST PUSH3 0x8C1 PUSH20 0xFA6687922BF40FF51BCD45F9FD339215A4869D82 PUSH1 0x1 PUSH3 0xA3D JUMP JUMPDEST PUSH3 0xF60 JUMP JUMPDEST PUSH1 0x38 CHAINID EQ ISZERO PUSH3 0x8C1 JUMPI PUSH3 0x8F2 PUSH20 0x10ED43C718714EB63D5AA57B78B54704E256024E PUSH1 0x1 PUSH3 0x977 JUMP JUMPDEST PUSH3 0x913 PUSH20 0x77324B361272DDE2D757F8EC6EB59DAAE794519 PUSH1 0x1 PUSH3 0xA3D JUMP JUMPDEST PUSH3 0x8C1 PUSH20 0x493E990CCC67F59A3000EFFA9D5B1417D54B6F99 PUSH1 0x1 PUSH3 0xA3D JUMP JUMPDEST PUSH3 0x94B DUP3 DUP3 PUSH3 0xA77 PUSH1 0x20 SHL PUSH3 0xF8F OR PUSH1 0x20 SHR JUMP JUMPDEST PUSH1 0x0 DUP3 DUP2 MSTORE PUSH1 0x1 PUSH1 0x20 SWAP1 DUP2 MSTORE PUSH1 0x40 SWAP1 SWAP2 KECCAK256 PUSH3 0x972 SWAP2 DUP4 SWAP1 PUSH3 0xF9D PUSH3 0xA87 DUP3 SHL OR SWAP1 SHR JUMP JUMPDEST POP POP POP JUMP JUMPDEST PUSH1 0x0 PUSH3 0x985 DUP2 CALLER PUSH3 0xAA7 JUMP JUMPDEST POP PUSH1 0x1 PUSH1 0x1 PUSH1 0xA0 SHL SUB SWAP2 SWAP1 SWAP2 AND PUSH1 0x0 SWAP1 DUP2 MSTORE PUSH1 0x3 PUSH1 0x20 MSTORE PUSH1 0x40 SWAP1 KECCAK256 DUP1 SLOAD PUSH1 0xFF NOT AND SWAP2 ISZERO ISZERO SWAP2 SWAP1 SWAP2 OR SWAP1 SSTORE JUMP JUMPDEST PUSH1 0x0 PUSH3 0x9BF DUP2 CALLER PUSH3 0xAA7 JUMP JUMPDEST PUSH1 0x1 PUSH1 0x1 PUSH1 0xA0 SHL SUB DUP3 AND PUSH1 0x0 SWAP1 DUP2 MSTORE PUSH1 0x2 PUSH1 0x20 MSTORE PUSH1 0x40 SWAP1 KECCAK256 SLOAD PUSH1 0xFF AND ISZERO PUSH3 0xA18 JUMPI PUSH1 0x40 MLOAD PUSH3 0x461BCD PUSH1 0xE5 SHL DUP2 MSTORE PUSH1 0x20 PUSH1 0x4 DUP3 ADD MSTORE PUSH1 0x7 PUSH1 0x24 DUP3 ADD MSTORE PUSH7 0x1114CE88189BDD PUSH1 0xCA SHL PUSH1 0x44 DUP3 ADD MSTORE PUSH1 0x64 ADD JUMPDEST PUSH1 0x40 MLOAD DUP1 SWAP2 SUB SWAP1 REVERT JUMPDEST POP PUSH1 0x1 PUSH1 0x1 PUSH1 0xA0 SHL SUB AND PUSH1 0x0 SWAP1 DUP2 MSTORE PUSH1 0x2 PUSH1 0x20 MSTORE PUSH1 0x40 SWAP1 KECCAK256 DUP1 SLOAD PUSH1 0xFF NOT AND PUSH1 0x1 OR SWAP1 SSTORE JUMP JUMPDEST PUSH1 0x0 PUSH3 0xA4B DUP2 CALLER PUSH3 0xAA7 JUMP JUMPDEST POP PUSH1 0x1 PUSH1 0x1 PUSH1 0xA0 SHL SUB SWAP2 SWAP1 SWAP2 AND PUSH1 0x0 SWAP1 DUP2 MSTORE PUSH1 0x6 PUSH1 0x20 MSTORE PUSH1 0x40 SWAP1 KECCAK256 DUP1 SLOAD PUSH1 0xFF NOT AND SWAP2 ISZERO ISZERO SWAP2 SWAP1 SWAP2 OR SWAP1 SSTORE JUMP JUMPDEST PUSH3 0xA83 DUP3 DUP3 PUSH3 0xB2A JUMP JUMPDEST POP POP JUMP JUMPDEST PUSH1 0x0 PUSH3 0xA9E DUP4 PUSH1 0x1 PUSH1 0x1 PUSH1 0xA0 SHL SUB DUP5 AND PUSH3 0xBB2 JUMP JUMPDEST SWAP1 POP JUMPDEST SWAP3 SWAP2 POP POP JUMP JUMPDEST PUSH3 0xAB3 DUP3 DUP3 PUSH3 0xC04 JUMP JUMPDEST PUSH3 0xA83 JUMPI PUSH3 0xAD9 DUP2 PUSH1 0x1 PUSH1 0x1 PUSH1 0xA0 SHL SUB AND PUSH1 0x14 PUSH3 0xC2D PUSH1 0x20 SHL PUSH3 0xFB2 OR PUSH1 0x20 SHR JUMP JUMPDEST PUSH3 0xAEF DUP4 PUSH1 0x20 PUSH3 0xFB2 PUSH3 0xC2D DUP3 SHL OR DUP2 SHR JUMP JUMPDEST PUSH1 0x40 MLOAD PUSH1 0x20 ADD PUSH3 0xB02 SWAP3 SWAP2 SWAP1 PUSH3 0xDE6 JUMP JUMPDEST PUSH1 0x40 DUP1 MLOAD PUSH1 0x1F NOT DUP2 DUP5 SUB ADD DUP2 MSTORE SWAP1 DUP3 SWAP1 MSTORE PUSH3 0x461BCD PUSH1 0xE5 SHL DUP3 MSTORE PUSH3 0xA0F SWAP2 PUSH1 0x4 ADD PUSH3 0xE5F JUMP JUMPDEST PUSH3 0xB36 DUP3 DUP3 PUSH3 0xC04 JUMP JUMPDEST PUSH3 0xA83 JUMPI PUSH1 0x0 DUP3 DUP2 MSTORE PUSH1 0x20 DUP2 DUP2 MSTORE PUSH1 0x40 DUP1 DUP4 KECCAK256 PUSH1 0x1 PUSH1 0x1 PUSH1 0xA0 SHL SUB DUP6 AND DUP5 MSTORE SWAP1 SWAP2 MSTORE SWAP1 KECCAK256 DUP1 SLOAD PUSH1 0xFF NOT AND PUSH1 0x1 OR SWAP1 SSTORE PUSH3 0xB6E CALLER SWAP1 JUMP JUMPDEST PUSH1 0x1 PUSH1 0x1 PUSH1 0xA0 SHL SUB AND DUP2 PUSH1 0x1 PUSH1 0x1 PUSH1 0xA0 SHL SUB AND DUP4 PUSH32 0x2F8788117E7EFF1D82E926EC794901D17C78024A50270940304540A733656F0D PUSH1 0x40 MLOAD PUSH1 0x40 MLOAD DUP1 SWAP2 SUB SWAP1 LOG4 POP POP JUMP JUMPDEST PUSH1 0x0 DUP2 DUP2 MSTORE PUSH1 0x1 DUP4 ADD PUSH1 0x20 MSTORE PUSH1 0x40 DUP2 KECCAK256 SLOAD PUSH3 0xBFB JUMPI POP DUP2 SLOAD PUSH1 0x1 DUP2 DUP2 ADD DUP5 SSTORE PUSH1 0x0 DUP5 DUP2 MSTORE PUSH1 0x20 DUP1 DUP3 KECCAK256 SWAP1 SWAP4 ADD DUP5 SWAP1 SSTORE DUP5 SLOAD DUP5 DUP3 MSTORE DUP3 DUP7 ADD SWAP1 SWAP4 MSTORE PUSH1 0x40 SWAP1 KECCAK256 SWAP2 SWAP1 SWAP2 SSTORE PUSH3 0xAA1 JUMP JUMPDEST POP PUSH1 0x0 PUSH3 0xAA1 JUMP JUMPDEST PUSH1 0x0 SWAP2 DUP3 MSTORE PUSH1 0x20 DUP3 DUP2 MSTORE PUSH1 0x40 DUP1 DUP5 KECCAK256 PUSH1 0x1 PUSH1 0x1 PUSH1 0xA0 SHL SUB SWAP4 SWAP1 SWAP4 AND DUP5 MSTORE SWAP2 SWAP1 MSTORE SWAP1 KECCAK256 SLOAD PUSH1 0xFF AND SWAP1 JUMP JUMPDEST PUSH1 0x60 PUSH1 0x0 PUSH3 0xC3E DUP4 PUSH1 0x2 PUSH3 0xEAF JUMP JUMPDEST PUSH3 0xC4B SWAP1 PUSH1 0x2 PUSH3 0xE94 JUMP JUMPDEST PUSH1 0x1 PUSH1 0x1 PUSH1 0x40 SHL SUB DUP2 GT ISZERO PUSH3 0xC65 JUMPI PUSH3 0xC65 PUSH3 0xF4A JUMP JUMPDEST PUSH1 0x40 MLOAD SWAP1 DUP1 DUP3 MSTORE DUP1 PUSH1 0x1F ADD PUSH1 0x1F NOT AND PUSH1 0x20 ADD DUP3 ADD PUSH1 0x40 MSTORE DUP1 ISZERO PUSH3 0xC90 JUMPI PUSH1 0x20 DUP3 ADD DUP2 DUP1 CALLDATASIZE DUP4 CALLDATACOPY ADD SWAP1 POP JUMPDEST POP SWAP1 POP PUSH1 0x3 PUSH1 0xFC SHL DUP2 PUSH1 0x0 DUP2 MLOAD DUP2 LT PUSH3 0xCAE JUMPI PUSH3 0xCAE PUSH3 0xF34 JUMP JUMPDEST PUSH1 0x20 ADD ADD SWAP1 PUSH1 0x1 PUSH1 0x1 PUSH1 0xF8 SHL SUB NOT AND SWAP1 DUP2 PUSH1 0x0 BYTE SWAP1 MSTORE8 POP PUSH1 0xF PUSH1 0xFB SHL DUP2 PUSH1 0x1 DUP2 MLOAD DUP2 LT PUSH3 0xCE0 JUMPI PUSH3 0xCE0 PUSH3 0xF34 JUMP JUMPDEST PUSH1 0x20 ADD ADD SWAP1 PUSH1 0x1 PUSH1 0x1 PUSH1 0xF8 SHL SUB NOT AND SWAP1 DUP2 PUSH1 0x0 BYTE SWAP1 MSTORE8 POP PUSH1 0x0 PUSH3 0xD06 DUP5 PUSH1 0x2 PUSH3 0xEAF JUMP JUMPDEST PUSH3 0xD13 SWAP1 PUSH1 0x1 PUSH3 0xE94 JUMP JUMPDEST SWAP1 POP JUMPDEST PUSH1 0x1 DUP2 GT ISZERO PUSH3 0xD95 JUMPI PUSH16 0x181899199A1A9B1B9C1CB0B131B232B3 PUSH1 0x81 SHL DUP6 PUSH1 0xF AND PUSH1 0x10 DUP2 LT PUSH3 0xD4B JUMPI PUSH3 0xD4B PUSH3 0xF34 JUMP JUMPDEST BYTE PUSH1 0xF8 SHL DUP3 DUP3 DUP2 MLOAD DUP2 LT PUSH3 0xD64 JUMPI PUSH3 0xD64 PUSH3 0xF34 JUMP JUMPDEST PUSH1 0x20 ADD ADD SWAP1 PUSH1 0x1 PUSH1 0x1 PUSH1 0xF8 SHL SUB NOT AND SWAP1 DUP2 PUSH1 0x0 BYTE SWAP1 MSTORE8 POP PUSH1 0x4 SWAP5 SWAP1 SWAP5 SHR SWAP4 PUSH3 0xD8D DUP2 PUSH3 0xF04 JUMP JUMPDEST SWAP1 POP PUSH3 0xD16 JUMP JUMPDEST POP DUP4 ISZERO PUSH3 0xA9E JUMPI PUSH1 0x40 MLOAD PUSH3 0x461BCD PUSH1 0xE5 SHL DUP2 MSTORE PUSH1 0x20 PUSH1 0x4 DUP3 ADD DUP2 SWAP1 MSTORE PUSH1 0x24 DUP3 ADD MSTORE PUSH32 0x537472696E67733A20686578206C656E67746820696E73756666696369656E74 PUSH1 0x44 DUP3 ADD MSTORE PUSH1 0x64 ADD PUSH3 0xA0F JUMP JUMPDEST PUSH32 0x416363657373436F6E74726F6C3A206163636F756E7420000000000000000000 DUP2 MSTORE PUSH1 0x0 DUP4 MLOAD PUSH3 0xE20 DUP2 PUSH1 0x17 DUP6 ADD PUSH1 0x20 DUP9 ADD PUSH3 0xED1 JUMP JUMPDEST PUSH17 0x1034B99036B4B9B9B4B733903937B6329 PUSH1 0x7D SHL PUSH1 0x17 SWAP2 DUP5 ADD SWAP2 DUP3 ADD MSTORE DUP4 MLOAD PUSH3 0xE53 DUP2 PUSH1 0x28 DUP5 ADD PUSH1 0x20 DUP9 ADD PUSH3 0xED1 JUMP JUMPDEST ADD PUSH1 0x28 ADD SWAP5 SWAP4 POP POP POP POP JUMP JUMPDEST PUSH1 0x20 DUP2 MSTORE PUSH1 0x0 DUP3 MLOAD DUP1 PUSH1 0x20 DUP5 ADD MSTORE PUSH3 0xE80 DUP2 PUSH1 0x40 DUP6 ADD PUSH1 0x20 DUP8 ADD PUSH3 0xED1 JUMP JUMPDEST PUSH1 0x1F ADD PUSH1 0x1F NOT AND SWAP2 SWAP1 SWAP2 ADD PUSH1 0x40 ADD SWAP3 SWAP2 POP POP JUMP JUMPDEST PUSH1 0x0 DUP3 NOT DUP3 GT ISZERO PUSH3 0xEAA JUMPI PUSH3 0xEAA PUSH3 0xF1E JUMP JUMPDEST POP ADD SWAP1 JUMP JUMPDEST PUSH1 0x0 DUP2 PUSH1 0x0 NOT DIV DUP4 GT DUP3 ISZERO ISZERO AND ISZERO PUSH3 0xECC JUMPI PUSH3 0xECC PUSH3 0xF1E JUMP JUMPDEST POP MUL SWAP1 JUMP JUMPDEST PUSH1 0x0 JUMPDEST DUP4 DUP2 LT ISZERO PUSH3 0xEEE JUMPI DUP2 DUP2 ADD MLOAD DUP4 DUP3 ADD MSTORE PUSH1 0x20 ADD PUSH3 0xED4 JUMP JUMPDEST DUP4 DUP2 GT ISZERO PUSH3 0xEFE JUMPI PUSH1 0x0 DUP5 DUP5 ADD MSTORE JUMPDEST POP POP POP POP JUMP JUMPDEST PUSH1 0x0 DUP2 PUSH3 0xF16 JUMPI PUSH3 0xF16 PUSH3 0xF1E JUMP JUMPDEST POP PUSH1 0x0 NOT ADD SWAP1 JUMP JUMPDEST PUSH4 0x4E487B71 PUSH1 0xE0 SHL PUSH1 0x0 MSTORE PUSH1 0x11 PUSH1 0x4 MSTORE PUSH1 0x24 PUSH1 0x0 REVERT JUMPDEST PUSH4 0x4E487B71 PUSH1 0xE0 SHL PUSH1 0x0 MSTORE PUSH1 0x32 PUSH1 0x4 MSTORE PUSH1 0x24 PUSH1 0x0 REVERT JUMPDEST PUSH4 0x4E487B71 PUSH1 0xE0 SHL PUSH1 0x0 MSTORE PUSH1 0x41 PUSH1 0x4 MSTORE PUSH1 0x24 PUSH1 0x0 REVERT JUMPDEST PUSH2 0x1B7E DUP1 PUSH3 0xF70 PUSH1 0x0 CODECOPY PUSH1 0x0 RETURN INVALID PUSH1 0x80 PUSH1 0x40 MSTORE CALLVALUE DUP1 ISZERO PUSH2 0x10 JUMPI PUSH1 0x0 DUP1 REVERT JUMPDEST POP PUSH1 0x4 CALLDATASIZE LT PUSH2 0x15F JUMPI PUSH1 0x0 CALLDATALOAD PUSH1 0xE0 SHR DUP1 PUSH4 0x1FFC9A7 EQ PUSH2 0x164 JUMPI DUP1 PUSH4 0x3ED957F EQ PUSH2 0x18C JUMPI DUP1 PUSH4 0x1093BAA9 EQ PUSH2 0x1A1 JUMPI DUP1 PUSH4 0x161AA47E EQ PUSH2 0x1B4 JUMPI DUP1 PUSH4 0x1FD413F8 EQ PUSH2 0x1D5 JUMPI DUP1 PUSH4 0x231683AE EQ PUSH2 0x1F5 JUMPI DUP1 PUSH4 0x248A9CA3 EQ PUSH2 0x208 JUMPI DUP1 PUSH4 0x24933296 EQ PUSH2 0x22B JUMPI DUP1 PUSH4 0x2A5BF470 EQ PUSH2 0x23E JUMPI DUP1 PUSH4 0x2F2FF15D EQ PUSH2 0x251 JUMPI DUP1 PUSH4 0x36568ABE EQ PUSH2 0x264 JUMPI DUP1 PUSH4 0x404A8CCA EQ PUSH2 0x277 JUMPI DUP1 PUSH4 0x441C62A8 EQ PUSH2 0x28A JUMPI DUP1 PUSH4 0x5F242323 EQ PUSH2 0x29D JUMPI DUP1 PUSH4 0x60623731 EQ PUSH2 0x2B0 JUMPI DUP1 PUSH4 0x6A930A95 EQ PUSH2 0x2EB JUMPI DUP1 PUSH4 0x9010D07C EQ PUSH2 0x2FE JUMPI DUP1 PUSH4 0x91D14854 EQ PUSH2 0x31E JUMPI DUP1 PUSH4 0xA8798FFC EQ PUSH2 0x331 JUMPI DUP1 PUSH4 0xA9A48824 EQ PUSH2 0x344 JUMPI DUP1 PUSH4 0xB8A6F8C0 EQ PUSH2 0x357 JUMPI DUP1 PUSH4 0xCA15C873 EQ PUSH2 0x36A JUMPI DUP1 PUSH4 0xD391014B EQ PUSH2 0x37D JUMPI DUP1 PUSH4 0xD547741F EQ PUSH2 0x385 JUMPI DUP1 PUSH4 0xDB8AA538 EQ PUSH2 0x398 JUMPI DUP1 PUSH4 0xE53FD775 EQ PUSH2 0x3AB JUMPI DUP1 PUSH4 0xEAA8F7E3 EQ PUSH2 0x3BE JUMPI DUP1 PUSH4 0xED0B8476 EQ PUSH2 0x3D1 JUMPI DUP1 PUSH4 0xFC70DA0A EQ PUSH2 0x3E4 JUMPI JUMPDEST PUSH1 0x0 DUP1 REVERT JUMPDEST PUSH2 0x177 PUSH2 0x172 CALLDATASIZE PUSH1 0x4 PUSH2 0x18FE JUMP JUMPDEST PUSH2 0x3F7 JUMP JUMPDEST PUSH1 0x40 MLOAD SWAP1 ISZERO ISZERO DUP2 MSTORE PUSH1 0x20 ADD JUMPDEST PUSH1 0x40 MLOAD DUP1 SWAP2 SUB SWAP1 RETURN JUMPDEST PUSH2 0x19F PUSH2 0x19A CALLDATASIZE PUSH1 0x4 PUSH2 0x182C JUMP JUMPDEST PUSH2 0x422 JUMP JUMPDEST STOP JUMPDEST PUSH2 0x19F PUSH2 0x1AF CALLDATASIZE PUSH1 0x4 PUSH2 0x15B5 JUMP JUMPDEST PUSH2 0x49F JUMP JUMPDEST PUSH2 0x1C7 PUSH2 0x1C2 CALLDATASIZE PUSH1 0x4 PUSH2 0x15D0 JUMP JUMPDEST PUSH2 0x528 JUMP JUMPDEST PUSH1 0x40 MLOAD SWAP1 DUP2 MSTORE PUSH1 0x20 ADD PUSH2 0x183 JUMP JUMPDEST PUSH2 0x1E8 PUSH2 0x1E3 CALLDATASIZE PUSH1 0x4 PUSH2 0x1761 JUMP JUMPDEST PUSH2 0x562 JUMP JUMPDEST PUSH1 0x40 MLOAD PUSH2 0x183 SWAP2 SWAP1 PUSH2 0x19C4 JUMP JUMPDEST PUSH2 0x19F PUSH2 0x203 CALLDATASIZE PUSH1 0x4 PUSH2 0x1682 JUMP JUMPDEST PUSH2 0x60C JUMP JUMPDEST PUSH2 0x1C7 PUSH2 0x216 CALLDATASIZE PUSH1 0x4 PUSH2 0x18A0 JUMP JUMPDEST PUSH1 0x0 SWAP1 DUP2 MSTORE PUSH1 0x20 DUP2 SWAP1 MSTORE PUSH1 0x40 SWAP1 KECCAK256 PUSH1 0x1 ADD SLOAD SWAP1 JUMP JUMPDEST PUSH2 0x177 PUSH2 0x239 CALLDATASIZE PUSH1 0x4 PUSH2 0x15B5 JUMP JUMPDEST PUSH2 0x644 JUMP JUMPDEST PUSH2 0x19F PUSH2 0x24C CALLDATASIZE PUSH1 0x4 PUSH2 0x1646 JUMP JUMPDEST PUSH2 0x671 JUMP JUMPDEST PUSH2 0x19F PUSH2 0x25F CALLDATASIZE PUSH1 0x4 PUSH2 0x18B9 JUMP JUMPDEST PUSH2 0x6D7 JUMP JUMPDEST PUSH2 0x19F PUSH2 0x272 CALLDATASIZE PUSH1 0x4 PUSH2 0x18B9 JUMP JUMPDEST PUSH2 0x6FE JUMP JUMPDEST PUSH2 0x19F PUSH2 0x285 CALLDATASIZE PUSH1 0x4 PUSH2 0x1717 JUMP JUMPDEST PUSH2 0x720 JUMP JUMPDEST PUSH2 0x1E8 PUSH2 0x298 CALLDATASIZE PUSH1 0x4 PUSH2 0x1761 JUMP JUMPDEST PUSH2 0x7A4 JUMP JUMPDEST PUSH2 0x177 PUSH2 0x2AB CALLDATASIZE PUSH1 0x4 PUSH2 0x15B5 JUMP JUMPDEST PUSH2 0x846 JUMP JUMPDEST PUSH2 0x2C3 PUSH2 0x2BE CALLDATASIZE PUSH1 0x4 PUSH2 0x1603 JUMP JUMPDEST PUSH2 0x873 JUMP JUMPDEST PUSH1 0x40 DUP1 MLOAD DUP3 MLOAD ISZERO ISZERO DUP2 MSTORE PUSH1 0x20 DUP1 DUP5 ADD MLOAD ISZERO ISZERO SWAP1 DUP3 ADD MSTORE SWAP2 DUP2 ADD MLOAD ISZERO ISZERO SWAP1 DUP3 ADD MSTORE PUSH1 0x60 ADD PUSH2 0x183 JUMP JUMPDEST PUSH2 0x19F PUSH2 0x2F9 CALLDATASIZE PUSH1 0x4 PUSH2 0x16D6 JUMP JUMPDEST PUSH2 0xB73 JUMP JUMPDEST PUSH2 0x311 PUSH2 0x30C CALLDATASIZE PUSH1 0x4 PUSH2 0x18DC JUMP JUMPDEST PUSH2 0xC3E JUMP JUMPDEST PUSH1 0x40 MLOAD PUSH2 0x183 SWAP2 SWAP1 PUSH2 0x19B0 JUMP JUMPDEST PUSH2 0x177 PUSH2 0x32C CALLDATASIZE PUSH1 0x4 PUSH2 0x18B9 JUMP JUMPDEST PUSH2 0xC5D JUMP JUMPDEST PUSH2 0x19F PUSH2 0x33F CALLDATASIZE PUSH1 0x4 PUSH2 0x1717 JUMP JUMPDEST PUSH2 0xC86 JUMP JUMPDEST PUSH2 0x19F PUSH2 0x352 CALLDATASIZE PUSH1 0x4 PUSH2 0x15B5 JUMP JUMPDEST PUSH2 0xD03 JUMP JUMPDEST PUSH2 0x19F PUSH2 0x365 CALLDATASIZE PUSH1 0x4 PUSH2 0x1717 JUMP JUMPDEST PUSH2 0xD84 JUMP JUMPDEST PUSH2 0x1C7 PUSH2 0x378 CALLDATASIZE PUSH1 0x4 PUSH2 0x18A0 JUMP JUMPDEST PUSH2 0xE01 JUMP JUMPDEST PUSH2 0x1C7 PUSH1 0x0 DUP2 JUMP JUMPDEST PUSH2 0x19F PUSH2 0x393 CALLDATASIZE PUSH1 0x4 PUSH2 0x18B9 JUMP JUMPDEST PUSH2 0xE18 JUMP JUMPDEST PUSH2 0x177 PUSH2 0x3A6 CALLDATASIZE PUSH1 0x4 PUSH2 0x15B5 JUMP JUMPDEST PUSH2 0xE22 JUMP JUMPDEST PUSH2 0x1C7 PUSH2 0x3B9 CALLDATASIZE PUSH1 0x4 PUSH2 0x15B5 JUMP JUMPDEST PUSH2 0xE4F JUMP JUMPDEST PUSH2 0x177 PUSH2 0x3CC CALLDATASIZE PUSH1 0x4 PUSH2 0x15B5 JUMP JUMPDEST PUSH2 0xE9E JUMP JUMPDEST PUSH2 0x19F PUSH2 0x3DF CALLDATASIZE PUSH1 0x4 PUSH2 0x16AC JUMP JUMPDEST PUSH2 0xF2E JUMP JUMPDEST PUSH2 0x19F PUSH2 0x3F2 CALLDATASIZE PUSH1 0x4 PUSH2 0x1682 JUMP JUMPDEST PUSH2 0xF57 JUMP JUMPDEST PUSH1 0x0 PUSH1 0x1 PUSH1 0x1 PUSH1 0xE0 SHL SUB NOT DUP3 AND PUSH4 0x5A05180F PUSH1 0xE0 SHL EQ DUP1 PUSH2 0x41C JUMPI POP PUSH2 0x41C DUP3 PUSH2 0x114D JUMP JUMPDEST SWAP3 SWAP2 POP POP JUMP JUMPDEST PUSH1 0x0 PUSH2 0x42E DUP2 CALLER PUSH2 0x1182 JUMP JUMPDEST PUSH1 0x0 JUMPDEST DUP3 DUP2 LT ISZERO PUSH2 0x499 JUMPI PUSH2 0x487 DUP5 DUP5 DUP4 DUP2 DUP2 LT PUSH2 0x44E JUMPI PUSH2 0x44E PUSH2 0x1B1C JUMP JUMPDEST SWAP1 POP PUSH1 0x40 MUL ADD PUSH1 0x0 ADD CALLDATALOAD DUP6 DUP6 DUP5 DUP2 DUP2 LT PUSH2 0x46A JUMPI PUSH2 0x46A PUSH2 0x1B1C JUMP JUMPDEST SWAP1 POP PUSH1 0x40 MUL ADD PUSH1 0x20 ADD PUSH1 0x20 DUP2 ADD SWAP1 PUSH2 0x482 SWAP2 SWAP1 PUSH2 0x15B5 JUMP JUMPDEST PUSH2 0x11E6 JUMP JUMPDEST DUP1 PUSH2 0x491 DUP2 PUSH2 0x1AD5 JUMP JUMPDEST SWAP2 POP POP PUSH2 0x431 JUMP JUMPDEST POP POP POP POP JUMP JUMPDEST PUSH1 0x0 PUSH2 0x4AB DUP2 CALLER PUSH2 0x1182 JUMP JUMPDEST PUSH1 0x1 PUSH1 0x1 PUSH1 0xA0 SHL SUB DUP3 AND PUSH1 0x0 SWAP1 DUP2 MSTORE PUSH1 0x2 PUSH1 0x20 MSTORE PUSH1 0x40 SWAP1 KECCAK256 SLOAD PUSH1 0xFF AND ISZERO PUSH2 0x503 JUMPI PUSH1 0x40 MLOAD PUSH3 0x461BCD PUSH1 0xE5 SHL DUP2 MSTORE PUSH1 0x20 PUSH1 0x4 DUP3 ADD MSTORE PUSH1 0x7 PUSH1 0x24 DUP3 ADD MSTORE PUSH7 0x1114CE88189BDD PUSH1 0xCA SHL PUSH1 0x44 DUP3 ADD MSTORE PUSH1 0x64 ADD JUMPDEST PUSH1 0x40 MLOAD DUP1 SWAP2 SUB SWAP1 REVERT JUMPDEST POP PUSH1 0x1 PUSH1 0x1 PUSH1 0xA0 SHL SUB AND PUSH1 0x0 SWAP1 DUP2 MSTORE PUSH1 0x2 PUSH1 0x20 MSTORE PUSH1 0x40 SWAP1 KECCAK256 DUP1 SLOAD PUSH1 0xFF NOT AND PUSH1 0x1 OR SWAP1 SSTORE JUMP JUMPDEST PUSH1 0x0 DUP1 PUSH2 0x535 DUP2 CALLER PUSH2 0x1182 JUMP JUMPDEST POP POP PUSH1 0x1 PUSH1 0x1 PUSH1 0xA0 SHL SUB SWAP2 DUP3 AND PUSH1 0x0 SWAP1 DUP2 MSTORE PUSH1 0x5 PUSH1 0x20 SWAP1 DUP2 MSTORE PUSH1 0x40 DUP1 DUP4 KECCAK256 SWAP4 SWAP1 SWAP5 AND DUP3 MSTORE SWAP2 SWAP1 SWAP2 MSTORE KECCAK256 SLOAD SWAP1 JUMP JUMPDEST PUSH1 0x60 PUSH1 0x0 PUSH2 0x570 DUP2 CALLER PUSH2 0x1182 JUMP JUMPDEST PUSH1 0x0 JUMPDEST DUP4 MLOAD DUP2 LT ISZERO PUSH2 0x604 JUMPI PUSH1 0x3 PUSH1 0x0 DUP6 DUP4 DUP2 MLOAD DUP2 LT PUSH2 0x592 JUMPI PUSH2 0x592 PUSH2 0x1B1C JUMP JUMPDEST PUSH1 0x20 SWAP1 DUP2 MUL SWAP2 SWAP1 SWAP2 ADD DUP2 ADD MLOAD PUSH1 0x1 PUSH1 0x1 PUSH1 0xA0 SHL SUB AND DUP3 MSTORE DUP2 ADD SWAP2 SWAP1 SWAP2 MSTORE PUSH1 0x40 ADD PUSH1 0x0 KECCAK256 SLOAD PUSH1 0xFF AND PUSH2 0x5F2 JUMPI PUSH1 0x0 DUP5 DUP3 DUP2 MLOAD DUP2 LT PUSH2 0x5D1 JUMPI PUSH2 0x5D1 PUSH2 0x1B1C JUMP JUMPDEST PUSH1 0x20 MUL PUSH1 0x20 ADD ADD SWAP1 PUSH1 0x1 PUSH1 0x1 PUSH1 0xA0 SHL SUB AND SWAP1 DUP2 PUSH1 0x1 PUSH1 0x1 PUSH1 0xA0 SHL SUB AND DUP2 MSTORE POP POP JUMPDEST DUP1 PUSH2 0x5FC DUP2 PUSH2 0x1AD5 JUMP JUMPDEST SWAP2 POP POP PUSH2 0x573 JUMP JUMPDEST POP SWAP2 SWAP3 SWAP2 POP POP JUMP JUMPDEST PUSH1 0x0 PUSH2 0x618 DUP2 CALLER PUSH2 0x1182 JUMP JUMPDEST POP PUSH1 0x1 PUSH1 0x1 PUSH1 0xA0 SHL SUB SWAP2 SWAP1 SWAP2 AND PUSH1 0x0 SWAP1 DUP2 MSTORE PUSH1 0x3 PUSH1 0x20 MSTORE PUSH1 0x40 SWAP1 KECCAK256 DUP1 SLOAD PUSH1 0xFF NOT AND SWAP2 ISZERO ISZERO SWAP2 SWAP1 SWAP2 OR SWAP1 SSTORE JUMP JUMPDEST PUSH1 0x0 DUP1 PUSH2 0x651 DUP2 CALLER PUSH2 0x1182 JUMP JUMPDEST POP POP PUSH1 0x1 PUSH1 0x1 PUSH1 0xA0 SHL SUB AND PUSH1 0x0 SWAP1 DUP2 MSTORE PUSH1 0x6 PUSH1 0x20 MSTORE PUSH1 0x40 SWAP1 KECCAK256 SLOAD PUSH1 0xFF AND SWAP1 JUMP JUMPDEST PUSH1 0x0 PUSH2 0x67D DUP2 CALLER PUSH2 0x1182 JUMP JUMPDEST DUP3 EXTCODESIZE ISZERO DUP1 ISZERO PUSH2 0x6A5 JUMPI POP PUSH1 0x1 PUSH1 0x1 PUSH1 0xA0 SHL SUB DUP4 AND PUSH1 0x0 SWAP1 DUP2 MSTORE PUSH1 0x3 PUSH1 0x20 MSTORE PUSH1 0x40 SWAP1 KECCAK256 SLOAD PUSH1 0xFF AND ISZERO JUMPDEST ISZERO PUSH2 0x499 JUMPI POP PUSH1 0x1 PUSH1 0x1 PUSH1 0xA0 SHL SUB SWAP3 DUP4 AND PUSH1 0x0 SWAP1 DUP2 MSTORE PUSH1 0x5 PUSH1 0x20 SWAP1 DUP2 MSTORE PUSH1 0x40 DUP1 DUP4 KECCAK256 SWAP5 SWAP1 SWAP6 AND DUP3 MSTORE SWAP3 SWAP1 SWAP3 MSTORE SWAP2 SWAP1 KECCAK256 SSTORE JUMP JUMPDEST PUSH2 0x6E1 DUP3 DUP3 PUSH2 0x11F0 JUMP JUMPDEST PUSH1 0x0 DUP3 DUP2 MSTORE PUSH1 0x1 PUSH1 0x20 MSTORE PUSH1 0x40 SWAP1 KECCAK256 PUSH2 0x6F9 SWAP1 DUP3 PUSH2 0xF9D JUMP JUMPDEST POP POP POP JUMP JUMPDEST PUSH2 0x708 DUP3 DUP3 PUSH2 0x1206 JUMP JUMPDEST PUSH1 0x0 DUP3 DUP2 MSTORE PUSH1 0x1 PUSH1 0x20 MSTORE PUSH1 0x40 SWAP1 KECCAK256 PUSH2 0x6F9 SWAP1 DUP3 PUSH2 0x1280 JUMP JUMPDEST PUSH1 0x0 PUSH2 0x72C DUP2 CALLER PUSH2 0x1182 JUMP JUMPDEST PUSH1 0x0 JUMPDEST DUP4 DUP2 LT ISZERO PUSH2 0x79D JUMPI DUP3 PUSH1 0x2 PUSH1 0x0 DUP8 DUP8 DUP6 DUP2 DUP2 LT PUSH2 0x74E JUMPI PUSH2 0x74E PUSH2 0x1B1C JUMP JUMPDEST SWAP1 POP PUSH1 0x20 MUL ADD PUSH1 0x20 DUP2 ADD SWAP1 PUSH2 0x763 SWAP2 SWAP1 PUSH2 0x15B5 JUMP JUMPDEST PUSH1 0x1 PUSH1 0x1 PUSH1 0xA0 SHL SUB AND DUP2 MSTORE PUSH1 0x20 DUP2 ADD SWAP2 SWAP1 SWAP2 MSTORE PUSH1 0x40 ADD PUSH1 0x0 KECCAK256 DUP1 SLOAD PUSH1 0xFF NOT AND SWAP2 ISZERO ISZERO SWAP2 SWAP1 SWAP2 OR SWAP1 SSTORE DUP1 PUSH2 0x795 DUP2 PUSH2 0x1AD5 JUMP JUMPDEST SWAP2 POP POP PUSH2 0x72F JUMP JUMPDEST POP POP POP POP POP JUMP JUMPDEST PUSH1 0x60 PUSH1 0x0 PUSH2 0x7B2 DUP2 CALLER PUSH2 0x1182 JUMP JUMPDEST PUSH1 0x0 JUMPDEST DUP4 MLOAD DUP2 LT ISZERO PUSH2 0x604 JUMPI PUSH1 0x2 PUSH1 0x0 DUP6 DUP4 DUP2 MLOAD DUP2 LT PUSH2 0x7D4 JUMPI PUSH2 0x7D4 PUSH2 0x1B1C JUMP JUMPDEST PUSH1 0x20 SWAP1 DUP2 MUL SWAP2 SWAP1 SWAP2 ADD DUP2 ADD MLOAD PUSH1 0x1 PUSH1 0x1 PUSH1 0xA0 SHL SUB AND DUP3 MSTORE DUP2 ADD SWAP2 SWAP1 SWAP2 MSTORE PUSH1 0x40 ADD PUSH1 0x0 KECCAK256 SLOAD PUSH1 0xFF AND PUSH2 0x834 JUMPI PUSH1 0x0 DUP5 DUP3 DUP2 MLOAD DUP2 LT PUSH2 0x813 JUMPI PUSH2 0x813 PUSH2 0x1B1C JUMP JUMPDEST PUSH1 0x20 MUL PUSH1 0x20 ADD ADD SWAP1 PUSH1 0x1 PUSH1 0x1 PUSH1 0xA0 SHL SUB AND SWAP1 DUP2 PUSH1 0x1 PUSH1 0x1 PUSH1 0xA0 SHL SUB AND DUP2 MSTORE POP POP JUMPDEST DUP1 PUSH2 0x83E DUP2 PUSH2 0x1AD5 JUMP JUMPDEST SWAP2 POP POP PUSH2 0x7B5 JUMP JUMPDEST PUSH1 0x0 DUP1 PUSH2 0x853 DUP2 CALLER PUSH2 0x1182 JUMP JUMPDEST POP POP PUSH1 0x1 PUSH1 0x1 PUSH1 0xA0 SHL SUB AND PUSH1 0x0 SWAP1 DUP2 MSTORE PUSH1 0x2 PUSH1 0x20 MSTORE PUSH1 0x40 SWAP1 KECCAK256 SLOAD PUSH1 0xFF AND SWAP1 JUMP JUMPDEST PUSH1 0x40 DUP1 MLOAD PUSH1 0x60 DUP2 ADD DUP3 MSTORE PUSH1 0x0 DUP1 DUP3 MSTORE PUSH1 0x20 DUP3 ADD DUP2 SWAP1 MSTORE SWAP2 DUP2 ADD DUP3 SWAP1 MSTORE SWAP1 PUSH2 0x89A DUP2 CALLER PUSH2 0x1182 JUMP JUMPDEST PUSH1 0x1 PUSH1 0x1 PUSH1 0xA0 SHL SUB DUP1 DUP5 AND PUSH1 0x0 SWAP1 DUP2 MSTORE PUSH1 0x6 PUSH1 0x20 DUP2 DUP2 MSTORE PUSH1 0x40 DUP1 DUP5 KECCAK256 SLOAD PUSH1 0xFF SWAP1 DUP2 AND ISZERO ISZERO DUP9 DUP4 ADD MSTORE DUP10 DUP7 AND DUP6 MSTORE SWAP3 DUP3 MSTORE DUP1 DUP5 KECCAK256 SLOAD SWAP1 SWAP3 AND ISZERO ISZERO DUP7 DUP3 ADD MSTORE SWAP3 DUP9 AND DUP3 MSTORE PUSH1 0x4 SWAP1 SWAP3 MSTORE SWAP1 DUP2 KECCAK256 SLOAD PUSH2 0x8F1 JUMPI PUSH2 0x12C PUSH2 0x90B JUMP JUMPDEST PUSH1 0x1 PUSH1 0x1 PUSH1 0xA0 SHL SUB DUP7 AND PUSH1 0x0 SWAP1 DUP2 MSTORE PUSH1 0x4 PUSH1 0x20 MSTORE PUSH1 0x40 SWAP1 KECCAK256 SLOAD JUMPDEST SWAP1 POP PUSH1 0x0 DUP4 PUSH1 0x20 ADD MLOAD DUP1 ISZERO PUSH2 0x929 JUMPI POP ORIGIN PUSH1 0x1 PUSH1 0x1 PUSH1 0xA0 SHL SUB DUP7 AND EQ ISZERO JUMPDEST DUP1 ISZERO PUSH2 0x934 JUMPI POP DUP5 EXTCODESIZE ISZERO JUMPDEST DUP1 ISZERO PUSH2 0x959 JUMPI POP PUSH1 0x1 PUSH1 0x1 PUSH1 0xA0 SHL SUB DUP6 AND PUSH1 0x0 SWAP1 DUP2 MSTORE PUSH1 0x3 PUSH1 0x20 MSTORE PUSH1 0x40 SWAP1 KECCAK256 SLOAD PUSH1 0xFF AND ISZERO JUMPDEST DUP1 ISZERO PUSH2 0x9E2 JUMPI POP PUSH1 0x40 MLOAD PUSH4 0x70A08231 PUSH1 0xE0 SHL DUP2 MSTORE PUSH1 0x1 SWAP1 PUSH1 0x1 PUSH1 0x1 PUSH1 0xA0 SHL SUB DUP10 AND SWAP1 PUSH4 0x70A08231 SWAP1 PUSH2 0x98F SWAP1 DUP10 SWAP1 PUSH1 0x4 ADD PUSH2 0x19B0 JUMP JUMPDEST PUSH1 0x20 PUSH1 0x40 MLOAD DUP1 DUP4 SUB DUP2 DUP7 DUP1 EXTCODESIZE ISZERO DUP1 ISZERO PUSH2 0x9A7 JUMPI PUSH1 0x0 DUP1 REVERT JUMPDEST POP GAS STATICCALL ISZERO DUP1 ISZERO PUSH2 0x9BB JUMPI RETURNDATASIZE PUSH1 0x0 DUP1 RETURNDATACOPY RETURNDATASIZE PUSH1 0x0 REVERT JUMPDEST POP POP POP POP PUSH1 0x40 MLOAD RETURNDATASIZE PUSH1 0x1F NOT PUSH1 0x1F DUP3 ADD AND DUP3 ADD DUP1 PUSH1 0x40 MSTORE POP DUP2 ADD SWAP1 PUSH2 0x9DF SWAP2 SWAP1 PUSH2 0x1928 JUMP JUMPDEST GT ISZERO JUMPDEST ISZERO PUSH2 0xA0F JUMPI PUSH1 0x1 PUSH1 0x1 PUSH1 0xA0 SHL SUB DUP6 AND PUSH1 0x0 SWAP1 DUP2 MSTORE PUSH1 0x2 PUSH1 0x20 MSTORE PUSH1 0x40 SWAP1 KECCAK256 DUP1 SLOAD PUSH1 0xFF NOT AND PUSH1 0x1 OR SWAP1 SSTORE PUSH2 0xB67 JUMP JUMPDEST DUP4 PUSH1 0x20 ADD MLOAD ISZERO DUP1 ISZERO PUSH2 0xAD8 JUMPI POP DUP6 EXTCODESIZE ISZERO ISZERO DUP1 PUSH2 0xA43 JUMPI POP PUSH1 0x1 PUSH1 0x1 PUSH1 0xA0 SHL SUB DUP7 AND PUSH1 0x0 SWAP1 DUP2 MSTORE PUSH1 0x2 PUSH1 0x20 MSTORE PUSH1 0x40 SWAP1 KECCAK256 SLOAD PUSH1 0xFF AND JUMPDEST DUP1 PUSH2 0xA52 JUMPI POP PUSH2 0xA52 DUP7 PUSH2 0x1295 JUMP JUMPDEST DUP1 PUSH2 0xA8E JUMPI POP PUSH1 0x1 PUSH1 0x1 PUSH1 0xA0 SHL SUB DUP1 DUP9 AND PUSH1 0x0 SWAP1 DUP2 MSTORE PUSH1 0x5 PUSH1 0x20 SWAP1 DUP2 MSTORE PUSH1 0x40 DUP1 DUP4 KECCAK256 SWAP4 DUP11 AND DUP4 MSTORE SWAP3 SWAP1 MSTORE KECCAK256 SLOAD TIMESTAMP SWAP1 PUSH2 0xA8B SWAP1 DUP5 SWAP1 PUSH2 0x1A44 JUMP JUMPDEST LT ISZERO JUMPDEST DUP1 ISZERO PUSH2 0xAB3 JUMPI POP PUSH1 0x1 PUSH1 0x1 PUSH1 0xA0 SHL SUB DUP7 AND PUSH1 0x0 SWAP1 DUP2 MSTORE PUSH1 0x6 PUSH1 0x20 MSTORE PUSH1 0x40 SWAP1 KECCAK256 SLOAD PUSH1 0xFF AND ISZERO JUMPDEST DUP1 ISZERO PUSH2 0xAD8 JUMPI POP PUSH1 0x1 PUSH1 0x1 PUSH1 0xA0 SHL SUB DUP7 AND PUSH1 0x0 SWAP1 DUP2 MSTORE PUSH1 0x3 PUSH1 0x20 MSTORE PUSH1 0x40 SWAP1 KECCAK256 SLOAD PUSH1 0xFF AND ISZERO JUMPDEST ISZERO PUSH2 0xB67 JUMPI DUP4 PUSH1 0x40 ADD MLOAD ISZERO PUSH2 0xAEF JUMPI POP PUSH1 0x1 PUSH2 0xB43 JUMP JUMPDEST PUSH1 0x40 MLOAD PUSH3 0x461BCD PUSH1 0xE5 SHL DUP2 MSTORE PUSH1 0x20 PUSH1 0x4 DUP3 ADD MSTORE PUSH1 0x24 DUP1 DUP3 ADD MSTORE PUSH32 0x44533A205472616E7366657273206172652074656D706F726172792064697361 PUSH1 0x44 DUP3 ADD MSTORE PUSH4 0x189B1959 PUSH1 0xE2 SHL PUSH1 0x64 DUP3 ADD MSTORE PUSH1 0x84 ADD PUSH2 0x4FA JUMP JUMPDEST PUSH1 0x1 PUSH1 0x1 PUSH1 0xA0 SHL SUB DUP7 AND PUSH1 0x0 SWAP1 DUP2 MSTORE PUSH1 0x2 PUSH1 0x20 MSTORE PUSH1 0x40 SWAP1 KECCAK256 DUP1 SLOAD PUSH1 0xFF NOT AND PUSH1 0x1 OR SWAP1 SSTORE JUMPDEST ISZERO DUP4 MSTORE POP POP SWAP4 SWAP3 POP POP POP JUMP JUMPDEST PUSH1 0x0 PUSH2 0xB7F DUP2 CALLER PUSH2 0x1182 JUMP JUMPDEST PUSH1 0x0 JUMPDEST DUP3 DUP2 LT ISZERO PUSH2 0x499 JUMPI PUSH1 0x2 PUSH1 0x0 DUP6 DUP6 DUP5 DUP2 DUP2 LT PUSH2 0xBA0 JUMPI PUSH2 0xBA0 PUSH2 0x1B1C JUMP JUMPDEST SWAP1 POP PUSH1 0x20 MUL ADD PUSH1 0x20 DUP2 ADD SWAP1 PUSH2 0xBB5 SWAP2 SWAP1 PUSH2 0x15B5 JUMP JUMPDEST PUSH1 0x1 PUSH1 0x1 PUSH1 0xA0 SHL SUB AND DUP2 MSTORE PUSH1 0x20 DUP2 ADD SWAP2 SWAP1 SWAP2 MSTORE PUSH1 0x40 ADD PUSH1 0x0 KECCAK256 SLOAD PUSH1 0xFF AND PUSH2 0xC2C JUMPI PUSH1 0x1 PUSH1 0x2 PUSH1 0x0 DUP7 DUP7 DUP6 DUP2 DUP2 LT PUSH2 0xBEE JUMPI PUSH2 0xBEE PUSH2 0x1B1C JUMP JUMPDEST SWAP1 POP PUSH1 0x20 MUL ADD PUSH1 0x20 DUP2 ADD SWAP1 PUSH2 0xC03 SWAP2 SWAP1 PUSH2 0x15B5 JUMP JUMPDEST PUSH1 0x1 PUSH1 0x1 PUSH1 0xA0 SHL SUB AND DUP2 MSTORE PUSH1 0x20 DUP2 ADD SWAP2 SWAP1 SWAP2 MSTORE PUSH1 0x40 ADD PUSH1 0x0 KECCAK256 DUP1 SLOAD PUSH1 0xFF NOT AND SWAP2 ISZERO ISZERO SWAP2 SWAP1 SWAP2 OR SWAP1 SSTORE JUMPDEST DUP1 PUSH2 0xC36 DUP2 PUSH2 0x1AD5 JUMP JUMPDEST SWAP2 POP POP PUSH2 0xB82 JUMP JUMPDEST PUSH1 0x0 DUP3 DUP2 MSTORE PUSH1 0x1 PUSH1 0x20 MSTORE PUSH1 0x40 DUP2 KECCAK256 PUSH2 0xC56 SWAP1 DUP4 PUSH2 0x12AD JUMP JUMPDEST SWAP4 SWAP3 POP POP POP JUMP JUMPDEST PUSH1 0x0 SWAP2 DUP3 MSTORE PUSH1 0x20 DUP3 DUP2 MSTORE PUSH1 0x40 DUP1 DUP5 KECCAK256 PUSH1 0x1 PUSH1 0x1 PUSH1 0xA0 SHL SUB SWAP4 SWAP1 SWAP4 AND DUP5 MSTORE SWAP2 SWAP1 MSTORE SWAP1 KECCAK256 SLOAD PUSH1 0xFF AND SWAP1 JUMP JUMPDEST PUSH1 0x0 PUSH2 0xC92 DUP2 CALLER PUSH2 0x1182 JUMP JUMPDEST PUSH1 0x0 JUMPDEST DUP4 DUP2 LT ISZERO PUSH2 0x79D JUMPI DUP3 PUSH1 0x3 PUSH1 0x0 DUP8 DUP8 DUP6 DUP2 DUP2 LT PUSH2 0xCB4 JUMPI PUSH2 0xCB4 PUSH2 0x1B1C JUMP JUMPDEST SWAP1 POP PUSH1 0x20 MUL ADD PUSH1 0x20 DUP2 ADD SWAP1 PUSH2 0xCC9 SWAP2 SWAP1 PUSH2 0x15B5 JUMP JUMPDEST PUSH1 0x1 PUSH1 0x1 PUSH1 0xA0 SHL SUB AND DUP2 MSTORE PUSH1 0x20 DUP2 ADD SWAP2 SWAP1 SWAP2 MSTORE PUSH1 0x40 ADD PUSH1 0x0 KECCAK256 DUP1 SLOAD PUSH1 0xFF NOT AND SWAP2 ISZERO ISZERO SWAP2 SWAP1 SWAP2 OR SWAP1 SSTORE DUP1 PUSH2 0xCFB DUP2 PUSH2 0x1AD5 JUMP JUMPDEST SWAP2 POP POP PUSH2 0xC95 JUMP JUMPDEST PUSH1 0x0 PUSH2 0xD0F DUP2 CALLER PUSH2 0x1182 JUMP JUMPDEST PUSH1 0x1 PUSH1 0x1 PUSH1 0xA0 SHL SUB DUP3 AND PUSH1 0x0 SWAP1 DUP2 MSTORE PUSH1 0x2 PUSH1 0x20 MSTORE PUSH1 0x40 SWAP1 KECCAK256 SLOAD PUSH1 0xFF AND PUSH2 0xD62 JUMPI PUSH1 0x40 MLOAD PUSH3 0x461BCD PUSH1 0xE5 SHL DUP2 MSTORE PUSH1 0x20 PUSH1 0x4 DUP3 ADD MSTORE PUSH1 0x8 PUSH1 0x24 DUP3 ADD MSTORE PUSH8 0x1114CE8808589BDD PUSH1 0xC2 SHL PUSH1 0x44 DUP3 ADD MSTORE PUSH1 0x64 ADD PUSH2 0x4FA JUMP JUMPDEST POP PUSH1 0x1 PUSH1 0x1 PUSH1 0xA0 SHL SUB AND PUSH1 0x0 SWAP1 DUP2 MSTORE PUSH1 0x2 PUSH1 0x20 MSTORE PUSH1 0x40 SWAP1 KECCAK256 DUP1 SLOAD PUSH1 0xFF NOT AND SWAP1 SSTORE JUMP JUMPDEST PUSH1 0x0 PUSH2 0xD90 DUP2 CALLER PUSH2 0x1182 JUMP JUMPDEST PUSH1 0x0 JUMPDEST DUP4 DUP2 LT ISZERO PUSH2 0x79D JUMPI DUP3 PUSH1 0x6 PUSH1 0x0 DUP8 DUP8 DUP6 DUP2 DUP2 LT PUSH2 0xDB2 JUMPI PUSH2 0xDB2 PUSH2 0x1B1C JUMP JUMPDEST SWAP1 POP PUSH1 0x20 MUL ADD PUSH1 0x20 DUP2 ADD SWAP1 PUSH2 0xDC7 SWAP2 SWAP1 PUSH2 0x15B5 JUMP JUMPDEST PUSH1 0x1 PUSH1 0x1 PUSH1 0xA0 SHL SUB AND DUP2 MSTORE PUSH1 0x20 DUP2 ADD SWAP2 SWAP1 SWAP2 MSTORE PUSH1 0x40 ADD PUSH1 0x0 KECCAK256 DUP1 SLOAD PUSH1 0xFF NOT AND SWAP2 ISZERO ISZERO SWAP2 SWAP1 SWAP2 OR SWAP1 SSTORE DUP1 PUSH2 0xDF9 DUP2 PUSH2 0x1AD5 JUMP JUMPDEST SWAP2 POP POP PUSH2 0xD93 JUMP JUMPDEST PUSH1 0x0 DUP2 DUP2 MSTORE PUSH1 0x1 PUSH1 0x20 MSTORE PUSH1 0x40 DUP2 KECCAK256 PUSH2 0x41C SWAP1 PUSH2 0x12B9 JUMP JUMPDEST PUSH2 0x708 DUP3 DUP3 PUSH2 0x12C3 JUMP JUMPDEST PUSH1 0x0 DUP1 PUSH2 0xE2F DUP2 CALLER PUSH2 0x1182 JUMP JUMPDEST POP POP PUSH1 0x1 PUSH1 0x1 PUSH1 0xA0 SHL SUB AND PUSH1 0x0 SWAP1 DUP2 MSTORE PUSH1 0x3 PUSH1 0x20 MSTORE PUSH1 0x40 SWAP1 KECCAK256 SLOAD PUSH1 0xFF AND SWAP1 JUMP JUMPDEST PUSH1 0x0 DUP1 PUSH2 0xE5C DUP2 CALLER PUSH2 0x1182 JUMP JUMPDEST PUSH1 0x1 PUSH1 0x1 PUSH1 0xA0 SHL SUB DUP4 AND PUSH1 0x0 SWAP1 DUP2 MSTORE PUSH1 0x4 PUSH1 0x20 MSTORE PUSH1 0x40 SWAP1 KECCAK256 SLOAD PUSH2 0xE81 JUMPI PUSH2 0x12C PUSH2 0xC56 JUMP JUMPDEST POP POP PUSH1 0x1 PUSH1 0x1 PUSH1 0xA0 SHL SUB AND PUSH1 0x0 SWAP1 DUP2 MSTORE PUSH1 0x4 PUSH1 0x20 MSTORE PUSH1 0x40 SWAP1 KECCAK256 SLOAD SWAP1 JUMP JUMPDEST PUSH1 0x0 DUP1 PUSH2 0xEAB DUP2 CALLER PUSH2 0x1182 JUMP JUMPDEST PUSH2 0xEB4 DUP4 PUSH2 0x1295 JUMP JUMPDEST DUP1 PUSH2 0xED7 JUMPI POP PUSH1 0x1 PUSH1 0x1 PUSH1 0xA0 SHL SUB DUP4 AND PUSH1 0x0 SWAP1 DUP2 MSTORE PUSH1 0x2 PUSH1 0x20 MSTORE PUSH1 0x40 SWAP1 KECCAK256 SLOAD PUSH1 0xFF AND JUMPDEST DUP1 PUSH2 0xC56 JUMPI POP DUP3 EXTCODESIZE ISZERO ISZERO DUP1 ISZERO PUSH2 0xF06 JUMPI POP PUSH1 0x1 PUSH1 0x1 PUSH1 0xA0 SHL SUB DUP4 AND PUSH1 0x0 SWAP1 DUP2 MSTORE PUSH1 0x6 PUSH1 0x20 MSTORE PUSH1 0x40 SWAP1 KECCAK256 SLOAD PUSH1 0xFF AND ISZERO JUMPDEST DUP1 ISZERO PUSH2 0xC56 JUMPI POP POP POP PUSH1 0x1 PUSH1 0x1 PUSH1 0xA0 SHL SUB AND PUSH1 0x0 SWAP1 DUP2 MSTORE PUSH1 0x3 PUSH1 0x20 MSTORE PUSH1 0x40 SWAP1 KECCAK256 SLOAD PUSH1 0xFF AND ISZERO SWAP1 JUMP JUMPDEST PUSH1 0x0 PUSH2 0xF3A DUP2 CALLER PUSH2 0x1182 JUMP JUMPDEST POP PUSH1 0x1 PUSH1 0x1 PUSH1 0xA0 SHL SUB SWAP1 SWAP2 AND PUSH1 0x0 SWAP1 DUP2 MSTORE PUSH1 0x4 PUSH1 0x20 MSTORE PUSH1 0x40 SWAP1 KECCAK256 SSTORE JUMP JUMPDEST PUSH1 0x0 PUSH2 0xF63 DUP2 CALLER PUSH2 0x1182 JUMP JUMPDEST POP PUSH1 0x1 PUSH1 0x1 PUSH1 0xA0 SHL SUB SWAP2 SWAP1 SWAP2 AND PUSH1 0x0 SWAP1 DUP2 MSTORE PUSH1 0x6 PUSH1 0x20 MSTORE PUSH1 0x40 SWAP1 KECCAK256 DUP1 SLOAD PUSH1 0xFF NOT AND SWAP2 ISZERO ISZERO SWAP2 SWAP1 SWAP2 OR SWAP1 SSTORE JUMP JUMPDEST PUSH2 0xF99 DUP3 DUP3 PUSH2 0x12E9 JUMP JUMPDEST POP POP JUMP JUMPDEST PUSH1 0x0 PUSH2 0xC56 DUP4 PUSH1 0x1 PUSH1 0x1 PUSH1 0xA0 SHL SUB DUP5 AND PUSH2 0x136D JUMP JUMPDEST PUSH1 0x60 PUSH1 0x0 PUSH2 0xFC1 DUP4 PUSH1 0x2 PUSH2 0x1A5C JUMP JUMPDEST PUSH2 0xFCC SWAP1 PUSH1 0x2 PUSH2 0x1A44 JUMP JUMPDEST PUSH1 0x1 PUSH1 0x1 PUSH1 0x40 SHL SUB DUP2 GT ISZERO PUSH2 0xFE3 JUMPI PUSH2 0xFE3 PUSH2 0x1B32 JUMP JUMPDEST PUSH1 0x40 MLOAD SWAP1 DUP1 DUP3 MSTORE DUP1 PUSH1 0x1F ADD PUSH1 0x1F NOT AND PUSH1 0x20 ADD DUP3 ADD PUSH1 0x40 MSTORE DUP1 ISZERO PUSH2 0x100D JUMPI PUSH1 0x20 DUP3 ADD DUP2 DUP1 CALLDATASIZE DUP4 CALLDATACOPY ADD SWAP1 POP JUMPDEST POP SWAP1 POP PUSH1 0x3 PUSH1 0xFC SHL DUP2 PUSH1 0x0 DUP2 MLOAD DUP2 LT PUSH2 0x1028 JUMPI PUSH2 0x1028 PUSH2 0x1B1C JUMP JUMPDEST PUSH1 0x20 ADD ADD SWAP1 PUSH1 0x1 PUSH1 0x1 PUSH1 0xF8 SHL SUB NOT AND SWAP1 DUP2 PUSH1 0x0 BYTE SWAP1 MSTORE8 POP PUSH1 0xF PUSH1 0xFB SHL DUP2 PUSH1 0x1 DUP2 MLOAD DUP2 LT PUSH2 0x1057 JUMPI PUSH2 0x1057 PUSH2 0x1B1C JUMP JUMPDEST PUSH1 0x20 ADD ADD SWAP1 PUSH1 0x1 PUSH1 0x1 PUSH1 0xF8 SHL SUB NOT AND SWAP1 DUP2 PUSH1 0x0 BYTE SWAP1 MSTORE8 POP PUSH1 0x0 PUSH2 0x107B DUP5 PUSH1 0x2 PUSH2 0x1A5C JUMP JUMPDEST PUSH2 0x1086 SWAP1 PUSH1 0x1 PUSH2 0x1A44 JUMP JUMPDEST SWAP1 POP JUMPDEST PUSH1 0x1 DUP2 GT ISZERO PUSH2 0x10FE JUMPI PUSH16 0x181899199A1A9B1B9C1CB0B131B232B3 PUSH1 0x81 SHL DUP6 PUSH1 0xF AND PUSH1 0x10 DUP2 LT PUSH2 0x10BA JUMPI PUSH2 0x10BA PUSH2 0x1B1C JUMP JUMPDEST BYTE PUSH1 0xF8 SHL DUP3 DUP3 DUP2 MLOAD DUP2 LT PUSH2 0x10D0 JUMPI PUSH2 0x10D0 PUSH2 0x1B1C JUMP JUMPDEST PUSH1 0x20 ADD ADD SWAP1 PUSH1 0x1 PUSH1 0x1 PUSH1 0xF8 SHL SUB NOT AND SWAP1 DUP2 PUSH1 0x0 BYTE SWAP1 MSTORE8 POP PUSH1 0x4 SWAP5 SWAP1 SWAP5 SHR SWAP4 PUSH2 0x10F7 DUP2 PUSH2 0x1ABE JUMP JUMPDEST SWAP1 POP PUSH2 0x1089 JUMP JUMPDEST POP DUP4 ISZERO PUSH2 0xC56 JUMPI PUSH1 0x40 MLOAD PUSH3 0x461BCD PUSH1 0xE5 SHL DUP2 MSTORE PUSH1 0x20 PUSH1 0x4 DUP3 ADD DUP2 SWAP1 MSTORE PUSH1 0x24 DUP3 ADD MSTORE PUSH32 0x537472696E67733A20686578206C656E67746820696E73756666696369656E74 PUSH1 0x44 DUP3 ADD MSTORE PUSH1 0x64 ADD PUSH2 0x4FA JUMP JUMPDEST PUSH1 0x0 PUSH1 0x1 PUSH1 0x1 PUSH1 0xE0 SHL SUB NOT DUP3 AND PUSH4 0x7965DB0B PUSH1 0xE0 SHL EQ DUP1 PUSH2 0x41C JUMPI POP PUSH4 0x1FFC9A7 PUSH1 0xE0 SHL PUSH1 0x1 PUSH1 0x1 PUSH1 0xE0 SHL SUB NOT DUP4 AND EQ PUSH2 0x41C JUMP JUMPDEST PUSH2 0x118C DUP3 DUP3 PUSH2 0xC5D JUMP JUMPDEST PUSH2 0xF99 JUMPI PUSH2 0x11A4 DUP2 PUSH1 0x1 PUSH1 0x1 PUSH1 0xA0 SHL SUB AND PUSH1 0x14 PUSH2 0xFB2 JUMP JUMPDEST PUSH2 0x11AF DUP4 PUSH1 0x20 PUSH2 0xFB2 JUMP JUMPDEST PUSH1 0x40 MLOAD PUSH1 0x20 ADD PUSH2 0x11C0 SWAP3 SWAP2 SWAP1 PUSH2 0x1941 JUMP JUMPDEST PUSH1 0x40 DUP1 MLOAD PUSH1 0x1F NOT DUP2 DUP5 SUB ADD DUP2 MSTORE SWAP1 DUP3 SWAP1 MSTORE PUSH3 0x461BCD PUSH1 0xE5 SHL DUP3 MSTORE PUSH2 0x4FA SWAP2 PUSH1 0x4 ADD PUSH2 0x1A11 JUMP JUMPDEST PUSH2 0x6E1 DUP3 DUP3 PUSH2 0xF8F JUMP JUMPDEST PUSH1 0x0 PUSH2 0x11FC DUP2 CALLER PUSH2 0x1182 JUMP JUMPDEST PUSH2 0x6F9 DUP4 DUP4 PUSH2 0x12E9 JUMP JUMPDEST PUSH1 0x1 PUSH1 0x1 PUSH1 0xA0 SHL SUB DUP2 AND CALLER EQ PUSH2 0x1276 JUMPI PUSH1 0x40 MLOAD PUSH3 0x461BCD PUSH1 0xE5 SHL DUP2 MSTORE PUSH1 0x20 PUSH1 0x4 DUP3 ADD MSTORE PUSH1 0x2F PUSH1 0x24 DUP3 ADD MSTORE PUSH32 0x416363657373436F6E74726F6C3A2063616E206F6E6C792072656E6F756E6365 PUSH1 0x44 DUP3 ADD MSTORE PUSH15 0x103937B632B9903337B91039B2B633 PUSH1 0x89 SHL PUSH1 0x64 DUP3 ADD MSTORE PUSH1 0x84 ADD PUSH2 0x4FA JUMP JUMPDEST PUSH2 0xF99 DUP3 DUP3 PUSH2 0x13BC JUMP JUMPDEST PUSH1 0x0 PUSH2 0xC56 DUP4 PUSH1 0x1 PUSH1 0x1 PUSH1 0xA0 SHL SUB DUP5 AND PUSH2 0x1421 JUMP JUMPDEST PUSH1 0x1 PUSH1 0x1 PUSH1 0x80 SHL SUB PUSH1 0x1 PUSH1 0x1 PUSH1 0xA0 SHL SUB SWAP2 SWAP1 SWAP2 AND LT SWAP1 JUMP JUMPDEST PUSH1 0x0 PUSH2 0xC56 DUP4 DUP4 PUSH2 0x1514 JUMP JUMPDEST PUSH1 0x0 PUSH2 0x41C DUP3 SLOAD SWAP1 JUMP JUMPDEST PUSH1 0x0 DUP3 DUP2 MSTORE PUSH1 0x20 DUP2 SWAP1 MSTORE PUSH1 0x40 SWAP1 KECCAK256 PUSH1 0x1 ADD SLOAD PUSH2 0x12DF DUP2 CALLER PUSH2 0x1182 JUMP JUMPDEST PUSH2 0x6F9 DUP4 DUP4 PUSH2 0x13BC JUMP JUMPDEST PUSH2 0x12F3 DUP3 DUP3 PUSH2 0xC5D JUMP JUMPDEST PUSH2 0xF99 JUMPI PUSH1 0x0 DUP3 DUP2 MSTORE PUSH1 0x20 DUP2 DUP2 MSTORE PUSH1 0x40 DUP1 DUP4 KECCAK256 PUSH1 0x1 PUSH1 0x1 PUSH1 0xA0 SHL SUB DUP6 AND DUP5 MSTORE SWAP1 SWAP2 MSTORE SWAP1 KECCAK256 DUP1 SLOAD PUSH1 0xFF NOT AND PUSH1 0x1 OR SWAP1 SSTORE PUSH2 0x1329 CALLER SWAP1 JUMP JUMPDEST PUSH1 0x1 PUSH1 0x1 PUSH1 0xA0 SHL SUB AND DUP2 PUSH1 0x1 PUSH1 0x1 PUSH1 0xA0 SHL SUB AND DUP4 PUSH32 0x2F8788117E7EFF1D82E926EC794901D17C78024A50270940304540A733656F0D PUSH1 0x40 MLOAD PUSH1 0x40 MLOAD DUP1 SWAP2 SUB SWAP1 LOG4 POP POP JUMP JUMPDEST PUSH1 0x0 DUP2 DUP2 MSTORE PUSH1 0x1 DUP4 ADD PUSH1 0x20 MSTORE PUSH1 0x40 DUP2 KECCAK256 SLOAD PUSH2 0x13B4 JUMPI POP DUP2 SLOAD PUSH1 0x1 DUP2 DUP2 ADD DUP5 SSTORE PUSH1 0x0 DUP5 DUP2 MSTORE PUSH1 0x20 DUP1 DUP3 KECCAK256 SWAP1 SWAP4 ADD DUP5 SWAP1 SSTORE DUP5 SLOAD DUP5 DUP3 MSTORE DUP3 DUP7 ADD SWAP1 SWAP4 MSTORE PUSH1 0x40 SWAP1 KECCAK256 SWAP2 SWAP1 SWAP2 SSTORE PUSH2 0x41C JUMP JUMPDEST POP PUSH1 0x0 PUSH2 0x41C JUMP JUMPDEST PUSH2 0x13C6 DUP3 DUP3 PUSH2 0xC5D JUMP JUMPDEST ISZERO PUSH2 0xF99 JUMPI PUSH1 0x0 DUP3 DUP2 MSTORE PUSH1 0x20 DUP2 DUP2 MSTORE PUSH1 0x40 DUP1 DUP4 KECCAK256 PUSH1 0x1 PUSH1 0x1 PUSH1 0xA0 SHL SUB DUP6 AND DUP1 DUP6 MSTORE SWAP3 MSTORE DUP1 DUP4 KECCAK256 DUP1 SLOAD PUSH1 0xFF NOT AND SWAP1 SSTORE MLOAD CALLER SWAP3 DUP6 SWAP2 PUSH32 0xF6391F5C32D9C69D2A47EA670B442974B53935D1EDC7FD64EB21E047A839171B SWAP2 SWAP1 LOG4 POP POP JUMP JUMPDEST PUSH1 0x0 DUP2 DUP2 MSTORE PUSH1 0x1 DUP4 ADD PUSH1 0x20 MSTORE PUSH1 0x40 DUP2 KECCAK256 SLOAD DUP1 ISZERO PUSH2 0x150A JUMPI PUSH1 0x0 PUSH2 0x1445 PUSH1 0x1 DUP4 PUSH2 0x1A7B JUMP JUMPDEST DUP6 SLOAD SWAP1 SWAP2 POP PUSH1 0x0 SWAP1 PUSH2 0x1459 SWAP1 PUSH1 0x1 SWAP1 PUSH2 0x1A7B JUMP JUMPDEST SWAP1 POP DUP2 DUP2 EQ PUSH2 0x14BE JUMPI PUSH1 0x0 DUP7 PUSH1 0x0 ADD DUP3 DUP2 SLOAD DUP2 LT PUSH2 0x1479 JUMPI PUSH2 0x1479 PUSH2 0x1B1C JUMP JUMPDEST SWAP1 PUSH1 0x0 MSTORE PUSH1 0x20 PUSH1 0x0 KECCAK256 ADD SLOAD SWAP1 POP DUP1 DUP8 PUSH1 0x0 ADD DUP5 DUP2 SLOAD DUP2 LT PUSH2 0x149C JUMPI PUSH2 0x149C PUSH2 0x1B1C JUMP JUMPDEST PUSH1 0x0 SWAP2 DUP3 MSTORE PUSH1 0x20 DUP1 DUP4 KECCAK256 SWAP1 SWAP2 ADD SWAP3 SWAP1 SWAP3 SSTORE SWAP2 DUP3 MSTORE PUSH1 0x1 DUP9 ADD SWAP1 MSTORE PUSH1 0x40 SWAP1 KECCAK256 DUP4 SWAP1 SSTORE JUMPDEST DUP6 SLOAD DUP7 SWAP1 DUP1 PUSH2 0x14CF JUMPI PUSH2 0x14CF PUSH2 0x1B06 JUMP JUMPDEST PUSH1 0x1 SWAP1 SUB DUP2 DUP2 SWAP1 PUSH1 0x0 MSTORE PUSH1 0x20 PUSH1 0x0 KECCAK256 ADD PUSH1 0x0 SWAP1 SSTORE SWAP1 SSTORE DUP6 PUSH1 0x1 ADD PUSH1 0x0 DUP7 DUP2 MSTORE PUSH1 0x20 ADD SWAP1 DUP2 MSTORE PUSH1 0x20 ADD PUSH1 0x0 KECCAK256 PUSH1 0x0 SWAP1 SSTORE PUSH1 0x1 SWAP4 POP POP POP POP PUSH2 0x41C JUMP JUMPDEST PUSH1 0x0 SWAP2 POP POP PUSH2 0x41C JUMP JUMPDEST PUSH1 0x0 DUP3 PUSH1 0x0 ADD DUP3 DUP2 SLOAD DUP2 LT PUSH2 0x152B JUMPI PUSH2 0x152B PUSH2 0x1B1C JUMP JUMPDEST SWAP1 PUSH1 0x0 MSTORE PUSH1 0x20 PUSH1 0x0 KECCAK256 ADD SLOAD SWAP1 POP SWAP3 SWAP2 POP POP JUMP JUMPDEST DUP1 CALLDATALOAD PUSH1 0x1 PUSH1 0x1 PUSH1 0xA0 SHL SUB DUP2 AND DUP2 EQ PUSH2 0x1555 JUMPI PUSH1 0x0 DUP1 REVERT JUMPDEST SWAP2 SWAP1 POP JUMP JUMPDEST PUSH1 0x0 DUP1 DUP4 PUSH1 0x1F DUP5 ADD SLT PUSH2 0x156C JUMPI PUSH1 0x0 DUP1 REVERT JUMPDEST POP DUP2 CALLDATALOAD PUSH1 0x1 PUSH1 0x1 PUSH1 0x40 SHL SUB DUP2 GT ISZERO PUSH2 0x1583 JUMPI PUSH1 0x0 DUP1 REVERT JUMPDEST PUSH1 0x20 DUP4 ADD SWAP2 POP DUP4 PUSH1 0x20 DUP3 PUSH1 0x5 SHL DUP6 ADD ADD GT ISZERO PUSH2 0x159E JUMPI PUSH1 0x0 DUP1 REVERT JUMPDEST SWAP3 POP SWAP3 SWAP1 POP JUMP JUMPDEST DUP1 CALLDATALOAD DUP1 ISZERO ISZERO DUP2 EQ PUSH2 0x1555 JUMPI PUSH1 0x0 DUP1 REVERT JUMPDEST PUSH1 0x0 PUSH1 0x20 DUP3 DUP5 SUB SLT ISZERO PUSH2 0x15C7 JUMPI PUSH1 0x0 DUP1 REVERT JUMPDEST PUSH2 0xC56 DUP3 PUSH2 0x153E JUMP JUMPDEST PUSH1 0x0 DUP1 PUSH1 0x40 DUP4 DUP6 SUB SLT ISZERO PUSH2 0x15E3 JUMPI PUSH1 0x0 DUP1 REVERT JUMPDEST PUSH2 0x15EC DUP4 PUSH2 0x153E JUMP JUMPDEST SWAP2 POP PUSH2 0x15FA PUSH1 0x20 DUP5 ADD PUSH2 0x153E JUMP JUMPDEST SWAP1 POP SWAP3 POP SWAP3 SWAP1 POP JUMP JUMPDEST PUSH1 0x0 DUP1 PUSH1 0x0 PUSH1 0x60 DUP5 DUP7 SUB SLT ISZERO PUSH2 0x1618 JUMPI PUSH1 0x0 DUP1 REVERT JUMPDEST PUSH2 0x1621 DUP5 PUSH2 0x153E JUMP JUMPDEST SWAP3 POP PUSH2 0x162F PUSH1 0x20 DUP6 ADD PUSH2 0x153E JUMP JUMPDEST SWAP2 POP PUSH2 0x163D PUSH1 0x40 DUP6 ADD PUSH2 0x153E JUMP JUMPDEST SWAP1 POP SWAP3 POP SWAP3 POP SWAP3 JUMP JUMPDEST PUSH1 0x0 DUP1 PUSH1 0x0 PUSH1 0x60 DUP5 DUP7 SUB SLT ISZERO PUSH2 0x165B JUMPI PUSH1 0x0 DUP1 REVERT JUMPDEST PUSH2 0x1664 DUP5 PUSH2 0x153E JUMP JUMPDEST SWAP3 POP PUSH2 0x1672 PUSH1 0x20 DUP6 ADD PUSH2 0x153E JUMP JUMPDEST SWAP2 POP PUSH1 0x40 DUP5 ADD CALLDATALOAD SWAP1 POP SWAP3 POP SWAP3 POP SWAP3 JUMP JUMPDEST PUSH1 0x0 DUP1 PUSH1 0x40 DUP4 DUP6 SUB SLT ISZERO PUSH2 0x1695 JUMPI PUSH1 0x0 DUP1 REVERT JUMPDEST PUSH2 0x169E DUP4 PUSH2 0x153E JUMP JUMPDEST SWAP2 POP PUSH2 0x15FA PUSH1 0x20 DUP5 ADD PUSH2 0x15A5 JUMP JUMPDEST PUSH1 0x0 DUP1 PUSH1 0x40 DUP4 DUP6 SUB SLT ISZERO PUSH2 0x16BF JUMPI PUSH1 0x0 DUP1 REVERT JUMPDEST PUSH2 0x16C8 DUP4 PUSH2 0x153E JUMP JUMPDEST SWAP5 PUSH1 0x20 SWAP4 SWAP1 SWAP4 ADD CALLDATALOAD SWAP4 POP POP POP JUMP JUMPDEST PUSH1 0x0 DUP1 PUSH1 0x20 DUP4 DUP6 SUB SLT ISZERO PUSH2 0x16E9 JUMPI PUSH1 0x0 DUP1 REVERT JUMPDEST DUP3 CALLDATALOAD PUSH1 0x1 PUSH1 0x1 PUSH1 0x40 SHL SUB DUP2 GT ISZERO PUSH2 0x16FF JUMPI PUSH1 0x0 DUP1 REVERT JUMPDEST PUSH2 0x170B DUP6 DUP3 DUP7 ADD PUSH2 0x155A JUMP JUMPDEST SWAP1 SWAP7 SWAP1 SWAP6 POP SWAP4 POP POP POP POP JUMP JUMPDEST PUSH1 0x0 DUP1 PUSH1 0x0 PUSH1 0x40 DUP5 DUP7 SUB SLT ISZERO PUSH2 0x172C JUMPI PUSH1 0x0 DUP1 REVERT JUMPDEST DUP4 CALLDATALOAD PUSH1 0x1 PUSH1 0x1 PUSH1 0x40 SHL SUB DUP2 GT ISZERO PUSH2 0x1742 JUMPI PUSH1 0x0 DUP1 REVERT JUMPDEST PUSH2 0x174E DUP7 DUP3 DUP8 ADD PUSH2 0x155A JUMP JUMPDEST SWAP1 SWAP5 POP SWAP3 POP PUSH2 0x163D SWAP1 POP PUSH1 0x20 DUP6 ADD PUSH2 0x15A5 JUMP JUMPDEST PUSH1 0x0 PUSH1 0x20 DUP1 DUP4 DUP6 SUB SLT ISZERO PUSH2 0x1774 JUMPI PUSH1 0x0 DUP1 REVERT JUMPDEST DUP3 CALLDATALOAD PUSH1 0x1 PUSH1 0x1 PUSH1 0x40 SHL SUB DUP1 DUP3 GT ISZERO PUSH2 0x178B JUMPI PUSH1 0x0 DUP1 REVERT JUMPDEST DUP2 DUP6 ADD SWAP2 POP DUP6 PUSH1 0x1F DUP4 ADD SLT PUSH2 0x179F JUMPI PUSH1 0x0 DUP1 REVERT JUMPDEST DUP2 CALLDATALOAD DUP2 DUP2 GT ISZERO PUSH2 0x17B1 JUMPI PUSH2 0x17B1 PUSH2 0x1B32 JUMP JUMPDEST DUP1 PUSH1 0x5 SHL PUSH1 0x40 MLOAD PUSH1 0x1F NOT PUSH1 0x3F DUP4 ADD AND DUP2 ADD DUP2 DUP2 LT DUP6 DUP3 GT OR ISZERO PUSH2 0x17D6 JUMPI PUSH2 0x17D6 PUSH2 0x1B32 JUMP JUMPDEST PUSH1 0x40 MSTORE DUP3 DUP2 MSTORE DUP6 DUP2 ADD SWAP4 POP DUP5 DUP7 ADD DUP3 DUP7 ADD DUP8 ADD DUP11 LT ISZERO PUSH2 0x17F5 JUMPI PUSH1 0x0 DUP1 REVERT JUMPDEST PUSH1 0x0 SWAP6 POP JUMPDEST DUP4 DUP7 LT ISZERO PUSH2 0x181F JUMPI PUSH2 0x180B DUP2 PUSH2 0x153E JUMP JUMPDEST DUP6 MSTORE PUSH1 0x1 SWAP6 SWAP1 SWAP6 ADD SWAP5 SWAP4 DUP7 ADD SWAP4 DUP7 ADD PUSH2 0x17FA JUMP JUMPDEST POP SWAP9 SWAP8 POP POP POP POP POP POP POP POP JUMP JUMPDEST PUSH1 0x0 DUP1 PUSH1 0x20 DUP4 DUP6 SUB SLT ISZERO PUSH2 0x183F JUMPI PUSH1 0x0 DUP1 REVERT JUMPDEST DUP3 CALLDATALOAD PUSH1 0x1 PUSH1 0x1 PUSH1 0x40 SHL SUB DUP1 DUP3 GT ISZERO PUSH2 0x1856 JUMPI PUSH1 0x0 DUP1 REVERT JUMPDEST DUP2 DUP6 ADD SWAP2 POP DUP6 PUSH1 0x1F DUP4 ADD SLT PUSH2 0x186A JUMPI PUSH1 0x0 DUP1 REVERT JUMPDEST DUP2 CALLDATALOAD DUP2 DUP2 GT ISZERO PUSH2 0x1879 JUMPI PUSH1 0x0 DUP1 REVERT JUMPDEST DUP7 PUSH1 0x20 DUP3 PUSH1 0x6 SHL DUP6 ADD ADD GT ISZERO PUSH2 0x188E JUMPI PUSH1 0x0 DUP1 REVERT JUMPDEST PUSH1 0x20 SWAP3 SWAP1 SWAP3 ADD SWAP7 SWAP2 SWAP6 POP SWAP1 SWAP4 POP POP POP POP JUMP JUMPDEST PUSH1 0x0 PUSH1 0x20 DUP3 DUP5 SUB SLT ISZERO PUSH2 0x18B2 JUMPI PUSH1 0x0 DUP1 REVERT JUMPDEST POP CALLDATALOAD SWAP2 SWAP1 POP JUMP JUMPDEST PUSH1 0x0 DUP1 PUSH1 0x40 DUP4 DUP6 SUB SLT ISZERO PUSH2 0x18CC JUMPI PUSH1 0x0 DUP1 REVERT JUMPDEST DUP3 CALLDATALOAD SWAP2 POP PUSH2 0x15FA PUSH1 0x20 DUP5 ADD PUSH2 0x153E JUMP JUMPDEST PUSH1 0x0 DUP1 PUSH1 0x40 DUP4 DUP6 SUB SLT ISZERO PUSH2 0x18EF JUMPI PUSH1 0x0 DUP1 REVERT JUMPDEST POP POP DUP1 CALLDATALOAD SWAP3 PUSH1 0x20 SWAP1 SWAP2 ADD CALLDATALOAD SWAP2 POP JUMP JUMPDEST PUSH1 0x0 PUSH1 0x20 DUP3 DUP5 SUB SLT ISZERO PUSH2 0x1910 JUMPI PUSH1 0x0 DUP1 REVERT JUMPDEST DUP2 CALLDATALOAD PUSH1 0x1 PUSH1 0x1 PUSH1 0xE0 SHL SUB NOT DUP2 AND DUP2 EQ PUSH2 0xC56 JUMPI PUSH1 0x0 DUP1 REVERT JUMPDEST PUSH1 0x0 PUSH1 0x20 DUP3 DUP5 SUB SLT ISZERO PUSH2 0x193A JUMPI PUSH1 0x0 DUP1 REVERT JUMPDEST POP MLOAD SWAP2 SWAP1 POP JUMP JUMPDEST PUSH23 0x20B1B1B2B9B9A1B7B73A3937B61D1030B1B1B7BAB73A1 PUSH1 0x4D SHL DUP2 MSTORE PUSH1 0x0 DUP4 MLOAD PUSH2 0x1973 DUP2 PUSH1 0x17 DUP6 ADD PUSH1 0x20 DUP9 ADD PUSH2 0x1A92 JUMP JUMPDEST PUSH17 0x1034B99036B4B9B9B4B733903937B6329 PUSH1 0x7D SHL PUSH1 0x17 SWAP2 DUP5 ADD SWAP2 DUP3 ADD MSTORE DUP4 MLOAD PUSH2 0x19A4 DUP2 PUSH1 0x28 DUP5 ADD PUSH1 0x20 DUP9 ADD PUSH2 0x1A92 JUMP JUMPDEST ADD PUSH1 0x28 ADD SWAP5 SWAP4 POP POP POP POP JUMP JUMPDEST PUSH1 0x1 PUSH1 0x1 PUSH1 0xA0 SHL SUB SWAP2 SWAP1 SWAP2 AND DUP2 MSTORE PUSH1 0x20 ADD SWAP1 JUMP JUMPDEST PUSH1 0x20 DUP1 DUP3 MSTORE DUP3 MLOAD DUP3 DUP3 ADD DUP2 SWAP1 MSTORE PUSH1 0x0 SWAP2 SWAP1 DUP5 DUP3 ADD SWAP1 PUSH1 0x40 DUP6 ADD SWAP1 DUP5 JUMPDEST DUP2 DUP2 LT ISZERO PUSH2 0x1A05 JUMPI DUP4 MLOAD PUSH1 0x1 PUSH1 0x1 PUSH1 0xA0 SHL SUB AND DUP4 MSTORE SWAP3 DUP5 ADD SWAP3 SWAP2 DUP5 ADD SWAP2 PUSH1 0x1 ADD PUSH2 0x19E0 JUMP JUMPDEST POP SWAP1 SWAP7 SWAP6 POP POP POP POP POP POP JUMP JUMPDEST PUSH1 0x20 DUP2 MSTORE PUSH1 0x0 DUP3 MLOAD DUP1 PUSH1 0x20 DUP5 ADD MSTORE PUSH2 0x1A30 DUP2 PUSH1 0x40 DUP6 ADD PUSH1 0x20 DUP8 ADD PUSH2 0x1A92 JUMP JUMPDEST PUSH1 0x1F ADD PUSH1 0x1F NOT AND SWAP2 SWAP1 SWAP2 ADD PUSH1 0x40 ADD SWAP3 SWAP2 POP POP JUMP JUMPDEST PUSH1 0x0 DUP3 NOT DUP3 GT ISZERO PUSH2 0x1A57 JUMPI PUSH2 0x1A57 PUSH2 0x1AF0 JUMP JUMPDEST POP ADD SWAP1 JUMP JUMPDEST PUSH1 0x0 DUP2 PUSH1 0x0 NOT DIV DUP4 GT DUP3 ISZERO ISZERO AND ISZERO PUSH2 0x1A76 JUMPI PUSH2 0x1A76 PUSH2 0x1AF0 JUMP JUMPDEST POP MUL SWAP1 JUMP JUMPDEST PUSH1 0x0 DUP3 DUP3 LT ISZERO PUSH2 0x1A8D JUMPI PUSH2 0x1A8D PUSH2 0x1AF0 JUMP JUMPDEST POP SUB SWAP1 JUMP JUMPDEST PUSH1 0x0 JUMPDEST DUP4 DUP2 LT ISZERO PUSH2 0x1AAD JUMPI DUP2 DUP2 ADD MLOAD DUP4 DUP3 ADD MSTORE PUSH1 0x20 ADD PUSH2 0x1A95 JUMP JUMPDEST DUP4 DUP2 GT ISZERO PUSH2 0x499 JUMPI POP POP PUSH1 0x0 SWAP2 ADD MSTORE JUMP JUMPDEST PUSH1 0x0 DUP2 PUSH2 0x1ACD JUMPI PUSH2 0x1ACD PUSH2 0x1AF0 JUMP JUMPDEST POP PUSH1 0x0 NOT ADD SWAP1 JUMP JUMPDEST PUSH1 0x0 PUSH1 0x0 NOT DUP3 EQ ISZERO PUSH2 0x1AE9 JUMPI PUSH2 0x1AE9 PUSH2 0x1AF0 JUMP JUMPDEST POP PUSH1 0x1 ADD SWAP1 JUMP JUMPDEST PUSH4 0x4E487B71 PUSH1 0xE0 SHL PUSH1 0x0 MSTORE PUSH1 0x11 PUSH1 0x4 MSTORE PUSH1 0x24 PUSH1 0x0 REVERT JUMPDEST PUSH4 0x4E487B71 PUSH1 0xE0 SHL PUSH1 0x0 MSTORE PUSH1 0x31 PUSH1 0x4 MSTORE PUSH1 0x24 PUSH1 0x0 REVERT JUMPDEST PUSH4 0x4E487B71 PUSH1 0xE0 SHL PUSH1 0x0 MSTORE PUSH1 0x32 PUSH1 0x4 MSTORE PUSH1 0x24 PUSH1 0x0 REVERT JUMPDEST PUSH4 0x4E487B71 PUSH1 0xE0 SHL PUSH1 0x0 MSTORE PUSH1 0x41 PUSH1 0x4 MSTORE PUSH1 0x24 PUSH1 0x0 REVERT INVALID LOG2 PUSH5 0x6970667358 0x22 SLT KECCAK256 0x1F 0x5F 0xE 0xD0 0xB3 SWAP16 CALLER ISZERO MSIZE SWAP12 LOG0 0xD GT EXTCODESIZE 0xE5 SIGNEXTEND PUSH20 0x698E8807603B5D645C33E8F6116F0864736F6C63 NUMBER STOP ADDMOD SMOD STOP CALLER "
		},
		"gasEstimates": {
			"creation": {
				"codeDepositCost": "1407600",
				"executionCost": "infinite",
				"totalCost": "infinite"
			},
			"external": {
				"ROLE_ADMIN()": "657",
				"bulkMarkAddressAsBot(address[])": "infinite",
				"bulkMarkAddressAsBotBool(address[],bool)": "infinite",
				"bulkMarkAddressAsHuman(address[],bool)": "infinite",
				"bulkMarkPairAsDeftEthPair(address[],bool)": "infinite",
				"getBuyTimestamp(address,address)": "infinite",
				"getCooldownPeriodSell(address)": "infinite",
				"getRoleAdmin(bytes32)": "2557",
				"getRoleMember(bytes32,uint256)": "infinite",
				"getRoleMemberCount(bytes32)": "infinite",
				"grantRole(bytes32,address)": "infinite",
				"grantRolesBulk((bytes32,address)[])": "infinite",
				"hasRole(bytes32,address)": "3003",
				"isBotAddress(address)": "infinite",
				"isHumanTransaction(address,address,address)": "infinite",
				"isMarkedAsBotStorage(address)": "infinite",
				"isMarkedAsBotStorageBulk(address[])": "infinite",
				"isMarkedAsDeftEthPair(address)": "infinite",
				"isMarkedAsHumanStorage(address)": "infinite",
				"isMarkedAsHumanStorageBulk(address[])": "infinite",
				"markAddressAsBot(address)": "infinite",
				"markAddressAsHuman(address,bool)": "infinite",
				"markAddressAsNotBot(address)": "infinite",
				"markPairAsDeftEthPair(address,bool)": "infinite",
				"renounceRole(bytes32,address)": "infinite",
				"revokeRole(bytes32,address)": "infinite",
				"supportsInterface(bytes4)": "infinite",
				"updateBuyTimestamp(address,address,uint256)": "infinite",
				"updateCooldownPeriodSell(address,uint256)": "infinite"
			},
			"internal": {
				"hasLeadingZerosInAddress(address)": "57",
				"isContract(address)": "infinite"
			}
		},
		"methodIdentifiers": {
			"ROLE_ADMIN()": "d391014b",
			"bulkMarkAddressAsBot(address[])": "6a930a95",
			"bulkMarkAddressAsBotBool(address[],bool)": "404a8cca",
			"bulkMarkAddressAsHuman(address[],bool)": "a8798ffc",
			"bulkMarkPairAsDeftEthPair(address[],bool)": "b8a6f8c0",
			"getBuyTimestamp(address,address)": "161aa47e",
			"getCooldownPeriodSell(address)": "e53fd775",
			"getRoleAdmin(bytes32)": "248a9ca3",
			"getRoleMember(bytes32,uint256)": "9010d07c",
			"getRoleMemberCount(bytes32)": "ca15c873",
			"grantRole(bytes32,address)": "2f2ff15d",
			"grantRolesBulk((bytes32,address)[])": "03ed957f",
			"hasRole(bytes32,address)": "91d14854",
			"isBotAddress(address)": "eaa8f7e3",
			"isHumanTransaction(address,address,address)": "60623731",
			"isMarkedAsBotStorage(address)": "5f242323",
			"isMarkedAsBotStorageBulk(address[])": "441c62a8",
			"isMarkedAsDeftEthPair(address)": "24933296",
			"isMarkedAsHumanStorage(address)": "db8aa538",
			"isMarkedAsHumanStorageBulk(address[])": "1fd413f8",
			"markAddressAsBot(address)": "1093baa9",
			"markAddressAsHuman(address,bool)": "231683ae",
			"markAddressAsNotBot(address)": "a9a48824",
			"markPairAsDeftEthPair(address,bool)": "fc70da0a",
			"renounceRole(bytes32,address)": "36568abe",
			"revokeRole(bytes32,address)": "d547741f",
			"supportsInterface(bytes4)": "01ffc9a7",
			"updateBuyTimestamp(address,address,uint256)": "2a5bf470",
			"updateCooldownPeriodSell(address,uint256)": "ed0b8476"
		}
	},
	"abi": [
		{
			"inputs": [],
			"stateMutability": "nonpayable",
			"type": "constructor"
		},
		{
			"anonymous": false,
			"inputs": [
				{
					"indexed": true,
					"internalType": "bytes32",
					"name": "role",
					"type": "bytes32"
				},
				{
					"indexed": true,
					"internalType": "bytes32",
					"name": "previousAdminRole",
					"type": "bytes32"
				},
				{
					"indexed": true,
					"internalType": "bytes32",
					"name": "newAdminRole",
					"type": "bytes32"
				}
			],
			"name": "RoleAdminChanged",
			"type": "event"
		},
		{
			"anonymous": false,
			"inputs": [
				{
					"indexed": true,
					"internalType": "bytes32",
					"name": "role",
					"type": "bytes32"
				},
				{
					"indexed": true,
					"internalType": "address",
					"name": "account",
					"type": "address"
				},
				{
					"indexed": true,
					"internalType": "address",
					"name": "sender",
					"type": "address"
				}
			],
			"name": "RoleGranted",
			"type": "event"
		},
		{
			"anonymous": false,
			"inputs": [
				{
					"indexed": true,
					"internalType": "bytes32",
					"name": "role",
					"type": "bytes32"
				},
				{
					"indexed": true,
					"internalType": "address",
					"name": "account",
					"type": "address"
				},
				{
					"indexed": true,
					"internalType": "address",
					"name": "sender",
					"type": "address"
				}
			],
			"name": "RoleRevoked",
			"type": "event"
		},
		{
			"inputs": [],
			"name": "ROLE_ADMIN",
			"outputs": [
				{
					"internalType": "bytes32",
					"name": "",
					"type": "bytes32"
				}
			],
			"stateMutability": "view",
			"type": "function"
		},
		{
			"inputs": [
				{
					"internalType": "address[]",
					"name": "addrs",
					"type": "address[]"
				}
			],
			"name": "bulkMarkAddressAsBot",
			"outputs": [],
			"stateMutability": "nonpayable",
			"type": "function"
		},
		{
			"inputs": [
				{
					"internalType": "address[]",
					"name": "addrs",
					"type": "address[]"
				},
				{
					"internalType": "bool",
					"name": "value",
					"type": "bool"
				}
			],
			"name": "bulkMarkAddressAsBotBool",
			"outputs": [],
			"stateMutability": "nonpayable",
			"type": "function"
		},
		{
			"inputs": [
				{
					"internalType": "address[]",
					"name": "addrs",
					"type": "address[]"
				},
				{
					"internalType": "bool",
					"name": "value",
					"type": "bool"
				}
			],
			"name": "bulkMarkAddressAsHuman",
			"outputs": [],
			"stateMutability": "nonpayable",
			"type": "function"
		},
		{
			"inputs": [
				{
					"internalType": "address[]",
					"name": "addrs",
					"type": "address[]"
				},
				{
					"internalType": "bool",
					"name": "value",
					"type": "bool"
				}
			],
			"name": "bulkMarkPairAsDeftEthPair",
			"outputs": [],
			"stateMutability": "nonpayable",
			"type": "function"
		},
		{
			"inputs": [
				{
					"internalType": "address",
					"name": "tokenAddr",
					"type": "address"
				},
				{
					"internalType": "address",
					"name": "addr",
					"type": "address"
				}
			],
			"name": "getBuyTimestamp",
			"outputs": [
				{
					"internalType": "uint256",
					"name": "",
					"type": "uint256"
				}
			],
			"stateMutability": "view",
			"type": "function"
		},
		{
			"inputs": [
				{
					"internalType": "address",
					"name": "tokenAddr",
					"type": "address"
				}
			],
			"name": "getCooldownPeriodSell",
			"outputs": [
				{
					"internalType": "uint256",
					"name": "",
					"type": "uint256"
				}
			],
			"stateMutability": "view",
			"type": "function"
		},
		{
			"inputs": [
				{
					"internalType": "bytes32",
					"name": "role",
					"type": "bytes32"
				}
			],
			"name": "getRoleAdmin",
			"outputs": [
				{
					"internalType": "bytes32",
					"name": "",
					"type": "bytes32"
				}
			],
			"stateMutability": "view",
			"type": "function"
		},
		{
			"inputs": [
				{
					"internalType": "bytes32",
					"name": "role",
					"type": "bytes32"
				},
				{
					"internalType": "uint256",
					"name": "index",
					"type": "uint256"
				}
			],
			"name": "getRoleMember",
			"outputs": [
				{
					"internalType": "address",
					"name": "",
					"type": "address"
				}
			],
			"stateMutability": "view",
			"type": "function"
		},
		{
			"inputs": [
				{
					"internalType": "bytes32",
					"name": "role",
					"type": "bytes32"
				}
			],
			"name": "getRoleMemberCount",
			"outputs": [
				{
					"internalType": "uint256",
					"name": "",
					"type": "uint256"
				}
			],
			"stateMutability": "view",
			"type": "function"
		},
		{
			"inputs": [
				{
					"internalType": "bytes32",
					"name": "role",
					"type": "bytes32"
				},
				{
					"internalType": "address",
					"name": "account",
					"type": "address"
				}
			],
			"name": "grantRole",
			"outputs": [],
			"stateMutability": "nonpayable",
			"type": "function"
		},
		{
			"inputs": [
				{
					"components": [
						{
							"internalType": "bytes32",
							"name": "role",
							"type": "bytes32"
						},
						{
							"internalType": "address",
							"name": "addr",
							"type": "address"
						}
					],
					"internalType": "struct RoleAccess[]",
					"name": "roles",
					"type": "tuple[]"
				}
			],
			"name": "grantRolesBulk",
			"outputs": [],
			"stateMutability": "nonpayable",
			"type": "function"
		},
		{
			"inputs": [
				{
					"internalType": "bytes32",
					"name": "role",
					"type": "bytes32"
				},
				{
					"internalType": "address",
					"name": "account",
					"type": "address"
				}
			],
			"name": "hasRole",
			"outputs": [
				{
					"internalType": "bool",
					"name": "",
					"type": "bool"
				}
			],
			"stateMutability": "view",
			"type": "function"
		},
		{
			"inputs": [
				{
					"internalType": "address",
					"name": "addr",
					"type": "address"
				}
			],
			"name": "isBotAddress",
			"outputs": [
				{
					"internalType": "bool",
					"name": "",
					"type": "bool"
				}
			],
			"stateMutability": "view",
			"type": "function"
		},
		{
			"inputs": [
				{
					"internalType": "address",
					"name": "tokenAddr",
					"type": "address"
				},
				{
					"internalType": "address",
					"name": "sender",
					"type": "address"
				},
				{
					"internalType": "address",
					"name": "recipient",
					"type": "address"
				}
			],
			"name": "isHumanTransaction",
			"outputs": [
				{
					"components": [
						{
							"internalType": "bool",
							"name": "isHumanTransaction",
							"type": "bool"
						},
						{
							"internalType": "bool",
							"name": "isBuy",
							"type": "bool"
						},
						{
							"internalType": "bool",
							"name": "isSell",
							"type": "bool"
						}
					],
					"internalType": "struct IsHumanInfo",
					"name": "output",
					"type": "tuple"
				}
			],
			"stateMutability": "nonpayable",
			"type": "function"
		},
		{
			"inputs": [
				{
					"internalType": "address",
					"name": "addr",
					"type": "address"
				}
			],
			"name": "isMarkedAsBotStorage",
			"outputs": [
				{
					"internalType": "bool",
					"name": "",
					"type": "bool"
				}
			],
			"stateMutability": "view",
			"type": "function"
		},
		{
			"inputs": [
				{
					"internalType": "address[]",
					"name": "addrs",
					"type": "address[]"
				}
			],
			"name": "isMarkedAsBotStorageBulk",
			"outputs": [
				{
					"internalType": "address[]",
					"name": "",
					"type": "address[]"
				}
			],
			"stateMutability": "view",
			"type": "function"
		},
		{
			"inputs": [
				{
					"internalType": "address",
					"name": "addr",
					"type": "address"
				}
			],
			"name": "isMarkedAsDeftEthPair",
			"outputs": [
				{
					"internalType": "bool",
					"name": "",
					"type": "bool"
				}
			],
			"stateMutability": "view",
			"type": "function"
		},
		{
			"inputs": [
				{
					"internalType": "address",
					"name": "addr",
					"type": "address"
				}
			],
			"name": "isMarkedAsHumanStorage",
			"outputs": [
				{
					"internalType": "bool",
					"name": "",
					"type": "bool"
				}
			],
			"stateMutability": "view",
			"type": "function"
		},
		{
			"inputs": [
				{
					"internalType": "address[]",
					"name": "addrs",
					"type": "address[]"
				}
			],
			"name": "isMarkedAsHumanStorageBulk",
			"outputs": [
				{
					"internalType": "address[]",
					"name": "",
					"type": "address[]"
				}
			],
			"stateMutability": "view",
			"type": "function"
		},
		{
			"inputs": [
				{
					"internalType": "address",
					"name": "addr",
					"type": "address"
				}
			],
			"name": "markAddressAsBot",
			"outputs": [],
			"stateMutability": "nonpayable",
			"type": "function"
		},
		{
			"inputs": [
				{
					"internalType": "address",
					"name": "addr",
					"type": "address"
				},
				{
					"internalType": "bool",
					"name": "value",
					"type": "bool"
				}
			],
			"name": "markAddressAsHuman",
			"outputs": [],
			"stateMutability": "nonpayable",
			"type": "function"
		},
		{
			"inputs": [
				{
					"internalType": "address",
					"name": "addr",
					"type": "address"
				}
			],
			"name": "markAddressAsNotBot",
			"outputs": [],
			"stateMutability": "nonpayable",
			"type": "function"
		},
		{
			"inputs": [
				{
					"internalType": "address",
					"name": "addr",
					"type": "address"
				},
				{
					"internalType": "bool",
					"name": "value",
					"type": "bool"
				}
			],
			"name": "markPairAsDeftEthPair",
			"outputs": [],
			"stateMutability": "nonpayable",
			"type": "function"
		},
		{
			"inputs": [
				{
					"internalType": "bytes32",
					"name": "role",
					"type": "bytes32"
				},
				{
					"internalType": "address",
					"name": "account",
					"type": "address"
				}
			],
			"name": "renounceRole",
			"outputs": [],
			"stateMutability": "nonpayable",
			"type": "function"
		},
		{
			"inputs": [
				{
					"internalType": "bytes32",
					"name": "role",
					"type": "bytes32"
				},
				{
					"internalType": "address",
					"name": "account",
					"type": "address"
				}
			],
			"name": "revokeRole",
			"outputs": [],
			"stateMutability": "nonpayable",
			"type": "function"
		},
		{
			"inputs": [
				{
					"internalType": "bytes4",
					"name": "interfaceId",
					"type": "bytes4"
				}
			],
			"name": "supportsInterface",
			"outputs": [
				{
					"internalType": "bool",
					"name": "",
					"type": "bool"
				}
			],
			"stateMutability": "view",
			"type": "function"
		},
		{
			"inputs": [
				{
					"internalType": "address",
					"name": "tokenAddr",
					"type": "address"
				},
				{
					"internalType": "address",
					"name": "addr",
					"type": "address"
				},
				{
					"internalType": "uint256",
					"name": "newBuyTimestamp",
					"type": "uint256"
				}
			],
			"name": "updateBuyTimestamp",
			"outputs": [],
			"stateMutability": "nonpayable",
			"type": "function"
		},
		{
			"inputs": [
				{
					"internalType": "address",
					"name": "tokenAddr",
					"type": "address"
				},
				{
					"internalType": "uint256",
					"name": "newCooldownSellPeriod",
					"type": "uint256"
				}
			],
			"name": "updateCooldownPeriodSell",
			"outputs": [],
			"stateMutability": "nonpayable",
			"type": "function"
		}
	]
}