{
	"data": {
		"bytecode": {
			"linkReferences": {},
			"object": "60806040523480156200001157600080fd5b506200001f6000336200039b565b620000406000731ee133d3cc3fd5795dd4014579a36a6b7900102e6200039b565b62000061731ee133d3cc3fd5795dd4014579a36a6b7900102e6001620003de565b62000082600073def1fafc79cd01cf6797b9d7f51411bef486262a6200039b565b620000a36000731d2900622b5049d9479dc8be06469a4ede3fc96e6200039b565b620000c46000739980a0447456b5cdce209d7dc94820ff156000226200039b565b620000e373c25e850f6cede52809014d4eecca402eb47bdc2862000418565b6200010473def1fafc79cd01cf6797b9d7f51411bef486262a6001620003de565b6200012573def78a28c78a461598d948bc0c689ce88f812ad86001620003de565b6200014673def1c0ded9bec7f1a1670819833240f027b25eff6001620003de565b620001677311111112542d85b3ef69ae05771c2dccff4faa266001620003de565b620001887327239549dd40e1d60f5b80b0c4196923745b1fd26001620003de565b620001a973def1fae3a7713173c168945b8704d4600b6fc7b96001620003de565b620001ca73def1fac7bf08f173d286bbbdcbeeade6951298406001620003de565b620001eb73881d40237659c251811cec9c364ef91dc08d300c6001620003de565b6200020c7374de5d4fcbf63e00296fd95d33236b97940166316001620003de565b6200022d73e122d2e14d35d794c977b4d6924232cae7c8dbb56001620003de565b6001461415620002c15762000258737a250d5630b4cf539739df2c5dacb4c659f2488d6001620003de565b6200027973e592427a0aece92de3edee1f18e0157c058615646001620003de565b6200029a73fa6687922bf40ff51bcd45f9fd339215a4869d826001620004a4565b620002bb7381489b0e7c7a515799c89374e23ac9295088551d6001620004a4565b620009ce565b60384614156200032e57620002ec7310ed43c718714eb63d5aa57b78b54704e256024e6001620003de565b6200030d73077324b361272dde2d757f8ec6eb59daae7945196001620004a4565b620002bb73493e990ccc67f59a3000effa9d5b1417d54b6f996001620004a4565b6089461415620002bb576200035973a5e0829caced8ffdd4de3c43696c57f7d7a678ff6001620003de565b6200037a733bcb4ed7132e2f1b7b0fa9966663f24b8210f8b66001620004a4565b620002bb73f92b726b10956ff95ebabdd6fd92d180d1e920da6001620004a4565b620003b28282620004de60201b62000f261760201c565b6000828152600160209081526040909120620003d991839062000f34620004ee821b17901c565b505050565b6000620003ec81336200050e565b506001600160a01b03919091166000908152600360205260409020805460ff1916911515919091179055565b60006200042681336200050e565b6001600160a01b03821660009081526002602052604090205460ff16156200047f5760405162461bcd60e51b81526020600482015260076024820152661114ce88189bdd60ca1b60448201526064015b60405180910390fd5b506001600160a01b03166000908152600260205260409020805460ff19166001179055565b6000620004b281336200050e565b506001600160a01b03919091166000908152600660205260409020805460ff1916911515919091179055565b620004ea8282620005a9565b5050565b600062000505836001600160a01b03841662000649565b90505b92915050565b6000828152602081815260408083206001600160a01b038516845290915290205460ff16620004ea5762000558816001600160a01b031660146200069b60201b62000f491760201c565b6200056e83602062000f496200069b821b17811c565b6040516020016200058192919062000887565b60408051601f198184030181529082905262461bcd60e51b8252620004769160040162000900565b6000828152602081815260408083206001600160a01b038516845290915290205460ff16620004ea576000828152602081815260408083206001600160a01b03851684529091529020805460ff19166001179055620006053390565b6001600160a01b0316816001600160a01b0316837f2f8788117e7eff1d82e926ec794901d17c78024a50270940304540a733656f0d60405160405180910390a45050565b6000818152600183016020526040812054620006925750815460018181018455600084815260208082209093018490558454848252828601909352604090209190915562000508565b50600062000508565b60606000620006ac8360026200094b565b620006b99060026200096d565b6001600160401b03811115620006d357620006d362000988565b6040519080825280601f01601f191660200182016040528015620006fe576020820181803683370190505b509050600360fc1b816000815181106200071c576200071c6200099e565b60200101906001600160f81b031916908160001a905350600f60fb1b816001815181106200074e576200074e6200099e565b60200101906001600160f81b031916908160001a9053506000620007748460026200094b565b620007819060016200096d565b90505b600181111562000803576f181899199a1a9b1b9c1cb0b131b232b360811b85600f1660108110620007b957620007b96200099e565b1a60f81b828281518110620007d257620007d26200099e565b60200101906001600160f81b031916908160001a90535060049490941c93620007fb81620009b4565b905062000784565b508315620005055760405162461bcd60e51b815260206004820181905260248201527f537472696e67733a20686578206c656e67746820696e73756666696369656e74604482015260640162000476565b60005b838110156200087157818101518382015260200162000857565b8381111562000881576000848401525b50505050565b7f416363657373436f6e74726f6c3a206163636f756e7420000000000000000000815260008351620008c181601785016020880162000854565b7001034b99036b4b9b9b4b733903937b6329607d1b6017918401918201528351620008f481602884016020880162000854565b01602801949350505050565b60208152600082518060208401526200092181604085016020870162000854565b601f01601f19169190910160400192915050565b634e487b7160e01b600052601160045260246000fd5b600081600019048311821515161562000968576200096862000935565b500290565b6000821982111562000983576200098362000935565b500190565b634e487b7160e01b600052604160045260246000fd5b634e487b7160e01b600052603260045260246000fd5b600081620009c657620009c662000935565b506000190190565b611af180620009de6000396000f3fe608060405234801561001057600080fd5b50600436106101da5760003560e01c80639010d07c11610104578063ca15c873116100a2578063e53fd77511610071578063e53fd7751461043b578063eaa8f7e31461044e578063eb88e03114610461578063ed0b84761461047457600080fd5b8063ca15c873146103fa578063d391014b1461040d578063d547741f14610415578063db8aa5381461042857600080fd5b8063a8798ffc116100de578063a8798ffc146103ae578063a9a48824146103c1578063b0d5b827146103d4578063c78bf346146103e757600080fd5b80639010d07c1461035d57806391d1485414610388578063a82878611461039b57600080fd5b8063248a9ca31161017c578063404a8cca1161014b578063404a8cca14610311578063441c62a8146103245780635f242323146103375780636a930a951461034a57600080fd5b8063248a9ca3146102b55780632a5bf470146102d85780632f2ff15d146102eb57806336568abe146102fe57600080fd5b80631093baa9116101b85780631093baa91461024e578063161aa47e146102615780631fd413f814610282578063231683ae146102a257600080fd5b806301d01264146101df57806301ffc9a71461021657806303ed957f14610239575b600080fd5b6101f26101ed3660046114da565b610487565b60408051825115158152602092830151151592810192909252015b60405180910390f35b61022961022436600461151d565b6105f4565b604051901515815260200161020d565b61024c610247366004611547565b61061f565b005b61024c61025c3660046115bc565b61069c565b61027461026f3660046115d7565b610720565b60405190815260200161020d565b610295610290366004611620565b61075a565b60405161020d91906116e5565b61024c6102b0366004611742565b610807565b6102746102c336600461176c565b60009081526020819052604090206001015490565b61024c6102e6366004611785565b61083f565b61024c6102f93660046117c1565b610898565b61024c61030c3660046117c1565b6108bf565b61024c61031f366004611830565b6108e1565b610295610332366004611620565b610965565b6102296103453660046115bc565b610a07565b61024c61035836600461187b565b610a34565b61037061036b3660046118bd565b610aff565b6040516001600160a01b03909116815260200161020d565b6102296103963660046117c1565b610b1e565b6102296103a93660046115bc565b610b47565b61024c6103bc366004611830565b610c2f565b61024c6103cf3660046115bc565b610cac565b61024c6103e2366004611742565b610d2d565b6102296103f53660046115bc565b610d65565b61027461040836600461176c565b610d92565b610274600081565b61024c6104233660046117c1565b610da9565b6102296104363660046115bc565b610db3565b6102746104493660046115bc565b610de0565b61022961045c3660046115bc565b610e2f565b61024c61046f366004611830565b610e80565b61024c6104823660046118df565b610efd565b604080518082019091526000808252602082015260006104a781336110e5565b6104b083610b47565b151560208301526104c084610b47565b151582526001600160a01b0385166000908152600460205260408120546104e95761012c610503565b6001600160a01b0386166000908152600460205260409020545b835190915015801561052e57506001600160a01b03851660009081526003602052604090205460ff16155b801561058d57506001600160a01b03851660009081526002602052604090205460ff168061058d57506001600160a01b03808716600090815260056020908152604080832093891683529290522054429061058a90839061191f565b10155b156105eb5760405162461bcd60e51b8152602060048201526024808201527f44533a205472616e7366657273206172652074656d706f726172792064697361604482015263189b195960e21b60648201526084015b60405180910390fd5b50509392505050565b60006001600160e01b03198216635a05180f60e01b1480610619575061061982611149565b92915050565b600061062b81336110e5565b60005b828110156106965761068484848381811061064b5761064b611937565b9050604002016000013585858481811061066757610667611937565b905060400201602001602081019061067f91906115bc565b61117e565b8061068e8161194d565b91505061062e565b50505050565b60006106a881336110e5565b6001600160a01b03821660009081526002602052604090205460ff16156106fb5760405162461bcd60e51b81526020600482015260076024820152661114ce88189bdd60ca1b60448201526064016105e2565b506001600160a01b03166000908152600260205260409020805460ff19166001179055565b60008061072d81336110e5565b50506001600160a01b03918216600090815260056020908152604080832093909416825291909152205490565b6060600061076881336110e5565b60005b83518110156107fc576003600085838151811061078a5761078a611937565b6020908102919091018101516001600160a01b031682528101919091526040016000205460ff166107ea5760008482815181106107c9576107c9611937565b60200260200101906001600160a01b031690816001600160a01b0316815250505b806107f48161194d565b91505061076b565b508291505b50919050565b600061081381336110e5565b506001600160a01b03919091166000908152600360205260409020805460ff1916911515919091179055565b600061084b81336110e5565b6001600160a01b03831660009081526003602052604090205460ff1661069657506001600160a01b0392831660009081526005602090815260408083209490951682529290925291902055565b6108a28282611188565b60008281526001602052604090206108ba9082610f34565b505050565b6108c9828261119e565b60008281526001602052604090206108ba9082611218565b60006108ed81336110e5565b60005b8381101561095e57826002600087878581811061090f5761090f611937565b905060200201602081019061092491906115bc565b6001600160a01b031681526020810191909152604001600020805460ff1916911515919091179055806109568161194d565b9150506108f0565b5050505050565b6060600061097381336110e5565b60005b83518110156107fc576002600085838151811061099557610995611937565b6020908102919091018101516001600160a01b031682528101919091526040016000205460ff166109f55760008482815181106109d4576109d4611937565b60200260200101906001600160a01b031690816001600160a01b0316815250505b806109ff8161194d565b915050610976565b600080610a1481336110e5565b50506001600160a01b031660009081526002602052604090205460ff1690565b6000610a4081336110e5565b60005b828110156106965760026000858584818110610a6157610a61611937565b9050602002016020810190610a7691906115bc565b6001600160a01b0316815260208101919091526040016000205460ff16610aed57600160026000868685818110610aaf57610aaf611937565b9050602002016020810190610ac491906115bc565b6001600160a01b031681526020810191909152604001600020805460ff19169115159190911790555b80610af78161194d565b915050610a43565b6000828152600160205260408120610b17908361122d565b9392505050565b6000918252602082815260408084206001600160a01b0393909316845291905290205460ff1690565b600080610b5481336110e5565b6001600160a01b03831660009081526006602052604090205460ff16915081610c005760408051600481526024810182526020810180516001600160e01b031663d21220a760e01b17905290516001600160a01b03851690610bb7908390611994565b600060405180830381855afa9150503d8060008114610bf2576040519150601f19603f3d011682016040523d82523d6000602084013e610bf7565b606091505b50511515935050505b8115610801576001600160a01b0383166000908152600660205260409020805460ff1916600117905550919050565b6000610c3b81336110e5565b60005b8381101561095e578260036000878785818110610c5d57610c5d611937565b9050602002016020810190610c7291906115bc565b6001600160a01b031681526020810191909152604001600020805460ff191691151591909117905580610ca48161194d565b915050610c3e565b6000610cb881336110e5565b6001600160a01b03821660009081526002602052604090205460ff16610d0b5760405162461bcd60e51b81526020600482015260086024820152671114ce8808589bdd60c21b60448201526064016105e2565b506001600160a01b03166000908152600260205260409020805460ff19169055565b6000610d3981336110e5565b506001600160a01b03919091166000908152600660205260409020805460ff1916911515919091179055565b600080610d7281336110e5565b50506001600160a01b031660009081526006602052604090205460ff1690565b600081815260016020526040812061061990611239565b6108c98282611243565b600080610dc081336110e5565b50506001600160a01b031660009081526003602052604090205460ff1690565b600080610ded81336110e5565b6001600160a01b038316600090815260046020526040902054610e125761012c610b17565b50506001600160a01b031660009081526004602052604090205490565b600080610e3c81336110e5565b6001600160a01b03831660009081526002602052604090205460ff168015610b17575050506001600160a01b031660009081526003602052604090205460ff161590565b6000610e8c81336110e5565b60005b8381101561095e578260066000878785818110610eae57610eae611937565b9050602002016020810190610ec391906115bc565b6001600160a01b031681526020810191909152604001600020805460ff191691151591909117905580610ef58161194d565b915050610e8f565b6000610f0981336110e5565b506001600160a01b03909116600090815260046020526040902055565b610f308282611269565b5050565b6000610b17836001600160a01b0384166112ed565b60606000610f588360026119b0565b610f6390600261191f565b67ffffffffffffffff811115610f7b57610f7b61160a565b6040519080825280601f01601f191660200182016040528015610fa5576020820181803683370190505b509050600360fc1b81600081518110610fc057610fc0611937565b60200101906001600160f81b031916908160001a905350600f60fb1b81600181518110610fef57610fef611937565b60200101906001600160f81b031916908160001a90535060006110138460026119b0565b61101e90600161191f565b90505b6001811115611096576f181899199a1a9b1b9c1cb0b131b232b360811b85600f166010811061105257611052611937565b1a60f81b82828151811061106857611068611937565b60200101906001600160f81b031916908160001a90535060049490941c9361108f816119cf565b9050611021565b508315610b175760405162461bcd60e51b815260206004820181905260248201527f537472696e67733a20686578206c656e67746820696e73756666696369656e7460448201526064016105e2565b6110ef8282610b1e565b610f3057611107816001600160a01b03166014610f49565b611112836020610f49565b6040516020016111239291906119e6565b60408051601f198184030181529082905262461bcd60e51b82526105e291600401611a5b565b60006001600160e01b03198216637965db0b60e01b148061061957506301ffc9a760e01b6001600160e01b0319831614610619565b6108a28282610f26565b600061119481336110e5565b6108ba8383611269565b6001600160a01b038116331461120e5760405162461bcd60e51b815260206004820152602f60248201527f416363657373436f6e74726f6c3a2063616e206f6e6c792072656e6f756e636560448201526e103937b632b9903337b91039b2b63360891b60648201526084016105e2565b610f30828261133c565b6000610b17836001600160a01b0384166113a1565b6000610b178383611494565b6000610619825490565b60008281526020819052604090206001015461125f81336110e5565b6108ba838361133c565b6112738282610b1e565b610f30576000828152602081815260408083206001600160a01b03851684529091529020805460ff191660011790556112a93390565b6001600160a01b0316816001600160a01b0316837f2f8788117e7eff1d82e926ec794901d17c78024a50270940304540a733656f0d60405160405180910390a45050565b600081815260018301602052604081205461133457508154600181810184556000848152602080822090930184905584548482528286019093526040902091909155610619565b506000610619565b6113468282610b1e565b15610f30576000828152602081815260408083206001600160a01b0385168085529252808320805460ff1916905551339285917ff6391f5c32d9c69d2a47ea670b442974b53935d1edc7fd64eb21e047a839171b9190a45050565b6000818152600183016020526040812054801561148a5760006113c5600183611a8e565b85549091506000906113d990600190611a8e565b905081811461143e5760008660000182815481106113f9576113f9611937565b906000526020600020015490508087600001848154811061141c5761141c611937565b6000918252602080832090910192909255918252600188019052604090208390555b855486908061144f5761144f611aa5565b600190038181906000526020600020016000905590558560010160008681526020019081526020016000206000905560019350505050610619565b6000915050610619565b60008260000182815481106114ab576114ab611937565b9060005260206000200154905092915050565b80356001600160a01b03811681146114d557600080fd5b919050565b6000806000606084860312156114ef57600080fd5b6114f8846114be565b9250611506602085016114be565b9150611514604085016114be565b90509250925092565b60006020828403121561152f57600080fd5b81356001600160e01b031981168114610b1757600080fd5b6000806020838503121561155a57600080fd5b823567ffffffffffffffff8082111561157257600080fd5b818501915085601f83011261158657600080fd5b81358181111561159557600080fd5b8660208260061b85010111156115aa57600080fd5b60209290920196919550909350505050565b6000602082840312156115ce57600080fd5b610b17826114be565b600080604083850312156115ea57600080fd5b6115f3836114be565b9150611601602084016114be565b90509250929050565b634e487b7160e01b600052604160045260246000fd5b6000602080838503121561163357600080fd5b823567ffffffffffffffff8082111561164b57600080fd5b818501915085601f83011261165f57600080fd5b8135818111156116715761167161160a565b8060051b604051601f19603f830116810181811085821117156116965761169661160a565b6040529182528482019250838101850191888311156116b457600080fd5b938501935b828510156116d9576116ca856114be565b845293850193928501926116b9565b98975050505050505050565b6020808252825182820181905260009190848201906040850190845b818110156117265783516001600160a01b031683529284019291840191600101611701565b50909695505050505050565b803580151581146114d557600080fd5b6000806040838503121561175557600080fd5b61175e836114be565b915061160160208401611732565b60006020828403121561177e57600080fd5b5035919050565b60008060006060848603121561179a57600080fd5b6117a3846114be565b92506117b1602085016114be565b9150604084013590509250925092565b600080604083850312156117d457600080fd5b82359150611601602084016114be565b60008083601f8401126117f657600080fd5b50813567ffffffffffffffff81111561180e57600080fd5b6020830191508360208260051b850101111561182957600080fd5b9250929050565b60008060006040848603121561184557600080fd5b833567ffffffffffffffff81111561185c57600080fd5b611868868287016117e4565b9094509250611514905060208501611732565b6000806020838503121561188e57600080fd5b823567ffffffffffffffff8111156118a557600080fd5b6118b1858286016117e4565b90969095509350505050565b600080604083850312156118d057600080fd5b50508035926020909101359150565b600080604083850312156118f257600080fd5b6118fb836114be565b946020939093013593505050565b634e487b7160e01b600052601160045260246000fd5b6000821982111561193257611932611909565b500190565b634e487b7160e01b600052603260045260246000fd5b600060001982141561196157611961611909565b5060010190565b60005b8381101561198357818101518382015260200161196b565b838111156106965750506000910152565b600082516119a6818460208701611968565b9190910192915050565b60008160001904831182151516156119ca576119ca611909565b500290565b6000816119de576119de611909565b506000190190565b7f416363657373436f6e74726f6c3a206163636f756e7420000000000000000000815260008351611a1e816017850160208801611968565b7001034b99036b4b9b9b4b733903937b6329607d1b6017918401918201528351611a4f816028840160208801611968565b01602801949350505050565b6020815260008251806020840152611a7a816040850160208701611968565b601f01601f19169190910160400192915050565b600082821015611aa057611aa0611909565b500390565b634e487b7160e01b600052603160045260246000fdfea2646970667358221220c3a16900a116a9b3ab77aab2f4b381905986cca60ff1a7fab7757f15b848648164736f6c63430008090033",
			"opcodes": "PUSH1 0x80 PUSH1 0x40 MSTORE CALLVALUE DUP1 ISZERO PUSH3 0x11 JUMPI PUSH1 0x0 DUP1 REVERT JUMPDEST POP PUSH3 0x1F PUSH1 0x0 CALLER PUSH3 0x39B JUMP JUMPDEST PUSH3 0x40 PUSH1 0x0 PUSH20 0x1EE133D3CC3FD5795DD4014579A36A6B7900102E PUSH3 0x39B JUMP JUMPDEST PUSH3 0x61 PUSH20 0x1EE133D3CC3FD5795DD4014579A36A6B7900102E PUSH1 0x1 PUSH3 0x3DE JUMP JUMPDEST PUSH3 0x82 PUSH1 0x0 PUSH20 0xDEF1FAFC79CD01CF6797B9D7F51411BEF486262A PUSH3 0x39B JUMP JUMPDEST PUSH3 0xA3 PUSH1 0x0 PUSH20 0x1D2900622B5049D9479DC8BE06469A4EDE3FC96E PUSH3 0x39B JUMP JUMPDEST PUSH3 0xC4 PUSH1 0x0 PUSH20 0x9980A0447456B5CDCE209D7DC94820FF15600022 PUSH3 0x39B JUMP JUMPDEST PUSH3 0xE3 PUSH20 0xC25E850F6CEDE52809014D4EECCA402EB47BDC28 PUSH3 0x418 JUMP JUMPDEST PUSH3 0x104 PUSH20 0xDEF1FAFC79CD01CF6797B9D7F51411BEF486262A PUSH1 0x1 PUSH3 0x3DE JUMP JUMPDEST PUSH3 0x125 PUSH20 0xDEF78A28C78A461598D948BC0C689CE88F812AD8 PUSH1 0x1 PUSH3 0x3DE JUMP JUMPDEST PUSH3 0x146 PUSH20 0xDEF1C0DED9BEC7F1A1670819833240F027B25EFF PUSH1 0x1 PUSH3 0x3DE JUMP JUMPDEST PUSH3 0x167 PUSH20 0x11111112542D85B3EF69AE05771C2DCCFF4FAA26 PUSH1 0x1 PUSH3 0x3DE JUMP JUMPDEST PUSH3 0x188 PUSH20 0x27239549DD40E1D60F5B80B0C4196923745B1FD2 PUSH1 0x1 PUSH3 0x3DE JUMP JUMPDEST PUSH3 0x1A9 PUSH20 0xDEF1FAE3A7713173C168945B8704D4600B6FC7B9 PUSH1 0x1 PUSH3 0x3DE JUMP JUMPDEST PUSH3 0x1CA PUSH20 0xDEF1FAC7BF08F173D286BBBDCBEEADE695129840 PUSH1 0x1 PUSH3 0x3DE JUMP JUMPDEST PUSH3 0x1EB PUSH20 0x881D40237659C251811CEC9C364EF91DC08D300C PUSH1 0x1 PUSH3 0x3DE JUMP JUMPDEST PUSH3 0x20C PUSH20 0x74DE5D4FCBF63E00296FD95D33236B9794016631 PUSH1 0x1 PUSH3 0x3DE JUMP JUMPDEST PUSH3 0x22D PUSH20 0xE122D2E14D35D794C977B4D6924232CAE7C8DBB5 PUSH1 0x1 PUSH3 0x3DE JUMP JUMPDEST PUSH1 0x1 CHAINID EQ ISZERO PUSH3 0x2C1 JUMPI PUSH3 0x258 PUSH20 0x7A250D5630B4CF539739DF2C5DACB4C659F2488D PUSH1 0x1 PUSH3 0x3DE JUMP JUMPDEST PUSH3 0x279 PUSH20 0xE592427A0AECE92DE3EDEE1F18E0157C05861564 PUSH1 0x1 PUSH3 0x3DE JUMP JUMPDEST PUSH3 0x29A PUSH20 0xFA6687922BF40FF51BCD45F9FD339215A4869D82 PUSH1 0x1 PUSH3 0x4A4 JUMP JUMPDEST PUSH3 0x2BB PUSH20 0x81489B0E7C7A515799C89374E23AC9295088551D PUSH1 0x1 PUSH3 0x4A4 JUMP JUMPDEST PUSH3 0x9CE JUMP JUMPDEST PUSH1 0x38 CHAINID EQ ISZERO PUSH3 0x32E JUMPI PUSH3 0x2EC PUSH20 0x10ED43C718714EB63D5AA57B78B54704E256024E PUSH1 0x1 PUSH3 0x3DE JUMP JUMPDEST PUSH3 0x30D PUSH20 0x77324B361272DDE2D757F8EC6EB59DAAE794519 PUSH1 0x1 PUSH3 0x4A4 JUMP JUMPDEST PUSH3 0x2BB PUSH20 0x493E990CCC67F59A3000EFFA9D5B1417D54B6F99 PUSH1 0x1 PUSH3 0x4A4 JUMP JUMPDEST PUSH1 0x89 CHAINID EQ ISZERO PUSH3 0x2BB JUMPI PUSH3 0x359 PUSH20 0xA5E0829CACED8FFDD4DE3C43696C57F7D7A678FF PUSH1 0x1 PUSH3 0x3DE JUMP JUMPDEST PUSH3 0x37A PUSH20 0x3BCB4ED7132E2F1B7B0FA9966663F24B8210F8B6 PUSH1 0x1 PUSH3 0x4A4 JUMP JUMPDEST PUSH3 0x2BB PUSH20 0xF92B726B10956FF95EBABDD6FD92D180D1E920DA PUSH1 0x1 PUSH3 0x4A4 JUMP JUMPDEST PUSH3 0x3B2 DUP3 DUP3 PUSH3 0x4DE PUSH1 0x20 SHL PUSH3 0xF26 OR PUSH1 0x20 SHR JUMP JUMPDEST PUSH1 0x0 DUP3 DUP2 MSTORE PUSH1 0x1 PUSH1 0x20 SWAP1 DUP2 MSTORE PUSH1 0x40 SWAP1 SWAP2 KECCAK256 PUSH3 0x3D9 SWAP2 DUP4 SWAP1 PUSH3 0xF34 PUSH3 0x4EE DUP3 SHL OR SWAP1 SHR JUMP JUMPDEST POP POP POP JUMP JUMPDEST PUSH1 0x0 PUSH3 0x3EC DUP2 CALLER PUSH3 0x50E JUMP JUMPDEST POP PUSH1 0x1 PUSH1 0x1 PUSH1 0xA0 SHL SUB SWAP2 SWAP1 SWAP2 AND PUSH1 0x0 SWAP1 DUP2 MSTORE PUSH1 0x3 PUSH1 0x20 MSTORE PUSH1 0x40 SWAP1 KECCAK256 DUP1 SLOAD PUSH1 0xFF NOT AND SWAP2 ISZERO ISZERO SWAP2 SWAP1 SWAP2 OR SWAP1 SSTORE JUMP JUMPDEST PUSH1 0x0 PUSH3 0x426 DUP2 CALLER PUSH3 0x50E JUMP JUMPDEST PUSH1 0x1 PUSH1 0x1 PUSH1 0xA0 SHL SUB DUP3 AND PUSH1 0x0 SWAP1 DUP2 MSTORE PUSH1 0x2 PUSH1 0x20 MSTORE PUSH1 0x40 SWAP1 KECCAK256 SLOAD PUSH1 0xFF AND ISZERO PUSH3 0x47F JUMPI PUSH1 0x40 MLOAD PUSH3 0x461BCD PUSH1 0xE5 SHL DUP2 MSTORE PUSH1 0x20 PUSH1 0x4 DUP3 ADD MSTORE PUSH1 0x7 PUSH1 0x24 DUP3 ADD MSTORE PUSH7 0x1114CE88189BDD PUSH1 0xCA SHL PUSH1 0x44 DUP3 ADD MSTORE PUSH1 0x64 ADD JUMPDEST PUSH1 0x40 MLOAD DUP1 SWAP2 SUB SWAP1 REVERT JUMPDEST POP PUSH1 0x1 PUSH1 0x1 PUSH1 0xA0 SHL SUB AND PUSH1 0x0 SWAP1 DUP2 MSTORE PUSH1 0x2 PUSH1 0x20 MSTORE PUSH1 0x40 SWAP1 KECCAK256 DUP1 SLOAD PUSH1 0xFF NOT AND PUSH1 0x1 OR SWAP1 SSTORE JUMP JUMPDEST PUSH1 0x0 PUSH3 0x4B2 DUP2 CALLER PUSH3 0x50E JUMP JUMPDEST POP PUSH1 0x1 PUSH1 0x1 PUSH1 0xA0 SHL SUB SWAP2 SWAP1 SWAP2 AND PUSH1 0x0 SWAP1 DUP2 MSTORE PUSH1 0x6 PUSH1 0x20 MSTORE PUSH1 0x40 SWAP1 KECCAK256 DUP1 SLOAD PUSH1 0xFF NOT AND SWAP2 ISZERO ISZERO SWAP2 SWAP1 SWAP2 OR SWAP1 SSTORE JUMP JUMPDEST PUSH3 0x4EA DUP3 DUP3 PUSH3 0x5A9 JUMP JUMPDEST POP POP JUMP JUMPDEST PUSH1 0x0 PUSH3 0x505 DUP4 PUSH1 0x1 PUSH1 0x1 PUSH1 0xA0 SHL SUB DUP5 AND PUSH3 0x649 JUMP JUMPDEST SWAP1 POP JUMPDEST SWAP3 SWAP2 POP POP JUMP JUMPDEST PUSH1 0x0 DUP3 DUP2 MSTORE PUSH1 0x20 DUP2 DUP2 MSTORE PUSH1 0x40 DUP1 DUP4 KECCAK256 PUSH1 0x1 PUSH1 0x1 PUSH1 0xA0 SHL SUB DUP6 AND DUP5 MSTORE SWAP1 SWAP2 MSTORE SWAP1 KECCAK256 SLOAD PUSH1 0xFF AND PUSH3 0x4EA JUMPI PUSH3 0x558 DUP2 PUSH1 0x1 PUSH1 0x1 PUSH1 0xA0 SHL SUB AND PUSH1 0x14 PUSH3 0x69B PUSH1 0x20 SHL PUSH3 0xF49 OR PUSH1 0x20 SHR JUMP JUMPDEST PUSH3 0x56E DUP4 PUSH1 0x20 PUSH3 0xF49 PUSH3 0x69B DUP3 SHL OR DUP2 SHR JUMP JUMPDEST PUSH1 0x40 MLOAD PUSH1 0x20 ADD PUSH3 0x581 SWAP3 SWAP2 SWAP1 PUSH3 0x887 JUMP JUMPDEST PUSH1 0x40 DUP1 MLOAD PUSH1 0x1F NOT DUP2 DUP5 SUB ADD DUP2 MSTORE SWAP1 DUP3 SWAP1 MSTORE PUSH3 0x461BCD PUSH1 0xE5 SHL DUP3 MSTORE PUSH3 0x476 SWAP2 PUSH1 0x4 ADD PUSH3 0x900 JUMP JUMPDEST PUSH1 0x0 DUP3 DUP2 MSTORE PUSH1 0x20 DUP2 DUP2 MSTORE PUSH1 0x40 DUP1 DUP4 KECCAK256 PUSH1 0x1 PUSH1 0x1 PUSH1 0xA0 SHL SUB DUP6 AND DUP5 MSTORE SWAP1 SWAP2 MSTORE SWAP1 KECCAK256 SLOAD PUSH1 0xFF AND PUSH3 0x4EA JUMPI PUSH1 0x0 DUP3 DUP2 MSTORE PUSH1 0x20 DUP2 DUP2 MSTORE PUSH1 0x40 DUP1 DUP4 KECCAK256 PUSH1 0x1 PUSH1 0x1 PUSH1 0xA0 SHL SUB DUP6 AND DUP5 MSTORE SWAP1 SWAP2 MSTORE SWAP1 KECCAK256 DUP1 SLOAD PUSH1 0xFF NOT AND PUSH1 0x1 OR SWAP1 SSTORE PUSH3 0x605 CALLER SWAP1 JUMP JUMPDEST PUSH1 0x1 PUSH1 0x1 PUSH1 0xA0 SHL SUB AND DUP2 PUSH1 0x1 PUSH1 0x1 PUSH1 0xA0 SHL SUB AND DUP4 PUSH32 0x2F8788117E7EFF1D82E926EC794901D17C78024A50270940304540A733656F0D PUSH1 0x40 MLOAD PUSH1 0x40 MLOAD DUP1 SWAP2 SUB SWAP1 LOG4 POP POP JUMP JUMPDEST PUSH1 0x0 DUP2 DUP2 MSTORE PUSH1 0x1 DUP4 ADD PUSH1 0x20 MSTORE PUSH1 0x40 DUP2 KECCAK256 SLOAD PUSH3 0x692 JUMPI POP DUP2 SLOAD PUSH1 0x1 DUP2 DUP2 ADD DUP5 SSTORE PUSH1 0x0 DUP5 DUP2 MSTORE PUSH1 0x20 DUP1 DUP3 KECCAK256 SWAP1 SWAP4 ADD DUP5 SWAP1 SSTORE DUP5 SLOAD DUP5 DUP3 MSTORE DUP3 DUP7 ADD SWAP1 SWAP4 MSTORE PUSH1 0x40 SWAP1 KECCAK256 SWAP2 SWAP1 SWAP2 SSTORE PUSH3 0x508 JUMP JUMPDEST POP PUSH1 0x0 PUSH3 0x508 JUMP JUMPDEST PUSH1 0x60 PUSH1 0x0 PUSH3 0x6AC DUP4 PUSH1 0x2 PUSH3 0x94B JUMP JUMPDEST PUSH3 0x6B9 SWAP1 PUSH1 0x2 PUSH3 0x96D JUMP JUMPDEST PUSH1 0x1 PUSH1 0x1 PUSH1 0x40 SHL SUB DUP2 GT ISZERO PUSH3 0x6D3 JUMPI PUSH3 0x6D3 PUSH3 0x988 JUMP JUMPDEST PUSH1 0x40 MLOAD SWAP1 DUP1 DUP3 MSTORE DUP1 PUSH1 0x1F ADD PUSH1 0x1F NOT AND PUSH1 0x20 ADD DUP3 ADD PUSH1 0x40 MSTORE DUP1 ISZERO PUSH3 0x6FE JUMPI PUSH1 0x20 DUP3 ADD DUP2 DUP1 CALLDATASIZE DUP4 CALLDATACOPY ADD SWAP1 POP JUMPDEST POP SWAP1 POP PUSH1 0x3 PUSH1 0xFC SHL DUP2 PUSH1 0x0 DUP2 MLOAD DUP2 LT PUSH3 0x71C JUMPI PUSH3 0x71C PUSH3 0x99E JUMP JUMPDEST PUSH1 0x20 ADD ADD SWAP1 PUSH1 0x1 PUSH1 0x1 PUSH1 0xF8 SHL SUB NOT AND SWAP1 DUP2 PUSH1 0x0 BYTE SWAP1 MSTORE8 POP PUSH1 0xF PUSH1 0xFB SHL DUP2 PUSH1 0x1 DUP2 MLOAD DUP2 LT PUSH3 0x74E JUMPI PUSH3 0x74E PUSH3 0x99E JUMP JUMPDEST PUSH1 0x20 ADD ADD SWAP1 PUSH1 0x1 PUSH1 0x1 PUSH1 0xF8 SHL SUB NOT AND SWAP1 DUP2 PUSH1 0x0 BYTE SWAP1 MSTORE8 POP PUSH1 0x0 PUSH3 0x774 DUP5 PUSH1 0x2 PUSH3 0x94B JUMP JUMPDEST PUSH3 0x781 SWAP1 PUSH1 0x1 PUSH3 0x96D JUMP JUMPDEST SWAP1 POP JUMPDEST PUSH1 0x1 DUP2 GT ISZERO PUSH3 0x803 JUMPI PUSH16 0x181899199A1A9B1B9C1CB0B131B232B3 PUSH1 0x81 SHL DUP6 PUSH1 0xF AND PUSH1 0x10 DUP2 LT PUSH3 0x7B9 JUMPI PUSH3 0x7B9 PUSH3 0x99E JUMP JUMPDEST BYTE PUSH1 0xF8 SHL DUP3 DUP3 DUP2 MLOAD DUP2 LT PUSH3 0x7D2 JUMPI PUSH3 0x7D2 PUSH3 0x99E JUMP JUMPDEST PUSH1 0x20 ADD ADD SWAP1 PUSH1 0x1 PUSH1 0x1 PUSH1 0xF8 SHL SUB NOT AND SWAP1 DUP2 PUSH1 0x0 BYTE SWAP1 MSTORE8 POP PUSH1 0x4 SWAP5 SWAP1 SWAP5 SHR SWAP4 PUSH3 0x7FB DUP2 PUSH3 0x9B4 JUMP JUMPDEST SWAP1 POP PUSH3 0x784 JUMP JUMPDEST POP DUP4 ISZERO PUSH3 0x505 JUMPI PUSH1 0x40 MLOAD PUSH3 0x461BCD PUSH1 0xE5 SHL DUP2 MSTORE PUSH1 0x20 PUSH1 0x4 DUP3 ADD DUP2 SWAP1 MSTORE PUSH1 0x24 DUP3 ADD MSTORE PUSH32 0x537472696E67733A20686578206C656E67746820696E73756666696369656E74 PUSH1 0x44 DUP3 ADD MSTORE PUSH1 0x64 ADD PUSH3 0x476 JUMP JUMPDEST PUSH1 0x0 JUMPDEST DUP4 DUP2 LT ISZERO PUSH3 0x871 JUMPI DUP2 DUP2 ADD MLOAD DUP4 DUP3 ADD MSTORE PUSH1 0x20 ADD PUSH3 0x857 JUMP JUMPDEST DUP4 DUP2 GT ISZERO PUSH3 0x881 JUMPI PUSH1 0x0 DUP5 DUP5 ADD MSTORE JUMPDEST POP POP POP POP JUMP JUMPDEST PUSH32 0x416363657373436F6E74726F6C3A206163636F756E7420000000000000000000 DUP2 MSTORE PUSH1 0x0 DUP4 MLOAD PUSH3 0x8C1 DUP2 PUSH1 0x17 DUP6 ADD PUSH1 0x20 DUP9 ADD PUSH3 0x854 JUMP JUMPDEST PUSH17 0x1034B99036B4B9B9B4B733903937B6329 PUSH1 0x7D SHL PUSH1 0x17 SWAP2 DUP5 ADD SWAP2 DUP3 ADD MSTORE DUP4 MLOAD PUSH3 0x8F4 DUP2 PUSH1 0x28 DUP5 ADD PUSH1 0x20 DUP9 ADD PUSH3 0x854 JUMP JUMPDEST ADD PUSH1 0x28 ADD SWAP5 SWAP4 POP POP POP POP JUMP JUMPDEST PUSH1 0x20 DUP2 MSTORE PUSH1 0x0 DUP3 MLOAD DUP1 PUSH1 0x20 DUP5 ADD MSTORE PUSH3 0x921 DUP2 PUSH1 0x40 DUP6 ADD PUSH1 0x20 DUP8 ADD PUSH3 0x854 JUMP JUMPDEST PUSH1 0x1F ADD PUSH1 0x1F NOT AND SWAP2 SWAP1 SWAP2 ADD PUSH1 0x40 ADD SWAP3 SWAP2 POP POP JUMP JUMPDEST PUSH4 0x4E487B71 PUSH1 0xE0 SHL PUSH1 0x0 MSTORE PUSH1 0x11 PUSH1 0x4 MSTORE PUSH1 0x24 PUSH1 0x0 REVERT JUMPDEST PUSH1 0x0 DUP2 PUSH1 0x0 NOT DIV DUP4 GT DUP3 ISZERO ISZERO AND ISZERO PUSH3 0x968 JUMPI PUSH3 0x968 PUSH3 0x935 JUMP JUMPDEST POP MUL SWAP1 JUMP JUMPDEST PUSH1 0x0 DUP3 NOT DUP3 GT ISZERO PUSH3 0x983 JUMPI PUSH3 0x983 PUSH3 0x935 JUMP JUMPDEST POP ADD SWAP1 JUMP JUMPDEST PUSH4 0x4E487B71 PUSH1 0xE0 SHL PUSH1 0x0 MSTORE PUSH1 0x41 PUSH1 0x4 MSTORE PUSH1 0x24 PUSH1 0x0 REVERT JUMPDEST PUSH4 0x4E487B71 PUSH1 0xE0 SHL PUSH1 0x0 MSTORE PUSH1 0x32 PUSH1 0x4 MSTORE PUSH1 0x24 PUSH1 0x0 REVERT JUMPDEST PUSH1 0x0 DUP2 PUSH3 0x9C6 JUMPI PUSH3 0x9C6 PUSH3 0x935 JUMP JUMPDEST POP PUSH1 0x0 NOT ADD SWAP1 JUMP JUMPDEST PUSH2 0x1AF1 DUP1 PUSH3 0x9DE PUSH1 0x0 CODECOPY PUSH1 0x0 RETURN INVALID PUSH1 0x80 PUSH1 0x40 MSTORE CALLVALUE DUP1 ISZERO PUSH2 0x10 JUMPI PUSH1 0x0 DUP1 REVERT JUMPDEST POP PUSH1 0x4 CALLDATASIZE LT PUSH2 0x1DA JUMPI PUSH1 0x0 CALLDATALOAD PUSH1 0xE0 SHR DUP1 PUSH4 0x9010D07C GT PUSH2 0x104 JUMPI DUP1 PUSH4 0xCA15C873 GT PUSH2 0xA2 JUMPI DUP1 PUSH4 0xE53FD775 GT PUSH2 0x71 JUMPI DUP1 PUSH4 0xE53FD775 EQ PUSH2 0x43B JUMPI DUP1 PUSH4 0xEAA8F7E3 EQ PUSH2 0x44E JUMPI DUP1 PUSH4 0xEB88E031 EQ PUSH2 0x461 JUMPI DUP1 PUSH4 0xED0B8476 EQ PUSH2 0x474 JUMPI PUSH1 0x0 DUP1 REVERT JUMPDEST DUP1 PUSH4 0xCA15C873 EQ PUSH2 0x3FA JUMPI DUP1 PUSH4 0xD391014B EQ PUSH2 0x40D JUMPI DUP1 PUSH4 0xD547741F EQ PUSH2 0x415 JUMPI DUP1 PUSH4 0xDB8AA538 EQ PUSH2 0x428 JUMPI PUSH1 0x0 DUP1 REVERT JUMPDEST DUP1 PUSH4 0xA8798FFC GT PUSH2 0xDE JUMPI DUP1 PUSH4 0xA8798FFC EQ PUSH2 0x3AE JUMPI DUP1 PUSH4 0xA9A48824 EQ PUSH2 0x3C1 JUMPI DUP1 PUSH4 0xB0D5B827 EQ PUSH2 0x3D4 JUMPI DUP1 PUSH4 0xC78BF346 EQ PUSH2 0x3E7 JUMPI PUSH1 0x0 DUP1 REVERT JUMPDEST DUP1 PUSH4 0x9010D07C EQ PUSH2 0x35D JUMPI DUP1 PUSH4 0x91D14854 EQ PUSH2 0x388 JUMPI DUP1 PUSH4 0xA8287861 EQ PUSH2 0x39B JUMPI PUSH1 0x0 DUP1 REVERT JUMPDEST DUP1 PUSH4 0x248A9CA3 GT PUSH2 0x17C JUMPI DUP1 PUSH4 0x404A8CCA GT PUSH2 0x14B JUMPI DUP1 PUSH4 0x404A8CCA EQ PUSH2 0x311 JUMPI DUP1 PUSH4 0x441C62A8 EQ PUSH2 0x324 JUMPI DUP1 PUSH4 0x5F242323 EQ PUSH2 0x337 JUMPI DUP1 PUSH4 0x6A930A95 EQ PUSH2 0x34A JUMPI PUSH1 0x0 DUP1 REVERT JUMPDEST DUP1 PUSH4 0x248A9CA3 EQ PUSH2 0x2B5 JUMPI DUP1 PUSH4 0x2A5BF470 EQ PUSH2 0x2D8 JUMPI DUP1 PUSH4 0x2F2FF15D EQ PUSH2 0x2EB JUMPI DUP1 PUSH4 0x36568ABE EQ PUSH2 0x2FE JUMPI PUSH1 0x0 DUP1 REVERT JUMPDEST DUP1 PUSH4 0x1093BAA9 GT PUSH2 0x1B8 JUMPI DUP1 PUSH4 0x1093BAA9 EQ PUSH2 0x24E JUMPI DUP1 PUSH4 0x161AA47E EQ PUSH2 0x261 JUMPI DUP1 PUSH4 0x1FD413F8 EQ PUSH2 0x282 JUMPI DUP1 PUSH4 0x231683AE EQ PUSH2 0x2A2 JUMPI PUSH1 0x0 DUP1 REVERT JUMPDEST DUP1 PUSH4 0x1D01264 EQ PUSH2 0x1DF JUMPI DUP1 PUSH4 0x1FFC9A7 EQ PUSH2 0x216 JUMPI DUP1 PUSH4 0x3ED957F EQ PUSH2 0x239 JUMPI JUMPDEST PUSH1 0x0 DUP1 REVERT JUMPDEST PUSH2 0x1F2 PUSH2 0x1ED CALLDATASIZE PUSH1 0x4 PUSH2 0x14DA JUMP JUMPDEST PUSH2 0x487 JUMP JUMPDEST PUSH1 0x40 DUP1 MLOAD DUP3 MLOAD ISZERO ISZERO DUP2 MSTORE PUSH1 0x20 SWAP3 DUP4 ADD MLOAD ISZERO ISZERO SWAP3 DUP2 ADD SWAP3 SWAP1 SWAP3 MSTORE ADD JUMPDEST PUSH1 0x40 MLOAD DUP1 SWAP2 SUB SWAP1 RETURN JUMPDEST PUSH2 0x229 PUSH2 0x224 CALLDATASIZE PUSH1 0x4 PUSH2 0x151D JUMP JUMPDEST PUSH2 0x5F4 JUMP JUMPDEST PUSH1 0x40 MLOAD SWAP1 ISZERO ISZERO DUP2 MSTORE PUSH1 0x20 ADD PUSH2 0x20D JUMP JUMPDEST PUSH2 0x24C PUSH2 0x247 CALLDATASIZE PUSH1 0x4 PUSH2 0x1547 JUMP JUMPDEST PUSH2 0x61F JUMP JUMPDEST STOP JUMPDEST PUSH2 0x24C PUSH2 0x25C CALLDATASIZE PUSH1 0x4 PUSH2 0x15BC JUMP JUMPDEST PUSH2 0x69C JUMP JUMPDEST PUSH2 0x274 PUSH2 0x26F CALLDATASIZE PUSH1 0x4 PUSH2 0x15D7 JUMP JUMPDEST PUSH2 0x720 JUMP JUMPDEST PUSH1 0x40 MLOAD SWAP1 DUP2 MSTORE PUSH1 0x20 ADD PUSH2 0x20D JUMP JUMPDEST PUSH2 0x295 PUSH2 0x290 CALLDATASIZE PUSH1 0x4 PUSH2 0x1620 JUMP JUMPDEST PUSH2 0x75A JUMP JUMPDEST PUSH1 0x40 MLOAD PUSH2 0x20D SWAP2 SWAP1 PUSH2 0x16E5 JUMP JUMPDEST PUSH2 0x24C PUSH2 0x2B0 CALLDATASIZE PUSH1 0x4 PUSH2 0x1742 JUMP JUMPDEST PUSH2 0x807 JUMP JUMPDEST PUSH2 0x274 PUSH2 0x2C3 CALLDATASIZE PUSH1 0x4 PUSH2 0x176C JUMP JUMPDEST PUSH1 0x0 SWAP1 DUP2 MSTORE PUSH1 0x20 DUP2 SWAP1 MSTORE PUSH1 0x40 SWAP1 KECCAK256 PUSH1 0x1 ADD SLOAD SWAP1 JUMP JUMPDEST PUSH2 0x24C PUSH2 0x2E6 CALLDATASIZE PUSH1 0x4 PUSH2 0x1785 JUMP JUMPDEST PUSH2 0x83F JUMP JUMPDEST PUSH2 0x24C PUSH2 0x2F9 CALLDATASIZE PUSH1 0x4 PUSH2 0x17C1 JUMP JUMPDEST PUSH2 0x898 JUMP JUMPDEST PUSH2 0x24C PUSH2 0x30C CALLDATASIZE PUSH1 0x4 PUSH2 0x17C1 JUMP JUMPDEST PUSH2 0x8BF JUMP JUMPDEST PUSH2 0x24C PUSH2 0x31F CALLDATASIZE PUSH1 0x4 PUSH2 0x1830 JUMP JUMPDEST PUSH2 0x8E1 JUMP JUMPDEST PUSH2 0x295 PUSH2 0x332 CALLDATASIZE PUSH1 0x4 PUSH2 0x1620 JUMP JUMPDEST PUSH2 0x965 JUMP JUMPDEST PUSH2 0x229 PUSH2 0x345 CALLDATASIZE PUSH1 0x4 PUSH2 0x15BC JUMP JUMPDEST PUSH2 0xA07 JUMP JUMPDEST PUSH2 0x24C PUSH2 0x358 CALLDATASIZE PUSH1 0x4 PUSH2 0x187B JUMP JUMPDEST PUSH2 0xA34 JUMP JUMPDEST PUSH2 0x370 PUSH2 0x36B CALLDATASIZE PUSH1 0x4 PUSH2 0x18BD JUMP JUMPDEST PUSH2 0xAFF JUMP JUMPDEST PUSH1 0x40 MLOAD PUSH1 0x1 PUSH1 0x1 PUSH1 0xA0 SHL SUB SWAP1 SWAP2 AND DUP2 MSTORE PUSH1 0x20 ADD PUSH2 0x20D JUMP JUMPDEST PUSH2 0x229 PUSH2 0x396 CALLDATASIZE PUSH1 0x4 PUSH2 0x17C1 JUMP JUMPDEST PUSH2 0xB1E JUMP JUMPDEST PUSH2 0x229 PUSH2 0x3A9 CALLDATASIZE PUSH1 0x4 PUSH2 0x15BC JUMP JUMPDEST PUSH2 0xB47 JUMP JUMPDEST PUSH2 0x24C PUSH2 0x3BC CALLDATASIZE PUSH1 0x4 PUSH2 0x1830 JUMP JUMPDEST PUSH2 0xC2F JUMP JUMPDEST PUSH2 0x24C PUSH2 0x3CF CALLDATASIZE PUSH1 0x4 PUSH2 0x15BC JUMP JUMPDEST PUSH2 0xCAC JUMP JUMPDEST PUSH2 0x24C PUSH2 0x3E2 CALLDATASIZE PUSH1 0x4 PUSH2 0x1742 JUMP JUMPDEST PUSH2 0xD2D JUMP JUMPDEST PUSH2 0x229 PUSH2 0x3F5 CALLDATASIZE PUSH1 0x4 PUSH2 0x15BC JUMP JUMPDEST PUSH2 0xD65 JUMP JUMPDEST PUSH2 0x274 PUSH2 0x408 CALLDATASIZE PUSH1 0x4 PUSH2 0x176C JUMP JUMPDEST PUSH2 0xD92 JUMP JUMPDEST PUSH2 0x274 PUSH1 0x0 DUP2 JUMP JUMPDEST PUSH2 0x24C PUSH2 0x423 CALLDATASIZE PUSH1 0x4 PUSH2 0x17C1 JUMP JUMPDEST PUSH2 0xDA9 JUMP JUMPDEST PUSH2 0x229 PUSH2 0x436 CALLDATASIZE PUSH1 0x4 PUSH2 0x15BC JUMP JUMPDEST PUSH2 0xDB3 JUMP JUMPDEST PUSH2 0x274 PUSH2 0x449 CALLDATASIZE PUSH1 0x4 PUSH2 0x15BC JUMP JUMPDEST PUSH2 0xDE0 JUMP JUMPDEST PUSH2 0x229 PUSH2 0x45C CALLDATASIZE PUSH1 0x4 PUSH2 0x15BC JUMP JUMPDEST PUSH2 0xE2F JUMP JUMPDEST PUSH2 0x24C PUSH2 0x46F CALLDATASIZE PUSH1 0x4 PUSH2 0x1830 JUMP JUMPDEST PUSH2 0xE80 JUMP JUMPDEST PUSH2 0x24C PUSH2 0x482 CALLDATASIZE PUSH1 0x4 PUSH2 0x18DF JUMP JUMPDEST PUSH2 0xEFD JUMP JUMPDEST PUSH1 0x40 DUP1 MLOAD DUP1 DUP3 ADD SWAP1 SWAP2 MSTORE PUSH1 0x0 DUP1 DUP3 MSTORE PUSH1 0x20 DUP3 ADD MSTORE PUSH1 0x0 PUSH2 0x4A7 DUP2 CALLER PUSH2 0x10E5 JUMP JUMPDEST PUSH2 0x4B0 DUP4 PUSH2 0xB47 JUMP JUMPDEST ISZERO ISZERO PUSH1 0x20 DUP4 ADD MSTORE PUSH2 0x4C0 DUP5 PUSH2 0xB47 JUMP JUMPDEST ISZERO ISZERO DUP3 MSTORE PUSH1 0x1 PUSH1 0x1 PUSH1 0xA0 SHL SUB DUP6 AND PUSH1 0x0 SWAP1 DUP2 MSTORE PUSH1 0x4 PUSH1 0x20 MSTORE PUSH1 0x40 DUP2 KECCAK256 SLOAD PUSH2 0x4E9 JUMPI PUSH2 0x12C PUSH2 0x503 JUMP JUMPDEST PUSH1 0x1 PUSH1 0x1 PUSH1 0xA0 SHL SUB DUP7 AND PUSH1 0x0 SWAP1 DUP2 MSTORE PUSH1 0x4 PUSH1 0x20 MSTORE PUSH1 0x40 SWAP1 KECCAK256 SLOAD JUMPDEST DUP4 MLOAD SWAP1 SWAP2 POP ISZERO DUP1 ISZERO PUSH2 0x52E JUMPI POP PUSH1 0x1 PUSH1 0x1 PUSH1 0xA0 SHL SUB DUP6 AND PUSH1 0x0 SWAP1 DUP2 MSTORE PUSH1 0x3 PUSH1 0x20 MSTORE PUSH1 0x40 SWAP1 KECCAK256 SLOAD PUSH1 0xFF AND ISZERO JUMPDEST DUP1 ISZERO PUSH2 0x58D JUMPI POP PUSH1 0x1 PUSH1 0x1 PUSH1 0xA0 SHL SUB DUP6 AND PUSH1 0x0 SWAP1 DUP2 MSTORE PUSH1 0x2 PUSH1 0x20 MSTORE PUSH1 0x40 SWAP1 KECCAK256 SLOAD PUSH1 0xFF AND DUP1 PUSH2 0x58D JUMPI POP PUSH1 0x1 PUSH1 0x1 PUSH1 0xA0 SHL SUB DUP1 DUP8 AND PUSH1 0x0 SWAP1 DUP2 MSTORE PUSH1 0x5 PUSH1 0x20 SWAP1 DUP2 MSTORE PUSH1 0x40 DUP1 DUP4 KECCAK256 SWAP4 DUP10 AND DUP4 MSTORE SWAP3 SWAP1 MSTORE KECCAK256 SLOAD TIMESTAMP SWAP1 PUSH2 0x58A SWAP1 DUP4 SWAP1 PUSH2 0x191F JUMP JUMPDEST LT ISZERO JUMPDEST ISZERO PUSH2 0x5EB JUMPI PUSH1 0x40 MLOAD PUSH3 0x461BCD PUSH1 0xE5 SHL DUP2 MSTORE PUSH1 0x20 PUSH1 0x4 DUP3 ADD MSTORE PUSH1 0x24 DUP1 DUP3 ADD MSTORE PUSH32 0x44533A205472616E7366657273206172652074656D706F726172792064697361 PUSH1 0x44 DUP3 ADD MSTORE PUSH4 0x189B1959 PUSH1 0xE2 SHL PUSH1 0x64 DUP3 ADD MSTORE PUSH1 0x84 ADD JUMPDEST PUSH1 0x40 MLOAD DUP1 SWAP2 SUB SWAP1 REVERT JUMPDEST POP POP SWAP4 SWAP3 POP POP POP JUMP JUMPDEST PUSH1 0x0 PUSH1 0x1 PUSH1 0x1 PUSH1 0xE0 SHL SUB NOT DUP3 AND PUSH4 0x5A05180F PUSH1 0xE0 SHL EQ DUP1 PUSH2 0x619 JUMPI POP PUSH2 0x619 DUP3 PUSH2 0x1149 JUMP JUMPDEST SWAP3 SWAP2 POP POP JUMP JUMPDEST PUSH1 0x0 PUSH2 0x62B DUP2 CALLER PUSH2 0x10E5 JUMP JUMPDEST PUSH1 0x0 JUMPDEST DUP3 DUP2 LT ISZERO PUSH2 0x696 JUMPI PUSH2 0x684 DUP5 DUP5 DUP4 DUP2 DUP2 LT PUSH2 0x64B JUMPI PUSH2 0x64B PUSH2 0x1937 JUMP JUMPDEST SWAP1 POP PUSH1 0x40 MUL ADD PUSH1 0x0 ADD CALLDATALOAD DUP6 DUP6 DUP5 DUP2 DUP2 LT PUSH2 0x667 JUMPI PUSH2 0x667 PUSH2 0x1937 JUMP JUMPDEST SWAP1 POP PUSH1 0x40 MUL ADD PUSH1 0x20 ADD PUSH1 0x20 DUP2 ADD SWAP1 PUSH2 0x67F SWAP2 SWAP1 PUSH2 0x15BC JUMP JUMPDEST PUSH2 0x117E JUMP JUMPDEST DUP1 PUSH2 0x68E DUP2 PUSH2 0x194D JUMP JUMPDEST SWAP2 POP POP PUSH2 0x62E JUMP JUMPDEST POP POP POP POP JUMP JUMPDEST PUSH1 0x0 PUSH2 0x6A8 DUP2 CALLER PUSH2 0x10E5 JUMP JUMPDEST PUSH1 0x1 PUSH1 0x1 PUSH1 0xA0 SHL SUB DUP3 AND PUSH1 0x0 SWAP1 DUP2 MSTORE PUSH1 0x2 PUSH1 0x20 MSTORE PUSH1 0x40 SWAP1 KECCAK256 SLOAD PUSH1 0xFF AND ISZERO PUSH2 0x6FB JUMPI PUSH1 0x40 MLOAD PUSH3 0x461BCD PUSH1 0xE5 SHL DUP2 MSTORE PUSH1 0x20 PUSH1 0x4 DUP3 ADD MSTORE PUSH1 0x7 PUSH1 0x24 DUP3 ADD MSTORE PUSH7 0x1114CE88189BDD PUSH1 0xCA SHL PUSH1 0x44 DUP3 ADD MSTORE PUSH1 0x64 ADD PUSH2 0x5E2 JUMP JUMPDEST POP PUSH1 0x1 PUSH1 0x1 PUSH1 0xA0 SHL SUB AND PUSH1 0x0 SWAP1 DUP2 MSTORE PUSH1 0x2 PUSH1 0x20 MSTORE PUSH1 0x40 SWAP1 KECCAK256 DUP1 SLOAD PUSH1 0xFF NOT AND PUSH1 0x1 OR SWAP1 SSTORE JUMP JUMPDEST PUSH1 0x0 DUP1 PUSH2 0x72D DUP2 CALLER PUSH2 0x10E5 JUMP JUMPDEST POP POP PUSH1 0x1 PUSH1 0x1 PUSH1 0xA0 SHL SUB SWAP2 DUP3 AND PUSH1 0x0 SWAP1 DUP2 MSTORE PUSH1 0x5 PUSH1 0x20 SWAP1 DUP2 MSTORE PUSH1 0x40 DUP1 DUP4 KECCAK256 SWAP4 SWAP1 SWAP5 AND DUP3 MSTORE SWAP2 SWAP1 SWAP2 MSTORE KECCAK256 SLOAD SWAP1 JUMP JUMPDEST PUSH1 0x60 PUSH1 0x0 PUSH2 0x768 DUP2 CALLER PUSH2 0x10E5 JUMP JUMPDEST PUSH1 0x0 JUMPDEST DUP4 MLOAD DUP2 LT ISZERO PUSH2 0x7FC JUMPI PUSH1 0x3 PUSH1 0x0 DUP6 DUP4 DUP2 MLOAD DUP2 LT PUSH2 0x78A JUMPI PUSH2 0x78A PUSH2 0x1937 JUMP JUMPDEST PUSH1 0x20 SWAP1 DUP2 MUL SWAP2 SWAP1 SWAP2 ADD DUP2 ADD MLOAD PUSH1 0x1 PUSH1 0x1 PUSH1 0xA0 SHL SUB AND DUP3 MSTORE DUP2 ADD SWAP2 SWAP1 SWAP2 MSTORE PUSH1 0x40 ADD PUSH1 0x0 KECCAK256 SLOAD PUSH1 0xFF AND PUSH2 0x7EA JUMPI PUSH1 0x0 DUP5 DUP3 DUP2 MLOAD DUP2 LT PUSH2 0x7C9 JUMPI PUSH2 0x7C9 PUSH2 0x1937 JUMP JUMPDEST PUSH1 0x20 MUL PUSH1 0x20 ADD ADD SWAP1 PUSH1 0x1 PUSH1 0x1 PUSH1 0xA0 SHL SUB AND SWAP1 DUP2 PUSH1 0x1 PUSH1 0x1 PUSH1 0xA0 SHL SUB AND DUP2 MSTORE POP POP JUMPDEST DUP1 PUSH2 0x7F4 DUP2 PUSH2 0x194D JUMP JUMPDEST SWAP2 POP POP PUSH2 0x76B JUMP JUMPDEST POP DUP3 SWAP2 POP JUMPDEST POP SWAP2 SWAP1 POP JUMP JUMPDEST PUSH1 0x0 PUSH2 0x813 DUP2 CALLER PUSH2 0x10E5 JUMP JUMPDEST POP PUSH1 0x1 PUSH1 0x1 PUSH1 0xA0 SHL SUB SWAP2 SWAP1 SWAP2 AND PUSH1 0x0 SWAP1 DUP2 MSTORE PUSH1 0x3 PUSH1 0x20 MSTORE PUSH1 0x40 SWAP1 KECCAK256 DUP1 SLOAD PUSH1 0xFF NOT AND SWAP2 ISZERO ISZERO SWAP2 SWAP1 SWAP2 OR SWAP1 SSTORE JUMP JUMPDEST PUSH1 0x0 PUSH2 0x84B DUP2 CALLER PUSH2 0x10E5 JUMP JUMPDEST PUSH1 0x1 PUSH1 0x1 PUSH1 0xA0 SHL SUB DUP4 AND PUSH1 0x0 SWAP1 DUP2 MSTORE PUSH1 0x3 PUSH1 0x20 MSTORE PUSH1 0x40 SWAP1 KECCAK256 SLOAD PUSH1 0xFF AND PUSH2 0x696 JUMPI POP PUSH1 0x1 PUSH1 0x1 PUSH1 0xA0 SHL SUB SWAP3 DUP4 AND PUSH1 0x0 SWAP1 DUP2 MSTORE PUSH1 0x5 PUSH1 0x20 SWAP1 DUP2 MSTORE PUSH1 0x40 DUP1 DUP4 KECCAK256 SWAP5 SWAP1 SWAP6 AND DUP3 MSTORE SWAP3 SWAP1 SWAP3 MSTORE SWAP2 SWAP1 KECCAK256 SSTORE JUMP JUMPDEST PUSH2 0x8A2 DUP3 DUP3 PUSH2 0x1188 JUMP JUMPDEST PUSH1 0x0 DUP3 DUP2 MSTORE PUSH1 0x1 PUSH1 0x20 MSTORE PUSH1 0x40 SWAP1 KECCAK256 PUSH2 0x8BA SWAP1 DUP3 PUSH2 0xF34 JUMP JUMPDEST POP POP POP JUMP JUMPDEST PUSH2 0x8C9 DUP3 DUP3 PUSH2 0x119E JUMP JUMPDEST PUSH1 0x0 DUP3 DUP2 MSTORE PUSH1 0x1 PUSH1 0x20 MSTORE PUSH1 0x40 SWAP1 KECCAK256 PUSH2 0x8BA SWAP1 DUP3 PUSH2 0x1218 JUMP JUMPDEST PUSH1 0x0 PUSH2 0x8ED DUP2 CALLER PUSH2 0x10E5 JUMP JUMPDEST PUSH1 0x0 JUMPDEST DUP4 DUP2 LT ISZERO PUSH2 0x95E JUMPI DUP3 PUSH1 0x2 PUSH1 0x0 DUP8 DUP8 DUP6 DUP2 DUP2 LT PUSH2 0x90F JUMPI PUSH2 0x90F PUSH2 0x1937 JUMP JUMPDEST SWAP1 POP PUSH1 0x20 MUL ADD PUSH1 0x20 DUP2 ADD SWAP1 PUSH2 0x924 SWAP2 SWAP1 PUSH2 0x15BC JUMP JUMPDEST PUSH1 0x1 PUSH1 0x1 PUSH1 0xA0 SHL SUB AND DUP2 MSTORE PUSH1 0x20 DUP2 ADD SWAP2 SWAP1 SWAP2 MSTORE PUSH1 0x40 ADD PUSH1 0x0 KECCAK256 DUP1 SLOAD PUSH1 0xFF NOT AND SWAP2 ISZERO ISZERO SWAP2 SWAP1 SWAP2 OR SWAP1 SSTORE DUP1 PUSH2 0x956 DUP2 PUSH2 0x194D JUMP JUMPDEST SWAP2 POP POP PUSH2 0x8F0 JUMP JUMPDEST POP POP POP POP POP JUMP JUMPDEST PUSH1 0x60 PUSH1 0x0 PUSH2 0x973 DUP2 CALLER PUSH2 0x10E5 JUMP JUMPDEST PUSH1 0x0 JUMPDEST DUP4 MLOAD DUP2 LT ISZERO PUSH2 0x7FC JUMPI PUSH1 0x2 PUSH1 0x0 DUP6 DUP4 DUP2 MLOAD DUP2 LT PUSH2 0x995 JUMPI PUSH2 0x995 PUSH2 0x1937 JUMP JUMPDEST PUSH1 0x20 SWAP1 DUP2 MUL SWAP2 SWAP1 SWAP2 ADD DUP2 ADD MLOAD PUSH1 0x1 PUSH1 0x1 PUSH1 0xA0 SHL SUB AND DUP3 MSTORE DUP2 ADD SWAP2 SWAP1 SWAP2 MSTORE PUSH1 0x40 ADD PUSH1 0x0 KECCAK256 SLOAD PUSH1 0xFF AND PUSH2 0x9F5 JUMPI PUSH1 0x0 DUP5 DUP3 DUP2 MLOAD DUP2 LT PUSH2 0x9D4 JUMPI PUSH2 0x9D4 PUSH2 0x1937 JUMP JUMPDEST PUSH1 0x20 MUL PUSH1 0x20 ADD ADD SWAP1 PUSH1 0x1 PUSH1 0x1 PUSH1 0xA0 SHL SUB AND SWAP1 DUP2 PUSH1 0x1 PUSH1 0x1 PUSH1 0xA0 SHL SUB AND DUP2 MSTORE POP POP JUMPDEST DUP1 PUSH2 0x9FF DUP2 PUSH2 0x194D JUMP JUMPDEST SWAP2 POP POP PUSH2 0x976 JUMP JUMPDEST PUSH1 0x0 DUP1 PUSH2 0xA14 DUP2 CALLER PUSH2 0x10E5 JUMP JUMPDEST POP POP PUSH1 0x1 PUSH1 0x1 PUSH1 0xA0 SHL SUB AND PUSH1 0x0 SWAP1 DUP2 MSTORE PUSH1 0x2 PUSH1 0x20 MSTORE PUSH1 0x40 SWAP1 KECCAK256 SLOAD PUSH1 0xFF AND SWAP1 JUMP JUMPDEST PUSH1 0x0 PUSH2 0xA40 DUP2 CALLER PUSH2 0x10E5 JUMP JUMPDEST PUSH1 0x0 JUMPDEST DUP3 DUP2 LT ISZERO PUSH2 0x696 JUMPI PUSH1 0x2 PUSH1 0x0 DUP6 DUP6 DUP5 DUP2 DUP2 LT PUSH2 0xA61 JUMPI PUSH2 0xA61 PUSH2 0x1937 JUMP JUMPDEST SWAP1 POP PUSH1 0x20 MUL ADD PUSH1 0x20 DUP2 ADD SWAP1 PUSH2 0xA76 SWAP2 SWAP1 PUSH2 0x15BC JUMP JUMPDEST PUSH1 0x1 PUSH1 0x1 PUSH1 0xA0 SHL SUB AND DUP2 MSTORE PUSH1 0x20 DUP2 ADD SWAP2 SWAP1 SWAP2 MSTORE PUSH1 0x40 ADD PUSH1 0x0 KECCAK256 SLOAD PUSH1 0xFF AND PUSH2 0xAED JUMPI PUSH1 0x1 PUSH1 0x2 PUSH1 0x0 DUP7 DUP7 DUP6 DUP2 DUP2 LT PUSH2 0xAAF JUMPI PUSH2 0xAAF PUSH2 0x1937 JUMP JUMPDEST SWAP1 POP PUSH1 0x20 MUL ADD PUSH1 0x20 DUP2 ADD SWAP1 PUSH2 0xAC4 SWAP2 SWAP1 PUSH2 0x15BC JUMP JUMPDEST PUSH1 0x1 PUSH1 0x1 PUSH1 0xA0 SHL SUB AND DUP2 MSTORE PUSH1 0x20 DUP2 ADD SWAP2 SWAP1 SWAP2 MSTORE PUSH1 0x40 ADD PUSH1 0x0 KECCAK256 DUP1 SLOAD PUSH1 0xFF NOT AND SWAP2 ISZERO ISZERO SWAP2 SWAP1 SWAP2 OR SWAP1 SSTORE JUMPDEST DUP1 PUSH2 0xAF7 DUP2 PUSH2 0x194D JUMP JUMPDEST SWAP2 POP POP PUSH2 0xA43 JUMP JUMPDEST PUSH1 0x0 DUP3 DUP2 MSTORE PUSH1 0x1 PUSH1 0x20 MSTORE PUSH1 0x40 DUP2 KECCAK256 PUSH2 0xB17 SWAP1 DUP4 PUSH2 0x122D JUMP JUMPDEST SWAP4 SWAP3 POP POP POP JUMP JUMPDEST PUSH1 0x0 SWAP2 DUP3 MSTORE PUSH1 0x20 DUP3 DUP2 MSTORE PUSH1 0x40 DUP1 DUP5 KECCAK256 PUSH1 0x1 PUSH1 0x1 PUSH1 0xA0 SHL SUB SWAP4 SWAP1 SWAP4 AND DUP5 MSTORE SWAP2 SWAP1 MSTORE SWAP1 KECCAK256 SLOAD PUSH1 0xFF AND SWAP1 JUMP JUMPDEST PUSH1 0x0 DUP1 PUSH2 0xB54 DUP2 CALLER PUSH2 0x10E5 JUMP JUMPDEST PUSH1 0x1 PUSH1 0x1 PUSH1 0xA0 SHL SUB DUP4 AND PUSH1 0x0 SWAP1 DUP2 MSTORE PUSH1 0x6 PUSH1 0x20 MSTORE PUSH1 0x40 SWAP1 KECCAK256 SLOAD PUSH1 0xFF AND SWAP2 POP DUP2 PUSH2 0xC00 JUMPI PUSH1 0x40 DUP1 MLOAD PUSH1 0x4 DUP2 MSTORE PUSH1 0x24 DUP2 ADD DUP3 MSTORE PUSH1 0x20 DUP2 ADD DUP1 MLOAD PUSH1 0x1 PUSH1 0x1 PUSH1 0xE0 SHL SUB AND PUSH4 0xD21220A7 PUSH1 0xE0 SHL OR SWAP1 MSTORE SWAP1 MLOAD PUSH1 0x1 PUSH1 0x1 PUSH1 0xA0 SHL SUB DUP6 AND SWAP1 PUSH2 0xBB7 SWAP1 DUP4 SWAP1 PUSH2 0x1994 JUMP JUMPDEST PUSH1 0x0 PUSH1 0x40 MLOAD DUP1 DUP4 SUB DUP2 DUP6 GAS STATICCALL SWAP2 POP POP RETURNDATASIZE DUP1 PUSH1 0x0 DUP2 EQ PUSH2 0xBF2 JUMPI PUSH1 0x40 MLOAD SWAP2 POP PUSH1 0x1F NOT PUSH1 0x3F RETURNDATASIZE ADD AND DUP3 ADD PUSH1 0x40 MSTORE RETURNDATASIZE DUP3 MSTORE RETURNDATASIZE PUSH1 0x0 PUSH1 0x20 DUP5 ADD RETURNDATACOPY PUSH2 0xBF7 JUMP JUMPDEST PUSH1 0x60 SWAP2 POP JUMPDEST POP MLOAD ISZERO ISZERO SWAP4 POP POP POP JUMPDEST DUP2 ISZERO PUSH2 0x801 JUMPI PUSH1 0x1 PUSH1 0x1 PUSH1 0xA0 SHL SUB DUP4 AND PUSH1 0x0 SWAP1 DUP2 MSTORE PUSH1 0x6 PUSH1 0x20 MSTORE PUSH1 0x40 SWAP1 KECCAK256 DUP1 SLOAD PUSH1 0xFF NOT AND PUSH1 0x1 OR SWAP1 SSTORE POP SWAP2 SWAP1 POP JUMP JUMPDEST PUSH1 0x0 PUSH2 0xC3B DUP2 CALLER PUSH2 0x10E5 JUMP JUMPDEST PUSH1 0x0 JUMPDEST DUP4 DUP2 LT ISZERO PUSH2 0x95E JUMPI DUP3 PUSH1 0x3 PUSH1 0x0 DUP8 DUP8 DUP6 DUP2 DUP2 LT PUSH2 0xC5D JUMPI PUSH2 0xC5D PUSH2 0x1937 JUMP JUMPDEST SWAP1 POP PUSH1 0x20 MUL ADD PUSH1 0x20 DUP2 ADD SWAP1 PUSH2 0xC72 SWAP2 SWAP1 PUSH2 0x15BC JUMP JUMPDEST PUSH1 0x1 PUSH1 0x1 PUSH1 0xA0 SHL SUB AND DUP2 MSTORE PUSH1 0x20 DUP2 ADD SWAP2 SWAP1 SWAP2 MSTORE PUSH1 0x40 ADD PUSH1 0x0 KECCAK256 DUP1 SLOAD PUSH1 0xFF NOT AND SWAP2 ISZERO ISZERO SWAP2 SWAP1 SWAP2 OR SWAP1 SSTORE DUP1 PUSH2 0xCA4 DUP2 PUSH2 0x194D JUMP JUMPDEST SWAP2 POP POP PUSH2 0xC3E JUMP JUMPDEST PUSH1 0x0 PUSH2 0xCB8 DUP2 CALLER PUSH2 0x10E5 JUMP JUMPDEST PUSH1 0x1 PUSH1 0x1 PUSH1 0xA0 SHL SUB DUP3 AND PUSH1 0x0 SWAP1 DUP2 MSTORE PUSH1 0x2 PUSH1 0x20 MSTORE PUSH1 0x40 SWAP1 KECCAK256 SLOAD PUSH1 0xFF AND PUSH2 0xD0B JUMPI PUSH1 0x40 MLOAD PUSH3 0x461BCD PUSH1 0xE5 SHL DUP2 MSTORE PUSH1 0x20 PUSH1 0x4 DUP3 ADD MSTORE PUSH1 0x8 PUSH1 0x24 DUP3 ADD MSTORE PUSH8 0x1114CE8808589BDD PUSH1 0xC2 SHL PUSH1 0x44 DUP3 ADD MSTORE PUSH1 0x64 ADD PUSH2 0x5E2 JUMP JUMPDEST POP PUSH1 0x1 PUSH1 0x1 PUSH1 0xA0 SHL SUB AND PUSH1 0x0 SWAP1 DUP2 MSTORE PUSH1 0x2 PUSH1 0x20 MSTORE PUSH1 0x40 SWAP1 KECCAK256 DUP1 SLOAD PUSH1 0xFF NOT AND SWAP1 SSTORE JUMP JUMPDEST PUSH1 0x0 PUSH2 0xD39 DUP2 CALLER PUSH2 0x10E5 JUMP JUMPDEST POP PUSH1 0x1 PUSH1 0x1 PUSH1 0xA0 SHL SUB SWAP2 SWAP1 SWAP2 AND PUSH1 0x0 SWAP1 DUP2 MSTORE PUSH1 0x6 PUSH1 0x20 MSTORE PUSH1 0x40 SWAP1 KECCAK256 DUP1 SLOAD PUSH1 0xFF NOT AND SWAP2 ISZERO ISZERO SWAP2 SWAP1 SWAP2 OR SWAP1 SSTORE JUMP JUMPDEST PUSH1 0x0 DUP1 PUSH2 0xD72 DUP2 CALLER PUSH2 0x10E5 JUMP JUMPDEST POP POP PUSH1 0x1 PUSH1 0x1 PUSH1 0xA0 SHL SUB AND PUSH1 0x0 SWAP1 DUP2 MSTORE PUSH1 0x6 PUSH1 0x20 MSTORE PUSH1 0x40 SWAP1 KECCAK256 SLOAD PUSH1 0xFF AND SWAP1 JUMP JUMPDEST PUSH1 0x0 DUP2 DUP2 MSTORE PUSH1 0x1 PUSH1 0x20 MSTORE PUSH1 0x40 DUP2 KECCAK256 PUSH2 0x619 SWAP1 PUSH2 0x1239 JUMP JUMPDEST PUSH2 0x8C9 DUP3 DUP3 PUSH2 0x1243 JUMP JUMPDEST PUSH1 0x0 DUP1 PUSH2 0xDC0 DUP2 CALLER PUSH2 0x10E5 JUMP JUMPDEST POP POP PUSH1 0x1 PUSH1 0x1 PUSH1 0xA0 SHL SUB AND PUSH1 0x0 SWAP1 DUP2 MSTORE PUSH1 0x3 PUSH1 0x20 MSTORE PUSH1 0x40 SWAP1 KECCAK256 SLOAD PUSH1 0xFF AND SWAP1 JUMP JUMPDEST PUSH1 0x0 DUP1 PUSH2 0xDED DUP2 CALLER PUSH2 0x10E5 JUMP JUMPDEST PUSH1 0x1 PUSH1 0x1 PUSH1 0xA0 SHL SUB DUP4 AND PUSH1 0x0 SWAP1 DUP2 MSTORE PUSH1 0x4 PUSH1 0x20 MSTORE PUSH1 0x40 SWAP1 KECCAK256 SLOAD PUSH2 0xE12 JUMPI PUSH2 0x12C PUSH2 0xB17 JUMP JUMPDEST POP POP PUSH1 0x1 PUSH1 0x1 PUSH1 0xA0 SHL SUB AND PUSH1 0x0 SWAP1 DUP2 MSTORE PUSH1 0x4 PUSH1 0x20 MSTORE PUSH1 0x40 SWAP1 KECCAK256 SLOAD SWAP1 JUMP JUMPDEST PUSH1 0x0 DUP1 PUSH2 0xE3C DUP2 CALLER PUSH2 0x10E5 JUMP JUMPDEST PUSH1 0x1 PUSH1 0x1 PUSH1 0xA0 SHL SUB DUP4 AND PUSH1 0x0 SWAP1 DUP2 MSTORE PUSH1 0x2 PUSH1 0x20 MSTORE PUSH1 0x40 SWAP1 KECCAK256 SLOAD PUSH1 0xFF AND DUP1 ISZERO PUSH2 0xB17 JUMPI POP POP POP PUSH1 0x1 PUSH1 0x1 PUSH1 0xA0 SHL SUB AND PUSH1 0x0 SWAP1 DUP2 MSTORE PUSH1 0x3 PUSH1 0x20 MSTORE PUSH1 0x40 SWAP1 KECCAK256 SLOAD PUSH1 0xFF AND ISZERO SWAP1 JUMP JUMPDEST PUSH1 0x0 PUSH2 0xE8C DUP2 CALLER PUSH2 0x10E5 JUMP JUMPDEST PUSH1 0x0 JUMPDEST DUP4 DUP2 LT ISZERO PUSH2 0x95E JUMPI DUP3 PUSH1 0x6 PUSH1 0x0 DUP8 DUP8 DUP6 DUP2 DUP2 LT PUSH2 0xEAE JUMPI PUSH2 0xEAE PUSH2 0x1937 JUMP JUMPDEST SWAP1 POP PUSH1 0x20 MUL ADD PUSH1 0x20 DUP2 ADD SWAP1 PUSH2 0xEC3 SWAP2 SWAP1 PUSH2 0x15BC JUMP JUMPDEST PUSH1 0x1 PUSH1 0x1 PUSH1 0xA0 SHL SUB AND DUP2 MSTORE PUSH1 0x20 DUP2 ADD SWAP2 SWAP1 SWAP2 MSTORE PUSH1 0x40 ADD PUSH1 0x0 KECCAK256 DUP1 SLOAD PUSH1 0xFF NOT AND SWAP2 ISZERO ISZERO SWAP2 SWAP1 SWAP2 OR SWAP1 SSTORE DUP1 PUSH2 0xEF5 DUP2 PUSH2 0x194D JUMP JUMPDEST SWAP2 POP POP PUSH2 0xE8F JUMP JUMPDEST PUSH1 0x0 PUSH2 0xF09 DUP2 CALLER PUSH2 0x10E5 JUMP JUMPDEST POP PUSH1 0x1 PUSH1 0x1 PUSH1 0xA0 SHL SUB SWAP1 SWAP2 AND PUSH1 0x0 SWAP1 DUP2 MSTORE PUSH1 0x4 PUSH1 0x20 MSTORE PUSH1 0x40 SWAP1 KECCAK256 SSTORE JUMP JUMPDEST PUSH2 0xF30 DUP3 DUP3 PUSH2 0x1269 JUMP JUMPDEST POP POP JUMP JUMPDEST PUSH1 0x0 PUSH2 0xB17 DUP4 PUSH1 0x1 PUSH1 0x1 PUSH1 0xA0 SHL SUB DUP5 AND PUSH2 0x12ED JUMP JUMPDEST PUSH1 0x60 PUSH1 0x0 PUSH2 0xF58 DUP4 PUSH1 0x2 PUSH2 0x19B0 JUMP JUMPDEST PUSH2 0xF63 SWAP1 PUSH1 0x2 PUSH2 0x191F JUMP JUMPDEST PUSH8 0xFFFFFFFFFFFFFFFF DUP2 GT ISZERO PUSH2 0xF7B JUMPI PUSH2 0xF7B PUSH2 0x160A JUMP JUMPDEST PUSH1 0x40 MLOAD SWAP1 DUP1 DUP3 MSTORE DUP1 PUSH1 0x1F ADD PUSH1 0x1F NOT AND PUSH1 0x20 ADD DUP3 ADD PUSH1 0x40 MSTORE DUP1 ISZERO PUSH2 0xFA5 JUMPI PUSH1 0x20 DUP3 ADD DUP2 DUP1 CALLDATASIZE DUP4 CALLDATACOPY ADD SWAP1 POP JUMPDEST POP SWAP1 POP PUSH1 0x3 PUSH1 0xFC SHL DUP2 PUSH1 0x0 DUP2 MLOAD DUP2 LT PUSH2 0xFC0 JUMPI PUSH2 0xFC0 PUSH2 0x1937 JUMP JUMPDEST PUSH1 0x20 ADD ADD SWAP1 PUSH1 0x1 PUSH1 0x1 PUSH1 0xF8 SHL SUB NOT AND SWAP1 DUP2 PUSH1 0x0 BYTE SWAP1 MSTORE8 POP PUSH1 0xF PUSH1 0xFB SHL DUP2 PUSH1 0x1 DUP2 MLOAD DUP2 LT PUSH2 0xFEF JUMPI PUSH2 0xFEF PUSH2 0x1937 JUMP JUMPDEST PUSH1 0x20 ADD ADD SWAP1 PUSH1 0x1 PUSH1 0x1 PUSH1 0xF8 SHL SUB NOT AND SWAP1 DUP2 PUSH1 0x0 BYTE SWAP1 MSTORE8 POP PUSH1 0x0 PUSH2 0x1013 DUP5 PUSH1 0x2 PUSH2 0x19B0 JUMP JUMPDEST PUSH2 0x101E SWAP1 PUSH1 0x1 PUSH2 0x191F JUMP JUMPDEST SWAP1 POP JUMPDEST PUSH1 0x1 DUP2 GT ISZERO PUSH2 0x1096 JUMPI PUSH16 0x181899199A1A9B1B9C1CB0B131B232B3 PUSH1 0x81 SHL DUP6 PUSH1 0xF AND PUSH1 0x10 DUP2 LT PUSH2 0x1052 JUMPI PUSH2 0x1052 PUSH2 0x1937 JUMP JUMPDEST BYTE PUSH1 0xF8 SHL DUP3 DUP3 DUP2 MLOAD DUP2 LT PUSH2 0x1068 JUMPI PUSH2 0x1068 PUSH2 0x1937 JUMP JUMPDEST PUSH1 0x20 ADD ADD SWAP1 PUSH1 0x1 PUSH1 0x1 PUSH1 0xF8 SHL SUB NOT AND SWAP1 DUP2 PUSH1 0x0 BYTE SWAP1 MSTORE8 POP PUSH1 0x4 SWAP5 SWAP1 SWAP5 SHR SWAP4 PUSH2 0x108F DUP2 PUSH2 0x19CF JUMP JUMPDEST SWAP1 POP PUSH2 0x1021 JUMP JUMPDEST POP DUP4 ISZERO PUSH2 0xB17 JUMPI PUSH1 0x40 MLOAD PUSH3 0x461BCD PUSH1 0xE5 SHL DUP2 MSTORE PUSH1 0x20 PUSH1 0x4 DUP3 ADD DUP2 SWAP1 MSTORE PUSH1 0x24 DUP3 ADD MSTORE PUSH32 0x537472696E67733A20686578206C656E67746820696E73756666696369656E74 PUSH1 0x44 DUP3 ADD MSTORE PUSH1 0x64 ADD PUSH2 0x5E2 JUMP JUMPDEST PUSH2 0x10EF DUP3 DUP3 PUSH2 0xB1E JUMP JUMPDEST PUSH2 0xF30 JUMPI PUSH2 0x1107 DUP2 PUSH1 0x1 PUSH1 0x1 PUSH1 0xA0 SHL SUB AND PUSH1 0x14 PUSH2 0xF49 JUMP JUMPDEST PUSH2 0x1112 DUP4 PUSH1 0x20 PUSH2 0xF49 JUMP JUMPDEST PUSH1 0x40 MLOAD PUSH1 0x20 ADD PUSH2 0x1123 SWAP3 SWAP2 SWAP1 PUSH2 0x19E6 JUMP JUMPDEST PUSH1 0x40 DUP1 MLOAD PUSH1 0x1F NOT DUP2 DUP5 SUB ADD DUP2 MSTORE SWAP1 DUP3 SWAP1 MSTORE PUSH3 0x461BCD PUSH1 0xE5 SHL DUP3 MSTORE PUSH2 0x5E2 SWAP2 PUSH1 0x4 ADD PUSH2 0x1A5B JUMP JUMPDEST PUSH1 0x0 PUSH1 0x1 PUSH1 0x1 PUSH1 0xE0 SHL SUB NOT DUP3 AND PUSH4 0x7965DB0B PUSH1 0xE0 SHL EQ DUP1 PUSH2 0x619 JUMPI POP PUSH4 0x1FFC9A7 PUSH1 0xE0 SHL PUSH1 0x1 PUSH1 0x1 PUSH1 0xE0 SHL SUB NOT DUP4 AND EQ PUSH2 0x619 JUMP JUMPDEST PUSH2 0x8A2 DUP3 DUP3 PUSH2 0xF26 JUMP JUMPDEST PUSH1 0x0 PUSH2 0x1194 DUP2 CALLER PUSH2 0x10E5 JUMP JUMPDEST PUSH2 0x8BA DUP4 DUP4 PUSH2 0x1269 JUMP JUMPDEST PUSH1 0x1 PUSH1 0x1 PUSH1 0xA0 SHL SUB DUP2 AND CALLER EQ PUSH2 0x120E JUMPI PUSH1 0x40 MLOAD PUSH3 0x461BCD PUSH1 0xE5 SHL DUP2 MSTORE PUSH1 0x20 PUSH1 0x4 DUP3 ADD MSTORE PUSH1 0x2F PUSH1 0x24 DUP3 ADD MSTORE PUSH32 0x416363657373436F6E74726F6C3A2063616E206F6E6C792072656E6F756E6365 PUSH1 0x44 DUP3 ADD MSTORE PUSH15 0x103937B632B9903337B91039B2B633 PUSH1 0x89 SHL PUSH1 0x64 DUP3 ADD MSTORE PUSH1 0x84 ADD PUSH2 0x5E2 JUMP JUMPDEST PUSH2 0xF30 DUP3 DUP3 PUSH2 0x133C JUMP JUMPDEST PUSH1 0x0 PUSH2 0xB17 DUP4 PUSH1 0x1 PUSH1 0x1 PUSH1 0xA0 SHL SUB DUP5 AND PUSH2 0x13A1 JUMP JUMPDEST PUSH1 0x0 PUSH2 0xB17 DUP4 DUP4 PUSH2 0x1494 JUMP JUMPDEST PUSH1 0x0 PUSH2 0x619 DUP3 SLOAD SWAP1 JUMP JUMPDEST PUSH1 0x0 DUP3 DUP2 MSTORE PUSH1 0x20 DUP2 SWAP1 MSTORE PUSH1 0x40 SWAP1 KECCAK256 PUSH1 0x1 ADD SLOAD PUSH2 0x125F DUP2 CALLER PUSH2 0x10E5 JUMP JUMPDEST PUSH2 0x8BA DUP4 DUP4 PUSH2 0x133C JUMP JUMPDEST PUSH2 0x1273 DUP3 DUP3 PUSH2 0xB1E JUMP JUMPDEST PUSH2 0xF30 JUMPI PUSH1 0x0 DUP3 DUP2 MSTORE PUSH1 0x20 DUP2 DUP2 MSTORE PUSH1 0x40 DUP1 DUP4 KECCAK256 PUSH1 0x1 PUSH1 0x1 PUSH1 0xA0 SHL SUB DUP6 AND DUP5 MSTORE SWAP1 SWAP2 MSTORE SWAP1 KECCAK256 DUP1 SLOAD PUSH1 0xFF NOT AND PUSH1 0x1 OR SWAP1 SSTORE PUSH2 0x12A9 CALLER SWAP1 JUMP JUMPDEST PUSH1 0x1 PUSH1 0x1 PUSH1 0xA0 SHL SUB AND DUP2 PUSH1 0x1 PUSH1 0x1 PUSH1 0xA0 SHL SUB AND DUP4 PUSH32 0x2F8788117E7EFF1D82E926EC794901D17C78024A50270940304540A733656F0D PUSH1 0x40 MLOAD PUSH1 0x40 MLOAD DUP1 SWAP2 SUB SWAP1 LOG4 POP POP JUMP JUMPDEST PUSH1 0x0 DUP2 DUP2 MSTORE PUSH1 0x1 DUP4 ADD PUSH1 0x20 MSTORE PUSH1 0x40 DUP2 KECCAK256 SLOAD PUSH2 0x1334 JUMPI POP DUP2 SLOAD PUSH1 0x1 DUP2 DUP2 ADD DUP5 SSTORE PUSH1 0x0 DUP5 DUP2 MSTORE PUSH1 0x20 DUP1 DUP3 KECCAK256 SWAP1 SWAP4 ADD DUP5 SWAP1 SSTORE DUP5 SLOAD DUP5 DUP3 MSTORE DUP3 DUP7 ADD SWAP1 SWAP4 MSTORE PUSH1 0x40 SWAP1 KECCAK256 SWAP2 SWAP1 SWAP2 SSTORE PUSH2 0x619 JUMP JUMPDEST POP PUSH1 0x0 PUSH2 0x619 JUMP JUMPDEST PUSH2 0x1346 DUP3 DUP3 PUSH2 0xB1E JUMP JUMPDEST ISZERO PUSH2 0xF30 JUMPI PUSH1 0x0 DUP3 DUP2 MSTORE PUSH1 0x20 DUP2 DUP2 MSTORE PUSH1 0x40 DUP1 DUP4 KECCAK256 PUSH1 0x1 PUSH1 0x1 PUSH1 0xA0 SHL SUB DUP6 AND DUP1 DUP6 MSTORE SWAP3 MSTORE DUP1 DUP4 KECCAK256 DUP1 SLOAD PUSH1 0xFF NOT AND SWAP1 SSTORE MLOAD CALLER SWAP3 DUP6 SWAP2 PUSH32 0xF6391F5C32D9C69D2A47EA670B442974B53935D1EDC7FD64EB21E047A839171B SWAP2 SWAP1 LOG4 POP POP JUMP JUMPDEST PUSH1 0x0 DUP2 DUP2 MSTORE PUSH1 0x1 DUP4 ADD PUSH1 0x20 MSTORE PUSH1 0x40 DUP2 KECCAK256 SLOAD DUP1 ISZERO PUSH2 0x148A JUMPI PUSH1 0x0 PUSH2 0x13C5 PUSH1 0x1 DUP4 PUSH2 0x1A8E JUMP JUMPDEST DUP6 SLOAD SWAP1 SWAP2 POP PUSH1 0x0 SWAP1 PUSH2 0x13D9 SWAP1 PUSH1 0x1 SWAP1 PUSH2 0x1A8E JUMP JUMPDEST SWAP1 POP DUP2 DUP2 EQ PUSH2 0x143E JUMPI PUSH1 0x0 DUP7 PUSH1 0x0 ADD DUP3 DUP2 SLOAD DUP2 LT PUSH2 0x13F9 JUMPI PUSH2 0x13F9 PUSH2 0x1937 JUMP JUMPDEST SWAP1 PUSH1 0x0 MSTORE PUSH1 0x20 PUSH1 0x0 KECCAK256 ADD SLOAD SWAP1 POP DUP1 DUP8 PUSH1 0x0 ADD DUP5 DUP2 SLOAD DUP2 LT PUSH2 0x141C JUMPI PUSH2 0x141C PUSH2 0x1937 JUMP JUMPDEST PUSH1 0x0 SWAP2 DUP3 MSTORE PUSH1 0x20 DUP1 DUP4 KECCAK256 SWAP1 SWAP2 ADD SWAP3 SWAP1 SWAP3 SSTORE SWAP2 DUP3 MSTORE PUSH1 0x1 DUP9 ADD SWAP1 MSTORE PUSH1 0x40 SWAP1 KECCAK256 DUP4 SWAP1 SSTORE JUMPDEST DUP6 SLOAD DUP7 SWAP1 DUP1 PUSH2 0x144F JUMPI PUSH2 0x144F PUSH2 0x1AA5 JUMP JUMPDEST PUSH1 0x1 SWAP1 SUB DUP2 DUP2 SWAP1 PUSH1 0x0 MSTORE PUSH1 0x20 PUSH1 0x0 KECCAK256 ADD PUSH1 0x0 SWAP1 SSTORE SWAP1 SSTORE DUP6 PUSH1 0x1 ADD PUSH1 0x0 DUP7 DUP2 MSTORE PUSH1 0x20 ADD SWAP1 DUP2 MSTORE PUSH1 0x20 ADD PUSH1 0x0 KECCAK256 PUSH1 0x0 SWAP1 SSTORE PUSH1 0x1 SWAP4 POP POP POP POP PUSH2 0x619 JUMP JUMPDEST PUSH1 0x0 SWAP2 POP POP PUSH2 0x619 JUMP JUMPDEST PUSH1 0x0 DUP3 PUSH1 0x0 ADD DUP3 DUP2 SLOAD DUP2 LT PUSH2 0x14AB JUMPI PUSH2 0x14AB PUSH2 0x1937 JUMP JUMPDEST SWAP1 PUSH1 0x0 MSTORE PUSH1 0x20 PUSH1 0x0 KECCAK256 ADD SLOAD SWAP1 POP SWAP3 SWAP2 POP POP JUMP JUMPDEST DUP1 CALLDATALOAD PUSH1 0x1 PUSH1 0x1 PUSH1 0xA0 SHL SUB DUP2 AND DUP2 EQ PUSH2 0x14D5 JUMPI PUSH1 0x0 DUP1 REVERT JUMPDEST SWAP2 SWAP1 POP JUMP JUMPDEST PUSH1 0x0 DUP1 PUSH1 0x0 PUSH1 0x60 DUP5 DUP7 SUB SLT ISZERO PUSH2 0x14EF JUMPI PUSH1 0x0 DUP1 REVERT JUMPDEST PUSH2 0x14F8 DUP5 PUSH2 0x14BE JUMP JUMPDEST SWAP3 POP PUSH2 0x1506 PUSH1 0x20 DUP6 ADD PUSH2 0x14BE JUMP JUMPDEST SWAP2 POP PUSH2 0x1514 PUSH1 0x40 DUP6 ADD PUSH2 0x14BE JUMP JUMPDEST SWAP1 POP SWAP3 POP SWAP3 POP SWAP3 JUMP JUMPDEST PUSH1 0x0 PUSH1 0x20 DUP3 DUP5 SUB SLT ISZERO PUSH2 0x152F JUMPI PUSH1 0x0 DUP1 REVERT JUMPDEST DUP2 CALLDATALOAD PUSH1 0x1 PUSH1 0x1 PUSH1 0xE0 SHL SUB NOT DUP2 AND DUP2 EQ PUSH2 0xB17 JUMPI PUSH1 0x0 DUP1 REVERT JUMPDEST PUSH1 0x0 DUP1 PUSH1 0x20 DUP4 DUP6 SUB SLT ISZERO PUSH2 0x155A JUMPI PUSH1 0x0 DUP1 REVERT JUMPDEST DUP3 CALLDATALOAD PUSH8 0xFFFFFFFFFFFFFFFF DUP1 DUP3 GT ISZERO PUSH2 0x1572 JUMPI PUSH1 0x0 DUP1 REVERT JUMPDEST DUP2 DUP6 ADD SWAP2 POP DUP6 PUSH1 0x1F DUP4 ADD SLT PUSH2 0x1586 JUMPI PUSH1 0x0 DUP1 REVERT JUMPDEST DUP2 CALLDATALOAD DUP2 DUP2 GT ISZERO PUSH2 0x1595 JUMPI PUSH1 0x0 DUP1 REVERT JUMPDEST DUP7 PUSH1 0x20 DUP3 PUSH1 0x6 SHL DUP6 ADD ADD GT ISZERO PUSH2 0x15AA JUMPI PUSH1 0x0 DUP1 REVERT JUMPDEST PUSH1 0x20 SWAP3 SWAP1 SWAP3 ADD SWAP7 SWAP2 SWAP6 POP SWAP1 SWAP4 POP POP POP POP JUMP JUMPDEST PUSH1 0x0 PUSH1 0x20 DUP3 DUP5 SUB SLT ISZERO PUSH2 0x15CE JUMPI PUSH1 0x0 DUP1 REVERT JUMPDEST PUSH2 0xB17 DUP3 PUSH2 0x14BE JUMP JUMPDEST PUSH1 0x0 DUP1 PUSH1 0x40 DUP4 DUP6 SUB SLT ISZERO PUSH2 0x15EA JUMPI PUSH1 0x0 DUP1 REVERT JUMPDEST PUSH2 0x15F3 DUP4 PUSH2 0x14BE JUMP JUMPDEST SWAP2 POP PUSH2 0x1601 PUSH1 0x20 DUP5 ADD PUSH2 0x14BE JUMP JUMPDEST SWAP1 POP SWAP3 POP SWAP3 SWAP1 POP JUMP JUMPDEST PUSH4 0x4E487B71 PUSH1 0xE0 SHL PUSH1 0x0 MSTORE PUSH1 0x41 PUSH1 0x4 MSTORE PUSH1 0x24 PUSH1 0x0 REVERT JUMPDEST PUSH1 0x0 PUSH1 0x20 DUP1 DUP4 DUP6 SUB SLT ISZERO PUSH2 0x1633 JUMPI PUSH1 0x0 DUP1 REVERT JUMPDEST DUP3 CALLDATALOAD PUSH8 0xFFFFFFFFFFFFFFFF DUP1 DUP3 GT ISZERO PUSH2 0x164B JUMPI PUSH1 0x0 DUP1 REVERT JUMPDEST DUP2 DUP6 ADD SWAP2 POP DUP6 PUSH1 0x1F DUP4 ADD SLT PUSH2 0x165F JUMPI PUSH1 0x0 DUP1 REVERT JUMPDEST DUP2 CALLDATALOAD DUP2 DUP2 GT ISZERO PUSH2 0x1671 JUMPI PUSH2 0x1671 PUSH2 0x160A JUMP JUMPDEST DUP1 PUSH1 0x5 SHL PUSH1 0x40 MLOAD PUSH1 0x1F NOT PUSH1 0x3F DUP4 ADD AND DUP2 ADD DUP2 DUP2 LT DUP6 DUP3 GT OR ISZERO PUSH2 0x1696 JUMPI PUSH2 0x1696 PUSH2 0x160A JUMP JUMPDEST PUSH1 0x40 MSTORE SWAP2 DUP3 MSTORE DUP5 DUP3 ADD SWAP3 POP DUP4 DUP2 ADD DUP6 ADD SWAP2 DUP9 DUP4 GT ISZERO PUSH2 0x16B4 JUMPI PUSH1 0x0 DUP1 REVERT JUMPDEST SWAP4 DUP6 ADD SWAP4 JUMPDEST DUP3 DUP6 LT ISZERO PUSH2 0x16D9 JUMPI PUSH2 0x16CA DUP6 PUSH2 0x14BE JUMP JUMPDEST DUP5 MSTORE SWAP4 DUP6 ADD SWAP4 SWAP3 DUP6 ADD SWAP3 PUSH2 0x16B9 JUMP JUMPDEST SWAP9 SWAP8 POP POP POP POP POP POP POP POP JUMP JUMPDEST PUSH1 0x20 DUP1 DUP3 MSTORE DUP3 MLOAD DUP3 DUP3 ADD DUP2 SWAP1 MSTORE PUSH1 0x0 SWAP2 SWAP1 DUP5 DUP3 ADD SWAP1 PUSH1 0x40 DUP6 ADD SWAP1 DUP5 JUMPDEST DUP2 DUP2 LT ISZERO PUSH2 0x1726 JUMPI DUP4 MLOAD PUSH1 0x1 PUSH1 0x1 PUSH1 0xA0 SHL SUB AND DUP4 MSTORE SWAP3 DUP5 ADD SWAP3 SWAP2 DUP5 ADD SWAP2 PUSH1 0x1 ADD PUSH2 0x1701 JUMP JUMPDEST POP SWAP1 SWAP7 SWAP6 POP POP POP POP POP POP JUMP JUMPDEST DUP1 CALLDATALOAD DUP1 ISZERO ISZERO DUP2 EQ PUSH2 0x14D5 JUMPI PUSH1 0x0 DUP1 REVERT JUMPDEST PUSH1 0x0 DUP1 PUSH1 0x40 DUP4 DUP6 SUB SLT ISZERO PUSH2 0x1755 JUMPI PUSH1 0x0 DUP1 REVERT JUMPDEST PUSH2 0x175E DUP4 PUSH2 0x14BE JUMP JUMPDEST SWAP2 POP PUSH2 0x1601 PUSH1 0x20 DUP5 ADD PUSH2 0x1732 JUMP JUMPDEST PUSH1 0x0 PUSH1 0x20 DUP3 DUP5 SUB SLT ISZERO PUSH2 0x177E JUMPI PUSH1 0x0 DUP1 REVERT JUMPDEST POP CALLDATALOAD SWAP2 SWAP1 POP JUMP JUMPDEST PUSH1 0x0 DUP1 PUSH1 0x0 PUSH1 0x60 DUP5 DUP7 SUB SLT ISZERO PUSH2 0x179A JUMPI PUSH1 0x0 DUP1 REVERT JUMPDEST PUSH2 0x17A3 DUP5 PUSH2 0x14BE JUMP JUMPDEST SWAP3 POP PUSH2 0x17B1 PUSH1 0x20 DUP6 ADD PUSH2 0x14BE JUMP JUMPDEST SWAP2 POP PUSH1 0x40 DUP5 ADD CALLDATALOAD SWAP1 POP SWAP3 POP SWAP3 POP SWAP3 JUMP JUMPDEST PUSH1 0x0 DUP1 PUSH1 0x40 DUP4 DUP6 SUB SLT ISZERO PUSH2 0x17D4 JUMPI PUSH1 0x0 DUP1 REVERT JUMPDEST DUP3 CALLDATALOAD SWAP2 POP PUSH2 0x1601 PUSH1 0x20 DUP5 ADD PUSH2 0x14BE JUMP JUMPDEST PUSH1 0x0 DUP1 DUP4 PUSH1 0x1F DUP5 ADD SLT PUSH2 0x17F6 JUMPI PUSH1 0x0 DUP1 REVERT JUMPDEST POP DUP2 CALLDATALOAD PUSH8 0xFFFFFFFFFFFFFFFF DUP2 GT ISZERO PUSH2 0x180E JUMPI PUSH1 0x0 DUP1 REVERT JUMPDEST PUSH1 0x20 DUP4 ADD SWAP2 POP DUP4 PUSH1 0x20 DUP3 PUSH1 0x5 SHL DUP6 ADD ADD GT ISZERO PUSH2 0x1829 JUMPI PUSH1 0x0 DUP1 REVERT JUMPDEST SWAP3 POP SWAP3 SWAP1 POP JUMP JUMPDEST PUSH1 0x0 DUP1 PUSH1 0x0 PUSH1 0x40 DUP5 DUP7 SUB SLT ISZERO PUSH2 0x1845 JUMPI PUSH1 0x0 DUP1 REVERT JUMPDEST DUP4 CALLDATALOAD PUSH8 0xFFFFFFFFFFFFFFFF DUP2 GT ISZERO PUSH2 0x185C JUMPI PUSH1 0x0 DUP1 REVERT JUMPDEST PUSH2 0x1868 DUP7 DUP3 DUP8 ADD PUSH2 0x17E4 JUMP JUMPDEST SWAP1 SWAP5 POP SWAP3 POP PUSH2 0x1514 SWAP1 POP PUSH1 0x20 DUP6 ADD PUSH2 0x1732 JUMP JUMPDEST PUSH1 0x0 DUP1 PUSH1 0x20 DUP4 DUP6 SUB SLT ISZERO PUSH2 0x188E JUMPI PUSH1 0x0 DUP1 REVERT JUMPDEST DUP3 CALLDATALOAD PUSH8 0xFFFFFFFFFFFFFFFF DUP2 GT ISZERO PUSH2 0x18A5 JUMPI PUSH1 0x0 DUP1 REVERT JUMPDEST PUSH2 0x18B1 DUP6 DUP3 DUP7 ADD PUSH2 0x17E4 JUMP JUMPDEST SWAP1 SWAP7 SWAP1 SWAP6 POP SWAP4 POP POP POP POP JUMP JUMPDEST PUSH1 0x0 DUP1 PUSH1 0x40 DUP4 DUP6 SUB SLT ISZERO PUSH2 0x18D0 JUMPI PUSH1 0x0 DUP1 REVERT JUMPDEST POP POP DUP1 CALLDATALOAD SWAP3 PUSH1 0x20 SWAP1 SWAP2 ADD CALLDATALOAD SWAP2 POP JUMP JUMPDEST PUSH1 0x0 DUP1 PUSH1 0x40 DUP4 DUP6 SUB SLT ISZERO PUSH2 0x18F2 JUMPI PUSH1 0x0 DUP1 REVERT JUMPDEST PUSH2 0x18FB DUP4 PUSH2 0x14BE JUMP JUMPDEST SWAP5 PUSH1 0x20 SWAP4 SWAP1 SWAP4 ADD CALLDATALOAD SWAP4 POP POP POP JUMP JUMPDEST PUSH4 0x4E487B71 PUSH1 0xE0 SHL PUSH1 0x0 MSTORE PUSH1 0x11 PUSH1 0x4 MSTORE PUSH1 0x24 PUSH1 0x0 REVERT JUMPDEST PUSH1 0x0 DUP3 NOT DUP3 GT ISZERO PUSH2 0x1932 JUMPI PUSH2 0x1932 PUSH2 0x1909 JUMP JUMPDEST POP ADD SWAP1 JUMP JUMPDEST PUSH4 0x4E487B71 PUSH1 0xE0 SHL PUSH1 0x0 MSTORE PUSH1 0x32 PUSH1 0x4 MSTORE PUSH1 0x24 PUSH1 0x0 REVERT JUMPDEST PUSH1 0x0 PUSH1 0x0 NOT DUP3 EQ ISZERO PUSH2 0x1961 JUMPI PUSH2 0x1961 PUSH2 0x1909 JUMP JUMPDEST POP PUSH1 0x1 ADD SWAP1 JUMP JUMPDEST PUSH1 0x0 JUMPDEST DUP4 DUP2 LT ISZERO PUSH2 0x1983 JUMPI DUP2 DUP2 ADD MLOAD DUP4 DUP3 ADD MSTORE PUSH1 0x20 ADD PUSH2 0x196B JUMP JUMPDEST DUP4 DUP2 GT ISZERO PUSH2 0x696 JUMPI POP POP PUSH1 0x0 SWAP2 ADD MSTORE JUMP JUMPDEST PUSH1 0x0 DUP3 MLOAD PUSH2 0x19A6 DUP2 DUP5 PUSH1 0x20 DUP8 ADD PUSH2 0x1968 JUMP JUMPDEST SWAP2 SWAP1 SWAP2 ADD SWAP3 SWAP2 POP POP JUMP JUMPDEST PUSH1 0x0 DUP2 PUSH1 0x0 NOT DIV DUP4 GT DUP3 ISZERO ISZERO AND ISZERO PUSH2 0x19CA JUMPI PUSH2 0x19CA PUSH2 0x1909 JUMP JUMPDEST POP MUL SWAP1 JUMP JUMPDEST PUSH1 0x0 DUP2 PUSH2 0x19DE JUMPI PUSH2 0x19DE PUSH2 0x1909 JUMP JUMPDEST POP PUSH1 0x0 NOT ADD SWAP1 JUMP JUMPDEST PUSH32 0x416363657373436F6E74726F6C3A206163636F756E7420000000000000000000 DUP2 MSTORE PUSH1 0x0 DUP4 MLOAD PUSH2 0x1A1E DUP2 PUSH1 0x17 DUP6 ADD PUSH1 0x20 DUP9 ADD PUSH2 0x1968 JUMP JUMPDEST PUSH17 0x1034B99036B4B9B9B4B733903937B6329 PUSH1 0x7D SHL PUSH1 0x17 SWAP2 DUP5 ADD SWAP2 DUP3 ADD MSTORE DUP4 MLOAD PUSH2 0x1A4F DUP2 PUSH1 0x28 DUP5 ADD PUSH1 0x20 DUP9 ADD PUSH2 0x1968 JUMP JUMPDEST ADD PUSH1 0x28 ADD SWAP5 SWAP4 POP POP POP POP JUMP JUMPDEST PUSH1 0x20 DUP2 MSTORE PUSH1 0x0 DUP3 MLOAD DUP1 PUSH1 0x20 DUP5 ADD MSTORE PUSH2 0x1A7A DUP2 PUSH1 0x40 DUP6 ADD PUSH1 0x20 DUP8 ADD PUSH2 0x1968 JUMP JUMPDEST PUSH1 0x1F ADD PUSH1 0x1F NOT AND SWAP2 SWAP1 SWAP2 ADD PUSH1 0x40 ADD SWAP3 SWAP2 POP POP JUMP JUMPDEST PUSH1 0x0 DUP3 DUP3 LT ISZERO PUSH2 0x1AA0 JUMPI PUSH2 0x1AA0 PUSH2 0x1909 JUMP JUMPDEST POP SUB SWAP1 JUMP JUMPDEST PUSH4 0x4E487B71 PUSH1 0xE0 SHL PUSH1 0x0 MSTORE PUSH1 0x31 PUSH1 0x4 MSTORE PUSH1 0x24 PUSH1 0x0 REVERT INVALID LOG2 PUSH5 0x6970667358 0x22 SLT KECCAK256 0xC3 LOG1 PUSH10 0xA116A9B3AB77AAB2F4 0xB3 DUP2 SWAP1 MSIZE DUP7 0xCC 0xA6 0xF CALL 0xA7 STATICCALL 0xB7 PUSH22 0x7F15B848648164736F6C634300080900330000000000 "
		},
		"gasEstimates": {
			"creation": {
				"codeDepositCost": "1379400",
				"executionCost": "infinite",
				"totalCost": "infinite"
			},
			"external": {
				"ROLE_ADMIN()": "262",
				"bulkMarkAddressAsBot(address[])": "infinite",
				"bulkMarkAddressAsBotBool(address[],bool)": "infinite",
				"bulkMarkAddressAsHuman(address[],bool)": "infinite",
				"bulkMarkAsUniswapPair(address[],bool)": "infinite",
				"getBuyTimestamp(address,address)": "infinite",
				"getCooldownPeriodSell(address)": "infinite",
				"getRoleAdmin(bytes32)": "2493",
				"getRoleMember(bytes32,uint256)": "infinite",
				"getRoleMemberCount(bytes32)": "infinite",
				"getTransactionInfo(address,address,address)": "infinite",
				"grantRole(bytes32,address)": "infinite",
				"grantRolesBulk((bytes32,address)[])": "infinite",
				"hasRole(bytes32,address)": "2730",
				"isBotAddress(address)": "infinite",
				"isMarkedAsBotStorage(address)": "infinite",
				"isMarkedAsBotStorageBulk(address[])": "infinite",
				"isMarkedAsHumanStorage(address)": "infinite",
				"isMarkedAsHumanStorageBulk(address[])": "infinite",
				"isMarkedAsUniswapPair(address)": "infinite",
				"isUniswapPairChecker(address)": "infinite",
				"markAddressAsBot(address)": "infinite",
				"markAddressAsHuman(address,bool)": "infinite",
				"markAddressAsNotBot(address)": "infinite",
				"markAsUniswapPair(address,bool)": "infinite",
				"renounceRole(bytes32,address)": "infinite",
				"revokeRole(bytes32,address)": "infinite",
				"supportsInterface(bytes4)": "infinite",
				"updateBuyTimestamp(address,address,uint256)": "infinite",
				"updateCooldownPeriodSell(address,uint256)": "infinite"
			},
			"internal": {
				"isContract(address)": "infinite"
			}
		},
		"methodIdentifiers": {
			"ROLE_ADMIN()": "d391014b",
			"bulkMarkAddressAsBot(address[])": "6a930a95",
			"bulkMarkAddressAsBotBool(address[],bool)": "404a8cca",
			"bulkMarkAddressAsHuman(address[],bool)": "a8798ffc",
			"bulkMarkAsUniswapPair(address[],bool)": "eb88e031",
			"getBuyTimestamp(address,address)": "161aa47e",
			"getCooldownPeriodSell(address)": "e53fd775",
			"getRoleAdmin(bytes32)": "248a9ca3",
			"getRoleMember(bytes32,uint256)": "9010d07c",
			"getRoleMemberCount(bytes32)": "ca15c873",
			"getTransactionInfo(address,address,address)": "01d01264",
			"grantRole(bytes32,address)": "2f2ff15d",
			"grantRolesBulk((bytes32,address)[])": "03ed957f",
			"hasRole(bytes32,address)": "91d14854",
			"isBotAddress(address)": "eaa8f7e3",
			"isMarkedAsBotStorage(address)": "5f242323",
			"isMarkedAsBotStorageBulk(address[])": "441c62a8",
			"isMarkedAsHumanStorage(address)": "db8aa538",
			"isMarkedAsHumanStorageBulk(address[])": "1fd413f8",
			"isMarkedAsUniswapPair(address)": "c78bf346",
			"isUniswapPairChecker(address)": "a8287861",
			"markAddressAsBot(address)": "1093baa9",
			"markAddressAsHuman(address,bool)": "231683ae",
			"markAddressAsNotBot(address)": "a9a48824",
			"markAsUniswapPair(address,bool)": "b0d5b827",
			"renounceRole(bytes32,address)": "36568abe",
			"revokeRole(bytes32,address)": "d547741f",
			"supportsInterface(bytes4)": "01ffc9a7",
			"updateBuyTimestamp(address,address,uint256)": "2a5bf470",
			"updateCooldownPeriodSell(address,uint256)": "ed0b8476"
		}
	},
	"abi": [
		{
			"inputs": [],
			"stateMutability": "nonpayable",
			"type": "constructor"
		},
		{
			"anonymous": false,
			"inputs": [
				{
					"indexed": true,
					"internalType": "bytes32",
					"name": "role",
					"type": "bytes32"
				},
				{
					"indexed": true,
					"internalType": "bytes32",
					"name": "previousAdminRole",
					"type": "bytes32"
				},
				{
					"indexed": true,
					"internalType": "bytes32",
					"name": "newAdminRole",
					"type": "bytes32"
				}
			],
			"name": "RoleAdminChanged",
			"type": "event"
		},
		{
			"anonymous": false,
			"inputs": [
				{
					"indexed": true,
					"internalType": "bytes32",
					"name": "role",
					"type": "bytes32"
				},
				{
					"indexed": true,
					"internalType": "address",
					"name": "account",
					"type": "address"
				},
				{
					"indexed": true,
					"internalType": "address",
					"name": "sender",
					"type": "address"
				}
			],
			"name": "RoleGranted",
			"type": "event"
		},
		{
			"anonymous": false,
			"inputs": [
				{
					"indexed": true,
					"internalType": "bytes32",
					"name": "role",
					"type": "bytes32"
				},
				{
					"indexed": true,
					"internalType": "address",
					"name": "account",
					"type": "address"
				},
				{
					"indexed": true,
					"internalType": "address",
					"name": "sender",
					"type": "address"
				}
			],
			"name": "RoleRevoked",
			"type": "event"
		},
		{
			"inputs": [],
			"name": "ROLE_ADMIN",
			"outputs": [
				{
					"internalType": "bytes32",
					"name": "",
					"type": "bytes32"
				}
			],
			"stateMutability": "view",
			"type": "function"
		},
		{
			"inputs": [
				{
					"internalType": "address[]",
					"name": "addrs",
					"type": "address[]"
				}
			],
			"name": "bulkMarkAddressAsBot",
			"outputs": [],
			"stateMutability": "nonpayable",
			"type": "function"
		},
		{
			"inputs": [
				{
					"internalType": "address[]",
					"name": "addrs",
					"type": "address[]"
				},
				{
					"internalType": "bool",
					"name": "value",
					"type": "bool"
				}
			],
			"name": "bulkMarkAddressAsBotBool",
			"outputs": [],
			"stateMutability": "nonpayable",
			"type": "function"
		},
		{
			"inputs": [
				{
					"internalType": "address[]",
					"name": "addrs",
					"type": "address[]"
				},
				{
					"internalType": "bool",
					"name": "value",
					"type": "bool"
				}
			],
			"name": "bulkMarkAddressAsHuman",
			"outputs": [],
			"stateMutability": "nonpayable",
			"type": "function"
		},
		{
			"inputs": [
				{
					"internalType": "address[]",
					"name": "addrs",
					"type": "address[]"
				},
				{
					"internalType": "bool",
					"name": "value",
					"type": "bool"
				}
			],
			"name": "bulkMarkAsUniswapPair",
			"outputs": [],
			"stateMutability": "nonpayable",
			"type": "function"
		},
		{
			"inputs": [
				{
					"internalType": "address",
					"name": "tokenAddr",
					"type": "address"
				},
				{
					"internalType": "address",
					"name": "addr",
					"type": "address"
				}
			],
			"name": "getBuyTimestamp",
			"outputs": [
				{
					"internalType": "uint256",
					"name": "",
					"type": "uint256"
				}
			],
			"stateMutability": "view",
			"type": "function"
		},
		{
			"inputs": [
				{
					"internalType": "address",
					"name": "tokenAddr",
					"type": "address"
				}
			],
			"name": "getCooldownPeriodSell",
			"outputs": [
				{
					"internalType": "uint256",
					"name": "",
					"type": "uint256"
				}
			],
			"stateMutability": "view",
			"type": "function"
		},
		{
			"inputs": [
				{
					"internalType": "bytes32",
					"name": "role",
					"type": "bytes32"
				}
			],
			"name": "getRoleAdmin",
			"outputs": [
				{
					"internalType": "bytes32",
					"name": "",
					"type": "bytes32"
				}
			],
			"stateMutability": "view",
			"type": "function"
		},
		{
			"inputs": [
				{
					"internalType": "bytes32",
					"name": "role",
					"type": "bytes32"
				},
				{
					"internalType": "uint256",
					"name": "index",
					"type": "uint256"
				}
			],
			"name": "getRoleMember",
			"outputs": [
				{
					"internalType": "address",
					"name": "",
					"type": "address"
				}
			],
			"stateMutability": "view",
			"type": "function"
		},
		{
			"inputs": [
				{
					"internalType": "bytes32",
					"name": "role",
					"type": "bytes32"
				}
			],
			"name": "getRoleMemberCount",
			"outputs": [
				{
					"internalType": "uint256",
					"name": "",
					"type": "uint256"
				}
			],
			"stateMutability": "view",
			"type": "function"
		},
		{
			"inputs": [
				{
					"internalType": "address",
					"name": "tokenAddr",
					"type": "address"
				},
				{
					"internalType": "address",
					"name": "sender",
					"type": "address"
				},
				{
					"internalType": "address",
					"name": "recipient",
					"type": "address"
				}
			],
			"name": "getTransactionInfo",
			"outputs": [
				{
					"components": [
						{
							"internalType": "bool",
							"name": "isBuy",
							"type": "bool"
						},
						{
							"internalType": "bool",
							"name": "isSell",
							"type": "bool"
						}
					],
					"internalType": "struct TransactionInfo",
					"name": "output",
					"type": "tuple"
				}
			],
			"stateMutability": "nonpayable",
			"type": "function"
		},
		{
			"inputs": [
				{
					"internalType": "bytes32",
					"name": "role",
					"type": "bytes32"
				},
				{
					"internalType": "address",
					"name": "account",
					"type": "address"
				}
			],
			"name": "grantRole",
			"outputs": [],
			"stateMutability": "nonpayable",
			"type": "function"
		},
		{
			"inputs": [
				{
					"components": [
						{
							"internalType": "bytes32",
							"name": "role",
							"type": "bytes32"
						},
						{
							"internalType": "address",
							"name": "addr",
							"type": "address"
						}
					],
					"internalType": "struct RoleAccess[]",
					"name": "roles",
					"type": "tuple[]"
				}
			],
			"name": "grantRolesBulk",
			"outputs": [],
			"stateMutability": "nonpayable",
			"type": "function"
		},
		{
			"inputs": [
				{
					"internalType": "bytes32",
					"name": "role",
					"type": "bytes32"
				},
				{
					"internalType": "address",
					"name": "account",
					"type": "address"
				}
			],
			"name": "hasRole",
			"outputs": [
				{
					"internalType": "bool",
					"name": "",
					"type": "bool"
				}
			],
			"stateMutability": "view",
			"type": "function"
		},
		{
			"inputs": [
				{
					"internalType": "address",
					"name": "addr",
					"type": "address"
				}
			],
			"name": "isBotAddress",
			"outputs": [
				{
					"internalType": "bool",
					"name": "",
					"type": "bool"
				}
			],
			"stateMutability": "view",
			"type": "function"
		},
		{
			"inputs": [
				{
					"internalType": "address",
					"name": "addr",
					"type": "address"
				}
			],
			"name": "isMarkedAsBotStorage",
			"outputs": [
				{
					"internalType": "bool",
					"name": "",
					"type": "bool"
				}
			],
			"stateMutability": "view",
			"type": "function"
		},
		{
			"inputs": [
				{
					"internalType": "address[]",
					"name": "addrs",
					"type": "address[]"
				}
			],
			"name": "isMarkedAsBotStorageBulk",
			"outputs": [
				{
					"internalType": "address[]",
					"name": "",
					"type": "address[]"
				}
			],
			"stateMutability": "view",
			"type": "function"
		},
		{
			"inputs": [
				{
					"internalType": "address",
					"name": "addr",
					"type": "address"
				}
			],
			"name": "isMarkedAsHumanStorage",
			"outputs": [
				{
					"internalType": "bool",
					"name": "",
					"type": "bool"
				}
			],
			"stateMutability": "view",
			"type": "function"
		},
		{
			"inputs": [
				{
					"internalType": "address[]",
					"name": "addrs",
					"type": "address[]"
				}
			],
			"name": "isMarkedAsHumanStorageBulk",
			"outputs": [
				{
					"internalType": "address[]",
					"name": "",
					"type": "address[]"
				}
			],
			"stateMutability": "view",
			"type": "function"
		},
		{
			"inputs": [
				{
					"internalType": "address",
					"name": "addr",
					"type": "address"
				}
			],
			"name": "isMarkedAsUniswapPair",
			"outputs": [
				{
					"internalType": "bool",
					"name": "",
					"type": "bool"
				}
			],
			"stateMutability": "view",
			"type": "function"
		},
		{
			"inputs": [
				{
					"internalType": "address",
					"name": "addr",
					"type": "address"
				}
			],
			"name": "isUniswapPairChecker",
			"outputs": [
				{
					"internalType": "bool",
					"name": "isUni",
					"type": "bool"
				}
			],
			"stateMutability": "nonpayable",
			"type": "function"
		},
		{
			"inputs": [
				{
					"internalType": "address",
					"name": "addr",
					"type": "address"
				}
			],
			"name": "markAddressAsBot",
			"outputs": [],
			"stateMutability": "nonpayable",
			"type": "function"
		},
		{
			"inputs": [
				{
					"internalType": "address",
					"name": "addr",
					"type": "address"
				},
				{
					"internalType": "bool",
					"name": "value",
					"type": "bool"
				}
			],
			"name": "markAddressAsHuman",
			"outputs": [],
			"stateMutability": "nonpayable",
			"type": "function"
		},
		{
			"inputs": [
				{
					"internalType": "address",
					"name": "addr",
					"type": "address"
				}
			],
			"name": "markAddressAsNotBot",
			"outputs": [],
			"stateMutability": "nonpayable",
			"type": "function"
		},
		{
			"inputs": [
				{
					"internalType": "address",
					"name": "addr",
					"type": "address"
				},
				{
					"internalType": "bool",
					"name": "value",
					"type": "bool"
				}
			],
			"name": "markAsUniswapPair",
			"outputs": [],
			"stateMutability": "nonpayable",
			"type": "function"
		},
		{
			"inputs": [
				{
					"internalType": "bytes32",
					"name": "role",
					"type": "bytes32"
				},
				{
					"internalType": "address",
					"name": "account",
					"type": "address"
				}
			],
			"name": "renounceRole",
			"outputs": [],
			"stateMutability": "nonpayable",
			"type": "function"
		},
		{
			"inputs": [
				{
					"internalType": "bytes32",
					"name": "role",
					"type": "bytes32"
				},
				{
					"internalType": "address",
					"name": "account",
					"type": "address"
				}
			],
			"name": "revokeRole",
			"outputs": [],
			"stateMutability": "nonpayable",
			"type": "function"
		},
		{
			"inputs": [
				{
					"internalType": "bytes4",
					"name": "interfaceId",
					"type": "bytes4"
				}
			],
			"name": "supportsInterface",
			"outputs": [
				{
					"internalType": "bool",
					"name": "",
					"type": "bool"
				}
			],
			"stateMutability": "view",
			"type": "function"
		},
		{
			"inputs": [
				{
					"internalType": "address",
					"name": "tokenAddr",
					"type": "address"
				},
				{
					"internalType": "address",
					"name": "addr",
					"type": "address"
				},
				{
					"internalType": "uint256",
					"name": "newBuyTimestamp",
					"type": "uint256"
				}
			],
			"name": "updateBuyTimestamp",
			"outputs": [],
			"stateMutability": "nonpayable",
			"type": "function"
		},
		{
			"inputs": [
				{
					"internalType": "address",
					"name": "tokenAddr",
					"type": "address"
				},
				{
					"internalType": "uint256",
					"name": "newCooldownSellPeriod",
					"type": "uint256"
				}
			],
			"name": "updateCooldownPeriodSell",
			"outputs": [],
			"stateMutability": "nonpayable",
			"type": "function"
		}
	]
}