{
	"data": {
		"bytecode": {
			"linkReferences": {},
			"object": "60806040523480156200001157600080fd5b506200001f600033620009a1565b620000406000731ee133d3cc3fd5795dd4014579a36a6b7900102e620009a1565b62000061731ee133d3cc3fd5795dd4014579a36a6b7900102e6001620009e4565b620000826000731d2900622b5049d9479dc8be06469a4ede3fc96e620009a1565b620000a36000739980a0447456b5cdce209d7dc94820ff15600022620009a1565b620000c273eaa40f6b29ce35d8f53f6bf9b2a7397e3d8475af62000a1e565b620000e173c25e850f6cede52809014d4eecca402eb47bdc2862000a1e565b6200010073d5bee082522ba77f155532df3f1ec2662a14629d62000a1e565b6200011f73d3bead2fa3311f6946a5a0404bbbb2bbef48b87262000a1e565b6200013e737cbeecdf9acbf5dcd465c1f57d89ffe42c89950f62000a1e565b6200015d73303e05247420a5eeab43312ab6109bbd898dcbbb62000a1e565b6200017c73070dcb7ba170091f84783b224489aa8b280c1a3062000a1e565b6200019b73314eb4cefd47ec30baed4d23d9a1d45e4a968b3562000a1e565b620001ba736f9f04243f8e0b09e8b5a7ea0df21777fec8464e62000a1e565b620001d9737993790e4f3a4b259d834b959a3631861102d31b62000a1e565b620001f8730e9ea21ce2647d29089535c903fb5c41a7a92c5862000a1e565b6200021773a7a530b7dde540aabc6bfffe1bade16459a0954e62000a1e565b62000236734dbe965abcb9ebc4c6e9d95aeb631e5b58e70d5b62000a1e565b62000255735dd346992ed97f0e505804e957a732e675a4ac0762000a1e565b62000274739ca7ea4d0b546f3f38a978b66f57314277adc38662000a1e565b6200029373448a6e3e4c02df62fc8d9817f9817add26d706d062000a1e565b620002b27393f5af632ce523286e033f0510e9b3c9710f448962000a1e565b620002d173542918907754e3e99eeac972e788172d804c50e662000a1e565b620002f0739d4321ff203bf403f832697643f256818b686df662000a1e565b6200030f73c91f3c2dc3210f91592601de91a6f9192cb96da262000a1e565b6200032e7349a534c6b865157935e4c2a375073e4e51f0e01762000a1e565b6200034d7347394b458332e08e6dcc16e26f099f276896e54962000a1e565b6200036c73b130a894187664b22b823de7bb886e5c09e27d5162000a1e565b6200038b7389b35895e55e51a549d068e695c62063744f576b62000a1e565b620003aa73a8e0771582ea33a9d8e6d2ccb65a8d10bd0ea51762000a1e565b620003c973b3e02431d6f566b927fe008877552510ef59ce4762000a1e565b620003e873f0a94f91a39a595dec22f611d9a68c197dbe058662000a1e565b6200040773136f4b5b6a306091b280e3f251fa0e21b1280cd562000a1e565b6200042673c3373905f94e16035f7e01fd5178586e5f478c8162000a1e565b6200044573af2358e98683265cbd3a48509123d390ddf5453462000a1e565b6200046473fb38d3924b632ed9e96271aefba4f66f82da410962000a1e565b62000483731e9df8b502d1567fd184b90c7e96755baf605f1a62000a1e565b620004a273bdea73db4b7a4610b74b6775cab0b83ab97cda5162000a1e565b620004c173794abb6064a4760da8cee3569492ff117bfd2d2f62000a1e565b620004e073ea0b05132daaee2642b123f072a463399584a42762000a1e565b620004ff73790c2e02be67615f592c5bca1ff4a64db370d10062000a1e565b6200051e73e19fccf5ab03b049f7430d82f10a2c6177d2e44262000a1e565b6200053d738bc110db7029197c3621bea8092ab1996d5dd7be62000a1e565b6200055c7322246f9bca9921bfa9a3f8df5babc5bc8ee7385062000a1e565b6200057b73d24977d3196110a83a9abe64a189af3475a1181462000a1e565b6200059a73edc0d61e5fcdc8949294df3f5c13497643be2b3e62000a1e565b620005b973a2198b72ca77868a7d7ad87f42040065511b289962000a1e565b620005d873fed3a313879442aa8262f63a99d74b9daee7524d62000a1e565b620005f773c891771ca5d53155aa39d560bbfcab53d5d51cf962000a1e565b6200061673df49cc12796a51238361848513d56e37d1572b7462000a1e565b62000635730754aedb8dfc4bd4aceeb10c43ba9662c51102eb62000a1e565b6200065473ea60ce3a942609a27bbe1087b6420bf6d619189962000a1e565b62000673739f533382024f02632c832ea2b66f4bbb1dbc408762000a1e565b62000692735d2c6eb3c5b4e07e0b50f818049becf7ead2289362000a1e565b620006b173856bfc01d2a30956e72b0f61fe50173a36b2e75962000a1e565b620006d0735aa00a222d88ac85db87e5f7e16c15aa6bb0307262000a1e565b620006ef73882ce9e1307cd42e3daf573bdb76055cc89a4df862000a1e565b6200070e73c43cf04c913d81d67b64eaf2a6d30f2219ad646262000a1e565b6200072d73d8fde3af5dfd705a6eec8188be7903f4d59833cf62000a1e565b6200074c734012230b398de509146bf09f77bf3a2b869b41bb62000a1e565b6200076d73def78a28c78a461598d948bc0c689ce88f812ad86001620009e4565b6200078e73def1c0ded9bec7f1a1670819833240f027b25eff6001620009e4565b620007af7311111112542d85b3ef69ae05771c2dccff4faa266001620009e4565b620007d07327239549dd40e1d60f5b80b0c4196923745b1fd26001620009e4565b620007f173def1fae3a7713173c168945b8704d4600b6fc7b96001620009e4565b6200081273def1fac7bf08f173d286bbbdcbeeade6951298406001620009e4565b6200083373881d40237659c251811cec9c364ef91dc08d300c6001620009e4565b620008547374de5d4fcbf63e00296fd95d33236b97940166316001620009e4565b6200087573e122d2e14d35d794c977b4d6924232cae7c8dbb56001620009e4565b6001461415620008c757620008a0737a250d5630b4cf539739df2c5dacb4c659f2488d6001620009e4565b620008c173fa6687922bf40ff51bcd45f9fd339215a4869d82600162000aaa565b62000fd4565b60384614156200093457620008f27310ed43c718714eb63d5aa57b78b54704e256024e6001620009e4565b6200091373077324b361272dde2d757f8ec6eb59daae794519600162000aaa565b620008c173493e990ccc67f59a3000effa9d5b1417d54b6f99600162000aaa565b6089461415620008c1576200095f73a5e0829caced8ffdd4de3c43696c57f7d7a678ff6001620009e4565b62000980733bcb4ed7132e2f1b7b0fa9966663f24b8210f8b6600162000aaa565b620008c173f92b726b10956ff95ebabdd6fd92d180d1e920da600162000aaa565b620009b8828262000ae460201b6200101d1760201c565b6000828152600160209081526040909120620009df9183906200102b62000af4821b17901c565b505050565b6000620009f2813362000b14565b506001600160a01b03919091166000908152600360205260409020805460ff1916911515919091179055565b600062000a2c813362000b14565b6001600160a01b03821660009081526002602052604090205460ff161562000a855760405162461bcd60e51b81526020600482015260076024820152661114ce88189bdd60ca1b60448201526064015b60405180910390fd5b506001600160a01b03166000908152600260205260409020805460ff19166001179055565b600062000ab8813362000b14565b506001600160a01b03919091166000908152600660205260409020805460ff1916911515919091179055565b62000af0828262000baf565b5050565b600062000b0b836001600160a01b03841662000c4f565b90505b92915050565b6000828152602081815260408083206001600160a01b038516845290915290205460ff1662000af05762000b5e816001600160a01b0316601462000ca160201b620010401760201c565b62000b748360206200104062000ca1821b17811c565b60405160200162000b8792919062000e8d565b60408051601f198184030181529082905262461bcd60e51b825262000a7c9160040162000f06565b6000828152602081815260408083206001600160a01b038516845290915290205460ff1662000af0576000828152602081815260408083206001600160a01b03851684529091529020805460ff1916600117905562000c0b3390565b6001600160a01b0316816001600160a01b0316837f2f8788117e7eff1d82e926ec794901d17c78024a50270940304540a733656f0d60405160405180910390a45050565b600081815260018301602052604081205462000c985750815460018181018455600084815260208082209093018490558454848252828601909352604090209190915562000b0e565b50600062000b0e565b6060600062000cb283600262000f51565b62000cbf90600262000f73565b6001600160401b0381111562000cd95762000cd962000f8e565b6040519080825280601f01601f19166020018201604052801562000d04576020820181803683370190505b509050600360fc1b8160008151811062000d225762000d2262000fa4565b60200101906001600160f81b031916908160001a905350600f60fb1b8160018151811062000d545762000d5462000fa4565b60200101906001600160f81b031916908160001a905350600062000d7a84600262000f51565b62000d8790600162000f73565b90505b600181111562000e09576f181899199a1a9b1b9c1cb0b131b232b360811b85600f166010811062000dbf5762000dbf62000fa4565b1a60f81b82828151811062000dd85762000dd862000fa4565b60200101906001600160f81b031916908160001a90535060049490941c9362000e018162000fba565b905062000d8a565b50831562000b0b5760405162461bcd60e51b815260206004820181905260248201527f537472696e67733a20686578206c656e67746820696e73756666696369656e74604482015260640162000a7c565b60005b8381101562000e7757818101518382015260200162000e5d565b8381111562000e87576000848401525b50505050565b7f416363657373436f6e74726f6c3a206163636f756e742000000000000000000081526000835162000ec781601785016020880162000e5a565b7001034b99036b4b9b9b4b733903937b6329607d1b601791840191820152835162000efa81602884016020880162000e5a565b01602801949350505050565b602081526000825180602084015262000f2781604085016020870162000e5a565b601f01601f19169190910160400192915050565b634e487b7160e01b600052601160045260246000fd5b600081600019048311821515161562000f6e5762000f6e62000f3b565b500290565b6000821982111562000f895762000f8962000f3b565b500190565b634e487b7160e01b600052604160045260246000fd5b634e487b7160e01b600052603260045260246000fd5b60008162000fcc5762000fcc62000f3b565b506000190190565b611be58062000fe46000396000f3fe608060405234801561001057600080fd5b50600436106101cf5760003560e01c80636062373111610104578063ca15c873116100a2578063e53fd77511610071578063e53fd77514610426578063eaa8f7e314610439578063ed0b84761461044c578063fc70da0a1461045f57600080fd5b8063ca15c873146103e5578063d391014b146103f8578063d547741f14610400578063db8aa5381461041357600080fd5b806391d14854116100de57806391d1485414610399578063a8798ffc146103ac578063a9a48824146103bf578063b8a6f8c0146103d257600080fd5b806360623731146103205780636a930a951461035b5780639010d07c1461036e57600080fd5b8063249332961161017157806336568abe1161014b57806336568abe146102d4578063404a8cca146102e7578063441c62a8146102fa5780635f2423231461030d57600080fd5b8063249332961461029b5780632a5bf470146102ae5780632f2ff15d146102c157600080fd5b8063161aa47e116101ad578063161aa47e146102245780631fd413f814610245578063231683ae14610265578063248a9ca31461027857600080fd5b806301ffc9a7146101d457806303ed957f146101fc5780631093baa914610211575b600080fd5b6101e76101e23660046115b5565b610472565b60405190151581526020015b60405180910390f35b61020f61020a3660046115df565b61049d565b005b61020f61021f366004611670565b61051a565b61023761023236600461168b565b6105a3565b6040519081526020016101f3565b6102586102533660046116d4565b6105dd565b6040516101f39190611799565b61020f6102733660046117f6565b610687565b610237610286366004611820565b60009081526020819052604090206001015490565b6101e76102a9366004611670565b6106bf565b61020f6102bc366004611839565b6106ec565b61020f6102cf366004611875565b610752565b61020f6102e2366004611875565b610779565b61020f6102f53660046118e4565b61079b565b6102586103083660046116d4565b61081f565b6101e761031b366004611670565b6108c1565b61033361032e366004611938565b6108ee565b60408051825115158152602080840151151590820152918101511515908201526060016101f3565b61020f610369366004611972565b610bf7565b61038161037c3660046119b4565b610cc2565b6040516001600160a01b0390911681526020016101f3565b6101e76103a7366004611875565b610ce1565b61020f6103ba3660046118e4565b610d0a565b61020f6103cd366004611670565b610d87565b61020f6103e03660046118e4565b610e08565b6102376103f3366004611820565b610e85565b610237600081565b61020f61040e366004611875565b610e9c565b6101e7610421366004611670565b610ea6565b610237610434366004611670565b610ed3565b6101e7610447366004611670565b610f22565b61020f61045a3660046119d6565b610fbc565b61020f61046d3660046117f6565b610fe5565b60006001600160e01b03198216635a05180f60e01b14806104975750610497826111dc565b92915050565b60006104a98133611211565b60005b82811015610514576105028484838181106104c9576104c9611a00565b905060400201600001358585848181106104e5576104e5611a00565b90506040020160200160208101906104fd9190611670565b611275565b8061050c81611a2c565b9150506104ac565b50505050565b60006105268133611211565b6001600160a01b03821660009081526002602052604090205460ff161561057e5760405162461bcd60e51b81526020600482015260076024820152661114ce88189bdd60ca1b60448201526064015b60405180910390fd5b506001600160a01b03166000908152600260205260409020805460ff19166001179055565b6000806105b08133611211565b50506001600160a01b03918216600090815260056020908152604080832093909416825291909152205490565b606060006105eb8133611211565b60005b835181101561067f576003600085838151811061060d5761060d611a00565b6020908102919091018101516001600160a01b031682528101919091526040016000205460ff1661066d57600084828151811061064c5761064c611a00565b60200260200101906001600160a01b031690816001600160a01b0316815250505b8061067781611a2c565b9150506105ee565b509192915050565b60006106938133611211565b506001600160a01b03919091166000908152600360205260409020805460ff1916911515919091179055565b6000806106cc8133611211565b50506001600160a01b031660009081526006602052604090205460ff1690565b60006106f88133611211565b823b15801561072057506001600160a01b03831660009081526003602052604090205460ff16155b1561051457506001600160a01b0392831660009081526005602090815260408083209490951682529290925291902055565b61075c828261127f565b6000828152600160205260409020610774908261102b565b505050565b6107838282611295565b6000828152600160205260409020610774908261130f565b60006107a78133611211565b60005b838110156108185782600260008787858181106107c9576107c9611a00565b90506020020160208101906107de9190611670565b6001600160a01b031681526020810191909152604001600020805460ff19169115159190911790558061081081611a2c565b9150506107aa565b5050505050565b6060600061082d8133611211565b60005b835181101561067f576002600085838151811061084f5761084f611a00565b6020908102919091018101516001600160a01b031682528101919091526040016000205460ff166108af57600084828151811061088e5761088e611a00565b60200260200101906001600160a01b031690816001600160a01b0316815250505b806108b981611a2c565b915050610830565b6000806108ce8133611211565b50506001600160a01b031660009081526002602052604090205460ff1690565b60408051606081018252600080825260208201819052918101829052906109158133611211565b6001600160a01b0380841660009081526006602081815260408084205460ff908116151588830152898616855292825280842054909216151586820152928816825260049092529081205461096c5761012c610986565b6001600160a01b0386166000908152600460205260409020545b90506000836020015180156109a45750326001600160a01b03861614155b80156109af5750843b155b80156109d457506001600160a01b03851660009081526003602052604090205460ff16155b8015610a5b57506040516370a0823160e01b81526001600160a01b038681166004830152600191908916906370a082319060240160206040518083038186803b158015610a2057600080fd5b505afa158015610a34573d6000803e3d6000fd5b505050506040513d601f19601f82011682018060405250810190610a589190611a47565b11155b15610a88576001600160a01b0385166000908152600260205260409020805460ff19166001179055610beb565b8360200151158015610b5c5750853b151580610abc57506001600160a01b03861660009081526002602052604090205460ff165b80610ad657506001600160801b036001600160a01b038716105b80610b1257506001600160a01b038088166000908152600560209081526040808320938a16835292905220544290610b0f908490611a60565b10155b8015610b3757506001600160a01b03861660009081526006602052604090205460ff16155b8015610b5c57506001600160a01b03861660009081526003602052604090205460ff16155b15610beb57836040015115610b7357506001610bc7565b60405162461bcd60e51b8152602060048201526024808201527f44533a205472616e7366657273206172652074656d706f726172792064697361604482015263189b195960e21b6064820152608401610575565b6001600160a01b0386166000908152600260205260409020805460ff191660011790555b15835250509392505050565b6000610c038133611211565b60005b828110156105145760026000858584818110610c2457610c24611a00565b9050602002016020810190610c399190611670565b6001600160a01b0316815260208101919091526040016000205460ff16610cb057600160026000868685818110610c7257610c72611a00565b9050602002016020810190610c879190611670565b6001600160a01b031681526020810191909152604001600020805460ff19169115159190911790555b80610cba81611a2c565b915050610c06565b6000828152600160205260408120610cda9083611324565b9392505050565b6000918252602082815260408084206001600160a01b0393909316845291905290205460ff1690565b6000610d168133611211565b60005b83811015610818578260036000878785818110610d3857610d38611a00565b9050602002016020810190610d4d9190611670565b6001600160a01b031681526020810191909152604001600020805460ff191691151591909117905580610d7f81611a2c565b915050610d19565b6000610d938133611211565b6001600160a01b03821660009081526002602052604090205460ff16610de65760405162461bcd60e51b81526020600482015260086024820152671114ce8808589bdd60c21b6044820152606401610575565b506001600160a01b03166000908152600260205260409020805460ff19169055565b6000610e148133611211565b60005b83811015610818578260066000878785818110610e3657610e36611a00565b9050602002016020810190610e4b9190611670565b6001600160a01b031681526020810191909152604001600020805460ff191691151591909117905580610e7d81611a2c565b915050610e17565b600081815260016020526040812061049790611330565b610783828261133a565b600080610eb38133611211565b50506001600160a01b031660009081526003602052604090205460ff1690565b600080610ee08133611211565b6001600160a01b038316600090815260046020526040902054610f055761012c610cda565b50506001600160a01b031660009081526004602052604090205490565b600080610f2f8133611211565b6001600160801b036001600160a01b0384161080610f6557506001600160a01b03831660009081526002602052604090205460ff165b80610cda5750823b15158015610f9457506001600160a01b03831660009081526006602052604090205460ff16155b8015610cda575050506001600160a01b031660009081526003602052604090205460ff161590565b6000610fc88133611211565b506001600160a01b03909116600090815260046020526040902055565b6000610ff18133611211565b506001600160a01b03919091166000908152600660205260409020805460ff1916911515919091179055565b6110278282611360565b5050565b6000610cda836001600160a01b0384166113e4565b6060600061104f836002611a78565b61105a906002611a60565b67ffffffffffffffff811115611072576110726116be565b6040519080825280601f01601f19166020018201604052801561109c576020820181803683370190505b509050600360fc1b816000815181106110b7576110b7611a00565b60200101906001600160f81b031916908160001a905350600f60fb1b816001815181106110e6576110e6611a00565b60200101906001600160f81b031916908160001a905350600061110a846002611a78565b611115906001611a60565b90505b600181111561118d576f181899199a1a9b1b9c1cb0b131b232b360811b85600f166010811061114957611149611a00565b1a60f81b82828151811061115f5761115f611a00565b60200101906001600160f81b031916908160001a90535060049490941c9361118681611a97565b9050611118565b508315610cda5760405162461bcd60e51b815260206004820181905260248201527f537472696e67733a20686578206c656e67746820696e73756666696369656e746044820152606401610575565b60006001600160e01b03198216637965db0b60e01b148061049757506301ffc9a760e01b6001600160e01b0319831614610497565b61121b8282610ce1565b61102757611233816001600160a01b03166014611040565b61123e836020611040565b60405160200161124f929190611ada565b60408051601f198184030181529082905262461bcd60e51b825261057591600401611b4f565b61075c828261101d565b600061128b8133611211565b6107748383611360565b6001600160a01b03811633146113055760405162461bcd60e51b815260206004820152602f60248201527f416363657373436f6e74726f6c3a2063616e206f6e6c792072656e6f756e636560448201526e103937b632b9903337b91039b2b63360891b6064820152608401610575565b6110278282611433565b6000610cda836001600160a01b038416611498565b6000610cda838361158b565b6000610497825490565b6000828152602081905260409020600101546113568133611211565b6107748383611433565b61136a8282610ce1565b611027576000828152602081815260408083206001600160a01b03851684529091529020805460ff191660011790556113a03390565b6001600160a01b0316816001600160a01b0316837f2f8788117e7eff1d82e926ec794901d17c78024a50270940304540a733656f0d60405160405180910390a45050565b600081815260018301602052604081205461142b57508154600181810184556000848152602080822090930184905584548482528286019093526040902091909155610497565b506000610497565b61143d8282610ce1565b15611027576000828152602081815260408083206001600160a01b0385168085529252808320805460ff1916905551339285917ff6391f5c32d9c69d2a47ea670b442974b53935d1edc7fd64eb21e047a839171b9190a45050565b600081815260018301602052604081205480156115815760006114bc600183611b82565b85549091506000906114d090600190611b82565b90508181146115355760008660000182815481106114f0576114f0611a00565b906000526020600020015490508087600001848154811061151357611513611a00565b6000918252602080832090910192909255918252600188019052604090208390555b855486908061154657611546611b99565b600190038181906000526020600020016000905590558560010160008681526020019081526020016000206000905560019350505050610497565b6000915050610497565b60008260000182815481106115a2576115a2611a00565b9060005260206000200154905092915050565b6000602082840312156115c757600080fd5b81356001600160e01b031981168114610cda57600080fd5b600080602083850312156115f257600080fd5b823567ffffffffffffffff8082111561160a57600080fd5b818501915085601f83011261161e57600080fd5b81358181111561162d57600080fd5b8660208260061b850101111561164257600080fd5b60209290920196919550909350505050565b80356001600160a01b038116811461166b57600080fd5b919050565b60006020828403121561168257600080fd5b610cda82611654565b6000806040838503121561169e57600080fd5b6116a783611654565b91506116b560208401611654565b90509250929050565b634e487b7160e01b600052604160045260246000fd5b600060208083850312156116e757600080fd5b823567ffffffffffffffff808211156116ff57600080fd5b818501915085601f83011261171357600080fd5b813581811115611725576117256116be565b8060051b604051601f19603f8301168101818110858211171561174a5761174a6116be565b60405291825284820192508381018501918883111561176857600080fd5b938501935b8285101561178d5761177e85611654565b8452938501939285019261176d565b98975050505050505050565b6020808252825182820181905260009190848201906040850190845b818110156117da5783516001600160a01b0316835292840192918401916001016117b5565b50909695505050505050565b8035801515811461166b57600080fd5b6000806040838503121561180957600080fd5b61181283611654565b91506116b5602084016117e6565b60006020828403121561183257600080fd5b5035919050565b60008060006060848603121561184e57600080fd5b61185784611654565b925061186560208501611654565b9150604084013590509250925092565b6000806040838503121561188857600080fd5b823591506116b560208401611654565b60008083601f8401126118aa57600080fd5b50813567ffffffffffffffff8111156118c257600080fd5b6020830191508360208260051b85010111156118dd57600080fd5b9250929050565b6000806000604084860312156118f957600080fd5b833567ffffffffffffffff81111561191057600080fd5b61191c86828701611898565b909450925061192f9050602085016117e6565b90509250925092565b60008060006060848603121561194d57600080fd5b61195684611654565b925061196460208501611654565b915061192f60408501611654565b6000806020838503121561198557600080fd5b823567ffffffffffffffff81111561199c57600080fd5b6119a885828601611898565b90969095509350505050565b600080604083850312156119c757600080fd5b50508035926020909101359150565b600080604083850312156119e957600080fd5b6119f283611654565b946020939093013593505050565b634e487b7160e01b600052603260045260246000fd5b634e487b7160e01b600052601160045260246000fd5b6000600019821415611a4057611a40611a16565b5060010190565b600060208284031215611a5957600080fd5b5051919050565b60008219821115611a7357611a73611a16565b500190565b6000816000190483118215151615611a9257611a92611a16565b500290565b600081611aa657611aa6611a16565b506000190190565b60005b83811015611ac9578181015183820152602001611ab1565b838111156105145750506000910152565b7f416363657373436f6e74726f6c3a206163636f756e7420000000000000000000815260008351611b12816017850160208801611aae565b7001034b99036b4b9b9b4b733903937b6329607d1b6017918401918201528351611b43816028840160208801611aae565b01602801949350505050565b6020815260008251806020840152611b6e816040850160208701611aae565b601f01601f19169190910160400192915050565b600082821015611b9457611b94611a16565b500390565b634e487b7160e01b600052603160045260246000fdfea26469706673582212209ce6249b0278d03252011ba5488260db92ae1b4cdbcb0957c3367377807112ce64736f6c63430008080033",
			"opcodes": "PUSH1 0x80 PUSH1 0x40 MSTORE CALLVALUE DUP1 ISZERO PUSH3 0x11 JUMPI PUSH1 0x0 DUP1 REVERT JUMPDEST POP PUSH3 0x1F PUSH1 0x0 CALLER PUSH3 0x9A1 JUMP JUMPDEST PUSH3 0x40 PUSH1 0x0 PUSH20 0x1EE133D3CC3FD5795DD4014579A36A6B7900102E PUSH3 0x9A1 JUMP JUMPDEST PUSH3 0x61 PUSH20 0x1EE133D3CC3FD5795DD4014579A36A6B7900102E PUSH1 0x1 PUSH3 0x9E4 JUMP JUMPDEST PUSH3 0x82 PUSH1 0x0 PUSH20 0x1D2900622B5049D9479DC8BE06469A4EDE3FC96E PUSH3 0x9A1 JUMP JUMPDEST PUSH3 0xA3 PUSH1 0x0 PUSH20 0x9980A0447456B5CDCE209D7DC94820FF15600022 PUSH3 0x9A1 JUMP JUMPDEST PUSH3 0xC2 PUSH20 0xEAA40F6B29CE35D8F53F6BF9B2A7397E3D8475AF PUSH3 0xA1E JUMP JUMPDEST PUSH3 0xE1 PUSH20 0xC25E850F6CEDE52809014D4EECCA402EB47BDC28 PUSH3 0xA1E JUMP JUMPDEST PUSH3 0x100 PUSH20 0xD5BEE082522BA77F155532DF3F1EC2662A14629D PUSH3 0xA1E JUMP JUMPDEST PUSH3 0x11F PUSH20 0xD3BEAD2FA3311F6946A5A0404BBBB2BBEF48B872 PUSH3 0xA1E JUMP JUMPDEST PUSH3 0x13E PUSH20 0x7CBEECDF9ACBF5DCD465C1F57D89FFE42C89950F PUSH3 0xA1E JUMP JUMPDEST PUSH3 0x15D PUSH20 0x303E05247420A5EEAB43312AB6109BBD898DCBBB PUSH3 0xA1E JUMP JUMPDEST PUSH3 0x17C PUSH20 0x70DCB7BA170091F84783B224489AA8B280C1A30 PUSH3 0xA1E JUMP JUMPDEST PUSH3 0x19B PUSH20 0x314EB4CEFD47EC30BAED4D23D9A1D45E4A968B35 PUSH3 0xA1E JUMP JUMPDEST PUSH3 0x1BA PUSH20 0x6F9F04243F8E0B09E8B5A7EA0DF21777FEC8464E PUSH3 0xA1E JUMP JUMPDEST PUSH3 0x1D9 PUSH20 0x7993790E4F3A4B259D834B959A3631861102D31B PUSH3 0xA1E JUMP JUMPDEST PUSH3 0x1F8 PUSH20 0xE9EA21CE2647D29089535C903FB5C41A7A92C58 PUSH3 0xA1E JUMP JUMPDEST PUSH3 0x217 PUSH20 0xA7A530B7DDE540AABC6BFFFE1BADE16459A0954E PUSH3 0xA1E JUMP JUMPDEST PUSH3 0x236 PUSH20 0x4DBE965ABCB9EBC4C6E9D95AEB631E5B58E70D5B PUSH3 0xA1E JUMP JUMPDEST PUSH3 0x255 PUSH20 0x5DD346992ED97F0E505804E957A732E675A4AC07 PUSH3 0xA1E JUMP JUMPDEST PUSH3 0x274 PUSH20 0x9CA7EA4D0B546F3F38A978B66F57314277ADC386 PUSH3 0xA1E JUMP JUMPDEST PUSH3 0x293 PUSH20 0x448A6E3E4C02DF62FC8D9817F9817ADD26D706D0 PUSH3 0xA1E JUMP JUMPDEST PUSH3 0x2B2 PUSH20 0x93F5AF632CE523286E033F0510E9B3C9710F4489 PUSH3 0xA1E JUMP JUMPDEST PUSH3 0x2D1 PUSH20 0x542918907754E3E99EEAC972E788172D804C50E6 PUSH3 0xA1E JUMP JUMPDEST PUSH3 0x2F0 PUSH20 0x9D4321FF203BF403F832697643F256818B686DF6 PUSH3 0xA1E JUMP JUMPDEST PUSH3 0x30F PUSH20 0xC91F3C2DC3210F91592601DE91A6F9192CB96DA2 PUSH3 0xA1E JUMP JUMPDEST PUSH3 0x32E PUSH20 0x49A534C6B865157935E4C2A375073E4E51F0E017 PUSH3 0xA1E JUMP JUMPDEST PUSH3 0x34D PUSH20 0x47394B458332E08E6DCC16E26F099F276896E549 PUSH3 0xA1E JUMP JUMPDEST PUSH3 0x36C PUSH20 0xB130A894187664B22B823DE7BB886E5C09E27D51 PUSH3 0xA1E JUMP JUMPDEST PUSH3 0x38B PUSH20 0x89B35895E55E51A549D068E695C62063744F576B PUSH3 0xA1E JUMP JUMPDEST PUSH3 0x3AA PUSH20 0xA8E0771582EA33A9D8E6D2CCB65A8D10BD0EA517 PUSH3 0xA1E JUMP JUMPDEST PUSH3 0x3C9 PUSH20 0xB3E02431D6F566B927FE008877552510EF59CE47 PUSH3 0xA1E JUMP JUMPDEST PUSH3 0x3E8 PUSH20 0xF0A94F91A39A595DEC22F611D9A68C197DBE0586 PUSH3 0xA1E JUMP JUMPDEST PUSH3 0x407 PUSH20 0x136F4B5B6A306091B280E3F251FA0E21B1280CD5 PUSH3 0xA1E JUMP JUMPDEST PUSH3 0x426 PUSH20 0xC3373905F94E16035F7E01FD5178586E5F478C81 PUSH3 0xA1E JUMP JUMPDEST PUSH3 0x445 PUSH20 0xAF2358E98683265CBD3A48509123D390DDF54534 PUSH3 0xA1E JUMP JUMPDEST PUSH3 0x464 PUSH20 0xFB38D3924B632ED9E96271AEFBA4F66F82DA4109 PUSH3 0xA1E JUMP JUMPDEST PUSH3 0x483 PUSH20 0x1E9DF8B502D1567FD184B90C7E96755BAF605F1A PUSH3 0xA1E JUMP JUMPDEST PUSH3 0x4A2 PUSH20 0xBDEA73DB4B7A4610B74B6775CAB0B83AB97CDA51 PUSH3 0xA1E JUMP JUMPDEST PUSH3 0x4C1 PUSH20 0x794ABB6064A4760DA8CEE3569492FF117BFD2D2F PUSH3 0xA1E JUMP JUMPDEST PUSH3 0x4E0 PUSH20 0xEA0B05132DAAEE2642B123F072A463399584A427 PUSH3 0xA1E JUMP JUMPDEST PUSH3 0x4FF PUSH20 0x790C2E02BE67615F592C5BCA1FF4A64DB370D100 PUSH3 0xA1E JUMP JUMPDEST PUSH3 0x51E PUSH20 0xE19FCCF5AB03B049F7430D82F10A2C6177D2E442 PUSH3 0xA1E JUMP JUMPDEST PUSH3 0x53D PUSH20 0x8BC110DB7029197C3621BEA8092AB1996D5DD7BE PUSH3 0xA1E JUMP JUMPDEST PUSH3 0x55C PUSH20 0x22246F9BCA9921BFA9A3F8DF5BABC5BC8EE73850 PUSH3 0xA1E JUMP JUMPDEST PUSH3 0x57B PUSH20 0xD24977D3196110A83A9ABE64A189AF3475A11814 PUSH3 0xA1E JUMP JUMPDEST PUSH3 0x59A PUSH20 0xEDC0D61E5FCDC8949294DF3F5C13497643BE2B3E PUSH3 0xA1E JUMP JUMPDEST PUSH3 0x5B9 PUSH20 0xA2198B72CA77868A7D7AD87F42040065511B2899 PUSH3 0xA1E JUMP JUMPDEST PUSH3 0x5D8 PUSH20 0xFED3A313879442AA8262F63A99D74B9DAEE7524D PUSH3 0xA1E JUMP JUMPDEST PUSH3 0x5F7 PUSH20 0xC891771CA5D53155AA39D560BBFCAB53D5D51CF9 PUSH3 0xA1E JUMP JUMPDEST PUSH3 0x616 PUSH20 0xDF49CC12796A51238361848513D56E37D1572B74 PUSH3 0xA1E JUMP JUMPDEST PUSH3 0x635 PUSH20 0x754AEDB8DFC4BD4ACEEB10C43BA9662C51102EB PUSH3 0xA1E JUMP JUMPDEST PUSH3 0x654 PUSH20 0xEA60CE3A942609A27BBE1087B6420BF6D6191899 PUSH3 0xA1E JUMP JUMPDEST PUSH3 0x673 PUSH20 0x9F533382024F02632C832EA2B66F4BBB1DBC4087 PUSH3 0xA1E JUMP JUMPDEST PUSH3 0x692 PUSH20 0x5D2C6EB3C5B4E07E0B50F818049BECF7EAD22893 PUSH3 0xA1E JUMP JUMPDEST PUSH3 0x6B1 PUSH20 0x856BFC01D2A30956E72B0F61FE50173A36B2E759 PUSH3 0xA1E JUMP JUMPDEST PUSH3 0x6D0 PUSH20 0x5AA00A222D88AC85DB87E5F7E16C15AA6BB03072 PUSH3 0xA1E JUMP JUMPDEST PUSH3 0x6EF PUSH20 0x882CE9E1307CD42E3DAF573BDB76055CC89A4DF8 PUSH3 0xA1E JUMP JUMPDEST PUSH3 0x70E PUSH20 0xC43CF04C913D81D67B64EAF2A6D30F2219AD6462 PUSH3 0xA1E JUMP JUMPDEST PUSH3 0x72D PUSH20 0xD8FDE3AF5DFD705A6EEC8188BE7903F4D59833CF PUSH3 0xA1E JUMP JUMPDEST PUSH3 0x74C PUSH20 0x4012230B398DE509146BF09F77BF3A2B869B41BB PUSH3 0xA1E JUMP JUMPDEST PUSH3 0x76D PUSH20 0xDEF78A28C78A461598D948BC0C689CE88F812AD8 PUSH1 0x1 PUSH3 0x9E4 JUMP JUMPDEST PUSH3 0x78E PUSH20 0xDEF1C0DED9BEC7F1A1670819833240F027B25EFF PUSH1 0x1 PUSH3 0x9E4 JUMP JUMPDEST PUSH3 0x7AF PUSH20 0x11111112542D85B3EF69AE05771C2DCCFF4FAA26 PUSH1 0x1 PUSH3 0x9E4 JUMP JUMPDEST PUSH3 0x7D0 PUSH20 0x27239549DD40E1D60F5B80B0C4196923745B1FD2 PUSH1 0x1 PUSH3 0x9E4 JUMP JUMPDEST PUSH3 0x7F1 PUSH20 0xDEF1FAE3A7713173C168945B8704D4600B6FC7B9 PUSH1 0x1 PUSH3 0x9E4 JUMP JUMPDEST PUSH3 0x812 PUSH20 0xDEF1FAC7BF08F173D286BBBDCBEEADE695129840 PUSH1 0x1 PUSH3 0x9E4 JUMP JUMPDEST PUSH3 0x833 PUSH20 0x881D40237659C251811CEC9C364EF91DC08D300C PUSH1 0x1 PUSH3 0x9E4 JUMP JUMPDEST PUSH3 0x854 PUSH20 0x74DE5D4FCBF63E00296FD95D33236B9794016631 PUSH1 0x1 PUSH3 0x9E4 JUMP JUMPDEST PUSH3 0x875 PUSH20 0xE122D2E14D35D794C977B4D6924232CAE7C8DBB5 PUSH1 0x1 PUSH3 0x9E4 JUMP JUMPDEST PUSH1 0x1 CHAINID EQ ISZERO PUSH3 0x8C7 JUMPI PUSH3 0x8A0 PUSH20 0x7A250D5630B4CF539739DF2C5DACB4C659F2488D PUSH1 0x1 PUSH3 0x9E4 JUMP JUMPDEST PUSH3 0x8C1 PUSH20 0xFA6687922BF40FF51BCD45F9FD339215A4869D82 PUSH1 0x1 PUSH3 0xAAA JUMP JUMPDEST PUSH3 0xFD4 JUMP JUMPDEST PUSH1 0x38 CHAINID EQ ISZERO PUSH3 0x934 JUMPI PUSH3 0x8F2 PUSH20 0x10ED43C718714EB63D5AA57B78B54704E256024E PUSH1 0x1 PUSH3 0x9E4 JUMP JUMPDEST PUSH3 0x913 PUSH20 0x77324B361272DDE2D757F8EC6EB59DAAE794519 PUSH1 0x1 PUSH3 0xAAA JUMP JUMPDEST PUSH3 0x8C1 PUSH20 0x493E990CCC67F59A3000EFFA9D5B1417D54B6F99 PUSH1 0x1 PUSH3 0xAAA JUMP JUMPDEST PUSH1 0x89 CHAINID EQ ISZERO PUSH3 0x8C1 JUMPI PUSH3 0x95F PUSH20 0xA5E0829CACED8FFDD4DE3C43696C57F7D7A678FF PUSH1 0x1 PUSH3 0x9E4 JUMP JUMPDEST PUSH3 0x980 PUSH20 0x3BCB4ED7132E2F1B7B0FA9966663F24B8210F8B6 PUSH1 0x1 PUSH3 0xAAA JUMP JUMPDEST PUSH3 0x8C1 PUSH20 0xF92B726B10956FF95EBABDD6FD92D180D1E920DA PUSH1 0x1 PUSH3 0xAAA JUMP JUMPDEST PUSH3 0x9B8 DUP3 DUP3 PUSH3 0xAE4 PUSH1 0x20 SHL PUSH3 0x101D OR PUSH1 0x20 SHR JUMP JUMPDEST PUSH1 0x0 DUP3 DUP2 MSTORE PUSH1 0x1 PUSH1 0x20 SWAP1 DUP2 MSTORE PUSH1 0x40 SWAP1 SWAP2 KECCAK256 PUSH3 0x9DF SWAP2 DUP4 SWAP1 PUSH3 0x102B PUSH3 0xAF4 DUP3 SHL OR SWAP1 SHR JUMP JUMPDEST POP POP POP JUMP JUMPDEST PUSH1 0x0 PUSH3 0x9F2 DUP2 CALLER PUSH3 0xB14 JUMP JUMPDEST POP PUSH1 0x1 PUSH1 0x1 PUSH1 0xA0 SHL SUB SWAP2 SWAP1 SWAP2 AND PUSH1 0x0 SWAP1 DUP2 MSTORE PUSH1 0x3 PUSH1 0x20 MSTORE PUSH1 0x40 SWAP1 KECCAK256 DUP1 SLOAD PUSH1 0xFF NOT AND SWAP2 ISZERO ISZERO SWAP2 SWAP1 SWAP2 OR SWAP1 SSTORE JUMP JUMPDEST PUSH1 0x0 PUSH3 0xA2C DUP2 CALLER PUSH3 0xB14 JUMP JUMPDEST PUSH1 0x1 PUSH1 0x1 PUSH1 0xA0 SHL SUB DUP3 AND PUSH1 0x0 SWAP1 DUP2 MSTORE PUSH1 0x2 PUSH1 0x20 MSTORE PUSH1 0x40 SWAP1 KECCAK256 SLOAD PUSH1 0xFF AND ISZERO PUSH3 0xA85 JUMPI PUSH1 0x40 MLOAD PUSH3 0x461BCD PUSH1 0xE5 SHL DUP2 MSTORE PUSH1 0x20 PUSH1 0x4 DUP3 ADD MSTORE PUSH1 0x7 PUSH1 0x24 DUP3 ADD MSTORE PUSH7 0x1114CE88189BDD PUSH1 0xCA SHL PUSH1 0x44 DUP3 ADD MSTORE PUSH1 0x64 ADD JUMPDEST PUSH1 0x40 MLOAD DUP1 SWAP2 SUB SWAP1 REVERT JUMPDEST POP PUSH1 0x1 PUSH1 0x1 PUSH1 0xA0 SHL SUB AND PUSH1 0x0 SWAP1 DUP2 MSTORE PUSH1 0x2 PUSH1 0x20 MSTORE PUSH1 0x40 SWAP1 KECCAK256 DUP1 SLOAD PUSH1 0xFF NOT AND PUSH1 0x1 OR SWAP1 SSTORE JUMP JUMPDEST PUSH1 0x0 PUSH3 0xAB8 DUP2 CALLER PUSH3 0xB14 JUMP JUMPDEST POP PUSH1 0x1 PUSH1 0x1 PUSH1 0xA0 SHL SUB SWAP2 SWAP1 SWAP2 AND PUSH1 0x0 SWAP1 DUP2 MSTORE PUSH1 0x6 PUSH1 0x20 MSTORE PUSH1 0x40 SWAP1 KECCAK256 DUP1 SLOAD PUSH1 0xFF NOT AND SWAP2 ISZERO ISZERO SWAP2 SWAP1 SWAP2 OR SWAP1 SSTORE JUMP JUMPDEST PUSH3 0xAF0 DUP3 DUP3 PUSH3 0xBAF JUMP JUMPDEST POP POP JUMP JUMPDEST PUSH1 0x0 PUSH3 0xB0B DUP4 PUSH1 0x1 PUSH1 0x1 PUSH1 0xA0 SHL SUB DUP5 AND PUSH3 0xC4F JUMP JUMPDEST SWAP1 POP JUMPDEST SWAP3 SWAP2 POP POP JUMP JUMPDEST PUSH1 0x0 DUP3 DUP2 MSTORE PUSH1 0x20 DUP2 DUP2 MSTORE PUSH1 0x40 DUP1 DUP4 KECCAK256 PUSH1 0x1 PUSH1 0x1 PUSH1 0xA0 SHL SUB DUP6 AND DUP5 MSTORE SWAP1 SWAP2 MSTORE SWAP1 KECCAK256 SLOAD PUSH1 0xFF AND PUSH3 0xAF0 JUMPI PUSH3 0xB5E DUP2 PUSH1 0x1 PUSH1 0x1 PUSH1 0xA0 SHL SUB AND PUSH1 0x14 PUSH3 0xCA1 PUSH1 0x20 SHL PUSH3 0x1040 OR PUSH1 0x20 SHR JUMP JUMPDEST PUSH3 0xB74 DUP4 PUSH1 0x20 PUSH3 0x1040 PUSH3 0xCA1 DUP3 SHL OR DUP2 SHR JUMP JUMPDEST PUSH1 0x40 MLOAD PUSH1 0x20 ADD PUSH3 0xB87 SWAP3 SWAP2 SWAP1 PUSH3 0xE8D JUMP JUMPDEST PUSH1 0x40 DUP1 MLOAD PUSH1 0x1F NOT DUP2 DUP5 SUB ADD DUP2 MSTORE SWAP1 DUP3 SWAP1 MSTORE PUSH3 0x461BCD PUSH1 0xE5 SHL DUP3 MSTORE PUSH3 0xA7C SWAP2 PUSH1 0x4 ADD PUSH3 0xF06 JUMP JUMPDEST PUSH1 0x0 DUP3 DUP2 MSTORE PUSH1 0x20 DUP2 DUP2 MSTORE PUSH1 0x40 DUP1 DUP4 KECCAK256 PUSH1 0x1 PUSH1 0x1 PUSH1 0xA0 SHL SUB DUP6 AND DUP5 MSTORE SWAP1 SWAP2 MSTORE SWAP1 KECCAK256 SLOAD PUSH1 0xFF AND PUSH3 0xAF0 JUMPI PUSH1 0x0 DUP3 DUP2 MSTORE PUSH1 0x20 DUP2 DUP2 MSTORE PUSH1 0x40 DUP1 DUP4 KECCAK256 PUSH1 0x1 PUSH1 0x1 PUSH1 0xA0 SHL SUB DUP6 AND DUP5 MSTORE SWAP1 SWAP2 MSTORE SWAP1 KECCAK256 DUP1 SLOAD PUSH1 0xFF NOT AND PUSH1 0x1 OR SWAP1 SSTORE PUSH3 0xC0B CALLER SWAP1 JUMP JUMPDEST PUSH1 0x1 PUSH1 0x1 PUSH1 0xA0 SHL SUB AND DUP2 PUSH1 0x1 PUSH1 0x1 PUSH1 0xA0 SHL SUB AND DUP4 PUSH32 0x2F8788117E7EFF1D82E926EC794901D17C78024A50270940304540A733656F0D PUSH1 0x40 MLOAD PUSH1 0x40 MLOAD DUP1 SWAP2 SUB SWAP1 LOG4 POP POP JUMP JUMPDEST PUSH1 0x0 DUP2 DUP2 MSTORE PUSH1 0x1 DUP4 ADD PUSH1 0x20 MSTORE PUSH1 0x40 DUP2 KECCAK256 SLOAD PUSH3 0xC98 JUMPI POP DUP2 SLOAD PUSH1 0x1 DUP2 DUP2 ADD DUP5 SSTORE PUSH1 0x0 DUP5 DUP2 MSTORE PUSH1 0x20 DUP1 DUP3 KECCAK256 SWAP1 SWAP4 ADD DUP5 SWAP1 SSTORE DUP5 SLOAD DUP5 DUP3 MSTORE DUP3 DUP7 ADD SWAP1 SWAP4 MSTORE PUSH1 0x40 SWAP1 KECCAK256 SWAP2 SWAP1 SWAP2 SSTORE PUSH3 0xB0E JUMP JUMPDEST POP PUSH1 0x0 PUSH3 0xB0E JUMP JUMPDEST PUSH1 0x60 PUSH1 0x0 PUSH3 0xCB2 DUP4 PUSH1 0x2 PUSH3 0xF51 JUMP JUMPDEST PUSH3 0xCBF SWAP1 PUSH1 0x2 PUSH3 0xF73 JUMP JUMPDEST PUSH1 0x1 PUSH1 0x1 PUSH1 0x40 SHL SUB DUP2 GT ISZERO PUSH3 0xCD9 JUMPI PUSH3 0xCD9 PUSH3 0xF8E JUMP JUMPDEST PUSH1 0x40 MLOAD SWAP1 DUP1 DUP3 MSTORE DUP1 PUSH1 0x1F ADD PUSH1 0x1F NOT AND PUSH1 0x20 ADD DUP3 ADD PUSH1 0x40 MSTORE DUP1 ISZERO PUSH3 0xD04 JUMPI PUSH1 0x20 DUP3 ADD DUP2 DUP1 CALLDATASIZE DUP4 CALLDATACOPY ADD SWAP1 POP JUMPDEST POP SWAP1 POP PUSH1 0x3 PUSH1 0xFC SHL DUP2 PUSH1 0x0 DUP2 MLOAD DUP2 LT PUSH3 0xD22 JUMPI PUSH3 0xD22 PUSH3 0xFA4 JUMP JUMPDEST PUSH1 0x20 ADD ADD SWAP1 PUSH1 0x1 PUSH1 0x1 PUSH1 0xF8 SHL SUB NOT AND SWAP1 DUP2 PUSH1 0x0 BYTE SWAP1 MSTORE8 POP PUSH1 0xF PUSH1 0xFB SHL DUP2 PUSH1 0x1 DUP2 MLOAD DUP2 LT PUSH3 0xD54 JUMPI PUSH3 0xD54 PUSH3 0xFA4 JUMP JUMPDEST PUSH1 0x20 ADD ADD SWAP1 PUSH1 0x1 PUSH1 0x1 PUSH1 0xF8 SHL SUB NOT AND SWAP1 DUP2 PUSH1 0x0 BYTE SWAP1 MSTORE8 POP PUSH1 0x0 PUSH3 0xD7A DUP5 PUSH1 0x2 PUSH3 0xF51 JUMP JUMPDEST PUSH3 0xD87 SWAP1 PUSH1 0x1 PUSH3 0xF73 JUMP JUMPDEST SWAP1 POP JUMPDEST PUSH1 0x1 DUP2 GT ISZERO PUSH3 0xE09 JUMPI PUSH16 0x181899199A1A9B1B9C1CB0B131B232B3 PUSH1 0x81 SHL DUP6 PUSH1 0xF AND PUSH1 0x10 DUP2 LT PUSH3 0xDBF JUMPI PUSH3 0xDBF PUSH3 0xFA4 JUMP JUMPDEST BYTE PUSH1 0xF8 SHL DUP3 DUP3 DUP2 MLOAD DUP2 LT PUSH3 0xDD8 JUMPI PUSH3 0xDD8 PUSH3 0xFA4 JUMP JUMPDEST PUSH1 0x20 ADD ADD SWAP1 PUSH1 0x1 PUSH1 0x1 PUSH1 0xF8 SHL SUB NOT AND SWAP1 DUP2 PUSH1 0x0 BYTE SWAP1 MSTORE8 POP PUSH1 0x4 SWAP5 SWAP1 SWAP5 SHR SWAP4 PUSH3 0xE01 DUP2 PUSH3 0xFBA JUMP JUMPDEST SWAP1 POP PUSH3 0xD8A JUMP JUMPDEST POP DUP4 ISZERO PUSH3 0xB0B JUMPI PUSH1 0x40 MLOAD PUSH3 0x461BCD PUSH1 0xE5 SHL DUP2 MSTORE PUSH1 0x20 PUSH1 0x4 DUP3 ADD DUP2 SWAP1 MSTORE PUSH1 0x24 DUP3 ADD MSTORE PUSH32 0x537472696E67733A20686578206C656E67746820696E73756666696369656E74 PUSH1 0x44 DUP3 ADD MSTORE PUSH1 0x64 ADD PUSH3 0xA7C JUMP JUMPDEST PUSH1 0x0 JUMPDEST DUP4 DUP2 LT ISZERO PUSH3 0xE77 JUMPI DUP2 DUP2 ADD MLOAD DUP4 DUP3 ADD MSTORE PUSH1 0x20 ADD PUSH3 0xE5D JUMP JUMPDEST DUP4 DUP2 GT ISZERO PUSH3 0xE87 JUMPI PUSH1 0x0 DUP5 DUP5 ADD MSTORE JUMPDEST POP POP POP POP JUMP JUMPDEST PUSH32 0x416363657373436F6E74726F6C3A206163636F756E7420000000000000000000 DUP2 MSTORE PUSH1 0x0 DUP4 MLOAD PUSH3 0xEC7 DUP2 PUSH1 0x17 DUP6 ADD PUSH1 0x20 DUP9 ADD PUSH3 0xE5A JUMP JUMPDEST PUSH17 0x1034B99036B4B9B9B4B733903937B6329 PUSH1 0x7D SHL PUSH1 0x17 SWAP2 DUP5 ADD SWAP2 DUP3 ADD MSTORE DUP4 MLOAD PUSH3 0xEFA DUP2 PUSH1 0x28 DUP5 ADD PUSH1 0x20 DUP9 ADD PUSH3 0xE5A JUMP JUMPDEST ADD PUSH1 0x28 ADD SWAP5 SWAP4 POP POP POP POP JUMP JUMPDEST PUSH1 0x20 DUP2 MSTORE PUSH1 0x0 DUP3 MLOAD DUP1 PUSH1 0x20 DUP5 ADD MSTORE PUSH3 0xF27 DUP2 PUSH1 0x40 DUP6 ADD PUSH1 0x20 DUP8 ADD PUSH3 0xE5A JUMP JUMPDEST PUSH1 0x1F ADD PUSH1 0x1F NOT AND SWAP2 SWAP1 SWAP2 ADD PUSH1 0x40 ADD SWAP3 SWAP2 POP POP JUMP JUMPDEST PUSH4 0x4E487B71 PUSH1 0xE0 SHL PUSH1 0x0 MSTORE PUSH1 0x11 PUSH1 0x4 MSTORE PUSH1 0x24 PUSH1 0x0 REVERT JUMPDEST PUSH1 0x0 DUP2 PUSH1 0x0 NOT DIV DUP4 GT DUP3 ISZERO ISZERO AND ISZERO PUSH3 0xF6E JUMPI PUSH3 0xF6E PUSH3 0xF3B JUMP JUMPDEST POP MUL SWAP1 JUMP JUMPDEST PUSH1 0x0 DUP3 NOT DUP3 GT ISZERO PUSH3 0xF89 JUMPI PUSH3 0xF89 PUSH3 0xF3B JUMP JUMPDEST POP ADD SWAP1 JUMP JUMPDEST PUSH4 0x4E487B71 PUSH1 0xE0 SHL PUSH1 0x0 MSTORE PUSH1 0x41 PUSH1 0x4 MSTORE PUSH1 0x24 PUSH1 0x0 REVERT JUMPDEST PUSH4 0x4E487B71 PUSH1 0xE0 SHL PUSH1 0x0 MSTORE PUSH1 0x32 PUSH1 0x4 MSTORE PUSH1 0x24 PUSH1 0x0 REVERT JUMPDEST PUSH1 0x0 DUP2 PUSH3 0xFCC JUMPI PUSH3 0xFCC PUSH3 0xF3B JUMP JUMPDEST POP PUSH1 0x0 NOT ADD SWAP1 JUMP JUMPDEST PUSH2 0x1BE5 DUP1 PUSH3 0xFE4 PUSH1 0x0 CODECOPY PUSH1 0x0 RETURN INVALID PUSH1 0x80 PUSH1 0x40 MSTORE CALLVALUE DUP1 ISZERO PUSH2 0x10 JUMPI PUSH1 0x0 DUP1 REVERT JUMPDEST POP PUSH1 0x4 CALLDATASIZE LT PUSH2 0x1CF JUMPI PUSH1 0x0 CALLDATALOAD PUSH1 0xE0 SHR DUP1 PUSH4 0x60623731 GT PUSH2 0x104 JUMPI DUP1 PUSH4 0xCA15C873 GT PUSH2 0xA2 JUMPI DUP1 PUSH4 0xE53FD775 GT PUSH2 0x71 JUMPI DUP1 PUSH4 0xE53FD775 EQ PUSH2 0x426 JUMPI DUP1 PUSH4 0xEAA8F7E3 EQ PUSH2 0x439 JUMPI DUP1 PUSH4 0xED0B8476 EQ PUSH2 0x44C JUMPI DUP1 PUSH4 0xFC70DA0A EQ PUSH2 0x45F JUMPI PUSH1 0x0 DUP1 REVERT JUMPDEST DUP1 PUSH4 0xCA15C873 EQ PUSH2 0x3E5 JUMPI DUP1 PUSH4 0xD391014B EQ PUSH2 0x3F8 JUMPI DUP1 PUSH4 0xD547741F EQ PUSH2 0x400 JUMPI DUP1 PUSH4 0xDB8AA538 EQ PUSH2 0x413 JUMPI PUSH1 0x0 DUP1 REVERT JUMPDEST DUP1 PUSH4 0x91D14854 GT PUSH2 0xDE JUMPI DUP1 PUSH4 0x91D14854 EQ PUSH2 0x399 JUMPI DUP1 PUSH4 0xA8798FFC EQ PUSH2 0x3AC JUMPI DUP1 PUSH4 0xA9A48824 EQ PUSH2 0x3BF JUMPI DUP1 PUSH4 0xB8A6F8C0 EQ PUSH2 0x3D2 JUMPI PUSH1 0x0 DUP1 REVERT JUMPDEST DUP1 PUSH4 0x60623731 EQ PUSH2 0x320 JUMPI DUP1 PUSH4 0x6A930A95 EQ PUSH2 0x35B JUMPI DUP1 PUSH4 0x9010D07C EQ PUSH2 0x36E JUMPI PUSH1 0x0 DUP1 REVERT JUMPDEST DUP1 PUSH4 0x24933296 GT PUSH2 0x171 JUMPI DUP1 PUSH4 0x36568ABE GT PUSH2 0x14B JUMPI DUP1 PUSH4 0x36568ABE EQ PUSH2 0x2D4 JUMPI DUP1 PUSH4 0x404A8CCA EQ PUSH2 0x2E7 JUMPI DUP1 PUSH4 0x441C62A8 EQ PUSH2 0x2FA JUMPI DUP1 PUSH4 0x5F242323 EQ PUSH2 0x30D JUMPI PUSH1 0x0 DUP1 REVERT JUMPDEST DUP1 PUSH4 0x24933296 EQ PUSH2 0x29B JUMPI DUP1 PUSH4 0x2A5BF470 EQ PUSH2 0x2AE JUMPI DUP1 PUSH4 0x2F2FF15D EQ PUSH2 0x2C1 JUMPI PUSH1 0x0 DUP1 REVERT JUMPDEST DUP1 PUSH4 0x161AA47E GT PUSH2 0x1AD JUMPI DUP1 PUSH4 0x161AA47E EQ PUSH2 0x224 JUMPI DUP1 PUSH4 0x1FD413F8 EQ PUSH2 0x245 JUMPI DUP1 PUSH4 0x231683AE EQ PUSH2 0x265 JUMPI DUP1 PUSH4 0x248A9CA3 EQ PUSH2 0x278 JUMPI PUSH1 0x0 DUP1 REVERT JUMPDEST DUP1 PUSH4 0x1FFC9A7 EQ PUSH2 0x1D4 JUMPI DUP1 PUSH4 0x3ED957F EQ PUSH2 0x1FC JUMPI DUP1 PUSH4 0x1093BAA9 EQ PUSH2 0x211 JUMPI JUMPDEST PUSH1 0x0 DUP1 REVERT JUMPDEST PUSH2 0x1E7 PUSH2 0x1E2 CALLDATASIZE PUSH1 0x4 PUSH2 0x15B5 JUMP JUMPDEST PUSH2 0x472 JUMP JUMPDEST PUSH1 0x40 MLOAD SWAP1 ISZERO ISZERO DUP2 MSTORE PUSH1 0x20 ADD JUMPDEST PUSH1 0x40 MLOAD DUP1 SWAP2 SUB SWAP1 RETURN JUMPDEST PUSH2 0x20F PUSH2 0x20A CALLDATASIZE PUSH1 0x4 PUSH2 0x15DF JUMP JUMPDEST PUSH2 0x49D JUMP JUMPDEST STOP JUMPDEST PUSH2 0x20F PUSH2 0x21F CALLDATASIZE PUSH1 0x4 PUSH2 0x1670 JUMP JUMPDEST PUSH2 0x51A JUMP JUMPDEST PUSH2 0x237 PUSH2 0x232 CALLDATASIZE PUSH1 0x4 PUSH2 0x168B JUMP JUMPDEST PUSH2 0x5A3 JUMP JUMPDEST PUSH1 0x40 MLOAD SWAP1 DUP2 MSTORE PUSH1 0x20 ADD PUSH2 0x1F3 JUMP JUMPDEST PUSH2 0x258 PUSH2 0x253 CALLDATASIZE PUSH1 0x4 PUSH2 0x16D4 JUMP JUMPDEST PUSH2 0x5DD JUMP JUMPDEST PUSH1 0x40 MLOAD PUSH2 0x1F3 SWAP2 SWAP1 PUSH2 0x1799 JUMP JUMPDEST PUSH2 0x20F PUSH2 0x273 CALLDATASIZE PUSH1 0x4 PUSH2 0x17F6 JUMP JUMPDEST PUSH2 0x687 JUMP JUMPDEST PUSH2 0x237 PUSH2 0x286 CALLDATASIZE PUSH1 0x4 PUSH2 0x1820 JUMP JUMPDEST PUSH1 0x0 SWAP1 DUP2 MSTORE PUSH1 0x20 DUP2 SWAP1 MSTORE PUSH1 0x40 SWAP1 KECCAK256 PUSH1 0x1 ADD SLOAD SWAP1 JUMP JUMPDEST PUSH2 0x1E7 PUSH2 0x2A9 CALLDATASIZE PUSH1 0x4 PUSH2 0x1670 JUMP JUMPDEST PUSH2 0x6BF JUMP JUMPDEST PUSH2 0x20F PUSH2 0x2BC CALLDATASIZE PUSH1 0x4 PUSH2 0x1839 JUMP JUMPDEST PUSH2 0x6EC JUMP JUMPDEST PUSH2 0x20F PUSH2 0x2CF CALLDATASIZE PUSH1 0x4 PUSH2 0x1875 JUMP JUMPDEST PUSH2 0x752 JUMP JUMPDEST PUSH2 0x20F PUSH2 0x2E2 CALLDATASIZE PUSH1 0x4 PUSH2 0x1875 JUMP JUMPDEST PUSH2 0x779 JUMP JUMPDEST PUSH2 0x20F PUSH2 0x2F5 CALLDATASIZE PUSH1 0x4 PUSH2 0x18E4 JUMP JUMPDEST PUSH2 0x79B JUMP JUMPDEST PUSH2 0x258 PUSH2 0x308 CALLDATASIZE PUSH1 0x4 PUSH2 0x16D4 JUMP JUMPDEST PUSH2 0x81F JUMP JUMPDEST PUSH2 0x1E7 PUSH2 0x31B CALLDATASIZE PUSH1 0x4 PUSH2 0x1670 JUMP JUMPDEST PUSH2 0x8C1 JUMP JUMPDEST PUSH2 0x333 PUSH2 0x32E CALLDATASIZE PUSH1 0x4 PUSH2 0x1938 JUMP JUMPDEST PUSH2 0x8EE JUMP JUMPDEST PUSH1 0x40 DUP1 MLOAD DUP3 MLOAD ISZERO ISZERO DUP2 MSTORE PUSH1 0x20 DUP1 DUP5 ADD MLOAD ISZERO ISZERO SWAP1 DUP3 ADD MSTORE SWAP2 DUP2 ADD MLOAD ISZERO ISZERO SWAP1 DUP3 ADD MSTORE PUSH1 0x60 ADD PUSH2 0x1F3 JUMP JUMPDEST PUSH2 0x20F PUSH2 0x369 CALLDATASIZE PUSH1 0x4 PUSH2 0x1972 JUMP JUMPDEST PUSH2 0xBF7 JUMP JUMPDEST PUSH2 0x381 PUSH2 0x37C CALLDATASIZE PUSH1 0x4 PUSH2 0x19B4 JUMP JUMPDEST PUSH2 0xCC2 JUMP JUMPDEST PUSH1 0x40 MLOAD PUSH1 0x1 PUSH1 0x1 PUSH1 0xA0 SHL SUB SWAP1 SWAP2 AND DUP2 MSTORE PUSH1 0x20 ADD PUSH2 0x1F3 JUMP JUMPDEST PUSH2 0x1E7 PUSH2 0x3A7 CALLDATASIZE PUSH1 0x4 PUSH2 0x1875 JUMP JUMPDEST PUSH2 0xCE1 JUMP JUMPDEST PUSH2 0x20F PUSH2 0x3BA CALLDATASIZE PUSH1 0x4 PUSH2 0x18E4 JUMP JUMPDEST PUSH2 0xD0A JUMP JUMPDEST PUSH2 0x20F PUSH2 0x3CD CALLDATASIZE PUSH1 0x4 PUSH2 0x1670 JUMP JUMPDEST PUSH2 0xD87 JUMP JUMPDEST PUSH2 0x20F PUSH2 0x3E0 CALLDATASIZE PUSH1 0x4 PUSH2 0x18E4 JUMP JUMPDEST PUSH2 0xE08 JUMP JUMPDEST PUSH2 0x237 PUSH2 0x3F3 CALLDATASIZE PUSH1 0x4 PUSH2 0x1820 JUMP JUMPDEST PUSH2 0xE85 JUMP JUMPDEST PUSH2 0x237 PUSH1 0x0 DUP2 JUMP JUMPDEST PUSH2 0x20F PUSH2 0x40E CALLDATASIZE PUSH1 0x4 PUSH2 0x1875 JUMP JUMPDEST PUSH2 0xE9C JUMP JUMPDEST PUSH2 0x1E7 PUSH2 0x421 CALLDATASIZE PUSH1 0x4 PUSH2 0x1670 JUMP JUMPDEST PUSH2 0xEA6 JUMP JUMPDEST PUSH2 0x237 PUSH2 0x434 CALLDATASIZE PUSH1 0x4 PUSH2 0x1670 JUMP JUMPDEST PUSH2 0xED3 JUMP JUMPDEST PUSH2 0x1E7 PUSH2 0x447 CALLDATASIZE PUSH1 0x4 PUSH2 0x1670 JUMP JUMPDEST PUSH2 0xF22 JUMP JUMPDEST PUSH2 0x20F PUSH2 0x45A CALLDATASIZE PUSH1 0x4 PUSH2 0x19D6 JUMP JUMPDEST PUSH2 0xFBC JUMP JUMPDEST PUSH2 0x20F PUSH2 0x46D CALLDATASIZE PUSH1 0x4 PUSH2 0x17F6 JUMP JUMPDEST PUSH2 0xFE5 JUMP JUMPDEST PUSH1 0x0 PUSH1 0x1 PUSH1 0x1 PUSH1 0xE0 SHL SUB NOT DUP3 AND PUSH4 0x5A05180F PUSH1 0xE0 SHL EQ DUP1 PUSH2 0x497 JUMPI POP PUSH2 0x497 DUP3 PUSH2 0x11DC JUMP JUMPDEST SWAP3 SWAP2 POP POP JUMP JUMPDEST PUSH1 0x0 PUSH2 0x4A9 DUP2 CALLER PUSH2 0x1211 JUMP JUMPDEST PUSH1 0x0 JUMPDEST DUP3 DUP2 LT ISZERO PUSH2 0x514 JUMPI PUSH2 0x502 DUP5 DUP5 DUP4 DUP2 DUP2 LT PUSH2 0x4C9 JUMPI PUSH2 0x4C9 PUSH2 0x1A00 JUMP JUMPDEST SWAP1 POP PUSH1 0x40 MUL ADD PUSH1 0x0 ADD CALLDATALOAD DUP6 DUP6 DUP5 DUP2 DUP2 LT PUSH2 0x4E5 JUMPI PUSH2 0x4E5 PUSH2 0x1A00 JUMP JUMPDEST SWAP1 POP PUSH1 0x40 MUL ADD PUSH1 0x20 ADD PUSH1 0x20 DUP2 ADD SWAP1 PUSH2 0x4FD SWAP2 SWAP1 PUSH2 0x1670 JUMP JUMPDEST PUSH2 0x1275 JUMP JUMPDEST DUP1 PUSH2 0x50C DUP2 PUSH2 0x1A2C JUMP JUMPDEST SWAP2 POP POP PUSH2 0x4AC JUMP JUMPDEST POP POP POP POP JUMP JUMPDEST PUSH1 0x0 PUSH2 0x526 DUP2 CALLER PUSH2 0x1211 JUMP JUMPDEST PUSH1 0x1 PUSH1 0x1 PUSH1 0xA0 SHL SUB DUP3 AND PUSH1 0x0 SWAP1 DUP2 MSTORE PUSH1 0x2 PUSH1 0x20 MSTORE PUSH1 0x40 SWAP1 KECCAK256 SLOAD PUSH1 0xFF AND ISZERO PUSH2 0x57E JUMPI PUSH1 0x40 MLOAD PUSH3 0x461BCD PUSH1 0xE5 SHL DUP2 MSTORE PUSH1 0x20 PUSH1 0x4 DUP3 ADD MSTORE PUSH1 0x7 PUSH1 0x24 DUP3 ADD MSTORE PUSH7 0x1114CE88189BDD PUSH1 0xCA SHL PUSH1 0x44 DUP3 ADD MSTORE PUSH1 0x64 ADD JUMPDEST PUSH1 0x40 MLOAD DUP1 SWAP2 SUB SWAP1 REVERT JUMPDEST POP PUSH1 0x1 PUSH1 0x1 PUSH1 0xA0 SHL SUB AND PUSH1 0x0 SWAP1 DUP2 MSTORE PUSH1 0x2 PUSH1 0x20 MSTORE PUSH1 0x40 SWAP1 KECCAK256 DUP1 SLOAD PUSH1 0xFF NOT AND PUSH1 0x1 OR SWAP1 SSTORE JUMP JUMPDEST PUSH1 0x0 DUP1 PUSH2 0x5B0 DUP2 CALLER PUSH2 0x1211 JUMP JUMPDEST POP POP PUSH1 0x1 PUSH1 0x1 PUSH1 0xA0 SHL SUB SWAP2 DUP3 AND PUSH1 0x0 SWAP1 DUP2 MSTORE PUSH1 0x5 PUSH1 0x20 SWAP1 DUP2 MSTORE PUSH1 0x40 DUP1 DUP4 KECCAK256 SWAP4 SWAP1 SWAP5 AND DUP3 MSTORE SWAP2 SWAP1 SWAP2 MSTORE KECCAK256 SLOAD SWAP1 JUMP JUMPDEST PUSH1 0x60 PUSH1 0x0 PUSH2 0x5EB DUP2 CALLER PUSH2 0x1211 JUMP JUMPDEST PUSH1 0x0 JUMPDEST DUP4 MLOAD DUP2 LT ISZERO PUSH2 0x67F JUMPI PUSH1 0x3 PUSH1 0x0 DUP6 DUP4 DUP2 MLOAD DUP2 LT PUSH2 0x60D JUMPI PUSH2 0x60D PUSH2 0x1A00 JUMP JUMPDEST PUSH1 0x20 SWAP1 DUP2 MUL SWAP2 SWAP1 SWAP2 ADD DUP2 ADD MLOAD PUSH1 0x1 PUSH1 0x1 PUSH1 0xA0 SHL SUB AND DUP3 MSTORE DUP2 ADD SWAP2 SWAP1 SWAP2 MSTORE PUSH1 0x40 ADD PUSH1 0x0 KECCAK256 SLOAD PUSH1 0xFF AND PUSH2 0x66D JUMPI PUSH1 0x0 DUP5 DUP3 DUP2 MLOAD DUP2 LT PUSH2 0x64C JUMPI PUSH2 0x64C PUSH2 0x1A00 JUMP JUMPDEST PUSH1 0x20 MUL PUSH1 0x20 ADD ADD SWAP1 PUSH1 0x1 PUSH1 0x1 PUSH1 0xA0 SHL SUB AND SWAP1 DUP2 PUSH1 0x1 PUSH1 0x1 PUSH1 0xA0 SHL SUB AND DUP2 MSTORE POP POP JUMPDEST DUP1 PUSH2 0x677 DUP2 PUSH2 0x1A2C JUMP JUMPDEST SWAP2 POP POP PUSH2 0x5EE JUMP JUMPDEST POP SWAP2 SWAP3 SWAP2 POP POP JUMP JUMPDEST PUSH1 0x0 PUSH2 0x693 DUP2 CALLER PUSH2 0x1211 JUMP JUMPDEST POP PUSH1 0x1 PUSH1 0x1 PUSH1 0xA0 SHL SUB SWAP2 SWAP1 SWAP2 AND PUSH1 0x0 SWAP1 DUP2 MSTORE PUSH1 0x3 PUSH1 0x20 MSTORE PUSH1 0x40 SWAP1 KECCAK256 DUP1 SLOAD PUSH1 0xFF NOT AND SWAP2 ISZERO ISZERO SWAP2 SWAP1 SWAP2 OR SWAP1 SSTORE JUMP JUMPDEST PUSH1 0x0 DUP1 PUSH2 0x6CC DUP2 CALLER PUSH2 0x1211 JUMP JUMPDEST POP POP PUSH1 0x1 PUSH1 0x1 PUSH1 0xA0 SHL SUB AND PUSH1 0x0 SWAP1 DUP2 MSTORE PUSH1 0x6 PUSH1 0x20 MSTORE PUSH1 0x40 SWAP1 KECCAK256 SLOAD PUSH1 0xFF AND SWAP1 JUMP JUMPDEST PUSH1 0x0 PUSH2 0x6F8 DUP2 CALLER PUSH2 0x1211 JUMP JUMPDEST DUP3 EXTCODESIZE ISZERO DUP1 ISZERO PUSH2 0x720 JUMPI POP PUSH1 0x1 PUSH1 0x1 PUSH1 0xA0 SHL SUB DUP4 AND PUSH1 0x0 SWAP1 DUP2 MSTORE PUSH1 0x3 PUSH1 0x20 MSTORE PUSH1 0x40 SWAP1 KECCAK256 SLOAD PUSH1 0xFF AND ISZERO JUMPDEST ISZERO PUSH2 0x514 JUMPI POP PUSH1 0x1 PUSH1 0x1 PUSH1 0xA0 SHL SUB SWAP3 DUP4 AND PUSH1 0x0 SWAP1 DUP2 MSTORE PUSH1 0x5 PUSH1 0x20 SWAP1 DUP2 MSTORE PUSH1 0x40 DUP1 DUP4 KECCAK256 SWAP5 SWAP1 SWAP6 AND DUP3 MSTORE SWAP3 SWAP1 SWAP3 MSTORE SWAP2 SWAP1 KECCAK256 SSTORE JUMP JUMPDEST PUSH2 0x75C DUP3 DUP3 PUSH2 0x127F JUMP JUMPDEST PUSH1 0x0 DUP3 DUP2 MSTORE PUSH1 0x1 PUSH1 0x20 MSTORE PUSH1 0x40 SWAP1 KECCAK256 PUSH2 0x774 SWAP1 DUP3 PUSH2 0x102B JUMP JUMPDEST POP POP POP JUMP JUMPDEST PUSH2 0x783 DUP3 DUP3 PUSH2 0x1295 JUMP JUMPDEST PUSH1 0x0 DUP3 DUP2 MSTORE PUSH1 0x1 PUSH1 0x20 MSTORE PUSH1 0x40 SWAP1 KECCAK256 PUSH2 0x774 SWAP1 DUP3 PUSH2 0x130F JUMP JUMPDEST PUSH1 0x0 PUSH2 0x7A7 DUP2 CALLER PUSH2 0x1211 JUMP JUMPDEST PUSH1 0x0 JUMPDEST DUP4 DUP2 LT ISZERO PUSH2 0x818 JUMPI DUP3 PUSH1 0x2 PUSH1 0x0 DUP8 DUP8 DUP6 DUP2 DUP2 LT PUSH2 0x7C9 JUMPI PUSH2 0x7C9 PUSH2 0x1A00 JUMP JUMPDEST SWAP1 POP PUSH1 0x20 MUL ADD PUSH1 0x20 DUP2 ADD SWAP1 PUSH2 0x7DE SWAP2 SWAP1 PUSH2 0x1670 JUMP JUMPDEST PUSH1 0x1 PUSH1 0x1 PUSH1 0xA0 SHL SUB AND DUP2 MSTORE PUSH1 0x20 DUP2 ADD SWAP2 SWAP1 SWAP2 MSTORE PUSH1 0x40 ADD PUSH1 0x0 KECCAK256 DUP1 SLOAD PUSH1 0xFF NOT AND SWAP2 ISZERO ISZERO SWAP2 SWAP1 SWAP2 OR SWAP1 SSTORE DUP1 PUSH2 0x810 DUP2 PUSH2 0x1A2C JUMP JUMPDEST SWAP2 POP POP PUSH2 0x7AA JUMP JUMPDEST POP POP POP POP POP JUMP JUMPDEST PUSH1 0x60 PUSH1 0x0 PUSH2 0x82D DUP2 CALLER PUSH2 0x1211 JUMP JUMPDEST PUSH1 0x0 JUMPDEST DUP4 MLOAD DUP2 LT ISZERO PUSH2 0x67F JUMPI PUSH1 0x2 PUSH1 0x0 DUP6 DUP4 DUP2 MLOAD DUP2 LT PUSH2 0x84F JUMPI PUSH2 0x84F PUSH2 0x1A00 JUMP JUMPDEST PUSH1 0x20 SWAP1 DUP2 MUL SWAP2 SWAP1 SWAP2 ADD DUP2 ADD MLOAD PUSH1 0x1 PUSH1 0x1 PUSH1 0xA0 SHL SUB AND DUP3 MSTORE DUP2 ADD SWAP2 SWAP1 SWAP2 MSTORE PUSH1 0x40 ADD PUSH1 0x0 KECCAK256 SLOAD PUSH1 0xFF AND PUSH2 0x8AF JUMPI PUSH1 0x0 DUP5 DUP3 DUP2 MLOAD DUP2 LT PUSH2 0x88E JUMPI PUSH2 0x88E PUSH2 0x1A00 JUMP JUMPDEST PUSH1 0x20 MUL PUSH1 0x20 ADD ADD SWAP1 PUSH1 0x1 PUSH1 0x1 PUSH1 0xA0 SHL SUB AND SWAP1 DUP2 PUSH1 0x1 PUSH1 0x1 PUSH1 0xA0 SHL SUB AND DUP2 MSTORE POP POP JUMPDEST DUP1 PUSH2 0x8B9 DUP2 PUSH2 0x1A2C JUMP JUMPDEST SWAP2 POP POP PUSH2 0x830 JUMP JUMPDEST PUSH1 0x0 DUP1 PUSH2 0x8CE DUP2 CALLER PUSH2 0x1211 JUMP JUMPDEST POP POP PUSH1 0x1 PUSH1 0x1 PUSH1 0xA0 SHL SUB AND PUSH1 0x0 SWAP1 DUP2 MSTORE PUSH1 0x2 PUSH1 0x20 MSTORE PUSH1 0x40 SWAP1 KECCAK256 SLOAD PUSH1 0xFF AND SWAP1 JUMP JUMPDEST PUSH1 0x40 DUP1 MLOAD PUSH1 0x60 DUP2 ADD DUP3 MSTORE PUSH1 0x0 DUP1 DUP3 MSTORE PUSH1 0x20 DUP3 ADD DUP2 SWAP1 MSTORE SWAP2 DUP2 ADD DUP3 SWAP1 MSTORE SWAP1 PUSH2 0x915 DUP2 CALLER PUSH2 0x1211 JUMP JUMPDEST PUSH1 0x1 PUSH1 0x1 PUSH1 0xA0 SHL SUB DUP1 DUP5 AND PUSH1 0x0 SWAP1 DUP2 MSTORE PUSH1 0x6 PUSH1 0x20 DUP2 DUP2 MSTORE PUSH1 0x40 DUP1 DUP5 KECCAK256 SLOAD PUSH1 0xFF SWAP1 DUP2 AND ISZERO ISZERO DUP9 DUP4 ADD MSTORE DUP10 DUP7 AND DUP6 MSTORE SWAP3 DUP3 MSTORE DUP1 DUP5 KECCAK256 SLOAD SWAP1 SWAP3 AND ISZERO ISZERO DUP7 DUP3 ADD MSTORE SWAP3 DUP9 AND DUP3 MSTORE PUSH1 0x4 SWAP1 SWAP3 MSTORE SWAP1 DUP2 KECCAK256 SLOAD PUSH2 0x96C JUMPI PUSH2 0x12C PUSH2 0x986 JUMP JUMPDEST PUSH1 0x1 PUSH1 0x1 PUSH1 0xA0 SHL SUB DUP7 AND PUSH1 0x0 SWAP1 DUP2 MSTORE PUSH1 0x4 PUSH1 0x20 MSTORE PUSH1 0x40 SWAP1 KECCAK256 SLOAD JUMPDEST SWAP1 POP PUSH1 0x0 DUP4 PUSH1 0x20 ADD MLOAD DUP1 ISZERO PUSH2 0x9A4 JUMPI POP ORIGIN PUSH1 0x1 PUSH1 0x1 PUSH1 0xA0 SHL SUB DUP7 AND EQ ISZERO JUMPDEST DUP1 ISZERO PUSH2 0x9AF JUMPI POP DUP5 EXTCODESIZE ISZERO JUMPDEST DUP1 ISZERO PUSH2 0x9D4 JUMPI POP PUSH1 0x1 PUSH1 0x1 PUSH1 0xA0 SHL SUB DUP6 AND PUSH1 0x0 SWAP1 DUP2 MSTORE PUSH1 0x3 PUSH1 0x20 MSTORE PUSH1 0x40 SWAP1 KECCAK256 SLOAD PUSH1 0xFF AND ISZERO JUMPDEST DUP1 ISZERO PUSH2 0xA5B JUMPI POP PUSH1 0x40 MLOAD PUSH4 0x70A08231 PUSH1 0xE0 SHL DUP2 MSTORE PUSH1 0x1 PUSH1 0x1 PUSH1 0xA0 SHL SUB DUP7 DUP2 AND PUSH1 0x4 DUP4 ADD MSTORE PUSH1 0x1 SWAP2 SWAP1 DUP10 AND SWAP1 PUSH4 0x70A08231 SWAP1 PUSH1 0x24 ADD PUSH1 0x20 PUSH1 0x40 MLOAD DUP1 DUP4 SUB DUP2 DUP7 DUP1 EXTCODESIZE ISZERO DUP1 ISZERO PUSH2 0xA20 JUMPI PUSH1 0x0 DUP1 REVERT JUMPDEST POP GAS STATICCALL ISZERO DUP1 ISZERO PUSH2 0xA34 JUMPI RETURNDATASIZE PUSH1 0x0 DUP1 RETURNDATACOPY RETURNDATASIZE PUSH1 0x0 REVERT JUMPDEST POP POP POP POP PUSH1 0x40 MLOAD RETURNDATASIZE PUSH1 0x1F NOT PUSH1 0x1F DUP3 ADD AND DUP3 ADD DUP1 PUSH1 0x40 MSTORE POP DUP2 ADD SWAP1 PUSH2 0xA58 SWAP2 SWAP1 PUSH2 0x1A47 JUMP JUMPDEST GT ISZERO JUMPDEST ISZERO PUSH2 0xA88 JUMPI PUSH1 0x1 PUSH1 0x1 PUSH1 0xA0 SHL SUB DUP6 AND PUSH1 0x0 SWAP1 DUP2 MSTORE PUSH1 0x2 PUSH1 0x20 MSTORE PUSH1 0x40 SWAP1 KECCAK256 DUP1 SLOAD PUSH1 0xFF NOT AND PUSH1 0x1 OR SWAP1 SSTORE PUSH2 0xBEB JUMP JUMPDEST DUP4 PUSH1 0x20 ADD MLOAD ISZERO DUP1 ISZERO PUSH2 0xB5C JUMPI POP DUP6 EXTCODESIZE ISZERO ISZERO DUP1 PUSH2 0xABC JUMPI POP PUSH1 0x1 PUSH1 0x1 PUSH1 0xA0 SHL SUB DUP7 AND PUSH1 0x0 SWAP1 DUP2 MSTORE PUSH1 0x2 PUSH1 0x20 MSTORE PUSH1 0x40 SWAP1 KECCAK256 SLOAD PUSH1 0xFF AND JUMPDEST DUP1 PUSH2 0xAD6 JUMPI POP PUSH1 0x1 PUSH1 0x1 PUSH1 0x80 SHL SUB PUSH1 0x1 PUSH1 0x1 PUSH1 0xA0 SHL SUB DUP8 AND LT JUMPDEST DUP1 PUSH2 0xB12 JUMPI POP PUSH1 0x1 PUSH1 0x1 PUSH1 0xA0 SHL SUB DUP1 DUP9 AND PUSH1 0x0 SWAP1 DUP2 MSTORE PUSH1 0x5 PUSH1 0x20 SWAP1 DUP2 MSTORE PUSH1 0x40 DUP1 DUP4 KECCAK256 SWAP4 DUP11 AND DUP4 MSTORE SWAP3 SWAP1 MSTORE KECCAK256 SLOAD TIMESTAMP SWAP1 PUSH2 0xB0F SWAP1 DUP5 SWAP1 PUSH2 0x1A60 JUMP JUMPDEST LT ISZERO JUMPDEST DUP1 ISZERO PUSH2 0xB37 JUMPI POP PUSH1 0x1 PUSH1 0x1 PUSH1 0xA0 SHL SUB DUP7 AND PUSH1 0x0 SWAP1 DUP2 MSTORE PUSH1 0x6 PUSH1 0x20 MSTORE PUSH1 0x40 SWAP1 KECCAK256 SLOAD PUSH1 0xFF AND ISZERO JUMPDEST DUP1 ISZERO PUSH2 0xB5C JUMPI POP PUSH1 0x1 PUSH1 0x1 PUSH1 0xA0 SHL SUB DUP7 AND PUSH1 0x0 SWAP1 DUP2 MSTORE PUSH1 0x3 PUSH1 0x20 MSTORE PUSH1 0x40 SWAP1 KECCAK256 SLOAD PUSH1 0xFF AND ISZERO JUMPDEST ISZERO PUSH2 0xBEB JUMPI DUP4 PUSH1 0x40 ADD MLOAD ISZERO PUSH2 0xB73 JUMPI POP PUSH1 0x1 PUSH2 0xBC7 JUMP JUMPDEST PUSH1 0x40 MLOAD PUSH3 0x461BCD PUSH1 0xE5 SHL DUP2 MSTORE PUSH1 0x20 PUSH1 0x4 DUP3 ADD MSTORE PUSH1 0x24 DUP1 DUP3 ADD MSTORE PUSH32 0x44533A205472616E7366657273206172652074656D706F726172792064697361 PUSH1 0x44 DUP3 ADD MSTORE PUSH4 0x189B1959 PUSH1 0xE2 SHL PUSH1 0x64 DUP3 ADD MSTORE PUSH1 0x84 ADD PUSH2 0x575 JUMP JUMPDEST PUSH1 0x1 PUSH1 0x1 PUSH1 0xA0 SHL SUB DUP7 AND PUSH1 0x0 SWAP1 DUP2 MSTORE PUSH1 0x2 PUSH1 0x20 MSTORE PUSH1 0x40 SWAP1 KECCAK256 DUP1 SLOAD PUSH1 0xFF NOT AND PUSH1 0x1 OR SWAP1 SSTORE JUMPDEST ISZERO DUP4 MSTORE POP POP SWAP4 SWAP3 POP POP POP JUMP JUMPDEST PUSH1 0x0 PUSH2 0xC03 DUP2 CALLER PUSH2 0x1211 JUMP JUMPDEST PUSH1 0x0 JUMPDEST DUP3 DUP2 LT ISZERO PUSH2 0x514 JUMPI PUSH1 0x2 PUSH1 0x0 DUP6 DUP6 DUP5 DUP2 DUP2 LT PUSH2 0xC24 JUMPI PUSH2 0xC24 PUSH2 0x1A00 JUMP JUMPDEST SWAP1 POP PUSH1 0x20 MUL ADD PUSH1 0x20 DUP2 ADD SWAP1 PUSH2 0xC39 SWAP2 SWAP1 PUSH2 0x1670 JUMP JUMPDEST PUSH1 0x1 PUSH1 0x1 PUSH1 0xA0 SHL SUB AND DUP2 MSTORE PUSH1 0x20 DUP2 ADD SWAP2 SWAP1 SWAP2 MSTORE PUSH1 0x40 ADD PUSH1 0x0 KECCAK256 SLOAD PUSH1 0xFF AND PUSH2 0xCB0 JUMPI PUSH1 0x1 PUSH1 0x2 PUSH1 0x0 DUP7 DUP7 DUP6 DUP2 DUP2 LT PUSH2 0xC72 JUMPI PUSH2 0xC72 PUSH2 0x1A00 JUMP JUMPDEST SWAP1 POP PUSH1 0x20 MUL ADD PUSH1 0x20 DUP2 ADD SWAP1 PUSH2 0xC87 SWAP2 SWAP1 PUSH2 0x1670 JUMP JUMPDEST PUSH1 0x1 PUSH1 0x1 PUSH1 0xA0 SHL SUB AND DUP2 MSTORE PUSH1 0x20 DUP2 ADD SWAP2 SWAP1 SWAP2 MSTORE PUSH1 0x40 ADD PUSH1 0x0 KECCAK256 DUP1 SLOAD PUSH1 0xFF NOT AND SWAP2 ISZERO ISZERO SWAP2 SWAP1 SWAP2 OR SWAP1 SSTORE JUMPDEST DUP1 PUSH2 0xCBA DUP2 PUSH2 0x1A2C JUMP JUMPDEST SWAP2 POP POP PUSH2 0xC06 JUMP JUMPDEST PUSH1 0x0 DUP3 DUP2 MSTORE PUSH1 0x1 PUSH1 0x20 MSTORE PUSH1 0x40 DUP2 KECCAK256 PUSH2 0xCDA SWAP1 DUP4 PUSH2 0x1324 JUMP JUMPDEST SWAP4 SWAP3 POP POP POP JUMP JUMPDEST PUSH1 0x0 SWAP2 DUP3 MSTORE PUSH1 0x20 DUP3 DUP2 MSTORE PUSH1 0x40 DUP1 DUP5 KECCAK256 PUSH1 0x1 PUSH1 0x1 PUSH1 0xA0 SHL SUB SWAP4 SWAP1 SWAP4 AND DUP5 MSTORE SWAP2 SWAP1 MSTORE SWAP1 KECCAK256 SLOAD PUSH1 0xFF AND SWAP1 JUMP JUMPDEST PUSH1 0x0 PUSH2 0xD16 DUP2 CALLER PUSH2 0x1211 JUMP JUMPDEST PUSH1 0x0 JUMPDEST DUP4 DUP2 LT ISZERO PUSH2 0x818 JUMPI DUP3 PUSH1 0x3 PUSH1 0x0 DUP8 DUP8 DUP6 DUP2 DUP2 LT PUSH2 0xD38 JUMPI PUSH2 0xD38 PUSH2 0x1A00 JUMP JUMPDEST SWAP1 POP PUSH1 0x20 MUL ADD PUSH1 0x20 DUP2 ADD SWAP1 PUSH2 0xD4D SWAP2 SWAP1 PUSH2 0x1670 JUMP JUMPDEST PUSH1 0x1 PUSH1 0x1 PUSH1 0xA0 SHL SUB AND DUP2 MSTORE PUSH1 0x20 DUP2 ADD SWAP2 SWAP1 SWAP2 MSTORE PUSH1 0x40 ADD PUSH1 0x0 KECCAK256 DUP1 SLOAD PUSH1 0xFF NOT AND SWAP2 ISZERO ISZERO SWAP2 SWAP1 SWAP2 OR SWAP1 SSTORE DUP1 PUSH2 0xD7F DUP2 PUSH2 0x1A2C JUMP JUMPDEST SWAP2 POP POP PUSH2 0xD19 JUMP JUMPDEST PUSH1 0x0 PUSH2 0xD93 DUP2 CALLER PUSH2 0x1211 JUMP JUMPDEST PUSH1 0x1 PUSH1 0x1 PUSH1 0xA0 SHL SUB DUP3 AND PUSH1 0x0 SWAP1 DUP2 MSTORE PUSH1 0x2 PUSH1 0x20 MSTORE PUSH1 0x40 SWAP1 KECCAK256 SLOAD PUSH1 0xFF AND PUSH2 0xDE6 JUMPI PUSH1 0x40 MLOAD PUSH3 0x461BCD PUSH1 0xE5 SHL DUP2 MSTORE PUSH1 0x20 PUSH1 0x4 DUP3 ADD MSTORE PUSH1 0x8 PUSH1 0x24 DUP3 ADD MSTORE PUSH8 0x1114CE8808589BDD PUSH1 0xC2 SHL PUSH1 0x44 DUP3 ADD MSTORE PUSH1 0x64 ADD PUSH2 0x575 JUMP JUMPDEST POP PUSH1 0x1 PUSH1 0x1 PUSH1 0xA0 SHL SUB AND PUSH1 0x0 SWAP1 DUP2 MSTORE PUSH1 0x2 PUSH1 0x20 MSTORE PUSH1 0x40 SWAP1 KECCAK256 DUP1 SLOAD PUSH1 0xFF NOT AND SWAP1 SSTORE JUMP JUMPDEST PUSH1 0x0 PUSH2 0xE14 DUP2 CALLER PUSH2 0x1211 JUMP JUMPDEST PUSH1 0x0 JUMPDEST DUP4 DUP2 LT ISZERO PUSH2 0x818 JUMPI DUP3 PUSH1 0x6 PUSH1 0x0 DUP8 DUP8 DUP6 DUP2 DUP2 LT PUSH2 0xE36 JUMPI PUSH2 0xE36 PUSH2 0x1A00 JUMP JUMPDEST SWAP1 POP PUSH1 0x20 MUL ADD PUSH1 0x20 DUP2 ADD SWAP1 PUSH2 0xE4B SWAP2 SWAP1 PUSH2 0x1670 JUMP JUMPDEST PUSH1 0x1 PUSH1 0x1 PUSH1 0xA0 SHL SUB AND DUP2 MSTORE PUSH1 0x20 DUP2 ADD SWAP2 SWAP1 SWAP2 MSTORE PUSH1 0x40 ADD PUSH1 0x0 KECCAK256 DUP1 SLOAD PUSH1 0xFF NOT AND SWAP2 ISZERO ISZERO SWAP2 SWAP1 SWAP2 OR SWAP1 SSTORE DUP1 PUSH2 0xE7D DUP2 PUSH2 0x1A2C JUMP JUMPDEST SWAP2 POP POP PUSH2 0xE17 JUMP JUMPDEST PUSH1 0x0 DUP2 DUP2 MSTORE PUSH1 0x1 PUSH1 0x20 MSTORE PUSH1 0x40 DUP2 KECCAK256 PUSH2 0x497 SWAP1 PUSH2 0x1330 JUMP JUMPDEST PUSH2 0x783 DUP3 DUP3 PUSH2 0x133A JUMP JUMPDEST PUSH1 0x0 DUP1 PUSH2 0xEB3 DUP2 CALLER PUSH2 0x1211 JUMP JUMPDEST POP POP PUSH1 0x1 PUSH1 0x1 PUSH1 0xA0 SHL SUB AND PUSH1 0x0 SWAP1 DUP2 MSTORE PUSH1 0x3 PUSH1 0x20 MSTORE PUSH1 0x40 SWAP1 KECCAK256 SLOAD PUSH1 0xFF AND SWAP1 JUMP JUMPDEST PUSH1 0x0 DUP1 PUSH2 0xEE0 DUP2 CALLER PUSH2 0x1211 JUMP JUMPDEST PUSH1 0x1 PUSH1 0x1 PUSH1 0xA0 SHL SUB DUP4 AND PUSH1 0x0 SWAP1 DUP2 MSTORE PUSH1 0x4 PUSH1 0x20 MSTORE PUSH1 0x40 SWAP1 KECCAK256 SLOAD PUSH2 0xF05 JUMPI PUSH2 0x12C PUSH2 0xCDA JUMP JUMPDEST POP POP PUSH1 0x1 PUSH1 0x1 PUSH1 0xA0 SHL SUB AND PUSH1 0x0 SWAP1 DUP2 MSTORE PUSH1 0x4 PUSH1 0x20 MSTORE PUSH1 0x40 SWAP1 KECCAK256 SLOAD SWAP1 JUMP JUMPDEST PUSH1 0x0 DUP1 PUSH2 0xF2F DUP2 CALLER PUSH2 0x1211 JUMP JUMPDEST PUSH1 0x1 PUSH1 0x1 PUSH1 0x80 SHL SUB PUSH1 0x1 PUSH1 0x1 PUSH1 0xA0 SHL SUB DUP5 AND LT DUP1 PUSH2 0xF65 JUMPI POP PUSH1 0x1 PUSH1 0x1 PUSH1 0xA0 SHL SUB DUP4 AND PUSH1 0x0 SWAP1 DUP2 MSTORE PUSH1 0x2 PUSH1 0x20 MSTORE PUSH1 0x40 SWAP1 KECCAK256 SLOAD PUSH1 0xFF AND JUMPDEST DUP1 PUSH2 0xCDA JUMPI POP DUP3 EXTCODESIZE ISZERO ISZERO DUP1 ISZERO PUSH2 0xF94 JUMPI POP PUSH1 0x1 PUSH1 0x1 PUSH1 0xA0 SHL SUB DUP4 AND PUSH1 0x0 SWAP1 DUP2 MSTORE PUSH1 0x6 PUSH1 0x20 MSTORE PUSH1 0x40 SWAP1 KECCAK256 SLOAD PUSH1 0xFF AND ISZERO JUMPDEST DUP1 ISZERO PUSH2 0xCDA JUMPI POP POP POP PUSH1 0x1 PUSH1 0x1 PUSH1 0xA0 SHL SUB AND PUSH1 0x0 SWAP1 DUP2 MSTORE PUSH1 0x3 PUSH1 0x20 MSTORE PUSH1 0x40 SWAP1 KECCAK256 SLOAD PUSH1 0xFF AND ISZERO SWAP1 JUMP JUMPDEST PUSH1 0x0 PUSH2 0xFC8 DUP2 CALLER PUSH2 0x1211 JUMP JUMPDEST POP PUSH1 0x1 PUSH1 0x1 PUSH1 0xA0 SHL SUB SWAP1 SWAP2 AND PUSH1 0x0 SWAP1 DUP2 MSTORE PUSH1 0x4 PUSH1 0x20 MSTORE PUSH1 0x40 SWAP1 KECCAK256 SSTORE JUMP JUMPDEST PUSH1 0x0 PUSH2 0xFF1 DUP2 CALLER PUSH2 0x1211 JUMP JUMPDEST POP PUSH1 0x1 PUSH1 0x1 PUSH1 0xA0 SHL SUB SWAP2 SWAP1 SWAP2 AND PUSH1 0x0 SWAP1 DUP2 MSTORE PUSH1 0x6 PUSH1 0x20 MSTORE PUSH1 0x40 SWAP1 KECCAK256 DUP1 SLOAD PUSH1 0xFF NOT AND SWAP2 ISZERO ISZERO SWAP2 SWAP1 SWAP2 OR SWAP1 SSTORE JUMP JUMPDEST PUSH2 0x1027 DUP3 DUP3 PUSH2 0x1360 JUMP JUMPDEST POP POP JUMP JUMPDEST PUSH1 0x0 PUSH2 0xCDA DUP4 PUSH1 0x1 PUSH1 0x1 PUSH1 0xA0 SHL SUB DUP5 AND PUSH2 0x13E4 JUMP JUMPDEST PUSH1 0x60 PUSH1 0x0 PUSH2 0x104F DUP4 PUSH1 0x2 PUSH2 0x1A78 JUMP JUMPDEST PUSH2 0x105A SWAP1 PUSH1 0x2 PUSH2 0x1A60 JUMP JUMPDEST PUSH8 0xFFFFFFFFFFFFFFFF DUP2 GT ISZERO PUSH2 0x1072 JUMPI PUSH2 0x1072 PUSH2 0x16BE JUMP JUMPDEST PUSH1 0x40 MLOAD SWAP1 DUP1 DUP3 MSTORE DUP1 PUSH1 0x1F ADD PUSH1 0x1F NOT AND PUSH1 0x20 ADD DUP3 ADD PUSH1 0x40 MSTORE DUP1 ISZERO PUSH2 0x109C JUMPI PUSH1 0x20 DUP3 ADD DUP2 DUP1 CALLDATASIZE DUP4 CALLDATACOPY ADD SWAP1 POP JUMPDEST POP SWAP1 POP PUSH1 0x3 PUSH1 0xFC SHL DUP2 PUSH1 0x0 DUP2 MLOAD DUP2 LT PUSH2 0x10B7 JUMPI PUSH2 0x10B7 PUSH2 0x1A00 JUMP JUMPDEST PUSH1 0x20 ADD ADD SWAP1 PUSH1 0x1 PUSH1 0x1 PUSH1 0xF8 SHL SUB NOT AND SWAP1 DUP2 PUSH1 0x0 BYTE SWAP1 MSTORE8 POP PUSH1 0xF PUSH1 0xFB SHL DUP2 PUSH1 0x1 DUP2 MLOAD DUP2 LT PUSH2 0x10E6 JUMPI PUSH2 0x10E6 PUSH2 0x1A00 JUMP JUMPDEST PUSH1 0x20 ADD ADD SWAP1 PUSH1 0x1 PUSH1 0x1 PUSH1 0xF8 SHL SUB NOT AND SWAP1 DUP2 PUSH1 0x0 BYTE SWAP1 MSTORE8 POP PUSH1 0x0 PUSH2 0x110A DUP5 PUSH1 0x2 PUSH2 0x1A78 JUMP JUMPDEST PUSH2 0x1115 SWAP1 PUSH1 0x1 PUSH2 0x1A60 JUMP JUMPDEST SWAP1 POP JUMPDEST PUSH1 0x1 DUP2 GT ISZERO PUSH2 0x118D JUMPI PUSH16 0x181899199A1A9B1B9C1CB0B131B232B3 PUSH1 0x81 SHL DUP6 PUSH1 0xF AND PUSH1 0x10 DUP2 LT PUSH2 0x1149 JUMPI PUSH2 0x1149 PUSH2 0x1A00 JUMP JUMPDEST BYTE PUSH1 0xF8 SHL DUP3 DUP3 DUP2 MLOAD DUP2 LT PUSH2 0x115F JUMPI PUSH2 0x115F PUSH2 0x1A00 JUMP JUMPDEST PUSH1 0x20 ADD ADD SWAP1 PUSH1 0x1 PUSH1 0x1 PUSH1 0xF8 SHL SUB NOT AND SWAP1 DUP2 PUSH1 0x0 BYTE SWAP1 MSTORE8 POP PUSH1 0x4 SWAP5 SWAP1 SWAP5 SHR SWAP4 PUSH2 0x1186 DUP2 PUSH2 0x1A97 JUMP JUMPDEST SWAP1 POP PUSH2 0x1118 JUMP JUMPDEST POP DUP4 ISZERO PUSH2 0xCDA JUMPI PUSH1 0x40 MLOAD PUSH3 0x461BCD PUSH1 0xE5 SHL DUP2 MSTORE PUSH1 0x20 PUSH1 0x4 DUP3 ADD DUP2 SWAP1 MSTORE PUSH1 0x24 DUP3 ADD MSTORE PUSH32 0x537472696E67733A20686578206C656E67746820696E73756666696369656E74 PUSH1 0x44 DUP3 ADD MSTORE PUSH1 0x64 ADD PUSH2 0x575 JUMP JUMPDEST PUSH1 0x0 PUSH1 0x1 PUSH1 0x1 PUSH1 0xE0 SHL SUB NOT DUP3 AND PUSH4 0x7965DB0B PUSH1 0xE0 SHL EQ DUP1 PUSH2 0x497 JUMPI POP PUSH4 0x1FFC9A7 PUSH1 0xE0 SHL PUSH1 0x1 PUSH1 0x1 PUSH1 0xE0 SHL SUB NOT DUP4 AND EQ PUSH2 0x497 JUMP JUMPDEST PUSH2 0x121B DUP3 DUP3 PUSH2 0xCE1 JUMP JUMPDEST PUSH2 0x1027 JUMPI PUSH2 0x1233 DUP2 PUSH1 0x1 PUSH1 0x1 PUSH1 0xA0 SHL SUB AND PUSH1 0x14 PUSH2 0x1040 JUMP JUMPDEST PUSH2 0x123E DUP4 PUSH1 0x20 PUSH2 0x1040 JUMP JUMPDEST PUSH1 0x40 MLOAD PUSH1 0x20 ADD PUSH2 0x124F SWAP3 SWAP2 SWAP1 PUSH2 0x1ADA JUMP JUMPDEST PUSH1 0x40 DUP1 MLOAD PUSH1 0x1F NOT DUP2 DUP5 SUB ADD DUP2 MSTORE SWAP1 DUP3 SWAP1 MSTORE PUSH3 0x461BCD PUSH1 0xE5 SHL DUP3 MSTORE PUSH2 0x575 SWAP2 PUSH1 0x4 ADD PUSH2 0x1B4F JUMP JUMPDEST PUSH2 0x75C DUP3 DUP3 PUSH2 0x101D JUMP JUMPDEST PUSH1 0x0 PUSH2 0x128B DUP2 CALLER PUSH2 0x1211 JUMP JUMPDEST PUSH2 0x774 DUP4 DUP4 PUSH2 0x1360 JUMP JUMPDEST PUSH1 0x1 PUSH1 0x1 PUSH1 0xA0 SHL SUB DUP2 AND CALLER EQ PUSH2 0x1305 JUMPI PUSH1 0x40 MLOAD PUSH3 0x461BCD PUSH1 0xE5 SHL DUP2 MSTORE PUSH1 0x20 PUSH1 0x4 DUP3 ADD MSTORE PUSH1 0x2F PUSH1 0x24 DUP3 ADD MSTORE PUSH32 0x416363657373436F6E74726F6C3A2063616E206F6E6C792072656E6F756E6365 PUSH1 0x44 DUP3 ADD MSTORE PUSH15 0x103937B632B9903337B91039B2B633 PUSH1 0x89 SHL PUSH1 0x64 DUP3 ADD MSTORE PUSH1 0x84 ADD PUSH2 0x575 JUMP JUMPDEST PUSH2 0x1027 DUP3 DUP3 PUSH2 0x1433 JUMP JUMPDEST PUSH1 0x0 PUSH2 0xCDA DUP4 PUSH1 0x1 PUSH1 0x1 PUSH1 0xA0 SHL SUB DUP5 AND PUSH2 0x1498 JUMP JUMPDEST PUSH1 0x0 PUSH2 0xCDA DUP4 DUP4 PUSH2 0x158B JUMP JUMPDEST PUSH1 0x0 PUSH2 0x497 DUP3 SLOAD SWAP1 JUMP JUMPDEST PUSH1 0x0 DUP3 DUP2 MSTORE PUSH1 0x20 DUP2 SWAP1 MSTORE PUSH1 0x40 SWAP1 KECCAK256 PUSH1 0x1 ADD SLOAD PUSH2 0x1356 DUP2 CALLER PUSH2 0x1211 JUMP JUMPDEST PUSH2 0x774 DUP4 DUP4 PUSH2 0x1433 JUMP JUMPDEST PUSH2 0x136A DUP3 DUP3 PUSH2 0xCE1 JUMP JUMPDEST PUSH2 0x1027 JUMPI PUSH1 0x0 DUP3 DUP2 MSTORE PUSH1 0x20 DUP2 DUP2 MSTORE PUSH1 0x40 DUP1 DUP4 KECCAK256 PUSH1 0x1 PUSH1 0x1 PUSH1 0xA0 SHL SUB DUP6 AND DUP5 MSTORE SWAP1 SWAP2 MSTORE SWAP1 KECCAK256 DUP1 SLOAD PUSH1 0xFF NOT AND PUSH1 0x1 OR SWAP1 SSTORE PUSH2 0x13A0 CALLER SWAP1 JUMP JUMPDEST PUSH1 0x1 PUSH1 0x1 PUSH1 0xA0 SHL SUB AND DUP2 PUSH1 0x1 PUSH1 0x1 PUSH1 0xA0 SHL SUB AND DUP4 PUSH32 0x2F8788117E7EFF1D82E926EC794901D17C78024A50270940304540A733656F0D PUSH1 0x40 MLOAD PUSH1 0x40 MLOAD DUP1 SWAP2 SUB SWAP1 LOG4 POP POP JUMP JUMPDEST PUSH1 0x0 DUP2 DUP2 MSTORE PUSH1 0x1 DUP4 ADD PUSH1 0x20 MSTORE PUSH1 0x40 DUP2 KECCAK256 SLOAD PUSH2 0x142B JUMPI POP DUP2 SLOAD PUSH1 0x1 DUP2 DUP2 ADD DUP5 SSTORE PUSH1 0x0 DUP5 DUP2 MSTORE PUSH1 0x20 DUP1 DUP3 KECCAK256 SWAP1 SWAP4 ADD DUP5 SWAP1 SSTORE DUP5 SLOAD DUP5 DUP3 MSTORE DUP3 DUP7 ADD SWAP1 SWAP4 MSTORE PUSH1 0x40 SWAP1 KECCAK256 SWAP2 SWAP1 SWAP2 SSTORE PUSH2 0x497 JUMP JUMPDEST POP PUSH1 0x0 PUSH2 0x497 JUMP JUMPDEST PUSH2 0x143D DUP3 DUP3 PUSH2 0xCE1 JUMP JUMPDEST ISZERO PUSH2 0x1027 JUMPI PUSH1 0x0 DUP3 DUP2 MSTORE PUSH1 0x20 DUP2 DUP2 MSTORE PUSH1 0x40 DUP1 DUP4 KECCAK256 PUSH1 0x1 PUSH1 0x1 PUSH1 0xA0 SHL SUB DUP6 AND DUP1 DUP6 MSTORE SWAP3 MSTORE DUP1 DUP4 KECCAK256 DUP1 SLOAD PUSH1 0xFF NOT AND SWAP1 SSTORE MLOAD CALLER SWAP3 DUP6 SWAP2 PUSH32 0xF6391F5C32D9C69D2A47EA670B442974B53935D1EDC7FD64EB21E047A839171B SWAP2 SWAP1 LOG4 POP POP JUMP JUMPDEST PUSH1 0x0 DUP2 DUP2 MSTORE PUSH1 0x1 DUP4 ADD PUSH1 0x20 MSTORE PUSH1 0x40 DUP2 KECCAK256 SLOAD DUP1 ISZERO PUSH2 0x1581 JUMPI PUSH1 0x0 PUSH2 0x14BC PUSH1 0x1 DUP4 PUSH2 0x1B82 JUMP JUMPDEST DUP6 SLOAD SWAP1 SWAP2 POP PUSH1 0x0 SWAP1 PUSH2 0x14D0 SWAP1 PUSH1 0x1 SWAP1 PUSH2 0x1B82 JUMP JUMPDEST SWAP1 POP DUP2 DUP2 EQ PUSH2 0x1535 JUMPI PUSH1 0x0 DUP7 PUSH1 0x0 ADD DUP3 DUP2 SLOAD DUP2 LT PUSH2 0x14F0 JUMPI PUSH2 0x14F0 PUSH2 0x1A00 JUMP JUMPDEST SWAP1 PUSH1 0x0 MSTORE PUSH1 0x20 PUSH1 0x0 KECCAK256 ADD SLOAD SWAP1 POP DUP1 DUP8 PUSH1 0x0 ADD DUP5 DUP2 SLOAD DUP2 LT PUSH2 0x1513 JUMPI PUSH2 0x1513 PUSH2 0x1A00 JUMP JUMPDEST PUSH1 0x0 SWAP2 DUP3 MSTORE PUSH1 0x20 DUP1 DUP4 KECCAK256 SWAP1 SWAP2 ADD SWAP3 SWAP1 SWAP3 SSTORE SWAP2 DUP3 MSTORE PUSH1 0x1 DUP9 ADD SWAP1 MSTORE PUSH1 0x40 SWAP1 KECCAK256 DUP4 SWAP1 SSTORE JUMPDEST DUP6 SLOAD DUP7 SWAP1 DUP1 PUSH2 0x1546 JUMPI PUSH2 0x1546 PUSH2 0x1B99 JUMP JUMPDEST PUSH1 0x1 SWAP1 SUB DUP2 DUP2 SWAP1 PUSH1 0x0 MSTORE PUSH1 0x20 PUSH1 0x0 KECCAK256 ADD PUSH1 0x0 SWAP1 SSTORE SWAP1 SSTORE DUP6 PUSH1 0x1 ADD PUSH1 0x0 DUP7 DUP2 MSTORE PUSH1 0x20 ADD SWAP1 DUP2 MSTORE PUSH1 0x20 ADD PUSH1 0x0 KECCAK256 PUSH1 0x0 SWAP1 SSTORE PUSH1 0x1 SWAP4 POP POP POP POP PUSH2 0x497 JUMP JUMPDEST PUSH1 0x0 SWAP2 POP POP PUSH2 0x497 JUMP JUMPDEST PUSH1 0x0 DUP3 PUSH1 0x0 ADD DUP3 DUP2 SLOAD DUP2 LT PUSH2 0x15A2 JUMPI PUSH2 0x15A2 PUSH2 0x1A00 JUMP JUMPDEST SWAP1 PUSH1 0x0 MSTORE PUSH1 0x20 PUSH1 0x0 KECCAK256 ADD SLOAD SWAP1 POP SWAP3 SWAP2 POP POP JUMP JUMPDEST PUSH1 0x0 PUSH1 0x20 DUP3 DUP5 SUB SLT ISZERO PUSH2 0x15C7 JUMPI PUSH1 0x0 DUP1 REVERT JUMPDEST DUP2 CALLDATALOAD PUSH1 0x1 PUSH1 0x1 PUSH1 0xE0 SHL SUB NOT DUP2 AND DUP2 EQ PUSH2 0xCDA JUMPI PUSH1 0x0 DUP1 REVERT JUMPDEST PUSH1 0x0 DUP1 PUSH1 0x20 DUP4 DUP6 SUB SLT ISZERO PUSH2 0x15F2 JUMPI PUSH1 0x0 DUP1 REVERT JUMPDEST DUP3 CALLDATALOAD PUSH8 0xFFFFFFFFFFFFFFFF DUP1 DUP3 GT ISZERO PUSH2 0x160A JUMPI PUSH1 0x0 DUP1 REVERT JUMPDEST DUP2 DUP6 ADD SWAP2 POP DUP6 PUSH1 0x1F DUP4 ADD SLT PUSH2 0x161E JUMPI PUSH1 0x0 DUP1 REVERT JUMPDEST DUP2 CALLDATALOAD DUP2 DUP2 GT ISZERO PUSH2 0x162D JUMPI PUSH1 0x0 DUP1 REVERT JUMPDEST DUP7 PUSH1 0x20 DUP3 PUSH1 0x6 SHL DUP6 ADD ADD GT ISZERO PUSH2 0x1642 JUMPI PUSH1 0x0 DUP1 REVERT JUMPDEST PUSH1 0x20 SWAP3 SWAP1 SWAP3 ADD SWAP7 SWAP2 SWAP6 POP SWAP1 SWAP4 POP POP POP POP JUMP JUMPDEST DUP1 CALLDATALOAD PUSH1 0x1 PUSH1 0x1 PUSH1 0xA0 SHL SUB DUP2 AND DUP2 EQ PUSH2 0x166B JUMPI PUSH1 0x0 DUP1 REVERT JUMPDEST SWAP2 SWAP1 POP JUMP JUMPDEST PUSH1 0x0 PUSH1 0x20 DUP3 DUP5 SUB SLT ISZERO PUSH2 0x1682 JUMPI PUSH1 0x0 DUP1 REVERT JUMPDEST PUSH2 0xCDA DUP3 PUSH2 0x1654 JUMP JUMPDEST PUSH1 0x0 DUP1 PUSH1 0x40 DUP4 DUP6 SUB SLT ISZERO PUSH2 0x169E JUMPI PUSH1 0x0 DUP1 REVERT JUMPDEST PUSH2 0x16A7 DUP4 PUSH2 0x1654 JUMP JUMPDEST SWAP2 POP PUSH2 0x16B5 PUSH1 0x20 DUP5 ADD PUSH2 0x1654 JUMP JUMPDEST SWAP1 POP SWAP3 POP SWAP3 SWAP1 POP JUMP JUMPDEST PUSH4 0x4E487B71 PUSH1 0xE0 SHL PUSH1 0x0 MSTORE PUSH1 0x41 PUSH1 0x4 MSTORE PUSH1 0x24 PUSH1 0x0 REVERT JUMPDEST PUSH1 0x0 PUSH1 0x20 DUP1 DUP4 DUP6 SUB SLT ISZERO PUSH2 0x16E7 JUMPI PUSH1 0x0 DUP1 REVERT JUMPDEST DUP3 CALLDATALOAD PUSH8 0xFFFFFFFFFFFFFFFF DUP1 DUP3 GT ISZERO PUSH2 0x16FF JUMPI PUSH1 0x0 DUP1 REVERT JUMPDEST DUP2 DUP6 ADD SWAP2 POP DUP6 PUSH1 0x1F DUP4 ADD SLT PUSH2 0x1713 JUMPI PUSH1 0x0 DUP1 REVERT JUMPDEST DUP2 CALLDATALOAD DUP2 DUP2 GT ISZERO PUSH2 0x1725 JUMPI PUSH2 0x1725 PUSH2 0x16BE JUMP JUMPDEST DUP1 PUSH1 0x5 SHL PUSH1 0x40 MLOAD PUSH1 0x1F NOT PUSH1 0x3F DUP4 ADD AND DUP2 ADD DUP2 DUP2 LT DUP6 DUP3 GT OR ISZERO PUSH2 0x174A JUMPI PUSH2 0x174A PUSH2 0x16BE JUMP JUMPDEST PUSH1 0x40 MSTORE SWAP2 DUP3 MSTORE DUP5 DUP3 ADD SWAP3 POP DUP4 DUP2 ADD DUP6 ADD SWAP2 DUP9 DUP4 GT ISZERO PUSH2 0x1768 JUMPI PUSH1 0x0 DUP1 REVERT JUMPDEST SWAP4 DUP6 ADD SWAP4 JUMPDEST DUP3 DUP6 LT ISZERO PUSH2 0x178D JUMPI PUSH2 0x177E DUP6 PUSH2 0x1654 JUMP JUMPDEST DUP5 MSTORE SWAP4 DUP6 ADD SWAP4 SWAP3 DUP6 ADD SWAP3 PUSH2 0x176D JUMP JUMPDEST SWAP9 SWAP8 POP POP POP POP POP POP POP POP JUMP JUMPDEST PUSH1 0x20 DUP1 DUP3 MSTORE DUP3 MLOAD DUP3 DUP3 ADD DUP2 SWAP1 MSTORE PUSH1 0x0 SWAP2 SWAP1 DUP5 DUP3 ADD SWAP1 PUSH1 0x40 DUP6 ADD SWAP1 DUP5 JUMPDEST DUP2 DUP2 LT ISZERO PUSH2 0x17DA JUMPI DUP4 MLOAD PUSH1 0x1 PUSH1 0x1 PUSH1 0xA0 SHL SUB AND DUP4 MSTORE SWAP3 DUP5 ADD SWAP3 SWAP2 DUP5 ADD SWAP2 PUSH1 0x1 ADD PUSH2 0x17B5 JUMP JUMPDEST POP SWAP1 SWAP7 SWAP6 POP POP POP POP POP POP JUMP JUMPDEST DUP1 CALLDATALOAD DUP1 ISZERO ISZERO DUP2 EQ PUSH2 0x166B JUMPI PUSH1 0x0 DUP1 REVERT JUMPDEST PUSH1 0x0 DUP1 PUSH1 0x40 DUP4 DUP6 SUB SLT ISZERO PUSH2 0x1809 JUMPI PUSH1 0x0 DUP1 REVERT JUMPDEST PUSH2 0x1812 DUP4 PUSH2 0x1654 JUMP JUMPDEST SWAP2 POP PUSH2 0x16B5 PUSH1 0x20 DUP5 ADD PUSH2 0x17E6 JUMP JUMPDEST PUSH1 0x0 PUSH1 0x20 DUP3 DUP5 SUB SLT ISZERO PUSH2 0x1832 JUMPI PUSH1 0x0 DUP1 REVERT JUMPDEST POP CALLDATALOAD SWAP2 SWAP1 POP JUMP JUMPDEST PUSH1 0x0 DUP1 PUSH1 0x0 PUSH1 0x60 DUP5 DUP7 SUB SLT ISZERO PUSH2 0x184E JUMPI PUSH1 0x0 DUP1 REVERT JUMPDEST PUSH2 0x1857 DUP5 PUSH2 0x1654 JUMP JUMPDEST SWAP3 POP PUSH2 0x1865 PUSH1 0x20 DUP6 ADD PUSH2 0x1654 JUMP JUMPDEST SWAP2 POP PUSH1 0x40 DUP5 ADD CALLDATALOAD SWAP1 POP SWAP3 POP SWAP3 POP SWAP3 JUMP JUMPDEST PUSH1 0x0 DUP1 PUSH1 0x40 DUP4 DUP6 SUB SLT ISZERO PUSH2 0x1888 JUMPI PUSH1 0x0 DUP1 REVERT JUMPDEST DUP3 CALLDATALOAD SWAP2 POP PUSH2 0x16B5 PUSH1 0x20 DUP5 ADD PUSH2 0x1654 JUMP JUMPDEST PUSH1 0x0 DUP1 DUP4 PUSH1 0x1F DUP5 ADD SLT PUSH2 0x18AA JUMPI PUSH1 0x0 DUP1 REVERT JUMPDEST POP DUP2 CALLDATALOAD PUSH8 0xFFFFFFFFFFFFFFFF DUP2 GT ISZERO PUSH2 0x18C2 JUMPI PUSH1 0x0 DUP1 REVERT JUMPDEST PUSH1 0x20 DUP4 ADD SWAP2 POP DUP4 PUSH1 0x20 DUP3 PUSH1 0x5 SHL DUP6 ADD ADD GT ISZERO PUSH2 0x18DD JUMPI PUSH1 0x0 DUP1 REVERT JUMPDEST SWAP3 POP SWAP3 SWAP1 POP JUMP JUMPDEST PUSH1 0x0 DUP1 PUSH1 0x0 PUSH1 0x40 DUP5 DUP7 SUB SLT ISZERO PUSH2 0x18F9 JUMPI PUSH1 0x0 DUP1 REVERT JUMPDEST DUP4 CALLDATALOAD PUSH8 0xFFFFFFFFFFFFFFFF DUP2 GT ISZERO PUSH2 0x1910 JUMPI PUSH1 0x0 DUP1 REVERT JUMPDEST PUSH2 0x191C DUP7 DUP3 DUP8 ADD PUSH2 0x1898 JUMP JUMPDEST SWAP1 SWAP5 POP SWAP3 POP PUSH2 0x192F SWAP1 POP PUSH1 0x20 DUP6 ADD PUSH2 0x17E6 JUMP JUMPDEST SWAP1 POP SWAP3 POP SWAP3 POP SWAP3 JUMP JUMPDEST PUSH1 0x0 DUP1 PUSH1 0x0 PUSH1 0x60 DUP5 DUP7 SUB SLT ISZERO PUSH2 0x194D JUMPI PUSH1 0x0 DUP1 REVERT JUMPDEST PUSH2 0x1956 DUP5 PUSH2 0x1654 JUMP JUMPDEST SWAP3 POP PUSH2 0x1964 PUSH1 0x20 DUP6 ADD PUSH2 0x1654 JUMP JUMPDEST SWAP2 POP PUSH2 0x192F PUSH1 0x40 DUP6 ADD PUSH2 0x1654 JUMP JUMPDEST PUSH1 0x0 DUP1 PUSH1 0x20 DUP4 DUP6 SUB SLT ISZERO PUSH2 0x1985 JUMPI PUSH1 0x0 DUP1 REVERT JUMPDEST DUP3 CALLDATALOAD PUSH8 0xFFFFFFFFFFFFFFFF DUP2 GT ISZERO PUSH2 0x199C JUMPI PUSH1 0x0 DUP1 REVERT JUMPDEST PUSH2 0x19A8 DUP6 DUP3 DUP7 ADD PUSH2 0x1898 JUMP JUMPDEST SWAP1 SWAP7 SWAP1 SWAP6 POP SWAP4 POP POP POP POP JUMP JUMPDEST PUSH1 0x0 DUP1 PUSH1 0x40 DUP4 DUP6 SUB SLT ISZERO PUSH2 0x19C7 JUMPI PUSH1 0x0 DUP1 REVERT JUMPDEST POP POP DUP1 CALLDATALOAD SWAP3 PUSH1 0x20 SWAP1 SWAP2 ADD CALLDATALOAD SWAP2 POP JUMP JUMPDEST PUSH1 0x0 DUP1 PUSH1 0x40 DUP4 DUP6 SUB SLT ISZERO PUSH2 0x19E9 JUMPI PUSH1 0x0 DUP1 REVERT JUMPDEST PUSH2 0x19F2 DUP4 PUSH2 0x1654 JUMP JUMPDEST SWAP5 PUSH1 0x20 SWAP4 SWAP1 SWAP4 ADD CALLDATALOAD SWAP4 POP POP POP JUMP JUMPDEST PUSH4 0x4E487B71 PUSH1 0xE0 SHL PUSH1 0x0 MSTORE PUSH1 0x32 PUSH1 0x4 MSTORE PUSH1 0x24 PUSH1 0x0 REVERT JUMPDEST PUSH4 0x4E487B71 PUSH1 0xE0 SHL PUSH1 0x0 MSTORE PUSH1 0x11 PUSH1 0x4 MSTORE PUSH1 0x24 PUSH1 0x0 REVERT JUMPDEST PUSH1 0x0 PUSH1 0x0 NOT DUP3 EQ ISZERO PUSH2 0x1A40 JUMPI PUSH2 0x1A40 PUSH2 0x1A16 JUMP JUMPDEST POP PUSH1 0x1 ADD SWAP1 JUMP JUMPDEST PUSH1 0x0 PUSH1 0x20 DUP3 DUP5 SUB SLT ISZERO PUSH2 0x1A59 JUMPI PUSH1 0x0 DUP1 REVERT JUMPDEST POP MLOAD SWAP2 SWAP1 POP JUMP JUMPDEST PUSH1 0x0 DUP3 NOT DUP3 GT ISZERO PUSH2 0x1A73 JUMPI PUSH2 0x1A73 PUSH2 0x1A16 JUMP JUMPDEST POP ADD SWAP1 JUMP JUMPDEST PUSH1 0x0 DUP2 PUSH1 0x0 NOT DIV DUP4 GT DUP3 ISZERO ISZERO AND ISZERO PUSH2 0x1A92 JUMPI PUSH2 0x1A92 PUSH2 0x1A16 JUMP JUMPDEST POP MUL SWAP1 JUMP JUMPDEST PUSH1 0x0 DUP2 PUSH2 0x1AA6 JUMPI PUSH2 0x1AA6 PUSH2 0x1A16 JUMP JUMPDEST POP PUSH1 0x0 NOT ADD SWAP1 JUMP JUMPDEST PUSH1 0x0 JUMPDEST DUP4 DUP2 LT ISZERO PUSH2 0x1AC9 JUMPI DUP2 DUP2 ADD MLOAD DUP4 DUP3 ADD MSTORE PUSH1 0x20 ADD PUSH2 0x1AB1 JUMP JUMPDEST DUP4 DUP2 GT ISZERO PUSH2 0x514 JUMPI POP POP PUSH1 0x0 SWAP2 ADD MSTORE JUMP JUMPDEST PUSH32 0x416363657373436F6E74726F6C3A206163636F756E7420000000000000000000 DUP2 MSTORE PUSH1 0x0 DUP4 MLOAD PUSH2 0x1B12 DUP2 PUSH1 0x17 DUP6 ADD PUSH1 0x20 DUP9 ADD PUSH2 0x1AAE JUMP JUMPDEST PUSH17 0x1034B99036B4B9B9B4B733903937B6329 PUSH1 0x7D SHL PUSH1 0x17 SWAP2 DUP5 ADD SWAP2 DUP3 ADD MSTORE DUP4 MLOAD PUSH2 0x1B43 DUP2 PUSH1 0x28 DUP5 ADD PUSH1 0x20 DUP9 ADD PUSH2 0x1AAE JUMP JUMPDEST ADD PUSH1 0x28 ADD SWAP5 SWAP4 POP POP POP POP JUMP JUMPDEST PUSH1 0x20 DUP2 MSTORE PUSH1 0x0 DUP3 MLOAD DUP1 PUSH1 0x20 DUP5 ADD MSTORE PUSH2 0x1B6E DUP2 PUSH1 0x40 DUP6 ADD PUSH1 0x20 DUP8 ADD PUSH2 0x1AAE JUMP JUMPDEST PUSH1 0x1F ADD PUSH1 0x1F NOT AND SWAP2 SWAP1 SWAP2 ADD PUSH1 0x40 ADD SWAP3 SWAP2 POP POP JUMP JUMPDEST PUSH1 0x0 DUP3 DUP3 LT ISZERO PUSH2 0x1B94 JUMPI PUSH2 0x1B94 PUSH2 0x1A16 JUMP JUMPDEST POP SUB SWAP1 JUMP JUMPDEST PUSH4 0x4E487B71 PUSH1 0xE0 SHL PUSH1 0x0 MSTORE PUSH1 0x31 PUSH1 0x4 MSTORE PUSH1 0x24 PUSH1 0x0 REVERT INVALID LOG2 PUSH5 0x6970667358 0x22 SLT KECCAK256 SWAP13 0xE6 0x24 SWAP12 MUL PUSH25 0xD03252011BA5488260DB92AE1B4CDBCB0957C3367377807112 0xCE PUSH5 0x736F6C6343 STOP ADDMOD ADDMOD STOP CALLER "
		},
		"gasEstimates": {
			"creation": {
				"codeDepositCost": "1428200",
				"executionCost": "infinite",
				"totalCost": "infinite"
			},
			"external": {
				"ROLE_ADMIN()": "262",
				"bulkMarkAddressAsBot(address[])": "infinite",
				"bulkMarkAddressAsBotBool(address[],bool)": "infinite",
				"bulkMarkAddressAsHuman(address[],bool)": "infinite",
				"bulkMarkPairAsDeftEthPair(address[],bool)": "infinite",
				"getBuyTimestamp(address,address)": "infinite",
				"getCooldownPeriodSell(address)": "infinite",
				"getRoleAdmin(bytes32)": "2559",
				"getRoleMember(bytes32,uint256)": "infinite",
				"getRoleMemberCount(bytes32)": "infinite",
				"grantRole(bytes32,address)": "infinite",
				"grantRolesBulk((bytes32,address)[])": "infinite",
				"hasRole(bytes32,address)": "2696",
				"isBotAddress(address)": "infinite",
				"isHumanTransaction(address,address,address)": "infinite",
				"isMarkedAsBotStorage(address)": "infinite",
				"isMarkedAsBotStorageBulk(address[])": "infinite",
				"isMarkedAsDeftEthPair(address)": "infinite",
				"isMarkedAsHumanStorage(address)": "infinite",
				"isMarkedAsHumanStorageBulk(address[])": "infinite",
				"markAddressAsBot(address)": "infinite",
				"markAddressAsHuman(address,bool)": "infinite",
				"markAddressAsNotBot(address)": "infinite",
				"markPairAsDeftEthPair(address,bool)": "infinite",
				"renounceRole(bytes32,address)": "infinite",
				"revokeRole(bytes32,address)": "infinite",
				"supportsInterface(bytes4)": "infinite",
				"updateBuyTimestamp(address,address,uint256)": "infinite",
				"updateCooldownPeriodSell(address,uint256)": "infinite"
			},
			"internal": {
				"hasLeadingZerosInAddress(address)": "infinite",
				"isContract(address)": "infinite"
			}
		},
		"methodIdentifiers": {
			"ROLE_ADMIN()": "d391014b",
			"bulkMarkAddressAsBot(address[])": "6a930a95",
			"bulkMarkAddressAsBotBool(address[],bool)": "404a8cca",
			"bulkMarkAddressAsHuman(address[],bool)": "a8798ffc",
			"bulkMarkPairAsDeftEthPair(address[],bool)": "b8a6f8c0",
			"getBuyTimestamp(address,address)": "161aa47e",
			"getCooldownPeriodSell(address)": "e53fd775",
			"getRoleAdmin(bytes32)": "248a9ca3",
			"getRoleMember(bytes32,uint256)": "9010d07c",
			"getRoleMemberCount(bytes32)": "ca15c873",
			"grantRole(bytes32,address)": "2f2ff15d",
			"grantRolesBulk((bytes32,address)[])": "03ed957f",
			"hasRole(bytes32,address)": "91d14854",
			"isBotAddress(address)": "eaa8f7e3",
			"isHumanTransaction(address,address,address)": "60623731",
			"isMarkedAsBotStorage(address)": "5f242323",
			"isMarkedAsBotStorageBulk(address[])": "441c62a8",
			"isMarkedAsDeftEthPair(address)": "24933296",
			"isMarkedAsHumanStorage(address)": "db8aa538",
			"isMarkedAsHumanStorageBulk(address[])": "1fd413f8",
			"markAddressAsBot(address)": "1093baa9",
			"markAddressAsHuman(address,bool)": "231683ae",
			"markAddressAsNotBot(address)": "a9a48824",
			"markPairAsDeftEthPair(address,bool)": "fc70da0a",
			"renounceRole(bytes32,address)": "36568abe",
			"revokeRole(bytes32,address)": "d547741f",
			"supportsInterface(bytes4)": "01ffc9a7",
			"updateBuyTimestamp(address,address,uint256)": "2a5bf470",
			"updateCooldownPeriodSell(address,uint256)": "ed0b8476"
		}
	},
	"abi": [
		{
			"inputs": [],
			"stateMutability": "nonpayable",
			"type": "constructor"
		},
		{
			"anonymous": false,
			"inputs": [
				{
					"indexed": true,
					"internalType": "bytes32",
					"name": "role",
					"type": "bytes32"
				},
				{
					"indexed": true,
					"internalType": "bytes32",
					"name": "previousAdminRole",
					"type": "bytes32"
				},
				{
					"indexed": true,
					"internalType": "bytes32",
					"name": "newAdminRole",
					"type": "bytes32"
				}
			],
			"name": "RoleAdminChanged",
			"type": "event"
		},
		{
			"anonymous": false,
			"inputs": [
				{
					"indexed": true,
					"internalType": "bytes32",
					"name": "role",
					"type": "bytes32"
				},
				{
					"indexed": true,
					"internalType": "address",
					"name": "account",
					"type": "address"
				},
				{
					"indexed": true,
					"internalType": "address",
					"name": "sender",
					"type": "address"
				}
			],
			"name": "RoleGranted",
			"type": "event"
		},
		{
			"anonymous": false,
			"inputs": [
				{
					"indexed": true,
					"internalType": "bytes32",
					"name": "role",
					"type": "bytes32"
				},
				{
					"indexed": true,
					"internalType": "address",
					"name": "account",
					"type": "address"
				},
				{
					"indexed": true,
					"internalType": "address",
					"name": "sender",
					"type": "address"
				}
			],
			"name": "RoleRevoked",
			"type": "event"
		},
		{
			"inputs": [],
			"name": "ROLE_ADMIN",
			"outputs": [
				{
					"internalType": "bytes32",
					"name": "",
					"type": "bytes32"
				}
			],
			"stateMutability": "view",
			"type": "function"
		},
		{
			"inputs": [
				{
					"internalType": "address[]",
					"name": "addrs",
					"type": "address[]"
				}
			],
			"name": "bulkMarkAddressAsBot",
			"outputs": [],
			"stateMutability": "nonpayable",
			"type": "function"
		},
		{
			"inputs": [
				{
					"internalType": "address[]",
					"name": "addrs",
					"type": "address[]"
				},
				{
					"internalType": "bool",
					"name": "value",
					"type": "bool"
				}
			],
			"name": "bulkMarkAddressAsBotBool",
			"outputs": [],
			"stateMutability": "nonpayable",
			"type": "function"
		},
		{
			"inputs": [
				{
					"internalType": "address[]",
					"name": "addrs",
					"type": "address[]"
				},
				{
					"internalType": "bool",
					"name": "value",
					"type": "bool"
				}
			],
			"name": "bulkMarkAddressAsHuman",
			"outputs": [],
			"stateMutability": "nonpayable",
			"type": "function"
		},
		{
			"inputs": [
				{
					"internalType": "address[]",
					"name": "addrs",
					"type": "address[]"
				},
				{
					"internalType": "bool",
					"name": "value",
					"type": "bool"
				}
			],
			"name": "bulkMarkPairAsDeftEthPair",
			"outputs": [],
			"stateMutability": "nonpayable",
			"type": "function"
		},
		{
			"inputs": [
				{
					"internalType": "address",
					"name": "tokenAddr",
					"type": "address"
				},
				{
					"internalType": "address",
					"name": "addr",
					"type": "address"
				}
			],
			"name": "getBuyTimestamp",
			"outputs": [
				{
					"internalType": "uint256",
					"name": "",
					"type": "uint256"
				}
			],
			"stateMutability": "view",
			"type": "function"
		},
		{
			"inputs": [
				{
					"internalType": "address",
					"name": "tokenAddr",
					"type": "address"
				}
			],
			"name": "getCooldownPeriodSell",
			"outputs": [
				{
					"internalType": "uint256",
					"name": "",
					"type": "uint256"
				}
			],
			"stateMutability": "view",
			"type": "function"
		},
		{
			"inputs": [
				{
					"internalType": "bytes32",
					"name": "role",
					"type": "bytes32"
				}
			],
			"name": "getRoleAdmin",
			"outputs": [
				{
					"internalType": "bytes32",
					"name": "",
					"type": "bytes32"
				}
			],
			"stateMutability": "view",
			"type": "function"
		},
		{
			"inputs": [
				{
					"internalType": "bytes32",
					"name": "role",
					"type": "bytes32"
				},
				{
					"internalType": "uint256",
					"name": "index",
					"type": "uint256"
				}
			],
			"name": "getRoleMember",
			"outputs": [
				{
					"internalType": "address",
					"name": "",
					"type": "address"
				}
			],
			"stateMutability": "view",
			"type": "function"
		},
		{
			"inputs": [
				{
					"internalType": "bytes32",
					"name": "role",
					"type": "bytes32"
				}
			],
			"name": "getRoleMemberCount",
			"outputs": [
				{
					"internalType": "uint256",
					"name": "",
					"type": "uint256"
				}
			],
			"stateMutability": "view",
			"type": "function"
		},
		{
			"inputs": [
				{
					"internalType": "bytes32",
					"name": "role",
					"type": "bytes32"
				},
				{
					"internalType": "address",
					"name": "account",
					"type": "address"
				}
			],
			"name": "grantRole",
			"outputs": [],
			"stateMutability": "nonpayable",
			"type": "function"
		},
		{
			"inputs": [
				{
					"components": [
						{
							"internalType": "bytes32",
							"name": "role",
							"type": "bytes32"
						},
						{
							"internalType": "address",
							"name": "addr",
							"type": "address"
						}
					],
					"internalType": "struct RoleAccess[]",
					"name": "roles",
					"type": "tuple[]"
				}
			],
			"name": "grantRolesBulk",
			"outputs": [],
			"stateMutability": "nonpayable",
			"type": "function"
		},
		{
			"inputs": [
				{
					"internalType": "bytes32",
					"name": "role",
					"type": "bytes32"
				},
				{
					"internalType": "address",
					"name": "account",
					"type": "address"
				}
			],
			"name": "hasRole",
			"outputs": [
				{
					"internalType": "bool",
					"name": "",
					"type": "bool"
				}
			],
			"stateMutability": "view",
			"type": "function"
		},
		{
			"inputs": [
				{
					"internalType": "address",
					"name": "addr",
					"type": "address"
				}
			],
			"name": "isBotAddress",
			"outputs": [
				{
					"internalType": "bool",
					"name": "",
					"type": "bool"
				}
			],
			"stateMutability": "view",
			"type": "function"
		},
		{
			"inputs": [
				{
					"internalType": "address",
					"name": "tokenAddr",
					"type": "address"
				},
				{
					"internalType": "address",
					"name": "sender",
					"type": "address"
				},
				{
					"internalType": "address",
					"name": "recipient",
					"type": "address"
				}
			],
			"name": "isHumanTransaction",
			"outputs": [
				{
					"components": [
						{
							"internalType": "bool",
							"name": "isHumanTransaction",
							"type": "bool"
						},
						{
							"internalType": "bool",
							"name": "isBuy",
							"type": "bool"
						},
						{
							"internalType": "bool",
							"name": "isSell",
							"type": "bool"
						}
					],
					"internalType": "struct IsHumanInfo",
					"name": "output",
					"type": "tuple"
				}
			],
			"stateMutability": "nonpayable",
			"type": "function"
		},
		{
			"inputs": [
				{
					"internalType": "address",
					"name": "addr",
					"type": "address"
				}
			],
			"name": "isMarkedAsBotStorage",
			"outputs": [
				{
					"internalType": "bool",
					"name": "",
					"type": "bool"
				}
			],
			"stateMutability": "view",
			"type": "function"
		},
		{
			"inputs": [
				{
					"internalType": "address[]",
					"name": "addrs",
					"type": "address[]"
				}
			],
			"name": "isMarkedAsBotStorageBulk",
			"outputs": [
				{
					"internalType": "address[]",
					"name": "",
					"type": "address[]"
				}
			],
			"stateMutability": "view",
			"type": "function"
		},
		{
			"inputs": [
				{
					"internalType": "address",
					"name": "addr",
					"type": "address"
				}
			],
			"name": "isMarkedAsDeftEthPair",
			"outputs": [
				{
					"internalType": "bool",
					"name": "",
					"type": "bool"
				}
			],
			"stateMutability": "view",
			"type": "function"
		},
		{
			"inputs": [
				{
					"internalType": "address",
					"name": "addr",
					"type": "address"
				}
			],
			"name": "isMarkedAsHumanStorage",
			"outputs": [
				{
					"internalType": "bool",
					"name": "",
					"type": "bool"
				}
			],
			"stateMutability": "view",
			"type": "function"
		},
		{
			"inputs": [
				{
					"internalType": "address[]",
					"name": "addrs",
					"type": "address[]"
				}
			],
			"name": "isMarkedAsHumanStorageBulk",
			"outputs": [
				{
					"internalType": "address[]",
					"name": "",
					"type": "address[]"
				}
			],
			"stateMutability": "view",
			"type": "function"
		},
		{
			"inputs": [
				{
					"internalType": "address",
					"name": "addr",
					"type": "address"
				}
			],
			"name": "markAddressAsBot",
			"outputs": [],
			"stateMutability": "nonpayable",
			"type": "function"
		},
		{
			"inputs": [
				{
					"internalType": "address",
					"name": "addr",
					"type": "address"
				},
				{
					"internalType": "bool",
					"name": "value",
					"type": "bool"
				}
			],
			"name": "markAddressAsHuman",
			"outputs": [],
			"stateMutability": "nonpayable",
			"type": "function"
		},
		{
			"inputs": [
				{
					"internalType": "address",
					"name": "addr",
					"type": "address"
				}
			],
			"name": "markAddressAsNotBot",
			"outputs": [],
			"stateMutability": "nonpayable",
			"type": "function"
		},
		{
			"inputs": [
				{
					"internalType": "address",
					"name": "addr",
					"type": "address"
				},
				{
					"internalType": "bool",
					"name": "value",
					"type": "bool"
				}
			],
			"name": "markPairAsDeftEthPair",
			"outputs": [],
			"stateMutability": "nonpayable",
			"type": "function"
		},
		{
			"inputs": [
				{
					"internalType": "bytes32",
					"name": "role",
					"type": "bytes32"
				},
				{
					"internalType": "address",
					"name": "account",
					"type": "address"
				}
			],
			"name": "renounceRole",
			"outputs": [],
			"stateMutability": "nonpayable",
			"type": "function"
		},
		{
			"inputs": [
				{
					"internalType": "bytes32",
					"name": "role",
					"type": "bytes32"
				},
				{
					"internalType": "address",
					"name": "account",
					"type": "address"
				}
			],
			"name": "revokeRole",
			"outputs": [],
			"stateMutability": "nonpayable",
			"type": "function"
		},
		{
			"inputs": [
				{
					"internalType": "bytes4",
					"name": "interfaceId",
					"type": "bytes4"
				}
			],
			"name": "supportsInterface",
			"outputs": [
				{
					"internalType": "bool",
					"name": "",
					"type": "bool"
				}
			],
			"stateMutability": "view",
			"type": "function"
		},
		{
			"inputs": [
				{
					"internalType": "address",
					"name": "tokenAddr",
					"type": "address"
				},
				{
					"internalType": "address",
					"name": "addr",
					"type": "address"
				},
				{
					"internalType": "uint256",
					"name": "newBuyTimestamp",
					"type": "uint256"
				}
			],
			"name": "updateBuyTimestamp",
			"outputs": [],
			"stateMutability": "nonpayable",
			"type": "function"
		},
		{
			"inputs": [
				{
					"internalType": "address",
					"name": "tokenAddr",
					"type": "address"
				},
				{
					"internalType": "uint256",
					"name": "newCooldownSellPeriod",
					"type": "uint256"
				}
			],
			"name": "updateCooldownPeriodSell",
			"outputs": [],
			"stateMutability": "nonpayable",
			"type": "function"
		}
	]
}