{
	"data": {
		"bytecode": {
			"linkReferences": {},
			"object": "6080604052670de0b6b3a764000060025542600455600060055561c350600755620f1b30600855610e1060095562055730600a55629e3400600b5562015f90600c5563013c6800600d5562013880600e556301da9c00600f5560006010553480156200006a57600080fd5b5062000078600033620000e4565b620000a47f603fd68989965f050033092155bb64ae91e5363fea3409ef877c949328c541e533620000e4565b426013556002546040519081527f4dbe4840d7465bd162f67814cea0b519567a2e0e578bcde61e7f4ced361e5a3d9060200160405180910390a162000249565b620000fb82826200012760201b6200129b1760201c565b600082815260016020908152604090912062000122918390620012a962000137821b17901c565b505050565b62000133828262000157565b5050565b60006200014e836001600160a01b038416620001f7565b90505b92915050565b6000828152602081815260408083206001600160a01b038516845290915290205460ff1662000133576000828152602081815260408083206001600160a01b03851684529091529020805460ff19166001179055620001b33390565b6001600160a01b0316816001600160a01b0316837f2f8788117e7eff1d82e926ec794901d17c78024a50270940304540a733656f0d60405160405180910390a45050565b6000818152600183016020526040812054620002405750815460018181018455600084815260208082209093018490558454848252828601909352604090209190915562000151565b50600062000151565b6120c280620002596000396000f3fe608060405234801561001057600080fd5b50600436106103205760003560e01c8063858a135d116101a7578063d391014b116100ee578063e8ac6e4e11610097578063f687e46e11610071578063f687e46e146106d9578063fc78bab314610700578063fed77a801461070957600080fd5b8063e8ac6e4e146106b5578063ebc27241146106bd578063ef356a79146106d057600080fd5b8063dda7498e116100c8578063dda7498e14610679578063dfd5e1291461068c578063e7baf7f4146106ac57600080fd5b8063d391014b14610655578063d547741f1461065d578063da9b835a1461067057600080fd5b8063abfd4ec311610150578063c4a8a1691161012a578063c4a8a16914610631578063c4e41b221461063a578063ca15c8731461064257600080fd5b8063abfd4ec3146105cd578063b6c5ab7b146105d6578063bc6537e8146105e957600080fd5b80639394aa66116101815780639394aa661461056f57806394b2242e146105785780639be810cc1461059f57600080fd5b8063858a135d146105055780639010d07c1461050d57806391d148541461053857600080fd5b8063360987581161026b5780634ccc35fb1161021457806362109feb116101ee57806362109feb146104ad5780637207786f146104b6578063815a61e0146104bf57600080fd5b80634ccc35fb1461046a5780635cdba0031461049157806360fd5fd7146104a457600080fd5b8063372affbf11610245578063372affbf1461044557806340142e551461044e57806342e58a631461045757600080fd5b80633609875814610416578063361778181461042957806336568abe1461043257600080fd5b80631857b512116102cd5780632cf136f3116102a75780632cf136f3146103dd5780632f2ff15d146103f0578063342c19191461040357600080fd5b80631857b5121461039e578063248a9ca3146103a75780632b04e840146103ca57600080fd5b8063119d7898116102fe578063119d789814610379578063131f2e531461038c5780631336a98f1461039557600080fd5b806301bf91801461032557806301ffc9a71461034157806303ed957f14610364575b600080fd5b61032e600d5481565b6040519081526020015b60405180910390f35b61035461034f366004611e74565b61071c565b6040519015158152602001610338565b610377610372366004611ce5565b610760565b005b610377610387366004611d96565b6107f9565b61032e60115481565b61032e60035481565b61032e60085481565b61032e6103b5366004611d96565b60009081526020819052604090206001015490565b61032e6103d8366004611cbc565b61080b565b6103776103eb366004611e53565b610841565b6103776103fe366004611dae565b610859565b610377610411366004611d96565b610880565b61032e610424366004611e53565b610892565b61032e60025481565b610377610440366004611dae565b6108f8565b61032e600b5481565b61032e60045481565b61032e610465366004611d55565b61091a565b61032e7f5bf81cabe53ab1fac30c9f534a726d1efa4d39604cae6fbb7d5396c82ef5f5cf81565b61032e61049f366004611cbc565b610b67565b61032e600f5481565b61032e60075481565b61032e600a5481565b6104d26104cd366004611e9c565b610b89565b60405161033891908151815260208083015190820152604080830151908201526060918201519181019190915260800190565b61032e6110c8565b61052061051b366004611e53565b6110dd565b6040516001600160a01b039091168152602001610338565b610354610546366004611dae565b6000918252602082815260408084206001600160a01b0393909316845291905290205460ff1690565b61032e60105481565b61032e7f603fd68989965f050033092155bb64ae91e5363fea3409ef877c949328c541e581565b6105b26105ad366004611ca2565b6110fc565b60408051825181526020928301519281019290925201610338565b61032e60135481565b6103776105e4366004611e53565b61118f565b6103776105f7366004611ca2565b600680547fffffffffffffffffffffffff0000000000000000000000000000000000000000166001600160a01b0392909216919091179055565b61032e60095481565b61032e6111a7565b61032e610650366004611d96565b6111ca565b61032e600081565b61037761066b366004611dae565b6111e1565b61032e60055481565b610377610687366004611dd9565b6111eb565b61032e61069a366004611ca2565b60146020526000908152604090205481565b61032e600c5481565b610377611254565b6103776106cb366004611ecb565b611268565b61032e60125481565b61032e7f789f97575f27a6b4ceb7f0dff24d6988bf9835006797a01cfaedc572e88a2c7b81565b61032e600e5481565b610377610717366004611e53565b611283565b60006001600160e01b031982167f5a05180f00000000000000000000000000000000000000000000000000000000148061075a575061075a826112be565b92915050565b600061076c8133611325565b60005b828110156107f3576107e184848381811061079a57634e487b7160e01b600052603260045260246000fd5b905060400201600001358585848181106107c457634e487b7160e01b600052603260045260246000fd5b90506040020160200160208101906107dc9190611ca2565b6113a3565b806107eb8161205b565b91505061076f565b50505050565b60006108058133611325565b50600755565b6000806108188133611325565b670de0b6b3a76400006002548461082f9190611fe2565b6108399190611fc2565b949350505050565b600061084d8133611325565b50600891909155600955565b61086382826113ad565b600082815260016020526040902061087b90826112a9565b505050565b600061088c8133611325565b50600555565b60008061089f8133611325565b6002546000906108b7670de0b6b3a764000087611fe2565b6108c19190611fc2565b90506108cd8185612001565b935080600360008282546108e19190611faa565b909155506108ef90506113d3565b50919392505050565b61090282826113f2565b600082815260016020526040902061087b908261147a565b6000806109278133611325565b60025460009061093f85670de0b6b3a7640000611fe2565b6109499190611fc2565b905060006109578286612001565b90508615610b2c5780601160008282546109719190611faa565b92505081905550816012600082825461098a9190611faa565b90915550506006546040517f70a082310000000000000000000000000000000000000000000000000000000081526001600160a01b03888116600483015260009216906370a082319060240160206040518083038186803b1580156109ee57600080fd5b505afa158015610a02573d6000803e3d6000fd5b505050506040513d601f19601f82011682018060405250810190610a269190611eb3565b6001600160a01b0388166000908152601460205260409020549091501580610a4c575080155b15610a6e576013546001600160a01b0388166000908152601460205260409020555b6001600160a01b038716600090815260146020526040812054600f54610a949190611faa565b90506000428211610aa6576000610ab0565b610ab04283612001565b90506000610abe8985611faa565b600f54610acb908b611fe2565b610ad58487611fe2565b610adf9190611faa565b610ae99190611fc2565b9050610af58282612001565b6001600160a01b038b1660009081526014602052604081208054909190610b1d908490612001565b90915550610b5d945050505050565b8060116000828254610b3e9190612001565b925050819055508160126000828254610b579190612001565b90915550505b5095945050505050565b600080610b748133611325565b60025461082f670de0b6b3a764000085611fe2565b610bb46040518060800160405280600081526020016000815260200160008152602001600081525090565b6000610bc08133611325565b600254600090610bdc670de0b6b3a76400006040870135611fe2565b610be69190611fc2565b905060008111610c3d5760405162461bcd60e51b815260206004820152600c60248201527f4e42543a2021616d6f756e74000000000000000000000000000000000000000060448201526064015b60405180910390fd5b6000601481610c4f6020880188611ca2565b6001600160a01b03166001600160a01b03168152602001908152602001600020544211610c7d576000610cb2565b60146000610c8e6020880188611ca2565b6001600160a01b03168152602081019190915260400160002054610cb29042612001565b90506000610ce77f789f97575f27a6b4ceb7f0dff24d6988bf9835006797a01cfaedc572e88a2c7b6105466020890189611ca2565b90506000610d1f7f789f97575f27a6b4ceb7f0dff24d6988bf9835006797a01cfaedc572e88a2c7b61054660408a0160208b01611ca2565b90506000818015610d31575060095484105b158015610d6c5750610d6a7f5bf81cabe53ab1fac30c9f534a726d1efa4d39604cae6fbb7d5396c82ef5f5cf61054660208b018b611ca2565b155b8015610dbf5750610d88610d8360208a018a611ca2565b3b1590565b80610dbf5750610dbf7f789f97575f27a6b4ceb7f0dff24d6988bf9835006797a01cfaedc572e88a2c7b61054660208b018b611ca2565b905060008115610dfd578215610df8576000610dda8661148f565b9050620f4240610dea8289611fe2565b610df49190611fc2565b9150505b610eb8565b83610eb857620f424060085487610e149190611fe2565b610e1e9190611fc2565b90506000620f42406008548b60400135610e389190611fe2565b610e429190611fc2565b90507fa1a76b56d422be0a4c14ccc1281231aa006e67b6e03dcc433a873dc285491e51610e7260208c018c611ca2565b610e8260408d0160208e01611ca2565b604080516001600160a01b039384168152929091166020830152808d0135908201526060810183905260800160405180910390a1505b8261102d5760146000610ed160408c0160208d01611ca2565b6001600160a01b031681526020810191909152604001600020541580610ef957506080890135155b15610f305760135460146000610f1560408d0160208e01611ca2565b6001600160a01b031681526020810191909152604001600020555b6000601481610f4560408d0160208e01611ca2565b6001600160a01b03166001600160a01b0316815260200190815260200160002054600f54610f739190611faa565b90506000428211610f85576000610f8f565b610f8f4283612001565b90506000610fa18960808e0135611faa565b600f54610fae908b611fe2565b838e60800135610fbe9190611fe2565b610fc89190611faa565b610fd29190611fc2565b9050610fde8282612001565b601460008e6020016020810190610ff59190611ca2565b6001600160a01b03166001600160a01b0316815260200190815260200160002060008282546110249190612001565b90915550505050505b60006110398288612001565b90506110498760608c0135612001565b89526110598160808c0135611faa565b60208a015260038054839190600090611073908490611faa565b9091555050600254670de0b6b3a76400009061108f9084611fe2565b6110999190611fc2565b6040808b018290526110ae91908c0135612001565b60608a01526110bb6113d3565b5050505050505050919050565b6000806110d58133611325565b505060115490565b60008281526001602052604081206110f59083611586565b9392505050565b60408051808201909152600080825260208201526001600160a01b0382166000908152601460205260408120544211611136576000611159565b6001600160a01b0383166000908152601460205260409020546111599042612001565b90506111648161148f565b8252600f548110611176576000611184565b80600f546111849190612001565b602083015250919050565b600061119b8133611325565b50600c91909155600d55565b6000806111b48133611325565b6011546012546111c49190611faa565b91505090565b600081815260016020526040812061075a90611592565b610902828261159c565b60006111f78133611325565b60005b8281101561124d5761123b8585858481811061122657634e487b7160e01b600052603260045260246000fd5b90506020020160208101906107dc9190611ca2565b806112458161205b565b9150506111fa565b5050505050565b600454421115611266576112666115c2565b565b60006112748133611325565b50600e92909255600f55601055565b600061128f8133611325565b50600a91909155600b55565b6112a582826117a3565b5050565b60006110f5836001600160a01b038416611841565b60006001600160e01b031982167f7965db0b00000000000000000000000000000000000000000000000000000000148061075a57507f01ffc9a7000000000000000000000000000000000000000000000000000000006001600160e01b031983161461075a565b6000828152602081815260408083206001600160a01b038516845290915290205460ff166112a557611361816001600160a01b03166014611890565b61136c836020611890565b60405160200161137d929190611ef6565b60408051601f198184030181529082905262461bcd60e51b8252610c3491600401611f77565b610863828261129b565b6000828152602081905260409020600101546113c98133611325565b61087b83836117a3565b6005546004546113e39190611faa565b421115611266576112666115c2565b6001600160a01b03811633146114705760405162461bcd60e51b815260206004820152602f60248201527f416363657373436f6e74726f6c3a2063616e206f6e6c792072656e6f756e636560448201527f20726f6c657320666f722073656c6600000000000000000000000000000000006064820152608401610c34565b6112a58282611ab7565b60006110f5836001600160a01b038416611b36565b6000600f548211156114a357505060105490565b600d548211156114e257600d54600f546114bd9190612001565b82600f546114cb9190612001565b600e546114d89190611fe2565b61075a9190611fc2565b600b5482111561153a57600b54600d546114fc9190612001565b600b546115099084612001565b600e54600c546115199190612001565b6115239190611fe2565b61152d9190611fc2565b600c5461075a9190612001565b60095482111561157957600b5482600c54600a546115589190612001565b6115629190611fe2565b61156c9190611fc2565b600a5461075a9190612001565b505060085490565b919050565b60006110f58383611c53565b600061075a825490565b6000828152602081905260409020600101546115b88133611325565b61087b8383611ab7565b4260045560035415611266576000620f42406007546003546115e49190611fe2565b6115ee9190611fc2565b90506000816003546116009190612001565b905080601160008282546116149190611faa565b92505081905550806012600082825461162d9190612001565b90915550506000600355811561173357600061166a7f603fd68989965f050033092155bb64ae91e5363fea3409ef877c949328c541e560006110dd565b6006546040517f0bb9ff5d0000000000000000000000000000000000000000000000000000000081526001600160a01b038084166004830152602482018790529293509116908190630bb9ff5d90604401600060405180830381600087803b1580156116d557600080fd5b505af11580156116e9573d6000803e3d6000fd5b5050604080516001600160a01b0386168152602081018890527f50e71dbf1d972fa3c0618c2fb1267d56a399175b463c486d15995e34bf6cd610935001905060405180910390a150505b60125460115461174b90670de0b6b3a7640000611fe2565b6117559190611fc2565b61176790670de0b6b3a7640000611faa565b60028190556040519081527f4dbe4840d7465bd162f67814cea0b519567a2e0e578bcde61e7f4ced361e5a3d9060200160405180910390a15050565b6000828152602081815260408083206001600160a01b038516845290915290205460ff166112a5576000828152602081815260408083206001600160a01b03851684529091529020805460ff191660011790556117fd3390565b6001600160a01b0316816001600160a01b0316837f2f8788117e7eff1d82e926ec794901d17c78024a50270940304540a733656f0d60405160405180910390a45050565b60008181526001830160205260408120546118885750815460018181018455600084815260208082209093018490558454848252828601909352604090209190915561075a565b50600061075a565b6060600061189f836002611fe2565b6118aa906002611faa565b67ffffffffffffffff8111156118d057634e487b7160e01b600052604160045260246000fd5b6040519080825280601f01601f1916602001820160405280156118fa576020820181803683370190505b5090507f30000000000000000000000000000000000000000000000000000000000000008160008151811061193f57634e487b7160e01b600052603260045260246000fd5b60200101906001600160f81b031916908160001a9053507f78000000000000000000000000000000000000000000000000000000000000008160018151811061199857634e487b7160e01b600052603260045260246000fd5b60200101906001600160f81b031916908160001a90535060006119bc846002611fe2565b6119c7906001611faa565b90505b6001811115611a68577f303132333435363738396162636465660000000000000000000000000000000085600f1660108110611a1657634e487b7160e01b600052603260045260246000fd5b1a60f81b828281518110611a3a57634e487b7160e01b600052603260045260246000fd5b60200101906001600160f81b031916908160001a90535060049490941c93611a6181612044565b90506119ca565b5083156110f55760405162461bcd60e51b815260206004820181905260248201527f537472696e67733a20686578206c656e67746820696e73756666696369656e746044820152606401610c34565b6000828152602081815260408083206001600160a01b038516845290915290205460ff16156112a5576000828152602081815260408083206001600160a01b0385168085529252808320805460ff1916905551339285917ff6391f5c32d9c69d2a47ea670b442974b53935d1edc7fd64eb21e047a839171b9190a45050565b60008181526001830160205260408120548015611c49576000611b5a600183612001565b8554909150600090611b6e90600190612001565b9050818114611bef576000866000018281548110611b9c57634e487b7160e01b600052603260045260246000fd5b9060005260206000200154905080876000018481548110611bcd57634e487b7160e01b600052603260045260246000fd5b6000918252602080832090910192909255918252600188019052604090208390555b8554869080611c0e57634e487b7160e01b600052603160045260246000fd5b60019003818190600052602060002001600090559055856001016000868152602001908152602001600020600090556001935050505061075a565b600091505061075a565b6000826000018281548110611c7857634e487b7160e01b600052603260045260246000fd5b9060005260206000200154905092915050565b80356001600160a01b038116811461158157600080fd5b600060208284031215611cb3578081fd5b6110f582611c8b565b60008060408385031215611cce578081fd5b611cd783611c8b565b946020939093013593505050565b60008060208385031215611cf7578182fd5b823567ffffffffffffffff80821115611d0e578384fd5b818501915085601f830112611d21578384fd5b813581811115611d2f578485fd5b8660208260061b8501011115611d43578485fd5b60209290920196919550909350505050565b600080600060608486031215611d69578081fd5b83358015158114611d78578182fd5b9250611d8660208501611c8b565b9150604084013590509250925092565b600060208284031215611da7578081fd5b5035919050565b60008060408385031215611dc0578182fd5b82359150611dd060208401611c8b565b90509250929050565b600080600060408486031215611ded578283fd5b83359250602084013567ffffffffffffffff80821115611e0b578384fd5b818601915086601f830112611e1e578384fd5b813581811115611e2c578485fd5b8760208260051b8501011115611e40578485fd5b6020830194508093505050509250925092565b60008060408385031215611e65578182fd5b50508035926020909101359150565b600060208284031215611e85578081fd5b81356001600160e01b0319811681146110f5578182fd5b600060a08284031215611ead578081fd5b50919050565b600060208284031215611ec4578081fd5b5051919050565b600080600060608486031215611edf578283fd5b505081359360208301359350604090920135919050565b7f416363657373436f6e74726f6c3a206163636f756e7420000000000000000000815260008351611f2e816017850160208801612018565b7f206973206d697373696e6720726f6c65200000000000000000000000000000006017918401918201528351611f6b816028840160208801612018565b01602801949350505050565b6020815260008251806020840152611f96816040850160208701612018565b601f01601f19169190910160400192915050565b60008219821115611fbd57611fbd612076565b500190565b600082611fdd57634e487b7160e01b81526012600452602481fd5b500490565b6000816000190483118215151615611ffc57611ffc612076565b500290565b60008282101561201357612013612076565b500390565b60005b8381101561203357818101518382015260200161201b565b838111156107f35750506000910152565b60008161205357612053612076565b506000190190565b600060001982141561206f5761206f612076565b5060010190565b634e487b7160e01b600052601160045260246000fdfea26469706673582212209bba5ee696db4600072ad24de3ffb1b5d8a9aa9cab28a3a6dbe39713d0b490f664736f6c63430008040033",
			"opcodes": "PUSH1 0x80 PUSH1 0x40 MSTORE PUSH8 0xDE0B6B3A7640000 PUSH1 0x2 SSTORE TIMESTAMP PUSH1 0x4 SSTORE PUSH1 0x0 PUSH1 0x5 SSTORE PUSH2 0xC350 PUSH1 0x7 SSTORE PUSH3 0xF1B30 PUSH1 0x8 SSTORE PUSH2 0xE10 PUSH1 0x9 SSTORE PUSH3 0x55730 PUSH1 0xA SSTORE PUSH3 0x9E3400 PUSH1 0xB SSTORE PUSH3 0x15F90 PUSH1 0xC SSTORE PUSH4 0x13C6800 PUSH1 0xD SSTORE PUSH3 0x13880 PUSH1 0xE SSTORE PUSH4 0x1DA9C00 PUSH1 0xF SSTORE PUSH1 0x0 PUSH1 0x10 SSTORE CALLVALUE DUP1 ISZERO PUSH3 0x6A JUMPI PUSH1 0x0 DUP1 REVERT JUMPDEST POP PUSH3 0x78 PUSH1 0x0 CALLER PUSH3 0xE4 JUMP JUMPDEST PUSH3 0xA4 PUSH32 0x603FD68989965F050033092155BB64AE91E5363FEA3409EF877C949328C541E5 CALLER PUSH3 0xE4 JUMP JUMPDEST TIMESTAMP PUSH1 0x13 SSTORE PUSH1 0x2 SLOAD PUSH1 0x40 MLOAD SWAP1 DUP2 MSTORE PUSH32 0x4DBE4840D7465BD162F67814CEA0B519567A2E0E578BCDE61E7F4CED361E5A3D SWAP1 PUSH1 0x20 ADD PUSH1 0x40 MLOAD DUP1 SWAP2 SUB SWAP1 LOG1 PUSH3 0x249 JUMP JUMPDEST PUSH3 0xFB DUP3 DUP3 PUSH3 0x127 PUSH1 0x20 SHL PUSH3 0x129B OR PUSH1 0x20 SHR JUMP JUMPDEST PUSH1 0x0 DUP3 DUP2 MSTORE PUSH1 0x1 PUSH1 0x20 SWAP1 DUP2 MSTORE PUSH1 0x40 SWAP1 SWAP2 KECCAK256 PUSH3 0x122 SWAP2 DUP4 SWAP1 PUSH3 0x12A9 PUSH3 0x137 DUP3 SHL OR SWAP1 SHR JUMP JUMPDEST POP POP POP JUMP JUMPDEST PUSH3 0x133 DUP3 DUP3 PUSH3 0x157 JUMP JUMPDEST POP POP JUMP JUMPDEST PUSH1 0x0 PUSH3 0x14E DUP4 PUSH1 0x1 PUSH1 0x1 PUSH1 0xA0 SHL SUB DUP5 AND PUSH3 0x1F7 JUMP JUMPDEST SWAP1 POP JUMPDEST SWAP3 SWAP2 POP POP JUMP JUMPDEST PUSH1 0x0 DUP3 DUP2 MSTORE PUSH1 0x20 DUP2 DUP2 MSTORE PUSH1 0x40 DUP1 DUP4 KECCAK256 PUSH1 0x1 PUSH1 0x1 PUSH1 0xA0 SHL SUB DUP6 AND DUP5 MSTORE SWAP1 SWAP2 MSTORE SWAP1 KECCAK256 SLOAD PUSH1 0xFF AND PUSH3 0x133 JUMPI PUSH1 0x0 DUP3 DUP2 MSTORE PUSH1 0x20 DUP2 DUP2 MSTORE PUSH1 0x40 DUP1 DUP4 KECCAK256 PUSH1 0x1 PUSH1 0x1 PUSH1 0xA0 SHL SUB DUP6 AND DUP5 MSTORE SWAP1 SWAP2 MSTORE SWAP1 KECCAK256 DUP1 SLOAD PUSH1 0xFF NOT AND PUSH1 0x1 OR SWAP1 SSTORE PUSH3 0x1B3 CALLER SWAP1 JUMP JUMPDEST PUSH1 0x1 PUSH1 0x1 PUSH1 0xA0 SHL SUB AND DUP2 PUSH1 0x1 PUSH1 0x1 PUSH1 0xA0 SHL SUB AND DUP4 PUSH32 0x2F8788117E7EFF1D82E926EC794901D17C78024A50270940304540A733656F0D PUSH1 0x40 MLOAD PUSH1 0x40 MLOAD DUP1 SWAP2 SUB SWAP1 LOG4 POP POP JUMP JUMPDEST PUSH1 0x0 DUP2 DUP2 MSTORE PUSH1 0x1 DUP4 ADD PUSH1 0x20 MSTORE PUSH1 0x40 DUP2 KECCAK256 SLOAD PUSH3 0x240 JUMPI POP DUP2 SLOAD PUSH1 0x1 DUP2 DUP2 ADD DUP5 SSTORE PUSH1 0x0 DUP5 DUP2 MSTORE PUSH1 0x20 DUP1 DUP3 KECCAK256 SWAP1 SWAP4 ADD DUP5 SWAP1 SSTORE DUP5 SLOAD DUP5 DUP3 MSTORE DUP3 DUP7 ADD SWAP1 SWAP4 MSTORE PUSH1 0x40 SWAP1 KECCAK256 SWAP2 SWAP1 SWAP2 SSTORE PUSH3 0x151 JUMP JUMPDEST POP PUSH1 0x0 PUSH3 0x151 JUMP JUMPDEST PUSH2 0x20C2 DUP1 PUSH3 0x259 PUSH1 0x0 CODECOPY PUSH1 0x0 RETURN INVALID PUSH1 0x80 PUSH1 0x40 MSTORE CALLVALUE DUP1 ISZERO PUSH2 0x10 JUMPI PUSH1 0x0 DUP1 REVERT JUMPDEST POP PUSH1 0x4 CALLDATASIZE LT PUSH2 0x320 JUMPI PUSH1 0x0 CALLDATALOAD PUSH1 0xE0 SHR DUP1 PUSH4 0x858A135D GT PUSH2 0x1A7 JUMPI DUP1 PUSH4 0xD391014B GT PUSH2 0xEE JUMPI DUP1 PUSH4 0xE8AC6E4E GT PUSH2 0x97 JUMPI DUP1 PUSH4 0xF687E46E GT PUSH2 0x71 JUMPI DUP1 PUSH4 0xF687E46E EQ PUSH2 0x6D9 JUMPI DUP1 PUSH4 0xFC78BAB3 EQ PUSH2 0x700 JUMPI DUP1 PUSH4 0xFED77A80 EQ PUSH2 0x709 JUMPI PUSH1 0x0 DUP1 REVERT JUMPDEST DUP1 PUSH4 0xE8AC6E4E EQ PUSH2 0x6B5 JUMPI DUP1 PUSH4 0xEBC27241 EQ PUSH2 0x6BD JUMPI DUP1 PUSH4 0xEF356A79 EQ PUSH2 0x6D0 JUMPI PUSH1 0x0 DUP1 REVERT JUMPDEST DUP1 PUSH4 0xDDA7498E GT PUSH2 0xC8 JUMPI DUP1 PUSH4 0xDDA7498E EQ PUSH2 0x679 JUMPI DUP1 PUSH4 0xDFD5E129 EQ PUSH2 0x68C JUMPI DUP1 PUSH4 0xE7BAF7F4 EQ PUSH2 0x6AC JUMPI PUSH1 0x0 DUP1 REVERT JUMPDEST DUP1 PUSH4 0xD391014B EQ PUSH2 0x655 JUMPI DUP1 PUSH4 0xD547741F EQ PUSH2 0x65D JUMPI DUP1 PUSH4 0xDA9B835A EQ PUSH2 0x670 JUMPI PUSH1 0x0 DUP1 REVERT JUMPDEST DUP1 PUSH4 0xABFD4EC3 GT PUSH2 0x150 JUMPI DUP1 PUSH4 0xC4A8A169 GT PUSH2 0x12A JUMPI DUP1 PUSH4 0xC4A8A169 EQ PUSH2 0x631 JUMPI DUP1 PUSH4 0xC4E41B22 EQ PUSH2 0x63A JUMPI DUP1 PUSH4 0xCA15C873 EQ PUSH2 0x642 JUMPI PUSH1 0x0 DUP1 REVERT JUMPDEST DUP1 PUSH4 0xABFD4EC3 EQ PUSH2 0x5CD JUMPI DUP1 PUSH4 0xB6C5AB7B EQ PUSH2 0x5D6 JUMPI DUP1 PUSH4 0xBC6537E8 EQ PUSH2 0x5E9 JUMPI PUSH1 0x0 DUP1 REVERT JUMPDEST DUP1 PUSH4 0x9394AA66 GT PUSH2 0x181 JUMPI DUP1 PUSH4 0x9394AA66 EQ PUSH2 0x56F JUMPI DUP1 PUSH4 0x94B2242E EQ PUSH2 0x578 JUMPI DUP1 PUSH4 0x9BE810CC EQ PUSH2 0x59F JUMPI PUSH1 0x0 DUP1 REVERT JUMPDEST DUP1 PUSH4 0x858A135D EQ PUSH2 0x505 JUMPI DUP1 PUSH4 0x9010D07C EQ PUSH2 0x50D JUMPI DUP1 PUSH4 0x91D14854 EQ PUSH2 0x538 JUMPI PUSH1 0x0 DUP1 REVERT JUMPDEST DUP1 PUSH4 0x36098758 GT PUSH2 0x26B JUMPI DUP1 PUSH4 0x4CCC35FB GT PUSH2 0x214 JUMPI DUP1 PUSH4 0x62109FEB GT PUSH2 0x1EE JUMPI DUP1 PUSH4 0x62109FEB EQ PUSH2 0x4AD JUMPI DUP1 PUSH4 0x7207786F EQ PUSH2 0x4B6 JUMPI DUP1 PUSH4 0x815A61E0 EQ PUSH2 0x4BF JUMPI PUSH1 0x0 DUP1 REVERT JUMPDEST DUP1 PUSH4 0x4CCC35FB EQ PUSH2 0x46A JUMPI DUP1 PUSH4 0x5CDBA003 EQ PUSH2 0x491 JUMPI DUP1 PUSH4 0x60FD5FD7 EQ PUSH2 0x4A4 JUMPI PUSH1 0x0 DUP1 REVERT JUMPDEST DUP1 PUSH4 0x372AFFBF GT PUSH2 0x245 JUMPI DUP1 PUSH4 0x372AFFBF EQ PUSH2 0x445 JUMPI DUP1 PUSH4 0x40142E55 EQ PUSH2 0x44E JUMPI DUP1 PUSH4 0x42E58A63 EQ PUSH2 0x457 JUMPI PUSH1 0x0 DUP1 REVERT JUMPDEST DUP1 PUSH4 0x36098758 EQ PUSH2 0x416 JUMPI DUP1 PUSH4 0x36177818 EQ PUSH2 0x429 JUMPI DUP1 PUSH4 0x36568ABE EQ PUSH2 0x432 JUMPI PUSH1 0x0 DUP1 REVERT JUMPDEST DUP1 PUSH4 0x1857B512 GT PUSH2 0x2CD JUMPI DUP1 PUSH4 0x2CF136F3 GT PUSH2 0x2A7 JUMPI DUP1 PUSH4 0x2CF136F3 EQ PUSH2 0x3DD JUMPI DUP1 PUSH4 0x2F2FF15D EQ PUSH2 0x3F0 JUMPI DUP1 PUSH4 0x342C1919 EQ PUSH2 0x403 JUMPI PUSH1 0x0 DUP1 REVERT JUMPDEST DUP1 PUSH4 0x1857B512 EQ PUSH2 0x39E JUMPI DUP1 PUSH4 0x248A9CA3 EQ PUSH2 0x3A7 JUMPI DUP1 PUSH4 0x2B04E840 EQ PUSH2 0x3CA JUMPI PUSH1 0x0 DUP1 REVERT JUMPDEST DUP1 PUSH4 0x119D7898 GT PUSH2 0x2FE JUMPI DUP1 PUSH4 0x119D7898 EQ PUSH2 0x379 JUMPI DUP1 PUSH4 0x131F2E53 EQ PUSH2 0x38C JUMPI DUP1 PUSH4 0x1336A98F EQ PUSH2 0x395 JUMPI PUSH1 0x0 DUP1 REVERT JUMPDEST DUP1 PUSH4 0x1BF9180 EQ PUSH2 0x325 JUMPI DUP1 PUSH4 0x1FFC9A7 EQ PUSH2 0x341 JUMPI DUP1 PUSH4 0x3ED957F EQ PUSH2 0x364 JUMPI JUMPDEST PUSH1 0x0 DUP1 REVERT JUMPDEST PUSH2 0x32E PUSH1 0xD SLOAD DUP2 JUMP JUMPDEST PUSH1 0x40 MLOAD SWAP1 DUP2 MSTORE PUSH1 0x20 ADD JUMPDEST PUSH1 0x40 MLOAD DUP1 SWAP2 SUB SWAP1 RETURN JUMPDEST PUSH2 0x354 PUSH2 0x34F CALLDATASIZE PUSH1 0x4 PUSH2 0x1E74 JUMP JUMPDEST PUSH2 0x71C JUMP JUMPDEST PUSH1 0x40 MLOAD SWAP1 ISZERO ISZERO DUP2 MSTORE PUSH1 0x20 ADD PUSH2 0x338 JUMP JUMPDEST PUSH2 0x377 PUSH2 0x372 CALLDATASIZE PUSH1 0x4 PUSH2 0x1CE5 JUMP JUMPDEST PUSH2 0x760 JUMP JUMPDEST STOP JUMPDEST PUSH2 0x377 PUSH2 0x387 CALLDATASIZE PUSH1 0x4 PUSH2 0x1D96 JUMP JUMPDEST PUSH2 0x7F9 JUMP JUMPDEST PUSH2 0x32E PUSH1 0x11 SLOAD DUP2 JUMP JUMPDEST PUSH2 0x32E PUSH1 0x3 SLOAD DUP2 JUMP JUMPDEST PUSH2 0x32E PUSH1 0x8 SLOAD DUP2 JUMP JUMPDEST PUSH2 0x32E PUSH2 0x3B5 CALLDATASIZE PUSH1 0x4 PUSH2 0x1D96 JUMP JUMPDEST PUSH1 0x0 SWAP1 DUP2 MSTORE PUSH1 0x20 DUP2 SWAP1 MSTORE PUSH1 0x40 SWAP1 KECCAK256 PUSH1 0x1 ADD SLOAD SWAP1 JUMP JUMPDEST PUSH2 0x32E PUSH2 0x3D8 CALLDATASIZE PUSH1 0x4 PUSH2 0x1CBC JUMP JUMPDEST PUSH2 0x80B JUMP JUMPDEST PUSH2 0x377 PUSH2 0x3EB CALLDATASIZE PUSH1 0x4 PUSH2 0x1E53 JUMP JUMPDEST PUSH2 0x841 JUMP JUMPDEST PUSH2 0x377 PUSH2 0x3FE CALLDATASIZE PUSH1 0x4 PUSH2 0x1DAE JUMP JUMPDEST PUSH2 0x859 JUMP JUMPDEST PUSH2 0x377 PUSH2 0x411 CALLDATASIZE PUSH1 0x4 PUSH2 0x1D96 JUMP JUMPDEST PUSH2 0x880 JUMP JUMPDEST PUSH2 0x32E PUSH2 0x424 CALLDATASIZE PUSH1 0x4 PUSH2 0x1E53 JUMP JUMPDEST PUSH2 0x892 JUMP JUMPDEST PUSH2 0x32E PUSH1 0x2 SLOAD DUP2 JUMP JUMPDEST PUSH2 0x377 PUSH2 0x440 CALLDATASIZE PUSH1 0x4 PUSH2 0x1DAE JUMP JUMPDEST PUSH2 0x8F8 JUMP JUMPDEST PUSH2 0x32E PUSH1 0xB SLOAD DUP2 JUMP JUMPDEST PUSH2 0x32E PUSH1 0x4 SLOAD DUP2 JUMP JUMPDEST PUSH2 0x32E PUSH2 0x465 CALLDATASIZE PUSH1 0x4 PUSH2 0x1D55 JUMP JUMPDEST PUSH2 0x91A JUMP JUMPDEST PUSH2 0x32E PUSH32 0x5BF81CABE53AB1FAC30C9F534A726D1EFA4D39604CAE6FBB7D5396C82EF5F5CF DUP2 JUMP JUMPDEST PUSH2 0x32E PUSH2 0x49F CALLDATASIZE PUSH1 0x4 PUSH2 0x1CBC JUMP JUMPDEST PUSH2 0xB67 JUMP JUMPDEST PUSH2 0x32E PUSH1 0xF SLOAD DUP2 JUMP JUMPDEST PUSH2 0x32E PUSH1 0x7 SLOAD DUP2 JUMP JUMPDEST PUSH2 0x32E PUSH1 0xA SLOAD DUP2 JUMP JUMPDEST PUSH2 0x4D2 PUSH2 0x4CD CALLDATASIZE PUSH1 0x4 PUSH2 0x1E9C JUMP JUMPDEST PUSH2 0xB89 JUMP JUMPDEST PUSH1 0x40 MLOAD PUSH2 0x338 SWAP2 SWAP1 DUP2 MLOAD DUP2 MSTORE PUSH1 0x20 DUP1 DUP4 ADD MLOAD SWAP1 DUP3 ADD MSTORE PUSH1 0x40 DUP1 DUP4 ADD MLOAD SWAP1 DUP3 ADD MSTORE PUSH1 0x60 SWAP2 DUP3 ADD MLOAD SWAP2 DUP2 ADD SWAP2 SWAP1 SWAP2 MSTORE PUSH1 0x80 ADD SWAP1 JUMP JUMPDEST PUSH2 0x32E PUSH2 0x10C8 JUMP JUMPDEST PUSH2 0x520 PUSH2 0x51B CALLDATASIZE PUSH1 0x4 PUSH2 0x1E53 JUMP JUMPDEST PUSH2 0x10DD JUMP JUMPDEST PUSH1 0x40 MLOAD PUSH1 0x1 PUSH1 0x1 PUSH1 0xA0 SHL SUB SWAP1 SWAP2 AND DUP2 MSTORE PUSH1 0x20 ADD PUSH2 0x338 JUMP JUMPDEST PUSH2 0x354 PUSH2 0x546 CALLDATASIZE PUSH1 0x4 PUSH2 0x1DAE JUMP JUMPDEST PUSH1 0x0 SWAP2 DUP3 MSTORE PUSH1 0x20 DUP3 DUP2 MSTORE PUSH1 0x40 DUP1 DUP5 KECCAK256 PUSH1 0x1 PUSH1 0x1 PUSH1 0xA0 SHL SUB SWAP4 SWAP1 SWAP4 AND DUP5 MSTORE SWAP2 SWAP1 MSTORE SWAP1 KECCAK256 SLOAD PUSH1 0xFF AND SWAP1 JUMP JUMPDEST PUSH2 0x32E PUSH1 0x10 SLOAD DUP2 JUMP JUMPDEST PUSH2 0x32E PUSH32 0x603FD68989965F050033092155BB64AE91E5363FEA3409EF877C949328C541E5 DUP2 JUMP JUMPDEST PUSH2 0x5B2 PUSH2 0x5AD CALLDATASIZE PUSH1 0x4 PUSH2 0x1CA2 JUMP JUMPDEST PUSH2 0x10FC JUMP JUMPDEST PUSH1 0x40 DUP1 MLOAD DUP3 MLOAD DUP2 MSTORE PUSH1 0x20 SWAP3 DUP4 ADD MLOAD SWAP3 DUP2 ADD SWAP3 SWAP1 SWAP3 MSTORE ADD PUSH2 0x338 JUMP JUMPDEST PUSH2 0x32E PUSH1 0x13 SLOAD DUP2 JUMP JUMPDEST PUSH2 0x377 PUSH2 0x5E4 CALLDATASIZE PUSH1 0x4 PUSH2 0x1E53 JUMP JUMPDEST PUSH2 0x118F JUMP JUMPDEST PUSH2 0x377 PUSH2 0x5F7 CALLDATASIZE PUSH1 0x4 PUSH2 0x1CA2 JUMP JUMPDEST PUSH1 0x6 DUP1 SLOAD PUSH32 0xFFFFFFFFFFFFFFFFFFFFFFFF0000000000000000000000000000000000000000 AND PUSH1 0x1 PUSH1 0x1 PUSH1 0xA0 SHL SUB SWAP3 SWAP1 SWAP3 AND SWAP2 SWAP1 SWAP2 OR SWAP1 SSTORE JUMP JUMPDEST PUSH2 0x32E PUSH1 0x9 SLOAD DUP2 JUMP JUMPDEST PUSH2 0x32E PUSH2 0x11A7 JUMP JUMPDEST PUSH2 0x32E PUSH2 0x650 CALLDATASIZE PUSH1 0x4 PUSH2 0x1D96 JUMP JUMPDEST PUSH2 0x11CA JUMP JUMPDEST PUSH2 0x32E PUSH1 0x0 DUP2 JUMP JUMPDEST PUSH2 0x377 PUSH2 0x66B CALLDATASIZE PUSH1 0x4 PUSH2 0x1DAE JUMP JUMPDEST PUSH2 0x11E1 JUMP JUMPDEST PUSH2 0x32E PUSH1 0x5 SLOAD DUP2 JUMP JUMPDEST PUSH2 0x377 PUSH2 0x687 CALLDATASIZE PUSH1 0x4 PUSH2 0x1DD9 JUMP JUMPDEST PUSH2 0x11EB JUMP JUMPDEST PUSH2 0x32E PUSH2 0x69A CALLDATASIZE PUSH1 0x4 PUSH2 0x1CA2 JUMP JUMPDEST PUSH1 0x14 PUSH1 0x20 MSTORE PUSH1 0x0 SWAP1 DUP2 MSTORE PUSH1 0x40 SWAP1 KECCAK256 SLOAD DUP2 JUMP JUMPDEST PUSH2 0x32E PUSH1 0xC SLOAD DUP2 JUMP JUMPDEST PUSH2 0x377 PUSH2 0x1254 JUMP JUMPDEST PUSH2 0x377 PUSH2 0x6CB CALLDATASIZE PUSH1 0x4 PUSH2 0x1ECB JUMP JUMPDEST PUSH2 0x1268 JUMP JUMPDEST PUSH2 0x32E PUSH1 0x12 SLOAD DUP2 JUMP JUMPDEST PUSH2 0x32E PUSH32 0x789F97575F27A6B4CEB7F0DFF24D6988BF9835006797A01CFAEDC572E88A2C7B DUP2 JUMP JUMPDEST PUSH2 0x32E PUSH1 0xE SLOAD DUP2 JUMP JUMPDEST PUSH2 0x377 PUSH2 0x717 CALLDATASIZE PUSH1 0x4 PUSH2 0x1E53 JUMP JUMPDEST PUSH2 0x1283 JUMP JUMPDEST PUSH1 0x0 PUSH1 0x1 PUSH1 0x1 PUSH1 0xE0 SHL SUB NOT DUP3 AND PUSH32 0x5A05180F00000000000000000000000000000000000000000000000000000000 EQ DUP1 PUSH2 0x75A JUMPI POP PUSH2 0x75A DUP3 PUSH2 0x12BE JUMP JUMPDEST SWAP3 SWAP2 POP POP JUMP JUMPDEST PUSH1 0x0 PUSH2 0x76C DUP2 CALLER PUSH2 0x1325 JUMP JUMPDEST PUSH1 0x0 JUMPDEST DUP3 DUP2 LT ISZERO PUSH2 0x7F3 JUMPI PUSH2 0x7E1 DUP5 DUP5 DUP4 DUP2 DUP2 LT PUSH2 0x79A JUMPI PUSH4 0x4E487B71 PUSH1 0xE0 SHL PUSH1 0x0 MSTORE PUSH1 0x32 PUSH1 0x4 MSTORE PUSH1 0x24 PUSH1 0x0 REVERT JUMPDEST SWAP1 POP PUSH1 0x40 MUL ADD PUSH1 0x0 ADD CALLDATALOAD DUP6 DUP6 DUP5 DUP2 DUP2 LT PUSH2 0x7C4 JUMPI PUSH4 0x4E487B71 PUSH1 0xE0 SHL PUSH1 0x0 MSTORE PUSH1 0x32 PUSH1 0x4 MSTORE PUSH1 0x24 PUSH1 0x0 REVERT JUMPDEST SWAP1 POP PUSH1 0x40 MUL ADD PUSH1 0x20 ADD PUSH1 0x20 DUP2 ADD SWAP1 PUSH2 0x7DC SWAP2 SWAP1 PUSH2 0x1CA2 JUMP JUMPDEST PUSH2 0x13A3 JUMP JUMPDEST DUP1 PUSH2 0x7EB DUP2 PUSH2 0x205B JUMP JUMPDEST SWAP2 POP POP PUSH2 0x76F JUMP JUMPDEST POP POP POP POP JUMP JUMPDEST PUSH1 0x0 PUSH2 0x805 DUP2 CALLER PUSH2 0x1325 JUMP JUMPDEST POP PUSH1 0x7 SSTORE JUMP JUMPDEST PUSH1 0x0 DUP1 PUSH2 0x818 DUP2 CALLER PUSH2 0x1325 JUMP JUMPDEST PUSH8 0xDE0B6B3A7640000 PUSH1 0x2 SLOAD DUP5 PUSH2 0x82F SWAP2 SWAP1 PUSH2 0x1FE2 JUMP JUMPDEST PUSH2 0x839 SWAP2 SWAP1 PUSH2 0x1FC2 JUMP JUMPDEST SWAP5 SWAP4 POP POP POP POP JUMP JUMPDEST PUSH1 0x0 PUSH2 0x84D DUP2 CALLER PUSH2 0x1325 JUMP JUMPDEST POP PUSH1 0x8 SWAP2 SWAP1 SWAP2 SSTORE PUSH1 0x9 SSTORE JUMP JUMPDEST PUSH2 0x863 DUP3 DUP3 PUSH2 0x13AD JUMP JUMPDEST PUSH1 0x0 DUP3 DUP2 MSTORE PUSH1 0x1 PUSH1 0x20 MSTORE PUSH1 0x40 SWAP1 KECCAK256 PUSH2 0x87B SWAP1 DUP3 PUSH2 0x12A9 JUMP JUMPDEST POP POP POP JUMP JUMPDEST PUSH1 0x0 PUSH2 0x88C DUP2 CALLER PUSH2 0x1325 JUMP JUMPDEST POP PUSH1 0x5 SSTORE JUMP JUMPDEST PUSH1 0x0 DUP1 PUSH2 0x89F DUP2 CALLER PUSH2 0x1325 JUMP JUMPDEST PUSH1 0x2 SLOAD PUSH1 0x0 SWAP1 PUSH2 0x8B7 PUSH8 0xDE0B6B3A7640000 DUP8 PUSH2 0x1FE2 JUMP JUMPDEST PUSH2 0x8C1 SWAP2 SWAP1 PUSH2 0x1FC2 JUMP JUMPDEST SWAP1 POP PUSH2 0x8CD DUP2 DUP6 PUSH2 0x2001 JUMP JUMPDEST SWAP4 POP DUP1 PUSH1 0x3 PUSH1 0x0 DUP3 DUP3 SLOAD PUSH2 0x8E1 SWAP2 SWAP1 PUSH2 0x1FAA JUMP JUMPDEST SWAP1 SWAP2 SSTORE POP PUSH2 0x8EF SWAP1 POP PUSH2 0x13D3 JUMP JUMPDEST POP SWAP2 SWAP4 SWAP3 POP POP POP JUMP JUMPDEST PUSH2 0x902 DUP3 DUP3 PUSH2 0x13F2 JUMP JUMPDEST PUSH1 0x0 DUP3 DUP2 MSTORE PUSH1 0x1 PUSH1 0x20 MSTORE PUSH1 0x40 SWAP1 KECCAK256 PUSH2 0x87B SWAP1 DUP3 PUSH2 0x147A JUMP JUMPDEST PUSH1 0x0 DUP1 PUSH2 0x927 DUP2 CALLER PUSH2 0x1325 JUMP JUMPDEST PUSH1 0x2 SLOAD PUSH1 0x0 SWAP1 PUSH2 0x93F DUP6 PUSH8 0xDE0B6B3A7640000 PUSH2 0x1FE2 JUMP JUMPDEST PUSH2 0x949 SWAP2 SWAP1 PUSH2 0x1FC2 JUMP JUMPDEST SWAP1 POP PUSH1 0x0 PUSH2 0x957 DUP3 DUP7 PUSH2 0x2001 JUMP JUMPDEST SWAP1 POP DUP7 ISZERO PUSH2 0xB2C JUMPI DUP1 PUSH1 0x11 PUSH1 0x0 DUP3 DUP3 SLOAD PUSH2 0x971 SWAP2 SWAP1 PUSH2 0x1FAA JUMP JUMPDEST SWAP3 POP POP DUP2 SWAP1 SSTORE POP DUP2 PUSH1 0x12 PUSH1 0x0 DUP3 DUP3 SLOAD PUSH2 0x98A SWAP2 SWAP1 PUSH2 0x1FAA JUMP JUMPDEST SWAP1 SWAP2 SSTORE POP POP PUSH1 0x6 SLOAD PUSH1 0x40 MLOAD PUSH32 0x70A0823100000000000000000000000000000000000000000000000000000000 DUP2 MSTORE PUSH1 0x1 PUSH1 0x1 PUSH1 0xA0 SHL SUB DUP9 DUP2 AND PUSH1 0x4 DUP4 ADD MSTORE PUSH1 0x0 SWAP3 AND SWAP1 PUSH4 0x70A08231 SWAP1 PUSH1 0x24 ADD PUSH1 0x20 PUSH1 0x40 MLOAD DUP1 DUP4 SUB DUP2 DUP7 DUP1 EXTCODESIZE ISZERO DUP1 ISZERO PUSH2 0x9EE JUMPI PUSH1 0x0 DUP1 REVERT JUMPDEST POP GAS STATICCALL ISZERO DUP1 ISZERO PUSH2 0xA02 JUMPI RETURNDATASIZE PUSH1 0x0 DUP1 RETURNDATACOPY RETURNDATASIZE PUSH1 0x0 REVERT JUMPDEST POP POP POP POP PUSH1 0x40 MLOAD RETURNDATASIZE PUSH1 0x1F NOT PUSH1 0x1F DUP3 ADD AND DUP3 ADD DUP1 PUSH1 0x40 MSTORE POP DUP2 ADD SWAP1 PUSH2 0xA26 SWAP2 SWAP1 PUSH2 0x1EB3 JUMP JUMPDEST PUSH1 0x1 PUSH1 0x1 PUSH1 0xA0 SHL SUB DUP9 AND PUSH1 0x0 SWAP1 DUP2 MSTORE PUSH1 0x14 PUSH1 0x20 MSTORE PUSH1 0x40 SWAP1 KECCAK256 SLOAD SWAP1 SWAP2 POP ISZERO DUP1 PUSH2 0xA4C JUMPI POP DUP1 ISZERO JUMPDEST ISZERO PUSH2 0xA6E JUMPI PUSH1 0x13 SLOAD PUSH1 0x1 PUSH1 0x1 PUSH1 0xA0 SHL SUB DUP9 AND PUSH1 0x0 SWAP1 DUP2 MSTORE PUSH1 0x14 PUSH1 0x20 MSTORE PUSH1 0x40 SWAP1 KECCAK256 SSTORE JUMPDEST PUSH1 0x1 PUSH1 0x1 PUSH1 0xA0 SHL SUB DUP8 AND PUSH1 0x0 SWAP1 DUP2 MSTORE PUSH1 0x14 PUSH1 0x20 MSTORE PUSH1 0x40 DUP2 KECCAK256 SLOAD PUSH1 0xF SLOAD PUSH2 0xA94 SWAP2 SWAP1 PUSH2 0x1FAA JUMP JUMPDEST SWAP1 POP PUSH1 0x0 TIMESTAMP DUP3 GT PUSH2 0xAA6 JUMPI PUSH1 0x0 PUSH2 0xAB0 JUMP JUMPDEST PUSH2 0xAB0 TIMESTAMP DUP4 PUSH2 0x2001 JUMP JUMPDEST SWAP1 POP PUSH1 0x0 PUSH2 0xABE DUP10 DUP6 PUSH2 0x1FAA JUMP JUMPDEST PUSH1 0xF SLOAD PUSH2 0xACB SWAP1 DUP12 PUSH2 0x1FE2 JUMP JUMPDEST PUSH2 0xAD5 DUP5 DUP8 PUSH2 0x1FE2 JUMP JUMPDEST PUSH2 0xADF SWAP2 SWAP1 PUSH2 0x1FAA JUMP JUMPDEST PUSH2 0xAE9 SWAP2 SWAP1 PUSH2 0x1FC2 JUMP JUMPDEST SWAP1 POP PUSH2 0xAF5 DUP3 DUP3 PUSH2 0x2001 JUMP JUMPDEST PUSH1 0x1 PUSH1 0x1 PUSH1 0xA0 SHL SUB DUP12 AND PUSH1 0x0 SWAP1 DUP2 MSTORE PUSH1 0x14 PUSH1 0x20 MSTORE PUSH1 0x40 DUP2 KECCAK256 DUP1 SLOAD SWAP1 SWAP2 SWAP1 PUSH2 0xB1D SWAP1 DUP5 SWAP1 PUSH2 0x2001 JUMP JUMPDEST SWAP1 SWAP2 SSTORE POP PUSH2 0xB5D SWAP5 POP POP POP POP POP JUMP JUMPDEST DUP1 PUSH1 0x11 PUSH1 0x0 DUP3 DUP3 SLOAD PUSH2 0xB3E SWAP2 SWAP1 PUSH2 0x2001 JUMP JUMPDEST SWAP3 POP POP DUP2 SWAP1 SSTORE POP DUP2 PUSH1 0x12 PUSH1 0x0 DUP3 DUP3 SLOAD PUSH2 0xB57 SWAP2 SWAP1 PUSH2 0x2001 JUMP JUMPDEST SWAP1 SWAP2 SSTORE POP POP JUMPDEST POP SWAP6 SWAP5 POP POP POP POP POP JUMP JUMPDEST PUSH1 0x0 DUP1 PUSH2 0xB74 DUP2 CALLER PUSH2 0x1325 JUMP JUMPDEST PUSH1 0x2 SLOAD PUSH2 0x82F PUSH8 0xDE0B6B3A7640000 DUP6 PUSH2 0x1FE2 JUMP JUMPDEST PUSH2 0xBB4 PUSH1 0x40 MLOAD DUP1 PUSH1 0x80 ADD PUSH1 0x40 MSTORE DUP1 PUSH1 0x0 DUP2 MSTORE PUSH1 0x20 ADD PUSH1 0x0 DUP2 MSTORE PUSH1 0x20 ADD PUSH1 0x0 DUP2 MSTORE PUSH1 0x20 ADD PUSH1 0x0 DUP2 MSTORE POP SWAP1 JUMP JUMPDEST PUSH1 0x0 PUSH2 0xBC0 DUP2 CALLER PUSH2 0x1325 JUMP JUMPDEST PUSH1 0x2 SLOAD PUSH1 0x0 SWAP1 PUSH2 0xBDC PUSH8 0xDE0B6B3A7640000 PUSH1 0x40 DUP8 ADD CALLDATALOAD PUSH2 0x1FE2 JUMP JUMPDEST PUSH2 0xBE6 SWAP2 SWAP1 PUSH2 0x1FC2 JUMP JUMPDEST SWAP1 POP PUSH1 0x0 DUP2 GT PUSH2 0xC3D JUMPI PUSH1 0x40 MLOAD PUSH3 0x461BCD PUSH1 0xE5 SHL DUP2 MSTORE PUSH1 0x20 PUSH1 0x4 DUP3 ADD MSTORE PUSH1 0xC PUSH1 0x24 DUP3 ADD MSTORE PUSH32 0x4E42543A2021616D6F756E740000000000000000000000000000000000000000 PUSH1 0x44 DUP3 ADD MSTORE PUSH1 0x64 ADD JUMPDEST PUSH1 0x40 MLOAD DUP1 SWAP2 SUB SWAP1 REVERT JUMPDEST PUSH1 0x0 PUSH1 0x14 DUP2 PUSH2 0xC4F PUSH1 0x20 DUP9 ADD DUP9 PUSH2 0x1CA2 JUMP JUMPDEST PUSH1 0x1 PUSH1 0x1 PUSH1 0xA0 SHL SUB AND PUSH1 0x1 PUSH1 0x1 PUSH1 0xA0 SHL SUB AND DUP2 MSTORE PUSH1 0x20 ADD SWAP1 DUP2 MSTORE PUSH1 0x20 ADD PUSH1 0x0 KECCAK256 SLOAD TIMESTAMP GT PUSH2 0xC7D JUMPI PUSH1 0x0 PUSH2 0xCB2 JUMP JUMPDEST PUSH1 0x14 PUSH1 0x0 PUSH2 0xC8E PUSH1 0x20 DUP9 ADD DUP9 PUSH2 0x1CA2 JUMP JUMPDEST PUSH1 0x1 PUSH1 0x1 PUSH1 0xA0 SHL SUB AND DUP2 MSTORE PUSH1 0x20 DUP2 ADD SWAP2 SWAP1 SWAP2 MSTORE PUSH1 0x40 ADD PUSH1 0x0 KECCAK256 SLOAD PUSH2 0xCB2 SWAP1 TIMESTAMP PUSH2 0x2001 JUMP JUMPDEST SWAP1 POP PUSH1 0x0 PUSH2 0xCE7 PUSH32 0x789F97575F27A6B4CEB7F0DFF24D6988BF9835006797A01CFAEDC572E88A2C7B PUSH2 0x546 PUSH1 0x20 DUP10 ADD DUP10 PUSH2 0x1CA2 JUMP JUMPDEST SWAP1 POP PUSH1 0x0 PUSH2 0xD1F PUSH32 0x789F97575F27A6B4CEB7F0DFF24D6988BF9835006797A01CFAEDC572E88A2C7B PUSH2 0x546 PUSH1 0x40 DUP11 ADD PUSH1 0x20 DUP12 ADD PUSH2 0x1CA2 JUMP JUMPDEST SWAP1 POP PUSH1 0x0 DUP2 DUP1 ISZERO PUSH2 0xD31 JUMPI POP PUSH1 0x9 SLOAD DUP5 LT JUMPDEST ISZERO DUP1 ISZERO PUSH2 0xD6C JUMPI POP PUSH2 0xD6A PUSH32 0x5BF81CABE53AB1FAC30C9F534A726D1EFA4D39604CAE6FBB7D5396C82EF5F5CF PUSH2 0x546 PUSH1 0x20 DUP12 ADD DUP12 PUSH2 0x1CA2 JUMP JUMPDEST ISZERO JUMPDEST DUP1 ISZERO PUSH2 0xDBF JUMPI POP PUSH2 0xD88 PUSH2 0xD83 PUSH1 0x20 DUP11 ADD DUP11 PUSH2 0x1CA2 JUMP JUMPDEST EXTCODESIZE ISZERO SWAP1 JUMP JUMPDEST DUP1 PUSH2 0xDBF JUMPI POP PUSH2 0xDBF PUSH32 0x789F97575F27A6B4CEB7F0DFF24D6988BF9835006797A01CFAEDC572E88A2C7B PUSH2 0x546 PUSH1 0x20 DUP12 ADD DUP12 PUSH2 0x1CA2 JUMP JUMPDEST SWAP1 POP PUSH1 0x0 DUP2 ISZERO PUSH2 0xDFD JUMPI DUP3 ISZERO PUSH2 0xDF8 JUMPI PUSH1 0x0 PUSH2 0xDDA DUP7 PUSH2 0x148F JUMP JUMPDEST SWAP1 POP PUSH3 0xF4240 PUSH2 0xDEA DUP3 DUP10 PUSH2 0x1FE2 JUMP JUMPDEST PUSH2 0xDF4 SWAP2 SWAP1 PUSH2 0x1FC2 JUMP JUMPDEST SWAP2 POP POP JUMPDEST PUSH2 0xEB8 JUMP JUMPDEST DUP4 PUSH2 0xEB8 JUMPI PUSH3 0xF4240 PUSH1 0x8 SLOAD DUP8 PUSH2 0xE14 SWAP2 SWAP1 PUSH2 0x1FE2 JUMP JUMPDEST PUSH2 0xE1E SWAP2 SWAP1 PUSH2 0x1FC2 JUMP JUMPDEST SWAP1 POP PUSH1 0x0 PUSH3 0xF4240 PUSH1 0x8 SLOAD DUP12 PUSH1 0x40 ADD CALLDATALOAD PUSH2 0xE38 SWAP2 SWAP1 PUSH2 0x1FE2 JUMP JUMPDEST PUSH2 0xE42 SWAP2 SWAP1 PUSH2 0x1FC2 JUMP JUMPDEST SWAP1 POP PUSH32 0xA1A76B56D422BE0A4C14CCC1281231AA006E67B6E03DCC433A873DC285491E51 PUSH2 0xE72 PUSH1 0x20 DUP13 ADD DUP13 PUSH2 0x1CA2 JUMP JUMPDEST PUSH2 0xE82 PUSH1 0x40 DUP14 ADD PUSH1 0x20 DUP15 ADD PUSH2 0x1CA2 JUMP JUMPDEST PUSH1 0x40 DUP1 MLOAD PUSH1 0x1 PUSH1 0x1 PUSH1 0xA0 SHL SUB SWAP4 DUP5 AND DUP2 MSTORE SWAP3 SWAP1 SWAP2 AND PUSH1 0x20 DUP4 ADD MSTORE DUP1 DUP14 ADD CALLDATALOAD SWAP1 DUP3 ADD MSTORE PUSH1 0x60 DUP2 ADD DUP4 SWAP1 MSTORE PUSH1 0x80 ADD PUSH1 0x40 MLOAD DUP1 SWAP2 SUB SWAP1 LOG1 POP JUMPDEST DUP3 PUSH2 0x102D JUMPI PUSH1 0x14 PUSH1 0x0 PUSH2 0xED1 PUSH1 0x40 DUP13 ADD PUSH1 0x20 DUP14 ADD PUSH2 0x1CA2 JUMP JUMPDEST PUSH1 0x1 PUSH1 0x1 PUSH1 0xA0 SHL SUB AND DUP2 MSTORE PUSH1 0x20 DUP2 ADD SWAP2 SWAP1 SWAP2 MSTORE PUSH1 0x40 ADD PUSH1 0x0 KECCAK256 SLOAD ISZERO DUP1 PUSH2 0xEF9 JUMPI POP PUSH1 0x80 DUP10 ADD CALLDATALOAD ISZERO JUMPDEST ISZERO PUSH2 0xF30 JUMPI PUSH1 0x13 SLOAD PUSH1 0x14 PUSH1 0x0 PUSH2 0xF15 PUSH1 0x40 DUP14 ADD PUSH1 0x20 DUP15 ADD PUSH2 0x1CA2 JUMP JUMPDEST PUSH1 0x1 PUSH1 0x1 PUSH1 0xA0 SHL SUB AND DUP2 MSTORE PUSH1 0x20 DUP2 ADD SWAP2 SWAP1 SWAP2 MSTORE PUSH1 0x40 ADD PUSH1 0x0 KECCAK256 SSTORE JUMPDEST PUSH1 0x0 PUSH1 0x14 DUP2 PUSH2 0xF45 PUSH1 0x40 DUP14 ADD PUSH1 0x20 DUP15 ADD PUSH2 0x1CA2 JUMP JUMPDEST PUSH1 0x1 PUSH1 0x1 PUSH1 0xA0 SHL SUB AND PUSH1 0x1 PUSH1 0x1 PUSH1 0xA0 SHL SUB AND DUP2 MSTORE PUSH1 0x20 ADD SWAP1 DUP2 MSTORE PUSH1 0x20 ADD PUSH1 0x0 KECCAK256 SLOAD PUSH1 0xF SLOAD PUSH2 0xF73 SWAP2 SWAP1 PUSH2 0x1FAA JUMP JUMPDEST SWAP1 POP PUSH1 0x0 TIMESTAMP DUP3 GT PUSH2 0xF85 JUMPI PUSH1 0x0 PUSH2 0xF8F JUMP JUMPDEST PUSH2 0xF8F TIMESTAMP DUP4 PUSH2 0x2001 JUMP JUMPDEST SWAP1 POP PUSH1 0x0 PUSH2 0xFA1 DUP10 PUSH1 0x80 DUP15 ADD CALLDATALOAD PUSH2 0x1FAA JUMP JUMPDEST PUSH1 0xF SLOAD PUSH2 0xFAE SWAP1 DUP12 PUSH2 0x1FE2 JUMP JUMPDEST DUP4 DUP15 PUSH1 0x80 ADD CALLDATALOAD PUSH2 0xFBE SWAP2 SWAP1 PUSH2 0x1FE2 JUMP JUMPDEST PUSH2 0xFC8 SWAP2 SWAP1 PUSH2 0x1FAA JUMP JUMPDEST PUSH2 0xFD2 SWAP2 SWAP1 PUSH2 0x1FC2 JUMP JUMPDEST SWAP1 POP PUSH2 0xFDE DUP3 DUP3 PUSH2 0x2001 JUMP JUMPDEST PUSH1 0x14 PUSH1 0x0 DUP15 PUSH1 0x20 ADD PUSH1 0x20 DUP2 ADD SWAP1 PUSH2 0xFF5 SWAP2 SWAP1 PUSH2 0x1CA2 JUMP JUMPDEST PUSH1 0x1 PUSH1 0x1 PUSH1 0xA0 SHL SUB AND PUSH1 0x1 PUSH1 0x1 PUSH1 0xA0 SHL SUB AND DUP2 MSTORE PUSH1 0x20 ADD SWAP1 DUP2 MSTORE PUSH1 0x20 ADD PUSH1 0x0 KECCAK256 PUSH1 0x0 DUP3 DUP3 SLOAD PUSH2 0x1024 SWAP2 SWAP1 PUSH2 0x2001 JUMP JUMPDEST SWAP1 SWAP2 SSTORE POP POP POP POP POP JUMPDEST PUSH1 0x0 PUSH2 0x1039 DUP3 DUP9 PUSH2 0x2001 JUMP JUMPDEST SWAP1 POP PUSH2 0x1049 DUP8 PUSH1 0x60 DUP13 ADD CALLDATALOAD PUSH2 0x2001 JUMP JUMPDEST DUP10 MSTORE PUSH2 0x1059 DUP2 PUSH1 0x80 DUP13 ADD CALLDATALOAD PUSH2 0x1FAA JUMP JUMPDEST PUSH1 0x20 DUP11 ADD MSTORE PUSH1 0x3 DUP1 SLOAD DUP4 SWAP2 SWAP1 PUSH1 0x0 SWAP1 PUSH2 0x1073 SWAP1 DUP5 SWAP1 PUSH2 0x1FAA JUMP JUMPDEST SWAP1 SWAP2 SSTORE POP POP PUSH1 0x2 SLOAD PUSH8 0xDE0B6B3A7640000 SWAP1 PUSH2 0x108F SWAP1 DUP5 PUSH2 0x1FE2 JUMP JUMPDEST PUSH2 0x1099 SWAP2 SWAP1 PUSH2 0x1FC2 JUMP JUMPDEST PUSH1 0x40 DUP1 DUP12 ADD DUP3 SWAP1 MSTORE PUSH2 0x10AE SWAP2 SWAP1 DUP13 ADD CALLDATALOAD PUSH2 0x2001 JUMP JUMPDEST PUSH1 0x60 DUP11 ADD MSTORE PUSH2 0x10BB PUSH2 0x13D3 JUMP JUMPDEST POP POP POP POP POP POP POP POP SWAP2 SWAP1 POP JUMP JUMPDEST PUSH1 0x0 DUP1 PUSH2 0x10D5 DUP2 CALLER PUSH2 0x1325 JUMP JUMPDEST POP POP PUSH1 0x11 SLOAD SWAP1 JUMP JUMPDEST PUSH1 0x0 DUP3 DUP2 MSTORE PUSH1 0x1 PUSH1 0x20 MSTORE PUSH1 0x40 DUP2 KECCAK256 PUSH2 0x10F5 SWAP1 DUP4 PUSH2 0x1586 JUMP JUMPDEST SWAP4 SWAP3 POP POP POP JUMP JUMPDEST PUSH1 0x40 DUP1 MLOAD DUP1 DUP3 ADD SWAP1 SWAP2 MSTORE PUSH1 0x0 DUP1 DUP3 MSTORE PUSH1 0x20 DUP3 ADD MSTORE PUSH1 0x1 PUSH1 0x1 PUSH1 0xA0 SHL SUB DUP3 AND PUSH1 0x0 SWAP1 DUP2 MSTORE PUSH1 0x14 PUSH1 0x20 MSTORE PUSH1 0x40 DUP2 KECCAK256 SLOAD TIMESTAMP GT PUSH2 0x1136 JUMPI PUSH1 0x0 PUSH2 0x1159 JUMP JUMPDEST PUSH1 0x1 PUSH1 0x1 PUSH1 0xA0 SHL SUB DUP4 AND PUSH1 0x0 SWAP1 DUP2 MSTORE PUSH1 0x14 PUSH1 0x20 MSTORE PUSH1 0x40 SWAP1 KECCAK256 SLOAD PUSH2 0x1159 SWAP1 TIMESTAMP PUSH2 0x2001 JUMP JUMPDEST SWAP1 POP PUSH2 0x1164 DUP2 PUSH2 0x148F JUMP JUMPDEST DUP3 MSTORE PUSH1 0xF SLOAD DUP2 LT PUSH2 0x1176 JUMPI PUSH1 0x0 PUSH2 0x1184 JUMP JUMPDEST DUP1 PUSH1 0xF SLOAD PUSH2 0x1184 SWAP2 SWAP1 PUSH2 0x2001 JUMP JUMPDEST PUSH1 0x20 DUP4 ADD MSTORE POP SWAP2 SWAP1 POP JUMP JUMPDEST PUSH1 0x0 PUSH2 0x119B DUP2 CALLER PUSH2 0x1325 JUMP JUMPDEST POP PUSH1 0xC SWAP2 SWAP1 SWAP2 SSTORE PUSH1 0xD SSTORE JUMP JUMPDEST PUSH1 0x0 DUP1 PUSH2 0x11B4 DUP2 CALLER PUSH2 0x1325 JUMP JUMPDEST PUSH1 0x11 SLOAD PUSH1 0x12 SLOAD PUSH2 0x11C4 SWAP2 SWAP1 PUSH2 0x1FAA JUMP JUMPDEST SWAP2 POP POP SWAP1 JUMP JUMPDEST PUSH1 0x0 DUP2 DUP2 MSTORE PUSH1 0x1 PUSH1 0x20 MSTORE PUSH1 0x40 DUP2 KECCAK256 PUSH2 0x75A SWAP1 PUSH2 0x1592 JUMP JUMPDEST PUSH2 0x902 DUP3 DUP3 PUSH2 0x159C JUMP JUMPDEST PUSH1 0x0 PUSH2 0x11F7 DUP2 CALLER PUSH2 0x1325 JUMP JUMPDEST PUSH1 0x0 JUMPDEST DUP3 DUP2 LT ISZERO PUSH2 0x124D JUMPI PUSH2 0x123B DUP6 DUP6 DUP6 DUP5 DUP2 DUP2 LT PUSH2 0x1226 JUMPI PUSH4 0x4E487B71 PUSH1 0xE0 SHL PUSH1 0x0 MSTORE PUSH1 0x32 PUSH1 0x4 MSTORE PUSH1 0x24 PUSH1 0x0 REVERT JUMPDEST SWAP1 POP PUSH1 0x20 MUL ADD PUSH1 0x20 DUP2 ADD SWAP1 PUSH2 0x7DC SWAP2 SWAP1 PUSH2 0x1CA2 JUMP JUMPDEST DUP1 PUSH2 0x1245 DUP2 PUSH2 0x205B JUMP JUMPDEST SWAP2 POP POP PUSH2 0x11FA JUMP JUMPDEST POP POP POP POP POP JUMP JUMPDEST PUSH1 0x4 SLOAD TIMESTAMP GT ISZERO PUSH2 0x1266 JUMPI PUSH2 0x1266 PUSH2 0x15C2 JUMP JUMPDEST JUMP JUMPDEST PUSH1 0x0 PUSH2 0x1274 DUP2 CALLER PUSH2 0x1325 JUMP JUMPDEST POP PUSH1 0xE SWAP3 SWAP1 SWAP3 SSTORE PUSH1 0xF SSTORE PUSH1 0x10 SSTORE JUMP JUMPDEST PUSH1 0x0 PUSH2 0x128F DUP2 CALLER PUSH2 0x1325 JUMP JUMPDEST POP PUSH1 0xA SWAP2 SWAP1 SWAP2 SSTORE PUSH1 0xB SSTORE JUMP JUMPDEST PUSH2 0x12A5 DUP3 DUP3 PUSH2 0x17A3 JUMP JUMPDEST POP POP JUMP JUMPDEST PUSH1 0x0 PUSH2 0x10F5 DUP4 PUSH1 0x1 PUSH1 0x1 PUSH1 0xA0 SHL SUB DUP5 AND PUSH2 0x1841 JUMP JUMPDEST PUSH1 0x0 PUSH1 0x1 PUSH1 0x1 PUSH1 0xE0 SHL SUB NOT DUP3 AND PUSH32 0x7965DB0B00000000000000000000000000000000000000000000000000000000 EQ DUP1 PUSH2 0x75A JUMPI POP PUSH32 0x1FFC9A700000000000000000000000000000000000000000000000000000000 PUSH1 0x1 PUSH1 0x1 PUSH1 0xE0 SHL SUB NOT DUP4 AND EQ PUSH2 0x75A JUMP JUMPDEST PUSH1 0x0 DUP3 DUP2 MSTORE PUSH1 0x20 DUP2 DUP2 MSTORE PUSH1 0x40 DUP1 DUP4 KECCAK256 PUSH1 0x1 PUSH1 0x1 PUSH1 0xA0 SHL SUB DUP6 AND DUP5 MSTORE SWAP1 SWAP2 MSTORE SWAP1 KECCAK256 SLOAD PUSH1 0xFF AND PUSH2 0x12A5 JUMPI PUSH2 0x1361 DUP2 PUSH1 0x1 PUSH1 0x1 PUSH1 0xA0 SHL SUB AND PUSH1 0x14 PUSH2 0x1890 JUMP JUMPDEST PUSH2 0x136C DUP4 PUSH1 0x20 PUSH2 0x1890 JUMP JUMPDEST PUSH1 0x40 MLOAD PUSH1 0x20 ADD PUSH2 0x137D SWAP3 SWAP2 SWAP1 PUSH2 0x1EF6 JUMP JUMPDEST PUSH1 0x40 DUP1 MLOAD PUSH1 0x1F NOT DUP2 DUP5 SUB ADD DUP2 MSTORE SWAP1 DUP3 SWAP1 MSTORE PUSH3 0x461BCD PUSH1 0xE5 SHL DUP3 MSTORE PUSH2 0xC34 SWAP2 PUSH1 0x4 ADD PUSH2 0x1F77 JUMP JUMPDEST PUSH2 0x863 DUP3 DUP3 PUSH2 0x129B JUMP JUMPDEST PUSH1 0x0 DUP3 DUP2 MSTORE PUSH1 0x20 DUP2 SWAP1 MSTORE PUSH1 0x40 SWAP1 KECCAK256 PUSH1 0x1 ADD SLOAD PUSH2 0x13C9 DUP2 CALLER PUSH2 0x1325 JUMP JUMPDEST PUSH2 0x87B DUP4 DUP4 PUSH2 0x17A3 JUMP JUMPDEST PUSH1 0x5 SLOAD PUSH1 0x4 SLOAD PUSH2 0x13E3 SWAP2 SWAP1 PUSH2 0x1FAA JUMP JUMPDEST TIMESTAMP GT ISZERO PUSH2 0x1266 JUMPI PUSH2 0x1266 PUSH2 0x15C2 JUMP JUMPDEST PUSH1 0x1 PUSH1 0x1 PUSH1 0xA0 SHL SUB DUP2 AND CALLER EQ PUSH2 0x1470 JUMPI PUSH1 0x40 MLOAD PUSH3 0x461BCD PUSH1 0xE5 SHL DUP2 MSTORE PUSH1 0x20 PUSH1 0x4 DUP3 ADD MSTORE PUSH1 0x2F PUSH1 0x24 DUP3 ADD MSTORE PUSH32 0x416363657373436F6E74726F6C3A2063616E206F6E6C792072656E6F756E6365 PUSH1 0x44 DUP3 ADD MSTORE PUSH32 0x20726F6C657320666F722073656C660000000000000000000000000000000000 PUSH1 0x64 DUP3 ADD MSTORE PUSH1 0x84 ADD PUSH2 0xC34 JUMP JUMPDEST PUSH2 0x12A5 DUP3 DUP3 PUSH2 0x1AB7 JUMP JUMPDEST PUSH1 0x0 PUSH2 0x10F5 DUP4 PUSH1 0x1 PUSH1 0x1 PUSH1 0xA0 SHL SUB DUP5 AND PUSH2 0x1B36 JUMP JUMPDEST PUSH1 0x0 PUSH1 0xF SLOAD DUP3 GT ISZERO PUSH2 0x14A3 JUMPI POP POP PUSH1 0x10 SLOAD SWAP1 JUMP JUMPDEST PUSH1 0xD SLOAD DUP3 GT ISZERO PUSH2 0x14E2 JUMPI PUSH1 0xD SLOAD PUSH1 0xF SLOAD PUSH2 0x14BD SWAP2 SWAP1 PUSH2 0x2001 JUMP JUMPDEST DUP3 PUSH1 0xF SLOAD PUSH2 0x14CB SWAP2 SWAP1 PUSH2 0x2001 JUMP JUMPDEST PUSH1 0xE SLOAD PUSH2 0x14D8 SWAP2 SWAP1 PUSH2 0x1FE2 JUMP JUMPDEST PUSH2 0x75A SWAP2 SWAP1 PUSH2 0x1FC2 JUMP JUMPDEST PUSH1 0xB SLOAD DUP3 GT ISZERO PUSH2 0x153A JUMPI PUSH1 0xB SLOAD PUSH1 0xD SLOAD PUSH2 0x14FC SWAP2 SWAP1 PUSH2 0x2001 JUMP JUMPDEST PUSH1 0xB SLOAD PUSH2 0x1509 SWAP1 DUP5 PUSH2 0x2001 JUMP JUMPDEST PUSH1 0xE SLOAD PUSH1 0xC SLOAD PUSH2 0x1519 SWAP2 SWAP1 PUSH2 0x2001 JUMP JUMPDEST PUSH2 0x1523 SWAP2 SWAP1 PUSH2 0x1FE2 JUMP JUMPDEST PUSH2 0x152D SWAP2 SWAP1 PUSH2 0x1FC2 JUMP JUMPDEST PUSH1 0xC SLOAD PUSH2 0x75A SWAP2 SWAP1 PUSH2 0x2001 JUMP JUMPDEST PUSH1 0x9 SLOAD DUP3 GT ISZERO PUSH2 0x1579 JUMPI PUSH1 0xB SLOAD DUP3 PUSH1 0xC SLOAD PUSH1 0xA SLOAD PUSH2 0x1558 SWAP2 SWAP1 PUSH2 0x2001 JUMP JUMPDEST PUSH2 0x1562 SWAP2 SWAP1 PUSH2 0x1FE2 JUMP JUMPDEST PUSH2 0x156C SWAP2 SWAP1 PUSH2 0x1FC2 JUMP JUMPDEST PUSH1 0xA SLOAD PUSH2 0x75A SWAP2 SWAP1 PUSH2 0x2001 JUMP JUMPDEST POP POP PUSH1 0x8 SLOAD SWAP1 JUMP JUMPDEST SWAP2 SWAP1 POP JUMP JUMPDEST PUSH1 0x0 PUSH2 0x10F5 DUP4 DUP4 PUSH2 0x1C53 JUMP JUMPDEST PUSH1 0x0 PUSH2 0x75A DUP3 SLOAD SWAP1 JUMP JUMPDEST PUSH1 0x0 DUP3 DUP2 MSTORE PUSH1 0x20 DUP2 SWAP1 MSTORE PUSH1 0x40 SWAP1 KECCAK256 PUSH1 0x1 ADD SLOAD PUSH2 0x15B8 DUP2 CALLER PUSH2 0x1325 JUMP JUMPDEST PUSH2 0x87B DUP4 DUP4 PUSH2 0x1AB7 JUMP JUMPDEST TIMESTAMP PUSH1 0x4 SSTORE PUSH1 0x3 SLOAD ISZERO PUSH2 0x1266 JUMPI PUSH1 0x0 PUSH3 0xF4240 PUSH1 0x7 SLOAD PUSH1 0x3 SLOAD PUSH2 0x15E4 SWAP2 SWAP1 PUSH2 0x1FE2 JUMP JUMPDEST PUSH2 0x15EE SWAP2 SWAP1 PUSH2 0x1FC2 JUMP JUMPDEST SWAP1 POP PUSH1 0x0 DUP2 PUSH1 0x3 SLOAD PUSH2 0x1600 SWAP2 SWAP1 PUSH2 0x2001 JUMP JUMPDEST SWAP1 POP DUP1 PUSH1 0x11 PUSH1 0x0 DUP3 DUP3 SLOAD PUSH2 0x1614 SWAP2 SWAP1 PUSH2 0x1FAA JUMP JUMPDEST SWAP3 POP POP DUP2 SWAP1 SSTORE POP DUP1 PUSH1 0x12 PUSH1 0x0 DUP3 DUP3 SLOAD PUSH2 0x162D SWAP2 SWAP1 PUSH2 0x2001 JUMP JUMPDEST SWAP1 SWAP2 SSTORE POP POP PUSH1 0x0 PUSH1 0x3 SSTORE DUP2 ISZERO PUSH2 0x1733 JUMPI PUSH1 0x0 PUSH2 0x166A PUSH32 0x603FD68989965F050033092155BB64AE91E5363FEA3409EF877C949328C541E5 PUSH1 0x0 PUSH2 0x10DD JUMP JUMPDEST PUSH1 0x6 SLOAD PUSH1 0x40 MLOAD PUSH32 0xBB9FF5D00000000000000000000000000000000000000000000000000000000 DUP2 MSTORE PUSH1 0x1 PUSH1 0x1 PUSH1 0xA0 SHL SUB DUP1 DUP5 AND PUSH1 0x4 DUP4 ADD MSTORE PUSH1 0x24 DUP3 ADD DUP8 SWAP1 MSTORE SWAP3 SWAP4 POP SWAP2 AND SWAP1 DUP2 SWAP1 PUSH4 0xBB9FF5D SWAP1 PUSH1 0x44 ADD PUSH1 0x0 PUSH1 0x40 MLOAD DUP1 DUP4 SUB DUP2 PUSH1 0x0 DUP8 DUP1 EXTCODESIZE ISZERO DUP1 ISZERO PUSH2 0x16D5 JUMPI PUSH1 0x0 DUP1 REVERT JUMPDEST POP GAS CALL ISZERO DUP1 ISZERO PUSH2 0x16E9 JUMPI RETURNDATASIZE PUSH1 0x0 DUP1 RETURNDATACOPY RETURNDATASIZE PUSH1 0x0 REVERT JUMPDEST POP POP PUSH1 0x40 DUP1 MLOAD PUSH1 0x1 PUSH1 0x1 PUSH1 0xA0 SHL SUB DUP7 AND DUP2 MSTORE PUSH1 0x20 DUP2 ADD DUP9 SWAP1 MSTORE PUSH32 0x50E71DBF1D972FA3C0618C2FB1267D56A399175B463C486D15995E34BF6CD610 SWAP4 POP ADD SWAP1 POP PUSH1 0x40 MLOAD DUP1 SWAP2 SUB SWAP1 LOG1 POP POP JUMPDEST PUSH1 0x12 SLOAD PUSH1 0x11 SLOAD PUSH2 0x174B SWAP1 PUSH8 0xDE0B6B3A7640000 PUSH2 0x1FE2 JUMP JUMPDEST PUSH2 0x1755 SWAP2 SWAP1 PUSH2 0x1FC2 JUMP JUMPDEST PUSH2 0x1767 SWAP1 PUSH8 0xDE0B6B3A7640000 PUSH2 0x1FAA JUMP JUMPDEST PUSH1 0x2 DUP2 SWAP1 SSTORE PUSH1 0x40 MLOAD SWAP1 DUP2 MSTORE PUSH32 0x4DBE4840D7465BD162F67814CEA0B519567A2E0E578BCDE61E7F4CED361E5A3D SWAP1 PUSH1 0x20 ADD PUSH1 0x40 MLOAD DUP1 SWAP2 SUB SWAP1 LOG1 POP POP JUMP JUMPDEST PUSH1 0x0 DUP3 DUP2 MSTORE PUSH1 0x20 DUP2 DUP2 MSTORE PUSH1 0x40 DUP1 DUP4 KECCAK256 PUSH1 0x1 PUSH1 0x1 PUSH1 0xA0 SHL SUB DUP6 AND DUP5 MSTORE SWAP1 SWAP2 MSTORE SWAP1 KECCAK256 SLOAD PUSH1 0xFF AND PUSH2 0x12A5 JUMPI PUSH1 0x0 DUP3 DUP2 MSTORE PUSH1 0x20 DUP2 DUP2 MSTORE PUSH1 0x40 DUP1 DUP4 KECCAK256 PUSH1 0x1 PUSH1 0x1 PUSH1 0xA0 SHL SUB DUP6 AND DUP5 MSTORE SWAP1 SWAP2 MSTORE SWAP1 KECCAK256 DUP1 SLOAD PUSH1 0xFF NOT AND PUSH1 0x1 OR SWAP1 SSTORE PUSH2 0x17FD CALLER SWAP1 JUMP JUMPDEST PUSH1 0x1 PUSH1 0x1 PUSH1 0xA0 SHL SUB AND DUP2 PUSH1 0x1 PUSH1 0x1 PUSH1 0xA0 SHL SUB AND DUP4 PUSH32 0x2F8788117E7EFF1D82E926EC794901D17C78024A50270940304540A733656F0D PUSH1 0x40 MLOAD PUSH1 0x40 MLOAD DUP1 SWAP2 SUB SWAP1 LOG4 POP POP JUMP JUMPDEST PUSH1 0x0 DUP2 DUP2 MSTORE PUSH1 0x1 DUP4 ADD PUSH1 0x20 MSTORE PUSH1 0x40 DUP2 KECCAK256 SLOAD PUSH2 0x1888 JUMPI POP DUP2 SLOAD PUSH1 0x1 DUP2 DUP2 ADD DUP5 SSTORE PUSH1 0x0 DUP5 DUP2 MSTORE PUSH1 0x20 DUP1 DUP3 KECCAK256 SWAP1 SWAP4 ADD DUP5 SWAP1 SSTORE DUP5 SLOAD DUP5 DUP3 MSTORE DUP3 DUP7 ADD SWAP1 SWAP4 MSTORE PUSH1 0x40 SWAP1 KECCAK256 SWAP2 SWAP1 SWAP2 SSTORE PUSH2 0x75A JUMP JUMPDEST POP PUSH1 0x0 PUSH2 0x75A JUMP JUMPDEST PUSH1 0x60 PUSH1 0x0 PUSH2 0x189F DUP4 PUSH1 0x2 PUSH2 0x1FE2 JUMP JUMPDEST PUSH2 0x18AA SWAP1 PUSH1 0x2 PUSH2 0x1FAA JUMP JUMPDEST PUSH8 0xFFFFFFFFFFFFFFFF DUP2 GT ISZERO PUSH2 0x18D0 JUMPI PUSH4 0x4E487B71 PUSH1 0xE0 SHL PUSH1 0x0 MSTORE PUSH1 0x41 PUSH1 0x4 MSTORE PUSH1 0x24 PUSH1 0x0 REVERT JUMPDEST PUSH1 0x40 MLOAD SWAP1 DUP1 DUP3 MSTORE DUP1 PUSH1 0x1F ADD PUSH1 0x1F NOT AND PUSH1 0x20 ADD DUP3 ADD PUSH1 0x40 MSTORE DUP1 ISZERO PUSH2 0x18FA JUMPI PUSH1 0x20 DUP3 ADD DUP2 DUP1 CALLDATASIZE DUP4 CALLDATACOPY ADD SWAP1 POP JUMPDEST POP SWAP1 POP PUSH32 0x3000000000000000000000000000000000000000000000000000000000000000 DUP2 PUSH1 0x0 DUP2 MLOAD DUP2 LT PUSH2 0x193F JUMPI PUSH4 0x4E487B71 PUSH1 0xE0 SHL PUSH1 0x0 MSTORE PUSH1 0x32 PUSH1 0x4 MSTORE PUSH1 0x24 PUSH1 0x0 REVERT JUMPDEST PUSH1 0x20 ADD ADD SWAP1 PUSH1 0x1 PUSH1 0x1 PUSH1 0xF8 SHL SUB NOT AND SWAP1 DUP2 PUSH1 0x0 BYTE SWAP1 MSTORE8 POP PUSH32 0x7800000000000000000000000000000000000000000000000000000000000000 DUP2 PUSH1 0x1 DUP2 MLOAD DUP2 LT PUSH2 0x1998 JUMPI PUSH4 0x4E487B71 PUSH1 0xE0 SHL PUSH1 0x0 MSTORE PUSH1 0x32 PUSH1 0x4 MSTORE PUSH1 0x24 PUSH1 0x0 REVERT JUMPDEST PUSH1 0x20 ADD ADD SWAP1 PUSH1 0x1 PUSH1 0x1 PUSH1 0xF8 SHL SUB NOT AND SWAP1 DUP2 PUSH1 0x0 BYTE SWAP1 MSTORE8 POP PUSH1 0x0 PUSH2 0x19BC DUP5 PUSH1 0x2 PUSH2 0x1FE2 JUMP JUMPDEST PUSH2 0x19C7 SWAP1 PUSH1 0x1 PUSH2 0x1FAA JUMP JUMPDEST SWAP1 POP JUMPDEST PUSH1 0x1 DUP2 GT ISZERO PUSH2 0x1A68 JUMPI PUSH32 0x3031323334353637383961626364656600000000000000000000000000000000 DUP6 PUSH1 0xF AND PUSH1 0x10 DUP2 LT PUSH2 0x1A16 JUMPI PUSH4 0x4E487B71 PUSH1 0xE0 SHL PUSH1 0x0 MSTORE PUSH1 0x32 PUSH1 0x4 MSTORE PUSH1 0x24 PUSH1 0x0 REVERT JUMPDEST BYTE PUSH1 0xF8 SHL DUP3 DUP3 DUP2 MLOAD DUP2 LT PUSH2 0x1A3A JUMPI PUSH4 0x4E487B71 PUSH1 0xE0 SHL PUSH1 0x0 MSTORE PUSH1 0x32 PUSH1 0x4 MSTORE PUSH1 0x24 PUSH1 0x0 REVERT JUMPDEST PUSH1 0x20 ADD ADD SWAP1 PUSH1 0x1 PUSH1 0x1 PUSH1 0xF8 SHL SUB NOT AND SWAP1 DUP2 PUSH1 0x0 BYTE SWAP1 MSTORE8 POP PUSH1 0x4 SWAP5 SWAP1 SWAP5 SHR SWAP4 PUSH2 0x1A61 DUP2 PUSH2 0x2044 JUMP JUMPDEST SWAP1 POP PUSH2 0x19CA JUMP JUMPDEST POP DUP4 ISZERO PUSH2 0x10F5 JUMPI PUSH1 0x40 MLOAD PUSH3 0x461BCD PUSH1 0xE5 SHL DUP2 MSTORE PUSH1 0x20 PUSH1 0x4 DUP3 ADD DUP2 SWAP1 MSTORE PUSH1 0x24 DUP3 ADD MSTORE PUSH32 0x537472696E67733A20686578206C656E67746820696E73756666696369656E74 PUSH1 0x44 DUP3 ADD MSTORE PUSH1 0x64 ADD PUSH2 0xC34 JUMP JUMPDEST PUSH1 0x0 DUP3 DUP2 MSTORE PUSH1 0x20 DUP2 DUP2 MSTORE PUSH1 0x40 DUP1 DUP4 KECCAK256 PUSH1 0x1 PUSH1 0x1 PUSH1 0xA0 SHL SUB DUP6 AND DUP5 MSTORE SWAP1 SWAP2 MSTORE SWAP1 KECCAK256 SLOAD PUSH1 0xFF AND ISZERO PUSH2 0x12A5 JUMPI PUSH1 0x0 DUP3 DUP2 MSTORE PUSH1 0x20 DUP2 DUP2 MSTORE PUSH1 0x40 DUP1 DUP4 KECCAK256 PUSH1 0x1 PUSH1 0x1 PUSH1 0xA0 SHL SUB DUP6 AND DUP1 DUP6 MSTORE SWAP3 MSTORE DUP1 DUP4 KECCAK256 DUP1 SLOAD PUSH1 0xFF NOT AND SWAP1 SSTORE MLOAD CALLER SWAP3 DUP6 SWAP2 PUSH32 0xF6391F5C32D9C69D2A47EA670B442974B53935D1EDC7FD64EB21E047A839171B SWAP2 SWAP1 LOG4 POP POP JUMP JUMPDEST PUSH1 0x0 DUP2 DUP2 MSTORE PUSH1 0x1 DUP4 ADD PUSH1 0x20 MSTORE PUSH1 0x40 DUP2 KECCAK256 SLOAD DUP1 ISZERO PUSH2 0x1C49 JUMPI PUSH1 0x0 PUSH2 0x1B5A PUSH1 0x1 DUP4 PUSH2 0x2001 JUMP JUMPDEST DUP6 SLOAD SWAP1 SWAP2 POP PUSH1 0x0 SWAP1 PUSH2 0x1B6E SWAP1 PUSH1 0x1 SWAP1 PUSH2 0x2001 JUMP JUMPDEST SWAP1 POP DUP2 DUP2 EQ PUSH2 0x1BEF JUMPI PUSH1 0x0 DUP7 PUSH1 0x0 ADD DUP3 DUP2 SLOAD DUP2 LT PUSH2 0x1B9C JUMPI PUSH4 0x4E487B71 PUSH1 0xE0 SHL PUSH1 0x0 MSTORE PUSH1 0x32 PUSH1 0x4 MSTORE PUSH1 0x24 PUSH1 0x0 REVERT JUMPDEST SWAP1 PUSH1 0x0 MSTORE PUSH1 0x20 PUSH1 0x0 KECCAK256 ADD SLOAD SWAP1 POP DUP1 DUP8 PUSH1 0x0 ADD DUP5 DUP2 SLOAD DUP2 LT PUSH2 0x1BCD JUMPI PUSH4 0x4E487B71 PUSH1 0xE0 SHL PUSH1 0x0 MSTORE PUSH1 0x32 PUSH1 0x4 MSTORE PUSH1 0x24 PUSH1 0x0 REVERT JUMPDEST PUSH1 0x0 SWAP2 DUP3 MSTORE PUSH1 0x20 DUP1 DUP4 KECCAK256 SWAP1 SWAP2 ADD SWAP3 SWAP1 SWAP3 SSTORE SWAP2 DUP3 MSTORE PUSH1 0x1 DUP9 ADD SWAP1 MSTORE PUSH1 0x40 SWAP1 KECCAK256 DUP4 SWAP1 SSTORE JUMPDEST DUP6 SLOAD DUP7 SWAP1 DUP1 PUSH2 0x1C0E JUMPI PUSH4 0x4E487B71 PUSH1 0xE0 SHL PUSH1 0x0 MSTORE PUSH1 0x31 PUSH1 0x4 MSTORE PUSH1 0x24 PUSH1 0x0 REVERT JUMPDEST PUSH1 0x1 SWAP1 SUB DUP2 DUP2 SWAP1 PUSH1 0x0 MSTORE PUSH1 0x20 PUSH1 0x0 KECCAK256 ADD PUSH1 0x0 SWAP1 SSTORE SWAP1 SSTORE DUP6 PUSH1 0x1 ADD PUSH1 0x0 DUP7 DUP2 MSTORE PUSH1 0x20 ADD SWAP1 DUP2 MSTORE PUSH1 0x20 ADD PUSH1 0x0 KECCAK256 PUSH1 0x0 SWAP1 SSTORE PUSH1 0x1 SWAP4 POP POP POP POP PUSH2 0x75A JUMP JUMPDEST PUSH1 0x0 SWAP2 POP POP PUSH2 0x75A JUMP JUMPDEST PUSH1 0x0 DUP3 PUSH1 0x0 ADD DUP3 DUP2 SLOAD DUP2 LT PUSH2 0x1C78 JUMPI PUSH4 0x4E487B71 PUSH1 0xE0 SHL PUSH1 0x0 MSTORE PUSH1 0x32 PUSH1 0x4 MSTORE PUSH1 0x24 PUSH1 0x0 REVERT JUMPDEST SWAP1 PUSH1 0x0 MSTORE PUSH1 0x20 PUSH1 0x0 KECCAK256 ADD SLOAD SWAP1 POP SWAP3 SWAP2 POP POP JUMP JUMPDEST DUP1 CALLDATALOAD PUSH1 0x1 PUSH1 0x1 PUSH1 0xA0 SHL SUB DUP2 AND DUP2 EQ PUSH2 0x1581 JUMPI PUSH1 0x0 DUP1 REVERT JUMPDEST PUSH1 0x0 PUSH1 0x20 DUP3 DUP5 SUB SLT ISZERO PUSH2 0x1CB3 JUMPI DUP1 DUP2 REVERT JUMPDEST PUSH2 0x10F5 DUP3 PUSH2 0x1C8B JUMP JUMPDEST PUSH1 0x0 DUP1 PUSH1 0x40 DUP4 DUP6 SUB SLT ISZERO PUSH2 0x1CCE JUMPI DUP1 DUP2 REVERT JUMPDEST PUSH2 0x1CD7 DUP4 PUSH2 0x1C8B JUMP JUMPDEST SWAP5 PUSH1 0x20 SWAP4 SWAP1 SWAP4 ADD CALLDATALOAD SWAP4 POP POP POP JUMP JUMPDEST PUSH1 0x0 DUP1 PUSH1 0x20 DUP4 DUP6 SUB SLT ISZERO PUSH2 0x1CF7 JUMPI DUP2 DUP3 REVERT JUMPDEST DUP3 CALLDATALOAD PUSH8 0xFFFFFFFFFFFFFFFF DUP1 DUP3 GT ISZERO PUSH2 0x1D0E JUMPI DUP4 DUP5 REVERT JUMPDEST DUP2 DUP6 ADD SWAP2 POP DUP6 PUSH1 0x1F DUP4 ADD SLT PUSH2 0x1D21 JUMPI DUP4 DUP5 REVERT JUMPDEST DUP2 CALLDATALOAD DUP2 DUP2 GT ISZERO PUSH2 0x1D2F JUMPI DUP5 DUP6 REVERT JUMPDEST DUP7 PUSH1 0x20 DUP3 PUSH1 0x6 SHL DUP6 ADD ADD GT ISZERO PUSH2 0x1D43 JUMPI DUP5 DUP6 REVERT JUMPDEST PUSH1 0x20 SWAP3 SWAP1 SWAP3 ADD SWAP7 SWAP2 SWAP6 POP SWAP1 SWAP4 POP POP POP POP JUMP JUMPDEST PUSH1 0x0 DUP1 PUSH1 0x0 PUSH1 0x60 DUP5 DUP7 SUB SLT ISZERO PUSH2 0x1D69 JUMPI DUP1 DUP2 REVERT JUMPDEST DUP4 CALLDATALOAD DUP1 ISZERO ISZERO DUP2 EQ PUSH2 0x1D78 JUMPI DUP2 DUP3 REVERT JUMPDEST SWAP3 POP PUSH2 0x1D86 PUSH1 0x20 DUP6 ADD PUSH2 0x1C8B JUMP JUMPDEST SWAP2 POP PUSH1 0x40 DUP5 ADD CALLDATALOAD SWAP1 POP SWAP3 POP SWAP3 POP SWAP3 JUMP JUMPDEST PUSH1 0x0 PUSH1 0x20 DUP3 DUP5 SUB SLT ISZERO PUSH2 0x1DA7 JUMPI DUP1 DUP2 REVERT JUMPDEST POP CALLDATALOAD SWAP2 SWAP1 POP JUMP JUMPDEST PUSH1 0x0 DUP1 PUSH1 0x40 DUP4 DUP6 SUB SLT ISZERO PUSH2 0x1DC0 JUMPI DUP2 DUP3 REVERT JUMPDEST DUP3 CALLDATALOAD SWAP2 POP PUSH2 0x1DD0 PUSH1 0x20 DUP5 ADD PUSH2 0x1C8B JUMP JUMPDEST SWAP1 POP SWAP3 POP SWAP3 SWAP1 POP JUMP JUMPDEST PUSH1 0x0 DUP1 PUSH1 0x0 PUSH1 0x40 DUP5 DUP7 SUB SLT ISZERO PUSH2 0x1DED JUMPI DUP3 DUP4 REVERT JUMPDEST DUP4 CALLDATALOAD SWAP3 POP PUSH1 0x20 DUP5 ADD CALLDATALOAD PUSH8 0xFFFFFFFFFFFFFFFF DUP1 DUP3 GT ISZERO PUSH2 0x1E0B JUMPI DUP4 DUP5 REVERT JUMPDEST DUP2 DUP7 ADD SWAP2 POP DUP7 PUSH1 0x1F DUP4 ADD SLT PUSH2 0x1E1E JUMPI DUP4 DUP5 REVERT JUMPDEST DUP2 CALLDATALOAD DUP2 DUP2 GT ISZERO PUSH2 0x1E2C JUMPI DUP5 DUP6 REVERT JUMPDEST DUP8 PUSH1 0x20 DUP3 PUSH1 0x5 SHL DUP6 ADD ADD GT ISZERO PUSH2 0x1E40 JUMPI DUP5 DUP6 REVERT JUMPDEST PUSH1 0x20 DUP4 ADD SWAP5 POP DUP1 SWAP4 POP POP POP POP SWAP3 POP SWAP3 POP SWAP3 JUMP JUMPDEST PUSH1 0x0 DUP1 PUSH1 0x40 DUP4 DUP6 SUB SLT ISZERO PUSH2 0x1E65 JUMPI DUP2 DUP3 REVERT JUMPDEST POP POP DUP1 CALLDATALOAD SWAP3 PUSH1 0x20 SWAP1 SWAP2 ADD CALLDATALOAD SWAP2 POP JUMP JUMPDEST PUSH1 0x0 PUSH1 0x20 DUP3 DUP5 SUB SLT ISZERO PUSH2 0x1E85 JUMPI DUP1 DUP2 REVERT JUMPDEST DUP2 CALLDATALOAD PUSH1 0x1 PUSH1 0x1 PUSH1 0xE0 SHL SUB NOT DUP2 AND DUP2 EQ PUSH2 0x10F5 JUMPI DUP2 DUP3 REVERT JUMPDEST PUSH1 0x0 PUSH1 0xA0 DUP3 DUP5 SUB SLT ISZERO PUSH2 0x1EAD JUMPI DUP1 DUP2 REVERT JUMPDEST POP SWAP2 SWAP1 POP JUMP JUMPDEST PUSH1 0x0 PUSH1 0x20 DUP3 DUP5 SUB SLT ISZERO PUSH2 0x1EC4 JUMPI DUP1 DUP2 REVERT JUMPDEST POP MLOAD SWAP2 SWAP1 POP JUMP JUMPDEST PUSH1 0x0 DUP1 PUSH1 0x0 PUSH1 0x60 DUP5 DUP7 SUB SLT ISZERO PUSH2 0x1EDF JUMPI DUP3 DUP4 REVERT JUMPDEST POP POP DUP2 CALLDATALOAD SWAP4 PUSH1 0x20 DUP4 ADD CALLDATALOAD SWAP4 POP PUSH1 0x40 SWAP1 SWAP3 ADD CALLDATALOAD SWAP2 SWAP1 POP JUMP JUMPDEST PUSH32 0x416363657373436F6E74726F6C3A206163636F756E7420000000000000000000 DUP2 MSTORE PUSH1 0x0 DUP4 MLOAD PUSH2 0x1F2E DUP2 PUSH1 0x17 DUP6 ADD PUSH1 0x20 DUP9 ADD PUSH2 0x2018 JUMP JUMPDEST PUSH32 0x206973206D697373696E6720726F6C6520000000000000000000000000000000 PUSH1 0x17 SWAP2 DUP5 ADD SWAP2 DUP3 ADD MSTORE DUP4 MLOAD PUSH2 0x1F6B DUP2 PUSH1 0x28 DUP5 ADD PUSH1 0x20 DUP9 ADD PUSH2 0x2018 JUMP JUMPDEST ADD PUSH1 0x28 ADD SWAP5 SWAP4 POP POP POP POP JUMP JUMPDEST PUSH1 0x20 DUP2 MSTORE PUSH1 0x0 DUP3 MLOAD DUP1 PUSH1 0x20 DUP5 ADD MSTORE PUSH2 0x1F96 DUP2 PUSH1 0x40 DUP6 ADD PUSH1 0x20 DUP8 ADD PUSH2 0x2018 JUMP JUMPDEST PUSH1 0x1F ADD PUSH1 0x1F NOT AND SWAP2 SWAP1 SWAP2 ADD PUSH1 0x40 ADD SWAP3 SWAP2 POP POP JUMP JUMPDEST PUSH1 0x0 DUP3 NOT DUP3 GT ISZERO PUSH2 0x1FBD JUMPI PUSH2 0x1FBD PUSH2 0x2076 JUMP JUMPDEST POP ADD SWAP1 JUMP JUMPDEST PUSH1 0x0 DUP3 PUSH2 0x1FDD JUMPI PUSH4 0x4E487B71 PUSH1 0xE0 SHL DUP2 MSTORE PUSH1 0x12 PUSH1 0x4 MSTORE PUSH1 0x24 DUP2 REVERT JUMPDEST POP DIV SWAP1 JUMP JUMPDEST PUSH1 0x0 DUP2 PUSH1 0x0 NOT DIV DUP4 GT DUP3 ISZERO ISZERO AND ISZERO PUSH2 0x1FFC JUMPI PUSH2 0x1FFC PUSH2 0x2076 JUMP JUMPDEST POP MUL SWAP1 JUMP JUMPDEST PUSH1 0x0 DUP3 DUP3 LT ISZERO PUSH2 0x2013 JUMPI PUSH2 0x2013 PUSH2 0x2076 JUMP JUMPDEST POP SUB SWAP1 JUMP JUMPDEST PUSH1 0x0 JUMPDEST DUP4 DUP2 LT ISZERO PUSH2 0x2033 JUMPI DUP2 DUP2 ADD MLOAD DUP4 DUP3 ADD MSTORE PUSH1 0x20 ADD PUSH2 0x201B JUMP JUMPDEST DUP4 DUP2 GT ISZERO PUSH2 0x7F3 JUMPI POP POP PUSH1 0x0 SWAP2 ADD MSTORE JUMP JUMPDEST PUSH1 0x0 DUP2 PUSH2 0x2053 JUMPI PUSH2 0x2053 PUSH2 0x2076 JUMP JUMPDEST POP PUSH1 0x0 NOT ADD SWAP1 JUMP JUMPDEST PUSH1 0x0 PUSH1 0x0 NOT DUP3 EQ ISZERO PUSH2 0x206F JUMPI PUSH2 0x206F PUSH2 0x2076 JUMP JUMPDEST POP PUSH1 0x1 ADD SWAP1 JUMP JUMPDEST PUSH4 0x4E487B71 PUSH1 0xE0 SHL PUSH1 0x0 MSTORE PUSH1 0x11 PUSH1 0x4 MSTORE PUSH1 0x24 PUSH1 0x0 REVERT INVALID LOG2 PUSH5 0x6970667358 0x22 SLT KECCAK256 SWAP12 0xBA 0x5E 0xE6 SWAP7 0xDB CHAINID STOP SMOD 0x2A 0xD2 0x4D 0xE3 SELFDESTRUCT 0xB1 0xB5 0xD8 0xA9 0xAA SWAP13 0xAB 0x28 LOG3 0xA6 0xDB 0xE3 SWAP8 SGT 0xD0 0xB4 SWAP1 0xF6 PUSH5 0x736F6C6343 STOP ADDMOD DIV STOP CALLER "
		},
		"gasEstimates": {
			"creation": {
				"codeDepositCost": "1677200",
				"executionCost": "infinite",
				"totalCost": "infinite"
			},
			"external": {
				"ROLE_ADMIN()": "252",
				"ROLE_BOT()": "252",
				"ROLE_DEX()": "250",
				"ROLE_TEAM_BENEFICIARY()": "274",
				"batchBurnAndReward()": "1097",
				"botTaxPercent()": "1053",
				"buyTimestampStorage(address)": "1297",
				"cachedMultiplier()": "1075",
				"chargeCustomTax(uint256,uint256)": "infinite",
				"cycleOneEnds()": "1052",
				"cycleOneStartTaxPercent()": "1073",
				"cycleThreeEndTaxPercent()": "1052",
				"cycleThreeEnds()": "1096",
				"cycleThreeStartTaxPercent()": "1072",
				"cycleTwoEnds()": "1054",
				"cycleTwoStartTaxPercent()": "1095",
				"deployedContractAtTimestamp()": "1052",
				"getBalance(address,uint256)": "infinite",
				"getRealBalance(address,uint256)": "infinite",
				"getRewardsBalance()": "infinite",
				"getRoleAdmin(bytes32)": "1227",
				"getRoleMember(bytes32,uint256)": "infinite",
				"getRoleMemberCount(bytes32)": "infinite",
				"getTotalSupply()": "infinite",
				"getWalletCurrentCycle(address)": "7366",
				"grantOneRoleBulk(bytes32,address[])": "infinite",
				"grantRole(bytes32,address)": "infinite",
				"grantRolesBulk((bytes32,address)[])": "infinite",
				"hasRole(bytes32,address)": "1463",
				"howManyFirstMinutesIncreasedTax()": "1051",
				"lastCachedTimestamp()": "1074",
				"prepareHumanAddressMintOrBurnRewardsAmounts(bool,address,uint256)": "infinite",
				"prepareTaxAmounts((address,address,uint256,uint256,uint256))": "infinite",
				"publicForcedUpdateCacheMultiplier()": "infinite",
				"realTotalSupply()": "1095",
				"renounceRole(bytes32,address)": "infinite",
				"revokeRole(bytes32,address)": "infinite",
				"rewardsBalance()": "1075",
				"secondsBetweenRecacheUpdates()": "1096",
				"supportsInterface(bytes4)": "infinite",
				"teamPercentOfTax()": "1051",
				"updateBotTaxSettings(uint256,uint256)": "infinite",
				"updateCycleOneSettings(uint256,uint256)": "infinite",
				"updateCycleTwoSettings(uint256,uint256)": "infinite",
				"updateCycleTwoSettings(uint256,uint256,uint256)": "infinite",
				"updateDefiFactoryTokenAddress(address)": "21256",
				"updateSecondsBetweenUpdates(uint256)": "infinite",
				"updateTeamPercentOfTax(uint256)": "infinite"
			},
			"internal": {
				"calculateCurrentCycleTax(uint256)": "infinite",
				"delayedUpdateCacheMultiplier()": "infinite",
				"forcedUpdateCacheMultiplier()": "infinite",
				"isContract(address)": "infinite",
				"isNotContract(address)": "infinite"
			}
		},
		"methodIdentifiers": {
			"ROLE_ADMIN()": "d391014b",
			"ROLE_BOT()": "4ccc35fb",
			"ROLE_DEX()": "f687e46e",
			"ROLE_TEAM_BENEFICIARY()": "94b2242e",
			"batchBurnAndReward()": "1336a98f",
			"botTaxPercent()": "1857b512",
			"buyTimestampStorage(address)": "dfd5e129",
			"cachedMultiplier()": "36177818",
			"chargeCustomTax(uint256,uint256)": "36098758",
			"cycleOneEnds()": "372affbf",
			"cycleOneStartTaxPercent()": "7207786f",
			"cycleThreeEndTaxPercent()": "9394aa66",
			"cycleThreeEnds()": "60fd5fd7",
			"cycleThreeStartTaxPercent()": "fc78bab3",
			"cycleTwoEnds()": "01bf9180",
			"cycleTwoStartTaxPercent()": "e7baf7f4",
			"deployedContractAtTimestamp()": "abfd4ec3",
			"getBalance(address,uint256)": "2b04e840",
			"getRealBalance(address,uint256)": "5cdba003",
			"getRewardsBalance()": "858a135d",
			"getRoleAdmin(bytes32)": "248a9ca3",
			"getRoleMember(bytes32,uint256)": "9010d07c",
			"getRoleMemberCount(bytes32)": "ca15c873",
			"getTotalSupply()": "c4e41b22",
			"getWalletCurrentCycle(address)": "9be810cc",
			"grantOneRoleBulk(bytes32,address[])": "dda7498e",
			"grantRole(bytes32,address)": "2f2ff15d",
			"grantRolesBulk((bytes32,address)[])": "03ed957f",
			"hasRole(bytes32,address)": "91d14854",
			"howManyFirstMinutesIncreasedTax()": "c4a8a169",
			"lastCachedTimestamp()": "40142e55",
			"prepareHumanAddressMintOrBurnRewardsAmounts(bool,address,uint256)": "42e58a63",
			"prepareTaxAmounts((address,address,uint256,uint256,uint256))": "815a61e0",
			"publicForcedUpdateCacheMultiplier()": "e8ac6e4e",
			"realTotalSupply()": "ef356a79",
			"renounceRole(bytes32,address)": "36568abe",
			"revokeRole(bytes32,address)": "d547741f",
			"rewardsBalance()": "131f2e53",
			"secondsBetweenRecacheUpdates()": "da9b835a",
			"supportsInterface(bytes4)": "01ffc9a7",
			"teamPercentOfTax()": "62109feb",
			"updateBotTaxSettings(uint256,uint256)": "2cf136f3",
			"updateCycleOneSettings(uint256,uint256)": "fed77a80",
			"updateCycleTwoSettings(uint256,uint256)": "b6c5ab7b",
			"updateCycleTwoSettings(uint256,uint256,uint256)": "ebc27241",
			"updateDefiFactoryTokenAddress(address)": "bc6537e8",
			"updateSecondsBetweenUpdates(uint256)": "342c1919",
			"updateTeamPercentOfTax(uint256)": "119d7898"
		}
	},
	"abi": [
		{
			"inputs": [],
			"stateMutability": "nonpayable",
			"type": "constructor"
		},
		{
			"anonymous": false,
			"inputs": [
				{
					"indexed": false,
					"internalType": "address",
					"name": "from",
					"type": "address"
				},
				{
					"indexed": false,
					"internalType": "address",
					"name": "to",
					"type": "address"
				},
				{
					"indexed": false,
					"internalType": "uint256",
					"name": "transferAmount",
					"type": "uint256"
				},
				{
					"indexed": false,
					"internalType": "uint256",
					"name": "taxedAmount",
					"type": "uint256"
				}
			],
			"name": "BotTransactionDetected",
			"type": "event"
		},
		{
			"anonymous": false,
			"inputs": [
				{
					"indexed": false,
					"internalType": "uint256",
					"name": "newMultiplier",
					"type": "uint256"
				}
			],
			"name": "MultiplierUpdated",
			"type": "event"
		},
		{
			"anonymous": false,
			"inputs": [
				{
					"indexed": true,
					"internalType": "bytes32",
					"name": "role",
					"type": "bytes32"
				},
				{
					"indexed": true,
					"internalType": "bytes32",
					"name": "previousAdminRole",
					"type": "bytes32"
				},
				{
					"indexed": true,
					"internalType": "bytes32",
					"name": "newAdminRole",
					"type": "bytes32"
				}
			],
			"name": "RoleAdminChanged",
			"type": "event"
		},
		{
			"anonymous": false,
			"inputs": [
				{
					"indexed": true,
					"internalType": "bytes32",
					"name": "role",
					"type": "bytes32"
				},
				{
					"indexed": true,
					"internalType": "address",
					"name": "account",
					"type": "address"
				},
				{
					"indexed": true,
					"internalType": "address",
					"name": "sender",
					"type": "address"
				}
			],
			"name": "RoleGranted",
			"type": "event"
		},
		{
			"anonymous": false,
			"inputs": [
				{
					"indexed": true,
					"internalType": "bytes32",
					"name": "role",
					"type": "bytes32"
				},
				{
					"indexed": true,
					"internalType": "address",
					"name": "account",
					"type": "address"
				},
				{
					"indexed": true,
					"internalType": "address",
					"name": "sender",
					"type": "address"
				}
			],
			"name": "RoleRevoked",
			"type": "event"
		},
		{
			"anonymous": false,
			"inputs": [
				{
					"indexed": false,
					"internalType": "address",
					"name": "to",
					"type": "address"
				},
				{
					"indexed": false,
					"internalType": "uint256",
					"name": "transferAmount",
					"type": "uint256"
				}
			],
			"name": "TeamTaxRewardsSent",
			"type": "event"
		},
		{
			"inputs": [],
			"name": "ROLE_ADMIN",
			"outputs": [
				{
					"internalType": "bytes32",
					"name": "",
					"type": "bytes32"
				}
			],
			"stateMutability": "view",
			"type": "function"
		},
		{
			"inputs": [],
			"name": "ROLE_BOT",
			"outputs": [
				{
					"internalType": "bytes32",
					"name": "",
					"type": "bytes32"
				}
			],
			"stateMutability": "view",
			"type": "function"
		},
		{
			"inputs": [],
			"name": "ROLE_DEX",
			"outputs": [
				{
					"internalType": "bytes32",
					"name": "",
					"type": "bytes32"
				}
			],
			"stateMutability": "view",
			"type": "function"
		},
		{
			"inputs": [],
			"name": "ROLE_TEAM_BENEFICIARY",
			"outputs": [
				{
					"internalType": "bytes32",
					"name": "",
					"type": "bytes32"
				}
			],
			"stateMutability": "view",
			"type": "function"
		},
		{
			"inputs": [],
			"name": "batchBurnAndReward",
			"outputs": [
				{
					"internalType": "uint256",
					"name": "",
					"type": "uint256"
				}
			],
			"stateMutability": "view",
			"type": "function"
		},
		{
			"inputs": [],
			"name": "botTaxPercent",
			"outputs": [
				{
					"internalType": "uint256",
					"name": "",
					"type": "uint256"
				}
			],
			"stateMutability": "view",
			"type": "function"
		},
		{
			"inputs": [
				{
					"internalType": "address",
					"name": "",
					"type": "address"
				}
			],
			"name": "buyTimestampStorage",
			"outputs": [
				{
					"internalType": "uint256",
					"name": "",
					"type": "uint256"
				}
			],
			"stateMutability": "view",
			"type": "function"
		},
		{
			"inputs": [],
			"name": "cachedMultiplier",
			"outputs": [
				{
					"internalType": "uint256",
					"name": "",
					"type": "uint256"
				}
			],
			"stateMutability": "view",
			"type": "function"
		},
		{
			"inputs": [
				{
					"internalType": "uint256",
					"name": "taxAmount",
					"type": "uint256"
				},
				{
					"internalType": "uint256",
					"name": "accountBalance",
					"type": "uint256"
				}
			],
			"name": "chargeCustomTax",
			"outputs": [
				{
					"internalType": "uint256",
					"name": "",
					"type": "uint256"
				}
			],
			"stateMutability": "nonpayable",
			"type": "function"
		},
		{
			"inputs": [],
			"name": "cycleOneEnds",
			"outputs": [
				{
					"internalType": "uint256",
					"name": "",
					"type": "uint256"
				}
			],
			"stateMutability": "view",
			"type": "function"
		},
		{
			"inputs": [],
			"name": "cycleOneStartTaxPercent",
			"outputs": [
				{
					"internalType": "uint256",
					"name": "",
					"type": "uint256"
				}
			],
			"stateMutability": "view",
			"type": "function"
		},
		{
			"inputs": [],
			"name": "cycleThreeEndTaxPercent",
			"outputs": [
				{
					"internalType": "uint256",
					"name": "",
					"type": "uint256"
				}
			],
			"stateMutability": "view",
			"type": "function"
		},
		{
			"inputs": [],
			"name": "cycleThreeEnds",
			"outputs": [
				{
					"internalType": "uint256",
					"name": "",
					"type": "uint256"
				}
			],
			"stateMutability": "view",
			"type": "function"
		},
		{
			"inputs": [],
			"name": "cycleThreeStartTaxPercent",
			"outputs": [
				{
					"internalType": "uint256",
					"name": "",
					"type": "uint256"
				}
			],
			"stateMutability": "view",
			"type": "function"
		},
		{
			"inputs": [],
			"name": "cycleTwoEnds",
			"outputs": [
				{
					"internalType": "uint256",
					"name": "",
					"type": "uint256"
				}
			],
			"stateMutability": "view",
			"type": "function"
		},
		{
			"inputs": [],
			"name": "cycleTwoStartTaxPercent",
			"outputs": [
				{
					"internalType": "uint256",
					"name": "",
					"type": "uint256"
				}
			],
			"stateMutability": "view",
			"type": "function"
		},
		{
			"inputs": [],
			"name": "deployedContractAtTimestamp",
			"outputs": [
				{
					"internalType": "uint256",
					"name": "",
					"type": "uint256"
				}
			],
			"stateMutability": "view",
			"type": "function"
		},
		{
			"inputs": [
				{
					"internalType": "address",
					"name": "account",
					"type": "address"
				},
				{
					"internalType": "uint256",
					"name": "accountBalance",
					"type": "uint256"
				}
			],
			"name": "getBalance",
			"outputs": [
				{
					"internalType": "uint256",
					"name": "",
					"type": "uint256"
				}
			],
			"stateMutability": "view",
			"type": "function"
		},
		{
			"inputs": [
				{
					"internalType": "address",
					"name": "account",
					"type": "address"
				},
				{
					"internalType": "uint256",
					"name": "accountBalance",
					"type": "uint256"
				}
			],
			"name": "getRealBalance",
			"outputs": [
				{
					"internalType": "uint256",
					"name": "",
					"type": "uint256"
				}
			],
			"stateMutability": "view",
			"type": "function"
		},
		{
			"inputs": [],
			"name": "getRewardsBalance",
			"outputs": [
				{
					"internalType": "uint256",
					"name": "",
					"type": "uint256"
				}
			],
			"stateMutability": "view",
			"type": "function"
		},
		{
			"inputs": [
				{
					"internalType": "bytes32",
					"name": "role",
					"type": "bytes32"
				}
			],
			"name": "getRoleAdmin",
			"outputs": [
				{
					"internalType": "bytes32",
					"name": "",
					"type": "bytes32"
				}
			],
			"stateMutability": "view",
			"type": "function"
		},
		{
			"inputs": [
				{
					"internalType": "bytes32",
					"name": "role",
					"type": "bytes32"
				},
				{
					"internalType": "uint256",
					"name": "index",
					"type": "uint256"
				}
			],
			"name": "getRoleMember",
			"outputs": [
				{
					"internalType": "address",
					"name": "",
					"type": "address"
				}
			],
			"stateMutability": "view",
			"type": "function"
		},
		{
			"inputs": [
				{
					"internalType": "bytes32",
					"name": "role",
					"type": "bytes32"
				}
			],
			"name": "getRoleMemberCount",
			"outputs": [
				{
					"internalType": "uint256",
					"name": "",
					"type": "uint256"
				}
			],
			"stateMutability": "view",
			"type": "function"
		},
		{
			"inputs": [],
			"name": "getTotalSupply",
			"outputs": [
				{
					"internalType": "uint256",
					"name": "",
					"type": "uint256"
				}
			],
			"stateMutability": "view",
			"type": "function"
		},
		{
			"inputs": [
				{
					"internalType": "address",
					"name": "addr",
					"type": "address"
				}
			],
			"name": "getWalletCurrentCycle",
			"outputs": [
				{
					"components": [
						{
							"internalType": "uint256",
							"name": "currentCycleTax",
							"type": "uint256"
						},
						{
							"internalType": "uint256",
							"name": "howMuchTimeLeftTillEndOfCycleThree",
							"type": "uint256"
						}
					],
					"internalType": "struct NoBotsTechV2.CurrectCycle",
					"name": "currentCycle",
					"type": "tuple"
				}
			],
			"stateMutability": "view",
			"type": "function"
		},
		{
			"inputs": [
				{
					"internalType": "bytes32",
					"name": "role",
					"type": "bytes32"
				},
				{
					"internalType": "address[]",
					"name": "addrs",
					"type": "address[]"
				}
			],
			"name": "grantOneRoleBulk",
			"outputs": [],
			"stateMutability": "nonpayable",
			"type": "function"
		},
		{
			"inputs": [
				{
					"internalType": "bytes32",
					"name": "role",
					"type": "bytes32"
				},
				{
					"internalType": "address",
					"name": "account",
					"type": "address"
				}
			],
			"name": "grantRole",
			"outputs": [],
			"stateMutability": "nonpayable",
			"type": "function"
		},
		{
			"inputs": [
				{
					"components": [
						{
							"internalType": "bytes32",
							"name": "role",
							"type": "bytes32"
						},
						{
							"internalType": "address",
							"name": "addr",
							"type": "address"
						}
					],
					"internalType": "struct NoBotsTechV2.RoleAccess[]",
					"name": "roles",
					"type": "tuple[]"
				}
			],
			"name": "grantRolesBulk",
			"outputs": [],
			"stateMutability": "nonpayable",
			"type": "function"
		},
		{
			"inputs": [
				{
					"internalType": "bytes32",
					"name": "role",
					"type": "bytes32"
				},
				{
					"internalType": "address",
					"name": "account",
					"type": "address"
				}
			],
			"name": "hasRole",
			"outputs": [
				{
					"internalType": "bool",
					"name": "",
					"type": "bool"
				}
			],
			"stateMutability": "view",
			"type": "function"
		},
		{
			"inputs": [],
			"name": "howManyFirstMinutesIncreasedTax",
			"outputs": [
				{
					"internalType": "uint256",
					"name": "",
					"type": "uint256"
				}
			],
			"stateMutability": "view",
			"type": "function"
		},
		{
			"inputs": [],
			"name": "lastCachedTimestamp",
			"outputs": [
				{
					"internalType": "uint256",
					"name": "",
					"type": "uint256"
				}
			],
			"stateMutability": "view",
			"type": "function"
		},
		{
			"inputs": [
				{
					"internalType": "bool",
					"name": "isMint",
					"type": "bool"
				},
				{
					"internalType": "address",
					"name": "account",
					"type": "address"
				},
				{
					"internalType": "uint256",
					"name": "desiredAmountToMintOrBurn",
					"type": "uint256"
				}
			],
			"name": "prepareHumanAddressMintOrBurnRewardsAmounts",
			"outputs": [
				{
					"internalType": "uint256",
					"name": "",
					"type": "uint256"
				}
			],
			"stateMutability": "nonpayable",
			"type": "function"
		},
		{
			"inputs": [
				{
					"components": [
						{
							"internalType": "address",
							"name": "sender",
							"type": "address"
						},
						{
							"internalType": "address",
							"name": "recipient",
							"type": "address"
						},
						{
							"internalType": "uint256",
							"name": "transferAmount",
							"type": "uint256"
						},
						{
							"internalType": "uint256",
							"name": "senderRealBalance",
							"type": "uint256"
						},
						{
							"internalType": "uint256",
							"name": "recipientRealBalance",
							"type": "uint256"
						}
					],
					"internalType": "struct TaxAmountsInput",
					"name": "taxAmountsInput",
					"type": "tuple"
				}
			],
			"name": "prepareTaxAmounts",
			"outputs": [
				{
					"components": [
						{
							"internalType": "uint256",
							"name": "senderRealBalance",
							"type": "uint256"
						},
						{
							"internalType": "uint256",
							"name": "recipientRealBalance",
							"type": "uint256"
						},
						{
							"internalType": "uint256",
							"name": "burnAndRewardAmount",
							"type": "uint256"
						},
						{
							"internalType": "uint256",
							"name": "recipientGetsAmount",
							"type": "uint256"
						}
					],
					"internalType": "struct TaxAmountsOutput",
					"name": "taxAmountsOutput",
					"type": "tuple"
				}
			],
			"stateMutability": "nonpayable",
			"type": "function"
		},
		{
			"inputs": [],
			"name": "publicForcedUpdateCacheMultiplier",
			"outputs": [],
			"stateMutability": "nonpayable",
			"type": "function"
		},
		{
			"inputs": [],
			"name": "realTotalSupply",
			"outputs": [
				{
					"internalType": "uint256",
					"name": "",
					"type": "uint256"
				}
			],
			"stateMutability": "view",
			"type": "function"
		},
		{
			"inputs": [
				{
					"internalType": "bytes32",
					"name": "role",
					"type": "bytes32"
				},
				{
					"internalType": "address",
					"name": "account",
					"type": "address"
				}
			],
			"name": "renounceRole",
			"outputs": [],
			"stateMutability": "nonpayable",
			"type": "function"
		},
		{
			"inputs": [
				{
					"internalType": "bytes32",
					"name": "role",
					"type": "bytes32"
				},
				{
					"internalType": "address",
					"name": "account",
					"type": "address"
				}
			],
			"name": "revokeRole",
			"outputs": [],
			"stateMutability": "nonpayable",
			"type": "function"
		},
		{
			"inputs": [],
			"name": "rewardsBalance",
			"outputs": [
				{
					"internalType": "uint256",
					"name": "",
					"type": "uint256"
				}
			],
			"stateMutability": "view",
			"type": "function"
		},
		{
			"inputs": [],
			"name": "secondsBetweenRecacheUpdates",
			"outputs": [
				{
					"internalType": "uint256",
					"name": "",
					"type": "uint256"
				}
			],
			"stateMutability": "view",
			"type": "function"
		},
		{
			"inputs": [
				{
					"internalType": "bytes4",
					"name": "interfaceId",
					"type": "bytes4"
				}
			],
			"name": "supportsInterface",
			"outputs": [
				{
					"internalType": "bool",
					"name": "",
					"type": "bool"
				}
			],
			"stateMutability": "view",
			"type": "function"
		},
		{
			"inputs": [],
			"name": "teamPercentOfTax",
			"outputs": [
				{
					"internalType": "uint256",
					"name": "",
					"type": "uint256"
				}
			],
			"stateMutability": "view",
			"type": "function"
		},
		{
			"inputs": [
				{
					"internalType": "uint256",
					"name": "_botTaxPercent",
					"type": "uint256"
				},
				{
					"internalType": "uint256",
					"name": "_howManyFirstMinutesIncreasedTax",
					"type": "uint256"
				}
			],
			"name": "updateBotTaxSettings",
			"outputs": [],
			"stateMutability": "nonpayable",
			"type": "function"
		},
		{
			"inputs": [
				{
					"internalType": "uint256",
					"name": "_cycleOneStartTaxPercent",
					"type": "uint256"
				},
				{
					"internalType": "uint256",
					"name": "_cycleOneEnds",
					"type": "uint256"
				}
			],
			"name": "updateCycleOneSettings",
			"outputs": [],
			"stateMutability": "nonpayable",
			"type": "function"
		},
		{
			"inputs": [
				{
					"internalType": "uint256",
					"name": "_cycleTwoStartTaxPercent",
					"type": "uint256"
				},
				{
					"internalType": "uint256",
					"name": "_cycleTwoEnds",
					"type": "uint256"
				}
			],
			"name": "updateCycleTwoSettings",
			"outputs": [],
			"stateMutability": "nonpayable",
			"type": "function"
		},
		{
			"inputs": [
				{
					"internalType": "uint256",
					"name": "_cycleThreeStartTaxPercent",
					"type": "uint256"
				},
				{
					"internalType": "uint256",
					"name": "_cycleThreeEnds",
					"type": "uint256"
				},
				{
					"internalType": "uint256",
					"name": "_cycleThreeEndTaxPercent",
					"type": "uint256"
				}
			],
			"name": "updateCycleTwoSettings",
			"outputs": [],
			"stateMutability": "nonpayable",
			"type": "function"
		},
		{
			"inputs": [
				{
					"internalType": "address",
					"name": "_defiFactoryTokenAddress",
					"type": "address"
				}
			],
			"name": "updateDefiFactoryTokenAddress",
			"outputs": [],
			"stateMutability": "nonpayable",
			"type": "function"
		},
		{
			"inputs": [
				{
					"internalType": "uint256",
					"name": "_secondsBetweenRecacheUpdates",
					"type": "uint256"
				}
			],
			"name": "updateSecondsBetweenUpdates",
			"outputs": [],
			"stateMutability": "nonpayable",
			"type": "function"
		},
		{
			"inputs": [
				{
					"internalType": "uint256",
					"name": "_teamPercentOfTax",
					"type": "uint256"
				}
			],
			"name": "updateTeamPercentOfTax",
			"outputs": [],
			"stateMutability": "nonpayable",
			"type": "function"
		}
	]
}