{
	"data": {
		"bytecode": {
			"linkReferences": {},
			"object": "6080604052670de0b6b3a764000060025542600855603c600955620186a0600a55620f1b30600b5561c350600c55612710600d556109c4600e55600060125560006013553480156200005057600080fd5b5062000067600062000061620000a8565b620000ac565b7f4dbe4840d7465bd162f67814cea0b519567a2e0e578bcde61e7f4ced361e5a3d6002546040516200009a919062000239565b60405180910390a162000242565b3390565b620000c38282620000ef60201b62001dfc1760201c565b6000828152600160209081526040909120620000ea91839062001e0a620000ff821b17901c565b505050565b620000fb82826200011f565b5050565b600062000116836001600160a01b038416620001a9565b90505b92915050565b6200012b8282620001f8565b620000fb576000828152602081815260408083206001600160a01b03851684529091529020805460ff1916600117905562000165620000a8565b6001600160a01b0316816001600160a01b0316837f2f8788117e7eff1d82e926ec794901d17c78024a50270940304540a733656f0d60405160405180910390a45050565b6000620001b7838362000221565b620001ef5750815460018181018455600084815260208082209093018490558454848252828601909352604090209190915562000119565b50600062000119565b6000918252602082815260408084206001600160a01b0393909316845291905290205460ff1690565b60009081526001919091016020526040902054151590565b90815260200190565b612dc480620002526000396000f3fe608060405234801561001057600080fd5b50600436106103405760003560e01c806382e17b65116101bd578063cb123637116100f9578063e3556819116100a2578063e91c46521161007c578063e91c46521461064a578063ef356a791461065d578063ef357df114610665578063fc0875721461067857610340565b8063e35568191461061c578063e69594e31461062f578063e8ac6e4e1461064257610340565b8063d547741f116100d3578063d547741f146105ee578063d590b71e14610601578063deaf0fa11461060957610340565b8063cb123637146105c0578063d391014b146105d3578063d415a82d146105db57610340565b8063975ea10811610166578063aa46d67811610140578063aa46d67814610595578063b3830c8c1461059d578063c4e41b22146105a5578063ca15c873146105ad57610340565b8063975ea108146105725780639e01e31c1461057a578063a202bd521461058257610340565b806387d1f05d1161019757806387d1f05d146105375780639010d07c1461053f57806391d148541461055f57610340565b806382e17b6514610507578063837376af14610527578063858a135d1461052f57610340565b806336568abe1161028c578063503a77ae1161023557806368a2972f1161020f57806368a2972f146104ac5780636bc833f3146104cc5780637b197233146104df578063815a61e0146104e757610340565b8063503a77ae1461047e5780635603b9f9146104865780635cdba0031461049957610340565b806340142e551161026657806340142e551461045057806342e58a63146104585780634abd991d1461046b57610340565b806336568abe146104225780633830551a146104355780633e6e44961461044857610340565b80631857b512116102ee5780632f2ff15d116102c85780632f2ff15d146103f45780633609875814610407578063361778181461041a57610340565b80631857b512146103c6578063248a9ca3146103ce5780632b04e840146103e157610340565b80630f3ebe5d1161031f5780630f3ebe5d146103a3578063131f2e53146103b65780631336a98f146103be57610340565b80622457831461034557806301ffc9a71461036e57806303ed957f1461038e575b600080fd5b61035861035336600461262f565b61068b565b6040516103659190612a32565b60405180910390f35b61038161037c3660046127f5565b610918565b6040516103659190612a27565b6103a161039c3660046126e9565b61095e565b005b6103586103b13660046125e3565b6109f9565b610358610a0b565b610358610a11565b610358610a17565b6103586103dc36600461279a565b610a1d565b6103586103ef366004612680565b610a32565b6103a16104023660046127b2565b610a9f565b6103586104153660046127d4565b610ac6565b610358610b2e565b6103a16104303660046127b2565b610b34565b6103a16104433660046126a9565b610b56565b610358610ea8565b610358610eae565b610358610466366004612759565b610eb4565b6103586104793660046125e3565b610fd2565b610358611021565b6103a16104943660046125fd565b611045565b6103586104a7366004612680565b611322565b6104bf6104ba3660046126a9565b611374565b60405161036591906129cf565b6103a16104da366004612834565b6114e6565b61035861150c565b6104fa6104f536600461281d565b611512565b6040516103659190612c81565b61051a6105153660046126a9565b611a96565b6040516103659190612982565b610358611b92565b610358611b98565b610358611baf565b61055261054d3660046127d4565b611bb5565b60405161036591906128ef565b61038161056d3660046127b2565b611bd6565b610358611bff565b610358611c05565b6103586105903660046127d4565b611c29565b610358611c64565b610358611c6a565b610358611c70565b6103586105bb36600461279a565b611c95565b6103586105ce36600461279a565b611cac565b610358611cd0565b6103586105e93660046125e3565b611cd5565b6103a16105fc3660046127b2565b611ce7565b610358611cf1565b6105526106173660046125e3565b611d15565b6103a161062a3660046125e3565b611d30565b6103a161063d3660046127d4565b611d59565b6103a1611d73565b6103586106583660046125e3565b611d7d565b610358611d8f565b6103a161067336600461279a565b611d95565b6103a1610686366004612680565b611da9565b60008061069f8161069a611e1f565b611e23565b6001600160a01b03851660009081526004602052604081205490805b858110156108eb57600360008888848181106106e757634e487b7160e01b600052603260045260246000fd5b90506020020160208101906106fc91906125e3565b6001600160a01b0316815260208101919091526040016000205461071f576108d9565b6005600088888481811061074357634e487b7160e01b600052603260045260246000fd5b905060200201602081019061075891906125e3565b6001600160a01b03908116825260208201929092526040016000205416915081156108d957876001600160a01b0316826001600160a01b0316141561081957620f4240600d54600360008a8a868181106107c257634e487b7160e01b600052603260045260246000fd5b90506020020160208101906107d791906125e3565b6001600160a01b03166001600160a01b03168152602001908152602001600020546108029190612ce4565b61080c9190612cc4565b6108169084612cac565b92505b6001600160a01b039182166000908152600560205260409020549091169081156108d957876001600160a01b0316826001600160a01b031614156108d957620f4240600e54600360008a8a8681811061088257634e487b7160e01b600052603260045260246000fd5b905060200201602081019061089791906125e3565b6001600160a01b03166001600160a01b03168152602001908152602001600020546108c29190612ce4565b6108cc9190612cc4565b6108d69084612cac565b92505b806108e381612d5d565b9150506106bb565b50670de0b6b3a7640000600254836109039190612ce4565b61090d9190612cc4565b979650505050505050565b60006001600160e01b031982167f5a05180f000000000000000000000000000000000000000000000000000000001480610956575061095682611e87565b90505b919050565b600061096c8161069a611e1f565b60005b828110156109f3576109e184848381811061099a57634e487b7160e01b600052603260045260246000fd5b905060400201600001358585848181106109c457634e487b7160e01b600052603260045260246000fd5b90506040020160200160208101906109dc91906125e3565b611ec5565b806109eb81612d5d565b91505061096f565b50505050565b60036020526000908152604090205481565b600f5481565b60075481565b600b5481565b60009081526020819052604090206001015490565b600080610a418161069a611e1f565b610a6b7fbd68ab95cda3c90ac0bffc2b3a3a97a564372fc3ca4a8e4575d3ce58179b756385611bd6565b610a9557670de0b6b3a764000060025484610a869190612ce4565b610a909190612cc4565b610a97565b825b949350505050565b610aa98282611ecf565b6000828152600160205260409020610ac19082611e0a565b505050565b600080610ad58161069a611e1f565b600254600090610aed670de0b6b3a764000087612ce4565b610af79190612cc4565b9050610b038185612d03565b93508060076000828254610b179190612cac565b90915550610b259050611eee565b50919392505050565b60025481565b610b3e8282611f0d565b6000828152600160205260409020610ac19082611f4f565b6000610b648161069a611e1f565b6000805b83811015610ea15760036000868684818110610b9457634e487b7160e01b600052603260045260246000fd5b9050602002016020810190610ba991906125e3565b6001600160a01b03168152602081019190915260400160002054610bcc57610e8f565b60056000868684818110610bf057634e487b7160e01b600052603260045260246000fd5b9050602002016020810190610c0591906125e3565b6001600160a01b0390811682526020820192909252604001600020541691508115610e8f57620f4240600d5460036000888886818110610c5557634e487b7160e01b600052603260045260246000fd5b9050602002016020810190610c6a91906125e3565b6001600160a01b03166001600160a01b0316815260200190815260200160002054610c959190612ce4565b610c9f9190612cc4565b6001600160a01b03831660009081526004602052604081208054909190610cc7908490612cac565b90915550506001600160a01b038216600090815260046020526040908190205490517f7feff17c24ace97134b37ff4047be0fba9543a1f254b3a942ad037d78fed64f791610d1791859190612969565b60405180910390a16001600160a01b03918216600090815260056020526040902054909116908115610e3957620f4240600e5460036000888886818110610d6e57634e487b7160e01b600052603260045260246000fd5b9050602002016020810190610d8391906125e3565b6001600160a01b03166001600160a01b0316815260200190815260200160002054610dae9190612ce4565b610db89190612cc4565b6001600160a01b03831660009081526004602052604081208054909190610de0908490612cac565b90915550506001600160a01b038216600090815260046020526040908190205490517f7feff17c24ace97134b37ff4047be0fba9543a1f254b3a942ad037d78fed64f791610e3091859190612969565b60405180910390a15b600060036000878785818110610e5f57634e487b7160e01b600052603260045260246000fd5b9050602002016020810190610e7491906125e3565b6001600160a01b031681526020810191909152604001600020555b80610e9981612d5d565b915050610b68565b5050505050565b60095481565b60085481565b600080610ec38161069a611e1f565b610eed7fd27488087fca693adcf8b477ec0ca6cf5134d7f124fdc511eb258522c40fd72b85611bd6565b80610efc5750610efc84611f64565b610f215760405162461bcd60e51b8152600401610f1890612b7f565b60405180910390fd5b600254600090610f3985670de0b6b3a7640000612ce4565b610f439190612cc4565b90506000610f518286612d03565b90508615610f8f5780600f6000828254610f6b9190612cac565b925050819055508160106000828254610f849190612cac565b90915550610fc09050565b80600f6000828254610fa19190612d03565b925050819055508160106000828254610fba9190612d03565b90915550505b610fc8611f69565b5095945050505050565b600080610fe18161069a611e1f565b6002546001600160a01b038416600090815260046020526040902054670de0b6b3a76400009161101091612ce4565b61101a9190612cc4565b9392505050565b7fee11097cbb9c334ec21a7934061732a460df1edb6b52f0b9464feea55dd71bff81565b60006110538161069a611e1f565b6001600160a01b0382161580159061107357506001600160a01b03831615155b61108f5760405162461bcd60e51b8152600401610f1890612bb6565b826001600160a01b0316826001600160a01b031614156110c15760405162461bcd60e51b8152600401610f1890612b48565b6001600160a01b0380841660009081526005602052604090205483821691161480159061110b57506001600160a01b03808316600090815260056020526040902054848216911614155b6111275760405162461bcd60e51b8152600401610f1890612bed565b61113083611f64565b8015611140575061114082611f64565b61115c5760405162461bcd60e51b8152600401610f1890612b11565b6111867fd27488087fca693adcf8b477ec0ca6cf5134d7f124fdc511eb258522c40fd72b84611bd6565b1580156111ba57506111b87fd27488087fca693adcf8b477ec0ca6cf5134d7f124fdc511eb258522c40fd72b83611bd6565b155b80156111ed57506111eb7fee11097cbb9c334ec21a7934061732a460df1edb6b52f0b9464feea55dd71bff84611bd6565b155b8015611220575061121e7fee11097cbb9c334ec21a7934061732a460df1edb6b52f0b9464feea55dd71bff83611bd6565b155b61123c5760405162461bcd60e51b8152600401610f1890612aa3565b6001600160a01b03838116600090815260056020526040902080547fffffffffffffffffffffffff000000000000000000000000000000000000000016848316179081905516156112e4576001600160a01b03808416600090815260056020526040908190205490517fccaa6f8dcab99ae301b4462b3deb302e91a54f1ad24a0887be7649303509cd28926112d7928792911690869061291d565b60405180910390a1610ac1565b7f5f1ca2fcc108b751843a763e60d2201f593516109d7dbb1b700468f2d4190bb78383604051611315929190612903565b60405180910390a1505050565b6000806113318161069a611e1f565b61135b7fbd68ab95cda3c90ac0bffc2b3a3a97a564372fc3ca4a8e4575d3ce58179b756385611bd6565b610a9557600254610a86670de0b6b3a764000085612ce4565b606060006113848161069a611e1f565b60008367ffffffffffffffff8111156113ad57634e487b7160e01b600052604160045260246000fd5b6040519080825280602002602001820160405280156113e657816020015b6113d3612544565b8152602001906001900390816113cb5790505b50905060005b848110156114dd57604051806040016040528087878481811061141f57634e487b7160e01b600052603260045260246000fd5b905060200201602081019061143491906125e3565b6001600160a01b031681526020016003600089898681811061146657634e487b7160e01b600052603260045260246000fd5b905060200201602081019061147b91906125e3565b6001600160a01b03166001600160a01b03168152602001908152602001600020548152508282815181106114bf57634e487b7160e01b600052603260045260246000fd5b602002602001018190525080806114d590612d5d565b9150506113ec565b50949350505050565b60006114f48161069a611e1f565b50600c94909455600b92909255600a55600d55600e55565b600d5481565b61151a61255b565b60006115288161069a611e1f565b600254600090611544670de0b6b3a76400006040870135612ce4565b61154e9190612cc4565b9050600081116115705760405162461bcd60e51b8152600401610f1890612ada565b60006115a37fd27488087fca693adcf8b477ec0ca6cf5134d7f124fdc511eb258522c40fd72b61056d60208801886125e3565b8061160057506012544390601160006115bf60208a018a6125e3565b6001600160a01b031681526020810191909152604001600020546115e39190612cac565b10801561160057506116006115fb60208701876125e3565b611f64565b80156116a3575061163b7fd27488087fca693adcf8b477ec0ca6cf5134d7f124fdc511eb258522c40fd72b61056d60408801602089016125e3565b806116a3575060135443906011600061165a60408a0160208b016125e3565b6001600160a01b03166001600160a01b03168152602001908152602001600020600101546116889190612cac565b1080156116a357506116a36115fb60408701602088016125e3565b156118fc576116d97fee11097cbb9c334ec21a7934061732a460df1edb6b52f0b9464feea55dd71bff61056d60208801886125e3565b8061171357506117137fee11097cbb9c334ec21a7934061732a460df1edb6b52f0b9464feea55dd71bff61056d60408801602089016125e3565b156117b35760006006816117517fee11097cbb9c334ec21a7934061732a460df1edb6b52f0b9464feea55dd71bff61056d60408b0160208c016125e3565b6117675761176260208901896125e3565b611777565b6117776040890160208a016125e3565b6001600160a01b031681526020810191909152604001600020549050620f42406117a18285612ce4565b6117ab9190612cc4565b9150506118f7565b60006005816117c560208901896125e3565b6001600160a01b0390811682526020820192909252604001600020541614801561181e575060006005816117ff6040890160208a016125e3565b6001600160a01b03908116825260208201929092526040016000205416145b1561184657620f4240600a54836118359190612ce4565b61183f9190612cc4565b90506118f7565b620f4240600c54836118589190612ce4565b6118629190612cc4565b905081600360008060058161187d60408c0160208d016125e3565b6001600160a01b0390811682526020820192909252604001600020541614156118b2576118ad60208901896125e3565b6118c2565b6118c26040890160208a016125e3565b6001600160a01b03166001600160a01b0316815260200190815260200160002060008282546118f19190612cac565b90915550505b61199c565b620f4240600b548361190e9190612ce4565b6119189190612cc4565b90506000620f4240600b5487604001356119329190612ce4565b61193c9190612cc4565b90507fa1a76b56d422be0a4c14ccc1281231aa006e67b6e03dcc433a873dc285491e5161196c60208801886125e3565b61197c6040890160208a016125e3565b8860400135846040516119929493929190612940565b60405180910390a1505b60006119a88284612d03565b90506119b8836060880135612d03565b85526119c8816080880135612cac565b6020860152600780548391906000906119e2908490612cac565b9091555050600254670de0b6b3a7640000906119fe9084612ce4565b611a089190612cc4565b6040808701829052611a1d9190880135612d03565b60608601524360116000611a3760408a0160208b016125e3565b6001600160a01b031681526020808201929092526040016000908120929092554391601191611a68908a018a6125e3565b6001600160a01b03168152602081019190915260400160002060010155611a8d611eee565b50505050919050565b60606000611aa68161069a611e1f565b600084848080602002602001604051908101604052809392919081815260200183836020028082843760009201829052509394505050505b848110156114dd5760036000878784818110611b0a57634e487b7160e01b600052603260045260246000fd5b9050602002016020810190611b1f91906125e3565b6001600160a01b03168152602081019190915260400160002054611b80576000828281518110611b5f57634e487b7160e01b600052603260045260246000fd5b60200260200101906001600160a01b031690816001600160a01b0316815250505b80611b8a81612d5d565b915050611ade565b60125481565b600080611ba78161069a611e1f565b5050600f5490565b600a5481565b6000828152600160205260408120611bcd9083612022565b90505b92915050565b6000918252602082815260408084206001600160a01b0393909316845291905290205460ff1690565b600c5481565b7fd27488087fca693adcf8b477ec0ca6cf5134d7f124fdc511eb258522c40fd72b81565b600080611c388161069a611e1f565b611c428484612d03565b92508360076000828254611c569190612cac565b90915550610a959050611eee565b60135481565b600e5481565b600080611c7f8161069a611e1f565b600f54601054611c8f9190612cac565b91505090565b60008181526001602052604081206109569061202e565b600080611cbb8161069a611e1f565b600254611010670de0b6b3a764000085612ce4565b600081565b60066020526000908152604090205481565b610b3e8282612039565b7fbd68ab95cda3c90ac0bffc2b3a3a97a564372fc3ca4a8e4575d3ce58179b756381565b6005602052600090815260409020546001600160a01b031681565b6000611d3e8161069a611e1f565b506001600160a01b0316600090815260046020526040812055565b6000611d678161069a611e1f565b50601291909155601355565b611d7b611f69565b565b60046020526000908152604090205481565b60105481565b6000611da38161069a611e1f565b50600955565b6000611db78161069a611e1f565b6001600160a01b0383166000908152600660205260409020829055610ac17fee11097cbb9c334ec21a7934061732a460df1edb6b52f0b9464feea55dd71bff84611ec5565b611e068282612058565b5050565b6000611bcd836001600160a01b0384166120dd565b3390565b611e2d8282611bd6565b611e0657611e45816001600160a01b03166014612127565b611e50836020612127565b604051602001611e6192919061286e565b60408051601f198184030181529082905262461bcd60e51b8252610f1891600401612a3b565b60006001600160e01b031982167f7965db0b00000000000000000000000000000000000000000000000000000000148061095657506109568261231e565b610aa98282611dfc565b611ed882610a1d565b611ee48161069a611e1f565b610ac18383612058565b600954600854611efe9190612cac565b421115611d7b57611d7b611f69565b611f15611e1f565b6001600160a01b0316816001600160a01b031614611f455760405162461bcd60e51b8152600401610f1890612c24565b611e068282612350565b6000611bcd836001600160a01b0384166123d3565b3b1590565b4260085560075460108054600090611f82908490612d03565b9091555050600754611f9690600290612cc4565b600f6000828254611fa79190612cac565b90915550506000600755601054600f54611fc990670de0b6b3a7640000612ce4565b611fd39190612cc4565b611fe590670de0b6b3a7640000612cac565b60028190556040517f4dbe4840d7465bd162f67814cea0b519567a2e0e578bcde61e7f4ced361e5a3d9161201891612a32565b60405180910390a1565b6000611bcd83836124f0565b600061095682612528565b61204282610a1d565b61204e8161069a611e1f565b610ac18383612350565b6120628282611bd6565b611e06576000828152602081815260408083206001600160a01b03851684529091529020805460ff19166001179055612099611e1f565b6001600160a01b0316816001600160a01b0316837f2f8788117e7eff1d82e926ec794901d17c78024a50270940304540a733656f0d60405160405180910390a45050565b60006120e9838361252c565b61211f57508154600181810184556000848152602080822090930184905584548482528286019093526040902091909155611bd0565b506000611bd0565b60606000612136836002612ce4565b612141906002612cac565b67ffffffffffffffff81111561216757634e487b7160e01b600052604160045260246000fd5b6040519080825280601f01601f191660200182016040528015612191576020820181803683370190505b5090507f3000000000000000000000000000000000000000000000000000000000000000816000815181106121d657634e487b7160e01b600052603260045260246000fd5b60200101906001600160f81b031916908160001a9053507f78000000000000000000000000000000000000000000000000000000000000008160018151811061222f57634e487b7160e01b600052603260045260246000fd5b60200101906001600160f81b031916908160001a9053506000612253846002612ce4565b61225e906001612cac565b90505b60018111156122ff577f303132333435363738396162636465660000000000000000000000000000000085600f16601081106122ad57634e487b7160e01b600052603260045260246000fd5b1a60f81b8282815181106122d157634e487b7160e01b600052603260045260246000fd5b60200101906001600160f81b031916908160001a90535060049490941c936122f881612d46565b9050612261565b508315611bcd5760405162461bcd60e51b8152600401610f1890612a6e565b6001600160e01b031981167f01ffc9a70000000000000000000000000000000000000000000000000000000014919050565b61235a8282611bd6565b15611e06576000828152602081815260408083206001600160a01b03851684529091529020805460ff1916905561238f611e1f565b6001600160a01b0316816001600160a01b0316837ff6391f5c32d9c69d2a47ea670b442974b53935d1edc7fd64eb21e047a839171b60405160405180910390a45050565b600081815260018301602052604081205480156124e65760006123f7600183612d03565b855490915060009061240b90600190612d03565b905081811461248c57600086600001828154811061243957634e487b7160e01b600052603260045260246000fd5b906000526020600020015490508087600001848154811061246a57634e487b7160e01b600052603260045260246000fd5b6000918252602080832090910192909255918252600188019052604090208390555b85548690806124ab57634e487b7160e01b600052603160045260246000fd5b600190038181906000526020600020016000905590558560010160008681526020019081526020016000206000905560019350505050611bd0565b6000915050611bd0565b600082600001828154811061251557634e487b7160e01b600052603260045260246000fd5b9060005260206000200154905092915050565b5490565b60009081526001919091016020526040902054151590565b604080518082019091526000808252602082015290565b6040518060800160405280600081526020016000815260200160008152602001600081525090565b80356001600160a01b038116811461095957600080fd5b60008083601f8401126125ab578182fd5b50813567ffffffffffffffff8111156125c2578182fd5b60208301915083602080830285010111156125dc57600080fd5b9250929050565b6000602082840312156125f4578081fd5b611bcd82612583565b6000806040838503121561260f578081fd5b61261883612583565b915061262660208401612583565b90509250929050565b600080600060408486031215612643578081fd5b61264c84612583565b9250602084013567ffffffffffffffff811115612667578182fd5b6126738682870161259a565b9497909650939450505050565b60008060408385031215612692578182fd5b61269b83612583565b946020939093013593505050565b600080602083850312156126bb578182fd5b823567ffffffffffffffff8111156126d1578283fd5b6126dd8582860161259a565b90969095509350505050565b600080602083850312156126fb578182fd5b823567ffffffffffffffff80821115612712578384fd5b818501915085601f830112612725578384fd5b813581811115612733578485fd5b866020604083028501011115612747578485fd5b60209290920196919550909350505050565b60008060006060848603121561276d578283fd5b8335801515811461277c578384fd5b925061278a60208501612583565b9150604084013590509250925092565b6000602082840312156127ab578081fd5b5035919050565b600080604083850312156127c4578182fd5b8235915061262660208401612583565b600080604083850312156127e6578182fd5b50508035926020909101359150565b600060208284031215612806578081fd5b81356001600160e01b031981168114611bcd578182fd5b600060a0828403121561282e578081fd5b50919050565b600080600080600060a0868803121561284b578081fd5b505083359560208501359550604085013594606081013594506080013592509050565b60007f416363657373436f6e74726f6c3a206163636f756e7420000000000000000000825283516128a6816017850160208801612d1a565b7f206973206d697373696e6720726f6c652000000000000000000000000000000060179184019182015283516128e3816028840160208801612d1a565b01602801949350505050565b6001600160a01b0391909116815260200190565b6001600160a01b0392831681529116602082015260400190565b6001600160a01b0393841681529183166020830152909116604082015260600190565b6001600160a01b0394851681529290931660208301526040820152606081019190915260800190565b6001600160a01b03929092168252602082015260400190565b6020808252825182820181905260009190848201906040850190845b818110156129c35783516001600160a01b03168352928401929184019160010161299e565b50909695505050505050565b602080825282518282018190526000919060409081850190868401855b82811015612a1a57815180516001600160a01b031685528601518685015292840192908501906001016129ec565b5091979650505050505050565b901515815260200190565b90815260200190565b6000602082528251806020840152612a5a816040850160208701612d1a565b601f01601f19169190910160400192915050565b6020808252818101527f537472696e67733a20686578206c656e67746820696e73756666696369656e74604082015260600190565b6020808252600a908201527f4e42543a2021775f637400000000000000000000000000000000000000000000604082015260600190565b6020808252600c908201527f4e42543a2021616d6f756e740000000000000000000000000000000000000000604082015260600190565b6020808252600e908201527f4e42543a2021636f6e7472616374000000000000000000000000000000000000604082015260600190565b6020808252600e908201527f4e42543a202173656c665f726566000000000000000000000000000000000000604082015260600190565b6020808252600b908201527f4e42543a202168756d616e000000000000000000000000000000000000000000604082015260600190565b6020808252600a908201527f4e42543a20216275726e00000000000000000000000000000000000000000000604082015260600190565b60208082526010908201527f4e42543a20216d757475616c5f72656600000000000000000000000000000000604082015260600190565b6020808252602f908201527f416363657373436f6e74726f6c3a2063616e206f6e6c792072656e6f756e636560408201527f20726f6c657320666f722073656c660000000000000000000000000000000000606082015260800190565b8151815260208083015190820152604080830151908201526060918201519181019190915260800190565b60008219821115612cbf57612cbf612d78565b500190565b600082612cdf57634e487b7160e01b81526012600452602481fd5b500490565b6000816000190483118215151615612cfe57612cfe612d78565b500290565b600082821015612d1557612d15612d78565b500390565b60005b83811015612d35578181015183820152602001612d1d565b838111156109f35750506000910152565b600081612d5557612d55612d78565b506000190190565b6000600019821415612d7157612d71612d78565b5060010190565b634e487b7160e01b600052601160045260246000fdfea264697066735822122006b020bba4f34ebe146ac6fcbaca38294f1ff97167ed925a9769939a7745defc64736f6c63430008010033",
			"opcodes": "PUSH1 0x80 PUSH1 0x40 MSTORE PUSH8 0xDE0B6B3A7640000 PUSH1 0x2 SSTORE TIMESTAMP PUSH1 0x8 SSTORE PUSH1 0x3C PUSH1 0x9 SSTORE PUSH3 0x186A0 PUSH1 0xA SSTORE PUSH3 0xF1B30 PUSH1 0xB SSTORE PUSH2 0xC350 PUSH1 0xC SSTORE PUSH2 0x2710 PUSH1 0xD SSTORE PUSH2 0x9C4 PUSH1 0xE SSTORE PUSH1 0x0 PUSH1 0x12 SSTORE PUSH1 0x0 PUSH1 0x13 SSTORE CALLVALUE DUP1 ISZERO PUSH3 0x50 JUMPI PUSH1 0x0 DUP1 REVERT JUMPDEST POP PUSH3 0x67 PUSH1 0x0 PUSH3 0x61 PUSH3 0xA8 JUMP JUMPDEST PUSH3 0xAC JUMP JUMPDEST PUSH32 0x4DBE4840D7465BD162F67814CEA0B519567A2E0E578BCDE61E7F4CED361E5A3D PUSH1 0x2 SLOAD PUSH1 0x40 MLOAD PUSH3 0x9A SWAP2 SWAP1 PUSH3 0x239 JUMP JUMPDEST PUSH1 0x40 MLOAD DUP1 SWAP2 SUB SWAP1 LOG1 PUSH3 0x242 JUMP JUMPDEST CALLER SWAP1 JUMP JUMPDEST PUSH3 0xC3 DUP3 DUP3 PUSH3 0xEF PUSH1 0x20 SHL PUSH3 0x1DFC OR PUSH1 0x20 SHR JUMP JUMPDEST PUSH1 0x0 DUP3 DUP2 MSTORE PUSH1 0x1 PUSH1 0x20 SWAP1 DUP2 MSTORE PUSH1 0x40 SWAP1 SWAP2 KECCAK256 PUSH3 0xEA SWAP2 DUP4 SWAP1 PUSH3 0x1E0A PUSH3 0xFF DUP3 SHL OR SWAP1 SHR JUMP JUMPDEST POP POP POP JUMP JUMPDEST PUSH3 0xFB DUP3 DUP3 PUSH3 0x11F JUMP JUMPDEST POP POP JUMP JUMPDEST PUSH1 0x0 PUSH3 0x116 DUP4 PUSH1 0x1 PUSH1 0x1 PUSH1 0xA0 SHL SUB DUP5 AND PUSH3 0x1A9 JUMP JUMPDEST SWAP1 POP JUMPDEST SWAP3 SWAP2 POP POP JUMP JUMPDEST PUSH3 0x12B DUP3 DUP3 PUSH3 0x1F8 JUMP JUMPDEST PUSH3 0xFB JUMPI PUSH1 0x0 DUP3 DUP2 MSTORE PUSH1 0x20 DUP2 DUP2 MSTORE PUSH1 0x40 DUP1 DUP4 KECCAK256 PUSH1 0x1 PUSH1 0x1 PUSH1 0xA0 SHL SUB DUP6 AND DUP5 MSTORE SWAP1 SWAP2 MSTORE SWAP1 KECCAK256 DUP1 SLOAD PUSH1 0xFF NOT AND PUSH1 0x1 OR SWAP1 SSTORE PUSH3 0x165 PUSH3 0xA8 JUMP JUMPDEST PUSH1 0x1 PUSH1 0x1 PUSH1 0xA0 SHL SUB AND DUP2 PUSH1 0x1 PUSH1 0x1 PUSH1 0xA0 SHL SUB AND DUP4 PUSH32 0x2F8788117E7EFF1D82E926EC794901D17C78024A50270940304540A733656F0D PUSH1 0x40 MLOAD PUSH1 0x40 MLOAD DUP1 SWAP2 SUB SWAP1 LOG4 POP POP JUMP JUMPDEST PUSH1 0x0 PUSH3 0x1B7 DUP4 DUP4 PUSH3 0x221 JUMP JUMPDEST PUSH3 0x1EF JUMPI POP DUP2 SLOAD PUSH1 0x1 DUP2 DUP2 ADD DUP5 SSTORE PUSH1 0x0 DUP5 DUP2 MSTORE PUSH1 0x20 DUP1 DUP3 KECCAK256 SWAP1 SWAP4 ADD DUP5 SWAP1 SSTORE DUP5 SLOAD DUP5 DUP3 MSTORE DUP3 DUP7 ADD SWAP1 SWAP4 MSTORE PUSH1 0x40 SWAP1 KECCAK256 SWAP2 SWAP1 SWAP2 SSTORE PUSH3 0x119 JUMP JUMPDEST POP PUSH1 0x0 PUSH3 0x119 JUMP JUMPDEST PUSH1 0x0 SWAP2 DUP3 MSTORE PUSH1 0x20 DUP3 DUP2 MSTORE PUSH1 0x40 DUP1 DUP5 KECCAK256 PUSH1 0x1 PUSH1 0x1 PUSH1 0xA0 SHL SUB SWAP4 SWAP1 SWAP4 AND DUP5 MSTORE SWAP2 SWAP1 MSTORE SWAP1 KECCAK256 SLOAD PUSH1 0xFF AND SWAP1 JUMP JUMPDEST PUSH1 0x0 SWAP1 DUP2 MSTORE PUSH1 0x1 SWAP2 SWAP1 SWAP2 ADD PUSH1 0x20 MSTORE PUSH1 0x40 SWAP1 KECCAK256 SLOAD ISZERO ISZERO SWAP1 JUMP JUMPDEST SWAP1 DUP2 MSTORE PUSH1 0x20 ADD SWAP1 JUMP JUMPDEST PUSH2 0x2DC4 DUP1 PUSH3 0x252 PUSH1 0x0 CODECOPY PUSH1 0x0 RETURN INVALID PUSH1 0x80 PUSH1 0x40 MSTORE CALLVALUE DUP1 ISZERO PUSH2 0x10 JUMPI PUSH1 0x0 DUP1 REVERT JUMPDEST POP PUSH1 0x4 CALLDATASIZE LT PUSH2 0x340 JUMPI PUSH1 0x0 CALLDATALOAD PUSH1 0xE0 SHR DUP1 PUSH4 0x82E17B65 GT PUSH2 0x1BD JUMPI DUP1 PUSH4 0xCB123637 GT PUSH2 0xF9 JUMPI DUP1 PUSH4 0xE3556819 GT PUSH2 0xA2 JUMPI DUP1 PUSH4 0xE91C4652 GT PUSH2 0x7C JUMPI DUP1 PUSH4 0xE91C4652 EQ PUSH2 0x64A JUMPI DUP1 PUSH4 0xEF356A79 EQ PUSH2 0x65D JUMPI DUP1 PUSH4 0xEF357DF1 EQ PUSH2 0x665 JUMPI DUP1 PUSH4 0xFC087572 EQ PUSH2 0x678 JUMPI PUSH2 0x340 JUMP JUMPDEST DUP1 PUSH4 0xE3556819 EQ PUSH2 0x61C JUMPI DUP1 PUSH4 0xE69594E3 EQ PUSH2 0x62F JUMPI DUP1 PUSH4 0xE8AC6E4E EQ PUSH2 0x642 JUMPI PUSH2 0x340 JUMP JUMPDEST DUP1 PUSH4 0xD547741F GT PUSH2 0xD3 JUMPI DUP1 PUSH4 0xD547741F EQ PUSH2 0x5EE JUMPI DUP1 PUSH4 0xD590B71E EQ PUSH2 0x601 JUMPI DUP1 PUSH4 0xDEAF0FA1 EQ PUSH2 0x609 JUMPI PUSH2 0x340 JUMP JUMPDEST DUP1 PUSH4 0xCB123637 EQ PUSH2 0x5C0 JUMPI DUP1 PUSH4 0xD391014B EQ PUSH2 0x5D3 JUMPI DUP1 PUSH4 0xD415A82D EQ PUSH2 0x5DB JUMPI PUSH2 0x340 JUMP JUMPDEST DUP1 PUSH4 0x975EA108 GT PUSH2 0x166 JUMPI DUP1 PUSH4 0xAA46D678 GT PUSH2 0x140 JUMPI DUP1 PUSH4 0xAA46D678 EQ PUSH2 0x595 JUMPI DUP1 PUSH4 0xB3830C8C EQ PUSH2 0x59D JUMPI DUP1 PUSH4 0xC4E41B22 EQ PUSH2 0x5A5 JUMPI DUP1 PUSH4 0xCA15C873 EQ PUSH2 0x5AD JUMPI PUSH2 0x340 JUMP JUMPDEST DUP1 PUSH4 0x975EA108 EQ PUSH2 0x572 JUMPI DUP1 PUSH4 0x9E01E31C EQ PUSH2 0x57A JUMPI DUP1 PUSH4 0xA202BD52 EQ PUSH2 0x582 JUMPI PUSH2 0x340 JUMP JUMPDEST DUP1 PUSH4 0x87D1F05D GT PUSH2 0x197 JUMPI DUP1 PUSH4 0x87D1F05D EQ PUSH2 0x537 JUMPI DUP1 PUSH4 0x9010D07C EQ PUSH2 0x53F JUMPI DUP1 PUSH4 0x91D14854 EQ PUSH2 0x55F JUMPI PUSH2 0x340 JUMP JUMPDEST DUP1 PUSH4 0x82E17B65 EQ PUSH2 0x507 JUMPI DUP1 PUSH4 0x837376AF EQ PUSH2 0x527 JUMPI DUP1 PUSH4 0x858A135D EQ PUSH2 0x52F JUMPI PUSH2 0x340 JUMP JUMPDEST DUP1 PUSH4 0x36568ABE GT PUSH2 0x28C JUMPI DUP1 PUSH4 0x503A77AE GT PUSH2 0x235 JUMPI DUP1 PUSH4 0x68A2972F GT PUSH2 0x20F JUMPI DUP1 PUSH4 0x68A2972F EQ PUSH2 0x4AC JUMPI DUP1 PUSH4 0x6BC833F3 EQ PUSH2 0x4CC JUMPI DUP1 PUSH4 0x7B197233 EQ PUSH2 0x4DF JUMPI DUP1 PUSH4 0x815A61E0 EQ PUSH2 0x4E7 JUMPI PUSH2 0x340 JUMP JUMPDEST DUP1 PUSH4 0x503A77AE EQ PUSH2 0x47E JUMPI DUP1 PUSH4 0x5603B9F9 EQ PUSH2 0x486 JUMPI DUP1 PUSH4 0x5CDBA003 EQ PUSH2 0x499 JUMPI PUSH2 0x340 JUMP JUMPDEST DUP1 PUSH4 0x40142E55 GT PUSH2 0x266 JUMPI DUP1 PUSH4 0x40142E55 EQ PUSH2 0x450 JUMPI DUP1 PUSH4 0x42E58A63 EQ PUSH2 0x458 JUMPI DUP1 PUSH4 0x4ABD991D EQ PUSH2 0x46B JUMPI PUSH2 0x340 JUMP JUMPDEST DUP1 PUSH4 0x36568ABE EQ PUSH2 0x422 JUMPI DUP1 PUSH4 0x3830551A EQ PUSH2 0x435 JUMPI DUP1 PUSH4 0x3E6E4496 EQ PUSH2 0x448 JUMPI PUSH2 0x340 JUMP JUMPDEST DUP1 PUSH4 0x1857B512 GT PUSH2 0x2EE JUMPI DUP1 PUSH4 0x2F2FF15D GT PUSH2 0x2C8 JUMPI DUP1 PUSH4 0x2F2FF15D EQ PUSH2 0x3F4 JUMPI DUP1 PUSH4 0x36098758 EQ PUSH2 0x407 JUMPI DUP1 PUSH4 0x36177818 EQ PUSH2 0x41A JUMPI PUSH2 0x340 JUMP JUMPDEST DUP1 PUSH4 0x1857B512 EQ PUSH2 0x3C6 JUMPI DUP1 PUSH4 0x248A9CA3 EQ PUSH2 0x3CE JUMPI DUP1 PUSH4 0x2B04E840 EQ PUSH2 0x3E1 JUMPI PUSH2 0x340 JUMP JUMPDEST DUP1 PUSH4 0xF3EBE5D GT PUSH2 0x31F JUMPI DUP1 PUSH4 0xF3EBE5D EQ PUSH2 0x3A3 JUMPI DUP1 PUSH4 0x131F2E53 EQ PUSH2 0x3B6 JUMPI DUP1 PUSH4 0x1336A98F EQ PUSH2 0x3BE JUMPI PUSH2 0x340 JUMP JUMPDEST DUP1 PUSH3 0x245783 EQ PUSH2 0x345 JUMPI DUP1 PUSH4 0x1FFC9A7 EQ PUSH2 0x36E JUMPI DUP1 PUSH4 0x3ED957F EQ PUSH2 0x38E JUMPI JUMPDEST PUSH1 0x0 DUP1 REVERT JUMPDEST PUSH2 0x358 PUSH2 0x353 CALLDATASIZE PUSH1 0x4 PUSH2 0x262F JUMP JUMPDEST PUSH2 0x68B JUMP JUMPDEST PUSH1 0x40 MLOAD PUSH2 0x365 SWAP2 SWAP1 PUSH2 0x2A32 JUMP JUMPDEST PUSH1 0x40 MLOAD DUP1 SWAP2 SUB SWAP1 RETURN JUMPDEST PUSH2 0x381 PUSH2 0x37C CALLDATASIZE PUSH1 0x4 PUSH2 0x27F5 JUMP JUMPDEST PUSH2 0x918 JUMP JUMPDEST PUSH1 0x40 MLOAD PUSH2 0x365 SWAP2 SWAP1 PUSH2 0x2A27 JUMP JUMPDEST PUSH2 0x3A1 PUSH2 0x39C CALLDATASIZE PUSH1 0x4 PUSH2 0x26E9 JUMP JUMPDEST PUSH2 0x95E JUMP JUMPDEST STOP JUMPDEST PUSH2 0x358 PUSH2 0x3B1 CALLDATASIZE PUSH1 0x4 PUSH2 0x25E3 JUMP JUMPDEST PUSH2 0x9F9 JUMP JUMPDEST PUSH2 0x358 PUSH2 0xA0B JUMP JUMPDEST PUSH2 0x358 PUSH2 0xA11 JUMP JUMPDEST PUSH2 0x358 PUSH2 0xA17 JUMP JUMPDEST PUSH2 0x358 PUSH2 0x3DC CALLDATASIZE PUSH1 0x4 PUSH2 0x279A JUMP JUMPDEST PUSH2 0xA1D JUMP JUMPDEST PUSH2 0x358 PUSH2 0x3EF CALLDATASIZE PUSH1 0x4 PUSH2 0x2680 JUMP JUMPDEST PUSH2 0xA32 JUMP JUMPDEST PUSH2 0x3A1 PUSH2 0x402 CALLDATASIZE PUSH1 0x4 PUSH2 0x27B2 JUMP JUMPDEST PUSH2 0xA9F JUMP JUMPDEST PUSH2 0x358 PUSH2 0x415 CALLDATASIZE PUSH1 0x4 PUSH2 0x27D4 JUMP JUMPDEST PUSH2 0xAC6 JUMP JUMPDEST PUSH2 0x358 PUSH2 0xB2E JUMP JUMPDEST PUSH2 0x3A1 PUSH2 0x430 CALLDATASIZE PUSH1 0x4 PUSH2 0x27B2 JUMP JUMPDEST PUSH2 0xB34 JUMP JUMPDEST PUSH2 0x3A1 PUSH2 0x443 CALLDATASIZE PUSH1 0x4 PUSH2 0x26A9 JUMP JUMPDEST PUSH2 0xB56 JUMP JUMPDEST PUSH2 0x358 PUSH2 0xEA8 JUMP JUMPDEST PUSH2 0x358 PUSH2 0xEAE JUMP JUMPDEST PUSH2 0x358 PUSH2 0x466 CALLDATASIZE PUSH1 0x4 PUSH2 0x2759 JUMP JUMPDEST PUSH2 0xEB4 JUMP JUMPDEST PUSH2 0x358 PUSH2 0x479 CALLDATASIZE PUSH1 0x4 PUSH2 0x25E3 JUMP JUMPDEST PUSH2 0xFD2 JUMP JUMPDEST PUSH2 0x358 PUSH2 0x1021 JUMP JUMPDEST PUSH2 0x3A1 PUSH2 0x494 CALLDATASIZE PUSH1 0x4 PUSH2 0x25FD JUMP JUMPDEST PUSH2 0x1045 JUMP JUMPDEST PUSH2 0x358 PUSH2 0x4A7 CALLDATASIZE PUSH1 0x4 PUSH2 0x2680 JUMP JUMPDEST PUSH2 0x1322 JUMP JUMPDEST PUSH2 0x4BF PUSH2 0x4BA CALLDATASIZE PUSH1 0x4 PUSH2 0x26A9 JUMP JUMPDEST PUSH2 0x1374 JUMP JUMPDEST PUSH1 0x40 MLOAD PUSH2 0x365 SWAP2 SWAP1 PUSH2 0x29CF JUMP JUMPDEST PUSH2 0x3A1 PUSH2 0x4DA CALLDATASIZE PUSH1 0x4 PUSH2 0x2834 JUMP JUMPDEST PUSH2 0x14E6 JUMP JUMPDEST PUSH2 0x358 PUSH2 0x150C JUMP JUMPDEST PUSH2 0x4FA PUSH2 0x4F5 CALLDATASIZE PUSH1 0x4 PUSH2 0x281D JUMP JUMPDEST PUSH2 0x1512 JUMP JUMPDEST PUSH1 0x40 MLOAD PUSH2 0x365 SWAP2 SWAP1 PUSH2 0x2C81 JUMP JUMPDEST PUSH2 0x51A PUSH2 0x515 CALLDATASIZE PUSH1 0x4 PUSH2 0x26A9 JUMP JUMPDEST PUSH2 0x1A96 JUMP JUMPDEST PUSH1 0x40 MLOAD PUSH2 0x365 SWAP2 SWAP1 PUSH2 0x2982 JUMP JUMPDEST PUSH2 0x358 PUSH2 0x1B92 JUMP JUMPDEST PUSH2 0x358 PUSH2 0x1B98 JUMP JUMPDEST PUSH2 0x358 PUSH2 0x1BAF JUMP JUMPDEST PUSH2 0x552 PUSH2 0x54D CALLDATASIZE PUSH1 0x4 PUSH2 0x27D4 JUMP JUMPDEST PUSH2 0x1BB5 JUMP JUMPDEST PUSH1 0x40 MLOAD PUSH2 0x365 SWAP2 SWAP1 PUSH2 0x28EF JUMP JUMPDEST PUSH2 0x381 PUSH2 0x56D CALLDATASIZE PUSH1 0x4 PUSH2 0x27B2 JUMP JUMPDEST PUSH2 0x1BD6 JUMP JUMPDEST PUSH2 0x358 PUSH2 0x1BFF JUMP JUMPDEST PUSH2 0x358 PUSH2 0x1C05 JUMP JUMPDEST PUSH2 0x358 PUSH2 0x590 CALLDATASIZE PUSH1 0x4 PUSH2 0x27D4 JUMP JUMPDEST PUSH2 0x1C29 JUMP JUMPDEST PUSH2 0x358 PUSH2 0x1C64 JUMP JUMPDEST PUSH2 0x358 PUSH2 0x1C6A JUMP JUMPDEST PUSH2 0x358 PUSH2 0x1C70 JUMP JUMPDEST PUSH2 0x358 PUSH2 0x5BB CALLDATASIZE PUSH1 0x4 PUSH2 0x279A JUMP JUMPDEST PUSH2 0x1C95 JUMP JUMPDEST PUSH2 0x358 PUSH2 0x5CE CALLDATASIZE PUSH1 0x4 PUSH2 0x279A JUMP JUMPDEST PUSH2 0x1CAC JUMP JUMPDEST PUSH2 0x358 PUSH2 0x1CD0 JUMP JUMPDEST PUSH2 0x358 PUSH2 0x5E9 CALLDATASIZE PUSH1 0x4 PUSH2 0x25E3 JUMP JUMPDEST PUSH2 0x1CD5 JUMP JUMPDEST PUSH2 0x3A1 PUSH2 0x5FC CALLDATASIZE PUSH1 0x4 PUSH2 0x27B2 JUMP JUMPDEST PUSH2 0x1CE7 JUMP JUMPDEST PUSH2 0x358 PUSH2 0x1CF1 JUMP JUMPDEST PUSH2 0x552 PUSH2 0x617 CALLDATASIZE PUSH1 0x4 PUSH2 0x25E3 JUMP JUMPDEST PUSH2 0x1D15 JUMP JUMPDEST PUSH2 0x3A1 PUSH2 0x62A CALLDATASIZE PUSH1 0x4 PUSH2 0x25E3 JUMP JUMPDEST PUSH2 0x1D30 JUMP JUMPDEST PUSH2 0x3A1 PUSH2 0x63D CALLDATASIZE PUSH1 0x4 PUSH2 0x27D4 JUMP JUMPDEST PUSH2 0x1D59 JUMP JUMPDEST PUSH2 0x3A1 PUSH2 0x1D73 JUMP JUMPDEST PUSH2 0x358 PUSH2 0x658 CALLDATASIZE PUSH1 0x4 PUSH2 0x25E3 JUMP JUMPDEST PUSH2 0x1D7D JUMP JUMPDEST PUSH2 0x358 PUSH2 0x1D8F JUMP JUMPDEST PUSH2 0x3A1 PUSH2 0x673 CALLDATASIZE PUSH1 0x4 PUSH2 0x279A JUMP JUMPDEST PUSH2 0x1D95 JUMP JUMPDEST PUSH2 0x3A1 PUSH2 0x686 CALLDATASIZE PUSH1 0x4 PUSH2 0x2680 JUMP JUMPDEST PUSH2 0x1DA9 JUMP JUMPDEST PUSH1 0x0 DUP1 PUSH2 0x69F DUP2 PUSH2 0x69A PUSH2 0x1E1F JUMP JUMPDEST PUSH2 0x1E23 JUMP JUMPDEST PUSH1 0x1 PUSH1 0x1 PUSH1 0xA0 SHL SUB DUP6 AND PUSH1 0x0 SWAP1 DUP2 MSTORE PUSH1 0x4 PUSH1 0x20 MSTORE PUSH1 0x40 DUP2 KECCAK256 SLOAD SWAP1 DUP1 JUMPDEST DUP6 DUP2 LT ISZERO PUSH2 0x8EB JUMPI PUSH1 0x3 PUSH1 0x0 DUP9 DUP9 DUP5 DUP2 DUP2 LT PUSH2 0x6E7 JUMPI PUSH4 0x4E487B71 PUSH1 0xE0 SHL PUSH1 0x0 MSTORE PUSH1 0x32 PUSH1 0x4 MSTORE PUSH1 0x24 PUSH1 0x0 REVERT JUMPDEST SWAP1 POP PUSH1 0x20 MUL ADD PUSH1 0x20 DUP2 ADD SWAP1 PUSH2 0x6FC SWAP2 SWAP1 PUSH2 0x25E3 JUMP JUMPDEST PUSH1 0x1 PUSH1 0x1 PUSH1 0xA0 SHL SUB AND DUP2 MSTORE PUSH1 0x20 DUP2 ADD SWAP2 SWAP1 SWAP2 MSTORE PUSH1 0x40 ADD PUSH1 0x0 KECCAK256 SLOAD PUSH2 0x71F JUMPI PUSH2 0x8D9 JUMP JUMPDEST PUSH1 0x5 PUSH1 0x0 DUP9 DUP9 DUP5 DUP2 DUP2 LT PUSH2 0x743 JUMPI PUSH4 0x4E487B71 PUSH1 0xE0 SHL PUSH1 0x0 MSTORE PUSH1 0x32 PUSH1 0x4 MSTORE PUSH1 0x24 PUSH1 0x0 REVERT JUMPDEST SWAP1 POP PUSH1 0x20 MUL ADD PUSH1 0x20 DUP2 ADD SWAP1 PUSH2 0x758 SWAP2 SWAP1 PUSH2 0x25E3 JUMP JUMPDEST PUSH1 0x1 PUSH1 0x1 PUSH1 0xA0 SHL SUB SWAP1 DUP2 AND DUP3 MSTORE PUSH1 0x20 DUP3 ADD SWAP3 SWAP1 SWAP3 MSTORE PUSH1 0x40 ADD PUSH1 0x0 KECCAK256 SLOAD AND SWAP2 POP DUP2 ISZERO PUSH2 0x8D9 JUMPI DUP8 PUSH1 0x1 PUSH1 0x1 PUSH1 0xA0 SHL SUB AND DUP3 PUSH1 0x1 PUSH1 0x1 PUSH1 0xA0 SHL SUB AND EQ ISZERO PUSH2 0x819 JUMPI PUSH3 0xF4240 PUSH1 0xD SLOAD PUSH1 0x3 PUSH1 0x0 DUP11 DUP11 DUP7 DUP2 DUP2 LT PUSH2 0x7C2 JUMPI PUSH4 0x4E487B71 PUSH1 0xE0 SHL PUSH1 0x0 MSTORE PUSH1 0x32 PUSH1 0x4 MSTORE PUSH1 0x24 PUSH1 0x0 REVERT JUMPDEST SWAP1 POP PUSH1 0x20 MUL ADD PUSH1 0x20 DUP2 ADD SWAP1 PUSH2 0x7D7 SWAP2 SWAP1 PUSH2 0x25E3 JUMP JUMPDEST PUSH1 0x1 PUSH1 0x1 PUSH1 0xA0 SHL SUB AND PUSH1 0x1 PUSH1 0x1 PUSH1 0xA0 SHL SUB AND DUP2 MSTORE PUSH1 0x20 ADD SWAP1 DUP2 MSTORE PUSH1 0x20 ADD PUSH1 0x0 KECCAK256 SLOAD PUSH2 0x802 SWAP2 SWAP1 PUSH2 0x2CE4 JUMP JUMPDEST PUSH2 0x80C SWAP2 SWAP1 PUSH2 0x2CC4 JUMP JUMPDEST PUSH2 0x816 SWAP1 DUP5 PUSH2 0x2CAC JUMP JUMPDEST SWAP3 POP JUMPDEST PUSH1 0x1 PUSH1 0x1 PUSH1 0xA0 SHL SUB SWAP2 DUP3 AND PUSH1 0x0 SWAP1 DUP2 MSTORE PUSH1 0x5 PUSH1 0x20 MSTORE PUSH1 0x40 SWAP1 KECCAK256 SLOAD SWAP1 SWAP2 AND SWAP1 DUP2 ISZERO PUSH2 0x8D9 JUMPI DUP8 PUSH1 0x1 PUSH1 0x1 PUSH1 0xA0 SHL SUB AND DUP3 PUSH1 0x1 PUSH1 0x1 PUSH1 0xA0 SHL SUB AND EQ ISZERO PUSH2 0x8D9 JUMPI PUSH3 0xF4240 PUSH1 0xE SLOAD PUSH1 0x3 PUSH1 0x0 DUP11 DUP11 DUP7 DUP2 DUP2 LT PUSH2 0x882 JUMPI PUSH4 0x4E487B71 PUSH1 0xE0 SHL PUSH1 0x0 MSTORE PUSH1 0x32 PUSH1 0x4 MSTORE PUSH1 0x24 PUSH1 0x0 REVERT JUMPDEST SWAP1 POP PUSH1 0x20 MUL ADD PUSH1 0x20 DUP2 ADD SWAP1 PUSH2 0x897 SWAP2 SWAP1 PUSH2 0x25E3 JUMP JUMPDEST PUSH1 0x1 PUSH1 0x1 PUSH1 0xA0 SHL SUB AND PUSH1 0x1 PUSH1 0x1 PUSH1 0xA0 SHL SUB AND DUP2 MSTORE PUSH1 0x20 ADD SWAP1 DUP2 MSTORE PUSH1 0x20 ADD PUSH1 0x0 KECCAK256 SLOAD PUSH2 0x8C2 SWAP2 SWAP1 PUSH2 0x2CE4 JUMP JUMPDEST PUSH2 0x8CC SWAP2 SWAP1 PUSH2 0x2CC4 JUMP JUMPDEST PUSH2 0x8D6 SWAP1 DUP5 PUSH2 0x2CAC JUMP JUMPDEST SWAP3 POP JUMPDEST DUP1 PUSH2 0x8E3 DUP2 PUSH2 0x2D5D JUMP JUMPDEST SWAP2 POP POP PUSH2 0x6BB JUMP JUMPDEST POP PUSH8 0xDE0B6B3A7640000 PUSH1 0x2 SLOAD DUP4 PUSH2 0x903 SWAP2 SWAP1 PUSH2 0x2CE4 JUMP JUMPDEST PUSH2 0x90D SWAP2 SWAP1 PUSH2 0x2CC4 JUMP JUMPDEST SWAP8 SWAP7 POP POP POP POP POP POP POP JUMP JUMPDEST PUSH1 0x0 PUSH1 0x1 PUSH1 0x1 PUSH1 0xE0 SHL SUB NOT DUP3 AND PUSH32 0x5A05180F00000000000000000000000000000000000000000000000000000000 EQ DUP1 PUSH2 0x956 JUMPI POP PUSH2 0x956 DUP3 PUSH2 0x1E87 JUMP JUMPDEST SWAP1 POP JUMPDEST SWAP2 SWAP1 POP JUMP JUMPDEST PUSH1 0x0 PUSH2 0x96C DUP2 PUSH2 0x69A PUSH2 0x1E1F JUMP JUMPDEST PUSH1 0x0 JUMPDEST DUP3 DUP2 LT ISZERO PUSH2 0x9F3 JUMPI PUSH2 0x9E1 DUP5 DUP5 DUP4 DUP2 DUP2 LT PUSH2 0x99A JUMPI PUSH4 0x4E487B71 PUSH1 0xE0 SHL PUSH1 0x0 MSTORE PUSH1 0x32 PUSH1 0x4 MSTORE PUSH1 0x24 PUSH1 0x0 REVERT JUMPDEST SWAP1 POP PUSH1 0x40 MUL ADD PUSH1 0x0 ADD CALLDATALOAD DUP6 DUP6 DUP5 DUP2 DUP2 LT PUSH2 0x9C4 JUMPI PUSH4 0x4E487B71 PUSH1 0xE0 SHL PUSH1 0x0 MSTORE PUSH1 0x32 PUSH1 0x4 MSTORE PUSH1 0x24 PUSH1 0x0 REVERT JUMPDEST SWAP1 POP PUSH1 0x40 MUL ADD PUSH1 0x20 ADD PUSH1 0x20 DUP2 ADD SWAP1 PUSH2 0x9DC SWAP2 SWAP1 PUSH2 0x25E3 JUMP JUMPDEST PUSH2 0x1EC5 JUMP JUMPDEST DUP1 PUSH2 0x9EB DUP2 PUSH2 0x2D5D JUMP JUMPDEST SWAP2 POP POP PUSH2 0x96F JUMP JUMPDEST POP POP POP POP JUMP JUMPDEST PUSH1 0x3 PUSH1 0x20 MSTORE PUSH1 0x0 SWAP1 DUP2 MSTORE PUSH1 0x40 SWAP1 KECCAK256 SLOAD DUP2 JUMP JUMPDEST PUSH1 0xF SLOAD DUP2 JUMP JUMPDEST PUSH1 0x7 SLOAD DUP2 JUMP JUMPDEST PUSH1 0xB SLOAD DUP2 JUMP JUMPDEST PUSH1 0x0 SWAP1 DUP2 MSTORE PUSH1 0x20 DUP2 SWAP1 MSTORE PUSH1 0x40 SWAP1 KECCAK256 PUSH1 0x1 ADD SLOAD SWAP1 JUMP JUMPDEST PUSH1 0x0 DUP1 PUSH2 0xA41 DUP2 PUSH2 0x69A PUSH2 0x1E1F JUMP JUMPDEST PUSH2 0xA6B PUSH32 0xBD68AB95CDA3C90AC0BFFC2B3A3A97A564372FC3CA4A8E4575D3CE58179B7563 DUP6 PUSH2 0x1BD6 JUMP JUMPDEST PUSH2 0xA95 JUMPI PUSH8 0xDE0B6B3A7640000 PUSH1 0x2 SLOAD DUP5 PUSH2 0xA86 SWAP2 SWAP1 PUSH2 0x2CE4 JUMP JUMPDEST PUSH2 0xA90 SWAP2 SWAP1 PUSH2 0x2CC4 JUMP JUMPDEST PUSH2 0xA97 JUMP JUMPDEST DUP3 JUMPDEST SWAP5 SWAP4 POP POP POP POP JUMP JUMPDEST PUSH2 0xAA9 DUP3 DUP3 PUSH2 0x1ECF JUMP JUMPDEST PUSH1 0x0 DUP3 DUP2 MSTORE PUSH1 0x1 PUSH1 0x20 MSTORE PUSH1 0x40 SWAP1 KECCAK256 PUSH2 0xAC1 SWAP1 DUP3 PUSH2 0x1E0A JUMP JUMPDEST POP POP POP JUMP JUMPDEST PUSH1 0x0 DUP1 PUSH2 0xAD5 DUP2 PUSH2 0x69A PUSH2 0x1E1F JUMP JUMPDEST PUSH1 0x2 SLOAD PUSH1 0x0 SWAP1 PUSH2 0xAED PUSH8 0xDE0B6B3A7640000 DUP8 PUSH2 0x2CE4 JUMP JUMPDEST PUSH2 0xAF7 SWAP2 SWAP1 PUSH2 0x2CC4 JUMP JUMPDEST SWAP1 POP PUSH2 0xB03 DUP2 DUP6 PUSH2 0x2D03 JUMP JUMPDEST SWAP4 POP DUP1 PUSH1 0x7 PUSH1 0x0 DUP3 DUP3 SLOAD PUSH2 0xB17 SWAP2 SWAP1 PUSH2 0x2CAC JUMP JUMPDEST SWAP1 SWAP2 SSTORE POP PUSH2 0xB25 SWAP1 POP PUSH2 0x1EEE JUMP JUMPDEST POP SWAP2 SWAP4 SWAP3 POP POP POP JUMP JUMPDEST PUSH1 0x2 SLOAD DUP2 JUMP JUMPDEST PUSH2 0xB3E DUP3 DUP3 PUSH2 0x1F0D JUMP JUMPDEST PUSH1 0x0 DUP3 DUP2 MSTORE PUSH1 0x1 PUSH1 0x20 MSTORE PUSH1 0x40 SWAP1 KECCAK256 PUSH2 0xAC1 SWAP1 DUP3 PUSH2 0x1F4F JUMP JUMPDEST PUSH1 0x0 PUSH2 0xB64 DUP2 PUSH2 0x69A PUSH2 0x1E1F JUMP JUMPDEST PUSH1 0x0 DUP1 JUMPDEST DUP4 DUP2 LT ISZERO PUSH2 0xEA1 JUMPI PUSH1 0x3 PUSH1 0x0 DUP7 DUP7 DUP5 DUP2 DUP2 LT PUSH2 0xB94 JUMPI PUSH4 0x4E487B71 PUSH1 0xE0 SHL PUSH1 0x0 MSTORE PUSH1 0x32 PUSH1 0x4 MSTORE PUSH1 0x24 PUSH1 0x0 REVERT JUMPDEST SWAP1 POP PUSH1 0x20 MUL ADD PUSH1 0x20 DUP2 ADD SWAP1 PUSH2 0xBA9 SWAP2 SWAP1 PUSH2 0x25E3 JUMP JUMPDEST PUSH1 0x1 PUSH1 0x1 PUSH1 0xA0 SHL SUB AND DUP2 MSTORE PUSH1 0x20 DUP2 ADD SWAP2 SWAP1 SWAP2 MSTORE PUSH1 0x40 ADD PUSH1 0x0 KECCAK256 SLOAD PUSH2 0xBCC JUMPI PUSH2 0xE8F JUMP JUMPDEST PUSH1 0x5 PUSH1 0x0 DUP7 DUP7 DUP5 DUP2 DUP2 LT PUSH2 0xBF0 JUMPI PUSH4 0x4E487B71 PUSH1 0xE0 SHL PUSH1 0x0 MSTORE PUSH1 0x32 PUSH1 0x4 MSTORE PUSH1 0x24 PUSH1 0x0 REVERT JUMPDEST SWAP1 POP PUSH1 0x20 MUL ADD PUSH1 0x20 DUP2 ADD SWAP1 PUSH2 0xC05 SWAP2 SWAP1 PUSH2 0x25E3 JUMP JUMPDEST PUSH1 0x1 PUSH1 0x1 PUSH1 0xA0 SHL SUB SWAP1 DUP2 AND DUP3 MSTORE PUSH1 0x20 DUP3 ADD SWAP3 SWAP1 SWAP3 MSTORE PUSH1 0x40 ADD PUSH1 0x0 KECCAK256 SLOAD AND SWAP2 POP DUP2 ISZERO PUSH2 0xE8F JUMPI PUSH3 0xF4240 PUSH1 0xD SLOAD PUSH1 0x3 PUSH1 0x0 DUP9 DUP9 DUP7 DUP2 DUP2 LT PUSH2 0xC55 JUMPI PUSH4 0x4E487B71 PUSH1 0xE0 SHL PUSH1 0x0 MSTORE PUSH1 0x32 PUSH1 0x4 MSTORE PUSH1 0x24 PUSH1 0x0 REVERT JUMPDEST SWAP1 POP PUSH1 0x20 MUL ADD PUSH1 0x20 DUP2 ADD SWAP1 PUSH2 0xC6A SWAP2 SWAP1 PUSH2 0x25E3 JUMP JUMPDEST PUSH1 0x1 PUSH1 0x1 PUSH1 0xA0 SHL SUB AND PUSH1 0x1 PUSH1 0x1 PUSH1 0xA0 SHL SUB AND DUP2 MSTORE PUSH1 0x20 ADD SWAP1 DUP2 MSTORE PUSH1 0x20 ADD PUSH1 0x0 KECCAK256 SLOAD PUSH2 0xC95 SWAP2 SWAP1 PUSH2 0x2CE4 JUMP JUMPDEST PUSH2 0xC9F SWAP2 SWAP1 PUSH2 0x2CC4 JUMP JUMPDEST PUSH1 0x1 PUSH1 0x1 PUSH1 0xA0 SHL SUB DUP4 AND PUSH1 0x0 SWAP1 DUP2 MSTORE PUSH1 0x4 PUSH1 0x20 MSTORE PUSH1 0x40 DUP2 KECCAK256 DUP1 SLOAD SWAP1 SWAP2 SWAP1 PUSH2 0xCC7 SWAP1 DUP5 SWAP1 PUSH2 0x2CAC JUMP JUMPDEST SWAP1 SWAP2 SSTORE POP POP PUSH1 0x1 PUSH1 0x1 PUSH1 0xA0 SHL SUB DUP3 AND PUSH1 0x0 SWAP1 DUP2 MSTORE PUSH1 0x4 PUSH1 0x20 MSTORE PUSH1 0x40 SWAP1 DUP2 SWAP1 KECCAK256 SLOAD SWAP1 MLOAD PUSH32 0x7FEFF17C24ACE97134B37FF4047BE0FBA9543A1F254B3A942AD037D78FED64F7 SWAP2 PUSH2 0xD17 SWAP2 DUP6 SWAP2 SWAP1 PUSH2 0x2969 JUMP JUMPDEST PUSH1 0x40 MLOAD DUP1 SWAP2 SUB SWAP1 LOG1 PUSH1 0x1 PUSH1 0x1 PUSH1 0xA0 SHL SUB SWAP2 DUP3 AND PUSH1 0x0 SWAP1 DUP2 MSTORE PUSH1 0x5 PUSH1 0x20 MSTORE PUSH1 0x40 SWAP1 KECCAK256 SLOAD SWAP1 SWAP2 AND SWAP1 DUP2 ISZERO PUSH2 0xE39 JUMPI PUSH3 0xF4240 PUSH1 0xE SLOAD PUSH1 0x3 PUSH1 0x0 DUP9 DUP9 DUP7 DUP2 DUP2 LT PUSH2 0xD6E JUMPI PUSH4 0x4E487B71 PUSH1 0xE0 SHL PUSH1 0x0 MSTORE PUSH1 0x32 PUSH1 0x4 MSTORE PUSH1 0x24 PUSH1 0x0 REVERT JUMPDEST SWAP1 POP PUSH1 0x20 MUL ADD PUSH1 0x20 DUP2 ADD SWAP1 PUSH2 0xD83 SWAP2 SWAP1 PUSH2 0x25E3 JUMP JUMPDEST PUSH1 0x1 PUSH1 0x1 PUSH1 0xA0 SHL SUB AND PUSH1 0x1 PUSH1 0x1 PUSH1 0xA0 SHL SUB AND DUP2 MSTORE PUSH1 0x20 ADD SWAP1 DUP2 MSTORE PUSH1 0x20 ADD PUSH1 0x0 KECCAK256 SLOAD PUSH2 0xDAE SWAP2 SWAP1 PUSH2 0x2CE4 JUMP JUMPDEST PUSH2 0xDB8 SWAP2 SWAP1 PUSH2 0x2CC4 JUMP JUMPDEST PUSH1 0x1 PUSH1 0x1 PUSH1 0xA0 SHL SUB DUP4 AND PUSH1 0x0 SWAP1 DUP2 MSTORE PUSH1 0x4 PUSH1 0x20 MSTORE PUSH1 0x40 DUP2 KECCAK256 DUP1 SLOAD SWAP1 SWAP2 SWAP1 PUSH2 0xDE0 SWAP1 DUP5 SWAP1 PUSH2 0x2CAC JUMP JUMPDEST SWAP1 SWAP2 SSTORE POP POP PUSH1 0x1 PUSH1 0x1 PUSH1 0xA0 SHL SUB DUP3 AND PUSH1 0x0 SWAP1 DUP2 MSTORE PUSH1 0x4 PUSH1 0x20 MSTORE PUSH1 0x40 SWAP1 DUP2 SWAP1 KECCAK256 SLOAD SWAP1 MLOAD PUSH32 0x7FEFF17C24ACE97134B37FF4047BE0FBA9543A1F254B3A942AD037D78FED64F7 SWAP2 PUSH2 0xE30 SWAP2 DUP6 SWAP2 SWAP1 PUSH2 0x2969 JUMP JUMPDEST PUSH1 0x40 MLOAD DUP1 SWAP2 SUB SWAP1 LOG1 JUMPDEST PUSH1 0x0 PUSH1 0x3 PUSH1 0x0 DUP8 DUP8 DUP6 DUP2 DUP2 LT PUSH2 0xE5F JUMPI PUSH4 0x4E487B71 PUSH1 0xE0 SHL PUSH1 0x0 MSTORE PUSH1 0x32 PUSH1 0x4 MSTORE PUSH1 0x24 PUSH1 0x0 REVERT JUMPDEST SWAP1 POP PUSH1 0x20 MUL ADD PUSH1 0x20 DUP2 ADD SWAP1 PUSH2 0xE74 SWAP2 SWAP1 PUSH2 0x25E3 JUMP JUMPDEST PUSH1 0x1 PUSH1 0x1 PUSH1 0xA0 SHL SUB AND DUP2 MSTORE PUSH1 0x20 DUP2 ADD SWAP2 SWAP1 SWAP2 MSTORE PUSH1 0x40 ADD PUSH1 0x0 KECCAK256 SSTORE JUMPDEST DUP1 PUSH2 0xE99 DUP2 PUSH2 0x2D5D JUMP JUMPDEST SWAP2 POP POP PUSH2 0xB68 JUMP JUMPDEST POP POP POP POP POP JUMP JUMPDEST PUSH1 0x9 SLOAD DUP2 JUMP JUMPDEST PUSH1 0x8 SLOAD DUP2 JUMP JUMPDEST PUSH1 0x0 DUP1 PUSH2 0xEC3 DUP2 PUSH2 0x69A PUSH2 0x1E1F JUMP JUMPDEST PUSH2 0xEED PUSH32 0xD27488087FCA693ADCF8B477EC0CA6CF5134D7F124FDC511EB258522C40FD72B DUP6 PUSH2 0x1BD6 JUMP JUMPDEST DUP1 PUSH2 0xEFC JUMPI POP PUSH2 0xEFC DUP5 PUSH2 0x1F64 JUMP JUMPDEST PUSH2 0xF21 JUMPI PUSH1 0x40 MLOAD PUSH3 0x461BCD PUSH1 0xE5 SHL DUP2 MSTORE PUSH1 0x4 ADD PUSH2 0xF18 SWAP1 PUSH2 0x2B7F JUMP JUMPDEST PUSH1 0x40 MLOAD DUP1 SWAP2 SUB SWAP1 REVERT JUMPDEST PUSH1 0x2 SLOAD PUSH1 0x0 SWAP1 PUSH2 0xF39 DUP6 PUSH8 0xDE0B6B3A7640000 PUSH2 0x2CE4 JUMP JUMPDEST PUSH2 0xF43 SWAP2 SWAP1 PUSH2 0x2CC4 JUMP JUMPDEST SWAP1 POP PUSH1 0x0 PUSH2 0xF51 DUP3 DUP7 PUSH2 0x2D03 JUMP JUMPDEST SWAP1 POP DUP7 ISZERO PUSH2 0xF8F JUMPI DUP1 PUSH1 0xF PUSH1 0x0 DUP3 DUP3 SLOAD PUSH2 0xF6B SWAP2 SWAP1 PUSH2 0x2CAC JUMP JUMPDEST SWAP3 POP POP DUP2 SWAP1 SSTORE POP DUP2 PUSH1 0x10 PUSH1 0x0 DUP3 DUP3 SLOAD PUSH2 0xF84 SWAP2 SWAP1 PUSH2 0x2CAC JUMP JUMPDEST SWAP1 SWAP2 SSTORE POP PUSH2 0xFC0 SWAP1 POP JUMP JUMPDEST DUP1 PUSH1 0xF PUSH1 0x0 DUP3 DUP3 SLOAD PUSH2 0xFA1 SWAP2 SWAP1 PUSH2 0x2D03 JUMP JUMPDEST SWAP3 POP POP DUP2 SWAP1 SSTORE POP DUP2 PUSH1 0x10 PUSH1 0x0 DUP3 DUP3 SLOAD PUSH2 0xFBA SWAP2 SWAP1 PUSH2 0x2D03 JUMP JUMPDEST SWAP1 SWAP2 SSTORE POP POP JUMPDEST PUSH2 0xFC8 PUSH2 0x1F69 JUMP JUMPDEST POP SWAP6 SWAP5 POP POP POP POP POP JUMP JUMPDEST PUSH1 0x0 DUP1 PUSH2 0xFE1 DUP2 PUSH2 0x69A PUSH2 0x1E1F JUMP JUMPDEST PUSH1 0x2 SLOAD PUSH1 0x1 PUSH1 0x1 PUSH1 0xA0 SHL SUB DUP5 AND PUSH1 0x0 SWAP1 DUP2 MSTORE PUSH1 0x4 PUSH1 0x20 MSTORE PUSH1 0x40 SWAP1 KECCAK256 SLOAD PUSH8 0xDE0B6B3A7640000 SWAP2 PUSH2 0x1010 SWAP2 PUSH2 0x2CE4 JUMP JUMPDEST PUSH2 0x101A SWAP2 SWAP1 PUSH2 0x2CC4 JUMP JUMPDEST SWAP4 SWAP3 POP POP POP JUMP JUMPDEST PUSH32 0xEE11097CBB9C334EC21A7934061732A460DF1EDB6B52F0B9464FEEA55DD71BFF DUP2 JUMP JUMPDEST PUSH1 0x0 PUSH2 0x1053 DUP2 PUSH2 0x69A PUSH2 0x1E1F JUMP JUMPDEST PUSH1 0x1 PUSH1 0x1 PUSH1 0xA0 SHL SUB DUP3 AND ISZERO DUP1 ISZERO SWAP1 PUSH2 0x1073 JUMPI POP PUSH1 0x1 PUSH1 0x1 PUSH1 0xA0 SHL SUB DUP4 AND ISZERO ISZERO JUMPDEST PUSH2 0x108F JUMPI PUSH1 0x40 MLOAD PUSH3 0x461BCD PUSH1 0xE5 SHL DUP2 MSTORE PUSH1 0x4 ADD PUSH2 0xF18 SWAP1 PUSH2 0x2BB6 JUMP JUMPDEST DUP3 PUSH1 0x1 PUSH1 0x1 PUSH1 0xA0 SHL SUB AND DUP3 PUSH1 0x1 PUSH1 0x1 PUSH1 0xA0 SHL SUB AND EQ ISZERO PUSH2 0x10C1 JUMPI PUSH1 0x40 MLOAD PUSH3 0x461BCD PUSH1 0xE5 SHL DUP2 MSTORE PUSH1 0x4 ADD PUSH2 0xF18 SWAP1 PUSH2 0x2B48 JUMP JUMPDEST PUSH1 0x1 PUSH1 0x1 PUSH1 0xA0 SHL SUB DUP1 DUP5 AND PUSH1 0x0 SWAP1 DUP2 MSTORE PUSH1 0x5 PUSH1 0x20 MSTORE PUSH1 0x40 SWAP1 KECCAK256 SLOAD DUP4 DUP3 AND SWAP2 AND EQ DUP1 ISZERO SWAP1 PUSH2 0x110B JUMPI POP PUSH1 0x1 PUSH1 0x1 PUSH1 0xA0 SHL SUB DUP1 DUP4 AND PUSH1 0x0 SWAP1 DUP2 MSTORE PUSH1 0x5 PUSH1 0x20 MSTORE PUSH1 0x40 SWAP1 KECCAK256 SLOAD DUP5 DUP3 AND SWAP2 AND EQ ISZERO JUMPDEST PUSH2 0x1127 JUMPI PUSH1 0x40 MLOAD PUSH3 0x461BCD PUSH1 0xE5 SHL DUP2 MSTORE PUSH1 0x4 ADD PUSH2 0xF18 SWAP1 PUSH2 0x2BED JUMP JUMPDEST PUSH2 0x1130 DUP4 PUSH2 0x1F64 JUMP JUMPDEST DUP1 ISZERO PUSH2 0x1140 JUMPI POP PUSH2 0x1140 DUP3 PUSH2 0x1F64 JUMP JUMPDEST PUSH2 0x115C JUMPI PUSH1 0x40 MLOAD PUSH3 0x461BCD PUSH1 0xE5 SHL DUP2 MSTORE PUSH1 0x4 ADD PUSH2 0xF18 SWAP1 PUSH2 0x2B11 JUMP JUMPDEST PUSH2 0x1186 PUSH32 0xD27488087FCA693ADCF8B477EC0CA6CF5134D7F124FDC511EB258522C40FD72B DUP5 PUSH2 0x1BD6 JUMP JUMPDEST ISZERO DUP1 ISZERO PUSH2 0x11BA JUMPI POP PUSH2 0x11B8 PUSH32 0xD27488087FCA693ADCF8B477EC0CA6CF5134D7F124FDC511EB258522C40FD72B DUP4 PUSH2 0x1BD6 JUMP JUMPDEST ISZERO JUMPDEST DUP1 ISZERO PUSH2 0x11ED JUMPI POP PUSH2 0x11EB PUSH32 0xEE11097CBB9C334EC21A7934061732A460DF1EDB6B52F0B9464FEEA55DD71BFF DUP5 PUSH2 0x1BD6 JUMP JUMPDEST ISZERO JUMPDEST DUP1 ISZERO PUSH2 0x1220 JUMPI POP PUSH2 0x121E PUSH32 0xEE11097CBB9C334EC21A7934061732A460DF1EDB6B52F0B9464FEEA55DD71BFF DUP4 PUSH2 0x1BD6 JUMP JUMPDEST ISZERO JUMPDEST PUSH2 0x123C JUMPI PUSH1 0x40 MLOAD PUSH3 0x461BCD PUSH1 0xE5 SHL DUP2 MSTORE PUSH1 0x4 ADD PUSH2 0xF18 SWAP1 PUSH2 0x2AA3 JUMP JUMPDEST PUSH1 0x1 PUSH1 0x1 PUSH1 0xA0 SHL SUB DUP4 DUP2 AND PUSH1 0x0 SWAP1 DUP2 MSTORE PUSH1 0x5 PUSH1 0x20 MSTORE PUSH1 0x40 SWAP1 KECCAK256 DUP1 SLOAD PUSH32 0xFFFFFFFFFFFFFFFFFFFFFFFF0000000000000000000000000000000000000000 AND DUP5 DUP4 AND OR SWAP1 DUP2 SWAP1 SSTORE AND ISZERO PUSH2 0x12E4 JUMPI PUSH1 0x1 PUSH1 0x1 PUSH1 0xA0 SHL SUB DUP1 DUP5 AND PUSH1 0x0 SWAP1 DUP2 MSTORE PUSH1 0x5 PUSH1 0x20 MSTORE PUSH1 0x40 SWAP1 DUP2 SWAP1 KECCAK256 SLOAD SWAP1 MLOAD PUSH32 0xCCAA6F8DCAB99AE301B4462B3DEB302E91A54F1AD24A0887BE7649303509CD28 SWAP3 PUSH2 0x12D7 SWAP3 DUP8 SWAP3 SWAP2 AND SWAP1 DUP7 SWAP1 PUSH2 0x291D JUMP JUMPDEST PUSH1 0x40 MLOAD DUP1 SWAP2 SUB SWAP1 LOG1 PUSH2 0xAC1 JUMP JUMPDEST PUSH32 0x5F1CA2FCC108B751843A763E60D2201F593516109D7DBB1B700468F2D4190BB7 DUP4 DUP4 PUSH1 0x40 MLOAD PUSH2 0x1315 SWAP3 SWAP2 SWAP1 PUSH2 0x2903 JUMP JUMPDEST PUSH1 0x40 MLOAD DUP1 SWAP2 SUB SWAP1 LOG1 POP POP POP JUMP JUMPDEST PUSH1 0x0 DUP1 PUSH2 0x1331 DUP2 PUSH2 0x69A PUSH2 0x1E1F JUMP JUMPDEST PUSH2 0x135B PUSH32 0xBD68AB95CDA3C90AC0BFFC2B3A3A97A564372FC3CA4A8E4575D3CE58179B7563 DUP6 PUSH2 0x1BD6 JUMP JUMPDEST PUSH2 0xA95 JUMPI PUSH1 0x2 SLOAD PUSH2 0xA86 PUSH8 0xDE0B6B3A7640000 DUP6 PUSH2 0x2CE4 JUMP JUMPDEST PUSH1 0x60 PUSH1 0x0 PUSH2 0x1384 DUP2 PUSH2 0x69A PUSH2 0x1E1F JUMP JUMPDEST PUSH1 0x0 DUP4 PUSH8 0xFFFFFFFFFFFFFFFF DUP2 GT ISZERO PUSH2 0x13AD JUMPI PUSH4 0x4E487B71 PUSH1 0xE0 SHL PUSH1 0x0 MSTORE PUSH1 0x41 PUSH1 0x4 MSTORE PUSH1 0x24 PUSH1 0x0 REVERT JUMPDEST PUSH1 0x40 MLOAD SWAP1 DUP1 DUP3 MSTORE DUP1 PUSH1 0x20 MUL PUSH1 0x20 ADD DUP3 ADD PUSH1 0x40 MSTORE DUP1 ISZERO PUSH2 0x13E6 JUMPI DUP2 PUSH1 0x20 ADD JUMPDEST PUSH2 0x13D3 PUSH2 0x2544 JUMP JUMPDEST DUP2 MSTORE PUSH1 0x20 ADD SWAP1 PUSH1 0x1 SWAP1 SUB SWAP1 DUP2 PUSH2 0x13CB JUMPI SWAP1 POP JUMPDEST POP SWAP1 POP PUSH1 0x0 JUMPDEST DUP5 DUP2 LT ISZERO PUSH2 0x14DD JUMPI PUSH1 0x40 MLOAD DUP1 PUSH1 0x40 ADD PUSH1 0x40 MSTORE DUP1 DUP8 DUP8 DUP5 DUP2 DUP2 LT PUSH2 0x141F JUMPI PUSH4 0x4E487B71 PUSH1 0xE0 SHL PUSH1 0x0 MSTORE PUSH1 0x32 PUSH1 0x4 MSTORE PUSH1 0x24 PUSH1 0x0 REVERT JUMPDEST SWAP1 POP PUSH1 0x20 MUL ADD PUSH1 0x20 DUP2 ADD SWAP1 PUSH2 0x1434 SWAP2 SWAP1 PUSH2 0x25E3 JUMP JUMPDEST PUSH1 0x1 PUSH1 0x1 PUSH1 0xA0 SHL SUB AND DUP2 MSTORE PUSH1 0x20 ADD PUSH1 0x3 PUSH1 0x0 DUP10 DUP10 DUP7 DUP2 DUP2 LT PUSH2 0x1466 JUMPI PUSH4 0x4E487B71 PUSH1 0xE0 SHL PUSH1 0x0 MSTORE PUSH1 0x32 PUSH1 0x4 MSTORE PUSH1 0x24 PUSH1 0x0 REVERT JUMPDEST SWAP1 POP PUSH1 0x20 MUL ADD PUSH1 0x20 DUP2 ADD SWAP1 PUSH2 0x147B SWAP2 SWAP1 PUSH2 0x25E3 JUMP JUMPDEST PUSH1 0x1 PUSH1 0x1 PUSH1 0xA0 SHL SUB AND PUSH1 0x1 PUSH1 0x1 PUSH1 0xA0 SHL SUB AND DUP2 MSTORE PUSH1 0x20 ADD SWAP1 DUP2 MSTORE PUSH1 0x20 ADD PUSH1 0x0 KECCAK256 SLOAD DUP2 MSTORE POP DUP3 DUP3 DUP2 MLOAD DUP2 LT PUSH2 0x14BF JUMPI PUSH4 0x4E487B71 PUSH1 0xE0 SHL PUSH1 0x0 MSTORE PUSH1 0x32 PUSH1 0x4 MSTORE PUSH1 0x24 PUSH1 0x0 REVERT JUMPDEST PUSH1 0x20 MUL PUSH1 0x20 ADD ADD DUP2 SWAP1 MSTORE POP DUP1 DUP1 PUSH2 0x14D5 SWAP1 PUSH2 0x2D5D JUMP JUMPDEST SWAP2 POP POP PUSH2 0x13EC JUMP JUMPDEST POP SWAP5 SWAP4 POP POP POP POP JUMP JUMPDEST PUSH1 0x0 PUSH2 0x14F4 DUP2 PUSH2 0x69A PUSH2 0x1E1F JUMP JUMPDEST POP PUSH1 0xC SWAP5 SWAP1 SWAP5 SSTORE PUSH1 0xB SWAP3 SWAP1 SWAP3 SSTORE PUSH1 0xA SSTORE PUSH1 0xD SSTORE PUSH1 0xE SSTORE JUMP JUMPDEST PUSH1 0xD SLOAD DUP2 JUMP JUMPDEST PUSH2 0x151A PUSH2 0x255B JUMP JUMPDEST PUSH1 0x0 PUSH2 0x1528 DUP2 PUSH2 0x69A PUSH2 0x1E1F JUMP JUMPDEST PUSH1 0x2 SLOAD PUSH1 0x0 SWAP1 PUSH2 0x1544 PUSH8 0xDE0B6B3A7640000 PUSH1 0x40 DUP8 ADD CALLDATALOAD PUSH2 0x2CE4 JUMP JUMPDEST PUSH2 0x154E SWAP2 SWAP1 PUSH2 0x2CC4 JUMP JUMPDEST SWAP1 POP PUSH1 0x0 DUP2 GT PUSH2 0x1570 JUMPI PUSH1 0x40 MLOAD PUSH3 0x461BCD PUSH1 0xE5 SHL DUP2 MSTORE PUSH1 0x4 ADD PUSH2 0xF18 SWAP1 PUSH2 0x2ADA JUMP JUMPDEST PUSH1 0x0 PUSH2 0x15A3 PUSH32 0xD27488087FCA693ADCF8B477EC0CA6CF5134D7F124FDC511EB258522C40FD72B PUSH2 0x56D PUSH1 0x20 DUP9 ADD DUP9 PUSH2 0x25E3 JUMP JUMPDEST DUP1 PUSH2 0x1600 JUMPI POP PUSH1 0x12 SLOAD NUMBER SWAP1 PUSH1 0x11 PUSH1 0x0 PUSH2 0x15BF PUSH1 0x20 DUP11 ADD DUP11 PUSH2 0x25E3 JUMP JUMPDEST PUSH1 0x1 PUSH1 0x1 PUSH1 0xA0 SHL SUB AND DUP2 MSTORE PUSH1 0x20 DUP2 ADD SWAP2 SWAP1 SWAP2 MSTORE PUSH1 0x40 ADD PUSH1 0x0 KECCAK256 SLOAD PUSH2 0x15E3 SWAP2 SWAP1 PUSH2 0x2CAC JUMP JUMPDEST LT DUP1 ISZERO PUSH2 0x1600 JUMPI POP PUSH2 0x1600 PUSH2 0x15FB PUSH1 0x20 DUP8 ADD DUP8 PUSH2 0x25E3 JUMP JUMPDEST PUSH2 0x1F64 JUMP JUMPDEST DUP1 ISZERO PUSH2 0x16A3 JUMPI POP PUSH2 0x163B PUSH32 0xD27488087FCA693ADCF8B477EC0CA6CF5134D7F124FDC511EB258522C40FD72B PUSH2 0x56D PUSH1 0x40 DUP9 ADD PUSH1 0x20 DUP10 ADD PUSH2 0x25E3 JUMP JUMPDEST DUP1 PUSH2 0x16A3 JUMPI POP PUSH1 0x13 SLOAD NUMBER SWAP1 PUSH1 0x11 PUSH1 0x0 PUSH2 0x165A PUSH1 0x40 DUP11 ADD PUSH1 0x20 DUP12 ADD PUSH2 0x25E3 JUMP JUMPDEST PUSH1 0x1 PUSH1 0x1 PUSH1 0xA0 SHL SUB AND PUSH1 0x1 PUSH1 0x1 PUSH1 0xA0 SHL SUB AND DUP2 MSTORE PUSH1 0x20 ADD SWAP1 DUP2 MSTORE PUSH1 0x20 ADD PUSH1 0x0 KECCAK256 PUSH1 0x1 ADD SLOAD PUSH2 0x1688 SWAP2 SWAP1 PUSH2 0x2CAC JUMP JUMPDEST LT DUP1 ISZERO PUSH2 0x16A3 JUMPI POP PUSH2 0x16A3 PUSH2 0x15FB PUSH1 0x40 DUP8 ADD PUSH1 0x20 DUP9 ADD PUSH2 0x25E3 JUMP JUMPDEST ISZERO PUSH2 0x18FC JUMPI PUSH2 0x16D9 PUSH32 0xEE11097CBB9C334EC21A7934061732A460DF1EDB6B52F0B9464FEEA55DD71BFF PUSH2 0x56D PUSH1 0x20 DUP9 ADD DUP9 PUSH2 0x25E3 JUMP JUMPDEST DUP1 PUSH2 0x1713 JUMPI POP PUSH2 0x1713 PUSH32 0xEE11097CBB9C334EC21A7934061732A460DF1EDB6B52F0B9464FEEA55DD71BFF PUSH2 0x56D PUSH1 0x40 DUP9 ADD PUSH1 0x20 DUP10 ADD PUSH2 0x25E3 JUMP JUMPDEST ISZERO PUSH2 0x17B3 JUMPI PUSH1 0x0 PUSH1 0x6 DUP2 PUSH2 0x1751 PUSH32 0xEE11097CBB9C334EC21A7934061732A460DF1EDB6B52F0B9464FEEA55DD71BFF PUSH2 0x56D PUSH1 0x40 DUP12 ADD PUSH1 0x20 DUP13 ADD PUSH2 0x25E3 JUMP JUMPDEST PUSH2 0x1767 JUMPI PUSH2 0x1762 PUSH1 0x20 DUP10 ADD DUP10 PUSH2 0x25E3 JUMP JUMPDEST PUSH2 0x1777 JUMP JUMPDEST PUSH2 0x1777 PUSH1 0x40 DUP10 ADD PUSH1 0x20 DUP11 ADD PUSH2 0x25E3 JUMP JUMPDEST PUSH1 0x1 PUSH1 0x1 PUSH1 0xA0 SHL SUB AND DUP2 MSTORE PUSH1 0x20 DUP2 ADD SWAP2 SWAP1 SWAP2 MSTORE PUSH1 0x40 ADD PUSH1 0x0 KECCAK256 SLOAD SWAP1 POP PUSH3 0xF4240 PUSH2 0x17A1 DUP3 DUP6 PUSH2 0x2CE4 JUMP JUMPDEST PUSH2 0x17AB SWAP2 SWAP1 PUSH2 0x2CC4 JUMP JUMPDEST SWAP2 POP POP PUSH2 0x18F7 JUMP JUMPDEST PUSH1 0x0 PUSH1 0x5 DUP2 PUSH2 0x17C5 PUSH1 0x20 DUP10 ADD DUP10 PUSH2 0x25E3 JUMP JUMPDEST PUSH1 0x1 PUSH1 0x1 PUSH1 0xA0 SHL SUB SWAP1 DUP2 AND DUP3 MSTORE PUSH1 0x20 DUP3 ADD SWAP3 SWAP1 SWAP3 MSTORE PUSH1 0x40 ADD PUSH1 0x0 KECCAK256 SLOAD AND EQ DUP1 ISZERO PUSH2 0x181E JUMPI POP PUSH1 0x0 PUSH1 0x5 DUP2 PUSH2 0x17FF PUSH1 0x40 DUP10 ADD PUSH1 0x20 DUP11 ADD PUSH2 0x25E3 JUMP JUMPDEST PUSH1 0x1 PUSH1 0x1 PUSH1 0xA0 SHL SUB SWAP1 DUP2 AND DUP3 MSTORE PUSH1 0x20 DUP3 ADD SWAP3 SWAP1 SWAP3 MSTORE PUSH1 0x40 ADD PUSH1 0x0 KECCAK256 SLOAD AND EQ JUMPDEST ISZERO PUSH2 0x1846 JUMPI PUSH3 0xF4240 PUSH1 0xA SLOAD DUP4 PUSH2 0x1835 SWAP2 SWAP1 PUSH2 0x2CE4 JUMP JUMPDEST PUSH2 0x183F SWAP2 SWAP1 PUSH2 0x2CC4 JUMP JUMPDEST SWAP1 POP PUSH2 0x18F7 JUMP JUMPDEST PUSH3 0xF4240 PUSH1 0xC SLOAD DUP4 PUSH2 0x1858 SWAP2 SWAP1 PUSH2 0x2CE4 JUMP JUMPDEST PUSH2 0x1862 SWAP2 SWAP1 PUSH2 0x2CC4 JUMP JUMPDEST SWAP1 POP DUP2 PUSH1 0x3 PUSH1 0x0 DUP1 PUSH1 0x5 DUP2 PUSH2 0x187D PUSH1 0x40 DUP13 ADD PUSH1 0x20 DUP14 ADD PUSH2 0x25E3 JUMP JUMPDEST PUSH1 0x1 PUSH1 0x1 PUSH1 0xA0 SHL SUB SWAP1 DUP2 AND DUP3 MSTORE PUSH1 0x20 DUP3 ADD SWAP3 SWAP1 SWAP3 MSTORE PUSH1 0x40 ADD PUSH1 0x0 KECCAK256 SLOAD AND EQ ISZERO PUSH2 0x18B2 JUMPI PUSH2 0x18AD PUSH1 0x20 DUP10 ADD DUP10 PUSH2 0x25E3 JUMP JUMPDEST PUSH2 0x18C2 JUMP JUMPDEST PUSH2 0x18C2 PUSH1 0x40 DUP10 ADD PUSH1 0x20 DUP11 ADD PUSH2 0x25E3 JUMP JUMPDEST PUSH1 0x1 PUSH1 0x1 PUSH1 0xA0 SHL SUB AND PUSH1 0x1 PUSH1 0x1 PUSH1 0xA0 SHL SUB AND DUP2 MSTORE PUSH1 0x20 ADD SWAP1 DUP2 MSTORE PUSH1 0x20 ADD PUSH1 0x0 KECCAK256 PUSH1 0x0 DUP3 DUP3 SLOAD PUSH2 0x18F1 SWAP2 SWAP1 PUSH2 0x2CAC JUMP JUMPDEST SWAP1 SWAP2 SSTORE POP POP JUMPDEST PUSH2 0x199C JUMP JUMPDEST PUSH3 0xF4240 PUSH1 0xB SLOAD DUP4 PUSH2 0x190E SWAP2 SWAP1 PUSH2 0x2CE4 JUMP JUMPDEST PUSH2 0x1918 SWAP2 SWAP1 PUSH2 0x2CC4 JUMP JUMPDEST SWAP1 POP PUSH1 0x0 PUSH3 0xF4240 PUSH1 0xB SLOAD DUP8 PUSH1 0x40 ADD CALLDATALOAD PUSH2 0x1932 SWAP2 SWAP1 PUSH2 0x2CE4 JUMP JUMPDEST PUSH2 0x193C SWAP2 SWAP1 PUSH2 0x2CC4 JUMP JUMPDEST SWAP1 POP PUSH32 0xA1A76B56D422BE0A4C14CCC1281231AA006E67B6E03DCC433A873DC285491E51 PUSH2 0x196C PUSH1 0x20 DUP9 ADD DUP9 PUSH2 0x25E3 JUMP JUMPDEST PUSH2 0x197C PUSH1 0x40 DUP10 ADD PUSH1 0x20 DUP11 ADD PUSH2 0x25E3 JUMP JUMPDEST DUP9 PUSH1 0x40 ADD CALLDATALOAD DUP5 PUSH1 0x40 MLOAD PUSH2 0x1992 SWAP5 SWAP4 SWAP3 SWAP2 SWAP1 PUSH2 0x2940 JUMP JUMPDEST PUSH1 0x40 MLOAD DUP1 SWAP2 SUB SWAP1 LOG1 POP JUMPDEST PUSH1 0x0 PUSH2 0x19A8 DUP3 DUP5 PUSH2 0x2D03 JUMP JUMPDEST SWAP1 POP PUSH2 0x19B8 DUP4 PUSH1 0x60 DUP9 ADD CALLDATALOAD PUSH2 0x2D03 JUMP JUMPDEST DUP6 MSTORE PUSH2 0x19C8 DUP2 PUSH1 0x80 DUP9 ADD CALLDATALOAD PUSH2 0x2CAC JUMP JUMPDEST PUSH1 0x20 DUP7 ADD MSTORE PUSH1 0x7 DUP1 SLOAD DUP4 SWAP2 SWAP1 PUSH1 0x0 SWAP1 PUSH2 0x19E2 SWAP1 DUP5 SWAP1 PUSH2 0x2CAC JUMP JUMPDEST SWAP1 SWAP2 SSTORE POP POP PUSH1 0x2 SLOAD PUSH8 0xDE0B6B3A7640000 SWAP1 PUSH2 0x19FE SWAP1 DUP5 PUSH2 0x2CE4 JUMP JUMPDEST PUSH2 0x1A08 SWAP2 SWAP1 PUSH2 0x2CC4 JUMP JUMPDEST PUSH1 0x40 DUP1 DUP8 ADD DUP3 SWAP1 MSTORE PUSH2 0x1A1D SWAP2 SWAP1 DUP9 ADD CALLDATALOAD PUSH2 0x2D03 JUMP JUMPDEST PUSH1 0x60 DUP7 ADD MSTORE NUMBER PUSH1 0x11 PUSH1 0x0 PUSH2 0x1A37 PUSH1 0x40 DUP11 ADD PUSH1 0x20 DUP12 ADD PUSH2 0x25E3 JUMP JUMPDEST PUSH1 0x1 PUSH1 0x1 PUSH1 0xA0 SHL SUB AND DUP2 MSTORE PUSH1 0x20 DUP1 DUP3 ADD SWAP3 SWAP1 SWAP3 MSTORE PUSH1 0x40 ADD PUSH1 0x0 SWAP1 DUP2 KECCAK256 SWAP3 SWAP1 SWAP3 SSTORE NUMBER SWAP2 PUSH1 0x11 SWAP2 PUSH2 0x1A68 SWAP1 DUP11 ADD DUP11 PUSH2 0x25E3 JUMP JUMPDEST PUSH1 0x1 PUSH1 0x1 PUSH1 0xA0 SHL SUB AND DUP2 MSTORE PUSH1 0x20 DUP2 ADD SWAP2 SWAP1 SWAP2 MSTORE PUSH1 0x40 ADD PUSH1 0x0 KECCAK256 PUSH1 0x1 ADD SSTORE PUSH2 0x1A8D PUSH2 0x1EEE JUMP JUMPDEST POP POP POP POP SWAP2 SWAP1 POP JUMP JUMPDEST PUSH1 0x60 PUSH1 0x0 PUSH2 0x1AA6 DUP2 PUSH2 0x69A PUSH2 0x1E1F JUMP JUMPDEST PUSH1 0x0 DUP5 DUP5 DUP1 DUP1 PUSH1 0x20 MUL PUSH1 0x20 ADD PUSH1 0x40 MLOAD SWAP1 DUP2 ADD PUSH1 0x40 MSTORE DUP1 SWAP4 SWAP3 SWAP2 SWAP1 DUP2 DUP2 MSTORE PUSH1 0x20 ADD DUP4 DUP4 PUSH1 0x20 MUL DUP1 DUP3 DUP5 CALLDATACOPY PUSH1 0x0 SWAP3 ADD DUP3 SWAP1 MSTORE POP SWAP4 SWAP5 POP POP POP POP JUMPDEST DUP5 DUP2 LT ISZERO PUSH2 0x14DD JUMPI PUSH1 0x3 PUSH1 0x0 DUP8 DUP8 DUP5 DUP2 DUP2 LT PUSH2 0x1B0A JUMPI PUSH4 0x4E487B71 PUSH1 0xE0 SHL PUSH1 0x0 MSTORE PUSH1 0x32 PUSH1 0x4 MSTORE PUSH1 0x24 PUSH1 0x0 REVERT JUMPDEST SWAP1 POP PUSH1 0x20 MUL ADD PUSH1 0x20 DUP2 ADD SWAP1 PUSH2 0x1B1F SWAP2 SWAP1 PUSH2 0x25E3 JUMP JUMPDEST PUSH1 0x1 PUSH1 0x1 PUSH1 0xA0 SHL SUB AND DUP2 MSTORE PUSH1 0x20 DUP2 ADD SWAP2 SWAP1 SWAP2 MSTORE PUSH1 0x40 ADD PUSH1 0x0 KECCAK256 SLOAD PUSH2 0x1B80 JUMPI PUSH1 0x0 DUP3 DUP3 DUP2 MLOAD DUP2 LT PUSH2 0x1B5F JUMPI PUSH4 0x4E487B71 PUSH1 0xE0 SHL PUSH1 0x0 MSTORE PUSH1 0x32 PUSH1 0x4 MSTORE PUSH1 0x24 PUSH1 0x0 REVERT JUMPDEST PUSH1 0x20 MUL PUSH1 0x20 ADD ADD SWAP1 PUSH1 0x1 PUSH1 0x1 PUSH1 0xA0 SHL SUB AND SWAP1 DUP2 PUSH1 0x1 PUSH1 0x1 PUSH1 0xA0 SHL SUB AND DUP2 MSTORE POP POP JUMPDEST DUP1 PUSH2 0x1B8A DUP2 PUSH2 0x2D5D JUMP JUMPDEST SWAP2 POP POP PUSH2 0x1ADE JUMP JUMPDEST PUSH1 0x12 SLOAD DUP2 JUMP JUMPDEST PUSH1 0x0 DUP1 PUSH2 0x1BA7 DUP2 PUSH2 0x69A PUSH2 0x1E1F JUMP JUMPDEST POP POP PUSH1 0xF SLOAD SWAP1 JUMP JUMPDEST PUSH1 0xA SLOAD DUP2 JUMP JUMPDEST PUSH1 0x0 DUP3 DUP2 MSTORE PUSH1 0x1 PUSH1 0x20 MSTORE PUSH1 0x40 DUP2 KECCAK256 PUSH2 0x1BCD SWAP1 DUP4 PUSH2 0x2022 JUMP JUMPDEST SWAP1 POP JUMPDEST SWAP3 SWAP2 POP POP JUMP JUMPDEST PUSH1 0x0 SWAP2 DUP3 MSTORE PUSH1 0x20 DUP3 DUP2 MSTORE PUSH1 0x40 DUP1 DUP5 KECCAK256 PUSH1 0x1 PUSH1 0x1 PUSH1 0xA0 SHL SUB SWAP4 SWAP1 SWAP4 AND DUP5 MSTORE SWAP2 SWAP1 MSTORE SWAP1 KECCAK256 SLOAD PUSH1 0xFF AND SWAP1 JUMP JUMPDEST PUSH1 0xC SLOAD DUP2 JUMP JUMPDEST PUSH32 0xD27488087FCA693ADCF8B477EC0CA6CF5134D7F124FDC511EB258522C40FD72B DUP2 JUMP JUMPDEST PUSH1 0x0 DUP1 PUSH2 0x1C38 DUP2 PUSH2 0x69A PUSH2 0x1E1F JUMP JUMPDEST PUSH2 0x1C42 DUP5 DUP5 PUSH2 0x2D03 JUMP JUMPDEST SWAP3 POP DUP4 PUSH1 0x7 PUSH1 0x0 DUP3 DUP3 SLOAD PUSH2 0x1C56 SWAP2 SWAP1 PUSH2 0x2CAC JUMP JUMPDEST SWAP1 SWAP2 SSTORE POP PUSH2 0xA95 SWAP1 POP PUSH2 0x1EEE JUMP JUMPDEST PUSH1 0x13 SLOAD DUP2 JUMP JUMPDEST PUSH1 0xE SLOAD DUP2 JUMP JUMPDEST PUSH1 0x0 DUP1 PUSH2 0x1C7F DUP2 PUSH2 0x69A PUSH2 0x1E1F JUMP JUMPDEST PUSH1 0xF SLOAD PUSH1 0x10 SLOAD PUSH2 0x1C8F SWAP2 SWAP1 PUSH2 0x2CAC JUMP JUMPDEST SWAP2 POP POP SWAP1 JUMP JUMPDEST PUSH1 0x0 DUP2 DUP2 MSTORE PUSH1 0x1 PUSH1 0x20 MSTORE PUSH1 0x40 DUP2 KECCAK256 PUSH2 0x956 SWAP1 PUSH2 0x202E JUMP JUMPDEST PUSH1 0x0 DUP1 PUSH2 0x1CBB DUP2 PUSH2 0x69A PUSH2 0x1E1F JUMP JUMPDEST PUSH1 0x2 SLOAD PUSH2 0x1010 PUSH8 0xDE0B6B3A7640000 DUP6 PUSH2 0x2CE4 JUMP JUMPDEST PUSH1 0x0 DUP2 JUMP JUMPDEST PUSH1 0x6 PUSH1 0x20 MSTORE PUSH1 0x0 SWAP1 DUP2 MSTORE PUSH1 0x40 SWAP1 KECCAK256 SLOAD DUP2 JUMP JUMPDEST PUSH2 0xB3E DUP3 DUP3 PUSH2 0x2039 JUMP JUMPDEST PUSH32 0xBD68AB95CDA3C90AC0BFFC2B3A3A97A564372FC3CA4A8E4575D3CE58179B7563 DUP2 JUMP JUMPDEST PUSH1 0x5 PUSH1 0x20 MSTORE PUSH1 0x0 SWAP1 DUP2 MSTORE PUSH1 0x40 SWAP1 KECCAK256 SLOAD PUSH1 0x1 PUSH1 0x1 PUSH1 0xA0 SHL SUB AND DUP2 JUMP JUMPDEST PUSH1 0x0 PUSH2 0x1D3E DUP2 PUSH2 0x69A PUSH2 0x1E1F JUMP JUMPDEST POP PUSH1 0x1 PUSH1 0x1 PUSH1 0xA0 SHL SUB AND PUSH1 0x0 SWAP1 DUP2 MSTORE PUSH1 0x4 PUSH1 0x20 MSTORE PUSH1 0x40 DUP2 KECCAK256 SSTORE JUMP JUMPDEST PUSH1 0x0 PUSH2 0x1D67 DUP2 PUSH2 0x69A PUSH2 0x1E1F JUMP JUMPDEST POP PUSH1 0x12 SWAP2 SWAP1 SWAP2 SSTORE PUSH1 0x13 SSTORE JUMP JUMPDEST PUSH2 0x1D7B PUSH2 0x1F69 JUMP JUMPDEST JUMP JUMPDEST PUSH1 0x4 PUSH1 0x20 MSTORE PUSH1 0x0 SWAP1 DUP2 MSTORE PUSH1 0x40 SWAP1 KECCAK256 SLOAD DUP2 JUMP JUMPDEST PUSH1 0x10 SLOAD DUP2 JUMP JUMPDEST PUSH1 0x0 PUSH2 0x1DA3 DUP2 PUSH2 0x69A PUSH2 0x1E1F JUMP JUMPDEST POP PUSH1 0x9 SSTORE JUMP JUMPDEST PUSH1 0x0 PUSH2 0x1DB7 DUP2 PUSH2 0x69A PUSH2 0x1E1F JUMP JUMPDEST PUSH1 0x1 PUSH1 0x1 PUSH1 0xA0 SHL SUB DUP4 AND PUSH1 0x0 SWAP1 DUP2 MSTORE PUSH1 0x6 PUSH1 0x20 MSTORE PUSH1 0x40 SWAP1 KECCAK256 DUP3 SWAP1 SSTORE PUSH2 0xAC1 PUSH32 0xEE11097CBB9C334EC21A7934061732A460DF1EDB6B52F0B9464FEEA55DD71BFF DUP5 PUSH2 0x1EC5 JUMP JUMPDEST PUSH2 0x1E06 DUP3 DUP3 PUSH2 0x2058 JUMP JUMPDEST POP POP JUMP JUMPDEST PUSH1 0x0 PUSH2 0x1BCD DUP4 PUSH1 0x1 PUSH1 0x1 PUSH1 0xA0 SHL SUB DUP5 AND PUSH2 0x20DD JUMP JUMPDEST CALLER SWAP1 JUMP JUMPDEST PUSH2 0x1E2D DUP3 DUP3 PUSH2 0x1BD6 JUMP JUMPDEST PUSH2 0x1E06 JUMPI PUSH2 0x1E45 DUP2 PUSH1 0x1 PUSH1 0x1 PUSH1 0xA0 SHL SUB AND PUSH1 0x14 PUSH2 0x2127 JUMP JUMPDEST PUSH2 0x1E50 DUP4 PUSH1 0x20 PUSH2 0x2127 JUMP JUMPDEST PUSH1 0x40 MLOAD PUSH1 0x20 ADD PUSH2 0x1E61 SWAP3 SWAP2 SWAP1 PUSH2 0x286E JUMP JUMPDEST PUSH1 0x40 DUP1 MLOAD PUSH1 0x1F NOT DUP2 DUP5 SUB ADD DUP2 MSTORE SWAP1 DUP3 SWAP1 MSTORE PUSH3 0x461BCD PUSH1 0xE5 SHL DUP3 MSTORE PUSH2 0xF18 SWAP2 PUSH1 0x4 ADD PUSH2 0x2A3B JUMP JUMPDEST PUSH1 0x0 PUSH1 0x1 PUSH1 0x1 PUSH1 0xE0 SHL SUB NOT DUP3 AND PUSH32 0x7965DB0B00000000000000000000000000000000000000000000000000000000 EQ DUP1 PUSH2 0x956 JUMPI POP PUSH2 0x956 DUP3 PUSH2 0x231E JUMP JUMPDEST PUSH2 0xAA9 DUP3 DUP3 PUSH2 0x1DFC JUMP JUMPDEST PUSH2 0x1ED8 DUP3 PUSH2 0xA1D JUMP JUMPDEST PUSH2 0x1EE4 DUP2 PUSH2 0x69A PUSH2 0x1E1F JUMP JUMPDEST PUSH2 0xAC1 DUP4 DUP4 PUSH2 0x2058 JUMP JUMPDEST PUSH1 0x9 SLOAD PUSH1 0x8 SLOAD PUSH2 0x1EFE SWAP2 SWAP1 PUSH2 0x2CAC JUMP JUMPDEST TIMESTAMP GT ISZERO PUSH2 0x1D7B JUMPI PUSH2 0x1D7B PUSH2 0x1F69 JUMP JUMPDEST PUSH2 0x1F15 PUSH2 0x1E1F JUMP JUMPDEST PUSH1 0x1 PUSH1 0x1 PUSH1 0xA0 SHL SUB AND DUP2 PUSH1 0x1 PUSH1 0x1 PUSH1 0xA0 SHL SUB AND EQ PUSH2 0x1F45 JUMPI PUSH1 0x40 MLOAD PUSH3 0x461BCD PUSH1 0xE5 SHL DUP2 MSTORE PUSH1 0x4 ADD PUSH2 0xF18 SWAP1 PUSH2 0x2C24 JUMP JUMPDEST PUSH2 0x1E06 DUP3 DUP3 PUSH2 0x2350 JUMP JUMPDEST PUSH1 0x0 PUSH2 0x1BCD DUP4 PUSH1 0x1 PUSH1 0x1 PUSH1 0xA0 SHL SUB DUP5 AND PUSH2 0x23D3 JUMP JUMPDEST EXTCODESIZE ISZERO SWAP1 JUMP JUMPDEST TIMESTAMP PUSH1 0x8 SSTORE PUSH1 0x7 SLOAD PUSH1 0x10 DUP1 SLOAD PUSH1 0x0 SWAP1 PUSH2 0x1F82 SWAP1 DUP5 SWAP1 PUSH2 0x2D03 JUMP JUMPDEST SWAP1 SWAP2 SSTORE POP POP PUSH1 0x7 SLOAD PUSH2 0x1F96 SWAP1 PUSH1 0x2 SWAP1 PUSH2 0x2CC4 JUMP JUMPDEST PUSH1 0xF PUSH1 0x0 DUP3 DUP3 SLOAD PUSH2 0x1FA7 SWAP2 SWAP1 PUSH2 0x2CAC JUMP JUMPDEST SWAP1 SWAP2 SSTORE POP POP PUSH1 0x0 PUSH1 0x7 SSTORE PUSH1 0x10 SLOAD PUSH1 0xF SLOAD PUSH2 0x1FC9 SWAP1 PUSH8 0xDE0B6B3A7640000 PUSH2 0x2CE4 JUMP JUMPDEST PUSH2 0x1FD3 SWAP2 SWAP1 PUSH2 0x2CC4 JUMP JUMPDEST PUSH2 0x1FE5 SWAP1 PUSH8 0xDE0B6B3A7640000 PUSH2 0x2CAC JUMP JUMPDEST PUSH1 0x2 DUP2 SWAP1 SSTORE PUSH1 0x40 MLOAD PUSH32 0x4DBE4840D7465BD162F67814CEA0B519567A2E0E578BCDE61E7F4CED361E5A3D SWAP2 PUSH2 0x2018 SWAP2 PUSH2 0x2A32 JUMP JUMPDEST PUSH1 0x40 MLOAD DUP1 SWAP2 SUB SWAP1 LOG1 JUMP JUMPDEST PUSH1 0x0 PUSH2 0x1BCD DUP4 DUP4 PUSH2 0x24F0 JUMP JUMPDEST PUSH1 0x0 PUSH2 0x956 DUP3 PUSH2 0x2528 JUMP JUMPDEST PUSH2 0x2042 DUP3 PUSH2 0xA1D JUMP JUMPDEST PUSH2 0x204E DUP2 PUSH2 0x69A PUSH2 0x1E1F JUMP JUMPDEST PUSH2 0xAC1 DUP4 DUP4 PUSH2 0x2350 JUMP JUMPDEST PUSH2 0x2062 DUP3 DUP3 PUSH2 0x1BD6 JUMP JUMPDEST PUSH2 0x1E06 JUMPI PUSH1 0x0 DUP3 DUP2 MSTORE PUSH1 0x20 DUP2 DUP2 MSTORE PUSH1 0x40 DUP1 DUP4 KECCAK256 PUSH1 0x1 PUSH1 0x1 PUSH1 0xA0 SHL SUB DUP6 AND DUP5 MSTORE SWAP1 SWAP2 MSTORE SWAP1 KECCAK256 DUP1 SLOAD PUSH1 0xFF NOT AND PUSH1 0x1 OR SWAP1 SSTORE PUSH2 0x2099 PUSH2 0x1E1F JUMP JUMPDEST PUSH1 0x1 PUSH1 0x1 PUSH1 0xA0 SHL SUB AND DUP2 PUSH1 0x1 PUSH1 0x1 PUSH1 0xA0 SHL SUB AND DUP4 PUSH32 0x2F8788117E7EFF1D82E926EC794901D17C78024A50270940304540A733656F0D PUSH1 0x40 MLOAD PUSH1 0x40 MLOAD DUP1 SWAP2 SUB SWAP1 LOG4 POP POP JUMP JUMPDEST PUSH1 0x0 PUSH2 0x20E9 DUP4 DUP4 PUSH2 0x252C JUMP JUMPDEST PUSH2 0x211F JUMPI POP DUP2 SLOAD PUSH1 0x1 DUP2 DUP2 ADD DUP5 SSTORE PUSH1 0x0 DUP5 DUP2 MSTORE PUSH1 0x20 DUP1 DUP3 KECCAK256 SWAP1 SWAP4 ADD DUP5 SWAP1 SSTORE DUP5 SLOAD DUP5 DUP3 MSTORE DUP3 DUP7 ADD SWAP1 SWAP4 MSTORE PUSH1 0x40 SWAP1 KECCAK256 SWAP2 SWAP1 SWAP2 SSTORE PUSH2 0x1BD0 JUMP JUMPDEST POP PUSH1 0x0 PUSH2 0x1BD0 JUMP JUMPDEST PUSH1 0x60 PUSH1 0x0 PUSH2 0x2136 DUP4 PUSH1 0x2 PUSH2 0x2CE4 JUMP JUMPDEST PUSH2 0x2141 SWAP1 PUSH1 0x2 PUSH2 0x2CAC JUMP JUMPDEST PUSH8 0xFFFFFFFFFFFFFFFF DUP2 GT ISZERO PUSH2 0x2167 JUMPI PUSH4 0x4E487B71 PUSH1 0xE0 SHL PUSH1 0x0 MSTORE PUSH1 0x41 PUSH1 0x4 MSTORE PUSH1 0x24 PUSH1 0x0 REVERT JUMPDEST PUSH1 0x40 MLOAD SWAP1 DUP1 DUP3 MSTORE DUP1 PUSH1 0x1F ADD PUSH1 0x1F NOT AND PUSH1 0x20 ADD DUP3 ADD PUSH1 0x40 MSTORE DUP1 ISZERO PUSH2 0x2191 JUMPI PUSH1 0x20 DUP3 ADD DUP2 DUP1 CALLDATASIZE DUP4 CALLDATACOPY ADD SWAP1 POP JUMPDEST POP SWAP1 POP PUSH32 0x3000000000000000000000000000000000000000000000000000000000000000 DUP2 PUSH1 0x0 DUP2 MLOAD DUP2 LT PUSH2 0x21D6 JUMPI PUSH4 0x4E487B71 PUSH1 0xE0 SHL PUSH1 0x0 MSTORE PUSH1 0x32 PUSH1 0x4 MSTORE PUSH1 0x24 PUSH1 0x0 REVERT JUMPDEST PUSH1 0x20 ADD ADD SWAP1 PUSH1 0x1 PUSH1 0x1 PUSH1 0xF8 SHL SUB NOT AND SWAP1 DUP2 PUSH1 0x0 BYTE SWAP1 MSTORE8 POP PUSH32 0x7800000000000000000000000000000000000000000000000000000000000000 DUP2 PUSH1 0x1 DUP2 MLOAD DUP2 LT PUSH2 0x222F JUMPI PUSH4 0x4E487B71 PUSH1 0xE0 SHL PUSH1 0x0 MSTORE PUSH1 0x32 PUSH1 0x4 MSTORE PUSH1 0x24 PUSH1 0x0 REVERT JUMPDEST PUSH1 0x20 ADD ADD SWAP1 PUSH1 0x1 PUSH1 0x1 PUSH1 0xF8 SHL SUB NOT AND SWAP1 DUP2 PUSH1 0x0 BYTE SWAP1 MSTORE8 POP PUSH1 0x0 PUSH2 0x2253 DUP5 PUSH1 0x2 PUSH2 0x2CE4 JUMP JUMPDEST PUSH2 0x225E SWAP1 PUSH1 0x1 PUSH2 0x2CAC JUMP JUMPDEST SWAP1 POP JUMPDEST PUSH1 0x1 DUP2 GT ISZERO PUSH2 0x22FF JUMPI PUSH32 0x3031323334353637383961626364656600000000000000000000000000000000 DUP6 PUSH1 0xF AND PUSH1 0x10 DUP2 LT PUSH2 0x22AD JUMPI PUSH4 0x4E487B71 PUSH1 0xE0 SHL PUSH1 0x0 MSTORE PUSH1 0x32 PUSH1 0x4 MSTORE PUSH1 0x24 PUSH1 0x0 REVERT JUMPDEST BYTE PUSH1 0xF8 SHL DUP3 DUP3 DUP2 MLOAD DUP2 LT PUSH2 0x22D1 JUMPI PUSH4 0x4E487B71 PUSH1 0xE0 SHL PUSH1 0x0 MSTORE PUSH1 0x32 PUSH1 0x4 MSTORE PUSH1 0x24 PUSH1 0x0 REVERT JUMPDEST PUSH1 0x20 ADD ADD SWAP1 PUSH1 0x1 PUSH1 0x1 PUSH1 0xF8 SHL SUB NOT AND SWAP1 DUP2 PUSH1 0x0 BYTE SWAP1 MSTORE8 POP PUSH1 0x4 SWAP5 SWAP1 SWAP5 SHR SWAP4 PUSH2 0x22F8 DUP2 PUSH2 0x2D46 JUMP JUMPDEST SWAP1 POP PUSH2 0x2261 JUMP JUMPDEST POP DUP4 ISZERO PUSH2 0x1BCD JUMPI PUSH1 0x40 MLOAD PUSH3 0x461BCD PUSH1 0xE5 SHL DUP2 MSTORE PUSH1 0x4 ADD PUSH2 0xF18 SWAP1 PUSH2 0x2A6E JUMP JUMPDEST PUSH1 0x1 PUSH1 0x1 PUSH1 0xE0 SHL SUB NOT DUP2 AND PUSH32 0x1FFC9A700000000000000000000000000000000000000000000000000000000 EQ SWAP2 SWAP1 POP JUMP JUMPDEST PUSH2 0x235A DUP3 DUP3 PUSH2 0x1BD6 JUMP JUMPDEST ISZERO PUSH2 0x1E06 JUMPI PUSH1 0x0 DUP3 DUP2 MSTORE PUSH1 0x20 DUP2 DUP2 MSTORE PUSH1 0x40 DUP1 DUP4 KECCAK256 PUSH1 0x1 PUSH1 0x1 PUSH1 0xA0 SHL SUB DUP6 AND DUP5 MSTORE SWAP1 SWAP2 MSTORE SWAP1 KECCAK256 DUP1 SLOAD PUSH1 0xFF NOT AND SWAP1 SSTORE PUSH2 0x238F PUSH2 0x1E1F JUMP JUMPDEST PUSH1 0x1 PUSH1 0x1 PUSH1 0xA0 SHL SUB AND DUP2 PUSH1 0x1 PUSH1 0x1 PUSH1 0xA0 SHL SUB AND DUP4 PUSH32 0xF6391F5C32D9C69D2A47EA670B442974B53935D1EDC7FD64EB21E047A839171B PUSH1 0x40 MLOAD PUSH1 0x40 MLOAD DUP1 SWAP2 SUB SWAP1 LOG4 POP POP JUMP JUMPDEST PUSH1 0x0 DUP2 DUP2 MSTORE PUSH1 0x1 DUP4 ADD PUSH1 0x20 MSTORE PUSH1 0x40 DUP2 KECCAK256 SLOAD DUP1 ISZERO PUSH2 0x24E6 JUMPI PUSH1 0x0 PUSH2 0x23F7 PUSH1 0x1 DUP4 PUSH2 0x2D03 JUMP JUMPDEST DUP6 SLOAD SWAP1 SWAP2 POP PUSH1 0x0 SWAP1 PUSH2 0x240B SWAP1 PUSH1 0x1 SWAP1 PUSH2 0x2D03 JUMP JUMPDEST SWAP1 POP DUP2 DUP2 EQ PUSH2 0x248C JUMPI PUSH1 0x0 DUP7 PUSH1 0x0 ADD DUP3 DUP2 SLOAD DUP2 LT PUSH2 0x2439 JUMPI PUSH4 0x4E487B71 PUSH1 0xE0 SHL PUSH1 0x0 MSTORE PUSH1 0x32 PUSH1 0x4 MSTORE PUSH1 0x24 PUSH1 0x0 REVERT JUMPDEST SWAP1 PUSH1 0x0 MSTORE PUSH1 0x20 PUSH1 0x0 KECCAK256 ADD SLOAD SWAP1 POP DUP1 DUP8 PUSH1 0x0 ADD DUP5 DUP2 SLOAD DUP2 LT PUSH2 0x246A JUMPI PUSH4 0x4E487B71 PUSH1 0xE0 SHL PUSH1 0x0 MSTORE PUSH1 0x32 PUSH1 0x4 MSTORE PUSH1 0x24 PUSH1 0x0 REVERT JUMPDEST PUSH1 0x0 SWAP2 DUP3 MSTORE PUSH1 0x20 DUP1 DUP4 KECCAK256 SWAP1 SWAP2 ADD SWAP3 SWAP1 SWAP3 SSTORE SWAP2 DUP3 MSTORE PUSH1 0x1 DUP9 ADD SWAP1 MSTORE PUSH1 0x40 SWAP1 KECCAK256 DUP4 SWAP1 SSTORE JUMPDEST DUP6 SLOAD DUP7 SWAP1 DUP1 PUSH2 0x24AB JUMPI PUSH4 0x4E487B71 PUSH1 0xE0 SHL PUSH1 0x0 MSTORE PUSH1 0x31 PUSH1 0x4 MSTORE PUSH1 0x24 PUSH1 0x0 REVERT JUMPDEST PUSH1 0x1 SWAP1 SUB DUP2 DUP2 SWAP1 PUSH1 0x0 MSTORE PUSH1 0x20 PUSH1 0x0 KECCAK256 ADD PUSH1 0x0 SWAP1 SSTORE SWAP1 SSTORE DUP6 PUSH1 0x1 ADD PUSH1 0x0 DUP7 DUP2 MSTORE PUSH1 0x20 ADD SWAP1 DUP2 MSTORE PUSH1 0x20 ADD PUSH1 0x0 KECCAK256 PUSH1 0x0 SWAP1 SSTORE PUSH1 0x1 SWAP4 POP POP POP POP PUSH2 0x1BD0 JUMP JUMPDEST PUSH1 0x0 SWAP2 POP POP PUSH2 0x1BD0 JUMP JUMPDEST PUSH1 0x0 DUP3 PUSH1 0x0 ADD DUP3 DUP2 SLOAD DUP2 LT PUSH2 0x2515 JUMPI PUSH4 0x4E487B71 PUSH1 0xE0 SHL PUSH1 0x0 MSTORE PUSH1 0x32 PUSH1 0x4 MSTORE PUSH1 0x24 PUSH1 0x0 REVERT JUMPDEST SWAP1 PUSH1 0x0 MSTORE PUSH1 0x20 PUSH1 0x0 KECCAK256 ADD SLOAD SWAP1 POP SWAP3 SWAP2 POP POP JUMP JUMPDEST SLOAD SWAP1 JUMP JUMPDEST PUSH1 0x0 SWAP1 DUP2 MSTORE PUSH1 0x1 SWAP2 SWAP1 SWAP2 ADD PUSH1 0x20 MSTORE PUSH1 0x40 SWAP1 KECCAK256 SLOAD ISZERO ISZERO SWAP1 JUMP JUMPDEST PUSH1 0x40 DUP1 MLOAD DUP1 DUP3 ADD SWAP1 SWAP2 MSTORE PUSH1 0x0 DUP1 DUP3 MSTORE PUSH1 0x20 DUP3 ADD MSTORE SWAP1 JUMP JUMPDEST PUSH1 0x40 MLOAD DUP1 PUSH1 0x80 ADD PUSH1 0x40 MSTORE DUP1 PUSH1 0x0 DUP2 MSTORE PUSH1 0x20 ADD PUSH1 0x0 DUP2 MSTORE PUSH1 0x20 ADD PUSH1 0x0 DUP2 MSTORE PUSH1 0x20 ADD PUSH1 0x0 DUP2 MSTORE POP SWAP1 JUMP JUMPDEST DUP1 CALLDATALOAD PUSH1 0x1 PUSH1 0x1 PUSH1 0xA0 SHL SUB DUP2 AND DUP2 EQ PUSH2 0x959 JUMPI PUSH1 0x0 DUP1 REVERT JUMPDEST PUSH1 0x0 DUP1 DUP4 PUSH1 0x1F DUP5 ADD SLT PUSH2 0x25AB JUMPI DUP2 DUP3 REVERT JUMPDEST POP DUP2 CALLDATALOAD PUSH8 0xFFFFFFFFFFFFFFFF DUP2 GT ISZERO PUSH2 0x25C2 JUMPI DUP2 DUP3 REVERT JUMPDEST PUSH1 0x20 DUP4 ADD SWAP2 POP DUP4 PUSH1 0x20 DUP1 DUP4 MUL DUP6 ADD ADD GT ISZERO PUSH2 0x25DC JUMPI PUSH1 0x0 DUP1 REVERT JUMPDEST SWAP3 POP SWAP3 SWAP1 POP JUMP JUMPDEST PUSH1 0x0 PUSH1 0x20 DUP3 DUP5 SUB SLT ISZERO PUSH2 0x25F4 JUMPI DUP1 DUP2 REVERT JUMPDEST PUSH2 0x1BCD DUP3 PUSH2 0x2583 JUMP JUMPDEST PUSH1 0x0 DUP1 PUSH1 0x40 DUP4 DUP6 SUB SLT ISZERO PUSH2 0x260F JUMPI DUP1 DUP2 REVERT JUMPDEST PUSH2 0x2618 DUP4 PUSH2 0x2583 JUMP JUMPDEST SWAP2 POP PUSH2 0x2626 PUSH1 0x20 DUP5 ADD PUSH2 0x2583 JUMP JUMPDEST SWAP1 POP SWAP3 POP SWAP3 SWAP1 POP JUMP JUMPDEST PUSH1 0x0 DUP1 PUSH1 0x0 PUSH1 0x40 DUP5 DUP7 SUB SLT ISZERO PUSH2 0x2643 JUMPI DUP1 DUP2 REVERT JUMPDEST PUSH2 0x264C DUP5 PUSH2 0x2583 JUMP JUMPDEST SWAP3 POP PUSH1 0x20 DUP5 ADD CALLDATALOAD PUSH8 0xFFFFFFFFFFFFFFFF DUP2 GT ISZERO PUSH2 0x2667 JUMPI DUP2 DUP3 REVERT JUMPDEST PUSH2 0x2673 DUP7 DUP3 DUP8 ADD PUSH2 0x259A JUMP JUMPDEST SWAP5 SWAP8 SWAP1 SWAP7 POP SWAP4 SWAP5 POP POP POP POP JUMP JUMPDEST PUSH1 0x0 DUP1 PUSH1 0x40 DUP4 DUP6 SUB SLT ISZERO PUSH2 0x2692 JUMPI DUP2 DUP3 REVERT JUMPDEST PUSH2 0x269B DUP4 PUSH2 0x2583 JUMP JUMPDEST SWAP5 PUSH1 0x20 SWAP4 SWAP1 SWAP4 ADD CALLDATALOAD SWAP4 POP POP POP JUMP JUMPDEST PUSH1 0x0 DUP1 PUSH1 0x20 DUP4 DUP6 SUB SLT ISZERO PUSH2 0x26BB JUMPI DUP2 DUP3 REVERT JUMPDEST DUP3 CALLDATALOAD PUSH8 0xFFFFFFFFFFFFFFFF DUP2 GT ISZERO PUSH2 0x26D1 JUMPI DUP3 DUP4 REVERT JUMPDEST PUSH2 0x26DD DUP6 DUP3 DUP7 ADD PUSH2 0x259A JUMP JUMPDEST SWAP1 SWAP7 SWAP1 SWAP6 POP SWAP4 POP POP POP POP JUMP JUMPDEST PUSH1 0x0 DUP1 PUSH1 0x20 DUP4 DUP6 SUB SLT ISZERO PUSH2 0x26FB JUMPI DUP2 DUP3 REVERT JUMPDEST DUP3 CALLDATALOAD PUSH8 0xFFFFFFFFFFFFFFFF DUP1 DUP3 GT ISZERO PUSH2 0x2712 JUMPI DUP4 DUP5 REVERT JUMPDEST DUP2 DUP6 ADD SWAP2 POP DUP6 PUSH1 0x1F DUP4 ADD SLT PUSH2 0x2725 JUMPI DUP4 DUP5 REVERT JUMPDEST DUP2 CALLDATALOAD DUP2 DUP2 GT ISZERO PUSH2 0x2733 JUMPI DUP5 DUP6 REVERT JUMPDEST DUP7 PUSH1 0x20 PUSH1 0x40 DUP4 MUL DUP6 ADD ADD GT ISZERO PUSH2 0x2747 JUMPI DUP5 DUP6 REVERT JUMPDEST PUSH1 0x20 SWAP3 SWAP1 SWAP3 ADD SWAP7 SWAP2 SWAP6 POP SWAP1 SWAP4 POP POP POP POP JUMP JUMPDEST PUSH1 0x0 DUP1 PUSH1 0x0 PUSH1 0x60 DUP5 DUP7 SUB SLT ISZERO PUSH2 0x276D JUMPI DUP3 DUP4 REVERT JUMPDEST DUP4 CALLDATALOAD DUP1 ISZERO ISZERO DUP2 EQ PUSH2 0x277C JUMPI DUP4 DUP5 REVERT JUMPDEST SWAP3 POP PUSH2 0x278A PUSH1 0x20 DUP6 ADD PUSH2 0x2583 JUMP JUMPDEST SWAP2 POP PUSH1 0x40 DUP5 ADD CALLDATALOAD SWAP1 POP SWAP3 POP SWAP3 POP SWAP3 JUMP JUMPDEST PUSH1 0x0 PUSH1 0x20 DUP3 DUP5 SUB SLT ISZERO PUSH2 0x27AB JUMPI DUP1 DUP2 REVERT JUMPDEST POP CALLDATALOAD SWAP2 SWAP1 POP JUMP JUMPDEST PUSH1 0x0 DUP1 PUSH1 0x40 DUP4 DUP6 SUB SLT ISZERO PUSH2 0x27C4 JUMPI DUP2 DUP3 REVERT JUMPDEST DUP3 CALLDATALOAD SWAP2 POP PUSH2 0x2626 PUSH1 0x20 DUP5 ADD PUSH2 0x2583 JUMP JUMPDEST PUSH1 0x0 DUP1 PUSH1 0x40 DUP4 DUP6 SUB SLT ISZERO PUSH2 0x27E6 JUMPI DUP2 DUP3 REVERT JUMPDEST POP POP DUP1 CALLDATALOAD SWAP3 PUSH1 0x20 SWAP1 SWAP2 ADD CALLDATALOAD SWAP2 POP JUMP JUMPDEST PUSH1 0x0 PUSH1 0x20 DUP3 DUP5 SUB SLT ISZERO PUSH2 0x2806 JUMPI DUP1 DUP2 REVERT JUMPDEST DUP2 CALLDATALOAD PUSH1 0x1 PUSH1 0x1 PUSH1 0xE0 SHL SUB NOT DUP2 AND DUP2 EQ PUSH2 0x1BCD JUMPI DUP2 DUP3 REVERT JUMPDEST PUSH1 0x0 PUSH1 0xA0 DUP3 DUP5 SUB SLT ISZERO PUSH2 0x282E JUMPI DUP1 DUP2 REVERT JUMPDEST POP SWAP2 SWAP1 POP JUMP JUMPDEST PUSH1 0x0 DUP1 PUSH1 0x0 DUP1 PUSH1 0x0 PUSH1 0xA0 DUP7 DUP9 SUB SLT ISZERO PUSH2 0x284B JUMPI DUP1 DUP2 REVERT JUMPDEST POP POP DUP4 CALLDATALOAD SWAP6 PUSH1 0x20 DUP6 ADD CALLDATALOAD SWAP6 POP PUSH1 0x40 DUP6 ADD CALLDATALOAD SWAP5 PUSH1 0x60 DUP2 ADD CALLDATALOAD SWAP5 POP PUSH1 0x80 ADD CALLDATALOAD SWAP3 POP SWAP1 POP JUMP JUMPDEST PUSH1 0x0 PUSH32 0x416363657373436F6E74726F6C3A206163636F756E7420000000000000000000 DUP3 MSTORE DUP4 MLOAD PUSH2 0x28A6 DUP2 PUSH1 0x17 DUP6 ADD PUSH1 0x20 DUP9 ADD PUSH2 0x2D1A JUMP JUMPDEST PUSH32 0x206973206D697373696E6720726F6C6520000000000000000000000000000000 PUSH1 0x17 SWAP2 DUP5 ADD SWAP2 DUP3 ADD MSTORE DUP4 MLOAD PUSH2 0x28E3 DUP2 PUSH1 0x28 DUP5 ADD PUSH1 0x20 DUP9 ADD PUSH2 0x2D1A JUMP JUMPDEST ADD PUSH1 0x28 ADD SWAP5 SWAP4 POP POP POP POP JUMP JUMPDEST PUSH1 0x1 PUSH1 0x1 PUSH1 0xA0 SHL SUB SWAP2 SWAP1 SWAP2 AND DUP2 MSTORE PUSH1 0x20 ADD SWAP1 JUMP JUMPDEST PUSH1 0x1 PUSH1 0x1 PUSH1 0xA0 SHL SUB SWAP3 DUP4 AND DUP2 MSTORE SWAP2 AND PUSH1 0x20 DUP3 ADD MSTORE PUSH1 0x40 ADD SWAP1 JUMP JUMPDEST PUSH1 0x1 PUSH1 0x1 PUSH1 0xA0 SHL SUB SWAP4 DUP5 AND DUP2 MSTORE SWAP2 DUP4 AND PUSH1 0x20 DUP4 ADD MSTORE SWAP1 SWAP2 AND PUSH1 0x40 DUP3 ADD MSTORE PUSH1 0x60 ADD SWAP1 JUMP JUMPDEST PUSH1 0x1 PUSH1 0x1 PUSH1 0xA0 SHL SUB SWAP5 DUP6 AND DUP2 MSTORE SWAP3 SWAP1 SWAP4 AND PUSH1 0x20 DUP4 ADD MSTORE PUSH1 0x40 DUP3 ADD MSTORE PUSH1 0x60 DUP2 ADD SWAP2 SWAP1 SWAP2 MSTORE PUSH1 0x80 ADD SWAP1 JUMP JUMPDEST PUSH1 0x1 PUSH1 0x1 PUSH1 0xA0 SHL SUB SWAP3 SWAP1 SWAP3 AND DUP3 MSTORE PUSH1 0x20 DUP3 ADD MSTORE PUSH1 0x40 ADD SWAP1 JUMP JUMPDEST PUSH1 0x20 DUP1 DUP3 MSTORE DUP3 MLOAD DUP3 DUP3 ADD DUP2 SWAP1 MSTORE PUSH1 0x0 SWAP2 SWAP1 DUP5 DUP3 ADD SWAP1 PUSH1 0x40 DUP6 ADD SWAP1 DUP5 JUMPDEST DUP2 DUP2 LT ISZERO PUSH2 0x29C3 JUMPI DUP4 MLOAD PUSH1 0x1 PUSH1 0x1 PUSH1 0xA0 SHL SUB AND DUP4 MSTORE SWAP3 DUP5 ADD SWAP3 SWAP2 DUP5 ADD SWAP2 PUSH1 0x1 ADD PUSH2 0x299E JUMP JUMPDEST POP SWAP1 SWAP7 SWAP6 POP POP POP POP POP POP JUMP JUMPDEST PUSH1 0x20 DUP1 DUP3 MSTORE DUP3 MLOAD DUP3 DUP3 ADD DUP2 SWAP1 MSTORE PUSH1 0x0 SWAP2 SWAP1 PUSH1 0x40 SWAP1 DUP2 DUP6 ADD SWAP1 DUP7 DUP5 ADD DUP6 JUMPDEST DUP3 DUP2 LT ISZERO PUSH2 0x2A1A JUMPI DUP2 MLOAD DUP1 MLOAD PUSH1 0x1 PUSH1 0x1 PUSH1 0xA0 SHL SUB AND DUP6 MSTORE DUP7 ADD MLOAD DUP7 DUP6 ADD MSTORE SWAP3 DUP5 ADD SWAP3 SWAP1 DUP6 ADD SWAP1 PUSH1 0x1 ADD PUSH2 0x29EC JUMP JUMPDEST POP SWAP2 SWAP8 SWAP7 POP POP POP POP POP POP POP JUMP JUMPDEST SWAP1 ISZERO ISZERO DUP2 MSTORE PUSH1 0x20 ADD SWAP1 JUMP JUMPDEST SWAP1 DUP2 MSTORE PUSH1 0x20 ADD SWAP1 JUMP JUMPDEST PUSH1 0x0 PUSH1 0x20 DUP3 MSTORE DUP3 MLOAD DUP1 PUSH1 0x20 DUP5 ADD MSTORE PUSH2 0x2A5A DUP2 PUSH1 0x40 DUP6 ADD PUSH1 0x20 DUP8 ADD PUSH2 0x2D1A JUMP JUMPDEST PUSH1 0x1F ADD PUSH1 0x1F NOT AND SWAP2 SWAP1 SWAP2 ADD PUSH1 0x40 ADD SWAP3 SWAP2 POP POP JUMP JUMPDEST PUSH1 0x20 DUP1 DUP3 MSTORE DUP2 DUP2 ADD MSTORE PUSH32 0x537472696E67733A20686578206C656E67746820696E73756666696369656E74 PUSH1 0x40 DUP3 ADD MSTORE PUSH1 0x60 ADD SWAP1 JUMP JUMPDEST PUSH1 0x20 DUP1 DUP3 MSTORE PUSH1 0xA SWAP1 DUP3 ADD MSTORE PUSH32 0x4E42543A2021775F637400000000000000000000000000000000000000000000 PUSH1 0x40 DUP3 ADD MSTORE PUSH1 0x60 ADD SWAP1 JUMP JUMPDEST PUSH1 0x20 DUP1 DUP3 MSTORE PUSH1 0xC SWAP1 DUP3 ADD MSTORE PUSH32 0x4E42543A2021616D6F756E740000000000000000000000000000000000000000 PUSH1 0x40 DUP3 ADD MSTORE PUSH1 0x60 ADD SWAP1 JUMP JUMPDEST PUSH1 0x20 DUP1 DUP3 MSTORE PUSH1 0xE SWAP1 DUP3 ADD MSTORE PUSH32 0x4E42543A2021636F6E7472616374000000000000000000000000000000000000 PUSH1 0x40 DUP3 ADD MSTORE PUSH1 0x60 ADD SWAP1 JUMP JUMPDEST PUSH1 0x20 DUP1 DUP3 MSTORE PUSH1 0xE SWAP1 DUP3 ADD MSTORE PUSH32 0x4E42543A202173656C665F726566000000000000000000000000000000000000 PUSH1 0x40 DUP3 ADD MSTORE PUSH1 0x60 ADD SWAP1 JUMP JUMPDEST PUSH1 0x20 DUP1 DUP3 MSTORE PUSH1 0xB SWAP1 DUP3 ADD MSTORE PUSH32 0x4E42543A202168756D616E000000000000000000000000000000000000000000 PUSH1 0x40 DUP3 ADD MSTORE PUSH1 0x60 ADD SWAP1 JUMP JUMPDEST PUSH1 0x20 DUP1 DUP3 MSTORE PUSH1 0xA SWAP1 DUP3 ADD MSTORE PUSH32 0x4E42543A20216275726E00000000000000000000000000000000000000000000 PUSH1 0x40 DUP3 ADD MSTORE PUSH1 0x60 ADD SWAP1 JUMP JUMPDEST PUSH1 0x20 DUP1 DUP3 MSTORE PUSH1 0x10 SWAP1 DUP3 ADD MSTORE PUSH32 0x4E42543A20216D757475616C5F72656600000000000000000000000000000000 PUSH1 0x40 DUP3 ADD MSTORE PUSH1 0x60 ADD SWAP1 JUMP JUMPDEST PUSH1 0x20 DUP1 DUP3 MSTORE PUSH1 0x2F SWAP1 DUP3 ADD MSTORE PUSH32 0x416363657373436F6E74726F6C3A2063616E206F6E6C792072656E6F756E6365 PUSH1 0x40 DUP3 ADD MSTORE PUSH32 0x20726F6C657320666F722073656C660000000000000000000000000000000000 PUSH1 0x60 DUP3 ADD MSTORE PUSH1 0x80 ADD SWAP1 JUMP JUMPDEST DUP2 MLOAD DUP2 MSTORE PUSH1 0x20 DUP1 DUP4 ADD MLOAD SWAP1 DUP3 ADD MSTORE PUSH1 0x40 DUP1 DUP4 ADD MLOAD SWAP1 DUP3 ADD MSTORE PUSH1 0x60 SWAP2 DUP3 ADD MLOAD SWAP2 DUP2 ADD SWAP2 SWAP1 SWAP2 MSTORE PUSH1 0x80 ADD SWAP1 JUMP JUMPDEST PUSH1 0x0 DUP3 NOT DUP3 GT ISZERO PUSH2 0x2CBF JUMPI PUSH2 0x2CBF PUSH2 0x2D78 JUMP JUMPDEST POP ADD SWAP1 JUMP JUMPDEST PUSH1 0x0 DUP3 PUSH2 0x2CDF JUMPI PUSH4 0x4E487B71 PUSH1 0xE0 SHL DUP2 MSTORE PUSH1 0x12 PUSH1 0x4 MSTORE PUSH1 0x24 DUP2 REVERT JUMPDEST POP DIV SWAP1 JUMP JUMPDEST PUSH1 0x0 DUP2 PUSH1 0x0 NOT DIV DUP4 GT DUP3 ISZERO ISZERO AND ISZERO PUSH2 0x2CFE JUMPI PUSH2 0x2CFE PUSH2 0x2D78 JUMP JUMPDEST POP MUL SWAP1 JUMP JUMPDEST PUSH1 0x0 DUP3 DUP3 LT ISZERO PUSH2 0x2D15 JUMPI PUSH2 0x2D15 PUSH2 0x2D78 JUMP JUMPDEST POP SUB SWAP1 JUMP JUMPDEST PUSH1 0x0 JUMPDEST DUP4 DUP2 LT ISZERO PUSH2 0x2D35 JUMPI DUP2 DUP2 ADD MLOAD DUP4 DUP3 ADD MSTORE PUSH1 0x20 ADD PUSH2 0x2D1D JUMP JUMPDEST DUP4 DUP2 GT ISZERO PUSH2 0x9F3 JUMPI POP POP PUSH1 0x0 SWAP2 ADD MSTORE JUMP JUMPDEST PUSH1 0x0 DUP2 PUSH2 0x2D55 JUMPI PUSH2 0x2D55 PUSH2 0x2D78 JUMP JUMPDEST POP PUSH1 0x0 NOT ADD SWAP1 JUMP JUMPDEST PUSH1 0x0 PUSH1 0x0 NOT DUP3 EQ ISZERO PUSH2 0x2D71 JUMPI PUSH2 0x2D71 PUSH2 0x2D78 JUMP JUMPDEST POP PUSH1 0x1 ADD SWAP1 JUMP JUMPDEST PUSH4 0x4E487B71 PUSH1 0xE0 SHL PUSH1 0x0 MSTORE PUSH1 0x11 PUSH1 0x4 MSTORE PUSH1 0x24 PUSH1 0x0 REVERT INVALID LOG2 PUSH5 0x6970667358 0x22 SLT KECCAK256 MOD 0xB0 KECCAK256 0xBB LOG4 RETURN 0x4E 0xBE EQ PUSH11 0xC6FCBACA38294F1FF97167 0xED SWAP3 GAS SWAP8 PUSH10 0x939A7745DEFC64736F6C PUSH4 0x43000801 STOP CALLER "
		},
		"gasEstimates": {
			"creation": {
				"codeDepositCost": "2343200",
				"executionCost": "infinite",
				"totalCost": "infinite"
			},
			"external": {
				"ROLE_ADMIN()": "318",
				"ROLE_CUSTOM_TAX()": "296",
				"ROLE_EXCLUDE_FROM_BALANCE()": "317",
				"ROLE_WHITELIST()": "318",
				"batchBurnAndReward()": "1141",
				"botTaxPercent()": "1097",
				"cachedMultiplier()": "1140",
				"chargeCustomTax(uint256,uint256)": "infinite",
				"chargeCustomTaxTeamVestingContract(uint256,uint256)": "infinite",
				"clearReferrerRewards(address)": "infinite",
				"customTaxPercents(address)": "1368",
				"filterNonZeroReferrals(address[])": "infinite",
				"firstLevelRefPercent()": "1139",
				"getBalance(address,uint256)": "infinite",
				"getCachedReferrerRewards(address)": "infinite",
				"getCalculatedReferrerRewards(address,address[])": "infinite",
				"getRealBalance(address,uint256)": "infinite",
				"getRealBalanceTeamVestingContract(uint256)": "infinite",
				"getRewardsBalance()": "infinite",
				"getRoleAdmin(bytes32)": "1271",
				"getRoleMember(bytes32,uint256)": "infinite",
				"getRoleMemberCount(bytes32)": "infinite",
				"getTemporaryReferralRealAmountsBulk(address[])": "infinite",
				"getTotalSupply()": "infinite",
				"grantRole(bytes32,address)": "infinite",
				"grantRolesBulk((bytes32,address)[])": "infinite",
				"hasRole(bytes32,address)": "1495",
				"howManyBlocksAgoReceived()": "1119",
				"howManyBlocksAgoSent()": "1095",
				"humanTaxPercent()": "1096",
				"lastCachedTimestamp()": "1096",
				"prepareHumanAddressMintOrBurnRewardsAmounts(bool,address,uint256)": "infinite",
				"prepareTaxAmounts((address,address,uint256,uint256,uint256))": "infinite",
				"publicForcedUpdateCacheMultiplier()": "infinite",
				"realTotalSupply()": "1116",
				"refTaxPercent()": "1096",
				"referralToReferrer(address)": "1409",
				"referrerRealBalances(address)": "1322",
				"registerReferral(address,address)": "infinite",
				"renounceRole(bytes32,address)": "infinite",
				"revokeRole(bytes32,address)": "infinite",
				"rewardsBalance()": "1119",
				"secondLevelRefPercent()": "1117",
				"secondsBetweenUpdates()": "1141",
				"supportsInterface(bytes4)": "infinite",
				"temporaryReferralRealAmounts(address)": "1325",
				"updateCustomTaxForAddress(address,uint256)": "infinite",
				"updateHowManyBlocksAgo(uint256,uint256)": "infinite",
				"updateReCachePeriod(uint256)": "infinite",
				"updateReferrersRewards(address[])": "infinite",
				"updateTaxPercent(uint256,uint256,uint256,uint256,uint256)": "infinite"
			},
			"internal": {
				"delayedUpdateCacheMultiplier()": "infinite",
				"forcedUpdateCacheMultiplier()": "infinite",
				"isNotContract(address)": "715"
			}
		},
		"methodIdentifiers": {
			"ROLE_ADMIN()": "d391014b",
			"ROLE_CUSTOM_TAX()": "503a77ae",
			"ROLE_EXCLUDE_FROM_BALANCE()": "d590b71e",
			"ROLE_WHITELIST()": "9e01e31c",
			"batchBurnAndReward()": "1336a98f",
			"botTaxPercent()": "1857b512",
			"cachedMultiplier()": "36177818",
			"chargeCustomTax(uint256,uint256)": "36098758",
			"chargeCustomTaxTeamVestingContract(uint256,uint256)": "a202bd52",
			"clearReferrerRewards(address)": "e3556819",
			"customTaxPercents(address)": "d415a82d",
			"filterNonZeroReferrals(address[])": "82e17b65",
			"firstLevelRefPercent()": "7b197233",
			"getBalance(address,uint256)": "2b04e840",
			"getCachedReferrerRewards(address)": "4abd991d",
			"getCalculatedReferrerRewards(address,address[])": "00245783",
			"getRealBalance(address,uint256)": "5cdba003",
			"getRealBalanceTeamVestingContract(uint256)": "cb123637",
			"getRewardsBalance()": "858a135d",
			"getRoleAdmin(bytes32)": "248a9ca3",
			"getRoleMember(bytes32,uint256)": "9010d07c",
			"getRoleMemberCount(bytes32)": "ca15c873",
			"getTemporaryReferralRealAmountsBulk(address[])": "68a2972f",
			"getTotalSupply()": "c4e41b22",
			"grantRole(bytes32,address)": "2f2ff15d",
			"grantRolesBulk((bytes32,address)[])": "03ed957f",
			"hasRole(bytes32,address)": "91d14854",
			"howManyBlocksAgoReceived()": "837376af",
			"howManyBlocksAgoSent()": "aa46d678",
			"humanTaxPercent()": "87d1f05d",
			"lastCachedTimestamp()": "40142e55",
			"prepareHumanAddressMintOrBurnRewardsAmounts(bool,address,uint256)": "42e58a63",
			"prepareTaxAmounts((address,address,uint256,uint256,uint256))": "815a61e0",
			"publicForcedUpdateCacheMultiplier()": "e8ac6e4e",
			"realTotalSupply()": "ef356a79",
			"refTaxPercent()": "975ea108",
			"referralToReferrer(address)": "deaf0fa1",
			"referrerRealBalances(address)": "e91c4652",
			"registerReferral(address,address)": "5603b9f9",
			"renounceRole(bytes32,address)": "36568abe",
			"revokeRole(bytes32,address)": "d547741f",
			"rewardsBalance()": "131f2e53",
			"secondLevelRefPercent()": "b3830c8c",
			"secondsBetweenUpdates()": "3e6e4496",
			"supportsInterface(bytes4)": "01ffc9a7",
			"temporaryReferralRealAmounts(address)": "0f3ebe5d",
			"updateCustomTaxForAddress(address,uint256)": "fc087572",
			"updateHowManyBlocksAgo(uint256,uint256)": "e69594e3",
			"updateReCachePeriod(uint256)": "ef357df1",
			"updateReferrersRewards(address[])": "3830551a",
			"updateTaxPercent(uint256,uint256,uint256,uint256,uint256)": "6bc833f3"
		}
	},
	"abi": [
		{
			"inputs": [],
			"stateMutability": "nonpayable",
			"type": "constructor"
		},
		{
			"anonymous": false,
			"inputs": [
				{
					"indexed": false,
					"internalType": "address",
					"name": "from",
					"type": "address"
				},
				{
					"indexed": false,
					"internalType": "address",
					"name": "to",
					"type": "address"
				},
				{
					"indexed": false,
					"internalType": "uint256",
					"name": "transferAmount",
					"type": "uint256"
				},
				{
					"indexed": false,
					"internalType": "uint256",
					"name": "taxedAmount",
					"type": "uint256"
				}
			],
			"name": "BotTransactionDetected",
			"type": "event"
		},
		{
			"anonymous": false,
			"inputs": [
				{
					"indexed": false,
					"internalType": "uint256",
					"name": "newMultiplier",
					"type": "uint256"
				}
			],
			"name": "MultiplierUpdated",
			"type": "event"
		},
		{
			"anonymous": false,
			"inputs": [
				{
					"indexed": false,
					"internalType": "address",
					"name": "referral",
					"type": "address"
				},
				{
					"indexed": false,
					"internalType": "address",
					"name": "referrer",
					"type": "address"
				}
			],
			"name": "ReferralRegistered",
			"type": "event"
		},
		{
			"anonymous": false,
			"inputs": [
				{
					"indexed": false,
					"internalType": "address",
					"name": "referral",
					"type": "address"
				},
				{
					"indexed": false,
					"internalType": "address",
					"name": "referrerFrom",
					"type": "address"
				},
				{
					"indexed": false,
					"internalType": "address",
					"name": "referrerTo",
					"type": "address"
				}
			],
			"name": "ReferrerReplaced",
			"type": "event"
		},
		{
			"anonymous": false,
			"inputs": [
				{
					"indexed": false,
					"internalType": "address",
					"name": "referrer",
					"type": "address"
				},
				{
					"indexed": false,
					"internalType": "uint256",
					"name": "amount",
					"type": "uint256"
				}
			],
			"name": "ReferrerRewardUpdated",
			"type": "event"
		},
		{
			"anonymous": false,
			"inputs": [
				{
					"indexed": true,
					"internalType": "bytes32",
					"name": "role",
					"type": "bytes32"
				},
				{
					"indexed": true,
					"internalType": "bytes32",
					"name": "previousAdminRole",
					"type": "bytes32"
				},
				{
					"indexed": true,
					"internalType": "bytes32",
					"name": "newAdminRole",
					"type": "bytes32"
				}
			],
			"name": "RoleAdminChanged",
			"type": "event"
		},
		{
			"anonymous": false,
			"inputs": [
				{
					"indexed": true,
					"internalType": "bytes32",
					"name": "role",
					"type": "bytes32"
				},
				{
					"indexed": true,
					"internalType": "address",
					"name": "account",
					"type": "address"
				},
				{
					"indexed": true,
					"internalType": "address",
					"name": "sender",
					"type": "address"
				}
			],
			"name": "RoleGranted",
			"type": "event"
		},
		{
			"anonymous": false,
			"inputs": [
				{
					"indexed": true,
					"internalType": "bytes32",
					"name": "role",
					"type": "bytes32"
				},
				{
					"indexed": true,
					"internalType": "address",
					"name": "account",
					"type": "address"
				},
				{
					"indexed": true,
					"internalType": "address",
					"name": "sender",
					"type": "address"
				}
			],
			"name": "RoleRevoked",
			"type": "event"
		},
		{
			"inputs": [],
			"name": "ROLE_ADMIN",
			"outputs": [
				{
					"internalType": "bytes32",
					"name": "",
					"type": "bytes32"
				}
			],
			"stateMutability": "view",
			"type": "function"
		},
		{
			"inputs": [],
			"name": "ROLE_CUSTOM_TAX",
			"outputs": [
				{
					"internalType": "bytes32",
					"name": "",
					"type": "bytes32"
				}
			],
			"stateMutability": "view",
			"type": "function"
		},
		{
			"inputs": [],
			"name": "ROLE_EXCLUDE_FROM_BALANCE",
			"outputs": [
				{
					"internalType": "bytes32",
					"name": "",
					"type": "bytes32"
				}
			],
			"stateMutability": "view",
			"type": "function"
		},
		{
			"inputs": [],
			"name": "ROLE_WHITELIST",
			"outputs": [
				{
					"internalType": "bytes32",
					"name": "",
					"type": "bytes32"
				}
			],
			"stateMutability": "view",
			"type": "function"
		},
		{
			"inputs": [],
			"name": "batchBurnAndReward",
			"outputs": [
				{
					"internalType": "uint256",
					"name": "",
					"type": "uint256"
				}
			],
			"stateMutability": "view",
			"type": "function"
		},
		{
			"inputs": [],
			"name": "botTaxPercent",
			"outputs": [
				{
					"internalType": "uint256",
					"name": "",
					"type": "uint256"
				}
			],
			"stateMutability": "view",
			"type": "function"
		},
		{
			"inputs": [],
			"name": "cachedMultiplier",
			"outputs": [
				{
					"internalType": "uint256",
					"name": "",
					"type": "uint256"
				}
			],
			"stateMutability": "view",
			"type": "function"
		},
		{
			"inputs": [
				{
					"internalType": "uint256",
					"name": "taxAmount",
					"type": "uint256"
				},
				{
					"internalType": "uint256",
					"name": "accountBalance",
					"type": "uint256"
				}
			],
			"name": "chargeCustomTax",
			"outputs": [
				{
					"internalType": "uint256",
					"name": "",
					"type": "uint256"
				}
			],
			"stateMutability": "nonpayable",
			"type": "function"
		},
		{
			"inputs": [
				{
					"internalType": "uint256",
					"name": "taxAmount",
					"type": "uint256"
				},
				{
					"internalType": "uint256",
					"name": "accountBalance",
					"type": "uint256"
				}
			],
			"name": "chargeCustomTaxTeamVestingContract",
			"outputs": [
				{
					"internalType": "uint256",
					"name": "",
					"type": "uint256"
				}
			],
			"stateMutability": "nonpayable",
			"type": "function"
		},
		{
			"inputs": [
				{
					"internalType": "address",
					"name": "addr",
					"type": "address"
				}
			],
			"name": "clearReferrerRewards",
			"outputs": [],
			"stateMutability": "nonpayable",
			"type": "function"
		},
		{
			"inputs": [
				{
					"internalType": "address",
					"name": "",
					"type": "address"
				}
			],
			"name": "customTaxPercents",
			"outputs": [
				{
					"internalType": "uint256",
					"name": "",
					"type": "uint256"
				}
			],
			"stateMutability": "view",
			"type": "function"
		},
		{
			"inputs": [
				{
					"internalType": "address[]",
					"name": "referrals",
					"type": "address[]"
				}
			],
			"name": "filterNonZeroReferrals",
			"outputs": [
				{
					"internalType": "address[]",
					"name": "",
					"type": "address[]"
				}
			],
			"stateMutability": "view",
			"type": "function"
		},
		{
			"inputs": [],
			"name": "firstLevelRefPercent",
			"outputs": [
				{
					"internalType": "uint256",
					"name": "",
					"type": "uint256"
				}
			],
			"stateMutability": "view",
			"type": "function"
		},
		{
			"inputs": [
				{
					"internalType": "address",
					"name": "account",
					"type": "address"
				},
				{
					"internalType": "uint256",
					"name": "accountBalance",
					"type": "uint256"
				}
			],
			"name": "getBalance",
			"outputs": [
				{
					"internalType": "uint256",
					"name": "",
					"type": "uint256"
				}
			],
			"stateMutability": "view",
			"type": "function"
		},
		{
			"inputs": [
				{
					"internalType": "address",
					"name": "referrer",
					"type": "address"
				}
			],
			"name": "getCachedReferrerRewards",
			"outputs": [
				{
					"internalType": "uint256",
					"name": "",
					"type": "uint256"
				}
			],
			"stateMutability": "view",
			"type": "function"
		},
		{
			"inputs": [
				{
					"internalType": "address",
					"name": "referrer",
					"type": "address"
				},
				{
					"internalType": "address[]",
					"name": "referrals",
					"type": "address[]"
				}
			],
			"name": "getCalculatedReferrerRewards",
			"outputs": [
				{
					"internalType": "uint256",
					"name": "",
					"type": "uint256"
				}
			],
			"stateMutability": "view",
			"type": "function"
		},
		{
			"inputs": [
				{
					"internalType": "address",
					"name": "account",
					"type": "address"
				},
				{
					"internalType": "uint256",
					"name": "accountBalance",
					"type": "uint256"
				}
			],
			"name": "getRealBalance",
			"outputs": [
				{
					"internalType": "uint256",
					"name": "",
					"type": "uint256"
				}
			],
			"stateMutability": "view",
			"type": "function"
		},
		{
			"inputs": [
				{
					"internalType": "uint256",
					"name": "accountBalance",
					"type": "uint256"
				}
			],
			"name": "getRealBalanceTeamVestingContract",
			"outputs": [
				{
					"internalType": "uint256",
					"name": "",
					"type": "uint256"
				}
			],
			"stateMutability": "view",
			"type": "function"
		},
		{
			"inputs": [],
			"name": "getRewardsBalance",
			"outputs": [
				{
					"internalType": "uint256",
					"name": "",
					"type": "uint256"
				}
			],
			"stateMutability": "view",
			"type": "function"
		},
		{
			"inputs": [
				{
					"internalType": "bytes32",
					"name": "role",
					"type": "bytes32"
				}
			],
			"name": "getRoleAdmin",
			"outputs": [
				{
					"internalType": "bytes32",
					"name": "",
					"type": "bytes32"
				}
			],
			"stateMutability": "view",
			"type": "function"
		},
		{
			"inputs": [
				{
					"internalType": "bytes32",
					"name": "role",
					"type": "bytes32"
				},
				{
					"internalType": "uint256",
					"name": "index",
					"type": "uint256"
				}
			],
			"name": "getRoleMember",
			"outputs": [
				{
					"internalType": "address",
					"name": "",
					"type": "address"
				}
			],
			"stateMutability": "view",
			"type": "function"
		},
		{
			"inputs": [
				{
					"internalType": "bytes32",
					"name": "role",
					"type": "bytes32"
				}
			],
			"name": "getRoleMemberCount",
			"outputs": [
				{
					"internalType": "uint256",
					"name": "",
					"type": "uint256"
				}
			],
			"stateMutability": "view",
			"type": "function"
		},
		{
			"inputs": [
				{
					"internalType": "address[]",
					"name": "addrs",
					"type": "address[]"
				}
			],
			"name": "getTemporaryReferralRealAmountsBulk",
			"outputs": [
				{
					"components": [
						{
							"internalType": "address",
							"name": "addr",
							"type": "address"
						},
						{
							"internalType": "uint256",
							"name": "realBalance",
							"type": "uint256"
						}
					],
					"internalType": "struct TemporaryReferralRealAmountsBulk[]",
					"name": "",
					"type": "tuple[]"
				}
			],
			"stateMutability": "view",
			"type": "function"
		},
		{
			"inputs": [],
			"name": "getTotalSupply",
			"outputs": [
				{
					"internalType": "uint256",
					"name": "",
					"type": "uint256"
				}
			],
			"stateMutability": "view",
			"type": "function"
		},
		{
			"inputs": [
				{
					"internalType": "bytes32",
					"name": "role",
					"type": "bytes32"
				},
				{
					"internalType": "address",
					"name": "account",
					"type": "address"
				}
			],
			"name": "grantRole",
			"outputs": [],
			"stateMutability": "nonpayable",
			"type": "function"
		},
		{
			"inputs": [
				{
					"components": [
						{
							"internalType": "bytes32",
							"name": "role",
							"type": "bytes32"
						},
						{
							"internalType": "address",
							"name": "addr",
							"type": "address"
						}
					],
					"internalType": "struct NoBotsTech.RoleAccess[]",
					"name": "roles",
					"type": "tuple[]"
				}
			],
			"name": "grantRolesBulk",
			"outputs": [],
			"stateMutability": "nonpayable",
			"type": "function"
		},
		{
			"inputs": [
				{
					"internalType": "bytes32",
					"name": "role",
					"type": "bytes32"
				},
				{
					"internalType": "address",
					"name": "account",
					"type": "address"
				}
			],
			"name": "hasRole",
			"outputs": [
				{
					"internalType": "bool",
					"name": "",
					"type": "bool"
				}
			],
			"stateMutability": "view",
			"type": "function"
		},
		{
			"inputs": [],
			"name": "howManyBlocksAgoReceived",
			"outputs": [
				{
					"internalType": "uint256",
					"name": "",
					"type": "uint256"
				}
			],
			"stateMutability": "view",
			"type": "function"
		},
		{
			"inputs": [],
			"name": "howManyBlocksAgoSent",
			"outputs": [
				{
					"internalType": "uint256",
					"name": "",
					"type": "uint256"
				}
			],
			"stateMutability": "view",
			"type": "function"
		},
		{
			"inputs": [],
			"name": "humanTaxPercent",
			"outputs": [
				{
					"internalType": "uint256",
					"name": "",
					"type": "uint256"
				}
			],
			"stateMutability": "view",
			"type": "function"
		},
		{
			"inputs": [],
			"name": "lastCachedTimestamp",
			"outputs": [
				{
					"internalType": "uint256",
					"name": "",
					"type": "uint256"
				}
			],
			"stateMutability": "view",
			"type": "function"
		},
		{
			"inputs": [
				{
					"internalType": "bool",
					"name": "isMint",
					"type": "bool"
				},
				{
					"internalType": "address",
					"name": "account",
					"type": "address"
				},
				{
					"internalType": "uint256",
					"name": "desiredAmountToMintOrBurn",
					"type": "uint256"
				}
			],
			"name": "prepareHumanAddressMintOrBurnRewardsAmounts",
			"outputs": [
				{
					"internalType": "uint256",
					"name": "",
					"type": "uint256"
				}
			],
			"stateMutability": "nonpayable",
			"type": "function"
		},
		{
			"inputs": [
				{
					"components": [
						{
							"internalType": "address",
							"name": "sender",
							"type": "address"
						},
						{
							"internalType": "address",
							"name": "recipient",
							"type": "address"
						},
						{
							"internalType": "uint256",
							"name": "transferAmount",
							"type": "uint256"
						},
						{
							"internalType": "uint256",
							"name": "senderRealBalance",
							"type": "uint256"
						},
						{
							"internalType": "uint256",
							"name": "recipientRealBalance",
							"type": "uint256"
						}
					],
					"internalType": "struct TaxAmountsInput",
					"name": "taxAmountsInput",
					"type": "tuple"
				}
			],
			"name": "prepareTaxAmounts",
			"outputs": [
				{
					"components": [
						{
							"internalType": "uint256",
							"name": "senderRealBalance",
							"type": "uint256"
						},
						{
							"internalType": "uint256",
							"name": "recipientRealBalance",
							"type": "uint256"
						},
						{
							"internalType": "uint256",
							"name": "burnAndRewardAmount",
							"type": "uint256"
						},
						{
							"internalType": "uint256",
							"name": "recipientGetsAmount",
							"type": "uint256"
						}
					],
					"internalType": "struct TaxAmountsOutput",
					"name": "taxAmountsOutput",
					"type": "tuple"
				}
			],
			"stateMutability": "nonpayable",
			"type": "function"
		},
		{
			"inputs": [],
			"name": "publicForcedUpdateCacheMultiplier",
			"outputs": [],
			"stateMutability": "nonpayable",
			"type": "function"
		},
		{
			"inputs": [],
			"name": "realTotalSupply",
			"outputs": [
				{
					"internalType": "uint256",
					"name": "",
					"type": "uint256"
				}
			],
			"stateMutability": "view",
			"type": "function"
		},
		{
			"inputs": [],
			"name": "refTaxPercent",
			"outputs": [
				{
					"internalType": "uint256",
					"name": "",
					"type": "uint256"
				}
			],
			"stateMutability": "view",
			"type": "function"
		},
		{
			"inputs": [
				{
					"internalType": "address",
					"name": "",
					"type": "address"
				}
			],
			"name": "referralToReferrer",
			"outputs": [
				{
					"internalType": "address",
					"name": "",
					"type": "address"
				}
			],
			"stateMutability": "view",
			"type": "function"
		},
		{
			"inputs": [
				{
					"internalType": "address",
					"name": "",
					"type": "address"
				}
			],
			"name": "referrerRealBalances",
			"outputs": [
				{
					"internalType": "uint256",
					"name": "",
					"type": "uint256"
				}
			],
			"stateMutability": "view",
			"type": "function"
		},
		{
			"inputs": [
				{
					"internalType": "address",
					"name": "referral",
					"type": "address"
				},
				{
					"internalType": "address",
					"name": "referrer",
					"type": "address"
				}
			],
			"name": "registerReferral",
			"outputs": [],
			"stateMutability": "nonpayable",
			"type": "function"
		},
		{
			"inputs": [
				{
					"internalType": "bytes32",
					"name": "role",
					"type": "bytes32"
				},
				{
					"internalType": "address",
					"name": "account",
					"type": "address"
				}
			],
			"name": "renounceRole",
			"outputs": [],
			"stateMutability": "nonpayable",
			"type": "function"
		},
		{
			"inputs": [
				{
					"internalType": "bytes32",
					"name": "role",
					"type": "bytes32"
				},
				{
					"internalType": "address",
					"name": "account",
					"type": "address"
				}
			],
			"name": "revokeRole",
			"outputs": [],
			"stateMutability": "nonpayable",
			"type": "function"
		},
		{
			"inputs": [],
			"name": "rewardsBalance",
			"outputs": [
				{
					"internalType": "uint256",
					"name": "",
					"type": "uint256"
				}
			],
			"stateMutability": "view",
			"type": "function"
		},
		{
			"inputs": [],
			"name": "secondLevelRefPercent",
			"outputs": [
				{
					"internalType": "uint256",
					"name": "",
					"type": "uint256"
				}
			],
			"stateMutability": "view",
			"type": "function"
		},
		{
			"inputs": [],
			"name": "secondsBetweenUpdates",
			"outputs": [
				{
					"internalType": "uint256",
					"name": "",
					"type": "uint256"
				}
			],
			"stateMutability": "view",
			"type": "function"
		},
		{
			"inputs": [
				{
					"internalType": "bytes4",
					"name": "interfaceId",
					"type": "bytes4"
				}
			],
			"name": "supportsInterface",
			"outputs": [
				{
					"internalType": "bool",
					"name": "",
					"type": "bool"
				}
			],
			"stateMutability": "view",
			"type": "function"
		},
		{
			"inputs": [
				{
					"internalType": "address",
					"name": "",
					"type": "address"
				}
			],
			"name": "temporaryReferralRealAmounts",
			"outputs": [
				{
					"internalType": "uint256",
					"name": "",
					"type": "uint256"
				}
			],
			"stateMutability": "view",
			"type": "function"
		},
		{
			"inputs": [
				{
					"internalType": "address",
					"name": "addr",
					"type": "address"
				},
				{
					"internalType": "uint256",
					"name": "newCustomTaxPercent",
					"type": "uint256"
				}
			],
			"name": "updateCustomTaxForAddress",
			"outputs": [],
			"stateMutability": "nonpayable",
			"type": "function"
		},
		{
			"inputs": [
				{
					"internalType": "uint256",
					"name": "_howManyBlocksAgoReceived",
					"type": "uint256"
				},
				{
					"internalType": "uint256",
					"name": "_howManyBlocksAgoSent",
					"type": "uint256"
				}
			],
			"name": "updateHowManyBlocksAgo",
			"outputs": [],
			"stateMutability": "nonpayable",
			"type": "function"
		},
		{
			"inputs": [
				{
					"internalType": "uint256",
					"name": "_secondsBetweenUpdates",
					"type": "uint256"
				}
			],
			"name": "updateReCachePeriod",
			"outputs": [],
			"stateMutability": "nonpayable",
			"type": "function"
		},
		{
			"inputs": [
				{
					"internalType": "address[]",
					"name": "referrals",
					"type": "address[]"
				}
			],
			"name": "updateReferrersRewards",
			"outputs": [],
			"stateMutability": "nonpayable",
			"type": "function"
		},
		{
			"inputs": [
				{
					"internalType": "uint256",
					"name": "_refTaxPercent",
					"type": "uint256"
				},
				{
					"internalType": "uint256",
					"name": "_botTaxPercent",
					"type": "uint256"
				},
				{
					"internalType": "uint256",
					"name": "_humanTaxPercent",
					"type": "uint256"
				},
				{
					"internalType": "uint256",
					"name": "_firstLevelRefPercent",
					"type": "uint256"
				},
				{
					"internalType": "uint256",
					"name": "_secondLevelRefPercent",
					"type": "uint256"
				}
			],
			"name": "updateTaxPercent",
			"outputs": [],
			"stateMutability": "nonpayable",
			"type": "function"
		}
	]
}