{
	"data": {
		"bytecode": {
			"linkReferences": {},
			"object": "6080604052670de0b6b3a764000060025542600455600060055561c350600755620f1b30600855620f1b30600955610e10600a556207a120600b55629e3400600c556203d090600d5563013c6800600e55620186a0600f556301da9c0060105560006011553480156200007157600080fd5b506200007f600033620000c1565b7f4dbe4840d7465bd162f67814cea0b519567a2e0e578bcde61e7f4ced361e5a3d600254604051620000b391815260200190565b60405180910390a162000226565b620000d882826200010460201b620010a91760201c565b6000828152600160209081526040909120620000ff918390620010b762000114821b17901c565b505050565b62000110828262000134565b5050565b60006200012b836001600160a01b038416620001d4565b90505b92915050565b6000828152602081815260408083206001600160a01b038516845290915290205460ff1662000110576000828152602081815260408083206001600160a01b03851684529091529020805460ff19166001179055620001903390565b6001600160a01b0316816001600160a01b0316837f2f8788117e7eff1d82e926ec794901d17c78024a50270940304540a733656f0d60405160405180910390a45050565b60008181526001830160205260408120546200021d575081546001818101845560008481526020808220909301849055845484825282860190935260409020919091556200012e565b5060006200012e565b611e9e80620002366000396000f3fe608060405234801561001057600080fd5b50600436106103205760003560e01c8063815a61e0116101a7578063d391014b116100ee578063e8ac6e4e11610097578063f687e46e11610071578063f687e46e146106d9578063fc78bab314610700578063fed77a801461070957600080fd5b8063e8ac6e4e146106b5578063ebc27241146106bd578063ef356a79146106d057600080fd5b8063dda7498e116100c8578063dda7498e14610679578063dfd5e1291461068c578063e7baf7f4146106ac57600080fd5b8063d391014b14610655578063d547741f1461065d578063da9b835a1461067057600080fd5b80639be810cc11610150578063c4a8a1691161012a578063c4a8a16914610631578063c4e41b221461063a578063ca15c8731461064257600080fd5b80639be810cc146105a8578063b6c5ab7b146105d6578063bc6537e8146105e957600080fd5b806391d148541161018157806391d14854146105415780639394aa661461057857806394b2242e1461058157600080fd5b8063815a61e0146104c8578063858a135d1461050e5780639010d07c1461051657600080fd5b8063361778181161026b5780634ccc35fb1161021457806362109feb116101ee57806362109feb146104a35780637207786f146104ac5780637a35ca1e146104b557600080fd5b80634ccc35fb146104605780635cdba0031461048757806360fd5fd71461049a57600080fd5b806340142e551161024557806340142e551461043b57806342e58a63146104445780634946828b1461045757600080fd5b8063361778181461041657806336568abe1461041f578063372affbf1461043257600080fd5b80631857b512116102cd5780632f2ff15d116102a75780632f2ff15d146103dd578063342c1919146103f0578063360987581461040357600080fd5b80631857b5121461039e578063248a9ca3146103a75780632b04e840146103ca57600080fd5b8063119d7898116102fe578063119d789814610379578063131f2e531461038c5780631336a98f1461039557600080fd5b806301bf91801461032557806301ffc9a71461034157806303ed957f14610364575b600080fd5b61032e600e5481565b6040519081526020015b60405180910390f35b61035461034f366004611c68565b61071c565b6040519015158152602001610338565b610377610372366004611ad9565b610760565b005b610377610387366004611b8a565b6107f9565b61032e60125481565b61032e60035481565b61032e60085481565b61032e6103b5366004611b8a565b60009081526020819052604090206001015490565b61032e6103d8366004611ab0565b61080b565b6103776103eb366004611ba2565b610841565b6103776103fe366004611b8a565b610868565b61032e610411366004611c47565b61087a565b61032e60025481565b61037761042d366004611ba2565b6108e0565b61032e600c5481565b61032e60045481565b61032e610452366004611b49565b610902565b61032e60095481565b61032e7f5bf81cabe53ab1fac30c9f534a726d1efa4d39604cae6fbb7d5396c82ef5f5cf81565b61032e610495366004611ab0565b6109c0565b61032e60105481565b61032e60075481565b61032e600b5481565b6103776104c3366004611ca7565b6109e2565b6104db6104d6366004611c90565b6109fd565b60405161033891908151815260208083015190820152604080830151908201526060918201519181019190915260800190565b61032e610ee0565b610529610524366004611c47565b610ef5565b6040516001600160a01b039091168152602001610338565b61035461054f366004611ba2565b6000918252602082815260408084206001600160a01b0393909316845291905290205460ff1690565b61032e60115481565b61032e7f603fd68989965f050033092155bb64ae91e5363fea3409ef877c949328c541e581565b6105bb6105b6366004611a96565b610f14565b60408051825181526020928301519281019290925201610338565b6103776105e4366004611c47565b610fa7565b6103776105f7366004611a96565b600680547fffffffffffffffffffffffff0000000000000000000000000000000000000000166001600160a01b0392909216919091179055565b61032e600a5481565b61032e610fbf565b61032e610650366004611b8a565b610fe2565b61032e600081565b61037761066b366004611ba2565b610ff9565b61032e60055481565b610377610687366004611bcd565b611003565b61032e61069a366004611a96565b60146020526000908152604090205481565b61032e600d5481565b61037761106c565b6103776106cb366004611ca7565b611076565b61032e60135481565b61032e7f789f97575f27a6b4ceb7f0dff24d6988bf9835006797a01cfaedc572e88a2c7b81565b61032e600f5481565b610377610717366004611c47565b611091565b60006001600160e01b031982167f5a05180f00000000000000000000000000000000000000000000000000000000148061075a575061075a826110cc565b92915050565b600061076c8133611133565b60005b828110156107f3576107e184848381811061079a57634e487b7160e01b600052603260045260246000fd5b905060400201600001358585848181106107c457634e487b7160e01b600052603260045260246000fd5b90506040020160200160208101906107dc9190611a96565b6111b1565b806107eb81611e37565b91505061076f565b50505050565b60006108058133611133565b50600755565b6000806108188133611133565b670de0b6b3a76400006002548461082f9190611dbe565b6108399190611d9e565b949350505050565b61084b82826111bb565b600082815260016020526040902061086390826110b7565b505050565b60006108748133611133565b50600555565b6000806108878133611133565b60025460009061089f670de0b6b3a764000087611dbe565b6108a99190611d9e565b90506108b58185611ddd565b935080600360008282546108c99190611d86565b909155506108d790506111e1565b50919392505050565b6108ea8282611200565b60008281526001602052604090206108639082611288565b60008061090f8133611133565b60025460009061092785670de0b6b3a7640000611dbe565b6109319190611d9e565b9050600061093f8286611ddd565b9050861561097d5780601260008282546109599190611d86565b9250508190555081601360008282546109729190611d86565b909155506109ae9050565b806012600082825461098f9190611ddd565b9250508190555081601360008282546109a89190611ddd565b90915550505b6109b661129d565b5095945050505050565b6000806109cd8133611133565b60025461082f670de0b6b3a764000085611dbe565b60006109ee8133611133565b50600892909255600955600a55565b610a286040518060800160405280600081526020016000815260200160008152602001600081525090565b6000610a348133611133565b600254600090610a50670de0b6b3a76400006040870135611dbe565b610a5a9190611d9e565b905060008111610ab15760405162461bcd60e51b815260206004820152600c60248201527f4e42543a2021616d6f756e74000000000000000000000000000000000000000060448201526064015b60405180910390fd5b6000601481610ac36020880188611a96565b6001600160a01b03166001600160a01b03168152602001908152602001600020544211610af1576000610b26565b60146000610b026020880188611a96565b6001600160a01b03168152602081019190915260400160002054610b269042611ddd565b90506000610b5b7f789f97575f27a6b4ceb7f0dff24d6988bf9835006797a01cfaedc572e88a2c7b61054f6020890189611a96565b90506000610b937f789f97575f27a6b4ceb7f0dff24d6988bf9835006797a01cfaedc572e88a2c7b61054f60408a0160208b01611a96565b90506000818015610ba55750600a5484105b9050600081158015610be55750610be37f5bf81cabe53ab1fac30c9f534a726d1efa4d39604cae6fbb7d5396c82ef5f5cf61054f60208c018c611a96565b155b8015610c385750610c01610bfc60208b018b611a96565b3b1590565b80610c385750610c387f789f97575f27a6b4ceb7f0dff24d6988bf9835006797a01cfaedc572e88a2c7b61054f60208c018c611a96565b905060008115610c76578315610c71576000610c5387611476565b9050620f4240610c63828a611dbe565b610c6d9190611d9e565b9150505b610d31565b84610d3157620f424060085488610c8d9190611dbe565b610c979190611d9e565b90506000620f42406008548c60400135610cb19190611dbe565b610cbb9190611d9e565b90507fa1a76b56d422be0a4c14ccc1281231aa006e67b6e03dcc433a873dc285491e51610ceb60208d018d611a96565b610cfb60408e0160208f01611a96565b604080516001600160a01b039384168152929091166020830152808e0135908201526060810183905260800160405180910390a1505b83610e44576000601481610d4b60408e0160208f01611a96565b6001600160a01b03166001600160a01b031681526020019081526020016000205460105411610d7b576000610dbd565b60146000610d8f60408e0160208f01611a96565b6001600160a01b03166001600160a01b0316815260200190815260200160002054601054610dbd9190611ddd565b90506000610dcf8960808e0135611d86565b601054610ddc908b611dbe565b838e60800135610dec9190611dbe565b610df69190611d86565b610e009190611d9e565b905080601054610e109190611ddd565b601460008e6020016020810190610e279190611a96565b6001600160a01b0316815260208101919091526040016000205550505b6000610e508289611ddd565b9050610e608860608d0135611ddd565b8a52610e708160808d0135611d86565b60208b015260038054839190600090610e8a908490611d86565b9091555050600254670de0b6b3a764000090610ea69084611dbe565b610eb09190611d9e565b6040808c01829052610ec591908d0135611ddd565b60608b0152610ed26111e1565b505050505050505050919050565b600080610eed8133611133565b505060125490565b6000828152600160205260408120610f0d908361155b565b9392505050565b60408051808201909152600080825260208201526001600160a01b0382166000908152601460205260408120544211610f4e576000610f71565b6001600160a01b038316600090815260146020526040902054610f719042611ddd565b9050610f7c81611476565b82526010548110610f8e576000610f9c565b80601054610f9c9190611ddd565b602083015250919050565b6000610fb38133611133565b50600d91909155600e55565b600080610fcc8133611133565b601254601354610fdc9190611d86565b91505090565b600081815260016020526040812061075a90611567565b6108ea8282611571565b600061100f8133611133565b60005b82811015611065576110538585858481811061103e57634e487b7160e01b600052603260045260246000fd5b90506020020160208101906107dc9190611a96565b8061105d81611e37565b915050611012565b5050505050565b61107461129d565b565b60006110828133611133565b50600f92909255601055601155565b600061109d8133611133565b50600b91909155600c55565b6110b38282611597565b5050565b6000610f0d836001600160a01b038416611635565b60006001600160e01b031982167f7965db0b00000000000000000000000000000000000000000000000000000000148061075a57507f01ffc9a7000000000000000000000000000000000000000000000000000000006001600160e01b031983161461075a565b6000828152602081815260408083206001600160a01b038516845290915290205460ff166110b35761116f816001600160a01b03166014611684565b61117a836020611684565b60405160200161118b929190611cd2565b60408051601f198184030181529082905262461bcd60e51b8252610aa891600401611d53565b61084b82826110a9565b6000828152602081905260409020600101546111d78133611133565b6108638383611597565b6005546004546111f19190611d86565b4211156110745761107461129d565b6001600160a01b038116331461127e5760405162461bcd60e51b815260206004820152602f60248201527f416363657373436f6e74726f6c3a2063616e206f6e6c792072656e6f756e636560448201527f20726f6c657320666f722073656c6600000000000000000000000000000000006064820152608401610aa8565b6110b382826118ab565b6000610f0d836001600160a01b03841661192a565b42600455600754600354600091620f4240916112b99190611dbe565b6112c39190611d9e565b90506000816003546112d59190611ddd565b905080601260008282546112e99190611d86565b9250508190555080601360008282546113029190611ddd565b9091555050600060038190556113387f603fd68989965f050033092155bb64ae91e5363fea3409ef877c949328c541e582610ef5565b6006546040517f0bb9ff5d0000000000000000000000000000000000000000000000000000000081526001600160a01b038084166004830152602482018790529293509116908190630bb9ff5d90604401600060405180830381600087803b1580156113a357600080fd5b505af11580156113b7573d6000803e3d6000fd5b50505050601354601254670de0b6b3a76400006113d49190611dbe565b6113de9190611d9e565b6113f090670de0b6b3a7640000611d86565b600255604080516001600160a01b0384168152602081018690527f50e71dbf1d972fa3c0618c2fb1267d56a399175b463c486d15995e34bf6cd610910160405180910390a17f4dbe4840d7465bd162f67814cea0b519567a2e0e578bcde61e7f4ced361e5a3d60025460405161146891815260200190565b60405180910390a150505050565b600060105482111561148a57505060115490565b600e548211156114c957600e546010546114a49190611ddd565b826010546114b29190611ddd565b600f546114bf9190611dbe565b61075a9190611d9e565b600c5482111561152157600c54600e546114e39190611ddd565b600c546114f09084611ddd565b600f54600d546115009190611ddd565b61150a9190611dbe565b6115149190611d9e565b600d5461075a9190611ddd565b600c5482600d54600b546115359190611ddd565b61153f9190611dbe565b6115499190611d9e565b600b5461075a9190611ddd565b919050565b6000610f0d8383611a47565b600061075a825490565b60008281526020819052604090206001015461158d8133611133565b61086383836118ab565b6000828152602081815260408083206001600160a01b038516845290915290205460ff166110b3576000828152602081815260408083206001600160a01b03851684529091529020805460ff191660011790556115f13390565b6001600160a01b0316816001600160a01b0316837f2f8788117e7eff1d82e926ec794901d17c78024a50270940304540a733656f0d60405160405180910390a45050565b600081815260018301602052604081205461167c5750815460018181018455600084815260208082209093018490558454848252828601909352604090209190915561075a565b50600061075a565b60606000611693836002611dbe565b61169e906002611d86565b67ffffffffffffffff8111156116c457634e487b7160e01b600052604160045260246000fd5b6040519080825280601f01601f1916602001820160405280156116ee576020820181803683370190505b5090507f30000000000000000000000000000000000000000000000000000000000000008160008151811061173357634e487b7160e01b600052603260045260246000fd5b60200101906001600160f81b031916908160001a9053507f78000000000000000000000000000000000000000000000000000000000000008160018151811061178c57634e487b7160e01b600052603260045260246000fd5b60200101906001600160f81b031916908160001a90535060006117b0846002611dbe565b6117bb906001611d86565b90505b600181111561185c577f303132333435363738396162636465660000000000000000000000000000000085600f166010811061180a57634e487b7160e01b600052603260045260246000fd5b1a60f81b82828151811061182e57634e487b7160e01b600052603260045260246000fd5b60200101906001600160f81b031916908160001a90535060049490941c9361185581611e20565b90506117be565b508315610f0d5760405162461bcd60e51b815260206004820181905260248201527f537472696e67733a20686578206c656e67746820696e73756666696369656e746044820152606401610aa8565b6000828152602081815260408083206001600160a01b038516845290915290205460ff16156110b3576000828152602081815260408083206001600160a01b0385168085529252808320805460ff1916905551339285917ff6391f5c32d9c69d2a47ea670b442974b53935d1edc7fd64eb21e047a839171b9190a45050565b60008181526001830160205260408120548015611a3d57600061194e600183611ddd565b855490915060009061196290600190611ddd565b90508181146119e357600086600001828154811061199057634e487b7160e01b600052603260045260246000fd5b90600052602060002001549050808760000184815481106119c157634e487b7160e01b600052603260045260246000fd5b6000918252602080832090910192909255918252600188019052604090208390555b8554869080611a0257634e487b7160e01b600052603160045260246000fd5b60019003818190600052602060002001600090559055856001016000868152602001908152602001600020600090556001935050505061075a565b600091505061075a565b6000826000018281548110611a6c57634e487b7160e01b600052603260045260246000fd5b9060005260206000200154905092915050565b80356001600160a01b038116811461155657600080fd5b600060208284031215611aa7578081fd5b610f0d82611a7f565b60008060408385031215611ac2578081fd5b611acb83611a7f565b946020939093013593505050565b60008060208385031215611aeb578182fd5b823567ffffffffffffffff80821115611b02578384fd5b818501915085601f830112611b15578384fd5b813581811115611b23578485fd5b8660208260061b8501011115611b37578485fd5b60209290920196919550909350505050565b600080600060608486031215611b5d578081fd5b83358015158114611b6c578182fd5b9250611b7a60208501611a7f565b9150604084013590509250925092565b600060208284031215611b9b578081fd5b5035919050565b60008060408385031215611bb4578182fd5b82359150611bc460208401611a7f565b90509250929050565b600080600060408486031215611be1578283fd5b83359250602084013567ffffffffffffffff80821115611bff578384fd5b818601915086601f830112611c12578384fd5b813581811115611c20578485fd5b8760208260051b8501011115611c34578485fd5b6020830194508093505050509250925092565b60008060408385031215611c59578182fd5b50508035926020909101359150565b600060208284031215611c79578081fd5b81356001600160e01b031981168114610f0d578182fd5b600060a08284031215611ca1578081fd5b50919050565b600080600060608486031215611cbb578283fd5b505081359360208301359350604090920135919050565b7f416363657373436f6e74726f6c3a206163636f756e7420000000000000000000815260008351611d0a816017850160208801611df4565b7f206973206d697373696e6720726f6c65200000000000000000000000000000006017918401918201528351611d47816028840160208801611df4565b01602801949350505050565b6020815260008251806020840152611d72816040850160208701611df4565b601f01601f19169190910160400192915050565b60008219821115611d9957611d99611e52565b500190565b600082611db957634e487b7160e01b81526012600452602481fd5b500490565b6000816000190483118215151615611dd857611dd8611e52565b500290565b600082821015611def57611def611e52565b500390565b60005b83811015611e0f578181015183820152602001611df7565b838111156107f35750506000910152565b600081611e2f57611e2f611e52565b506000190190565b6000600019821415611e4b57611e4b611e52565b5060010190565b634e487b7160e01b600052601160045260246000fdfea26469706673582212200579cffd80d19ba8898e396bdc3538686997ee93e8f8230888a99cd989a2293464736f6c63430008040033",
			"opcodes": "PUSH1 0x80 PUSH1 0x40 MSTORE PUSH8 0xDE0B6B3A7640000 PUSH1 0x2 SSTORE TIMESTAMP PUSH1 0x4 SSTORE PUSH1 0x0 PUSH1 0x5 SSTORE PUSH2 0xC350 PUSH1 0x7 SSTORE PUSH3 0xF1B30 PUSH1 0x8 SSTORE PUSH3 0xF1B30 PUSH1 0x9 SSTORE PUSH2 0xE10 PUSH1 0xA SSTORE PUSH3 0x7A120 PUSH1 0xB SSTORE PUSH3 0x9E3400 PUSH1 0xC SSTORE PUSH3 0x3D090 PUSH1 0xD SSTORE PUSH4 0x13C6800 PUSH1 0xE SSTORE PUSH3 0x186A0 PUSH1 0xF SSTORE PUSH4 0x1DA9C00 PUSH1 0x10 SSTORE PUSH1 0x0 PUSH1 0x11 SSTORE CALLVALUE DUP1 ISZERO PUSH3 0x71 JUMPI PUSH1 0x0 DUP1 REVERT JUMPDEST POP PUSH3 0x7F PUSH1 0x0 CALLER PUSH3 0xC1 JUMP JUMPDEST PUSH32 0x4DBE4840D7465BD162F67814CEA0B519567A2E0E578BCDE61E7F4CED361E5A3D PUSH1 0x2 SLOAD PUSH1 0x40 MLOAD PUSH3 0xB3 SWAP2 DUP2 MSTORE PUSH1 0x20 ADD SWAP1 JUMP JUMPDEST PUSH1 0x40 MLOAD DUP1 SWAP2 SUB SWAP1 LOG1 PUSH3 0x226 JUMP JUMPDEST PUSH3 0xD8 DUP3 DUP3 PUSH3 0x104 PUSH1 0x20 SHL PUSH3 0x10A9 OR PUSH1 0x20 SHR JUMP JUMPDEST PUSH1 0x0 DUP3 DUP2 MSTORE PUSH1 0x1 PUSH1 0x20 SWAP1 DUP2 MSTORE PUSH1 0x40 SWAP1 SWAP2 KECCAK256 PUSH3 0xFF SWAP2 DUP4 SWAP1 PUSH3 0x10B7 PUSH3 0x114 DUP3 SHL OR SWAP1 SHR JUMP JUMPDEST POP POP POP JUMP JUMPDEST PUSH3 0x110 DUP3 DUP3 PUSH3 0x134 JUMP JUMPDEST POP POP JUMP JUMPDEST PUSH1 0x0 PUSH3 0x12B DUP4 PUSH1 0x1 PUSH1 0x1 PUSH1 0xA0 SHL SUB DUP5 AND PUSH3 0x1D4 JUMP JUMPDEST SWAP1 POP JUMPDEST SWAP3 SWAP2 POP POP JUMP JUMPDEST PUSH1 0x0 DUP3 DUP2 MSTORE PUSH1 0x20 DUP2 DUP2 MSTORE PUSH1 0x40 DUP1 DUP4 KECCAK256 PUSH1 0x1 PUSH1 0x1 PUSH1 0xA0 SHL SUB DUP6 AND DUP5 MSTORE SWAP1 SWAP2 MSTORE SWAP1 KECCAK256 SLOAD PUSH1 0xFF AND PUSH3 0x110 JUMPI PUSH1 0x0 DUP3 DUP2 MSTORE PUSH1 0x20 DUP2 DUP2 MSTORE PUSH1 0x40 DUP1 DUP4 KECCAK256 PUSH1 0x1 PUSH1 0x1 PUSH1 0xA0 SHL SUB DUP6 AND DUP5 MSTORE SWAP1 SWAP2 MSTORE SWAP1 KECCAK256 DUP1 SLOAD PUSH1 0xFF NOT AND PUSH1 0x1 OR SWAP1 SSTORE PUSH3 0x190 CALLER SWAP1 JUMP JUMPDEST PUSH1 0x1 PUSH1 0x1 PUSH1 0xA0 SHL SUB AND DUP2 PUSH1 0x1 PUSH1 0x1 PUSH1 0xA0 SHL SUB AND DUP4 PUSH32 0x2F8788117E7EFF1D82E926EC794901D17C78024A50270940304540A733656F0D PUSH1 0x40 MLOAD PUSH1 0x40 MLOAD DUP1 SWAP2 SUB SWAP1 LOG4 POP POP JUMP JUMPDEST PUSH1 0x0 DUP2 DUP2 MSTORE PUSH1 0x1 DUP4 ADD PUSH1 0x20 MSTORE PUSH1 0x40 DUP2 KECCAK256 SLOAD PUSH3 0x21D JUMPI POP DUP2 SLOAD PUSH1 0x1 DUP2 DUP2 ADD DUP5 SSTORE PUSH1 0x0 DUP5 DUP2 MSTORE PUSH1 0x20 DUP1 DUP3 KECCAK256 SWAP1 SWAP4 ADD DUP5 SWAP1 SSTORE DUP5 SLOAD DUP5 DUP3 MSTORE DUP3 DUP7 ADD SWAP1 SWAP4 MSTORE PUSH1 0x40 SWAP1 KECCAK256 SWAP2 SWAP1 SWAP2 SSTORE PUSH3 0x12E JUMP JUMPDEST POP PUSH1 0x0 PUSH3 0x12E JUMP JUMPDEST PUSH2 0x1E9E DUP1 PUSH3 0x236 PUSH1 0x0 CODECOPY PUSH1 0x0 RETURN INVALID PUSH1 0x80 PUSH1 0x40 MSTORE CALLVALUE DUP1 ISZERO PUSH2 0x10 JUMPI PUSH1 0x0 DUP1 REVERT JUMPDEST POP PUSH1 0x4 CALLDATASIZE LT PUSH2 0x320 JUMPI PUSH1 0x0 CALLDATALOAD PUSH1 0xE0 SHR DUP1 PUSH4 0x815A61E0 GT PUSH2 0x1A7 JUMPI DUP1 PUSH4 0xD391014B GT PUSH2 0xEE JUMPI DUP1 PUSH4 0xE8AC6E4E GT PUSH2 0x97 JUMPI DUP1 PUSH4 0xF687E46E GT PUSH2 0x71 JUMPI DUP1 PUSH4 0xF687E46E EQ PUSH2 0x6D9 JUMPI DUP1 PUSH4 0xFC78BAB3 EQ PUSH2 0x700 JUMPI DUP1 PUSH4 0xFED77A80 EQ PUSH2 0x709 JUMPI PUSH1 0x0 DUP1 REVERT JUMPDEST DUP1 PUSH4 0xE8AC6E4E EQ PUSH2 0x6B5 JUMPI DUP1 PUSH4 0xEBC27241 EQ PUSH2 0x6BD JUMPI DUP1 PUSH4 0xEF356A79 EQ PUSH2 0x6D0 JUMPI PUSH1 0x0 DUP1 REVERT JUMPDEST DUP1 PUSH4 0xDDA7498E GT PUSH2 0xC8 JUMPI DUP1 PUSH4 0xDDA7498E EQ PUSH2 0x679 JUMPI DUP1 PUSH4 0xDFD5E129 EQ PUSH2 0x68C JUMPI DUP1 PUSH4 0xE7BAF7F4 EQ PUSH2 0x6AC JUMPI PUSH1 0x0 DUP1 REVERT JUMPDEST DUP1 PUSH4 0xD391014B EQ PUSH2 0x655 JUMPI DUP1 PUSH4 0xD547741F EQ PUSH2 0x65D JUMPI DUP1 PUSH4 0xDA9B835A EQ PUSH2 0x670 JUMPI PUSH1 0x0 DUP1 REVERT JUMPDEST DUP1 PUSH4 0x9BE810CC GT PUSH2 0x150 JUMPI DUP1 PUSH4 0xC4A8A169 GT PUSH2 0x12A JUMPI DUP1 PUSH4 0xC4A8A169 EQ PUSH2 0x631 JUMPI DUP1 PUSH4 0xC4E41B22 EQ PUSH2 0x63A JUMPI DUP1 PUSH4 0xCA15C873 EQ PUSH2 0x642 JUMPI PUSH1 0x0 DUP1 REVERT JUMPDEST DUP1 PUSH4 0x9BE810CC EQ PUSH2 0x5A8 JUMPI DUP1 PUSH4 0xB6C5AB7B EQ PUSH2 0x5D6 JUMPI DUP1 PUSH4 0xBC6537E8 EQ PUSH2 0x5E9 JUMPI PUSH1 0x0 DUP1 REVERT JUMPDEST DUP1 PUSH4 0x91D14854 GT PUSH2 0x181 JUMPI DUP1 PUSH4 0x91D14854 EQ PUSH2 0x541 JUMPI DUP1 PUSH4 0x9394AA66 EQ PUSH2 0x578 JUMPI DUP1 PUSH4 0x94B2242E EQ PUSH2 0x581 JUMPI PUSH1 0x0 DUP1 REVERT JUMPDEST DUP1 PUSH4 0x815A61E0 EQ PUSH2 0x4C8 JUMPI DUP1 PUSH4 0x858A135D EQ PUSH2 0x50E JUMPI DUP1 PUSH4 0x9010D07C EQ PUSH2 0x516 JUMPI PUSH1 0x0 DUP1 REVERT JUMPDEST DUP1 PUSH4 0x36177818 GT PUSH2 0x26B JUMPI DUP1 PUSH4 0x4CCC35FB GT PUSH2 0x214 JUMPI DUP1 PUSH4 0x62109FEB GT PUSH2 0x1EE JUMPI DUP1 PUSH4 0x62109FEB EQ PUSH2 0x4A3 JUMPI DUP1 PUSH4 0x7207786F EQ PUSH2 0x4AC JUMPI DUP1 PUSH4 0x7A35CA1E EQ PUSH2 0x4B5 JUMPI PUSH1 0x0 DUP1 REVERT JUMPDEST DUP1 PUSH4 0x4CCC35FB EQ PUSH2 0x460 JUMPI DUP1 PUSH4 0x5CDBA003 EQ PUSH2 0x487 JUMPI DUP1 PUSH4 0x60FD5FD7 EQ PUSH2 0x49A JUMPI PUSH1 0x0 DUP1 REVERT JUMPDEST DUP1 PUSH4 0x40142E55 GT PUSH2 0x245 JUMPI DUP1 PUSH4 0x40142E55 EQ PUSH2 0x43B JUMPI DUP1 PUSH4 0x42E58A63 EQ PUSH2 0x444 JUMPI DUP1 PUSH4 0x4946828B EQ PUSH2 0x457 JUMPI PUSH1 0x0 DUP1 REVERT JUMPDEST DUP1 PUSH4 0x36177818 EQ PUSH2 0x416 JUMPI DUP1 PUSH4 0x36568ABE EQ PUSH2 0x41F JUMPI DUP1 PUSH4 0x372AFFBF EQ PUSH2 0x432 JUMPI PUSH1 0x0 DUP1 REVERT JUMPDEST DUP1 PUSH4 0x1857B512 GT PUSH2 0x2CD JUMPI DUP1 PUSH4 0x2F2FF15D GT PUSH2 0x2A7 JUMPI DUP1 PUSH4 0x2F2FF15D EQ PUSH2 0x3DD JUMPI DUP1 PUSH4 0x342C1919 EQ PUSH2 0x3F0 JUMPI DUP1 PUSH4 0x36098758 EQ PUSH2 0x403 JUMPI PUSH1 0x0 DUP1 REVERT JUMPDEST DUP1 PUSH4 0x1857B512 EQ PUSH2 0x39E JUMPI DUP1 PUSH4 0x248A9CA3 EQ PUSH2 0x3A7 JUMPI DUP1 PUSH4 0x2B04E840 EQ PUSH2 0x3CA JUMPI PUSH1 0x0 DUP1 REVERT JUMPDEST DUP1 PUSH4 0x119D7898 GT PUSH2 0x2FE JUMPI DUP1 PUSH4 0x119D7898 EQ PUSH2 0x379 JUMPI DUP1 PUSH4 0x131F2E53 EQ PUSH2 0x38C JUMPI DUP1 PUSH4 0x1336A98F EQ PUSH2 0x395 JUMPI PUSH1 0x0 DUP1 REVERT JUMPDEST DUP1 PUSH4 0x1BF9180 EQ PUSH2 0x325 JUMPI DUP1 PUSH4 0x1FFC9A7 EQ PUSH2 0x341 JUMPI DUP1 PUSH4 0x3ED957F EQ PUSH2 0x364 JUMPI JUMPDEST PUSH1 0x0 DUP1 REVERT JUMPDEST PUSH2 0x32E PUSH1 0xE SLOAD DUP2 JUMP JUMPDEST PUSH1 0x40 MLOAD SWAP1 DUP2 MSTORE PUSH1 0x20 ADD JUMPDEST PUSH1 0x40 MLOAD DUP1 SWAP2 SUB SWAP1 RETURN JUMPDEST PUSH2 0x354 PUSH2 0x34F CALLDATASIZE PUSH1 0x4 PUSH2 0x1C68 JUMP JUMPDEST PUSH2 0x71C JUMP JUMPDEST PUSH1 0x40 MLOAD SWAP1 ISZERO ISZERO DUP2 MSTORE PUSH1 0x20 ADD PUSH2 0x338 JUMP JUMPDEST PUSH2 0x377 PUSH2 0x372 CALLDATASIZE PUSH1 0x4 PUSH2 0x1AD9 JUMP JUMPDEST PUSH2 0x760 JUMP JUMPDEST STOP JUMPDEST PUSH2 0x377 PUSH2 0x387 CALLDATASIZE PUSH1 0x4 PUSH2 0x1B8A JUMP JUMPDEST PUSH2 0x7F9 JUMP JUMPDEST PUSH2 0x32E PUSH1 0x12 SLOAD DUP2 JUMP JUMPDEST PUSH2 0x32E PUSH1 0x3 SLOAD DUP2 JUMP JUMPDEST PUSH2 0x32E PUSH1 0x8 SLOAD DUP2 JUMP JUMPDEST PUSH2 0x32E PUSH2 0x3B5 CALLDATASIZE PUSH1 0x4 PUSH2 0x1B8A JUMP JUMPDEST PUSH1 0x0 SWAP1 DUP2 MSTORE PUSH1 0x20 DUP2 SWAP1 MSTORE PUSH1 0x40 SWAP1 KECCAK256 PUSH1 0x1 ADD SLOAD SWAP1 JUMP JUMPDEST PUSH2 0x32E PUSH2 0x3D8 CALLDATASIZE PUSH1 0x4 PUSH2 0x1AB0 JUMP JUMPDEST PUSH2 0x80B JUMP JUMPDEST PUSH2 0x377 PUSH2 0x3EB CALLDATASIZE PUSH1 0x4 PUSH2 0x1BA2 JUMP JUMPDEST PUSH2 0x841 JUMP JUMPDEST PUSH2 0x377 PUSH2 0x3FE CALLDATASIZE PUSH1 0x4 PUSH2 0x1B8A JUMP JUMPDEST PUSH2 0x868 JUMP JUMPDEST PUSH2 0x32E PUSH2 0x411 CALLDATASIZE PUSH1 0x4 PUSH2 0x1C47 JUMP JUMPDEST PUSH2 0x87A JUMP JUMPDEST PUSH2 0x32E PUSH1 0x2 SLOAD DUP2 JUMP JUMPDEST PUSH2 0x377 PUSH2 0x42D CALLDATASIZE PUSH1 0x4 PUSH2 0x1BA2 JUMP JUMPDEST PUSH2 0x8E0 JUMP JUMPDEST PUSH2 0x32E PUSH1 0xC SLOAD DUP2 JUMP JUMPDEST PUSH2 0x32E PUSH1 0x4 SLOAD DUP2 JUMP JUMPDEST PUSH2 0x32E PUSH2 0x452 CALLDATASIZE PUSH1 0x4 PUSH2 0x1B49 JUMP JUMPDEST PUSH2 0x902 JUMP JUMPDEST PUSH2 0x32E PUSH1 0x9 SLOAD DUP2 JUMP JUMPDEST PUSH2 0x32E PUSH32 0x5BF81CABE53AB1FAC30C9F534A726D1EFA4D39604CAE6FBB7D5396C82EF5F5CF DUP2 JUMP JUMPDEST PUSH2 0x32E PUSH2 0x495 CALLDATASIZE PUSH1 0x4 PUSH2 0x1AB0 JUMP JUMPDEST PUSH2 0x9C0 JUMP JUMPDEST PUSH2 0x32E PUSH1 0x10 SLOAD DUP2 JUMP JUMPDEST PUSH2 0x32E PUSH1 0x7 SLOAD DUP2 JUMP JUMPDEST PUSH2 0x32E PUSH1 0xB SLOAD DUP2 JUMP JUMPDEST PUSH2 0x377 PUSH2 0x4C3 CALLDATASIZE PUSH1 0x4 PUSH2 0x1CA7 JUMP JUMPDEST PUSH2 0x9E2 JUMP JUMPDEST PUSH2 0x4DB PUSH2 0x4D6 CALLDATASIZE PUSH1 0x4 PUSH2 0x1C90 JUMP JUMPDEST PUSH2 0x9FD JUMP JUMPDEST PUSH1 0x40 MLOAD PUSH2 0x338 SWAP2 SWAP1 DUP2 MLOAD DUP2 MSTORE PUSH1 0x20 DUP1 DUP4 ADD MLOAD SWAP1 DUP3 ADD MSTORE PUSH1 0x40 DUP1 DUP4 ADD MLOAD SWAP1 DUP3 ADD MSTORE PUSH1 0x60 SWAP2 DUP3 ADD MLOAD SWAP2 DUP2 ADD SWAP2 SWAP1 SWAP2 MSTORE PUSH1 0x80 ADD SWAP1 JUMP JUMPDEST PUSH2 0x32E PUSH2 0xEE0 JUMP JUMPDEST PUSH2 0x529 PUSH2 0x524 CALLDATASIZE PUSH1 0x4 PUSH2 0x1C47 JUMP JUMPDEST PUSH2 0xEF5 JUMP JUMPDEST PUSH1 0x40 MLOAD PUSH1 0x1 PUSH1 0x1 PUSH1 0xA0 SHL SUB SWAP1 SWAP2 AND DUP2 MSTORE PUSH1 0x20 ADD PUSH2 0x338 JUMP JUMPDEST PUSH2 0x354 PUSH2 0x54F CALLDATASIZE PUSH1 0x4 PUSH2 0x1BA2 JUMP JUMPDEST PUSH1 0x0 SWAP2 DUP3 MSTORE PUSH1 0x20 DUP3 DUP2 MSTORE PUSH1 0x40 DUP1 DUP5 KECCAK256 PUSH1 0x1 PUSH1 0x1 PUSH1 0xA0 SHL SUB SWAP4 SWAP1 SWAP4 AND DUP5 MSTORE SWAP2 SWAP1 MSTORE SWAP1 KECCAK256 SLOAD PUSH1 0xFF AND SWAP1 JUMP JUMPDEST PUSH2 0x32E PUSH1 0x11 SLOAD DUP2 JUMP JUMPDEST PUSH2 0x32E PUSH32 0x603FD68989965F050033092155BB64AE91E5363FEA3409EF877C949328C541E5 DUP2 JUMP JUMPDEST PUSH2 0x5BB PUSH2 0x5B6 CALLDATASIZE PUSH1 0x4 PUSH2 0x1A96 JUMP JUMPDEST PUSH2 0xF14 JUMP JUMPDEST PUSH1 0x40 DUP1 MLOAD DUP3 MLOAD DUP2 MSTORE PUSH1 0x20 SWAP3 DUP4 ADD MLOAD SWAP3 DUP2 ADD SWAP3 SWAP1 SWAP3 MSTORE ADD PUSH2 0x338 JUMP JUMPDEST PUSH2 0x377 PUSH2 0x5E4 CALLDATASIZE PUSH1 0x4 PUSH2 0x1C47 JUMP JUMPDEST PUSH2 0xFA7 JUMP JUMPDEST PUSH2 0x377 PUSH2 0x5F7 CALLDATASIZE PUSH1 0x4 PUSH2 0x1A96 JUMP JUMPDEST PUSH1 0x6 DUP1 SLOAD PUSH32 0xFFFFFFFFFFFFFFFFFFFFFFFF0000000000000000000000000000000000000000 AND PUSH1 0x1 PUSH1 0x1 PUSH1 0xA0 SHL SUB SWAP3 SWAP1 SWAP3 AND SWAP2 SWAP1 SWAP2 OR SWAP1 SSTORE JUMP JUMPDEST PUSH2 0x32E PUSH1 0xA SLOAD DUP2 JUMP JUMPDEST PUSH2 0x32E PUSH2 0xFBF JUMP JUMPDEST PUSH2 0x32E PUSH2 0x650 CALLDATASIZE PUSH1 0x4 PUSH2 0x1B8A JUMP JUMPDEST PUSH2 0xFE2 JUMP JUMPDEST PUSH2 0x32E PUSH1 0x0 DUP2 JUMP JUMPDEST PUSH2 0x377 PUSH2 0x66B CALLDATASIZE PUSH1 0x4 PUSH2 0x1BA2 JUMP JUMPDEST PUSH2 0xFF9 JUMP JUMPDEST PUSH2 0x32E PUSH1 0x5 SLOAD DUP2 JUMP JUMPDEST PUSH2 0x377 PUSH2 0x687 CALLDATASIZE PUSH1 0x4 PUSH2 0x1BCD JUMP JUMPDEST PUSH2 0x1003 JUMP JUMPDEST PUSH2 0x32E PUSH2 0x69A CALLDATASIZE PUSH1 0x4 PUSH2 0x1A96 JUMP JUMPDEST PUSH1 0x14 PUSH1 0x20 MSTORE PUSH1 0x0 SWAP1 DUP2 MSTORE PUSH1 0x40 SWAP1 KECCAK256 SLOAD DUP2 JUMP JUMPDEST PUSH2 0x32E PUSH1 0xD SLOAD DUP2 JUMP JUMPDEST PUSH2 0x377 PUSH2 0x106C JUMP JUMPDEST PUSH2 0x377 PUSH2 0x6CB CALLDATASIZE PUSH1 0x4 PUSH2 0x1CA7 JUMP JUMPDEST PUSH2 0x1076 JUMP JUMPDEST PUSH2 0x32E PUSH1 0x13 SLOAD DUP2 JUMP JUMPDEST PUSH2 0x32E PUSH32 0x789F97575F27A6B4CEB7F0DFF24D6988BF9835006797A01CFAEDC572E88A2C7B DUP2 JUMP JUMPDEST PUSH2 0x32E PUSH1 0xF SLOAD DUP2 JUMP JUMPDEST PUSH2 0x377 PUSH2 0x717 CALLDATASIZE PUSH1 0x4 PUSH2 0x1C47 JUMP JUMPDEST PUSH2 0x1091 JUMP JUMPDEST PUSH1 0x0 PUSH1 0x1 PUSH1 0x1 PUSH1 0xE0 SHL SUB NOT DUP3 AND PUSH32 0x5A05180F00000000000000000000000000000000000000000000000000000000 EQ DUP1 PUSH2 0x75A JUMPI POP PUSH2 0x75A DUP3 PUSH2 0x10CC JUMP JUMPDEST SWAP3 SWAP2 POP POP JUMP JUMPDEST PUSH1 0x0 PUSH2 0x76C DUP2 CALLER PUSH2 0x1133 JUMP JUMPDEST PUSH1 0x0 JUMPDEST DUP3 DUP2 LT ISZERO PUSH2 0x7F3 JUMPI PUSH2 0x7E1 DUP5 DUP5 DUP4 DUP2 DUP2 LT PUSH2 0x79A JUMPI PUSH4 0x4E487B71 PUSH1 0xE0 SHL PUSH1 0x0 MSTORE PUSH1 0x32 PUSH1 0x4 MSTORE PUSH1 0x24 PUSH1 0x0 REVERT JUMPDEST SWAP1 POP PUSH1 0x40 MUL ADD PUSH1 0x0 ADD CALLDATALOAD DUP6 DUP6 DUP5 DUP2 DUP2 LT PUSH2 0x7C4 JUMPI PUSH4 0x4E487B71 PUSH1 0xE0 SHL PUSH1 0x0 MSTORE PUSH1 0x32 PUSH1 0x4 MSTORE PUSH1 0x24 PUSH1 0x0 REVERT JUMPDEST SWAP1 POP PUSH1 0x40 MUL ADD PUSH1 0x20 ADD PUSH1 0x20 DUP2 ADD SWAP1 PUSH2 0x7DC SWAP2 SWAP1 PUSH2 0x1A96 JUMP JUMPDEST PUSH2 0x11B1 JUMP JUMPDEST DUP1 PUSH2 0x7EB DUP2 PUSH2 0x1E37 JUMP JUMPDEST SWAP2 POP POP PUSH2 0x76F JUMP JUMPDEST POP POP POP POP JUMP JUMPDEST PUSH1 0x0 PUSH2 0x805 DUP2 CALLER PUSH2 0x1133 JUMP JUMPDEST POP PUSH1 0x7 SSTORE JUMP JUMPDEST PUSH1 0x0 DUP1 PUSH2 0x818 DUP2 CALLER PUSH2 0x1133 JUMP JUMPDEST PUSH8 0xDE0B6B3A7640000 PUSH1 0x2 SLOAD DUP5 PUSH2 0x82F SWAP2 SWAP1 PUSH2 0x1DBE JUMP JUMPDEST PUSH2 0x839 SWAP2 SWAP1 PUSH2 0x1D9E JUMP JUMPDEST SWAP5 SWAP4 POP POP POP POP JUMP JUMPDEST PUSH2 0x84B DUP3 DUP3 PUSH2 0x11BB JUMP JUMPDEST PUSH1 0x0 DUP3 DUP2 MSTORE PUSH1 0x1 PUSH1 0x20 MSTORE PUSH1 0x40 SWAP1 KECCAK256 PUSH2 0x863 SWAP1 DUP3 PUSH2 0x10B7 JUMP JUMPDEST POP POP POP JUMP JUMPDEST PUSH1 0x0 PUSH2 0x874 DUP2 CALLER PUSH2 0x1133 JUMP JUMPDEST POP PUSH1 0x5 SSTORE JUMP JUMPDEST PUSH1 0x0 DUP1 PUSH2 0x887 DUP2 CALLER PUSH2 0x1133 JUMP JUMPDEST PUSH1 0x2 SLOAD PUSH1 0x0 SWAP1 PUSH2 0x89F PUSH8 0xDE0B6B3A7640000 DUP8 PUSH2 0x1DBE JUMP JUMPDEST PUSH2 0x8A9 SWAP2 SWAP1 PUSH2 0x1D9E JUMP JUMPDEST SWAP1 POP PUSH2 0x8B5 DUP2 DUP6 PUSH2 0x1DDD JUMP JUMPDEST SWAP4 POP DUP1 PUSH1 0x3 PUSH1 0x0 DUP3 DUP3 SLOAD PUSH2 0x8C9 SWAP2 SWAP1 PUSH2 0x1D86 JUMP JUMPDEST SWAP1 SWAP2 SSTORE POP PUSH2 0x8D7 SWAP1 POP PUSH2 0x11E1 JUMP JUMPDEST POP SWAP2 SWAP4 SWAP3 POP POP POP JUMP JUMPDEST PUSH2 0x8EA DUP3 DUP3 PUSH2 0x1200 JUMP JUMPDEST PUSH1 0x0 DUP3 DUP2 MSTORE PUSH1 0x1 PUSH1 0x20 MSTORE PUSH1 0x40 SWAP1 KECCAK256 PUSH2 0x863 SWAP1 DUP3 PUSH2 0x1288 JUMP JUMPDEST PUSH1 0x0 DUP1 PUSH2 0x90F DUP2 CALLER PUSH2 0x1133 JUMP JUMPDEST PUSH1 0x2 SLOAD PUSH1 0x0 SWAP1 PUSH2 0x927 DUP6 PUSH8 0xDE0B6B3A7640000 PUSH2 0x1DBE JUMP JUMPDEST PUSH2 0x931 SWAP2 SWAP1 PUSH2 0x1D9E JUMP JUMPDEST SWAP1 POP PUSH1 0x0 PUSH2 0x93F DUP3 DUP7 PUSH2 0x1DDD JUMP JUMPDEST SWAP1 POP DUP7 ISZERO PUSH2 0x97D JUMPI DUP1 PUSH1 0x12 PUSH1 0x0 DUP3 DUP3 SLOAD PUSH2 0x959 SWAP2 SWAP1 PUSH2 0x1D86 JUMP JUMPDEST SWAP3 POP POP DUP2 SWAP1 SSTORE POP DUP2 PUSH1 0x13 PUSH1 0x0 DUP3 DUP3 SLOAD PUSH2 0x972 SWAP2 SWAP1 PUSH2 0x1D86 JUMP JUMPDEST SWAP1 SWAP2 SSTORE POP PUSH2 0x9AE SWAP1 POP JUMP JUMPDEST DUP1 PUSH1 0x12 PUSH1 0x0 DUP3 DUP3 SLOAD PUSH2 0x98F SWAP2 SWAP1 PUSH2 0x1DDD JUMP JUMPDEST SWAP3 POP POP DUP2 SWAP1 SSTORE POP DUP2 PUSH1 0x13 PUSH1 0x0 DUP3 DUP3 SLOAD PUSH2 0x9A8 SWAP2 SWAP1 PUSH2 0x1DDD JUMP JUMPDEST SWAP1 SWAP2 SSTORE POP POP JUMPDEST PUSH2 0x9B6 PUSH2 0x129D JUMP JUMPDEST POP SWAP6 SWAP5 POP POP POP POP POP JUMP JUMPDEST PUSH1 0x0 DUP1 PUSH2 0x9CD DUP2 CALLER PUSH2 0x1133 JUMP JUMPDEST PUSH1 0x2 SLOAD PUSH2 0x82F PUSH8 0xDE0B6B3A7640000 DUP6 PUSH2 0x1DBE JUMP JUMPDEST PUSH1 0x0 PUSH2 0x9EE DUP2 CALLER PUSH2 0x1133 JUMP JUMPDEST POP PUSH1 0x8 SWAP3 SWAP1 SWAP3 SSTORE PUSH1 0x9 SSTORE PUSH1 0xA SSTORE JUMP JUMPDEST PUSH2 0xA28 PUSH1 0x40 MLOAD DUP1 PUSH1 0x80 ADD PUSH1 0x40 MSTORE DUP1 PUSH1 0x0 DUP2 MSTORE PUSH1 0x20 ADD PUSH1 0x0 DUP2 MSTORE PUSH1 0x20 ADD PUSH1 0x0 DUP2 MSTORE PUSH1 0x20 ADD PUSH1 0x0 DUP2 MSTORE POP SWAP1 JUMP JUMPDEST PUSH1 0x0 PUSH2 0xA34 DUP2 CALLER PUSH2 0x1133 JUMP JUMPDEST PUSH1 0x2 SLOAD PUSH1 0x0 SWAP1 PUSH2 0xA50 PUSH8 0xDE0B6B3A7640000 PUSH1 0x40 DUP8 ADD CALLDATALOAD PUSH2 0x1DBE JUMP JUMPDEST PUSH2 0xA5A SWAP2 SWAP1 PUSH2 0x1D9E JUMP JUMPDEST SWAP1 POP PUSH1 0x0 DUP2 GT PUSH2 0xAB1 JUMPI PUSH1 0x40 MLOAD PUSH3 0x461BCD PUSH1 0xE5 SHL DUP2 MSTORE PUSH1 0x20 PUSH1 0x4 DUP3 ADD MSTORE PUSH1 0xC PUSH1 0x24 DUP3 ADD MSTORE PUSH32 0x4E42543A2021616D6F756E740000000000000000000000000000000000000000 PUSH1 0x44 DUP3 ADD MSTORE PUSH1 0x64 ADD JUMPDEST PUSH1 0x40 MLOAD DUP1 SWAP2 SUB SWAP1 REVERT JUMPDEST PUSH1 0x0 PUSH1 0x14 DUP2 PUSH2 0xAC3 PUSH1 0x20 DUP9 ADD DUP9 PUSH2 0x1A96 JUMP JUMPDEST PUSH1 0x1 PUSH1 0x1 PUSH1 0xA0 SHL SUB AND PUSH1 0x1 PUSH1 0x1 PUSH1 0xA0 SHL SUB AND DUP2 MSTORE PUSH1 0x20 ADD SWAP1 DUP2 MSTORE PUSH1 0x20 ADD PUSH1 0x0 KECCAK256 SLOAD TIMESTAMP GT PUSH2 0xAF1 JUMPI PUSH1 0x0 PUSH2 0xB26 JUMP JUMPDEST PUSH1 0x14 PUSH1 0x0 PUSH2 0xB02 PUSH1 0x20 DUP9 ADD DUP9 PUSH2 0x1A96 JUMP JUMPDEST PUSH1 0x1 PUSH1 0x1 PUSH1 0xA0 SHL SUB AND DUP2 MSTORE PUSH1 0x20 DUP2 ADD SWAP2 SWAP1 SWAP2 MSTORE PUSH1 0x40 ADD PUSH1 0x0 KECCAK256 SLOAD PUSH2 0xB26 SWAP1 TIMESTAMP PUSH2 0x1DDD JUMP JUMPDEST SWAP1 POP PUSH1 0x0 PUSH2 0xB5B PUSH32 0x789F97575F27A6B4CEB7F0DFF24D6988BF9835006797A01CFAEDC572E88A2C7B PUSH2 0x54F PUSH1 0x20 DUP10 ADD DUP10 PUSH2 0x1A96 JUMP JUMPDEST SWAP1 POP PUSH1 0x0 PUSH2 0xB93 PUSH32 0x789F97575F27A6B4CEB7F0DFF24D6988BF9835006797A01CFAEDC572E88A2C7B PUSH2 0x54F PUSH1 0x40 DUP11 ADD PUSH1 0x20 DUP12 ADD PUSH2 0x1A96 JUMP JUMPDEST SWAP1 POP PUSH1 0x0 DUP2 DUP1 ISZERO PUSH2 0xBA5 JUMPI POP PUSH1 0xA SLOAD DUP5 LT JUMPDEST SWAP1 POP PUSH1 0x0 DUP2 ISZERO DUP1 ISZERO PUSH2 0xBE5 JUMPI POP PUSH2 0xBE3 PUSH32 0x5BF81CABE53AB1FAC30C9F534A726D1EFA4D39604CAE6FBB7D5396C82EF5F5CF PUSH2 0x54F PUSH1 0x20 DUP13 ADD DUP13 PUSH2 0x1A96 JUMP JUMPDEST ISZERO JUMPDEST DUP1 ISZERO PUSH2 0xC38 JUMPI POP PUSH2 0xC01 PUSH2 0xBFC PUSH1 0x20 DUP12 ADD DUP12 PUSH2 0x1A96 JUMP JUMPDEST EXTCODESIZE ISZERO SWAP1 JUMP JUMPDEST DUP1 PUSH2 0xC38 JUMPI POP PUSH2 0xC38 PUSH32 0x789F97575F27A6B4CEB7F0DFF24D6988BF9835006797A01CFAEDC572E88A2C7B PUSH2 0x54F PUSH1 0x20 DUP13 ADD DUP13 PUSH2 0x1A96 JUMP JUMPDEST SWAP1 POP PUSH1 0x0 DUP2 ISZERO PUSH2 0xC76 JUMPI DUP4 ISZERO PUSH2 0xC71 JUMPI PUSH1 0x0 PUSH2 0xC53 DUP8 PUSH2 0x1476 JUMP JUMPDEST SWAP1 POP PUSH3 0xF4240 PUSH2 0xC63 DUP3 DUP11 PUSH2 0x1DBE JUMP JUMPDEST PUSH2 0xC6D SWAP2 SWAP1 PUSH2 0x1D9E JUMP JUMPDEST SWAP2 POP POP JUMPDEST PUSH2 0xD31 JUMP JUMPDEST DUP5 PUSH2 0xD31 JUMPI PUSH3 0xF4240 PUSH1 0x8 SLOAD DUP9 PUSH2 0xC8D SWAP2 SWAP1 PUSH2 0x1DBE JUMP JUMPDEST PUSH2 0xC97 SWAP2 SWAP1 PUSH2 0x1D9E JUMP JUMPDEST SWAP1 POP PUSH1 0x0 PUSH3 0xF4240 PUSH1 0x8 SLOAD DUP13 PUSH1 0x40 ADD CALLDATALOAD PUSH2 0xCB1 SWAP2 SWAP1 PUSH2 0x1DBE JUMP JUMPDEST PUSH2 0xCBB SWAP2 SWAP1 PUSH2 0x1D9E JUMP JUMPDEST SWAP1 POP PUSH32 0xA1A76B56D422BE0A4C14CCC1281231AA006E67B6E03DCC433A873DC285491E51 PUSH2 0xCEB PUSH1 0x20 DUP14 ADD DUP14 PUSH2 0x1A96 JUMP JUMPDEST PUSH2 0xCFB PUSH1 0x40 DUP15 ADD PUSH1 0x20 DUP16 ADD PUSH2 0x1A96 JUMP JUMPDEST PUSH1 0x40 DUP1 MLOAD PUSH1 0x1 PUSH1 0x1 PUSH1 0xA0 SHL SUB SWAP4 DUP5 AND DUP2 MSTORE SWAP3 SWAP1 SWAP2 AND PUSH1 0x20 DUP4 ADD MSTORE DUP1 DUP15 ADD CALLDATALOAD SWAP1 DUP3 ADD MSTORE PUSH1 0x60 DUP2 ADD DUP4 SWAP1 MSTORE PUSH1 0x80 ADD PUSH1 0x40 MLOAD DUP1 SWAP2 SUB SWAP1 LOG1 POP JUMPDEST DUP4 PUSH2 0xE44 JUMPI PUSH1 0x0 PUSH1 0x14 DUP2 PUSH2 0xD4B PUSH1 0x40 DUP15 ADD PUSH1 0x20 DUP16 ADD PUSH2 0x1A96 JUMP JUMPDEST PUSH1 0x1 PUSH1 0x1 PUSH1 0xA0 SHL SUB AND PUSH1 0x1 PUSH1 0x1 PUSH1 0xA0 SHL SUB AND DUP2 MSTORE PUSH1 0x20 ADD SWAP1 DUP2 MSTORE PUSH1 0x20 ADD PUSH1 0x0 KECCAK256 SLOAD PUSH1 0x10 SLOAD GT PUSH2 0xD7B JUMPI PUSH1 0x0 PUSH2 0xDBD JUMP JUMPDEST PUSH1 0x14 PUSH1 0x0 PUSH2 0xD8F PUSH1 0x40 DUP15 ADD PUSH1 0x20 DUP16 ADD PUSH2 0x1A96 JUMP JUMPDEST PUSH1 0x1 PUSH1 0x1 PUSH1 0xA0 SHL SUB AND PUSH1 0x1 PUSH1 0x1 PUSH1 0xA0 SHL SUB AND DUP2 MSTORE PUSH1 0x20 ADD SWAP1 DUP2 MSTORE PUSH1 0x20 ADD PUSH1 0x0 KECCAK256 SLOAD PUSH1 0x10 SLOAD PUSH2 0xDBD SWAP2 SWAP1 PUSH2 0x1DDD JUMP JUMPDEST SWAP1 POP PUSH1 0x0 PUSH2 0xDCF DUP10 PUSH1 0x80 DUP15 ADD CALLDATALOAD PUSH2 0x1D86 JUMP JUMPDEST PUSH1 0x10 SLOAD PUSH2 0xDDC SWAP1 DUP12 PUSH2 0x1DBE JUMP JUMPDEST DUP4 DUP15 PUSH1 0x80 ADD CALLDATALOAD PUSH2 0xDEC SWAP2 SWAP1 PUSH2 0x1DBE JUMP JUMPDEST PUSH2 0xDF6 SWAP2 SWAP1 PUSH2 0x1D86 JUMP JUMPDEST PUSH2 0xE00 SWAP2 SWAP1 PUSH2 0x1D9E JUMP JUMPDEST SWAP1 POP DUP1 PUSH1 0x10 SLOAD PUSH2 0xE10 SWAP2 SWAP1 PUSH2 0x1DDD JUMP JUMPDEST PUSH1 0x14 PUSH1 0x0 DUP15 PUSH1 0x20 ADD PUSH1 0x20 DUP2 ADD SWAP1 PUSH2 0xE27 SWAP2 SWAP1 PUSH2 0x1A96 JUMP JUMPDEST PUSH1 0x1 PUSH1 0x1 PUSH1 0xA0 SHL SUB AND DUP2 MSTORE PUSH1 0x20 DUP2 ADD SWAP2 SWAP1 SWAP2 MSTORE PUSH1 0x40 ADD PUSH1 0x0 KECCAK256 SSTORE POP POP JUMPDEST PUSH1 0x0 PUSH2 0xE50 DUP3 DUP10 PUSH2 0x1DDD JUMP JUMPDEST SWAP1 POP PUSH2 0xE60 DUP9 PUSH1 0x60 DUP14 ADD CALLDATALOAD PUSH2 0x1DDD JUMP JUMPDEST DUP11 MSTORE PUSH2 0xE70 DUP2 PUSH1 0x80 DUP14 ADD CALLDATALOAD PUSH2 0x1D86 JUMP JUMPDEST PUSH1 0x20 DUP12 ADD MSTORE PUSH1 0x3 DUP1 SLOAD DUP4 SWAP2 SWAP1 PUSH1 0x0 SWAP1 PUSH2 0xE8A SWAP1 DUP5 SWAP1 PUSH2 0x1D86 JUMP JUMPDEST SWAP1 SWAP2 SSTORE POP POP PUSH1 0x2 SLOAD PUSH8 0xDE0B6B3A7640000 SWAP1 PUSH2 0xEA6 SWAP1 DUP5 PUSH2 0x1DBE JUMP JUMPDEST PUSH2 0xEB0 SWAP2 SWAP1 PUSH2 0x1D9E JUMP JUMPDEST PUSH1 0x40 DUP1 DUP13 ADD DUP3 SWAP1 MSTORE PUSH2 0xEC5 SWAP2 SWAP1 DUP14 ADD CALLDATALOAD PUSH2 0x1DDD JUMP JUMPDEST PUSH1 0x60 DUP12 ADD MSTORE PUSH2 0xED2 PUSH2 0x11E1 JUMP JUMPDEST POP POP POP POP POP POP POP POP POP SWAP2 SWAP1 POP JUMP JUMPDEST PUSH1 0x0 DUP1 PUSH2 0xEED DUP2 CALLER PUSH2 0x1133 JUMP JUMPDEST POP POP PUSH1 0x12 SLOAD SWAP1 JUMP JUMPDEST PUSH1 0x0 DUP3 DUP2 MSTORE PUSH1 0x1 PUSH1 0x20 MSTORE PUSH1 0x40 DUP2 KECCAK256 PUSH2 0xF0D SWAP1 DUP4 PUSH2 0x155B JUMP JUMPDEST SWAP4 SWAP3 POP POP POP JUMP JUMPDEST PUSH1 0x40 DUP1 MLOAD DUP1 DUP3 ADD SWAP1 SWAP2 MSTORE PUSH1 0x0 DUP1 DUP3 MSTORE PUSH1 0x20 DUP3 ADD MSTORE PUSH1 0x1 PUSH1 0x1 PUSH1 0xA0 SHL SUB DUP3 AND PUSH1 0x0 SWAP1 DUP2 MSTORE PUSH1 0x14 PUSH1 0x20 MSTORE PUSH1 0x40 DUP2 KECCAK256 SLOAD TIMESTAMP GT PUSH2 0xF4E JUMPI PUSH1 0x0 PUSH2 0xF71 JUMP JUMPDEST PUSH1 0x1 PUSH1 0x1 PUSH1 0xA0 SHL SUB DUP4 AND PUSH1 0x0 SWAP1 DUP2 MSTORE PUSH1 0x14 PUSH1 0x20 MSTORE PUSH1 0x40 SWAP1 KECCAK256 SLOAD PUSH2 0xF71 SWAP1 TIMESTAMP PUSH2 0x1DDD JUMP JUMPDEST SWAP1 POP PUSH2 0xF7C DUP2 PUSH2 0x1476 JUMP JUMPDEST DUP3 MSTORE PUSH1 0x10 SLOAD DUP2 LT PUSH2 0xF8E JUMPI PUSH1 0x0 PUSH2 0xF9C JUMP JUMPDEST DUP1 PUSH1 0x10 SLOAD PUSH2 0xF9C SWAP2 SWAP1 PUSH2 0x1DDD JUMP JUMPDEST PUSH1 0x20 DUP4 ADD MSTORE POP SWAP2 SWAP1 POP JUMP JUMPDEST PUSH1 0x0 PUSH2 0xFB3 DUP2 CALLER PUSH2 0x1133 JUMP JUMPDEST POP PUSH1 0xD SWAP2 SWAP1 SWAP2 SSTORE PUSH1 0xE SSTORE JUMP JUMPDEST PUSH1 0x0 DUP1 PUSH2 0xFCC DUP2 CALLER PUSH2 0x1133 JUMP JUMPDEST PUSH1 0x12 SLOAD PUSH1 0x13 SLOAD PUSH2 0xFDC SWAP2 SWAP1 PUSH2 0x1D86 JUMP JUMPDEST SWAP2 POP POP SWAP1 JUMP JUMPDEST PUSH1 0x0 DUP2 DUP2 MSTORE PUSH1 0x1 PUSH1 0x20 MSTORE PUSH1 0x40 DUP2 KECCAK256 PUSH2 0x75A SWAP1 PUSH2 0x1567 JUMP JUMPDEST PUSH2 0x8EA DUP3 DUP3 PUSH2 0x1571 JUMP JUMPDEST PUSH1 0x0 PUSH2 0x100F DUP2 CALLER PUSH2 0x1133 JUMP JUMPDEST PUSH1 0x0 JUMPDEST DUP3 DUP2 LT ISZERO PUSH2 0x1065 JUMPI PUSH2 0x1053 DUP6 DUP6 DUP6 DUP5 DUP2 DUP2 LT PUSH2 0x103E JUMPI PUSH4 0x4E487B71 PUSH1 0xE0 SHL PUSH1 0x0 MSTORE PUSH1 0x32 PUSH1 0x4 MSTORE PUSH1 0x24 PUSH1 0x0 REVERT JUMPDEST SWAP1 POP PUSH1 0x20 MUL ADD PUSH1 0x20 DUP2 ADD SWAP1 PUSH2 0x7DC SWAP2 SWAP1 PUSH2 0x1A96 JUMP JUMPDEST DUP1 PUSH2 0x105D DUP2 PUSH2 0x1E37 JUMP JUMPDEST SWAP2 POP POP PUSH2 0x1012 JUMP JUMPDEST POP POP POP POP POP JUMP JUMPDEST PUSH2 0x1074 PUSH2 0x129D JUMP JUMPDEST JUMP JUMPDEST PUSH1 0x0 PUSH2 0x1082 DUP2 CALLER PUSH2 0x1133 JUMP JUMPDEST POP PUSH1 0xF SWAP3 SWAP1 SWAP3 SSTORE PUSH1 0x10 SSTORE PUSH1 0x11 SSTORE JUMP JUMPDEST PUSH1 0x0 PUSH2 0x109D DUP2 CALLER PUSH2 0x1133 JUMP JUMPDEST POP PUSH1 0xB SWAP2 SWAP1 SWAP2 SSTORE PUSH1 0xC SSTORE JUMP JUMPDEST PUSH2 0x10B3 DUP3 DUP3 PUSH2 0x1597 JUMP JUMPDEST POP POP JUMP JUMPDEST PUSH1 0x0 PUSH2 0xF0D DUP4 PUSH1 0x1 PUSH1 0x1 PUSH1 0xA0 SHL SUB DUP5 AND PUSH2 0x1635 JUMP JUMPDEST PUSH1 0x0 PUSH1 0x1 PUSH1 0x1 PUSH1 0xE0 SHL SUB NOT DUP3 AND PUSH32 0x7965DB0B00000000000000000000000000000000000000000000000000000000 EQ DUP1 PUSH2 0x75A JUMPI POP PUSH32 0x1FFC9A700000000000000000000000000000000000000000000000000000000 PUSH1 0x1 PUSH1 0x1 PUSH1 0xE0 SHL SUB NOT DUP4 AND EQ PUSH2 0x75A JUMP JUMPDEST PUSH1 0x0 DUP3 DUP2 MSTORE PUSH1 0x20 DUP2 DUP2 MSTORE PUSH1 0x40 DUP1 DUP4 KECCAK256 PUSH1 0x1 PUSH1 0x1 PUSH1 0xA0 SHL SUB DUP6 AND DUP5 MSTORE SWAP1 SWAP2 MSTORE SWAP1 KECCAK256 SLOAD PUSH1 0xFF AND PUSH2 0x10B3 JUMPI PUSH2 0x116F DUP2 PUSH1 0x1 PUSH1 0x1 PUSH1 0xA0 SHL SUB AND PUSH1 0x14 PUSH2 0x1684 JUMP JUMPDEST PUSH2 0x117A DUP4 PUSH1 0x20 PUSH2 0x1684 JUMP JUMPDEST PUSH1 0x40 MLOAD PUSH1 0x20 ADD PUSH2 0x118B SWAP3 SWAP2 SWAP1 PUSH2 0x1CD2 JUMP JUMPDEST PUSH1 0x40 DUP1 MLOAD PUSH1 0x1F NOT DUP2 DUP5 SUB ADD DUP2 MSTORE SWAP1 DUP3 SWAP1 MSTORE PUSH3 0x461BCD PUSH1 0xE5 SHL DUP3 MSTORE PUSH2 0xAA8 SWAP2 PUSH1 0x4 ADD PUSH2 0x1D53 JUMP JUMPDEST PUSH2 0x84B DUP3 DUP3 PUSH2 0x10A9 JUMP JUMPDEST PUSH1 0x0 DUP3 DUP2 MSTORE PUSH1 0x20 DUP2 SWAP1 MSTORE PUSH1 0x40 SWAP1 KECCAK256 PUSH1 0x1 ADD SLOAD PUSH2 0x11D7 DUP2 CALLER PUSH2 0x1133 JUMP JUMPDEST PUSH2 0x863 DUP4 DUP4 PUSH2 0x1597 JUMP JUMPDEST PUSH1 0x5 SLOAD PUSH1 0x4 SLOAD PUSH2 0x11F1 SWAP2 SWAP1 PUSH2 0x1D86 JUMP JUMPDEST TIMESTAMP GT ISZERO PUSH2 0x1074 JUMPI PUSH2 0x1074 PUSH2 0x129D JUMP JUMPDEST PUSH1 0x1 PUSH1 0x1 PUSH1 0xA0 SHL SUB DUP2 AND CALLER EQ PUSH2 0x127E JUMPI PUSH1 0x40 MLOAD PUSH3 0x461BCD PUSH1 0xE5 SHL DUP2 MSTORE PUSH1 0x20 PUSH1 0x4 DUP3 ADD MSTORE PUSH1 0x2F PUSH1 0x24 DUP3 ADD MSTORE PUSH32 0x416363657373436F6E74726F6C3A2063616E206F6E6C792072656E6F756E6365 PUSH1 0x44 DUP3 ADD MSTORE PUSH32 0x20726F6C657320666F722073656C660000000000000000000000000000000000 PUSH1 0x64 DUP3 ADD MSTORE PUSH1 0x84 ADD PUSH2 0xAA8 JUMP JUMPDEST PUSH2 0x10B3 DUP3 DUP3 PUSH2 0x18AB JUMP JUMPDEST PUSH1 0x0 PUSH2 0xF0D DUP4 PUSH1 0x1 PUSH1 0x1 PUSH1 0xA0 SHL SUB DUP5 AND PUSH2 0x192A JUMP JUMPDEST TIMESTAMP PUSH1 0x4 SSTORE PUSH1 0x7 SLOAD PUSH1 0x3 SLOAD PUSH1 0x0 SWAP2 PUSH3 0xF4240 SWAP2 PUSH2 0x12B9 SWAP2 SWAP1 PUSH2 0x1DBE JUMP JUMPDEST PUSH2 0x12C3 SWAP2 SWAP1 PUSH2 0x1D9E JUMP JUMPDEST SWAP1 POP PUSH1 0x0 DUP2 PUSH1 0x3 SLOAD PUSH2 0x12D5 SWAP2 SWAP1 PUSH2 0x1DDD JUMP JUMPDEST SWAP1 POP DUP1 PUSH1 0x12 PUSH1 0x0 DUP3 DUP3 SLOAD PUSH2 0x12E9 SWAP2 SWAP1 PUSH2 0x1D86 JUMP JUMPDEST SWAP3 POP POP DUP2 SWAP1 SSTORE POP DUP1 PUSH1 0x13 PUSH1 0x0 DUP3 DUP3 SLOAD PUSH2 0x1302 SWAP2 SWAP1 PUSH2 0x1DDD JUMP JUMPDEST SWAP1 SWAP2 SSTORE POP POP PUSH1 0x0 PUSH1 0x3 DUP2 SWAP1 SSTORE PUSH2 0x1338 PUSH32 0x603FD68989965F050033092155BB64AE91E5363FEA3409EF877C949328C541E5 DUP3 PUSH2 0xEF5 JUMP JUMPDEST PUSH1 0x6 SLOAD PUSH1 0x40 MLOAD PUSH32 0xBB9FF5D00000000000000000000000000000000000000000000000000000000 DUP2 MSTORE PUSH1 0x1 PUSH1 0x1 PUSH1 0xA0 SHL SUB DUP1 DUP5 AND PUSH1 0x4 DUP4 ADD MSTORE PUSH1 0x24 DUP3 ADD DUP8 SWAP1 MSTORE SWAP3 SWAP4 POP SWAP2 AND SWAP1 DUP2 SWAP1 PUSH4 0xBB9FF5D SWAP1 PUSH1 0x44 ADD PUSH1 0x0 PUSH1 0x40 MLOAD DUP1 DUP4 SUB DUP2 PUSH1 0x0 DUP8 DUP1 EXTCODESIZE ISZERO DUP1 ISZERO PUSH2 0x13A3 JUMPI PUSH1 0x0 DUP1 REVERT JUMPDEST POP GAS CALL ISZERO DUP1 ISZERO PUSH2 0x13B7 JUMPI RETURNDATASIZE PUSH1 0x0 DUP1 RETURNDATACOPY RETURNDATASIZE PUSH1 0x0 REVERT JUMPDEST POP POP POP POP PUSH1 0x13 SLOAD PUSH1 0x12 SLOAD PUSH8 0xDE0B6B3A7640000 PUSH2 0x13D4 SWAP2 SWAP1 PUSH2 0x1DBE JUMP JUMPDEST PUSH2 0x13DE SWAP2 SWAP1 PUSH2 0x1D9E JUMP JUMPDEST PUSH2 0x13F0 SWAP1 PUSH8 0xDE0B6B3A7640000 PUSH2 0x1D86 JUMP JUMPDEST PUSH1 0x2 SSTORE PUSH1 0x40 DUP1 MLOAD PUSH1 0x1 PUSH1 0x1 PUSH1 0xA0 SHL SUB DUP5 AND DUP2 MSTORE PUSH1 0x20 DUP2 ADD DUP7 SWAP1 MSTORE PUSH32 0x50E71DBF1D972FA3C0618C2FB1267D56A399175B463C486D15995E34BF6CD610 SWAP2 ADD PUSH1 0x40 MLOAD DUP1 SWAP2 SUB SWAP1 LOG1 PUSH32 0x4DBE4840D7465BD162F67814CEA0B519567A2E0E578BCDE61E7F4CED361E5A3D PUSH1 0x2 SLOAD PUSH1 0x40 MLOAD PUSH2 0x1468 SWAP2 DUP2 MSTORE PUSH1 0x20 ADD SWAP1 JUMP JUMPDEST PUSH1 0x40 MLOAD DUP1 SWAP2 SUB SWAP1 LOG1 POP POP POP POP JUMP JUMPDEST PUSH1 0x0 PUSH1 0x10 SLOAD DUP3 GT ISZERO PUSH2 0x148A JUMPI POP POP PUSH1 0x11 SLOAD SWAP1 JUMP JUMPDEST PUSH1 0xE SLOAD DUP3 GT ISZERO PUSH2 0x14C9 JUMPI PUSH1 0xE SLOAD PUSH1 0x10 SLOAD PUSH2 0x14A4 SWAP2 SWAP1 PUSH2 0x1DDD JUMP JUMPDEST DUP3 PUSH1 0x10 SLOAD PUSH2 0x14B2 SWAP2 SWAP1 PUSH2 0x1DDD JUMP JUMPDEST PUSH1 0xF SLOAD PUSH2 0x14BF SWAP2 SWAP1 PUSH2 0x1DBE JUMP JUMPDEST PUSH2 0x75A SWAP2 SWAP1 PUSH2 0x1D9E JUMP JUMPDEST PUSH1 0xC SLOAD DUP3 GT ISZERO PUSH2 0x1521 JUMPI PUSH1 0xC SLOAD PUSH1 0xE SLOAD PUSH2 0x14E3 SWAP2 SWAP1 PUSH2 0x1DDD JUMP JUMPDEST PUSH1 0xC SLOAD PUSH2 0x14F0 SWAP1 DUP5 PUSH2 0x1DDD JUMP JUMPDEST PUSH1 0xF SLOAD PUSH1 0xD SLOAD PUSH2 0x1500 SWAP2 SWAP1 PUSH2 0x1DDD JUMP JUMPDEST PUSH2 0x150A SWAP2 SWAP1 PUSH2 0x1DBE JUMP JUMPDEST PUSH2 0x1514 SWAP2 SWAP1 PUSH2 0x1D9E JUMP JUMPDEST PUSH1 0xD SLOAD PUSH2 0x75A SWAP2 SWAP1 PUSH2 0x1DDD JUMP JUMPDEST PUSH1 0xC SLOAD DUP3 PUSH1 0xD SLOAD PUSH1 0xB SLOAD PUSH2 0x1535 SWAP2 SWAP1 PUSH2 0x1DDD JUMP JUMPDEST PUSH2 0x153F SWAP2 SWAP1 PUSH2 0x1DBE JUMP JUMPDEST PUSH2 0x1549 SWAP2 SWAP1 PUSH2 0x1D9E JUMP JUMPDEST PUSH1 0xB SLOAD PUSH2 0x75A SWAP2 SWAP1 PUSH2 0x1DDD JUMP JUMPDEST SWAP2 SWAP1 POP JUMP JUMPDEST PUSH1 0x0 PUSH2 0xF0D DUP4 DUP4 PUSH2 0x1A47 JUMP JUMPDEST PUSH1 0x0 PUSH2 0x75A DUP3 SLOAD SWAP1 JUMP JUMPDEST PUSH1 0x0 DUP3 DUP2 MSTORE PUSH1 0x20 DUP2 SWAP1 MSTORE PUSH1 0x40 SWAP1 KECCAK256 PUSH1 0x1 ADD SLOAD PUSH2 0x158D DUP2 CALLER PUSH2 0x1133 JUMP JUMPDEST PUSH2 0x863 DUP4 DUP4 PUSH2 0x18AB JUMP JUMPDEST PUSH1 0x0 DUP3 DUP2 MSTORE PUSH1 0x20 DUP2 DUP2 MSTORE PUSH1 0x40 DUP1 DUP4 KECCAK256 PUSH1 0x1 PUSH1 0x1 PUSH1 0xA0 SHL SUB DUP6 AND DUP5 MSTORE SWAP1 SWAP2 MSTORE SWAP1 KECCAK256 SLOAD PUSH1 0xFF AND PUSH2 0x10B3 JUMPI PUSH1 0x0 DUP3 DUP2 MSTORE PUSH1 0x20 DUP2 DUP2 MSTORE PUSH1 0x40 DUP1 DUP4 KECCAK256 PUSH1 0x1 PUSH1 0x1 PUSH1 0xA0 SHL SUB DUP6 AND DUP5 MSTORE SWAP1 SWAP2 MSTORE SWAP1 KECCAK256 DUP1 SLOAD PUSH1 0xFF NOT AND PUSH1 0x1 OR SWAP1 SSTORE PUSH2 0x15F1 CALLER SWAP1 JUMP JUMPDEST PUSH1 0x1 PUSH1 0x1 PUSH1 0xA0 SHL SUB AND DUP2 PUSH1 0x1 PUSH1 0x1 PUSH1 0xA0 SHL SUB AND DUP4 PUSH32 0x2F8788117E7EFF1D82E926EC794901D17C78024A50270940304540A733656F0D PUSH1 0x40 MLOAD PUSH1 0x40 MLOAD DUP1 SWAP2 SUB SWAP1 LOG4 POP POP JUMP JUMPDEST PUSH1 0x0 DUP2 DUP2 MSTORE PUSH1 0x1 DUP4 ADD PUSH1 0x20 MSTORE PUSH1 0x40 DUP2 KECCAK256 SLOAD PUSH2 0x167C JUMPI POP DUP2 SLOAD PUSH1 0x1 DUP2 DUP2 ADD DUP5 SSTORE PUSH1 0x0 DUP5 DUP2 MSTORE PUSH1 0x20 DUP1 DUP3 KECCAK256 SWAP1 SWAP4 ADD DUP5 SWAP1 SSTORE DUP5 SLOAD DUP5 DUP3 MSTORE DUP3 DUP7 ADD SWAP1 SWAP4 MSTORE PUSH1 0x40 SWAP1 KECCAK256 SWAP2 SWAP1 SWAP2 SSTORE PUSH2 0x75A JUMP JUMPDEST POP PUSH1 0x0 PUSH2 0x75A JUMP JUMPDEST PUSH1 0x60 PUSH1 0x0 PUSH2 0x1693 DUP4 PUSH1 0x2 PUSH2 0x1DBE JUMP JUMPDEST PUSH2 0x169E SWAP1 PUSH1 0x2 PUSH2 0x1D86 JUMP JUMPDEST PUSH8 0xFFFFFFFFFFFFFFFF DUP2 GT ISZERO PUSH2 0x16C4 JUMPI PUSH4 0x4E487B71 PUSH1 0xE0 SHL PUSH1 0x0 MSTORE PUSH1 0x41 PUSH1 0x4 MSTORE PUSH1 0x24 PUSH1 0x0 REVERT JUMPDEST PUSH1 0x40 MLOAD SWAP1 DUP1 DUP3 MSTORE DUP1 PUSH1 0x1F ADD PUSH1 0x1F NOT AND PUSH1 0x20 ADD DUP3 ADD PUSH1 0x40 MSTORE DUP1 ISZERO PUSH2 0x16EE JUMPI PUSH1 0x20 DUP3 ADD DUP2 DUP1 CALLDATASIZE DUP4 CALLDATACOPY ADD SWAP1 POP JUMPDEST POP SWAP1 POP PUSH32 0x3000000000000000000000000000000000000000000000000000000000000000 DUP2 PUSH1 0x0 DUP2 MLOAD DUP2 LT PUSH2 0x1733 JUMPI PUSH4 0x4E487B71 PUSH1 0xE0 SHL PUSH1 0x0 MSTORE PUSH1 0x32 PUSH1 0x4 MSTORE PUSH1 0x24 PUSH1 0x0 REVERT JUMPDEST PUSH1 0x20 ADD ADD SWAP1 PUSH1 0x1 PUSH1 0x1 PUSH1 0xF8 SHL SUB NOT AND SWAP1 DUP2 PUSH1 0x0 BYTE SWAP1 MSTORE8 POP PUSH32 0x7800000000000000000000000000000000000000000000000000000000000000 DUP2 PUSH1 0x1 DUP2 MLOAD DUP2 LT PUSH2 0x178C JUMPI PUSH4 0x4E487B71 PUSH1 0xE0 SHL PUSH1 0x0 MSTORE PUSH1 0x32 PUSH1 0x4 MSTORE PUSH1 0x24 PUSH1 0x0 REVERT JUMPDEST PUSH1 0x20 ADD ADD SWAP1 PUSH1 0x1 PUSH1 0x1 PUSH1 0xF8 SHL SUB NOT AND SWAP1 DUP2 PUSH1 0x0 BYTE SWAP1 MSTORE8 POP PUSH1 0x0 PUSH2 0x17B0 DUP5 PUSH1 0x2 PUSH2 0x1DBE JUMP JUMPDEST PUSH2 0x17BB SWAP1 PUSH1 0x1 PUSH2 0x1D86 JUMP JUMPDEST SWAP1 POP JUMPDEST PUSH1 0x1 DUP2 GT ISZERO PUSH2 0x185C JUMPI PUSH32 0x3031323334353637383961626364656600000000000000000000000000000000 DUP6 PUSH1 0xF AND PUSH1 0x10 DUP2 LT PUSH2 0x180A JUMPI PUSH4 0x4E487B71 PUSH1 0xE0 SHL PUSH1 0x0 MSTORE PUSH1 0x32 PUSH1 0x4 MSTORE PUSH1 0x24 PUSH1 0x0 REVERT JUMPDEST BYTE PUSH1 0xF8 SHL DUP3 DUP3 DUP2 MLOAD DUP2 LT PUSH2 0x182E JUMPI PUSH4 0x4E487B71 PUSH1 0xE0 SHL PUSH1 0x0 MSTORE PUSH1 0x32 PUSH1 0x4 MSTORE PUSH1 0x24 PUSH1 0x0 REVERT JUMPDEST PUSH1 0x20 ADD ADD SWAP1 PUSH1 0x1 PUSH1 0x1 PUSH1 0xF8 SHL SUB NOT AND SWAP1 DUP2 PUSH1 0x0 BYTE SWAP1 MSTORE8 POP PUSH1 0x4 SWAP5 SWAP1 SWAP5 SHR SWAP4 PUSH2 0x1855 DUP2 PUSH2 0x1E20 JUMP JUMPDEST SWAP1 POP PUSH2 0x17BE JUMP JUMPDEST POP DUP4 ISZERO PUSH2 0xF0D JUMPI PUSH1 0x40 MLOAD PUSH3 0x461BCD PUSH1 0xE5 SHL DUP2 MSTORE PUSH1 0x20 PUSH1 0x4 DUP3 ADD DUP2 SWAP1 MSTORE PUSH1 0x24 DUP3 ADD MSTORE PUSH32 0x537472696E67733A20686578206C656E67746820696E73756666696369656E74 PUSH1 0x44 DUP3 ADD MSTORE PUSH1 0x64 ADD PUSH2 0xAA8 JUMP JUMPDEST PUSH1 0x0 DUP3 DUP2 MSTORE PUSH1 0x20 DUP2 DUP2 MSTORE PUSH1 0x40 DUP1 DUP4 KECCAK256 PUSH1 0x1 PUSH1 0x1 PUSH1 0xA0 SHL SUB DUP6 AND DUP5 MSTORE SWAP1 SWAP2 MSTORE SWAP1 KECCAK256 SLOAD PUSH1 0xFF AND ISZERO PUSH2 0x10B3 JUMPI PUSH1 0x0 DUP3 DUP2 MSTORE PUSH1 0x20 DUP2 DUP2 MSTORE PUSH1 0x40 DUP1 DUP4 KECCAK256 PUSH1 0x1 PUSH1 0x1 PUSH1 0xA0 SHL SUB DUP6 AND DUP1 DUP6 MSTORE SWAP3 MSTORE DUP1 DUP4 KECCAK256 DUP1 SLOAD PUSH1 0xFF NOT AND SWAP1 SSTORE MLOAD CALLER SWAP3 DUP6 SWAP2 PUSH32 0xF6391F5C32D9C69D2A47EA670B442974B53935D1EDC7FD64EB21E047A839171B SWAP2 SWAP1 LOG4 POP POP JUMP JUMPDEST PUSH1 0x0 DUP2 DUP2 MSTORE PUSH1 0x1 DUP4 ADD PUSH1 0x20 MSTORE PUSH1 0x40 DUP2 KECCAK256 SLOAD DUP1 ISZERO PUSH2 0x1A3D JUMPI PUSH1 0x0 PUSH2 0x194E PUSH1 0x1 DUP4 PUSH2 0x1DDD JUMP JUMPDEST DUP6 SLOAD SWAP1 SWAP2 POP PUSH1 0x0 SWAP1 PUSH2 0x1962 SWAP1 PUSH1 0x1 SWAP1 PUSH2 0x1DDD JUMP JUMPDEST SWAP1 POP DUP2 DUP2 EQ PUSH2 0x19E3 JUMPI PUSH1 0x0 DUP7 PUSH1 0x0 ADD DUP3 DUP2 SLOAD DUP2 LT PUSH2 0x1990 JUMPI PUSH4 0x4E487B71 PUSH1 0xE0 SHL PUSH1 0x0 MSTORE PUSH1 0x32 PUSH1 0x4 MSTORE PUSH1 0x24 PUSH1 0x0 REVERT JUMPDEST SWAP1 PUSH1 0x0 MSTORE PUSH1 0x20 PUSH1 0x0 KECCAK256 ADD SLOAD SWAP1 POP DUP1 DUP8 PUSH1 0x0 ADD DUP5 DUP2 SLOAD DUP2 LT PUSH2 0x19C1 JUMPI PUSH4 0x4E487B71 PUSH1 0xE0 SHL PUSH1 0x0 MSTORE PUSH1 0x32 PUSH1 0x4 MSTORE PUSH1 0x24 PUSH1 0x0 REVERT JUMPDEST PUSH1 0x0 SWAP2 DUP3 MSTORE PUSH1 0x20 DUP1 DUP4 KECCAK256 SWAP1 SWAP2 ADD SWAP3 SWAP1 SWAP3 SSTORE SWAP2 DUP3 MSTORE PUSH1 0x1 DUP9 ADD SWAP1 MSTORE PUSH1 0x40 SWAP1 KECCAK256 DUP4 SWAP1 SSTORE JUMPDEST DUP6 SLOAD DUP7 SWAP1 DUP1 PUSH2 0x1A02 JUMPI PUSH4 0x4E487B71 PUSH1 0xE0 SHL PUSH1 0x0 MSTORE PUSH1 0x31 PUSH1 0x4 MSTORE PUSH1 0x24 PUSH1 0x0 REVERT JUMPDEST PUSH1 0x1 SWAP1 SUB DUP2 DUP2 SWAP1 PUSH1 0x0 MSTORE PUSH1 0x20 PUSH1 0x0 KECCAK256 ADD PUSH1 0x0 SWAP1 SSTORE SWAP1 SSTORE DUP6 PUSH1 0x1 ADD PUSH1 0x0 DUP7 DUP2 MSTORE PUSH1 0x20 ADD SWAP1 DUP2 MSTORE PUSH1 0x20 ADD PUSH1 0x0 KECCAK256 PUSH1 0x0 SWAP1 SSTORE PUSH1 0x1 SWAP4 POP POP POP POP PUSH2 0x75A JUMP JUMPDEST PUSH1 0x0 SWAP2 POP POP PUSH2 0x75A JUMP JUMPDEST PUSH1 0x0 DUP3 PUSH1 0x0 ADD DUP3 DUP2 SLOAD DUP2 LT PUSH2 0x1A6C JUMPI PUSH4 0x4E487B71 PUSH1 0xE0 SHL PUSH1 0x0 MSTORE PUSH1 0x32 PUSH1 0x4 MSTORE PUSH1 0x24 PUSH1 0x0 REVERT JUMPDEST SWAP1 PUSH1 0x0 MSTORE PUSH1 0x20 PUSH1 0x0 KECCAK256 ADD SLOAD SWAP1 POP SWAP3 SWAP2 POP POP JUMP JUMPDEST DUP1 CALLDATALOAD PUSH1 0x1 PUSH1 0x1 PUSH1 0xA0 SHL SUB DUP2 AND DUP2 EQ PUSH2 0x1556 JUMPI PUSH1 0x0 DUP1 REVERT JUMPDEST PUSH1 0x0 PUSH1 0x20 DUP3 DUP5 SUB SLT ISZERO PUSH2 0x1AA7 JUMPI DUP1 DUP2 REVERT JUMPDEST PUSH2 0xF0D DUP3 PUSH2 0x1A7F JUMP JUMPDEST PUSH1 0x0 DUP1 PUSH1 0x40 DUP4 DUP6 SUB SLT ISZERO PUSH2 0x1AC2 JUMPI DUP1 DUP2 REVERT JUMPDEST PUSH2 0x1ACB DUP4 PUSH2 0x1A7F JUMP JUMPDEST SWAP5 PUSH1 0x20 SWAP4 SWAP1 SWAP4 ADD CALLDATALOAD SWAP4 POP POP POP JUMP JUMPDEST PUSH1 0x0 DUP1 PUSH1 0x20 DUP4 DUP6 SUB SLT ISZERO PUSH2 0x1AEB JUMPI DUP2 DUP3 REVERT JUMPDEST DUP3 CALLDATALOAD PUSH8 0xFFFFFFFFFFFFFFFF DUP1 DUP3 GT ISZERO PUSH2 0x1B02 JUMPI DUP4 DUP5 REVERT JUMPDEST DUP2 DUP6 ADD SWAP2 POP DUP6 PUSH1 0x1F DUP4 ADD SLT PUSH2 0x1B15 JUMPI DUP4 DUP5 REVERT JUMPDEST DUP2 CALLDATALOAD DUP2 DUP2 GT ISZERO PUSH2 0x1B23 JUMPI DUP5 DUP6 REVERT JUMPDEST DUP7 PUSH1 0x20 DUP3 PUSH1 0x6 SHL DUP6 ADD ADD GT ISZERO PUSH2 0x1B37 JUMPI DUP5 DUP6 REVERT JUMPDEST PUSH1 0x20 SWAP3 SWAP1 SWAP3 ADD SWAP7 SWAP2 SWAP6 POP SWAP1 SWAP4 POP POP POP POP JUMP JUMPDEST PUSH1 0x0 DUP1 PUSH1 0x0 PUSH1 0x60 DUP5 DUP7 SUB SLT ISZERO PUSH2 0x1B5D JUMPI DUP1 DUP2 REVERT JUMPDEST DUP4 CALLDATALOAD DUP1 ISZERO ISZERO DUP2 EQ PUSH2 0x1B6C JUMPI DUP2 DUP3 REVERT JUMPDEST SWAP3 POP PUSH2 0x1B7A PUSH1 0x20 DUP6 ADD PUSH2 0x1A7F JUMP JUMPDEST SWAP2 POP PUSH1 0x40 DUP5 ADD CALLDATALOAD SWAP1 POP SWAP3 POP SWAP3 POP SWAP3 JUMP JUMPDEST PUSH1 0x0 PUSH1 0x20 DUP3 DUP5 SUB SLT ISZERO PUSH2 0x1B9B JUMPI DUP1 DUP2 REVERT JUMPDEST POP CALLDATALOAD SWAP2 SWAP1 POP JUMP JUMPDEST PUSH1 0x0 DUP1 PUSH1 0x40 DUP4 DUP6 SUB SLT ISZERO PUSH2 0x1BB4 JUMPI DUP2 DUP3 REVERT JUMPDEST DUP3 CALLDATALOAD SWAP2 POP PUSH2 0x1BC4 PUSH1 0x20 DUP5 ADD PUSH2 0x1A7F JUMP JUMPDEST SWAP1 POP SWAP3 POP SWAP3 SWAP1 POP JUMP JUMPDEST PUSH1 0x0 DUP1 PUSH1 0x0 PUSH1 0x40 DUP5 DUP7 SUB SLT ISZERO PUSH2 0x1BE1 JUMPI DUP3 DUP4 REVERT JUMPDEST DUP4 CALLDATALOAD SWAP3 POP PUSH1 0x20 DUP5 ADD CALLDATALOAD PUSH8 0xFFFFFFFFFFFFFFFF DUP1 DUP3 GT ISZERO PUSH2 0x1BFF JUMPI DUP4 DUP5 REVERT JUMPDEST DUP2 DUP7 ADD SWAP2 POP DUP7 PUSH1 0x1F DUP4 ADD SLT PUSH2 0x1C12 JUMPI DUP4 DUP5 REVERT JUMPDEST DUP2 CALLDATALOAD DUP2 DUP2 GT ISZERO PUSH2 0x1C20 JUMPI DUP5 DUP6 REVERT JUMPDEST DUP8 PUSH1 0x20 DUP3 PUSH1 0x5 SHL DUP6 ADD ADD GT ISZERO PUSH2 0x1C34 JUMPI DUP5 DUP6 REVERT JUMPDEST PUSH1 0x20 DUP4 ADD SWAP5 POP DUP1 SWAP4 POP POP POP POP SWAP3 POP SWAP3 POP SWAP3 JUMP JUMPDEST PUSH1 0x0 DUP1 PUSH1 0x40 DUP4 DUP6 SUB SLT ISZERO PUSH2 0x1C59 JUMPI DUP2 DUP3 REVERT JUMPDEST POP POP DUP1 CALLDATALOAD SWAP3 PUSH1 0x20 SWAP1 SWAP2 ADD CALLDATALOAD SWAP2 POP JUMP JUMPDEST PUSH1 0x0 PUSH1 0x20 DUP3 DUP5 SUB SLT ISZERO PUSH2 0x1C79 JUMPI DUP1 DUP2 REVERT JUMPDEST DUP2 CALLDATALOAD PUSH1 0x1 PUSH1 0x1 PUSH1 0xE0 SHL SUB NOT DUP2 AND DUP2 EQ PUSH2 0xF0D JUMPI DUP2 DUP3 REVERT JUMPDEST PUSH1 0x0 PUSH1 0xA0 DUP3 DUP5 SUB SLT ISZERO PUSH2 0x1CA1 JUMPI DUP1 DUP2 REVERT JUMPDEST POP SWAP2 SWAP1 POP JUMP JUMPDEST PUSH1 0x0 DUP1 PUSH1 0x0 PUSH1 0x60 DUP5 DUP7 SUB SLT ISZERO PUSH2 0x1CBB JUMPI DUP3 DUP4 REVERT JUMPDEST POP POP DUP2 CALLDATALOAD SWAP4 PUSH1 0x20 DUP4 ADD CALLDATALOAD SWAP4 POP PUSH1 0x40 SWAP1 SWAP3 ADD CALLDATALOAD SWAP2 SWAP1 POP JUMP JUMPDEST PUSH32 0x416363657373436F6E74726F6C3A206163636F756E7420000000000000000000 DUP2 MSTORE PUSH1 0x0 DUP4 MLOAD PUSH2 0x1D0A DUP2 PUSH1 0x17 DUP6 ADD PUSH1 0x20 DUP9 ADD PUSH2 0x1DF4 JUMP JUMPDEST PUSH32 0x206973206D697373696E6720726F6C6520000000000000000000000000000000 PUSH1 0x17 SWAP2 DUP5 ADD SWAP2 DUP3 ADD MSTORE DUP4 MLOAD PUSH2 0x1D47 DUP2 PUSH1 0x28 DUP5 ADD PUSH1 0x20 DUP9 ADD PUSH2 0x1DF4 JUMP JUMPDEST ADD PUSH1 0x28 ADD SWAP5 SWAP4 POP POP POP POP JUMP JUMPDEST PUSH1 0x20 DUP2 MSTORE PUSH1 0x0 DUP3 MLOAD DUP1 PUSH1 0x20 DUP5 ADD MSTORE PUSH2 0x1D72 DUP2 PUSH1 0x40 DUP6 ADD PUSH1 0x20 DUP8 ADD PUSH2 0x1DF4 JUMP JUMPDEST PUSH1 0x1F ADD PUSH1 0x1F NOT AND SWAP2 SWAP1 SWAP2 ADD PUSH1 0x40 ADD SWAP3 SWAP2 POP POP JUMP JUMPDEST PUSH1 0x0 DUP3 NOT DUP3 GT ISZERO PUSH2 0x1D99 JUMPI PUSH2 0x1D99 PUSH2 0x1E52 JUMP JUMPDEST POP ADD SWAP1 JUMP JUMPDEST PUSH1 0x0 DUP3 PUSH2 0x1DB9 JUMPI PUSH4 0x4E487B71 PUSH1 0xE0 SHL DUP2 MSTORE PUSH1 0x12 PUSH1 0x4 MSTORE PUSH1 0x24 DUP2 REVERT JUMPDEST POP DIV SWAP1 JUMP JUMPDEST PUSH1 0x0 DUP2 PUSH1 0x0 NOT DIV DUP4 GT DUP3 ISZERO ISZERO AND ISZERO PUSH2 0x1DD8 JUMPI PUSH2 0x1DD8 PUSH2 0x1E52 JUMP JUMPDEST POP MUL SWAP1 JUMP JUMPDEST PUSH1 0x0 DUP3 DUP3 LT ISZERO PUSH2 0x1DEF JUMPI PUSH2 0x1DEF PUSH2 0x1E52 JUMP JUMPDEST POP SUB SWAP1 JUMP JUMPDEST PUSH1 0x0 JUMPDEST DUP4 DUP2 LT ISZERO PUSH2 0x1E0F JUMPI DUP2 DUP2 ADD MLOAD DUP4 DUP3 ADD MSTORE PUSH1 0x20 ADD PUSH2 0x1DF7 JUMP JUMPDEST DUP4 DUP2 GT ISZERO PUSH2 0x7F3 JUMPI POP POP PUSH1 0x0 SWAP2 ADD MSTORE JUMP JUMPDEST PUSH1 0x0 DUP2 PUSH2 0x1E2F JUMPI PUSH2 0x1E2F PUSH2 0x1E52 JUMP JUMPDEST POP PUSH1 0x0 NOT ADD SWAP1 JUMP JUMPDEST PUSH1 0x0 PUSH1 0x0 NOT DUP3 EQ ISZERO PUSH2 0x1E4B JUMPI PUSH2 0x1E4B PUSH2 0x1E52 JUMP JUMPDEST POP PUSH1 0x1 ADD SWAP1 JUMP JUMPDEST PUSH4 0x4E487B71 PUSH1 0xE0 SHL PUSH1 0x0 MSTORE PUSH1 0x11 PUSH1 0x4 MSTORE PUSH1 0x24 PUSH1 0x0 REVERT INVALID LOG2 PUSH5 0x6970667358 0x22 SLT KECCAK256 SDIV PUSH26 0xCFFD80D19BA8898E396BDC3538686997EE93E8F8230888A99CD9 DUP10 LOG2 0x29 CALLVALUE PUSH5 0x736F6C6343 STOP ADDMOD DIV STOP CALLER "
		},
		"gasEstimates": {
			"creation": {
				"codeDepositCost": "1567600",
				"executionCost": "infinite",
				"totalCost": "infinite"
			},
			"external": {
				"ROLE_ADMIN()": "252",
				"ROLE_BOT()": "252",
				"ROLE_DEX()": "250",
				"ROLE_TEAM_BENEFICIARY()": "296",
				"batchBurnAndReward()": "1097",
				"botTaxPercent()": "1053",
				"buyTimestampStorage(address)": "1297",
				"cachedMultiplier()": "1053",
				"chargeCustomTax(uint256,uint256)": "infinite",
				"cycleOneEnds()": "1097",
				"cycleOneStartTaxPercent()": "1073",
				"cycleThreeEndTaxPercent()": "1074",
				"cycleThreeEnds()": "1096",
				"cycleThreeStartTaxPercent()": "1072",
				"cycleTwoEnds()": "1054",
				"cycleTwoStartTaxPercent()": "1095",
				"firstMinutesTaxPercent()": "1096",
				"getBalance(address,uint256)": "infinite",
				"getRealBalance(address,uint256)": "infinite",
				"getRewardsBalance()": "infinite",
				"getRoleAdmin(bytes32)": "1227",
				"getRoleMember(bytes32,uint256)": "infinite",
				"getRoleMemberCount(bytes32)": "infinite",
				"getTotalSupply()": "infinite",
				"getWalletCurrentCycle(address)": "infinite",
				"grantOneRoleBulk(bytes32,address[])": "infinite",
				"grantRole(bytes32,address)": "infinite",
				"grantRolesBulk((bytes32,address)[])": "infinite",
				"hasRole(bytes32,address)": "1418",
				"howManyFirstMinutesIncreasedTax()": "1051",
				"lastCachedTimestamp()": "1052",
				"prepareHumanAddressMintOrBurnRewardsAmounts(bool,address,uint256)": "infinite",
				"prepareTaxAmounts((address,address,uint256,uint256,uint256))": "infinite",
				"publicForcedUpdateCacheMultiplier()": "infinite",
				"realTotalSupply()": "1095",
				"renounceRole(bytes32,address)": "infinite",
				"revokeRole(bytes32,address)": "infinite",
				"rewardsBalance()": "1075",
				"secondsBetweenRecacheUpdates()": "1096",
				"supportsInterface(bytes4)": "infinite",
				"teamPercentOfTax()": "1051",
				"updateBotTaxSettings(uint256,uint256,uint256)": "infinite",
				"updateCycleOneSettings(uint256,uint256)": "infinite",
				"updateCycleTwoSettings(uint256,uint256)": "infinite",
				"updateCycleTwoSettings(uint256,uint256,uint256)": "infinite",
				"updateDefiFactoryTokenAddress(address)": "21256",
				"updateSecondsBetweenUpdates(uint256)": "infinite",
				"updateTeamPercentOfTax(uint256)": "infinite"
			},
			"internal": {
				"calculateCurrentCycleTax(uint256)": "infinite",
				"delayedUpdateCacheMultiplier()": "infinite",
				"forcedUpdateCacheMultiplier()": "infinite",
				"isContract(address)": "infinite",
				"isNotContract(address)": "infinite"
			}
		},
		"methodIdentifiers": {
			"ROLE_ADMIN()": "d391014b",
			"ROLE_BOT()": "4ccc35fb",
			"ROLE_DEX()": "f687e46e",
			"ROLE_TEAM_BENEFICIARY()": "94b2242e",
			"batchBurnAndReward()": "1336a98f",
			"botTaxPercent()": "1857b512",
			"buyTimestampStorage(address)": "dfd5e129",
			"cachedMultiplier()": "36177818",
			"chargeCustomTax(uint256,uint256)": "36098758",
			"cycleOneEnds()": "372affbf",
			"cycleOneStartTaxPercent()": "7207786f",
			"cycleThreeEndTaxPercent()": "9394aa66",
			"cycleThreeEnds()": "60fd5fd7",
			"cycleThreeStartTaxPercent()": "fc78bab3",
			"cycleTwoEnds()": "01bf9180",
			"cycleTwoStartTaxPercent()": "e7baf7f4",
			"firstMinutesTaxPercent()": "4946828b",
			"getBalance(address,uint256)": "2b04e840",
			"getRealBalance(address,uint256)": "5cdba003",
			"getRewardsBalance()": "858a135d",
			"getRoleAdmin(bytes32)": "248a9ca3",
			"getRoleMember(bytes32,uint256)": "9010d07c",
			"getRoleMemberCount(bytes32)": "ca15c873",
			"getTotalSupply()": "c4e41b22",
			"getWalletCurrentCycle(address)": "9be810cc",
			"grantOneRoleBulk(bytes32,address[])": "dda7498e",
			"grantRole(bytes32,address)": "2f2ff15d",
			"grantRolesBulk((bytes32,address)[])": "03ed957f",
			"hasRole(bytes32,address)": "91d14854",
			"howManyFirstMinutesIncreasedTax()": "c4a8a169",
			"lastCachedTimestamp()": "40142e55",
			"prepareHumanAddressMintOrBurnRewardsAmounts(bool,address,uint256)": "42e58a63",
			"prepareTaxAmounts((address,address,uint256,uint256,uint256))": "815a61e0",
			"publicForcedUpdateCacheMultiplier()": "e8ac6e4e",
			"realTotalSupply()": "ef356a79",
			"renounceRole(bytes32,address)": "36568abe",
			"revokeRole(bytes32,address)": "d547741f",
			"rewardsBalance()": "131f2e53",
			"secondsBetweenRecacheUpdates()": "da9b835a",
			"supportsInterface(bytes4)": "01ffc9a7",
			"teamPercentOfTax()": "62109feb",
			"updateBotTaxSettings(uint256,uint256,uint256)": "7a35ca1e",
			"updateCycleOneSettings(uint256,uint256)": "fed77a80",
			"updateCycleTwoSettings(uint256,uint256)": "b6c5ab7b",
			"updateCycleTwoSettings(uint256,uint256,uint256)": "ebc27241",
			"updateDefiFactoryTokenAddress(address)": "bc6537e8",
			"updateSecondsBetweenUpdates(uint256)": "342c1919",
			"updateTeamPercentOfTax(uint256)": "119d7898"
		}
	},
	"abi": [
		{
			"inputs": [],
			"stateMutability": "nonpayable",
			"type": "constructor"
		},
		{
			"anonymous": false,
			"inputs": [
				{
					"indexed": false,
					"internalType": "address",
					"name": "from",
					"type": "address"
				},
				{
					"indexed": false,
					"internalType": "address",
					"name": "to",
					"type": "address"
				},
				{
					"indexed": false,
					"internalType": "uint256",
					"name": "transferAmount",
					"type": "uint256"
				},
				{
					"indexed": false,
					"internalType": "uint256",
					"name": "taxedAmount",
					"type": "uint256"
				}
			],
			"name": "BotTransactionDetected",
			"type": "event"
		},
		{
			"anonymous": false,
			"inputs": [
				{
					"indexed": false,
					"internalType": "uint256",
					"name": "newMultiplier",
					"type": "uint256"
				}
			],
			"name": "MultiplierUpdated",
			"type": "event"
		},
		{
			"anonymous": false,
			"inputs": [
				{
					"indexed": true,
					"internalType": "bytes32",
					"name": "role",
					"type": "bytes32"
				},
				{
					"indexed": true,
					"internalType": "bytes32",
					"name": "previousAdminRole",
					"type": "bytes32"
				},
				{
					"indexed": true,
					"internalType": "bytes32",
					"name": "newAdminRole",
					"type": "bytes32"
				}
			],
			"name": "RoleAdminChanged",
			"type": "event"
		},
		{
			"anonymous": false,
			"inputs": [
				{
					"indexed": true,
					"internalType": "bytes32",
					"name": "role",
					"type": "bytes32"
				},
				{
					"indexed": true,
					"internalType": "address",
					"name": "account",
					"type": "address"
				},
				{
					"indexed": true,
					"internalType": "address",
					"name": "sender",
					"type": "address"
				}
			],
			"name": "RoleGranted",
			"type": "event"
		},
		{
			"anonymous": false,
			"inputs": [
				{
					"indexed": true,
					"internalType": "bytes32",
					"name": "role",
					"type": "bytes32"
				},
				{
					"indexed": true,
					"internalType": "address",
					"name": "account",
					"type": "address"
				},
				{
					"indexed": true,
					"internalType": "address",
					"name": "sender",
					"type": "address"
				}
			],
			"name": "RoleRevoked",
			"type": "event"
		},
		{
			"anonymous": false,
			"inputs": [
				{
					"indexed": false,
					"internalType": "address",
					"name": "to",
					"type": "address"
				},
				{
					"indexed": false,
					"internalType": "uint256",
					"name": "transferAmount",
					"type": "uint256"
				}
			],
			"name": "TeamTaxRewardsSent",
			"type": "event"
		},
		{
			"inputs": [],
			"name": "ROLE_ADMIN",
			"outputs": [
				{
					"internalType": "bytes32",
					"name": "",
					"type": "bytes32"
				}
			],
			"stateMutability": "view",
			"type": "function"
		},
		{
			"inputs": [],
			"name": "ROLE_BOT",
			"outputs": [
				{
					"internalType": "bytes32",
					"name": "",
					"type": "bytes32"
				}
			],
			"stateMutability": "view",
			"type": "function"
		},
		{
			"inputs": [],
			"name": "ROLE_DEX",
			"outputs": [
				{
					"internalType": "bytes32",
					"name": "",
					"type": "bytes32"
				}
			],
			"stateMutability": "view",
			"type": "function"
		},
		{
			"inputs": [],
			"name": "ROLE_TEAM_BENEFICIARY",
			"outputs": [
				{
					"internalType": "bytes32",
					"name": "",
					"type": "bytes32"
				}
			],
			"stateMutability": "view",
			"type": "function"
		},
		{
			"inputs": [],
			"name": "batchBurnAndReward",
			"outputs": [
				{
					"internalType": "uint256",
					"name": "",
					"type": "uint256"
				}
			],
			"stateMutability": "view",
			"type": "function"
		},
		{
			"inputs": [],
			"name": "botTaxPercent",
			"outputs": [
				{
					"internalType": "uint256",
					"name": "",
					"type": "uint256"
				}
			],
			"stateMutability": "view",
			"type": "function"
		},
		{
			"inputs": [
				{
					"internalType": "address",
					"name": "",
					"type": "address"
				}
			],
			"name": "buyTimestampStorage",
			"outputs": [
				{
					"internalType": "uint256",
					"name": "",
					"type": "uint256"
				}
			],
			"stateMutability": "view",
			"type": "function"
		},
		{
			"inputs": [],
			"name": "cachedMultiplier",
			"outputs": [
				{
					"internalType": "uint256",
					"name": "",
					"type": "uint256"
				}
			],
			"stateMutability": "view",
			"type": "function"
		},
		{
			"inputs": [
				{
					"internalType": "uint256",
					"name": "taxAmount",
					"type": "uint256"
				},
				{
					"internalType": "uint256",
					"name": "accountBalance",
					"type": "uint256"
				}
			],
			"name": "chargeCustomTax",
			"outputs": [
				{
					"internalType": "uint256",
					"name": "",
					"type": "uint256"
				}
			],
			"stateMutability": "nonpayable",
			"type": "function"
		},
		{
			"inputs": [],
			"name": "cycleOneEnds",
			"outputs": [
				{
					"internalType": "uint256",
					"name": "",
					"type": "uint256"
				}
			],
			"stateMutability": "view",
			"type": "function"
		},
		{
			"inputs": [],
			"name": "cycleOneStartTaxPercent",
			"outputs": [
				{
					"internalType": "uint256",
					"name": "",
					"type": "uint256"
				}
			],
			"stateMutability": "view",
			"type": "function"
		},
		{
			"inputs": [],
			"name": "cycleThreeEndTaxPercent",
			"outputs": [
				{
					"internalType": "uint256",
					"name": "",
					"type": "uint256"
				}
			],
			"stateMutability": "view",
			"type": "function"
		},
		{
			"inputs": [],
			"name": "cycleThreeEnds",
			"outputs": [
				{
					"internalType": "uint256",
					"name": "",
					"type": "uint256"
				}
			],
			"stateMutability": "view",
			"type": "function"
		},
		{
			"inputs": [],
			"name": "cycleThreeStartTaxPercent",
			"outputs": [
				{
					"internalType": "uint256",
					"name": "",
					"type": "uint256"
				}
			],
			"stateMutability": "view",
			"type": "function"
		},
		{
			"inputs": [],
			"name": "cycleTwoEnds",
			"outputs": [
				{
					"internalType": "uint256",
					"name": "",
					"type": "uint256"
				}
			],
			"stateMutability": "view",
			"type": "function"
		},
		{
			"inputs": [],
			"name": "cycleTwoStartTaxPercent",
			"outputs": [
				{
					"internalType": "uint256",
					"name": "",
					"type": "uint256"
				}
			],
			"stateMutability": "view",
			"type": "function"
		},
		{
			"inputs": [],
			"name": "firstMinutesTaxPercent",
			"outputs": [
				{
					"internalType": "uint256",
					"name": "",
					"type": "uint256"
				}
			],
			"stateMutability": "view",
			"type": "function"
		},
		{
			"inputs": [
				{
					"internalType": "address",
					"name": "account",
					"type": "address"
				},
				{
					"internalType": "uint256",
					"name": "accountBalance",
					"type": "uint256"
				}
			],
			"name": "getBalance",
			"outputs": [
				{
					"internalType": "uint256",
					"name": "",
					"type": "uint256"
				}
			],
			"stateMutability": "view",
			"type": "function"
		},
		{
			"inputs": [
				{
					"internalType": "address",
					"name": "account",
					"type": "address"
				},
				{
					"internalType": "uint256",
					"name": "accountBalance",
					"type": "uint256"
				}
			],
			"name": "getRealBalance",
			"outputs": [
				{
					"internalType": "uint256",
					"name": "",
					"type": "uint256"
				}
			],
			"stateMutability": "view",
			"type": "function"
		},
		{
			"inputs": [],
			"name": "getRewardsBalance",
			"outputs": [
				{
					"internalType": "uint256",
					"name": "",
					"type": "uint256"
				}
			],
			"stateMutability": "view",
			"type": "function"
		},
		{
			"inputs": [
				{
					"internalType": "bytes32",
					"name": "role",
					"type": "bytes32"
				}
			],
			"name": "getRoleAdmin",
			"outputs": [
				{
					"internalType": "bytes32",
					"name": "",
					"type": "bytes32"
				}
			],
			"stateMutability": "view",
			"type": "function"
		},
		{
			"inputs": [
				{
					"internalType": "bytes32",
					"name": "role",
					"type": "bytes32"
				},
				{
					"internalType": "uint256",
					"name": "index",
					"type": "uint256"
				}
			],
			"name": "getRoleMember",
			"outputs": [
				{
					"internalType": "address",
					"name": "",
					"type": "address"
				}
			],
			"stateMutability": "view",
			"type": "function"
		},
		{
			"inputs": [
				{
					"internalType": "bytes32",
					"name": "role",
					"type": "bytes32"
				}
			],
			"name": "getRoleMemberCount",
			"outputs": [
				{
					"internalType": "uint256",
					"name": "",
					"type": "uint256"
				}
			],
			"stateMutability": "view",
			"type": "function"
		},
		{
			"inputs": [],
			"name": "getTotalSupply",
			"outputs": [
				{
					"internalType": "uint256",
					"name": "",
					"type": "uint256"
				}
			],
			"stateMutability": "view",
			"type": "function"
		},
		{
			"inputs": [
				{
					"internalType": "address",
					"name": "addr",
					"type": "address"
				}
			],
			"name": "getWalletCurrentCycle",
			"outputs": [
				{
					"components": [
						{
							"internalType": "uint256",
							"name": "currentCycleTax",
							"type": "uint256"
						},
						{
							"internalType": "uint256",
							"name": "howMuchTimeLeftTillEndOfCycleThree",
							"type": "uint256"
						}
					],
					"internalType": "struct NoBotsTechV2.CurrectCycle",
					"name": "currentCycle",
					"type": "tuple"
				}
			],
			"stateMutability": "nonpayable",
			"type": "function"
		},
		{
			"inputs": [
				{
					"internalType": "bytes32",
					"name": "role",
					"type": "bytes32"
				},
				{
					"internalType": "address[]",
					"name": "addrs",
					"type": "address[]"
				}
			],
			"name": "grantOneRoleBulk",
			"outputs": [],
			"stateMutability": "nonpayable",
			"type": "function"
		},
		{
			"inputs": [
				{
					"internalType": "bytes32",
					"name": "role",
					"type": "bytes32"
				},
				{
					"internalType": "address",
					"name": "account",
					"type": "address"
				}
			],
			"name": "grantRole",
			"outputs": [],
			"stateMutability": "nonpayable",
			"type": "function"
		},
		{
			"inputs": [
				{
					"components": [
						{
							"internalType": "bytes32",
							"name": "role",
							"type": "bytes32"
						},
						{
							"internalType": "address",
							"name": "addr",
							"type": "address"
						}
					],
					"internalType": "struct NoBotsTechV2.RoleAccess[]",
					"name": "roles",
					"type": "tuple[]"
				}
			],
			"name": "grantRolesBulk",
			"outputs": [],
			"stateMutability": "nonpayable",
			"type": "function"
		},
		{
			"inputs": [
				{
					"internalType": "bytes32",
					"name": "role",
					"type": "bytes32"
				},
				{
					"internalType": "address",
					"name": "account",
					"type": "address"
				}
			],
			"name": "hasRole",
			"outputs": [
				{
					"internalType": "bool",
					"name": "",
					"type": "bool"
				}
			],
			"stateMutability": "view",
			"type": "function"
		},
		{
			"inputs": [],
			"name": "howManyFirstMinutesIncreasedTax",
			"outputs": [
				{
					"internalType": "uint256",
					"name": "",
					"type": "uint256"
				}
			],
			"stateMutability": "view",
			"type": "function"
		},
		{
			"inputs": [],
			"name": "lastCachedTimestamp",
			"outputs": [
				{
					"internalType": "uint256",
					"name": "",
					"type": "uint256"
				}
			],
			"stateMutability": "view",
			"type": "function"
		},
		{
			"inputs": [
				{
					"internalType": "bool",
					"name": "isMint",
					"type": "bool"
				},
				{
					"internalType": "address",
					"name": "account",
					"type": "address"
				},
				{
					"internalType": "uint256",
					"name": "desiredAmountToMintOrBurn",
					"type": "uint256"
				}
			],
			"name": "prepareHumanAddressMintOrBurnRewardsAmounts",
			"outputs": [
				{
					"internalType": "uint256",
					"name": "",
					"type": "uint256"
				}
			],
			"stateMutability": "nonpayable",
			"type": "function"
		},
		{
			"inputs": [
				{
					"components": [
						{
							"internalType": "address",
							"name": "sender",
							"type": "address"
						},
						{
							"internalType": "address",
							"name": "recipient",
							"type": "address"
						},
						{
							"internalType": "uint256",
							"name": "transferAmount",
							"type": "uint256"
						},
						{
							"internalType": "uint256",
							"name": "senderRealBalance",
							"type": "uint256"
						},
						{
							"internalType": "uint256",
							"name": "recipientRealBalance",
							"type": "uint256"
						}
					],
					"internalType": "struct TaxAmountsInput",
					"name": "taxAmountsInput",
					"type": "tuple"
				}
			],
			"name": "prepareTaxAmounts",
			"outputs": [
				{
					"components": [
						{
							"internalType": "uint256",
							"name": "senderRealBalance",
							"type": "uint256"
						},
						{
							"internalType": "uint256",
							"name": "recipientRealBalance",
							"type": "uint256"
						},
						{
							"internalType": "uint256",
							"name": "burnAndRewardAmount",
							"type": "uint256"
						},
						{
							"internalType": "uint256",
							"name": "recipientGetsAmount",
							"type": "uint256"
						}
					],
					"internalType": "struct TaxAmountsOutput",
					"name": "taxAmountsOutput",
					"type": "tuple"
				}
			],
			"stateMutability": "nonpayable",
			"type": "function"
		},
		{
			"inputs": [],
			"name": "publicForcedUpdateCacheMultiplier",
			"outputs": [],
			"stateMutability": "nonpayable",
			"type": "function"
		},
		{
			"inputs": [],
			"name": "realTotalSupply",
			"outputs": [
				{
					"internalType": "uint256",
					"name": "",
					"type": "uint256"
				}
			],
			"stateMutability": "view",
			"type": "function"
		},
		{
			"inputs": [
				{
					"internalType": "bytes32",
					"name": "role",
					"type": "bytes32"
				},
				{
					"internalType": "address",
					"name": "account",
					"type": "address"
				}
			],
			"name": "renounceRole",
			"outputs": [],
			"stateMutability": "nonpayable",
			"type": "function"
		},
		{
			"inputs": [
				{
					"internalType": "bytes32",
					"name": "role",
					"type": "bytes32"
				},
				{
					"internalType": "address",
					"name": "account",
					"type": "address"
				}
			],
			"name": "revokeRole",
			"outputs": [],
			"stateMutability": "nonpayable",
			"type": "function"
		},
		{
			"inputs": [],
			"name": "rewardsBalance",
			"outputs": [
				{
					"internalType": "uint256",
					"name": "",
					"type": "uint256"
				}
			],
			"stateMutability": "view",
			"type": "function"
		},
		{
			"inputs": [],
			"name": "secondsBetweenRecacheUpdates",
			"outputs": [
				{
					"internalType": "uint256",
					"name": "",
					"type": "uint256"
				}
			],
			"stateMutability": "view",
			"type": "function"
		},
		{
			"inputs": [
				{
					"internalType": "bytes4",
					"name": "interfaceId",
					"type": "bytes4"
				}
			],
			"name": "supportsInterface",
			"outputs": [
				{
					"internalType": "bool",
					"name": "",
					"type": "bool"
				}
			],
			"stateMutability": "view",
			"type": "function"
		},
		{
			"inputs": [],
			"name": "teamPercentOfTax",
			"outputs": [
				{
					"internalType": "uint256",
					"name": "",
					"type": "uint256"
				}
			],
			"stateMutability": "view",
			"type": "function"
		},
		{
			"inputs": [
				{
					"internalType": "uint256",
					"name": "_botTaxPercent",
					"type": "uint256"
				},
				{
					"internalType": "uint256",
					"name": "_firstMinutesTaxPercent",
					"type": "uint256"
				},
				{
					"internalType": "uint256",
					"name": "_howManyFirstMinutesIncreasedTax",
					"type": "uint256"
				}
			],
			"name": "updateBotTaxSettings",
			"outputs": [],
			"stateMutability": "nonpayable",
			"type": "function"
		},
		{
			"inputs": [
				{
					"internalType": "uint256",
					"name": "_cycleOneStartTaxPercent",
					"type": "uint256"
				},
				{
					"internalType": "uint256",
					"name": "_cycleOneEnds",
					"type": "uint256"
				}
			],
			"name": "updateCycleOneSettings",
			"outputs": [],
			"stateMutability": "nonpayable",
			"type": "function"
		},
		{
			"inputs": [
				{
					"internalType": "uint256",
					"name": "_cycleTwoStartTaxPercent",
					"type": "uint256"
				},
				{
					"internalType": "uint256",
					"name": "_cycleTwoEnds",
					"type": "uint256"
				}
			],
			"name": "updateCycleTwoSettings",
			"outputs": [],
			"stateMutability": "nonpayable",
			"type": "function"
		},
		{
			"inputs": [
				{
					"internalType": "uint256",
					"name": "_cycleThreeStartTaxPercent",
					"type": "uint256"
				},
				{
					"internalType": "uint256",
					"name": "_cycleThreeEnds",
					"type": "uint256"
				},
				{
					"internalType": "uint256",
					"name": "_cycleThreeEndTaxPercent",
					"type": "uint256"
				}
			],
			"name": "updateCycleTwoSettings",
			"outputs": [],
			"stateMutability": "nonpayable",
			"type": "function"
		},
		{
			"inputs": [
				{
					"internalType": "address",
					"name": "_defiFactoryTokenAddress",
					"type": "address"
				}
			],
			"name": "updateDefiFactoryTokenAddress",
			"outputs": [],
			"stateMutability": "nonpayable",
			"type": "function"
		},
		{
			"inputs": [
				{
					"internalType": "uint256",
					"name": "_secondsBetweenRecacheUpdates",
					"type": "uint256"
				}
			],
			"name": "updateSecondsBetweenUpdates",
			"outputs": [],
			"stateMutability": "nonpayable",
			"type": "function"
		},
		{
			"inputs": [
				{
					"internalType": "uint256",
					"name": "_teamPercentOfTax",
					"type": "uint256"
				}
			],
			"name": "updateTeamPercentOfTax",
			"outputs": [],
			"stateMutability": "nonpayable",
			"type": "function"
		}
	]
}