{
	"data": {
		"bytecode": {
			"linkReferences": {},
			"object": "6080604052670de0b6b3a7640000600255426004556078600555620f1b306007556000600855620249f0600955629e3400600a5562013880600b5563013c6800600c55617530600d556301da9c00600e556000600f55620f1b306011553480156200006957600080fd5b5062000077600033620000c5565b6200008662278d00426200022a565b6014556002546040519081527f4dbe4840d7465bd162f67814cea0b519567a2e0e578bcde61e7f4ced361e5a3d9060200160405180910390a16200024e565b620000dc82826200010860201b620013281760201c565b6000828152600160209081526040909120620001039183906200133662000118821b17901c565b505050565b62000114828262000138565b5050565b60006200012f836001600160a01b038416620001d8565b90505b92915050565b6000828152602081815260408083206001600160a01b038516845290915290205460ff1662000114576000828152602081815260408083206001600160a01b03851684529091529020805460ff19166001179055620001943390565b6001600160a01b0316816001600160a01b0316837f2f8788117e7eff1d82e926ec794901d17c78024a50270940304540a733656f0d60405160405180910390a45050565b6000818152600183016020526040812054620002215750815460018181018455600084815260208082209093018490558454848252828601909352604090209190915562000132565b50600062000132565b6000828210156200024957634e487b7160e01b81526011600452602481fd5b500390565b612394806200025e6000396000f3fe608060405234801561001057600080fd5b50600436106102fe5760003560e01c8063815a61e01161019c578063c4e41b22116100ee578063e7baf7f411610097578063ef356a7911610071578063ef356a7914610614578063fc78bab31461061d578063fed77a801461062657600080fd5b8063e7baf7f4146105f0578063e8ac6e4e146105f9578063ebc272411461060157600080fd5b8063d547741f116100c8578063d547741f146105cb578063da9b835a146105de578063e62684db146105e757600080fd5b8063c4e41b22146105a8578063ca15c873146105b0578063d391014b146105c357600080fd5b80639394aa6611610150578063b6c5ab7b1161012a578063b6c5ab7b14610579578063bc6537e81461058c578063c4a8a1691461059f57600080fd5b80639394aa66146105395780639be810cc146105425780639f632f461461057057600080fd5b80639010d07c116101815780639010d07c146104dc57806391d14854146104ef5780639219023f1461052657600080fd5b8063815a61e01461048e578063858a135d146104d457600080fd5b8063326e953911610255578063372affbf116102095780635cdba003116101e35780635cdba0031461046957806360fd5fd71461047c5780637207786f1461048557600080fd5b8063372affbf1461044457806340142e551461044d57806342e58a631461045657600080fd5b8063360987581161023a5780633609875814610415578063361778181461042857806336568abe1461043157600080fd5b8063326e9539146103f9578063342c19191461040257600080fd5b80631336a98f116102b75780632b04e840116102915780632b04e840146103c05780632cf136f3146103d35780632f2ff15d146103e657600080fd5b80631336a98f1461038b5780631857b51214610394578063248a9ca31461039d57600080fd5b806301ffc9a7116102e857806301ffc9a71461034a57806303ed957f1461036d578063131f2e531461038257600080fd5b8062686ddc1461030357806301bf918014610333575b600080fd5b600654610316906001600160a01b031681565b6040516001600160a01b0390911681526020015b60405180910390f35b61033c600c5481565b60405190815260200161032a565b61035d6103583660046120a3565b610639565b604051901515815260200161032a565b61038061037b366004611f6f565b61067d565b005b61033c60125481565b61033c60035481565b61033c60075481565b61033c6103ab36600461203b565b60009081526020819052604090206001015490565b61033c6103ce366004611f44565b610716565b6103806103e1366004612082565b61074c565b6103806103f4366004612053565b610764565b61033c60115481565b61038061041036600461203b565b61078b565b61033c610423366004612082565b61079d565b61033c60025481565b61038061043f366004612053565b610803565b61033c600a5481565b61033c60045481565b61033c610464366004611ffb565b610825565b61033c610477366004611f44565b610a81565b61033c600e5481565b61033c60095481565b6104a161049c366004612148565b610aa3565b60405161032a91908151815260208083015190820152604080830151908201526060918201519181019190915260800190565b61033c610fdf565b6103166104ea366004612082565b610ff4565b61035d6104fd366004612053565b6000918252602082815260408084206001600160a01b0393909316845291905290205460ff1690565b61038061053436600461203b565b611013565b61033c600f5481565b610555610550366004611f0c565b611025565b6040805182518152602092830151928101929092520161032a565b61033c60145481565b610380610587366004612082565b61123e565b61038061059a366004611f0c565b611256565b61033c60085481565b61033c61129d565b61033c6105be36600461203b565b6112c0565b61033c600081565b6103806105d9366004612053565b6112d7565b61033c60055481565b61033c60105481565b61033c600b5481565b6103806112e1565b61038061060f366004612177565b6112f5565b61033c60135481565b61033c600d5481565b610380610634366004612082565b611310565b60006001600160e01b031982167f5a05180f00000000000000000000000000000000000000000000000000000000148061067757506106778261134b565b92915050565b600061068981336113b2565b60005b82811015610710576106fe8484838181106106b757634e487b7160e01b600052603260045260246000fd5b905060400201600001358585848181106106e157634e487b7160e01b600052603260045260246000fd5b90506040020160200160208101906106f99190611f0c565b611430565b8061070881612307565b91505061068c565b50505050565b60008061072381336113b2565b670de0b6b3a76400006002548461073a919061228e565b610744919061226e565b949350505050565b600061075881336113b2565b50600791909155600855565b61076e828261143a565b60008281526001602052604090206107869082611336565b505050565b600061079781336113b2565b50600555565b6000806107aa81336113b2565b6002546000906107c2670de0b6b3a76400008761228e565b6107cc919061226e565b90506107d881856122ad565b935080600360008282546107ec9190612256565b909155506107fa9050611450565b50919392505050565b61080d828261146f565b600082815260016020526040902061078690826114f7565b60008061083281336113b2565b60025460009061084a85670de0b6b3a764000061228e565b610854919061226e565b9050600061086282866122ad565b90508615610a4657806012600082825461087c9190612256565b9250508190555081601360008282546108959190612256565b90915550506006546040516370a0823160e01b81526001600160a01b03888116600483015260009216906370a082319060240160206040518083038186803b1580156108e057600080fd5b505afa1580156108f4573d6000803e3d6000fd5b505050506040513d601f19601f82011682018060405250810190610918919061215f565b90506000610926888361150c565b9050610933818389611657565b6006546040516306fb1a0760e01b8152600360048201529192506000916001600160a01b03909116906306fb1a079060240160206040518083038186803b15801561097d57600080fd5b505afa158015610991573d6000803e3d6000fd5b505050506040513d601f19601f820116820180604052508101906109b59190611f28565b6006546040517f2a5bf4700000000000000000000000000000000000000000000000000000000081526001600160a01b0391821660048201528b8216602482015260448101859052919250821690632a5bf47090606401600060405180830381600087803b158015610a2657600080fd5b505af1158015610a3a573d6000803e3d6000fd5b50505050505050610a77565b8060126000828254610a5891906122ad565b925050819055508160136000828254610a7191906122ad565b90915550505b5095945050505050565b600080610a8e81336113b2565b60025461073a670de0b6b3a76400008561228e565b610ace6040518060800160405280600081526020016000815260200160008152602001600081525090565b6000610ada81336113b2565b600254600090610af6670de0b6b3a7640000604087013561228e565b610b00919061226e565b905060008111610b575760405162461bcd60e51b815260206004820152600c60248201527f4e42543a2021616d6f756e74000000000000000000000000000000000000000060448201526064015b60405180910390fd5b6006546040516306fb1a0760e01b8152600360048201526000916001600160a01b0316906306fb1a079060240160206040518083038186803b158015610b9c57600080fd5b505afa158015610bb0573d6000803e3d6000fd5b505050506040513d601f19601f82011682018060405250810190610bd49190611f28565b6006549091506000906001600160a01b038084169163606237319116610bfd60208a018a611f0c565b610c0d60408b0160208c01611f0c565b60405160e085901b6001600160e01b03191681526001600160a01b03938416600482015291831660248301529091166044820152606401606060405180830381600087803b158015610c5e57600080fd5b505af1158015610c72573d6000803e3d6000fd5b505050506040513d601f19601f82011682018060405250810190610c9691906120cb565b905080602001511580610cca575080602001518015610cb95750620f4240601154105b8015610cca57506010548660400135105b610d165760405162461bcd60e51b815260206004820152600f60248201527f4e42543a20216275795f6c696d697400000000000000000000000000000000006044820152606401610b4e565b6000610d32610d286020890189611f0c565b886060013561150c565b90506000814211610d44576000610d4e565b610d4e82426122ad565b9050600083604001518015610d64575060085482105b158015610d6f575083515b905060008115610db157846040015115610dac576000610d8e846116df565b9050620f4240610d9e828a61228e565b610da8919061226e565b9150505b610e67565b620f424060075488610dc3919061228e565b610dcd919061226e565b90506000620f42406007548c60400135610de7919061228e565b610df1919061226e565b90507fa1a76b56d422be0a4c14ccc1281231aa006e67b6e03dcc433a873dc285491e51610e2160208d018d611f0c565b610e3160408e0160208f01611f0c565b604080516001600160a01b039384168152929091166020830152808e0135908201526060810183905260800160405180910390a1505b8460400151610f43576000610e8f610e8560408d0160208e01611f0c565b8c6080013561150c565b9050610ea0818c608001358a611657565b9050866001600160a01b0316632a5bf470600660009054906101000a90046001600160a01b03168d6020016020810190610eda9190611f0c565b6040516001600160e01b031960e085901b1681526001600160a01b0392831660048201529116602482015260448101849052606401600060405180830381600087803b158015610f2957600080fd5b505af1158015610f3d573d6000803e3d6000fd5b50505050505b6000610f4f82896122ad565b9050610f5f8860608d01356122ad565b8a52610f6f8160808d0135612256565b60208b015260038054839190600090610f89908490612256565b9091555050600254670de0b6b3a764000090610fa5908461228e565b610faf919061226e565b6040808c01829052610fc491908d01356122ad565b60608b0152610fd1611450565b505050505050505050919050565b600080610fec81336113b2565b505060125490565b600082815260016020526040812061100c90836117d1565b9392505050565b600061101f81336113b2565b50601155565b6040805180820182526000808252602082015260065491516306fb1a0760e01b81526003600482015290916001600160a01b0316906306fb1a079060240160206040518083038186803b15801561107b57600080fd5b505afa15801561108f573d6000803e3d6000fd5b505050506040513d601f19601f820116820180604052508101906110b39190611f28565b6040517feaa8f7e30000000000000000000000000000000000000000000000000000000081526001600160a01b038481166004830152919091169063eaa8f7e39060240160206040518083038186803b15801561110f57600080fd5b505afa158015611123573d6000803e3d6000fd5b505050506040513d601f19601f820116820180604052508101906111479190611fdf565b1561115e576007548152600e546020820152919050565b6006546040516370a0823160e01b81526001600160a01b03848116600483015260009216906370a082319060240160206040518083038186803b1580156111a457600080fd5b505afa1580156111b8573d6000803e3d6000fd5b505050506040513d601f19601f820116820180604052508101906111dc919061215f565b905060006111ea848361150c565b905060008142116111fc576000611206565b61120682426122ad565b9050611211816116df565b8452600e548110611223576000611231565b80600e5461123191906122ad565b6020850152505050919050565b600061124a81336113b2565b50600b91909155600c55565b600061126281336113b2565b50600680547fffffffffffffffffffffffff0000000000000000000000000000000000000000166001600160a01b0392909216919091179055565b6000806112aa81336113b2565b6012546013546112ba9190612256565b91505090565b6000818152600160205260408120610677906117dd565b61080d82826117e7565b6004544211156112f3576112f361180d565b565b600061130181336113b2565b50600d92909255600e55600f55565b600061131c81336113b2565b50600991909155600a55565b6113328282611a24565b5050565b600061100c836001600160a01b038416611ac2565b60006001600160e01b031982167f7965db0b00000000000000000000000000000000000000000000000000000000148061067757507f01ffc9a7000000000000000000000000000000000000000000000000000000006001600160e01b0319831614610677565b6000828152602081815260408083206001600160a01b038516845290915290205460ff16611332576113ee816001600160a01b03166014611b11565b6113f9836020611b11565b60405160200161140a9291906121a2565b60408051601f198184030181529082905262461bcd60e51b8252610b4e91600401612223565b61076e8282611328565b600061144681336113b2565b6107868383611a24565b6005546004546114609190612256565b4211156112f3576112f361180d565b6001600160a01b03811633146114ed5760405162461bcd60e51b815260206004820152602f60248201527f416363657373436f6e74726f6c3a2063616e206f6e6c792072656e6f756e636560448201527f20726f6c657320666f722073656c6600000000000000000000000000000000006064820152608401610b4e565b6113328282611d38565b600061100c836001600160a01b038416611db7565b6006546040516306fb1a0760e01b815260036004820152600091429183916001600160a01b0316906306fb1a079060240160206040518083038186803b15801561155557600080fd5b505afa158015611569573d6000803e3d6000fd5b505050506040513d601f19601f8201168201806040525081019061158d9190611f28565b6006546040517f161aa47e0000000000000000000000000000000000000000000000000000000081526001600160a01b03918216600482015287821660248201529192506000919083169063161aa47e9060440160206040518083038186803b1580156115f957600080fd5b505afa15801561160d573d6000803e3d6000fd5b505050506040513d601f19601f82011682018060405250810190611631919061215f565b905080156116415780925061164d565b841561164d5760145492505b5090949350505050565b60008084600e546116689190612256565b9050600042821161167a576000611684565b61168442836122ad565b905060006116928587612256565b600e5461169f908761228e565b6116a9848961228e565b6116b39190612256565b6116bd919061226e565b9050816116ca82896122ad565b6116d49190612256565b979650505050505050565b6000600e548211156116f3575050600f5490565b600c5482111561173257600c54600e5461170d91906122ad565b82600e5461171b91906122ad565b600d54611728919061228e565b610677919061226e565b600a5482111561178a57600a54600c5461174c91906122ad565b600a5461175990846122ad565b600d54600b5461176991906122ad565b611773919061228e565b61177d919061226e565b600b5461067791906122ad565b6008548211156117c957600a5482600b546009546117a891906122ad565b6117b2919061228e565b6117bc919061226e565b60095461067791906122ad565b505060075490565b600061100c8383611ed4565b6000610677825490565b60008281526020819052604090206001015461180381336113b2565b6107868383611d38565b42600455600354156118be576003546012600082825461182d9190612256565b9091555050600354601380546000906118479084906122ad565b9091555050600060035560135460125461186990670de0b6b3a764000061228e565b611873919061226e565b61188590670de0b6b3a7640000612256565b60028190556040519081527f4dbe4840d7465bd162f67814cea0b519567a2e0e578bcde61e7f4ced361e5a3d9060200160405180910390a15b620f424060115410156112f3576006546040516306fb1a0760e01b81526004808201526000916001600160a01b0316906306fb1a079060240160206040518083038186803b15801561190f57600080fd5b505afa158015611923573d6000803e3d6000fd5b505050506040513d601f19601f820116820180604052508101906119479190611f28565b6006546040516370a0823160e01b81526001600160a01b038084166004830152929350600092909116906370a082319060240160206040518083038186803b15801561199257600080fd5b505afa1580156119a6573d6000803e3d6000fd5b505050506040513d601f19601f820116820180604052508101906119ca919061215f565b9050620f4240601154826119de919061228e565b6119e8919061226e565b60108190556040519081527f7ba725e56dcc09f610b29c747f1d1afab653f8048e4b527c0baedf8ed35858cb9060200160405180910390a15050565b6000828152602081815260408083206001600160a01b038516845290915290205460ff16611332576000828152602081815260408083206001600160a01b03851684529091529020805460ff19166001179055611a7e3390565b6001600160a01b0316816001600160a01b0316837f2f8788117e7eff1d82e926ec794901d17c78024a50270940304540a733656f0d60405160405180910390a45050565b6000818152600183016020526040812054611b0957508154600181810184556000848152602080822090930184905584548482528286019093526040902091909155610677565b506000610677565b60606000611b2083600261228e565b611b2b906002612256565b67ffffffffffffffff811115611b5157634e487b7160e01b600052604160045260246000fd5b6040519080825280601f01601f191660200182016040528015611b7b576020820181803683370190505b5090507f300000000000000000000000000000000000000000000000000000000000000081600081518110611bc057634e487b7160e01b600052603260045260246000fd5b60200101906001600160f81b031916908160001a9053507f780000000000000000000000000000000000000000000000000000000000000081600181518110611c1957634e487b7160e01b600052603260045260246000fd5b60200101906001600160f81b031916908160001a9053506000611c3d84600261228e565b611c48906001612256565b90505b6001811115611ce9577f303132333435363738396162636465660000000000000000000000000000000085600f1660108110611c9757634e487b7160e01b600052603260045260246000fd5b1a60f81b828281518110611cbb57634e487b7160e01b600052603260045260246000fd5b60200101906001600160f81b031916908160001a90535060049490941c93611ce2816122f0565b9050611c4b565b50831561100c5760405162461bcd60e51b815260206004820181905260248201527f537472696e67733a20686578206c656e67746820696e73756666696369656e746044820152606401610b4e565b6000828152602081815260408083206001600160a01b038516845290915290205460ff1615611332576000828152602081815260408083206001600160a01b0385168085529252808320805460ff1916905551339285917ff6391f5c32d9c69d2a47ea670b442974b53935d1edc7fd64eb21e047a839171b9190a45050565b60008181526001830160205260408120548015611eca576000611ddb6001836122ad565b8554909150600090611def906001906122ad565b9050818114611e70576000866000018281548110611e1d57634e487b7160e01b600052603260045260246000fd5b9060005260206000200154905080876000018481548110611e4e57634e487b7160e01b600052603260045260246000fd5b6000918252602080832090910192909255918252600188019052604090208390555b8554869080611e8f57634e487b7160e01b600052603160045260246000fd5b600190038181906000526020600020016000905590558560010160008681526020019081526020016000206000905560019350505050610677565b6000915050610677565b6000826000018281548110611ef957634e487b7160e01b600052603260045260246000fd5b9060005260206000200154905092915050565b600060208284031215611f1d578081fd5b813561100c81612338565b600060208284031215611f39578081fd5b815161100c81612338565b60008060408385031215611f56578081fd5b8235611f6181612338565b946020939093013593505050565b60008060208385031215611f81578182fd5b823567ffffffffffffffff80821115611f98578384fd5b818501915085601f830112611fab578384fd5b813581811115611fb9578485fd5b8660208260061b8501011115611fcd578485fd5b60209290920196919550909350505050565b600060208284031215611ff0578081fd5b815161100c81612350565b60008060006060848603121561200f578081fd5b833561201a81612350565b9250602084013561202a81612338565b929592945050506040919091013590565b60006020828403121561204c578081fd5b5035919050565b60008060408385031215612065578182fd5b82359150602083013561207781612338565b809150509250929050565b60008060408385031215612094578182fd5b50508035926020909101359150565b6000602082840312156120b4578081fd5b81356001600160e01b03198116811461100c578182fd5b6000606082840312156120dc578081fd5b6040516060810181811067ffffffffffffffff8211171561210b57634e487b7160e01b83526041600452602483fd5b604052825161211981612350565b8152602083015161212981612350565b6020820152604083015161213c81612350565b60408201529392505050565b600060a08284031215612159578081fd5b50919050565b600060208284031215612170578081fd5b5051919050565b60008060006060848603121561218b578081fd5b505081359360208301359350604090920135919050565b7f416363657373436f6e74726f6c3a206163636f756e74200000000000000000008152600083516121da8160178501602088016122c4565b7f206973206d697373696e6720726f6c652000000000000000000000000000000060179184019182015283516122178160288401602088016122c4565b01602801949350505050565b60208152600082518060208401526122428160408501602087016122c4565b601f01601f19169190910160400192915050565b6000821982111561226957612269612322565b500190565b60008261228957634e487b7160e01b81526012600452602481fd5b500490565b60008160001904831182151516156122a8576122a8612322565b500290565b6000828210156122bf576122bf612322565b500390565b60005b838110156122df5781810151838201526020016122c7565b838111156107105750506000910152565b6000816122ff576122ff612322565b506000190190565b600060001982141561231b5761231b612322565b5060010190565b634e487b7160e01b600052601160045260246000fd5b6001600160a01b038116811461234d57600080fd5b50565b801515811461234d57600080fdfea2646970667358221220358e89a91fb1fa88ce9c9f0e20de499ec55031f682545e35dacc10bdcab0a56964736f6c63430008040033",
			"opcodes": "PUSH1 0x80 PUSH1 0x40 MSTORE PUSH8 0xDE0B6B3A7640000 PUSH1 0x2 SSTORE TIMESTAMP PUSH1 0x4 SSTORE PUSH1 0x78 PUSH1 0x5 SSTORE PUSH3 0xF1B30 PUSH1 0x7 SSTORE PUSH1 0x0 PUSH1 0x8 SSTORE PUSH3 0x249F0 PUSH1 0x9 SSTORE PUSH3 0x9E3400 PUSH1 0xA SSTORE PUSH3 0x13880 PUSH1 0xB SSTORE PUSH4 0x13C6800 PUSH1 0xC SSTORE PUSH2 0x7530 PUSH1 0xD SSTORE PUSH4 0x1DA9C00 PUSH1 0xE SSTORE PUSH1 0x0 PUSH1 0xF SSTORE PUSH3 0xF1B30 PUSH1 0x11 SSTORE CALLVALUE DUP1 ISZERO PUSH3 0x69 JUMPI PUSH1 0x0 DUP1 REVERT JUMPDEST POP PUSH3 0x77 PUSH1 0x0 CALLER PUSH3 0xC5 JUMP JUMPDEST PUSH3 0x86 PUSH3 0x278D00 TIMESTAMP PUSH3 0x22A JUMP JUMPDEST PUSH1 0x14 SSTORE PUSH1 0x2 SLOAD PUSH1 0x40 MLOAD SWAP1 DUP2 MSTORE PUSH32 0x4DBE4840D7465BD162F67814CEA0B519567A2E0E578BCDE61E7F4CED361E5A3D SWAP1 PUSH1 0x20 ADD PUSH1 0x40 MLOAD DUP1 SWAP2 SUB SWAP1 LOG1 PUSH3 0x24E JUMP JUMPDEST PUSH3 0xDC DUP3 DUP3 PUSH3 0x108 PUSH1 0x20 SHL PUSH3 0x1328 OR PUSH1 0x20 SHR JUMP JUMPDEST PUSH1 0x0 DUP3 DUP2 MSTORE PUSH1 0x1 PUSH1 0x20 SWAP1 DUP2 MSTORE PUSH1 0x40 SWAP1 SWAP2 KECCAK256 PUSH3 0x103 SWAP2 DUP4 SWAP1 PUSH3 0x1336 PUSH3 0x118 DUP3 SHL OR SWAP1 SHR JUMP JUMPDEST POP POP POP JUMP JUMPDEST PUSH3 0x114 DUP3 DUP3 PUSH3 0x138 JUMP JUMPDEST POP POP JUMP JUMPDEST PUSH1 0x0 PUSH3 0x12F DUP4 PUSH1 0x1 PUSH1 0x1 PUSH1 0xA0 SHL SUB DUP5 AND PUSH3 0x1D8 JUMP JUMPDEST SWAP1 POP JUMPDEST SWAP3 SWAP2 POP POP JUMP JUMPDEST PUSH1 0x0 DUP3 DUP2 MSTORE PUSH1 0x20 DUP2 DUP2 MSTORE PUSH1 0x40 DUP1 DUP4 KECCAK256 PUSH1 0x1 PUSH1 0x1 PUSH1 0xA0 SHL SUB DUP6 AND DUP5 MSTORE SWAP1 SWAP2 MSTORE SWAP1 KECCAK256 SLOAD PUSH1 0xFF AND PUSH3 0x114 JUMPI PUSH1 0x0 DUP3 DUP2 MSTORE PUSH1 0x20 DUP2 DUP2 MSTORE PUSH1 0x40 DUP1 DUP4 KECCAK256 PUSH1 0x1 PUSH1 0x1 PUSH1 0xA0 SHL SUB DUP6 AND DUP5 MSTORE SWAP1 SWAP2 MSTORE SWAP1 KECCAK256 DUP1 SLOAD PUSH1 0xFF NOT AND PUSH1 0x1 OR SWAP1 SSTORE PUSH3 0x194 CALLER SWAP1 JUMP JUMPDEST PUSH1 0x1 PUSH1 0x1 PUSH1 0xA0 SHL SUB AND DUP2 PUSH1 0x1 PUSH1 0x1 PUSH1 0xA0 SHL SUB AND DUP4 PUSH32 0x2F8788117E7EFF1D82E926EC794901D17C78024A50270940304540A733656F0D PUSH1 0x40 MLOAD PUSH1 0x40 MLOAD DUP1 SWAP2 SUB SWAP1 LOG4 POP POP JUMP JUMPDEST PUSH1 0x0 DUP2 DUP2 MSTORE PUSH1 0x1 DUP4 ADD PUSH1 0x20 MSTORE PUSH1 0x40 DUP2 KECCAK256 SLOAD PUSH3 0x221 JUMPI POP DUP2 SLOAD PUSH1 0x1 DUP2 DUP2 ADD DUP5 SSTORE PUSH1 0x0 DUP5 DUP2 MSTORE PUSH1 0x20 DUP1 DUP3 KECCAK256 SWAP1 SWAP4 ADD DUP5 SWAP1 SSTORE DUP5 SLOAD DUP5 DUP3 MSTORE DUP3 DUP7 ADD SWAP1 SWAP4 MSTORE PUSH1 0x40 SWAP1 KECCAK256 SWAP2 SWAP1 SWAP2 SSTORE PUSH3 0x132 JUMP JUMPDEST POP PUSH1 0x0 PUSH3 0x132 JUMP JUMPDEST PUSH1 0x0 DUP3 DUP3 LT ISZERO PUSH3 0x249 JUMPI PUSH4 0x4E487B71 PUSH1 0xE0 SHL DUP2 MSTORE PUSH1 0x11 PUSH1 0x4 MSTORE PUSH1 0x24 DUP2 REVERT JUMPDEST POP SUB SWAP1 JUMP JUMPDEST PUSH2 0x2394 DUP1 PUSH3 0x25E PUSH1 0x0 CODECOPY PUSH1 0x0 RETURN INVALID PUSH1 0x80 PUSH1 0x40 MSTORE CALLVALUE DUP1 ISZERO PUSH2 0x10 JUMPI PUSH1 0x0 DUP1 REVERT JUMPDEST POP PUSH1 0x4 CALLDATASIZE LT PUSH2 0x2FE JUMPI PUSH1 0x0 CALLDATALOAD PUSH1 0xE0 SHR DUP1 PUSH4 0x815A61E0 GT PUSH2 0x19C JUMPI DUP1 PUSH4 0xC4E41B22 GT PUSH2 0xEE JUMPI DUP1 PUSH4 0xE7BAF7F4 GT PUSH2 0x97 JUMPI DUP1 PUSH4 0xEF356A79 GT PUSH2 0x71 JUMPI DUP1 PUSH4 0xEF356A79 EQ PUSH2 0x614 JUMPI DUP1 PUSH4 0xFC78BAB3 EQ PUSH2 0x61D JUMPI DUP1 PUSH4 0xFED77A80 EQ PUSH2 0x626 JUMPI PUSH1 0x0 DUP1 REVERT JUMPDEST DUP1 PUSH4 0xE7BAF7F4 EQ PUSH2 0x5F0 JUMPI DUP1 PUSH4 0xE8AC6E4E EQ PUSH2 0x5F9 JUMPI DUP1 PUSH4 0xEBC27241 EQ PUSH2 0x601 JUMPI PUSH1 0x0 DUP1 REVERT JUMPDEST DUP1 PUSH4 0xD547741F GT PUSH2 0xC8 JUMPI DUP1 PUSH4 0xD547741F EQ PUSH2 0x5CB JUMPI DUP1 PUSH4 0xDA9B835A EQ PUSH2 0x5DE JUMPI DUP1 PUSH4 0xE62684DB EQ PUSH2 0x5E7 JUMPI PUSH1 0x0 DUP1 REVERT JUMPDEST DUP1 PUSH4 0xC4E41B22 EQ PUSH2 0x5A8 JUMPI DUP1 PUSH4 0xCA15C873 EQ PUSH2 0x5B0 JUMPI DUP1 PUSH4 0xD391014B EQ PUSH2 0x5C3 JUMPI PUSH1 0x0 DUP1 REVERT JUMPDEST DUP1 PUSH4 0x9394AA66 GT PUSH2 0x150 JUMPI DUP1 PUSH4 0xB6C5AB7B GT PUSH2 0x12A JUMPI DUP1 PUSH4 0xB6C5AB7B EQ PUSH2 0x579 JUMPI DUP1 PUSH4 0xBC6537E8 EQ PUSH2 0x58C JUMPI DUP1 PUSH4 0xC4A8A169 EQ PUSH2 0x59F JUMPI PUSH1 0x0 DUP1 REVERT JUMPDEST DUP1 PUSH4 0x9394AA66 EQ PUSH2 0x539 JUMPI DUP1 PUSH4 0x9BE810CC EQ PUSH2 0x542 JUMPI DUP1 PUSH4 0x9F632F46 EQ PUSH2 0x570 JUMPI PUSH1 0x0 DUP1 REVERT JUMPDEST DUP1 PUSH4 0x9010D07C GT PUSH2 0x181 JUMPI DUP1 PUSH4 0x9010D07C EQ PUSH2 0x4DC JUMPI DUP1 PUSH4 0x91D14854 EQ PUSH2 0x4EF JUMPI DUP1 PUSH4 0x9219023F EQ PUSH2 0x526 JUMPI PUSH1 0x0 DUP1 REVERT JUMPDEST DUP1 PUSH4 0x815A61E0 EQ PUSH2 0x48E JUMPI DUP1 PUSH4 0x858A135D EQ PUSH2 0x4D4 JUMPI PUSH1 0x0 DUP1 REVERT JUMPDEST DUP1 PUSH4 0x326E9539 GT PUSH2 0x255 JUMPI DUP1 PUSH4 0x372AFFBF GT PUSH2 0x209 JUMPI DUP1 PUSH4 0x5CDBA003 GT PUSH2 0x1E3 JUMPI DUP1 PUSH4 0x5CDBA003 EQ PUSH2 0x469 JUMPI DUP1 PUSH4 0x60FD5FD7 EQ PUSH2 0x47C JUMPI DUP1 PUSH4 0x7207786F EQ PUSH2 0x485 JUMPI PUSH1 0x0 DUP1 REVERT JUMPDEST DUP1 PUSH4 0x372AFFBF EQ PUSH2 0x444 JUMPI DUP1 PUSH4 0x40142E55 EQ PUSH2 0x44D JUMPI DUP1 PUSH4 0x42E58A63 EQ PUSH2 0x456 JUMPI PUSH1 0x0 DUP1 REVERT JUMPDEST DUP1 PUSH4 0x36098758 GT PUSH2 0x23A JUMPI DUP1 PUSH4 0x36098758 EQ PUSH2 0x415 JUMPI DUP1 PUSH4 0x36177818 EQ PUSH2 0x428 JUMPI DUP1 PUSH4 0x36568ABE EQ PUSH2 0x431 JUMPI PUSH1 0x0 DUP1 REVERT JUMPDEST DUP1 PUSH4 0x326E9539 EQ PUSH2 0x3F9 JUMPI DUP1 PUSH4 0x342C1919 EQ PUSH2 0x402 JUMPI PUSH1 0x0 DUP1 REVERT JUMPDEST DUP1 PUSH4 0x1336A98F GT PUSH2 0x2B7 JUMPI DUP1 PUSH4 0x2B04E840 GT PUSH2 0x291 JUMPI DUP1 PUSH4 0x2B04E840 EQ PUSH2 0x3C0 JUMPI DUP1 PUSH4 0x2CF136F3 EQ PUSH2 0x3D3 JUMPI DUP1 PUSH4 0x2F2FF15D EQ PUSH2 0x3E6 JUMPI PUSH1 0x0 DUP1 REVERT JUMPDEST DUP1 PUSH4 0x1336A98F EQ PUSH2 0x38B JUMPI DUP1 PUSH4 0x1857B512 EQ PUSH2 0x394 JUMPI DUP1 PUSH4 0x248A9CA3 EQ PUSH2 0x39D JUMPI PUSH1 0x0 DUP1 REVERT JUMPDEST DUP1 PUSH4 0x1FFC9A7 GT PUSH2 0x2E8 JUMPI DUP1 PUSH4 0x1FFC9A7 EQ PUSH2 0x34A JUMPI DUP1 PUSH4 0x3ED957F EQ PUSH2 0x36D JUMPI DUP1 PUSH4 0x131F2E53 EQ PUSH2 0x382 JUMPI PUSH1 0x0 DUP1 REVERT JUMPDEST DUP1 PUSH3 0x686DDC EQ PUSH2 0x303 JUMPI DUP1 PUSH4 0x1BF9180 EQ PUSH2 0x333 JUMPI JUMPDEST PUSH1 0x0 DUP1 REVERT JUMPDEST PUSH1 0x6 SLOAD PUSH2 0x316 SWAP1 PUSH1 0x1 PUSH1 0x1 PUSH1 0xA0 SHL SUB AND DUP2 JUMP JUMPDEST PUSH1 0x40 MLOAD PUSH1 0x1 PUSH1 0x1 PUSH1 0xA0 SHL SUB SWAP1 SWAP2 AND DUP2 MSTORE PUSH1 0x20 ADD JUMPDEST PUSH1 0x40 MLOAD DUP1 SWAP2 SUB SWAP1 RETURN JUMPDEST PUSH2 0x33C PUSH1 0xC SLOAD DUP2 JUMP JUMPDEST PUSH1 0x40 MLOAD SWAP1 DUP2 MSTORE PUSH1 0x20 ADD PUSH2 0x32A JUMP JUMPDEST PUSH2 0x35D PUSH2 0x358 CALLDATASIZE PUSH1 0x4 PUSH2 0x20A3 JUMP JUMPDEST PUSH2 0x639 JUMP JUMPDEST PUSH1 0x40 MLOAD SWAP1 ISZERO ISZERO DUP2 MSTORE PUSH1 0x20 ADD PUSH2 0x32A JUMP JUMPDEST PUSH2 0x380 PUSH2 0x37B CALLDATASIZE PUSH1 0x4 PUSH2 0x1F6F JUMP JUMPDEST PUSH2 0x67D JUMP JUMPDEST STOP JUMPDEST PUSH2 0x33C PUSH1 0x12 SLOAD DUP2 JUMP JUMPDEST PUSH2 0x33C PUSH1 0x3 SLOAD DUP2 JUMP JUMPDEST PUSH2 0x33C PUSH1 0x7 SLOAD DUP2 JUMP JUMPDEST PUSH2 0x33C PUSH2 0x3AB CALLDATASIZE PUSH1 0x4 PUSH2 0x203B JUMP JUMPDEST PUSH1 0x0 SWAP1 DUP2 MSTORE PUSH1 0x20 DUP2 SWAP1 MSTORE PUSH1 0x40 SWAP1 KECCAK256 PUSH1 0x1 ADD SLOAD SWAP1 JUMP JUMPDEST PUSH2 0x33C PUSH2 0x3CE CALLDATASIZE PUSH1 0x4 PUSH2 0x1F44 JUMP JUMPDEST PUSH2 0x716 JUMP JUMPDEST PUSH2 0x380 PUSH2 0x3E1 CALLDATASIZE PUSH1 0x4 PUSH2 0x2082 JUMP JUMPDEST PUSH2 0x74C JUMP JUMPDEST PUSH2 0x380 PUSH2 0x3F4 CALLDATASIZE PUSH1 0x4 PUSH2 0x2053 JUMP JUMPDEST PUSH2 0x764 JUMP JUMPDEST PUSH2 0x33C PUSH1 0x11 SLOAD DUP2 JUMP JUMPDEST PUSH2 0x380 PUSH2 0x410 CALLDATASIZE PUSH1 0x4 PUSH2 0x203B JUMP JUMPDEST PUSH2 0x78B JUMP JUMPDEST PUSH2 0x33C PUSH2 0x423 CALLDATASIZE PUSH1 0x4 PUSH2 0x2082 JUMP JUMPDEST PUSH2 0x79D JUMP JUMPDEST PUSH2 0x33C PUSH1 0x2 SLOAD DUP2 JUMP JUMPDEST PUSH2 0x380 PUSH2 0x43F CALLDATASIZE PUSH1 0x4 PUSH2 0x2053 JUMP JUMPDEST PUSH2 0x803 JUMP JUMPDEST PUSH2 0x33C PUSH1 0xA SLOAD DUP2 JUMP JUMPDEST PUSH2 0x33C PUSH1 0x4 SLOAD DUP2 JUMP JUMPDEST PUSH2 0x33C PUSH2 0x464 CALLDATASIZE PUSH1 0x4 PUSH2 0x1FFB JUMP JUMPDEST PUSH2 0x825 JUMP JUMPDEST PUSH2 0x33C PUSH2 0x477 CALLDATASIZE PUSH1 0x4 PUSH2 0x1F44 JUMP JUMPDEST PUSH2 0xA81 JUMP JUMPDEST PUSH2 0x33C PUSH1 0xE SLOAD DUP2 JUMP JUMPDEST PUSH2 0x33C PUSH1 0x9 SLOAD DUP2 JUMP JUMPDEST PUSH2 0x4A1 PUSH2 0x49C CALLDATASIZE PUSH1 0x4 PUSH2 0x2148 JUMP JUMPDEST PUSH2 0xAA3 JUMP JUMPDEST PUSH1 0x40 MLOAD PUSH2 0x32A SWAP2 SWAP1 DUP2 MLOAD DUP2 MSTORE PUSH1 0x20 DUP1 DUP4 ADD MLOAD SWAP1 DUP3 ADD MSTORE PUSH1 0x40 DUP1 DUP4 ADD MLOAD SWAP1 DUP3 ADD MSTORE PUSH1 0x60 SWAP2 DUP3 ADD MLOAD SWAP2 DUP2 ADD SWAP2 SWAP1 SWAP2 MSTORE PUSH1 0x80 ADD SWAP1 JUMP JUMPDEST PUSH2 0x33C PUSH2 0xFDF JUMP JUMPDEST PUSH2 0x316 PUSH2 0x4EA CALLDATASIZE PUSH1 0x4 PUSH2 0x2082 JUMP JUMPDEST PUSH2 0xFF4 JUMP JUMPDEST PUSH2 0x35D PUSH2 0x4FD CALLDATASIZE PUSH1 0x4 PUSH2 0x2053 JUMP JUMPDEST PUSH1 0x0 SWAP2 DUP3 MSTORE PUSH1 0x20 DUP3 DUP2 MSTORE PUSH1 0x40 DUP1 DUP5 KECCAK256 PUSH1 0x1 PUSH1 0x1 PUSH1 0xA0 SHL SUB SWAP4 SWAP1 SWAP4 AND DUP5 MSTORE SWAP2 SWAP1 MSTORE SWAP1 KECCAK256 SLOAD PUSH1 0xFF AND SWAP1 JUMP JUMPDEST PUSH2 0x380 PUSH2 0x534 CALLDATASIZE PUSH1 0x4 PUSH2 0x203B JUMP JUMPDEST PUSH2 0x1013 JUMP JUMPDEST PUSH2 0x33C PUSH1 0xF SLOAD DUP2 JUMP JUMPDEST PUSH2 0x555 PUSH2 0x550 CALLDATASIZE PUSH1 0x4 PUSH2 0x1F0C JUMP JUMPDEST PUSH2 0x1025 JUMP JUMPDEST PUSH1 0x40 DUP1 MLOAD DUP3 MLOAD DUP2 MSTORE PUSH1 0x20 SWAP3 DUP4 ADD MLOAD SWAP3 DUP2 ADD SWAP3 SWAP1 SWAP3 MSTORE ADD PUSH2 0x32A JUMP JUMPDEST PUSH2 0x33C PUSH1 0x14 SLOAD DUP2 JUMP JUMPDEST PUSH2 0x380 PUSH2 0x587 CALLDATASIZE PUSH1 0x4 PUSH2 0x2082 JUMP JUMPDEST PUSH2 0x123E JUMP JUMPDEST PUSH2 0x380 PUSH2 0x59A CALLDATASIZE PUSH1 0x4 PUSH2 0x1F0C JUMP JUMPDEST PUSH2 0x1256 JUMP JUMPDEST PUSH2 0x33C PUSH1 0x8 SLOAD DUP2 JUMP JUMPDEST PUSH2 0x33C PUSH2 0x129D JUMP JUMPDEST PUSH2 0x33C PUSH2 0x5BE CALLDATASIZE PUSH1 0x4 PUSH2 0x203B JUMP JUMPDEST PUSH2 0x12C0 JUMP JUMPDEST PUSH2 0x33C PUSH1 0x0 DUP2 JUMP JUMPDEST PUSH2 0x380 PUSH2 0x5D9 CALLDATASIZE PUSH1 0x4 PUSH2 0x2053 JUMP JUMPDEST PUSH2 0x12D7 JUMP JUMPDEST PUSH2 0x33C PUSH1 0x5 SLOAD DUP2 JUMP JUMPDEST PUSH2 0x33C PUSH1 0x10 SLOAD DUP2 JUMP JUMPDEST PUSH2 0x33C PUSH1 0xB SLOAD DUP2 JUMP JUMPDEST PUSH2 0x380 PUSH2 0x12E1 JUMP JUMPDEST PUSH2 0x380 PUSH2 0x60F CALLDATASIZE PUSH1 0x4 PUSH2 0x2177 JUMP JUMPDEST PUSH2 0x12F5 JUMP JUMPDEST PUSH2 0x33C PUSH1 0x13 SLOAD DUP2 JUMP JUMPDEST PUSH2 0x33C PUSH1 0xD SLOAD DUP2 JUMP JUMPDEST PUSH2 0x380 PUSH2 0x634 CALLDATASIZE PUSH1 0x4 PUSH2 0x2082 JUMP JUMPDEST PUSH2 0x1310 JUMP JUMPDEST PUSH1 0x0 PUSH1 0x1 PUSH1 0x1 PUSH1 0xE0 SHL SUB NOT DUP3 AND PUSH32 0x5A05180F00000000000000000000000000000000000000000000000000000000 EQ DUP1 PUSH2 0x677 JUMPI POP PUSH2 0x677 DUP3 PUSH2 0x134B JUMP JUMPDEST SWAP3 SWAP2 POP POP JUMP JUMPDEST PUSH1 0x0 PUSH2 0x689 DUP2 CALLER PUSH2 0x13B2 JUMP JUMPDEST PUSH1 0x0 JUMPDEST DUP3 DUP2 LT ISZERO PUSH2 0x710 JUMPI PUSH2 0x6FE DUP5 DUP5 DUP4 DUP2 DUP2 LT PUSH2 0x6B7 JUMPI PUSH4 0x4E487B71 PUSH1 0xE0 SHL PUSH1 0x0 MSTORE PUSH1 0x32 PUSH1 0x4 MSTORE PUSH1 0x24 PUSH1 0x0 REVERT JUMPDEST SWAP1 POP PUSH1 0x40 MUL ADD PUSH1 0x0 ADD CALLDATALOAD DUP6 DUP6 DUP5 DUP2 DUP2 LT PUSH2 0x6E1 JUMPI PUSH4 0x4E487B71 PUSH1 0xE0 SHL PUSH1 0x0 MSTORE PUSH1 0x32 PUSH1 0x4 MSTORE PUSH1 0x24 PUSH1 0x0 REVERT JUMPDEST SWAP1 POP PUSH1 0x40 MUL ADD PUSH1 0x20 ADD PUSH1 0x20 DUP2 ADD SWAP1 PUSH2 0x6F9 SWAP2 SWAP1 PUSH2 0x1F0C JUMP JUMPDEST PUSH2 0x1430 JUMP JUMPDEST DUP1 PUSH2 0x708 DUP2 PUSH2 0x2307 JUMP JUMPDEST SWAP2 POP POP PUSH2 0x68C JUMP JUMPDEST POP POP POP POP JUMP JUMPDEST PUSH1 0x0 DUP1 PUSH2 0x723 DUP2 CALLER PUSH2 0x13B2 JUMP JUMPDEST PUSH8 0xDE0B6B3A7640000 PUSH1 0x2 SLOAD DUP5 PUSH2 0x73A SWAP2 SWAP1 PUSH2 0x228E JUMP JUMPDEST PUSH2 0x744 SWAP2 SWAP1 PUSH2 0x226E JUMP JUMPDEST SWAP5 SWAP4 POP POP POP POP JUMP JUMPDEST PUSH1 0x0 PUSH2 0x758 DUP2 CALLER PUSH2 0x13B2 JUMP JUMPDEST POP PUSH1 0x7 SWAP2 SWAP1 SWAP2 SSTORE PUSH1 0x8 SSTORE JUMP JUMPDEST PUSH2 0x76E DUP3 DUP3 PUSH2 0x143A JUMP JUMPDEST PUSH1 0x0 DUP3 DUP2 MSTORE PUSH1 0x1 PUSH1 0x20 MSTORE PUSH1 0x40 SWAP1 KECCAK256 PUSH2 0x786 SWAP1 DUP3 PUSH2 0x1336 JUMP JUMPDEST POP POP POP JUMP JUMPDEST PUSH1 0x0 PUSH2 0x797 DUP2 CALLER PUSH2 0x13B2 JUMP JUMPDEST POP PUSH1 0x5 SSTORE JUMP JUMPDEST PUSH1 0x0 DUP1 PUSH2 0x7AA DUP2 CALLER PUSH2 0x13B2 JUMP JUMPDEST PUSH1 0x2 SLOAD PUSH1 0x0 SWAP1 PUSH2 0x7C2 PUSH8 0xDE0B6B3A7640000 DUP8 PUSH2 0x228E JUMP JUMPDEST PUSH2 0x7CC SWAP2 SWAP1 PUSH2 0x226E JUMP JUMPDEST SWAP1 POP PUSH2 0x7D8 DUP2 DUP6 PUSH2 0x22AD JUMP JUMPDEST SWAP4 POP DUP1 PUSH1 0x3 PUSH1 0x0 DUP3 DUP3 SLOAD PUSH2 0x7EC SWAP2 SWAP1 PUSH2 0x2256 JUMP JUMPDEST SWAP1 SWAP2 SSTORE POP PUSH2 0x7FA SWAP1 POP PUSH2 0x1450 JUMP JUMPDEST POP SWAP2 SWAP4 SWAP3 POP POP POP JUMP JUMPDEST PUSH2 0x80D DUP3 DUP3 PUSH2 0x146F JUMP JUMPDEST PUSH1 0x0 DUP3 DUP2 MSTORE PUSH1 0x1 PUSH1 0x20 MSTORE PUSH1 0x40 SWAP1 KECCAK256 PUSH2 0x786 SWAP1 DUP3 PUSH2 0x14F7 JUMP JUMPDEST PUSH1 0x0 DUP1 PUSH2 0x832 DUP2 CALLER PUSH2 0x13B2 JUMP JUMPDEST PUSH1 0x2 SLOAD PUSH1 0x0 SWAP1 PUSH2 0x84A DUP6 PUSH8 0xDE0B6B3A7640000 PUSH2 0x228E JUMP JUMPDEST PUSH2 0x854 SWAP2 SWAP1 PUSH2 0x226E JUMP JUMPDEST SWAP1 POP PUSH1 0x0 PUSH2 0x862 DUP3 DUP7 PUSH2 0x22AD JUMP JUMPDEST SWAP1 POP DUP7 ISZERO PUSH2 0xA46 JUMPI DUP1 PUSH1 0x12 PUSH1 0x0 DUP3 DUP3 SLOAD PUSH2 0x87C SWAP2 SWAP1 PUSH2 0x2256 JUMP JUMPDEST SWAP3 POP POP DUP2 SWAP1 SSTORE POP DUP2 PUSH1 0x13 PUSH1 0x0 DUP3 DUP3 SLOAD PUSH2 0x895 SWAP2 SWAP1 PUSH2 0x2256 JUMP JUMPDEST SWAP1 SWAP2 SSTORE POP POP PUSH1 0x6 SLOAD PUSH1 0x40 MLOAD PUSH4 0x70A08231 PUSH1 0xE0 SHL DUP2 MSTORE PUSH1 0x1 PUSH1 0x1 PUSH1 0xA0 SHL SUB DUP9 DUP2 AND PUSH1 0x4 DUP4 ADD MSTORE PUSH1 0x0 SWAP3 AND SWAP1 PUSH4 0x70A08231 SWAP1 PUSH1 0x24 ADD PUSH1 0x20 PUSH1 0x40 MLOAD DUP1 DUP4 SUB DUP2 DUP7 DUP1 EXTCODESIZE ISZERO DUP1 ISZERO PUSH2 0x8E0 JUMPI PUSH1 0x0 DUP1 REVERT JUMPDEST POP GAS STATICCALL ISZERO DUP1 ISZERO PUSH2 0x8F4 JUMPI RETURNDATASIZE PUSH1 0x0 DUP1 RETURNDATACOPY RETURNDATASIZE PUSH1 0x0 REVERT JUMPDEST POP POP POP POP PUSH1 0x40 MLOAD RETURNDATASIZE PUSH1 0x1F NOT PUSH1 0x1F DUP3 ADD AND DUP3 ADD DUP1 PUSH1 0x40 MSTORE POP DUP2 ADD SWAP1 PUSH2 0x918 SWAP2 SWAP1 PUSH2 0x215F JUMP JUMPDEST SWAP1 POP PUSH1 0x0 PUSH2 0x926 DUP9 DUP4 PUSH2 0x150C JUMP JUMPDEST SWAP1 POP PUSH2 0x933 DUP2 DUP4 DUP10 PUSH2 0x1657 JUMP JUMPDEST PUSH1 0x6 SLOAD PUSH1 0x40 MLOAD PUSH4 0x6FB1A07 PUSH1 0xE0 SHL DUP2 MSTORE PUSH1 0x3 PUSH1 0x4 DUP3 ADD MSTORE SWAP2 SWAP3 POP PUSH1 0x0 SWAP2 PUSH1 0x1 PUSH1 0x1 PUSH1 0xA0 SHL SUB SWAP1 SWAP2 AND SWAP1 PUSH4 0x6FB1A07 SWAP1 PUSH1 0x24 ADD PUSH1 0x20 PUSH1 0x40 MLOAD DUP1 DUP4 SUB DUP2 DUP7 DUP1 EXTCODESIZE ISZERO DUP1 ISZERO PUSH2 0x97D JUMPI PUSH1 0x0 DUP1 REVERT JUMPDEST POP GAS STATICCALL ISZERO DUP1 ISZERO PUSH2 0x991 JUMPI RETURNDATASIZE PUSH1 0x0 DUP1 RETURNDATACOPY RETURNDATASIZE PUSH1 0x0 REVERT JUMPDEST POP POP POP POP PUSH1 0x40 MLOAD RETURNDATASIZE PUSH1 0x1F NOT PUSH1 0x1F DUP3 ADD AND DUP3 ADD DUP1 PUSH1 0x40 MSTORE POP DUP2 ADD SWAP1 PUSH2 0x9B5 SWAP2 SWAP1 PUSH2 0x1F28 JUMP JUMPDEST PUSH1 0x6 SLOAD PUSH1 0x40 MLOAD PUSH32 0x2A5BF47000000000000000000000000000000000000000000000000000000000 DUP2 MSTORE PUSH1 0x1 PUSH1 0x1 PUSH1 0xA0 SHL SUB SWAP2 DUP3 AND PUSH1 0x4 DUP3 ADD MSTORE DUP12 DUP3 AND PUSH1 0x24 DUP3 ADD MSTORE PUSH1 0x44 DUP2 ADD DUP6 SWAP1 MSTORE SWAP2 SWAP3 POP DUP3 AND SWAP1 PUSH4 0x2A5BF470 SWAP1 PUSH1 0x64 ADD PUSH1 0x0 PUSH1 0x40 MLOAD DUP1 DUP4 SUB DUP2 PUSH1 0x0 DUP8 DUP1 EXTCODESIZE ISZERO DUP1 ISZERO PUSH2 0xA26 JUMPI PUSH1 0x0 DUP1 REVERT JUMPDEST POP GAS CALL ISZERO DUP1 ISZERO PUSH2 0xA3A JUMPI RETURNDATASIZE PUSH1 0x0 DUP1 RETURNDATACOPY RETURNDATASIZE PUSH1 0x0 REVERT JUMPDEST POP POP POP POP POP POP POP PUSH2 0xA77 JUMP JUMPDEST DUP1 PUSH1 0x12 PUSH1 0x0 DUP3 DUP3 SLOAD PUSH2 0xA58 SWAP2 SWAP1 PUSH2 0x22AD JUMP JUMPDEST SWAP3 POP POP DUP2 SWAP1 SSTORE POP DUP2 PUSH1 0x13 PUSH1 0x0 DUP3 DUP3 SLOAD PUSH2 0xA71 SWAP2 SWAP1 PUSH2 0x22AD JUMP JUMPDEST SWAP1 SWAP2 SSTORE POP POP JUMPDEST POP SWAP6 SWAP5 POP POP POP POP POP JUMP JUMPDEST PUSH1 0x0 DUP1 PUSH2 0xA8E DUP2 CALLER PUSH2 0x13B2 JUMP JUMPDEST PUSH1 0x2 SLOAD PUSH2 0x73A PUSH8 0xDE0B6B3A7640000 DUP6 PUSH2 0x228E JUMP JUMPDEST PUSH2 0xACE PUSH1 0x40 MLOAD DUP1 PUSH1 0x80 ADD PUSH1 0x40 MSTORE DUP1 PUSH1 0x0 DUP2 MSTORE PUSH1 0x20 ADD PUSH1 0x0 DUP2 MSTORE PUSH1 0x20 ADD PUSH1 0x0 DUP2 MSTORE PUSH1 0x20 ADD PUSH1 0x0 DUP2 MSTORE POP SWAP1 JUMP JUMPDEST PUSH1 0x0 PUSH2 0xADA DUP2 CALLER PUSH2 0x13B2 JUMP JUMPDEST PUSH1 0x2 SLOAD PUSH1 0x0 SWAP1 PUSH2 0xAF6 PUSH8 0xDE0B6B3A7640000 PUSH1 0x40 DUP8 ADD CALLDATALOAD PUSH2 0x228E JUMP JUMPDEST PUSH2 0xB00 SWAP2 SWAP1 PUSH2 0x226E JUMP JUMPDEST SWAP1 POP PUSH1 0x0 DUP2 GT PUSH2 0xB57 JUMPI PUSH1 0x40 MLOAD PUSH3 0x461BCD PUSH1 0xE5 SHL DUP2 MSTORE PUSH1 0x20 PUSH1 0x4 DUP3 ADD MSTORE PUSH1 0xC PUSH1 0x24 DUP3 ADD MSTORE PUSH32 0x4E42543A2021616D6F756E740000000000000000000000000000000000000000 PUSH1 0x44 DUP3 ADD MSTORE PUSH1 0x64 ADD JUMPDEST PUSH1 0x40 MLOAD DUP1 SWAP2 SUB SWAP1 REVERT JUMPDEST PUSH1 0x6 SLOAD PUSH1 0x40 MLOAD PUSH4 0x6FB1A07 PUSH1 0xE0 SHL DUP2 MSTORE PUSH1 0x3 PUSH1 0x4 DUP3 ADD MSTORE PUSH1 0x0 SWAP2 PUSH1 0x1 PUSH1 0x1 PUSH1 0xA0 SHL SUB AND SWAP1 PUSH4 0x6FB1A07 SWAP1 PUSH1 0x24 ADD PUSH1 0x20 PUSH1 0x40 MLOAD DUP1 DUP4 SUB DUP2 DUP7 DUP1 EXTCODESIZE ISZERO DUP1 ISZERO PUSH2 0xB9C JUMPI PUSH1 0x0 DUP1 REVERT JUMPDEST POP GAS STATICCALL ISZERO DUP1 ISZERO PUSH2 0xBB0 JUMPI RETURNDATASIZE PUSH1 0x0 DUP1 RETURNDATACOPY RETURNDATASIZE PUSH1 0x0 REVERT JUMPDEST POP POP POP POP PUSH1 0x40 MLOAD RETURNDATASIZE PUSH1 0x1F NOT PUSH1 0x1F DUP3 ADD AND DUP3 ADD DUP1 PUSH1 0x40 MSTORE POP DUP2 ADD SWAP1 PUSH2 0xBD4 SWAP2 SWAP1 PUSH2 0x1F28 JUMP JUMPDEST PUSH1 0x6 SLOAD SWAP1 SWAP2 POP PUSH1 0x0 SWAP1 PUSH1 0x1 PUSH1 0x1 PUSH1 0xA0 SHL SUB DUP1 DUP5 AND SWAP2 PUSH4 0x60623731 SWAP2 AND PUSH2 0xBFD PUSH1 0x20 DUP11 ADD DUP11 PUSH2 0x1F0C JUMP JUMPDEST PUSH2 0xC0D PUSH1 0x40 DUP12 ADD PUSH1 0x20 DUP13 ADD PUSH2 0x1F0C JUMP JUMPDEST PUSH1 0x40 MLOAD PUSH1 0xE0 DUP6 SWAP1 SHL PUSH1 0x1 PUSH1 0x1 PUSH1 0xE0 SHL SUB NOT AND DUP2 MSTORE PUSH1 0x1 PUSH1 0x1 PUSH1 0xA0 SHL SUB SWAP4 DUP5 AND PUSH1 0x4 DUP3 ADD MSTORE SWAP2 DUP4 AND PUSH1 0x24 DUP4 ADD MSTORE SWAP1 SWAP2 AND PUSH1 0x44 DUP3 ADD MSTORE PUSH1 0x64 ADD PUSH1 0x60 PUSH1 0x40 MLOAD DUP1 DUP4 SUB DUP2 PUSH1 0x0 DUP8 DUP1 EXTCODESIZE ISZERO DUP1 ISZERO PUSH2 0xC5E JUMPI PUSH1 0x0 DUP1 REVERT JUMPDEST POP GAS CALL ISZERO DUP1 ISZERO PUSH2 0xC72 JUMPI RETURNDATASIZE PUSH1 0x0 DUP1 RETURNDATACOPY RETURNDATASIZE PUSH1 0x0 REVERT JUMPDEST POP POP POP POP PUSH1 0x40 MLOAD RETURNDATASIZE PUSH1 0x1F NOT PUSH1 0x1F DUP3 ADD AND DUP3 ADD DUP1 PUSH1 0x40 MSTORE POP DUP2 ADD SWAP1 PUSH2 0xC96 SWAP2 SWAP1 PUSH2 0x20CB JUMP JUMPDEST SWAP1 POP DUP1 PUSH1 0x20 ADD MLOAD ISZERO DUP1 PUSH2 0xCCA JUMPI POP DUP1 PUSH1 0x20 ADD MLOAD DUP1 ISZERO PUSH2 0xCB9 JUMPI POP PUSH3 0xF4240 PUSH1 0x11 SLOAD LT JUMPDEST DUP1 ISZERO PUSH2 0xCCA JUMPI POP PUSH1 0x10 SLOAD DUP7 PUSH1 0x40 ADD CALLDATALOAD LT JUMPDEST PUSH2 0xD16 JUMPI PUSH1 0x40 MLOAD PUSH3 0x461BCD PUSH1 0xE5 SHL DUP2 MSTORE PUSH1 0x20 PUSH1 0x4 DUP3 ADD MSTORE PUSH1 0xF PUSH1 0x24 DUP3 ADD MSTORE PUSH32 0x4E42543A20216275795F6C696D69740000000000000000000000000000000000 PUSH1 0x44 DUP3 ADD MSTORE PUSH1 0x64 ADD PUSH2 0xB4E JUMP JUMPDEST PUSH1 0x0 PUSH2 0xD32 PUSH2 0xD28 PUSH1 0x20 DUP10 ADD DUP10 PUSH2 0x1F0C JUMP JUMPDEST DUP9 PUSH1 0x60 ADD CALLDATALOAD PUSH2 0x150C JUMP JUMPDEST SWAP1 POP PUSH1 0x0 DUP2 TIMESTAMP GT PUSH2 0xD44 JUMPI PUSH1 0x0 PUSH2 0xD4E JUMP JUMPDEST PUSH2 0xD4E DUP3 TIMESTAMP PUSH2 0x22AD JUMP JUMPDEST SWAP1 POP PUSH1 0x0 DUP4 PUSH1 0x40 ADD MLOAD DUP1 ISZERO PUSH2 0xD64 JUMPI POP PUSH1 0x8 SLOAD DUP3 LT JUMPDEST ISZERO DUP1 ISZERO PUSH2 0xD6F JUMPI POP DUP4 MLOAD JUMPDEST SWAP1 POP PUSH1 0x0 DUP2 ISZERO PUSH2 0xDB1 JUMPI DUP5 PUSH1 0x40 ADD MLOAD ISZERO PUSH2 0xDAC JUMPI PUSH1 0x0 PUSH2 0xD8E DUP5 PUSH2 0x16DF JUMP JUMPDEST SWAP1 POP PUSH3 0xF4240 PUSH2 0xD9E DUP3 DUP11 PUSH2 0x228E JUMP JUMPDEST PUSH2 0xDA8 SWAP2 SWAP1 PUSH2 0x226E JUMP JUMPDEST SWAP2 POP POP JUMPDEST PUSH2 0xE67 JUMP JUMPDEST PUSH3 0xF4240 PUSH1 0x7 SLOAD DUP9 PUSH2 0xDC3 SWAP2 SWAP1 PUSH2 0x228E JUMP JUMPDEST PUSH2 0xDCD SWAP2 SWAP1 PUSH2 0x226E JUMP JUMPDEST SWAP1 POP PUSH1 0x0 PUSH3 0xF4240 PUSH1 0x7 SLOAD DUP13 PUSH1 0x40 ADD CALLDATALOAD PUSH2 0xDE7 SWAP2 SWAP1 PUSH2 0x228E JUMP JUMPDEST PUSH2 0xDF1 SWAP2 SWAP1 PUSH2 0x226E JUMP JUMPDEST SWAP1 POP PUSH32 0xA1A76B56D422BE0A4C14CCC1281231AA006E67B6E03DCC433A873DC285491E51 PUSH2 0xE21 PUSH1 0x20 DUP14 ADD DUP14 PUSH2 0x1F0C JUMP JUMPDEST PUSH2 0xE31 PUSH1 0x40 DUP15 ADD PUSH1 0x20 DUP16 ADD PUSH2 0x1F0C JUMP JUMPDEST PUSH1 0x40 DUP1 MLOAD PUSH1 0x1 PUSH1 0x1 PUSH1 0xA0 SHL SUB SWAP4 DUP5 AND DUP2 MSTORE SWAP3 SWAP1 SWAP2 AND PUSH1 0x20 DUP4 ADD MSTORE DUP1 DUP15 ADD CALLDATALOAD SWAP1 DUP3 ADD MSTORE PUSH1 0x60 DUP2 ADD DUP4 SWAP1 MSTORE PUSH1 0x80 ADD PUSH1 0x40 MLOAD DUP1 SWAP2 SUB SWAP1 LOG1 POP JUMPDEST DUP5 PUSH1 0x40 ADD MLOAD PUSH2 0xF43 JUMPI PUSH1 0x0 PUSH2 0xE8F PUSH2 0xE85 PUSH1 0x40 DUP14 ADD PUSH1 0x20 DUP15 ADD PUSH2 0x1F0C JUMP JUMPDEST DUP13 PUSH1 0x80 ADD CALLDATALOAD PUSH2 0x150C JUMP JUMPDEST SWAP1 POP PUSH2 0xEA0 DUP2 DUP13 PUSH1 0x80 ADD CALLDATALOAD DUP11 PUSH2 0x1657 JUMP JUMPDEST SWAP1 POP DUP7 PUSH1 0x1 PUSH1 0x1 PUSH1 0xA0 SHL SUB AND PUSH4 0x2A5BF470 PUSH1 0x6 PUSH1 0x0 SWAP1 SLOAD SWAP1 PUSH2 0x100 EXP SWAP1 DIV PUSH1 0x1 PUSH1 0x1 PUSH1 0xA0 SHL SUB AND DUP14 PUSH1 0x20 ADD PUSH1 0x20 DUP2 ADD SWAP1 PUSH2 0xEDA SWAP2 SWAP1 PUSH2 0x1F0C JUMP JUMPDEST PUSH1 0x40 MLOAD PUSH1 0x1 PUSH1 0x1 PUSH1 0xE0 SHL SUB NOT PUSH1 0xE0 DUP6 SWAP1 SHL AND DUP2 MSTORE PUSH1 0x1 PUSH1 0x1 PUSH1 0xA0 SHL SUB SWAP3 DUP4 AND PUSH1 0x4 DUP3 ADD MSTORE SWAP2 AND PUSH1 0x24 DUP3 ADD MSTORE PUSH1 0x44 DUP2 ADD DUP5 SWAP1 MSTORE PUSH1 0x64 ADD PUSH1 0x0 PUSH1 0x40 MLOAD DUP1 DUP4 SUB DUP2 PUSH1 0x0 DUP8 DUP1 EXTCODESIZE ISZERO DUP1 ISZERO PUSH2 0xF29 JUMPI PUSH1 0x0 DUP1 REVERT JUMPDEST POP GAS CALL ISZERO DUP1 ISZERO PUSH2 0xF3D JUMPI RETURNDATASIZE PUSH1 0x0 DUP1 RETURNDATACOPY RETURNDATASIZE PUSH1 0x0 REVERT JUMPDEST POP POP POP POP POP JUMPDEST PUSH1 0x0 PUSH2 0xF4F DUP3 DUP10 PUSH2 0x22AD JUMP JUMPDEST SWAP1 POP PUSH2 0xF5F DUP9 PUSH1 0x60 DUP14 ADD CALLDATALOAD PUSH2 0x22AD JUMP JUMPDEST DUP11 MSTORE PUSH2 0xF6F DUP2 PUSH1 0x80 DUP14 ADD CALLDATALOAD PUSH2 0x2256 JUMP JUMPDEST PUSH1 0x20 DUP12 ADD MSTORE PUSH1 0x3 DUP1 SLOAD DUP4 SWAP2 SWAP1 PUSH1 0x0 SWAP1 PUSH2 0xF89 SWAP1 DUP5 SWAP1 PUSH2 0x2256 JUMP JUMPDEST SWAP1 SWAP2 SSTORE POP POP PUSH1 0x2 SLOAD PUSH8 0xDE0B6B3A7640000 SWAP1 PUSH2 0xFA5 SWAP1 DUP5 PUSH2 0x228E JUMP JUMPDEST PUSH2 0xFAF SWAP2 SWAP1 PUSH2 0x226E JUMP JUMPDEST PUSH1 0x40 DUP1 DUP13 ADD DUP3 SWAP1 MSTORE PUSH2 0xFC4 SWAP2 SWAP1 DUP14 ADD CALLDATALOAD PUSH2 0x22AD JUMP JUMPDEST PUSH1 0x60 DUP12 ADD MSTORE PUSH2 0xFD1 PUSH2 0x1450 JUMP JUMPDEST POP POP POP POP POP POP POP POP POP SWAP2 SWAP1 POP JUMP JUMPDEST PUSH1 0x0 DUP1 PUSH2 0xFEC DUP2 CALLER PUSH2 0x13B2 JUMP JUMPDEST POP POP PUSH1 0x12 SLOAD SWAP1 JUMP JUMPDEST PUSH1 0x0 DUP3 DUP2 MSTORE PUSH1 0x1 PUSH1 0x20 MSTORE PUSH1 0x40 DUP2 KECCAK256 PUSH2 0x100C SWAP1 DUP4 PUSH2 0x17D1 JUMP JUMPDEST SWAP4 SWAP3 POP POP POP JUMP JUMPDEST PUSH1 0x0 PUSH2 0x101F DUP2 CALLER PUSH2 0x13B2 JUMP JUMPDEST POP PUSH1 0x11 SSTORE JUMP JUMPDEST PUSH1 0x40 DUP1 MLOAD DUP1 DUP3 ADD DUP3 MSTORE PUSH1 0x0 DUP1 DUP3 MSTORE PUSH1 0x20 DUP3 ADD MSTORE PUSH1 0x6 SLOAD SWAP2 MLOAD PUSH4 0x6FB1A07 PUSH1 0xE0 SHL DUP2 MSTORE PUSH1 0x3 PUSH1 0x4 DUP3 ADD MSTORE SWAP1 SWAP2 PUSH1 0x1 PUSH1 0x1 PUSH1 0xA0 SHL SUB AND SWAP1 PUSH4 0x6FB1A07 SWAP1 PUSH1 0x24 ADD PUSH1 0x20 PUSH1 0x40 MLOAD DUP1 DUP4 SUB DUP2 DUP7 DUP1 EXTCODESIZE ISZERO DUP1 ISZERO PUSH2 0x107B JUMPI PUSH1 0x0 DUP1 REVERT JUMPDEST POP GAS STATICCALL ISZERO DUP1 ISZERO PUSH2 0x108F JUMPI RETURNDATASIZE PUSH1 0x0 DUP1 RETURNDATACOPY RETURNDATASIZE PUSH1 0x0 REVERT JUMPDEST POP POP POP POP PUSH1 0x40 MLOAD RETURNDATASIZE PUSH1 0x1F NOT PUSH1 0x1F DUP3 ADD AND DUP3 ADD DUP1 PUSH1 0x40 MSTORE POP DUP2 ADD SWAP1 PUSH2 0x10B3 SWAP2 SWAP1 PUSH2 0x1F28 JUMP JUMPDEST PUSH1 0x40 MLOAD PUSH32 0xEAA8F7E300000000000000000000000000000000000000000000000000000000 DUP2 MSTORE PUSH1 0x1 PUSH1 0x1 PUSH1 0xA0 SHL SUB DUP5 DUP2 AND PUSH1 0x4 DUP4 ADD MSTORE SWAP2 SWAP1 SWAP2 AND SWAP1 PUSH4 0xEAA8F7E3 SWAP1 PUSH1 0x24 ADD PUSH1 0x20 PUSH1 0x40 MLOAD DUP1 DUP4 SUB DUP2 DUP7 DUP1 EXTCODESIZE ISZERO DUP1 ISZERO PUSH2 0x110F JUMPI PUSH1 0x0 DUP1 REVERT JUMPDEST POP GAS STATICCALL ISZERO DUP1 ISZERO PUSH2 0x1123 JUMPI RETURNDATASIZE PUSH1 0x0 DUP1 RETURNDATACOPY RETURNDATASIZE PUSH1 0x0 REVERT JUMPDEST POP POP POP POP PUSH1 0x40 MLOAD RETURNDATASIZE PUSH1 0x1F NOT PUSH1 0x1F DUP3 ADD AND DUP3 ADD DUP1 PUSH1 0x40 MSTORE POP DUP2 ADD SWAP1 PUSH2 0x1147 SWAP2 SWAP1 PUSH2 0x1FDF JUMP JUMPDEST ISZERO PUSH2 0x115E JUMPI PUSH1 0x7 SLOAD DUP2 MSTORE PUSH1 0xE SLOAD PUSH1 0x20 DUP3 ADD MSTORE SWAP2 SWAP1 POP JUMP JUMPDEST PUSH1 0x6 SLOAD PUSH1 0x40 MLOAD PUSH4 0x70A08231 PUSH1 0xE0 SHL DUP2 MSTORE PUSH1 0x1 PUSH1 0x1 PUSH1 0xA0 SHL SUB DUP5 DUP2 AND PUSH1 0x4 DUP4 ADD MSTORE PUSH1 0x0 SWAP3 AND SWAP1 PUSH4 0x70A08231 SWAP1 PUSH1 0x24 ADD PUSH1 0x20 PUSH1 0x40 MLOAD DUP1 DUP4 SUB DUP2 DUP7 DUP1 EXTCODESIZE ISZERO DUP1 ISZERO PUSH2 0x11A4 JUMPI PUSH1 0x0 DUP1 REVERT JUMPDEST POP GAS STATICCALL ISZERO DUP1 ISZERO PUSH2 0x11B8 JUMPI RETURNDATASIZE PUSH1 0x0 DUP1 RETURNDATACOPY RETURNDATASIZE PUSH1 0x0 REVERT JUMPDEST POP POP POP POP PUSH1 0x40 MLOAD RETURNDATASIZE PUSH1 0x1F NOT PUSH1 0x1F DUP3 ADD AND DUP3 ADD DUP1 PUSH1 0x40 MSTORE POP DUP2 ADD SWAP1 PUSH2 0x11DC SWAP2 SWAP1 PUSH2 0x215F JUMP JUMPDEST SWAP1 POP PUSH1 0x0 PUSH2 0x11EA DUP5 DUP4 PUSH2 0x150C JUMP JUMPDEST SWAP1 POP PUSH1 0x0 DUP2 TIMESTAMP GT PUSH2 0x11FC JUMPI PUSH1 0x0 PUSH2 0x1206 JUMP JUMPDEST PUSH2 0x1206 DUP3 TIMESTAMP PUSH2 0x22AD JUMP JUMPDEST SWAP1 POP PUSH2 0x1211 DUP2 PUSH2 0x16DF JUMP JUMPDEST DUP5 MSTORE PUSH1 0xE SLOAD DUP2 LT PUSH2 0x1223 JUMPI PUSH1 0x0 PUSH2 0x1231 JUMP JUMPDEST DUP1 PUSH1 0xE SLOAD PUSH2 0x1231 SWAP2 SWAP1 PUSH2 0x22AD JUMP JUMPDEST PUSH1 0x20 DUP6 ADD MSTORE POP POP POP SWAP2 SWAP1 POP JUMP JUMPDEST PUSH1 0x0 PUSH2 0x124A DUP2 CALLER PUSH2 0x13B2 JUMP JUMPDEST POP PUSH1 0xB SWAP2 SWAP1 SWAP2 SSTORE PUSH1 0xC SSTORE JUMP JUMPDEST PUSH1 0x0 PUSH2 0x1262 DUP2 CALLER PUSH2 0x13B2 JUMP JUMPDEST POP PUSH1 0x6 DUP1 SLOAD PUSH32 0xFFFFFFFFFFFFFFFFFFFFFFFF0000000000000000000000000000000000000000 AND PUSH1 0x1 PUSH1 0x1 PUSH1 0xA0 SHL SUB SWAP3 SWAP1 SWAP3 AND SWAP2 SWAP1 SWAP2 OR SWAP1 SSTORE JUMP JUMPDEST PUSH1 0x0 DUP1 PUSH2 0x12AA DUP2 CALLER PUSH2 0x13B2 JUMP JUMPDEST PUSH1 0x12 SLOAD PUSH1 0x13 SLOAD PUSH2 0x12BA SWAP2 SWAP1 PUSH2 0x2256 JUMP JUMPDEST SWAP2 POP POP SWAP1 JUMP JUMPDEST PUSH1 0x0 DUP2 DUP2 MSTORE PUSH1 0x1 PUSH1 0x20 MSTORE PUSH1 0x40 DUP2 KECCAK256 PUSH2 0x677 SWAP1 PUSH2 0x17DD JUMP JUMPDEST PUSH2 0x80D DUP3 DUP3 PUSH2 0x17E7 JUMP JUMPDEST PUSH1 0x4 SLOAD TIMESTAMP GT ISZERO PUSH2 0x12F3 JUMPI PUSH2 0x12F3 PUSH2 0x180D JUMP JUMPDEST JUMP JUMPDEST PUSH1 0x0 PUSH2 0x1301 DUP2 CALLER PUSH2 0x13B2 JUMP JUMPDEST POP PUSH1 0xD SWAP3 SWAP1 SWAP3 SSTORE PUSH1 0xE SSTORE PUSH1 0xF SSTORE JUMP JUMPDEST PUSH1 0x0 PUSH2 0x131C DUP2 CALLER PUSH2 0x13B2 JUMP JUMPDEST POP PUSH1 0x9 SWAP2 SWAP1 SWAP2 SSTORE PUSH1 0xA SSTORE JUMP JUMPDEST PUSH2 0x1332 DUP3 DUP3 PUSH2 0x1A24 JUMP JUMPDEST POP POP JUMP JUMPDEST PUSH1 0x0 PUSH2 0x100C DUP4 PUSH1 0x1 PUSH1 0x1 PUSH1 0xA0 SHL SUB DUP5 AND PUSH2 0x1AC2 JUMP JUMPDEST PUSH1 0x0 PUSH1 0x1 PUSH1 0x1 PUSH1 0xE0 SHL SUB NOT DUP3 AND PUSH32 0x7965DB0B00000000000000000000000000000000000000000000000000000000 EQ DUP1 PUSH2 0x677 JUMPI POP PUSH32 0x1FFC9A700000000000000000000000000000000000000000000000000000000 PUSH1 0x1 PUSH1 0x1 PUSH1 0xE0 SHL SUB NOT DUP4 AND EQ PUSH2 0x677 JUMP JUMPDEST PUSH1 0x0 DUP3 DUP2 MSTORE PUSH1 0x20 DUP2 DUP2 MSTORE PUSH1 0x40 DUP1 DUP4 KECCAK256 PUSH1 0x1 PUSH1 0x1 PUSH1 0xA0 SHL SUB DUP6 AND DUP5 MSTORE SWAP1 SWAP2 MSTORE SWAP1 KECCAK256 SLOAD PUSH1 0xFF AND PUSH2 0x1332 JUMPI PUSH2 0x13EE DUP2 PUSH1 0x1 PUSH1 0x1 PUSH1 0xA0 SHL SUB AND PUSH1 0x14 PUSH2 0x1B11 JUMP JUMPDEST PUSH2 0x13F9 DUP4 PUSH1 0x20 PUSH2 0x1B11 JUMP JUMPDEST PUSH1 0x40 MLOAD PUSH1 0x20 ADD PUSH2 0x140A SWAP3 SWAP2 SWAP1 PUSH2 0x21A2 JUMP JUMPDEST PUSH1 0x40 DUP1 MLOAD PUSH1 0x1F NOT DUP2 DUP5 SUB ADD DUP2 MSTORE SWAP1 DUP3 SWAP1 MSTORE PUSH3 0x461BCD PUSH1 0xE5 SHL DUP3 MSTORE PUSH2 0xB4E SWAP2 PUSH1 0x4 ADD PUSH2 0x2223 JUMP JUMPDEST PUSH2 0x76E DUP3 DUP3 PUSH2 0x1328 JUMP JUMPDEST PUSH1 0x0 PUSH2 0x1446 DUP2 CALLER PUSH2 0x13B2 JUMP JUMPDEST PUSH2 0x786 DUP4 DUP4 PUSH2 0x1A24 JUMP JUMPDEST PUSH1 0x5 SLOAD PUSH1 0x4 SLOAD PUSH2 0x1460 SWAP2 SWAP1 PUSH2 0x2256 JUMP JUMPDEST TIMESTAMP GT ISZERO PUSH2 0x12F3 JUMPI PUSH2 0x12F3 PUSH2 0x180D JUMP JUMPDEST PUSH1 0x1 PUSH1 0x1 PUSH1 0xA0 SHL SUB DUP2 AND CALLER EQ PUSH2 0x14ED JUMPI PUSH1 0x40 MLOAD PUSH3 0x461BCD PUSH1 0xE5 SHL DUP2 MSTORE PUSH1 0x20 PUSH1 0x4 DUP3 ADD MSTORE PUSH1 0x2F PUSH1 0x24 DUP3 ADD MSTORE PUSH32 0x416363657373436F6E74726F6C3A2063616E206F6E6C792072656E6F756E6365 PUSH1 0x44 DUP3 ADD MSTORE PUSH32 0x20726F6C657320666F722073656C660000000000000000000000000000000000 PUSH1 0x64 DUP3 ADD MSTORE PUSH1 0x84 ADD PUSH2 0xB4E JUMP JUMPDEST PUSH2 0x1332 DUP3 DUP3 PUSH2 0x1D38 JUMP JUMPDEST PUSH1 0x0 PUSH2 0x100C DUP4 PUSH1 0x1 PUSH1 0x1 PUSH1 0xA0 SHL SUB DUP5 AND PUSH2 0x1DB7 JUMP JUMPDEST PUSH1 0x6 SLOAD PUSH1 0x40 MLOAD PUSH4 0x6FB1A07 PUSH1 0xE0 SHL DUP2 MSTORE PUSH1 0x3 PUSH1 0x4 DUP3 ADD MSTORE PUSH1 0x0 SWAP2 TIMESTAMP SWAP2 DUP4 SWAP2 PUSH1 0x1 PUSH1 0x1 PUSH1 0xA0 SHL SUB AND SWAP1 PUSH4 0x6FB1A07 SWAP1 PUSH1 0x24 ADD PUSH1 0x20 PUSH1 0x40 MLOAD DUP1 DUP4 SUB DUP2 DUP7 DUP1 EXTCODESIZE ISZERO DUP1 ISZERO PUSH2 0x1555 JUMPI PUSH1 0x0 DUP1 REVERT JUMPDEST POP GAS STATICCALL ISZERO DUP1 ISZERO PUSH2 0x1569 JUMPI RETURNDATASIZE PUSH1 0x0 DUP1 RETURNDATACOPY RETURNDATASIZE PUSH1 0x0 REVERT JUMPDEST POP POP POP POP PUSH1 0x40 MLOAD RETURNDATASIZE PUSH1 0x1F NOT PUSH1 0x1F DUP3 ADD AND DUP3 ADD DUP1 PUSH1 0x40 MSTORE POP DUP2 ADD SWAP1 PUSH2 0x158D SWAP2 SWAP1 PUSH2 0x1F28 JUMP JUMPDEST PUSH1 0x6 SLOAD PUSH1 0x40 MLOAD PUSH32 0x161AA47E00000000000000000000000000000000000000000000000000000000 DUP2 MSTORE PUSH1 0x1 PUSH1 0x1 PUSH1 0xA0 SHL SUB SWAP2 DUP3 AND PUSH1 0x4 DUP3 ADD MSTORE DUP8 DUP3 AND PUSH1 0x24 DUP3 ADD MSTORE SWAP2 SWAP3 POP PUSH1 0x0 SWAP2 SWAP1 DUP4 AND SWAP1 PUSH4 0x161AA47E SWAP1 PUSH1 0x44 ADD PUSH1 0x20 PUSH1 0x40 MLOAD DUP1 DUP4 SUB DUP2 DUP7 DUP1 EXTCODESIZE ISZERO DUP1 ISZERO PUSH2 0x15F9 JUMPI PUSH1 0x0 DUP1 REVERT JUMPDEST POP GAS STATICCALL ISZERO DUP1 ISZERO PUSH2 0x160D JUMPI RETURNDATASIZE PUSH1 0x0 DUP1 RETURNDATACOPY RETURNDATASIZE PUSH1 0x0 REVERT JUMPDEST POP POP POP POP PUSH1 0x40 MLOAD RETURNDATASIZE PUSH1 0x1F NOT PUSH1 0x1F DUP3 ADD AND DUP3 ADD DUP1 PUSH1 0x40 MSTORE POP DUP2 ADD SWAP1 PUSH2 0x1631 SWAP2 SWAP1 PUSH2 0x215F JUMP JUMPDEST SWAP1 POP DUP1 ISZERO PUSH2 0x1641 JUMPI DUP1 SWAP3 POP PUSH2 0x164D JUMP JUMPDEST DUP5 ISZERO PUSH2 0x164D JUMPI PUSH1 0x14 SLOAD SWAP3 POP JUMPDEST POP SWAP1 SWAP5 SWAP4 POP POP POP POP JUMP JUMPDEST PUSH1 0x0 DUP1 DUP5 PUSH1 0xE SLOAD PUSH2 0x1668 SWAP2 SWAP1 PUSH2 0x2256 JUMP JUMPDEST SWAP1 POP PUSH1 0x0 TIMESTAMP DUP3 GT PUSH2 0x167A JUMPI PUSH1 0x0 PUSH2 0x1684 JUMP JUMPDEST PUSH2 0x1684 TIMESTAMP DUP4 PUSH2 0x22AD JUMP JUMPDEST SWAP1 POP PUSH1 0x0 PUSH2 0x1692 DUP6 DUP8 PUSH2 0x2256 JUMP JUMPDEST PUSH1 0xE SLOAD PUSH2 0x169F SWAP1 DUP8 PUSH2 0x228E JUMP JUMPDEST PUSH2 0x16A9 DUP5 DUP10 PUSH2 0x228E JUMP JUMPDEST PUSH2 0x16B3 SWAP2 SWAP1 PUSH2 0x2256 JUMP JUMPDEST PUSH2 0x16BD SWAP2 SWAP1 PUSH2 0x226E JUMP JUMPDEST SWAP1 POP DUP2 PUSH2 0x16CA DUP3 DUP10 PUSH2 0x22AD JUMP JUMPDEST PUSH2 0x16D4 SWAP2 SWAP1 PUSH2 0x2256 JUMP JUMPDEST SWAP8 SWAP7 POP POP POP POP POP POP POP JUMP JUMPDEST PUSH1 0x0 PUSH1 0xE SLOAD DUP3 GT ISZERO PUSH2 0x16F3 JUMPI POP POP PUSH1 0xF SLOAD SWAP1 JUMP JUMPDEST PUSH1 0xC SLOAD DUP3 GT ISZERO PUSH2 0x1732 JUMPI PUSH1 0xC SLOAD PUSH1 0xE SLOAD PUSH2 0x170D SWAP2 SWAP1 PUSH2 0x22AD JUMP JUMPDEST DUP3 PUSH1 0xE SLOAD PUSH2 0x171B SWAP2 SWAP1 PUSH2 0x22AD JUMP JUMPDEST PUSH1 0xD SLOAD PUSH2 0x1728 SWAP2 SWAP1 PUSH2 0x228E JUMP JUMPDEST PUSH2 0x677 SWAP2 SWAP1 PUSH2 0x226E JUMP JUMPDEST PUSH1 0xA SLOAD DUP3 GT ISZERO PUSH2 0x178A JUMPI PUSH1 0xA SLOAD PUSH1 0xC SLOAD PUSH2 0x174C SWAP2 SWAP1 PUSH2 0x22AD JUMP JUMPDEST PUSH1 0xA SLOAD PUSH2 0x1759 SWAP1 DUP5 PUSH2 0x22AD JUMP JUMPDEST PUSH1 0xD SLOAD PUSH1 0xB SLOAD PUSH2 0x1769 SWAP2 SWAP1 PUSH2 0x22AD JUMP JUMPDEST PUSH2 0x1773 SWAP2 SWAP1 PUSH2 0x228E JUMP JUMPDEST PUSH2 0x177D SWAP2 SWAP1 PUSH2 0x226E JUMP JUMPDEST PUSH1 0xB SLOAD PUSH2 0x677 SWAP2 SWAP1 PUSH2 0x22AD JUMP JUMPDEST PUSH1 0x8 SLOAD DUP3 GT ISZERO PUSH2 0x17C9 JUMPI PUSH1 0xA SLOAD DUP3 PUSH1 0xB SLOAD PUSH1 0x9 SLOAD PUSH2 0x17A8 SWAP2 SWAP1 PUSH2 0x22AD JUMP JUMPDEST PUSH2 0x17B2 SWAP2 SWAP1 PUSH2 0x228E JUMP JUMPDEST PUSH2 0x17BC SWAP2 SWAP1 PUSH2 0x226E JUMP JUMPDEST PUSH1 0x9 SLOAD PUSH2 0x677 SWAP2 SWAP1 PUSH2 0x22AD JUMP JUMPDEST POP POP PUSH1 0x7 SLOAD SWAP1 JUMP JUMPDEST PUSH1 0x0 PUSH2 0x100C DUP4 DUP4 PUSH2 0x1ED4 JUMP JUMPDEST PUSH1 0x0 PUSH2 0x677 DUP3 SLOAD SWAP1 JUMP JUMPDEST PUSH1 0x0 DUP3 DUP2 MSTORE PUSH1 0x20 DUP2 SWAP1 MSTORE PUSH1 0x40 SWAP1 KECCAK256 PUSH1 0x1 ADD SLOAD PUSH2 0x1803 DUP2 CALLER PUSH2 0x13B2 JUMP JUMPDEST PUSH2 0x786 DUP4 DUP4 PUSH2 0x1D38 JUMP JUMPDEST TIMESTAMP PUSH1 0x4 SSTORE PUSH1 0x3 SLOAD ISZERO PUSH2 0x18BE JUMPI PUSH1 0x3 SLOAD PUSH1 0x12 PUSH1 0x0 DUP3 DUP3 SLOAD PUSH2 0x182D SWAP2 SWAP1 PUSH2 0x2256 JUMP JUMPDEST SWAP1 SWAP2 SSTORE POP POP PUSH1 0x3 SLOAD PUSH1 0x13 DUP1 SLOAD PUSH1 0x0 SWAP1 PUSH2 0x1847 SWAP1 DUP5 SWAP1 PUSH2 0x22AD JUMP JUMPDEST SWAP1 SWAP2 SSTORE POP POP PUSH1 0x0 PUSH1 0x3 SSTORE PUSH1 0x13 SLOAD PUSH1 0x12 SLOAD PUSH2 0x1869 SWAP1 PUSH8 0xDE0B6B3A7640000 PUSH2 0x228E JUMP JUMPDEST PUSH2 0x1873 SWAP2 SWAP1 PUSH2 0x226E JUMP JUMPDEST PUSH2 0x1885 SWAP1 PUSH8 0xDE0B6B3A7640000 PUSH2 0x2256 JUMP JUMPDEST PUSH1 0x2 DUP2 SWAP1 SSTORE PUSH1 0x40 MLOAD SWAP1 DUP2 MSTORE PUSH32 0x4DBE4840D7465BD162F67814CEA0B519567A2E0E578BCDE61E7F4CED361E5A3D SWAP1 PUSH1 0x20 ADD PUSH1 0x40 MLOAD DUP1 SWAP2 SUB SWAP1 LOG1 JUMPDEST PUSH3 0xF4240 PUSH1 0x11 SLOAD LT ISZERO PUSH2 0x12F3 JUMPI PUSH1 0x6 SLOAD PUSH1 0x40 MLOAD PUSH4 0x6FB1A07 PUSH1 0xE0 SHL DUP2 MSTORE PUSH1 0x4 DUP1 DUP3 ADD MSTORE PUSH1 0x0 SWAP2 PUSH1 0x1 PUSH1 0x1 PUSH1 0xA0 SHL SUB AND SWAP1 PUSH4 0x6FB1A07 SWAP1 PUSH1 0x24 ADD PUSH1 0x20 PUSH1 0x40 MLOAD DUP1 DUP4 SUB DUP2 DUP7 DUP1 EXTCODESIZE ISZERO DUP1 ISZERO PUSH2 0x190F JUMPI PUSH1 0x0 DUP1 REVERT JUMPDEST POP GAS STATICCALL ISZERO DUP1 ISZERO PUSH2 0x1923 JUMPI RETURNDATASIZE PUSH1 0x0 DUP1 RETURNDATACOPY RETURNDATASIZE PUSH1 0x0 REVERT JUMPDEST POP POP POP POP PUSH1 0x40 MLOAD RETURNDATASIZE PUSH1 0x1F NOT PUSH1 0x1F DUP3 ADD AND DUP3 ADD DUP1 PUSH1 0x40 MSTORE POP DUP2 ADD SWAP1 PUSH2 0x1947 SWAP2 SWAP1 PUSH2 0x1F28 JUMP JUMPDEST PUSH1 0x6 SLOAD PUSH1 0x40 MLOAD PUSH4 0x70A08231 PUSH1 0xE0 SHL DUP2 MSTORE PUSH1 0x1 PUSH1 0x1 PUSH1 0xA0 SHL SUB DUP1 DUP5 AND PUSH1 0x4 DUP4 ADD MSTORE SWAP3 SWAP4 POP PUSH1 0x0 SWAP3 SWAP1 SWAP2 AND SWAP1 PUSH4 0x70A08231 SWAP1 PUSH1 0x24 ADD PUSH1 0x20 PUSH1 0x40 MLOAD DUP1 DUP4 SUB DUP2 DUP7 DUP1 EXTCODESIZE ISZERO DUP1 ISZERO PUSH2 0x1992 JUMPI PUSH1 0x0 DUP1 REVERT JUMPDEST POP GAS STATICCALL ISZERO DUP1 ISZERO PUSH2 0x19A6 JUMPI RETURNDATASIZE PUSH1 0x0 DUP1 RETURNDATACOPY RETURNDATASIZE PUSH1 0x0 REVERT JUMPDEST POP POP POP POP PUSH1 0x40 MLOAD RETURNDATASIZE PUSH1 0x1F NOT PUSH1 0x1F DUP3 ADD AND DUP3 ADD DUP1 PUSH1 0x40 MSTORE POP DUP2 ADD SWAP1 PUSH2 0x19CA SWAP2 SWAP1 PUSH2 0x215F JUMP JUMPDEST SWAP1 POP PUSH3 0xF4240 PUSH1 0x11 SLOAD DUP3 PUSH2 0x19DE SWAP2 SWAP1 PUSH2 0x228E JUMP JUMPDEST PUSH2 0x19E8 SWAP2 SWAP1 PUSH2 0x226E JUMP JUMPDEST PUSH1 0x10 DUP2 SWAP1 SSTORE PUSH1 0x40 MLOAD SWAP1 DUP2 MSTORE PUSH32 0x7BA725E56DCC09F610B29C747F1D1AFAB653F8048E4B527C0BAEDF8ED35858CB SWAP1 PUSH1 0x20 ADD PUSH1 0x40 MLOAD DUP1 SWAP2 SUB SWAP1 LOG1 POP POP JUMP JUMPDEST PUSH1 0x0 DUP3 DUP2 MSTORE PUSH1 0x20 DUP2 DUP2 MSTORE PUSH1 0x40 DUP1 DUP4 KECCAK256 PUSH1 0x1 PUSH1 0x1 PUSH1 0xA0 SHL SUB DUP6 AND DUP5 MSTORE SWAP1 SWAP2 MSTORE SWAP1 KECCAK256 SLOAD PUSH1 0xFF AND PUSH2 0x1332 JUMPI PUSH1 0x0 DUP3 DUP2 MSTORE PUSH1 0x20 DUP2 DUP2 MSTORE PUSH1 0x40 DUP1 DUP4 KECCAK256 PUSH1 0x1 PUSH1 0x1 PUSH1 0xA0 SHL SUB DUP6 AND DUP5 MSTORE SWAP1 SWAP2 MSTORE SWAP1 KECCAK256 DUP1 SLOAD PUSH1 0xFF NOT AND PUSH1 0x1 OR SWAP1 SSTORE PUSH2 0x1A7E CALLER SWAP1 JUMP JUMPDEST PUSH1 0x1 PUSH1 0x1 PUSH1 0xA0 SHL SUB AND DUP2 PUSH1 0x1 PUSH1 0x1 PUSH1 0xA0 SHL SUB AND DUP4 PUSH32 0x2F8788117E7EFF1D82E926EC794901D17C78024A50270940304540A733656F0D PUSH1 0x40 MLOAD PUSH1 0x40 MLOAD DUP1 SWAP2 SUB SWAP1 LOG4 POP POP JUMP JUMPDEST PUSH1 0x0 DUP2 DUP2 MSTORE PUSH1 0x1 DUP4 ADD PUSH1 0x20 MSTORE PUSH1 0x40 DUP2 KECCAK256 SLOAD PUSH2 0x1B09 JUMPI POP DUP2 SLOAD PUSH1 0x1 DUP2 DUP2 ADD DUP5 SSTORE PUSH1 0x0 DUP5 DUP2 MSTORE PUSH1 0x20 DUP1 DUP3 KECCAK256 SWAP1 SWAP4 ADD DUP5 SWAP1 SSTORE DUP5 SLOAD DUP5 DUP3 MSTORE DUP3 DUP7 ADD SWAP1 SWAP4 MSTORE PUSH1 0x40 SWAP1 KECCAK256 SWAP2 SWAP1 SWAP2 SSTORE PUSH2 0x677 JUMP JUMPDEST POP PUSH1 0x0 PUSH2 0x677 JUMP JUMPDEST PUSH1 0x60 PUSH1 0x0 PUSH2 0x1B20 DUP4 PUSH1 0x2 PUSH2 0x228E JUMP JUMPDEST PUSH2 0x1B2B SWAP1 PUSH1 0x2 PUSH2 0x2256 JUMP JUMPDEST PUSH8 0xFFFFFFFFFFFFFFFF DUP2 GT ISZERO PUSH2 0x1B51 JUMPI PUSH4 0x4E487B71 PUSH1 0xE0 SHL PUSH1 0x0 MSTORE PUSH1 0x41 PUSH1 0x4 MSTORE PUSH1 0x24 PUSH1 0x0 REVERT JUMPDEST PUSH1 0x40 MLOAD SWAP1 DUP1 DUP3 MSTORE DUP1 PUSH1 0x1F ADD PUSH1 0x1F NOT AND PUSH1 0x20 ADD DUP3 ADD PUSH1 0x40 MSTORE DUP1 ISZERO PUSH2 0x1B7B JUMPI PUSH1 0x20 DUP3 ADD DUP2 DUP1 CALLDATASIZE DUP4 CALLDATACOPY ADD SWAP1 POP JUMPDEST POP SWAP1 POP PUSH32 0x3000000000000000000000000000000000000000000000000000000000000000 DUP2 PUSH1 0x0 DUP2 MLOAD DUP2 LT PUSH2 0x1BC0 JUMPI PUSH4 0x4E487B71 PUSH1 0xE0 SHL PUSH1 0x0 MSTORE PUSH1 0x32 PUSH1 0x4 MSTORE PUSH1 0x24 PUSH1 0x0 REVERT JUMPDEST PUSH1 0x20 ADD ADD SWAP1 PUSH1 0x1 PUSH1 0x1 PUSH1 0xF8 SHL SUB NOT AND SWAP1 DUP2 PUSH1 0x0 BYTE SWAP1 MSTORE8 POP PUSH32 0x7800000000000000000000000000000000000000000000000000000000000000 DUP2 PUSH1 0x1 DUP2 MLOAD DUP2 LT PUSH2 0x1C19 JUMPI PUSH4 0x4E487B71 PUSH1 0xE0 SHL PUSH1 0x0 MSTORE PUSH1 0x32 PUSH1 0x4 MSTORE PUSH1 0x24 PUSH1 0x0 REVERT JUMPDEST PUSH1 0x20 ADD ADD SWAP1 PUSH1 0x1 PUSH1 0x1 PUSH1 0xF8 SHL SUB NOT AND SWAP1 DUP2 PUSH1 0x0 BYTE SWAP1 MSTORE8 POP PUSH1 0x0 PUSH2 0x1C3D DUP5 PUSH1 0x2 PUSH2 0x228E JUMP JUMPDEST PUSH2 0x1C48 SWAP1 PUSH1 0x1 PUSH2 0x2256 JUMP JUMPDEST SWAP1 POP JUMPDEST PUSH1 0x1 DUP2 GT ISZERO PUSH2 0x1CE9 JUMPI PUSH32 0x3031323334353637383961626364656600000000000000000000000000000000 DUP6 PUSH1 0xF AND PUSH1 0x10 DUP2 LT PUSH2 0x1C97 JUMPI PUSH4 0x4E487B71 PUSH1 0xE0 SHL PUSH1 0x0 MSTORE PUSH1 0x32 PUSH1 0x4 MSTORE PUSH1 0x24 PUSH1 0x0 REVERT JUMPDEST BYTE PUSH1 0xF8 SHL DUP3 DUP3 DUP2 MLOAD DUP2 LT PUSH2 0x1CBB JUMPI PUSH4 0x4E487B71 PUSH1 0xE0 SHL PUSH1 0x0 MSTORE PUSH1 0x32 PUSH1 0x4 MSTORE PUSH1 0x24 PUSH1 0x0 REVERT JUMPDEST PUSH1 0x20 ADD ADD SWAP1 PUSH1 0x1 PUSH1 0x1 PUSH1 0xF8 SHL SUB NOT AND SWAP1 DUP2 PUSH1 0x0 BYTE SWAP1 MSTORE8 POP PUSH1 0x4 SWAP5 SWAP1 SWAP5 SHR SWAP4 PUSH2 0x1CE2 DUP2 PUSH2 0x22F0 JUMP JUMPDEST SWAP1 POP PUSH2 0x1C4B JUMP JUMPDEST POP DUP4 ISZERO PUSH2 0x100C JUMPI PUSH1 0x40 MLOAD PUSH3 0x461BCD PUSH1 0xE5 SHL DUP2 MSTORE PUSH1 0x20 PUSH1 0x4 DUP3 ADD DUP2 SWAP1 MSTORE PUSH1 0x24 DUP3 ADD MSTORE PUSH32 0x537472696E67733A20686578206C656E67746820696E73756666696369656E74 PUSH1 0x44 DUP3 ADD MSTORE PUSH1 0x64 ADD PUSH2 0xB4E JUMP JUMPDEST PUSH1 0x0 DUP3 DUP2 MSTORE PUSH1 0x20 DUP2 DUP2 MSTORE PUSH1 0x40 DUP1 DUP4 KECCAK256 PUSH1 0x1 PUSH1 0x1 PUSH1 0xA0 SHL SUB DUP6 AND DUP5 MSTORE SWAP1 SWAP2 MSTORE SWAP1 KECCAK256 SLOAD PUSH1 0xFF AND ISZERO PUSH2 0x1332 JUMPI PUSH1 0x0 DUP3 DUP2 MSTORE PUSH1 0x20 DUP2 DUP2 MSTORE PUSH1 0x40 DUP1 DUP4 KECCAK256 PUSH1 0x1 PUSH1 0x1 PUSH1 0xA0 SHL SUB DUP6 AND DUP1 DUP6 MSTORE SWAP3 MSTORE DUP1 DUP4 KECCAK256 DUP1 SLOAD PUSH1 0xFF NOT AND SWAP1 SSTORE MLOAD CALLER SWAP3 DUP6 SWAP2 PUSH32 0xF6391F5C32D9C69D2A47EA670B442974B53935D1EDC7FD64EB21E047A839171B SWAP2 SWAP1 LOG4 POP POP JUMP JUMPDEST PUSH1 0x0 DUP2 DUP2 MSTORE PUSH1 0x1 DUP4 ADD PUSH1 0x20 MSTORE PUSH1 0x40 DUP2 KECCAK256 SLOAD DUP1 ISZERO PUSH2 0x1ECA JUMPI PUSH1 0x0 PUSH2 0x1DDB PUSH1 0x1 DUP4 PUSH2 0x22AD JUMP JUMPDEST DUP6 SLOAD SWAP1 SWAP2 POP PUSH1 0x0 SWAP1 PUSH2 0x1DEF SWAP1 PUSH1 0x1 SWAP1 PUSH2 0x22AD JUMP JUMPDEST SWAP1 POP DUP2 DUP2 EQ PUSH2 0x1E70 JUMPI PUSH1 0x0 DUP7 PUSH1 0x0 ADD DUP3 DUP2 SLOAD DUP2 LT PUSH2 0x1E1D JUMPI PUSH4 0x4E487B71 PUSH1 0xE0 SHL PUSH1 0x0 MSTORE PUSH1 0x32 PUSH1 0x4 MSTORE PUSH1 0x24 PUSH1 0x0 REVERT JUMPDEST SWAP1 PUSH1 0x0 MSTORE PUSH1 0x20 PUSH1 0x0 KECCAK256 ADD SLOAD SWAP1 POP DUP1 DUP8 PUSH1 0x0 ADD DUP5 DUP2 SLOAD DUP2 LT PUSH2 0x1E4E JUMPI PUSH4 0x4E487B71 PUSH1 0xE0 SHL PUSH1 0x0 MSTORE PUSH1 0x32 PUSH1 0x4 MSTORE PUSH1 0x24 PUSH1 0x0 REVERT JUMPDEST PUSH1 0x0 SWAP2 DUP3 MSTORE PUSH1 0x20 DUP1 DUP4 KECCAK256 SWAP1 SWAP2 ADD SWAP3 SWAP1 SWAP3 SSTORE SWAP2 DUP3 MSTORE PUSH1 0x1 DUP9 ADD SWAP1 MSTORE PUSH1 0x40 SWAP1 KECCAK256 DUP4 SWAP1 SSTORE JUMPDEST DUP6 SLOAD DUP7 SWAP1 DUP1 PUSH2 0x1E8F JUMPI PUSH4 0x4E487B71 PUSH1 0xE0 SHL PUSH1 0x0 MSTORE PUSH1 0x31 PUSH1 0x4 MSTORE PUSH1 0x24 PUSH1 0x0 REVERT JUMPDEST PUSH1 0x1 SWAP1 SUB DUP2 DUP2 SWAP1 PUSH1 0x0 MSTORE PUSH1 0x20 PUSH1 0x0 KECCAK256 ADD PUSH1 0x0 SWAP1 SSTORE SWAP1 SSTORE DUP6 PUSH1 0x1 ADD PUSH1 0x0 DUP7 DUP2 MSTORE PUSH1 0x20 ADD SWAP1 DUP2 MSTORE PUSH1 0x20 ADD PUSH1 0x0 KECCAK256 PUSH1 0x0 SWAP1 SSTORE PUSH1 0x1 SWAP4 POP POP POP POP PUSH2 0x677 JUMP JUMPDEST PUSH1 0x0 SWAP2 POP POP PUSH2 0x677 JUMP JUMPDEST PUSH1 0x0 DUP3 PUSH1 0x0 ADD DUP3 DUP2 SLOAD DUP2 LT PUSH2 0x1EF9 JUMPI PUSH4 0x4E487B71 PUSH1 0xE0 SHL PUSH1 0x0 MSTORE PUSH1 0x32 PUSH1 0x4 MSTORE PUSH1 0x24 PUSH1 0x0 REVERT JUMPDEST SWAP1 PUSH1 0x0 MSTORE PUSH1 0x20 PUSH1 0x0 KECCAK256 ADD SLOAD SWAP1 POP SWAP3 SWAP2 POP POP JUMP JUMPDEST PUSH1 0x0 PUSH1 0x20 DUP3 DUP5 SUB SLT ISZERO PUSH2 0x1F1D JUMPI DUP1 DUP2 REVERT JUMPDEST DUP2 CALLDATALOAD PUSH2 0x100C DUP2 PUSH2 0x2338 JUMP JUMPDEST PUSH1 0x0 PUSH1 0x20 DUP3 DUP5 SUB SLT ISZERO PUSH2 0x1F39 JUMPI DUP1 DUP2 REVERT JUMPDEST DUP2 MLOAD PUSH2 0x100C DUP2 PUSH2 0x2338 JUMP JUMPDEST PUSH1 0x0 DUP1 PUSH1 0x40 DUP4 DUP6 SUB SLT ISZERO PUSH2 0x1F56 JUMPI DUP1 DUP2 REVERT JUMPDEST DUP3 CALLDATALOAD PUSH2 0x1F61 DUP2 PUSH2 0x2338 JUMP JUMPDEST SWAP5 PUSH1 0x20 SWAP4 SWAP1 SWAP4 ADD CALLDATALOAD SWAP4 POP POP POP JUMP JUMPDEST PUSH1 0x0 DUP1 PUSH1 0x20 DUP4 DUP6 SUB SLT ISZERO PUSH2 0x1F81 JUMPI DUP2 DUP3 REVERT JUMPDEST DUP3 CALLDATALOAD PUSH8 0xFFFFFFFFFFFFFFFF DUP1 DUP3 GT ISZERO PUSH2 0x1F98 JUMPI DUP4 DUP5 REVERT JUMPDEST DUP2 DUP6 ADD SWAP2 POP DUP6 PUSH1 0x1F DUP4 ADD SLT PUSH2 0x1FAB JUMPI DUP4 DUP5 REVERT JUMPDEST DUP2 CALLDATALOAD DUP2 DUP2 GT ISZERO PUSH2 0x1FB9 JUMPI DUP5 DUP6 REVERT JUMPDEST DUP7 PUSH1 0x20 DUP3 PUSH1 0x6 SHL DUP6 ADD ADD GT ISZERO PUSH2 0x1FCD JUMPI DUP5 DUP6 REVERT JUMPDEST PUSH1 0x20 SWAP3 SWAP1 SWAP3 ADD SWAP7 SWAP2 SWAP6 POP SWAP1 SWAP4 POP POP POP POP JUMP JUMPDEST PUSH1 0x0 PUSH1 0x20 DUP3 DUP5 SUB SLT ISZERO PUSH2 0x1FF0 JUMPI DUP1 DUP2 REVERT JUMPDEST DUP2 MLOAD PUSH2 0x100C DUP2 PUSH2 0x2350 JUMP JUMPDEST PUSH1 0x0 DUP1 PUSH1 0x0 PUSH1 0x60 DUP5 DUP7 SUB SLT ISZERO PUSH2 0x200F JUMPI DUP1 DUP2 REVERT JUMPDEST DUP4 CALLDATALOAD PUSH2 0x201A DUP2 PUSH2 0x2350 JUMP JUMPDEST SWAP3 POP PUSH1 0x20 DUP5 ADD CALLDATALOAD PUSH2 0x202A DUP2 PUSH2 0x2338 JUMP JUMPDEST SWAP3 SWAP6 SWAP3 SWAP5 POP POP POP PUSH1 0x40 SWAP2 SWAP1 SWAP2 ADD CALLDATALOAD SWAP1 JUMP JUMPDEST PUSH1 0x0 PUSH1 0x20 DUP3 DUP5 SUB SLT ISZERO PUSH2 0x204C JUMPI DUP1 DUP2 REVERT JUMPDEST POP CALLDATALOAD SWAP2 SWAP1 POP JUMP JUMPDEST PUSH1 0x0 DUP1 PUSH1 0x40 DUP4 DUP6 SUB SLT ISZERO PUSH2 0x2065 JUMPI DUP2 DUP3 REVERT JUMPDEST DUP3 CALLDATALOAD SWAP2 POP PUSH1 0x20 DUP4 ADD CALLDATALOAD PUSH2 0x2077 DUP2 PUSH2 0x2338 JUMP JUMPDEST DUP1 SWAP2 POP POP SWAP3 POP SWAP3 SWAP1 POP JUMP JUMPDEST PUSH1 0x0 DUP1 PUSH1 0x40 DUP4 DUP6 SUB SLT ISZERO PUSH2 0x2094 JUMPI DUP2 DUP3 REVERT JUMPDEST POP POP DUP1 CALLDATALOAD SWAP3 PUSH1 0x20 SWAP1 SWAP2 ADD CALLDATALOAD SWAP2 POP JUMP JUMPDEST PUSH1 0x0 PUSH1 0x20 DUP3 DUP5 SUB SLT ISZERO PUSH2 0x20B4 JUMPI DUP1 DUP2 REVERT JUMPDEST DUP2 CALLDATALOAD PUSH1 0x1 PUSH1 0x1 PUSH1 0xE0 SHL SUB NOT DUP2 AND DUP2 EQ PUSH2 0x100C JUMPI DUP2 DUP3 REVERT JUMPDEST PUSH1 0x0 PUSH1 0x60 DUP3 DUP5 SUB SLT ISZERO PUSH2 0x20DC JUMPI DUP1 DUP2 REVERT JUMPDEST PUSH1 0x40 MLOAD PUSH1 0x60 DUP2 ADD DUP2 DUP2 LT PUSH8 0xFFFFFFFFFFFFFFFF DUP3 GT OR ISZERO PUSH2 0x210B JUMPI PUSH4 0x4E487B71 PUSH1 0xE0 SHL DUP4 MSTORE PUSH1 0x41 PUSH1 0x4 MSTORE PUSH1 0x24 DUP4 REVERT JUMPDEST PUSH1 0x40 MSTORE DUP3 MLOAD PUSH2 0x2119 DUP2 PUSH2 0x2350 JUMP JUMPDEST DUP2 MSTORE PUSH1 0x20 DUP4 ADD MLOAD PUSH2 0x2129 DUP2 PUSH2 0x2350 JUMP JUMPDEST PUSH1 0x20 DUP3 ADD MSTORE PUSH1 0x40 DUP4 ADD MLOAD PUSH2 0x213C DUP2 PUSH2 0x2350 JUMP JUMPDEST PUSH1 0x40 DUP3 ADD MSTORE SWAP4 SWAP3 POP POP POP JUMP JUMPDEST PUSH1 0x0 PUSH1 0xA0 DUP3 DUP5 SUB SLT ISZERO PUSH2 0x2159 JUMPI DUP1 DUP2 REVERT JUMPDEST POP SWAP2 SWAP1 POP JUMP JUMPDEST PUSH1 0x0 PUSH1 0x20 DUP3 DUP5 SUB SLT ISZERO PUSH2 0x2170 JUMPI DUP1 DUP2 REVERT JUMPDEST POP MLOAD SWAP2 SWAP1 POP JUMP JUMPDEST PUSH1 0x0 DUP1 PUSH1 0x0 PUSH1 0x60 DUP5 DUP7 SUB SLT ISZERO PUSH2 0x218B JUMPI DUP1 DUP2 REVERT JUMPDEST POP POP DUP2 CALLDATALOAD SWAP4 PUSH1 0x20 DUP4 ADD CALLDATALOAD SWAP4 POP PUSH1 0x40 SWAP1 SWAP3 ADD CALLDATALOAD SWAP2 SWAP1 POP JUMP JUMPDEST PUSH32 0x416363657373436F6E74726F6C3A206163636F756E7420000000000000000000 DUP2 MSTORE PUSH1 0x0 DUP4 MLOAD PUSH2 0x21DA DUP2 PUSH1 0x17 DUP6 ADD PUSH1 0x20 DUP9 ADD PUSH2 0x22C4 JUMP JUMPDEST PUSH32 0x206973206D697373696E6720726F6C6520000000000000000000000000000000 PUSH1 0x17 SWAP2 DUP5 ADD SWAP2 DUP3 ADD MSTORE DUP4 MLOAD PUSH2 0x2217 DUP2 PUSH1 0x28 DUP5 ADD PUSH1 0x20 DUP9 ADD PUSH2 0x22C4 JUMP JUMPDEST ADD PUSH1 0x28 ADD SWAP5 SWAP4 POP POP POP POP JUMP JUMPDEST PUSH1 0x20 DUP2 MSTORE PUSH1 0x0 DUP3 MLOAD DUP1 PUSH1 0x20 DUP5 ADD MSTORE PUSH2 0x2242 DUP2 PUSH1 0x40 DUP6 ADD PUSH1 0x20 DUP8 ADD PUSH2 0x22C4 JUMP JUMPDEST PUSH1 0x1F ADD PUSH1 0x1F NOT AND SWAP2 SWAP1 SWAP2 ADD PUSH1 0x40 ADD SWAP3 SWAP2 POP POP JUMP JUMPDEST PUSH1 0x0 DUP3 NOT DUP3 GT ISZERO PUSH2 0x2269 JUMPI PUSH2 0x2269 PUSH2 0x2322 JUMP JUMPDEST POP ADD SWAP1 JUMP JUMPDEST PUSH1 0x0 DUP3 PUSH2 0x2289 JUMPI PUSH4 0x4E487B71 PUSH1 0xE0 SHL DUP2 MSTORE PUSH1 0x12 PUSH1 0x4 MSTORE PUSH1 0x24 DUP2 REVERT JUMPDEST POP DIV SWAP1 JUMP JUMPDEST PUSH1 0x0 DUP2 PUSH1 0x0 NOT DIV DUP4 GT DUP3 ISZERO ISZERO AND ISZERO PUSH2 0x22A8 JUMPI PUSH2 0x22A8 PUSH2 0x2322 JUMP JUMPDEST POP MUL SWAP1 JUMP JUMPDEST PUSH1 0x0 DUP3 DUP3 LT ISZERO PUSH2 0x22BF JUMPI PUSH2 0x22BF PUSH2 0x2322 JUMP JUMPDEST POP SUB SWAP1 JUMP JUMPDEST PUSH1 0x0 JUMPDEST DUP4 DUP2 LT ISZERO PUSH2 0x22DF JUMPI DUP2 DUP2 ADD MLOAD DUP4 DUP3 ADD MSTORE PUSH1 0x20 ADD PUSH2 0x22C7 JUMP JUMPDEST DUP4 DUP2 GT ISZERO PUSH2 0x710 JUMPI POP POP PUSH1 0x0 SWAP2 ADD MSTORE JUMP JUMPDEST PUSH1 0x0 DUP2 PUSH2 0x22FF JUMPI PUSH2 0x22FF PUSH2 0x2322 JUMP JUMPDEST POP PUSH1 0x0 NOT ADD SWAP1 JUMP JUMPDEST PUSH1 0x0 PUSH1 0x0 NOT DUP3 EQ ISZERO PUSH2 0x231B JUMPI PUSH2 0x231B PUSH2 0x2322 JUMP JUMPDEST POP PUSH1 0x1 ADD SWAP1 JUMP JUMPDEST PUSH4 0x4E487B71 PUSH1 0xE0 SHL PUSH1 0x0 MSTORE PUSH1 0x11 PUSH1 0x4 MSTORE PUSH1 0x24 PUSH1 0x0 REVERT JUMPDEST PUSH1 0x1 PUSH1 0x1 PUSH1 0xA0 SHL SUB DUP2 AND DUP2 EQ PUSH2 0x234D JUMPI PUSH1 0x0 DUP1 REVERT JUMPDEST POP JUMP JUMPDEST DUP1 ISZERO ISZERO DUP2 EQ PUSH2 0x234D JUMPI PUSH1 0x0 DUP1 REVERT INVALID LOG2 PUSH5 0x6970667358 0x22 SLT KECCAK256 CALLDATALOAD DUP15 DUP10 0xA9 0x1F 0xB1 STATICCALL DUP9 0xCE SWAP13 SWAP16 0xE KECCAK256 0xDE 0x49 SWAP15 0xC5 POP BALANCE 0xF6 DUP3 SLOAD 0x5E CALLDATALOAD 0xDA 0xCC LT 0xBD 0xCA 0xB0 0xA5 PUSH10 0x64736F6C634300080400 CALLER "
		},
		"gasEstimates": {
			"creation": {
				"codeDepositCost": "1821600",
				"executionCost": "infinite",
				"totalCost": "infinite"
			},
			"external": {
				"ROLE_ADMIN()": "307",
				"batchBurnAndReward()": "1064",
				"botTaxPercent()": "1086",
				"buyLimitAmount()": "1106",
				"buyLimitPercent()": "1064",
				"cachedMultiplier()": "1085",
				"chargeCustomTax(uint256,uint256)": "infinite",
				"cycleOneEnds()": "1063",
				"cycleOneStartTaxPercent()": "1106",
				"cycleThreeEndTaxPercent()": "1063",
				"cycleThreeEnds()": "1084",
				"cycleThreeStartTaxPercent()": "1083",
				"cycleTwoEnds()": "1087",
				"cycleTwoStartTaxPercent()": "1062",
				"defiFactoryTokenAddress()": "1096",
				"earlyInvestorTimestamp()": "1107",
				"getBalance(address,uint256)": "infinite",
				"getRealBalance(address,uint256)": "infinite",
				"getRewardsBalance()": "infinite",
				"getRoleAdmin(bytes32)": "1260",
				"getRoleMember(bytes32,uint256)": "infinite",
				"getRoleMemberCount(bytes32)": "infinite",
				"getTotalSupply()": "infinite",
				"getWalletCurrentCycle(address)": "infinite",
				"grantRole(bytes32,address)": "infinite",
				"grantRolesBulk((bytes32,address)[])": "infinite",
				"hasRole(bytes32,address)": "1439",
				"howManyFirstMinutesIncreasedTax()": "1106",
				"lastCachedTimestamp()": "1085",
				"prepareHumanAddressMintOrBurnRewardsAmounts(bool,address,uint256)": "infinite",
				"prepareTaxAmounts((address,address,uint256,uint256,uint256))": "infinite",
				"publicForcedUpdateCacheMultiplier()": "infinite",
				"realTotalSupply()": "1061",
				"renounceRole(bytes32,address)": "infinite",
				"revokeRole(bytes32,address)": "infinite",
				"rewardsBalance()": "1108",
				"secondsBetweenRecacheUpdates()": "1084",
				"supportsInterface(bytes4)": "infinite",
				"updateBotTaxSettings(uint256,uint256)": "infinite",
				"updateBuyLimitPercent(uint256)": "infinite",
				"updateCycleOneSettings(uint256,uint256)": "infinite",
				"updateCycleTwoSettings(uint256,uint256)": "infinite",
				"updateCycleTwoSettings(uint256,uint256,uint256)": "infinite",
				"updateDefiFactoryTokenAddress(address)": "infinite",
				"updateSecondsBetweenUpdates(uint256)": "infinite"
			},
			"internal": {
				"calculateCurrentCycleTax(uint256)": "infinite",
				"delayedUpdateCache()": "infinite",
				"forcedUpdateCache()": "infinite",
				"getNewBuyTimestamp(uint256,uint256,uint256)": "infinite",
				"getUpdatedBuyTimestampOfEarlyInvestor(address,uint256)": "infinite",
				"isNotContract(address)": "infinite"
			}
		},
		"methodIdentifiers": {
			"ROLE_ADMIN()": "d391014b",
			"batchBurnAndReward()": "1336a98f",
			"botTaxPercent()": "1857b512",
			"buyLimitAmount()": "e62684db",
			"buyLimitPercent()": "326e9539",
			"cachedMultiplier()": "36177818",
			"chargeCustomTax(uint256,uint256)": "36098758",
			"cycleOneEnds()": "372affbf",
			"cycleOneStartTaxPercent()": "7207786f",
			"cycleThreeEndTaxPercent()": "9394aa66",
			"cycleThreeEnds()": "60fd5fd7",
			"cycleThreeStartTaxPercent()": "fc78bab3",
			"cycleTwoEnds()": "01bf9180",
			"cycleTwoStartTaxPercent()": "e7baf7f4",
			"defiFactoryTokenAddress()": "00686ddc",
			"earlyInvestorTimestamp()": "9f632f46",
			"getBalance(address,uint256)": "2b04e840",
			"getRealBalance(address,uint256)": "5cdba003",
			"getRewardsBalance()": "858a135d",
			"getRoleAdmin(bytes32)": "248a9ca3",
			"getRoleMember(bytes32,uint256)": "9010d07c",
			"getRoleMemberCount(bytes32)": "ca15c873",
			"getTotalSupply()": "c4e41b22",
			"getWalletCurrentCycle(address)": "9be810cc",
			"grantRole(bytes32,address)": "2f2ff15d",
			"grantRolesBulk((bytes32,address)[])": "03ed957f",
			"hasRole(bytes32,address)": "91d14854",
			"howManyFirstMinutesIncreasedTax()": "c4a8a169",
			"lastCachedTimestamp()": "40142e55",
			"prepareHumanAddressMintOrBurnRewardsAmounts(bool,address,uint256)": "42e58a63",
			"prepareTaxAmounts((address,address,uint256,uint256,uint256))": "815a61e0",
			"publicForcedUpdateCacheMultiplier()": "e8ac6e4e",
			"realTotalSupply()": "ef356a79",
			"renounceRole(bytes32,address)": "36568abe",
			"revokeRole(bytes32,address)": "d547741f",
			"rewardsBalance()": "131f2e53",
			"secondsBetweenRecacheUpdates()": "da9b835a",
			"supportsInterface(bytes4)": "01ffc9a7",
			"updateBotTaxSettings(uint256,uint256)": "2cf136f3",
			"updateBuyLimitPercent(uint256)": "9219023f",
			"updateCycleOneSettings(uint256,uint256)": "fed77a80",
			"updateCycleTwoSettings(uint256,uint256)": "b6c5ab7b",
			"updateCycleTwoSettings(uint256,uint256,uint256)": "ebc27241",
			"updateDefiFactoryTokenAddress(address)": "bc6537e8",
			"updateSecondsBetweenUpdates(uint256)": "342c1919"
		}
	},
	"abi": [
		{
			"inputs": [],
			"stateMutability": "nonpayable",
			"type": "constructor"
		},
		{
			"anonymous": false,
			"inputs": [
				{
					"indexed": false,
					"internalType": "address",
					"name": "from",
					"type": "address"
				},
				{
					"indexed": false,
					"internalType": "address",
					"name": "to",
					"type": "address"
				},
				{
					"indexed": false,
					"internalType": "uint256",
					"name": "transferAmount",
					"type": "uint256"
				},
				{
					"indexed": false,
					"internalType": "uint256",
					"name": "taxedAmount",
					"type": "uint256"
				}
			],
			"name": "BotTransactionDetected",
			"type": "event"
		},
		{
			"anonymous": false,
			"inputs": [
				{
					"indexed": false,
					"internalType": "uint256",
					"name": "newBuyLimitAmount",
					"type": "uint256"
				}
			],
			"name": "BuyLimitAmountUpdated",
			"type": "event"
		},
		{
			"anonymous": false,
			"inputs": [
				{
					"indexed": false,
					"internalType": "uint256",
					"name": "newMultiplier",
					"type": "uint256"
				}
			],
			"name": "MultiplierUpdated",
			"type": "event"
		},
		{
			"anonymous": false,
			"inputs": [
				{
					"indexed": true,
					"internalType": "bytes32",
					"name": "role",
					"type": "bytes32"
				},
				{
					"indexed": true,
					"internalType": "bytes32",
					"name": "previousAdminRole",
					"type": "bytes32"
				},
				{
					"indexed": true,
					"internalType": "bytes32",
					"name": "newAdminRole",
					"type": "bytes32"
				}
			],
			"name": "RoleAdminChanged",
			"type": "event"
		},
		{
			"anonymous": false,
			"inputs": [
				{
					"indexed": true,
					"internalType": "bytes32",
					"name": "role",
					"type": "bytes32"
				},
				{
					"indexed": true,
					"internalType": "address",
					"name": "account",
					"type": "address"
				},
				{
					"indexed": true,
					"internalType": "address",
					"name": "sender",
					"type": "address"
				}
			],
			"name": "RoleGranted",
			"type": "event"
		},
		{
			"anonymous": false,
			"inputs": [
				{
					"indexed": true,
					"internalType": "bytes32",
					"name": "role",
					"type": "bytes32"
				},
				{
					"indexed": true,
					"internalType": "address",
					"name": "account",
					"type": "address"
				},
				{
					"indexed": true,
					"internalType": "address",
					"name": "sender",
					"type": "address"
				}
			],
			"name": "RoleRevoked",
			"type": "event"
		},
		{
			"inputs": [],
			"name": "ROLE_ADMIN",
			"outputs": [
				{
					"internalType": "bytes32",
					"name": "",
					"type": "bytes32"
				}
			],
			"stateMutability": "view",
			"type": "function"
		},
		{
			"inputs": [],
			"name": "batchBurnAndReward",
			"outputs": [
				{
					"internalType": "uint256",
					"name": "",
					"type": "uint256"
				}
			],
			"stateMutability": "view",
			"type": "function"
		},
		{
			"inputs": [],
			"name": "botTaxPercent",
			"outputs": [
				{
					"internalType": "uint256",
					"name": "",
					"type": "uint256"
				}
			],
			"stateMutability": "view",
			"type": "function"
		},
		{
			"inputs": [],
			"name": "buyLimitAmount",
			"outputs": [
				{
					"internalType": "uint256",
					"name": "",
					"type": "uint256"
				}
			],
			"stateMutability": "view",
			"type": "function"
		},
		{
			"inputs": [],
			"name": "buyLimitPercent",
			"outputs": [
				{
					"internalType": "uint256",
					"name": "",
					"type": "uint256"
				}
			],
			"stateMutability": "view",
			"type": "function"
		},
		{
			"inputs": [],
			"name": "cachedMultiplier",
			"outputs": [
				{
					"internalType": "uint256",
					"name": "",
					"type": "uint256"
				}
			],
			"stateMutability": "view",
			"type": "function"
		},
		{
			"inputs": [
				{
					"internalType": "uint256",
					"name": "taxAmount",
					"type": "uint256"
				},
				{
					"internalType": "uint256",
					"name": "accountBalance",
					"type": "uint256"
				}
			],
			"name": "chargeCustomTax",
			"outputs": [
				{
					"internalType": "uint256",
					"name": "",
					"type": "uint256"
				}
			],
			"stateMutability": "nonpayable",
			"type": "function"
		},
		{
			"inputs": [],
			"name": "cycleOneEnds",
			"outputs": [
				{
					"internalType": "uint256",
					"name": "",
					"type": "uint256"
				}
			],
			"stateMutability": "view",
			"type": "function"
		},
		{
			"inputs": [],
			"name": "cycleOneStartTaxPercent",
			"outputs": [
				{
					"internalType": "uint256",
					"name": "",
					"type": "uint256"
				}
			],
			"stateMutability": "view",
			"type": "function"
		},
		{
			"inputs": [],
			"name": "cycleThreeEndTaxPercent",
			"outputs": [
				{
					"internalType": "uint256",
					"name": "",
					"type": "uint256"
				}
			],
			"stateMutability": "view",
			"type": "function"
		},
		{
			"inputs": [],
			"name": "cycleThreeEnds",
			"outputs": [
				{
					"internalType": "uint256",
					"name": "",
					"type": "uint256"
				}
			],
			"stateMutability": "view",
			"type": "function"
		},
		{
			"inputs": [],
			"name": "cycleThreeStartTaxPercent",
			"outputs": [
				{
					"internalType": "uint256",
					"name": "",
					"type": "uint256"
				}
			],
			"stateMutability": "view",
			"type": "function"
		},
		{
			"inputs": [],
			"name": "cycleTwoEnds",
			"outputs": [
				{
					"internalType": "uint256",
					"name": "",
					"type": "uint256"
				}
			],
			"stateMutability": "view",
			"type": "function"
		},
		{
			"inputs": [],
			"name": "cycleTwoStartTaxPercent",
			"outputs": [
				{
					"internalType": "uint256",
					"name": "",
					"type": "uint256"
				}
			],
			"stateMutability": "view",
			"type": "function"
		},
		{
			"inputs": [],
			"name": "defiFactoryTokenAddress",
			"outputs": [
				{
					"internalType": "address",
					"name": "",
					"type": "address"
				}
			],
			"stateMutability": "view",
			"type": "function"
		},
		{
			"inputs": [],
			"name": "earlyInvestorTimestamp",
			"outputs": [
				{
					"internalType": "uint256",
					"name": "",
					"type": "uint256"
				}
			],
			"stateMutability": "view",
			"type": "function"
		},
		{
			"inputs": [
				{
					"internalType": "address",
					"name": "account",
					"type": "address"
				},
				{
					"internalType": "uint256",
					"name": "accountBalance",
					"type": "uint256"
				}
			],
			"name": "getBalance",
			"outputs": [
				{
					"internalType": "uint256",
					"name": "",
					"type": "uint256"
				}
			],
			"stateMutability": "view",
			"type": "function"
		},
		{
			"inputs": [
				{
					"internalType": "address",
					"name": "account",
					"type": "address"
				},
				{
					"internalType": "uint256",
					"name": "accountBalance",
					"type": "uint256"
				}
			],
			"name": "getRealBalance",
			"outputs": [
				{
					"internalType": "uint256",
					"name": "",
					"type": "uint256"
				}
			],
			"stateMutability": "view",
			"type": "function"
		},
		{
			"inputs": [],
			"name": "getRewardsBalance",
			"outputs": [
				{
					"internalType": "uint256",
					"name": "",
					"type": "uint256"
				}
			],
			"stateMutability": "view",
			"type": "function"
		},
		{
			"inputs": [
				{
					"internalType": "bytes32",
					"name": "role",
					"type": "bytes32"
				}
			],
			"name": "getRoleAdmin",
			"outputs": [
				{
					"internalType": "bytes32",
					"name": "",
					"type": "bytes32"
				}
			],
			"stateMutability": "view",
			"type": "function"
		},
		{
			"inputs": [
				{
					"internalType": "bytes32",
					"name": "role",
					"type": "bytes32"
				},
				{
					"internalType": "uint256",
					"name": "index",
					"type": "uint256"
				}
			],
			"name": "getRoleMember",
			"outputs": [
				{
					"internalType": "address",
					"name": "",
					"type": "address"
				}
			],
			"stateMutability": "view",
			"type": "function"
		},
		{
			"inputs": [
				{
					"internalType": "bytes32",
					"name": "role",
					"type": "bytes32"
				}
			],
			"name": "getRoleMemberCount",
			"outputs": [
				{
					"internalType": "uint256",
					"name": "",
					"type": "uint256"
				}
			],
			"stateMutability": "view",
			"type": "function"
		},
		{
			"inputs": [],
			"name": "getTotalSupply",
			"outputs": [
				{
					"internalType": "uint256",
					"name": "",
					"type": "uint256"
				}
			],
			"stateMutability": "view",
			"type": "function"
		},
		{
			"inputs": [
				{
					"internalType": "address",
					"name": "addr",
					"type": "address"
				}
			],
			"name": "getWalletCurrentCycle",
			"outputs": [
				{
					"components": [
						{
							"internalType": "uint256",
							"name": "currentCycleTax",
							"type": "uint256"
						},
						{
							"internalType": "uint256",
							"name": "howMuchTimeLeftTillEndOfCycleThree",
							"type": "uint256"
						}
					],
					"internalType": "struct NoBotsTechV2.CurrectCycle",
					"name": "currentCycle",
					"type": "tuple"
				}
			],
			"stateMutability": "view",
			"type": "function"
		},
		{
			"inputs": [
				{
					"internalType": "bytes32",
					"name": "role",
					"type": "bytes32"
				},
				{
					"internalType": "address",
					"name": "account",
					"type": "address"
				}
			],
			"name": "grantRole",
			"outputs": [],
			"stateMutability": "nonpayable",
			"type": "function"
		},
		{
			"inputs": [
				{
					"components": [
						{
							"internalType": "bytes32",
							"name": "role",
							"type": "bytes32"
						},
						{
							"internalType": "address",
							"name": "addr",
							"type": "address"
						}
					],
					"internalType": "struct RoleAccess[]",
					"name": "roles",
					"type": "tuple[]"
				}
			],
			"name": "grantRolesBulk",
			"outputs": [],
			"stateMutability": "nonpayable",
			"type": "function"
		},
		{
			"inputs": [
				{
					"internalType": "bytes32",
					"name": "role",
					"type": "bytes32"
				},
				{
					"internalType": "address",
					"name": "account",
					"type": "address"
				}
			],
			"name": "hasRole",
			"outputs": [
				{
					"internalType": "bool",
					"name": "",
					"type": "bool"
				}
			],
			"stateMutability": "view",
			"type": "function"
		},
		{
			"inputs": [],
			"name": "howManyFirstMinutesIncreasedTax",
			"outputs": [
				{
					"internalType": "uint256",
					"name": "",
					"type": "uint256"
				}
			],
			"stateMutability": "view",
			"type": "function"
		},
		{
			"inputs": [],
			"name": "lastCachedTimestamp",
			"outputs": [
				{
					"internalType": "uint256",
					"name": "",
					"type": "uint256"
				}
			],
			"stateMutability": "view",
			"type": "function"
		},
		{
			"inputs": [
				{
					"internalType": "bool",
					"name": "isMint",
					"type": "bool"
				},
				{
					"internalType": "address",
					"name": "account",
					"type": "address"
				},
				{
					"internalType": "uint256",
					"name": "desiredAmountToMintOrBurn",
					"type": "uint256"
				}
			],
			"name": "prepareHumanAddressMintOrBurnRewardsAmounts",
			"outputs": [
				{
					"internalType": "uint256",
					"name": "",
					"type": "uint256"
				}
			],
			"stateMutability": "nonpayable",
			"type": "function"
		},
		{
			"inputs": [
				{
					"components": [
						{
							"internalType": "address",
							"name": "sender",
							"type": "address"
						},
						{
							"internalType": "address",
							"name": "recipient",
							"type": "address"
						},
						{
							"internalType": "uint256",
							"name": "transferAmount",
							"type": "uint256"
						},
						{
							"internalType": "uint256",
							"name": "senderRealBalance",
							"type": "uint256"
						},
						{
							"internalType": "uint256",
							"name": "recipientRealBalance",
							"type": "uint256"
						}
					],
					"internalType": "struct TaxAmountsInput",
					"name": "taxAmountsInput",
					"type": "tuple"
				}
			],
			"name": "prepareTaxAmounts",
			"outputs": [
				{
					"components": [
						{
							"internalType": "uint256",
							"name": "senderRealBalance",
							"type": "uint256"
						},
						{
							"internalType": "uint256",
							"name": "recipientRealBalance",
							"type": "uint256"
						},
						{
							"internalType": "uint256",
							"name": "burnAndRewardAmount",
							"type": "uint256"
						},
						{
							"internalType": "uint256",
							"name": "recipientGetsAmount",
							"type": "uint256"
						}
					],
					"internalType": "struct TaxAmountsOutput",
					"name": "taxAmountsOutput",
					"type": "tuple"
				}
			],
			"stateMutability": "nonpayable",
			"type": "function"
		},
		{
			"inputs": [],
			"name": "publicForcedUpdateCacheMultiplier",
			"outputs": [],
			"stateMutability": "nonpayable",
			"type": "function"
		},
		{
			"inputs": [],
			"name": "realTotalSupply",
			"outputs": [
				{
					"internalType": "uint256",
					"name": "",
					"type": "uint256"
				}
			],
			"stateMutability": "view",
			"type": "function"
		},
		{
			"inputs": [
				{
					"internalType": "bytes32",
					"name": "role",
					"type": "bytes32"
				},
				{
					"internalType": "address",
					"name": "account",
					"type": "address"
				}
			],
			"name": "renounceRole",
			"outputs": [],
			"stateMutability": "nonpayable",
			"type": "function"
		},
		{
			"inputs": [
				{
					"internalType": "bytes32",
					"name": "role",
					"type": "bytes32"
				},
				{
					"internalType": "address",
					"name": "account",
					"type": "address"
				}
			],
			"name": "revokeRole",
			"outputs": [],
			"stateMutability": "nonpayable",
			"type": "function"
		},
		{
			"inputs": [],
			"name": "rewardsBalance",
			"outputs": [
				{
					"internalType": "uint256",
					"name": "",
					"type": "uint256"
				}
			],
			"stateMutability": "view",
			"type": "function"
		},
		{
			"inputs": [],
			"name": "secondsBetweenRecacheUpdates",
			"outputs": [
				{
					"internalType": "uint256",
					"name": "",
					"type": "uint256"
				}
			],
			"stateMutability": "view",
			"type": "function"
		},
		{
			"inputs": [
				{
					"internalType": "bytes4",
					"name": "interfaceId",
					"type": "bytes4"
				}
			],
			"name": "supportsInterface",
			"outputs": [
				{
					"internalType": "bool",
					"name": "",
					"type": "bool"
				}
			],
			"stateMutability": "view",
			"type": "function"
		},
		{
			"inputs": [
				{
					"internalType": "uint256",
					"name": "_botTaxPercent",
					"type": "uint256"
				},
				{
					"internalType": "uint256",
					"name": "_howManyFirstMinutesIncreasedTax",
					"type": "uint256"
				}
			],
			"name": "updateBotTaxSettings",
			"outputs": [],
			"stateMutability": "nonpayable",
			"type": "function"
		},
		{
			"inputs": [
				{
					"internalType": "uint256",
					"name": "_buyLimitPercent",
					"type": "uint256"
				}
			],
			"name": "updateBuyLimitPercent",
			"outputs": [],
			"stateMutability": "nonpayable",
			"type": "function"
		},
		{
			"inputs": [
				{
					"internalType": "uint256",
					"name": "_cycleOneStartTaxPercent",
					"type": "uint256"
				},
				{
					"internalType": "uint256",
					"name": "_cycleOneEnds",
					"type": "uint256"
				}
			],
			"name": "updateCycleOneSettings",
			"outputs": [],
			"stateMutability": "nonpayable",
			"type": "function"
		},
		{
			"inputs": [
				{
					"internalType": "uint256",
					"name": "_cycleTwoStartTaxPercent",
					"type": "uint256"
				},
				{
					"internalType": "uint256",
					"name": "_cycleTwoEnds",
					"type": "uint256"
				}
			],
			"name": "updateCycleTwoSettings",
			"outputs": [],
			"stateMutability": "nonpayable",
			"type": "function"
		},
		{
			"inputs": [
				{
					"internalType": "uint256",
					"name": "_cycleThreeStartTaxPercent",
					"type": "uint256"
				},
				{
					"internalType": "uint256",
					"name": "_cycleThreeEnds",
					"type": "uint256"
				},
				{
					"internalType": "uint256",
					"name": "_cycleThreeEndTaxPercent",
					"type": "uint256"
				}
			],
			"name": "updateCycleTwoSettings",
			"outputs": [],
			"stateMutability": "nonpayable",
			"type": "function"
		},
		{
			"inputs": [
				{
					"internalType": "address",
					"name": "_defiFactoryTokenAddress",
					"type": "address"
				}
			],
			"name": "updateDefiFactoryTokenAddress",
			"outputs": [],
			"stateMutability": "nonpayable",
			"type": "function"
		},
		{
			"inputs": [
				{
					"internalType": "uint256",
					"name": "_secondsBetweenRecacheUpdates",
					"type": "uint256"
				}
			],
			"name": "updateSecondsBetweenUpdates",
			"outputs": [],
			"stateMutability": "nonpayable",
			"type": "function"
		}
	]
}