{
	"data": {
		"bytecode": {
			"linkReferences": {},
			"object": "6080604052670de0b6b3a764000060025542600855610258600955620186a0600a55620f1b30600b55611388600c556103e8600d5560fa600e55600f805461ffff1916610100179055600060138190556014553480156200005f57600080fd5b50620000766000620000706200007c565b62000080565b6200020d565b3390565b620000978282620000c360201b620022521760201c565b6000828152600160209081526040909120620000be9183906200225c620000d3821b17901c565b505050565b620000cf8282620000f3565b5050565b6000620000ea836001600160a01b0384166200017d565b90505b92915050565b620000ff8282620001cc565b620000cf576000828152602081815260408083206001600160a01b03851684529091529020805460ff19166001179055620001396200007c565b6001600160a01b0316816001600160a01b0316837f2f8788117e7eff1d82e926ec794901d17c78024a50270940304540a733656f0d60405160405180910390a45050565b60006200018b8383620001f5565b620001c357508154600181810184556000848152602080822090930184905584548482528286019093526040902091909155620000ed565b506000620000ed565b6000918252602082815260408084206001600160a01b0393909316845291905290205460ff1690565b60009081526001919091016020526040902054151590565b6132d8806200021d6000396000f3fe608060405234801561001057600080fd5b50600436106103415760003560e01c80637b197233116101b8578063c4e41b2211610104578063deaf0fa1116100a2578063e91c46521161007c578063e91c46521461066e578063ef356a7914610681578063ef357df114610689578063fc0875721461069c57610341565b8063deaf0fa114610635578063e355681914610648578063e69594e31461065b57610341565b8063d391014b116100de578063d391014b146105ff578063d415a82d14610607578063d547741f1461061a578063d590b71e1461062d57610341565b8063c4e41b22146105d1578063ca15c873146105d9578063cb123637146105ec57610341565b80639010d07c116101715780639e01e31c1161014b5780639e01e31c146105a6578063a5c9b607146105ae578063aa46d678146105c1578063b3830c8c146105c957610341565b80639010d07c1461056b57806391d148541461058b578063975ea1081461059e57610341565b80637b1972331461050b578063815a61e01461051357806382e17b6514610533578063837376af14610553578063858a135d1461055b57806387d1f05d1461056357610341565b806336568abe11610292578063503a77ae116102305780635cdba0031161020a5780635cdba003146104bd5780635d8ec25f146104d057806368a2972f146104d85780636bc833f3146104f857610341565b8063503a77ae1461049a5780635603b9f9146104a25780635c7ffc88146104b557610341565b806340142e551161026c57806340142e551461045957806342e58a63146104615780634aa2205d146104745780634abd991d1461048757610341565b806336568abe1461042b5780633830551a1461043e5780633e6e44961461045157610341565b80631857b512116102ff5780632b04e840116102d95780632b04e840146103ea5780632f2ff15d146103fd5780633609875814610410578063361778181461042357610341565b80631857b512146103c7578063241ec3be146103cf578063248a9ca3146103d757610341565b80622457831461034657806301ffc9a71461036f57806303ed957f1461038f5780630f3ebe5d146103a4578063131f2e53146103b75780631336a98f146103bf575b600080fd5b610359610354366004612a21565b6106af565b6040516103669190612e26565b60405180910390f35b61038261037d366004612bfb565b61097b565b6040516103669190612e1b565b6103a261039d366004612adb565b6109a8565b005b6103596103b23660046129d5565b610a5d565b610359610a6f565b610359610a75565b610359610a7b565b610382610a81565b6103596103e5366004612ba0565b610a8a565b6103596103f8366004612a72565b610a9f565b6103a261040b366004612bb8565b610b49565b61035961041e366004612bda565b610b6b565b610359610c2e565b6103a2610439366004612bb8565b610c34565b6103a261044c366004612a9b565b610c56565b610359610fe2565b610359610fe8565b61035961046f366004612b65565b610fee565b6103a2610482366004612b4b565b61112c565b6103596104953660046129d5565b611168565b6103596111ec565b6103a26104b03660046129ef565b6111fe565b6103826114b6565b6103596104cb366004612a72565b6114c4565b610359611552565b6104eb6104e6366004612a9b565b611564565b6040516103669190612dc3565b6103a2610506366004612c34565b611710565b610359611750565b610526610521366004612c23565b611756565b6040516103669190613117565b610546610541366004612a9b565b611d11565b6040516103669190612d76565b610359611e48565b610359611e4e565b610359611ea0565b61057e610579366004612bda565b611ea6565b6040516103669190612ce3565b610382610599366004612bb8565b611ebe565b610359611ee7565b610359611eed565b6103a26105bc366004612a9b565b611eff565b610359611fd6565b610359611fdc565b610359611fe2565b6103596105e7366004612ba0565b612042565b6103596105fa366004612ba0565b612059565b6103596120b9565b6103596106153660046129d5565b6120be565b6103a2610628366004612bb8565b6120d0565b6103596120da565b61057e6106433660046129d5565b6120fe565b6103a26106563660046129d5565b612119565b6103a2610669366004612bda565b61217c565b61035961067c3660046129d5565b6121b0565b6103596121c2565b6103a2610697366004612ba0565b6121c8565b6103a26106aa366004612a72565b6121f6565b60006106cb600080516020613283833981519152610599612271565b806106de57506106de6000610599612271565b6107035760405162461bcd60e51b81526004016106fa90613091565b60405180910390fd5b6001600160a01b03841660009081526004602052604081205490805b8481101561094f576003600087878481811061074b57634e487b7160e01b600052603260045260246000fd5b905060200201602081019061076091906129d5565b6001600160a01b031681526020810191909152604001600020546107835761093d565b600560008787848181106107a757634e487b7160e01b600052603260045260246000fd5b90506020020160208101906107bc91906129d5565b6001600160a01b039081168252602082019290925260400160002054169150811561093d57866001600160a01b0316826001600160a01b0316141561087d57620f4240600d546003600089898681811061082657634e487b7160e01b600052603260045260246000fd5b905060200201602081019061083b91906129d5565b6001600160a01b03166001600160a01b0316815260200190815260200160002054610866919061316e565b610870919061315a565b61087a9084613142565b92505b6001600160a01b0391821660009081526005602052604090205490911690811561093d57866001600160a01b0316826001600160a01b0316141561093d57620f4240600e54600360008989868181106108e657634e487b7160e01b600052603260045260246000fd5b90506020020160208101906108fb91906129d5565b6001600160a01b03166001600160a01b0316815260200190815260200160002054610926919061316e565b610930919061315a565b61093a9084613142565b92505b80610947816131e7565b91505061071f565b50670de0b6b3a764000060025483610967919061316e565b610971919061315a565b9695505050505050565b60006001600160e01b03198216635a05180f60e01b14806109a057506109a082612275565b90505b919050565b6109b56000610599612271565b6109d15760405162461bcd60e51b81526004016106fa90612f7d565b60005b81811015610a5857610a468383838181106109ff57634e487b7160e01b600052603260045260246000fd5b90506040020160000135848484818110610a2957634e487b7160e01b600052603260045260246000fd5b9050604002016020016020810190610a4191906129d5565b61229a565b80610a50816131e7565b9150506109d4565b505050565b60036020526000908152604090205481565b60105481565b60075481565b600b5481565b600f5460ff1681565b60009081526020819052604090206001015490565b6000610abb600080516020613283833981519152610599612271565b80610ace5750610ace6000610599612271565b610aea5760405162461bcd60e51b81526004016106fa90613091565b610b147fbd68ab95cda3c90ac0bffc2b3a3a97a564372fc3ca4a8e4575d3ce58179b756384611ebe565b610b3e57670de0b6b3a764000060025483610b2f919061316e565b610b39919061315a565b610b40565b815b90505b92915050565b610b5382826122a4565b6000828152600160205260409020610a58908261225c565b6000610b87600080516020613283833981519152610599612271565b80610b9a5750610b9a6000610599612271565b610bb65760405162461bcd60e51b81526004016106fa90613091565b600254600090610bce670de0b6b3a76400008661316e565b610bd8919061315a565b905080831015610bfa5760405162461bcd60e51b81526004016106fa90612f4f565b8060076000828254610c0c9190613142565b90915550610c1c9050818461318d565b9250610c266122c8565b509092915050565b60025481565b610c3e82826122e9565b6000828152600160205260409020610a58908261232b565b610c70600080516020613283833981519152610599612271565b80610c835750610c836000610599612271565b610c9f5760405162461bcd60e51b81526004016106fa90613091565b6000805b82811015610fdc5760036000858584818110610ccf57634e487b7160e01b600052603260045260246000fd5b9050602002016020810190610ce491906129d5565b6001600160a01b03168152602081019190915260400160002054610d0757610fca565b60056000858584818110610d2b57634e487b7160e01b600052603260045260246000fd5b9050602002016020810190610d4091906129d5565b6001600160a01b0390811682526020820192909252604001600020541691508115610fca57620f4240600d5460036000878786818110610d9057634e487b7160e01b600052603260045260246000fd5b9050602002016020810190610da591906129d5565b6001600160a01b03166001600160a01b0316815260200190815260200160002054610dd0919061316e565b610dda919061315a565b6001600160a01b03831660009081526004602052604081208054909190610e02908490613142565b90915550506001600160a01b038216600090815260046020526040908190205490517f7feff17c24ace97134b37ff4047be0fba9543a1f254b3a942ad037d78fed64f791610e5291859190612d5d565b60405180910390a16001600160a01b03918216600090815260056020526040902054909116908115610f7457620f4240600e5460036000878786818110610ea957634e487b7160e01b600052603260045260246000fd5b9050602002016020810190610ebe91906129d5565b6001600160a01b03166001600160a01b0316815260200190815260200160002054610ee9919061316e565b610ef3919061315a565b6001600160a01b03831660009081526004602052604081208054909190610f1b908490613142565b90915550506001600160a01b038216600090815260046020526040908190205490517f7feff17c24ace97134b37ff4047be0fba9543a1f254b3a942ad037d78fed64f791610f6b91859190612d5d565b60405180910390a15b600060036000868685818110610f9a57634e487b7160e01b600052603260045260246000fd5b9050602002016020810190610faf91906129d5565b6001600160a01b031681526020810191909152604001600020555b80610fd4816131e7565b915050610ca3565b50505050565b60095481565b60085481565b600061100a600080516020613283833981519152610599612271565b8061101d575061101d6000610599612271565b6110395760405162461bcd60e51b81526004016106fa90613091565b61105160008051602061326383398151915284611ebe565b80611060575061106083612340565b61107c5760405162461bcd60e51b81526004016106fa9061301e565b60025460009061109484670de0b6b3a764000061316e565b61109e919061315a565b905060006110ac828561318d565b905085156110ea5780601060008282546110c69190613142565b9250508190555081601160008282546110df9190613142565b9091555061111b9050565b80601060008282546110fc919061318d565b925050819055508160116000828254611115919061318d565b90915550505b611123612345565b50949350505050565b6111396000610599612271565b6111555760405162461bcd60e51b81526004016106fa90612f7d565b600f805460ff1916911515919091179055565b6000611184600080516020613283833981519152610599612271565b8061119757506111976000610599612271565b6111b35760405162461bcd60e51b81526004016106fa90613091565b6002546001600160a01b038316600090815260046020526040902054670de0b6b3a7640000916111e29161316e565b6109a0919061315a565b60008051602061324383398151915281565b611218600080516020613283833981519152610599612271565b8061122b575061122b6000610599612271565b6112475760405162461bcd60e51b81526004016106fa90613091565b6001600160a01b0381161580159061126757506001600160a01b03821615155b6112835760405162461bcd60e51b81526004016106fa90613043565b816001600160a01b0316816001600160a01b031614156112b55760405162461bcd60e51b81526004016106fa90612ff6565b6001600160a01b038083166000908152600560205260409020548282169116148015906112ff57506001600160a01b03808216600090815260056020526040902054838216911614155b61131b5760405162461bcd60e51b81526004016106fa90613067565b61132482612340565b8015611334575061133481612340565b6113505760405162461bcd60e51b81526004016106fa90612fce565b61136860008051602061326383398151915283611ebe565b15801561138a575061138860008051602061326383398151915282611ebe565b155b80156113ab57506113a960008051602061324383398151915283611ebe565b155b80156113cc57506113ca60008051602061324383398151915282611ebe565b155b6113e85760405162461bcd60e51b81526004016106fa90612f05565b6001600160a01b03828116600090815260056020526040902080546001600160a01b03191683831617908190551615611478576001600160a01b03808316600090815260056020526040908190205490517fccaa6f8dcab99ae301b4462b3deb302e91a54f1ad24a0887be7649303509cd289261146b9286929116908590612d11565b60405180910390a16114b2565b7f5f1ca2fcc108b751843a763e60d2201f593516109d7dbb1b700468f2d4190bb782826040516114a9929190612cf7565b60405180910390a15b5050565b600f54610100900460ff1681565b60006114e0600080516020613283833981519152610599612271565b806114f357506114f36000610599612271565b61150f5760405162461bcd60e51b81526004016106fa90613091565b6115397fbd68ab95cda3c90ac0bffc2b3a3a97a564372fc3ca4a8e4575d3ce58179b756384611ebe565b610b3e57600254610b2f670de0b6b3a76400008461316e565b60008051602061328383398151915281565b6060611580600080516020613283833981519152610599612271565b8061159357506115936000610599612271565b6115af5760405162461bcd60e51b81526004016106fa90613091565b60008267ffffffffffffffff8111156115d857634e487b7160e01b600052604160045260246000fd5b60405190808252806020026020018201604052801561161157816020015b6115fe612926565b8152602001906001900390816115f65790505b50905060005b8381101561170857604051806040016040528086868481811061164a57634e487b7160e01b600052603260045260246000fd5b905060200201602081019061165f91906129d5565b6001600160a01b031681526020016003600088888681811061169157634e487b7160e01b600052603260045260246000fd5b90506020020160208101906116a691906129d5565b6001600160a01b03166001600160a01b03168152602001908152602001600020548152508282815181106116ea57634e487b7160e01b600052603260045260246000fd5b60200260200101819052508080611700906131e7565b915050611617565b509392505050565b61171d6000610599612271565b6117395760405162461bcd60e51b81526004016106fa90612f7d565b600c94909455600b92909255600a55600d55600e55565b600d5481565b61175e61293d565b611778600080516020613283833981519152610599612271565b8061178b575061178b6000610599612271565b6117a75760405162461bcd60e51b81526004016106fa90613091565b6002546000906117c3670de0b6b3a7640000604086013561316e565b6117cd919061315a565b600f54909150610100900460ff1680156117f357506011546117f1826103e861316e565b105b61180f5760405162461bcd60e51b81526004016106fa90612e97565b80836060013510156118335760405162461bcd60e51b81526004016106fa90612fa7565b600181116118535760405162461bcd60e51b81526004016106fa90612f29565b600061187460008051602061326383398151915261059960208701876129d5565b806118d1575060135443906012600061189060208901896129d5565b6001600160a01b031681526020810191909152604001600020546118b49190613142565b1080156118d157506118d16118cc60208601866129d5565b612340565b801561196257506118fa60008051602061326383398151915261059960408701602088016129d5565b8061196257506014544390601260006119196040890160208a016129d5565b6001600160a01b03166001600160a01b03168152602001908152602001600020600101546119479190613142565b10801561196257506119626118cc60408601602087016129d5565b15611b775761198660008051602061324383398151915261059960208701876129d5565b806119ae57506119ae60008051602061324383398151915261059960408701602088016129d5565b15611ab55760006006816119c860408801602089016129d5565b6001600160a01b03166001600160a01b031681526020019081526020016000205460066000876000016020810190611a0091906129d5565b6001600160a01b03166001600160a01b031681526020019081526020016000205410611a605760066000611a3a60408801602089016129d5565b6001600160a01b03166001600160a01b0316815260200190815260200160002054611a93565b60066000611a7160208801886129d5565b6001600160a01b03166001600160a01b03168152602001908152602001600020545b9050620f4240611aa3828561316e565b611aad919061315a565b915050611b72565b6000600581611ac760208801886129d5565b6001600160a01b0390811682526020820192909252604001600020541614611b5357620f4240600c5483611afb919061316e565b611b05919061315a565b90508160036000611b1960208801886129d5565b6001600160a01b03166001600160a01b031681526020019081526020016000206000828254611b489190613142565b90915550611b729050565b620f4240600a5483611b65919061316e565b611b6f919061315a565b90505b611c17565b620f4240600b5483611b89919061316e565b611b93919061315a565b90506000620f4240600b548660400135611bad919061316e565b611bb7919061315a565b90507fa1a76b56d422be0a4c14ccc1281231aa006e67b6e03dcc433a873dc285491e51611be760208701876129d5565b611bf760408801602089016129d5565b876040013584604051611c0d9493929190612d34565b60405180910390a1505b6000611c23828461318d565b9050670de0b6b3a764000060025483611c3c919061316e565b611c46919061315a565b6040808601829052611c5b919087013561318d565b60608501524360126000611c756040890160208a016129d5565b6001600160a01b031681526020808201929092526040016000908120929092554391601291611ca6908901896129d5565b6001600160a01b03168152602081019190915260400160002060010155611cd183606087013561318d565b8452611ce1816080870135613142565b602085015260078054839190600090611cfb908490613142565b90915550611d0990506122c8565b505050919050565b6060611d2d600080516020613283833981519152610599612271565b80611d405750611d406000610599612271565b611d5c5760405162461bcd60e51b81526004016106fa90613091565b600083838080602002602001604051908101604052809392919081815260200183836020028082843760009201829052509394505050505b838110156117085760036000868684818110611dc057634e487b7160e01b600052603260045260246000fd5b9050602002016020810190611dd591906129d5565b6001600160a01b03168152602081019190915260400160002054611e36576000828281518110611e1557634e487b7160e01b600052603260045260246000fd5b60200260200101906001600160a01b031690816001600160a01b0316815250505b80611e40816131e7565b915050611d94565b60135481565b6000611e6a600080516020613283833981519152610599612271565b80611e7d5750611e7d6000610599612271565b611e995760405162461bcd60e51b81526004016106fa90613091565b5060105490565b600a5481565b6000828152600160205260408120610b4090836123fe565b6000918252602082815260408084206001600160a01b0393909316845291905290205460ff1690565b600c5481565b60008051602061326383398151915281565b611f0c6000610599612271565b611f285760405162461bcd60e51b81526004016106fa90612f7d565b6000611f35606443613202565b611f4790670de0b6b3a764000061316e565b905060005b82811015610fdc5781611f6782670de0b6b3a764000061316e565b611f719190613142565b60036000868685818110611f9557634e487b7160e01b600052603260045260246000fd5b9050602002016020810190611faa91906129d5565b6001600160a01b0316815260208101919091526040016000205580611fce816131e7565b915050611f4c565b60145481565b600e5481565b6000611ffe600080516020613283833981519152610599612271565b8061201157506120116000610599612271565b61202d5760405162461bcd60e51b81526004016106fa90613091565b60105460115461203d9190613142565b905090565b60008181526001602052604081206109a09061240a565b6000612075600080516020613283833981519152610599612271565b8061208857506120886000610599612271565b6120a45760405162461bcd60e51b81526004016106fa90613091565b6002546111e2670de0b6b3a76400008461316e565b600081565b60066020526000908152604090205481565b610c3e8282612415565b7fbd68ab95cda3c90ac0bffc2b3a3a97a564372fc3ca4a8e4575d3ce58179b756381565b6005602052600090815260409020546001600160a01b031681565b612133600080516020613283833981519152610599612271565b8061214657506121466000610599612271565b6121625760405162461bcd60e51b81526004016106fa90613091565b6001600160a01b0316600090815260046020526040812055565b6121896000610599612271565b6121a55760405162461bcd60e51b81526004016106fa90612f7d565b601391909155601455565b60046020526000908152604090205481565b60115481565b6121d56000610599612271565b6121f15760405162461bcd60e51b81526004016106fa90612f7d565b600955565b6122036000610599612271565b61221f5760405162461bcd60e51b81526004016106fa90612f7d565b6001600160a01b03821660009081526006602052604090208190556114b26000805160206132438339815191528361229a565b6114b28282612434565b6000610b40836001600160a01b0384166124b9565b3390565b60006001600160e01b03198216637965db0b60e01b14806109a057506109a082612503565b610b538282612252565b6122ad82610a8a565b6122be816122b9612271565b61251c565b610a588383612434565b6009546008546122d89190613142565b4211156122e7576122e7612345565b565b6122f1612271565b6001600160a01b0316816001600160a01b0316146123215760405162461bcd60e51b81526004016106fa906130c8565b6114b28282612580565b6000610b40836001600160a01b038416612603565b3b1590565b426008556007546011805460009061235e90849061318d565b90915550506007546123729060029061315a565b601060008282546123839190613142565b909155505060006007556011546010546123a590670de0b6b3a764000061316e565b6123af919061315a565b6123c190670de0b6b3a7640000613142565b60028190556040517f4dbe4840d7465bd162f67814cea0b519567a2e0e578bcde61e7f4ced361e5a3d916123f491612e26565b60405180910390a1565b6000610b408383612720565b60006109a082612758565b61241e82610a8a565b61242a816122b9612271565b610a588383612580565b61243e8282611ebe565b6114b2576000828152602081815260408083206001600160a01b03851684529091529020805460ff19166001179055612475612271565b6001600160a01b0316816001600160a01b0316837f2f8788117e7eff1d82e926ec794901d17c78024a50270940304540a733656f0d60405160405180910390a45050565b60006124c5838361275c565b6124fb57508154600181810184556000848152602080822090930184905584548482528286019093526040902091909155610b43565b506000610b43565b6001600160e01b031981166301ffc9a760e01b14919050565b6125268282611ebe565b6114b25761253e816001600160a01b03166014612774565b612549836020612774565b60405160200161255a929190612c6e565b60408051601f198184030181529082905262461bcd60e51b82526106fa91600401612e2f565b61258a8282611ebe565b156114b2576000828152602081815260408083206001600160a01b03851684529091529020805460ff191690556125bf612271565b6001600160a01b0316816001600160a01b0316837ff6391f5c32d9c69d2a47ea670b442974b53935d1edc7fd64eb21e047a839171b60405160405180910390a45050565b6000818152600183016020526040812054801561271657600061262760018361318d565b855490915060009061263b9060019061318d565b90508181146126bc57600086600001828154811061266957634e487b7160e01b600052603260045260246000fd5b906000526020600020015490508087600001848154811061269a57634e487b7160e01b600052603260045260246000fd5b6000918252602080832090910192909255918252600188019052604090208390555b85548690806126db57634e487b7160e01b600052603160045260246000fd5b600190038181906000526020600020016000905590558560010160008681526020019081526020016000206000905560019350505050610b43565b6000915050610b43565b600082600001828154811061274557634e487b7160e01b600052603260045260246000fd5b9060005260206000200154905092915050565b5490565b60009081526001919091016020526040902054151590565b6060600061278383600261316e565b61278e906002613142565b67ffffffffffffffff8111156127b457634e487b7160e01b600052604160045260246000fd5b6040519080825280601f01601f1916602001820160405280156127de576020820181803683370190505b509050600360fc1b8160008151811061280757634e487b7160e01b600052603260045260246000fd5b60200101906001600160f81b031916908160001a905350600f60fb1b8160018151811061284457634e487b7160e01b600052603260045260246000fd5b60200101906001600160f81b031916908160001a905350600061286884600261316e565b612873906001613142565b90505b6001811115612907576f181899199a1a9b1b9c1cb0b131b232b360811b85600f16601081106128b557634e487b7160e01b600052603260045260246000fd5b1a60f81b8282815181106128d957634e487b7160e01b600052603260045260246000fd5b60200101906001600160f81b031916908160001a90535060049490941c93612900816131d0565b9050612876565b508315610b405760405162461bcd60e51b81526004016106fa90612e62565b604080518082019091526000808252602082015290565b6040518060800160405280600081526020016000815260200160008152602001600081525090565b80356001600160a01b03811681146109a357600080fd5b60008083601f84011261298d578182fd5b50813567ffffffffffffffff8111156129a4578182fd5b60208301915083602080830285010111156129be57600080fd5b9250929050565b803580151581146109a357600080fd5b6000602082840312156129e6578081fd5b610b4082612965565b60008060408385031215612a01578081fd5b612a0a83612965565b9150612a1860208401612965565b90509250929050565b600080600060408486031215612a35578081fd5b612a3e84612965565b9250602084013567ffffffffffffffff811115612a59578182fd5b612a658682870161297c565b9497909650939450505050565b60008060408385031215612a84578182fd5b612a8d83612965565b946020939093013593505050565b60008060208385031215612aad578182fd5b823567ffffffffffffffff811115612ac3578283fd5b612acf8582860161297c565b90969095509350505050565b60008060208385031215612aed578182fd5b823567ffffffffffffffff80821115612b04578384fd5b818501915085601f830112612b17578384fd5b813581811115612b25578485fd5b866020604083028501011115612b39578485fd5b60209290920196919550909350505050565b600060208284031215612b5c578081fd5b610b40826129c5565b600080600060608486031215612b79578283fd5b612b82846129c5565b9250612b9060208501612965565b9150604084013590509250925092565b600060208284031215612bb1578081fd5b5035919050565b60008060408385031215612bca578182fd5b82359150612a1860208401612965565b60008060408385031215612bec578182fd5b50508035926020909101359150565b600060208284031215612c0c578081fd5b81356001600160e01b031981168114610b40578182fd5b600060a08284031215610b3e578081fd5b600080600080600060a08688031215612c4b578283fd5b505083359560208501359550604085013594606081013594506080013592509050565b60007f416363657373436f6e74726f6c3a206163636f756e742000000000000000000082528351612ca68160178501602088016131a4565b7001034b99036b4b9b9b4b733903937b6329607d1b6017918401918201528351612cd78160288401602088016131a4565b01602801949350505050565b6001600160a01b0391909116815260200190565b6001600160a01b0392831681529116602082015260400190565b6001600160a01b0393841681529183166020830152909116604082015260600190565b6001600160a01b0394851681529290931660208301526040820152606081019190915260800190565b6001600160a01b03929092168252602082015260400190565b6020808252825182820181905260009190848201906040850190845b81811015612db75783516001600160a01b031683529284019291840191600101612d92565b50909695505050505050565b602080825282518282018190526000919060409081850190868401855b82811015612e0e57815180516001600160a01b03168552860151868501529284019290850190600101612de0565b5091979650505050505050565b901515815260200190565b90815260200190565b6000602082528251806020840152612e4e8160408501602087016131a4565b601f01601f19169190910160400192915050565b6020808252818101527f537472696e67733a20686578206c656e67746820696e73756666696369656e74604082015260600190565b60208082526048908201527f4e42543a20416e74695768616c652070726f74656374696f6e20697320656e6160408201527f626c6564202d20302e3125206f662077686f6c6520737570706c7920706572206060820152673a3930b739b332b960c11b608082015260a00190565b6020808252600a90820152691390950e88085dd7d8dd60b21b604082015260600190565b6020808252600c908201526b1390950e8808585b5bdd5b9d60a21b604082015260600190565b6020808252601490820152734e42543a20216163636f756e7442616c616e636560601b604082015260600190565b60208082526010908201526f27212a1d1010a927a622afa0a226a4a760811b604082015260600190565b6020808252600d908201526c4e42543a202162616c616e636560981b604082015260600190565b6020808252600e908201526d1390950e880858dbdb9d1c9858dd60921b604082015260600190565b6020808252600e908201526d27212a1d1010b9b2b6332fb932b360911b604082015260600190565b6020808252600b908201526a27212a1d1010b43ab6b0b760a91b604082015260600190565b6020808252600a908201526927212a1d1010b13ab93760b11b604082015260600190565b60208082526010908201526f27212a1d1010b6baba3ab0b62fb932b360811b604082015260600190565b6020808252601a908201527f4e42543a2021524f4c455f504152454e545f4f525f41444d494e000000000000604082015260600190565b6020808252602f908201527f416363657373436f6e74726f6c3a2063616e206f6e6c792072656e6f756e636560408201526e103937b632b9903337b91039b2b63360891b606082015260800190565b8151815260208083015190820152604080830151908201526060918201519181019190915260800190565b6000821982111561315557613155613216565b500190565b6000826131695761316961322c565b500490565b600081600019048311821515161561318857613188613216565b500290565b60008282101561319f5761319f613216565b500390565b60005b838110156131bf5781810151838201526020016131a7565b83811115610fdc5750506000910152565b6000816131df576131df613216565b506000190190565b60006000198214156131fb576131fb613216565b5060010190565b6000826132115761321161322c565b500690565b634e487b7160e01b600052601160045260246000fd5b634e487b7160e01b600052601260045260246000fdfeee11097cbb9c334ec21a7934061732a460df1edb6b52f0b9464feea55dd71bffd27488087fca693adcf8b477ec0ca6cf5134d7f124fdc511eb258522c40fd72bc869e1d528fd91a06036810c7f025f082e044b8f0374c3d1d4b1fb5490dd90aea2646970667358221220a18dc36098a33894ca58f0a3609ac6ceb59a956349c8020e88ce918668866de064736f6c63430008010033",
			"opcodes": "PUSH1 0x80 PUSH1 0x40 MSTORE PUSH8 0xDE0B6B3A7640000 PUSH1 0x2 SSTORE TIMESTAMP PUSH1 0x8 SSTORE PUSH2 0x258 PUSH1 0x9 SSTORE PUSH3 0x186A0 PUSH1 0xA SSTORE PUSH3 0xF1B30 PUSH1 0xB SSTORE PUSH2 0x1388 PUSH1 0xC SSTORE PUSH2 0x3E8 PUSH1 0xD SSTORE PUSH1 0xFA PUSH1 0xE SSTORE PUSH1 0xF DUP1 SLOAD PUSH2 0xFFFF NOT AND PUSH2 0x100 OR SWAP1 SSTORE PUSH1 0x0 PUSH1 0x13 DUP2 SWAP1 SSTORE PUSH1 0x14 SSTORE CALLVALUE DUP1 ISZERO PUSH3 0x5F JUMPI PUSH1 0x0 DUP1 REVERT JUMPDEST POP PUSH3 0x76 PUSH1 0x0 PUSH3 0x70 PUSH3 0x7C JUMP JUMPDEST PUSH3 0x80 JUMP JUMPDEST PUSH3 0x20D JUMP JUMPDEST CALLER SWAP1 JUMP JUMPDEST PUSH3 0x97 DUP3 DUP3 PUSH3 0xC3 PUSH1 0x20 SHL PUSH3 0x2252 OR PUSH1 0x20 SHR JUMP JUMPDEST PUSH1 0x0 DUP3 DUP2 MSTORE PUSH1 0x1 PUSH1 0x20 SWAP1 DUP2 MSTORE PUSH1 0x40 SWAP1 SWAP2 KECCAK256 PUSH3 0xBE SWAP2 DUP4 SWAP1 PUSH3 0x225C PUSH3 0xD3 DUP3 SHL OR SWAP1 SHR JUMP JUMPDEST POP POP POP JUMP JUMPDEST PUSH3 0xCF DUP3 DUP3 PUSH3 0xF3 JUMP JUMPDEST POP POP JUMP JUMPDEST PUSH1 0x0 PUSH3 0xEA DUP4 PUSH1 0x1 PUSH1 0x1 PUSH1 0xA0 SHL SUB DUP5 AND PUSH3 0x17D JUMP JUMPDEST SWAP1 POP JUMPDEST SWAP3 SWAP2 POP POP JUMP JUMPDEST PUSH3 0xFF DUP3 DUP3 PUSH3 0x1CC JUMP JUMPDEST PUSH3 0xCF JUMPI PUSH1 0x0 DUP3 DUP2 MSTORE PUSH1 0x20 DUP2 DUP2 MSTORE PUSH1 0x40 DUP1 DUP4 KECCAK256 PUSH1 0x1 PUSH1 0x1 PUSH1 0xA0 SHL SUB DUP6 AND DUP5 MSTORE SWAP1 SWAP2 MSTORE SWAP1 KECCAK256 DUP1 SLOAD PUSH1 0xFF NOT AND PUSH1 0x1 OR SWAP1 SSTORE PUSH3 0x139 PUSH3 0x7C JUMP JUMPDEST PUSH1 0x1 PUSH1 0x1 PUSH1 0xA0 SHL SUB AND DUP2 PUSH1 0x1 PUSH1 0x1 PUSH1 0xA0 SHL SUB AND DUP4 PUSH32 0x2F8788117E7EFF1D82E926EC794901D17C78024A50270940304540A733656F0D PUSH1 0x40 MLOAD PUSH1 0x40 MLOAD DUP1 SWAP2 SUB SWAP1 LOG4 POP POP JUMP JUMPDEST PUSH1 0x0 PUSH3 0x18B DUP4 DUP4 PUSH3 0x1F5 JUMP JUMPDEST PUSH3 0x1C3 JUMPI POP DUP2 SLOAD PUSH1 0x1 DUP2 DUP2 ADD DUP5 SSTORE PUSH1 0x0 DUP5 DUP2 MSTORE PUSH1 0x20 DUP1 DUP3 KECCAK256 SWAP1 SWAP4 ADD DUP5 SWAP1 SSTORE DUP5 SLOAD DUP5 DUP3 MSTORE DUP3 DUP7 ADD SWAP1 SWAP4 MSTORE PUSH1 0x40 SWAP1 KECCAK256 SWAP2 SWAP1 SWAP2 SSTORE PUSH3 0xED JUMP JUMPDEST POP PUSH1 0x0 PUSH3 0xED JUMP JUMPDEST PUSH1 0x0 SWAP2 DUP3 MSTORE PUSH1 0x20 DUP3 DUP2 MSTORE PUSH1 0x40 DUP1 DUP5 KECCAK256 PUSH1 0x1 PUSH1 0x1 PUSH1 0xA0 SHL SUB SWAP4 SWAP1 SWAP4 AND DUP5 MSTORE SWAP2 SWAP1 MSTORE SWAP1 KECCAK256 SLOAD PUSH1 0xFF AND SWAP1 JUMP JUMPDEST PUSH1 0x0 SWAP1 DUP2 MSTORE PUSH1 0x1 SWAP2 SWAP1 SWAP2 ADD PUSH1 0x20 MSTORE PUSH1 0x40 SWAP1 KECCAK256 SLOAD ISZERO ISZERO SWAP1 JUMP JUMPDEST PUSH2 0x32D8 DUP1 PUSH3 0x21D PUSH1 0x0 CODECOPY PUSH1 0x0 RETURN INVALID PUSH1 0x80 PUSH1 0x40 MSTORE CALLVALUE DUP1 ISZERO PUSH2 0x10 JUMPI PUSH1 0x0 DUP1 REVERT JUMPDEST POP PUSH1 0x4 CALLDATASIZE LT PUSH2 0x341 JUMPI PUSH1 0x0 CALLDATALOAD PUSH1 0xE0 SHR DUP1 PUSH4 0x7B197233 GT PUSH2 0x1B8 JUMPI DUP1 PUSH4 0xC4E41B22 GT PUSH2 0x104 JUMPI DUP1 PUSH4 0xDEAF0FA1 GT PUSH2 0xA2 JUMPI DUP1 PUSH4 0xE91C4652 GT PUSH2 0x7C JUMPI DUP1 PUSH4 0xE91C4652 EQ PUSH2 0x66E JUMPI DUP1 PUSH4 0xEF356A79 EQ PUSH2 0x681 JUMPI DUP1 PUSH4 0xEF357DF1 EQ PUSH2 0x689 JUMPI DUP1 PUSH4 0xFC087572 EQ PUSH2 0x69C JUMPI PUSH2 0x341 JUMP JUMPDEST DUP1 PUSH4 0xDEAF0FA1 EQ PUSH2 0x635 JUMPI DUP1 PUSH4 0xE3556819 EQ PUSH2 0x648 JUMPI DUP1 PUSH4 0xE69594E3 EQ PUSH2 0x65B JUMPI PUSH2 0x341 JUMP JUMPDEST DUP1 PUSH4 0xD391014B GT PUSH2 0xDE JUMPI DUP1 PUSH4 0xD391014B EQ PUSH2 0x5FF JUMPI DUP1 PUSH4 0xD415A82D EQ PUSH2 0x607 JUMPI DUP1 PUSH4 0xD547741F EQ PUSH2 0x61A JUMPI DUP1 PUSH4 0xD590B71E EQ PUSH2 0x62D JUMPI PUSH2 0x341 JUMP JUMPDEST DUP1 PUSH4 0xC4E41B22 EQ PUSH2 0x5D1 JUMPI DUP1 PUSH4 0xCA15C873 EQ PUSH2 0x5D9 JUMPI DUP1 PUSH4 0xCB123637 EQ PUSH2 0x5EC JUMPI PUSH2 0x341 JUMP JUMPDEST DUP1 PUSH4 0x9010D07C GT PUSH2 0x171 JUMPI DUP1 PUSH4 0x9E01E31C GT PUSH2 0x14B JUMPI DUP1 PUSH4 0x9E01E31C EQ PUSH2 0x5A6 JUMPI DUP1 PUSH4 0xA5C9B607 EQ PUSH2 0x5AE JUMPI DUP1 PUSH4 0xAA46D678 EQ PUSH2 0x5C1 JUMPI DUP1 PUSH4 0xB3830C8C EQ PUSH2 0x5C9 JUMPI PUSH2 0x341 JUMP JUMPDEST DUP1 PUSH4 0x9010D07C EQ PUSH2 0x56B JUMPI DUP1 PUSH4 0x91D14854 EQ PUSH2 0x58B JUMPI DUP1 PUSH4 0x975EA108 EQ PUSH2 0x59E JUMPI PUSH2 0x341 JUMP JUMPDEST DUP1 PUSH4 0x7B197233 EQ PUSH2 0x50B JUMPI DUP1 PUSH4 0x815A61E0 EQ PUSH2 0x513 JUMPI DUP1 PUSH4 0x82E17B65 EQ PUSH2 0x533 JUMPI DUP1 PUSH4 0x837376AF EQ PUSH2 0x553 JUMPI DUP1 PUSH4 0x858A135D EQ PUSH2 0x55B JUMPI DUP1 PUSH4 0x87D1F05D EQ PUSH2 0x563 JUMPI PUSH2 0x341 JUMP JUMPDEST DUP1 PUSH4 0x36568ABE GT PUSH2 0x292 JUMPI DUP1 PUSH4 0x503A77AE GT PUSH2 0x230 JUMPI DUP1 PUSH4 0x5CDBA003 GT PUSH2 0x20A JUMPI DUP1 PUSH4 0x5CDBA003 EQ PUSH2 0x4BD JUMPI DUP1 PUSH4 0x5D8EC25F EQ PUSH2 0x4D0 JUMPI DUP1 PUSH4 0x68A2972F EQ PUSH2 0x4D8 JUMPI DUP1 PUSH4 0x6BC833F3 EQ PUSH2 0x4F8 JUMPI PUSH2 0x341 JUMP JUMPDEST DUP1 PUSH4 0x503A77AE EQ PUSH2 0x49A JUMPI DUP1 PUSH4 0x5603B9F9 EQ PUSH2 0x4A2 JUMPI DUP1 PUSH4 0x5C7FFC88 EQ PUSH2 0x4B5 JUMPI PUSH2 0x341 JUMP JUMPDEST DUP1 PUSH4 0x40142E55 GT PUSH2 0x26C JUMPI DUP1 PUSH4 0x40142E55 EQ PUSH2 0x459 JUMPI DUP1 PUSH4 0x42E58A63 EQ PUSH2 0x461 JUMPI DUP1 PUSH4 0x4AA2205D EQ PUSH2 0x474 JUMPI DUP1 PUSH4 0x4ABD991D EQ PUSH2 0x487 JUMPI PUSH2 0x341 JUMP JUMPDEST DUP1 PUSH4 0x36568ABE EQ PUSH2 0x42B JUMPI DUP1 PUSH4 0x3830551A EQ PUSH2 0x43E JUMPI DUP1 PUSH4 0x3E6E4496 EQ PUSH2 0x451 JUMPI PUSH2 0x341 JUMP JUMPDEST DUP1 PUSH4 0x1857B512 GT PUSH2 0x2FF JUMPI DUP1 PUSH4 0x2B04E840 GT PUSH2 0x2D9 JUMPI DUP1 PUSH4 0x2B04E840 EQ PUSH2 0x3EA JUMPI DUP1 PUSH4 0x2F2FF15D EQ PUSH2 0x3FD JUMPI DUP1 PUSH4 0x36098758 EQ PUSH2 0x410 JUMPI DUP1 PUSH4 0x36177818 EQ PUSH2 0x423 JUMPI PUSH2 0x341 JUMP JUMPDEST DUP1 PUSH4 0x1857B512 EQ PUSH2 0x3C7 JUMPI DUP1 PUSH4 0x241EC3BE EQ PUSH2 0x3CF JUMPI DUP1 PUSH4 0x248A9CA3 EQ PUSH2 0x3D7 JUMPI PUSH2 0x341 JUMP JUMPDEST DUP1 PUSH3 0x245783 EQ PUSH2 0x346 JUMPI DUP1 PUSH4 0x1FFC9A7 EQ PUSH2 0x36F JUMPI DUP1 PUSH4 0x3ED957F EQ PUSH2 0x38F JUMPI DUP1 PUSH4 0xF3EBE5D EQ PUSH2 0x3A4 JUMPI DUP1 PUSH4 0x131F2E53 EQ PUSH2 0x3B7 JUMPI DUP1 PUSH4 0x1336A98F EQ PUSH2 0x3BF JUMPI JUMPDEST PUSH1 0x0 DUP1 REVERT JUMPDEST PUSH2 0x359 PUSH2 0x354 CALLDATASIZE PUSH1 0x4 PUSH2 0x2A21 JUMP JUMPDEST PUSH2 0x6AF JUMP JUMPDEST PUSH1 0x40 MLOAD PUSH2 0x366 SWAP2 SWAP1 PUSH2 0x2E26 JUMP JUMPDEST PUSH1 0x40 MLOAD DUP1 SWAP2 SUB SWAP1 RETURN JUMPDEST PUSH2 0x382 PUSH2 0x37D CALLDATASIZE PUSH1 0x4 PUSH2 0x2BFB JUMP JUMPDEST PUSH2 0x97B JUMP JUMPDEST PUSH1 0x40 MLOAD PUSH2 0x366 SWAP2 SWAP1 PUSH2 0x2E1B JUMP JUMPDEST PUSH2 0x3A2 PUSH2 0x39D CALLDATASIZE PUSH1 0x4 PUSH2 0x2ADB JUMP JUMPDEST PUSH2 0x9A8 JUMP JUMPDEST STOP JUMPDEST PUSH2 0x359 PUSH2 0x3B2 CALLDATASIZE PUSH1 0x4 PUSH2 0x29D5 JUMP JUMPDEST PUSH2 0xA5D JUMP JUMPDEST PUSH2 0x359 PUSH2 0xA6F JUMP JUMPDEST PUSH2 0x359 PUSH2 0xA75 JUMP JUMPDEST PUSH2 0x359 PUSH2 0xA7B JUMP JUMPDEST PUSH2 0x382 PUSH2 0xA81 JUMP JUMPDEST PUSH2 0x359 PUSH2 0x3E5 CALLDATASIZE PUSH1 0x4 PUSH2 0x2BA0 JUMP JUMPDEST PUSH2 0xA8A JUMP JUMPDEST PUSH2 0x359 PUSH2 0x3F8 CALLDATASIZE PUSH1 0x4 PUSH2 0x2A72 JUMP JUMPDEST PUSH2 0xA9F JUMP JUMPDEST PUSH2 0x3A2 PUSH2 0x40B CALLDATASIZE PUSH1 0x4 PUSH2 0x2BB8 JUMP JUMPDEST PUSH2 0xB49 JUMP JUMPDEST PUSH2 0x359 PUSH2 0x41E CALLDATASIZE PUSH1 0x4 PUSH2 0x2BDA JUMP JUMPDEST PUSH2 0xB6B JUMP JUMPDEST PUSH2 0x359 PUSH2 0xC2E JUMP JUMPDEST PUSH2 0x3A2 PUSH2 0x439 CALLDATASIZE PUSH1 0x4 PUSH2 0x2BB8 JUMP JUMPDEST PUSH2 0xC34 JUMP JUMPDEST PUSH2 0x3A2 PUSH2 0x44C CALLDATASIZE PUSH1 0x4 PUSH2 0x2A9B JUMP JUMPDEST PUSH2 0xC56 JUMP JUMPDEST PUSH2 0x359 PUSH2 0xFE2 JUMP JUMPDEST PUSH2 0x359 PUSH2 0xFE8 JUMP JUMPDEST PUSH2 0x359 PUSH2 0x46F CALLDATASIZE PUSH1 0x4 PUSH2 0x2B65 JUMP JUMPDEST PUSH2 0xFEE JUMP JUMPDEST PUSH2 0x3A2 PUSH2 0x482 CALLDATASIZE PUSH1 0x4 PUSH2 0x2B4B JUMP JUMPDEST PUSH2 0x112C JUMP JUMPDEST PUSH2 0x359 PUSH2 0x495 CALLDATASIZE PUSH1 0x4 PUSH2 0x29D5 JUMP JUMPDEST PUSH2 0x1168 JUMP JUMPDEST PUSH2 0x359 PUSH2 0x11EC JUMP JUMPDEST PUSH2 0x3A2 PUSH2 0x4B0 CALLDATASIZE PUSH1 0x4 PUSH2 0x29EF JUMP JUMPDEST PUSH2 0x11FE JUMP JUMPDEST PUSH2 0x382 PUSH2 0x14B6 JUMP JUMPDEST PUSH2 0x359 PUSH2 0x4CB CALLDATASIZE PUSH1 0x4 PUSH2 0x2A72 JUMP JUMPDEST PUSH2 0x14C4 JUMP JUMPDEST PUSH2 0x359 PUSH2 0x1552 JUMP JUMPDEST PUSH2 0x4EB PUSH2 0x4E6 CALLDATASIZE PUSH1 0x4 PUSH2 0x2A9B JUMP JUMPDEST PUSH2 0x1564 JUMP JUMPDEST PUSH1 0x40 MLOAD PUSH2 0x366 SWAP2 SWAP1 PUSH2 0x2DC3 JUMP JUMPDEST PUSH2 0x3A2 PUSH2 0x506 CALLDATASIZE PUSH1 0x4 PUSH2 0x2C34 JUMP JUMPDEST PUSH2 0x1710 JUMP JUMPDEST PUSH2 0x359 PUSH2 0x1750 JUMP JUMPDEST PUSH2 0x526 PUSH2 0x521 CALLDATASIZE PUSH1 0x4 PUSH2 0x2C23 JUMP JUMPDEST PUSH2 0x1756 JUMP JUMPDEST PUSH1 0x40 MLOAD PUSH2 0x366 SWAP2 SWAP1 PUSH2 0x3117 JUMP JUMPDEST PUSH2 0x546 PUSH2 0x541 CALLDATASIZE PUSH1 0x4 PUSH2 0x2A9B JUMP JUMPDEST PUSH2 0x1D11 JUMP JUMPDEST PUSH1 0x40 MLOAD PUSH2 0x366 SWAP2 SWAP1 PUSH2 0x2D76 JUMP JUMPDEST PUSH2 0x359 PUSH2 0x1E48 JUMP JUMPDEST PUSH2 0x359 PUSH2 0x1E4E JUMP JUMPDEST PUSH2 0x359 PUSH2 0x1EA0 JUMP JUMPDEST PUSH2 0x57E PUSH2 0x579 CALLDATASIZE PUSH1 0x4 PUSH2 0x2BDA JUMP JUMPDEST PUSH2 0x1EA6 JUMP JUMPDEST PUSH1 0x40 MLOAD PUSH2 0x366 SWAP2 SWAP1 PUSH2 0x2CE3 JUMP JUMPDEST PUSH2 0x382 PUSH2 0x599 CALLDATASIZE PUSH1 0x4 PUSH2 0x2BB8 JUMP JUMPDEST PUSH2 0x1EBE JUMP JUMPDEST PUSH2 0x359 PUSH2 0x1EE7 JUMP JUMPDEST PUSH2 0x359 PUSH2 0x1EED JUMP JUMPDEST PUSH2 0x3A2 PUSH2 0x5BC CALLDATASIZE PUSH1 0x4 PUSH2 0x2A9B JUMP JUMPDEST PUSH2 0x1EFF JUMP JUMPDEST PUSH2 0x359 PUSH2 0x1FD6 JUMP JUMPDEST PUSH2 0x359 PUSH2 0x1FDC JUMP JUMPDEST PUSH2 0x359 PUSH2 0x1FE2 JUMP JUMPDEST PUSH2 0x359 PUSH2 0x5E7 CALLDATASIZE PUSH1 0x4 PUSH2 0x2BA0 JUMP JUMPDEST PUSH2 0x2042 JUMP JUMPDEST PUSH2 0x359 PUSH2 0x5FA CALLDATASIZE PUSH1 0x4 PUSH2 0x2BA0 JUMP JUMPDEST PUSH2 0x2059 JUMP JUMPDEST PUSH2 0x359 PUSH2 0x20B9 JUMP JUMPDEST PUSH2 0x359 PUSH2 0x615 CALLDATASIZE PUSH1 0x4 PUSH2 0x29D5 JUMP JUMPDEST PUSH2 0x20BE JUMP JUMPDEST PUSH2 0x3A2 PUSH2 0x628 CALLDATASIZE PUSH1 0x4 PUSH2 0x2BB8 JUMP JUMPDEST PUSH2 0x20D0 JUMP JUMPDEST PUSH2 0x359 PUSH2 0x20DA JUMP JUMPDEST PUSH2 0x57E PUSH2 0x643 CALLDATASIZE PUSH1 0x4 PUSH2 0x29D5 JUMP JUMPDEST PUSH2 0x20FE JUMP JUMPDEST PUSH2 0x3A2 PUSH2 0x656 CALLDATASIZE PUSH1 0x4 PUSH2 0x29D5 JUMP JUMPDEST PUSH2 0x2119 JUMP JUMPDEST PUSH2 0x3A2 PUSH2 0x669 CALLDATASIZE PUSH1 0x4 PUSH2 0x2BDA JUMP JUMPDEST PUSH2 0x217C JUMP JUMPDEST PUSH2 0x359 PUSH2 0x67C CALLDATASIZE PUSH1 0x4 PUSH2 0x29D5 JUMP JUMPDEST PUSH2 0x21B0 JUMP JUMPDEST PUSH2 0x359 PUSH2 0x21C2 JUMP JUMPDEST PUSH2 0x3A2 PUSH2 0x697 CALLDATASIZE PUSH1 0x4 PUSH2 0x2BA0 JUMP JUMPDEST PUSH2 0x21C8 JUMP JUMPDEST PUSH2 0x3A2 PUSH2 0x6AA CALLDATASIZE PUSH1 0x4 PUSH2 0x2A72 JUMP JUMPDEST PUSH2 0x21F6 JUMP JUMPDEST PUSH1 0x0 PUSH2 0x6CB PUSH1 0x0 DUP1 MLOAD PUSH1 0x20 PUSH2 0x3283 DUP4 CODECOPY DUP2 MLOAD SWAP2 MSTORE PUSH2 0x599 PUSH2 0x2271 JUMP JUMPDEST DUP1 PUSH2 0x6DE JUMPI POP PUSH2 0x6DE PUSH1 0x0 PUSH2 0x599 PUSH2 0x2271 JUMP JUMPDEST PUSH2 0x703 JUMPI PUSH1 0x40 MLOAD PUSH3 0x461BCD PUSH1 0xE5 SHL DUP2 MSTORE PUSH1 0x4 ADD PUSH2 0x6FA SWAP1 PUSH2 0x3091 JUMP JUMPDEST PUSH1 0x40 MLOAD DUP1 SWAP2 SUB SWAP1 REVERT JUMPDEST PUSH1 0x1 PUSH1 0x1 PUSH1 0xA0 SHL SUB DUP5 AND PUSH1 0x0 SWAP1 DUP2 MSTORE PUSH1 0x4 PUSH1 0x20 MSTORE PUSH1 0x40 DUP2 KECCAK256 SLOAD SWAP1 DUP1 JUMPDEST DUP5 DUP2 LT ISZERO PUSH2 0x94F JUMPI PUSH1 0x3 PUSH1 0x0 DUP8 DUP8 DUP5 DUP2 DUP2 LT PUSH2 0x74B JUMPI PUSH4 0x4E487B71 PUSH1 0xE0 SHL PUSH1 0x0 MSTORE PUSH1 0x32 PUSH1 0x4 MSTORE PUSH1 0x24 PUSH1 0x0 REVERT JUMPDEST SWAP1 POP PUSH1 0x20 MUL ADD PUSH1 0x20 DUP2 ADD SWAP1 PUSH2 0x760 SWAP2 SWAP1 PUSH2 0x29D5 JUMP JUMPDEST PUSH1 0x1 PUSH1 0x1 PUSH1 0xA0 SHL SUB AND DUP2 MSTORE PUSH1 0x20 DUP2 ADD SWAP2 SWAP1 SWAP2 MSTORE PUSH1 0x40 ADD PUSH1 0x0 KECCAK256 SLOAD PUSH2 0x783 JUMPI PUSH2 0x93D JUMP JUMPDEST PUSH1 0x5 PUSH1 0x0 DUP8 DUP8 DUP5 DUP2 DUP2 LT PUSH2 0x7A7 JUMPI PUSH4 0x4E487B71 PUSH1 0xE0 SHL PUSH1 0x0 MSTORE PUSH1 0x32 PUSH1 0x4 MSTORE PUSH1 0x24 PUSH1 0x0 REVERT JUMPDEST SWAP1 POP PUSH1 0x20 MUL ADD PUSH1 0x20 DUP2 ADD SWAP1 PUSH2 0x7BC SWAP2 SWAP1 PUSH2 0x29D5 JUMP JUMPDEST PUSH1 0x1 PUSH1 0x1 PUSH1 0xA0 SHL SUB SWAP1 DUP2 AND DUP3 MSTORE PUSH1 0x20 DUP3 ADD SWAP3 SWAP1 SWAP3 MSTORE PUSH1 0x40 ADD PUSH1 0x0 KECCAK256 SLOAD AND SWAP2 POP DUP2 ISZERO PUSH2 0x93D JUMPI DUP7 PUSH1 0x1 PUSH1 0x1 PUSH1 0xA0 SHL SUB AND DUP3 PUSH1 0x1 PUSH1 0x1 PUSH1 0xA0 SHL SUB AND EQ ISZERO PUSH2 0x87D JUMPI PUSH3 0xF4240 PUSH1 0xD SLOAD PUSH1 0x3 PUSH1 0x0 DUP10 DUP10 DUP7 DUP2 DUP2 LT PUSH2 0x826 JUMPI PUSH4 0x4E487B71 PUSH1 0xE0 SHL PUSH1 0x0 MSTORE PUSH1 0x32 PUSH1 0x4 MSTORE PUSH1 0x24 PUSH1 0x0 REVERT JUMPDEST SWAP1 POP PUSH1 0x20 MUL ADD PUSH1 0x20 DUP2 ADD SWAP1 PUSH2 0x83B SWAP2 SWAP1 PUSH2 0x29D5 JUMP JUMPDEST PUSH1 0x1 PUSH1 0x1 PUSH1 0xA0 SHL SUB AND PUSH1 0x1 PUSH1 0x1 PUSH1 0xA0 SHL SUB AND DUP2 MSTORE PUSH1 0x20 ADD SWAP1 DUP2 MSTORE PUSH1 0x20 ADD PUSH1 0x0 KECCAK256 SLOAD PUSH2 0x866 SWAP2 SWAP1 PUSH2 0x316E JUMP JUMPDEST PUSH2 0x870 SWAP2 SWAP1 PUSH2 0x315A JUMP JUMPDEST PUSH2 0x87A SWAP1 DUP5 PUSH2 0x3142 JUMP JUMPDEST SWAP3 POP JUMPDEST PUSH1 0x1 PUSH1 0x1 PUSH1 0xA0 SHL SUB SWAP2 DUP3 AND PUSH1 0x0 SWAP1 DUP2 MSTORE PUSH1 0x5 PUSH1 0x20 MSTORE PUSH1 0x40 SWAP1 KECCAK256 SLOAD SWAP1 SWAP2 AND SWAP1 DUP2 ISZERO PUSH2 0x93D JUMPI DUP7 PUSH1 0x1 PUSH1 0x1 PUSH1 0xA0 SHL SUB AND DUP3 PUSH1 0x1 PUSH1 0x1 PUSH1 0xA0 SHL SUB AND EQ ISZERO PUSH2 0x93D JUMPI PUSH3 0xF4240 PUSH1 0xE SLOAD PUSH1 0x3 PUSH1 0x0 DUP10 DUP10 DUP7 DUP2 DUP2 LT PUSH2 0x8E6 JUMPI PUSH4 0x4E487B71 PUSH1 0xE0 SHL PUSH1 0x0 MSTORE PUSH1 0x32 PUSH1 0x4 MSTORE PUSH1 0x24 PUSH1 0x0 REVERT JUMPDEST SWAP1 POP PUSH1 0x20 MUL ADD PUSH1 0x20 DUP2 ADD SWAP1 PUSH2 0x8FB SWAP2 SWAP1 PUSH2 0x29D5 JUMP JUMPDEST PUSH1 0x1 PUSH1 0x1 PUSH1 0xA0 SHL SUB AND PUSH1 0x1 PUSH1 0x1 PUSH1 0xA0 SHL SUB AND DUP2 MSTORE PUSH1 0x20 ADD SWAP1 DUP2 MSTORE PUSH1 0x20 ADD PUSH1 0x0 KECCAK256 SLOAD PUSH2 0x926 SWAP2 SWAP1 PUSH2 0x316E JUMP JUMPDEST PUSH2 0x930 SWAP2 SWAP1 PUSH2 0x315A JUMP JUMPDEST PUSH2 0x93A SWAP1 DUP5 PUSH2 0x3142 JUMP JUMPDEST SWAP3 POP JUMPDEST DUP1 PUSH2 0x947 DUP2 PUSH2 0x31E7 JUMP JUMPDEST SWAP2 POP POP PUSH2 0x71F JUMP JUMPDEST POP PUSH8 0xDE0B6B3A7640000 PUSH1 0x2 SLOAD DUP4 PUSH2 0x967 SWAP2 SWAP1 PUSH2 0x316E JUMP JUMPDEST PUSH2 0x971 SWAP2 SWAP1 PUSH2 0x315A JUMP JUMPDEST SWAP7 SWAP6 POP POP POP POP POP POP JUMP JUMPDEST PUSH1 0x0 PUSH1 0x1 PUSH1 0x1 PUSH1 0xE0 SHL SUB NOT DUP3 AND PUSH4 0x5A05180F PUSH1 0xE0 SHL EQ DUP1 PUSH2 0x9A0 JUMPI POP PUSH2 0x9A0 DUP3 PUSH2 0x2275 JUMP JUMPDEST SWAP1 POP JUMPDEST SWAP2 SWAP1 POP JUMP JUMPDEST PUSH2 0x9B5 PUSH1 0x0 PUSH2 0x599 PUSH2 0x2271 JUMP JUMPDEST PUSH2 0x9D1 JUMPI PUSH1 0x40 MLOAD PUSH3 0x461BCD PUSH1 0xE5 SHL DUP2 MSTORE PUSH1 0x4 ADD PUSH2 0x6FA SWAP1 PUSH2 0x2F7D JUMP JUMPDEST PUSH1 0x0 JUMPDEST DUP2 DUP2 LT ISZERO PUSH2 0xA58 JUMPI PUSH2 0xA46 DUP4 DUP4 DUP4 DUP2 DUP2 LT PUSH2 0x9FF JUMPI PUSH4 0x4E487B71 PUSH1 0xE0 SHL PUSH1 0x0 MSTORE PUSH1 0x32 PUSH1 0x4 MSTORE PUSH1 0x24 PUSH1 0x0 REVERT JUMPDEST SWAP1 POP PUSH1 0x40 MUL ADD PUSH1 0x0 ADD CALLDATALOAD DUP5 DUP5 DUP5 DUP2 DUP2 LT PUSH2 0xA29 JUMPI PUSH4 0x4E487B71 PUSH1 0xE0 SHL PUSH1 0x0 MSTORE PUSH1 0x32 PUSH1 0x4 MSTORE PUSH1 0x24 PUSH1 0x0 REVERT JUMPDEST SWAP1 POP PUSH1 0x40 MUL ADD PUSH1 0x20 ADD PUSH1 0x20 DUP2 ADD SWAP1 PUSH2 0xA41 SWAP2 SWAP1 PUSH2 0x29D5 JUMP JUMPDEST PUSH2 0x229A JUMP JUMPDEST DUP1 PUSH2 0xA50 DUP2 PUSH2 0x31E7 JUMP JUMPDEST SWAP2 POP POP PUSH2 0x9D4 JUMP JUMPDEST POP POP POP JUMP JUMPDEST PUSH1 0x3 PUSH1 0x20 MSTORE PUSH1 0x0 SWAP1 DUP2 MSTORE PUSH1 0x40 SWAP1 KECCAK256 SLOAD DUP2 JUMP JUMPDEST PUSH1 0x10 SLOAD DUP2 JUMP JUMPDEST PUSH1 0x7 SLOAD DUP2 JUMP JUMPDEST PUSH1 0xB SLOAD DUP2 JUMP JUMPDEST PUSH1 0xF SLOAD PUSH1 0xFF AND DUP2 JUMP JUMPDEST PUSH1 0x0 SWAP1 DUP2 MSTORE PUSH1 0x20 DUP2 SWAP1 MSTORE PUSH1 0x40 SWAP1 KECCAK256 PUSH1 0x1 ADD SLOAD SWAP1 JUMP JUMPDEST PUSH1 0x0 PUSH2 0xABB PUSH1 0x0 DUP1 MLOAD PUSH1 0x20 PUSH2 0x3283 DUP4 CODECOPY DUP2 MLOAD SWAP2 MSTORE PUSH2 0x599 PUSH2 0x2271 JUMP JUMPDEST DUP1 PUSH2 0xACE JUMPI POP PUSH2 0xACE PUSH1 0x0 PUSH2 0x599 PUSH2 0x2271 JUMP JUMPDEST PUSH2 0xAEA JUMPI PUSH1 0x40 MLOAD PUSH3 0x461BCD PUSH1 0xE5 SHL DUP2 MSTORE PUSH1 0x4 ADD PUSH2 0x6FA SWAP1 PUSH2 0x3091 JUMP JUMPDEST PUSH2 0xB14 PUSH32 0xBD68AB95CDA3C90AC0BFFC2B3A3A97A564372FC3CA4A8E4575D3CE58179B7563 DUP5 PUSH2 0x1EBE JUMP JUMPDEST PUSH2 0xB3E JUMPI PUSH8 0xDE0B6B3A7640000 PUSH1 0x2 SLOAD DUP4 PUSH2 0xB2F SWAP2 SWAP1 PUSH2 0x316E JUMP JUMPDEST PUSH2 0xB39 SWAP2 SWAP1 PUSH2 0x315A JUMP JUMPDEST PUSH2 0xB40 JUMP JUMPDEST DUP2 JUMPDEST SWAP1 POP JUMPDEST SWAP3 SWAP2 POP POP JUMP JUMPDEST PUSH2 0xB53 DUP3 DUP3 PUSH2 0x22A4 JUMP JUMPDEST PUSH1 0x0 DUP3 DUP2 MSTORE PUSH1 0x1 PUSH1 0x20 MSTORE PUSH1 0x40 SWAP1 KECCAK256 PUSH2 0xA58 SWAP1 DUP3 PUSH2 0x225C JUMP JUMPDEST PUSH1 0x0 PUSH2 0xB87 PUSH1 0x0 DUP1 MLOAD PUSH1 0x20 PUSH2 0x3283 DUP4 CODECOPY DUP2 MLOAD SWAP2 MSTORE PUSH2 0x599 PUSH2 0x2271 JUMP JUMPDEST DUP1 PUSH2 0xB9A JUMPI POP PUSH2 0xB9A PUSH1 0x0 PUSH2 0x599 PUSH2 0x2271 JUMP JUMPDEST PUSH2 0xBB6 JUMPI PUSH1 0x40 MLOAD PUSH3 0x461BCD PUSH1 0xE5 SHL DUP2 MSTORE PUSH1 0x4 ADD PUSH2 0x6FA SWAP1 PUSH2 0x3091 JUMP JUMPDEST PUSH1 0x2 SLOAD PUSH1 0x0 SWAP1 PUSH2 0xBCE PUSH8 0xDE0B6B3A7640000 DUP7 PUSH2 0x316E JUMP JUMPDEST PUSH2 0xBD8 SWAP2 SWAP1 PUSH2 0x315A JUMP JUMPDEST SWAP1 POP DUP1 DUP4 LT ISZERO PUSH2 0xBFA JUMPI PUSH1 0x40 MLOAD PUSH3 0x461BCD PUSH1 0xE5 SHL DUP2 MSTORE PUSH1 0x4 ADD PUSH2 0x6FA SWAP1 PUSH2 0x2F4F JUMP JUMPDEST DUP1 PUSH1 0x7 PUSH1 0x0 DUP3 DUP3 SLOAD PUSH2 0xC0C SWAP2 SWAP1 PUSH2 0x3142 JUMP JUMPDEST SWAP1 SWAP2 SSTORE POP PUSH2 0xC1C SWAP1 POP DUP2 DUP5 PUSH2 0x318D JUMP JUMPDEST SWAP3 POP PUSH2 0xC26 PUSH2 0x22C8 JUMP JUMPDEST POP SWAP1 SWAP3 SWAP2 POP POP JUMP JUMPDEST PUSH1 0x2 SLOAD DUP2 JUMP JUMPDEST PUSH2 0xC3E DUP3 DUP3 PUSH2 0x22E9 JUMP JUMPDEST PUSH1 0x0 DUP3 DUP2 MSTORE PUSH1 0x1 PUSH1 0x20 MSTORE PUSH1 0x40 SWAP1 KECCAK256 PUSH2 0xA58 SWAP1 DUP3 PUSH2 0x232B JUMP JUMPDEST PUSH2 0xC70 PUSH1 0x0 DUP1 MLOAD PUSH1 0x20 PUSH2 0x3283 DUP4 CODECOPY DUP2 MLOAD SWAP2 MSTORE PUSH2 0x599 PUSH2 0x2271 JUMP JUMPDEST DUP1 PUSH2 0xC83 JUMPI POP PUSH2 0xC83 PUSH1 0x0 PUSH2 0x599 PUSH2 0x2271 JUMP JUMPDEST PUSH2 0xC9F JUMPI PUSH1 0x40 MLOAD PUSH3 0x461BCD PUSH1 0xE5 SHL DUP2 MSTORE PUSH1 0x4 ADD PUSH2 0x6FA SWAP1 PUSH2 0x3091 JUMP JUMPDEST PUSH1 0x0 DUP1 JUMPDEST DUP3 DUP2 LT ISZERO PUSH2 0xFDC JUMPI PUSH1 0x3 PUSH1 0x0 DUP6 DUP6 DUP5 DUP2 DUP2 LT PUSH2 0xCCF JUMPI PUSH4 0x4E487B71 PUSH1 0xE0 SHL PUSH1 0x0 MSTORE PUSH1 0x32 PUSH1 0x4 MSTORE PUSH1 0x24 PUSH1 0x0 REVERT JUMPDEST SWAP1 POP PUSH1 0x20 MUL ADD PUSH1 0x20 DUP2 ADD SWAP1 PUSH2 0xCE4 SWAP2 SWAP1 PUSH2 0x29D5 JUMP JUMPDEST PUSH1 0x1 PUSH1 0x1 PUSH1 0xA0 SHL SUB AND DUP2 MSTORE PUSH1 0x20 DUP2 ADD SWAP2 SWAP1 SWAP2 MSTORE PUSH1 0x40 ADD PUSH1 0x0 KECCAK256 SLOAD PUSH2 0xD07 JUMPI PUSH2 0xFCA JUMP JUMPDEST PUSH1 0x5 PUSH1 0x0 DUP6 DUP6 DUP5 DUP2 DUP2 LT PUSH2 0xD2B JUMPI PUSH4 0x4E487B71 PUSH1 0xE0 SHL PUSH1 0x0 MSTORE PUSH1 0x32 PUSH1 0x4 MSTORE PUSH1 0x24 PUSH1 0x0 REVERT JUMPDEST SWAP1 POP PUSH1 0x20 MUL ADD PUSH1 0x20 DUP2 ADD SWAP1 PUSH2 0xD40 SWAP2 SWAP1 PUSH2 0x29D5 JUMP JUMPDEST PUSH1 0x1 PUSH1 0x1 PUSH1 0xA0 SHL SUB SWAP1 DUP2 AND DUP3 MSTORE PUSH1 0x20 DUP3 ADD SWAP3 SWAP1 SWAP3 MSTORE PUSH1 0x40 ADD PUSH1 0x0 KECCAK256 SLOAD AND SWAP2 POP DUP2 ISZERO PUSH2 0xFCA JUMPI PUSH3 0xF4240 PUSH1 0xD SLOAD PUSH1 0x3 PUSH1 0x0 DUP8 DUP8 DUP7 DUP2 DUP2 LT PUSH2 0xD90 JUMPI PUSH4 0x4E487B71 PUSH1 0xE0 SHL PUSH1 0x0 MSTORE PUSH1 0x32 PUSH1 0x4 MSTORE PUSH1 0x24 PUSH1 0x0 REVERT JUMPDEST SWAP1 POP PUSH1 0x20 MUL ADD PUSH1 0x20 DUP2 ADD SWAP1 PUSH2 0xDA5 SWAP2 SWAP1 PUSH2 0x29D5 JUMP JUMPDEST PUSH1 0x1 PUSH1 0x1 PUSH1 0xA0 SHL SUB AND PUSH1 0x1 PUSH1 0x1 PUSH1 0xA0 SHL SUB AND DUP2 MSTORE PUSH1 0x20 ADD SWAP1 DUP2 MSTORE PUSH1 0x20 ADD PUSH1 0x0 KECCAK256 SLOAD PUSH2 0xDD0 SWAP2 SWAP1 PUSH2 0x316E JUMP JUMPDEST PUSH2 0xDDA SWAP2 SWAP1 PUSH2 0x315A JUMP JUMPDEST PUSH1 0x1 PUSH1 0x1 PUSH1 0xA0 SHL SUB DUP4 AND PUSH1 0x0 SWAP1 DUP2 MSTORE PUSH1 0x4 PUSH1 0x20 MSTORE PUSH1 0x40 DUP2 KECCAK256 DUP1 SLOAD SWAP1 SWAP2 SWAP1 PUSH2 0xE02 SWAP1 DUP5 SWAP1 PUSH2 0x3142 JUMP JUMPDEST SWAP1 SWAP2 SSTORE POP POP PUSH1 0x1 PUSH1 0x1 PUSH1 0xA0 SHL SUB DUP3 AND PUSH1 0x0 SWAP1 DUP2 MSTORE PUSH1 0x4 PUSH1 0x20 MSTORE PUSH1 0x40 SWAP1 DUP2 SWAP1 KECCAK256 SLOAD SWAP1 MLOAD PUSH32 0x7FEFF17C24ACE97134B37FF4047BE0FBA9543A1F254B3A942AD037D78FED64F7 SWAP2 PUSH2 0xE52 SWAP2 DUP6 SWAP2 SWAP1 PUSH2 0x2D5D JUMP JUMPDEST PUSH1 0x40 MLOAD DUP1 SWAP2 SUB SWAP1 LOG1 PUSH1 0x1 PUSH1 0x1 PUSH1 0xA0 SHL SUB SWAP2 DUP3 AND PUSH1 0x0 SWAP1 DUP2 MSTORE PUSH1 0x5 PUSH1 0x20 MSTORE PUSH1 0x40 SWAP1 KECCAK256 SLOAD SWAP1 SWAP2 AND SWAP1 DUP2 ISZERO PUSH2 0xF74 JUMPI PUSH3 0xF4240 PUSH1 0xE SLOAD PUSH1 0x3 PUSH1 0x0 DUP8 DUP8 DUP7 DUP2 DUP2 LT PUSH2 0xEA9 JUMPI PUSH4 0x4E487B71 PUSH1 0xE0 SHL PUSH1 0x0 MSTORE PUSH1 0x32 PUSH1 0x4 MSTORE PUSH1 0x24 PUSH1 0x0 REVERT JUMPDEST SWAP1 POP PUSH1 0x20 MUL ADD PUSH1 0x20 DUP2 ADD SWAP1 PUSH2 0xEBE SWAP2 SWAP1 PUSH2 0x29D5 JUMP JUMPDEST PUSH1 0x1 PUSH1 0x1 PUSH1 0xA0 SHL SUB AND PUSH1 0x1 PUSH1 0x1 PUSH1 0xA0 SHL SUB AND DUP2 MSTORE PUSH1 0x20 ADD SWAP1 DUP2 MSTORE PUSH1 0x20 ADD PUSH1 0x0 KECCAK256 SLOAD PUSH2 0xEE9 SWAP2 SWAP1 PUSH2 0x316E JUMP JUMPDEST PUSH2 0xEF3 SWAP2 SWAP1 PUSH2 0x315A JUMP JUMPDEST PUSH1 0x1 PUSH1 0x1 PUSH1 0xA0 SHL SUB DUP4 AND PUSH1 0x0 SWAP1 DUP2 MSTORE PUSH1 0x4 PUSH1 0x20 MSTORE PUSH1 0x40 DUP2 KECCAK256 DUP1 SLOAD SWAP1 SWAP2 SWAP1 PUSH2 0xF1B SWAP1 DUP5 SWAP1 PUSH2 0x3142 JUMP JUMPDEST SWAP1 SWAP2 SSTORE POP POP PUSH1 0x1 PUSH1 0x1 PUSH1 0xA0 SHL SUB DUP3 AND PUSH1 0x0 SWAP1 DUP2 MSTORE PUSH1 0x4 PUSH1 0x20 MSTORE PUSH1 0x40 SWAP1 DUP2 SWAP1 KECCAK256 SLOAD SWAP1 MLOAD PUSH32 0x7FEFF17C24ACE97134B37FF4047BE0FBA9543A1F254B3A942AD037D78FED64F7 SWAP2 PUSH2 0xF6B SWAP2 DUP6 SWAP2 SWAP1 PUSH2 0x2D5D JUMP JUMPDEST PUSH1 0x40 MLOAD DUP1 SWAP2 SUB SWAP1 LOG1 JUMPDEST PUSH1 0x0 PUSH1 0x3 PUSH1 0x0 DUP7 DUP7 DUP6 DUP2 DUP2 LT PUSH2 0xF9A JUMPI PUSH4 0x4E487B71 PUSH1 0xE0 SHL PUSH1 0x0 MSTORE PUSH1 0x32 PUSH1 0x4 MSTORE PUSH1 0x24 PUSH1 0x0 REVERT JUMPDEST SWAP1 POP PUSH1 0x20 MUL ADD PUSH1 0x20 DUP2 ADD SWAP1 PUSH2 0xFAF SWAP2 SWAP1 PUSH2 0x29D5 JUMP JUMPDEST PUSH1 0x1 PUSH1 0x1 PUSH1 0xA0 SHL SUB AND DUP2 MSTORE PUSH1 0x20 DUP2 ADD SWAP2 SWAP1 SWAP2 MSTORE PUSH1 0x40 ADD PUSH1 0x0 KECCAK256 SSTORE JUMPDEST DUP1 PUSH2 0xFD4 DUP2 PUSH2 0x31E7 JUMP JUMPDEST SWAP2 POP POP PUSH2 0xCA3 JUMP JUMPDEST POP POP POP POP JUMP JUMPDEST PUSH1 0x9 SLOAD DUP2 JUMP JUMPDEST PUSH1 0x8 SLOAD DUP2 JUMP JUMPDEST PUSH1 0x0 PUSH2 0x100A PUSH1 0x0 DUP1 MLOAD PUSH1 0x20 PUSH2 0x3283 DUP4 CODECOPY DUP2 MLOAD SWAP2 MSTORE PUSH2 0x599 PUSH2 0x2271 JUMP JUMPDEST DUP1 PUSH2 0x101D JUMPI POP PUSH2 0x101D PUSH1 0x0 PUSH2 0x599 PUSH2 0x2271 JUMP JUMPDEST PUSH2 0x1039 JUMPI PUSH1 0x40 MLOAD PUSH3 0x461BCD PUSH1 0xE5 SHL DUP2 MSTORE PUSH1 0x4 ADD PUSH2 0x6FA SWAP1 PUSH2 0x3091 JUMP JUMPDEST PUSH2 0x1051 PUSH1 0x0 DUP1 MLOAD PUSH1 0x20 PUSH2 0x3263 DUP4 CODECOPY DUP2 MLOAD SWAP2 MSTORE DUP5 PUSH2 0x1EBE JUMP JUMPDEST DUP1 PUSH2 0x1060 JUMPI POP PUSH2 0x1060 DUP4 PUSH2 0x2340 JUMP JUMPDEST PUSH2 0x107C JUMPI PUSH1 0x40 MLOAD PUSH3 0x461BCD PUSH1 0xE5 SHL DUP2 MSTORE PUSH1 0x4 ADD PUSH2 0x6FA SWAP1 PUSH2 0x301E JUMP JUMPDEST PUSH1 0x2 SLOAD PUSH1 0x0 SWAP1 PUSH2 0x1094 DUP5 PUSH8 0xDE0B6B3A7640000 PUSH2 0x316E JUMP JUMPDEST PUSH2 0x109E SWAP2 SWAP1 PUSH2 0x315A JUMP JUMPDEST SWAP1 POP PUSH1 0x0 PUSH2 0x10AC DUP3 DUP6 PUSH2 0x318D JUMP JUMPDEST SWAP1 POP DUP6 ISZERO PUSH2 0x10EA JUMPI DUP1 PUSH1 0x10 PUSH1 0x0 DUP3 DUP3 SLOAD PUSH2 0x10C6 SWAP2 SWAP1 PUSH2 0x3142 JUMP JUMPDEST SWAP3 POP POP DUP2 SWAP1 SSTORE POP DUP2 PUSH1 0x11 PUSH1 0x0 DUP3 DUP3 SLOAD PUSH2 0x10DF SWAP2 SWAP1 PUSH2 0x3142 JUMP JUMPDEST SWAP1 SWAP2 SSTORE POP PUSH2 0x111B SWAP1 POP JUMP JUMPDEST DUP1 PUSH1 0x10 PUSH1 0x0 DUP3 DUP3 SLOAD PUSH2 0x10FC SWAP2 SWAP1 PUSH2 0x318D JUMP JUMPDEST SWAP3 POP POP DUP2 SWAP1 SSTORE POP DUP2 PUSH1 0x11 PUSH1 0x0 DUP3 DUP3 SLOAD PUSH2 0x1115 SWAP2 SWAP1 PUSH2 0x318D JUMP JUMPDEST SWAP1 SWAP2 SSTORE POP POP JUMPDEST PUSH2 0x1123 PUSH2 0x2345 JUMP JUMPDEST POP SWAP5 SWAP4 POP POP POP POP JUMP JUMPDEST PUSH2 0x1139 PUSH1 0x0 PUSH2 0x599 PUSH2 0x2271 JUMP JUMPDEST PUSH2 0x1155 JUMPI PUSH1 0x40 MLOAD PUSH3 0x461BCD PUSH1 0xE5 SHL DUP2 MSTORE PUSH1 0x4 ADD PUSH2 0x6FA SWAP1 PUSH2 0x2F7D JUMP JUMPDEST PUSH1 0xF DUP1 SLOAD PUSH1 0xFF NOT AND SWAP2 ISZERO ISZERO SWAP2 SWAP1 SWAP2 OR SWAP1 SSTORE JUMP JUMPDEST PUSH1 0x0 PUSH2 0x1184 PUSH1 0x0 DUP1 MLOAD PUSH1 0x20 PUSH2 0x3283 DUP4 CODECOPY DUP2 MLOAD SWAP2 MSTORE PUSH2 0x599 PUSH2 0x2271 JUMP JUMPDEST DUP1 PUSH2 0x1197 JUMPI POP PUSH2 0x1197 PUSH1 0x0 PUSH2 0x599 PUSH2 0x2271 JUMP JUMPDEST PUSH2 0x11B3 JUMPI PUSH1 0x40 MLOAD PUSH3 0x461BCD PUSH1 0xE5 SHL DUP2 MSTORE PUSH1 0x4 ADD PUSH2 0x6FA SWAP1 PUSH2 0x3091 JUMP JUMPDEST PUSH1 0x2 SLOAD PUSH1 0x1 PUSH1 0x1 PUSH1 0xA0 SHL SUB DUP4 AND PUSH1 0x0 SWAP1 DUP2 MSTORE PUSH1 0x4 PUSH1 0x20 MSTORE PUSH1 0x40 SWAP1 KECCAK256 SLOAD PUSH8 0xDE0B6B3A7640000 SWAP2 PUSH2 0x11E2 SWAP2 PUSH2 0x316E JUMP JUMPDEST PUSH2 0x9A0 SWAP2 SWAP1 PUSH2 0x315A JUMP JUMPDEST PUSH1 0x0 DUP1 MLOAD PUSH1 0x20 PUSH2 0x3243 DUP4 CODECOPY DUP2 MLOAD SWAP2 MSTORE DUP2 JUMP JUMPDEST PUSH2 0x1218 PUSH1 0x0 DUP1 MLOAD PUSH1 0x20 PUSH2 0x3283 DUP4 CODECOPY DUP2 MLOAD SWAP2 MSTORE PUSH2 0x599 PUSH2 0x2271 JUMP JUMPDEST DUP1 PUSH2 0x122B JUMPI POP PUSH2 0x122B PUSH1 0x0 PUSH2 0x599 PUSH2 0x2271 JUMP JUMPDEST PUSH2 0x1247 JUMPI PUSH1 0x40 MLOAD PUSH3 0x461BCD PUSH1 0xE5 SHL DUP2 MSTORE PUSH1 0x4 ADD PUSH2 0x6FA SWAP1 PUSH2 0x3091 JUMP JUMPDEST PUSH1 0x1 PUSH1 0x1 PUSH1 0xA0 SHL SUB DUP2 AND ISZERO DUP1 ISZERO SWAP1 PUSH2 0x1267 JUMPI POP PUSH1 0x1 PUSH1 0x1 PUSH1 0xA0 SHL SUB DUP3 AND ISZERO ISZERO JUMPDEST PUSH2 0x1283 JUMPI PUSH1 0x40 MLOAD PUSH3 0x461BCD PUSH1 0xE5 SHL DUP2 MSTORE PUSH1 0x4 ADD PUSH2 0x6FA SWAP1 PUSH2 0x3043 JUMP JUMPDEST DUP2 PUSH1 0x1 PUSH1 0x1 PUSH1 0xA0 SHL SUB AND DUP2 PUSH1 0x1 PUSH1 0x1 PUSH1 0xA0 SHL SUB AND EQ ISZERO PUSH2 0x12B5 JUMPI PUSH1 0x40 MLOAD PUSH3 0x461BCD PUSH1 0xE5 SHL DUP2 MSTORE PUSH1 0x4 ADD PUSH2 0x6FA SWAP1 PUSH2 0x2FF6 JUMP JUMPDEST PUSH1 0x1 PUSH1 0x1 PUSH1 0xA0 SHL SUB DUP1 DUP4 AND PUSH1 0x0 SWAP1 DUP2 MSTORE PUSH1 0x5 PUSH1 0x20 MSTORE PUSH1 0x40 SWAP1 KECCAK256 SLOAD DUP3 DUP3 AND SWAP2 AND EQ DUP1 ISZERO SWAP1 PUSH2 0x12FF JUMPI POP PUSH1 0x1 PUSH1 0x1 PUSH1 0xA0 SHL SUB DUP1 DUP3 AND PUSH1 0x0 SWAP1 DUP2 MSTORE PUSH1 0x5 PUSH1 0x20 MSTORE PUSH1 0x40 SWAP1 KECCAK256 SLOAD DUP4 DUP3 AND SWAP2 AND EQ ISZERO JUMPDEST PUSH2 0x131B JUMPI PUSH1 0x40 MLOAD PUSH3 0x461BCD PUSH1 0xE5 SHL DUP2 MSTORE PUSH1 0x4 ADD PUSH2 0x6FA SWAP1 PUSH2 0x3067 JUMP JUMPDEST PUSH2 0x1324 DUP3 PUSH2 0x2340 JUMP JUMPDEST DUP1 ISZERO PUSH2 0x1334 JUMPI POP PUSH2 0x1334 DUP2 PUSH2 0x2340 JUMP JUMPDEST PUSH2 0x1350 JUMPI PUSH1 0x40 MLOAD PUSH3 0x461BCD PUSH1 0xE5 SHL DUP2 MSTORE PUSH1 0x4 ADD PUSH2 0x6FA SWAP1 PUSH2 0x2FCE JUMP JUMPDEST PUSH2 0x1368 PUSH1 0x0 DUP1 MLOAD PUSH1 0x20 PUSH2 0x3263 DUP4 CODECOPY DUP2 MLOAD SWAP2 MSTORE DUP4 PUSH2 0x1EBE JUMP JUMPDEST ISZERO DUP1 ISZERO PUSH2 0x138A JUMPI POP PUSH2 0x1388 PUSH1 0x0 DUP1 MLOAD PUSH1 0x20 PUSH2 0x3263 DUP4 CODECOPY DUP2 MLOAD SWAP2 MSTORE DUP3 PUSH2 0x1EBE JUMP JUMPDEST ISZERO JUMPDEST DUP1 ISZERO PUSH2 0x13AB JUMPI POP PUSH2 0x13A9 PUSH1 0x0 DUP1 MLOAD PUSH1 0x20 PUSH2 0x3243 DUP4 CODECOPY DUP2 MLOAD SWAP2 MSTORE DUP4 PUSH2 0x1EBE JUMP JUMPDEST ISZERO JUMPDEST DUP1 ISZERO PUSH2 0x13CC JUMPI POP PUSH2 0x13CA PUSH1 0x0 DUP1 MLOAD PUSH1 0x20 PUSH2 0x3243 DUP4 CODECOPY DUP2 MLOAD SWAP2 MSTORE DUP3 PUSH2 0x1EBE JUMP JUMPDEST ISZERO JUMPDEST PUSH2 0x13E8 JUMPI PUSH1 0x40 MLOAD PUSH3 0x461BCD PUSH1 0xE5 SHL DUP2 MSTORE PUSH1 0x4 ADD PUSH2 0x6FA SWAP1 PUSH2 0x2F05 JUMP JUMPDEST PUSH1 0x1 PUSH1 0x1 PUSH1 0xA0 SHL SUB DUP3 DUP2 AND PUSH1 0x0 SWAP1 DUP2 MSTORE PUSH1 0x5 PUSH1 0x20 MSTORE PUSH1 0x40 SWAP1 KECCAK256 DUP1 SLOAD PUSH1 0x1 PUSH1 0x1 PUSH1 0xA0 SHL SUB NOT AND DUP4 DUP4 AND OR SWAP1 DUP2 SWAP1 SSTORE AND ISZERO PUSH2 0x1478 JUMPI PUSH1 0x1 PUSH1 0x1 PUSH1 0xA0 SHL SUB DUP1 DUP4 AND PUSH1 0x0 SWAP1 DUP2 MSTORE PUSH1 0x5 PUSH1 0x20 MSTORE PUSH1 0x40 SWAP1 DUP2 SWAP1 KECCAK256 SLOAD SWAP1 MLOAD PUSH32 0xCCAA6F8DCAB99AE301B4462B3DEB302E91A54F1AD24A0887BE7649303509CD28 SWAP3 PUSH2 0x146B SWAP3 DUP7 SWAP3 SWAP2 AND SWAP1 DUP6 SWAP1 PUSH2 0x2D11 JUMP JUMPDEST PUSH1 0x40 MLOAD DUP1 SWAP2 SUB SWAP1 LOG1 PUSH2 0x14B2 JUMP JUMPDEST PUSH32 0x5F1CA2FCC108B751843A763E60D2201F593516109D7DBB1B700468F2D4190BB7 DUP3 DUP3 PUSH1 0x40 MLOAD PUSH2 0x14A9 SWAP3 SWAP2 SWAP1 PUSH2 0x2CF7 JUMP JUMPDEST PUSH1 0x40 MLOAD DUP1 SWAP2 SUB SWAP1 LOG1 JUMPDEST POP POP JUMP JUMPDEST PUSH1 0xF SLOAD PUSH2 0x100 SWAP1 DIV PUSH1 0xFF AND DUP2 JUMP JUMPDEST PUSH1 0x0 PUSH2 0x14E0 PUSH1 0x0 DUP1 MLOAD PUSH1 0x20 PUSH2 0x3283 DUP4 CODECOPY DUP2 MLOAD SWAP2 MSTORE PUSH2 0x599 PUSH2 0x2271 JUMP JUMPDEST DUP1 PUSH2 0x14F3 JUMPI POP PUSH2 0x14F3 PUSH1 0x0 PUSH2 0x599 PUSH2 0x2271 JUMP JUMPDEST PUSH2 0x150F JUMPI PUSH1 0x40 MLOAD PUSH3 0x461BCD PUSH1 0xE5 SHL DUP2 MSTORE PUSH1 0x4 ADD PUSH2 0x6FA SWAP1 PUSH2 0x3091 JUMP JUMPDEST PUSH2 0x1539 PUSH32 0xBD68AB95CDA3C90AC0BFFC2B3A3A97A564372FC3CA4A8E4575D3CE58179B7563 DUP5 PUSH2 0x1EBE JUMP JUMPDEST PUSH2 0xB3E JUMPI PUSH1 0x2 SLOAD PUSH2 0xB2F PUSH8 0xDE0B6B3A7640000 DUP5 PUSH2 0x316E JUMP JUMPDEST PUSH1 0x0 DUP1 MLOAD PUSH1 0x20 PUSH2 0x3283 DUP4 CODECOPY DUP2 MLOAD SWAP2 MSTORE DUP2 JUMP JUMPDEST PUSH1 0x60 PUSH2 0x1580 PUSH1 0x0 DUP1 MLOAD PUSH1 0x20 PUSH2 0x3283 DUP4 CODECOPY DUP2 MLOAD SWAP2 MSTORE PUSH2 0x599 PUSH2 0x2271 JUMP JUMPDEST DUP1 PUSH2 0x1593 JUMPI POP PUSH2 0x1593 PUSH1 0x0 PUSH2 0x599 PUSH2 0x2271 JUMP JUMPDEST PUSH2 0x15AF JUMPI PUSH1 0x40 MLOAD PUSH3 0x461BCD PUSH1 0xE5 SHL DUP2 MSTORE PUSH1 0x4 ADD PUSH2 0x6FA SWAP1 PUSH2 0x3091 JUMP JUMPDEST PUSH1 0x0 DUP3 PUSH8 0xFFFFFFFFFFFFFFFF DUP2 GT ISZERO PUSH2 0x15D8 JUMPI PUSH4 0x4E487B71 PUSH1 0xE0 SHL PUSH1 0x0 MSTORE PUSH1 0x41 PUSH1 0x4 MSTORE PUSH1 0x24 PUSH1 0x0 REVERT JUMPDEST PUSH1 0x40 MLOAD SWAP1 DUP1 DUP3 MSTORE DUP1 PUSH1 0x20 MUL PUSH1 0x20 ADD DUP3 ADD PUSH1 0x40 MSTORE DUP1 ISZERO PUSH2 0x1611 JUMPI DUP2 PUSH1 0x20 ADD JUMPDEST PUSH2 0x15FE PUSH2 0x2926 JUMP JUMPDEST DUP2 MSTORE PUSH1 0x20 ADD SWAP1 PUSH1 0x1 SWAP1 SUB SWAP1 DUP2 PUSH2 0x15F6 JUMPI SWAP1 POP JUMPDEST POP SWAP1 POP PUSH1 0x0 JUMPDEST DUP4 DUP2 LT ISZERO PUSH2 0x1708 JUMPI PUSH1 0x40 MLOAD DUP1 PUSH1 0x40 ADD PUSH1 0x40 MSTORE DUP1 DUP7 DUP7 DUP5 DUP2 DUP2 LT PUSH2 0x164A JUMPI PUSH4 0x4E487B71 PUSH1 0xE0 SHL PUSH1 0x0 MSTORE PUSH1 0x32 PUSH1 0x4 MSTORE PUSH1 0x24 PUSH1 0x0 REVERT JUMPDEST SWAP1 POP PUSH1 0x20 MUL ADD PUSH1 0x20 DUP2 ADD SWAP1 PUSH2 0x165F SWAP2 SWAP1 PUSH2 0x29D5 JUMP JUMPDEST PUSH1 0x1 PUSH1 0x1 PUSH1 0xA0 SHL SUB AND DUP2 MSTORE PUSH1 0x20 ADD PUSH1 0x3 PUSH1 0x0 DUP9 DUP9 DUP7 DUP2 DUP2 LT PUSH2 0x1691 JUMPI PUSH4 0x4E487B71 PUSH1 0xE0 SHL PUSH1 0x0 MSTORE PUSH1 0x32 PUSH1 0x4 MSTORE PUSH1 0x24 PUSH1 0x0 REVERT JUMPDEST SWAP1 POP PUSH1 0x20 MUL ADD PUSH1 0x20 DUP2 ADD SWAP1 PUSH2 0x16A6 SWAP2 SWAP1 PUSH2 0x29D5 JUMP JUMPDEST PUSH1 0x1 PUSH1 0x1 PUSH1 0xA0 SHL SUB AND PUSH1 0x1 PUSH1 0x1 PUSH1 0xA0 SHL SUB AND DUP2 MSTORE PUSH1 0x20 ADD SWAP1 DUP2 MSTORE PUSH1 0x20 ADD PUSH1 0x0 KECCAK256 SLOAD DUP2 MSTORE POP DUP3 DUP3 DUP2 MLOAD DUP2 LT PUSH2 0x16EA JUMPI PUSH4 0x4E487B71 PUSH1 0xE0 SHL PUSH1 0x0 MSTORE PUSH1 0x32 PUSH1 0x4 MSTORE PUSH1 0x24 PUSH1 0x0 REVERT JUMPDEST PUSH1 0x20 MUL PUSH1 0x20 ADD ADD DUP2 SWAP1 MSTORE POP DUP1 DUP1 PUSH2 0x1700 SWAP1 PUSH2 0x31E7 JUMP JUMPDEST SWAP2 POP POP PUSH2 0x1617 JUMP JUMPDEST POP SWAP4 SWAP3 POP POP POP JUMP JUMPDEST PUSH2 0x171D PUSH1 0x0 PUSH2 0x599 PUSH2 0x2271 JUMP JUMPDEST PUSH2 0x1739 JUMPI PUSH1 0x40 MLOAD PUSH3 0x461BCD PUSH1 0xE5 SHL DUP2 MSTORE PUSH1 0x4 ADD PUSH2 0x6FA SWAP1 PUSH2 0x2F7D JUMP JUMPDEST PUSH1 0xC SWAP5 SWAP1 SWAP5 SSTORE PUSH1 0xB SWAP3 SWAP1 SWAP3 SSTORE PUSH1 0xA SSTORE PUSH1 0xD SSTORE PUSH1 0xE SSTORE JUMP JUMPDEST PUSH1 0xD SLOAD DUP2 JUMP JUMPDEST PUSH2 0x175E PUSH2 0x293D JUMP JUMPDEST PUSH2 0x1778 PUSH1 0x0 DUP1 MLOAD PUSH1 0x20 PUSH2 0x3283 DUP4 CODECOPY DUP2 MLOAD SWAP2 MSTORE PUSH2 0x599 PUSH2 0x2271 JUMP JUMPDEST DUP1 PUSH2 0x178B JUMPI POP PUSH2 0x178B PUSH1 0x0 PUSH2 0x599 PUSH2 0x2271 JUMP JUMPDEST PUSH2 0x17A7 JUMPI PUSH1 0x40 MLOAD PUSH3 0x461BCD PUSH1 0xE5 SHL DUP2 MSTORE PUSH1 0x4 ADD PUSH2 0x6FA SWAP1 PUSH2 0x3091 JUMP JUMPDEST PUSH1 0x2 SLOAD PUSH1 0x0 SWAP1 PUSH2 0x17C3 PUSH8 0xDE0B6B3A7640000 PUSH1 0x40 DUP7 ADD CALLDATALOAD PUSH2 0x316E JUMP JUMPDEST PUSH2 0x17CD SWAP2 SWAP1 PUSH2 0x315A JUMP JUMPDEST PUSH1 0xF SLOAD SWAP1 SWAP2 POP PUSH2 0x100 SWAP1 DIV PUSH1 0xFF AND DUP1 ISZERO PUSH2 0x17F3 JUMPI POP PUSH1 0x11 SLOAD PUSH2 0x17F1 DUP3 PUSH2 0x3E8 PUSH2 0x316E JUMP JUMPDEST LT JUMPDEST PUSH2 0x180F JUMPI PUSH1 0x40 MLOAD PUSH3 0x461BCD PUSH1 0xE5 SHL DUP2 MSTORE PUSH1 0x4 ADD PUSH2 0x6FA SWAP1 PUSH2 0x2E97 JUMP JUMPDEST DUP1 DUP4 PUSH1 0x60 ADD CALLDATALOAD LT ISZERO PUSH2 0x1833 JUMPI PUSH1 0x40 MLOAD PUSH3 0x461BCD PUSH1 0xE5 SHL DUP2 MSTORE PUSH1 0x4 ADD PUSH2 0x6FA SWAP1 PUSH2 0x2FA7 JUMP JUMPDEST PUSH1 0x1 DUP2 GT PUSH2 0x1853 JUMPI PUSH1 0x40 MLOAD PUSH3 0x461BCD PUSH1 0xE5 SHL DUP2 MSTORE PUSH1 0x4 ADD PUSH2 0x6FA SWAP1 PUSH2 0x2F29 JUMP JUMPDEST PUSH1 0x0 PUSH2 0x1874 PUSH1 0x0 DUP1 MLOAD PUSH1 0x20 PUSH2 0x3263 DUP4 CODECOPY DUP2 MLOAD SWAP2 MSTORE PUSH2 0x599 PUSH1 0x20 DUP8 ADD DUP8 PUSH2 0x29D5 JUMP JUMPDEST DUP1 PUSH2 0x18D1 JUMPI POP PUSH1 0x13 SLOAD NUMBER SWAP1 PUSH1 0x12 PUSH1 0x0 PUSH2 0x1890 PUSH1 0x20 DUP10 ADD DUP10 PUSH2 0x29D5 JUMP JUMPDEST PUSH1 0x1 PUSH1 0x1 PUSH1 0xA0 SHL SUB AND DUP2 MSTORE PUSH1 0x20 DUP2 ADD SWAP2 SWAP1 SWAP2 MSTORE PUSH1 0x40 ADD PUSH1 0x0 KECCAK256 SLOAD PUSH2 0x18B4 SWAP2 SWAP1 PUSH2 0x3142 JUMP JUMPDEST LT DUP1 ISZERO PUSH2 0x18D1 JUMPI POP PUSH2 0x18D1 PUSH2 0x18CC PUSH1 0x20 DUP7 ADD DUP7 PUSH2 0x29D5 JUMP JUMPDEST PUSH2 0x2340 JUMP JUMPDEST DUP1 ISZERO PUSH2 0x1962 JUMPI POP PUSH2 0x18FA PUSH1 0x0 DUP1 MLOAD PUSH1 0x20 PUSH2 0x3263 DUP4 CODECOPY DUP2 MLOAD SWAP2 MSTORE PUSH2 0x599 PUSH1 0x40 DUP8 ADD PUSH1 0x20 DUP9 ADD PUSH2 0x29D5 JUMP JUMPDEST DUP1 PUSH2 0x1962 JUMPI POP PUSH1 0x14 SLOAD NUMBER SWAP1 PUSH1 0x12 PUSH1 0x0 PUSH2 0x1919 PUSH1 0x40 DUP10 ADD PUSH1 0x20 DUP11 ADD PUSH2 0x29D5 JUMP JUMPDEST PUSH1 0x1 PUSH1 0x1 PUSH1 0xA0 SHL SUB AND PUSH1 0x1 PUSH1 0x1 PUSH1 0xA0 SHL SUB AND DUP2 MSTORE PUSH1 0x20 ADD SWAP1 DUP2 MSTORE PUSH1 0x20 ADD PUSH1 0x0 KECCAK256 PUSH1 0x1 ADD SLOAD PUSH2 0x1947 SWAP2 SWAP1 PUSH2 0x3142 JUMP JUMPDEST LT DUP1 ISZERO PUSH2 0x1962 JUMPI POP PUSH2 0x1962 PUSH2 0x18CC PUSH1 0x40 DUP7 ADD PUSH1 0x20 DUP8 ADD PUSH2 0x29D5 JUMP JUMPDEST ISZERO PUSH2 0x1B77 JUMPI PUSH2 0x1986 PUSH1 0x0 DUP1 MLOAD PUSH1 0x20 PUSH2 0x3243 DUP4 CODECOPY DUP2 MLOAD SWAP2 MSTORE PUSH2 0x599 PUSH1 0x20 DUP8 ADD DUP8 PUSH2 0x29D5 JUMP JUMPDEST DUP1 PUSH2 0x19AE JUMPI POP PUSH2 0x19AE PUSH1 0x0 DUP1 MLOAD PUSH1 0x20 PUSH2 0x3243 DUP4 CODECOPY DUP2 MLOAD SWAP2 MSTORE PUSH2 0x599 PUSH1 0x40 DUP8 ADD PUSH1 0x20 DUP9 ADD PUSH2 0x29D5 JUMP JUMPDEST ISZERO PUSH2 0x1AB5 JUMPI PUSH1 0x0 PUSH1 0x6 DUP2 PUSH2 0x19C8 PUSH1 0x40 DUP9 ADD PUSH1 0x20 DUP10 ADD PUSH2 0x29D5 JUMP JUMPDEST PUSH1 0x1 PUSH1 0x1 PUSH1 0xA0 SHL SUB AND PUSH1 0x1 PUSH1 0x1 PUSH1 0xA0 SHL SUB AND DUP2 MSTORE PUSH1 0x20 ADD SWAP1 DUP2 MSTORE PUSH1 0x20 ADD PUSH1 0x0 KECCAK256 SLOAD PUSH1 0x6 PUSH1 0x0 DUP8 PUSH1 0x0 ADD PUSH1 0x20 DUP2 ADD SWAP1 PUSH2 0x1A00 SWAP2 SWAP1 PUSH2 0x29D5 JUMP JUMPDEST PUSH1 0x1 PUSH1 0x1 PUSH1 0xA0 SHL SUB AND PUSH1 0x1 PUSH1 0x1 PUSH1 0xA0 SHL SUB AND DUP2 MSTORE PUSH1 0x20 ADD SWAP1 DUP2 MSTORE PUSH1 0x20 ADD PUSH1 0x0 KECCAK256 SLOAD LT PUSH2 0x1A60 JUMPI PUSH1 0x6 PUSH1 0x0 PUSH2 0x1A3A PUSH1 0x40 DUP9 ADD PUSH1 0x20 DUP10 ADD PUSH2 0x29D5 JUMP JUMPDEST PUSH1 0x1 PUSH1 0x1 PUSH1 0xA0 SHL SUB AND PUSH1 0x1 PUSH1 0x1 PUSH1 0xA0 SHL SUB AND DUP2 MSTORE PUSH1 0x20 ADD SWAP1 DUP2 MSTORE PUSH1 0x20 ADD PUSH1 0x0 KECCAK256 SLOAD PUSH2 0x1A93 JUMP JUMPDEST PUSH1 0x6 PUSH1 0x0 PUSH2 0x1A71 PUSH1 0x20 DUP9 ADD DUP9 PUSH2 0x29D5 JUMP JUMPDEST PUSH1 0x1 PUSH1 0x1 PUSH1 0xA0 SHL SUB AND PUSH1 0x1 PUSH1 0x1 PUSH1 0xA0 SHL SUB AND DUP2 MSTORE PUSH1 0x20 ADD SWAP1 DUP2 MSTORE PUSH1 0x20 ADD PUSH1 0x0 KECCAK256 SLOAD JUMPDEST SWAP1 POP PUSH3 0xF4240 PUSH2 0x1AA3 DUP3 DUP6 PUSH2 0x316E JUMP JUMPDEST PUSH2 0x1AAD SWAP2 SWAP1 PUSH2 0x315A JUMP JUMPDEST SWAP2 POP POP PUSH2 0x1B72 JUMP JUMPDEST PUSH1 0x0 PUSH1 0x5 DUP2 PUSH2 0x1AC7 PUSH1 0x20 DUP9 ADD DUP9 PUSH2 0x29D5 JUMP JUMPDEST PUSH1 0x1 PUSH1 0x1 PUSH1 0xA0 SHL SUB SWAP1 DUP2 AND DUP3 MSTORE PUSH1 0x20 DUP3 ADD SWAP3 SWAP1 SWAP3 MSTORE PUSH1 0x40 ADD PUSH1 0x0 KECCAK256 SLOAD AND EQ PUSH2 0x1B53 JUMPI PUSH3 0xF4240 PUSH1 0xC SLOAD DUP4 PUSH2 0x1AFB SWAP2 SWAP1 PUSH2 0x316E JUMP JUMPDEST PUSH2 0x1B05 SWAP2 SWAP1 PUSH2 0x315A JUMP JUMPDEST SWAP1 POP DUP2 PUSH1 0x3 PUSH1 0x0 PUSH2 0x1B19 PUSH1 0x20 DUP9 ADD DUP9 PUSH2 0x29D5 JUMP JUMPDEST PUSH1 0x1 PUSH1 0x1 PUSH1 0xA0 SHL SUB AND PUSH1 0x1 PUSH1 0x1 PUSH1 0xA0 SHL SUB AND DUP2 MSTORE PUSH1 0x20 ADD SWAP1 DUP2 MSTORE PUSH1 0x20 ADD PUSH1 0x0 KECCAK256 PUSH1 0x0 DUP3 DUP3 SLOAD PUSH2 0x1B48 SWAP2 SWAP1 PUSH2 0x3142 JUMP JUMPDEST SWAP1 SWAP2 SSTORE POP PUSH2 0x1B72 SWAP1 POP JUMP JUMPDEST PUSH3 0xF4240 PUSH1 0xA SLOAD DUP4 PUSH2 0x1B65 SWAP2 SWAP1 PUSH2 0x316E JUMP JUMPDEST PUSH2 0x1B6F SWAP2 SWAP1 PUSH2 0x315A JUMP JUMPDEST SWAP1 POP JUMPDEST PUSH2 0x1C17 JUMP JUMPDEST PUSH3 0xF4240 PUSH1 0xB SLOAD DUP4 PUSH2 0x1B89 SWAP2 SWAP1 PUSH2 0x316E JUMP JUMPDEST PUSH2 0x1B93 SWAP2 SWAP1 PUSH2 0x315A JUMP JUMPDEST SWAP1 POP PUSH1 0x0 PUSH3 0xF4240 PUSH1 0xB SLOAD DUP7 PUSH1 0x40 ADD CALLDATALOAD PUSH2 0x1BAD SWAP2 SWAP1 PUSH2 0x316E JUMP JUMPDEST PUSH2 0x1BB7 SWAP2 SWAP1 PUSH2 0x315A JUMP JUMPDEST SWAP1 POP PUSH32 0xA1A76B56D422BE0A4C14CCC1281231AA006E67B6E03DCC433A873DC285491E51 PUSH2 0x1BE7 PUSH1 0x20 DUP8 ADD DUP8 PUSH2 0x29D5 JUMP JUMPDEST PUSH2 0x1BF7 PUSH1 0x40 DUP9 ADD PUSH1 0x20 DUP10 ADD PUSH2 0x29D5 JUMP JUMPDEST DUP8 PUSH1 0x40 ADD CALLDATALOAD DUP5 PUSH1 0x40 MLOAD PUSH2 0x1C0D SWAP5 SWAP4 SWAP3 SWAP2 SWAP1 PUSH2 0x2D34 JUMP JUMPDEST PUSH1 0x40 MLOAD DUP1 SWAP2 SUB SWAP1 LOG1 POP JUMPDEST PUSH1 0x0 PUSH2 0x1C23 DUP3 DUP5 PUSH2 0x318D JUMP JUMPDEST SWAP1 POP PUSH8 0xDE0B6B3A7640000 PUSH1 0x2 SLOAD DUP4 PUSH2 0x1C3C SWAP2 SWAP1 PUSH2 0x316E JUMP JUMPDEST PUSH2 0x1C46 SWAP2 SWAP1 PUSH2 0x315A JUMP JUMPDEST PUSH1 0x40 DUP1 DUP7 ADD DUP3 SWAP1 MSTORE PUSH2 0x1C5B SWAP2 SWAP1 DUP8 ADD CALLDATALOAD PUSH2 0x318D JUMP JUMPDEST PUSH1 0x60 DUP6 ADD MSTORE NUMBER PUSH1 0x12 PUSH1 0x0 PUSH2 0x1C75 PUSH1 0x40 DUP10 ADD PUSH1 0x20 DUP11 ADD PUSH2 0x29D5 JUMP JUMPDEST PUSH1 0x1 PUSH1 0x1 PUSH1 0xA0 SHL SUB AND DUP2 MSTORE PUSH1 0x20 DUP1 DUP3 ADD SWAP3 SWAP1 SWAP3 MSTORE PUSH1 0x40 ADD PUSH1 0x0 SWAP1 DUP2 KECCAK256 SWAP3 SWAP1 SWAP3 SSTORE NUMBER SWAP2 PUSH1 0x12 SWAP2 PUSH2 0x1CA6 SWAP1 DUP10 ADD DUP10 PUSH2 0x29D5 JUMP JUMPDEST PUSH1 0x1 PUSH1 0x1 PUSH1 0xA0 SHL SUB AND DUP2 MSTORE PUSH1 0x20 DUP2 ADD SWAP2 SWAP1 SWAP2 MSTORE PUSH1 0x40 ADD PUSH1 0x0 KECCAK256 PUSH1 0x1 ADD SSTORE PUSH2 0x1CD1 DUP4 PUSH1 0x60 DUP8 ADD CALLDATALOAD PUSH2 0x318D JUMP JUMPDEST DUP5 MSTORE PUSH2 0x1CE1 DUP2 PUSH1 0x80 DUP8 ADD CALLDATALOAD PUSH2 0x3142 JUMP JUMPDEST PUSH1 0x20 DUP6 ADD MSTORE PUSH1 0x7 DUP1 SLOAD DUP4 SWAP2 SWAP1 PUSH1 0x0 SWAP1 PUSH2 0x1CFB SWAP1 DUP5 SWAP1 PUSH2 0x3142 JUMP JUMPDEST SWAP1 SWAP2 SSTORE POP PUSH2 0x1D09 SWAP1 POP PUSH2 0x22C8 JUMP JUMPDEST POP POP POP SWAP2 SWAP1 POP JUMP JUMPDEST PUSH1 0x60 PUSH2 0x1D2D PUSH1 0x0 DUP1 MLOAD PUSH1 0x20 PUSH2 0x3283 DUP4 CODECOPY DUP2 MLOAD SWAP2 MSTORE PUSH2 0x599 PUSH2 0x2271 JUMP JUMPDEST DUP1 PUSH2 0x1D40 JUMPI POP PUSH2 0x1D40 PUSH1 0x0 PUSH2 0x599 PUSH2 0x2271 JUMP JUMPDEST PUSH2 0x1D5C JUMPI PUSH1 0x40 MLOAD PUSH3 0x461BCD PUSH1 0xE5 SHL DUP2 MSTORE PUSH1 0x4 ADD PUSH2 0x6FA SWAP1 PUSH2 0x3091 JUMP JUMPDEST PUSH1 0x0 DUP4 DUP4 DUP1 DUP1 PUSH1 0x20 MUL PUSH1 0x20 ADD PUSH1 0x40 MLOAD SWAP1 DUP2 ADD PUSH1 0x40 MSTORE DUP1 SWAP4 SWAP3 SWAP2 SWAP1 DUP2 DUP2 MSTORE PUSH1 0x20 ADD DUP4 DUP4 PUSH1 0x20 MUL DUP1 DUP3 DUP5 CALLDATACOPY PUSH1 0x0 SWAP3 ADD DUP3 SWAP1 MSTORE POP SWAP4 SWAP5 POP POP POP POP JUMPDEST DUP4 DUP2 LT ISZERO PUSH2 0x1708 JUMPI PUSH1 0x3 PUSH1 0x0 DUP7 DUP7 DUP5 DUP2 DUP2 LT PUSH2 0x1DC0 JUMPI PUSH4 0x4E487B71 PUSH1 0xE0 SHL PUSH1 0x0 MSTORE PUSH1 0x32 PUSH1 0x4 MSTORE PUSH1 0x24 PUSH1 0x0 REVERT JUMPDEST SWAP1 POP PUSH1 0x20 MUL ADD PUSH1 0x20 DUP2 ADD SWAP1 PUSH2 0x1DD5 SWAP2 SWAP1 PUSH2 0x29D5 JUMP JUMPDEST PUSH1 0x1 PUSH1 0x1 PUSH1 0xA0 SHL SUB AND DUP2 MSTORE PUSH1 0x20 DUP2 ADD SWAP2 SWAP1 SWAP2 MSTORE PUSH1 0x40 ADD PUSH1 0x0 KECCAK256 SLOAD PUSH2 0x1E36 JUMPI PUSH1 0x0 DUP3 DUP3 DUP2 MLOAD DUP2 LT PUSH2 0x1E15 JUMPI PUSH4 0x4E487B71 PUSH1 0xE0 SHL PUSH1 0x0 MSTORE PUSH1 0x32 PUSH1 0x4 MSTORE PUSH1 0x24 PUSH1 0x0 REVERT JUMPDEST PUSH1 0x20 MUL PUSH1 0x20 ADD ADD SWAP1 PUSH1 0x1 PUSH1 0x1 PUSH1 0xA0 SHL SUB AND SWAP1 DUP2 PUSH1 0x1 PUSH1 0x1 PUSH1 0xA0 SHL SUB AND DUP2 MSTORE POP POP JUMPDEST DUP1 PUSH2 0x1E40 DUP2 PUSH2 0x31E7 JUMP JUMPDEST SWAP2 POP POP PUSH2 0x1D94 JUMP JUMPDEST PUSH1 0x13 SLOAD DUP2 JUMP JUMPDEST PUSH1 0x0 PUSH2 0x1E6A PUSH1 0x0 DUP1 MLOAD PUSH1 0x20 PUSH2 0x3283 DUP4 CODECOPY DUP2 MLOAD SWAP2 MSTORE PUSH2 0x599 PUSH2 0x2271 JUMP JUMPDEST DUP1 PUSH2 0x1E7D JUMPI POP PUSH2 0x1E7D PUSH1 0x0 PUSH2 0x599 PUSH2 0x2271 JUMP JUMPDEST PUSH2 0x1E99 JUMPI PUSH1 0x40 MLOAD PUSH3 0x461BCD PUSH1 0xE5 SHL DUP2 MSTORE PUSH1 0x4 ADD PUSH2 0x6FA SWAP1 PUSH2 0x3091 JUMP JUMPDEST POP PUSH1 0x10 SLOAD SWAP1 JUMP JUMPDEST PUSH1 0xA SLOAD DUP2 JUMP JUMPDEST PUSH1 0x0 DUP3 DUP2 MSTORE PUSH1 0x1 PUSH1 0x20 MSTORE PUSH1 0x40 DUP2 KECCAK256 PUSH2 0xB40 SWAP1 DUP4 PUSH2 0x23FE JUMP JUMPDEST PUSH1 0x0 SWAP2 DUP3 MSTORE PUSH1 0x20 DUP3 DUP2 MSTORE PUSH1 0x40 DUP1 DUP5 KECCAK256 PUSH1 0x1 PUSH1 0x1 PUSH1 0xA0 SHL SUB SWAP4 SWAP1 SWAP4 AND DUP5 MSTORE SWAP2 SWAP1 MSTORE SWAP1 KECCAK256 SLOAD PUSH1 0xFF AND SWAP1 JUMP JUMPDEST PUSH1 0xC SLOAD DUP2 JUMP JUMPDEST PUSH1 0x0 DUP1 MLOAD PUSH1 0x20 PUSH2 0x3263 DUP4 CODECOPY DUP2 MLOAD SWAP2 MSTORE DUP2 JUMP JUMPDEST PUSH2 0x1F0C PUSH1 0x0 PUSH2 0x599 PUSH2 0x2271 JUMP JUMPDEST PUSH2 0x1F28 JUMPI PUSH1 0x40 MLOAD PUSH3 0x461BCD PUSH1 0xE5 SHL DUP2 MSTORE PUSH1 0x4 ADD PUSH2 0x6FA SWAP1 PUSH2 0x2F7D JUMP JUMPDEST PUSH1 0x0 PUSH2 0x1F35 PUSH1 0x64 NUMBER PUSH2 0x3202 JUMP JUMPDEST PUSH2 0x1F47 SWAP1 PUSH8 0xDE0B6B3A7640000 PUSH2 0x316E JUMP JUMPDEST SWAP1 POP PUSH1 0x0 JUMPDEST DUP3 DUP2 LT ISZERO PUSH2 0xFDC JUMPI DUP2 PUSH2 0x1F67 DUP3 PUSH8 0xDE0B6B3A7640000 PUSH2 0x316E JUMP JUMPDEST PUSH2 0x1F71 SWAP2 SWAP1 PUSH2 0x3142 JUMP JUMPDEST PUSH1 0x3 PUSH1 0x0 DUP7 DUP7 DUP6 DUP2 DUP2 LT PUSH2 0x1F95 JUMPI PUSH4 0x4E487B71 PUSH1 0xE0 SHL PUSH1 0x0 MSTORE PUSH1 0x32 PUSH1 0x4 MSTORE PUSH1 0x24 PUSH1 0x0 REVERT JUMPDEST SWAP1 POP PUSH1 0x20 MUL ADD PUSH1 0x20 DUP2 ADD SWAP1 PUSH2 0x1FAA SWAP2 SWAP1 PUSH2 0x29D5 JUMP JUMPDEST PUSH1 0x1 PUSH1 0x1 PUSH1 0xA0 SHL SUB AND DUP2 MSTORE PUSH1 0x20 DUP2 ADD SWAP2 SWAP1 SWAP2 MSTORE PUSH1 0x40 ADD PUSH1 0x0 KECCAK256 SSTORE DUP1 PUSH2 0x1FCE DUP2 PUSH2 0x31E7 JUMP JUMPDEST SWAP2 POP POP PUSH2 0x1F4C JUMP JUMPDEST PUSH1 0x14 SLOAD DUP2 JUMP JUMPDEST PUSH1 0xE SLOAD DUP2 JUMP JUMPDEST PUSH1 0x0 PUSH2 0x1FFE PUSH1 0x0 DUP1 MLOAD PUSH1 0x20 PUSH2 0x3283 DUP4 CODECOPY DUP2 MLOAD SWAP2 MSTORE PUSH2 0x599 PUSH2 0x2271 JUMP JUMPDEST DUP1 PUSH2 0x2011 JUMPI POP PUSH2 0x2011 PUSH1 0x0 PUSH2 0x599 PUSH2 0x2271 JUMP JUMPDEST PUSH2 0x202D JUMPI PUSH1 0x40 MLOAD PUSH3 0x461BCD PUSH1 0xE5 SHL DUP2 MSTORE PUSH1 0x4 ADD PUSH2 0x6FA SWAP1 PUSH2 0x3091 JUMP JUMPDEST PUSH1 0x10 SLOAD PUSH1 0x11 SLOAD PUSH2 0x203D SWAP2 SWAP1 PUSH2 0x3142 JUMP JUMPDEST SWAP1 POP SWAP1 JUMP JUMPDEST PUSH1 0x0 DUP2 DUP2 MSTORE PUSH1 0x1 PUSH1 0x20 MSTORE PUSH1 0x40 DUP2 KECCAK256 PUSH2 0x9A0 SWAP1 PUSH2 0x240A JUMP JUMPDEST PUSH1 0x0 PUSH2 0x2075 PUSH1 0x0 DUP1 MLOAD PUSH1 0x20 PUSH2 0x3283 DUP4 CODECOPY DUP2 MLOAD SWAP2 MSTORE PUSH2 0x599 PUSH2 0x2271 JUMP JUMPDEST DUP1 PUSH2 0x2088 JUMPI POP PUSH2 0x2088 PUSH1 0x0 PUSH2 0x599 PUSH2 0x2271 JUMP JUMPDEST PUSH2 0x20A4 JUMPI PUSH1 0x40 MLOAD PUSH3 0x461BCD PUSH1 0xE5 SHL DUP2 MSTORE PUSH1 0x4 ADD PUSH2 0x6FA SWAP1 PUSH2 0x3091 JUMP JUMPDEST PUSH1 0x2 SLOAD PUSH2 0x11E2 PUSH8 0xDE0B6B3A7640000 DUP5 PUSH2 0x316E JUMP JUMPDEST PUSH1 0x0 DUP2 JUMP JUMPDEST PUSH1 0x6 PUSH1 0x20 MSTORE PUSH1 0x0 SWAP1 DUP2 MSTORE PUSH1 0x40 SWAP1 KECCAK256 SLOAD DUP2 JUMP JUMPDEST PUSH2 0xC3E DUP3 DUP3 PUSH2 0x2415 JUMP JUMPDEST PUSH32 0xBD68AB95CDA3C90AC0BFFC2B3A3A97A564372FC3CA4A8E4575D3CE58179B7563 DUP2 JUMP JUMPDEST PUSH1 0x5 PUSH1 0x20 MSTORE PUSH1 0x0 SWAP1 DUP2 MSTORE PUSH1 0x40 SWAP1 KECCAK256 SLOAD PUSH1 0x1 PUSH1 0x1 PUSH1 0xA0 SHL SUB AND DUP2 JUMP JUMPDEST PUSH2 0x2133 PUSH1 0x0 DUP1 MLOAD PUSH1 0x20 PUSH2 0x3283 DUP4 CODECOPY DUP2 MLOAD SWAP2 MSTORE PUSH2 0x599 PUSH2 0x2271 JUMP JUMPDEST DUP1 PUSH2 0x2146 JUMPI POP PUSH2 0x2146 PUSH1 0x0 PUSH2 0x599 PUSH2 0x2271 JUMP JUMPDEST PUSH2 0x2162 JUMPI PUSH1 0x40 MLOAD PUSH3 0x461BCD PUSH1 0xE5 SHL DUP2 MSTORE PUSH1 0x4 ADD PUSH2 0x6FA SWAP1 PUSH2 0x3091 JUMP JUMPDEST PUSH1 0x1 PUSH1 0x1 PUSH1 0xA0 SHL SUB AND PUSH1 0x0 SWAP1 DUP2 MSTORE PUSH1 0x4 PUSH1 0x20 MSTORE PUSH1 0x40 DUP2 KECCAK256 SSTORE JUMP JUMPDEST PUSH2 0x2189 PUSH1 0x0 PUSH2 0x599 PUSH2 0x2271 JUMP JUMPDEST PUSH2 0x21A5 JUMPI PUSH1 0x40 MLOAD PUSH3 0x461BCD PUSH1 0xE5 SHL DUP2 MSTORE PUSH1 0x4 ADD PUSH2 0x6FA SWAP1 PUSH2 0x2F7D JUMP JUMPDEST PUSH1 0x13 SWAP2 SWAP1 SWAP2 SSTORE PUSH1 0x14 SSTORE JUMP JUMPDEST PUSH1 0x4 PUSH1 0x20 MSTORE PUSH1 0x0 SWAP1 DUP2 MSTORE PUSH1 0x40 SWAP1 KECCAK256 SLOAD DUP2 JUMP JUMPDEST PUSH1 0x11 SLOAD DUP2 JUMP JUMPDEST PUSH2 0x21D5 PUSH1 0x0 PUSH2 0x599 PUSH2 0x2271 JUMP JUMPDEST PUSH2 0x21F1 JUMPI PUSH1 0x40 MLOAD PUSH3 0x461BCD PUSH1 0xE5 SHL DUP2 MSTORE PUSH1 0x4 ADD PUSH2 0x6FA SWAP1 PUSH2 0x2F7D JUMP JUMPDEST PUSH1 0x9 SSTORE JUMP JUMPDEST PUSH2 0x2203 PUSH1 0x0 PUSH2 0x599 PUSH2 0x2271 JUMP JUMPDEST PUSH2 0x221F JUMPI PUSH1 0x40 MLOAD PUSH3 0x461BCD PUSH1 0xE5 SHL DUP2 MSTORE PUSH1 0x4 ADD PUSH2 0x6FA SWAP1 PUSH2 0x2F7D JUMP JUMPDEST PUSH1 0x1 PUSH1 0x1 PUSH1 0xA0 SHL SUB DUP3 AND PUSH1 0x0 SWAP1 DUP2 MSTORE PUSH1 0x6 PUSH1 0x20 MSTORE PUSH1 0x40 SWAP1 KECCAK256 DUP2 SWAP1 SSTORE PUSH2 0x14B2 PUSH1 0x0 DUP1 MLOAD PUSH1 0x20 PUSH2 0x3243 DUP4 CODECOPY DUP2 MLOAD SWAP2 MSTORE DUP4 PUSH2 0x229A JUMP JUMPDEST PUSH2 0x14B2 DUP3 DUP3 PUSH2 0x2434 JUMP JUMPDEST PUSH1 0x0 PUSH2 0xB40 DUP4 PUSH1 0x1 PUSH1 0x1 PUSH1 0xA0 SHL SUB DUP5 AND PUSH2 0x24B9 JUMP JUMPDEST CALLER SWAP1 JUMP JUMPDEST PUSH1 0x0 PUSH1 0x1 PUSH1 0x1 PUSH1 0xE0 SHL SUB NOT DUP3 AND PUSH4 0x7965DB0B PUSH1 0xE0 SHL EQ DUP1 PUSH2 0x9A0 JUMPI POP PUSH2 0x9A0 DUP3 PUSH2 0x2503 JUMP JUMPDEST PUSH2 0xB53 DUP3 DUP3 PUSH2 0x2252 JUMP JUMPDEST PUSH2 0x22AD DUP3 PUSH2 0xA8A JUMP JUMPDEST PUSH2 0x22BE DUP2 PUSH2 0x22B9 PUSH2 0x2271 JUMP JUMPDEST PUSH2 0x251C JUMP JUMPDEST PUSH2 0xA58 DUP4 DUP4 PUSH2 0x2434 JUMP JUMPDEST PUSH1 0x9 SLOAD PUSH1 0x8 SLOAD PUSH2 0x22D8 SWAP2 SWAP1 PUSH2 0x3142 JUMP JUMPDEST TIMESTAMP GT ISZERO PUSH2 0x22E7 JUMPI PUSH2 0x22E7 PUSH2 0x2345 JUMP JUMPDEST JUMP JUMPDEST PUSH2 0x22F1 PUSH2 0x2271 JUMP JUMPDEST PUSH1 0x1 PUSH1 0x1 PUSH1 0xA0 SHL SUB AND DUP2 PUSH1 0x1 PUSH1 0x1 PUSH1 0xA0 SHL SUB AND EQ PUSH2 0x2321 JUMPI PUSH1 0x40 MLOAD PUSH3 0x461BCD PUSH1 0xE5 SHL DUP2 MSTORE PUSH1 0x4 ADD PUSH2 0x6FA SWAP1 PUSH2 0x30C8 JUMP JUMPDEST PUSH2 0x14B2 DUP3 DUP3 PUSH2 0x2580 JUMP JUMPDEST PUSH1 0x0 PUSH2 0xB40 DUP4 PUSH1 0x1 PUSH1 0x1 PUSH1 0xA0 SHL SUB DUP5 AND PUSH2 0x2603 JUMP JUMPDEST EXTCODESIZE ISZERO SWAP1 JUMP JUMPDEST TIMESTAMP PUSH1 0x8 SSTORE PUSH1 0x7 SLOAD PUSH1 0x11 DUP1 SLOAD PUSH1 0x0 SWAP1 PUSH2 0x235E SWAP1 DUP5 SWAP1 PUSH2 0x318D JUMP JUMPDEST SWAP1 SWAP2 SSTORE POP POP PUSH1 0x7 SLOAD PUSH2 0x2372 SWAP1 PUSH1 0x2 SWAP1 PUSH2 0x315A JUMP JUMPDEST PUSH1 0x10 PUSH1 0x0 DUP3 DUP3 SLOAD PUSH2 0x2383 SWAP2 SWAP1 PUSH2 0x3142 JUMP JUMPDEST SWAP1 SWAP2 SSTORE POP POP PUSH1 0x0 PUSH1 0x7 SSTORE PUSH1 0x11 SLOAD PUSH1 0x10 SLOAD PUSH2 0x23A5 SWAP1 PUSH8 0xDE0B6B3A7640000 PUSH2 0x316E JUMP JUMPDEST PUSH2 0x23AF SWAP2 SWAP1 PUSH2 0x315A JUMP JUMPDEST PUSH2 0x23C1 SWAP1 PUSH8 0xDE0B6B3A7640000 PUSH2 0x3142 JUMP JUMPDEST PUSH1 0x2 DUP2 SWAP1 SSTORE PUSH1 0x40 MLOAD PUSH32 0x4DBE4840D7465BD162F67814CEA0B519567A2E0E578BCDE61E7F4CED361E5A3D SWAP2 PUSH2 0x23F4 SWAP2 PUSH2 0x2E26 JUMP JUMPDEST PUSH1 0x40 MLOAD DUP1 SWAP2 SUB SWAP1 LOG1 JUMP JUMPDEST PUSH1 0x0 PUSH2 0xB40 DUP4 DUP4 PUSH2 0x2720 JUMP JUMPDEST PUSH1 0x0 PUSH2 0x9A0 DUP3 PUSH2 0x2758 JUMP JUMPDEST PUSH2 0x241E DUP3 PUSH2 0xA8A JUMP JUMPDEST PUSH2 0x242A DUP2 PUSH2 0x22B9 PUSH2 0x2271 JUMP JUMPDEST PUSH2 0xA58 DUP4 DUP4 PUSH2 0x2580 JUMP JUMPDEST PUSH2 0x243E DUP3 DUP3 PUSH2 0x1EBE JUMP JUMPDEST PUSH2 0x14B2 JUMPI PUSH1 0x0 DUP3 DUP2 MSTORE PUSH1 0x20 DUP2 DUP2 MSTORE PUSH1 0x40 DUP1 DUP4 KECCAK256 PUSH1 0x1 PUSH1 0x1 PUSH1 0xA0 SHL SUB DUP6 AND DUP5 MSTORE SWAP1 SWAP2 MSTORE SWAP1 KECCAK256 DUP1 SLOAD PUSH1 0xFF NOT AND PUSH1 0x1 OR SWAP1 SSTORE PUSH2 0x2475 PUSH2 0x2271 JUMP JUMPDEST PUSH1 0x1 PUSH1 0x1 PUSH1 0xA0 SHL SUB AND DUP2 PUSH1 0x1 PUSH1 0x1 PUSH1 0xA0 SHL SUB AND DUP4 PUSH32 0x2F8788117E7EFF1D82E926EC794901D17C78024A50270940304540A733656F0D PUSH1 0x40 MLOAD PUSH1 0x40 MLOAD DUP1 SWAP2 SUB SWAP1 LOG4 POP POP JUMP JUMPDEST PUSH1 0x0 PUSH2 0x24C5 DUP4 DUP4 PUSH2 0x275C JUMP JUMPDEST PUSH2 0x24FB JUMPI POP DUP2 SLOAD PUSH1 0x1 DUP2 DUP2 ADD DUP5 SSTORE PUSH1 0x0 DUP5 DUP2 MSTORE PUSH1 0x20 DUP1 DUP3 KECCAK256 SWAP1 SWAP4 ADD DUP5 SWAP1 SSTORE DUP5 SLOAD DUP5 DUP3 MSTORE DUP3 DUP7 ADD SWAP1 SWAP4 MSTORE PUSH1 0x40 SWAP1 KECCAK256 SWAP2 SWAP1 SWAP2 SSTORE PUSH2 0xB43 JUMP JUMPDEST POP PUSH1 0x0 PUSH2 0xB43 JUMP JUMPDEST PUSH1 0x1 PUSH1 0x1 PUSH1 0xE0 SHL SUB NOT DUP2 AND PUSH4 0x1FFC9A7 PUSH1 0xE0 SHL EQ SWAP2 SWAP1 POP JUMP JUMPDEST PUSH2 0x2526 DUP3 DUP3 PUSH2 0x1EBE JUMP JUMPDEST PUSH2 0x14B2 JUMPI PUSH2 0x253E DUP2 PUSH1 0x1 PUSH1 0x1 PUSH1 0xA0 SHL SUB AND PUSH1 0x14 PUSH2 0x2774 JUMP JUMPDEST PUSH2 0x2549 DUP4 PUSH1 0x20 PUSH2 0x2774 JUMP JUMPDEST PUSH1 0x40 MLOAD PUSH1 0x20 ADD PUSH2 0x255A SWAP3 SWAP2 SWAP1 PUSH2 0x2C6E JUMP JUMPDEST PUSH1 0x40 DUP1 MLOAD PUSH1 0x1F NOT DUP2 DUP5 SUB ADD DUP2 MSTORE SWAP1 DUP3 SWAP1 MSTORE PUSH3 0x461BCD PUSH1 0xE5 SHL DUP3 MSTORE PUSH2 0x6FA SWAP2 PUSH1 0x4 ADD PUSH2 0x2E2F JUMP JUMPDEST PUSH2 0x258A DUP3 DUP3 PUSH2 0x1EBE JUMP JUMPDEST ISZERO PUSH2 0x14B2 JUMPI PUSH1 0x0 DUP3 DUP2 MSTORE PUSH1 0x20 DUP2 DUP2 MSTORE PUSH1 0x40 DUP1 DUP4 KECCAK256 PUSH1 0x1 PUSH1 0x1 PUSH1 0xA0 SHL SUB DUP6 AND DUP5 MSTORE SWAP1 SWAP2 MSTORE SWAP1 KECCAK256 DUP1 SLOAD PUSH1 0xFF NOT AND SWAP1 SSTORE PUSH2 0x25BF PUSH2 0x2271 JUMP JUMPDEST PUSH1 0x1 PUSH1 0x1 PUSH1 0xA0 SHL SUB AND DUP2 PUSH1 0x1 PUSH1 0x1 PUSH1 0xA0 SHL SUB AND DUP4 PUSH32 0xF6391F5C32D9C69D2A47EA670B442974B53935D1EDC7FD64EB21E047A839171B PUSH1 0x40 MLOAD PUSH1 0x40 MLOAD DUP1 SWAP2 SUB SWAP1 LOG4 POP POP JUMP JUMPDEST PUSH1 0x0 DUP2 DUP2 MSTORE PUSH1 0x1 DUP4 ADD PUSH1 0x20 MSTORE PUSH1 0x40 DUP2 KECCAK256 SLOAD DUP1 ISZERO PUSH2 0x2716 JUMPI PUSH1 0x0 PUSH2 0x2627 PUSH1 0x1 DUP4 PUSH2 0x318D JUMP JUMPDEST DUP6 SLOAD SWAP1 SWAP2 POP PUSH1 0x0 SWAP1 PUSH2 0x263B SWAP1 PUSH1 0x1 SWAP1 PUSH2 0x318D JUMP JUMPDEST SWAP1 POP DUP2 DUP2 EQ PUSH2 0x26BC JUMPI PUSH1 0x0 DUP7 PUSH1 0x0 ADD DUP3 DUP2 SLOAD DUP2 LT PUSH2 0x2669 JUMPI PUSH4 0x4E487B71 PUSH1 0xE0 SHL PUSH1 0x0 MSTORE PUSH1 0x32 PUSH1 0x4 MSTORE PUSH1 0x24 PUSH1 0x0 REVERT JUMPDEST SWAP1 PUSH1 0x0 MSTORE PUSH1 0x20 PUSH1 0x0 KECCAK256 ADD SLOAD SWAP1 POP DUP1 DUP8 PUSH1 0x0 ADD DUP5 DUP2 SLOAD DUP2 LT PUSH2 0x269A JUMPI PUSH4 0x4E487B71 PUSH1 0xE0 SHL PUSH1 0x0 MSTORE PUSH1 0x32 PUSH1 0x4 MSTORE PUSH1 0x24 PUSH1 0x0 REVERT JUMPDEST PUSH1 0x0 SWAP2 DUP3 MSTORE PUSH1 0x20 DUP1 DUP4 KECCAK256 SWAP1 SWAP2 ADD SWAP3 SWAP1 SWAP3 SSTORE SWAP2 DUP3 MSTORE PUSH1 0x1 DUP9 ADD SWAP1 MSTORE PUSH1 0x40 SWAP1 KECCAK256 DUP4 SWAP1 SSTORE JUMPDEST DUP6 SLOAD DUP7 SWAP1 DUP1 PUSH2 0x26DB JUMPI PUSH4 0x4E487B71 PUSH1 0xE0 SHL PUSH1 0x0 MSTORE PUSH1 0x31 PUSH1 0x4 MSTORE PUSH1 0x24 PUSH1 0x0 REVERT JUMPDEST PUSH1 0x1 SWAP1 SUB DUP2 DUP2 SWAP1 PUSH1 0x0 MSTORE PUSH1 0x20 PUSH1 0x0 KECCAK256 ADD PUSH1 0x0 SWAP1 SSTORE SWAP1 SSTORE DUP6 PUSH1 0x1 ADD PUSH1 0x0 DUP7 DUP2 MSTORE PUSH1 0x20 ADD SWAP1 DUP2 MSTORE PUSH1 0x20 ADD PUSH1 0x0 KECCAK256 PUSH1 0x0 SWAP1 SSTORE PUSH1 0x1 SWAP4 POP POP POP POP PUSH2 0xB43 JUMP JUMPDEST PUSH1 0x0 SWAP2 POP POP PUSH2 0xB43 JUMP JUMPDEST PUSH1 0x0 DUP3 PUSH1 0x0 ADD DUP3 DUP2 SLOAD DUP2 LT PUSH2 0x2745 JUMPI PUSH4 0x4E487B71 PUSH1 0xE0 SHL PUSH1 0x0 MSTORE PUSH1 0x32 PUSH1 0x4 MSTORE PUSH1 0x24 PUSH1 0x0 REVERT JUMPDEST SWAP1 PUSH1 0x0 MSTORE PUSH1 0x20 PUSH1 0x0 KECCAK256 ADD SLOAD SWAP1 POP SWAP3 SWAP2 POP POP JUMP JUMPDEST SLOAD SWAP1 JUMP JUMPDEST PUSH1 0x0 SWAP1 DUP2 MSTORE PUSH1 0x1 SWAP2 SWAP1 SWAP2 ADD PUSH1 0x20 MSTORE PUSH1 0x40 SWAP1 KECCAK256 SLOAD ISZERO ISZERO SWAP1 JUMP JUMPDEST PUSH1 0x60 PUSH1 0x0 PUSH2 0x2783 DUP4 PUSH1 0x2 PUSH2 0x316E JUMP JUMPDEST PUSH2 0x278E SWAP1 PUSH1 0x2 PUSH2 0x3142 JUMP JUMPDEST PUSH8 0xFFFFFFFFFFFFFFFF DUP2 GT ISZERO PUSH2 0x27B4 JUMPI PUSH4 0x4E487B71 PUSH1 0xE0 SHL PUSH1 0x0 MSTORE PUSH1 0x41 PUSH1 0x4 MSTORE PUSH1 0x24 PUSH1 0x0 REVERT JUMPDEST PUSH1 0x40 MLOAD SWAP1 DUP1 DUP3 MSTORE DUP1 PUSH1 0x1F ADD PUSH1 0x1F NOT AND PUSH1 0x20 ADD DUP3 ADD PUSH1 0x40 MSTORE DUP1 ISZERO PUSH2 0x27DE JUMPI PUSH1 0x20 DUP3 ADD DUP2 DUP1 CALLDATASIZE DUP4 CALLDATACOPY ADD SWAP1 POP JUMPDEST POP SWAP1 POP PUSH1 0x3 PUSH1 0xFC SHL DUP2 PUSH1 0x0 DUP2 MLOAD DUP2 LT PUSH2 0x2807 JUMPI PUSH4 0x4E487B71 PUSH1 0xE0 SHL PUSH1 0x0 MSTORE PUSH1 0x32 PUSH1 0x4 MSTORE PUSH1 0x24 PUSH1 0x0 REVERT JUMPDEST PUSH1 0x20 ADD ADD SWAP1 PUSH1 0x1 PUSH1 0x1 PUSH1 0xF8 SHL SUB NOT AND SWAP1 DUP2 PUSH1 0x0 BYTE SWAP1 MSTORE8 POP PUSH1 0xF PUSH1 0xFB SHL DUP2 PUSH1 0x1 DUP2 MLOAD DUP2 LT PUSH2 0x2844 JUMPI PUSH4 0x4E487B71 PUSH1 0xE0 SHL PUSH1 0x0 MSTORE PUSH1 0x32 PUSH1 0x4 MSTORE PUSH1 0x24 PUSH1 0x0 REVERT JUMPDEST PUSH1 0x20 ADD ADD SWAP1 PUSH1 0x1 PUSH1 0x1 PUSH1 0xF8 SHL SUB NOT AND SWAP1 DUP2 PUSH1 0x0 BYTE SWAP1 MSTORE8 POP PUSH1 0x0 PUSH2 0x2868 DUP5 PUSH1 0x2 PUSH2 0x316E JUMP JUMPDEST PUSH2 0x2873 SWAP1 PUSH1 0x1 PUSH2 0x3142 JUMP JUMPDEST SWAP1 POP JUMPDEST PUSH1 0x1 DUP2 GT ISZERO PUSH2 0x2907 JUMPI PUSH16 0x181899199A1A9B1B9C1CB0B131B232B3 PUSH1 0x81 SHL DUP6 PUSH1 0xF AND PUSH1 0x10 DUP2 LT PUSH2 0x28B5 JUMPI PUSH4 0x4E487B71 PUSH1 0xE0 SHL PUSH1 0x0 MSTORE PUSH1 0x32 PUSH1 0x4 MSTORE PUSH1 0x24 PUSH1 0x0 REVERT JUMPDEST BYTE PUSH1 0xF8 SHL DUP3 DUP3 DUP2 MLOAD DUP2 LT PUSH2 0x28D9 JUMPI PUSH4 0x4E487B71 PUSH1 0xE0 SHL PUSH1 0x0 MSTORE PUSH1 0x32 PUSH1 0x4 MSTORE PUSH1 0x24 PUSH1 0x0 REVERT JUMPDEST PUSH1 0x20 ADD ADD SWAP1 PUSH1 0x1 PUSH1 0x1 PUSH1 0xF8 SHL SUB NOT AND SWAP1 DUP2 PUSH1 0x0 BYTE SWAP1 MSTORE8 POP PUSH1 0x4 SWAP5 SWAP1 SWAP5 SHR SWAP4 PUSH2 0x2900 DUP2 PUSH2 0x31D0 JUMP JUMPDEST SWAP1 POP PUSH2 0x2876 JUMP JUMPDEST POP DUP4 ISZERO PUSH2 0xB40 JUMPI PUSH1 0x40 MLOAD PUSH3 0x461BCD PUSH1 0xE5 SHL DUP2 MSTORE PUSH1 0x4 ADD PUSH2 0x6FA SWAP1 PUSH2 0x2E62 JUMP JUMPDEST PUSH1 0x40 DUP1 MLOAD DUP1 DUP3 ADD SWAP1 SWAP2 MSTORE PUSH1 0x0 DUP1 DUP3 MSTORE PUSH1 0x20 DUP3 ADD MSTORE SWAP1 JUMP JUMPDEST PUSH1 0x40 MLOAD DUP1 PUSH1 0x80 ADD PUSH1 0x40 MSTORE DUP1 PUSH1 0x0 DUP2 MSTORE PUSH1 0x20 ADD PUSH1 0x0 DUP2 MSTORE PUSH1 0x20 ADD PUSH1 0x0 DUP2 MSTORE PUSH1 0x20 ADD PUSH1 0x0 DUP2 MSTORE POP SWAP1 JUMP JUMPDEST DUP1 CALLDATALOAD PUSH1 0x1 PUSH1 0x1 PUSH1 0xA0 SHL SUB DUP2 AND DUP2 EQ PUSH2 0x9A3 JUMPI PUSH1 0x0 DUP1 REVERT JUMPDEST PUSH1 0x0 DUP1 DUP4 PUSH1 0x1F DUP5 ADD SLT PUSH2 0x298D JUMPI DUP2 DUP3 REVERT JUMPDEST POP DUP2 CALLDATALOAD PUSH8 0xFFFFFFFFFFFFFFFF DUP2 GT ISZERO PUSH2 0x29A4 JUMPI DUP2 DUP3 REVERT JUMPDEST PUSH1 0x20 DUP4 ADD SWAP2 POP DUP4 PUSH1 0x20 DUP1 DUP4 MUL DUP6 ADD ADD GT ISZERO PUSH2 0x29BE JUMPI PUSH1 0x0 DUP1 REVERT JUMPDEST SWAP3 POP SWAP3 SWAP1 POP JUMP JUMPDEST DUP1 CALLDATALOAD DUP1 ISZERO ISZERO DUP2 EQ PUSH2 0x9A3 JUMPI PUSH1 0x0 DUP1 REVERT JUMPDEST PUSH1 0x0 PUSH1 0x20 DUP3 DUP5 SUB SLT ISZERO PUSH2 0x29E6 JUMPI DUP1 DUP2 REVERT JUMPDEST PUSH2 0xB40 DUP3 PUSH2 0x2965 JUMP JUMPDEST PUSH1 0x0 DUP1 PUSH1 0x40 DUP4 DUP6 SUB SLT ISZERO PUSH2 0x2A01 JUMPI DUP1 DUP2 REVERT JUMPDEST PUSH2 0x2A0A DUP4 PUSH2 0x2965 JUMP JUMPDEST SWAP2 POP PUSH2 0x2A18 PUSH1 0x20 DUP5 ADD PUSH2 0x2965 JUMP JUMPDEST SWAP1 POP SWAP3 POP SWAP3 SWAP1 POP JUMP JUMPDEST PUSH1 0x0 DUP1 PUSH1 0x0 PUSH1 0x40 DUP5 DUP7 SUB SLT ISZERO PUSH2 0x2A35 JUMPI DUP1 DUP2 REVERT JUMPDEST PUSH2 0x2A3E DUP5 PUSH2 0x2965 JUMP JUMPDEST SWAP3 POP PUSH1 0x20 DUP5 ADD CALLDATALOAD PUSH8 0xFFFFFFFFFFFFFFFF DUP2 GT ISZERO PUSH2 0x2A59 JUMPI DUP2 DUP3 REVERT JUMPDEST PUSH2 0x2A65 DUP7 DUP3 DUP8 ADD PUSH2 0x297C JUMP JUMPDEST SWAP5 SWAP8 SWAP1 SWAP7 POP SWAP4 SWAP5 POP POP POP POP JUMP JUMPDEST PUSH1 0x0 DUP1 PUSH1 0x40 DUP4 DUP6 SUB SLT ISZERO PUSH2 0x2A84 JUMPI DUP2 DUP3 REVERT JUMPDEST PUSH2 0x2A8D DUP4 PUSH2 0x2965 JUMP JUMPDEST SWAP5 PUSH1 0x20 SWAP4 SWAP1 SWAP4 ADD CALLDATALOAD SWAP4 POP POP POP JUMP JUMPDEST PUSH1 0x0 DUP1 PUSH1 0x20 DUP4 DUP6 SUB SLT ISZERO PUSH2 0x2AAD JUMPI DUP2 DUP3 REVERT JUMPDEST DUP3 CALLDATALOAD PUSH8 0xFFFFFFFFFFFFFFFF DUP2 GT ISZERO PUSH2 0x2AC3 JUMPI DUP3 DUP4 REVERT JUMPDEST PUSH2 0x2ACF DUP6 DUP3 DUP7 ADD PUSH2 0x297C JUMP JUMPDEST SWAP1 SWAP7 SWAP1 SWAP6 POP SWAP4 POP POP POP POP JUMP JUMPDEST PUSH1 0x0 DUP1 PUSH1 0x20 DUP4 DUP6 SUB SLT ISZERO PUSH2 0x2AED JUMPI DUP2 DUP3 REVERT JUMPDEST DUP3 CALLDATALOAD PUSH8 0xFFFFFFFFFFFFFFFF DUP1 DUP3 GT ISZERO PUSH2 0x2B04 JUMPI DUP4 DUP5 REVERT JUMPDEST DUP2 DUP6 ADD SWAP2 POP DUP6 PUSH1 0x1F DUP4 ADD SLT PUSH2 0x2B17 JUMPI DUP4 DUP5 REVERT JUMPDEST DUP2 CALLDATALOAD DUP2 DUP2 GT ISZERO PUSH2 0x2B25 JUMPI DUP5 DUP6 REVERT JUMPDEST DUP7 PUSH1 0x20 PUSH1 0x40 DUP4 MUL DUP6 ADD ADD GT ISZERO PUSH2 0x2B39 JUMPI DUP5 DUP6 REVERT JUMPDEST PUSH1 0x20 SWAP3 SWAP1 SWAP3 ADD SWAP7 SWAP2 SWAP6 POP SWAP1 SWAP4 POP POP POP POP JUMP JUMPDEST PUSH1 0x0 PUSH1 0x20 DUP3 DUP5 SUB SLT ISZERO PUSH2 0x2B5C JUMPI DUP1 DUP2 REVERT JUMPDEST PUSH2 0xB40 DUP3 PUSH2 0x29C5 JUMP JUMPDEST PUSH1 0x0 DUP1 PUSH1 0x0 PUSH1 0x60 DUP5 DUP7 SUB SLT ISZERO PUSH2 0x2B79 JUMPI DUP3 DUP4 REVERT JUMPDEST PUSH2 0x2B82 DUP5 PUSH2 0x29C5 JUMP JUMPDEST SWAP3 POP PUSH2 0x2B90 PUSH1 0x20 DUP6 ADD PUSH2 0x2965 JUMP JUMPDEST SWAP2 POP PUSH1 0x40 DUP5 ADD CALLDATALOAD SWAP1 POP SWAP3 POP SWAP3 POP SWAP3 JUMP JUMPDEST PUSH1 0x0 PUSH1 0x20 DUP3 DUP5 SUB SLT ISZERO PUSH2 0x2BB1 JUMPI DUP1 DUP2 REVERT JUMPDEST POP CALLDATALOAD SWAP2 SWAP1 POP JUMP JUMPDEST PUSH1 0x0 DUP1 PUSH1 0x40 DUP4 DUP6 SUB SLT ISZERO PUSH2 0x2BCA JUMPI DUP2 DUP3 REVERT JUMPDEST DUP3 CALLDATALOAD SWAP2 POP PUSH2 0x2A18 PUSH1 0x20 DUP5 ADD PUSH2 0x2965 JUMP JUMPDEST PUSH1 0x0 DUP1 PUSH1 0x40 DUP4 DUP6 SUB SLT ISZERO PUSH2 0x2BEC JUMPI DUP2 DUP3 REVERT JUMPDEST POP POP DUP1 CALLDATALOAD SWAP3 PUSH1 0x20 SWAP1 SWAP2 ADD CALLDATALOAD SWAP2 POP JUMP JUMPDEST PUSH1 0x0 PUSH1 0x20 DUP3 DUP5 SUB SLT ISZERO PUSH2 0x2C0C JUMPI DUP1 DUP2 REVERT JUMPDEST DUP2 CALLDATALOAD PUSH1 0x1 PUSH1 0x1 PUSH1 0xE0 SHL SUB NOT DUP2 AND DUP2 EQ PUSH2 0xB40 JUMPI DUP2 DUP3 REVERT JUMPDEST PUSH1 0x0 PUSH1 0xA0 DUP3 DUP5 SUB SLT ISZERO PUSH2 0xB3E JUMPI DUP1 DUP2 REVERT JUMPDEST PUSH1 0x0 DUP1 PUSH1 0x0 DUP1 PUSH1 0x0 PUSH1 0xA0 DUP7 DUP9 SUB SLT ISZERO PUSH2 0x2C4B JUMPI DUP3 DUP4 REVERT JUMPDEST POP POP DUP4 CALLDATALOAD SWAP6 PUSH1 0x20 DUP6 ADD CALLDATALOAD SWAP6 POP PUSH1 0x40 DUP6 ADD CALLDATALOAD SWAP5 PUSH1 0x60 DUP2 ADD CALLDATALOAD SWAP5 POP PUSH1 0x80 ADD CALLDATALOAD SWAP3 POP SWAP1 POP JUMP JUMPDEST PUSH1 0x0 PUSH32 0x416363657373436F6E74726F6C3A206163636F756E7420000000000000000000 DUP3 MSTORE DUP4 MLOAD PUSH2 0x2CA6 DUP2 PUSH1 0x17 DUP6 ADD PUSH1 0x20 DUP9 ADD PUSH2 0x31A4 JUMP JUMPDEST PUSH17 0x1034B99036B4B9B9B4B733903937B6329 PUSH1 0x7D SHL PUSH1 0x17 SWAP2 DUP5 ADD SWAP2 DUP3 ADD MSTORE DUP4 MLOAD PUSH2 0x2CD7 DUP2 PUSH1 0x28 DUP5 ADD PUSH1 0x20 DUP9 ADD PUSH2 0x31A4 JUMP JUMPDEST ADD PUSH1 0x28 ADD SWAP5 SWAP4 POP POP POP POP JUMP JUMPDEST PUSH1 0x1 PUSH1 0x1 PUSH1 0xA0 SHL SUB SWAP2 SWAP1 SWAP2 AND DUP2 MSTORE PUSH1 0x20 ADD SWAP1 JUMP JUMPDEST PUSH1 0x1 PUSH1 0x1 PUSH1 0xA0 SHL SUB SWAP3 DUP4 AND DUP2 MSTORE SWAP2 AND PUSH1 0x20 DUP3 ADD MSTORE PUSH1 0x40 ADD SWAP1 JUMP JUMPDEST PUSH1 0x1 PUSH1 0x1 PUSH1 0xA0 SHL SUB SWAP4 DUP5 AND DUP2 MSTORE SWAP2 DUP4 AND PUSH1 0x20 DUP4 ADD MSTORE SWAP1 SWAP2 AND PUSH1 0x40 DUP3 ADD MSTORE PUSH1 0x60 ADD SWAP1 JUMP JUMPDEST PUSH1 0x1 PUSH1 0x1 PUSH1 0xA0 SHL SUB SWAP5 DUP6 AND DUP2 MSTORE SWAP3 SWAP1 SWAP4 AND PUSH1 0x20 DUP4 ADD MSTORE PUSH1 0x40 DUP3 ADD MSTORE PUSH1 0x60 DUP2 ADD SWAP2 SWAP1 SWAP2 MSTORE PUSH1 0x80 ADD SWAP1 JUMP JUMPDEST PUSH1 0x1 PUSH1 0x1 PUSH1 0xA0 SHL SUB SWAP3 SWAP1 SWAP3 AND DUP3 MSTORE PUSH1 0x20 DUP3 ADD MSTORE PUSH1 0x40 ADD SWAP1 JUMP JUMPDEST PUSH1 0x20 DUP1 DUP3 MSTORE DUP3 MLOAD DUP3 DUP3 ADD DUP2 SWAP1 MSTORE PUSH1 0x0 SWAP2 SWAP1 DUP5 DUP3 ADD SWAP1 PUSH1 0x40 DUP6 ADD SWAP1 DUP5 JUMPDEST DUP2 DUP2 LT ISZERO PUSH2 0x2DB7 JUMPI DUP4 MLOAD PUSH1 0x1 PUSH1 0x1 PUSH1 0xA0 SHL SUB AND DUP4 MSTORE SWAP3 DUP5 ADD SWAP3 SWAP2 DUP5 ADD SWAP2 PUSH1 0x1 ADD PUSH2 0x2D92 JUMP JUMPDEST POP SWAP1 SWAP7 SWAP6 POP POP POP POP POP POP JUMP JUMPDEST PUSH1 0x20 DUP1 DUP3 MSTORE DUP3 MLOAD DUP3 DUP3 ADD DUP2 SWAP1 MSTORE PUSH1 0x0 SWAP2 SWAP1 PUSH1 0x40 SWAP1 DUP2 DUP6 ADD SWAP1 DUP7 DUP5 ADD DUP6 JUMPDEST DUP3 DUP2 LT ISZERO PUSH2 0x2E0E JUMPI DUP2 MLOAD DUP1 MLOAD PUSH1 0x1 PUSH1 0x1 PUSH1 0xA0 SHL SUB AND DUP6 MSTORE DUP7 ADD MLOAD DUP7 DUP6 ADD MSTORE SWAP3 DUP5 ADD SWAP3 SWAP1 DUP6 ADD SWAP1 PUSH1 0x1 ADD PUSH2 0x2DE0 JUMP JUMPDEST POP SWAP2 SWAP8 SWAP7 POP POP POP POP POP POP POP JUMP JUMPDEST SWAP1 ISZERO ISZERO DUP2 MSTORE PUSH1 0x20 ADD SWAP1 JUMP JUMPDEST SWAP1 DUP2 MSTORE PUSH1 0x20 ADD SWAP1 JUMP JUMPDEST PUSH1 0x0 PUSH1 0x20 DUP3 MSTORE DUP3 MLOAD DUP1 PUSH1 0x20 DUP5 ADD MSTORE PUSH2 0x2E4E DUP2 PUSH1 0x40 DUP6 ADD PUSH1 0x20 DUP8 ADD PUSH2 0x31A4 JUMP JUMPDEST PUSH1 0x1F ADD PUSH1 0x1F NOT AND SWAP2 SWAP1 SWAP2 ADD PUSH1 0x40 ADD SWAP3 SWAP2 POP POP JUMP JUMPDEST PUSH1 0x20 DUP1 DUP3 MSTORE DUP2 DUP2 ADD MSTORE PUSH32 0x537472696E67733A20686578206C656E67746820696E73756666696369656E74 PUSH1 0x40 DUP3 ADD MSTORE PUSH1 0x60 ADD SWAP1 JUMP JUMPDEST PUSH1 0x20 DUP1 DUP3 MSTORE PUSH1 0x48 SWAP1 DUP3 ADD MSTORE PUSH32 0x4E42543A20416E74695768616C652070726F74656374696F6E20697320656E61 PUSH1 0x40 DUP3 ADD MSTORE PUSH32 0x626C6564202D20302E3125206F662077686F6C6520737570706C792070657220 PUSH1 0x60 DUP3 ADD MSTORE PUSH8 0x3A3930B739B332B9 PUSH1 0xC1 SHL PUSH1 0x80 DUP3 ADD MSTORE PUSH1 0xA0 ADD SWAP1 JUMP JUMPDEST PUSH1 0x20 DUP1 DUP3 MSTORE PUSH1 0xA SWAP1 DUP3 ADD MSTORE PUSH10 0x1390950E88085DD7D8DD PUSH1 0xB2 SHL PUSH1 0x40 DUP3 ADD MSTORE PUSH1 0x60 ADD SWAP1 JUMP JUMPDEST PUSH1 0x20 DUP1 DUP3 MSTORE PUSH1 0xC SWAP1 DUP3 ADD MSTORE PUSH12 0x1390950E8808585B5BDD5B9D PUSH1 0xA2 SHL PUSH1 0x40 DUP3 ADD MSTORE PUSH1 0x60 ADD SWAP1 JUMP JUMPDEST PUSH1 0x20 DUP1 DUP3 MSTORE PUSH1 0x14 SWAP1 DUP3 ADD MSTORE PUSH20 0x4E42543A20216163636F756E7442616C616E6365 PUSH1 0x60 SHL PUSH1 0x40 DUP3 ADD MSTORE PUSH1 0x60 ADD SWAP1 JUMP JUMPDEST PUSH1 0x20 DUP1 DUP3 MSTORE PUSH1 0x10 SWAP1 DUP3 ADD MSTORE PUSH16 0x27212A1D1010A927A622AFA0A226A4A7 PUSH1 0x81 SHL PUSH1 0x40 DUP3 ADD MSTORE PUSH1 0x60 ADD SWAP1 JUMP JUMPDEST PUSH1 0x20 DUP1 DUP3 MSTORE PUSH1 0xD SWAP1 DUP3 ADD MSTORE PUSH13 0x4E42543A202162616C616E6365 PUSH1 0x98 SHL PUSH1 0x40 DUP3 ADD MSTORE PUSH1 0x60 ADD SWAP1 JUMP JUMPDEST PUSH1 0x20 DUP1 DUP3 MSTORE PUSH1 0xE SWAP1 DUP3 ADD MSTORE PUSH14 0x1390950E880858DBDB9D1C9858DD PUSH1 0x92 SHL PUSH1 0x40 DUP3 ADD MSTORE PUSH1 0x60 ADD SWAP1 JUMP JUMPDEST PUSH1 0x20 DUP1 DUP3 MSTORE PUSH1 0xE SWAP1 DUP3 ADD MSTORE PUSH14 0x27212A1D1010B9B2B6332FB932B3 PUSH1 0x91 SHL PUSH1 0x40 DUP3 ADD MSTORE PUSH1 0x60 ADD SWAP1 JUMP JUMPDEST PUSH1 0x20 DUP1 DUP3 MSTORE PUSH1 0xB SWAP1 DUP3 ADD MSTORE PUSH11 0x27212A1D1010B43AB6B0B7 PUSH1 0xA9 SHL PUSH1 0x40 DUP3 ADD MSTORE PUSH1 0x60 ADD SWAP1 JUMP JUMPDEST PUSH1 0x20 DUP1 DUP3 MSTORE PUSH1 0xA SWAP1 DUP3 ADD MSTORE PUSH10 0x27212A1D1010B13AB937 PUSH1 0xB1 SHL PUSH1 0x40 DUP3 ADD MSTORE PUSH1 0x60 ADD SWAP1 JUMP JUMPDEST PUSH1 0x20 DUP1 DUP3 MSTORE PUSH1 0x10 SWAP1 DUP3 ADD MSTORE PUSH16 0x27212A1D1010B6BABA3AB0B62FB932B3 PUSH1 0x81 SHL PUSH1 0x40 DUP3 ADD MSTORE PUSH1 0x60 ADD SWAP1 JUMP JUMPDEST PUSH1 0x20 DUP1 DUP3 MSTORE PUSH1 0x1A SWAP1 DUP3 ADD MSTORE PUSH32 0x4E42543A2021524F4C455F504152454E545F4F525F41444D494E000000000000 PUSH1 0x40 DUP3 ADD MSTORE PUSH1 0x60 ADD SWAP1 JUMP JUMPDEST PUSH1 0x20 DUP1 DUP3 MSTORE PUSH1 0x2F SWAP1 DUP3 ADD MSTORE PUSH32 0x416363657373436F6E74726F6C3A2063616E206F6E6C792072656E6F756E6365 PUSH1 0x40 DUP3 ADD MSTORE PUSH15 0x103937B632B9903337B91039B2B633 PUSH1 0x89 SHL PUSH1 0x60 DUP3 ADD MSTORE PUSH1 0x80 ADD SWAP1 JUMP JUMPDEST DUP2 MLOAD DUP2 MSTORE PUSH1 0x20 DUP1 DUP4 ADD MLOAD SWAP1 DUP3 ADD MSTORE PUSH1 0x40 DUP1 DUP4 ADD MLOAD SWAP1 DUP3 ADD MSTORE PUSH1 0x60 SWAP2 DUP3 ADD MLOAD SWAP2 DUP2 ADD SWAP2 SWAP1 SWAP2 MSTORE PUSH1 0x80 ADD SWAP1 JUMP JUMPDEST PUSH1 0x0 DUP3 NOT DUP3 GT ISZERO PUSH2 0x3155 JUMPI PUSH2 0x3155 PUSH2 0x3216 JUMP JUMPDEST POP ADD SWAP1 JUMP JUMPDEST PUSH1 0x0 DUP3 PUSH2 0x3169 JUMPI PUSH2 0x3169 PUSH2 0x322C JUMP JUMPDEST POP DIV SWAP1 JUMP JUMPDEST PUSH1 0x0 DUP2 PUSH1 0x0 NOT DIV DUP4 GT DUP3 ISZERO ISZERO AND ISZERO PUSH2 0x3188 JUMPI PUSH2 0x3188 PUSH2 0x3216 JUMP JUMPDEST POP MUL SWAP1 JUMP JUMPDEST PUSH1 0x0 DUP3 DUP3 LT ISZERO PUSH2 0x319F JUMPI PUSH2 0x319F PUSH2 0x3216 JUMP JUMPDEST POP SUB SWAP1 JUMP JUMPDEST PUSH1 0x0 JUMPDEST DUP4 DUP2 LT ISZERO PUSH2 0x31BF JUMPI DUP2 DUP2 ADD MLOAD DUP4 DUP3 ADD MSTORE PUSH1 0x20 ADD PUSH2 0x31A7 JUMP JUMPDEST DUP4 DUP2 GT ISZERO PUSH2 0xFDC JUMPI POP POP PUSH1 0x0 SWAP2 ADD MSTORE JUMP JUMPDEST PUSH1 0x0 DUP2 PUSH2 0x31DF JUMPI PUSH2 0x31DF PUSH2 0x3216 JUMP JUMPDEST POP PUSH1 0x0 NOT ADD SWAP1 JUMP JUMPDEST PUSH1 0x0 PUSH1 0x0 NOT DUP3 EQ ISZERO PUSH2 0x31FB JUMPI PUSH2 0x31FB PUSH2 0x3216 JUMP JUMPDEST POP PUSH1 0x1 ADD SWAP1 JUMP JUMPDEST PUSH1 0x0 DUP3 PUSH2 0x3211 JUMPI PUSH2 0x3211 PUSH2 0x322C JUMP JUMPDEST POP MOD SWAP1 JUMP JUMPDEST PUSH4 0x4E487B71 PUSH1 0xE0 SHL PUSH1 0x0 MSTORE PUSH1 0x11 PUSH1 0x4 MSTORE PUSH1 0x24 PUSH1 0x0 REVERT JUMPDEST PUSH4 0x4E487B71 PUSH1 0xE0 SHL PUSH1 0x0 MSTORE PUSH1 0x12 PUSH1 0x4 MSTORE PUSH1 0x24 PUSH1 0x0 REVERT INVALID 0xEE GT MULMOD PUSH29 0xBB9C334EC21A7934061732A460DF1EDB6B52F0B9464FEEA55DD71BFFD2 PUSH21 0x88087FCA693ADCF8B477EC0CA6CF5134D7F124FDC5 GT 0xEB 0x25 DUP6 0x22 0xC4 0xF 0xD7 0x2B 0xC8 PUSH10 0xE1D528FD91A06036810C PUSH32 0x25F082E044B8F0374C3D1D4B1FB5490DD90AEA2646970667358221220A18DC3 PUSH1 0x98 LOG3 CODESIZE SWAP5 0xCA PC CREATE LOG3 PUSH1 0x9A 0xC6 0xCE 0xB5 SWAP11 SWAP6 PUSH4 0x49C8020E DUP9 0xCE SWAP2 DUP7 PUSH9 0x866DE064736F6C6343 STOP ADDMOD ADD STOP CALLER "
		},
		"gasEstimates": {
			"creation": {
				"codeDepositCost": "2603200",
				"executionCost": "infinite",
				"totalCost": "infinite"
			},
			"external": {
				"ROLE_ADMIN()": "295",
				"ROLE_CUSTOM_TAX()": "infinite",
				"ROLE_EXCLUDE_FROM_BALANCE()": "361",
				"ROLE_PARENT()": "infinite",
				"ROLE_WHITELIST()": "infinite",
				"batchBurnAndReward()": "1185",
				"botTaxPercent()": "1097",
				"cachedMultiplier()": "1162",
				"chargeCustomTax(uint256,uint256)": "infinite",
				"clearReferrerRewards(address)": "infinite",
				"customTaxPercents(address)": "1345",
				"enableAntiBot()": "1131",
				"enableAntiWhale()": "1163",
				"fillTestReferralTemporaryBalances(address[])": "infinite",
				"filterNonZeroReferrals(address[])": "infinite",
				"firstLevelRefPercent()": "1074",
				"getBalance(address,uint256)": "infinite",
				"getCachedReferrerRewards(address)": "infinite",
				"getCalculatedReferrerRewards(address,address[])": "infinite",
				"getRealBalance(address,uint256)": "infinite",
				"getRealBalanceTeamVestingContract(uint256)": "infinite",
				"getRewardsBalance()": "infinite",
				"getRoleAdmin(bytes32)": "1293",
				"getRoleMember(bytes32,uint256)": "infinite",
				"getRoleMemberCount(bytes32)": "infinite",
				"getTemporaryReferralRealAmountsBulk(address[])": "infinite",
				"getTotalSupply()": "infinite",
				"grantRole(bytes32,address)": "infinite",
				"grantRolesBulk((bytes32,address)[])": "infinite",
				"hasRole(bytes32,address)": "1473",
				"howManyBlocksAgoReceived()": "1140",
				"howManyBlocksAgoSent()": "1139",
				"humanTaxPercent()": "1184",
				"lastCachedTimestamp()": "1096",
				"prepareHumanAddressMintOrBurnRewardsAmounts(bool,address,uint256)": "infinite",
				"prepareTaxAmounts((address,address,uint256,uint256,uint256))": "infinite",
				"realTotalSupply()": "1116",
				"refTaxPercent()": "1140",
				"referralToReferrer(address)": "1365",
				"referrerRealBalances(address)": "1322",
				"registerReferral(address,address)": "infinite",
				"renounceRole(bytes32,address)": "infinite",
				"revokeRole(bytes32,address)": "infinite",
				"rewardsBalance()": "1163",
				"secondLevelRefPercent()": "1161",
				"secondsBetweenUpdates()": "1141",
				"supportsInterface(bytes4)": "infinite",
				"temporaryReferralRealAmounts(address)": "1369",
				"updateAntiBot(bool)": "22286",
				"updateCustomTaxForAddress(address,uint256)": "infinite",
				"updateHowManyBlocksAgo(uint256,uint256)": "41411",
				"updateReCachePeriod(uint256)": "21375",
				"updateReferrersRewards(address[])": "infinite",
				"updateTaxPercent(uint256,uint256,uint256,uint256,uint256)": "101508"
			},
			"internal": {
				"delayedUpdateCacheMultiplier()": "infinite",
				"forcedUpdateCacheMultiplier()": "infinite",
				"isContract(address)": "infinite",
				"isNotContract(address)": "715"
			}
		},
		"methodIdentifiers": {
			"ROLE_ADMIN()": "d391014b",
			"ROLE_CUSTOM_TAX()": "503a77ae",
			"ROLE_EXCLUDE_FROM_BALANCE()": "d590b71e",
			"ROLE_PARENT()": "5d8ec25f",
			"ROLE_WHITELIST()": "9e01e31c",
			"batchBurnAndReward()": "1336a98f",
			"botTaxPercent()": "1857b512",
			"cachedMultiplier()": "36177818",
			"chargeCustomTax(uint256,uint256)": "36098758",
			"clearReferrerRewards(address)": "e3556819",
			"customTaxPercents(address)": "d415a82d",
			"enableAntiBot()": "241ec3be",
			"enableAntiWhale()": "5c7ffc88",
			"fillTestReferralTemporaryBalances(address[])": "a5c9b607",
			"filterNonZeroReferrals(address[])": "82e17b65",
			"firstLevelRefPercent()": "7b197233",
			"getBalance(address,uint256)": "2b04e840",
			"getCachedReferrerRewards(address)": "4abd991d",
			"getCalculatedReferrerRewards(address,address[])": "00245783",
			"getRealBalance(address,uint256)": "5cdba003",
			"getRealBalanceTeamVestingContract(uint256)": "cb123637",
			"getRewardsBalance()": "858a135d",
			"getRoleAdmin(bytes32)": "248a9ca3",
			"getRoleMember(bytes32,uint256)": "9010d07c",
			"getRoleMemberCount(bytes32)": "ca15c873",
			"getTemporaryReferralRealAmountsBulk(address[])": "68a2972f",
			"getTotalSupply()": "c4e41b22",
			"grantRole(bytes32,address)": "2f2ff15d",
			"grantRolesBulk((bytes32,address)[])": "03ed957f",
			"hasRole(bytes32,address)": "91d14854",
			"howManyBlocksAgoReceived()": "837376af",
			"howManyBlocksAgoSent()": "aa46d678",
			"humanTaxPercent()": "87d1f05d",
			"lastCachedTimestamp()": "40142e55",
			"prepareHumanAddressMintOrBurnRewardsAmounts(bool,address,uint256)": "42e58a63",
			"prepareTaxAmounts((address,address,uint256,uint256,uint256))": "815a61e0",
			"realTotalSupply()": "ef356a79",
			"refTaxPercent()": "975ea108",
			"referralToReferrer(address)": "deaf0fa1",
			"referrerRealBalances(address)": "e91c4652",
			"registerReferral(address,address)": "5603b9f9",
			"renounceRole(bytes32,address)": "36568abe",
			"revokeRole(bytes32,address)": "d547741f",
			"rewardsBalance()": "131f2e53",
			"secondLevelRefPercent()": "b3830c8c",
			"secondsBetweenUpdates()": "3e6e4496",
			"supportsInterface(bytes4)": "01ffc9a7",
			"temporaryReferralRealAmounts(address)": "0f3ebe5d",
			"updateAntiBot(bool)": "4aa2205d",
			"updateCustomTaxForAddress(address,uint256)": "fc087572",
			"updateHowManyBlocksAgo(uint256,uint256)": "e69594e3",
			"updateReCachePeriod(uint256)": "ef357df1",
			"updateReferrersRewards(address[])": "3830551a",
			"updateTaxPercent(uint256,uint256,uint256,uint256,uint256)": "6bc833f3"
		}
	},
	"abi": [
		{
			"inputs": [],
			"stateMutability": "nonpayable",
			"type": "constructor"
		},
		{
			"anonymous": false,
			"inputs": [
				{
					"indexed": false,
					"internalType": "address",
					"name": "from",
					"type": "address"
				},
				{
					"indexed": false,
					"internalType": "address",
					"name": "to",
					"type": "address"
				},
				{
					"indexed": false,
					"internalType": "uint256",
					"name": "transferAmount",
					"type": "uint256"
				},
				{
					"indexed": false,
					"internalType": "uint256",
					"name": "taxedAmount",
					"type": "uint256"
				}
			],
			"name": "BotTransactionDetected",
			"type": "event"
		},
		{
			"anonymous": false,
			"inputs": [
				{
					"indexed": false,
					"internalType": "uint256",
					"name": "newMultiplier",
					"type": "uint256"
				}
			],
			"name": "MultiplierUpdated",
			"type": "event"
		},
		{
			"anonymous": false,
			"inputs": [
				{
					"indexed": false,
					"internalType": "address",
					"name": "referral",
					"type": "address"
				},
				{
					"indexed": false,
					"internalType": "address",
					"name": "referrer",
					"type": "address"
				}
			],
			"name": "ReferralRegistered",
			"type": "event"
		},
		{
			"anonymous": false,
			"inputs": [
				{
					"indexed": false,
					"internalType": "address",
					"name": "referral",
					"type": "address"
				},
				{
					"indexed": false,
					"internalType": "address",
					"name": "referrerFrom",
					"type": "address"
				},
				{
					"indexed": false,
					"internalType": "address",
					"name": "referrerTo",
					"type": "address"
				}
			],
			"name": "ReferrerReplaced",
			"type": "event"
		},
		{
			"anonymous": false,
			"inputs": [
				{
					"indexed": false,
					"internalType": "address",
					"name": "referrer",
					"type": "address"
				},
				{
					"indexed": false,
					"internalType": "uint256",
					"name": "amount",
					"type": "uint256"
				}
			],
			"name": "ReferrerRewardUpdated",
			"type": "event"
		},
		{
			"anonymous": false,
			"inputs": [
				{
					"indexed": true,
					"internalType": "bytes32",
					"name": "role",
					"type": "bytes32"
				},
				{
					"indexed": true,
					"internalType": "bytes32",
					"name": "previousAdminRole",
					"type": "bytes32"
				},
				{
					"indexed": true,
					"internalType": "bytes32",
					"name": "newAdminRole",
					"type": "bytes32"
				}
			],
			"name": "RoleAdminChanged",
			"type": "event"
		},
		{
			"anonymous": false,
			"inputs": [
				{
					"indexed": true,
					"internalType": "bytes32",
					"name": "role",
					"type": "bytes32"
				},
				{
					"indexed": true,
					"internalType": "address",
					"name": "account",
					"type": "address"
				},
				{
					"indexed": true,
					"internalType": "address",
					"name": "sender",
					"type": "address"
				}
			],
			"name": "RoleGranted",
			"type": "event"
		},
		{
			"anonymous": false,
			"inputs": [
				{
					"indexed": true,
					"internalType": "bytes32",
					"name": "role",
					"type": "bytes32"
				},
				{
					"indexed": true,
					"internalType": "address",
					"name": "account",
					"type": "address"
				},
				{
					"indexed": true,
					"internalType": "address",
					"name": "sender",
					"type": "address"
				}
			],
			"name": "RoleRevoked",
			"type": "event"
		},
		{
			"inputs": [],
			"name": "ROLE_ADMIN",
			"outputs": [
				{
					"internalType": "bytes32",
					"name": "",
					"type": "bytes32"
				}
			],
			"stateMutability": "view",
			"type": "function"
		},
		{
			"inputs": [],
			"name": "ROLE_CUSTOM_TAX",
			"outputs": [
				{
					"internalType": "bytes32",
					"name": "",
					"type": "bytes32"
				}
			],
			"stateMutability": "view",
			"type": "function"
		},
		{
			"inputs": [],
			"name": "ROLE_EXCLUDE_FROM_BALANCE",
			"outputs": [
				{
					"internalType": "bytes32",
					"name": "",
					"type": "bytes32"
				}
			],
			"stateMutability": "view",
			"type": "function"
		},
		{
			"inputs": [],
			"name": "ROLE_PARENT",
			"outputs": [
				{
					"internalType": "bytes32",
					"name": "",
					"type": "bytes32"
				}
			],
			"stateMutability": "view",
			"type": "function"
		},
		{
			"inputs": [],
			"name": "ROLE_WHITELIST",
			"outputs": [
				{
					"internalType": "bytes32",
					"name": "",
					"type": "bytes32"
				}
			],
			"stateMutability": "view",
			"type": "function"
		},
		{
			"inputs": [],
			"name": "batchBurnAndReward",
			"outputs": [
				{
					"internalType": "uint256",
					"name": "",
					"type": "uint256"
				}
			],
			"stateMutability": "view",
			"type": "function"
		},
		{
			"inputs": [],
			"name": "botTaxPercent",
			"outputs": [
				{
					"internalType": "uint256",
					"name": "",
					"type": "uint256"
				}
			],
			"stateMutability": "view",
			"type": "function"
		},
		{
			"inputs": [],
			"name": "cachedMultiplier",
			"outputs": [
				{
					"internalType": "uint256",
					"name": "",
					"type": "uint256"
				}
			],
			"stateMutability": "view",
			"type": "function"
		},
		{
			"inputs": [
				{
					"internalType": "uint256",
					"name": "taxAmount",
					"type": "uint256"
				},
				{
					"internalType": "uint256",
					"name": "accountBalance",
					"type": "uint256"
				}
			],
			"name": "chargeCustomTax",
			"outputs": [
				{
					"internalType": "uint256",
					"name": "",
					"type": "uint256"
				}
			],
			"stateMutability": "nonpayable",
			"type": "function"
		},
		{
			"inputs": [
				{
					"internalType": "address",
					"name": "addr",
					"type": "address"
				}
			],
			"name": "clearReferrerRewards",
			"outputs": [],
			"stateMutability": "nonpayable",
			"type": "function"
		},
		{
			"inputs": [
				{
					"internalType": "address",
					"name": "",
					"type": "address"
				}
			],
			"name": "customTaxPercents",
			"outputs": [
				{
					"internalType": "uint256",
					"name": "",
					"type": "uint256"
				}
			],
			"stateMutability": "view",
			"type": "function"
		},
		{
			"inputs": [],
			"name": "enableAntiBot",
			"outputs": [
				{
					"internalType": "bool",
					"name": "",
					"type": "bool"
				}
			],
			"stateMutability": "view",
			"type": "function"
		},
		{
			"inputs": [],
			"name": "enableAntiWhale",
			"outputs": [
				{
					"internalType": "bool",
					"name": "",
					"type": "bool"
				}
			],
			"stateMutability": "view",
			"type": "function"
		},
		{
			"inputs": [
				{
					"internalType": "address[]",
					"name": "referrals",
					"type": "address[]"
				}
			],
			"name": "fillTestReferralTemporaryBalances",
			"outputs": [],
			"stateMutability": "nonpayable",
			"type": "function"
		},
		{
			"inputs": [
				{
					"internalType": "address[]",
					"name": "referrals",
					"type": "address[]"
				}
			],
			"name": "filterNonZeroReferrals",
			"outputs": [
				{
					"internalType": "address[]",
					"name": "",
					"type": "address[]"
				}
			],
			"stateMutability": "view",
			"type": "function"
		},
		{
			"inputs": [],
			"name": "firstLevelRefPercent",
			"outputs": [
				{
					"internalType": "uint256",
					"name": "",
					"type": "uint256"
				}
			],
			"stateMutability": "view",
			"type": "function"
		},
		{
			"inputs": [
				{
					"internalType": "address",
					"name": "account",
					"type": "address"
				},
				{
					"internalType": "uint256",
					"name": "accountBalance",
					"type": "uint256"
				}
			],
			"name": "getBalance",
			"outputs": [
				{
					"internalType": "uint256",
					"name": "",
					"type": "uint256"
				}
			],
			"stateMutability": "view",
			"type": "function"
		},
		{
			"inputs": [
				{
					"internalType": "address",
					"name": "referrer",
					"type": "address"
				}
			],
			"name": "getCachedReferrerRewards",
			"outputs": [
				{
					"internalType": "uint256",
					"name": "",
					"type": "uint256"
				}
			],
			"stateMutability": "view",
			"type": "function"
		},
		{
			"inputs": [
				{
					"internalType": "address",
					"name": "referrer",
					"type": "address"
				},
				{
					"internalType": "address[]",
					"name": "referrals",
					"type": "address[]"
				}
			],
			"name": "getCalculatedReferrerRewards",
			"outputs": [
				{
					"internalType": "uint256",
					"name": "",
					"type": "uint256"
				}
			],
			"stateMutability": "view",
			"type": "function"
		},
		{
			"inputs": [
				{
					"internalType": "address",
					"name": "account",
					"type": "address"
				},
				{
					"internalType": "uint256",
					"name": "accountBalance",
					"type": "uint256"
				}
			],
			"name": "getRealBalance",
			"outputs": [
				{
					"internalType": "uint256",
					"name": "",
					"type": "uint256"
				}
			],
			"stateMutability": "view",
			"type": "function"
		},
		{
			"inputs": [
				{
					"internalType": "uint256",
					"name": "accountBalance",
					"type": "uint256"
				}
			],
			"name": "getRealBalanceTeamVestingContract",
			"outputs": [
				{
					"internalType": "uint256",
					"name": "",
					"type": "uint256"
				}
			],
			"stateMutability": "view",
			"type": "function"
		},
		{
			"inputs": [],
			"name": "getRewardsBalance",
			"outputs": [
				{
					"internalType": "uint256",
					"name": "",
					"type": "uint256"
				}
			],
			"stateMutability": "view",
			"type": "function"
		},
		{
			"inputs": [
				{
					"internalType": "bytes32",
					"name": "role",
					"type": "bytes32"
				}
			],
			"name": "getRoleAdmin",
			"outputs": [
				{
					"internalType": "bytes32",
					"name": "",
					"type": "bytes32"
				}
			],
			"stateMutability": "view",
			"type": "function"
		},
		{
			"inputs": [
				{
					"internalType": "bytes32",
					"name": "role",
					"type": "bytes32"
				},
				{
					"internalType": "uint256",
					"name": "index",
					"type": "uint256"
				}
			],
			"name": "getRoleMember",
			"outputs": [
				{
					"internalType": "address",
					"name": "",
					"type": "address"
				}
			],
			"stateMutability": "view",
			"type": "function"
		},
		{
			"inputs": [
				{
					"internalType": "bytes32",
					"name": "role",
					"type": "bytes32"
				}
			],
			"name": "getRoleMemberCount",
			"outputs": [
				{
					"internalType": "uint256",
					"name": "",
					"type": "uint256"
				}
			],
			"stateMutability": "view",
			"type": "function"
		},
		{
			"inputs": [
				{
					"internalType": "address[]",
					"name": "addrs",
					"type": "address[]"
				}
			],
			"name": "getTemporaryReferralRealAmountsBulk",
			"outputs": [
				{
					"components": [
						{
							"internalType": "address",
							"name": "addr",
							"type": "address"
						},
						{
							"internalType": "uint256",
							"name": "realBalance",
							"type": "uint256"
						}
					],
					"internalType": "struct TemporaryReferralRealAmountsBulk[]",
					"name": "",
					"type": "tuple[]"
				}
			],
			"stateMutability": "view",
			"type": "function"
		},
		{
			"inputs": [],
			"name": "getTotalSupply",
			"outputs": [
				{
					"internalType": "uint256",
					"name": "",
					"type": "uint256"
				}
			],
			"stateMutability": "view",
			"type": "function"
		},
		{
			"inputs": [
				{
					"internalType": "bytes32",
					"name": "role",
					"type": "bytes32"
				},
				{
					"internalType": "address",
					"name": "account",
					"type": "address"
				}
			],
			"name": "grantRole",
			"outputs": [],
			"stateMutability": "nonpayable",
			"type": "function"
		},
		{
			"inputs": [
				{
					"components": [
						{
							"internalType": "bytes32",
							"name": "role",
							"type": "bytes32"
						},
						{
							"internalType": "address",
							"name": "addr",
							"type": "address"
						}
					],
					"internalType": "struct NoBotsTech.RoleAccess[]",
					"name": "roles",
					"type": "tuple[]"
				}
			],
			"name": "grantRolesBulk",
			"outputs": [],
			"stateMutability": "nonpayable",
			"type": "function"
		},
		{
			"inputs": [
				{
					"internalType": "bytes32",
					"name": "role",
					"type": "bytes32"
				},
				{
					"internalType": "address",
					"name": "account",
					"type": "address"
				}
			],
			"name": "hasRole",
			"outputs": [
				{
					"internalType": "bool",
					"name": "",
					"type": "bool"
				}
			],
			"stateMutability": "view",
			"type": "function"
		},
		{
			"inputs": [],
			"name": "howManyBlocksAgoReceived",
			"outputs": [
				{
					"internalType": "uint256",
					"name": "",
					"type": "uint256"
				}
			],
			"stateMutability": "view",
			"type": "function"
		},
		{
			"inputs": [],
			"name": "howManyBlocksAgoSent",
			"outputs": [
				{
					"internalType": "uint256",
					"name": "",
					"type": "uint256"
				}
			],
			"stateMutability": "view",
			"type": "function"
		},
		{
			"inputs": [],
			"name": "humanTaxPercent",
			"outputs": [
				{
					"internalType": "uint256",
					"name": "",
					"type": "uint256"
				}
			],
			"stateMutability": "view",
			"type": "function"
		},
		{
			"inputs": [],
			"name": "lastCachedTimestamp",
			"outputs": [
				{
					"internalType": "uint256",
					"name": "",
					"type": "uint256"
				}
			],
			"stateMutability": "view",
			"type": "function"
		},
		{
			"inputs": [
				{
					"internalType": "bool",
					"name": "isMint",
					"type": "bool"
				},
				{
					"internalType": "address",
					"name": "account",
					"type": "address"
				},
				{
					"internalType": "uint256",
					"name": "desiredAmountToMintOrBurn",
					"type": "uint256"
				}
			],
			"name": "prepareHumanAddressMintOrBurnRewardsAmounts",
			"outputs": [
				{
					"internalType": "uint256",
					"name": "",
					"type": "uint256"
				}
			],
			"stateMutability": "nonpayable",
			"type": "function"
		},
		{
			"inputs": [
				{
					"components": [
						{
							"internalType": "address",
							"name": "sender",
							"type": "address"
						},
						{
							"internalType": "address",
							"name": "recipient",
							"type": "address"
						},
						{
							"internalType": "uint256",
							"name": "transferAmount",
							"type": "uint256"
						},
						{
							"internalType": "uint256",
							"name": "senderBalance",
							"type": "uint256"
						},
						{
							"internalType": "uint256",
							"name": "recipientBalance",
							"type": "uint256"
						}
					],
					"internalType": "struct TaxAmountsInput",
					"name": "taxAmountsInput",
					"type": "tuple"
				}
			],
			"name": "prepareTaxAmounts",
			"outputs": [
				{
					"components": [
						{
							"internalType": "uint256",
							"name": "senderBalance",
							"type": "uint256"
						},
						{
							"internalType": "uint256",
							"name": "recipientBalance",
							"type": "uint256"
						},
						{
							"internalType": "uint256",
							"name": "burnAndRewardAmount",
							"type": "uint256"
						},
						{
							"internalType": "uint256",
							"name": "recipientGetsAmount",
							"type": "uint256"
						}
					],
					"internalType": "struct TaxAmountsOutput",
					"name": "taxAmountsOutput",
					"type": "tuple"
				}
			],
			"stateMutability": "nonpayable",
			"type": "function"
		},
		{
			"inputs": [],
			"name": "realTotalSupply",
			"outputs": [
				{
					"internalType": "uint256",
					"name": "",
					"type": "uint256"
				}
			],
			"stateMutability": "view",
			"type": "function"
		},
		{
			"inputs": [],
			"name": "refTaxPercent",
			"outputs": [
				{
					"internalType": "uint256",
					"name": "",
					"type": "uint256"
				}
			],
			"stateMutability": "view",
			"type": "function"
		},
		{
			"inputs": [
				{
					"internalType": "address",
					"name": "",
					"type": "address"
				}
			],
			"name": "referralToReferrer",
			"outputs": [
				{
					"internalType": "address",
					"name": "",
					"type": "address"
				}
			],
			"stateMutability": "view",
			"type": "function"
		},
		{
			"inputs": [
				{
					"internalType": "address",
					"name": "",
					"type": "address"
				}
			],
			"name": "referrerRealBalances",
			"outputs": [
				{
					"internalType": "uint256",
					"name": "",
					"type": "uint256"
				}
			],
			"stateMutability": "view",
			"type": "function"
		},
		{
			"inputs": [
				{
					"internalType": "address",
					"name": "referral",
					"type": "address"
				},
				{
					"internalType": "address",
					"name": "referrer",
					"type": "address"
				}
			],
			"name": "registerReferral",
			"outputs": [],
			"stateMutability": "nonpayable",
			"type": "function"
		},
		{
			"inputs": [
				{
					"internalType": "bytes32",
					"name": "role",
					"type": "bytes32"
				},
				{
					"internalType": "address",
					"name": "account",
					"type": "address"
				}
			],
			"name": "renounceRole",
			"outputs": [],
			"stateMutability": "nonpayable",
			"type": "function"
		},
		{
			"inputs": [
				{
					"internalType": "bytes32",
					"name": "role",
					"type": "bytes32"
				},
				{
					"internalType": "address",
					"name": "account",
					"type": "address"
				}
			],
			"name": "revokeRole",
			"outputs": [],
			"stateMutability": "nonpayable",
			"type": "function"
		},
		{
			"inputs": [],
			"name": "rewardsBalance",
			"outputs": [
				{
					"internalType": "uint256",
					"name": "",
					"type": "uint256"
				}
			],
			"stateMutability": "view",
			"type": "function"
		},
		{
			"inputs": [],
			"name": "secondLevelRefPercent",
			"outputs": [
				{
					"internalType": "uint256",
					"name": "",
					"type": "uint256"
				}
			],
			"stateMutability": "view",
			"type": "function"
		},
		{
			"inputs": [],
			"name": "secondsBetweenUpdates",
			"outputs": [
				{
					"internalType": "uint256",
					"name": "",
					"type": "uint256"
				}
			],
			"stateMutability": "view",
			"type": "function"
		},
		{
			"inputs": [
				{
					"internalType": "bytes4",
					"name": "interfaceId",
					"type": "bytes4"
				}
			],
			"name": "supportsInterface",
			"outputs": [
				{
					"internalType": "bool",
					"name": "",
					"type": "bool"
				}
			],
			"stateMutability": "view",
			"type": "function"
		},
		{
			"inputs": [
				{
					"internalType": "address",
					"name": "",
					"type": "address"
				}
			],
			"name": "temporaryReferralRealAmounts",
			"outputs": [
				{
					"internalType": "uint256",
					"name": "",
					"type": "uint256"
				}
			],
			"stateMutability": "view",
			"type": "function"
		},
		{
			"inputs": [
				{
					"internalType": "bool",
					"name": "antiBot",
					"type": "bool"
				}
			],
			"name": "updateAntiBot",
			"outputs": [],
			"stateMutability": "nonpayable",
			"type": "function"
		},
		{
			"inputs": [
				{
					"internalType": "address",
					"name": "addr",
					"type": "address"
				},
				{
					"internalType": "uint256",
					"name": "newCustomTaxPercent",
					"type": "uint256"
				}
			],
			"name": "updateCustomTaxForAddress",
			"outputs": [],
			"stateMutability": "nonpayable",
			"type": "function"
		},
		{
			"inputs": [
				{
					"internalType": "uint256",
					"name": "_howManyBlocksAgoReceived",
					"type": "uint256"
				},
				{
					"internalType": "uint256",
					"name": "_howManyBlocksAgoSent",
					"type": "uint256"
				}
			],
			"name": "updateHowManyBlocksAgo",
			"outputs": [],
			"stateMutability": "nonpayable",
			"type": "function"
		},
		{
			"inputs": [
				{
					"internalType": "uint256",
					"name": "_secondsBetweenUpdates",
					"type": "uint256"
				}
			],
			"name": "updateReCachePeriod",
			"outputs": [],
			"stateMutability": "nonpayable",
			"type": "function"
		},
		{
			"inputs": [
				{
					"internalType": "address[]",
					"name": "referrals",
					"type": "address[]"
				}
			],
			"name": "updateReferrersRewards",
			"outputs": [],
			"stateMutability": "nonpayable",
			"type": "function"
		},
		{
			"inputs": [
				{
					"internalType": "uint256",
					"name": "_refTaxPercent",
					"type": "uint256"
				},
				{
					"internalType": "uint256",
					"name": "_botTaxPercent",
					"type": "uint256"
				},
				{
					"internalType": "uint256",
					"name": "_humanTaxPercent",
					"type": "uint256"
				},
				{
					"internalType": "uint256",
					"name": "_firstLevelRefPercent",
					"type": "uint256"
				},
				{
					"internalType": "uint256",
					"name": "_secondLevelRefPercent",
					"type": "uint256"
				}
			],
			"name": "updateTaxPercent",
			"outputs": [],
			"stateMutability": "nonpayable",
			"type": "function"
		}
	]
}