{
	"data": {
		"bytecode": {
			"linkReferences": {},
			"object": "608060405262028b2c60028190556200001c90620f424062000484565b600355670de0b6b3a764000060045542600655600060075561c350600a55620f1b30600b556000600c55620249f0600d55629e3400600e55620186a0600f5563013c6800601055620111706011556301da9c0060125561c3506013556127106015553480156200008b57600080fd5b5062000099600033620002c1565b620000c57fb2e9f492f90b23409f94892daea9d3b46c549678e9e57181d007527a18b8b57333620002c1565b620000f17f9a20f14de69c79d5ceb9fda78dc50c2b99fb2122f9beaab4a028ef2dc21ba2c833620002c1565b6200010062278d004262000484565b60185562000112622e24804262000484565b73539faa851d86781009ec30df437d794bcd090c8f600052601a6020527f69275706388d1e9c6528e76f4ffc8c0a08c38eb48a5d889001a44964193738d7556200016062b892004262000484565b73aaa96eb7c2b9c22144f8b742a5afdabab3b6781f600052601a6020527fb507c2307534bd07e9430bc927fbbcd97368b29ebcf77b1c6fc141eb1c6b8ae855620001af6301b703804262000484565b73bbb6ae3051c5b486836a32193d8d191572c7cc1d600052601a6020527fe6998979585362b8f453a933adfdc64947ef38037b38462ab4363719b3aaa3a655620001fe63031704004262000484565b73987de8c41cb9e166e51a4913e560c08c2760efe56000908152601a6020527f1174c6a3fb24e2da284e9301069edfbb5e2a6a861cee539e3919eb646646579891909155600160178190556016829055906200026390670de0b6b3a764000062000462565b6200026f919062000441565b6200028390670de0b6b3a764000062000426565b60048190556040519081527f4dbe4840d7465bd162f67814cea0b519567a2e0e578bcde61e7f4ced361e5a3d9060200160405180910390a1620004b4565b620002d882826200030460201b620013941760201c565b6000828152600160209081526040909120620002ff918390620013a262000314821b17901c565b505050565b62000310828262000334565b5050565b60006200032b836001600160a01b038416620003d4565b90505b92915050565b6000828152602081815260408083206001600160a01b038516845290915290205460ff1662000310576000828152602081815260408083206001600160a01b03851684529091529020805460ff19166001179055620003903390565b6001600160a01b0316816001600160a01b0316837f2f8788117e7eff1d82e926ec794901d17c78024a50270940304540a733656f0d60405160405180910390a45050565b60008181526001830160205260408120546200041d575081546001818101845560008481526020808220909301849055845484825282860190935260409020919091556200032e565b5060006200032e565b600082198211156200043c576200043c6200049e565b500190565b6000826200045d57634e487b7160e01b81526012600452602481fd5b500490565b60008160001904831182151516156200047f576200047f6200049e565b500290565b6000828210156200049957620004996200049e565b500390565b634e487b7160e01b600052601160045260246000fd5b6125fe80620004c46000396000f3fe608060405234801561001057600080fd5b50600436106103825760003560e01c80637207786f116101de578063ca15c8731161010f578063e62684db116100ad578063ef356a791161007c578063ef356a7914610776578063f687e46e1461077f578063fc78bab3146107a6578063fed77a80146107af57600080fd5b8063e62684db14610749578063e7baf7f414610752578063e8ac6e4e1461075b578063ebc272411461076357600080fd5b8063d7070ae2116100e9578063d7070ae2146106f0578063da9b835a146106f9578063dfd5e12914610702578063e35cae3d1461072257600080fd5b8063ca15c873146106c2578063d391014b146106d5578063d547741f146106dd57600080fd5b80639be810cc1161017c578063ba19f4da11610156578063ba19f4da14610695578063bc6537e81461069e578063c4a8a169146106b1578063c4e41b22146106ba57600080fd5b80639be810cc1461064b5780639f632f4614610679578063b6c5ab7b1461068257600080fd5b80639010d07c116101b85780639010d07c146105e557806391d14854146105f85780639219023f1461062f5780639394aa661461064257600080fd5b80637207786f1461058e578063815a61e014610597578063858a135d146105dd57600080fd5b8063342c1919116102b857806342e58a63116102565780635cdba003116102305780635cdba003146105605780635d04ba0d1461057357806360fd5fd71461057c57806362109feb1461058557600080fd5b806342e58a63146105135780634df95397146105265780635a986f7c1461053957600080fd5b806336568abe1161029257806336568abe146104db578063372affbf146104ee5780633f156350146104f757806340142e551461050a57600080fd5b8063342c1919146104ac57806336098758146104bf57806336177818146104d257600080fd5b80631336a98f116103255780632b04e840116102ff5780632b04e8401461046a5780632cf136f31461047d5780632f2ff15d14610490578063326e9539146104a357600080fd5b80631336a98f146104355780631857b5121461043e578063248a9ca31461044757600080fd5b806303ed957f1161036157806303ed957f146103f1578063102a7a9614610406578063119d789814610419578063131f2e531461042c57600080fd5b8062686ddc1461038757806301bf9180146103b757806301ffc9a7146103ce575b600080fd5b60085461039a906001600160a01b031681565b6040516001600160a01b0390911681526020015b60405180910390f35b6103c060105481565b6040519081526020016103ae565b6103e16103dc3660046122db565b6107c2565b60405190151581526020016103ae565b6104046103ff3660046121a7565b610806565b005b60095461039a906001600160a01b031681565b610404610427366004612273565b61089f565b6103c060165481565b6103c060055481565b6103c0600b5481565b6103c0610455366004612273565b60009081526020819052604090206001015490565b6103c061047836600461217c565b6108b1565b61040461048b3660046123cf565b6108e7565b61040461049e36600461228b565b6108ff565b6103c060155481565b6104046104ba366004612273565b610926565b6103c06104cd3660046123cf565b610938565b6103c060045481565b6104046104e936600461228b565b61099e565b6103c0600e5481565b6104046105053660046123cf565b6109c0565b6103c060065481565b6103c0610521366004612233565b6109d8565b610404610534366004612144565b610b7f565b6103c07fb2e9f492f90b23409f94892daea9d3b46c549678e9e57181d007527a18b8b57381565b6103c061056e36600461217c565b610bbb565b6103c060035481565b6103c060125481565b6103c0600a5481565b6103c0600d5481565b6105aa6105a53660046123a0565b610bdd565b6040516103ae91908151815260208083015190820152604080830151908201526060918201519181019190915260800190565b6103c06110cd565b61039a6105f33660046122ba565b6110e2565b6103e161060636600461228b565b6000918252602082815260408084206001600160a01b0393909316845291905290205460ff1690565b61040461063d366004612273565b611101565b6103c060135481565b61065e610659366004612144565b611113565b604080518251815260209283015192810192909252016103ae565b6103c060185481565b6104046106903660046123cf565b6112b5565b6103c060025481565b6104046106ac366004612144565b6112cd565b6103c0600c5481565b6103c0611309565b6103c06106d0366004612273565b61132c565b6103c0600081565b6104046106eb36600461228b565b611343565b6103c060195481565b6103c060075481565b6103c0610710366004612144565b601a6020526000908152604090205481565b6103c07f9a20f14de69c79d5ceb9fda78dc50c2b99fb2122f9beaab4a028ef2dc21ba2c881565b6103c060145481565b6103c0600f5481565b61040461134d565b6104046107713660046123e1565b611361565b6103c060175481565b6103c07f789f97575f27a6b4ceb7f0dff24d6988bf9835006797a01cfaedc572e88a2c7b81565b6103c060115481565b6104046107bd3660046123cf565b61137c565b60006001600160e01b031982167f5a05180f0000000000000000000000000000000000000000000000000000000014806108005750610800826113b7565b92915050565b6000610812813361141e565b60005b828110156108995761088784848381811061084057634e487b7160e01b600052603260045260246000fd5b9050604002016000013585858481811061086a57634e487b7160e01b600052603260045260246000fd5b90506040020160200160208101906108829190612144565b61149c565b8061089181612571565b915050610815565b50505050565b60006108ab813361141e565b50600a55565b6000806108be813361141e565b670de0b6b3a7640000600454846108d591906124f8565b6108df91906124d8565b949350505050565b60006108f3813361141e565b50600b91909155600c55565b61090982826114a6565b600082815260016020526040902061092190826113a2565b505050565b6000610932813361141e565b50600755565b600080610945813361141e565b60045460009061095d670de0b6b3a7640000876124f8565b61096791906124d8565b90506109738185612517565b9350806005600082825461098791906124c0565b9091555061099590506114cc565b50919392505050565b6109a882826114eb565b60008281526001602052604090206109219082611573565b60006109cc813361141e565b50600291909155600355565b6000806109e5813361141e565b6004546000906109fd85670de0b6b3a76400006124f8565b610a0791906124d8565b90506000610a158286612517565b90508615610b44578060166000828254610a2f91906124c0565b925050819055508160176000828254610a4891906124c0565b90915550506008546040516370a0823160e01b81526001600160a01b03888116600483015260009216906370a082319060240160206040518083038186803b158015610a9357600080fd5b505afa158015610aa7573d6000803e3d6000fd5b505050506040513d601f19601f82011682018060405250810190610acb91906123b7565b90506000610ad98883611588565b9050610ae68183896115f9565b6001600160a01b0389166000818152601a6020908152604091829020849055815192835282018390529192507fcad0bb17eb0b6304aee337cbfc3e250cf2fc8676ee11eb80da0737961a95a3c2910160405180910390a15050610b75565b8060166000828254610b569190612517565b925050819055508160176000828254610b6f9190612517565b90915550505b5095945050505050565b6000610b8b813361141e565b506009805473ffffffffffffffffffffffffffffffffffffffff19166001600160a01b0392909216919091179055565b600080610bc8813361141e565b6004546108d5670de0b6b3a7640000856124f8565b610c086040518060800160405280600081526020016000815260200160008152602001600081525090565b6000610c14813361141e565b600454600090610c30670de0b6b3a764000060408701356124f8565b610c3a91906124d8565b905060008111610c915760405162461bcd60e51b815260206004820152600c60248201527f4e42543a2021616d6f756e74000000000000000000000000000000000000000060448201526064015b60405180910390fd5b6009546008546000916001600160a01b039081169163606237319116610cba6020890189612144565b610cca60408a0160208b01612144565b60405160e085901b6001600160e01b03191681526001600160a01b0393841660048201529183166024830152909116604482015260640160a06040518083038186803b158015610d1957600080fd5b505afa158015610d2d573d6000803e3d6000fd5b505050506040513d601f19601f82011682018060405250810190610d519190612303565b905080602001511580610d85575080602001518015610d745750620f4240601554105b8015610d8557506014548560400135105b610dd15760405162461bcd60e51b815260206004820152600f60248201527f4e42543a20216275795f6c696d697400000000000000000000000000000000006044820152606401610c88565b6000601a81610de36020890189612144565b6001600160a01b03166001600160a01b03168152602001908152602001600020544211610e11576000610e46565b601a6000610e226020890189612144565b6001600160a01b03168152602081019190915260400160002054610e469042612517565b9050600082604001518015610e5c5750600c5482105b158015610e67575082515b905060008115610ea957836040015115610ea4576000610e8684611681565b9050620f4240610e9682886124f8565b610ea091906124d8565b9150505b610f68565b8360200151610f6857620f4240600b5486610ec491906124f8565b610ece91906124d8565b90506000620f4240600b548a60400135610ee891906124f8565b610ef291906124d8565b90507fa1a76b56d422be0a4c14ccc1281231aa006e67b6e03dcc433a873dc285491e51610f2260208b018b612144565b610f3260408c0160208d01612144565b604080516001600160a01b039384168152929091166020830152808c0135908201526060810183905260800160405180910390a1505b8360400151611033576000610f90610f8660408b0160208c01612144565b8a60800135611588565b9050610fa1818a60800135886115f9565b905080601a6000610fb860408d0160208e01612144565b6001600160a01b03166001600160a01b03168152602001908152602001600020819055507fcad0bb17eb0b6304aee337cbfc3e250cf2fc8676ee11eb80da0737961a95a3c28960200160208101906110109190612144565b604080516001600160a01b039092168252602082018490520160405180910390a1505b600061103f8287612517565b905061104f8660608b0135612517565b885261105f8160808b01356124c0565b6020890152600580548391906000906110799084906124c0565b9091555050600454670de0b6b3a76400009061109590846124f8565b61109f91906124d8565b6040808a018290526110b491908b0135612517565b60608901526110c16114cc565b50505050505050919050565b6000806110da813361141e565b505060165490565b60008281526001602052604081206110fa9083611773565b9392505050565b600061110d813361141e565b50601555565b60408051808201909152600080825260208201526009546040517feaa8f7e30000000000000000000000000000000000000000000000000000000081526001600160a01b0384811660048301529091169063eaa8f7e39060240160206040518083038186803b15801561118557600080fd5b505afa158015611199573d6000803e3d6000fd5b505050506040513d601f19601f820116820180604052508101906111bd9190612217565b156111d457600b5481526012546020820152919050565b6008546040516370a0823160e01b81526001600160a01b03848116600483015260009216906370a082319060240160206040518083038186803b15801561121a57600080fd5b505afa15801561122e573d6000803e3d6000fd5b505050506040513d601f19601f8201168201806040525081019061125291906123b7565b905060006112608483611588565b9050600081421161127257600061127c565b61127c8242612517565b905061128781611681565b845260125481106112995760006112a7565b806012546112a79190612517565b60208501525050505b919050565b60006112c1813361141e565b50600f91909155601055565b60006112d9813361141e565b506008805473ffffffffffffffffffffffffffffffffffffffff19166001600160a01b0392909216919091179055565b600080611316813361141e565b60165460175461132691906124c0565b91505090565b60008181526001602052604081206108009061177f565b6109a88282611789565b60065442111561135f5761135f6117af565b565b600061136d813361141e565b50601192909255601255601355565b6000611388813361141e565b50600d91909155600e55565b61139e8282611c51565b5050565b60006110fa836001600160a01b038416611cef565b60006001600160e01b031982167f7965db0b00000000000000000000000000000000000000000000000000000000148061080057507f01ffc9a7000000000000000000000000000000000000000000000000000000006001600160e01b0319831614610800565b6000828152602081815260408083206001600160a01b038516845290915290205460ff1661139e5761145a816001600160a01b03166014611d3e565b611465836020611d3e565b60405160200161147692919061240c565b60408051601f198184030181529082905262461bcd60e51b8252610c889160040161248d565b6109098282611394565b6000828152602081905260409020600101546114c2813361141e565b6109218383611c51565b6007546006546114dc91906124c0565b42111561135f5761135f6117af565b6001600160a01b03811633146115695760405162461bcd60e51b815260206004820152602f60248201527f416363657373436f6e74726f6c3a2063616e206f6e6c792072656e6f756e636560448201527f20726f6c657320666f722073656c6600000000000000000000000000000000006064820152608401610c88565b61139e8282611f65565b60006110fa836001600160a01b038416611fe4565b6001600160a01b0382166000908152601a602052604081205442901580156115af57508215155b156115bd57506018546110fa565b6001600160a01b0384166000908152601a6020526040902054156110fa575050506001600160a01b03166000908152601a602052604090205490565b6000808460125461160a91906124c0565b9050600042821161161c576000611626565b6116264283612517565b9050600061163485876124c0565b60125461164190876124f8565b61164b84896124f8565b61165591906124c0565b61165f91906124d8565b90508161166c8289612517565b61167691906124c0565b979650505050505050565b600060125482111561169557505060135490565b6010548211156116d4576010546012546116af9190612517565b826012546116bd9190612517565b6011546116ca91906124f8565b61080091906124d8565b600e5482111561172c57600e546010546116ee9190612517565b600e546116fb9084612517565b601154600f5461170b9190612517565b61171591906124f8565b61171f91906124d8565b600f546108009190612517565b600c5482111561176b57600e5482600f54600d5461174a9190612517565b61175491906124f8565b61175e91906124d8565b600d546108009190612517565b5050600b5490565b60006110fa8383612101565b6000610800825490565b6000828152602081905260409020600101546117a5813361141e565b6109218383611f65565b4260065560055415611ad1576000620f4240600a546005546117d191906124f8565b6117db91906124d8565b90506000816005546117ed9190612517565b9050806016600082825461180191906124c0565b90915550506005546017805460009061181b908490612517565b909155505060006005556016548215611a6157600061185b7fb2e9f492f90b23409f94892daea9d3b46c549678e9e57181d007527a18b8b57360006110e2565b90506000611874620f4240670de0b6b3a76400006124f8565b60025460045461188490886124f8565b61188e91906124f8565b61189891906124d8565b600854604051630bb9ff5d60e01b81526001600160a01b038581166004830152602482018490529293509116908190630bb9ff5d90604401600060405180830381600087803b1580156118ea57600080fd5b505af11580156118fe573d6000803e3d6000fd5b50505050600061192f7f9a20f14de69c79d5ceb9fda78dc50c2b99fb2122f9beaab4a028ef2dc21ba2c860006110e2565b90506000611948620f4240670de0b6b3a76400006124f8565b600354600454611958908b6124f8565b61196291906124f8565b61196c91906124d8565b604051630bb9ff5d60e01b81526001600160a01b0387811660048301526024820183905291925090841690630bb9ff5d90604401600060405180830381600087803b1580156119ba57600080fd5b505af11580156119ce573d6000803e3d6000fd5b505050601687905550604080516001600160a01b0384168152602081018390527f6c7e719a577895a75e196dff96d6a2c868e7d082e78310a21851a8e9b099b652910160405180910390a1604080516001600160a01b0387168152602081018690527f6c7e719a577895a75e196dff96d6a2c868e7d082e78310a21851a8e9b099b652910160405180910390a150505050505b601754601654611a7990670de0b6b3a76400006124f8565b611a8391906124d8565b611a9590670de0b6b3a76400006124c0565b60048190556040519081527f4dbe4840d7465bd162f67814cea0b519567a2e0e578bcde61e7f4ced361e5a3d9060200160405180910390a15050505b620f4240601554101561135f576008546040517f06fb1a07000000000000000000000000000000000000000000000000000000008152600360048201526000916001600160a01b0316906306fb1a079060240160206040518083038186803b158015611b3c57600080fd5b505afa158015611b50573d6000803e3d6000fd5b505050506040513d601f19601f82011682018060405250810190611b749190612160565b6008546040516370a0823160e01b81526001600160a01b038084166004830152929350600092909116906370a082319060240160206040518083038186803b158015611bbf57600080fd5b505afa158015611bd3573d6000803e3d6000fd5b505050506040513d601f19601f82011682018060405250810190611bf791906123b7565b9050620f424060155482611c0b91906124f8565b611c1591906124d8565b60148190556040519081527f7ba725e56dcc09f610b29c747f1d1afab653f8048e4b527c0baedf8ed35858cb9060200160405180910390a15050565b6000828152602081815260408083206001600160a01b038516845290915290205460ff1661139e576000828152602081815260408083206001600160a01b03851684529091529020805460ff19166001179055611cab3390565b6001600160a01b0316816001600160a01b0316837f2f8788117e7eff1d82e926ec794901d17c78024a50270940304540a733656f0d60405160405180910390a45050565b6000818152600183016020526040812054611d3657508154600181810184556000848152602080822090930184905584548482528286019093526040902091909155610800565b506000610800565b60606000611d4d8360026124f8565b611d589060026124c0565b67ffffffffffffffff811115611d7e57634e487b7160e01b600052604160045260246000fd5b6040519080825280601f01601f191660200182016040528015611da8576020820181803683370190505b5090507f300000000000000000000000000000000000000000000000000000000000000081600081518110611ded57634e487b7160e01b600052603260045260246000fd5b60200101906001600160f81b031916908160001a9053507f780000000000000000000000000000000000000000000000000000000000000081600181518110611e4657634e487b7160e01b600052603260045260246000fd5b60200101906001600160f81b031916908160001a9053506000611e6a8460026124f8565b611e759060016124c0565b90505b6001811115611f16577f303132333435363738396162636465660000000000000000000000000000000085600f1660108110611ec457634e487b7160e01b600052603260045260246000fd5b1a60f81b828281518110611ee857634e487b7160e01b600052603260045260246000fd5b60200101906001600160f81b031916908160001a90535060049490941c93611f0f8161255a565b9050611e78565b5083156110fa5760405162461bcd60e51b815260206004820181905260248201527f537472696e67733a20686578206c656e67746820696e73756666696369656e746044820152606401610c88565b6000828152602081815260408083206001600160a01b038516845290915290205460ff161561139e576000828152602081815260408083206001600160a01b0385168085529252808320805460ff1916905551339285917ff6391f5c32d9c69d2a47ea670b442974b53935d1edc7fd64eb21e047a839171b9190a45050565b600081815260018301602052604081205480156120f7576000612008600183612517565b855490915060009061201c90600190612517565b905081811461209d57600086600001828154811061204a57634e487b7160e01b600052603260045260246000fd5b906000526020600020015490508087600001848154811061207b57634e487b7160e01b600052603260045260246000fd5b6000918252602080832090910192909255918252600188019052604090208390555b85548690806120bc57634e487b7160e01b600052603160045260246000fd5b600190038181906000526020600020016000905590558560010160008681526020019081526020016000206000905560019350505050610800565b6000915050610800565b600082600001828154811061212657634e487b7160e01b600052603260045260246000fd5b9060005260206000200154905092915050565b80516112b0816125ba565b600060208284031215612155578081fd5b81356110fa816125a2565b600060208284031215612171578081fd5b81516110fa816125a2565b6000806040838503121561218e578081fd5b8235612199816125a2565b946020939093013593505050565b600080602083850312156121b9578182fd5b823567ffffffffffffffff808211156121d0578384fd5b818501915085601f8301126121e3578384fd5b8135818111156121f1578485fd5b8660208260061b8501011115612205578485fd5b60209290920196919550909350505050565b600060208284031215612228578081fd5b81516110fa816125ba565b600080600060608486031215612247578081fd5b8335612252816125ba565b92506020840135612262816125a2565b929592945050506040919091013590565b600060208284031215612284578081fd5b5035919050565b6000806040838503121561229d578182fd5b8235915060208301356122af816125a2565b809150509250929050565b600080604083850312156122cc578182fd5b50508035926020909101359150565b6000602082840312156122ec578081fd5b81356001600160e01b0319811681146110fa578182fd5b600060a08284031215612314578081fd5b60405160a0810181811067ffffffffffffffff8211171561234357634e487b7160e01b83526041600452602483fd5b6040528251612351816125ba565b81526020830151612361816125ba565b602082015261237260408401612139565b604082015261238360608401612139565b606082015261239460808401612139565b60808201529392505050565b600060a082840312156123b1578081fd5b50919050565b6000602082840312156123c8578081fd5b5051919050565b600080604083850312156122cc578081fd5b6000806000606084860312156123f5578081fd5b505081359360208301359350604090920135919050565b7f416363657373436f6e74726f6c3a206163636f756e742000000000000000000081526000835161244481601785016020880161252e565b7f206973206d697373696e6720726f6c6520000000000000000000000000000000601791840191820152835161248181602884016020880161252e565b01602801949350505050565b60208152600082518060208401526124ac81604085016020870161252e565b601f01601f19169190910160400192915050565b600082198211156124d3576124d361258c565b500190565b6000826124f357634e487b7160e01b81526012600452602481fd5b500490565b60008160001904831182151516156125125761251261258c565b500290565b6000828210156125295761252961258c565b500390565b60005b83811015612549578181015183820152602001612531565b838111156108995750506000910152565b6000816125695761256961258c565b506000190190565b60006000198214156125855761258561258c565b5060010190565b634e487b7160e01b600052601160045260246000fd5b6001600160a01b03811681146125b757600080fd5b50565b80151581146125b757600080fdfea26469706673582212207a353a7cd8acdee29d55038c69665f22f572b5396eb4b83d3f158befa0e3a8a464736f6c63430008040033",
			"opcodes": "PUSH1 0x80 PUSH1 0x40 MSTORE PUSH3 0x28B2C PUSH1 0x2 DUP2 SWAP1 SSTORE PUSH3 0x1C SWAP1 PUSH3 0xF4240 PUSH3 0x484 JUMP JUMPDEST PUSH1 0x3 SSTORE PUSH8 0xDE0B6B3A7640000 PUSH1 0x4 SSTORE TIMESTAMP PUSH1 0x6 SSTORE PUSH1 0x0 PUSH1 0x7 SSTORE PUSH2 0xC350 PUSH1 0xA SSTORE PUSH3 0xF1B30 PUSH1 0xB SSTORE PUSH1 0x0 PUSH1 0xC SSTORE PUSH3 0x249F0 PUSH1 0xD SSTORE PUSH3 0x9E3400 PUSH1 0xE SSTORE PUSH3 0x186A0 PUSH1 0xF SSTORE PUSH4 0x13C6800 PUSH1 0x10 SSTORE PUSH3 0x11170 PUSH1 0x11 SSTORE PUSH4 0x1DA9C00 PUSH1 0x12 SSTORE PUSH2 0xC350 PUSH1 0x13 SSTORE PUSH2 0x2710 PUSH1 0x15 SSTORE CALLVALUE DUP1 ISZERO PUSH3 0x8B JUMPI PUSH1 0x0 DUP1 REVERT JUMPDEST POP PUSH3 0x99 PUSH1 0x0 CALLER PUSH3 0x2C1 JUMP JUMPDEST PUSH3 0xC5 PUSH32 0xB2E9F492F90B23409F94892DAEA9D3B46C549678E9E57181D007527A18B8B573 CALLER PUSH3 0x2C1 JUMP JUMPDEST PUSH3 0xF1 PUSH32 0x9A20F14DE69C79D5CEB9FDA78DC50C2B99FB2122F9BEAAB4A028EF2DC21BA2C8 CALLER PUSH3 0x2C1 JUMP JUMPDEST PUSH3 0x100 PUSH3 0x278D00 TIMESTAMP PUSH3 0x484 JUMP JUMPDEST PUSH1 0x18 SSTORE PUSH3 0x112 PUSH3 0x2E2480 TIMESTAMP PUSH3 0x484 JUMP JUMPDEST PUSH20 0x539FAA851D86781009EC30DF437D794BCD090C8F PUSH1 0x0 MSTORE PUSH1 0x1A PUSH1 0x20 MSTORE PUSH32 0x69275706388D1E9C6528E76F4FFC8C0A08C38EB48A5D889001A44964193738D7 SSTORE PUSH3 0x160 PUSH3 0xB89200 TIMESTAMP PUSH3 0x484 JUMP JUMPDEST PUSH20 0xAAA96EB7C2B9C22144F8B742A5AFDABAB3B6781F PUSH1 0x0 MSTORE PUSH1 0x1A PUSH1 0x20 MSTORE PUSH32 0xB507C2307534BD07E9430BC927FBBCD97368B29EBCF77B1C6FC141EB1C6B8AE8 SSTORE PUSH3 0x1AF PUSH4 0x1B70380 TIMESTAMP PUSH3 0x484 JUMP JUMPDEST PUSH20 0xBBB6AE3051C5B486836A32193D8D191572C7CC1D PUSH1 0x0 MSTORE PUSH1 0x1A PUSH1 0x20 MSTORE PUSH32 0xE6998979585362B8F453A933ADFDC64947EF38037B38462AB4363719B3AAA3A6 SSTORE PUSH3 0x1FE PUSH4 0x3170400 TIMESTAMP PUSH3 0x484 JUMP JUMPDEST PUSH20 0x987DE8C41CB9E166E51A4913E560C08C2760EFE5 PUSH1 0x0 SWAP1 DUP2 MSTORE PUSH1 0x1A PUSH1 0x20 MSTORE PUSH32 0x1174C6A3FB24E2DA284E9301069EDFBB5E2A6A861CEE539E3919EB6466465798 SWAP2 SWAP1 SWAP2 SSTORE PUSH1 0x1 PUSH1 0x17 DUP2 SWAP1 SSTORE PUSH1 0x16 DUP3 SWAP1 SSTORE SWAP1 PUSH3 0x263 SWAP1 PUSH8 0xDE0B6B3A7640000 PUSH3 0x462 JUMP JUMPDEST PUSH3 0x26F SWAP2 SWAP1 PUSH3 0x441 JUMP JUMPDEST PUSH3 0x283 SWAP1 PUSH8 0xDE0B6B3A7640000 PUSH3 0x426 JUMP JUMPDEST PUSH1 0x4 DUP2 SWAP1 SSTORE PUSH1 0x40 MLOAD SWAP1 DUP2 MSTORE PUSH32 0x4DBE4840D7465BD162F67814CEA0B519567A2E0E578BCDE61E7F4CED361E5A3D SWAP1 PUSH1 0x20 ADD PUSH1 0x40 MLOAD DUP1 SWAP2 SUB SWAP1 LOG1 PUSH3 0x4B4 JUMP JUMPDEST PUSH3 0x2D8 DUP3 DUP3 PUSH3 0x304 PUSH1 0x20 SHL PUSH3 0x1394 OR PUSH1 0x20 SHR JUMP JUMPDEST PUSH1 0x0 DUP3 DUP2 MSTORE PUSH1 0x1 PUSH1 0x20 SWAP1 DUP2 MSTORE PUSH1 0x40 SWAP1 SWAP2 KECCAK256 PUSH3 0x2FF SWAP2 DUP4 SWAP1 PUSH3 0x13A2 PUSH3 0x314 DUP3 SHL OR SWAP1 SHR JUMP JUMPDEST POP POP POP JUMP JUMPDEST PUSH3 0x310 DUP3 DUP3 PUSH3 0x334 JUMP JUMPDEST POP POP JUMP JUMPDEST PUSH1 0x0 PUSH3 0x32B DUP4 PUSH1 0x1 PUSH1 0x1 PUSH1 0xA0 SHL SUB DUP5 AND PUSH3 0x3D4 JUMP JUMPDEST SWAP1 POP JUMPDEST SWAP3 SWAP2 POP POP JUMP JUMPDEST PUSH1 0x0 DUP3 DUP2 MSTORE PUSH1 0x20 DUP2 DUP2 MSTORE PUSH1 0x40 DUP1 DUP4 KECCAK256 PUSH1 0x1 PUSH1 0x1 PUSH1 0xA0 SHL SUB DUP6 AND DUP5 MSTORE SWAP1 SWAP2 MSTORE SWAP1 KECCAK256 SLOAD PUSH1 0xFF AND PUSH3 0x310 JUMPI PUSH1 0x0 DUP3 DUP2 MSTORE PUSH1 0x20 DUP2 DUP2 MSTORE PUSH1 0x40 DUP1 DUP4 KECCAK256 PUSH1 0x1 PUSH1 0x1 PUSH1 0xA0 SHL SUB DUP6 AND DUP5 MSTORE SWAP1 SWAP2 MSTORE SWAP1 KECCAK256 DUP1 SLOAD PUSH1 0xFF NOT AND PUSH1 0x1 OR SWAP1 SSTORE PUSH3 0x390 CALLER SWAP1 JUMP JUMPDEST PUSH1 0x1 PUSH1 0x1 PUSH1 0xA0 SHL SUB AND DUP2 PUSH1 0x1 PUSH1 0x1 PUSH1 0xA0 SHL SUB AND DUP4 PUSH32 0x2F8788117E7EFF1D82E926EC794901D17C78024A50270940304540A733656F0D PUSH1 0x40 MLOAD PUSH1 0x40 MLOAD DUP1 SWAP2 SUB SWAP1 LOG4 POP POP JUMP JUMPDEST PUSH1 0x0 DUP2 DUP2 MSTORE PUSH1 0x1 DUP4 ADD PUSH1 0x20 MSTORE PUSH1 0x40 DUP2 KECCAK256 SLOAD PUSH3 0x41D JUMPI POP DUP2 SLOAD PUSH1 0x1 DUP2 DUP2 ADD DUP5 SSTORE PUSH1 0x0 DUP5 DUP2 MSTORE PUSH1 0x20 DUP1 DUP3 KECCAK256 SWAP1 SWAP4 ADD DUP5 SWAP1 SSTORE DUP5 SLOAD DUP5 DUP3 MSTORE DUP3 DUP7 ADD SWAP1 SWAP4 MSTORE PUSH1 0x40 SWAP1 KECCAK256 SWAP2 SWAP1 SWAP2 SSTORE PUSH3 0x32E JUMP JUMPDEST POP PUSH1 0x0 PUSH3 0x32E JUMP JUMPDEST PUSH1 0x0 DUP3 NOT DUP3 GT ISZERO PUSH3 0x43C JUMPI PUSH3 0x43C PUSH3 0x49E JUMP JUMPDEST POP ADD SWAP1 JUMP JUMPDEST PUSH1 0x0 DUP3 PUSH3 0x45D JUMPI PUSH4 0x4E487B71 PUSH1 0xE0 SHL DUP2 MSTORE PUSH1 0x12 PUSH1 0x4 MSTORE PUSH1 0x24 DUP2 REVERT JUMPDEST POP DIV SWAP1 JUMP JUMPDEST PUSH1 0x0 DUP2 PUSH1 0x0 NOT DIV DUP4 GT DUP3 ISZERO ISZERO AND ISZERO PUSH3 0x47F JUMPI PUSH3 0x47F PUSH3 0x49E JUMP JUMPDEST POP MUL SWAP1 JUMP JUMPDEST PUSH1 0x0 DUP3 DUP3 LT ISZERO PUSH3 0x499 JUMPI PUSH3 0x499 PUSH3 0x49E JUMP JUMPDEST POP SUB SWAP1 JUMP JUMPDEST PUSH4 0x4E487B71 PUSH1 0xE0 SHL PUSH1 0x0 MSTORE PUSH1 0x11 PUSH1 0x4 MSTORE PUSH1 0x24 PUSH1 0x0 REVERT JUMPDEST PUSH2 0x25FE DUP1 PUSH3 0x4C4 PUSH1 0x0 CODECOPY PUSH1 0x0 RETURN INVALID PUSH1 0x80 PUSH1 0x40 MSTORE CALLVALUE DUP1 ISZERO PUSH2 0x10 JUMPI PUSH1 0x0 DUP1 REVERT JUMPDEST POP PUSH1 0x4 CALLDATASIZE LT PUSH2 0x382 JUMPI PUSH1 0x0 CALLDATALOAD PUSH1 0xE0 SHR DUP1 PUSH4 0x7207786F GT PUSH2 0x1DE JUMPI DUP1 PUSH4 0xCA15C873 GT PUSH2 0x10F JUMPI DUP1 PUSH4 0xE62684DB GT PUSH2 0xAD JUMPI DUP1 PUSH4 0xEF356A79 GT PUSH2 0x7C JUMPI DUP1 PUSH4 0xEF356A79 EQ PUSH2 0x776 JUMPI DUP1 PUSH4 0xF687E46E EQ PUSH2 0x77F JUMPI DUP1 PUSH4 0xFC78BAB3 EQ PUSH2 0x7A6 JUMPI DUP1 PUSH4 0xFED77A80 EQ PUSH2 0x7AF JUMPI PUSH1 0x0 DUP1 REVERT JUMPDEST DUP1 PUSH4 0xE62684DB EQ PUSH2 0x749 JUMPI DUP1 PUSH4 0xE7BAF7F4 EQ PUSH2 0x752 JUMPI DUP1 PUSH4 0xE8AC6E4E EQ PUSH2 0x75B JUMPI DUP1 PUSH4 0xEBC27241 EQ PUSH2 0x763 JUMPI PUSH1 0x0 DUP1 REVERT JUMPDEST DUP1 PUSH4 0xD7070AE2 GT PUSH2 0xE9 JUMPI DUP1 PUSH4 0xD7070AE2 EQ PUSH2 0x6F0 JUMPI DUP1 PUSH4 0xDA9B835A EQ PUSH2 0x6F9 JUMPI DUP1 PUSH4 0xDFD5E129 EQ PUSH2 0x702 JUMPI DUP1 PUSH4 0xE35CAE3D EQ PUSH2 0x722 JUMPI PUSH1 0x0 DUP1 REVERT JUMPDEST DUP1 PUSH4 0xCA15C873 EQ PUSH2 0x6C2 JUMPI DUP1 PUSH4 0xD391014B EQ PUSH2 0x6D5 JUMPI DUP1 PUSH4 0xD547741F EQ PUSH2 0x6DD JUMPI PUSH1 0x0 DUP1 REVERT JUMPDEST DUP1 PUSH4 0x9BE810CC GT PUSH2 0x17C JUMPI DUP1 PUSH4 0xBA19F4DA GT PUSH2 0x156 JUMPI DUP1 PUSH4 0xBA19F4DA EQ PUSH2 0x695 JUMPI DUP1 PUSH4 0xBC6537E8 EQ PUSH2 0x69E JUMPI DUP1 PUSH4 0xC4A8A169 EQ PUSH2 0x6B1 JUMPI DUP1 PUSH4 0xC4E41B22 EQ PUSH2 0x6BA JUMPI PUSH1 0x0 DUP1 REVERT JUMPDEST DUP1 PUSH4 0x9BE810CC EQ PUSH2 0x64B JUMPI DUP1 PUSH4 0x9F632F46 EQ PUSH2 0x679 JUMPI DUP1 PUSH4 0xB6C5AB7B EQ PUSH2 0x682 JUMPI PUSH1 0x0 DUP1 REVERT JUMPDEST DUP1 PUSH4 0x9010D07C GT PUSH2 0x1B8 JUMPI DUP1 PUSH4 0x9010D07C EQ PUSH2 0x5E5 JUMPI DUP1 PUSH4 0x91D14854 EQ PUSH2 0x5F8 JUMPI DUP1 PUSH4 0x9219023F EQ PUSH2 0x62F JUMPI DUP1 PUSH4 0x9394AA66 EQ PUSH2 0x642 JUMPI PUSH1 0x0 DUP1 REVERT JUMPDEST DUP1 PUSH4 0x7207786F EQ PUSH2 0x58E JUMPI DUP1 PUSH4 0x815A61E0 EQ PUSH2 0x597 JUMPI DUP1 PUSH4 0x858A135D EQ PUSH2 0x5DD JUMPI PUSH1 0x0 DUP1 REVERT JUMPDEST DUP1 PUSH4 0x342C1919 GT PUSH2 0x2B8 JUMPI DUP1 PUSH4 0x42E58A63 GT PUSH2 0x256 JUMPI DUP1 PUSH4 0x5CDBA003 GT PUSH2 0x230 JUMPI DUP1 PUSH4 0x5CDBA003 EQ PUSH2 0x560 JUMPI DUP1 PUSH4 0x5D04BA0D EQ PUSH2 0x573 JUMPI DUP1 PUSH4 0x60FD5FD7 EQ PUSH2 0x57C JUMPI DUP1 PUSH4 0x62109FEB EQ PUSH2 0x585 JUMPI PUSH1 0x0 DUP1 REVERT JUMPDEST DUP1 PUSH4 0x42E58A63 EQ PUSH2 0x513 JUMPI DUP1 PUSH4 0x4DF95397 EQ PUSH2 0x526 JUMPI DUP1 PUSH4 0x5A986F7C EQ PUSH2 0x539 JUMPI PUSH1 0x0 DUP1 REVERT JUMPDEST DUP1 PUSH4 0x36568ABE GT PUSH2 0x292 JUMPI DUP1 PUSH4 0x36568ABE EQ PUSH2 0x4DB JUMPI DUP1 PUSH4 0x372AFFBF EQ PUSH2 0x4EE JUMPI DUP1 PUSH4 0x3F156350 EQ PUSH2 0x4F7 JUMPI DUP1 PUSH4 0x40142E55 EQ PUSH2 0x50A JUMPI PUSH1 0x0 DUP1 REVERT JUMPDEST DUP1 PUSH4 0x342C1919 EQ PUSH2 0x4AC JUMPI DUP1 PUSH4 0x36098758 EQ PUSH2 0x4BF JUMPI DUP1 PUSH4 0x36177818 EQ PUSH2 0x4D2 JUMPI PUSH1 0x0 DUP1 REVERT JUMPDEST DUP1 PUSH4 0x1336A98F GT PUSH2 0x325 JUMPI DUP1 PUSH4 0x2B04E840 GT PUSH2 0x2FF JUMPI DUP1 PUSH4 0x2B04E840 EQ PUSH2 0x46A JUMPI DUP1 PUSH4 0x2CF136F3 EQ PUSH2 0x47D JUMPI DUP1 PUSH4 0x2F2FF15D EQ PUSH2 0x490 JUMPI DUP1 PUSH4 0x326E9539 EQ PUSH2 0x4A3 JUMPI PUSH1 0x0 DUP1 REVERT JUMPDEST DUP1 PUSH4 0x1336A98F EQ PUSH2 0x435 JUMPI DUP1 PUSH4 0x1857B512 EQ PUSH2 0x43E JUMPI DUP1 PUSH4 0x248A9CA3 EQ PUSH2 0x447 JUMPI PUSH1 0x0 DUP1 REVERT JUMPDEST DUP1 PUSH4 0x3ED957F GT PUSH2 0x361 JUMPI DUP1 PUSH4 0x3ED957F EQ PUSH2 0x3F1 JUMPI DUP1 PUSH4 0x102A7A96 EQ PUSH2 0x406 JUMPI DUP1 PUSH4 0x119D7898 EQ PUSH2 0x419 JUMPI DUP1 PUSH4 0x131F2E53 EQ PUSH2 0x42C JUMPI PUSH1 0x0 DUP1 REVERT JUMPDEST DUP1 PUSH3 0x686DDC EQ PUSH2 0x387 JUMPI DUP1 PUSH4 0x1BF9180 EQ PUSH2 0x3B7 JUMPI DUP1 PUSH4 0x1FFC9A7 EQ PUSH2 0x3CE JUMPI JUMPDEST PUSH1 0x0 DUP1 REVERT JUMPDEST PUSH1 0x8 SLOAD PUSH2 0x39A SWAP1 PUSH1 0x1 PUSH1 0x1 PUSH1 0xA0 SHL SUB AND DUP2 JUMP JUMPDEST PUSH1 0x40 MLOAD PUSH1 0x1 PUSH1 0x1 PUSH1 0xA0 SHL SUB SWAP1 SWAP2 AND DUP2 MSTORE PUSH1 0x20 ADD JUMPDEST PUSH1 0x40 MLOAD DUP1 SWAP2 SUB SWAP1 RETURN JUMPDEST PUSH2 0x3C0 PUSH1 0x10 SLOAD DUP2 JUMP JUMPDEST PUSH1 0x40 MLOAD SWAP1 DUP2 MSTORE PUSH1 0x20 ADD PUSH2 0x3AE JUMP JUMPDEST PUSH2 0x3E1 PUSH2 0x3DC CALLDATASIZE PUSH1 0x4 PUSH2 0x22DB JUMP JUMPDEST PUSH2 0x7C2 JUMP JUMPDEST PUSH1 0x40 MLOAD SWAP1 ISZERO ISZERO DUP2 MSTORE PUSH1 0x20 ADD PUSH2 0x3AE JUMP JUMPDEST PUSH2 0x404 PUSH2 0x3FF CALLDATASIZE PUSH1 0x4 PUSH2 0x21A7 JUMP JUMPDEST PUSH2 0x806 JUMP JUMPDEST STOP JUMPDEST PUSH1 0x9 SLOAD PUSH2 0x39A SWAP1 PUSH1 0x1 PUSH1 0x1 PUSH1 0xA0 SHL SUB AND DUP2 JUMP JUMPDEST PUSH2 0x404 PUSH2 0x427 CALLDATASIZE PUSH1 0x4 PUSH2 0x2273 JUMP JUMPDEST PUSH2 0x89F JUMP JUMPDEST PUSH2 0x3C0 PUSH1 0x16 SLOAD DUP2 JUMP JUMPDEST PUSH2 0x3C0 PUSH1 0x5 SLOAD DUP2 JUMP JUMPDEST PUSH2 0x3C0 PUSH1 0xB SLOAD DUP2 JUMP JUMPDEST PUSH2 0x3C0 PUSH2 0x455 CALLDATASIZE PUSH1 0x4 PUSH2 0x2273 JUMP JUMPDEST PUSH1 0x0 SWAP1 DUP2 MSTORE PUSH1 0x20 DUP2 SWAP1 MSTORE PUSH1 0x40 SWAP1 KECCAK256 PUSH1 0x1 ADD SLOAD SWAP1 JUMP JUMPDEST PUSH2 0x3C0 PUSH2 0x478 CALLDATASIZE PUSH1 0x4 PUSH2 0x217C JUMP JUMPDEST PUSH2 0x8B1 JUMP JUMPDEST PUSH2 0x404 PUSH2 0x48B CALLDATASIZE PUSH1 0x4 PUSH2 0x23CF JUMP JUMPDEST PUSH2 0x8E7 JUMP JUMPDEST PUSH2 0x404 PUSH2 0x49E CALLDATASIZE PUSH1 0x4 PUSH2 0x228B JUMP JUMPDEST PUSH2 0x8FF JUMP JUMPDEST PUSH2 0x3C0 PUSH1 0x15 SLOAD DUP2 JUMP JUMPDEST PUSH2 0x404 PUSH2 0x4BA CALLDATASIZE PUSH1 0x4 PUSH2 0x2273 JUMP JUMPDEST PUSH2 0x926 JUMP JUMPDEST PUSH2 0x3C0 PUSH2 0x4CD CALLDATASIZE PUSH1 0x4 PUSH2 0x23CF JUMP JUMPDEST PUSH2 0x938 JUMP JUMPDEST PUSH2 0x3C0 PUSH1 0x4 SLOAD DUP2 JUMP JUMPDEST PUSH2 0x404 PUSH2 0x4E9 CALLDATASIZE PUSH1 0x4 PUSH2 0x228B JUMP JUMPDEST PUSH2 0x99E JUMP JUMPDEST PUSH2 0x3C0 PUSH1 0xE SLOAD DUP2 JUMP JUMPDEST PUSH2 0x404 PUSH2 0x505 CALLDATASIZE PUSH1 0x4 PUSH2 0x23CF JUMP JUMPDEST PUSH2 0x9C0 JUMP JUMPDEST PUSH2 0x3C0 PUSH1 0x6 SLOAD DUP2 JUMP JUMPDEST PUSH2 0x3C0 PUSH2 0x521 CALLDATASIZE PUSH1 0x4 PUSH2 0x2233 JUMP JUMPDEST PUSH2 0x9D8 JUMP JUMPDEST PUSH2 0x404 PUSH2 0x534 CALLDATASIZE PUSH1 0x4 PUSH2 0x2144 JUMP JUMPDEST PUSH2 0xB7F JUMP JUMPDEST PUSH2 0x3C0 PUSH32 0xB2E9F492F90B23409F94892DAEA9D3B46C549678E9E57181D007527A18B8B573 DUP2 JUMP JUMPDEST PUSH2 0x3C0 PUSH2 0x56E CALLDATASIZE PUSH1 0x4 PUSH2 0x217C JUMP JUMPDEST PUSH2 0xBBB JUMP JUMPDEST PUSH2 0x3C0 PUSH1 0x3 SLOAD DUP2 JUMP JUMPDEST PUSH2 0x3C0 PUSH1 0x12 SLOAD DUP2 JUMP JUMPDEST PUSH2 0x3C0 PUSH1 0xA SLOAD DUP2 JUMP JUMPDEST PUSH2 0x3C0 PUSH1 0xD SLOAD DUP2 JUMP JUMPDEST PUSH2 0x5AA PUSH2 0x5A5 CALLDATASIZE PUSH1 0x4 PUSH2 0x23A0 JUMP JUMPDEST PUSH2 0xBDD JUMP JUMPDEST PUSH1 0x40 MLOAD PUSH2 0x3AE SWAP2 SWAP1 DUP2 MLOAD DUP2 MSTORE PUSH1 0x20 DUP1 DUP4 ADD MLOAD SWAP1 DUP3 ADD MSTORE PUSH1 0x40 DUP1 DUP4 ADD MLOAD SWAP1 DUP3 ADD MSTORE PUSH1 0x60 SWAP2 DUP3 ADD MLOAD SWAP2 DUP2 ADD SWAP2 SWAP1 SWAP2 MSTORE PUSH1 0x80 ADD SWAP1 JUMP JUMPDEST PUSH2 0x3C0 PUSH2 0x10CD JUMP JUMPDEST PUSH2 0x39A PUSH2 0x5F3 CALLDATASIZE PUSH1 0x4 PUSH2 0x22BA JUMP JUMPDEST PUSH2 0x10E2 JUMP JUMPDEST PUSH2 0x3E1 PUSH2 0x606 CALLDATASIZE PUSH1 0x4 PUSH2 0x228B JUMP JUMPDEST PUSH1 0x0 SWAP2 DUP3 MSTORE PUSH1 0x20 DUP3 DUP2 MSTORE PUSH1 0x40 DUP1 DUP5 KECCAK256 PUSH1 0x1 PUSH1 0x1 PUSH1 0xA0 SHL SUB SWAP4 SWAP1 SWAP4 AND DUP5 MSTORE SWAP2 SWAP1 MSTORE SWAP1 KECCAK256 SLOAD PUSH1 0xFF AND SWAP1 JUMP JUMPDEST PUSH2 0x404 PUSH2 0x63D CALLDATASIZE PUSH1 0x4 PUSH2 0x2273 JUMP JUMPDEST PUSH2 0x1101 JUMP JUMPDEST PUSH2 0x3C0 PUSH1 0x13 SLOAD DUP2 JUMP JUMPDEST PUSH2 0x65E PUSH2 0x659 CALLDATASIZE PUSH1 0x4 PUSH2 0x2144 JUMP JUMPDEST PUSH2 0x1113 JUMP JUMPDEST PUSH1 0x40 DUP1 MLOAD DUP3 MLOAD DUP2 MSTORE PUSH1 0x20 SWAP3 DUP4 ADD MLOAD SWAP3 DUP2 ADD SWAP3 SWAP1 SWAP3 MSTORE ADD PUSH2 0x3AE JUMP JUMPDEST PUSH2 0x3C0 PUSH1 0x18 SLOAD DUP2 JUMP JUMPDEST PUSH2 0x404 PUSH2 0x690 CALLDATASIZE PUSH1 0x4 PUSH2 0x23CF JUMP JUMPDEST PUSH2 0x12B5 JUMP JUMPDEST PUSH2 0x3C0 PUSH1 0x2 SLOAD DUP2 JUMP JUMPDEST PUSH2 0x404 PUSH2 0x6AC CALLDATASIZE PUSH1 0x4 PUSH2 0x2144 JUMP JUMPDEST PUSH2 0x12CD JUMP JUMPDEST PUSH2 0x3C0 PUSH1 0xC SLOAD DUP2 JUMP JUMPDEST PUSH2 0x3C0 PUSH2 0x1309 JUMP JUMPDEST PUSH2 0x3C0 PUSH2 0x6D0 CALLDATASIZE PUSH1 0x4 PUSH2 0x2273 JUMP JUMPDEST PUSH2 0x132C JUMP JUMPDEST PUSH2 0x3C0 PUSH1 0x0 DUP2 JUMP JUMPDEST PUSH2 0x404 PUSH2 0x6EB CALLDATASIZE PUSH1 0x4 PUSH2 0x228B JUMP JUMPDEST PUSH2 0x1343 JUMP JUMPDEST PUSH2 0x3C0 PUSH1 0x19 SLOAD DUP2 JUMP JUMPDEST PUSH2 0x3C0 PUSH1 0x7 SLOAD DUP2 JUMP JUMPDEST PUSH2 0x3C0 PUSH2 0x710 CALLDATASIZE PUSH1 0x4 PUSH2 0x2144 JUMP JUMPDEST PUSH1 0x1A PUSH1 0x20 MSTORE PUSH1 0x0 SWAP1 DUP2 MSTORE PUSH1 0x40 SWAP1 KECCAK256 SLOAD DUP2 JUMP JUMPDEST PUSH2 0x3C0 PUSH32 0x9A20F14DE69C79D5CEB9FDA78DC50C2B99FB2122F9BEAAB4A028EF2DC21BA2C8 DUP2 JUMP JUMPDEST PUSH2 0x3C0 PUSH1 0x14 SLOAD DUP2 JUMP JUMPDEST PUSH2 0x3C0 PUSH1 0xF SLOAD DUP2 JUMP JUMPDEST PUSH2 0x404 PUSH2 0x134D JUMP JUMPDEST PUSH2 0x404 PUSH2 0x771 CALLDATASIZE PUSH1 0x4 PUSH2 0x23E1 JUMP JUMPDEST PUSH2 0x1361 JUMP JUMPDEST PUSH2 0x3C0 PUSH1 0x17 SLOAD DUP2 JUMP JUMPDEST PUSH2 0x3C0 PUSH32 0x789F97575F27A6B4CEB7F0DFF24D6988BF9835006797A01CFAEDC572E88A2C7B DUP2 JUMP JUMPDEST PUSH2 0x3C0 PUSH1 0x11 SLOAD DUP2 JUMP JUMPDEST PUSH2 0x404 PUSH2 0x7BD CALLDATASIZE PUSH1 0x4 PUSH2 0x23CF JUMP JUMPDEST PUSH2 0x137C JUMP JUMPDEST PUSH1 0x0 PUSH1 0x1 PUSH1 0x1 PUSH1 0xE0 SHL SUB NOT DUP3 AND PUSH32 0x5A05180F00000000000000000000000000000000000000000000000000000000 EQ DUP1 PUSH2 0x800 JUMPI POP PUSH2 0x800 DUP3 PUSH2 0x13B7 JUMP JUMPDEST SWAP3 SWAP2 POP POP JUMP JUMPDEST PUSH1 0x0 PUSH2 0x812 DUP2 CALLER PUSH2 0x141E JUMP JUMPDEST PUSH1 0x0 JUMPDEST DUP3 DUP2 LT ISZERO PUSH2 0x899 JUMPI PUSH2 0x887 DUP5 DUP5 DUP4 DUP2 DUP2 LT PUSH2 0x840 JUMPI PUSH4 0x4E487B71 PUSH1 0xE0 SHL PUSH1 0x0 MSTORE PUSH1 0x32 PUSH1 0x4 MSTORE PUSH1 0x24 PUSH1 0x0 REVERT JUMPDEST SWAP1 POP PUSH1 0x40 MUL ADD PUSH1 0x0 ADD CALLDATALOAD DUP6 DUP6 DUP5 DUP2 DUP2 LT PUSH2 0x86A JUMPI PUSH4 0x4E487B71 PUSH1 0xE0 SHL PUSH1 0x0 MSTORE PUSH1 0x32 PUSH1 0x4 MSTORE PUSH1 0x24 PUSH1 0x0 REVERT JUMPDEST SWAP1 POP PUSH1 0x40 MUL ADD PUSH1 0x20 ADD PUSH1 0x20 DUP2 ADD SWAP1 PUSH2 0x882 SWAP2 SWAP1 PUSH2 0x2144 JUMP JUMPDEST PUSH2 0x149C JUMP JUMPDEST DUP1 PUSH2 0x891 DUP2 PUSH2 0x2571 JUMP JUMPDEST SWAP2 POP POP PUSH2 0x815 JUMP JUMPDEST POP POP POP POP JUMP JUMPDEST PUSH1 0x0 PUSH2 0x8AB DUP2 CALLER PUSH2 0x141E JUMP JUMPDEST POP PUSH1 0xA SSTORE JUMP JUMPDEST PUSH1 0x0 DUP1 PUSH2 0x8BE DUP2 CALLER PUSH2 0x141E JUMP JUMPDEST PUSH8 0xDE0B6B3A7640000 PUSH1 0x4 SLOAD DUP5 PUSH2 0x8D5 SWAP2 SWAP1 PUSH2 0x24F8 JUMP JUMPDEST PUSH2 0x8DF SWAP2 SWAP1 PUSH2 0x24D8 JUMP JUMPDEST SWAP5 SWAP4 POP POP POP POP JUMP JUMPDEST PUSH1 0x0 PUSH2 0x8F3 DUP2 CALLER PUSH2 0x141E JUMP JUMPDEST POP PUSH1 0xB SWAP2 SWAP1 SWAP2 SSTORE PUSH1 0xC SSTORE JUMP JUMPDEST PUSH2 0x909 DUP3 DUP3 PUSH2 0x14A6 JUMP JUMPDEST PUSH1 0x0 DUP3 DUP2 MSTORE PUSH1 0x1 PUSH1 0x20 MSTORE PUSH1 0x40 SWAP1 KECCAK256 PUSH2 0x921 SWAP1 DUP3 PUSH2 0x13A2 JUMP JUMPDEST POP POP POP JUMP JUMPDEST PUSH1 0x0 PUSH2 0x932 DUP2 CALLER PUSH2 0x141E JUMP JUMPDEST POP PUSH1 0x7 SSTORE JUMP JUMPDEST PUSH1 0x0 DUP1 PUSH2 0x945 DUP2 CALLER PUSH2 0x141E JUMP JUMPDEST PUSH1 0x4 SLOAD PUSH1 0x0 SWAP1 PUSH2 0x95D PUSH8 0xDE0B6B3A7640000 DUP8 PUSH2 0x24F8 JUMP JUMPDEST PUSH2 0x967 SWAP2 SWAP1 PUSH2 0x24D8 JUMP JUMPDEST SWAP1 POP PUSH2 0x973 DUP2 DUP6 PUSH2 0x2517 JUMP JUMPDEST SWAP4 POP DUP1 PUSH1 0x5 PUSH1 0x0 DUP3 DUP3 SLOAD PUSH2 0x987 SWAP2 SWAP1 PUSH2 0x24C0 JUMP JUMPDEST SWAP1 SWAP2 SSTORE POP PUSH2 0x995 SWAP1 POP PUSH2 0x14CC JUMP JUMPDEST POP SWAP2 SWAP4 SWAP3 POP POP POP JUMP JUMPDEST PUSH2 0x9A8 DUP3 DUP3 PUSH2 0x14EB JUMP JUMPDEST PUSH1 0x0 DUP3 DUP2 MSTORE PUSH1 0x1 PUSH1 0x20 MSTORE PUSH1 0x40 SWAP1 KECCAK256 PUSH2 0x921 SWAP1 DUP3 PUSH2 0x1573 JUMP JUMPDEST PUSH1 0x0 PUSH2 0x9CC DUP2 CALLER PUSH2 0x141E JUMP JUMPDEST POP PUSH1 0x2 SWAP2 SWAP1 SWAP2 SSTORE PUSH1 0x3 SSTORE JUMP JUMPDEST PUSH1 0x0 DUP1 PUSH2 0x9E5 DUP2 CALLER PUSH2 0x141E JUMP JUMPDEST PUSH1 0x4 SLOAD PUSH1 0x0 SWAP1 PUSH2 0x9FD DUP6 PUSH8 0xDE0B6B3A7640000 PUSH2 0x24F8 JUMP JUMPDEST PUSH2 0xA07 SWAP2 SWAP1 PUSH2 0x24D8 JUMP JUMPDEST SWAP1 POP PUSH1 0x0 PUSH2 0xA15 DUP3 DUP7 PUSH2 0x2517 JUMP JUMPDEST SWAP1 POP DUP7 ISZERO PUSH2 0xB44 JUMPI DUP1 PUSH1 0x16 PUSH1 0x0 DUP3 DUP3 SLOAD PUSH2 0xA2F SWAP2 SWAP1 PUSH2 0x24C0 JUMP JUMPDEST SWAP3 POP POP DUP2 SWAP1 SSTORE POP DUP2 PUSH1 0x17 PUSH1 0x0 DUP3 DUP3 SLOAD PUSH2 0xA48 SWAP2 SWAP1 PUSH2 0x24C0 JUMP JUMPDEST SWAP1 SWAP2 SSTORE POP POP PUSH1 0x8 SLOAD PUSH1 0x40 MLOAD PUSH4 0x70A08231 PUSH1 0xE0 SHL DUP2 MSTORE PUSH1 0x1 PUSH1 0x1 PUSH1 0xA0 SHL SUB DUP9 DUP2 AND PUSH1 0x4 DUP4 ADD MSTORE PUSH1 0x0 SWAP3 AND SWAP1 PUSH4 0x70A08231 SWAP1 PUSH1 0x24 ADD PUSH1 0x20 PUSH1 0x40 MLOAD DUP1 DUP4 SUB DUP2 DUP7 DUP1 EXTCODESIZE ISZERO DUP1 ISZERO PUSH2 0xA93 JUMPI PUSH1 0x0 DUP1 REVERT JUMPDEST POP GAS STATICCALL ISZERO DUP1 ISZERO PUSH2 0xAA7 JUMPI RETURNDATASIZE PUSH1 0x0 DUP1 RETURNDATACOPY RETURNDATASIZE PUSH1 0x0 REVERT JUMPDEST POP POP POP POP PUSH1 0x40 MLOAD RETURNDATASIZE PUSH1 0x1F NOT PUSH1 0x1F DUP3 ADD AND DUP3 ADD DUP1 PUSH1 0x40 MSTORE POP DUP2 ADD SWAP1 PUSH2 0xACB SWAP2 SWAP1 PUSH2 0x23B7 JUMP JUMPDEST SWAP1 POP PUSH1 0x0 PUSH2 0xAD9 DUP9 DUP4 PUSH2 0x1588 JUMP JUMPDEST SWAP1 POP PUSH2 0xAE6 DUP2 DUP4 DUP10 PUSH2 0x15F9 JUMP JUMPDEST PUSH1 0x1 PUSH1 0x1 PUSH1 0xA0 SHL SUB DUP10 AND PUSH1 0x0 DUP2 DUP2 MSTORE PUSH1 0x1A PUSH1 0x20 SWAP1 DUP2 MSTORE PUSH1 0x40 SWAP2 DUP3 SWAP1 KECCAK256 DUP5 SWAP1 SSTORE DUP2 MLOAD SWAP3 DUP4 MSTORE DUP3 ADD DUP4 SWAP1 MSTORE SWAP2 SWAP3 POP PUSH32 0xCAD0BB17EB0B6304AEE337CBFC3E250CF2FC8676EE11EB80DA0737961A95A3C2 SWAP2 ADD PUSH1 0x40 MLOAD DUP1 SWAP2 SUB SWAP1 LOG1 POP POP PUSH2 0xB75 JUMP JUMPDEST DUP1 PUSH1 0x16 PUSH1 0x0 DUP3 DUP3 SLOAD PUSH2 0xB56 SWAP2 SWAP1 PUSH2 0x2517 JUMP JUMPDEST SWAP3 POP POP DUP2 SWAP1 SSTORE POP DUP2 PUSH1 0x17 PUSH1 0x0 DUP3 DUP3 SLOAD PUSH2 0xB6F SWAP2 SWAP1 PUSH2 0x2517 JUMP JUMPDEST SWAP1 SWAP2 SSTORE POP POP JUMPDEST POP SWAP6 SWAP5 POP POP POP POP POP JUMP JUMPDEST PUSH1 0x0 PUSH2 0xB8B DUP2 CALLER PUSH2 0x141E JUMP JUMPDEST POP PUSH1 0x9 DUP1 SLOAD PUSH20 0xFFFFFFFFFFFFFFFFFFFFFFFFFFFFFFFFFFFFFFFF NOT AND PUSH1 0x1 PUSH1 0x1 PUSH1 0xA0 SHL SUB SWAP3 SWAP1 SWAP3 AND SWAP2 SWAP1 SWAP2 OR SWAP1 SSTORE JUMP JUMPDEST PUSH1 0x0 DUP1 PUSH2 0xBC8 DUP2 CALLER PUSH2 0x141E JUMP JUMPDEST PUSH1 0x4 SLOAD PUSH2 0x8D5 PUSH8 0xDE0B6B3A7640000 DUP6 PUSH2 0x24F8 JUMP JUMPDEST PUSH2 0xC08 PUSH1 0x40 MLOAD DUP1 PUSH1 0x80 ADD PUSH1 0x40 MSTORE DUP1 PUSH1 0x0 DUP2 MSTORE PUSH1 0x20 ADD PUSH1 0x0 DUP2 MSTORE PUSH1 0x20 ADD PUSH1 0x0 DUP2 MSTORE PUSH1 0x20 ADD PUSH1 0x0 DUP2 MSTORE POP SWAP1 JUMP JUMPDEST PUSH1 0x0 PUSH2 0xC14 DUP2 CALLER PUSH2 0x141E JUMP JUMPDEST PUSH1 0x4 SLOAD PUSH1 0x0 SWAP1 PUSH2 0xC30 PUSH8 0xDE0B6B3A7640000 PUSH1 0x40 DUP8 ADD CALLDATALOAD PUSH2 0x24F8 JUMP JUMPDEST PUSH2 0xC3A SWAP2 SWAP1 PUSH2 0x24D8 JUMP JUMPDEST SWAP1 POP PUSH1 0x0 DUP2 GT PUSH2 0xC91 JUMPI PUSH1 0x40 MLOAD PUSH3 0x461BCD PUSH1 0xE5 SHL DUP2 MSTORE PUSH1 0x20 PUSH1 0x4 DUP3 ADD MSTORE PUSH1 0xC PUSH1 0x24 DUP3 ADD MSTORE PUSH32 0x4E42543A2021616D6F756E740000000000000000000000000000000000000000 PUSH1 0x44 DUP3 ADD MSTORE PUSH1 0x64 ADD JUMPDEST PUSH1 0x40 MLOAD DUP1 SWAP2 SUB SWAP1 REVERT JUMPDEST PUSH1 0x9 SLOAD PUSH1 0x8 SLOAD PUSH1 0x0 SWAP2 PUSH1 0x1 PUSH1 0x1 PUSH1 0xA0 SHL SUB SWAP1 DUP2 AND SWAP2 PUSH4 0x60623731 SWAP2 AND PUSH2 0xCBA PUSH1 0x20 DUP10 ADD DUP10 PUSH2 0x2144 JUMP JUMPDEST PUSH2 0xCCA PUSH1 0x40 DUP11 ADD PUSH1 0x20 DUP12 ADD PUSH2 0x2144 JUMP JUMPDEST PUSH1 0x40 MLOAD PUSH1 0xE0 DUP6 SWAP1 SHL PUSH1 0x1 PUSH1 0x1 PUSH1 0xE0 SHL SUB NOT AND DUP2 MSTORE PUSH1 0x1 PUSH1 0x1 PUSH1 0xA0 SHL SUB SWAP4 DUP5 AND PUSH1 0x4 DUP3 ADD MSTORE SWAP2 DUP4 AND PUSH1 0x24 DUP4 ADD MSTORE SWAP1 SWAP2 AND PUSH1 0x44 DUP3 ADD MSTORE PUSH1 0x64 ADD PUSH1 0xA0 PUSH1 0x40 MLOAD DUP1 DUP4 SUB DUP2 DUP7 DUP1 EXTCODESIZE ISZERO DUP1 ISZERO PUSH2 0xD19 JUMPI PUSH1 0x0 DUP1 REVERT JUMPDEST POP GAS STATICCALL ISZERO DUP1 ISZERO PUSH2 0xD2D JUMPI RETURNDATASIZE PUSH1 0x0 DUP1 RETURNDATACOPY RETURNDATASIZE PUSH1 0x0 REVERT JUMPDEST POP POP POP POP PUSH1 0x40 MLOAD RETURNDATASIZE PUSH1 0x1F NOT PUSH1 0x1F DUP3 ADD AND DUP3 ADD DUP1 PUSH1 0x40 MSTORE POP DUP2 ADD SWAP1 PUSH2 0xD51 SWAP2 SWAP1 PUSH2 0x2303 JUMP JUMPDEST SWAP1 POP DUP1 PUSH1 0x20 ADD MLOAD ISZERO DUP1 PUSH2 0xD85 JUMPI POP DUP1 PUSH1 0x20 ADD MLOAD DUP1 ISZERO PUSH2 0xD74 JUMPI POP PUSH3 0xF4240 PUSH1 0x15 SLOAD LT JUMPDEST DUP1 ISZERO PUSH2 0xD85 JUMPI POP PUSH1 0x14 SLOAD DUP6 PUSH1 0x40 ADD CALLDATALOAD LT JUMPDEST PUSH2 0xDD1 JUMPI PUSH1 0x40 MLOAD PUSH3 0x461BCD PUSH1 0xE5 SHL DUP2 MSTORE PUSH1 0x20 PUSH1 0x4 DUP3 ADD MSTORE PUSH1 0xF PUSH1 0x24 DUP3 ADD MSTORE PUSH32 0x4E42543A20216275795F6C696D69740000000000000000000000000000000000 PUSH1 0x44 DUP3 ADD MSTORE PUSH1 0x64 ADD PUSH2 0xC88 JUMP JUMPDEST PUSH1 0x0 PUSH1 0x1A DUP2 PUSH2 0xDE3 PUSH1 0x20 DUP10 ADD DUP10 PUSH2 0x2144 JUMP JUMPDEST PUSH1 0x1 PUSH1 0x1 PUSH1 0xA0 SHL SUB AND PUSH1 0x1 PUSH1 0x1 PUSH1 0xA0 SHL SUB AND DUP2 MSTORE PUSH1 0x20 ADD SWAP1 DUP2 MSTORE PUSH1 0x20 ADD PUSH1 0x0 KECCAK256 SLOAD TIMESTAMP GT PUSH2 0xE11 JUMPI PUSH1 0x0 PUSH2 0xE46 JUMP JUMPDEST PUSH1 0x1A PUSH1 0x0 PUSH2 0xE22 PUSH1 0x20 DUP10 ADD DUP10 PUSH2 0x2144 JUMP JUMPDEST PUSH1 0x1 PUSH1 0x1 PUSH1 0xA0 SHL SUB AND DUP2 MSTORE PUSH1 0x20 DUP2 ADD SWAP2 SWAP1 SWAP2 MSTORE PUSH1 0x40 ADD PUSH1 0x0 KECCAK256 SLOAD PUSH2 0xE46 SWAP1 TIMESTAMP PUSH2 0x2517 JUMP JUMPDEST SWAP1 POP PUSH1 0x0 DUP3 PUSH1 0x40 ADD MLOAD DUP1 ISZERO PUSH2 0xE5C JUMPI POP PUSH1 0xC SLOAD DUP3 LT JUMPDEST ISZERO DUP1 ISZERO PUSH2 0xE67 JUMPI POP DUP3 MLOAD JUMPDEST SWAP1 POP PUSH1 0x0 DUP2 ISZERO PUSH2 0xEA9 JUMPI DUP4 PUSH1 0x40 ADD MLOAD ISZERO PUSH2 0xEA4 JUMPI PUSH1 0x0 PUSH2 0xE86 DUP5 PUSH2 0x1681 JUMP JUMPDEST SWAP1 POP PUSH3 0xF4240 PUSH2 0xE96 DUP3 DUP9 PUSH2 0x24F8 JUMP JUMPDEST PUSH2 0xEA0 SWAP2 SWAP1 PUSH2 0x24D8 JUMP JUMPDEST SWAP2 POP POP JUMPDEST PUSH2 0xF68 JUMP JUMPDEST DUP4 PUSH1 0x20 ADD MLOAD PUSH2 0xF68 JUMPI PUSH3 0xF4240 PUSH1 0xB SLOAD DUP7 PUSH2 0xEC4 SWAP2 SWAP1 PUSH2 0x24F8 JUMP JUMPDEST PUSH2 0xECE SWAP2 SWAP1 PUSH2 0x24D8 JUMP JUMPDEST SWAP1 POP PUSH1 0x0 PUSH3 0xF4240 PUSH1 0xB SLOAD DUP11 PUSH1 0x40 ADD CALLDATALOAD PUSH2 0xEE8 SWAP2 SWAP1 PUSH2 0x24F8 JUMP JUMPDEST PUSH2 0xEF2 SWAP2 SWAP1 PUSH2 0x24D8 JUMP JUMPDEST SWAP1 POP PUSH32 0xA1A76B56D422BE0A4C14CCC1281231AA006E67B6E03DCC433A873DC285491E51 PUSH2 0xF22 PUSH1 0x20 DUP12 ADD DUP12 PUSH2 0x2144 JUMP JUMPDEST PUSH2 0xF32 PUSH1 0x40 DUP13 ADD PUSH1 0x20 DUP14 ADD PUSH2 0x2144 JUMP JUMPDEST PUSH1 0x40 DUP1 MLOAD PUSH1 0x1 PUSH1 0x1 PUSH1 0xA0 SHL SUB SWAP4 DUP5 AND DUP2 MSTORE SWAP3 SWAP1 SWAP2 AND PUSH1 0x20 DUP4 ADD MSTORE DUP1 DUP13 ADD CALLDATALOAD SWAP1 DUP3 ADD MSTORE PUSH1 0x60 DUP2 ADD DUP4 SWAP1 MSTORE PUSH1 0x80 ADD PUSH1 0x40 MLOAD DUP1 SWAP2 SUB SWAP1 LOG1 POP JUMPDEST DUP4 PUSH1 0x40 ADD MLOAD PUSH2 0x1033 JUMPI PUSH1 0x0 PUSH2 0xF90 PUSH2 0xF86 PUSH1 0x40 DUP12 ADD PUSH1 0x20 DUP13 ADD PUSH2 0x2144 JUMP JUMPDEST DUP11 PUSH1 0x80 ADD CALLDATALOAD PUSH2 0x1588 JUMP JUMPDEST SWAP1 POP PUSH2 0xFA1 DUP2 DUP11 PUSH1 0x80 ADD CALLDATALOAD DUP9 PUSH2 0x15F9 JUMP JUMPDEST SWAP1 POP DUP1 PUSH1 0x1A PUSH1 0x0 PUSH2 0xFB8 PUSH1 0x40 DUP14 ADD PUSH1 0x20 DUP15 ADD PUSH2 0x2144 JUMP JUMPDEST PUSH1 0x1 PUSH1 0x1 PUSH1 0xA0 SHL SUB AND PUSH1 0x1 PUSH1 0x1 PUSH1 0xA0 SHL SUB AND DUP2 MSTORE PUSH1 0x20 ADD SWAP1 DUP2 MSTORE PUSH1 0x20 ADD PUSH1 0x0 KECCAK256 DUP2 SWAP1 SSTORE POP PUSH32 0xCAD0BB17EB0B6304AEE337CBFC3E250CF2FC8676EE11EB80DA0737961A95A3C2 DUP10 PUSH1 0x20 ADD PUSH1 0x20 DUP2 ADD SWAP1 PUSH2 0x1010 SWAP2 SWAP1 PUSH2 0x2144 JUMP JUMPDEST PUSH1 0x40 DUP1 MLOAD PUSH1 0x1 PUSH1 0x1 PUSH1 0xA0 SHL SUB SWAP1 SWAP3 AND DUP3 MSTORE PUSH1 0x20 DUP3 ADD DUP5 SWAP1 MSTORE ADD PUSH1 0x40 MLOAD DUP1 SWAP2 SUB SWAP1 LOG1 POP JUMPDEST PUSH1 0x0 PUSH2 0x103F DUP3 DUP8 PUSH2 0x2517 JUMP JUMPDEST SWAP1 POP PUSH2 0x104F DUP7 PUSH1 0x60 DUP12 ADD CALLDATALOAD PUSH2 0x2517 JUMP JUMPDEST DUP9 MSTORE PUSH2 0x105F DUP2 PUSH1 0x80 DUP12 ADD CALLDATALOAD PUSH2 0x24C0 JUMP JUMPDEST PUSH1 0x20 DUP10 ADD MSTORE PUSH1 0x5 DUP1 SLOAD DUP4 SWAP2 SWAP1 PUSH1 0x0 SWAP1 PUSH2 0x1079 SWAP1 DUP5 SWAP1 PUSH2 0x24C0 JUMP JUMPDEST SWAP1 SWAP2 SSTORE POP POP PUSH1 0x4 SLOAD PUSH8 0xDE0B6B3A7640000 SWAP1 PUSH2 0x1095 SWAP1 DUP5 PUSH2 0x24F8 JUMP JUMPDEST PUSH2 0x109F SWAP2 SWAP1 PUSH2 0x24D8 JUMP JUMPDEST PUSH1 0x40 DUP1 DUP11 ADD DUP3 SWAP1 MSTORE PUSH2 0x10B4 SWAP2 SWAP1 DUP12 ADD CALLDATALOAD PUSH2 0x2517 JUMP JUMPDEST PUSH1 0x60 DUP10 ADD MSTORE PUSH2 0x10C1 PUSH2 0x14CC JUMP JUMPDEST POP POP POP POP POP POP POP SWAP2 SWAP1 POP JUMP JUMPDEST PUSH1 0x0 DUP1 PUSH2 0x10DA DUP2 CALLER PUSH2 0x141E JUMP JUMPDEST POP POP PUSH1 0x16 SLOAD SWAP1 JUMP JUMPDEST PUSH1 0x0 DUP3 DUP2 MSTORE PUSH1 0x1 PUSH1 0x20 MSTORE PUSH1 0x40 DUP2 KECCAK256 PUSH2 0x10FA SWAP1 DUP4 PUSH2 0x1773 JUMP JUMPDEST SWAP4 SWAP3 POP POP POP JUMP JUMPDEST PUSH1 0x0 PUSH2 0x110D DUP2 CALLER PUSH2 0x141E JUMP JUMPDEST POP PUSH1 0x15 SSTORE JUMP JUMPDEST PUSH1 0x40 DUP1 MLOAD DUP1 DUP3 ADD SWAP1 SWAP2 MSTORE PUSH1 0x0 DUP1 DUP3 MSTORE PUSH1 0x20 DUP3 ADD MSTORE PUSH1 0x9 SLOAD PUSH1 0x40 MLOAD PUSH32 0xEAA8F7E300000000000000000000000000000000000000000000000000000000 DUP2 MSTORE PUSH1 0x1 PUSH1 0x1 PUSH1 0xA0 SHL SUB DUP5 DUP2 AND PUSH1 0x4 DUP4 ADD MSTORE SWAP1 SWAP2 AND SWAP1 PUSH4 0xEAA8F7E3 SWAP1 PUSH1 0x24 ADD PUSH1 0x20 PUSH1 0x40 MLOAD DUP1 DUP4 SUB DUP2 DUP7 DUP1 EXTCODESIZE ISZERO DUP1 ISZERO PUSH2 0x1185 JUMPI PUSH1 0x0 DUP1 REVERT JUMPDEST POP GAS STATICCALL ISZERO DUP1 ISZERO PUSH2 0x1199 JUMPI RETURNDATASIZE PUSH1 0x0 DUP1 RETURNDATACOPY RETURNDATASIZE PUSH1 0x0 REVERT JUMPDEST POP POP POP POP PUSH1 0x40 MLOAD RETURNDATASIZE PUSH1 0x1F NOT PUSH1 0x1F DUP3 ADD AND DUP3 ADD DUP1 PUSH1 0x40 MSTORE POP DUP2 ADD SWAP1 PUSH2 0x11BD SWAP2 SWAP1 PUSH2 0x2217 JUMP JUMPDEST ISZERO PUSH2 0x11D4 JUMPI PUSH1 0xB SLOAD DUP2 MSTORE PUSH1 0x12 SLOAD PUSH1 0x20 DUP3 ADD MSTORE SWAP2 SWAP1 POP JUMP JUMPDEST PUSH1 0x8 SLOAD PUSH1 0x40 MLOAD PUSH4 0x70A08231 PUSH1 0xE0 SHL DUP2 MSTORE PUSH1 0x1 PUSH1 0x1 PUSH1 0xA0 SHL SUB DUP5 DUP2 AND PUSH1 0x4 DUP4 ADD MSTORE PUSH1 0x0 SWAP3 AND SWAP1 PUSH4 0x70A08231 SWAP1 PUSH1 0x24 ADD PUSH1 0x20 PUSH1 0x40 MLOAD DUP1 DUP4 SUB DUP2 DUP7 DUP1 EXTCODESIZE ISZERO DUP1 ISZERO PUSH2 0x121A JUMPI PUSH1 0x0 DUP1 REVERT JUMPDEST POP GAS STATICCALL ISZERO DUP1 ISZERO PUSH2 0x122E JUMPI RETURNDATASIZE PUSH1 0x0 DUP1 RETURNDATACOPY RETURNDATASIZE PUSH1 0x0 REVERT JUMPDEST POP POP POP POP PUSH1 0x40 MLOAD RETURNDATASIZE PUSH1 0x1F NOT PUSH1 0x1F DUP3 ADD AND DUP3 ADD DUP1 PUSH1 0x40 MSTORE POP DUP2 ADD SWAP1 PUSH2 0x1252 SWAP2 SWAP1 PUSH2 0x23B7 JUMP JUMPDEST SWAP1 POP PUSH1 0x0 PUSH2 0x1260 DUP5 DUP4 PUSH2 0x1588 JUMP JUMPDEST SWAP1 POP PUSH1 0x0 DUP2 TIMESTAMP GT PUSH2 0x1272 JUMPI PUSH1 0x0 PUSH2 0x127C JUMP JUMPDEST PUSH2 0x127C DUP3 TIMESTAMP PUSH2 0x2517 JUMP JUMPDEST SWAP1 POP PUSH2 0x1287 DUP2 PUSH2 0x1681 JUMP JUMPDEST DUP5 MSTORE PUSH1 0x12 SLOAD DUP2 LT PUSH2 0x1299 JUMPI PUSH1 0x0 PUSH2 0x12A7 JUMP JUMPDEST DUP1 PUSH1 0x12 SLOAD PUSH2 0x12A7 SWAP2 SWAP1 PUSH2 0x2517 JUMP JUMPDEST PUSH1 0x20 DUP6 ADD MSTORE POP POP POP JUMPDEST SWAP2 SWAP1 POP JUMP JUMPDEST PUSH1 0x0 PUSH2 0x12C1 DUP2 CALLER PUSH2 0x141E JUMP JUMPDEST POP PUSH1 0xF SWAP2 SWAP1 SWAP2 SSTORE PUSH1 0x10 SSTORE JUMP JUMPDEST PUSH1 0x0 PUSH2 0x12D9 DUP2 CALLER PUSH2 0x141E JUMP JUMPDEST POP PUSH1 0x8 DUP1 SLOAD PUSH20 0xFFFFFFFFFFFFFFFFFFFFFFFFFFFFFFFFFFFFFFFF NOT AND PUSH1 0x1 PUSH1 0x1 PUSH1 0xA0 SHL SUB SWAP3 SWAP1 SWAP3 AND SWAP2 SWAP1 SWAP2 OR SWAP1 SSTORE JUMP JUMPDEST PUSH1 0x0 DUP1 PUSH2 0x1316 DUP2 CALLER PUSH2 0x141E JUMP JUMPDEST PUSH1 0x16 SLOAD PUSH1 0x17 SLOAD PUSH2 0x1326 SWAP2 SWAP1 PUSH2 0x24C0 JUMP JUMPDEST SWAP2 POP POP SWAP1 JUMP JUMPDEST PUSH1 0x0 DUP2 DUP2 MSTORE PUSH1 0x1 PUSH1 0x20 MSTORE PUSH1 0x40 DUP2 KECCAK256 PUSH2 0x800 SWAP1 PUSH2 0x177F JUMP JUMPDEST PUSH2 0x9A8 DUP3 DUP3 PUSH2 0x1789 JUMP JUMPDEST PUSH1 0x6 SLOAD TIMESTAMP GT ISZERO PUSH2 0x135F JUMPI PUSH2 0x135F PUSH2 0x17AF JUMP JUMPDEST JUMP JUMPDEST PUSH1 0x0 PUSH2 0x136D DUP2 CALLER PUSH2 0x141E JUMP JUMPDEST POP PUSH1 0x11 SWAP3 SWAP1 SWAP3 SSTORE PUSH1 0x12 SSTORE PUSH1 0x13 SSTORE JUMP JUMPDEST PUSH1 0x0 PUSH2 0x1388 DUP2 CALLER PUSH2 0x141E JUMP JUMPDEST POP PUSH1 0xD SWAP2 SWAP1 SWAP2 SSTORE PUSH1 0xE SSTORE JUMP JUMPDEST PUSH2 0x139E DUP3 DUP3 PUSH2 0x1C51 JUMP JUMPDEST POP POP JUMP JUMPDEST PUSH1 0x0 PUSH2 0x10FA DUP4 PUSH1 0x1 PUSH1 0x1 PUSH1 0xA0 SHL SUB DUP5 AND PUSH2 0x1CEF JUMP JUMPDEST PUSH1 0x0 PUSH1 0x1 PUSH1 0x1 PUSH1 0xE0 SHL SUB NOT DUP3 AND PUSH32 0x7965DB0B00000000000000000000000000000000000000000000000000000000 EQ DUP1 PUSH2 0x800 JUMPI POP PUSH32 0x1FFC9A700000000000000000000000000000000000000000000000000000000 PUSH1 0x1 PUSH1 0x1 PUSH1 0xE0 SHL SUB NOT DUP4 AND EQ PUSH2 0x800 JUMP JUMPDEST PUSH1 0x0 DUP3 DUP2 MSTORE PUSH1 0x20 DUP2 DUP2 MSTORE PUSH1 0x40 DUP1 DUP4 KECCAK256 PUSH1 0x1 PUSH1 0x1 PUSH1 0xA0 SHL SUB DUP6 AND DUP5 MSTORE SWAP1 SWAP2 MSTORE SWAP1 KECCAK256 SLOAD PUSH1 0xFF AND PUSH2 0x139E JUMPI PUSH2 0x145A DUP2 PUSH1 0x1 PUSH1 0x1 PUSH1 0xA0 SHL SUB AND PUSH1 0x14 PUSH2 0x1D3E JUMP JUMPDEST PUSH2 0x1465 DUP4 PUSH1 0x20 PUSH2 0x1D3E JUMP JUMPDEST PUSH1 0x40 MLOAD PUSH1 0x20 ADD PUSH2 0x1476 SWAP3 SWAP2 SWAP1 PUSH2 0x240C JUMP JUMPDEST PUSH1 0x40 DUP1 MLOAD PUSH1 0x1F NOT DUP2 DUP5 SUB ADD DUP2 MSTORE SWAP1 DUP3 SWAP1 MSTORE PUSH3 0x461BCD PUSH1 0xE5 SHL DUP3 MSTORE PUSH2 0xC88 SWAP2 PUSH1 0x4 ADD PUSH2 0x248D JUMP JUMPDEST PUSH2 0x909 DUP3 DUP3 PUSH2 0x1394 JUMP JUMPDEST PUSH1 0x0 DUP3 DUP2 MSTORE PUSH1 0x20 DUP2 SWAP1 MSTORE PUSH1 0x40 SWAP1 KECCAK256 PUSH1 0x1 ADD SLOAD PUSH2 0x14C2 DUP2 CALLER PUSH2 0x141E JUMP JUMPDEST PUSH2 0x921 DUP4 DUP4 PUSH2 0x1C51 JUMP JUMPDEST PUSH1 0x7 SLOAD PUSH1 0x6 SLOAD PUSH2 0x14DC SWAP2 SWAP1 PUSH2 0x24C0 JUMP JUMPDEST TIMESTAMP GT ISZERO PUSH2 0x135F JUMPI PUSH2 0x135F PUSH2 0x17AF JUMP JUMPDEST PUSH1 0x1 PUSH1 0x1 PUSH1 0xA0 SHL SUB DUP2 AND CALLER EQ PUSH2 0x1569 JUMPI PUSH1 0x40 MLOAD PUSH3 0x461BCD PUSH1 0xE5 SHL DUP2 MSTORE PUSH1 0x20 PUSH1 0x4 DUP3 ADD MSTORE PUSH1 0x2F PUSH1 0x24 DUP3 ADD MSTORE PUSH32 0x416363657373436F6E74726F6C3A2063616E206F6E6C792072656E6F756E6365 PUSH1 0x44 DUP3 ADD MSTORE PUSH32 0x20726F6C657320666F722073656C660000000000000000000000000000000000 PUSH1 0x64 DUP3 ADD MSTORE PUSH1 0x84 ADD PUSH2 0xC88 JUMP JUMPDEST PUSH2 0x139E DUP3 DUP3 PUSH2 0x1F65 JUMP JUMPDEST PUSH1 0x0 PUSH2 0x10FA DUP4 PUSH1 0x1 PUSH1 0x1 PUSH1 0xA0 SHL SUB DUP5 AND PUSH2 0x1FE4 JUMP JUMPDEST PUSH1 0x1 PUSH1 0x1 PUSH1 0xA0 SHL SUB DUP3 AND PUSH1 0x0 SWAP1 DUP2 MSTORE PUSH1 0x1A PUSH1 0x20 MSTORE PUSH1 0x40 DUP2 KECCAK256 SLOAD TIMESTAMP SWAP1 ISZERO DUP1 ISZERO PUSH2 0x15AF JUMPI POP DUP3 ISZERO ISZERO JUMPDEST ISZERO PUSH2 0x15BD JUMPI POP PUSH1 0x18 SLOAD PUSH2 0x10FA JUMP JUMPDEST PUSH1 0x1 PUSH1 0x1 PUSH1 0xA0 SHL SUB DUP5 AND PUSH1 0x0 SWAP1 DUP2 MSTORE PUSH1 0x1A PUSH1 0x20 MSTORE PUSH1 0x40 SWAP1 KECCAK256 SLOAD ISZERO PUSH2 0x10FA JUMPI POP POP POP PUSH1 0x1 PUSH1 0x1 PUSH1 0xA0 SHL SUB AND PUSH1 0x0 SWAP1 DUP2 MSTORE PUSH1 0x1A PUSH1 0x20 MSTORE PUSH1 0x40 SWAP1 KECCAK256 SLOAD SWAP1 JUMP JUMPDEST PUSH1 0x0 DUP1 DUP5 PUSH1 0x12 SLOAD PUSH2 0x160A SWAP2 SWAP1 PUSH2 0x24C0 JUMP JUMPDEST SWAP1 POP PUSH1 0x0 TIMESTAMP DUP3 GT PUSH2 0x161C JUMPI PUSH1 0x0 PUSH2 0x1626 JUMP JUMPDEST PUSH2 0x1626 TIMESTAMP DUP4 PUSH2 0x2517 JUMP JUMPDEST SWAP1 POP PUSH1 0x0 PUSH2 0x1634 DUP6 DUP8 PUSH2 0x24C0 JUMP JUMPDEST PUSH1 0x12 SLOAD PUSH2 0x1641 SWAP1 DUP8 PUSH2 0x24F8 JUMP JUMPDEST PUSH2 0x164B DUP5 DUP10 PUSH2 0x24F8 JUMP JUMPDEST PUSH2 0x1655 SWAP2 SWAP1 PUSH2 0x24C0 JUMP JUMPDEST PUSH2 0x165F SWAP2 SWAP1 PUSH2 0x24D8 JUMP JUMPDEST SWAP1 POP DUP2 PUSH2 0x166C DUP3 DUP10 PUSH2 0x2517 JUMP JUMPDEST PUSH2 0x1676 SWAP2 SWAP1 PUSH2 0x24C0 JUMP JUMPDEST SWAP8 SWAP7 POP POP POP POP POP POP POP JUMP JUMPDEST PUSH1 0x0 PUSH1 0x12 SLOAD DUP3 GT ISZERO PUSH2 0x1695 JUMPI POP POP PUSH1 0x13 SLOAD SWAP1 JUMP JUMPDEST PUSH1 0x10 SLOAD DUP3 GT ISZERO PUSH2 0x16D4 JUMPI PUSH1 0x10 SLOAD PUSH1 0x12 SLOAD PUSH2 0x16AF SWAP2 SWAP1 PUSH2 0x2517 JUMP JUMPDEST DUP3 PUSH1 0x12 SLOAD PUSH2 0x16BD SWAP2 SWAP1 PUSH2 0x2517 JUMP JUMPDEST PUSH1 0x11 SLOAD PUSH2 0x16CA SWAP2 SWAP1 PUSH2 0x24F8 JUMP JUMPDEST PUSH2 0x800 SWAP2 SWAP1 PUSH2 0x24D8 JUMP JUMPDEST PUSH1 0xE SLOAD DUP3 GT ISZERO PUSH2 0x172C JUMPI PUSH1 0xE SLOAD PUSH1 0x10 SLOAD PUSH2 0x16EE SWAP2 SWAP1 PUSH2 0x2517 JUMP JUMPDEST PUSH1 0xE SLOAD PUSH2 0x16FB SWAP1 DUP5 PUSH2 0x2517 JUMP JUMPDEST PUSH1 0x11 SLOAD PUSH1 0xF SLOAD PUSH2 0x170B SWAP2 SWAP1 PUSH2 0x2517 JUMP JUMPDEST PUSH2 0x1715 SWAP2 SWAP1 PUSH2 0x24F8 JUMP JUMPDEST PUSH2 0x171F SWAP2 SWAP1 PUSH2 0x24D8 JUMP JUMPDEST PUSH1 0xF SLOAD PUSH2 0x800 SWAP2 SWAP1 PUSH2 0x2517 JUMP JUMPDEST PUSH1 0xC SLOAD DUP3 GT ISZERO PUSH2 0x176B JUMPI PUSH1 0xE SLOAD DUP3 PUSH1 0xF SLOAD PUSH1 0xD SLOAD PUSH2 0x174A SWAP2 SWAP1 PUSH2 0x2517 JUMP JUMPDEST PUSH2 0x1754 SWAP2 SWAP1 PUSH2 0x24F8 JUMP JUMPDEST PUSH2 0x175E SWAP2 SWAP1 PUSH2 0x24D8 JUMP JUMPDEST PUSH1 0xD SLOAD PUSH2 0x800 SWAP2 SWAP1 PUSH2 0x2517 JUMP JUMPDEST POP POP PUSH1 0xB SLOAD SWAP1 JUMP JUMPDEST PUSH1 0x0 PUSH2 0x10FA DUP4 DUP4 PUSH2 0x2101 JUMP JUMPDEST PUSH1 0x0 PUSH2 0x800 DUP3 SLOAD SWAP1 JUMP JUMPDEST PUSH1 0x0 DUP3 DUP2 MSTORE PUSH1 0x20 DUP2 SWAP1 MSTORE PUSH1 0x40 SWAP1 KECCAK256 PUSH1 0x1 ADD SLOAD PUSH2 0x17A5 DUP2 CALLER PUSH2 0x141E JUMP JUMPDEST PUSH2 0x921 DUP4 DUP4 PUSH2 0x1F65 JUMP JUMPDEST TIMESTAMP PUSH1 0x6 SSTORE PUSH1 0x5 SLOAD ISZERO PUSH2 0x1AD1 JUMPI PUSH1 0x0 PUSH3 0xF4240 PUSH1 0xA SLOAD PUSH1 0x5 SLOAD PUSH2 0x17D1 SWAP2 SWAP1 PUSH2 0x24F8 JUMP JUMPDEST PUSH2 0x17DB SWAP2 SWAP1 PUSH2 0x24D8 JUMP JUMPDEST SWAP1 POP PUSH1 0x0 DUP2 PUSH1 0x5 SLOAD PUSH2 0x17ED SWAP2 SWAP1 PUSH2 0x2517 JUMP JUMPDEST SWAP1 POP DUP1 PUSH1 0x16 PUSH1 0x0 DUP3 DUP3 SLOAD PUSH2 0x1801 SWAP2 SWAP1 PUSH2 0x24C0 JUMP JUMPDEST SWAP1 SWAP2 SSTORE POP POP PUSH1 0x5 SLOAD PUSH1 0x17 DUP1 SLOAD PUSH1 0x0 SWAP1 PUSH2 0x181B SWAP1 DUP5 SWAP1 PUSH2 0x2517 JUMP JUMPDEST SWAP1 SWAP2 SSTORE POP POP PUSH1 0x0 PUSH1 0x5 SSTORE PUSH1 0x16 SLOAD DUP3 ISZERO PUSH2 0x1A61 JUMPI PUSH1 0x0 PUSH2 0x185B PUSH32 0xB2E9F492F90B23409F94892DAEA9D3B46C549678E9E57181D007527A18B8B573 PUSH1 0x0 PUSH2 0x10E2 JUMP JUMPDEST SWAP1 POP PUSH1 0x0 PUSH2 0x1874 PUSH3 0xF4240 PUSH8 0xDE0B6B3A7640000 PUSH2 0x24F8 JUMP JUMPDEST PUSH1 0x2 SLOAD PUSH1 0x4 SLOAD PUSH2 0x1884 SWAP1 DUP9 PUSH2 0x24F8 JUMP JUMPDEST PUSH2 0x188E SWAP2 SWAP1 PUSH2 0x24F8 JUMP JUMPDEST PUSH2 0x1898 SWAP2 SWAP1 PUSH2 0x24D8 JUMP JUMPDEST PUSH1 0x8 SLOAD PUSH1 0x40 MLOAD PUSH4 0xBB9FF5D PUSH1 0xE0 SHL DUP2 MSTORE PUSH1 0x1 PUSH1 0x1 PUSH1 0xA0 SHL SUB DUP6 DUP2 AND PUSH1 0x4 DUP4 ADD MSTORE PUSH1 0x24 DUP3 ADD DUP5 SWAP1 MSTORE SWAP3 SWAP4 POP SWAP2 AND SWAP1 DUP2 SWAP1 PUSH4 0xBB9FF5D SWAP1 PUSH1 0x44 ADD PUSH1 0x0 PUSH1 0x40 MLOAD DUP1 DUP4 SUB DUP2 PUSH1 0x0 DUP8 DUP1 EXTCODESIZE ISZERO DUP1 ISZERO PUSH2 0x18EA JUMPI PUSH1 0x0 DUP1 REVERT JUMPDEST POP GAS CALL ISZERO DUP1 ISZERO PUSH2 0x18FE JUMPI RETURNDATASIZE PUSH1 0x0 DUP1 RETURNDATACOPY RETURNDATASIZE PUSH1 0x0 REVERT JUMPDEST POP POP POP POP PUSH1 0x0 PUSH2 0x192F PUSH32 0x9A20F14DE69C79D5CEB9FDA78DC50C2B99FB2122F9BEAAB4A028EF2DC21BA2C8 PUSH1 0x0 PUSH2 0x10E2 JUMP JUMPDEST SWAP1 POP PUSH1 0x0 PUSH2 0x1948 PUSH3 0xF4240 PUSH8 0xDE0B6B3A7640000 PUSH2 0x24F8 JUMP JUMPDEST PUSH1 0x3 SLOAD PUSH1 0x4 SLOAD PUSH2 0x1958 SWAP1 DUP12 PUSH2 0x24F8 JUMP JUMPDEST PUSH2 0x1962 SWAP2 SWAP1 PUSH2 0x24F8 JUMP JUMPDEST PUSH2 0x196C SWAP2 SWAP1 PUSH2 0x24D8 JUMP JUMPDEST PUSH1 0x40 MLOAD PUSH4 0xBB9FF5D PUSH1 0xE0 SHL DUP2 MSTORE PUSH1 0x1 PUSH1 0x1 PUSH1 0xA0 SHL SUB DUP8 DUP2 AND PUSH1 0x4 DUP4 ADD MSTORE PUSH1 0x24 DUP3 ADD DUP4 SWAP1 MSTORE SWAP2 SWAP3 POP SWAP1 DUP5 AND SWAP1 PUSH4 0xBB9FF5D SWAP1 PUSH1 0x44 ADD PUSH1 0x0 PUSH1 0x40 MLOAD DUP1 DUP4 SUB DUP2 PUSH1 0x0 DUP8 DUP1 EXTCODESIZE ISZERO DUP1 ISZERO PUSH2 0x19BA JUMPI PUSH1 0x0 DUP1 REVERT JUMPDEST POP GAS CALL ISZERO DUP1 ISZERO PUSH2 0x19CE JUMPI RETURNDATASIZE PUSH1 0x0 DUP1 RETURNDATACOPY RETURNDATASIZE PUSH1 0x0 REVERT JUMPDEST POP POP POP PUSH1 0x16 DUP8 SWAP1 SSTORE POP PUSH1 0x40 DUP1 MLOAD PUSH1 0x1 PUSH1 0x1 PUSH1 0xA0 SHL SUB DUP5 AND DUP2 MSTORE PUSH1 0x20 DUP2 ADD DUP4 SWAP1 MSTORE PUSH32 0x6C7E719A577895A75E196DFF96D6A2C868E7D082E78310A21851A8E9B099B652 SWAP2 ADD PUSH1 0x40 MLOAD DUP1 SWAP2 SUB SWAP1 LOG1 PUSH1 0x40 DUP1 MLOAD PUSH1 0x1 PUSH1 0x1 PUSH1 0xA0 SHL SUB DUP8 AND DUP2 MSTORE PUSH1 0x20 DUP2 ADD DUP7 SWAP1 MSTORE PUSH32 0x6C7E719A577895A75E196DFF96D6A2C868E7D082E78310A21851A8E9B099B652 SWAP2 ADD PUSH1 0x40 MLOAD DUP1 SWAP2 SUB SWAP1 LOG1 POP POP POP POP POP JUMPDEST PUSH1 0x17 SLOAD PUSH1 0x16 SLOAD PUSH2 0x1A79 SWAP1 PUSH8 0xDE0B6B3A7640000 PUSH2 0x24F8 JUMP JUMPDEST PUSH2 0x1A83 SWAP2 SWAP1 PUSH2 0x24D8 JUMP JUMPDEST PUSH2 0x1A95 SWAP1 PUSH8 0xDE0B6B3A7640000 PUSH2 0x24C0 JUMP JUMPDEST PUSH1 0x4 DUP2 SWAP1 SSTORE PUSH1 0x40 MLOAD SWAP1 DUP2 MSTORE PUSH32 0x4DBE4840D7465BD162F67814CEA0B519567A2E0E578BCDE61E7F4CED361E5A3D SWAP1 PUSH1 0x20 ADD PUSH1 0x40 MLOAD DUP1 SWAP2 SUB SWAP1 LOG1 POP POP POP JUMPDEST PUSH3 0xF4240 PUSH1 0x15 SLOAD LT ISZERO PUSH2 0x135F JUMPI PUSH1 0x8 SLOAD PUSH1 0x40 MLOAD PUSH32 0x6FB1A0700000000000000000000000000000000000000000000000000000000 DUP2 MSTORE PUSH1 0x3 PUSH1 0x4 DUP3 ADD MSTORE PUSH1 0x0 SWAP2 PUSH1 0x1 PUSH1 0x1 PUSH1 0xA0 SHL SUB AND SWAP1 PUSH4 0x6FB1A07 SWAP1 PUSH1 0x24 ADD PUSH1 0x20 PUSH1 0x40 MLOAD DUP1 DUP4 SUB DUP2 DUP7 DUP1 EXTCODESIZE ISZERO DUP1 ISZERO PUSH2 0x1B3C JUMPI PUSH1 0x0 DUP1 REVERT JUMPDEST POP GAS STATICCALL ISZERO DUP1 ISZERO PUSH2 0x1B50 JUMPI RETURNDATASIZE PUSH1 0x0 DUP1 RETURNDATACOPY RETURNDATASIZE PUSH1 0x0 REVERT JUMPDEST POP POP POP POP PUSH1 0x40 MLOAD RETURNDATASIZE PUSH1 0x1F NOT PUSH1 0x1F DUP3 ADD AND DUP3 ADD DUP1 PUSH1 0x40 MSTORE POP DUP2 ADD SWAP1 PUSH2 0x1B74 SWAP2 SWAP1 PUSH2 0x2160 JUMP JUMPDEST PUSH1 0x8 SLOAD PUSH1 0x40 MLOAD PUSH4 0x70A08231 PUSH1 0xE0 SHL DUP2 MSTORE PUSH1 0x1 PUSH1 0x1 PUSH1 0xA0 SHL SUB DUP1 DUP5 AND PUSH1 0x4 DUP4 ADD MSTORE SWAP3 SWAP4 POP PUSH1 0x0 SWAP3 SWAP1 SWAP2 AND SWAP1 PUSH4 0x70A08231 SWAP1 PUSH1 0x24 ADD PUSH1 0x20 PUSH1 0x40 MLOAD DUP1 DUP4 SUB DUP2 DUP7 DUP1 EXTCODESIZE ISZERO DUP1 ISZERO PUSH2 0x1BBF JUMPI PUSH1 0x0 DUP1 REVERT JUMPDEST POP GAS STATICCALL ISZERO DUP1 ISZERO PUSH2 0x1BD3 JUMPI RETURNDATASIZE PUSH1 0x0 DUP1 RETURNDATACOPY RETURNDATASIZE PUSH1 0x0 REVERT JUMPDEST POP POP POP POP PUSH1 0x40 MLOAD RETURNDATASIZE PUSH1 0x1F NOT PUSH1 0x1F DUP3 ADD AND DUP3 ADD DUP1 PUSH1 0x40 MSTORE POP DUP2 ADD SWAP1 PUSH2 0x1BF7 SWAP2 SWAP1 PUSH2 0x23B7 JUMP JUMPDEST SWAP1 POP PUSH3 0xF4240 PUSH1 0x15 SLOAD DUP3 PUSH2 0x1C0B SWAP2 SWAP1 PUSH2 0x24F8 JUMP JUMPDEST PUSH2 0x1C15 SWAP2 SWAP1 PUSH2 0x24D8 JUMP JUMPDEST PUSH1 0x14 DUP2 SWAP1 SSTORE PUSH1 0x40 MLOAD SWAP1 DUP2 MSTORE PUSH32 0x7BA725E56DCC09F610B29C747F1D1AFAB653F8048E4B527C0BAEDF8ED35858CB SWAP1 PUSH1 0x20 ADD PUSH1 0x40 MLOAD DUP1 SWAP2 SUB SWAP1 LOG1 POP POP JUMP JUMPDEST PUSH1 0x0 DUP3 DUP2 MSTORE PUSH1 0x20 DUP2 DUP2 MSTORE PUSH1 0x40 DUP1 DUP4 KECCAK256 PUSH1 0x1 PUSH1 0x1 PUSH1 0xA0 SHL SUB DUP6 AND DUP5 MSTORE SWAP1 SWAP2 MSTORE SWAP1 KECCAK256 SLOAD PUSH1 0xFF AND PUSH2 0x139E JUMPI PUSH1 0x0 DUP3 DUP2 MSTORE PUSH1 0x20 DUP2 DUP2 MSTORE PUSH1 0x40 DUP1 DUP4 KECCAK256 PUSH1 0x1 PUSH1 0x1 PUSH1 0xA0 SHL SUB DUP6 AND DUP5 MSTORE SWAP1 SWAP2 MSTORE SWAP1 KECCAK256 DUP1 SLOAD PUSH1 0xFF NOT AND PUSH1 0x1 OR SWAP1 SSTORE PUSH2 0x1CAB CALLER SWAP1 JUMP JUMPDEST PUSH1 0x1 PUSH1 0x1 PUSH1 0xA0 SHL SUB AND DUP2 PUSH1 0x1 PUSH1 0x1 PUSH1 0xA0 SHL SUB AND DUP4 PUSH32 0x2F8788117E7EFF1D82E926EC794901D17C78024A50270940304540A733656F0D PUSH1 0x40 MLOAD PUSH1 0x40 MLOAD DUP1 SWAP2 SUB SWAP1 LOG4 POP POP JUMP JUMPDEST PUSH1 0x0 DUP2 DUP2 MSTORE PUSH1 0x1 DUP4 ADD PUSH1 0x20 MSTORE PUSH1 0x40 DUP2 KECCAK256 SLOAD PUSH2 0x1D36 JUMPI POP DUP2 SLOAD PUSH1 0x1 DUP2 DUP2 ADD DUP5 SSTORE PUSH1 0x0 DUP5 DUP2 MSTORE PUSH1 0x20 DUP1 DUP3 KECCAK256 SWAP1 SWAP4 ADD DUP5 SWAP1 SSTORE DUP5 SLOAD DUP5 DUP3 MSTORE DUP3 DUP7 ADD SWAP1 SWAP4 MSTORE PUSH1 0x40 SWAP1 KECCAK256 SWAP2 SWAP1 SWAP2 SSTORE PUSH2 0x800 JUMP JUMPDEST POP PUSH1 0x0 PUSH2 0x800 JUMP JUMPDEST PUSH1 0x60 PUSH1 0x0 PUSH2 0x1D4D DUP4 PUSH1 0x2 PUSH2 0x24F8 JUMP JUMPDEST PUSH2 0x1D58 SWAP1 PUSH1 0x2 PUSH2 0x24C0 JUMP JUMPDEST PUSH8 0xFFFFFFFFFFFFFFFF DUP2 GT ISZERO PUSH2 0x1D7E JUMPI PUSH4 0x4E487B71 PUSH1 0xE0 SHL PUSH1 0x0 MSTORE PUSH1 0x41 PUSH1 0x4 MSTORE PUSH1 0x24 PUSH1 0x0 REVERT JUMPDEST PUSH1 0x40 MLOAD SWAP1 DUP1 DUP3 MSTORE DUP1 PUSH1 0x1F ADD PUSH1 0x1F NOT AND PUSH1 0x20 ADD DUP3 ADD PUSH1 0x40 MSTORE DUP1 ISZERO PUSH2 0x1DA8 JUMPI PUSH1 0x20 DUP3 ADD DUP2 DUP1 CALLDATASIZE DUP4 CALLDATACOPY ADD SWAP1 POP JUMPDEST POP SWAP1 POP PUSH32 0x3000000000000000000000000000000000000000000000000000000000000000 DUP2 PUSH1 0x0 DUP2 MLOAD DUP2 LT PUSH2 0x1DED JUMPI PUSH4 0x4E487B71 PUSH1 0xE0 SHL PUSH1 0x0 MSTORE PUSH1 0x32 PUSH1 0x4 MSTORE PUSH1 0x24 PUSH1 0x0 REVERT JUMPDEST PUSH1 0x20 ADD ADD SWAP1 PUSH1 0x1 PUSH1 0x1 PUSH1 0xF8 SHL SUB NOT AND SWAP1 DUP2 PUSH1 0x0 BYTE SWAP1 MSTORE8 POP PUSH32 0x7800000000000000000000000000000000000000000000000000000000000000 DUP2 PUSH1 0x1 DUP2 MLOAD DUP2 LT PUSH2 0x1E46 JUMPI PUSH4 0x4E487B71 PUSH1 0xE0 SHL PUSH1 0x0 MSTORE PUSH1 0x32 PUSH1 0x4 MSTORE PUSH1 0x24 PUSH1 0x0 REVERT JUMPDEST PUSH1 0x20 ADD ADD SWAP1 PUSH1 0x1 PUSH1 0x1 PUSH1 0xF8 SHL SUB NOT AND SWAP1 DUP2 PUSH1 0x0 BYTE SWAP1 MSTORE8 POP PUSH1 0x0 PUSH2 0x1E6A DUP5 PUSH1 0x2 PUSH2 0x24F8 JUMP JUMPDEST PUSH2 0x1E75 SWAP1 PUSH1 0x1 PUSH2 0x24C0 JUMP JUMPDEST SWAP1 POP JUMPDEST PUSH1 0x1 DUP2 GT ISZERO PUSH2 0x1F16 JUMPI PUSH32 0x3031323334353637383961626364656600000000000000000000000000000000 DUP6 PUSH1 0xF AND PUSH1 0x10 DUP2 LT PUSH2 0x1EC4 JUMPI PUSH4 0x4E487B71 PUSH1 0xE0 SHL PUSH1 0x0 MSTORE PUSH1 0x32 PUSH1 0x4 MSTORE PUSH1 0x24 PUSH1 0x0 REVERT JUMPDEST BYTE PUSH1 0xF8 SHL DUP3 DUP3 DUP2 MLOAD DUP2 LT PUSH2 0x1EE8 JUMPI PUSH4 0x4E487B71 PUSH1 0xE0 SHL PUSH1 0x0 MSTORE PUSH1 0x32 PUSH1 0x4 MSTORE PUSH1 0x24 PUSH1 0x0 REVERT JUMPDEST PUSH1 0x20 ADD ADD SWAP1 PUSH1 0x1 PUSH1 0x1 PUSH1 0xF8 SHL SUB NOT AND SWAP1 DUP2 PUSH1 0x0 BYTE SWAP1 MSTORE8 POP PUSH1 0x4 SWAP5 SWAP1 SWAP5 SHR SWAP4 PUSH2 0x1F0F DUP2 PUSH2 0x255A JUMP JUMPDEST SWAP1 POP PUSH2 0x1E78 JUMP JUMPDEST POP DUP4 ISZERO PUSH2 0x10FA JUMPI PUSH1 0x40 MLOAD PUSH3 0x461BCD PUSH1 0xE5 SHL DUP2 MSTORE PUSH1 0x20 PUSH1 0x4 DUP3 ADD DUP2 SWAP1 MSTORE PUSH1 0x24 DUP3 ADD MSTORE PUSH32 0x537472696E67733A20686578206C656E67746820696E73756666696369656E74 PUSH1 0x44 DUP3 ADD MSTORE PUSH1 0x64 ADD PUSH2 0xC88 JUMP JUMPDEST PUSH1 0x0 DUP3 DUP2 MSTORE PUSH1 0x20 DUP2 DUP2 MSTORE PUSH1 0x40 DUP1 DUP4 KECCAK256 PUSH1 0x1 PUSH1 0x1 PUSH1 0xA0 SHL SUB DUP6 AND DUP5 MSTORE SWAP1 SWAP2 MSTORE SWAP1 KECCAK256 SLOAD PUSH1 0xFF AND ISZERO PUSH2 0x139E JUMPI PUSH1 0x0 DUP3 DUP2 MSTORE PUSH1 0x20 DUP2 DUP2 MSTORE PUSH1 0x40 DUP1 DUP4 KECCAK256 PUSH1 0x1 PUSH1 0x1 PUSH1 0xA0 SHL SUB DUP6 AND DUP1 DUP6 MSTORE SWAP3 MSTORE DUP1 DUP4 KECCAK256 DUP1 SLOAD PUSH1 0xFF NOT AND SWAP1 SSTORE MLOAD CALLER SWAP3 DUP6 SWAP2 PUSH32 0xF6391F5C32D9C69D2A47EA670B442974B53935D1EDC7FD64EB21E047A839171B SWAP2 SWAP1 LOG4 POP POP JUMP JUMPDEST PUSH1 0x0 DUP2 DUP2 MSTORE PUSH1 0x1 DUP4 ADD PUSH1 0x20 MSTORE PUSH1 0x40 DUP2 KECCAK256 SLOAD DUP1 ISZERO PUSH2 0x20F7 JUMPI PUSH1 0x0 PUSH2 0x2008 PUSH1 0x1 DUP4 PUSH2 0x2517 JUMP JUMPDEST DUP6 SLOAD SWAP1 SWAP2 POP PUSH1 0x0 SWAP1 PUSH2 0x201C SWAP1 PUSH1 0x1 SWAP1 PUSH2 0x2517 JUMP JUMPDEST SWAP1 POP DUP2 DUP2 EQ PUSH2 0x209D JUMPI PUSH1 0x0 DUP7 PUSH1 0x0 ADD DUP3 DUP2 SLOAD DUP2 LT PUSH2 0x204A JUMPI PUSH4 0x4E487B71 PUSH1 0xE0 SHL PUSH1 0x0 MSTORE PUSH1 0x32 PUSH1 0x4 MSTORE PUSH1 0x24 PUSH1 0x0 REVERT JUMPDEST SWAP1 PUSH1 0x0 MSTORE PUSH1 0x20 PUSH1 0x0 KECCAK256 ADD SLOAD SWAP1 POP DUP1 DUP8 PUSH1 0x0 ADD DUP5 DUP2 SLOAD DUP2 LT PUSH2 0x207B JUMPI PUSH4 0x4E487B71 PUSH1 0xE0 SHL PUSH1 0x0 MSTORE PUSH1 0x32 PUSH1 0x4 MSTORE PUSH1 0x24 PUSH1 0x0 REVERT JUMPDEST PUSH1 0x0 SWAP2 DUP3 MSTORE PUSH1 0x20 DUP1 DUP4 KECCAK256 SWAP1 SWAP2 ADD SWAP3 SWAP1 SWAP3 SSTORE SWAP2 DUP3 MSTORE PUSH1 0x1 DUP9 ADD SWAP1 MSTORE PUSH1 0x40 SWAP1 KECCAK256 DUP4 SWAP1 SSTORE JUMPDEST DUP6 SLOAD DUP7 SWAP1 DUP1 PUSH2 0x20BC JUMPI PUSH4 0x4E487B71 PUSH1 0xE0 SHL PUSH1 0x0 MSTORE PUSH1 0x31 PUSH1 0x4 MSTORE PUSH1 0x24 PUSH1 0x0 REVERT JUMPDEST PUSH1 0x1 SWAP1 SUB DUP2 DUP2 SWAP1 PUSH1 0x0 MSTORE PUSH1 0x20 PUSH1 0x0 KECCAK256 ADD PUSH1 0x0 SWAP1 SSTORE SWAP1 SSTORE DUP6 PUSH1 0x1 ADD PUSH1 0x0 DUP7 DUP2 MSTORE PUSH1 0x20 ADD SWAP1 DUP2 MSTORE PUSH1 0x20 ADD PUSH1 0x0 KECCAK256 PUSH1 0x0 SWAP1 SSTORE PUSH1 0x1 SWAP4 POP POP POP POP PUSH2 0x800 JUMP JUMPDEST PUSH1 0x0 SWAP2 POP POP PUSH2 0x800 JUMP JUMPDEST PUSH1 0x0 DUP3 PUSH1 0x0 ADD DUP3 DUP2 SLOAD DUP2 LT PUSH2 0x2126 JUMPI PUSH4 0x4E487B71 PUSH1 0xE0 SHL PUSH1 0x0 MSTORE PUSH1 0x32 PUSH1 0x4 MSTORE PUSH1 0x24 PUSH1 0x0 REVERT JUMPDEST SWAP1 PUSH1 0x0 MSTORE PUSH1 0x20 PUSH1 0x0 KECCAK256 ADD SLOAD SWAP1 POP SWAP3 SWAP2 POP POP JUMP JUMPDEST DUP1 MLOAD PUSH2 0x12B0 DUP2 PUSH2 0x25BA JUMP JUMPDEST PUSH1 0x0 PUSH1 0x20 DUP3 DUP5 SUB SLT ISZERO PUSH2 0x2155 JUMPI DUP1 DUP2 REVERT JUMPDEST DUP2 CALLDATALOAD PUSH2 0x10FA DUP2 PUSH2 0x25A2 JUMP JUMPDEST PUSH1 0x0 PUSH1 0x20 DUP3 DUP5 SUB SLT ISZERO PUSH2 0x2171 JUMPI DUP1 DUP2 REVERT JUMPDEST DUP2 MLOAD PUSH2 0x10FA DUP2 PUSH2 0x25A2 JUMP JUMPDEST PUSH1 0x0 DUP1 PUSH1 0x40 DUP4 DUP6 SUB SLT ISZERO PUSH2 0x218E JUMPI DUP1 DUP2 REVERT JUMPDEST DUP3 CALLDATALOAD PUSH2 0x2199 DUP2 PUSH2 0x25A2 JUMP JUMPDEST SWAP5 PUSH1 0x20 SWAP4 SWAP1 SWAP4 ADD CALLDATALOAD SWAP4 POP POP POP JUMP JUMPDEST PUSH1 0x0 DUP1 PUSH1 0x20 DUP4 DUP6 SUB SLT ISZERO PUSH2 0x21B9 JUMPI DUP2 DUP3 REVERT JUMPDEST DUP3 CALLDATALOAD PUSH8 0xFFFFFFFFFFFFFFFF DUP1 DUP3 GT ISZERO PUSH2 0x21D0 JUMPI DUP4 DUP5 REVERT JUMPDEST DUP2 DUP6 ADD SWAP2 POP DUP6 PUSH1 0x1F DUP4 ADD SLT PUSH2 0x21E3 JUMPI DUP4 DUP5 REVERT JUMPDEST DUP2 CALLDATALOAD DUP2 DUP2 GT ISZERO PUSH2 0x21F1 JUMPI DUP5 DUP6 REVERT JUMPDEST DUP7 PUSH1 0x20 DUP3 PUSH1 0x6 SHL DUP6 ADD ADD GT ISZERO PUSH2 0x2205 JUMPI DUP5 DUP6 REVERT JUMPDEST PUSH1 0x20 SWAP3 SWAP1 SWAP3 ADD SWAP7 SWAP2 SWAP6 POP SWAP1 SWAP4 POP POP POP POP JUMP JUMPDEST PUSH1 0x0 PUSH1 0x20 DUP3 DUP5 SUB SLT ISZERO PUSH2 0x2228 JUMPI DUP1 DUP2 REVERT JUMPDEST DUP2 MLOAD PUSH2 0x10FA DUP2 PUSH2 0x25BA JUMP JUMPDEST PUSH1 0x0 DUP1 PUSH1 0x0 PUSH1 0x60 DUP5 DUP7 SUB SLT ISZERO PUSH2 0x2247 JUMPI DUP1 DUP2 REVERT JUMPDEST DUP4 CALLDATALOAD PUSH2 0x2252 DUP2 PUSH2 0x25BA JUMP JUMPDEST SWAP3 POP PUSH1 0x20 DUP5 ADD CALLDATALOAD PUSH2 0x2262 DUP2 PUSH2 0x25A2 JUMP JUMPDEST SWAP3 SWAP6 SWAP3 SWAP5 POP POP POP PUSH1 0x40 SWAP2 SWAP1 SWAP2 ADD CALLDATALOAD SWAP1 JUMP JUMPDEST PUSH1 0x0 PUSH1 0x20 DUP3 DUP5 SUB SLT ISZERO PUSH2 0x2284 JUMPI DUP1 DUP2 REVERT JUMPDEST POP CALLDATALOAD SWAP2 SWAP1 POP JUMP JUMPDEST PUSH1 0x0 DUP1 PUSH1 0x40 DUP4 DUP6 SUB SLT ISZERO PUSH2 0x229D JUMPI DUP2 DUP3 REVERT JUMPDEST DUP3 CALLDATALOAD SWAP2 POP PUSH1 0x20 DUP4 ADD CALLDATALOAD PUSH2 0x22AF DUP2 PUSH2 0x25A2 JUMP JUMPDEST DUP1 SWAP2 POP POP SWAP3 POP SWAP3 SWAP1 POP JUMP JUMPDEST PUSH1 0x0 DUP1 PUSH1 0x40 DUP4 DUP6 SUB SLT ISZERO PUSH2 0x22CC JUMPI DUP2 DUP3 REVERT JUMPDEST POP POP DUP1 CALLDATALOAD SWAP3 PUSH1 0x20 SWAP1 SWAP2 ADD CALLDATALOAD SWAP2 POP JUMP JUMPDEST PUSH1 0x0 PUSH1 0x20 DUP3 DUP5 SUB SLT ISZERO PUSH2 0x22EC JUMPI DUP1 DUP2 REVERT JUMPDEST DUP2 CALLDATALOAD PUSH1 0x1 PUSH1 0x1 PUSH1 0xE0 SHL SUB NOT DUP2 AND DUP2 EQ PUSH2 0x10FA JUMPI DUP2 DUP3 REVERT JUMPDEST PUSH1 0x0 PUSH1 0xA0 DUP3 DUP5 SUB SLT ISZERO PUSH2 0x2314 JUMPI DUP1 DUP2 REVERT JUMPDEST PUSH1 0x40 MLOAD PUSH1 0xA0 DUP2 ADD DUP2 DUP2 LT PUSH8 0xFFFFFFFFFFFFFFFF DUP3 GT OR ISZERO PUSH2 0x2343 JUMPI PUSH4 0x4E487B71 PUSH1 0xE0 SHL DUP4 MSTORE PUSH1 0x41 PUSH1 0x4 MSTORE PUSH1 0x24 DUP4 REVERT JUMPDEST PUSH1 0x40 MSTORE DUP3 MLOAD PUSH2 0x2351 DUP2 PUSH2 0x25BA JUMP JUMPDEST DUP2 MSTORE PUSH1 0x20 DUP4 ADD MLOAD PUSH2 0x2361 DUP2 PUSH2 0x25BA JUMP JUMPDEST PUSH1 0x20 DUP3 ADD MSTORE PUSH2 0x2372 PUSH1 0x40 DUP5 ADD PUSH2 0x2139 JUMP JUMPDEST PUSH1 0x40 DUP3 ADD MSTORE PUSH2 0x2383 PUSH1 0x60 DUP5 ADD PUSH2 0x2139 JUMP JUMPDEST PUSH1 0x60 DUP3 ADD MSTORE PUSH2 0x2394 PUSH1 0x80 DUP5 ADD PUSH2 0x2139 JUMP JUMPDEST PUSH1 0x80 DUP3 ADD MSTORE SWAP4 SWAP3 POP POP POP JUMP JUMPDEST PUSH1 0x0 PUSH1 0xA0 DUP3 DUP5 SUB SLT ISZERO PUSH2 0x23B1 JUMPI DUP1 DUP2 REVERT JUMPDEST POP SWAP2 SWAP1 POP JUMP JUMPDEST PUSH1 0x0 PUSH1 0x20 DUP3 DUP5 SUB SLT ISZERO PUSH2 0x23C8 JUMPI DUP1 DUP2 REVERT JUMPDEST POP MLOAD SWAP2 SWAP1 POP JUMP JUMPDEST PUSH1 0x0 DUP1 PUSH1 0x40 DUP4 DUP6 SUB SLT ISZERO PUSH2 0x22CC JUMPI DUP1 DUP2 REVERT JUMPDEST PUSH1 0x0 DUP1 PUSH1 0x0 PUSH1 0x60 DUP5 DUP7 SUB SLT ISZERO PUSH2 0x23F5 JUMPI DUP1 DUP2 REVERT JUMPDEST POP POP DUP2 CALLDATALOAD SWAP4 PUSH1 0x20 DUP4 ADD CALLDATALOAD SWAP4 POP PUSH1 0x40 SWAP1 SWAP3 ADD CALLDATALOAD SWAP2 SWAP1 POP JUMP JUMPDEST PUSH32 0x416363657373436F6E74726F6C3A206163636F756E7420000000000000000000 DUP2 MSTORE PUSH1 0x0 DUP4 MLOAD PUSH2 0x2444 DUP2 PUSH1 0x17 DUP6 ADD PUSH1 0x20 DUP9 ADD PUSH2 0x252E JUMP JUMPDEST PUSH32 0x206973206D697373696E6720726F6C6520000000000000000000000000000000 PUSH1 0x17 SWAP2 DUP5 ADD SWAP2 DUP3 ADD MSTORE DUP4 MLOAD PUSH2 0x2481 DUP2 PUSH1 0x28 DUP5 ADD PUSH1 0x20 DUP9 ADD PUSH2 0x252E JUMP JUMPDEST ADD PUSH1 0x28 ADD SWAP5 SWAP4 POP POP POP POP JUMP JUMPDEST PUSH1 0x20 DUP2 MSTORE PUSH1 0x0 DUP3 MLOAD DUP1 PUSH1 0x20 DUP5 ADD MSTORE PUSH2 0x24AC DUP2 PUSH1 0x40 DUP6 ADD PUSH1 0x20 DUP8 ADD PUSH2 0x252E JUMP JUMPDEST PUSH1 0x1F ADD PUSH1 0x1F NOT AND SWAP2 SWAP1 SWAP2 ADD PUSH1 0x40 ADD SWAP3 SWAP2 POP POP JUMP JUMPDEST PUSH1 0x0 DUP3 NOT DUP3 GT ISZERO PUSH2 0x24D3 JUMPI PUSH2 0x24D3 PUSH2 0x258C JUMP JUMPDEST POP ADD SWAP1 JUMP JUMPDEST PUSH1 0x0 DUP3 PUSH2 0x24F3 JUMPI PUSH4 0x4E487B71 PUSH1 0xE0 SHL DUP2 MSTORE PUSH1 0x12 PUSH1 0x4 MSTORE PUSH1 0x24 DUP2 REVERT JUMPDEST POP DIV SWAP1 JUMP JUMPDEST PUSH1 0x0 DUP2 PUSH1 0x0 NOT DIV DUP4 GT DUP3 ISZERO ISZERO AND ISZERO PUSH2 0x2512 JUMPI PUSH2 0x2512 PUSH2 0x258C JUMP JUMPDEST POP MUL SWAP1 JUMP JUMPDEST PUSH1 0x0 DUP3 DUP3 LT ISZERO PUSH2 0x2529 JUMPI PUSH2 0x2529 PUSH2 0x258C JUMP JUMPDEST POP SUB SWAP1 JUMP JUMPDEST PUSH1 0x0 JUMPDEST DUP4 DUP2 LT ISZERO PUSH2 0x2549 JUMPI DUP2 DUP2 ADD MLOAD DUP4 DUP3 ADD MSTORE PUSH1 0x20 ADD PUSH2 0x2531 JUMP JUMPDEST DUP4 DUP2 GT ISZERO PUSH2 0x899 JUMPI POP POP PUSH1 0x0 SWAP2 ADD MSTORE JUMP JUMPDEST PUSH1 0x0 DUP2 PUSH2 0x2569 JUMPI PUSH2 0x2569 PUSH2 0x258C JUMP JUMPDEST POP PUSH1 0x0 NOT ADD SWAP1 JUMP JUMPDEST PUSH1 0x0 PUSH1 0x0 NOT DUP3 EQ ISZERO PUSH2 0x2585 JUMPI PUSH2 0x2585 PUSH2 0x258C JUMP JUMPDEST POP PUSH1 0x1 ADD SWAP1 JUMP JUMPDEST PUSH4 0x4E487B71 PUSH1 0xE0 SHL PUSH1 0x0 MSTORE PUSH1 0x11 PUSH1 0x4 MSTORE PUSH1 0x24 PUSH1 0x0 REVERT JUMPDEST PUSH1 0x1 PUSH1 0x1 PUSH1 0xA0 SHL SUB DUP2 AND DUP2 EQ PUSH2 0x25B7 JUMPI PUSH1 0x0 DUP1 REVERT JUMPDEST POP JUMP JUMPDEST DUP1 ISZERO ISZERO DUP2 EQ PUSH2 0x25B7 JUMPI PUSH1 0x0 DUP1 REVERT INVALID LOG2 PUSH5 0x6970667358 0x22 SLT KECCAK256 PUSH27 0x353A7CD8ACDEE29D55038C69665F22F572B5396EB4B83D3F158BEF LOG0 0xE3 0xA8 LOG4 PUSH5 0x736F6C6343 STOP ADDMOD DIV STOP CALLER "
		},
		"gasEstimates": {
			"creation": {
				"codeDepositCost": "1945200",
				"executionCost": "infinite",
				"totalCost": "infinite"
			},
			"external": {
				"ROLE_ADMIN()": "285",
				"ROLE_DEX()": "283",
				"ROLE_TEAM_DEVELOPING()": "328",
				"ROLE_TEAM_MARKETING()": "307",
				"batchBurnAndReward()": "1064",
				"botTaxPercent()": "1086",
				"buyLimitAmount()": "1062",
				"buyLimitPercent()": "1129",
				"buyTimestampStorage(address)": "1324",
				"cachedMultiplier()": "1108",
				"chargeCustomTax(uint256,uint256)": "infinite",
				"cycleOneEnds()": "1085",
				"cycleOneStartTaxPercent()": "1064",
				"cycleThreeEndTaxPercent()": "1129",
				"cycleThreeEnds()": "1106",
				"cycleThreeStartTaxPercent()": "1105",
				"cycleTwoEnds()": "1087",
				"cycleTwoStartTaxPercent()": "1084",
				"defiFactoryTokenAddress()": "1096",
				"deftStorageAddress()": "1117",
				"earlyInvestorTimestamp()": "1085",
				"getBalance(address,uint256)": "infinite",
				"getRealBalance(address,uint256)": "infinite",
				"getRewardsBalance()": "infinite",
				"getRoleAdmin(bytes32)": "1260",
				"getRoleMember(bytes32,uint256)": "infinite",
				"getRoleMemberCount(bytes32)": "infinite",
				"getTotalSupply()": "infinite",
				"getWalletCurrentCycle(address)": "infinite",
				"grantRole(bytes32,address)": "infinite",
				"grantRolesBulk((bytes32,address)[])": "infinite",
				"hasRole(bytes32,address)": "1439",
				"howManyFirstMinutesIncreasedTax()": "1106",
				"lastCachedTimestamp()": "1129",
				"prepareHumanAddressMintOrBurnRewardsAmounts(bool,address,uint256)": "infinite",
				"prepareTaxAmounts((address,address,uint256,uint256,uint256))": "infinite",
				"publicForcedUpdateCacheMultiplier()": "infinite",
				"realTotalSupply()": "1061",
				"renounceRole(bytes32,address)": "infinite",
				"revokeRole(bytes32,address)": "infinite",
				"rewardsBalance()": "1130",
				"secondsBetweenRecacheUpdates()": "1084",
				"supportsInterface(bytes4)": "infinite",
				"teamDevelopingSplit()": "1084",
				"teamMarketingSplit()": "1062",
				"teamPercentOfTax()": "1128",
				"teamRewards()": "1062",
				"updateBotStorageAddress(address)": "infinite",
				"updateBotTaxSettings(uint256,uint256)": "infinite",
				"updateBuyLimitPercent(uint256)": "infinite",
				"updateCycleOneSettings(uint256,uint256)": "infinite",
				"updateCycleTwoSettings(uint256,uint256)": "infinite",
				"updateCycleTwoSettings(uint256,uint256,uint256)": "infinite",
				"updateDefiFactoryTokenAddress(address)": "infinite",
				"updateSecondsBetweenUpdates(uint256)": "infinite",
				"updateTeamPercentOfTax(uint256)": "infinite",
				"updateTeamSplit(uint256,uint256)": "infinite"
			},
			"internal": {
				"calculateCurrentCycleTax(uint256)": "infinite",
				"delayedUpdateCache()": "infinite",
				"forcedUpdateCache()": "infinite",
				"getNewBuyTimestamp(uint256,uint256,uint256)": "infinite",
				"getUpdatedBuyTimestampOfEarlyInvestor(address,uint256)": "2763",
				"isNotContract(address)": "infinite"
			}
		},
		"methodIdentifiers": {
			"ROLE_ADMIN()": "d391014b",
			"ROLE_DEX()": "f687e46e",
			"ROLE_TEAM_DEVELOPING()": "e35cae3d",
			"ROLE_TEAM_MARKETING()": "5a986f7c",
			"batchBurnAndReward()": "1336a98f",
			"botTaxPercent()": "1857b512",
			"buyLimitAmount()": "e62684db",
			"buyLimitPercent()": "326e9539",
			"buyTimestampStorage(address)": "dfd5e129",
			"cachedMultiplier()": "36177818",
			"chargeCustomTax(uint256,uint256)": "36098758",
			"cycleOneEnds()": "372affbf",
			"cycleOneStartTaxPercent()": "7207786f",
			"cycleThreeEndTaxPercent()": "9394aa66",
			"cycleThreeEnds()": "60fd5fd7",
			"cycleThreeStartTaxPercent()": "fc78bab3",
			"cycleTwoEnds()": "01bf9180",
			"cycleTwoStartTaxPercent()": "e7baf7f4",
			"defiFactoryTokenAddress()": "00686ddc",
			"deftStorageAddress()": "102a7a96",
			"earlyInvestorTimestamp()": "9f632f46",
			"getBalance(address,uint256)": "2b04e840",
			"getRealBalance(address,uint256)": "5cdba003",
			"getRewardsBalance()": "858a135d",
			"getRoleAdmin(bytes32)": "248a9ca3",
			"getRoleMember(bytes32,uint256)": "9010d07c",
			"getRoleMemberCount(bytes32)": "ca15c873",
			"getTotalSupply()": "c4e41b22",
			"getWalletCurrentCycle(address)": "9be810cc",
			"grantRole(bytes32,address)": "2f2ff15d",
			"grantRolesBulk((bytes32,address)[])": "03ed957f",
			"hasRole(bytes32,address)": "91d14854",
			"howManyFirstMinutesIncreasedTax()": "c4a8a169",
			"lastCachedTimestamp()": "40142e55",
			"prepareHumanAddressMintOrBurnRewardsAmounts(bool,address,uint256)": "42e58a63",
			"prepareTaxAmounts((address,address,uint256,uint256,uint256))": "815a61e0",
			"publicForcedUpdateCacheMultiplier()": "e8ac6e4e",
			"realTotalSupply()": "ef356a79",
			"renounceRole(bytes32,address)": "36568abe",
			"revokeRole(bytes32,address)": "d547741f",
			"rewardsBalance()": "131f2e53",
			"secondsBetweenRecacheUpdates()": "da9b835a",
			"supportsInterface(bytes4)": "01ffc9a7",
			"teamDevelopingSplit()": "5d04ba0d",
			"teamMarketingSplit()": "ba19f4da",
			"teamPercentOfTax()": "62109feb",
			"teamRewards()": "d7070ae2",
			"updateBotStorageAddress(address)": "4df95397",
			"updateBotTaxSettings(uint256,uint256)": "2cf136f3",
			"updateBuyLimitPercent(uint256)": "9219023f",
			"updateCycleOneSettings(uint256,uint256)": "fed77a80",
			"updateCycleTwoSettings(uint256,uint256)": "b6c5ab7b",
			"updateCycleTwoSettings(uint256,uint256,uint256)": "ebc27241",
			"updateDefiFactoryTokenAddress(address)": "bc6537e8",
			"updateSecondsBetweenUpdates(uint256)": "342c1919",
			"updateTeamPercentOfTax(uint256)": "119d7898",
			"updateTeamSplit(uint256,uint256)": "3f156350"
		}
	},
	"abi": [
		{
			"inputs": [],
			"stateMutability": "nonpayable",
			"type": "constructor"
		},
		{
			"anonymous": false,
			"inputs": [
				{
					"indexed": false,
					"internalType": "address",
					"name": "from",
					"type": "address"
				},
				{
					"indexed": false,
					"internalType": "address",
					"name": "to",
					"type": "address"
				},
				{
					"indexed": false,
					"internalType": "uint256",
					"name": "transferAmount",
					"type": "uint256"
				},
				{
					"indexed": false,
					"internalType": "uint256",
					"name": "taxedAmount",
					"type": "uint256"
				}
			],
			"name": "BotTransactionDetected",
			"type": "event"
		},
		{
			"anonymous": false,
			"inputs": [
				{
					"indexed": false,
					"internalType": "uint256",
					"name": "newBuyLimitAmount",
					"type": "uint256"
				}
			],
			"name": "BuyLimitAmountUpdated",
			"type": "event"
		},
		{
			"anonymous": false,
			"inputs": [
				{
					"indexed": false,
					"internalType": "uint256",
					"name": "newMultiplier",
					"type": "uint256"
				}
			],
			"name": "MultiplierUpdated",
			"type": "event"
		},
		{
			"anonymous": false,
			"inputs": [
				{
					"indexed": true,
					"internalType": "bytes32",
					"name": "role",
					"type": "bytes32"
				},
				{
					"indexed": true,
					"internalType": "bytes32",
					"name": "previousAdminRole",
					"type": "bytes32"
				},
				{
					"indexed": true,
					"internalType": "bytes32",
					"name": "newAdminRole",
					"type": "bytes32"
				}
			],
			"name": "RoleAdminChanged",
			"type": "event"
		},
		{
			"anonymous": false,
			"inputs": [
				{
					"indexed": true,
					"internalType": "bytes32",
					"name": "role",
					"type": "bytes32"
				},
				{
					"indexed": true,
					"internalType": "address",
					"name": "account",
					"type": "address"
				},
				{
					"indexed": true,
					"internalType": "address",
					"name": "sender",
					"type": "address"
				}
			],
			"name": "RoleGranted",
			"type": "event"
		},
		{
			"anonymous": false,
			"inputs": [
				{
					"indexed": true,
					"internalType": "bytes32",
					"name": "role",
					"type": "bytes32"
				},
				{
					"indexed": true,
					"internalType": "address",
					"name": "account",
					"type": "address"
				},
				{
					"indexed": true,
					"internalType": "address",
					"name": "sender",
					"type": "address"
				}
			],
			"name": "RoleRevoked",
			"type": "event"
		},
		{
			"anonymous": false,
			"inputs": [
				{
					"indexed": false,
					"internalType": "address",
					"name": "to",
					"type": "address"
				},
				{
					"indexed": false,
					"internalType": "uint256",
					"name": "transferAmount",
					"type": "uint256"
				}
			],
			"name": "TeamTaxRewardsSent",
			"type": "event"
		},
		{
			"anonymous": false,
			"inputs": [
				{
					"indexed": false,
					"internalType": "address",
					"name": "teamAddress",
					"type": "address"
				},
				{
					"indexed": false,
					"internalType": "uint256",
					"name": "teamRewards",
					"type": "uint256"
				}
			],
			"name": "TeamTaxRewardsUpdated",
			"type": "event"
		},
		{
			"anonymous": false,
			"inputs": [
				{
					"indexed": false,
					"internalType": "address",
					"name": "wallet",
					"type": "address"
				},
				{
					"indexed": false,
					"internalType": "uint256",
					"name": "buyTimestamp",
					"type": "uint256"
				}
			],
			"name": "WalletBuyTimestampUpdated",
			"type": "event"
		},
		{
			"inputs": [],
			"name": "ROLE_ADMIN",
			"outputs": [
				{
					"internalType": "bytes32",
					"name": "",
					"type": "bytes32"
				}
			],
			"stateMutability": "view",
			"type": "function"
		},
		{
			"inputs": [],
			"name": "ROLE_DEX",
			"outputs": [
				{
					"internalType": "bytes32",
					"name": "",
					"type": "bytes32"
				}
			],
			"stateMutability": "view",
			"type": "function"
		},
		{
			"inputs": [],
			"name": "ROLE_TEAM_DEVELOPING",
			"outputs": [
				{
					"internalType": "bytes32",
					"name": "",
					"type": "bytes32"
				}
			],
			"stateMutability": "view",
			"type": "function"
		},
		{
			"inputs": [],
			"name": "ROLE_TEAM_MARKETING",
			"outputs": [
				{
					"internalType": "bytes32",
					"name": "",
					"type": "bytes32"
				}
			],
			"stateMutability": "view",
			"type": "function"
		},
		{
			"inputs": [],
			"name": "batchBurnAndReward",
			"outputs": [
				{
					"internalType": "uint256",
					"name": "",
					"type": "uint256"
				}
			],
			"stateMutability": "view",
			"type": "function"
		},
		{
			"inputs": [],
			"name": "botTaxPercent",
			"outputs": [
				{
					"internalType": "uint256",
					"name": "",
					"type": "uint256"
				}
			],
			"stateMutability": "view",
			"type": "function"
		},
		{
			"inputs": [],
			"name": "buyLimitAmount",
			"outputs": [
				{
					"internalType": "uint256",
					"name": "",
					"type": "uint256"
				}
			],
			"stateMutability": "view",
			"type": "function"
		},
		{
			"inputs": [],
			"name": "buyLimitPercent",
			"outputs": [
				{
					"internalType": "uint256",
					"name": "",
					"type": "uint256"
				}
			],
			"stateMutability": "view",
			"type": "function"
		},
		{
			"inputs": [
				{
					"internalType": "address",
					"name": "",
					"type": "address"
				}
			],
			"name": "buyTimestampStorage",
			"outputs": [
				{
					"internalType": "uint256",
					"name": "",
					"type": "uint256"
				}
			],
			"stateMutability": "view",
			"type": "function"
		},
		{
			"inputs": [],
			"name": "cachedMultiplier",
			"outputs": [
				{
					"internalType": "uint256",
					"name": "",
					"type": "uint256"
				}
			],
			"stateMutability": "view",
			"type": "function"
		},
		{
			"inputs": [
				{
					"internalType": "uint256",
					"name": "taxAmount",
					"type": "uint256"
				},
				{
					"internalType": "uint256",
					"name": "accountBalance",
					"type": "uint256"
				}
			],
			"name": "chargeCustomTax",
			"outputs": [
				{
					"internalType": "uint256",
					"name": "",
					"type": "uint256"
				}
			],
			"stateMutability": "nonpayable",
			"type": "function"
		},
		{
			"inputs": [],
			"name": "cycleOneEnds",
			"outputs": [
				{
					"internalType": "uint256",
					"name": "",
					"type": "uint256"
				}
			],
			"stateMutability": "view",
			"type": "function"
		},
		{
			"inputs": [],
			"name": "cycleOneStartTaxPercent",
			"outputs": [
				{
					"internalType": "uint256",
					"name": "",
					"type": "uint256"
				}
			],
			"stateMutability": "view",
			"type": "function"
		},
		{
			"inputs": [],
			"name": "cycleThreeEndTaxPercent",
			"outputs": [
				{
					"internalType": "uint256",
					"name": "",
					"type": "uint256"
				}
			],
			"stateMutability": "view",
			"type": "function"
		},
		{
			"inputs": [],
			"name": "cycleThreeEnds",
			"outputs": [
				{
					"internalType": "uint256",
					"name": "",
					"type": "uint256"
				}
			],
			"stateMutability": "view",
			"type": "function"
		},
		{
			"inputs": [],
			"name": "cycleThreeStartTaxPercent",
			"outputs": [
				{
					"internalType": "uint256",
					"name": "",
					"type": "uint256"
				}
			],
			"stateMutability": "view",
			"type": "function"
		},
		{
			"inputs": [],
			"name": "cycleTwoEnds",
			"outputs": [
				{
					"internalType": "uint256",
					"name": "",
					"type": "uint256"
				}
			],
			"stateMutability": "view",
			"type": "function"
		},
		{
			"inputs": [],
			"name": "cycleTwoStartTaxPercent",
			"outputs": [
				{
					"internalType": "uint256",
					"name": "",
					"type": "uint256"
				}
			],
			"stateMutability": "view",
			"type": "function"
		},
		{
			"inputs": [],
			"name": "defiFactoryTokenAddress",
			"outputs": [
				{
					"internalType": "address",
					"name": "",
					"type": "address"
				}
			],
			"stateMutability": "view",
			"type": "function"
		},
		{
			"inputs": [],
			"name": "deftStorageAddress",
			"outputs": [
				{
					"internalType": "address",
					"name": "",
					"type": "address"
				}
			],
			"stateMutability": "view",
			"type": "function"
		},
		{
			"inputs": [],
			"name": "earlyInvestorTimestamp",
			"outputs": [
				{
					"internalType": "uint256",
					"name": "",
					"type": "uint256"
				}
			],
			"stateMutability": "view",
			"type": "function"
		},
		{
			"inputs": [
				{
					"internalType": "address",
					"name": "account",
					"type": "address"
				},
				{
					"internalType": "uint256",
					"name": "accountBalance",
					"type": "uint256"
				}
			],
			"name": "getBalance",
			"outputs": [
				{
					"internalType": "uint256",
					"name": "",
					"type": "uint256"
				}
			],
			"stateMutability": "view",
			"type": "function"
		},
		{
			"inputs": [
				{
					"internalType": "address",
					"name": "account",
					"type": "address"
				},
				{
					"internalType": "uint256",
					"name": "accountBalance",
					"type": "uint256"
				}
			],
			"name": "getRealBalance",
			"outputs": [
				{
					"internalType": "uint256",
					"name": "",
					"type": "uint256"
				}
			],
			"stateMutability": "view",
			"type": "function"
		},
		{
			"inputs": [],
			"name": "getRewardsBalance",
			"outputs": [
				{
					"internalType": "uint256",
					"name": "",
					"type": "uint256"
				}
			],
			"stateMutability": "view",
			"type": "function"
		},
		{
			"inputs": [
				{
					"internalType": "bytes32",
					"name": "role",
					"type": "bytes32"
				}
			],
			"name": "getRoleAdmin",
			"outputs": [
				{
					"internalType": "bytes32",
					"name": "",
					"type": "bytes32"
				}
			],
			"stateMutability": "view",
			"type": "function"
		},
		{
			"inputs": [
				{
					"internalType": "bytes32",
					"name": "role",
					"type": "bytes32"
				},
				{
					"internalType": "uint256",
					"name": "index",
					"type": "uint256"
				}
			],
			"name": "getRoleMember",
			"outputs": [
				{
					"internalType": "address",
					"name": "",
					"type": "address"
				}
			],
			"stateMutability": "view",
			"type": "function"
		},
		{
			"inputs": [
				{
					"internalType": "bytes32",
					"name": "role",
					"type": "bytes32"
				}
			],
			"name": "getRoleMemberCount",
			"outputs": [
				{
					"internalType": "uint256",
					"name": "",
					"type": "uint256"
				}
			],
			"stateMutability": "view",
			"type": "function"
		},
		{
			"inputs": [],
			"name": "getTotalSupply",
			"outputs": [
				{
					"internalType": "uint256",
					"name": "",
					"type": "uint256"
				}
			],
			"stateMutability": "view",
			"type": "function"
		},
		{
			"inputs": [
				{
					"internalType": "address",
					"name": "addr",
					"type": "address"
				}
			],
			"name": "getWalletCurrentCycle",
			"outputs": [
				{
					"components": [
						{
							"internalType": "uint256",
							"name": "currentCycleTax",
							"type": "uint256"
						},
						{
							"internalType": "uint256",
							"name": "howMuchTimeLeftTillEndOfCycleThree",
							"type": "uint256"
						}
					],
					"internalType": "struct NoBotsTechV2.CurrectCycle",
					"name": "currentCycle",
					"type": "tuple"
				}
			],
			"stateMutability": "view",
			"type": "function"
		},
		{
			"inputs": [
				{
					"internalType": "bytes32",
					"name": "role",
					"type": "bytes32"
				},
				{
					"internalType": "address",
					"name": "account",
					"type": "address"
				}
			],
			"name": "grantRole",
			"outputs": [],
			"stateMutability": "nonpayable",
			"type": "function"
		},
		{
			"inputs": [
				{
					"components": [
						{
							"internalType": "bytes32",
							"name": "role",
							"type": "bytes32"
						},
						{
							"internalType": "address",
							"name": "addr",
							"type": "address"
						}
					],
					"internalType": "struct NoBotsTechV2.RoleAccess[]",
					"name": "roles",
					"type": "tuple[]"
				}
			],
			"name": "grantRolesBulk",
			"outputs": [],
			"stateMutability": "nonpayable",
			"type": "function"
		},
		{
			"inputs": [
				{
					"internalType": "bytes32",
					"name": "role",
					"type": "bytes32"
				},
				{
					"internalType": "address",
					"name": "account",
					"type": "address"
				}
			],
			"name": "hasRole",
			"outputs": [
				{
					"internalType": "bool",
					"name": "",
					"type": "bool"
				}
			],
			"stateMutability": "view",
			"type": "function"
		},
		{
			"inputs": [],
			"name": "howManyFirstMinutesIncreasedTax",
			"outputs": [
				{
					"internalType": "uint256",
					"name": "",
					"type": "uint256"
				}
			],
			"stateMutability": "view",
			"type": "function"
		},
		{
			"inputs": [],
			"name": "lastCachedTimestamp",
			"outputs": [
				{
					"internalType": "uint256",
					"name": "",
					"type": "uint256"
				}
			],
			"stateMutability": "view",
			"type": "function"
		},
		{
			"inputs": [
				{
					"internalType": "bool",
					"name": "isMint",
					"type": "bool"
				},
				{
					"internalType": "address",
					"name": "account",
					"type": "address"
				},
				{
					"internalType": "uint256",
					"name": "desiredAmountToMintOrBurn",
					"type": "uint256"
				}
			],
			"name": "prepareHumanAddressMintOrBurnRewardsAmounts",
			"outputs": [
				{
					"internalType": "uint256",
					"name": "",
					"type": "uint256"
				}
			],
			"stateMutability": "nonpayable",
			"type": "function"
		},
		{
			"inputs": [
				{
					"components": [
						{
							"internalType": "address",
							"name": "sender",
							"type": "address"
						},
						{
							"internalType": "address",
							"name": "recipient",
							"type": "address"
						},
						{
							"internalType": "uint256",
							"name": "transferAmount",
							"type": "uint256"
						},
						{
							"internalType": "uint256",
							"name": "senderRealBalance",
							"type": "uint256"
						},
						{
							"internalType": "uint256",
							"name": "recipientRealBalance",
							"type": "uint256"
						}
					],
					"internalType": "struct TaxAmountsInput",
					"name": "taxAmountsInput",
					"type": "tuple"
				}
			],
			"name": "prepareTaxAmounts",
			"outputs": [
				{
					"components": [
						{
							"internalType": "uint256",
							"name": "senderRealBalance",
							"type": "uint256"
						},
						{
							"internalType": "uint256",
							"name": "recipientRealBalance",
							"type": "uint256"
						},
						{
							"internalType": "uint256",
							"name": "burnAndRewardAmount",
							"type": "uint256"
						},
						{
							"internalType": "uint256",
							"name": "recipientGetsAmount",
							"type": "uint256"
						}
					],
					"internalType": "struct TaxAmountsOutput",
					"name": "taxAmountsOutput",
					"type": "tuple"
				}
			],
			"stateMutability": "nonpayable",
			"type": "function"
		},
		{
			"inputs": [],
			"name": "publicForcedUpdateCacheMultiplier",
			"outputs": [],
			"stateMutability": "nonpayable",
			"type": "function"
		},
		{
			"inputs": [],
			"name": "realTotalSupply",
			"outputs": [
				{
					"internalType": "uint256",
					"name": "",
					"type": "uint256"
				}
			],
			"stateMutability": "view",
			"type": "function"
		},
		{
			"inputs": [
				{
					"internalType": "bytes32",
					"name": "role",
					"type": "bytes32"
				},
				{
					"internalType": "address",
					"name": "account",
					"type": "address"
				}
			],
			"name": "renounceRole",
			"outputs": [],
			"stateMutability": "nonpayable",
			"type": "function"
		},
		{
			"inputs": [
				{
					"internalType": "bytes32",
					"name": "role",
					"type": "bytes32"
				},
				{
					"internalType": "address",
					"name": "account",
					"type": "address"
				}
			],
			"name": "revokeRole",
			"outputs": [],
			"stateMutability": "nonpayable",
			"type": "function"
		},
		{
			"inputs": [],
			"name": "rewardsBalance",
			"outputs": [
				{
					"internalType": "uint256",
					"name": "",
					"type": "uint256"
				}
			],
			"stateMutability": "view",
			"type": "function"
		},
		{
			"inputs": [],
			"name": "secondsBetweenRecacheUpdates",
			"outputs": [
				{
					"internalType": "uint256",
					"name": "",
					"type": "uint256"
				}
			],
			"stateMutability": "view",
			"type": "function"
		},
		{
			"inputs": [
				{
					"internalType": "bytes4",
					"name": "interfaceId",
					"type": "bytes4"
				}
			],
			"name": "supportsInterface",
			"outputs": [
				{
					"internalType": "bool",
					"name": "",
					"type": "bool"
				}
			],
			"stateMutability": "view",
			"type": "function"
		},
		{
			"inputs": [],
			"name": "teamDevelopingSplit",
			"outputs": [
				{
					"internalType": "uint256",
					"name": "",
					"type": "uint256"
				}
			],
			"stateMutability": "view",
			"type": "function"
		},
		{
			"inputs": [],
			"name": "teamMarketingSplit",
			"outputs": [
				{
					"internalType": "uint256",
					"name": "",
					"type": "uint256"
				}
			],
			"stateMutability": "view",
			"type": "function"
		},
		{
			"inputs": [],
			"name": "teamPercentOfTax",
			"outputs": [
				{
					"internalType": "uint256",
					"name": "",
					"type": "uint256"
				}
			],
			"stateMutability": "view",
			"type": "function"
		},
		{
			"inputs": [],
			"name": "teamRewards",
			"outputs": [
				{
					"internalType": "uint256",
					"name": "",
					"type": "uint256"
				}
			],
			"stateMutability": "view",
			"type": "function"
		},
		{
			"inputs": [
				{
					"internalType": "address",
					"name": "_deftStorageAddress",
					"type": "address"
				}
			],
			"name": "updateBotStorageAddress",
			"outputs": [],
			"stateMutability": "nonpayable",
			"type": "function"
		},
		{
			"inputs": [
				{
					"internalType": "uint256",
					"name": "_botTaxPercent",
					"type": "uint256"
				},
				{
					"internalType": "uint256",
					"name": "_howManyFirstMinutesIncreasedTax",
					"type": "uint256"
				}
			],
			"name": "updateBotTaxSettings",
			"outputs": [],
			"stateMutability": "nonpayable",
			"type": "function"
		},
		{
			"inputs": [
				{
					"internalType": "uint256",
					"name": "_buyLimitPercent",
					"type": "uint256"
				}
			],
			"name": "updateBuyLimitPercent",
			"outputs": [],
			"stateMutability": "nonpayable",
			"type": "function"
		},
		{
			"inputs": [
				{
					"internalType": "uint256",
					"name": "_cycleOneStartTaxPercent",
					"type": "uint256"
				},
				{
					"internalType": "uint256",
					"name": "_cycleOneEnds",
					"type": "uint256"
				}
			],
			"name": "updateCycleOneSettings",
			"outputs": [],
			"stateMutability": "nonpayable",
			"type": "function"
		},
		{
			"inputs": [
				{
					"internalType": "uint256",
					"name": "_cycleTwoStartTaxPercent",
					"type": "uint256"
				},
				{
					"internalType": "uint256",
					"name": "_cycleTwoEnds",
					"type": "uint256"
				}
			],
			"name": "updateCycleTwoSettings",
			"outputs": [],
			"stateMutability": "nonpayable",
			"type": "function"
		},
		{
			"inputs": [
				{
					"internalType": "uint256",
					"name": "_cycleThreeStartTaxPercent",
					"type": "uint256"
				},
				{
					"internalType": "uint256",
					"name": "_cycleThreeEnds",
					"type": "uint256"
				},
				{
					"internalType": "uint256",
					"name": "_cycleThreeEndTaxPercent",
					"type": "uint256"
				}
			],
			"name": "updateCycleTwoSettings",
			"outputs": [],
			"stateMutability": "nonpayable",
			"type": "function"
		},
		{
			"inputs": [
				{
					"internalType": "address",
					"name": "_defiFactoryTokenAddress",
					"type": "address"
				}
			],
			"name": "updateDefiFactoryTokenAddress",
			"outputs": [],
			"stateMutability": "nonpayable",
			"type": "function"
		},
		{
			"inputs": [
				{
					"internalType": "uint256",
					"name": "_secondsBetweenRecacheUpdates",
					"type": "uint256"
				}
			],
			"name": "updateSecondsBetweenUpdates",
			"outputs": [],
			"stateMutability": "nonpayable",
			"type": "function"
		},
		{
			"inputs": [
				{
					"internalType": "uint256",
					"name": "_teamPercentOfTax",
					"type": "uint256"
				}
			],
			"name": "updateTeamPercentOfTax",
			"outputs": [],
			"stateMutability": "nonpayable",
			"type": "function"
		},
		{
			"inputs": [
				{
					"internalType": "uint256",
					"name": "_teamMarketingSplit",
					"type": "uint256"
				},
				{
					"internalType": "uint256",
					"name": "_teamDevelopingSplit",
					"type": "uint256"
				}
			],
			"name": "updateTeamSplit",
			"outputs": [],
			"stateMutability": "nonpayable",
			"type": "function"
		}
	]
}