{
	"data": {
		"bytecode": {
			"linkReferences": {},
			"object": "6080604052670de0b6b3a764000060025542600855620186a0600a55620f1b30600b55611388600c556103e8600d5560fa600e553480156200004057600080fd5b5062000057600062000051620000f9565b620000fd565b6200008b73dc15ca882f975c33d8f20ab3669d27195b8d87a673e019b37896f129354cf0b8f1cf33936b86913a3462000140565b620000bf73e019b37896f129354cf0b8f1cf33936b86913a3473dc15ca882f975c33d8f20ab3669d27195b8d87a662000140565b620000f3738323bf1837567d0c5af5bf72e9001cdb6220e7d773539faa851d86781009ec30df437d794bcd090c8f62000140565b62000588565b3390565b6200011482826200034f60201b62001d0e1760201c565b60008281526001602090815260409091206200013b91839062001d186200035f821b17901c565b505050565b620001757fc869e1d528fd91a06036810c7f025f082e044b8f0374c3d1d4b1fb5490dd90ae6200016f620000f9565b6200037f565b806200018c57506200018c60006200016f620000f9565b620001b45760405162461bcd60e51b8152600401620001ab90620004b8565b60405180910390fd5b6001600160a01b03811615801590620001d557506001600160a01b03821615155b620001f45760405162461bcd60e51b8152600401620001ab906200055d565b816001600160a01b0316816001600160a01b03161415620002295760405162461bcd60e51b8152600401620001ab90620004ef565b6200023482620003a8565b80156200024757506200024781620003a8565b620002665760405162461bcd60e51b8152600401620001ab9062000526565b6001600160a01b038281166000908152600560205260409020541615620002e0576001600160a01b03808316600090815260056020526040908190205490517f0d325e054436180ba510ae589cc09cbfeb86637cc284f42714bca1faad14426a92620002d79286929116906200049e565b60405180910390a15b6001600160a01b038281166000908152600560205260409081902080546001600160a01b03191692841692909217909155517f5f1ca2fcc108b751843a763e60d2201f593516109d7dbb1b700468f2d4190bb7906200034390849084906200049e565b60405180910390a15050565b6200035b8282620003ad565b5050565b600062000376836001600160a01b03841662000437565b90505b92915050565b6000918252602082815260408084206001600160a01b0393909316845291905290205460ff1690565b3b1590565b620003b982826200037f565b6200035b576000828152602081815260408083206001600160a01b03851684529091529020805460ff19166001179055620003f3620000f9565b6001600160a01b0316816001600160a01b0316837f2f8788117e7eff1d82e926ec794901d17c78024a50270940304540a733656f0d60405160405180910390a45050565b600062000445838362000486565b6200047d5750815460018181018455600084815260208082209093018490558454848252828601909352604090209190915562000379565b50600062000379565b60009081526001919091016020526040902054151590565b6001600160a01b0392831681529116602082015260400190565b60208082526018908201527f4e6f426f7473546563683a2021524f4c455f504152454e540000000000000000604082015260600190565b60208082526015908201527f4e6f426f7473546563683a202173656c665f7265660000000000000000000000604082015260600190565b60208082526015908201527f4e6f426f7473546563683a2021636f6e74726163740000000000000000000000604082015260600190565b6020808252601190820152702737a137ba39aa32b1b41d1010b13ab93760791b604082015260600190565b612c4a80620005986000396000f3fe608060405234801561001057600080fd5b50600436106102685760003560e01c8063815a61e011610151578063c4e41b22116100c3578063d547741f11610087578063d547741f146104e9578063d590b71e146104fc578063deaf0fa114610504578063e355681914610517578063ef357df11461052a578063fc0875721461053d57610268565b8063c4e41b22146104a0578063ca15c873146104a8578063ccfe6222146104bb578063d391014b146104ce578063d415a82d146104d657610268565b80639010d07c116101155780639010d07c1461044257806391d1485414610462578063975ea108146104755780639e01e31c1461047d578063b3830c8c14610485578063bc7096f11461048d57610268565b8063815a61e0146103df57806382e17b65146103ff578063858a135d1461041f57806387d1f05d14610427578063888651c21461042f57610268565b806336177818116101ea578063503a77ae116101ae578063503a77ae1461038e5780635603b9f9146103965780635cdba003146103a95780635d8ec25f146103bc5780636bc833f3146103c45780637b197233146103d757610268565b8063361778181461033a57806336568abe146103425780633830551a1461035557806342e58a63146103685780634abd991d1461037b57610268565b80631857b512116102315780631857b512146102e6578063248a9ca3146102ee5780632b04e840146103015780632f2ff15d14610314578063360987581461032757610268565b80622457831461026d57806301ffc9a71461029657806303ed957f146102b65780630ba2f5f9146102cb5780631336a98f146102de575b600080fd5b61028061027b3660046124b6565b610550565b60405161028d9190612827565b60405180910390f35b6102a96102a436600461267c565b61081c565b60405161028d919061281c565b6102c96102c4366004612570565b610849565b005b6102c96102d9366004612621565b6108fe565b6102806109a8565b6102806109ae565b6102806102fc366004612621565b6109b4565b61028061030f366004612507565b6109c9565b6102c9610322366004612639565b610a73565b61028061033536600461265b565b610a95565b610280610b58565b6102c9610350366004612639565b610b5e565b6102c9610363366004612530565b610b80565b6102806103763660046125e0565b610eae565b61028061038936600461246a565b610fe8565b61028061106c565b6102c96103a4366004612484565b611090565b6102806103b7366004612507565b611260565b6102806112ee565b6102c96103d23660046126b5565b611300565b610280611340565b6103f26103ed3660046126a4565b611346565b60405161028d9190612ac7565b61041261040d366004612530565b6118ef565b60405161028d91906127cf565b610280611a26565b610280611a78565b61028061043d366004612621565b611a7e565b61045561045036600461265b565b611ade565b60405161028d9190612764565b6102a9610470366004612639565b611af6565b610280611b1f565b610280611b25565b610280611b37565b61028061049b36600461246a565b611b3d565b610280611b4f565b6102806104b6366004612621565b611baf565b6102806104c936600461246a565b611bc6565b610280611bd8565b6102806104e436600461246a565b611bdd565b6102c96104f7366004612639565b611bef565b610280611bf9565b61045561051236600461246a565b611c1d565b6102c961052536600461246a565b611c38565b6102c9610538366004612621565b611c9b565b6102c961054b366004612507565b611cc9565b600061056c600080516020612bf5833981519152610470611d2d565b8061057f575061057f6000610470611d2d565b6105a45760405162461bcd60e51b815260040161059b906128c6565b60405180910390fd5b6001600160a01b03841660009081526004602052604081205490805b848110156107f057600360008787848181106105ec57634e487b7160e01b600052603260045260246000fd5b9050602002016020810190610601919061246a565b6001600160a01b03168152602081019190915260400160002054610624576107de565b6005600087878481811061064857634e487b7160e01b600052603260045260246000fd5b905060200201602081019061065d919061246a565b6001600160a01b03908116825260208201929092526040016000205416915081156107de57866001600160a01b0316826001600160a01b0316141561071e57620f4240600d54600360008989868181106106c757634e487b7160e01b600052603260045260246000fd5b90506020020160208101906106dc919061246a565b6001600160a01b03166001600160a01b03168152602001908152602001600020546107079190612b2a565b6107119190612b0a565b61071b9084612af2565b92505b6001600160a01b039182166000908152600560205260409020549091169081156107de57866001600160a01b0316826001600160a01b031614156107de57620f4240600e546003600089898681811061078757634e487b7160e01b600052603260045260246000fd5b905060200201602081019061079c919061246a565b6001600160a01b03166001600160a01b03168152602001908152602001600020546107c79190612b2a565b6107d19190612b0a565b6107db9084612af2565b92505b806107e881612ba3565b9150506105c0565b50670de0b6b3a7640000600254836108089190612b2a565b6108129190612b0a565b9695505050505050565b60006001600160e01b03198216635a05180f60e01b1480610841575061084182611d31565b90505b919050565b6108566000610470611d2d565b6108725760405162461bcd60e51b815260040161059b906128fd565b60005b818110156108f9576108e78383838181106108a057634e487b7160e01b600052603260045260246000fd5b905060400201600001358484848181106108ca57634e487b7160e01b600052603260045260246000fd5b90506040020160200160208101906108e2919061246a565b611d56565b806108f181612ba3565b915050610875565b505050565b610918600080516020612bf5833981519152610470611d2d565b8061092b575061092b6000610470611d2d565b6109475760405162461bcd60e51b815260040161059b906128c6565b60025460009061095f670de0b6b3a764000084612b2a565b6109699190612b0a565b9050806007600082825461097d9190612af2565b9250508190555080601060008282546109969190612af2565b909155506109a49050611d60565b5050565b60075481565b600b5481565b60009081526020819052604090206001015490565b60006109e5600080516020612bf5833981519152610470611d2d565b806109f857506109f86000610470611d2d565b610a145760405162461bcd60e51b815260040161059b906128c6565b610a3e7fbd68ab95cda3c90ac0bffc2b3a3a97a564372fc3ca4a8e4575d3ce58179b756384611af6565b610a6857670de0b6b3a764000060025483610a599190612b2a565b610a639190612b0a565b610a6a565b815b90505b92915050565b610a7d8282611d81565b60008281526001602052604090206108f99082611d18565b6000610ab1600080516020612bf5833981519152610470611d2d565b80610ac45750610ac46000610470611d2d565b610ae05760405162461bcd60e51b815260040161059b906128c6565b600254600090610af8670de0b6b3a764000086612b2a565b610b029190612b0a565b905080831015610b245760405162461bcd60e51b815260040161059b906129bf565b8060076000828254610b369190612af2565b90915550610b4690508184612b49565b9250610b50611d60565b509092915050565b60025481565b610b688282611da5565b60008281526001602052604090206108f99082611de7565b610b9a600080516020612bf5833981519152610470611d2d565b80610bad5750610bad6000610470611d2d565b610bc95760405162461bcd60e51b815260040161059b906128c6565b6000805b82811015610ea85760036000858584818110610bf957634e487b7160e01b600052603260045260246000fd5b9050602002016020810190610c0e919061246a565b6001600160a01b03168152602081019190915260400160002054610c3157610e96565b620f4240600d5460036000878786818110610c5c57634e487b7160e01b600052603260045260246000fd5b9050602002016020810190610c71919061246a565b6001600160a01b03166001600160a01b0316815260200190815260200160002054610c9c9190612b2a565b610ca69190612b0a565b6001600160a01b03831660009081526004602052604081208054909190610cce908490612af2565b90915550506001600160a01b038216600090815260046020526040908190205490517ff3882aa7d90c3183dbf5bdb21b267a5adaa8fa9899b3e85ed517b2e8584db62391610d1e918591906127b6565b60405180910390a16001600160a01b03918216600090815260056020526040902054909116908115610e4057620f4240600e5460036000878786818110610d7557634e487b7160e01b600052603260045260246000fd5b9050602002016020810190610d8a919061246a565b6001600160a01b03166001600160a01b0316815260200190815260200160002054610db59190612b2a565b610dbf9190612b0a565b6001600160a01b03831660009081526004602052604081208054909190610de7908490612af2565b90915550506001600160a01b038216600090815260046020526040908190205490517ff3882aa7d90c3183dbf5bdb21b267a5adaa8fa9899b3e85ed517b2e8584db62391610e37918591906127b6565b60405180910390a15b600060036000868685818110610e6657634e487b7160e01b600052603260045260246000fd5b9050602002016020810190610e7b919061246a565b6001600160a01b031681526020810191909152604001600020555b80610ea081612ba3565b915050610bcd565b50505050565b6000610eca600080516020612bf5833981519152610470611d2d565b80610edd5750610edd6000610470611d2d565b610ef95760405162461bcd60e51b815260040161059b906128c6565b610f11600080516020612bd583398151915284611af6565b80610f205750610f2083611dfc565b610f3c5760405162461bcd60e51b815260040161059b90612a21565b600254610f5183670de0b6b3a7640000612b2a565b610f5b9190612b0a565b90506000610f698284612b49565b90508415610fa75780600f6000828254610f839190612af2565b925050819055508160106000828254610f9c9190612af2565b90915550610fd89050565b80600f6000828254610fb99190612b49565b925050819055508160106000828254610fd29190612b49565b90915550505b610fe0611e01565b509392505050565b6000611004600080516020612bf5833981519152610470611d2d565b8061101757506110176000610470611d2d565b6110335760405162461bcd60e51b815260040161059b906128c6565b6002546001600160a01b038316600090815260046020526040902054670de0b6b3a76400009161106291612b2a565b6108419190612b0a565b7fee11097cbb9c334ec21a7934061732a460df1edb6b52f0b9464feea55dd71bff81565b6110aa600080516020612bf5833981519152610470611d2d565b806110bd57506110bd6000610470611d2d565b6110d95760405162461bcd60e51b815260040161059b906128c6565b6001600160a01b038116158015906110f957506001600160a01b03821615155b6111155760405162461bcd60e51b815260040161059b90612a9c565b816001600160a01b0316816001600160a01b031614156111475760405162461bcd60e51b815260040161059b90612961565b61115082611dfc565b8015611160575061116081611dfc565b61117c5760405162461bcd60e51b815260040161059b90612990565b6001600160a01b0382811660009081526005602052604090205416156111f3576001600160a01b03808316600090815260056020526040908190205490517f0d325e054436180ba510ae589cc09cbfeb86637cc284f42714bca1faad14426a926111ea928692911690612778565b60405180910390a15b6001600160a01b038281166000908152600560205260409081902080546001600160a01b03191692841692909217909155517f5f1ca2fcc108b751843a763e60d2201f593516109d7dbb1b700468f2d4190bb7906112549084908490612778565b60405180910390a15050565b600061127c600080516020612bf5833981519152610470611d2d565b8061128f575061128f6000610470611d2d565b6112ab5760405162461bcd60e51b815260040161059b906128c6565b6112d57fbd68ab95cda3c90ac0bffc2b3a3a97a564372fc3ca4a8e4575d3ce58179b756384611af6565b610a6857600254610a59670de0b6b3a764000084612b2a565b600080516020612bf583398151915281565b61130d6000610470611d2d565b6113295760405162461bcd60e51b815260040161059b906128fd565b600c94909455600b92909255600a55600d55600e55565b600d5481565b61134e6123e2565b611368600080516020612bf5833981519152610470611d2d565b8061137b575061137b6000610470611d2d565b6113975760405162461bcd60e51b815260040161059b906128c6565b6113a7604083016020840161246a565b6001600160a01b03166113bd602084018461246a565b6001600160a01b031614156113e45760405162461bcd60e51b815260040161059b906129f6565b600254600090611400670de0b6b3a76400006040860135612b2a565b61140a9190612b0a565b905080836060013510156114305760405162461bcd60e51b815260040161059b90612898565b600181116114505760405162461bcd60e51b815260040161059b90612934565b600080600581611463602088018861246a565b6001600160a01b03908116825260208201929092526040016000205416146114ef57620f4240600c54836114979190612b2a565b6114a19190612b0a565b905081600360006114b5602088018861246a565b6001600160a01b03166001600160a01b0316815260200190815260200160002060008282546114e49190612af2565b909155506117f59050565b6115207fee11097cbb9c334ec21a7934061732a460df1edb6b52f0b9464feea55dd71bff610470602087018761246a565b8061155a575061155a7fee11097cbb9c334ec21a7934061732a460df1edb6b52f0b9464feea55dd71bff610470604087016020880161246a565b15611661576000600681611574604088016020890161246a565b6001600160a01b03166001600160a01b0316815260200190815260200160002054600660008760000160208101906115ac919061246a565b6001600160a01b03166001600160a01b03168152602001908152602001600020541061160c57600660006115e6604088016020890161246a565b6001600160a01b03166001600160a01b031681526020019081526020016000205461163f565b6006600061161d602088018861246a565b6001600160a01b03166001600160a01b03168152602001908152602001600020545b9050620f424061164f8285612b2a565b6116599190612b0a565b9150506117f5565b611680600080516020612bd5833981519152610470602087018761246a565b806116d057504360116000611698602088018861246a565b6001600160a01b03168152602081019190915260400160002054148015906116d057506116d06116cb602086018661246a565b611dfc565b801561175457506116f9600080516020612bd5833981519152610470604087016020880161246a565b8061175457504360116000611714604088016020890161246a565b6001600160a01b03166001600160a01b03168152602001908152602001600020600101541415801561175457506117546116cb604086016020870161246a565b1561177c57620f4240600a548361176b9190612b2a565b6117759190612b0a565b90506117f5565b620f4240600b548361178e9190612b2a565b6117989190612b0a565b90507ffd80d5d0984f4195e45b249de62e23c264765087eb4575620dc560346364f28f6117c8602086018661246a565b6117d8604087016020880161246a565b86604001356040516117ec93929190612792565b60405180910390a15b60006118018284612b49565b9050670de0b6b3a76400006002548361181a9190612b2a565b6118249190612b0a565b60408086018290526118399190870135612b49565b606085015243601160006118536040890160208a0161246a565b6001600160a01b0316815260208082019290925260400160009081209290925543916011916118849089018961246a565b6001600160a01b031681526020810191909152604001600020600101556118af836060870135612b49565b84526118bf816080870135612af2565b6020850152600780548391906000906118d9908490612af2565b909155506118e79050611d60565b505050919050565b606061190b600080516020612bf5833981519152610470611d2d565b8061191e575061191e6000610470611d2d565b61193a5760405162461bcd60e51b815260040161059b906128c6565b600083838080602002602001604051908101604052809392919081815260200183836020028082843760009201829052509394505050505b83811015610fe0576003600086868481811061199e57634e487b7160e01b600052603260045260246000fd5b90506020020160208101906119b3919061246a565b6001600160a01b03168152602081019190915260400160002054611a145760008282815181106119f357634e487b7160e01b600052603260045260246000fd5b60200260200101906001600160a01b031690816001600160a01b0316815250505b80611a1e81612ba3565b915050611972565b6000611a42600080516020612bf5833981519152610470611d2d565b80611a555750611a556000610470611d2d565b611a715760405162461bcd60e51b815260040161059b906128c6565b50600f5490565b600a5481565b6000611a9a600080516020612bf5833981519152610470611d2d565b80611aad5750611aad6000610470611d2d565b611ac95760405162461bcd60e51b815260040161059b906128c6565b600254611062670de0b6b3a764000084612b2a565b6000828152600160205260408120610a6a9083611eba565b6000918252602082815260408084206001600160a01b0393909316845291905290205460ff1690565b600c5481565b600080516020612bd583398151915281565b600e5481565b60046020526000908152604090205481565b6000611b6b600080516020612bf5833981519152610470611d2d565b80611b7e5750611b7e6000610470611d2d565b611b9a5760405162461bcd60e51b815260040161059b906128c6565b600f54601054611baa9190612af2565b905090565b600081815260016020526040812061084190611ec6565b60036020526000908152604090205481565b600081565b60066020526000908152604090205481565b610b688282611ed1565b7fbd68ab95cda3c90ac0bffc2b3a3a97a564372fc3ca4a8e4575d3ce58179b756381565b6005602052600090815260409020546001600160a01b031681565b611c52600080516020612bf5833981519152610470611d2d565b80611c655750611c656000610470611d2d565b611c815760405162461bcd60e51b815260040161059b906128c6565b6001600160a01b0316600090815260046020526040812055565b611ca86000610470611d2d565b611cc45760405162461bcd60e51b815260040161059b906128fd565b600955565b611cd66000610470611d2d565b611cf25760405162461bcd60e51b815260040161059b906128fd565b6001600160a01b03909116600090815260066020526040902055565b6109a48282611ef0565b6000610a6a836001600160a01b038416611f75565b3390565b60006001600160e01b03198216637965db0b60e01b1480610841575061084182611fbf565b610a7d8282611d0e565b600954600854611d709190612af2565b421115611d7f57611d7f611e01565b565b611d8a826109b4565b611d9b81611d96611d2d565b611fd8565b6108f98383611ef0565b611dad611d2d565b6001600160a01b0316816001600160a01b031614611ddd5760405162461bcd60e51b815260040161059b90612a4d565b6109a4828261203c565b6000610a6a836001600160a01b0384166120bf565b3b1590565b4260085560075460108054600090611e1a908490612b49565b9091555050600754611e2e90600290612b0a565b600f6000828254611e3f9190612af2565b90915550506000600755601054600f54611e6190670de0b6b3a7640000612b2a565b611e6b9190612b0a565b611e7d90670de0b6b3a7640000612af2565b60028190556040517f4dbe4840d7465bd162f67814cea0b519567a2e0e578bcde61e7f4ced361e5a3d91611eb091612827565b60405180910390a1565b6000610a6a83836121dc565b600061084182612214565b611eda826109b4565b611ee681611d96611d2d565b6108f9838361203c565b611efa8282611af6565b6109a4576000828152602081815260408083206001600160a01b03851684529091529020805460ff19166001179055611f31611d2d565b6001600160a01b0316816001600160a01b0316837f2f8788117e7eff1d82e926ec794901d17c78024a50270940304540a733656f0d60405160405180910390a45050565b6000611f818383612218565b611fb757508154600181810184556000848152602080822090930184905584548482528286019093526040902091909155610a6d565b506000610a6d565b6001600160e01b031981166301ffc9a760e01b14919050565b611fe28282611af6565b6109a457611ffa816001600160a01b03166014612230565b612005836020612230565b6040516020016120169291906126ef565b60408051601f198184030181529082905262461bcd60e51b825261059b91600401612830565b6120468282611af6565b156109a4576000828152602081815260408083206001600160a01b03851684529091529020805460ff1916905561207b611d2d565b6001600160a01b0316816001600160a01b0316837ff6391f5c32d9c69d2a47ea670b442974b53935d1edc7fd64eb21e047a839171b60405160405180910390a45050565b600081815260018301602052604081205480156121d25760006120e3600183612b49565b85549091506000906120f790600190612b49565b905081811461217857600086600001828154811061212557634e487b7160e01b600052603260045260246000fd5b906000526020600020015490508087600001848154811061215657634e487b7160e01b600052603260045260246000fd5b6000918252602080832090910192909255918252600188019052604090208390555b855486908061219757634e487b7160e01b600052603160045260246000fd5b600190038181906000526020600020016000905590558560010160008681526020019081526020016000206000905560019350505050610a6d565b6000915050610a6d565b600082600001828154811061220157634e487b7160e01b600052603260045260246000fd5b9060005260206000200154905092915050565b5490565b60009081526001919091016020526040902054151590565b6060600061223f836002612b2a565b61224a906002612af2565b67ffffffffffffffff81111561227057634e487b7160e01b600052604160045260246000fd5b6040519080825280601f01601f19166020018201604052801561229a576020820181803683370190505b509050600360fc1b816000815181106122c357634e487b7160e01b600052603260045260246000fd5b60200101906001600160f81b031916908160001a905350600f60fb1b8160018151811061230057634e487b7160e01b600052603260045260246000fd5b60200101906001600160f81b031916908160001a9053506000612324846002612b2a565b61232f906001612af2565b90505b60018111156123c3576f181899199a1a9b1b9c1cb0b131b232b360811b85600f166010811061237157634e487b7160e01b600052603260045260246000fd5b1a60f81b82828151811061239557634e487b7160e01b600052603260045260246000fd5b60200101906001600160f81b031916908160001a90535060049490941c936123bc81612b8c565b9050612332565b508315610a6a5760405162461bcd60e51b815260040161059b90612863565b6040518060800160405280600081526020016000815260200160008152602001600081525090565b80356001600160a01b038116811461084457600080fd5b60008083601f840112612432578182fd5b50813567ffffffffffffffff811115612449578182fd5b602083019150836020808302850101111561246357600080fd5b9250929050565b60006020828403121561247b578081fd5b610a6a8261240a565b60008060408385031215612496578081fd5b61249f8361240a565b91506124ad6020840161240a565b90509250929050565b6000806000604084860312156124ca578081fd5b6124d38461240a565b9250602084013567ffffffffffffffff8111156124ee578182fd5b6124fa86828701612421565b9497909650939450505050565b60008060408385031215612519578182fd5b6125228361240a565b946020939093013593505050565b60008060208385031215612542578182fd5b823567ffffffffffffffff811115612558578283fd5b61256485828601612421565b90969095509350505050565b60008060208385031215612582578182fd5b823567ffffffffffffffff80821115612599578384fd5b818501915085601f8301126125ac578384fd5b8135818111156125ba578485fd5b8660206040830285010111156125ce578485fd5b60209290920196919550909350505050565b6000806000606084860312156125f4578283fd5b83358015158114612603578384fd5b92506126116020850161240a565b9150604084013590509250925092565b600060208284031215612632578081fd5b5035919050565b6000806040838503121561264b578182fd5b823591506124ad6020840161240a565b6000806040838503121561266d578182fd5b50508035926020909101359150565b60006020828403121561268d578081fd5b81356001600160e01b031981168114610a6a578182fd5b600060a08284031215610a68578081fd5b600080600080600060a086880312156126cc578081fd5b505083359560208501359550604085013594606081013594506080013592509050565b60007f416363657373436f6e74726f6c3a206163636f756e742000000000000000000082528351612727816017850160208801612b60565b7001034b99036b4b9b9b4b733903937b6329607d1b6017918401918201528351612758816028840160208801612b60565b01602801949350505050565b6001600160a01b0391909116815260200190565b6001600160a01b0392831681529116602082015260400190565b6001600160a01b039384168152919092166020820152604081019190915260600190565b6001600160a01b03929092168252602082015260400190565b6020808252825182820181905260009190848201906040850190845b818110156128105783516001600160a01b0316835292840192918401916001016127eb565b50909695505050505050565b901515815260200190565b90815260200190565b600060208252825180602084015261284f816040850160208701612b60565b601f01601f19169190910160400192915050565b6020808252818101527f537472696e67733a20686578206c656e67746820696e73756666696369656e74604082015260600190565b6020808252601490820152734e6f426f7473546563683a202162616c616e636560601b604082015260600190565b60208082526018908201527f4e6f426f7473546563683a2021524f4c455f504152454e540000000000000000604082015260600190565b60208082526017908201527f4e6f426f7473546563683a2021524f4c455f41444d494e000000000000000000604082015260600190565b602080825260139082015272139bd09bdd1cd51958da0e8808585b5bdd5b9d606a1b604082015260600190565b6020808252601590820152742737a137ba39aa32b1b41d1010b9b2b6332fb932b360591b604082015260600190565b602080825260159082015274139bd09bdd1cd51958da0e880858dbdb9d1c9858dd605a1b604082015260600190565b6020808252601b908201527f4e6f426f7473546563683a20216163636f756e7442616c616e63650000000000604082015260600190565b6020808252601190820152702737a137ba39aa32b1b41d1010b9b2b63360791b604082015260600190565b6020808252601290820152712737a137ba39aa32b1b41d1010b43ab6b0b760711b604082015260600190565b6020808252602f908201527f416363657373436f6e74726f6c3a2063616e206f6e6c792072656e6f756e636560408201526e103937b632b9903337b91039b2b63360891b606082015260800190565b6020808252601190820152702737a137ba39aa32b1b41d1010b13ab93760791b604082015260600190565b8151815260208083015190820152604080830151908201526060918201519181019190915260800190565b60008219821115612b0557612b05612bbe565b500190565b600082612b2557634e487b7160e01b81526012600452602481fd5b500490565b6000816000190483118215151615612b4457612b44612bbe565b500290565b600082821015612b5b57612b5b612bbe565b500390565b60005b83811015612b7b578181015183820152602001612b63565b83811115610ea85750506000910152565b600081612b9b57612b9b612bbe565b506000190190565b6000600019821415612bb757612bb7612bbe565b5060010190565b634e487b7160e01b600052601160045260246000fdfed27488087fca693adcf8b477ec0ca6cf5134d7f124fdc511eb258522c40fd72bc869e1d528fd91a06036810c7f025f082e044b8f0374c3d1d4b1fb5490dd90aea264697066735822122021d5c4e2e2bd23621267258f1b6e14a076087f43e5eec3b4a46391bc1472559a64736f6c63430008010033",
			"opcodes": "PUSH1 0x80 PUSH1 0x40 MSTORE PUSH8 0xDE0B6B3A7640000 PUSH1 0x2 SSTORE TIMESTAMP PUSH1 0x8 SSTORE PUSH3 0x186A0 PUSH1 0xA SSTORE PUSH3 0xF1B30 PUSH1 0xB SSTORE PUSH2 0x1388 PUSH1 0xC SSTORE PUSH2 0x3E8 PUSH1 0xD SSTORE PUSH1 0xFA PUSH1 0xE SSTORE CALLVALUE DUP1 ISZERO PUSH3 0x40 JUMPI PUSH1 0x0 DUP1 REVERT JUMPDEST POP PUSH3 0x57 PUSH1 0x0 PUSH3 0x51 PUSH3 0xF9 JUMP JUMPDEST PUSH3 0xFD JUMP JUMPDEST PUSH3 0x8B PUSH20 0xDC15CA882F975C33D8F20AB3669D27195B8D87A6 PUSH20 0xE019B37896F129354CF0B8F1CF33936B86913A34 PUSH3 0x140 JUMP JUMPDEST PUSH3 0xBF PUSH20 0xE019B37896F129354CF0B8F1CF33936B86913A34 PUSH20 0xDC15CA882F975C33D8F20AB3669D27195B8D87A6 PUSH3 0x140 JUMP JUMPDEST PUSH3 0xF3 PUSH20 0x8323BF1837567D0C5AF5BF72E9001CDB6220E7D7 PUSH20 0x539FAA851D86781009EC30DF437D794BCD090C8F PUSH3 0x140 JUMP JUMPDEST PUSH3 0x588 JUMP JUMPDEST CALLER SWAP1 JUMP JUMPDEST PUSH3 0x114 DUP3 DUP3 PUSH3 0x34F PUSH1 0x20 SHL PUSH3 0x1D0E OR PUSH1 0x20 SHR JUMP JUMPDEST PUSH1 0x0 DUP3 DUP2 MSTORE PUSH1 0x1 PUSH1 0x20 SWAP1 DUP2 MSTORE PUSH1 0x40 SWAP1 SWAP2 KECCAK256 PUSH3 0x13B SWAP2 DUP4 SWAP1 PUSH3 0x1D18 PUSH3 0x35F DUP3 SHL OR SWAP1 SHR JUMP JUMPDEST POP POP POP JUMP JUMPDEST PUSH3 0x175 PUSH32 0xC869E1D528FD91A06036810C7F025F082E044B8F0374C3D1D4B1FB5490DD90AE PUSH3 0x16F PUSH3 0xF9 JUMP JUMPDEST PUSH3 0x37F JUMP JUMPDEST DUP1 PUSH3 0x18C JUMPI POP PUSH3 0x18C PUSH1 0x0 PUSH3 0x16F PUSH3 0xF9 JUMP JUMPDEST PUSH3 0x1B4 JUMPI PUSH1 0x40 MLOAD PUSH3 0x461BCD PUSH1 0xE5 SHL DUP2 MSTORE PUSH1 0x4 ADD PUSH3 0x1AB SWAP1 PUSH3 0x4B8 JUMP JUMPDEST PUSH1 0x40 MLOAD DUP1 SWAP2 SUB SWAP1 REVERT JUMPDEST PUSH1 0x1 PUSH1 0x1 PUSH1 0xA0 SHL SUB DUP2 AND ISZERO DUP1 ISZERO SWAP1 PUSH3 0x1D5 JUMPI POP PUSH1 0x1 PUSH1 0x1 PUSH1 0xA0 SHL SUB DUP3 AND ISZERO ISZERO JUMPDEST PUSH3 0x1F4 JUMPI PUSH1 0x40 MLOAD PUSH3 0x461BCD PUSH1 0xE5 SHL DUP2 MSTORE PUSH1 0x4 ADD PUSH3 0x1AB SWAP1 PUSH3 0x55D JUMP JUMPDEST DUP2 PUSH1 0x1 PUSH1 0x1 PUSH1 0xA0 SHL SUB AND DUP2 PUSH1 0x1 PUSH1 0x1 PUSH1 0xA0 SHL SUB AND EQ ISZERO PUSH3 0x229 JUMPI PUSH1 0x40 MLOAD PUSH3 0x461BCD PUSH1 0xE5 SHL DUP2 MSTORE PUSH1 0x4 ADD PUSH3 0x1AB SWAP1 PUSH3 0x4EF JUMP JUMPDEST PUSH3 0x234 DUP3 PUSH3 0x3A8 JUMP JUMPDEST DUP1 ISZERO PUSH3 0x247 JUMPI POP PUSH3 0x247 DUP2 PUSH3 0x3A8 JUMP JUMPDEST PUSH3 0x266 JUMPI PUSH1 0x40 MLOAD PUSH3 0x461BCD PUSH1 0xE5 SHL DUP2 MSTORE PUSH1 0x4 ADD PUSH3 0x1AB SWAP1 PUSH3 0x526 JUMP JUMPDEST PUSH1 0x1 PUSH1 0x1 PUSH1 0xA0 SHL SUB DUP3 DUP2 AND PUSH1 0x0 SWAP1 DUP2 MSTORE PUSH1 0x5 PUSH1 0x20 MSTORE PUSH1 0x40 SWAP1 KECCAK256 SLOAD AND ISZERO PUSH3 0x2E0 JUMPI PUSH1 0x1 PUSH1 0x1 PUSH1 0xA0 SHL SUB DUP1 DUP4 AND PUSH1 0x0 SWAP1 DUP2 MSTORE PUSH1 0x5 PUSH1 0x20 MSTORE PUSH1 0x40 SWAP1 DUP2 SWAP1 KECCAK256 SLOAD SWAP1 MLOAD PUSH32 0xD325E054436180BA510AE589CC09CBFEB86637CC284F42714BCA1FAAD14426A SWAP3 PUSH3 0x2D7 SWAP3 DUP7 SWAP3 SWAP2 AND SWAP1 PUSH3 0x49E JUMP JUMPDEST PUSH1 0x40 MLOAD DUP1 SWAP2 SUB SWAP1 LOG1 JUMPDEST PUSH1 0x1 PUSH1 0x1 PUSH1 0xA0 SHL SUB DUP3 DUP2 AND PUSH1 0x0 SWAP1 DUP2 MSTORE PUSH1 0x5 PUSH1 0x20 MSTORE PUSH1 0x40 SWAP1 DUP2 SWAP1 KECCAK256 DUP1 SLOAD PUSH1 0x1 PUSH1 0x1 PUSH1 0xA0 SHL SUB NOT AND SWAP3 DUP5 AND SWAP3 SWAP1 SWAP3 OR SWAP1 SWAP2 SSTORE MLOAD PUSH32 0x5F1CA2FCC108B751843A763E60D2201F593516109D7DBB1B700468F2D4190BB7 SWAP1 PUSH3 0x343 SWAP1 DUP5 SWAP1 DUP5 SWAP1 PUSH3 0x49E JUMP JUMPDEST PUSH1 0x40 MLOAD DUP1 SWAP2 SUB SWAP1 LOG1 POP POP JUMP JUMPDEST PUSH3 0x35B DUP3 DUP3 PUSH3 0x3AD JUMP JUMPDEST POP POP JUMP JUMPDEST PUSH1 0x0 PUSH3 0x376 DUP4 PUSH1 0x1 PUSH1 0x1 PUSH1 0xA0 SHL SUB DUP5 AND PUSH3 0x437 JUMP JUMPDEST SWAP1 POP JUMPDEST SWAP3 SWAP2 POP POP JUMP JUMPDEST PUSH1 0x0 SWAP2 DUP3 MSTORE PUSH1 0x20 DUP3 DUP2 MSTORE PUSH1 0x40 DUP1 DUP5 KECCAK256 PUSH1 0x1 PUSH1 0x1 PUSH1 0xA0 SHL SUB SWAP4 SWAP1 SWAP4 AND DUP5 MSTORE SWAP2 SWAP1 MSTORE SWAP1 KECCAK256 SLOAD PUSH1 0xFF AND SWAP1 JUMP JUMPDEST EXTCODESIZE ISZERO SWAP1 JUMP JUMPDEST PUSH3 0x3B9 DUP3 DUP3 PUSH3 0x37F JUMP JUMPDEST PUSH3 0x35B JUMPI PUSH1 0x0 DUP3 DUP2 MSTORE PUSH1 0x20 DUP2 DUP2 MSTORE PUSH1 0x40 DUP1 DUP4 KECCAK256 PUSH1 0x1 PUSH1 0x1 PUSH1 0xA0 SHL SUB DUP6 AND DUP5 MSTORE SWAP1 SWAP2 MSTORE SWAP1 KECCAK256 DUP1 SLOAD PUSH1 0xFF NOT AND PUSH1 0x1 OR SWAP1 SSTORE PUSH3 0x3F3 PUSH3 0xF9 JUMP JUMPDEST PUSH1 0x1 PUSH1 0x1 PUSH1 0xA0 SHL SUB AND DUP2 PUSH1 0x1 PUSH1 0x1 PUSH1 0xA0 SHL SUB AND DUP4 PUSH32 0x2F8788117E7EFF1D82E926EC794901D17C78024A50270940304540A733656F0D PUSH1 0x40 MLOAD PUSH1 0x40 MLOAD DUP1 SWAP2 SUB SWAP1 LOG4 POP POP JUMP JUMPDEST PUSH1 0x0 PUSH3 0x445 DUP4 DUP4 PUSH3 0x486 JUMP JUMPDEST PUSH3 0x47D JUMPI POP DUP2 SLOAD PUSH1 0x1 DUP2 DUP2 ADD DUP5 SSTORE PUSH1 0x0 DUP5 DUP2 MSTORE PUSH1 0x20 DUP1 DUP3 KECCAK256 SWAP1 SWAP4 ADD DUP5 SWAP1 SSTORE DUP5 SLOAD DUP5 DUP3 MSTORE DUP3 DUP7 ADD SWAP1 SWAP4 MSTORE PUSH1 0x40 SWAP1 KECCAK256 SWAP2 SWAP1 SWAP2 SSTORE PUSH3 0x379 JUMP JUMPDEST POP PUSH1 0x0 PUSH3 0x379 JUMP JUMPDEST PUSH1 0x0 SWAP1 DUP2 MSTORE PUSH1 0x1 SWAP2 SWAP1 SWAP2 ADD PUSH1 0x20 MSTORE PUSH1 0x40 SWAP1 KECCAK256 SLOAD ISZERO ISZERO SWAP1 JUMP JUMPDEST PUSH1 0x1 PUSH1 0x1 PUSH1 0xA0 SHL SUB SWAP3 DUP4 AND DUP2 MSTORE SWAP2 AND PUSH1 0x20 DUP3 ADD MSTORE PUSH1 0x40 ADD SWAP1 JUMP JUMPDEST PUSH1 0x20 DUP1 DUP3 MSTORE PUSH1 0x18 SWAP1 DUP3 ADD MSTORE PUSH32 0x4E6F426F7473546563683A2021524F4C455F504152454E540000000000000000 PUSH1 0x40 DUP3 ADD MSTORE PUSH1 0x60 ADD SWAP1 JUMP JUMPDEST PUSH1 0x20 DUP1 DUP3 MSTORE PUSH1 0x15 SWAP1 DUP3 ADD MSTORE PUSH32 0x4E6F426F7473546563683A202173656C665F7265660000000000000000000000 PUSH1 0x40 DUP3 ADD MSTORE PUSH1 0x60 ADD SWAP1 JUMP JUMPDEST PUSH1 0x20 DUP1 DUP3 MSTORE PUSH1 0x15 SWAP1 DUP3 ADD MSTORE PUSH32 0x4E6F426F7473546563683A2021636F6E74726163740000000000000000000000 PUSH1 0x40 DUP3 ADD MSTORE PUSH1 0x60 ADD SWAP1 JUMP JUMPDEST PUSH1 0x20 DUP1 DUP3 MSTORE PUSH1 0x11 SWAP1 DUP3 ADD MSTORE PUSH17 0x2737A137BA39AA32B1B41D1010B13AB937 PUSH1 0x79 SHL PUSH1 0x40 DUP3 ADD MSTORE PUSH1 0x60 ADD SWAP1 JUMP JUMPDEST PUSH2 0x2C4A DUP1 PUSH3 0x598 PUSH1 0x0 CODECOPY PUSH1 0x0 RETURN INVALID PUSH1 0x80 PUSH1 0x40 MSTORE CALLVALUE DUP1 ISZERO PUSH2 0x10 JUMPI PUSH1 0x0 DUP1 REVERT JUMPDEST POP PUSH1 0x4 CALLDATASIZE LT PUSH2 0x268 JUMPI PUSH1 0x0 CALLDATALOAD PUSH1 0xE0 SHR DUP1 PUSH4 0x815A61E0 GT PUSH2 0x151 JUMPI DUP1 PUSH4 0xC4E41B22 GT PUSH2 0xC3 JUMPI DUP1 PUSH4 0xD547741F GT PUSH2 0x87 JUMPI DUP1 PUSH4 0xD547741F EQ PUSH2 0x4E9 JUMPI DUP1 PUSH4 0xD590B71E EQ PUSH2 0x4FC JUMPI DUP1 PUSH4 0xDEAF0FA1 EQ PUSH2 0x504 JUMPI DUP1 PUSH4 0xE3556819 EQ PUSH2 0x517 JUMPI DUP1 PUSH4 0xEF357DF1 EQ PUSH2 0x52A JUMPI DUP1 PUSH4 0xFC087572 EQ PUSH2 0x53D JUMPI PUSH2 0x268 JUMP JUMPDEST DUP1 PUSH4 0xC4E41B22 EQ PUSH2 0x4A0 JUMPI DUP1 PUSH4 0xCA15C873 EQ PUSH2 0x4A8 JUMPI DUP1 PUSH4 0xCCFE6222 EQ PUSH2 0x4BB JUMPI DUP1 PUSH4 0xD391014B EQ PUSH2 0x4CE JUMPI DUP1 PUSH4 0xD415A82D EQ PUSH2 0x4D6 JUMPI PUSH2 0x268 JUMP JUMPDEST DUP1 PUSH4 0x9010D07C GT PUSH2 0x115 JUMPI DUP1 PUSH4 0x9010D07C EQ PUSH2 0x442 JUMPI DUP1 PUSH4 0x91D14854 EQ PUSH2 0x462 JUMPI DUP1 PUSH4 0x975EA108 EQ PUSH2 0x475 JUMPI DUP1 PUSH4 0x9E01E31C EQ PUSH2 0x47D JUMPI DUP1 PUSH4 0xB3830C8C EQ PUSH2 0x485 JUMPI DUP1 PUSH4 0xBC7096F1 EQ PUSH2 0x48D JUMPI PUSH2 0x268 JUMP JUMPDEST DUP1 PUSH4 0x815A61E0 EQ PUSH2 0x3DF JUMPI DUP1 PUSH4 0x82E17B65 EQ PUSH2 0x3FF JUMPI DUP1 PUSH4 0x858A135D EQ PUSH2 0x41F JUMPI DUP1 PUSH4 0x87D1F05D EQ PUSH2 0x427 JUMPI DUP1 PUSH4 0x888651C2 EQ PUSH2 0x42F JUMPI PUSH2 0x268 JUMP JUMPDEST DUP1 PUSH4 0x36177818 GT PUSH2 0x1EA JUMPI DUP1 PUSH4 0x503A77AE GT PUSH2 0x1AE JUMPI DUP1 PUSH4 0x503A77AE EQ PUSH2 0x38E JUMPI DUP1 PUSH4 0x5603B9F9 EQ PUSH2 0x396 JUMPI DUP1 PUSH4 0x5CDBA003 EQ PUSH2 0x3A9 JUMPI DUP1 PUSH4 0x5D8EC25F EQ PUSH2 0x3BC JUMPI DUP1 PUSH4 0x6BC833F3 EQ PUSH2 0x3C4 JUMPI DUP1 PUSH4 0x7B197233 EQ PUSH2 0x3D7 JUMPI PUSH2 0x268 JUMP JUMPDEST DUP1 PUSH4 0x36177818 EQ PUSH2 0x33A JUMPI DUP1 PUSH4 0x36568ABE EQ PUSH2 0x342 JUMPI DUP1 PUSH4 0x3830551A EQ PUSH2 0x355 JUMPI DUP1 PUSH4 0x42E58A63 EQ PUSH2 0x368 JUMPI DUP1 PUSH4 0x4ABD991D EQ PUSH2 0x37B JUMPI PUSH2 0x268 JUMP JUMPDEST DUP1 PUSH4 0x1857B512 GT PUSH2 0x231 JUMPI DUP1 PUSH4 0x1857B512 EQ PUSH2 0x2E6 JUMPI DUP1 PUSH4 0x248A9CA3 EQ PUSH2 0x2EE JUMPI DUP1 PUSH4 0x2B04E840 EQ PUSH2 0x301 JUMPI DUP1 PUSH4 0x2F2FF15D EQ PUSH2 0x314 JUMPI DUP1 PUSH4 0x36098758 EQ PUSH2 0x327 JUMPI PUSH2 0x268 JUMP JUMPDEST DUP1 PUSH3 0x245783 EQ PUSH2 0x26D JUMPI DUP1 PUSH4 0x1FFC9A7 EQ PUSH2 0x296 JUMPI DUP1 PUSH4 0x3ED957F EQ PUSH2 0x2B6 JUMPI DUP1 PUSH4 0xBA2F5F9 EQ PUSH2 0x2CB JUMPI DUP1 PUSH4 0x1336A98F EQ PUSH2 0x2DE JUMPI JUMPDEST PUSH1 0x0 DUP1 REVERT JUMPDEST PUSH2 0x280 PUSH2 0x27B CALLDATASIZE PUSH1 0x4 PUSH2 0x24B6 JUMP JUMPDEST PUSH2 0x550 JUMP JUMPDEST PUSH1 0x40 MLOAD PUSH2 0x28D SWAP2 SWAP1 PUSH2 0x2827 JUMP JUMPDEST PUSH1 0x40 MLOAD DUP1 SWAP2 SUB SWAP1 RETURN JUMPDEST PUSH2 0x2A9 PUSH2 0x2A4 CALLDATASIZE PUSH1 0x4 PUSH2 0x267C JUMP JUMPDEST PUSH2 0x81C JUMP JUMPDEST PUSH1 0x40 MLOAD PUSH2 0x28D SWAP2 SWAP1 PUSH2 0x281C JUMP JUMPDEST PUSH2 0x2C9 PUSH2 0x2C4 CALLDATASIZE PUSH1 0x4 PUSH2 0x2570 JUMP JUMPDEST PUSH2 0x849 JUMP JUMPDEST STOP JUMPDEST PUSH2 0x2C9 PUSH2 0x2D9 CALLDATASIZE PUSH1 0x4 PUSH2 0x2621 JUMP JUMPDEST PUSH2 0x8FE JUMP JUMPDEST PUSH2 0x280 PUSH2 0x9A8 JUMP JUMPDEST PUSH2 0x280 PUSH2 0x9AE JUMP JUMPDEST PUSH2 0x280 PUSH2 0x2FC CALLDATASIZE PUSH1 0x4 PUSH2 0x2621 JUMP JUMPDEST PUSH2 0x9B4 JUMP JUMPDEST PUSH2 0x280 PUSH2 0x30F CALLDATASIZE PUSH1 0x4 PUSH2 0x2507 JUMP JUMPDEST PUSH2 0x9C9 JUMP JUMPDEST PUSH2 0x2C9 PUSH2 0x322 CALLDATASIZE PUSH1 0x4 PUSH2 0x2639 JUMP JUMPDEST PUSH2 0xA73 JUMP JUMPDEST PUSH2 0x280 PUSH2 0x335 CALLDATASIZE PUSH1 0x4 PUSH2 0x265B JUMP JUMPDEST PUSH2 0xA95 JUMP JUMPDEST PUSH2 0x280 PUSH2 0xB58 JUMP JUMPDEST PUSH2 0x2C9 PUSH2 0x350 CALLDATASIZE PUSH1 0x4 PUSH2 0x2639 JUMP JUMPDEST PUSH2 0xB5E JUMP JUMPDEST PUSH2 0x2C9 PUSH2 0x363 CALLDATASIZE PUSH1 0x4 PUSH2 0x2530 JUMP JUMPDEST PUSH2 0xB80 JUMP JUMPDEST PUSH2 0x280 PUSH2 0x376 CALLDATASIZE PUSH1 0x4 PUSH2 0x25E0 JUMP JUMPDEST PUSH2 0xEAE JUMP JUMPDEST PUSH2 0x280 PUSH2 0x389 CALLDATASIZE PUSH1 0x4 PUSH2 0x246A JUMP JUMPDEST PUSH2 0xFE8 JUMP JUMPDEST PUSH2 0x280 PUSH2 0x106C JUMP JUMPDEST PUSH2 0x2C9 PUSH2 0x3A4 CALLDATASIZE PUSH1 0x4 PUSH2 0x2484 JUMP JUMPDEST PUSH2 0x1090 JUMP JUMPDEST PUSH2 0x280 PUSH2 0x3B7 CALLDATASIZE PUSH1 0x4 PUSH2 0x2507 JUMP JUMPDEST PUSH2 0x1260 JUMP JUMPDEST PUSH2 0x280 PUSH2 0x12EE JUMP JUMPDEST PUSH2 0x2C9 PUSH2 0x3D2 CALLDATASIZE PUSH1 0x4 PUSH2 0x26B5 JUMP JUMPDEST PUSH2 0x1300 JUMP JUMPDEST PUSH2 0x280 PUSH2 0x1340 JUMP JUMPDEST PUSH2 0x3F2 PUSH2 0x3ED CALLDATASIZE PUSH1 0x4 PUSH2 0x26A4 JUMP JUMPDEST PUSH2 0x1346 JUMP JUMPDEST PUSH1 0x40 MLOAD PUSH2 0x28D SWAP2 SWAP1 PUSH2 0x2AC7 JUMP JUMPDEST PUSH2 0x412 PUSH2 0x40D CALLDATASIZE PUSH1 0x4 PUSH2 0x2530 JUMP JUMPDEST PUSH2 0x18EF JUMP JUMPDEST PUSH1 0x40 MLOAD PUSH2 0x28D SWAP2 SWAP1 PUSH2 0x27CF JUMP JUMPDEST PUSH2 0x280 PUSH2 0x1A26 JUMP JUMPDEST PUSH2 0x280 PUSH2 0x1A78 JUMP JUMPDEST PUSH2 0x280 PUSH2 0x43D CALLDATASIZE PUSH1 0x4 PUSH2 0x2621 JUMP JUMPDEST PUSH2 0x1A7E JUMP JUMPDEST PUSH2 0x455 PUSH2 0x450 CALLDATASIZE PUSH1 0x4 PUSH2 0x265B JUMP JUMPDEST PUSH2 0x1ADE JUMP JUMPDEST PUSH1 0x40 MLOAD PUSH2 0x28D SWAP2 SWAP1 PUSH2 0x2764 JUMP JUMPDEST PUSH2 0x2A9 PUSH2 0x470 CALLDATASIZE PUSH1 0x4 PUSH2 0x2639 JUMP JUMPDEST PUSH2 0x1AF6 JUMP JUMPDEST PUSH2 0x280 PUSH2 0x1B1F JUMP JUMPDEST PUSH2 0x280 PUSH2 0x1B25 JUMP JUMPDEST PUSH2 0x280 PUSH2 0x1B37 JUMP JUMPDEST PUSH2 0x280 PUSH2 0x49B CALLDATASIZE PUSH1 0x4 PUSH2 0x246A JUMP JUMPDEST PUSH2 0x1B3D JUMP JUMPDEST PUSH2 0x280 PUSH2 0x1B4F JUMP JUMPDEST PUSH2 0x280 PUSH2 0x4B6 CALLDATASIZE PUSH1 0x4 PUSH2 0x2621 JUMP JUMPDEST PUSH2 0x1BAF JUMP JUMPDEST PUSH2 0x280 PUSH2 0x4C9 CALLDATASIZE PUSH1 0x4 PUSH2 0x246A JUMP JUMPDEST PUSH2 0x1BC6 JUMP JUMPDEST PUSH2 0x280 PUSH2 0x1BD8 JUMP JUMPDEST PUSH2 0x280 PUSH2 0x4E4 CALLDATASIZE PUSH1 0x4 PUSH2 0x246A JUMP JUMPDEST PUSH2 0x1BDD JUMP JUMPDEST PUSH2 0x2C9 PUSH2 0x4F7 CALLDATASIZE PUSH1 0x4 PUSH2 0x2639 JUMP JUMPDEST PUSH2 0x1BEF JUMP JUMPDEST PUSH2 0x280 PUSH2 0x1BF9 JUMP JUMPDEST PUSH2 0x455 PUSH2 0x512 CALLDATASIZE PUSH1 0x4 PUSH2 0x246A JUMP JUMPDEST PUSH2 0x1C1D JUMP JUMPDEST PUSH2 0x2C9 PUSH2 0x525 CALLDATASIZE PUSH1 0x4 PUSH2 0x246A JUMP JUMPDEST PUSH2 0x1C38 JUMP JUMPDEST PUSH2 0x2C9 PUSH2 0x538 CALLDATASIZE PUSH1 0x4 PUSH2 0x2621 JUMP JUMPDEST PUSH2 0x1C9B JUMP JUMPDEST PUSH2 0x2C9 PUSH2 0x54B CALLDATASIZE PUSH1 0x4 PUSH2 0x2507 JUMP JUMPDEST PUSH2 0x1CC9 JUMP JUMPDEST PUSH1 0x0 PUSH2 0x56C PUSH1 0x0 DUP1 MLOAD PUSH1 0x20 PUSH2 0x2BF5 DUP4 CODECOPY DUP2 MLOAD SWAP2 MSTORE PUSH2 0x470 PUSH2 0x1D2D JUMP JUMPDEST DUP1 PUSH2 0x57F JUMPI POP PUSH2 0x57F PUSH1 0x0 PUSH2 0x470 PUSH2 0x1D2D JUMP JUMPDEST PUSH2 0x5A4 JUMPI PUSH1 0x40 MLOAD PUSH3 0x461BCD PUSH1 0xE5 SHL DUP2 MSTORE PUSH1 0x4 ADD PUSH2 0x59B SWAP1 PUSH2 0x28C6 JUMP JUMPDEST PUSH1 0x40 MLOAD DUP1 SWAP2 SUB SWAP1 REVERT JUMPDEST PUSH1 0x1 PUSH1 0x1 PUSH1 0xA0 SHL SUB DUP5 AND PUSH1 0x0 SWAP1 DUP2 MSTORE PUSH1 0x4 PUSH1 0x20 MSTORE PUSH1 0x40 DUP2 KECCAK256 SLOAD SWAP1 DUP1 JUMPDEST DUP5 DUP2 LT ISZERO PUSH2 0x7F0 JUMPI PUSH1 0x3 PUSH1 0x0 DUP8 DUP8 DUP5 DUP2 DUP2 LT PUSH2 0x5EC JUMPI PUSH4 0x4E487B71 PUSH1 0xE0 SHL PUSH1 0x0 MSTORE PUSH1 0x32 PUSH1 0x4 MSTORE PUSH1 0x24 PUSH1 0x0 REVERT JUMPDEST SWAP1 POP PUSH1 0x20 MUL ADD PUSH1 0x20 DUP2 ADD SWAP1 PUSH2 0x601 SWAP2 SWAP1 PUSH2 0x246A JUMP JUMPDEST PUSH1 0x1 PUSH1 0x1 PUSH1 0xA0 SHL SUB AND DUP2 MSTORE PUSH1 0x20 DUP2 ADD SWAP2 SWAP1 SWAP2 MSTORE PUSH1 0x40 ADD PUSH1 0x0 KECCAK256 SLOAD PUSH2 0x624 JUMPI PUSH2 0x7DE JUMP JUMPDEST PUSH1 0x5 PUSH1 0x0 DUP8 DUP8 DUP5 DUP2 DUP2 LT PUSH2 0x648 JUMPI PUSH4 0x4E487B71 PUSH1 0xE0 SHL PUSH1 0x0 MSTORE PUSH1 0x32 PUSH1 0x4 MSTORE PUSH1 0x24 PUSH1 0x0 REVERT JUMPDEST SWAP1 POP PUSH1 0x20 MUL ADD PUSH1 0x20 DUP2 ADD SWAP1 PUSH2 0x65D SWAP2 SWAP1 PUSH2 0x246A JUMP JUMPDEST PUSH1 0x1 PUSH1 0x1 PUSH1 0xA0 SHL SUB SWAP1 DUP2 AND DUP3 MSTORE PUSH1 0x20 DUP3 ADD SWAP3 SWAP1 SWAP3 MSTORE PUSH1 0x40 ADD PUSH1 0x0 KECCAK256 SLOAD AND SWAP2 POP DUP2 ISZERO PUSH2 0x7DE JUMPI DUP7 PUSH1 0x1 PUSH1 0x1 PUSH1 0xA0 SHL SUB AND DUP3 PUSH1 0x1 PUSH1 0x1 PUSH1 0xA0 SHL SUB AND EQ ISZERO PUSH2 0x71E JUMPI PUSH3 0xF4240 PUSH1 0xD SLOAD PUSH1 0x3 PUSH1 0x0 DUP10 DUP10 DUP7 DUP2 DUP2 LT PUSH2 0x6C7 JUMPI PUSH4 0x4E487B71 PUSH1 0xE0 SHL PUSH1 0x0 MSTORE PUSH1 0x32 PUSH1 0x4 MSTORE PUSH1 0x24 PUSH1 0x0 REVERT JUMPDEST SWAP1 POP PUSH1 0x20 MUL ADD PUSH1 0x20 DUP2 ADD SWAP1 PUSH2 0x6DC SWAP2 SWAP1 PUSH2 0x246A JUMP JUMPDEST PUSH1 0x1 PUSH1 0x1 PUSH1 0xA0 SHL SUB AND PUSH1 0x1 PUSH1 0x1 PUSH1 0xA0 SHL SUB AND DUP2 MSTORE PUSH1 0x20 ADD SWAP1 DUP2 MSTORE PUSH1 0x20 ADD PUSH1 0x0 KECCAK256 SLOAD PUSH2 0x707 SWAP2 SWAP1 PUSH2 0x2B2A JUMP JUMPDEST PUSH2 0x711 SWAP2 SWAP1 PUSH2 0x2B0A JUMP JUMPDEST PUSH2 0x71B SWAP1 DUP5 PUSH2 0x2AF2 JUMP JUMPDEST SWAP3 POP JUMPDEST PUSH1 0x1 PUSH1 0x1 PUSH1 0xA0 SHL SUB SWAP2 DUP3 AND PUSH1 0x0 SWAP1 DUP2 MSTORE PUSH1 0x5 PUSH1 0x20 MSTORE PUSH1 0x40 SWAP1 KECCAK256 SLOAD SWAP1 SWAP2 AND SWAP1 DUP2 ISZERO PUSH2 0x7DE JUMPI DUP7 PUSH1 0x1 PUSH1 0x1 PUSH1 0xA0 SHL SUB AND DUP3 PUSH1 0x1 PUSH1 0x1 PUSH1 0xA0 SHL SUB AND EQ ISZERO PUSH2 0x7DE JUMPI PUSH3 0xF4240 PUSH1 0xE SLOAD PUSH1 0x3 PUSH1 0x0 DUP10 DUP10 DUP7 DUP2 DUP2 LT PUSH2 0x787 JUMPI PUSH4 0x4E487B71 PUSH1 0xE0 SHL PUSH1 0x0 MSTORE PUSH1 0x32 PUSH1 0x4 MSTORE PUSH1 0x24 PUSH1 0x0 REVERT JUMPDEST SWAP1 POP PUSH1 0x20 MUL ADD PUSH1 0x20 DUP2 ADD SWAP1 PUSH2 0x79C SWAP2 SWAP1 PUSH2 0x246A JUMP JUMPDEST PUSH1 0x1 PUSH1 0x1 PUSH1 0xA0 SHL SUB AND PUSH1 0x1 PUSH1 0x1 PUSH1 0xA0 SHL SUB AND DUP2 MSTORE PUSH1 0x20 ADD SWAP1 DUP2 MSTORE PUSH1 0x20 ADD PUSH1 0x0 KECCAK256 SLOAD PUSH2 0x7C7 SWAP2 SWAP1 PUSH2 0x2B2A JUMP JUMPDEST PUSH2 0x7D1 SWAP2 SWAP1 PUSH2 0x2B0A JUMP JUMPDEST PUSH2 0x7DB SWAP1 DUP5 PUSH2 0x2AF2 JUMP JUMPDEST SWAP3 POP JUMPDEST DUP1 PUSH2 0x7E8 DUP2 PUSH2 0x2BA3 JUMP JUMPDEST SWAP2 POP POP PUSH2 0x5C0 JUMP JUMPDEST POP PUSH8 0xDE0B6B3A7640000 PUSH1 0x2 SLOAD DUP4 PUSH2 0x808 SWAP2 SWAP1 PUSH2 0x2B2A JUMP JUMPDEST PUSH2 0x812 SWAP2 SWAP1 PUSH2 0x2B0A JUMP JUMPDEST SWAP7 SWAP6 POP POP POP POP POP POP JUMP JUMPDEST PUSH1 0x0 PUSH1 0x1 PUSH1 0x1 PUSH1 0xE0 SHL SUB NOT DUP3 AND PUSH4 0x5A05180F PUSH1 0xE0 SHL EQ DUP1 PUSH2 0x841 JUMPI POP PUSH2 0x841 DUP3 PUSH2 0x1D31 JUMP JUMPDEST SWAP1 POP JUMPDEST SWAP2 SWAP1 POP JUMP JUMPDEST PUSH2 0x856 PUSH1 0x0 PUSH2 0x470 PUSH2 0x1D2D JUMP JUMPDEST PUSH2 0x872 JUMPI PUSH1 0x40 MLOAD PUSH3 0x461BCD PUSH1 0xE5 SHL DUP2 MSTORE PUSH1 0x4 ADD PUSH2 0x59B SWAP1 PUSH2 0x28FD JUMP JUMPDEST PUSH1 0x0 JUMPDEST DUP2 DUP2 LT ISZERO PUSH2 0x8F9 JUMPI PUSH2 0x8E7 DUP4 DUP4 DUP4 DUP2 DUP2 LT PUSH2 0x8A0 JUMPI PUSH4 0x4E487B71 PUSH1 0xE0 SHL PUSH1 0x0 MSTORE PUSH1 0x32 PUSH1 0x4 MSTORE PUSH1 0x24 PUSH1 0x0 REVERT JUMPDEST SWAP1 POP PUSH1 0x40 MUL ADD PUSH1 0x0 ADD CALLDATALOAD DUP5 DUP5 DUP5 DUP2 DUP2 LT PUSH2 0x8CA JUMPI PUSH4 0x4E487B71 PUSH1 0xE0 SHL PUSH1 0x0 MSTORE PUSH1 0x32 PUSH1 0x4 MSTORE PUSH1 0x24 PUSH1 0x0 REVERT JUMPDEST SWAP1 POP PUSH1 0x40 MUL ADD PUSH1 0x20 ADD PUSH1 0x20 DUP2 ADD SWAP1 PUSH2 0x8E2 SWAP2 SWAP1 PUSH2 0x246A JUMP JUMPDEST PUSH2 0x1D56 JUMP JUMPDEST DUP1 PUSH2 0x8F1 DUP2 PUSH2 0x2BA3 JUMP JUMPDEST SWAP2 POP POP PUSH2 0x875 JUMP JUMPDEST POP POP POP JUMP JUMPDEST PUSH2 0x918 PUSH1 0x0 DUP1 MLOAD PUSH1 0x20 PUSH2 0x2BF5 DUP4 CODECOPY DUP2 MLOAD SWAP2 MSTORE PUSH2 0x470 PUSH2 0x1D2D JUMP JUMPDEST DUP1 PUSH2 0x92B JUMPI POP PUSH2 0x92B PUSH1 0x0 PUSH2 0x470 PUSH2 0x1D2D JUMP JUMPDEST PUSH2 0x947 JUMPI PUSH1 0x40 MLOAD PUSH3 0x461BCD PUSH1 0xE5 SHL DUP2 MSTORE PUSH1 0x4 ADD PUSH2 0x59B SWAP1 PUSH2 0x28C6 JUMP JUMPDEST PUSH1 0x2 SLOAD PUSH1 0x0 SWAP1 PUSH2 0x95F PUSH8 0xDE0B6B3A7640000 DUP5 PUSH2 0x2B2A JUMP JUMPDEST PUSH2 0x969 SWAP2 SWAP1 PUSH2 0x2B0A JUMP JUMPDEST SWAP1 POP DUP1 PUSH1 0x7 PUSH1 0x0 DUP3 DUP3 SLOAD PUSH2 0x97D SWAP2 SWAP1 PUSH2 0x2AF2 JUMP JUMPDEST SWAP3 POP POP DUP2 SWAP1 SSTORE POP DUP1 PUSH1 0x10 PUSH1 0x0 DUP3 DUP3 SLOAD PUSH2 0x996 SWAP2 SWAP1 PUSH2 0x2AF2 JUMP JUMPDEST SWAP1 SWAP2 SSTORE POP PUSH2 0x9A4 SWAP1 POP PUSH2 0x1D60 JUMP JUMPDEST POP POP JUMP JUMPDEST PUSH1 0x7 SLOAD DUP2 JUMP JUMPDEST PUSH1 0xB SLOAD DUP2 JUMP JUMPDEST PUSH1 0x0 SWAP1 DUP2 MSTORE PUSH1 0x20 DUP2 SWAP1 MSTORE PUSH1 0x40 SWAP1 KECCAK256 PUSH1 0x1 ADD SLOAD SWAP1 JUMP JUMPDEST PUSH1 0x0 PUSH2 0x9E5 PUSH1 0x0 DUP1 MLOAD PUSH1 0x20 PUSH2 0x2BF5 DUP4 CODECOPY DUP2 MLOAD SWAP2 MSTORE PUSH2 0x470 PUSH2 0x1D2D JUMP JUMPDEST DUP1 PUSH2 0x9F8 JUMPI POP PUSH2 0x9F8 PUSH1 0x0 PUSH2 0x470 PUSH2 0x1D2D JUMP JUMPDEST PUSH2 0xA14 JUMPI PUSH1 0x40 MLOAD PUSH3 0x461BCD PUSH1 0xE5 SHL DUP2 MSTORE PUSH1 0x4 ADD PUSH2 0x59B SWAP1 PUSH2 0x28C6 JUMP JUMPDEST PUSH2 0xA3E PUSH32 0xBD68AB95CDA3C90AC0BFFC2B3A3A97A564372FC3CA4A8E4575D3CE58179B7563 DUP5 PUSH2 0x1AF6 JUMP JUMPDEST PUSH2 0xA68 JUMPI PUSH8 0xDE0B6B3A7640000 PUSH1 0x2 SLOAD DUP4 PUSH2 0xA59 SWAP2 SWAP1 PUSH2 0x2B2A JUMP JUMPDEST PUSH2 0xA63 SWAP2 SWAP1 PUSH2 0x2B0A JUMP JUMPDEST PUSH2 0xA6A JUMP JUMPDEST DUP2 JUMPDEST SWAP1 POP JUMPDEST SWAP3 SWAP2 POP POP JUMP JUMPDEST PUSH2 0xA7D DUP3 DUP3 PUSH2 0x1D81 JUMP JUMPDEST PUSH1 0x0 DUP3 DUP2 MSTORE PUSH1 0x1 PUSH1 0x20 MSTORE PUSH1 0x40 SWAP1 KECCAK256 PUSH2 0x8F9 SWAP1 DUP3 PUSH2 0x1D18 JUMP JUMPDEST PUSH1 0x0 PUSH2 0xAB1 PUSH1 0x0 DUP1 MLOAD PUSH1 0x20 PUSH2 0x2BF5 DUP4 CODECOPY DUP2 MLOAD SWAP2 MSTORE PUSH2 0x470 PUSH2 0x1D2D JUMP JUMPDEST DUP1 PUSH2 0xAC4 JUMPI POP PUSH2 0xAC4 PUSH1 0x0 PUSH2 0x470 PUSH2 0x1D2D JUMP JUMPDEST PUSH2 0xAE0 JUMPI PUSH1 0x40 MLOAD PUSH3 0x461BCD PUSH1 0xE5 SHL DUP2 MSTORE PUSH1 0x4 ADD PUSH2 0x59B SWAP1 PUSH2 0x28C6 JUMP JUMPDEST PUSH1 0x2 SLOAD PUSH1 0x0 SWAP1 PUSH2 0xAF8 PUSH8 0xDE0B6B3A7640000 DUP7 PUSH2 0x2B2A JUMP JUMPDEST PUSH2 0xB02 SWAP2 SWAP1 PUSH2 0x2B0A JUMP JUMPDEST SWAP1 POP DUP1 DUP4 LT ISZERO PUSH2 0xB24 JUMPI PUSH1 0x40 MLOAD PUSH3 0x461BCD PUSH1 0xE5 SHL DUP2 MSTORE PUSH1 0x4 ADD PUSH2 0x59B SWAP1 PUSH2 0x29BF JUMP JUMPDEST DUP1 PUSH1 0x7 PUSH1 0x0 DUP3 DUP3 SLOAD PUSH2 0xB36 SWAP2 SWAP1 PUSH2 0x2AF2 JUMP JUMPDEST SWAP1 SWAP2 SSTORE POP PUSH2 0xB46 SWAP1 POP DUP2 DUP5 PUSH2 0x2B49 JUMP JUMPDEST SWAP3 POP PUSH2 0xB50 PUSH2 0x1D60 JUMP JUMPDEST POP SWAP1 SWAP3 SWAP2 POP POP JUMP JUMPDEST PUSH1 0x2 SLOAD DUP2 JUMP JUMPDEST PUSH2 0xB68 DUP3 DUP3 PUSH2 0x1DA5 JUMP JUMPDEST PUSH1 0x0 DUP3 DUP2 MSTORE PUSH1 0x1 PUSH1 0x20 MSTORE PUSH1 0x40 SWAP1 KECCAK256 PUSH2 0x8F9 SWAP1 DUP3 PUSH2 0x1DE7 JUMP JUMPDEST PUSH2 0xB9A PUSH1 0x0 DUP1 MLOAD PUSH1 0x20 PUSH2 0x2BF5 DUP4 CODECOPY DUP2 MLOAD SWAP2 MSTORE PUSH2 0x470 PUSH2 0x1D2D JUMP JUMPDEST DUP1 PUSH2 0xBAD JUMPI POP PUSH2 0xBAD PUSH1 0x0 PUSH2 0x470 PUSH2 0x1D2D JUMP JUMPDEST PUSH2 0xBC9 JUMPI PUSH1 0x40 MLOAD PUSH3 0x461BCD PUSH1 0xE5 SHL DUP2 MSTORE PUSH1 0x4 ADD PUSH2 0x59B SWAP1 PUSH2 0x28C6 JUMP JUMPDEST PUSH1 0x0 DUP1 JUMPDEST DUP3 DUP2 LT ISZERO PUSH2 0xEA8 JUMPI PUSH1 0x3 PUSH1 0x0 DUP6 DUP6 DUP5 DUP2 DUP2 LT PUSH2 0xBF9 JUMPI PUSH4 0x4E487B71 PUSH1 0xE0 SHL PUSH1 0x0 MSTORE PUSH1 0x32 PUSH1 0x4 MSTORE PUSH1 0x24 PUSH1 0x0 REVERT JUMPDEST SWAP1 POP PUSH1 0x20 MUL ADD PUSH1 0x20 DUP2 ADD SWAP1 PUSH2 0xC0E SWAP2 SWAP1 PUSH2 0x246A JUMP JUMPDEST PUSH1 0x1 PUSH1 0x1 PUSH1 0xA0 SHL SUB AND DUP2 MSTORE PUSH1 0x20 DUP2 ADD SWAP2 SWAP1 SWAP2 MSTORE PUSH1 0x40 ADD PUSH1 0x0 KECCAK256 SLOAD PUSH2 0xC31 JUMPI PUSH2 0xE96 JUMP JUMPDEST PUSH3 0xF4240 PUSH1 0xD SLOAD PUSH1 0x3 PUSH1 0x0 DUP8 DUP8 DUP7 DUP2 DUP2 LT PUSH2 0xC5C JUMPI PUSH4 0x4E487B71 PUSH1 0xE0 SHL PUSH1 0x0 MSTORE PUSH1 0x32 PUSH1 0x4 MSTORE PUSH1 0x24 PUSH1 0x0 REVERT JUMPDEST SWAP1 POP PUSH1 0x20 MUL ADD PUSH1 0x20 DUP2 ADD SWAP1 PUSH2 0xC71 SWAP2 SWAP1 PUSH2 0x246A JUMP JUMPDEST PUSH1 0x1 PUSH1 0x1 PUSH1 0xA0 SHL SUB AND PUSH1 0x1 PUSH1 0x1 PUSH1 0xA0 SHL SUB AND DUP2 MSTORE PUSH1 0x20 ADD SWAP1 DUP2 MSTORE PUSH1 0x20 ADD PUSH1 0x0 KECCAK256 SLOAD PUSH2 0xC9C SWAP2 SWAP1 PUSH2 0x2B2A JUMP JUMPDEST PUSH2 0xCA6 SWAP2 SWAP1 PUSH2 0x2B0A JUMP JUMPDEST PUSH1 0x1 PUSH1 0x1 PUSH1 0xA0 SHL SUB DUP4 AND PUSH1 0x0 SWAP1 DUP2 MSTORE PUSH1 0x4 PUSH1 0x20 MSTORE PUSH1 0x40 DUP2 KECCAK256 DUP1 SLOAD SWAP1 SWAP2 SWAP1 PUSH2 0xCCE SWAP1 DUP5 SWAP1 PUSH2 0x2AF2 JUMP JUMPDEST SWAP1 SWAP2 SSTORE POP POP PUSH1 0x1 PUSH1 0x1 PUSH1 0xA0 SHL SUB DUP3 AND PUSH1 0x0 SWAP1 DUP2 MSTORE PUSH1 0x4 PUSH1 0x20 MSTORE PUSH1 0x40 SWAP1 DUP2 SWAP1 KECCAK256 SLOAD SWAP1 MLOAD PUSH32 0xF3882AA7D90C3183DBF5BDB21B267A5ADAA8FA9899B3E85ED517B2E8584DB623 SWAP2 PUSH2 0xD1E SWAP2 DUP6 SWAP2 SWAP1 PUSH2 0x27B6 JUMP JUMPDEST PUSH1 0x40 MLOAD DUP1 SWAP2 SUB SWAP1 LOG1 PUSH1 0x1 PUSH1 0x1 PUSH1 0xA0 SHL SUB SWAP2 DUP3 AND PUSH1 0x0 SWAP1 DUP2 MSTORE PUSH1 0x5 PUSH1 0x20 MSTORE PUSH1 0x40 SWAP1 KECCAK256 SLOAD SWAP1 SWAP2 AND SWAP1 DUP2 ISZERO PUSH2 0xE40 JUMPI PUSH3 0xF4240 PUSH1 0xE SLOAD PUSH1 0x3 PUSH1 0x0 DUP8 DUP8 DUP7 DUP2 DUP2 LT PUSH2 0xD75 JUMPI PUSH4 0x4E487B71 PUSH1 0xE0 SHL PUSH1 0x0 MSTORE PUSH1 0x32 PUSH1 0x4 MSTORE PUSH1 0x24 PUSH1 0x0 REVERT JUMPDEST SWAP1 POP PUSH1 0x20 MUL ADD PUSH1 0x20 DUP2 ADD SWAP1 PUSH2 0xD8A SWAP2 SWAP1 PUSH2 0x246A JUMP JUMPDEST PUSH1 0x1 PUSH1 0x1 PUSH1 0xA0 SHL SUB AND PUSH1 0x1 PUSH1 0x1 PUSH1 0xA0 SHL SUB AND DUP2 MSTORE PUSH1 0x20 ADD SWAP1 DUP2 MSTORE PUSH1 0x20 ADD PUSH1 0x0 KECCAK256 SLOAD PUSH2 0xDB5 SWAP2 SWAP1 PUSH2 0x2B2A JUMP JUMPDEST PUSH2 0xDBF SWAP2 SWAP1 PUSH2 0x2B0A JUMP JUMPDEST PUSH1 0x1 PUSH1 0x1 PUSH1 0xA0 SHL SUB DUP4 AND PUSH1 0x0 SWAP1 DUP2 MSTORE PUSH1 0x4 PUSH1 0x20 MSTORE PUSH1 0x40 DUP2 KECCAK256 DUP1 SLOAD SWAP1 SWAP2 SWAP1 PUSH2 0xDE7 SWAP1 DUP5 SWAP1 PUSH2 0x2AF2 JUMP JUMPDEST SWAP1 SWAP2 SSTORE POP POP PUSH1 0x1 PUSH1 0x1 PUSH1 0xA0 SHL SUB DUP3 AND PUSH1 0x0 SWAP1 DUP2 MSTORE PUSH1 0x4 PUSH1 0x20 MSTORE PUSH1 0x40 SWAP1 DUP2 SWAP1 KECCAK256 SLOAD SWAP1 MLOAD PUSH32 0xF3882AA7D90C3183DBF5BDB21B267A5ADAA8FA9899B3E85ED517B2E8584DB623 SWAP2 PUSH2 0xE37 SWAP2 DUP6 SWAP2 SWAP1 PUSH2 0x27B6 JUMP JUMPDEST PUSH1 0x40 MLOAD DUP1 SWAP2 SUB SWAP1 LOG1 JUMPDEST PUSH1 0x0 PUSH1 0x3 PUSH1 0x0 DUP7 DUP7 DUP6 DUP2 DUP2 LT PUSH2 0xE66 JUMPI PUSH4 0x4E487B71 PUSH1 0xE0 SHL PUSH1 0x0 MSTORE PUSH1 0x32 PUSH1 0x4 MSTORE PUSH1 0x24 PUSH1 0x0 REVERT JUMPDEST SWAP1 POP PUSH1 0x20 MUL ADD PUSH1 0x20 DUP2 ADD SWAP1 PUSH2 0xE7B SWAP2 SWAP1 PUSH2 0x246A JUMP JUMPDEST PUSH1 0x1 PUSH1 0x1 PUSH1 0xA0 SHL SUB AND DUP2 MSTORE PUSH1 0x20 DUP2 ADD SWAP2 SWAP1 SWAP2 MSTORE PUSH1 0x40 ADD PUSH1 0x0 KECCAK256 SSTORE JUMPDEST DUP1 PUSH2 0xEA0 DUP2 PUSH2 0x2BA3 JUMP JUMPDEST SWAP2 POP POP PUSH2 0xBCD JUMP JUMPDEST POP POP POP POP JUMP JUMPDEST PUSH1 0x0 PUSH2 0xECA PUSH1 0x0 DUP1 MLOAD PUSH1 0x20 PUSH2 0x2BF5 DUP4 CODECOPY DUP2 MLOAD SWAP2 MSTORE PUSH2 0x470 PUSH2 0x1D2D JUMP JUMPDEST DUP1 PUSH2 0xEDD JUMPI POP PUSH2 0xEDD PUSH1 0x0 PUSH2 0x470 PUSH2 0x1D2D JUMP JUMPDEST PUSH2 0xEF9 JUMPI PUSH1 0x40 MLOAD PUSH3 0x461BCD PUSH1 0xE5 SHL DUP2 MSTORE PUSH1 0x4 ADD PUSH2 0x59B SWAP1 PUSH2 0x28C6 JUMP JUMPDEST PUSH2 0xF11 PUSH1 0x0 DUP1 MLOAD PUSH1 0x20 PUSH2 0x2BD5 DUP4 CODECOPY DUP2 MLOAD SWAP2 MSTORE DUP5 PUSH2 0x1AF6 JUMP JUMPDEST DUP1 PUSH2 0xF20 JUMPI POP PUSH2 0xF20 DUP4 PUSH2 0x1DFC JUMP JUMPDEST PUSH2 0xF3C JUMPI PUSH1 0x40 MLOAD PUSH3 0x461BCD PUSH1 0xE5 SHL DUP2 MSTORE PUSH1 0x4 ADD PUSH2 0x59B SWAP1 PUSH2 0x2A21 JUMP JUMPDEST PUSH1 0x2 SLOAD PUSH2 0xF51 DUP4 PUSH8 0xDE0B6B3A7640000 PUSH2 0x2B2A JUMP JUMPDEST PUSH2 0xF5B SWAP2 SWAP1 PUSH2 0x2B0A JUMP JUMPDEST SWAP1 POP PUSH1 0x0 PUSH2 0xF69 DUP3 DUP5 PUSH2 0x2B49 JUMP JUMPDEST SWAP1 POP DUP5 ISZERO PUSH2 0xFA7 JUMPI DUP1 PUSH1 0xF PUSH1 0x0 DUP3 DUP3 SLOAD PUSH2 0xF83 SWAP2 SWAP1 PUSH2 0x2AF2 JUMP JUMPDEST SWAP3 POP POP DUP2 SWAP1 SSTORE POP DUP2 PUSH1 0x10 PUSH1 0x0 DUP3 DUP3 SLOAD PUSH2 0xF9C SWAP2 SWAP1 PUSH2 0x2AF2 JUMP JUMPDEST SWAP1 SWAP2 SSTORE POP PUSH2 0xFD8 SWAP1 POP JUMP JUMPDEST DUP1 PUSH1 0xF PUSH1 0x0 DUP3 DUP3 SLOAD PUSH2 0xFB9 SWAP2 SWAP1 PUSH2 0x2B49 JUMP JUMPDEST SWAP3 POP POP DUP2 SWAP1 SSTORE POP DUP2 PUSH1 0x10 PUSH1 0x0 DUP3 DUP3 SLOAD PUSH2 0xFD2 SWAP2 SWAP1 PUSH2 0x2B49 JUMP JUMPDEST SWAP1 SWAP2 SSTORE POP POP JUMPDEST PUSH2 0xFE0 PUSH2 0x1E01 JUMP JUMPDEST POP SWAP4 SWAP3 POP POP POP JUMP JUMPDEST PUSH1 0x0 PUSH2 0x1004 PUSH1 0x0 DUP1 MLOAD PUSH1 0x20 PUSH2 0x2BF5 DUP4 CODECOPY DUP2 MLOAD SWAP2 MSTORE PUSH2 0x470 PUSH2 0x1D2D JUMP JUMPDEST DUP1 PUSH2 0x1017 JUMPI POP PUSH2 0x1017 PUSH1 0x0 PUSH2 0x470 PUSH2 0x1D2D JUMP JUMPDEST PUSH2 0x1033 JUMPI PUSH1 0x40 MLOAD PUSH3 0x461BCD PUSH1 0xE5 SHL DUP2 MSTORE PUSH1 0x4 ADD PUSH2 0x59B SWAP1 PUSH2 0x28C6 JUMP JUMPDEST PUSH1 0x2 SLOAD PUSH1 0x1 PUSH1 0x1 PUSH1 0xA0 SHL SUB DUP4 AND PUSH1 0x0 SWAP1 DUP2 MSTORE PUSH1 0x4 PUSH1 0x20 MSTORE PUSH1 0x40 SWAP1 KECCAK256 SLOAD PUSH8 0xDE0B6B3A7640000 SWAP2 PUSH2 0x1062 SWAP2 PUSH2 0x2B2A JUMP JUMPDEST PUSH2 0x841 SWAP2 SWAP1 PUSH2 0x2B0A JUMP JUMPDEST PUSH32 0xEE11097CBB9C334EC21A7934061732A460DF1EDB6B52F0B9464FEEA55DD71BFF DUP2 JUMP JUMPDEST PUSH2 0x10AA PUSH1 0x0 DUP1 MLOAD PUSH1 0x20 PUSH2 0x2BF5 DUP4 CODECOPY DUP2 MLOAD SWAP2 MSTORE PUSH2 0x470 PUSH2 0x1D2D JUMP JUMPDEST DUP1 PUSH2 0x10BD JUMPI POP PUSH2 0x10BD PUSH1 0x0 PUSH2 0x470 PUSH2 0x1D2D JUMP JUMPDEST PUSH2 0x10D9 JUMPI PUSH1 0x40 MLOAD PUSH3 0x461BCD PUSH1 0xE5 SHL DUP2 MSTORE PUSH1 0x4 ADD PUSH2 0x59B SWAP1 PUSH2 0x28C6 JUMP JUMPDEST PUSH1 0x1 PUSH1 0x1 PUSH1 0xA0 SHL SUB DUP2 AND ISZERO DUP1 ISZERO SWAP1 PUSH2 0x10F9 JUMPI POP PUSH1 0x1 PUSH1 0x1 PUSH1 0xA0 SHL SUB DUP3 AND ISZERO ISZERO JUMPDEST PUSH2 0x1115 JUMPI PUSH1 0x40 MLOAD PUSH3 0x461BCD PUSH1 0xE5 SHL DUP2 MSTORE PUSH1 0x4 ADD PUSH2 0x59B SWAP1 PUSH2 0x2A9C JUMP JUMPDEST DUP2 PUSH1 0x1 PUSH1 0x1 PUSH1 0xA0 SHL SUB AND DUP2 PUSH1 0x1 PUSH1 0x1 PUSH1 0xA0 SHL SUB AND EQ ISZERO PUSH2 0x1147 JUMPI PUSH1 0x40 MLOAD PUSH3 0x461BCD PUSH1 0xE5 SHL DUP2 MSTORE PUSH1 0x4 ADD PUSH2 0x59B SWAP1 PUSH2 0x2961 JUMP JUMPDEST PUSH2 0x1150 DUP3 PUSH2 0x1DFC JUMP JUMPDEST DUP1 ISZERO PUSH2 0x1160 JUMPI POP PUSH2 0x1160 DUP2 PUSH2 0x1DFC JUMP JUMPDEST PUSH2 0x117C JUMPI PUSH1 0x40 MLOAD PUSH3 0x461BCD PUSH1 0xE5 SHL DUP2 MSTORE PUSH1 0x4 ADD PUSH2 0x59B SWAP1 PUSH2 0x2990 JUMP JUMPDEST PUSH1 0x1 PUSH1 0x1 PUSH1 0xA0 SHL SUB DUP3 DUP2 AND PUSH1 0x0 SWAP1 DUP2 MSTORE PUSH1 0x5 PUSH1 0x20 MSTORE PUSH1 0x40 SWAP1 KECCAK256 SLOAD AND ISZERO PUSH2 0x11F3 JUMPI PUSH1 0x1 PUSH1 0x1 PUSH1 0xA0 SHL SUB DUP1 DUP4 AND PUSH1 0x0 SWAP1 DUP2 MSTORE PUSH1 0x5 PUSH1 0x20 MSTORE PUSH1 0x40 SWAP1 DUP2 SWAP1 KECCAK256 SLOAD SWAP1 MLOAD PUSH32 0xD325E054436180BA510AE589CC09CBFEB86637CC284F42714BCA1FAAD14426A SWAP3 PUSH2 0x11EA SWAP3 DUP7 SWAP3 SWAP2 AND SWAP1 PUSH2 0x2778 JUMP JUMPDEST PUSH1 0x40 MLOAD DUP1 SWAP2 SUB SWAP1 LOG1 JUMPDEST PUSH1 0x1 PUSH1 0x1 PUSH1 0xA0 SHL SUB DUP3 DUP2 AND PUSH1 0x0 SWAP1 DUP2 MSTORE PUSH1 0x5 PUSH1 0x20 MSTORE PUSH1 0x40 SWAP1 DUP2 SWAP1 KECCAK256 DUP1 SLOAD PUSH1 0x1 PUSH1 0x1 PUSH1 0xA0 SHL SUB NOT AND SWAP3 DUP5 AND SWAP3 SWAP1 SWAP3 OR SWAP1 SWAP2 SSTORE MLOAD PUSH32 0x5F1CA2FCC108B751843A763E60D2201F593516109D7DBB1B700468F2D4190BB7 SWAP1 PUSH2 0x1254 SWAP1 DUP5 SWAP1 DUP5 SWAP1 PUSH2 0x2778 JUMP JUMPDEST PUSH1 0x40 MLOAD DUP1 SWAP2 SUB SWAP1 LOG1 POP POP JUMP JUMPDEST PUSH1 0x0 PUSH2 0x127C PUSH1 0x0 DUP1 MLOAD PUSH1 0x20 PUSH2 0x2BF5 DUP4 CODECOPY DUP2 MLOAD SWAP2 MSTORE PUSH2 0x470 PUSH2 0x1D2D JUMP JUMPDEST DUP1 PUSH2 0x128F JUMPI POP PUSH2 0x128F PUSH1 0x0 PUSH2 0x470 PUSH2 0x1D2D JUMP JUMPDEST PUSH2 0x12AB JUMPI PUSH1 0x40 MLOAD PUSH3 0x461BCD PUSH1 0xE5 SHL DUP2 MSTORE PUSH1 0x4 ADD PUSH2 0x59B SWAP1 PUSH2 0x28C6 JUMP JUMPDEST PUSH2 0x12D5 PUSH32 0xBD68AB95CDA3C90AC0BFFC2B3A3A97A564372FC3CA4A8E4575D3CE58179B7563 DUP5 PUSH2 0x1AF6 JUMP JUMPDEST PUSH2 0xA68 JUMPI PUSH1 0x2 SLOAD PUSH2 0xA59 PUSH8 0xDE0B6B3A7640000 DUP5 PUSH2 0x2B2A JUMP JUMPDEST PUSH1 0x0 DUP1 MLOAD PUSH1 0x20 PUSH2 0x2BF5 DUP4 CODECOPY DUP2 MLOAD SWAP2 MSTORE DUP2 JUMP JUMPDEST PUSH2 0x130D PUSH1 0x0 PUSH2 0x470 PUSH2 0x1D2D JUMP JUMPDEST PUSH2 0x1329 JUMPI PUSH1 0x40 MLOAD PUSH3 0x461BCD PUSH1 0xE5 SHL DUP2 MSTORE PUSH1 0x4 ADD PUSH2 0x59B SWAP1 PUSH2 0x28FD JUMP JUMPDEST PUSH1 0xC SWAP5 SWAP1 SWAP5 SSTORE PUSH1 0xB SWAP3 SWAP1 SWAP3 SSTORE PUSH1 0xA SSTORE PUSH1 0xD SSTORE PUSH1 0xE SSTORE JUMP JUMPDEST PUSH1 0xD SLOAD DUP2 JUMP JUMPDEST PUSH2 0x134E PUSH2 0x23E2 JUMP JUMPDEST PUSH2 0x1368 PUSH1 0x0 DUP1 MLOAD PUSH1 0x20 PUSH2 0x2BF5 DUP4 CODECOPY DUP2 MLOAD SWAP2 MSTORE PUSH2 0x470 PUSH2 0x1D2D JUMP JUMPDEST DUP1 PUSH2 0x137B JUMPI POP PUSH2 0x137B PUSH1 0x0 PUSH2 0x470 PUSH2 0x1D2D JUMP JUMPDEST PUSH2 0x1397 JUMPI PUSH1 0x40 MLOAD PUSH3 0x461BCD PUSH1 0xE5 SHL DUP2 MSTORE PUSH1 0x4 ADD PUSH2 0x59B SWAP1 PUSH2 0x28C6 JUMP JUMPDEST PUSH2 0x13A7 PUSH1 0x40 DUP4 ADD PUSH1 0x20 DUP5 ADD PUSH2 0x246A JUMP JUMPDEST PUSH1 0x1 PUSH1 0x1 PUSH1 0xA0 SHL SUB AND PUSH2 0x13BD PUSH1 0x20 DUP5 ADD DUP5 PUSH2 0x246A JUMP JUMPDEST PUSH1 0x1 PUSH1 0x1 PUSH1 0xA0 SHL SUB AND EQ ISZERO PUSH2 0x13E4 JUMPI PUSH1 0x40 MLOAD PUSH3 0x461BCD PUSH1 0xE5 SHL DUP2 MSTORE PUSH1 0x4 ADD PUSH2 0x59B SWAP1 PUSH2 0x29F6 JUMP JUMPDEST PUSH1 0x2 SLOAD PUSH1 0x0 SWAP1 PUSH2 0x1400 PUSH8 0xDE0B6B3A7640000 PUSH1 0x40 DUP7 ADD CALLDATALOAD PUSH2 0x2B2A JUMP JUMPDEST PUSH2 0x140A SWAP2 SWAP1 PUSH2 0x2B0A JUMP JUMPDEST SWAP1 POP DUP1 DUP4 PUSH1 0x60 ADD CALLDATALOAD LT ISZERO PUSH2 0x1430 JUMPI PUSH1 0x40 MLOAD PUSH3 0x461BCD PUSH1 0xE5 SHL DUP2 MSTORE PUSH1 0x4 ADD PUSH2 0x59B SWAP1 PUSH2 0x2898 JUMP JUMPDEST PUSH1 0x1 DUP2 GT PUSH2 0x1450 JUMPI PUSH1 0x40 MLOAD PUSH3 0x461BCD PUSH1 0xE5 SHL DUP2 MSTORE PUSH1 0x4 ADD PUSH2 0x59B SWAP1 PUSH2 0x2934 JUMP JUMPDEST PUSH1 0x0 DUP1 PUSH1 0x5 DUP2 PUSH2 0x1463 PUSH1 0x20 DUP9 ADD DUP9 PUSH2 0x246A JUMP JUMPDEST PUSH1 0x1 PUSH1 0x1 PUSH1 0xA0 SHL SUB SWAP1 DUP2 AND DUP3 MSTORE PUSH1 0x20 DUP3 ADD SWAP3 SWAP1 SWAP3 MSTORE PUSH1 0x40 ADD PUSH1 0x0 KECCAK256 SLOAD AND EQ PUSH2 0x14EF JUMPI PUSH3 0xF4240 PUSH1 0xC SLOAD DUP4 PUSH2 0x1497 SWAP2 SWAP1 PUSH2 0x2B2A JUMP JUMPDEST PUSH2 0x14A1 SWAP2 SWAP1 PUSH2 0x2B0A JUMP JUMPDEST SWAP1 POP DUP2 PUSH1 0x3 PUSH1 0x0 PUSH2 0x14B5 PUSH1 0x20 DUP9 ADD DUP9 PUSH2 0x246A JUMP JUMPDEST PUSH1 0x1 PUSH1 0x1 PUSH1 0xA0 SHL SUB AND PUSH1 0x1 PUSH1 0x1 PUSH1 0xA0 SHL SUB AND DUP2 MSTORE PUSH1 0x20 ADD SWAP1 DUP2 MSTORE PUSH1 0x20 ADD PUSH1 0x0 KECCAK256 PUSH1 0x0 DUP3 DUP3 SLOAD PUSH2 0x14E4 SWAP2 SWAP1 PUSH2 0x2AF2 JUMP JUMPDEST SWAP1 SWAP2 SSTORE POP PUSH2 0x17F5 SWAP1 POP JUMP JUMPDEST PUSH2 0x1520 PUSH32 0xEE11097CBB9C334EC21A7934061732A460DF1EDB6B52F0B9464FEEA55DD71BFF PUSH2 0x470 PUSH1 0x20 DUP8 ADD DUP8 PUSH2 0x246A JUMP JUMPDEST DUP1 PUSH2 0x155A JUMPI POP PUSH2 0x155A PUSH32 0xEE11097CBB9C334EC21A7934061732A460DF1EDB6B52F0B9464FEEA55DD71BFF PUSH2 0x470 PUSH1 0x40 DUP8 ADD PUSH1 0x20 DUP9 ADD PUSH2 0x246A JUMP JUMPDEST ISZERO PUSH2 0x1661 JUMPI PUSH1 0x0 PUSH1 0x6 DUP2 PUSH2 0x1574 PUSH1 0x40 DUP9 ADD PUSH1 0x20 DUP10 ADD PUSH2 0x246A JUMP JUMPDEST PUSH1 0x1 PUSH1 0x1 PUSH1 0xA0 SHL SUB AND PUSH1 0x1 PUSH1 0x1 PUSH1 0xA0 SHL SUB AND DUP2 MSTORE PUSH1 0x20 ADD SWAP1 DUP2 MSTORE PUSH1 0x20 ADD PUSH1 0x0 KECCAK256 SLOAD PUSH1 0x6 PUSH1 0x0 DUP8 PUSH1 0x0 ADD PUSH1 0x20 DUP2 ADD SWAP1 PUSH2 0x15AC SWAP2 SWAP1 PUSH2 0x246A JUMP JUMPDEST PUSH1 0x1 PUSH1 0x1 PUSH1 0xA0 SHL SUB AND PUSH1 0x1 PUSH1 0x1 PUSH1 0xA0 SHL SUB AND DUP2 MSTORE PUSH1 0x20 ADD SWAP1 DUP2 MSTORE PUSH1 0x20 ADD PUSH1 0x0 KECCAK256 SLOAD LT PUSH2 0x160C JUMPI PUSH1 0x6 PUSH1 0x0 PUSH2 0x15E6 PUSH1 0x40 DUP9 ADD PUSH1 0x20 DUP10 ADD PUSH2 0x246A JUMP JUMPDEST PUSH1 0x1 PUSH1 0x1 PUSH1 0xA0 SHL SUB AND PUSH1 0x1 PUSH1 0x1 PUSH1 0xA0 SHL SUB AND DUP2 MSTORE PUSH1 0x20 ADD SWAP1 DUP2 MSTORE PUSH1 0x20 ADD PUSH1 0x0 KECCAK256 SLOAD PUSH2 0x163F JUMP JUMPDEST PUSH1 0x6 PUSH1 0x0 PUSH2 0x161D PUSH1 0x20 DUP9 ADD DUP9 PUSH2 0x246A JUMP JUMPDEST PUSH1 0x1 PUSH1 0x1 PUSH1 0xA0 SHL SUB AND PUSH1 0x1 PUSH1 0x1 PUSH1 0xA0 SHL SUB AND DUP2 MSTORE PUSH1 0x20 ADD SWAP1 DUP2 MSTORE PUSH1 0x20 ADD PUSH1 0x0 KECCAK256 SLOAD JUMPDEST SWAP1 POP PUSH3 0xF4240 PUSH2 0x164F DUP3 DUP6 PUSH2 0x2B2A JUMP JUMPDEST PUSH2 0x1659 SWAP2 SWAP1 PUSH2 0x2B0A JUMP JUMPDEST SWAP2 POP POP PUSH2 0x17F5 JUMP JUMPDEST PUSH2 0x1680 PUSH1 0x0 DUP1 MLOAD PUSH1 0x20 PUSH2 0x2BD5 DUP4 CODECOPY DUP2 MLOAD SWAP2 MSTORE PUSH2 0x470 PUSH1 0x20 DUP8 ADD DUP8 PUSH2 0x246A JUMP JUMPDEST DUP1 PUSH2 0x16D0 JUMPI POP NUMBER PUSH1 0x11 PUSH1 0x0 PUSH2 0x1698 PUSH1 0x20 DUP9 ADD DUP9 PUSH2 0x246A JUMP JUMPDEST PUSH1 0x1 PUSH1 0x1 PUSH1 0xA0 SHL SUB AND DUP2 MSTORE PUSH1 0x20 DUP2 ADD SWAP2 SWAP1 SWAP2 MSTORE PUSH1 0x40 ADD PUSH1 0x0 KECCAK256 SLOAD EQ DUP1 ISZERO SWAP1 PUSH2 0x16D0 JUMPI POP PUSH2 0x16D0 PUSH2 0x16CB PUSH1 0x20 DUP7 ADD DUP7 PUSH2 0x246A JUMP JUMPDEST PUSH2 0x1DFC JUMP JUMPDEST DUP1 ISZERO PUSH2 0x1754 JUMPI POP PUSH2 0x16F9 PUSH1 0x0 DUP1 MLOAD PUSH1 0x20 PUSH2 0x2BD5 DUP4 CODECOPY DUP2 MLOAD SWAP2 MSTORE PUSH2 0x470 PUSH1 0x40 DUP8 ADD PUSH1 0x20 DUP9 ADD PUSH2 0x246A JUMP JUMPDEST DUP1 PUSH2 0x1754 JUMPI POP NUMBER PUSH1 0x11 PUSH1 0x0 PUSH2 0x1714 PUSH1 0x40 DUP9 ADD PUSH1 0x20 DUP10 ADD PUSH2 0x246A JUMP JUMPDEST PUSH1 0x1 PUSH1 0x1 PUSH1 0xA0 SHL SUB AND PUSH1 0x1 PUSH1 0x1 PUSH1 0xA0 SHL SUB AND DUP2 MSTORE PUSH1 0x20 ADD SWAP1 DUP2 MSTORE PUSH1 0x20 ADD PUSH1 0x0 KECCAK256 PUSH1 0x1 ADD SLOAD EQ ISZERO DUP1 ISZERO PUSH2 0x1754 JUMPI POP PUSH2 0x1754 PUSH2 0x16CB PUSH1 0x40 DUP7 ADD PUSH1 0x20 DUP8 ADD PUSH2 0x246A JUMP JUMPDEST ISZERO PUSH2 0x177C JUMPI PUSH3 0xF4240 PUSH1 0xA SLOAD DUP4 PUSH2 0x176B SWAP2 SWAP1 PUSH2 0x2B2A JUMP JUMPDEST PUSH2 0x1775 SWAP2 SWAP1 PUSH2 0x2B0A JUMP JUMPDEST SWAP1 POP PUSH2 0x17F5 JUMP JUMPDEST PUSH3 0xF4240 PUSH1 0xB SLOAD DUP4 PUSH2 0x178E SWAP2 SWAP1 PUSH2 0x2B2A JUMP JUMPDEST PUSH2 0x1798 SWAP2 SWAP1 PUSH2 0x2B0A JUMP JUMPDEST SWAP1 POP PUSH32 0xFD80D5D0984F4195E45B249DE62E23C264765087EB4575620DC560346364F28F PUSH2 0x17C8 PUSH1 0x20 DUP7 ADD DUP7 PUSH2 0x246A JUMP JUMPDEST PUSH2 0x17D8 PUSH1 0x40 DUP8 ADD PUSH1 0x20 DUP9 ADD PUSH2 0x246A JUMP JUMPDEST DUP7 PUSH1 0x40 ADD CALLDATALOAD PUSH1 0x40 MLOAD PUSH2 0x17EC SWAP4 SWAP3 SWAP2 SWAP1 PUSH2 0x2792 JUMP JUMPDEST PUSH1 0x40 MLOAD DUP1 SWAP2 SUB SWAP1 LOG1 JUMPDEST PUSH1 0x0 PUSH2 0x1801 DUP3 DUP5 PUSH2 0x2B49 JUMP JUMPDEST SWAP1 POP PUSH8 0xDE0B6B3A7640000 PUSH1 0x2 SLOAD DUP4 PUSH2 0x181A SWAP2 SWAP1 PUSH2 0x2B2A JUMP JUMPDEST PUSH2 0x1824 SWAP2 SWAP1 PUSH2 0x2B0A JUMP JUMPDEST PUSH1 0x40 DUP1 DUP7 ADD DUP3 SWAP1 MSTORE PUSH2 0x1839 SWAP2 SWAP1 DUP8 ADD CALLDATALOAD PUSH2 0x2B49 JUMP JUMPDEST PUSH1 0x60 DUP6 ADD MSTORE NUMBER PUSH1 0x11 PUSH1 0x0 PUSH2 0x1853 PUSH1 0x40 DUP10 ADD PUSH1 0x20 DUP11 ADD PUSH2 0x246A JUMP JUMPDEST PUSH1 0x1 PUSH1 0x1 PUSH1 0xA0 SHL SUB AND DUP2 MSTORE PUSH1 0x20 DUP1 DUP3 ADD SWAP3 SWAP1 SWAP3 MSTORE PUSH1 0x40 ADD PUSH1 0x0 SWAP1 DUP2 KECCAK256 SWAP3 SWAP1 SWAP3 SSTORE NUMBER SWAP2 PUSH1 0x11 SWAP2 PUSH2 0x1884 SWAP1 DUP10 ADD DUP10 PUSH2 0x246A JUMP JUMPDEST PUSH1 0x1 PUSH1 0x1 PUSH1 0xA0 SHL SUB AND DUP2 MSTORE PUSH1 0x20 DUP2 ADD SWAP2 SWAP1 SWAP2 MSTORE PUSH1 0x40 ADD PUSH1 0x0 KECCAK256 PUSH1 0x1 ADD SSTORE PUSH2 0x18AF DUP4 PUSH1 0x60 DUP8 ADD CALLDATALOAD PUSH2 0x2B49 JUMP JUMPDEST DUP5 MSTORE PUSH2 0x18BF DUP2 PUSH1 0x80 DUP8 ADD CALLDATALOAD PUSH2 0x2AF2 JUMP JUMPDEST PUSH1 0x20 DUP6 ADD MSTORE PUSH1 0x7 DUP1 SLOAD DUP4 SWAP2 SWAP1 PUSH1 0x0 SWAP1 PUSH2 0x18D9 SWAP1 DUP5 SWAP1 PUSH2 0x2AF2 JUMP JUMPDEST SWAP1 SWAP2 SSTORE POP PUSH2 0x18E7 SWAP1 POP PUSH2 0x1D60 JUMP JUMPDEST POP POP POP SWAP2 SWAP1 POP JUMP JUMPDEST PUSH1 0x60 PUSH2 0x190B PUSH1 0x0 DUP1 MLOAD PUSH1 0x20 PUSH2 0x2BF5 DUP4 CODECOPY DUP2 MLOAD SWAP2 MSTORE PUSH2 0x470 PUSH2 0x1D2D JUMP JUMPDEST DUP1 PUSH2 0x191E JUMPI POP PUSH2 0x191E PUSH1 0x0 PUSH2 0x470 PUSH2 0x1D2D JUMP JUMPDEST PUSH2 0x193A JUMPI PUSH1 0x40 MLOAD PUSH3 0x461BCD PUSH1 0xE5 SHL DUP2 MSTORE PUSH1 0x4 ADD PUSH2 0x59B SWAP1 PUSH2 0x28C6 JUMP JUMPDEST PUSH1 0x0 DUP4 DUP4 DUP1 DUP1 PUSH1 0x20 MUL PUSH1 0x20 ADD PUSH1 0x40 MLOAD SWAP1 DUP2 ADD PUSH1 0x40 MSTORE DUP1 SWAP4 SWAP3 SWAP2 SWAP1 DUP2 DUP2 MSTORE PUSH1 0x20 ADD DUP4 DUP4 PUSH1 0x20 MUL DUP1 DUP3 DUP5 CALLDATACOPY PUSH1 0x0 SWAP3 ADD DUP3 SWAP1 MSTORE POP SWAP4 SWAP5 POP POP POP POP JUMPDEST DUP4 DUP2 LT ISZERO PUSH2 0xFE0 JUMPI PUSH1 0x3 PUSH1 0x0 DUP7 DUP7 DUP5 DUP2 DUP2 LT PUSH2 0x199E JUMPI PUSH4 0x4E487B71 PUSH1 0xE0 SHL PUSH1 0x0 MSTORE PUSH1 0x32 PUSH1 0x4 MSTORE PUSH1 0x24 PUSH1 0x0 REVERT JUMPDEST SWAP1 POP PUSH1 0x20 MUL ADD PUSH1 0x20 DUP2 ADD SWAP1 PUSH2 0x19B3 SWAP2 SWAP1 PUSH2 0x246A JUMP JUMPDEST PUSH1 0x1 PUSH1 0x1 PUSH1 0xA0 SHL SUB AND DUP2 MSTORE PUSH1 0x20 DUP2 ADD SWAP2 SWAP1 SWAP2 MSTORE PUSH1 0x40 ADD PUSH1 0x0 KECCAK256 SLOAD PUSH2 0x1A14 JUMPI PUSH1 0x0 DUP3 DUP3 DUP2 MLOAD DUP2 LT PUSH2 0x19F3 JUMPI PUSH4 0x4E487B71 PUSH1 0xE0 SHL PUSH1 0x0 MSTORE PUSH1 0x32 PUSH1 0x4 MSTORE PUSH1 0x24 PUSH1 0x0 REVERT JUMPDEST PUSH1 0x20 MUL PUSH1 0x20 ADD ADD SWAP1 PUSH1 0x1 PUSH1 0x1 PUSH1 0xA0 SHL SUB AND SWAP1 DUP2 PUSH1 0x1 PUSH1 0x1 PUSH1 0xA0 SHL SUB AND DUP2 MSTORE POP POP JUMPDEST DUP1 PUSH2 0x1A1E DUP2 PUSH2 0x2BA3 JUMP JUMPDEST SWAP2 POP POP PUSH2 0x1972 JUMP JUMPDEST PUSH1 0x0 PUSH2 0x1A42 PUSH1 0x0 DUP1 MLOAD PUSH1 0x20 PUSH2 0x2BF5 DUP4 CODECOPY DUP2 MLOAD SWAP2 MSTORE PUSH2 0x470 PUSH2 0x1D2D JUMP JUMPDEST DUP1 PUSH2 0x1A55 JUMPI POP PUSH2 0x1A55 PUSH1 0x0 PUSH2 0x470 PUSH2 0x1D2D JUMP JUMPDEST PUSH2 0x1A71 JUMPI PUSH1 0x40 MLOAD PUSH3 0x461BCD PUSH1 0xE5 SHL DUP2 MSTORE PUSH1 0x4 ADD PUSH2 0x59B SWAP1 PUSH2 0x28C6 JUMP JUMPDEST POP PUSH1 0xF SLOAD SWAP1 JUMP JUMPDEST PUSH1 0xA SLOAD DUP2 JUMP JUMPDEST PUSH1 0x0 PUSH2 0x1A9A PUSH1 0x0 DUP1 MLOAD PUSH1 0x20 PUSH2 0x2BF5 DUP4 CODECOPY DUP2 MLOAD SWAP2 MSTORE PUSH2 0x470 PUSH2 0x1D2D JUMP JUMPDEST DUP1 PUSH2 0x1AAD JUMPI POP PUSH2 0x1AAD PUSH1 0x0 PUSH2 0x470 PUSH2 0x1D2D JUMP JUMPDEST PUSH2 0x1AC9 JUMPI PUSH1 0x40 MLOAD PUSH3 0x461BCD PUSH1 0xE5 SHL DUP2 MSTORE PUSH1 0x4 ADD PUSH2 0x59B SWAP1 PUSH2 0x28C6 JUMP JUMPDEST PUSH1 0x2 SLOAD PUSH2 0x1062 PUSH8 0xDE0B6B3A7640000 DUP5 PUSH2 0x2B2A JUMP JUMPDEST PUSH1 0x0 DUP3 DUP2 MSTORE PUSH1 0x1 PUSH1 0x20 MSTORE PUSH1 0x40 DUP2 KECCAK256 PUSH2 0xA6A SWAP1 DUP4 PUSH2 0x1EBA JUMP JUMPDEST PUSH1 0x0 SWAP2 DUP3 MSTORE PUSH1 0x20 DUP3 DUP2 MSTORE PUSH1 0x40 DUP1 DUP5 KECCAK256 PUSH1 0x1 PUSH1 0x1 PUSH1 0xA0 SHL SUB SWAP4 SWAP1 SWAP4 AND DUP5 MSTORE SWAP2 SWAP1 MSTORE SWAP1 KECCAK256 SLOAD PUSH1 0xFF AND SWAP1 JUMP JUMPDEST PUSH1 0xC SLOAD DUP2 JUMP JUMPDEST PUSH1 0x0 DUP1 MLOAD PUSH1 0x20 PUSH2 0x2BD5 DUP4 CODECOPY DUP2 MLOAD SWAP2 MSTORE DUP2 JUMP JUMPDEST PUSH1 0xE SLOAD DUP2 JUMP JUMPDEST PUSH1 0x4 PUSH1 0x20 MSTORE PUSH1 0x0 SWAP1 DUP2 MSTORE PUSH1 0x40 SWAP1 KECCAK256 SLOAD DUP2 JUMP JUMPDEST PUSH1 0x0 PUSH2 0x1B6B PUSH1 0x0 DUP1 MLOAD PUSH1 0x20 PUSH2 0x2BF5 DUP4 CODECOPY DUP2 MLOAD SWAP2 MSTORE PUSH2 0x470 PUSH2 0x1D2D JUMP JUMPDEST DUP1 PUSH2 0x1B7E JUMPI POP PUSH2 0x1B7E PUSH1 0x0 PUSH2 0x470 PUSH2 0x1D2D JUMP JUMPDEST PUSH2 0x1B9A JUMPI PUSH1 0x40 MLOAD PUSH3 0x461BCD PUSH1 0xE5 SHL DUP2 MSTORE PUSH1 0x4 ADD PUSH2 0x59B SWAP1 PUSH2 0x28C6 JUMP JUMPDEST PUSH1 0xF SLOAD PUSH1 0x10 SLOAD PUSH2 0x1BAA SWAP2 SWAP1 PUSH2 0x2AF2 JUMP JUMPDEST SWAP1 POP SWAP1 JUMP JUMPDEST PUSH1 0x0 DUP2 DUP2 MSTORE PUSH1 0x1 PUSH1 0x20 MSTORE PUSH1 0x40 DUP2 KECCAK256 PUSH2 0x841 SWAP1 PUSH2 0x1EC6 JUMP JUMPDEST PUSH1 0x3 PUSH1 0x20 MSTORE PUSH1 0x0 SWAP1 DUP2 MSTORE PUSH1 0x40 SWAP1 KECCAK256 SLOAD DUP2 JUMP JUMPDEST PUSH1 0x0 DUP2 JUMP JUMPDEST PUSH1 0x6 PUSH1 0x20 MSTORE PUSH1 0x0 SWAP1 DUP2 MSTORE PUSH1 0x40 SWAP1 KECCAK256 SLOAD DUP2 JUMP JUMPDEST PUSH2 0xB68 DUP3 DUP3 PUSH2 0x1ED1 JUMP JUMPDEST PUSH32 0xBD68AB95CDA3C90AC0BFFC2B3A3A97A564372FC3CA4A8E4575D3CE58179B7563 DUP2 JUMP JUMPDEST PUSH1 0x5 PUSH1 0x20 MSTORE PUSH1 0x0 SWAP1 DUP2 MSTORE PUSH1 0x40 SWAP1 KECCAK256 SLOAD PUSH1 0x1 PUSH1 0x1 PUSH1 0xA0 SHL SUB AND DUP2 JUMP JUMPDEST PUSH2 0x1C52 PUSH1 0x0 DUP1 MLOAD PUSH1 0x20 PUSH2 0x2BF5 DUP4 CODECOPY DUP2 MLOAD SWAP2 MSTORE PUSH2 0x470 PUSH2 0x1D2D JUMP JUMPDEST DUP1 PUSH2 0x1C65 JUMPI POP PUSH2 0x1C65 PUSH1 0x0 PUSH2 0x470 PUSH2 0x1D2D JUMP JUMPDEST PUSH2 0x1C81 JUMPI PUSH1 0x40 MLOAD PUSH3 0x461BCD PUSH1 0xE5 SHL DUP2 MSTORE PUSH1 0x4 ADD PUSH2 0x59B SWAP1 PUSH2 0x28C6 JUMP JUMPDEST PUSH1 0x1 PUSH1 0x1 PUSH1 0xA0 SHL SUB AND PUSH1 0x0 SWAP1 DUP2 MSTORE PUSH1 0x4 PUSH1 0x20 MSTORE PUSH1 0x40 DUP2 KECCAK256 SSTORE JUMP JUMPDEST PUSH2 0x1CA8 PUSH1 0x0 PUSH2 0x470 PUSH2 0x1D2D JUMP JUMPDEST PUSH2 0x1CC4 JUMPI PUSH1 0x40 MLOAD PUSH3 0x461BCD PUSH1 0xE5 SHL DUP2 MSTORE PUSH1 0x4 ADD PUSH2 0x59B SWAP1 PUSH2 0x28FD JUMP JUMPDEST PUSH1 0x9 SSTORE JUMP JUMPDEST PUSH2 0x1CD6 PUSH1 0x0 PUSH2 0x470 PUSH2 0x1D2D JUMP JUMPDEST PUSH2 0x1CF2 JUMPI PUSH1 0x40 MLOAD PUSH3 0x461BCD PUSH1 0xE5 SHL DUP2 MSTORE PUSH1 0x4 ADD PUSH2 0x59B SWAP1 PUSH2 0x28FD JUMP JUMPDEST PUSH1 0x1 PUSH1 0x1 PUSH1 0xA0 SHL SUB SWAP1 SWAP2 AND PUSH1 0x0 SWAP1 DUP2 MSTORE PUSH1 0x6 PUSH1 0x20 MSTORE PUSH1 0x40 SWAP1 KECCAK256 SSTORE JUMP JUMPDEST PUSH2 0x9A4 DUP3 DUP3 PUSH2 0x1EF0 JUMP JUMPDEST PUSH1 0x0 PUSH2 0xA6A DUP4 PUSH1 0x1 PUSH1 0x1 PUSH1 0xA0 SHL SUB DUP5 AND PUSH2 0x1F75 JUMP JUMPDEST CALLER SWAP1 JUMP JUMPDEST PUSH1 0x0 PUSH1 0x1 PUSH1 0x1 PUSH1 0xE0 SHL SUB NOT DUP3 AND PUSH4 0x7965DB0B PUSH1 0xE0 SHL EQ DUP1 PUSH2 0x841 JUMPI POP PUSH2 0x841 DUP3 PUSH2 0x1FBF JUMP JUMPDEST PUSH2 0xA7D DUP3 DUP3 PUSH2 0x1D0E JUMP JUMPDEST PUSH1 0x9 SLOAD PUSH1 0x8 SLOAD PUSH2 0x1D70 SWAP2 SWAP1 PUSH2 0x2AF2 JUMP JUMPDEST TIMESTAMP GT ISZERO PUSH2 0x1D7F JUMPI PUSH2 0x1D7F PUSH2 0x1E01 JUMP JUMPDEST JUMP JUMPDEST PUSH2 0x1D8A DUP3 PUSH2 0x9B4 JUMP JUMPDEST PUSH2 0x1D9B DUP2 PUSH2 0x1D96 PUSH2 0x1D2D JUMP JUMPDEST PUSH2 0x1FD8 JUMP JUMPDEST PUSH2 0x8F9 DUP4 DUP4 PUSH2 0x1EF0 JUMP JUMPDEST PUSH2 0x1DAD PUSH2 0x1D2D JUMP JUMPDEST PUSH1 0x1 PUSH1 0x1 PUSH1 0xA0 SHL SUB AND DUP2 PUSH1 0x1 PUSH1 0x1 PUSH1 0xA0 SHL SUB AND EQ PUSH2 0x1DDD JUMPI PUSH1 0x40 MLOAD PUSH3 0x461BCD PUSH1 0xE5 SHL DUP2 MSTORE PUSH1 0x4 ADD PUSH2 0x59B SWAP1 PUSH2 0x2A4D JUMP JUMPDEST PUSH2 0x9A4 DUP3 DUP3 PUSH2 0x203C JUMP JUMPDEST PUSH1 0x0 PUSH2 0xA6A DUP4 PUSH1 0x1 PUSH1 0x1 PUSH1 0xA0 SHL SUB DUP5 AND PUSH2 0x20BF JUMP JUMPDEST EXTCODESIZE ISZERO SWAP1 JUMP JUMPDEST TIMESTAMP PUSH1 0x8 SSTORE PUSH1 0x7 SLOAD PUSH1 0x10 DUP1 SLOAD PUSH1 0x0 SWAP1 PUSH2 0x1E1A SWAP1 DUP5 SWAP1 PUSH2 0x2B49 JUMP JUMPDEST SWAP1 SWAP2 SSTORE POP POP PUSH1 0x7 SLOAD PUSH2 0x1E2E SWAP1 PUSH1 0x2 SWAP1 PUSH2 0x2B0A JUMP JUMPDEST PUSH1 0xF PUSH1 0x0 DUP3 DUP3 SLOAD PUSH2 0x1E3F SWAP2 SWAP1 PUSH2 0x2AF2 JUMP JUMPDEST SWAP1 SWAP2 SSTORE POP POP PUSH1 0x0 PUSH1 0x7 SSTORE PUSH1 0x10 SLOAD PUSH1 0xF SLOAD PUSH2 0x1E61 SWAP1 PUSH8 0xDE0B6B3A7640000 PUSH2 0x2B2A JUMP JUMPDEST PUSH2 0x1E6B SWAP2 SWAP1 PUSH2 0x2B0A JUMP JUMPDEST PUSH2 0x1E7D SWAP1 PUSH8 0xDE0B6B3A7640000 PUSH2 0x2AF2 JUMP JUMPDEST PUSH1 0x2 DUP2 SWAP1 SSTORE PUSH1 0x40 MLOAD PUSH32 0x4DBE4840D7465BD162F67814CEA0B519567A2E0E578BCDE61E7F4CED361E5A3D SWAP2 PUSH2 0x1EB0 SWAP2 PUSH2 0x2827 JUMP JUMPDEST PUSH1 0x40 MLOAD DUP1 SWAP2 SUB SWAP1 LOG1 JUMP JUMPDEST PUSH1 0x0 PUSH2 0xA6A DUP4 DUP4 PUSH2 0x21DC JUMP JUMPDEST PUSH1 0x0 PUSH2 0x841 DUP3 PUSH2 0x2214 JUMP JUMPDEST PUSH2 0x1EDA DUP3 PUSH2 0x9B4 JUMP JUMPDEST PUSH2 0x1EE6 DUP2 PUSH2 0x1D96 PUSH2 0x1D2D JUMP JUMPDEST PUSH2 0x8F9 DUP4 DUP4 PUSH2 0x203C JUMP JUMPDEST PUSH2 0x1EFA DUP3 DUP3 PUSH2 0x1AF6 JUMP JUMPDEST PUSH2 0x9A4 JUMPI PUSH1 0x0 DUP3 DUP2 MSTORE PUSH1 0x20 DUP2 DUP2 MSTORE PUSH1 0x40 DUP1 DUP4 KECCAK256 PUSH1 0x1 PUSH1 0x1 PUSH1 0xA0 SHL SUB DUP6 AND DUP5 MSTORE SWAP1 SWAP2 MSTORE SWAP1 KECCAK256 DUP1 SLOAD PUSH1 0xFF NOT AND PUSH1 0x1 OR SWAP1 SSTORE PUSH2 0x1F31 PUSH2 0x1D2D JUMP JUMPDEST PUSH1 0x1 PUSH1 0x1 PUSH1 0xA0 SHL SUB AND DUP2 PUSH1 0x1 PUSH1 0x1 PUSH1 0xA0 SHL SUB AND DUP4 PUSH32 0x2F8788117E7EFF1D82E926EC794901D17C78024A50270940304540A733656F0D PUSH1 0x40 MLOAD PUSH1 0x40 MLOAD DUP1 SWAP2 SUB SWAP1 LOG4 POP POP JUMP JUMPDEST PUSH1 0x0 PUSH2 0x1F81 DUP4 DUP4 PUSH2 0x2218 JUMP JUMPDEST PUSH2 0x1FB7 JUMPI POP DUP2 SLOAD PUSH1 0x1 DUP2 DUP2 ADD DUP5 SSTORE PUSH1 0x0 DUP5 DUP2 MSTORE PUSH1 0x20 DUP1 DUP3 KECCAK256 SWAP1 SWAP4 ADD DUP5 SWAP1 SSTORE DUP5 SLOAD DUP5 DUP3 MSTORE DUP3 DUP7 ADD SWAP1 SWAP4 MSTORE PUSH1 0x40 SWAP1 KECCAK256 SWAP2 SWAP1 SWAP2 SSTORE PUSH2 0xA6D JUMP JUMPDEST POP PUSH1 0x0 PUSH2 0xA6D JUMP JUMPDEST PUSH1 0x1 PUSH1 0x1 PUSH1 0xE0 SHL SUB NOT DUP2 AND PUSH4 0x1FFC9A7 PUSH1 0xE0 SHL EQ SWAP2 SWAP1 POP JUMP JUMPDEST PUSH2 0x1FE2 DUP3 DUP3 PUSH2 0x1AF6 JUMP JUMPDEST PUSH2 0x9A4 JUMPI PUSH2 0x1FFA DUP2 PUSH1 0x1 PUSH1 0x1 PUSH1 0xA0 SHL SUB AND PUSH1 0x14 PUSH2 0x2230 JUMP JUMPDEST PUSH2 0x2005 DUP4 PUSH1 0x20 PUSH2 0x2230 JUMP JUMPDEST PUSH1 0x40 MLOAD PUSH1 0x20 ADD PUSH2 0x2016 SWAP3 SWAP2 SWAP1 PUSH2 0x26EF JUMP JUMPDEST PUSH1 0x40 DUP1 MLOAD PUSH1 0x1F NOT DUP2 DUP5 SUB ADD DUP2 MSTORE SWAP1 DUP3 SWAP1 MSTORE PUSH3 0x461BCD PUSH1 0xE5 SHL DUP3 MSTORE PUSH2 0x59B SWAP2 PUSH1 0x4 ADD PUSH2 0x2830 JUMP JUMPDEST PUSH2 0x2046 DUP3 DUP3 PUSH2 0x1AF6 JUMP JUMPDEST ISZERO PUSH2 0x9A4 JUMPI PUSH1 0x0 DUP3 DUP2 MSTORE PUSH1 0x20 DUP2 DUP2 MSTORE PUSH1 0x40 DUP1 DUP4 KECCAK256 PUSH1 0x1 PUSH1 0x1 PUSH1 0xA0 SHL SUB DUP6 AND DUP5 MSTORE SWAP1 SWAP2 MSTORE SWAP1 KECCAK256 DUP1 SLOAD PUSH1 0xFF NOT AND SWAP1 SSTORE PUSH2 0x207B PUSH2 0x1D2D JUMP JUMPDEST PUSH1 0x1 PUSH1 0x1 PUSH1 0xA0 SHL SUB AND DUP2 PUSH1 0x1 PUSH1 0x1 PUSH1 0xA0 SHL SUB AND DUP4 PUSH32 0xF6391F5C32D9C69D2A47EA670B442974B53935D1EDC7FD64EB21E047A839171B PUSH1 0x40 MLOAD PUSH1 0x40 MLOAD DUP1 SWAP2 SUB SWAP1 LOG4 POP POP JUMP JUMPDEST PUSH1 0x0 DUP2 DUP2 MSTORE PUSH1 0x1 DUP4 ADD PUSH1 0x20 MSTORE PUSH1 0x40 DUP2 KECCAK256 SLOAD DUP1 ISZERO PUSH2 0x21D2 JUMPI PUSH1 0x0 PUSH2 0x20E3 PUSH1 0x1 DUP4 PUSH2 0x2B49 JUMP JUMPDEST DUP6 SLOAD SWAP1 SWAP2 POP PUSH1 0x0 SWAP1 PUSH2 0x20F7 SWAP1 PUSH1 0x1 SWAP1 PUSH2 0x2B49 JUMP JUMPDEST SWAP1 POP DUP2 DUP2 EQ PUSH2 0x2178 JUMPI PUSH1 0x0 DUP7 PUSH1 0x0 ADD DUP3 DUP2 SLOAD DUP2 LT PUSH2 0x2125 JUMPI PUSH4 0x4E487B71 PUSH1 0xE0 SHL PUSH1 0x0 MSTORE PUSH1 0x32 PUSH1 0x4 MSTORE PUSH1 0x24 PUSH1 0x0 REVERT JUMPDEST SWAP1 PUSH1 0x0 MSTORE PUSH1 0x20 PUSH1 0x0 KECCAK256 ADD SLOAD SWAP1 POP DUP1 DUP8 PUSH1 0x0 ADD DUP5 DUP2 SLOAD DUP2 LT PUSH2 0x2156 JUMPI PUSH4 0x4E487B71 PUSH1 0xE0 SHL PUSH1 0x0 MSTORE PUSH1 0x32 PUSH1 0x4 MSTORE PUSH1 0x24 PUSH1 0x0 REVERT JUMPDEST PUSH1 0x0 SWAP2 DUP3 MSTORE PUSH1 0x20 DUP1 DUP4 KECCAK256 SWAP1 SWAP2 ADD SWAP3 SWAP1 SWAP3 SSTORE SWAP2 DUP3 MSTORE PUSH1 0x1 DUP9 ADD SWAP1 MSTORE PUSH1 0x40 SWAP1 KECCAK256 DUP4 SWAP1 SSTORE JUMPDEST DUP6 SLOAD DUP7 SWAP1 DUP1 PUSH2 0x2197 JUMPI PUSH4 0x4E487B71 PUSH1 0xE0 SHL PUSH1 0x0 MSTORE PUSH1 0x31 PUSH1 0x4 MSTORE PUSH1 0x24 PUSH1 0x0 REVERT JUMPDEST PUSH1 0x1 SWAP1 SUB DUP2 DUP2 SWAP1 PUSH1 0x0 MSTORE PUSH1 0x20 PUSH1 0x0 KECCAK256 ADD PUSH1 0x0 SWAP1 SSTORE SWAP1 SSTORE DUP6 PUSH1 0x1 ADD PUSH1 0x0 DUP7 DUP2 MSTORE PUSH1 0x20 ADD SWAP1 DUP2 MSTORE PUSH1 0x20 ADD PUSH1 0x0 KECCAK256 PUSH1 0x0 SWAP1 SSTORE PUSH1 0x1 SWAP4 POP POP POP POP PUSH2 0xA6D JUMP JUMPDEST PUSH1 0x0 SWAP2 POP POP PUSH2 0xA6D JUMP JUMPDEST PUSH1 0x0 DUP3 PUSH1 0x0 ADD DUP3 DUP2 SLOAD DUP2 LT PUSH2 0x2201 JUMPI PUSH4 0x4E487B71 PUSH1 0xE0 SHL PUSH1 0x0 MSTORE PUSH1 0x32 PUSH1 0x4 MSTORE PUSH1 0x24 PUSH1 0x0 REVERT JUMPDEST SWAP1 PUSH1 0x0 MSTORE PUSH1 0x20 PUSH1 0x0 KECCAK256 ADD SLOAD SWAP1 POP SWAP3 SWAP2 POP POP JUMP JUMPDEST SLOAD SWAP1 JUMP JUMPDEST PUSH1 0x0 SWAP1 DUP2 MSTORE PUSH1 0x1 SWAP2 SWAP1 SWAP2 ADD PUSH1 0x20 MSTORE PUSH1 0x40 SWAP1 KECCAK256 SLOAD ISZERO ISZERO SWAP1 JUMP JUMPDEST PUSH1 0x60 PUSH1 0x0 PUSH2 0x223F DUP4 PUSH1 0x2 PUSH2 0x2B2A JUMP JUMPDEST PUSH2 0x224A SWAP1 PUSH1 0x2 PUSH2 0x2AF2 JUMP JUMPDEST PUSH8 0xFFFFFFFFFFFFFFFF DUP2 GT ISZERO PUSH2 0x2270 JUMPI PUSH4 0x4E487B71 PUSH1 0xE0 SHL PUSH1 0x0 MSTORE PUSH1 0x41 PUSH1 0x4 MSTORE PUSH1 0x24 PUSH1 0x0 REVERT JUMPDEST PUSH1 0x40 MLOAD SWAP1 DUP1 DUP3 MSTORE DUP1 PUSH1 0x1F ADD PUSH1 0x1F NOT AND PUSH1 0x20 ADD DUP3 ADD PUSH1 0x40 MSTORE DUP1 ISZERO PUSH2 0x229A JUMPI PUSH1 0x20 DUP3 ADD DUP2 DUP1 CALLDATASIZE DUP4 CALLDATACOPY ADD SWAP1 POP JUMPDEST POP SWAP1 POP PUSH1 0x3 PUSH1 0xFC SHL DUP2 PUSH1 0x0 DUP2 MLOAD DUP2 LT PUSH2 0x22C3 JUMPI PUSH4 0x4E487B71 PUSH1 0xE0 SHL PUSH1 0x0 MSTORE PUSH1 0x32 PUSH1 0x4 MSTORE PUSH1 0x24 PUSH1 0x0 REVERT JUMPDEST PUSH1 0x20 ADD ADD SWAP1 PUSH1 0x1 PUSH1 0x1 PUSH1 0xF8 SHL SUB NOT AND SWAP1 DUP2 PUSH1 0x0 BYTE SWAP1 MSTORE8 POP PUSH1 0xF PUSH1 0xFB SHL DUP2 PUSH1 0x1 DUP2 MLOAD DUP2 LT PUSH2 0x2300 JUMPI PUSH4 0x4E487B71 PUSH1 0xE0 SHL PUSH1 0x0 MSTORE PUSH1 0x32 PUSH1 0x4 MSTORE PUSH1 0x24 PUSH1 0x0 REVERT JUMPDEST PUSH1 0x20 ADD ADD SWAP1 PUSH1 0x1 PUSH1 0x1 PUSH1 0xF8 SHL SUB NOT AND SWAP1 DUP2 PUSH1 0x0 BYTE SWAP1 MSTORE8 POP PUSH1 0x0 PUSH2 0x2324 DUP5 PUSH1 0x2 PUSH2 0x2B2A JUMP JUMPDEST PUSH2 0x232F SWAP1 PUSH1 0x1 PUSH2 0x2AF2 JUMP JUMPDEST SWAP1 POP JUMPDEST PUSH1 0x1 DUP2 GT ISZERO PUSH2 0x23C3 JUMPI PUSH16 0x181899199A1A9B1B9C1CB0B131B232B3 PUSH1 0x81 SHL DUP6 PUSH1 0xF AND PUSH1 0x10 DUP2 LT PUSH2 0x2371 JUMPI PUSH4 0x4E487B71 PUSH1 0xE0 SHL PUSH1 0x0 MSTORE PUSH1 0x32 PUSH1 0x4 MSTORE PUSH1 0x24 PUSH1 0x0 REVERT JUMPDEST BYTE PUSH1 0xF8 SHL DUP3 DUP3 DUP2 MLOAD DUP2 LT PUSH2 0x2395 JUMPI PUSH4 0x4E487B71 PUSH1 0xE0 SHL PUSH1 0x0 MSTORE PUSH1 0x32 PUSH1 0x4 MSTORE PUSH1 0x24 PUSH1 0x0 REVERT JUMPDEST PUSH1 0x20 ADD ADD SWAP1 PUSH1 0x1 PUSH1 0x1 PUSH1 0xF8 SHL SUB NOT AND SWAP1 DUP2 PUSH1 0x0 BYTE SWAP1 MSTORE8 POP PUSH1 0x4 SWAP5 SWAP1 SWAP5 SHR SWAP4 PUSH2 0x23BC DUP2 PUSH2 0x2B8C JUMP JUMPDEST SWAP1 POP PUSH2 0x2332 JUMP JUMPDEST POP DUP4 ISZERO PUSH2 0xA6A JUMPI PUSH1 0x40 MLOAD PUSH3 0x461BCD PUSH1 0xE5 SHL DUP2 MSTORE PUSH1 0x4 ADD PUSH2 0x59B SWAP1 PUSH2 0x2863 JUMP JUMPDEST PUSH1 0x40 MLOAD DUP1 PUSH1 0x80 ADD PUSH1 0x40 MSTORE DUP1 PUSH1 0x0 DUP2 MSTORE PUSH1 0x20 ADD PUSH1 0x0 DUP2 MSTORE PUSH1 0x20 ADD PUSH1 0x0 DUP2 MSTORE PUSH1 0x20 ADD PUSH1 0x0 DUP2 MSTORE POP SWAP1 JUMP JUMPDEST DUP1 CALLDATALOAD PUSH1 0x1 PUSH1 0x1 PUSH1 0xA0 SHL SUB DUP2 AND DUP2 EQ PUSH2 0x844 JUMPI PUSH1 0x0 DUP1 REVERT JUMPDEST PUSH1 0x0 DUP1 DUP4 PUSH1 0x1F DUP5 ADD SLT PUSH2 0x2432 JUMPI DUP2 DUP3 REVERT JUMPDEST POP DUP2 CALLDATALOAD PUSH8 0xFFFFFFFFFFFFFFFF DUP2 GT ISZERO PUSH2 0x2449 JUMPI DUP2 DUP3 REVERT JUMPDEST PUSH1 0x20 DUP4 ADD SWAP2 POP DUP4 PUSH1 0x20 DUP1 DUP4 MUL DUP6 ADD ADD GT ISZERO PUSH2 0x2463 JUMPI PUSH1 0x0 DUP1 REVERT JUMPDEST SWAP3 POP SWAP3 SWAP1 POP JUMP JUMPDEST PUSH1 0x0 PUSH1 0x20 DUP3 DUP5 SUB SLT ISZERO PUSH2 0x247B JUMPI DUP1 DUP2 REVERT JUMPDEST PUSH2 0xA6A DUP3 PUSH2 0x240A JUMP JUMPDEST PUSH1 0x0 DUP1 PUSH1 0x40 DUP4 DUP6 SUB SLT ISZERO PUSH2 0x2496 JUMPI DUP1 DUP2 REVERT JUMPDEST PUSH2 0x249F DUP4 PUSH2 0x240A JUMP JUMPDEST SWAP2 POP PUSH2 0x24AD PUSH1 0x20 DUP5 ADD PUSH2 0x240A JUMP JUMPDEST SWAP1 POP SWAP3 POP SWAP3 SWAP1 POP JUMP JUMPDEST PUSH1 0x0 DUP1 PUSH1 0x0 PUSH1 0x40 DUP5 DUP7 SUB SLT ISZERO PUSH2 0x24CA JUMPI DUP1 DUP2 REVERT JUMPDEST PUSH2 0x24D3 DUP5 PUSH2 0x240A JUMP JUMPDEST SWAP3 POP PUSH1 0x20 DUP5 ADD CALLDATALOAD PUSH8 0xFFFFFFFFFFFFFFFF DUP2 GT ISZERO PUSH2 0x24EE JUMPI DUP2 DUP3 REVERT JUMPDEST PUSH2 0x24FA DUP7 DUP3 DUP8 ADD PUSH2 0x2421 JUMP JUMPDEST SWAP5 SWAP8 SWAP1 SWAP7 POP SWAP4 SWAP5 POP POP POP POP JUMP JUMPDEST PUSH1 0x0 DUP1 PUSH1 0x40 DUP4 DUP6 SUB SLT ISZERO PUSH2 0x2519 JUMPI DUP2 DUP3 REVERT JUMPDEST PUSH2 0x2522 DUP4 PUSH2 0x240A JUMP JUMPDEST SWAP5 PUSH1 0x20 SWAP4 SWAP1 SWAP4 ADD CALLDATALOAD SWAP4 POP POP POP JUMP JUMPDEST PUSH1 0x0 DUP1 PUSH1 0x20 DUP4 DUP6 SUB SLT ISZERO PUSH2 0x2542 JUMPI DUP2 DUP3 REVERT JUMPDEST DUP3 CALLDATALOAD PUSH8 0xFFFFFFFFFFFFFFFF DUP2 GT ISZERO PUSH2 0x2558 JUMPI DUP3 DUP4 REVERT JUMPDEST PUSH2 0x2564 DUP6 DUP3 DUP7 ADD PUSH2 0x2421 JUMP JUMPDEST SWAP1 SWAP7 SWAP1 SWAP6 POP SWAP4 POP POP POP POP JUMP JUMPDEST PUSH1 0x0 DUP1 PUSH1 0x20 DUP4 DUP6 SUB SLT ISZERO PUSH2 0x2582 JUMPI DUP2 DUP3 REVERT JUMPDEST DUP3 CALLDATALOAD PUSH8 0xFFFFFFFFFFFFFFFF DUP1 DUP3 GT ISZERO PUSH2 0x2599 JUMPI DUP4 DUP5 REVERT JUMPDEST DUP2 DUP6 ADD SWAP2 POP DUP6 PUSH1 0x1F DUP4 ADD SLT PUSH2 0x25AC JUMPI DUP4 DUP5 REVERT JUMPDEST DUP2 CALLDATALOAD DUP2 DUP2 GT ISZERO PUSH2 0x25BA JUMPI DUP5 DUP6 REVERT JUMPDEST DUP7 PUSH1 0x20 PUSH1 0x40 DUP4 MUL DUP6 ADD ADD GT ISZERO PUSH2 0x25CE JUMPI DUP5 DUP6 REVERT JUMPDEST PUSH1 0x20 SWAP3 SWAP1 SWAP3 ADD SWAP7 SWAP2 SWAP6 POP SWAP1 SWAP4 POP POP POP POP JUMP JUMPDEST PUSH1 0x0 DUP1 PUSH1 0x0 PUSH1 0x60 DUP5 DUP7 SUB SLT ISZERO PUSH2 0x25F4 JUMPI DUP3 DUP4 REVERT JUMPDEST DUP4 CALLDATALOAD DUP1 ISZERO ISZERO DUP2 EQ PUSH2 0x2603 JUMPI DUP4 DUP5 REVERT JUMPDEST SWAP3 POP PUSH2 0x2611 PUSH1 0x20 DUP6 ADD PUSH2 0x240A JUMP JUMPDEST SWAP2 POP PUSH1 0x40 DUP5 ADD CALLDATALOAD SWAP1 POP SWAP3 POP SWAP3 POP SWAP3 JUMP JUMPDEST PUSH1 0x0 PUSH1 0x20 DUP3 DUP5 SUB SLT ISZERO PUSH2 0x2632 JUMPI DUP1 DUP2 REVERT JUMPDEST POP CALLDATALOAD SWAP2 SWAP1 POP JUMP JUMPDEST PUSH1 0x0 DUP1 PUSH1 0x40 DUP4 DUP6 SUB SLT ISZERO PUSH2 0x264B JUMPI DUP2 DUP3 REVERT JUMPDEST DUP3 CALLDATALOAD SWAP2 POP PUSH2 0x24AD PUSH1 0x20 DUP5 ADD PUSH2 0x240A JUMP JUMPDEST PUSH1 0x0 DUP1 PUSH1 0x40 DUP4 DUP6 SUB SLT ISZERO PUSH2 0x266D JUMPI DUP2 DUP3 REVERT JUMPDEST POP POP DUP1 CALLDATALOAD SWAP3 PUSH1 0x20 SWAP1 SWAP2 ADD CALLDATALOAD SWAP2 POP JUMP JUMPDEST PUSH1 0x0 PUSH1 0x20 DUP3 DUP5 SUB SLT ISZERO PUSH2 0x268D JUMPI DUP1 DUP2 REVERT JUMPDEST DUP2 CALLDATALOAD PUSH1 0x1 PUSH1 0x1 PUSH1 0xE0 SHL SUB NOT DUP2 AND DUP2 EQ PUSH2 0xA6A JUMPI DUP2 DUP3 REVERT JUMPDEST PUSH1 0x0 PUSH1 0xA0 DUP3 DUP5 SUB SLT ISZERO PUSH2 0xA68 JUMPI DUP1 DUP2 REVERT JUMPDEST PUSH1 0x0 DUP1 PUSH1 0x0 DUP1 PUSH1 0x0 PUSH1 0xA0 DUP7 DUP9 SUB SLT ISZERO PUSH2 0x26CC JUMPI DUP1 DUP2 REVERT JUMPDEST POP POP DUP4 CALLDATALOAD SWAP6 PUSH1 0x20 DUP6 ADD CALLDATALOAD SWAP6 POP PUSH1 0x40 DUP6 ADD CALLDATALOAD SWAP5 PUSH1 0x60 DUP2 ADD CALLDATALOAD SWAP5 POP PUSH1 0x80 ADD CALLDATALOAD SWAP3 POP SWAP1 POP JUMP JUMPDEST PUSH1 0x0 PUSH32 0x416363657373436F6E74726F6C3A206163636F756E7420000000000000000000 DUP3 MSTORE DUP4 MLOAD PUSH2 0x2727 DUP2 PUSH1 0x17 DUP6 ADD PUSH1 0x20 DUP9 ADD PUSH2 0x2B60 JUMP JUMPDEST PUSH17 0x1034B99036B4B9B9B4B733903937B6329 PUSH1 0x7D SHL PUSH1 0x17 SWAP2 DUP5 ADD SWAP2 DUP3 ADD MSTORE DUP4 MLOAD PUSH2 0x2758 DUP2 PUSH1 0x28 DUP5 ADD PUSH1 0x20 DUP9 ADD PUSH2 0x2B60 JUMP JUMPDEST ADD PUSH1 0x28 ADD SWAP5 SWAP4 POP POP POP POP JUMP JUMPDEST PUSH1 0x1 PUSH1 0x1 PUSH1 0xA0 SHL SUB SWAP2 SWAP1 SWAP2 AND DUP2 MSTORE PUSH1 0x20 ADD SWAP1 JUMP JUMPDEST PUSH1 0x1 PUSH1 0x1 PUSH1 0xA0 SHL SUB SWAP3 DUP4 AND DUP2 MSTORE SWAP2 AND PUSH1 0x20 DUP3 ADD MSTORE PUSH1 0x40 ADD SWAP1 JUMP JUMPDEST PUSH1 0x1 PUSH1 0x1 PUSH1 0xA0 SHL SUB SWAP4 DUP5 AND DUP2 MSTORE SWAP2 SWAP1 SWAP3 AND PUSH1 0x20 DUP3 ADD MSTORE PUSH1 0x40 DUP2 ADD SWAP2 SWAP1 SWAP2 MSTORE PUSH1 0x60 ADD SWAP1 JUMP JUMPDEST PUSH1 0x1 PUSH1 0x1 PUSH1 0xA0 SHL SUB SWAP3 SWAP1 SWAP3 AND DUP3 MSTORE PUSH1 0x20 DUP3 ADD MSTORE PUSH1 0x40 ADD SWAP1 JUMP JUMPDEST PUSH1 0x20 DUP1 DUP3 MSTORE DUP3 MLOAD DUP3 DUP3 ADD DUP2 SWAP1 MSTORE PUSH1 0x0 SWAP2 SWAP1 DUP5 DUP3 ADD SWAP1 PUSH1 0x40 DUP6 ADD SWAP1 DUP5 JUMPDEST DUP2 DUP2 LT ISZERO PUSH2 0x2810 JUMPI DUP4 MLOAD PUSH1 0x1 PUSH1 0x1 PUSH1 0xA0 SHL SUB AND DUP4 MSTORE SWAP3 DUP5 ADD SWAP3 SWAP2 DUP5 ADD SWAP2 PUSH1 0x1 ADD PUSH2 0x27EB JUMP JUMPDEST POP SWAP1 SWAP7 SWAP6 POP POP POP POP POP POP JUMP JUMPDEST SWAP1 ISZERO ISZERO DUP2 MSTORE PUSH1 0x20 ADD SWAP1 JUMP JUMPDEST SWAP1 DUP2 MSTORE PUSH1 0x20 ADD SWAP1 JUMP JUMPDEST PUSH1 0x0 PUSH1 0x20 DUP3 MSTORE DUP3 MLOAD DUP1 PUSH1 0x20 DUP5 ADD MSTORE PUSH2 0x284F DUP2 PUSH1 0x40 DUP6 ADD PUSH1 0x20 DUP8 ADD PUSH2 0x2B60 JUMP JUMPDEST PUSH1 0x1F ADD PUSH1 0x1F NOT AND SWAP2 SWAP1 SWAP2 ADD PUSH1 0x40 ADD SWAP3 SWAP2 POP POP JUMP JUMPDEST PUSH1 0x20 DUP1 DUP3 MSTORE DUP2 DUP2 ADD MSTORE PUSH32 0x537472696E67733A20686578206C656E67746820696E73756666696369656E74 PUSH1 0x40 DUP3 ADD MSTORE PUSH1 0x60 ADD SWAP1 JUMP JUMPDEST PUSH1 0x20 DUP1 DUP3 MSTORE PUSH1 0x14 SWAP1 DUP3 ADD MSTORE PUSH20 0x4E6F426F7473546563683A202162616C616E6365 PUSH1 0x60 SHL PUSH1 0x40 DUP3 ADD MSTORE PUSH1 0x60 ADD SWAP1 JUMP JUMPDEST PUSH1 0x20 DUP1 DUP3 MSTORE PUSH1 0x18 SWAP1 DUP3 ADD MSTORE PUSH32 0x4E6F426F7473546563683A2021524F4C455F504152454E540000000000000000 PUSH1 0x40 DUP3 ADD MSTORE PUSH1 0x60 ADD SWAP1 JUMP JUMPDEST PUSH1 0x20 DUP1 DUP3 MSTORE PUSH1 0x17 SWAP1 DUP3 ADD MSTORE PUSH32 0x4E6F426F7473546563683A2021524F4C455F41444D494E000000000000000000 PUSH1 0x40 DUP3 ADD MSTORE PUSH1 0x60 ADD SWAP1 JUMP JUMPDEST PUSH1 0x20 DUP1 DUP3 MSTORE PUSH1 0x13 SWAP1 DUP3 ADD MSTORE PUSH19 0x139BD09BDD1CD51958DA0E8808585B5BDD5B9D PUSH1 0x6A SHL PUSH1 0x40 DUP3 ADD MSTORE PUSH1 0x60 ADD SWAP1 JUMP JUMPDEST PUSH1 0x20 DUP1 DUP3 MSTORE PUSH1 0x15 SWAP1 DUP3 ADD MSTORE PUSH21 0x2737A137BA39AA32B1B41D1010B9B2B6332FB932B3 PUSH1 0x59 SHL PUSH1 0x40 DUP3 ADD MSTORE PUSH1 0x60 ADD SWAP1 JUMP JUMPDEST PUSH1 0x20 DUP1 DUP3 MSTORE PUSH1 0x15 SWAP1 DUP3 ADD MSTORE PUSH21 0x139BD09BDD1CD51958DA0E880858DBDB9D1C9858DD PUSH1 0x5A SHL PUSH1 0x40 DUP3 ADD MSTORE PUSH1 0x60 ADD SWAP1 JUMP JUMPDEST PUSH1 0x20 DUP1 DUP3 MSTORE PUSH1 0x1B SWAP1 DUP3 ADD MSTORE PUSH32 0x4E6F426F7473546563683A20216163636F756E7442616C616E63650000000000 PUSH1 0x40 DUP3 ADD MSTORE PUSH1 0x60 ADD SWAP1 JUMP JUMPDEST PUSH1 0x20 DUP1 DUP3 MSTORE PUSH1 0x11 SWAP1 DUP3 ADD MSTORE PUSH17 0x2737A137BA39AA32B1B41D1010B9B2B633 PUSH1 0x79 SHL PUSH1 0x40 DUP3 ADD MSTORE PUSH1 0x60 ADD SWAP1 JUMP JUMPDEST PUSH1 0x20 DUP1 DUP3 MSTORE PUSH1 0x12 SWAP1 DUP3 ADD MSTORE PUSH18 0x2737A137BA39AA32B1B41D1010B43AB6B0B7 PUSH1 0x71 SHL PUSH1 0x40 DUP3 ADD MSTORE PUSH1 0x60 ADD SWAP1 JUMP JUMPDEST PUSH1 0x20 DUP1 DUP3 MSTORE PUSH1 0x2F SWAP1 DUP3 ADD MSTORE PUSH32 0x416363657373436F6E74726F6C3A2063616E206F6E6C792072656E6F756E6365 PUSH1 0x40 DUP3 ADD MSTORE PUSH15 0x103937B632B9903337B91039B2B633 PUSH1 0x89 SHL PUSH1 0x60 DUP3 ADD MSTORE PUSH1 0x80 ADD SWAP1 JUMP JUMPDEST PUSH1 0x20 DUP1 DUP3 MSTORE PUSH1 0x11 SWAP1 DUP3 ADD MSTORE PUSH17 0x2737A137BA39AA32B1B41D1010B13AB937 PUSH1 0x79 SHL PUSH1 0x40 DUP3 ADD MSTORE PUSH1 0x60 ADD SWAP1 JUMP JUMPDEST DUP2 MLOAD DUP2 MSTORE PUSH1 0x20 DUP1 DUP4 ADD MLOAD SWAP1 DUP3 ADD MSTORE PUSH1 0x40 DUP1 DUP4 ADD MLOAD SWAP1 DUP3 ADD MSTORE PUSH1 0x60 SWAP2 DUP3 ADD MLOAD SWAP2 DUP2 ADD SWAP2 SWAP1 SWAP2 MSTORE PUSH1 0x80 ADD SWAP1 JUMP JUMPDEST PUSH1 0x0 DUP3 NOT DUP3 GT ISZERO PUSH2 0x2B05 JUMPI PUSH2 0x2B05 PUSH2 0x2BBE JUMP JUMPDEST POP ADD SWAP1 JUMP JUMPDEST PUSH1 0x0 DUP3 PUSH2 0x2B25 JUMPI PUSH4 0x4E487B71 PUSH1 0xE0 SHL DUP2 MSTORE PUSH1 0x12 PUSH1 0x4 MSTORE PUSH1 0x24 DUP2 REVERT JUMPDEST POP DIV SWAP1 JUMP JUMPDEST PUSH1 0x0 DUP2 PUSH1 0x0 NOT DIV DUP4 GT DUP3 ISZERO ISZERO AND ISZERO PUSH2 0x2B44 JUMPI PUSH2 0x2B44 PUSH2 0x2BBE JUMP JUMPDEST POP MUL SWAP1 JUMP JUMPDEST PUSH1 0x0 DUP3 DUP3 LT ISZERO PUSH2 0x2B5B JUMPI PUSH2 0x2B5B PUSH2 0x2BBE JUMP JUMPDEST POP SUB SWAP1 JUMP JUMPDEST PUSH1 0x0 JUMPDEST DUP4 DUP2 LT ISZERO PUSH2 0x2B7B JUMPI DUP2 DUP2 ADD MLOAD DUP4 DUP3 ADD MSTORE PUSH1 0x20 ADD PUSH2 0x2B63 JUMP JUMPDEST DUP4 DUP2 GT ISZERO PUSH2 0xEA8 JUMPI POP POP PUSH1 0x0 SWAP2 ADD MSTORE JUMP JUMPDEST PUSH1 0x0 DUP2 PUSH2 0x2B9B JUMPI PUSH2 0x2B9B PUSH2 0x2BBE JUMP JUMPDEST POP PUSH1 0x0 NOT ADD SWAP1 JUMP JUMPDEST PUSH1 0x0 PUSH1 0x0 NOT DUP3 EQ ISZERO PUSH2 0x2BB7 JUMPI PUSH2 0x2BB7 PUSH2 0x2BBE JUMP JUMPDEST POP PUSH1 0x1 ADD SWAP1 JUMP JUMPDEST PUSH4 0x4E487B71 PUSH1 0xE0 SHL PUSH1 0x0 MSTORE PUSH1 0x11 PUSH1 0x4 MSTORE PUSH1 0x24 PUSH1 0x0 REVERT INVALID 0xD2 PUSH21 0x88087FCA693ADCF8B477EC0CA6CF5134D7F124FDC5 GT 0xEB 0x25 DUP6 0x22 0xC4 0xF 0xD7 0x2B 0xC8 PUSH10 0xE1D528FD91A06036810C PUSH32 0x25F082E044B8F0374C3D1D4B1FB5490DD90AEA264697066735822122021D5C4 0xE2 0xE2 0xBD 0x23 PUSH3 0x126725 DUP16 SHL PUSH15 0x14A076087F43E5EEC3B4A46391BC14 PUSH19 0x559A64736F6C63430008010033000000000000 "
		},
		"gasEstimates": {
			"creation": {
				"codeDepositCost": "2267600",
				"executionCost": "infinite",
				"totalCost": "infinite"
			},
			"external": {
				"ROLE_ADMIN()": "339",
				"ROLE_CUSTOM_TAX()": "273",
				"ROLE_EXCLUDE_FROM_BALANCE()": "294",
				"ROLE_PARENT()": "infinite",
				"ROLE_WHITELIST()": "infinite",
				"batchBurnAndReward()": "1163",
				"botTaxPercent()": "1074",
				"cachedMultiplier()": "1074",
				"chargeCustomTax(uint256,uint256)": "infinite",
				"chargeCustomTaxPreBurned(uint256)": "infinite",
				"clearReferrerRewards(address)": "infinite",
				"customTaxPercents(address)": "1389",
				"filterNonZeroReferrals(address[])": "infinite",
				"firstLevelRefPercent()": "1183",
				"getBalance(address,uint256)": "infinite",
				"getCachedReferrerRewards(address)": "infinite",
				"getCalculatedReferrerRewards(address,address[])": "infinite",
				"getRealBalance(address,uint256)": "infinite",
				"getRealBalanceVestingContract(uint256)": "infinite",
				"getRewardsBalance()": "infinite",
				"getRoleAdmin(bytes32)": "1248",
				"getRoleMember(bytes32,uint256)": "infinite",
				"getRoleMemberCount(bytes32)": "infinite",
				"getTotalSupply()": "infinite",
				"grantRole(bytes32,address)": "infinite",
				"grantRolesBulk((bytes32,address)[])": "infinite",
				"hasRole(bytes32,address)": "1450",
				"humanTaxPercent()": "1140",
				"prepareHumanAddressMintOrBurnRewardsAmounts(bool,address,uint256)": "infinite",
				"prepareTaxAmounts((address,address,uint256,uint256,uint256))": "infinite",
				"refTaxPercent()": "1117",
				"referralToReferrer(address)": "1386",
				"referrerBalances(address)": "1411",
				"registerReferral(address,address)": "infinite",
				"renounceRole(bytes32,address)": "infinite",
				"revokeRole(bytes32,address)": "infinite",
				"secondLevelRefPercent()": "1161",
				"supportsInterface(bytes4)": "infinite",
				"temporaryReferralAmounts(address)": "1345",
				"updateCustomTaxForAddress(address,uint256)": "21611",
				"updateReCachePeriod(uint256)": "21397",
				"updateReferrersRewards(address[])": "infinite",
				"updateTaxPercent(uint256,uint256,uint256,uint256,uint256)": "101508"
			},
			"internal": {
				"delayedUpdateCacheMultiplier()": "infinite",
				"forcedUpdateCacheMultiplier()": "infinite",
				"isContract(address)": "infinite",
				"isNotContract(address)": "715"
			}
		},
		"methodIdentifiers": {
			"ROLE_ADMIN()": "d391014b",
			"ROLE_CUSTOM_TAX()": "503a77ae",
			"ROLE_EXCLUDE_FROM_BALANCE()": "d590b71e",
			"ROLE_PARENT()": "5d8ec25f",
			"ROLE_WHITELIST()": "9e01e31c",
			"batchBurnAndReward()": "1336a98f",
			"botTaxPercent()": "1857b512",
			"cachedMultiplier()": "36177818",
			"chargeCustomTax(uint256,uint256)": "36098758",
			"chargeCustomTaxPreBurned(uint256)": "0ba2f5f9",
			"clearReferrerRewards(address)": "e3556819",
			"customTaxPercents(address)": "d415a82d",
			"filterNonZeroReferrals(address[])": "82e17b65",
			"firstLevelRefPercent()": "7b197233",
			"getBalance(address,uint256)": "2b04e840",
			"getCachedReferrerRewards(address)": "4abd991d",
			"getCalculatedReferrerRewards(address,address[])": "00245783",
			"getRealBalance(address,uint256)": "5cdba003",
			"getRealBalanceVestingContract(uint256)": "888651c2",
			"getRewardsBalance()": "858a135d",
			"getRoleAdmin(bytes32)": "248a9ca3",
			"getRoleMember(bytes32,uint256)": "9010d07c",
			"getRoleMemberCount(bytes32)": "ca15c873",
			"getTotalSupply()": "c4e41b22",
			"grantRole(bytes32,address)": "2f2ff15d",
			"grantRolesBulk((bytes32,address)[])": "03ed957f",
			"hasRole(bytes32,address)": "91d14854",
			"humanTaxPercent()": "87d1f05d",
			"prepareHumanAddressMintOrBurnRewardsAmounts(bool,address,uint256)": "42e58a63",
			"prepareTaxAmounts((address,address,uint256,uint256,uint256))": "815a61e0",
			"refTaxPercent()": "975ea108",
			"referralToReferrer(address)": "deaf0fa1",
			"referrerBalances(address)": "bc7096f1",
			"registerReferral(address,address)": "5603b9f9",
			"renounceRole(bytes32,address)": "36568abe",
			"revokeRole(bytes32,address)": "d547741f",
			"secondLevelRefPercent()": "b3830c8c",
			"supportsInterface(bytes4)": "01ffc9a7",
			"temporaryReferralAmounts(address)": "ccfe6222",
			"updateCustomTaxForAddress(address,uint256)": "fc087572",
			"updateReCachePeriod(uint256)": "ef357df1",
			"updateReferrersRewards(address[])": "3830551a",
			"updateTaxPercent(uint256,uint256,uint256,uint256,uint256)": "6bc833f3"
		}
	},
	"abi": [
		{
			"inputs": [],
			"stateMutability": "nonpayable",
			"type": "constructor"
		},
		{
			"anonymous": false,
			"inputs": [
				{
					"indexed": false,
					"internalType": "address",
					"name": "from",
					"type": "address"
				},
				{
					"indexed": false,
					"internalType": "address",
					"name": "to",
					"type": "address"
				},
				{
					"indexed": false,
					"internalType": "uint256",
					"name": "amount",
					"type": "uint256"
				}
			],
			"name": "BotTransactionDetected",
			"type": "event"
		},
		{
			"anonymous": false,
			"inputs": [
				{
					"indexed": false,
					"internalType": "uint256",
					"name": "newMultiplier",
					"type": "uint256"
				}
			],
			"name": "MultiplierUpdated",
			"type": "event"
		},
		{
			"anonymous": false,
			"inputs": [
				{
					"indexed": false,
					"internalType": "address",
					"name": "referral",
					"type": "address"
				},
				{
					"indexed": false,
					"internalType": "address",
					"name": "referrer",
					"type": "address"
				}
			],
			"name": "ReferralDeleted",
			"type": "event"
		},
		{
			"anonymous": false,
			"inputs": [
				{
					"indexed": false,
					"internalType": "address",
					"name": "referral",
					"type": "address"
				},
				{
					"indexed": false,
					"internalType": "address",
					"name": "referrer",
					"type": "address"
				}
			],
			"name": "ReferralRegistered",
			"type": "event"
		},
		{
			"anonymous": false,
			"inputs": [
				{
					"indexed": false,
					"internalType": "address",
					"name": "referral",
					"type": "address"
				},
				{
					"indexed": false,
					"internalType": "uint256",
					"name": "amount",
					"type": "uint256"
				}
			],
			"name": "ReferralRewardUpdated",
			"type": "event"
		},
		{
			"anonymous": false,
			"inputs": [
				{
					"indexed": true,
					"internalType": "bytes32",
					"name": "role",
					"type": "bytes32"
				},
				{
					"indexed": true,
					"internalType": "bytes32",
					"name": "previousAdminRole",
					"type": "bytes32"
				},
				{
					"indexed": true,
					"internalType": "bytes32",
					"name": "newAdminRole",
					"type": "bytes32"
				}
			],
			"name": "RoleAdminChanged",
			"type": "event"
		},
		{
			"anonymous": false,
			"inputs": [
				{
					"indexed": true,
					"internalType": "bytes32",
					"name": "role",
					"type": "bytes32"
				},
				{
					"indexed": true,
					"internalType": "address",
					"name": "account",
					"type": "address"
				},
				{
					"indexed": true,
					"internalType": "address",
					"name": "sender",
					"type": "address"
				}
			],
			"name": "RoleGranted",
			"type": "event"
		},
		{
			"anonymous": false,
			"inputs": [
				{
					"indexed": true,
					"internalType": "bytes32",
					"name": "role",
					"type": "bytes32"
				},
				{
					"indexed": true,
					"internalType": "address",
					"name": "account",
					"type": "address"
				},
				{
					"indexed": true,
					"internalType": "address",
					"name": "sender",
					"type": "address"
				}
			],
			"name": "RoleRevoked",
			"type": "event"
		},
		{
			"inputs": [],
			"name": "ROLE_ADMIN",
			"outputs": [
				{
					"internalType": "bytes32",
					"name": "",
					"type": "bytes32"
				}
			],
			"stateMutability": "view",
			"type": "function"
		},
		{
			"inputs": [],
			"name": "ROLE_CUSTOM_TAX",
			"outputs": [
				{
					"internalType": "bytes32",
					"name": "",
					"type": "bytes32"
				}
			],
			"stateMutability": "view",
			"type": "function"
		},
		{
			"inputs": [],
			"name": "ROLE_EXCLUDE_FROM_BALANCE",
			"outputs": [
				{
					"internalType": "bytes32",
					"name": "",
					"type": "bytes32"
				}
			],
			"stateMutability": "view",
			"type": "function"
		},
		{
			"inputs": [],
			"name": "ROLE_PARENT",
			"outputs": [
				{
					"internalType": "bytes32",
					"name": "",
					"type": "bytes32"
				}
			],
			"stateMutability": "view",
			"type": "function"
		},
		{
			"inputs": [],
			"name": "ROLE_WHITELIST",
			"outputs": [
				{
					"internalType": "bytes32",
					"name": "",
					"type": "bytes32"
				}
			],
			"stateMutability": "view",
			"type": "function"
		},
		{
			"inputs": [],
			"name": "batchBurnAndReward",
			"outputs": [
				{
					"internalType": "uint256",
					"name": "",
					"type": "uint256"
				}
			],
			"stateMutability": "view",
			"type": "function"
		},
		{
			"inputs": [],
			"name": "botTaxPercent",
			"outputs": [
				{
					"internalType": "uint256",
					"name": "",
					"type": "uint256"
				}
			],
			"stateMutability": "view",
			"type": "function"
		},
		{
			"inputs": [],
			"name": "cachedMultiplier",
			"outputs": [
				{
					"internalType": "uint256",
					"name": "",
					"type": "uint256"
				}
			],
			"stateMutability": "view",
			"type": "function"
		},
		{
			"inputs": [
				{
					"internalType": "uint256",
					"name": "taxAmount",
					"type": "uint256"
				},
				{
					"internalType": "uint256",
					"name": "accountBalance",
					"type": "uint256"
				}
			],
			"name": "chargeCustomTax",
			"outputs": [
				{
					"internalType": "uint256",
					"name": "",
					"type": "uint256"
				}
			],
			"stateMutability": "nonpayable",
			"type": "function"
		},
		{
			"inputs": [
				{
					"internalType": "uint256",
					"name": "taxAmount",
					"type": "uint256"
				}
			],
			"name": "chargeCustomTaxPreBurned",
			"outputs": [],
			"stateMutability": "nonpayable",
			"type": "function"
		},
		{
			"inputs": [
				{
					"internalType": "address",
					"name": "addr",
					"type": "address"
				}
			],
			"name": "clearReferrerRewards",
			"outputs": [],
			"stateMutability": "nonpayable",
			"type": "function"
		},
		{
			"inputs": [
				{
					"internalType": "address",
					"name": "",
					"type": "address"
				}
			],
			"name": "customTaxPercents",
			"outputs": [
				{
					"internalType": "uint256",
					"name": "",
					"type": "uint256"
				}
			],
			"stateMutability": "view",
			"type": "function"
		},
		{
			"inputs": [
				{
					"internalType": "address[]",
					"name": "referrals",
					"type": "address[]"
				}
			],
			"name": "filterNonZeroReferrals",
			"outputs": [
				{
					"internalType": "address[]",
					"name": "",
					"type": "address[]"
				}
			],
			"stateMutability": "view",
			"type": "function"
		},
		{
			"inputs": [],
			"name": "firstLevelRefPercent",
			"outputs": [
				{
					"internalType": "uint256",
					"name": "",
					"type": "uint256"
				}
			],
			"stateMutability": "view",
			"type": "function"
		},
		{
			"inputs": [
				{
					"internalType": "address",
					"name": "account",
					"type": "address"
				},
				{
					"internalType": "uint256",
					"name": "accountBalance",
					"type": "uint256"
				}
			],
			"name": "getBalance",
			"outputs": [
				{
					"internalType": "uint256",
					"name": "",
					"type": "uint256"
				}
			],
			"stateMutability": "view",
			"type": "function"
		},
		{
			"inputs": [
				{
					"internalType": "address",
					"name": "referrer",
					"type": "address"
				}
			],
			"name": "getCachedReferrerRewards",
			"outputs": [
				{
					"internalType": "uint256",
					"name": "",
					"type": "uint256"
				}
			],
			"stateMutability": "view",
			"type": "function"
		},
		{
			"inputs": [
				{
					"internalType": "address",
					"name": "referrer",
					"type": "address"
				},
				{
					"internalType": "address[]",
					"name": "referrals",
					"type": "address[]"
				}
			],
			"name": "getCalculatedReferrerRewards",
			"outputs": [
				{
					"internalType": "uint256",
					"name": "",
					"type": "uint256"
				}
			],
			"stateMutability": "view",
			"type": "function"
		},
		{
			"inputs": [
				{
					"internalType": "address",
					"name": "account",
					"type": "address"
				},
				{
					"internalType": "uint256",
					"name": "accountBalance",
					"type": "uint256"
				}
			],
			"name": "getRealBalance",
			"outputs": [
				{
					"internalType": "uint256",
					"name": "",
					"type": "uint256"
				}
			],
			"stateMutability": "view",
			"type": "function"
		},
		{
			"inputs": [
				{
					"internalType": "uint256",
					"name": "accountBalance",
					"type": "uint256"
				}
			],
			"name": "getRealBalanceVestingContract",
			"outputs": [
				{
					"internalType": "uint256",
					"name": "",
					"type": "uint256"
				}
			],
			"stateMutability": "view",
			"type": "function"
		},
		{
			"inputs": [],
			"name": "getRewardsBalance",
			"outputs": [
				{
					"internalType": "uint256",
					"name": "",
					"type": "uint256"
				}
			],
			"stateMutability": "view",
			"type": "function"
		},
		{
			"inputs": [
				{
					"internalType": "bytes32",
					"name": "role",
					"type": "bytes32"
				}
			],
			"name": "getRoleAdmin",
			"outputs": [
				{
					"internalType": "bytes32",
					"name": "",
					"type": "bytes32"
				}
			],
			"stateMutability": "view",
			"type": "function"
		},
		{
			"inputs": [
				{
					"internalType": "bytes32",
					"name": "role",
					"type": "bytes32"
				},
				{
					"internalType": "uint256",
					"name": "index",
					"type": "uint256"
				}
			],
			"name": "getRoleMember",
			"outputs": [
				{
					"internalType": "address",
					"name": "",
					"type": "address"
				}
			],
			"stateMutability": "view",
			"type": "function"
		},
		{
			"inputs": [
				{
					"internalType": "bytes32",
					"name": "role",
					"type": "bytes32"
				}
			],
			"name": "getRoleMemberCount",
			"outputs": [
				{
					"internalType": "uint256",
					"name": "",
					"type": "uint256"
				}
			],
			"stateMutability": "view",
			"type": "function"
		},
		{
			"inputs": [],
			"name": "getTotalSupply",
			"outputs": [
				{
					"internalType": "uint256",
					"name": "",
					"type": "uint256"
				}
			],
			"stateMutability": "view",
			"type": "function"
		},
		{
			"inputs": [
				{
					"internalType": "bytes32",
					"name": "role",
					"type": "bytes32"
				},
				{
					"internalType": "address",
					"name": "account",
					"type": "address"
				}
			],
			"name": "grantRole",
			"outputs": [],
			"stateMutability": "nonpayable",
			"type": "function"
		},
		{
			"inputs": [
				{
					"components": [
						{
							"internalType": "bytes32",
							"name": "role",
							"type": "bytes32"
						},
						{
							"internalType": "address",
							"name": "addr",
							"type": "address"
						}
					],
					"internalType": "struct NoBotsTech.RoleAccess[]",
					"name": "roles",
					"type": "tuple[]"
				}
			],
			"name": "grantRolesBulk",
			"outputs": [],
			"stateMutability": "nonpayable",
			"type": "function"
		},
		{
			"inputs": [
				{
					"internalType": "bytes32",
					"name": "role",
					"type": "bytes32"
				},
				{
					"internalType": "address",
					"name": "account",
					"type": "address"
				}
			],
			"name": "hasRole",
			"outputs": [
				{
					"internalType": "bool",
					"name": "",
					"type": "bool"
				}
			],
			"stateMutability": "view",
			"type": "function"
		},
		{
			"inputs": [],
			"name": "humanTaxPercent",
			"outputs": [
				{
					"internalType": "uint256",
					"name": "",
					"type": "uint256"
				}
			],
			"stateMutability": "view",
			"type": "function"
		},
		{
			"inputs": [
				{
					"internalType": "bool",
					"name": "isMint",
					"type": "bool"
				},
				{
					"internalType": "address",
					"name": "account",
					"type": "address"
				},
				{
					"internalType": "uint256",
					"name": "desiredAmountToMintOrBurn",
					"type": "uint256"
				}
			],
			"name": "prepareHumanAddressMintOrBurnRewardsAmounts",
			"outputs": [
				{
					"internalType": "uint256",
					"name": "realAmountToMintOrBurn",
					"type": "uint256"
				}
			],
			"stateMutability": "nonpayable",
			"type": "function"
		},
		{
			"inputs": [
				{
					"components": [
						{
							"internalType": "address",
							"name": "sender",
							"type": "address"
						},
						{
							"internalType": "address",
							"name": "recipient",
							"type": "address"
						},
						{
							"internalType": "uint256",
							"name": "transferAmount",
							"type": "uint256"
						},
						{
							"internalType": "uint256",
							"name": "senderBalance",
							"type": "uint256"
						},
						{
							"internalType": "uint256",
							"name": "recipientBalance",
							"type": "uint256"
						}
					],
					"internalType": "struct TaxAmountsInput",
					"name": "taxAmountsInput",
					"type": "tuple"
				}
			],
			"name": "prepareTaxAmounts",
			"outputs": [
				{
					"components": [
						{
							"internalType": "uint256",
							"name": "senderBalance",
							"type": "uint256"
						},
						{
							"internalType": "uint256",
							"name": "recipientBalance",
							"type": "uint256"
						},
						{
							"internalType": "uint256",
							"name": "burnAndRewardAmount",
							"type": "uint256"
						},
						{
							"internalType": "uint256",
							"name": "recipientGetsAmount",
							"type": "uint256"
						}
					],
					"internalType": "struct TaxAmountsOutput",
					"name": "taxAmountsOutput",
					"type": "tuple"
				}
			],
			"stateMutability": "nonpayable",
			"type": "function"
		},
		{
			"inputs": [],
			"name": "refTaxPercent",
			"outputs": [
				{
					"internalType": "uint256",
					"name": "",
					"type": "uint256"
				}
			],
			"stateMutability": "view",
			"type": "function"
		},
		{
			"inputs": [
				{
					"internalType": "address",
					"name": "",
					"type": "address"
				}
			],
			"name": "referralToReferrer",
			"outputs": [
				{
					"internalType": "address",
					"name": "",
					"type": "address"
				}
			],
			"stateMutability": "view",
			"type": "function"
		},
		{
			"inputs": [
				{
					"internalType": "address",
					"name": "",
					"type": "address"
				}
			],
			"name": "referrerBalances",
			"outputs": [
				{
					"internalType": "uint256",
					"name": "",
					"type": "uint256"
				}
			],
			"stateMutability": "view",
			"type": "function"
		},
		{
			"inputs": [
				{
					"internalType": "address",
					"name": "referral",
					"type": "address"
				},
				{
					"internalType": "address",
					"name": "referrer",
					"type": "address"
				}
			],
			"name": "registerReferral",
			"outputs": [],
			"stateMutability": "nonpayable",
			"type": "function"
		},
		{
			"inputs": [
				{
					"internalType": "bytes32",
					"name": "role",
					"type": "bytes32"
				},
				{
					"internalType": "address",
					"name": "account",
					"type": "address"
				}
			],
			"name": "renounceRole",
			"outputs": [],
			"stateMutability": "nonpayable",
			"type": "function"
		},
		{
			"inputs": [
				{
					"internalType": "bytes32",
					"name": "role",
					"type": "bytes32"
				},
				{
					"internalType": "address",
					"name": "account",
					"type": "address"
				}
			],
			"name": "revokeRole",
			"outputs": [],
			"stateMutability": "nonpayable",
			"type": "function"
		},
		{
			"inputs": [],
			"name": "secondLevelRefPercent",
			"outputs": [
				{
					"internalType": "uint256",
					"name": "",
					"type": "uint256"
				}
			],
			"stateMutability": "view",
			"type": "function"
		},
		{
			"inputs": [
				{
					"internalType": "bytes4",
					"name": "interfaceId",
					"type": "bytes4"
				}
			],
			"name": "supportsInterface",
			"outputs": [
				{
					"internalType": "bool",
					"name": "",
					"type": "bool"
				}
			],
			"stateMutability": "view",
			"type": "function"
		},
		{
			"inputs": [
				{
					"internalType": "address",
					"name": "",
					"type": "address"
				}
			],
			"name": "temporaryReferralAmounts",
			"outputs": [
				{
					"internalType": "uint256",
					"name": "",
					"type": "uint256"
				}
			],
			"stateMutability": "view",
			"type": "function"
		},
		{
			"inputs": [
				{
					"internalType": "address",
					"name": "addr",
					"type": "address"
				},
				{
					"internalType": "uint256",
					"name": "newCustomTaxPercent",
					"type": "uint256"
				}
			],
			"name": "updateCustomTaxForAddress",
			"outputs": [],
			"stateMutability": "nonpayable",
			"type": "function"
		},
		{
			"inputs": [
				{
					"internalType": "uint256",
					"name": "_secondsBetweenUpdates",
					"type": "uint256"
				}
			],
			"name": "updateReCachePeriod",
			"outputs": [],
			"stateMutability": "nonpayable",
			"type": "function"
		},
		{
			"inputs": [
				{
					"internalType": "address[]",
					"name": "referrals",
					"type": "address[]"
				}
			],
			"name": "updateReferrersRewards",
			"outputs": [],
			"stateMutability": "nonpayable",
			"type": "function"
		},
		{
			"inputs": [
				{
					"internalType": "uint256",
					"name": "_refTaxPercent",
					"type": "uint256"
				},
				{
					"internalType": "uint256",
					"name": "_botTaxPercent",
					"type": "uint256"
				},
				{
					"internalType": "uint256",
					"name": "_humanTaxPercent",
					"type": "uint256"
				},
				{
					"internalType": "uint256",
					"name": "_firstLevelRefPercent",
					"type": "uint256"
				},
				{
					"internalType": "uint256",
					"name": "_secondLevelRefPercent",
					"type": "uint256"
				}
			],
			"name": "updateTaxPercent",
			"outputs": [],
			"stateMutability": "nonpayable",
			"type": "function"
		}
	]
}