{
	"data": {
		"bytecode": {
			"linkReferences": {},
			"object": "6080604052670de0b6b3a764000060025542600455600060055561c350600755620f1b30600855600060095562055730600a55629e3400600b5562015f90600c5563013c6800600d5562013880600e556301da9c00600f5560006010556127106012553480156200006f57600080fd5b506200007d600033620000e9565b620000a97f603fd68989965f050033092155bb64ae91e5363fea3409ef877c949328c541e533620000e9565b426015556002546040519081527f4dbe4840d7465bd162f67814cea0b519567a2e0e578bcde61e7f4ced361e5a3d9060200160405180910390a16200024e565b6200010082826200012c60201b620013501760201c565b6000828152600160209081526040909120620001279183906200135e6200013c821b17901c565b505050565b6200013882826200015c565b5050565b600062000153836001600160a01b038416620001fc565b90505b92915050565b6000828152602081815260408083206001600160a01b038516845290915290205460ff1662000138576000828152602081815260408083206001600160a01b03851684529091529020805460ff19166001179055620001b83390565b6001600160a01b0316816001600160a01b0316837f2f8788117e7eff1d82e926ec794901d17c78024a50270940304540a733656f0d60405160405180910390a45050565b6000818152600183016020526040812054620002455750815460018181018455600084815260208082209093018490558454848252828601909352604090209190915562000156565b50600062000156565b612338806200025e6000396000f3fe608060405234801561001057600080fd5b50600436106103415760003560e01c8063858a135d116101bd578063d391014b116100f9578063e7baf7f4116100a2578063ef356a791161007c578063ef356a7914610716578063f687e46e1461071f578063fc78bab314610746578063fed77a801461074f57600080fd5b8063e7baf7f4146106f2578063e8ac6e4e146106fb578063ebc272411461070357600080fd5b8063dda7498e116100d3578063dda7498e146106b6578063dfd5e129146106c9578063e62684db146106e957600080fd5b8063d391014b14610692578063d547741f1461069a578063da9b835a146106ad57600080fd5b80639be810cc11610166578063bc6537e811610140578063bc6537e814610626578063c4a8a1691461066e578063c4e41b2214610677578063ca15c8731461067f57600080fd5b80639be810cc146105dc578063abfd4ec31461060a578063b6c5ab7b1461061357600080fd5b80639219023f116101975780639219023f146105995780639394aa66146105ac57806394b2242e146105b557600080fd5b8063858a135d1461052f5780639010d07c1461053757806391d148541461056257600080fd5b8063342c19191161028c57806342e58a631161023557806360fd5fd71161020f57806360fd5fd7146104ce57806362109feb146104d75780637207786f146104e0578063815a61e0146104e957600080fd5b806342e58a63146104815780634ccc35fb146104945780635cdba003146104bb57600080fd5b806336568abe1161026657806336568abe1461045c578063372affbf1461046f57806340142e551461047857600080fd5b8063342c19191461042d5780633609875814610440578063361778181461045357600080fd5b80631857b512116102ee5780632cf136f3116102c85780632cf136f3146103fe5780632f2ff15d14610411578063326e95391461042457600080fd5b80631857b512146103bf578063248a9ca3146103c85780632b04e840146103eb57600080fd5b8063119d78981161031f578063119d78981461039a578063131f2e53146103ad5780631336a98f146103b657600080fd5b806301bf91801461034657806301ffc9a71461036257806303ed957f14610385575b600080fd5b61034f600d5481565b6040519081526020015b60405180910390f35b6103756103703660046120d2565b610762565b6040519015158152602001610359565b610398610393366004611f3c565b6107a6565b005b6103986103a8366004611ff0565b61083f565b61034f60135481565b61034f60035481565b61034f60085481565b61034f6103d6366004611ff0565b60009081526020819052604090206001015490565b61034f6103f9366004611f11565b610851565b61039861040c3660046120b1565b610887565b61039861041f366004612008565b61089f565b61034f60125481565b61039861043b366004611ff0565b6108c6565b61034f61044e3660046120b1565b6108d8565b61034f60025481565b61039861046a366004612008565b61093e565b61034f600b5481565b61034f60045481565b61034f61048f366004611fac565b610960565b61034f7f5bf81cabe53ab1fac30c9f534a726d1efa4d39604cae6fbb7d5396c82ef5f5cf81565b61034f6104c9366004611f11565b610b94565b61034f600f5481565b61034f60075481565b61034f600a5481565b6104fc6104f73660046120fa565b610bb6565b60405161035991908151815260208083015190820152604080830151908201526060918201519181019190915260800190565b61034f61116b565b61054a6105453660046120b1565b611180565b6040516001600160a01b039091168152602001610359565b610375610570366004612008565b6000918252602082815260408084206001600160a01b0393909316845291905290205460ff1690565b6103986105a7366004611ff0565b61119f565b61034f60105481565b61034f7f603fd68989965f050033092155bb64ae91e5363fea3409ef877c949328c541e581565b6105ef6105ea366004611ed9565b6111b1565b60408051825181526020928301519281019290925201610359565b61034f60155481565b6103986106213660046120b1565b611244565b610398610634366004611ed9565b600680547fffffffffffffffffffffffff0000000000000000000000000000000000000000166001600160a01b0392909216919091179055565b61034f60095481565b61034f61125c565b61034f61068d366004611ff0565b61127f565b61034f600081565b6103986106a8366004612008565b611296565b61034f60055481565b6103986106c4366004612037565b6112a0565b61034f6106d7366004611ed9565b60166020526000908152604090205481565b61034f60115481565b61034f600c5481565b610398611309565b610398610711366004612129565b61131d565b61034f60145481565b61034f7f789f97575f27a6b4ceb7f0dff24d6988bf9835006797a01cfaedc572e88a2c7b81565b61034f600e5481565b61039861075d3660046120b1565b611338565b60006001600160e01b031982167f5a05180f0000000000000000000000000000000000000000000000000000000014806107a057506107a082611373565b92915050565b60006107b281336113da565b60005b82811015610839576108278484838181106107e057634e487b7160e01b600052603260045260246000fd5b9050604002016000013585858481811061080a57634e487b7160e01b600052603260045260246000fd5b90506040020160200160208101906108229190611ed9565b611458565b80610831816122b9565b9150506107b5565b50505050565b600061084b81336113da565b50600755565b60008061085e81336113da565b670de0b6b3a7640000600254846108759190612240565b61087f9190612220565b949350505050565b600061089381336113da565b50600891909155600955565b6108a98282611462565b60008281526001602052604090206108c1908261135e565b505050565b60006108d281336113da565b50600555565b6000806108e581336113da565b6002546000906108fd670de0b6b3a764000087612240565b6109079190612220565b9050610913818561225f565b935080600360008282546109279190612208565b909155506109359050611488565b50919392505050565b61094882826114a7565b60008281526001602052604090206108c1908261152f565b60008061096d81336113da565b60025460009061098585670de0b6b3a7640000612240565b61098f9190612220565b9050600061099d828661225f565b90508615610b595780601360008282546109b79190612208565b9250508190555081601460008282546109d09190612208565b90915550506006546040516370a0823160e01b81526001600160a01b03888116600483015260009216906370a082319060240160206040518083038186803b158015610a1b57600080fd5b505afa158015610a2f573d6000803e3d6000fd5b505050506040513d601f19601f82011682018060405250810190610a539190612111565b6001600160a01b0388166000908152601660205260409020549091501580610a79575080155b15610a9b576015546001600160a01b0388166000908152601660205260409020555b6001600160a01b038716600090815260166020526040812054600f54610ac19190612208565b90506000428211610ad3576000610add565b610add428361225f565b90506000610aeb8985612208565b600f54610af8908b612240565b610b028487612240565b610b0c9190612208565b610b169190612220565b9050610b22828261225f565b6001600160a01b038b1660009081526016602052604081208054909190610b4a90849061225f565b90915550610b8a945050505050565b8060136000828254610b6b919061225f565b925050819055508160146000828254610b84919061225f565b90915550505b5095945050505050565b600080610ba181336113da565b600254610875670de0b6b3a764000085612240565b610be16040518060800160405280600081526020016000815260200160008152602001600081525090565b6000610bed81336113da565b600254600090610c09670de0b6b3a76400006040870135612240565b610c139190612220565b905060008111610c6a5760405162461bcd60e51b815260206004820152600c60248201527f4e42543a2021616d6f756e74000000000000000000000000000000000000000060448201526064015b60405180910390fd5b6000610c9d7f789f97575f27a6b4ceb7f0dff24d6988bf9835006797a01cfaedc572e88a2c7b6105706020880188611ed9565b9050801580610cc95750808015610cb85750620f4240601254105b8015610cc957506011548560400135105b610d155760405162461bcd60e51b815260206004820152600f60248201527f4e42543a20216275795f6c696d697400000000000000000000000000000000006044820152606401610c61565b6000610d4b7f789f97575f27a6b4ceb7f0dff24d6988bf9835006797a01cfaedc572e88a2c7b6105706040890160208a01611ed9565b90506000601681610d5f60208a018a611ed9565b6001600160a01b03166001600160a01b03168152602001908152602001600020544211610d8d576000610dc2565b60166000610d9e60208a018a611ed9565b6001600160a01b03168152602081019190915260400160002054610dc2904261225f565b90506000828015610dd4575060095482105b158015610e0f5750610e0d7f5bf81cabe53ab1fac30c9f534a726d1efa4d39604cae6fbb7d5396c82ef5f5cf61057060208b018b611ed9565b155b8015610e625750610e2b610e2660208a018a611ed9565b3b1590565b80610e625750610e627f789f97575f27a6b4ceb7f0dff24d6988bf9835006797a01cfaedc572e88a2c7b61057060208b018b611ed9565b905060008115610ea0578315610e9b576000610e7d84611544565b9050620f4240610e8d8289612240565b610e979190612220565b9150505b610f5b565b84610f5b57620f424060085487610eb79190612240565b610ec19190612220565b90506000620f42406008548b60400135610edb9190612240565b610ee59190612220565b90507fa1a76b56d422be0a4c14ccc1281231aa006e67b6e03dcc433a873dc285491e51610f1560208c018c611ed9565b610f2560408d0160208e01611ed9565b604080516001600160a01b039384168152929091166020830152808d0135908201526060810183905260800160405180910390a1505b836110d05760166000610f7460408c0160208d01611ed9565b6001600160a01b031681526020810191909152604001600020541580610f9c57506080890135155b15610fd35760155460166000610fb860408d0160208e01611ed9565b6001600160a01b031681526020810191909152604001600020555b6000601681610fe860408d0160208e01611ed9565b6001600160a01b03166001600160a01b0316815260200190815260200160002054600f546110169190612208565b90506000428211611028576000611032565b611032428361225f565b905060006110448960808e0135612208565b600f54611051908b612240565b838e608001356110619190612240565b61106b9190612208565b6110759190612220565b9050611081828261225f565b601660008e60200160208101906110989190611ed9565b6001600160a01b03166001600160a01b0316815260200190815260200160002060008282546110c7919061225f565b90915550505050505b60006110dc828861225f565b90506110ec8760608c013561225f565b89526110fc8160808c0135612208565b60208a015260038054839190600090611116908490612208565b9091555050600254670de0b6b3a7640000906111329084612240565b61113c9190612220565b6040808b0182905261115191908c013561225f565b60608a015261115e611488565b5050505050505050919050565b60008061117881336113da565b505060135490565b60008281526001602052604081206111989083611636565b9392505050565b60006111ab81336113da565b50601255565b60408051808201909152600080825260208201526001600160a01b03821660009081526016602052604081205442116111eb57600061120e565b6001600160a01b03831660009081526016602052604090205461120e904261225f565b905061121981611544565b8252600f54811061122b576000611239565b80600f54611239919061225f565b602083015250919050565b600061125081336113da565b50600c91909155600d55565b60008061126981336113da565b6013546014546112799190612208565b91505090565b60008181526001602052604081206107a090611642565b610948828261164c565b60006112ac81336113da565b60005b82811015611302576112f0858585848181106112db57634e487b7160e01b600052603260045260246000fd5b90506020020160208101906108229190611ed9565b806112fa816122b9565b9150506112af565b5050505050565b60045442111561131b5761131b611672565b565b600061132981336113da565b50600e92909255600f55601055565b600061134481336113da565b50600a91909155600b55565b61135a82826119f1565b5050565b6000611198836001600160a01b038416611a8f565b60006001600160e01b031982167f7965db0b0000000000000000000000000000000000000000000000000000000014806107a057507f01ffc9a7000000000000000000000000000000000000000000000000000000006001600160e01b03198316146107a0565b6000828152602081815260408083206001600160a01b038516845290915290205460ff1661135a57611416816001600160a01b03166014611ade565b611421836020611ade565b604051602001611432929190612154565b60408051601f198184030181529082905262461bcd60e51b8252610c61916004016121d5565b6108a98282611350565b60008281526020819052604090206001015461147e81336113da565b6108c183836119f1565b6005546004546114989190612208565b42111561131b5761131b611672565b6001600160a01b03811633146115255760405162461bcd60e51b815260206004820152602f60248201527f416363657373436f6e74726f6c3a2063616e206f6e6c792072656e6f756e636560448201527f20726f6c657320666f722073656c6600000000000000000000000000000000006064820152608401610c61565b61135a8282611d05565b6000611198836001600160a01b038416611d84565b6000600f5482111561155857505060105490565b600d5482111561159757600d54600f54611572919061225f565b82600f54611580919061225f565b600e5461158d9190612240565b6107a09190612220565b600b548211156115ef57600b54600d546115b1919061225f565b600b546115be908461225f565b600e54600c546115ce919061225f565b6115d89190612240565b6115e29190612220565b600c546107a0919061225f565b60095482111561162e57600b5482600c54600a5461160d919061225f565b6116179190612240565b6116219190612220565b600a546107a0919061225f565b505060085490565b60006111988383611ea1565b60006107a0825490565b60008281526020819052604090206001015461166881336113da565b6108c18383611d05565b4260045560035415611871576000620f42406007546003546116949190612240565b61169e9190612220565b90506000816003546116b0919061225f565b905080601360008282546116c49190612208565b9091555050600354601480546000906116de90849061225f565b90915550506000600355601354821561180157600061171e7f603fd68989965f050033092155bb64ae91e5363fea3409ef877c949328c541e56000611180565b6006546002549192506001600160a01b0316908190630bb9ff5d908490670de0b6b3a76400009061174f908a612240565b6117599190612220565b6040516001600160e01b031960e085901b1681526001600160a01b0390921660048301526024820152604401600060405180830381600087803b15801561179f57600080fd5b505af11580156117b3573d6000803e3d6000fd5b505050601384905550604080516001600160a01b0384168152602081018790527f50e71dbf1d972fa3c0618c2fb1267d56a399175b463c486d15995e34bf6cd610910160405180910390a150505b60145460135461181990670de0b6b3a7640000612240565b6118239190612220565b61183590670de0b6b3a7640000612208565b60028190556040519081527f4dbe4840d7465bd162f67814cea0b519567a2e0e578bcde61e7f4ced361e5a3d9060200160405180910390a15050505b620f4240601254101561131b576006546040517f06fb1a07000000000000000000000000000000000000000000000000000000008152600360048201526000916001600160a01b0316906306fb1a079060240160206040518083038186803b1580156118dc57600080fd5b505afa1580156118f0573d6000803e3d6000fd5b505050506040513d601f19601f820116820180604052508101906119149190611ef5565b6006546040516370a0823160e01b81526001600160a01b038084166004830152929350600092909116906370a082319060240160206040518083038186803b15801561195f57600080fd5b505afa158015611973573d6000803e3d6000fd5b505050506040513d601f19601f820116820180604052508101906119979190612111565b9050620f4240601254826119ab9190612240565b6119b59190612220565b60118190556040519081527f7ba725e56dcc09f610b29c747f1d1afab653f8048e4b527c0baedf8ed35858cb9060200160405180910390a15050565b6000828152602081815260408083206001600160a01b038516845290915290205460ff1661135a576000828152602081815260408083206001600160a01b03851684529091529020805460ff19166001179055611a4b3390565b6001600160a01b0316816001600160a01b0316837f2f8788117e7eff1d82e926ec794901d17c78024a50270940304540a733656f0d60405160405180910390a45050565b6000818152600183016020526040812054611ad6575081546001818101845560008481526020808220909301849055845484825282860190935260409020919091556107a0565b5060006107a0565b60606000611aed836002612240565b611af8906002612208565b67ffffffffffffffff811115611b1e57634e487b7160e01b600052604160045260246000fd5b6040519080825280601f01601f191660200182016040528015611b48576020820181803683370190505b5090507f300000000000000000000000000000000000000000000000000000000000000081600081518110611b8d57634e487b7160e01b600052603260045260246000fd5b60200101906001600160f81b031916908160001a9053507f780000000000000000000000000000000000000000000000000000000000000081600181518110611be657634e487b7160e01b600052603260045260246000fd5b60200101906001600160f81b031916908160001a9053506000611c0a846002612240565b611c15906001612208565b90505b6001811115611cb6577f303132333435363738396162636465660000000000000000000000000000000085600f1660108110611c6457634e487b7160e01b600052603260045260246000fd5b1a60f81b828281518110611c8857634e487b7160e01b600052603260045260246000fd5b60200101906001600160f81b031916908160001a90535060049490941c93611caf816122a2565b9050611c18565b5083156111985760405162461bcd60e51b815260206004820181905260248201527f537472696e67733a20686578206c656e67746820696e73756666696369656e746044820152606401610c61565b6000828152602081815260408083206001600160a01b038516845290915290205460ff161561135a576000828152602081815260408083206001600160a01b0385168085529252808320805460ff1916905551339285917ff6391f5c32d9c69d2a47ea670b442974b53935d1edc7fd64eb21e047a839171b9190a45050565b60008181526001830160205260408120548015611e97576000611da860018361225f565b8554909150600090611dbc9060019061225f565b9050818114611e3d576000866000018281548110611dea57634e487b7160e01b600052603260045260246000fd5b9060005260206000200154905080876000018481548110611e1b57634e487b7160e01b600052603260045260246000fd5b6000918252602080832090910192909255918252600188019052604090208390555b8554869080611e5c57634e487b7160e01b600052603160045260246000fd5b6001900381819060005260206000200160009055905585600101600086815260200190815260200160002060009055600193505050506107a0565b60009150506107a0565b6000826000018281548110611ec657634e487b7160e01b600052603260045260246000fd5b9060005260206000200154905092915050565b600060208284031215611eea578081fd5b8135611198816122ea565b600060208284031215611f06578081fd5b8151611198816122ea565b60008060408385031215611f23578081fd5b8235611f2e816122ea565b946020939093013593505050565b60008060208385031215611f4e578182fd5b823567ffffffffffffffff80821115611f65578384fd5b818501915085601f830112611f78578384fd5b813581811115611f86578485fd5b8660208260061b8501011115611f9a578485fd5b60209290920196919550909350505050565b600080600060608486031215611fc0578081fd5b83358015158114611fcf578182fd5b92506020840135611fdf816122ea565b929592945050506040919091013590565b600060208284031215612001578081fd5b5035919050565b6000806040838503121561201a578182fd5b82359150602083013561202c816122ea565b809150509250929050565b60008060006040848603121561204b578283fd5b83359250602084013567ffffffffffffffff80821115612069578384fd5b818601915086601f83011261207c578384fd5b81358181111561208a578485fd5b8760208260051b850101111561209e578485fd5b6020830194508093505050509250925092565b600080604083850312156120c3578182fd5b50508035926020909101359150565b6000602082840312156120e3578081fd5b81356001600160e01b031981168114611198578182fd5b600060a0828403121561210b578081fd5b50919050565b600060208284031215612122578081fd5b5051919050565b60008060006060848603121561213d578283fd5b505081359360208301359350604090920135919050565b7f416363657373436f6e74726f6c3a206163636f756e742000000000000000000081526000835161218c816017850160208801612276565b7f206973206d697373696e6720726f6c652000000000000000000000000000000060179184019182015283516121c9816028840160208801612276565b01602801949350505050565b60208152600082518060208401526121f4816040850160208701612276565b601f01601f19169190910160400192915050565b6000821982111561221b5761221b6122d4565b500190565b60008261223b57634e487b7160e01b81526012600452602481fd5b500490565b600081600019048311821515161561225a5761225a6122d4565b500290565b600082821015612271576122716122d4565b500390565b60005b83811015612291578181015183820152602001612279565b838111156108395750506000910152565b6000816122b1576122b16122d4565b506000190190565b60006000198214156122cd576122cd6122d4565b5060010190565b634e487b7160e01b600052601160045260246000fd5b6001600160a01b03811681146122ff57600080fd5b5056fea264697066735822122049fb3bc1ad81cbc8f9cb9a12ae0ebcbf0f50c6568f49298854acc99cf20a257664736f6c63430008040033",
			"opcodes": "PUSH1 0x80 PUSH1 0x40 MSTORE PUSH8 0xDE0B6B3A7640000 PUSH1 0x2 SSTORE TIMESTAMP PUSH1 0x4 SSTORE PUSH1 0x0 PUSH1 0x5 SSTORE PUSH2 0xC350 PUSH1 0x7 SSTORE PUSH3 0xF1B30 PUSH1 0x8 SSTORE PUSH1 0x0 PUSH1 0x9 SSTORE PUSH3 0x55730 PUSH1 0xA SSTORE PUSH3 0x9E3400 PUSH1 0xB SSTORE PUSH3 0x15F90 PUSH1 0xC SSTORE PUSH4 0x13C6800 PUSH1 0xD SSTORE PUSH3 0x13880 PUSH1 0xE SSTORE PUSH4 0x1DA9C00 PUSH1 0xF SSTORE PUSH1 0x0 PUSH1 0x10 SSTORE PUSH2 0x2710 PUSH1 0x12 SSTORE CALLVALUE DUP1 ISZERO PUSH3 0x6F JUMPI PUSH1 0x0 DUP1 REVERT JUMPDEST POP PUSH3 0x7D PUSH1 0x0 CALLER PUSH3 0xE9 JUMP JUMPDEST PUSH3 0xA9 PUSH32 0x603FD68989965F050033092155BB64AE91E5363FEA3409EF877C949328C541E5 CALLER PUSH3 0xE9 JUMP JUMPDEST TIMESTAMP PUSH1 0x15 SSTORE PUSH1 0x2 SLOAD PUSH1 0x40 MLOAD SWAP1 DUP2 MSTORE PUSH32 0x4DBE4840D7465BD162F67814CEA0B519567A2E0E578BCDE61E7F4CED361E5A3D SWAP1 PUSH1 0x20 ADD PUSH1 0x40 MLOAD DUP1 SWAP2 SUB SWAP1 LOG1 PUSH3 0x24E JUMP JUMPDEST PUSH3 0x100 DUP3 DUP3 PUSH3 0x12C PUSH1 0x20 SHL PUSH3 0x1350 OR PUSH1 0x20 SHR JUMP JUMPDEST PUSH1 0x0 DUP3 DUP2 MSTORE PUSH1 0x1 PUSH1 0x20 SWAP1 DUP2 MSTORE PUSH1 0x40 SWAP1 SWAP2 KECCAK256 PUSH3 0x127 SWAP2 DUP4 SWAP1 PUSH3 0x135E PUSH3 0x13C DUP3 SHL OR SWAP1 SHR JUMP JUMPDEST POP POP POP JUMP JUMPDEST PUSH3 0x138 DUP3 DUP3 PUSH3 0x15C JUMP JUMPDEST POP POP JUMP JUMPDEST PUSH1 0x0 PUSH3 0x153 DUP4 PUSH1 0x1 PUSH1 0x1 PUSH1 0xA0 SHL SUB DUP5 AND PUSH3 0x1FC JUMP JUMPDEST SWAP1 POP JUMPDEST SWAP3 SWAP2 POP POP JUMP JUMPDEST PUSH1 0x0 DUP3 DUP2 MSTORE PUSH1 0x20 DUP2 DUP2 MSTORE PUSH1 0x40 DUP1 DUP4 KECCAK256 PUSH1 0x1 PUSH1 0x1 PUSH1 0xA0 SHL SUB DUP6 AND DUP5 MSTORE SWAP1 SWAP2 MSTORE SWAP1 KECCAK256 SLOAD PUSH1 0xFF AND PUSH3 0x138 JUMPI PUSH1 0x0 DUP3 DUP2 MSTORE PUSH1 0x20 DUP2 DUP2 MSTORE PUSH1 0x40 DUP1 DUP4 KECCAK256 PUSH1 0x1 PUSH1 0x1 PUSH1 0xA0 SHL SUB DUP6 AND DUP5 MSTORE SWAP1 SWAP2 MSTORE SWAP1 KECCAK256 DUP1 SLOAD PUSH1 0xFF NOT AND PUSH1 0x1 OR SWAP1 SSTORE PUSH3 0x1B8 CALLER SWAP1 JUMP JUMPDEST PUSH1 0x1 PUSH1 0x1 PUSH1 0xA0 SHL SUB AND DUP2 PUSH1 0x1 PUSH1 0x1 PUSH1 0xA0 SHL SUB AND DUP4 PUSH32 0x2F8788117E7EFF1D82E926EC794901D17C78024A50270940304540A733656F0D PUSH1 0x40 MLOAD PUSH1 0x40 MLOAD DUP1 SWAP2 SUB SWAP1 LOG4 POP POP JUMP JUMPDEST PUSH1 0x0 DUP2 DUP2 MSTORE PUSH1 0x1 DUP4 ADD PUSH1 0x20 MSTORE PUSH1 0x40 DUP2 KECCAK256 SLOAD PUSH3 0x245 JUMPI POP DUP2 SLOAD PUSH1 0x1 DUP2 DUP2 ADD DUP5 SSTORE PUSH1 0x0 DUP5 DUP2 MSTORE PUSH1 0x20 DUP1 DUP3 KECCAK256 SWAP1 SWAP4 ADD DUP5 SWAP1 SSTORE DUP5 SLOAD DUP5 DUP3 MSTORE DUP3 DUP7 ADD SWAP1 SWAP4 MSTORE PUSH1 0x40 SWAP1 KECCAK256 SWAP2 SWAP1 SWAP2 SSTORE PUSH3 0x156 JUMP JUMPDEST POP PUSH1 0x0 PUSH3 0x156 JUMP JUMPDEST PUSH2 0x2338 DUP1 PUSH3 0x25E PUSH1 0x0 CODECOPY PUSH1 0x0 RETURN INVALID PUSH1 0x80 PUSH1 0x40 MSTORE CALLVALUE DUP1 ISZERO PUSH2 0x10 JUMPI PUSH1 0x0 DUP1 REVERT JUMPDEST POP PUSH1 0x4 CALLDATASIZE LT PUSH2 0x341 JUMPI PUSH1 0x0 CALLDATALOAD PUSH1 0xE0 SHR DUP1 PUSH4 0x858A135D GT PUSH2 0x1BD JUMPI DUP1 PUSH4 0xD391014B GT PUSH2 0xF9 JUMPI DUP1 PUSH4 0xE7BAF7F4 GT PUSH2 0xA2 JUMPI DUP1 PUSH4 0xEF356A79 GT PUSH2 0x7C JUMPI DUP1 PUSH4 0xEF356A79 EQ PUSH2 0x716 JUMPI DUP1 PUSH4 0xF687E46E EQ PUSH2 0x71F JUMPI DUP1 PUSH4 0xFC78BAB3 EQ PUSH2 0x746 JUMPI DUP1 PUSH4 0xFED77A80 EQ PUSH2 0x74F JUMPI PUSH1 0x0 DUP1 REVERT JUMPDEST DUP1 PUSH4 0xE7BAF7F4 EQ PUSH2 0x6F2 JUMPI DUP1 PUSH4 0xE8AC6E4E EQ PUSH2 0x6FB JUMPI DUP1 PUSH4 0xEBC27241 EQ PUSH2 0x703 JUMPI PUSH1 0x0 DUP1 REVERT JUMPDEST DUP1 PUSH4 0xDDA7498E GT PUSH2 0xD3 JUMPI DUP1 PUSH4 0xDDA7498E EQ PUSH2 0x6B6 JUMPI DUP1 PUSH4 0xDFD5E129 EQ PUSH2 0x6C9 JUMPI DUP1 PUSH4 0xE62684DB EQ PUSH2 0x6E9 JUMPI PUSH1 0x0 DUP1 REVERT JUMPDEST DUP1 PUSH4 0xD391014B EQ PUSH2 0x692 JUMPI DUP1 PUSH4 0xD547741F EQ PUSH2 0x69A JUMPI DUP1 PUSH4 0xDA9B835A EQ PUSH2 0x6AD JUMPI PUSH1 0x0 DUP1 REVERT JUMPDEST DUP1 PUSH4 0x9BE810CC GT PUSH2 0x166 JUMPI DUP1 PUSH4 0xBC6537E8 GT PUSH2 0x140 JUMPI DUP1 PUSH4 0xBC6537E8 EQ PUSH2 0x626 JUMPI DUP1 PUSH4 0xC4A8A169 EQ PUSH2 0x66E JUMPI DUP1 PUSH4 0xC4E41B22 EQ PUSH2 0x677 JUMPI DUP1 PUSH4 0xCA15C873 EQ PUSH2 0x67F JUMPI PUSH1 0x0 DUP1 REVERT JUMPDEST DUP1 PUSH4 0x9BE810CC EQ PUSH2 0x5DC JUMPI DUP1 PUSH4 0xABFD4EC3 EQ PUSH2 0x60A JUMPI DUP1 PUSH4 0xB6C5AB7B EQ PUSH2 0x613 JUMPI PUSH1 0x0 DUP1 REVERT JUMPDEST DUP1 PUSH4 0x9219023F GT PUSH2 0x197 JUMPI DUP1 PUSH4 0x9219023F EQ PUSH2 0x599 JUMPI DUP1 PUSH4 0x9394AA66 EQ PUSH2 0x5AC JUMPI DUP1 PUSH4 0x94B2242E EQ PUSH2 0x5B5 JUMPI PUSH1 0x0 DUP1 REVERT JUMPDEST DUP1 PUSH4 0x858A135D EQ PUSH2 0x52F JUMPI DUP1 PUSH4 0x9010D07C EQ PUSH2 0x537 JUMPI DUP1 PUSH4 0x91D14854 EQ PUSH2 0x562 JUMPI PUSH1 0x0 DUP1 REVERT JUMPDEST DUP1 PUSH4 0x342C1919 GT PUSH2 0x28C JUMPI DUP1 PUSH4 0x42E58A63 GT PUSH2 0x235 JUMPI DUP1 PUSH4 0x60FD5FD7 GT PUSH2 0x20F JUMPI DUP1 PUSH4 0x60FD5FD7 EQ PUSH2 0x4CE JUMPI DUP1 PUSH4 0x62109FEB EQ PUSH2 0x4D7 JUMPI DUP1 PUSH4 0x7207786F EQ PUSH2 0x4E0 JUMPI DUP1 PUSH4 0x815A61E0 EQ PUSH2 0x4E9 JUMPI PUSH1 0x0 DUP1 REVERT JUMPDEST DUP1 PUSH4 0x42E58A63 EQ PUSH2 0x481 JUMPI DUP1 PUSH4 0x4CCC35FB EQ PUSH2 0x494 JUMPI DUP1 PUSH4 0x5CDBA003 EQ PUSH2 0x4BB JUMPI PUSH1 0x0 DUP1 REVERT JUMPDEST DUP1 PUSH4 0x36568ABE GT PUSH2 0x266 JUMPI DUP1 PUSH4 0x36568ABE EQ PUSH2 0x45C JUMPI DUP1 PUSH4 0x372AFFBF EQ PUSH2 0x46F JUMPI DUP1 PUSH4 0x40142E55 EQ PUSH2 0x478 JUMPI PUSH1 0x0 DUP1 REVERT JUMPDEST DUP1 PUSH4 0x342C1919 EQ PUSH2 0x42D JUMPI DUP1 PUSH4 0x36098758 EQ PUSH2 0x440 JUMPI DUP1 PUSH4 0x36177818 EQ PUSH2 0x453 JUMPI PUSH1 0x0 DUP1 REVERT JUMPDEST DUP1 PUSH4 0x1857B512 GT PUSH2 0x2EE JUMPI DUP1 PUSH4 0x2CF136F3 GT PUSH2 0x2C8 JUMPI DUP1 PUSH4 0x2CF136F3 EQ PUSH2 0x3FE JUMPI DUP1 PUSH4 0x2F2FF15D EQ PUSH2 0x411 JUMPI DUP1 PUSH4 0x326E9539 EQ PUSH2 0x424 JUMPI PUSH1 0x0 DUP1 REVERT JUMPDEST DUP1 PUSH4 0x1857B512 EQ PUSH2 0x3BF JUMPI DUP1 PUSH4 0x248A9CA3 EQ PUSH2 0x3C8 JUMPI DUP1 PUSH4 0x2B04E840 EQ PUSH2 0x3EB JUMPI PUSH1 0x0 DUP1 REVERT JUMPDEST DUP1 PUSH4 0x119D7898 GT PUSH2 0x31F JUMPI DUP1 PUSH4 0x119D7898 EQ PUSH2 0x39A JUMPI DUP1 PUSH4 0x131F2E53 EQ PUSH2 0x3AD JUMPI DUP1 PUSH4 0x1336A98F EQ PUSH2 0x3B6 JUMPI PUSH1 0x0 DUP1 REVERT JUMPDEST DUP1 PUSH4 0x1BF9180 EQ PUSH2 0x346 JUMPI DUP1 PUSH4 0x1FFC9A7 EQ PUSH2 0x362 JUMPI DUP1 PUSH4 0x3ED957F EQ PUSH2 0x385 JUMPI JUMPDEST PUSH1 0x0 DUP1 REVERT JUMPDEST PUSH2 0x34F PUSH1 0xD SLOAD DUP2 JUMP JUMPDEST PUSH1 0x40 MLOAD SWAP1 DUP2 MSTORE PUSH1 0x20 ADD JUMPDEST PUSH1 0x40 MLOAD DUP1 SWAP2 SUB SWAP1 RETURN JUMPDEST PUSH2 0x375 PUSH2 0x370 CALLDATASIZE PUSH1 0x4 PUSH2 0x20D2 JUMP JUMPDEST PUSH2 0x762 JUMP JUMPDEST PUSH1 0x40 MLOAD SWAP1 ISZERO ISZERO DUP2 MSTORE PUSH1 0x20 ADD PUSH2 0x359 JUMP JUMPDEST PUSH2 0x398 PUSH2 0x393 CALLDATASIZE PUSH1 0x4 PUSH2 0x1F3C JUMP JUMPDEST PUSH2 0x7A6 JUMP JUMPDEST STOP JUMPDEST PUSH2 0x398 PUSH2 0x3A8 CALLDATASIZE PUSH1 0x4 PUSH2 0x1FF0 JUMP JUMPDEST PUSH2 0x83F JUMP JUMPDEST PUSH2 0x34F PUSH1 0x13 SLOAD DUP2 JUMP JUMPDEST PUSH2 0x34F PUSH1 0x3 SLOAD DUP2 JUMP JUMPDEST PUSH2 0x34F PUSH1 0x8 SLOAD DUP2 JUMP JUMPDEST PUSH2 0x34F PUSH2 0x3D6 CALLDATASIZE PUSH1 0x4 PUSH2 0x1FF0 JUMP JUMPDEST PUSH1 0x0 SWAP1 DUP2 MSTORE PUSH1 0x20 DUP2 SWAP1 MSTORE PUSH1 0x40 SWAP1 KECCAK256 PUSH1 0x1 ADD SLOAD SWAP1 JUMP JUMPDEST PUSH2 0x34F PUSH2 0x3F9 CALLDATASIZE PUSH1 0x4 PUSH2 0x1F11 JUMP JUMPDEST PUSH2 0x851 JUMP JUMPDEST PUSH2 0x398 PUSH2 0x40C CALLDATASIZE PUSH1 0x4 PUSH2 0x20B1 JUMP JUMPDEST PUSH2 0x887 JUMP JUMPDEST PUSH2 0x398 PUSH2 0x41F CALLDATASIZE PUSH1 0x4 PUSH2 0x2008 JUMP JUMPDEST PUSH2 0x89F JUMP JUMPDEST PUSH2 0x34F PUSH1 0x12 SLOAD DUP2 JUMP JUMPDEST PUSH2 0x398 PUSH2 0x43B CALLDATASIZE PUSH1 0x4 PUSH2 0x1FF0 JUMP JUMPDEST PUSH2 0x8C6 JUMP JUMPDEST PUSH2 0x34F PUSH2 0x44E CALLDATASIZE PUSH1 0x4 PUSH2 0x20B1 JUMP JUMPDEST PUSH2 0x8D8 JUMP JUMPDEST PUSH2 0x34F PUSH1 0x2 SLOAD DUP2 JUMP JUMPDEST PUSH2 0x398 PUSH2 0x46A CALLDATASIZE PUSH1 0x4 PUSH2 0x2008 JUMP JUMPDEST PUSH2 0x93E JUMP JUMPDEST PUSH2 0x34F PUSH1 0xB SLOAD DUP2 JUMP JUMPDEST PUSH2 0x34F PUSH1 0x4 SLOAD DUP2 JUMP JUMPDEST PUSH2 0x34F PUSH2 0x48F CALLDATASIZE PUSH1 0x4 PUSH2 0x1FAC JUMP JUMPDEST PUSH2 0x960 JUMP JUMPDEST PUSH2 0x34F PUSH32 0x5BF81CABE53AB1FAC30C9F534A726D1EFA4D39604CAE6FBB7D5396C82EF5F5CF DUP2 JUMP JUMPDEST PUSH2 0x34F PUSH2 0x4C9 CALLDATASIZE PUSH1 0x4 PUSH2 0x1F11 JUMP JUMPDEST PUSH2 0xB94 JUMP JUMPDEST PUSH2 0x34F PUSH1 0xF SLOAD DUP2 JUMP JUMPDEST PUSH2 0x34F PUSH1 0x7 SLOAD DUP2 JUMP JUMPDEST PUSH2 0x34F PUSH1 0xA SLOAD DUP2 JUMP JUMPDEST PUSH2 0x4FC PUSH2 0x4F7 CALLDATASIZE PUSH1 0x4 PUSH2 0x20FA JUMP JUMPDEST PUSH2 0xBB6 JUMP JUMPDEST PUSH1 0x40 MLOAD PUSH2 0x359 SWAP2 SWAP1 DUP2 MLOAD DUP2 MSTORE PUSH1 0x20 DUP1 DUP4 ADD MLOAD SWAP1 DUP3 ADD MSTORE PUSH1 0x40 DUP1 DUP4 ADD MLOAD SWAP1 DUP3 ADD MSTORE PUSH1 0x60 SWAP2 DUP3 ADD MLOAD SWAP2 DUP2 ADD SWAP2 SWAP1 SWAP2 MSTORE PUSH1 0x80 ADD SWAP1 JUMP JUMPDEST PUSH2 0x34F PUSH2 0x116B JUMP JUMPDEST PUSH2 0x54A PUSH2 0x545 CALLDATASIZE PUSH1 0x4 PUSH2 0x20B1 JUMP JUMPDEST PUSH2 0x1180 JUMP JUMPDEST PUSH1 0x40 MLOAD PUSH1 0x1 PUSH1 0x1 PUSH1 0xA0 SHL SUB SWAP1 SWAP2 AND DUP2 MSTORE PUSH1 0x20 ADD PUSH2 0x359 JUMP JUMPDEST PUSH2 0x375 PUSH2 0x570 CALLDATASIZE PUSH1 0x4 PUSH2 0x2008 JUMP JUMPDEST PUSH1 0x0 SWAP2 DUP3 MSTORE PUSH1 0x20 DUP3 DUP2 MSTORE PUSH1 0x40 DUP1 DUP5 KECCAK256 PUSH1 0x1 PUSH1 0x1 PUSH1 0xA0 SHL SUB SWAP4 SWAP1 SWAP4 AND DUP5 MSTORE SWAP2 SWAP1 MSTORE SWAP1 KECCAK256 SLOAD PUSH1 0xFF AND SWAP1 JUMP JUMPDEST PUSH2 0x398 PUSH2 0x5A7 CALLDATASIZE PUSH1 0x4 PUSH2 0x1FF0 JUMP JUMPDEST PUSH2 0x119F JUMP JUMPDEST PUSH2 0x34F PUSH1 0x10 SLOAD DUP2 JUMP JUMPDEST PUSH2 0x34F PUSH32 0x603FD68989965F050033092155BB64AE91E5363FEA3409EF877C949328C541E5 DUP2 JUMP JUMPDEST PUSH2 0x5EF PUSH2 0x5EA CALLDATASIZE PUSH1 0x4 PUSH2 0x1ED9 JUMP JUMPDEST PUSH2 0x11B1 JUMP JUMPDEST PUSH1 0x40 DUP1 MLOAD DUP3 MLOAD DUP2 MSTORE PUSH1 0x20 SWAP3 DUP4 ADD MLOAD SWAP3 DUP2 ADD SWAP3 SWAP1 SWAP3 MSTORE ADD PUSH2 0x359 JUMP JUMPDEST PUSH2 0x34F PUSH1 0x15 SLOAD DUP2 JUMP JUMPDEST PUSH2 0x398 PUSH2 0x621 CALLDATASIZE PUSH1 0x4 PUSH2 0x20B1 JUMP JUMPDEST PUSH2 0x1244 JUMP JUMPDEST PUSH2 0x398 PUSH2 0x634 CALLDATASIZE PUSH1 0x4 PUSH2 0x1ED9 JUMP JUMPDEST PUSH1 0x6 DUP1 SLOAD PUSH32 0xFFFFFFFFFFFFFFFFFFFFFFFF0000000000000000000000000000000000000000 AND PUSH1 0x1 PUSH1 0x1 PUSH1 0xA0 SHL SUB SWAP3 SWAP1 SWAP3 AND SWAP2 SWAP1 SWAP2 OR SWAP1 SSTORE JUMP JUMPDEST PUSH2 0x34F PUSH1 0x9 SLOAD DUP2 JUMP JUMPDEST PUSH2 0x34F PUSH2 0x125C JUMP JUMPDEST PUSH2 0x34F PUSH2 0x68D CALLDATASIZE PUSH1 0x4 PUSH2 0x1FF0 JUMP JUMPDEST PUSH2 0x127F JUMP JUMPDEST PUSH2 0x34F PUSH1 0x0 DUP2 JUMP JUMPDEST PUSH2 0x398 PUSH2 0x6A8 CALLDATASIZE PUSH1 0x4 PUSH2 0x2008 JUMP JUMPDEST PUSH2 0x1296 JUMP JUMPDEST PUSH2 0x34F PUSH1 0x5 SLOAD DUP2 JUMP JUMPDEST PUSH2 0x398 PUSH2 0x6C4 CALLDATASIZE PUSH1 0x4 PUSH2 0x2037 JUMP JUMPDEST PUSH2 0x12A0 JUMP JUMPDEST PUSH2 0x34F PUSH2 0x6D7 CALLDATASIZE PUSH1 0x4 PUSH2 0x1ED9 JUMP JUMPDEST PUSH1 0x16 PUSH1 0x20 MSTORE PUSH1 0x0 SWAP1 DUP2 MSTORE PUSH1 0x40 SWAP1 KECCAK256 SLOAD DUP2 JUMP JUMPDEST PUSH2 0x34F PUSH1 0x11 SLOAD DUP2 JUMP JUMPDEST PUSH2 0x34F PUSH1 0xC SLOAD DUP2 JUMP JUMPDEST PUSH2 0x398 PUSH2 0x1309 JUMP JUMPDEST PUSH2 0x398 PUSH2 0x711 CALLDATASIZE PUSH1 0x4 PUSH2 0x2129 JUMP JUMPDEST PUSH2 0x131D JUMP JUMPDEST PUSH2 0x34F PUSH1 0x14 SLOAD DUP2 JUMP JUMPDEST PUSH2 0x34F PUSH32 0x789F97575F27A6B4CEB7F0DFF24D6988BF9835006797A01CFAEDC572E88A2C7B DUP2 JUMP JUMPDEST PUSH2 0x34F PUSH1 0xE SLOAD DUP2 JUMP JUMPDEST PUSH2 0x398 PUSH2 0x75D CALLDATASIZE PUSH1 0x4 PUSH2 0x20B1 JUMP JUMPDEST PUSH2 0x1338 JUMP JUMPDEST PUSH1 0x0 PUSH1 0x1 PUSH1 0x1 PUSH1 0xE0 SHL SUB NOT DUP3 AND PUSH32 0x5A05180F00000000000000000000000000000000000000000000000000000000 EQ DUP1 PUSH2 0x7A0 JUMPI POP PUSH2 0x7A0 DUP3 PUSH2 0x1373 JUMP JUMPDEST SWAP3 SWAP2 POP POP JUMP JUMPDEST PUSH1 0x0 PUSH2 0x7B2 DUP2 CALLER PUSH2 0x13DA JUMP JUMPDEST PUSH1 0x0 JUMPDEST DUP3 DUP2 LT ISZERO PUSH2 0x839 JUMPI PUSH2 0x827 DUP5 DUP5 DUP4 DUP2 DUP2 LT PUSH2 0x7E0 JUMPI PUSH4 0x4E487B71 PUSH1 0xE0 SHL PUSH1 0x0 MSTORE PUSH1 0x32 PUSH1 0x4 MSTORE PUSH1 0x24 PUSH1 0x0 REVERT JUMPDEST SWAP1 POP PUSH1 0x40 MUL ADD PUSH1 0x0 ADD CALLDATALOAD DUP6 DUP6 DUP5 DUP2 DUP2 LT PUSH2 0x80A JUMPI PUSH4 0x4E487B71 PUSH1 0xE0 SHL PUSH1 0x0 MSTORE PUSH1 0x32 PUSH1 0x4 MSTORE PUSH1 0x24 PUSH1 0x0 REVERT JUMPDEST SWAP1 POP PUSH1 0x40 MUL ADD PUSH1 0x20 ADD PUSH1 0x20 DUP2 ADD SWAP1 PUSH2 0x822 SWAP2 SWAP1 PUSH2 0x1ED9 JUMP JUMPDEST PUSH2 0x1458 JUMP JUMPDEST DUP1 PUSH2 0x831 DUP2 PUSH2 0x22B9 JUMP JUMPDEST SWAP2 POP POP PUSH2 0x7B5 JUMP JUMPDEST POP POP POP POP JUMP JUMPDEST PUSH1 0x0 PUSH2 0x84B DUP2 CALLER PUSH2 0x13DA JUMP JUMPDEST POP PUSH1 0x7 SSTORE JUMP JUMPDEST PUSH1 0x0 DUP1 PUSH2 0x85E DUP2 CALLER PUSH2 0x13DA JUMP JUMPDEST PUSH8 0xDE0B6B3A7640000 PUSH1 0x2 SLOAD DUP5 PUSH2 0x875 SWAP2 SWAP1 PUSH2 0x2240 JUMP JUMPDEST PUSH2 0x87F SWAP2 SWAP1 PUSH2 0x2220 JUMP JUMPDEST SWAP5 SWAP4 POP POP POP POP JUMP JUMPDEST PUSH1 0x0 PUSH2 0x893 DUP2 CALLER PUSH2 0x13DA JUMP JUMPDEST POP PUSH1 0x8 SWAP2 SWAP1 SWAP2 SSTORE PUSH1 0x9 SSTORE JUMP JUMPDEST PUSH2 0x8A9 DUP3 DUP3 PUSH2 0x1462 JUMP JUMPDEST PUSH1 0x0 DUP3 DUP2 MSTORE PUSH1 0x1 PUSH1 0x20 MSTORE PUSH1 0x40 SWAP1 KECCAK256 PUSH2 0x8C1 SWAP1 DUP3 PUSH2 0x135E JUMP JUMPDEST POP POP POP JUMP JUMPDEST PUSH1 0x0 PUSH2 0x8D2 DUP2 CALLER PUSH2 0x13DA JUMP JUMPDEST POP PUSH1 0x5 SSTORE JUMP JUMPDEST PUSH1 0x0 DUP1 PUSH2 0x8E5 DUP2 CALLER PUSH2 0x13DA JUMP JUMPDEST PUSH1 0x2 SLOAD PUSH1 0x0 SWAP1 PUSH2 0x8FD PUSH8 0xDE0B6B3A7640000 DUP8 PUSH2 0x2240 JUMP JUMPDEST PUSH2 0x907 SWAP2 SWAP1 PUSH2 0x2220 JUMP JUMPDEST SWAP1 POP PUSH2 0x913 DUP2 DUP6 PUSH2 0x225F JUMP JUMPDEST SWAP4 POP DUP1 PUSH1 0x3 PUSH1 0x0 DUP3 DUP3 SLOAD PUSH2 0x927 SWAP2 SWAP1 PUSH2 0x2208 JUMP JUMPDEST SWAP1 SWAP2 SSTORE POP PUSH2 0x935 SWAP1 POP PUSH2 0x1488 JUMP JUMPDEST POP SWAP2 SWAP4 SWAP3 POP POP POP JUMP JUMPDEST PUSH2 0x948 DUP3 DUP3 PUSH2 0x14A7 JUMP JUMPDEST PUSH1 0x0 DUP3 DUP2 MSTORE PUSH1 0x1 PUSH1 0x20 MSTORE PUSH1 0x40 SWAP1 KECCAK256 PUSH2 0x8C1 SWAP1 DUP3 PUSH2 0x152F JUMP JUMPDEST PUSH1 0x0 DUP1 PUSH2 0x96D DUP2 CALLER PUSH2 0x13DA JUMP JUMPDEST PUSH1 0x2 SLOAD PUSH1 0x0 SWAP1 PUSH2 0x985 DUP6 PUSH8 0xDE0B6B3A7640000 PUSH2 0x2240 JUMP JUMPDEST PUSH2 0x98F SWAP2 SWAP1 PUSH2 0x2220 JUMP JUMPDEST SWAP1 POP PUSH1 0x0 PUSH2 0x99D DUP3 DUP7 PUSH2 0x225F JUMP JUMPDEST SWAP1 POP DUP7 ISZERO PUSH2 0xB59 JUMPI DUP1 PUSH1 0x13 PUSH1 0x0 DUP3 DUP3 SLOAD PUSH2 0x9B7 SWAP2 SWAP1 PUSH2 0x2208 JUMP JUMPDEST SWAP3 POP POP DUP2 SWAP1 SSTORE POP DUP2 PUSH1 0x14 PUSH1 0x0 DUP3 DUP3 SLOAD PUSH2 0x9D0 SWAP2 SWAP1 PUSH2 0x2208 JUMP JUMPDEST SWAP1 SWAP2 SSTORE POP POP PUSH1 0x6 SLOAD PUSH1 0x40 MLOAD PUSH4 0x70A08231 PUSH1 0xE0 SHL DUP2 MSTORE PUSH1 0x1 PUSH1 0x1 PUSH1 0xA0 SHL SUB DUP9 DUP2 AND PUSH1 0x4 DUP4 ADD MSTORE PUSH1 0x0 SWAP3 AND SWAP1 PUSH4 0x70A08231 SWAP1 PUSH1 0x24 ADD PUSH1 0x20 PUSH1 0x40 MLOAD DUP1 DUP4 SUB DUP2 DUP7 DUP1 EXTCODESIZE ISZERO DUP1 ISZERO PUSH2 0xA1B JUMPI PUSH1 0x0 DUP1 REVERT JUMPDEST POP GAS STATICCALL ISZERO DUP1 ISZERO PUSH2 0xA2F JUMPI RETURNDATASIZE PUSH1 0x0 DUP1 RETURNDATACOPY RETURNDATASIZE PUSH1 0x0 REVERT JUMPDEST POP POP POP POP PUSH1 0x40 MLOAD RETURNDATASIZE PUSH1 0x1F NOT PUSH1 0x1F DUP3 ADD AND DUP3 ADD DUP1 PUSH1 0x40 MSTORE POP DUP2 ADD SWAP1 PUSH2 0xA53 SWAP2 SWAP1 PUSH2 0x2111 JUMP JUMPDEST PUSH1 0x1 PUSH1 0x1 PUSH1 0xA0 SHL SUB DUP9 AND PUSH1 0x0 SWAP1 DUP2 MSTORE PUSH1 0x16 PUSH1 0x20 MSTORE PUSH1 0x40 SWAP1 KECCAK256 SLOAD SWAP1 SWAP2 POP ISZERO DUP1 PUSH2 0xA79 JUMPI POP DUP1 ISZERO JUMPDEST ISZERO PUSH2 0xA9B JUMPI PUSH1 0x15 SLOAD PUSH1 0x1 PUSH1 0x1 PUSH1 0xA0 SHL SUB DUP9 AND PUSH1 0x0 SWAP1 DUP2 MSTORE PUSH1 0x16 PUSH1 0x20 MSTORE PUSH1 0x40 SWAP1 KECCAK256 SSTORE JUMPDEST PUSH1 0x1 PUSH1 0x1 PUSH1 0xA0 SHL SUB DUP8 AND PUSH1 0x0 SWAP1 DUP2 MSTORE PUSH1 0x16 PUSH1 0x20 MSTORE PUSH1 0x40 DUP2 KECCAK256 SLOAD PUSH1 0xF SLOAD PUSH2 0xAC1 SWAP2 SWAP1 PUSH2 0x2208 JUMP JUMPDEST SWAP1 POP PUSH1 0x0 TIMESTAMP DUP3 GT PUSH2 0xAD3 JUMPI PUSH1 0x0 PUSH2 0xADD JUMP JUMPDEST PUSH2 0xADD TIMESTAMP DUP4 PUSH2 0x225F JUMP JUMPDEST SWAP1 POP PUSH1 0x0 PUSH2 0xAEB DUP10 DUP6 PUSH2 0x2208 JUMP JUMPDEST PUSH1 0xF SLOAD PUSH2 0xAF8 SWAP1 DUP12 PUSH2 0x2240 JUMP JUMPDEST PUSH2 0xB02 DUP5 DUP8 PUSH2 0x2240 JUMP JUMPDEST PUSH2 0xB0C SWAP2 SWAP1 PUSH2 0x2208 JUMP JUMPDEST PUSH2 0xB16 SWAP2 SWAP1 PUSH2 0x2220 JUMP JUMPDEST SWAP1 POP PUSH2 0xB22 DUP3 DUP3 PUSH2 0x225F JUMP JUMPDEST PUSH1 0x1 PUSH1 0x1 PUSH1 0xA0 SHL SUB DUP12 AND PUSH1 0x0 SWAP1 DUP2 MSTORE PUSH1 0x16 PUSH1 0x20 MSTORE PUSH1 0x40 DUP2 KECCAK256 DUP1 SLOAD SWAP1 SWAP2 SWAP1 PUSH2 0xB4A SWAP1 DUP5 SWAP1 PUSH2 0x225F JUMP JUMPDEST SWAP1 SWAP2 SSTORE POP PUSH2 0xB8A SWAP5 POP POP POP POP POP JUMP JUMPDEST DUP1 PUSH1 0x13 PUSH1 0x0 DUP3 DUP3 SLOAD PUSH2 0xB6B SWAP2 SWAP1 PUSH2 0x225F JUMP JUMPDEST SWAP3 POP POP DUP2 SWAP1 SSTORE POP DUP2 PUSH1 0x14 PUSH1 0x0 DUP3 DUP3 SLOAD PUSH2 0xB84 SWAP2 SWAP1 PUSH2 0x225F JUMP JUMPDEST SWAP1 SWAP2 SSTORE POP POP JUMPDEST POP SWAP6 SWAP5 POP POP POP POP POP JUMP JUMPDEST PUSH1 0x0 DUP1 PUSH2 0xBA1 DUP2 CALLER PUSH2 0x13DA JUMP JUMPDEST PUSH1 0x2 SLOAD PUSH2 0x875 PUSH8 0xDE0B6B3A7640000 DUP6 PUSH2 0x2240 JUMP JUMPDEST PUSH2 0xBE1 PUSH1 0x40 MLOAD DUP1 PUSH1 0x80 ADD PUSH1 0x40 MSTORE DUP1 PUSH1 0x0 DUP2 MSTORE PUSH1 0x20 ADD PUSH1 0x0 DUP2 MSTORE PUSH1 0x20 ADD PUSH1 0x0 DUP2 MSTORE PUSH1 0x20 ADD PUSH1 0x0 DUP2 MSTORE POP SWAP1 JUMP JUMPDEST PUSH1 0x0 PUSH2 0xBED DUP2 CALLER PUSH2 0x13DA JUMP JUMPDEST PUSH1 0x2 SLOAD PUSH1 0x0 SWAP1 PUSH2 0xC09 PUSH8 0xDE0B6B3A7640000 PUSH1 0x40 DUP8 ADD CALLDATALOAD PUSH2 0x2240 JUMP JUMPDEST PUSH2 0xC13 SWAP2 SWAP1 PUSH2 0x2220 JUMP JUMPDEST SWAP1 POP PUSH1 0x0 DUP2 GT PUSH2 0xC6A JUMPI PUSH1 0x40 MLOAD PUSH3 0x461BCD PUSH1 0xE5 SHL DUP2 MSTORE PUSH1 0x20 PUSH1 0x4 DUP3 ADD MSTORE PUSH1 0xC PUSH1 0x24 DUP3 ADD MSTORE PUSH32 0x4E42543A2021616D6F756E740000000000000000000000000000000000000000 PUSH1 0x44 DUP3 ADD MSTORE PUSH1 0x64 ADD JUMPDEST PUSH1 0x40 MLOAD DUP1 SWAP2 SUB SWAP1 REVERT JUMPDEST PUSH1 0x0 PUSH2 0xC9D PUSH32 0x789F97575F27A6B4CEB7F0DFF24D6988BF9835006797A01CFAEDC572E88A2C7B PUSH2 0x570 PUSH1 0x20 DUP9 ADD DUP9 PUSH2 0x1ED9 JUMP JUMPDEST SWAP1 POP DUP1 ISZERO DUP1 PUSH2 0xCC9 JUMPI POP DUP1 DUP1 ISZERO PUSH2 0xCB8 JUMPI POP PUSH3 0xF4240 PUSH1 0x12 SLOAD LT JUMPDEST DUP1 ISZERO PUSH2 0xCC9 JUMPI POP PUSH1 0x11 SLOAD DUP6 PUSH1 0x40 ADD CALLDATALOAD LT JUMPDEST PUSH2 0xD15 JUMPI PUSH1 0x40 MLOAD PUSH3 0x461BCD PUSH1 0xE5 SHL DUP2 MSTORE PUSH1 0x20 PUSH1 0x4 DUP3 ADD MSTORE PUSH1 0xF PUSH1 0x24 DUP3 ADD MSTORE PUSH32 0x4E42543A20216275795F6C696D69740000000000000000000000000000000000 PUSH1 0x44 DUP3 ADD MSTORE PUSH1 0x64 ADD PUSH2 0xC61 JUMP JUMPDEST PUSH1 0x0 PUSH2 0xD4B PUSH32 0x789F97575F27A6B4CEB7F0DFF24D6988BF9835006797A01CFAEDC572E88A2C7B PUSH2 0x570 PUSH1 0x40 DUP10 ADD PUSH1 0x20 DUP11 ADD PUSH2 0x1ED9 JUMP JUMPDEST SWAP1 POP PUSH1 0x0 PUSH1 0x16 DUP2 PUSH2 0xD5F PUSH1 0x20 DUP11 ADD DUP11 PUSH2 0x1ED9 JUMP JUMPDEST PUSH1 0x1 PUSH1 0x1 PUSH1 0xA0 SHL SUB AND PUSH1 0x1 PUSH1 0x1 PUSH1 0xA0 SHL SUB AND DUP2 MSTORE PUSH1 0x20 ADD SWAP1 DUP2 MSTORE PUSH1 0x20 ADD PUSH1 0x0 KECCAK256 SLOAD TIMESTAMP GT PUSH2 0xD8D JUMPI PUSH1 0x0 PUSH2 0xDC2 JUMP JUMPDEST PUSH1 0x16 PUSH1 0x0 PUSH2 0xD9E PUSH1 0x20 DUP11 ADD DUP11 PUSH2 0x1ED9 JUMP JUMPDEST PUSH1 0x1 PUSH1 0x1 PUSH1 0xA0 SHL SUB AND DUP2 MSTORE PUSH1 0x20 DUP2 ADD SWAP2 SWAP1 SWAP2 MSTORE PUSH1 0x40 ADD PUSH1 0x0 KECCAK256 SLOAD PUSH2 0xDC2 SWAP1 TIMESTAMP PUSH2 0x225F JUMP JUMPDEST SWAP1 POP PUSH1 0x0 DUP3 DUP1 ISZERO PUSH2 0xDD4 JUMPI POP PUSH1 0x9 SLOAD DUP3 LT JUMPDEST ISZERO DUP1 ISZERO PUSH2 0xE0F JUMPI POP PUSH2 0xE0D PUSH32 0x5BF81CABE53AB1FAC30C9F534A726D1EFA4D39604CAE6FBB7D5396C82EF5F5CF PUSH2 0x570 PUSH1 0x20 DUP12 ADD DUP12 PUSH2 0x1ED9 JUMP JUMPDEST ISZERO JUMPDEST DUP1 ISZERO PUSH2 0xE62 JUMPI POP PUSH2 0xE2B PUSH2 0xE26 PUSH1 0x20 DUP11 ADD DUP11 PUSH2 0x1ED9 JUMP JUMPDEST EXTCODESIZE ISZERO SWAP1 JUMP JUMPDEST DUP1 PUSH2 0xE62 JUMPI POP PUSH2 0xE62 PUSH32 0x789F97575F27A6B4CEB7F0DFF24D6988BF9835006797A01CFAEDC572E88A2C7B PUSH2 0x570 PUSH1 0x20 DUP12 ADD DUP12 PUSH2 0x1ED9 JUMP JUMPDEST SWAP1 POP PUSH1 0x0 DUP2 ISZERO PUSH2 0xEA0 JUMPI DUP4 ISZERO PUSH2 0xE9B JUMPI PUSH1 0x0 PUSH2 0xE7D DUP5 PUSH2 0x1544 JUMP JUMPDEST SWAP1 POP PUSH3 0xF4240 PUSH2 0xE8D DUP3 DUP10 PUSH2 0x2240 JUMP JUMPDEST PUSH2 0xE97 SWAP2 SWAP1 PUSH2 0x2220 JUMP JUMPDEST SWAP2 POP POP JUMPDEST PUSH2 0xF5B JUMP JUMPDEST DUP5 PUSH2 0xF5B JUMPI PUSH3 0xF4240 PUSH1 0x8 SLOAD DUP8 PUSH2 0xEB7 SWAP2 SWAP1 PUSH2 0x2240 JUMP JUMPDEST PUSH2 0xEC1 SWAP2 SWAP1 PUSH2 0x2220 JUMP JUMPDEST SWAP1 POP PUSH1 0x0 PUSH3 0xF4240 PUSH1 0x8 SLOAD DUP12 PUSH1 0x40 ADD CALLDATALOAD PUSH2 0xEDB SWAP2 SWAP1 PUSH2 0x2240 JUMP JUMPDEST PUSH2 0xEE5 SWAP2 SWAP1 PUSH2 0x2220 JUMP JUMPDEST SWAP1 POP PUSH32 0xA1A76B56D422BE0A4C14CCC1281231AA006E67B6E03DCC433A873DC285491E51 PUSH2 0xF15 PUSH1 0x20 DUP13 ADD DUP13 PUSH2 0x1ED9 JUMP JUMPDEST PUSH2 0xF25 PUSH1 0x40 DUP14 ADD PUSH1 0x20 DUP15 ADD PUSH2 0x1ED9 JUMP JUMPDEST PUSH1 0x40 DUP1 MLOAD PUSH1 0x1 PUSH1 0x1 PUSH1 0xA0 SHL SUB SWAP4 DUP5 AND DUP2 MSTORE SWAP3 SWAP1 SWAP2 AND PUSH1 0x20 DUP4 ADD MSTORE DUP1 DUP14 ADD CALLDATALOAD SWAP1 DUP3 ADD MSTORE PUSH1 0x60 DUP2 ADD DUP4 SWAP1 MSTORE PUSH1 0x80 ADD PUSH1 0x40 MLOAD DUP1 SWAP2 SUB SWAP1 LOG1 POP JUMPDEST DUP4 PUSH2 0x10D0 JUMPI PUSH1 0x16 PUSH1 0x0 PUSH2 0xF74 PUSH1 0x40 DUP13 ADD PUSH1 0x20 DUP14 ADD PUSH2 0x1ED9 JUMP JUMPDEST PUSH1 0x1 PUSH1 0x1 PUSH1 0xA0 SHL SUB AND DUP2 MSTORE PUSH1 0x20 DUP2 ADD SWAP2 SWAP1 SWAP2 MSTORE PUSH1 0x40 ADD PUSH1 0x0 KECCAK256 SLOAD ISZERO DUP1 PUSH2 0xF9C JUMPI POP PUSH1 0x80 DUP10 ADD CALLDATALOAD ISZERO JUMPDEST ISZERO PUSH2 0xFD3 JUMPI PUSH1 0x15 SLOAD PUSH1 0x16 PUSH1 0x0 PUSH2 0xFB8 PUSH1 0x40 DUP14 ADD PUSH1 0x20 DUP15 ADD PUSH2 0x1ED9 JUMP JUMPDEST PUSH1 0x1 PUSH1 0x1 PUSH1 0xA0 SHL SUB AND DUP2 MSTORE PUSH1 0x20 DUP2 ADD SWAP2 SWAP1 SWAP2 MSTORE PUSH1 0x40 ADD PUSH1 0x0 KECCAK256 SSTORE JUMPDEST PUSH1 0x0 PUSH1 0x16 DUP2 PUSH2 0xFE8 PUSH1 0x40 DUP14 ADD PUSH1 0x20 DUP15 ADD PUSH2 0x1ED9 JUMP JUMPDEST PUSH1 0x1 PUSH1 0x1 PUSH1 0xA0 SHL SUB AND PUSH1 0x1 PUSH1 0x1 PUSH1 0xA0 SHL SUB AND DUP2 MSTORE PUSH1 0x20 ADD SWAP1 DUP2 MSTORE PUSH1 0x20 ADD PUSH1 0x0 KECCAK256 SLOAD PUSH1 0xF SLOAD PUSH2 0x1016 SWAP2 SWAP1 PUSH2 0x2208 JUMP JUMPDEST SWAP1 POP PUSH1 0x0 TIMESTAMP DUP3 GT PUSH2 0x1028 JUMPI PUSH1 0x0 PUSH2 0x1032 JUMP JUMPDEST PUSH2 0x1032 TIMESTAMP DUP4 PUSH2 0x225F JUMP JUMPDEST SWAP1 POP PUSH1 0x0 PUSH2 0x1044 DUP10 PUSH1 0x80 DUP15 ADD CALLDATALOAD PUSH2 0x2208 JUMP JUMPDEST PUSH1 0xF SLOAD PUSH2 0x1051 SWAP1 DUP12 PUSH2 0x2240 JUMP JUMPDEST DUP4 DUP15 PUSH1 0x80 ADD CALLDATALOAD PUSH2 0x1061 SWAP2 SWAP1 PUSH2 0x2240 JUMP JUMPDEST PUSH2 0x106B SWAP2 SWAP1 PUSH2 0x2208 JUMP JUMPDEST PUSH2 0x1075 SWAP2 SWAP1 PUSH2 0x2220 JUMP JUMPDEST SWAP1 POP PUSH2 0x1081 DUP3 DUP3 PUSH2 0x225F JUMP JUMPDEST PUSH1 0x16 PUSH1 0x0 DUP15 PUSH1 0x20 ADD PUSH1 0x20 DUP2 ADD SWAP1 PUSH2 0x1098 SWAP2 SWAP1 PUSH2 0x1ED9 JUMP JUMPDEST PUSH1 0x1 PUSH1 0x1 PUSH1 0xA0 SHL SUB AND PUSH1 0x1 PUSH1 0x1 PUSH1 0xA0 SHL SUB AND DUP2 MSTORE PUSH1 0x20 ADD SWAP1 DUP2 MSTORE PUSH1 0x20 ADD PUSH1 0x0 KECCAK256 PUSH1 0x0 DUP3 DUP3 SLOAD PUSH2 0x10C7 SWAP2 SWAP1 PUSH2 0x225F JUMP JUMPDEST SWAP1 SWAP2 SSTORE POP POP POP POP POP JUMPDEST PUSH1 0x0 PUSH2 0x10DC DUP3 DUP9 PUSH2 0x225F JUMP JUMPDEST SWAP1 POP PUSH2 0x10EC DUP8 PUSH1 0x60 DUP13 ADD CALLDATALOAD PUSH2 0x225F JUMP JUMPDEST DUP10 MSTORE PUSH2 0x10FC DUP2 PUSH1 0x80 DUP13 ADD CALLDATALOAD PUSH2 0x2208 JUMP JUMPDEST PUSH1 0x20 DUP11 ADD MSTORE PUSH1 0x3 DUP1 SLOAD DUP4 SWAP2 SWAP1 PUSH1 0x0 SWAP1 PUSH2 0x1116 SWAP1 DUP5 SWAP1 PUSH2 0x2208 JUMP JUMPDEST SWAP1 SWAP2 SSTORE POP POP PUSH1 0x2 SLOAD PUSH8 0xDE0B6B3A7640000 SWAP1 PUSH2 0x1132 SWAP1 DUP5 PUSH2 0x2240 JUMP JUMPDEST PUSH2 0x113C SWAP2 SWAP1 PUSH2 0x2220 JUMP JUMPDEST PUSH1 0x40 DUP1 DUP12 ADD DUP3 SWAP1 MSTORE PUSH2 0x1151 SWAP2 SWAP1 DUP13 ADD CALLDATALOAD PUSH2 0x225F JUMP JUMPDEST PUSH1 0x60 DUP11 ADD MSTORE PUSH2 0x115E PUSH2 0x1488 JUMP JUMPDEST POP POP POP POP POP POP POP POP SWAP2 SWAP1 POP JUMP JUMPDEST PUSH1 0x0 DUP1 PUSH2 0x1178 DUP2 CALLER PUSH2 0x13DA JUMP JUMPDEST POP POP PUSH1 0x13 SLOAD SWAP1 JUMP JUMPDEST PUSH1 0x0 DUP3 DUP2 MSTORE PUSH1 0x1 PUSH1 0x20 MSTORE PUSH1 0x40 DUP2 KECCAK256 PUSH2 0x1198 SWAP1 DUP4 PUSH2 0x1636 JUMP JUMPDEST SWAP4 SWAP3 POP POP POP JUMP JUMPDEST PUSH1 0x0 PUSH2 0x11AB DUP2 CALLER PUSH2 0x13DA JUMP JUMPDEST POP PUSH1 0x12 SSTORE JUMP JUMPDEST PUSH1 0x40 DUP1 MLOAD DUP1 DUP3 ADD SWAP1 SWAP2 MSTORE PUSH1 0x0 DUP1 DUP3 MSTORE PUSH1 0x20 DUP3 ADD MSTORE PUSH1 0x1 PUSH1 0x1 PUSH1 0xA0 SHL SUB DUP3 AND PUSH1 0x0 SWAP1 DUP2 MSTORE PUSH1 0x16 PUSH1 0x20 MSTORE PUSH1 0x40 DUP2 KECCAK256 SLOAD TIMESTAMP GT PUSH2 0x11EB JUMPI PUSH1 0x0 PUSH2 0x120E JUMP JUMPDEST PUSH1 0x1 PUSH1 0x1 PUSH1 0xA0 SHL SUB DUP4 AND PUSH1 0x0 SWAP1 DUP2 MSTORE PUSH1 0x16 PUSH1 0x20 MSTORE PUSH1 0x40 SWAP1 KECCAK256 SLOAD PUSH2 0x120E SWAP1 TIMESTAMP PUSH2 0x225F JUMP JUMPDEST SWAP1 POP PUSH2 0x1219 DUP2 PUSH2 0x1544 JUMP JUMPDEST DUP3 MSTORE PUSH1 0xF SLOAD DUP2 LT PUSH2 0x122B JUMPI PUSH1 0x0 PUSH2 0x1239 JUMP JUMPDEST DUP1 PUSH1 0xF SLOAD PUSH2 0x1239 SWAP2 SWAP1 PUSH2 0x225F JUMP JUMPDEST PUSH1 0x20 DUP4 ADD MSTORE POP SWAP2 SWAP1 POP JUMP JUMPDEST PUSH1 0x0 PUSH2 0x1250 DUP2 CALLER PUSH2 0x13DA JUMP JUMPDEST POP PUSH1 0xC SWAP2 SWAP1 SWAP2 SSTORE PUSH1 0xD SSTORE JUMP JUMPDEST PUSH1 0x0 DUP1 PUSH2 0x1269 DUP2 CALLER PUSH2 0x13DA JUMP JUMPDEST PUSH1 0x13 SLOAD PUSH1 0x14 SLOAD PUSH2 0x1279 SWAP2 SWAP1 PUSH2 0x2208 JUMP JUMPDEST SWAP2 POP POP SWAP1 JUMP JUMPDEST PUSH1 0x0 DUP2 DUP2 MSTORE PUSH1 0x1 PUSH1 0x20 MSTORE PUSH1 0x40 DUP2 KECCAK256 PUSH2 0x7A0 SWAP1 PUSH2 0x1642 JUMP JUMPDEST PUSH2 0x948 DUP3 DUP3 PUSH2 0x164C JUMP JUMPDEST PUSH1 0x0 PUSH2 0x12AC DUP2 CALLER PUSH2 0x13DA JUMP JUMPDEST PUSH1 0x0 JUMPDEST DUP3 DUP2 LT ISZERO PUSH2 0x1302 JUMPI PUSH2 0x12F0 DUP6 DUP6 DUP6 DUP5 DUP2 DUP2 LT PUSH2 0x12DB JUMPI PUSH4 0x4E487B71 PUSH1 0xE0 SHL PUSH1 0x0 MSTORE PUSH1 0x32 PUSH1 0x4 MSTORE PUSH1 0x24 PUSH1 0x0 REVERT JUMPDEST SWAP1 POP PUSH1 0x20 MUL ADD PUSH1 0x20 DUP2 ADD SWAP1 PUSH2 0x822 SWAP2 SWAP1 PUSH2 0x1ED9 JUMP JUMPDEST DUP1 PUSH2 0x12FA DUP2 PUSH2 0x22B9 JUMP JUMPDEST SWAP2 POP POP PUSH2 0x12AF JUMP JUMPDEST POP POP POP POP POP JUMP JUMPDEST PUSH1 0x4 SLOAD TIMESTAMP GT ISZERO PUSH2 0x131B JUMPI PUSH2 0x131B PUSH2 0x1672 JUMP JUMPDEST JUMP JUMPDEST PUSH1 0x0 PUSH2 0x1329 DUP2 CALLER PUSH2 0x13DA JUMP JUMPDEST POP PUSH1 0xE SWAP3 SWAP1 SWAP3 SSTORE PUSH1 0xF SSTORE PUSH1 0x10 SSTORE JUMP JUMPDEST PUSH1 0x0 PUSH2 0x1344 DUP2 CALLER PUSH2 0x13DA JUMP JUMPDEST POP PUSH1 0xA SWAP2 SWAP1 SWAP2 SSTORE PUSH1 0xB SSTORE JUMP JUMPDEST PUSH2 0x135A DUP3 DUP3 PUSH2 0x19F1 JUMP JUMPDEST POP POP JUMP JUMPDEST PUSH1 0x0 PUSH2 0x1198 DUP4 PUSH1 0x1 PUSH1 0x1 PUSH1 0xA0 SHL SUB DUP5 AND PUSH2 0x1A8F JUMP JUMPDEST PUSH1 0x0 PUSH1 0x1 PUSH1 0x1 PUSH1 0xE0 SHL SUB NOT DUP3 AND PUSH32 0x7965DB0B00000000000000000000000000000000000000000000000000000000 EQ DUP1 PUSH2 0x7A0 JUMPI POP PUSH32 0x1FFC9A700000000000000000000000000000000000000000000000000000000 PUSH1 0x1 PUSH1 0x1 PUSH1 0xE0 SHL SUB NOT DUP4 AND EQ PUSH2 0x7A0 JUMP JUMPDEST PUSH1 0x0 DUP3 DUP2 MSTORE PUSH1 0x20 DUP2 DUP2 MSTORE PUSH1 0x40 DUP1 DUP4 KECCAK256 PUSH1 0x1 PUSH1 0x1 PUSH1 0xA0 SHL SUB DUP6 AND DUP5 MSTORE SWAP1 SWAP2 MSTORE SWAP1 KECCAK256 SLOAD PUSH1 0xFF AND PUSH2 0x135A JUMPI PUSH2 0x1416 DUP2 PUSH1 0x1 PUSH1 0x1 PUSH1 0xA0 SHL SUB AND PUSH1 0x14 PUSH2 0x1ADE JUMP JUMPDEST PUSH2 0x1421 DUP4 PUSH1 0x20 PUSH2 0x1ADE JUMP JUMPDEST PUSH1 0x40 MLOAD PUSH1 0x20 ADD PUSH2 0x1432 SWAP3 SWAP2 SWAP1 PUSH2 0x2154 JUMP JUMPDEST PUSH1 0x40 DUP1 MLOAD PUSH1 0x1F NOT DUP2 DUP5 SUB ADD DUP2 MSTORE SWAP1 DUP3 SWAP1 MSTORE PUSH3 0x461BCD PUSH1 0xE5 SHL DUP3 MSTORE PUSH2 0xC61 SWAP2 PUSH1 0x4 ADD PUSH2 0x21D5 JUMP JUMPDEST PUSH2 0x8A9 DUP3 DUP3 PUSH2 0x1350 JUMP JUMPDEST PUSH1 0x0 DUP3 DUP2 MSTORE PUSH1 0x20 DUP2 SWAP1 MSTORE PUSH1 0x40 SWAP1 KECCAK256 PUSH1 0x1 ADD SLOAD PUSH2 0x147E DUP2 CALLER PUSH2 0x13DA JUMP JUMPDEST PUSH2 0x8C1 DUP4 DUP4 PUSH2 0x19F1 JUMP JUMPDEST PUSH1 0x5 SLOAD PUSH1 0x4 SLOAD PUSH2 0x1498 SWAP2 SWAP1 PUSH2 0x2208 JUMP JUMPDEST TIMESTAMP GT ISZERO PUSH2 0x131B JUMPI PUSH2 0x131B PUSH2 0x1672 JUMP JUMPDEST PUSH1 0x1 PUSH1 0x1 PUSH1 0xA0 SHL SUB DUP2 AND CALLER EQ PUSH2 0x1525 JUMPI PUSH1 0x40 MLOAD PUSH3 0x461BCD PUSH1 0xE5 SHL DUP2 MSTORE PUSH1 0x20 PUSH1 0x4 DUP3 ADD MSTORE PUSH1 0x2F PUSH1 0x24 DUP3 ADD MSTORE PUSH32 0x416363657373436F6E74726F6C3A2063616E206F6E6C792072656E6F756E6365 PUSH1 0x44 DUP3 ADD MSTORE PUSH32 0x20726F6C657320666F722073656C660000000000000000000000000000000000 PUSH1 0x64 DUP3 ADD MSTORE PUSH1 0x84 ADD PUSH2 0xC61 JUMP JUMPDEST PUSH2 0x135A DUP3 DUP3 PUSH2 0x1D05 JUMP JUMPDEST PUSH1 0x0 PUSH2 0x1198 DUP4 PUSH1 0x1 PUSH1 0x1 PUSH1 0xA0 SHL SUB DUP5 AND PUSH2 0x1D84 JUMP JUMPDEST PUSH1 0x0 PUSH1 0xF SLOAD DUP3 GT ISZERO PUSH2 0x1558 JUMPI POP POP PUSH1 0x10 SLOAD SWAP1 JUMP JUMPDEST PUSH1 0xD SLOAD DUP3 GT ISZERO PUSH2 0x1597 JUMPI PUSH1 0xD SLOAD PUSH1 0xF SLOAD PUSH2 0x1572 SWAP2 SWAP1 PUSH2 0x225F JUMP JUMPDEST DUP3 PUSH1 0xF SLOAD PUSH2 0x1580 SWAP2 SWAP1 PUSH2 0x225F JUMP JUMPDEST PUSH1 0xE SLOAD PUSH2 0x158D SWAP2 SWAP1 PUSH2 0x2240 JUMP JUMPDEST PUSH2 0x7A0 SWAP2 SWAP1 PUSH2 0x2220 JUMP JUMPDEST PUSH1 0xB SLOAD DUP3 GT ISZERO PUSH2 0x15EF JUMPI PUSH1 0xB SLOAD PUSH1 0xD SLOAD PUSH2 0x15B1 SWAP2 SWAP1 PUSH2 0x225F JUMP JUMPDEST PUSH1 0xB SLOAD PUSH2 0x15BE SWAP1 DUP5 PUSH2 0x225F JUMP JUMPDEST PUSH1 0xE SLOAD PUSH1 0xC SLOAD PUSH2 0x15CE SWAP2 SWAP1 PUSH2 0x225F JUMP JUMPDEST PUSH2 0x15D8 SWAP2 SWAP1 PUSH2 0x2240 JUMP JUMPDEST PUSH2 0x15E2 SWAP2 SWAP1 PUSH2 0x2220 JUMP JUMPDEST PUSH1 0xC SLOAD PUSH2 0x7A0 SWAP2 SWAP1 PUSH2 0x225F JUMP JUMPDEST PUSH1 0x9 SLOAD DUP3 GT ISZERO PUSH2 0x162E JUMPI PUSH1 0xB SLOAD DUP3 PUSH1 0xC SLOAD PUSH1 0xA SLOAD PUSH2 0x160D SWAP2 SWAP1 PUSH2 0x225F JUMP JUMPDEST PUSH2 0x1617 SWAP2 SWAP1 PUSH2 0x2240 JUMP JUMPDEST PUSH2 0x1621 SWAP2 SWAP1 PUSH2 0x2220 JUMP JUMPDEST PUSH1 0xA SLOAD PUSH2 0x7A0 SWAP2 SWAP1 PUSH2 0x225F JUMP JUMPDEST POP POP PUSH1 0x8 SLOAD SWAP1 JUMP JUMPDEST PUSH1 0x0 PUSH2 0x1198 DUP4 DUP4 PUSH2 0x1EA1 JUMP JUMPDEST PUSH1 0x0 PUSH2 0x7A0 DUP3 SLOAD SWAP1 JUMP JUMPDEST PUSH1 0x0 DUP3 DUP2 MSTORE PUSH1 0x20 DUP2 SWAP1 MSTORE PUSH1 0x40 SWAP1 KECCAK256 PUSH1 0x1 ADD SLOAD PUSH2 0x1668 DUP2 CALLER PUSH2 0x13DA JUMP JUMPDEST PUSH2 0x8C1 DUP4 DUP4 PUSH2 0x1D05 JUMP JUMPDEST TIMESTAMP PUSH1 0x4 SSTORE PUSH1 0x3 SLOAD ISZERO PUSH2 0x1871 JUMPI PUSH1 0x0 PUSH3 0xF4240 PUSH1 0x7 SLOAD PUSH1 0x3 SLOAD PUSH2 0x1694 SWAP2 SWAP1 PUSH2 0x2240 JUMP JUMPDEST PUSH2 0x169E SWAP2 SWAP1 PUSH2 0x2220 JUMP JUMPDEST SWAP1 POP PUSH1 0x0 DUP2 PUSH1 0x3 SLOAD PUSH2 0x16B0 SWAP2 SWAP1 PUSH2 0x225F JUMP JUMPDEST SWAP1 POP DUP1 PUSH1 0x13 PUSH1 0x0 DUP3 DUP3 SLOAD PUSH2 0x16C4 SWAP2 SWAP1 PUSH2 0x2208 JUMP JUMPDEST SWAP1 SWAP2 SSTORE POP POP PUSH1 0x3 SLOAD PUSH1 0x14 DUP1 SLOAD PUSH1 0x0 SWAP1 PUSH2 0x16DE SWAP1 DUP5 SWAP1 PUSH2 0x225F JUMP JUMPDEST SWAP1 SWAP2 SSTORE POP POP PUSH1 0x0 PUSH1 0x3 SSTORE PUSH1 0x13 SLOAD DUP3 ISZERO PUSH2 0x1801 JUMPI PUSH1 0x0 PUSH2 0x171E PUSH32 0x603FD68989965F050033092155BB64AE91E5363FEA3409EF877C949328C541E5 PUSH1 0x0 PUSH2 0x1180 JUMP JUMPDEST PUSH1 0x6 SLOAD PUSH1 0x2 SLOAD SWAP2 SWAP3 POP PUSH1 0x1 PUSH1 0x1 PUSH1 0xA0 SHL SUB AND SWAP1 DUP2 SWAP1 PUSH4 0xBB9FF5D SWAP1 DUP5 SWAP1 PUSH8 0xDE0B6B3A7640000 SWAP1 PUSH2 0x174F SWAP1 DUP11 PUSH2 0x2240 JUMP JUMPDEST PUSH2 0x1759 SWAP2 SWAP1 PUSH2 0x2220 JUMP JUMPDEST PUSH1 0x40 MLOAD PUSH1 0x1 PUSH1 0x1 PUSH1 0xE0 SHL SUB NOT PUSH1 0xE0 DUP6 SWAP1 SHL AND DUP2 MSTORE PUSH1 0x1 PUSH1 0x1 PUSH1 0xA0 SHL SUB SWAP1 SWAP3 AND PUSH1 0x4 DUP4 ADD MSTORE PUSH1 0x24 DUP3 ADD MSTORE PUSH1 0x44 ADD PUSH1 0x0 PUSH1 0x40 MLOAD DUP1 DUP4 SUB DUP2 PUSH1 0x0 DUP8 DUP1 EXTCODESIZE ISZERO DUP1 ISZERO PUSH2 0x179F JUMPI PUSH1 0x0 DUP1 REVERT JUMPDEST POP GAS CALL ISZERO DUP1 ISZERO PUSH2 0x17B3 JUMPI RETURNDATASIZE PUSH1 0x0 DUP1 RETURNDATACOPY RETURNDATASIZE PUSH1 0x0 REVERT JUMPDEST POP POP POP PUSH1 0x13 DUP5 SWAP1 SSTORE POP PUSH1 0x40 DUP1 MLOAD PUSH1 0x1 PUSH1 0x1 PUSH1 0xA0 SHL SUB DUP5 AND DUP2 MSTORE PUSH1 0x20 DUP2 ADD DUP8 SWAP1 MSTORE PUSH32 0x50E71DBF1D972FA3C0618C2FB1267D56A399175B463C486D15995E34BF6CD610 SWAP2 ADD PUSH1 0x40 MLOAD DUP1 SWAP2 SUB SWAP1 LOG1 POP POP JUMPDEST PUSH1 0x14 SLOAD PUSH1 0x13 SLOAD PUSH2 0x1819 SWAP1 PUSH8 0xDE0B6B3A7640000 PUSH2 0x2240 JUMP JUMPDEST PUSH2 0x1823 SWAP2 SWAP1 PUSH2 0x2220 JUMP JUMPDEST PUSH2 0x1835 SWAP1 PUSH8 0xDE0B6B3A7640000 PUSH2 0x2208 JUMP JUMPDEST PUSH1 0x2 DUP2 SWAP1 SSTORE PUSH1 0x40 MLOAD SWAP1 DUP2 MSTORE PUSH32 0x4DBE4840D7465BD162F67814CEA0B519567A2E0E578BCDE61E7F4CED361E5A3D SWAP1 PUSH1 0x20 ADD PUSH1 0x40 MLOAD DUP1 SWAP2 SUB SWAP1 LOG1 POP POP POP JUMPDEST PUSH3 0xF4240 PUSH1 0x12 SLOAD LT ISZERO PUSH2 0x131B JUMPI PUSH1 0x6 SLOAD PUSH1 0x40 MLOAD PUSH32 0x6FB1A0700000000000000000000000000000000000000000000000000000000 DUP2 MSTORE PUSH1 0x3 PUSH1 0x4 DUP3 ADD MSTORE PUSH1 0x0 SWAP2 PUSH1 0x1 PUSH1 0x1 PUSH1 0xA0 SHL SUB AND SWAP1 PUSH4 0x6FB1A07 SWAP1 PUSH1 0x24 ADD PUSH1 0x20 PUSH1 0x40 MLOAD DUP1 DUP4 SUB DUP2 DUP7 DUP1 EXTCODESIZE ISZERO DUP1 ISZERO PUSH2 0x18DC JUMPI PUSH1 0x0 DUP1 REVERT JUMPDEST POP GAS STATICCALL ISZERO DUP1 ISZERO PUSH2 0x18F0 JUMPI RETURNDATASIZE PUSH1 0x0 DUP1 RETURNDATACOPY RETURNDATASIZE PUSH1 0x0 REVERT JUMPDEST POP POP POP POP PUSH1 0x40 MLOAD RETURNDATASIZE PUSH1 0x1F NOT PUSH1 0x1F DUP3 ADD AND DUP3 ADD DUP1 PUSH1 0x40 MSTORE POP DUP2 ADD SWAP1 PUSH2 0x1914 SWAP2 SWAP1 PUSH2 0x1EF5 JUMP JUMPDEST PUSH1 0x6 SLOAD PUSH1 0x40 MLOAD PUSH4 0x70A08231 PUSH1 0xE0 SHL DUP2 MSTORE PUSH1 0x1 PUSH1 0x1 PUSH1 0xA0 SHL SUB DUP1 DUP5 AND PUSH1 0x4 DUP4 ADD MSTORE SWAP3 SWAP4 POP PUSH1 0x0 SWAP3 SWAP1 SWAP2 AND SWAP1 PUSH4 0x70A08231 SWAP1 PUSH1 0x24 ADD PUSH1 0x20 PUSH1 0x40 MLOAD DUP1 DUP4 SUB DUP2 DUP7 DUP1 EXTCODESIZE ISZERO DUP1 ISZERO PUSH2 0x195F JUMPI PUSH1 0x0 DUP1 REVERT JUMPDEST POP GAS STATICCALL ISZERO DUP1 ISZERO PUSH2 0x1973 JUMPI RETURNDATASIZE PUSH1 0x0 DUP1 RETURNDATACOPY RETURNDATASIZE PUSH1 0x0 REVERT JUMPDEST POP POP POP POP PUSH1 0x40 MLOAD RETURNDATASIZE PUSH1 0x1F NOT PUSH1 0x1F DUP3 ADD AND DUP3 ADD DUP1 PUSH1 0x40 MSTORE POP DUP2 ADD SWAP1 PUSH2 0x1997 SWAP2 SWAP1 PUSH2 0x2111 JUMP JUMPDEST SWAP1 POP PUSH3 0xF4240 PUSH1 0x12 SLOAD DUP3 PUSH2 0x19AB SWAP2 SWAP1 PUSH2 0x2240 JUMP JUMPDEST PUSH2 0x19B5 SWAP2 SWAP1 PUSH2 0x2220 JUMP JUMPDEST PUSH1 0x11 DUP2 SWAP1 SSTORE PUSH1 0x40 MLOAD SWAP1 DUP2 MSTORE PUSH32 0x7BA725E56DCC09F610B29C747F1D1AFAB653F8048E4B527C0BAEDF8ED35858CB SWAP1 PUSH1 0x20 ADD PUSH1 0x40 MLOAD DUP1 SWAP2 SUB SWAP1 LOG1 POP POP JUMP JUMPDEST PUSH1 0x0 DUP3 DUP2 MSTORE PUSH1 0x20 DUP2 DUP2 MSTORE PUSH1 0x40 DUP1 DUP4 KECCAK256 PUSH1 0x1 PUSH1 0x1 PUSH1 0xA0 SHL SUB DUP6 AND DUP5 MSTORE SWAP1 SWAP2 MSTORE SWAP1 KECCAK256 SLOAD PUSH1 0xFF AND PUSH2 0x135A JUMPI PUSH1 0x0 DUP3 DUP2 MSTORE PUSH1 0x20 DUP2 DUP2 MSTORE PUSH1 0x40 DUP1 DUP4 KECCAK256 PUSH1 0x1 PUSH1 0x1 PUSH1 0xA0 SHL SUB DUP6 AND DUP5 MSTORE SWAP1 SWAP2 MSTORE SWAP1 KECCAK256 DUP1 SLOAD PUSH1 0xFF NOT AND PUSH1 0x1 OR SWAP1 SSTORE PUSH2 0x1A4B CALLER SWAP1 JUMP JUMPDEST PUSH1 0x1 PUSH1 0x1 PUSH1 0xA0 SHL SUB AND DUP2 PUSH1 0x1 PUSH1 0x1 PUSH1 0xA0 SHL SUB AND DUP4 PUSH32 0x2F8788117E7EFF1D82E926EC794901D17C78024A50270940304540A733656F0D PUSH1 0x40 MLOAD PUSH1 0x40 MLOAD DUP1 SWAP2 SUB SWAP1 LOG4 POP POP JUMP JUMPDEST PUSH1 0x0 DUP2 DUP2 MSTORE PUSH1 0x1 DUP4 ADD PUSH1 0x20 MSTORE PUSH1 0x40 DUP2 KECCAK256 SLOAD PUSH2 0x1AD6 JUMPI POP DUP2 SLOAD PUSH1 0x1 DUP2 DUP2 ADD DUP5 SSTORE PUSH1 0x0 DUP5 DUP2 MSTORE PUSH1 0x20 DUP1 DUP3 KECCAK256 SWAP1 SWAP4 ADD DUP5 SWAP1 SSTORE DUP5 SLOAD DUP5 DUP3 MSTORE DUP3 DUP7 ADD SWAP1 SWAP4 MSTORE PUSH1 0x40 SWAP1 KECCAK256 SWAP2 SWAP1 SWAP2 SSTORE PUSH2 0x7A0 JUMP JUMPDEST POP PUSH1 0x0 PUSH2 0x7A0 JUMP JUMPDEST PUSH1 0x60 PUSH1 0x0 PUSH2 0x1AED DUP4 PUSH1 0x2 PUSH2 0x2240 JUMP JUMPDEST PUSH2 0x1AF8 SWAP1 PUSH1 0x2 PUSH2 0x2208 JUMP JUMPDEST PUSH8 0xFFFFFFFFFFFFFFFF DUP2 GT ISZERO PUSH2 0x1B1E JUMPI PUSH4 0x4E487B71 PUSH1 0xE0 SHL PUSH1 0x0 MSTORE PUSH1 0x41 PUSH1 0x4 MSTORE PUSH1 0x24 PUSH1 0x0 REVERT JUMPDEST PUSH1 0x40 MLOAD SWAP1 DUP1 DUP3 MSTORE DUP1 PUSH1 0x1F ADD PUSH1 0x1F NOT AND PUSH1 0x20 ADD DUP3 ADD PUSH1 0x40 MSTORE DUP1 ISZERO PUSH2 0x1B48 JUMPI PUSH1 0x20 DUP3 ADD DUP2 DUP1 CALLDATASIZE DUP4 CALLDATACOPY ADD SWAP1 POP JUMPDEST POP SWAP1 POP PUSH32 0x3000000000000000000000000000000000000000000000000000000000000000 DUP2 PUSH1 0x0 DUP2 MLOAD DUP2 LT PUSH2 0x1B8D JUMPI PUSH4 0x4E487B71 PUSH1 0xE0 SHL PUSH1 0x0 MSTORE PUSH1 0x32 PUSH1 0x4 MSTORE PUSH1 0x24 PUSH1 0x0 REVERT JUMPDEST PUSH1 0x20 ADD ADD SWAP1 PUSH1 0x1 PUSH1 0x1 PUSH1 0xF8 SHL SUB NOT AND SWAP1 DUP2 PUSH1 0x0 BYTE SWAP1 MSTORE8 POP PUSH32 0x7800000000000000000000000000000000000000000000000000000000000000 DUP2 PUSH1 0x1 DUP2 MLOAD DUP2 LT PUSH2 0x1BE6 JUMPI PUSH4 0x4E487B71 PUSH1 0xE0 SHL PUSH1 0x0 MSTORE PUSH1 0x32 PUSH1 0x4 MSTORE PUSH1 0x24 PUSH1 0x0 REVERT JUMPDEST PUSH1 0x20 ADD ADD SWAP1 PUSH1 0x1 PUSH1 0x1 PUSH1 0xF8 SHL SUB NOT AND SWAP1 DUP2 PUSH1 0x0 BYTE SWAP1 MSTORE8 POP PUSH1 0x0 PUSH2 0x1C0A DUP5 PUSH1 0x2 PUSH2 0x2240 JUMP JUMPDEST PUSH2 0x1C15 SWAP1 PUSH1 0x1 PUSH2 0x2208 JUMP JUMPDEST SWAP1 POP JUMPDEST PUSH1 0x1 DUP2 GT ISZERO PUSH2 0x1CB6 JUMPI PUSH32 0x3031323334353637383961626364656600000000000000000000000000000000 DUP6 PUSH1 0xF AND PUSH1 0x10 DUP2 LT PUSH2 0x1C64 JUMPI PUSH4 0x4E487B71 PUSH1 0xE0 SHL PUSH1 0x0 MSTORE PUSH1 0x32 PUSH1 0x4 MSTORE PUSH1 0x24 PUSH1 0x0 REVERT JUMPDEST BYTE PUSH1 0xF8 SHL DUP3 DUP3 DUP2 MLOAD DUP2 LT PUSH2 0x1C88 JUMPI PUSH4 0x4E487B71 PUSH1 0xE0 SHL PUSH1 0x0 MSTORE PUSH1 0x32 PUSH1 0x4 MSTORE PUSH1 0x24 PUSH1 0x0 REVERT JUMPDEST PUSH1 0x20 ADD ADD SWAP1 PUSH1 0x1 PUSH1 0x1 PUSH1 0xF8 SHL SUB NOT AND SWAP1 DUP2 PUSH1 0x0 BYTE SWAP1 MSTORE8 POP PUSH1 0x4 SWAP5 SWAP1 SWAP5 SHR SWAP4 PUSH2 0x1CAF DUP2 PUSH2 0x22A2 JUMP JUMPDEST SWAP1 POP PUSH2 0x1C18 JUMP JUMPDEST POP DUP4 ISZERO PUSH2 0x1198 JUMPI PUSH1 0x40 MLOAD PUSH3 0x461BCD PUSH1 0xE5 SHL DUP2 MSTORE PUSH1 0x20 PUSH1 0x4 DUP3 ADD DUP2 SWAP1 MSTORE PUSH1 0x24 DUP3 ADD MSTORE PUSH32 0x537472696E67733A20686578206C656E67746820696E73756666696369656E74 PUSH1 0x44 DUP3 ADD MSTORE PUSH1 0x64 ADD PUSH2 0xC61 JUMP JUMPDEST PUSH1 0x0 DUP3 DUP2 MSTORE PUSH1 0x20 DUP2 DUP2 MSTORE PUSH1 0x40 DUP1 DUP4 KECCAK256 PUSH1 0x1 PUSH1 0x1 PUSH1 0xA0 SHL SUB DUP6 AND DUP5 MSTORE SWAP1 SWAP2 MSTORE SWAP1 KECCAK256 SLOAD PUSH1 0xFF AND ISZERO PUSH2 0x135A JUMPI PUSH1 0x0 DUP3 DUP2 MSTORE PUSH1 0x20 DUP2 DUP2 MSTORE PUSH1 0x40 DUP1 DUP4 KECCAK256 PUSH1 0x1 PUSH1 0x1 PUSH1 0xA0 SHL SUB DUP6 AND DUP1 DUP6 MSTORE SWAP3 MSTORE DUP1 DUP4 KECCAK256 DUP1 SLOAD PUSH1 0xFF NOT AND SWAP1 SSTORE MLOAD CALLER SWAP3 DUP6 SWAP2 PUSH32 0xF6391F5C32D9C69D2A47EA670B442974B53935D1EDC7FD64EB21E047A839171B SWAP2 SWAP1 LOG4 POP POP JUMP JUMPDEST PUSH1 0x0 DUP2 DUP2 MSTORE PUSH1 0x1 DUP4 ADD PUSH1 0x20 MSTORE PUSH1 0x40 DUP2 KECCAK256 SLOAD DUP1 ISZERO PUSH2 0x1E97 JUMPI PUSH1 0x0 PUSH2 0x1DA8 PUSH1 0x1 DUP4 PUSH2 0x225F JUMP JUMPDEST DUP6 SLOAD SWAP1 SWAP2 POP PUSH1 0x0 SWAP1 PUSH2 0x1DBC SWAP1 PUSH1 0x1 SWAP1 PUSH2 0x225F JUMP JUMPDEST SWAP1 POP DUP2 DUP2 EQ PUSH2 0x1E3D JUMPI PUSH1 0x0 DUP7 PUSH1 0x0 ADD DUP3 DUP2 SLOAD DUP2 LT PUSH2 0x1DEA JUMPI PUSH4 0x4E487B71 PUSH1 0xE0 SHL PUSH1 0x0 MSTORE PUSH1 0x32 PUSH1 0x4 MSTORE PUSH1 0x24 PUSH1 0x0 REVERT JUMPDEST SWAP1 PUSH1 0x0 MSTORE PUSH1 0x20 PUSH1 0x0 KECCAK256 ADD SLOAD SWAP1 POP DUP1 DUP8 PUSH1 0x0 ADD DUP5 DUP2 SLOAD DUP2 LT PUSH2 0x1E1B JUMPI PUSH4 0x4E487B71 PUSH1 0xE0 SHL PUSH1 0x0 MSTORE PUSH1 0x32 PUSH1 0x4 MSTORE PUSH1 0x24 PUSH1 0x0 REVERT JUMPDEST PUSH1 0x0 SWAP2 DUP3 MSTORE PUSH1 0x20 DUP1 DUP4 KECCAK256 SWAP1 SWAP2 ADD SWAP3 SWAP1 SWAP3 SSTORE SWAP2 DUP3 MSTORE PUSH1 0x1 DUP9 ADD SWAP1 MSTORE PUSH1 0x40 SWAP1 KECCAK256 DUP4 SWAP1 SSTORE JUMPDEST DUP6 SLOAD DUP7 SWAP1 DUP1 PUSH2 0x1E5C JUMPI PUSH4 0x4E487B71 PUSH1 0xE0 SHL PUSH1 0x0 MSTORE PUSH1 0x31 PUSH1 0x4 MSTORE PUSH1 0x24 PUSH1 0x0 REVERT JUMPDEST PUSH1 0x1 SWAP1 SUB DUP2 DUP2 SWAP1 PUSH1 0x0 MSTORE PUSH1 0x20 PUSH1 0x0 KECCAK256 ADD PUSH1 0x0 SWAP1 SSTORE SWAP1 SSTORE DUP6 PUSH1 0x1 ADD PUSH1 0x0 DUP7 DUP2 MSTORE PUSH1 0x20 ADD SWAP1 DUP2 MSTORE PUSH1 0x20 ADD PUSH1 0x0 KECCAK256 PUSH1 0x0 SWAP1 SSTORE PUSH1 0x1 SWAP4 POP POP POP POP PUSH2 0x7A0 JUMP JUMPDEST PUSH1 0x0 SWAP2 POP POP PUSH2 0x7A0 JUMP JUMPDEST PUSH1 0x0 DUP3 PUSH1 0x0 ADD DUP3 DUP2 SLOAD DUP2 LT PUSH2 0x1EC6 JUMPI PUSH4 0x4E487B71 PUSH1 0xE0 SHL PUSH1 0x0 MSTORE PUSH1 0x32 PUSH1 0x4 MSTORE PUSH1 0x24 PUSH1 0x0 REVERT JUMPDEST SWAP1 PUSH1 0x0 MSTORE PUSH1 0x20 PUSH1 0x0 KECCAK256 ADD SLOAD SWAP1 POP SWAP3 SWAP2 POP POP JUMP JUMPDEST PUSH1 0x0 PUSH1 0x20 DUP3 DUP5 SUB SLT ISZERO PUSH2 0x1EEA JUMPI DUP1 DUP2 REVERT JUMPDEST DUP2 CALLDATALOAD PUSH2 0x1198 DUP2 PUSH2 0x22EA JUMP JUMPDEST PUSH1 0x0 PUSH1 0x20 DUP3 DUP5 SUB SLT ISZERO PUSH2 0x1F06 JUMPI DUP1 DUP2 REVERT JUMPDEST DUP2 MLOAD PUSH2 0x1198 DUP2 PUSH2 0x22EA JUMP JUMPDEST PUSH1 0x0 DUP1 PUSH1 0x40 DUP4 DUP6 SUB SLT ISZERO PUSH2 0x1F23 JUMPI DUP1 DUP2 REVERT JUMPDEST DUP3 CALLDATALOAD PUSH2 0x1F2E DUP2 PUSH2 0x22EA JUMP JUMPDEST SWAP5 PUSH1 0x20 SWAP4 SWAP1 SWAP4 ADD CALLDATALOAD SWAP4 POP POP POP JUMP JUMPDEST PUSH1 0x0 DUP1 PUSH1 0x20 DUP4 DUP6 SUB SLT ISZERO PUSH2 0x1F4E JUMPI DUP2 DUP3 REVERT JUMPDEST DUP3 CALLDATALOAD PUSH8 0xFFFFFFFFFFFFFFFF DUP1 DUP3 GT ISZERO PUSH2 0x1F65 JUMPI DUP4 DUP5 REVERT JUMPDEST DUP2 DUP6 ADD SWAP2 POP DUP6 PUSH1 0x1F DUP4 ADD SLT PUSH2 0x1F78 JUMPI DUP4 DUP5 REVERT JUMPDEST DUP2 CALLDATALOAD DUP2 DUP2 GT ISZERO PUSH2 0x1F86 JUMPI DUP5 DUP6 REVERT JUMPDEST DUP7 PUSH1 0x20 DUP3 PUSH1 0x6 SHL DUP6 ADD ADD GT ISZERO PUSH2 0x1F9A JUMPI DUP5 DUP6 REVERT JUMPDEST PUSH1 0x20 SWAP3 SWAP1 SWAP3 ADD SWAP7 SWAP2 SWAP6 POP SWAP1 SWAP4 POP POP POP POP JUMP JUMPDEST PUSH1 0x0 DUP1 PUSH1 0x0 PUSH1 0x60 DUP5 DUP7 SUB SLT ISZERO PUSH2 0x1FC0 JUMPI DUP1 DUP2 REVERT JUMPDEST DUP4 CALLDATALOAD DUP1 ISZERO ISZERO DUP2 EQ PUSH2 0x1FCF JUMPI DUP2 DUP3 REVERT JUMPDEST SWAP3 POP PUSH1 0x20 DUP5 ADD CALLDATALOAD PUSH2 0x1FDF DUP2 PUSH2 0x22EA JUMP JUMPDEST SWAP3 SWAP6 SWAP3 SWAP5 POP POP POP PUSH1 0x40 SWAP2 SWAP1 SWAP2 ADD CALLDATALOAD SWAP1 JUMP JUMPDEST PUSH1 0x0 PUSH1 0x20 DUP3 DUP5 SUB SLT ISZERO PUSH2 0x2001 JUMPI DUP1 DUP2 REVERT JUMPDEST POP CALLDATALOAD SWAP2 SWAP1 POP JUMP JUMPDEST PUSH1 0x0 DUP1 PUSH1 0x40 DUP4 DUP6 SUB SLT ISZERO PUSH2 0x201A JUMPI DUP2 DUP3 REVERT JUMPDEST DUP3 CALLDATALOAD SWAP2 POP PUSH1 0x20 DUP4 ADD CALLDATALOAD PUSH2 0x202C DUP2 PUSH2 0x22EA JUMP JUMPDEST DUP1 SWAP2 POP POP SWAP3 POP SWAP3 SWAP1 POP JUMP JUMPDEST PUSH1 0x0 DUP1 PUSH1 0x0 PUSH1 0x40 DUP5 DUP7 SUB SLT ISZERO PUSH2 0x204B JUMPI DUP3 DUP4 REVERT JUMPDEST DUP4 CALLDATALOAD SWAP3 POP PUSH1 0x20 DUP5 ADD CALLDATALOAD PUSH8 0xFFFFFFFFFFFFFFFF DUP1 DUP3 GT ISZERO PUSH2 0x2069 JUMPI DUP4 DUP5 REVERT JUMPDEST DUP2 DUP7 ADD SWAP2 POP DUP7 PUSH1 0x1F DUP4 ADD SLT PUSH2 0x207C JUMPI DUP4 DUP5 REVERT JUMPDEST DUP2 CALLDATALOAD DUP2 DUP2 GT ISZERO PUSH2 0x208A JUMPI DUP5 DUP6 REVERT JUMPDEST DUP8 PUSH1 0x20 DUP3 PUSH1 0x5 SHL DUP6 ADD ADD GT ISZERO PUSH2 0x209E JUMPI DUP5 DUP6 REVERT JUMPDEST PUSH1 0x20 DUP4 ADD SWAP5 POP DUP1 SWAP4 POP POP POP POP SWAP3 POP SWAP3 POP SWAP3 JUMP JUMPDEST PUSH1 0x0 DUP1 PUSH1 0x40 DUP4 DUP6 SUB SLT ISZERO PUSH2 0x20C3 JUMPI DUP2 DUP3 REVERT JUMPDEST POP POP DUP1 CALLDATALOAD SWAP3 PUSH1 0x20 SWAP1 SWAP2 ADD CALLDATALOAD SWAP2 POP JUMP JUMPDEST PUSH1 0x0 PUSH1 0x20 DUP3 DUP5 SUB SLT ISZERO PUSH2 0x20E3 JUMPI DUP1 DUP2 REVERT JUMPDEST DUP2 CALLDATALOAD PUSH1 0x1 PUSH1 0x1 PUSH1 0xE0 SHL SUB NOT DUP2 AND DUP2 EQ PUSH2 0x1198 JUMPI DUP2 DUP3 REVERT JUMPDEST PUSH1 0x0 PUSH1 0xA0 DUP3 DUP5 SUB SLT ISZERO PUSH2 0x210B JUMPI DUP1 DUP2 REVERT JUMPDEST POP SWAP2 SWAP1 POP JUMP JUMPDEST PUSH1 0x0 PUSH1 0x20 DUP3 DUP5 SUB SLT ISZERO PUSH2 0x2122 JUMPI DUP1 DUP2 REVERT JUMPDEST POP MLOAD SWAP2 SWAP1 POP JUMP JUMPDEST PUSH1 0x0 DUP1 PUSH1 0x0 PUSH1 0x60 DUP5 DUP7 SUB SLT ISZERO PUSH2 0x213D JUMPI DUP3 DUP4 REVERT JUMPDEST POP POP DUP2 CALLDATALOAD SWAP4 PUSH1 0x20 DUP4 ADD CALLDATALOAD SWAP4 POP PUSH1 0x40 SWAP1 SWAP3 ADD CALLDATALOAD SWAP2 SWAP1 POP JUMP JUMPDEST PUSH32 0x416363657373436F6E74726F6C3A206163636F756E7420000000000000000000 DUP2 MSTORE PUSH1 0x0 DUP4 MLOAD PUSH2 0x218C DUP2 PUSH1 0x17 DUP6 ADD PUSH1 0x20 DUP9 ADD PUSH2 0x2276 JUMP JUMPDEST PUSH32 0x206973206D697373696E6720726F6C6520000000000000000000000000000000 PUSH1 0x17 SWAP2 DUP5 ADD SWAP2 DUP3 ADD MSTORE DUP4 MLOAD PUSH2 0x21C9 DUP2 PUSH1 0x28 DUP5 ADD PUSH1 0x20 DUP9 ADD PUSH2 0x2276 JUMP JUMPDEST ADD PUSH1 0x28 ADD SWAP5 SWAP4 POP POP POP POP JUMP JUMPDEST PUSH1 0x20 DUP2 MSTORE PUSH1 0x0 DUP3 MLOAD DUP1 PUSH1 0x20 DUP5 ADD MSTORE PUSH2 0x21F4 DUP2 PUSH1 0x40 DUP6 ADD PUSH1 0x20 DUP8 ADD PUSH2 0x2276 JUMP JUMPDEST PUSH1 0x1F ADD PUSH1 0x1F NOT AND SWAP2 SWAP1 SWAP2 ADD PUSH1 0x40 ADD SWAP3 SWAP2 POP POP JUMP JUMPDEST PUSH1 0x0 DUP3 NOT DUP3 GT ISZERO PUSH2 0x221B JUMPI PUSH2 0x221B PUSH2 0x22D4 JUMP JUMPDEST POP ADD SWAP1 JUMP JUMPDEST PUSH1 0x0 DUP3 PUSH2 0x223B JUMPI PUSH4 0x4E487B71 PUSH1 0xE0 SHL DUP2 MSTORE PUSH1 0x12 PUSH1 0x4 MSTORE PUSH1 0x24 DUP2 REVERT JUMPDEST POP DIV SWAP1 JUMP JUMPDEST PUSH1 0x0 DUP2 PUSH1 0x0 NOT DIV DUP4 GT DUP3 ISZERO ISZERO AND ISZERO PUSH2 0x225A JUMPI PUSH2 0x225A PUSH2 0x22D4 JUMP JUMPDEST POP MUL SWAP1 JUMP JUMPDEST PUSH1 0x0 DUP3 DUP3 LT ISZERO PUSH2 0x2271 JUMPI PUSH2 0x2271 PUSH2 0x22D4 JUMP JUMPDEST POP SUB SWAP1 JUMP JUMPDEST PUSH1 0x0 JUMPDEST DUP4 DUP2 LT ISZERO PUSH2 0x2291 JUMPI DUP2 DUP2 ADD MLOAD DUP4 DUP3 ADD MSTORE PUSH1 0x20 ADD PUSH2 0x2279 JUMP JUMPDEST DUP4 DUP2 GT ISZERO PUSH2 0x839 JUMPI POP POP PUSH1 0x0 SWAP2 ADD MSTORE JUMP JUMPDEST PUSH1 0x0 DUP2 PUSH2 0x22B1 JUMPI PUSH2 0x22B1 PUSH2 0x22D4 JUMP JUMPDEST POP PUSH1 0x0 NOT ADD SWAP1 JUMP JUMPDEST PUSH1 0x0 PUSH1 0x0 NOT DUP3 EQ ISZERO PUSH2 0x22CD JUMPI PUSH2 0x22CD PUSH2 0x22D4 JUMP JUMPDEST POP PUSH1 0x1 ADD SWAP1 JUMP JUMPDEST PUSH4 0x4E487B71 PUSH1 0xE0 SHL PUSH1 0x0 MSTORE PUSH1 0x11 PUSH1 0x4 MSTORE PUSH1 0x24 PUSH1 0x0 REVERT JUMPDEST PUSH1 0x1 PUSH1 0x1 PUSH1 0xA0 SHL SUB DUP2 AND DUP2 EQ PUSH2 0x22FF JUMPI PUSH1 0x0 DUP1 REVERT JUMPDEST POP JUMP INVALID LOG2 PUSH5 0x6970667358 0x22 SLT KECCAK256 0x49 0xFB EXTCODESIZE 0xC1 0xAD DUP2 0xCB 0xC8 0xF9 0xCB SWAP11 SLT 0xAE 0xE 0xBC 0xBF 0xF POP 0xC6 JUMP DUP16 0x49 0x29 DUP9 SLOAD 0xAC 0xC9 SWAP13 CALLCODE EXP 0x25 PUSH23 0x64736F6C63430008040033000000000000000000000000 "
		},
		"gasEstimates": {
			"creation": {
				"codeDepositCost": "1803200",
				"executionCost": "infinite",
				"totalCost": "infinite"
			},
			"external": {
				"ROLE_ADMIN()": "252",
				"ROLE_BOT()": "274",
				"ROLE_DEX()": "272",
				"ROLE_TEAM_BENEFICIARY()": "296",
				"batchBurnAndReward()": "1097",
				"botTaxPercent()": "1053",
				"buyLimitAmount()": "1095",
				"buyLimitPercent()": "1096",
				"buyTimestampStorage(address)": "1291",
				"cachedMultiplier()": "1097",
				"chargeCustomTax(uint256,uint256)": "infinite",
				"cycleOneEnds()": "1074",
				"cycleOneStartTaxPercent()": "1095",
				"cycleThreeEndTaxPercent()": "1074",
				"cycleThreeEnds()": "1051",
				"cycleThreeStartTaxPercent()": "1094",
				"cycleTwoEnds()": "1054",
				"cycleTwoStartTaxPercent()": "1051",
				"deployedContractAtTimestamp()": "1074",
				"getBalance(address,uint256)": "infinite",
				"getRealBalance(address,uint256)": "infinite",
				"getRewardsBalance()": "infinite",
				"getRoleAdmin(bytes32)": "1227",
				"getRoleMember(bytes32,uint256)": "infinite",
				"getRoleMemberCount(bytes32)": "infinite",
				"getTotalSupply()": "infinite",
				"getWalletCurrentCycle(address)": "7316",
				"grantOneRoleBulk(bytes32,address[])": "infinite",
				"grantRole(bytes32,address)": "infinite",
				"grantRolesBulk((bytes32,address)[])": "infinite",
				"hasRole(bytes32,address)": "1462",
				"howManyFirstMinutesIncreasedTax()": "1073",
				"lastCachedTimestamp()": "1096",
				"prepareHumanAddressMintOrBurnRewardsAmounts(bool,address,uint256)": "infinite",
				"prepareTaxAmounts((address,address,uint256,uint256,uint256))": "infinite",
				"publicForcedUpdateCacheMultiplier()": "infinite",
				"realTotalSupply()": "1050",
				"renounceRole(bytes32,address)": "infinite",
				"revokeRole(bytes32,address)": "infinite",
				"rewardsBalance()": "1075",
				"secondsBetweenRecacheUpdates()": "1096",
				"supportsInterface(bytes4)": "infinite",
				"teamPercentOfTax()": "1073",
				"updateBotTaxSettings(uint256,uint256)": "infinite",
				"updateBuyLimitPercent(uint256)": "infinite",
				"updateCycleOneSettings(uint256,uint256)": "infinite",
				"updateCycleTwoSettings(uint256,uint256)": "infinite",
				"updateCycleTwoSettings(uint256,uint256,uint256)": "infinite",
				"updateDefiFactoryTokenAddress(address)": "21205",
				"updateSecondsBetweenUpdates(uint256)": "infinite",
				"updateTeamPercentOfTax(uint256)": "infinite"
			},
			"internal": {
				"calculateCurrentCycleTax(uint256)": "infinite",
				"delayedUpdateCacheMultiplier()": "infinite",
				"forcedUpdateCacheMultiplier()": "infinite",
				"isNotContract(address)": "infinite"
			}
		},
		"methodIdentifiers": {
			"ROLE_ADMIN()": "d391014b",
			"ROLE_BOT()": "4ccc35fb",
			"ROLE_DEX()": "f687e46e",
			"ROLE_TEAM_BENEFICIARY()": "94b2242e",
			"batchBurnAndReward()": "1336a98f",
			"botTaxPercent()": "1857b512",
			"buyLimitAmount()": "e62684db",
			"buyLimitPercent()": "326e9539",
			"buyTimestampStorage(address)": "dfd5e129",
			"cachedMultiplier()": "36177818",
			"chargeCustomTax(uint256,uint256)": "36098758",
			"cycleOneEnds()": "372affbf",
			"cycleOneStartTaxPercent()": "7207786f",
			"cycleThreeEndTaxPercent()": "9394aa66",
			"cycleThreeEnds()": "60fd5fd7",
			"cycleThreeStartTaxPercent()": "fc78bab3",
			"cycleTwoEnds()": "01bf9180",
			"cycleTwoStartTaxPercent()": "e7baf7f4",
			"deployedContractAtTimestamp()": "abfd4ec3",
			"getBalance(address,uint256)": "2b04e840",
			"getRealBalance(address,uint256)": "5cdba003",
			"getRewardsBalance()": "858a135d",
			"getRoleAdmin(bytes32)": "248a9ca3",
			"getRoleMember(bytes32,uint256)": "9010d07c",
			"getRoleMemberCount(bytes32)": "ca15c873",
			"getTotalSupply()": "c4e41b22",
			"getWalletCurrentCycle(address)": "9be810cc",
			"grantOneRoleBulk(bytes32,address[])": "dda7498e",
			"grantRole(bytes32,address)": "2f2ff15d",
			"grantRolesBulk((bytes32,address)[])": "03ed957f",
			"hasRole(bytes32,address)": "91d14854",
			"howManyFirstMinutesIncreasedTax()": "c4a8a169",
			"lastCachedTimestamp()": "40142e55",
			"prepareHumanAddressMintOrBurnRewardsAmounts(bool,address,uint256)": "42e58a63",
			"prepareTaxAmounts((address,address,uint256,uint256,uint256))": "815a61e0",
			"publicForcedUpdateCacheMultiplier()": "e8ac6e4e",
			"realTotalSupply()": "ef356a79",
			"renounceRole(bytes32,address)": "36568abe",
			"revokeRole(bytes32,address)": "d547741f",
			"rewardsBalance()": "131f2e53",
			"secondsBetweenRecacheUpdates()": "da9b835a",
			"supportsInterface(bytes4)": "01ffc9a7",
			"teamPercentOfTax()": "62109feb",
			"updateBotTaxSettings(uint256,uint256)": "2cf136f3",
			"updateBuyLimitPercent(uint256)": "9219023f",
			"updateCycleOneSettings(uint256,uint256)": "fed77a80",
			"updateCycleTwoSettings(uint256,uint256)": "b6c5ab7b",
			"updateCycleTwoSettings(uint256,uint256,uint256)": "ebc27241",
			"updateDefiFactoryTokenAddress(address)": "bc6537e8",
			"updateSecondsBetweenUpdates(uint256)": "342c1919",
			"updateTeamPercentOfTax(uint256)": "119d7898"
		}
	},
	"abi": [
		{
			"inputs": [],
			"stateMutability": "nonpayable",
			"type": "constructor"
		},
		{
			"anonymous": false,
			"inputs": [
				{
					"indexed": false,
					"internalType": "address",
					"name": "from",
					"type": "address"
				},
				{
					"indexed": false,
					"internalType": "address",
					"name": "to",
					"type": "address"
				},
				{
					"indexed": false,
					"internalType": "uint256",
					"name": "transferAmount",
					"type": "uint256"
				},
				{
					"indexed": false,
					"internalType": "uint256",
					"name": "taxedAmount",
					"type": "uint256"
				}
			],
			"name": "BotTransactionDetected",
			"type": "event"
		},
		{
			"anonymous": false,
			"inputs": [
				{
					"indexed": false,
					"internalType": "uint256",
					"name": "newBuyLimitAmount",
					"type": "uint256"
				}
			],
			"name": "BuyLimitAmountUpdated",
			"type": "event"
		},
		{
			"anonymous": false,
			"inputs": [
				{
					"indexed": false,
					"internalType": "uint256",
					"name": "newMultiplier",
					"type": "uint256"
				}
			],
			"name": "MultiplierUpdated",
			"type": "event"
		},
		{
			"anonymous": false,
			"inputs": [
				{
					"indexed": true,
					"internalType": "bytes32",
					"name": "role",
					"type": "bytes32"
				},
				{
					"indexed": true,
					"internalType": "bytes32",
					"name": "previousAdminRole",
					"type": "bytes32"
				},
				{
					"indexed": true,
					"internalType": "bytes32",
					"name": "newAdminRole",
					"type": "bytes32"
				}
			],
			"name": "RoleAdminChanged",
			"type": "event"
		},
		{
			"anonymous": false,
			"inputs": [
				{
					"indexed": true,
					"internalType": "bytes32",
					"name": "role",
					"type": "bytes32"
				},
				{
					"indexed": true,
					"internalType": "address",
					"name": "account",
					"type": "address"
				},
				{
					"indexed": true,
					"internalType": "address",
					"name": "sender",
					"type": "address"
				}
			],
			"name": "RoleGranted",
			"type": "event"
		},
		{
			"anonymous": false,
			"inputs": [
				{
					"indexed": true,
					"internalType": "bytes32",
					"name": "role",
					"type": "bytes32"
				},
				{
					"indexed": true,
					"internalType": "address",
					"name": "account",
					"type": "address"
				},
				{
					"indexed": true,
					"internalType": "address",
					"name": "sender",
					"type": "address"
				}
			],
			"name": "RoleRevoked",
			"type": "event"
		},
		{
			"anonymous": false,
			"inputs": [
				{
					"indexed": false,
					"internalType": "address",
					"name": "to",
					"type": "address"
				},
				{
					"indexed": false,
					"internalType": "uint256",
					"name": "transferAmount",
					"type": "uint256"
				}
			],
			"name": "TeamTaxRewardsSent",
			"type": "event"
		},
		{
			"inputs": [],
			"name": "ROLE_ADMIN",
			"outputs": [
				{
					"internalType": "bytes32",
					"name": "",
					"type": "bytes32"
				}
			],
			"stateMutability": "view",
			"type": "function"
		},
		{
			"inputs": [],
			"name": "ROLE_BOT",
			"outputs": [
				{
					"internalType": "bytes32",
					"name": "",
					"type": "bytes32"
				}
			],
			"stateMutability": "view",
			"type": "function"
		},
		{
			"inputs": [],
			"name": "ROLE_DEX",
			"outputs": [
				{
					"internalType": "bytes32",
					"name": "",
					"type": "bytes32"
				}
			],
			"stateMutability": "view",
			"type": "function"
		},
		{
			"inputs": [],
			"name": "ROLE_TEAM_BENEFICIARY",
			"outputs": [
				{
					"internalType": "bytes32",
					"name": "",
					"type": "bytes32"
				}
			],
			"stateMutability": "view",
			"type": "function"
		},
		{
			"inputs": [],
			"name": "batchBurnAndReward",
			"outputs": [
				{
					"internalType": "uint256",
					"name": "",
					"type": "uint256"
				}
			],
			"stateMutability": "view",
			"type": "function"
		},
		{
			"inputs": [],
			"name": "botTaxPercent",
			"outputs": [
				{
					"internalType": "uint256",
					"name": "",
					"type": "uint256"
				}
			],
			"stateMutability": "view",
			"type": "function"
		},
		{
			"inputs": [],
			"name": "buyLimitAmount",
			"outputs": [
				{
					"internalType": "uint256",
					"name": "",
					"type": "uint256"
				}
			],
			"stateMutability": "view",
			"type": "function"
		},
		{
			"inputs": [],
			"name": "buyLimitPercent",
			"outputs": [
				{
					"internalType": "uint256",
					"name": "",
					"type": "uint256"
				}
			],
			"stateMutability": "view",
			"type": "function"
		},
		{
			"inputs": [
				{
					"internalType": "address",
					"name": "",
					"type": "address"
				}
			],
			"name": "buyTimestampStorage",
			"outputs": [
				{
					"internalType": "uint256",
					"name": "",
					"type": "uint256"
				}
			],
			"stateMutability": "view",
			"type": "function"
		},
		{
			"inputs": [],
			"name": "cachedMultiplier",
			"outputs": [
				{
					"internalType": "uint256",
					"name": "",
					"type": "uint256"
				}
			],
			"stateMutability": "view",
			"type": "function"
		},
		{
			"inputs": [
				{
					"internalType": "uint256",
					"name": "taxAmount",
					"type": "uint256"
				},
				{
					"internalType": "uint256",
					"name": "accountBalance",
					"type": "uint256"
				}
			],
			"name": "chargeCustomTax",
			"outputs": [
				{
					"internalType": "uint256",
					"name": "",
					"type": "uint256"
				}
			],
			"stateMutability": "nonpayable",
			"type": "function"
		},
		{
			"inputs": [],
			"name": "cycleOneEnds",
			"outputs": [
				{
					"internalType": "uint256",
					"name": "",
					"type": "uint256"
				}
			],
			"stateMutability": "view",
			"type": "function"
		},
		{
			"inputs": [],
			"name": "cycleOneStartTaxPercent",
			"outputs": [
				{
					"internalType": "uint256",
					"name": "",
					"type": "uint256"
				}
			],
			"stateMutability": "view",
			"type": "function"
		},
		{
			"inputs": [],
			"name": "cycleThreeEndTaxPercent",
			"outputs": [
				{
					"internalType": "uint256",
					"name": "",
					"type": "uint256"
				}
			],
			"stateMutability": "view",
			"type": "function"
		},
		{
			"inputs": [],
			"name": "cycleThreeEnds",
			"outputs": [
				{
					"internalType": "uint256",
					"name": "",
					"type": "uint256"
				}
			],
			"stateMutability": "view",
			"type": "function"
		},
		{
			"inputs": [],
			"name": "cycleThreeStartTaxPercent",
			"outputs": [
				{
					"internalType": "uint256",
					"name": "",
					"type": "uint256"
				}
			],
			"stateMutability": "view",
			"type": "function"
		},
		{
			"inputs": [],
			"name": "cycleTwoEnds",
			"outputs": [
				{
					"internalType": "uint256",
					"name": "",
					"type": "uint256"
				}
			],
			"stateMutability": "view",
			"type": "function"
		},
		{
			"inputs": [],
			"name": "cycleTwoStartTaxPercent",
			"outputs": [
				{
					"internalType": "uint256",
					"name": "",
					"type": "uint256"
				}
			],
			"stateMutability": "view",
			"type": "function"
		},
		{
			"inputs": [],
			"name": "deployedContractAtTimestamp",
			"outputs": [
				{
					"internalType": "uint256",
					"name": "",
					"type": "uint256"
				}
			],
			"stateMutability": "view",
			"type": "function"
		},
		{
			"inputs": [
				{
					"internalType": "address",
					"name": "account",
					"type": "address"
				},
				{
					"internalType": "uint256",
					"name": "accountBalance",
					"type": "uint256"
				}
			],
			"name": "getBalance",
			"outputs": [
				{
					"internalType": "uint256",
					"name": "",
					"type": "uint256"
				}
			],
			"stateMutability": "view",
			"type": "function"
		},
		{
			"inputs": [
				{
					"internalType": "address",
					"name": "account",
					"type": "address"
				},
				{
					"internalType": "uint256",
					"name": "accountBalance",
					"type": "uint256"
				}
			],
			"name": "getRealBalance",
			"outputs": [
				{
					"internalType": "uint256",
					"name": "",
					"type": "uint256"
				}
			],
			"stateMutability": "view",
			"type": "function"
		},
		{
			"inputs": [],
			"name": "getRewardsBalance",
			"outputs": [
				{
					"internalType": "uint256",
					"name": "",
					"type": "uint256"
				}
			],
			"stateMutability": "view",
			"type": "function"
		},
		{
			"inputs": [
				{
					"internalType": "bytes32",
					"name": "role",
					"type": "bytes32"
				}
			],
			"name": "getRoleAdmin",
			"outputs": [
				{
					"internalType": "bytes32",
					"name": "",
					"type": "bytes32"
				}
			],
			"stateMutability": "view",
			"type": "function"
		},
		{
			"inputs": [
				{
					"internalType": "bytes32",
					"name": "role",
					"type": "bytes32"
				},
				{
					"internalType": "uint256",
					"name": "index",
					"type": "uint256"
				}
			],
			"name": "getRoleMember",
			"outputs": [
				{
					"internalType": "address",
					"name": "",
					"type": "address"
				}
			],
			"stateMutability": "view",
			"type": "function"
		},
		{
			"inputs": [
				{
					"internalType": "bytes32",
					"name": "role",
					"type": "bytes32"
				}
			],
			"name": "getRoleMemberCount",
			"outputs": [
				{
					"internalType": "uint256",
					"name": "",
					"type": "uint256"
				}
			],
			"stateMutability": "view",
			"type": "function"
		},
		{
			"inputs": [],
			"name": "getTotalSupply",
			"outputs": [
				{
					"internalType": "uint256",
					"name": "",
					"type": "uint256"
				}
			],
			"stateMutability": "view",
			"type": "function"
		},
		{
			"inputs": [
				{
					"internalType": "address",
					"name": "addr",
					"type": "address"
				}
			],
			"name": "getWalletCurrentCycle",
			"outputs": [
				{
					"components": [
						{
							"internalType": "uint256",
							"name": "currentCycleTax",
							"type": "uint256"
						},
						{
							"internalType": "uint256",
							"name": "howMuchTimeLeftTillEndOfCycleThree",
							"type": "uint256"
						}
					],
					"internalType": "struct NoBotsTechV2.CurrectCycle",
					"name": "currentCycle",
					"type": "tuple"
				}
			],
			"stateMutability": "view",
			"type": "function"
		},
		{
			"inputs": [
				{
					"internalType": "bytes32",
					"name": "role",
					"type": "bytes32"
				},
				{
					"internalType": "address[]",
					"name": "addrs",
					"type": "address[]"
				}
			],
			"name": "grantOneRoleBulk",
			"outputs": [],
			"stateMutability": "nonpayable",
			"type": "function"
		},
		{
			"inputs": [
				{
					"internalType": "bytes32",
					"name": "role",
					"type": "bytes32"
				},
				{
					"internalType": "address",
					"name": "account",
					"type": "address"
				}
			],
			"name": "grantRole",
			"outputs": [],
			"stateMutability": "nonpayable",
			"type": "function"
		},
		{
			"inputs": [
				{
					"components": [
						{
							"internalType": "bytes32",
							"name": "role",
							"type": "bytes32"
						},
						{
							"internalType": "address",
							"name": "addr",
							"type": "address"
						}
					],
					"internalType": "struct NoBotsTechV2.RoleAccess[]",
					"name": "roles",
					"type": "tuple[]"
				}
			],
			"name": "grantRolesBulk",
			"outputs": [],
			"stateMutability": "nonpayable",
			"type": "function"
		},
		{
			"inputs": [
				{
					"internalType": "bytes32",
					"name": "role",
					"type": "bytes32"
				},
				{
					"internalType": "address",
					"name": "account",
					"type": "address"
				}
			],
			"name": "hasRole",
			"outputs": [
				{
					"internalType": "bool",
					"name": "",
					"type": "bool"
				}
			],
			"stateMutability": "view",
			"type": "function"
		},
		{
			"inputs": [],
			"name": "howManyFirstMinutesIncreasedTax",
			"outputs": [
				{
					"internalType": "uint256",
					"name": "",
					"type": "uint256"
				}
			],
			"stateMutability": "view",
			"type": "function"
		},
		{
			"inputs": [],
			"name": "lastCachedTimestamp",
			"outputs": [
				{
					"internalType": "uint256",
					"name": "",
					"type": "uint256"
				}
			],
			"stateMutability": "view",
			"type": "function"
		},
		{
			"inputs": [
				{
					"internalType": "bool",
					"name": "isMint",
					"type": "bool"
				},
				{
					"internalType": "address",
					"name": "account",
					"type": "address"
				},
				{
					"internalType": "uint256",
					"name": "desiredAmountToMintOrBurn",
					"type": "uint256"
				}
			],
			"name": "prepareHumanAddressMintOrBurnRewardsAmounts",
			"outputs": [
				{
					"internalType": "uint256",
					"name": "",
					"type": "uint256"
				}
			],
			"stateMutability": "nonpayable",
			"type": "function"
		},
		{
			"inputs": [
				{
					"components": [
						{
							"internalType": "address",
							"name": "sender",
							"type": "address"
						},
						{
							"internalType": "address",
							"name": "recipient",
							"type": "address"
						},
						{
							"internalType": "uint256",
							"name": "transferAmount",
							"type": "uint256"
						},
						{
							"internalType": "uint256",
							"name": "senderRealBalance",
							"type": "uint256"
						},
						{
							"internalType": "uint256",
							"name": "recipientRealBalance",
							"type": "uint256"
						}
					],
					"internalType": "struct TaxAmountsInput",
					"name": "taxAmountsInput",
					"type": "tuple"
				}
			],
			"name": "prepareTaxAmounts",
			"outputs": [
				{
					"components": [
						{
							"internalType": "uint256",
							"name": "senderRealBalance",
							"type": "uint256"
						},
						{
							"internalType": "uint256",
							"name": "recipientRealBalance",
							"type": "uint256"
						},
						{
							"internalType": "uint256",
							"name": "burnAndRewardAmount",
							"type": "uint256"
						},
						{
							"internalType": "uint256",
							"name": "recipientGetsAmount",
							"type": "uint256"
						}
					],
					"internalType": "struct TaxAmountsOutput",
					"name": "taxAmountsOutput",
					"type": "tuple"
				}
			],
			"stateMutability": "nonpayable",
			"type": "function"
		},
		{
			"inputs": [],
			"name": "publicForcedUpdateCacheMultiplier",
			"outputs": [],
			"stateMutability": "nonpayable",
			"type": "function"
		},
		{
			"inputs": [],
			"name": "realTotalSupply",
			"outputs": [
				{
					"internalType": "uint256",
					"name": "",
					"type": "uint256"
				}
			],
			"stateMutability": "view",
			"type": "function"
		},
		{
			"inputs": [
				{
					"internalType": "bytes32",
					"name": "role",
					"type": "bytes32"
				},
				{
					"internalType": "address",
					"name": "account",
					"type": "address"
				}
			],
			"name": "renounceRole",
			"outputs": [],
			"stateMutability": "nonpayable",
			"type": "function"
		},
		{
			"inputs": [
				{
					"internalType": "bytes32",
					"name": "role",
					"type": "bytes32"
				},
				{
					"internalType": "address",
					"name": "account",
					"type": "address"
				}
			],
			"name": "revokeRole",
			"outputs": [],
			"stateMutability": "nonpayable",
			"type": "function"
		},
		{
			"inputs": [],
			"name": "rewardsBalance",
			"outputs": [
				{
					"internalType": "uint256",
					"name": "",
					"type": "uint256"
				}
			],
			"stateMutability": "view",
			"type": "function"
		},
		{
			"inputs": [],
			"name": "secondsBetweenRecacheUpdates",
			"outputs": [
				{
					"internalType": "uint256",
					"name": "",
					"type": "uint256"
				}
			],
			"stateMutability": "view",
			"type": "function"
		},
		{
			"inputs": [
				{
					"internalType": "bytes4",
					"name": "interfaceId",
					"type": "bytes4"
				}
			],
			"name": "supportsInterface",
			"outputs": [
				{
					"internalType": "bool",
					"name": "",
					"type": "bool"
				}
			],
			"stateMutability": "view",
			"type": "function"
		},
		{
			"inputs": [],
			"name": "teamPercentOfTax",
			"outputs": [
				{
					"internalType": "uint256",
					"name": "",
					"type": "uint256"
				}
			],
			"stateMutability": "view",
			"type": "function"
		},
		{
			"inputs": [
				{
					"internalType": "uint256",
					"name": "_botTaxPercent",
					"type": "uint256"
				},
				{
					"internalType": "uint256",
					"name": "_howManyFirstMinutesIncreasedTax",
					"type": "uint256"
				}
			],
			"name": "updateBotTaxSettings",
			"outputs": [],
			"stateMutability": "nonpayable",
			"type": "function"
		},
		{
			"inputs": [
				{
					"internalType": "uint256",
					"name": "_buyLimitPercent",
					"type": "uint256"
				}
			],
			"name": "updateBuyLimitPercent",
			"outputs": [],
			"stateMutability": "nonpayable",
			"type": "function"
		},
		{
			"inputs": [
				{
					"internalType": "uint256",
					"name": "_cycleOneStartTaxPercent",
					"type": "uint256"
				},
				{
					"internalType": "uint256",
					"name": "_cycleOneEnds",
					"type": "uint256"
				}
			],
			"name": "updateCycleOneSettings",
			"outputs": [],
			"stateMutability": "nonpayable",
			"type": "function"
		},
		{
			"inputs": [
				{
					"internalType": "uint256",
					"name": "_cycleTwoStartTaxPercent",
					"type": "uint256"
				},
				{
					"internalType": "uint256",
					"name": "_cycleTwoEnds",
					"type": "uint256"
				}
			],
			"name": "updateCycleTwoSettings",
			"outputs": [],
			"stateMutability": "nonpayable",
			"type": "function"
		},
		{
			"inputs": [
				{
					"internalType": "uint256",
					"name": "_cycleThreeStartTaxPercent",
					"type": "uint256"
				},
				{
					"internalType": "uint256",
					"name": "_cycleThreeEnds",
					"type": "uint256"
				},
				{
					"internalType": "uint256",
					"name": "_cycleThreeEndTaxPercent",
					"type": "uint256"
				}
			],
			"name": "updateCycleTwoSettings",
			"outputs": [],
			"stateMutability": "nonpayable",
			"type": "function"
		},
		{
			"inputs": [
				{
					"internalType": "address",
					"name": "_defiFactoryTokenAddress",
					"type": "address"
				}
			],
			"name": "updateDefiFactoryTokenAddress",
			"outputs": [],
			"stateMutability": "nonpayable",
			"type": "function"
		},
		{
			"inputs": [
				{
					"internalType": "uint256",
					"name": "_secondsBetweenRecacheUpdates",
					"type": "uint256"
				}
			],
			"name": "updateSecondsBetweenUpdates",
			"outputs": [],
			"stateMutability": "nonpayable",
			"type": "function"
		},
		{
			"inputs": [
				{
					"internalType": "uint256",
					"name": "_teamPercentOfTax",
					"type": "uint256"
				}
			],
			"name": "updateTeamPercentOfTax",
			"outputs": [],
			"stateMutability": "nonpayable",
			"type": "function"
		}
	]
}