{
	"data": {
		"bytecode": {
			"linkReferences": {},
			"object": "608060405234801561001057600080fd5b50610cdc806100206000396000f3fe608060405234801561001057600080fd5b506004361061002b5760003560e01c8063f355c59214610030575b600080fd5b61004361003e36600461097c565b610059565b6040516100509190610a97565b60405180910390f35b604080516002808252606082810190935260009190816020015b6100ae6040518060a0016040528060006001600160a01b03168152602001606081526020016000815260200160008152602001600081525090565b8152602001906001900390816100735790505090506040518060a0016040528073123f75cf0f6a97023d957ba98e2df17ab3143ce76001600160a01b03168152602001604051806040016040528060098152602001684c697175696469747960b81b8152508152602001620249f0815260200163bbf81e00815260200160008152508160008151811061015157634e487b7160e01b600052603260045260246000fd5b60200260200101819052506040518060a0016040528073123f75cf0f6a97023d957ba98e2df17ab3143ce76001600160a01b031681526020016040518060400160405280600a815260200169546f6b656e2053616c6560b01b8152508152602001620cf850815260200162015180815260200162093a80815250816001815181106101ec57634e487b7160e01b600052603260045260246000fd5b602090810291909101015260408051600380825260808201909252600091816020015b61024a6040518060a0016040528060006001600160a01b03168152602001606081526020016000815260200160008152602001600081525090565b81526020019060019003908161020f5790505090506040518060a0016040528073987f75cf0f6a97023d957ba98e2df17ab3143ce76001600160a01b03168152602001604051806040016040528060098152602001684c697175696469747960b81b8152508152602001620dbba081526020016301e1338081526020016000815250816000815181106102ed57634e487b7160e01b600052603260045260246000fd5b60200260200101819052506040518060a0016040528073789f75cf0f6a97023d957ba98e2df17ab3143ce76001600160a01b031681526020016040518060400160405280600a815260200169546f6b656e2053616c6560b01b815250815260200161c350815260200162093a808152602001621275008152508160018151811061038757634e487b7160e01b600052603260045260246000fd5b60200260200101819052506040518060a0016040528073777f75cf0f6a97023d957ba98e2df17ab3143ce76001600160a01b031681526020016040518060400160405280600981526020017f446576656c6f7065720000000000000000000000000000000000000000000000815250815260200161c35081526020016301e1338081526020016303c267008152508160028151811061043657634e487b7160e01b600052603260045260246000fd5b602090810291909101015260408051600280825260608201909252600091816020015b610461610881565b8152602001906001900390816104595790505090506040518060c0016040528060405180610100016040528073132209d0f93ebff185990d768126d32621f40c436001600160a01b031681526020016040518060400160405280600d81526020017f4c616d626f2070726573616c65000000000000000000000000000000000000008152508152602001680ad78ebc5ac62000008152602001680ad78ebc5ac62000008152602001600015158152602001600115158152602001604051806060016040528060218152602001610c866021913981526020016040518060400160405280601d81526020017f68747470733a2f2f742e6d652f4c616d626f546f6b656e4f776e65727300000081525081525081526020016040518060a001604052808a6001600160a01b0316815260200167a688906bd8b000008152602001670de0b6b3a76400008152602001670de0b6b3a76400008152602001680ad78ebc5ac620000081525081526020016040518060a001604052808a6001600160a01b031681526020016806c6b935b8bbd40000815260200168015af1d78b58c40000815260200142620151806106149190610c61565b81526020016106264262015180610c61565b610634906301e13380610c61565b815250815260200184815260200166045eadb112e0008152602001428152508160008151811061067457634e487b7160e01b600052603260045260246000fd5b602090810291909101810191909152604080516101c08101825273132209d0f93ebff185990d768126d32621f40c4360c0820190815282518084018452600c81527f446566742070726573616c6500000000000000000000000000000000000000008186015260e083015267a688906bd8b000006101008301526801158e460913d000006101208301526001610140830181905261016083015282518084018452601b81527f68747470733a2f2f64656669666163746f72792e66696e616e636500000000008186015261018083015282518084018452601881527f68747470733a2f2f742e6d652f44656669466163746f72790000000000000000818601526101a08301528152815160a081810184526001600160a01b038c16808352670de0b6b3a76400008387015267016345785d8a0000838601819052606080850191909152678ac7230489e800006080850152848701939093528451918201855281526806c6b935b8bbd400009481019490945268015af1d78b58c400008484015290929183019190810161080a42623f4800610c61565b815260200161081c42623f4800610c61565b61082a906301e13380610c61565b8152508152602001838152602001680559bcd710a30e00008152602001428152508160018151811061086c57634e487b7160e01b600052603260045260246000fd5b60209081029190910101529695505050505050565b6040518060c001604052806108e160405180610100016040528060006001600160a01b0316815260200160608152602001600081526020016000815260200160001515815260200160001515815260200160608152602001606081525090565b81526020016109216040518060a0016040528060006001600160a01b03168152602001600081526020016000815260200160008152602001600081525090565b81526020016109616040518060a0016040528060006001600160a01b03168152602001600081526020016000815260200160008152602001600081525090565b81526020016060815260200160008152602001600081525090565b600080600060608486031215610990578283fd5b83356001600160a01b03811681146109a6578384fd5b95602085013595506040909401359392505050565b600081518084526020808501808196508360051b81019150828601855b85811015610a3f578284038952815160a06001600160a01b038251168652868201518188880152610a0b82880182610a4c565b60408481015190890152606080850151908901526080938401519390970192909252505097840197908401906001016109d8565b5091979650505050505050565b60008151808452815b81811015610a7157602081850181015186830182015201610a55565b81811115610a825782602083870101525b50601f01601f19169290920160200192915050565b60006020808301818452808551808352604092508286019150828160051b870101848801865b83811015610c5357603f19898403018552815180516101c080865281516001600160a01b031690860152888101516101006101e087015290610b036102c0870183610a4c565b915088810151610200870152606080820151610220880152608080830151610b306102408a018215159052565b5060a08381015115156102608a015260c0808501518a87036101bf199081016102808d0152610b5f8883610a4c565b975060e08701519650808c8903016102a08d01525050610b7f8686610a4c565b95508d8701519450610bc78e8b01866001600160a01b038151168252602081015160208301526040810151604083015260608101516060830152608081015160808301525050565b8c8701519450610c0d818b01866001600160a01b038151168252602081015160208301526040810151604083015260608101516060830152608081015160808301525050565b508286015193508885036101608a0152610c2785856109bb565b918601516101808a0152909401516101a090970196909652505094870194925090860190600101610abd565b509098975050505050505050565b60008219821115610c8057634e487b7160e01b81526011600452602481fd5b50019056fe68747470733a2f2f6c616d626f2e64656669666163746f72792e66696e616e6365a26469706673582212200f17b9119bde727f60efad10307066ad7ccbec0487b0a9883c0821eec659364664736f6c63430008040033",
			"opcodes": "PUSH1 0x80 PUSH1 0x40 MSTORE CALLVALUE DUP1 ISZERO PUSH2 0x10 JUMPI PUSH1 0x0 DUP1 REVERT JUMPDEST POP PUSH2 0xCDC DUP1 PUSH2 0x20 PUSH1 0x0 CODECOPY PUSH1 0x0 RETURN INVALID PUSH1 0x80 PUSH1 0x40 MSTORE CALLVALUE DUP1 ISZERO PUSH2 0x10 JUMPI PUSH1 0x0 DUP1 REVERT JUMPDEST POP PUSH1 0x4 CALLDATASIZE LT PUSH2 0x2B JUMPI PUSH1 0x0 CALLDATALOAD PUSH1 0xE0 SHR DUP1 PUSH4 0xF355C592 EQ PUSH2 0x30 JUMPI JUMPDEST PUSH1 0x0 DUP1 REVERT JUMPDEST PUSH2 0x43 PUSH2 0x3E CALLDATASIZE PUSH1 0x4 PUSH2 0x97C JUMP JUMPDEST PUSH2 0x59 JUMP JUMPDEST PUSH1 0x40 MLOAD PUSH2 0x50 SWAP2 SWAP1 PUSH2 0xA97 JUMP JUMPDEST PUSH1 0x40 MLOAD DUP1 SWAP2 SUB SWAP1 RETURN JUMPDEST PUSH1 0x40 DUP1 MLOAD PUSH1 0x2 DUP1 DUP3 MSTORE PUSH1 0x60 DUP3 DUP2 ADD SWAP1 SWAP4 MSTORE PUSH1 0x0 SWAP2 SWAP1 DUP2 PUSH1 0x20 ADD JUMPDEST PUSH2 0xAE PUSH1 0x40 MLOAD DUP1 PUSH1 0xA0 ADD PUSH1 0x40 MSTORE DUP1 PUSH1 0x0 PUSH1 0x1 PUSH1 0x1 PUSH1 0xA0 SHL SUB AND DUP2 MSTORE PUSH1 0x20 ADD PUSH1 0x60 DUP2 MSTORE PUSH1 0x20 ADD PUSH1 0x0 DUP2 MSTORE PUSH1 0x20 ADD PUSH1 0x0 DUP2 MSTORE PUSH1 0x20 ADD PUSH1 0x0 DUP2 MSTORE POP SWAP1 JUMP JUMPDEST DUP2 MSTORE PUSH1 0x20 ADD SWAP1 PUSH1 0x1 SWAP1 SUB SWAP1 DUP2 PUSH2 0x73 JUMPI SWAP1 POP POP SWAP1 POP PUSH1 0x40 MLOAD DUP1 PUSH1 0xA0 ADD PUSH1 0x40 MSTORE DUP1 PUSH20 0x123F75CF0F6A97023D957BA98E2DF17AB3143CE7 PUSH1 0x1 PUSH1 0x1 PUSH1 0xA0 SHL SUB AND DUP2 MSTORE PUSH1 0x20 ADD PUSH1 0x40 MLOAD DUP1 PUSH1 0x40 ADD PUSH1 0x40 MSTORE DUP1 PUSH1 0x9 DUP2 MSTORE PUSH1 0x20 ADD PUSH9 0x4C6971756964697479 PUSH1 0xB8 SHL DUP2 MSTORE POP DUP2 MSTORE PUSH1 0x20 ADD PUSH3 0x249F0 DUP2 MSTORE PUSH1 0x20 ADD PUSH4 0xBBF81E00 DUP2 MSTORE PUSH1 0x20 ADD PUSH1 0x0 DUP2 MSTORE POP DUP2 PUSH1 0x0 DUP2 MLOAD DUP2 LT PUSH2 0x151 JUMPI PUSH4 0x4E487B71 PUSH1 0xE0 SHL PUSH1 0x0 MSTORE PUSH1 0x32 PUSH1 0x4 MSTORE PUSH1 0x24 PUSH1 0x0 REVERT JUMPDEST PUSH1 0x20 MUL PUSH1 0x20 ADD ADD DUP2 SWAP1 MSTORE POP PUSH1 0x40 MLOAD DUP1 PUSH1 0xA0 ADD PUSH1 0x40 MSTORE DUP1 PUSH20 0x123F75CF0F6A97023D957BA98E2DF17AB3143CE7 PUSH1 0x1 PUSH1 0x1 PUSH1 0xA0 SHL SUB AND DUP2 MSTORE PUSH1 0x20 ADD PUSH1 0x40 MLOAD DUP1 PUSH1 0x40 ADD PUSH1 0x40 MSTORE DUP1 PUSH1 0xA DUP2 MSTORE PUSH1 0x20 ADD PUSH10 0x546F6B656E2053616C65 PUSH1 0xB0 SHL DUP2 MSTORE POP DUP2 MSTORE PUSH1 0x20 ADD PUSH3 0xCF850 DUP2 MSTORE PUSH1 0x20 ADD PUSH3 0x15180 DUP2 MSTORE PUSH1 0x20 ADD PUSH3 0x93A80 DUP2 MSTORE POP DUP2 PUSH1 0x1 DUP2 MLOAD DUP2 LT PUSH2 0x1EC JUMPI PUSH4 0x4E487B71 PUSH1 0xE0 SHL PUSH1 0x0 MSTORE PUSH1 0x32 PUSH1 0x4 MSTORE PUSH1 0x24 PUSH1 0x0 REVERT JUMPDEST PUSH1 0x20 SWAP1 DUP2 MUL SWAP2 SWAP1 SWAP2 ADD ADD MSTORE PUSH1 0x40 DUP1 MLOAD PUSH1 0x3 DUP1 DUP3 MSTORE PUSH1 0x80 DUP3 ADD SWAP1 SWAP3 MSTORE PUSH1 0x0 SWAP2 DUP2 PUSH1 0x20 ADD JUMPDEST PUSH2 0x24A PUSH1 0x40 MLOAD DUP1 PUSH1 0xA0 ADD PUSH1 0x40 MSTORE DUP1 PUSH1 0x0 PUSH1 0x1 PUSH1 0x1 PUSH1 0xA0 SHL SUB AND DUP2 MSTORE PUSH1 0x20 ADD PUSH1 0x60 DUP2 MSTORE PUSH1 0x20 ADD PUSH1 0x0 DUP2 MSTORE PUSH1 0x20 ADD PUSH1 0x0 DUP2 MSTORE PUSH1 0x20 ADD PUSH1 0x0 DUP2 MSTORE POP SWAP1 JUMP JUMPDEST DUP2 MSTORE PUSH1 0x20 ADD SWAP1 PUSH1 0x1 SWAP1 SUB SWAP1 DUP2 PUSH2 0x20F JUMPI SWAP1 POP POP SWAP1 POP PUSH1 0x40 MLOAD DUP1 PUSH1 0xA0 ADD PUSH1 0x40 MSTORE DUP1 PUSH20 0x987F75CF0F6A97023D957BA98E2DF17AB3143CE7 PUSH1 0x1 PUSH1 0x1 PUSH1 0xA0 SHL SUB AND DUP2 MSTORE PUSH1 0x20 ADD PUSH1 0x40 MLOAD DUP1 PUSH1 0x40 ADD PUSH1 0x40 MSTORE DUP1 PUSH1 0x9 DUP2 MSTORE PUSH1 0x20 ADD PUSH9 0x4C6971756964697479 PUSH1 0xB8 SHL DUP2 MSTORE POP DUP2 MSTORE PUSH1 0x20 ADD PUSH3 0xDBBA0 DUP2 MSTORE PUSH1 0x20 ADD PUSH4 0x1E13380 DUP2 MSTORE PUSH1 0x20 ADD PUSH1 0x0 DUP2 MSTORE POP DUP2 PUSH1 0x0 DUP2 MLOAD DUP2 LT PUSH2 0x2ED JUMPI PUSH4 0x4E487B71 PUSH1 0xE0 SHL PUSH1 0x0 MSTORE PUSH1 0x32 PUSH1 0x4 MSTORE PUSH1 0x24 PUSH1 0x0 REVERT JUMPDEST PUSH1 0x20 MUL PUSH1 0x20 ADD ADD DUP2 SWAP1 MSTORE POP PUSH1 0x40 MLOAD DUP1 PUSH1 0xA0 ADD PUSH1 0x40 MSTORE DUP1 PUSH20 0x789F75CF0F6A97023D957BA98E2DF17AB3143CE7 PUSH1 0x1 PUSH1 0x1 PUSH1 0xA0 SHL SUB AND DUP2 MSTORE PUSH1 0x20 ADD PUSH1 0x40 MLOAD DUP1 PUSH1 0x40 ADD PUSH1 0x40 MSTORE DUP1 PUSH1 0xA DUP2 MSTORE PUSH1 0x20 ADD PUSH10 0x546F6B656E2053616C65 PUSH1 0xB0 SHL DUP2 MSTORE POP DUP2 MSTORE PUSH1 0x20 ADD PUSH2 0xC350 DUP2 MSTORE PUSH1 0x20 ADD PUSH3 0x93A80 DUP2 MSTORE PUSH1 0x20 ADD PUSH3 0x127500 DUP2 MSTORE POP DUP2 PUSH1 0x1 DUP2 MLOAD DUP2 LT PUSH2 0x387 JUMPI PUSH4 0x4E487B71 PUSH1 0xE0 SHL PUSH1 0x0 MSTORE PUSH1 0x32 PUSH1 0x4 MSTORE PUSH1 0x24 PUSH1 0x0 REVERT JUMPDEST PUSH1 0x20 MUL PUSH1 0x20 ADD ADD DUP2 SWAP1 MSTORE POP PUSH1 0x40 MLOAD DUP1 PUSH1 0xA0 ADD PUSH1 0x40 MSTORE DUP1 PUSH20 0x777F75CF0F6A97023D957BA98E2DF17AB3143CE7 PUSH1 0x1 PUSH1 0x1 PUSH1 0xA0 SHL SUB AND DUP2 MSTORE PUSH1 0x20 ADD PUSH1 0x40 MLOAD DUP1 PUSH1 0x40 ADD PUSH1 0x40 MSTORE DUP1 PUSH1 0x9 DUP2 MSTORE PUSH1 0x20 ADD PUSH32 0x446576656C6F7065720000000000000000000000000000000000000000000000 DUP2 MSTORE POP DUP2 MSTORE PUSH1 0x20 ADD PUSH2 0xC350 DUP2 MSTORE PUSH1 0x20 ADD PUSH4 0x1E13380 DUP2 MSTORE PUSH1 0x20 ADD PUSH4 0x3C26700 DUP2 MSTORE POP DUP2 PUSH1 0x2 DUP2 MLOAD DUP2 LT PUSH2 0x436 JUMPI PUSH4 0x4E487B71 PUSH1 0xE0 SHL PUSH1 0x0 MSTORE PUSH1 0x32 PUSH1 0x4 MSTORE PUSH1 0x24 PUSH1 0x0 REVERT JUMPDEST PUSH1 0x20 SWAP1 DUP2 MUL SWAP2 SWAP1 SWAP2 ADD ADD MSTORE PUSH1 0x40 DUP1 MLOAD PUSH1 0x2 DUP1 DUP3 MSTORE PUSH1 0x60 DUP3 ADD SWAP1 SWAP3 MSTORE PUSH1 0x0 SWAP2 DUP2 PUSH1 0x20 ADD JUMPDEST PUSH2 0x461 PUSH2 0x881 JUMP JUMPDEST DUP2 MSTORE PUSH1 0x20 ADD SWAP1 PUSH1 0x1 SWAP1 SUB SWAP1 DUP2 PUSH2 0x459 JUMPI SWAP1 POP POP SWAP1 POP PUSH1 0x40 MLOAD DUP1 PUSH1 0xC0 ADD PUSH1 0x40 MSTORE DUP1 PUSH1 0x40 MLOAD DUP1 PUSH2 0x100 ADD PUSH1 0x40 MSTORE DUP1 PUSH20 0x132209D0F93EBFF185990D768126D32621F40C43 PUSH1 0x1 PUSH1 0x1 PUSH1 0xA0 SHL SUB AND DUP2 MSTORE PUSH1 0x20 ADD PUSH1 0x40 MLOAD DUP1 PUSH1 0x40 ADD PUSH1 0x40 MSTORE DUP1 PUSH1 0xD DUP2 MSTORE PUSH1 0x20 ADD PUSH32 0x4C616D626F2070726573616C6500000000000000000000000000000000000000 DUP2 MSTORE POP DUP2 MSTORE PUSH1 0x20 ADD PUSH9 0xAD78EBC5AC6200000 DUP2 MSTORE PUSH1 0x20 ADD PUSH9 0xAD78EBC5AC6200000 DUP2 MSTORE PUSH1 0x20 ADD PUSH1 0x0 ISZERO ISZERO DUP2 MSTORE PUSH1 0x20 ADD PUSH1 0x1 ISZERO ISZERO DUP2 MSTORE PUSH1 0x20 ADD PUSH1 0x40 MLOAD DUP1 PUSH1 0x60 ADD PUSH1 0x40 MSTORE DUP1 PUSH1 0x21 DUP2 MSTORE PUSH1 0x20 ADD PUSH2 0xC86 PUSH1 0x21 SWAP2 CODECOPY DUP2 MSTORE PUSH1 0x20 ADD PUSH1 0x40 MLOAD DUP1 PUSH1 0x40 ADD PUSH1 0x40 MSTORE DUP1 PUSH1 0x1D DUP2 MSTORE PUSH1 0x20 ADD PUSH32 0x68747470733A2F2F742E6D652F4C616D626F546F6B656E4F776E657273000000 DUP2 MSTORE POP DUP2 MSTORE POP DUP2 MSTORE PUSH1 0x20 ADD PUSH1 0x40 MLOAD DUP1 PUSH1 0xA0 ADD PUSH1 0x40 MSTORE DUP1 DUP11 PUSH1 0x1 PUSH1 0x1 PUSH1 0xA0 SHL SUB AND DUP2 MSTORE PUSH1 0x20 ADD PUSH8 0xA688906BD8B00000 DUP2 MSTORE PUSH1 0x20 ADD PUSH8 0xDE0B6B3A7640000 DUP2 MSTORE PUSH1 0x20 ADD PUSH8 0xDE0B6B3A7640000 DUP2 MSTORE PUSH1 0x20 ADD PUSH9 0xAD78EBC5AC6200000 DUP2 MSTORE POP DUP2 MSTORE PUSH1 0x20 ADD PUSH1 0x40 MLOAD DUP1 PUSH1 0xA0 ADD PUSH1 0x40 MSTORE DUP1 DUP11 PUSH1 0x1 PUSH1 0x1 PUSH1 0xA0 SHL SUB AND DUP2 MSTORE PUSH1 0x20 ADD PUSH9 0x6C6B935B8BBD40000 DUP2 MSTORE PUSH1 0x20 ADD PUSH9 0x15AF1D78B58C40000 DUP2 MSTORE PUSH1 0x20 ADD TIMESTAMP PUSH3 0x15180 PUSH2 0x614 SWAP2 SWAP1 PUSH2 0xC61 JUMP JUMPDEST DUP2 MSTORE PUSH1 0x20 ADD PUSH2 0x626 TIMESTAMP PUSH3 0x15180 PUSH2 0xC61 JUMP JUMPDEST PUSH2 0x634 SWAP1 PUSH4 0x1E13380 PUSH2 0xC61 JUMP JUMPDEST DUP2 MSTORE POP DUP2 MSTORE PUSH1 0x20 ADD DUP5 DUP2 MSTORE PUSH1 0x20 ADD PUSH7 0x45EADB112E000 DUP2 MSTORE PUSH1 0x20 ADD TIMESTAMP DUP2 MSTORE POP DUP2 PUSH1 0x0 DUP2 MLOAD DUP2 LT PUSH2 0x674 JUMPI PUSH4 0x4E487B71 PUSH1 0xE0 SHL PUSH1 0x0 MSTORE PUSH1 0x32 PUSH1 0x4 MSTORE PUSH1 0x24 PUSH1 0x0 REVERT JUMPDEST PUSH1 0x20 SWAP1 DUP2 MUL SWAP2 SWAP1 SWAP2 ADD DUP2 ADD SWAP2 SWAP1 SWAP2 MSTORE PUSH1 0x40 DUP1 MLOAD PUSH2 0x1C0 DUP2 ADD DUP3 MSTORE PUSH20 0x132209D0F93EBFF185990D768126D32621F40C43 PUSH1 0xC0 DUP3 ADD SWAP1 DUP2 MSTORE DUP3 MLOAD DUP1 DUP5 ADD DUP5 MSTORE PUSH1 0xC DUP2 MSTORE PUSH32 0x446566742070726573616C650000000000000000000000000000000000000000 DUP2 DUP7 ADD MSTORE PUSH1 0xE0 DUP4 ADD MSTORE PUSH8 0xA688906BD8B00000 PUSH2 0x100 DUP4 ADD MSTORE PUSH9 0x1158E460913D00000 PUSH2 0x120 DUP4 ADD MSTORE PUSH1 0x1 PUSH2 0x140 DUP4 ADD DUP2 SWAP1 MSTORE PUSH2 0x160 DUP4 ADD MSTORE DUP3 MLOAD DUP1 DUP5 ADD DUP5 MSTORE PUSH1 0x1B DUP2 MSTORE PUSH32 0x68747470733A2F2F64656669666163746F72792E66696E616E63650000000000 DUP2 DUP7 ADD MSTORE PUSH2 0x180 DUP4 ADD MSTORE DUP3 MLOAD DUP1 DUP5 ADD DUP5 MSTORE PUSH1 0x18 DUP2 MSTORE PUSH32 0x68747470733A2F2F742E6D652F44656669466163746F72790000000000000000 DUP2 DUP7 ADD MSTORE PUSH2 0x1A0 DUP4 ADD MSTORE DUP2 MSTORE DUP2 MLOAD PUSH1 0xA0 DUP2 DUP2 ADD DUP5 MSTORE PUSH1 0x1 PUSH1 0x1 PUSH1 0xA0 SHL SUB DUP13 AND DUP1 DUP4 MSTORE PUSH8 0xDE0B6B3A7640000 DUP4 DUP8 ADD MSTORE PUSH8 0x16345785D8A0000 DUP4 DUP7 ADD DUP2 SWAP1 MSTORE PUSH1 0x60 DUP1 DUP6 ADD SWAP2 SWAP1 SWAP2 MSTORE PUSH8 0x8AC7230489E80000 PUSH1 0x80 DUP6 ADD MSTORE DUP5 DUP8 ADD SWAP4 SWAP1 SWAP4 MSTORE DUP5 MLOAD SWAP2 DUP3 ADD DUP6 MSTORE DUP2 MSTORE PUSH9 0x6C6B935B8BBD40000 SWAP5 DUP2 ADD SWAP5 SWAP1 SWAP5 MSTORE PUSH9 0x15AF1D78B58C40000 DUP5 DUP5 ADD MSTORE SWAP1 SWAP3 SWAP2 DUP4 ADD SWAP2 SWAP1 DUP2 ADD PUSH2 0x80A TIMESTAMP PUSH3 0x3F4800 PUSH2 0xC61 JUMP JUMPDEST DUP2 MSTORE PUSH1 0x20 ADD PUSH2 0x81C TIMESTAMP PUSH3 0x3F4800 PUSH2 0xC61 JUMP JUMPDEST PUSH2 0x82A SWAP1 PUSH4 0x1E13380 PUSH2 0xC61 JUMP JUMPDEST DUP2 MSTORE POP DUP2 MSTORE PUSH1 0x20 ADD DUP4 DUP2 MSTORE PUSH1 0x20 ADD PUSH9 0x559BCD710A30E0000 DUP2 MSTORE PUSH1 0x20 ADD TIMESTAMP DUP2 MSTORE POP DUP2 PUSH1 0x1 DUP2 MLOAD DUP2 LT PUSH2 0x86C JUMPI PUSH4 0x4E487B71 PUSH1 0xE0 SHL PUSH1 0x0 MSTORE PUSH1 0x32 PUSH1 0x4 MSTORE PUSH1 0x24 PUSH1 0x0 REVERT JUMPDEST PUSH1 0x20 SWAP1 DUP2 MUL SWAP2 SWAP1 SWAP2 ADD ADD MSTORE SWAP7 SWAP6 POP POP POP POP POP POP JUMP JUMPDEST PUSH1 0x40 MLOAD DUP1 PUSH1 0xC0 ADD PUSH1 0x40 MSTORE DUP1 PUSH2 0x8E1 PUSH1 0x40 MLOAD DUP1 PUSH2 0x100 ADD PUSH1 0x40 MSTORE DUP1 PUSH1 0x0 PUSH1 0x1 PUSH1 0x1 PUSH1 0xA0 SHL SUB AND DUP2 MSTORE PUSH1 0x20 ADD PUSH1 0x60 DUP2 MSTORE PUSH1 0x20 ADD PUSH1 0x0 DUP2 MSTORE PUSH1 0x20 ADD PUSH1 0x0 DUP2 MSTORE PUSH1 0x20 ADD PUSH1 0x0 ISZERO ISZERO DUP2 MSTORE PUSH1 0x20 ADD PUSH1 0x0 ISZERO ISZERO DUP2 MSTORE PUSH1 0x20 ADD PUSH1 0x60 DUP2 MSTORE PUSH1 0x20 ADD PUSH1 0x60 DUP2 MSTORE POP SWAP1 JUMP JUMPDEST DUP2 MSTORE PUSH1 0x20 ADD PUSH2 0x921 PUSH1 0x40 MLOAD DUP1 PUSH1 0xA0 ADD PUSH1 0x40 MSTORE DUP1 PUSH1 0x0 PUSH1 0x1 PUSH1 0x1 PUSH1 0xA0 SHL SUB AND DUP2 MSTORE PUSH1 0x20 ADD PUSH1 0x0 DUP2 MSTORE PUSH1 0x20 ADD PUSH1 0x0 DUP2 MSTORE PUSH1 0x20 ADD PUSH1 0x0 DUP2 MSTORE PUSH1 0x20 ADD PUSH1 0x0 DUP2 MSTORE POP SWAP1 JUMP JUMPDEST DUP2 MSTORE PUSH1 0x20 ADD PUSH2 0x961 PUSH1 0x40 MLOAD DUP1 PUSH1 0xA0 ADD PUSH1 0x40 MSTORE DUP1 PUSH1 0x0 PUSH1 0x1 PUSH1 0x1 PUSH1 0xA0 SHL SUB AND DUP2 MSTORE PUSH1 0x20 ADD PUSH1 0x0 DUP2 MSTORE PUSH1 0x20 ADD PUSH1 0x0 DUP2 MSTORE PUSH1 0x20 ADD PUSH1 0x0 DUP2 MSTORE PUSH1 0x20 ADD PUSH1 0x0 DUP2 MSTORE POP SWAP1 JUMP JUMPDEST DUP2 MSTORE PUSH1 0x20 ADD PUSH1 0x60 DUP2 MSTORE PUSH1 0x20 ADD PUSH1 0x0 DUP2 MSTORE PUSH1 0x20 ADD PUSH1 0x0 DUP2 MSTORE POP SWAP1 JUMP JUMPDEST PUSH1 0x0 DUP1 PUSH1 0x0 PUSH1 0x60 DUP5 DUP7 SUB SLT ISZERO PUSH2 0x990 JUMPI DUP3 DUP4 REVERT JUMPDEST DUP4 CALLDATALOAD PUSH1 0x1 PUSH1 0x1 PUSH1 0xA0 SHL SUB DUP2 AND DUP2 EQ PUSH2 0x9A6 JUMPI DUP4 DUP5 REVERT JUMPDEST SWAP6 PUSH1 0x20 DUP6 ADD CALLDATALOAD SWAP6 POP PUSH1 0x40 SWAP1 SWAP5 ADD CALLDATALOAD SWAP4 SWAP3 POP POP POP JUMP JUMPDEST PUSH1 0x0 DUP2 MLOAD DUP1 DUP5 MSTORE PUSH1 0x20 DUP1 DUP6 ADD DUP1 DUP2 SWAP7 POP DUP4 PUSH1 0x5 SHL DUP2 ADD SWAP2 POP DUP3 DUP7 ADD DUP6 JUMPDEST DUP6 DUP2 LT ISZERO PUSH2 0xA3F JUMPI DUP3 DUP5 SUB DUP10 MSTORE DUP2 MLOAD PUSH1 0xA0 PUSH1 0x1 PUSH1 0x1 PUSH1 0xA0 SHL SUB DUP3 MLOAD AND DUP7 MSTORE DUP7 DUP3 ADD MLOAD DUP2 DUP9 DUP9 ADD MSTORE PUSH2 0xA0B DUP3 DUP9 ADD DUP3 PUSH2 0xA4C JUMP JUMPDEST PUSH1 0x40 DUP5 DUP2 ADD MLOAD SWAP1 DUP10 ADD MSTORE PUSH1 0x60 DUP1 DUP6 ADD MLOAD SWAP1 DUP10 ADD MSTORE PUSH1 0x80 SWAP4 DUP5 ADD MLOAD SWAP4 SWAP1 SWAP8 ADD SWAP3 SWAP1 SWAP3 MSTORE POP POP SWAP8 DUP5 ADD SWAP8 SWAP1 DUP5 ADD SWAP1 PUSH1 0x1 ADD PUSH2 0x9D8 JUMP JUMPDEST POP SWAP2 SWAP8 SWAP7 POP POP POP POP POP POP POP JUMP JUMPDEST PUSH1 0x0 DUP2 MLOAD DUP1 DUP5 MSTORE DUP2 JUMPDEST DUP2 DUP2 LT ISZERO PUSH2 0xA71 JUMPI PUSH1 0x20 DUP2 DUP6 ADD DUP2 ADD MLOAD DUP7 DUP4 ADD DUP3 ADD MSTORE ADD PUSH2 0xA55 JUMP JUMPDEST DUP2 DUP2 GT ISZERO PUSH2 0xA82 JUMPI DUP3 PUSH1 0x20 DUP4 DUP8 ADD ADD MSTORE JUMPDEST POP PUSH1 0x1F ADD PUSH1 0x1F NOT AND SWAP3 SWAP1 SWAP3 ADD PUSH1 0x20 ADD SWAP3 SWAP2 POP POP JUMP JUMPDEST PUSH1 0x0 PUSH1 0x20 DUP1 DUP4 ADD DUP2 DUP5 MSTORE DUP1 DUP6 MLOAD DUP1 DUP4 MSTORE PUSH1 0x40 SWAP3 POP DUP3 DUP7 ADD SWAP2 POP DUP3 DUP2 PUSH1 0x5 SHL DUP8 ADD ADD DUP5 DUP9 ADD DUP7 JUMPDEST DUP4 DUP2 LT ISZERO PUSH2 0xC53 JUMPI PUSH1 0x3F NOT DUP10 DUP5 SUB ADD DUP6 MSTORE DUP2 MLOAD DUP1 MLOAD PUSH2 0x1C0 DUP1 DUP7 MSTORE DUP2 MLOAD PUSH1 0x1 PUSH1 0x1 PUSH1 0xA0 SHL SUB AND SWAP1 DUP7 ADD MSTORE DUP9 DUP2 ADD MLOAD PUSH2 0x100 PUSH2 0x1E0 DUP8 ADD MSTORE SWAP1 PUSH2 0xB03 PUSH2 0x2C0 DUP8 ADD DUP4 PUSH2 0xA4C JUMP JUMPDEST SWAP2 POP DUP9 DUP2 ADD MLOAD PUSH2 0x200 DUP8 ADD MSTORE PUSH1 0x60 DUP1 DUP3 ADD MLOAD PUSH2 0x220 DUP9 ADD MSTORE PUSH1 0x80 DUP1 DUP4 ADD MLOAD PUSH2 0xB30 PUSH2 0x240 DUP11 ADD DUP3 ISZERO ISZERO SWAP1 MSTORE JUMP JUMPDEST POP PUSH1 0xA0 DUP4 DUP2 ADD MLOAD ISZERO ISZERO PUSH2 0x260 DUP11 ADD MSTORE PUSH1 0xC0 DUP1 DUP6 ADD MLOAD DUP11 DUP8 SUB PUSH2 0x1BF NOT SWAP1 DUP2 ADD PUSH2 0x280 DUP14 ADD MSTORE PUSH2 0xB5F DUP9 DUP4 PUSH2 0xA4C JUMP JUMPDEST SWAP8 POP PUSH1 0xE0 DUP8 ADD MLOAD SWAP7 POP DUP1 DUP13 DUP10 SUB ADD PUSH2 0x2A0 DUP14 ADD MSTORE POP POP PUSH2 0xB7F DUP7 DUP7 PUSH2 0xA4C JUMP JUMPDEST SWAP6 POP DUP14 DUP8 ADD MLOAD SWAP5 POP PUSH2 0xBC7 DUP15 DUP12 ADD DUP7 PUSH1 0x1 PUSH1 0x1 PUSH1 0xA0 SHL SUB DUP2 MLOAD AND DUP3 MSTORE PUSH1 0x20 DUP2 ADD MLOAD PUSH1 0x20 DUP4 ADD MSTORE PUSH1 0x40 DUP2 ADD MLOAD PUSH1 0x40 DUP4 ADD MSTORE PUSH1 0x60 DUP2 ADD MLOAD PUSH1 0x60 DUP4 ADD MSTORE PUSH1 0x80 DUP2 ADD MLOAD PUSH1 0x80 DUP4 ADD MSTORE POP POP JUMP JUMPDEST DUP13 DUP8 ADD MLOAD SWAP5 POP PUSH2 0xC0D DUP2 DUP12 ADD DUP7 PUSH1 0x1 PUSH1 0x1 PUSH1 0xA0 SHL SUB DUP2 MLOAD AND DUP3 MSTORE PUSH1 0x20 DUP2 ADD MLOAD PUSH1 0x20 DUP4 ADD MSTORE PUSH1 0x40 DUP2 ADD MLOAD PUSH1 0x40 DUP4 ADD MSTORE PUSH1 0x60 DUP2 ADD MLOAD PUSH1 0x60 DUP4 ADD MSTORE PUSH1 0x80 DUP2 ADD MLOAD PUSH1 0x80 DUP4 ADD MSTORE POP POP JUMP JUMPDEST POP DUP3 DUP7 ADD MLOAD SWAP4 POP DUP9 DUP6 SUB PUSH2 0x160 DUP11 ADD MSTORE PUSH2 0xC27 DUP6 DUP6 PUSH2 0x9BB JUMP JUMPDEST SWAP2 DUP7 ADD MLOAD PUSH2 0x180 DUP11 ADD MSTORE SWAP1 SWAP5 ADD MLOAD PUSH2 0x1A0 SWAP1 SWAP8 ADD SWAP7 SWAP1 SWAP7 MSTORE POP POP SWAP5 DUP8 ADD SWAP5 SWAP3 POP SWAP1 DUP7 ADD SWAP1 PUSH1 0x1 ADD PUSH2 0xABD JUMP JUMPDEST POP SWAP1 SWAP9 SWAP8 POP POP POP POP POP POP POP POP JUMP JUMPDEST PUSH1 0x0 DUP3 NOT DUP3 GT ISZERO PUSH2 0xC80 JUMPI PUSH4 0x4E487B71 PUSH1 0xE0 SHL DUP2 MSTORE PUSH1 0x11 PUSH1 0x4 MSTORE PUSH1 0x24 DUP2 REVERT JUMPDEST POP ADD SWAP1 JUMP INVALID PUSH9 0x747470733A2F2F6C61 PUSH14 0x626F2E64656669666163746F7279 0x2E PUSH7 0x696E616E6365A2 PUSH5 0x6970667358 0x22 SLT KECCAK256 0xF OR 0xB9 GT SWAP12 0xDE PUSH19 0x7F60EFAD10307066AD7CCBEC0487B0A9883C08 0x21 0xEE 0xC6 MSIZE CALLDATASIZE CHAINID PUSH5 0x736F6C6343 STOP ADDMOD DIV STOP CALLER "
		},
		"gasEstimates": {
			"creation": {
				"codeDepositCost": "658400",
				"executionCost": "689",
				"totalCost": "659089"
			},
			"external": {
				"listPresales(address,uint256,uint256)": "infinite"
			}
		},
		"methodIdentifiers": {
			"listPresales(address,uint256,uint256)": "f355c592"
		}
	},
	"abi": [
		{
			"inputs": [
				{
					"internalType": "address",
					"name": "walletAddress",
					"type": "address"
				},
				{
					"internalType": "uint256",
					"name": "page",
					"type": "uint256"
				},
				{
					"internalType": "uint256",
					"name": "limit",
					"type": "uint256"
				}
			],
			"name": "listPresales",
			"outputs": [
				{
					"components": [
						{
							"components": [
								{
									"internalType": "address",
									"name": "presaleContractAddress",
									"type": "address"
								},
								{
									"internalType": "string",
									"name": "presaleName",
									"type": "string"
								},
								{
									"internalType": "uint256",
									"name": "totalInvestedWeth",
									"type": "uint256"
								},
								{
									"internalType": "uint256",
									"name": "maxWethCap",
									"type": "uint256"
								},
								{
									"internalType": "bool",
									"name": "isCompleted",
									"type": "bool"
								},
								{
									"internalType": "bool",
									"name": "isEnabled",
									"type": "bool"
								},
								{
									"internalType": "string",
									"name": "website",
									"type": "string"
								},
								{
									"internalType": "string",
									"name": "telegram",
									"type": "string"
								}
							],
							"internalType": "struct PresaleFactory.PresaleListItem",
							"name": "presaleItem",
							"type": "tuple"
						},
						{
							"components": [
								{
									"internalType": "address",
									"name": "walletAddress",
									"type": "address"
								},
								{
									"internalType": "uint256",
									"name": "walletInvestedWeth",
									"type": "uint256"
								},
								{
									"internalType": "uint256",
									"name": "walletReferralEarnings",
									"type": "uint256"
								},
								{
									"internalType": "uint256",
									"name": "minimumWethPerWallet",
									"type": "uint256"
								},
								{
									"internalType": "uint256",
									"name": "maximumWethPerWallet",
									"type": "uint256"
								}
							],
							"internalType": "struct PresaleFactory.WalletInfoItem",
							"name": "walletInfo",
							"type": "tuple"
						},
						{
							"components": [
								{
									"internalType": "address",
									"name": "vestingAddr",
									"type": "address"
								},
								{
									"internalType": "uint256",
									"name": "tokensReserved",
									"type": "uint256"
								},
								{
									"internalType": "uint256",
									"name": "tokensClaimed",
									"type": "uint256"
								},
								{
									"internalType": "uint256",
									"name": "lockedUntilTimestamp",
									"type": "uint256"
								},
								{
									"internalType": "uint256",
									"name": "vestedUntilTimestamp",
									"type": "uint256"
								}
							],
							"internalType": "struct PresaleFactory.VestingItem",
							"name": "vestingInfo",
							"type": "tuple"
						},
						{
							"components": [
								{
									"internalType": "address",
									"name": "tokenomicsAddr",
									"type": "address"
								},
								{
									"internalType": "string",
									"name": "tokenomicsName",
									"type": "string"
								},
								{
									"internalType": "uint256",
									"name": "tokenomicsPercentage",
									"type": "uint256"
								},
								{
									"internalType": "uint256",
									"name": "tokenomicsLockedForXSeconds",
									"type": "uint256"
								},
								{
									"internalType": "uint256",
									"name": "tokenomicsVestedForXSeconds",
									"type": "uint256"
								}
							],
							"internalType": "struct PresaleFactory.TokenomicsItem[]",
							"name": "tokenomics",
							"type": "tuple[]"
						},
						{
							"internalType": "uint256",
							"name": "listingPrice",
							"type": "uint256"
						},
						{
							"internalType": "uint256",
							"name": "createdAt",
							"type": "uint256"
						}
					],
					"internalType": "struct PresaleFactory.OutputItem[]",
					"name": "",
					"type": "tuple[]"
				}
			],
			"stateMutability": "view",
			"type": "function"
		}
	]
}