{
	"data": {
		"bytecode": {
			"linkReferences": {},
			"object": "608060405261c350600b55674563918244f40000600d556402540be400600e5569010f0cf064dd59200000600f5564e8d4a510006012553480156200004357600080fd5b506200005160003362000510565b6040805180820190915260138082527f4c616d626f20546f6b656e2050726573616c650000000000000000000000000060209092019182526200009791601d91620009b2565b5060405180606001604052806021815260200162005bac602191398051620000c891601b91602090910190620009b2565b5060408051808201909152601d8082527f68747470733a2f2f742e6d652f4c616d626f546f6b656e4f776e65727300000060209092019182526200010f91601c91620009b2565b5063bbf81e00601e5562015180601f81905562093a80602081815560219290925560225560408051808201909152600b81526a11195d995b1bdc1b595b9d60aa1b918101919091526200018190731111bee701ef814a2b6a3edd4b1652cb9cc5aa6f90620249f0603c61025862000553565b620001d1732222bee701ef814a2b6a3edd4b1652cb9cc5aa6f604051806040016040528060098152602001684d61726b6574696e6760b81b815250620186a060786104b06200055360201b60201c565b6200021f733333bee701ef814a2b6a3edd4b1652cb9cc5aa6f6040518060400160405280600881526020016741647669736f727360c01b81525061c35060b46107086200055360201b60201c565b6001461415620002d657601780546001600160a01b0319908116735c69bee701ef814a2b6a3edd4b1652cb9cc5aa6f17909155601880548216737a250d5630b4cf539739df2c5dacb4c659f2488d17905560168054821673dac17f958d2ee523a2206206994597c13d831ec717905560158054821673c02aaa39b223fe8d0a0e5c4f27ead9083c756cc21790556006601a556014805490911673c77aab3c6d7dab46248f3cc3033c856171878bd5179055620004fe565b60384614156200038d57601780546001600160a01b031990811673ca143ce32fe78f1f7019d7d551a6402fc5350c73179091556018805482167310ed43c718714eb63d5aa57b78b54704e256024e17905560168054821673e9e7cea3dedca5984780bafc599bd69add087d5617905560158054821673bb4cdb9cbd36b01bd1cbaebf2de08d9173bc095c1790556012601a5560148054909116737536592bb74b5d62eb82e8b93b17eed4eed9a85c179055620004fe565b602a4614156200044c57601780546001600160a01b0319908116735c69bee701ef814a2b6a3edd4b1652cb9cc5aa6f17909155601880548216737a250d5630b4cf539739df2c5dacb4c659f2488d179055601680548216732f375e94fc336cdec2dc0ccb5277fe59cbf1cae517905560158054821673d0a1e359811322d97991e03f863a0c30c2cf029c1790556006601a556014805482169055601380549091167394ffff5eae20544c00d4709918ae07d2fb672a52179055620004fe565b6003461415620004fe57601780546001600160a01b0319908116735c69bee701ef814a2b6a3edd4b1652cb9cc5aa6f17909155601880548216737a250d5630b4cf539739df2c5dacb4c659f2488d1790556016805482167307865c6e87b9f70255377e024ace6630c1eaa37f17905560158054821673c778417e063141139fce010982780140aa0cd5ab1790556006601a5560148054909116738733caa60eda1597336c0337efde27c1335f75301790555b6200050a600062000821565b62000ae2565b6200052782826200089060201b62003aa51760201c565b60008281526001602090815260409091206200054e91839062003aaf620008a0821b17901c565b505050565b6001600160a01b03851660009081526009602052604090205462000671576040805160a0810182526001600160a01b03878116825260208083018881529383018790526060830186905260808301859052600a805460018101825560009190915283517fc65a7bb8d6351c1cf70c95a316cc6a92839c986682d98bc35f958f4883f9d2a8600590920291820180546001600160a01b0319169190941617835593518051939492936200062d937fc65a7bb8d6351c1cf70c95a316cc6a92839c986682d98bc35f958f4883f9d2a901929190910190620009b2565b506040828101516002830155606083015160038301556080909201516004909101556008546001600160a01b0387166000908152600960205291909120556200081a565b6001600160a01b0385166000908152600960205260409020548490600a906200069d9060019062000a81565b81548110620006bc57634e487b7160e01b600052603260045260246000fd5b90600052602060002090600502016001019080519060200190620006e2929190620009b2565b506001600160a01b0385166000908152600960205260409020548390600a906200070f9060019062000a81565b815481106200072e57634e487b7160e01b600052603260045260246000fd5b90600052602060002090600502016002018190555081600a600160096000896001600160a01b03166001600160a01b03168152602001908152602001600020546200077a919062000a81565b815481106200079957634e487b7160e01b600052603260045260246000fd5b90600052602060002090600502016003018190555080600a600160096000896001600160a01b03166001600160a01b0316815260200190815260200160002054620007e5919062000a81565b815481106200080457634e487b7160e01b600052603260045260246000fd5b9060005260206000209060050201600401819055505b5050505050565b6002805482919060ff191660018360078111156200084f57634e487b7160e01b600052602160045260246000fd5b02179055507f551dc40198cc79684bb69e4931dba4ac16e4598792ee1c0a5000aeea366d7bb68160405162000885919062000a58565b60405180910390a150565b6200089c8282620008c0565b5050565b6000620008b7836001600160a01b03841662000960565b90505b92915050565b6000828152602081815260408083206001600160a01b038516845290915290205460ff166200089c576000828152602081815260408083206001600160a01b03851684529091529020805460ff191660011790556200091c3390565b6001600160a01b0316816001600160a01b0316837f2f8788117e7eff1d82e926ec794901d17c78024a50270940304540a733656f0d60405160405180910390a45050565b6000818152600183016020526040812054620009a957508154600181810184556000848152602080822090930184905584548482528286019093526040902091909155620008ba565b506000620008ba565b828054620009c09062000aa5565b90600052602060002090601f016020900481019282620009e4576000855562000a2f565b82601f10620009ff57805160ff191683800117855562000a2f565b8280016001018555821562000a2f579182015b8281111562000a2f57825182559160200191906001019062000a12565b5062000a3d92915062000a41565b5090565b5b8082111562000a3d576000815560010162000a42565b602081016008831062000a7b57634e487b7160e01b600052602160045260246000fd5b91905290565b60008282101562000aa057634e487b7160e01b81526011600452602481fd5b500390565b600181811c9082168062000aba57607f821691505b6020821081141562000adc57634e487b7160e01b600052602260045260246000fd5b50919050565b6150ba8062000af26000396000f3fe60806040526004361061044e5760003560e01c8063818a36a111610243578063c6c2afc311610143578063dc4b2268116100bb578063ebac65051161008a578063edc7ff2a1161006f578063edc7ff2a14610d1e578063ee2923d914610d4b578063fccc281314610d6d57600080fd5b8063ebac650514610ce9578063ed21187a14610d0957600080fd5b8063dc4b226814610c71578063dd74075c14610c91578063e650e51214610ca7578063e70d8fdc14610cbc57600080fd5b8063cd496b4b11610112578063d547741f116100f7578063d547741f14610c13578063d7ec548e14610c33578063dbcac67414610c4957600080fd5b8063cd496b4b14610be8578063d391014b14610bfe57600080fd5b8063c6c2afc314610b70578063c88188a314610b86578063ca15c87314610b9b578063cc138c8e14610bbb57600080fd5b806399f96c51116101d65780639e57003c116101a5578063b2c1e72a1161018a578063b2c1e72a14610b14578063beb0a41614610b34578063c19d93fb14610b4957600080fd5b80639e57003c14610adf578063a284632314610af457600080fd5b806399f96c5114610a6a5780639adae35114610a8a5780639b21495014610aaa5780639d76ea5814610abf57600080fd5b8063901397861161021257806390139786146109d157806391d14854146109f15780639248b04a14610a35578063989ced2614610a4a57600080fd5b8063818a36a11461094e578063884ec7a91461097b5780638e505f091461099b5780639010d07c146109b157600080fd5b806339fc11281161034e578063579a7e1a116102e15780636d8ca924116102b05780637e4c7eb2116102955780637e4c7eb2146108c25780637eda5568146108ef57806380b7c92b1461090f57600080fd5b80636d8ca9241461089757806370f1b331146108ad57600080fd5b8063579a7e1a1461082c57806359d5335b1461084c5780635f6577a814610862578063650698631461087757600080fd5b8063443926db1161031d578063443926db146107a857806347ecb665146107bd5780634d286a3d146107df578063573620a7146107ff57600080fd5b806339fc1128146107175780633feb5f2b146107375780634175266f1461077d57806342f60cb51461079357600080fd5b8063091f90c2116103e1578063248a9ca3116103b05780632f2ff15d116103955780632f2ff15d146106855780632ffac82c146106a557806336568abe146106f757600080fd5b8063248a9ca314610628578063286777d01461065857600080fd5b8063091f90c2146105a55780630b293a31146105dd5780631ca8b6cb146105f25780631f96b8ab1461060857600080fd5b806303ed957f1161041d57806303ed957f1461050157806303f9c7931461052157806304215d5a14610534578063087a2daf1461057457600080fd5b8063010bd4191461045a5780630155ecaf1461047c57806301cb5dfd1461049157806301ffc9a7146104d157600080fd5b3661045557005b600080fd5b34801561046657600080fd5b5061047a6104753660046148d0565b610d82565b005b34801561048857600080fd5b5061047a611089565b34801561049d57600080fd5b506104be6104ac366004614763565b60096020526000908152604090205481565b6040519081526020015b60405180910390f35b3480156104dd57600080fd5b506104f16104ec3660046148f1565b611306565b60405190151581526020016104c8565b34801561050d57600080fd5b5061047a61051c36600461479b565b61134a565b61047a61052f366004614763565b6113e3565b34801561054057600080fd5b5061055461054f366004614763565b611774565b6040805194855260208501939093529183015260608201526080016104c8565b34801561058057600080fd5b5061059461058f366004614889565b61184b565b6040516104c8959493929190614a49565b3480156105b157600080fd5b506014546105c5906001600160a01b031681565b6040516001600160a01b0390911681526020016104c8565b3480156105e957600080fd5b5061047a61191f565b3480156105fe57600080fd5b506104be60115481565b34801561061457600080fd5b5061047a6106233660046148d0565b611939565b34801561063457600080fd5b506104be610643366004614889565b60009081526020819052604090206001015490565b34801561066457600080fd5b50610678610673366004614889565b611b41565b6040516104c89190614c32565b34801561069157600080fd5b5061047a6106a03660046148a1565b611bcb565b3480156106b157600080fd5b506106c56106c0366004614889565b611bf2565b604080516001600160a01b0390961686526020860194909452928401919091526060830152608082015260a0016104c8565b34801561070357600080fd5b5061047a6107123660046148a1565b611c3d565b34801561072357600080fd5b5061047a610732366004614889565b611c5f565b34801561074357600080fd5b50610757610752366004614889565b611ca9565b604080516001600160a01b039485168152939092166020840152908201526060016104c8565b34801561078957600080fd5b506104be60205481565b34801561079f57600080fd5b5061047a611ce9565b3480156107b457600080fd5b506008546104be565b3480156107c957600080fd5b506107d2611d73565b6040516104c89190614c1f565b3480156107eb57600080fd5b506016546105c5906001600160a01b031681565b34801561080b57600080fd5b5061081f61081a366004614889565b611e01565b6040516104c89190614c61565b34801561083857600080fd5b506015546105c5906001600160a01b031681565b34801561085857600080fd5b506104be600b5481565b34801561086e57600080fd5b5061047a611e6f565b34801561088357600080fd5b50610678610892366004614763565b612015565b3480156108a357600080fd5b506104be601f5481565b3480156108b957600080fd5b506104f1612074565b3480156108ce57600080fd5b506104be6108dd366004614763565b60036020526000908152604090205481565b3480156108fb57600080fd5b5061047a61090a366004614889565b6121f4565b34801561091b57600080fd5b5061092f61092a366004614889565b612206565b604080516001600160a01b0390931683526020830191909152016104c8565b34801561095a57600080fd5b5061096e6109693660046148d0565b61223e565b6040516104c89190614a88565b34801561098757600080fd5b506017546105c5906001600160a01b031681565b3480156109a757600080fd5b506104be60225481565b3480156109bd57600080fd5b506105c56109cc3660046148d0565b6123bb565b3480156109dd57600080fd5b5061047a6109ec366004614889565b6123da565b3480156109fd57600080fd5b506104f1610a0c3660046148a1565b6000918252602082815260408084206001600160a01b0393909316845291905290205460ff1690565b348015610a4157600080fd5b5061047a6123ec565b348015610a5657600080fd5b5061047a610a65366004614763565b612643565b348015610a7657600080fd5b5061047a610a853660046148d0565b612672565b348015610a9657600080fd5b506019546105c5906001600160a01b031681565b348015610ab657600080fd5b5061047a61296d565b348015610acb57600080fd5b506013546105c5906001600160a01b031681565b348015610aeb57600080fd5b506104be613029565b348015610b0057600080fd5b506018546105c5906001600160a01b031681565b348015610b2057600080fd5b5061081f610b2f366004614763565b6130d1565b348015610b4057600080fd5b506107d261312b565b348015610b5557600080fd5b50600254610b639060ff1681565b6040516104c89190614bf7565b348015610b7c57600080fd5b506104be601e5481565b348015610b9257600080fd5b5061047a613138565b348015610ba757600080fd5b506104be610bb6366004614889565b613366565b348015610bc757600080fd5b506104be610bd6366004614763565b60076020526000908152604090205481565b348015610bf457600080fd5b506104be60215481565b348015610c0a57600080fd5b506104be600081565b348015610c1f57600080fd5b5061047a610c2e3660046148a1565b61337d565b348015610c3f57600080fd5b506104be60125481565b348015610c5557600080fd5b50600c54600d54604080519283526020830191909152016104c8565b348015610c7d57600080fd5b5061047a610c8c36600461480b565b613387565b348015610c9d57600080fd5b506104be60105481565b348015610cb357600080fd5b506107d2613415565b348015610cc857600080fd5b50610cdc610cd73660046148d0565b613422565b6040516104c89190614afa565b348015610cf557600080fd5b5061047a610d04366004614931565b61357b565b348015610d1557600080fd5b506004546104be565b348015610d2a57600080fd5b506104be610d39366004614763565b60056020526000908152604090205481565b348015610d5757600080fd5b50610d60613596565b6040516104c89190614b5a565b348015610d7957600080fd5b506105c5600081565b6000610d8e8133613ac4565b600460025460ff166007811115610db557634e487b7160e01b600052602160045260246000fd5b14610e2d5760405162461bcd60e51b815260206004820152603360248201527f50523a20496e766573746f727320746f6b656e73206861766520616c7265616460448201527f79206265656e206469737472696275746564210000000000000000000000000060648201526084015b60405180910390fd5b6000610e39848461223e565b905060005b81518110156110825760016006600160056000868681518110610e7157634e487b7160e01b600052603260045260246000fd5b6020026020010151600001516001600160a01b03166001600160a01b0316815260200190815260200160002054610ea89190614de2565b81548110610ec657634e487b7160e01b600052603260045260246000fd5b90600052602060002090600502016001015411611070576040518060a00160405280838381518110610f0857634e487b7160e01b600052603260045260246000fd5b6020026020010151600001516001600160a01b03168152602001600c54848481518110610f4557634e487b7160e01b600052603260045260246000fd5b602002602001015160400151601054610f5e9190614dc3565b610f689190614cb8565b815260200160008152602001601f5442610f829190614ca0565b815260200160205442610f959190614ca0565b8152506006600160056000868681518110610fc057634e487b7160e01b600052603260045260246000fd5b6020026020010151600001516001600160a01b03166001600160a01b0316815260200190815260200160002054610ff79190614de2565b8154811061101557634e487b7160e01b600052603260045260246000fd5b600091825260209182902083516005929092020180546001600160a01b0319166001600160a01b0390921691909117815590820151600182015560408201516002820155606082015160038201556080909101516004909101555b8061107a81614f8c565b915050610e3e565b5050505050565b60006110958133613ac4565b6002805460ff1660078111156110bb57634e487b7160e01b600052602160045260246000fd5b146111085760405162461bcd60e51b815260206004820152601c60248201527f50523a205061697220697320616c7265616479206372656174656421000000006044820152606401610e24565b6013546001600160a01b03166111865760405162461bcd60e51b815260206004820152602a60248201527f50523a20546f6b656e206164647265737320776173206e6f7420696e6974696160448201527f6c697a65642079657421000000000000000000000000000000000000000000006064820152608401610e24565b60175460135460155460405163e6a4390560e01b81526001600160a01b039283166004820152908216602482015291169063e6a439059060440160206040518083038186803b1580156111d857600080fd5b505afa1580156111ec573d6000803e3d6000fd5b505050506040513d601f19601f82011682018060405250810190611210919061477f565b601980546001600160a01b0319166001600160a01b039290921691821790556112f9576017546013546015546040517fc9c653960000000000000000000000000000000000000000000000000000000081526001600160a01b039283166004820152908216602482015291169063c9c6539690604401602060405180830381600087803b1580156112a057600080fd5b505af11580156112b4573d6000803e3d6000fd5b505050506040513d601f19601f820116820180604052508101906112d8919061477f565b601980546001600160a01b0319166001600160a01b03929092169190911790555b6113036003613b42565b50565b60006001600160e01b031982167f5a05180f000000000000000000000000000000000000000000000000000000001480611344575061134482613bae565b92915050565b60006113568133613ac4565b60005b828110156113dd576113cb84848381811061138457634e487b7160e01b600052603260045260246000fd5b905060400201600001358585848181106113ae57634e487b7160e01b600052603260045260246000fd5b90506040020160200160208101906113c69190614763565b613c15565b806113d581614f8c565b915050611359565b50505050565b600060025460ff16600781111561140a57634e487b7160e01b600052602160045260246000fd5b1461147d5760405162461bcd60e51b815260206004820152602860248201527f50523a20416363657074696e67207061796d656e747320686173206265656e2060448201527f73746f70706564210000000000000000000000000000000000000000000000006064820152608401610e24565b600d54600c5411156114d15760405162461bcd60e51b815260206004820152601460248201527f50523a204d6178206361702072656163686564210000000000000000000000006044820152606401610e24565b600e543410156115315760405162461bcd60e51b815260206004820152602560248201527f50523a20416d6f756e742069732062656c6f77206d696e696d756d207065726d6044820152641a5d1d195960da1b6064820152608401610e24565b600f543411156115915760405162461bcd60e51b815260206004820152602560248201527f50523a20416d6f756e742069732061626f7665206d6178696d756d207065726d6044820152641a5d1d195960da1b6064820152608401610e24565b33600090815260096020526040902054156116145760405162461bcd60e51b815260206004820152602160248201527f50523a205465616d206973206e6f7420616c6c6f77656420746f20696e76657360448201527f74000000000000000000000000000000000000000000000000000000000000006064820152608401610e24565b6001600160a01b038116600090815260076020526040902054156116a05760405162461bcd60e51b815260206004820152602660248201527f50523a20506c656173652075736520646966666572656e74207265666572726160448201527f6c206c696e6b00000000000000000000000000000000000000000000000000006064820152608401610e24565b336001600160a01b038216141561171f5760405162461bcd60e51b815260206004820152603e60248201527f50523a2053656c662d7265662069736e277420616c6c6f7765642e20506c656160448201527f73652075736520646966666572656e7420726566657272616c206c696e6b00006064820152608401610e24565b6001600160a01b038116611744575073c427a912e0b19f082840a0045e430de5b8cb1f655b61174f338234613c1f565b61130381620f4240600b54346117659190614dc3565b61176f9190614cb8565b613e57565b6001600160a01b0381166000908152600360205260408120548190819081906004906117a290600190614de2565b815481106117c057634e487b7160e01b600052603260045260246000fd5b9060005260206000209060030201600201546008600160076000896001600160a01b03166001600160a01b03168152602001908152602001600020546118069190614de2565b8154811061182457634e487b7160e01b600052603260045260246000fd5b906000526020600020906002020160010154600e54600f5493509350935093509193509193565b600a818154811061185b57600080fd5b6000918252602090912060059091020180546001820180546001600160a01b0390921693509061188a90614f51565b80601f01602080910402602001604051908101604052809291908181526020018280546118b690614f51565b80156119035780601f106118d857610100808354040283529160200191611903565b820191906000526020600020905b8154815290600101906020018083116118e657829003601f168201915b5050505050908060020154908060030154908060040154905085565b611927611ce9565b61192f611e6f565b611937611089565b565b60006119458133613ac4565b6015546040516370a0823160e01b81523060048201526000916001600160a01b0316906370a082319060240160206040518083038186803b15801561198957600080fd5b505afa15801561199d573d6000803e3d6000fd5b505050506040513d601f19601f820116820180604052508101906119c19190614919565b90508015611a41576015546040517f2e1a7d4d000000000000000000000000000000000000000000000000000000008152600481018390526001600160a01b0390911690632e1a7d4d90602401600060405180830381600087803b158015611a2857600080fd5b505af1158015611a3c573d6000803e3d6000fd5b505050505b6000611a4d858561223e565b905060005b8151811015611b36576000828281518110611a7d57634e487b7160e01b600052603260045260246000fd5b60200260200101516040015190506000838381518110611aad57634e487b7160e01b600052603260045260246000fd5b60200260200101516040018181525050828281518110611add57634e487b7160e01b600052603260045260246000fd5b6020026020010151600001516001600160a01b03166108fc829081150290604051600060405180830381858888f19350505050158015611b21573d6000803e3d6000fd5b50508080611b2e90614f8c565b915050611a52565b506110826007613b42565b604080516060810182526000808252602082018190529181019190915260048281548110611b7f57634e487b7160e01b600052603260045260246000fd5b600091825260209182902060408051606081018252600390930290910180546001600160a01b039081168452600182015416938301939093526002909201549181019190915292915050565b611bd58282613f95565b6000828152600160205260409020611bed9082613aaf565b505050565b60068181548110611c0257600080fd5b6000918252602090912060059091020180546001820154600283015460038401546004909401546001600160a01b0390931694509092909185565b611c478282613fab565b6000828152600160205260409020611bed9082614033565b611c6761296d565b611c6f6123ec565b8015611c7b5780611c7f565b6004545b9050611c8c600082610d82565b8015611c985780611c9c565b6004545b9050611303600082612672565b60048181548110611cb957600080fd5b60009182526020909120600390910201805460018201546002909201546001600160a01b03918216935091169083565b6000611cf58133613ac4565b600060025460ff166007811115611d1c57634e487b7160e01b600052602160045260246000fd5b14611d695760405162461bcd60e51b815260206004820152601c60248201527f50523a20476f616c20697320616c7265616479207265616368656421000000006044820152606401610e24565b6113036001613b42565b601c8054611d8090614f51565b80601f0160208091040260200160405190810160405280929190818152602001828054611dac90614f51565b8015611df95780601f10611dce57610100808354040283529160200191611df9565b820191906000526020600020905b815481529060010190602001808311611ddc57829003601f168201915b505050505081565b604080518082019091526000808252602082015260088281548110611e3657634e487b7160e01b600052603260045260246000fd5b60009182526020918290206040805180820190915260029092020180546001600160a01b03168252600101549181019190915292915050565b6000611e7b8133613ac4565b600160025460ff166007811115611ea257634e487b7160e01b600052602160045260246000fd5b14611f155760405162461bcd60e51b815260206004820152602960248201527f50523a20507265706172696e6720616464206c6971756964697479206973206360448201527f6f6d706c657465642100000000000000000000000000000000000000000000006064820152608401610e24565b60004711611f8b5760405162461bcd60e51b815260206004820152602b60248201527f50523a2045746865722062616c616e6365206d757374206265206c617267657260448201527f207468616e207a65726f210000000000000000000000000000000000000000006064820152608401610e24565b601554604080517fd0e30db000000000000000000000000000000000000000000000000000000000815290516001600160a01b0390921691829163d0e30db091479160048082019260009290919082900301818588803b158015611fee57600080fd5b505af1158015612002573d6000803e3d6000fd5b50505050506120116002613b42565b5050565b60408051606081018252600080825260208083018290528284018290526001600160a01b038516825260039052919091205460049061205690600190614de2565b81548110611b7f57634e487b7160e01b600052603260045260246000fd5b6000805b6008548110156121305760016006600160056000600886815481106120ad57634e487b7160e01b600052603260045260246000fd5b600091825260208083206002909202909101546001600160a01b031683528201929092526040019020546120e19190614de2565b815481106120ff57634e487b7160e01b600052603260045260246000fd5b9060005260206000209060050201600101541161211e57600091505090565b8061212881614f8c565b915050612078565b5060005b6004548110156121ec57600160066001600560006004868154811061216957634e487b7160e01b600052603260045260246000fd5b600091825260208083206003909202909101546001600160a01b0316835282019290925260400190205461219d9190614de2565b815481106121bb57634e487b7160e01b600052603260045260246000fd5b906000526020600020906005020160010154116121da57600091505090565b806121e481614f8c565b915050612134565b506001905090565b60006122008133613ac4565b50601255565b6008818154811061221657600080fd5b6000918252602090912060029091020180546001909101546001600160a01b03909116915082565b606082600061224d8483614ca0565b600454909150811161225f5780612263565b6004545b9050600082821161227557600061227f565b61227f8383614de2565b905060008167ffffffffffffffff8111156122aa57634e487b7160e01b600052604160045260246000fd5b6040519080825280602002602001820160405280156122f557816020015b60408051606081018252600080825260208083018290529282015282526000199092019101816122c85790505b509050835b838110156123b0576004818154811061232357634e487b7160e01b600052603260045260246000fd5b600091825260209182902060408051606081018252600390930290910180546001600160a01b0390811684526001820154169383019390935260029092015491810191909152826123748784614de2565b8151811061239257634e487b7160e01b600052603260045260246000fd5b602002602001018190525080806123a890614f8c565b9150506122fa565b509695505050505050565b60008281526001602052604081206123d39083614048565b9392505050565b60006123e68133613ac4565b50600b55565b60006123f88133613ac4565b600460025460ff16600781111561241f57634e487b7160e01b600052602160045260246000fd5b146124925760405162461bcd60e51b815260206004820152603460248201527f50523a20546f6b656e6f6d69637320746f6b656e73206861766520616c72656160448201527f6479206265656e206469737472696275746564210000000000000000000000006064820152608401610e24565b60005b600a548110156120115760066040518060a00160405280600a84815481106124cd57634e487b7160e01b600052603260045260246000fd5b6000918252602091829020600590910201546001600160a01b03168252600a80549290910191620f424091908690811061251757634e487b7160e01b600052603260045260246000fd5b9060005260206000209060050201600201546011546125369190614dc3565b6125409190614cb8565b815260200160008152602001600a848154811061256d57634e487b7160e01b600052603260045260246000fd5b9060005260206000209060050201600301544261258a9190614ca0565b8152602001600a84815481106125b057634e487b7160e01b600052603260045260246000fd5b906000526020600020906005020160040154426125cd9190614ca0565b90528154600180820184556000938452602093849020835160059093020180546001600160a01b0319166001600160a01b0390931692909217825592820151928101929092556040810151600283015560608101516003830155608001516004909101558061263b81614f8c565b915050612495565b600061264f8133613ac4565b50601380546001600160a01b0319166001600160a01b0392909216919091179055565b600061267e8133613ac4565b600460025460ff1660078111156126a557634e487b7160e01b600052602160045260246000fd5b146127185760405162461bcd60e51b815260206004820152603360248201527f50523a20526566657272616c7320746f6b656e73206861766520616c7265616460448201527f79206265656e20646973747269627574656421000000000000000000000000006064820152608401610e24565b60006127248484613422565b905060005b8151811015611082576001600660016005600086868151811061275c57634e487b7160e01b600052603260045260246000fd5b6020026020010151600001516001600160a01b03166001600160a01b03168152602001908152602001600020546127939190614de2565b815481106127b157634e487b7160e01b600052603260045260246000fd5b9060005260206000209060050201600101541161295b576040518060a001604052808383815181106127f357634e487b7160e01b600052603260045260246000fd5b6020026020010151600001516001600160a01b03168152602001600c5460105485858151811061283357634e487b7160e01b600052603260045260246000fd5b6020026020010151602001516128499190614dc3565b6128539190614cb8565b8152602001600081526020016021544261286d9190614ca0565b8152602001602254426128809190614ca0565b81525060066001600560008686815181106128ab57634e487b7160e01b600052603260045260246000fd5b6020026020010151600001516001600160a01b03166001600160a01b03168152602001908152602001600020546128e29190614de2565b8154811061290057634e487b7160e01b600052603260045260246000fd5b600091825260209182902083516005929092020180546001600160a01b0319166001600160a01b0390921691909117815590820151600182015560408201516002820155606082015160038201556080909101516004909101555b8061296581614f8c565b915050612729565b60006129798133613ac4565b600360025460ff1660078111156129a057634e487b7160e01b600052602160045260246000fd5b146129ed5760405162461bcd60e51b815260206004820152601f60248201527f50523a204c697175696469747920697320616c726561647920616464656421006044820152606401610e24565b60175460165460155460405163e6a4390560e01b81526001600160a01b0392831660048201529082166024820152600092919091169063e6a439059060440160206040518083038186803b158015612a4457600080fd5b505afa158015612a58573d6000803e3d6000fd5b505050506040513d601f19601f82011682018060405250810190612a7c919061477f565b9050600080826001600160a01b0316630902f1ac6040518163ffffffff1660e01b815260040160606040518083038186803b158015612aba57600080fd5b505afa158015612ace573d6000803e3d6000fd5b505050506040513d601f19601f82011682018060405250810190612af2919061495c565b506015546016549294509092506001600160a01b0390811691161115612b1457905b80601254612b229190614dc3565b601a54612b30906024614de2565b612b3b90600a614d1b565b600c54612b489085614dc3565b612b529190614dc3565b612b5c9190614cb8565b6011556000620f4240612b6d613029565b601154612b7a9190614dc3565b612b849190614cb8565b60108190556015546019546040516370a0823160e01b81523060048201529293506001600160a01b0391821692839263a9059cbb92169083906370a082319060240160206040518083038186803b158015612bde57600080fd5b505afa158015612bf2573d6000803e3d6000fd5b505050506040513d601f19601f82011682018060405250810190612c169190614919565b6040516001600160e01b031960e085901b1681526001600160a01b0390921660048301526024820152604401602060405180830381600087803b158015612c5c57600080fd5b505af1158015612c70573d6000803e3d6000fd5b505050506040513d601f19601f82011682018060405250810190612c949190614869565b506013546019546040517f0bb9ff5d0000000000000000000000000000000000000000000000000000000081526001600160a01b03918216600482015260248101859052911690630bb9ff5d90604401600060405180830381600087803b158015612cfe57600080fd5b505af1158015612d12573d6000803e3d6000fd5b50506019546040517f6a6278420000000000000000000000000000000000000000000000000000000081523060048201526001600160a01b039091169250829150636a62784290602401602060405180830381600087803b158015612d7657600080fd5b505af1158015612d8a573d6000803e3d6000fd5b505050506040513d601f19601f82011682018060405250810190612dae9190614919565b506014546001600160a01b031615612f93576019546014546040517f095ea7b30000000000000000000000000000000000000000000000000000000081526001600160a01b039182166004820152600019602482015291169063095ea7b390604401602060405180830381600087803b158015612e2a57600080fd5b505af1158015612e3e573d6000803e3d6000fd5b505050506040513d601f19601f82011682018060405250810190612e629190614869565b506014546019546001600160a01b0391821691637d533c1e9116336019546040516370a0823160e01b81523060048201526001600160a01b03909116906370a082319060240160206040518083038186803b158015612ec057600080fd5b505afa158015612ed4573d6000803e3d6000fd5b505050506040513d601f19601f82011682018060405250810190612ef89190614919565b601e54612f059042614ca0565b6040516001600160e01b031960e087901b1681526001600160a01b03948516600482015293909216602484015260448301526064820152608401602060405180830381600087803b158015612f5957600080fd5b505af1158015612f6d573d6000803e3d6000fd5b505050506040513d601f19601f82011682018060405250810190612f919190614919565b505b6013546011546001600160a01b0390911690630bb9ff5d903090612fb8908790614de2565b6040516001600160e01b031960e085901b1681526001600160a01b0390921660048301526024820152604401600060405180830381600087803b158015612ffe57600080fd5b505af1158015613012573d6000803e3d6000fd5b505050506130206004613b42565b50505050505050565b60008060005b600a5481101561308b57600a818154811061305a57634e487b7160e01b600052603260045260246000fd5b906000526020600020906005020160020154826130779190614ca0565b91508061308381614f8c565b91505061302f565b50600b5461309d620f42406002614dc3565b6130a79190614ca0565b6130b482620f4240614de2565b6130c190620f4240614dc3565b6130cb9190614cb8565b91505090565b60408051808201909152600080825260208201526001600160a01b03821660009081526007602052604090205460089061310d90600190614de2565b81548110611e3657634e487b7160e01b600052603260045260246000fd5b601b8054611d8090614f51565b60006131448133613ac4565b60005b60085481101561324f57600160066001600560006008868154811061317c57634e487b7160e01b600052603260045260246000fd5b600091825260208083206002909202909101546001600160a01b031683528201929092526040019020546131b09190614de2565b815481106131ce57634e487b7160e01b600052603260045260246000fd5b9060005260206000209060050201600101541161323d5760405162461bcd60e51b815260206004820152602760248201527f50523a204e6f7420616c6c20696e766573746f7227732076657374696e6720776044820152666173207365742160c81b6064820152608401610e24565b8061324781614f8c565b915050613147565b5060005b60045481101561335b57600160066001600560006004868154811061328857634e487b7160e01b600052603260045260246000fd5b600091825260208083206003909202909101546001600160a01b031683528201929092526040019020546132bc9190614de2565b815481106132da57634e487b7160e01b600052603260045260246000fd5b906000526020600020906005020160010154116133495760405162461bcd60e51b815260206004820152602760248201527f50523a204e6f7420616c6c20696e766573746f7227732076657374696e6720776044820152666173207365742160c81b6064820152608401610e24565b8061335381614f8c565b915050613253565b506113036006613b42565b600081815260016020526040812061134490614054565b611c47828261405e565b60006133938133613ac4565b61339f600a60006146b5565b60005b828110156113dd57600a8484838181106133cc57634e487b7160e01b600052603260045260246000fd5b90506020028101906133de9190614c81565b8154600181018355600092835260209092209091600502016134008282614fd3565b5050808061340d90614f8c565b9150506133a2565b601d8054611d8090614f51565b60608260006134318483614ca0565b60085490915081116134435780613447565b6008545b90506000828211613459576000613463565b6134638383614de2565b905060008167ffffffffffffffff81111561348e57634e487b7160e01b600052604160045260246000fd5b6040519080825280602002602001820160405280156134d357816020015b60408051808201909152600080825260208201528152602001906001900390816134ac5790505b509050835b838110156123b0576008818154811061350157634e487b7160e01b600052603260045260246000fd5b60009182526020918290206040805180820190915260029092020180546001600160a01b0316825260010154918101919091528261353f8784614de2565b8151811061355d57634e487b7160e01b600052603260045260246000fd5b6020026020010181905250808061357390614f8c565b9150506134d8565b60006135878133613ac4565b50600d92909255600e55600f55565b606060006135a2613029565b600a549091506000906135b6906003614ca0565b67ffffffffffffffff8111156135dc57634e487b7160e01b600052604160045260246000fd5b60405190808252806020026020018201604052801561364857816020015b6136356040518060a0016040528060006001600160a01b03168152602001606081526020016000815260200160008152602001600081525090565b8152602001906001900390816135fa5790505b5090506040518060a0016040528060016001600160a01b031681526020016040518060400160405280600981526020017f4c697175696469747900000000000000000000000000000000000000000000008152508152602001838152602001601e5481526020016000815250816000815181106136d557634e487b7160e01b600052603260045260246000fd5b60200260200101819052506040518060a0016040528060026001600160a01b031681526020016040518060400160405280600781526020017f50726573616c65000000000000000000000000000000000000000000000000008152508152602001838152602001601f5481526020016020548152508160018151811061376b57634e487b7160e01b600052603260045260246000fd5b60200260200101819052506040518060a0016040528060036001600160a01b031681526020016040518060400160405280600981526020017f526566657272616c7300000000000000000000000000000000000000000000008152508152602001620f4240600b54856137de9190614dc3565b6137e89190614cb8565b815260200160215481526020016022548152508160028151811061381c57634e487b7160e01b600052603260045260246000fd5b602002602001018190525060005b600a5481101561397f57600a818154811061385557634e487b7160e01b600052603260045260246000fd5b60009182526020918290206040805160a0810190915260059092020180546001600160a01b03168252600181018054929391929184019161389590614f51565b80601f01602080910402602001604051908101604052809291908181526020018280546138c190614f51565b801561390e5780601f106138e35761010080835404028352916020019161390e565b820191906000526020600020905b8154815290600101906020018083116138f157829003601f168201915b505050505081526020016002820154815260200160038201548152602001600482015481525050828260036139439190614ca0565b8151811061396157634e487b7160e01b600052603260045260246000fd5b6020026020010181905250808061397790614f8c565b91505061382a565b50600a805480602002602001604051908101604052809291908181526020016000905b82821015613a9a5760008481526020908190206040805160a081019091526005850290910180546001600160a01b0316825260018101805492939192918401916139eb90614f51565b80601f0160208091040260200160405190810160405280929190818152602001828054613a1790614f51565b8015613a645780601f10613a3957610100808354040283529160200191613a64565b820191906000526020600020905b815481529060010190602001808311613a4757829003601f168201915b505050505081526020016002820154815260200160038201548152602001600482015481525050815260200190600101906139a2565b505050509250505090565b6120118282614084565b60006123d3836001600160a01b038416614122565b6000828152602081815260408083206001600160a01b038516845290915290205460ff1661201157613b00816001600160a01b03166014614171565b613b0b836020614171565b604051602001613b1c9291906149c8565b60408051601f198184030181529082905262461bcd60e51b8252610e2491600401614c1f565b6002805482919060ff19166001836007811115613b6f57634e487b7160e01b600052602160045260246000fd5b02179055507f551dc40198cc79684bb69e4931dba4ac16e4598792ee1c0a5000aeea366d7bb681604051613ba39190614bf7565b60405180910390a150565b60006001600160e01b031982167f7965db0b00000000000000000000000000000000000000000000000000000000148061134457507f01ffc9a7000000000000000000000000000000000000000000000000000000006001600160e01b0319831614611344565b611bd58282613aa5565b6001600160a01b038316600090815260036020526040902054613d1f57604080516060810182526001600160a01b038086168083528582166020808501918252848601878152600480546001810182556000828152975160039182027f8a35acfbc15ff81a39ae7d344fd709f28e8600b4aa8c65c6b64bfe7fe36bd19b81018054928a166001600160a01b031993841617905595517f8a35acfbc15ff81a39ae7d344fd709f28e8600b4aa8c65c6b64bfe7fe36bd19c870180549190991691161790965590517f8a35acfbc15ff81a39ae7d344fd709f28e8600b4aa8c65c6b64bfe7fe36bd19d9093019290925590549184529190915291902055613e36565b6001600160a01b0383166000908152600360205260408120548290600490613d4990600190614de2565b81548110613d6757634e487b7160e01b600052603260045260246000fd5b906000526020600020906003020160020154613d839190614ca0565b9050600f54811115613dd75760405162461bcd60e51b815260206004820152601f60248201527f50523a204d617820636170207065722077616c6c6574206578636565646564006044820152606401610e24565b6001600160a01b0384166000908152600360205260409020548190600490613e0190600190614de2565b81548110613e1f57634e487b7160e01b600052603260045260246000fd5b906000526020600020906003020160020181905550505b80600c6000828254613e489190614ca0565b90915550611bed905083614398565b6001600160a01b038216600090815260076020526040902054613f1e576040805180820182526001600160a01b03848116808352602080840186815260088054600181018255600082815296517ff3f7a9fe364faab93b216da50a3214154f22a0a2b415b23a84c8169e8b636ee3600290920291820180546001600160a01b031916919097161790955590517ff3f7a9fe364faab93b216da50a3214154f22a0a2b415b23a84c8169e8b636ee4909401939093559154908352600790915291902055613f8c565b6001600160a01b0382166000908152600760205260409020548190600890613f4890600190614de2565b81548110613f6657634e487b7160e01b600052603260045260246000fd5b90600052602060002090600202016001016000828254613f869190614ca0565b90915550505b61201182614398565b6000613fa18133613ac4565b611bed8383614084565b6001600160a01b03811633146140295760405162461bcd60e51b815260206004820152602f60248201527f416363657373436f6e74726f6c3a2063616e206f6e6c792072656e6f756e636560448201527f20726f6c657320666f722073656c6600000000000000000000000000000000006064820152608401610e24565b61201182826144e1565b60006123d3836001600160a01b038416614560565b60006123d3838361467d565b6000611344825490565b60008281526020819052604090206001015461407a8133613ac4565b611bed83836144e1565b6000828152602081815260408083206001600160a01b038516845290915290205460ff16612011576000828152602081815260408083206001600160a01b03851684529091529020805460ff191660011790556140de3390565b6001600160a01b0316816001600160a01b0316837f2f8788117e7eff1d82e926ec794901d17c78024a50270940304540a733656f0d60405160405180910390a45050565b600081815260018301602052604081205461416957508154600181810184556000848152602080822090930184905584548482528286019093526040902091909155611344565b506000611344565b60606000614180836002614dc3565b61418b906002614ca0565b67ffffffffffffffff8111156141b157634e487b7160e01b600052604160045260246000fd5b6040519080825280601f01601f1916602001820160405280156141db576020820181803683370190505b5090507f30000000000000000000000000000000000000000000000000000000000000008160008151811061422057634e487b7160e01b600052603260045260246000fd5b60200101906001600160f81b031916908160001a9053507f78000000000000000000000000000000000000000000000000000000000000008160018151811061427957634e487b7160e01b600052603260045260246000fd5b60200101906001600160f81b031916908160001a905350600061429d846002614dc3565b6142a8906001614ca0565b90505b6001811115614349577f303132333435363738396162636465660000000000000000000000000000000085600f16601081106142f757634e487b7160e01b600052603260045260246000fd5b1a60f81b82828151811061431b57634e487b7160e01b600052603260045260246000fd5b60200101906001600160f81b031916908160001a90535060049490941c9361434281614f3a565b90506142ab565b5083156123d35760405162461bcd60e51b815260206004820181905260248201527f537472696e67733a20686578206c656e67746820696e73756666696369656e746044820152606401610e24565b6001600160a01b038116600090815260056020526040902054611303576040805160a0810182526001600160a01b03928316808252600160208084018281528486018381526060860184815260808701858152600680549687018155600081815298517ff652222313e28459528d920b65115c16c04f3efc82aaedc97be59f3f377c0d3f600598890290810180546001600160a01b03191692909d1691909117909b5593517ff652222313e28459528d920b65115c16c04f3efc82aaedc97be59f3f377c0d408b015591517ff652222313e28459528d920b65115c16c04f3efc82aaedc97be59f3f377c0d418a0155517ff652222313e28459528d920b65115c16c04f3efc82aaedc97be59f3f377c0d42890155517ff652222313e28459528d920b65115c16c04f3efc82aaedc97be59f3f377c0d439097019690965594549183529093522055565b6000828152602081815260408083206001600160a01b038516845290915290205460ff1615612011576000828152602081815260408083206001600160a01b0385168085529252808320805460ff1916905551339285917ff6391f5c32d9c69d2a47ea670b442974b53935d1edc7fd64eb21e047a839171b9190a45050565b60008181526001830160205260408120548015614673576000614584600183614de2565b855490915060009061459890600190614de2565b90508181146146195760008660000182815481106145c657634e487b7160e01b600052603260045260246000fd5b90600052602060002001549050808760000184815481106145f757634e487b7160e01b600052603260045260246000fd5b6000918252602080832090910192909255918252600188019052604090208390555b855486908061463857634e487b7160e01b600052603160045260246000fd5b600190038181906000526020600020016000905590558560010160008681526020019081526020016000206000905560019350505050611344565b6000915050611344565b60008260000182815481106146a257634e487b7160e01b600052603260045260246000fd5b9060005260206000200154905092915050565b508054600082556005029060005260206000209081019061130391905b808211156147155780546001600160a01b031916815560006146f76001830182614719565b506000600282018190556003820181905560048201556005016146d2565b5090565b50805461472590614f51565b6000825580601f10614735575050565b601f01602090049060005260206000209081019061130391905b80821115614715576000815560010161474f565b600060208284031215614774578081fd5b81356123d38161506f565b600060208284031215614790578081fd5b81516123d38161506f565b600080602083850312156147ad578081fd5b823567ffffffffffffffff808211156147c4578283fd5b818501915085601f8301126147d7578283fd5b8135818111156147e5578384fd5b8660208260061b85010111156147f9578384fd5b60209290920196919550909350505050565b6000806020838503121561481d578182fd5b823567ffffffffffffffff80821115614834578384fd5b818501915085601f830112614847578384fd5b813581811115614855578485fd5b8660208260051b85010111156147f9578485fd5b60006020828403121561487a578081fd5b815180151581146123d3578182fd5b60006020828403121561489a578081fd5b5035919050565b600080604083850312156148b3578182fd5b8235915060208301356148c58161506f565b809150509250929050565b600080604083850312156148e2578182fd5b50508035926020909101359150565b600060208284031215614902578081fd5b81356001600160e01b0319811681146123d3578182fd5b60006020828403121561492a578081fd5b5051919050565b600080600060608486031215614945578081fd5b505081359360208301359350604090920135919050565b600080600060608486031215614970578283fd5b8351925060208401519150604084015163ffffffff81168114614991578182fd5b809150509250925092565b600081518084526149b4816020860160208601614f0e565b601f01601f19169290920160200192915050565b7f416363657373436f6e74726f6c3a206163636f756e7420000000000000000000815260008351614a00816017850160208801614f0e565b7f206973206d697373696e6720726f6c65200000000000000000000000000000006017918401918201528351614a3d816028840160208801614f0e565b01602801949350505050565b6001600160a01b038616815260a060208201526000614a6b60a083018761499c565b604083019590955250606081019290925260809091015292915050565b6020808252825182820181905260009190848201906040850190845b81811015614aee57614adb8385516001600160a01b0380825116835280602083015116602084015250604081015160408301525050565b9284019260609290920191600101614aa4565b50909695505050505050565b602080825282518282018190526000919060409081850190868401855b82811015614b4d57614b3d84835180516001600160a01b03168252602090810151910152565b9284019290850190600101614b17565b5091979650505050505050565b60006020808301818452808551808352604092508286019150828160051b870101848801865b83811015614be957603f19898403018552815160a06001600160a01b03825116855288820151818a870152614bb78287018261499c565b838a0151878b015260608085015190880152608093840151939096019290925250509386019390860190600101614b80565b509098975050505050505050565b6020810160088310614c1957634e487b7160e01b600052602160045260246000fd5b91905290565b6020815260006123d3602083018461499c565b81516001600160a01b039081168252602080840151909116908201526040808301519082015260608101611344565b81516001600160a01b031681526020808301519082015260408101611344565b60008235609e19833603018112614c96578182fd5b9190910192915050565b60008219821115614cb357614cb3614fa7565b500190565b600082614cd357634e487b7160e01b81526012600452602481fd5b500490565b600181815b80851115614d13578160001904821115614cf957614cf9614fa7565b80851615614d0657918102915b93841c9390800290614cdd565b509250929050565b60006123d38383600082614d3157506001611344565b81614d3e57506000611344565b8160018114614d545760028114614d5e57614d7a565b6001915050611344565b60ff841115614d6f57614d6f614fa7565b50506001821b611344565b5060208310610133831016604e8410600b8410161715614d9d575081810a611344565b614da78383614cd8565b8060001904821115614dbb57614dbb614fa7565b029392505050565b6000816000190483118215151615614ddd57614ddd614fa7565b500290565b600082821015614df457614df4614fa7565b500390565b5b818110156120115760008155600101614dfa565b67ffffffffffffffff831115614e2657614e26614fbd565b614e308154614f51565b600080601f8611601f841181811715614e4f5760008681526020902092505b8015614e7e57601f880160051c83016020891015614e6a5750825b614e7c601f870160051c850182614df9565b505b508060018114614eb257600094508715614e99578387013594505b600188901b60001960038a901b1c198616178655614f04565b601f198816945082845b86811015614edc5788860135825560209586019560019092019101614ebc565b5088861015614ef95760001960f88a60031b161c19858901351681555b5060018860011b0186555b5050505050505050565b60005b83811015614f29578181015183820152602001614f11565b838111156113dd5750506000910152565b600081614f4957614f49614fa7565b506000190190565b600181811c90821680614f6557607f821691505b60208210811415614f8657634e487b7160e01b600052602260045260246000fd5b50919050565b6000600019821415614fa057614fa0614fa7565b5060010190565b634e487b7160e01b600052601160045260246000fd5b634e487b7160e01b600052604160045260246000fd5b8135614fde8161506f565b6001600160a01b0381166001600160a01b0319835416178255506020820135601e1983360301811261500f57600080fd5b8201803567ffffffffffffffff81111561502857600080fd5b60208201915080360382131561503d57600080fd5b61504b818360018601614e0e565b50506040820135600282015560608201356003820155608082013560048201555050565b6001600160a01b038116811461130357600080fdfea264697066735822122049b04b84876d18e595c26b6b739847417e86058d22c14e5560ee7f62b7c9bbee64736f6c6343000804003368747470733a2f2f6c616d626f2e64656669666163746f72792e66696e616e6365",
			"opcodes": "PUSH1 0x80 PUSH1 0x40 MSTORE PUSH2 0xC350 PUSH1 0xB SSTORE PUSH8 0x4563918244F40000 PUSH1 0xD SSTORE PUSH5 0x2540BE400 PUSH1 0xE SSTORE PUSH10 0x10F0CF064DD59200000 PUSH1 0xF SSTORE PUSH5 0xE8D4A51000 PUSH1 0x12 SSTORE CALLVALUE DUP1 ISZERO PUSH3 0x43 JUMPI PUSH1 0x0 DUP1 REVERT JUMPDEST POP PUSH3 0x51 PUSH1 0x0 CALLER PUSH3 0x510 JUMP JUMPDEST PUSH1 0x40 DUP1 MLOAD DUP1 DUP3 ADD SWAP1 SWAP2 MSTORE PUSH1 0x13 DUP1 DUP3 MSTORE PUSH32 0x4C616D626F20546F6B656E2050726573616C6500000000000000000000000000 PUSH1 0x20 SWAP1 SWAP3 ADD SWAP2 DUP3 MSTORE PUSH3 0x97 SWAP2 PUSH1 0x1D SWAP2 PUSH3 0x9B2 JUMP JUMPDEST POP PUSH1 0x40 MLOAD DUP1 PUSH1 0x60 ADD PUSH1 0x40 MSTORE DUP1 PUSH1 0x21 DUP2 MSTORE PUSH1 0x20 ADD PUSH3 0x5BAC PUSH1 0x21 SWAP2 CODECOPY DUP1 MLOAD PUSH3 0xC8 SWAP2 PUSH1 0x1B SWAP2 PUSH1 0x20 SWAP1 SWAP2 ADD SWAP1 PUSH3 0x9B2 JUMP JUMPDEST POP PUSH1 0x40 DUP1 MLOAD DUP1 DUP3 ADD SWAP1 SWAP2 MSTORE PUSH1 0x1D DUP1 DUP3 MSTORE PUSH32 0x68747470733A2F2F742E6D652F4C616D626F546F6B656E4F776E657273000000 PUSH1 0x20 SWAP1 SWAP3 ADD SWAP2 DUP3 MSTORE PUSH3 0x10F SWAP2 PUSH1 0x1C SWAP2 PUSH3 0x9B2 JUMP JUMPDEST POP PUSH4 0xBBF81E00 PUSH1 0x1E SSTORE PUSH3 0x15180 PUSH1 0x1F DUP2 SWAP1 SSTORE PUSH3 0x93A80 PUSH1 0x20 DUP2 DUP2 SSTORE PUSH1 0x21 SWAP3 SWAP1 SWAP3 SSTORE PUSH1 0x22 SSTORE PUSH1 0x40 DUP1 MLOAD DUP1 DUP3 ADD SWAP1 SWAP2 MSTORE PUSH1 0xB DUP2 MSTORE PUSH11 0x11195D995B1BDC1B595B9D PUSH1 0xAA SHL SWAP2 DUP2 ADD SWAP2 SWAP1 SWAP2 MSTORE PUSH3 0x181 SWAP1 PUSH20 0x1111BEE701EF814A2B6A3EDD4B1652CB9CC5AA6F SWAP1 PUSH3 0x249F0 PUSH1 0x3C PUSH2 0x258 PUSH3 0x553 JUMP JUMPDEST PUSH3 0x1D1 PUSH20 0x2222BEE701EF814A2B6A3EDD4B1652CB9CC5AA6F PUSH1 0x40 MLOAD DUP1 PUSH1 0x40 ADD PUSH1 0x40 MSTORE DUP1 PUSH1 0x9 DUP2 MSTORE PUSH1 0x20 ADD PUSH9 0x4D61726B6574696E67 PUSH1 0xB8 SHL DUP2 MSTORE POP PUSH3 0x186A0 PUSH1 0x78 PUSH2 0x4B0 PUSH3 0x553 PUSH1 0x20 SHL PUSH1 0x20 SHR JUMP JUMPDEST PUSH3 0x21F PUSH20 0x3333BEE701EF814A2B6A3EDD4B1652CB9CC5AA6F PUSH1 0x40 MLOAD DUP1 PUSH1 0x40 ADD PUSH1 0x40 MSTORE DUP1 PUSH1 0x8 DUP2 MSTORE PUSH1 0x20 ADD PUSH8 0x41647669736F7273 PUSH1 0xC0 SHL DUP2 MSTORE POP PUSH2 0xC350 PUSH1 0xB4 PUSH2 0x708 PUSH3 0x553 PUSH1 0x20 SHL PUSH1 0x20 SHR JUMP JUMPDEST PUSH1 0x1 CHAINID EQ ISZERO PUSH3 0x2D6 JUMPI PUSH1 0x17 DUP1 SLOAD PUSH1 0x1 PUSH1 0x1 PUSH1 0xA0 SHL SUB NOT SWAP1 DUP2 AND PUSH20 0x5C69BEE701EF814A2B6A3EDD4B1652CB9CC5AA6F OR SWAP1 SWAP2 SSTORE PUSH1 0x18 DUP1 SLOAD DUP3 AND PUSH20 0x7A250D5630B4CF539739DF2C5DACB4C659F2488D OR SWAP1 SSTORE PUSH1 0x16 DUP1 SLOAD DUP3 AND PUSH20 0xDAC17F958D2EE523A2206206994597C13D831EC7 OR SWAP1 SSTORE PUSH1 0x15 DUP1 SLOAD DUP3 AND PUSH20 0xC02AAA39B223FE8D0A0E5C4F27EAD9083C756CC2 OR SWAP1 SSTORE PUSH1 0x6 PUSH1 0x1A SSTORE PUSH1 0x14 DUP1 SLOAD SWAP1 SWAP2 AND PUSH20 0xC77AAB3C6D7DAB46248F3CC3033C856171878BD5 OR SWAP1 SSTORE PUSH3 0x4FE JUMP JUMPDEST PUSH1 0x38 CHAINID EQ ISZERO PUSH3 0x38D JUMPI PUSH1 0x17 DUP1 SLOAD PUSH1 0x1 PUSH1 0x1 PUSH1 0xA0 SHL SUB NOT SWAP1 DUP2 AND PUSH20 0xCA143CE32FE78F1F7019D7D551A6402FC5350C73 OR SWAP1 SWAP2 SSTORE PUSH1 0x18 DUP1 SLOAD DUP3 AND PUSH20 0x10ED43C718714EB63D5AA57B78B54704E256024E OR SWAP1 SSTORE PUSH1 0x16 DUP1 SLOAD DUP3 AND PUSH20 0xE9E7CEA3DEDCA5984780BAFC599BD69ADD087D56 OR SWAP1 SSTORE PUSH1 0x15 DUP1 SLOAD DUP3 AND PUSH20 0xBB4CDB9CBD36B01BD1CBAEBF2DE08D9173BC095C OR SWAP1 SSTORE PUSH1 0x12 PUSH1 0x1A SSTORE PUSH1 0x14 DUP1 SLOAD SWAP1 SWAP2 AND PUSH20 0x7536592BB74B5D62EB82E8B93B17EED4EED9A85C OR SWAP1 SSTORE PUSH3 0x4FE JUMP JUMPDEST PUSH1 0x2A CHAINID EQ ISZERO PUSH3 0x44C JUMPI PUSH1 0x17 DUP1 SLOAD PUSH1 0x1 PUSH1 0x1 PUSH1 0xA0 SHL SUB NOT SWAP1 DUP2 AND PUSH20 0x5C69BEE701EF814A2B6A3EDD4B1652CB9CC5AA6F OR SWAP1 SWAP2 SSTORE PUSH1 0x18 DUP1 SLOAD DUP3 AND PUSH20 0x7A250D5630B4CF539739DF2C5DACB4C659F2488D OR SWAP1 SSTORE PUSH1 0x16 DUP1 SLOAD DUP3 AND PUSH20 0x2F375E94FC336CDEC2DC0CCB5277FE59CBF1CAE5 OR SWAP1 SSTORE PUSH1 0x15 DUP1 SLOAD DUP3 AND PUSH20 0xD0A1E359811322D97991E03F863A0C30C2CF029C OR SWAP1 SSTORE PUSH1 0x6 PUSH1 0x1A SSTORE PUSH1 0x14 DUP1 SLOAD DUP3 AND SWAP1 SSTORE PUSH1 0x13 DUP1 SLOAD SWAP1 SWAP2 AND PUSH20 0x94FFFF5EAE20544C00D4709918AE07D2FB672A52 OR SWAP1 SSTORE PUSH3 0x4FE JUMP JUMPDEST PUSH1 0x3 CHAINID EQ ISZERO PUSH3 0x4FE JUMPI PUSH1 0x17 DUP1 SLOAD PUSH1 0x1 PUSH1 0x1 PUSH1 0xA0 SHL SUB NOT SWAP1 DUP2 AND PUSH20 0x5C69BEE701EF814A2B6A3EDD4B1652CB9CC5AA6F OR SWAP1 SWAP2 SSTORE PUSH1 0x18 DUP1 SLOAD DUP3 AND PUSH20 0x7A250D5630B4CF539739DF2C5DACB4C659F2488D OR SWAP1 SSTORE PUSH1 0x16 DUP1 SLOAD DUP3 AND PUSH20 0x7865C6E87B9F70255377E024ACE6630C1EAA37F OR SWAP1 SSTORE PUSH1 0x15 DUP1 SLOAD DUP3 AND PUSH20 0xC778417E063141139FCE010982780140AA0CD5AB OR SWAP1 SSTORE PUSH1 0x6 PUSH1 0x1A SSTORE PUSH1 0x14 DUP1 SLOAD SWAP1 SWAP2 AND PUSH20 0x8733CAA60EDA1597336C0337EFDE27C1335F7530 OR SWAP1 SSTORE JUMPDEST PUSH3 0x50A PUSH1 0x0 PUSH3 0x821 JUMP JUMPDEST PUSH3 0xAE2 JUMP JUMPDEST PUSH3 0x527 DUP3 DUP3 PUSH3 0x890 PUSH1 0x20 SHL PUSH3 0x3AA5 OR PUSH1 0x20 SHR JUMP JUMPDEST PUSH1 0x0 DUP3 DUP2 MSTORE PUSH1 0x1 PUSH1 0x20 SWAP1 DUP2 MSTORE PUSH1 0x40 SWAP1 SWAP2 KECCAK256 PUSH3 0x54E SWAP2 DUP4 SWAP1 PUSH3 0x3AAF PUSH3 0x8A0 DUP3 SHL OR SWAP1 SHR JUMP JUMPDEST POP POP POP JUMP JUMPDEST PUSH1 0x1 PUSH1 0x1 PUSH1 0xA0 SHL SUB DUP6 AND PUSH1 0x0 SWAP1 DUP2 MSTORE PUSH1 0x9 PUSH1 0x20 MSTORE PUSH1 0x40 SWAP1 KECCAK256 SLOAD PUSH3 0x671 JUMPI PUSH1 0x40 DUP1 MLOAD PUSH1 0xA0 DUP2 ADD DUP3 MSTORE PUSH1 0x1 PUSH1 0x1 PUSH1 0xA0 SHL SUB DUP8 DUP2 AND DUP3 MSTORE PUSH1 0x20 DUP1 DUP4 ADD DUP9 DUP2 MSTORE SWAP4 DUP4 ADD DUP8 SWAP1 MSTORE PUSH1 0x60 DUP4 ADD DUP7 SWAP1 MSTORE PUSH1 0x80 DUP4 ADD DUP6 SWAP1 MSTORE PUSH1 0xA DUP1 SLOAD PUSH1 0x1 DUP2 ADD DUP3 SSTORE PUSH1 0x0 SWAP2 SWAP1 SWAP2 MSTORE DUP4 MLOAD PUSH32 0xC65A7BB8D6351C1CF70C95A316CC6A92839C986682D98BC35F958F4883F9D2A8 PUSH1 0x5 SWAP1 SWAP3 MUL SWAP2 DUP3 ADD DUP1 SLOAD PUSH1 0x1 PUSH1 0x1 PUSH1 0xA0 SHL SUB NOT AND SWAP2 SWAP1 SWAP5 AND OR DUP4 SSTORE SWAP4 MLOAD DUP1 MLOAD SWAP4 SWAP5 SWAP3 SWAP4 PUSH3 0x62D SWAP4 PUSH32 0xC65A7BB8D6351C1CF70C95A316CC6A92839C986682D98BC35F958F4883F9D2A9 ADD SWAP3 SWAP2 SWAP1 SWAP2 ADD SWAP1 PUSH3 0x9B2 JUMP JUMPDEST POP PUSH1 0x40 DUP3 DUP2 ADD MLOAD PUSH1 0x2 DUP4 ADD SSTORE PUSH1 0x60 DUP4 ADD MLOAD PUSH1 0x3 DUP4 ADD SSTORE PUSH1 0x80 SWAP1 SWAP3 ADD MLOAD PUSH1 0x4 SWAP1 SWAP2 ADD SSTORE PUSH1 0x8 SLOAD PUSH1 0x1 PUSH1 0x1 PUSH1 0xA0 SHL SUB DUP8 AND PUSH1 0x0 SWAP1 DUP2 MSTORE PUSH1 0x9 PUSH1 0x20 MSTORE SWAP2 SWAP1 SWAP2 KECCAK256 SSTORE PUSH3 0x81A JUMP JUMPDEST PUSH1 0x1 PUSH1 0x1 PUSH1 0xA0 SHL SUB DUP6 AND PUSH1 0x0 SWAP1 DUP2 MSTORE PUSH1 0x9 PUSH1 0x20 MSTORE PUSH1 0x40 SWAP1 KECCAK256 SLOAD DUP5 SWAP1 PUSH1 0xA SWAP1 PUSH3 0x69D SWAP1 PUSH1 0x1 SWAP1 PUSH3 0xA81 JUMP JUMPDEST DUP2 SLOAD DUP2 LT PUSH3 0x6BC JUMPI PUSH4 0x4E487B71 PUSH1 0xE0 SHL PUSH1 0x0 MSTORE PUSH1 0x32 PUSH1 0x4 MSTORE PUSH1 0x24 PUSH1 0x0 REVERT JUMPDEST SWAP1 PUSH1 0x0 MSTORE PUSH1 0x20 PUSH1 0x0 KECCAK256 SWAP1 PUSH1 0x5 MUL ADD PUSH1 0x1 ADD SWAP1 DUP1 MLOAD SWAP1 PUSH1 0x20 ADD SWAP1 PUSH3 0x6E2 SWAP3 SWAP2 SWAP1 PUSH3 0x9B2 JUMP JUMPDEST POP PUSH1 0x1 PUSH1 0x1 PUSH1 0xA0 SHL SUB DUP6 AND PUSH1 0x0 SWAP1 DUP2 MSTORE PUSH1 0x9 PUSH1 0x20 MSTORE PUSH1 0x40 SWAP1 KECCAK256 SLOAD DUP4 SWAP1 PUSH1 0xA SWAP1 PUSH3 0x70F SWAP1 PUSH1 0x1 SWAP1 PUSH3 0xA81 JUMP JUMPDEST DUP2 SLOAD DUP2 LT PUSH3 0x72E JUMPI PUSH4 0x4E487B71 PUSH1 0xE0 SHL PUSH1 0x0 MSTORE PUSH1 0x32 PUSH1 0x4 MSTORE PUSH1 0x24 PUSH1 0x0 REVERT JUMPDEST SWAP1 PUSH1 0x0 MSTORE PUSH1 0x20 PUSH1 0x0 KECCAK256 SWAP1 PUSH1 0x5 MUL ADD PUSH1 0x2 ADD DUP2 SWAP1 SSTORE POP DUP2 PUSH1 0xA PUSH1 0x1 PUSH1 0x9 PUSH1 0x0 DUP10 PUSH1 0x1 PUSH1 0x1 PUSH1 0xA0 SHL SUB AND PUSH1 0x1 PUSH1 0x1 PUSH1 0xA0 SHL SUB AND DUP2 MSTORE PUSH1 0x20 ADD SWAP1 DUP2 MSTORE PUSH1 0x20 ADD PUSH1 0x0 KECCAK256 SLOAD PUSH3 0x77A SWAP2 SWAP1 PUSH3 0xA81 JUMP JUMPDEST DUP2 SLOAD DUP2 LT PUSH3 0x799 JUMPI PUSH4 0x4E487B71 PUSH1 0xE0 SHL PUSH1 0x0 MSTORE PUSH1 0x32 PUSH1 0x4 MSTORE PUSH1 0x24 PUSH1 0x0 REVERT JUMPDEST SWAP1 PUSH1 0x0 MSTORE PUSH1 0x20 PUSH1 0x0 KECCAK256 SWAP1 PUSH1 0x5 MUL ADD PUSH1 0x3 ADD DUP2 SWAP1 SSTORE POP DUP1 PUSH1 0xA PUSH1 0x1 PUSH1 0x9 PUSH1 0x0 DUP10 PUSH1 0x1 PUSH1 0x1 PUSH1 0xA0 SHL SUB AND PUSH1 0x1 PUSH1 0x1 PUSH1 0xA0 SHL SUB AND DUP2 MSTORE PUSH1 0x20 ADD SWAP1 DUP2 MSTORE PUSH1 0x20 ADD PUSH1 0x0 KECCAK256 SLOAD PUSH3 0x7E5 SWAP2 SWAP1 PUSH3 0xA81 JUMP JUMPDEST DUP2 SLOAD DUP2 LT PUSH3 0x804 JUMPI PUSH4 0x4E487B71 PUSH1 0xE0 SHL PUSH1 0x0 MSTORE PUSH1 0x32 PUSH1 0x4 MSTORE PUSH1 0x24 PUSH1 0x0 REVERT JUMPDEST SWAP1 PUSH1 0x0 MSTORE PUSH1 0x20 PUSH1 0x0 KECCAK256 SWAP1 PUSH1 0x5 MUL ADD PUSH1 0x4 ADD DUP2 SWAP1 SSTORE POP JUMPDEST POP POP POP POP POP JUMP JUMPDEST PUSH1 0x2 DUP1 SLOAD DUP3 SWAP2 SWAP1 PUSH1 0xFF NOT AND PUSH1 0x1 DUP4 PUSH1 0x7 DUP2 GT ISZERO PUSH3 0x84F JUMPI PUSH4 0x4E487B71 PUSH1 0xE0 SHL PUSH1 0x0 MSTORE PUSH1 0x21 PUSH1 0x4 MSTORE PUSH1 0x24 PUSH1 0x0 REVERT JUMPDEST MUL OR SWAP1 SSTORE POP PUSH32 0x551DC40198CC79684BB69E4931DBA4AC16E4598792EE1C0A5000AEEA366D7BB6 DUP2 PUSH1 0x40 MLOAD PUSH3 0x885 SWAP2 SWAP1 PUSH3 0xA58 JUMP JUMPDEST PUSH1 0x40 MLOAD DUP1 SWAP2 SUB SWAP1 LOG1 POP JUMP JUMPDEST PUSH3 0x89C DUP3 DUP3 PUSH3 0x8C0 JUMP JUMPDEST POP POP JUMP JUMPDEST PUSH1 0x0 PUSH3 0x8B7 DUP4 PUSH1 0x1 PUSH1 0x1 PUSH1 0xA0 SHL SUB DUP5 AND PUSH3 0x960 JUMP JUMPDEST SWAP1 POP JUMPDEST SWAP3 SWAP2 POP POP JUMP JUMPDEST PUSH1 0x0 DUP3 DUP2 MSTORE PUSH1 0x20 DUP2 DUP2 MSTORE PUSH1 0x40 DUP1 DUP4 KECCAK256 PUSH1 0x1 PUSH1 0x1 PUSH1 0xA0 SHL SUB DUP6 AND DUP5 MSTORE SWAP1 SWAP2 MSTORE SWAP1 KECCAK256 SLOAD PUSH1 0xFF AND PUSH3 0x89C JUMPI PUSH1 0x0 DUP3 DUP2 MSTORE PUSH1 0x20 DUP2 DUP2 MSTORE PUSH1 0x40 DUP1 DUP4 KECCAK256 PUSH1 0x1 PUSH1 0x1 PUSH1 0xA0 SHL SUB DUP6 AND DUP5 MSTORE SWAP1 SWAP2 MSTORE SWAP1 KECCAK256 DUP1 SLOAD PUSH1 0xFF NOT AND PUSH1 0x1 OR SWAP1 SSTORE PUSH3 0x91C CALLER SWAP1 JUMP JUMPDEST PUSH1 0x1 PUSH1 0x1 PUSH1 0xA0 SHL SUB AND DUP2 PUSH1 0x1 PUSH1 0x1 PUSH1 0xA0 SHL SUB AND DUP4 PUSH32 0x2F8788117E7EFF1D82E926EC794901D17C78024A50270940304540A733656F0D PUSH1 0x40 MLOAD PUSH1 0x40 MLOAD DUP1 SWAP2 SUB SWAP1 LOG4 POP POP JUMP JUMPDEST PUSH1 0x0 DUP2 DUP2 MSTORE PUSH1 0x1 DUP4 ADD PUSH1 0x20 MSTORE PUSH1 0x40 DUP2 KECCAK256 SLOAD PUSH3 0x9A9 JUMPI POP DUP2 SLOAD PUSH1 0x1 DUP2 DUP2 ADD DUP5 SSTORE PUSH1 0x0 DUP5 DUP2 MSTORE PUSH1 0x20 DUP1 DUP3 KECCAK256 SWAP1 SWAP4 ADD DUP5 SWAP1 SSTORE DUP5 SLOAD DUP5 DUP3 MSTORE DUP3 DUP7 ADD SWAP1 SWAP4 MSTORE PUSH1 0x40 SWAP1 KECCAK256 SWAP2 SWAP1 SWAP2 SSTORE PUSH3 0x8BA JUMP JUMPDEST POP PUSH1 0x0 PUSH3 0x8BA JUMP JUMPDEST DUP3 DUP1 SLOAD PUSH3 0x9C0 SWAP1 PUSH3 0xAA5 JUMP JUMPDEST SWAP1 PUSH1 0x0 MSTORE PUSH1 0x20 PUSH1 0x0 KECCAK256 SWAP1 PUSH1 0x1F ADD PUSH1 0x20 SWAP1 DIV DUP2 ADD SWAP3 DUP3 PUSH3 0x9E4 JUMPI PUSH1 0x0 DUP6 SSTORE PUSH3 0xA2F JUMP JUMPDEST DUP3 PUSH1 0x1F LT PUSH3 0x9FF JUMPI DUP1 MLOAD PUSH1 0xFF NOT AND DUP4 DUP1 ADD OR DUP6 SSTORE PUSH3 0xA2F JUMP JUMPDEST DUP3 DUP1 ADD PUSH1 0x1 ADD DUP6 SSTORE DUP3 ISZERO PUSH3 0xA2F JUMPI SWAP2 DUP3 ADD JUMPDEST DUP3 DUP2 GT ISZERO PUSH3 0xA2F JUMPI DUP3 MLOAD DUP3 SSTORE SWAP2 PUSH1 0x20 ADD SWAP2 SWAP1 PUSH1 0x1 ADD SWAP1 PUSH3 0xA12 JUMP JUMPDEST POP PUSH3 0xA3D SWAP3 SWAP2 POP PUSH3 0xA41 JUMP JUMPDEST POP SWAP1 JUMP JUMPDEST JUMPDEST DUP1 DUP3 GT ISZERO PUSH3 0xA3D JUMPI PUSH1 0x0 DUP2 SSTORE PUSH1 0x1 ADD PUSH3 0xA42 JUMP JUMPDEST PUSH1 0x20 DUP2 ADD PUSH1 0x8 DUP4 LT PUSH3 0xA7B JUMPI PUSH4 0x4E487B71 PUSH1 0xE0 SHL PUSH1 0x0 MSTORE PUSH1 0x21 PUSH1 0x4 MSTORE PUSH1 0x24 PUSH1 0x0 REVERT JUMPDEST SWAP2 SWAP1 MSTORE SWAP1 JUMP JUMPDEST PUSH1 0x0 DUP3 DUP3 LT ISZERO PUSH3 0xAA0 JUMPI PUSH4 0x4E487B71 PUSH1 0xE0 SHL DUP2 MSTORE PUSH1 0x11 PUSH1 0x4 MSTORE PUSH1 0x24 DUP2 REVERT JUMPDEST POP SUB SWAP1 JUMP JUMPDEST PUSH1 0x1 DUP2 DUP2 SHR SWAP1 DUP3 AND DUP1 PUSH3 0xABA JUMPI PUSH1 0x7F DUP3 AND SWAP2 POP JUMPDEST PUSH1 0x20 DUP3 LT DUP2 EQ ISZERO PUSH3 0xADC JUMPI PUSH4 0x4E487B71 PUSH1 0xE0 SHL PUSH1 0x0 MSTORE PUSH1 0x22 PUSH1 0x4 MSTORE PUSH1 0x24 PUSH1 0x0 REVERT JUMPDEST POP SWAP2 SWAP1 POP JUMP JUMPDEST PUSH2 0x50BA DUP1 PUSH3 0xAF2 PUSH1 0x0 CODECOPY PUSH1 0x0 RETURN INVALID PUSH1 0x80 PUSH1 0x40 MSTORE PUSH1 0x4 CALLDATASIZE LT PUSH2 0x44E JUMPI PUSH1 0x0 CALLDATALOAD PUSH1 0xE0 SHR DUP1 PUSH4 0x818A36A1 GT PUSH2 0x243 JUMPI DUP1 PUSH4 0xC6C2AFC3 GT PUSH2 0x143 JUMPI DUP1 PUSH4 0xDC4B2268 GT PUSH2 0xBB JUMPI DUP1 PUSH4 0xEBAC6505 GT PUSH2 0x8A JUMPI DUP1 PUSH4 0xEDC7FF2A GT PUSH2 0x6F JUMPI DUP1 PUSH4 0xEDC7FF2A EQ PUSH2 0xD1E JUMPI DUP1 PUSH4 0xEE2923D9 EQ PUSH2 0xD4B JUMPI DUP1 PUSH4 0xFCCC2813 EQ PUSH2 0xD6D JUMPI PUSH1 0x0 DUP1 REVERT JUMPDEST DUP1 PUSH4 0xEBAC6505 EQ PUSH2 0xCE9 JUMPI DUP1 PUSH4 0xED21187A EQ PUSH2 0xD09 JUMPI PUSH1 0x0 DUP1 REVERT JUMPDEST DUP1 PUSH4 0xDC4B2268 EQ PUSH2 0xC71 JUMPI DUP1 PUSH4 0xDD74075C EQ PUSH2 0xC91 JUMPI DUP1 PUSH4 0xE650E512 EQ PUSH2 0xCA7 JUMPI DUP1 PUSH4 0xE70D8FDC EQ PUSH2 0xCBC JUMPI PUSH1 0x0 DUP1 REVERT JUMPDEST DUP1 PUSH4 0xCD496B4B GT PUSH2 0x112 JUMPI DUP1 PUSH4 0xD547741F GT PUSH2 0xF7 JUMPI DUP1 PUSH4 0xD547741F EQ PUSH2 0xC13 JUMPI DUP1 PUSH4 0xD7EC548E EQ PUSH2 0xC33 JUMPI DUP1 PUSH4 0xDBCAC674 EQ PUSH2 0xC49 JUMPI PUSH1 0x0 DUP1 REVERT JUMPDEST DUP1 PUSH4 0xCD496B4B EQ PUSH2 0xBE8 JUMPI DUP1 PUSH4 0xD391014B EQ PUSH2 0xBFE JUMPI PUSH1 0x0 DUP1 REVERT JUMPDEST DUP1 PUSH4 0xC6C2AFC3 EQ PUSH2 0xB70 JUMPI DUP1 PUSH4 0xC88188A3 EQ PUSH2 0xB86 JUMPI DUP1 PUSH4 0xCA15C873 EQ PUSH2 0xB9B JUMPI DUP1 PUSH4 0xCC138C8E EQ PUSH2 0xBBB JUMPI PUSH1 0x0 DUP1 REVERT JUMPDEST DUP1 PUSH4 0x99F96C51 GT PUSH2 0x1D6 JUMPI DUP1 PUSH4 0x9E57003C GT PUSH2 0x1A5 JUMPI DUP1 PUSH4 0xB2C1E72A GT PUSH2 0x18A JUMPI DUP1 PUSH4 0xB2C1E72A EQ PUSH2 0xB14 JUMPI DUP1 PUSH4 0xBEB0A416 EQ PUSH2 0xB34 JUMPI DUP1 PUSH4 0xC19D93FB EQ PUSH2 0xB49 JUMPI PUSH1 0x0 DUP1 REVERT JUMPDEST DUP1 PUSH4 0x9E57003C EQ PUSH2 0xADF JUMPI DUP1 PUSH4 0xA2846323 EQ PUSH2 0xAF4 JUMPI PUSH1 0x0 DUP1 REVERT JUMPDEST DUP1 PUSH4 0x99F96C51 EQ PUSH2 0xA6A JUMPI DUP1 PUSH4 0x9ADAE351 EQ PUSH2 0xA8A JUMPI DUP1 PUSH4 0x9B214950 EQ PUSH2 0xAAA JUMPI DUP1 PUSH4 0x9D76EA58 EQ PUSH2 0xABF JUMPI PUSH1 0x0 DUP1 REVERT JUMPDEST DUP1 PUSH4 0x90139786 GT PUSH2 0x212 JUMPI DUP1 PUSH4 0x90139786 EQ PUSH2 0x9D1 JUMPI DUP1 PUSH4 0x91D14854 EQ PUSH2 0x9F1 JUMPI DUP1 PUSH4 0x9248B04A EQ PUSH2 0xA35 JUMPI DUP1 PUSH4 0x989CED26 EQ PUSH2 0xA4A JUMPI PUSH1 0x0 DUP1 REVERT JUMPDEST DUP1 PUSH4 0x818A36A1 EQ PUSH2 0x94E JUMPI DUP1 PUSH4 0x884EC7A9 EQ PUSH2 0x97B JUMPI DUP1 PUSH4 0x8E505F09 EQ PUSH2 0x99B JUMPI DUP1 PUSH4 0x9010D07C EQ PUSH2 0x9B1 JUMPI PUSH1 0x0 DUP1 REVERT JUMPDEST DUP1 PUSH4 0x39FC1128 GT PUSH2 0x34E JUMPI DUP1 PUSH4 0x579A7E1A GT PUSH2 0x2E1 JUMPI DUP1 PUSH4 0x6D8CA924 GT PUSH2 0x2B0 JUMPI DUP1 PUSH4 0x7E4C7EB2 GT PUSH2 0x295 JUMPI DUP1 PUSH4 0x7E4C7EB2 EQ PUSH2 0x8C2 JUMPI DUP1 PUSH4 0x7EDA5568 EQ PUSH2 0x8EF JUMPI DUP1 PUSH4 0x80B7C92B EQ PUSH2 0x90F JUMPI PUSH1 0x0 DUP1 REVERT JUMPDEST DUP1 PUSH4 0x6D8CA924 EQ PUSH2 0x897 JUMPI DUP1 PUSH4 0x70F1B331 EQ PUSH2 0x8AD JUMPI PUSH1 0x0 DUP1 REVERT JUMPDEST DUP1 PUSH4 0x579A7E1A EQ PUSH2 0x82C JUMPI DUP1 PUSH4 0x59D5335B EQ PUSH2 0x84C JUMPI DUP1 PUSH4 0x5F6577A8 EQ PUSH2 0x862 JUMPI DUP1 PUSH4 0x65069863 EQ PUSH2 0x877 JUMPI PUSH1 0x0 DUP1 REVERT JUMPDEST DUP1 PUSH4 0x443926DB GT PUSH2 0x31D JUMPI DUP1 PUSH4 0x443926DB EQ PUSH2 0x7A8 JUMPI DUP1 PUSH4 0x47ECB665 EQ PUSH2 0x7BD JUMPI DUP1 PUSH4 0x4D286A3D EQ PUSH2 0x7DF JUMPI DUP1 PUSH4 0x573620A7 EQ PUSH2 0x7FF JUMPI PUSH1 0x0 DUP1 REVERT JUMPDEST DUP1 PUSH4 0x39FC1128 EQ PUSH2 0x717 JUMPI DUP1 PUSH4 0x3FEB5F2B EQ PUSH2 0x737 JUMPI DUP1 PUSH4 0x4175266F EQ PUSH2 0x77D JUMPI DUP1 PUSH4 0x42F60CB5 EQ PUSH2 0x793 JUMPI PUSH1 0x0 DUP1 REVERT JUMPDEST DUP1 PUSH4 0x91F90C2 GT PUSH2 0x3E1 JUMPI DUP1 PUSH4 0x248A9CA3 GT PUSH2 0x3B0 JUMPI DUP1 PUSH4 0x2F2FF15D GT PUSH2 0x395 JUMPI DUP1 PUSH4 0x2F2FF15D EQ PUSH2 0x685 JUMPI DUP1 PUSH4 0x2FFAC82C EQ PUSH2 0x6A5 JUMPI DUP1 PUSH4 0x36568ABE EQ PUSH2 0x6F7 JUMPI PUSH1 0x0 DUP1 REVERT JUMPDEST DUP1 PUSH4 0x248A9CA3 EQ PUSH2 0x628 JUMPI DUP1 PUSH4 0x286777D0 EQ PUSH2 0x658 JUMPI PUSH1 0x0 DUP1 REVERT JUMPDEST DUP1 PUSH4 0x91F90C2 EQ PUSH2 0x5A5 JUMPI DUP1 PUSH4 0xB293A31 EQ PUSH2 0x5DD JUMPI DUP1 PUSH4 0x1CA8B6CB EQ PUSH2 0x5F2 JUMPI DUP1 PUSH4 0x1F96B8AB EQ PUSH2 0x608 JUMPI PUSH1 0x0 DUP1 REVERT JUMPDEST DUP1 PUSH4 0x3ED957F GT PUSH2 0x41D JUMPI DUP1 PUSH4 0x3ED957F EQ PUSH2 0x501 JUMPI DUP1 PUSH4 0x3F9C793 EQ PUSH2 0x521 JUMPI DUP1 PUSH4 0x4215D5A EQ PUSH2 0x534 JUMPI DUP1 PUSH4 0x87A2DAF EQ PUSH2 0x574 JUMPI PUSH1 0x0 DUP1 REVERT JUMPDEST DUP1 PUSH4 0x10BD419 EQ PUSH2 0x45A JUMPI DUP1 PUSH4 0x155ECAF EQ PUSH2 0x47C JUMPI DUP1 PUSH4 0x1CB5DFD EQ PUSH2 0x491 JUMPI DUP1 PUSH4 0x1FFC9A7 EQ PUSH2 0x4D1 JUMPI PUSH1 0x0 DUP1 REVERT JUMPDEST CALLDATASIZE PUSH2 0x455 JUMPI STOP JUMPDEST PUSH1 0x0 DUP1 REVERT JUMPDEST CALLVALUE DUP1 ISZERO PUSH2 0x466 JUMPI PUSH1 0x0 DUP1 REVERT JUMPDEST POP PUSH2 0x47A PUSH2 0x475 CALLDATASIZE PUSH1 0x4 PUSH2 0x48D0 JUMP JUMPDEST PUSH2 0xD82 JUMP JUMPDEST STOP JUMPDEST CALLVALUE DUP1 ISZERO PUSH2 0x488 JUMPI PUSH1 0x0 DUP1 REVERT JUMPDEST POP PUSH2 0x47A PUSH2 0x1089 JUMP JUMPDEST CALLVALUE DUP1 ISZERO PUSH2 0x49D JUMPI PUSH1 0x0 DUP1 REVERT JUMPDEST POP PUSH2 0x4BE PUSH2 0x4AC CALLDATASIZE PUSH1 0x4 PUSH2 0x4763 JUMP JUMPDEST PUSH1 0x9 PUSH1 0x20 MSTORE PUSH1 0x0 SWAP1 DUP2 MSTORE PUSH1 0x40 SWAP1 KECCAK256 SLOAD DUP2 JUMP JUMPDEST PUSH1 0x40 MLOAD SWAP1 DUP2 MSTORE PUSH1 0x20 ADD JUMPDEST PUSH1 0x40 MLOAD DUP1 SWAP2 SUB SWAP1 RETURN JUMPDEST CALLVALUE DUP1 ISZERO PUSH2 0x4DD JUMPI PUSH1 0x0 DUP1 REVERT JUMPDEST POP PUSH2 0x4F1 PUSH2 0x4EC CALLDATASIZE PUSH1 0x4 PUSH2 0x48F1 JUMP JUMPDEST PUSH2 0x1306 JUMP JUMPDEST PUSH1 0x40 MLOAD SWAP1 ISZERO ISZERO DUP2 MSTORE PUSH1 0x20 ADD PUSH2 0x4C8 JUMP JUMPDEST CALLVALUE DUP1 ISZERO PUSH2 0x50D JUMPI PUSH1 0x0 DUP1 REVERT JUMPDEST POP PUSH2 0x47A PUSH2 0x51C CALLDATASIZE PUSH1 0x4 PUSH2 0x479B JUMP JUMPDEST PUSH2 0x134A JUMP JUMPDEST PUSH2 0x47A PUSH2 0x52F CALLDATASIZE PUSH1 0x4 PUSH2 0x4763 JUMP JUMPDEST PUSH2 0x13E3 JUMP JUMPDEST CALLVALUE DUP1 ISZERO PUSH2 0x540 JUMPI PUSH1 0x0 DUP1 REVERT JUMPDEST POP PUSH2 0x554 PUSH2 0x54F CALLDATASIZE PUSH1 0x4 PUSH2 0x4763 JUMP JUMPDEST PUSH2 0x1774 JUMP JUMPDEST PUSH1 0x40 DUP1 MLOAD SWAP5 DUP6 MSTORE PUSH1 0x20 DUP6 ADD SWAP4 SWAP1 SWAP4 MSTORE SWAP2 DUP4 ADD MSTORE PUSH1 0x60 DUP3 ADD MSTORE PUSH1 0x80 ADD PUSH2 0x4C8 JUMP JUMPDEST CALLVALUE DUP1 ISZERO PUSH2 0x580 JUMPI PUSH1 0x0 DUP1 REVERT JUMPDEST POP PUSH2 0x594 PUSH2 0x58F CALLDATASIZE PUSH1 0x4 PUSH2 0x4889 JUMP JUMPDEST PUSH2 0x184B JUMP JUMPDEST PUSH1 0x40 MLOAD PUSH2 0x4C8 SWAP6 SWAP5 SWAP4 SWAP3 SWAP2 SWAP1 PUSH2 0x4A49 JUMP JUMPDEST CALLVALUE DUP1 ISZERO PUSH2 0x5B1 JUMPI PUSH1 0x0 DUP1 REVERT JUMPDEST POP PUSH1 0x14 SLOAD PUSH2 0x5C5 SWAP1 PUSH1 0x1 PUSH1 0x1 PUSH1 0xA0 SHL SUB AND DUP2 JUMP JUMPDEST PUSH1 0x40 MLOAD PUSH1 0x1 PUSH1 0x1 PUSH1 0xA0 SHL SUB SWAP1 SWAP2 AND DUP2 MSTORE PUSH1 0x20 ADD PUSH2 0x4C8 JUMP JUMPDEST CALLVALUE DUP1 ISZERO PUSH2 0x5E9 JUMPI PUSH1 0x0 DUP1 REVERT JUMPDEST POP PUSH2 0x47A PUSH2 0x191F JUMP JUMPDEST CALLVALUE DUP1 ISZERO PUSH2 0x5FE JUMPI PUSH1 0x0 DUP1 REVERT JUMPDEST POP PUSH2 0x4BE PUSH1 0x11 SLOAD DUP2 JUMP JUMPDEST CALLVALUE DUP1 ISZERO PUSH2 0x614 JUMPI PUSH1 0x0 DUP1 REVERT JUMPDEST POP PUSH2 0x47A PUSH2 0x623 CALLDATASIZE PUSH1 0x4 PUSH2 0x48D0 JUMP JUMPDEST PUSH2 0x1939 JUMP JUMPDEST CALLVALUE DUP1 ISZERO PUSH2 0x634 JUMPI PUSH1 0x0 DUP1 REVERT JUMPDEST POP PUSH2 0x4BE PUSH2 0x643 CALLDATASIZE PUSH1 0x4 PUSH2 0x4889 JUMP JUMPDEST PUSH1 0x0 SWAP1 DUP2 MSTORE PUSH1 0x20 DUP2 SWAP1 MSTORE PUSH1 0x40 SWAP1 KECCAK256 PUSH1 0x1 ADD SLOAD SWAP1 JUMP JUMPDEST CALLVALUE DUP1 ISZERO PUSH2 0x664 JUMPI PUSH1 0x0 DUP1 REVERT JUMPDEST POP PUSH2 0x678 PUSH2 0x673 CALLDATASIZE PUSH1 0x4 PUSH2 0x4889 JUMP JUMPDEST PUSH2 0x1B41 JUMP JUMPDEST PUSH1 0x40 MLOAD PUSH2 0x4C8 SWAP2 SWAP1 PUSH2 0x4C32 JUMP JUMPDEST CALLVALUE DUP1 ISZERO PUSH2 0x691 JUMPI PUSH1 0x0 DUP1 REVERT JUMPDEST POP PUSH2 0x47A PUSH2 0x6A0 CALLDATASIZE PUSH1 0x4 PUSH2 0x48A1 JUMP JUMPDEST PUSH2 0x1BCB JUMP JUMPDEST CALLVALUE DUP1 ISZERO PUSH2 0x6B1 JUMPI PUSH1 0x0 DUP1 REVERT JUMPDEST POP PUSH2 0x6C5 PUSH2 0x6C0 CALLDATASIZE PUSH1 0x4 PUSH2 0x4889 JUMP JUMPDEST PUSH2 0x1BF2 JUMP JUMPDEST PUSH1 0x40 DUP1 MLOAD PUSH1 0x1 PUSH1 0x1 PUSH1 0xA0 SHL SUB SWAP1 SWAP7 AND DUP7 MSTORE PUSH1 0x20 DUP7 ADD SWAP5 SWAP1 SWAP5 MSTORE SWAP3 DUP5 ADD SWAP2 SWAP1 SWAP2 MSTORE PUSH1 0x60 DUP4 ADD MSTORE PUSH1 0x80 DUP3 ADD MSTORE PUSH1 0xA0 ADD PUSH2 0x4C8 JUMP JUMPDEST CALLVALUE DUP1 ISZERO PUSH2 0x703 JUMPI PUSH1 0x0 DUP1 REVERT JUMPDEST POP PUSH2 0x47A PUSH2 0x712 CALLDATASIZE PUSH1 0x4 PUSH2 0x48A1 JUMP JUMPDEST PUSH2 0x1C3D JUMP JUMPDEST CALLVALUE DUP1 ISZERO PUSH2 0x723 JUMPI PUSH1 0x0 DUP1 REVERT JUMPDEST POP PUSH2 0x47A PUSH2 0x732 CALLDATASIZE PUSH1 0x4 PUSH2 0x4889 JUMP JUMPDEST PUSH2 0x1C5F JUMP JUMPDEST CALLVALUE DUP1 ISZERO PUSH2 0x743 JUMPI PUSH1 0x0 DUP1 REVERT JUMPDEST POP PUSH2 0x757 PUSH2 0x752 CALLDATASIZE PUSH1 0x4 PUSH2 0x4889 JUMP JUMPDEST PUSH2 0x1CA9 JUMP JUMPDEST PUSH1 0x40 DUP1 MLOAD PUSH1 0x1 PUSH1 0x1 PUSH1 0xA0 SHL SUB SWAP5 DUP6 AND DUP2 MSTORE SWAP4 SWAP1 SWAP3 AND PUSH1 0x20 DUP5 ADD MSTORE SWAP1 DUP3 ADD MSTORE PUSH1 0x60 ADD PUSH2 0x4C8 JUMP JUMPDEST CALLVALUE DUP1 ISZERO PUSH2 0x789 JUMPI PUSH1 0x0 DUP1 REVERT JUMPDEST POP PUSH2 0x4BE PUSH1 0x20 SLOAD DUP2 JUMP JUMPDEST CALLVALUE DUP1 ISZERO PUSH2 0x79F JUMPI PUSH1 0x0 DUP1 REVERT JUMPDEST POP PUSH2 0x47A PUSH2 0x1CE9 JUMP JUMPDEST CALLVALUE DUP1 ISZERO PUSH2 0x7B4 JUMPI PUSH1 0x0 DUP1 REVERT JUMPDEST POP PUSH1 0x8 SLOAD PUSH2 0x4BE JUMP JUMPDEST CALLVALUE DUP1 ISZERO PUSH2 0x7C9 JUMPI PUSH1 0x0 DUP1 REVERT JUMPDEST POP PUSH2 0x7D2 PUSH2 0x1D73 JUMP JUMPDEST PUSH1 0x40 MLOAD PUSH2 0x4C8 SWAP2 SWAP1 PUSH2 0x4C1F JUMP JUMPDEST CALLVALUE DUP1 ISZERO PUSH2 0x7EB JUMPI PUSH1 0x0 DUP1 REVERT JUMPDEST POP PUSH1 0x16 SLOAD PUSH2 0x5C5 SWAP1 PUSH1 0x1 PUSH1 0x1 PUSH1 0xA0 SHL SUB AND DUP2 JUMP JUMPDEST CALLVALUE DUP1 ISZERO PUSH2 0x80B JUMPI PUSH1 0x0 DUP1 REVERT JUMPDEST POP PUSH2 0x81F PUSH2 0x81A CALLDATASIZE PUSH1 0x4 PUSH2 0x4889 JUMP JUMPDEST PUSH2 0x1E01 JUMP JUMPDEST PUSH1 0x40 MLOAD PUSH2 0x4C8 SWAP2 SWAP1 PUSH2 0x4C61 JUMP JUMPDEST CALLVALUE DUP1 ISZERO PUSH2 0x838 JUMPI PUSH1 0x0 DUP1 REVERT JUMPDEST POP PUSH1 0x15 SLOAD PUSH2 0x5C5 SWAP1 PUSH1 0x1 PUSH1 0x1 PUSH1 0xA0 SHL SUB AND DUP2 JUMP JUMPDEST CALLVALUE DUP1 ISZERO PUSH2 0x858 JUMPI PUSH1 0x0 DUP1 REVERT JUMPDEST POP PUSH2 0x4BE PUSH1 0xB SLOAD DUP2 JUMP JUMPDEST CALLVALUE DUP1 ISZERO PUSH2 0x86E JUMPI PUSH1 0x0 DUP1 REVERT JUMPDEST POP PUSH2 0x47A PUSH2 0x1E6F JUMP JUMPDEST CALLVALUE DUP1 ISZERO PUSH2 0x883 JUMPI PUSH1 0x0 DUP1 REVERT JUMPDEST POP PUSH2 0x678 PUSH2 0x892 CALLDATASIZE PUSH1 0x4 PUSH2 0x4763 JUMP JUMPDEST PUSH2 0x2015 JUMP JUMPDEST CALLVALUE DUP1 ISZERO PUSH2 0x8A3 JUMPI PUSH1 0x0 DUP1 REVERT JUMPDEST POP PUSH2 0x4BE PUSH1 0x1F SLOAD DUP2 JUMP JUMPDEST CALLVALUE DUP1 ISZERO PUSH2 0x8B9 JUMPI PUSH1 0x0 DUP1 REVERT JUMPDEST POP PUSH2 0x4F1 PUSH2 0x2074 JUMP JUMPDEST CALLVALUE DUP1 ISZERO PUSH2 0x8CE JUMPI PUSH1 0x0 DUP1 REVERT JUMPDEST POP PUSH2 0x4BE PUSH2 0x8DD CALLDATASIZE PUSH1 0x4 PUSH2 0x4763 JUMP JUMPDEST PUSH1 0x3 PUSH1 0x20 MSTORE PUSH1 0x0 SWAP1 DUP2 MSTORE PUSH1 0x40 SWAP1 KECCAK256 SLOAD DUP2 JUMP JUMPDEST CALLVALUE DUP1 ISZERO PUSH2 0x8FB JUMPI PUSH1 0x0 DUP1 REVERT JUMPDEST POP PUSH2 0x47A PUSH2 0x90A CALLDATASIZE PUSH1 0x4 PUSH2 0x4889 JUMP JUMPDEST PUSH2 0x21F4 JUMP JUMPDEST CALLVALUE DUP1 ISZERO PUSH2 0x91B JUMPI PUSH1 0x0 DUP1 REVERT JUMPDEST POP PUSH2 0x92F PUSH2 0x92A CALLDATASIZE PUSH1 0x4 PUSH2 0x4889 JUMP JUMPDEST PUSH2 0x2206 JUMP JUMPDEST PUSH1 0x40 DUP1 MLOAD PUSH1 0x1 PUSH1 0x1 PUSH1 0xA0 SHL SUB SWAP1 SWAP4 AND DUP4 MSTORE PUSH1 0x20 DUP4 ADD SWAP2 SWAP1 SWAP2 MSTORE ADD PUSH2 0x4C8 JUMP JUMPDEST CALLVALUE DUP1 ISZERO PUSH2 0x95A JUMPI PUSH1 0x0 DUP1 REVERT JUMPDEST POP PUSH2 0x96E PUSH2 0x969 CALLDATASIZE PUSH1 0x4 PUSH2 0x48D0 JUMP JUMPDEST PUSH2 0x223E JUMP JUMPDEST PUSH1 0x40 MLOAD PUSH2 0x4C8 SWAP2 SWAP1 PUSH2 0x4A88 JUMP JUMPDEST CALLVALUE DUP1 ISZERO PUSH2 0x987 JUMPI PUSH1 0x0 DUP1 REVERT JUMPDEST POP PUSH1 0x17 SLOAD PUSH2 0x5C5 SWAP1 PUSH1 0x1 PUSH1 0x1 PUSH1 0xA0 SHL SUB AND DUP2 JUMP JUMPDEST CALLVALUE DUP1 ISZERO PUSH2 0x9A7 JUMPI PUSH1 0x0 DUP1 REVERT JUMPDEST POP PUSH2 0x4BE PUSH1 0x22 SLOAD DUP2 JUMP JUMPDEST CALLVALUE DUP1 ISZERO PUSH2 0x9BD JUMPI PUSH1 0x0 DUP1 REVERT JUMPDEST POP PUSH2 0x5C5 PUSH2 0x9CC CALLDATASIZE PUSH1 0x4 PUSH2 0x48D0 JUMP JUMPDEST PUSH2 0x23BB JUMP JUMPDEST CALLVALUE DUP1 ISZERO PUSH2 0x9DD JUMPI PUSH1 0x0 DUP1 REVERT JUMPDEST POP PUSH2 0x47A PUSH2 0x9EC CALLDATASIZE PUSH1 0x4 PUSH2 0x4889 JUMP JUMPDEST PUSH2 0x23DA JUMP JUMPDEST CALLVALUE DUP1 ISZERO PUSH2 0x9FD JUMPI PUSH1 0x0 DUP1 REVERT JUMPDEST POP PUSH2 0x4F1 PUSH2 0xA0C CALLDATASIZE PUSH1 0x4 PUSH2 0x48A1 JUMP JUMPDEST PUSH1 0x0 SWAP2 DUP3 MSTORE PUSH1 0x20 DUP3 DUP2 MSTORE PUSH1 0x40 DUP1 DUP5 KECCAK256 PUSH1 0x1 PUSH1 0x1 PUSH1 0xA0 SHL SUB SWAP4 SWAP1 SWAP4 AND DUP5 MSTORE SWAP2 SWAP1 MSTORE SWAP1 KECCAK256 SLOAD PUSH1 0xFF AND SWAP1 JUMP JUMPDEST CALLVALUE DUP1 ISZERO PUSH2 0xA41 JUMPI PUSH1 0x0 DUP1 REVERT JUMPDEST POP PUSH2 0x47A PUSH2 0x23EC JUMP JUMPDEST CALLVALUE DUP1 ISZERO PUSH2 0xA56 JUMPI PUSH1 0x0 DUP1 REVERT JUMPDEST POP PUSH2 0x47A PUSH2 0xA65 CALLDATASIZE PUSH1 0x4 PUSH2 0x4763 JUMP JUMPDEST PUSH2 0x2643 JUMP JUMPDEST CALLVALUE DUP1 ISZERO PUSH2 0xA76 JUMPI PUSH1 0x0 DUP1 REVERT JUMPDEST POP PUSH2 0x47A PUSH2 0xA85 CALLDATASIZE PUSH1 0x4 PUSH2 0x48D0 JUMP JUMPDEST PUSH2 0x2672 JUMP JUMPDEST CALLVALUE DUP1 ISZERO PUSH2 0xA96 JUMPI PUSH1 0x0 DUP1 REVERT JUMPDEST POP PUSH1 0x19 SLOAD PUSH2 0x5C5 SWAP1 PUSH1 0x1 PUSH1 0x1 PUSH1 0xA0 SHL SUB AND DUP2 JUMP JUMPDEST CALLVALUE DUP1 ISZERO PUSH2 0xAB6 JUMPI PUSH1 0x0 DUP1 REVERT JUMPDEST POP PUSH2 0x47A PUSH2 0x296D JUMP JUMPDEST CALLVALUE DUP1 ISZERO PUSH2 0xACB JUMPI PUSH1 0x0 DUP1 REVERT JUMPDEST POP PUSH1 0x13 SLOAD PUSH2 0x5C5 SWAP1 PUSH1 0x1 PUSH1 0x1 PUSH1 0xA0 SHL SUB AND DUP2 JUMP JUMPDEST CALLVALUE DUP1 ISZERO PUSH2 0xAEB JUMPI PUSH1 0x0 DUP1 REVERT JUMPDEST POP PUSH2 0x4BE PUSH2 0x3029 JUMP JUMPDEST CALLVALUE DUP1 ISZERO PUSH2 0xB00 JUMPI PUSH1 0x0 DUP1 REVERT JUMPDEST POP PUSH1 0x18 SLOAD PUSH2 0x5C5 SWAP1 PUSH1 0x1 PUSH1 0x1 PUSH1 0xA0 SHL SUB AND DUP2 JUMP JUMPDEST CALLVALUE DUP1 ISZERO PUSH2 0xB20 JUMPI PUSH1 0x0 DUP1 REVERT JUMPDEST POP PUSH2 0x81F PUSH2 0xB2F CALLDATASIZE PUSH1 0x4 PUSH2 0x4763 JUMP JUMPDEST PUSH2 0x30D1 JUMP JUMPDEST CALLVALUE DUP1 ISZERO PUSH2 0xB40 JUMPI PUSH1 0x0 DUP1 REVERT JUMPDEST POP PUSH2 0x7D2 PUSH2 0x312B JUMP JUMPDEST CALLVALUE DUP1 ISZERO PUSH2 0xB55 JUMPI PUSH1 0x0 DUP1 REVERT JUMPDEST POP PUSH1 0x2 SLOAD PUSH2 0xB63 SWAP1 PUSH1 0xFF AND DUP2 JUMP JUMPDEST PUSH1 0x40 MLOAD PUSH2 0x4C8 SWAP2 SWAP1 PUSH2 0x4BF7 JUMP JUMPDEST CALLVALUE DUP1 ISZERO PUSH2 0xB7C JUMPI PUSH1 0x0 DUP1 REVERT JUMPDEST POP PUSH2 0x4BE PUSH1 0x1E SLOAD DUP2 JUMP JUMPDEST CALLVALUE DUP1 ISZERO PUSH2 0xB92 JUMPI PUSH1 0x0 DUP1 REVERT JUMPDEST POP PUSH2 0x47A PUSH2 0x3138 JUMP JUMPDEST CALLVALUE DUP1 ISZERO PUSH2 0xBA7 JUMPI PUSH1 0x0 DUP1 REVERT JUMPDEST POP PUSH2 0x4BE PUSH2 0xBB6 CALLDATASIZE PUSH1 0x4 PUSH2 0x4889 JUMP JUMPDEST PUSH2 0x3366 JUMP JUMPDEST CALLVALUE DUP1 ISZERO PUSH2 0xBC7 JUMPI PUSH1 0x0 DUP1 REVERT JUMPDEST POP PUSH2 0x4BE PUSH2 0xBD6 CALLDATASIZE PUSH1 0x4 PUSH2 0x4763 JUMP JUMPDEST PUSH1 0x7 PUSH1 0x20 MSTORE PUSH1 0x0 SWAP1 DUP2 MSTORE PUSH1 0x40 SWAP1 KECCAK256 SLOAD DUP2 JUMP JUMPDEST CALLVALUE DUP1 ISZERO PUSH2 0xBF4 JUMPI PUSH1 0x0 DUP1 REVERT JUMPDEST POP PUSH2 0x4BE PUSH1 0x21 SLOAD DUP2 JUMP JUMPDEST CALLVALUE DUP1 ISZERO PUSH2 0xC0A JUMPI PUSH1 0x0 DUP1 REVERT JUMPDEST POP PUSH2 0x4BE PUSH1 0x0 DUP2 JUMP JUMPDEST CALLVALUE DUP1 ISZERO PUSH2 0xC1F JUMPI PUSH1 0x0 DUP1 REVERT JUMPDEST POP PUSH2 0x47A PUSH2 0xC2E CALLDATASIZE PUSH1 0x4 PUSH2 0x48A1 JUMP JUMPDEST PUSH2 0x337D JUMP JUMPDEST CALLVALUE DUP1 ISZERO PUSH2 0xC3F JUMPI PUSH1 0x0 DUP1 REVERT JUMPDEST POP PUSH2 0x4BE PUSH1 0x12 SLOAD DUP2 JUMP JUMPDEST CALLVALUE DUP1 ISZERO PUSH2 0xC55 JUMPI PUSH1 0x0 DUP1 REVERT JUMPDEST POP PUSH1 0xC SLOAD PUSH1 0xD SLOAD PUSH1 0x40 DUP1 MLOAD SWAP3 DUP4 MSTORE PUSH1 0x20 DUP4 ADD SWAP2 SWAP1 SWAP2 MSTORE ADD PUSH2 0x4C8 JUMP JUMPDEST CALLVALUE DUP1 ISZERO PUSH2 0xC7D JUMPI PUSH1 0x0 DUP1 REVERT JUMPDEST POP PUSH2 0x47A PUSH2 0xC8C CALLDATASIZE PUSH1 0x4 PUSH2 0x480B JUMP JUMPDEST PUSH2 0x3387 JUMP JUMPDEST CALLVALUE DUP1 ISZERO PUSH2 0xC9D JUMPI PUSH1 0x0 DUP1 REVERT JUMPDEST POP PUSH2 0x4BE PUSH1 0x10 SLOAD DUP2 JUMP JUMPDEST CALLVALUE DUP1 ISZERO PUSH2 0xCB3 JUMPI PUSH1 0x0 DUP1 REVERT JUMPDEST POP PUSH2 0x7D2 PUSH2 0x3415 JUMP JUMPDEST CALLVALUE DUP1 ISZERO PUSH2 0xCC8 JUMPI PUSH1 0x0 DUP1 REVERT JUMPDEST POP PUSH2 0xCDC PUSH2 0xCD7 CALLDATASIZE PUSH1 0x4 PUSH2 0x48D0 JUMP JUMPDEST PUSH2 0x3422 JUMP JUMPDEST PUSH1 0x40 MLOAD PUSH2 0x4C8 SWAP2 SWAP1 PUSH2 0x4AFA JUMP JUMPDEST CALLVALUE DUP1 ISZERO PUSH2 0xCF5 JUMPI PUSH1 0x0 DUP1 REVERT JUMPDEST POP PUSH2 0x47A PUSH2 0xD04 CALLDATASIZE PUSH1 0x4 PUSH2 0x4931 JUMP JUMPDEST PUSH2 0x357B JUMP JUMPDEST CALLVALUE DUP1 ISZERO PUSH2 0xD15 JUMPI PUSH1 0x0 DUP1 REVERT JUMPDEST POP PUSH1 0x4 SLOAD PUSH2 0x4BE JUMP JUMPDEST CALLVALUE DUP1 ISZERO PUSH2 0xD2A JUMPI PUSH1 0x0 DUP1 REVERT JUMPDEST POP PUSH2 0x4BE PUSH2 0xD39 CALLDATASIZE PUSH1 0x4 PUSH2 0x4763 JUMP JUMPDEST PUSH1 0x5 PUSH1 0x20 MSTORE PUSH1 0x0 SWAP1 DUP2 MSTORE PUSH1 0x40 SWAP1 KECCAK256 SLOAD DUP2 JUMP JUMPDEST CALLVALUE DUP1 ISZERO PUSH2 0xD57 JUMPI PUSH1 0x0 DUP1 REVERT JUMPDEST POP PUSH2 0xD60 PUSH2 0x3596 JUMP JUMPDEST PUSH1 0x40 MLOAD PUSH2 0x4C8 SWAP2 SWAP1 PUSH2 0x4B5A JUMP JUMPDEST CALLVALUE DUP1 ISZERO PUSH2 0xD79 JUMPI PUSH1 0x0 DUP1 REVERT JUMPDEST POP PUSH2 0x5C5 PUSH1 0x0 DUP2 JUMP JUMPDEST PUSH1 0x0 PUSH2 0xD8E DUP2 CALLER PUSH2 0x3AC4 JUMP JUMPDEST PUSH1 0x4 PUSH1 0x2 SLOAD PUSH1 0xFF AND PUSH1 0x7 DUP2 GT ISZERO PUSH2 0xDB5 JUMPI PUSH4 0x4E487B71 PUSH1 0xE0 SHL PUSH1 0x0 MSTORE PUSH1 0x21 PUSH1 0x4 MSTORE PUSH1 0x24 PUSH1 0x0 REVERT JUMPDEST EQ PUSH2 0xE2D JUMPI PUSH1 0x40 MLOAD PUSH3 0x461BCD PUSH1 0xE5 SHL DUP2 MSTORE PUSH1 0x20 PUSH1 0x4 DUP3 ADD MSTORE PUSH1 0x33 PUSH1 0x24 DUP3 ADD MSTORE PUSH32 0x50523A20496E766573746F727320746F6B656E73206861766520616C72656164 PUSH1 0x44 DUP3 ADD MSTORE PUSH32 0x79206265656E2064697374726962757465642100000000000000000000000000 PUSH1 0x64 DUP3 ADD MSTORE PUSH1 0x84 ADD JUMPDEST PUSH1 0x40 MLOAD DUP1 SWAP2 SUB SWAP1 REVERT JUMPDEST PUSH1 0x0 PUSH2 0xE39 DUP5 DUP5 PUSH2 0x223E JUMP JUMPDEST SWAP1 POP PUSH1 0x0 JUMPDEST DUP2 MLOAD DUP2 LT ISZERO PUSH2 0x1082 JUMPI PUSH1 0x1 PUSH1 0x6 PUSH1 0x1 PUSH1 0x5 PUSH1 0x0 DUP7 DUP7 DUP2 MLOAD DUP2 LT PUSH2 0xE71 JUMPI PUSH4 0x4E487B71 PUSH1 0xE0 SHL PUSH1 0x0 MSTORE PUSH1 0x32 PUSH1 0x4 MSTORE PUSH1 0x24 PUSH1 0x0 REVERT JUMPDEST PUSH1 0x20 MUL PUSH1 0x20 ADD ADD MLOAD PUSH1 0x0 ADD MLOAD PUSH1 0x1 PUSH1 0x1 PUSH1 0xA0 SHL SUB AND PUSH1 0x1 PUSH1 0x1 PUSH1 0xA0 SHL SUB AND DUP2 MSTORE PUSH1 0x20 ADD SWAP1 DUP2 MSTORE PUSH1 0x20 ADD PUSH1 0x0 KECCAK256 SLOAD PUSH2 0xEA8 SWAP2 SWAP1 PUSH2 0x4DE2 JUMP JUMPDEST DUP2 SLOAD DUP2 LT PUSH2 0xEC6 JUMPI PUSH4 0x4E487B71 PUSH1 0xE0 SHL PUSH1 0x0 MSTORE PUSH1 0x32 PUSH1 0x4 MSTORE PUSH1 0x24 PUSH1 0x0 REVERT JUMPDEST SWAP1 PUSH1 0x0 MSTORE PUSH1 0x20 PUSH1 0x0 KECCAK256 SWAP1 PUSH1 0x5 MUL ADD PUSH1 0x1 ADD SLOAD GT PUSH2 0x1070 JUMPI PUSH1 0x40 MLOAD DUP1 PUSH1 0xA0 ADD PUSH1 0x40 MSTORE DUP1 DUP4 DUP4 DUP2 MLOAD DUP2 LT PUSH2 0xF08 JUMPI PUSH4 0x4E487B71 PUSH1 0xE0 SHL PUSH1 0x0 MSTORE PUSH1 0x32 PUSH1 0x4 MSTORE PUSH1 0x24 PUSH1 0x0 REVERT JUMPDEST PUSH1 0x20 MUL PUSH1 0x20 ADD ADD MLOAD PUSH1 0x0 ADD MLOAD PUSH1 0x1 PUSH1 0x1 PUSH1 0xA0 SHL SUB AND DUP2 MSTORE PUSH1 0x20 ADD PUSH1 0xC SLOAD DUP5 DUP5 DUP2 MLOAD DUP2 LT PUSH2 0xF45 JUMPI PUSH4 0x4E487B71 PUSH1 0xE0 SHL PUSH1 0x0 MSTORE PUSH1 0x32 PUSH1 0x4 MSTORE PUSH1 0x24 PUSH1 0x0 REVERT JUMPDEST PUSH1 0x20 MUL PUSH1 0x20 ADD ADD MLOAD PUSH1 0x40 ADD MLOAD PUSH1 0x10 SLOAD PUSH2 0xF5E SWAP2 SWAP1 PUSH2 0x4DC3 JUMP JUMPDEST PUSH2 0xF68 SWAP2 SWAP1 PUSH2 0x4CB8 JUMP JUMPDEST DUP2 MSTORE PUSH1 0x20 ADD PUSH1 0x0 DUP2 MSTORE PUSH1 0x20 ADD PUSH1 0x1F SLOAD TIMESTAMP PUSH2 0xF82 SWAP2 SWAP1 PUSH2 0x4CA0 JUMP JUMPDEST DUP2 MSTORE PUSH1 0x20 ADD PUSH1 0x20 SLOAD TIMESTAMP PUSH2 0xF95 SWAP2 SWAP1 PUSH2 0x4CA0 JUMP JUMPDEST DUP2 MSTORE POP PUSH1 0x6 PUSH1 0x1 PUSH1 0x5 PUSH1 0x0 DUP7 DUP7 DUP2 MLOAD DUP2 LT PUSH2 0xFC0 JUMPI PUSH4 0x4E487B71 PUSH1 0xE0 SHL PUSH1 0x0 MSTORE PUSH1 0x32 PUSH1 0x4 MSTORE PUSH1 0x24 PUSH1 0x0 REVERT JUMPDEST PUSH1 0x20 MUL PUSH1 0x20 ADD ADD MLOAD PUSH1 0x0 ADD MLOAD PUSH1 0x1 PUSH1 0x1 PUSH1 0xA0 SHL SUB AND PUSH1 0x1 PUSH1 0x1 PUSH1 0xA0 SHL SUB AND DUP2 MSTORE PUSH1 0x20 ADD SWAP1 DUP2 MSTORE PUSH1 0x20 ADD PUSH1 0x0 KECCAK256 SLOAD PUSH2 0xFF7 SWAP2 SWAP1 PUSH2 0x4DE2 JUMP JUMPDEST DUP2 SLOAD DUP2 LT PUSH2 0x1015 JUMPI PUSH4 0x4E487B71 PUSH1 0xE0 SHL PUSH1 0x0 MSTORE PUSH1 0x32 PUSH1 0x4 MSTORE PUSH1 0x24 PUSH1 0x0 REVERT JUMPDEST PUSH1 0x0 SWAP2 DUP3 MSTORE PUSH1 0x20 SWAP2 DUP3 SWAP1 KECCAK256 DUP4 MLOAD PUSH1 0x5 SWAP3 SWAP1 SWAP3 MUL ADD DUP1 SLOAD PUSH1 0x1 PUSH1 0x1 PUSH1 0xA0 SHL SUB NOT AND PUSH1 0x1 PUSH1 0x1 PUSH1 0xA0 SHL SUB SWAP1 SWAP3 AND SWAP2 SWAP1 SWAP2 OR DUP2 SSTORE SWAP1 DUP3 ADD MLOAD PUSH1 0x1 DUP3 ADD SSTORE PUSH1 0x40 DUP3 ADD MLOAD PUSH1 0x2 DUP3 ADD SSTORE PUSH1 0x60 DUP3 ADD MLOAD PUSH1 0x3 DUP3 ADD SSTORE PUSH1 0x80 SWAP1 SWAP2 ADD MLOAD PUSH1 0x4 SWAP1 SWAP2 ADD SSTORE JUMPDEST DUP1 PUSH2 0x107A DUP2 PUSH2 0x4F8C JUMP JUMPDEST SWAP2 POP POP PUSH2 0xE3E JUMP JUMPDEST POP POP POP POP POP JUMP JUMPDEST PUSH1 0x0 PUSH2 0x1095 DUP2 CALLER PUSH2 0x3AC4 JUMP JUMPDEST PUSH1 0x2 DUP1 SLOAD PUSH1 0xFF AND PUSH1 0x7 DUP2 GT ISZERO PUSH2 0x10BB JUMPI PUSH4 0x4E487B71 PUSH1 0xE0 SHL PUSH1 0x0 MSTORE PUSH1 0x21 PUSH1 0x4 MSTORE PUSH1 0x24 PUSH1 0x0 REVERT JUMPDEST EQ PUSH2 0x1108 JUMPI PUSH1 0x40 MLOAD PUSH3 0x461BCD PUSH1 0xE5 SHL DUP2 MSTORE PUSH1 0x20 PUSH1 0x4 DUP3 ADD MSTORE PUSH1 0x1C PUSH1 0x24 DUP3 ADD MSTORE PUSH32 0x50523A205061697220697320616C726561647920637265617465642100000000 PUSH1 0x44 DUP3 ADD MSTORE PUSH1 0x64 ADD PUSH2 0xE24 JUMP JUMPDEST PUSH1 0x13 SLOAD PUSH1 0x1 PUSH1 0x1 PUSH1 0xA0 SHL SUB AND PUSH2 0x1186 JUMPI PUSH1 0x40 MLOAD PUSH3 0x461BCD PUSH1 0xE5 SHL DUP2 MSTORE PUSH1 0x20 PUSH1 0x4 DUP3 ADD MSTORE PUSH1 0x2A PUSH1 0x24 DUP3 ADD MSTORE PUSH32 0x50523A20546F6B656E206164647265737320776173206E6F7420696E69746961 PUSH1 0x44 DUP3 ADD MSTORE PUSH32 0x6C697A6564207965742100000000000000000000000000000000000000000000 PUSH1 0x64 DUP3 ADD MSTORE PUSH1 0x84 ADD PUSH2 0xE24 JUMP JUMPDEST PUSH1 0x17 SLOAD PUSH1 0x13 SLOAD PUSH1 0x15 SLOAD PUSH1 0x40 MLOAD PUSH4 0xE6A43905 PUSH1 0xE0 SHL DUP2 MSTORE PUSH1 0x1 PUSH1 0x1 PUSH1 0xA0 SHL SUB SWAP3 DUP4 AND PUSH1 0x4 DUP3 ADD MSTORE SWAP1 DUP3 AND PUSH1 0x24 DUP3 ADD MSTORE SWAP2 AND SWAP1 PUSH4 0xE6A43905 SWAP1 PUSH1 0x44 ADD PUSH1 0x20 PUSH1 0x40 MLOAD DUP1 DUP4 SUB DUP2 DUP7 DUP1 EXTCODESIZE ISZERO DUP1 ISZERO PUSH2 0x11D8 JUMPI PUSH1 0x0 DUP1 REVERT JUMPDEST POP GAS STATICCALL ISZERO DUP1 ISZERO PUSH2 0x11EC JUMPI RETURNDATASIZE PUSH1 0x0 DUP1 RETURNDATACOPY RETURNDATASIZE PUSH1 0x0 REVERT JUMPDEST POP POP POP POP PUSH1 0x40 MLOAD RETURNDATASIZE PUSH1 0x1F NOT PUSH1 0x1F DUP3 ADD AND DUP3 ADD DUP1 PUSH1 0x40 MSTORE POP DUP2 ADD SWAP1 PUSH2 0x1210 SWAP2 SWAP1 PUSH2 0x477F JUMP JUMPDEST PUSH1 0x19 DUP1 SLOAD PUSH1 0x1 PUSH1 0x1 PUSH1 0xA0 SHL SUB NOT AND PUSH1 0x1 PUSH1 0x1 PUSH1 0xA0 SHL SUB SWAP3 SWAP1 SWAP3 AND SWAP2 DUP3 OR SWAP1 SSTORE PUSH2 0x12F9 JUMPI PUSH1 0x17 SLOAD PUSH1 0x13 SLOAD PUSH1 0x15 SLOAD PUSH1 0x40 MLOAD PUSH32 0xC9C6539600000000000000000000000000000000000000000000000000000000 DUP2 MSTORE PUSH1 0x1 PUSH1 0x1 PUSH1 0xA0 SHL SUB SWAP3 DUP4 AND PUSH1 0x4 DUP3 ADD MSTORE SWAP1 DUP3 AND PUSH1 0x24 DUP3 ADD MSTORE SWAP2 AND SWAP1 PUSH4 0xC9C65396 SWAP1 PUSH1 0x44 ADD PUSH1 0x20 PUSH1 0x40 MLOAD DUP1 DUP4 SUB DUP2 PUSH1 0x0 DUP8 DUP1 EXTCODESIZE ISZERO DUP1 ISZERO PUSH2 0x12A0 JUMPI PUSH1 0x0 DUP1 REVERT JUMPDEST POP GAS CALL ISZERO DUP1 ISZERO PUSH2 0x12B4 JUMPI RETURNDATASIZE PUSH1 0x0 DUP1 RETURNDATACOPY RETURNDATASIZE PUSH1 0x0 REVERT JUMPDEST POP POP POP POP PUSH1 0x40 MLOAD RETURNDATASIZE PUSH1 0x1F NOT PUSH1 0x1F DUP3 ADD AND DUP3 ADD DUP1 PUSH1 0x40 MSTORE POP DUP2 ADD SWAP1 PUSH2 0x12D8 SWAP2 SWAP1 PUSH2 0x477F JUMP JUMPDEST PUSH1 0x19 DUP1 SLOAD PUSH1 0x1 PUSH1 0x1 PUSH1 0xA0 SHL SUB NOT AND PUSH1 0x1 PUSH1 0x1 PUSH1 0xA0 SHL SUB SWAP3 SWAP1 SWAP3 AND SWAP2 SWAP1 SWAP2 OR SWAP1 SSTORE JUMPDEST PUSH2 0x1303 PUSH1 0x3 PUSH2 0x3B42 JUMP JUMPDEST POP JUMP JUMPDEST PUSH1 0x0 PUSH1 0x1 PUSH1 0x1 PUSH1 0xE0 SHL SUB NOT DUP3 AND PUSH32 0x5A05180F00000000000000000000000000000000000000000000000000000000 EQ DUP1 PUSH2 0x1344 JUMPI POP PUSH2 0x1344 DUP3 PUSH2 0x3BAE JUMP JUMPDEST SWAP3 SWAP2 POP POP JUMP JUMPDEST PUSH1 0x0 PUSH2 0x1356 DUP2 CALLER PUSH2 0x3AC4 JUMP JUMPDEST PUSH1 0x0 JUMPDEST DUP3 DUP2 LT ISZERO PUSH2 0x13DD JUMPI PUSH2 0x13CB DUP5 DUP5 DUP4 DUP2 DUP2 LT PUSH2 0x1384 JUMPI PUSH4 0x4E487B71 PUSH1 0xE0 SHL PUSH1 0x0 MSTORE PUSH1 0x32 PUSH1 0x4 MSTORE PUSH1 0x24 PUSH1 0x0 REVERT JUMPDEST SWAP1 POP PUSH1 0x40 MUL ADD PUSH1 0x0 ADD CALLDATALOAD DUP6 DUP6 DUP5 DUP2 DUP2 LT PUSH2 0x13AE JUMPI PUSH4 0x4E487B71 PUSH1 0xE0 SHL PUSH1 0x0 MSTORE PUSH1 0x32 PUSH1 0x4 MSTORE PUSH1 0x24 PUSH1 0x0 REVERT JUMPDEST SWAP1 POP PUSH1 0x40 MUL ADD PUSH1 0x20 ADD PUSH1 0x20 DUP2 ADD SWAP1 PUSH2 0x13C6 SWAP2 SWAP1 PUSH2 0x4763 JUMP JUMPDEST PUSH2 0x3C15 JUMP JUMPDEST DUP1 PUSH2 0x13D5 DUP2 PUSH2 0x4F8C JUMP JUMPDEST SWAP2 POP POP PUSH2 0x1359 JUMP JUMPDEST POP POP POP POP JUMP JUMPDEST PUSH1 0x0 PUSH1 0x2 SLOAD PUSH1 0xFF AND PUSH1 0x7 DUP2 GT ISZERO PUSH2 0x140A JUMPI PUSH4 0x4E487B71 PUSH1 0xE0 SHL PUSH1 0x0 MSTORE PUSH1 0x21 PUSH1 0x4 MSTORE PUSH1 0x24 PUSH1 0x0 REVERT JUMPDEST EQ PUSH2 0x147D JUMPI PUSH1 0x40 MLOAD PUSH3 0x461BCD PUSH1 0xE5 SHL DUP2 MSTORE PUSH1 0x20 PUSH1 0x4 DUP3 ADD MSTORE PUSH1 0x28 PUSH1 0x24 DUP3 ADD MSTORE PUSH32 0x50523A20416363657074696E67207061796D656E747320686173206265656E20 PUSH1 0x44 DUP3 ADD MSTORE PUSH32 0x73746F7070656421000000000000000000000000000000000000000000000000 PUSH1 0x64 DUP3 ADD MSTORE PUSH1 0x84 ADD PUSH2 0xE24 JUMP JUMPDEST PUSH1 0xD SLOAD PUSH1 0xC SLOAD GT ISZERO PUSH2 0x14D1 JUMPI PUSH1 0x40 MLOAD PUSH3 0x461BCD PUSH1 0xE5 SHL DUP2 MSTORE PUSH1 0x20 PUSH1 0x4 DUP3 ADD MSTORE PUSH1 0x14 PUSH1 0x24 DUP3 ADD MSTORE PUSH32 0x50523A204D617820636170207265616368656421000000000000000000000000 PUSH1 0x44 DUP3 ADD MSTORE PUSH1 0x64 ADD PUSH2 0xE24 JUMP JUMPDEST PUSH1 0xE SLOAD CALLVALUE LT ISZERO PUSH2 0x1531 JUMPI PUSH1 0x40 MLOAD PUSH3 0x461BCD PUSH1 0xE5 SHL DUP2 MSTORE PUSH1 0x20 PUSH1 0x4 DUP3 ADD MSTORE PUSH1 0x25 PUSH1 0x24 DUP3 ADD MSTORE PUSH32 0x50523A20416D6F756E742069732062656C6F77206D696E696D756D207065726D PUSH1 0x44 DUP3 ADD MSTORE PUSH5 0x1A5D1D1959 PUSH1 0xDA SHL PUSH1 0x64 DUP3 ADD MSTORE PUSH1 0x84 ADD PUSH2 0xE24 JUMP JUMPDEST PUSH1 0xF SLOAD CALLVALUE GT ISZERO PUSH2 0x1591 JUMPI PUSH1 0x40 MLOAD PUSH3 0x461BCD PUSH1 0xE5 SHL DUP2 MSTORE PUSH1 0x20 PUSH1 0x4 DUP3 ADD MSTORE PUSH1 0x25 PUSH1 0x24 DUP3 ADD MSTORE PUSH32 0x50523A20416D6F756E742069732061626F7665206D6178696D756D207065726D PUSH1 0x44 DUP3 ADD MSTORE PUSH5 0x1A5D1D1959 PUSH1 0xDA SHL PUSH1 0x64 DUP3 ADD MSTORE PUSH1 0x84 ADD PUSH2 0xE24 JUMP JUMPDEST CALLER PUSH1 0x0 SWAP1 DUP2 MSTORE PUSH1 0x9 PUSH1 0x20 MSTORE PUSH1 0x40 SWAP1 KECCAK256 SLOAD ISZERO PUSH2 0x1614 JUMPI PUSH1 0x40 MLOAD PUSH3 0x461BCD PUSH1 0xE5 SHL DUP2 MSTORE PUSH1 0x20 PUSH1 0x4 DUP3 ADD MSTORE PUSH1 0x21 PUSH1 0x24 DUP3 ADD MSTORE PUSH32 0x50523A205465616D206973206E6F7420616C6C6F77656420746F20696E766573 PUSH1 0x44 DUP3 ADD MSTORE PUSH32 0x7400000000000000000000000000000000000000000000000000000000000000 PUSH1 0x64 DUP3 ADD MSTORE PUSH1 0x84 ADD PUSH2 0xE24 JUMP JUMPDEST PUSH1 0x1 PUSH1 0x1 PUSH1 0xA0 SHL SUB DUP2 AND PUSH1 0x0 SWAP1 DUP2 MSTORE PUSH1 0x7 PUSH1 0x20 MSTORE PUSH1 0x40 SWAP1 KECCAK256 SLOAD ISZERO PUSH2 0x16A0 JUMPI PUSH1 0x40 MLOAD PUSH3 0x461BCD PUSH1 0xE5 SHL DUP2 MSTORE PUSH1 0x20 PUSH1 0x4 DUP3 ADD MSTORE PUSH1 0x26 PUSH1 0x24 DUP3 ADD MSTORE PUSH32 0x50523A20506C656173652075736520646966666572656E742072656665727261 PUSH1 0x44 DUP3 ADD MSTORE PUSH32 0x6C206C696E6B0000000000000000000000000000000000000000000000000000 PUSH1 0x64 DUP3 ADD MSTORE PUSH1 0x84 ADD PUSH2 0xE24 JUMP JUMPDEST CALLER PUSH1 0x1 PUSH1 0x1 PUSH1 0xA0 SHL SUB DUP3 AND EQ ISZERO PUSH2 0x171F JUMPI PUSH1 0x40 MLOAD PUSH3 0x461BCD PUSH1 0xE5 SHL DUP2 MSTORE PUSH1 0x20 PUSH1 0x4 DUP3 ADD MSTORE PUSH1 0x3E PUSH1 0x24 DUP3 ADD MSTORE PUSH32 0x50523A2053656C662D7265662069736E277420616C6C6F7765642E20506C6561 PUSH1 0x44 DUP3 ADD MSTORE PUSH32 0x73652075736520646966666572656E7420726566657272616C206C696E6B0000 PUSH1 0x64 DUP3 ADD MSTORE PUSH1 0x84 ADD PUSH2 0xE24 JUMP JUMPDEST PUSH1 0x1 PUSH1 0x1 PUSH1 0xA0 SHL SUB DUP2 AND PUSH2 0x1744 JUMPI POP PUSH20 0xC427A912E0B19F082840A0045E430DE5B8CB1F65 JUMPDEST PUSH2 0x174F CALLER DUP3 CALLVALUE PUSH2 0x3C1F JUMP JUMPDEST PUSH2 0x1303 DUP2 PUSH3 0xF4240 PUSH1 0xB SLOAD CALLVALUE PUSH2 0x1765 SWAP2 SWAP1 PUSH2 0x4DC3 JUMP JUMPDEST PUSH2 0x176F SWAP2 SWAP1 PUSH2 0x4CB8 JUMP JUMPDEST PUSH2 0x3E57 JUMP JUMPDEST PUSH1 0x1 PUSH1 0x1 PUSH1 0xA0 SHL SUB DUP2 AND PUSH1 0x0 SWAP1 DUP2 MSTORE PUSH1 0x3 PUSH1 0x20 MSTORE PUSH1 0x40 DUP2 KECCAK256 SLOAD DUP2 SWAP1 DUP2 SWAP1 DUP2 SWAP1 PUSH1 0x4 SWAP1 PUSH2 0x17A2 SWAP1 PUSH1 0x1 SWAP1 PUSH2 0x4DE2 JUMP JUMPDEST DUP2 SLOAD DUP2 LT PUSH2 0x17C0 JUMPI PUSH4 0x4E487B71 PUSH1 0xE0 SHL PUSH1 0x0 MSTORE PUSH1 0x32 PUSH1 0x4 MSTORE PUSH1 0x24 PUSH1 0x0 REVERT JUMPDEST SWAP1 PUSH1 0x0 MSTORE PUSH1 0x20 PUSH1 0x0 KECCAK256 SWAP1 PUSH1 0x3 MUL ADD PUSH1 0x2 ADD SLOAD PUSH1 0x8 PUSH1 0x1 PUSH1 0x7 PUSH1 0x0 DUP10 PUSH1 0x1 PUSH1 0x1 PUSH1 0xA0 SHL SUB AND PUSH1 0x1 PUSH1 0x1 PUSH1 0xA0 SHL SUB AND DUP2 MSTORE PUSH1 0x20 ADD SWAP1 DUP2 MSTORE PUSH1 0x20 ADD PUSH1 0x0 KECCAK256 SLOAD PUSH2 0x1806 SWAP2 SWAP1 PUSH2 0x4DE2 JUMP JUMPDEST DUP2 SLOAD DUP2 LT PUSH2 0x1824 JUMPI PUSH4 0x4E487B71 PUSH1 0xE0 SHL PUSH1 0x0 MSTORE PUSH1 0x32 PUSH1 0x4 MSTORE PUSH1 0x24 PUSH1 0x0 REVERT JUMPDEST SWAP1 PUSH1 0x0 MSTORE PUSH1 0x20 PUSH1 0x0 KECCAK256 SWAP1 PUSH1 0x2 MUL ADD PUSH1 0x1 ADD SLOAD PUSH1 0xE SLOAD PUSH1 0xF SLOAD SWAP4 POP SWAP4 POP SWAP4 POP SWAP4 POP SWAP2 SWAP4 POP SWAP2 SWAP4 JUMP JUMPDEST PUSH1 0xA DUP2 DUP2 SLOAD DUP2 LT PUSH2 0x185B JUMPI PUSH1 0x0 DUP1 REVERT JUMPDEST PUSH1 0x0 SWAP2 DUP3 MSTORE PUSH1 0x20 SWAP1 SWAP2 KECCAK256 PUSH1 0x5 SWAP1 SWAP2 MUL ADD DUP1 SLOAD PUSH1 0x1 DUP3 ADD DUP1 SLOAD PUSH1 0x1 PUSH1 0x1 PUSH1 0xA0 SHL SUB SWAP1 SWAP3 AND SWAP4 POP SWAP1 PUSH2 0x188A SWAP1 PUSH2 0x4F51 JUMP JUMPDEST DUP1 PUSH1 0x1F ADD PUSH1 0x20 DUP1 SWAP2 DIV MUL PUSH1 0x20 ADD PUSH1 0x40 MLOAD SWAP1 DUP2 ADD PUSH1 0x40 MSTORE DUP1 SWAP3 SWAP2 SWAP1 DUP2 DUP2 MSTORE PUSH1 0x20 ADD DUP3 DUP1 SLOAD PUSH2 0x18B6 SWAP1 PUSH2 0x4F51 JUMP JUMPDEST DUP1 ISZERO PUSH2 0x1903 JUMPI DUP1 PUSH1 0x1F LT PUSH2 0x18D8 JUMPI PUSH2 0x100 DUP1 DUP4 SLOAD DIV MUL DUP4 MSTORE SWAP2 PUSH1 0x20 ADD SWAP2 PUSH2 0x1903 JUMP JUMPDEST DUP3 ADD SWAP2 SWAP1 PUSH1 0x0 MSTORE PUSH1 0x20 PUSH1 0x0 KECCAK256 SWAP1 JUMPDEST DUP2 SLOAD DUP2 MSTORE SWAP1 PUSH1 0x1 ADD SWAP1 PUSH1 0x20 ADD DUP1 DUP4 GT PUSH2 0x18E6 JUMPI DUP3 SWAP1 SUB PUSH1 0x1F AND DUP3 ADD SWAP2 JUMPDEST POP POP POP POP POP SWAP1 DUP1 PUSH1 0x2 ADD SLOAD SWAP1 DUP1 PUSH1 0x3 ADD SLOAD SWAP1 DUP1 PUSH1 0x4 ADD SLOAD SWAP1 POP DUP6 JUMP JUMPDEST PUSH2 0x1927 PUSH2 0x1CE9 JUMP JUMPDEST PUSH2 0x192F PUSH2 0x1E6F JUMP JUMPDEST PUSH2 0x1937 PUSH2 0x1089 JUMP JUMPDEST JUMP JUMPDEST PUSH1 0x0 PUSH2 0x1945 DUP2 CALLER PUSH2 0x3AC4 JUMP JUMPDEST PUSH1 0x15 SLOAD PUSH1 0x40 MLOAD PUSH4 0x70A08231 PUSH1 0xE0 SHL DUP2 MSTORE ADDRESS PUSH1 0x4 DUP3 ADD MSTORE PUSH1 0x0 SWAP2 PUSH1 0x1 PUSH1 0x1 PUSH1 0xA0 SHL SUB AND SWAP1 PUSH4 0x70A08231 SWAP1 PUSH1 0x24 ADD PUSH1 0x20 PUSH1 0x40 MLOAD DUP1 DUP4 SUB DUP2 DUP7 DUP1 EXTCODESIZE ISZERO DUP1 ISZERO PUSH2 0x1989 JUMPI PUSH1 0x0 DUP1 REVERT JUMPDEST POP GAS STATICCALL ISZERO DUP1 ISZERO PUSH2 0x199D JUMPI RETURNDATASIZE PUSH1 0x0 DUP1 RETURNDATACOPY RETURNDATASIZE PUSH1 0x0 REVERT JUMPDEST POP POP POP POP PUSH1 0x40 MLOAD RETURNDATASIZE PUSH1 0x1F NOT PUSH1 0x1F DUP3 ADD AND DUP3 ADD DUP1 PUSH1 0x40 MSTORE POP DUP2 ADD SWAP1 PUSH2 0x19C1 SWAP2 SWAP1 PUSH2 0x4919 JUMP JUMPDEST SWAP1 POP DUP1 ISZERO PUSH2 0x1A41 JUMPI PUSH1 0x15 SLOAD PUSH1 0x40 MLOAD PUSH32 0x2E1A7D4D00000000000000000000000000000000000000000000000000000000 DUP2 MSTORE PUSH1 0x4 DUP2 ADD DUP4 SWAP1 MSTORE PUSH1 0x1 PUSH1 0x1 PUSH1 0xA0 SHL SUB SWAP1 SWAP2 AND SWAP1 PUSH4 0x2E1A7D4D SWAP1 PUSH1 0x24 ADD PUSH1 0x0 PUSH1 0x40 MLOAD DUP1 DUP4 SUB DUP2 PUSH1 0x0 DUP8 DUP1 EXTCODESIZE ISZERO DUP1 ISZERO PUSH2 0x1A28 JUMPI PUSH1 0x0 DUP1 REVERT JUMPDEST POP GAS CALL ISZERO DUP1 ISZERO PUSH2 0x1A3C JUMPI RETURNDATASIZE PUSH1 0x0 DUP1 RETURNDATACOPY RETURNDATASIZE PUSH1 0x0 REVERT JUMPDEST POP POP POP POP JUMPDEST PUSH1 0x0 PUSH2 0x1A4D DUP6 DUP6 PUSH2 0x223E JUMP JUMPDEST SWAP1 POP PUSH1 0x0 JUMPDEST DUP2 MLOAD DUP2 LT ISZERO PUSH2 0x1B36 JUMPI PUSH1 0x0 DUP3 DUP3 DUP2 MLOAD DUP2 LT PUSH2 0x1A7D JUMPI PUSH4 0x4E487B71 PUSH1 0xE0 SHL PUSH1 0x0 MSTORE PUSH1 0x32 PUSH1 0x4 MSTORE PUSH1 0x24 PUSH1 0x0 REVERT JUMPDEST PUSH1 0x20 MUL PUSH1 0x20 ADD ADD MLOAD PUSH1 0x40 ADD MLOAD SWAP1 POP PUSH1 0x0 DUP4 DUP4 DUP2 MLOAD DUP2 LT PUSH2 0x1AAD JUMPI PUSH4 0x4E487B71 PUSH1 0xE0 SHL PUSH1 0x0 MSTORE PUSH1 0x32 PUSH1 0x4 MSTORE PUSH1 0x24 PUSH1 0x0 REVERT JUMPDEST PUSH1 0x20 MUL PUSH1 0x20 ADD ADD MLOAD PUSH1 0x40 ADD DUP2 DUP2 MSTORE POP POP DUP3 DUP3 DUP2 MLOAD DUP2 LT PUSH2 0x1ADD JUMPI PUSH4 0x4E487B71 PUSH1 0xE0 SHL PUSH1 0x0 MSTORE PUSH1 0x32 PUSH1 0x4 MSTORE PUSH1 0x24 PUSH1 0x0 REVERT JUMPDEST PUSH1 0x20 MUL PUSH1 0x20 ADD ADD MLOAD PUSH1 0x0 ADD MLOAD PUSH1 0x1 PUSH1 0x1 PUSH1 0xA0 SHL SUB AND PUSH2 0x8FC DUP3 SWAP1 DUP2 ISZERO MUL SWAP1 PUSH1 0x40 MLOAD PUSH1 0x0 PUSH1 0x40 MLOAD DUP1 DUP4 SUB DUP2 DUP6 DUP9 DUP9 CALL SWAP4 POP POP POP POP ISZERO DUP1 ISZERO PUSH2 0x1B21 JUMPI RETURNDATASIZE PUSH1 0x0 DUP1 RETURNDATACOPY RETURNDATASIZE PUSH1 0x0 REVERT JUMPDEST POP POP DUP1 DUP1 PUSH2 0x1B2E SWAP1 PUSH2 0x4F8C JUMP JUMPDEST SWAP2 POP POP PUSH2 0x1A52 JUMP JUMPDEST POP PUSH2 0x1082 PUSH1 0x7 PUSH2 0x3B42 JUMP JUMPDEST PUSH1 0x40 DUP1 MLOAD PUSH1 0x60 DUP2 ADD DUP3 MSTORE PUSH1 0x0 DUP1 DUP3 MSTORE PUSH1 0x20 DUP3 ADD DUP2 SWAP1 MSTORE SWAP2 DUP2 ADD SWAP2 SWAP1 SWAP2 MSTORE PUSH1 0x4 DUP3 DUP2 SLOAD DUP2 LT PUSH2 0x1B7F JUMPI PUSH4 0x4E487B71 PUSH1 0xE0 SHL PUSH1 0x0 MSTORE PUSH1 0x32 PUSH1 0x4 MSTORE PUSH1 0x24 PUSH1 0x0 REVERT JUMPDEST PUSH1 0x0 SWAP2 DUP3 MSTORE PUSH1 0x20 SWAP2 DUP3 SWAP1 KECCAK256 PUSH1 0x40 DUP1 MLOAD PUSH1 0x60 DUP2 ADD DUP3 MSTORE PUSH1 0x3 SWAP1 SWAP4 MUL SWAP1 SWAP2 ADD DUP1 SLOAD PUSH1 0x1 PUSH1 0x1 PUSH1 0xA0 SHL SUB SWAP1 DUP2 AND DUP5 MSTORE PUSH1 0x1 DUP3 ADD SLOAD AND SWAP4 DUP4 ADD SWAP4 SWAP1 SWAP4 MSTORE PUSH1 0x2 SWAP1 SWAP3 ADD SLOAD SWAP2 DUP2 ADD SWAP2 SWAP1 SWAP2 MSTORE SWAP3 SWAP2 POP POP JUMP JUMPDEST PUSH2 0x1BD5 DUP3 DUP3 PUSH2 0x3F95 JUMP JUMPDEST PUSH1 0x0 DUP3 DUP2 MSTORE PUSH1 0x1 PUSH1 0x20 MSTORE PUSH1 0x40 SWAP1 KECCAK256 PUSH2 0x1BED SWAP1 DUP3 PUSH2 0x3AAF JUMP JUMPDEST POP POP POP JUMP JUMPDEST PUSH1 0x6 DUP2 DUP2 SLOAD DUP2 LT PUSH2 0x1C02 JUMPI PUSH1 0x0 DUP1 REVERT JUMPDEST PUSH1 0x0 SWAP2 DUP3 MSTORE PUSH1 0x20 SWAP1 SWAP2 KECCAK256 PUSH1 0x5 SWAP1 SWAP2 MUL ADD DUP1 SLOAD PUSH1 0x1 DUP3 ADD SLOAD PUSH1 0x2 DUP4 ADD SLOAD PUSH1 0x3 DUP5 ADD SLOAD PUSH1 0x4 SWAP1 SWAP5 ADD SLOAD PUSH1 0x1 PUSH1 0x1 PUSH1 0xA0 SHL SUB SWAP1 SWAP4 AND SWAP5 POP SWAP1 SWAP3 SWAP1 SWAP2 DUP6 JUMP JUMPDEST PUSH2 0x1C47 DUP3 DUP3 PUSH2 0x3FAB JUMP JUMPDEST PUSH1 0x0 DUP3 DUP2 MSTORE PUSH1 0x1 PUSH1 0x20 MSTORE PUSH1 0x40 SWAP1 KECCAK256 PUSH2 0x1BED SWAP1 DUP3 PUSH2 0x4033 JUMP JUMPDEST PUSH2 0x1C67 PUSH2 0x296D JUMP JUMPDEST PUSH2 0x1C6F PUSH2 0x23EC JUMP JUMPDEST DUP1 ISZERO PUSH2 0x1C7B JUMPI DUP1 PUSH2 0x1C7F JUMP JUMPDEST PUSH1 0x4 SLOAD JUMPDEST SWAP1 POP PUSH2 0x1C8C PUSH1 0x0 DUP3 PUSH2 0xD82 JUMP JUMPDEST DUP1 ISZERO PUSH2 0x1C98 JUMPI DUP1 PUSH2 0x1C9C JUMP JUMPDEST PUSH1 0x4 SLOAD JUMPDEST SWAP1 POP PUSH2 0x1303 PUSH1 0x0 DUP3 PUSH2 0x2672 JUMP JUMPDEST PUSH1 0x4 DUP2 DUP2 SLOAD DUP2 LT PUSH2 0x1CB9 JUMPI PUSH1 0x0 DUP1 REVERT JUMPDEST PUSH1 0x0 SWAP2 DUP3 MSTORE PUSH1 0x20 SWAP1 SWAP2 KECCAK256 PUSH1 0x3 SWAP1 SWAP2 MUL ADD DUP1 SLOAD PUSH1 0x1 DUP3 ADD SLOAD PUSH1 0x2 SWAP1 SWAP3 ADD SLOAD PUSH1 0x1 PUSH1 0x1 PUSH1 0xA0 SHL SUB SWAP2 DUP3 AND SWAP4 POP SWAP2 AND SWAP1 DUP4 JUMP JUMPDEST PUSH1 0x0 PUSH2 0x1CF5 DUP2 CALLER PUSH2 0x3AC4 JUMP JUMPDEST PUSH1 0x0 PUSH1 0x2 SLOAD PUSH1 0xFF AND PUSH1 0x7 DUP2 GT ISZERO PUSH2 0x1D1C JUMPI PUSH4 0x4E487B71 PUSH1 0xE0 SHL PUSH1 0x0 MSTORE PUSH1 0x21 PUSH1 0x4 MSTORE PUSH1 0x24 PUSH1 0x0 REVERT JUMPDEST EQ PUSH2 0x1D69 JUMPI PUSH1 0x40 MLOAD PUSH3 0x461BCD PUSH1 0xE5 SHL DUP2 MSTORE PUSH1 0x20 PUSH1 0x4 DUP3 ADD MSTORE PUSH1 0x1C PUSH1 0x24 DUP3 ADD MSTORE PUSH32 0x50523A20476F616C20697320616C726561647920726561636865642100000000 PUSH1 0x44 DUP3 ADD MSTORE PUSH1 0x64 ADD PUSH2 0xE24 JUMP JUMPDEST PUSH2 0x1303 PUSH1 0x1 PUSH2 0x3B42 JUMP JUMPDEST PUSH1 0x1C DUP1 SLOAD PUSH2 0x1D80 SWAP1 PUSH2 0x4F51 JUMP JUMPDEST DUP1 PUSH1 0x1F ADD PUSH1 0x20 DUP1 SWAP2 DIV MUL PUSH1 0x20 ADD PUSH1 0x40 MLOAD SWAP1 DUP2 ADD PUSH1 0x40 MSTORE DUP1 SWAP3 SWAP2 SWAP1 DUP2 DUP2 MSTORE PUSH1 0x20 ADD DUP3 DUP1 SLOAD PUSH2 0x1DAC SWAP1 PUSH2 0x4F51 JUMP JUMPDEST DUP1 ISZERO PUSH2 0x1DF9 JUMPI DUP1 PUSH1 0x1F LT PUSH2 0x1DCE JUMPI PUSH2 0x100 DUP1 DUP4 SLOAD DIV MUL DUP4 MSTORE SWAP2 PUSH1 0x20 ADD SWAP2 PUSH2 0x1DF9 JUMP JUMPDEST DUP3 ADD SWAP2 SWAP1 PUSH1 0x0 MSTORE PUSH1 0x20 PUSH1 0x0 KECCAK256 SWAP1 JUMPDEST DUP2 SLOAD DUP2 MSTORE SWAP1 PUSH1 0x1 ADD SWAP1 PUSH1 0x20 ADD DUP1 DUP4 GT PUSH2 0x1DDC JUMPI DUP3 SWAP1 SUB PUSH1 0x1F AND DUP3 ADD SWAP2 JUMPDEST POP POP POP POP POP DUP2 JUMP JUMPDEST PUSH1 0x40 DUP1 MLOAD DUP1 DUP3 ADD SWAP1 SWAP2 MSTORE PUSH1 0x0 DUP1 DUP3 MSTORE PUSH1 0x20 DUP3 ADD MSTORE PUSH1 0x8 DUP3 DUP2 SLOAD DUP2 LT PUSH2 0x1E36 JUMPI PUSH4 0x4E487B71 PUSH1 0xE0 SHL PUSH1 0x0 MSTORE PUSH1 0x32 PUSH1 0x4 MSTORE PUSH1 0x24 PUSH1 0x0 REVERT JUMPDEST PUSH1 0x0 SWAP2 DUP3 MSTORE PUSH1 0x20 SWAP2 DUP3 SWAP1 KECCAK256 PUSH1 0x40 DUP1 MLOAD DUP1 DUP3 ADD SWAP1 SWAP2 MSTORE PUSH1 0x2 SWAP1 SWAP3 MUL ADD DUP1 SLOAD PUSH1 0x1 PUSH1 0x1 PUSH1 0xA0 SHL SUB AND DUP3 MSTORE PUSH1 0x1 ADD SLOAD SWAP2 DUP2 ADD SWAP2 SWAP1 SWAP2 MSTORE SWAP3 SWAP2 POP POP JUMP JUMPDEST PUSH1 0x0 PUSH2 0x1E7B DUP2 CALLER PUSH2 0x3AC4 JUMP JUMPDEST PUSH1 0x1 PUSH1 0x2 SLOAD PUSH1 0xFF AND PUSH1 0x7 DUP2 GT ISZERO PUSH2 0x1EA2 JUMPI PUSH4 0x4E487B71 PUSH1 0xE0 SHL PUSH1 0x0 MSTORE PUSH1 0x21 PUSH1 0x4 MSTORE PUSH1 0x24 PUSH1 0x0 REVERT JUMPDEST EQ PUSH2 0x1F15 JUMPI PUSH1 0x40 MLOAD PUSH3 0x461BCD PUSH1 0xE5 SHL DUP2 MSTORE PUSH1 0x20 PUSH1 0x4 DUP3 ADD MSTORE PUSH1 0x29 PUSH1 0x24 DUP3 ADD MSTORE PUSH32 0x50523A20507265706172696E6720616464206C69717569646974792069732063 PUSH1 0x44 DUP3 ADD MSTORE PUSH32 0x6F6D706C65746564210000000000000000000000000000000000000000000000 PUSH1 0x64 DUP3 ADD MSTORE PUSH1 0x84 ADD PUSH2 0xE24 JUMP JUMPDEST PUSH1 0x0 SELFBALANCE GT PUSH2 0x1F8B JUMPI PUSH1 0x40 MLOAD PUSH3 0x461BCD PUSH1 0xE5 SHL DUP2 MSTORE PUSH1 0x20 PUSH1 0x4 DUP3 ADD MSTORE PUSH1 0x2B PUSH1 0x24 DUP3 ADD MSTORE PUSH32 0x50523A2045746865722062616C616E6365206D757374206265206C6172676572 PUSH1 0x44 DUP3 ADD MSTORE PUSH32 0x207468616E207A65726F21000000000000000000000000000000000000000000 PUSH1 0x64 DUP3 ADD MSTORE PUSH1 0x84 ADD PUSH2 0xE24 JUMP JUMPDEST PUSH1 0x15 SLOAD PUSH1 0x40 DUP1 MLOAD PUSH32 0xD0E30DB000000000000000000000000000000000000000000000000000000000 DUP2 MSTORE SWAP1 MLOAD PUSH1 0x1 PUSH1 0x1 PUSH1 0xA0 SHL SUB SWAP1 SWAP3 AND SWAP2 DUP3 SWAP2 PUSH4 0xD0E30DB0 SWAP2 SELFBALANCE SWAP2 PUSH1 0x4 DUP1 DUP3 ADD SWAP3 PUSH1 0x0 SWAP3 SWAP1 SWAP2 SWAP1 DUP3 SWAP1 SUB ADD DUP2 DUP6 DUP9 DUP1 EXTCODESIZE ISZERO DUP1 ISZERO PUSH2 0x1FEE JUMPI PUSH1 0x0 DUP1 REVERT JUMPDEST POP GAS CALL ISZERO DUP1 ISZERO PUSH2 0x2002 JUMPI RETURNDATASIZE PUSH1 0x0 DUP1 RETURNDATACOPY RETURNDATASIZE PUSH1 0x0 REVERT JUMPDEST POP POP POP POP POP PUSH2 0x2011 PUSH1 0x2 PUSH2 0x3B42 JUMP JUMPDEST POP POP JUMP JUMPDEST PUSH1 0x40 DUP1 MLOAD PUSH1 0x60 DUP2 ADD DUP3 MSTORE PUSH1 0x0 DUP1 DUP3 MSTORE PUSH1 0x20 DUP1 DUP4 ADD DUP3 SWAP1 MSTORE DUP3 DUP5 ADD DUP3 SWAP1 MSTORE PUSH1 0x1 PUSH1 0x1 PUSH1 0xA0 SHL SUB DUP6 AND DUP3 MSTORE PUSH1 0x3 SWAP1 MSTORE SWAP2 SWAP1 SWAP2 KECCAK256 SLOAD PUSH1 0x4 SWAP1 PUSH2 0x2056 SWAP1 PUSH1 0x1 SWAP1 PUSH2 0x4DE2 JUMP JUMPDEST DUP2 SLOAD DUP2 LT PUSH2 0x1B7F JUMPI PUSH4 0x4E487B71 PUSH1 0xE0 SHL PUSH1 0x0 MSTORE PUSH1 0x32 PUSH1 0x4 MSTORE PUSH1 0x24 PUSH1 0x0 REVERT JUMPDEST PUSH1 0x0 DUP1 JUMPDEST PUSH1 0x8 SLOAD DUP2 LT ISZERO PUSH2 0x2130 JUMPI PUSH1 0x1 PUSH1 0x6 PUSH1 0x1 PUSH1 0x5 PUSH1 0x0 PUSH1 0x8 DUP7 DUP2 SLOAD DUP2 LT PUSH2 0x20AD JUMPI PUSH4 0x4E487B71 PUSH1 0xE0 SHL PUSH1 0x0 MSTORE PUSH1 0x32 PUSH1 0x4 MSTORE PUSH1 0x24 PUSH1 0x0 REVERT JUMPDEST PUSH1 0x0 SWAP2 DUP3 MSTORE PUSH1 0x20 DUP1 DUP4 KECCAK256 PUSH1 0x2 SWAP1 SWAP3 MUL SWAP1 SWAP2 ADD SLOAD PUSH1 0x1 PUSH1 0x1 PUSH1 0xA0 SHL SUB AND DUP4 MSTORE DUP3 ADD SWAP3 SWAP1 SWAP3 MSTORE PUSH1 0x40 ADD SWAP1 KECCAK256 SLOAD PUSH2 0x20E1 SWAP2 SWAP1 PUSH2 0x4DE2 JUMP JUMPDEST DUP2 SLOAD DUP2 LT PUSH2 0x20FF JUMPI PUSH4 0x4E487B71 PUSH1 0xE0 SHL PUSH1 0x0 MSTORE PUSH1 0x32 PUSH1 0x4 MSTORE PUSH1 0x24 PUSH1 0x0 REVERT JUMPDEST SWAP1 PUSH1 0x0 MSTORE PUSH1 0x20 PUSH1 0x0 KECCAK256 SWAP1 PUSH1 0x5 MUL ADD PUSH1 0x1 ADD SLOAD GT PUSH2 0x211E JUMPI PUSH1 0x0 SWAP2 POP POP SWAP1 JUMP JUMPDEST DUP1 PUSH2 0x2128 DUP2 PUSH2 0x4F8C JUMP JUMPDEST SWAP2 POP POP PUSH2 0x2078 JUMP JUMPDEST POP PUSH1 0x0 JUMPDEST PUSH1 0x4 SLOAD DUP2 LT ISZERO PUSH2 0x21EC JUMPI PUSH1 0x1 PUSH1 0x6 PUSH1 0x1 PUSH1 0x5 PUSH1 0x0 PUSH1 0x4 DUP7 DUP2 SLOAD DUP2 LT PUSH2 0x2169 JUMPI PUSH4 0x4E487B71 PUSH1 0xE0 SHL PUSH1 0x0 MSTORE PUSH1 0x32 PUSH1 0x4 MSTORE PUSH1 0x24 PUSH1 0x0 REVERT JUMPDEST PUSH1 0x0 SWAP2 DUP3 MSTORE PUSH1 0x20 DUP1 DUP4 KECCAK256 PUSH1 0x3 SWAP1 SWAP3 MUL SWAP1 SWAP2 ADD SLOAD PUSH1 0x1 PUSH1 0x1 PUSH1 0xA0 SHL SUB AND DUP4 MSTORE DUP3 ADD SWAP3 SWAP1 SWAP3 MSTORE PUSH1 0x40 ADD SWAP1 KECCAK256 SLOAD PUSH2 0x219D SWAP2 SWAP1 PUSH2 0x4DE2 JUMP JUMPDEST DUP2 SLOAD DUP2 LT PUSH2 0x21BB JUMPI PUSH4 0x4E487B71 PUSH1 0xE0 SHL PUSH1 0x0 MSTORE PUSH1 0x32 PUSH1 0x4 MSTORE PUSH1 0x24 PUSH1 0x0 REVERT JUMPDEST SWAP1 PUSH1 0x0 MSTORE PUSH1 0x20 PUSH1 0x0 KECCAK256 SWAP1 PUSH1 0x5 MUL ADD PUSH1 0x1 ADD SLOAD GT PUSH2 0x21DA JUMPI PUSH1 0x0 SWAP2 POP POP SWAP1 JUMP JUMPDEST DUP1 PUSH2 0x21E4 DUP2 PUSH2 0x4F8C JUMP JUMPDEST SWAP2 POP POP PUSH2 0x2134 JUMP JUMPDEST POP PUSH1 0x1 SWAP1 POP SWAP1 JUMP JUMPDEST PUSH1 0x0 PUSH2 0x2200 DUP2 CALLER PUSH2 0x3AC4 JUMP JUMPDEST POP PUSH1 0x12 SSTORE JUMP JUMPDEST PUSH1 0x8 DUP2 DUP2 SLOAD DUP2 LT PUSH2 0x2216 JUMPI PUSH1 0x0 DUP1 REVERT JUMPDEST PUSH1 0x0 SWAP2 DUP3 MSTORE PUSH1 0x20 SWAP1 SWAP2 KECCAK256 PUSH1 0x2 SWAP1 SWAP2 MUL ADD DUP1 SLOAD PUSH1 0x1 SWAP1 SWAP2 ADD SLOAD PUSH1 0x1 PUSH1 0x1 PUSH1 0xA0 SHL SUB SWAP1 SWAP2 AND SWAP2 POP DUP3 JUMP JUMPDEST PUSH1 0x60 DUP3 PUSH1 0x0 PUSH2 0x224D DUP5 DUP4 PUSH2 0x4CA0 JUMP JUMPDEST PUSH1 0x4 SLOAD SWAP1 SWAP2 POP DUP2 GT PUSH2 0x225F JUMPI DUP1 PUSH2 0x2263 JUMP JUMPDEST PUSH1 0x4 SLOAD JUMPDEST SWAP1 POP PUSH1 0x0 DUP3 DUP3 GT PUSH2 0x2275 JUMPI PUSH1 0x0 PUSH2 0x227F JUMP JUMPDEST PUSH2 0x227F DUP4 DUP4 PUSH2 0x4DE2 JUMP JUMPDEST SWAP1 POP PUSH1 0x0 DUP2 PUSH8 0xFFFFFFFFFFFFFFFF DUP2 GT ISZERO PUSH2 0x22AA JUMPI PUSH4 0x4E487B71 PUSH1 0xE0 SHL PUSH1 0x0 MSTORE PUSH1 0x41 PUSH1 0x4 MSTORE PUSH1 0x24 PUSH1 0x0 REVERT JUMPDEST PUSH1 0x40 MLOAD SWAP1 DUP1 DUP3 MSTORE DUP1 PUSH1 0x20 MUL PUSH1 0x20 ADD DUP3 ADD PUSH1 0x40 MSTORE DUP1 ISZERO PUSH2 0x22F5 JUMPI DUP2 PUSH1 0x20 ADD JUMPDEST PUSH1 0x40 DUP1 MLOAD PUSH1 0x60 DUP2 ADD DUP3 MSTORE PUSH1 0x0 DUP1 DUP3 MSTORE PUSH1 0x20 DUP1 DUP4 ADD DUP3 SWAP1 MSTORE SWAP3 DUP3 ADD MSTORE DUP3 MSTORE PUSH1 0x0 NOT SWAP1 SWAP3 ADD SWAP2 ADD DUP2 PUSH2 0x22C8 JUMPI SWAP1 POP JUMPDEST POP SWAP1 POP DUP4 JUMPDEST DUP4 DUP2 LT ISZERO PUSH2 0x23B0 JUMPI PUSH1 0x4 DUP2 DUP2 SLOAD DUP2 LT PUSH2 0x2323 JUMPI PUSH4 0x4E487B71 PUSH1 0xE0 SHL PUSH1 0x0 MSTORE PUSH1 0x32 PUSH1 0x4 MSTORE PUSH1 0x24 PUSH1 0x0 REVERT JUMPDEST PUSH1 0x0 SWAP2 DUP3 MSTORE PUSH1 0x20 SWAP2 DUP3 SWAP1 KECCAK256 PUSH1 0x40 DUP1 MLOAD PUSH1 0x60 DUP2 ADD DUP3 MSTORE PUSH1 0x3 SWAP1 SWAP4 MUL SWAP1 SWAP2 ADD DUP1 SLOAD PUSH1 0x1 PUSH1 0x1 PUSH1 0xA0 SHL SUB SWAP1 DUP2 AND DUP5 MSTORE PUSH1 0x1 DUP3 ADD SLOAD AND SWAP4 DUP4 ADD SWAP4 SWAP1 SWAP4 MSTORE PUSH1 0x2 SWAP1 SWAP3 ADD SLOAD SWAP2 DUP2 ADD SWAP2 SWAP1 SWAP2 MSTORE DUP3 PUSH2 0x2374 DUP8 DUP5 PUSH2 0x4DE2 JUMP JUMPDEST DUP2 MLOAD DUP2 LT PUSH2 0x2392 JUMPI PUSH4 0x4E487B71 PUSH1 0xE0 SHL PUSH1 0x0 MSTORE PUSH1 0x32 PUSH1 0x4 MSTORE PUSH1 0x24 PUSH1 0x0 REVERT JUMPDEST PUSH1 0x20 MUL PUSH1 0x20 ADD ADD DUP2 SWAP1 MSTORE POP DUP1 DUP1 PUSH2 0x23A8 SWAP1 PUSH2 0x4F8C JUMP JUMPDEST SWAP2 POP POP PUSH2 0x22FA JUMP JUMPDEST POP SWAP7 SWAP6 POP POP POP POP POP POP JUMP JUMPDEST PUSH1 0x0 DUP3 DUP2 MSTORE PUSH1 0x1 PUSH1 0x20 MSTORE PUSH1 0x40 DUP2 KECCAK256 PUSH2 0x23D3 SWAP1 DUP4 PUSH2 0x4048 JUMP JUMPDEST SWAP4 SWAP3 POP POP POP JUMP JUMPDEST PUSH1 0x0 PUSH2 0x23E6 DUP2 CALLER PUSH2 0x3AC4 JUMP JUMPDEST POP PUSH1 0xB SSTORE JUMP JUMPDEST PUSH1 0x0 PUSH2 0x23F8 DUP2 CALLER PUSH2 0x3AC4 JUMP JUMPDEST PUSH1 0x4 PUSH1 0x2 SLOAD PUSH1 0xFF AND PUSH1 0x7 DUP2 GT ISZERO PUSH2 0x241F JUMPI PUSH4 0x4E487B71 PUSH1 0xE0 SHL PUSH1 0x0 MSTORE PUSH1 0x21 PUSH1 0x4 MSTORE PUSH1 0x24 PUSH1 0x0 REVERT JUMPDEST EQ PUSH2 0x2492 JUMPI PUSH1 0x40 MLOAD PUSH3 0x461BCD PUSH1 0xE5 SHL DUP2 MSTORE PUSH1 0x20 PUSH1 0x4 DUP3 ADD MSTORE PUSH1 0x34 PUSH1 0x24 DUP3 ADD MSTORE PUSH32 0x50523A20546F6B656E6F6D69637320746F6B656E73206861766520616C726561 PUSH1 0x44 DUP3 ADD MSTORE PUSH32 0x6479206265656E20646973747269627574656421000000000000000000000000 PUSH1 0x64 DUP3 ADD MSTORE PUSH1 0x84 ADD PUSH2 0xE24 JUMP JUMPDEST PUSH1 0x0 JUMPDEST PUSH1 0xA SLOAD DUP2 LT ISZERO PUSH2 0x2011 JUMPI PUSH1 0x6 PUSH1 0x40 MLOAD DUP1 PUSH1 0xA0 ADD PUSH1 0x40 MSTORE DUP1 PUSH1 0xA DUP5 DUP2 SLOAD DUP2 LT PUSH2 0x24CD JUMPI PUSH4 0x4E487B71 PUSH1 0xE0 SHL PUSH1 0x0 MSTORE PUSH1 0x32 PUSH1 0x4 MSTORE PUSH1 0x24 PUSH1 0x0 REVERT JUMPDEST PUSH1 0x0 SWAP2 DUP3 MSTORE PUSH1 0x20 SWAP2 DUP3 SWAP1 KECCAK256 PUSH1 0x5 SWAP1 SWAP2 MUL ADD SLOAD PUSH1 0x1 PUSH1 0x1 PUSH1 0xA0 SHL SUB AND DUP3 MSTORE PUSH1 0xA DUP1 SLOAD SWAP3 SWAP1 SWAP2 ADD SWAP2 PUSH3 0xF4240 SWAP2 SWAP1 DUP7 SWAP1 DUP2 LT PUSH2 0x2517 JUMPI PUSH4 0x4E487B71 PUSH1 0xE0 SHL PUSH1 0x0 MSTORE PUSH1 0x32 PUSH1 0x4 MSTORE PUSH1 0x24 PUSH1 0x0 REVERT JUMPDEST SWAP1 PUSH1 0x0 MSTORE PUSH1 0x20 PUSH1 0x0 KECCAK256 SWAP1 PUSH1 0x5 MUL ADD PUSH1 0x2 ADD SLOAD PUSH1 0x11 SLOAD PUSH2 0x2536 SWAP2 SWAP1 PUSH2 0x4DC3 JUMP JUMPDEST PUSH2 0x2540 SWAP2 SWAP1 PUSH2 0x4CB8 JUMP JUMPDEST DUP2 MSTORE PUSH1 0x20 ADD PUSH1 0x0 DUP2 MSTORE PUSH1 0x20 ADD PUSH1 0xA DUP5 DUP2 SLOAD DUP2 LT PUSH2 0x256D JUMPI PUSH4 0x4E487B71 PUSH1 0xE0 SHL PUSH1 0x0 MSTORE PUSH1 0x32 PUSH1 0x4 MSTORE PUSH1 0x24 PUSH1 0x0 REVERT JUMPDEST SWAP1 PUSH1 0x0 MSTORE PUSH1 0x20 PUSH1 0x0 KECCAK256 SWAP1 PUSH1 0x5 MUL ADD PUSH1 0x3 ADD SLOAD TIMESTAMP PUSH2 0x258A SWAP2 SWAP1 PUSH2 0x4CA0 JUMP JUMPDEST DUP2 MSTORE PUSH1 0x20 ADD PUSH1 0xA DUP5 DUP2 SLOAD DUP2 LT PUSH2 0x25B0 JUMPI PUSH4 0x4E487B71 PUSH1 0xE0 SHL PUSH1 0x0 MSTORE PUSH1 0x32 PUSH1 0x4 MSTORE PUSH1 0x24 PUSH1 0x0 REVERT JUMPDEST SWAP1 PUSH1 0x0 MSTORE PUSH1 0x20 PUSH1 0x0 KECCAK256 SWAP1 PUSH1 0x5 MUL ADD PUSH1 0x4 ADD SLOAD TIMESTAMP PUSH2 0x25CD SWAP2 SWAP1 PUSH2 0x4CA0 JUMP JUMPDEST SWAP1 MSTORE DUP2 SLOAD PUSH1 0x1 DUP1 DUP3 ADD DUP5 SSTORE PUSH1 0x0 SWAP4 DUP5 MSTORE PUSH1 0x20 SWAP4 DUP5 SWAP1 KECCAK256 DUP4 MLOAD PUSH1 0x5 SWAP1 SWAP4 MUL ADD DUP1 SLOAD PUSH1 0x1 PUSH1 0x1 PUSH1 0xA0 SHL SUB NOT AND PUSH1 0x1 PUSH1 0x1 PUSH1 0xA0 SHL SUB SWAP1 SWAP4 AND SWAP3 SWAP1 SWAP3 OR DUP3 SSTORE SWAP3 DUP3 ADD MLOAD SWAP3 DUP2 ADD SWAP3 SWAP1 SWAP3 SSTORE PUSH1 0x40 DUP2 ADD MLOAD PUSH1 0x2 DUP4 ADD SSTORE PUSH1 0x60 DUP2 ADD MLOAD PUSH1 0x3 DUP4 ADD SSTORE PUSH1 0x80 ADD MLOAD PUSH1 0x4 SWAP1 SWAP2 ADD SSTORE DUP1 PUSH2 0x263B DUP2 PUSH2 0x4F8C JUMP JUMPDEST SWAP2 POP POP PUSH2 0x2495 JUMP JUMPDEST PUSH1 0x0 PUSH2 0x264F DUP2 CALLER PUSH2 0x3AC4 JUMP JUMPDEST POP PUSH1 0x13 DUP1 SLOAD PUSH1 0x1 PUSH1 0x1 PUSH1 0xA0 SHL SUB NOT AND PUSH1 0x1 PUSH1 0x1 PUSH1 0xA0 SHL SUB SWAP3 SWAP1 SWAP3 AND SWAP2 SWAP1 SWAP2 OR SWAP1 SSTORE JUMP JUMPDEST PUSH1 0x0 PUSH2 0x267E DUP2 CALLER PUSH2 0x3AC4 JUMP JUMPDEST PUSH1 0x4 PUSH1 0x2 SLOAD PUSH1 0xFF AND PUSH1 0x7 DUP2 GT ISZERO PUSH2 0x26A5 JUMPI PUSH4 0x4E487B71 PUSH1 0xE0 SHL PUSH1 0x0 MSTORE PUSH1 0x21 PUSH1 0x4 MSTORE PUSH1 0x24 PUSH1 0x0 REVERT JUMPDEST EQ PUSH2 0x2718 JUMPI PUSH1 0x40 MLOAD PUSH3 0x461BCD PUSH1 0xE5 SHL DUP2 MSTORE PUSH1 0x20 PUSH1 0x4 DUP3 ADD MSTORE PUSH1 0x33 PUSH1 0x24 DUP3 ADD MSTORE PUSH32 0x50523A20526566657272616C7320746F6B656E73206861766520616C72656164 PUSH1 0x44 DUP3 ADD MSTORE PUSH32 0x79206265656E2064697374726962757465642100000000000000000000000000 PUSH1 0x64 DUP3 ADD MSTORE PUSH1 0x84 ADD PUSH2 0xE24 JUMP JUMPDEST PUSH1 0x0 PUSH2 0x2724 DUP5 DUP5 PUSH2 0x3422 JUMP JUMPDEST SWAP1 POP PUSH1 0x0 JUMPDEST DUP2 MLOAD DUP2 LT ISZERO PUSH2 0x1082 JUMPI PUSH1 0x1 PUSH1 0x6 PUSH1 0x1 PUSH1 0x5 PUSH1 0x0 DUP7 DUP7 DUP2 MLOAD DUP2 LT PUSH2 0x275C JUMPI PUSH4 0x4E487B71 PUSH1 0xE0 SHL PUSH1 0x0 MSTORE PUSH1 0x32 PUSH1 0x4 MSTORE PUSH1 0x24 PUSH1 0x0 REVERT JUMPDEST PUSH1 0x20 MUL PUSH1 0x20 ADD ADD MLOAD PUSH1 0x0 ADD MLOAD PUSH1 0x1 PUSH1 0x1 PUSH1 0xA0 SHL SUB AND PUSH1 0x1 PUSH1 0x1 PUSH1 0xA0 SHL SUB AND DUP2 MSTORE PUSH1 0x20 ADD SWAP1 DUP2 MSTORE PUSH1 0x20 ADD PUSH1 0x0 KECCAK256 SLOAD PUSH2 0x2793 SWAP2 SWAP1 PUSH2 0x4DE2 JUMP JUMPDEST DUP2 SLOAD DUP2 LT PUSH2 0x27B1 JUMPI PUSH4 0x4E487B71 PUSH1 0xE0 SHL PUSH1 0x0 MSTORE PUSH1 0x32 PUSH1 0x4 MSTORE PUSH1 0x24 PUSH1 0x0 REVERT JUMPDEST SWAP1 PUSH1 0x0 MSTORE PUSH1 0x20 PUSH1 0x0 KECCAK256 SWAP1 PUSH1 0x5 MUL ADD PUSH1 0x1 ADD SLOAD GT PUSH2 0x295B JUMPI PUSH1 0x40 MLOAD DUP1 PUSH1 0xA0 ADD PUSH1 0x40 MSTORE DUP1 DUP4 DUP4 DUP2 MLOAD DUP2 LT PUSH2 0x27F3 JUMPI PUSH4 0x4E487B71 PUSH1 0xE0 SHL PUSH1 0x0 MSTORE PUSH1 0x32 PUSH1 0x4 MSTORE PUSH1 0x24 PUSH1 0x0 REVERT JUMPDEST PUSH1 0x20 MUL PUSH1 0x20 ADD ADD MLOAD PUSH1 0x0 ADD MLOAD PUSH1 0x1 PUSH1 0x1 PUSH1 0xA0 SHL SUB AND DUP2 MSTORE PUSH1 0x20 ADD PUSH1 0xC SLOAD PUSH1 0x10 SLOAD DUP6 DUP6 DUP2 MLOAD DUP2 LT PUSH2 0x2833 JUMPI PUSH4 0x4E487B71 PUSH1 0xE0 SHL PUSH1 0x0 MSTORE PUSH1 0x32 PUSH1 0x4 MSTORE PUSH1 0x24 PUSH1 0x0 REVERT JUMPDEST PUSH1 0x20 MUL PUSH1 0x20 ADD ADD MLOAD PUSH1 0x20 ADD MLOAD PUSH2 0x2849 SWAP2 SWAP1 PUSH2 0x4DC3 JUMP JUMPDEST PUSH2 0x2853 SWAP2 SWAP1 PUSH2 0x4CB8 JUMP JUMPDEST DUP2 MSTORE PUSH1 0x20 ADD PUSH1 0x0 DUP2 MSTORE PUSH1 0x20 ADD PUSH1 0x21 SLOAD TIMESTAMP PUSH2 0x286D SWAP2 SWAP1 PUSH2 0x4CA0 JUMP JUMPDEST DUP2 MSTORE PUSH1 0x20 ADD PUSH1 0x22 SLOAD TIMESTAMP PUSH2 0x2880 SWAP2 SWAP1 PUSH2 0x4CA0 JUMP JUMPDEST DUP2 MSTORE POP PUSH1 0x6 PUSH1 0x1 PUSH1 0x5 PUSH1 0x0 DUP7 DUP7 DUP2 MLOAD DUP2 LT PUSH2 0x28AB JUMPI PUSH4 0x4E487B71 PUSH1 0xE0 SHL PUSH1 0x0 MSTORE PUSH1 0x32 PUSH1 0x4 MSTORE PUSH1 0x24 PUSH1 0x0 REVERT JUMPDEST PUSH1 0x20 MUL PUSH1 0x20 ADD ADD MLOAD PUSH1 0x0 ADD MLOAD PUSH1 0x1 PUSH1 0x1 PUSH1 0xA0 SHL SUB AND PUSH1 0x1 PUSH1 0x1 PUSH1 0xA0 SHL SUB AND DUP2 MSTORE PUSH1 0x20 ADD SWAP1 DUP2 MSTORE PUSH1 0x20 ADD PUSH1 0x0 KECCAK256 SLOAD PUSH2 0x28E2 SWAP2 SWAP1 PUSH2 0x4DE2 JUMP JUMPDEST DUP2 SLOAD DUP2 LT PUSH2 0x2900 JUMPI PUSH4 0x4E487B71 PUSH1 0xE0 SHL PUSH1 0x0 MSTORE PUSH1 0x32 PUSH1 0x4 MSTORE PUSH1 0x24 PUSH1 0x0 REVERT JUMPDEST PUSH1 0x0 SWAP2 DUP3 MSTORE PUSH1 0x20 SWAP2 DUP3 SWAP1 KECCAK256 DUP4 MLOAD PUSH1 0x5 SWAP3 SWAP1 SWAP3 MUL ADD DUP1 SLOAD PUSH1 0x1 PUSH1 0x1 PUSH1 0xA0 SHL SUB NOT AND PUSH1 0x1 PUSH1 0x1 PUSH1 0xA0 SHL SUB SWAP1 SWAP3 AND SWAP2 SWAP1 SWAP2 OR DUP2 SSTORE SWAP1 DUP3 ADD MLOAD PUSH1 0x1 DUP3 ADD SSTORE PUSH1 0x40 DUP3 ADD MLOAD PUSH1 0x2 DUP3 ADD SSTORE PUSH1 0x60 DUP3 ADD MLOAD PUSH1 0x3 DUP3 ADD SSTORE PUSH1 0x80 SWAP1 SWAP2 ADD MLOAD PUSH1 0x4 SWAP1 SWAP2 ADD SSTORE JUMPDEST DUP1 PUSH2 0x2965 DUP2 PUSH2 0x4F8C JUMP JUMPDEST SWAP2 POP POP PUSH2 0x2729 JUMP JUMPDEST PUSH1 0x0 PUSH2 0x2979 DUP2 CALLER PUSH2 0x3AC4 JUMP JUMPDEST PUSH1 0x3 PUSH1 0x2 SLOAD PUSH1 0xFF AND PUSH1 0x7 DUP2 GT ISZERO PUSH2 0x29A0 JUMPI PUSH4 0x4E487B71 PUSH1 0xE0 SHL PUSH1 0x0 MSTORE PUSH1 0x21 PUSH1 0x4 MSTORE PUSH1 0x24 PUSH1 0x0 REVERT JUMPDEST EQ PUSH2 0x29ED JUMPI PUSH1 0x40 MLOAD PUSH3 0x461BCD PUSH1 0xE5 SHL DUP2 MSTORE PUSH1 0x20 PUSH1 0x4 DUP3 ADD MSTORE PUSH1 0x1F PUSH1 0x24 DUP3 ADD MSTORE PUSH32 0x50523A204C697175696469747920697320616C72656164792061646465642100 PUSH1 0x44 DUP3 ADD MSTORE PUSH1 0x64 ADD PUSH2 0xE24 JUMP JUMPDEST PUSH1 0x17 SLOAD PUSH1 0x16 SLOAD PUSH1 0x15 SLOAD PUSH1 0x40 MLOAD PUSH4 0xE6A43905 PUSH1 0xE0 SHL DUP2 MSTORE PUSH1 0x1 PUSH1 0x1 PUSH1 0xA0 SHL SUB SWAP3 DUP4 AND PUSH1 0x4 DUP3 ADD MSTORE SWAP1 DUP3 AND PUSH1 0x24 DUP3 ADD MSTORE PUSH1 0x0 SWAP3 SWAP2 SWAP1 SWAP2 AND SWAP1 PUSH4 0xE6A43905 SWAP1 PUSH1 0x44 ADD PUSH1 0x20 PUSH1 0x40 MLOAD DUP1 DUP4 SUB DUP2 DUP7 DUP1 EXTCODESIZE ISZERO DUP1 ISZERO PUSH2 0x2A44 JUMPI PUSH1 0x0 DUP1 REVERT JUMPDEST POP GAS STATICCALL ISZERO DUP1 ISZERO PUSH2 0x2A58 JUMPI RETURNDATASIZE PUSH1 0x0 DUP1 RETURNDATACOPY RETURNDATASIZE PUSH1 0x0 REVERT JUMPDEST POP POP POP POP PUSH1 0x40 MLOAD RETURNDATASIZE PUSH1 0x1F NOT PUSH1 0x1F DUP3 ADD AND DUP3 ADD DUP1 PUSH1 0x40 MSTORE POP DUP2 ADD SWAP1 PUSH2 0x2A7C SWAP2 SWAP1 PUSH2 0x477F JUMP JUMPDEST SWAP1 POP PUSH1 0x0 DUP1 DUP3 PUSH1 0x1 PUSH1 0x1 PUSH1 0xA0 SHL SUB AND PUSH4 0x902F1AC PUSH1 0x40 MLOAD DUP2 PUSH4 0xFFFFFFFF AND PUSH1 0xE0 SHL DUP2 MSTORE PUSH1 0x4 ADD PUSH1 0x60 PUSH1 0x40 MLOAD DUP1 DUP4 SUB DUP2 DUP7 DUP1 EXTCODESIZE ISZERO DUP1 ISZERO PUSH2 0x2ABA JUMPI PUSH1 0x0 DUP1 REVERT JUMPDEST POP GAS STATICCALL ISZERO DUP1 ISZERO PUSH2 0x2ACE JUMPI RETURNDATASIZE PUSH1 0x0 DUP1 RETURNDATACOPY RETURNDATASIZE PUSH1 0x0 REVERT JUMPDEST POP POP POP POP PUSH1 0x40 MLOAD RETURNDATASIZE PUSH1 0x1F NOT PUSH1 0x1F DUP3 ADD AND DUP3 ADD DUP1 PUSH1 0x40 MSTORE POP DUP2 ADD SWAP1 PUSH2 0x2AF2 SWAP2 SWAP1 PUSH2 0x495C JUMP JUMPDEST POP PUSH1 0x15 SLOAD PUSH1 0x16 SLOAD SWAP3 SWAP5 POP SWAP1 SWAP3 POP PUSH1 0x1 PUSH1 0x1 PUSH1 0xA0 SHL SUB SWAP1 DUP2 AND SWAP2 AND GT ISZERO PUSH2 0x2B14 JUMPI SWAP1 JUMPDEST DUP1 PUSH1 0x12 SLOAD PUSH2 0x2B22 SWAP2 SWAP1 PUSH2 0x4DC3 JUMP JUMPDEST PUSH1 0x1A SLOAD PUSH2 0x2B30 SWAP1 PUSH1 0x24 PUSH2 0x4DE2 JUMP JUMPDEST PUSH2 0x2B3B SWAP1 PUSH1 0xA PUSH2 0x4D1B JUMP JUMPDEST PUSH1 0xC SLOAD PUSH2 0x2B48 SWAP1 DUP6 PUSH2 0x4DC3 JUMP JUMPDEST PUSH2 0x2B52 SWAP2 SWAP1 PUSH2 0x4DC3 JUMP JUMPDEST PUSH2 0x2B5C SWAP2 SWAP1 PUSH2 0x4CB8 JUMP JUMPDEST PUSH1 0x11 SSTORE PUSH1 0x0 PUSH3 0xF4240 PUSH2 0x2B6D PUSH2 0x3029 JUMP JUMPDEST PUSH1 0x11 SLOAD PUSH2 0x2B7A SWAP2 SWAP1 PUSH2 0x4DC3 JUMP JUMPDEST PUSH2 0x2B84 SWAP2 SWAP1 PUSH2 0x4CB8 JUMP JUMPDEST PUSH1 0x10 DUP2 SWAP1 SSTORE PUSH1 0x15 SLOAD PUSH1 0x19 SLOAD PUSH1 0x40 MLOAD PUSH4 0x70A08231 PUSH1 0xE0 SHL DUP2 MSTORE ADDRESS PUSH1 0x4 DUP3 ADD MSTORE SWAP3 SWAP4 POP PUSH1 0x1 PUSH1 0x1 PUSH1 0xA0 SHL SUB SWAP2 DUP3 AND SWAP3 DUP4 SWAP3 PUSH4 0xA9059CBB SWAP3 AND SWAP1 DUP4 SWAP1 PUSH4 0x70A08231 SWAP1 PUSH1 0x24 ADD PUSH1 0x20 PUSH1 0x40 MLOAD DUP1 DUP4 SUB DUP2 DUP7 DUP1 EXTCODESIZE ISZERO DUP1 ISZERO PUSH2 0x2BDE JUMPI PUSH1 0x0 DUP1 REVERT JUMPDEST POP GAS STATICCALL ISZERO DUP1 ISZERO PUSH2 0x2BF2 JUMPI RETURNDATASIZE PUSH1 0x0 DUP1 RETURNDATACOPY RETURNDATASIZE PUSH1 0x0 REVERT JUMPDEST POP POP POP POP PUSH1 0x40 MLOAD RETURNDATASIZE PUSH1 0x1F NOT PUSH1 0x1F DUP3 ADD AND DUP3 ADD DUP1 PUSH1 0x40 MSTORE POP DUP2 ADD SWAP1 PUSH2 0x2C16 SWAP2 SWAP1 PUSH2 0x4919 JUMP JUMPDEST PUSH1 0x40 MLOAD PUSH1 0x1 PUSH1 0x1 PUSH1 0xE0 SHL SUB NOT PUSH1 0xE0 DUP6 SWAP1 SHL AND DUP2 MSTORE PUSH1 0x1 PUSH1 0x1 PUSH1 0xA0 SHL SUB SWAP1 SWAP3 AND PUSH1 0x4 DUP4 ADD MSTORE PUSH1 0x24 DUP3 ADD MSTORE PUSH1 0x44 ADD PUSH1 0x20 PUSH1 0x40 MLOAD DUP1 DUP4 SUB DUP2 PUSH1 0x0 DUP8 DUP1 EXTCODESIZE ISZERO DUP1 ISZERO PUSH2 0x2C5C JUMPI PUSH1 0x0 DUP1 REVERT JUMPDEST POP GAS CALL ISZERO DUP1 ISZERO PUSH2 0x2C70 JUMPI RETURNDATASIZE PUSH1 0x0 DUP1 RETURNDATACOPY RETURNDATASIZE PUSH1 0x0 REVERT JUMPDEST POP POP POP POP PUSH1 0x40 MLOAD RETURNDATASIZE PUSH1 0x1F NOT PUSH1 0x1F DUP3 ADD AND DUP3 ADD DUP1 PUSH1 0x40 MSTORE POP DUP2 ADD SWAP1 PUSH2 0x2C94 SWAP2 SWAP1 PUSH2 0x4869 JUMP JUMPDEST POP PUSH1 0x13 SLOAD PUSH1 0x19 SLOAD PUSH1 0x40 MLOAD PUSH32 0xBB9FF5D00000000000000000000000000000000000000000000000000000000 DUP2 MSTORE PUSH1 0x1 PUSH1 0x1 PUSH1 0xA0 SHL SUB SWAP2 DUP3 AND PUSH1 0x4 DUP3 ADD MSTORE PUSH1 0x24 DUP2 ADD DUP6 SWAP1 MSTORE SWAP2 AND SWAP1 PUSH4 0xBB9FF5D SWAP1 PUSH1 0x44 ADD PUSH1 0x0 PUSH1 0x40 MLOAD DUP1 DUP4 SUB DUP2 PUSH1 0x0 DUP8 DUP1 EXTCODESIZE ISZERO DUP1 ISZERO PUSH2 0x2CFE JUMPI PUSH1 0x0 DUP1 REVERT JUMPDEST POP GAS CALL ISZERO DUP1 ISZERO PUSH2 0x2D12 JUMPI RETURNDATASIZE PUSH1 0x0 DUP1 RETURNDATACOPY RETURNDATASIZE PUSH1 0x0 REVERT JUMPDEST POP POP PUSH1 0x19 SLOAD PUSH1 0x40 MLOAD PUSH32 0x6A62784200000000000000000000000000000000000000000000000000000000 DUP2 MSTORE ADDRESS PUSH1 0x4 DUP3 ADD MSTORE PUSH1 0x1 PUSH1 0x1 PUSH1 0xA0 SHL SUB SWAP1 SWAP2 AND SWAP3 POP DUP3 SWAP2 POP PUSH4 0x6A627842 SWAP1 PUSH1 0x24 ADD PUSH1 0x20 PUSH1 0x40 MLOAD DUP1 DUP4 SUB DUP2 PUSH1 0x0 DUP8 DUP1 EXTCODESIZE ISZERO DUP1 ISZERO PUSH2 0x2D76 JUMPI PUSH1 0x0 DUP1 REVERT JUMPDEST POP GAS CALL ISZERO DUP1 ISZERO PUSH2 0x2D8A JUMPI RETURNDATASIZE PUSH1 0x0 DUP1 RETURNDATACOPY RETURNDATASIZE PUSH1 0x0 REVERT JUMPDEST POP POP POP POP PUSH1 0x40 MLOAD RETURNDATASIZE PUSH1 0x1F NOT PUSH1 0x1F DUP3 ADD AND DUP3 ADD DUP1 PUSH1 0x40 MSTORE POP DUP2 ADD SWAP1 PUSH2 0x2DAE SWAP2 SWAP1 PUSH2 0x4919 JUMP JUMPDEST POP PUSH1 0x14 SLOAD PUSH1 0x1 PUSH1 0x1 PUSH1 0xA0 SHL SUB AND ISZERO PUSH2 0x2F93 JUMPI PUSH1 0x19 SLOAD PUSH1 0x14 SLOAD PUSH1 0x40 MLOAD PUSH32 0x95EA7B300000000000000000000000000000000000000000000000000000000 DUP2 MSTORE PUSH1 0x1 PUSH1 0x1 PUSH1 0xA0 SHL SUB SWAP2 DUP3 AND PUSH1 0x4 DUP3 ADD MSTORE PUSH1 0x0 NOT PUSH1 0x24 DUP3 ADD MSTORE SWAP2 AND SWAP1 PUSH4 0x95EA7B3 SWAP1 PUSH1 0x44 ADD PUSH1 0x20 PUSH1 0x40 MLOAD DUP1 DUP4 SUB DUP2 PUSH1 0x0 DUP8 DUP1 EXTCODESIZE ISZERO DUP1 ISZERO PUSH2 0x2E2A JUMPI PUSH1 0x0 DUP1 REVERT JUMPDEST POP GAS CALL ISZERO DUP1 ISZERO PUSH2 0x2E3E JUMPI RETURNDATASIZE PUSH1 0x0 DUP1 RETURNDATACOPY RETURNDATASIZE PUSH1 0x0 REVERT JUMPDEST POP POP POP POP PUSH1 0x40 MLOAD RETURNDATASIZE PUSH1 0x1F NOT PUSH1 0x1F DUP3 ADD AND DUP3 ADD DUP1 PUSH1 0x40 MSTORE POP DUP2 ADD SWAP1 PUSH2 0x2E62 SWAP2 SWAP1 PUSH2 0x4869 JUMP JUMPDEST POP PUSH1 0x14 SLOAD PUSH1 0x19 SLOAD PUSH1 0x1 PUSH1 0x1 PUSH1 0xA0 SHL SUB SWAP2 DUP3 AND SWAP2 PUSH4 0x7D533C1E SWAP2 AND CALLER PUSH1 0x19 SLOAD PUSH1 0x40 MLOAD PUSH4 0x70A08231 PUSH1 0xE0 SHL DUP2 MSTORE ADDRESS PUSH1 0x4 DUP3 ADD MSTORE PUSH1 0x1 PUSH1 0x1 PUSH1 0xA0 SHL SUB SWAP1 SWAP2 AND SWAP1 PUSH4 0x70A08231 SWAP1 PUSH1 0x24 ADD PUSH1 0x20 PUSH1 0x40 MLOAD DUP1 DUP4 SUB DUP2 DUP7 DUP1 EXTCODESIZE ISZERO DUP1 ISZERO PUSH2 0x2EC0 JUMPI PUSH1 0x0 DUP1 REVERT JUMPDEST POP GAS STATICCALL ISZERO DUP1 ISZERO PUSH2 0x2ED4 JUMPI RETURNDATASIZE PUSH1 0x0 DUP1 RETURNDATACOPY RETURNDATASIZE PUSH1 0x0 REVERT JUMPDEST POP POP POP POP PUSH1 0x40 MLOAD RETURNDATASIZE PUSH1 0x1F NOT PUSH1 0x1F DUP3 ADD AND DUP3 ADD DUP1 PUSH1 0x40 MSTORE POP DUP2 ADD SWAP1 PUSH2 0x2EF8 SWAP2 SWAP1 PUSH2 0x4919 JUMP JUMPDEST PUSH1 0x1E SLOAD PUSH2 0x2F05 SWAP1 TIMESTAMP PUSH2 0x4CA0 JUMP JUMPDEST PUSH1 0x40 MLOAD PUSH1 0x1 PUSH1 0x1 PUSH1 0xE0 SHL SUB NOT PUSH1 0xE0 DUP8 SWAP1 SHL AND DUP2 MSTORE PUSH1 0x1 PUSH1 0x1 PUSH1 0xA0 SHL SUB SWAP5 DUP6 AND PUSH1 0x4 DUP3 ADD MSTORE SWAP4 SWAP1 SWAP3 AND PUSH1 0x24 DUP5 ADD MSTORE PUSH1 0x44 DUP4 ADD MSTORE PUSH1 0x64 DUP3 ADD MSTORE PUSH1 0x84 ADD PUSH1 0x20 PUSH1 0x40 MLOAD DUP1 DUP4 SUB DUP2 PUSH1 0x0 DUP8 DUP1 EXTCODESIZE ISZERO DUP1 ISZERO PUSH2 0x2F59 JUMPI PUSH1 0x0 DUP1 REVERT JUMPDEST POP GAS CALL ISZERO DUP1 ISZERO PUSH2 0x2F6D JUMPI RETURNDATASIZE PUSH1 0x0 DUP1 RETURNDATACOPY RETURNDATASIZE PUSH1 0x0 REVERT JUMPDEST POP POP POP POP PUSH1 0x40 MLOAD RETURNDATASIZE PUSH1 0x1F NOT PUSH1 0x1F DUP3 ADD AND DUP3 ADD DUP1 PUSH1 0x40 MSTORE POP DUP2 ADD SWAP1 PUSH2 0x2F91 SWAP2 SWAP1 PUSH2 0x4919 JUMP JUMPDEST POP JUMPDEST PUSH1 0x13 SLOAD PUSH1 0x11 SLOAD PUSH1 0x1 PUSH1 0x1 PUSH1 0xA0 SHL SUB SWAP1 SWAP2 AND SWAP1 PUSH4 0xBB9FF5D SWAP1 ADDRESS SWAP1 PUSH2 0x2FB8 SWAP1 DUP8 SWAP1 PUSH2 0x4DE2 JUMP JUMPDEST PUSH1 0x40 MLOAD PUSH1 0x1 PUSH1 0x1 PUSH1 0xE0 SHL SUB NOT PUSH1 0xE0 DUP6 SWAP1 SHL AND DUP2 MSTORE PUSH1 0x1 PUSH1 0x1 PUSH1 0xA0 SHL SUB SWAP1 SWAP3 AND PUSH1 0x4 DUP4 ADD MSTORE PUSH1 0x24 DUP3 ADD MSTORE PUSH1 0x44 ADD PUSH1 0x0 PUSH1 0x40 MLOAD DUP1 DUP4 SUB DUP2 PUSH1 0x0 DUP8 DUP1 EXTCODESIZE ISZERO DUP1 ISZERO PUSH2 0x2FFE JUMPI PUSH1 0x0 DUP1 REVERT JUMPDEST POP GAS CALL ISZERO DUP1 ISZERO PUSH2 0x3012 JUMPI RETURNDATASIZE PUSH1 0x0 DUP1 RETURNDATACOPY RETURNDATASIZE PUSH1 0x0 REVERT JUMPDEST POP POP POP POP PUSH2 0x3020 PUSH1 0x4 PUSH2 0x3B42 JUMP JUMPDEST POP POP POP POP POP POP POP JUMP JUMPDEST PUSH1 0x0 DUP1 PUSH1 0x0 JUMPDEST PUSH1 0xA SLOAD DUP2 LT ISZERO PUSH2 0x308B JUMPI PUSH1 0xA DUP2 DUP2 SLOAD DUP2 LT PUSH2 0x305A JUMPI PUSH4 0x4E487B71 PUSH1 0xE0 SHL PUSH1 0x0 MSTORE PUSH1 0x32 PUSH1 0x4 MSTORE PUSH1 0x24 PUSH1 0x0 REVERT JUMPDEST SWAP1 PUSH1 0x0 MSTORE PUSH1 0x20 PUSH1 0x0 KECCAK256 SWAP1 PUSH1 0x5 MUL ADD PUSH1 0x2 ADD SLOAD DUP3 PUSH2 0x3077 SWAP2 SWAP1 PUSH2 0x4CA0 JUMP JUMPDEST SWAP2 POP DUP1 PUSH2 0x3083 DUP2 PUSH2 0x4F8C JUMP JUMPDEST SWAP2 POP POP PUSH2 0x302F JUMP JUMPDEST POP PUSH1 0xB SLOAD PUSH2 0x309D PUSH3 0xF4240 PUSH1 0x2 PUSH2 0x4DC3 JUMP JUMPDEST PUSH2 0x30A7 SWAP2 SWAP1 PUSH2 0x4CA0 JUMP JUMPDEST PUSH2 0x30B4 DUP3 PUSH3 0xF4240 PUSH2 0x4DE2 JUMP JUMPDEST PUSH2 0x30C1 SWAP1 PUSH3 0xF4240 PUSH2 0x4DC3 JUMP JUMPDEST PUSH2 0x30CB SWAP2 SWAP1 PUSH2 0x4CB8 JUMP JUMPDEST SWAP2 POP POP SWAP1 JUMP JUMPDEST PUSH1 0x40 DUP1 MLOAD DUP1 DUP3 ADD SWAP1 SWAP2 MSTORE PUSH1 0x0 DUP1 DUP3 MSTORE PUSH1 0x20 DUP3 ADD MSTORE PUSH1 0x1 PUSH1 0x1 PUSH1 0xA0 SHL SUB DUP3 AND PUSH1 0x0 SWAP1 DUP2 MSTORE PUSH1 0x7 PUSH1 0x20 MSTORE PUSH1 0x40 SWAP1 KECCAK256 SLOAD PUSH1 0x8 SWAP1 PUSH2 0x310D SWAP1 PUSH1 0x1 SWAP1 PUSH2 0x4DE2 JUMP JUMPDEST DUP2 SLOAD DUP2 LT PUSH2 0x1E36 JUMPI PUSH4 0x4E487B71 PUSH1 0xE0 SHL PUSH1 0x0 MSTORE PUSH1 0x32 PUSH1 0x4 MSTORE PUSH1 0x24 PUSH1 0x0 REVERT JUMPDEST PUSH1 0x1B DUP1 SLOAD PUSH2 0x1D80 SWAP1 PUSH2 0x4F51 JUMP JUMPDEST PUSH1 0x0 PUSH2 0x3144 DUP2 CALLER PUSH2 0x3AC4 JUMP JUMPDEST PUSH1 0x0 JUMPDEST PUSH1 0x8 SLOAD DUP2 LT ISZERO PUSH2 0x324F JUMPI PUSH1 0x1 PUSH1 0x6 PUSH1 0x1 PUSH1 0x5 PUSH1 0x0 PUSH1 0x8 DUP7 DUP2 SLOAD DUP2 LT PUSH2 0x317C JUMPI PUSH4 0x4E487B71 PUSH1 0xE0 SHL PUSH1 0x0 MSTORE PUSH1 0x32 PUSH1 0x4 MSTORE PUSH1 0x24 PUSH1 0x0 REVERT JUMPDEST PUSH1 0x0 SWAP2 DUP3 MSTORE PUSH1 0x20 DUP1 DUP4 KECCAK256 PUSH1 0x2 SWAP1 SWAP3 MUL SWAP1 SWAP2 ADD SLOAD PUSH1 0x1 PUSH1 0x1 PUSH1 0xA0 SHL SUB AND DUP4 MSTORE DUP3 ADD SWAP3 SWAP1 SWAP3 MSTORE PUSH1 0x40 ADD SWAP1 KECCAK256 SLOAD PUSH2 0x31B0 SWAP2 SWAP1 PUSH2 0x4DE2 JUMP JUMPDEST DUP2 SLOAD DUP2 LT PUSH2 0x31CE JUMPI PUSH4 0x4E487B71 PUSH1 0xE0 SHL PUSH1 0x0 MSTORE PUSH1 0x32 PUSH1 0x4 MSTORE PUSH1 0x24 PUSH1 0x0 REVERT JUMPDEST SWAP1 PUSH1 0x0 MSTORE PUSH1 0x20 PUSH1 0x0 KECCAK256 SWAP1 PUSH1 0x5 MUL ADD PUSH1 0x1 ADD SLOAD GT PUSH2 0x323D JUMPI PUSH1 0x40 MLOAD PUSH3 0x461BCD PUSH1 0xE5 SHL DUP2 MSTORE PUSH1 0x20 PUSH1 0x4 DUP3 ADD MSTORE PUSH1 0x27 PUSH1 0x24 DUP3 ADD MSTORE PUSH32 0x50523A204E6F7420616C6C20696E766573746F7227732076657374696E672077 PUSH1 0x44 DUP3 ADD MSTORE PUSH7 0x61732073657421 PUSH1 0xC8 SHL PUSH1 0x64 DUP3 ADD MSTORE PUSH1 0x84 ADD PUSH2 0xE24 JUMP JUMPDEST DUP1 PUSH2 0x3247 DUP2 PUSH2 0x4F8C JUMP JUMPDEST SWAP2 POP POP PUSH2 0x3147 JUMP JUMPDEST POP PUSH1 0x0 JUMPDEST PUSH1 0x4 SLOAD DUP2 LT ISZERO PUSH2 0x335B JUMPI PUSH1 0x1 PUSH1 0x6 PUSH1 0x1 PUSH1 0x5 PUSH1 0x0 PUSH1 0x4 DUP7 DUP2 SLOAD DUP2 LT PUSH2 0x3288 JUMPI PUSH4 0x4E487B71 PUSH1 0xE0 SHL PUSH1 0x0 MSTORE PUSH1 0x32 PUSH1 0x4 MSTORE PUSH1 0x24 PUSH1 0x0 REVERT JUMPDEST PUSH1 0x0 SWAP2 DUP3 MSTORE PUSH1 0x20 DUP1 DUP4 KECCAK256 PUSH1 0x3 SWAP1 SWAP3 MUL SWAP1 SWAP2 ADD SLOAD PUSH1 0x1 PUSH1 0x1 PUSH1 0xA0 SHL SUB AND DUP4 MSTORE DUP3 ADD SWAP3 SWAP1 SWAP3 MSTORE PUSH1 0x40 ADD SWAP1 KECCAK256 SLOAD PUSH2 0x32BC SWAP2 SWAP1 PUSH2 0x4DE2 JUMP JUMPDEST DUP2 SLOAD DUP2 LT PUSH2 0x32DA JUMPI PUSH4 0x4E487B71 PUSH1 0xE0 SHL PUSH1 0x0 MSTORE PUSH1 0x32 PUSH1 0x4 MSTORE PUSH1 0x24 PUSH1 0x0 REVERT JUMPDEST SWAP1 PUSH1 0x0 MSTORE PUSH1 0x20 PUSH1 0x0 KECCAK256 SWAP1 PUSH1 0x5 MUL ADD PUSH1 0x1 ADD SLOAD GT PUSH2 0x3349 JUMPI PUSH1 0x40 MLOAD PUSH3 0x461BCD PUSH1 0xE5 SHL DUP2 MSTORE PUSH1 0x20 PUSH1 0x4 DUP3 ADD MSTORE PUSH1 0x27 PUSH1 0x24 DUP3 ADD MSTORE PUSH32 0x50523A204E6F7420616C6C20696E766573746F7227732076657374696E672077 PUSH1 0x44 DUP3 ADD MSTORE PUSH7 0x61732073657421 PUSH1 0xC8 SHL PUSH1 0x64 DUP3 ADD MSTORE PUSH1 0x84 ADD PUSH2 0xE24 JUMP JUMPDEST DUP1 PUSH2 0x3353 DUP2 PUSH2 0x4F8C JUMP JUMPDEST SWAP2 POP POP PUSH2 0x3253 JUMP JUMPDEST POP PUSH2 0x1303 PUSH1 0x6 PUSH2 0x3B42 JUMP JUMPDEST PUSH1 0x0 DUP2 DUP2 MSTORE PUSH1 0x1 PUSH1 0x20 MSTORE PUSH1 0x40 DUP2 KECCAK256 PUSH2 0x1344 SWAP1 PUSH2 0x4054 JUMP JUMPDEST PUSH2 0x1C47 DUP3 DUP3 PUSH2 0x405E JUMP JUMPDEST PUSH1 0x0 PUSH2 0x3393 DUP2 CALLER PUSH2 0x3AC4 JUMP JUMPDEST PUSH2 0x339F PUSH1 0xA PUSH1 0x0 PUSH2 0x46B5 JUMP JUMPDEST PUSH1 0x0 JUMPDEST DUP3 DUP2 LT ISZERO PUSH2 0x13DD JUMPI PUSH1 0xA DUP5 DUP5 DUP4 DUP2 DUP2 LT PUSH2 0x33CC JUMPI PUSH4 0x4E487B71 PUSH1 0xE0 SHL PUSH1 0x0 MSTORE PUSH1 0x32 PUSH1 0x4 MSTORE PUSH1 0x24 PUSH1 0x0 REVERT JUMPDEST SWAP1 POP PUSH1 0x20 MUL DUP2 ADD SWAP1 PUSH2 0x33DE SWAP2 SWAP1 PUSH2 0x4C81 JUMP JUMPDEST DUP2 SLOAD PUSH1 0x1 DUP2 ADD DUP4 SSTORE PUSH1 0x0 SWAP3 DUP4 MSTORE PUSH1 0x20 SWAP1 SWAP3 KECCAK256 SWAP1 SWAP2 PUSH1 0x5 MUL ADD PUSH2 0x3400 DUP3 DUP3 PUSH2 0x4FD3 JUMP JUMPDEST POP POP DUP1 DUP1 PUSH2 0x340D SWAP1 PUSH2 0x4F8C JUMP JUMPDEST SWAP2 POP POP PUSH2 0x33A2 JUMP JUMPDEST PUSH1 0x1D DUP1 SLOAD PUSH2 0x1D80 SWAP1 PUSH2 0x4F51 JUMP JUMPDEST PUSH1 0x60 DUP3 PUSH1 0x0 PUSH2 0x3431 DUP5 DUP4 PUSH2 0x4CA0 JUMP JUMPDEST PUSH1 0x8 SLOAD SWAP1 SWAP2 POP DUP2 GT PUSH2 0x3443 JUMPI DUP1 PUSH2 0x3447 JUMP JUMPDEST PUSH1 0x8 SLOAD JUMPDEST SWAP1 POP PUSH1 0x0 DUP3 DUP3 GT PUSH2 0x3459 JUMPI PUSH1 0x0 PUSH2 0x3463 JUMP JUMPDEST PUSH2 0x3463 DUP4 DUP4 PUSH2 0x4DE2 JUMP JUMPDEST SWAP1 POP PUSH1 0x0 DUP2 PUSH8 0xFFFFFFFFFFFFFFFF DUP2 GT ISZERO PUSH2 0x348E JUMPI PUSH4 0x4E487B71 PUSH1 0xE0 SHL PUSH1 0x0 MSTORE PUSH1 0x41 PUSH1 0x4 MSTORE PUSH1 0x24 PUSH1 0x0 REVERT JUMPDEST PUSH1 0x40 MLOAD SWAP1 DUP1 DUP3 MSTORE DUP1 PUSH1 0x20 MUL PUSH1 0x20 ADD DUP3 ADD PUSH1 0x40 MSTORE DUP1 ISZERO PUSH2 0x34D3 JUMPI DUP2 PUSH1 0x20 ADD JUMPDEST PUSH1 0x40 DUP1 MLOAD DUP1 DUP3 ADD SWAP1 SWAP2 MSTORE PUSH1 0x0 DUP1 DUP3 MSTORE PUSH1 0x20 DUP3 ADD MSTORE DUP2 MSTORE PUSH1 0x20 ADD SWAP1 PUSH1 0x1 SWAP1 SUB SWAP1 DUP2 PUSH2 0x34AC JUMPI SWAP1 POP JUMPDEST POP SWAP1 POP DUP4 JUMPDEST DUP4 DUP2 LT ISZERO PUSH2 0x23B0 JUMPI PUSH1 0x8 DUP2 DUP2 SLOAD DUP2 LT PUSH2 0x3501 JUMPI PUSH4 0x4E487B71 PUSH1 0xE0 SHL PUSH1 0x0 MSTORE PUSH1 0x32 PUSH1 0x4 MSTORE PUSH1 0x24 PUSH1 0x0 REVERT JUMPDEST PUSH1 0x0 SWAP2 DUP3 MSTORE PUSH1 0x20 SWAP2 DUP3 SWAP1 KECCAK256 PUSH1 0x40 DUP1 MLOAD DUP1 DUP3 ADD SWAP1 SWAP2 MSTORE PUSH1 0x2 SWAP1 SWAP3 MUL ADD DUP1 SLOAD PUSH1 0x1 PUSH1 0x1 PUSH1 0xA0 SHL SUB AND DUP3 MSTORE PUSH1 0x1 ADD SLOAD SWAP2 DUP2 ADD SWAP2 SWAP1 SWAP2 MSTORE DUP3 PUSH2 0x353F DUP8 DUP5 PUSH2 0x4DE2 JUMP JUMPDEST DUP2 MLOAD DUP2 LT PUSH2 0x355D JUMPI PUSH4 0x4E487B71 PUSH1 0xE0 SHL PUSH1 0x0 MSTORE PUSH1 0x32 PUSH1 0x4 MSTORE PUSH1 0x24 PUSH1 0x0 REVERT JUMPDEST PUSH1 0x20 MUL PUSH1 0x20 ADD ADD DUP2 SWAP1 MSTORE POP DUP1 DUP1 PUSH2 0x3573 SWAP1 PUSH2 0x4F8C JUMP JUMPDEST SWAP2 POP POP PUSH2 0x34D8 JUMP JUMPDEST PUSH1 0x0 PUSH2 0x3587 DUP2 CALLER PUSH2 0x3AC4 JUMP JUMPDEST POP PUSH1 0xD SWAP3 SWAP1 SWAP3 SSTORE PUSH1 0xE SSTORE PUSH1 0xF SSTORE JUMP JUMPDEST PUSH1 0x60 PUSH1 0x0 PUSH2 0x35A2 PUSH2 0x3029 JUMP JUMPDEST PUSH1 0xA SLOAD SWAP1 SWAP2 POP PUSH1 0x0 SWAP1 PUSH2 0x35B6 SWAP1 PUSH1 0x3 PUSH2 0x4CA0 JUMP JUMPDEST PUSH8 0xFFFFFFFFFFFFFFFF DUP2 GT ISZERO PUSH2 0x35DC JUMPI PUSH4 0x4E487B71 PUSH1 0xE0 SHL PUSH1 0x0 MSTORE PUSH1 0x41 PUSH1 0x4 MSTORE PUSH1 0x24 PUSH1 0x0 REVERT JUMPDEST PUSH1 0x40 MLOAD SWAP1 DUP1 DUP3 MSTORE DUP1 PUSH1 0x20 MUL PUSH1 0x20 ADD DUP3 ADD PUSH1 0x40 MSTORE DUP1 ISZERO PUSH2 0x3648 JUMPI DUP2 PUSH1 0x20 ADD JUMPDEST PUSH2 0x3635 PUSH1 0x40 MLOAD DUP1 PUSH1 0xA0 ADD PUSH1 0x40 MSTORE DUP1 PUSH1 0x0 PUSH1 0x1 PUSH1 0x1 PUSH1 0xA0 SHL SUB AND DUP2 MSTORE PUSH1 0x20 ADD PUSH1 0x60 DUP2 MSTORE PUSH1 0x20 ADD PUSH1 0x0 DUP2 MSTORE PUSH1 0x20 ADD PUSH1 0x0 DUP2 MSTORE PUSH1 0x20 ADD PUSH1 0x0 DUP2 MSTORE POP SWAP1 JUMP JUMPDEST DUP2 MSTORE PUSH1 0x20 ADD SWAP1 PUSH1 0x1 SWAP1 SUB SWAP1 DUP2 PUSH2 0x35FA JUMPI SWAP1 POP JUMPDEST POP SWAP1 POP PUSH1 0x40 MLOAD DUP1 PUSH1 0xA0 ADD PUSH1 0x40 MSTORE DUP1 PUSH1 0x1 PUSH1 0x1 PUSH1 0x1 PUSH1 0xA0 SHL SUB AND DUP2 MSTORE PUSH1 0x20 ADD PUSH1 0x40 MLOAD DUP1 PUSH1 0x40 ADD PUSH1 0x40 MSTORE DUP1 PUSH1 0x9 DUP2 MSTORE PUSH1 0x20 ADD PUSH32 0x4C69717569646974790000000000000000000000000000000000000000000000 DUP2 MSTORE POP DUP2 MSTORE PUSH1 0x20 ADD DUP4 DUP2 MSTORE PUSH1 0x20 ADD PUSH1 0x1E SLOAD DUP2 MSTORE PUSH1 0x20 ADD PUSH1 0x0 DUP2 MSTORE POP DUP2 PUSH1 0x0 DUP2 MLOAD DUP2 LT PUSH2 0x36D5 JUMPI PUSH4 0x4E487B71 PUSH1 0xE0 SHL PUSH1 0x0 MSTORE PUSH1 0x32 PUSH1 0x4 MSTORE PUSH1 0x24 PUSH1 0x0 REVERT JUMPDEST PUSH1 0x20 MUL PUSH1 0x20 ADD ADD DUP2 SWAP1 MSTORE POP PUSH1 0x40 MLOAD DUP1 PUSH1 0xA0 ADD PUSH1 0x40 MSTORE DUP1 PUSH1 0x2 PUSH1 0x1 PUSH1 0x1 PUSH1 0xA0 SHL SUB AND DUP2 MSTORE PUSH1 0x20 ADD PUSH1 0x40 MLOAD DUP1 PUSH1 0x40 ADD PUSH1 0x40 MSTORE DUP1 PUSH1 0x7 DUP2 MSTORE PUSH1 0x20 ADD PUSH32 0x50726573616C6500000000000000000000000000000000000000000000000000 DUP2 MSTORE POP DUP2 MSTORE PUSH1 0x20 ADD DUP4 DUP2 MSTORE PUSH1 0x20 ADD PUSH1 0x1F SLOAD DUP2 MSTORE PUSH1 0x20 ADD PUSH1 0x20 SLOAD DUP2 MSTORE POP DUP2 PUSH1 0x1 DUP2 MLOAD DUP2 LT PUSH2 0x376B JUMPI PUSH4 0x4E487B71 PUSH1 0xE0 SHL PUSH1 0x0 MSTORE PUSH1 0x32 PUSH1 0x4 MSTORE PUSH1 0x24 PUSH1 0x0 REVERT JUMPDEST PUSH1 0x20 MUL PUSH1 0x20 ADD ADD DUP2 SWAP1 MSTORE POP PUSH1 0x40 MLOAD DUP1 PUSH1 0xA0 ADD PUSH1 0x40 MSTORE DUP1 PUSH1 0x3 PUSH1 0x1 PUSH1 0x1 PUSH1 0xA0 SHL SUB AND DUP2 MSTORE PUSH1 0x20 ADD PUSH1 0x40 MLOAD DUP1 PUSH1 0x40 ADD PUSH1 0x40 MSTORE DUP1 PUSH1 0x9 DUP2 MSTORE PUSH1 0x20 ADD PUSH32 0x526566657272616C730000000000000000000000000000000000000000000000 DUP2 MSTORE POP DUP2 MSTORE PUSH1 0x20 ADD PUSH3 0xF4240 PUSH1 0xB SLOAD DUP6 PUSH2 0x37DE SWAP2 SWAP1 PUSH2 0x4DC3 JUMP JUMPDEST PUSH2 0x37E8 SWAP2 SWAP1 PUSH2 0x4CB8 JUMP JUMPDEST DUP2 MSTORE PUSH1 0x20 ADD PUSH1 0x21 SLOAD DUP2 MSTORE PUSH1 0x20 ADD PUSH1 0x22 SLOAD DUP2 MSTORE POP DUP2 PUSH1 0x2 DUP2 MLOAD DUP2 LT PUSH2 0x381C JUMPI PUSH4 0x4E487B71 PUSH1 0xE0 SHL PUSH1 0x0 MSTORE PUSH1 0x32 PUSH1 0x4 MSTORE PUSH1 0x24 PUSH1 0x0 REVERT JUMPDEST PUSH1 0x20 MUL PUSH1 0x20 ADD ADD DUP2 SWAP1 MSTORE POP PUSH1 0x0 JUMPDEST PUSH1 0xA SLOAD DUP2 LT ISZERO PUSH2 0x397F JUMPI PUSH1 0xA DUP2 DUP2 SLOAD DUP2 LT PUSH2 0x3855 JUMPI PUSH4 0x4E487B71 PUSH1 0xE0 SHL PUSH1 0x0 MSTORE PUSH1 0x32 PUSH1 0x4 MSTORE PUSH1 0x24 PUSH1 0x0 REVERT JUMPDEST PUSH1 0x0 SWAP2 DUP3 MSTORE PUSH1 0x20 SWAP2 DUP3 SWAP1 KECCAK256 PUSH1 0x40 DUP1 MLOAD PUSH1 0xA0 DUP2 ADD SWAP1 SWAP2 MSTORE PUSH1 0x5 SWAP1 SWAP3 MUL ADD DUP1 SLOAD PUSH1 0x1 PUSH1 0x1 PUSH1 0xA0 SHL SUB AND DUP3 MSTORE PUSH1 0x1 DUP2 ADD DUP1 SLOAD SWAP3 SWAP4 SWAP2 SWAP3 SWAP2 DUP5 ADD SWAP2 PUSH2 0x3895 SWAP1 PUSH2 0x4F51 JUMP JUMPDEST DUP1 PUSH1 0x1F ADD PUSH1 0x20 DUP1 SWAP2 DIV MUL PUSH1 0x20 ADD PUSH1 0x40 MLOAD SWAP1 DUP2 ADD PUSH1 0x40 MSTORE DUP1 SWAP3 SWAP2 SWAP1 DUP2 DUP2 MSTORE PUSH1 0x20 ADD DUP3 DUP1 SLOAD PUSH2 0x38C1 SWAP1 PUSH2 0x4F51 JUMP JUMPDEST DUP1 ISZERO PUSH2 0x390E JUMPI DUP1 PUSH1 0x1F LT PUSH2 0x38E3 JUMPI PUSH2 0x100 DUP1 DUP4 SLOAD DIV MUL DUP4 MSTORE SWAP2 PUSH1 0x20 ADD SWAP2 PUSH2 0x390E JUMP JUMPDEST DUP3 ADD SWAP2 SWAP1 PUSH1 0x0 MSTORE PUSH1 0x20 PUSH1 0x0 KECCAK256 SWAP1 JUMPDEST DUP2 SLOAD DUP2 MSTORE SWAP1 PUSH1 0x1 ADD SWAP1 PUSH1 0x20 ADD DUP1 DUP4 GT PUSH2 0x38F1 JUMPI DUP3 SWAP1 SUB PUSH1 0x1F AND DUP3 ADD SWAP2 JUMPDEST POP POP POP POP POP DUP2 MSTORE PUSH1 0x20 ADD PUSH1 0x2 DUP3 ADD SLOAD DUP2 MSTORE PUSH1 0x20 ADD PUSH1 0x3 DUP3 ADD SLOAD DUP2 MSTORE PUSH1 0x20 ADD PUSH1 0x4 DUP3 ADD SLOAD DUP2 MSTORE POP POP DUP3 DUP3 PUSH1 0x3 PUSH2 0x3943 SWAP2 SWAP1 PUSH2 0x4CA0 JUMP JUMPDEST DUP2 MLOAD DUP2 LT PUSH2 0x3961 JUMPI PUSH4 0x4E487B71 PUSH1 0xE0 SHL PUSH1 0x0 MSTORE PUSH1 0x32 PUSH1 0x4 MSTORE PUSH1 0x24 PUSH1 0x0 REVERT JUMPDEST PUSH1 0x20 MUL PUSH1 0x20 ADD ADD DUP2 SWAP1 MSTORE POP DUP1 DUP1 PUSH2 0x3977 SWAP1 PUSH2 0x4F8C JUMP JUMPDEST SWAP2 POP POP PUSH2 0x382A JUMP JUMPDEST POP PUSH1 0xA DUP1 SLOAD DUP1 PUSH1 0x20 MUL PUSH1 0x20 ADD PUSH1 0x40 MLOAD SWAP1 DUP2 ADD PUSH1 0x40 MSTORE DUP1 SWAP3 SWAP2 SWAP1 DUP2 DUP2 MSTORE PUSH1 0x20 ADD PUSH1 0x0 SWAP1 JUMPDEST DUP3 DUP3 LT ISZERO PUSH2 0x3A9A JUMPI PUSH1 0x0 DUP5 DUP2 MSTORE PUSH1 0x20 SWAP1 DUP2 SWAP1 KECCAK256 PUSH1 0x40 DUP1 MLOAD PUSH1 0xA0 DUP2 ADD SWAP1 SWAP2 MSTORE PUSH1 0x5 DUP6 MUL SWAP1 SWAP2 ADD DUP1 SLOAD PUSH1 0x1 PUSH1 0x1 PUSH1 0xA0 SHL SUB AND DUP3 MSTORE PUSH1 0x1 DUP2 ADD DUP1 SLOAD SWAP3 SWAP4 SWAP2 SWAP3 SWAP2 DUP5 ADD SWAP2 PUSH2 0x39EB SWAP1 PUSH2 0x4F51 JUMP JUMPDEST DUP1 PUSH1 0x1F ADD PUSH1 0x20 DUP1 SWAP2 DIV MUL PUSH1 0x20 ADD PUSH1 0x40 MLOAD SWAP1 DUP2 ADD PUSH1 0x40 MSTORE DUP1 SWAP3 SWAP2 SWAP1 DUP2 DUP2 MSTORE PUSH1 0x20 ADD DUP3 DUP1 SLOAD PUSH2 0x3A17 SWAP1 PUSH2 0x4F51 JUMP JUMPDEST DUP1 ISZERO PUSH2 0x3A64 JUMPI DUP1 PUSH1 0x1F LT PUSH2 0x3A39 JUMPI PUSH2 0x100 DUP1 DUP4 SLOAD DIV MUL DUP4 MSTORE SWAP2 PUSH1 0x20 ADD SWAP2 PUSH2 0x3A64 JUMP JUMPDEST DUP3 ADD SWAP2 SWAP1 PUSH1 0x0 MSTORE PUSH1 0x20 PUSH1 0x0 KECCAK256 SWAP1 JUMPDEST DUP2 SLOAD DUP2 MSTORE SWAP1 PUSH1 0x1 ADD SWAP1 PUSH1 0x20 ADD DUP1 DUP4 GT PUSH2 0x3A47 JUMPI DUP3 SWAP1 SUB PUSH1 0x1F AND DUP3 ADD SWAP2 JUMPDEST POP POP POP POP POP DUP2 MSTORE PUSH1 0x20 ADD PUSH1 0x2 DUP3 ADD SLOAD DUP2 MSTORE PUSH1 0x20 ADD PUSH1 0x3 DUP3 ADD SLOAD DUP2 MSTORE PUSH1 0x20 ADD PUSH1 0x4 DUP3 ADD SLOAD DUP2 MSTORE POP POP DUP2 MSTORE PUSH1 0x20 ADD SWAP1 PUSH1 0x1 ADD SWAP1 PUSH2 0x39A2 JUMP JUMPDEST POP POP POP POP SWAP3 POP POP POP SWAP1 JUMP JUMPDEST PUSH2 0x2011 DUP3 DUP3 PUSH2 0x4084 JUMP JUMPDEST PUSH1 0x0 PUSH2 0x23D3 DUP4 PUSH1 0x1 PUSH1 0x1 PUSH1 0xA0 SHL SUB DUP5 AND PUSH2 0x4122 JUMP JUMPDEST PUSH1 0x0 DUP3 DUP2 MSTORE PUSH1 0x20 DUP2 DUP2 MSTORE PUSH1 0x40 DUP1 DUP4 KECCAK256 PUSH1 0x1 PUSH1 0x1 PUSH1 0xA0 SHL SUB DUP6 AND DUP5 MSTORE SWAP1 SWAP2 MSTORE SWAP1 KECCAK256 SLOAD PUSH1 0xFF AND PUSH2 0x2011 JUMPI PUSH2 0x3B00 DUP2 PUSH1 0x1 PUSH1 0x1 PUSH1 0xA0 SHL SUB AND PUSH1 0x14 PUSH2 0x4171 JUMP JUMPDEST PUSH2 0x3B0B DUP4 PUSH1 0x20 PUSH2 0x4171 JUMP JUMPDEST PUSH1 0x40 MLOAD PUSH1 0x20 ADD PUSH2 0x3B1C SWAP3 SWAP2 SWAP1 PUSH2 0x49C8 JUMP JUMPDEST PUSH1 0x40 DUP1 MLOAD PUSH1 0x1F NOT DUP2 DUP5 SUB ADD DUP2 MSTORE SWAP1 DUP3 SWAP1 MSTORE PUSH3 0x461BCD PUSH1 0xE5 SHL DUP3 MSTORE PUSH2 0xE24 SWAP2 PUSH1 0x4 ADD PUSH2 0x4C1F JUMP JUMPDEST PUSH1 0x2 DUP1 SLOAD DUP3 SWAP2 SWAP1 PUSH1 0xFF NOT AND PUSH1 0x1 DUP4 PUSH1 0x7 DUP2 GT ISZERO PUSH2 0x3B6F JUMPI PUSH4 0x4E487B71 PUSH1 0xE0 SHL PUSH1 0x0 MSTORE PUSH1 0x21 PUSH1 0x4 MSTORE PUSH1 0x24 PUSH1 0x0 REVERT JUMPDEST MUL OR SWAP1 SSTORE POP PUSH32 0x551DC40198CC79684BB69E4931DBA4AC16E4598792EE1C0A5000AEEA366D7BB6 DUP2 PUSH1 0x40 MLOAD PUSH2 0x3BA3 SWAP2 SWAP1 PUSH2 0x4BF7 JUMP JUMPDEST PUSH1 0x40 MLOAD DUP1 SWAP2 SUB SWAP1 LOG1 POP JUMP JUMPDEST PUSH1 0x0 PUSH1 0x1 PUSH1 0x1 PUSH1 0xE0 SHL SUB NOT DUP3 AND PUSH32 0x7965DB0B00000000000000000000000000000000000000000000000000000000 EQ DUP1 PUSH2 0x1344 JUMPI POP PUSH32 0x1FFC9A700000000000000000000000000000000000000000000000000000000 PUSH1 0x1 PUSH1 0x1 PUSH1 0xE0 SHL SUB NOT DUP4 AND EQ PUSH2 0x1344 JUMP JUMPDEST PUSH2 0x1BD5 DUP3 DUP3 PUSH2 0x3AA5 JUMP JUMPDEST PUSH1 0x1 PUSH1 0x1 PUSH1 0xA0 SHL SUB DUP4 AND PUSH1 0x0 SWAP1 DUP2 MSTORE PUSH1 0x3 PUSH1 0x20 MSTORE PUSH1 0x40 SWAP1 KECCAK256 SLOAD PUSH2 0x3D1F JUMPI PUSH1 0x40 DUP1 MLOAD PUSH1 0x60 DUP2 ADD DUP3 MSTORE PUSH1 0x1 PUSH1 0x1 PUSH1 0xA0 SHL SUB DUP1 DUP7 AND DUP1 DUP4 MSTORE DUP6 DUP3 AND PUSH1 0x20 DUP1 DUP6 ADD SWAP2 DUP3 MSTORE DUP5 DUP7 ADD DUP8 DUP2 MSTORE PUSH1 0x4 DUP1 SLOAD PUSH1 0x1 DUP2 ADD DUP3 SSTORE PUSH1 0x0 DUP3 DUP2 MSTORE SWAP8 MLOAD PUSH1 0x3 SWAP2 DUP3 MUL PUSH32 0x8A35ACFBC15FF81A39AE7D344FD709F28E8600B4AA8C65C6B64BFE7FE36BD19B DUP2 ADD DUP1 SLOAD SWAP3 DUP11 AND PUSH1 0x1 PUSH1 0x1 PUSH1 0xA0 SHL SUB NOT SWAP4 DUP5 AND OR SWAP1 SSTORE SWAP6 MLOAD PUSH32 0x8A35ACFBC15FF81A39AE7D344FD709F28E8600B4AA8C65C6B64BFE7FE36BD19C DUP8 ADD DUP1 SLOAD SWAP2 SWAP1 SWAP10 AND SWAP2 AND OR SWAP1 SWAP7 SSTORE SWAP1 MLOAD PUSH32 0x8A35ACFBC15FF81A39AE7D344FD709F28E8600B4AA8C65C6B64BFE7FE36BD19D SWAP1 SWAP4 ADD SWAP3 SWAP1 SWAP3 SSTORE SWAP1 SLOAD SWAP2 DUP5 MSTORE SWAP2 SWAP1 SWAP2 MSTORE SWAP2 SWAP1 KECCAK256 SSTORE PUSH2 0x3E36 JUMP JUMPDEST PUSH1 0x1 PUSH1 0x1 PUSH1 0xA0 SHL SUB DUP4 AND PUSH1 0x0 SWAP1 DUP2 MSTORE PUSH1 0x3 PUSH1 0x20 MSTORE PUSH1 0x40 DUP2 KECCAK256 SLOAD DUP3 SWAP1 PUSH1 0x4 SWAP1 PUSH2 0x3D49 SWAP1 PUSH1 0x1 SWAP1 PUSH2 0x4DE2 JUMP JUMPDEST DUP2 SLOAD DUP2 LT PUSH2 0x3D67 JUMPI PUSH4 0x4E487B71 PUSH1 0xE0 SHL PUSH1 0x0 MSTORE PUSH1 0x32 PUSH1 0x4 MSTORE PUSH1 0x24 PUSH1 0x0 REVERT JUMPDEST SWAP1 PUSH1 0x0 MSTORE PUSH1 0x20 PUSH1 0x0 KECCAK256 SWAP1 PUSH1 0x3 MUL ADD PUSH1 0x2 ADD SLOAD PUSH2 0x3D83 SWAP2 SWAP1 PUSH2 0x4CA0 JUMP JUMPDEST SWAP1 POP PUSH1 0xF SLOAD DUP2 GT ISZERO PUSH2 0x3DD7 JUMPI PUSH1 0x40 MLOAD PUSH3 0x461BCD PUSH1 0xE5 SHL DUP2 MSTORE PUSH1 0x20 PUSH1 0x4 DUP3 ADD MSTORE PUSH1 0x1F PUSH1 0x24 DUP3 ADD MSTORE PUSH32 0x50523A204D617820636170207065722077616C6C657420657863656564656400 PUSH1 0x44 DUP3 ADD MSTORE PUSH1 0x64 ADD PUSH2 0xE24 JUMP JUMPDEST PUSH1 0x1 PUSH1 0x1 PUSH1 0xA0 SHL SUB DUP5 AND PUSH1 0x0 SWAP1 DUP2 MSTORE PUSH1 0x3 PUSH1 0x20 MSTORE PUSH1 0x40 SWAP1 KECCAK256 SLOAD DUP2 SWAP1 PUSH1 0x4 SWAP1 PUSH2 0x3E01 SWAP1 PUSH1 0x1 SWAP1 PUSH2 0x4DE2 JUMP JUMPDEST DUP2 SLOAD DUP2 LT PUSH2 0x3E1F JUMPI PUSH4 0x4E487B71 PUSH1 0xE0 SHL PUSH1 0x0 MSTORE PUSH1 0x32 PUSH1 0x4 MSTORE PUSH1 0x24 PUSH1 0x0 REVERT JUMPDEST SWAP1 PUSH1 0x0 MSTORE PUSH1 0x20 PUSH1 0x0 KECCAK256 SWAP1 PUSH1 0x3 MUL ADD PUSH1 0x2 ADD DUP2 SWAP1 SSTORE POP POP JUMPDEST DUP1 PUSH1 0xC PUSH1 0x0 DUP3 DUP3 SLOAD PUSH2 0x3E48 SWAP2 SWAP1 PUSH2 0x4CA0 JUMP JUMPDEST SWAP1 SWAP2 SSTORE POP PUSH2 0x1BED SWAP1 POP DUP4 PUSH2 0x4398 JUMP JUMPDEST PUSH1 0x1 PUSH1 0x1 PUSH1 0xA0 SHL SUB DUP3 AND PUSH1 0x0 SWAP1 DUP2 MSTORE PUSH1 0x7 PUSH1 0x20 MSTORE PUSH1 0x40 SWAP1 KECCAK256 SLOAD PUSH2 0x3F1E JUMPI PUSH1 0x40 DUP1 MLOAD DUP1 DUP3 ADD DUP3 MSTORE PUSH1 0x1 PUSH1 0x1 PUSH1 0xA0 SHL SUB DUP5 DUP2 AND DUP1 DUP4 MSTORE PUSH1 0x20 DUP1 DUP5 ADD DUP7 DUP2 MSTORE PUSH1 0x8 DUP1 SLOAD PUSH1 0x1 DUP2 ADD DUP3 SSTORE PUSH1 0x0 DUP3 DUP2 MSTORE SWAP7 MLOAD PUSH32 0xF3F7A9FE364FAAB93B216DA50A3214154F22A0A2B415B23A84C8169E8B636EE3 PUSH1 0x2 SWAP1 SWAP3 MUL SWAP2 DUP3 ADD DUP1 SLOAD PUSH1 0x1 PUSH1 0x1 PUSH1 0xA0 SHL SUB NOT AND SWAP2 SWAP1 SWAP8 AND OR SWAP1 SWAP6 SSTORE SWAP1 MLOAD PUSH32 0xF3F7A9FE364FAAB93B216DA50A3214154F22A0A2B415B23A84C8169E8B636EE4 SWAP1 SWAP5 ADD SWAP4 SWAP1 SWAP4 SSTORE SWAP2 SLOAD SWAP1 DUP4 MSTORE PUSH1 0x7 SWAP1 SWAP2 MSTORE SWAP2 SWAP1 KECCAK256 SSTORE PUSH2 0x3F8C JUMP JUMPDEST PUSH1 0x1 PUSH1 0x1 PUSH1 0xA0 SHL SUB DUP3 AND PUSH1 0x0 SWAP1 DUP2 MSTORE PUSH1 0x7 PUSH1 0x20 MSTORE PUSH1 0x40 SWAP1 KECCAK256 SLOAD DUP2 SWAP1 PUSH1 0x8 SWAP1 PUSH2 0x3F48 SWAP1 PUSH1 0x1 SWAP1 PUSH2 0x4DE2 JUMP JUMPDEST DUP2 SLOAD DUP2 LT PUSH2 0x3F66 JUMPI PUSH4 0x4E487B71 PUSH1 0xE0 SHL PUSH1 0x0 MSTORE PUSH1 0x32 PUSH1 0x4 MSTORE PUSH1 0x24 PUSH1 0x0 REVERT JUMPDEST SWAP1 PUSH1 0x0 MSTORE PUSH1 0x20 PUSH1 0x0 KECCAK256 SWAP1 PUSH1 0x2 MUL ADD PUSH1 0x1 ADD PUSH1 0x0 DUP3 DUP3 SLOAD PUSH2 0x3F86 SWAP2 SWAP1 PUSH2 0x4CA0 JUMP JUMPDEST SWAP1 SWAP2 SSTORE POP POP JUMPDEST PUSH2 0x2011 DUP3 PUSH2 0x4398 JUMP JUMPDEST PUSH1 0x0 PUSH2 0x3FA1 DUP2 CALLER PUSH2 0x3AC4 JUMP JUMPDEST PUSH2 0x1BED DUP4 DUP4 PUSH2 0x4084 JUMP JUMPDEST PUSH1 0x1 PUSH1 0x1 PUSH1 0xA0 SHL SUB DUP2 AND CALLER EQ PUSH2 0x4029 JUMPI PUSH1 0x40 MLOAD PUSH3 0x461BCD PUSH1 0xE5 SHL DUP2 MSTORE PUSH1 0x20 PUSH1 0x4 DUP3 ADD MSTORE PUSH1 0x2F PUSH1 0x24 DUP3 ADD MSTORE PUSH32 0x416363657373436F6E74726F6C3A2063616E206F6E6C792072656E6F756E6365 PUSH1 0x44 DUP3 ADD MSTORE PUSH32 0x20726F6C657320666F722073656C660000000000000000000000000000000000 PUSH1 0x64 DUP3 ADD MSTORE PUSH1 0x84 ADD PUSH2 0xE24 JUMP JUMPDEST PUSH2 0x2011 DUP3 DUP3 PUSH2 0x44E1 JUMP JUMPDEST PUSH1 0x0 PUSH2 0x23D3 DUP4 PUSH1 0x1 PUSH1 0x1 PUSH1 0xA0 SHL SUB DUP5 AND PUSH2 0x4560 JUMP JUMPDEST PUSH1 0x0 PUSH2 0x23D3 DUP4 DUP4 PUSH2 0x467D JUMP JUMPDEST PUSH1 0x0 PUSH2 0x1344 DUP3 SLOAD SWAP1 JUMP JUMPDEST PUSH1 0x0 DUP3 DUP2 MSTORE PUSH1 0x20 DUP2 SWAP1 MSTORE PUSH1 0x40 SWAP1 KECCAK256 PUSH1 0x1 ADD SLOAD PUSH2 0x407A DUP2 CALLER PUSH2 0x3AC4 JUMP JUMPDEST PUSH2 0x1BED DUP4 DUP4 PUSH2 0x44E1 JUMP JUMPDEST PUSH1 0x0 DUP3 DUP2 MSTORE PUSH1 0x20 DUP2 DUP2 MSTORE PUSH1 0x40 DUP1 DUP4 KECCAK256 PUSH1 0x1 PUSH1 0x1 PUSH1 0xA0 SHL SUB DUP6 AND DUP5 MSTORE SWAP1 SWAP2 MSTORE SWAP1 KECCAK256 SLOAD PUSH1 0xFF AND PUSH2 0x2011 JUMPI PUSH1 0x0 DUP3 DUP2 MSTORE PUSH1 0x20 DUP2 DUP2 MSTORE PUSH1 0x40 DUP1 DUP4 KECCAK256 PUSH1 0x1 PUSH1 0x1 PUSH1 0xA0 SHL SUB DUP6 AND DUP5 MSTORE SWAP1 SWAP2 MSTORE SWAP1 KECCAK256 DUP1 SLOAD PUSH1 0xFF NOT AND PUSH1 0x1 OR SWAP1 SSTORE PUSH2 0x40DE CALLER SWAP1 JUMP JUMPDEST PUSH1 0x1 PUSH1 0x1 PUSH1 0xA0 SHL SUB AND DUP2 PUSH1 0x1 PUSH1 0x1 PUSH1 0xA0 SHL SUB AND DUP4 PUSH32 0x2F8788117E7EFF1D82E926EC794901D17C78024A50270940304540A733656F0D PUSH1 0x40 MLOAD PUSH1 0x40 MLOAD DUP1 SWAP2 SUB SWAP1 LOG4 POP POP JUMP JUMPDEST PUSH1 0x0 DUP2 DUP2 MSTORE PUSH1 0x1 DUP4 ADD PUSH1 0x20 MSTORE PUSH1 0x40 DUP2 KECCAK256 SLOAD PUSH2 0x4169 JUMPI POP DUP2 SLOAD PUSH1 0x1 DUP2 DUP2 ADD DUP5 SSTORE PUSH1 0x0 DUP5 DUP2 MSTORE PUSH1 0x20 DUP1 DUP3 KECCAK256 SWAP1 SWAP4 ADD DUP5 SWAP1 SSTORE DUP5 SLOAD DUP5 DUP3 MSTORE DUP3 DUP7 ADD SWAP1 SWAP4 MSTORE PUSH1 0x40 SWAP1 KECCAK256 SWAP2 SWAP1 SWAP2 SSTORE PUSH2 0x1344 JUMP JUMPDEST POP PUSH1 0x0 PUSH2 0x1344 JUMP JUMPDEST PUSH1 0x60 PUSH1 0x0 PUSH2 0x4180 DUP4 PUSH1 0x2 PUSH2 0x4DC3 JUMP JUMPDEST PUSH2 0x418B SWAP1 PUSH1 0x2 PUSH2 0x4CA0 JUMP JUMPDEST PUSH8 0xFFFFFFFFFFFFFFFF DUP2 GT ISZERO PUSH2 0x41B1 JUMPI PUSH4 0x4E487B71 PUSH1 0xE0 SHL PUSH1 0x0 MSTORE PUSH1 0x41 PUSH1 0x4 MSTORE PUSH1 0x24 PUSH1 0x0 REVERT JUMPDEST PUSH1 0x40 MLOAD SWAP1 DUP1 DUP3 MSTORE DUP1 PUSH1 0x1F ADD PUSH1 0x1F NOT AND PUSH1 0x20 ADD DUP3 ADD PUSH1 0x40 MSTORE DUP1 ISZERO PUSH2 0x41DB JUMPI PUSH1 0x20 DUP3 ADD DUP2 DUP1 CALLDATASIZE DUP4 CALLDATACOPY ADD SWAP1 POP JUMPDEST POP SWAP1 POP PUSH32 0x3000000000000000000000000000000000000000000000000000000000000000 DUP2 PUSH1 0x0 DUP2 MLOAD DUP2 LT PUSH2 0x4220 JUMPI PUSH4 0x4E487B71 PUSH1 0xE0 SHL PUSH1 0x0 MSTORE PUSH1 0x32 PUSH1 0x4 MSTORE PUSH1 0x24 PUSH1 0x0 REVERT JUMPDEST PUSH1 0x20 ADD ADD SWAP1 PUSH1 0x1 PUSH1 0x1 PUSH1 0xF8 SHL SUB NOT AND SWAP1 DUP2 PUSH1 0x0 BYTE SWAP1 MSTORE8 POP PUSH32 0x7800000000000000000000000000000000000000000000000000000000000000 DUP2 PUSH1 0x1 DUP2 MLOAD DUP2 LT PUSH2 0x4279 JUMPI PUSH4 0x4E487B71 PUSH1 0xE0 SHL PUSH1 0x0 MSTORE PUSH1 0x32 PUSH1 0x4 MSTORE PUSH1 0x24 PUSH1 0x0 REVERT JUMPDEST PUSH1 0x20 ADD ADD SWAP1 PUSH1 0x1 PUSH1 0x1 PUSH1 0xF8 SHL SUB NOT AND SWAP1 DUP2 PUSH1 0x0 BYTE SWAP1 MSTORE8 POP PUSH1 0x0 PUSH2 0x429D DUP5 PUSH1 0x2 PUSH2 0x4DC3 JUMP JUMPDEST PUSH2 0x42A8 SWAP1 PUSH1 0x1 PUSH2 0x4CA0 JUMP JUMPDEST SWAP1 POP JUMPDEST PUSH1 0x1 DUP2 GT ISZERO PUSH2 0x4349 JUMPI PUSH32 0x3031323334353637383961626364656600000000000000000000000000000000 DUP6 PUSH1 0xF AND PUSH1 0x10 DUP2 LT PUSH2 0x42F7 JUMPI PUSH4 0x4E487B71 PUSH1 0xE0 SHL PUSH1 0x0 MSTORE PUSH1 0x32 PUSH1 0x4 MSTORE PUSH1 0x24 PUSH1 0x0 REVERT JUMPDEST BYTE PUSH1 0xF8 SHL DUP3 DUP3 DUP2 MLOAD DUP2 LT PUSH2 0x431B JUMPI PUSH4 0x4E487B71 PUSH1 0xE0 SHL PUSH1 0x0 MSTORE PUSH1 0x32 PUSH1 0x4 MSTORE PUSH1 0x24 PUSH1 0x0 REVERT JUMPDEST PUSH1 0x20 ADD ADD SWAP1 PUSH1 0x1 PUSH1 0x1 PUSH1 0xF8 SHL SUB NOT AND SWAP1 DUP2 PUSH1 0x0 BYTE SWAP1 MSTORE8 POP PUSH1 0x4 SWAP5 SWAP1 SWAP5 SHR SWAP4 PUSH2 0x4342 DUP2 PUSH2 0x4F3A JUMP JUMPDEST SWAP1 POP PUSH2 0x42AB JUMP JUMPDEST POP DUP4 ISZERO PUSH2 0x23D3 JUMPI PUSH1 0x40 MLOAD PUSH3 0x461BCD PUSH1 0xE5 SHL DUP2 MSTORE PUSH1 0x20 PUSH1 0x4 DUP3 ADD DUP2 SWAP1 MSTORE PUSH1 0x24 DUP3 ADD MSTORE PUSH32 0x537472696E67733A20686578206C656E67746820696E73756666696369656E74 PUSH1 0x44 DUP3 ADD MSTORE PUSH1 0x64 ADD PUSH2 0xE24 JUMP JUMPDEST PUSH1 0x1 PUSH1 0x1 PUSH1 0xA0 SHL SUB DUP2 AND PUSH1 0x0 SWAP1 DUP2 MSTORE PUSH1 0x5 PUSH1 0x20 MSTORE PUSH1 0x40 SWAP1 KECCAK256 SLOAD PUSH2 0x1303 JUMPI PUSH1 0x40 DUP1 MLOAD PUSH1 0xA0 DUP2 ADD DUP3 MSTORE PUSH1 0x1 PUSH1 0x1 PUSH1 0xA0 SHL SUB SWAP3 DUP4 AND DUP1 DUP3 MSTORE PUSH1 0x1 PUSH1 0x20 DUP1 DUP5 ADD DUP3 DUP2 MSTORE DUP5 DUP7 ADD DUP4 DUP2 MSTORE PUSH1 0x60 DUP7 ADD DUP5 DUP2 MSTORE PUSH1 0x80 DUP8 ADD DUP6 DUP2 MSTORE PUSH1 0x6 DUP1 SLOAD SWAP7 DUP8 ADD DUP2 SSTORE PUSH1 0x0 DUP2 DUP2 MSTORE SWAP9 MLOAD PUSH32 0xF652222313E28459528D920B65115C16C04F3EFC82AAEDC97BE59F3F377C0D3F PUSH1 0x5 SWAP9 DUP10 MUL SWAP1 DUP2 ADD DUP1 SLOAD PUSH1 0x1 PUSH1 0x1 PUSH1 0xA0 SHL SUB NOT AND SWAP3 SWAP1 SWAP14 AND SWAP2 SWAP1 SWAP2 OR SWAP1 SWAP12 SSTORE SWAP4 MLOAD PUSH32 0xF652222313E28459528D920B65115C16C04F3EFC82AAEDC97BE59F3F377C0D40 DUP12 ADD SSTORE SWAP2 MLOAD PUSH32 0xF652222313E28459528D920B65115C16C04F3EFC82AAEDC97BE59F3F377C0D41 DUP11 ADD SSTORE MLOAD PUSH32 0xF652222313E28459528D920B65115C16C04F3EFC82AAEDC97BE59F3F377C0D42 DUP10 ADD SSTORE MLOAD PUSH32 0xF652222313E28459528D920B65115C16C04F3EFC82AAEDC97BE59F3F377C0D43 SWAP1 SWAP8 ADD SWAP7 SWAP1 SWAP7 SSTORE SWAP5 SLOAD SWAP2 DUP4 MSTORE SWAP1 SWAP4 MSTORE KECCAK256 SSTORE JUMP JUMPDEST PUSH1 0x0 DUP3 DUP2 MSTORE PUSH1 0x20 DUP2 DUP2 MSTORE PUSH1 0x40 DUP1 DUP4 KECCAK256 PUSH1 0x1 PUSH1 0x1 PUSH1 0xA0 SHL SUB DUP6 AND DUP5 MSTORE SWAP1 SWAP2 MSTORE SWAP1 KECCAK256 SLOAD PUSH1 0xFF AND ISZERO PUSH2 0x2011 JUMPI PUSH1 0x0 DUP3 DUP2 MSTORE PUSH1 0x20 DUP2 DUP2 MSTORE PUSH1 0x40 DUP1 DUP4 KECCAK256 PUSH1 0x1 PUSH1 0x1 PUSH1 0xA0 SHL SUB DUP6 AND DUP1 DUP6 MSTORE SWAP3 MSTORE DUP1 DUP4 KECCAK256 DUP1 SLOAD PUSH1 0xFF NOT AND SWAP1 SSTORE MLOAD CALLER SWAP3 DUP6 SWAP2 PUSH32 0xF6391F5C32D9C69D2A47EA670B442974B53935D1EDC7FD64EB21E047A839171B SWAP2 SWAP1 LOG4 POP POP JUMP JUMPDEST PUSH1 0x0 DUP2 DUP2 MSTORE PUSH1 0x1 DUP4 ADD PUSH1 0x20 MSTORE PUSH1 0x40 DUP2 KECCAK256 SLOAD DUP1 ISZERO PUSH2 0x4673 JUMPI PUSH1 0x0 PUSH2 0x4584 PUSH1 0x1 DUP4 PUSH2 0x4DE2 JUMP JUMPDEST DUP6 SLOAD SWAP1 SWAP2 POP PUSH1 0x0 SWAP1 PUSH2 0x4598 SWAP1 PUSH1 0x1 SWAP1 PUSH2 0x4DE2 JUMP JUMPDEST SWAP1 POP DUP2 DUP2 EQ PUSH2 0x4619 JUMPI PUSH1 0x0 DUP7 PUSH1 0x0 ADD DUP3 DUP2 SLOAD DUP2 LT PUSH2 0x45C6 JUMPI PUSH4 0x4E487B71 PUSH1 0xE0 SHL PUSH1 0x0 MSTORE PUSH1 0x32 PUSH1 0x4 MSTORE PUSH1 0x24 PUSH1 0x0 REVERT JUMPDEST SWAP1 PUSH1 0x0 MSTORE PUSH1 0x20 PUSH1 0x0 KECCAK256 ADD SLOAD SWAP1 POP DUP1 DUP8 PUSH1 0x0 ADD DUP5 DUP2 SLOAD DUP2 LT PUSH2 0x45F7 JUMPI PUSH4 0x4E487B71 PUSH1 0xE0 SHL PUSH1 0x0 MSTORE PUSH1 0x32 PUSH1 0x4 MSTORE PUSH1 0x24 PUSH1 0x0 REVERT JUMPDEST PUSH1 0x0 SWAP2 DUP3 MSTORE PUSH1 0x20 DUP1 DUP4 KECCAK256 SWAP1 SWAP2 ADD SWAP3 SWAP1 SWAP3 SSTORE SWAP2 DUP3 MSTORE PUSH1 0x1 DUP9 ADD SWAP1 MSTORE PUSH1 0x40 SWAP1 KECCAK256 DUP4 SWAP1 SSTORE JUMPDEST DUP6 SLOAD DUP7 SWAP1 DUP1 PUSH2 0x4638 JUMPI PUSH4 0x4E487B71 PUSH1 0xE0 SHL PUSH1 0x0 MSTORE PUSH1 0x31 PUSH1 0x4 MSTORE PUSH1 0x24 PUSH1 0x0 REVERT JUMPDEST PUSH1 0x1 SWAP1 SUB DUP2 DUP2 SWAP1 PUSH1 0x0 MSTORE PUSH1 0x20 PUSH1 0x0 KECCAK256 ADD PUSH1 0x0 SWAP1 SSTORE SWAP1 SSTORE DUP6 PUSH1 0x1 ADD PUSH1 0x0 DUP7 DUP2 MSTORE PUSH1 0x20 ADD SWAP1 DUP2 MSTORE PUSH1 0x20 ADD PUSH1 0x0 KECCAK256 PUSH1 0x0 SWAP1 SSTORE PUSH1 0x1 SWAP4 POP POP POP POP PUSH2 0x1344 JUMP JUMPDEST PUSH1 0x0 SWAP2 POP POP PUSH2 0x1344 JUMP JUMPDEST PUSH1 0x0 DUP3 PUSH1 0x0 ADD DUP3 DUP2 SLOAD DUP2 LT PUSH2 0x46A2 JUMPI PUSH4 0x4E487B71 PUSH1 0xE0 SHL PUSH1 0x0 MSTORE PUSH1 0x32 PUSH1 0x4 MSTORE PUSH1 0x24 PUSH1 0x0 REVERT JUMPDEST SWAP1 PUSH1 0x0 MSTORE PUSH1 0x20 PUSH1 0x0 KECCAK256 ADD SLOAD SWAP1 POP SWAP3 SWAP2 POP POP JUMP JUMPDEST POP DUP1 SLOAD PUSH1 0x0 DUP3 SSTORE PUSH1 0x5 MUL SWAP1 PUSH1 0x0 MSTORE PUSH1 0x20 PUSH1 0x0 KECCAK256 SWAP1 DUP2 ADD SWAP1 PUSH2 0x1303 SWAP2 SWAP1 JUMPDEST DUP1 DUP3 GT ISZERO PUSH2 0x4715 JUMPI DUP1 SLOAD PUSH1 0x1 PUSH1 0x1 PUSH1 0xA0 SHL SUB NOT AND DUP2 SSTORE PUSH1 0x0 PUSH2 0x46F7 PUSH1 0x1 DUP4 ADD DUP3 PUSH2 0x4719 JUMP JUMPDEST POP PUSH1 0x0 PUSH1 0x2 DUP3 ADD DUP2 SWAP1 SSTORE PUSH1 0x3 DUP3 ADD DUP2 SWAP1 SSTORE PUSH1 0x4 DUP3 ADD SSTORE PUSH1 0x5 ADD PUSH2 0x46D2 JUMP JUMPDEST POP SWAP1 JUMP JUMPDEST POP DUP1 SLOAD PUSH2 0x4725 SWAP1 PUSH2 0x4F51 JUMP JUMPDEST PUSH1 0x0 DUP3 SSTORE DUP1 PUSH1 0x1F LT PUSH2 0x4735 JUMPI POP POP JUMP JUMPDEST PUSH1 0x1F ADD PUSH1 0x20 SWAP1 DIV SWAP1 PUSH1 0x0 MSTORE PUSH1 0x20 PUSH1 0x0 KECCAK256 SWAP1 DUP2 ADD SWAP1 PUSH2 0x1303 SWAP2 SWAP1 JUMPDEST DUP1 DUP3 GT ISZERO PUSH2 0x4715 JUMPI PUSH1 0x0 DUP2 SSTORE PUSH1 0x1 ADD PUSH2 0x474F JUMP JUMPDEST PUSH1 0x0 PUSH1 0x20 DUP3 DUP5 SUB SLT ISZERO PUSH2 0x4774 JUMPI DUP1 DUP2 REVERT JUMPDEST DUP2 CALLDATALOAD PUSH2 0x23D3 DUP2 PUSH2 0x506F JUMP JUMPDEST PUSH1 0x0 PUSH1 0x20 DUP3 DUP5 SUB SLT ISZERO PUSH2 0x4790 JUMPI DUP1 DUP2 REVERT JUMPDEST DUP2 MLOAD PUSH2 0x23D3 DUP2 PUSH2 0x506F JUMP JUMPDEST PUSH1 0x0 DUP1 PUSH1 0x20 DUP4 DUP6 SUB SLT ISZERO PUSH2 0x47AD JUMPI DUP1 DUP2 REVERT JUMPDEST DUP3 CALLDATALOAD PUSH8 0xFFFFFFFFFFFFFFFF DUP1 DUP3 GT ISZERO PUSH2 0x47C4 JUMPI DUP3 DUP4 REVERT JUMPDEST DUP2 DUP6 ADD SWAP2 POP DUP6 PUSH1 0x1F DUP4 ADD SLT PUSH2 0x47D7 JUMPI DUP3 DUP4 REVERT JUMPDEST DUP2 CALLDATALOAD DUP2 DUP2 GT ISZERO PUSH2 0x47E5 JUMPI DUP4 DUP5 REVERT JUMPDEST DUP7 PUSH1 0x20 DUP3 PUSH1 0x6 SHL DUP6 ADD ADD GT ISZERO PUSH2 0x47F9 JUMPI DUP4 DUP5 REVERT JUMPDEST PUSH1 0x20 SWAP3 SWAP1 SWAP3 ADD SWAP7 SWAP2 SWAP6 POP SWAP1 SWAP4 POP POP POP POP JUMP JUMPDEST PUSH1 0x0 DUP1 PUSH1 0x20 DUP4 DUP6 SUB SLT ISZERO PUSH2 0x481D JUMPI DUP2 DUP3 REVERT JUMPDEST DUP3 CALLDATALOAD PUSH8 0xFFFFFFFFFFFFFFFF DUP1 DUP3 GT ISZERO PUSH2 0x4834 JUMPI DUP4 DUP5 REVERT JUMPDEST DUP2 DUP6 ADD SWAP2 POP DUP6 PUSH1 0x1F DUP4 ADD SLT PUSH2 0x4847 JUMPI DUP4 DUP5 REVERT JUMPDEST DUP2 CALLDATALOAD DUP2 DUP2 GT ISZERO PUSH2 0x4855 JUMPI DUP5 DUP6 REVERT JUMPDEST DUP7 PUSH1 0x20 DUP3 PUSH1 0x5 SHL DUP6 ADD ADD GT ISZERO PUSH2 0x47F9 JUMPI DUP5 DUP6 REVERT JUMPDEST PUSH1 0x0 PUSH1 0x20 DUP3 DUP5 SUB SLT ISZERO PUSH2 0x487A JUMPI DUP1 DUP2 REVERT JUMPDEST DUP2 MLOAD DUP1 ISZERO ISZERO DUP2 EQ PUSH2 0x23D3 JUMPI DUP2 DUP3 REVERT JUMPDEST PUSH1 0x0 PUSH1 0x20 DUP3 DUP5 SUB SLT ISZERO PUSH2 0x489A JUMPI DUP1 DUP2 REVERT JUMPDEST POP CALLDATALOAD SWAP2 SWAP1 POP JUMP JUMPDEST PUSH1 0x0 DUP1 PUSH1 0x40 DUP4 DUP6 SUB SLT ISZERO PUSH2 0x48B3 JUMPI DUP2 DUP3 REVERT JUMPDEST DUP3 CALLDATALOAD SWAP2 POP PUSH1 0x20 DUP4 ADD CALLDATALOAD PUSH2 0x48C5 DUP2 PUSH2 0x506F JUMP JUMPDEST DUP1 SWAP2 POP POP SWAP3 POP SWAP3 SWAP1 POP JUMP JUMPDEST PUSH1 0x0 DUP1 PUSH1 0x40 DUP4 DUP6 SUB SLT ISZERO PUSH2 0x48E2 JUMPI DUP2 DUP3 REVERT JUMPDEST POP POP DUP1 CALLDATALOAD SWAP3 PUSH1 0x20 SWAP1 SWAP2 ADD CALLDATALOAD SWAP2 POP JUMP JUMPDEST PUSH1 0x0 PUSH1 0x20 DUP3 DUP5 SUB SLT ISZERO PUSH2 0x4902 JUMPI DUP1 DUP2 REVERT JUMPDEST DUP2 CALLDATALOAD PUSH1 0x1 PUSH1 0x1 PUSH1 0xE0 SHL SUB NOT DUP2 AND DUP2 EQ PUSH2 0x23D3 JUMPI DUP2 DUP3 REVERT JUMPDEST PUSH1 0x0 PUSH1 0x20 DUP3 DUP5 SUB SLT ISZERO PUSH2 0x492A JUMPI DUP1 DUP2 REVERT JUMPDEST POP MLOAD SWAP2 SWAP1 POP JUMP JUMPDEST PUSH1 0x0 DUP1 PUSH1 0x0 PUSH1 0x60 DUP5 DUP7 SUB SLT ISZERO PUSH2 0x4945 JUMPI DUP1 DUP2 REVERT JUMPDEST POP POP DUP2 CALLDATALOAD SWAP4 PUSH1 0x20 DUP4 ADD CALLDATALOAD SWAP4 POP PUSH1 0x40 SWAP1 SWAP3 ADD CALLDATALOAD SWAP2 SWAP1 POP JUMP JUMPDEST PUSH1 0x0 DUP1 PUSH1 0x0 PUSH1 0x60 DUP5 DUP7 SUB SLT ISZERO PUSH2 0x4970 JUMPI DUP3 DUP4 REVERT JUMPDEST DUP4 MLOAD SWAP3 POP PUSH1 0x20 DUP5 ADD MLOAD SWAP2 POP PUSH1 0x40 DUP5 ADD MLOAD PUSH4 0xFFFFFFFF DUP2 AND DUP2 EQ PUSH2 0x4991 JUMPI DUP2 DUP3 REVERT JUMPDEST DUP1 SWAP2 POP POP SWAP3 POP SWAP3 POP SWAP3 JUMP JUMPDEST PUSH1 0x0 DUP2 MLOAD DUP1 DUP5 MSTORE PUSH2 0x49B4 DUP2 PUSH1 0x20 DUP7 ADD PUSH1 0x20 DUP7 ADD PUSH2 0x4F0E JUMP JUMPDEST PUSH1 0x1F ADD PUSH1 0x1F NOT AND SWAP3 SWAP1 SWAP3 ADD PUSH1 0x20 ADD SWAP3 SWAP2 POP POP JUMP JUMPDEST PUSH32 0x416363657373436F6E74726F6C3A206163636F756E7420000000000000000000 DUP2 MSTORE PUSH1 0x0 DUP4 MLOAD PUSH2 0x4A00 DUP2 PUSH1 0x17 DUP6 ADD PUSH1 0x20 DUP9 ADD PUSH2 0x4F0E JUMP JUMPDEST PUSH32 0x206973206D697373696E6720726F6C6520000000000000000000000000000000 PUSH1 0x17 SWAP2 DUP5 ADD SWAP2 DUP3 ADD MSTORE DUP4 MLOAD PUSH2 0x4A3D DUP2 PUSH1 0x28 DUP5 ADD PUSH1 0x20 DUP9 ADD PUSH2 0x4F0E JUMP JUMPDEST ADD PUSH1 0x28 ADD SWAP5 SWAP4 POP POP POP POP JUMP JUMPDEST PUSH1 0x1 PUSH1 0x1 PUSH1 0xA0 SHL SUB DUP7 AND DUP2 MSTORE PUSH1 0xA0 PUSH1 0x20 DUP3 ADD MSTORE PUSH1 0x0 PUSH2 0x4A6B PUSH1 0xA0 DUP4 ADD DUP8 PUSH2 0x499C JUMP JUMPDEST PUSH1 0x40 DUP4 ADD SWAP6 SWAP1 SWAP6 MSTORE POP PUSH1 0x60 DUP2 ADD SWAP3 SWAP1 SWAP3 MSTORE PUSH1 0x80 SWAP1 SWAP2 ADD MSTORE SWAP3 SWAP2 POP POP JUMP JUMPDEST PUSH1 0x20 DUP1 DUP3 MSTORE DUP3 MLOAD DUP3 DUP3 ADD DUP2 SWAP1 MSTORE PUSH1 0x0 SWAP2 SWAP1 DUP5 DUP3 ADD SWAP1 PUSH1 0x40 DUP6 ADD SWAP1 DUP5 JUMPDEST DUP2 DUP2 LT ISZERO PUSH2 0x4AEE JUMPI PUSH2 0x4ADB DUP4 DUP6 MLOAD PUSH1 0x1 PUSH1 0x1 PUSH1 0xA0 SHL SUB DUP1 DUP3 MLOAD AND DUP4 MSTORE DUP1 PUSH1 0x20 DUP4 ADD MLOAD AND PUSH1 0x20 DUP5 ADD MSTORE POP PUSH1 0x40 DUP2 ADD MLOAD PUSH1 0x40 DUP4 ADD MSTORE POP POP JUMP JUMPDEST SWAP3 DUP5 ADD SWAP3 PUSH1 0x60 SWAP3 SWAP1 SWAP3 ADD SWAP2 PUSH1 0x1 ADD PUSH2 0x4AA4 JUMP JUMPDEST POP SWAP1 SWAP7 SWAP6 POP POP POP POP POP POP JUMP JUMPDEST PUSH1 0x20 DUP1 DUP3 MSTORE DUP3 MLOAD DUP3 DUP3 ADD DUP2 SWAP1 MSTORE PUSH1 0x0 SWAP2 SWAP1 PUSH1 0x40 SWAP1 DUP2 DUP6 ADD SWAP1 DUP7 DUP5 ADD DUP6 JUMPDEST DUP3 DUP2 LT ISZERO PUSH2 0x4B4D JUMPI PUSH2 0x4B3D DUP5 DUP4 MLOAD DUP1 MLOAD PUSH1 0x1 PUSH1 0x1 PUSH1 0xA0 SHL SUB AND DUP3 MSTORE PUSH1 0x20 SWAP1 DUP2 ADD MLOAD SWAP2 ADD MSTORE JUMP JUMPDEST SWAP3 DUP5 ADD SWAP3 SWAP1 DUP6 ADD SWAP1 PUSH1 0x1 ADD PUSH2 0x4B17 JUMP JUMPDEST POP SWAP2 SWAP8 SWAP7 POP POP POP POP POP POP POP JUMP JUMPDEST PUSH1 0x0 PUSH1 0x20 DUP1 DUP4 ADD DUP2 DUP5 MSTORE DUP1 DUP6 MLOAD DUP1 DUP4 MSTORE PUSH1 0x40 SWAP3 POP DUP3 DUP7 ADD SWAP2 POP DUP3 DUP2 PUSH1 0x5 SHL DUP8 ADD ADD DUP5 DUP9 ADD DUP7 JUMPDEST DUP4 DUP2 LT ISZERO PUSH2 0x4BE9 JUMPI PUSH1 0x3F NOT DUP10 DUP5 SUB ADD DUP6 MSTORE DUP2 MLOAD PUSH1 0xA0 PUSH1 0x1 PUSH1 0x1 PUSH1 0xA0 SHL SUB DUP3 MLOAD AND DUP6 MSTORE DUP9 DUP3 ADD MLOAD DUP2 DUP11 DUP8 ADD MSTORE PUSH2 0x4BB7 DUP3 DUP8 ADD DUP3 PUSH2 0x499C JUMP JUMPDEST DUP4 DUP11 ADD MLOAD DUP8 DUP12 ADD MSTORE PUSH1 0x60 DUP1 DUP6 ADD MLOAD SWAP1 DUP9 ADD MSTORE PUSH1 0x80 SWAP4 DUP5 ADD MLOAD SWAP4 SWAP1 SWAP7 ADD SWAP3 SWAP1 SWAP3 MSTORE POP POP SWAP4 DUP7 ADD SWAP4 SWAP1 DUP7 ADD SWAP1 PUSH1 0x1 ADD PUSH2 0x4B80 JUMP JUMPDEST POP SWAP1 SWAP9 SWAP8 POP POP POP POP POP POP POP POP JUMP JUMPDEST PUSH1 0x20 DUP2 ADD PUSH1 0x8 DUP4 LT PUSH2 0x4C19 JUMPI PUSH4 0x4E487B71 PUSH1 0xE0 SHL PUSH1 0x0 MSTORE PUSH1 0x21 PUSH1 0x4 MSTORE PUSH1 0x24 PUSH1 0x0 REVERT JUMPDEST SWAP2 SWAP1 MSTORE SWAP1 JUMP JUMPDEST PUSH1 0x20 DUP2 MSTORE PUSH1 0x0 PUSH2 0x23D3 PUSH1 0x20 DUP4 ADD DUP5 PUSH2 0x499C JUMP JUMPDEST DUP2 MLOAD PUSH1 0x1 PUSH1 0x1 PUSH1 0xA0 SHL SUB SWAP1 DUP2 AND DUP3 MSTORE PUSH1 0x20 DUP1 DUP5 ADD MLOAD SWAP1 SWAP2 AND SWAP1 DUP3 ADD MSTORE PUSH1 0x40 DUP1 DUP4 ADD MLOAD SWAP1 DUP3 ADD MSTORE PUSH1 0x60 DUP2 ADD PUSH2 0x1344 JUMP JUMPDEST DUP2 MLOAD PUSH1 0x1 PUSH1 0x1 PUSH1 0xA0 SHL SUB AND DUP2 MSTORE PUSH1 0x20 DUP1 DUP4 ADD MLOAD SWAP1 DUP3 ADD MSTORE PUSH1 0x40 DUP2 ADD PUSH2 0x1344 JUMP JUMPDEST PUSH1 0x0 DUP3 CALLDATALOAD PUSH1 0x9E NOT DUP4 CALLDATASIZE SUB ADD DUP2 SLT PUSH2 0x4C96 JUMPI DUP2 DUP3 REVERT JUMPDEST SWAP2 SWAP1 SWAP2 ADD SWAP3 SWAP2 POP POP JUMP JUMPDEST PUSH1 0x0 DUP3 NOT DUP3 GT ISZERO PUSH2 0x4CB3 JUMPI PUSH2 0x4CB3 PUSH2 0x4FA7 JUMP JUMPDEST POP ADD SWAP1 JUMP JUMPDEST PUSH1 0x0 DUP3 PUSH2 0x4CD3 JUMPI PUSH4 0x4E487B71 PUSH1 0xE0 SHL DUP2 MSTORE PUSH1 0x12 PUSH1 0x4 MSTORE PUSH1 0x24 DUP2 REVERT JUMPDEST POP DIV SWAP1 JUMP JUMPDEST PUSH1 0x1 DUP2 DUP2 JUMPDEST DUP1 DUP6 GT ISZERO PUSH2 0x4D13 JUMPI DUP2 PUSH1 0x0 NOT DIV DUP3 GT ISZERO PUSH2 0x4CF9 JUMPI PUSH2 0x4CF9 PUSH2 0x4FA7 JUMP JUMPDEST DUP1 DUP6 AND ISZERO PUSH2 0x4D06 JUMPI SWAP2 DUP2 MUL SWAP2 JUMPDEST SWAP4 DUP5 SHR SWAP4 SWAP1 DUP1 MUL SWAP1 PUSH2 0x4CDD JUMP JUMPDEST POP SWAP3 POP SWAP3 SWAP1 POP JUMP JUMPDEST PUSH1 0x0 PUSH2 0x23D3 DUP4 DUP4 PUSH1 0x0 DUP3 PUSH2 0x4D31 JUMPI POP PUSH1 0x1 PUSH2 0x1344 JUMP JUMPDEST DUP2 PUSH2 0x4D3E JUMPI POP PUSH1 0x0 PUSH2 0x1344 JUMP JUMPDEST DUP2 PUSH1 0x1 DUP2 EQ PUSH2 0x4D54 JUMPI PUSH1 0x2 DUP2 EQ PUSH2 0x4D5E JUMPI PUSH2 0x4D7A JUMP JUMPDEST PUSH1 0x1 SWAP2 POP POP PUSH2 0x1344 JUMP JUMPDEST PUSH1 0xFF DUP5 GT ISZERO PUSH2 0x4D6F JUMPI PUSH2 0x4D6F PUSH2 0x4FA7 JUMP JUMPDEST POP POP PUSH1 0x1 DUP3 SHL PUSH2 0x1344 JUMP JUMPDEST POP PUSH1 0x20 DUP4 LT PUSH2 0x133 DUP4 LT AND PUSH1 0x4E DUP5 LT PUSH1 0xB DUP5 LT AND OR ISZERO PUSH2 0x4D9D JUMPI POP DUP2 DUP2 EXP PUSH2 0x1344 JUMP JUMPDEST PUSH2 0x4DA7 DUP4 DUP4 PUSH2 0x4CD8 JUMP JUMPDEST DUP1 PUSH1 0x0 NOT DIV DUP3 GT ISZERO PUSH2 0x4DBB JUMPI PUSH2 0x4DBB PUSH2 0x4FA7 JUMP JUMPDEST MUL SWAP4 SWAP3 POP POP POP JUMP JUMPDEST PUSH1 0x0 DUP2 PUSH1 0x0 NOT DIV DUP4 GT DUP3 ISZERO ISZERO AND ISZERO PUSH2 0x4DDD JUMPI PUSH2 0x4DDD PUSH2 0x4FA7 JUMP JUMPDEST POP MUL SWAP1 JUMP JUMPDEST PUSH1 0x0 DUP3 DUP3 LT ISZERO PUSH2 0x4DF4 JUMPI PUSH2 0x4DF4 PUSH2 0x4FA7 JUMP JUMPDEST POP SUB SWAP1 JUMP JUMPDEST JUMPDEST DUP2 DUP2 LT ISZERO PUSH2 0x2011 JUMPI PUSH1 0x0 DUP2 SSTORE PUSH1 0x1 ADD PUSH2 0x4DFA JUMP JUMPDEST PUSH8 0xFFFFFFFFFFFFFFFF DUP4 GT ISZERO PUSH2 0x4E26 JUMPI PUSH2 0x4E26 PUSH2 0x4FBD JUMP JUMPDEST PUSH2 0x4E30 DUP2 SLOAD PUSH2 0x4F51 JUMP JUMPDEST PUSH1 0x0 DUP1 PUSH1 0x1F DUP7 GT PUSH1 0x1F DUP5 GT DUP2 DUP2 OR ISZERO PUSH2 0x4E4F JUMPI PUSH1 0x0 DUP7 DUP2 MSTORE PUSH1 0x20 SWAP1 KECCAK256 SWAP3 POP JUMPDEST DUP1 ISZERO PUSH2 0x4E7E JUMPI PUSH1 0x1F DUP9 ADD PUSH1 0x5 SHR DUP4 ADD PUSH1 0x20 DUP10 LT ISZERO PUSH2 0x4E6A JUMPI POP DUP3 JUMPDEST PUSH2 0x4E7C PUSH1 0x1F DUP8 ADD PUSH1 0x5 SHR DUP6 ADD DUP3 PUSH2 0x4DF9 JUMP JUMPDEST POP JUMPDEST POP DUP1 PUSH1 0x1 DUP2 EQ PUSH2 0x4EB2 JUMPI PUSH1 0x0 SWAP5 POP DUP8 ISZERO PUSH2 0x4E99 JUMPI DUP4 DUP8 ADD CALLDATALOAD SWAP5 POP JUMPDEST PUSH1 0x1 DUP9 SWAP1 SHL PUSH1 0x0 NOT PUSH1 0x3 DUP11 SWAP1 SHL SHR NOT DUP7 AND OR DUP7 SSTORE PUSH2 0x4F04 JUMP JUMPDEST PUSH1 0x1F NOT DUP9 AND SWAP5 POP DUP3 DUP5 JUMPDEST DUP7 DUP2 LT ISZERO PUSH2 0x4EDC JUMPI DUP9 DUP7 ADD CALLDATALOAD DUP3 SSTORE PUSH1 0x20 SWAP6 DUP7 ADD SWAP6 PUSH1 0x1 SWAP1 SWAP3 ADD SWAP2 ADD PUSH2 0x4EBC JUMP JUMPDEST POP DUP9 DUP7 LT ISZERO PUSH2 0x4EF9 JUMPI PUSH1 0x0 NOT PUSH1 0xF8 DUP11 PUSH1 0x3 SHL AND SHR NOT DUP6 DUP10 ADD CALLDATALOAD AND DUP2 SSTORE JUMPDEST POP PUSH1 0x1 DUP9 PUSH1 0x1 SHL ADD DUP7 SSTORE JUMPDEST POP POP POP POP POP POP POP POP JUMP JUMPDEST PUSH1 0x0 JUMPDEST DUP4 DUP2 LT ISZERO PUSH2 0x4F29 JUMPI DUP2 DUP2 ADD MLOAD DUP4 DUP3 ADD MSTORE PUSH1 0x20 ADD PUSH2 0x4F11 JUMP JUMPDEST DUP4 DUP2 GT ISZERO PUSH2 0x13DD JUMPI POP POP PUSH1 0x0 SWAP2 ADD MSTORE JUMP JUMPDEST PUSH1 0x0 DUP2 PUSH2 0x4F49 JUMPI PUSH2 0x4F49 PUSH2 0x4FA7 JUMP JUMPDEST POP PUSH1 0x0 NOT ADD SWAP1 JUMP JUMPDEST PUSH1 0x1 DUP2 DUP2 SHR SWAP1 DUP3 AND DUP1 PUSH2 0x4F65 JUMPI PUSH1 0x7F DUP3 AND SWAP2 POP JUMPDEST PUSH1 0x20 DUP3 LT DUP2 EQ ISZERO PUSH2 0x4F86 JUMPI PUSH4 0x4E487B71 PUSH1 0xE0 SHL PUSH1 0x0 MSTORE PUSH1 0x22 PUSH1 0x4 MSTORE PUSH1 0x24 PUSH1 0x0 REVERT JUMPDEST POP SWAP2 SWAP1 POP JUMP JUMPDEST PUSH1 0x0 PUSH1 0x0 NOT DUP3 EQ ISZERO PUSH2 0x4FA0 JUMPI PUSH2 0x4FA0 PUSH2 0x4FA7 JUMP JUMPDEST POP PUSH1 0x1 ADD SWAP1 JUMP JUMPDEST PUSH4 0x4E487B71 PUSH1 0xE0 SHL PUSH1 0x0 MSTORE PUSH1 0x11 PUSH1 0x4 MSTORE PUSH1 0x24 PUSH1 0x0 REVERT JUMPDEST PUSH4 0x4E487B71 PUSH1 0xE0 SHL PUSH1 0x0 MSTORE PUSH1 0x41 PUSH1 0x4 MSTORE PUSH1 0x24 PUSH1 0x0 REVERT JUMPDEST DUP2 CALLDATALOAD PUSH2 0x4FDE DUP2 PUSH2 0x506F JUMP JUMPDEST PUSH1 0x1 PUSH1 0x1 PUSH1 0xA0 SHL SUB DUP2 AND PUSH1 0x1 PUSH1 0x1 PUSH1 0xA0 SHL SUB NOT DUP4 SLOAD AND OR DUP3 SSTORE POP PUSH1 0x20 DUP3 ADD CALLDATALOAD PUSH1 0x1E NOT DUP4 CALLDATASIZE SUB ADD DUP2 SLT PUSH2 0x500F JUMPI PUSH1 0x0 DUP1 REVERT JUMPDEST DUP3 ADD DUP1 CALLDATALOAD PUSH8 0xFFFFFFFFFFFFFFFF DUP2 GT ISZERO PUSH2 0x5028 JUMPI PUSH1 0x0 DUP1 REVERT JUMPDEST PUSH1 0x20 DUP3 ADD SWAP2 POP DUP1 CALLDATASIZE SUB DUP3 SGT ISZERO PUSH2 0x503D JUMPI PUSH1 0x0 DUP1 REVERT JUMPDEST PUSH2 0x504B DUP2 DUP4 PUSH1 0x1 DUP7 ADD PUSH2 0x4E0E JUMP JUMPDEST POP POP PUSH1 0x40 DUP3 ADD CALLDATALOAD PUSH1 0x2 DUP3 ADD SSTORE PUSH1 0x60 DUP3 ADD CALLDATALOAD PUSH1 0x3 DUP3 ADD SSTORE PUSH1 0x80 DUP3 ADD CALLDATALOAD PUSH1 0x4 DUP3 ADD SSTORE POP POP JUMP JUMPDEST PUSH1 0x1 PUSH1 0x1 PUSH1 0xA0 SHL SUB DUP2 AND DUP2 EQ PUSH2 0x1303 JUMPI PUSH1 0x0 DUP1 REVERT INVALID LOG2 PUSH5 0x6970667358 0x22 SLT KECCAK256 0x49 0xB0 0x4B DUP5 DUP8 PUSH14 0x18E595C26B6B739847417E86058D 0x22 0xC1 0x4E SSTORE PUSH1 0xEE PUSH32 0x62B7C9BBEE64736F6C6343000804003368747470733A2F2F6C616D626F2E6465 PUSH7 0x69666163746F72 PUSH26 0x2E66696E616E6365000000000000000000000000000000000000 "
		},
		"gasEstimates": {
			"creation": {
				"codeDepositCost": "4133200",
				"executionCost": "infinite",
				"totalCost": "infinite"
			},
			"external": {
				"BURN_ADDRESS()": "348",
				"ROLE_ADMIN()": "296",
				"TEAM_FINANCE_ADDRESS()": "1106",
				"UNISWAP_V2_FACTORY_ADDRESS()": "1128",
				"UNISWAP_V2_ROUTER_ADDRESS()": "1149",
				"USDT_TOKEN_ADDRESS()": "1149",
				"WETH_TOKEN_ADDRESS()": "1105",
				"addLiquidityOnUniswapV2()": "infinite",
				"amountOfTokensForInvestors()": "1073",
				"cachedIndexInvestors(address)": "1291",
				"cachedIndexReferrals(address)": "1336",
				"cachedIndexTokenomics(address)": "1316",
				"cachedIndexVesting(address)": "1290",
				"changeStateIfAllVestingWasSet()": "infinite",
				"checkIfAllVestingWasSet()": "infinite",
				"checkIfPairIsCreated()": "infinite",
				"emergencyRefund(uint256,uint256)": "infinite",
				"fixedPriceInUsd()": "1095",
				"getInvestorByAddr(address)": "5121",
				"getInvestorByPos(uint256)": "4068",
				"getInvestorsCount()": "1092",
				"getReferralByAddr(address)": "4156",
				"getReferralByPos(uint256)": "3166",
				"getReferralsCount()": "1049",
				"getRoleAdmin(bytes32)": "1227",
				"getRoleMember(bytes32,uint256)": "infinite",
				"getRoleMemberCount(bytes32)": "infinite",
				"getTokenomics()": "infinite",
				"getTotalInvestmentsStatistics()": "1940",
				"getUniswapSupplyPercent()": "infinite",
				"getWalletStatistics(address)": "infinite",
				"grantRole(bytes32,address)": "infinite",
				"grantRolesBulk((bytes32,address)[])": "infinite",
				"hasRole(bytes32,address)": "1439",
				"invest(address)": "infinite",
				"investors(uint256)": "3803",
				"listInvestors(uint256,uint256)": "5778",
				"listReferrals(uint256,uint256)": "4991",
				"markGoalAsReached()": "infinite",
				"prepareAddLiqudity()": "infinite",
				"presaleLockedFor()": "1074",
				"presaleName()": "infinite",
				"presaleVestedFor()": "1097",
				"refPercent()": "1074",
				"referrals(uint256)": "3006",
				"referralsLockedFor()": "1074",
				"referralsVestedFor()": "1097",
				"renounceRole(bytes32,address)": "infinite",
				"revokeRole(bytes32,address)": "infinite",
				"setVestingForInvestorsTokens(uint256,uint256)": "infinite",
				"setVestingForReferralsTokens(uint256,uint256)": "infinite",
				"setVestingForTokenomicsTokens()": "infinite",
				"skipSteps1()": "infinite",
				"skipSteps2(uint256)": "infinite",
				"state()": "1184",
				"supportsInterface(bytes4)": "infinite",
				"telegram()": "infinite",
				"tokenAddress()": "1171",
				"tokenomics(uint256)": "infinite",
				"totalTokenSupply()": "1097",
				"uniswapLiquidityLockedFor()": "1052",
				"updateCaps(uint256,uint256,uint256)": "infinite",
				"updateFixedPriceInUsd(uint256)": "infinite",
				"updateRefPercent(uint256)": "infinite",
				"updateTokenContract(address)": "infinite",
				"updateTokenomics((address,string,uint256,uint256,uint256)[])": "infinite",
				"vesting(uint256)": "5481",
				"website()": "infinite",
				"wethAndTokenPairContract()": "1127"
			},
			"internal": {
				"addInvestor(address,address,uint256)": "infinite",
				"addReferral(address,uint256)": "infinite",
				"addTokenomics(address,string memory,uint256,uint256,uint256)": "infinite",
				"changeState(enum PresaleContract.States)": "infinite",
				"createVestingIfDoesNotExist(address)": "infinite"
			}
		},
		"methodIdentifiers": {
			"BURN_ADDRESS()": "fccc2813",
			"ROLE_ADMIN()": "d391014b",
			"TEAM_FINANCE_ADDRESS()": "091f90c2",
			"UNISWAP_V2_FACTORY_ADDRESS()": "884ec7a9",
			"UNISWAP_V2_ROUTER_ADDRESS()": "a2846323",
			"USDT_TOKEN_ADDRESS()": "4d286a3d",
			"WETH_TOKEN_ADDRESS()": "579a7e1a",
			"addLiquidityOnUniswapV2()": "9b214950",
			"amountOfTokensForInvestors()": "dd74075c",
			"cachedIndexInvestors(address)": "7e4c7eb2",
			"cachedIndexReferrals(address)": "cc138c8e",
			"cachedIndexTokenomics(address)": "01cb5dfd",
			"cachedIndexVesting(address)": "edc7ff2a",
			"changeStateIfAllVestingWasSet()": "c88188a3",
			"checkIfAllVestingWasSet()": "70f1b331",
			"checkIfPairIsCreated()": "0155ecaf",
			"emergencyRefund(uint256,uint256)": "1f96b8ab",
			"fixedPriceInUsd()": "d7ec548e",
			"getInvestorByAddr(address)": "65069863",
			"getInvestorByPos(uint256)": "286777d0",
			"getInvestorsCount()": "ed21187a",
			"getReferralByAddr(address)": "b2c1e72a",
			"getReferralByPos(uint256)": "573620a7",
			"getReferralsCount()": "443926db",
			"getRoleAdmin(bytes32)": "248a9ca3",
			"getRoleMember(bytes32,uint256)": "9010d07c",
			"getRoleMemberCount(bytes32)": "ca15c873",
			"getTokenomics()": "ee2923d9",
			"getTotalInvestmentsStatistics()": "dbcac674",
			"getUniswapSupplyPercent()": "9e57003c",
			"getWalletStatistics(address)": "04215d5a",
			"grantRole(bytes32,address)": "2f2ff15d",
			"grantRolesBulk((bytes32,address)[])": "03ed957f",
			"hasRole(bytes32,address)": "91d14854",
			"invest(address)": "03f9c793",
			"investors(uint256)": "3feb5f2b",
			"listInvestors(uint256,uint256)": "818a36a1",
			"listReferrals(uint256,uint256)": "e70d8fdc",
			"markGoalAsReached()": "42f60cb5",
			"prepareAddLiqudity()": "5f6577a8",
			"presaleLockedFor()": "6d8ca924",
			"presaleName()": "e650e512",
			"presaleVestedFor()": "4175266f",
			"refPercent()": "59d5335b",
			"referrals(uint256)": "80b7c92b",
			"referralsLockedFor()": "cd496b4b",
			"referralsVestedFor()": "8e505f09",
			"renounceRole(bytes32,address)": "36568abe",
			"revokeRole(bytes32,address)": "d547741f",
			"setVestingForInvestorsTokens(uint256,uint256)": "010bd419",
			"setVestingForReferralsTokens(uint256,uint256)": "99f96c51",
			"setVestingForTokenomicsTokens()": "9248b04a",
			"skipSteps1()": "0b293a31",
			"skipSteps2(uint256)": "39fc1128",
			"state()": "c19d93fb",
			"supportsInterface(bytes4)": "01ffc9a7",
			"telegram()": "47ecb665",
			"tokenAddress()": "9d76ea58",
			"tokenomics(uint256)": "087a2daf",
			"totalTokenSupply()": "1ca8b6cb",
			"uniswapLiquidityLockedFor()": "c6c2afc3",
			"updateCaps(uint256,uint256,uint256)": "ebac6505",
			"updateFixedPriceInUsd(uint256)": "7eda5568",
			"updateRefPercent(uint256)": "90139786",
			"updateTokenContract(address)": "989ced26",
			"updateTokenomics((address,string,uint256,uint256,uint256)[])": "dc4b2268",
			"vesting(uint256)": "2ffac82c",
			"website()": "beb0a416",
			"wethAndTokenPairContract()": "9adae351"
		}
	},
	"abi": [
		{
			"inputs": [],
			"stateMutability": "nonpayable",
			"type": "constructor"
		},
		{
			"anonymous": false,
			"inputs": [
				{
					"indexed": true,
					"internalType": "bytes32",
					"name": "role",
					"type": "bytes32"
				},
				{
					"indexed": true,
					"internalType": "bytes32",
					"name": "previousAdminRole",
					"type": "bytes32"
				},
				{
					"indexed": true,
					"internalType": "bytes32",
					"name": "newAdminRole",
					"type": "bytes32"
				}
			],
			"name": "RoleAdminChanged",
			"type": "event"
		},
		{
			"anonymous": false,
			"inputs": [
				{
					"indexed": true,
					"internalType": "bytes32",
					"name": "role",
					"type": "bytes32"
				},
				{
					"indexed": true,
					"internalType": "address",
					"name": "account",
					"type": "address"
				},
				{
					"indexed": true,
					"internalType": "address",
					"name": "sender",
					"type": "address"
				}
			],
			"name": "RoleGranted",
			"type": "event"
		},
		{
			"anonymous": false,
			"inputs": [
				{
					"indexed": true,
					"internalType": "bytes32",
					"name": "role",
					"type": "bytes32"
				},
				{
					"indexed": true,
					"internalType": "address",
					"name": "account",
					"type": "address"
				},
				{
					"indexed": true,
					"internalType": "address",
					"name": "sender",
					"type": "address"
				}
			],
			"name": "RoleRevoked",
			"type": "event"
		},
		{
			"anonymous": false,
			"inputs": [
				{
					"indexed": false,
					"internalType": "enum PresaleContract.States",
					"name": "newState",
					"type": "uint8"
				}
			],
			"name": "StateChanged",
			"type": "event"
		},
		{
			"inputs": [],
			"name": "BURN_ADDRESS",
			"outputs": [
				{
					"internalType": "address",
					"name": "",
					"type": "address"
				}
			],
			"stateMutability": "view",
			"type": "function"
		},
		{
			"inputs": [],
			"name": "ROLE_ADMIN",
			"outputs": [
				{
					"internalType": "bytes32",
					"name": "",
					"type": "bytes32"
				}
			],
			"stateMutability": "view",
			"type": "function"
		},
		{
			"inputs": [],
			"name": "TEAM_FINANCE_ADDRESS",
			"outputs": [
				{
					"internalType": "address",
					"name": "",
					"type": "address"
				}
			],
			"stateMutability": "view",
			"type": "function"
		},
		{
			"inputs": [],
			"name": "UNISWAP_V2_FACTORY_ADDRESS",
			"outputs": [
				{
					"internalType": "address",
					"name": "",
					"type": "address"
				}
			],
			"stateMutability": "view",
			"type": "function"
		},
		{
			"inputs": [],
			"name": "UNISWAP_V2_ROUTER_ADDRESS",
			"outputs": [
				{
					"internalType": "address",
					"name": "",
					"type": "address"
				}
			],
			"stateMutability": "view",
			"type": "function"
		},
		{
			"inputs": [],
			"name": "USDT_TOKEN_ADDRESS",
			"outputs": [
				{
					"internalType": "address",
					"name": "",
					"type": "address"
				}
			],
			"stateMutability": "view",
			"type": "function"
		},
		{
			"inputs": [],
			"name": "WETH_TOKEN_ADDRESS",
			"outputs": [
				{
					"internalType": "address",
					"name": "",
					"type": "address"
				}
			],
			"stateMutability": "view",
			"type": "function"
		},
		{
			"inputs": [],
			"name": "addLiquidityOnUniswapV2",
			"outputs": [],
			"stateMutability": "nonpayable",
			"type": "function"
		},
		{
			"inputs": [],
			"name": "amountOfTokensForInvestors",
			"outputs": [
				{
					"internalType": "uint256",
					"name": "",
					"type": "uint256"
				}
			],
			"stateMutability": "view",
			"type": "function"
		},
		{
			"inputs": [
				{
					"internalType": "address",
					"name": "",
					"type": "address"
				}
			],
			"name": "cachedIndexInvestors",
			"outputs": [
				{
					"internalType": "uint256",
					"name": "",
					"type": "uint256"
				}
			],
			"stateMutability": "view",
			"type": "function"
		},
		{
			"inputs": [
				{
					"internalType": "address",
					"name": "",
					"type": "address"
				}
			],
			"name": "cachedIndexReferrals",
			"outputs": [
				{
					"internalType": "uint256",
					"name": "",
					"type": "uint256"
				}
			],
			"stateMutability": "view",
			"type": "function"
		},
		{
			"inputs": [
				{
					"internalType": "address",
					"name": "",
					"type": "address"
				}
			],
			"name": "cachedIndexTokenomics",
			"outputs": [
				{
					"internalType": "uint256",
					"name": "",
					"type": "uint256"
				}
			],
			"stateMutability": "view",
			"type": "function"
		},
		{
			"inputs": [
				{
					"internalType": "address",
					"name": "",
					"type": "address"
				}
			],
			"name": "cachedIndexVesting",
			"outputs": [
				{
					"internalType": "uint256",
					"name": "",
					"type": "uint256"
				}
			],
			"stateMutability": "view",
			"type": "function"
		},
		{
			"inputs": [],
			"name": "changeStateIfAllVestingWasSet",
			"outputs": [],
			"stateMutability": "nonpayable",
			"type": "function"
		},
		{
			"inputs": [],
			"name": "checkIfAllVestingWasSet",
			"outputs": [
				{
					"internalType": "bool",
					"name": "",
					"type": "bool"
				}
			],
			"stateMutability": "view",
			"type": "function"
		},
		{
			"inputs": [],
			"name": "checkIfPairIsCreated",
			"outputs": [],
			"stateMutability": "nonpayable",
			"type": "function"
		},
		{
			"inputs": [
				{
					"internalType": "uint256",
					"name": "offset",
					"type": "uint256"
				},
				{
					"internalType": "uint256",
					"name": "limit",
					"type": "uint256"
				}
			],
			"name": "emergencyRefund",
			"outputs": [],
			"stateMutability": "nonpayable",
			"type": "function"
		},
		{
			"inputs": [],
			"name": "fixedPriceInUsd",
			"outputs": [
				{
					"internalType": "uint256",
					"name": "",
					"type": "uint256"
				}
			],
			"stateMutability": "view",
			"type": "function"
		},
		{
			"inputs": [
				{
					"internalType": "address",
					"name": "addr",
					"type": "address"
				}
			],
			"name": "getInvestorByAddr",
			"outputs": [
				{
					"components": [
						{
							"internalType": "address",
							"name": "investorAddr",
							"type": "address"
						},
						{
							"internalType": "address",
							"name": "referralAddr",
							"type": "address"
						},
						{
							"internalType": "uint256",
							"name": "wethValue",
							"type": "uint256"
						}
					],
					"internalType": "struct PresaleContract.Investor",
					"name": "",
					"type": "tuple"
				}
			],
			"stateMutability": "view",
			"type": "function"
		},
		{
			"inputs": [
				{
					"internalType": "uint256",
					"name": "pos",
					"type": "uint256"
				}
			],
			"name": "getInvestorByPos",
			"outputs": [
				{
					"components": [
						{
							"internalType": "address",
							"name": "investorAddr",
							"type": "address"
						},
						{
							"internalType": "address",
							"name": "referralAddr",
							"type": "address"
						},
						{
							"internalType": "uint256",
							"name": "wethValue",
							"type": "uint256"
						}
					],
					"internalType": "struct PresaleContract.Investor",
					"name": "",
					"type": "tuple"
				}
			],
			"stateMutability": "view",
			"type": "function"
		},
		{
			"inputs": [],
			"name": "getInvestorsCount",
			"outputs": [
				{
					"internalType": "uint256",
					"name": "",
					"type": "uint256"
				}
			],
			"stateMutability": "view",
			"type": "function"
		},
		{
			"inputs": [
				{
					"internalType": "address",
					"name": "addr",
					"type": "address"
				}
			],
			"name": "getReferralByAddr",
			"outputs": [
				{
					"components": [
						{
							"internalType": "address",
							"name": "referralAddr",
							"type": "address"
						},
						{
							"internalType": "uint256",
							"name": "earnings",
							"type": "uint256"
						}
					],
					"internalType": "struct PresaleContract.Referral",
					"name": "",
					"type": "tuple"
				}
			],
			"stateMutability": "view",
			"type": "function"
		},
		{
			"inputs": [
				{
					"internalType": "uint256",
					"name": "pos",
					"type": "uint256"
				}
			],
			"name": "getReferralByPos",
			"outputs": [
				{
					"components": [
						{
							"internalType": "address",
							"name": "referralAddr",
							"type": "address"
						},
						{
							"internalType": "uint256",
							"name": "earnings",
							"type": "uint256"
						}
					],
					"internalType": "struct PresaleContract.Referral",
					"name": "",
					"type": "tuple"
				}
			],
			"stateMutability": "view",
			"type": "function"
		},
		{
			"inputs": [],
			"name": "getReferralsCount",
			"outputs": [
				{
					"internalType": "uint256",
					"name": "",
					"type": "uint256"
				}
			],
			"stateMutability": "view",
			"type": "function"
		},
		{
			"inputs": [
				{
					"internalType": "bytes32",
					"name": "role",
					"type": "bytes32"
				}
			],
			"name": "getRoleAdmin",
			"outputs": [
				{
					"internalType": "bytes32",
					"name": "",
					"type": "bytes32"
				}
			],
			"stateMutability": "view",
			"type": "function"
		},
		{
			"inputs": [
				{
					"internalType": "bytes32",
					"name": "role",
					"type": "bytes32"
				},
				{
					"internalType": "uint256",
					"name": "index",
					"type": "uint256"
				}
			],
			"name": "getRoleMember",
			"outputs": [
				{
					"internalType": "address",
					"name": "",
					"type": "address"
				}
			],
			"stateMutability": "view",
			"type": "function"
		},
		{
			"inputs": [
				{
					"internalType": "bytes32",
					"name": "role",
					"type": "bytes32"
				}
			],
			"name": "getRoleMemberCount",
			"outputs": [
				{
					"internalType": "uint256",
					"name": "",
					"type": "uint256"
				}
			],
			"stateMutability": "view",
			"type": "function"
		},
		{
			"inputs": [],
			"name": "getTokenomics",
			"outputs": [
				{
					"components": [
						{
							"internalType": "address",
							"name": "tokenomicsAddr",
							"type": "address"
						},
						{
							"internalType": "string",
							"name": "tokenomicsName",
							"type": "string"
						},
						{
							"internalType": "uint256",
							"name": "tokenomicsPercentage",
							"type": "uint256"
						},
						{
							"internalType": "uint256",
							"name": "tokenomicsLockedForXSeconds",
							"type": "uint256"
						},
						{
							"internalType": "uint256",
							"name": "tokenomicsVestedForXSeconds",
							"type": "uint256"
						}
					],
					"internalType": "struct PresaleContract.Tokenomics[]",
					"name": "",
					"type": "tuple[]"
				}
			],
			"stateMutability": "view",
			"type": "function"
		},
		{
			"inputs": [],
			"name": "getTotalInvestmentsStatistics",
			"outputs": [
				{
					"internalType": "uint256",
					"name": "",
					"type": "uint256"
				},
				{
					"internalType": "uint256",
					"name": "",
					"type": "uint256"
				}
			],
			"stateMutability": "view",
			"type": "function"
		},
		{
			"inputs": [],
			"name": "getUniswapSupplyPercent",
			"outputs": [
				{
					"internalType": "uint256",
					"name": "",
					"type": "uint256"
				}
			],
			"stateMutability": "view",
			"type": "function"
		},
		{
			"inputs": [
				{
					"internalType": "address",
					"name": "addr",
					"type": "address"
				}
			],
			"name": "getWalletStatistics",
			"outputs": [
				{
					"internalType": "uint256",
					"name": "",
					"type": "uint256"
				},
				{
					"internalType": "uint256",
					"name": "",
					"type": "uint256"
				},
				{
					"internalType": "uint256",
					"name": "",
					"type": "uint256"
				},
				{
					"internalType": "uint256",
					"name": "",
					"type": "uint256"
				}
			],
			"stateMutability": "view",
			"type": "function"
		},
		{
			"inputs": [
				{
					"internalType": "bytes32",
					"name": "role",
					"type": "bytes32"
				},
				{
					"internalType": "address",
					"name": "account",
					"type": "address"
				}
			],
			"name": "grantRole",
			"outputs": [],
			"stateMutability": "nonpayable",
			"type": "function"
		},
		{
			"inputs": [
				{
					"components": [
						{
							"internalType": "bytes32",
							"name": "role",
							"type": "bytes32"
						},
						{
							"internalType": "address",
							"name": "addr",
							"type": "address"
						}
					],
					"internalType": "struct RoleAccess[]",
					"name": "roles",
					"type": "tuple[]"
				}
			],
			"name": "grantRolesBulk",
			"outputs": [],
			"stateMutability": "nonpayable",
			"type": "function"
		},
		{
			"inputs": [
				{
					"internalType": "bytes32",
					"name": "role",
					"type": "bytes32"
				},
				{
					"internalType": "address",
					"name": "account",
					"type": "address"
				}
			],
			"name": "hasRole",
			"outputs": [
				{
					"internalType": "bool",
					"name": "",
					"type": "bool"
				}
			],
			"stateMutability": "view",
			"type": "function"
		},
		{
			"inputs": [
				{
					"internalType": "address",
					"name": "referralAddr",
					"type": "address"
				}
			],
			"name": "invest",
			"outputs": [],
			"stateMutability": "payable",
			"type": "function"
		},
		{
			"inputs": [
				{
					"internalType": "uint256",
					"name": "",
					"type": "uint256"
				}
			],
			"name": "investors",
			"outputs": [
				{
					"internalType": "address",
					"name": "investorAddr",
					"type": "address"
				},
				{
					"internalType": "address",
					"name": "referralAddr",
					"type": "address"
				},
				{
					"internalType": "uint256",
					"name": "wethValue",
					"type": "uint256"
				}
			],
			"stateMutability": "view",
			"type": "function"
		},
		{
			"inputs": [
				{
					"internalType": "uint256",
					"name": "offset",
					"type": "uint256"
				},
				{
					"internalType": "uint256",
					"name": "limit",
					"type": "uint256"
				}
			],
			"name": "listInvestors",
			"outputs": [
				{
					"components": [
						{
							"internalType": "address",
							"name": "investorAddr",
							"type": "address"
						},
						{
							"internalType": "address",
							"name": "referralAddr",
							"type": "address"
						},
						{
							"internalType": "uint256",
							"name": "wethValue",
							"type": "uint256"
						}
					],
					"internalType": "struct PresaleContract.Investor[]",
					"name": "",
					"type": "tuple[]"
				}
			],
			"stateMutability": "view",
			"type": "function"
		},
		{
			"inputs": [
				{
					"internalType": "uint256",
					"name": "offset",
					"type": "uint256"
				},
				{
					"internalType": "uint256",
					"name": "limit",
					"type": "uint256"
				}
			],
			"name": "listReferrals",
			"outputs": [
				{
					"components": [
						{
							"internalType": "address",
							"name": "referralAddr",
							"type": "address"
						},
						{
							"internalType": "uint256",
							"name": "earnings",
							"type": "uint256"
						}
					],
					"internalType": "struct PresaleContract.Referral[]",
					"name": "",
					"type": "tuple[]"
				}
			],
			"stateMutability": "view",
			"type": "function"
		},
		{
			"inputs": [],
			"name": "markGoalAsReached",
			"outputs": [],
			"stateMutability": "nonpayable",
			"type": "function"
		},
		{
			"inputs": [],
			"name": "prepareAddLiqudity",
			"outputs": [],
			"stateMutability": "nonpayable",
			"type": "function"
		},
		{
			"inputs": [],
			"name": "presaleLockedFor",
			"outputs": [
				{
					"internalType": "uint256",
					"name": "",
					"type": "uint256"
				}
			],
			"stateMutability": "view",
			"type": "function"
		},
		{
			"inputs": [],
			"name": "presaleName",
			"outputs": [
				{
					"internalType": "string",
					"name": "",
					"type": "string"
				}
			],
			"stateMutability": "view",
			"type": "function"
		},
		{
			"inputs": [],
			"name": "presaleVestedFor",
			"outputs": [
				{
					"internalType": "uint256",
					"name": "",
					"type": "uint256"
				}
			],
			"stateMutability": "view",
			"type": "function"
		},
		{
			"inputs": [],
			"name": "refPercent",
			"outputs": [
				{
					"internalType": "uint256",
					"name": "",
					"type": "uint256"
				}
			],
			"stateMutability": "view",
			"type": "function"
		},
		{
			"inputs": [
				{
					"internalType": "uint256",
					"name": "",
					"type": "uint256"
				}
			],
			"name": "referrals",
			"outputs": [
				{
					"internalType": "address",
					"name": "referralAddr",
					"type": "address"
				},
				{
					"internalType": "uint256",
					"name": "earnings",
					"type": "uint256"
				}
			],
			"stateMutability": "view",
			"type": "function"
		},
		{
			"inputs": [],
			"name": "referralsLockedFor",
			"outputs": [
				{
					"internalType": "uint256",
					"name": "",
					"type": "uint256"
				}
			],
			"stateMutability": "view",
			"type": "function"
		},
		{
			"inputs": [],
			"name": "referralsVestedFor",
			"outputs": [
				{
					"internalType": "uint256",
					"name": "",
					"type": "uint256"
				}
			],
			"stateMutability": "view",
			"type": "function"
		},
		{
			"inputs": [
				{
					"internalType": "bytes32",
					"name": "role",
					"type": "bytes32"
				},
				{
					"internalType": "address",
					"name": "account",
					"type": "address"
				}
			],
			"name": "renounceRole",
			"outputs": [],
			"stateMutability": "nonpayable",
			"type": "function"
		},
		{
			"inputs": [
				{
					"internalType": "bytes32",
					"name": "role",
					"type": "bytes32"
				},
				{
					"internalType": "address",
					"name": "account",
					"type": "address"
				}
			],
			"name": "revokeRole",
			"outputs": [],
			"stateMutability": "nonpayable",
			"type": "function"
		},
		{
			"inputs": [
				{
					"internalType": "uint256",
					"name": "offset",
					"type": "uint256"
				},
				{
					"internalType": "uint256",
					"name": "limit",
					"type": "uint256"
				}
			],
			"name": "setVestingForInvestorsTokens",
			"outputs": [],
			"stateMutability": "nonpayable",
			"type": "function"
		},
		{
			"inputs": [
				{
					"internalType": "uint256",
					"name": "offset",
					"type": "uint256"
				},
				{
					"internalType": "uint256",
					"name": "limit",
					"type": "uint256"
				}
			],
			"name": "setVestingForReferralsTokens",
			"outputs": [],
			"stateMutability": "nonpayable",
			"type": "function"
		},
		{
			"inputs": [],
			"name": "setVestingForTokenomicsTokens",
			"outputs": [],
			"stateMutability": "nonpayable",
			"type": "function"
		},
		{
			"inputs": [],
			"name": "skipSteps1",
			"outputs": [],
			"stateMutability": "nonpayable",
			"type": "function"
		},
		{
			"inputs": [
				{
					"internalType": "uint256",
					"name": "limit",
					"type": "uint256"
				}
			],
			"name": "skipSteps2",
			"outputs": [],
			"stateMutability": "nonpayable",
			"type": "function"
		},
		{
			"inputs": [],
			"name": "state",
			"outputs": [
				{
					"internalType": "enum PresaleContract.States",
					"name": "",
					"type": "uint8"
				}
			],
			"stateMutability": "view",
			"type": "function"
		},
		{
			"inputs": [
				{
					"internalType": "bytes4",
					"name": "interfaceId",
					"type": "bytes4"
				}
			],
			"name": "supportsInterface",
			"outputs": [
				{
					"internalType": "bool",
					"name": "",
					"type": "bool"
				}
			],
			"stateMutability": "view",
			"type": "function"
		},
		{
			"inputs": [],
			"name": "telegram",
			"outputs": [
				{
					"internalType": "string",
					"name": "",
					"type": "string"
				}
			],
			"stateMutability": "view",
			"type": "function"
		},
		{
			"inputs": [],
			"name": "tokenAddress",
			"outputs": [
				{
					"internalType": "address",
					"name": "",
					"type": "address"
				}
			],
			"stateMutability": "view",
			"type": "function"
		},
		{
			"inputs": [
				{
					"internalType": "uint256",
					"name": "",
					"type": "uint256"
				}
			],
			"name": "tokenomics",
			"outputs": [
				{
					"internalType": "address",
					"name": "tokenomicsAddr",
					"type": "address"
				},
				{
					"internalType": "string",
					"name": "tokenomicsName",
					"type": "string"
				},
				{
					"internalType": "uint256",
					"name": "tokenomicsPercentage",
					"type": "uint256"
				},
				{
					"internalType": "uint256",
					"name": "tokenomicsLockedForXSeconds",
					"type": "uint256"
				},
				{
					"internalType": "uint256",
					"name": "tokenomicsVestedForXSeconds",
					"type": "uint256"
				}
			],
			"stateMutability": "view",
			"type": "function"
		},
		{
			"inputs": [],
			"name": "totalTokenSupply",
			"outputs": [
				{
					"internalType": "uint256",
					"name": "",
					"type": "uint256"
				}
			],
			"stateMutability": "view",
			"type": "function"
		},
		{
			"inputs": [],
			"name": "uniswapLiquidityLockedFor",
			"outputs": [
				{
					"internalType": "uint256",
					"name": "",
					"type": "uint256"
				}
			],
			"stateMutability": "view",
			"type": "function"
		},
		{
			"inputs": [
				{
					"internalType": "uint256",
					"name": "_maxWethCap",
					"type": "uint256"
				},
				{
					"internalType": "uint256",
					"name": "_perWalletMinWeth",
					"type": "uint256"
				},
				{
					"internalType": "uint256",
					"name": "_perWalletMaxWeth",
					"type": "uint256"
				}
			],
			"name": "updateCaps",
			"outputs": [],
			"stateMutability": "nonpayable",
			"type": "function"
		},
		{
			"inputs": [
				{
					"internalType": "uint256",
					"name": "_value",
					"type": "uint256"
				}
			],
			"name": "updateFixedPriceInUsd",
			"outputs": [],
			"stateMutability": "nonpayable",
			"type": "function"
		},
		{
			"inputs": [
				{
					"internalType": "uint256",
					"name": "_value",
					"type": "uint256"
				}
			],
			"name": "updateRefPercent",
			"outputs": [],
			"stateMutability": "nonpayable",
			"type": "function"
		},
		{
			"inputs": [
				{
					"internalType": "address",
					"name": "_value",
					"type": "address"
				}
			],
			"name": "updateTokenContract",
			"outputs": [],
			"stateMutability": "nonpayable",
			"type": "function"
		},
		{
			"inputs": [
				{
					"components": [
						{
							"internalType": "address",
							"name": "tokenomicsAddr",
							"type": "address"
						},
						{
							"internalType": "string",
							"name": "tokenomicsName",
							"type": "string"
						},
						{
							"internalType": "uint256",
							"name": "tokenomicsPercentage",
							"type": "uint256"
						},
						{
							"internalType": "uint256",
							"name": "tokenomicsLockedForXSeconds",
							"type": "uint256"
						},
						{
							"internalType": "uint256",
							"name": "tokenomicsVestedForXSeconds",
							"type": "uint256"
						}
					],
					"internalType": "struct PresaleContract.Tokenomics[]",
					"name": "_tokenomics",
					"type": "tuple[]"
				}
			],
			"name": "updateTokenomics",
			"outputs": [],
			"stateMutability": "nonpayable",
			"type": "function"
		},
		{
			"inputs": [
				{
					"internalType": "uint256",
					"name": "",
					"type": "uint256"
				}
			],
			"name": "vesting",
			"outputs": [
				{
					"internalType": "address",
					"name": "vestingAddr",
					"type": "address"
				},
				{
					"internalType": "uint256",
					"name": "tokensReserved",
					"type": "uint256"
				},
				{
					"internalType": "uint256",
					"name": "tokensSent",
					"type": "uint256"
				},
				{
					"internalType": "uint256",
					"name": "lockedForXSeconds",
					"type": "uint256"
				},
				{
					"internalType": "uint256",
					"name": "vestedForXSeconds",
					"type": "uint256"
				}
			],
			"stateMutability": "view",
			"type": "function"
		},
		{
			"inputs": [],
			"name": "website",
			"outputs": [
				{
					"internalType": "string",
					"name": "",
					"type": "string"
				}
			],
			"stateMutability": "view",
			"type": "function"
		},
		{
			"inputs": [],
			"name": "wethAndTokenPairContract",
			"outputs": [
				{
					"internalType": "address",
					"name": "",
					"type": "address"
				}
			],
			"stateMutability": "view",
			"type": "function"
		},
		{
			"stateMutability": "payable",
			"type": "receive"
		}
	]
}