{
	"data": {
		"bytecode": {
			"linkReferences": {},
			"object": "608060405234801561001057600080fd5b50615999806100206000396000f3fe60806040523480156200001157600080fd5b5060043610620000465760003560e01c806307a96a68146200004b5780639617fd43146200007f578063f355c5921462000096575b600080fd5b620000626200005c36600462000b1a565b620000bc565b6040516001600160a01b0390911681526020015b60405180910390f35b6200006262000090366004620008e8565b620000e7565b620000ad620000a7366004620008b0565b62000198565b60405162000076919062000cf6565b60008181548110620000cd57600080fd5b6000918252602090912001546001600160a01b0316905081565b600080338484604051620000fb9062000356565b620001099392919062000bfa565b604051809103906000f08015801562000126573d6000803e3d6000fd5b5081546001808201845560009384526020842090910180546001600160a01b0319166001600160a01b039390931692909217909155815462000169919062001009565b815481106200017c576200017c6200108a565b6000918252602090912001546001600160a01b03169392505050565b6060600082620001aa60018662001009565b620001b6919062000fe7565b90506000620001c6848662000fe7565b6000549091508111620001da5780620001de565b6000545b90506000828211620001f2576000620001fe565b620001fe838362001009565b9050806001600160401b038111156200021b576200021b620010a0565b6040519080825280602002602001820160405280156200025857816020015b6200024462000364565b8152602001906001900390816200023a5790505b509350825b828110156200034b57600081815481106200027c576200027c6200108a565b60009182526020909120015460405163599eb00560e11b81526001600160a01b038a811660048301529091169063b33d600a9060240160006040518083038186803b158015620002cb57600080fd5b505afa158015620002e0573d6000803e3d6000fd5b505050506040513d6000823e601f3d908101601f191682016040526200030a919081019062000a3f565b8562000317868462001009565b815181106200032a576200032a6200108a565b60200260200101819052508080620003429062001056565b9150506200025d565b505050509392505050565b61489480620010d083390190565b6040518060c00160405280620003c560405180610100016040528060006001600160a01b0316815260200160608152602001600081526020016000815260200160001515815260200160001515815260200160608152602001606081525090565b8152602001620004066040518060a0016040528060006001600160a01b03168152602001600081526020016000815260200160008152602001600081525090565b8152602001620004476040518060a0016040528060006001600160a01b03168152602001600081526020016000815260200160008152602001600081525090565b81526020016060815260200160008152602001600081525090565b80356200046f81620010b6565b919050565b80516200046f81620010b6565b600082601f8301126200049357600080fd5b81516020620004ac620004a68362000f97565b62000f64565b80838252828201915082860187848660051b8901011115620004cd57600080fd5b60005b85811015620005865781516001600160401b0380821115620004f157600080fd5b9089019060a0828c03601f19018113156200050b57600080fd5b6200051562000ec8565b888401516200052481620010b6565b8152604084810151848111156200053a57600080fd5b6200054a8f8c83890101620005fa565b838c01525060608581015191830191909152608080860151918301919091529190930151908301525084529284019290840190600101620004d0565b5090979650505050505050565b805180151581146200046f57600080fd5b600082601f830112620005b657600080fd5b8135620005c7620004a68262000fbd565b818152846020838601011115620005dd57600080fd5b816020850160208301376000918101602001919091529392505050565b600082601f8301126200060c57600080fd5b81516200061d620004a68262000fbd565b8181528460208386010111156200063357600080fd5b6200064682602083016020870162001023565b949350505050565b600061010082840312156200066257600080fd5b6200066c62000ef3565b9050620006798262000474565b815260208201516001600160401b03808211156200069657600080fd5b620006a485838601620005fa565b60208401526040840151604084015260608401516060840152620006cb6080850162000593565b6080840152620006de60a0850162000593565b60a084015260c0840151915080821115620006f857600080fd5b6200070685838601620005fa565b60c084015260e08401519150808211156200072057600080fd5b506200072f84828501620005fa565b60e08301525092915050565b60006101a082840312156200074f57600080fd5b6200075962000f19565b9050620007668262000462565b815260208201356001600160401b03808211156200078357600080fd5b6200079185838601620005a4565b60208401526040840135915080821115620007ab57600080fd5b620007b985838601620005a4565b60408401526060840135915080821115620007d357600080fd5b50620007e284828501620005a4565b6060830152506080820135608082015260a082013560a082015260c082013560c082015260e082013560e082015261010080830135818301525061012080830135818301525061014080830135818301525061016080830135818301525061018080830135818301525092915050565b600060a082840312156200086557600080fd5b6200086f62000ec8565b905081516200087e81620010b6565b808252506020820151602082015260408201516040820152606082015160608201526080820151608082015292915050565b600080600060608486031215620008c657600080fd5b8335620008d381620010b6565b95602085013595506040909401359392505050565b60008060408385031215620008fc57600080fd5b82356001600160401b03808211156200091457600080fd5b818501915085601f8301126200092957600080fd5b813560206200093c620004a68362000f97565b8083825282820191508286018a848660051b89010111156200095d57600080fd5b60005b8581101562000a0c578135878111156200097957600080fd5b880160a0818e03601f190112156200099057600080fd5b6200099a62000ec8565b86820135620009a981620010b6565b8152604082013589811115620009be57600080fd5b620009ce8f8983860101620005a4565b8883015250606082013560408201526080820135606082015260a0820135608082015280865250508484019350848201915060018101905062000960565b5090975050508601359250508082111562000a2657600080fd5b5062000a35858286016200073b565b9150509250929050565b60006020828403121562000a5257600080fd5b81516001600160401b038082111562000a6a57600080fd5b908301906101c0828603121562000a8057600080fd5b62000a8a62000f3f565b82518281111562000a9a57600080fd5b62000aa8878286016200064e565b82525062000aba866020850162000852565b602082015262000ace8660c0850162000852565b60408201526101608301518281111562000ae757600080fd5b62000af58782860162000481565b60608301525061018083015160808201526101a09092015160a0830152509392505050565b60006020828403121562000b2d57600080fd5b5035919050565b600081518084526020808501808196508360051b8101915082860160005b8581101562000bbf578284038952815180516001600160a01b031685528581015160a08787018190529062000b8a8288018262000bcc565b604084810151908901526060808501519089015260809384015193909701929092525050978401979084019060010162000b52565b5091979650505050505050565b6000815180845262000be681602086016020860162001023565b601f01601f19169290920160200192915050565b6001600160a01b038416815260606020820181905260009062000c209083018562000b34565b828103604084015283516001600160a01b031681526101a0602085015181602084015262000c518284018262000bcc565b9150506040850151828203604084015262000c6d828262000bcc565b9150506060850151828203606084015262000c89828262000bcc565b6080878101519085015260a0808801519085015260c0808801519085015260e0808801519085015261010080880151908501526101208088015190850152610140808801519085015261016080880151908501526101809687015196909301959095525095945050505050565b60006020808301818452808551808352604092508286019150828160051b87010184880160005b8381101562000eba57603f19898403018552815180516101c080865281516001600160a01b031690860152888101516101006101e08701529062000d666102c087018362000bcc565b91508881015161020087015260608082015161022088015260808083015162000d946102408a018215159052565b5060a08381015115156102608a015260c0808501518a87036101bf199081016102808d015262000dc5888362000bcc565b975060e08701519650808c8903016102a08d0152505062000de7868662000bcc565b95508d870151945062000e2d8e8b018680516001600160a01b03168252602080820151908301526040808201519083015260608082015190830152608090810151910152565b8c870151945062000e71818b018680516001600160a01b03168252602080820151908301526040808201519083015260608082015190830152608090810151910152565b508286015193508885036101608a015262000e8d858562000b34565b918601516101808a0152909401516101a09097019690965250509487019492509086019060010162000d1d565b509098975050505050505050565b60405160a081016001600160401b038111828210171562000eed5762000eed620010a0565b60405290565b60405161010081016001600160401b038111828210171562000eed5762000eed620010a0565b6040516101a081016001600160401b038111828210171562000eed5762000eed620010a0565b60405160c081016001600160401b038111828210171562000eed5762000eed620010a0565b604051601f8201601f191681016001600160401b038111828210171562000f8f5762000f8f620010a0565b604052919050565b60006001600160401b0382111562000fb35762000fb3620010a0565b5060051b60200190565b60006001600160401b0382111562000fd95762000fd9620010a0565b50601f01601f191660200190565b600081600019048311821515161562001004576200100462001074565b500290565b6000828210156200101e576200101e62001074565b500390565b60005b838110156200104057818101518382015260200162001026565b8381111562001050576000848401525b50505050565b60006000198214156200106d576200106d62001074565b5060010190565b634e487b7160e01b600052601160045260246000fd5b634e487b7160e01b600052603260045260246000fd5b634e487b7160e01b600052604160045260246000fd5b6001600160a01b0381168114620010cc57600080fd5b5056fe608060405261c3506009553480156200001757600080fd5b5060405162004894380380620048948339810160408190526200003a9162000662565b600080546001600160a01b0319163390811782556040519091829160008051602062004874833981519152908290a350600080546001600160a01b0319166001600160a01b038516908117825560405190919060008051602062004874833981519152908290a360005b8251811015620000f057620000db838281518110620000c757620000c762000935565b6020026020010151620001e860201b60201c565b80620000e781620008eb565b915050620000a4565b508051600f80546001600160a01b0319166001600160a01b0390921691909117815560208083015180518493926200012e92601092910190620003f3565b50604082015180516200014c916002840191602090910190620003f3565b50606082015180516200016a916003840191602090910190620003f3565b506080820151600482015560a0820151600582015560c0820151600682015560e0820151600782015561010082015160088201556101208201516009820155610140820151600a820155610160820151600b8083019190915561018090920151600c90910155429055620001df60006200038a565b50505062000961565b80516001600160a01b0316600090815260076020526040902054620002d9576008805460018101825560009190915281517ff3f7a9fe364faab93b216da50a3214154f22a0a2b415b23a84c8169e8b636ee3600590920291820180546001600160a01b0319166001600160a01b03909216919091178155602080840151805185946200029b937ff3f7a9fe364faab93b216da50a3214154f22a0a2b415b23a84c8169e8b636ee4909101920190620003f3565b5060408281015160028301556060830151600383015560809092015160049091015560085491516001600160a01b0316600090815260076020522055565b80516001600160a01b03166000908152600760205260409020548190600890620003069060019062000894565b8154811062000319576200031962000935565b600091825260209182902083516005929092020180546001600160a01b0319166001600160a01b0390921691909117815582820151805191926200036692600185019290910190620003f3565b50604082015160028201556060820151600382015560809091015160049091015550565b6000805482919060ff60a01b1916600160a01b836007811115620003b257620003b26200091f565b02179055507f551dc40198cc79684bb69e4931dba4ac16e4598792ee1c0a5000aeea366d7bb681604051620003e89190620007e7565b60405180910390a150565b8280546200040190620008ae565b90600052602060002090601f01602090048101928262000425576000855562000470565b82601f106200044057805160ff191683800117855562000470565b8280016001018555821562000470579182015b828111156200047057825182559160200191906001019062000453565b506200047e92915062000482565b5090565b5b808211156200047e576000815560010162000483565b80516001600160a01b0381168114620004b157600080fd5b919050565b600082601f830112620004c857600080fd5b81516001600160401b03811115620004e457620004e46200094b565b6020620004fa601f8301601f1916820162000861565b82815285828487010111156200050f57600080fd5b60005b838110156200052f57858101830151828201840152820162000512565b83811115620005415760008385840101525b5095945050505050565b60006101a082840312156200055f57600080fd5b6200056962000810565b9050620005768262000499565b815260208201516001600160401b03808211156200059357600080fd5b620005a185838601620004b6565b60208401526040840151915080821115620005bb57600080fd5b620005c985838601620004b6565b60408401526060840151915080821115620005e357600080fd5b50620005f284828501620004b6565b6060830152506080820151608082015260a082015160a082015260c082015160c082015260e082015160e082015261010080830151818301525061012080830151818301525061014080830151818301525061016080830151818301525061018080830151818301525092915050565b6000806000606084860312156200067857600080fd5b620006838462000499565b60208501519093506001600160401b0380821115620006a157600080fd5b818601915086601f830112620006b657600080fd5b815181811115620006cb57620006cb6200094b565b620006dc60208260051b0162000861565b80828252602082019150602085018a60208560051b88010111156200070057600080fd5b60005b84811015620007b2578151868111156200071c57600080fd5b870160a0818e03601f190112156200073357600080fd5b6200073d6200083c565b6200074b6020830162000499565b81526040820151888111156200076057600080fd5b620007718f602083860101620004b6565b602083015250606082015160408201526080820151606082015260a08201516080820152808652505060208401935060208201915060018101905062000703565b505060408901519096509350505080821115620007ce57600080fd5b50620007dd868287016200054b565b9150509250925092565b60208101600883106200080a57634e487b7160e01b600052602160045260246000fd5b91905290565b6040516101a081016001600160401b03811182821017156200083657620008366200094b565b60405290565b60405160a081016001600160401b03811182821017156200083657620008366200094b565b604051601f8201601f191681016001600160401b03811182821017156200088c576200088c6200094b565b604052919050565b600082821015620008a957620008a962000909565b500390565b600181811c90821680620008c357607f821691505b60208210811415620008e557634e487b7160e01b600052602260045260246000fd5b50919050565b600060001982141562000902576200090262000909565b5060010190565b634e487b7160e01b600052601160045260246000fd5b634e487b7160e01b600052602160045260246000fd5b634e487b7160e01b600052603260045260246000fd5b634e487b7160e01b600052604160045260246000fd5b613f0380620009716000396000f3fe6080604052600436106101a05760003560e01c80638da5cb5b116100ec578063dd74075c1161008a578063ee2923d911610064578063ee2923d914610478578063f2fde38b1461049a578063f9c75699146104ba578063fedda89c146104da57600080fd5b8063dd74075c14610407578063e06174e41461041d578063e70d8fdc1461044b57600080fd5b80639b214950116100c65780639b21495014610382578063b33d600a14610397578063c19d93fb146103c4578063ca71d9f4146103f257600080fd5b80638da5cb5b146103255780639248b04a1461034d57806399f96c511461036257600080fd5b80631f96b8ab116101595780635f6577a8116101335780635f6577a8146102a957806370f1b331146102be578063715018a6146102e3578063818a36a1146102f857600080fd5b80631f96b8ab1461025457806339fc11281461027457806342f60cb51461029457600080fd5b8063010bd419146101ac5780630155ecaf146101ce5780630346920d146101e357806303f9c793146102035780630b293a31146102165780631ca8b6cb1461022b57600080fd5b366101a757005b600080fd5b3480156101b857600080fd5b506101cc6101c7366004613605565b6104ef565b005b3480156101da57600080fd5b506101cc610797565b3480156101ef57600080fd5b506101cc6101fe366004613597565b610a3d565b6101cc61021136600461353b565b610a79565b34801561022257600080fd5b506101cc610dc2565b34801561023757600080fd5b50610241600d5481565b6040519081526020015b60405180910390f35b34801561026057600080fd5b506101cc61026f366004613605565b610dda565b34801561028057600080fd5b506101cc61028f3660046135d3565b610fd3565b3480156102a057600080fd5b506101cc61101d565b3480156102b557600080fd5b506101cc6110bd565b3480156102ca57600080fd5b506102d3611537565b604051901515815260200161024b565b3480156102ef57600080fd5b506101cc61167f565b34801561030457600080fd5b50610318610313366004613605565b6116f3565b60405161024b91906137e4565b34801561033157600080fd5b506000546040516001600160a01b03909116815260200161024b565b34801561035957600080fd5b506101cc611846565b34801561036e57600080fd5b506101cc61037d366004613605565b611a78565b34801561038e57600080fd5b506101cc611d15565b3480156103a357600080fd5b506103b76103b236600461353b565b61208b565b60405161024b9190613991565b3480156103d057600080fd5b506000546103e590600160a01b900460ff1681565b60405161024b9190613934565b3480156103fe57600080fd5b506102d3612537565b34801561041357600080fd5b50610241600c5481565b34801561042957600080fd5b506104326125ad565b60405161024b9d9c9b9a9998979695949392919061374d565b34801561045757600080fd5b5061046b610466366004613605565b6127a0565b60405161024b9190613849565b34801561048457600080fd5b5061048d6128cf565b60405161024b9190613894565b3480156104a657600080fd5b506101cc6104b536600461353b565b612c38565b3480156104c657600080fd5b506102416104d536600461353b565b612d22565b3480156104e657600080fd5b506101cc612e69565b6004600054600160a01b900460ff16600781111561050f5761050f613d80565b1461057d5760405162461bcd60e51b815260206004820152603360248201527f50523a20496e766573746f727320746f6b656e73206861766520616c7265616460448201527279206265656e2064697374726962757465642160681b60648201526084015b60405180910390fd5b600061058983836116f3565b905060005b81518110156107915760046001600360008585815181106105b1576105b1613d96565b6020026020010151600001516001600160a01b03166001600160a01b03168152602001908152602001600020546105e89190613bef565b815481106105f8576105f8613d96565b9060005260206000209060050201600101546000141561077f576040518060a0016040528083838151811061062f5761062f613d96565b6020026020010151600001516001600160a01b03168152602001600a5484848151811061065e5761065e613d96565b602002602001015160400151600c546106779190613bd0565b6106819190613bae565b815260200160008152602001600f600501544261069e9190613b96565b81526015546014546020909201916106b69042613b96565b6106c09190613b96565b81525060046001600360008686815181106106dd576106dd613d96565b6020026020010151600001516001600160a01b03166001600160a01b03168152602001908152602001600020546107149190613bef565b8154811061072457610724613d96565b600091825260209182902083516005929092020180546001600160a01b0319166001600160a01b0390921691909117815590820151600182015560408201516002820155606082015160038201556080909101516004909101555b8061078981613d4f565b91505061058e565b50505050565b6000546001600160a01b031633146107c15760405162461bcd60e51b81526004016105749061395c565b6001600054600160a01b900460ff1660078111156107e1576107e1613d80565b1461082e5760405162461bcd60e51b815260206004820152601c60248201527f50523a205061697220697320616c7265616479206372656174656421000000006044820152606401610574565b600f546001600160a01b03166108995760405162461bcd60e51b815260206004820152602a60248201527f50523a20546f6b656e206164647265737320776173206e6f7420696e697469616044820152696c697a6564207965742160b01b6064820152608401610574565b600f5460405163e6a4390560e01b81526001600160a01b03909116600482015273073ce46d328524fb3529a39d64b314ab1a594a576024820152735c69bee701ef814a2b6a3edd4b1652cb9cc5aa6f9063e6a439059060440160206040518083038186803b15801561090a57600080fd5b505afa15801561091e573d6000803e3d6000fd5b505050506040513d601f19601f820116820180604052508101906109429190613558565b600e80546001600160a01b0319166001600160a01b03929092169182179055610a3157600f546040516364e329cb60e11b81526001600160a01b03909116600482015273073ce46d328524fb3529a39d64b314ab1a594a576024820152735c69bee701ef814a2b6a3edd4b1652cb9cc5aa6f9063c9c6539690604401602060405180830381600087803b1580156109d857600080fd5b505af11580156109ec573d6000803e3d6000fd5b505050506040513d601f19601f82011682018060405250810190610a109190613558565b600e80546001600160a01b0319166001600160a01b03929092169190911790555b610a3b6003612ed0565b565b6000546001600160a01b03163314610a675760405162461bcd60e51b81526004016105749061395c565b80600f610a748282613dd5565b505050565b60008054600160a01b900460ff166007811115610a9857610a98613d80565b14610af65760405162461bcd60e51b815260206004820152602860248201527f50523a20416363657074696e67207061796d656e747320686173206265656e2060448201526773746f707065642160c01b6064820152608401610574565b601854600a541115610b415760405162461bcd60e51b815260206004820152601460248201527350523a204d61782063617020726561636865642160601b6044820152606401610574565b601954341015610ba15760405162461bcd60e51b815260206004820152602560248201527f50523a20416d6f756e742069732062656c6f77206d696e696d756d207065726d6044820152641a5d1d195960da1b6064820152608401610574565b601a54341115610c015760405162461bcd60e51b815260206004820152602560248201527f50523a20416d6f756e742069732061626f7665206d6178696d756d207065726d6044820152641a5d1d195960da1b6064820152608401610574565b3360009081526007602052604090205415610c685760405162461bcd60e51b815260206004820152602160248201527f50523a205465616d206973206e6f7420616c6c6f77656420746f20696e7665736044820152601d60fa1b6064820152608401610574565b3360009081526005602052604090205415610ceb5760405162461bcd60e51b815260206004820152603860248201527f50523a20496e76657374696e6720666f7220616374697665207265666572726160448201527f6c2061646472657373657320697320666f7262696464656e00000000000000006064820152608401610574565b336001600160a01b0382161415610d6a5760405162461bcd60e51b815260206004820152603e60248201527f50523a2053656c662d7265662069736e277420616c6c6f7765642e20506c656160448201527f73652075736520646966666572656e7420726566657272616c206c696e6b00006064820152608401610574565b6001600160a01b038116610d8f575073c427a912e0b19f082840a0045e430de5b8cb1f655b610d9a338234612f34565b610dbf81620f424060095434610db09190613bd0565b610dba9190613bae565b613156565b50565b610dca61101d565b610dd2610797565b610a3b6110bd565b6000546001600160a01b03163314610e045760405162461bcd60e51b81526004016105749061395c565b610e0e6007612ed0565b6040516370a0823160e01b815230600482015260009073d0a1e359811322d97991e03f863a0c30c2cf029c906370a082319060240160206040518083038186803b158015610e5b57600080fd5b505afa158015610e6f573d6000803e3d6000fd5b505050506040513d601f19601f82011682018060405250810190610e9391906135ec565b90508015610f0157604051632e1a7d4d60e01b81526004810182905273d0a1e359811322d97991e03f863a0c30c2cf029c90632e1a7d4d90602401600060405180830381600087803b158015610ee857600080fd5b505af1158015610efc573d6000803e3d6000fd5b505050505b6000610f0d84846116f3565b905060005b8151811015610fcc576000828281518110610f2f57610f2f613d96565b60200260200101516040015190506000838381518110610f5157610f51613d96565b60200260200101516040018181525050828281518110610f7357610f73613d96565b6020026020010151600001516001600160a01b03166108fc829081150290604051600060405180830381858888f19350505050158015610fb7573d6000803e3d6000fd5b50508080610fc490613d4f565b915050610f12565b5050505050565b610fdb611d15565b610fe3611846565b8015610fef5780610ff3565b6002545b90506110006000826104ef565b801561100c5780611010565b6002545b9050610dbf600082611a78565b6000546001600160a01b031633146110475760405162461bcd60e51b81526004016105749061395c565b60008054600160a01b900460ff16600781111561106657611066613d80565b146110b35760405162461bcd60e51b815260206004820152601c60248201527f50523a20476f616c20697320616c7265616479207265616368656421000000006044820152606401610574565b610a3b6001612ed0565b6000546001600160a01b031633146110e75760405162461bcd60e51b81526004016105749061395c565b6003600054600160a01b900460ff16600781111561110757611107613d80565b146111665760405162461bcd60e51b815260206004820152602960248201527f50523a20507265706172696e6720616464206c697175696469747920697320636044820152686f6d706c657465642160b81b6064820152608401610574565b600047116111ca5760405162461bcd60e51b815260206004820152602b60248201527f50523a2045746865722062616c616e6365206d757374206265206c617267657260448201526a207468616e207a65726f2160a81b6064820152608401610574565b600073d0a1e359811322d97991e03f863a0c30c2cf029c9050806001600160a01b031663d0e30db0476040518263ffffffff1660e01b81526004016000604051808303818588803b15801561121e57600080fd5b505af1158015611232573d6000803e3d6000fd5b505060405163e6a4390560e01b815273d0a1e359811322d97991e03f863a0c30c2cf029c600482015273073ce46d328524fb3529a39d64b314ab1a594a57602482015260009350735c69bee701ef814a2b6a3edd4b1652cb9cc5aa6f925063e6a43905915060440160206040518083038186803b1580156112b257600080fd5b505afa1580156112c6573d6000803e3d6000fd5b505050506040513d601f19601f820116820180604052508101906112ea9190613558565b6040516370a0823160e01b81523060048201529091506000906001600160a01b038416906370a082319060240160206040518083038186803b15801561132f57600080fd5b505afa158015611343573d6000803e3d6000fd5b505050506040513d601f19601f8201168201806040525081019061136791906135ec565b60405163a9059cbb60e01b81526001600160a01b038481166004830152602482018390529192509084169063a9059cbb90604401602060405180830381600087803b1580156113b557600080fd5b505af11580156113c9573d6000803e3d6000fd5b505050506040513d601f19601f820116820180604052508101906113ed9190613575565b506000829050600080826001600160a01b0316630902f1ac6040518163ffffffff1660e01b815260040160606040518083038186803b15801561142f57600080fd5b505afa158015611443573d6000803e3d6000fd5b505050506040513d601f19601f820116820180604052508101906114679190613627565b509092509050600061147b856103e5613bd0565b905060008161148c856103e8613bd0565b6114969190613b96565b6114a08484613bd0565b6114aa9190613bae565b604080516000808252602082019283905263022c0d9f60e01b90925291925082916001600160a01b0388169063022c0d9f906114ef9085908590309060248101613b11565b600060405180830381600087803b15801561150957600080fd5b505af115801561151d573d6000803e3d6000fd5b5050505061152b6002612ed0565b50505050505050505050565b6000805b6006548110156115d757600160046001600360006006868154811061156257611562613d96565b600091825260208083206002909202909101546001600160a01b031683528201929092526040019020546115969190613bef565b815481106115a6576115a6613d96565b906000526020600020906005020160010154116115c557600091505090565b806115cf81613d4f565b91505061153b565b5060005b60025481101561167757600160046001600360006002868154811061160257611602613d96565b600091825260208083206003909202909101546001600160a01b031683528201929092526040019020546116369190613bef565b8154811061164657611646613d96565b9060005260206000209060050201600101541161166557600091505090565b8061166f81613d4f565b9150506115db565b506001905090565b6000546001600160a01b031633146116a95760405162461bcd60e51b81526004016105749061395c565b600080546040516001600160a01b03909116907f8be0079c531659141344cd1fd0a4f28419497f9722a3daafe3b4186f6b6457e0908390a3600080546001600160a01b0319169055565b60608260006117028483613b96565b60025490915081116117145780611718565b6002545b9050600082821161172a576000611734565b6117348383613bef565b905060008167ffffffffffffffff81111561175157611751613dac565b60405190808252806020026020018201604052801561179c57816020015b604080516060810182526000808252602080830182905292820152825260001990920191018161176f5790505b509050835b8381101561183b57600281815481106117bc576117bc613d96565b600091825260209182902060408051606081018252600390930290910180546001600160a01b03908116845260018201541693830193909352600290920154918101919091528261180d8784613bef565b8151811061181d5761181d613d96565b6020026020010181905250808061183390613d4f565b9150506117a1565b509695505050505050565b6004600054600160a01b900460ff16600781111561186657611866613d80565b146118d05760405162461bcd60e51b815260206004820152603460248201527f50523a20546f6b656e6f6d69637320746f6b656e73206861766520616c7265616044820152736479206265656e2064697374726962757465642160601b6064820152608401610574565b60005b600854811015610dbf5760046040518060a00160405280600884815481106118fd576118fd613d96565b6000918252602091829020600590910201546001600160a01b03168252600880549290910191620f424091908690811061193957611939613d96565b906000526020600020906005020160020154600d546119589190613bd0565b6119629190613bae565b8152602001600081526020016008848154811061198157611981613d96565b9060005260206000209060050201600301544261199e9190613b96565b8152602001600884815481106119b6576119b6613d96565b906000526020600020906005020160040154600885815481106119db576119db613d96565b906000526020600020906005020160030154426119f89190613b96565b611a029190613b96565b90528154600180820184556000938452602093849020835160059093020180546001600160a01b0319166001600160a01b03909316929092178255928201519281019290925560408101516002830155606081015160038301556080015160049091015580611a7081613d4f565b9150506118d3565b6004600054600160a01b900460ff166007811115611a9857611a98613d80565b14611b015760405162461bcd60e51b815260206004820152603360248201527f50523a20526566657272616c7320746f6b656e73206861766520616c7265616460448201527279206265656e2064697374726962757465642160681b6064820152608401610574565b6000611b0d83836127a0565b905060005b8151811015610791576004600160036000858581518110611b3557611b35613d96565b6020026020010151600001516001600160a01b03166001600160a01b0316815260200190815260200160002054611b6c9190613bef565b81548110611b7c57611b7c613d96565b90600052602060002090600502016001015460001415611d03576040518060a00160405280838381518110611bb357611bb3613d96565b6020026020010151600001516001600160a01b03168152602001600a54600c54858581518110611be557611be5613d96565b602002602001015160200151611bfb9190613bd0565b611c059190613bae565b815260200160008152602001600f6007015442611c229190613b96565b8152601754601654602090920191611c3a9042613b96565b611c449190613b96565b8152506004600160036000868681518110611c6157611c61613d96565b6020026020010151600001516001600160a01b03166001600160a01b0316815260200190815260200160002054611c989190613bef565b81548110611ca857611ca8613d96565b600091825260209182902083516005929092020180546001600160a01b0319166001600160a01b0390921691909117815590820151600182015560408201516002820155606082015160038201556080909101516004909101555b80611d0d81613d4f565b915050611b12565b6000546001600160a01b03163314611d3f5760405162461bcd60e51b81526004016105749061395c565b6002600054600160a01b900460ff166007811115611d5f57611d5f613d80565b14611dac5760405162461bcd60e51b815260206004820152601f60248201527f50523a204c697175696469747920697320616c726561647920616464656421006044820152606401610574565b6040516370a0823160e01b815230600482015273073ce46d328524fb3529a39d64b314ab1a594a579060009082906370a082319060240160206040518083038186803b158015611dfb57600080fd5b505afa158015611e0f573d6000803e3d6000fd5b505050506040513d601f19601f82011682018060405250810190611e3391906135ec565b90506000670de0b6b3a7640000600f600c015483611e519190613bd0565b611e5b9190613bae565b9050611e6561328a565b611e72620f424083613bd0565b611e7c9190613bae565b611e87906001613b96565b600d55600c819055600e5460405163a9059cbb60e01b81526001600160a01b039182166004820152602481018490529084169063a9059cbb90604401602060405180830381600087803b158015611edd57600080fd5b505af1158015611ef1573d6000803e3d6000fd5b505050506040513d601f19601f82011682018060405250810190611f159190613575565b50600f54600e54604051630bb9ff5d60e01b81526001600160a01b03918216600482015260248101849052911690630bb9ff5d90604401600060405180830381600087803b158015611f6657600080fd5b505af1158015611f7a573d6000803e3d6000fd5b5050600e546040516335313c2160e11b81523060048201526001600160a01b039091169250829150636a62784290602401602060405180830381600087803b158015611fc557600080fd5b505af1158015611fd9573d6000803e3d6000fd5b505050506040513d601f19601f82011682018060405250810190611ffd91906135ec565b50600f54600d546001600160a01b0390911690630bb9ff5d903090612023908690613bef565b6040516001600160e01b031960e085901b1681526001600160a01b0390921660048301526024820152604401600060405180830381600087803b15801561206957600080fd5b505af115801561207d573d6000803e3d6000fd5b505050506107916004612ed0565b61209361346e565b61209b613503565b6001600160a01b0383166000908152600360205260409020541561214c576001600160a01b0383166000908152600360205260409020546004906120e190600190613bef565b815481106120f1576120f1613d96565b60009182526020918290206040805160a081018252600590930290910180546001600160a01b031683526001810154938301939093526002830154908201526003820154606082015260049091015460808201529050612181565b6040518060a00160405280846001600160a01b0316815260200160008152602001600081526020014281526020014281525090505b612189613503565b6001600160a01b03841660009081526001602052604090205415612256576001600160a01b03841660009081526001602081905260408220546002916121ce91613bef565b815481106121de576121de613d96565b600091825260208083206040805160608082018352600390950290920180546001600160a01b0390811684526001820154811684860152600290910154928201928352815160a081018352908b1681529151928201929092529081019290925260195490820152601a546080820152915061228e9050565b506040805160a0810182526001600160a01b0385168152600060208201819052918101919091526019546060820152601a5460808201525b6001600160a01b038416600090815260056020526040902054156122fe576001600160a01b0384166000908152600560205260409020546006906122d490600190613bef565b815481106122e4576122e4613d96565b600091825260209091206001600290920201015460408201525b6000604051806101000160405280306001600160a01b03168152602001600f600101805461232b90613d14565b80601f016020809104026020016040519081016040528092919081815260200182805461235790613d14565b80156123a45780601f10612379576101008083540402835291602001916123a4565b820191906000526020600020905b81548152906001019060200180831161238757829003601f168201915b5050509183525050600a546020820181905260185460408301819052116060820152600160808201526011805460a0909201916123e090613d14565b80601f016020809104026020016040519081016040528092919081815260200182805461240c90613d14565b80156124595780601f1061242e57610100808354040283529160200191612459565b820191906000526020600020905b81548152906001019060200180831161243c57829003601f168201915b50505050508152602001600f600301805461247390613d14565b80601f016020809104026020016040519081016040528092919081815260200182805461249f90613d14565b80156124ec5780601f106124c1576101008083540402835291602001916124ec565b820191906000526020600020905b8154815290600101906020018083116124cf57829003601f168201915b505050505081525090506040518060c0016040528082815260200183815260200184815260200161251b6128cf565b8152601b546020820152600b5460409091015295945050505050565b60008060005b60085481101561258b576008818154811061255a5761255a613d96565b906000526020600020906005020160020154826125779190613b96565b91508061258381613d4f565b91505061253d565b50606461259c620f4240601e613bd0565b6125a69190613bae565b1015919050565b600f8054601080546001600160a01b0390921692916125cb90613d14565b80601f01602080910402602001604051908101604052809291908181526020018280546125f790613d14565b80156126445780601f1061261957610100808354040283529160200191612644565b820191906000526020600020905b81548152906001019060200180831161262757829003601f168201915b50505050509080600201805461265990613d14565b80601f016020809104026020016040519081016040528092919081815260200182805461268590613d14565b80156126d25780601f106126a7576101008083540402835291602001916126d2565b820191906000526020600020905b8154815290600101906020018083116126b557829003601f168201915b5050505050908060030180546126e790613d14565b80601f016020809104026020016040519081016040528092919081815260200182805461271390613d14565b80156127605780601f1061273557610100808354040283529160200191612760565b820191906000526020600020905b81548152906001019060200180831161274357829003601f168201915b50505050509080600401549080600501549080600601549080600701549080600801549080600901549080600a01549080600b01549080600c015490508d565b60608260006127af8483613b96565b60065490915081116127c157806127c5565b6006545b905060008282116127d75760006127e1565b6127e18383613bef565b905060008167ffffffffffffffff8111156127fe576127fe613dac565b60405190808252806020026020018201604052801561284357816020015b604080518082019091526000808252602082015281526020019060019003908161281c5790505b509050835b8381101561183b576006818154811061286357612863613d96565b60009182526020918290206040805180820190915260029092020180546001600160a01b031682526001015491810191909152826128a18784613bef565b815181106128b1576128b1613d96565b602002602001018190525080806128c790613d4f565b915050612848565b606060006128db61328a565b6008549091506000906128ef906003613b96565b67ffffffffffffffff81111561290757612907613dac565b60405190808252806020026020018201604052801561297357816020015b6129606040518060a0016040528060006001600160a01b03168152602001606081526020016000815260200160008152602001600081525090565b8152602001906001900390816129255790505b5090506040518060a0016040528060016001600160a01b03168152602001604051806040016040528060098152602001684c697175696469747960b81b8152508152602001838152602001600f6004015481526020016000815250816000815181106129e1576129e1613d96565b60200260200101819052506040518060a0016040528060026001600160a01b031681526020016040518060400160405280600781526020016650726573616c6560c81b8152508152602001838152602001600f600501548152602001600f6006015481525081600181518110612a5957612a59613d96565b60200260200101819052506040518060a0016040528060036001600160a01b0316815260200160405180604001604052806009815260200168526566657272616c7360b81b8152508152602001620f424060095485612ab89190613bd0565b612ac29190613bae565b81526016546020820152601754604090910152815182906002908110612aea57612aea613d96565b602002602001018190525060005b600854811015612c315760088181548110612b1557612b15613d96565b60009182526020918290206040805160a0810190915260059092020180546001600160a01b031682526001810180549293919291840191612b5590613d14565b80601f0160208091040260200160405190810160405280929190818152602001828054612b8190613d14565b8015612bce5780601f10612ba357610100808354040283529160200191612bce565b820191906000526020600020905b815481529060010190602001808311612bb157829003601f168201915b50505050508152602001600282015481526020016003820154815260200160048201548152505082826003612c039190613b96565b81518110612c1357612c13613d96565b60200260200101819052508080612c2990613d4f565b915050612af8565b5092915050565b6000546001600160a01b03163314612c625760405162461bcd60e51b81526004016105749061395c565b6001600160a01b038116612cc75760405162461bcd60e51b815260206004820152602660248201527f4f776e61626c653a206e6577206f776e657220697320746865207a65726f206160448201526564647265737360d01b6064820152608401610574565b600080546040516001600160a01b03808516939216917f8be0079c531659141344cd1fd0a4f28419497f9722a3daafe3b4186f6b6457e091a3600080546001600160a01b0319166001600160a01b0392909216919091179055565b6001600160a01b0381166000908152600360205260408120548190600490612d4c90600190613bef565b81548110612d5c57612d5c613d96565b60009182526020918290206040805160a081018252600590930290910180546001600160a01b031683526001810154938301939093526002830154908201526003820154606082018190526004909201546080820152915042111580612dc9575080608001518160600151115b15612dd75750600092915050565b80608001514210612dfd5780604001518160200151612df69190613bef565b9392505050565b600081606001518260800151612e139190613bef565b6060830151612e229042613bef565b8360200151612e319190613bd0565b612e3b9190613bae565b905081604001518111612e52575060009392505050565b6040820151612e619082613bef565b949350505050565b600f54604051630bb9ff5d60e01b8152336004820152670de0b6b3a764000060248201526001600160a01b0390911690630bb9ff5d90604401600060405180830381600087803b158015612ebc57600080fd5b505af1158015610791573d6000803e3d6000fd5b6000805482919060ff60a01b1916600160a01b836007811115612ef557612ef5613d80565b02179055507f551dc40198cc79684bb69e4931dba4ac16e4598792ee1c0a5000aeea366d7bb681604051612f299190613934565b60405180910390a150565b6001600160a01b03831660009081526001602052604090205461303857604080516060810182526001600160a01b03808616808352858216602080850191825284860187815260028054600181810183556000838152985160039092027f405787fa12a823e0f2b7631cc41b3ba8828b3321ca811111fa75cd3aa3bb5ace81018054938a166001600160a01b031994851617905595517f405787fa12a823e0f2b7631cc41b3ba8828b3321ca811111fa75cd3aa3bb5acf870180549190991692169190911790965590517f405787fa12a823e0f2b7631cc41b3ba8828b3321ca811111fa75cd3aa3bb5ad09093019290925590549184529190915291902055613135565b6001600160a01b038316600090815260016020819052604082205483916002916130629190613bef565b8154811061307257613072613d96565b90600052602060002090600302016002015461308e9190613b96565b601a549091508111156130e35760405162461bcd60e51b815260206004820152601f60248201527f50523a204d617820636170207065722077616c6c6574206578636565646564006044820152606401610574565b6001600160a01b038416600090815260016020819052604090912054829160029161310e9190613bef565b8154811061311e5761311e613d96565b906000526020600020906003020160020181905550505b80600a60008282546131479190613b96565b90915550610a74905083613324565b6001600160a01b03821660009081526005602052604090205461321d576040805180820182526001600160a01b03848116808352602080840186815260068054600181018255600082815296517ff652222313e28459528d920b65115c16c04f3efc82aaedc97be59f3f377c0d3f600290920291820180546001600160a01b031916919097161790955590517ff652222313e28459528d920b65115c16c04f3efc82aaedc97be59f3f377c0d4090940193909355915490835260059091529190205561327d565b6001600160a01b038216600090815260056020526040902054819060069061324790600190613bef565b8154811061325757613257613d96565b906000526020600020906002020160010160008282546132779190613b96565b90915550505b61328682613324565b5050565b60008060005b6008548110156132de57600881815481106132ad576132ad613d96565b906000526020600020906005020160020154826132ca9190613b96565b9150806132d681613d4f565b915050613290565b506009546132f0620f42406002613bd0565b6132fa9190613b96565b61330782620f4240613bef565b61331490620f4240613bd0565b61331e9190613bae565b91505090565b6001600160a01b038116600090815260036020526040902054610dbf576040805160a0810182526001600160a01b03928316808252600060208084018281528486018381524260608701818152608088019182526004805460018101825581885298517f8a35acfbc15ff81a39ae7d344fd709f28e8600b4aa8c65c6b64bfe7fe36bd19b6005909a02998a0180546001600160a01b03191691909c1617909a5592517f8a35acfbc15ff81a39ae7d344fd709f28e8600b4aa8c65c6b64bfe7fe36bd19c88015590517f8a35acfbc15ff81a39ae7d344fd709f28e8600b4aa8c65c6b64bfe7fe36bd19d87015590517f8a35acfbc15ff81a39ae7d344fd709f28e8600b4aa8c65c6b64bfe7fe36bd19e860155517f8a35acfbc15ff81a39ae7d344fd709f28e8600b4aa8c65c6b64bfe7fe36bd19f9094019390935593549084526003909152912055565b6040518060c001604052806134ce60405180610100016040528060006001600160a01b0316815260200160608152602001600081526020016000815260200160001515815260200160001515815260200160608152602001606081525090565b81526020016134db613503565b81526020016134e8613503565b81526020016060815260200160008152602001600081525090565b6040518060a0016040528060006001600160a01b03168152602001600081526020016000815260200160008152602001600081525090565b60006020828403121561354d57600080fd5b8135612df681613eb8565b60006020828403121561356a57600080fd5b8151612df681613eb8565b60006020828403121561358757600080fd5b81518015158114612df657600080fd5b6000602082840312156135a957600080fd5b813567ffffffffffffffff8111156135c057600080fd5b82016101a08185031215612df657600080fd5b6000602082840312156135e557600080fd5b5035919050565b6000602082840312156135fe57600080fd5b5051919050565b6000806040838503121561361857600080fd5b50508035926020909101359150565b60008060006060848603121561363c57600080fd5b8351925060208401519150604084015163ffffffff8116811461365e57600080fd5b809150509250925092565b600082825180855260208086019550808260051b84010181860160005b848110156136f357858303601f19018952815180516001600160a01b031684528481015160a0868601819052906136bf82870182613700565b6040848101519088015260608085015190880152608093840151939096019290925250509783019790830190600101613686565b5090979650505050505050565b6000815180845260005b818110156137265760208185018101518683018201520161370a565b81811115613738576000602083870101525b50601f01601f19169290920160200192915050565b6001600160a01b038e1681526101a0602082018190526000906137729083018f613700565b8281036040840152613784818f613700565b90508281036060840152613798818e613700565b608084019c909c52505060a081019890985260c088019690965260e087019490945261010086019290925261012085015261014084015261016083015261018090910152949350505050565b602080825282518282018190526000919060409081850190868401855b8281101561383c57815180516001600160a01b0390811686528782015116878601528501518585015260609093019290850190600101613801565b5091979650505050505050565b602080825282518282018190526000919060409081850190868401855b8281101561383c57815180516001600160a01b03168552860151868501529284019290850190600101613866565b60006020808301818452808551808352604092508286019150828160051b87010184880160005b8381101561392657888303603f19018552815180516001600160a01b031684528781015160a0898601819052906138f482870182613700565b838a0151878b0152606080850151908801526080938401519390960192909252505093860193908601906001016138bb565b509098975050505050505050565b602081016008831061395657634e487b7160e01b600052602160045260246000fd5b91905290565b6020808252818101527f4f776e61626c653a2063616c6c6572206973206e6f7420746865206f776e6572604082015260600190565b60208152600082516101c08060208501526139b96101e0850183516001600160a01b03169052565b60208201516101006102008601526139d56102e0860182613700565b9050604083015161022086015260608301516102408601526080830151613a0161026087018215159052565b5060a0830151151561028086015260c08301518582036101df199081016102a0880152613a2e8383613700565b925060e0850151945080878403016102c08801525050613a4e8184613700565b9250506020850151613a94604086018280516001600160a01b03168252602080820151908301526040808201519083015260608082015190830152608090810151910152565b5060408581015180516001600160a01b031660e087015260208101516101008701529081015161012086015260608101516101408601526080810151610160860152506060850151848303601f1901610180860152613af38382613669565b60808701516101a087015260a0909601519190940152509192915050565b84815283602082015260018060a01b0383166040820152608060608201526000613b3e6080830184613700565b9695505050505050565b6000808335601e19843603018112613b5f57600080fd5b83018035915067ffffffffffffffff821115613b7a57600080fd5b602001915036819003821315613b8f57600080fd5b9250929050565b60008219821115613ba957613ba9613d6a565b500190565b600082613bcb57634e487b7160e01b600052601260045260246000fd5b500490565b6000816000190483118215151615613bea57613bea613d6a565b500290565b600082821015613c0157613c01613d6a565b500390565b601f821115610a7457600081815260208120601f850160051c81016020861015613c2d5750805b601f850160051c820191505b81811015613c4c57828155600101613c39565b505050505050565b67ffffffffffffffff831115613c6c57613c6c613dac565b613c8083613c7a8354613d14565b83613c06565b6000601f841160018114613cb45760008515613c9c5750838201355b600019600387901b1c1916600186901b178355610fcc565b600083815260209020601f19861690835b82811015613ce55786850135825560209485019460019092019101613cc5565b5086821015613d025760001960f88860031b161c19848701351681555b505060018560011b0183555050505050565b600181811c90821680613d2857607f821691505b60208210811415613d4957634e487b7160e01b600052602260045260246000fd5b50919050565b6000600019821415613d6357613d63613d6a565b5060010190565b634e487b7160e01b600052601160045260246000fd5b634e487b7160e01b600052602160045260246000fd5b634e487b7160e01b600052603260045260246000fd5b634e487b7160e01b600052604160045260246000fd5b60008135613dcf81613eb8565b92915050565b613dfe613de183613dc2565b82546001600160a01b0319166001600160a01b0391909116178255565b613e0b6020830183613b48565b613e19818360018601613c54565b5050613e286040830183613b48565b613e36818360028601613c54565b5050613e456060830183613b48565b613e53818360038601613c54565b50506080820135600482015560a0820135600582015560c0820135600682015560e0820135600782015561010082013560088201556101208201356009820155610140820135600a820155610160820135600b820155610180820135600c8201555050565b6001600160a01b0381168114610dbf57600080fdfea26469706673582212202aedea0b8b83f06b4306052d2f13f66a7553ae3fa2b0cb867c14ec8726d5f97664736f6c634300080700338be0079c531659141344cd1fd0a4f28419497f9722a3daafe3b4186f6b6457e0a2646970667358221220970a387dab3acd821823df37a570a7668a78b4751561a55e72a0c73213b9179164736f6c63430008070033",
			"opcodes": "PUSH1 0x80 PUSH1 0x40 MSTORE CALLVALUE DUP1 ISZERO PUSH2 0x10 JUMPI PUSH1 0x0 DUP1 REVERT JUMPDEST POP PUSH2 0x5999 DUP1 PUSH2 0x20 PUSH1 0x0 CODECOPY PUSH1 0x0 RETURN INVALID PUSH1 0x80 PUSH1 0x40 MSTORE CALLVALUE DUP1 ISZERO PUSH3 0x11 JUMPI PUSH1 0x0 DUP1 REVERT JUMPDEST POP PUSH1 0x4 CALLDATASIZE LT PUSH3 0x46 JUMPI PUSH1 0x0 CALLDATALOAD PUSH1 0xE0 SHR DUP1 PUSH4 0x7A96A68 EQ PUSH3 0x4B JUMPI DUP1 PUSH4 0x9617FD43 EQ PUSH3 0x7F JUMPI DUP1 PUSH4 0xF355C592 EQ PUSH3 0x96 JUMPI JUMPDEST PUSH1 0x0 DUP1 REVERT JUMPDEST PUSH3 0x62 PUSH3 0x5C CALLDATASIZE PUSH1 0x4 PUSH3 0xB1A JUMP JUMPDEST PUSH3 0xBC JUMP JUMPDEST PUSH1 0x40 MLOAD PUSH1 0x1 PUSH1 0x1 PUSH1 0xA0 SHL SUB SWAP1 SWAP2 AND DUP2 MSTORE PUSH1 0x20 ADD JUMPDEST PUSH1 0x40 MLOAD DUP1 SWAP2 SUB SWAP1 RETURN JUMPDEST PUSH3 0x62 PUSH3 0x90 CALLDATASIZE PUSH1 0x4 PUSH3 0x8E8 JUMP JUMPDEST PUSH3 0xE7 JUMP JUMPDEST PUSH3 0xAD PUSH3 0xA7 CALLDATASIZE PUSH1 0x4 PUSH3 0x8B0 JUMP JUMPDEST PUSH3 0x198 JUMP JUMPDEST PUSH1 0x40 MLOAD PUSH3 0x76 SWAP2 SWAP1 PUSH3 0xCF6 JUMP JUMPDEST PUSH1 0x0 DUP2 DUP2 SLOAD DUP2 LT PUSH3 0xCD JUMPI PUSH1 0x0 DUP1 REVERT JUMPDEST PUSH1 0x0 SWAP2 DUP3 MSTORE PUSH1 0x20 SWAP1 SWAP2 KECCAK256 ADD SLOAD PUSH1 0x1 PUSH1 0x1 PUSH1 0xA0 SHL SUB AND SWAP1 POP DUP2 JUMP JUMPDEST PUSH1 0x0 DUP1 CALLER DUP5 DUP5 PUSH1 0x40 MLOAD PUSH3 0xFB SWAP1 PUSH3 0x356 JUMP JUMPDEST PUSH3 0x109 SWAP4 SWAP3 SWAP2 SWAP1 PUSH3 0xBFA JUMP JUMPDEST PUSH1 0x40 MLOAD DUP1 SWAP2 SUB SWAP1 PUSH1 0x0 CREATE DUP1 ISZERO DUP1 ISZERO PUSH3 0x126 JUMPI RETURNDATASIZE PUSH1 0x0 DUP1 RETURNDATACOPY RETURNDATASIZE PUSH1 0x0 REVERT JUMPDEST POP DUP2 SLOAD PUSH1 0x1 DUP1 DUP3 ADD DUP5 SSTORE PUSH1 0x0 SWAP4 DUP5 MSTORE PUSH1 0x20 DUP5 KECCAK256 SWAP1 SWAP2 ADD DUP1 SLOAD PUSH1 0x1 PUSH1 0x1 PUSH1 0xA0 SHL SUB NOT AND PUSH1 0x1 PUSH1 0x1 PUSH1 0xA0 SHL SUB SWAP4 SWAP1 SWAP4 AND SWAP3 SWAP1 SWAP3 OR SWAP1 SWAP2 SSTORE DUP2 SLOAD PUSH3 0x169 SWAP2 SWAP1 PUSH3 0x1009 JUMP JUMPDEST DUP2 SLOAD DUP2 LT PUSH3 0x17C JUMPI PUSH3 0x17C PUSH3 0x108A JUMP JUMPDEST PUSH1 0x0 SWAP2 DUP3 MSTORE PUSH1 0x20 SWAP1 SWAP2 KECCAK256 ADD SLOAD PUSH1 0x1 PUSH1 0x1 PUSH1 0xA0 SHL SUB AND SWAP4 SWAP3 POP POP POP JUMP JUMPDEST PUSH1 0x60 PUSH1 0x0 DUP3 PUSH3 0x1AA PUSH1 0x1 DUP7 PUSH3 0x1009 JUMP JUMPDEST PUSH3 0x1B6 SWAP2 SWAP1 PUSH3 0xFE7 JUMP JUMPDEST SWAP1 POP PUSH1 0x0 PUSH3 0x1C6 DUP5 DUP7 PUSH3 0xFE7 JUMP JUMPDEST PUSH1 0x0 SLOAD SWAP1 SWAP2 POP DUP2 GT PUSH3 0x1DA JUMPI DUP1 PUSH3 0x1DE JUMP JUMPDEST PUSH1 0x0 SLOAD JUMPDEST SWAP1 POP PUSH1 0x0 DUP3 DUP3 GT PUSH3 0x1F2 JUMPI PUSH1 0x0 PUSH3 0x1FE JUMP JUMPDEST PUSH3 0x1FE DUP4 DUP4 PUSH3 0x1009 JUMP JUMPDEST SWAP1 POP DUP1 PUSH1 0x1 PUSH1 0x1 PUSH1 0x40 SHL SUB DUP2 GT ISZERO PUSH3 0x21B JUMPI PUSH3 0x21B PUSH3 0x10A0 JUMP JUMPDEST PUSH1 0x40 MLOAD SWAP1 DUP1 DUP3 MSTORE DUP1 PUSH1 0x20 MUL PUSH1 0x20 ADD DUP3 ADD PUSH1 0x40 MSTORE DUP1 ISZERO PUSH3 0x258 JUMPI DUP2 PUSH1 0x20 ADD JUMPDEST PUSH3 0x244 PUSH3 0x364 JUMP JUMPDEST DUP2 MSTORE PUSH1 0x20 ADD SWAP1 PUSH1 0x1 SWAP1 SUB SWAP1 DUP2 PUSH3 0x23A JUMPI SWAP1 POP JUMPDEST POP SWAP4 POP DUP3 JUMPDEST DUP3 DUP2 LT ISZERO PUSH3 0x34B JUMPI PUSH1 0x0 DUP2 DUP2 SLOAD DUP2 LT PUSH3 0x27C JUMPI PUSH3 0x27C PUSH3 0x108A JUMP JUMPDEST PUSH1 0x0 SWAP2 DUP3 MSTORE PUSH1 0x20 SWAP1 SWAP2 KECCAK256 ADD SLOAD PUSH1 0x40 MLOAD PUSH4 0x599EB005 PUSH1 0xE1 SHL DUP2 MSTORE PUSH1 0x1 PUSH1 0x1 PUSH1 0xA0 SHL SUB DUP11 DUP2 AND PUSH1 0x4 DUP4 ADD MSTORE SWAP1 SWAP2 AND SWAP1 PUSH4 0xB33D600A SWAP1 PUSH1 0x24 ADD PUSH1 0x0 PUSH1 0x40 MLOAD DUP1 DUP4 SUB DUP2 DUP7 DUP1 EXTCODESIZE ISZERO DUP1 ISZERO PUSH3 0x2CB JUMPI PUSH1 0x0 DUP1 REVERT JUMPDEST POP GAS STATICCALL ISZERO DUP1 ISZERO PUSH3 0x2E0 JUMPI RETURNDATASIZE PUSH1 0x0 DUP1 RETURNDATACOPY RETURNDATASIZE PUSH1 0x0 REVERT JUMPDEST POP POP POP POP PUSH1 0x40 MLOAD RETURNDATASIZE PUSH1 0x0 DUP3 RETURNDATACOPY PUSH1 0x1F RETURNDATASIZE SWAP1 DUP2 ADD PUSH1 0x1F NOT AND DUP3 ADD PUSH1 0x40 MSTORE PUSH3 0x30A SWAP2 SWAP1 DUP2 ADD SWAP1 PUSH3 0xA3F JUMP JUMPDEST DUP6 PUSH3 0x317 DUP7 DUP5 PUSH3 0x1009 JUMP JUMPDEST DUP2 MLOAD DUP2 LT PUSH3 0x32A JUMPI PUSH3 0x32A PUSH3 0x108A JUMP JUMPDEST PUSH1 0x20 MUL PUSH1 0x20 ADD ADD DUP2 SWAP1 MSTORE POP DUP1 DUP1 PUSH3 0x342 SWAP1 PUSH3 0x1056 JUMP JUMPDEST SWAP2 POP POP PUSH3 0x25D JUMP JUMPDEST POP POP POP POP SWAP4 SWAP3 POP POP POP JUMP JUMPDEST PUSH2 0x4894 DUP1 PUSH3 0x10D0 DUP4 CODECOPY ADD SWAP1 JUMP JUMPDEST PUSH1 0x40 MLOAD DUP1 PUSH1 0xC0 ADD PUSH1 0x40 MSTORE DUP1 PUSH3 0x3C5 PUSH1 0x40 MLOAD DUP1 PUSH2 0x100 ADD PUSH1 0x40 MSTORE DUP1 PUSH1 0x0 PUSH1 0x1 PUSH1 0x1 PUSH1 0xA0 SHL SUB AND DUP2 MSTORE PUSH1 0x20 ADD PUSH1 0x60 DUP2 MSTORE PUSH1 0x20 ADD PUSH1 0x0 DUP2 MSTORE PUSH1 0x20 ADD PUSH1 0x0 DUP2 MSTORE PUSH1 0x20 ADD PUSH1 0x0 ISZERO ISZERO DUP2 MSTORE PUSH1 0x20 ADD PUSH1 0x0 ISZERO ISZERO DUP2 MSTORE PUSH1 0x20 ADD PUSH1 0x60 DUP2 MSTORE PUSH1 0x20 ADD PUSH1 0x60 DUP2 MSTORE POP SWAP1 JUMP JUMPDEST DUP2 MSTORE PUSH1 0x20 ADD PUSH3 0x406 PUSH1 0x40 MLOAD DUP1 PUSH1 0xA0 ADD PUSH1 0x40 MSTORE DUP1 PUSH1 0x0 PUSH1 0x1 PUSH1 0x1 PUSH1 0xA0 SHL SUB AND DUP2 MSTORE PUSH1 0x20 ADD PUSH1 0x0 DUP2 MSTORE PUSH1 0x20 ADD PUSH1 0x0 DUP2 MSTORE PUSH1 0x20 ADD PUSH1 0x0 DUP2 MSTORE PUSH1 0x20 ADD PUSH1 0x0 DUP2 MSTORE POP SWAP1 JUMP JUMPDEST DUP2 MSTORE PUSH1 0x20 ADD PUSH3 0x447 PUSH1 0x40 MLOAD DUP1 PUSH1 0xA0 ADD PUSH1 0x40 MSTORE DUP1 PUSH1 0x0 PUSH1 0x1 PUSH1 0x1 PUSH1 0xA0 SHL SUB AND DUP2 MSTORE PUSH1 0x20 ADD PUSH1 0x0 DUP2 MSTORE PUSH1 0x20 ADD PUSH1 0x0 DUP2 MSTORE PUSH1 0x20 ADD PUSH1 0x0 DUP2 MSTORE PUSH1 0x20 ADD PUSH1 0x0 DUP2 MSTORE POP SWAP1 JUMP JUMPDEST DUP2 MSTORE PUSH1 0x20 ADD PUSH1 0x60 DUP2 MSTORE PUSH1 0x20 ADD PUSH1 0x0 DUP2 MSTORE PUSH1 0x20 ADD PUSH1 0x0 DUP2 MSTORE POP SWAP1 JUMP JUMPDEST DUP1 CALLDATALOAD PUSH3 0x46F DUP2 PUSH3 0x10B6 JUMP JUMPDEST SWAP2 SWAP1 POP JUMP JUMPDEST DUP1 MLOAD PUSH3 0x46F DUP2 PUSH3 0x10B6 JUMP JUMPDEST PUSH1 0x0 DUP3 PUSH1 0x1F DUP4 ADD SLT PUSH3 0x493 JUMPI PUSH1 0x0 DUP1 REVERT JUMPDEST DUP2 MLOAD PUSH1 0x20 PUSH3 0x4AC PUSH3 0x4A6 DUP4 PUSH3 0xF97 JUMP JUMPDEST PUSH3 0xF64 JUMP JUMPDEST DUP1 DUP4 DUP3 MSTORE DUP3 DUP3 ADD SWAP2 POP DUP3 DUP7 ADD DUP8 DUP5 DUP7 PUSH1 0x5 SHL DUP10 ADD ADD GT ISZERO PUSH3 0x4CD JUMPI PUSH1 0x0 DUP1 REVERT JUMPDEST PUSH1 0x0 JUMPDEST DUP6 DUP2 LT ISZERO PUSH3 0x586 JUMPI DUP2 MLOAD PUSH1 0x1 PUSH1 0x1 PUSH1 0x40 SHL SUB DUP1 DUP3 GT ISZERO PUSH3 0x4F1 JUMPI PUSH1 0x0 DUP1 REVERT JUMPDEST SWAP1 DUP10 ADD SWAP1 PUSH1 0xA0 DUP3 DUP13 SUB PUSH1 0x1F NOT ADD DUP2 SGT ISZERO PUSH3 0x50B JUMPI PUSH1 0x0 DUP1 REVERT JUMPDEST PUSH3 0x515 PUSH3 0xEC8 JUMP JUMPDEST DUP9 DUP5 ADD MLOAD PUSH3 0x524 DUP2 PUSH3 0x10B6 JUMP JUMPDEST DUP2 MSTORE PUSH1 0x40 DUP5 DUP2 ADD MLOAD DUP5 DUP2 GT ISZERO PUSH3 0x53A JUMPI PUSH1 0x0 DUP1 REVERT JUMPDEST PUSH3 0x54A DUP16 DUP13 DUP4 DUP10 ADD ADD PUSH3 0x5FA JUMP JUMPDEST DUP4 DUP13 ADD MSTORE POP PUSH1 0x60 DUP6 DUP2 ADD MLOAD SWAP2 DUP4 ADD SWAP2 SWAP1 SWAP2 MSTORE PUSH1 0x80 DUP1 DUP7 ADD MLOAD SWAP2 DUP4 ADD SWAP2 SWAP1 SWAP2 MSTORE SWAP2 SWAP1 SWAP4 ADD MLOAD SWAP1 DUP4 ADD MSTORE POP DUP5 MSTORE SWAP3 DUP5 ADD SWAP3 SWAP1 DUP5 ADD SWAP1 PUSH1 0x1 ADD PUSH3 0x4D0 JUMP JUMPDEST POP SWAP1 SWAP8 SWAP7 POP POP POP POP POP POP POP JUMP JUMPDEST DUP1 MLOAD DUP1 ISZERO ISZERO DUP2 EQ PUSH3 0x46F JUMPI PUSH1 0x0 DUP1 REVERT JUMPDEST PUSH1 0x0 DUP3 PUSH1 0x1F DUP4 ADD SLT PUSH3 0x5B6 JUMPI PUSH1 0x0 DUP1 REVERT JUMPDEST DUP2 CALLDATALOAD PUSH3 0x5C7 PUSH3 0x4A6 DUP3 PUSH3 0xFBD JUMP JUMPDEST DUP2 DUP2 MSTORE DUP5 PUSH1 0x20 DUP4 DUP7 ADD ADD GT ISZERO PUSH3 0x5DD JUMPI PUSH1 0x0 DUP1 REVERT JUMPDEST DUP2 PUSH1 0x20 DUP6 ADD PUSH1 0x20 DUP4 ADD CALLDATACOPY PUSH1 0x0 SWAP2 DUP2 ADD PUSH1 0x20 ADD SWAP2 SWAP1 SWAP2 MSTORE SWAP4 SWAP3 POP POP POP JUMP JUMPDEST PUSH1 0x0 DUP3 PUSH1 0x1F DUP4 ADD SLT PUSH3 0x60C JUMPI PUSH1 0x0 DUP1 REVERT JUMPDEST DUP2 MLOAD PUSH3 0x61D PUSH3 0x4A6 DUP3 PUSH3 0xFBD JUMP JUMPDEST DUP2 DUP2 MSTORE DUP5 PUSH1 0x20 DUP4 DUP7 ADD ADD GT ISZERO PUSH3 0x633 JUMPI PUSH1 0x0 DUP1 REVERT JUMPDEST PUSH3 0x646 DUP3 PUSH1 0x20 DUP4 ADD PUSH1 0x20 DUP8 ADD PUSH3 0x1023 JUMP JUMPDEST SWAP5 SWAP4 POP POP POP POP JUMP JUMPDEST PUSH1 0x0 PUSH2 0x100 DUP3 DUP5 SUB SLT ISZERO PUSH3 0x662 JUMPI PUSH1 0x0 DUP1 REVERT JUMPDEST PUSH3 0x66C PUSH3 0xEF3 JUMP JUMPDEST SWAP1 POP PUSH3 0x679 DUP3 PUSH3 0x474 JUMP JUMPDEST DUP2 MSTORE PUSH1 0x20 DUP3 ADD MLOAD PUSH1 0x1 PUSH1 0x1 PUSH1 0x40 SHL SUB DUP1 DUP3 GT ISZERO PUSH3 0x696 JUMPI PUSH1 0x0 DUP1 REVERT JUMPDEST PUSH3 0x6A4 DUP6 DUP4 DUP7 ADD PUSH3 0x5FA JUMP JUMPDEST PUSH1 0x20 DUP5 ADD MSTORE PUSH1 0x40 DUP5 ADD MLOAD PUSH1 0x40 DUP5 ADD MSTORE PUSH1 0x60 DUP5 ADD MLOAD PUSH1 0x60 DUP5 ADD MSTORE PUSH3 0x6CB PUSH1 0x80 DUP6 ADD PUSH3 0x593 JUMP JUMPDEST PUSH1 0x80 DUP5 ADD MSTORE PUSH3 0x6DE PUSH1 0xA0 DUP6 ADD PUSH3 0x593 JUMP JUMPDEST PUSH1 0xA0 DUP5 ADD MSTORE PUSH1 0xC0 DUP5 ADD MLOAD SWAP2 POP DUP1 DUP3 GT ISZERO PUSH3 0x6F8 JUMPI PUSH1 0x0 DUP1 REVERT JUMPDEST PUSH3 0x706 DUP6 DUP4 DUP7 ADD PUSH3 0x5FA JUMP JUMPDEST PUSH1 0xC0 DUP5 ADD MSTORE PUSH1 0xE0 DUP5 ADD MLOAD SWAP2 POP DUP1 DUP3 GT ISZERO PUSH3 0x720 JUMPI PUSH1 0x0 DUP1 REVERT JUMPDEST POP PUSH3 0x72F DUP5 DUP3 DUP6 ADD PUSH3 0x5FA JUMP JUMPDEST PUSH1 0xE0 DUP4 ADD MSTORE POP SWAP3 SWAP2 POP POP JUMP JUMPDEST PUSH1 0x0 PUSH2 0x1A0 DUP3 DUP5 SUB SLT ISZERO PUSH3 0x74F JUMPI PUSH1 0x0 DUP1 REVERT JUMPDEST PUSH3 0x759 PUSH3 0xF19 JUMP JUMPDEST SWAP1 POP PUSH3 0x766 DUP3 PUSH3 0x462 JUMP JUMPDEST DUP2 MSTORE PUSH1 0x20 DUP3 ADD CALLDATALOAD PUSH1 0x1 PUSH1 0x1 PUSH1 0x40 SHL SUB DUP1 DUP3 GT ISZERO PUSH3 0x783 JUMPI PUSH1 0x0 DUP1 REVERT JUMPDEST PUSH3 0x791 DUP6 DUP4 DUP7 ADD PUSH3 0x5A4 JUMP JUMPDEST PUSH1 0x20 DUP5 ADD MSTORE PUSH1 0x40 DUP5 ADD CALLDATALOAD SWAP2 POP DUP1 DUP3 GT ISZERO PUSH3 0x7AB JUMPI PUSH1 0x0 DUP1 REVERT JUMPDEST PUSH3 0x7B9 DUP6 DUP4 DUP7 ADD PUSH3 0x5A4 JUMP JUMPDEST PUSH1 0x40 DUP5 ADD MSTORE PUSH1 0x60 DUP5 ADD CALLDATALOAD SWAP2 POP DUP1 DUP3 GT ISZERO PUSH3 0x7D3 JUMPI PUSH1 0x0 DUP1 REVERT JUMPDEST POP PUSH3 0x7E2 DUP5 DUP3 DUP6 ADD PUSH3 0x5A4 JUMP JUMPDEST PUSH1 0x60 DUP4 ADD MSTORE POP PUSH1 0x80 DUP3 ADD CALLDATALOAD PUSH1 0x80 DUP3 ADD MSTORE PUSH1 0xA0 DUP3 ADD CALLDATALOAD PUSH1 0xA0 DUP3 ADD MSTORE PUSH1 0xC0 DUP3 ADD CALLDATALOAD PUSH1 0xC0 DUP3 ADD MSTORE PUSH1 0xE0 DUP3 ADD CALLDATALOAD PUSH1 0xE0 DUP3 ADD MSTORE PUSH2 0x100 DUP1 DUP4 ADD CALLDATALOAD DUP2 DUP4 ADD MSTORE POP PUSH2 0x120 DUP1 DUP4 ADD CALLDATALOAD DUP2 DUP4 ADD MSTORE POP PUSH2 0x140 DUP1 DUP4 ADD CALLDATALOAD DUP2 DUP4 ADD MSTORE POP PUSH2 0x160 DUP1 DUP4 ADD CALLDATALOAD DUP2 DUP4 ADD MSTORE POP PUSH2 0x180 DUP1 DUP4 ADD CALLDATALOAD DUP2 DUP4 ADD MSTORE POP SWAP3 SWAP2 POP POP JUMP JUMPDEST PUSH1 0x0 PUSH1 0xA0 DUP3 DUP5 SUB SLT ISZERO PUSH3 0x865 JUMPI PUSH1 0x0 DUP1 REVERT JUMPDEST PUSH3 0x86F PUSH3 0xEC8 JUMP JUMPDEST SWAP1 POP DUP2 MLOAD PUSH3 0x87E DUP2 PUSH3 0x10B6 JUMP JUMPDEST DUP1 DUP3 MSTORE POP PUSH1 0x20 DUP3 ADD MLOAD PUSH1 0x20 DUP3 ADD MSTORE PUSH1 0x40 DUP3 ADD MLOAD PUSH1 0x40 DUP3 ADD MSTORE PUSH1 0x60 DUP3 ADD MLOAD PUSH1 0x60 DUP3 ADD MSTORE PUSH1 0x80 DUP3 ADD MLOAD PUSH1 0x80 DUP3 ADD MSTORE SWAP3 SWAP2 POP POP JUMP JUMPDEST PUSH1 0x0 DUP1 PUSH1 0x0 PUSH1 0x60 DUP5 DUP7 SUB SLT ISZERO PUSH3 0x8C6 JUMPI PUSH1 0x0 DUP1 REVERT JUMPDEST DUP4 CALLDATALOAD PUSH3 0x8D3 DUP2 PUSH3 0x10B6 JUMP JUMPDEST SWAP6 PUSH1 0x20 DUP6 ADD CALLDATALOAD SWAP6 POP PUSH1 0x40 SWAP1 SWAP5 ADD CALLDATALOAD SWAP4 SWAP3 POP POP POP JUMP JUMPDEST PUSH1 0x0 DUP1 PUSH1 0x40 DUP4 DUP6 SUB SLT ISZERO PUSH3 0x8FC JUMPI PUSH1 0x0 DUP1 REVERT JUMPDEST DUP3 CALLDATALOAD PUSH1 0x1 PUSH1 0x1 PUSH1 0x40 SHL SUB DUP1 DUP3 GT ISZERO PUSH3 0x914 JUMPI PUSH1 0x0 DUP1 REVERT JUMPDEST DUP2 DUP6 ADD SWAP2 POP DUP6 PUSH1 0x1F DUP4 ADD SLT PUSH3 0x929 JUMPI PUSH1 0x0 DUP1 REVERT JUMPDEST DUP2 CALLDATALOAD PUSH1 0x20 PUSH3 0x93C PUSH3 0x4A6 DUP4 PUSH3 0xF97 JUMP JUMPDEST DUP1 DUP4 DUP3 MSTORE DUP3 DUP3 ADD SWAP2 POP DUP3 DUP7 ADD DUP11 DUP5 DUP7 PUSH1 0x5 SHL DUP10 ADD ADD GT ISZERO PUSH3 0x95D JUMPI PUSH1 0x0 DUP1 REVERT JUMPDEST PUSH1 0x0 JUMPDEST DUP6 DUP2 LT ISZERO PUSH3 0xA0C JUMPI DUP2 CALLDATALOAD DUP8 DUP2 GT ISZERO PUSH3 0x979 JUMPI PUSH1 0x0 DUP1 REVERT JUMPDEST DUP9 ADD PUSH1 0xA0 DUP2 DUP15 SUB PUSH1 0x1F NOT ADD SLT ISZERO PUSH3 0x990 JUMPI PUSH1 0x0 DUP1 REVERT JUMPDEST PUSH3 0x99A PUSH3 0xEC8 JUMP JUMPDEST DUP7 DUP3 ADD CALLDATALOAD PUSH3 0x9A9 DUP2 PUSH3 0x10B6 JUMP JUMPDEST DUP2 MSTORE PUSH1 0x40 DUP3 ADD CALLDATALOAD DUP10 DUP2 GT ISZERO PUSH3 0x9BE JUMPI PUSH1 0x0 DUP1 REVERT JUMPDEST PUSH3 0x9CE DUP16 DUP10 DUP4 DUP7 ADD ADD PUSH3 0x5A4 JUMP JUMPDEST DUP9 DUP4 ADD MSTORE POP PUSH1 0x60 DUP3 ADD CALLDATALOAD PUSH1 0x40 DUP3 ADD MSTORE PUSH1 0x80 DUP3 ADD CALLDATALOAD PUSH1 0x60 DUP3 ADD MSTORE PUSH1 0xA0 DUP3 ADD CALLDATALOAD PUSH1 0x80 DUP3 ADD MSTORE DUP1 DUP7 MSTORE POP POP DUP5 DUP5 ADD SWAP4 POP DUP5 DUP3 ADD SWAP2 POP PUSH1 0x1 DUP2 ADD SWAP1 POP PUSH3 0x960 JUMP JUMPDEST POP SWAP1 SWAP8 POP POP POP DUP7 ADD CALLDATALOAD SWAP3 POP POP DUP1 DUP3 GT ISZERO PUSH3 0xA26 JUMPI PUSH1 0x0 DUP1 REVERT JUMPDEST POP PUSH3 0xA35 DUP6 DUP3 DUP7 ADD PUSH3 0x73B JUMP JUMPDEST SWAP2 POP POP SWAP3 POP SWAP3 SWAP1 POP JUMP JUMPDEST PUSH1 0x0 PUSH1 0x20 DUP3 DUP5 SUB SLT ISZERO PUSH3 0xA52 JUMPI PUSH1 0x0 DUP1 REVERT JUMPDEST DUP2 MLOAD PUSH1 0x1 PUSH1 0x1 PUSH1 0x40 SHL SUB DUP1 DUP3 GT ISZERO PUSH3 0xA6A JUMPI PUSH1 0x0 DUP1 REVERT JUMPDEST SWAP1 DUP4 ADD SWAP1 PUSH2 0x1C0 DUP3 DUP7 SUB SLT ISZERO PUSH3 0xA80 JUMPI PUSH1 0x0 DUP1 REVERT JUMPDEST PUSH3 0xA8A PUSH3 0xF3F JUMP JUMPDEST DUP3 MLOAD DUP3 DUP2 GT ISZERO PUSH3 0xA9A JUMPI PUSH1 0x0 DUP1 REVERT JUMPDEST PUSH3 0xAA8 DUP8 DUP3 DUP7 ADD PUSH3 0x64E JUMP JUMPDEST DUP3 MSTORE POP PUSH3 0xABA DUP7 PUSH1 0x20 DUP6 ADD PUSH3 0x852 JUMP JUMPDEST PUSH1 0x20 DUP3 ADD MSTORE PUSH3 0xACE DUP7 PUSH1 0xC0 DUP6 ADD PUSH3 0x852 JUMP JUMPDEST PUSH1 0x40 DUP3 ADD MSTORE PUSH2 0x160 DUP4 ADD MLOAD DUP3 DUP2 GT ISZERO PUSH3 0xAE7 JUMPI PUSH1 0x0 DUP1 REVERT JUMPDEST PUSH3 0xAF5 DUP8 DUP3 DUP7 ADD PUSH3 0x481 JUMP JUMPDEST PUSH1 0x60 DUP4 ADD MSTORE POP PUSH2 0x180 DUP4 ADD MLOAD PUSH1 0x80 DUP3 ADD MSTORE PUSH2 0x1A0 SWAP1 SWAP3 ADD MLOAD PUSH1 0xA0 DUP4 ADD MSTORE POP SWAP4 SWAP3 POP POP POP JUMP JUMPDEST PUSH1 0x0 PUSH1 0x20 DUP3 DUP5 SUB SLT ISZERO PUSH3 0xB2D JUMPI PUSH1 0x0 DUP1 REVERT JUMPDEST POP CALLDATALOAD SWAP2 SWAP1 POP JUMP JUMPDEST PUSH1 0x0 DUP2 MLOAD DUP1 DUP5 MSTORE PUSH1 0x20 DUP1 DUP6 ADD DUP1 DUP2 SWAP7 POP DUP4 PUSH1 0x5 SHL DUP2 ADD SWAP2 POP DUP3 DUP7 ADD PUSH1 0x0 JUMPDEST DUP6 DUP2 LT ISZERO PUSH3 0xBBF JUMPI DUP3 DUP5 SUB DUP10 MSTORE DUP2 MLOAD DUP1 MLOAD PUSH1 0x1 PUSH1 0x1 PUSH1 0xA0 SHL SUB AND DUP6 MSTORE DUP6 DUP2 ADD MLOAD PUSH1 0xA0 DUP8 DUP8 ADD DUP2 SWAP1 MSTORE SWAP1 PUSH3 0xB8A DUP3 DUP9 ADD DUP3 PUSH3 0xBCC JUMP JUMPDEST PUSH1 0x40 DUP5 DUP2 ADD MLOAD SWAP1 DUP10 ADD MSTORE PUSH1 0x60 DUP1 DUP6 ADD MLOAD SWAP1 DUP10 ADD MSTORE PUSH1 0x80 SWAP4 DUP5 ADD MLOAD SWAP4 SWAP1 SWAP8 ADD SWAP3 SWAP1 SWAP3 MSTORE POP POP SWAP8 DUP5 ADD SWAP8 SWAP1 DUP5 ADD SWAP1 PUSH1 0x1 ADD PUSH3 0xB52 JUMP JUMPDEST POP SWAP2 SWAP8 SWAP7 POP POP POP POP POP POP POP JUMP JUMPDEST PUSH1 0x0 DUP2 MLOAD DUP1 DUP5 MSTORE PUSH3 0xBE6 DUP2 PUSH1 0x20 DUP7 ADD PUSH1 0x20 DUP7 ADD PUSH3 0x1023 JUMP JUMPDEST PUSH1 0x1F ADD PUSH1 0x1F NOT AND SWAP3 SWAP1 SWAP3 ADD PUSH1 0x20 ADD SWAP3 SWAP2 POP POP JUMP JUMPDEST PUSH1 0x1 PUSH1 0x1 PUSH1 0xA0 SHL SUB DUP5 AND DUP2 MSTORE PUSH1 0x60 PUSH1 0x20 DUP3 ADD DUP2 SWAP1 MSTORE PUSH1 0x0 SWAP1 PUSH3 0xC20 SWAP1 DUP4 ADD DUP6 PUSH3 0xB34 JUMP JUMPDEST DUP3 DUP2 SUB PUSH1 0x40 DUP5 ADD MSTORE DUP4 MLOAD PUSH1 0x1 PUSH1 0x1 PUSH1 0xA0 SHL SUB AND DUP2 MSTORE PUSH2 0x1A0 PUSH1 0x20 DUP6 ADD MLOAD DUP2 PUSH1 0x20 DUP5 ADD MSTORE PUSH3 0xC51 DUP3 DUP5 ADD DUP3 PUSH3 0xBCC JUMP JUMPDEST SWAP2 POP POP PUSH1 0x40 DUP6 ADD MLOAD DUP3 DUP3 SUB PUSH1 0x40 DUP5 ADD MSTORE PUSH3 0xC6D DUP3 DUP3 PUSH3 0xBCC JUMP JUMPDEST SWAP2 POP POP PUSH1 0x60 DUP6 ADD MLOAD DUP3 DUP3 SUB PUSH1 0x60 DUP5 ADD MSTORE PUSH3 0xC89 DUP3 DUP3 PUSH3 0xBCC JUMP JUMPDEST PUSH1 0x80 DUP8 DUP2 ADD MLOAD SWAP1 DUP6 ADD MSTORE PUSH1 0xA0 DUP1 DUP9 ADD MLOAD SWAP1 DUP6 ADD MSTORE PUSH1 0xC0 DUP1 DUP9 ADD MLOAD SWAP1 DUP6 ADD MSTORE PUSH1 0xE0 DUP1 DUP9 ADD MLOAD SWAP1 DUP6 ADD MSTORE PUSH2 0x100 DUP1 DUP9 ADD MLOAD SWAP1 DUP6 ADD MSTORE PUSH2 0x120 DUP1 DUP9 ADD MLOAD SWAP1 DUP6 ADD MSTORE PUSH2 0x140 DUP1 DUP9 ADD MLOAD SWAP1 DUP6 ADD MSTORE PUSH2 0x160 DUP1 DUP9 ADD MLOAD SWAP1 DUP6 ADD MSTORE PUSH2 0x180 SWAP7 DUP8 ADD MLOAD SWAP7 SWAP1 SWAP4 ADD SWAP6 SWAP1 SWAP6 MSTORE POP SWAP6 SWAP5 POP POP POP POP POP JUMP JUMPDEST PUSH1 0x0 PUSH1 0x20 DUP1 DUP4 ADD DUP2 DUP5 MSTORE DUP1 DUP6 MLOAD DUP1 DUP4 MSTORE PUSH1 0x40 SWAP3 POP DUP3 DUP7 ADD SWAP2 POP DUP3 DUP2 PUSH1 0x5 SHL DUP8 ADD ADD DUP5 DUP9 ADD PUSH1 0x0 JUMPDEST DUP4 DUP2 LT ISZERO PUSH3 0xEBA JUMPI PUSH1 0x3F NOT DUP10 DUP5 SUB ADD DUP6 MSTORE DUP2 MLOAD DUP1 MLOAD PUSH2 0x1C0 DUP1 DUP7 MSTORE DUP2 MLOAD PUSH1 0x1 PUSH1 0x1 PUSH1 0xA0 SHL SUB AND SWAP1 DUP7 ADD MSTORE DUP9 DUP2 ADD MLOAD PUSH2 0x100 PUSH2 0x1E0 DUP8 ADD MSTORE SWAP1 PUSH3 0xD66 PUSH2 0x2C0 DUP8 ADD DUP4 PUSH3 0xBCC JUMP JUMPDEST SWAP2 POP DUP9 DUP2 ADD MLOAD PUSH2 0x200 DUP8 ADD MSTORE PUSH1 0x60 DUP1 DUP3 ADD MLOAD PUSH2 0x220 DUP9 ADD MSTORE PUSH1 0x80 DUP1 DUP4 ADD MLOAD PUSH3 0xD94 PUSH2 0x240 DUP11 ADD DUP3 ISZERO ISZERO SWAP1 MSTORE JUMP JUMPDEST POP PUSH1 0xA0 DUP4 DUP2 ADD MLOAD ISZERO ISZERO PUSH2 0x260 DUP11 ADD MSTORE PUSH1 0xC0 DUP1 DUP6 ADD MLOAD DUP11 DUP8 SUB PUSH2 0x1BF NOT SWAP1 DUP2 ADD PUSH2 0x280 DUP14 ADD MSTORE PUSH3 0xDC5 DUP9 DUP4 PUSH3 0xBCC JUMP JUMPDEST SWAP8 POP PUSH1 0xE0 DUP8 ADD MLOAD SWAP7 POP DUP1 DUP13 DUP10 SUB ADD PUSH2 0x2A0 DUP14 ADD MSTORE POP POP PUSH3 0xDE7 DUP7 DUP7 PUSH3 0xBCC JUMP JUMPDEST SWAP6 POP DUP14 DUP8 ADD MLOAD SWAP5 POP PUSH3 0xE2D DUP15 DUP12 ADD DUP7 DUP1 MLOAD PUSH1 0x1 PUSH1 0x1 PUSH1 0xA0 SHL SUB AND DUP3 MSTORE PUSH1 0x20 DUP1 DUP3 ADD MLOAD SWAP1 DUP4 ADD MSTORE PUSH1 0x40 DUP1 DUP3 ADD MLOAD SWAP1 DUP4 ADD MSTORE PUSH1 0x60 DUP1 DUP3 ADD MLOAD SWAP1 DUP4 ADD MSTORE PUSH1 0x80 SWAP1 DUP2 ADD MLOAD SWAP2 ADD MSTORE JUMP JUMPDEST DUP13 DUP8 ADD MLOAD SWAP5 POP PUSH3 0xE71 DUP2 DUP12 ADD DUP7 DUP1 MLOAD PUSH1 0x1 PUSH1 0x1 PUSH1 0xA0 SHL SUB AND DUP3 MSTORE PUSH1 0x20 DUP1 DUP3 ADD MLOAD SWAP1 DUP4 ADD MSTORE PUSH1 0x40 DUP1 DUP3 ADD MLOAD SWAP1 DUP4 ADD MSTORE PUSH1 0x60 DUP1 DUP3 ADD MLOAD SWAP1 DUP4 ADD MSTORE PUSH1 0x80 SWAP1 DUP2 ADD MLOAD SWAP2 ADD MSTORE JUMP JUMPDEST POP DUP3 DUP7 ADD MLOAD SWAP4 POP DUP9 DUP6 SUB PUSH2 0x160 DUP11 ADD MSTORE PUSH3 0xE8D DUP6 DUP6 PUSH3 0xB34 JUMP JUMPDEST SWAP2 DUP7 ADD MLOAD PUSH2 0x180 DUP11 ADD MSTORE SWAP1 SWAP5 ADD MLOAD PUSH2 0x1A0 SWAP1 SWAP8 ADD SWAP7 SWAP1 SWAP7 MSTORE POP POP SWAP5 DUP8 ADD SWAP5 SWAP3 POP SWAP1 DUP7 ADD SWAP1 PUSH1 0x1 ADD PUSH3 0xD1D JUMP JUMPDEST POP SWAP1 SWAP9 SWAP8 POP POP POP POP POP POP POP POP JUMP JUMPDEST PUSH1 0x40 MLOAD PUSH1 0xA0 DUP2 ADD PUSH1 0x1 PUSH1 0x1 PUSH1 0x40 SHL SUB DUP2 GT DUP3 DUP3 LT OR ISZERO PUSH3 0xEED JUMPI PUSH3 0xEED PUSH3 0x10A0 JUMP JUMPDEST PUSH1 0x40 MSTORE SWAP1 JUMP JUMPDEST PUSH1 0x40 MLOAD PUSH2 0x100 DUP2 ADD PUSH1 0x1 PUSH1 0x1 PUSH1 0x40 SHL SUB DUP2 GT DUP3 DUP3 LT OR ISZERO PUSH3 0xEED JUMPI PUSH3 0xEED PUSH3 0x10A0 JUMP JUMPDEST PUSH1 0x40 MLOAD PUSH2 0x1A0 DUP2 ADD PUSH1 0x1 PUSH1 0x1 PUSH1 0x40 SHL SUB DUP2 GT DUP3 DUP3 LT OR ISZERO PUSH3 0xEED JUMPI PUSH3 0xEED PUSH3 0x10A0 JUMP JUMPDEST PUSH1 0x40 MLOAD PUSH1 0xC0 DUP2 ADD PUSH1 0x1 PUSH1 0x1 PUSH1 0x40 SHL SUB DUP2 GT DUP3 DUP3 LT OR ISZERO PUSH3 0xEED JUMPI PUSH3 0xEED PUSH3 0x10A0 JUMP JUMPDEST PUSH1 0x40 MLOAD PUSH1 0x1F DUP3 ADD PUSH1 0x1F NOT AND DUP2 ADD PUSH1 0x1 PUSH1 0x1 PUSH1 0x40 SHL SUB DUP2 GT DUP3 DUP3 LT OR ISZERO PUSH3 0xF8F JUMPI PUSH3 0xF8F PUSH3 0x10A0 JUMP JUMPDEST PUSH1 0x40 MSTORE SWAP2 SWAP1 POP JUMP JUMPDEST PUSH1 0x0 PUSH1 0x1 PUSH1 0x1 PUSH1 0x40 SHL SUB DUP3 GT ISZERO PUSH3 0xFB3 JUMPI PUSH3 0xFB3 PUSH3 0x10A0 JUMP JUMPDEST POP PUSH1 0x5 SHL PUSH1 0x20 ADD SWAP1 JUMP JUMPDEST PUSH1 0x0 PUSH1 0x1 PUSH1 0x1 PUSH1 0x40 SHL SUB DUP3 GT ISZERO PUSH3 0xFD9 JUMPI PUSH3 0xFD9 PUSH3 0x10A0 JUMP JUMPDEST POP PUSH1 0x1F ADD PUSH1 0x1F NOT AND PUSH1 0x20 ADD SWAP1 JUMP JUMPDEST PUSH1 0x0 DUP2 PUSH1 0x0 NOT DIV DUP4 GT DUP3 ISZERO ISZERO AND ISZERO PUSH3 0x1004 JUMPI PUSH3 0x1004 PUSH3 0x1074 JUMP JUMPDEST POP MUL SWAP1 JUMP JUMPDEST PUSH1 0x0 DUP3 DUP3 LT ISZERO PUSH3 0x101E JUMPI PUSH3 0x101E PUSH3 0x1074 JUMP JUMPDEST POP SUB SWAP1 JUMP JUMPDEST PUSH1 0x0 JUMPDEST DUP4 DUP2 LT ISZERO PUSH3 0x1040 JUMPI DUP2 DUP2 ADD MLOAD DUP4 DUP3 ADD MSTORE PUSH1 0x20 ADD PUSH3 0x1026 JUMP JUMPDEST DUP4 DUP2 GT ISZERO PUSH3 0x1050 JUMPI PUSH1 0x0 DUP5 DUP5 ADD MSTORE JUMPDEST POP POP POP POP JUMP JUMPDEST PUSH1 0x0 PUSH1 0x0 NOT DUP3 EQ ISZERO PUSH3 0x106D JUMPI PUSH3 0x106D PUSH3 0x1074 JUMP JUMPDEST POP PUSH1 0x1 ADD SWAP1 JUMP JUMPDEST PUSH4 0x4E487B71 PUSH1 0xE0 SHL PUSH1 0x0 MSTORE PUSH1 0x11 PUSH1 0x4 MSTORE PUSH1 0x24 PUSH1 0x0 REVERT JUMPDEST PUSH4 0x4E487B71 PUSH1 0xE0 SHL PUSH1 0x0 MSTORE PUSH1 0x32 PUSH1 0x4 MSTORE PUSH1 0x24 PUSH1 0x0 REVERT JUMPDEST PUSH4 0x4E487B71 PUSH1 0xE0 SHL PUSH1 0x0 MSTORE PUSH1 0x41 PUSH1 0x4 MSTORE PUSH1 0x24 PUSH1 0x0 REVERT JUMPDEST PUSH1 0x1 PUSH1 0x1 PUSH1 0xA0 SHL SUB DUP2 AND DUP2 EQ PUSH3 0x10CC JUMPI PUSH1 0x0 DUP1 REVERT JUMPDEST POP JUMP INVALID PUSH1 0x80 PUSH1 0x40 MSTORE PUSH2 0xC350 PUSH1 0x9 SSTORE CALLVALUE DUP1 ISZERO PUSH3 0x17 JUMPI PUSH1 0x0 DUP1 REVERT JUMPDEST POP PUSH1 0x40 MLOAD PUSH3 0x4894 CODESIZE SUB DUP1 PUSH3 0x4894 DUP4 CODECOPY DUP2 ADD PUSH1 0x40 DUP2 SWAP1 MSTORE PUSH3 0x3A SWAP2 PUSH3 0x662 JUMP JUMPDEST PUSH1 0x0 DUP1 SLOAD PUSH1 0x1 PUSH1 0x1 PUSH1 0xA0 SHL SUB NOT AND CALLER SWAP1 DUP2 OR DUP3 SSTORE PUSH1 0x40 MLOAD SWAP1 SWAP2 DUP3 SWAP2 PUSH1 0x0 DUP1 MLOAD PUSH1 0x20 PUSH3 0x4874 DUP4 CODECOPY DUP2 MLOAD SWAP2 MSTORE SWAP1 DUP3 SWAP1 LOG3 POP PUSH1 0x0 DUP1 SLOAD PUSH1 0x1 PUSH1 0x1 PUSH1 0xA0 SHL SUB NOT AND PUSH1 0x1 PUSH1 0x1 PUSH1 0xA0 SHL SUB DUP6 AND SWAP1 DUP2 OR DUP3 SSTORE PUSH1 0x40 MLOAD SWAP1 SWAP2 SWAP1 PUSH1 0x0 DUP1 MLOAD PUSH1 0x20 PUSH3 0x4874 DUP4 CODECOPY DUP2 MLOAD SWAP2 MSTORE SWAP1 DUP3 SWAP1 LOG3 PUSH1 0x0 JUMPDEST DUP3 MLOAD DUP2 LT ISZERO PUSH3 0xF0 JUMPI PUSH3 0xDB DUP4 DUP3 DUP2 MLOAD DUP2 LT PUSH3 0xC7 JUMPI PUSH3 0xC7 PUSH3 0x935 JUMP JUMPDEST PUSH1 0x20 MUL PUSH1 0x20 ADD ADD MLOAD PUSH3 0x1E8 PUSH1 0x20 SHL PUSH1 0x20 SHR JUMP JUMPDEST DUP1 PUSH3 0xE7 DUP2 PUSH3 0x8EB JUMP JUMPDEST SWAP2 POP POP PUSH3 0xA4 JUMP JUMPDEST POP DUP1 MLOAD PUSH1 0xF DUP1 SLOAD PUSH1 0x1 PUSH1 0x1 PUSH1 0xA0 SHL SUB NOT AND PUSH1 0x1 PUSH1 0x1 PUSH1 0xA0 SHL SUB SWAP1 SWAP3 AND SWAP2 SWAP1 SWAP2 OR DUP2 SSTORE PUSH1 0x20 DUP1 DUP4 ADD MLOAD DUP1 MLOAD DUP5 SWAP4 SWAP3 PUSH3 0x12E SWAP3 PUSH1 0x10 SWAP3 SWAP2 ADD SWAP1 PUSH3 0x3F3 JUMP JUMPDEST POP PUSH1 0x40 DUP3 ADD MLOAD DUP1 MLOAD PUSH3 0x14C SWAP2 PUSH1 0x2 DUP5 ADD SWAP2 PUSH1 0x20 SWAP1 SWAP2 ADD SWAP1 PUSH3 0x3F3 JUMP JUMPDEST POP PUSH1 0x60 DUP3 ADD MLOAD DUP1 MLOAD PUSH3 0x16A SWAP2 PUSH1 0x3 DUP5 ADD SWAP2 PUSH1 0x20 SWAP1 SWAP2 ADD SWAP1 PUSH3 0x3F3 JUMP JUMPDEST POP PUSH1 0x80 DUP3 ADD MLOAD PUSH1 0x4 DUP3 ADD SSTORE PUSH1 0xA0 DUP3 ADD MLOAD PUSH1 0x5 DUP3 ADD SSTORE PUSH1 0xC0 DUP3 ADD MLOAD PUSH1 0x6 DUP3 ADD SSTORE PUSH1 0xE0 DUP3 ADD MLOAD PUSH1 0x7 DUP3 ADD SSTORE PUSH2 0x100 DUP3 ADD MLOAD PUSH1 0x8 DUP3 ADD SSTORE PUSH2 0x120 DUP3 ADD MLOAD PUSH1 0x9 DUP3 ADD SSTORE PUSH2 0x140 DUP3 ADD MLOAD PUSH1 0xA DUP3 ADD SSTORE PUSH2 0x160 DUP3 ADD MLOAD PUSH1 0xB DUP1 DUP4 ADD SWAP2 SWAP1 SWAP2 SSTORE PUSH2 0x180 SWAP1 SWAP3 ADD MLOAD PUSH1 0xC SWAP1 SWAP2 ADD SSTORE TIMESTAMP SWAP1 SSTORE PUSH3 0x1DF PUSH1 0x0 PUSH3 0x38A JUMP JUMPDEST POP POP POP PUSH3 0x961 JUMP JUMPDEST DUP1 MLOAD PUSH1 0x1 PUSH1 0x1 PUSH1 0xA0 SHL SUB AND PUSH1 0x0 SWAP1 DUP2 MSTORE PUSH1 0x7 PUSH1 0x20 MSTORE PUSH1 0x40 SWAP1 KECCAK256 SLOAD PUSH3 0x2D9 JUMPI PUSH1 0x8 DUP1 SLOAD PUSH1 0x1 DUP2 ADD DUP3 SSTORE PUSH1 0x0 SWAP2 SWAP1 SWAP2 MSTORE DUP2 MLOAD PUSH32 0xF3F7A9FE364FAAB93B216DA50A3214154F22A0A2B415B23A84C8169E8B636EE3 PUSH1 0x5 SWAP1 SWAP3 MUL SWAP2 DUP3 ADD DUP1 SLOAD PUSH1 0x1 PUSH1 0x1 PUSH1 0xA0 SHL SUB NOT AND PUSH1 0x1 PUSH1 0x1 PUSH1 0xA0 SHL SUB SWAP1 SWAP3 AND SWAP2 SWAP1 SWAP2 OR DUP2 SSTORE PUSH1 0x20 DUP1 DUP5 ADD MLOAD DUP1 MLOAD DUP6 SWAP5 PUSH3 0x29B SWAP4 PUSH32 0xF3F7A9FE364FAAB93B216DA50A3214154F22A0A2B415B23A84C8169E8B636EE4 SWAP1 SWAP2 ADD SWAP3 ADD SWAP1 PUSH3 0x3F3 JUMP JUMPDEST POP PUSH1 0x40 DUP3 DUP2 ADD MLOAD PUSH1 0x2 DUP4 ADD SSTORE PUSH1 0x60 DUP4 ADD MLOAD PUSH1 0x3 DUP4 ADD SSTORE PUSH1 0x80 SWAP1 SWAP3 ADD MLOAD PUSH1 0x4 SWAP1 SWAP2 ADD SSTORE PUSH1 0x8 SLOAD SWAP2 MLOAD PUSH1 0x1 PUSH1 0x1 PUSH1 0xA0 SHL SUB AND PUSH1 0x0 SWAP1 DUP2 MSTORE PUSH1 0x7 PUSH1 0x20 MSTORE KECCAK256 SSTORE JUMP JUMPDEST DUP1 MLOAD PUSH1 0x1 PUSH1 0x1 PUSH1 0xA0 SHL SUB AND PUSH1 0x0 SWAP1 DUP2 MSTORE PUSH1 0x7 PUSH1 0x20 MSTORE PUSH1 0x40 SWAP1 KECCAK256 SLOAD DUP2 SWAP1 PUSH1 0x8 SWAP1 PUSH3 0x306 SWAP1 PUSH1 0x1 SWAP1 PUSH3 0x894 JUMP JUMPDEST DUP2 SLOAD DUP2 LT PUSH3 0x319 JUMPI PUSH3 0x319 PUSH3 0x935 JUMP JUMPDEST PUSH1 0x0 SWAP2 DUP3 MSTORE PUSH1 0x20 SWAP2 DUP3 SWAP1 KECCAK256 DUP4 MLOAD PUSH1 0x5 SWAP3 SWAP1 SWAP3 MUL ADD DUP1 SLOAD PUSH1 0x1 PUSH1 0x1 PUSH1 0xA0 SHL SUB NOT AND PUSH1 0x1 PUSH1 0x1 PUSH1 0xA0 SHL SUB SWAP1 SWAP3 AND SWAP2 SWAP1 SWAP2 OR DUP2 SSTORE DUP3 DUP3 ADD MLOAD DUP1 MLOAD SWAP2 SWAP3 PUSH3 0x366 SWAP3 PUSH1 0x1 DUP6 ADD SWAP3 SWAP1 SWAP2 ADD SWAP1 PUSH3 0x3F3 JUMP JUMPDEST POP PUSH1 0x40 DUP3 ADD MLOAD PUSH1 0x2 DUP3 ADD SSTORE PUSH1 0x60 DUP3 ADD MLOAD PUSH1 0x3 DUP3 ADD SSTORE PUSH1 0x80 SWAP1 SWAP2 ADD MLOAD PUSH1 0x4 SWAP1 SWAP2 ADD SSTORE POP JUMP JUMPDEST PUSH1 0x0 DUP1 SLOAD DUP3 SWAP2 SWAP1 PUSH1 0xFF PUSH1 0xA0 SHL NOT AND PUSH1 0x1 PUSH1 0xA0 SHL DUP4 PUSH1 0x7 DUP2 GT ISZERO PUSH3 0x3B2 JUMPI PUSH3 0x3B2 PUSH3 0x91F JUMP JUMPDEST MUL OR SWAP1 SSTORE POP PUSH32 0x551DC40198CC79684BB69E4931DBA4AC16E4598792EE1C0A5000AEEA366D7BB6 DUP2 PUSH1 0x40 MLOAD PUSH3 0x3E8 SWAP2 SWAP1 PUSH3 0x7E7 JUMP JUMPDEST PUSH1 0x40 MLOAD DUP1 SWAP2 SUB SWAP1 LOG1 POP JUMP JUMPDEST DUP3 DUP1 SLOAD PUSH3 0x401 SWAP1 PUSH3 0x8AE JUMP JUMPDEST SWAP1 PUSH1 0x0 MSTORE PUSH1 0x20 PUSH1 0x0 KECCAK256 SWAP1 PUSH1 0x1F ADD PUSH1 0x20 SWAP1 DIV DUP2 ADD SWAP3 DUP3 PUSH3 0x425 JUMPI PUSH1 0x0 DUP6 SSTORE PUSH3 0x470 JUMP JUMPDEST DUP3 PUSH1 0x1F LT PUSH3 0x440 JUMPI DUP1 MLOAD PUSH1 0xFF NOT AND DUP4 DUP1 ADD OR DUP6 SSTORE PUSH3 0x470 JUMP JUMPDEST DUP3 DUP1 ADD PUSH1 0x1 ADD DUP6 SSTORE DUP3 ISZERO PUSH3 0x470 JUMPI SWAP2 DUP3 ADD JUMPDEST DUP3 DUP2 GT ISZERO PUSH3 0x470 JUMPI DUP3 MLOAD DUP3 SSTORE SWAP2 PUSH1 0x20 ADD SWAP2 SWAP1 PUSH1 0x1 ADD SWAP1 PUSH3 0x453 JUMP JUMPDEST POP PUSH3 0x47E SWAP3 SWAP2 POP PUSH3 0x482 JUMP JUMPDEST POP SWAP1 JUMP JUMPDEST JUMPDEST DUP1 DUP3 GT ISZERO PUSH3 0x47E JUMPI PUSH1 0x0 DUP2 SSTORE PUSH1 0x1 ADD PUSH3 0x483 JUMP JUMPDEST DUP1 MLOAD PUSH1 0x1 PUSH1 0x1 PUSH1 0xA0 SHL SUB DUP2 AND DUP2 EQ PUSH3 0x4B1 JUMPI PUSH1 0x0 DUP1 REVERT JUMPDEST SWAP2 SWAP1 POP JUMP JUMPDEST PUSH1 0x0 DUP3 PUSH1 0x1F DUP4 ADD SLT PUSH3 0x4C8 JUMPI PUSH1 0x0 DUP1 REVERT JUMPDEST DUP2 MLOAD PUSH1 0x1 PUSH1 0x1 PUSH1 0x40 SHL SUB DUP2 GT ISZERO PUSH3 0x4E4 JUMPI PUSH3 0x4E4 PUSH3 0x94B JUMP JUMPDEST PUSH1 0x20 PUSH3 0x4FA PUSH1 0x1F DUP4 ADD PUSH1 0x1F NOT AND DUP3 ADD PUSH3 0x861 JUMP JUMPDEST DUP3 DUP2 MSTORE DUP6 DUP3 DUP5 DUP8 ADD ADD GT ISZERO PUSH3 0x50F JUMPI PUSH1 0x0 DUP1 REVERT JUMPDEST PUSH1 0x0 JUMPDEST DUP4 DUP2 LT ISZERO PUSH3 0x52F JUMPI DUP6 DUP2 ADD DUP4 ADD MLOAD DUP3 DUP3 ADD DUP5 ADD MSTORE DUP3 ADD PUSH3 0x512 JUMP JUMPDEST DUP4 DUP2 GT ISZERO PUSH3 0x541 JUMPI PUSH1 0x0 DUP4 DUP6 DUP5 ADD ADD MSTORE JUMPDEST POP SWAP6 SWAP5 POP POP POP POP POP JUMP JUMPDEST PUSH1 0x0 PUSH2 0x1A0 DUP3 DUP5 SUB SLT ISZERO PUSH3 0x55F JUMPI PUSH1 0x0 DUP1 REVERT JUMPDEST PUSH3 0x569 PUSH3 0x810 JUMP JUMPDEST SWAP1 POP PUSH3 0x576 DUP3 PUSH3 0x499 JUMP JUMPDEST DUP2 MSTORE PUSH1 0x20 DUP3 ADD MLOAD PUSH1 0x1 PUSH1 0x1 PUSH1 0x40 SHL SUB DUP1 DUP3 GT ISZERO PUSH3 0x593 JUMPI PUSH1 0x0 DUP1 REVERT JUMPDEST PUSH3 0x5A1 DUP6 DUP4 DUP7 ADD PUSH3 0x4B6 JUMP JUMPDEST PUSH1 0x20 DUP5 ADD MSTORE PUSH1 0x40 DUP5 ADD MLOAD SWAP2 POP DUP1 DUP3 GT ISZERO PUSH3 0x5BB JUMPI PUSH1 0x0 DUP1 REVERT JUMPDEST PUSH3 0x5C9 DUP6 DUP4 DUP7 ADD PUSH3 0x4B6 JUMP JUMPDEST PUSH1 0x40 DUP5 ADD MSTORE PUSH1 0x60 DUP5 ADD MLOAD SWAP2 POP DUP1 DUP3 GT ISZERO PUSH3 0x5E3 JUMPI PUSH1 0x0 DUP1 REVERT JUMPDEST POP PUSH3 0x5F2 DUP5 DUP3 DUP6 ADD PUSH3 0x4B6 JUMP JUMPDEST PUSH1 0x60 DUP4 ADD MSTORE POP PUSH1 0x80 DUP3 ADD MLOAD PUSH1 0x80 DUP3 ADD MSTORE PUSH1 0xA0 DUP3 ADD MLOAD PUSH1 0xA0 DUP3 ADD MSTORE PUSH1 0xC0 DUP3 ADD MLOAD PUSH1 0xC0 DUP3 ADD MSTORE PUSH1 0xE0 DUP3 ADD MLOAD PUSH1 0xE0 DUP3 ADD MSTORE PUSH2 0x100 DUP1 DUP4 ADD MLOAD DUP2 DUP4 ADD MSTORE POP PUSH2 0x120 DUP1 DUP4 ADD MLOAD DUP2 DUP4 ADD MSTORE POP PUSH2 0x140 DUP1 DUP4 ADD MLOAD DUP2 DUP4 ADD MSTORE POP PUSH2 0x160 DUP1 DUP4 ADD MLOAD DUP2 DUP4 ADD MSTORE POP PUSH2 0x180 DUP1 DUP4 ADD MLOAD DUP2 DUP4 ADD MSTORE POP SWAP3 SWAP2 POP POP JUMP JUMPDEST PUSH1 0x0 DUP1 PUSH1 0x0 PUSH1 0x60 DUP5 DUP7 SUB SLT ISZERO PUSH3 0x678 JUMPI PUSH1 0x0 DUP1 REVERT JUMPDEST PUSH3 0x683 DUP5 PUSH3 0x499 JUMP JUMPDEST PUSH1 0x20 DUP6 ADD MLOAD SWAP1 SWAP4 POP PUSH1 0x1 PUSH1 0x1 PUSH1 0x40 SHL SUB DUP1 DUP3 GT ISZERO PUSH3 0x6A1 JUMPI PUSH1 0x0 DUP1 REVERT JUMPDEST DUP2 DUP7 ADD SWAP2 POP DUP7 PUSH1 0x1F DUP4 ADD SLT PUSH3 0x6B6 JUMPI PUSH1 0x0 DUP1 REVERT JUMPDEST DUP2 MLOAD DUP2 DUP2 GT ISZERO PUSH3 0x6CB JUMPI PUSH3 0x6CB PUSH3 0x94B JUMP JUMPDEST PUSH3 0x6DC PUSH1 0x20 DUP3 PUSH1 0x5 SHL ADD PUSH3 0x861 JUMP JUMPDEST DUP1 DUP3 DUP3 MSTORE PUSH1 0x20 DUP3 ADD SWAP2 POP PUSH1 0x20 DUP6 ADD DUP11 PUSH1 0x20 DUP6 PUSH1 0x5 SHL DUP9 ADD ADD GT ISZERO PUSH3 0x700 JUMPI PUSH1 0x0 DUP1 REVERT JUMPDEST PUSH1 0x0 JUMPDEST DUP5 DUP2 LT ISZERO PUSH3 0x7B2 JUMPI DUP2 MLOAD DUP7 DUP2 GT ISZERO PUSH3 0x71C JUMPI PUSH1 0x0 DUP1 REVERT JUMPDEST DUP8 ADD PUSH1 0xA0 DUP2 DUP15 SUB PUSH1 0x1F NOT ADD SLT ISZERO PUSH3 0x733 JUMPI PUSH1 0x0 DUP1 REVERT JUMPDEST PUSH3 0x73D PUSH3 0x83C JUMP JUMPDEST PUSH3 0x74B PUSH1 0x20 DUP4 ADD PUSH3 0x499 JUMP JUMPDEST DUP2 MSTORE PUSH1 0x40 DUP3 ADD MLOAD DUP9 DUP2 GT ISZERO PUSH3 0x760 JUMPI PUSH1 0x0 DUP1 REVERT JUMPDEST PUSH3 0x771 DUP16 PUSH1 0x20 DUP4 DUP7 ADD ADD PUSH3 0x4B6 JUMP JUMPDEST PUSH1 0x20 DUP4 ADD MSTORE POP PUSH1 0x60 DUP3 ADD MLOAD PUSH1 0x40 DUP3 ADD MSTORE PUSH1 0x80 DUP3 ADD MLOAD PUSH1 0x60 DUP3 ADD MSTORE PUSH1 0xA0 DUP3 ADD MLOAD PUSH1 0x80 DUP3 ADD MSTORE DUP1 DUP7 MSTORE POP POP PUSH1 0x20 DUP5 ADD SWAP4 POP PUSH1 0x20 DUP3 ADD SWAP2 POP PUSH1 0x1 DUP2 ADD SWAP1 POP PUSH3 0x703 JUMP JUMPDEST POP POP PUSH1 0x40 DUP10 ADD MLOAD SWAP1 SWAP7 POP SWAP4 POP POP POP DUP1 DUP3 GT ISZERO PUSH3 0x7CE JUMPI PUSH1 0x0 DUP1 REVERT JUMPDEST POP PUSH3 0x7DD DUP7 DUP3 DUP8 ADD PUSH3 0x54B JUMP JUMPDEST SWAP2 POP POP SWAP3 POP SWAP3 POP SWAP3 JUMP JUMPDEST PUSH1 0x20 DUP2 ADD PUSH1 0x8 DUP4 LT PUSH3 0x80A JUMPI PUSH4 0x4E487B71 PUSH1 0xE0 SHL PUSH1 0x0 MSTORE PUSH1 0x21 PUSH1 0x4 MSTORE PUSH1 0x24 PUSH1 0x0 REVERT JUMPDEST SWAP2 SWAP1 MSTORE SWAP1 JUMP JUMPDEST PUSH1 0x40 MLOAD PUSH2 0x1A0 DUP2 ADD PUSH1 0x1 PUSH1 0x1 PUSH1 0x40 SHL SUB DUP2 GT DUP3 DUP3 LT OR ISZERO PUSH3 0x836 JUMPI PUSH3 0x836 PUSH3 0x94B JUMP JUMPDEST PUSH1 0x40 MSTORE SWAP1 JUMP JUMPDEST PUSH1 0x40 MLOAD PUSH1 0xA0 DUP2 ADD PUSH1 0x1 PUSH1 0x1 PUSH1 0x40 SHL SUB DUP2 GT DUP3 DUP3 LT OR ISZERO PUSH3 0x836 JUMPI PUSH3 0x836 PUSH3 0x94B JUMP JUMPDEST PUSH1 0x40 MLOAD PUSH1 0x1F DUP3 ADD PUSH1 0x1F NOT AND DUP2 ADD PUSH1 0x1 PUSH1 0x1 PUSH1 0x40 SHL SUB DUP2 GT DUP3 DUP3 LT OR ISZERO PUSH3 0x88C JUMPI PUSH3 0x88C PUSH3 0x94B JUMP JUMPDEST PUSH1 0x40 MSTORE SWAP2 SWAP1 POP JUMP JUMPDEST PUSH1 0x0 DUP3 DUP3 LT ISZERO PUSH3 0x8A9 JUMPI PUSH3 0x8A9 PUSH3 0x909 JUMP JUMPDEST POP SUB SWAP1 JUMP JUMPDEST PUSH1 0x1 DUP2 DUP2 SHR SWAP1 DUP3 AND DUP1 PUSH3 0x8C3 JUMPI PUSH1 0x7F DUP3 AND SWAP2 POP JUMPDEST PUSH1 0x20 DUP3 LT DUP2 EQ ISZERO PUSH3 0x8E5 JUMPI PUSH4 0x4E487B71 PUSH1 0xE0 SHL PUSH1 0x0 MSTORE PUSH1 0x22 PUSH1 0x4 MSTORE PUSH1 0x24 PUSH1 0x0 REVERT JUMPDEST POP SWAP2 SWAP1 POP JUMP JUMPDEST PUSH1 0x0 PUSH1 0x0 NOT DUP3 EQ ISZERO PUSH3 0x902 JUMPI PUSH3 0x902 PUSH3 0x909 JUMP JUMPDEST POP PUSH1 0x1 ADD SWAP1 JUMP JUMPDEST PUSH4 0x4E487B71 PUSH1 0xE0 SHL PUSH1 0x0 MSTORE PUSH1 0x11 PUSH1 0x4 MSTORE PUSH1 0x24 PUSH1 0x0 REVERT JUMPDEST PUSH4 0x4E487B71 PUSH1 0xE0 SHL PUSH1 0x0 MSTORE PUSH1 0x21 PUSH1 0x4 MSTORE PUSH1 0x24 PUSH1 0x0 REVERT JUMPDEST PUSH4 0x4E487B71 PUSH1 0xE0 SHL PUSH1 0x0 MSTORE PUSH1 0x32 PUSH1 0x4 MSTORE PUSH1 0x24 PUSH1 0x0 REVERT JUMPDEST PUSH4 0x4E487B71 PUSH1 0xE0 SHL PUSH1 0x0 MSTORE PUSH1 0x41 PUSH1 0x4 MSTORE PUSH1 0x24 PUSH1 0x0 REVERT JUMPDEST PUSH2 0x3F03 DUP1 PUSH3 0x971 PUSH1 0x0 CODECOPY PUSH1 0x0 RETURN INVALID PUSH1 0x80 PUSH1 0x40 MSTORE PUSH1 0x4 CALLDATASIZE LT PUSH2 0x1A0 JUMPI PUSH1 0x0 CALLDATALOAD PUSH1 0xE0 SHR DUP1 PUSH4 0x8DA5CB5B GT PUSH2 0xEC JUMPI DUP1 PUSH4 0xDD74075C GT PUSH2 0x8A JUMPI DUP1 PUSH4 0xEE2923D9 GT PUSH2 0x64 JUMPI DUP1 PUSH4 0xEE2923D9 EQ PUSH2 0x478 JUMPI DUP1 PUSH4 0xF2FDE38B EQ PUSH2 0x49A JUMPI DUP1 PUSH4 0xF9C75699 EQ PUSH2 0x4BA JUMPI DUP1 PUSH4 0xFEDDA89C EQ PUSH2 0x4DA JUMPI PUSH1 0x0 DUP1 REVERT JUMPDEST DUP1 PUSH4 0xDD74075C EQ PUSH2 0x407 JUMPI DUP1 PUSH4 0xE06174E4 EQ PUSH2 0x41D JUMPI DUP1 PUSH4 0xE70D8FDC EQ PUSH2 0x44B JUMPI PUSH1 0x0 DUP1 REVERT JUMPDEST DUP1 PUSH4 0x9B214950 GT PUSH2 0xC6 JUMPI DUP1 PUSH4 0x9B214950 EQ PUSH2 0x382 JUMPI DUP1 PUSH4 0xB33D600A EQ PUSH2 0x397 JUMPI DUP1 PUSH4 0xC19D93FB EQ PUSH2 0x3C4 JUMPI DUP1 PUSH4 0xCA71D9F4 EQ PUSH2 0x3F2 JUMPI PUSH1 0x0 DUP1 REVERT JUMPDEST DUP1 PUSH4 0x8DA5CB5B EQ PUSH2 0x325 JUMPI DUP1 PUSH4 0x9248B04A EQ PUSH2 0x34D JUMPI DUP1 PUSH4 0x99F96C51 EQ PUSH2 0x362 JUMPI PUSH1 0x0 DUP1 REVERT JUMPDEST DUP1 PUSH4 0x1F96B8AB GT PUSH2 0x159 JUMPI DUP1 PUSH4 0x5F6577A8 GT PUSH2 0x133 JUMPI DUP1 PUSH4 0x5F6577A8 EQ PUSH2 0x2A9 JUMPI DUP1 PUSH4 0x70F1B331 EQ PUSH2 0x2BE JUMPI DUP1 PUSH4 0x715018A6 EQ PUSH2 0x2E3 JUMPI DUP1 PUSH4 0x818A36A1 EQ PUSH2 0x2F8 JUMPI PUSH1 0x0 DUP1 REVERT JUMPDEST DUP1 PUSH4 0x1F96B8AB EQ PUSH2 0x254 JUMPI DUP1 PUSH4 0x39FC1128 EQ PUSH2 0x274 JUMPI DUP1 PUSH4 0x42F60CB5 EQ PUSH2 0x294 JUMPI PUSH1 0x0 DUP1 REVERT JUMPDEST DUP1 PUSH4 0x10BD419 EQ PUSH2 0x1AC JUMPI DUP1 PUSH4 0x155ECAF EQ PUSH2 0x1CE JUMPI DUP1 PUSH4 0x346920D EQ PUSH2 0x1E3 JUMPI DUP1 PUSH4 0x3F9C793 EQ PUSH2 0x203 JUMPI DUP1 PUSH4 0xB293A31 EQ PUSH2 0x216 JUMPI DUP1 PUSH4 0x1CA8B6CB EQ PUSH2 0x22B JUMPI PUSH1 0x0 DUP1 REVERT JUMPDEST CALLDATASIZE PUSH2 0x1A7 JUMPI STOP JUMPDEST PUSH1 0x0 DUP1 REVERT JUMPDEST CALLVALUE DUP1 ISZERO PUSH2 0x1B8 JUMPI PUSH1 0x0 DUP1 REVERT JUMPDEST POP PUSH2 0x1CC PUSH2 0x1C7 CALLDATASIZE PUSH1 0x4 PUSH2 0x3605 JUMP JUMPDEST PUSH2 0x4EF JUMP JUMPDEST STOP JUMPDEST CALLVALUE DUP1 ISZERO PUSH2 0x1DA JUMPI PUSH1 0x0 DUP1 REVERT JUMPDEST POP PUSH2 0x1CC PUSH2 0x797 JUMP JUMPDEST CALLVALUE DUP1 ISZERO PUSH2 0x1EF JUMPI PUSH1 0x0 DUP1 REVERT JUMPDEST POP PUSH2 0x1CC PUSH2 0x1FE CALLDATASIZE PUSH1 0x4 PUSH2 0x3597 JUMP JUMPDEST PUSH2 0xA3D JUMP JUMPDEST PUSH2 0x1CC PUSH2 0x211 CALLDATASIZE PUSH1 0x4 PUSH2 0x353B JUMP JUMPDEST PUSH2 0xA79 JUMP JUMPDEST CALLVALUE DUP1 ISZERO PUSH2 0x222 JUMPI PUSH1 0x0 DUP1 REVERT JUMPDEST POP PUSH2 0x1CC PUSH2 0xDC2 JUMP JUMPDEST CALLVALUE DUP1 ISZERO PUSH2 0x237 JUMPI PUSH1 0x0 DUP1 REVERT JUMPDEST POP PUSH2 0x241 PUSH1 0xD SLOAD DUP2 JUMP JUMPDEST PUSH1 0x40 MLOAD SWAP1 DUP2 MSTORE PUSH1 0x20 ADD JUMPDEST PUSH1 0x40 MLOAD DUP1 SWAP2 SUB SWAP1 RETURN JUMPDEST CALLVALUE DUP1 ISZERO PUSH2 0x260 JUMPI PUSH1 0x0 DUP1 REVERT JUMPDEST POP PUSH2 0x1CC PUSH2 0x26F CALLDATASIZE PUSH1 0x4 PUSH2 0x3605 JUMP JUMPDEST PUSH2 0xDDA JUMP JUMPDEST CALLVALUE DUP1 ISZERO PUSH2 0x280 JUMPI PUSH1 0x0 DUP1 REVERT JUMPDEST POP PUSH2 0x1CC PUSH2 0x28F CALLDATASIZE PUSH1 0x4 PUSH2 0x35D3 JUMP JUMPDEST PUSH2 0xFD3 JUMP JUMPDEST CALLVALUE DUP1 ISZERO PUSH2 0x2A0 JUMPI PUSH1 0x0 DUP1 REVERT JUMPDEST POP PUSH2 0x1CC PUSH2 0x101D JUMP JUMPDEST CALLVALUE DUP1 ISZERO PUSH2 0x2B5 JUMPI PUSH1 0x0 DUP1 REVERT JUMPDEST POP PUSH2 0x1CC PUSH2 0x10BD JUMP JUMPDEST CALLVALUE DUP1 ISZERO PUSH2 0x2CA JUMPI PUSH1 0x0 DUP1 REVERT JUMPDEST POP PUSH2 0x2D3 PUSH2 0x1537 JUMP JUMPDEST PUSH1 0x40 MLOAD SWAP1 ISZERO ISZERO DUP2 MSTORE PUSH1 0x20 ADD PUSH2 0x24B JUMP JUMPDEST CALLVALUE DUP1 ISZERO PUSH2 0x2EF JUMPI PUSH1 0x0 DUP1 REVERT JUMPDEST POP PUSH2 0x1CC PUSH2 0x167F JUMP JUMPDEST CALLVALUE DUP1 ISZERO PUSH2 0x304 JUMPI PUSH1 0x0 DUP1 REVERT JUMPDEST POP PUSH2 0x318 PUSH2 0x313 CALLDATASIZE PUSH1 0x4 PUSH2 0x3605 JUMP JUMPDEST PUSH2 0x16F3 JUMP JUMPDEST PUSH1 0x40 MLOAD PUSH2 0x24B SWAP2 SWAP1 PUSH2 0x37E4 JUMP JUMPDEST CALLVALUE DUP1 ISZERO PUSH2 0x331 JUMPI PUSH1 0x0 DUP1 REVERT JUMPDEST POP PUSH1 0x0 SLOAD PUSH1 0x40 MLOAD PUSH1 0x1 PUSH1 0x1 PUSH1 0xA0 SHL SUB SWAP1 SWAP2 AND DUP2 MSTORE PUSH1 0x20 ADD PUSH2 0x24B JUMP JUMPDEST CALLVALUE DUP1 ISZERO PUSH2 0x359 JUMPI PUSH1 0x0 DUP1 REVERT JUMPDEST POP PUSH2 0x1CC PUSH2 0x1846 JUMP JUMPDEST CALLVALUE DUP1 ISZERO PUSH2 0x36E JUMPI PUSH1 0x0 DUP1 REVERT JUMPDEST POP PUSH2 0x1CC PUSH2 0x37D CALLDATASIZE PUSH1 0x4 PUSH2 0x3605 JUMP JUMPDEST PUSH2 0x1A78 JUMP JUMPDEST CALLVALUE DUP1 ISZERO PUSH2 0x38E JUMPI PUSH1 0x0 DUP1 REVERT JUMPDEST POP PUSH2 0x1CC PUSH2 0x1D15 JUMP JUMPDEST CALLVALUE DUP1 ISZERO PUSH2 0x3A3 JUMPI PUSH1 0x0 DUP1 REVERT JUMPDEST POP PUSH2 0x3B7 PUSH2 0x3B2 CALLDATASIZE PUSH1 0x4 PUSH2 0x353B JUMP JUMPDEST PUSH2 0x208B JUMP JUMPDEST PUSH1 0x40 MLOAD PUSH2 0x24B SWAP2 SWAP1 PUSH2 0x3991 JUMP JUMPDEST CALLVALUE DUP1 ISZERO PUSH2 0x3D0 JUMPI PUSH1 0x0 DUP1 REVERT JUMPDEST POP PUSH1 0x0 SLOAD PUSH2 0x3E5 SWAP1 PUSH1 0x1 PUSH1 0xA0 SHL SWAP1 DIV PUSH1 0xFF AND DUP2 JUMP JUMPDEST PUSH1 0x40 MLOAD PUSH2 0x24B SWAP2 SWAP1 PUSH2 0x3934 JUMP JUMPDEST CALLVALUE DUP1 ISZERO PUSH2 0x3FE JUMPI PUSH1 0x0 DUP1 REVERT JUMPDEST POP PUSH2 0x2D3 PUSH2 0x2537 JUMP JUMPDEST CALLVALUE DUP1 ISZERO PUSH2 0x413 JUMPI PUSH1 0x0 DUP1 REVERT JUMPDEST POP PUSH2 0x241 PUSH1 0xC SLOAD DUP2 JUMP JUMPDEST CALLVALUE DUP1 ISZERO PUSH2 0x429 JUMPI PUSH1 0x0 DUP1 REVERT JUMPDEST POP PUSH2 0x432 PUSH2 0x25AD JUMP JUMPDEST PUSH1 0x40 MLOAD PUSH2 0x24B SWAP14 SWAP13 SWAP12 SWAP11 SWAP10 SWAP9 SWAP8 SWAP7 SWAP6 SWAP5 SWAP4 SWAP3 SWAP2 SWAP1 PUSH2 0x374D JUMP JUMPDEST CALLVALUE DUP1 ISZERO PUSH2 0x457 JUMPI PUSH1 0x0 DUP1 REVERT JUMPDEST POP PUSH2 0x46B PUSH2 0x466 CALLDATASIZE PUSH1 0x4 PUSH2 0x3605 JUMP JUMPDEST PUSH2 0x27A0 JUMP JUMPDEST PUSH1 0x40 MLOAD PUSH2 0x24B SWAP2 SWAP1 PUSH2 0x3849 JUMP JUMPDEST CALLVALUE DUP1 ISZERO PUSH2 0x484 JUMPI PUSH1 0x0 DUP1 REVERT JUMPDEST POP PUSH2 0x48D PUSH2 0x28CF JUMP JUMPDEST PUSH1 0x40 MLOAD PUSH2 0x24B SWAP2 SWAP1 PUSH2 0x3894 JUMP JUMPDEST CALLVALUE DUP1 ISZERO PUSH2 0x4A6 JUMPI PUSH1 0x0 DUP1 REVERT JUMPDEST POP PUSH2 0x1CC PUSH2 0x4B5 CALLDATASIZE PUSH1 0x4 PUSH2 0x353B JUMP JUMPDEST PUSH2 0x2C38 JUMP JUMPDEST CALLVALUE DUP1 ISZERO PUSH2 0x4C6 JUMPI PUSH1 0x0 DUP1 REVERT JUMPDEST POP PUSH2 0x241 PUSH2 0x4D5 CALLDATASIZE PUSH1 0x4 PUSH2 0x353B JUMP JUMPDEST PUSH2 0x2D22 JUMP JUMPDEST CALLVALUE DUP1 ISZERO PUSH2 0x4E6 JUMPI PUSH1 0x0 DUP1 REVERT JUMPDEST POP PUSH2 0x1CC PUSH2 0x2E69 JUMP JUMPDEST PUSH1 0x4 PUSH1 0x0 SLOAD PUSH1 0x1 PUSH1 0xA0 SHL SWAP1 DIV PUSH1 0xFF AND PUSH1 0x7 DUP2 GT ISZERO PUSH2 0x50F JUMPI PUSH2 0x50F PUSH2 0x3D80 JUMP JUMPDEST EQ PUSH2 0x57D JUMPI PUSH1 0x40 MLOAD PUSH3 0x461BCD PUSH1 0xE5 SHL DUP2 MSTORE PUSH1 0x20 PUSH1 0x4 DUP3 ADD MSTORE PUSH1 0x33 PUSH1 0x24 DUP3 ADD MSTORE PUSH32 0x50523A20496E766573746F727320746F6B656E73206861766520616C72656164 PUSH1 0x44 DUP3 ADD MSTORE PUSH19 0x79206265656E20646973747269627574656421 PUSH1 0x68 SHL PUSH1 0x64 DUP3 ADD MSTORE PUSH1 0x84 ADD JUMPDEST PUSH1 0x40 MLOAD DUP1 SWAP2 SUB SWAP1 REVERT JUMPDEST PUSH1 0x0 PUSH2 0x589 DUP4 DUP4 PUSH2 0x16F3 JUMP JUMPDEST SWAP1 POP PUSH1 0x0 JUMPDEST DUP2 MLOAD DUP2 LT ISZERO PUSH2 0x791 JUMPI PUSH1 0x4 PUSH1 0x1 PUSH1 0x3 PUSH1 0x0 DUP6 DUP6 DUP2 MLOAD DUP2 LT PUSH2 0x5B1 JUMPI PUSH2 0x5B1 PUSH2 0x3D96 JUMP JUMPDEST PUSH1 0x20 MUL PUSH1 0x20 ADD ADD MLOAD PUSH1 0x0 ADD MLOAD PUSH1 0x1 PUSH1 0x1 PUSH1 0xA0 SHL SUB AND PUSH1 0x1 PUSH1 0x1 PUSH1 0xA0 SHL SUB AND DUP2 MSTORE PUSH1 0x20 ADD SWAP1 DUP2 MSTORE PUSH1 0x20 ADD PUSH1 0x0 KECCAK256 SLOAD PUSH2 0x5E8 SWAP2 SWAP1 PUSH2 0x3BEF JUMP JUMPDEST DUP2 SLOAD DUP2 LT PUSH2 0x5F8 JUMPI PUSH2 0x5F8 PUSH2 0x3D96 JUMP JUMPDEST SWAP1 PUSH1 0x0 MSTORE PUSH1 0x20 PUSH1 0x0 KECCAK256 SWAP1 PUSH1 0x5 MUL ADD PUSH1 0x1 ADD SLOAD PUSH1 0x0 EQ ISZERO PUSH2 0x77F JUMPI PUSH1 0x40 MLOAD DUP1 PUSH1 0xA0 ADD PUSH1 0x40 MSTORE DUP1 DUP4 DUP4 DUP2 MLOAD DUP2 LT PUSH2 0x62F JUMPI PUSH2 0x62F PUSH2 0x3D96 JUMP JUMPDEST PUSH1 0x20 MUL PUSH1 0x20 ADD ADD MLOAD PUSH1 0x0 ADD MLOAD PUSH1 0x1 PUSH1 0x1 PUSH1 0xA0 SHL SUB AND DUP2 MSTORE PUSH1 0x20 ADD PUSH1 0xA SLOAD DUP5 DUP5 DUP2 MLOAD DUP2 LT PUSH2 0x65E JUMPI PUSH2 0x65E PUSH2 0x3D96 JUMP JUMPDEST PUSH1 0x20 MUL PUSH1 0x20 ADD ADD MLOAD PUSH1 0x40 ADD MLOAD PUSH1 0xC SLOAD PUSH2 0x677 SWAP2 SWAP1 PUSH2 0x3BD0 JUMP JUMPDEST PUSH2 0x681 SWAP2 SWAP1 PUSH2 0x3BAE JUMP JUMPDEST DUP2 MSTORE PUSH1 0x20 ADD PUSH1 0x0 DUP2 MSTORE PUSH1 0x20 ADD PUSH1 0xF PUSH1 0x5 ADD SLOAD TIMESTAMP PUSH2 0x69E SWAP2 SWAP1 PUSH2 0x3B96 JUMP JUMPDEST DUP2 MSTORE PUSH1 0x15 SLOAD PUSH1 0x14 SLOAD PUSH1 0x20 SWAP1 SWAP3 ADD SWAP2 PUSH2 0x6B6 SWAP1 TIMESTAMP PUSH2 0x3B96 JUMP JUMPDEST PUSH2 0x6C0 SWAP2 SWAP1 PUSH2 0x3B96 JUMP JUMPDEST DUP2 MSTORE POP PUSH1 0x4 PUSH1 0x1 PUSH1 0x3 PUSH1 0x0 DUP7 DUP7 DUP2 MLOAD DUP2 LT PUSH2 0x6DD JUMPI PUSH2 0x6DD PUSH2 0x3D96 JUMP JUMPDEST PUSH1 0x20 MUL PUSH1 0x20 ADD ADD MLOAD PUSH1 0x0 ADD MLOAD PUSH1 0x1 PUSH1 0x1 PUSH1 0xA0 SHL SUB AND PUSH1 0x1 PUSH1 0x1 PUSH1 0xA0 SHL SUB AND DUP2 MSTORE PUSH1 0x20 ADD SWAP1 DUP2 MSTORE PUSH1 0x20 ADD PUSH1 0x0 KECCAK256 SLOAD PUSH2 0x714 SWAP2 SWAP1 PUSH2 0x3BEF JUMP JUMPDEST DUP2 SLOAD DUP2 LT PUSH2 0x724 JUMPI PUSH2 0x724 PUSH2 0x3D96 JUMP JUMPDEST PUSH1 0x0 SWAP2 DUP3 MSTORE PUSH1 0x20 SWAP2 DUP3 SWAP1 KECCAK256 DUP4 MLOAD PUSH1 0x5 SWAP3 SWAP1 SWAP3 MUL ADD DUP1 SLOAD PUSH1 0x1 PUSH1 0x1 PUSH1 0xA0 SHL SUB NOT AND PUSH1 0x1 PUSH1 0x1 PUSH1 0xA0 SHL SUB SWAP1 SWAP3 AND SWAP2 SWAP1 SWAP2 OR DUP2 SSTORE SWAP1 DUP3 ADD MLOAD PUSH1 0x1 DUP3 ADD SSTORE PUSH1 0x40 DUP3 ADD MLOAD PUSH1 0x2 DUP3 ADD SSTORE PUSH1 0x60 DUP3 ADD MLOAD PUSH1 0x3 DUP3 ADD SSTORE PUSH1 0x80 SWAP1 SWAP2 ADD MLOAD PUSH1 0x4 SWAP1 SWAP2 ADD SSTORE JUMPDEST DUP1 PUSH2 0x789 DUP2 PUSH2 0x3D4F JUMP JUMPDEST SWAP2 POP POP PUSH2 0x58E JUMP JUMPDEST POP POP POP POP JUMP JUMPDEST PUSH1 0x0 SLOAD PUSH1 0x1 PUSH1 0x1 PUSH1 0xA0 SHL SUB AND CALLER EQ PUSH2 0x7C1 JUMPI PUSH1 0x40 MLOAD PUSH3 0x461BCD PUSH1 0xE5 SHL DUP2 MSTORE PUSH1 0x4 ADD PUSH2 0x574 SWAP1 PUSH2 0x395C JUMP JUMPDEST PUSH1 0x1 PUSH1 0x0 SLOAD PUSH1 0x1 PUSH1 0xA0 SHL SWAP1 DIV PUSH1 0xFF AND PUSH1 0x7 DUP2 GT ISZERO PUSH2 0x7E1 JUMPI PUSH2 0x7E1 PUSH2 0x3D80 JUMP JUMPDEST EQ PUSH2 0x82E JUMPI PUSH1 0x40 MLOAD PUSH3 0x461BCD PUSH1 0xE5 SHL DUP2 MSTORE PUSH1 0x20 PUSH1 0x4 DUP3 ADD MSTORE PUSH1 0x1C PUSH1 0x24 DUP3 ADD MSTORE PUSH32 0x50523A205061697220697320616C726561647920637265617465642100000000 PUSH1 0x44 DUP3 ADD MSTORE PUSH1 0x64 ADD PUSH2 0x574 JUMP JUMPDEST PUSH1 0xF SLOAD PUSH1 0x1 PUSH1 0x1 PUSH1 0xA0 SHL SUB AND PUSH2 0x899 JUMPI PUSH1 0x40 MLOAD PUSH3 0x461BCD PUSH1 0xE5 SHL DUP2 MSTORE PUSH1 0x20 PUSH1 0x4 DUP3 ADD MSTORE PUSH1 0x2A PUSH1 0x24 DUP3 ADD MSTORE PUSH32 0x50523A20546F6B656E206164647265737320776173206E6F7420696E69746961 PUSH1 0x44 DUP3 ADD MSTORE PUSH10 0x6C697A65642079657421 PUSH1 0xB0 SHL PUSH1 0x64 DUP3 ADD MSTORE PUSH1 0x84 ADD PUSH2 0x574 JUMP JUMPDEST PUSH1 0xF SLOAD PUSH1 0x40 MLOAD PUSH4 0xE6A43905 PUSH1 0xE0 SHL DUP2 MSTORE PUSH1 0x1 PUSH1 0x1 PUSH1 0xA0 SHL SUB SWAP1 SWAP2 AND PUSH1 0x4 DUP3 ADD MSTORE PUSH20 0x73CE46D328524FB3529A39D64B314AB1A594A57 PUSH1 0x24 DUP3 ADD MSTORE PUSH20 0x5C69BEE701EF814A2B6A3EDD4B1652CB9CC5AA6F SWAP1 PUSH4 0xE6A43905 SWAP1 PUSH1 0x44 ADD PUSH1 0x20 PUSH1 0x40 MLOAD DUP1 DUP4 SUB DUP2 DUP7 DUP1 EXTCODESIZE ISZERO DUP1 ISZERO PUSH2 0x90A JUMPI PUSH1 0x0 DUP1 REVERT JUMPDEST POP GAS STATICCALL ISZERO DUP1 ISZERO PUSH2 0x91E JUMPI RETURNDATASIZE PUSH1 0x0 DUP1 RETURNDATACOPY RETURNDATASIZE PUSH1 0x0 REVERT JUMPDEST POP POP POP POP PUSH1 0x40 MLOAD RETURNDATASIZE PUSH1 0x1F NOT PUSH1 0x1F DUP3 ADD AND DUP3 ADD DUP1 PUSH1 0x40 MSTORE POP DUP2 ADD SWAP1 PUSH2 0x942 SWAP2 SWAP1 PUSH2 0x3558 JUMP JUMPDEST PUSH1 0xE DUP1 SLOAD PUSH1 0x1 PUSH1 0x1 PUSH1 0xA0 SHL SUB NOT AND PUSH1 0x1 PUSH1 0x1 PUSH1 0xA0 SHL SUB SWAP3 SWAP1 SWAP3 AND SWAP2 DUP3 OR SWAP1 SSTORE PUSH2 0xA31 JUMPI PUSH1 0xF SLOAD PUSH1 0x40 MLOAD PUSH4 0x64E329CB PUSH1 0xE1 SHL DUP2 MSTORE PUSH1 0x1 PUSH1 0x1 PUSH1 0xA0 SHL SUB SWAP1 SWAP2 AND PUSH1 0x4 DUP3 ADD MSTORE PUSH20 0x73CE46D328524FB3529A39D64B314AB1A594A57 PUSH1 0x24 DUP3 ADD MSTORE PUSH20 0x5C69BEE701EF814A2B6A3EDD4B1652CB9CC5AA6F SWAP1 PUSH4 0xC9C65396 SWAP1 PUSH1 0x44 ADD PUSH1 0x20 PUSH1 0x40 MLOAD DUP1 DUP4 SUB DUP2 PUSH1 0x0 DUP8 DUP1 EXTCODESIZE ISZERO DUP1 ISZERO PUSH2 0x9D8 JUMPI PUSH1 0x0 DUP1 REVERT JUMPDEST POP GAS CALL ISZERO DUP1 ISZERO PUSH2 0x9EC JUMPI RETURNDATASIZE PUSH1 0x0 DUP1 RETURNDATACOPY RETURNDATASIZE PUSH1 0x0 REVERT JUMPDEST POP POP POP POP PUSH1 0x40 MLOAD RETURNDATASIZE PUSH1 0x1F NOT PUSH1 0x1F DUP3 ADD AND DUP3 ADD DUP1 PUSH1 0x40 MSTORE POP DUP2 ADD SWAP1 PUSH2 0xA10 SWAP2 SWAP1 PUSH2 0x3558 JUMP JUMPDEST PUSH1 0xE DUP1 SLOAD PUSH1 0x1 PUSH1 0x1 PUSH1 0xA0 SHL SUB NOT AND PUSH1 0x1 PUSH1 0x1 PUSH1 0xA0 SHL SUB SWAP3 SWAP1 SWAP3 AND SWAP2 SWAP1 SWAP2 OR SWAP1 SSTORE JUMPDEST PUSH2 0xA3B PUSH1 0x3 PUSH2 0x2ED0 JUMP JUMPDEST JUMP JUMPDEST PUSH1 0x0 SLOAD PUSH1 0x1 PUSH1 0x1 PUSH1 0xA0 SHL SUB AND CALLER EQ PUSH2 0xA67 JUMPI PUSH1 0x40 MLOAD PUSH3 0x461BCD PUSH1 0xE5 SHL DUP2 MSTORE PUSH1 0x4 ADD PUSH2 0x574 SWAP1 PUSH2 0x395C JUMP JUMPDEST DUP1 PUSH1 0xF PUSH2 0xA74 DUP3 DUP3 PUSH2 0x3DD5 JUMP JUMPDEST POP POP POP JUMP JUMPDEST PUSH1 0x0 DUP1 SLOAD PUSH1 0x1 PUSH1 0xA0 SHL SWAP1 DIV PUSH1 0xFF AND PUSH1 0x7 DUP2 GT ISZERO PUSH2 0xA98 JUMPI PUSH2 0xA98 PUSH2 0x3D80 JUMP JUMPDEST EQ PUSH2 0xAF6 JUMPI PUSH1 0x40 MLOAD PUSH3 0x461BCD PUSH1 0xE5 SHL DUP2 MSTORE PUSH1 0x20 PUSH1 0x4 DUP3 ADD MSTORE PUSH1 0x28 PUSH1 0x24 DUP3 ADD MSTORE PUSH32 0x50523A20416363657074696E67207061796D656E747320686173206265656E20 PUSH1 0x44 DUP3 ADD MSTORE PUSH8 0x73746F7070656421 PUSH1 0xC0 SHL PUSH1 0x64 DUP3 ADD MSTORE PUSH1 0x84 ADD PUSH2 0x574 JUMP JUMPDEST PUSH1 0x18 SLOAD PUSH1 0xA SLOAD GT ISZERO PUSH2 0xB41 JUMPI PUSH1 0x40 MLOAD PUSH3 0x461BCD PUSH1 0xE5 SHL DUP2 MSTORE PUSH1 0x20 PUSH1 0x4 DUP3 ADD MSTORE PUSH1 0x14 PUSH1 0x24 DUP3 ADD MSTORE PUSH20 0x50523A204D617820636170207265616368656421 PUSH1 0x60 SHL PUSH1 0x44 DUP3 ADD MSTORE PUSH1 0x64 ADD PUSH2 0x574 JUMP JUMPDEST PUSH1 0x19 SLOAD CALLVALUE LT ISZERO PUSH2 0xBA1 JUMPI PUSH1 0x40 MLOAD PUSH3 0x461BCD PUSH1 0xE5 SHL DUP2 MSTORE PUSH1 0x20 PUSH1 0x4 DUP3 ADD MSTORE PUSH1 0x25 PUSH1 0x24 DUP3 ADD MSTORE PUSH32 0x50523A20416D6F756E742069732062656C6F77206D696E696D756D207065726D PUSH1 0x44 DUP3 ADD MSTORE PUSH5 0x1A5D1D1959 PUSH1 0xDA SHL PUSH1 0x64 DUP3 ADD MSTORE PUSH1 0x84 ADD PUSH2 0x574 JUMP JUMPDEST PUSH1 0x1A SLOAD CALLVALUE GT ISZERO PUSH2 0xC01 JUMPI PUSH1 0x40 MLOAD PUSH3 0x461BCD PUSH1 0xE5 SHL DUP2 MSTORE PUSH1 0x20 PUSH1 0x4 DUP3 ADD MSTORE PUSH1 0x25 PUSH1 0x24 DUP3 ADD MSTORE PUSH32 0x50523A20416D6F756E742069732061626F7665206D6178696D756D207065726D PUSH1 0x44 DUP3 ADD MSTORE PUSH5 0x1A5D1D1959 PUSH1 0xDA SHL PUSH1 0x64 DUP3 ADD MSTORE PUSH1 0x84 ADD PUSH2 0x574 JUMP JUMPDEST CALLER PUSH1 0x0 SWAP1 DUP2 MSTORE PUSH1 0x7 PUSH1 0x20 MSTORE PUSH1 0x40 SWAP1 KECCAK256 SLOAD ISZERO PUSH2 0xC68 JUMPI PUSH1 0x40 MLOAD PUSH3 0x461BCD PUSH1 0xE5 SHL DUP2 MSTORE PUSH1 0x20 PUSH1 0x4 DUP3 ADD MSTORE PUSH1 0x21 PUSH1 0x24 DUP3 ADD MSTORE PUSH32 0x50523A205465616D206973206E6F7420616C6C6F77656420746F20696E766573 PUSH1 0x44 DUP3 ADD MSTORE PUSH1 0x1D PUSH1 0xFA SHL PUSH1 0x64 DUP3 ADD MSTORE PUSH1 0x84 ADD PUSH2 0x574 JUMP JUMPDEST CALLER PUSH1 0x0 SWAP1 DUP2 MSTORE PUSH1 0x5 PUSH1 0x20 MSTORE PUSH1 0x40 SWAP1 KECCAK256 SLOAD ISZERO PUSH2 0xCEB JUMPI PUSH1 0x40 MLOAD PUSH3 0x461BCD PUSH1 0xE5 SHL DUP2 MSTORE PUSH1 0x20 PUSH1 0x4 DUP3 ADD MSTORE PUSH1 0x38 PUSH1 0x24 DUP3 ADD MSTORE PUSH32 0x50523A20496E76657374696E6720666F72206163746976652072656665727261 PUSH1 0x44 DUP3 ADD MSTORE PUSH32 0x6C2061646472657373657320697320666F7262696464656E0000000000000000 PUSH1 0x64 DUP3 ADD MSTORE PUSH1 0x84 ADD PUSH2 0x574 JUMP JUMPDEST CALLER PUSH1 0x1 PUSH1 0x1 PUSH1 0xA0 SHL SUB DUP3 AND EQ ISZERO PUSH2 0xD6A JUMPI PUSH1 0x40 MLOAD PUSH3 0x461BCD PUSH1 0xE5 SHL DUP2 MSTORE PUSH1 0x20 PUSH1 0x4 DUP3 ADD MSTORE PUSH1 0x3E PUSH1 0x24 DUP3 ADD MSTORE PUSH32 0x50523A2053656C662D7265662069736E277420616C6C6F7765642E20506C6561 PUSH1 0x44 DUP3 ADD MSTORE PUSH32 0x73652075736520646966666572656E7420726566657272616C206C696E6B0000 PUSH1 0x64 DUP3 ADD MSTORE PUSH1 0x84 ADD PUSH2 0x574 JUMP JUMPDEST PUSH1 0x1 PUSH1 0x1 PUSH1 0xA0 SHL SUB DUP2 AND PUSH2 0xD8F JUMPI POP PUSH20 0xC427A912E0B19F082840A0045E430DE5B8CB1F65 JUMPDEST PUSH2 0xD9A CALLER DUP3 CALLVALUE PUSH2 0x2F34 JUMP JUMPDEST PUSH2 0xDBF DUP2 PUSH3 0xF4240 PUSH1 0x9 SLOAD CALLVALUE PUSH2 0xDB0 SWAP2 SWAP1 PUSH2 0x3BD0 JUMP JUMPDEST PUSH2 0xDBA SWAP2 SWAP1 PUSH2 0x3BAE JUMP JUMPDEST PUSH2 0x3156 JUMP JUMPDEST POP JUMP JUMPDEST PUSH2 0xDCA PUSH2 0x101D JUMP JUMPDEST PUSH2 0xDD2 PUSH2 0x797 JUMP JUMPDEST PUSH2 0xA3B PUSH2 0x10BD JUMP JUMPDEST PUSH1 0x0 SLOAD PUSH1 0x1 PUSH1 0x1 PUSH1 0xA0 SHL SUB AND CALLER EQ PUSH2 0xE04 JUMPI PUSH1 0x40 MLOAD PUSH3 0x461BCD PUSH1 0xE5 SHL DUP2 MSTORE PUSH1 0x4 ADD PUSH2 0x574 SWAP1 PUSH2 0x395C JUMP JUMPDEST PUSH2 0xE0E PUSH1 0x7 PUSH2 0x2ED0 JUMP JUMPDEST PUSH1 0x40 MLOAD PUSH4 0x70A08231 PUSH1 0xE0 SHL DUP2 MSTORE ADDRESS PUSH1 0x4 DUP3 ADD MSTORE PUSH1 0x0 SWAP1 PUSH20 0xD0A1E359811322D97991E03F863A0C30C2CF029C SWAP1 PUSH4 0x70A08231 SWAP1 PUSH1 0x24 ADD PUSH1 0x20 PUSH1 0x40 MLOAD DUP1 DUP4 SUB DUP2 DUP7 DUP1 EXTCODESIZE ISZERO DUP1 ISZERO PUSH2 0xE5B JUMPI PUSH1 0x0 DUP1 REVERT JUMPDEST POP GAS STATICCALL ISZERO DUP1 ISZERO PUSH2 0xE6F JUMPI RETURNDATASIZE PUSH1 0x0 DUP1 RETURNDATACOPY RETURNDATASIZE PUSH1 0x0 REVERT JUMPDEST POP POP POP POP PUSH1 0x40 MLOAD RETURNDATASIZE PUSH1 0x1F NOT PUSH1 0x1F DUP3 ADD AND DUP3 ADD DUP1 PUSH1 0x40 MSTORE POP DUP2 ADD SWAP1 PUSH2 0xE93 SWAP2 SWAP1 PUSH2 0x35EC JUMP JUMPDEST SWAP1 POP DUP1 ISZERO PUSH2 0xF01 JUMPI PUSH1 0x40 MLOAD PUSH4 0x2E1A7D4D PUSH1 0xE0 SHL DUP2 MSTORE PUSH1 0x4 DUP2 ADD DUP3 SWAP1 MSTORE PUSH20 0xD0A1E359811322D97991E03F863A0C30C2CF029C SWAP1 PUSH4 0x2E1A7D4D SWAP1 PUSH1 0x24 ADD PUSH1 0x0 PUSH1 0x40 MLOAD DUP1 DUP4 SUB DUP2 PUSH1 0x0 DUP8 DUP1 EXTCODESIZE ISZERO DUP1 ISZERO PUSH2 0xEE8 JUMPI PUSH1 0x0 DUP1 REVERT JUMPDEST POP GAS CALL ISZERO DUP1 ISZERO PUSH2 0xEFC JUMPI RETURNDATASIZE PUSH1 0x0 DUP1 RETURNDATACOPY RETURNDATASIZE PUSH1 0x0 REVERT JUMPDEST POP POP POP POP JUMPDEST PUSH1 0x0 PUSH2 0xF0D DUP5 DUP5 PUSH2 0x16F3 JUMP JUMPDEST SWAP1 POP PUSH1 0x0 JUMPDEST DUP2 MLOAD DUP2 LT ISZERO PUSH2 0xFCC JUMPI PUSH1 0x0 DUP3 DUP3 DUP2 MLOAD DUP2 LT PUSH2 0xF2F JUMPI PUSH2 0xF2F PUSH2 0x3D96 JUMP JUMPDEST PUSH1 0x20 MUL PUSH1 0x20 ADD ADD MLOAD PUSH1 0x40 ADD MLOAD SWAP1 POP PUSH1 0x0 DUP4 DUP4 DUP2 MLOAD DUP2 LT PUSH2 0xF51 JUMPI PUSH2 0xF51 PUSH2 0x3D96 JUMP JUMPDEST PUSH1 0x20 MUL PUSH1 0x20 ADD ADD MLOAD PUSH1 0x40 ADD DUP2 DUP2 MSTORE POP POP DUP3 DUP3 DUP2 MLOAD DUP2 LT PUSH2 0xF73 JUMPI PUSH2 0xF73 PUSH2 0x3D96 JUMP JUMPDEST PUSH1 0x20 MUL PUSH1 0x20 ADD ADD MLOAD PUSH1 0x0 ADD MLOAD PUSH1 0x1 PUSH1 0x1 PUSH1 0xA0 SHL SUB AND PUSH2 0x8FC DUP3 SWAP1 DUP2 ISZERO MUL SWAP1 PUSH1 0x40 MLOAD PUSH1 0x0 PUSH1 0x40 MLOAD DUP1 DUP4 SUB DUP2 DUP6 DUP9 DUP9 CALL SWAP4 POP POP POP POP ISZERO DUP1 ISZERO PUSH2 0xFB7 JUMPI RETURNDATASIZE PUSH1 0x0 DUP1 RETURNDATACOPY RETURNDATASIZE PUSH1 0x0 REVERT JUMPDEST POP POP DUP1 DUP1 PUSH2 0xFC4 SWAP1 PUSH2 0x3D4F JUMP JUMPDEST SWAP2 POP POP PUSH2 0xF12 JUMP JUMPDEST POP POP POP POP POP JUMP JUMPDEST PUSH2 0xFDB PUSH2 0x1D15 JUMP JUMPDEST PUSH2 0xFE3 PUSH2 0x1846 JUMP JUMPDEST DUP1 ISZERO PUSH2 0xFEF JUMPI DUP1 PUSH2 0xFF3 JUMP JUMPDEST PUSH1 0x2 SLOAD JUMPDEST SWAP1 POP PUSH2 0x1000 PUSH1 0x0 DUP3 PUSH2 0x4EF JUMP JUMPDEST DUP1 ISZERO PUSH2 0x100C JUMPI DUP1 PUSH2 0x1010 JUMP JUMPDEST PUSH1 0x2 SLOAD JUMPDEST SWAP1 POP PUSH2 0xDBF PUSH1 0x0 DUP3 PUSH2 0x1A78 JUMP JUMPDEST PUSH1 0x0 SLOAD PUSH1 0x1 PUSH1 0x1 PUSH1 0xA0 SHL SUB AND CALLER EQ PUSH2 0x1047 JUMPI PUSH1 0x40 MLOAD PUSH3 0x461BCD PUSH1 0xE5 SHL DUP2 MSTORE PUSH1 0x4 ADD PUSH2 0x574 SWAP1 PUSH2 0x395C JUMP JUMPDEST PUSH1 0x0 DUP1 SLOAD PUSH1 0x1 PUSH1 0xA0 SHL SWAP1 DIV PUSH1 0xFF AND PUSH1 0x7 DUP2 GT ISZERO PUSH2 0x1066 JUMPI PUSH2 0x1066 PUSH2 0x3D80 JUMP JUMPDEST EQ PUSH2 0x10B3 JUMPI PUSH1 0x40 MLOAD PUSH3 0x461BCD PUSH1 0xE5 SHL DUP2 MSTORE PUSH1 0x20 PUSH1 0x4 DUP3 ADD MSTORE PUSH1 0x1C PUSH1 0x24 DUP3 ADD MSTORE PUSH32 0x50523A20476F616C20697320616C726561647920726561636865642100000000 PUSH1 0x44 DUP3 ADD MSTORE PUSH1 0x64 ADD PUSH2 0x574 JUMP JUMPDEST PUSH2 0xA3B PUSH1 0x1 PUSH2 0x2ED0 JUMP JUMPDEST PUSH1 0x0 SLOAD PUSH1 0x1 PUSH1 0x1 PUSH1 0xA0 SHL SUB AND CALLER EQ PUSH2 0x10E7 JUMPI PUSH1 0x40 MLOAD PUSH3 0x461BCD PUSH1 0xE5 SHL DUP2 MSTORE PUSH1 0x4 ADD PUSH2 0x574 SWAP1 PUSH2 0x395C JUMP JUMPDEST PUSH1 0x3 PUSH1 0x0 SLOAD PUSH1 0x1 PUSH1 0xA0 SHL SWAP1 DIV PUSH1 0xFF AND PUSH1 0x7 DUP2 GT ISZERO PUSH2 0x1107 JUMPI PUSH2 0x1107 PUSH2 0x3D80 JUMP JUMPDEST EQ PUSH2 0x1166 JUMPI PUSH1 0x40 MLOAD PUSH3 0x461BCD PUSH1 0xE5 SHL DUP2 MSTORE PUSH1 0x20 PUSH1 0x4 DUP3 ADD MSTORE PUSH1 0x29 PUSH1 0x24 DUP3 ADD MSTORE PUSH32 0x50523A20507265706172696E6720616464206C69717569646974792069732063 PUSH1 0x44 DUP3 ADD MSTORE PUSH9 0x6F6D706C6574656421 PUSH1 0xB8 SHL PUSH1 0x64 DUP3 ADD MSTORE PUSH1 0x84 ADD PUSH2 0x574 JUMP JUMPDEST PUSH1 0x0 SELFBALANCE GT PUSH2 0x11CA JUMPI PUSH1 0x40 MLOAD PUSH3 0x461BCD PUSH1 0xE5 SHL DUP2 MSTORE PUSH1 0x20 PUSH1 0x4 DUP3 ADD MSTORE PUSH1 0x2B PUSH1 0x24 DUP3 ADD MSTORE PUSH32 0x50523A2045746865722062616C616E6365206D757374206265206C6172676572 PUSH1 0x44 DUP3 ADD MSTORE PUSH11 0x207468616E207A65726F21 PUSH1 0xA8 SHL PUSH1 0x64 DUP3 ADD MSTORE PUSH1 0x84 ADD PUSH2 0x574 JUMP JUMPDEST PUSH1 0x0 PUSH20 0xD0A1E359811322D97991E03F863A0C30C2CF029C SWAP1 POP DUP1 PUSH1 0x1 PUSH1 0x1 PUSH1 0xA0 SHL SUB AND PUSH4 0xD0E30DB0 SELFBALANCE PUSH1 0x40 MLOAD DUP3 PUSH4 0xFFFFFFFF AND PUSH1 0xE0 SHL DUP2 MSTORE PUSH1 0x4 ADD PUSH1 0x0 PUSH1 0x40 MLOAD DUP1 DUP4 SUB DUP2 DUP6 DUP9 DUP1 EXTCODESIZE ISZERO DUP1 ISZERO PUSH2 0x121E JUMPI PUSH1 0x0 DUP1 REVERT JUMPDEST POP GAS CALL ISZERO DUP1 ISZERO PUSH2 0x1232 JUMPI RETURNDATASIZE PUSH1 0x0 DUP1 RETURNDATACOPY RETURNDATASIZE PUSH1 0x0 REVERT JUMPDEST POP POP PUSH1 0x40 MLOAD PUSH4 0xE6A43905 PUSH1 0xE0 SHL DUP2 MSTORE PUSH20 0xD0A1E359811322D97991E03F863A0C30C2CF029C PUSH1 0x4 DUP3 ADD MSTORE PUSH20 0x73CE46D328524FB3529A39D64B314AB1A594A57 PUSH1 0x24 DUP3 ADD MSTORE PUSH1 0x0 SWAP4 POP PUSH20 0x5C69BEE701EF814A2B6A3EDD4B1652CB9CC5AA6F SWAP3 POP PUSH4 0xE6A43905 SWAP2 POP PUSH1 0x44 ADD PUSH1 0x20 PUSH1 0x40 MLOAD DUP1 DUP4 SUB DUP2 DUP7 DUP1 EXTCODESIZE ISZERO DUP1 ISZERO PUSH2 0x12B2 JUMPI PUSH1 0x0 DUP1 REVERT JUMPDEST POP GAS STATICCALL ISZERO DUP1 ISZERO PUSH2 0x12C6 JUMPI RETURNDATASIZE PUSH1 0x0 DUP1 RETURNDATACOPY RETURNDATASIZE PUSH1 0x0 REVERT JUMPDEST POP POP POP POP PUSH1 0x40 MLOAD RETURNDATASIZE PUSH1 0x1F NOT PUSH1 0x1F DUP3 ADD AND DUP3 ADD DUP1 PUSH1 0x40 MSTORE POP DUP2 ADD SWAP1 PUSH2 0x12EA SWAP2 SWAP1 PUSH2 0x3558 JUMP JUMPDEST PUSH1 0x40 MLOAD PUSH4 0x70A08231 PUSH1 0xE0 SHL DUP2 MSTORE ADDRESS PUSH1 0x4 DUP3 ADD MSTORE SWAP1 SWAP2 POP PUSH1 0x0 SWAP1 PUSH1 0x1 PUSH1 0x1 PUSH1 0xA0 SHL SUB DUP5 AND SWAP1 PUSH4 0x70A08231 SWAP1 PUSH1 0x24 ADD PUSH1 0x20 PUSH1 0x40 MLOAD DUP1 DUP4 SUB DUP2 DUP7 DUP1 EXTCODESIZE ISZERO DUP1 ISZERO PUSH2 0x132F JUMPI PUSH1 0x0 DUP1 REVERT JUMPDEST POP GAS STATICCALL ISZERO DUP1 ISZERO PUSH2 0x1343 JUMPI RETURNDATASIZE PUSH1 0x0 DUP1 RETURNDATACOPY RETURNDATASIZE PUSH1 0x0 REVERT JUMPDEST POP POP POP POP PUSH1 0x40 MLOAD RETURNDATASIZE PUSH1 0x1F NOT PUSH1 0x1F DUP3 ADD AND DUP3 ADD DUP1 PUSH1 0x40 MSTORE POP DUP2 ADD SWAP1 PUSH2 0x1367 SWAP2 SWAP1 PUSH2 0x35EC JUMP JUMPDEST PUSH1 0x40 MLOAD PUSH4 0xA9059CBB PUSH1 0xE0 SHL DUP2 MSTORE PUSH1 0x1 PUSH1 0x1 PUSH1 0xA0 SHL SUB DUP5 DUP2 AND PUSH1 0x4 DUP4 ADD MSTORE PUSH1 0x24 DUP3 ADD DUP4 SWAP1 MSTORE SWAP2 SWAP3 POP SWAP1 DUP5 AND SWAP1 PUSH4 0xA9059CBB SWAP1 PUSH1 0x44 ADD PUSH1 0x20 PUSH1 0x40 MLOAD DUP1 DUP4 SUB DUP2 PUSH1 0x0 DUP8 DUP1 EXTCODESIZE ISZERO DUP1 ISZERO PUSH2 0x13B5 JUMPI PUSH1 0x0 DUP1 REVERT JUMPDEST POP GAS CALL ISZERO DUP1 ISZERO PUSH2 0x13C9 JUMPI RETURNDATASIZE PUSH1 0x0 DUP1 RETURNDATACOPY RETURNDATASIZE PUSH1 0x0 REVERT JUMPDEST POP POP POP POP PUSH1 0x40 MLOAD RETURNDATASIZE PUSH1 0x1F NOT PUSH1 0x1F DUP3 ADD AND DUP3 ADD DUP1 PUSH1 0x40 MSTORE POP DUP2 ADD SWAP1 PUSH2 0x13ED SWAP2 SWAP1 PUSH2 0x3575 JUMP JUMPDEST POP PUSH1 0x0 DUP3 SWAP1 POP PUSH1 0x0 DUP1 DUP3 PUSH1 0x1 PUSH1 0x1 PUSH1 0xA0 SHL SUB AND PUSH4 0x902F1AC PUSH1 0x40 MLOAD DUP2 PUSH4 0xFFFFFFFF AND PUSH1 0xE0 SHL DUP2 MSTORE PUSH1 0x4 ADD PUSH1 0x60 PUSH1 0x40 MLOAD DUP1 DUP4 SUB DUP2 DUP7 DUP1 EXTCODESIZE ISZERO DUP1 ISZERO PUSH2 0x142F JUMPI PUSH1 0x0 DUP1 REVERT JUMPDEST POP GAS STATICCALL ISZERO DUP1 ISZERO PUSH2 0x1443 JUMPI RETURNDATASIZE PUSH1 0x0 DUP1 RETURNDATACOPY RETURNDATASIZE PUSH1 0x0 REVERT JUMPDEST POP POP POP POP PUSH1 0x40 MLOAD RETURNDATASIZE PUSH1 0x1F NOT PUSH1 0x1F DUP3 ADD AND DUP3 ADD DUP1 PUSH1 0x40 MSTORE POP DUP2 ADD SWAP1 PUSH2 0x1467 SWAP2 SWAP1 PUSH2 0x3627 JUMP JUMPDEST POP SWAP1 SWAP3 POP SWAP1 POP PUSH1 0x0 PUSH2 0x147B DUP6 PUSH2 0x3E5 PUSH2 0x3BD0 JUMP JUMPDEST SWAP1 POP PUSH1 0x0 DUP2 PUSH2 0x148C DUP6 PUSH2 0x3E8 PUSH2 0x3BD0 JUMP JUMPDEST PUSH2 0x1496 SWAP2 SWAP1 PUSH2 0x3B96 JUMP JUMPDEST PUSH2 0x14A0 DUP5 DUP5 PUSH2 0x3BD0 JUMP JUMPDEST PUSH2 0x14AA SWAP2 SWAP1 PUSH2 0x3BAE JUMP JUMPDEST PUSH1 0x40 DUP1 MLOAD PUSH1 0x0 DUP1 DUP3 MSTORE PUSH1 0x20 DUP3 ADD SWAP3 DUP4 SWAP1 MSTORE PUSH4 0x22C0D9F PUSH1 0xE0 SHL SWAP1 SWAP3 MSTORE SWAP2 SWAP3 POP DUP3 SWAP2 PUSH1 0x1 PUSH1 0x1 PUSH1 0xA0 SHL SUB DUP9 AND SWAP1 PUSH4 0x22C0D9F SWAP1 PUSH2 0x14EF SWAP1 DUP6 SWAP1 DUP6 SWAP1 ADDRESS SWAP1 PUSH1 0x24 DUP2 ADD PUSH2 0x3B11 JUMP JUMPDEST PUSH1 0x0 PUSH1 0x40 MLOAD DUP1 DUP4 SUB DUP2 PUSH1 0x0 DUP8 DUP1 EXTCODESIZE ISZERO DUP1 ISZERO PUSH2 0x1509 JUMPI PUSH1 0x0 DUP1 REVERT JUMPDEST POP GAS CALL ISZERO DUP1 ISZERO PUSH2 0x151D JUMPI RETURNDATASIZE PUSH1 0x0 DUP1 RETURNDATACOPY RETURNDATASIZE PUSH1 0x0 REVERT JUMPDEST POP POP POP POP PUSH2 0x152B PUSH1 0x2 PUSH2 0x2ED0 JUMP JUMPDEST POP POP POP POP POP POP POP POP POP POP JUMP JUMPDEST PUSH1 0x0 DUP1 JUMPDEST PUSH1 0x6 SLOAD DUP2 LT ISZERO PUSH2 0x15D7 JUMPI PUSH1 0x1 PUSH1 0x4 PUSH1 0x1 PUSH1 0x3 PUSH1 0x0 PUSH1 0x6 DUP7 DUP2 SLOAD DUP2 LT PUSH2 0x1562 JUMPI PUSH2 0x1562 PUSH2 0x3D96 JUMP JUMPDEST PUSH1 0x0 SWAP2 DUP3 MSTORE PUSH1 0x20 DUP1 DUP4 KECCAK256 PUSH1 0x2 SWAP1 SWAP3 MUL SWAP1 SWAP2 ADD SLOAD PUSH1 0x1 PUSH1 0x1 PUSH1 0xA0 SHL SUB AND DUP4 MSTORE DUP3 ADD SWAP3 SWAP1 SWAP3 MSTORE PUSH1 0x40 ADD SWAP1 KECCAK256 SLOAD PUSH2 0x1596 SWAP2 SWAP1 PUSH2 0x3BEF JUMP JUMPDEST DUP2 SLOAD DUP2 LT PUSH2 0x15A6 JUMPI PUSH2 0x15A6 PUSH2 0x3D96 JUMP JUMPDEST SWAP1 PUSH1 0x0 MSTORE PUSH1 0x20 PUSH1 0x0 KECCAK256 SWAP1 PUSH1 0x5 MUL ADD PUSH1 0x1 ADD SLOAD GT PUSH2 0x15C5 JUMPI PUSH1 0x0 SWAP2 POP POP SWAP1 JUMP JUMPDEST DUP1 PUSH2 0x15CF DUP2 PUSH2 0x3D4F JUMP JUMPDEST SWAP2 POP POP PUSH2 0x153B JUMP JUMPDEST POP PUSH1 0x0 JUMPDEST PUSH1 0x2 SLOAD DUP2 LT ISZERO PUSH2 0x1677 JUMPI PUSH1 0x1 PUSH1 0x4 PUSH1 0x1 PUSH1 0x3 PUSH1 0x0 PUSH1 0x2 DUP7 DUP2 SLOAD DUP2 LT PUSH2 0x1602 JUMPI PUSH2 0x1602 PUSH2 0x3D96 JUMP JUMPDEST PUSH1 0x0 SWAP2 DUP3 MSTORE PUSH1 0x20 DUP1 DUP4 KECCAK256 PUSH1 0x3 SWAP1 SWAP3 MUL SWAP1 SWAP2 ADD SLOAD PUSH1 0x1 PUSH1 0x1 PUSH1 0xA0 SHL SUB AND DUP4 MSTORE DUP3 ADD SWAP3 SWAP1 SWAP3 MSTORE PUSH1 0x40 ADD SWAP1 KECCAK256 SLOAD PUSH2 0x1636 SWAP2 SWAP1 PUSH2 0x3BEF JUMP JUMPDEST DUP2 SLOAD DUP2 LT PUSH2 0x1646 JUMPI PUSH2 0x1646 PUSH2 0x3D96 JUMP JUMPDEST SWAP1 PUSH1 0x0 MSTORE PUSH1 0x20 PUSH1 0x0 KECCAK256 SWAP1 PUSH1 0x5 MUL ADD PUSH1 0x1 ADD SLOAD GT PUSH2 0x1665 JUMPI PUSH1 0x0 SWAP2 POP POP SWAP1 JUMP JUMPDEST DUP1 PUSH2 0x166F DUP2 PUSH2 0x3D4F JUMP JUMPDEST SWAP2 POP POP PUSH2 0x15DB JUMP JUMPDEST POP PUSH1 0x1 SWAP1 POP SWAP1 JUMP JUMPDEST PUSH1 0x0 SLOAD PUSH1 0x1 PUSH1 0x1 PUSH1 0xA0 SHL SUB AND CALLER EQ PUSH2 0x16A9 JUMPI PUSH1 0x40 MLOAD PUSH3 0x461BCD PUSH1 0xE5 SHL DUP2 MSTORE PUSH1 0x4 ADD PUSH2 0x574 SWAP1 PUSH2 0x395C JUMP JUMPDEST PUSH1 0x0 DUP1 SLOAD PUSH1 0x40 MLOAD PUSH1 0x1 PUSH1 0x1 PUSH1 0xA0 SHL SUB SWAP1 SWAP2 AND SWAP1 PUSH32 0x8BE0079C531659141344CD1FD0A4F28419497F9722A3DAAFE3B4186F6B6457E0 SWAP1 DUP4 SWAP1 LOG3 PUSH1 0x0 DUP1 SLOAD PUSH1 0x1 PUSH1 0x1 PUSH1 0xA0 SHL SUB NOT AND SWAP1 SSTORE JUMP JUMPDEST PUSH1 0x60 DUP3 PUSH1 0x0 PUSH2 0x1702 DUP5 DUP4 PUSH2 0x3B96 JUMP JUMPDEST PUSH1 0x2 SLOAD SWAP1 SWAP2 POP DUP2 GT PUSH2 0x1714 JUMPI DUP1 PUSH2 0x1718 JUMP JUMPDEST PUSH1 0x2 SLOAD JUMPDEST SWAP1 POP PUSH1 0x0 DUP3 DUP3 GT PUSH2 0x172A JUMPI PUSH1 0x0 PUSH2 0x1734 JUMP JUMPDEST PUSH2 0x1734 DUP4 DUP4 PUSH2 0x3BEF JUMP JUMPDEST SWAP1 POP PUSH1 0x0 DUP2 PUSH8 0xFFFFFFFFFFFFFFFF DUP2 GT ISZERO PUSH2 0x1751 JUMPI PUSH2 0x1751 PUSH2 0x3DAC JUMP JUMPDEST PUSH1 0x40 MLOAD SWAP1 DUP1 DUP3 MSTORE DUP1 PUSH1 0x20 MUL PUSH1 0x20 ADD DUP3 ADD PUSH1 0x40 MSTORE DUP1 ISZERO PUSH2 0x179C JUMPI DUP2 PUSH1 0x20 ADD JUMPDEST PUSH1 0x40 DUP1 MLOAD PUSH1 0x60 DUP2 ADD DUP3 MSTORE PUSH1 0x0 DUP1 DUP3 MSTORE PUSH1 0x20 DUP1 DUP4 ADD DUP3 SWAP1 MSTORE SWAP3 DUP3 ADD MSTORE DUP3 MSTORE PUSH1 0x0 NOT SWAP1 SWAP3 ADD SWAP2 ADD DUP2 PUSH2 0x176F JUMPI SWAP1 POP JUMPDEST POP SWAP1 POP DUP4 JUMPDEST DUP4 DUP2 LT ISZERO PUSH2 0x183B JUMPI PUSH1 0x2 DUP2 DUP2 SLOAD DUP2 LT PUSH2 0x17BC JUMPI PUSH2 0x17BC PUSH2 0x3D96 JUMP JUMPDEST PUSH1 0x0 SWAP2 DUP3 MSTORE PUSH1 0x20 SWAP2 DUP3 SWAP1 KECCAK256 PUSH1 0x40 DUP1 MLOAD PUSH1 0x60 DUP2 ADD DUP3 MSTORE PUSH1 0x3 SWAP1 SWAP4 MUL SWAP1 SWAP2 ADD DUP1 SLOAD PUSH1 0x1 PUSH1 0x1 PUSH1 0xA0 SHL SUB SWAP1 DUP2 AND DUP5 MSTORE PUSH1 0x1 DUP3 ADD SLOAD AND SWAP4 DUP4 ADD SWAP4 SWAP1 SWAP4 MSTORE PUSH1 0x2 SWAP1 SWAP3 ADD SLOAD SWAP2 DUP2 ADD SWAP2 SWAP1 SWAP2 MSTORE DUP3 PUSH2 0x180D DUP8 DUP5 PUSH2 0x3BEF JUMP JUMPDEST DUP2 MLOAD DUP2 LT PUSH2 0x181D JUMPI PUSH2 0x181D PUSH2 0x3D96 JUMP JUMPDEST PUSH1 0x20 MUL PUSH1 0x20 ADD ADD DUP2 SWAP1 MSTORE POP DUP1 DUP1 PUSH2 0x1833 SWAP1 PUSH2 0x3D4F JUMP JUMPDEST SWAP2 POP POP PUSH2 0x17A1 JUMP JUMPDEST POP SWAP7 SWAP6 POP POP POP POP POP POP JUMP JUMPDEST PUSH1 0x4 PUSH1 0x0 SLOAD PUSH1 0x1 PUSH1 0xA0 SHL SWAP1 DIV PUSH1 0xFF AND PUSH1 0x7 DUP2 GT ISZERO PUSH2 0x1866 JUMPI PUSH2 0x1866 PUSH2 0x3D80 JUMP JUMPDEST EQ PUSH2 0x18D0 JUMPI PUSH1 0x40 MLOAD PUSH3 0x461BCD PUSH1 0xE5 SHL DUP2 MSTORE PUSH1 0x20 PUSH1 0x4 DUP3 ADD MSTORE PUSH1 0x34 PUSH1 0x24 DUP3 ADD MSTORE PUSH32 0x50523A20546F6B656E6F6D69637320746F6B656E73206861766520616C726561 PUSH1 0x44 DUP3 ADD MSTORE PUSH20 0x6479206265656E20646973747269627574656421 PUSH1 0x60 SHL PUSH1 0x64 DUP3 ADD MSTORE PUSH1 0x84 ADD PUSH2 0x574 JUMP JUMPDEST PUSH1 0x0 JUMPDEST PUSH1 0x8 SLOAD DUP2 LT ISZERO PUSH2 0xDBF JUMPI PUSH1 0x4 PUSH1 0x40 MLOAD DUP1 PUSH1 0xA0 ADD PUSH1 0x40 MSTORE DUP1 PUSH1 0x8 DUP5 DUP2 SLOAD DUP2 LT PUSH2 0x18FD JUMPI PUSH2 0x18FD PUSH2 0x3D96 JUMP JUMPDEST PUSH1 0x0 SWAP2 DUP3 MSTORE PUSH1 0x20 SWAP2 DUP3 SWAP1 KECCAK256 PUSH1 0x5 SWAP1 SWAP2 MUL ADD SLOAD PUSH1 0x1 PUSH1 0x1 PUSH1 0xA0 SHL SUB AND DUP3 MSTORE PUSH1 0x8 DUP1 SLOAD SWAP3 SWAP1 SWAP2 ADD SWAP2 PUSH3 0xF4240 SWAP2 SWAP1 DUP7 SWAP1 DUP2 LT PUSH2 0x1939 JUMPI PUSH2 0x1939 PUSH2 0x3D96 JUMP JUMPDEST SWAP1 PUSH1 0x0 MSTORE PUSH1 0x20 PUSH1 0x0 KECCAK256 SWAP1 PUSH1 0x5 MUL ADD PUSH1 0x2 ADD SLOAD PUSH1 0xD SLOAD PUSH2 0x1958 SWAP2 SWAP1 PUSH2 0x3BD0 JUMP JUMPDEST PUSH2 0x1962 SWAP2 SWAP1 PUSH2 0x3BAE JUMP JUMPDEST DUP2 MSTORE PUSH1 0x20 ADD PUSH1 0x0 DUP2 MSTORE PUSH1 0x20 ADD PUSH1 0x8 DUP5 DUP2 SLOAD DUP2 LT PUSH2 0x1981 JUMPI PUSH2 0x1981 PUSH2 0x3D96 JUMP JUMPDEST SWAP1 PUSH1 0x0 MSTORE PUSH1 0x20 PUSH1 0x0 KECCAK256 SWAP1 PUSH1 0x5 MUL ADD PUSH1 0x3 ADD SLOAD TIMESTAMP PUSH2 0x199E SWAP2 SWAP1 PUSH2 0x3B96 JUMP JUMPDEST DUP2 MSTORE PUSH1 0x20 ADD PUSH1 0x8 DUP5 DUP2 SLOAD DUP2 LT PUSH2 0x19B6 JUMPI PUSH2 0x19B6 PUSH2 0x3D96 JUMP JUMPDEST SWAP1 PUSH1 0x0 MSTORE PUSH1 0x20 PUSH1 0x0 KECCAK256 SWAP1 PUSH1 0x5 MUL ADD PUSH1 0x4 ADD SLOAD PUSH1 0x8 DUP6 DUP2 SLOAD DUP2 LT PUSH2 0x19DB JUMPI PUSH2 0x19DB PUSH2 0x3D96 JUMP JUMPDEST SWAP1 PUSH1 0x0 MSTORE PUSH1 0x20 PUSH1 0x0 KECCAK256 SWAP1 PUSH1 0x5 MUL ADD PUSH1 0x3 ADD SLOAD TIMESTAMP PUSH2 0x19F8 SWAP2 SWAP1 PUSH2 0x3B96 JUMP JUMPDEST PUSH2 0x1A02 SWAP2 SWAP1 PUSH2 0x3B96 JUMP JUMPDEST SWAP1 MSTORE DUP2 SLOAD PUSH1 0x1 DUP1 DUP3 ADD DUP5 SSTORE PUSH1 0x0 SWAP4 DUP5 MSTORE PUSH1 0x20 SWAP4 DUP5 SWAP1 KECCAK256 DUP4 MLOAD PUSH1 0x5 SWAP1 SWAP4 MUL ADD DUP1 SLOAD PUSH1 0x1 PUSH1 0x1 PUSH1 0xA0 SHL SUB NOT AND PUSH1 0x1 PUSH1 0x1 PUSH1 0xA0 SHL SUB SWAP1 SWAP4 AND SWAP3 SWAP1 SWAP3 OR DUP3 SSTORE SWAP3 DUP3 ADD MLOAD SWAP3 DUP2 ADD SWAP3 SWAP1 SWAP3 SSTORE PUSH1 0x40 DUP2 ADD MLOAD PUSH1 0x2 DUP4 ADD SSTORE PUSH1 0x60 DUP2 ADD MLOAD PUSH1 0x3 DUP4 ADD SSTORE PUSH1 0x80 ADD MLOAD PUSH1 0x4 SWAP1 SWAP2 ADD SSTORE DUP1 PUSH2 0x1A70 DUP2 PUSH2 0x3D4F JUMP JUMPDEST SWAP2 POP POP PUSH2 0x18D3 JUMP JUMPDEST PUSH1 0x4 PUSH1 0x0 SLOAD PUSH1 0x1 PUSH1 0xA0 SHL SWAP1 DIV PUSH1 0xFF AND PUSH1 0x7 DUP2 GT ISZERO PUSH2 0x1A98 JUMPI PUSH2 0x1A98 PUSH2 0x3D80 JUMP JUMPDEST EQ PUSH2 0x1B01 JUMPI PUSH1 0x40 MLOAD PUSH3 0x461BCD PUSH1 0xE5 SHL DUP2 MSTORE PUSH1 0x20 PUSH1 0x4 DUP3 ADD MSTORE PUSH1 0x33 PUSH1 0x24 DUP3 ADD MSTORE PUSH32 0x50523A20526566657272616C7320746F6B656E73206861766520616C72656164 PUSH1 0x44 DUP3 ADD MSTORE PUSH19 0x79206265656E20646973747269627574656421 PUSH1 0x68 SHL PUSH1 0x64 DUP3 ADD MSTORE PUSH1 0x84 ADD PUSH2 0x574 JUMP JUMPDEST PUSH1 0x0 PUSH2 0x1B0D DUP4 DUP4 PUSH2 0x27A0 JUMP JUMPDEST SWAP1 POP PUSH1 0x0 JUMPDEST DUP2 MLOAD DUP2 LT ISZERO PUSH2 0x791 JUMPI PUSH1 0x4 PUSH1 0x1 PUSH1 0x3 PUSH1 0x0 DUP6 DUP6 DUP2 MLOAD DUP2 LT PUSH2 0x1B35 JUMPI PUSH2 0x1B35 PUSH2 0x3D96 JUMP JUMPDEST PUSH1 0x20 MUL PUSH1 0x20 ADD ADD MLOAD PUSH1 0x0 ADD MLOAD PUSH1 0x1 PUSH1 0x1 PUSH1 0xA0 SHL SUB AND PUSH1 0x1 PUSH1 0x1 PUSH1 0xA0 SHL SUB AND DUP2 MSTORE PUSH1 0x20 ADD SWAP1 DUP2 MSTORE PUSH1 0x20 ADD PUSH1 0x0 KECCAK256 SLOAD PUSH2 0x1B6C SWAP2 SWAP1 PUSH2 0x3BEF JUMP JUMPDEST DUP2 SLOAD DUP2 LT PUSH2 0x1B7C JUMPI PUSH2 0x1B7C PUSH2 0x3D96 JUMP JUMPDEST SWAP1 PUSH1 0x0 MSTORE PUSH1 0x20 PUSH1 0x0 KECCAK256 SWAP1 PUSH1 0x5 MUL ADD PUSH1 0x1 ADD SLOAD PUSH1 0x0 EQ ISZERO PUSH2 0x1D03 JUMPI PUSH1 0x40 MLOAD DUP1 PUSH1 0xA0 ADD PUSH1 0x40 MSTORE DUP1 DUP4 DUP4 DUP2 MLOAD DUP2 LT PUSH2 0x1BB3 JUMPI PUSH2 0x1BB3 PUSH2 0x3D96 JUMP JUMPDEST PUSH1 0x20 MUL PUSH1 0x20 ADD ADD MLOAD PUSH1 0x0 ADD MLOAD PUSH1 0x1 PUSH1 0x1 PUSH1 0xA0 SHL SUB AND DUP2 MSTORE PUSH1 0x20 ADD PUSH1 0xA SLOAD PUSH1 0xC SLOAD DUP6 DUP6 DUP2 MLOAD DUP2 LT PUSH2 0x1BE5 JUMPI PUSH2 0x1BE5 PUSH2 0x3D96 JUMP JUMPDEST PUSH1 0x20 MUL PUSH1 0x20 ADD ADD MLOAD PUSH1 0x20 ADD MLOAD PUSH2 0x1BFB SWAP2 SWAP1 PUSH2 0x3BD0 JUMP JUMPDEST PUSH2 0x1C05 SWAP2 SWAP1 PUSH2 0x3BAE JUMP JUMPDEST DUP2 MSTORE PUSH1 0x20 ADD PUSH1 0x0 DUP2 MSTORE PUSH1 0x20 ADD PUSH1 0xF PUSH1 0x7 ADD SLOAD TIMESTAMP PUSH2 0x1C22 SWAP2 SWAP1 PUSH2 0x3B96 JUMP JUMPDEST DUP2 MSTORE PUSH1 0x17 SLOAD PUSH1 0x16 SLOAD PUSH1 0x20 SWAP1 SWAP3 ADD SWAP2 PUSH2 0x1C3A SWAP1 TIMESTAMP PUSH2 0x3B96 JUMP JUMPDEST PUSH2 0x1C44 SWAP2 SWAP1 PUSH2 0x3B96 JUMP JUMPDEST DUP2 MSTORE POP PUSH1 0x4 PUSH1 0x1 PUSH1 0x3 PUSH1 0x0 DUP7 DUP7 DUP2 MLOAD DUP2 LT PUSH2 0x1C61 JUMPI PUSH2 0x1C61 PUSH2 0x3D96 JUMP JUMPDEST PUSH1 0x20 MUL PUSH1 0x20 ADD ADD MLOAD PUSH1 0x0 ADD MLOAD PUSH1 0x1 PUSH1 0x1 PUSH1 0xA0 SHL SUB AND PUSH1 0x1 PUSH1 0x1 PUSH1 0xA0 SHL SUB AND DUP2 MSTORE PUSH1 0x20 ADD SWAP1 DUP2 MSTORE PUSH1 0x20 ADD PUSH1 0x0 KECCAK256 SLOAD PUSH2 0x1C98 SWAP2 SWAP1 PUSH2 0x3BEF JUMP JUMPDEST DUP2 SLOAD DUP2 LT PUSH2 0x1CA8 JUMPI PUSH2 0x1CA8 PUSH2 0x3D96 JUMP JUMPDEST PUSH1 0x0 SWAP2 DUP3 MSTORE PUSH1 0x20 SWAP2 DUP3 SWAP1 KECCAK256 DUP4 MLOAD PUSH1 0x5 SWAP3 SWAP1 SWAP3 MUL ADD DUP1 SLOAD PUSH1 0x1 PUSH1 0x1 PUSH1 0xA0 SHL SUB NOT AND PUSH1 0x1 PUSH1 0x1 PUSH1 0xA0 SHL SUB SWAP1 SWAP3 AND SWAP2 SWAP1 SWAP2 OR DUP2 SSTORE SWAP1 DUP3 ADD MLOAD PUSH1 0x1 DUP3 ADD SSTORE PUSH1 0x40 DUP3 ADD MLOAD PUSH1 0x2 DUP3 ADD SSTORE PUSH1 0x60 DUP3 ADD MLOAD PUSH1 0x3 DUP3 ADD SSTORE PUSH1 0x80 SWAP1 SWAP2 ADD MLOAD PUSH1 0x4 SWAP1 SWAP2 ADD SSTORE JUMPDEST DUP1 PUSH2 0x1D0D DUP2 PUSH2 0x3D4F JUMP JUMPDEST SWAP2 POP POP PUSH2 0x1B12 JUMP JUMPDEST PUSH1 0x0 SLOAD PUSH1 0x1 PUSH1 0x1 PUSH1 0xA0 SHL SUB AND CALLER EQ PUSH2 0x1D3F JUMPI PUSH1 0x40 MLOAD PUSH3 0x461BCD PUSH1 0xE5 SHL DUP2 MSTORE PUSH1 0x4 ADD PUSH2 0x574 SWAP1 PUSH2 0x395C JUMP JUMPDEST PUSH1 0x2 PUSH1 0x0 SLOAD PUSH1 0x1 PUSH1 0xA0 SHL SWAP1 DIV PUSH1 0xFF AND PUSH1 0x7 DUP2 GT ISZERO PUSH2 0x1D5F JUMPI PUSH2 0x1D5F PUSH2 0x3D80 JUMP JUMPDEST EQ PUSH2 0x1DAC JUMPI PUSH1 0x40 MLOAD PUSH3 0x461BCD PUSH1 0xE5 SHL DUP2 MSTORE PUSH1 0x20 PUSH1 0x4 DUP3 ADD MSTORE PUSH1 0x1F PUSH1 0x24 DUP3 ADD MSTORE PUSH32 0x50523A204C697175696469747920697320616C72656164792061646465642100 PUSH1 0x44 DUP3 ADD MSTORE PUSH1 0x64 ADD PUSH2 0x574 JUMP JUMPDEST PUSH1 0x40 MLOAD PUSH4 0x70A08231 PUSH1 0xE0 SHL DUP2 MSTORE ADDRESS PUSH1 0x4 DUP3 ADD MSTORE PUSH20 0x73CE46D328524FB3529A39D64B314AB1A594A57 SWAP1 PUSH1 0x0 SWAP1 DUP3 SWAP1 PUSH4 0x70A08231 SWAP1 PUSH1 0x24 ADD PUSH1 0x20 PUSH1 0x40 MLOAD DUP1 DUP4 SUB DUP2 DUP7 DUP1 EXTCODESIZE ISZERO DUP1 ISZERO PUSH2 0x1DFB JUMPI PUSH1 0x0 DUP1 REVERT JUMPDEST POP GAS STATICCALL ISZERO DUP1 ISZERO PUSH2 0x1E0F JUMPI RETURNDATASIZE PUSH1 0x0 DUP1 RETURNDATACOPY RETURNDATASIZE PUSH1 0x0 REVERT JUMPDEST POP POP POP POP PUSH1 0x40 MLOAD RETURNDATASIZE PUSH1 0x1F NOT PUSH1 0x1F DUP3 ADD AND DUP3 ADD DUP1 PUSH1 0x40 MSTORE POP DUP2 ADD SWAP1 PUSH2 0x1E33 SWAP2 SWAP1 PUSH2 0x35EC JUMP JUMPDEST SWAP1 POP PUSH1 0x0 PUSH8 0xDE0B6B3A7640000 PUSH1 0xF PUSH1 0xC ADD SLOAD DUP4 PUSH2 0x1E51 SWAP2 SWAP1 PUSH2 0x3BD0 JUMP JUMPDEST PUSH2 0x1E5B SWAP2 SWAP1 PUSH2 0x3BAE JUMP JUMPDEST SWAP1 POP PUSH2 0x1E65 PUSH2 0x328A JUMP JUMPDEST PUSH2 0x1E72 PUSH3 0xF4240 DUP4 PUSH2 0x3BD0 JUMP JUMPDEST PUSH2 0x1E7C SWAP2 SWAP1 PUSH2 0x3BAE JUMP JUMPDEST PUSH2 0x1E87 SWAP1 PUSH1 0x1 PUSH2 0x3B96 JUMP JUMPDEST PUSH1 0xD SSTORE PUSH1 0xC DUP2 SWAP1 SSTORE PUSH1 0xE SLOAD PUSH1 0x40 MLOAD PUSH4 0xA9059CBB PUSH1 0xE0 SHL DUP2 MSTORE PUSH1 0x1 PUSH1 0x1 PUSH1 0xA0 SHL SUB SWAP2 DUP3 AND PUSH1 0x4 DUP3 ADD MSTORE PUSH1 0x24 DUP2 ADD DUP5 SWAP1 MSTORE SWAP1 DUP5 AND SWAP1 PUSH4 0xA9059CBB SWAP1 PUSH1 0x44 ADD PUSH1 0x20 PUSH1 0x40 MLOAD DUP1 DUP4 SUB DUP2 PUSH1 0x0 DUP8 DUP1 EXTCODESIZE ISZERO DUP1 ISZERO PUSH2 0x1EDD JUMPI PUSH1 0x0 DUP1 REVERT JUMPDEST POP GAS CALL ISZERO DUP1 ISZERO PUSH2 0x1EF1 JUMPI RETURNDATASIZE PUSH1 0x0 DUP1 RETURNDATACOPY RETURNDATASIZE PUSH1 0x0 REVERT JUMPDEST POP POP POP POP PUSH1 0x40 MLOAD RETURNDATASIZE PUSH1 0x1F NOT PUSH1 0x1F DUP3 ADD AND DUP3 ADD DUP1 PUSH1 0x40 MSTORE POP DUP2 ADD SWAP1 PUSH2 0x1F15 SWAP2 SWAP1 PUSH2 0x3575 JUMP JUMPDEST POP PUSH1 0xF SLOAD PUSH1 0xE SLOAD PUSH1 0x40 MLOAD PUSH4 0xBB9FF5D PUSH1 0xE0 SHL DUP2 MSTORE PUSH1 0x1 PUSH1 0x1 PUSH1 0xA0 SHL SUB SWAP2 DUP3 AND PUSH1 0x4 DUP3 ADD MSTORE PUSH1 0x24 DUP2 ADD DUP5 SWAP1 MSTORE SWAP2 AND SWAP1 PUSH4 0xBB9FF5D SWAP1 PUSH1 0x44 ADD PUSH1 0x0 PUSH1 0x40 MLOAD DUP1 DUP4 SUB DUP2 PUSH1 0x0 DUP8 DUP1 EXTCODESIZE ISZERO DUP1 ISZERO PUSH2 0x1F66 JUMPI PUSH1 0x0 DUP1 REVERT JUMPDEST POP GAS CALL ISZERO DUP1 ISZERO PUSH2 0x1F7A JUMPI RETURNDATASIZE PUSH1 0x0 DUP1 RETURNDATACOPY RETURNDATASIZE PUSH1 0x0 REVERT JUMPDEST POP POP PUSH1 0xE SLOAD PUSH1 0x40 MLOAD PUSH4 0x35313C21 PUSH1 0xE1 SHL DUP2 MSTORE ADDRESS PUSH1 0x4 DUP3 ADD MSTORE PUSH1 0x1 PUSH1 0x1 PUSH1 0xA0 SHL SUB SWAP1 SWAP2 AND SWAP3 POP DUP3 SWAP2 POP PUSH4 0x6A627842 SWAP1 PUSH1 0x24 ADD PUSH1 0x20 PUSH1 0x40 MLOAD DUP1 DUP4 SUB DUP2 PUSH1 0x0 DUP8 DUP1 EXTCODESIZE ISZERO DUP1 ISZERO PUSH2 0x1FC5 JUMPI PUSH1 0x0 DUP1 REVERT JUMPDEST POP GAS CALL ISZERO DUP1 ISZERO PUSH2 0x1FD9 JUMPI RETURNDATASIZE PUSH1 0x0 DUP1 RETURNDATACOPY RETURNDATASIZE PUSH1 0x0 REVERT JUMPDEST POP POP POP POP PUSH1 0x40 MLOAD RETURNDATASIZE PUSH1 0x1F NOT PUSH1 0x1F DUP3 ADD AND DUP3 ADD DUP1 PUSH1 0x40 MSTORE POP DUP2 ADD SWAP1 PUSH2 0x1FFD SWAP2 SWAP1 PUSH2 0x35EC JUMP JUMPDEST POP PUSH1 0xF SLOAD PUSH1 0xD SLOAD PUSH1 0x1 PUSH1 0x1 PUSH1 0xA0 SHL SUB SWAP1 SWAP2 AND SWAP1 PUSH4 0xBB9FF5D SWAP1 ADDRESS SWAP1 PUSH2 0x2023 SWAP1 DUP7 SWAP1 PUSH2 0x3BEF JUMP JUMPDEST PUSH1 0x40 MLOAD PUSH1 0x1 PUSH1 0x1 PUSH1 0xE0 SHL SUB NOT PUSH1 0xE0 DUP6 SWAP1 SHL AND DUP2 MSTORE PUSH1 0x1 PUSH1 0x1 PUSH1 0xA0 SHL SUB SWAP1 SWAP3 AND PUSH1 0x4 DUP4 ADD MSTORE PUSH1 0x24 DUP3 ADD MSTORE PUSH1 0x44 ADD PUSH1 0x0 PUSH1 0x40 MLOAD DUP1 DUP4 SUB DUP2 PUSH1 0x0 DUP8 DUP1 EXTCODESIZE ISZERO DUP1 ISZERO PUSH2 0x2069 JUMPI PUSH1 0x0 DUP1 REVERT JUMPDEST POP GAS CALL ISZERO DUP1 ISZERO PUSH2 0x207D JUMPI RETURNDATASIZE PUSH1 0x0 DUP1 RETURNDATACOPY RETURNDATASIZE PUSH1 0x0 REVERT JUMPDEST POP POP POP POP PUSH2 0x791 PUSH1 0x4 PUSH2 0x2ED0 JUMP JUMPDEST PUSH2 0x2093 PUSH2 0x346E JUMP JUMPDEST PUSH2 0x209B PUSH2 0x3503 JUMP JUMPDEST PUSH1 0x1 PUSH1 0x1 PUSH1 0xA0 SHL SUB DUP4 AND PUSH1 0x0 SWAP1 DUP2 MSTORE PUSH1 0x3 PUSH1 0x20 MSTORE PUSH1 0x40 SWAP1 KECCAK256 SLOAD ISZERO PUSH2 0x214C JUMPI PUSH1 0x1 PUSH1 0x1 PUSH1 0xA0 SHL SUB DUP4 AND PUSH1 0x0 SWAP1 DUP2 MSTORE PUSH1 0x3 PUSH1 0x20 MSTORE PUSH1 0x40 SWAP1 KECCAK256 SLOAD PUSH1 0x4 SWAP1 PUSH2 0x20E1 SWAP1 PUSH1 0x1 SWAP1 PUSH2 0x3BEF JUMP JUMPDEST DUP2 SLOAD DUP2 LT PUSH2 0x20F1 JUMPI PUSH2 0x20F1 PUSH2 0x3D96 JUMP JUMPDEST PUSH1 0x0 SWAP2 DUP3 MSTORE PUSH1 0x20 SWAP2 DUP3 SWAP1 KECCAK256 PUSH1 0x40 DUP1 MLOAD PUSH1 0xA0 DUP2 ADD DUP3 MSTORE PUSH1 0x5 SWAP1 SWAP4 MUL SWAP1 SWAP2 ADD DUP1 SLOAD PUSH1 0x1 PUSH1 0x1 PUSH1 0xA0 SHL SUB AND DUP4 MSTORE PUSH1 0x1 DUP2 ADD SLOAD SWAP4 DUP4 ADD SWAP4 SWAP1 SWAP4 MSTORE PUSH1 0x2 DUP4 ADD SLOAD SWAP1 DUP3 ADD MSTORE PUSH1 0x3 DUP3 ADD SLOAD PUSH1 0x60 DUP3 ADD MSTORE PUSH1 0x4 SWAP1 SWAP2 ADD SLOAD PUSH1 0x80 DUP3 ADD MSTORE SWAP1 POP PUSH2 0x2181 JUMP JUMPDEST PUSH1 0x40 MLOAD DUP1 PUSH1 0xA0 ADD PUSH1 0x40 MSTORE DUP1 DUP5 PUSH1 0x1 PUSH1 0x1 PUSH1 0xA0 SHL SUB AND DUP2 MSTORE PUSH1 0x20 ADD PUSH1 0x0 DUP2 MSTORE PUSH1 0x20 ADD PUSH1 0x0 DUP2 MSTORE PUSH1 0x20 ADD TIMESTAMP DUP2 MSTORE PUSH1 0x20 ADD TIMESTAMP DUP2 MSTORE POP SWAP1 POP JUMPDEST PUSH2 0x2189 PUSH2 0x3503 JUMP JUMPDEST PUSH1 0x1 PUSH1 0x1 PUSH1 0xA0 SHL SUB DUP5 AND PUSH1 0x0 SWAP1 DUP2 MSTORE PUSH1 0x1 PUSH1 0x20 MSTORE PUSH1 0x40 SWAP1 KECCAK256 SLOAD ISZERO PUSH2 0x2256 JUMPI PUSH1 0x1 PUSH1 0x1 PUSH1 0xA0 SHL SUB DUP5 AND PUSH1 0x0 SWAP1 DUP2 MSTORE PUSH1 0x1 PUSH1 0x20 DUP2 SWAP1 MSTORE PUSH1 0x40 DUP3 KECCAK256 SLOAD PUSH1 0x2 SWAP2 PUSH2 0x21CE SWAP2 PUSH2 0x3BEF JUMP JUMPDEST DUP2 SLOAD DUP2 LT PUSH2 0x21DE JUMPI PUSH2 0x21DE PUSH2 0x3D96 JUMP JUMPDEST PUSH1 0x0 SWAP2 DUP3 MSTORE PUSH1 0x20 DUP1 DUP4 KECCAK256 PUSH1 0x40 DUP1 MLOAD PUSH1 0x60 DUP1 DUP3 ADD DUP4 MSTORE PUSH1 0x3 SWAP1 SWAP6 MUL SWAP1 SWAP3 ADD DUP1 SLOAD PUSH1 0x1 PUSH1 0x1 PUSH1 0xA0 SHL SUB SWAP1 DUP2 AND DUP5 MSTORE PUSH1 0x1 DUP3 ADD SLOAD DUP2 AND DUP5 DUP7 ADD MSTORE PUSH1 0x2 SWAP1 SWAP2 ADD SLOAD SWAP3 DUP3 ADD SWAP3 DUP4 MSTORE DUP2 MLOAD PUSH1 0xA0 DUP2 ADD DUP4 MSTORE SWAP1 DUP12 AND DUP2 MSTORE SWAP2 MLOAD SWAP3 DUP3 ADD SWAP3 SWAP1 SWAP3 MSTORE SWAP1 DUP2 ADD SWAP3 SWAP1 SWAP3 MSTORE PUSH1 0x19 SLOAD SWAP1 DUP3 ADD MSTORE PUSH1 0x1A SLOAD PUSH1 0x80 DUP3 ADD MSTORE SWAP2 POP PUSH2 0x228E SWAP1 POP JUMP JUMPDEST POP PUSH1 0x40 DUP1 MLOAD PUSH1 0xA0 DUP2 ADD DUP3 MSTORE PUSH1 0x1 PUSH1 0x1 PUSH1 0xA0 SHL SUB DUP6 AND DUP2 MSTORE PUSH1 0x0 PUSH1 0x20 DUP3 ADD DUP2 SWAP1 MSTORE SWAP2 DUP2 ADD SWAP2 SWAP1 SWAP2 MSTORE PUSH1 0x19 SLOAD PUSH1 0x60 DUP3 ADD MSTORE PUSH1 0x1A SLOAD PUSH1 0x80 DUP3 ADD MSTORE JUMPDEST PUSH1 0x1 PUSH1 0x1 PUSH1 0xA0 SHL SUB DUP5 AND PUSH1 0x0 SWAP1 DUP2 MSTORE PUSH1 0x5 PUSH1 0x20 MSTORE PUSH1 0x40 SWAP1 KECCAK256 SLOAD ISZERO PUSH2 0x22FE JUMPI PUSH1 0x1 PUSH1 0x1 PUSH1 0xA0 SHL SUB DUP5 AND PUSH1 0x0 SWAP1 DUP2 MSTORE PUSH1 0x5 PUSH1 0x20 MSTORE PUSH1 0x40 SWAP1 KECCAK256 SLOAD PUSH1 0x6 SWAP1 PUSH2 0x22D4 SWAP1 PUSH1 0x1 SWAP1 PUSH2 0x3BEF JUMP JUMPDEST DUP2 SLOAD DUP2 LT PUSH2 0x22E4 JUMPI PUSH2 0x22E4 PUSH2 0x3D96 JUMP JUMPDEST PUSH1 0x0 SWAP2 DUP3 MSTORE PUSH1 0x20 SWAP1 SWAP2 KECCAK256 PUSH1 0x1 PUSH1 0x2 SWAP1 SWAP3 MUL ADD ADD SLOAD PUSH1 0x40 DUP3 ADD MSTORE JUMPDEST PUSH1 0x0 PUSH1 0x40 MLOAD DUP1 PUSH2 0x100 ADD PUSH1 0x40 MSTORE DUP1 ADDRESS PUSH1 0x1 PUSH1 0x1 PUSH1 0xA0 SHL SUB AND DUP2 MSTORE PUSH1 0x20 ADD PUSH1 0xF PUSH1 0x1 ADD DUP1 SLOAD PUSH2 0x232B SWAP1 PUSH2 0x3D14 JUMP JUMPDEST DUP1 PUSH1 0x1F ADD PUSH1 0x20 DUP1 SWAP2 DIV MUL PUSH1 0x20 ADD PUSH1 0x40 MLOAD SWAP1 DUP2 ADD PUSH1 0x40 MSTORE DUP1 SWAP3 SWAP2 SWAP1 DUP2 DUP2 MSTORE PUSH1 0x20 ADD DUP3 DUP1 SLOAD PUSH2 0x2357 SWAP1 PUSH2 0x3D14 JUMP JUMPDEST DUP1 ISZERO PUSH2 0x23A4 JUMPI DUP1 PUSH1 0x1F LT PUSH2 0x2379 JUMPI PUSH2 0x100 DUP1 DUP4 SLOAD DIV MUL DUP4 MSTORE SWAP2 PUSH1 0x20 ADD SWAP2 PUSH2 0x23A4 JUMP JUMPDEST DUP3 ADD SWAP2 SWAP1 PUSH1 0x0 MSTORE PUSH1 0x20 PUSH1 0x0 KECCAK256 SWAP1 JUMPDEST DUP2 SLOAD DUP2 MSTORE SWAP1 PUSH1 0x1 ADD SWAP1 PUSH1 0x20 ADD DUP1 DUP4 GT PUSH2 0x2387 JUMPI DUP3 SWAP1 SUB PUSH1 0x1F AND DUP3 ADD SWAP2 JUMPDEST POP POP POP SWAP2 DUP4 MSTORE POP POP PUSH1 0xA SLOAD PUSH1 0x20 DUP3 ADD DUP2 SWAP1 MSTORE PUSH1 0x18 SLOAD PUSH1 0x40 DUP4 ADD DUP2 SWAP1 MSTORE GT PUSH1 0x60 DUP3 ADD MSTORE PUSH1 0x1 PUSH1 0x80 DUP3 ADD MSTORE PUSH1 0x11 DUP1 SLOAD PUSH1 0xA0 SWAP1 SWAP3 ADD SWAP2 PUSH2 0x23E0 SWAP1 PUSH2 0x3D14 JUMP JUMPDEST DUP1 PUSH1 0x1F ADD PUSH1 0x20 DUP1 SWAP2 DIV MUL PUSH1 0x20 ADD PUSH1 0x40 MLOAD SWAP1 DUP2 ADD PUSH1 0x40 MSTORE DUP1 SWAP3 SWAP2 SWAP1 DUP2 DUP2 MSTORE PUSH1 0x20 ADD DUP3 DUP1 SLOAD PUSH2 0x240C SWAP1 PUSH2 0x3D14 JUMP JUMPDEST DUP1 ISZERO PUSH2 0x2459 JUMPI DUP1 PUSH1 0x1F LT PUSH2 0x242E JUMPI PUSH2 0x100 DUP1 DUP4 SLOAD DIV MUL DUP4 MSTORE SWAP2 PUSH1 0x20 ADD SWAP2 PUSH2 0x2459 JUMP JUMPDEST DUP3 ADD SWAP2 SWAP1 PUSH1 0x0 MSTORE PUSH1 0x20 PUSH1 0x0 KECCAK256 SWAP1 JUMPDEST DUP2 SLOAD DUP2 MSTORE SWAP1 PUSH1 0x1 ADD SWAP1 PUSH1 0x20 ADD DUP1 DUP4 GT PUSH2 0x243C JUMPI DUP3 SWAP1 SUB PUSH1 0x1F AND DUP3 ADD SWAP2 JUMPDEST POP POP POP POP POP DUP2 MSTORE PUSH1 0x20 ADD PUSH1 0xF PUSH1 0x3 ADD DUP1 SLOAD PUSH2 0x2473 SWAP1 PUSH2 0x3D14 JUMP JUMPDEST DUP1 PUSH1 0x1F ADD PUSH1 0x20 DUP1 SWAP2 DIV MUL PUSH1 0x20 ADD PUSH1 0x40 MLOAD SWAP1 DUP2 ADD PUSH1 0x40 MSTORE DUP1 SWAP3 SWAP2 SWAP1 DUP2 DUP2 MSTORE PUSH1 0x20 ADD DUP3 DUP1 SLOAD PUSH2 0x249F SWAP1 PUSH2 0x3D14 JUMP JUMPDEST DUP1 ISZERO PUSH2 0x24EC JUMPI DUP1 PUSH1 0x1F LT PUSH2 0x24C1 JUMPI PUSH2 0x100 DUP1 DUP4 SLOAD DIV MUL DUP4 MSTORE SWAP2 PUSH1 0x20 ADD SWAP2 PUSH2 0x24EC JUMP JUMPDEST DUP3 ADD SWAP2 SWAP1 PUSH1 0x0 MSTORE PUSH1 0x20 PUSH1 0x0 KECCAK256 SWAP1 JUMPDEST DUP2 SLOAD DUP2 MSTORE SWAP1 PUSH1 0x1 ADD SWAP1 PUSH1 0x20 ADD DUP1 DUP4 GT PUSH2 0x24CF JUMPI DUP3 SWAP1 SUB PUSH1 0x1F AND DUP3 ADD SWAP2 JUMPDEST POP POP POP POP POP DUP2 MSTORE POP SWAP1 POP PUSH1 0x40 MLOAD DUP1 PUSH1 0xC0 ADD PUSH1 0x40 MSTORE DUP1 DUP3 DUP2 MSTORE PUSH1 0x20 ADD DUP4 DUP2 MSTORE PUSH1 0x20 ADD DUP5 DUP2 MSTORE PUSH1 0x20 ADD PUSH2 0x251B PUSH2 0x28CF JUMP JUMPDEST DUP2 MSTORE PUSH1 0x1B SLOAD PUSH1 0x20 DUP3 ADD MSTORE PUSH1 0xB SLOAD PUSH1 0x40 SWAP1 SWAP2 ADD MSTORE SWAP6 SWAP5 POP POP POP POP POP JUMP JUMPDEST PUSH1 0x0 DUP1 PUSH1 0x0 JUMPDEST PUSH1 0x8 SLOAD DUP2 LT ISZERO PUSH2 0x258B JUMPI PUSH1 0x8 DUP2 DUP2 SLOAD DUP2 LT PUSH2 0x255A JUMPI PUSH2 0x255A PUSH2 0x3D96 JUMP JUMPDEST SWAP1 PUSH1 0x0 MSTORE PUSH1 0x20 PUSH1 0x0 KECCAK256 SWAP1 PUSH1 0x5 MUL ADD PUSH1 0x2 ADD SLOAD DUP3 PUSH2 0x2577 SWAP2 SWAP1 PUSH2 0x3B96 JUMP JUMPDEST SWAP2 POP DUP1 PUSH2 0x2583 DUP2 PUSH2 0x3D4F JUMP JUMPDEST SWAP2 POP POP PUSH2 0x253D JUMP JUMPDEST POP PUSH1 0x64 PUSH2 0x259C PUSH3 0xF4240 PUSH1 0x1E PUSH2 0x3BD0 JUMP JUMPDEST PUSH2 0x25A6 SWAP2 SWAP1 PUSH2 0x3BAE JUMP JUMPDEST LT ISZERO SWAP2 SWAP1 POP JUMP JUMPDEST PUSH1 0xF DUP1 SLOAD PUSH1 0x10 DUP1 SLOAD PUSH1 0x1 PUSH1 0x1 PUSH1 0xA0 SHL SUB SWAP1 SWAP3 AND SWAP3 SWAP2 PUSH2 0x25CB SWAP1 PUSH2 0x3D14 JUMP JUMPDEST DUP1 PUSH1 0x1F ADD PUSH1 0x20 DUP1 SWAP2 DIV MUL PUSH1 0x20 ADD PUSH1 0x40 MLOAD SWAP1 DUP2 ADD PUSH1 0x40 MSTORE DUP1 SWAP3 SWAP2 SWAP1 DUP2 DUP2 MSTORE PUSH1 0x20 ADD DUP3 DUP1 SLOAD PUSH2 0x25F7 SWAP1 PUSH2 0x3D14 JUMP JUMPDEST DUP1 ISZERO PUSH2 0x2644 JUMPI DUP1 PUSH1 0x1F LT PUSH2 0x2619 JUMPI PUSH2 0x100 DUP1 DUP4 SLOAD DIV MUL DUP4 MSTORE SWAP2 PUSH1 0x20 ADD SWAP2 PUSH2 0x2644 JUMP JUMPDEST DUP3 ADD SWAP2 SWAP1 PUSH1 0x0 MSTORE PUSH1 0x20 PUSH1 0x0 KECCAK256 SWAP1 JUMPDEST DUP2 SLOAD DUP2 MSTORE SWAP1 PUSH1 0x1 ADD SWAP1 PUSH1 0x20 ADD DUP1 DUP4 GT PUSH2 0x2627 JUMPI DUP3 SWAP1 SUB PUSH1 0x1F AND DUP3 ADD SWAP2 JUMPDEST POP POP POP POP POP SWAP1 DUP1 PUSH1 0x2 ADD DUP1 SLOAD PUSH2 0x2659 SWAP1 PUSH2 0x3D14 JUMP JUMPDEST DUP1 PUSH1 0x1F ADD PUSH1 0x20 DUP1 SWAP2 DIV MUL PUSH1 0x20 ADD PUSH1 0x40 MLOAD SWAP1 DUP2 ADD PUSH1 0x40 MSTORE DUP1 SWAP3 SWAP2 SWAP1 DUP2 DUP2 MSTORE PUSH1 0x20 ADD DUP3 DUP1 SLOAD PUSH2 0x2685 SWAP1 PUSH2 0x3D14 JUMP JUMPDEST DUP1 ISZERO PUSH2 0x26D2 JUMPI DUP1 PUSH1 0x1F LT PUSH2 0x26A7 JUMPI PUSH2 0x100 DUP1 DUP4 SLOAD DIV MUL DUP4 MSTORE SWAP2 PUSH1 0x20 ADD SWAP2 PUSH2 0x26D2 JUMP JUMPDEST DUP3 ADD SWAP2 SWAP1 PUSH1 0x0 MSTORE PUSH1 0x20 PUSH1 0x0 KECCAK256 SWAP1 JUMPDEST DUP2 SLOAD DUP2 MSTORE SWAP1 PUSH1 0x1 ADD SWAP1 PUSH1 0x20 ADD DUP1 DUP4 GT PUSH2 0x26B5 JUMPI DUP3 SWAP1 SUB PUSH1 0x1F AND DUP3 ADD SWAP2 JUMPDEST POP POP POP POP POP SWAP1 DUP1 PUSH1 0x3 ADD DUP1 SLOAD PUSH2 0x26E7 SWAP1 PUSH2 0x3D14 JUMP JUMPDEST DUP1 PUSH1 0x1F ADD PUSH1 0x20 DUP1 SWAP2 DIV MUL PUSH1 0x20 ADD PUSH1 0x40 MLOAD SWAP1 DUP2 ADD PUSH1 0x40 MSTORE DUP1 SWAP3 SWAP2 SWAP1 DUP2 DUP2 MSTORE PUSH1 0x20 ADD DUP3 DUP1 SLOAD PUSH2 0x2713 SWAP1 PUSH2 0x3D14 JUMP JUMPDEST DUP1 ISZERO PUSH2 0x2760 JUMPI DUP1 PUSH1 0x1F LT PUSH2 0x2735 JUMPI PUSH2 0x100 DUP1 DUP4 SLOAD DIV MUL DUP4 MSTORE SWAP2 PUSH1 0x20 ADD SWAP2 PUSH2 0x2760 JUMP JUMPDEST DUP3 ADD SWAP2 SWAP1 PUSH1 0x0 MSTORE PUSH1 0x20 PUSH1 0x0 KECCAK256 SWAP1 JUMPDEST DUP2 SLOAD DUP2 MSTORE SWAP1 PUSH1 0x1 ADD SWAP1 PUSH1 0x20 ADD DUP1 DUP4 GT PUSH2 0x2743 JUMPI DUP3 SWAP1 SUB PUSH1 0x1F AND DUP3 ADD SWAP2 JUMPDEST POP POP POP POP POP SWAP1 DUP1 PUSH1 0x4 ADD SLOAD SWAP1 DUP1 PUSH1 0x5 ADD SLOAD SWAP1 DUP1 PUSH1 0x6 ADD SLOAD SWAP1 DUP1 PUSH1 0x7 ADD SLOAD SWAP1 DUP1 PUSH1 0x8 ADD SLOAD SWAP1 DUP1 PUSH1 0x9 ADD SLOAD SWAP1 DUP1 PUSH1 0xA ADD SLOAD SWAP1 DUP1 PUSH1 0xB ADD SLOAD SWAP1 DUP1 PUSH1 0xC ADD SLOAD SWAP1 POP DUP14 JUMP JUMPDEST PUSH1 0x60 DUP3 PUSH1 0x0 PUSH2 0x27AF DUP5 DUP4 PUSH2 0x3B96 JUMP JUMPDEST PUSH1 0x6 SLOAD SWAP1 SWAP2 POP DUP2 GT PUSH2 0x27C1 JUMPI DUP1 PUSH2 0x27C5 JUMP JUMPDEST PUSH1 0x6 SLOAD JUMPDEST SWAP1 POP PUSH1 0x0 DUP3 DUP3 GT PUSH2 0x27D7 JUMPI PUSH1 0x0 PUSH2 0x27E1 JUMP JUMPDEST PUSH2 0x27E1 DUP4 DUP4 PUSH2 0x3BEF JUMP JUMPDEST SWAP1 POP PUSH1 0x0 DUP2 PUSH8 0xFFFFFFFFFFFFFFFF DUP2 GT ISZERO PUSH2 0x27FE JUMPI PUSH2 0x27FE PUSH2 0x3DAC JUMP JUMPDEST PUSH1 0x40 MLOAD SWAP1 DUP1 DUP3 MSTORE DUP1 PUSH1 0x20 MUL PUSH1 0x20 ADD DUP3 ADD PUSH1 0x40 MSTORE DUP1 ISZERO PUSH2 0x2843 JUMPI DUP2 PUSH1 0x20 ADD JUMPDEST PUSH1 0x40 DUP1 MLOAD DUP1 DUP3 ADD SWAP1 SWAP2 MSTORE PUSH1 0x0 DUP1 DUP3 MSTORE PUSH1 0x20 DUP3 ADD MSTORE DUP2 MSTORE PUSH1 0x20 ADD SWAP1 PUSH1 0x1 SWAP1 SUB SWAP1 DUP2 PUSH2 0x281C JUMPI SWAP1 POP JUMPDEST POP SWAP1 POP DUP4 JUMPDEST DUP4 DUP2 LT ISZERO PUSH2 0x183B JUMPI PUSH1 0x6 DUP2 DUP2 SLOAD DUP2 LT PUSH2 0x2863 JUMPI PUSH2 0x2863 PUSH2 0x3D96 JUMP JUMPDEST PUSH1 0x0 SWAP2 DUP3 MSTORE PUSH1 0x20 SWAP2 DUP3 SWAP1 KECCAK256 PUSH1 0x40 DUP1 MLOAD DUP1 DUP3 ADD SWAP1 SWAP2 MSTORE PUSH1 0x2 SWAP1 SWAP3 MUL ADD DUP1 SLOAD PUSH1 0x1 PUSH1 0x1 PUSH1 0xA0 SHL SUB AND DUP3 MSTORE PUSH1 0x1 ADD SLOAD SWAP2 DUP2 ADD SWAP2 SWAP1 SWAP2 MSTORE DUP3 PUSH2 0x28A1 DUP8 DUP5 PUSH2 0x3BEF JUMP JUMPDEST DUP2 MLOAD DUP2 LT PUSH2 0x28B1 JUMPI PUSH2 0x28B1 PUSH2 0x3D96 JUMP JUMPDEST PUSH1 0x20 MUL PUSH1 0x20 ADD ADD DUP2 SWAP1 MSTORE POP DUP1 DUP1 PUSH2 0x28C7 SWAP1 PUSH2 0x3D4F JUMP JUMPDEST SWAP2 POP POP PUSH2 0x2848 JUMP JUMPDEST PUSH1 0x60 PUSH1 0x0 PUSH2 0x28DB PUSH2 0x328A JUMP JUMPDEST PUSH1 0x8 SLOAD SWAP1 SWAP2 POP PUSH1 0x0 SWAP1 PUSH2 0x28EF SWAP1 PUSH1 0x3 PUSH2 0x3B96 JUMP JUMPDEST PUSH8 0xFFFFFFFFFFFFFFFF DUP2 GT ISZERO PUSH2 0x2907 JUMPI PUSH2 0x2907 PUSH2 0x3DAC JUMP JUMPDEST PUSH1 0x40 MLOAD SWAP1 DUP1 DUP3 MSTORE DUP1 PUSH1 0x20 MUL PUSH1 0x20 ADD DUP3 ADD PUSH1 0x40 MSTORE DUP1 ISZERO PUSH2 0x2973 JUMPI DUP2 PUSH1 0x20 ADD JUMPDEST PUSH2 0x2960 PUSH1 0x40 MLOAD DUP1 PUSH1 0xA0 ADD PUSH1 0x40 MSTORE DUP1 PUSH1 0x0 PUSH1 0x1 PUSH1 0x1 PUSH1 0xA0 SHL SUB AND DUP2 MSTORE PUSH1 0x20 ADD PUSH1 0x60 DUP2 MSTORE PUSH1 0x20 ADD PUSH1 0x0 DUP2 MSTORE PUSH1 0x20 ADD PUSH1 0x0 DUP2 MSTORE PUSH1 0x20 ADD PUSH1 0x0 DUP2 MSTORE POP SWAP1 JUMP JUMPDEST DUP2 MSTORE PUSH1 0x20 ADD SWAP1 PUSH1 0x1 SWAP1 SUB SWAP1 DUP2 PUSH2 0x2925 JUMPI SWAP1 POP JUMPDEST POP SWAP1 POP PUSH1 0x40 MLOAD DUP1 PUSH1 0xA0 ADD PUSH1 0x40 MSTORE DUP1 PUSH1 0x1 PUSH1 0x1 PUSH1 0x1 PUSH1 0xA0 SHL SUB AND DUP2 MSTORE PUSH1 0x20 ADD PUSH1 0x40 MLOAD DUP1 PUSH1 0x40 ADD PUSH1 0x40 MSTORE DUP1 PUSH1 0x9 DUP2 MSTORE PUSH1 0x20 ADD PUSH9 0x4C6971756964697479 PUSH1 0xB8 SHL DUP2 MSTORE POP DUP2 MSTORE PUSH1 0x20 ADD DUP4 DUP2 MSTORE PUSH1 0x20 ADD PUSH1 0xF PUSH1 0x4 ADD SLOAD DUP2 MSTORE PUSH1 0x20 ADD PUSH1 0x0 DUP2 MSTORE POP DUP2 PUSH1 0x0 DUP2 MLOAD DUP2 LT PUSH2 0x29E1 JUMPI PUSH2 0x29E1 PUSH2 0x3D96 JUMP JUMPDEST PUSH1 0x20 MUL PUSH1 0x20 ADD ADD DUP2 SWAP1 MSTORE POP PUSH1 0x40 MLOAD DUP1 PUSH1 0xA0 ADD PUSH1 0x40 MSTORE DUP1 PUSH1 0x2 PUSH1 0x1 PUSH1 0x1 PUSH1 0xA0 SHL SUB AND DUP2 MSTORE PUSH1 0x20 ADD PUSH1 0x40 MLOAD DUP1 PUSH1 0x40 ADD PUSH1 0x40 MSTORE DUP1 PUSH1 0x7 DUP2 MSTORE PUSH1 0x20 ADD PUSH7 0x50726573616C65 PUSH1 0xC8 SHL DUP2 MSTORE POP DUP2 MSTORE PUSH1 0x20 ADD DUP4 DUP2 MSTORE PUSH1 0x20 ADD PUSH1 0xF PUSH1 0x5 ADD SLOAD DUP2 MSTORE PUSH1 0x20 ADD PUSH1 0xF PUSH1 0x6 ADD SLOAD DUP2 MSTORE POP DUP2 PUSH1 0x1 DUP2 MLOAD DUP2 LT PUSH2 0x2A59 JUMPI PUSH2 0x2A59 PUSH2 0x3D96 JUMP JUMPDEST PUSH1 0x20 MUL PUSH1 0x20 ADD ADD DUP2 SWAP1 MSTORE POP PUSH1 0x40 MLOAD DUP1 PUSH1 0xA0 ADD PUSH1 0x40 MSTORE DUP1 PUSH1 0x3 PUSH1 0x1 PUSH1 0x1 PUSH1 0xA0 SHL SUB AND DUP2 MSTORE PUSH1 0x20 ADD PUSH1 0x40 MLOAD DUP1 PUSH1 0x40 ADD PUSH1 0x40 MSTORE DUP1 PUSH1 0x9 DUP2 MSTORE PUSH1 0x20 ADD PUSH9 0x526566657272616C73 PUSH1 0xB8 SHL DUP2 MSTORE POP DUP2 MSTORE PUSH1 0x20 ADD PUSH3 0xF4240 PUSH1 0x9 SLOAD DUP6 PUSH2 0x2AB8 SWAP2 SWAP1 PUSH2 0x3BD0 JUMP JUMPDEST PUSH2 0x2AC2 SWAP2 SWAP1 PUSH2 0x3BAE JUMP JUMPDEST DUP2 MSTORE PUSH1 0x16 SLOAD PUSH1 0x20 DUP3 ADD MSTORE PUSH1 0x17 SLOAD PUSH1 0x40 SWAP1 SWAP2 ADD MSTORE DUP2 MLOAD DUP3 SWAP1 PUSH1 0x2 SWAP1 DUP2 LT PUSH2 0x2AEA JUMPI PUSH2 0x2AEA PUSH2 0x3D96 JUMP JUMPDEST PUSH1 0x20 MUL PUSH1 0x20 ADD ADD DUP2 SWAP1 MSTORE POP PUSH1 0x0 JUMPDEST PUSH1 0x8 SLOAD DUP2 LT ISZERO PUSH2 0x2C31 JUMPI PUSH1 0x8 DUP2 DUP2 SLOAD DUP2 LT PUSH2 0x2B15 JUMPI PUSH2 0x2B15 PUSH2 0x3D96 JUMP JUMPDEST PUSH1 0x0 SWAP2 DUP3 MSTORE PUSH1 0x20 SWAP2 DUP3 SWAP1 KECCAK256 PUSH1 0x40 DUP1 MLOAD PUSH1 0xA0 DUP2 ADD SWAP1 SWAP2 MSTORE PUSH1 0x5 SWAP1 SWAP3 MUL ADD DUP1 SLOAD PUSH1 0x1 PUSH1 0x1 PUSH1 0xA0 SHL SUB AND DUP3 MSTORE PUSH1 0x1 DUP2 ADD DUP1 SLOAD SWAP3 SWAP4 SWAP2 SWAP3 SWAP2 DUP5 ADD SWAP2 PUSH2 0x2B55 SWAP1 PUSH2 0x3D14 JUMP JUMPDEST DUP1 PUSH1 0x1F ADD PUSH1 0x20 DUP1 SWAP2 DIV MUL PUSH1 0x20 ADD PUSH1 0x40 MLOAD SWAP1 DUP2 ADD PUSH1 0x40 MSTORE DUP1 SWAP3 SWAP2 SWAP1 DUP2 DUP2 MSTORE PUSH1 0x20 ADD DUP3 DUP1 SLOAD PUSH2 0x2B81 SWAP1 PUSH2 0x3D14 JUMP JUMPDEST DUP1 ISZERO PUSH2 0x2BCE JUMPI DUP1 PUSH1 0x1F LT PUSH2 0x2BA3 JUMPI PUSH2 0x100 DUP1 DUP4 SLOAD DIV MUL DUP4 MSTORE SWAP2 PUSH1 0x20 ADD SWAP2 PUSH2 0x2BCE JUMP JUMPDEST DUP3 ADD SWAP2 SWAP1 PUSH1 0x0 MSTORE PUSH1 0x20 PUSH1 0x0 KECCAK256 SWAP1 JUMPDEST DUP2 SLOAD DUP2 MSTORE SWAP1 PUSH1 0x1 ADD SWAP1 PUSH1 0x20 ADD DUP1 DUP4 GT PUSH2 0x2BB1 JUMPI DUP3 SWAP1 SUB PUSH1 0x1F AND DUP3 ADD SWAP2 JUMPDEST POP POP POP POP POP DUP2 MSTORE PUSH1 0x20 ADD PUSH1 0x2 DUP3 ADD SLOAD DUP2 MSTORE PUSH1 0x20 ADD PUSH1 0x3 DUP3 ADD SLOAD DUP2 MSTORE PUSH1 0x20 ADD PUSH1 0x4 DUP3 ADD SLOAD DUP2 MSTORE POP POP DUP3 DUP3 PUSH1 0x3 PUSH2 0x2C03 SWAP2 SWAP1 PUSH2 0x3B96 JUMP JUMPDEST DUP2 MLOAD DUP2 LT PUSH2 0x2C13 JUMPI PUSH2 0x2C13 PUSH2 0x3D96 JUMP JUMPDEST PUSH1 0x20 MUL PUSH1 0x20 ADD ADD DUP2 SWAP1 MSTORE POP DUP1 DUP1 PUSH2 0x2C29 SWAP1 PUSH2 0x3D4F JUMP JUMPDEST SWAP2 POP POP PUSH2 0x2AF8 JUMP JUMPDEST POP SWAP3 SWAP2 POP POP JUMP JUMPDEST PUSH1 0x0 SLOAD PUSH1 0x1 PUSH1 0x1 PUSH1 0xA0 SHL SUB AND CALLER EQ PUSH2 0x2C62 JUMPI PUSH1 0x40 MLOAD PUSH3 0x461BCD PUSH1 0xE5 SHL DUP2 MSTORE PUSH1 0x4 ADD PUSH2 0x574 SWAP1 PUSH2 0x395C JUMP JUMPDEST PUSH1 0x1 PUSH1 0x1 PUSH1 0xA0 SHL SUB DUP2 AND PUSH2 0x2CC7 JUMPI PUSH1 0x40 MLOAD PUSH3 0x461BCD PUSH1 0xE5 SHL DUP2 MSTORE PUSH1 0x20 PUSH1 0x4 DUP3 ADD MSTORE PUSH1 0x26 PUSH1 0x24 DUP3 ADD MSTORE PUSH32 0x4F776E61626C653A206E6577206F776E657220697320746865207A65726F2061 PUSH1 0x44 DUP3 ADD MSTORE PUSH6 0x646472657373 PUSH1 0xD0 SHL PUSH1 0x64 DUP3 ADD MSTORE PUSH1 0x84 ADD PUSH2 0x574 JUMP JUMPDEST PUSH1 0x0 DUP1 SLOAD PUSH1 0x40 MLOAD PUSH1 0x1 PUSH1 0x1 PUSH1 0xA0 SHL SUB DUP1 DUP6 AND SWAP4 SWAP3 AND SWAP2 PUSH32 0x8BE0079C531659141344CD1FD0A4F28419497F9722A3DAAFE3B4186F6B6457E0 SWAP2 LOG3 PUSH1 0x0 DUP1 SLOAD PUSH1 0x1 PUSH1 0x1 PUSH1 0xA0 SHL SUB NOT AND PUSH1 0x1 PUSH1 0x1 PUSH1 0xA0 SHL SUB SWAP3 SWAP1 SWAP3 AND SWAP2 SWAP1 SWAP2 OR SWAP1 SSTORE JUMP JUMPDEST PUSH1 0x1 PUSH1 0x1 PUSH1 0xA0 SHL SUB DUP2 AND PUSH1 0x0 SWAP1 DUP2 MSTORE PUSH1 0x3 PUSH1 0x20 MSTORE PUSH1 0x40 DUP2 KECCAK256 SLOAD DUP2 SWAP1 PUSH1 0x4 SWAP1 PUSH2 0x2D4C SWAP1 PUSH1 0x1 SWAP1 PUSH2 0x3BEF JUMP JUMPDEST DUP2 SLOAD DUP2 LT PUSH2 0x2D5C JUMPI PUSH2 0x2D5C PUSH2 0x3D96 JUMP JUMPDEST PUSH1 0x0 SWAP2 DUP3 MSTORE PUSH1 0x20 SWAP2 DUP3 SWAP1 KECCAK256 PUSH1 0x40 DUP1 MLOAD PUSH1 0xA0 DUP2 ADD DUP3 MSTORE PUSH1 0x5 SWAP1 SWAP4 MUL SWAP1 SWAP2 ADD DUP1 SLOAD PUSH1 0x1 PUSH1 0x1 PUSH1 0xA0 SHL SUB AND DUP4 MSTORE PUSH1 0x1 DUP2 ADD SLOAD SWAP4 DUP4 ADD SWAP4 SWAP1 SWAP4 MSTORE PUSH1 0x2 DUP4 ADD SLOAD SWAP1 DUP3 ADD MSTORE PUSH1 0x3 DUP3 ADD SLOAD PUSH1 0x60 DUP3 ADD DUP2 SWAP1 MSTORE PUSH1 0x4 SWAP1 SWAP3 ADD SLOAD PUSH1 0x80 DUP3 ADD MSTORE SWAP2 POP TIMESTAMP GT ISZERO DUP1 PUSH2 0x2DC9 JUMPI POP DUP1 PUSH1 0x80 ADD MLOAD DUP2 PUSH1 0x60 ADD MLOAD GT JUMPDEST ISZERO PUSH2 0x2DD7 JUMPI POP PUSH1 0x0 SWAP3 SWAP2 POP POP JUMP JUMPDEST DUP1 PUSH1 0x80 ADD MLOAD TIMESTAMP LT PUSH2 0x2DFD JUMPI DUP1 PUSH1 0x40 ADD MLOAD DUP2 PUSH1 0x20 ADD MLOAD PUSH2 0x2DF6 SWAP2 SWAP1 PUSH2 0x3BEF JUMP JUMPDEST SWAP4 SWAP3 POP POP POP JUMP JUMPDEST PUSH1 0x0 DUP2 PUSH1 0x60 ADD MLOAD DUP3 PUSH1 0x80 ADD MLOAD PUSH2 0x2E13 SWAP2 SWAP1 PUSH2 0x3BEF JUMP JUMPDEST PUSH1 0x60 DUP4 ADD MLOAD PUSH2 0x2E22 SWAP1 TIMESTAMP PUSH2 0x3BEF JUMP JUMPDEST DUP4 PUSH1 0x20 ADD MLOAD PUSH2 0x2E31 SWAP2 SWAP1 PUSH2 0x3BD0 JUMP JUMPDEST PUSH2 0x2E3B SWAP2 SWAP1 PUSH2 0x3BAE JUMP JUMPDEST SWAP1 POP DUP2 PUSH1 0x40 ADD MLOAD DUP2 GT PUSH2 0x2E52 JUMPI POP PUSH1 0x0 SWAP4 SWAP3 POP POP POP JUMP JUMPDEST PUSH1 0x40 DUP3 ADD MLOAD PUSH2 0x2E61 SWAP1 DUP3 PUSH2 0x3BEF JUMP JUMPDEST SWAP5 SWAP4 POP POP POP POP JUMP JUMPDEST PUSH1 0xF SLOAD PUSH1 0x40 MLOAD PUSH4 0xBB9FF5D PUSH1 0xE0 SHL DUP2 MSTORE CALLER PUSH1 0x4 DUP3 ADD MSTORE PUSH8 0xDE0B6B3A7640000 PUSH1 0x24 DUP3 ADD MSTORE PUSH1 0x1 PUSH1 0x1 PUSH1 0xA0 SHL SUB SWAP1 SWAP2 AND SWAP1 PUSH4 0xBB9FF5D SWAP1 PUSH1 0x44 ADD PUSH1 0x0 PUSH1 0x40 MLOAD DUP1 DUP4 SUB DUP2 PUSH1 0x0 DUP8 DUP1 EXTCODESIZE ISZERO DUP1 ISZERO PUSH2 0x2EBC JUMPI PUSH1 0x0 DUP1 REVERT JUMPDEST POP GAS CALL ISZERO DUP1 ISZERO PUSH2 0x791 JUMPI RETURNDATASIZE PUSH1 0x0 DUP1 RETURNDATACOPY RETURNDATASIZE PUSH1 0x0 REVERT JUMPDEST PUSH1 0x0 DUP1 SLOAD DUP3 SWAP2 SWAP1 PUSH1 0xFF PUSH1 0xA0 SHL NOT AND PUSH1 0x1 PUSH1 0xA0 SHL DUP4 PUSH1 0x7 DUP2 GT ISZERO PUSH2 0x2EF5 JUMPI PUSH2 0x2EF5 PUSH2 0x3D80 JUMP JUMPDEST MUL OR SWAP1 SSTORE POP PUSH32 0x551DC40198CC79684BB69E4931DBA4AC16E4598792EE1C0A5000AEEA366D7BB6 DUP2 PUSH1 0x40 MLOAD PUSH2 0x2F29 SWAP2 SWAP1 PUSH2 0x3934 JUMP JUMPDEST PUSH1 0x40 MLOAD DUP1 SWAP2 SUB SWAP1 LOG1 POP JUMP JUMPDEST PUSH1 0x1 PUSH1 0x1 PUSH1 0xA0 SHL SUB DUP4 AND PUSH1 0x0 SWAP1 DUP2 MSTORE PUSH1 0x1 PUSH1 0x20 MSTORE PUSH1 0x40 SWAP1 KECCAK256 SLOAD PUSH2 0x3038 JUMPI PUSH1 0x40 DUP1 MLOAD PUSH1 0x60 DUP2 ADD DUP3 MSTORE PUSH1 0x1 PUSH1 0x1 PUSH1 0xA0 SHL SUB DUP1 DUP7 AND DUP1 DUP4 MSTORE DUP6 DUP3 AND PUSH1 0x20 DUP1 DUP6 ADD SWAP2 DUP3 MSTORE DUP5 DUP7 ADD DUP8 DUP2 MSTORE PUSH1 0x2 DUP1 SLOAD PUSH1 0x1 DUP2 DUP2 ADD DUP4 SSTORE PUSH1 0x0 DUP4 DUP2 MSTORE SWAP9 MLOAD PUSH1 0x3 SWAP1 SWAP3 MUL PUSH32 0x405787FA12A823E0F2B7631CC41B3BA8828B3321CA811111FA75CD3AA3BB5ACE DUP2 ADD DUP1 SLOAD SWAP4 DUP11 AND PUSH1 0x1 PUSH1 0x1 PUSH1 0xA0 SHL SUB NOT SWAP5 DUP6 AND OR SWAP1 SSTORE SWAP6 MLOAD PUSH32 0x405787FA12A823E0F2B7631CC41B3BA8828B3321CA811111FA75CD3AA3BB5ACF DUP8 ADD DUP1 SLOAD SWAP2 SWAP1 SWAP10 AND SWAP3 AND SWAP2 SWAP1 SWAP2 OR SWAP1 SWAP7 SSTORE SWAP1 MLOAD PUSH32 0x405787FA12A823E0F2B7631CC41B3BA8828B3321CA811111FA75CD3AA3BB5AD0 SWAP1 SWAP4 ADD SWAP3 SWAP1 SWAP3 SSTORE SWAP1 SLOAD SWAP2 DUP5 MSTORE SWAP2 SWAP1 SWAP2 MSTORE SWAP2 SWAP1 KECCAK256 SSTORE PUSH2 0x3135 JUMP JUMPDEST PUSH1 0x1 PUSH1 0x1 PUSH1 0xA0 SHL SUB DUP4 AND PUSH1 0x0 SWAP1 DUP2 MSTORE PUSH1 0x1 PUSH1 0x20 DUP2 SWAP1 MSTORE PUSH1 0x40 DUP3 KECCAK256 SLOAD DUP4 SWAP2 PUSH1 0x2 SWAP2 PUSH2 0x3062 SWAP2 SWAP1 PUSH2 0x3BEF JUMP JUMPDEST DUP2 SLOAD DUP2 LT PUSH2 0x3072 JUMPI PUSH2 0x3072 PUSH2 0x3D96 JUMP JUMPDEST SWAP1 PUSH1 0x0 MSTORE PUSH1 0x20 PUSH1 0x0 KECCAK256 SWAP1 PUSH1 0x3 MUL ADD PUSH1 0x2 ADD SLOAD PUSH2 0x308E SWAP2 SWAP1 PUSH2 0x3B96 JUMP JUMPDEST PUSH1 0x1A SLOAD SWAP1 SWAP2 POP DUP2 GT ISZERO PUSH2 0x30E3 JUMPI PUSH1 0x40 MLOAD PUSH3 0x461BCD PUSH1 0xE5 SHL DUP2 MSTORE PUSH1 0x20 PUSH1 0x4 DUP3 ADD MSTORE PUSH1 0x1F PUSH1 0x24 DUP3 ADD MSTORE PUSH32 0x50523A204D617820636170207065722077616C6C657420657863656564656400 PUSH1 0x44 DUP3 ADD MSTORE PUSH1 0x64 ADD PUSH2 0x574 JUMP JUMPDEST PUSH1 0x1 PUSH1 0x1 PUSH1 0xA0 SHL SUB DUP5 AND PUSH1 0x0 SWAP1 DUP2 MSTORE PUSH1 0x1 PUSH1 0x20 DUP2 SWAP1 MSTORE PUSH1 0x40 SWAP1 SWAP2 KECCAK256 SLOAD DUP3 SWAP2 PUSH1 0x2 SWAP2 PUSH2 0x310E SWAP2 SWAP1 PUSH2 0x3BEF JUMP JUMPDEST DUP2 SLOAD DUP2 LT PUSH2 0x311E JUMPI PUSH2 0x311E PUSH2 0x3D96 JUMP JUMPDEST SWAP1 PUSH1 0x0 MSTORE PUSH1 0x20 PUSH1 0x0 KECCAK256 SWAP1 PUSH1 0x3 MUL ADD PUSH1 0x2 ADD DUP2 SWAP1 SSTORE POP POP JUMPDEST DUP1 PUSH1 0xA PUSH1 0x0 DUP3 DUP3 SLOAD PUSH2 0x3147 SWAP2 SWAP1 PUSH2 0x3B96 JUMP JUMPDEST SWAP1 SWAP2 SSTORE POP PUSH2 0xA74 SWAP1 POP DUP4 PUSH2 0x3324 JUMP JUMPDEST PUSH1 0x1 PUSH1 0x1 PUSH1 0xA0 SHL SUB DUP3 AND PUSH1 0x0 SWAP1 DUP2 MSTORE PUSH1 0x5 PUSH1 0x20 MSTORE PUSH1 0x40 SWAP1 KECCAK256 SLOAD PUSH2 0x321D JUMPI PUSH1 0x40 DUP1 MLOAD DUP1 DUP3 ADD DUP3 MSTORE PUSH1 0x1 PUSH1 0x1 PUSH1 0xA0 SHL SUB DUP5 DUP2 AND DUP1 DUP4 MSTORE PUSH1 0x20 DUP1 DUP5 ADD DUP7 DUP2 MSTORE PUSH1 0x6 DUP1 SLOAD PUSH1 0x1 DUP2 ADD DUP3 SSTORE PUSH1 0x0 DUP3 DUP2 MSTORE SWAP7 MLOAD PUSH32 0xF652222313E28459528D920B65115C16C04F3EFC82AAEDC97BE59F3F377C0D3F PUSH1 0x2 SWAP1 SWAP3 MUL SWAP2 DUP3 ADD DUP1 SLOAD PUSH1 0x1 PUSH1 0x1 PUSH1 0xA0 SHL SUB NOT AND SWAP2 SWAP1 SWAP8 AND OR SWAP1 SWAP6 SSTORE SWAP1 MLOAD PUSH32 0xF652222313E28459528D920B65115C16C04F3EFC82AAEDC97BE59F3F377C0D40 SWAP1 SWAP5 ADD SWAP4 SWAP1 SWAP4 SSTORE SWAP2 SLOAD SWAP1 DUP4 MSTORE PUSH1 0x5 SWAP1 SWAP2 MSTORE SWAP2 SWAP1 KECCAK256 SSTORE PUSH2 0x327D JUMP JUMPDEST PUSH1 0x1 PUSH1 0x1 PUSH1 0xA0 SHL SUB DUP3 AND PUSH1 0x0 SWAP1 DUP2 MSTORE PUSH1 0x5 PUSH1 0x20 MSTORE PUSH1 0x40 SWAP1 KECCAK256 SLOAD DUP2 SWAP1 PUSH1 0x6 SWAP1 PUSH2 0x3247 SWAP1 PUSH1 0x1 SWAP1 PUSH2 0x3BEF JUMP JUMPDEST DUP2 SLOAD DUP2 LT PUSH2 0x3257 JUMPI PUSH2 0x3257 PUSH2 0x3D96 JUMP JUMPDEST SWAP1 PUSH1 0x0 MSTORE PUSH1 0x20 PUSH1 0x0 KECCAK256 SWAP1 PUSH1 0x2 MUL ADD PUSH1 0x1 ADD PUSH1 0x0 DUP3 DUP3 SLOAD PUSH2 0x3277 SWAP2 SWAP1 PUSH2 0x3B96 JUMP JUMPDEST SWAP1 SWAP2 SSTORE POP POP JUMPDEST PUSH2 0x3286 DUP3 PUSH2 0x3324 JUMP JUMPDEST POP POP JUMP JUMPDEST PUSH1 0x0 DUP1 PUSH1 0x0 JUMPDEST PUSH1 0x8 SLOAD DUP2 LT ISZERO PUSH2 0x32DE JUMPI PUSH1 0x8 DUP2 DUP2 SLOAD DUP2 LT PUSH2 0x32AD JUMPI PUSH2 0x32AD PUSH2 0x3D96 JUMP JUMPDEST SWAP1 PUSH1 0x0 MSTORE PUSH1 0x20 PUSH1 0x0 KECCAK256 SWAP1 PUSH1 0x5 MUL ADD PUSH1 0x2 ADD SLOAD DUP3 PUSH2 0x32CA SWAP2 SWAP1 PUSH2 0x3B96 JUMP JUMPDEST SWAP2 POP DUP1 PUSH2 0x32D6 DUP2 PUSH2 0x3D4F JUMP JUMPDEST SWAP2 POP POP PUSH2 0x3290 JUMP JUMPDEST POP PUSH1 0x9 SLOAD PUSH2 0x32F0 PUSH3 0xF4240 PUSH1 0x2 PUSH2 0x3BD0 JUMP JUMPDEST PUSH2 0x32FA SWAP2 SWAP1 PUSH2 0x3B96 JUMP JUMPDEST PUSH2 0x3307 DUP3 PUSH3 0xF4240 PUSH2 0x3BEF JUMP JUMPDEST PUSH2 0x3314 SWAP1 PUSH3 0xF4240 PUSH2 0x3BD0 JUMP JUMPDEST PUSH2 0x331E SWAP2 SWAP1 PUSH2 0x3BAE JUMP JUMPDEST SWAP2 POP POP SWAP1 JUMP JUMPDEST PUSH1 0x1 PUSH1 0x1 PUSH1 0xA0 SHL SUB DUP2 AND PUSH1 0x0 SWAP1 DUP2 MSTORE PUSH1 0x3 PUSH1 0x20 MSTORE PUSH1 0x40 SWAP1 KECCAK256 SLOAD PUSH2 0xDBF JUMPI PUSH1 0x40 DUP1 MLOAD PUSH1 0xA0 DUP2 ADD DUP3 MSTORE PUSH1 0x1 PUSH1 0x1 PUSH1 0xA0 SHL SUB SWAP3 DUP4 AND DUP1 DUP3 MSTORE PUSH1 0x0 PUSH1 0x20 DUP1 DUP5 ADD DUP3 DUP2 MSTORE DUP5 DUP7 ADD DUP4 DUP2 MSTORE TIMESTAMP PUSH1 0x60 DUP8 ADD DUP2 DUP2 MSTORE PUSH1 0x80 DUP9 ADD SWAP2 DUP3 MSTORE PUSH1 0x4 DUP1 SLOAD PUSH1 0x1 DUP2 ADD DUP3 SSTORE DUP2 DUP9 MSTORE SWAP9 MLOAD PUSH32 0x8A35ACFBC15FF81A39AE7D344FD709F28E8600B4AA8C65C6B64BFE7FE36BD19B PUSH1 0x5 SWAP1 SWAP11 MUL SWAP10 DUP11 ADD DUP1 SLOAD PUSH1 0x1 PUSH1 0x1 PUSH1 0xA0 SHL SUB NOT AND SWAP2 SWAP1 SWAP13 AND OR SWAP1 SWAP11 SSTORE SWAP3 MLOAD PUSH32 0x8A35ACFBC15FF81A39AE7D344FD709F28E8600B4AA8C65C6B64BFE7FE36BD19C DUP9 ADD SSTORE SWAP1 MLOAD PUSH32 0x8A35ACFBC15FF81A39AE7D344FD709F28E8600B4AA8C65C6B64BFE7FE36BD19D DUP8 ADD SSTORE SWAP1 MLOAD PUSH32 0x8A35ACFBC15FF81A39AE7D344FD709F28E8600B4AA8C65C6B64BFE7FE36BD19E DUP7 ADD SSTORE MLOAD PUSH32 0x8A35ACFBC15FF81A39AE7D344FD709F28E8600B4AA8C65C6B64BFE7FE36BD19F SWAP1 SWAP5 ADD SWAP4 SWAP1 SWAP4 SSTORE SWAP4 SLOAD SWAP1 DUP5 MSTORE PUSH1 0x3 SWAP1 SWAP2 MSTORE SWAP2 KECCAK256 SSTORE JUMP JUMPDEST PUSH1 0x40 MLOAD DUP1 PUSH1 0xC0 ADD PUSH1 0x40 MSTORE DUP1 PUSH2 0x34CE PUSH1 0x40 MLOAD DUP1 PUSH2 0x100 ADD PUSH1 0x40 MSTORE DUP1 PUSH1 0x0 PUSH1 0x1 PUSH1 0x1 PUSH1 0xA0 SHL SUB AND DUP2 MSTORE PUSH1 0x20 ADD PUSH1 0x60 DUP2 MSTORE PUSH1 0x20 ADD PUSH1 0x0 DUP2 MSTORE PUSH1 0x20 ADD PUSH1 0x0 DUP2 MSTORE PUSH1 0x20 ADD PUSH1 0x0 ISZERO ISZERO DUP2 MSTORE PUSH1 0x20 ADD PUSH1 0x0 ISZERO ISZERO DUP2 MSTORE PUSH1 0x20 ADD PUSH1 0x60 DUP2 MSTORE PUSH1 0x20 ADD PUSH1 0x60 DUP2 MSTORE POP SWAP1 JUMP JUMPDEST DUP2 MSTORE PUSH1 0x20 ADD PUSH2 0x34DB PUSH2 0x3503 JUMP JUMPDEST DUP2 MSTORE PUSH1 0x20 ADD PUSH2 0x34E8 PUSH2 0x3503 JUMP JUMPDEST DUP2 MSTORE PUSH1 0x20 ADD PUSH1 0x60 DUP2 MSTORE PUSH1 0x20 ADD PUSH1 0x0 DUP2 MSTORE PUSH1 0x20 ADD PUSH1 0x0 DUP2 MSTORE POP SWAP1 JUMP JUMPDEST PUSH1 0x40 MLOAD DUP1 PUSH1 0xA0 ADD PUSH1 0x40 MSTORE DUP1 PUSH1 0x0 PUSH1 0x1 PUSH1 0x1 PUSH1 0xA0 SHL SUB AND DUP2 MSTORE PUSH1 0x20 ADD PUSH1 0x0 DUP2 MSTORE PUSH1 0x20 ADD PUSH1 0x0 DUP2 MSTORE PUSH1 0x20 ADD PUSH1 0x0 DUP2 MSTORE PUSH1 0x20 ADD PUSH1 0x0 DUP2 MSTORE POP SWAP1 JUMP JUMPDEST PUSH1 0x0 PUSH1 0x20 DUP3 DUP5 SUB SLT ISZERO PUSH2 0x354D JUMPI PUSH1 0x0 DUP1 REVERT JUMPDEST DUP2 CALLDATALOAD PUSH2 0x2DF6 DUP2 PUSH2 0x3EB8 JUMP JUMPDEST PUSH1 0x0 PUSH1 0x20 DUP3 DUP5 SUB SLT ISZERO PUSH2 0x356A JUMPI PUSH1 0x0 DUP1 REVERT JUMPDEST DUP2 MLOAD PUSH2 0x2DF6 DUP2 PUSH2 0x3EB8 JUMP JUMPDEST PUSH1 0x0 PUSH1 0x20 DUP3 DUP5 SUB SLT ISZERO PUSH2 0x3587 JUMPI PUSH1 0x0 DUP1 REVERT JUMPDEST DUP2 MLOAD DUP1 ISZERO ISZERO DUP2 EQ PUSH2 0x2DF6 JUMPI PUSH1 0x0 DUP1 REVERT JUMPDEST PUSH1 0x0 PUSH1 0x20 DUP3 DUP5 SUB SLT ISZERO PUSH2 0x35A9 JUMPI PUSH1 0x0 DUP1 REVERT JUMPDEST DUP2 CALLDATALOAD PUSH8 0xFFFFFFFFFFFFFFFF DUP2 GT ISZERO PUSH2 0x35C0 JUMPI PUSH1 0x0 DUP1 REVERT JUMPDEST DUP3 ADD PUSH2 0x1A0 DUP2 DUP6 SUB SLT ISZERO PUSH2 0x2DF6 JUMPI PUSH1 0x0 DUP1 REVERT JUMPDEST PUSH1 0x0 PUSH1 0x20 DUP3 DUP5 SUB SLT ISZERO PUSH2 0x35E5 JUMPI PUSH1 0x0 DUP1 REVERT JUMPDEST POP CALLDATALOAD SWAP2 SWAP1 POP JUMP JUMPDEST PUSH1 0x0 PUSH1 0x20 DUP3 DUP5 SUB SLT ISZERO PUSH2 0x35FE JUMPI PUSH1 0x0 DUP1 REVERT JUMPDEST POP MLOAD SWAP2 SWAP1 POP JUMP JUMPDEST PUSH1 0x0 DUP1 PUSH1 0x40 DUP4 DUP6 SUB SLT ISZERO PUSH2 0x3618 JUMPI PUSH1 0x0 DUP1 REVERT JUMPDEST POP POP DUP1 CALLDATALOAD SWAP3 PUSH1 0x20 SWAP1 SWAP2 ADD CALLDATALOAD SWAP2 POP JUMP JUMPDEST PUSH1 0x0 DUP1 PUSH1 0x0 PUSH1 0x60 DUP5 DUP7 SUB SLT ISZERO PUSH2 0x363C JUMPI PUSH1 0x0 DUP1 REVERT JUMPDEST DUP4 MLOAD SWAP3 POP PUSH1 0x20 DUP5 ADD MLOAD SWAP2 POP PUSH1 0x40 DUP5 ADD MLOAD PUSH4 0xFFFFFFFF DUP2 AND DUP2 EQ PUSH2 0x365E JUMPI PUSH1 0x0 DUP1 REVERT JUMPDEST DUP1 SWAP2 POP POP SWAP3 POP SWAP3 POP SWAP3 JUMP JUMPDEST PUSH1 0x0 DUP3 DUP3 MLOAD DUP1 DUP6 MSTORE PUSH1 0x20 DUP1 DUP7 ADD SWAP6 POP DUP1 DUP3 PUSH1 0x5 SHL DUP5 ADD ADD DUP2 DUP7 ADD PUSH1 0x0 JUMPDEST DUP5 DUP2 LT ISZERO PUSH2 0x36F3 JUMPI DUP6 DUP4 SUB PUSH1 0x1F NOT ADD DUP10 MSTORE DUP2 MLOAD DUP1 MLOAD PUSH1 0x1 PUSH1 0x1 PUSH1 0xA0 SHL SUB AND DUP5 MSTORE DUP5 DUP2 ADD MLOAD PUSH1 0xA0 DUP7 DUP7 ADD DUP2 SWAP1 MSTORE SWAP1 PUSH2 0x36BF DUP3 DUP8 ADD DUP3 PUSH2 0x3700 JUMP JUMPDEST PUSH1 0x40 DUP5 DUP2 ADD MLOAD SWAP1 DUP9 ADD MSTORE PUSH1 0x60 DUP1 DUP6 ADD MLOAD SWAP1 DUP9 ADD MSTORE PUSH1 0x80 SWAP4 DUP5 ADD MLOAD SWAP4 SWAP1 SWAP7 ADD SWAP3 SWAP1 SWAP3 MSTORE POP POP SWAP8 DUP4 ADD SWAP8 SWAP1 DUP4 ADD SWAP1 PUSH1 0x1 ADD PUSH2 0x3686 JUMP JUMPDEST POP SWAP1 SWAP8 SWAP7 POP POP POP POP POP POP POP JUMP JUMPDEST PUSH1 0x0 DUP2 MLOAD DUP1 DUP5 MSTORE PUSH1 0x0 JUMPDEST DUP2 DUP2 LT ISZERO PUSH2 0x3726 JUMPI PUSH1 0x20 DUP2 DUP6 ADD DUP2 ADD MLOAD DUP7 DUP4 ADD DUP3 ADD MSTORE ADD PUSH2 0x370A JUMP JUMPDEST DUP2 DUP2 GT ISZERO PUSH2 0x3738 JUMPI PUSH1 0x0 PUSH1 0x20 DUP4 DUP8 ADD ADD MSTORE JUMPDEST POP PUSH1 0x1F ADD PUSH1 0x1F NOT AND SWAP3 SWAP1 SWAP3 ADD PUSH1 0x20 ADD SWAP3 SWAP2 POP POP JUMP JUMPDEST PUSH1 0x1 PUSH1 0x1 PUSH1 0xA0 SHL SUB DUP15 AND DUP2 MSTORE PUSH2 0x1A0 PUSH1 0x20 DUP3 ADD DUP2 SWAP1 MSTORE PUSH1 0x0 SWAP1 PUSH2 0x3772 SWAP1 DUP4 ADD DUP16 PUSH2 0x3700 JUMP JUMPDEST DUP3 DUP2 SUB PUSH1 0x40 DUP5 ADD MSTORE PUSH2 0x3784 DUP2 DUP16 PUSH2 0x3700 JUMP JUMPDEST SWAP1 POP DUP3 DUP2 SUB PUSH1 0x60 DUP5 ADD MSTORE PUSH2 0x3798 DUP2 DUP15 PUSH2 0x3700 JUMP JUMPDEST PUSH1 0x80 DUP5 ADD SWAP13 SWAP1 SWAP13 MSTORE POP POP PUSH1 0xA0 DUP2 ADD SWAP9 SWAP1 SWAP9 MSTORE PUSH1 0xC0 DUP9 ADD SWAP7 SWAP1 SWAP7 MSTORE PUSH1 0xE0 DUP8 ADD SWAP5 SWAP1 SWAP5 MSTORE PUSH2 0x100 DUP7 ADD SWAP3 SWAP1 SWAP3 MSTORE PUSH2 0x120 DUP6 ADD MSTORE PUSH2 0x140 DUP5 ADD MSTORE PUSH2 0x160 DUP4 ADD MSTORE PUSH2 0x180 SWAP1 SWAP2 ADD MSTORE SWAP5 SWAP4 POP POP POP POP JUMP JUMPDEST PUSH1 0x20 DUP1 DUP3 MSTORE DUP3 MLOAD DUP3 DUP3 ADD DUP2 SWAP1 MSTORE PUSH1 0x0 SWAP2 SWAP1 PUSH1 0x40 SWAP1 DUP2 DUP6 ADD SWAP1 DUP7 DUP5 ADD DUP6 JUMPDEST DUP3 DUP2 LT ISZERO PUSH2 0x383C JUMPI DUP2 MLOAD DUP1 MLOAD PUSH1 0x1 PUSH1 0x1 PUSH1 0xA0 SHL SUB SWAP1 DUP2 AND DUP7 MSTORE DUP8 DUP3 ADD MLOAD AND DUP8 DUP7 ADD MSTORE DUP6 ADD MLOAD DUP6 DUP6 ADD MSTORE PUSH1 0x60 SWAP1 SWAP4 ADD SWAP3 SWAP1 DUP6 ADD SWAP1 PUSH1 0x1 ADD PUSH2 0x3801 JUMP JUMPDEST POP SWAP2 SWAP8 SWAP7 POP POP POP POP POP POP POP JUMP JUMPDEST PUSH1 0x20 DUP1 DUP3 MSTORE DUP3 MLOAD DUP3 DUP3 ADD DUP2 SWAP1 MSTORE PUSH1 0x0 SWAP2 SWAP1 PUSH1 0x40 SWAP1 DUP2 DUP6 ADD SWAP1 DUP7 DUP5 ADD DUP6 JUMPDEST DUP3 DUP2 LT ISZERO PUSH2 0x383C JUMPI DUP2 MLOAD DUP1 MLOAD PUSH1 0x1 PUSH1 0x1 PUSH1 0xA0 SHL SUB AND DUP6 MSTORE DUP7 ADD MLOAD DUP7 DUP6 ADD MSTORE SWAP3 DUP5 ADD SWAP3 SWAP1 DUP6 ADD SWAP1 PUSH1 0x1 ADD PUSH2 0x3866 JUMP JUMPDEST PUSH1 0x0 PUSH1 0x20 DUP1 DUP4 ADD DUP2 DUP5 MSTORE DUP1 DUP6 MLOAD DUP1 DUP4 MSTORE PUSH1 0x40 SWAP3 POP DUP3 DUP7 ADD SWAP2 POP DUP3 DUP2 PUSH1 0x5 SHL DUP8 ADD ADD DUP5 DUP9 ADD PUSH1 0x0 JUMPDEST DUP4 DUP2 LT ISZERO PUSH2 0x3926 JUMPI DUP9 DUP4 SUB PUSH1 0x3F NOT ADD DUP6 MSTORE DUP2 MLOAD DUP1 MLOAD PUSH1 0x1 PUSH1 0x1 PUSH1 0xA0 SHL SUB AND DUP5 MSTORE DUP8 DUP2 ADD MLOAD PUSH1 0xA0 DUP10 DUP7 ADD DUP2 SWAP1 MSTORE SWAP1 PUSH2 0x38F4 DUP3 DUP8 ADD DUP3 PUSH2 0x3700 JUMP JUMPDEST DUP4 DUP11 ADD MLOAD DUP8 DUP12 ADD MSTORE PUSH1 0x60 DUP1 DUP6 ADD MLOAD SWAP1 DUP9 ADD MSTORE PUSH1 0x80 SWAP4 DUP5 ADD MLOAD SWAP4 SWAP1 SWAP7 ADD SWAP3 SWAP1 SWAP3 MSTORE POP POP SWAP4 DUP7 ADD SWAP4 SWAP1 DUP7 ADD SWAP1 PUSH1 0x1 ADD PUSH2 0x38BB JUMP JUMPDEST POP SWAP1 SWAP9 SWAP8 POP POP POP POP POP POP POP POP JUMP JUMPDEST PUSH1 0x20 DUP2 ADD PUSH1 0x8 DUP4 LT PUSH2 0x3956 JUMPI PUSH4 0x4E487B71 PUSH1 0xE0 SHL PUSH1 0x0 MSTORE PUSH1 0x21 PUSH1 0x4 MSTORE PUSH1 0x24 PUSH1 0x0 REVERT JUMPDEST SWAP2 SWAP1 MSTORE SWAP1 JUMP JUMPDEST PUSH1 0x20 DUP1 DUP3 MSTORE DUP2 DUP2 ADD MSTORE PUSH32 0x4F776E61626C653A2063616C6C6572206973206E6F7420746865206F776E6572 PUSH1 0x40 DUP3 ADD MSTORE PUSH1 0x60 ADD SWAP1 JUMP JUMPDEST PUSH1 0x20 DUP2 MSTORE PUSH1 0x0 DUP3 MLOAD PUSH2 0x1C0 DUP1 PUSH1 0x20 DUP6 ADD MSTORE PUSH2 0x39B9 PUSH2 0x1E0 DUP6 ADD DUP4 MLOAD PUSH1 0x1 PUSH1 0x1 PUSH1 0xA0 SHL SUB AND SWAP1 MSTORE JUMP JUMPDEST PUSH1 0x20 DUP3 ADD MLOAD PUSH2 0x100 PUSH2 0x200 DUP7 ADD MSTORE PUSH2 0x39D5 PUSH2 0x2E0 DUP7 ADD DUP3 PUSH2 0x3700 JUMP JUMPDEST SWAP1 POP PUSH1 0x40 DUP4 ADD MLOAD PUSH2 0x220 DUP7 ADD MSTORE PUSH1 0x60 DUP4 ADD MLOAD PUSH2 0x240 DUP7 ADD MSTORE PUSH1 0x80 DUP4 ADD MLOAD PUSH2 0x3A01 PUSH2 0x260 DUP8 ADD DUP3 ISZERO ISZERO SWAP1 MSTORE JUMP JUMPDEST POP PUSH1 0xA0 DUP4 ADD MLOAD ISZERO ISZERO PUSH2 0x280 DUP7 ADD MSTORE PUSH1 0xC0 DUP4 ADD MLOAD DUP6 DUP3 SUB PUSH2 0x1DF NOT SWAP1 DUP2 ADD PUSH2 0x2A0 DUP9 ADD MSTORE PUSH2 0x3A2E DUP4 DUP4 PUSH2 0x3700 JUMP JUMPDEST SWAP3 POP PUSH1 0xE0 DUP6 ADD MLOAD SWAP5 POP DUP1 DUP8 DUP5 SUB ADD PUSH2 0x2C0 DUP9 ADD MSTORE POP POP PUSH2 0x3A4E DUP2 DUP5 PUSH2 0x3700 JUMP JUMPDEST SWAP3 POP POP PUSH1 0x20 DUP6 ADD MLOAD PUSH2 0x3A94 PUSH1 0x40 DUP7 ADD DUP3 DUP1 MLOAD PUSH1 0x1 PUSH1 0x1 PUSH1 0xA0 SHL SUB AND DUP3 MSTORE PUSH1 0x20 DUP1 DUP3 ADD MLOAD SWAP1 DUP4 ADD MSTORE PUSH1 0x40 DUP1 DUP3 ADD MLOAD SWAP1 DUP4 ADD MSTORE PUSH1 0x60 DUP1 DUP3 ADD MLOAD SWAP1 DUP4 ADD MSTORE PUSH1 0x80 SWAP1 DUP2 ADD MLOAD SWAP2 ADD MSTORE JUMP JUMPDEST POP PUSH1 0x40 DUP6 DUP2 ADD MLOAD DUP1 MLOAD PUSH1 0x1 PUSH1 0x1 PUSH1 0xA0 SHL SUB AND PUSH1 0xE0 DUP8 ADD MSTORE PUSH1 0x20 DUP2 ADD MLOAD PUSH2 0x100 DUP8 ADD MSTORE SWAP1 DUP2 ADD MLOAD PUSH2 0x120 DUP7 ADD MSTORE PUSH1 0x60 DUP2 ADD MLOAD PUSH2 0x140 DUP7 ADD MSTORE PUSH1 0x80 DUP2 ADD MLOAD PUSH2 0x160 DUP7 ADD MSTORE POP PUSH1 0x60 DUP6 ADD MLOAD DUP5 DUP4 SUB PUSH1 0x1F NOT ADD PUSH2 0x180 DUP7 ADD MSTORE PUSH2 0x3AF3 DUP4 DUP3 PUSH2 0x3669 JUMP JUMPDEST PUSH1 0x80 DUP8 ADD MLOAD PUSH2 0x1A0 DUP8 ADD MSTORE PUSH1 0xA0 SWAP1 SWAP7 ADD MLOAD SWAP2 SWAP1 SWAP5 ADD MSTORE POP SWAP2 SWAP3 SWAP2 POP POP JUMP JUMPDEST DUP5 DUP2 MSTORE DUP4 PUSH1 0x20 DUP3 ADD MSTORE PUSH1 0x1 DUP1 PUSH1 0xA0 SHL SUB DUP4 AND PUSH1 0x40 DUP3 ADD MSTORE PUSH1 0x80 PUSH1 0x60 DUP3 ADD MSTORE PUSH1 0x0 PUSH2 0x3B3E PUSH1 0x80 DUP4 ADD DUP5 PUSH2 0x3700 JUMP JUMPDEST SWAP7 SWAP6 POP POP POP POP POP POP JUMP JUMPDEST PUSH1 0x0 DUP1 DUP4 CALLDATALOAD PUSH1 0x1E NOT DUP5 CALLDATASIZE SUB ADD DUP2 SLT PUSH2 0x3B5F JUMPI PUSH1 0x0 DUP1 REVERT JUMPDEST DUP4 ADD DUP1 CALLDATALOAD SWAP2 POP PUSH8 0xFFFFFFFFFFFFFFFF DUP3 GT ISZERO PUSH2 0x3B7A JUMPI PUSH1 0x0 DUP1 REVERT JUMPDEST PUSH1 0x20 ADD SWAP2 POP CALLDATASIZE DUP2 SWAP1 SUB DUP3 SGT ISZERO PUSH2 0x3B8F JUMPI PUSH1 0x0 DUP1 REVERT JUMPDEST SWAP3 POP SWAP3 SWAP1 POP JUMP JUMPDEST PUSH1 0x0 DUP3 NOT DUP3 GT ISZERO PUSH2 0x3BA9 JUMPI PUSH2 0x3BA9 PUSH2 0x3D6A JUMP JUMPDEST POP ADD SWAP1 JUMP JUMPDEST PUSH1 0x0 DUP3 PUSH2 0x3BCB JUMPI PUSH4 0x4E487B71 PUSH1 0xE0 SHL PUSH1 0x0 MSTORE PUSH1 0x12 PUSH1 0x4 MSTORE PUSH1 0x24 PUSH1 0x0 REVERT JUMPDEST POP DIV SWAP1 JUMP JUMPDEST PUSH1 0x0 DUP2 PUSH1 0x0 NOT DIV DUP4 GT DUP3 ISZERO ISZERO AND ISZERO PUSH2 0x3BEA JUMPI PUSH2 0x3BEA PUSH2 0x3D6A JUMP JUMPDEST POP MUL SWAP1 JUMP JUMPDEST PUSH1 0x0 DUP3 DUP3 LT ISZERO PUSH2 0x3C01 JUMPI PUSH2 0x3C01 PUSH2 0x3D6A JUMP JUMPDEST POP SUB SWAP1 JUMP JUMPDEST PUSH1 0x1F DUP3 GT ISZERO PUSH2 0xA74 JUMPI PUSH1 0x0 DUP2 DUP2 MSTORE PUSH1 0x20 DUP2 KECCAK256 PUSH1 0x1F DUP6 ADD PUSH1 0x5 SHR DUP2 ADD PUSH1 0x20 DUP7 LT ISZERO PUSH2 0x3C2D JUMPI POP DUP1 JUMPDEST PUSH1 0x1F DUP6 ADD PUSH1 0x5 SHR DUP3 ADD SWAP2 POP JUMPDEST DUP2 DUP2 LT ISZERO PUSH2 0x3C4C JUMPI DUP3 DUP2 SSTORE PUSH1 0x1 ADD PUSH2 0x3C39 JUMP JUMPDEST POP POP POP POP POP POP JUMP JUMPDEST PUSH8 0xFFFFFFFFFFFFFFFF DUP4 GT ISZERO PUSH2 0x3C6C JUMPI PUSH2 0x3C6C PUSH2 0x3DAC JUMP JUMPDEST PUSH2 0x3C80 DUP4 PUSH2 0x3C7A DUP4 SLOAD PUSH2 0x3D14 JUMP JUMPDEST DUP4 PUSH2 0x3C06 JUMP JUMPDEST PUSH1 0x0 PUSH1 0x1F DUP5 GT PUSH1 0x1 DUP2 EQ PUSH2 0x3CB4 JUMPI PUSH1 0x0 DUP6 ISZERO PUSH2 0x3C9C JUMPI POP DUP4 DUP3 ADD CALLDATALOAD JUMPDEST PUSH1 0x0 NOT PUSH1 0x3 DUP8 SWAP1 SHL SHR NOT AND PUSH1 0x1 DUP7 SWAP1 SHL OR DUP4 SSTORE PUSH2 0xFCC JUMP JUMPDEST PUSH1 0x0 DUP4 DUP2 MSTORE PUSH1 0x20 SWAP1 KECCAK256 PUSH1 0x1F NOT DUP7 AND SWAP1 DUP4 JUMPDEST DUP3 DUP2 LT ISZERO PUSH2 0x3CE5 JUMPI DUP7 DUP6 ADD CALLDATALOAD DUP3 SSTORE PUSH1 0x20 SWAP5 DUP6 ADD SWAP5 PUSH1 0x1 SWAP1 SWAP3 ADD SWAP2 ADD PUSH2 0x3CC5 JUMP JUMPDEST POP DUP7 DUP3 LT ISZERO PUSH2 0x3D02 JUMPI PUSH1 0x0 NOT PUSH1 0xF8 DUP9 PUSH1 0x3 SHL AND SHR NOT DUP5 DUP8 ADD CALLDATALOAD AND DUP2 SSTORE JUMPDEST POP POP PUSH1 0x1 DUP6 PUSH1 0x1 SHL ADD DUP4 SSTORE POP POP POP POP POP JUMP JUMPDEST PUSH1 0x1 DUP2 DUP2 SHR SWAP1 DUP3 AND DUP1 PUSH2 0x3D28 JUMPI PUSH1 0x7F DUP3 AND SWAP2 POP JUMPDEST PUSH1 0x20 DUP3 LT DUP2 EQ ISZERO PUSH2 0x3D49 JUMPI PUSH4 0x4E487B71 PUSH1 0xE0 SHL PUSH1 0x0 MSTORE PUSH1 0x22 PUSH1 0x4 MSTORE PUSH1 0x24 PUSH1 0x0 REVERT JUMPDEST POP SWAP2 SWAP1 POP JUMP JUMPDEST PUSH1 0x0 PUSH1 0x0 NOT DUP3 EQ ISZERO PUSH2 0x3D63 JUMPI PUSH2 0x3D63 PUSH2 0x3D6A JUMP JUMPDEST POP PUSH1 0x1 ADD SWAP1 JUMP JUMPDEST PUSH4 0x4E487B71 PUSH1 0xE0 SHL PUSH1 0x0 MSTORE PUSH1 0x11 PUSH1 0x4 MSTORE PUSH1 0x24 PUSH1 0x0 REVERT JUMPDEST PUSH4 0x4E487B71 PUSH1 0xE0 SHL PUSH1 0x0 MSTORE PUSH1 0x21 PUSH1 0x4 MSTORE PUSH1 0x24 PUSH1 0x0 REVERT JUMPDEST PUSH4 0x4E487B71 PUSH1 0xE0 SHL PUSH1 0x0 MSTORE PUSH1 0x32 PUSH1 0x4 MSTORE PUSH1 0x24 PUSH1 0x0 REVERT JUMPDEST PUSH4 0x4E487B71 PUSH1 0xE0 SHL PUSH1 0x0 MSTORE PUSH1 0x41 PUSH1 0x4 MSTORE PUSH1 0x24 PUSH1 0x0 REVERT JUMPDEST PUSH1 0x0 DUP2 CALLDATALOAD PUSH2 0x3DCF DUP2 PUSH2 0x3EB8 JUMP JUMPDEST SWAP3 SWAP2 POP POP JUMP JUMPDEST PUSH2 0x3DFE PUSH2 0x3DE1 DUP4 PUSH2 0x3DC2 JUMP JUMPDEST DUP3 SLOAD PUSH1 0x1 PUSH1 0x1 PUSH1 0xA0 SHL SUB NOT AND PUSH1 0x1 PUSH1 0x1 PUSH1 0xA0 SHL SUB SWAP2 SWAP1 SWAP2 AND OR DUP3 SSTORE JUMP JUMPDEST PUSH2 0x3E0B PUSH1 0x20 DUP4 ADD DUP4 PUSH2 0x3B48 JUMP JUMPDEST PUSH2 0x3E19 DUP2 DUP4 PUSH1 0x1 DUP7 ADD PUSH2 0x3C54 JUMP JUMPDEST POP POP PUSH2 0x3E28 PUSH1 0x40 DUP4 ADD DUP4 PUSH2 0x3B48 JUMP JUMPDEST PUSH2 0x3E36 DUP2 DUP4 PUSH1 0x2 DUP7 ADD PUSH2 0x3C54 JUMP JUMPDEST POP POP PUSH2 0x3E45 PUSH1 0x60 DUP4 ADD DUP4 PUSH2 0x3B48 JUMP JUMPDEST PUSH2 0x3E53 DUP2 DUP4 PUSH1 0x3 DUP7 ADD PUSH2 0x3C54 JUMP JUMPDEST POP POP PUSH1 0x80 DUP3 ADD CALLDATALOAD PUSH1 0x4 DUP3 ADD SSTORE PUSH1 0xA0 DUP3 ADD CALLDATALOAD PUSH1 0x5 DUP3 ADD SSTORE PUSH1 0xC0 DUP3 ADD CALLDATALOAD PUSH1 0x6 DUP3 ADD SSTORE PUSH1 0xE0 DUP3 ADD CALLDATALOAD PUSH1 0x7 DUP3 ADD SSTORE PUSH2 0x100 DUP3 ADD CALLDATALOAD PUSH1 0x8 DUP3 ADD SSTORE PUSH2 0x120 DUP3 ADD CALLDATALOAD PUSH1 0x9 DUP3 ADD SSTORE PUSH2 0x140 DUP3 ADD CALLDATALOAD PUSH1 0xA DUP3 ADD SSTORE PUSH2 0x160 DUP3 ADD CALLDATALOAD PUSH1 0xB DUP3 ADD SSTORE PUSH2 0x180 DUP3 ADD CALLDATALOAD PUSH1 0xC DUP3 ADD SSTORE POP POP JUMP JUMPDEST PUSH1 0x1 PUSH1 0x1 PUSH1 0xA0 SHL SUB DUP2 AND DUP2 EQ PUSH2 0xDBF JUMPI PUSH1 0x0 DUP1 REVERT INVALID LOG2 PUSH5 0x6970667358 0x22 SLT KECCAK256 0x2A 0xED 0xEA SIGNEXTEND DUP12 DUP4 CREATE PUSH12 0x4306052D2F13F66A7553AE3F LOG2 0xB0 0xCB DUP7 PUSH29 0x14EC8726D5F97664736F6C634300080700338BE0079C531659141344CD 0x1F 0xD0 LOG4 CALLCODE DUP5 NOT 0x49 PUSH32 0x9722A3DAAFE3B4186F6B6457E0A2646970667358221220970A387DAB3ACD8218 0x23 0xDF CALLDATACOPY 0xA5 PUSH17 0xA7668A78B4751561A55E72A0C73213B917 SWAP2 PUSH5 0x736F6C6343 STOP ADDMOD SMOD STOP CALLER "
		},
		"gasEstimates": {
			"creation": {
				"codeDepositCost": "4587400",
				"executionCost": "5357",
				"totalCost": "4592757"
			},
			"external": {
				"createPresale((address,string,uint256,uint256,uint256)[],(address,string,string,string,uint256,uint256,uint256,uint256,uint256,uint256,uint256,uint256,uint256))": "infinite",
				"listPresales(address,uint256,uint256)": "infinite",
				"presaleContracts(uint256)": "4581"
			}
		},
		"methodIdentifiers": {
			"createPresale((address,string,uint256,uint256,uint256)[],(address,string,string,string,uint256,uint256,uint256,uint256,uint256,uint256,uint256,uint256,uint256))": "9617fd43",
			"listPresales(address,uint256,uint256)": "f355c592",
			"presaleContracts(uint256)": "07a96a68"
		}
	},
	"abi": [
		{
			"inputs": [
				{
					"components": [
						{
							"internalType": "address",
							"name": "tokenomicsAddr",
							"type": "address"
						},
						{
							"internalType": "string",
							"name": "tokenomicsName",
							"type": "string"
						},
						{
							"internalType": "uint256",
							"name": "tokenomicsPercentage",
							"type": "uint256"
						},
						{
							"internalType": "uint256",
							"name": "tokenomicsLockedForXSeconds",
							"type": "uint256"
						},
						{
							"internalType": "uint256",
							"name": "tokenomicsVestedForXSeconds",
							"type": "uint256"
						}
					],
					"internalType": "struct Tokenomics[]",
					"name": "_tokenomics",
					"type": "tuple[]"
				},
				{
					"components": [
						{
							"internalType": "address",
							"name": "tokenAddress",
							"type": "address"
						},
						{
							"internalType": "string",
							"name": "presaleName",
							"type": "string"
						},
						{
							"internalType": "string",
							"name": "website",
							"type": "string"
						},
						{
							"internalType": "string",
							"name": "telegram",
							"type": "string"
						},
						{
							"internalType": "uint256",
							"name": "uniswapLiquidityLockedFor",
							"type": "uint256"
						},
						{
							"internalType": "uint256",
							"name": "presaleLockedFor",
							"type": "uint256"
						},
						{
							"internalType": "uint256",
							"name": "presaleVestedFor",
							"type": "uint256"
						},
						{
							"internalType": "uint256",
							"name": "referralsLockedFor",
							"type": "uint256"
						},
						{
							"internalType": "uint256",
							"name": "referralsVestedFor",
							"type": "uint256"
						},
						{
							"internalType": "uint256",
							"name": "maxWethCap",
							"type": "uint256"
						},
						{
							"internalType": "uint256",
							"name": "perWalletMinWeth",
							"type": "uint256"
						},
						{
							"internalType": "uint256",
							"name": "perWalletMaxWeth",
							"type": "uint256"
						},
						{
							"internalType": "uint256",
							"name": "fixedPriceInDeft",
							"type": "uint256"
						}
					],
					"internalType": "struct Settings",
					"name": "_settings",
					"type": "tuple"
				}
			],
			"name": "createPresale",
			"outputs": [
				{
					"internalType": "address",
					"name": "",
					"type": "address"
				}
			],
			"stateMutability": "nonpayable",
			"type": "function"
		},
		{
			"inputs": [
				{
					"internalType": "address",
					"name": "walletAddress",
					"type": "address"
				},
				{
					"internalType": "uint256",
					"name": "page",
					"type": "uint256"
				},
				{
					"internalType": "uint256",
					"name": "limit",
					"type": "uint256"
				}
			],
			"name": "listPresales",
			"outputs": [
				{
					"components": [
						{
							"components": [
								{
									"internalType": "address",
									"name": "presaleContractAddress",
									"type": "address"
								},
								{
									"internalType": "string",
									"name": "presaleName",
									"type": "string"
								},
								{
									"internalType": "uint256",
									"name": "totalInvestedWeth",
									"type": "uint256"
								},
								{
									"internalType": "uint256",
									"name": "maxWethCap",
									"type": "uint256"
								},
								{
									"internalType": "bool",
									"name": "isActive",
									"type": "bool"
								},
								{
									"internalType": "bool",
									"name": "isEnabled",
									"type": "bool"
								},
								{
									"internalType": "string",
									"name": "website",
									"type": "string"
								},
								{
									"internalType": "string",
									"name": "telegram",
									"type": "string"
								}
							],
							"internalType": "struct PresaleItem",
							"name": "presaleItem",
							"type": "tuple"
						},
						{
							"components": [
								{
									"internalType": "address",
									"name": "walletAddress",
									"type": "address"
								},
								{
									"internalType": "uint256",
									"name": "walletInvestedWeth",
									"type": "uint256"
								},
								{
									"internalType": "uint256",
									"name": "walletReferralEarnings",
									"type": "uint256"
								},
								{
									"internalType": "uint256",
									"name": "minimumWethPerWallet",
									"type": "uint256"
								},
								{
									"internalType": "uint256",
									"name": "maximumWethPerWallet",
									"type": "uint256"
								}
							],
							"internalType": "struct WalletInfo",
							"name": "walletInfo",
							"type": "tuple"
						},
						{
							"components": [
								{
									"internalType": "address",
									"name": "vestingAddr",
									"type": "address"
								},
								{
									"internalType": "uint256",
									"name": "tokensReserved",
									"type": "uint256"
								},
								{
									"internalType": "uint256",
									"name": "tokensClaimed",
									"type": "uint256"
								},
								{
									"internalType": "uint256",
									"name": "lockedUntilTimestamp",
									"type": "uint256"
								},
								{
									"internalType": "uint256",
									"name": "vestedUntilTimestamp",
									"type": "uint256"
								}
							],
							"internalType": "struct Vesting",
							"name": "vestingInfo",
							"type": "tuple"
						},
						{
							"components": [
								{
									"internalType": "address",
									"name": "tokenomicsAddr",
									"type": "address"
								},
								{
									"internalType": "string",
									"name": "tokenomicsName",
									"type": "string"
								},
								{
									"internalType": "uint256",
									"name": "tokenomicsPercentage",
									"type": "uint256"
								},
								{
									"internalType": "uint256",
									"name": "tokenomicsLockedForXSeconds",
									"type": "uint256"
								},
								{
									"internalType": "uint256",
									"name": "tokenomicsVestedForXSeconds",
									"type": "uint256"
								}
							],
							"internalType": "struct Tokenomics[]",
							"name": "tokenomics",
							"type": "tuple[]"
						},
						{
							"internalType": "uint256",
							"name": "listingPrice",
							"type": "uint256"
						},
						{
							"internalType": "uint256",
							"name": "createdAt",
							"type": "uint256"
						}
					],
					"internalType": "struct OutputItem[]",
					"name": "output",
					"type": "tuple[]"
				}
			],
			"stateMutability": "view",
			"type": "function"
		},
		{
			"inputs": [
				{
					"internalType": "uint256",
					"name": "",
					"type": "uint256"
				}
			],
			"name": "presaleContracts",
			"outputs": [
				{
					"internalType": "contract PresaleContract",
					"name": "",
					"type": "address"
				}
			],
			"stateMutability": "view",
			"type": "function"
		}
	]
}