{
	"data": {
		"bytecode": {
			"linkReferences": {},
			"object": "608060405261c3506009553480156200001757600080fd5b5060405162004c9138038062004c918339810160408190526200003a916200085c565b600080546001600160a01b0319163390811782556040519091829160008051602062004c71833981519152908290a350600080546001600160a01b0319166001600160a01b038516908117825560405190919060008051602062004c71833981519152908290a360005b8251811015620000f057620000db838281518110620000c757620000c7620009d4565b6020026020010151620001e860201b60201c565b80620000e78162000a00565b915050620000a4565b508051600f80546001600160a01b0319166001600160a01b0390921691909117815560208083015180518493926200012e9260109291019062000553565b50604082015180516200014c91600284019160209091019062000553565b50606082015180516200016a91600384019160209091019062000553565b506080820151600482015560a0820151600582015560c0820151600682015560e0820151600782015561010082015160088201556101208201516009820155610140820151600a820155610160820151600b8083019190915561018090920151600c90910155429055620001df60006200039f565b50505062000ab4565b80516001600160a01b0316600090815260076020526040902054620002e0576008805460018101825560009190915281517ff3f7a9fe364faab93b216da50a3214154f22a0a2b415b23a84c8169e8b636ee3600590920291820180546001600160a01b0319166001600160a01b03909216919091178155602080840151805185946200029b937ff3f7a9fe364faab93b216da50a3214154f22a0a2b415b23a84c8169e8b636ee490910192019062000553565b5060408281015160028301556060830151600383015560809092015160049091015560085482516001600160a01b03166000908152600760205291909120556200038f565b80516001600160a01b031660009081526007602052604090205481906008906200030d9060019062000a1e565b81548110620003205762000320620009d4565b600091825260209182902083516005929092020180546001600160a01b0319166001600160a01b0390921691909117815582820151805191926200036d9260018501929091019062000553565b5060408201516002820155606082015160038201556080909101516004909101555b80516200039c9062000408565b50565b6000805482919060ff60a01b1916600160a01b836007811115620003c757620003c762000a38565b02179055507f551dc40198cc79684bb69e4931dba4ac16e4598792ee1c0a5000aeea366d7bb681604051620003fd919062000a4e565b60405180910390a150565b6001600160a01b0381166000908152600360205260409020546200039c576040805160a0810182526001600160a01b03928316808252600060208084018281528486018381524260608701818152608088019182526004805460018101825581885298517f8a35acfbc15ff81a39ae7d344fd709f28e8600b4aa8c65c6b64bfe7fe36bd19b6005909a02998a0180546001600160a01b03191691909c1617909a5592517f8a35acfbc15ff81a39ae7d344fd709f28e8600b4aa8c65c6b64bfe7fe36bd19c88015590517f8a35acfbc15ff81a39ae7d344fd709f28e8600b4aa8c65c6b64bfe7fe36bd19d87015590517f8a35acfbc15ff81a39ae7d344fd709f28e8600b4aa8c65c6b64bfe7fe36bd19e860155517f8a35acfbc15ff81a39ae7d344fd709f28e8600b4aa8c65c6b64bfe7fe36bd19f9094019390935593549084526003909152912055565b828054620005619062000a77565b90600052602060002090601f016020900481019282620005855760008555620005d0565b82601f10620005a057805160ff1916838001178555620005d0565b82800160010185558215620005d0579182015b82811115620005d0578251825591602001919060010190620005b3565b50620005de929150620005e2565b5090565b5b80821115620005de5760008155600101620005e3565b80516001600160a01b03811681146200061157600080fd5b919050565b634e487b7160e01b600052604160045260246000fd5b6040516101a081016001600160401b038111828210171562000652576200065262000616565b60405290565b60405160a081016001600160401b038111828210171562000652576200065262000616565b604051601f8201601f191681016001600160401b0381118282101715620006a857620006a862000616565b604052919050565b600082601f830112620006c257600080fd5b81516001600160401b03811115620006de57620006de62000616565b6020620006f4601f8301601f191682016200067d565b82815285828487010111156200070957600080fd5b60005b83811015620007295785810183015182820184015282016200070c565b838111156200073b5760008385840101525b5095945050505050565b60006101a082840312156200075957600080fd5b620007636200062c565b90506200077082620005f9565b815260208201516001600160401b03808211156200078d57600080fd5b6200079b85838601620006b0565b60208401526040840151915080821115620007b557600080fd5b620007c385838601620006b0565b60408401526060840151915080821115620007dd57600080fd5b50620007ec84828501620006b0565b6060830152506080820151608082015260a082015160a082015260c082015160c082015260e082015160e082015261010080830151818301525061012080830151818301525061014080830151818301525061016080830151818301525061018080830151818301525092915050565b6000806000606084860312156200087257600080fd5b6200087d84620005f9565b602085810151919450906001600160401b03808211156200089d57600080fd5b818701915087601f830112620008b257600080fd5b815181811115620008c757620008c762000616565b8060051b620008d88582016200067d565b918252838101850191858101908b841115620008f357600080fd5b86860192505b838310156200099f578251858111156200091257600080fd5b860160a0818e03601f190112156200092957600080fd5b6200093362000658565b62000940898301620005f9565b8152604082015187811115620009565760008081fd5b620009668f8b83860101620006b0565b8a8301525060608201516040820152608080830151606083015260a08301518183015250808452505086820191508683019250620008f9565b60408b0151909850955050505080831115620009ba57600080fd5b5050620009ca8682870162000745565b9150509250925092565b634e487b7160e01b600052603260045260246000fd5b634e487b7160e01b600052601160045260246000fd5b600060001982141562000a175762000a17620009ea565b5060010190565b60008282101562000a335762000a33620009ea565b500390565b634e487b7160e01b600052602160045260246000fd5b602081016008831062000a7157634e487b7160e01b600052602160045260246000fd5b91905290565b600181811c9082168062000a8c57607f821691505b6020821081141562000aae57634e487b7160e01b600052602260045260246000fd5b50919050565b6141ad8062000ac46000396000f3fe6080604052600436106101bb5760003560e01c80638da5cb5b116100ec578063dd74075c1161008a578063ee2923d911610064578063ee2923d9146104e5578063f2fde38b14610507578063f9c7569914610527578063fedda89c1461054757600080fd5b8063dd74075c14610474578063e06174e41461048a578063e70d8fdc146104b857600080fd5b80639b214950116100c65780639b214950146103ef578063b33d600a14610404578063c19d93fb14610431578063ca71d9f41461045f57600080fd5b80638da5cb5b146103925780639248b04a146103ba57806399f96c51146103cf57600080fd5b80632ffac82c116101595780635f6577a8116101335780635f6577a81461031657806370f1b3311461032b578063715018a614610350578063818a36a11461036557600080fd5b80632ffac82c1461028f57806339fc1128146102e157806342f60cb51461030157600080fd5b806303f9c7931161019557806303f9c7931461021e5780630b293a31146102315780631ca8b6cb146102465780631f96b8ab1461026f57600080fd5b8063010bd419146101c75780630155ecaf146101e95780630346920d146101fe57600080fd5b366101c257005b600080fd5b3480156101d357600080fd5b506101e76101e2366004613854565b61055c565b005b3480156101f557600080fd5b506101e7610804565b34801561020a57600080fd5b506101e7610219366004613876565b610a8c565b6101e761022c3660046138c7565b610ac8565b34801561023d57600080fd5b506101e7610e11565b34801561025257600080fd5b5061025c600d5481565b6040519081526020015b60405180910390f35b34801561027b57600080fd5b506101e761028a366004613854565b610e29565b34801561029b57600080fd5b506102af6102aa3660046138e4565b611013565b604080516001600160a01b0390961686526020860194909452928401919091526060830152608082015260a001610266565b3480156102ed57600080fd5b506101e76102fc3660046138e4565b61105e565b34801561030d57600080fd5b506101e76110a8565b34801561032257600080fd5b506101e761114e565b34801561033757600080fd5b50610340611604565b6040519015158152602001610266565b34801561035c57600080fd5b506101e761174c565b34801561037157600080fd5b50610385610380366004613854565b6117c0565b60405161026691906138fd565b34801561039e57600080fd5b506000546040516001600160a01b039091168152602001610266565b3480156103c657600080fd5b506101e7611913565b3480156103db57600080fd5b506101e76103ea366004613854565b611b9b565b3480156103fb57600080fd5b506101e7611e38565b34801561041057600080fd5b5061042461041f3660046138c7565b61218b565b6040516102669190613a46565b34801561043d57600080fd5b5060005461045290600160a01b900460ff1681565b6040516102669190613bdc565b34801561046b57600080fd5b50610340612637565b34801561048057600080fd5b5061025c600c5481565b34801561049657600080fd5b5061049f6126ad565b6040516102669d9c9b9a99989796959493929190613c04565b3480156104c457600080fd5b506104d86104d3366004613854565b6128a0565b6040516102669190613c9b565b3480156104f157600080fd5b506104fa6129cf565b6040516102669190613ce6565b34801561051357600080fd5b506101e76105223660046138c7565b612d38565b34801561053357600080fd5b5061025c6105423660046138c7565b612e22565b34801561055357600080fd5b506101e7612f69565b6004600054600160a01b900460ff16600781111561057c5761057c613bc6565b146105ea5760405162461bcd60e51b815260206004820152603360248201527f50523a20496e766573746f727320746f6b656e73206861766520616c7265616460448201527279206265656e2064697374726962757465642160681b60648201526084015b60405180910390fd5b60006105f683836117c0565b905060005b81518110156107fe57600460016003600085858151811061061e5761061e613cf9565b6020026020010151600001516001600160a01b03166001600160a01b03168152602001908152602001600020546106559190613d25565b8154811061066557610665613cf9565b906000526020600020906005020160010154600014156107ec576040518060a0016040528083838151811061069c5761069c613cf9565b6020026020010151600001516001600160a01b03168152602001600a548484815181106106cb576106cb613cf9565b602002602001015160400151600c546106e49190613d3c565b6106ee9190613d5b565b815260200160008152602001600f600501544261070b9190613d7d565b81526015546014546020909201916107239042613d7d565b61072d9190613d7d565b815250600460016003600086868151811061074a5761074a613cf9565b6020026020010151600001516001600160a01b03166001600160a01b03168152602001908152602001600020546107819190613d25565b8154811061079157610791613cf9565b600091825260209182902083516005929092020180546001600160a01b0319166001600160a01b0390921691909117815590820151600182015560408201516002820155606082015160038201556080909101516004909101555b806107f681613d95565b9150506105fb565b50505050565b6000546001600160a01b0316331461082e5760405162461bcd60e51b81526004016105e190613db0565b6001600054600160a01b900460ff16600781111561084e5761084e613bc6565b1461089b5760405162461bcd60e51b815260206004820152601c60248201527f50523a205061697220697320616c72656164792063726561746564210000000060448201526064016105e1565b600f546001600160a01b03166109065760405162461bcd60e51b815260206004820152602a60248201527f50523a20546f6b656e206164647265737320776173206e6f7420696e697469616044820152696c697a6564207965742160b01b60648201526084016105e1565b600f5460405163e6a4390560e01b81526001600160a01b03909116600482015273dbd240d23a5c3041b0f26bdd8888dede6f58a12a6024820152735c69bee701ef814a2b6a3edd4b1652cb9cc5aa6f9063e6a4390590604401602060405180830381865afa15801561097c573d6000803e3d6000fd5b505050506040513d601f19601f820116820180604052508101906109a09190613de5565b600e80546001600160a01b0319166001600160a01b03929092169182179055610a8057600f546040516364e329cb60e11b81526001600160a01b03909116600482015273dbd240d23a5c3041b0f26bdd8888dede6f58a12a6024820152735c69bee701ef814a2b6a3edd4b1652cb9cc5aa6f9063c9c65396906044016020604051808303816000875af1158015610a3b573d6000803e3d6000fd5b505050506040513d601f19601f82011682018060405250810190610a5f9190613de5565b600e80546001600160a01b0319166001600160a01b03929092169190911790555b610a8a60036131e9565b565b6000546001600160a01b03163314610ab65760405162461bcd60e51b81526004016105e190613db0565b80600f610ac38282613fba565b505050565b60008054600160a01b900460ff166007811115610ae757610ae7613bc6565b14610b455760405162461bcd60e51b815260206004820152602860248201527f50523a20416363657074696e67207061796d656e747320686173206265656e2060448201526773746f707065642160c01b60648201526084016105e1565b601854600a541115610b905760405162461bcd60e51b815260206004820152601460248201527350523a204d61782063617020726561636865642160601b60448201526064016105e1565b601954341015610bf05760405162461bcd60e51b815260206004820152602560248201527f50523a20416d6f756e742069732062656c6f77206d696e696d756d207065726d6044820152641a5d1d195960da1b60648201526084016105e1565b601a54341115610c505760405162461bcd60e51b815260206004820152602560248201527f50523a20416d6f756e742069732061626f7665206d6178696d756d207065726d6044820152641a5d1d195960da1b60648201526084016105e1565b3360009081526007602052604090205415610cb75760405162461bcd60e51b815260206004820152602160248201527f50523a205465616d206973206e6f7420616c6c6f77656420746f20696e7665736044820152601d60fa1b60648201526084016105e1565b3360009081526005602052604090205415610d3a5760405162461bcd60e51b815260206004820152603860248201527f50523a20496e76657374696e6720666f7220616374697665207265666572726160448201527f6c2061646472657373657320697320666f7262696464656e000000000000000060648201526084016105e1565b336001600160a01b0382161415610db95760405162461bcd60e51b815260206004820152603e60248201527f50523a2053656c662d7265662069736e277420616c6c6f7765642e20506c656160448201527f73652075736520646966666572656e7420726566657272616c206c696e6b000060648201526084016105e1565b6001600160a01b038116610dde575073c427a912e0b19f082840a0045e430de5b8cb1f655b610de933823461324d565b610e0e81620f424060095434610dff9190613d3c565b610e099190613d5b565b61346f565b50565b610e196110a8565b610e21610804565b610a8a61114e565b6000546001600160a01b03163314610e535760405162461bcd60e51b81526004016105e190613db0565b610e5d60076131e9565b6040516370a0823160e01b815230600482015260009073d0a1e359811322d97991e03f863a0c30c2cf029c906370a0823190602401602060405180830381865afa158015610eaf573d6000803e3d6000fd5b505050506040513d601f19601f82011682018060405250810190610ed3919061409d565b90508015610f4157604051632e1a7d4d60e01b81526004810182905273d0a1e359811322d97991e03f863a0c30c2cf029c90632e1a7d4d90602401600060405180830381600087803b158015610f2857600080fd5b505af1158015610f3c573d6000803e3d6000fd5b505050505b6000610f4d84846117c0565b905060005b815181101561100c576000828281518110610f6f57610f6f613cf9565b60200260200101516040015190506000838381518110610f9157610f91613cf9565b60200260200101516040018181525050828281518110610fb357610fb3613cf9565b6020026020010151600001516001600160a01b03166108fc829081150290604051600060405180830381858888f19350505050158015610ff7573d6000803e3d6000fd5b5050808061100490613d95565b915050610f52565b5050505050565b6004818154811061102357600080fd5b6000918252602090912060059091020180546001820154600283015460038401546004909401546001600160a01b0390931694509092909185565b611066611e38565b61106e611913565b801561107a578061107e565b6002545b905061108b60008261055c565b8015611097578061109b565b6002545b9050610e0e600082611b9b565b6000546001600160a01b031633146110d25760405162461bcd60e51b81526004016105e190613db0565b60008054600160a01b900460ff1660078111156110f1576110f1613bc6565b1461113e5760405162461bcd60e51b815260206004820152601c60248201527f50523a20476f616c20697320616c72656164792072656163686564210000000060448201526064016105e1565b600a54601855610a8a60016131e9565b6000546001600160a01b031633146111785760405162461bcd60e51b81526004016105e190613db0565b6003600054600160a01b900460ff16600781111561119857611198613bc6565b146111f75760405162461bcd60e51b815260206004820152602960248201527f50523a20507265706172696e6720616464206c697175696469747920697320636044820152686f6d706c657465642160b81b60648201526084016105e1565b6000471161125b5760405162461bcd60e51b815260206004820152602b60248201527f50523a2045746865722062616c616e6365206d757374206265206c617267657260448201526a207468616e207a65726f2160a81b60648201526084016105e1565b600073d0a1e359811322d97991e03f863a0c30c2cf029c9050806001600160a01b031663d0e30db0476040518263ffffffff1660e01b81526004016000604051808303818588803b1580156112af57600080fd5b505af11580156112c3573d6000803e3d6000fd5b50506040516370a0823160e01b8152306004820152600093506001600160a01b03851692506370a082319150602401602060405180830381865afa15801561130f573d6000803e3d6000fd5b505050506040513d601f19601f82011682018060405250810190611333919061409d565b604080516002808252606082018352929350600092909160208301908036833701905050905073d0a1e359811322d97991e03f863a0c30c2cf029c8160008151811061138157611381613cf9565b60200260200101906001600160a01b031690816001600160a01b03168152505073dbd240d23a5c3041b0f26bdd8888dede6f58a12a816001815181106113c9576113c9613cf9565b6001600160a01b03928316602091820292909201015260405163095ea7b360e01b8152737a250d5630b4cf539739df2c5dacb4c659f2488d600482015260001960248201529084169063095ea7b3906044016020604051808303816000875af115801561143a573d6000803e3d6000fd5b505050506040513d601f19601f8201168201806040525081019061145e91906140b6565b5060405163095ea7b360e01b8152737a250d5630b4cf539739df2c5dacb4c659f2488d6004820152600019602482015273dbd240d23a5c3041b0f26bdd8888dede6f58a12a9063095ea7b3906044016020604051808303816000875af11580156114cc573d6000803e3d6000fd5b505050506040513d601f19601f820116820180604052508101906114f091906140b6565b50600f5460405163095ea7b360e01b8152737a250d5630b4cf539739df2c5dacb4c659f2488d600482015260001960248201526001600160a01b039091169063095ea7b3906044016020604051808303816000875af1158015611557573d6000803e3d6000fd5b505050506040513d601f19601f8201168201806040525081019061157b91906140b6565b50737a250d5630b4cf539739df2c5dacb4c659f2488d635c11d79583600084306115a8426283d600613d7d565b6040518663ffffffff1660e01b81526004016115c89594939291906140d8565b600060405180830381600087803b1580156115e257600080fd5b505af11580156115f6573d6000803e3d6000fd5b50505050610ac360026131e9565b6000805b6006548110156116a457600160046001600360006006868154811061162f5761162f613cf9565b600091825260208083206002909202909101546001600160a01b031683528201929092526040019020546116639190613d25565b8154811061167357611673613cf9565b9060005260206000209060050201600101541161169257600091505090565b8061169c81613d95565b915050611608565b5060005b6002548110156117445760016004600160036000600286815481106116cf576116cf613cf9565b600091825260208083206003909202909101546001600160a01b031683528201929092526040019020546117039190613d25565b8154811061171357611713613cf9565b9060005260206000209060050201600101541161173257600091505090565b8061173c81613d95565b9150506116a8565b506001905090565b6000546001600160a01b031633146117765760405162461bcd60e51b81526004016105e190613db0565b600080546040516001600160a01b03909116907f8be0079c531659141344cd1fd0a4f28419497f9722a3daafe3b4186f6b6457e0908390a3600080546001600160a01b0319169055565b60608260006117cf8483613d7d565b60025490915081116117e157806117e5565b6002545b905060008282116117f7576000611801565b6118018383613d25565b905060008167ffffffffffffffff81111561181e5761181e613e63565b60405190808252806020026020018201604052801561186957816020015b604080516060810182526000808252602080830182905292820152825260001990920191018161183c5790505b509050835b83811015611908576002818154811061188957611889613cf9565b600091825260209182902060408051606081018252600390930290910180546001600160a01b0390811684526001820154169383019390935260029092015491810191909152826118da8784613d25565b815181106118ea576118ea613cf9565b6020026020010181905250808061190090613d95565b91505061186e565b509695505050505050565b6004600054600160a01b900460ff16600781111561193357611933613bc6565b1461199d5760405162461bcd60e51b815260206004820152603460248201527f50523a20546f6b656e6f6d69637320746f6b656e73206861766520616c7265616044820152736479206265656e2064697374726962757465642160601b60648201526084016105e1565b60005b600854811015610e0e576040518060a00160405280600883815481106119c8576119c8613cf9565b6000918252602091829020600590910201546001600160a01b03168252600880549290910191620f4240919085908110611a0457611a04613cf9565b906000526020600020906005020160020154600d54611a239190613d3c565b611a2d9190613d5b565b81526020016000815260200160088381548110611a4c57611a4c613cf9565b90600052602060002090600502016003015442611a699190613d7d565b815260200160088381548110611a8157611a81613cf9565b90600052602060002090600502016004015460088481548110611aa657611aa6613cf9565b90600052602060002090600502016003015442611ac39190613d7d565b611acd9190613d7d565b815250600460016003600060088681548110611aeb57611aeb613cf9565b600091825260208083206005909202909101546001600160a01b03168352820192909252604001902054611b1f9190613d25565b81548110611b2f57611b2f613cf9565b600091825260209182902083516005929092020180546001600160a01b0319166001600160a01b03909216919091178155908201516001820155604082015160028201556060820151600382015560809091015160049091015580611b9381613d95565b9150506119a0565b6004600054600160a01b900460ff166007811115611bbb57611bbb613bc6565b14611c245760405162461bcd60e51b815260206004820152603360248201527f50523a20526566657272616c7320746f6b656e73206861766520616c7265616460448201527279206265656e2064697374726962757465642160681b60648201526084016105e1565b6000611c3083836128a0565b905060005b81518110156107fe576004600160036000858581518110611c5857611c58613cf9565b6020026020010151600001516001600160a01b03166001600160a01b0316815260200190815260200160002054611c8f9190613d25565b81548110611c9f57611c9f613cf9565b90600052602060002090600502016001015460001415611e26576040518060a00160405280838381518110611cd657611cd6613cf9565b6020026020010151600001516001600160a01b03168152602001600a54600c54858581518110611d0857611d08613cf9565b602002602001015160200151611d1e9190613d3c565b611d289190613d5b565b815260200160008152602001600f6007015442611d459190613d7d565b8152601754601654602090920191611d5d9042613d7d565b611d679190613d7d565b8152506004600160036000868681518110611d8457611d84613cf9565b6020026020010151600001516001600160a01b03166001600160a01b0316815260200190815260200160002054611dbb9190613d25565b81548110611dcb57611dcb613cf9565b600091825260209182902083516005929092020180546001600160a01b0319166001600160a01b0390921691909117815590820151600182015560408201516002820155606082015160038201556080909101516004909101555b80611e3081613d95565b915050611c35565b6000546001600160a01b03163314611e625760405162461bcd60e51b81526004016105e190613db0565b6002600054600160a01b900460ff166007811115611e8257611e82613bc6565b14611ecf5760405162461bcd60e51b815260206004820152601f60248201527f50523a204c697175696469747920697320616c7265616479206164646564210060448201526064016105e1565b6040516370a0823160e01b815230600482015273dbd240d23a5c3041b0f26bdd8888dede6f58a12a9060009082906370a0823190602401602060405180830381865afa158015611f23573d6000803e3d6000fd5b505050506040513d601f19601f82011682018060405250810190611f47919061409d565b601b54909150600090611f6283670de0b6b3a7640000613d3c565b611f6c9190613d5b565b9050611f766135a3565b611f83620f424083613d3c565b611f8d9190613d5b565b611f98906001613d7d565b600d55600c819055600f54604051630bb9ff5d60e01b8152306004820152602481018390526001600160a01b0390911690630bb9ff5d90604401600060405180830381600087803b158015611fec57600080fd5b505af1158015612000573d6000803e3d6000fd5b5050600f54737a250d5630b4cf539739df2c5dacb4c659f2488d925063e8e33700915073dbd240d23a5c3041b0f26bdd8888dede6f58a12a906001600160a01b0316858560008030612055426283d600613d7d565b60405160e08a901b6001600160e01b03191681526001600160a01b039889166004820152968816602488015260448701959095526064860193909352608485019190915260a484015290921660c482015260e4810191909152610104016060604051808303816000875af11580156120d1573d6000803e3d6000fd5b505050506040513d601f19601f820116820180604052508101906120f59190614149565b506120fe915050565b600f54600d546001600160a01b0390911690630bb9ff5d903090612123908590613d25565b6040516001600160e01b031960e085901b1681526001600160a01b0390921660048301526024820152604401600060405180830381600087803b15801561216957600080fd5b505af115801561217d573d6000803e3d6000fd5b50505050610ac360046131e9565b612193613787565b61219b61381c565b6001600160a01b0383166000908152600360205260409020541561224c576001600160a01b0383166000908152600360205260409020546004906121e190600190613d25565b815481106121f1576121f1613cf9565b60009182526020918290206040805160a081018252600590930290910180546001600160a01b031683526001810154938301939093526002830154908201526003820154606082015260049091015460808201529050612281565b6040518060a00160405280846001600160a01b0316815260200160008152602001600081526020014281526020014281525090505b61228961381c565b6001600160a01b03841660009081526001602052604090205415612356576001600160a01b03841660009081526001602081905260408220546002916122ce91613d25565b815481106122de576122de613cf9565b600091825260208083206040805160608082018352600390950290920180546001600160a01b0390811684526001820154811684860152600290910154928201928352815160a081018352908b1681529151928201929092529081019290925260195490820152601a546080820152915061238e9050565b506040805160a0810182526001600160a01b0385168152600060208201819052918101919091526019546060820152601a5460808201525b6001600160a01b038416600090815260056020526040902054156123fe576001600160a01b0384166000908152600560205260409020546006906123d490600190613d25565b815481106123e4576123e4613cf9565b600091825260209091206001600290920201015460408201525b6000604051806101000160405280306001600160a01b03168152602001600f600101805461242b90613e79565b80601f016020809104026020016040519081016040528092919081815260200182805461245790613e79565b80156124a45780601f10612479576101008083540402835291602001916124a4565b820191906000526020600020905b81548152906001019060200180831161248757829003601f168201915b5050509183525050600a546020820181905260185460408301819052116060820152600160808201526011805460a0909201916124e090613e79565b80601f016020809104026020016040519081016040528092919081815260200182805461250c90613e79565b80156125595780601f1061252e57610100808354040283529160200191612559565b820191906000526020600020905b81548152906001019060200180831161253c57829003601f168201915b50505050508152602001600f600301805461257390613e79565b80601f016020809104026020016040519081016040528092919081815260200182805461259f90613e79565b80156125ec5780601f106125c1576101008083540402835291602001916125ec565b820191906000526020600020905b8154815290600101906020018083116125cf57829003601f168201915b505050505081525090506040518060c0016040528082815260200183815260200184815260200161261b6129cf565b8152601b546020820152600b5460409091015295945050505050565b60008060005b60085481101561268b576008818154811061265a5761265a613cf9565b906000526020600020906005020160020154826126779190613d7d565b91508061268381613d95565b91505061263d565b50606461269c620f4240601e613d3c565b6126a69190613d5b565b1015919050565b600f8054601080546001600160a01b0390921692916126cb90613e79565b80601f01602080910402602001604051908101604052809291908181526020018280546126f790613e79565b80156127445780601f1061271957610100808354040283529160200191612744565b820191906000526020600020905b81548152906001019060200180831161272757829003601f168201915b50505050509080600201805461275990613e79565b80601f016020809104026020016040519081016040528092919081815260200182805461278590613e79565b80156127d25780601f106127a7576101008083540402835291602001916127d2565b820191906000526020600020905b8154815290600101906020018083116127b557829003601f168201915b5050505050908060030180546127e790613e79565b80601f016020809104026020016040519081016040528092919081815260200182805461281390613e79565b80156128605780601f1061283557610100808354040283529160200191612860565b820191906000526020600020905b81548152906001019060200180831161284357829003601f168201915b50505050509080600401549080600501549080600601549080600701549080600801549080600901549080600a01549080600b01549080600c015490508d565b60608260006128af8483613d7d565b60065490915081116128c157806128c5565b6006545b905060008282116128d75760006128e1565b6128e18383613d25565b905060008167ffffffffffffffff8111156128fe576128fe613e63565b60405190808252806020026020018201604052801561294357816020015b604080518082019091526000808252602082015281526020019060019003908161291c5790505b509050835b83811015611908576006818154811061296357612963613cf9565b60009182526020918290206040805180820190915260029092020180546001600160a01b031682526001015491810191909152826129a18784613d25565b815181106129b1576129b1613cf9565b602002602001018190525080806129c790613d95565b915050612948565b606060006129db6135a3565b6008549091506000906129ef906003613d7d565b67ffffffffffffffff811115612a0757612a07613e63565b604051908082528060200260200182016040528015612a7357816020015b612a606040518060a0016040528060006001600160a01b03168152602001606081526020016000815260200160008152602001600081525090565b815260200190600190039081612a255790505b5090506040518060a0016040528060016001600160a01b03168152602001604051806040016040528060098152602001684c697175696469747960b81b8152508152602001838152602001600f600401548152602001600081525081600081518110612ae157612ae1613cf9565b60200260200101819052506040518060a0016040528060026001600160a01b031681526020016040518060400160405280600781526020016650726573616c6560c81b8152508152602001838152602001600f600501548152602001600f6006015481525081600181518110612b5957612b59613cf9565b60200260200101819052506040518060a0016040528060036001600160a01b0316815260200160405180604001604052806009815260200168526566657272616c7360b81b8152508152602001620f424060095485612bb89190613d3c565b612bc29190613d5b565b81526016546020820152601754604090910152815182906002908110612bea57612bea613cf9565b602002602001018190525060005b600854811015612d315760088181548110612c1557612c15613cf9565b60009182526020918290206040805160a0810190915260059092020180546001600160a01b031682526001810180549293919291840191612c5590613e79565b80601f0160208091040260200160405190810160405280929190818152602001828054612c8190613e79565b8015612cce5780601f10612ca357610100808354040283529160200191612cce565b820191906000526020600020905b815481529060010190602001808311612cb157829003601f168201915b50505050508152602001600282015481526020016003820154815260200160048201548152505082826003612d039190613d7d565b81518110612d1357612d13613cf9565b60200260200101819052508080612d2990613d95565b915050612bf8565b5092915050565b6000546001600160a01b03163314612d625760405162461bcd60e51b81526004016105e190613db0565b6001600160a01b038116612dc75760405162461bcd60e51b815260206004820152602660248201527f4f776e61626c653a206e6577206f776e657220697320746865207a65726f206160448201526564647265737360d01b60648201526084016105e1565b600080546040516001600160a01b03808516939216917f8be0079c531659141344cd1fd0a4f28419497f9722a3daafe3b4186f6b6457e091a3600080546001600160a01b0319166001600160a01b0392909216919091179055565b6001600160a01b0381166000908152600360205260408120548190600490612e4c90600190613d25565b81548110612e5c57612e5c613cf9565b60009182526020918290206040805160a081018252600590930290910180546001600160a01b031683526001810154938301939093526002830154908201526003820154606082018190526004909201546080820152915042111580612ec9575080608001518160600151115b15612ed75750600092915050565b80608001514210612efd5780604001518160200151612ef69190613d25565b9392505050565b600081606001518260800151612f139190613d25565b6060830151612f229042613d25565b8360200151612f319190613d3c565b612f3b9190613d5b565b905081604001518111612f52575060009392505050565b6040820151612f619082613d25565b949350505050565b33600090815260036020526040812054600490612f8890600190613d25565b81548110612f9857612f98613cf9565b60009182526020918290206040805160a081018252600590930290910180546001600160a01b03168352600181015493830193909352600283015490820152600382015460608201819052600490920154608082015291504210156130495760405162461bcd60e51b815260206004820152602160248201527f50523a204c6f636b656420706572696f64206973206e6f74206f7665722079656044820152601d60fa1b60648201526084016105e1565b80602001518160400151106130b25760405162461bcd60e51b815260206004820152602960248201527f50523a20596f75206861766520616c7265616479207265636569766564203130604482015268302520746f6b656e7360b81b60648201526084016105e1565b60006130bd33612e22565b90506000811161312b5760405162461bcd60e51b815260206004820152603360248201527f50523a20546865726520617265203020746f6b656e7320617661696c61626c6560448201527220746f20636c61696d207269676874206e6f7760681b60648201526084016105e1565b33600090815260036020526040902054819060049061314c90600190613d25565b8154811061315c5761315c613cf9565b9060005260206000209060050201600201600082825461317c9190613d7d565b9091555050600f54604051630bb9ff5d60e01b8152336004820152602481018390526001600160a01b0390911690630bb9ff5d90604401600060405180830381600087803b1580156131cd57600080fd5b505af11580156131e1573d6000803e3d6000fd5b505050505050565b6000805482919060ff60a01b1916600160a01b83600781111561320e5761320e613bc6565b02179055507f551dc40198cc79684bb69e4931dba4ac16e4598792ee1c0a5000aeea366d7bb6816040516132429190613bdc565b60405180910390a150565b6001600160a01b03831660009081526001602052604090205461335157604080516060810182526001600160a01b03808616808352858216602080850191825284860187815260028054600181810183556000838152985160039092027f405787fa12a823e0f2b7631cc41b3ba8828b3321ca811111fa75cd3aa3bb5ace81018054938a166001600160a01b031994851617905595517f405787fa12a823e0f2b7631cc41b3ba8828b3321ca811111fa75cd3aa3bb5acf870180549190991692169190911790965590517f405787fa12a823e0f2b7631cc41b3ba8828b3321ca811111fa75cd3aa3bb5ad0909301929092559054918452919091529190205561344e565b6001600160a01b0383166000908152600160208190526040822054839160029161337b9190613d25565b8154811061338b5761338b613cf9565b9060005260206000209060030201600201546133a79190613d7d565b601a549091508111156133fc5760405162461bcd60e51b815260206004820152601f60248201527f50523a204d617820636170207065722077616c6c65742065786365656465640060448201526064016105e1565b6001600160a01b03841660009081526001602081905260409091205482916002916134279190613d25565b8154811061343757613437613cf9565b906000526020600020906003020160020181905550505b80600a60008282546134609190613d7d565b90915550610ac390508361363d565b6001600160a01b038216600090815260056020526040902054613536576040805180820182526001600160a01b03848116808352602080840186815260068054600181018255600082815296517ff652222313e28459528d920b65115c16c04f3efc82aaedc97be59f3f377c0d3f600290920291820180546001600160a01b031916919097161790955590517ff652222313e28459528d920b65115c16c04f3efc82aaedc97be59f3f377c0d40909401939093559154908352600590915291902055613596565b6001600160a01b038216600090815260056020526040902054819060069061356090600190613d25565b8154811061357057613570613cf9565b906000526020600020906002020160010160008282546135909190613d7d565b90915550505b61359f8261363d565b5050565b60008060005b6008548110156135f757600881815481106135c6576135c6613cf9565b906000526020600020906005020160020154826135e39190613d7d565b9150806135ef81613d95565b9150506135a9565b50600954613609620f42406002613d3c565b6136139190613d7d565b61362082620f4240613d25565b61362d90620f4240613d3c565b6136379190613d5b565b91505090565b6001600160a01b038116600090815260036020526040902054610e0e576040805160a0810182526001600160a01b03928316808252600060208084018281528486018381524260608701818152608088019182526004805460018101825581885298517f8a35acfbc15ff81a39ae7d344fd709f28e8600b4aa8c65c6b64bfe7fe36bd19b6005909a02998a0180546001600160a01b03191691909c1617909a5592517f8a35acfbc15ff81a39ae7d344fd709f28e8600b4aa8c65c6b64bfe7fe36bd19c88015590517f8a35acfbc15ff81a39ae7d344fd709f28e8600b4aa8c65c6b64bfe7fe36bd19d87015590517f8a35acfbc15ff81a39ae7d344fd709f28e8600b4aa8c65c6b64bfe7fe36bd19e860155517f8a35acfbc15ff81a39ae7d344fd709f28e8600b4aa8c65c6b64bfe7fe36bd19f9094019390935593549084526003909152912055565b6040518060c001604052806137e760405180610100016040528060006001600160a01b0316815260200160608152602001600081526020016000815260200160001515815260200160001515815260200160608152602001606081525090565b81526020016137f461381c565b815260200161380161381c565b81526020016060815260200160008152602001600081525090565b6040518060a0016040528060006001600160a01b03168152602001600081526020016000815260200160008152602001600081525090565b6000806040838503121561386757600080fd5b50508035926020909101359150565b60006020828403121561388857600080fd5b813567ffffffffffffffff81111561389f57600080fd5b82016101a08185031215612ef657600080fd5b6001600160a01b0381168114610e0e57600080fd5b6000602082840312156138d957600080fd5b8135612ef6816138b2565b6000602082840312156138f657600080fd5b5035919050565b602080825282518282018190526000919060409081850190868401855b8281101561395557815180516001600160a01b039081168652878201511687860152850151858501526060909301929085019060010161391a565b5091979650505050505050565b6000815180845260005b818110156139885760208185018101518683018201520161396c565b8181111561399a576000602083870101525b50601f01601f19169290920160200192915050565b600082825180855260208086019550808260051b84010181860160005b84811015613a3957858303601f19018952815180516001600160a01b031684528481015160a086860181905290613a0582870182613962565b60408481015190880152606080850151908801526080938401519390960192909252505097830197908301906001016139cc565b5090979650505050505050565b60208152600082516101c0806020850152613a6e6101e0850183516001600160a01b03169052565b6020820151610100610200860152613a8a6102e0860182613962565b9050604083015161022086015260608301516102408601526080830151613ab661026087018215159052565b5060a0830151151561028086015260c08301518582036101df199081016102a0880152613ae38383613962565b925060e0850151945080878403016102c08801525050613b038184613962565b9250506020850151613b49604086018280516001600160a01b03168252602080820151908301526040808201519083015260608082015190830152608090810151910152565b5060408581015180516001600160a01b031660e087015260208101516101008701529081015161012086015260608101516101408601526080810151610160860152506060850151848303601f1901610180860152613ba883826139af565b60808701516101a087015260a0909601519190940152509192915050565b634e487b7160e01b600052602160045260246000fd5b6020810160088310613bfe57634e487b7160e01b600052602160045260246000fd5b91905290565b6001600160a01b038e1681526101a060208201819052600090613c299083018f613962565b8281036040840152613c3b818f613962565b90508281036060840152613c4f818e613962565b608084019c909c52505060a081019890985260c088019690965260e087019490945261010086019290925261012085015261014084015261016083015261018090910152949350505050565b602080825282518282018190526000919060409081850190868401855b8281101561395557815180516001600160a01b03168552860151868501529284019290850190600101613cb8565b602081526000612ef660208301846139af565b634e487b7160e01b600052603260045260246000fd5b634e487b7160e01b600052601160045260246000fd5b600082821015613d3757613d37613d0f565b500390565b6000816000190483118215151615613d5657613d56613d0f565b500290565b600082613d7857634e487b7160e01b600052601260045260246000fd5b500490565b60008219821115613d9057613d90613d0f565b500190565b6000600019821415613da957613da9613d0f565b5060010190565b6020808252818101527f4f776e61626c653a2063616c6c6572206973206e6f7420746865206f776e6572604082015260600190565b600060208284031215613df757600080fd5b8151612ef6816138b2565b60008135613e0f816138b2565b92915050565b6000808335601e19843603018112613e2c57600080fd5b83018035915067ffffffffffffffff821115613e4757600080fd5b602001915036819003821315613e5c57600080fd5b9250929050565b634e487b7160e01b600052604160045260246000fd5b600181811c90821680613e8d57607f821691505b60208210811415613eae57634e487b7160e01b600052602260045260246000fd5b50919050565b601f821115610ac357600081815260208120601f850160051c81016020861015613edb5750805b601f850160051c820191505b818110156131e157828155600101613ee7565b67ffffffffffffffff831115613f1257613f12613e63565b613f2683613f208354613e79565b83613eb4565b6000601f841160018114613f5a5760008515613f425750838201355b600019600387901b1c1916600186901b17835561100c565b600083815260209020601f19861690835b82811015613f8b5786850135825560209485019460019092019101613f6b565b5086821015613fa85760001960f88860031b161c19848701351681555b505060018560011b0183555050505050565b613fe3613fc683613e02565b82546001600160a01b0319166001600160a01b0391909116178255565b613ff06020830183613e15565b613ffe818360018601613efa565b505061400d6040830183613e15565b61401b818360028601613efa565b505061402a6060830183613e15565b614038818360038601613efa565b50506080820135600482015560a0820135600582015560c0820135600682015560e0820135600782015561010082013560088201556101208201356009820155610140820135600a820155610160820135600b820155610180820135600c8201555050565b6000602082840312156140af57600080fd5b5051919050565b6000602082840312156140c857600080fd5b81518015158114612ef657600080fd5b600060a082018783526020878185015260a0604085015281875180845260c086019150828901935060005b818110156141285784516001600160a01b031683529383019391830191600101614103565b50506001600160a01b03969096166060850152505050608001529392505050565b60008060006060848603121561415e57600080fd5b835192506020840151915060408401519050925092509256fea26469706673582212201e434df6bf669b35451b200146fb9fd148642af2364ea87f5ba3b24d4c02d63c64736f6c634300080b00338be0079c531659141344cd1fd0a4f28419497f9722a3daafe3b4186f6b6457e0",
			"opcodes": "PUSH1 0x80 PUSH1 0x40 MSTORE PUSH2 0xC350 PUSH1 0x9 SSTORE CALLVALUE DUP1 ISZERO PUSH3 0x17 JUMPI PUSH1 0x0 DUP1 REVERT JUMPDEST POP PUSH1 0x40 MLOAD PUSH3 0x4C91 CODESIZE SUB DUP1 PUSH3 0x4C91 DUP4 CODECOPY DUP2 ADD PUSH1 0x40 DUP2 SWAP1 MSTORE PUSH3 0x3A SWAP2 PUSH3 0x85C JUMP JUMPDEST PUSH1 0x0 DUP1 SLOAD PUSH1 0x1 PUSH1 0x1 PUSH1 0xA0 SHL SUB NOT AND CALLER SWAP1 DUP2 OR DUP3 SSTORE PUSH1 0x40 MLOAD SWAP1 SWAP2 DUP3 SWAP2 PUSH1 0x0 DUP1 MLOAD PUSH1 0x20 PUSH3 0x4C71 DUP4 CODECOPY DUP2 MLOAD SWAP2 MSTORE SWAP1 DUP3 SWAP1 LOG3 POP PUSH1 0x0 DUP1 SLOAD PUSH1 0x1 PUSH1 0x1 PUSH1 0xA0 SHL SUB NOT AND PUSH1 0x1 PUSH1 0x1 PUSH1 0xA0 SHL SUB DUP6 AND SWAP1 DUP2 OR DUP3 SSTORE PUSH1 0x40 MLOAD SWAP1 SWAP2 SWAP1 PUSH1 0x0 DUP1 MLOAD PUSH1 0x20 PUSH3 0x4C71 DUP4 CODECOPY DUP2 MLOAD SWAP2 MSTORE SWAP1 DUP3 SWAP1 LOG3 PUSH1 0x0 JUMPDEST DUP3 MLOAD DUP2 LT ISZERO PUSH3 0xF0 JUMPI PUSH3 0xDB DUP4 DUP3 DUP2 MLOAD DUP2 LT PUSH3 0xC7 JUMPI PUSH3 0xC7 PUSH3 0x9D4 JUMP JUMPDEST PUSH1 0x20 MUL PUSH1 0x20 ADD ADD MLOAD PUSH3 0x1E8 PUSH1 0x20 SHL PUSH1 0x20 SHR JUMP JUMPDEST DUP1 PUSH3 0xE7 DUP2 PUSH3 0xA00 JUMP JUMPDEST SWAP2 POP POP PUSH3 0xA4 JUMP JUMPDEST POP DUP1 MLOAD PUSH1 0xF DUP1 SLOAD PUSH1 0x1 PUSH1 0x1 PUSH1 0xA0 SHL SUB NOT AND PUSH1 0x1 PUSH1 0x1 PUSH1 0xA0 SHL SUB SWAP1 SWAP3 AND SWAP2 SWAP1 SWAP2 OR DUP2 SSTORE PUSH1 0x20 DUP1 DUP4 ADD MLOAD DUP1 MLOAD DUP5 SWAP4 SWAP3 PUSH3 0x12E SWAP3 PUSH1 0x10 SWAP3 SWAP2 ADD SWAP1 PUSH3 0x553 JUMP JUMPDEST POP PUSH1 0x40 DUP3 ADD MLOAD DUP1 MLOAD PUSH3 0x14C SWAP2 PUSH1 0x2 DUP5 ADD SWAP2 PUSH1 0x20 SWAP1 SWAP2 ADD SWAP1 PUSH3 0x553 JUMP JUMPDEST POP PUSH1 0x60 DUP3 ADD MLOAD DUP1 MLOAD PUSH3 0x16A SWAP2 PUSH1 0x3 DUP5 ADD SWAP2 PUSH1 0x20 SWAP1 SWAP2 ADD SWAP1 PUSH3 0x553 JUMP JUMPDEST POP PUSH1 0x80 DUP3 ADD MLOAD PUSH1 0x4 DUP3 ADD SSTORE PUSH1 0xA0 DUP3 ADD MLOAD PUSH1 0x5 DUP3 ADD SSTORE PUSH1 0xC0 DUP3 ADD MLOAD PUSH1 0x6 DUP3 ADD SSTORE PUSH1 0xE0 DUP3 ADD MLOAD PUSH1 0x7 DUP3 ADD SSTORE PUSH2 0x100 DUP3 ADD MLOAD PUSH1 0x8 DUP3 ADD SSTORE PUSH2 0x120 DUP3 ADD MLOAD PUSH1 0x9 DUP3 ADD SSTORE PUSH2 0x140 DUP3 ADD MLOAD PUSH1 0xA DUP3 ADD SSTORE PUSH2 0x160 DUP3 ADD MLOAD PUSH1 0xB DUP1 DUP4 ADD SWAP2 SWAP1 SWAP2 SSTORE PUSH2 0x180 SWAP1 SWAP3 ADD MLOAD PUSH1 0xC SWAP1 SWAP2 ADD SSTORE TIMESTAMP SWAP1 SSTORE PUSH3 0x1DF PUSH1 0x0 PUSH3 0x39F JUMP JUMPDEST POP POP POP PUSH3 0xAB4 JUMP JUMPDEST DUP1 MLOAD PUSH1 0x1 PUSH1 0x1 PUSH1 0xA0 SHL SUB AND PUSH1 0x0 SWAP1 DUP2 MSTORE PUSH1 0x7 PUSH1 0x20 MSTORE PUSH1 0x40 SWAP1 KECCAK256 SLOAD PUSH3 0x2E0 JUMPI PUSH1 0x8 DUP1 SLOAD PUSH1 0x1 DUP2 ADD DUP3 SSTORE PUSH1 0x0 SWAP2 SWAP1 SWAP2 MSTORE DUP2 MLOAD PUSH32 0xF3F7A9FE364FAAB93B216DA50A3214154F22A0A2B415B23A84C8169E8B636EE3 PUSH1 0x5 SWAP1 SWAP3 MUL SWAP2 DUP3 ADD DUP1 SLOAD PUSH1 0x1 PUSH1 0x1 PUSH1 0xA0 SHL SUB NOT AND PUSH1 0x1 PUSH1 0x1 PUSH1 0xA0 SHL SUB SWAP1 SWAP3 AND SWAP2 SWAP1 SWAP2 OR DUP2 SSTORE PUSH1 0x20 DUP1 DUP5 ADD MLOAD DUP1 MLOAD DUP6 SWAP5 PUSH3 0x29B SWAP4 PUSH32 0xF3F7A9FE364FAAB93B216DA50A3214154F22A0A2B415B23A84C8169E8B636EE4 SWAP1 SWAP2 ADD SWAP3 ADD SWAP1 PUSH3 0x553 JUMP JUMPDEST POP PUSH1 0x40 DUP3 DUP2 ADD MLOAD PUSH1 0x2 DUP4 ADD SSTORE PUSH1 0x60 DUP4 ADD MLOAD PUSH1 0x3 DUP4 ADD SSTORE PUSH1 0x80 SWAP1 SWAP3 ADD MLOAD PUSH1 0x4 SWAP1 SWAP2 ADD SSTORE PUSH1 0x8 SLOAD DUP3 MLOAD PUSH1 0x1 PUSH1 0x1 PUSH1 0xA0 SHL SUB AND PUSH1 0x0 SWAP1 DUP2 MSTORE PUSH1 0x7 PUSH1 0x20 MSTORE SWAP2 SWAP1 SWAP2 KECCAK256 SSTORE PUSH3 0x38F JUMP JUMPDEST DUP1 MLOAD PUSH1 0x1 PUSH1 0x1 PUSH1 0xA0 SHL SUB AND PUSH1 0x0 SWAP1 DUP2 MSTORE PUSH1 0x7 PUSH1 0x20 MSTORE PUSH1 0x40 SWAP1 KECCAK256 SLOAD DUP2 SWAP1 PUSH1 0x8 SWAP1 PUSH3 0x30D SWAP1 PUSH1 0x1 SWAP1 PUSH3 0xA1E JUMP JUMPDEST DUP2 SLOAD DUP2 LT PUSH3 0x320 JUMPI PUSH3 0x320 PUSH3 0x9D4 JUMP JUMPDEST PUSH1 0x0 SWAP2 DUP3 MSTORE PUSH1 0x20 SWAP2 DUP3 SWAP1 KECCAK256 DUP4 MLOAD PUSH1 0x5 SWAP3 SWAP1 SWAP3 MUL ADD DUP1 SLOAD PUSH1 0x1 PUSH1 0x1 PUSH1 0xA0 SHL SUB NOT AND PUSH1 0x1 PUSH1 0x1 PUSH1 0xA0 SHL SUB SWAP1 SWAP3 AND SWAP2 SWAP1 SWAP2 OR DUP2 SSTORE DUP3 DUP3 ADD MLOAD DUP1 MLOAD SWAP2 SWAP3 PUSH3 0x36D SWAP3 PUSH1 0x1 DUP6 ADD SWAP3 SWAP1 SWAP2 ADD SWAP1 PUSH3 0x553 JUMP JUMPDEST POP PUSH1 0x40 DUP3 ADD MLOAD PUSH1 0x2 DUP3 ADD SSTORE PUSH1 0x60 DUP3 ADD MLOAD PUSH1 0x3 DUP3 ADD SSTORE PUSH1 0x80 SWAP1 SWAP2 ADD MLOAD PUSH1 0x4 SWAP1 SWAP2 ADD SSTORE JUMPDEST DUP1 MLOAD PUSH3 0x39C SWAP1 PUSH3 0x408 JUMP JUMPDEST POP JUMP JUMPDEST PUSH1 0x0 DUP1 SLOAD DUP3 SWAP2 SWAP1 PUSH1 0xFF PUSH1 0xA0 SHL NOT AND PUSH1 0x1 PUSH1 0xA0 SHL DUP4 PUSH1 0x7 DUP2 GT ISZERO PUSH3 0x3C7 JUMPI PUSH3 0x3C7 PUSH3 0xA38 JUMP JUMPDEST MUL OR SWAP1 SSTORE POP PUSH32 0x551DC40198CC79684BB69E4931DBA4AC16E4598792EE1C0A5000AEEA366D7BB6 DUP2 PUSH1 0x40 MLOAD PUSH3 0x3FD SWAP2 SWAP1 PUSH3 0xA4E JUMP JUMPDEST PUSH1 0x40 MLOAD DUP1 SWAP2 SUB SWAP1 LOG1 POP JUMP JUMPDEST PUSH1 0x1 PUSH1 0x1 PUSH1 0xA0 SHL SUB DUP2 AND PUSH1 0x0 SWAP1 DUP2 MSTORE PUSH1 0x3 PUSH1 0x20 MSTORE PUSH1 0x40 SWAP1 KECCAK256 SLOAD PUSH3 0x39C JUMPI PUSH1 0x40 DUP1 MLOAD PUSH1 0xA0 DUP2 ADD DUP3 MSTORE PUSH1 0x1 PUSH1 0x1 PUSH1 0xA0 SHL SUB SWAP3 DUP4 AND DUP1 DUP3 MSTORE PUSH1 0x0 PUSH1 0x20 DUP1 DUP5 ADD DUP3 DUP2 MSTORE DUP5 DUP7 ADD DUP4 DUP2 MSTORE TIMESTAMP PUSH1 0x60 DUP8 ADD DUP2 DUP2 MSTORE PUSH1 0x80 DUP9 ADD SWAP2 DUP3 MSTORE PUSH1 0x4 DUP1 SLOAD PUSH1 0x1 DUP2 ADD DUP3 SSTORE DUP2 DUP9 MSTORE SWAP9 MLOAD PUSH32 0x8A35ACFBC15FF81A39AE7D344FD709F28E8600B4AA8C65C6B64BFE7FE36BD19B PUSH1 0x5 SWAP1 SWAP11 MUL SWAP10 DUP11 ADD DUP1 SLOAD PUSH1 0x1 PUSH1 0x1 PUSH1 0xA0 SHL SUB NOT AND SWAP2 SWAP1 SWAP13 AND OR SWAP1 SWAP11 SSTORE SWAP3 MLOAD PUSH32 0x8A35ACFBC15FF81A39AE7D344FD709F28E8600B4AA8C65C6B64BFE7FE36BD19C DUP9 ADD SSTORE SWAP1 MLOAD PUSH32 0x8A35ACFBC15FF81A39AE7D344FD709F28E8600B4AA8C65C6B64BFE7FE36BD19D DUP8 ADD SSTORE SWAP1 MLOAD PUSH32 0x8A35ACFBC15FF81A39AE7D344FD709F28E8600B4AA8C65C6B64BFE7FE36BD19E DUP7 ADD SSTORE MLOAD PUSH32 0x8A35ACFBC15FF81A39AE7D344FD709F28E8600B4AA8C65C6B64BFE7FE36BD19F SWAP1 SWAP5 ADD SWAP4 SWAP1 SWAP4 SSTORE SWAP4 SLOAD SWAP1 DUP5 MSTORE PUSH1 0x3 SWAP1 SWAP2 MSTORE SWAP2 KECCAK256 SSTORE JUMP JUMPDEST DUP3 DUP1 SLOAD PUSH3 0x561 SWAP1 PUSH3 0xA77 JUMP JUMPDEST SWAP1 PUSH1 0x0 MSTORE PUSH1 0x20 PUSH1 0x0 KECCAK256 SWAP1 PUSH1 0x1F ADD PUSH1 0x20 SWAP1 DIV DUP2 ADD SWAP3 DUP3 PUSH3 0x585 JUMPI PUSH1 0x0 DUP6 SSTORE PUSH3 0x5D0 JUMP JUMPDEST DUP3 PUSH1 0x1F LT PUSH3 0x5A0 JUMPI DUP1 MLOAD PUSH1 0xFF NOT AND DUP4 DUP1 ADD OR DUP6 SSTORE PUSH3 0x5D0 JUMP JUMPDEST DUP3 DUP1 ADD PUSH1 0x1 ADD DUP6 SSTORE DUP3 ISZERO PUSH3 0x5D0 JUMPI SWAP2 DUP3 ADD JUMPDEST DUP3 DUP2 GT ISZERO PUSH3 0x5D0 JUMPI DUP3 MLOAD DUP3 SSTORE SWAP2 PUSH1 0x20 ADD SWAP2 SWAP1 PUSH1 0x1 ADD SWAP1 PUSH3 0x5B3 JUMP JUMPDEST POP PUSH3 0x5DE SWAP3 SWAP2 POP PUSH3 0x5E2 JUMP JUMPDEST POP SWAP1 JUMP JUMPDEST JUMPDEST DUP1 DUP3 GT ISZERO PUSH3 0x5DE JUMPI PUSH1 0x0 DUP2 SSTORE PUSH1 0x1 ADD PUSH3 0x5E3 JUMP JUMPDEST DUP1 MLOAD PUSH1 0x1 PUSH1 0x1 PUSH1 0xA0 SHL SUB DUP2 AND DUP2 EQ PUSH3 0x611 JUMPI PUSH1 0x0 DUP1 REVERT JUMPDEST SWAP2 SWAP1 POP JUMP JUMPDEST PUSH4 0x4E487B71 PUSH1 0xE0 SHL PUSH1 0x0 MSTORE PUSH1 0x41 PUSH1 0x4 MSTORE PUSH1 0x24 PUSH1 0x0 REVERT JUMPDEST PUSH1 0x40 MLOAD PUSH2 0x1A0 DUP2 ADD PUSH1 0x1 PUSH1 0x1 PUSH1 0x40 SHL SUB DUP2 GT DUP3 DUP3 LT OR ISZERO PUSH3 0x652 JUMPI PUSH3 0x652 PUSH3 0x616 JUMP JUMPDEST PUSH1 0x40 MSTORE SWAP1 JUMP JUMPDEST PUSH1 0x40 MLOAD PUSH1 0xA0 DUP2 ADD PUSH1 0x1 PUSH1 0x1 PUSH1 0x40 SHL SUB DUP2 GT DUP3 DUP3 LT OR ISZERO PUSH3 0x652 JUMPI PUSH3 0x652 PUSH3 0x616 JUMP JUMPDEST PUSH1 0x40 MLOAD PUSH1 0x1F DUP3 ADD PUSH1 0x1F NOT AND DUP2 ADD PUSH1 0x1 PUSH1 0x1 PUSH1 0x40 SHL SUB DUP2 GT DUP3 DUP3 LT OR ISZERO PUSH3 0x6A8 JUMPI PUSH3 0x6A8 PUSH3 0x616 JUMP JUMPDEST PUSH1 0x40 MSTORE SWAP2 SWAP1 POP JUMP JUMPDEST PUSH1 0x0 DUP3 PUSH1 0x1F DUP4 ADD SLT PUSH3 0x6C2 JUMPI PUSH1 0x0 DUP1 REVERT JUMPDEST DUP2 MLOAD PUSH1 0x1 PUSH1 0x1 PUSH1 0x40 SHL SUB DUP2 GT ISZERO PUSH3 0x6DE JUMPI PUSH3 0x6DE PUSH3 0x616 JUMP JUMPDEST PUSH1 0x20 PUSH3 0x6F4 PUSH1 0x1F DUP4 ADD PUSH1 0x1F NOT AND DUP3 ADD PUSH3 0x67D JUMP JUMPDEST DUP3 DUP2 MSTORE DUP6 DUP3 DUP5 DUP8 ADD ADD GT ISZERO PUSH3 0x709 JUMPI PUSH1 0x0 DUP1 REVERT JUMPDEST PUSH1 0x0 JUMPDEST DUP4 DUP2 LT ISZERO PUSH3 0x729 JUMPI DUP6 DUP2 ADD DUP4 ADD MLOAD DUP3 DUP3 ADD DUP5 ADD MSTORE DUP3 ADD PUSH3 0x70C JUMP JUMPDEST DUP4 DUP2 GT ISZERO PUSH3 0x73B JUMPI PUSH1 0x0 DUP4 DUP6 DUP5 ADD ADD MSTORE JUMPDEST POP SWAP6 SWAP5 POP POP POP POP POP JUMP JUMPDEST PUSH1 0x0 PUSH2 0x1A0 DUP3 DUP5 SUB SLT ISZERO PUSH3 0x759 JUMPI PUSH1 0x0 DUP1 REVERT JUMPDEST PUSH3 0x763 PUSH3 0x62C JUMP JUMPDEST SWAP1 POP PUSH3 0x770 DUP3 PUSH3 0x5F9 JUMP JUMPDEST DUP2 MSTORE PUSH1 0x20 DUP3 ADD MLOAD PUSH1 0x1 PUSH1 0x1 PUSH1 0x40 SHL SUB DUP1 DUP3 GT ISZERO PUSH3 0x78D JUMPI PUSH1 0x0 DUP1 REVERT JUMPDEST PUSH3 0x79B DUP6 DUP4 DUP7 ADD PUSH3 0x6B0 JUMP JUMPDEST PUSH1 0x20 DUP5 ADD MSTORE PUSH1 0x40 DUP5 ADD MLOAD SWAP2 POP DUP1 DUP3 GT ISZERO PUSH3 0x7B5 JUMPI PUSH1 0x0 DUP1 REVERT JUMPDEST PUSH3 0x7C3 DUP6 DUP4 DUP7 ADD PUSH3 0x6B0 JUMP JUMPDEST PUSH1 0x40 DUP5 ADD MSTORE PUSH1 0x60 DUP5 ADD MLOAD SWAP2 POP DUP1 DUP3 GT ISZERO PUSH3 0x7DD JUMPI PUSH1 0x0 DUP1 REVERT JUMPDEST POP PUSH3 0x7EC DUP5 DUP3 DUP6 ADD PUSH3 0x6B0 JUMP JUMPDEST PUSH1 0x60 DUP4 ADD MSTORE POP PUSH1 0x80 DUP3 ADD MLOAD PUSH1 0x80 DUP3 ADD MSTORE PUSH1 0xA0 DUP3 ADD MLOAD PUSH1 0xA0 DUP3 ADD MSTORE PUSH1 0xC0 DUP3 ADD MLOAD PUSH1 0xC0 DUP3 ADD MSTORE PUSH1 0xE0 DUP3 ADD MLOAD PUSH1 0xE0 DUP3 ADD MSTORE PUSH2 0x100 DUP1 DUP4 ADD MLOAD DUP2 DUP4 ADD MSTORE POP PUSH2 0x120 DUP1 DUP4 ADD MLOAD DUP2 DUP4 ADD MSTORE POP PUSH2 0x140 DUP1 DUP4 ADD MLOAD DUP2 DUP4 ADD MSTORE POP PUSH2 0x160 DUP1 DUP4 ADD MLOAD DUP2 DUP4 ADD MSTORE POP PUSH2 0x180 DUP1 DUP4 ADD MLOAD DUP2 DUP4 ADD MSTORE POP SWAP3 SWAP2 POP POP JUMP JUMPDEST PUSH1 0x0 DUP1 PUSH1 0x0 PUSH1 0x60 DUP5 DUP7 SUB SLT ISZERO PUSH3 0x872 JUMPI PUSH1 0x0 DUP1 REVERT JUMPDEST PUSH3 0x87D DUP5 PUSH3 0x5F9 JUMP JUMPDEST PUSH1 0x20 DUP6 DUP2 ADD MLOAD SWAP2 SWAP5 POP SWAP1 PUSH1 0x1 PUSH1 0x1 PUSH1 0x40 SHL SUB DUP1 DUP3 GT ISZERO PUSH3 0x89D JUMPI PUSH1 0x0 DUP1 REVERT JUMPDEST DUP2 DUP8 ADD SWAP2 POP DUP8 PUSH1 0x1F DUP4 ADD SLT PUSH3 0x8B2 JUMPI PUSH1 0x0 DUP1 REVERT JUMPDEST DUP2 MLOAD DUP2 DUP2 GT ISZERO PUSH3 0x8C7 JUMPI PUSH3 0x8C7 PUSH3 0x616 JUMP JUMPDEST DUP1 PUSH1 0x5 SHL PUSH3 0x8D8 DUP6 DUP3 ADD PUSH3 0x67D JUMP JUMPDEST SWAP2 DUP3 MSTORE DUP4 DUP2 ADD DUP6 ADD SWAP2 DUP6 DUP2 ADD SWAP1 DUP12 DUP5 GT ISZERO PUSH3 0x8F3 JUMPI PUSH1 0x0 DUP1 REVERT JUMPDEST DUP7 DUP7 ADD SWAP3 POP JUMPDEST DUP4 DUP4 LT ISZERO PUSH3 0x99F JUMPI DUP3 MLOAD DUP6 DUP2 GT ISZERO PUSH3 0x912 JUMPI PUSH1 0x0 DUP1 REVERT JUMPDEST DUP7 ADD PUSH1 0xA0 DUP2 DUP15 SUB PUSH1 0x1F NOT ADD SLT ISZERO PUSH3 0x929 JUMPI PUSH1 0x0 DUP1 REVERT JUMPDEST PUSH3 0x933 PUSH3 0x658 JUMP JUMPDEST PUSH3 0x940 DUP10 DUP4 ADD PUSH3 0x5F9 JUMP JUMPDEST DUP2 MSTORE PUSH1 0x40 DUP3 ADD MLOAD DUP8 DUP2 GT ISZERO PUSH3 0x956 JUMPI PUSH1 0x0 DUP1 DUP2 REVERT JUMPDEST PUSH3 0x966 DUP16 DUP12 DUP4 DUP7 ADD ADD PUSH3 0x6B0 JUMP JUMPDEST DUP11 DUP4 ADD MSTORE POP PUSH1 0x60 DUP3 ADD MLOAD PUSH1 0x40 DUP3 ADD MSTORE PUSH1 0x80 DUP1 DUP4 ADD MLOAD PUSH1 0x60 DUP4 ADD MSTORE PUSH1 0xA0 DUP4 ADD MLOAD DUP2 DUP4 ADD MSTORE POP DUP1 DUP5 MSTORE POP POP DUP7 DUP3 ADD SWAP2 POP DUP7 DUP4 ADD SWAP3 POP PUSH3 0x8F9 JUMP JUMPDEST PUSH1 0x40 DUP12 ADD MLOAD SWAP1 SWAP9 POP SWAP6 POP POP POP POP DUP1 DUP4 GT ISZERO PUSH3 0x9BA JUMPI PUSH1 0x0 DUP1 REVERT JUMPDEST POP POP PUSH3 0x9CA DUP7 DUP3 DUP8 ADD PUSH3 0x745 JUMP JUMPDEST SWAP2 POP POP SWAP3 POP SWAP3 POP SWAP3 JUMP JUMPDEST PUSH4 0x4E487B71 PUSH1 0xE0 SHL PUSH1 0x0 MSTORE PUSH1 0x32 PUSH1 0x4 MSTORE PUSH1 0x24 PUSH1 0x0 REVERT JUMPDEST PUSH4 0x4E487B71 PUSH1 0xE0 SHL PUSH1 0x0 MSTORE PUSH1 0x11 PUSH1 0x4 MSTORE PUSH1 0x24 PUSH1 0x0 REVERT JUMPDEST PUSH1 0x0 PUSH1 0x0 NOT DUP3 EQ ISZERO PUSH3 0xA17 JUMPI PUSH3 0xA17 PUSH3 0x9EA JUMP JUMPDEST POP PUSH1 0x1 ADD SWAP1 JUMP JUMPDEST PUSH1 0x0 DUP3 DUP3 LT ISZERO PUSH3 0xA33 JUMPI PUSH3 0xA33 PUSH3 0x9EA JUMP JUMPDEST POP SUB SWAP1 JUMP JUMPDEST PUSH4 0x4E487B71 PUSH1 0xE0 SHL PUSH1 0x0 MSTORE PUSH1 0x21 PUSH1 0x4 MSTORE PUSH1 0x24 PUSH1 0x0 REVERT JUMPDEST PUSH1 0x20 DUP2 ADD PUSH1 0x8 DUP4 LT PUSH3 0xA71 JUMPI PUSH4 0x4E487B71 PUSH1 0xE0 SHL PUSH1 0x0 MSTORE PUSH1 0x21 PUSH1 0x4 MSTORE PUSH1 0x24 PUSH1 0x0 REVERT JUMPDEST SWAP2 SWAP1 MSTORE SWAP1 JUMP JUMPDEST PUSH1 0x1 DUP2 DUP2 SHR SWAP1 DUP3 AND DUP1 PUSH3 0xA8C JUMPI PUSH1 0x7F DUP3 AND SWAP2 POP JUMPDEST PUSH1 0x20 DUP3 LT DUP2 EQ ISZERO PUSH3 0xAAE JUMPI PUSH4 0x4E487B71 PUSH1 0xE0 SHL PUSH1 0x0 MSTORE PUSH1 0x22 PUSH1 0x4 MSTORE PUSH1 0x24 PUSH1 0x0 REVERT JUMPDEST POP SWAP2 SWAP1 POP JUMP JUMPDEST PUSH2 0x41AD DUP1 PUSH3 0xAC4 PUSH1 0x0 CODECOPY PUSH1 0x0 RETURN INVALID PUSH1 0x80 PUSH1 0x40 MSTORE PUSH1 0x4 CALLDATASIZE LT PUSH2 0x1BB JUMPI PUSH1 0x0 CALLDATALOAD PUSH1 0xE0 SHR DUP1 PUSH4 0x8DA5CB5B GT PUSH2 0xEC JUMPI DUP1 PUSH4 0xDD74075C GT PUSH2 0x8A JUMPI DUP1 PUSH4 0xEE2923D9 GT PUSH2 0x64 JUMPI DUP1 PUSH4 0xEE2923D9 EQ PUSH2 0x4E5 JUMPI DUP1 PUSH4 0xF2FDE38B EQ PUSH2 0x507 JUMPI DUP1 PUSH4 0xF9C75699 EQ PUSH2 0x527 JUMPI DUP1 PUSH4 0xFEDDA89C EQ PUSH2 0x547 JUMPI PUSH1 0x0 DUP1 REVERT JUMPDEST DUP1 PUSH4 0xDD74075C EQ PUSH2 0x474 JUMPI DUP1 PUSH4 0xE06174E4 EQ PUSH2 0x48A JUMPI DUP1 PUSH4 0xE70D8FDC EQ PUSH2 0x4B8 JUMPI PUSH1 0x0 DUP1 REVERT JUMPDEST DUP1 PUSH4 0x9B214950 GT PUSH2 0xC6 JUMPI DUP1 PUSH4 0x9B214950 EQ PUSH2 0x3EF JUMPI DUP1 PUSH4 0xB33D600A EQ PUSH2 0x404 JUMPI DUP1 PUSH4 0xC19D93FB EQ PUSH2 0x431 JUMPI DUP1 PUSH4 0xCA71D9F4 EQ PUSH2 0x45F JUMPI PUSH1 0x0 DUP1 REVERT JUMPDEST DUP1 PUSH4 0x8DA5CB5B EQ PUSH2 0x392 JUMPI DUP1 PUSH4 0x9248B04A EQ PUSH2 0x3BA JUMPI DUP1 PUSH4 0x99F96C51 EQ PUSH2 0x3CF JUMPI PUSH1 0x0 DUP1 REVERT JUMPDEST DUP1 PUSH4 0x2FFAC82C GT PUSH2 0x159 JUMPI DUP1 PUSH4 0x5F6577A8 GT PUSH2 0x133 JUMPI DUP1 PUSH4 0x5F6577A8 EQ PUSH2 0x316 JUMPI DUP1 PUSH4 0x70F1B331 EQ PUSH2 0x32B JUMPI DUP1 PUSH4 0x715018A6 EQ PUSH2 0x350 JUMPI DUP1 PUSH4 0x818A36A1 EQ PUSH2 0x365 JUMPI PUSH1 0x0 DUP1 REVERT JUMPDEST DUP1 PUSH4 0x2FFAC82C EQ PUSH2 0x28F JUMPI DUP1 PUSH4 0x39FC1128 EQ PUSH2 0x2E1 JUMPI DUP1 PUSH4 0x42F60CB5 EQ PUSH2 0x301 JUMPI PUSH1 0x0 DUP1 REVERT JUMPDEST DUP1 PUSH4 0x3F9C793 GT PUSH2 0x195 JUMPI DUP1 PUSH4 0x3F9C793 EQ PUSH2 0x21E JUMPI DUP1 PUSH4 0xB293A31 EQ PUSH2 0x231 JUMPI DUP1 PUSH4 0x1CA8B6CB EQ PUSH2 0x246 JUMPI DUP1 PUSH4 0x1F96B8AB EQ PUSH2 0x26F JUMPI PUSH1 0x0 DUP1 REVERT JUMPDEST DUP1 PUSH4 0x10BD419 EQ PUSH2 0x1C7 JUMPI DUP1 PUSH4 0x155ECAF EQ PUSH2 0x1E9 JUMPI DUP1 PUSH4 0x346920D EQ PUSH2 0x1FE JUMPI PUSH1 0x0 DUP1 REVERT JUMPDEST CALLDATASIZE PUSH2 0x1C2 JUMPI STOP JUMPDEST PUSH1 0x0 DUP1 REVERT JUMPDEST CALLVALUE DUP1 ISZERO PUSH2 0x1D3 JUMPI PUSH1 0x0 DUP1 REVERT JUMPDEST POP PUSH2 0x1E7 PUSH2 0x1E2 CALLDATASIZE PUSH1 0x4 PUSH2 0x3854 JUMP JUMPDEST PUSH2 0x55C JUMP JUMPDEST STOP JUMPDEST CALLVALUE DUP1 ISZERO PUSH2 0x1F5 JUMPI PUSH1 0x0 DUP1 REVERT JUMPDEST POP PUSH2 0x1E7 PUSH2 0x804 JUMP JUMPDEST CALLVALUE DUP1 ISZERO PUSH2 0x20A JUMPI PUSH1 0x0 DUP1 REVERT JUMPDEST POP PUSH2 0x1E7 PUSH2 0x219 CALLDATASIZE PUSH1 0x4 PUSH2 0x3876 JUMP JUMPDEST PUSH2 0xA8C JUMP JUMPDEST PUSH2 0x1E7 PUSH2 0x22C CALLDATASIZE PUSH1 0x4 PUSH2 0x38C7 JUMP JUMPDEST PUSH2 0xAC8 JUMP JUMPDEST CALLVALUE DUP1 ISZERO PUSH2 0x23D JUMPI PUSH1 0x0 DUP1 REVERT JUMPDEST POP PUSH2 0x1E7 PUSH2 0xE11 JUMP JUMPDEST CALLVALUE DUP1 ISZERO PUSH2 0x252 JUMPI PUSH1 0x0 DUP1 REVERT JUMPDEST POP PUSH2 0x25C PUSH1 0xD SLOAD DUP2 JUMP JUMPDEST PUSH1 0x40 MLOAD SWAP1 DUP2 MSTORE PUSH1 0x20 ADD JUMPDEST PUSH1 0x40 MLOAD DUP1 SWAP2 SUB SWAP1 RETURN JUMPDEST CALLVALUE DUP1 ISZERO PUSH2 0x27B JUMPI PUSH1 0x0 DUP1 REVERT JUMPDEST POP PUSH2 0x1E7 PUSH2 0x28A CALLDATASIZE PUSH1 0x4 PUSH2 0x3854 JUMP JUMPDEST PUSH2 0xE29 JUMP JUMPDEST CALLVALUE DUP1 ISZERO PUSH2 0x29B JUMPI PUSH1 0x0 DUP1 REVERT JUMPDEST POP PUSH2 0x2AF PUSH2 0x2AA CALLDATASIZE PUSH1 0x4 PUSH2 0x38E4 JUMP JUMPDEST PUSH2 0x1013 JUMP JUMPDEST PUSH1 0x40 DUP1 MLOAD PUSH1 0x1 PUSH1 0x1 PUSH1 0xA0 SHL SUB SWAP1 SWAP7 AND DUP7 MSTORE PUSH1 0x20 DUP7 ADD SWAP5 SWAP1 SWAP5 MSTORE SWAP3 DUP5 ADD SWAP2 SWAP1 SWAP2 MSTORE PUSH1 0x60 DUP4 ADD MSTORE PUSH1 0x80 DUP3 ADD MSTORE PUSH1 0xA0 ADD PUSH2 0x266 JUMP JUMPDEST CALLVALUE DUP1 ISZERO PUSH2 0x2ED JUMPI PUSH1 0x0 DUP1 REVERT JUMPDEST POP PUSH2 0x1E7 PUSH2 0x2FC CALLDATASIZE PUSH1 0x4 PUSH2 0x38E4 JUMP JUMPDEST PUSH2 0x105E JUMP JUMPDEST CALLVALUE DUP1 ISZERO PUSH2 0x30D JUMPI PUSH1 0x0 DUP1 REVERT JUMPDEST POP PUSH2 0x1E7 PUSH2 0x10A8 JUMP JUMPDEST CALLVALUE DUP1 ISZERO PUSH2 0x322 JUMPI PUSH1 0x0 DUP1 REVERT JUMPDEST POP PUSH2 0x1E7 PUSH2 0x114E JUMP JUMPDEST CALLVALUE DUP1 ISZERO PUSH2 0x337 JUMPI PUSH1 0x0 DUP1 REVERT JUMPDEST POP PUSH2 0x340 PUSH2 0x1604 JUMP JUMPDEST PUSH1 0x40 MLOAD SWAP1 ISZERO ISZERO DUP2 MSTORE PUSH1 0x20 ADD PUSH2 0x266 JUMP JUMPDEST CALLVALUE DUP1 ISZERO PUSH2 0x35C JUMPI PUSH1 0x0 DUP1 REVERT JUMPDEST POP PUSH2 0x1E7 PUSH2 0x174C JUMP JUMPDEST CALLVALUE DUP1 ISZERO PUSH2 0x371 JUMPI PUSH1 0x0 DUP1 REVERT JUMPDEST POP PUSH2 0x385 PUSH2 0x380 CALLDATASIZE PUSH1 0x4 PUSH2 0x3854 JUMP JUMPDEST PUSH2 0x17C0 JUMP JUMPDEST PUSH1 0x40 MLOAD PUSH2 0x266 SWAP2 SWAP1 PUSH2 0x38FD JUMP JUMPDEST CALLVALUE DUP1 ISZERO PUSH2 0x39E JUMPI PUSH1 0x0 DUP1 REVERT JUMPDEST POP PUSH1 0x0 SLOAD PUSH1 0x40 MLOAD PUSH1 0x1 PUSH1 0x1 PUSH1 0xA0 SHL SUB SWAP1 SWAP2 AND DUP2 MSTORE PUSH1 0x20 ADD PUSH2 0x266 JUMP JUMPDEST CALLVALUE DUP1 ISZERO PUSH2 0x3C6 JUMPI PUSH1 0x0 DUP1 REVERT JUMPDEST POP PUSH2 0x1E7 PUSH2 0x1913 JUMP JUMPDEST CALLVALUE DUP1 ISZERO PUSH2 0x3DB JUMPI PUSH1 0x0 DUP1 REVERT JUMPDEST POP PUSH2 0x1E7 PUSH2 0x3EA CALLDATASIZE PUSH1 0x4 PUSH2 0x3854 JUMP JUMPDEST PUSH2 0x1B9B JUMP JUMPDEST CALLVALUE DUP1 ISZERO PUSH2 0x3FB JUMPI PUSH1 0x0 DUP1 REVERT JUMPDEST POP PUSH2 0x1E7 PUSH2 0x1E38 JUMP JUMPDEST CALLVALUE DUP1 ISZERO PUSH2 0x410 JUMPI PUSH1 0x0 DUP1 REVERT JUMPDEST POP PUSH2 0x424 PUSH2 0x41F CALLDATASIZE PUSH1 0x4 PUSH2 0x38C7 JUMP JUMPDEST PUSH2 0x218B JUMP JUMPDEST PUSH1 0x40 MLOAD PUSH2 0x266 SWAP2 SWAP1 PUSH2 0x3A46 JUMP JUMPDEST CALLVALUE DUP1 ISZERO PUSH2 0x43D JUMPI PUSH1 0x0 DUP1 REVERT JUMPDEST POP PUSH1 0x0 SLOAD PUSH2 0x452 SWAP1 PUSH1 0x1 PUSH1 0xA0 SHL SWAP1 DIV PUSH1 0xFF AND DUP2 JUMP JUMPDEST PUSH1 0x40 MLOAD PUSH2 0x266 SWAP2 SWAP1 PUSH2 0x3BDC JUMP JUMPDEST CALLVALUE DUP1 ISZERO PUSH2 0x46B JUMPI PUSH1 0x0 DUP1 REVERT JUMPDEST POP PUSH2 0x340 PUSH2 0x2637 JUMP JUMPDEST CALLVALUE DUP1 ISZERO PUSH2 0x480 JUMPI PUSH1 0x0 DUP1 REVERT JUMPDEST POP PUSH2 0x25C PUSH1 0xC SLOAD DUP2 JUMP JUMPDEST CALLVALUE DUP1 ISZERO PUSH2 0x496 JUMPI PUSH1 0x0 DUP1 REVERT JUMPDEST POP PUSH2 0x49F PUSH2 0x26AD JUMP JUMPDEST PUSH1 0x40 MLOAD PUSH2 0x266 SWAP14 SWAP13 SWAP12 SWAP11 SWAP10 SWAP9 SWAP8 SWAP7 SWAP6 SWAP5 SWAP4 SWAP3 SWAP2 SWAP1 PUSH2 0x3C04 JUMP JUMPDEST CALLVALUE DUP1 ISZERO PUSH2 0x4C4 JUMPI PUSH1 0x0 DUP1 REVERT JUMPDEST POP PUSH2 0x4D8 PUSH2 0x4D3 CALLDATASIZE PUSH1 0x4 PUSH2 0x3854 JUMP JUMPDEST PUSH2 0x28A0 JUMP JUMPDEST PUSH1 0x40 MLOAD PUSH2 0x266 SWAP2 SWAP1 PUSH2 0x3C9B JUMP JUMPDEST CALLVALUE DUP1 ISZERO PUSH2 0x4F1 JUMPI PUSH1 0x0 DUP1 REVERT JUMPDEST POP PUSH2 0x4FA PUSH2 0x29CF JUMP JUMPDEST PUSH1 0x40 MLOAD PUSH2 0x266 SWAP2 SWAP1 PUSH2 0x3CE6 JUMP JUMPDEST CALLVALUE DUP1 ISZERO PUSH2 0x513 JUMPI PUSH1 0x0 DUP1 REVERT JUMPDEST POP PUSH2 0x1E7 PUSH2 0x522 CALLDATASIZE PUSH1 0x4 PUSH2 0x38C7 JUMP JUMPDEST PUSH2 0x2D38 JUMP JUMPDEST CALLVALUE DUP1 ISZERO PUSH2 0x533 JUMPI PUSH1 0x0 DUP1 REVERT JUMPDEST POP PUSH2 0x25C PUSH2 0x542 CALLDATASIZE PUSH1 0x4 PUSH2 0x38C7 JUMP JUMPDEST PUSH2 0x2E22 JUMP JUMPDEST CALLVALUE DUP1 ISZERO PUSH2 0x553 JUMPI PUSH1 0x0 DUP1 REVERT JUMPDEST POP PUSH2 0x1E7 PUSH2 0x2F69 JUMP JUMPDEST PUSH1 0x4 PUSH1 0x0 SLOAD PUSH1 0x1 PUSH1 0xA0 SHL SWAP1 DIV PUSH1 0xFF AND PUSH1 0x7 DUP2 GT ISZERO PUSH2 0x57C JUMPI PUSH2 0x57C PUSH2 0x3BC6 JUMP JUMPDEST EQ PUSH2 0x5EA JUMPI PUSH1 0x40 MLOAD PUSH3 0x461BCD PUSH1 0xE5 SHL DUP2 MSTORE PUSH1 0x20 PUSH1 0x4 DUP3 ADD MSTORE PUSH1 0x33 PUSH1 0x24 DUP3 ADD MSTORE PUSH32 0x50523A20496E766573746F727320746F6B656E73206861766520616C72656164 PUSH1 0x44 DUP3 ADD MSTORE PUSH19 0x79206265656E20646973747269627574656421 PUSH1 0x68 SHL PUSH1 0x64 DUP3 ADD MSTORE PUSH1 0x84 ADD JUMPDEST PUSH1 0x40 MLOAD DUP1 SWAP2 SUB SWAP1 REVERT JUMPDEST PUSH1 0x0 PUSH2 0x5F6 DUP4 DUP4 PUSH2 0x17C0 JUMP JUMPDEST SWAP1 POP PUSH1 0x0 JUMPDEST DUP2 MLOAD DUP2 LT ISZERO PUSH2 0x7FE JUMPI PUSH1 0x4 PUSH1 0x1 PUSH1 0x3 PUSH1 0x0 DUP6 DUP6 DUP2 MLOAD DUP2 LT PUSH2 0x61E JUMPI PUSH2 0x61E PUSH2 0x3CF9 JUMP JUMPDEST PUSH1 0x20 MUL PUSH1 0x20 ADD ADD MLOAD PUSH1 0x0 ADD MLOAD PUSH1 0x1 PUSH1 0x1 PUSH1 0xA0 SHL SUB AND PUSH1 0x1 PUSH1 0x1 PUSH1 0xA0 SHL SUB AND DUP2 MSTORE PUSH1 0x20 ADD SWAP1 DUP2 MSTORE PUSH1 0x20 ADD PUSH1 0x0 KECCAK256 SLOAD PUSH2 0x655 SWAP2 SWAP1 PUSH2 0x3D25 JUMP JUMPDEST DUP2 SLOAD DUP2 LT PUSH2 0x665 JUMPI PUSH2 0x665 PUSH2 0x3CF9 JUMP JUMPDEST SWAP1 PUSH1 0x0 MSTORE PUSH1 0x20 PUSH1 0x0 KECCAK256 SWAP1 PUSH1 0x5 MUL ADD PUSH1 0x1 ADD SLOAD PUSH1 0x0 EQ ISZERO PUSH2 0x7EC JUMPI PUSH1 0x40 MLOAD DUP1 PUSH1 0xA0 ADD PUSH1 0x40 MSTORE DUP1 DUP4 DUP4 DUP2 MLOAD DUP2 LT PUSH2 0x69C JUMPI PUSH2 0x69C PUSH2 0x3CF9 JUMP JUMPDEST PUSH1 0x20 MUL PUSH1 0x20 ADD ADD MLOAD PUSH1 0x0 ADD MLOAD PUSH1 0x1 PUSH1 0x1 PUSH1 0xA0 SHL SUB AND DUP2 MSTORE PUSH1 0x20 ADD PUSH1 0xA SLOAD DUP5 DUP5 DUP2 MLOAD DUP2 LT PUSH2 0x6CB JUMPI PUSH2 0x6CB PUSH2 0x3CF9 JUMP JUMPDEST PUSH1 0x20 MUL PUSH1 0x20 ADD ADD MLOAD PUSH1 0x40 ADD MLOAD PUSH1 0xC SLOAD PUSH2 0x6E4 SWAP2 SWAP1 PUSH2 0x3D3C JUMP JUMPDEST PUSH2 0x6EE SWAP2 SWAP1 PUSH2 0x3D5B JUMP JUMPDEST DUP2 MSTORE PUSH1 0x20 ADD PUSH1 0x0 DUP2 MSTORE PUSH1 0x20 ADD PUSH1 0xF PUSH1 0x5 ADD SLOAD TIMESTAMP PUSH2 0x70B SWAP2 SWAP1 PUSH2 0x3D7D JUMP JUMPDEST DUP2 MSTORE PUSH1 0x15 SLOAD PUSH1 0x14 SLOAD PUSH1 0x20 SWAP1 SWAP3 ADD SWAP2 PUSH2 0x723 SWAP1 TIMESTAMP PUSH2 0x3D7D JUMP JUMPDEST PUSH2 0x72D SWAP2 SWAP1 PUSH2 0x3D7D JUMP JUMPDEST DUP2 MSTORE POP PUSH1 0x4 PUSH1 0x1 PUSH1 0x3 PUSH1 0x0 DUP7 DUP7 DUP2 MLOAD DUP2 LT PUSH2 0x74A JUMPI PUSH2 0x74A PUSH2 0x3CF9 JUMP JUMPDEST PUSH1 0x20 MUL PUSH1 0x20 ADD ADD MLOAD PUSH1 0x0 ADD MLOAD PUSH1 0x1 PUSH1 0x1 PUSH1 0xA0 SHL SUB AND PUSH1 0x1 PUSH1 0x1 PUSH1 0xA0 SHL SUB AND DUP2 MSTORE PUSH1 0x20 ADD SWAP1 DUP2 MSTORE PUSH1 0x20 ADD PUSH1 0x0 KECCAK256 SLOAD PUSH2 0x781 SWAP2 SWAP1 PUSH2 0x3D25 JUMP JUMPDEST DUP2 SLOAD DUP2 LT PUSH2 0x791 JUMPI PUSH2 0x791 PUSH2 0x3CF9 JUMP JUMPDEST PUSH1 0x0 SWAP2 DUP3 MSTORE PUSH1 0x20 SWAP2 DUP3 SWAP1 KECCAK256 DUP4 MLOAD PUSH1 0x5 SWAP3 SWAP1 SWAP3 MUL ADD DUP1 SLOAD PUSH1 0x1 PUSH1 0x1 PUSH1 0xA0 SHL SUB NOT AND PUSH1 0x1 PUSH1 0x1 PUSH1 0xA0 SHL SUB SWAP1 SWAP3 AND SWAP2 SWAP1 SWAP2 OR DUP2 SSTORE SWAP1 DUP3 ADD MLOAD PUSH1 0x1 DUP3 ADD SSTORE PUSH1 0x40 DUP3 ADD MLOAD PUSH1 0x2 DUP3 ADD SSTORE PUSH1 0x60 DUP3 ADD MLOAD PUSH1 0x3 DUP3 ADD SSTORE PUSH1 0x80 SWAP1 SWAP2 ADD MLOAD PUSH1 0x4 SWAP1 SWAP2 ADD SSTORE JUMPDEST DUP1 PUSH2 0x7F6 DUP2 PUSH2 0x3D95 JUMP JUMPDEST SWAP2 POP POP PUSH2 0x5FB JUMP JUMPDEST POP POP POP POP JUMP JUMPDEST PUSH1 0x0 SLOAD PUSH1 0x1 PUSH1 0x1 PUSH1 0xA0 SHL SUB AND CALLER EQ PUSH2 0x82E JUMPI PUSH1 0x40 MLOAD PUSH3 0x461BCD PUSH1 0xE5 SHL DUP2 MSTORE PUSH1 0x4 ADD PUSH2 0x5E1 SWAP1 PUSH2 0x3DB0 JUMP JUMPDEST PUSH1 0x1 PUSH1 0x0 SLOAD PUSH1 0x1 PUSH1 0xA0 SHL SWAP1 DIV PUSH1 0xFF AND PUSH1 0x7 DUP2 GT ISZERO PUSH2 0x84E JUMPI PUSH2 0x84E PUSH2 0x3BC6 JUMP JUMPDEST EQ PUSH2 0x89B JUMPI PUSH1 0x40 MLOAD PUSH3 0x461BCD PUSH1 0xE5 SHL DUP2 MSTORE PUSH1 0x20 PUSH1 0x4 DUP3 ADD MSTORE PUSH1 0x1C PUSH1 0x24 DUP3 ADD MSTORE PUSH32 0x50523A205061697220697320616C726561647920637265617465642100000000 PUSH1 0x44 DUP3 ADD MSTORE PUSH1 0x64 ADD PUSH2 0x5E1 JUMP JUMPDEST PUSH1 0xF SLOAD PUSH1 0x1 PUSH1 0x1 PUSH1 0xA0 SHL SUB AND PUSH2 0x906 JUMPI PUSH1 0x40 MLOAD PUSH3 0x461BCD PUSH1 0xE5 SHL DUP2 MSTORE PUSH1 0x20 PUSH1 0x4 DUP3 ADD MSTORE PUSH1 0x2A PUSH1 0x24 DUP3 ADD MSTORE PUSH32 0x50523A20546F6B656E206164647265737320776173206E6F7420696E69746961 PUSH1 0x44 DUP3 ADD MSTORE PUSH10 0x6C697A65642079657421 PUSH1 0xB0 SHL PUSH1 0x64 DUP3 ADD MSTORE PUSH1 0x84 ADD PUSH2 0x5E1 JUMP JUMPDEST PUSH1 0xF SLOAD PUSH1 0x40 MLOAD PUSH4 0xE6A43905 PUSH1 0xE0 SHL DUP2 MSTORE PUSH1 0x1 PUSH1 0x1 PUSH1 0xA0 SHL SUB SWAP1 SWAP2 AND PUSH1 0x4 DUP3 ADD MSTORE PUSH20 0xDBD240D23A5C3041B0F26BDD8888DEDE6F58A12A PUSH1 0x24 DUP3 ADD MSTORE PUSH20 0x5C69BEE701EF814A2B6A3EDD4B1652CB9CC5AA6F SWAP1 PUSH4 0xE6A43905 SWAP1 PUSH1 0x44 ADD PUSH1 0x20 PUSH1 0x40 MLOAD DUP1 DUP4 SUB DUP2 DUP7 GAS STATICCALL ISZERO DUP1 ISZERO PUSH2 0x97C JUMPI RETURNDATASIZE PUSH1 0x0 DUP1 RETURNDATACOPY RETURNDATASIZE PUSH1 0x0 REVERT JUMPDEST POP POP POP POP PUSH1 0x40 MLOAD RETURNDATASIZE PUSH1 0x1F NOT PUSH1 0x1F DUP3 ADD AND DUP3 ADD DUP1 PUSH1 0x40 MSTORE POP DUP2 ADD SWAP1 PUSH2 0x9A0 SWAP2 SWAP1 PUSH2 0x3DE5 JUMP JUMPDEST PUSH1 0xE DUP1 SLOAD PUSH1 0x1 PUSH1 0x1 PUSH1 0xA0 SHL SUB NOT AND PUSH1 0x1 PUSH1 0x1 PUSH1 0xA0 SHL SUB SWAP3 SWAP1 SWAP3 AND SWAP2 DUP3 OR SWAP1 SSTORE PUSH2 0xA80 JUMPI PUSH1 0xF SLOAD PUSH1 0x40 MLOAD PUSH4 0x64E329CB PUSH1 0xE1 SHL DUP2 MSTORE PUSH1 0x1 PUSH1 0x1 PUSH1 0xA0 SHL SUB SWAP1 SWAP2 AND PUSH1 0x4 DUP3 ADD MSTORE PUSH20 0xDBD240D23A5C3041B0F26BDD8888DEDE6F58A12A PUSH1 0x24 DUP3 ADD MSTORE PUSH20 0x5C69BEE701EF814A2B6A3EDD4B1652CB9CC5AA6F SWAP1 PUSH4 0xC9C65396 SWAP1 PUSH1 0x44 ADD PUSH1 0x20 PUSH1 0x40 MLOAD DUP1 DUP4 SUB DUP2 PUSH1 0x0 DUP8 GAS CALL ISZERO DUP1 ISZERO PUSH2 0xA3B JUMPI RETURNDATASIZE PUSH1 0x0 DUP1 RETURNDATACOPY RETURNDATASIZE PUSH1 0x0 REVERT JUMPDEST POP POP POP POP PUSH1 0x40 MLOAD RETURNDATASIZE PUSH1 0x1F NOT PUSH1 0x1F DUP3 ADD AND DUP3 ADD DUP1 PUSH1 0x40 MSTORE POP DUP2 ADD SWAP1 PUSH2 0xA5F SWAP2 SWAP1 PUSH2 0x3DE5 JUMP JUMPDEST PUSH1 0xE DUP1 SLOAD PUSH1 0x1 PUSH1 0x1 PUSH1 0xA0 SHL SUB NOT AND PUSH1 0x1 PUSH1 0x1 PUSH1 0xA0 SHL SUB SWAP3 SWAP1 SWAP3 AND SWAP2 SWAP1 SWAP2 OR SWAP1 SSTORE JUMPDEST PUSH2 0xA8A PUSH1 0x3 PUSH2 0x31E9 JUMP JUMPDEST JUMP JUMPDEST PUSH1 0x0 SLOAD PUSH1 0x1 PUSH1 0x1 PUSH1 0xA0 SHL SUB AND CALLER EQ PUSH2 0xAB6 JUMPI PUSH1 0x40 MLOAD PUSH3 0x461BCD PUSH1 0xE5 SHL DUP2 MSTORE PUSH1 0x4 ADD PUSH2 0x5E1 SWAP1 PUSH2 0x3DB0 JUMP JUMPDEST DUP1 PUSH1 0xF PUSH2 0xAC3 DUP3 DUP3 PUSH2 0x3FBA JUMP JUMPDEST POP POP POP JUMP JUMPDEST PUSH1 0x0 DUP1 SLOAD PUSH1 0x1 PUSH1 0xA0 SHL SWAP1 DIV PUSH1 0xFF AND PUSH1 0x7 DUP2 GT ISZERO PUSH2 0xAE7 JUMPI PUSH2 0xAE7 PUSH2 0x3BC6 JUMP JUMPDEST EQ PUSH2 0xB45 JUMPI PUSH1 0x40 MLOAD PUSH3 0x461BCD PUSH1 0xE5 SHL DUP2 MSTORE PUSH1 0x20 PUSH1 0x4 DUP3 ADD MSTORE PUSH1 0x28 PUSH1 0x24 DUP3 ADD MSTORE PUSH32 0x50523A20416363657074696E67207061796D656E747320686173206265656E20 PUSH1 0x44 DUP3 ADD MSTORE PUSH8 0x73746F7070656421 PUSH1 0xC0 SHL PUSH1 0x64 DUP3 ADD MSTORE PUSH1 0x84 ADD PUSH2 0x5E1 JUMP JUMPDEST PUSH1 0x18 SLOAD PUSH1 0xA SLOAD GT ISZERO PUSH2 0xB90 JUMPI PUSH1 0x40 MLOAD PUSH3 0x461BCD PUSH1 0xE5 SHL DUP2 MSTORE PUSH1 0x20 PUSH1 0x4 DUP3 ADD MSTORE PUSH1 0x14 PUSH1 0x24 DUP3 ADD MSTORE PUSH20 0x50523A204D617820636170207265616368656421 PUSH1 0x60 SHL PUSH1 0x44 DUP3 ADD MSTORE PUSH1 0x64 ADD PUSH2 0x5E1 JUMP JUMPDEST PUSH1 0x19 SLOAD CALLVALUE LT ISZERO PUSH2 0xBF0 JUMPI PUSH1 0x40 MLOAD PUSH3 0x461BCD PUSH1 0xE5 SHL DUP2 MSTORE PUSH1 0x20 PUSH1 0x4 DUP3 ADD MSTORE PUSH1 0x25 PUSH1 0x24 DUP3 ADD MSTORE PUSH32 0x50523A20416D6F756E742069732062656C6F77206D696E696D756D207065726D PUSH1 0x44 DUP3 ADD MSTORE PUSH5 0x1A5D1D1959 PUSH1 0xDA SHL PUSH1 0x64 DUP3 ADD MSTORE PUSH1 0x84 ADD PUSH2 0x5E1 JUMP JUMPDEST PUSH1 0x1A SLOAD CALLVALUE GT ISZERO PUSH2 0xC50 JUMPI PUSH1 0x40 MLOAD PUSH3 0x461BCD PUSH1 0xE5 SHL DUP2 MSTORE PUSH1 0x20 PUSH1 0x4 DUP3 ADD MSTORE PUSH1 0x25 PUSH1 0x24 DUP3 ADD MSTORE PUSH32 0x50523A20416D6F756E742069732061626F7665206D6178696D756D207065726D PUSH1 0x44 DUP3 ADD MSTORE PUSH5 0x1A5D1D1959 PUSH1 0xDA SHL PUSH1 0x64 DUP3 ADD MSTORE PUSH1 0x84 ADD PUSH2 0x5E1 JUMP JUMPDEST CALLER PUSH1 0x0 SWAP1 DUP2 MSTORE PUSH1 0x7 PUSH1 0x20 MSTORE PUSH1 0x40 SWAP1 KECCAK256 SLOAD ISZERO PUSH2 0xCB7 JUMPI PUSH1 0x40 MLOAD PUSH3 0x461BCD PUSH1 0xE5 SHL DUP2 MSTORE PUSH1 0x20 PUSH1 0x4 DUP3 ADD MSTORE PUSH1 0x21 PUSH1 0x24 DUP3 ADD MSTORE PUSH32 0x50523A205465616D206973206E6F7420616C6C6F77656420746F20696E766573 PUSH1 0x44 DUP3 ADD MSTORE PUSH1 0x1D PUSH1 0xFA SHL PUSH1 0x64 DUP3 ADD MSTORE PUSH1 0x84 ADD PUSH2 0x5E1 JUMP JUMPDEST CALLER PUSH1 0x0 SWAP1 DUP2 MSTORE PUSH1 0x5 PUSH1 0x20 MSTORE PUSH1 0x40 SWAP1 KECCAK256 SLOAD ISZERO PUSH2 0xD3A JUMPI PUSH1 0x40 MLOAD PUSH3 0x461BCD PUSH1 0xE5 SHL DUP2 MSTORE PUSH1 0x20 PUSH1 0x4 DUP3 ADD MSTORE PUSH1 0x38 PUSH1 0x24 DUP3 ADD MSTORE PUSH32 0x50523A20496E76657374696E6720666F72206163746976652072656665727261 PUSH1 0x44 DUP3 ADD MSTORE PUSH32 0x6C2061646472657373657320697320666F7262696464656E0000000000000000 PUSH1 0x64 DUP3 ADD MSTORE PUSH1 0x84 ADD PUSH2 0x5E1 JUMP JUMPDEST CALLER PUSH1 0x1 PUSH1 0x1 PUSH1 0xA0 SHL SUB DUP3 AND EQ ISZERO PUSH2 0xDB9 JUMPI PUSH1 0x40 MLOAD PUSH3 0x461BCD PUSH1 0xE5 SHL DUP2 MSTORE PUSH1 0x20 PUSH1 0x4 DUP3 ADD MSTORE PUSH1 0x3E PUSH1 0x24 DUP3 ADD MSTORE PUSH32 0x50523A2053656C662D7265662069736E277420616C6C6F7765642E20506C6561 PUSH1 0x44 DUP3 ADD MSTORE PUSH32 0x73652075736520646966666572656E7420726566657272616C206C696E6B0000 PUSH1 0x64 DUP3 ADD MSTORE PUSH1 0x84 ADD PUSH2 0x5E1 JUMP JUMPDEST PUSH1 0x1 PUSH1 0x1 PUSH1 0xA0 SHL SUB DUP2 AND PUSH2 0xDDE JUMPI POP PUSH20 0xC427A912E0B19F082840A0045E430DE5B8CB1F65 JUMPDEST PUSH2 0xDE9 CALLER DUP3 CALLVALUE PUSH2 0x324D JUMP JUMPDEST PUSH2 0xE0E DUP2 PUSH3 0xF4240 PUSH1 0x9 SLOAD CALLVALUE PUSH2 0xDFF SWAP2 SWAP1 PUSH2 0x3D3C JUMP JUMPDEST PUSH2 0xE09 SWAP2 SWAP1 PUSH2 0x3D5B JUMP JUMPDEST PUSH2 0x346F JUMP JUMPDEST POP JUMP JUMPDEST PUSH2 0xE19 PUSH2 0x10A8 JUMP JUMPDEST PUSH2 0xE21 PUSH2 0x804 JUMP JUMPDEST PUSH2 0xA8A PUSH2 0x114E JUMP JUMPDEST PUSH1 0x0 SLOAD PUSH1 0x1 PUSH1 0x1 PUSH1 0xA0 SHL SUB AND CALLER EQ PUSH2 0xE53 JUMPI PUSH1 0x40 MLOAD PUSH3 0x461BCD PUSH1 0xE5 SHL DUP2 MSTORE PUSH1 0x4 ADD PUSH2 0x5E1 SWAP1 PUSH2 0x3DB0 JUMP JUMPDEST PUSH2 0xE5D PUSH1 0x7 PUSH2 0x31E9 JUMP JUMPDEST PUSH1 0x40 MLOAD PUSH4 0x70A08231 PUSH1 0xE0 SHL DUP2 MSTORE ADDRESS PUSH1 0x4 DUP3 ADD MSTORE PUSH1 0x0 SWAP1 PUSH20 0xD0A1E359811322D97991E03F863A0C30C2CF029C SWAP1 PUSH4 0x70A08231 SWAP1 PUSH1 0x24 ADD PUSH1 0x20 PUSH1 0x40 MLOAD DUP1 DUP4 SUB DUP2 DUP7 GAS STATICCALL ISZERO DUP1 ISZERO PUSH2 0xEAF JUMPI RETURNDATASIZE PUSH1 0x0 DUP1 RETURNDATACOPY RETURNDATASIZE PUSH1 0x0 REVERT JUMPDEST POP POP POP POP PUSH1 0x40 MLOAD RETURNDATASIZE PUSH1 0x1F NOT PUSH1 0x1F DUP3 ADD AND DUP3 ADD DUP1 PUSH1 0x40 MSTORE POP DUP2 ADD SWAP1 PUSH2 0xED3 SWAP2 SWAP1 PUSH2 0x409D JUMP JUMPDEST SWAP1 POP DUP1 ISZERO PUSH2 0xF41 JUMPI PUSH1 0x40 MLOAD PUSH4 0x2E1A7D4D PUSH1 0xE0 SHL DUP2 MSTORE PUSH1 0x4 DUP2 ADD DUP3 SWAP1 MSTORE PUSH20 0xD0A1E359811322D97991E03F863A0C30C2CF029C SWAP1 PUSH4 0x2E1A7D4D SWAP1 PUSH1 0x24 ADD PUSH1 0x0 PUSH1 0x40 MLOAD DUP1 DUP4 SUB DUP2 PUSH1 0x0 DUP8 DUP1 EXTCODESIZE ISZERO DUP1 ISZERO PUSH2 0xF28 JUMPI PUSH1 0x0 DUP1 REVERT JUMPDEST POP GAS CALL ISZERO DUP1 ISZERO PUSH2 0xF3C JUMPI RETURNDATASIZE PUSH1 0x0 DUP1 RETURNDATACOPY RETURNDATASIZE PUSH1 0x0 REVERT JUMPDEST POP POP POP POP JUMPDEST PUSH1 0x0 PUSH2 0xF4D DUP5 DUP5 PUSH2 0x17C0 JUMP JUMPDEST SWAP1 POP PUSH1 0x0 JUMPDEST DUP2 MLOAD DUP2 LT ISZERO PUSH2 0x100C JUMPI PUSH1 0x0 DUP3 DUP3 DUP2 MLOAD DUP2 LT PUSH2 0xF6F JUMPI PUSH2 0xF6F PUSH2 0x3CF9 JUMP JUMPDEST PUSH1 0x20 MUL PUSH1 0x20 ADD ADD MLOAD PUSH1 0x40 ADD MLOAD SWAP1 POP PUSH1 0x0 DUP4 DUP4 DUP2 MLOAD DUP2 LT PUSH2 0xF91 JUMPI PUSH2 0xF91 PUSH2 0x3CF9 JUMP JUMPDEST PUSH1 0x20 MUL PUSH1 0x20 ADD ADD MLOAD PUSH1 0x40 ADD DUP2 DUP2 MSTORE POP POP DUP3 DUP3 DUP2 MLOAD DUP2 LT PUSH2 0xFB3 JUMPI PUSH2 0xFB3 PUSH2 0x3CF9 JUMP JUMPDEST PUSH1 0x20 MUL PUSH1 0x20 ADD ADD MLOAD PUSH1 0x0 ADD MLOAD PUSH1 0x1 PUSH1 0x1 PUSH1 0xA0 SHL SUB AND PUSH2 0x8FC DUP3 SWAP1 DUP2 ISZERO MUL SWAP1 PUSH1 0x40 MLOAD PUSH1 0x0 PUSH1 0x40 MLOAD DUP1 DUP4 SUB DUP2 DUP6 DUP9 DUP9 CALL SWAP4 POP POP POP POP ISZERO DUP1 ISZERO PUSH2 0xFF7 JUMPI RETURNDATASIZE PUSH1 0x0 DUP1 RETURNDATACOPY RETURNDATASIZE PUSH1 0x0 REVERT JUMPDEST POP POP DUP1 DUP1 PUSH2 0x1004 SWAP1 PUSH2 0x3D95 JUMP JUMPDEST SWAP2 POP POP PUSH2 0xF52 JUMP JUMPDEST POP POP POP POP POP JUMP JUMPDEST PUSH1 0x4 DUP2 DUP2 SLOAD DUP2 LT PUSH2 0x1023 JUMPI PUSH1 0x0 DUP1 REVERT JUMPDEST PUSH1 0x0 SWAP2 DUP3 MSTORE PUSH1 0x20 SWAP1 SWAP2 KECCAK256 PUSH1 0x5 SWAP1 SWAP2 MUL ADD DUP1 SLOAD PUSH1 0x1 DUP3 ADD SLOAD PUSH1 0x2 DUP4 ADD SLOAD PUSH1 0x3 DUP5 ADD SLOAD PUSH1 0x4 SWAP1 SWAP5 ADD SLOAD PUSH1 0x1 PUSH1 0x1 PUSH1 0xA0 SHL SUB SWAP1 SWAP4 AND SWAP5 POP SWAP1 SWAP3 SWAP1 SWAP2 DUP6 JUMP JUMPDEST PUSH2 0x1066 PUSH2 0x1E38 JUMP JUMPDEST PUSH2 0x106E PUSH2 0x1913 JUMP JUMPDEST DUP1 ISZERO PUSH2 0x107A JUMPI DUP1 PUSH2 0x107E JUMP JUMPDEST PUSH1 0x2 SLOAD JUMPDEST SWAP1 POP PUSH2 0x108B PUSH1 0x0 DUP3 PUSH2 0x55C JUMP JUMPDEST DUP1 ISZERO PUSH2 0x1097 JUMPI DUP1 PUSH2 0x109B JUMP JUMPDEST PUSH1 0x2 SLOAD JUMPDEST SWAP1 POP PUSH2 0xE0E PUSH1 0x0 DUP3 PUSH2 0x1B9B JUMP JUMPDEST PUSH1 0x0 SLOAD PUSH1 0x1 PUSH1 0x1 PUSH1 0xA0 SHL SUB AND CALLER EQ PUSH2 0x10D2 JUMPI PUSH1 0x40 MLOAD PUSH3 0x461BCD PUSH1 0xE5 SHL DUP2 MSTORE PUSH1 0x4 ADD PUSH2 0x5E1 SWAP1 PUSH2 0x3DB0 JUMP JUMPDEST PUSH1 0x0 DUP1 SLOAD PUSH1 0x1 PUSH1 0xA0 SHL SWAP1 DIV PUSH1 0xFF AND PUSH1 0x7 DUP2 GT ISZERO PUSH2 0x10F1 JUMPI PUSH2 0x10F1 PUSH2 0x3BC6 JUMP JUMPDEST EQ PUSH2 0x113E JUMPI PUSH1 0x40 MLOAD PUSH3 0x461BCD PUSH1 0xE5 SHL DUP2 MSTORE PUSH1 0x20 PUSH1 0x4 DUP3 ADD MSTORE PUSH1 0x1C PUSH1 0x24 DUP3 ADD MSTORE PUSH32 0x50523A20476F616C20697320616C726561647920726561636865642100000000 PUSH1 0x44 DUP3 ADD MSTORE PUSH1 0x64 ADD PUSH2 0x5E1 JUMP JUMPDEST PUSH1 0xA SLOAD PUSH1 0x18 SSTORE PUSH2 0xA8A PUSH1 0x1 PUSH2 0x31E9 JUMP JUMPDEST PUSH1 0x0 SLOAD PUSH1 0x1 PUSH1 0x1 PUSH1 0xA0 SHL SUB AND CALLER EQ PUSH2 0x1178 JUMPI PUSH1 0x40 MLOAD PUSH3 0x461BCD PUSH1 0xE5 SHL DUP2 MSTORE PUSH1 0x4 ADD PUSH2 0x5E1 SWAP1 PUSH2 0x3DB0 JUMP JUMPDEST PUSH1 0x3 PUSH1 0x0 SLOAD PUSH1 0x1 PUSH1 0xA0 SHL SWAP1 DIV PUSH1 0xFF AND PUSH1 0x7 DUP2 GT ISZERO PUSH2 0x1198 JUMPI PUSH2 0x1198 PUSH2 0x3BC6 JUMP JUMPDEST EQ PUSH2 0x11F7 JUMPI PUSH1 0x40 MLOAD PUSH3 0x461BCD PUSH1 0xE5 SHL DUP2 MSTORE PUSH1 0x20 PUSH1 0x4 DUP3 ADD MSTORE PUSH1 0x29 PUSH1 0x24 DUP3 ADD MSTORE PUSH32 0x50523A20507265706172696E6720616464206C69717569646974792069732063 PUSH1 0x44 DUP3 ADD MSTORE PUSH9 0x6F6D706C6574656421 PUSH1 0xB8 SHL PUSH1 0x64 DUP3 ADD MSTORE PUSH1 0x84 ADD PUSH2 0x5E1 JUMP JUMPDEST PUSH1 0x0 SELFBALANCE GT PUSH2 0x125B JUMPI PUSH1 0x40 MLOAD PUSH3 0x461BCD PUSH1 0xE5 SHL DUP2 MSTORE PUSH1 0x20 PUSH1 0x4 DUP3 ADD MSTORE PUSH1 0x2B PUSH1 0x24 DUP3 ADD MSTORE PUSH32 0x50523A2045746865722062616C616E6365206D757374206265206C6172676572 PUSH1 0x44 DUP3 ADD MSTORE PUSH11 0x207468616E207A65726F21 PUSH1 0xA8 SHL PUSH1 0x64 DUP3 ADD MSTORE PUSH1 0x84 ADD PUSH2 0x5E1 JUMP JUMPDEST PUSH1 0x0 PUSH20 0xD0A1E359811322D97991E03F863A0C30C2CF029C SWAP1 POP DUP1 PUSH1 0x1 PUSH1 0x1 PUSH1 0xA0 SHL SUB AND PUSH4 0xD0E30DB0 SELFBALANCE PUSH1 0x40 MLOAD DUP3 PUSH4 0xFFFFFFFF AND PUSH1 0xE0 SHL DUP2 MSTORE PUSH1 0x4 ADD PUSH1 0x0 PUSH1 0x40 MLOAD DUP1 DUP4 SUB DUP2 DUP6 DUP9 DUP1 EXTCODESIZE ISZERO DUP1 ISZERO PUSH2 0x12AF JUMPI PUSH1 0x0 DUP1 REVERT JUMPDEST POP GAS CALL ISZERO DUP1 ISZERO PUSH2 0x12C3 JUMPI RETURNDATASIZE PUSH1 0x0 DUP1 RETURNDATACOPY RETURNDATASIZE PUSH1 0x0 REVERT JUMPDEST POP POP PUSH1 0x40 MLOAD PUSH4 0x70A08231 PUSH1 0xE0 SHL DUP2 MSTORE ADDRESS PUSH1 0x4 DUP3 ADD MSTORE PUSH1 0x0 SWAP4 POP PUSH1 0x1 PUSH1 0x1 PUSH1 0xA0 SHL SUB DUP6 AND SWAP3 POP PUSH4 0x70A08231 SWAP2 POP PUSH1 0x24 ADD PUSH1 0x20 PUSH1 0x40 MLOAD DUP1 DUP4 SUB DUP2 DUP7 GAS STATICCALL ISZERO DUP1 ISZERO PUSH2 0x130F JUMPI RETURNDATASIZE PUSH1 0x0 DUP1 RETURNDATACOPY RETURNDATASIZE PUSH1 0x0 REVERT JUMPDEST POP POP POP POP PUSH1 0x40 MLOAD RETURNDATASIZE PUSH1 0x1F NOT PUSH1 0x1F DUP3 ADD AND DUP3 ADD DUP1 PUSH1 0x40 MSTORE POP DUP2 ADD SWAP1 PUSH2 0x1333 SWAP2 SWAP1 PUSH2 0x409D JUMP JUMPDEST PUSH1 0x40 DUP1 MLOAD PUSH1 0x2 DUP1 DUP3 MSTORE PUSH1 0x60 DUP3 ADD DUP4 MSTORE SWAP3 SWAP4 POP PUSH1 0x0 SWAP3 SWAP1 SWAP2 PUSH1 0x20 DUP4 ADD SWAP1 DUP1 CALLDATASIZE DUP4 CALLDATACOPY ADD SWAP1 POP POP SWAP1 POP PUSH20 0xD0A1E359811322D97991E03F863A0C30C2CF029C DUP2 PUSH1 0x0 DUP2 MLOAD DUP2 LT PUSH2 0x1381 JUMPI PUSH2 0x1381 PUSH2 0x3CF9 JUMP JUMPDEST PUSH1 0x20 MUL PUSH1 0x20 ADD ADD SWAP1 PUSH1 0x1 PUSH1 0x1 PUSH1 0xA0 SHL SUB AND SWAP1 DUP2 PUSH1 0x1 PUSH1 0x1 PUSH1 0xA0 SHL SUB AND DUP2 MSTORE POP POP PUSH20 0xDBD240D23A5C3041B0F26BDD8888DEDE6F58A12A DUP2 PUSH1 0x1 DUP2 MLOAD DUP2 LT PUSH2 0x13C9 JUMPI PUSH2 0x13C9 PUSH2 0x3CF9 JUMP JUMPDEST PUSH1 0x1 PUSH1 0x1 PUSH1 0xA0 SHL SUB SWAP3 DUP4 AND PUSH1 0x20 SWAP2 DUP3 MUL SWAP3 SWAP1 SWAP3 ADD ADD MSTORE PUSH1 0x40 MLOAD PUSH4 0x95EA7B3 PUSH1 0xE0 SHL DUP2 MSTORE PUSH20 0x7A250D5630B4CF539739DF2C5DACB4C659F2488D PUSH1 0x4 DUP3 ADD MSTORE PUSH1 0x0 NOT PUSH1 0x24 DUP3 ADD MSTORE SWAP1 DUP5 AND SWAP1 PUSH4 0x95EA7B3 SWAP1 PUSH1 0x44 ADD PUSH1 0x20 PUSH1 0x40 MLOAD DUP1 DUP4 SUB DUP2 PUSH1 0x0 DUP8 GAS CALL ISZERO DUP1 ISZERO PUSH2 0x143A JUMPI RETURNDATASIZE PUSH1 0x0 DUP1 RETURNDATACOPY RETURNDATASIZE PUSH1 0x0 REVERT JUMPDEST POP POP POP POP PUSH1 0x40 MLOAD RETURNDATASIZE PUSH1 0x1F NOT PUSH1 0x1F DUP3 ADD AND DUP3 ADD DUP1 PUSH1 0x40 MSTORE POP DUP2 ADD SWAP1 PUSH2 0x145E SWAP2 SWAP1 PUSH2 0x40B6 JUMP JUMPDEST POP PUSH1 0x40 MLOAD PUSH4 0x95EA7B3 PUSH1 0xE0 SHL DUP2 MSTORE PUSH20 0x7A250D5630B4CF539739DF2C5DACB4C659F2488D PUSH1 0x4 DUP3 ADD MSTORE PUSH1 0x0 NOT PUSH1 0x24 DUP3 ADD MSTORE PUSH20 0xDBD240D23A5C3041B0F26BDD8888DEDE6F58A12A SWAP1 PUSH4 0x95EA7B3 SWAP1 PUSH1 0x44 ADD PUSH1 0x20 PUSH1 0x40 MLOAD DUP1 DUP4 SUB DUP2 PUSH1 0x0 DUP8 GAS CALL ISZERO DUP1 ISZERO PUSH2 0x14CC JUMPI RETURNDATASIZE PUSH1 0x0 DUP1 RETURNDATACOPY RETURNDATASIZE PUSH1 0x0 REVERT JUMPDEST POP POP POP POP PUSH1 0x40 MLOAD RETURNDATASIZE PUSH1 0x1F NOT PUSH1 0x1F DUP3 ADD AND DUP3 ADD DUP1 PUSH1 0x40 MSTORE POP DUP2 ADD SWAP1 PUSH2 0x14F0 SWAP2 SWAP1 PUSH2 0x40B6 JUMP JUMPDEST POP PUSH1 0xF SLOAD PUSH1 0x40 MLOAD PUSH4 0x95EA7B3 PUSH1 0xE0 SHL DUP2 MSTORE PUSH20 0x7A250D5630B4CF539739DF2C5DACB4C659F2488D PUSH1 0x4 DUP3 ADD MSTORE PUSH1 0x0 NOT PUSH1 0x24 DUP3 ADD MSTORE PUSH1 0x1 PUSH1 0x1 PUSH1 0xA0 SHL SUB SWAP1 SWAP2 AND SWAP1 PUSH4 0x95EA7B3 SWAP1 PUSH1 0x44 ADD PUSH1 0x20 PUSH1 0x40 MLOAD DUP1 DUP4 SUB DUP2 PUSH1 0x0 DUP8 GAS CALL ISZERO DUP1 ISZERO PUSH2 0x1557 JUMPI RETURNDATASIZE PUSH1 0x0 DUP1 RETURNDATACOPY RETURNDATASIZE PUSH1 0x0 REVERT JUMPDEST POP POP POP POP PUSH1 0x40 MLOAD RETURNDATASIZE PUSH1 0x1F NOT PUSH1 0x1F DUP3 ADD AND DUP3 ADD DUP1 PUSH1 0x40 MSTORE POP DUP2 ADD SWAP1 PUSH2 0x157B SWAP2 SWAP1 PUSH2 0x40B6 JUMP JUMPDEST POP PUSH20 0x7A250D5630B4CF539739DF2C5DACB4C659F2488D PUSH4 0x5C11D795 DUP4 PUSH1 0x0 DUP5 ADDRESS PUSH2 0x15A8 TIMESTAMP PUSH3 0x83D600 PUSH2 0x3D7D JUMP JUMPDEST PUSH1 0x40 MLOAD DUP7 PUSH4 0xFFFFFFFF AND PUSH1 0xE0 SHL DUP2 MSTORE PUSH1 0x4 ADD PUSH2 0x15C8 SWAP6 SWAP5 SWAP4 SWAP3 SWAP2 SWAP1 PUSH2 0x40D8 JUMP JUMPDEST PUSH1 0x0 PUSH1 0x40 MLOAD DUP1 DUP4 SUB DUP2 PUSH1 0x0 DUP8 DUP1 EXTCODESIZE ISZERO DUP1 ISZERO PUSH2 0x15E2 JUMPI PUSH1 0x0 DUP1 REVERT JUMPDEST POP GAS CALL ISZERO DUP1 ISZERO PUSH2 0x15F6 JUMPI RETURNDATASIZE PUSH1 0x0 DUP1 RETURNDATACOPY RETURNDATASIZE PUSH1 0x0 REVERT JUMPDEST POP POP POP POP PUSH2 0xAC3 PUSH1 0x2 PUSH2 0x31E9 JUMP JUMPDEST PUSH1 0x0 DUP1 JUMPDEST PUSH1 0x6 SLOAD DUP2 LT ISZERO PUSH2 0x16A4 JUMPI PUSH1 0x1 PUSH1 0x4 PUSH1 0x1 PUSH1 0x3 PUSH1 0x0 PUSH1 0x6 DUP7 DUP2 SLOAD DUP2 LT PUSH2 0x162F JUMPI PUSH2 0x162F PUSH2 0x3CF9 JUMP JUMPDEST PUSH1 0x0 SWAP2 DUP3 MSTORE PUSH1 0x20 DUP1 DUP4 KECCAK256 PUSH1 0x2 SWAP1 SWAP3 MUL SWAP1 SWAP2 ADD SLOAD PUSH1 0x1 PUSH1 0x1 PUSH1 0xA0 SHL SUB AND DUP4 MSTORE DUP3 ADD SWAP3 SWAP1 SWAP3 MSTORE PUSH1 0x40 ADD SWAP1 KECCAK256 SLOAD PUSH2 0x1663 SWAP2 SWAP1 PUSH2 0x3D25 JUMP JUMPDEST DUP2 SLOAD DUP2 LT PUSH2 0x1673 JUMPI PUSH2 0x1673 PUSH2 0x3CF9 JUMP JUMPDEST SWAP1 PUSH1 0x0 MSTORE PUSH1 0x20 PUSH1 0x0 KECCAK256 SWAP1 PUSH1 0x5 MUL ADD PUSH1 0x1 ADD SLOAD GT PUSH2 0x1692 JUMPI PUSH1 0x0 SWAP2 POP POP SWAP1 JUMP JUMPDEST DUP1 PUSH2 0x169C DUP2 PUSH2 0x3D95 JUMP JUMPDEST SWAP2 POP POP PUSH2 0x1608 JUMP JUMPDEST POP PUSH1 0x0 JUMPDEST PUSH1 0x2 SLOAD DUP2 LT ISZERO PUSH2 0x1744 JUMPI PUSH1 0x1 PUSH1 0x4 PUSH1 0x1 PUSH1 0x3 PUSH1 0x0 PUSH1 0x2 DUP7 DUP2 SLOAD DUP2 LT PUSH2 0x16CF JUMPI PUSH2 0x16CF PUSH2 0x3CF9 JUMP JUMPDEST PUSH1 0x0 SWAP2 DUP3 MSTORE PUSH1 0x20 DUP1 DUP4 KECCAK256 PUSH1 0x3 SWAP1 SWAP3 MUL SWAP1 SWAP2 ADD SLOAD PUSH1 0x1 PUSH1 0x1 PUSH1 0xA0 SHL SUB AND DUP4 MSTORE DUP3 ADD SWAP3 SWAP1 SWAP3 MSTORE PUSH1 0x40 ADD SWAP1 KECCAK256 SLOAD PUSH2 0x1703 SWAP2 SWAP1 PUSH2 0x3D25 JUMP JUMPDEST DUP2 SLOAD DUP2 LT PUSH2 0x1713 JUMPI PUSH2 0x1713 PUSH2 0x3CF9 JUMP JUMPDEST SWAP1 PUSH1 0x0 MSTORE PUSH1 0x20 PUSH1 0x0 KECCAK256 SWAP1 PUSH1 0x5 MUL ADD PUSH1 0x1 ADD SLOAD GT PUSH2 0x1732 JUMPI PUSH1 0x0 SWAP2 POP POP SWAP1 JUMP JUMPDEST DUP1 PUSH2 0x173C DUP2 PUSH2 0x3D95 JUMP JUMPDEST SWAP2 POP POP PUSH2 0x16A8 JUMP JUMPDEST POP PUSH1 0x1 SWAP1 POP SWAP1 JUMP JUMPDEST PUSH1 0x0 SLOAD PUSH1 0x1 PUSH1 0x1 PUSH1 0xA0 SHL SUB AND CALLER EQ PUSH2 0x1776 JUMPI PUSH1 0x40 MLOAD PUSH3 0x461BCD PUSH1 0xE5 SHL DUP2 MSTORE PUSH1 0x4 ADD PUSH2 0x5E1 SWAP1 PUSH2 0x3DB0 JUMP JUMPDEST PUSH1 0x0 DUP1 SLOAD PUSH1 0x40 MLOAD PUSH1 0x1 PUSH1 0x1 PUSH1 0xA0 SHL SUB SWAP1 SWAP2 AND SWAP1 PUSH32 0x8BE0079C531659141344CD1FD0A4F28419497F9722A3DAAFE3B4186F6B6457E0 SWAP1 DUP4 SWAP1 LOG3 PUSH1 0x0 DUP1 SLOAD PUSH1 0x1 PUSH1 0x1 PUSH1 0xA0 SHL SUB NOT AND SWAP1 SSTORE JUMP JUMPDEST PUSH1 0x60 DUP3 PUSH1 0x0 PUSH2 0x17CF DUP5 DUP4 PUSH2 0x3D7D JUMP JUMPDEST PUSH1 0x2 SLOAD SWAP1 SWAP2 POP DUP2 GT PUSH2 0x17E1 JUMPI DUP1 PUSH2 0x17E5 JUMP JUMPDEST PUSH1 0x2 SLOAD JUMPDEST SWAP1 POP PUSH1 0x0 DUP3 DUP3 GT PUSH2 0x17F7 JUMPI PUSH1 0x0 PUSH2 0x1801 JUMP JUMPDEST PUSH2 0x1801 DUP4 DUP4 PUSH2 0x3D25 JUMP JUMPDEST SWAP1 POP PUSH1 0x0 DUP2 PUSH8 0xFFFFFFFFFFFFFFFF DUP2 GT ISZERO PUSH2 0x181E JUMPI PUSH2 0x181E PUSH2 0x3E63 JUMP JUMPDEST PUSH1 0x40 MLOAD SWAP1 DUP1 DUP3 MSTORE DUP1 PUSH1 0x20 MUL PUSH1 0x20 ADD DUP3 ADD PUSH1 0x40 MSTORE DUP1 ISZERO PUSH2 0x1869 JUMPI DUP2 PUSH1 0x20 ADD JUMPDEST PUSH1 0x40 DUP1 MLOAD PUSH1 0x60 DUP2 ADD DUP3 MSTORE PUSH1 0x0 DUP1 DUP3 MSTORE PUSH1 0x20 DUP1 DUP4 ADD DUP3 SWAP1 MSTORE SWAP3 DUP3 ADD MSTORE DUP3 MSTORE PUSH1 0x0 NOT SWAP1 SWAP3 ADD SWAP2 ADD DUP2 PUSH2 0x183C JUMPI SWAP1 POP JUMPDEST POP SWAP1 POP DUP4 JUMPDEST DUP4 DUP2 LT ISZERO PUSH2 0x1908 JUMPI PUSH1 0x2 DUP2 DUP2 SLOAD DUP2 LT PUSH2 0x1889 JUMPI PUSH2 0x1889 PUSH2 0x3CF9 JUMP JUMPDEST PUSH1 0x0 SWAP2 DUP3 MSTORE PUSH1 0x20 SWAP2 DUP3 SWAP1 KECCAK256 PUSH1 0x40 DUP1 MLOAD PUSH1 0x60 DUP2 ADD DUP3 MSTORE PUSH1 0x3 SWAP1 SWAP4 MUL SWAP1 SWAP2 ADD DUP1 SLOAD PUSH1 0x1 PUSH1 0x1 PUSH1 0xA0 SHL SUB SWAP1 DUP2 AND DUP5 MSTORE PUSH1 0x1 DUP3 ADD SLOAD AND SWAP4 DUP4 ADD SWAP4 SWAP1 SWAP4 MSTORE PUSH1 0x2 SWAP1 SWAP3 ADD SLOAD SWAP2 DUP2 ADD SWAP2 SWAP1 SWAP2 MSTORE DUP3 PUSH2 0x18DA DUP8 DUP5 PUSH2 0x3D25 JUMP JUMPDEST DUP2 MLOAD DUP2 LT PUSH2 0x18EA JUMPI PUSH2 0x18EA PUSH2 0x3CF9 JUMP JUMPDEST PUSH1 0x20 MUL PUSH1 0x20 ADD ADD DUP2 SWAP1 MSTORE POP DUP1 DUP1 PUSH2 0x1900 SWAP1 PUSH2 0x3D95 JUMP JUMPDEST SWAP2 POP POP PUSH2 0x186E JUMP JUMPDEST POP SWAP7 SWAP6 POP POP POP POP POP POP JUMP JUMPDEST PUSH1 0x4 PUSH1 0x0 SLOAD PUSH1 0x1 PUSH1 0xA0 SHL SWAP1 DIV PUSH1 0xFF AND PUSH1 0x7 DUP2 GT ISZERO PUSH2 0x1933 JUMPI PUSH2 0x1933 PUSH2 0x3BC6 JUMP JUMPDEST EQ PUSH2 0x199D JUMPI PUSH1 0x40 MLOAD PUSH3 0x461BCD PUSH1 0xE5 SHL DUP2 MSTORE PUSH1 0x20 PUSH1 0x4 DUP3 ADD MSTORE PUSH1 0x34 PUSH1 0x24 DUP3 ADD MSTORE PUSH32 0x50523A20546F6B656E6F6D69637320746F6B656E73206861766520616C726561 PUSH1 0x44 DUP3 ADD MSTORE PUSH20 0x6479206265656E20646973747269627574656421 PUSH1 0x60 SHL PUSH1 0x64 DUP3 ADD MSTORE PUSH1 0x84 ADD PUSH2 0x5E1 JUMP JUMPDEST PUSH1 0x0 JUMPDEST PUSH1 0x8 SLOAD DUP2 LT ISZERO PUSH2 0xE0E JUMPI PUSH1 0x40 MLOAD DUP1 PUSH1 0xA0 ADD PUSH1 0x40 MSTORE DUP1 PUSH1 0x8 DUP4 DUP2 SLOAD DUP2 LT PUSH2 0x19C8 JUMPI PUSH2 0x19C8 PUSH2 0x3CF9 JUMP JUMPDEST PUSH1 0x0 SWAP2 DUP3 MSTORE PUSH1 0x20 SWAP2 DUP3 SWAP1 KECCAK256 PUSH1 0x5 SWAP1 SWAP2 MUL ADD SLOAD PUSH1 0x1 PUSH1 0x1 PUSH1 0xA0 SHL SUB AND DUP3 MSTORE PUSH1 0x8 DUP1 SLOAD SWAP3 SWAP1 SWAP2 ADD SWAP2 PUSH3 0xF4240 SWAP2 SWAP1 DUP6 SWAP1 DUP2 LT PUSH2 0x1A04 JUMPI PUSH2 0x1A04 PUSH2 0x3CF9 JUMP JUMPDEST SWAP1 PUSH1 0x0 MSTORE PUSH1 0x20 PUSH1 0x0 KECCAK256 SWAP1 PUSH1 0x5 MUL ADD PUSH1 0x2 ADD SLOAD PUSH1 0xD SLOAD PUSH2 0x1A23 SWAP2 SWAP1 PUSH2 0x3D3C JUMP JUMPDEST PUSH2 0x1A2D SWAP2 SWAP1 PUSH2 0x3D5B JUMP JUMPDEST DUP2 MSTORE PUSH1 0x20 ADD PUSH1 0x0 DUP2 MSTORE PUSH1 0x20 ADD PUSH1 0x8 DUP4 DUP2 SLOAD DUP2 LT PUSH2 0x1A4C JUMPI PUSH2 0x1A4C PUSH2 0x3CF9 JUMP JUMPDEST SWAP1 PUSH1 0x0 MSTORE PUSH1 0x20 PUSH1 0x0 KECCAK256 SWAP1 PUSH1 0x5 MUL ADD PUSH1 0x3 ADD SLOAD TIMESTAMP PUSH2 0x1A69 SWAP2 SWAP1 PUSH2 0x3D7D JUMP JUMPDEST DUP2 MSTORE PUSH1 0x20 ADD PUSH1 0x8 DUP4 DUP2 SLOAD DUP2 LT PUSH2 0x1A81 JUMPI PUSH2 0x1A81 PUSH2 0x3CF9 JUMP JUMPDEST SWAP1 PUSH1 0x0 MSTORE PUSH1 0x20 PUSH1 0x0 KECCAK256 SWAP1 PUSH1 0x5 MUL ADD PUSH1 0x4 ADD SLOAD PUSH1 0x8 DUP5 DUP2 SLOAD DUP2 LT PUSH2 0x1AA6 JUMPI PUSH2 0x1AA6 PUSH2 0x3CF9 JUMP JUMPDEST SWAP1 PUSH1 0x0 MSTORE PUSH1 0x20 PUSH1 0x0 KECCAK256 SWAP1 PUSH1 0x5 MUL ADD PUSH1 0x3 ADD SLOAD TIMESTAMP PUSH2 0x1AC3 SWAP2 SWAP1 PUSH2 0x3D7D JUMP JUMPDEST PUSH2 0x1ACD SWAP2 SWAP1 PUSH2 0x3D7D JUMP JUMPDEST DUP2 MSTORE POP PUSH1 0x4 PUSH1 0x1 PUSH1 0x3 PUSH1 0x0 PUSH1 0x8 DUP7 DUP2 SLOAD DUP2 LT PUSH2 0x1AEB JUMPI PUSH2 0x1AEB PUSH2 0x3CF9 JUMP JUMPDEST PUSH1 0x0 SWAP2 DUP3 MSTORE PUSH1 0x20 DUP1 DUP4 KECCAK256 PUSH1 0x5 SWAP1 SWAP3 MUL SWAP1 SWAP2 ADD SLOAD PUSH1 0x1 PUSH1 0x1 PUSH1 0xA0 SHL SUB AND DUP4 MSTORE DUP3 ADD SWAP3 SWAP1 SWAP3 MSTORE PUSH1 0x40 ADD SWAP1 KECCAK256 SLOAD PUSH2 0x1B1F SWAP2 SWAP1 PUSH2 0x3D25 JUMP JUMPDEST DUP2 SLOAD DUP2 LT PUSH2 0x1B2F JUMPI PUSH2 0x1B2F PUSH2 0x3CF9 JUMP JUMPDEST PUSH1 0x0 SWAP2 DUP3 MSTORE PUSH1 0x20 SWAP2 DUP3 SWAP1 KECCAK256 DUP4 MLOAD PUSH1 0x5 SWAP3 SWAP1 SWAP3 MUL ADD DUP1 SLOAD PUSH1 0x1 PUSH1 0x1 PUSH1 0xA0 SHL SUB NOT AND PUSH1 0x1 PUSH1 0x1 PUSH1 0xA0 SHL SUB SWAP1 SWAP3 AND SWAP2 SWAP1 SWAP2 OR DUP2 SSTORE SWAP1 DUP3 ADD MLOAD PUSH1 0x1 DUP3 ADD SSTORE PUSH1 0x40 DUP3 ADD MLOAD PUSH1 0x2 DUP3 ADD SSTORE PUSH1 0x60 DUP3 ADD MLOAD PUSH1 0x3 DUP3 ADD SSTORE PUSH1 0x80 SWAP1 SWAP2 ADD MLOAD PUSH1 0x4 SWAP1 SWAP2 ADD SSTORE DUP1 PUSH2 0x1B93 DUP2 PUSH2 0x3D95 JUMP JUMPDEST SWAP2 POP POP PUSH2 0x19A0 JUMP JUMPDEST PUSH1 0x4 PUSH1 0x0 SLOAD PUSH1 0x1 PUSH1 0xA0 SHL SWAP1 DIV PUSH1 0xFF AND PUSH1 0x7 DUP2 GT ISZERO PUSH2 0x1BBB JUMPI PUSH2 0x1BBB PUSH2 0x3BC6 JUMP JUMPDEST EQ PUSH2 0x1C24 JUMPI PUSH1 0x40 MLOAD PUSH3 0x461BCD PUSH1 0xE5 SHL DUP2 MSTORE PUSH1 0x20 PUSH1 0x4 DUP3 ADD MSTORE PUSH1 0x33 PUSH1 0x24 DUP3 ADD MSTORE PUSH32 0x50523A20526566657272616C7320746F6B656E73206861766520616C72656164 PUSH1 0x44 DUP3 ADD MSTORE PUSH19 0x79206265656E20646973747269627574656421 PUSH1 0x68 SHL PUSH1 0x64 DUP3 ADD MSTORE PUSH1 0x84 ADD PUSH2 0x5E1 JUMP JUMPDEST PUSH1 0x0 PUSH2 0x1C30 DUP4 DUP4 PUSH2 0x28A0 JUMP JUMPDEST SWAP1 POP PUSH1 0x0 JUMPDEST DUP2 MLOAD DUP2 LT ISZERO PUSH2 0x7FE JUMPI PUSH1 0x4 PUSH1 0x1 PUSH1 0x3 PUSH1 0x0 DUP6 DUP6 DUP2 MLOAD DUP2 LT PUSH2 0x1C58 JUMPI PUSH2 0x1C58 PUSH2 0x3CF9 JUMP JUMPDEST PUSH1 0x20 MUL PUSH1 0x20 ADD ADD MLOAD PUSH1 0x0 ADD MLOAD PUSH1 0x1 PUSH1 0x1 PUSH1 0xA0 SHL SUB AND PUSH1 0x1 PUSH1 0x1 PUSH1 0xA0 SHL SUB AND DUP2 MSTORE PUSH1 0x20 ADD SWAP1 DUP2 MSTORE PUSH1 0x20 ADD PUSH1 0x0 KECCAK256 SLOAD PUSH2 0x1C8F SWAP2 SWAP1 PUSH2 0x3D25 JUMP JUMPDEST DUP2 SLOAD DUP2 LT PUSH2 0x1C9F JUMPI PUSH2 0x1C9F PUSH2 0x3CF9 JUMP JUMPDEST SWAP1 PUSH1 0x0 MSTORE PUSH1 0x20 PUSH1 0x0 KECCAK256 SWAP1 PUSH1 0x5 MUL ADD PUSH1 0x1 ADD SLOAD PUSH1 0x0 EQ ISZERO PUSH2 0x1E26 JUMPI PUSH1 0x40 MLOAD DUP1 PUSH1 0xA0 ADD PUSH1 0x40 MSTORE DUP1 DUP4 DUP4 DUP2 MLOAD DUP2 LT PUSH2 0x1CD6 JUMPI PUSH2 0x1CD6 PUSH2 0x3CF9 JUMP JUMPDEST PUSH1 0x20 MUL PUSH1 0x20 ADD ADD MLOAD PUSH1 0x0 ADD MLOAD PUSH1 0x1 PUSH1 0x1 PUSH1 0xA0 SHL SUB AND DUP2 MSTORE PUSH1 0x20 ADD PUSH1 0xA SLOAD PUSH1 0xC SLOAD DUP6 DUP6 DUP2 MLOAD DUP2 LT PUSH2 0x1D08 JUMPI PUSH2 0x1D08 PUSH2 0x3CF9 JUMP JUMPDEST PUSH1 0x20 MUL PUSH1 0x20 ADD ADD MLOAD PUSH1 0x20 ADD MLOAD PUSH2 0x1D1E SWAP2 SWAP1 PUSH2 0x3D3C JUMP JUMPDEST PUSH2 0x1D28 SWAP2 SWAP1 PUSH2 0x3D5B JUMP JUMPDEST DUP2 MSTORE PUSH1 0x20 ADD PUSH1 0x0 DUP2 MSTORE PUSH1 0x20 ADD PUSH1 0xF PUSH1 0x7 ADD SLOAD TIMESTAMP PUSH2 0x1D45 SWAP2 SWAP1 PUSH2 0x3D7D JUMP JUMPDEST DUP2 MSTORE PUSH1 0x17 SLOAD PUSH1 0x16 SLOAD PUSH1 0x20 SWAP1 SWAP3 ADD SWAP2 PUSH2 0x1D5D SWAP1 TIMESTAMP PUSH2 0x3D7D JUMP JUMPDEST PUSH2 0x1D67 SWAP2 SWAP1 PUSH2 0x3D7D JUMP JUMPDEST DUP2 MSTORE POP PUSH1 0x4 PUSH1 0x1 PUSH1 0x3 PUSH1 0x0 DUP7 DUP7 DUP2 MLOAD DUP2 LT PUSH2 0x1D84 JUMPI PUSH2 0x1D84 PUSH2 0x3CF9 JUMP JUMPDEST PUSH1 0x20 MUL PUSH1 0x20 ADD ADD MLOAD PUSH1 0x0 ADD MLOAD PUSH1 0x1 PUSH1 0x1 PUSH1 0xA0 SHL SUB AND PUSH1 0x1 PUSH1 0x1 PUSH1 0xA0 SHL SUB AND DUP2 MSTORE PUSH1 0x20 ADD SWAP1 DUP2 MSTORE PUSH1 0x20 ADD PUSH1 0x0 KECCAK256 SLOAD PUSH2 0x1DBB SWAP2 SWAP1 PUSH2 0x3D25 JUMP JUMPDEST DUP2 SLOAD DUP2 LT PUSH2 0x1DCB JUMPI PUSH2 0x1DCB PUSH2 0x3CF9 JUMP JUMPDEST PUSH1 0x0 SWAP2 DUP3 MSTORE PUSH1 0x20 SWAP2 DUP3 SWAP1 KECCAK256 DUP4 MLOAD PUSH1 0x5 SWAP3 SWAP1 SWAP3 MUL ADD DUP1 SLOAD PUSH1 0x1 PUSH1 0x1 PUSH1 0xA0 SHL SUB NOT AND PUSH1 0x1 PUSH1 0x1 PUSH1 0xA0 SHL SUB SWAP1 SWAP3 AND SWAP2 SWAP1 SWAP2 OR DUP2 SSTORE SWAP1 DUP3 ADD MLOAD PUSH1 0x1 DUP3 ADD SSTORE PUSH1 0x40 DUP3 ADD MLOAD PUSH1 0x2 DUP3 ADD SSTORE PUSH1 0x60 DUP3 ADD MLOAD PUSH1 0x3 DUP3 ADD SSTORE PUSH1 0x80 SWAP1 SWAP2 ADD MLOAD PUSH1 0x4 SWAP1 SWAP2 ADD SSTORE JUMPDEST DUP1 PUSH2 0x1E30 DUP2 PUSH2 0x3D95 JUMP JUMPDEST SWAP2 POP POP PUSH2 0x1C35 JUMP JUMPDEST PUSH1 0x0 SLOAD PUSH1 0x1 PUSH1 0x1 PUSH1 0xA0 SHL SUB AND CALLER EQ PUSH2 0x1E62 JUMPI PUSH1 0x40 MLOAD PUSH3 0x461BCD PUSH1 0xE5 SHL DUP2 MSTORE PUSH1 0x4 ADD PUSH2 0x5E1 SWAP1 PUSH2 0x3DB0 JUMP JUMPDEST PUSH1 0x2 PUSH1 0x0 SLOAD PUSH1 0x1 PUSH1 0xA0 SHL SWAP1 DIV PUSH1 0xFF AND PUSH1 0x7 DUP2 GT ISZERO PUSH2 0x1E82 JUMPI PUSH2 0x1E82 PUSH2 0x3BC6 JUMP JUMPDEST EQ PUSH2 0x1ECF JUMPI PUSH1 0x40 MLOAD PUSH3 0x461BCD PUSH1 0xE5 SHL DUP2 MSTORE PUSH1 0x20 PUSH1 0x4 DUP3 ADD MSTORE PUSH1 0x1F PUSH1 0x24 DUP3 ADD MSTORE PUSH32 0x50523A204C697175696469747920697320616C72656164792061646465642100 PUSH1 0x44 DUP3 ADD MSTORE PUSH1 0x64 ADD PUSH2 0x5E1 JUMP JUMPDEST PUSH1 0x40 MLOAD PUSH4 0x70A08231 PUSH1 0xE0 SHL DUP2 MSTORE ADDRESS PUSH1 0x4 DUP3 ADD MSTORE PUSH20 0xDBD240D23A5C3041B0F26BDD8888DEDE6F58A12A SWAP1 PUSH1 0x0 SWAP1 DUP3 SWAP1 PUSH4 0x70A08231 SWAP1 PUSH1 0x24 ADD PUSH1 0x20 PUSH1 0x40 MLOAD DUP1 DUP4 SUB DUP2 DUP7 GAS STATICCALL ISZERO DUP1 ISZERO PUSH2 0x1F23 JUMPI RETURNDATASIZE PUSH1 0x0 DUP1 RETURNDATACOPY RETURNDATASIZE PUSH1 0x0 REVERT JUMPDEST POP POP POP POP PUSH1 0x40 MLOAD RETURNDATASIZE PUSH1 0x1F NOT PUSH1 0x1F DUP3 ADD AND DUP3 ADD DUP1 PUSH1 0x40 MSTORE POP DUP2 ADD SWAP1 PUSH2 0x1F47 SWAP2 SWAP1 PUSH2 0x409D JUMP JUMPDEST PUSH1 0x1B SLOAD SWAP1 SWAP2 POP PUSH1 0x0 SWAP1 PUSH2 0x1F62 DUP4 PUSH8 0xDE0B6B3A7640000 PUSH2 0x3D3C JUMP JUMPDEST PUSH2 0x1F6C SWAP2 SWAP1 PUSH2 0x3D5B JUMP JUMPDEST SWAP1 POP PUSH2 0x1F76 PUSH2 0x35A3 JUMP JUMPDEST PUSH2 0x1F83 PUSH3 0xF4240 DUP4 PUSH2 0x3D3C JUMP JUMPDEST PUSH2 0x1F8D SWAP2 SWAP1 PUSH2 0x3D5B JUMP JUMPDEST PUSH2 0x1F98 SWAP1 PUSH1 0x1 PUSH2 0x3D7D JUMP JUMPDEST PUSH1 0xD SSTORE PUSH1 0xC DUP2 SWAP1 SSTORE PUSH1 0xF SLOAD PUSH1 0x40 MLOAD PUSH4 0xBB9FF5D PUSH1 0xE0 SHL DUP2 MSTORE ADDRESS PUSH1 0x4 DUP3 ADD MSTORE PUSH1 0x24 DUP2 ADD DUP4 SWAP1 MSTORE PUSH1 0x1 PUSH1 0x1 PUSH1 0xA0 SHL SUB SWAP1 SWAP2 AND SWAP1 PUSH4 0xBB9FF5D SWAP1 PUSH1 0x44 ADD PUSH1 0x0 PUSH1 0x40 MLOAD DUP1 DUP4 SUB DUP2 PUSH1 0x0 DUP8 DUP1 EXTCODESIZE ISZERO DUP1 ISZERO PUSH2 0x1FEC JUMPI PUSH1 0x0 DUP1 REVERT JUMPDEST POP GAS CALL ISZERO DUP1 ISZERO PUSH2 0x2000 JUMPI RETURNDATASIZE PUSH1 0x0 DUP1 RETURNDATACOPY RETURNDATASIZE PUSH1 0x0 REVERT JUMPDEST POP POP PUSH1 0xF SLOAD PUSH20 0x7A250D5630B4CF539739DF2C5DACB4C659F2488D SWAP3 POP PUSH4 0xE8E33700 SWAP2 POP PUSH20 0xDBD240D23A5C3041B0F26BDD8888DEDE6F58A12A SWAP1 PUSH1 0x1 PUSH1 0x1 PUSH1 0xA0 SHL SUB AND DUP6 DUP6 PUSH1 0x0 DUP1 ADDRESS PUSH2 0x2055 TIMESTAMP PUSH3 0x83D600 PUSH2 0x3D7D JUMP JUMPDEST PUSH1 0x40 MLOAD PUSH1 0xE0 DUP11 SWAP1 SHL PUSH1 0x1 PUSH1 0x1 PUSH1 0xE0 SHL SUB NOT AND DUP2 MSTORE PUSH1 0x1 PUSH1 0x1 PUSH1 0xA0 SHL SUB SWAP9 DUP10 AND PUSH1 0x4 DUP3 ADD MSTORE SWAP7 DUP9 AND PUSH1 0x24 DUP9 ADD MSTORE PUSH1 0x44 DUP8 ADD SWAP6 SWAP1 SWAP6 MSTORE PUSH1 0x64 DUP7 ADD SWAP4 SWAP1 SWAP4 MSTORE PUSH1 0x84 DUP6 ADD SWAP2 SWAP1 SWAP2 MSTORE PUSH1 0xA4 DUP5 ADD MSTORE SWAP1 SWAP3 AND PUSH1 0xC4 DUP3 ADD MSTORE PUSH1 0xE4 DUP2 ADD SWAP2 SWAP1 SWAP2 MSTORE PUSH2 0x104 ADD PUSH1 0x60 PUSH1 0x40 MLOAD DUP1 DUP4 SUB DUP2 PUSH1 0x0 DUP8 GAS CALL ISZERO DUP1 ISZERO PUSH2 0x20D1 JUMPI RETURNDATASIZE PUSH1 0x0 DUP1 RETURNDATACOPY RETURNDATASIZE PUSH1 0x0 REVERT JUMPDEST POP POP POP POP PUSH1 0x40 MLOAD RETURNDATASIZE PUSH1 0x1F NOT PUSH1 0x1F DUP3 ADD AND DUP3 ADD DUP1 PUSH1 0x40 MSTORE POP DUP2 ADD SWAP1 PUSH2 0x20F5 SWAP2 SWAP1 PUSH2 0x4149 JUMP JUMPDEST POP PUSH2 0x20FE SWAP2 POP POP JUMP JUMPDEST PUSH1 0xF SLOAD PUSH1 0xD SLOAD PUSH1 0x1 PUSH1 0x1 PUSH1 0xA0 SHL SUB SWAP1 SWAP2 AND SWAP1 PUSH4 0xBB9FF5D SWAP1 ADDRESS SWAP1 PUSH2 0x2123 SWAP1 DUP6 SWAP1 PUSH2 0x3D25 JUMP JUMPDEST PUSH1 0x40 MLOAD PUSH1 0x1 PUSH1 0x1 PUSH1 0xE0 SHL SUB NOT PUSH1 0xE0 DUP6 SWAP1 SHL AND DUP2 MSTORE PUSH1 0x1 PUSH1 0x1 PUSH1 0xA0 SHL SUB SWAP1 SWAP3 AND PUSH1 0x4 DUP4 ADD MSTORE PUSH1 0x24 DUP3 ADD MSTORE PUSH1 0x44 ADD PUSH1 0x0 PUSH1 0x40 MLOAD DUP1 DUP4 SUB DUP2 PUSH1 0x0 DUP8 DUP1 EXTCODESIZE ISZERO DUP1 ISZERO PUSH2 0x2169 JUMPI PUSH1 0x0 DUP1 REVERT JUMPDEST POP GAS CALL ISZERO DUP1 ISZERO PUSH2 0x217D JUMPI RETURNDATASIZE PUSH1 0x0 DUP1 RETURNDATACOPY RETURNDATASIZE PUSH1 0x0 REVERT JUMPDEST POP POP POP POP PUSH2 0xAC3 PUSH1 0x4 PUSH2 0x31E9 JUMP JUMPDEST PUSH2 0x2193 PUSH2 0x3787 JUMP JUMPDEST PUSH2 0x219B PUSH2 0x381C JUMP JUMPDEST PUSH1 0x1 PUSH1 0x1 PUSH1 0xA0 SHL SUB DUP4 AND PUSH1 0x0 SWAP1 DUP2 MSTORE PUSH1 0x3 PUSH1 0x20 MSTORE PUSH1 0x40 SWAP1 KECCAK256 SLOAD ISZERO PUSH2 0x224C JUMPI PUSH1 0x1 PUSH1 0x1 PUSH1 0xA0 SHL SUB DUP4 AND PUSH1 0x0 SWAP1 DUP2 MSTORE PUSH1 0x3 PUSH1 0x20 MSTORE PUSH1 0x40 SWAP1 KECCAK256 SLOAD PUSH1 0x4 SWAP1 PUSH2 0x21E1 SWAP1 PUSH1 0x1 SWAP1 PUSH2 0x3D25 JUMP JUMPDEST DUP2 SLOAD DUP2 LT PUSH2 0x21F1 JUMPI PUSH2 0x21F1 PUSH2 0x3CF9 JUMP JUMPDEST PUSH1 0x0 SWAP2 DUP3 MSTORE PUSH1 0x20 SWAP2 DUP3 SWAP1 KECCAK256 PUSH1 0x40 DUP1 MLOAD PUSH1 0xA0 DUP2 ADD DUP3 MSTORE PUSH1 0x5 SWAP1 SWAP4 MUL SWAP1 SWAP2 ADD DUP1 SLOAD PUSH1 0x1 PUSH1 0x1 PUSH1 0xA0 SHL SUB AND DUP4 MSTORE PUSH1 0x1 DUP2 ADD SLOAD SWAP4 DUP4 ADD SWAP4 SWAP1 SWAP4 MSTORE PUSH1 0x2 DUP4 ADD SLOAD SWAP1 DUP3 ADD MSTORE PUSH1 0x3 DUP3 ADD SLOAD PUSH1 0x60 DUP3 ADD MSTORE PUSH1 0x4 SWAP1 SWAP2 ADD SLOAD PUSH1 0x80 DUP3 ADD MSTORE SWAP1 POP PUSH2 0x2281 JUMP JUMPDEST PUSH1 0x40 MLOAD DUP1 PUSH1 0xA0 ADD PUSH1 0x40 MSTORE DUP1 DUP5 PUSH1 0x1 PUSH1 0x1 PUSH1 0xA0 SHL SUB AND DUP2 MSTORE PUSH1 0x20 ADD PUSH1 0x0 DUP2 MSTORE PUSH1 0x20 ADD PUSH1 0x0 DUP2 MSTORE PUSH1 0x20 ADD TIMESTAMP DUP2 MSTORE PUSH1 0x20 ADD TIMESTAMP DUP2 MSTORE POP SWAP1 POP JUMPDEST PUSH2 0x2289 PUSH2 0x381C JUMP JUMPDEST PUSH1 0x1 PUSH1 0x1 PUSH1 0xA0 SHL SUB DUP5 AND PUSH1 0x0 SWAP1 DUP2 MSTORE PUSH1 0x1 PUSH1 0x20 MSTORE PUSH1 0x40 SWAP1 KECCAK256 SLOAD ISZERO PUSH2 0x2356 JUMPI PUSH1 0x1 PUSH1 0x1 PUSH1 0xA0 SHL SUB DUP5 AND PUSH1 0x0 SWAP1 DUP2 MSTORE PUSH1 0x1 PUSH1 0x20 DUP2 SWAP1 MSTORE PUSH1 0x40 DUP3 KECCAK256 SLOAD PUSH1 0x2 SWAP2 PUSH2 0x22CE SWAP2 PUSH2 0x3D25 JUMP JUMPDEST DUP2 SLOAD DUP2 LT PUSH2 0x22DE JUMPI PUSH2 0x22DE PUSH2 0x3CF9 JUMP JUMPDEST PUSH1 0x0 SWAP2 DUP3 MSTORE PUSH1 0x20 DUP1 DUP4 KECCAK256 PUSH1 0x40 DUP1 MLOAD PUSH1 0x60 DUP1 DUP3 ADD DUP4 MSTORE PUSH1 0x3 SWAP1 SWAP6 MUL SWAP1 SWAP3 ADD DUP1 SLOAD PUSH1 0x1 PUSH1 0x1 PUSH1 0xA0 SHL SUB SWAP1 DUP2 AND DUP5 MSTORE PUSH1 0x1 DUP3 ADD SLOAD DUP2 AND DUP5 DUP7 ADD MSTORE PUSH1 0x2 SWAP1 SWAP2 ADD SLOAD SWAP3 DUP3 ADD SWAP3 DUP4 MSTORE DUP2 MLOAD PUSH1 0xA0 DUP2 ADD DUP4 MSTORE SWAP1 DUP12 AND DUP2 MSTORE SWAP2 MLOAD SWAP3 DUP3 ADD SWAP3 SWAP1 SWAP3 MSTORE SWAP1 DUP2 ADD SWAP3 SWAP1 SWAP3 MSTORE PUSH1 0x19 SLOAD SWAP1 DUP3 ADD MSTORE PUSH1 0x1A SLOAD PUSH1 0x80 DUP3 ADD MSTORE SWAP2 POP PUSH2 0x238E SWAP1 POP JUMP JUMPDEST POP PUSH1 0x40 DUP1 MLOAD PUSH1 0xA0 DUP2 ADD DUP3 MSTORE PUSH1 0x1 PUSH1 0x1 PUSH1 0xA0 SHL SUB DUP6 AND DUP2 MSTORE PUSH1 0x0 PUSH1 0x20 DUP3 ADD DUP2 SWAP1 MSTORE SWAP2 DUP2 ADD SWAP2 SWAP1 SWAP2 MSTORE PUSH1 0x19 SLOAD PUSH1 0x60 DUP3 ADD MSTORE PUSH1 0x1A SLOAD PUSH1 0x80 DUP3 ADD MSTORE JUMPDEST PUSH1 0x1 PUSH1 0x1 PUSH1 0xA0 SHL SUB DUP5 AND PUSH1 0x0 SWAP1 DUP2 MSTORE PUSH1 0x5 PUSH1 0x20 MSTORE PUSH1 0x40 SWAP1 KECCAK256 SLOAD ISZERO PUSH2 0x23FE JUMPI PUSH1 0x1 PUSH1 0x1 PUSH1 0xA0 SHL SUB DUP5 AND PUSH1 0x0 SWAP1 DUP2 MSTORE PUSH1 0x5 PUSH1 0x20 MSTORE PUSH1 0x40 SWAP1 KECCAK256 SLOAD PUSH1 0x6 SWAP1 PUSH2 0x23D4 SWAP1 PUSH1 0x1 SWAP1 PUSH2 0x3D25 JUMP JUMPDEST DUP2 SLOAD DUP2 LT PUSH2 0x23E4 JUMPI PUSH2 0x23E4 PUSH2 0x3CF9 JUMP JUMPDEST PUSH1 0x0 SWAP2 DUP3 MSTORE PUSH1 0x20 SWAP1 SWAP2 KECCAK256 PUSH1 0x1 PUSH1 0x2 SWAP1 SWAP3 MUL ADD ADD SLOAD PUSH1 0x40 DUP3 ADD MSTORE JUMPDEST PUSH1 0x0 PUSH1 0x40 MLOAD DUP1 PUSH2 0x100 ADD PUSH1 0x40 MSTORE DUP1 ADDRESS PUSH1 0x1 PUSH1 0x1 PUSH1 0xA0 SHL SUB AND DUP2 MSTORE PUSH1 0x20 ADD PUSH1 0xF PUSH1 0x1 ADD DUP1 SLOAD PUSH2 0x242B SWAP1 PUSH2 0x3E79 JUMP JUMPDEST DUP1 PUSH1 0x1F ADD PUSH1 0x20 DUP1 SWAP2 DIV MUL PUSH1 0x20 ADD PUSH1 0x40 MLOAD SWAP1 DUP2 ADD PUSH1 0x40 MSTORE DUP1 SWAP3 SWAP2 SWAP1 DUP2 DUP2 MSTORE PUSH1 0x20 ADD DUP3 DUP1 SLOAD PUSH2 0x2457 SWAP1 PUSH2 0x3E79 JUMP JUMPDEST DUP1 ISZERO PUSH2 0x24A4 JUMPI DUP1 PUSH1 0x1F LT PUSH2 0x2479 JUMPI PUSH2 0x100 DUP1 DUP4 SLOAD DIV MUL DUP4 MSTORE SWAP2 PUSH1 0x20 ADD SWAP2 PUSH2 0x24A4 JUMP JUMPDEST DUP3 ADD SWAP2 SWAP1 PUSH1 0x0 MSTORE PUSH1 0x20 PUSH1 0x0 KECCAK256 SWAP1 JUMPDEST DUP2 SLOAD DUP2 MSTORE SWAP1 PUSH1 0x1 ADD SWAP1 PUSH1 0x20 ADD DUP1 DUP4 GT PUSH2 0x2487 JUMPI DUP3 SWAP1 SUB PUSH1 0x1F AND DUP3 ADD SWAP2 JUMPDEST POP POP POP SWAP2 DUP4 MSTORE POP POP PUSH1 0xA SLOAD PUSH1 0x20 DUP3 ADD DUP2 SWAP1 MSTORE PUSH1 0x18 SLOAD PUSH1 0x40 DUP4 ADD DUP2 SWAP1 MSTORE GT PUSH1 0x60 DUP3 ADD MSTORE PUSH1 0x1 PUSH1 0x80 DUP3 ADD MSTORE PUSH1 0x11 DUP1 SLOAD PUSH1 0xA0 SWAP1 SWAP3 ADD SWAP2 PUSH2 0x24E0 SWAP1 PUSH2 0x3E79 JUMP JUMPDEST DUP1 PUSH1 0x1F ADD PUSH1 0x20 DUP1 SWAP2 DIV MUL PUSH1 0x20 ADD PUSH1 0x40 MLOAD SWAP1 DUP2 ADD PUSH1 0x40 MSTORE DUP1 SWAP3 SWAP2 SWAP1 DUP2 DUP2 MSTORE PUSH1 0x20 ADD DUP3 DUP1 SLOAD PUSH2 0x250C SWAP1 PUSH2 0x3E79 JUMP JUMPDEST DUP1 ISZERO PUSH2 0x2559 JUMPI DUP1 PUSH1 0x1F LT PUSH2 0x252E JUMPI PUSH2 0x100 DUP1 DUP4 SLOAD DIV MUL DUP4 MSTORE SWAP2 PUSH1 0x20 ADD SWAP2 PUSH2 0x2559 JUMP JUMPDEST DUP3 ADD SWAP2 SWAP1 PUSH1 0x0 MSTORE PUSH1 0x20 PUSH1 0x0 KECCAK256 SWAP1 JUMPDEST DUP2 SLOAD DUP2 MSTORE SWAP1 PUSH1 0x1 ADD SWAP1 PUSH1 0x20 ADD DUP1 DUP4 GT PUSH2 0x253C JUMPI DUP3 SWAP1 SUB PUSH1 0x1F AND DUP3 ADD SWAP2 JUMPDEST POP POP POP POP POP DUP2 MSTORE PUSH1 0x20 ADD PUSH1 0xF PUSH1 0x3 ADD DUP1 SLOAD PUSH2 0x2573 SWAP1 PUSH2 0x3E79 JUMP JUMPDEST DUP1 PUSH1 0x1F ADD PUSH1 0x20 DUP1 SWAP2 DIV MUL PUSH1 0x20 ADD PUSH1 0x40 MLOAD SWAP1 DUP2 ADD PUSH1 0x40 MSTORE DUP1 SWAP3 SWAP2 SWAP1 DUP2 DUP2 MSTORE PUSH1 0x20 ADD DUP3 DUP1 SLOAD PUSH2 0x259F SWAP1 PUSH2 0x3E79 JUMP JUMPDEST DUP1 ISZERO PUSH2 0x25EC JUMPI DUP1 PUSH1 0x1F LT PUSH2 0x25C1 JUMPI PUSH2 0x100 DUP1 DUP4 SLOAD DIV MUL DUP4 MSTORE SWAP2 PUSH1 0x20 ADD SWAP2 PUSH2 0x25EC JUMP JUMPDEST DUP3 ADD SWAP2 SWAP1 PUSH1 0x0 MSTORE PUSH1 0x20 PUSH1 0x0 KECCAK256 SWAP1 JUMPDEST DUP2 SLOAD DUP2 MSTORE SWAP1 PUSH1 0x1 ADD SWAP1 PUSH1 0x20 ADD DUP1 DUP4 GT PUSH2 0x25CF JUMPI DUP3 SWAP1 SUB PUSH1 0x1F AND DUP3 ADD SWAP2 JUMPDEST POP POP POP POP POP DUP2 MSTORE POP SWAP1 POP PUSH1 0x40 MLOAD DUP1 PUSH1 0xC0 ADD PUSH1 0x40 MSTORE DUP1 DUP3 DUP2 MSTORE PUSH1 0x20 ADD DUP4 DUP2 MSTORE PUSH1 0x20 ADD DUP5 DUP2 MSTORE PUSH1 0x20 ADD PUSH2 0x261B PUSH2 0x29CF JUMP JUMPDEST DUP2 MSTORE PUSH1 0x1B SLOAD PUSH1 0x20 DUP3 ADD MSTORE PUSH1 0xB SLOAD PUSH1 0x40 SWAP1 SWAP2 ADD MSTORE SWAP6 SWAP5 POP POP POP POP POP JUMP JUMPDEST PUSH1 0x0 DUP1 PUSH1 0x0 JUMPDEST PUSH1 0x8 SLOAD DUP2 LT ISZERO PUSH2 0x268B JUMPI PUSH1 0x8 DUP2 DUP2 SLOAD DUP2 LT PUSH2 0x265A JUMPI PUSH2 0x265A PUSH2 0x3CF9 JUMP JUMPDEST SWAP1 PUSH1 0x0 MSTORE PUSH1 0x20 PUSH1 0x0 KECCAK256 SWAP1 PUSH1 0x5 MUL ADD PUSH1 0x2 ADD SLOAD DUP3 PUSH2 0x2677 SWAP2 SWAP1 PUSH2 0x3D7D JUMP JUMPDEST SWAP2 POP DUP1 PUSH2 0x2683 DUP2 PUSH2 0x3D95 JUMP JUMPDEST SWAP2 POP POP PUSH2 0x263D JUMP JUMPDEST POP PUSH1 0x64 PUSH2 0x269C PUSH3 0xF4240 PUSH1 0x1E PUSH2 0x3D3C JUMP JUMPDEST PUSH2 0x26A6 SWAP2 SWAP1 PUSH2 0x3D5B JUMP JUMPDEST LT ISZERO SWAP2 SWAP1 POP JUMP JUMPDEST PUSH1 0xF DUP1 SLOAD PUSH1 0x10 DUP1 SLOAD PUSH1 0x1 PUSH1 0x1 PUSH1 0xA0 SHL SUB SWAP1 SWAP3 AND SWAP3 SWAP2 PUSH2 0x26CB SWAP1 PUSH2 0x3E79 JUMP JUMPDEST DUP1 PUSH1 0x1F ADD PUSH1 0x20 DUP1 SWAP2 DIV MUL PUSH1 0x20 ADD PUSH1 0x40 MLOAD SWAP1 DUP2 ADD PUSH1 0x40 MSTORE DUP1 SWAP3 SWAP2 SWAP1 DUP2 DUP2 MSTORE PUSH1 0x20 ADD DUP3 DUP1 SLOAD PUSH2 0x26F7 SWAP1 PUSH2 0x3E79 JUMP JUMPDEST DUP1 ISZERO PUSH2 0x2744 JUMPI DUP1 PUSH1 0x1F LT PUSH2 0x2719 JUMPI PUSH2 0x100 DUP1 DUP4 SLOAD DIV MUL DUP4 MSTORE SWAP2 PUSH1 0x20 ADD SWAP2 PUSH2 0x2744 JUMP JUMPDEST DUP3 ADD SWAP2 SWAP1 PUSH1 0x0 MSTORE PUSH1 0x20 PUSH1 0x0 KECCAK256 SWAP1 JUMPDEST DUP2 SLOAD DUP2 MSTORE SWAP1 PUSH1 0x1 ADD SWAP1 PUSH1 0x20 ADD DUP1 DUP4 GT PUSH2 0x2727 JUMPI DUP3 SWAP1 SUB PUSH1 0x1F AND DUP3 ADD SWAP2 JUMPDEST POP POP POP POP POP SWAP1 DUP1 PUSH1 0x2 ADD DUP1 SLOAD PUSH2 0x2759 SWAP1 PUSH2 0x3E79 JUMP JUMPDEST DUP1 PUSH1 0x1F ADD PUSH1 0x20 DUP1 SWAP2 DIV MUL PUSH1 0x20 ADD PUSH1 0x40 MLOAD SWAP1 DUP2 ADD PUSH1 0x40 MSTORE DUP1 SWAP3 SWAP2 SWAP1 DUP2 DUP2 MSTORE PUSH1 0x20 ADD DUP3 DUP1 SLOAD PUSH2 0x2785 SWAP1 PUSH2 0x3E79 JUMP JUMPDEST DUP1 ISZERO PUSH2 0x27D2 JUMPI DUP1 PUSH1 0x1F LT PUSH2 0x27A7 JUMPI PUSH2 0x100 DUP1 DUP4 SLOAD DIV MUL DUP4 MSTORE SWAP2 PUSH1 0x20 ADD SWAP2 PUSH2 0x27D2 JUMP JUMPDEST DUP3 ADD SWAP2 SWAP1 PUSH1 0x0 MSTORE PUSH1 0x20 PUSH1 0x0 KECCAK256 SWAP1 JUMPDEST DUP2 SLOAD DUP2 MSTORE SWAP1 PUSH1 0x1 ADD SWAP1 PUSH1 0x20 ADD DUP1 DUP4 GT PUSH2 0x27B5 JUMPI DUP3 SWAP1 SUB PUSH1 0x1F AND DUP3 ADD SWAP2 JUMPDEST POP POP POP POP POP SWAP1 DUP1 PUSH1 0x3 ADD DUP1 SLOAD PUSH2 0x27E7 SWAP1 PUSH2 0x3E79 JUMP JUMPDEST DUP1 PUSH1 0x1F ADD PUSH1 0x20 DUP1 SWAP2 DIV MUL PUSH1 0x20 ADD PUSH1 0x40 MLOAD SWAP1 DUP2 ADD PUSH1 0x40 MSTORE DUP1 SWAP3 SWAP2 SWAP1 DUP2 DUP2 MSTORE PUSH1 0x20 ADD DUP3 DUP1 SLOAD PUSH2 0x2813 SWAP1 PUSH2 0x3E79 JUMP JUMPDEST DUP1 ISZERO PUSH2 0x2860 JUMPI DUP1 PUSH1 0x1F LT PUSH2 0x2835 JUMPI PUSH2 0x100 DUP1 DUP4 SLOAD DIV MUL DUP4 MSTORE SWAP2 PUSH1 0x20 ADD SWAP2 PUSH2 0x2860 JUMP JUMPDEST DUP3 ADD SWAP2 SWAP1 PUSH1 0x0 MSTORE PUSH1 0x20 PUSH1 0x0 KECCAK256 SWAP1 JUMPDEST DUP2 SLOAD DUP2 MSTORE SWAP1 PUSH1 0x1 ADD SWAP1 PUSH1 0x20 ADD DUP1 DUP4 GT PUSH2 0x2843 JUMPI DUP3 SWAP1 SUB PUSH1 0x1F AND DUP3 ADD SWAP2 JUMPDEST POP POP POP POP POP SWAP1 DUP1 PUSH1 0x4 ADD SLOAD SWAP1 DUP1 PUSH1 0x5 ADD SLOAD SWAP1 DUP1 PUSH1 0x6 ADD SLOAD SWAP1 DUP1 PUSH1 0x7 ADD SLOAD SWAP1 DUP1 PUSH1 0x8 ADD SLOAD SWAP1 DUP1 PUSH1 0x9 ADD SLOAD SWAP1 DUP1 PUSH1 0xA ADD SLOAD SWAP1 DUP1 PUSH1 0xB ADD SLOAD SWAP1 DUP1 PUSH1 0xC ADD SLOAD SWAP1 POP DUP14 JUMP JUMPDEST PUSH1 0x60 DUP3 PUSH1 0x0 PUSH2 0x28AF DUP5 DUP4 PUSH2 0x3D7D JUMP JUMPDEST PUSH1 0x6 SLOAD SWAP1 SWAP2 POP DUP2 GT PUSH2 0x28C1 JUMPI DUP1 PUSH2 0x28C5 JUMP JUMPDEST PUSH1 0x6 SLOAD JUMPDEST SWAP1 POP PUSH1 0x0 DUP3 DUP3 GT PUSH2 0x28D7 JUMPI PUSH1 0x0 PUSH2 0x28E1 JUMP JUMPDEST PUSH2 0x28E1 DUP4 DUP4 PUSH2 0x3D25 JUMP JUMPDEST SWAP1 POP PUSH1 0x0 DUP2 PUSH8 0xFFFFFFFFFFFFFFFF DUP2 GT ISZERO PUSH2 0x28FE JUMPI PUSH2 0x28FE PUSH2 0x3E63 JUMP JUMPDEST PUSH1 0x40 MLOAD SWAP1 DUP1 DUP3 MSTORE DUP1 PUSH1 0x20 MUL PUSH1 0x20 ADD DUP3 ADD PUSH1 0x40 MSTORE DUP1 ISZERO PUSH2 0x2943 JUMPI DUP2 PUSH1 0x20 ADD JUMPDEST PUSH1 0x40 DUP1 MLOAD DUP1 DUP3 ADD SWAP1 SWAP2 MSTORE PUSH1 0x0 DUP1 DUP3 MSTORE PUSH1 0x20 DUP3 ADD MSTORE DUP2 MSTORE PUSH1 0x20 ADD SWAP1 PUSH1 0x1 SWAP1 SUB SWAP1 DUP2 PUSH2 0x291C JUMPI SWAP1 POP JUMPDEST POP SWAP1 POP DUP4 JUMPDEST DUP4 DUP2 LT ISZERO PUSH2 0x1908 JUMPI PUSH1 0x6 DUP2 DUP2 SLOAD DUP2 LT PUSH2 0x2963 JUMPI PUSH2 0x2963 PUSH2 0x3CF9 JUMP JUMPDEST PUSH1 0x0 SWAP2 DUP3 MSTORE PUSH1 0x20 SWAP2 DUP3 SWAP1 KECCAK256 PUSH1 0x40 DUP1 MLOAD DUP1 DUP3 ADD SWAP1 SWAP2 MSTORE PUSH1 0x2 SWAP1 SWAP3 MUL ADD DUP1 SLOAD PUSH1 0x1 PUSH1 0x1 PUSH1 0xA0 SHL SUB AND DUP3 MSTORE PUSH1 0x1 ADD SLOAD SWAP2 DUP2 ADD SWAP2 SWAP1 SWAP2 MSTORE DUP3 PUSH2 0x29A1 DUP8 DUP5 PUSH2 0x3D25 JUMP JUMPDEST DUP2 MLOAD DUP2 LT PUSH2 0x29B1 JUMPI PUSH2 0x29B1 PUSH2 0x3CF9 JUMP JUMPDEST PUSH1 0x20 MUL PUSH1 0x20 ADD ADD DUP2 SWAP1 MSTORE POP DUP1 DUP1 PUSH2 0x29C7 SWAP1 PUSH2 0x3D95 JUMP JUMPDEST SWAP2 POP POP PUSH2 0x2948 JUMP JUMPDEST PUSH1 0x60 PUSH1 0x0 PUSH2 0x29DB PUSH2 0x35A3 JUMP JUMPDEST PUSH1 0x8 SLOAD SWAP1 SWAP2 POP PUSH1 0x0 SWAP1 PUSH2 0x29EF SWAP1 PUSH1 0x3 PUSH2 0x3D7D JUMP JUMPDEST PUSH8 0xFFFFFFFFFFFFFFFF DUP2 GT ISZERO PUSH2 0x2A07 JUMPI PUSH2 0x2A07 PUSH2 0x3E63 JUMP JUMPDEST PUSH1 0x40 MLOAD SWAP1 DUP1 DUP3 MSTORE DUP1 PUSH1 0x20 MUL PUSH1 0x20 ADD DUP3 ADD PUSH1 0x40 MSTORE DUP1 ISZERO PUSH2 0x2A73 JUMPI DUP2 PUSH1 0x20 ADD JUMPDEST PUSH2 0x2A60 PUSH1 0x40 MLOAD DUP1 PUSH1 0xA0 ADD PUSH1 0x40 MSTORE DUP1 PUSH1 0x0 PUSH1 0x1 PUSH1 0x1 PUSH1 0xA0 SHL SUB AND DUP2 MSTORE PUSH1 0x20 ADD PUSH1 0x60 DUP2 MSTORE PUSH1 0x20 ADD PUSH1 0x0 DUP2 MSTORE PUSH1 0x20 ADD PUSH1 0x0 DUP2 MSTORE PUSH1 0x20 ADD PUSH1 0x0 DUP2 MSTORE POP SWAP1 JUMP JUMPDEST DUP2 MSTORE PUSH1 0x20 ADD SWAP1 PUSH1 0x1 SWAP1 SUB SWAP1 DUP2 PUSH2 0x2A25 JUMPI SWAP1 POP JUMPDEST POP SWAP1 POP PUSH1 0x40 MLOAD DUP1 PUSH1 0xA0 ADD PUSH1 0x40 MSTORE DUP1 PUSH1 0x1 PUSH1 0x1 PUSH1 0x1 PUSH1 0xA0 SHL SUB AND DUP2 MSTORE PUSH1 0x20 ADD PUSH1 0x40 MLOAD DUP1 PUSH1 0x40 ADD PUSH1 0x40 MSTORE DUP1 PUSH1 0x9 DUP2 MSTORE PUSH1 0x20 ADD PUSH9 0x4C6971756964697479 PUSH1 0xB8 SHL DUP2 MSTORE POP DUP2 MSTORE PUSH1 0x20 ADD DUP4 DUP2 MSTORE PUSH1 0x20 ADD PUSH1 0xF PUSH1 0x4 ADD SLOAD DUP2 MSTORE PUSH1 0x20 ADD PUSH1 0x0 DUP2 MSTORE POP DUP2 PUSH1 0x0 DUP2 MLOAD DUP2 LT PUSH2 0x2AE1 JUMPI PUSH2 0x2AE1 PUSH2 0x3CF9 JUMP JUMPDEST PUSH1 0x20 MUL PUSH1 0x20 ADD ADD DUP2 SWAP1 MSTORE POP PUSH1 0x40 MLOAD DUP1 PUSH1 0xA0 ADD PUSH1 0x40 MSTORE DUP1 PUSH1 0x2 PUSH1 0x1 PUSH1 0x1 PUSH1 0xA0 SHL SUB AND DUP2 MSTORE PUSH1 0x20 ADD PUSH1 0x40 MLOAD DUP1 PUSH1 0x40 ADD PUSH1 0x40 MSTORE DUP1 PUSH1 0x7 DUP2 MSTORE PUSH1 0x20 ADD PUSH7 0x50726573616C65 PUSH1 0xC8 SHL DUP2 MSTORE POP DUP2 MSTORE PUSH1 0x20 ADD DUP4 DUP2 MSTORE PUSH1 0x20 ADD PUSH1 0xF PUSH1 0x5 ADD SLOAD DUP2 MSTORE PUSH1 0x20 ADD PUSH1 0xF PUSH1 0x6 ADD SLOAD DUP2 MSTORE POP DUP2 PUSH1 0x1 DUP2 MLOAD DUP2 LT PUSH2 0x2B59 JUMPI PUSH2 0x2B59 PUSH2 0x3CF9 JUMP JUMPDEST PUSH1 0x20 MUL PUSH1 0x20 ADD ADD DUP2 SWAP1 MSTORE POP PUSH1 0x40 MLOAD DUP1 PUSH1 0xA0 ADD PUSH1 0x40 MSTORE DUP1 PUSH1 0x3 PUSH1 0x1 PUSH1 0x1 PUSH1 0xA0 SHL SUB AND DUP2 MSTORE PUSH1 0x20 ADD PUSH1 0x40 MLOAD DUP1 PUSH1 0x40 ADD PUSH1 0x40 MSTORE DUP1 PUSH1 0x9 DUP2 MSTORE PUSH1 0x20 ADD PUSH9 0x526566657272616C73 PUSH1 0xB8 SHL DUP2 MSTORE POP DUP2 MSTORE PUSH1 0x20 ADD PUSH3 0xF4240 PUSH1 0x9 SLOAD DUP6 PUSH2 0x2BB8 SWAP2 SWAP1 PUSH2 0x3D3C JUMP JUMPDEST PUSH2 0x2BC2 SWAP2 SWAP1 PUSH2 0x3D5B JUMP JUMPDEST DUP2 MSTORE PUSH1 0x16 SLOAD PUSH1 0x20 DUP3 ADD MSTORE PUSH1 0x17 SLOAD PUSH1 0x40 SWAP1 SWAP2 ADD MSTORE DUP2 MLOAD DUP3 SWAP1 PUSH1 0x2 SWAP1 DUP2 LT PUSH2 0x2BEA JUMPI PUSH2 0x2BEA PUSH2 0x3CF9 JUMP JUMPDEST PUSH1 0x20 MUL PUSH1 0x20 ADD ADD DUP2 SWAP1 MSTORE POP PUSH1 0x0 JUMPDEST PUSH1 0x8 SLOAD DUP2 LT ISZERO PUSH2 0x2D31 JUMPI PUSH1 0x8 DUP2 DUP2 SLOAD DUP2 LT PUSH2 0x2C15 JUMPI PUSH2 0x2C15 PUSH2 0x3CF9 JUMP JUMPDEST PUSH1 0x0 SWAP2 DUP3 MSTORE PUSH1 0x20 SWAP2 DUP3 SWAP1 KECCAK256 PUSH1 0x40 DUP1 MLOAD PUSH1 0xA0 DUP2 ADD SWAP1 SWAP2 MSTORE PUSH1 0x5 SWAP1 SWAP3 MUL ADD DUP1 SLOAD PUSH1 0x1 PUSH1 0x1 PUSH1 0xA0 SHL SUB AND DUP3 MSTORE PUSH1 0x1 DUP2 ADD DUP1 SLOAD SWAP3 SWAP4 SWAP2 SWAP3 SWAP2 DUP5 ADD SWAP2 PUSH2 0x2C55 SWAP1 PUSH2 0x3E79 JUMP JUMPDEST DUP1 PUSH1 0x1F ADD PUSH1 0x20 DUP1 SWAP2 DIV MUL PUSH1 0x20 ADD PUSH1 0x40 MLOAD SWAP1 DUP2 ADD PUSH1 0x40 MSTORE DUP1 SWAP3 SWAP2 SWAP1 DUP2 DUP2 MSTORE PUSH1 0x20 ADD DUP3 DUP1 SLOAD PUSH2 0x2C81 SWAP1 PUSH2 0x3E79 JUMP JUMPDEST DUP1 ISZERO PUSH2 0x2CCE JUMPI DUP1 PUSH1 0x1F LT PUSH2 0x2CA3 JUMPI PUSH2 0x100 DUP1 DUP4 SLOAD DIV MUL DUP4 MSTORE SWAP2 PUSH1 0x20 ADD SWAP2 PUSH2 0x2CCE JUMP JUMPDEST DUP3 ADD SWAP2 SWAP1 PUSH1 0x0 MSTORE PUSH1 0x20 PUSH1 0x0 KECCAK256 SWAP1 JUMPDEST DUP2 SLOAD DUP2 MSTORE SWAP1 PUSH1 0x1 ADD SWAP1 PUSH1 0x20 ADD DUP1 DUP4 GT PUSH2 0x2CB1 JUMPI DUP3 SWAP1 SUB PUSH1 0x1F AND DUP3 ADD SWAP2 JUMPDEST POP POP POP POP POP DUP2 MSTORE PUSH1 0x20 ADD PUSH1 0x2 DUP3 ADD SLOAD DUP2 MSTORE PUSH1 0x20 ADD PUSH1 0x3 DUP3 ADD SLOAD DUP2 MSTORE PUSH1 0x20 ADD PUSH1 0x4 DUP3 ADD SLOAD DUP2 MSTORE POP POP DUP3 DUP3 PUSH1 0x3 PUSH2 0x2D03 SWAP2 SWAP1 PUSH2 0x3D7D JUMP JUMPDEST DUP2 MLOAD DUP2 LT PUSH2 0x2D13 JUMPI PUSH2 0x2D13 PUSH2 0x3CF9 JUMP JUMPDEST PUSH1 0x20 MUL PUSH1 0x20 ADD ADD DUP2 SWAP1 MSTORE POP DUP1 DUP1 PUSH2 0x2D29 SWAP1 PUSH2 0x3D95 JUMP JUMPDEST SWAP2 POP POP PUSH2 0x2BF8 JUMP JUMPDEST POP SWAP3 SWAP2 POP POP JUMP JUMPDEST PUSH1 0x0 SLOAD PUSH1 0x1 PUSH1 0x1 PUSH1 0xA0 SHL SUB AND CALLER EQ PUSH2 0x2D62 JUMPI PUSH1 0x40 MLOAD PUSH3 0x461BCD PUSH1 0xE5 SHL DUP2 MSTORE PUSH1 0x4 ADD PUSH2 0x5E1 SWAP1 PUSH2 0x3DB0 JUMP JUMPDEST PUSH1 0x1 PUSH1 0x1 PUSH1 0xA0 SHL SUB DUP2 AND PUSH2 0x2DC7 JUMPI PUSH1 0x40 MLOAD PUSH3 0x461BCD PUSH1 0xE5 SHL DUP2 MSTORE PUSH1 0x20 PUSH1 0x4 DUP3 ADD MSTORE PUSH1 0x26 PUSH1 0x24 DUP3 ADD MSTORE PUSH32 0x4F776E61626C653A206E6577206F776E657220697320746865207A65726F2061 PUSH1 0x44 DUP3 ADD MSTORE PUSH6 0x646472657373 PUSH1 0xD0 SHL PUSH1 0x64 DUP3 ADD MSTORE PUSH1 0x84 ADD PUSH2 0x5E1 JUMP JUMPDEST PUSH1 0x0 DUP1 SLOAD PUSH1 0x40 MLOAD PUSH1 0x1 PUSH1 0x1 PUSH1 0xA0 SHL SUB DUP1 DUP6 AND SWAP4 SWAP3 AND SWAP2 PUSH32 0x8BE0079C531659141344CD1FD0A4F28419497F9722A3DAAFE3B4186F6B6457E0 SWAP2 LOG3 PUSH1 0x0 DUP1 SLOAD PUSH1 0x1 PUSH1 0x1 PUSH1 0xA0 SHL SUB NOT AND PUSH1 0x1 PUSH1 0x1 PUSH1 0xA0 SHL SUB SWAP3 SWAP1 SWAP3 AND SWAP2 SWAP1 SWAP2 OR SWAP1 SSTORE JUMP JUMPDEST PUSH1 0x1 PUSH1 0x1 PUSH1 0xA0 SHL SUB DUP2 AND PUSH1 0x0 SWAP1 DUP2 MSTORE PUSH1 0x3 PUSH1 0x20 MSTORE PUSH1 0x40 DUP2 KECCAK256 SLOAD DUP2 SWAP1 PUSH1 0x4 SWAP1 PUSH2 0x2E4C SWAP1 PUSH1 0x1 SWAP1 PUSH2 0x3D25 JUMP JUMPDEST DUP2 SLOAD DUP2 LT PUSH2 0x2E5C JUMPI PUSH2 0x2E5C PUSH2 0x3CF9 JUMP JUMPDEST PUSH1 0x0 SWAP2 DUP3 MSTORE PUSH1 0x20 SWAP2 DUP3 SWAP1 KECCAK256 PUSH1 0x40 DUP1 MLOAD PUSH1 0xA0 DUP2 ADD DUP3 MSTORE PUSH1 0x5 SWAP1 SWAP4 MUL SWAP1 SWAP2 ADD DUP1 SLOAD PUSH1 0x1 PUSH1 0x1 PUSH1 0xA0 SHL SUB AND DUP4 MSTORE PUSH1 0x1 DUP2 ADD SLOAD SWAP4 DUP4 ADD SWAP4 SWAP1 SWAP4 MSTORE PUSH1 0x2 DUP4 ADD SLOAD SWAP1 DUP3 ADD MSTORE PUSH1 0x3 DUP3 ADD SLOAD PUSH1 0x60 DUP3 ADD DUP2 SWAP1 MSTORE PUSH1 0x4 SWAP1 SWAP3 ADD SLOAD PUSH1 0x80 DUP3 ADD MSTORE SWAP2 POP TIMESTAMP GT ISZERO DUP1 PUSH2 0x2EC9 JUMPI POP DUP1 PUSH1 0x80 ADD MLOAD DUP2 PUSH1 0x60 ADD MLOAD GT JUMPDEST ISZERO PUSH2 0x2ED7 JUMPI POP PUSH1 0x0 SWAP3 SWAP2 POP POP JUMP JUMPDEST DUP1 PUSH1 0x80 ADD MLOAD TIMESTAMP LT PUSH2 0x2EFD JUMPI DUP1 PUSH1 0x40 ADD MLOAD DUP2 PUSH1 0x20 ADD MLOAD PUSH2 0x2EF6 SWAP2 SWAP1 PUSH2 0x3D25 JUMP JUMPDEST SWAP4 SWAP3 POP POP POP JUMP JUMPDEST PUSH1 0x0 DUP2 PUSH1 0x60 ADD MLOAD DUP3 PUSH1 0x80 ADD MLOAD PUSH2 0x2F13 SWAP2 SWAP1 PUSH2 0x3D25 JUMP JUMPDEST PUSH1 0x60 DUP4 ADD MLOAD PUSH2 0x2F22 SWAP1 TIMESTAMP PUSH2 0x3D25 JUMP JUMPDEST DUP4 PUSH1 0x20 ADD MLOAD PUSH2 0x2F31 SWAP2 SWAP1 PUSH2 0x3D3C JUMP JUMPDEST PUSH2 0x2F3B SWAP2 SWAP1 PUSH2 0x3D5B JUMP JUMPDEST SWAP1 POP DUP2 PUSH1 0x40 ADD MLOAD DUP2 GT PUSH2 0x2F52 JUMPI POP PUSH1 0x0 SWAP4 SWAP3 POP POP POP JUMP JUMPDEST PUSH1 0x40 DUP3 ADD MLOAD PUSH2 0x2F61 SWAP1 DUP3 PUSH2 0x3D25 JUMP JUMPDEST SWAP5 SWAP4 POP POP POP POP JUMP JUMPDEST CALLER PUSH1 0x0 SWAP1 DUP2 MSTORE PUSH1 0x3 PUSH1 0x20 MSTORE PUSH1 0x40 DUP2 KECCAK256 SLOAD PUSH1 0x4 SWAP1 PUSH2 0x2F88 SWAP1 PUSH1 0x1 SWAP1 PUSH2 0x3D25 JUMP JUMPDEST DUP2 SLOAD DUP2 LT PUSH2 0x2F98 JUMPI PUSH2 0x2F98 PUSH2 0x3CF9 JUMP JUMPDEST PUSH1 0x0 SWAP2 DUP3 MSTORE PUSH1 0x20 SWAP2 DUP3 SWAP1 KECCAK256 PUSH1 0x40 DUP1 MLOAD PUSH1 0xA0 DUP2 ADD DUP3 MSTORE PUSH1 0x5 SWAP1 SWAP4 MUL SWAP1 SWAP2 ADD DUP1 SLOAD PUSH1 0x1 PUSH1 0x1 PUSH1 0xA0 SHL SUB AND DUP4 MSTORE PUSH1 0x1 DUP2 ADD SLOAD SWAP4 DUP4 ADD SWAP4 SWAP1 SWAP4 MSTORE PUSH1 0x2 DUP4 ADD SLOAD SWAP1 DUP3 ADD MSTORE PUSH1 0x3 DUP3 ADD SLOAD PUSH1 0x60 DUP3 ADD DUP2 SWAP1 MSTORE PUSH1 0x4 SWAP1 SWAP3 ADD SLOAD PUSH1 0x80 DUP3 ADD MSTORE SWAP2 POP TIMESTAMP LT ISZERO PUSH2 0x3049 JUMPI PUSH1 0x40 MLOAD PUSH3 0x461BCD PUSH1 0xE5 SHL DUP2 MSTORE PUSH1 0x20 PUSH1 0x4 DUP3 ADD MSTORE PUSH1 0x21 PUSH1 0x24 DUP3 ADD MSTORE PUSH32 0x50523A204C6F636B656420706572696F64206973206E6F74206F766572207965 PUSH1 0x44 DUP3 ADD MSTORE PUSH1 0x1D PUSH1 0xFA SHL PUSH1 0x64 DUP3 ADD MSTORE PUSH1 0x84 ADD PUSH2 0x5E1 JUMP JUMPDEST DUP1 PUSH1 0x20 ADD MLOAD DUP2 PUSH1 0x40 ADD MLOAD LT PUSH2 0x30B2 JUMPI PUSH1 0x40 MLOAD PUSH3 0x461BCD PUSH1 0xE5 SHL DUP2 MSTORE PUSH1 0x20 PUSH1 0x4 DUP3 ADD MSTORE PUSH1 0x29 PUSH1 0x24 DUP3 ADD MSTORE PUSH32 0x50523A20596F75206861766520616C7265616479207265636569766564203130 PUSH1 0x44 DUP3 ADD MSTORE PUSH9 0x302520746F6B656E73 PUSH1 0xB8 SHL PUSH1 0x64 DUP3 ADD MSTORE PUSH1 0x84 ADD PUSH2 0x5E1 JUMP JUMPDEST PUSH1 0x0 PUSH2 0x30BD CALLER PUSH2 0x2E22 JUMP JUMPDEST SWAP1 POP PUSH1 0x0 DUP2 GT PUSH2 0x312B JUMPI PUSH1 0x40 MLOAD PUSH3 0x461BCD PUSH1 0xE5 SHL DUP2 MSTORE PUSH1 0x20 PUSH1 0x4 DUP3 ADD MSTORE PUSH1 0x33 PUSH1 0x24 DUP3 ADD MSTORE PUSH32 0x50523A20546865726520617265203020746F6B656E7320617661696C61626C65 PUSH1 0x44 DUP3 ADD MSTORE PUSH19 0x20746F20636C61696D207269676874206E6F77 PUSH1 0x68 SHL PUSH1 0x64 DUP3 ADD MSTORE PUSH1 0x84 ADD PUSH2 0x5E1 JUMP JUMPDEST CALLER PUSH1 0x0 SWAP1 DUP2 MSTORE PUSH1 0x3 PUSH1 0x20 MSTORE PUSH1 0x40 SWAP1 KECCAK256 SLOAD DUP2 SWAP1 PUSH1 0x4 SWAP1 PUSH2 0x314C SWAP1 PUSH1 0x1 SWAP1 PUSH2 0x3D25 JUMP JUMPDEST DUP2 SLOAD DUP2 LT PUSH2 0x315C JUMPI PUSH2 0x315C PUSH2 0x3CF9 JUMP JUMPDEST SWAP1 PUSH1 0x0 MSTORE PUSH1 0x20 PUSH1 0x0 KECCAK256 SWAP1 PUSH1 0x5 MUL ADD PUSH1 0x2 ADD PUSH1 0x0 DUP3 DUP3 SLOAD PUSH2 0x317C SWAP2 SWAP1 PUSH2 0x3D7D JUMP JUMPDEST SWAP1 SWAP2 SSTORE POP POP PUSH1 0xF SLOAD PUSH1 0x40 MLOAD PUSH4 0xBB9FF5D PUSH1 0xE0 SHL DUP2 MSTORE CALLER PUSH1 0x4 DUP3 ADD MSTORE PUSH1 0x24 DUP2 ADD DUP4 SWAP1 MSTORE PUSH1 0x1 PUSH1 0x1 PUSH1 0xA0 SHL SUB SWAP1 SWAP2 AND SWAP1 PUSH4 0xBB9FF5D SWAP1 PUSH1 0x44 ADD PUSH1 0x0 PUSH1 0x40 MLOAD DUP1 DUP4 SUB DUP2 PUSH1 0x0 DUP8 DUP1 EXTCODESIZE ISZERO DUP1 ISZERO PUSH2 0x31CD JUMPI PUSH1 0x0 DUP1 REVERT JUMPDEST POP GAS CALL ISZERO DUP1 ISZERO PUSH2 0x31E1 JUMPI RETURNDATASIZE PUSH1 0x0 DUP1 RETURNDATACOPY RETURNDATASIZE PUSH1 0x0 REVERT JUMPDEST POP POP POP POP POP POP JUMP JUMPDEST PUSH1 0x0 DUP1 SLOAD DUP3 SWAP2 SWAP1 PUSH1 0xFF PUSH1 0xA0 SHL NOT AND PUSH1 0x1 PUSH1 0xA0 SHL DUP4 PUSH1 0x7 DUP2 GT ISZERO PUSH2 0x320E JUMPI PUSH2 0x320E PUSH2 0x3BC6 JUMP JUMPDEST MUL OR SWAP1 SSTORE POP PUSH32 0x551DC40198CC79684BB69E4931DBA4AC16E4598792EE1C0A5000AEEA366D7BB6 DUP2 PUSH1 0x40 MLOAD PUSH2 0x3242 SWAP2 SWAP1 PUSH2 0x3BDC JUMP JUMPDEST PUSH1 0x40 MLOAD DUP1 SWAP2 SUB SWAP1 LOG1 POP JUMP JUMPDEST PUSH1 0x1 PUSH1 0x1 PUSH1 0xA0 SHL SUB DUP4 AND PUSH1 0x0 SWAP1 DUP2 MSTORE PUSH1 0x1 PUSH1 0x20 MSTORE PUSH1 0x40 SWAP1 KECCAK256 SLOAD PUSH2 0x3351 JUMPI PUSH1 0x40 DUP1 MLOAD PUSH1 0x60 DUP2 ADD DUP3 MSTORE PUSH1 0x1 PUSH1 0x1 PUSH1 0xA0 SHL SUB DUP1 DUP7 AND DUP1 DUP4 MSTORE DUP6 DUP3 AND PUSH1 0x20 DUP1 DUP6 ADD SWAP2 DUP3 MSTORE DUP5 DUP7 ADD DUP8 DUP2 MSTORE PUSH1 0x2 DUP1 SLOAD PUSH1 0x1 DUP2 DUP2 ADD DUP4 SSTORE PUSH1 0x0 DUP4 DUP2 MSTORE SWAP9 MLOAD PUSH1 0x3 SWAP1 SWAP3 MUL PUSH32 0x405787FA12A823E0F2B7631CC41B3BA8828B3321CA811111FA75CD3AA3BB5ACE DUP2 ADD DUP1 SLOAD SWAP4 DUP11 AND PUSH1 0x1 PUSH1 0x1 PUSH1 0xA0 SHL SUB NOT SWAP5 DUP6 AND OR SWAP1 SSTORE SWAP6 MLOAD PUSH32 0x405787FA12A823E0F2B7631CC41B3BA8828B3321CA811111FA75CD3AA3BB5ACF DUP8 ADD DUP1 SLOAD SWAP2 SWAP1 SWAP10 AND SWAP3 AND SWAP2 SWAP1 SWAP2 OR SWAP1 SWAP7 SSTORE SWAP1 MLOAD PUSH32 0x405787FA12A823E0F2B7631CC41B3BA8828B3321CA811111FA75CD3AA3BB5AD0 SWAP1 SWAP4 ADD SWAP3 SWAP1 SWAP3 SSTORE SWAP1 SLOAD SWAP2 DUP5 MSTORE SWAP2 SWAP1 SWAP2 MSTORE SWAP2 SWAP1 KECCAK256 SSTORE PUSH2 0x344E JUMP JUMPDEST PUSH1 0x1 PUSH1 0x1 PUSH1 0xA0 SHL SUB DUP4 AND PUSH1 0x0 SWAP1 DUP2 MSTORE PUSH1 0x1 PUSH1 0x20 DUP2 SWAP1 MSTORE PUSH1 0x40 DUP3 KECCAK256 SLOAD DUP4 SWAP2 PUSH1 0x2 SWAP2 PUSH2 0x337B SWAP2 SWAP1 PUSH2 0x3D25 JUMP JUMPDEST DUP2 SLOAD DUP2 LT PUSH2 0x338B JUMPI PUSH2 0x338B PUSH2 0x3CF9 JUMP JUMPDEST SWAP1 PUSH1 0x0 MSTORE PUSH1 0x20 PUSH1 0x0 KECCAK256 SWAP1 PUSH1 0x3 MUL ADD PUSH1 0x2 ADD SLOAD PUSH2 0x33A7 SWAP2 SWAP1 PUSH2 0x3D7D JUMP JUMPDEST PUSH1 0x1A SLOAD SWAP1 SWAP2 POP DUP2 GT ISZERO PUSH2 0x33FC JUMPI PUSH1 0x40 MLOAD PUSH3 0x461BCD PUSH1 0xE5 SHL DUP2 MSTORE PUSH1 0x20 PUSH1 0x4 DUP3 ADD MSTORE PUSH1 0x1F PUSH1 0x24 DUP3 ADD MSTORE PUSH32 0x50523A204D617820636170207065722077616C6C657420657863656564656400 PUSH1 0x44 DUP3 ADD MSTORE PUSH1 0x64 ADD PUSH2 0x5E1 JUMP JUMPDEST PUSH1 0x1 PUSH1 0x1 PUSH1 0xA0 SHL SUB DUP5 AND PUSH1 0x0 SWAP1 DUP2 MSTORE PUSH1 0x1 PUSH1 0x20 DUP2 SWAP1 MSTORE PUSH1 0x40 SWAP1 SWAP2 KECCAK256 SLOAD DUP3 SWAP2 PUSH1 0x2 SWAP2 PUSH2 0x3427 SWAP2 SWAP1 PUSH2 0x3D25 JUMP JUMPDEST DUP2 SLOAD DUP2 LT PUSH2 0x3437 JUMPI PUSH2 0x3437 PUSH2 0x3CF9 JUMP JUMPDEST SWAP1 PUSH1 0x0 MSTORE PUSH1 0x20 PUSH1 0x0 KECCAK256 SWAP1 PUSH1 0x3 MUL ADD PUSH1 0x2 ADD DUP2 SWAP1 SSTORE POP POP JUMPDEST DUP1 PUSH1 0xA PUSH1 0x0 DUP3 DUP3 SLOAD PUSH2 0x3460 SWAP2 SWAP1 PUSH2 0x3D7D JUMP JUMPDEST SWAP1 SWAP2 SSTORE POP PUSH2 0xAC3 SWAP1 POP DUP4 PUSH2 0x363D JUMP JUMPDEST PUSH1 0x1 PUSH1 0x1 PUSH1 0xA0 SHL SUB DUP3 AND PUSH1 0x0 SWAP1 DUP2 MSTORE PUSH1 0x5 PUSH1 0x20 MSTORE PUSH1 0x40 SWAP1 KECCAK256 SLOAD PUSH2 0x3536 JUMPI PUSH1 0x40 DUP1 MLOAD DUP1 DUP3 ADD DUP3 MSTORE PUSH1 0x1 PUSH1 0x1 PUSH1 0xA0 SHL SUB DUP5 DUP2 AND DUP1 DUP4 MSTORE PUSH1 0x20 DUP1 DUP5 ADD DUP7 DUP2 MSTORE PUSH1 0x6 DUP1 SLOAD PUSH1 0x1 DUP2 ADD DUP3 SSTORE PUSH1 0x0 DUP3 DUP2 MSTORE SWAP7 MLOAD PUSH32 0xF652222313E28459528D920B65115C16C04F3EFC82AAEDC97BE59F3F377C0D3F PUSH1 0x2 SWAP1 SWAP3 MUL SWAP2 DUP3 ADD DUP1 SLOAD PUSH1 0x1 PUSH1 0x1 PUSH1 0xA0 SHL SUB NOT AND SWAP2 SWAP1 SWAP8 AND OR SWAP1 SWAP6 SSTORE SWAP1 MLOAD PUSH32 0xF652222313E28459528D920B65115C16C04F3EFC82AAEDC97BE59F3F377C0D40 SWAP1 SWAP5 ADD SWAP4 SWAP1 SWAP4 SSTORE SWAP2 SLOAD SWAP1 DUP4 MSTORE PUSH1 0x5 SWAP1 SWAP2 MSTORE SWAP2 SWAP1 KECCAK256 SSTORE PUSH2 0x3596 JUMP JUMPDEST PUSH1 0x1 PUSH1 0x1 PUSH1 0xA0 SHL SUB DUP3 AND PUSH1 0x0 SWAP1 DUP2 MSTORE PUSH1 0x5 PUSH1 0x20 MSTORE PUSH1 0x40 SWAP1 KECCAK256 SLOAD DUP2 SWAP1 PUSH1 0x6 SWAP1 PUSH2 0x3560 SWAP1 PUSH1 0x1 SWAP1 PUSH2 0x3D25 JUMP JUMPDEST DUP2 SLOAD DUP2 LT PUSH2 0x3570 JUMPI PUSH2 0x3570 PUSH2 0x3CF9 JUMP JUMPDEST SWAP1 PUSH1 0x0 MSTORE PUSH1 0x20 PUSH1 0x0 KECCAK256 SWAP1 PUSH1 0x2 MUL ADD PUSH1 0x1 ADD PUSH1 0x0 DUP3 DUP3 SLOAD PUSH2 0x3590 SWAP2 SWAP1 PUSH2 0x3D7D JUMP JUMPDEST SWAP1 SWAP2 SSTORE POP POP JUMPDEST PUSH2 0x359F DUP3 PUSH2 0x363D JUMP JUMPDEST POP POP JUMP JUMPDEST PUSH1 0x0 DUP1 PUSH1 0x0 JUMPDEST PUSH1 0x8 SLOAD DUP2 LT ISZERO PUSH2 0x35F7 JUMPI PUSH1 0x8 DUP2 DUP2 SLOAD DUP2 LT PUSH2 0x35C6 JUMPI PUSH2 0x35C6 PUSH2 0x3CF9 JUMP JUMPDEST SWAP1 PUSH1 0x0 MSTORE PUSH1 0x20 PUSH1 0x0 KECCAK256 SWAP1 PUSH1 0x5 MUL ADD PUSH1 0x2 ADD SLOAD DUP3 PUSH2 0x35E3 SWAP2 SWAP1 PUSH2 0x3D7D JUMP JUMPDEST SWAP2 POP DUP1 PUSH2 0x35EF DUP2 PUSH2 0x3D95 JUMP JUMPDEST SWAP2 POP POP PUSH2 0x35A9 JUMP JUMPDEST POP PUSH1 0x9 SLOAD PUSH2 0x3609 PUSH3 0xF4240 PUSH1 0x2 PUSH2 0x3D3C JUMP JUMPDEST PUSH2 0x3613 SWAP2 SWAP1 PUSH2 0x3D7D JUMP JUMPDEST PUSH2 0x3620 DUP3 PUSH3 0xF4240 PUSH2 0x3D25 JUMP JUMPDEST PUSH2 0x362D SWAP1 PUSH3 0xF4240 PUSH2 0x3D3C JUMP JUMPDEST PUSH2 0x3637 SWAP2 SWAP1 PUSH2 0x3D5B JUMP JUMPDEST SWAP2 POP POP SWAP1 JUMP JUMPDEST PUSH1 0x1 PUSH1 0x1 PUSH1 0xA0 SHL SUB DUP2 AND PUSH1 0x0 SWAP1 DUP2 MSTORE PUSH1 0x3 PUSH1 0x20 MSTORE PUSH1 0x40 SWAP1 KECCAK256 SLOAD PUSH2 0xE0E JUMPI PUSH1 0x40 DUP1 MLOAD PUSH1 0xA0 DUP2 ADD DUP3 MSTORE PUSH1 0x1 PUSH1 0x1 PUSH1 0xA0 SHL SUB SWAP3 DUP4 AND DUP1 DUP3 MSTORE PUSH1 0x0 PUSH1 0x20 DUP1 DUP5 ADD DUP3 DUP2 MSTORE DUP5 DUP7 ADD DUP4 DUP2 MSTORE TIMESTAMP PUSH1 0x60 DUP8 ADD DUP2 DUP2 MSTORE PUSH1 0x80 DUP9 ADD SWAP2 DUP3 MSTORE PUSH1 0x4 DUP1 SLOAD PUSH1 0x1 DUP2 ADD DUP3 SSTORE DUP2 DUP9 MSTORE SWAP9 MLOAD PUSH32 0x8A35ACFBC15FF81A39AE7D344FD709F28E8600B4AA8C65C6B64BFE7FE36BD19B PUSH1 0x5 SWAP1 SWAP11 MUL SWAP10 DUP11 ADD DUP1 SLOAD PUSH1 0x1 PUSH1 0x1 PUSH1 0xA0 SHL SUB NOT AND SWAP2 SWAP1 SWAP13 AND OR SWAP1 SWAP11 SSTORE SWAP3 MLOAD PUSH32 0x8A35ACFBC15FF81A39AE7D344FD709F28E8600B4AA8C65C6B64BFE7FE36BD19C DUP9 ADD SSTORE SWAP1 MLOAD PUSH32 0x8A35ACFBC15FF81A39AE7D344FD709F28E8600B4AA8C65C6B64BFE7FE36BD19D DUP8 ADD SSTORE SWAP1 MLOAD PUSH32 0x8A35ACFBC15FF81A39AE7D344FD709F28E8600B4AA8C65C6B64BFE7FE36BD19E DUP7 ADD SSTORE MLOAD PUSH32 0x8A35ACFBC15FF81A39AE7D344FD709F28E8600B4AA8C65C6B64BFE7FE36BD19F SWAP1 SWAP5 ADD SWAP4 SWAP1 SWAP4 SSTORE SWAP4 SLOAD SWAP1 DUP5 MSTORE PUSH1 0x3 SWAP1 SWAP2 MSTORE SWAP2 KECCAK256 SSTORE JUMP JUMPDEST PUSH1 0x40 MLOAD DUP1 PUSH1 0xC0 ADD PUSH1 0x40 MSTORE DUP1 PUSH2 0x37E7 PUSH1 0x40 MLOAD DUP1 PUSH2 0x100 ADD PUSH1 0x40 MSTORE DUP1 PUSH1 0x0 PUSH1 0x1 PUSH1 0x1 PUSH1 0xA0 SHL SUB AND DUP2 MSTORE PUSH1 0x20 ADD PUSH1 0x60 DUP2 MSTORE PUSH1 0x20 ADD PUSH1 0x0 DUP2 MSTORE PUSH1 0x20 ADD PUSH1 0x0 DUP2 MSTORE PUSH1 0x20 ADD PUSH1 0x0 ISZERO ISZERO DUP2 MSTORE PUSH1 0x20 ADD PUSH1 0x0 ISZERO ISZERO DUP2 MSTORE PUSH1 0x20 ADD PUSH1 0x60 DUP2 MSTORE PUSH1 0x20 ADD PUSH1 0x60 DUP2 MSTORE POP SWAP1 JUMP JUMPDEST DUP2 MSTORE PUSH1 0x20 ADD PUSH2 0x37F4 PUSH2 0x381C JUMP JUMPDEST DUP2 MSTORE PUSH1 0x20 ADD PUSH2 0x3801 PUSH2 0x381C JUMP JUMPDEST DUP2 MSTORE PUSH1 0x20 ADD PUSH1 0x60 DUP2 MSTORE PUSH1 0x20 ADD PUSH1 0x0 DUP2 MSTORE PUSH1 0x20 ADD PUSH1 0x0 DUP2 MSTORE POP SWAP1 JUMP JUMPDEST PUSH1 0x40 MLOAD DUP1 PUSH1 0xA0 ADD PUSH1 0x40 MSTORE DUP1 PUSH1 0x0 PUSH1 0x1 PUSH1 0x1 PUSH1 0xA0 SHL SUB AND DUP2 MSTORE PUSH1 0x20 ADD PUSH1 0x0 DUP2 MSTORE PUSH1 0x20 ADD PUSH1 0x0 DUP2 MSTORE PUSH1 0x20 ADD PUSH1 0x0 DUP2 MSTORE PUSH1 0x20 ADD PUSH1 0x0 DUP2 MSTORE POP SWAP1 JUMP JUMPDEST PUSH1 0x0 DUP1 PUSH1 0x40 DUP4 DUP6 SUB SLT ISZERO PUSH2 0x3867 JUMPI PUSH1 0x0 DUP1 REVERT JUMPDEST POP POP DUP1 CALLDATALOAD SWAP3 PUSH1 0x20 SWAP1 SWAP2 ADD CALLDATALOAD SWAP2 POP JUMP JUMPDEST PUSH1 0x0 PUSH1 0x20 DUP3 DUP5 SUB SLT ISZERO PUSH2 0x3888 JUMPI PUSH1 0x0 DUP1 REVERT JUMPDEST DUP2 CALLDATALOAD PUSH8 0xFFFFFFFFFFFFFFFF DUP2 GT ISZERO PUSH2 0x389F JUMPI PUSH1 0x0 DUP1 REVERT JUMPDEST DUP3 ADD PUSH2 0x1A0 DUP2 DUP6 SUB SLT ISZERO PUSH2 0x2EF6 JUMPI PUSH1 0x0 DUP1 REVERT JUMPDEST PUSH1 0x1 PUSH1 0x1 PUSH1 0xA0 SHL SUB DUP2 AND DUP2 EQ PUSH2 0xE0E JUMPI PUSH1 0x0 DUP1 REVERT JUMPDEST PUSH1 0x0 PUSH1 0x20 DUP3 DUP5 SUB SLT ISZERO PUSH2 0x38D9 JUMPI PUSH1 0x0 DUP1 REVERT JUMPDEST DUP2 CALLDATALOAD PUSH2 0x2EF6 DUP2 PUSH2 0x38B2 JUMP JUMPDEST PUSH1 0x0 PUSH1 0x20 DUP3 DUP5 SUB SLT ISZERO PUSH2 0x38F6 JUMPI PUSH1 0x0 DUP1 REVERT JUMPDEST POP CALLDATALOAD SWAP2 SWAP1 POP JUMP JUMPDEST PUSH1 0x20 DUP1 DUP3 MSTORE DUP3 MLOAD DUP3 DUP3 ADD DUP2 SWAP1 MSTORE PUSH1 0x0 SWAP2 SWAP1 PUSH1 0x40 SWAP1 DUP2 DUP6 ADD SWAP1 DUP7 DUP5 ADD DUP6 JUMPDEST DUP3 DUP2 LT ISZERO PUSH2 0x3955 JUMPI DUP2 MLOAD DUP1 MLOAD PUSH1 0x1 PUSH1 0x1 PUSH1 0xA0 SHL SUB SWAP1 DUP2 AND DUP7 MSTORE DUP8 DUP3 ADD MLOAD AND DUP8 DUP7 ADD MSTORE DUP6 ADD MLOAD DUP6 DUP6 ADD MSTORE PUSH1 0x60 SWAP1 SWAP4 ADD SWAP3 SWAP1 DUP6 ADD SWAP1 PUSH1 0x1 ADD PUSH2 0x391A JUMP JUMPDEST POP SWAP2 SWAP8 SWAP7 POP POP POP POP POP POP POP JUMP JUMPDEST PUSH1 0x0 DUP2 MLOAD DUP1 DUP5 MSTORE PUSH1 0x0 JUMPDEST DUP2 DUP2 LT ISZERO PUSH2 0x3988 JUMPI PUSH1 0x20 DUP2 DUP6 ADD DUP2 ADD MLOAD DUP7 DUP4 ADD DUP3 ADD MSTORE ADD PUSH2 0x396C JUMP JUMPDEST DUP2 DUP2 GT ISZERO PUSH2 0x399A JUMPI PUSH1 0x0 PUSH1 0x20 DUP4 DUP8 ADD ADD MSTORE JUMPDEST POP PUSH1 0x1F ADD PUSH1 0x1F NOT AND SWAP3 SWAP1 SWAP3 ADD PUSH1 0x20 ADD SWAP3 SWAP2 POP POP JUMP JUMPDEST PUSH1 0x0 DUP3 DUP3 MLOAD DUP1 DUP6 MSTORE PUSH1 0x20 DUP1 DUP7 ADD SWAP6 POP DUP1 DUP3 PUSH1 0x5 SHL DUP5 ADD ADD DUP2 DUP7 ADD PUSH1 0x0 JUMPDEST DUP5 DUP2 LT ISZERO PUSH2 0x3A39 JUMPI DUP6 DUP4 SUB PUSH1 0x1F NOT ADD DUP10 MSTORE DUP2 MLOAD DUP1 MLOAD PUSH1 0x1 PUSH1 0x1 PUSH1 0xA0 SHL SUB AND DUP5 MSTORE DUP5 DUP2 ADD MLOAD PUSH1 0xA0 DUP7 DUP7 ADD DUP2 SWAP1 MSTORE SWAP1 PUSH2 0x3A05 DUP3 DUP8 ADD DUP3 PUSH2 0x3962 JUMP JUMPDEST PUSH1 0x40 DUP5 DUP2 ADD MLOAD SWAP1 DUP9 ADD MSTORE PUSH1 0x60 DUP1 DUP6 ADD MLOAD SWAP1 DUP9 ADD MSTORE PUSH1 0x80 SWAP4 DUP5 ADD MLOAD SWAP4 SWAP1 SWAP7 ADD SWAP3 SWAP1 SWAP3 MSTORE POP POP SWAP8 DUP4 ADD SWAP8 SWAP1 DUP4 ADD SWAP1 PUSH1 0x1 ADD PUSH2 0x39CC JUMP JUMPDEST POP SWAP1 SWAP8 SWAP7 POP POP POP POP POP POP POP JUMP JUMPDEST PUSH1 0x20 DUP2 MSTORE PUSH1 0x0 DUP3 MLOAD PUSH2 0x1C0 DUP1 PUSH1 0x20 DUP6 ADD MSTORE PUSH2 0x3A6E PUSH2 0x1E0 DUP6 ADD DUP4 MLOAD PUSH1 0x1 PUSH1 0x1 PUSH1 0xA0 SHL SUB AND SWAP1 MSTORE JUMP JUMPDEST PUSH1 0x20 DUP3 ADD MLOAD PUSH2 0x100 PUSH2 0x200 DUP7 ADD MSTORE PUSH2 0x3A8A PUSH2 0x2E0 DUP7 ADD DUP3 PUSH2 0x3962 JUMP JUMPDEST SWAP1 POP PUSH1 0x40 DUP4 ADD MLOAD PUSH2 0x220 DUP7 ADD MSTORE PUSH1 0x60 DUP4 ADD MLOAD PUSH2 0x240 DUP7 ADD MSTORE PUSH1 0x80 DUP4 ADD MLOAD PUSH2 0x3AB6 PUSH2 0x260 DUP8 ADD DUP3 ISZERO ISZERO SWAP1 MSTORE JUMP JUMPDEST POP PUSH1 0xA0 DUP4 ADD MLOAD ISZERO ISZERO PUSH2 0x280 DUP7 ADD MSTORE PUSH1 0xC0 DUP4 ADD MLOAD DUP6 DUP3 SUB PUSH2 0x1DF NOT SWAP1 DUP2 ADD PUSH2 0x2A0 DUP9 ADD MSTORE PUSH2 0x3AE3 DUP4 DUP4 PUSH2 0x3962 JUMP JUMPDEST SWAP3 POP PUSH1 0xE0 DUP6 ADD MLOAD SWAP5 POP DUP1 DUP8 DUP5 SUB ADD PUSH2 0x2C0 DUP9 ADD MSTORE POP POP PUSH2 0x3B03 DUP2 DUP5 PUSH2 0x3962 JUMP JUMPDEST SWAP3 POP POP PUSH1 0x20 DUP6 ADD MLOAD PUSH2 0x3B49 PUSH1 0x40 DUP7 ADD DUP3 DUP1 MLOAD PUSH1 0x1 PUSH1 0x1 PUSH1 0xA0 SHL SUB AND DUP3 MSTORE PUSH1 0x20 DUP1 DUP3 ADD MLOAD SWAP1 DUP4 ADD MSTORE PUSH1 0x40 DUP1 DUP3 ADD MLOAD SWAP1 DUP4 ADD MSTORE PUSH1 0x60 DUP1 DUP3 ADD MLOAD SWAP1 DUP4 ADD MSTORE PUSH1 0x80 SWAP1 DUP2 ADD MLOAD SWAP2 ADD MSTORE JUMP JUMPDEST POP PUSH1 0x40 DUP6 DUP2 ADD MLOAD DUP1 MLOAD PUSH1 0x1 PUSH1 0x1 PUSH1 0xA0 SHL SUB AND PUSH1 0xE0 DUP8 ADD MSTORE PUSH1 0x20 DUP2 ADD MLOAD PUSH2 0x100 DUP8 ADD MSTORE SWAP1 DUP2 ADD MLOAD PUSH2 0x120 DUP7 ADD MSTORE PUSH1 0x60 DUP2 ADD MLOAD PUSH2 0x140 DUP7 ADD MSTORE PUSH1 0x80 DUP2 ADD MLOAD PUSH2 0x160 DUP7 ADD MSTORE POP PUSH1 0x60 DUP6 ADD MLOAD DUP5 DUP4 SUB PUSH1 0x1F NOT ADD PUSH2 0x180 DUP7 ADD MSTORE PUSH2 0x3BA8 DUP4 DUP3 PUSH2 0x39AF JUMP JUMPDEST PUSH1 0x80 DUP8 ADD MLOAD PUSH2 0x1A0 DUP8 ADD MSTORE PUSH1 0xA0 SWAP1 SWAP7 ADD MLOAD SWAP2 SWAP1 SWAP5 ADD MSTORE POP SWAP2 SWAP3 SWAP2 POP POP JUMP JUMPDEST PUSH4 0x4E487B71 PUSH1 0xE0 SHL PUSH1 0x0 MSTORE PUSH1 0x21 PUSH1 0x4 MSTORE PUSH1 0x24 PUSH1 0x0 REVERT JUMPDEST PUSH1 0x20 DUP2 ADD PUSH1 0x8 DUP4 LT PUSH2 0x3BFE JUMPI PUSH4 0x4E487B71 PUSH1 0xE0 SHL PUSH1 0x0 MSTORE PUSH1 0x21 PUSH1 0x4 MSTORE PUSH1 0x24 PUSH1 0x0 REVERT JUMPDEST SWAP2 SWAP1 MSTORE SWAP1 JUMP JUMPDEST PUSH1 0x1 PUSH1 0x1 PUSH1 0xA0 SHL SUB DUP15 AND DUP2 MSTORE PUSH2 0x1A0 PUSH1 0x20 DUP3 ADD DUP2 SWAP1 MSTORE PUSH1 0x0 SWAP1 PUSH2 0x3C29 SWAP1 DUP4 ADD DUP16 PUSH2 0x3962 JUMP JUMPDEST DUP3 DUP2 SUB PUSH1 0x40 DUP5 ADD MSTORE PUSH2 0x3C3B DUP2 DUP16 PUSH2 0x3962 JUMP JUMPDEST SWAP1 POP DUP3 DUP2 SUB PUSH1 0x60 DUP5 ADD MSTORE PUSH2 0x3C4F DUP2 DUP15 PUSH2 0x3962 JUMP JUMPDEST PUSH1 0x80 DUP5 ADD SWAP13 SWAP1 SWAP13 MSTORE POP POP PUSH1 0xA0 DUP2 ADD SWAP9 SWAP1 SWAP9 MSTORE PUSH1 0xC0 DUP9 ADD SWAP7 SWAP1 SWAP7 MSTORE PUSH1 0xE0 DUP8 ADD SWAP5 SWAP1 SWAP5 MSTORE PUSH2 0x100 DUP7 ADD SWAP3 SWAP1 SWAP3 MSTORE PUSH2 0x120 DUP6 ADD MSTORE PUSH2 0x140 DUP5 ADD MSTORE PUSH2 0x160 DUP4 ADD MSTORE PUSH2 0x180 SWAP1 SWAP2 ADD MSTORE SWAP5 SWAP4 POP POP POP POP JUMP JUMPDEST PUSH1 0x20 DUP1 DUP3 MSTORE DUP3 MLOAD DUP3 DUP3 ADD DUP2 SWAP1 MSTORE PUSH1 0x0 SWAP2 SWAP1 PUSH1 0x40 SWAP1 DUP2 DUP6 ADD SWAP1 DUP7 DUP5 ADD DUP6 JUMPDEST DUP3 DUP2 LT ISZERO PUSH2 0x3955 JUMPI DUP2 MLOAD DUP1 MLOAD PUSH1 0x1 PUSH1 0x1 PUSH1 0xA0 SHL SUB AND DUP6 MSTORE DUP7 ADD MLOAD DUP7 DUP6 ADD MSTORE SWAP3 DUP5 ADD SWAP3 SWAP1 DUP6 ADD SWAP1 PUSH1 0x1 ADD PUSH2 0x3CB8 JUMP JUMPDEST PUSH1 0x20 DUP2 MSTORE PUSH1 0x0 PUSH2 0x2EF6 PUSH1 0x20 DUP4 ADD DUP5 PUSH2 0x39AF JUMP JUMPDEST PUSH4 0x4E487B71 PUSH1 0xE0 SHL PUSH1 0x0 MSTORE PUSH1 0x32 PUSH1 0x4 MSTORE PUSH1 0x24 PUSH1 0x0 REVERT JUMPDEST PUSH4 0x4E487B71 PUSH1 0xE0 SHL PUSH1 0x0 MSTORE PUSH1 0x11 PUSH1 0x4 MSTORE PUSH1 0x24 PUSH1 0x0 REVERT JUMPDEST PUSH1 0x0 DUP3 DUP3 LT ISZERO PUSH2 0x3D37 JUMPI PUSH2 0x3D37 PUSH2 0x3D0F JUMP JUMPDEST POP SUB SWAP1 JUMP JUMPDEST PUSH1 0x0 DUP2 PUSH1 0x0 NOT DIV DUP4 GT DUP3 ISZERO ISZERO AND ISZERO PUSH2 0x3D56 JUMPI PUSH2 0x3D56 PUSH2 0x3D0F JUMP JUMPDEST POP MUL SWAP1 JUMP JUMPDEST PUSH1 0x0 DUP3 PUSH2 0x3D78 JUMPI PUSH4 0x4E487B71 PUSH1 0xE0 SHL PUSH1 0x0 MSTORE PUSH1 0x12 PUSH1 0x4 MSTORE PUSH1 0x24 PUSH1 0x0 REVERT JUMPDEST POP DIV SWAP1 JUMP JUMPDEST PUSH1 0x0 DUP3 NOT DUP3 GT ISZERO PUSH2 0x3D90 JUMPI PUSH2 0x3D90 PUSH2 0x3D0F JUMP JUMPDEST POP ADD SWAP1 JUMP JUMPDEST PUSH1 0x0 PUSH1 0x0 NOT DUP3 EQ ISZERO PUSH2 0x3DA9 JUMPI PUSH2 0x3DA9 PUSH2 0x3D0F JUMP JUMPDEST POP PUSH1 0x1 ADD SWAP1 JUMP JUMPDEST PUSH1 0x20 DUP1 DUP3 MSTORE DUP2 DUP2 ADD MSTORE PUSH32 0x4F776E61626C653A2063616C6C6572206973206E6F7420746865206F776E6572 PUSH1 0x40 DUP3 ADD MSTORE PUSH1 0x60 ADD SWAP1 JUMP JUMPDEST PUSH1 0x0 PUSH1 0x20 DUP3 DUP5 SUB SLT ISZERO PUSH2 0x3DF7 JUMPI PUSH1 0x0 DUP1 REVERT JUMPDEST DUP2 MLOAD PUSH2 0x2EF6 DUP2 PUSH2 0x38B2 JUMP JUMPDEST PUSH1 0x0 DUP2 CALLDATALOAD PUSH2 0x3E0F DUP2 PUSH2 0x38B2 JUMP JUMPDEST SWAP3 SWAP2 POP POP JUMP JUMPDEST PUSH1 0x0 DUP1 DUP4 CALLDATALOAD PUSH1 0x1E NOT DUP5 CALLDATASIZE SUB ADD DUP2 SLT PUSH2 0x3E2C JUMPI PUSH1 0x0 DUP1 REVERT JUMPDEST DUP4 ADD DUP1 CALLDATALOAD SWAP2 POP PUSH8 0xFFFFFFFFFFFFFFFF DUP3 GT ISZERO PUSH2 0x3E47 JUMPI PUSH1 0x0 DUP1 REVERT JUMPDEST PUSH1 0x20 ADD SWAP2 POP CALLDATASIZE DUP2 SWAP1 SUB DUP3 SGT ISZERO PUSH2 0x3E5C JUMPI PUSH1 0x0 DUP1 REVERT JUMPDEST SWAP3 POP SWAP3 SWAP1 POP JUMP JUMPDEST PUSH4 0x4E487B71 PUSH1 0xE0 SHL PUSH1 0x0 MSTORE PUSH1 0x41 PUSH1 0x4 MSTORE PUSH1 0x24 PUSH1 0x0 REVERT JUMPDEST PUSH1 0x1 DUP2 DUP2 SHR SWAP1 DUP3 AND DUP1 PUSH2 0x3E8D JUMPI PUSH1 0x7F DUP3 AND SWAP2 POP JUMPDEST PUSH1 0x20 DUP3 LT DUP2 EQ ISZERO PUSH2 0x3EAE JUMPI PUSH4 0x4E487B71 PUSH1 0xE0 SHL PUSH1 0x0 MSTORE PUSH1 0x22 PUSH1 0x4 MSTORE PUSH1 0x24 PUSH1 0x0 REVERT JUMPDEST POP SWAP2 SWAP1 POP JUMP JUMPDEST PUSH1 0x1F DUP3 GT ISZERO PUSH2 0xAC3 JUMPI PUSH1 0x0 DUP2 DUP2 MSTORE PUSH1 0x20 DUP2 KECCAK256 PUSH1 0x1F DUP6 ADD PUSH1 0x5 SHR DUP2 ADD PUSH1 0x20 DUP7 LT ISZERO PUSH2 0x3EDB JUMPI POP DUP1 JUMPDEST PUSH1 0x1F DUP6 ADD PUSH1 0x5 SHR DUP3 ADD SWAP2 POP JUMPDEST DUP2 DUP2 LT ISZERO PUSH2 0x31E1 JUMPI DUP3 DUP2 SSTORE PUSH1 0x1 ADD PUSH2 0x3EE7 JUMP JUMPDEST PUSH8 0xFFFFFFFFFFFFFFFF DUP4 GT ISZERO PUSH2 0x3F12 JUMPI PUSH2 0x3F12 PUSH2 0x3E63 JUMP JUMPDEST PUSH2 0x3F26 DUP4 PUSH2 0x3F20 DUP4 SLOAD PUSH2 0x3E79 JUMP JUMPDEST DUP4 PUSH2 0x3EB4 JUMP JUMPDEST PUSH1 0x0 PUSH1 0x1F DUP5 GT PUSH1 0x1 DUP2 EQ PUSH2 0x3F5A JUMPI PUSH1 0x0 DUP6 ISZERO PUSH2 0x3F42 JUMPI POP DUP4 DUP3 ADD CALLDATALOAD JUMPDEST PUSH1 0x0 NOT PUSH1 0x3 DUP8 SWAP1 SHL SHR NOT AND PUSH1 0x1 DUP7 SWAP1 SHL OR DUP4 SSTORE PUSH2 0x100C JUMP JUMPDEST PUSH1 0x0 DUP4 DUP2 MSTORE PUSH1 0x20 SWAP1 KECCAK256 PUSH1 0x1F NOT DUP7 AND SWAP1 DUP4 JUMPDEST DUP3 DUP2 LT ISZERO PUSH2 0x3F8B JUMPI DUP7 DUP6 ADD CALLDATALOAD DUP3 SSTORE PUSH1 0x20 SWAP5 DUP6 ADD SWAP5 PUSH1 0x1 SWAP1 SWAP3 ADD SWAP2 ADD PUSH2 0x3F6B JUMP JUMPDEST POP DUP7 DUP3 LT ISZERO PUSH2 0x3FA8 JUMPI PUSH1 0x0 NOT PUSH1 0xF8 DUP9 PUSH1 0x3 SHL AND SHR NOT DUP5 DUP8 ADD CALLDATALOAD AND DUP2 SSTORE JUMPDEST POP POP PUSH1 0x1 DUP6 PUSH1 0x1 SHL ADD DUP4 SSTORE POP POP POP POP POP JUMP JUMPDEST PUSH2 0x3FE3 PUSH2 0x3FC6 DUP4 PUSH2 0x3E02 JUMP JUMPDEST DUP3 SLOAD PUSH1 0x1 PUSH1 0x1 PUSH1 0xA0 SHL SUB NOT AND PUSH1 0x1 PUSH1 0x1 PUSH1 0xA0 SHL SUB SWAP2 SWAP1 SWAP2 AND OR DUP3 SSTORE JUMP JUMPDEST PUSH2 0x3FF0 PUSH1 0x20 DUP4 ADD DUP4 PUSH2 0x3E15 JUMP JUMPDEST PUSH2 0x3FFE DUP2 DUP4 PUSH1 0x1 DUP7 ADD PUSH2 0x3EFA JUMP JUMPDEST POP POP PUSH2 0x400D PUSH1 0x40 DUP4 ADD DUP4 PUSH2 0x3E15 JUMP JUMPDEST PUSH2 0x401B DUP2 DUP4 PUSH1 0x2 DUP7 ADD PUSH2 0x3EFA JUMP JUMPDEST POP POP PUSH2 0x402A PUSH1 0x60 DUP4 ADD DUP4 PUSH2 0x3E15 JUMP JUMPDEST PUSH2 0x4038 DUP2 DUP4 PUSH1 0x3 DUP7 ADD PUSH2 0x3EFA JUMP JUMPDEST POP POP PUSH1 0x80 DUP3 ADD CALLDATALOAD PUSH1 0x4 DUP3 ADD SSTORE PUSH1 0xA0 DUP3 ADD CALLDATALOAD PUSH1 0x5 DUP3 ADD SSTORE PUSH1 0xC0 DUP3 ADD CALLDATALOAD PUSH1 0x6 DUP3 ADD SSTORE PUSH1 0xE0 DUP3 ADD CALLDATALOAD PUSH1 0x7 DUP3 ADD SSTORE PUSH2 0x100 DUP3 ADD CALLDATALOAD PUSH1 0x8 DUP3 ADD SSTORE PUSH2 0x120 DUP3 ADD CALLDATALOAD PUSH1 0x9 DUP3 ADD SSTORE PUSH2 0x140 DUP3 ADD CALLDATALOAD PUSH1 0xA DUP3 ADD SSTORE PUSH2 0x160 DUP3 ADD CALLDATALOAD PUSH1 0xB DUP3 ADD SSTORE PUSH2 0x180 DUP3 ADD CALLDATALOAD PUSH1 0xC DUP3 ADD SSTORE POP POP JUMP JUMPDEST PUSH1 0x0 PUSH1 0x20 DUP3 DUP5 SUB SLT ISZERO PUSH2 0x40AF JUMPI PUSH1 0x0 DUP1 REVERT JUMPDEST POP MLOAD SWAP2 SWAP1 POP JUMP JUMPDEST PUSH1 0x0 PUSH1 0x20 DUP3 DUP5 SUB SLT ISZERO PUSH2 0x40C8 JUMPI PUSH1 0x0 DUP1 REVERT JUMPDEST DUP2 MLOAD DUP1 ISZERO ISZERO DUP2 EQ PUSH2 0x2EF6 JUMPI PUSH1 0x0 DUP1 REVERT JUMPDEST PUSH1 0x0 PUSH1 0xA0 DUP3 ADD DUP8 DUP4 MSTORE PUSH1 0x20 DUP8 DUP2 DUP6 ADD MSTORE PUSH1 0xA0 PUSH1 0x40 DUP6 ADD MSTORE DUP2 DUP8 MLOAD DUP1 DUP5 MSTORE PUSH1 0xC0 DUP7 ADD SWAP2 POP DUP3 DUP10 ADD SWAP4 POP PUSH1 0x0 JUMPDEST DUP2 DUP2 LT ISZERO PUSH2 0x4128 JUMPI DUP5 MLOAD PUSH1 0x1 PUSH1 0x1 PUSH1 0xA0 SHL SUB AND DUP4 MSTORE SWAP4 DUP4 ADD SWAP4 SWAP2 DUP4 ADD SWAP2 PUSH1 0x1 ADD PUSH2 0x4103 JUMP JUMPDEST POP POP PUSH1 0x1 PUSH1 0x1 PUSH1 0xA0 SHL SUB SWAP7 SWAP1 SWAP7 AND PUSH1 0x60 DUP6 ADD MSTORE POP POP POP PUSH1 0x80 ADD MSTORE SWAP4 SWAP3 POP POP POP JUMP JUMPDEST PUSH1 0x0 DUP1 PUSH1 0x0 PUSH1 0x60 DUP5 DUP7 SUB SLT ISZERO PUSH2 0x415E JUMPI PUSH1 0x0 DUP1 REVERT JUMPDEST DUP4 MLOAD SWAP3 POP PUSH1 0x20 DUP5 ADD MLOAD SWAP2 POP PUSH1 0x40 DUP5 ADD MLOAD SWAP1 POP SWAP3 POP SWAP3 POP SWAP3 JUMP INVALID LOG2 PUSH5 0x6970667358 0x22 SLT KECCAK256 0x1E NUMBER 0x4D 0xF6 0xBF PUSH7 0x9B35451B200146 0xFB SWAP16 0xD1 BASEFEE PUSH5 0x2AF2364EA8 PUSH32 0x5BA3B24D4C02D63C64736F6C634300080B00338BE0079C531659141344CD1FD0 LOG4 CALLCODE DUP5 NOT 0x49 PUSH32 0x9722A3DAAFE3B4186F6B6457E000000000000000000000000000000000000000 "
		},
		"gasEstimates": {
			"creation": {
				"codeDepositCost": "3362600",
				"executionCost": "infinite",
				"totalCost": "infinite"
			},
			"external": {
				"addLiquidityOnUniswapV2()": "infinite",
				"amountOfTokensForInvestors()": "2329",
				"checkIfAllVestingWasSet()": "infinite",
				"checkIfPairIsCreated()": "infinite",
				"checkIfTokenomicsIsValid()": "infinite",
				"claimVesting()": "infinite",
				"emergencyRefund(uint256,uint256)": "infinite",
				"getAvailableVestingTokens(address)": "infinite",
				"getInformation(address)": "infinite",
				"getTokenomics()": "infinite",
				"invest(address)": "infinite",
				"listInvestors(uint256,uint256)": "13635",
				"listReferrals(uint256,uint256)": "11462",
				"markGoalAsReached()": "54178",
				"owner()": "2347",
				"prepareAddLiqudity()": "infinite",
				"renounceOwnership()": "30254",
				"setVestingForInvestorsTokens(uint256,uint256)": "15767",
				"setVestingForReferralsTokens(uint256,uint256)": "13659",
				"setVestingForTokenomicsTokens()": "infinite",
				"settings()": "infinite",
				"skipSteps1()": "infinite",
				"skipSteps2(uint256)": "infinite",
				"state()": "2457",
				"totalTokenSupply()": "2374",
				"transferOwnership(address)": "30460",
				"updateSettings((address,string,string,string,uint256,uint256,uint256,uint256,uint256,uint256,uint256,uint256,uint256))": "infinite",
				"vesting(uint256)": "13215"
			},
			"internal": {
				"addInvestor(address,address,uint256)": "infinite",
				"addReferral(address,uint256)": "infinite",
				"addTokenomics(struct Tokenomics memory)": "infinite",
				"changeState(enum PresaleContract.States)": "infinite",
				"createVestingIfDoesNotExist(address)": "infinite",
				"getUniswapSupplyPercent()": "infinite"
			}
		},
		"methodIdentifiers": {
			"addLiquidityOnUniswapV2()": "9b214950",
			"amountOfTokensForInvestors()": "dd74075c",
			"checkIfAllVestingWasSet()": "70f1b331",
			"checkIfPairIsCreated()": "0155ecaf",
			"checkIfTokenomicsIsValid()": "ca71d9f4",
			"claimVesting()": "fedda89c",
			"emergencyRefund(uint256,uint256)": "1f96b8ab",
			"getAvailableVestingTokens(address)": "f9c75699",
			"getInformation(address)": "b33d600a",
			"getTokenomics()": "ee2923d9",
			"invest(address)": "03f9c793",
			"listInvestors(uint256,uint256)": "818a36a1",
			"listReferrals(uint256,uint256)": "e70d8fdc",
			"markGoalAsReached()": "42f60cb5",
			"owner()": "8da5cb5b",
			"prepareAddLiqudity()": "5f6577a8",
			"renounceOwnership()": "715018a6",
			"setVestingForInvestorsTokens(uint256,uint256)": "010bd419",
			"setVestingForReferralsTokens(uint256,uint256)": "99f96c51",
			"setVestingForTokenomicsTokens()": "9248b04a",
			"settings()": "e06174e4",
			"skipSteps1()": "0b293a31",
			"skipSteps2(uint256)": "39fc1128",
			"state()": "c19d93fb",
			"totalTokenSupply()": "1ca8b6cb",
			"transferOwnership(address)": "f2fde38b",
			"updateSettings((address,string,string,string,uint256,uint256,uint256,uint256,uint256,uint256,uint256,uint256,uint256))": "0346920d",
			"vesting(uint256)": "2ffac82c"
		}
	},
	"abi": [
		{
			"inputs": [
				{
					"internalType": "address",
					"name": "owner",
					"type": "address"
				},
				{
					"components": [
						{
							"internalType": "address",
							"name": "tokenomicsAddr",
							"type": "address"
						},
						{
							"internalType": "string",
							"name": "tokenomicsName",
							"type": "string"
						},
						{
							"internalType": "uint256",
							"name": "tokenomicsPercentage",
							"type": "uint256"
						},
						{
							"internalType": "uint256",
							"name": "tokenomicsLockedForXSeconds",
							"type": "uint256"
						},
						{
							"internalType": "uint256",
							"name": "tokenomicsVestedForXSeconds",
							"type": "uint256"
						}
					],
					"internalType": "struct Tokenomics[]",
					"name": "_tokenomics",
					"type": "tuple[]"
				},
				{
					"components": [
						{
							"internalType": "address",
							"name": "tokenAddress",
							"type": "address"
						},
						{
							"internalType": "string",
							"name": "presaleName",
							"type": "string"
						},
						{
							"internalType": "string",
							"name": "website",
							"type": "string"
						},
						{
							"internalType": "string",
							"name": "telegram",
							"type": "string"
						},
						{
							"internalType": "uint256",
							"name": "uniswapLiquidityLockedFor",
							"type": "uint256"
						},
						{
							"internalType": "uint256",
							"name": "presaleLockedFor",
							"type": "uint256"
						},
						{
							"internalType": "uint256",
							"name": "presaleVestedFor",
							"type": "uint256"
						},
						{
							"internalType": "uint256",
							"name": "referralsLockedFor",
							"type": "uint256"
						},
						{
							"internalType": "uint256",
							"name": "referralsVestedFor",
							"type": "uint256"
						},
						{
							"internalType": "uint256",
							"name": "maxWethCap",
							"type": "uint256"
						},
						{
							"internalType": "uint256",
							"name": "perWalletMinWeth",
							"type": "uint256"
						},
						{
							"internalType": "uint256",
							"name": "perWalletMaxWeth",
							"type": "uint256"
						},
						{
							"internalType": "uint256",
							"name": "fixedPriceInDeft",
							"type": "uint256"
						}
					],
					"internalType": "struct Settings",
					"name": "_settings",
					"type": "tuple"
				}
			],
			"stateMutability": "nonpayable",
			"type": "constructor"
		},
		{
			"anonymous": false,
			"inputs": [
				{
					"indexed": true,
					"internalType": "address",
					"name": "previousOwner",
					"type": "address"
				},
				{
					"indexed": true,
					"internalType": "address",
					"name": "newOwner",
					"type": "address"
				}
			],
			"name": "OwnershipTransferred",
			"type": "event"
		},
		{
			"anonymous": false,
			"inputs": [
				{
					"indexed": false,
					"internalType": "enum PresaleContract.States",
					"name": "newState",
					"type": "uint8"
				}
			],
			"name": "StateChanged",
			"type": "event"
		},
		{
			"inputs": [],
			"name": "addLiquidityOnUniswapV2",
			"outputs": [],
			"stateMutability": "nonpayable",
			"type": "function"
		},
		{
			"inputs": [],
			"name": "amountOfTokensForInvestors",
			"outputs": [
				{
					"internalType": "uint256",
					"name": "",
					"type": "uint256"
				}
			],
			"stateMutability": "view",
			"type": "function"
		},
		{
			"inputs": [],
			"name": "checkIfAllVestingWasSet",
			"outputs": [
				{
					"internalType": "bool",
					"name": "",
					"type": "bool"
				}
			],
			"stateMutability": "view",
			"type": "function"
		},
		{
			"inputs": [],
			"name": "checkIfPairIsCreated",
			"outputs": [],
			"stateMutability": "nonpayable",
			"type": "function"
		},
		{
			"inputs": [],
			"name": "checkIfTokenomicsIsValid",
			"outputs": [
				{
					"internalType": "bool",
					"name": "",
					"type": "bool"
				}
			],
			"stateMutability": "view",
			"type": "function"
		},
		{
			"inputs": [],
			"name": "claimVesting",
			"outputs": [],
			"stateMutability": "nonpayable",
			"type": "function"
		},
		{
			"inputs": [
				{
					"internalType": "uint256",
					"name": "offset",
					"type": "uint256"
				},
				{
					"internalType": "uint256",
					"name": "limit",
					"type": "uint256"
				}
			],
			"name": "emergencyRefund",
			"outputs": [],
			"stateMutability": "nonpayable",
			"type": "function"
		},
		{
			"inputs": [
				{
					"internalType": "address",
					"name": "addr",
					"type": "address"
				}
			],
			"name": "getAvailableVestingTokens",
			"outputs": [
				{
					"internalType": "uint256",
					"name": "",
					"type": "uint256"
				}
			],
			"stateMutability": "view",
			"type": "function"
		},
		{
			"inputs": [
				{
					"internalType": "address",
					"name": "wallet",
					"type": "address"
				}
			],
			"name": "getInformation",
			"outputs": [
				{
					"components": [
						{
							"components": [
								{
									"internalType": "address",
									"name": "presaleContractAddress",
									"type": "address"
								},
								{
									"internalType": "string",
									"name": "presaleName",
									"type": "string"
								},
								{
									"internalType": "uint256",
									"name": "totalInvestedWeth",
									"type": "uint256"
								},
								{
									"internalType": "uint256",
									"name": "maxWethCap",
									"type": "uint256"
								},
								{
									"internalType": "bool",
									"name": "isActive",
									"type": "bool"
								},
								{
									"internalType": "bool",
									"name": "isEnabled",
									"type": "bool"
								},
								{
									"internalType": "string",
									"name": "website",
									"type": "string"
								},
								{
									"internalType": "string",
									"name": "telegram",
									"type": "string"
								}
							],
							"internalType": "struct PresaleItem",
							"name": "presaleItem",
							"type": "tuple"
						},
						{
							"components": [
								{
									"internalType": "address",
									"name": "walletAddress",
									"type": "address"
								},
								{
									"internalType": "uint256",
									"name": "walletInvestedWeth",
									"type": "uint256"
								},
								{
									"internalType": "uint256",
									"name": "walletReferralEarnings",
									"type": "uint256"
								},
								{
									"internalType": "uint256",
									"name": "minimumWethPerWallet",
									"type": "uint256"
								},
								{
									"internalType": "uint256",
									"name": "maximumWethPerWallet",
									"type": "uint256"
								}
							],
							"internalType": "struct WalletInfo",
							"name": "walletInfo",
							"type": "tuple"
						},
						{
							"components": [
								{
									"internalType": "address",
									"name": "vestingAddr",
									"type": "address"
								},
								{
									"internalType": "uint256",
									"name": "tokensReserved",
									"type": "uint256"
								},
								{
									"internalType": "uint256",
									"name": "tokensClaimed",
									"type": "uint256"
								},
								{
									"internalType": "uint256",
									"name": "lockedUntilTimestamp",
									"type": "uint256"
								},
								{
									"internalType": "uint256",
									"name": "vestedUntilTimestamp",
									"type": "uint256"
								}
							],
							"internalType": "struct Vesting",
							"name": "vestingInfo",
							"type": "tuple"
						},
						{
							"components": [
								{
									"internalType": "address",
									"name": "tokenomicsAddr",
									"type": "address"
								},
								{
									"internalType": "string",
									"name": "tokenomicsName",
									"type": "string"
								},
								{
									"internalType": "uint256",
									"name": "tokenomicsPercentage",
									"type": "uint256"
								},
								{
									"internalType": "uint256",
									"name": "tokenomicsLockedForXSeconds",
									"type": "uint256"
								},
								{
									"internalType": "uint256",
									"name": "tokenomicsVestedForXSeconds",
									"type": "uint256"
								}
							],
							"internalType": "struct Tokenomics[]",
							"name": "tokenomics",
							"type": "tuple[]"
						},
						{
							"internalType": "uint256",
							"name": "listingPrice",
							"type": "uint256"
						},
						{
							"internalType": "uint256",
							"name": "createdAt",
							"type": "uint256"
						}
					],
					"internalType": "struct OutputItem",
					"name": "output",
					"type": "tuple"
				}
			],
			"stateMutability": "view",
			"type": "function"
		},
		{
			"inputs": [],
			"name": "getTokenomics",
			"outputs": [
				{
					"components": [
						{
							"internalType": "address",
							"name": "tokenomicsAddr",
							"type": "address"
						},
						{
							"internalType": "string",
							"name": "tokenomicsName",
							"type": "string"
						},
						{
							"internalType": "uint256",
							"name": "tokenomicsPercentage",
							"type": "uint256"
						},
						{
							"internalType": "uint256",
							"name": "tokenomicsLockedForXSeconds",
							"type": "uint256"
						},
						{
							"internalType": "uint256",
							"name": "tokenomicsVestedForXSeconds",
							"type": "uint256"
						}
					],
					"internalType": "struct Tokenomics[]",
					"name": "",
					"type": "tuple[]"
				}
			],
			"stateMutability": "view",
			"type": "function"
		},
		{
			"inputs": [
				{
					"internalType": "address",
					"name": "referralAddr",
					"type": "address"
				}
			],
			"name": "invest",
			"outputs": [],
			"stateMutability": "payable",
			"type": "function"
		},
		{
			"inputs": [
				{
					"internalType": "uint256",
					"name": "offset",
					"type": "uint256"
				},
				{
					"internalType": "uint256",
					"name": "limit",
					"type": "uint256"
				}
			],
			"name": "listInvestors",
			"outputs": [
				{
					"components": [
						{
							"internalType": "address",
							"name": "investorAddr",
							"type": "address"
						},
						{
							"internalType": "address",
							"name": "referralAddr",
							"type": "address"
						},
						{
							"internalType": "uint256",
							"name": "wethValue",
							"type": "uint256"
						}
					],
					"internalType": "struct PresaleContract.Investor[]",
					"name": "",
					"type": "tuple[]"
				}
			],
			"stateMutability": "view",
			"type": "function"
		},
		{
			"inputs": [
				{
					"internalType": "uint256",
					"name": "offset",
					"type": "uint256"
				},
				{
					"internalType": "uint256",
					"name": "limit",
					"type": "uint256"
				}
			],
			"name": "listReferrals",
			"outputs": [
				{
					"components": [
						{
							"internalType": "address",
							"name": "referralAddr",
							"type": "address"
						},
						{
							"internalType": "uint256",
							"name": "earnings",
							"type": "uint256"
						}
					],
					"internalType": "struct PresaleContract.Referral[]",
					"name": "",
					"type": "tuple[]"
				}
			],
			"stateMutability": "view",
			"type": "function"
		},
		{
			"inputs": [],
			"name": "markGoalAsReached",
			"outputs": [],
			"stateMutability": "nonpayable",
			"type": "function"
		},
		{
			"inputs": [],
			"name": "owner",
			"outputs": [
				{
					"internalType": "address",
					"name": "",
					"type": "address"
				}
			],
			"stateMutability": "view",
			"type": "function"
		},
		{
			"inputs": [],
			"name": "prepareAddLiqudity",
			"outputs": [],
			"stateMutability": "nonpayable",
			"type": "function"
		},
		{
			"inputs": [],
			"name": "renounceOwnership",
			"outputs": [],
			"stateMutability": "nonpayable",
			"type": "function"
		},
		{
			"inputs": [
				{
					"internalType": "uint256",
					"name": "offset",
					"type": "uint256"
				},
				{
					"internalType": "uint256",
					"name": "limit",
					"type": "uint256"
				}
			],
			"name": "setVestingForInvestorsTokens",
			"outputs": [],
			"stateMutability": "nonpayable",
			"type": "function"
		},
		{
			"inputs": [
				{
					"internalType": "uint256",
					"name": "offset",
					"type": "uint256"
				},
				{
					"internalType": "uint256",
					"name": "limit",
					"type": "uint256"
				}
			],
			"name": "setVestingForReferralsTokens",
			"outputs": [],
			"stateMutability": "nonpayable",
			"type": "function"
		},
		{
			"inputs": [],
			"name": "setVestingForTokenomicsTokens",
			"outputs": [],
			"stateMutability": "nonpayable",
			"type": "function"
		},
		{
			"inputs": [],
			"name": "settings",
			"outputs": [
				{
					"internalType": "address",
					"name": "tokenAddress",
					"type": "address"
				},
				{
					"internalType": "string",
					"name": "presaleName",
					"type": "string"
				},
				{
					"internalType": "string",
					"name": "website",
					"type": "string"
				},
				{
					"internalType": "string",
					"name": "telegram",
					"type": "string"
				},
				{
					"internalType": "uint256",
					"name": "uniswapLiquidityLockedFor",
					"type": "uint256"
				},
				{
					"internalType": "uint256",
					"name": "presaleLockedFor",
					"type": "uint256"
				},
				{
					"internalType": "uint256",
					"name": "presaleVestedFor",
					"type": "uint256"
				},
				{
					"internalType": "uint256",
					"name": "referralsLockedFor",
					"type": "uint256"
				},
				{
					"internalType": "uint256",
					"name": "referralsVestedFor",
					"type": "uint256"
				},
				{
					"internalType": "uint256",
					"name": "maxWethCap",
					"type": "uint256"
				},
				{
					"internalType": "uint256",
					"name": "perWalletMinWeth",
					"type": "uint256"
				},
				{
					"internalType": "uint256",
					"name": "perWalletMaxWeth",
					"type": "uint256"
				},
				{
					"internalType": "uint256",
					"name": "fixedPriceInDeft",
					"type": "uint256"
				}
			],
			"stateMutability": "view",
			"type": "function"
		},
		{
			"inputs": [],
			"name": "skipSteps1",
			"outputs": [],
			"stateMutability": "nonpayable",
			"type": "function"
		},
		{
			"inputs": [
				{
					"internalType": "uint256",
					"name": "limit",
					"type": "uint256"
				}
			],
			"name": "skipSteps2",
			"outputs": [],
			"stateMutability": "nonpayable",
			"type": "function"
		},
		{
			"inputs": [],
			"name": "state",
			"outputs": [
				{
					"internalType": "enum PresaleContract.States",
					"name": "",
					"type": "uint8"
				}
			],
			"stateMutability": "view",
			"type": "function"
		},
		{
			"inputs": [],
			"name": "totalTokenSupply",
			"outputs": [
				{
					"internalType": "uint256",
					"name": "",
					"type": "uint256"
				}
			],
			"stateMutability": "view",
			"type": "function"
		},
		{
			"inputs": [
				{
					"internalType": "address",
					"name": "newOwner",
					"type": "address"
				}
			],
			"name": "transferOwnership",
			"outputs": [],
			"stateMutability": "nonpayable",
			"type": "function"
		},
		{
			"inputs": [
				{
					"components": [
						{
							"internalType": "address",
							"name": "tokenAddress",
							"type": "address"
						},
						{
							"internalType": "string",
							"name": "presaleName",
							"type": "string"
						},
						{
							"internalType": "string",
							"name": "website",
							"type": "string"
						},
						{
							"internalType": "string",
							"name": "telegram",
							"type": "string"
						},
						{
							"internalType": "uint256",
							"name": "uniswapLiquidityLockedFor",
							"type": "uint256"
						},
						{
							"internalType": "uint256",
							"name": "presaleLockedFor",
							"type": "uint256"
						},
						{
							"internalType": "uint256",
							"name": "presaleVestedFor",
							"type": "uint256"
						},
						{
							"internalType": "uint256",
							"name": "referralsLockedFor",
							"type": "uint256"
						},
						{
							"internalType": "uint256",
							"name": "referralsVestedFor",
							"type": "uint256"
						},
						{
							"internalType": "uint256",
							"name": "maxWethCap",
							"type": "uint256"
						},
						{
							"internalType": "uint256",
							"name": "perWalletMinWeth",
							"type": "uint256"
						},
						{
							"internalType": "uint256",
							"name": "perWalletMaxWeth",
							"type": "uint256"
						},
						{
							"internalType": "uint256",
							"name": "fixedPriceInDeft",
							"type": "uint256"
						}
					],
					"internalType": "struct Settings",
					"name": "_settings",
					"type": "tuple"
				}
			],
			"name": "updateSettings",
			"outputs": [],
			"stateMutability": "nonpayable",
			"type": "function"
		},
		{
			"inputs": [
				{
					"internalType": "uint256",
					"name": "",
					"type": "uint256"
				}
			],
			"name": "vesting",
			"outputs": [
				{
					"internalType": "address",
					"name": "vestingAddr",
					"type": "address"
				},
				{
					"internalType": "uint256",
					"name": "tokensReserved",
					"type": "uint256"
				},
				{
					"internalType": "uint256",
					"name": "tokensClaimed",
					"type": "uint256"
				},
				{
					"internalType": "uint256",
					"name": "lockedUntilTimestamp",
					"type": "uint256"
				},
				{
					"internalType": "uint256",
					"name": "vestedUntilTimestamp",
					"type": "uint256"
				}
			],
			"stateMutability": "view",
			"type": "function"
		},
		{
			"stateMutability": "payable",
			"type": "receive"
		}
	]
}