{
	"data": {
		"bytecode": {
			"linkReferences": {},
			"object": "608060405261c350600b55674563918244f40000600d556402540be400600e5569010f0cf064dd59200000600f55678ac7230489e800006012553480156200004657600080fd5b50620000546000336200054f565b6040805180820190915260138082527f4c616d626f20546f6b656e2050726573616c650000000000000000000000000060209092019182526200009a91601e91620009f1565b5060405180606001604052806021815260200162005de0602191398051620000cb91601c91602090910190620009f1565b5060408051808201909152601d8082527f68747470733a2f2f742e6d652f4c616d626f546f6b656e4f776e6572730000006020909201918252620001109181620009f1565b5063bbf81e00601f5560006020908155603c6021819055601e602255607860235560408051808201909152600b81526a11195d995b1bdc1b595b9d60aa1b928101929092526200017e91731111bee701ef814a2b6a3edd4b1652cb9cc5aa6f91620249f09061025862000592565b620001ce732222bee701ef814a2b6a3edd4b1652cb9cc5aa6f604051806040016040528060098152602001684d61726b6574696e6760b81b815250620186a060786104b06200059260201b60201c565b6200021c733333bee701ef814a2b6a3edd4b1652cb9cc5aa6f6040518060400160405280600881526020016741647669736f727360c01b81525061c35060b46107086200059260201b60201c565b6001461415620002df57601880546001600160a01b0319908116735c69bee701ef814a2b6a3edd4b1652cb9cc5aa6f17909155601980548216737a250d5630b4cf539739df2c5dacb4c659f2488d17905560178054821673dac17f958d2ee523a2206206994597c13d831ec790811790915560158054831673c02aaa39b223fe8d0a0e5c4f27ead9083c756cc21790556006601b5560148054831673c77aab3c6d7dab46248f3cc3033c856171878bd5179055601680549092161790556200053d565b6038461415620003a257601880546001600160a01b031990811673ca143ce32fe78f1f7019d7d551a6402fc5350c73179091556019805482167310ed43c718714eb63d5aa57b78b54704e256024e17905560178054821673e9e7cea3dedca5984780bafc599bd69add087d5690811790915560158054831673bb4cdb9cbd36b01bd1cbaebf2de08d9173bc095c1790556012601b55601480548316737536592bb74b5d62eb82e8b93b17eed4eed9a85c179055601680549092161790556200053d565b602a4614156200047f57601880546001600160a01b0319908116735c69bee701ef814a2b6a3edd4b1652cb9cc5aa6f17909155601980548216737a250d5630b4cf539739df2c5dacb4c659f2488d17905560178054821673ec362b0efec60388a12a9c26071e116bfa5e358717905560158054821673d0a1e359811322d97991e03f863a0c30c2cf029c1790556006601b556014805482169055601380548216735d7333f8b9b3075293f4fcf7c5ef9793d643dd8f1790556016805490911673073ce46d328524fb3529a39d64b314ab1a594a571790556200053d565b60034614156200053d57601880546001600160a01b0319908116735c69bee701ef814a2b6a3edd4b1652cb9cc5aa6f17909155601980548216737a250d5630b4cf539739df2c5dacb4c659f2488d1790556017805482167307865c6e87b9f70255377e024ace6630c1eaa37f90811790915560158054831673c778417e063141139fce010982780140aa0cd5ab1790556006601b55601480548316738733caa60eda1597336c0337efde27c1335f7530179055601680549092161790555b62000549600062000860565b62000b21565b620005668282620008cf60201b6200403f1760201c565b60008281526001602090815260409091206200058d91839062004049620008df821b17901c565b505050565b6001600160a01b038516600090815260096020526040902054620006b0576040805160a0810182526001600160a01b03878116825260208083018881529383018790526060830186905260808301859052600a805460018101825560009190915283517fc65a7bb8d6351c1cf70c95a316cc6a92839c986682d98bc35f958f4883f9d2a8600590920291820180546001600160a01b0319169190941617835593518051939492936200066c937fc65a7bb8d6351c1cf70c95a316cc6a92839c986682d98bc35f958f4883f9d2a901929190910190620009f1565b506040828101516002830155606083015160038301556080909201516004909101556008546001600160a01b03871660009081526009602052919091205562000859565b6001600160a01b0385166000908152600960205260409020548490600a90620006dc9060019062000ac0565b81548110620006fb57634e487b7160e01b600052603260045260246000fd5b9060005260206000209060050201600101908051906020019062000721929190620009f1565b506001600160a01b0385166000908152600960205260409020548390600a906200074e9060019062000ac0565b815481106200076d57634e487b7160e01b600052603260045260246000fd5b90600052602060002090600502016002018190555081600a600160096000896001600160a01b03166001600160a01b0316815260200190815260200160002054620007b9919062000ac0565b81548110620007d857634e487b7160e01b600052603260045260246000fd5b90600052602060002090600502016003018190555080600a600160096000896001600160a01b03166001600160a01b031681526020019081526020016000205462000824919062000ac0565b815481106200084357634e487b7160e01b600052603260045260246000fd5b9060005260206000209060050201600401819055505b5050505050565b6002805482919060ff191660018360078111156200088e57634e487b7160e01b600052602160045260246000fd5b02179055507f551dc40198cc79684bb69e4931dba4ac16e4598792ee1c0a5000aeea366d7bb681604051620008c4919062000a97565b60405180910390a150565b620008db8282620008ff565b5050565b6000620008f6836001600160a01b0384166200099f565b90505b92915050565b6000828152602081815260408083206001600160a01b038516845290915290205460ff16620008db576000828152602081815260408083206001600160a01b03851684529091529020805460ff191660011790556200095b3390565b6001600160a01b0316816001600160a01b0316837f2f8788117e7eff1d82e926ec794901d17c78024a50270940304540a733656f0d60405160405180910390a45050565b6000818152600183016020526040812054620009e857508154600181810184556000848152602080822090930184905584548482528286019093526040902091909155620008f9565b506000620008f9565b828054620009ff9062000ae4565b90600052602060002090601f01602090048101928262000a23576000855562000a6e565b82601f1062000a3e57805160ff191683800117855562000a6e565b8280016001018555821562000a6e579182015b8281111562000a6e57825182559160200191906001019062000a51565b5062000a7c92915062000a80565b5090565b5b8082111562000a7c576000815560010162000a81565b602081016008831062000aba57634e487b7160e01b600052602160045260246000fd5b91905290565b60008282101562000adf57634e487b7160e01b81526011600452602481fd5b500390565b600181811c9082168062000af957607f821691505b6020821081141562000b1b57634e487b7160e01b600052602260045260246000fd5b50919050565b6152af8062000b316000396000f3fe6080604052600436106104695760003560e01c806380b7c92b11610243578063c88188a311610143578063e70d8fdc116100bb578063edc7ff2a1161008a578063f9c756991161006f578063f9c7569914610d68578063fccc281314610d88578063fedda89c14610d9d57600080fd5b8063edc7ff2a14610d19578063ee2923d914610d4657600080fd5b8063e70d8fdc14610ca1578063e72a443b14610cce578063ebac650514610ce4578063ed21187a14610d0457600080fd5b8063d391014b11610112578063dbcac674116100f7578063dbcac67414610c4e578063dd74075c14610c76578063e650e51214610c8c57600080fd5b8063d391014b14610c19578063d547741f14610c2e57600080fd5b8063c88188a314610ba1578063ca15c87314610bb6578063cc138c8e14610bd6578063cd496b4b14610c0357600080fd5b806399f96c51116101d6578063a2846323116101a5578063beb0a4161161018a578063beb0a41614610b4f578063c19d93fb14610b64578063c6c2afc314610b8b57600080fd5b8063a284632314610b0f578063b2c1e72a14610b2f57600080fd5b806399f96c5114610aa55780639b21495014610ac55780639d76ea5814610ada5780639e57003c14610afa57600080fd5b80639010d07c116102125780639010d07c14610a0c57806391d1485414610a2c5780639248b04a14610a70578063989ced2614610a8557600080fd5b806380b7c92b1461096a578063818a36a1146109a9578063884ec7a9146109d65780638e505f09146109f657600080fd5b80632ffac82c116103695780634f6f7811116102e15780635f6577a8116102b05780636d8ca924116102955780636d8ca9241461091257806370f1b331146109285780637e4c7eb21461093d57600080fd5b80635f6577a8146108dd57806365069863146108f257600080fd5b80634f6f78111461085a578063573620a71461087a578063579a7e1a146108a757806359d5335b146108c757600080fd5b80634175266f11610338578063443926db1161031d578063443926db1461080357806347ecb665146108185780634d286a3d1461083a57600080fd5b80634175266f146107d857806342f60cb5146107ee57600080fd5b80632ffac82c1461070057806336568abe1461075257806339fc1128146107725780633feb5f2b1461079257600080fd5b8063091f90c2116103fc578063248a9ca3116103cb578063279bb95e116103b0578063279bb95e14610693578063286777d0146106b35780632f2ff15d146106e057600080fd5b8063248a9ca31461064357806325382ec81461067357600080fd5b8063091f90c2146105c05780630b293a31146105f85780631ca8b6cb1461060d5780631f96b8ab1461062357600080fd5b806303ed957f1161043857806303ed957f1461051c57806303f9c7931461053c57806304215d5a1461054f578063087a2daf1461058f57600080fd5b8063010bd419146104755780630155ecaf1461049757806301cb5dfd146104ac57806301ffc9a7146104ec57600080fd5b3661047057005b600080fd5b34801561048157600080fd5b50610495610490366004614d5e565b610db2565b005b3480156104a357600080fd5b506104956110c6565b3480156104b857600080fd5b506104d96104c7366004614c4f565b60096020526000908152604090205481565b6040519081526020015b60405180910390f35b3480156104f857600080fd5b5061050c610507366004614d7f565b611344565b60405190151581526020016104e3565b34801561052857600080fd5b50610495610537366004614c87565b611388565b61049561054a366004614c4f565b611421565b34801561055b57600080fd5b5061056f61056a366004614c4f565b611796565b6040805194855260208501939093529183015260608201526080016104e3565b34801561059b57600080fd5b506105af6105aa366004614d17565b61186d565b6040516104e3959493929190614ed7565b3480156105cc57600080fd5b506014546105e0906001600160a01b031681565b6040516001600160a01b0390911681526020016104e3565b34801561060457600080fd5b50610495611941565b34801561061957600080fd5b506104d960115481565b34801561062f57600080fd5b5061049561063e366004614d5e565b61195b565b34801561064f57600080fd5b506104d961065e366004614d17565b60009081526020819052604090206001015490565b34801561067f57600080fd5b506016546105e0906001600160a01b031681565b34801561069f57600080fd5b50601a546105e0906001600160a01b031681565b3480156106bf57600080fd5b506106d36106ce366004614d17565b611b63565b6040516104e391906150c0565b3480156106ec57600080fd5b506104956106fb366004614d2f565b611bed565b34801561070c57600080fd5b5061072061071b366004614d17565b611c14565b604080516001600160a01b0390961686526020860194909452928401919091526060830152608082015260a0016104e3565b34801561075e57600080fd5b5061049561076d366004614d2f565b611c5f565b34801561077e57600080fd5b5061049561078d366004614d17565b611c81565b34801561079e57600080fd5b506107b26107ad366004614d17565b611ccb565b604080516001600160a01b039485168152939092166020840152908201526060016104e3565b3480156107e457600080fd5b506104d960215481565b3480156107fa57600080fd5b50610495611d0b565b34801561080f57600080fd5b506008546104d9565b34801561082457600080fd5b5061082d611d95565b6040516104e391906150ad565b34801561084657600080fd5b506017546105e0906001600160a01b031681565b34801561086657600080fd5b50610495610875366004614d17565b611e23565b34801561088657600080fd5b5061089a610895366004614d17565b611e35565b6040516104e391906150ef565b3480156108b357600080fd5b506015546105e0906001600160a01b031681565b3480156108d357600080fd5b506104d9600b5481565b3480156108e957600080fd5b50610495611ea3565b3480156108fe57600080fd5b506106d361090d366004614c4f565b612376565b34801561091e57600080fd5b506104d960205481565b34801561093457600080fd5b5061050c6123d5565b34801561094957600080fd5b506104d9610958366004614c4f565b60036020526000908152604090205481565b34801561097657600080fd5b5061098a610985366004614d17565b612555565b604080516001600160a01b0390931683526020830191909152016104e3565b3480156109b557600080fd5b506109c96109c4366004614d5e565b61258d565b6040516104e39190614f16565b3480156109e257600080fd5b506018546105e0906001600160a01b031681565b348015610a0257600080fd5b506104d960235481565b348015610a1857600080fd5b506105e0610a27366004614d5e565b61270a565b348015610a3857600080fd5b5061050c610a47366004614d2f565b6000918252602082815260408084206001600160a01b0393909316845291905290205460ff1690565b348015610a7c57600080fd5b50610495612729565b348015610a9157600080fd5b50610495610aa0366004614c4f565b6129c1565b348015610ab157600080fd5b50610495610ac0366004614d5e565b6129f0565b348015610ad157600080fd5b50610495612cf8565b348015610ae657600080fd5b506013546105e0906001600160a01b031681565b348015610b0657600080fd5b506104d9613249565b348015610b1b57600080fd5b506019546105e0906001600160a01b031681565b348015610b3b57600080fd5b5061089a610b4a366004614c4f565b6132f1565b348015610b5b57600080fd5b5061082d61334b565b348015610b7057600080fd5b50600254610b7e9060ff1681565b6040516104e39190615085565b348015610b9757600080fd5b506104d9601f5481565b348015610bad57600080fd5b50610495613358565b348015610bc257600080fd5b506104d9610bd1366004614d17565b613586565b348015610be257600080fd5b506104d9610bf1366004614c4f565b60076020526000908152604090205481565b348015610c0f57600080fd5b506104d960225481565b348015610c2557600080fd5b506104d9600081565b348015610c3a57600080fd5b50610495610c49366004614d2f565b61359d565b348015610c5a57600080fd5b50600c54600d54604080519283526020830191909152016104e3565b348015610c8257600080fd5b506104d960105481565b348015610c9857600080fd5b5061082d6135a7565b348015610cad57600080fd5b50610cc1610cbc366004614d5e565b6135b4565b6040516104e39190614f88565b348015610cda57600080fd5b506104d960125481565b348015610cf057600080fd5b50610495610cff366004614dbf565b61370d565b348015610d1057600080fd5b506004546104d9565b348015610d2557600080fd5b506104d9610d34366004614c4f565b60056020526000908152604090205481565b348015610d5257600080fd5b50610d5b613728565b6040516104e39190614fe8565b348015610d7457600080fd5b506104d9610d83366004614c4f565b613c37565b348015610d9457600080fd5b506105e0600081565b348015610da957600080fd5b50610495613d85565b6000610dbe813361405e565b600460025460ff166007811115610de557634e487b7160e01b600052602160045260246000fd5b14610e5d5760405162461bcd60e51b815260206004820152603360248201527f50523a20496e766573746f727320746f6b656e73206861766520616c7265616460448201527f79206265656e206469737472696275746564210000000000000000000000000060648201526084015b60405180910390fd5b6000610e69848461258d565b905060005b81518110156110bf5760016006600160056000868681518110610ea157634e487b7160e01b600052603260045260246000fd5b6020026020010151600001516001600160a01b03166001600160a01b0316815260200190815260200160002054610ed8919061519e565b81548110610ef657634e487b7160e01b600052603260045260246000fd5b906000526020600020906005020160010154116110ad576040518060a00160405280838381518110610f3857634e487b7160e01b600052603260045260246000fd5b6020026020010151600001516001600160a01b03168152602001600c54848481518110610f7557634e487b7160e01b600052603260045260246000fd5b602002602001015160400151601054610f8e919061517f565b610f98919061515f565b81526020016000815260200160205442610fb29190615147565b815260200160215460205442610fc89190615147565b610fd29190615147565b8152506006600160056000868681518110610ffd57634e487b7160e01b600052603260045260246000fd5b6020026020010151600001516001600160a01b03166001600160a01b0316815260200190815260200160002054611034919061519e565b8154811061105257634e487b7160e01b600052603260045260246000fd5b600091825260209182902083516005929092020180546001600160a01b0319166001600160a01b0390921691909117815590820151600182015560408201516002820155606082015160038201556080909101516004909101555b806110b781615233565b915050610e6e565b5050505050565b60006110d2813361405e565b600160025460ff1660078111156110f957634e487b7160e01b600052602160045260246000fd5b146111465760405162461bcd60e51b815260206004820152601c60248201527f50523a205061697220697320616c7265616479206372656174656421000000006044820152606401610e54565b6013546001600160a01b03166111c45760405162461bcd60e51b815260206004820152602a60248201527f50523a20546f6b656e206164647265737320776173206e6f7420696e6974696160448201527f6c697a65642079657421000000000000000000000000000000000000000000006064820152608401610e54565b60185460135460165460405163e6a4390560e01b81526001600160a01b039283166004820152908216602482015291169063e6a439059060440160206040518083038186803b15801561121657600080fd5b505afa15801561122a573d6000803e3d6000fd5b505050506040513d601f19601f8201168201806040525081019061124e9190614c6b565b601a80546001600160a01b0319166001600160a01b03929092169182179055611337576018546013546016546040517fc9c653960000000000000000000000000000000000000000000000000000000081526001600160a01b039283166004820152908216602482015291169063c9c6539690604401602060405180830381600087803b1580156112de57600080fd5b505af11580156112f2573d6000803e3d6000fd5b505050506040513d601f19601f820116820180604052508101906113169190614c6b565b601a80546001600160a01b0319166001600160a01b03929092169190911790555b61134160036140dc565b50565b60006001600160e01b031982167f5a05180f000000000000000000000000000000000000000000000000000000001480611382575061138282614148565b92915050565b6000611394813361405e565b60005b8281101561141b576114098484838181106113c257634e487b7160e01b600052603260045260246000fd5b905060400201600001358585848181106113ec57634e487b7160e01b600052603260045260246000fd5b90506040020160200160208101906114049190614c4f565b6141af565b8061141381615233565b915050611397565b50505050565b600060025460ff16600781111561144857634e487b7160e01b600052602160045260246000fd5b146114bb5760405162461bcd60e51b815260206004820152602860248201527f50523a20416363657074696e67207061796d656e747320686173206265656e2060448201527f73746f70706564210000000000000000000000000000000000000000000000006064820152608401610e54565b600d54600c54111561150f5760405162461bcd60e51b815260206004820152601460248201527f50523a204d6178206361702072656163686564210000000000000000000000006044820152606401610e54565b600e5434101561156f5760405162461bcd60e51b815260206004820152602560248201527f50523a20416d6f756e742069732062656c6f77206d696e696d756d207065726d6044820152641a5d1d195960da1b6064820152608401610e54565b600f543411156115cf5760405162461bcd60e51b815260206004820152602560248201527f50523a20416d6f756e742069732061626f7665206d6178696d756d207065726d6044820152641a5d1d195960da1b6064820152608401610e54565b33600090815260096020526040902054156116365760405162461bcd60e51b815260206004820152602160248201527f50523a205465616d206973206e6f7420616c6c6f77656420746f20696e7665736044820152601d60fa1b6064820152608401610e54565b6001600160a01b038116600090815260076020526040902054156116c25760405162461bcd60e51b815260206004820152602660248201527f50523a20506c656173652075736520646966666572656e74207265666572726160448201527f6c206c696e6b00000000000000000000000000000000000000000000000000006064820152608401610e54565b336001600160a01b03821614156117415760405162461bcd60e51b815260206004820152603e60248201527f50523a2053656c662d7265662069736e277420616c6c6f7765642e20506c656160448201527f73652075736520646966666572656e7420726566657272616c206c696e6b00006064820152608401610e54565b6001600160a01b038116611766575073c427a912e0b19f082840a0045e430de5b8cb1f655b6117713382346141b9565b61134181620f4240600b5434611787919061517f565b611791919061515f565b6143f1565b6001600160a01b0381166000908152600360205260408120548190819081906004906117c49060019061519e565b815481106117e257634e487b7160e01b600052603260045260246000fd5b9060005260206000209060030201600201546008600160076000896001600160a01b03166001600160a01b0316815260200190815260200160002054611828919061519e565b8154811061184657634e487b7160e01b600052603260045260246000fd5b906000526020600020906002020160010154600e54600f5493509350935093509193509193565b600a818154811061187d57600080fd5b6000918252602090912060059091020180546001820180546001600160a01b039092169350906118ac906151f8565b80601f01602080910402602001604051908101604052809291908181526020018280546118d8906151f8565b80156119255780601f106118fa57610100808354040283529160200191611925565b820191906000526020600020905b81548152906001019060200180831161190857829003601f168201915b5050505050908060020154908060030154908060040154905085565b611949611d0b565b6119516110c6565b611959611ea3565b565b6000611967813361405e565b6015546040516370a0823160e01b81523060048201526000916001600160a01b0316906370a082319060240160206040518083038186803b1580156119ab57600080fd5b505afa1580156119bf573d6000803e3d6000fd5b505050506040513d601f19601f820116820180604052508101906119e39190614da7565b90508015611a63576015546040517f2e1a7d4d000000000000000000000000000000000000000000000000000000008152600481018390526001600160a01b0390911690632e1a7d4d90602401600060405180830381600087803b158015611a4a57600080fd5b505af1158015611a5e573d6000803e3d6000fd5b505050505b6000611a6f858561258d565b905060005b8151811015611b58576000828281518110611a9f57634e487b7160e01b600052603260045260246000fd5b60200260200101516040015190506000838381518110611acf57634e487b7160e01b600052603260045260246000fd5b60200260200101516040018181525050828281518110611aff57634e487b7160e01b600052603260045260246000fd5b6020026020010151600001516001600160a01b03166108fc829081150290604051600060405180830381858888f19350505050158015611b43573d6000803e3d6000fd5b50508080611b5090615233565b915050611a74565b506110bf60076140dc565b604080516060810182526000808252602082018190529181019190915260048281548110611ba157634e487b7160e01b600052603260045260246000fd5b600091825260209182902060408051606081018252600390930290910180546001600160a01b039081168452600182015416938301939093526002909201549181019190915292915050565b611bf7828261452f565b6000828152600160205260409020611c0f9082614049565b505050565b60068181548110611c2457600080fd5b6000918252602090912060059091020180546001820154600283015460038401546004909401546001600160a01b0390931694509092909185565b611c698282614545565b6000828152600160205260409020611c0f90826145cd565b611c89612cf8565b611c91612729565b8015611c9d5780611ca1565b6004545b9050611cae600082610db2565b8015611cba5780611cbe565b6004545b90506113416000826129f0565b60048181548110611cdb57600080fd5b60009182526020909120600390910201805460018201546002909201546001600160a01b03918216935091169083565b6000611d17813361405e565b600060025460ff166007811115611d3e57634e487b7160e01b600052602160045260246000fd5b14611d8b5760405162461bcd60e51b815260206004820152601c60248201527f50523a20476f616c20697320616c7265616479207265616368656421000000006044820152606401610e54565b61134160016140dc565b601d8054611da2906151f8565b80601f0160208091040260200160405190810160405280929190818152602001828054611dce906151f8565b8015611e1b5780601f10611df057610100808354040283529160200191611e1b565b820191906000526020600020905b815481529060010190602001808311611dfe57829003601f168201915b505050505081565b6000611e2f813361405e565b50601255565b604080518082019091526000808252602082015260088281548110611e6a57634e487b7160e01b600052603260045260246000fd5b60009182526020918290206040805180820190915260029092020180546001600160a01b03168252600101549181019190915292915050565b6000611eaf813361405e565b600360025460ff166007811115611ed657634e487b7160e01b600052602160045260246000fd5b14611f495760405162461bcd60e51b815260206004820152602960248201527f50523a20507265706172696e6720616464206c6971756964697479206973206360448201527f6f6d706c657465642100000000000000000000000000000000000000000000006064820152608401610e54565b60004711611fbf5760405162461bcd60e51b815260206004820152602b60248201527f50523a2045746865722062616c616e6365206d757374206265206c617267657260448201527f207468616e207a65726f210000000000000000000000000000000000000000006064820152608401610e54565b601554604080517fd0e30db000000000000000000000000000000000000000000000000000000000815290516001600160a01b0390921691829163d0e30db091479160048082019260009290919082900301818588803b15801561202257600080fd5b505af1158015612036573d6000803e3d6000fd5b505060185460155460165460405163e6a4390560e01b81526001600160a01b0392831660048201529082166024820152600095509116925063e6a43905915060440160206040518083038186803b15801561209057600080fd5b505afa1580156120a4573d6000803e3d6000fd5b505050506040513d601f19601f820116820180604052508101906120c89190614c6b565b6040516370a0823160e01b81523060048201529091506000906001600160a01b038416906370a082319060240160206040518083038186803b15801561210d57600080fd5b505afa158015612121573d6000803e3d6000fd5b505050506040513d601f19601f820116820180604052508101906121459190614da7565b60405163a9059cbb60e01b81526001600160a01b038481166004830152602482018390529192509084169063a9059cbb90604401602060405180830381600087803b15801561219357600080fd5b505af11580156121a7573d6000803e3d6000fd5b505050506040513d601f19601f820116820180604052508101906121cb9190614cf7565b506000829050600080826001600160a01b0316630902f1ac6040518163ffffffff1660e01b815260040160606040518083038186803b15801561220d57600080fd5b505afa158015612221573d6000803e3d6000fd5b505050506040513d601f19601f820116820180604052508101906122459190614dea565b506015546016549294509092506001600160a01b039081169116111561226757905b6000612275856103e561517f565b9050600081612286856103e861517f565b6122909190615147565b61229a848461517f565b6122a4919061515f565b60155460165491925060009182916001600160a01b039081169116116122cc578260006122d0565b6000835b604080516000815260208101918290527f022c0d9f0000000000000000000000000000000000000000000000000000000090915291935091506001600160a01b0388169063022c0d9f9061232d908590859030906024810161510f565b600060405180830381600087803b15801561234757600080fd5b505af115801561235b573d6000803e3d6000fd5b5050505061236960026140dc565b5050505050505050505050565b60408051606081018252600080825260208083018290528284018290526001600160a01b03851682526003905291909120546004906123b79060019061519e565b81548110611ba157634e487b7160e01b600052603260045260246000fd5b6000805b60085481101561249157600160066001600560006008868154811061240e57634e487b7160e01b600052603260045260246000fd5b600091825260208083206002909202909101546001600160a01b03168352820192909252604001902054612442919061519e565b8154811061246057634e487b7160e01b600052603260045260246000fd5b9060005260206000209060050201600101541161247f57600091505090565b8061248981615233565b9150506123d9565b5060005b60045481101561254d5760016006600160056000600486815481106124ca57634e487b7160e01b600052603260045260246000fd5b600091825260208083206003909202909101546001600160a01b031683528201929092526040019020546124fe919061519e565b8154811061251c57634e487b7160e01b600052603260045260246000fd5b9060005260206000209060050201600101541161253b57600091505090565b8061254581615233565b915050612495565b506001905090565b6008818154811061256557600080fd5b6000918252602090912060029091020180546001909101546001600160a01b03909116915082565b606082600061259c8483615147565b60045490915081116125ae57806125b2565b6004545b905060008282116125c45760006125ce565b6125ce838361519e565b905060008167ffffffffffffffff8111156125f957634e487b7160e01b600052604160045260246000fd5b60405190808252806020026020018201604052801561264457816020015b60408051606081018252600080825260208083018290529282015282526000199092019101816126175790505b509050835b838110156126ff576004818154811061267257634e487b7160e01b600052603260045260246000fd5b600091825260209182902060408051606081018252600390930290910180546001600160a01b0390811684526001820154169383019390935260029092015491810191909152826126c3878461519e565b815181106126e157634e487b7160e01b600052603260045260246000fd5b602002602001018190525080806126f790615233565b915050612649565b509695505050505050565b600082815260016020526040812061272290836145e2565b9392505050565b6000612735813361405e565b600460025460ff16600781111561275c57634e487b7160e01b600052602160045260246000fd5b146127cf5760405162461bcd60e51b815260206004820152603460248201527f50523a20546f6b656e6f6d69637320746f6b656e73206861766520616c72656160448201527f6479206265656e206469737472696275746564210000000000000000000000006064820152608401610e54565b60005b600a548110156129bd5760066040518060a00160405280600a848154811061280a57634e487b7160e01b600052603260045260246000fd5b6000918252602091829020600590910201546001600160a01b03168252600a80549290910191620f424091908690811061285457634e487b7160e01b600052603260045260246000fd5b906000526020600020906005020160020154601154612873919061517f565b61287d919061515f565b815260200160008152602001600a84815481106128aa57634e487b7160e01b600052603260045260246000fd5b906000526020600020906005020160030154426128c79190615147565b8152602001600a84815481106128ed57634e487b7160e01b600052603260045260246000fd5b906000526020600020906005020160040154600a858154811061292057634e487b7160e01b600052603260045260246000fd5b9060005260206000209060050201600301544261293d9190615147565b6129479190615147565b90528154600180820184556000938452602093849020835160059093020180546001600160a01b0319166001600160a01b039093169290921782559282015192810192909255604081015160028301556060810151600383015560800151600490910155806129b581615233565b9150506127d2565b5050565b60006129cd813361405e565b50601380546001600160a01b0319166001600160a01b0392909216919091179055565b60006129fc813361405e565b600460025460ff166007811115612a2357634e487b7160e01b600052602160045260246000fd5b14612a965760405162461bcd60e51b815260206004820152603360248201527f50523a20526566657272616c7320746f6b656e73206861766520616c7265616460448201527f79206265656e20646973747269627574656421000000000000000000000000006064820152608401610e54565b6000612aa284846135b4565b905060005b81518110156110bf5760016006600160056000868681518110612ada57634e487b7160e01b600052603260045260246000fd5b6020026020010151600001516001600160a01b03166001600160a01b0316815260200190815260200160002054612b11919061519e565b81548110612b2f57634e487b7160e01b600052603260045260246000fd5b90600052602060002090600502016001015411612ce6576040518060a00160405280838381518110612b7157634e487b7160e01b600052603260045260246000fd5b6020026020010151600001516001600160a01b03168152602001600c54601054858581518110612bb157634e487b7160e01b600052603260045260246000fd5b602002602001015160200151612bc7919061517f565b612bd1919061515f565b81526020016000815260200160225442612beb9190615147565b815260200160235460225442612c019190615147565b612c0b9190615147565b8152506006600160056000868681518110612c3657634e487b7160e01b600052603260045260246000fd5b6020026020010151600001516001600160a01b03166001600160a01b0316815260200190815260200160002054612c6d919061519e565b81548110612c8b57634e487b7160e01b600052603260045260246000fd5b600091825260209182902083516005929092020180546001600160a01b0319166001600160a01b0390921691909117815590820151600182015560408201516002820155606082015160038201556080909101516004909101555b80612cf081615233565b915050612aa7565b6000612d04813361405e565b6002805460ff166007811115612d2a57634e487b7160e01b600052602160045260246000fd5b14612d775760405162461bcd60e51b815260206004820152601f60248201527f50523a204c697175696469747920697320616c726561647920616464656421006044820152606401610e54565b6016546040516370a0823160e01b81523060048201526001600160a01b039091169060009082906370a082319060240160206040518083038186803b158015612dbf57600080fd5b505afa158015612dd3573d6000803e3d6000fd5b505050506040513d601f19601f82011682018060405250810190612df79190614da7565b90506000670de0b6b3a764000060125483612e12919061517f565b612e1c919061515f565b9050612e26613249565b612e33620f42408361517f565b612e3d919061515f565b612e48906001615147565b6011556010819055601a5460405163a9059cbb60e01b81526001600160a01b039182166004820152602481018490529084169063a9059cbb90604401602060405180830381600087803b158015612e9e57600080fd5b505af1158015612eb2573d6000803e3d6000fd5b505050506040513d601f19601f82011682018060405250810190612ed69190614cf7565b50601354601a54604051630bb9ff5d60e01b81526001600160a01b03918216600482015260248101849052911690630bb9ff5d90604401600060405180830381600087803b158015612f2757600080fd5b505af1158015612f3b573d6000803e3d6000fd5b5050601a546040517f6a6278420000000000000000000000000000000000000000000000000000000081523060048201526001600160a01b039091169250829150636a62784290602401602060405180830381600087803b158015612f9f57600080fd5b505af1158015612fb3573d6000803e3d6000fd5b505050506040513d601f19601f82011682018060405250810190612fd79190614da7565b506014546001600160a01b0316156131bc57601a546014546040517f095ea7b30000000000000000000000000000000000000000000000000000000081526001600160a01b039182166004820152600019602482015291169063095ea7b390604401602060405180830381600087803b15801561305357600080fd5b505af1158015613067573d6000803e3d6000fd5b505050506040513d601f19601f8201168201806040525081019061308b9190614cf7565b50601454601a546001600160a01b0391821691637d533c1e911633601a546040516370a0823160e01b81523060048201526001600160a01b03909116906370a082319060240160206040518083038186803b1580156130e957600080fd5b505afa1580156130fd573d6000803e3d6000fd5b505050506040513d601f19601f820116820180604052508101906131219190614da7565b601f5461312e9042615147565b6040516001600160e01b031960e087901b1681526001600160a01b03948516600482015293909216602484015260448301526064820152608401602060405180830381600087803b15801561318257600080fd5b505af1158015613196573d6000803e3d6000fd5b505050506040513d601f19601f820116820180604052508101906131ba9190614da7565b505b6013546011546001600160a01b0390911690630bb9ff5d9030906131e190869061519e565b6040516001600160e01b031960e085901b1681526001600160a01b0390921660048301526024820152604401600060405180830381600087803b15801561322757600080fd5b505af115801561323b573d6000803e3d6000fd5b505050506110bf60046140dc565b60008060005b600a548110156132ab57600a818154811061327a57634e487b7160e01b600052603260045260246000fd5b906000526020600020906005020160020154826132979190615147565b9150806132a381615233565b91505061324f565b50600b546132bd620f4240600261517f565b6132c79190615147565b6132d482620f424061519e565b6132e190620f424061517f565b6132eb919061515f565b91505090565b60408051808201909152600080825260208201526001600160a01b03821660009081526007602052604090205460089061332d9060019061519e565b81548110611e6a57634e487b7160e01b600052603260045260246000fd5b601c8054611da2906151f8565b6000613364813361405e565b60005b60085481101561346f57600160066001600560006008868154811061339c57634e487b7160e01b600052603260045260246000fd5b600091825260208083206002909202909101546001600160a01b031683528201929092526040019020546133d0919061519e565b815481106133ee57634e487b7160e01b600052603260045260246000fd5b9060005260206000209060050201600101541161345d5760405162461bcd60e51b815260206004820152602760248201527f50523a204e6f7420616c6c20696e766573746f7227732076657374696e6720776044820152666173207365742160c81b6064820152608401610e54565b8061346781615233565b915050613367565b5060005b60045481101561357b5760016006600160056000600486815481106134a857634e487b7160e01b600052603260045260246000fd5b600091825260208083206003909202909101546001600160a01b031683528201929092526040019020546134dc919061519e565b815481106134fa57634e487b7160e01b600052603260045260246000fd5b906000526020600020906005020160010154116135695760405162461bcd60e51b815260206004820152602760248201527f50523a204e6f7420616c6c20696e766573746f7227732076657374696e6720776044820152666173207365742160c81b6064820152608401610e54565b8061357381615233565b915050613473565b5061134160066140dc565b6000818152600160205260408120611382906145ee565b611c6982826145f8565b601e8054611da2906151f8565b60608260006135c38483615147565b60085490915081116135d557806135d9565b6008545b905060008282116135eb5760006135f5565b6135f5838361519e565b905060008167ffffffffffffffff81111561362057634e487b7160e01b600052604160045260246000fd5b60405190808252806020026020018201604052801561366557816020015b604080518082019091526000808252602082015281526020019060019003908161363e5790505b509050835b838110156126ff576008818154811061369357634e487b7160e01b600052603260045260246000fd5b60009182526020918290206040805180820190915260029092020180546001600160a01b031682526001015491810191909152826136d1878461519e565b815181106136ef57634e487b7160e01b600052603260045260246000fd5b6020026020010181905250808061370590615233565b91505061366a565b6000613719813361405e565b50600d92909255600e55600f55565b60606000613734613249565b600a54909150600090613748906003615147565b67ffffffffffffffff81111561376e57634e487b7160e01b600052604160045260246000fd5b6040519080825280602002602001820160405280156137da57816020015b6137c76040518060a0016040528060006001600160a01b03168152602001606081526020016000815260200160008152602001600081525090565b81526020019060019003908161378c5790505b5090506040518060a0016040528060016001600160a01b031681526020016040518060400160405280600981526020017f4c697175696469747900000000000000000000000000000000000000000000008152508152602001838152602001601f54815260200160008152508160008151811061386757634e487b7160e01b600052603260045260246000fd5b60200260200101819052506040518060a0016040528060026001600160a01b031681526020016040518060400160405280600781526020017f50726573616c650000000000000000000000000000000000000000000000000081525081526020018381526020016020548152602001602154815250816001815181106138fd57634e487b7160e01b600052603260045260246000fd5b60200260200101819052506040518060a0016040528060036001600160a01b031681526020016040518060400160405280600981526020017f526566657272616c7300000000000000000000000000000000000000000000008152508152602001620f4240600b5485613970919061517f565b61397a919061515f565b81526020016022548152602001602354815250816002815181106139ae57634e487b7160e01b600052603260045260246000fd5b602002602001018190525060005b600a54811015613b1157600a81815481106139e757634e487b7160e01b600052603260045260246000fd5b60009182526020918290206040805160a0810190915260059092020180546001600160a01b031682526001810180549293919291840191613a27906151f8565b80601f0160208091040260200160405190810160405280929190818152602001828054613a53906151f8565b8015613aa05780601f10613a7557610100808354040283529160200191613aa0565b820191906000526020600020905b815481529060010190602001808311613a8357829003601f168201915b50505050508152602001600282015481526020016003820154815260200160048201548152505082826003613ad59190615147565b81518110613af357634e487b7160e01b600052603260045260246000fd5b60200260200101819052508080613b0990615233565b9150506139bc565b50600a805480602002602001604051908101604052809291908181526020016000905b82821015613c2c5760008481526020908190206040805160a081019091526005850290910180546001600160a01b031682526001810180549293919291840191613b7d906151f8565b80601f0160208091040260200160405190810160405280929190818152602001828054613ba9906151f8565b8015613bf65780601f10613bcb57610100808354040283529160200191613bf6565b820191906000526020600020905b815481529060010190602001808311613bd957829003601f168201915b50505050508152602001600282015481526020016003820154815260200160048201548152505081526020019060010190613b34565b505050509250505090565b6001600160a01b0381166000908152600560205260408120548190600690613c619060019061519e565b81548110613c7f57634e487b7160e01b600052603260045260246000fd5b60009182526020918290206040805160a081018252600590930290910180546001600160a01b031683526001810154938301939093526002830154908201526003820154606082018190526004909201546080820152915042111580613cec575080608001518160600151115b15613cfa5750600092915050565b80608001514210613d195780604001518160200151612722919061519e565b600081606001518260800151613d2f919061519e565b6060830151613d3e904261519e565b8360200151613d4d919061517f565b613d57919061515f565b905081604001518111613d6e575060009392505050565b6040820151613d7d908261519e565b949350505050565b33600090815260056020526040812054600690613da49060019061519e565b81548110613dc257634e487b7160e01b600052603260045260246000fd5b60009182526020918290206040805160a081018252600590930290910180546001600160a01b0316835260018101549383019390935260028301549082015260038201546060820181905260049092015460808201529150421015613e735760405162461bcd60e51b815260206004820152602160248201527f50523a204c6f636b656420706572696f64206973206e6f74206f7665722079656044820152601d60fa1b6064820152608401610e54565b8060200151816040015110613ef05760405162461bcd60e51b815260206004820152602960248201527f50523a20596f75206861766520616c726561647920726563656976656420313060448201527f302520746f6b656e7300000000000000000000000000000000000000000000006064820152608401610e54565b6000613efb33613c37565b905060008111613f735760405162461bcd60e51b815260206004820152603360248201527f50523a20546865726520617265203020746f6b656e7320617661696c61626c6560448201527f20746f20636c61696d207269676874206e6f77000000000000000000000000006064820152608401610e54565b336000908152600560205260409020548190600690613f949060019061519e565b81548110613fb257634e487b7160e01b600052603260045260246000fd5b90600052602060002090600502016002016000828254613fd29190615147565b9091555050601354604051630bb9ff5d60e01b8152336004820152602481018390526001600160a01b0390911690630bb9ff5d90604401600060405180830381600087803b15801561402357600080fd5b505af1158015614037573d6000803e3d6000fd5b505050505050565b6129bd828261461e565b6000612722836001600160a01b0384166146bc565b6000828152602081815260408083206001600160a01b038516845290915290205460ff166129bd5761409a816001600160a01b0316601461470b565b6140a583602061470b565b6040516020016140b6929190614e56565b60408051601f198184030181529082905262461bcd60e51b8252610e54916004016150ad565b6002805482919060ff1916600183600781111561410957634e487b7160e01b600052602160045260246000fd5b02179055507f551dc40198cc79684bb69e4931dba4ac16e4598792ee1c0a5000aeea366d7bb68160405161413d9190615085565b60405180910390a150565b60006001600160e01b031982167f7965db0b00000000000000000000000000000000000000000000000000000000148061138257507f01ffc9a7000000000000000000000000000000000000000000000000000000006001600160e01b0319831614611382565b611bf7828261403f565b6001600160a01b0383166000908152600360205260409020546142b957604080516060810182526001600160a01b038086168083528582166020808501918252848601878152600480546001810182556000828152975160039182027f8a35acfbc15ff81a39ae7d344fd709f28e8600b4aa8c65c6b64bfe7fe36bd19b81018054928a166001600160a01b031993841617905595517f8a35acfbc15ff81a39ae7d344fd709f28e8600b4aa8c65c6b64bfe7fe36bd19c870180549190991691161790965590517f8a35acfbc15ff81a39ae7d344fd709f28e8600b4aa8c65c6b64bfe7fe36bd19d90930192909255905491845291909152919020556143d0565b6001600160a01b03831660009081526003602052604081205482906004906142e39060019061519e565b8154811061430157634e487b7160e01b600052603260045260246000fd5b90600052602060002090600302016002015461431d9190615147565b9050600f548111156143715760405162461bcd60e51b815260206004820152601f60248201527f50523a204d617820636170207065722077616c6c6574206578636565646564006044820152606401610e54565b6001600160a01b038416600090815260036020526040902054819060049061439b9060019061519e565b815481106143b957634e487b7160e01b600052603260045260246000fd5b906000526020600020906003020160020181905550505b80600c60008282546143e29190615147565b90915550611c0f905083614932565b6001600160a01b0382166000908152600760205260409020546144b8576040805180820182526001600160a01b03848116808352602080840186815260088054600181018255600082815296517ff3f7a9fe364faab93b216da50a3214154f22a0a2b415b23a84c8169e8b636ee3600290920291820180546001600160a01b031916919097161790955590517ff3f7a9fe364faab93b216da50a3214154f22a0a2b415b23a84c8169e8b636ee4909401939093559154908352600790915291902055614526565b6001600160a01b03821660009081526007602052604090205481906008906144e29060019061519e565b8154811061450057634e487b7160e01b600052603260045260246000fd5b906000526020600020906002020160010160008282546145209190615147565b90915550505b6129bd82614932565b600061453b813361405e565b611c0f838361461e565b6001600160a01b03811633146145c35760405162461bcd60e51b815260206004820152602f60248201527f416363657373436f6e74726f6c3a2063616e206f6e6c792072656e6f756e636560448201527f20726f6c657320666f722073656c6600000000000000000000000000000000006064820152608401610e54565b6129bd8282614a7b565b6000612722836001600160a01b038416614afa565b60006127228383614c17565b6000611382825490565b600082815260208190526040902060010154614614813361405e565b611c0f8383614a7b565b6000828152602081815260408083206001600160a01b038516845290915290205460ff166129bd576000828152602081815260408083206001600160a01b03851684529091529020805460ff191660011790556146783390565b6001600160a01b0316816001600160a01b0316837f2f8788117e7eff1d82e926ec794901d17c78024a50270940304540a733656f0d60405160405180910390a45050565b600081815260018301602052604081205461470357508154600181810184556000848152602080822090930184905584548482528286019093526040902091909155611382565b506000611382565b6060600061471a83600261517f565b614725906002615147565b67ffffffffffffffff81111561474b57634e487b7160e01b600052604160045260246000fd5b6040519080825280601f01601f191660200182016040528015614775576020820181803683370190505b5090507f3000000000000000000000000000000000000000000000000000000000000000816000815181106147ba57634e487b7160e01b600052603260045260246000fd5b60200101906001600160f81b031916908160001a9053507f78000000000000000000000000000000000000000000000000000000000000008160018151811061481357634e487b7160e01b600052603260045260246000fd5b60200101906001600160f81b031916908160001a905350600061483784600261517f565b614842906001615147565b90505b60018111156148e3577f303132333435363738396162636465660000000000000000000000000000000085600f166010811061489157634e487b7160e01b600052603260045260246000fd5b1a60f81b8282815181106148b557634e487b7160e01b600052603260045260246000fd5b60200101906001600160f81b031916908160001a90535060049490941c936148dc816151e1565b9050614845565b5083156127225760405162461bcd60e51b815260206004820181905260248201527f537472696e67733a20686578206c656e67746820696e73756666696369656e746044820152606401610e54565b6001600160a01b038116600090815260056020526040902054611341576040805160a0810182526001600160a01b03928316808252600160208084018281528486018381526060860184815260808701858152600680549687018155600081815298517ff652222313e28459528d920b65115c16c04f3efc82aaedc97be59f3f377c0d3f600598890290810180546001600160a01b03191692909d1691909117909b5593517ff652222313e28459528d920b65115c16c04f3efc82aaedc97be59f3f377c0d408b015591517ff652222313e28459528d920b65115c16c04f3efc82aaedc97be59f3f377c0d418a0155517ff652222313e28459528d920b65115c16c04f3efc82aaedc97be59f3f377c0d42890155517ff652222313e28459528d920b65115c16c04f3efc82aaedc97be59f3f377c0d439097019690965594549183529093522055565b6000828152602081815260408083206001600160a01b038516845290915290205460ff16156129bd576000828152602081815260408083206001600160a01b0385168085529252808320805460ff1916905551339285917ff6391f5c32d9c69d2a47ea670b442974b53935d1edc7fd64eb21e047a839171b9190a45050565b60008181526001830160205260408120548015614c0d576000614b1e60018361519e565b8554909150600090614b329060019061519e565b9050818114614bb3576000866000018281548110614b6057634e487b7160e01b600052603260045260246000fd5b9060005260206000200154905080876000018481548110614b9157634e487b7160e01b600052603260045260246000fd5b6000918252602080832090910192909255918252600188019052604090208390555b8554869080614bd257634e487b7160e01b600052603160045260246000fd5b600190038181906000526020600020016000905590558560010160008681526020019081526020016000206000905560019350505050611382565b6000915050611382565b6000826000018281548110614c3c57634e487b7160e01b600052603260045260246000fd5b9060005260206000200154905092915050565b600060208284031215614c60578081fd5b813561272281615264565b600060208284031215614c7c578081fd5b815161272281615264565b60008060208385031215614c99578081fd5b823567ffffffffffffffff80821115614cb0578283fd5b818501915085601f830112614cc3578283fd5b813581811115614cd1578384fd5b8660208260061b8501011115614ce5578384fd5b60209290920196919550909350505050565b600060208284031215614d08578081fd5b81518015158114612722578182fd5b600060208284031215614d28578081fd5b5035919050565b60008060408385031215614d41578182fd5b823591506020830135614d5381615264565b809150509250929050565b60008060408385031215614d70578182fd5b50508035926020909101359150565b600060208284031215614d90578081fd5b81356001600160e01b031981168114612722578182fd5b600060208284031215614db8578081fd5b5051919050565b600080600060608486031215614dd3578081fd5b505081359360208301359350604090920135919050565b600080600060608486031215614dfe578283fd5b8351925060208401519150604084015163ffffffff81168114614e1f578182fd5b809150509250925092565b60008151808452614e428160208601602086016151b5565b601f01601f19169290920160200192915050565b7f416363657373436f6e74726f6c3a206163636f756e7420000000000000000000815260008351614e8e8160178501602088016151b5565b7f206973206d697373696e6720726f6c65200000000000000000000000000000006017918401918201528351614ecb8160288401602088016151b5565b01602801949350505050565b6001600160a01b038616815260a060208201526000614ef960a0830187614e2a565b604083019590955250606081019290925260809091015292915050565b6020808252825182820181905260009190848201906040850190845b81811015614f7c57614f698385516001600160a01b0380825116835280602083015116602084015250604081015160408301525050565b9284019260609290920191600101614f32565b50909695505050505050565b602080825282518282018190526000919060409081850190868401855b82811015614fdb57614fcb84835180516001600160a01b03168252602090810151910152565b9284019290850190600101614fa5565b5091979650505050505050565b60006020808301818452808551808352604092508286019150828160051b870101848801865b8381101561507757603f19898403018552815160a06001600160a01b03825116855288820151818a87015261504582870182614e2a565b838a0151878b01526060808501519088015260809384015193909601929092525050938601939086019060010161500e565b509098975050505050505050565b60208101600883106150a757634e487b7160e01b600052602160045260246000fd5b91905290565b6020815260006127226020830184614e2a565b81516001600160a01b039081168252602080840151909116908201526040808301519082015260608101611382565b81516001600160a01b031681526020808301519082015260408101611382565b8481528360208201526001600160a01b038316604082015260806060820152600061513d6080830184614e2a565b9695505050505050565b6000821982111561515a5761515a61524e565b500190565b60008261517a57634e487b7160e01b81526012600452602481fd5b500490565b60008160001904831182151516156151995761519961524e565b500290565b6000828210156151b0576151b061524e565b500390565b60005b838110156151d05781810151838201526020016151b8565b8381111561141b5750506000910152565b6000816151f0576151f061524e565b506000190190565b600181811c9082168061520c57607f821691505b6020821081141561522d57634e487b7160e01b600052602260045260246000fd5b50919050565b60006000198214156152475761524761524e565b5060010190565b634e487b7160e01b600052601160045260246000fd5b6001600160a01b038116811461134157600080fdfea2646970667358221220d63c2617b83d522660d81679137e519c218ed70564eb5e41d939eada015105aa64736f6c6343000804003368747470733a2f2f6c616d626f2e64656669666163746f72792e66696e616e6365",
			"opcodes": "PUSH1 0x80 PUSH1 0x40 MSTORE PUSH2 0xC350 PUSH1 0xB SSTORE PUSH8 0x4563918244F40000 PUSH1 0xD SSTORE PUSH5 0x2540BE400 PUSH1 0xE SSTORE PUSH10 0x10F0CF064DD59200000 PUSH1 0xF SSTORE PUSH8 0x8AC7230489E80000 PUSH1 0x12 SSTORE CALLVALUE DUP1 ISZERO PUSH3 0x46 JUMPI PUSH1 0x0 DUP1 REVERT JUMPDEST POP PUSH3 0x54 PUSH1 0x0 CALLER PUSH3 0x54F JUMP JUMPDEST PUSH1 0x40 DUP1 MLOAD DUP1 DUP3 ADD SWAP1 SWAP2 MSTORE PUSH1 0x13 DUP1 DUP3 MSTORE PUSH32 0x4C616D626F20546F6B656E2050726573616C6500000000000000000000000000 PUSH1 0x20 SWAP1 SWAP3 ADD SWAP2 DUP3 MSTORE PUSH3 0x9A SWAP2 PUSH1 0x1E SWAP2 PUSH3 0x9F1 JUMP JUMPDEST POP PUSH1 0x40 MLOAD DUP1 PUSH1 0x60 ADD PUSH1 0x40 MSTORE DUP1 PUSH1 0x21 DUP2 MSTORE PUSH1 0x20 ADD PUSH3 0x5DE0 PUSH1 0x21 SWAP2 CODECOPY DUP1 MLOAD PUSH3 0xCB SWAP2 PUSH1 0x1C SWAP2 PUSH1 0x20 SWAP1 SWAP2 ADD SWAP1 PUSH3 0x9F1 JUMP JUMPDEST POP PUSH1 0x40 DUP1 MLOAD DUP1 DUP3 ADD SWAP1 SWAP2 MSTORE PUSH1 0x1D DUP1 DUP3 MSTORE PUSH32 0x68747470733A2F2F742E6D652F4C616D626F546F6B656E4F776E657273000000 PUSH1 0x20 SWAP1 SWAP3 ADD SWAP2 DUP3 MSTORE PUSH3 0x110 SWAP2 DUP2 PUSH3 0x9F1 JUMP JUMPDEST POP PUSH4 0xBBF81E00 PUSH1 0x1F SSTORE PUSH1 0x0 PUSH1 0x20 SWAP1 DUP2 SSTORE PUSH1 0x3C PUSH1 0x21 DUP2 SWAP1 SSTORE PUSH1 0x1E PUSH1 0x22 SSTORE PUSH1 0x78 PUSH1 0x23 SSTORE PUSH1 0x40 DUP1 MLOAD DUP1 DUP3 ADD SWAP1 SWAP2 MSTORE PUSH1 0xB DUP2 MSTORE PUSH11 0x11195D995B1BDC1B595B9D PUSH1 0xAA SHL SWAP3 DUP2 ADD SWAP3 SWAP1 SWAP3 MSTORE PUSH3 0x17E SWAP2 PUSH20 0x1111BEE701EF814A2B6A3EDD4B1652CB9CC5AA6F SWAP2 PUSH3 0x249F0 SWAP1 PUSH2 0x258 PUSH3 0x592 JUMP JUMPDEST PUSH3 0x1CE PUSH20 0x2222BEE701EF814A2B6A3EDD4B1652CB9CC5AA6F PUSH1 0x40 MLOAD DUP1 PUSH1 0x40 ADD PUSH1 0x40 MSTORE DUP1 PUSH1 0x9 DUP2 MSTORE PUSH1 0x20 ADD PUSH9 0x4D61726B6574696E67 PUSH1 0xB8 SHL DUP2 MSTORE POP PUSH3 0x186A0 PUSH1 0x78 PUSH2 0x4B0 PUSH3 0x592 PUSH1 0x20 SHL PUSH1 0x20 SHR JUMP JUMPDEST PUSH3 0x21C PUSH20 0x3333BEE701EF814A2B6A3EDD4B1652CB9CC5AA6F PUSH1 0x40 MLOAD DUP1 PUSH1 0x40 ADD PUSH1 0x40 MSTORE DUP1 PUSH1 0x8 DUP2 MSTORE PUSH1 0x20 ADD PUSH8 0x41647669736F7273 PUSH1 0xC0 SHL DUP2 MSTORE POP PUSH2 0xC350 PUSH1 0xB4 PUSH2 0x708 PUSH3 0x592 PUSH1 0x20 SHL PUSH1 0x20 SHR JUMP JUMPDEST PUSH1 0x1 CHAINID EQ ISZERO PUSH3 0x2DF JUMPI PUSH1 0x18 DUP1 SLOAD PUSH1 0x1 PUSH1 0x1 PUSH1 0xA0 SHL SUB NOT SWAP1 DUP2 AND PUSH20 0x5C69BEE701EF814A2B6A3EDD4B1652CB9CC5AA6F OR SWAP1 SWAP2 SSTORE PUSH1 0x19 DUP1 SLOAD DUP3 AND PUSH20 0x7A250D5630B4CF539739DF2C5DACB4C659F2488D OR SWAP1 SSTORE PUSH1 0x17 DUP1 SLOAD DUP3 AND PUSH20 0xDAC17F958D2EE523A2206206994597C13D831EC7 SWAP1 DUP2 OR SWAP1 SWAP2 SSTORE PUSH1 0x15 DUP1 SLOAD DUP4 AND PUSH20 0xC02AAA39B223FE8D0A0E5C4F27EAD9083C756CC2 OR SWAP1 SSTORE PUSH1 0x6 PUSH1 0x1B SSTORE PUSH1 0x14 DUP1 SLOAD DUP4 AND PUSH20 0xC77AAB3C6D7DAB46248F3CC3033C856171878BD5 OR SWAP1 SSTORE PUSH1 0x16 DUP1 SLOAD SWAP1 SWAP3 AND OR SWAP1 SSTORE PUSH3 0x53D JUMP JUMPDEST PUSH1 0x38 CHAINID EQ ISZERO PUSH3 0x3A2 JUMPI PUSH1 0x18 DUP1 SLOAD PUSH1 0x1 PUSH1 0x1 PUSH1 0xA0 SHL SUB NOT SWAP1 DUP2 AND PUSH20 0xCA143CE32FE78F1F7019D7D551A6402FC5350C73 OR SWAP1 SWAP2 SSTORE PUSH1 0x19 DUP1 SLOAD DUP3 AND PUSH20 0x10ED43C718714EB63D5AA57B78B54704E256024E OR SWAP1 SSTORE PUSH1 0x17 DUP1 SLOAD DUP3 AND PUSH20 0xE9E7CEA3DEDCA5984780BAFC599BD69ADD087D56 SWAP1 DUP2 OR SWAP1 SWAP2 SSTORE PUSH1 0x15 DUP1 SLOAD DUP4 AND PUSH20 0xBB4CDB9CBD36B01BD1CBAEBF2DE08D9173BC095C OR SWAP1 SSTORE PUSH1 0x12 PUSH1 0x1B SSTORE PUSH1 0x14 DUP1 SLOAD DUP4 AND PUSH20 0x7536592BB74B5D62EB82E8B93B17EED4EED9A85C OR SWAP1 SSTORE PUSH1 0x16 DUP1 SLOAD SWAP1 SWAP3 AND OR SWAP1 SSTORE PUSH3 0x53D JUMP JUMPDEST PUSH1 0x2A CHAINID EQ ISZERO PUSH3 0x47F JUMPI PUSH1 0x18 DUP1 SLOAD PUSH1 0x1 PUSH1 0x1 PUSH1 0xA0 SHL SUB NOT SWAP1 DUP2 AND PUSH20 0x5C69BEE701EF814A2B6A3EDD4B1652CB9CC5AA6F OR SWAP1 SWAP2 SSTORE PUSH1 0x19 DUP1 SLOAD DUP3 AND PUSH20 0x7A250D5630B4CF539739DF2C5DACB4C659F2488D OR SWAP1 SSTORE PUSH1 0x17 DUP1 SLOAD DUP3 AND PUSH20 0xEC362B0EFEC60388A12A9C26071E116BFA5E3587 OR SWAP1 SSTORE PUSH1 0x15 DUP1 SLOAD DUP3 AND PUSH20 0xD0A1E359811322D97991E03F863A0C30C2CF029C OR SWAP1 SSTORE PUSH1 0x6 PUSH1 0x1B SSTORE PUSH1 0x14 DUP1 SLOAD DUP3 AND SWAP1 SSTORE PUSH1 0x13 DUP1 SLOAD DUP3 AND PUSH20 0x5D7333F8B9B3075293F4FCF7C5EF9793D643DD8F OR SWAP1 SSTORE PUSH1 0x16 DUP1 SLOAD SWAP1 SWAP2 AND PUSH20 0x73CE46D328524FB3529A39D64B314AB1A594A57 OR SWAP1 SSTORE PUSH3 0x53D JUMP JUMPDEST PUSH1 0x3 CHAINID EQ ISZERO PUSH3 0x53D JUMPI PUSH1 0x18 DUP1 SLOAD PUSH1 0x1 PUSH1 0x1 PUSH1 0xA0 SHL SUB NOT SWAP1 DUP2 AND PUSH20 0x5C69BEE701EF814A2B6A3EDD4B1652CB9CC5AA6F OR SWAP1 SWAP2 SSTORE PUSH1 0x19 DUP1 SLOAD DUP3 AND PUSH20 0x7A250D5630B4CF539739DF2C5DACB4C659F2488D OR SWAP1 SSTORE PUSH1 0x17 DUP1 SLOAD DUP3 AND PUSH20 0x7865C6E87B9F70255377E024ACE6630C1EAA37F SWAP1 DUP2 OR SWAP1 SWAP2 SSTORE PUSH1 0x15 DUP1 SLOAD DUP4 AND PUSH20 0xC778417E063141139FCE010982780140AA0CD5AB OR SWAP1 SSTORE PUSH1 0x6 PUSH1 0x1B SSTORE PUSH1 0x14 DUP1 SLOAD DUP4 AND PUSH20 0x8733CAA60EDA1597336C0337EFDE27C1335F7530 OR SWAP1 SSTORE PUSH1 0x16 DUP1 SLOAD SWAP1 SWAP3 AND OR SWAP1 SSTORE JUMPDEST PUSH3 0x549 PUSH1 0x0 PUSH3 0x860 JUMP JUMPDEST PUSH3 0xB21 JUMP JUMPDEST PUSH3 0x566 DUP3 DUP3 PUSH3 0x8CF PUSH1 0x20 SHL PUSH3 0x403F OR PUSH1 0x20 SHR JUMP JUMPDEST PUSH1 0x0 DUP3 DUP2 MSTORE PUSH1 0x1 PUSH1 0x20 SWAP1 DUP2 MSTORE PUSH1 0x40 SWAP1 SWAP2 KECCAK256 PUSH3 0x58D SWAP2 DUP4 SWAP1 PUSH3 0x4049 PUSH3 0x8DF DUP3 SHL OR SWAP1 SHR JUMP JUMPDEST POP POP POP JUMP JUMPDEST PUSH1 0x1 PUSH1 0x1 PUSH1 0xA0 SHL SUB DUP6 AND PUSH1 0x0 SWAP1 DUP2 MSTORE PUSH1 0x9 PUSH1 0x20 MSTORE PUSH1 0x40 SWAP1 KECCAK256 SLOAD PUSH3 0x6B0 JUMPI PUSH1 0x40 DUP1 MLOAD PUSH1 0xA0 DUP2 ADD DUP3 MSTORE PUSH1 0x1 PUSH1 0x1 PUSH1 0xA0 SHL SUB DUP8 DUP2 AND DUP3 MSTORE PUSH1 0x20 DUP1 DUP4 ADD DUP9 DUP2 MSTORE SWAP4 DUP4 ADD DUP8 SWAP1 MSTORE PUSH1 0x60 DUP4 ADD DUP7 SWAP1 MSTORE PUSH1 0x80 DUP4 ADD DUP6 SWAP1 MSTORE PUSH1 0xA DUP1 SLOAD PUSH1 0x1 DUP2 ADD DUP3 SSTORE PUSH1 0x0 SWAP2 SWAP1 SWAP2 MSTORE DUP4 MLOAD PUSH32 0xC65A7BB8D6351C1CF70C95A316CC6A92839C986682D98BC35F958F4883F9D2A8 PUSH1 0x5 SWAP1 SWAP3 MUL SWAP2 DUP3 ADD DUP1 SLOAD PUSH1 0x1 PUSH1 0x1 PUSH1 0xA0 SHL SUB NOT AND SWAP2 SWAP1 SWAP5 AND OR DUP4 SSTORE SWAP4 MLOAD DUP1 MLOAD SWAP4 SWAP5 SWAP3 SWAP4 PUSH3 0x66C SWAP4 PUSH32 0xC65A7BB8D6351C1CF70C95A316CC6A92839C986682D98BC35F958F4883F9D2A9 ADD SWAP3 SWAP2 SWAP1 SWAP2 ADD SWAP1 PUSH3 0x9F1 JUMP JUMPDEST POP PUSH1 0x40 DUP3 DUP2 ADD MLOAD PUSH1 0x2 DUP4 ADD SSTORE PUSH1 0x60 DUP4 ADD MLOAD PUSH1 0x3 DUP4 ADD SSTORE PUSH1 0x80 SWAP1 SWAP3 ADD MLOAD PUSH1 0x4 SWAP1 SWAP2 ADD SSTORE PUSH1 0x8 SLOAD PUSH1 0x1 PUSH1 0x1 PUSH1 0xA0 SHL SUB DUP8 AND PUSH1 0x0 SWAP1 DUP2 MSTORE PUSH1 0x9 PUSH1 0x20 MSTORE SWAP2 SWAP1 SWAP2 KECCAK256 SSTORE PUSH3 0x859 JUMP JUMPDEST PUSH1 0x1 PUSH1 0x1 PUSH1 0xA0 SHL SUB DUP6 AND PUSH1 0x0 SWAP1 DUP2 MSTORE PUSH1 0x9 PUSH1 0x20 MSTORE PUSH1 0x40 SWAP1 KECCAK256 SLOAD DUP5 SWAP1 PUSH1 0xA SWAP1 PUSH3 0x6DC SWAP1 PUSH1 0x1 SWAP1 PUSH3 0xAC0 JUMP JUMPDEST DUP2 SLOAD DUP2 LT PUSH3 0x6FB JUMPI PUSH4 0x4E487B71 PUSH1 0xE0 SHL PUSH1 0x0 MSTORE PUSH1 0x32 PUSH1 0x4 MSTORE PUSH1 0x24 PUSH1 0x0 REVERT JUMPDEST SWAP1 PUSH1 0x0 MSTORE PUSH1 0x20 PUSH1 0x0 KECCAK256 SWAP1 PUSH1 0x5 MUL ADD PUSH1 0x1 ADD SWAP1 DUP1 MLOAD SWAP1 PUSH1 0x20 ADD SWAP1 PUSH3 0x721 SWAP3 SWAP2 SWAP1 PUSH3 0x9F1 JUMP JUMPDEST POP PUSH1 0x1 PUSH1 0x1 PUSH1 0xA0 SHL SUB DUP6 AND PUSH1 0x0 SWAP1 DUP2 MSTORE PUSH1 0x9 PUSH1 0x20 MSTORE PUSH1 0x40 SWAP1 KECCAK256 SLOAD DUP4 SWAP1 PUSH1 0xA SWAP1 PUSH3 0x74E SWAP1 PUSH1 0x1 SWAP1 PUSH3 0xAC0 JUMP JUMPDEST DUP2 SLOAD DUP2 LT PUSH3 0x76D JUMPI PUSH4 0x4E487B71 PUSH1 0xE0 SHL PUSH1 0x0 MSTORE PUSH1 0x32 PUSH1 0x4 MSTORE PUSH1 0x24 PUSH1 0x0 REVERT JUMPDEST SWAP1 PUSH1 0x0 MSTORE PUSH1 0x20 PUSH1 0x0 KECCAK256 SWAP1 PUSH1 0x5 MUL ADD PUSH1 0x2 ADD DUP2 SWAP1 SSTORE POP DUP2 PUSH1 0xA PUSH1 0x1 PUSH1 0x9 PUSH1 0x0 DUP10 PUSH1 0x1 PUSH1 0x1 PUSH1 0xA0 SHL SUB AND PUSH1 0x1 PUSH1 0x1 PUSH1 0xA0 SHL SUB AND DUP2 MSTORE PUSH1 0x20 ADD SWAP1 DUP2 MSTORE PUSH1 0x20 ADD PUSH1 0x0 KECCAK256 SLOAD PUSH3 0x7B9 SWAP2 SWAP1 PUSH3 0xAC0 JUMP JUMPDEST DUP2 SLOAD DUP2 LT PUSH3 0x7D8 JUMPI PUSH4 0x4E487B71 PUSH1 0xE0 SHL PUSH1 0x0 MSTORE PUSH1 0x32 PUSH1 0x4 MSTORE PUSH1 0x24 PUSH1 0x0 REVERT JUMPDEST SWAP1 PUSH1 0x0 MSTORE PUSH1 0x20 PUSH1 0x0 KECCAK256 SWAP1 PUSH1 0x5 MUL ADD PUSH1 0x3 ADD DUP2 SWAP1 SSTORE POP DUP1 PUSH1 0xA PUSH1 0x1 PUSH1 0x9 PUSH1 0x0 DUP10 PUSH1 0x1 PUSH1 0x1 PUSH1 0xA0 SHL SUB AND PUSH1 0x1 PUSH1 0x1 PUSH1 0xA0 SHL SUB AND DUP2 MSTORE PUSH1 0x20 ADD SWAP1 DUP2 MSTORE PUSH1 0x20 ADD PUSH1 0x0 KECCAK256 SLOAD PUSH3 0x824 SWAP2 SWAP1 PUSH3 0xAC0 JUMP JUMPDEST DUP2 SLOAD DUP2 LT PUSH3 0x843 JUMPI PUSH4 0x4E487B71 PUSH1 0xE0 SHL PUSH1 0x0 MSTORE PUSH1 0x32 PUSH1 0x4 MSTORE PUSH1 0x24 PUSH1 0x0 REVERT JUMPDEST SWAP1 PUSH1 0x0 MSTORE PUSH1 0x20 PUSH1 0x0 KECCAK256 SWAP1 PUSH1 0x5 MUL ADD PUSH1 0x4 ADD DUP2 SWAP1 SSTORE POP JUMPDEST POP POP POP POP POP JUMP JUMPDEST PUSH1 0x2 DUP1 SLOAD DUP3 SWAP2 SWAP1 PUSH1 0xFF NOT AND PUSH1 0x1 DUP4 PUSH1 0x7 DUP2 GT ISZERO PUSH3 0x88E JUMPI PUSH4 0x4E487B71 PUSH1 0xE0 SHL PUSH1 0x0 MSTORE PUSH1 0x21 PUSH1 0x4 MSTORE PUSH1 0x24 PUSH1 0x0 REVERT JUMPDEST MUL OR SWAP1 SSTORE POP PUSH32 0x551DC40198CC79684BB69E4931DBA4AC16E4598792EE1C0A5000AEEA366D7BB6 DUP2 PUSH1 0x40 MLOAD PUSH3 0x8C4 SWAP2 SWAP1 PUSH3 0xA97 JUMP JUMPDEST PUSH1 0x40 MLOAD DUP1 SWAP2 SUB SWAP1 LOG1 POP JUMP JUMPDEST PUSH3 0x8DB DUP3 DUP3 PUSH3 0x8FF JUMP JUMPDEST POP POP JUMP JUMPDEST PUSH1 0x0 PUSH3 0x8F6 DUP4 PUSH1 0x1 PUSH1 0x1 PUSH1 0xA0 SHL SUB DUP5 AND PUSH3 0x99F JUMP JUMPDEST SWAP1 POP JUMPDEST SWAP3 SWAP2 POP POP JUMP JUMPDEST PUSH1 0x0 DUP3 DUP2 MSTORE PUSH1 0x20 DUP2 DUP2 MSTORE PUSH1 0x40 DUP1 DUP4 KECCAK256 PUSH1 0x1 PUSH1 0x1 PUSH1 0xA0 SHL SUB DUP6 AND DUP5 MSTORE SWAP1 SWAP2 MSTORE SWAP1 KECCAK256 SLOAD PUSH1 0xFF AND PUSH3 0x8DB JUMPI PUSH1 0x0 DUP3 DUP2 MSTORE PUSH1 0x20 DUP2 DUP2 MSTORE PUSH1 0x40 DUP1 DUP4 KECCAK256 PUSH1 0x1 PUSH1 0x1 PUSH1 0xA0 SHL SUB DUP6 AND DUP5 MSTORE SWAP1 SWAP2 MSTORE SWAP1 KECCAK256 DUP1 SLOAD PUSH1 0xFF NOT AND PUSH1 0x1 OR SWAP1 SSTORE PUSH3 0x95B CALLER SWAP1 JUMP JUMPDEST PUSH1 0x1 PUSH1 0x1 PUSH1 0xA0 SHL SUB AND DUP2 PUSH1 0x1 PUSH1 0x1 PUSH1 0xA0 SHL SUB AND DUP4 PUSH32 0x2F8788117E7EFF1D82E926EC794901D17C78024A50270940304540A733656F0D PUSH1 0x40 MLOAD PUSH1 0x40 MLOAD DUP1 SWAP2 SUB SWAP1 LOG4 POP POP JUMP JUMPDEST PUSH1 0x0 DUP2 DUP2 MSTORE PUSH1 0x1 DUP4 ADD PUSH1 0x20 MSTORE PUSH1 0x40 DUP2 KECCAK256 SLOAD PUSH3 0x9E8 JUMPI POP DUP2 SLOAD PUSH1 0x1 DUP2 DUP2 ADD DUP5 SSTORE PUSH1 0x0 DUP5 DUP2 MSTORE PUSH1 0x20 DUP1 DUP3 KECCAK256 SWAP1 SWAP4 ADD DUP5 SWAP1 SSTORE DUP5 SLOAD DUP5 DUP3 MSTORE DUP3 DUP7 ADD SWAP1 SWAP4 MSTORE PUSH1 0x40 SWAP1 KECCAK256 SWAP2 SWAP1 SWAP2 SSTORE PUSH3 0x8F9 JUMP JUMPDEST POP PUSH1 0x0 PUSH3 0x8F9 JUMP JUMPDEST DUP3 DUP1 SLOAD PUSH3 0x9FF SWAP1 PUSH3 0xAE4 JUMP JUMPDEST SWAP1 PUSH1 0x0 MSTORE PUSH1 0x20 PUSH1 0x0 KECCAK256 SWAP1 PUSH1 0x1F ADD PUSH1 0x20 SWAP1 DIV DUP2 ADD SWAP3 DUP3 PUSH3 0xA23 JUMPI PUSH1 0x0 DUP6 SSTORE PUSH3 0xA6E JUMP JUMPDEST DUP3 PUSH1 0x1F LT PUSH3 0xA3E JUMPI DUP1 MLOAD PUSH1 0xFF NOT AND DUP4 DUP1 ADD OR DUP6 SSTORE PUSH3 0xA6E JUMP JUMPDEST DUP3 DUP1 ADD PUSH1 0x1 ADD DUP6 SSTORE DUP3 ISZERO PUSH3 0xA6E JUMPI SWAP2 DUP3 ADD JUMPDEST DUP3 DUP2 GT ISZERO PUSH3 0xA6E JUMPI DUP3 MLOAD DUP3 SSTORE SWAP2 PUSH1 0x20 ADD SWAP2 SWAP1 PUSH1 0x1 ADD SWAP1 PUSH3 0xA51 JUMP JUMPDEST POP PUSH3 0xA7C SWAP3 SWAP2 POP PUSH3 0xA80 JUMP JUMPDEST POP SWAP1 JUMP JUMPDEST JUMPDEST DUP1 DUP3 GT ISZERO PUSH3 0xA7C JUMPI PUSH1 0x0 DUP2 SSTORE PUSH1 0x1 ADD PUSH3 0xA81 JUMP JUMPDEST PUSH1 0x20 DUP2 ADD PUSH1 0x8 DUP4 LT PUSH3 0xABA JUMPI PUSH4 0x4E487B71 PUSH1 0xE0 SHL PUSH1 0x0 MSTORE PUSH1 0x21 PUSH1 0x4 MSTORE PUSH1 0x24 PUSH1 0x0 REVERT JUMPDEST SWAP2 SWAP1 MSTORE SWAP1 JUMP JUMPDEST PUSH1 0x0 DUP3 DUP3 LT ISZERO PUSH3 0xADF JUMPI PUSH4 0x4E487B71 PUSH1 0xE0 SHL DUP2 MSTORE PUSH1 0x11 PUSH1 0x4 MSTORE PUSH1 0x24 DUP2 REVERT JUMPDEST POP SUB SWAP1 JUMP JUMPDEST PUSH1 0x1 DUP2 DUP2 SHR SWAP1 DUP3 AND DUP1 PUSH3 0xAF9 JUMPI PUSH1 0x7F DUP3 AND SWAP2 POP JUMPDEST PUSH1 0x20 DUP3 LT DUP2 EQ ISZERO PUSH3 0xB1B JUMPI PUSH4 0x4E487B71 PUSH1 0xE0 SHL PUSH1 0x0 MSTORE PUSH1 0x22 PUSH1 0x4 MSTORE PUSH1 0x24 PUSH1 0x0 REVERT JUMPDEST POP SWAP2 SWAP1 POP JUMP JUMPDEST PUSH2 0x52AF DUP1 PUSH3 0xB31 PUSH1 0x0 CODECOPY PUSH1 0x0 RETURN INVALID PUSH1 0x80 PUSH1 0x40 MSTORE PUSH1 0x4 CALLDATASIZE LT PUSH2 0x469 JUMPI PUSH1 0x0 CALLDATALOAD PUSH1 0xE0 SHR DUP1 PUSH4 0x80B7C92B GT PUSH2 0x243 JUMPI DUP1 PUSH4 0xC88188A3 GT PUSH2 0x143 JUMPI DUP1 PUSH4 0xE70D8FDC GT PUSH2 0xBB JUMPI DUP1 PUSH4 0xEDC7FF2A GT PUSH2 0x8A JUMPI DUP1 PUSH4 0xF9C75699 GT PUSH2 0x6F JUMPI DUP1 PUSH4 0xF9C75699 EQ PUSH2 0xD68 JUMPI DUP1 PUSH4 0xFCCC2813 EQ PUSH2 0xD88 JUMPI DUP1 PUSH4 0xFEDDA89C EQ PUSH2 0xD9D JUMPI PUSH1 0x0 DUP1 REVERT JUMPDEST DUP1 PUSH4 0xEDC7FF2A EQ PUSH2 0xD19 JUMPI DUP1 PUSH4 0xEE2923D9 EQ PUSH2 0xD46 JUMPI PUSH1 0x0 DUP1 REVERT JUMPDEST DUP1 PUSH4 0xE70D8FDC EQ PUSH2 0xCA1 JUMPI DUP1 PUSH4 0xE72A443B EQ PUSH2 0xCCE JUMPI DUP1 PUSH4 0xEBAC6505 EQ PUSH2 0xCE4 JUMPI DUP1 PUSH4 0xED21187A EQ PUSH2 0xD04 JUMPI PUSH1 0x0 DUP1 REVERT JUMPDEST DUP1 PUSH4 0xD391014B GT PUSH2 0x112 JUMPI DUP1 PUSH4 0xDBCAC674 GT PUSH2 0xF7 JUMPI DUP1 PUSH4 0xDBCAC674 EQ PUSH2 0xC4E JUMPI DUP1 PUSH4 0xDD74075C EQ PUSH2 0xC76 JUMPI DUP1 PUSH4 0xE650E512 EQ PUSH2 0xC8C JUMPI PUSH1 0x0 DUP1 REVERT JUMPDEST DUP1 PUSH4 0xD391014B EQ PUSH2 0xC19 JUMPI DUP1 PUSH4 0xD547741F EQ PUSH2 0xC2E JUMPI PUSH1 0x0 DUP1 REVERT JUMPDEST DUP1 PUSH4 0xC88188A3 EQ PUSH2 0xBA1 JUMPI DUP1 PUSH4 0xCA15C873 EQ PUSH2 0xBB6 JUMPI DUP1 PUSH4 0xCC138C8E EQ PUSH2 0xBD6 JUMPI DUP1 PUSH4 0xCD496B4B EQ PUSH2 0xC03 JUMPI PUSH1 0x0 DUP1 REVERT JUMPDEST DUP1 PUSH4 0x99F96C51 GT PUSH2 0x1D6 JUMPI DUP1 PUSH4 0xA2846323 GT PUSH2 0x1A5 JUMPI DUP1 PUSH4 0xBEB0A416 GT PUSH2 0x18A JUMPI DUP1 PUSH4 0xBEB0A416 EQ PUSH2 0xB4F JUMPI DUP1 PUSH4 0xC19D93FB EQ PUSH2 0xB64 JUMPI DUP1 PUSH4 0xC6C2AFC3 EQ PUSH2 0xB8B JUMPI PUSH1 0x0 DUP1 REVERT JUMPDEST DUP1 PUSH4 0xA2846323 EQ PUSH2 0xB0F JUMPI DUP1 PUSH4 0xB2C1E72A EQ PUSH2 0xB2F JUMPI PUSH1 0x0 DUP1 REVERT JUMPDEST DUP1 PUSH4 0x99F96C51 EQ PUSH2 0xAA5 JUMPI DUP1 PUSH4 0x9B214950 EQ PUSH2 0xAC5 JUMPI DUP1 PUSH4 0x9D76EA58 EQ PUSH2 0xADA JUMPI DUP1 PUSH4 0x9E57003C EQ PUSH2 0xAFA JUMPI PUSH1 0x0 DUP1 REVERT JUMPDEST DUP1 PUSH4 0x9010D07C GT PUSH2 0x212 JUMPI DUP1 PUSH4 0x9010D07C EQ PUSH2 0xA0C JUMPI DUP1 PUSH4 0x91D14854 EQ PUSH2 0xA2C JUMPI DUP1 PUSH4 0x9248B04A EQ PUSH2 0xA70 JUMPI DUP1 PUSH4 0x989CED26 EQ PUSH2 0xA85 JUMPI PUSH1 0x0 DUP1 REVERT JUMPDEST DUP1 PUSH4 0x80B7C92B EQ PUSH2 0x96A JUMPI DUP1 PUSH4 0x818A36A1 EQ PUSH2 0x9A9 JUMPI DUP1 PUSH4 0x884EC7A9 EQ PUSH2 0x9D6 JUMPI DUP1 PUSH4 0x8E505F09 EQ PUSH2 0x9F6 JUMPI PUSH1 0x0 DUP1 REVERT JUMPDEST DUP1 PUSH4 0x2FFAC82C GT PUSH2 0x369 JUMPI DUP1 PUSH4 0x4F6F7811 GT PUSH2 0x2E1 JUMPI DUP1 PUSH4 0x5F6577A8 GT PUSH2 0x2B0 JUMPI DUP1 PUSH4 0x6D8CA924 GT PUSH2 0x295 JUMPI DUP1 PUSH4 0x6D8CA924 EQ PUSH2 0x912 JUMPI DUP1 PUSH4 0x70F1B331 EQ PUSH2 0x928 JUMPI DUP1 PUSH4 0x7E4C7EB2 EQ PUSH2 0x93D JUMPI PUSH1 0x0 DUP1 REVERT JUMPDEST DUP1 PUSH4 0x5F6577A8 EQ PUSH2 0x8DD JUMPI DUP1 PUSH4 0x65069863 EQ PUSH2 0x8F2 JUMPI PUSH1 0x0 DUP1 REVERT JUMPDEST DUP1 PUSH4 0x4F6F7811 EQ PUSH2 0x85A JUMPI DUP1 PUSH4 0x573620A7 EQ PUSH2 0x87A JUMPI DUP1 PUSH4 0x579A7E1A EQ PUSH2 0x8A7 JUMPI DUP1 PUSH4 0x59D5335B EQ PUSH2 0x8C7 JUMPI PUSH1 0x0 DUP1 REVERT JUMPDEST DUP1 PUSH4 0x4175266F GT PUSH2 0x338 JUMPI DUP1 PUSH4 0x443926DB GT PUSH2 0x31D JUMPI DUP1 PUSH4 0x443926DB EQ PUSH2 0x803 JUMPI DUP1 PUSH4 0x47ECB665 EQ PUSH2 0x818 JUMPI DUP1 PUSH4 0x4D286A3D EQ PUSH2 0x83A JUMPI PUSH1 0x0 DUP1 REVERT JUMPDEST DUP1 PUSH4 0x4175266F EQ PUSH2 0x7D8 JUMPI DUP1 PUSH4 0x42F60CB5 EQ PUSH2 0x7EE JUMPI PUSH1 0x0 DUP1 REVERT JUMPDEST DUP1 PUSH4 0x2FFAC82C EQ PUSH2 0x700 JUMPI DUP1 PUSH4 0x36568ABE EQ PUSH2 0x752 JUMPI DUP1 PUSH4 0x39FC1128 EQ PUSH2 0x772 JUMPI DUP1 PUSH4 0x3FEB5F2B EQ PUSH2 0x792 JUMPI PUSH1 0x0 DUP1 REVERT JUMPDEST DUP1 PUSH4 0x91F90C2 GT PUSH2 0x3FC JUMPI DUP1 PUSH4 0x248A9CA3 GT PUSH2 0x3CB JUMPI DUP1 PUSH4 0x279BB95E GT PUSH2 0x3B0 JUMPI DUP1 PUSH4 0x279BB95E EQ PUSH2 0x693 JUMPI DUP1 PUSH4 0x286777D0 EQ PUSH2 0x6B3 JUMPI DUP1 PUSH4 0x2F2FF15D EQ PUSH2 0x6E0 JUMPI PUSH1 0x0 DUP1 REVERT JUMPDEST DUP1 PUSH4 0x248A9CA3 EQ PUSH2 0x643 JUMPI DUP1 PUSH4 0x25382EC8 EQ PUSH2 0x673 JUMPI PUSH1 0x0 DUP1 REVERT JUMPDEST DUP1 PUSH4 0x91F90C2 EQ PUSH2 0x5C0 JUMPI DUP1 PUSH4 0xB293A31 EQ PUSH2 0x5F8 JUMPI DUP1 PUSH4 0x1CA8B6CB EQ PUSH2 0x60D JUMPI DUP1 PUSH4 0x1F96B8AB EQ PUSH2 0x623 JUMPI PUSH1 0x0 DUP1 REVERT JUMPDEST DUP1 PUSH4 0x3ED957F GT PUSH2 0x438 JUMPI DUP1 PUSH4 0x3ED957F EQ PUSH2 0x51C JUMPI DUP1 PUSH4 0x3F9C793 EQ PUSH2 0x53C JUMPI DUP1 PUSH4 0x4215D5A EQ PUSH2 0x54F JUMPI DUP1 PUSH4 0x87A2DAF EQ PUSH2 0x58F JUMPI PUSH1 0x0 DUP1 REVERT JUMPDEST DUP1 PUSH4 0x10BD419 EQ PUSH2 0x475 JUMPI DUP1 PUSH4 0x155ECAF EQ PUSH2 0x497 JUMPI DUP1 PUSH4 0x1CB5DFD EQ PUSH2 0x4AC JUMPI DUP1 PUSH4 0x1FFC9A7 EQ PUSH2 0x4EC JUMPI PUSH1 0x0 DUP1 REVERT JUMPDEST CALLDATASIZE PUSH2 0x470 JUMPI STOP JUMPDEST PUSH1 0x0 DUP1 REVERT JUMPDEST CALLVALUE DUP1 ISZERO PUSH2 0x481 JUMPI PUSH1 0x0 DUP1 REVERT JUMPDEST POP PUSH2 0x495 PUSH2 0x490 CALLDATASIZE PUSH1 0x4 PUSH2 0x4D5E JUMP JUMPDEST PUSH2 0xDB2 JUMP JUMPDEST STOP JUMPDEST CALLVALUE DUP1 ISZERO PUSH2 0x4A3 JUMPI PUSH1 0x0 DUP1 REVERT JUMPDEST POP PUSH2 0x495 PUSH2 0x10C6 JUMP JUMPDEST CALLVALUE DUP1 ISZERO PUSH2 0x4B8 JUMPI PUSH1 0x0 DUP1 REVERT JUMPDEST POP PUSH2 0x4D9 PUSH2 0x4C7 CALLDATASIZE PUSH1 0x4 PUSH2 0x4C4F JUMP JUMPDEST PUSH1 0x9 PUSH1 0x20 MSTORE PUSH1 0x0 SWAP1 DUP2 MSTORE PUSH1 0x40 SWAP1 KECCAK256 SLOAD DUP2 JUMP JUMPDEST PUSH1 0x40 MLOAD SWAP1 DUP2 MSTORE PUSH1 0x20 ADD JUMPDEST PUSH1 0x40 MLOAD DUP1 SWAP2 SUB SWAP1 RETURN JUMPDEST CALLVALUE DUP1 ISZERO PUSH2 0x4F8 JUMPI PUSH1 0x0 DUP1 REVERT JUMPDEST POP PUSH2 0x50C PUSH2 0x507 CALLDATASIZE PUSH1 0x4 PUSH2 0x4D7F JUMP JUMPDEST PUSH2 0x1344 JUMP JUMPDEST PUSH1 0x40 MLOAD SWAP1 ISZERO ISZERO DUP2 MSTORE PUSH1 0x20 ADD PUSH2 0x4E3 JUMP JUMPDEST CALLVALUE DUP1 ISZERO PUSH2 0x528 JUMPI PUSH1 0x0 DUP1 REVERT JUMPDEST POP PUSH2 0x495 PUSH2 0x537 CALLDATASIZE PUSH1 0x4 PUSH2 0x4C87 JUMP JUMPDEST PUSH2 0x1388 JUMP JUMPDEST PUSH2 0x495 PUSH2 0x54A CALLDATASIZE PUSH1 0x4 PUSH2 0x4C4F JUMP JUMPDEST PUSH2 0x1421 JUMP JUMPDEST CALLVALUE DUP1 ISZERO PUSH2 0x55B JUMPI PUSH1 0x0 DUP1 REVERT JUMPDEST POP PUSH2 0x56F PUSH2 0x56A CALLDATASIZE PUSH1 0x4 PUSH2 0x4C4F JUMP JUMPDEST PUSH2 0x1796 JUMP JUMPDEST PUSH1 0x40 DUP1 MLOAD SWAP5 DUP6 MSTORE PUSH1 0x20 DUP6 ADD SWAP4 SWAP1 SWAP4 MSTORE SWAP2 DUP4 ADD MSTORE PUSH1 0x60 DUP3 ADD MSTORE PUSH1 0x80 ADD PUSH2 0x4E3 JUMP JUMPDEST CALLVALUE DUP1 ISZERO PUSH2 0x59B JUMPI PUSH1 0x0 DUP1 REVERT JUMPDEST POP PUSH2 0x5AF PUSH2 0x5AA CALLDATASIZE PUSH1 0x4 PUSH2 0x4D17 JUMP JUMPDEST PUSH2 0x186D JUMP JUMPDEST PUSH1 0x40 MLOAD PUSH2 0x4E3 SWAP6 SWAP5 SWAP4 SWAP3 SWAP2 SWAP1 PUSH2 0x4ED7 JUMP JUMPDEST CALLVALUE DUP1 ISZERO PUSH2 0x5CC JUMPI PUSH1 0x0 DUP1 REVERT JUMPDEST POP PUSH1 0x14 SLOAD PUSH2 0x5E0 SWAP1 PUSH1 0x1 PUSH1 0x1 PUSH1 0xA0 SHL SUB AND DUP2 JUMP JUMPDEST PUSH1 0x40 MLOAD PUSH1 0x1 PUSH1 0x1 PUSH1 0xA0 SHL SUB SWAP1 SWAP2 AND DUP2 MSTORE PUSH1 0x20 ADD PUSH2 0x4E3 JUMP JUMPDEST CALLVALUE DUP1 ISZERO PUSH2 0x604 JUMPI PUSH1 0x0 DUP1 REVERT JUMPDEST POP PUSH2 0x495 PUSH2 0x1941 JUMP JUMPDEST CALLVALUE DUP1 ISZERO PUSH2 0x619 JUMPI PUSH1 0x0 DUP1 REVERT JUMPDEST POP PUSH2 0x4D9 PUSH1 0x11 SLOAD DUP2 JUMP JUMPDEST CALLVALUE DUP1 ISZERO PUSH2 0x62F JUMPI PUSH1 0x0 DUP1 REVERT JUMPDEST POP PUSH2 0x495 PUSH2 0x63E CALLDATASIZE PUSH1 0x4 PUSH2 0x4D5E JUMP JUMPDEST PUSH2 0x195B JUMP JUMPDEST CALLVALUE DUP1 ISZERO PUSH2 0x64F JUMPI PUSH1 0x0 DUP1 REVERT JUMPDEST POP PUSH2 0x4D9 PUSH2 0x65E CALLDATASIZE PUSH1 0x4 PUSH2 0x4D17 JUMP JUMPDEST PUSH1 0x0 SWAP1 DUP2 MSTORE PUSH1 0x20 DUP2 SWAP1 MSTORE PUSH1 0x40 SWAP1 KECCAK256 PUSH1 0x1 ADD SLOAD SWAP1 JUMP JUMPDEST CALLVALUE DUP1 ISZERO PUSH2 0x67F JUMPI PUSH1 0x0 DUP1 REVERT JUMPDEST POP PUSH1 0x16 SLOAD PUSH2 0x5E0 SWAP1 PUSH1 0x1 PUSH1 0x1 PUSH1 0xA0 SHL SUB AND DUP2 JUMP JUMPDEST CALLVALUE DUP1 ISZERO PUSH2 0x69F JUMPI PUSH1 0x0 DUP1 REVERT JUMPDEST POP PUSH1 0x1A SLOAD PUSH2 0x5E0 SWAP1 PUSH1 0x1 PUSH1 0x1 PUSH1 0xA0 SHL SUB AND DUP2 JUMP JUMPDEST CALLVALUE DUP1 ISZERO PUSH2 0x6BF JUMPI PUSH1 0x0 DUP1 REVERT JUMPDEST POP PUSH2 0x6D3 PUSH2 0x6CE CALLDATASIZE PUSH1 0x4 PUSH2 0x4D17 JUMP JUMPDEST PUSH2 0x1B63 JUMP JUMPDEST PUSH1 0x40 MLOAD PUSH2 0x4E3 SWAP2 SWAP1 PUSH2 0x50C0 JUMP JUMPDEST CALLVALUE DUP1 ISZERO PUSH2 0x6EC JUMPI PUSH1 0x0 DUP1 REVERT JUMPDEST POP PUSH2 0x495 PUSH2 0x6FB CALLDATASIZE PUSH1 0x4 PUSH2 0x4D2F JUMP JUMPDEST PUSH2 0x1BED JUMP JUMPDEST CALLVALUE DUP1 ISZERO PUSH2 0x70C JUMPI PUSH1 0x0 DUP1 REVERT JUMPDEST POP PUSH2 0x720 PUSH2 0x71B CALLDATASIZE PUSH1 0x4 PUSH2 0x4D17 JUMP JUMPDEST PUSH2 0x1C14 JUMP JUMPDEST PUSH1 0x40 DUP1 MLOAD PUSH1 0x1 PUSH1 0x1 PUSH1 0xA0 SHL SUB SWAP1 SWAP7 AND DUP7 MSTORE PUSH1 0x20 DUP7 ADD SWAP5 SWAP1 SWAP5 MSTORE SWAP3 DUP5 ADD SWAP2 SWAP1 SWAP2 MSTORE PUSH1 0x60 DUP4 ADD MSTORE PUSH1 0x80 DUP3 ADD MSTORE PUSH1 0xA0 ADD PUSH2 0x4E3 JUMP JUMPDEST CALLVALUE DUP1 ISZERO PUSH2 0x75E JUMPI PUSH1 0x0 DUP1 REVERT JUMPDEST POP PUSH2 0x495 PUSH2 0x76D CALLDATASIZE PUSH1 0x4 PUSH2 0x4D2F JUMP JUMPDEST PUSH2 0x1C5F JUMP JUMPDEST CALLVALUE DUP1 ISZERO PUSH2 0x77E JUMPI PUSH1 0x0 DUP1 REVERT JUMPDEST POP PUSH2 0x495 PUSH2 0x78D CALLDATASIZE PUSH1 0x4 PUSH2 0x4D17 JUMP JUMPDEST PUSH2 0x1C81 JUMP JUMPDEST CALLVALUE DUP1 ISZERO PUSH2 0x79E JUMPI PUSH1 0x0 DUP1 REVERT JUMPDEST POP PUSH2 0x7B2 PUSH2 0x7AD CALLDATASIZE PUSH1 0x4 PUSH2 0x4D17 JUMP JUMPDEST PUSH2 0x1CCB JUMP JUMPDEST PUSH1 0x40 DUP1 MLOAD PUSH1 0x1 PUSH1 0x1 PUSH1 0xA0 SHL SUB SWAP5 DUP6 AND DUP2 MSTORE SWAP4 SWAP1 SWAP3 AND PUSH1 0x20 DUP5 ADD MSTORE SWAP1 DUP3 ADD MSTORE PUSH1 0x60 ADD PUSH2 0x4E3 JUMP JUMPDEST CALLVALUE DUP1 ISZERO PUSH2 0x7E4 JUMPI PUSH1 0x0 DUP1 REVERT JUMPDEST POP PUSH2 0x4D9 PUSH1 0x21 SLOAD DUP2 JUMP JUMPDEST CALLVALUE DUP1 ISZERO PUSH2 0x7FA JUMPI PUSH1 0x0 DUP1 REVERT JUMPDEST POP PUSH2 0x495 PUSH2 0x1D0B JUMP JUMPDEST CALLVALUE DUP1 ISZERO PUSH2 0x80F JUMPI PUSH1 0x0 DUP1 REVERT JUMPDEST POP PUSH1 0x8 SLOAD PUSH2 0x4D9 JUMP JUMPDEST CALLVALUE DUP1 ISZERO PUSH2 0x824 JUMPI PUSH1 0x0 DUP1 REVERT JUMPDEST POP PUSH2 0x82D PUSH2 0x1D95 JUMP JUMPDEST PUSH1 0x40 MLOAD PUSH2 0x4E3 SWAP2 SWAP1 PUSH2 0x50AD JUMP JUMPDEST CALLVALUE DUP1 ISZERO PUSH2 0x846 JUMPI PUSH1 0x0 DUP1 REVERT JUMPDEST POP PUSH1 0x17 SLOAD PUSH2 0x5E0 SWAP1 PUSH1 0x1 PUSH1 0x1 PUSH1 0xA0 SHL SUB AND DUP2 JUMP JUMPDEST CALLVALUE DUP1 ISZERO PUSH2 0x866 JUMPI PUSH1 0x0 DUP1 REVERT JUMPDEST POP PUSH2 0x495 PUSH2 0x875 CALLDATASIZE PUSH1 0x4 PUSH2 0x4D17 JUMP JUMPDEST PUSH2 0x1E23 JUMP JUMPDEST CALLVALUE DUP1 ISZERO PUSH2 0x886 JUMPI PUSH1 0x0 DUP1 REVERT JUMPDEST POP PUSH2 0x89A PUSH2 0x895 CALLDATASIZE PUSH1 0x4 PUSH2 0x4D17 JUMP JUMPDEST PUSH2 0x1E35 JUMP JUMPDEST PUSH1 0x40 MLOAD PUSH2 0x4E3 SWAP2 SWAP1 PUSH2 0x50EF JUMP JUMPDEST CALLVALUE DUP1 ISZERO PUSH2 0x8B3 JUMPI PUSH1 0x0 DUP1 REVERT JUMPDEST POP PUSH1 0x15 SLOAD PUSH2 0x5E0 SWAP1 PUSH1 0x1 PUSH1 0x1 PUSH1 0xA0 SHL SUB AND DUP2 JUMP JUMPDEST CALLVALUE DUP1 ISZERO PUSH2 0x8D3 JUMPI PUSH1 0x0 DUP1 REVERT JUMPDEST POP PUSH2 0x4D9 PUSH1 0xB SLOAD DUP2 JUMP JUMPDEST CALLVALUE DUP1 ISZERO PUSH2 0x8E9 JUMPI PUSH1 0x0 DUP1 REVERT JUMPDEST POP PUSH2 0x495 PUSH2 0x1EA3 JUMP JUMPDEST CALLVALUE DUP1 ISZERO PUSH2 0x8FE JUMPI PUSH1 0x0 DUP1 REVERT JUMPDEST POP PUSH2 0x6D3 PUSH2 0x90D CALLDATASIZE PUSH1 0x4 PUSH2 0x4C4F JUMP JUMPDEST PUSH2 0x2376 JUMP JUMPDEST CALLVALUE DUP1 ISZERO PUSH2 0x91E JUMPI PUSH1 0x0 DUP1 REVERT JUMPDEST POP PUSH2 0x4D9 PUSH1 0x20 SLOAD DUP2 JUMP JUMPDEST CALLVALUE DUP1 ISZERO PUSH2 0x934 JUMPI PUSH1 0x0 DUP1 REVERT JUMPDEST POP PUSH2 0x50C PUSH2 0x23D5 JUMP JUMPDEST CALLVALUE DUP1 ISZERO PUSH2 0x949 JUMPI PUSH1 0x0 DUP1 REVERT JUMPDEST POP PUSH2 0x4D9 PUSH2 0x958 CALLDATASIZE PUSH1 0x4 PUSH2 0x4C4F JUMP JUMPDEST PUSH1 0x3 PUSH1 0x20 MSTORE PUSH1 0x0 SWAP1 DUP2 MSTORE PUSH1 0x40 SWAP1 KECCAK256 SLOAD DUP2 JUMP JUMPDEST CALLVALUE DUP1 ISZERO PUSH2 0x976 JUMPI PUSH1 0x0 DUP1 REVERT JUMPDEST POP PUSH2 0x98A PUSH2 0x985 CALLDATASIZE PUSH1 0x4 PUSH2 0x4D17 JUMP JUMPDEST PUSH2 0x2555 JUMP JUMPDEST PUSH1 0x40 DUP1 MLOAD PUSH1 0x1 PUSH1 0x1 PUSH1 0xA0 SHL SUB SWAP1 SWAP4 AND DUP4 MSTORE PUSH1 0x20 DUP4 ADD SWAP2 SWAP1 SWAP2 MSTORE ADD PUSH2 0x4E3 JUMP JUMPDEST CALLVALUE DUP1 ISZERO PUSH2 0x9B5 JUMPI PUSH1 0x0 DUP1 REVERT JUMPDEST POP PUSH2 0x9C9 PUSH2 0x9C4 CALLDATASIZE PUSH1 0x4 PUSH2 0x4D5E JUMP JUMPDEST PUSH2 0x258D JUMP JUMPDEST PUSH1 0x40 MLOAD PUSH2 0x4E3 SWAP2 SWAP1 PUSH2 0x4F16 JUMP JUMPDEST CALLVALUE DUP1 ISZERO PUSH2 0x9E2 JUMPI PUSH1 0x0 DUP1 REVERT JUMPDEST POP PUSH1 0x18 SLOAD PUSH2 0x5E0 SWAP1 PUSH1 0x1 PUSH1 0x1 PUSH1 0xA0 SHL SUB AND DUP2 JUMP JUMPDEST CALLVALUE DUP1 ISZERO PUSH2 0xA02 JUMPI PUSH1 0x0 DUP1 REVERT JUMPDEST POP PUSH2 0x4D9 PUSH1 0x23 SLOAD DUP2 JUMP JUMPDEST CALLVALUE DUP1 ISZERO PUSH2 0xA18 JUMPI PUSH1 0x0 DUP1 REVERT JUMPDEST POP PUSH2 0x5E0 PUSH2 0xA27 CALLDATASIZE PUSH1 0x4 PUSH2 0x4D5E JUMP JUMPDEST PUSH2 0x270A JUMP JUMPDEST CALLVALUE DUP1 ISZERO PUSH2 0xA38 JUMPI PUSH1 0x0 DUP1 REVERT JUMPDEST POP PUSH2 0x50C PUSH2 0xA47 CALLDATASIZE PUSH1 0x4 PUSH2 0x4D2F JUMP JUMPDEST PUSH1 0x0 SWAP2 DUP3 MSTORE PUSH1 0x20 DUP3 DUP2 MSTORE PUSH1 0x40 DUP1 DUP5 KECCAK256 PUSH1 0x1 PUSH1 0x1 PUSH1 0xA0 SHL SUB SWAP4 SWAP1 SWAP4 AND DUP5 MSTORE SWAP2 SWAP1 MSTORE SWAP1 KECCAK256 SLOAD PUSH1 0xFF AND SWAP1 JUMP JUMPDEST CALLVALUE DUP1 ISZERO PUSH2 0xA7C JUMPI PUSH1 0x0 DUP1 REVERT JUMPDEST POP PUSH2 0x495 PUSH2 0x2729 JUMP JUMPDEST CALLVALUE DUP1 ISZERO PUSH2 0xA91 JUMPI PUSH1 0x0 DUP1 REVERT JUMPDEST POP PUSH2 0x495 PUSH2 0xAA0 CALLDATASIZE PUSH1 0x4 PUSH2 0x4C4F JUMP JUMPDEST PUSH2 0x29C1 JUMP JUMPDEST CALLVALUE DUP1 ISZERO PUSH2 0xAB1 JUMPI PUSH1 0x0 DUP1 REVERT JUMPDEST POP PUSH2 0x495 PUSH2 0xAC0 CALLDATASIZE PUSH1 0x4 PUSH2 0x4D5E JUMP JUMPDEST PUSH2 0x29F0 JUMP JUMPDEST CALLVALUE DUP1 ISZERO PUSH2 0xAD1 JUMPI PUSH1 0x0 DUP1 REVERT JUMPDEST POP PUSH2 0x495 PUSH2 0x2CF8 JUMP JUMPDEST CALLVALUE DUP1 ISZERO PUSH2 0xAE6 JUMPI PUSH1 0x0 DUP1 REVERT JUMPDEST POP PUSH1 0x13 SLOAD PUSH2 0x5E0 SWAP1 PUSH1 0x1 PUSH1 0x1 PUSH1 0xA0 SHL SUB AND DUP2 JUMP JUMPDEST CALLVALUE DUP1 ISZERO PUSH2 0xB06 JUMPI PUSH1 0x0 DUP1 REVERT JUMPDEST POP PUSH2 0x4D9 PUSH2 0x3249 JUMP JUMPDEST CALLVALUE DUP1 ISZERO PUSH2 0xB1B JUMPI PUSH1 0x0 DUP1 REVERT JUMPDEST POP PUSH1 0x19 SLOAD PUSH2 0x5E0 SWAP1 PUSH1 0x1 PUSH1 0x1 PUSH1 0xA0 SHL SUB AND DUP2 JUMP JUMPDEST CALLVALUE DUP1 ISZERO PUSH2 0xB3B JUMPI PUSH1 0x0 DUP1 REVERT JUMPDEST POP PUSH2 0x89A PUSH2 0xB4A CALLDATASIZE PUSH1 0x4 PUSH2 0x4C4F JUMP JUMPDEST PUSH2 0x32F1 JUMP JUMPDEST CALLVALUE DUP1 ISZERO PUSH2 0xB5B JUMPI PUSH1 0x0 DUP1 REVERT JUMPDEST POP PUSH2 0x82D PUSH2 0x334B JUMP JUMPDEST CALLVALUE DUP1 ISZERO PUSH2 0xB70 JUMPI PUSH1 0x0 DUP1 REVERT JUMPDEST POP PUSH1 0x2 SLOAD PUSH2 0xB7E SWAP1 PUSH1 0xFF AND DUP2 JUMP JUMPDEST PUSH1 0x40 MLOAD PUSH2 0x4E3 SWAP2 SWAP1 PUSH2 0x5085 JUMP JUMPDEST CALLVALUE DUP1 ISZERO PUSH2 0xB97 JUMPI PUSH1 0x0 DUP1 REVERT JUMPDEST POP PUSH2 0x4D9 PUSH1 0x1F SLOAD DUP2 JUMP JUMPDEST CALLVALUE DUP1 ISZERO PUSH2 0xBAD JUMPI PUSH1 0x0 DUP1 REVERT JUMPDEST POP PUSH2 0x495 PUSH2 0x3358 JUMP JUMPDEST CALLVALUE DUP1 ISZERO PUSH2 0xBC2 JUMPI PUSH1 0x0 DUP1 REVERT JUMPDEST POP PUSH2 0x4D9 PUSH2 0xBD1 CALLDATASIZE PUSH1 0x4 PUSH2 0x4D17 JUMP JUMPDEST PUSH2 0x3586 JUMP JUMPDEST CALLVALUE DUP1 ISZERO PUSH2 0xBE2 JUMPI PUSH1 0x0 DUP1 REVERT JUMPDEST POP PUSH2 0x4D9 PUSH2 0xBF1 CALLDATASIZE PUSH1 0x4 PUSH2 0x4C4F JUMP JUMPDEST PUSH1 0x7 PUSH1 0x20 MSTORE PUSH1 0x0 SWAP1 DUP2 MSTORE PUSH1 0x40 SWAP1 KECCAK256 SLOAD DUP2 JUMP JUMPDEST CALLVALUE DUP1 ISZERO PUSH2 0xC0F JUMPI PUSH1 0x0 DUP1 REVERT JUMPDEST POP PUSH2 0x4D9 PUSH1 0x22 SLOAD DUP2 JUMP JUMPDEST CALLVALUE DUP1 ISZERO PUSH2 0xC25 JUMPI PUSH1 0x0 DUP1 REVERT JUMPDEST POP PUSH2 0x4D9 PUSH1 0x0 DUP2 JUMP JUMPDEST CALLVALUE DUP1 ISZERO PUSH2 0xC3A JUMPI PUSH1 0x0 DUP1 REVERT JUMPDEST POP PUSH2 0x495 PUSH2 0xC49 CALLDATASIZE PUSH1 0x4 PUSH2 0x4D2F JUMP JUMPDEST PUSH2 0x359D JUMP JUMPDEST CALLVALUE DUP1 ISZERO PUSH2 0xC5A JUMPI PUSH1 0x0 DUP1 REVERT JUMPDEST POP PUSH1 0xC SLOAD PUSH1 0xD SLOAD PUSH1 0x40 DUP1 MLOAD SWAP3 DUP4 MSTORE PUSH1 0x20 DUP4 ADD SWAP2 SWAP1 SWAP2 MSTORE ADD PUSH2 0x4E3 JUMP JUMPDEST CALLVALUE DUP1 ISZERO PUSH2 0xC82 JUMPI PUSH1 0x0 DUP1 REVERT JUMPDEST POP PUSH2 0x4D9 PUSH1 0x10 SLOAD DUP2 JUMP JUMPDEST CALLVALUE DUP1 ISZERO PUSH2 0xC98 JUMPI PUSH1 0x0 DUP1 REVERT JUMPDEST POP PUSH2 0x82D PUSH2 0x35A7 JUMP JUMPDEST CALLVALUE DUP1 ISZERO PUSH2 0xCAD JUMPI PUSH1 0x0 DUP1 REVERT JUMPDEST POP PUSH2 0xCC1 PUSH2 0xCBC CALLDATASIZE PUSH1 0x4 PUSH2 0x4D5E JUMP JUMPDEST PUSH2 0x35B4 JUMP JUMPDEST PUSH1 0x40 MLOAD PUSH2 0x4E3 SWAP2 SWAP1 PUSH2 0x4F88 JUMP JUMPDEST CALLVALUE DUP1 ISZERO PUSH2 0xCDA JUMPI PUSH1 0x0 DUP1 REVERT JUMPDEST POP PUSH2 0x4D9 PUSH1 0x12 SLOAD DUP2 JUMP JUMPDEST CALLVALUE DUP1 ISZERO PUSH2 0xCF0 JUMPI PUSH1 0x0 DUP1 REVERT JUMPDEST POP PUSH2 0x495 PUSH2 0xCFF CALLDATASIZE PUSH1 0x4 PUSH2 0x4DBF JUMP JUMPDEST PUSH2 0x370D JUMP JUMPDEST CALLVALUE DUP1 ISZERO PUSH2 0xD10 JUMPI PUSH1 0x0 DUP1 REVERT JUMPDEST POP PUSH1 0x4 SLOAD PUSH2 0x4D9 JUMP JUMPDEST CALLVALUE DUP1 ISZERO PUSH2 0xD25 JUMPI PUSH1 0x0 DUP1 REVERT JUMPDEST POP PUSH2 0x4D9 PUSH2 0xD34 CALLDATASIZE PUSH1 0x4 PUSH2 0x4C4F JUMP JUMPDEST PUSH1 0x5 PUSH1 0x20 MSTORE PUSH1 0x0 SWAP1 DUP2 MSTORE PUSH1 0x40 SWAP1 KECCAK256 SLOAD DUP2 JUMP JUMPDEST CALLVALUE DUP1 ISZERO PUSH2 0xD52 JUMPI PUSH1 0x0 DUP1 REVERT JUMPDEST POP PUSH2 0xD5B PUSH2 0x3728 JUMP JUMPDEST PUSH1 0x40 MLOAD PUSH2 0x4E3 SWAP2 SWAP1 PUSH2 0x4FE8 JUMP JUMPDEST CALLVALUE DUP1 ISZERO PUSH2 0xD74 JUMPI PUSH1 0x0 DUP1 REVERT JUMPDEST POP PUSH2 0x4D9 PUSH2 0xD83 CALLDATASIZE PUSH1 0x4 PUSH2 0x4C4F JUMP JUMPDEST PUSH2 0x3C37 JUMP JUMPDEST CALLVALUE DUP1 ISZERO PUSH2 0xD94 JUMPI PUSH1 0x0 DUP1 REVERT JUMPDEST POP PUSH2 0x5E0 PUSH1 0x0 DUP2 JUMP JUMPDEST CALLVALUE DUP1 ISZERO PUSH2 0xDA9 JUMPI PUSH1 0x0 DUP1 REVERT JUMPDEST POP PUSH2 0x495 PUSH2 0x3D85 JUMP JUMPDEST PUSH1 0x0 PUSH2 0xDBE DUP2 CALLER PUSH2 0x405E JUMP JUMPDEST PUSH1 0x4 PUSH1 0x2 SLOAD PUSH1 0xFF AND PUSH1 0x7 DUP2 GT ISZERO PUSH2 0xDE5 JUMPI PUSH4 0x4E487B71 PUSH1 0xE0 SHL PUSH1 0x0 MSTORE PUSH1 0x21 PUSH1 0x4 MSTORE PUSH1 0x24 PUSH1 0x0 REVERT JUMPDEST EQ PUSH2 0xE5D JUMPI PUSH1 0x40 MLOAD PUSH3 0x461BCD PUSH1 0xE5 SHL DUP2 MSTORE PUSH1 0x20 PUSH1 0x4 DUP3 ADD MSTORE PUSH1 0x33 PUSH1 0x24 DUP3 ADD MSTORE PUSH32 0x50523A20496E766573746F727320746F6B656E73206861766520616C72656164 PUSH1 0x44 DUP3 ADD MSTORE PUSH32 0x79206265656E2064697374726962757465642100000000000000000000000000 PUSH1 0x64 DUP3 ADD MSTORE PUSH1 0x84 ADD JUMPDEST PUSH1 0x40 MLOAD DUP1 SWAP2 SUB SWAP1 REVERT JUMPDEST PUSH1 0x0 PUSH2 0xE69 DUP5 DUP5 PUSH2 0x258D JUMP JUMPDEST SWAP1 POP PUSH1 0x0 JUMPDEST DUP2 MLOAD DUP2 LT ISZERO PUSH2 0x10BF JUMPI PUSH1 0x1 PUSH1 0x6 PUSH1 0x1 PUSH1 0x5 PUSH1 0x0 DUP7 DUP7 DUP2 MLOAD DUP2 LT PUSH2 0xEA1 JUMPI PUSH4 0x4E487B71 PUSH1 0xE0 SHL PUSH1 0x0 MSTORE PUSH1 0x32 PUSH1 0x4 MSTORE PUSH1 0x24 PUSH1 0x0 REVERT JUMPDEST PUSH1 0x20 MUL PUSH1 0x20 ADD ADD MLOAD PUSH1 0x0 ADD MLOAD PUSH1 0x1 PUSH1 0x1 PUSH1 0xA0 SHL SUB AND PUSH1 0x1 PUSH1 0x1 PUSH1 0xA0 SHL SUB AND DUP2 MSTORE PUSH1 0x20 ADD SWAP1 DUP2 MSTORE PUSH1 0x20 ADD PUSH1 0x0 KECCAK256 SLOAD PUSH2 0xED8 SWAP2 SWAP1 PUSH2 0x519E JUMP JUMPDEST DUP2 SLOAD DUP2 LT PUSH2 0xEF6 JUMPI PUSH4 0x4E487B71 PUSH1 0xE0 SHL PUSH1 0x0 MSTORE PUSH1 0x32 PUSH1 0x4 MSTORE PUSH1 0x24 PUSH1 0x0 REVERT JUMPDEST SWAP1 PUSH1 0x0 MSTORE PUSH1 0x20 PUSH1 0x0 KECCAK256 SWAP1 PUSH1 0x5 MUL ADD PUSH1 0x1 ADD SLOAD GT PUSH2 0x10AD JUMPI PUSH1 0x40 MLOAD DUP1 PUSH1 0xA0 ADD PUSH1 0x40 MSTORE DUP1 DUP4 DUP4 DUP2 MLOAD DUP2 LT PUSH2 0xF38 JUMPI PUSH4 0x4E487B71 PUSH1 0xE0 SHL PUSH1 0x0 MSTORE PUSH1 0x32 PUSH1 0x4 MSTORE PUSH1 0x24 PUSH1 0x0 REVERT JUMPDEST PUSH1 0x20 MUL PUSH1 0x20 ADD ADD MLOAD PUSH1 0x0 ADD MLOAD PUSH1 0x1 PUSH1 0x1 PUSH1 0xA0 SHL SUB AND DUP2 MSTORE PUSH1 0x20 ADD PUSH1 0xC SLOAD DUP5 DUP5 DUP2 MLOAD DUP2 LT PUSH2 0xF75 JUMPI PUSH4 0x4E487B71 PUSH1 0xE0 SHL PUSH1 0x0 MSTORE PUSH1 0x32 PUSH1 0x4 MSTORE PUSH1 0x24 PUSH1 0x0 REVERT JUMPDEST PUSH1 0x20 MUL PUSH1 0x20 ADD ADD MLOAD PUSH1 0x40 ADD MLOAD PUSH1 0x10 SLOAD PUSH2 0xF8E SWAP2 SWAP1 PUSH2 0x517F JUMP JUMPDEST PUSH2 0xF98 SWAP2 SWAP1 PUSH2 0x515F JUMP JUMPDEST DUP2 MSTORE PUSH1 0x20 ADD PUSH1 0x0 DUP2 MSTORE PUSH1 0x20 ADD PUSH1 0x20 SLOAD TIMESTAMP PUSH2 0xFB2 SWAP2 SWAP1 PUSH2 0x5147 JUMP JUMPDEST DUP2 MSTORE PUSH1 0x20 ADD PUSH1 0x21 SLOAD PUSH1 0x20 SLOAD TIMESTAMP PUSH2 0xFC8 SWAP2 SWAP1 PUSH2 0x5147 JUMP JUMPDEST PUSH2 0xFD2 SWAP2 SWAP1 PUSH2 0x5147 JUMP JUMPDEST DUP2 MSTORE POP PUSH1 0x6 PUSH1 0x1 PUSH1 0x5 PUSH1 0x0 DUP7 DUP7 DUP2 MLOAD DUP2 LT PUSH2 0xFFD JUMPI PUSH4 0x4E487B71 PUSH1 0xE0 SHL PUSH1 0x0 MSTORE PUSH1 0x32 PUSH1 0x4 MSTORE PUSH1 0x24 PUSH1 0x0 REVERT JUMPDEST PUSH1 0x20 MUL PUSH1 0x20 ADD ADD MLOAD PUSH1 0x0 ADD MLOAD PUSH1 0x1 PUSH1 0x1 PUSH1 0xA0 SHL SUB AND PUSH1 0x1 PUSH1 0x1 PUSH1 0xA0 SHL SUB AND DUP2 MSTORE PUSH1 0x20 ADD SWAP1 DUP2 MSTORE PUSH1 0x20 ADD PUSH1 0x0 KECCAK256 SLOAD PUSH2 0x1034 SWAP2 SWAP1 PUSH2 0x519E JUMP JUMPDEST DUP2 SLOAD DUP2 LT PUSH2 0x1052 JUMPI PUSH4 0x4E487B71 PUSH1 0xE0 SHL PUSH1 0x0 MSTORE PUSH1 0x32 PUSH1 0x4 MSTORE PUSH1 0x24 PUSH1 0x0 REVERT JUMPDEST PUSH1 0x0 SWAP2 DUP3 MSTORE PUSH1 0x20 SWAP2 DUP3 SWAP1 KECCAK256 DUP4 MLOAD PUSH1 0x5 SWAP3 SWAP1 SWAP3 MUL ADD DUP1 SLOAD PUSH1 0x1 PUSH1 0x1 PUSH1 0xA0 SHL SUB NOT AND PUSH1 0x1 PUSH1 0x1 PUSH1 0xA0 SHL SUB SWAP1 SWAP3 AND SWAP2 SWAP1 SWAP2 OR DUP2 SSTORE SWAP1 DUP3 ADD MLOAD PUSH1 0x1 DUP3 ADD SSTORE PUSH1 0x40 DUP3 ADD MLOAD PUSH1 0x2 DUP3 ADD SSTORE PUSH1 0x60 DUP3 ADD MLOAD PUSH1 0x3 DUP3 ADD SSTORE PUSH1 0x80 SWAP1 SWAP2 ADD MLOAD PUSH1 0x4 SWAP1 SWAP2 ADD SSTORE JUMPDEST DUP1 PUSH2 0x10B7 DUP2 PUSH2 0x5233 JUMP JUMPDEST SWAP2 POP POP PUSH2 0xE6E JUMP JUMPDEST POP POP POP POP POP JUMP JUMPDEST PUSH1 0x0 PUSH2 0x10D2 DUP2 CALLER PUSH2 0x405E JUMP JUMPDEST PUSH1 0x1 PUSH1 0x2 SLOAD PUSH1 0xFF AND PUSH1 0x7 DUP2 GT ISZERO PUSH2 0x10F9 JUMPI PUSH4 0x4E487B71 PUSH1 0xE0 SHL PUSH1 0x0 MSTORE PUSH1 0x21 PUSH1 0x4 MSTORE PUSH1 0x24 PUSH1 0x0 REVERT JUMPDEST EQ PUSH2 0x1146 JUMPI PUSH1 0x40 MLOAD PUSH3 0x461BCD PUSH1 0xE5 SHL DUP2 MSTORE PUSH1 0x20 PUSH1 0x4 DUP3 ADD MSTORE PUSH1 0x1C PUSH1 0x24 DUP3 ADD MSTORE PUSH32 0x50523A205061697220697320616C726561647920637265617465642100000000 PUSH1 0x44 DUP3 ADD MSTORE PUSH1 0x64 ADD PUSH2 0xE54 JUMP JUMPDEST PUSH1 0x13 SLOAD PUSH1 0x1 PUSH1 0x1 PUSH1 0xA0 SHL SUB AND PUSH2 0x11C4 JUMPI PUSH1 0x40 MLOAD PUSH3 0x461BCD PUSH1 0xE5 SHL DUP2 MSTORE PUSH1 0x20 PUSH1 0x4 DUP3 ADD MSTORE PUSH1 0x2A PUSH1 0x24 DUP3 ADD MSTORE PUSH32 0x50523A20546F6B656E206164647265737320776173206E6F7420696E69746961 PUSH1 0x44 DUP3 ADD MSTORE PUSH32 0x6C697A6564207965742100000000000000000000000000000000000000000000 PUSH1 0x64 DUP3 ADD MSTORE PUSH1 0x84 ADD PUSH2 0xE54 JUMP JUMPDEST PUSH1 0x18 SLOAD PUSH1 0x13 SLOAD PUSH1 0x16 SLOAD PUSH1 0x40 MLOAD PUSH4 0xE6A43905 PUSH1 0xE0 SHL DUP2 MSTORE PUSH1 0x1 PUSH1 0x1 PUSH1 0xA0 SHL SUB SWAP3 DUP4 AND PUSH1 0x4 DUP3 ADD MSTORE SWAP1 DUP3 AND PUSH1 0x24 DUP3 ADD MSTORE SWAP2 AND SWAP1 PUSH4 0xE6A43905 SWAP1 PUSH1 0x44 ADD PUSH1 0x20 PUSH1 0x40 MLOAD DUP1 DUP4 SUB DUP2 DUP7 DUP1 EXTCODESIZE ISZERO DUP1 ISZERO PUSH2 0x1216 JUMPI PUSH1 0x0 DUP1 REVERT JUMPDEST POP GAS STATICCALL ISZERO DUP1 ISZERO PUSH2 0x122A JUMPI RETURNDATASIZE PUSH1 0x0 DUP1 RETURNDATACOPY RETURNDATASIZE PUSH1 0x0 REVERT JUMPDEST POP POP POP POP PUSH1 0x40 MLOAD RETURNDATASIZE PUSH1 0x1F NOT PUSH1 0x1F DUP3 ADD AND DUP3 ADD DUP1 PUSH1 0x40 MSTORE POP DUP2 ADD SWAP1 PUSH2 0x124E SWAP2 SWAP1 PUSH2 0x4C6B JUMP JUMPDEST PUSH1 0x1A DUP1 SLOAD PUSH1 0x1 PUSH1 0x1 PUSH1 0xA0 SHL SUB NOT AND PUSH1 0x1 PUSH1 0x1 PUSH1 0xA0 SHL SUB SWAP3 SWAP1 SWAP3 AND SWAP2 DUP3 OR SWAP1 SSTORE PUSH2 0x1337 JUMPI PUSH1 0x18 SLOAD PUSH1 0x13 SLOAD PUSH1 0x16 SLOAD PUSH1 0x40 MLOAD PUSH32 0xC9C6539600000000000000000000000000000000000000000000000000000000 DUP2 MSTORE PUSH1 0x1 PUSH1 0x1 PUSH1 0xA0 SHL SUB SWAP3 DUP4 AND PUSH1 0x4 DUP3 ADD MSTORE SWAP1 DUP3 AND PUSH1 0x24 DUP3 ADD MSTORE SWAP2 AND SWAP1 PUSH4 0xC9C65396 SWAP1 PUSH1 0x44 ADD PUSH1 0x20 PUSH1 0x40 MLOAD DUP1 DUP4 SUB DUP2 PUSH1 0x0 DUP8 DUP1 EXTCODESIZE ISZERO DUP1 ISZERO PUSH2 0x12DE JUMPI PUSH1 0x0 DUP1 REVERT JUMPDEST POP GAS CALL ISZERO DUP1 ISZERO PUSH2 0x12F2 JUMPI RETURNDATASIZE PUSH1 0x0 DUP1 RETURNDATACOPY RETURNDATASIZE PUSH1 0x0 REVERT JUMPDEST POP POP POP POP PUSH1 0x40 MLOAD RETURNDATASIZE PUSH1 0x1F NOT PUSH1 0x1F DUP3 ADD AND DUP3 ADD DUP1 PUSH1 0x40 MSTORE POP DUP2 ADD SWAP1 PUSH2 0x1316 SWAP2 SWAP1 PUSH2 0x4C6B JUMP JUMPDEST PUSH1 0x1A DUP1 SLOAD PUSH1 0x1 PUSH1 0x1 PUSH1 0xA0 SHL SUB NOT AND PUSH1 0x1 PUSH1 0x1 PUSH1 0xA0 SHL SUB SWAP3 SWAP1 SWAP3 AND SWAP2 SWAP1 SWAP2 OR SWAP1 SSTORE JUMPDEST PUSH2 0x1341 PUSH1 0x3 PUSH2 0x40DC JUMP JUMPDEST POP JUMP JUMPDEST PUSH1 0x0 PUSH1 0x1 PUSH1 0x1 PUSH1 0xE0 SHL SUB NOT DUP3 AND PUSH32 0x5A05180F00000000000000000000000000000000000000000000000000000000 EQ DUP1 PUSH2 0x1382 JUMPI POP PUSH2 0x1382 DUP3 PUSH2 0x4148 JUMP JUMPDEST SWAP3 SWAP2 POP POP JUMP JUMPDEST PUSH1 0x0 PUSH2 0x1394 DUP2 CALLER PUSH2 0x405E JUMP JUMPDEST PUSH1 0x0 JUMPDEST DUP3 DUP2 LT ISZERO PUSH2 0x141B JUMPI PUSH2 0x1409 DUP5 DUP5 DUP4 DUP2 DUP2 LT PUSH2 0x13C2 JUMPI PUSH4 0x4E487B71 PUSH1 0xE0 SHL PUSH1 0x0 MSTORE PUSH1 0x32 PUSH1 0x4 MSTORE PUSH1 0x24 PUSH1 0x0 REVERT JUMPDEST SWAP1 POP PUSH1 0x40 MUL ADD PUSH1 0x0 ADD CALLDATALOAD DUP6 DUP6 DUP5 DUP2 DUP2 LT PUSH2 0x13EC JUMPI PUSH4 0x4E487B71 PUSH1 0xE0 SHL PUSH1 0x0 MSTORE PUSH1 0x32 PUSH1 0x4 MSTORE PUSH1 0x24 PUSH1 0x0 REVERT JUMPDEST SWAP1 POP PUSH1 0x40 MUL ADD PUSH1 0x20 ADD PUSH1 0x20 DUP2 ADD SWAP1 PUSH2 0x1404 SWAP2 SWAP1 PUSH2 0x4C4F JUMP JUMPDEST PUSH2 0x41AF JUMP JUMPDEST DUP1 PUSH2 0x1413 DUP2 PUSH2 0x5233 JUMP JUMPDEST SWAP2 POP POP PUSH2 0x1397 JUMP JUMPDEST POP POP POP POP JUMP JUMPDEST PUSH1 0x0 PUSH1 0x2 SLOAD PUSH1 0xFF AND PUSH1 0x7 DUP2 GT ISZERO PUSH2 0x1448 JUMPI PUSH4 0x4E487B71 PUSH1 0xE0 SHL PUSH1 0x0 MSTORE PUSH1 0x21 PUSH1 0x4 MSTORE PUSH1 0x24 PUSH1 0x0 REVERT JUMPDEST EQ PUSH2 0x14BB JUMPI PUSH1 0x40 MLOAD PUSH3 0x461BCD PUSH1 0xE5 SHL DUP2 MSTORE PUSH1 0x20 PUSH1 0x4 DUP3 ADD MSTORE PUSH1 0x28 PUSH1 0x24 DUP3 ADD MSTORE PUSH32 0x50523A20416363657074696E67207061796D656E747320686173206265656E20 PUSH1 0x44 DUP3 ADD MSTORE PUSH32 0x73746F7070656421000000000000000000000000000000000000000000000000 PUSH1 0x64 DUP3 ADD MSTORE PUSH1 0x84 ADD PUSH2 0xE54 JUMP JUMPDEST PUSH1 0xD SLOAD PUSH1 0xC SLOAD GT ISZERO PUSH2 0x150F JUMPI PUSH1 0x40 MLOAD PUSH3 0x461BCD PUSH1 0xE5 SHL DUP2 MSTORE PUSH1 0x20 PUSH1 0x4 DUP3 ADD MSTORE PUSH1 0x14 PUSH1 0x24 DUP3 ADD MSTORE PUSH32 0x50523A204D617820636170207265616368656421000000000000000000000000 PUSH1 0x44 DUP3 ADD MSTORE PUSH1 0x64 ADD PUSH2 0xE54 JUMP JUMPDEST PUSH1 0xE SLOAD CALLVALUE LT ISZERO PUSH2 0x156F JUMPI PUSH1 0x40 MLOAD PUSH3 0x461BCD PUSH1 0xE5 SHL DUP2 MSTORE PUSH1 0x20 PUSH1 0x4 DUP3 ADD MSTORE PUSH1 0x25 PUSH1 0x24 DUP3 ADD MSTORE PUSH32 0x50523A20416D6F756E742069732062656C6F77206D696E696D756D207065726D PUSH1 0x44 DUP3 ADD MSTORE PUSH5 0x1A5D1D1959 PUSH1 0xDA SHL PUSH1 0x64 DUP3 ADD MSTORE PUSH1 0x84 ADD PUSH2 0xE54 JUMP JUMPDEST PUSH1 0xF SLOAD CALLVALUE GT ISZERO PUSH2 0x15CF JUMPI PUSH1 0x40 MLOAD PUSH3 0x461BCD PUSH1 0xE5 SHL DUP2 MSTORE PUSH1 0x20 PUSH1 0x4 DUP3 ADD MSTORE PUSH1 0x25 PUSH1 0x24 DUP3 ADD MSTORE PUSH32 0x50523A20416D6F756E742069732061626F7665206D6178696D756D207065726D PUSH1 0x44 DUP3 ADD MSTORE PUSH5 0x1A5D1D1959 PUSH1 0xDA SHL PUSH1 0x64 DUP3 ADD MSTORE PUSH1 0x84 ADD PUSH2 0xE54 JUMP JUMPDEST CALLER PUSH1 0x0 SWAP1 DUP2 MSTORE PUSH1 0x9 PUSH1 0x20 MSTORE PUSH1 0x40 SWAP1 KECCAK256 SLOAD ISZERO PUSH2 0x1636 JUMPI PUSH1 0x40 MLOAD PUSH3 0x461BCD PUSH1 0xE5 SHL DUP2 MSTORE PUSH1 0x20 PUSH1 0x4 DUP3 ADD MSTORE PUSH1 0x21 PUSH1 0x24 DUP3 ADD MSTORE PUSH32 0x50523A205465616D206973206E6F7420616C6C6F77656420746F20696E766573 PUSH1 0x44 DUP3 ADD MSTORE PUSH1 0x1D PUSH1 0xFA SHL PUSH1 0x64 DUP3 ADD MSTORE PUSH1 0x84 ADD PUSH2 0xE54 JUMP JUMPDEST PUSH1 0x1 PUSH1 0x1 PUSH1 0xA0 SHL SUB DUP2 AND PUSH1 0x0 SWAP1 DUP2 MSTORE PUSH1 0x7 PUSH1 0x20 MSTORE PUSH1 0x40 SWAP1 KECCAK256 SLOAD ISZERO PUSH2 0x16C2 JUMPI PUSH1 0x40 MLOAD PUSH3 0x461BCD PUSH1 0xE5 SHL DUP2 MSTORE PUSH1 0x20 PUSH1 0x4 DUP3 ADD MSTORE PUSH1 0x26 PUSH1 0x24 DUP3 ADD MSTORE PUSH32 0x50523A20506C656173652075736520646966666572656E742072656665727261 PUSH1 0x44 DUP3 ADD MSTORE PUSH32 0x6C206C696E6B0000000000000000000000000000000000000000000000000000 PUSH1 0x64 DUP3 ADD MSTORE PUSH1 0x84 ADD PUSH2 0xE54 JUMP JUMPDEST CALLER PUSH1 0x1 PUSH1 0x1 PUSH1 0xA0 SHL SUB DUP3 AND EQ ISZERO PUSH2 0x1741 JUMPI PUSH1 0x40 MLOAD PUSH3 0x461BCD PUSH1 0xE5 SHL DUP2 MSTORE PUSH1 0x20 PUSH1 0x4 DUP3 ADD MSTORE PUSH1 0x3E PUSH1 0x24 DUP3 ADD MSTORE PUSH32 0x50523A2053656C662D7265662069736E277420616C6C6F7765642E20506C6561 PUSH1 0x44 DUP3 ADD MSTORE PUSH32 0x73652075736520646966666572656E7420726566657272616C206C696E6B0000 PUSH1 0x64 DUP3 ADD MSTORE PUSH1 0x84 ADD PUSH2 0xE54 JUMP JUMPDEST PUSH1 0x1 PUSH1 0x1 PUSH1 0xA0 SHL SUB DUP2 AND PUSH2 0x1766 JUMPI POP PUSH20 0xC427A912E0B19F082840A0045E430DE5B8CB1F65 JUMPDEST PUSH2 0x1771 CALLER DUP3 CALLVALUE PUSH2 0x41B9 JUMP JUMPDEST PUSH2 0x1341 DUP2 PUSH3 0xF4240 PUSH1 0xB SLOAD CALLVALUE PUSH2 0x1787 SWAP2 SWAP1 PUSH2 0x517F JUMP JUMPDEST PUSH2 0x1791 SWAP2 SWAP1 PUSH2 0x515F JUMP JUMPDEST PUSH2 0x43F1 JUMP JUMPDEST PUSH1 0x1 PUSH1 0x1 PUSH1 0xA0 SHL SUB DUP2 AND PUSH1 0x0 SWAP1 DUP2 MSTORE PUSH1 0x3 PUSH1 0x20 MSTORE PUSH1 0x40 DUP2 KECCAK256 SLOAD DUP2 SWAP1 DUP2 SWAP1 DUP2 SWAP1 PUSH1 0x4 SWAP1 PUSH2 0x17C4 SWAP1 PUSH1 0x1 SWAP1 PUSH2 0x519E JUMP JUMPDEST DUP2 SLOAD DUP2 LT PUSH2 0x17E2 JUMPI PUSH4 0x4E487B71 PUSH1 0xE0 SHL PUSH1 0x0 MSTORE PUSH1 0x32 PUSH1 0x4 MSTORE PUSH1 0x24 PUSH1 0x0 REVERT JUMPDEST SWAP1 PUSH1 0x0 MSTORE PUSH1 0x20 PUSH1 0x0 KECCAK256 SWAP1 PUSH1 0x3 MUL ADD PUSH1 0x2 ADD SLOAD PUSH1 0x8 PUSH1 0x1 PUSH1 0x7 PUSH1 0x0 DUP10 PUSH1 0x1 PUSH1 0x1 PUSH1 0xA0 SHL SUB AND PUSH1 0x1 PUSH1 0x1 PUSH1 0xA0 SHL SUB AND DUP2 MSTORE PUSH1 0x20 ADD SWAP1 DUP2 MSTORE PUSH1 0x20 ADD PUSH1 0x0 KECCAK256 SLOAD PUSH2 0x1828 SWAP2 SWAP1 PUSH2 0x519E JUMP JUMPDEST DUP2 SLOAD DUP2 LT PUSH2 0x1846 JUMPI PUSH4 0x4E487B71 PUSH1 0xE0 SHL PUSH1 0x0 MSTORE PUSH1 0x32 PUSH1 0x4 MSTORE PUSH1 0x24 PUSH1 0x0 REVERT JUMPDEST SWAP1 PUSH1 0x0 MSTORE PUSH1 0x20 PUSH1 0x0 KECCAK256 SWAP1 PUSH1 0x2 MUL ADD PUSH1 0x1 ADD SLOAD PUSH1 0xE SLOAD PUSH1 0xF SLOAD SWAP4 POP SWAP4 POP SWAP4 POP SWAP4 POP SWAP2 SWAP4 POP SWAP2 SWAP4 JUMP JUMPDEST PUSH1 0xA DUP2 DUP2 SLOAD DUP2 LT PUSH2 0x187D JUMPI PUSH1 0x0 DUP1 REVERT JUMPDEST PUSH1 0x0 SWAP2 DUP3 MSTORE PUSH1 0x20 SWAP1 SWAP2 KECCAK256 PUSH1 0x5 SWAP1 SWAP2 MUL ADD DUP1 SLOAD PUSH1 0x1 DUP3 ADD DUP1 SLOAD PUSH1 0x1 PUSH1 0x1 PUSH1 0xA0 SHL SUB SWAP1 SWAP3 AND SWAP4 POP SWAP1 PUSH2 0x18AC SWAP1 PUSH2 0x51F8 JUMP JUMPDEST DUP1 PUSH1 0x1F ADD PUSH1 0x20 DUP1 SWAP2 DIV MUL PUSH1 0x20 ADD PUSH1 0x40 MLOAD SWAP1 DUP2 ADD PUSH1 0x40 MSTORE DUP1 SWAP3 SWAP2 SWAP1 DUP2 DUP2 MSTORE PUSH1 0x20 ADD DUP3 DUP1 SLOAD PUSH2 0x18D8 SWAP1 PUSH2 0x51F8 JUMP JUMPDEST DUP1 ISZERO PUSH2 0x1925 JUMPI DUP1 PUSH1 0x1F LT PUSH2 0x18FA JUMPI PUSH2 0x100 DUP1 DUP4 SLOAD DIV MUL DUP4 MSTORE SWAP2 PUSH1 0x20 ADD SWAP2 PUSH2 0x1925 JUMP JUMPDEST DUP3 ADD SWAP2 SWAP1 PUSH1 0x0 MSTORE PUSH1 0x20 PUSH1 0x0 KECCAK256 SWAP1 JUMPDEST DUP2 SLOAD DUP2 MSTORE SWAP1 PUSH1 0x1 ADD SWAP1 PUSH1 0x20 ADD DUP1 DUP4 GT PUSH2 0x1908 JUMPI DUP3 SWAP1 SUB PUSH1 0x1F AND DUP3 ADD SWAP2 JUMPDEST POP POP POP POP POP SWAP1 DUP1 PUSH1 0x2 ADD SLOAD SWAP1 DUP1 PUSH1 0x3 ADD SLOAD SWAP1 DUP1 PUSH1 0x4 ADD SLOAD SWAP1 POP DUP6 JUMP JUMPDEST PUSH2 0x1949 PUSH2 0x1D0B JUMP JUMPDEST PUSH2 0x1951 PUSH2 0x10C6 JUMP JUMPDEST PUSH2 0x1959 PUSH2 0x1EA3 JUMP JUMPDEST JUMP JUMPDEST PUSH1 0x0 PUSH2 0x1967 DUP2 CALLER PUSH2 0x405E JUMP JUMPDEST PUSH1 0x15 SLOAD PUSH1 0x40 MLOAD PUSH4 0x70A08231 PUSH1 0xE0 SHL DUP2 MSTORE ADDRESS PUSH1 0x4 DUP3 ADD MSTORE PUSH1 0x0 SWAP2 PUSH1 0x1 PUSH1 0x1 PUSH1 0xA0 SHL SUB AND SWAP1 PUSH4 0x70A08231 SWAP1 PUSH1 0x24 ADD PUSH1 0x20 PUSH1 0x40 MLOAD DUP1 DUP4 SUB DUP2 DUP7 DUP1 EXTCODESIZE ISZERO DUP1 ISZERO PUSH2 0x19AB JUMPI PUSH1 0x0 DUP1 REVERT JUMPDEST POP GAS STATICCALL ISZERO DUP1 ISZERO PUSH2 0x19BF JUMPI RETURNDATASIZE PUSH1 0x0 DUP1 RETURNDATACOPY RETURNDATASIZE PUSH1 0x0 REVERT JUMPDEST POP POP POP POP PUSH1 0x40 MLOAD RETURNDATASIZE PUSH1 0x1F NOT PUSH1 0x1F DUP3 ADD AND DUP3 ADD DUP1 PUSH1 0x40 MSTORE POP DUP2 ADD SWAP1 PUSH2 0x19E3 SWAP2 SWAP1 PUSH2 0x4DA7 JUMP JUMPDEST SWAP1 POP DUP1 ISZERO PUSH2 0x1A63 JUMPI PUSH1 0x15 SLOAD PUSH1 0x40 MLOAD PUSH32 0x2E1A7D4D00000000000000000000000000000000000000000000000000000000 DUP2 MSTORE PUSH1 0x4 DUP2 ADD DUP4 SWAP1 MSTORE PUSH1 0x1 PUSH1 0x1 PUSH1 0xA0 SHL SUB SWAP1 SWAP2 AND SWAP1 PUSH4 0x2E1A7D4D SWAP1 PUSH1 0x24 ADD PUSH1 0x0 PUSH1 0x40 MLOAD DUP1 DUP4 SUB DUP2 PUSH1 0x0 DUP8 DUP1 EXTCODESIZE ISZERO DUP1 ISZERO PUSH2 0x1A4A JUMPI PUSH1 0x0 DUP1 REVERT JUMPDEST POP GAS CALL ISZERO DUP1 ISZERO PUSH2 0x1A5E JUMPI RETURNDATASIZE PUSH1 0x0 DUP1 RETURNDATACOPY RETURNDATASIZE PUSH1 0x0 REVERT JUMPDEST POP POP POP POP JUMPDEST PUSH1 0x0 PUSH2 0x1A6F DUP6 DUP6 PUSH2 0x258D JUMP JUMPDEST SWAP1 POP PUSH1 0x0 JUMPDEST DUP2 MLOAD DUP2 LT ISZERO PUSH2 0x1B58 JUMPI PUSH1 0x0 DUP3 DUP3 DUP2 MLOAD DUP2 LT PUSH2 0x1A9F JUMPI PUSH4 0x4E487B71 PUSH1 0xE0 SHL PUSH1 0x0 MSTORE PUSH1 0x32 PUSH1 0x4 MSTORE PUSH1 0x24 PUSH1 0x0 REVERT JUMPDEST PUSH1 0x20 MUL PUSH1 0x20 ADD ADD MLOAD PUSH1 0x40 ADD MLOAD SWAP1 POP PUSH1 0x0 DUP4 DUP4 DUP2 MLOAD DUP2 LT PUSH2 0x1ACF JUMPI PUSH4 0x4E487B71 PUSH1 0xE0 SHL PUSH1 0x0 MSTORE PUSH1 0x32 PUSH1 0x4 MSTORE PUSH1 0x24 PUSH1 0x0 REVERT JUMPDEST PUSH1 0x20 MUL PUSH1 0x20 ADD ADD MLOAD PUSH1 0x40 ADD DUP2 DUP2 MSTORE POP POP DUP3 DUP3 DUP2 MLOAD DUP2 LT PUSH2 0x1AFF JUMPI PUSH4 0x4E487B71 PUSH1 0xE0 SHL PUSH1 0x0 MSTORE PUSH1 0x32 PUSH1 0x4 MSTORE PUSH1 0x24 PUSH1 0x0 REVERT JUMPDEST PUSH1 0x20 MUL PUSH1 0x20 ADD ADD MLOAD PUSH1 0x0 ADD MLOAD PUSH1 0x1 PUSH1 0x1 PUSH1 0xA0 SHL SUB AND PUSH2 0x8FC DUP3 SWAP1 DUP2 ISZERO MUL SWAP1 PUSH1 0x40 MLOAD PUSH1 0x0 PUSH1 0x40 MLOAD DUP1 DUP4 SUB DUP2 DUP6 DUP9 DUP9 CALL SWAP4 POP POP POP POP ISZERO DUP1 ISZERO PUSH2 0x1B43 JUMPI RETURNDATASIZE PUSH1 0x0 DUP1 RETURNDATACOPY RETURNDATASIZE PUSH1 0x0 REVERT JUMPDEST POP POP DUP1 DUP1 PUSH2 0x1B50 SWAP1 PUSH2 0x5233 JUMP JUMPDEST SWAP2 POP POP PUSH2 0x1A74 JUMP JUMPDEST POP PUSH2 0x10BF PUSH1 0x7 PUSH2 0x40DC JUMP JUMPDEST PUSH1 0x40 DUP1 MLOAD PUSH1 0x60 DUP2 ADD DUP3 MSTORE PUSH1 0x0 DUP1 DUP3 MSTORE PUSH1 0x20 DUP3 ADD DUP2 SWAP1 MSTORE SWAP2 DUP2 ADD SWAP2 SWAP1 SWAP2 MSTORE PUSH1 0x4 DUP3 DUP2 SLOAD DUP2 LT PUSH2 0x1BA1 JUMPI PUSH4 0x4E487B71 PUSH1 0xE0 SHL PUSH1 0x0 MSTORE PUSH1 0x32 PUSH1 0x4 MSTORE PUSH1 0x24 PUSH1 0x0 REVERT JUMPDEST PUSH1 0x0 SWAP2 DUP3 MSTORE PUSH1 0x20 SWAP2 DUP3 SWAP1 KECCAK256 PUSH1 0x40 DUP1 MLOAD PUSH1 0x60 DUP2 ADD DUP3 MSTORE PUSH1 0x3 SWAP1 SWAP4 MUL SWAP1 SWAP2 ADD DUP1 SLOAD PUSH1 0x1 PUSH1 0x1 PUSH1 0xA0 SHL SUB SWAP1 DUP2 AND DUP5 MSTORE PUSH1 0x1 DUP3 ADD SLOAD AND SWAP4 DUP4 ADD SWAP4 SWAP1 SWAP4 MSTORE PUSH1 0x2 SWAP1 SWAP3 ADD SLOAD SWAP2 DUP2 ADD SWAP2 SWAP1 SWAP2 MSTORE SWAP3 SWAP2 POP POP JUMP JUMPDEST PUSH2 0x1BF7 DUP3 DUP3 PUSH2 0x452F JUMP JUMPDEST PUSH1 0x0 DUP3 DUP2 MSTORE PUSH1 0x1 PUSH1 0x20 MSTORE PUSH1 0x40 SWAP1 KECCAK256 PUSH2 0x1C0F SWAP1 DUP3 PUSH2 0x4049 JUMP JUMPDEST POP POP POP JUMP JUMPDEST PUSH1 0x6 DUP2 DUP2 SLOAD DUP2 LT PUSH2 0x1C24 JUMPI PUSH1 0x0 DUP1 REVERT JUMPDEST PUSH1 0x0 SWAP2 DUP3 MSTORE PUSH1 0x20 SWAP1 SWAP2 KECCAK256 PUSH1 0x5 SWAP1 SWAP2 MUL ADD DUP1 SLOAD PUSH1 0x1 DUP3 ADD SLOAD PUSH1 0x2 DUP4 ADD SLOAD PUSH1 0x3 DUP5 ADD SLOAD PUSH1 0x4 SWAP1 SWAP5 ADD SLOAD PUSH1 0x1 PUSH1 0x1 PUSH1 0xA0 SHL SUB SWAP1 SWAP4 AND SWAP5 POP SWAP1 SWAP3 SWAP1 SWAP2 DUP6 JUMP JUMPDEST PUSH2 0x1C69 DUP3 DUP3 PUSH2 0x4545 JUMP JUMPDEST PUSH1 0x0 DUP3 DUP2 MSTORE PUSH1 0x1 PUSH1 0x20 MSTORE PUSH1 0x40 SWAP1 KECCAK256 PUSH2 0x1C0F SWAP1 DUP3 PUSH2 0x45CD JUMP JUMPDEST PUSH2 0x1C89 PUSH2 0x2CF8 JUMP JUMPDEST PUSH2 0x1C91 PUSH2 0x2729 JUMP JUMPDEST DUP1 ISZERO PUSH2 0x1C9D JUMPI DUP1 PUSH2 0x1CA1 JUMP JUMPDEST PUSH1 0x4 SLOAD JUMPDEST SWAP1 POP PUSH2 0x1CAE PUSH1 0x0 DUP3 PUSH2 0xDB2 JUMP JUMPDEST DUP1 ISZERO PUSH2 0x1CBA JUMPI DUP1 PUSH2 0x1CBE JUMP JUMPDEST PUSH1 0x4 SLOAD JUMPDEST SWAP1 POP PUSH2 0x1341 PUSH1 0x0 DUP3 PUSH2 0x29F0 JUMP JUMPDEST PUSH1 0x4 DUP2 DUP2 SLOAD DUP2 LT PUSH2 0x1CDB JUMPI PUSH1 0x0 DUP1 REVERT JUMPDEST PUSH1 0x0 SWAP2 DUP3 MSTORE PUSH1 0x20 SWAP1 SWAP2 KECCAK256 PUSH1 0x3 SWAP1 SWAP2 MUL ADD DUP1 SLOAD PUSH1 0x1 DUP3 ADD SLOAD PUSH1 0x2 SWAP1 SWAP3 ADD SLOAD PUSH1 0x1 PUSH1 0x1 PUSH1 0xA0 SHL SUB SWAP2 DUP3 AND SWAP4 POP SWAP2 AND SWAP1 DUP4 JUMP JUMPDEST PUSH1 0x0 PUSH2 0x1D17 DUP2 CALLER PUSH2 0x405E JUMP JUMPDEST PUSH1 0x0 PUSH1 0x2 SLOAD PUSH1 0xFF AND PUSH1 0x7 DUP2 GT ISZERO PUSH2 0x1D3E JUMPI PUSH4 0x4E487B71 PUSH1 0xE0 SHL PUSH1 0x0 MSTORE PUSH1 0x21 PUSH1 0x4 MSTORE PUSH1 0x24 PUSH1 0x0 REVERT JUMPDEST EQ PUSH2 0x1D8B JUMPI PUSH1 0x40 MLOAD PUSH3 0x461BCD PUSH1 0xE5 SHL DUP2 MSTORE PUSH1 0x20 PUSH1 0x4 DUP3 ADD MSTORE PUSH1 0x1C PUSH1 0x24 DUP3 ADD MSTORE PUSH32 0x50523A20476F616C20697320616C726561647920726561636865642100000000 PUSH1 0x44 DUP3 ADD MSTORE PUSH1 0x64 ADD PUSH2 0xE54 JUMP JUMPDEST PUSH2 0x1341 PUSH1 0x1 PUSH2 0x40DC JUMP JUMPDEST PUSH1 0x1D DUP1 SLOAD PUSH2 0x1DA2 SWAP1 PUSH2 0x51F8 JUMP JUMPDEST DUP1 PUSH1 0x1F ADD PUSH1 0x20 DUP1 SWAP2 DIV MUL PUSH1 0x20 ADD PUSH1 0x40 MLOAD SWAP1 DUP2 ADD PUSH1 0x40 MSTORE DUP1 SWAP3 SWAP2 SWAP1 DUP2 DUP2 MSTORE PUSH1 0x20 ADD DUP3 DUP1 SLOAD PUSH2 0x1DCE SWAP1 PUSH2 0x51F8 JUMP JUMPDEST DUP1 ISZERO PUSH2 0x1E1B JUMPI DUP1 PUSH1 0x1F LT PUSH2 0x1DF0 JUMPI PUSH2 0x100 DUP1 DUP4 SLOAD DIV MUL DUP4 MSTORE SWAP2 PUSH1 0x20 ADD SWAP2 PUSH2 0x1E1B JUMP JUMPDEST DUP3 ADD SWAP2 SWAP1 PUSH1 0x0 MSTORE PUSH1 0x20 PUSH1 0x0 KECCAK256 SWAP1 JUMPDEST DUP2 SLOAD DUP2 MSTORE SWAP1 PUSH1 0x1 ADD SWAP1 PUSH1 0x20 ADD DUP1 DUP4 GT PUSH2 0x1DFE JUMPI DUP3 SWAP1 SUB PUSH1 0x1F AND DUP3 ADD SWAP2 JUMPDEST POP POP POP POP POP DUP2 JUMP JUMPDEST PUSH1 0x0 PUSH2 0x1E2F DUP2 CALLER PUSH2 0x405E JUMP JUMPDEST POP PUSH1 0x12 SSTORE JUMP JUMPDEST PUSH1 0x40 DUP1 MLOAD DUP1 DUP3 ADD SWAP1 SWAP2 MSTORE PUSH1 0x0 DUP1 DUP3 MSTORE PUSH1 0x20 DUP3 ADD MSTORE PUSH1 0x8 DUP3 DUP2 SLOAD DUP2 LT PUSH2 0x1E6A JUMPI PUSH4 0x4E487B71 PUSH1 0xE0 SHL PUSH1 0x0 MSTORE PUSH1 0x32 PUSH1 0x4 MSTORE PUSH1 0x24 PUSH1 0x0 REVERT JUMPDEST PUSH1 0x0 SWAP2 DUP3 MSTORE PUSH1 0x20 SWAP2 DUP3 SWAP1 KECCAK256 PUSH1 0x40 DUP1 MLOAD DUP1 DUP3 ADD SWAP1 SWAP2 MSTORE PUSH1 0x2 SWAP1 SWAP3 MUL ADD DUP1 SLOAD PUSH1 0x1 PUSH1 0x1 PUSH1 0xA0 SHL SUB AND DUP3 MSTORE PUSH1 0x1 ADD SLOAD SWAP2 DUP2 ADD SWAP2 SWAP1 SWAP2 MSTORE SWAP3 SWAP2 POP POP JUMP JUMPDEST PUSH1 0x0 PUSH2 0x1EAF DUP2 CALLER PUSH2 0x405E JUMP JUMPDEST PUSH1 0x3 PUSH1 0x2 SLOAD PUSH1 0xFF AND PUSH1 0x7 DUP2 GT ISZERO PUSH2 0x1ED6 JUMPI PUSH4 0x4E487B71 PUSH1 0xE0 SHL PUSH1 0x0 MSTORE PUSH1 0x21 PUSH1 0x4 MSTORE PUSH1 0x24 PUSH1 0x0 REVERT JUMPDEST EQ PUSH2 0x1F49 JUMPI PUSH1 0x40 MLOAD PUSH3 0x461BCD PUSH1 0xE5 SHL DUP2 MSTORE PUSH1 0x20 PUSH1 0x4 DUP3 ADD MSTORE PUSH1 0x29 PUSH1 0x24 DUP3 ADD MSTORE PUSH32 0x50523A20507265706172696E6720616464206C69717569646974792069732063 PUSH1 0x44 DUP3 ADD MSTORE PUSH32 0x6F6D706C65746564210000000000000000000000000000000000000000000000 PUSH1 0x64 DUP3 ADD MSTORE PUSH1 0x84 ADD PUSH2 0xE54 JUMP JUMPDEST PUSH1 0x0 SELFBALANCE GT PUSH2 0x1FBF JUMPI PUSH1 0x40 MLOAD PUSH3 0x461BCD PUSH1 0xE5 SHL DUP2 MSTORE PUSH1 0x20 PUSH1 0x4 DUP3 ADD MSTORE PUSH1 0x2B PUSH1 0x24 DUP3 ADD MSTORE PUSH32 0x50523A2045746865722062616C616E6365206D757374206265206C6172676572 PUSH1 0x44 DUP3 ADD MSTORE PUSH32 0x207468616E207A65726F21000000000000000000000000000000000000000000 PUSH1 0x64 DUP3 ADD MSTORE PUSH1 0x84 ADD PUSH2 0xE54 JUMP JUMPDEST PUSH1 0x15 SLOAD PUSH1 0x40 DUP1 MLOAD PUSH32 0xD0E30DB000000000000000000000000000000000000000000000000000000000 DUP2 MSTORE SWAP1 MLOAD PUSH1 0x1 PUSH1 0x1 PUSH1 0xA0 SHL SUB SWAP1 SWAP3 AND SWAP2 DUP3 SWAP2 PUSH4 0xD0E30DB0 SWAP2 SELFBALANCE SWAP2 PUSH1 0x4 DUP1 DUP3 ADD SWAP3 PUSH1 0x0 SWAP3 SWAP1 SWAP2 SWAP1 DUP3 SWAP1 SUB ADD DUP2 DUP6 DUP9 DUP1 EXTCODESIZE ISZERO DUP1 ISZERO PUSH2 0x2022 JUMPI PUSH1 0x0 DUP1 REVERT JUMPDEST POP GAS CALL ISZERO DUP1 ISZERO PUSH2 0x2036 JUMPI RETURNDATASIZE PUSH1 0x0 DUP1 RETURNDATACOPY RETURNDATASIZE PUSH1 0x0 REVERT JUMPDEST POP POP PUSH1 0x18 SLOAD PUSH1 0x15 SLOAD PUSH1 0x16 SLOAD PUSH1 0x40 MLOAD PUSH4 0xE6A43905 PUSH1 0xE0 SHL DUP2 MSTORE PUSH1 0x1 PUSH1 0x1 PUSH1 0xA0 SHL SUB SWAP3 DUP4 AND PUSH1 0x4 DUP3 ADD MSTORE SWAP1 DUP3 AND PUSH1 0x24 DUP3 ADD MSTORE PUSH1 0x0 SWAP6 POP SWAP2 AND SWAP3 POP PUSH4 0xE6A43905 SWAP2 POP PUSH1 0x44 ADD PUSH1 0x20 PUSH1 0x40 MLOAD DUP1 DUP4 SUB DUP2 DUP7 DUP1 EXTCODESIZE ISZERO DUP1 ISZERO PUSH2 0x2090 JUMPI PUSH1 0x0 DUP1 REVERT JUMPDEST POP GAS STATICCALL ISZERO DUP1 ISZERO PUSH2 0x20A4 JUMPI RETURNDATASIZE PUSH1 0x0 DUP1 RETURNDATACOPY RETURNDATASIZE PUSH1 0x0 REVERT JUMPDEST POP POP POP POP PUSH1 0x40 MLOAD RETURNDATASIZE PUSH1 0x1F NOT PUSH1 0x1F DUP3 ADD AND DUP3 ADD DUP1 PUSH1 0x40 MSTORE POP DUP2 ADD SWAP1 PUSH2 0x20C8 SWAP2 SWAP1 PUSH2 0x4C6B JUMP JUMPDEST PUSH1 0x40 MLOAD PUSH4 0x70A08231 PUSH1 0xE0 SHL DUP2 MSTORE ADDRESS PUSH1 0x4 DUP3 ADD MSTORE SWAP1 SWAP2 POP PUSH1 0x0 SWAP1 PUSH1 0x1 PUSH1 0x1 PUSH1 0xA0 SHL SUB DUP5 AND SWAP1 PUSH4 0x70A08231 SWAP1 PUSH1 0x24 ADD PUSH1 0x20 PUSH1 0x40 MLOAD DUP1 DUP4 SUB DUP2 DUP7 DUP1 EXTCODESIZE ISZERO DUP1 ISZERO PUSH2 0x210D JUMPI PUSH1 0x0 DUP1 REVERT JUMPDEST POP GAS STATICCALL ISZERO DUP1 ISZERO PUSH2 0x2121 JUMPI RETURNDATASIZE PUSH1 0x0 DUP1 RETURNDATACOPY RETURNDATASIZE PUSH1 0x0 REVERT JUMPDEST POP POP POP POP PUSH1 0x40 MLOAD RETURNDATASIZE PUSH1 0x1F NOT PUSH1 0x1F DUP3 ADD AND DUP3 ADD DUP1 PUSH1 0x40 MSTORE POP DUP2 ADD SWAP1 PUSH2 0x2145 SWAP2 SWAP1 PUSH2 0x4DA7 JUMP JUMPDEST PUSH1 0x40 MLOAD PUSH4 0xA9059CBB PUSH1 0xE0 SHL DUP2 MSTORE PUSH1 0x1 PUSH1 0x1 PUSH1 0xA0 SHL SUB DUP5 DUP2 AND PUSH1 0x4 DUP4 ADD MSTORE PUSH1 0x24 DUP3 ADD DUP4 SWAP1 MSTORE SWAP2 SWAP3 POP SWAP1 DUP5 AND SWAP1 PUSH4 0xA9059CBB SWAP1 PUSH1 0x44 ADD PUSH1 0x20 PUSH1 0x40 MLOAD DUP1 DUP4 SUB DUP2 PUSH1 0x0 DUP8 DUP1 EXTCODESIZE ISZERO DUP1 ISZERO PUSH2 0x2193 JUMPI PUSH1 0x0 DUP1 REVERT JUMPDEST POP GAS CALL ISZERO DUP1 ISZERO PUSH2 0x21A7 JUMPI RETURNDATASIZE PUSH1 0x0 DUP1 RETURNDATACOPY RETURNDATASIZE PUSH1 0x0 REVERT JUMPDEST POP POP POP POP PUSH1 0x40 MLOAD RETURNDATASIZE PUSH1 0x1F NOT PUSH1 0x1F DUP3 ADD AND DUP3 ADD DUP1 PUSH1 0x40 MSTORE POP DUP2 ADD SWAP1 PUSH2 0x21CB SWAP2 SWAP1 PUSH2 0x4CF7 JUMP JUMPDEST POP PUSH1 0x0 DUP3 SWAP1 POP PUSH1 0x0 DUP1 DUP3 PUSH1 0x1 PUSH1 0x1 PUSH1 0xA0 SHL SUB AND PUSH4 0x902F1AC PUSH1 0x40 MLOAD DUP2 PUSH4 0xFFFFFFFF AND PUSH1 0xE0 SHL DUP2 MSTORE PUSH1 0x4 ADD PUSH1 0x60 PUSH1 0x40 MLOAD DUP1 DUP4 SUB DUP2 DUP7 DUP1 EXTCODESIZE ISZERO DUP1 ISZERO PUSH2 0x220D JUMPI PUSH1 0x0 DUP1 REVERT JUMPDEST POP GAS STATICCALL ISZERO DUP1 ISZERO PUSH2 0x2221 JUMPI RETURNDATASIZE PUSH1 0x0 DUP1 RETURNDATACOPY RETURNDATASIZE PUSH1 0x0 REVERT JUMPDEST POP POP POP POP PUSH1 0x40 MLOAD RETURNDATASIZE PUSH1 0x1F NOT PUSH1 0x1F DUP3 ADD AND DUP3 ADD DUP1 PUSH1 0x40 MSTORE POP DUP2 ADD SWAP1 PUSH2 0x2245 SWAP2 SWAP1 PUSH2 0x4DEA JUMP JUMPDEST POP PUSH1 0x15 SLOAD PUSH1 0x16 SLOAD SWAP3 SWAP5 POP SWAP1 SWAP3 POP PUSH1 0x1 PUSH1 0x1 PUSH1 0xA0 SHL SUB SWAP1 DUP2 AND SWAP2 AND GT ISZERO PUSH2 0x2267 JUMPI SWAP1 JUMPDEST PUSH1 0x0 PUSH2 0x2275 DUP6 PUSH2 0x3E5 PUSH2 0x517F JUMP JUMPDEST SWAP1 POP PUSH1 0x0 DUP2 PUSH2 0x2286 DUP6 PUSH2 0x3E8 PUSH2 0x517F JUMP JUMPDEST PUSH2 0x2290 SWAP2 SWAP1 PUSH2 0x5147 JUMP JUMPDEST PUSH2 0x229A DUP5 DUP5 PUSH2 0x517F JUMP JUMPDEST PUSH2 0x22A4 SWAP2 SWAP1 PUSH2 0x515F JUMP JUMPDEST PUSH1 0x15 SLOAD PUSH1 0x16 SLOAD SWAP2 SWAP3 POP PUSH1 0x0 SWAP2 DUP3 SWAP2 PUSH1 0x1 PUSH1 0x1 PUSH1 0xA0 SHL SUB SWAP1 DUP2 AND SWAP2 AND GT PUSH2 0x22CC JUMPI DUP3 PUSH1 0x0 PUSH2 0x22D0 JUMP JUMPDEST PUSH1 0x0 DUP4 JUMPDEST PUSH1 0x40 DUP1 MLOAD PUSH1 0x0 DUP2 MSTORE PUSH1 0x20 DUP2 ADD SWAP2 DUP3 SWAP1 MSTORE PUSH32 0x22C0D9F00000000000000000000000000000000000000000000000000000000 SWAP1 SWAP2 MSTORE SWAP2 SWAP4 POP SWAP2 POP PUSH1 0x1 PUSH1 0x1 PUSH1 0xA0 SHL SUB DUP9 AND SWAP1 PUSH4 0x22C0D9F SWAP1 PUSH2 0x232D SWAP1 DUP6 SWAP1 DUP6 SWAP1 ADDRESS SWAP1 PUSH1 0x24 DUP2 ADD PUSH2 0x510F JUMP JUMPDEST PUSH1 0x0 PUSH1 0x40 MLOAD DUP1 DUP4 SUB DUP2 PUSH1 0x0 DUP8 DUP1 EXTCODESIZE ISZERO DUP1 ISZERO PUSH2 0x2347 JUMPI PUSH1 0x0 DUP1 REVERT JUMPDEST POP GAS CALL ISZERO DUP1 ISZERO PUSH2 0x235B JUMPI RETURNDATASIZE PUSH1 0x0 DUP1 RETURNDATACOPY RETURNDATASIZE PUSH1 0x0 REVERT JUMPDEST POP POP POP POP PUSH2 0x2369 PUSH1 0x2 PUSH2 0x40DC JUMP JUMPDEST POP POP POP POP POP POP POP POP POP POP POP JUMP JUMPDEST PUSH1 0x40 DUP1 MLOAD PUSH1 0x60 DUP2 ADD DUP3 MSTORE PUSH1 0x0 DUP1 DUP3 MSTORE PUSH1 0x20 DUP1 DUP4 ADD DUP3 SWAP1 MSTORE DUP3 DUP5 ADD DUP3 SWAP1 MSTORE PUSH1 0x1 PUSH1 0x1 PUSH1 0xA0 SHL SUB DUP6 AND DUP3 MSTORE PUSH1 0x3 SWAP1 MSTORE SWAP2 SWAP1 SWAP2 KECCAK256 SLOAD PUSH1 0x4 SWAP1 PUSH2 0x23B7 SWAP1 PUSH1 0x1 SWAP1 PUSH2 0x519E JUMP JUMPDEST DUP2 SLOAD DUP2 LT PUSH2 0x1BA1 JUMPI PUSH4 0x4E487B71 PUSH1 0xE0 SHL PUSH1 0x0 MSTORE PUSH1 0x32 PUSH1 0x4 MSTORE PUSH1 0x24 PUSH1 0x0 REVERT JUMPDEST PUSH1 0x0 DUP1 JUMPDEST PUSH1 0x8 SLOAD DUP2 LT ISZERO PUSH2 0x2491 JUMPI PUSH1 0x1 PUSH1 0x6 PUSH1 0x1 PUSH1 0x5 PUSH1 0x0 PUSH1 0x8 DUP7 DUP2 SLOAD DUP2 LT PUSH2 0x240E JUMPI PUSH4 0x4E487B71 PUSH1 0xE0 SHL PUSH1 0x0 MSTORE PUSH1 0x32 PUSH1 0x4 MSTORE PUSH1 0x24 PUSH1 0x0 REVERT JUMPDEST PUSH1 0x0 SWAP2 DUP3 MSTORE PUSH1 0x20 DUP1 DUP4 KECCAK256 PUSH1 0x2 SWAP1 SWAP3 MUL SWAP1 SWAP2 ADD SLOAD PUSH1 0x1 PUSH1 0x1 PUSH1 0xA0 SHL SUB AND DUP4 MSTORE DUP3 ADD SWAP3 SWAP1 SWAP3 MSTORE PUSH1 0x40 ADD SWAP1 KECCAK256 SLOAD PUSH2 0x2442 SWAP2 SWAP1 PUSH2 0x519E JUMP JUMPDEST DUP2 SLOAD DUP2 LT PUSH2 0x2460 JUMPI PUSH4 0x4E487B71 PUSH1 0xE0 SHL PUSH1 0x0 MSTORE PUSH1 0x32 PUSH1 0x4 MSTORE PUSH1 0x24 PUSH1 0x0 REVERT JUMPDEST SWAP1 PUSH1 0x0 MSTORE PUSH1 0x20 PUSH1 0x0 KECCAK256 SWAP1 PUSH1 0x5 MUL ADD PUSH1 0x1 ADD SLOAD GT PUSH2 0x247F JUMPI PUSH1 0x0 SWAP2 POP POP SWAP1 JUMP JUMPDEST DUP1 PUSH2 0x2489 DUP2 PUSH2 0x5233 JUMP JUMPDEST SWAP2 POP POP PUSH2 0x23D9 JUMP JUMPDEST POP PUSH1 0x0 JUMPDEST PUSH1 0x4 SLOAD DUP2 LT ISZERO PUSH2 0x254D JUMPI PUSH1 0x1 PUSH1 0x6 PUSH1 0x1 PUSH1 0x5 PUSH1 0x0 PUSH1 0x4 DUP7 DUP2 SLOAD DUP2 LT PUSH2 0x24CA JUMPI PUSH4 0x4E487B71 PUSH1 0xE0 SHL PUSH1 0x0 MSTORE PUSH1 0x32 PUSH1 0x4 MSTORE PUSH1 0x24 PUSH1 0x0 REVERT JUMPDEST PUSH1 0x0 SWAP2 DUP3 MSTORE PUSH1 0x20 DUP1 DUP4 KECCAK256 PUSH1 0x3 SWAP1 SWAP3 MUL SWAP1 SWAP2 ADD SLOAD PUSH1 0x1 PUSH1 0x1 PUSH1 0xA0 SHL SUB AND DUP4 MSTORE DUP3 ADD SWAP3 SWAP1 SWAP3 MSTORE PUSH1 0x40 ADD SWAP1 KECCAK256 SLOAD PUSH2 0x24FE SWAP2 SWAP1 PUSH2 0x519E JUMP JUMPDEST DUP2 SLOAD DUP2 LT PUSH2 0x251C JUMPI PUSH4 0x4E487B71 PUSH1 0xE0 SHL PUSH1 0x0 MSTORE PUSH1 0x32 PUSH1 0x4 MSTORE PUSH1 0x24 PUSH1 0x0 REVERT JUMPDEST SWAP1 PUSH1 0x0 MSTORE PUSH1 0x20 PUSH1 0x0 KECCAK256 SWAP1 PUSH1 0x5 MUL ADD PUSH1 0x1 ADD SLOAD GT PUSH2 0x253B JUMPI PUSH1 0x0 SWAP2 POP POP SWAP1 JUMP JUMPDEST DUP1 PUSH2 0x2545 DUP2 PUSH2 0x5233 JUMP JUMPDEST SWAP2 POP POP PUSH2 0x2495 JUMP JUMPDEST POP PUSH1 0x1 SWAP1 POP SWAP1 JUMP JUMPDEST PUSH1 0x8 DUP2 DUP2 SLOAD DUP2 LT PUSH2 0x2565 JUMPI PUSH1 0x0 DUP1 REVERT JUMPDEST PUSH1 0x0 SWAP2 DUP3 MSTORE PUSH1 0x20 SWAP1 SWAP2 KECCAK256 PUSH1 0x2 SWAP1 SWAP2 MUL ADD DUP1 SLOAD PUSH1 0x1 SWAP1 SWAP2 ADD SLOAD PUSH1 0x1 PUSH1 0x1 PUSH1 0xA0 SHL SUB SWAP1 SWAP2 AND SWAP2 POP DUP3 JUMP JUMPDEST PUSH1 0x60 DUP3 PUSH1 0x0 PUSH2 0x259C DUP5 DUP4 PUSH2 0x5147 JUMP JUMPDEST PUSH1 0x4 SLOAD SWAP1 SWAP2 POP DUP2 GT PUSH2 0x25AE JUMPI DUP1 PUSH2 0x25B2 JUMP JUMPDEST PUSH1 0x4 SLOAD JUMPDEST SWAP1 POP PUSH1 0x0 DUP3 DUP3 GT PUSH2 0x25C4 JUMPI PUSH1 0x0 PUSH2 0x25CE JUMP JUMPDEST PUSH2 0x25CE DUP4 DUP4 PUSH2 0x519E JUMP JUMPDEST SWAP1 POP PUSH1 0x0 DUP2 PUSH8 0xFFFFFFFFFFFFFFFF DUP2 GT ISZERO PUSH2 0x25F9 JUMPI PUSH4 0x4E487B71 PUSH1 0xE0 SHL PUSH1 0x0 MSTORE PUSH1 0x41 PUSH1 0x4 MSTORE PUSH1 0x24 PUSH1 0x0 REVERT JUMPDEST PUSH1 0x40 MLOAD SWAP1 DUP1 DUP3 MSTORE DUP1 PUSH1 0x20 MUL PUSH1 0x20 ADD DUP3 ADD PUSH1 0x40 MSTORE DUP1 ISZERO PUSH2 0x2644 JUMPI DUP2 PUSH1 0x20 ADD JUMPDEST PUSH1 0x40 DUP1 MLOAD PUSH1 0x60 DUP2 ADD DUP3 MSTORE PUSH1 0x0 DUP1 DUP3 MSTORE PUSH1 0x20 DUP1 DUP4 ADD DUP3 SWAP1 MSTORE SWAP3 DUP3 ADD MSTORE DUP3 MSTORE PUSH1 0x0 NOT SWAP1 SWAP3 ADD SWAP2 ADD DUP2 PUSH2 0x2617 JUMPI SWAP1 POP JUMPDEST POP SWAP1 POP DUP4 JUMPDEST DUP4 DUP2 LT ISZERO PUSH2 0x26FF JUMPI PUSH1 0x4 DUP2 DUP2 SLOAD DUP2 LT PUSH2 0x2672 JUMPI PUSH4 0x4E487B71 PUSH1 0xE0 SHL PUSH1 0x0 MSTORE PUSH1 0x32 PUSH1 0x4 MSTORE PUSH1 0x24 PUSH1 0x0 REVERT JUMPDEST PUSH1 0x0 SWAP2 DUP3 MSTORE PUSH1 0x20 SWAP2 DUP3 SWAP1 KECCAK256 PUSH1 0x40 DUP1 MLOAD PUSH1 0x60 DUP2 ADD DUP3 MSTORE PUSH1 0x3 SWAP1 SWAP4 MUL SWAP1 SWAP2 ADD DUP1 SLOAD PUSH1 0x1 PUSH1 0x1 PUSH1 0xA0 SHL SUB SWAP1 DUP2 AND DUP5 MSTORE PUSH1 0x1 DUP3 ADD SLOAD AND SWAP4 DUP4 ADD SWAP4 SWAP1 SWAP4 MSTORE PUSH1 0x2 SWAP1 SWAP3 ADD SLOAD SWAP2 DUP2 ADD SWAP2 SWAP1 SWAP2 MSTORE DUP3 PUSH2 0x26C3 DUP8 DUP5 PUSH2 0x519E JUMP JUMPDEST DUP2 MLOAD DUP2 LT PUSH2 0x26E1 JUMPI PUSH4 0x4E487B71 PUSH1 0xE0 SHL PUSH1 0x0 MSTORE PUSH1 0x32 PUSH1 0x4 MSTORE PUSH1 0x24 PUSH1 0x0 REVERT JUMPDEST PUSH1 0x20 MUL PUSH1 0x20 ADD ADD DUP2 SWAP1 MSTORE POP DUP1 DUP1 PUSH2 0x26F7 SWAP1 PUSH2 0x5233 JUMP JUMPDEST SWAP2 POP POP PUSH2 0x2649 JUMP JUMPDEST POP SWAP7 SWAP6 POP POP POP POP POP POP JUMP JUMPDEST PUSH1 0x0 DUP3 DUP2 MSTORE PUSH1 0x1 PUSH1 0x20 MSTORE PUSH1 0x40 DUP2 KECCAK256 PUSH2 0x2722 SWAP1 DUP4 PUSH2 0x45E2 JUMP JUMPDEST SWAP4 SWAP3 POP POP POP JUMP JUMPDEST PUSH1 0x0 PUSH2 0x2735 DUP2 CALLER PUSH2 0x405E JUMP JUMPDEST PUSH1 0x4 PUSH1 0x2 SLOAD PUSH1 0xFF AND PUSH1 0x7 DUP2 GT ISZERO PUSH2 0x275C JUMPI PUSH4 0x4E487B71 PUSH1 0xE0 SHL PUSH1 0x0 MSTORE PUSH1 0x21 PUSH1 0x4 MSTORE PUSH1 0x24 PUSH1 0x0 REVERT JUMPDEST EQ PUSH2 0x27CF JUMPI PUSH1 0x40 MLOAD PUSH3 0x461BCD PUSH1 0xE5 SHL DUP2 MSTORE PUSH1 0x20 PUSH1 0x4 DUP3 ADD MSTORE PUSH1 0x34 PUSH1 0x24 DUP3 ADD MSTORE PUSH32 0x50523A20546F6B656E6F6D69637320746F6B656E73206861766520616C726561 PUSH1 0x44 DUP3 ADD MSTORE PUSH32 0x6479206265656E20646973747269627574656421000000000000000000000000 PUSH1 0x64 DUP3 ADD MSTORE PUSH1 0x84 ADD PUSH2 0xE54 JUMP JUMPDEST PUSH1 0x0 JUMPDEST PUSH1 0xA SLOAD DUP2 LT ISZERO PUSH2 0x29BD JUMPI PUSH1 0x6 PUSH1 0x40 MLOAD DUP1 PUSH1 0xA0 ADD PUSH1 0x40 MSTORE DUP1 PUSH1 0xA DUP5 DUP2 SLOAD DUP2 LT PUSH2 0x280A JUMPI PUSH4 0x4E487B71 PUSH1 0xE0 SHL PUSH1 0x0 MSTORE PUSH1 0x32 PUSH1 0x4 MSTORE PUSH1 0x24 PUSH1 0x0 REVERT JUMPDEST PUSH1 0x0 SWAP2 DUP3 MSTORE PUSH1 0x20 SWAP2 DUP3 SWAP1 KECCAK256 PUSH1 0x5 SWAP1 SWAP2 MUL ADD SLOAD PUSH1 0x1 PUSH1 0x1 PUSH1 0xA0 SHL SUB AND DUP3 MSTORE PUSH1 0xA DUP1 SLOAD SWAP3 SWAP1 SWAP2 ADD SWAP2 PUSH3 0xF4240 SWAP2 SWAP1 DUP7 SWAP1 DUP2 LT PUSH2 0x2854 JUMPI PUSH4 0x4E487B71 PUSH1 0xE0 SHL PUSH1 0x0 MSTORE PUSH1 0x32 PUSH1 0x4 MSTORE PUSH1 0x24 PUSH1 0x0 REVERT JUMPDEST SWAP1 PUSH1 0x0 MSTORE PUSH1 0x20 PUSH1 0x0 KECCAK256 SWAP1 PUSH1 0x5 MUL ADD PUSH1 0x2 ADD SLOAD PUSH1 0x11 SLOAD PUSH2 0x2873 SWAP2 SWAP1 PUSH2 0x517F JUMP JUMPDEST PUSH2 0x287D SWAP2 SWAP1 PUSH2 0x515F JUMP JUMPDEST DUP2 MSTORE PUSH1 0x20 ADD PUSH1 0x0 DUP2 MSTORE PUSH1 0x20 ADD PUSH1 0xA DUP5 DUP2 SLOAD DUP2 LT PUSH2 0x28AA JUMPI PUSH4 0x4E487B71 PUSH1 0xE0 SHL PUSH1 0x0 MSTORE PUSH1 0x32 PUSH1 0x4 MSTORE PUSH1 0x24 PUSH1 0x0 REVERT JUMPDEST SWAP1 PUSH1 0x0 MSTORE PUSH1 0x20 PUSH1 0x0 KECCAK256 SWAP1 PUSH1 0x5 MUL ADD PUSH1 0x3 ADD SLOAD TIMESTAMP PUSH2 0x28C7 SWAP2 SWAP1 PUSH2 0x5147 JUMP JUMPDEST DUP2 MSTORE PUSH1 0x20 ADD PUSH1 0xA DUP5 DUP2 SLOAD DUP2 LT PUSH2 0x28ED JUMPI PUSH4 0x4E487B71 PUSH1 0xE0 SHL PUSH1 0x0 MSTORE PUSH1 0x32 PUSH1 0x4 MSTORE PUSH1 0x24 PUSH1 0x0 REVERT JUMPDEST SWAP1 PUSH1 0x0 MSTORE PUSH1 0x20 PUSH1 0x0 KECCAK256 SWAP1 PUSH1 0x5 MUL ADD PUSH1 0x4 ADD SLOAD PUSH1 0xA DUP6 DUP2 SLOAD DUP2 LT PUSH2 0x2920 JUMPI PUSH4 0x4E487B71 PUSH1 0xE0 SHL PUSH1 0x0 MSTORE PUSH1 0x32 PUSH1 0x4 MSTORE PUSH1 0x24 PUSH1 0x0 REVERT JUMPDEST SWAP1 PUSH1 0x0 MSTORE PUSH1 0x20 PUSH1 0x0 KECCAK256 SWAP1 PUSH1 0x5 MUL ADD PUSH1 0x3 ADD SLOAD TIMESTAMP PUSH2 0x293D SWAP2 SWAP1 PUSH2 0x5147 JUMP JUMPDEST PUSH2 0x2947 SWAP2 SWAP1 PUSH2 0x5147 JUMP JUMPDEST SWAP1 MSTORE DUP2 SLOAD PUSH1 0x1 DUP1 DUP3 ADD DUP5 SSTORE PUSH1 0x0 SWAP4 DUP5 MSTORE PUSH1 0x20 SWAP4 DUP5 SWAP1 KECCAK256 DUP4 MLOAD PUSH1 0x5 SWAP1 SWAP4 MUL ADD DUP1 SLOAD PUSH1 0x1 PUSH1 0x1 PUSH1 0xA0 SHL SUB NOT AND PUSH1 0x1 PUSH1 0x1 PUSH1 0xA0 SHL SUB SWAP1 SWAP4 AND SWAP3 SWAP1 SWAP3 OR DUP3 SSTORE SWAP3 DUP3 ADD MLOAD SWAP3 DUP2 ADD SWAP3 SWAP1 SWAP3 SSTORE PUSH1 0x40 DUP2 ADD MLOAD PUSH1 0x2 DUP4 ADD SSTORE PUSH1 0x60 DUP2 ADD MLOAD PUSH1 0x3 DUP4 ADD SSTORE PUSH1 0x80 ADD MLOAD PUSH1 0x4 SWAP1 SWAP2 ADD SSTORE DUP1 PUSH2 0x29B5 DUP2 PUSH2 0x5233 JUMP JUMPDEST SWAP2 POP POP PUSH2 0x27D2 JUMP JUMPDEST POP POP JUMP JUMPDEST PUSH1 0x0 PUSH2 0x29CD DUP2 CALLER PUSH2 0x405E JUMP JUMPDEST POP PUSH1 0x13 DUP1 SLOAD PUSH1 0x1 PUSH1 0x1 PUSH1 0xA0 SHL SUB NOT AND PUSH1 0x1 PUSH1 0x1 PUSH1 0xA0 SHL SUB SWAP3 SWAP1 SWAP3 AND SWAP2 SWAP1 SWAP2 OR SWAP1 SSTORE JUMP JUMPDEST PUSH1 0x0 PUSH2 0x29FC DUP2 CALLER PUSH2 0x405E JUMP JUMPDEST PUSH1 0x4 PUSH1 0x2 SLOAD PUSH1 0xFF AND PUSH1 0x7 DUP2 GT ISZERO PUSH2 0x2A23 JUMPI PUSH4 0x4E487B71 PUSH1 0xE0 SHL PUSH1 0x0 MSTORE PUSH1 0x21 PUSH1 0x4 MSTORE PUSH1 0x24 PUSH1 0x0 REVERT JUMPDEST EQ PUSH2 0x2A96 JUMPI PUSH1 0x40 MLOAD PUSH3 0x461BCD PUSH1 0xE5 SHL DUP2 MSTORE PUSH1 0x20 PUSH1 0x4 DUP3 ADD MSTORE PUSH1 0x33 PUSH1 0x24 DUP3 ADD MSTORE PUSH32 0x50523A20526566657272616C7320746F6B656E73206861766520616C72656164 PUSH1 0x44 DUP3 ADD MSTORE PUSH32 0x79206265656E2064697374726962757465642100000000000000000000000000 PUSH1 0x64 DUP3 ADD MSTORE PUSH1 0x84 ADD PUSH2 0xE54 JUMP JUMPDEST PUSH1 0x0 PUSH2 0x2AA2 DUP5 DUP5 PUSH2 0x35B4 JUMP JUMPDEST SWAP1 POP PUSH1 0x0 JUMPDEST DUP2 MLOAD DUP2 LT ISZERO PUSH2 0x10BF JUMPI PUSH1 0x1 PUSH1 0x6 PUSH1 0x1 PUSH1 0x5 PUSH1 0x0 DUP7 DUP7 DUP2 MLOAD DUP2 LT PUSH2 0x2ADA JUMPI PUSH4 0x4E487B71 PUSH1 0xE0 SHL PUSH1 0x0 MSTORE PUSH1 0x32 PUSH1 0x4 MSTORE PUSH1 0x24 PUSH1 0x0 REVERT JUMPDEST PUSH1 0x20 MUL PUSH1 0x20 ADD ADD MLOAD PUSH1 0x0 ADD MLOAD PUSH1 0x1 PUSH1 0x1 PUSH1 0xA0 SHL SUB AND PUSH1 0x1 PUSH1 0x1 PUSH1 0xA0 SHL SUB AND DUP2 MSTORE PUSH1 0x20 ADD SWAP1 DUP2 MSTORE PUSH1 0x20 ADD PUSH1 0x0 KECCAK256 SLOAD PUSH2 0x2B11 SWAP2 SWAP1 PUSH2 0x519E JUMP JUMPDEST DUP2 SLOAD DUP2 LT PUSH2 0x2B2F JUMPI PUSH4 0x4E487B71 PUSH1 0xE0 SHL PUSH1 0x0 MSTORE PUSH1 0x32 PUSH1 0x4 MSTORE PUSH1 0x24 PUSH1 0x0 REVERT JUMPDEST SWAP1 PUSH1 0x0 MSTORE PUSH1 0x20 PUSH1 0x0 KECCAK256 SWAP1 PUSH1 0x5 MUL ADD PUSH1 0x1 ADD SLOAD GT PUSH2 0x2CE6 JUMPI PUSH1 0x40 MLOAD DUP1 PUSH1 0xA0 ADD PUSH1 0x40 MSTORE DUP1 DUP4 DUP4 DUP2 MLOAD DUP2 LT PUSH2 0x2B71 JUMPI PUSH4 0x4E487B71 PUSH1 0xE0 SHL PUSH1 0x0 MSTORE PUSH1 0x32 PUSH1 0x4 MSTORE PUSH1 0x24 PUSH1 0x0 REVERT JUMPDEST PUSH1 0x20 MUL PUSH1 0x20 ADD ADD MLOAD PUSH1 0x0 ADD MLOAD PUSH1 0x1 PUSH1 0x1 PUSH1 0xA0 SHL SUB AND DUP2 MSTORE PUSH1 0x20 ADD PUSH1 0xC SLOAD PUSH1 0x10 SLOAD DUP6 DUP6 DUP2 MLOAD DUP2 LT PUSH2 0x2BB1 JUMPI PUSH4 0x4E487B71 PUSH1 0xE0 SHL PUSH1 0x0 MSTORE PUSH1 0x32 PUSH1 0x4 MSTORE PUSH1 0x24 PUSH1 0x0 REVERT JUMPDEST PUSH1 0x20 MUL PUSH1 0x20 ADD ADD MLOAD PUSH1 0x20 ADD MLOAD PUSH2 0x2BC7 SWAP2 SWAP1 PUSH2 0x517F JUMP JUMPDEST PUSH2 0x2BD1 SWAP2 SWAP1 PUSH2 0x515F JUMP JUMPDEST DUP2 MSTORE PUSH1 0x20 ADD PUSH1 0x0 DUP2 MSTORE PUSH1 0x20 ADD PUSH1 0x22 SLOAD TIMESTAMP PUSH2 0x2BEB SWAP2 SWAP1 PUSH2 0x5147 JUMP JUMPDEST DUP2 MSTORE PUSH1 0x20 ADD PUSH1 0x23 SLOAD PUSH1 0x22 SLOAD TIMESTAMP PUSH2 0x2C01 SWAP2 SWAP1 PUSH2 0x5147 JUMP JUMPDEST PUSH2 0x2C0B SWAP2 SWAP1 PUSH2 0x5147 JUMP JUMPDEST DUP2 MSTORE POP PUSH1 0x6 PUSH1 0x1 PUSH1 0x5 PUSH1 0x0 DUP7 DUP7 DUP2 MLOAD DUP2 LT PUSH2 0x2C36 JUMPI PUSH4 0x4E487B71 PUSH1 0xE0 SHL PUSH1 0x0 MSTORE PUSH1 0x32 PUSH1 0x4 MSTORE PUSH1 0x24 PUSH1 0x0 REVERT JUMPDEST PUSH1 0x20 MUL PUSH1 0x20 ADD ADD MLOAD PUSH1 0x0 ADD MLOAD PUSH1 0x1 PUSH1 0x1 PUSH1 0xA0 SHL SUB AND PUSH1 0x1 PUSH1 0x1 PUSH1 0xA0 SHL SUB AND DUP2 MSTORE PUSH1 0x20 ADD SWAP1 DUP2 MSTORE PUSH1 0x20 ADD PUSH1 0x0 KECCAK256 SLOAD PUSH2 0x2C6D SWAP2 SWAP1 PUSH2 0x519E JUMP JUMPDEST DUP2 SLOAD DUP2 LT PUSH2 0x2C8B JUMPI PUSH4 0x4E487B71 PUSH1 0xE0 SHL PUSH1 0x0 MSTORE PUSH1 0x32 PUSH1 0x4 MSTORE PUSH1 0x24 PUSH1 0x0 REVERT JUMPDEST PUSH1 0x0 SWAP2 DUP3 MSTORE PUSH1 0x20 SWAP2 DUP3 SWAP1 KECCAK256 DUP4 MLOAD PUSH1 0x5 SWAP3 SWAP1 SWAP3 MUL ADD DUP1 SLOAD PUSH1 0x1 PUSH1 0x1 PUSH1 0xA0 SHL SUB NOT AND PUSH1 0x1 PUSH1 0x1 PUSH1 0xA0 SHL SUB SWAP1 SWAP3 AND SWAP2 SWAP1 SWAP2 OR DUP2 SSTORE SWAP1 DUP3 ADD MLOAD PUSH1 0x1 DUP3 ADD SSTORE PUSH1 0x40 DUP3 ADD MLOAD PUSH1 0x2 DUP3 ADD SSTORE PUSH1 0x60 DUP3 ADD MLOAD PUSH1 0x3 DUP3 ADD SSTORE PUSH1 0x80 SWAP1 SWAP2 ADD MLOAD PUSH1 0x4 SWAP1 SWAP2 ADD SSTORE JUMPDEST DUP1 PUSH2 0x2CF0 DUP2 PUSH2 0x5233 JUMP JUMPDEST SWAP2 POP POP PUSH2 0x2AA7 JUMP JUMPDEST PUSH1 0x0 PUSH2 0x2D04 DUP2 CALLER PUSH2 0x405E JUMP JUMPDEST PUSH1 0x2 DUP1 SLOAD PUSH1 0xFF AND PUSH1 0x7 DUP2 GT ISZERO PUSH2 0x2D2A JUMPI PUSH4 0x4E487B71 PUSH1 0xE0 SHL PUSH1 0x0 MSTORE PUSH1 0x21 PUSH1 0x4 MSTORE PUSH1 0x24 PUSH1 0x0 REVERT JUMPDEST EQ PUSH2 0x2D77 JUMPI PUSH1 0x40 MLOAD PUSH3 0x461BCD PUSH1 0xE5 SHL DUP2 MSTORE PUSH1 0x20 PUSH1 0x4 DUP3 ADD MSTORE PUSH1 0x1F PUSH1 0x24 DUP3 ADD MSTORE PUSH32 0x50523A204C697175696469747920697320616C72656164792061646465642100 PUSH1 0x44 DUP3 ADD MSTORE PUSH1 0x64 ADD PUSH2 0xE54 JUMP JUMPDEST PUSH1 0x16 SLOAD PUSH1 0x40 MLOAD PUSH4 0x70A08231 PUSH1 0xE0 SHL DUP2 MSTORE ADDRESS PUSH1 0x4 DUP3 ADD MSTORE PUSH1 0x1 PUSH1 0x1 PUSH1 0xA0 SHL SUB SWAP1 SWAP2 AND SWAP1 PUSH1 0x0 SWAP1 DUP3 SWAP1 PUSH4 0x70A08231 SWAP1 PUSH1 0x24 ADD PUSH1 0x20 PUSH1 0x40 MLOAD DUP1 DUP4 SUB DUP2 DUP7 DUP1 EXTCODESIZE ISZERO DUP1 ISZERO PUSH2 0x2DBF JUMPI PUSH1 0x0 DUP1 REVERT JUMPDEST POP GAS STATICCALL ISZERO DUP1 ISZERO PUSH2 0x2DD3 JUMPI RETURNDATASIZE PUSH1 0x0 DUP1 RETURNDATACOPY RETURNDATASIZE PUSH1 0x0 REVERT JUMPDEST POP POP POP POP PUSH1 0x40 MLOAD RETURNDATASIZE PUSH1 0x1F NOT PUSH1 0x1F DUP3 ADD AND DUP3 ADD DUP1 PUSH1 0x40 MSTORE POP DUP2 ADD SWAP1 PUSH2 0x2DF7 SWAP2 SWAP1 PUSH2 0x4DA7 JUMP JUMPDEST SWAP1 POP PUSH1 0x0 PUSH8 0xDE0B6B3A7640000 PUSH1 0x12 SLOAD DUP4 PUSH2 0x2E12 SWAP2 SWAP1 PUSH2 0x517F JUMP JUMPDEST PUSH2 0x2E1C SWAP2 SWAP1 PUSH2 0x515F JUMP JUMPDEST SWAP1 POP PUSH2 0x2E26 PUSH2 0x3249 JUMP JUMPDEST PUSH2 0x2E33 PUSH3 0xF4240 DUP4 PUSH2 0x517F JUMP JUMPDEST PUSH2 0x2E3D SWAP2 SWAP1 PUSH2 0x515F JUMP JUMPDEST PUSH2 0x2E48 SWAP1 PUSH1 0x1 PUSH2 0x5147 JUMP JUMPDEST PUSH1 0x11 SSTORE PUSH1 0x10 DUP2 SWAP1 SSTORE PUSH1 0x1A SLOAD PUSH1 0x40 MLOAD PUSH4 0xA9059CBB PUSH1 0xE0 SHL DUP2 MSTORE PUSH1 0x1 PUSH1 0x1 PUSH1 0xA0 SHL SUB SWAP2 DUP3 AND PUSH1 0x4 DUP3 ADD MSTORE PUSH1 0x24 DUP2 ADD DUP5 SWAP1 MSTORE SWAP1 DUP5 AND SWAP1 PUSH4 0xA9059CBB SWAP1 PUSH1 0x44 ADD PUSH1 0x20 PUSH1 0x40 MLOAD DUP1 DUP4 SUB DUP2 PUSH1 0x0 DUP8 DUP1 EXTCODESIZE ISZERO DUP1 ISZERO PUSH2 0x2E9E JUMPI PUSH1 0x0 DUP1 REVERT JUMPDEST POP GAS CALL ISZERO DUP1 ISZERO PUSH2 0x2EB2 JUMPI RETURNDATASIZE PUSH1 0x0 DUP1 RETURNDATACOPY RETURNDATASIZE PUSH1 0x0 REVERT JUMPDEST POP POP POP POP PUSH1 0x40 MLOAD RETURNDATASIZE PUSH1 0x1F NOT PUSH1 0x1F DUP3 ADD AND DUP3 ADD DUP1 PUSH1 0x40 MSTORE POP DUP2 ADD SWAP1 PUSH2 0x2ED6 SWAP2 SWAP1 PUSH2 0x4CF7 JUMP JUMPDEST POP PUSH1 0x13 SLOAD PUSH1 0x1A SLOAD PUSH1 0x40 MLOAD PUSH4 0xBB9FF5D PUSH1 0xE0 SHL DUP2 MSTORE PUSH1 0x1 PUSH1 0x1 PUSH1 0xA0 SHL SUB SWAP2 DUP3 AND PUSH1 0x4 DUP3 ADD MSTORE PUSH1 0x24 DUP2 ADD DUP5 SWAP1 MSTORE SWAP2 AND SWAP1 PUSH4 0xBB9FF5D SWAP1 PUSH1 0x44 ADD PUSH1 0x0 PUSH1 0x40 MLOAD DUP1 DUP4 SUB DUP2 PUSH1 0x0 DUP8 DUP1 EXTCODESIZE ISZERO DUP1 ISZERO PUSH2 0x2F27 JUMPI PUSH1 0x0 DUP1 REVERT JUMPDEST POP GAS CALL ISZERO DUP1 ISZERO PUSH2 0x2F3B JUMPI RETURNDATASIZE PUSH1 0x0 DUP1 RETURNDATACOPY RETURNDATASIZE PUSH1 0x0 REVERT JUMPDEST POP POP PUSH1 0x1A SLOAD PUSH1 0x40 MLOAD PUSH32 0x6A62784200000000000000000000000000000000000000000000000000000000 DUP2 MSTORE ADDRESS PUSH1 0x4 DUP3 ADD MSTORE PUSH1 0x1 PUSH1 0x1 PUSH1 0xA0 SHL SUB SWAP1 SWAP2 AND SWAP3 POP DUP3 SWAP2 POP PUSH4 0x6A627842 SWAP1 PUSH1 0x24 ADD PUSH1 0x20 PUSH1 0x40 MLOAD DUP1 DUP4 SUB DUP2 PUSH1 0x0 DUP8 DUP1 EXTCODESIZE ISZERO DUP1 ISZERO PUSH2 0x2F9F JUMPI PUSH1 0x0 DUP1 REVERT JUMPDEST POP GAS CALL ISZERO DUP1 ISZERO PUSH2 0x2FB3 JUMPI RETURNDATASIZE PUSH1 0x0 DUP1 RETURNDATACOPY RETURNDATASIZE PUSH1 0x0 REVERT JUMPDEST POP POP POP POP PUSH1 0x40 MLOAD RETURNDATASIZE PUSH1 0x1F NOT PUSH1 0x1F DUP3 ADD AND DUP3 ADD DUP1 PUSH1 0x40 MSTORE POP DUP2 ADD SWAP1 PUSH2 0x2FD7 SWAP2 SWAP1 PUSH2 0x4DA7 JUMP JUMPDEST POP PUSH1 0x14 SLOAD PUSH1 0x1 PUSH1 0x1 PUSH1 0xA0 SHL SUB AND ISZERO PUSH2 0x31BC JUMPI PUSH1 0x1A SLOAD PUSH1 0x14 SLOAD PUSH1 0x40 MLOAD PUSH32 0x95EA7B300000000000000000000000000000000000000000000000000000000 DUP2 MSTORE PUSH1 0x1 PUSH1 0x1 PUSH1 0xA0 SHL SUB SWAP2 DUP3 AND PUSH1 0x4 DUP3 ADD MSTORE PUSH1 0x0 NOT PUSH1 0x24 DUP3 ADD MSTORE SWAP2 AND SWAP1 PUSH4 0x95EA7B3 SWAP1 PUSH1 0x44 ADD PUSH1 0x20 PUSH1 0x40 MLOAD DUP1 DUP4 SUB DUP2 PUSH1 0x0 DUP8 DUP1 EXTCODESIZE ISZERO DUP1 ISZERO PUSH2 0x3053 JUMPI PUSH1 0x0 DUP1 REVERT JUMPDEST POP GAS CALL ISZERO DUP1 ISZERO PUSH2 0x3067 JUMPI RETURNDATASIZE PUSH1 0x0 DUP1 RETURNDATACOPY RETURNDATASIZE PUSH1 0x0 REVERT JUMPDEST POP POP POP POP PUSH1 0x40 MLOAD RETURNDATASIZE PUSH1 0x1F NOT PUSH1 0x1F DUP3 ADD AND DUP3 ADD DUP1 PUSH1 0x40 MSTORE POP DUP2 ADD SWAP1 PUSH2 0x308B SWAP2 SWAP1 PUSH2 0x4CF7 JUMP JUMPDEST POP PUSH1 0x14 SLOAD PUSH1 0x1A SLOAD PUSH1 0x1 PUSH1 0x1 PUSH1 0xA0 SHL SUB SWAP2 DUP3 AND SWAP2 PUSH4 0x7D533C1E SWAP2 AND CALLER PUSH1 0x1A SLOAD PUSH1 0x40 MLOAD PUSH4 0x70A08231 PUSH1 0xE0 SHL DUP2 MSTORE ADDRESS PUSH1 0x4 DUP3 ADD MSTORE PUSH1 0x1 PUSH1 0x1 PUSH1 0xA0 SHL SUB SWAP1 SWAP2 AND SWAP1 PUSH4 0x70A08231 SWAP1 PUSH1 0x24 ADD PUSH1 0x20 PUSH1 0x40 MLOAD DUP1 DUP4 SUB DUP2 DUP7 DUP1 EXTCODESIZE ISZERO DUP1 ISZERO PUSH2 0x30E9 JUMPI PUSH1 0x0 DUP1 REVERT JUMPDEST POP GAS STATICCALL ISZERO DUP1 ISZERO PUSH2 0x30FD JUMPI RETURNDATASIZE PUSH1 0x0 DUP1 RETURNDATACOPY RETURNDATASIZE PUSH1 0x0 REVERT JUMPDEST POP POP POP POP PUSH1 0x40 MLOAD RETURNDATASIZE PUSH1 0x1F NOT PUSH1 0x1F DUP3 ADD AND DUP3 ADD DUP1 PUSH1 0x40 MSTORE POP DUP2 ADD SWAP1 PUSH2 0x3121 SWAP2 SWAP1 PUSH2 0x4DA7 JUMP JUMPDEST PUSH1 0x1F SLOAD PUSH2 0x312E SWAP1 TIMESTAMP PUSH2 0x5147 JUMP JUMPDEST PUSH1 0x40 MLOAD PUSH1 0x1 PUSH1 0x1 PUSH1 0xE0 SHL SUB NOT PUSH1 0xE0 DUP8 SWAP1 SHL AND DUP2 MSTORE PUSH1 0x1 PUSH1 0x1 PUSH1 0xA0 SHL SUB SWAP5 DUP6 AND PUSH1 0x4 DUP3 ADD MSTORE SWAP4 SWAP1 SWAP3 AND PUSH1 0x24 DUP5 ADD MSTORE PUSH1 0x44 DUP4 ADD MSTORE PUSH1 0x64 DUP3 ADD MSTORE PUSH1 0x84 ADD PUSH1 0x20 PUSH1 0x40 MLOAD DUP1 DUP4 SUB DUP2 PUSH1 0x0 DUP8 DUP1 EXTCODESIZE ISZERO DUP1 ISZERO PUSH2 0x3182 JUMPI PUSH1 0x0 DUP1 REVERT JUMPDEST POP GAS CALL ISZERO DUP1 ISZERO PUSH2 0x3196 JUMPI RETURNDATASIZE PUSH1 0x0 DUP1 RETURNDATACOPY RETURNDATASIZE PUSH1 0x0 REVERT JUMPDEST POP POP POP POP PUSH1 0x40 MLOAD RETURNDATASIZE PUSH1 0x1F NOT PUSH1 0x1F DUP3 ADD AND DUP3 ADD DUP1 PUSH1 0x40 MSTORE POP DUP2 ADD SWAP1 PUSH2 0x31BA SWAP2 SWAP1 PUSH2 0x4DA7 JUMP JUMPDEST POP JUMPDEST PUSH1 0x13 SLOAD PUSH1 0x11 SLOAD PUSH1 0x1 PUSH1 0x1 PUSH1 0xA0 SHL SUB SWAP1 SWAP2 AND SWAP1 PUSH4 0xBB9FF5D SWAP1 ADDRESS SWAP1 PUSH2 0x31E1 SWAP1 DUP7 SWAP1 PUSH2 0x519E JUMP JUMPDEST PUSH1 0x40 MLOAD PUSH1 0x1 PUSH1 0x1 PUSH1 0xE0 SHL SUB NOT PUSH1 0xE0 DUP6 SWAP1 SHL AND DUP2 MSTORE PUSH1 0x1 PUSH1 0x1 PUSH1 0xA0 SHL SUB SWAP1 SWAP3 AND PUSH1 0x4 DUP4 ADD MSTORE PUSH1 0x24 DUP3 ADD MSTORE PUSH1 0x44 ADD PUSH1 0x0 PUSH1 0x40 MLOAD DUP1 DUP4 SUB DUP2 PUSH1 0x0 DUP8 DUP1 EXTCODESIZE ISZERO DUP1 ISZERO PUSH2 0x3227 JUMPI PUSH1 0x0 DUP1 REVERT JUMPDEST POP GAS CALL ISZERO DUP1 ISZERO PUSH2 0x323B JUMPI RETURNDATASIZE PUSH1 0x0 DUP1 RETURNDATACOPY RETURNDATASIZE PUSH1 0x0 REVERT JUMPDEST POP POP POP POP PUSH2 0x10BF PUSH1 0x4 PUSH2 0x40DC JUMP JUMPDEST PUSH1 0x0 DUP1 PUSH1 0x0 JUMPDEST PUSH1 0xA SLOAD DUP2 LT ISZERO PUSH2 0x32AB JUMPI PUSH1 0xA DUP2 DUP2 SLOAD DUP2 LT PUSH2 0x327A JUMPI PUSH4 0x4E487B71 PUSH1 0xE0 SHL PUSH1 0x0 MSTORE PUSH1 0x32 PUSH1 0x4 MSTORE PUSH1 0x24 PUSH1 0x0 REVERT JUMPDEST SWAP1 PUSH1 0x0 MSTORE PUSH1 0x20 PUSH1 0x0 KECCAK256 SWAP1 PUSH1 0x5 MUL ADD PUSH1 0x2 ADD SLOAD DUP3 PUSH2 0x3297 SWAP2 SWAP1 PUSH2 0x5147 JUMP JUMPDEST SWAP2 POP DUP1 PUSH2 0x32A3 DUP2 PUSH2 0x5233 JUMP JUMPDEST SWAP2 POP POP PUSH2 0x324F JUMP JUMPDEST POP PUSH1 0xB SLOAD PUSH2 0x32BD PUSH3 0xF4240 PUSH1 0x2 PUSH2 0x517F JUMP JUMPDEST PUSH2 0x32C7 SWAP2 SWAP1 PUSH2 0x5147 JUMP JUMPDEST PUSH2 0x32D4 DUP3 PUSH3 0xF4240 PUSH2 0x519E JUMP JUMPDEST PUSH2 0x32E1 SWAP1 PUSH3 0xF4240 PUSH2 0x517F JUMP JUMPDEST PUSH2 0x32EB SWAP2 SWAP1 PUSH2 0x515F JUMP JUMPDEST SWAP2 POP POP SWAP1 JUMP JUMPDEST PUSH1 0x40 DUP1 MLOAD DUP1 DUP3 ADD SWAP1 SWAP2 MSTORE PUSH1 0x0 DUP1 DUP3 MSTORE PUSH1 0x20 DUP3 ADD MSTORE PUSH1 0x1 PUSH1 0x1 PUSH1 0xA0 SHL SUB DUP3 AND PUSH1 0x0 SWAP1 DUP2 MSTORE PUSH1 0x7 PUSH1 0x20 MSTORE PUSH1 0x40 SWAP1 KECCAK256 SLOAD PUSH1 0x8 SWAP1 PUSH2 0x332D SWAP1 PUSH1 0x1 SWAP1 PUSH2 0x519E JUMP JUMPDEST DUP2 SLOAD DUP2 LT PUSH2 0x1E6A JUMPI PUSH4 0x4E487B71 PUSH1 0xE0 SHL PUSH1 0x0 MSTORE PUSH1 0x32 PUSH1 0x4 MSTORE PUSH1 0x24 PUSH1 0x0 REVERT JUMPDEST PUSH1 0x1C DUP1 SLOAD PUSH2 0x1DA2 SWAP1 PUSH2 0x51F8 JUMP JUMPDEST PUSH1 0x0 PUSH2 0x3364 DUP2 CALLER PUSH2 0x405E JUMP JUMPDEST PUSH1 0x0 JUMPDEST PUSH1 0x8 SLOAD DUP2 LT ISZERO PUSH2 0x346F JUMPI PUSH1 0x1 PUSH1 0x6 PUSH1 0x1 PUSH1 0x5 PUSH1 0x0 PUSH1 0x8 DUP7 DUP2 SLOAD DUP2 LT PUSH2 0x339C JUMPI PUSH4 0x4E487B71 PUSH1 0xE0 SHL PUSH1 0x0 MSTORE PUSH1 0x32 PUSH1 0x4 MSTORE PUSH1 0x24 PUSH1 0x0 REVERT JUMPDEST PUSH1 0x0 SWAP2 DUP3 MSTORE PUSH1 0x20 DUP1 DUP4 KECCAK256 PUSH1 0x2 SWAP1 SWAP3 MUL SWAP1 SWAP2 ADD SLOAD PUSH1 0x1 PUSH1 0x1 PUSH1 0xA0 SHL SUB AND DUP4 MSTORE DUP3 ADD SWAP3 SWAP1 SWAP3 MSTORE PUSH1 0x40 ADD SWAP1 KECCAK256 SLOAD PUSH2 0x33D0 SWAP2 SWAP1 PUSH2 0x519E JUMP JUMPDEST DUP2 SLOAD DUP2 LT PUSH2 0x33EE JUMPI PUSH4 0x4E487B71 PUSH1 0xE0 SHL PUSH1 0x0 MSTORE PUSH1 0x32 PUSH1 0x4 MSTORE PUSH1 0x24 PUSH1 0x0 REVERT JUMPDEST SWAP1 PUSH1 0x0 MSTORE PUSH1 0x20 PUSH1 0x0 KECCAK256 SWAP1 PUSH1 0x5 MUL ADD PUSH1 0x1 ADD SLOAD GT PUSH2 0x345D JUMPI PUSH1 0x40 MLOAD PUSH3 0x461BCD PUSH1 0xE5 SHL DUP2 MSTORE PUSH1 0x20 PUSH1 0x4 DUP3 ADD MSTORE PUSH1 0x27 PUSH1 0x24 DUP3 ADD MSTORE PUSH32 0x50523A204E6F7420616C6C20696E766573746F7227732076657374696E672077 PUSH1 0x44 DUP3 ADD MSTORE PUSH7 0x61732073657421 PUSH1 0xC8 SHL PUSH1 0x64 DUP3 ADD MSTORE PUSH1 0x84 ADD PUSH2 0xE54 JUMP JUMPDEST DUP1 PUSH2 0x3467 DUP2 PUSH2 0x5233 JUMP JUMPDEST SWAP2 POP POP PUSH2 0x3367 JUMP JUMPDEST POP PUSH1 0x0 JUMPDEST PUSH1 0x4 SLOAD DUP2 LT ISZERO PUSH2 0x357B JUMPI PUSH1 0x1 PUSH1 0x6 PUSH1 0x1 PUSH1 0x5 PUSH1 0x0 PUSH1 0x4 DUP7 DUP2 SLOAD DUP2 LT PUSH2 0x34A8 JUMPI PUSH4 0x4E487B71 PUSH1 0xE0 SHL PUSH1 0x0 MSTORE PUSH1 0x32 PUSH1 0x4 MSTORE PUSH1 0x24 PUSH1 0x0 REVERT JUMPDEST PUSH1 0x0 SWAP2 DUP3 MSTORE PUSH1 0x20 DUP1 DUP4 KECCAK256 PUSH1 0x3 SWAP1 SWAP3 MUL SWAP1 SWAP2 ADD SLOAD PUSH1 0x1 PUSH1 0x1 PUSH1 0xA0 SHL SUB AND DUP4 MSTORE DUP3 ADD SWAP3 SWAP1 SWAP3 MSTORE PUSH1 0x40 ADD SWAP1 KECCAK256 SLOAD PUSH2 0x34DC SWAP2 SWAP1 PUSH2 0x519E JUMP JUMPDEST DUP2 SLOAD DUP2 LT PUSH2 0x34FA JUMPI PUSH4 0x4E487B71 PUSH1 0xE0 SHL PUSH1 0x0 MSTORE PUSH1 0x32 PUSH1 0x4 MSTORE PUSH1 0x24 PUSH1 0x0 REVERT JUMPDEST SWAP1 PUSH1 0x0 MSTORE PUSH1 0x20 PUSH1 0x0 KECCAK256 SWAP1 PUSH1 0x5 MUL ADD PUSH1 0x1 ADD SLOAD GT PUSH2 0x3569 JUMPI PUSH1 0x40 MLOAD PUSH3 0x461BCD PUSH1 0xE5 SHL DUP2 MSTORE PUSH1 0x20 PUSH1 0x4 DUP3 ADD MSTORE PUSH1 0x27 PUSH1 0x24 DUP3 ADD MSTORE PUSH32 0x50523A204E6F7420616C6C20696E766573746F7227732076657374696E672077 PUSH1 0x44 DUP3 ADD MSTORE PUSH7 0x61732073657421 PUSH1 0xC8 SHL PUSH1 0x64 DUP3 ADD MSTORE PUSH1 0x84 ADD PUSH2 0xE54 JUMP JUMPDEST DUP1 PUSH2 0x3573 DUP2 PUSH2 0x5233 JUMP JUMPDEST SWAP2 POP POP PUSH2 0x3473 JUMP JUMPDEST POP PUSH2 0x1341 PUSH1 0x6 PUSH2 0x40DC JUMP JUMPDEST PUSH1 0x0 DUP2 DUP2 MSTORE PUSH1 0x1 PUSH1 0x20 MSTORE PUSH1 0x40 DUP2 KECCAK256 PUSH2 0x1382 SWAP1 PUSH2 0x45EE JUMP JUMPDEST PUSH2 0x1C69 DUP3 DUP3 PUSH2 0x45F8 JUMP JUMPDEST PUSH1 0x1E DUP1 SLOAD PUSH2 0x1DA2 SWAP1 PUSH2 0x51F8 JUMP JUMPDEST PUSH1 0x60 DUP3 PUSH1 0x0 PUSH2 0x35C3 DUP5 DUP4 PUSH2 0x5147 JUMP JUMPDEST PUSH1 0x8 SLOAD SWAP1 SWAP2 POP DUP2 GT PUSH2 0x35D5 JUMPI DUP1 PUSH2 0x35D9 JUMP JUMPDEST PUSH1 0x8 SLOAD JUMPDEST SWAP1 POP PUSH1 0x0 DUP3 DUP3 GT PUSH2 0x35EB JUMPI PUSH1 0x0 PUSH2 0x35F5 JUMP JUMPDEST PUSH2 0x35F5 DUP4 DUP4 PUSH2 0x519E JUMP JUMPDEST SWAP1 POP PUSH1 0x0 DUP2 PUSH8 0xFFFFFFFFFFFFFFFF DUP2 GT ISZERO PUSH2 0x3620 JUMPI PUSH4 0x4E487B71 PUSH1 0xE0 SHL PUSH1 0x0 MSTORE PUSH1 0x41 PUSH1 0x4 MSTORE PUSH1 0x24 PUSH1 0x0 REVERT JUMPDEST PUSH1 0x40 MLOAD SWAP1 DUP1 DUP3 MSTORE DUP1 PUSH1 0x20 MUL PUSH1 0x20 ADD DUP3 ADD PUSH1 0x40 MSTORE DUP1 ISZERO PUSH2 0x3665 JUMPI DUP2 PUSH1 0x20 ADD JUMPDEST PUSH1 0x40 DUP1 MLOAD DUP1 DUP3 ADD SWAP1 SWAP2 MSTORE PUSH1 0x0 DUP1 DUP3 MSTORE PUSH1 0x20 DUP3 ADD MSTORE DUP2 MSTORE PUSH1 0x20 ADD SWAP1 PUSH1 0x1 SWAP1 SUB SWAP1 DUP2 PUSH2 0x363E JUMPI SWAP1 POP JUMPDEST POP SWAP1 POP DUP4 JUMPDEST DUP4 DUP2 LT ISZERO PUSH2 0x26FF JUMPI PUSH1 0x8 DUP2 DUP2 SLOAD DUP2 LT PUSH2 0x3693 JUMPI PUSH4 0x4E487B71 PUSH1 0xE0 SHL PUSH1 0x0 MSTORE PUSH1 0x32 PUSH1 0x4 MSTORE PUSH1 0x24 PUSH1 0x0 REVERT JUMPDEST PUSH1 0x0 SWAP2 DUP3 MSTORE PUSH1 0x20 SWAP2 DUP3 SWAP1 KECCAK256 PUSH1 0x40 DUP1 MLOAD DUP1 DUP3 ADD SWAP1 SWAP2 MSTORE PUSH1 0x2 SWAP1 SWAP3 MUL ADD DUP1 SLOAD PUSH1 0x1 PUSH1 0x1 PUSH1 0xA0 SHL SUB AND DUP3 MSTORE PUSH1 0x1 ADD SLOAD SWAP2 DUP2 ADD SWAP2 SWAP1 SWAP2 MSTORE DUP3 PUSH2 0x36D1 DUP8 DUP5 PUSH2 0x519E JUMP JUMPDEST DUP2 MLOAD DUP2 LT PUSH2 0x36EF JUMPI PUSH4 0x4E487B71 PUSH1 0xE0 SHL PUSH1 0x0 MSTORE PUSH1 0x32 PUSH1 0x4 MSTORE PUSH1 0x24 PUSH1 0x0 REVERT JUMPDEST PUSH1 0x20 MUL PUSH1 0x20 ADD ADD DUP2 SWAP1 MSTORE POP DUP1 DUP1 PUSH2 0x3705 SWAP1 PUSH2 0x5233 JUMP JUMPDEST SWAP2 POP POP PUSH2 0x366A JUMP JUMPDEST PUSH1 0x0 PUSH2 0x3719 DUP2 CALLER PUSH2 0x405E JUMP JUMPDEST POP PUSH1 0xD SWAP3 SWAP1 SWAP3 SSTORE PUSH1 0xE SSTORE PUSH1 0xF SSTORE JUMP JUMPDEST PUSH1 0x60 PUSH1 0x0 PUSH2 0x3734 PUSH2 0x3249 JUMP JUMPDEST PUSH1 0xA SLOAD SWAP1 SWAP2 POP PUSH1 0x0 SWAP1 PUSH2 0x3748 SWAP1 PUSH1 0x3 PUSH2 0x5147 JUMP JUMPDEST PUSH8 0xFFFFFFFFFFFFFFFF DUP2 GT ISZERO PUSH2 0x376E JUMPI PUSH4 0x4E487B71 PUSH1 0xE0 SHL PUSH1 0x0 MSTORE PUSH1 0x41 PUSH1 0x4 MSTORE PUSH1 0x24 PUSH1 0x0 REVERT JUMPDEST PUSH1 0x40 MLOAD SWAP1 DUP1 DUP3 MSTORE DUP1 PUSH1 0x20 MUL PUSH1 0x20 ADD DUP3 ADD PUSH1 0x40 MSTORE DUP1 ISZERO PUSH2 0x37DA JUMPI DUP2 PUSH1 0x20 ADD JUMPDEST PUSH2 0x37C7 PUSH1 0x40 MLOAD DUP1 PUSH1 0xA0 ADD PUSH1 0x40 MSTORE DUP1 PUSH1 0x0 PUSH1 0x1 PUSH1 0x1 PUSH1 0xA0 SHL SUB AND DUP2 MSTORE PUSH1 0x20 ADD PUSH1 0x60 DUP2 MSTORE PUSH1 0x20 ADD PUSH1 0x0 DUP2 MSTORE PUSH1 0x20 ADD PUSH1 0x0 DUP2 MSTORE PUSH1 0x20 ADD PUSH1 0x0 DUP2 MSTORE POP SWAP1 JUMP JUMPDEST DUP2 MSTORE PUSH1 0x20 ADD SWAP1 PUSH1 0x1 SWAP1 SUB SWAP1 DUP2 PUSH2 0x378C JUMPI SWAP1 POP JUMPDEST POP SWAP1 POP PUSH1 0x40 MLOAD DUP1 PUSH1 0xA0 ADD PUSH1 0x40 MSTORE DUP1 PUSH1 0x1 PUSH1 0x1 PUSH1 0x1 PUSH1 0xA0 SHL SUB AND DUP2 MSTORE PUSH1 0x20 ADD PUSH1 0x40 MLOAD DUP1 PUSH1 0x40 ADD PUSH1 0x40 MSTORE DUP1 PUSH1 0x9 DUP2 MSTORE PUSH1 0x20 ADD PUSH32 0x4C69717569646974790000000000000000000000000000000000000000000000 DUP2 MSTORE POP DUP2 MSTORE PUSH1 0x20 ADD DUP4 DUP2 MSTORE PUSH1 0x20 ADD PUSH1 0x1F SLOAD DUP2 MSTORE PUSH1 0x20 ADD PUSH1 0x0 DUP2 MSTORE POP DUP2 PUSH1 0x0 DUP2 MLOAD DUP2 LT PUSH2 0x3867 JUMPI PUSH4 0x4E487B71 PUSH1 0xE0 SHL PUSH1 0x0 MSTORE PUSH1 0x32 PUSH1 0x4 MSTORE PUSH1 0x24 PUSH1 0x0 REVERT JUMPDEST PUSH1 0x20 MUL PUSH1 0x20 ADD ADD DUP2 SWAP1 MSTORE POP PUSH1 0x40 MLOAD DUP1 PUSH1 0xA0 ADD PUSH1 0x40 MSTORE DUP1 PUSH1 0x2 PUSH1 0x1 PUSH1 0x1 PUSH1 0xA0 SHL SUB AND DUP2 MSTORE PUSH1 0x20 ADD PUSH1 0x40 MLOAD DUP1 PUSH1 0x40 ADD PUSH1 0x40 MSTORE DUP1 PUSH1 0x7 DUP2 MSTORE PUSH1 0x20 ADD PUSH32 0x50726573616C6500000000000000000000000000000000000000000000000000 DUP2 MSTORE POP DUP2 MSTORE PUSH1 0x20 ADD DUP4 DUP2 MSTORE PUSH1 0x20 ADD PUSH1 0x20 SLOAD DUP2 MSTORE PUSH1 0x20 ADD PUSH1 0x21 SLOAD DUP2 MSTORE POP DUP2 PUSH1 0x1 DUP2 MLOAD DUP2 LT PUSH2 0x38FD JUMPI PUSH4 0x4E487B71 PUSH1 0xE0 SHL PUSH1 0x0 MSTORE PUSH1 0x32 PUSH1 0x4 MSTORE PUSH1 0x24 PUSH1 0x0 REVERT JUMPDEST PUSH1 0x20 MUL PUSH1 0x20 ADD ADD DUP2 SWAP1 MSTORE POP PUSH1 0x40 MLOAD DUP1 PUSH1 0xA0 ADD PUSH1 0x40 MSTORE DUP1 PUSH1 0x3 PUSH1 0x1 PUSH1 0x1 PUSH1 0xA0 SHL SUB AND DUP2 MSTORE PUSH1 0x20 ADD PUSH1 0x40 MLOAD DUP1 PUSH1 0x40 ADD PUSH1 0x40 MSTORE DUP1 PUSH1 0x9 DUP2 MSTORE PUSH1 0x20 ADD PUSH32 0x526566657272616C730000000000000000000000000000000000000000000000 DUP2 MSTORE POP DUP2 MSTORE PUSH1 0x20 ADD PUSH3 0xF4240 PUSH1 0xB SLOAD DUP6 PUSH2 0x3970 SWAP2 SWAP1 PUSH2 0x517F JUMP JUMPDEST PUSH2 0x397A SWAP2 SWAP1 PUSH2 0x515F JUMP JUMPDEST DUP2 MSTORE PUSH1 0x20 ADD PUSH1 0x22 SLOAD DUP2 MSTORE PUSH1 0x20 ADD PUSH1 0x23 SLOAD DUP2 MSTORE POP DUP2 PUSH1 0x2 DUP2 MLOAD DUP2 LT PUSH2 0x39AE JUMPI PUSH4 0x4E487B71 PUSH1 0xE0 SHL PUSH1 0x0 MSTORE PUSH1 0x32 PUSH1 0x4 MSTORE PUSH1 0x24 PUSH1 0x0 REVERT JUMPDEST PUSH1 0x20 MUL PUSH1 0x20 ADD ADD DUP2 SWAP1 MSTORE POP PUSH1 0x0 JUMPDEST PUSH1 0xA SLOAD DUP2 LT ISZERO PUSH2 0x3B11 JUMPI PUSH1 0xA DUP2 DUP2 SLOAD DUP2 LT PUSH2 0x39E7 JUMPI PUSH4 0x4E487B71 PUSH1 0xE0 SHL PUSH1 0x0 MSTORE PUSH1 0x32 PUSH1 0x4 MSTORE PUSH1 0x24 PUSH1 0x0 REVERT JUMPDEST PUSH1 0x0 SWAP2 DUP3 MSTORE PUSH1 0x20 SWAP2 DUP3 SWAP1 KECCAK256 PUSH1 0x40 DUP1 MLOAD PUSH1 0xA0 DUP2 ADD SWAP1 SWAP2 MSTORE PUSH1 0x5 SWAP1 SWAP3 MUL ADD DUP1 SLOAD PUSH1 0x1 PUSH1 0x1 PUSH1 0xA0 SHL SUB AND DUP3 MSTORE PUSH1 0x1 DUP2 ADD DUP1 SLOAD SWAP3 SWAP4 SWAP2 SWAP3 SWAP2 DUP5 ADD SWAP2 PUSH2 0x3A27 SWAP1 PUSH2 0x51F8 JUMP JUMPDEST DUP1 PUSH1 0x1F ADD PUSH1 0x20 DUP1 SWAP2 DIV MUL PUSH1 0x20 ADD PUSH1 0x40 MLOAD SWAP1 DUP2 ADD PUSH1 0x40 MSTORE DUP1 SWAP3 SWAP2 SWAP1 DUP2 DUP2 MSTORE PUSH1 0x20 ADD DUP3 DUP1 SLOAD PUSH2 0x3A53 SWAP1 PUSH2 0x51F8 JUMP JUMPDEST DUP1 ISZERO PUSH2 0x3AA0 JUMPI DUP1 PUSH1 0x1F LT PUSH2 0x3A75 JUMPI PUSH2 0x100 DUP1 DUP4 SLOAD DIV MUL DUP4 MSTORE SWAP2 PUSH1 0x20 ADD SWAP2 PUSH2 0x3AA0 JUMP JUMPDEST DUP3 ADD SWAP2 SWAP1 PUSH1 0x0 MSTORE PUSH1 0x20 PUSH1 0x0 KECCAK256 SWAP1 JUMPDEST DUP2 SLOAD DUP2 MSTORE SWAP1 PUSH1 0x1 ADD SWAP1 PUSH1 0x20 ADD DUP1 DUP4 GT PUSH2 0x3A83 JUMPI DUP3 SWAP1 SUB PUSH1 0x1F AND DUP3 ADD SWAP2 JUMPDEST POP POP POP POP POP DUP2 MSTORE PUSH1 0x20 ADD PUSH1 0x2 DUP3 ADD SLOAD DUP2 MSTORE PUSH1 0x20 ADD PUSH1 0x3 DUP3 ADD SLOAD DUP2 MSTORE PUSH1 0x20 ADD PUSH1 0x4 DUP3 ADD SLOAD DUP2 MSTORE POP POP DUP3 DUP3 PUSH1 0x3 PUSH2 0x3AD5 SWAP2 SWAP1 PUSH2 0x5147 JUMP JUMPDEST DUP2 MLOAD DUP2 LT PUSH2 0x3AF3 JUMPI PUSH4 0x4E487B71 PUSH1 0xE0 SHL PUSH1 0x0 MSTORE PUSH1 0x32 PUSH1 0x4 MSTORE PUSH1 0x24 PUSH1 0x0 REVERT JUMPDEST PUSH1 0x20 MUL PUSH1 0x20 ADD ADD DUP2 SWAP1 MSTORE POP DUP1 DUP1 PUSH2 0x3B09 SWAP1 PUSH2 0x5233 JUMP JUMPDEST SWAP2 POP POP PUSH2 0x39BC JUMP JUMPDEST POP PUSH1 0xA DUP1 SLOAD DUP1 PUSH1 0x20 MUL PUSH1 0x20 ADD PUSH1 0x40 MLOAD SWAP1 DUP2 ADD PUSH1 0x40 MSTORE DUP1 SWAP3 SWAP2 SWAP1 DUP2 DUP2 MSTORE PUSH1 0x20 ADD PUSH1 0x0 SWAP1 JUMPDEST DUP3 DUP3 LT ISZERO PUSH2 0x3C2C JUMPI PUSH1 0x0 DUP5 DUP2 MSTORE PUSH1 0x20 SWAP1 DUP2 SWAP1 KECCAK256 PUSH1 0x40 DUP1 MLOAD PUSH1 0xA0 DUP2 ADD SWAP1 SWAP2 MSTORE PUSH1 0x5 DUP6 MUL SWAP1 SWAP2 ADD DUP1 SLOAD PUSH1 0x1 PUSH1 0x1 PUSH1 0xA0 SHL SUB AND DUP3 MSTORE PUSH1 0x1 DUP2 ADD DUP1 SLOAD SWAP3 SWAP4 SWAP2 SWAP3 SWAP2 DUP5 ADD SWAP2 PUSH2 0x3B7D SWAP1 PUSH2 0x51F8 JUMP JUMPDEST DUP1 PUSH1 0x1F ADD PUSH1 0x20 DUP1 SWAP2 DIV MUL PUSH1 0x20 ADD PUSH1 0x40 MLOAD SWAP1 DUP2 ADD PUSH1 0x40 MSTORE DUP1 SWAP3 SWAP2 SWAP1 DUP2 DUP2 MSTORE PUSH1 0x20 ADD DUP3 DUP1 SLOAD PUSH2 0x3BA9 SWAP1 PUSH2 0x51F8 JUMP JUMPDEST DUP1 ISZERO PUSH2 0x3BF6 JUMPI DUP1 PUSH1 0x1F LT PUSH2 0x3BCB JUMPI PUSH2 0x100 DUP1 DUP4 SLOAD DIV MUL DUP4 MSTORE SWAP2 PUSH1 0x20 ADD SWAP2 PUSH2 0x3BF6 JUMP JUMPDEST DUP3 ADD SWAP2 SWAP1 PUSH1 0x0 MSTORE PUSH1 0x20 PUSH1 0x0 KECCAK256 SWAP1 JUMPDEST DUP2 SLOAD DUP2 MSTORE SWAP1 PUSH1 0x1 ADD SWAP1 PUSH1 0x20 ADD DUP1 DUP4 GT PUSH2 0x3BD9 JUMPI DUP3 SWAP1 SUB PUSH1 0x1F AND DUP3 ADD SWAP2 JUMPDEST POP POP POP POP POP DUP2 MSTORE PUSH1 0x20 ADD PUSH1 0x2 DUP3 ADD SLOAD DUP2 MSTORE PUSH1 0x20 ADD PUSH1 0x3 DUP3 ADD SLOAD DUP2 MSTORE PUSH1 0x20 ADD PUSH1 0x4 DUP3 ADD SLOAD DUP2 MSTORE POP POP DUP2 MSTORE PUSH1 0x20 ADD SWAP1 PUSH1 0x1 ADD SWAP1 PUSH2 0x3B34 JUMP JUMPDEST POP POP POP POP SWAP3 POP POP POP SWAP1 JUMP JUMPDEST PUSH1 0x1 PUSH1 0x1 PUSH1 0xA0 SHL SUB DUP2 AND PUSH1 0x0 SWAP1 DUP2 MSTORE PUSH1 0x5 PUSH1 0x20 MSTORE PUSH1 0x40 DUP2 KECCAK256 SLOAD DUP2 SWAP1 PUSH1 0x6 SWAP1 PUSH2 0x3C61 SWAP1 PUSH1 0x1 SWAP1 PUSH2 0x519E JUMP JUMPDEST DUP2 SLOAD DUP2 LT PUSH2 0x3C7F JUMPI PUSH4 0x4E487B71 PUSH1 0xE0 SHL PUSH1 0x0 MSTORE PUSH1 0x32 PUSH1 0x4 MSTORE PUSH1 0x24 PUSH1 0x0 REVERT JUMPDEST PUSH1 0x0 SWAP2 DUP3 MSTORE PUSH1 0x20 SWAP2 DUP3 SWAP1 KECCAK256 PUSH1 0x40 DUP1 MLOAD PUSH1 0xA0 DUP2 ADD DUP3 MSTORE PUSH1 0x5 SWAP1 SWAP4 MUL SWAP1 SWAP2 ADD DUP1 SLOAD PUSH1 0x1 PUSH1 0x1 PUSH1 0xA0 SHL SUB AND DUP4 MSTORE PUSH1 0x1 DUP2 ADD SLOAD SWAP4 DUP4 ADD SWAP4 SWAP1 SWAP4 MSTORE PUSH1 0x2 DUP4 ADD SLOAD SWAP1 DUP3 ADD MSTORE PUSH1 0x3 DUP3 ADD SLOAD PUSH1 0x60 DUP3 ADD DUP2 SWAP1 MSTORE PUSH1 0x4 SWAP1 SWAP3 ADD SLOAD PUSH1 0x80 DUP3 ADD MSTORE SWAP2 POP TIMESTAMP GT ISZERO DUP1 PUSH2 0x3CEC JUMPI POP DUP1 PUSH1 0x80 ADD MLOAD DUP2 PUSH1 0x60 ADD MLOAD GT JUMPDEST ISZERO PUSH2 0x3CFA JUMPI POP PUSH1 0x0 SWAP3 SWAP2 POP POP JUMP JUMPDEST DUP1 PUSH1 0x80 ADD MLOAD TIMESTAMP LT PUSH2 0x3D19 JUMPI DUP1 PUSH1 0x40 ADD MLOAD DUP2 PUSH1 0x20 ADD MLOAD PUSH2 0x2722 SWAP2 SWAP1 PUSH2 0x519E JUMP JUMPDEST PUSH1 0x0 DUP2 PUSH1 0x60 ADD MLOAD DUP3 PUSH1 0x80 ADD MLOAD PUSH2 0x3D2F SWAP2 SWAP1 PUSH2 0x519E JUMP JUMPDEST PUSH1 0x60 DUP4 ADD MLOAD PUSH2 0x3D3E SWAP1 TIMESTAMP PUSH2 0x519E JUMP JUMPDEST DUP4 PUSH1 0x20 ADD MLOAD PUSH2 0x3D4D SWAP2 SWAP1 PUSH2 0x517F JUMP JUMPDEST PUSH2 0x3D57 SWAP2 SWAP1 PUSH2 0x515F JUMP JUMPDEST SWAP1 POP DUP2 PUSH1 0x40 ADD MLOAD DUP2 GT PUSH2 0x3D6E JUMPI POP PUSH1 0x0 SWAP4 SWAP3 POP POP POP JUMP JUMPDEST PUSH1 0x40 DUP3 ADD MLOAD PUSH2 0x3D7D SWAP1 DUP3 PUSH2 0x519E JUMP JUMPDEST SWAP5 SWAP4 POP POP POP POP JUMP JUMPDEST CALLER PUSH1 0x0 SWAP1 DUP2 MSTORE PUSH1 0x5 PUSH1 0x20 MSTORE PUSH1 0x40 DUP2 KECCAK256 SLOAD PUSH1 0x6 SWAP1 PUSH2 0x3DA4 SWAP1 PUSH1 0x1 SWAP1 PUSH2 0x519E JUMP JUMPDEST DUP2 SLOAD DUP2 LT PUSH2 0x3DC2 JUMPI PUSH4 0x4E487B71 PUSH1 0xE0 SHL PUSH1 0x0 MSTORE PUSH1 0x32 PUSH1 0x4 MSTORE PUSH1 0x24 PUSH1 0x0 REVERT JUMPDEST PUSH1 0x0 SWAP2 DUP3 MSTORE PUSH1 0x20 SWAP2 DUP3 SWAP1 KECCAK256 PUSH1 0x40 DUP1 MLOAD PUSH1 0xA0 DUP2 ADD DUP3 MSTORE PUSH1 0x5 SWAP1 SWAP4 MUL SWAP1 SWAP2 ADD DUP1 SLOAD PUSH1 0x1 PUSH1 0x1 PUSH1 0xA0 SHL SUB AND DUP4 MSTORE PUSH1 0x1 DUP2 ADD SLOAD SWAP4 DUP4 ADD SWAP4 SWAP1 SWAP4 MSTORE PUSH1 0x2 DUP4 ADD SLOAD SWAP1 DUP3 ADD MSTORE PUSH1 0x3 DUP3 ADD SLOAD PUSH1 0x60 DUP3 ADD DUP2 SWAP1 MSTORE PUSH1 0x4 SWAP1 SWAP3 ADD SLOAD PUSH1 0x80 DUP3 ADD MSTORE SWAP2 POP TIMESTAMP LT ISZERO PUSH2 0x3E73 JUMPI PUSH1 0x40 MLOAD PUSH3 0x461BCD PUSH1 0xE5 SHL DUP2 MSTORE PUSH1 0x20 PUSH1 0x4 DUP3 ADD MSTORE PUSH1 0x21 PUSH1 0x24 DUP3 ADD MSTORE PUSH32 0x50523A204C6F636B656420706572696F64206973206E6F74206F766572207965 PUSH1 0x44 DUP3 ADD MSTORE PUSH1 0x1D PUSH1 0xFA SHL PUSH1 0x64 DUP3 ADD MSTORE PUSH1 0x84 ADD PUSH2 0xE54 JUMP JUMPDEST DUP1 PUSH1 0x20 ADD MLOAD DUP2 PUSH1 0x40 ADD MLOAD LT PUSH2 0x3EF0 JUMPI PUSH1 0x40 MLOAD PUSH3 0x461BCD PUSH1 0xE5 SHL DUP2 MSTORE PUSH1 0x20 PUSH1 0x4 DUP3 ADD MSTORE PUSH1 0x29 PUSH1 0x24 DUP3 ADD MSTORE PUSH32 0x50523A20596F75206861766520616C7265616479207265636569766564203130 PUSH1 0x44 DUP3 ADD MSTORE PUSH32 0x302520746F6B656E730000000000000000000000000000000000000000000000 PUSH1 0x64 DUP3 ADD MSTORE PUSH1 0x84 ADD PUSH2 0xE54 JUMP JUMPDEST PUSH1 0x0 PUSH2 0x3EFB CALLER PUSH2 0x3C37 JUMP JUMPDEST SWAP1 POP PUSH1 0x0 DUP2 GT PUSH2 0x3F73 JUMPI PUSH1 0x40 MLOAD PUSH3 0x461BCD PUSH1 0xE5 SHL DUP2 MSTORE PUSH1 0x20 PUSH1 0x4 DUP3 ADD MSTORE PUSH1 0x33 PUSH1 0x24 DUP3 ADD MSTORE PUSH32 0x50523A20546865726520617265203020746F6B656E7320617661696C61626C65 PUSH1 0x44 DUP3 ADD MSTORE PUSH32 0x20746F20636C61696D207269676874206E6F7700000000000000000000000000 PUSH1 0x64 DUP3 ADD MSTORE PUSH1 0x84 ADD PUSH2 0xE54 JUMP JUMPDEST CALLER PUSH1 0x0 SWAP1 DUP2 MSTORE PUSH1 0x5 PUSH1 0x20 MSTORE PUSH1 0x40 SWAP1 KECCAK256 SLOAD DUP2 SWAP1 PUSH1 0x6 SWAP1 PUSH2 0x3F94 SWAP1 PUSH1 0x1 SWAP1 PUSH2 0x519E JUMP JUMPDEST DUP2 SLOAD DUP2 LT PUSH2 0x3FB2 JUMPI PUSH4 0x4E487B71 PUSH1 0xE0 SHL PUSH1 0x0 MSTORE PUSH1 0x32 PUSH1 0x4 MSTORE PUSH1 0x24 PUSH1 0x0 REVERT JUMPDEST SWAP1 PUSH1 0x0 MSTORE PUSH1 0x20 PUSH1 0x0 KECCAK256 SWAP1 PUSH1 0x5 MUL ADD PUSH1 0x2 ADD PUSH1 0x0 DUP3 DUP3 SLOAD PUSH2 0x3FD2 SWAP2 SWAP1 PUSH2 0x5147 JUMP JUMPDEST SWAP1 SWAP2 SSTORE POP POP PUSH1 0x13 SLOAD PUSH1 0x40 MLOAD PUSH4 0xBB9FF5D PUSH1 0xE0 SHL DUP2 MSTORE CALLER PUSH1 0x4 DUP3 ADD MSTORE PUSH1 0x24 DUP2 ADD DUP4 SWAP1 MSTORE PUSH1 0x1 PUSH1 0x1 PUSH1 0xA0 SHL SUB SWAP1 SWAP2 AND SWAP1 PUSH4 0xBB9FF5D SWAP1 PUSH1 0x44 ADD PUSH1 0x0 PUSH1 0x40 MLOAD DUP1 DUP4 SUB DUP2 PUSH1 0x0 DUP8 DUP1 EXTCODESIZE ISZERO DUP1 ISZERO PUSH2 0x4023 JUMPI PUSH1 0x0 DUP1 REVERT JUMPDEST POP GAS CALL ISZERO DUP1 ISZERO PUSH2 0x4037 JUMPI RETURNDATASIZE PUSH1 0x0 DUP1 RETURNDATACOPY RETURNDATASIZE PUSH1 0x0 REVERT JUMPDEST POP POP POP POP POP POP JUMP JUMPDEST PUSH2 0x29BD DUP3 DUP3 PUSH2 0x461E JUMP JUMPDEST PUSH1 0x0 PUSH2 0x2722 DUP4 PUSH1 0x1 PUSH1 0x1 PUSH1 0xA0 SHL SUB DUP5 AND PUSH2 0x46BC JUMP JUMPDEST PUSH1 0x0 DUP3 DUP2 MSTORE PUSH1 0x20 DUP2 DUP2 MSTORE PUSH1 0x40 DUP1 DUP4 KECCAK256 PUSH1 0x1 PUSH1 0x1 PUSH1 0xA0 SHL SUB DUP6 AND DUP5 MSTORE SWAP1 SWAP2 MSTORE SWAP1 KECCAK256 SLOAD PUSH1 0xFF AND PUSH2 0x29BD JUMPI PUSH2 0x409A DUP2 PUSH1 0x1 PUSH1 0x1 PUSH1 0xA0 SHL SUB AND PUSH1 0x14 PUSH2 0x470B JUMP JUMPDEST PUSH2 0x40A5 DUP4 PUSH1 0x20 PUSH2 0x470B JUMP JUMPDEST PUSH1 0x40 MLOAD PUSH1 0x20 ADD PUSH2 0x40B6 SWAP3 SWAP2 SWAP1 PUSH2 0x4E56 JUMP JUMPDEST PUSH1 0x40 DUP1 MLOAD PUSH1 0x1F NOT DUP2 DUP5 SUB ADD DUP2 MSTORE SWAP1 DUP3 SWAP1 MSTORE PUSH3 0x461BCD PUSH1 0xE5 SHL DUP3 MSTORE PUSH2 0xE54 SWAP2 PUSH1 0x4 ADD PUSH2 0x50AD JUMP JUMPDEST PUSH1 0x2 DUP1 SLOAD DUP3 SWAP2 SWAP1 PUSH1 0xFF NOT AND PUSH1 0x1 DUP4 PUSH1 0x7 DUP2 GT ISZERO PUSH2 0x4109 JUMPI PUSH4 0x4E487B71 PUSH1 0xE0 SHL PUSH1 0x0 MSTORE PUSH1 0x21 PUSH1 0x4 MSTORE PUSH1 0x24 PUSH1 0x0 REVERT JUMPDEST MUL OR SWAP1 SSTORE POP PUSH32 0x551DC40198CC79684BB69E4931DBA4AC16E4598792EE1C0A5000AEEA366D7BB6 DUP2 PUSH1 0x40 MLOAD PUSH2 0x413D SWAP2 SWAP1 PUSH2 0x5085 JUMP JUMPDEST PUSH1 0x40 MLOAD DUP1 SWAP2 SUB SWAP1 LOG1 POP JUMP JUMPDEST PUSH1 0x0 PUSH1 0x1 PUSH1 0x1 PUSH1 0xE0 SHL SUB NOT DUP3 AND PUSH32 0x7965DB0B00000000000000000000000000000000000000000000000000000000 EQ DUP1 PUSH2 0x1382 JUMPI POP PUSH32 0x1FFC9A700000000000000000000000000000000000000000000000000000000 PUSH1 0x1 PUSH1 0x1 PUSH1 0xE0 SHL SUB NOT DUP4 AND EQ PUSH2 0x1382 JUMP JUMPDEST PUSH2 0x1BF7 DUP3 DUP3 PUSH2 0x403F JUMP JUMPDEST PUSH1 0x1 PUSH1 0x1 PUSH1 0xA0 SHL SUB DUP4 AND PUSH1 0x0 SWAP1 DUP2 MSTORE PUSH1 0x3 PUSH1 0x20 MSTORE PUSH1 0x40 SWAP1 KECCAK256 SLOAD PUSH2 0x42B9 JUMPI PUSH1 0x40 DUP1 MLOAD PUSH1 0x60 DUP2 ADD DUP3 MSTORE PUSH1 0x1 PUSH1 0x1 PUSH1 0xA0 SHL SUB DUP1 DUP7 AND DUP1 DUP4 MSTORE DUP6 DUP3 AND PUSH1 0x20 DUP1 DUP6 ADD SWAP2 DUP3 MSTORE DUP5 DUP7 ADD DUP8 DUP2 MSTORE PUSH1 0x4 DUP1 SLOAD PUSH1 0x1 DUP2 ADD DUP3 SSTORE PUSH1 0x0 DUP3 DUP2 MSTORE SWAP8 MLOAD PUSH1 0x3 SWAP2 DUP3 MUL PUSH32 0x8A35ACFBC15FF81A39AE7D344FD709F28E8600B4AA8C65C6B64BFE7FE36BD19B DUP2 ADD DUP1 SLOAD SWAP3 DUP11 AND PUSH1 0x1 PUSH1 0x1 PUSH1 0xA0 SHL SUB NOT SWAP4 DUP5 AND OR SWAP1 SSTORE SWAP6 MLOAD PUSH32 0x8A35ACFBC15FF81A39AE7D344FD709F28E8600B4AA8C65C6B64BFE7FE36BD19C DUP8 ADD DUP1 SLOAD SWAP2 SWAP1 SWAP10 AND SWAP2 AND OR SWAP1 SWAP7 SSTORE SWAP1 MLOAD PUSH32 0x8A35ACFBC15FF81A39AE7D344FD709F28E8600B4AA8C65C6B64BFE7FE36BD19D SWAP1 SWAP4 ADD SWAP3 SWAP1 SWAP3 SSTORE SWAP1 SLOAD SWAP2 DUP5 MSTORE SWAP2 SWAP1 SWAP2 MSTORE SWAP2 SWAP1 KECCAK256 SSTORE PUSH2 0x43D0 JUMP JUMPDEST PUSH1 0x1 PUSH1 0x1 PUSH1 0xA0 SHL SUB DUP4 AND PUSH1 0x0 SWAP1 DUP2 MSTORE PUSH1 0x3 PUSH1 0x20 MSTORE PUSH1 0x40 DUP2 KECCAK256 SLOAD DUP3 SWAP1 PUSH1 0x4 SWAP1 PUSH2 0x42E3 SWAP1 PUSH1 0x1 SWAP1 PUSH2 0x519E JUMP JUMPDEST DUP2 SLOAD DUP2 LT PUSH2 0x4301 JUMPI PUSH4 0x4E487B71 PUSH1 0xE0 SHL PUSH1 0x0 MSTORE PUSH1 0x32 PUSH1 0x4 MSTORE PUSH1 0x24 PUSH1 0x0 REVERT JUMPDEST SWAP1 PUSH1 0x0 MSTORE PUSH1 0x20 PUSH1 0x0 KECCAK256 SWAP1 PUSH1 0x3 MUL ADD PUSH1 0x2 ADD SLOAD PUSH2 0x431D SWAP2 SWAP1 PUSH2 0x5147 JUMP JUMPDEST SWAP1 POP PUSH1 0xF SLOAD DUP2 GT ISZERO PUSH2 0x4371 JUMPI PUSH1 0x40 MLOAD PUSH3 0x461BCD PUSH1 0xE5 SHL DUP2 MSTORE PUSH1 0x20 PUSH1 0x4 DUP3 ADD MSTORE PUSH1 0x1F PUSH1 0x24 DUP3 ADD MSTORE PUSH32 0x50523A204D617820636170207065722077616C6C657420657863656564656400 PUSH1 0x44 DUP3 ADD MSTORE PUSH1 0x64 ADD PUSH2 0xE54 JUMP JUMPDEST PUSH1 0x1 PUSH1 0x1 PUSH1 0xA0 SHL SUB DUP5 AND PUSH1 0x0 SWAP1 DUP2 MSTORE PUSH1 0x3 PUSH1 0x20 MSTORE PUSH1 0x40 SWAP1 KECCAK256 SLOAD DUP2 SWAP1 PUSH1 0x4 SWAP1 PUSH2 0x439B SWAP1 PUSH1 0x1 SWAP1 PUSH2 0x519E JUMP JUMPDEST DUP2 SLOAD DUP2 LT PUSH2 0x43B9 JUMPI PUSH4 0x4E487B71 PUSH1 0xE0 SHL PUSH1 0x0 MSTORE PUSH1 0x32 PUSH1 0x4 MSTORE PUSH1 0x24 PUSH1 0x0 REVERT JUMPDEST SWAP1 PUSH1 0x0 MSTORE PUSH1 0x20 PUSH1 0x0 KECCAK256 SWAP1 PUSH1 0x3 MUL ADD PUSH1 0x2 ADD DUP2 SWAP1 SSTORE POP POP JUMPDEST DUP1 PUSH1 0xC PUSH1 0x0 DUP3 DUP3 SLOAD PUSH2 0x43E2 SWAP2 SWAP1 PUSH2 0x5147 JUMP JUMPDEST SWAP1 SWAP2 SSTORE POP PUSH2 0x1C0F SWAP1 POP DUP4 PUSH2 0x4932 JUMP JUMPDEST PUSH1 0x1 PUSH1 0x1 PUSH1 0xA0 SHL SUB DUP3 AND PUSH1 0x0 SWAP1 DUP2 MSTORE PUSH1 0x7 PUSH1 0x20 MSTORE PUSH1 0x40 SWAP1 KECCAK256 SLOAD PUSH2 0x44B8 JUMPI PUSH1 0x40 DUP1 MLOAD DUP1 DUP3 ADD DUP3 MSTORE PUSH1 0x1 PUSH1 0x1 PUSH1 0xA0 SHL SUB DUP5 DUP2 AND DUP1 DUP4 MSTORE PUSH1 0x20 DUP1 DUP5 ADD DUP7 DUP2 MSTORE PUSH1 0x8 DUP1 SLOAD PUSH1 0x1 DUP2 ADD DUP3 SSTORE PUSH1 0x0 DUP3 DUP2 MSTORE SWAP7 MLOAD PUSH32 0xF3F7A9FE364FAAB93B216DA50A3214154F22A0A2B415B23A84C8169E8B636EE3 PUSH1 0x2 SWAP1 SWAP3 MUL SWAP2 DUP3 ADD DUP1 SLOAD PUSH1 0x1 PUSH1 0x1 PUSH1 0xA0 SHL SUB NOT AND SWAP2 SWAP1 SWAP8 AND OR SWAP1 SWAP6 SSTORE SWAP1 MLOAD PUSH32 0xF3F7A9FE364FAAB93B216DA50A3214154F22A0A2B415B23A84C8169E8B636EE4 SWAP1 SWAP5 ADD SWAP4 SWAP1 SWAP4 SSTORE SWAP2 SLOAD SWAP1 DUP4 MSTORE PUSH1 0x7 SWAP1 SWAP2 MSTORE SWAP2 SWAP1 KECCAK256 SSTORE PUSH2 0x4526 JUMP JUMPDEST PUSH1 0x1 PUSH1 0x1 PUSH1 0xA0 SHL SUB DUP3 AND PUSH1 0x0 SWAP1 DUP2 MSTORE PUSH1 0x7 PUSH1 0x20 MSTORE PUSH1 0x40 SWAP1 KECCAK256 SLOAD DUP2 SWAP1 PUSH1 0x8 SWAP1 PUSH2 0x44E2 SWAP1 PUSH1 0x1 SWAP1 PUSH2 0x519E JUMP JUMPDEST DUP2 SLOAD DUP2 LT PUSH2 0x4500 JUMPI PUSH4 0x4E487B71 PUSH1 0xE0 SHL PUSH1 0x0 MSTORE PUSH1 0x32 PUSH1 0x4 MSTORE PUSH1 0x24 PUSH1 0x0 REVERT JUMPDEST SWAP1 PUSH1 0x0 MSTORE PUSH1 0x20 PUSH1 0x0 KECCAK256 SWAP1 PUSH1 0x2 MUL ADD PUSH1 0x1 ADD PUSH1 0x0 DUP3 DUP3 SLOAD PUSH2 0x4520 SWAP2 SWAP1 PUSH2 0x5147 JUMP JUMPDEST SWAP1 SWAP2 SSTORE POP POP JUMPDEST PUSH2 0x29BD DUP3 PUSH2 0x4932 JUMP JUMPDEST PUSH1 0x0 PUSH2 0x453B DUP2 CALLER PUSH2 0x405E JUMP JUMPDEST PUSH2 0x1C0F DUP4 DUP4 PUSH2 0x461E JUMP JUMPDEST PUSH1 0x1 PUSH1 0x1 PUSH1 0xA0 SHL SUB DUP2 AND CALLER EQ PUSH2 0x45C3 JUMPI PUSH1 0x40 MLOAD PUSH3 0x461BCD PUSH1 0xE5 SHL DUP2 MSTORE PUSH1 0x20 PUSH1 0x4 DUP3 ADD MSTORE PUSH1 0x2F PUSH1 0x24 DUP3 ADD MSTORE PUSH32 0x416363657373436F6E74726F6C3A2063616E206F6E6C792072656E6F756E6365 PUSH1 0x44 DUP3 ADD MSTORE PUSH32 0x20726F6C657320666F722073656C660000000000000000000000000000000000 PUSH1 0x64 DUP3 ADD MSTORE PUSH1 0x84 ADD PUSH2 0xE54 JUMP JUMPDEST PUSH2 0x29BD DUP3 DUP3 PUSH2 0x4A7B JUMP JUMPDEST PUSH1 0x0 PUSH2 0x2722 DUP4 PUSH1 0x1 PUSH1 0x1 PUSH1 0xA0 SHL SUB DUP5 AND PUSH2 0x4AFA JUMP JUMPDEST PUSH1 0x0 PUSH2 0x2722 DUP4 DUP4 PUSH2 0x4C17 JUMP JUMPDEST PUSH1 0x0 PUSH2 0x1382 DUP3 SLOAD SWAP1 JUMP JUMPDEST PUSH1 0x0 DUP3 DUP2 MSTORE PUSH1 0x20 DUP2 SWAP1 MSTORE PUSH1 0x40 SWAP1 KECCAK256 PUSH1 0x1 ADD SLOAD PUSH2 0x4614 DUP2 CALLER PUSH2 0x405E JUMP JUMPDEST PUSH2 0x1C0F DUP4 DUP4 PUSH2 0x4A7B JUMP JUMPDEST PUSH1 0x0 DUP3 DUP2 MSTORE PUSH1 0x20 DUP2 DUP2 MSTORE PUSH1 0x40 DUP1 DUP4 KECCAK256 PUSH1 0x1 PUSH1 0x1 PUSH1 0xA0 SHL SUB DUP6 AND DUP5 MSTORE SWAP1 SWAP2 MSTORE SWAP1 KECCAK256 SLOAD PUSH1 0xFF AND PUSH2 0x29BD JUMPI PUSH1 0x0 DUP3 DUP2 MSTORE PUSH1 0x20 DUP2 DUP2 MSTORE PUSH1 0x40 DUP1 DUP4 KECCAK256 PUSH1 0x1 PUSH1 0x1 PUSH1 0xA0 SHL SUB DUP6 AND DUP5 MSTORE SWAP1 SWAP2 MSTORE SWAP1 KECCAK256 DUP1 SLOAD PUSH1 0xFF NOT AND PUSH1 0x1 OR SWAP1 SSTORE PUSH2 0x4678 CALLER SWAP1 JUMP JUMPDEST PUSH1 0x1 PUSH1 0x1 PUSH1 0xA0 SHL SUB AND DUP2 PUSH1 0x1 PUSH1 0x1 PUSH1 0xA0 SHL SUB AND DUP4 PUSH32 0x2F8788117E7EFF1D82E926EC794901D17C78024A50270940304540A733656F0D PUSH1 0x40 MLOAD PUSH1 0x40 MLOAD DUP1 SWAP2 SUB SWAP1 LOG4 POP POP JUMP JUMPDEST PUSH1 0x0 DUP2 DUP2 MSTORE PUSH1 0x1 DUP4 ADD PUSH1 0x20 MSTORE PUSH1 0x40 DUP2 KECCAK256 SLOAD PUSH2 0x4703 JUMPI POP DUP2 SLOAD PUSH1 0x1 DUP2 DUP2 ADD DUP5 SSTORE PUSH1 0x0 DUP5 DUP2 MSTORE PUSH1 0x20 DUP1 DUP3 KECCAK256 SWAP1 SWAP4 ADD DUP5 SWAP1 SSTORE DUP5 SLOAD DUP5 DUP3 MSTORE DUP3 DUP7 ADD SWAP1 SWAP4 MSTORE PUSH1 0x40 SWAP1 KECCAK256 SWAP2 SWAP1 SWAP2 SSTORE PUSH2 0x1382 JUMP JUMPDEST POP PUSH1 0x0 PUSH2 0x1382 JUMP JUMPDEST PUSH1 0x60 PUSH1 0x0 PUSH2 0x471A DUP4 PUSH1 0x2 PUSH2 0x517F JUMP JUMPDEST PUSH2 0x4725 SWAP1 PUSH1 0x2 PUSH2 0x5147 JUMP JUMPDEST PUSH8 0xFFFFFFFFFFFFFFFF DUP2 GT ISZERO PUSH2 0x474B JUMPI PUSH4 0x4E487B71 PUSH1 0xE0 SHL PUSH1 0x0 MSTORE PUSH1 0x41 PUSH1 0x4 MSTORE PUSH1 0x24 PUSH1 0x0 REVERT JUMPDEST PUSH1 0x40 MLOAD SWAP1 DUP1 DUP3 MSTORE DUP1 PUSH1 0x1F ADD PUSH1 0x1F NOT AND PUSH1 0x20 ADD DUP3 ADD PUSH1 0x40 MSTORE DUP1 ISZERO PUSH2 0x4775 JUMPI PUSH1 0x20 DUP3 ADD DUP2 DUP1 CALLDATASIZE DUP4 CALLDATACOPY ADD SWAP1 POP JUMPDEST POP SWAP1 POP PUSH32 0x3000000000000000000000000000000000000000000000000000000000000000 DUP2 PUSH1 0x0 DUP2 MLOAD DUP2 LT PUSH2 0x47BA JUMPI PUSH4 0x4E487B71 PUSH1 0xE0 SHL PUSH1 0x0 MSTORE PUSH1 0x32 PUSH1 0x4 MSTORE PUSH1 0x24 PUSH1 0x0 REVERT JUMPDEST PUSH1 0x20 ADD ADD SWAP1 PUSH1 0x1 PUSH1 0x1 PUSH1 0xF8 SHL SUB NOT AND SWAP1 DUP2 PUSH1 0x0 BYTE SWAP1 MSTORE8 POP PUSH32 0x7800000000000000000000000000000000000000000000000000000000000000 DUP2 PUSH1 0x1 DUP2 MLOAD DUP2 LT PUSH2 0x4813 JUMPI PUSH4 0x4E487B71 PUSH1 0xE0 SHL PUSH1 0x0 MSTORE PUSH1 0x32 PUSH1 0x4 MSTORE PUSH1 0x24 PUSH1 0x0 REVERT JUMPDEST PUSH1 0x20 ADD ADD SWAP1 PUSH1 0x1 PUSH1 0x1 PUSH1 0xF8 SHL SUB NOT AND SWAP1 DUP2 PUSH1 0x0 BYTE SWAP1 MSTORE8 POP PUSH1 0x0 PUSH2 0x4837 DUP5 PUSH1 0x2 PUSH2 0x517F JUMP JUMPDEST PUSH2 0x4842 SWAP1 PUSH1 0x1 PUSH2 0x5147 JUMP JUMPDEST SWAP1 POP JUMPDEST PUSH1 0x1 DUP2 GT ISZERO PUSH2 0x48E3 JUMPI PUSH32 0x3031323334353637383961626364656600000000000000000000000000000000 DUP6 PUSH1 0xF AND PUSH1 0x10 DUP2 LT PUSH2 0x4891 JUMPI PUSH4 0x4E487B71 PUSH1 0xE0 SHL PUSH1 0x0 MSTORE PUSH1 0x32 PUSH1 0x4 MSTORE PUSH1 0x24 PUSH1 0x0 REVERT JUMPDEST BYTE PUSH1 0xF8 SHL DUP3 DUP3 DUP2 MLOAD DUP2 LT PUSH2 0x48B5 JUMPI PUSH4 0x4E487B71 PUSH1 0xE0 SHL PUSH1 0x0 MSTORE PUSH1 0x32 PUSH1 0x4 MSTORE PUSH1 0x24 PUSH1 0x0 REVERT JUMPDEST PUSH1 0x20 ADD ADD SWAP1 PUSH1 0x1 PUSH1 0x1 PUSH1 0xF8 SHL SUB NOT AND SWAP1 DUP2 PUSH1 0x0 BYTE SWAP1 MSTORE8 POP PUSH1 0x4 SWAP5 SWAP1 SWAP5 SHR SWAP4 PUSH2 0x48DC DUP2 PUSH2 0x51E1 JUMP JUMPDEST SWAP1 POP PUSH2 0x4845 JUMP JUMPDEST POP DUP4 ISZERO PUSH2 0x2722 JUMPI PUSH1 0x40 MLOAD PUSH3 0x461BCD PUSH1 0xE5 SHL DUP2 MSTORE PUSH1 0x20 PUSH1 0x4 DUP3 ADD DUP2 SWAP1 MSTORE PUSH1 0x24 DUP3 ADD MSTORE PUSH32 0x537472696E67733A20686578206C656E67746820696E73756666696369656E74 PUSH1 0x44 DUP3 ADD MSTORE PUSH1 0x64 ADD PUSH2 0xE54 JUMP JUMPDEST PUSH1 0x1 PUSH1 0x1 PUSH1 0xA0 SHL SUB DUP2 AND PUSH1 0x0 SWAP1 DUP2 MSTORE PUSH1 0x5 PUSH1 0x20 MSTORE PUSH1 0x40 SWAP1 KECCAK256 SLOAD PUSH2 0x1341 JUMPI PUSH1 0x40 DUP1 MLOAD PUSH1 0xA0 DUP2 ADD DUP3 MSTORE PUSH1 0x1 PUSH1 0x1 PUSH1 0xA0 SHL SUB SWAP3 DUP4 AND DUP1 DUP3 MSTORE PUSH1 0x1 PUSH1 0x20 DUP1 DUP5 ADD DUP3 DUP2 MSTORE DUP5 DUP7 ADD DUP4 DUP2 MSTORE PUSH1 0x60 DUP7 ADD DUP5 DUP2 MSTORE PUSH1 0x80 DUP8 ADD DUP6 DUP2 MSTORE PUSH1 0x6 DUP1 SLOAD SWAP7 DUP8 ADD DUP2 SSTORE PUSH1 0x0 DUP2 DUP2 MSTORE SWAP9 MLOAD PUSH32 0xF652222313E28459528D920B65115C16C04F3EFC82AAEDC97BE59F3F377C0D3F PUSH1 0x5 SWAP9 DUP10 MUL SWAP1 DUP2 ADD DUP1 SLOAD PUSH1 0x1 PUSH1 0x1 PUSH1 0xA0 SHL SUB NOT AND SWAP3 SWAP1 SWAP14 AND SWAP2 SWAP1 SWAP2 OR SWAP1 SWAP12 SSTORE SWAP4 MLOAD PUSH32 0xF652222313E28459528D920B65115C16C04F3EFC82AAEDC97BE59F3F377C0D40 DUP12 ADD SSTORE SWAP2 MLOAD PUSH32 0xF652222313E28459528D920B65115C16C04F3EFC82AAEDC97BE59F3F377C0D41 DUP11 ADD SSTORE MLOAD PUSH32 0xF652222313E28459528D920B65115C16C04F3EFC82AAEDC97BE59F3F377C0D42 DUP10 ADD SSTORE MLOAD PUSH32 0xF652222313E28459528D920B65115C16C04F3EFC82AAEDC97BE59F3F377C0D43 SWAP1 SWAP8 ADD SWAP7 SWAP1 SWAP7 SSTORE SWAP5 SLOAD SWAP2 DUP4 MSTORE SWAP1 SWAP4 MSTORE KECCAK256 SSTORE JUMP JUMPDEST PUSH1 0x0 DUP3 DUP2 MSTORE PUSH1 0x20 DUP2 DUP2 MSTORE PUSH1 0x40 DUP1 DUP4 KECCAK256 PUSH1 0x1 PUSH1 0x1 PUSH1 0xA0 SHL SUB DUP6 AND DUP5 MSTORE SWAP1 SWAP2 MSTORE SWAP1 KECCAK256 SLOAD PUSH1 0xFF AND ISZERO PUSH2 0x29BD JUMPI PUSH1 0x0 DUP3 DUP2 MSTORE PUSH1 0x20 DUP2 DUP2 MSTORE PUSH1 0x40 DUP1 DUP4 KECCAK256 PUSH1 0x1 PUSH1 0x1 PUSH1 0xA0 SHL SUB DUP6 AND DUP1 DUP6 MSTORE SWAP3 MSTORE DUP1 DUP4 KECCAK256 DUP1 SLOAD PUSH1 0xFF NOT AND SWAP1 SSTORE MLOAD CALLER SWAP3 DUP6 SWAP2 PUSH32 0xF6391F5C32D9C69D2A47EA670B442974B53935D1EDC7FD64EB21E047A839171B SWAP2 SWAP1 LOG4 POP POP JUMP JUMPDEST PUSH1 0x0 DUP2 DUP2 MSTORE PUSH1 0x1 DUP4 ADD PUSH1 0x20 MSTORE PUSH1 0x40 DUP2 KECCAK256 SLOAD DUP1 ISZERO PUSH2 0x4C0D JUMPI PUSH1 0x0 PUSH2 0x4B1E PUSH1 0x1 DUP4 PUSH2 0x519E JUMP JUMPDEST DUP6 SLOAD SWAP1 SWAP2 POP PUSH1 0x0 SWAP1 PUSH2 0x4B32 SWAP1 PUSH1 0x1 SWAP1 PUSH2 0x519E JUMP JUMPDEST SWAP1 POP DUP2 DUP2 EQ PUSH2 0x4BB3 JUMPI PUSH1 0x0 DUP7 PUSH1 0x0 ADD DUP3 DUP2 SLOAD DUP2 LT PUSH2 0x4B60 JUMPI PUSH4 0x4E487B71 PUSH1 0xE0 SHL PUSH1 0x0 MSTORE PUSH1 0x32 PUSH1 0x4 MSTORE PUSH1 0x24 PUSH1 0x0 REVERT JUMPDEST SWAP1 PUSH1 0x0 MSTORE PUSH1 0x20 PUSH1 0x0 KECCAK256 ADD SLOAD SWAP1 POP DUP1 DUP8 PUSH1 0x0 ADD DUP5 DUP2 SLOAD DUP2 LT PUSH2 0x4B91 JUMPI PUSH4 0x4E487B71 PUSH1 0xE0 SHL PUSH1 0x0 MSTORE PUSH1 0x32 PUSH1 0x4 MSTORE PUSH1 0x24 PUSH1 0x0 REVERT JUMPDEST PUSH1 0x0 SWAP2 DUP3 MSTORE PUSH1 0x20 DUP1 DUP4 KECCAK256 SWAP1 SWAP2 ADD SWAP3 SWAP1 SWAP3 SSTORE SWAP2 DUP3 MSTORE PUSH1 0x1 DUP9 ADD SWAP1 MSTORE PUSH1 0x40 SWAP1 KECCAK256 DUP4 SWAP1 SSTORE JUMPDEST DUP6 SLOAD DUP7 SWAP1 DUP1 PUSH2 0x4BD2 JUMPI PUSH4 0x4E487B71 PUSH1 0xE0 SHL PUSH1 0x0 MSTORE PUSH1 0x31 PUSH1 0x4 MSTORE PUSH1 0x24 PUSH1 0x0 REVERT JUMPDEST PUSH1 0x1 SWAP1 SUB DUP2 DUP2 SWAP1 PUSH1 0x0 MSTORE PUSH1 0x20 PUSH1 0x0 KECCAK256 ADD PUSH1 0x0 SWAP1 SSTORE SWAP1 SSTORE DUP6 PUSH1 0x1 ADD PUSH1 0x0 DUP7 DUP2 MSTORE PUSH1 0x20 ADD SWAP1 DUP2 MSTORE PUSH1 0x20 ADD PUSH1 0x0 KECCAK256 PUSH1 0x0 SWAP1 SSTORE PUSH1 0x1 SWAP4 POP POP POP POP PUSH2 0x1382 JUMP JUMPDEST PUSH1 0x0 SWAP2 POP POP PUSH2 0x1382 JUMP JUMPDEST PUSH1 0x0 DUP3 PUSH1 0x0 ADD DUP3 DUP2 SLOAD DUP2 LT PUSH2 0x4C3C JUMPI PUSH4 0x4E487B71 PUSH1 0xE0 SHL PUSH1 0x0 MSTORE PUSH1 0x32 PUSH1 0x4 MSTORE PUSH1 0x24 PUSH1 0x0 REVERT JUMPDEST SWAP1 PUSH1 0x0 MSTORE PUSH1 0x20 PUSH1 0x0 KECCAK256 ADD SLOAD SWAP1 POP SWAP3 SWAP2 POP POP JUMP JUMPDEST PUSH1 0x0 PUSH1 0x20 DUP3 DUP5 SUB SLT ISZERO PUSH2 0x4C60 JUMPI DUP1 DUP2 REVERT JUMPDEST DUP2 CALLDATALOAD PUSH2 0x2722 DUP2 PUSH2 0x5264 JUMP JUMPDEST PUSH1 0x0 PUSH1 0x20 DUP3 DUP5 SUB SLT ISZERO PUSH2 0x4C7C JUMPI DUP1 DUP2 REVERT JUMPDEST DUP2 MLOAD PUSH2 0x2722 DUP2 PUSH2 0x5264 JUMP JUMPDEST PUSH1 0x0 DUP1 PUSH1 0x20 DUP4 DUP6 SUB SLT ISZERO PUSH2 0x4C99 JUMPI DUP1 DUP2 REVERT JUMPDEST DUP3 CALLDATALOAD PUSH8 0xFFFFFFFFFFFFFFFF DUP1 DUP3 GT ISZERO PUSH2 0x4CB0 JUMPI DUP3 DUP4 REVERT JUMPDEST DUP2 DUP6 ADD SWAP2 POP DUP6 PUSH1 0x1F DUP4 ADD SLT PUSH2 0x4CC3 JUMPI DUP3 DUP4 REVERT JUMPDEST DUP2 CALLDATALOAD DUP2 DUP2 GT ISZERO PUSH2 0x4CD1 JUMPI DUP4 DUP5 REVERT JUMPDEST DUP7 PUSH1 0x20 DUP3 PUSH1 0x6 SHL DUP6 ADD ADD GT ISZERO PUSH2 0x4CE5 JUMPI DUP4 DUP5 REVERT JUMPDEST PUSH1 0x20 SWAP3 SWAP1 SWAP3 ADD SWAP7 SWAP2 SWAP6 POP SWAP1 SWAP4 POP POP POP POP JUMP JUMPDEST PUSH1 0x0 PUSH1 0x20 DUP3 DUP5 SUB SLT ISZERO PUSH2 0x4D08 JUMPI DUP1 DUP2 REVERT JUMPDEST DUP2 MLOAD DUP1 ISZERO ISZERO DUP2 EQ PUSH2 0x2722 JUMPI DUP2 DUP3 REVERT JUMPDEST PUSH1 0x0 PUSH1 0x20 DUP3 DUP5 SUB SLT ISZERO PUSH2 0x4D28 JUMPI DUP1 DUP2 REVERT JUMPDEST POP CALLDATALOAD SWAP2 SWAP1 POP JUMP JUMPDEST PUSH1 0x0 DUP1 PUSH1 0x40 DUP4 DUP6 SUB SLT ISZERO PUSH2 0x4D41 JUMPI DUP2 DUP3 REVERT JUMPDEST DUP3 CALLDATALOAD SWAP2 POP PUSH1 0x20 DUP4 ADD CALLDATALOAD PUSH2 0x4D53 DUP2 PUSH2 0x5264 JUMP JUMPDEST DUP1 SWAP2 POP POP SWAP3 POP SWAP3 SWAP1 POP JUMP JUMPDEST PUSH1 0x0 DUP1 PUSH1 0x40 DUP4 DUP6 SUB SLT ISZERO PUSH2 0x4D70 JUMPI DUP2 DUP3 REVERT JUMPDEST POP POP DUP1 CALLDATALOAD SWAP3 PUSH1 0x20 SWAP1 SWAP2 ADD CALLDATALOAD SWAP2 POP JUMP JUMPDEST PUSH1 0x0 PUSH1 0x20 DUP3 DUP5 SUB SLT ISZERO PUSH2 0x4D90 JUMPI DUP1 DUP2 REVERT JUMPDEST DUP2 CALLDATALOAD PUSH1 0x1 PUSH1 0x1 PUSH1 0xE0 SHL SUB NOT DUP2 AND DUP2 EQ PUSH2 0x2722 JUMPI DUP2 DUP3 REVERT JUMPDEST PUSH1 0x0 PUSH1 0x20 DUP3 DUP5 SUB SLT ISZERO PUSH2 0x4DB8 JUMPI DUP1 DUP2 REVERT JUMPDEST POP MLOAD SWAP2 SWAP1 POP JUMP JUMPDEST PUSH1 0x0 DUP1 PUSH1 0x0 PUSH1 0x60 DUP5 DUP7 SUB SLT ISZERO PUSH2 0x4DD3 JUMPI DUP1 DUP2 REVERT JUMPDEST POP POP DUP2 CALLDATALOAD SWAP4 PUSH1 0x20 DUP4 ADD CALLDATALOAD SWAP4 POP PUSH1 0x40 SWAP1 SWAP3 ADD CALLDATALOAD SWAP2 SWAP1 POP JUMP JUMPDEST PUSH1 0x0 DUP1 PUSH1 0x0 PUSH1 0x60 DUP5 DUP7 SUB SLT ISZERO PUSH2 0x4DFE JUMPI DUP3 DUP4 REVERT JUMPDEST DUP4 MLOAD SWAP3 POP PUSH1 0x20 DUP5 ADD MLOAD SWAP2 POP PUSH1 0x40 DUP5 ADD MLOAD PUSH4 0xFFFFFFFF DUP2 AND DUP2 EQ PUSH2 0x4E1F JUMPI DUP2 DUP3 REVERT JUMPDEST DUP1 SWAP2 POP POP SWAP3 POP SWAP3 POP SWAP3 JUMP JUMPDEST PUSH1 0x0 DUP2 MLOAD DUP1 DUP5 MSTORE PUSH2 0x4E42 DUP2 PUSH1 0x20 DUP7 ADD PUSH1 0x20 DUP7 ADD PUSH2 0x51B5 JUMP JUMPDEST PUSH1 0x1F ADD PUSH1 0x1F NOT AND SWAP3 SWAP1 SWAP3 ADD PUSH1 0x20 ADD SWAP3 SWAP2 POP POP JUMP JUMPDEST PUSH32 0x416363657373436F6E74726F6C3A206163636F756E7420000000000000000000 DUP2 MSTORE PUSH1 0x0 DUP4 MLOAD PUSH2 0x4E8E DUP2 PUSH1 0x17 DUP6 ADD PUSH1 0x20 DUP9 ADD PUSH2 0x51B5 JUMP JUMPDEST PUSH32 0x206973206D697373696E6720726F6C6520000000000000000000000000000000 PUSH1 0x17 SWAP2 DUP5 ADD SWAP2 DUP3 ADD MSTORE DUP4 MLOAD PUSH2 0x4ECB DUP2 PUSH1 0x28 DUP5 ADD PUSH1 0x20 DUP9 ADD PUSH2 0x51B5 JUMP JUMPDEST ADD PUSH1 0x28 ADD SWAP5 SWAP4 POP POP POP POP JUMP JUMPDEST PUSH1 0x1 PUSH1 0x1 PUSH1 0xA0 SHL SUB DUP7 AND DUP2 MSTORE PUSH1 0xA0 PUSH1 0x20 DUP3 ADD MSTORE PUSH1 0x0 PUSH2 0x4EF9 PUSH1 0xA0 DUP4 ADD DUP8 PUSH2 0x4E2A JUMP JUMPDEST PUSH1 0x40 DUP4 ADD SWAP6 SWAP1 SWAP6 MSTORE POP PUSH1 0x60 DUP2 ADD SWAP3 SWAP1 SWAP3 MSTORE PUSH1 0x80 SWAP1 SWAP2 ADD MSTORE SWAP3 SWAP2 POP POP JUMP JUMPDEST PUSH1 0x20 DUP1 DUP3 MSTORE DUP3 MLOAD DUP3 DUP3 ADD DUP2 SWAP1 MSTORE PUSH1 0x0 SWAP2 SWAP1 DUP5 DUP3 ADD SWAP1 PUSH1 0x40 DUP6 ADD SWAP1 DUP5 JUMPDEST DUP2 DUP2 LT ISZERO PUSH2 0x4F7C JUMPI PUSH2 0x4F69 DUP4 DUP6 MLOAD PUSH1 0x1 PUSH1 0x1 PUSH1 0xA0 SHL SUB DUP1 DUP3 MLOAD AND DUP4 MSTORE DUP1 PUSH1 0x20 DUP4 ADD MLOAD AND PUSH1 0x20 DUP5 ADD MSTORE POP PUSH1 0x40 DUP2 ADD MLOAD PUSH1 0x40 DUP4 ADD MSTORE POP POP JUMP JUMPDEST SWAP3 DUP5 ADD SWAP3 PUSH1 0x60 SWAP3 SWAP1 SWAP3 ADD SWAP2 PUSH1 0x1 ADD PUSH2 0x4F32 JUMP JUMPDEST POP SWAP1 SWAP7 SWAP6 POP POP POP POP POP POP JUMP JUMPDEST PUSH1 0x20 DUP1 DUP3 MSTORE DUP3 MLOAD DUP3 DUP3 ADD DUP2 SWAP1 MSTORE PUSH1 0x0 SWAP2 SWAP1 PUSH1 0x40 SWAP1 DUP2 DUP6 ADD SWAP1 DUP7 DUP5 ADD DUP6 JUMPDEST DUP3 DUP2 LT ISZERO PUSH2 0x4FDB JUMPI PUSH2 0x4FCB DUP5 DUP4 MLOAD DUP1 MLOAD PUSH1 0x1 PUSH1 0x1 PUSH1 0xA0 SHL SUB AND DUP3 MSTORE PUSH1 0x20 SWAP1 DUP2 ADD MLOAD SWAP2 ADD MSTORE JUMP JUMPDEST SWAP3 DUP5 ADD SWAP3 SWAP1 DUP6 ADD SWAP1 PUSH1 0x1 ADD PUSH2 0x4FA5 JUMP JUMPDEST POP SWAP2 SWAP8 SWAP7 POP POP POP POP POP POP POP JUMP JUMPDEST PUSH1 0x0 PUSH1 0x20 DUP1 DUP4 ADD DUP2 DUP5 MSTORE DUP1 DUP6 MLOAD DUP1 DUP4 MSTORE PUSH1 0x40 SWAP3 POP DUP3 DUP7 ADD SWAP2 POP DUP3 DUP2 PUSH1 0x5 SHL DUP8 ADD ADD DUP5 DUP9 ADD DUP7 JUMPDEST DUP4 DUP2 LT ISZERO PUSH2 0x5077 JUMPI PUSH1 0x3F NOT DUP10 DUP5 SUB ADD DUP6 MSTORE DUP2 MLOAD PUSH1 0xA0 PUSH1 0x1 PUSH1 0x1 PUSH1 0xA0 SHL SUB DUP3 MLOAD AND DUP6 MSTORE DUP9 DUP3 ADD MLOAD DUP2 DUP11 DUP8 ADD MSTORE PUSH2 0x5045 DUP3 DUP8 ADD DUP3 PUSH2 0x4E2A JUMP JUMPDEST DUP4 DUP11 ADD MLOAD DUP8 DUP12 ADD MSTORE PUSH1 0x60 DUP1 DUP6 ADD MLOAD SWAP1 DUP9 ADD MSTORE PUSH1 0x80 SWAP4 DUP5 ADD MLOAD SWAP4 SWAP1 SWAP7 ADD SWAP3 SWAP1 SWAP3 MSTORE POP POP SWAP4 DUP7 ADD SWAP4 SWAP1 DUP7 ADD SWAP1 PUSH1 0x1 ADD PUSH2 0x500E JUMP JUMPDEST POP SWAP1 SWAP9 SWAP8 POP POP POP POP POP POP POP POP JUMP JUMPDEST PUSH1 0x20 DUP2 ADD PUSH1 0x8 DUP4 LT PUSH2 0x50A7 JUMPI PUSH4 0x4E487B71 PUSH1 0xE0 SHL PUSH1 0x0 MSTORE PUSH1 0x21 PUSH1 0x4 MSTORE PUSH1 0x24 PUSH1 0x0 REVERT JUMPDEST SWAP2 SWAP1 MSTORE SWAP1 JUMP JUMPDEST PUSH1 0x20 DUP2 MSTORE PUSH1 0x0 PUSH2 0x2722 PUSH1 0x20 DUP4 ADD DUP5 PUSH2 0x4E2A JUMP JUMPDEST DUP2 MLOAD PUSH1 0x1 PUSH1 0x1 PUSH1 0xA0 SHL SUB SWAP1 DUP2 AND DUP3 MSTORE PUSH1 0x20 DUP1 DUP5 ADD MLOAD SWAP1 SWAP2 AND SWAP1 DUP3 ADD MSTORE PUSH1 0x40 DUP1 DUP4 ADD MLOAD SWAP1 DUP3 ADD MSTORE PUSH1 0x60 DUP2 ADD PUSH2 0x1382 JUMP JUMPDEST DUP2 MLOAD PUSH1 0x1 PUSH1 0x1 PUSH1 0xA0 SHL SUB AND DUP2 MSTORE PUSH1 0x20 DUP1 DUP4 ADD MLOAD SWAP1 DUP3 ADD MSTORE PUSH1 0x40 DUP2 ADD PUSH2 0x1382 JUMP JUMPDEST DUP5 DUP2 MSTORE DUP4 PUSH1 0x20 DUP3 ADD MSTORE PUSH1 0x1 PUSH1 0x1 PUSH1 0xA0 SHL SUB DUP4 AND PUSH1 0x40 DUP3 ADD MSTORE PUSH1 0x80 PUSH1 0x60 DUP3 ADD MSTORE PUSH1 0x0 PUSH2 0x513D PUSH1 0x80 DUP4 ADD DUP5 PUSH2 0x4E2A JUMP JUMPDEST SWAP7 SWAP6 POP POP POP POP POP POP JUMP JUMPDEST PUSH1 0x0 DUP3 NOT DUP3 GT ISZERO PUSH2 0x515A JUMPI PUSH2 0x515A PUSH2 0x524E JUMP JUMPDEST POP ADD SWAP1 JUMP JUMPDEST PUSH1 0x0 DUP3 PUSH2 0x517A JUMPI PUSH4 0x4E487B71 PUSH1 0xE0 SHL DUP2 MSTORE PUSH1 0x12 PUSH1 0x4 MSTORE PUSH1 0x24 DUP2 REVERT JUMPDEST POP DIV SWAP1 JUMP JUMPDEST PUSH1 0x0 DUP2 PUSH1 0x0 NOT DIV DUP4 GT DUP3 ISZERO ISZERO AND ISZERO PUSH2 0x5199 JUMPI PUSH2 0x5199 PUSH2 0x524E JUMP JUMPDEST POP MUL SWAP1 JUMP JUMPDEST PUSH1 0x0 DUP3 DUP3 LT ISZERO PUSH2 0x51B0 JUMPI PUSH2 0x51B0 PUSH2 0x524E JUMP JUMPDEST POP SUB SWAP1 JUMP JUMPDEST PUSH1 0x0 JUMPDEST DUP4 DUP2 LT ISZERO PUSH2 0x51D0 JUMPI DUP2 DUP2 ADD MLOAD DUP4 DUP3 ADD MSTORE PUSH1 0x20 ADD PUSH2 0x51B8 JUMP JUMPDEST DUP4 DUP2 GT ISZERO PUSH2 0x141B JUMPI POP POP PUSH1 0x0 SWAP2 ADD MSTORE JUMP JUMPDEST PUSH1 0x0 DUP2 PUSH2 0x51F0 JUMPI PUSH2 0x51F0 PUSH2 0x524E JUMP JUMPDEST POP PUSH1 0x0 NOT ADD SWAP1 JUMP JUMPDEST PUSH1 0x1 DUP2 DUP2 SHR SWAP1 DUP3 AND DUP1 PUSH2 0x520C JUMPI PUSH1 0x7F DUP3 AND SWAP2 POP JUMPDEST PUSH1 0x20 DUP3 LT DUP2 EQ ISZERO PUSH2 0x522D JUMPI PUSH4 0x4E487B71 PUSH1 0xE0 SHL PUSH1 0x0 MSTORE PUSH1 0x22 PUSH1 0x4 MSTORE PUSH1 0x24 PUSH1 0x0 REVERT JUMPDEST POP SWAP2 SWAP1 POP JUMP JUMPDEST PUSH1 0x0 PUSH1 0x0 NOT DUP3 EQ ISZERO PUSH2 0x5247 JUMPI PUSH2 0x5247 PUSH2 0x524E JUMP JUMPDEST POP PUSH1 0x1 ADD SWAP1 JUMP JUMPDEST PUSH4 0x4E487B71 PUSH1 0xE0 SHL PUSH1 0x0 MSTORE PUSH1 0x11 PUSH1 0x4 MSTORE PUSH1 0x24 PUSH1 0x0 REVERT JUMPDEST PUSH1 0x1 PUSH1 0x1 PUSH1 0xA0 SHL SUB DUP2 AND DUP2 EQ PUSH2 0x1341 JUMPI PUSH1 0x0 DUP1 REVERT INVALID LOG2 PUSH5 0x6970667358 0x22 SLT KECCAK256 0xD6 EXTCODECOPY 0x26 OR 0xB8 RETURNDATASIZE MSTORE 0x26 PUSH1 0xD8 AND PUSH26 0x137E519C218ED70564EB5E41D939EADA015105AA64736F6C6343 STOP ADDMOD DIV STOP CALLER PUSH9 0x747470733A2F2F6C61 PUSH14 0x626F2E64656669666163746F7279 0x2E PUSH7 0x696E616E636500 "
		},
		"gasEstimates": {
			"creation": {
				"codeDepositCost": "4233400",
				"executionCost": "infinite",
				"totalCost": "infinite"
			},
			"external": {
				"BURN_ADDRESS()": "326",
				"DEFT_TOKEN_ADDRESS()": "1150",
				"ROLE_ADMIN()": "274",
				"TEAM_FINANCE_ADDRESS()": "1106",
				"UNISWAP_V2_FACTORY_ADDRESS()": "1150",
				"UNISWAP_V2_ROUTER_ADDRESS()": "1127",
				"USDT_TOKEN_ADDRESS()": "1171",
				"WETH_TOKEN_ADDRESS()": "1149",
				"addLiquidityOnUniswapV2()": "infinite",
				"amountOfTokensForInvestors()": "1095",
				"cachedIndexInvestors(address)": "1335",
				"cachedIndexReferrals(address)": "1314",
				"cachedIndexTokenomics(address)": "1316",
				"cachedIndexVesting(address)": "1291",
				"changeStateIfAllVestingWasSet()": "infinite",
				"checkIfAllVestingWasSet()": "infinite",
				"checkIfPairIsCreated()": "infinite",
				"claimVesting()": "infinite",
				"deftAndTokenPairContract()": "1127",
				"emergencyRefund(uint256,uint256)": "infinite",
				"fixedPriceInDeft()": "1073",
				"getAvailableVestingTokens(address)": "infinite",
				"getInvestorByAddr(address)": "5099",
				"getInvestorByPos(uint256)": "4067",
				"getInvestorsCount()": "1114",
				"getReferralByAddr(address)": "4179",
				"getReferralByPos(uint256)": "3122",
				"getReferralsCount()": "1071",
				"getRoleAdmin(bytes32)": "1227",
				"getRoleMember(bytes32,uint256)": "infinite",
				"getRoleMemberCount(bytes32)": "infinite",
				"getTokenomics()": "infinite",
				"getTotalInvestmentsStatistics()": "1896",
				"getUniswapSupplyPercent()": "infinite",
				"getWalletStatistics(address)": "infinite",
				"grantRole(bytes32,address)": "infinite",
				"grantRolesBulk((bytes32,address)[])": "infinite",
				"hasRole(bytes32,address)": "1439",
				"invest(address)": "infinite",
				"investors(uint256)": "3847",
				"listInvestors(uint256,uint256)": "5800",
				"listReferrals(uint256,uint256)": "4925",
				"markGoalAsReached()": "infinite",
				"prepareAddLiqudity()": "infinite",
				"presaleLockedFor()": "1073",
				"presaleName()": "infinite",
				"presaleVestedFor()": "1075",
				"refPercent()": "1118",
				"referrals(uint256)": "2942",
				"referralsLockedFor()": "1118",
				"referralsVestedFor()": "1119",
				"renounceRole(bytes32,address)": "infinite",
				"revokeRole(bytes32,address)": "infinite",
				"setVestingForInvestorsTokens(uint256,uint256)": "infinite",
				"setVestingForReferralsTokens(uint256,uint256)": "infinite",
				"setVestingForTokenomicsTokens()": "infinite",
				"skipSteps1()": "infinite",
				"skipSteps2(uint256)": "infinite",
				"state()": "1162",
				"supportsInterface(bytes4)": "infinite",
				"telegram()": "infinite",
				"tokenAddress()": "1149",
				"tokenomics(uint256)": "infinite",
				"totalTokenSupply()": "1097",
				"uniswapLiquidityLockedFor()": "1117",
				"updateCaps(uint256,uint256,uint256)": "infinite",
				"updateFixedPriceInDeft(uint256)": "infinite",
				"updateTokenContract(address)": "infinite",
				"vesting(uint256)": "5438",
				"website()": "infinite"
			},
			"internal": {
				"addInvestor(address,address,uint256)": "infinite",
				"addReferral(address,uint256)": "infinite",
				"addTokenomics(address,string memory,uint256,uint256,uint256)": "infinite",
				"changeState(enum PresaleContract.States)": "infinite",
				"createVestingIfDoesNotExist(address)": "infinite"
			}
		},
		"methodIdentifiers": {
			"BURN_ADDRESS()": "fccc2813",
			"DEFT_TOKEN_ADDRESS()": "25382ec8",
			"ROLE_ADMIN()": "d391014b",
			"TEAM_FINANCE_ADDRESS()": "091f90c2",
			"UNISWAP_V2_FACTORY_ADDRESS()": "884ec7a9",
			"UNISWAP_V2_ROUTER_ADDRESS()": "a2846323",
			"USDT_TOKEN_ADDRESS()": "4d286a3d",
			"WETH_TOKEN_ADDRESS()": "579a7e1a",
			"addLiquidityOnUniswapV2()": "9b214950",
			"amountOfTokensForInvestors()": "dd74075c",
			"cachedIndexInvestors(address)": "7e4c7eb2",
			"cachedIndexReferrals(address)": "cc138c8e",
			"cachedIndexTokenomics(address)": "01cb5dfd",
			"cachedIndexVesting(address)": "edc7ff2a",
			"changeStateIfAllVestingWasSet()": "c88188a3",
			"checkIfAllVestingWasSet()": "70f1b331",
			"checkIfPairIsCreated()": "0155ecaf",
			"claimVesting()": "fedda89c",
			"deftAndTokenPairContract()": "279bb95e",
			"emergencyRefund(uint256,uint256)": "1f96b8ab",
			"fixedPriceInDeft()": "e72a443b",
			"getAvailableVestingTokens(address)": "f9c75699",
			"getInvestorByAddr(address)": "65069863",
			"getInvestorByPos(uint256)": "286777d0",
			"getInvestorsCount()": "ed21187a",
			"getReferralByAddr(address)": "b2c1e72a",
			"getReferralByPos(uint256)": "573620a7",
			"getReferralsCount()": "443926db",
			"getRoleAdmin(bytes32)": "248a9ca3",
			"getRoleMember(bytes32,uint256)": "9010d07c",
			"getRoleMemberCount(bytes32)": "ca15c873",
			"getTokenomics()": "ee2923d9",
			"getTotalInvestmentsStatistics()": "dbcac674",
			"getUniswapSupplyPercent()": "9e57003c",
			"getWalletStatistics(address)": "04215d5a",
			"grantRole(bytes32,address)": "2f2ff15d",
			"grantRolesBulk((bytes32,address)[])": "03ed957f",
			"hasRole(bytes32,address)": "91d14854",
			"invest(address)": "03f9c793",
			"investors(uint256)": "3feb5f2b",
			"listInvestors(uint256,uint256)": "818a36a1",
			"listReferrals(uint256,uint256)": "e70d8fdc",
			"markGoalAsReached()": "42f60cb5",
			"prepareAddLiqudity()": "5f6577a8",
			"presaleLockedFor()": "6d8ca924",
			"presaleName()": "e650e512",
			"presaleVestedFor()": "4175266f",
			"refPercent()": "59d5335b",
			"referrals(uint256)": "80b7c92b",
			"referralsLockedFor()": "cd496b4b",
			"referralsVestedFor()": "8e505f09",
			"renounceRole(bytes32,address)": "36568abe",
			"revokeRole(bytes32,address)": "d547741f",
			"setVestingForInvestorsTokens(uint256,uint256)": "010bd419",
			"setVestingForReferralsTokens(uint256,uint256)": "99f96c51",
			"setVestingForTokenomicsTokens()": "9248b04a",
			"skipSteps1()": "0b293a31",
			"skipSteps2(uint256)": "39fc1128",
			"state()": "c19d93fb",
			"supportsInterface(bytes4)": "01ffc9a7",
			"telegram()": "47ecb665",
			"tokenAddress()": "9d76ea58",
			"tokenomics(uint256)": "087a2daf",
			"totalTokenSupply()": "1ca8b6cb",
			"uniswapLiquidityLockedFor()": "c6c2afc3",
			"updateCaps(uint256,uint256,uint256)": "ebac6505",
			"updateFixedPriceInDeft(uint256)": "4f6f7811",
			"updateTokenContract(address)": "989ced26",
			"vesting(uint256)": "2ffac82c",
			"website()": "beb0a416"
		}
	},
	"abi": [
		{
			"inputs": [],
			"stateMutability": "nonpayable",
			"type": "constructor"
		},
		{
			"anonymous": false,
			"inputs": [
				{
					"indexed": true,
					"internalType": "bytes32",
					"name": "role",
					"type": "bytes32"
				},
				{
					"indexed": true,
					"internalType": "bytes32",
					"name": "previousAdminRole",
					"type": "bytes32"
				},
				{
					"indexed": true,
					"internalType": "bytes32",
					"name": "newAdminRole",
					"type": "bytes32"
				}
			],
			"name": "RoleAdminChanged",
			"type": "event"
		},
		{
			"anonymous": false,
			"inputs": [
				{
					"indexed": true,
					"internalType": "bytes32",
					"name": "role",
					"type": "bytes32"
				},
				{
					"indexed": true,
					"internalType": "address",
					"name": "account",
					"type": "address"
				},
				{
					"indexed": true,
					"internalType": "address",
					"name": "sender",
					"type": "address"
				}
			],
			"name": "RoleGranted",
			"type": "event"
		},
		{
			"anonymous": false,
			"inputs": [
				{
					"indexed": true,
					"internalType": "bytes32",
					"name": "role",
					"type": "bytes32"
				},
				{
					"indexed": true,
					"internalType": "address",
					"name": "account",
					"type": "address"
				},
				{
					"indexed": true,
					"internalType": "address",
					"name": "sender",
					"type": "address"
				}
			],
			"name": "RoleRevoked",
			"type": "event"
		},
		{
			"anonymous": false,
			"inputs": [
				{
					"indexed": false,
					"internalType": "enum PresaleContract.States",
					"name": "newState",
					"type": "uint8"
				}
			],
			"name": "StateChanged",
			"type": "event"
		},
		{
			"inputs": [],
			"name": "BURN_ADDRESS",
			"outputs": [
				{
					"internalType": "address",
					"name": "",
					"type": "address"
				}
			],
			"stateMutability": "view",
			"type": "function"
		},
		{
			"inputs": [],
			"name": "DEFT_TOKEN_ADDRESS",
			"outputs": [
				{
					"internalType": "address",
					"name": "",
					"type": "address"
				}
			],
			"stateMutability": "view",
			"type": "function"
		},
		{
			"inputs": [],
			"name": "ROLE_ADMIN",
			"outputs": [
				{
					"internalType": "bytes32",
					"name": "",
					"type": "bytes32"
				}
			],
			"stateMutability": "view",
			"type": "function"
		},
		{
			"inputs": [],
			"name": "TEAM_FINANCE_ADDRESS",
			"outputs": [
				{
					"internalType": "address",
					"name": "",
					"type": "address"
				}
			],
			"stateMutability": "view",
			"type": "function"
		},
		{
			"inputs": [],
			"name": "UNISWAP_V2_FACTORY_ADDRESS",
			"outputs": [
				{
					"internalType": "address",
					"name": "",
					"type": "address"
				}
			],
			"stateMutability": "view",
			"type": "function"
		},
		{
			"inputs": [],
			"name": "UNISWAP_V2_ROUTER_ADDRESS",
			"outputs": [
				{
					"internalType": "address",
					"name": "",
					"type": "address"
				}
			],
			"stateMutability": "view",
			"type": "function"
		},
		{
			"inputs": [],
			"name": "USDT_TOKEN_ADDRESS",
			"outputs": [
				{
					"internalType": "address",
					"name": "",
					"type": "address"
				}
			],
			"stateMutability": "view",
			"type": "function"
		},
		{
			"inputs": [],
			"name": "WETH_TOKEN_ADDRESS",
			"outputs": [
				{
					"internalType": "address",
					"name": "",
					"type": "address"
				}
			],
			"stateMutability": "view",
			"type": "function"
		},
		{
			"inputs": [],
			"name": "addLiquidityOnUniswapV2",
			"outputs": [],
			"stateMutability": "nonpayable",
			"type": "function"
		},
		{
			"inputs": [],
			"name": "amountOfTokensForInvestors",
			"outputs": [
				{
					"internalType": "uint256",
					"name": "",
					"type": "uint256"
				}
			],
			"stateMutability": "view",
			"type": "function"
		},
		{
			"inputs": [
				{
					"internalType": "address",
					"name": "",
					"type": "address"
				}
			],
			"name": "cachedIndexInvestors",
			"outputs": [
				{
					"internalType": "uint256",
					"name": "",
					"type": "uint256"
				}
			],
			"stateMutability": "view",
			"type": "function"
		},
		{
			"inputs": [
				{
					"internalType": "address",
					"name": "",
					"type": "address"
				}
			],
			"name": "cachedIndexReferrals",
			"outputs": [
				{
					"internalType": "uint256",
					"name": "",
					"type": "uint256"
				}
			],
			"stateMutability": "view",
			"type": "function"
		},
		{
			"inputs": [
				{
					"internalType": "address",
					"name": "",
					"type": "address"
				}
			],
			"name": "cachedIndexTokenomics",
			"outputs": [
				{
					"internalType": "uint256",
					"name": "",
					"type": "uint256"
				}
			],
			"stateMutability": "view",
			"type": "function"
		},
		{
			"inputs": [
				{
					"internalType": "address",
					"name": "",
					"type": "address"
				}
			],
			"name": "cachedIndexVesting",
			"outputs": [
				{
					"internalType": "uint256",
					"name": "",
					"type": "uint256"
				}
			],
			"stateMutability": "view",
			"type": "function"
		},
		{
			"inputs": [],
			"name": "changeStateIfAllVestingWasSet",
			"outputs": [],
			"stateMutability": "nonpayable",
			"type": "function"
		},
		{
			"inputs": [],
			"name": "checkIfAllVestingWasSet",
			"outputs": [
				{
					"internalType": "bool",
					"name": "",
					"type": "bool"
				}
			],
			"stateMutability": "view",
			"type": "function"
		},
		{
			"inputs": [],
			"name": "checkIfPairIsCreated",
			"outputs": [],
			"stateMutability": "nonpayable",
			"type": "function"
		},
		{
			"inputs": [],
			"name": "claimVesting",
			"outputs": [],
			"stateMutability": "nonpayable",
			"type": "function"
		},
		{
			"inputs": [],
			"name": "deftAndTokenPairContract",
			"outputs": [
				{
					"internalType": "address",
					"name": "",
					"type": "address"
				}
			],
			"stateMutability": "view",
			"type": "function"
		},
		{
			"inputs": [
				{
					"internalType": "uint256",
					"name": "offset",
					"type": "uint256"
				},
				{
					"internalType": "uint256",
					"name": "limit",
					"type": "uint256"
				}
			],
			"name": "emergencyRefund",
			"outputs": [],
			"stateMutability": "nonpayable",
			"type": "function"
		},
		{
			"inputs": [],
			"name": "fixedPriceInDeft",
			"outputs": [
				{
					"internalType": "uint256",
					"name": "",
					"type": "uint256"
				}
			],
			"stateMutability": "view",
			"type": "function"
		},
		{
			"inputs": [
				{
					"internalType": "address",
					"name": "addr",
					"type": "address"
				}
			],
			"name": "getAvailableVestingTokens",
			"outputs": [
				{
					"internalType": "uint256",
					"name": "",
					"type": "uint256"
				}
			],
			"stateMutability": "view",
			"type": "function"
		},
		{
			"inputs": [
				{
					"internalType": "address",
					"name": "addr",
					"type": "address"
				}
			],
			"name": "getInvestorByAddr",
			"outputs": [
				{
					"components": [
						{
							"internalType": "address",
							"name": "investorAddr",
							"type": "address"
						},
						{
							"internalType": "address",
							"name": "referralAddr",
							"type": "address"
						},
						{
							"internalType": "uint256",
							"name": "wethValue",
							"type": "uint256"
						}
					],
					"internalType": "struct PresaleContract.Investor",
					"name": "",
					"type": "tuple"
				}
			],
			"stateMutability": "view",
			"type": "function"
		},
		{
			"inputs": [
				{
					"internalType": "uint256",
					"name": "pos",
					"type": "uint256"
				}
			],
			"name": "getInvestorByPos",
			"outputs": [
				{
					"components": [
						{
							"internalType": "address",
							"name": "investorAddr",
							"type": "address"
						},
						{
							"internalType": "address",
							"name": "referralAddr",
							"type": "address"
						},
						{
							"internalType": "uint256",
							"name": "wethValue",
							"type": "uint256"
						}
					],
					"internalType": "struct PresaleContract.Investor",
					"name": "",
					"type": "tuple"
				}
			],
			"stateMutability": "view",
			"type": "function"
		},
		{
			"inputs": [],
			"name": "getInvestorsCount",
			"outputs": [
				{
					"internalType": "uint256",
					"name": "",
					"type": "uint256"
				}
			],
			"stateMutability": "view",
			"type": "function"
		},
		{
			"inputs": [
				{
					"internalType": "address",
					"name": "addr",
					"type": "address"
				}
			],
			"name": "getReferralByAddr",
			"outputs": [
				{
					"components": [
						{
							"internalType": "address",
							"name": "referralAddr",
							"type": "address"
						},
						{
							"internalType": "uint256",
							"name": "earnings",
							"type": "uint256"
						}
					],
					"internalType": "struct PresaleContract.Referral",
					"name": "",
					"type": "tuple"
				}
			],
			"stateMutability": "view",
			"type": "function"
		},
		{
			"inputs": [
				{
					"internalType": "uint256",
					"name": "pos",
					"type": "uint256"
				}
			],
			"name": "getReferralByPos",
			"outputs": [
				{
					"components": [
						{
							"internalType": "address",
							"name": "referralAddr",
							"type": "address"
						},
						{
							"internalType": "uint256",
							"name": "earnings",
							"type": "uint256"
						}
					],
					"internalType": "struct PresaleContract.Referral",
					"name": "",
					"type": "tuple"
				}
			],
			"stateMutability": "view",
			"type": "function"
		},
		{
			"inputs": [],
			"name": "getReferralsCount",
			"outputs": [
				{
					"internalType": "uint256",
					"name": "",
					"type": "uint256"
				}
			],
			"stateMutability": "view",
			"type": "function"
		},
		{
			"inputs": [
				{
					"internalType": "bytes32",
					"name": "role",
					"type": "bytes32"
				}
			],
			"name": "getRoleAdmin",
			"outputs": [
				{
					"internalType": "bytes32",
					"name": "",
					"type": "bytes32"
				}
			],
			"stateMutability": "view",
			"type": "function"
		},
		{
			"inputs": [
				{
					"internalType": "bytes32",
					"name": "role",
					"type": "bytes32"
				},
				{
					"internalType": "uint256",
					"name": "index",
					"type": "uint256"
				}
			],
			"name": "getRoleMember",
			"outputs": [
				{
					"internalType": "address",
					"name": "",
					"type": "address"
				}
			],
			"stateMutability": "view",
			"type": "function"
		},
		{
			"inputs": [
				{
					"internalType": "bytes32",
					"name": "role",
					"type": "bytes32"
				}
			],
			"name": "getRoleMemberCount",
			"outputs": [
				{
					"internalType": "uint256",
					"name": "",
					"type": "uint256"
				}
			],
			"stateMutability": "view",
			"type": "function"
		},
		{
			"inputs": [],
			"name": "getTokenomics",
			"outputs": [
				{
					"components": [
						{
							"internalType": "address",
							"name": "tokenomicsAddr",
							"type": "address"
						},
						{
							"internalType": "string",
							"name": "tokenomicsName",
							"type": "string"
						},
						{
							"internalType": "uint256",
							"name": "tokenomicsPercentage",
							"type": "uint256"
						},
						{
							"internalType": "uint256",
							"name": "tokenomicsLockedForXSeconds",
							"type": "uint256"
						},
						{
							"internalType": "uint256",
							"name": "tokenomicsVestedForXSeconds",
							"type": "uint256"
						}
					],
					"internalType": "struct PresaleContract.Tokenomics[]",
					"name": "",
					"type": "tuple[]"
				}
			],
			"stateMutability": "view",
			"type": "function"
		},
		{
			"inputs": [],
			"name": "getTotalInvestmentsStatistics",
			"outputs": [
				{
					"internalType": "uint256",
					"name": "",
					"type": "uint256"
				},
				{
					"internalType": "uint256",
					"name": "",
					"type": "uint256"
				}
			],
			"stateMutability": "view",
			"type": "function"
		},
		{
			"inputs": [],
			"name": "getUniswapSupplyPercent",
			"outputs": [
				{
					"internalType": "uint256",
					"name": "",
					"type": "uint256"
				}
			],
			"stateMutability": "view",
			"type": "function"
		},
		{
			"inputs": [
				{
					"internalType": "address",
					"name": "addr",
					"type": "address"
				}
			],
			"name": "getWalletStatistics",
			"outputs": [
				{
					"internalType": "uint256",
					"name": "",
					"type": "uint256"
				},
				{
					"internalType": "uint256",
					"name": "",
					"type": "uint256"
				},
				{
					"internalType": "uint256",
					"name": "",
					"type": "uint256"
				},
				{
					"internalType": "uint256",
					"name": "",
					"type": "uint256"
				}
			],
			"stateMutability": "view",
			"type": "function"
		},
		{
			"inputs": [
				{
					"internalType": "bytes32",
					"name": "role",
					"type": "bytes32"
				},
				{
					"internalType": "address",
					"name": "account",
					"type": "address"
				}
			],
			"name": "grantRole",
			"outputs": [],
			"stateMutability": "nonpayable",
			"type": "function"
		},
		{
			"inputs": [
				{
					"components": [
						{
							"internalType": "bytes32",
							"name": "role",
							"type": "bytes32"
						},
						{
							"internalType": "address",
							"name": "addr",
							"type": "address"
						}
					],
					"internalType": "struct RoleAccess[]",
					"name": "roles",
					"type": "tuple[]"
				}
			],
			"name": "grantRolesBulk",
			"outputs": [],
			"stateMutability": "nonpayable",
			"type": "function"
		},
		{
			"inputs": [
				{
					"internalType": "bytes32",
					"name": "role",
					"type": "bytes32"
				},
				{
					"internalType": "address",
					"name": "account",
					"type": "address"
				}
			],
			"name": "hasRole",
			"outputs": [
				{
					"internalType": "bool",
					"name": "",
					"type": "bool"
				}
			],
			"stateMutability": "view",
			"type": "function"
		},
		{
			"inputs": [
				{
					"internalType": "address",
					"name": "referralAddr",
					"type": "address"
				}
			],
			"name": "invest",
			"outputs": [],
			"stateMutability": "payable",
			"type": "function"
		},
		{
			"inputs": [
				{
					"internalType": "uint256",
					"name": "",
					"type": "uint256"
				}
			],
			"name": "investors",
			"outputs": [
				{
					"internalType": "address",
					"name": "investorAddr",
					"type": "address"
				},
				{
					"internalType": "address",
					"name": "referralAddr",
					"type": "address"
				},
				{
					"internalType": "uint256",
					"name": "wethValue",
					"type": "uint256"
				}
			],
			"stateMutability": "view",
			"type": "function"
		},
		{
			"inputs": [
				{
					"internalType": "uint256",
					"name": "offset",
					"type": "uint256"
				},
				{
					"internalType": "uint256",
					"name": "limit",
					"type": "uint256"
				}
			],
			"name": "listInvestors",
			"outputs": [
				{
					"components": [
						{
							"internalType": "address",
							"name": "investorAddr",
							"type": "address"
						},
						{
							"internalType": "address",
							"name": "referralAddr",
							"type": "address"
						},
						{
							"internalType": "uint256",
							"name": "wethValue",
							"type": "uint256"
						}
					],
					"internalType": "struct PresaleContract.Investor[]",
					"name": "",
					"type": "tuple[]"
				}
			],
			"stateMutability": "view",
			"type": "function"
		},
		{
			"inputs": [
				{
					"internalType": "uint256",
					"name": "offset",
					"type": "uint256"
				},
				{
					"internalType": "uint256",
					"name": "limit",
					"type": "uint256"
				}
			],
			"name": "listReferrals",
			"outputs": [
				{
					"components": [
						{
							"internalType": "address",
							"name": "referralAddr",
							"type": "address"
						},
						{
							"internalType": "uint256",
							"name": "earnings",
							"type": "uint256"
						}
					],
					"internalType": "struct PresaleContract.Referral[]",
					"name": "",
					"type": "tuple[]"
				}
			],
			"stateMutability": "view",
			"type": "function"
		},
		{
			"inputs": [],
			"name": "markGoalAsReached",
			"outputs": [],
			"stateMutability": "nonpayable",
			"type": "function"
		},
		{
			"inputs": [],
			"name": "prepareAddLiqudity",
			"outputs": [],
			"stateMutability": "nonpayable",
			"type": "function"
		},
		{
			"inputs": [],
			"name": "presaleLockedFor",
			"outputs": [
				{
					"internalType": "uint256",
					"name": "",
					"type": "uint256"
				}
			],
			"stateMutability": "view",
			"type": "function"
		},
		{
			"inputs": [],
			"name": "presaleName",
			"outputs": [
				{
					"internalType": "string",
					"name": "",
					"type": "string"
				}
			],
			"stateMutability": "view",
			"type": "function"
		},
		{
			"inputs": [],
			"name": "presaleVestedFor",
			"outputs": [
				{
					"internalType": "uint256",
					"name": "",
					"type": "uint256"
				}
			],
			"stateMutability": "view",
			"type": "function"
		},
		{
			"inputs": [],
			"name": "refPercent",
			"outputs": [
				{
					"internalType": "uint256",
					"name": "",
					"type": "uint256"
				}
			],
			"stateMutability": "view",
			"type": "function"
		},
		{
			"inputs": [
				{
					"internalType": "uint256",
					"name": "",
					"type": "uint256"
				}
			],
			"name": "referrals",
			"outputs": [
				{
					"internalType": "address",
					"name": "referralAddr",
					"type": "address"
				},
				{
					"internalType": "uint256",
					"name": "earnings",
					"type": "uint256"
				}
			],
			"stateMutability": "view",
			"type": "function"
		},
		{
			"inputs": [],
			"name": "referralsLockedFor",
			"outputs": [
				{
					"internalType": "uint256",
					"name": "",
					"type": "uint256"
				}
			],
			"stateMutability": "view",
			"type": "function"
		},
		{
			"inputs": [],
			"name": "referralsVestedFor",
			"outputs": [
				{
					"internalType": "uint256",
					"name": "",
					"type": "uint256"
				}
			],
			"stateMutability": "view",
			"type": "function"
		},
		{
			"inputs": [
				{
					"internalType": "bytes32",
					"name": "role",
					"type": "bytes32"
				},
				{
					"internalType": "address",
					"name": "account",
					"type": "address"
				}
			],
			"name": "renounceRole",
			"outputs": [],
			"stateMutability": "nonpayable",
			"type": "function"
		},
		{
			"inputs": [
				{
					"internalType": "bytes32",
					"name": "role",
					"type": "bytes32"
				},
				{
					"internalType": "address",
					"name": "account",
					"type": "address"
				}
			],
			"name": "revokeRole",
			"outputs": [],
			"stateMutability": "nonpayable",
			"type": "function"
		},
		{
			"inputs": [
				{
					"internalType": "uint256",
					"name": "offset",
					"type": "uint256"
				},
				{
					"internalType": "uint256",
					"name": "limit",
					"type": "uint256"
				}
			],
			"name": "setVestingForInvestorsTokens",
			"outputs": [],
			"stateMutability": "nonpayable",
			"type": "function"
		},
		{
			"inputs": [
				{
					"internalType": "uint256",
					"name": "offset",
					"type": "uint256"
				},
				{
					"internalType": "uint256",
					"name": "limit",
					"type": "uint256"
				}
			],
			"name": "setVestingForReferralsTokens",
			"outputs": [],
			"stateMutability": "nonpayable",
			"type": "function"
		},
		{
			"inputs": [],
			"name": "setVestingForTokenomicsTokens",
			"outputs": [],
			"stateMutability": "nonpayable",
			"type": "function"
		},
		{
			"inputs": [],
			"name": "skipSteps1",
			"outputs": [],
			"stateMutability": "nonpayable",
			"type": "function"
		},
		{
			"inputs": [
				{
					"internalType": "uint256",
					"name": "limit",
					"type": "uint256"
				}
			],
			"name": "skipSteps2",
			"outputs": [],
			"stateMutability": "nonpayable",
			"type": "function"
		},
		{
			"inputs": [],
			"name": "state",
			"outputs": [
				{
					"internalType": "enum PresaleContract.States",
					"name": "",
					"type": "uint8"
				}
			],
			"stateMutability": "view",
			"type": "function"
		},
		{
			"inputs": [
				{
					"internalType": "bytes4",
					"name": "interfaceId",
					"type": "bytes4"
				}
			],
			"name": "supportsInterface",
			"outputs": [
				{
					"internalType": "bool",
					"name": "",
					"type": "bool"
				}
			],
			"stateMutability": "view",
			"type": "function"
		},
		{
			"inputs": [],
			"name": "telegram",
			"outputs": [
				{
					"internalType": "string",
					"name": "",
					"type": "string"
				}
			],
			"stateMutability": "view",
			"type": "function"
		},
		{
			"inputs": [],
			"name": "tokenAddress",
			"outputs": [
				{
					"internalType": "address",
					"name": "",
					"type": "address"
				}
			],
			"stateMutability": "view",
			"type": "function"
		},
		{
			"inputs": [
				{
					"internalType": "uint256",
					"name": "",
					"type": "uint256"
				}
			],
			"name": "tokenomics",
			"outputs": [
				{
					"internalType": "address",
					"name": "tokenomicsAddr",
					"type": "address"
				},
				{
					"internalType": "string",
					"name": "tokenomicsName",
					"type": "string"
				},
				{
					"internalType": "uint256",
					"name": "tokenomicsPercentage",
					"type": "uint256"
				},
				{
					"internalType": "uint256",
					"name": "tokenomicsLockedForXSeconds",
					"type": "uint256"
				},
				{
					"internalType": "uint256",
					"name": "tokenomicsVestedForXSeconds",
					"type": "uint256"
				}
			],
			"stateMutability": "view",
			"type": "function"
		},
		{
			"inputs": [],
			"name": "totalTokenSupply",
			"outputs": [
				{
					"internalType": "uint256",
					"name": "",
					"type": "uint256"
				}
			],
			"stateMutability": "view",
			"type": "function"
		},
		{
			"inputs": [],
			"name": "uniswapLiquidityLockedFor",
			"outputs": [
				{
					"internalType": "uint256",
					"name": "",
					"type": "uint256"
				}
			],
			"stateMutability": "view",
			"type": "function"
		},
		{
			"inputs": [
				{
					"internalType": "uint256",
					"name": "_maxWethCap",
					"type": "uint256"
				},
				{
					"internalType": "uint256",
					"name": "_perWalletMinWeth",
					"type": "uint256"
				},
				{
					"internalType": "uint256",
					"name": "_perWalletMaxWeth",
					"type": "uint256"
				}
			],
			"name": "updateCaps",
			"outputs": [],
			"stateMutability": "nonpayable",
			"type": "function"
		},
		{
			"inputs": [
				{
					"internalType": "uint256",
					"name": "_value",
					"type": "uint256"
				}
			],
			"name": "updateFixedPriceInDeft",
			"outputs": [],
			"stateMutability": "nonpayable",
			"type": "function"
		},
		{
			"inputs": [
				{
					"internalType": "address",
					"name": "_value",
					"type": "address"
				}
			],
			"name": "updateTokenContract",
			"outputs": [],
			"stateMutability": "nonpayable",
			"type": "function"
		},
		{
			"inputs": [
				{
					"internalType": "uint256",
					"name": "",
					"type": "uint256"
				}
			],
			"name": "vesting",
			"outputs": [
				{
					"internalType": "address",
					"name": "vestingAddr",
					"type": "address"
				},
				{
					"internalType": "uint256",
					"name": "tokensReserved",
					"type": "uint256"
				},
				{
					"internalType": "uint256",
					"name": "tokensClaimed",
					"type": "uint256"
				},
				{
					"internalType": "uint256",
					"name": "lockedUntilTimestamp",
					"type": "uint256"
				},
				{
					"internalType": "uint256",
					"name": "vestedUntilTimestamp",
					"type": "uint256"
				}
			],
			"stateMutability": "view",
			"type": "function"
		},
		{
			"inputs": [],
			"name": "website",
			"outputs": [
				{
					"internalType": "string",
					"name": "",
					"type": "string"
				}
			],
			"stateMutability": "view",
			"type": "function"
		},
		{
			"stateMutability": "payable",
			"type": "receive"
		}
	]
}