{
	"data": {
		"bytecode": {
			"linkReferences": {},
			"object": "60806040524260025560006003553480156200001a57600080fd5b5060405163095ea7b360e01b815273d90afc36ffe32deb42562a7e829a4a592589e67760048201526000196024820152737412f2cd820d1e63bd130b0ffebe44c4e5a47d719063095ea7b3906044016020604051808303816000875af115801562000089573d6000803e3d6000fd5b505050506040513d601f19601f82011682018060405250810190620000af91906200014b565b5060405163095ea7b360e01b815273d90afc36ffe32deb42562a7e829a4a592589e6776004820152600019602482015273f690ea79833e2424b05a1d0b779167f5be7632689063095ea7b3906044016020604051808303816000875af11580156200011e573d6000803e3d6000fd5b505050506040513d601f19601f820116820180604052508101906200014491906200014b565b5062000176565b6000602082840312156200015e57600080fd5b815180151581146200016f57600080fd5b9392505050565b611d4e80620001866000396000f3fe608060405234801561001057600080fd5b50600436106101215760003560e01c80639010d07c116100ad578063ca15c87311610071578063ca15c873146102ac578063d391014b146102bf578063d547741f146102c7578063e9e9c3af146102da578063f23a6e61146102e257600080fd5b80639010d07c1461021057806391d148541461023b5780639c8f9f231461024e578063bc197c8114610261578063bcfb3bbe1461029957600080fd5b80632f2ff15d116100f45780632f2ff15d146101bc57806336568abe146101cf5780635ecb16cd146101e25780637574424f146101f55780638a3aacb3146101fd57600080fd5b806301ffc9a71461012657806303ed957f1461014e578063248a9ca31461016357806325936db514610194575b600080fd5b6101396101343660046114a0565b610301565b60405190151581526020015b60405180910390f35b61016161015c3660046114ca565b61032c565b005b61018661017136600461153f565b60009081526020819052604090206001015490565b604051908152602001610145565b6101a76101a2366004611569565b6103a9565b60408051928352602083019190915201610145565b6101616101ca3660046115ae565b6104e1565b6101616101dd3660046115ae565b61050c565b6101616101f03660046115d3565b61058f565b6101a76106f5565b61018661020b366004611569565b61081c565b61022361021e366004611636565b610951565b6040516001600160a01b039091168152602001610145565b6101396102493660046115ae565b610969565b61018661025c36600461153f565b610992565b61028061026f3660046117eb565b63bc197c8160e01b95945050505050565b6040516001600160e01b03199091168152602001610145565b6101a76102a736600461153f565b610a68565b6101866102ba36600461153f565b610b9c565b610186600081565b6101616102d53660046115ae565b610bb3565b610161610bd9565b6102806102f0366004611899565b63f23a6e6160e01b95945050505050565b60006001600160e01b03198216630271189760e51b1480610326575061032682610ef7565b92915050565b60006103388133610f1c565b60005b828110156103a35761039184848381811061035857610358611902565b9050604002016000013585858481811061037457610374611902565b905060400201602001602081019061038c9190611918565b610f80565b8061039b8161194b565b91505061033b565b50505050565b600080821561041e57604051630bb9ff5d60e01b815230600482015260248101859052737412f2cd820d1e63bd130b0ffebe44c4e5a47d7190630bb9ff5d90604401600060405180830381600087803b15801561040557600080fd5b505af1158015610419573d6000803e3d6000fd5b505050505b73d90afc36ffe32deb42562a7e829a4a592589e67763a60c6e55737412f2cd820d1e63bd130b0ffebe44c4e5a47d7173f690ea79833e2424b05a1d0b779167f5be763268876000610472426283d600611966565b306040518763ffffffff1660e01b81526004016104949695949392919061197e565b60408051808303816000875af11580156104b2573d6000803e3d6000fd5b505050506040513d601f19601f820116820180604052508101906104d691906119b6565b915091509250929050565b6000828152602081905260409020600101546104fd8133610f1c565b6105078383610f86565b505050565b6001600160a01b03811633146105815760405162461bcd60e51b815260206004820152602f60248201527f416363657373436f6e74726f6c3a2063616e206f6e6c792072656e6f756e636560448201526e103937b632b9903337b91039b2b63360891b60648201526084015b60405180910390fd5b61058b8282610fa8565b5050565b600061059b8133610f1c565b6000805b838110156106ee578484828181106105b9576105b9611902565b90506020020160208101906105ce9190611918565b6040516370a0823160e01b81523060048201526001600160a01b0391909116906370a0823190602401602060405180830381865afa158015610614573d6000803e3d6000fd5b505050506040513d601f19601f8201168201806040525081019061063891906119da565b915081156106dc5784848281811061065257610652611902565b90506020020160208101906106679190611918565b60405163a9059cbb60e01b8152336004820152602481018490526001600160a01b03919091169063a9059cbb906044016020604051808303816000875af11580156106b6573d6000803e3d6000fd5b505050506040513d601f19601f820116820180604052508101906106da91906119f3565b505b806106e68161194b565b91505061059f565b5050505050565b6040805160018082528183019092526000918291829160208083019080368337019050509050737412f2cd820d1e63bd130b0ffebe44c4e5a47d718160008151811061074357610743611902565b6001600160a01b03909216602092830291909101909101526040516334e150ab60e01b815260009073d90afc36ffe32deb42562a7e829a4a592589e677906334e150ab90610795908590600401611a10565b600060405180830381865afa1580156107b2573d6000803e3d6000fd5b505050506040513d6000823e601f3d908101601f191682016040526107da9190810190611a74565b6000815181106107ec576107ec611902565b6020026020010151905080604001516001600160801b031681606001516001600160801b03169350935050509091565b6000811561089057604051630bb9ff5d60e01b815230600482015260248101849052737412f2cd820d1e63bd130b0ffebe44c4e5a47d7190630bb9ff5d90604401600060405180830381600087803b15801561087757600080fd5b505af115801561088b573d6000803e3d6000fd5b505050505b73d90afc36ffe32deb42562a7e829a4a592589e6776343fefad4737412f2cd820d1e63bd130b0ffebe44c4e5a47d71856108cd4262015180611966565b6040516001600160e01b031960e086901b1681526001600160a01b039093166004840152602483019190915260448201523060648201526084016020604051808303816000875af1158015610926573d6000803e3d6000fd5b505050506040513d601f19601f8201168201806040525081019061094a91906119da565b9392505050565b600082815260016020526040812061094a9083610fca565b6000918252602082815260408084206001600160a01b0393909316845291905290205460ff1690565b604051627eeac760e11b815230600482015260026024820152600090819061271090849073d90afc36ffe32deb42562a7e829a4a592589e6779062fdd58e90604401602060405180830381865afa1580156109f1573d6000803e3d6000fd5b505050506040513d601f19601f82011682018060405250810190610a1591906119da565b610a1f9190611bbf565b610a299190611bde565b905073d90afc36ffe32deb42562a7e829a4a592589e6776374fcf071737412f2cd820d1e63bd130b0ffebe44c4e5a47d71836108cd4262015180611966565b604051630bb9ff5d60e01b815230600482015260248101829052600090819073f690ea79833e2424b05a1d0b779167f5be76326890630bb9ff5d90604401600060405180830381600087803b158015610ac057600080fd5b505af1158015610ad4573d6000803e3d6000fd5b5073d90afc36ffe32deb42562a7e829a4a592589e677925063a60c6e55915073f690ea79833e2424b05a1d0b779167f5be7632689050737412f2cd820d1e63bd130b0ffebe44c4e5a47d71866000610b2f426283d600611966565b306040518763ffffffff1660e01b8152600401610b519695949392919061197e565b60408051808303816000875af1158015610b6f573d6000803e3d6000fd5b505050506040513d601f19601f82011682018060405250810190610b9391906119b6565b91509150915091565b600081815260016020526040812061032690610fd6565b600082815260208190526040902060010154610bcf8133610f1c565b6105078383610fa8565b60003a118015610bf7575042600354600254610bf59190611966565b115b15610bfe57565b42600255600080610c0d6106f5565b9092509050610c1e61271082611bbf565b610c2a6126de84611bbf565b1115610ceb576127106000610c40826002611bbf565b610c4c83612710611966565b610c569085611bbf565b610c609190611bde565b9050600082612710610c728680611bbf565b610c7c8789611bbf565b610c869190611c00565b610c909190611bbf565b610c9a9190611bde565b9050600082610cbc83610cad8380611bbf565b610cb79190611966565b610fe0565b610cc69190611c00565b90506000610cd382610a68565b915050610ce181600061081c565b5050505050505050565b610cf761271082611bbf565b610d0361274284611bbf565b101561058b576040516309162ebf60e41b8152737412f2cd820d1e63bd130b0ffebe44c4e5a47d71600482015260009073d90afc36ffe32deb42562a7e829a4a592589e67790639162ebf090602401602060405180830381865afa158015610d6f573d6000803e3d6000fd5b505050506040513d601f19601f82011682018060405250810190610d9391906119da565b90506000610da761025c6001612710611c00565b9050610db16106f5565b90945092506000610dc3836002611bbf565b610dcf84612710611966565b610dd99087611bbf565b610de39190611bde565b9050600083612710610df58880611bbf565b610dff888a611bbf565b610e099190611c00565b610e139190611bbf565b610e1d9190611bde565b9050600082610e3083610cad8380611bbf565b610e3a9190611c00565b9050838110610e495783610e4b565b805b90506000610e5a8260006103a9565b6040516318a8ad8760e01b81523060048201526024810182905290925073f690ea79833e2424b05a1d0b779167f5be76326891506318a8ad8790604401600060405180830381600087803b158015610eb157600080fd5b505af1158015610ec5573d6000803e3d6000fd5b5050505060008286610ed79190611c00565b90508015610eec57610eea81600061081c565b505b505050505050505050565b60006001600160e01b03198216635a05180f60e01b1480610326575061032682611050565b610f268282610969565b61058b57610f3e816001600160a01b03166014611085565b610f49836020611085565b604051602001610f5a929190611c43565b60408051601f198184030181529082905262461bcd60e51b825261057891600401611cb8565b61058b82825b610f908282611221565b600082815260016020526040902061050790826112a5565b610fb282826112ba565b6000828152600160205260409020610507908261131f565b600061094a8383611334565b6000610326825490565b600060038211156110415750806000610ffa600283611bde565b611005906001611966565b90505b8181101561103b579050806002816110208186611bde565b61102a9190611966565b6110349190611bde565b9050611008565b50919050565b811561104b575060015b919050565b60006001600160e01b03198216630271189760e51b148061032657506301ffc9a760e01b6001600160e01b0319831614610326565b60606000611094836002611bbf565b61109f906002611966565b67ffffffffffffffff8111156110b7576110b7611658565b6040519080825280601f01601f1916602001820160405280156110e1576020820181803683370190505b509050600360fc1b816000815181106110fc576110fc611902565b60200101906001600160f81b031916908160001a905350600f60fb1b8160018151811061112b5761112b611902565b60200101906001600160f81b031916908160001a905350600061114f846002611bbf565b61115a906001611966565b90505b60018111156111d2576f181899199a1a9b1b9c1cb0b131b232b360811b85600f166010811061118e5761118e611902565b1a60f81b8282815181106111a4576111a4611902565b60200101906001600160f81b031916908160001a90535060049490941c936111cb81611ceb565b905061115d565b50831561094a5760405162461bcd60e51b815260206004820181905260248201527f537472696e67733a20686578206c656e67746820696e73756666696369656e746044820152606401610578565b61122b8282610969565b61058b576000828152602081815260408083206001600160a01b03851684529091529020805460ff191660011790556112613390565b6001600160a01b0316816001600160a01b0316837f2f8788117e7eff1d82e926ec794901d17c78024a50270940304540a733656f0d60405160405180910390a45050565b600061094a836001600160a01b03841661135e565b6112c48282610969565b1561058b576000828152602081815260408083206001600160a01b0385168085529252808320805460ff1916905551339285917ff6391f5c32d9c69d2a47ea670b442974b53935d1edc7fd64eb21e047a839171b9190a45050565b600061094a836001600160a01b0384166113ad565b600082600001828154811061134b5761134b611902565b9060005260206000200154905092915050565b60008181526001830160205260408120546113a557508154600181810184556000848152602080822090930184905584548482528286019093526040902091909155610326565b506000610326565b600081815260018301602052604081205480156114965760006113d1600183611c00565b85549091506000906113e590600190611c00565b905081811461144a57600086600001828154811061140557611405611902565b906000526020600020015490508087600001848154811061142857611428611902565b6000918252602080832090910192909255918252600188019052604090208390555b855486908061145b5761145b611d02565b600190038181906000526020600020016000905590558560010160008681526020019081526020016000206000905560019350505050610326565b6000915050610326565b6000602082840312156114b257600080fd5b81356001600160e01b03198116811461094a57600080fd5b600080602083850312156114dd57600080fd5b823567ffffffffffffffff808211156114f557600080fd5b818501915085601f83011261150957600080fd5b81358181111561151857600080fd5b8660208260061b850101111561152d57600080fd5b60209290920196919550909350505050565b60006020828403121561155157600080fd5b5035919050565b801515811461156657600080fd5b50565b6000806040838503121561157c57600080fd5b82359150602083013561158e81611558565b809150509250929050565b6001600160a01b038116811461156657600080fd5b600080604083850312156115c157600080fd5b82359150602083013561158e81611599565b600080602083850312156115e657600080fd5b823567ffffffffffffffff808211156115fe57600080fd5b818501915085601f83011261161257600080fd5b81358181111561162157600080fd5b8660208260051b850101111561152d57600080fd5b6000806040838503121561164957600080fd5b50508035926020909101359150565b634e487b7160e01b600052604160045260246000fd5b60405160a0810167ffffffffffffffff8111828210171561169157611691611658565b60405290565b604051610100810167ffffffffffffffff8111828210171561169157611691611658565b604051601f8201601f1916810167ffffffffffffffff811182821017156116e4576116e4611658565b604052919050565b600067ffffffffffffffff82111561170657611706611658565b5060051b60200190565b600082601f83011261172157600080fd5b81356020611736611731836116ec565b6116bb565b82815260059290921b8401810191818101908684111561175557600080fd5b8286015b848110156117705780358352918301918301611759565b509695505050505050565b600082601f83011261178c57600080fd5b813567ffffffffffffffff8111156117a6576117a6611658565b6117b9601f8201601f19166020016116bb565b8181528460208386010111156117ce57600080fd5b816020850160208301376000918101602001919091529392505050565b600080600080600060a0868803121561180357600080fd5b853561180e81611599565b9450602086013561181e81611599565b9350604086013567ffffffffffffffff8082111561183b57600080fd5b61184789838a01611710565b9450606088013591508082111561185d57600080fd5b61186989838a01611710565b9350608088013591508082111561187f57600080fd5b5061188c8882890161177b565b9150509295509295909350565b600080600080600060a086880312156118b157600080fd5b85356118bc81611599565b945060208601356118cc81611599565b93506040860135925060608601359150608086013567ffffffffffffffff8111156118f657600080fd5b61188c8882890161177b565b634e487b7160e01b600052603260045260246000fd5b60006020828403121561192a57600080fd5b813561094a81611599565b634e487b7160e01b600052601160045260246000fd5b600060001982141561195f5761195f611935565b5060010190565b6000821982111561197957611979611935565b500190565b6001600160a01b039687168152948616602086015260408501939093526060840191909152608083015290911660a082015260c00190565b600080604083850312156119c957600080fd5b505080516020909101519092909150565b6000602082840312156119ec57600080fd5b5051919050565b600060208284031215611a0557600080fd5b815161094a81611558565b6020808252825182820181905260009190848201906040850190845b81811015611a515783516001600160a01b031683529284019291840191600101611a2c565b50909695505050505050565b80516001600160801b038116811461104b57600080fd5b60006020808385031215611a8757600080fd5b825167ffffffffffffffff811115611a9e57600080fd5b8301601f81018513611aaf57600080fd5b8051611abd611731826116ec565b8181526101809182028301840191848201919088841115611add57600080fd5b938501935b83851015611bb35780858a031215611afa5760008081fd5b611b0261166e565b8551611b0d81611599565b8152603f86018a13611b1f5760008081fd5b611b27611697565b8061012088018c811115611b3b5760008081fd5b8989015b81811015611b6957805163ffffffff81168114611b5c5760008081fd5b8452928a01928a01611b3f565b50818a850152611b7881611a5d565b6040850152505050611b8d6101408701611a5d565b6060820152611b9f6101608701611a5d565b608082015283529384019391850191611ae2565b50979650505050505050565b6000816000190483118215151615611bd957611bd9611935565b500290565b600082611bfb57634e487b7160e01b600052601260045260246000fd5b500490565b600082821015611c1257611c12611935565b500390565b60005b83811015611c32578181015183820152602001611c1a565b838111156103a35750506000910152565b7f416363657373436f6e74726f6c3a206163636f756e7420000000000000000000815260008351611c7b816017850160208801611c17565b7001034b99036b4b9b9b4b733903937b6329607d1b6017918401918201528351611cac816028840160208801611c17565b01602801949350505050565b6020815260008251806020840152611cd7816040850160208701611c17565b601f01601f19169190910160400192915050565b600081611cfa57611cfa611935565b506000190190565b634e487b7160e01b600052603160045260246000fdfea26469706673582212203e75442a7a7395a99d6a9e46865dc6d9c3dd2b73d54f045a44f18e17266ef29364736f6c634300080b0033",
			"opcodes": "PUSH1 0x80 PUSH1 0x40 MSTORE TIMESTAMP PUSH1 0x2 SSTORE PUSH1 0x0 PUSH1 0x3 SSTORE CALLVALUE DUP1 ISZERO PUSH3 0x1A JUMPI PUSH1 0x0 DUP1 REVERT JUMPDEST POP PUSH1 0x40 MLOAD PUSH4 0x95EA7B3 PUSH1 0xE0 SHL DUP2 MSTORE PUSH20 0xD90AFC36FFE32DEB42562A7E829A4A592589E677 PUSH1 0x4 DUP3 ADD MSTORE PUSH1 0x0 NOT PUSH1 0x24 DUP3 ADD MSTORE PUSH20 0x7412F2CD820D1E63BD130B0FFEBE44C4E5A47D71 SWAP1 PUSH4 0x95EA7B3 SWAP1 PUSH1 0x44 ADD PUSH1 0x20 PUSH1 0x40 MLOAD DUP1 DUP4 SUB DUP2 PUSH1 0x0 DUP8 GAS CALL ISZERO DUP1 ISZERO PUSH3 0x89 JUMPI RETURNDATASIZE PUSH1 0x0 DUP1 RETURNDATACOPY RETURNDATASIZE PUSH1 0x0 REVERT JUMPDEST POP POP POP POP PUSH1 0x40 MLOAD RETURNDATASIZE PUSH1 0x1F NOT PUSH1 0x1F DUP3 ADD AND DUP3 ADD DUP1 PUSH1 0x40 MSTORE POP DUP2 ADD SWAP1 PUSH3 0xAF SWAP2 SWAP1 PUSH3 0x14B JUMP JUMPDEST POP PUSH1 0x40 MLOAD PUSH4 0x95EA7B3 PUSH1 0xE0 SHL DUP2 MSTORE PUSH20 0xD90AFC36FFE32DEB42562A7E829A4A592589E677 PUSH1 0x4 DUP3 ADD MSTORE PUSH1 0x0 NOT PUSH1 0x24 DUP3 ADD MSTORE PUSH20 0xF690EA79833E2424B05A1D0B779167F5BE763268 SWAP1 PUSH4 0x95EA7B3 SWAP1 PUSH1 0x44 ADD PUSH1 0x20 PUSH1 0x40 MLOAD DUP1 DUP4 SUB DUP2 PUSH1 0x0 DUP8 GAS CALL ISZERO DUP1 ISZERO PUSH3 0x11E JUMPI RETURNDATASIZE PUSH1 0x0 DUP1 RETURNDATACOPY RETURNDATASIZE PUSH1 0x0 REVERT JUMPDEST POP POP POP POP PUSH1 0x40 MLOAD RETURNDATASIZE PUSH1 0x1F NOT PUSH1 0x1F DUP3 ADD AND DUP3 ADD DUP1 PUSH1 0x40 MSTORE POP DUP2 ADD SWAP1 PUSH3 0x144 SWAP2 SWAP1 PUSH3 0x14B JUMP JUMPDEST POP PUSH3 0x176 JUMP JUMPDEST PUSH1 0x0 PUSH1 0x20 DUP3 DUP5 SUB SLT ISZERO PUSH3 0x15E JUMPI PUSH1 0x0 DUP1 REVERT JUMPDEST DUP2 MLOAD DUP1 ISZERO ISZERO DUP2 EQ PUSH3 0x16F JUMPI PUSH1 0x0 DUP1 REVERT JUMPDEST SWAP4 SWAP3 POP POP POP JUMP JUMPDEST PUSH2 0x1D4E DUP1 PUSH3 0x186 PUSH1 0x0 CODECOPY PUSH1 0x0 RETURN INVALID PUSH1 0x80 PUSH1 0x40 MSTORE CALLVALUE DUP1 ISZERO PUSH2 0x10 JUMPI PUSH1 0x0 DUP1 REVERT JUMPDEST POP PUSH1 0x4 CALLDATASIZE LT PUSH2 0x121 JUMPI PUSH1 0x0 CALLDATALOAD PUSH1 0xE0 SHR DUP1 PUSH4 0x9010D07C GT PUSH2 0xAD JUMPI DUP1 PUSH4 0xCA15C873 GT PUSH2 0x71 JUMPI DUP1 PUSH4 0xCA15C873 EQ PUSH2 0x2AC JUMPI DUP1 PUSH4 0xD391014B EQ PUSH2 0x2BF JUMPI DUP1 PUSH4 0xD547741F EQ PUSH2 0x2C7 JUMPI DUP1 PUSH4 0xE9E9C3AF EQ PUSH2 0x2DA JUMPI DUP1 PUSH4 0xF23A6E61 EQ PUSH2 0x2E2 JUMPI PUSH1 0x0 DUP1 REVERT JUMPDEST DUP1 PUSH4 0x9010D07C EQ PUSH2 0x210 JUMPI DUP1 PUSH4 0x91D14854 EQ PUSH2 0x23B JUMPI DUP1 PUSH4 0x9C8F9F23 EQ PUSH2 0x24E JUMPI DUP1 PUSH4 0xBC197C81 EQ PUSH2 0x261 JUMPI DUP1 PUSH4 0xBCFB3BBE EQ PUSH2 0x299 JUMPI PUSH1 0x0 DUP1 REVERT JUMPDEST DUP1 PUSH4 0x2F2FF15D GT PUSH2 0xF4 JUMPI DUP1 PUSH4 0x2F2FF15D EQ PUSH2 0x1BC JUMPI DUP1 PUSH4 0x36568ABE EQ PUSH2 0x1CF JUMPI DUP1 PUSH4 0x5ECB16CD EQ PUSH2 0x1E2 JUMPI DUP1 PUSH4 0x7574424F EQ PUSH2 0x1F5 JUMPI DUP1 PUSH4 0x8A3AACB3 EQ PUSH2 0x1FD JUMPI PUSH1 0x0 DUP1 REVERT JUMPDEST DUP1 PUSH4 0x1FFC9A7 EQ PUSH2 0x126 JUMPI DUP1 PUSH4 0x3ED957F EQ PUSH2 0x14E JUMPI DUP1 PUSH4 0x248A9CA3 EQ PUSH2 0x163 JUMPI DUP1 PUSH4 0x25936DB5 EQ PUSH2 0x194 JUMPI JUMPDEST PUSH1 0x0 DUP1 REVERT JUMPDEST PUSH2 0x139 PUSH2 0x134 CALLDATASIZE PUSH1 0x4 PUSH2 0x14A0 JUMP JUMPDEST PUSH2 0x301 JUMP JUMPDEST PUSH1 0x40 MLOAD SWAP1 ISZERO ISZERO DUP2 MSTORE PUSH1 0x20 ADD JUMPDEST PUSH1 0x40 MLOAD DUP1 SWAP2 SUB SWAP1 RETURN JUMPDEST PUSH2 0x161 PUSH2 0x15C CALLDATASIZE PUSH1 0x4 PUSH2 0x14CA JUMP JUMPDEST PUSH2 0x32C JUMP JUMPDEST STOP JUMPDEST PUSH2 0x186 PUSH2 0x171 CALLDATASIZE PUSH1 0x4 PUSH2 0x153F JUMP JUMPDEST PUSH1 0x0 SWAP1 DUP2 MSTORE PUSH1 0x20 DUP2 SWAP1 MSTORE PUSH1 0x40 SWAP1 KECCAK256 PUSH1 0x1 ADD SLOAD SWAP1 JUMP JUMPDEST PUSH1 0x40 MLOAD SWAP1 DUP2 MSTORE PUSH1 0x20 ADD PUSH2 0x145 JUMP JUMPDEST PUSH2 0x1A7 PUSH2 0x1A2 CALLDATASIZE PUSH1 0x4 PUSH2 0x1569 JUMP JUMPDEST PUSH2 0x3A9 JUMP JUMPDEST PUSH1 0x40 DUP1 MLOAD SWAP3 DUP4 MSTORE PUSH1 0x20 DUP4 ADD SWAP2 SWAP1 SWAP2 MSTORE ADD PUSH2 0x145 JUMP JUMPDEST PUSH2 0x161 PUSH2 0x1CA CALLDATASIZE PUSH1 0x4 PUSH2 0x15AE JUMP JUMPDEST PUSH2 0x4E1 JUMP JUMPDEST PUSH2 0x161 PUSH2 0x1DD CALLDATASIZE PUSH1 0x4 PUSH2 0x15AE JUMP JUMPDEST PUSH2 0x50C JUMP JUMPDEST PUSH2 0x161 PUSH2 0x1F0 CALLDATASIZE PUSH1 0x4 PUSH2 0x15D3 JUMP JUMPDEST PUSH2 0x58F JUMP JUMPDEST PUSH2 0x1A7 PUSH2 0x6F5 JUMP JUMPDEST PUSH2 0x186 PUSH2 0x20B CALLDATASIZE PUSH1 0x4 PUSH2 0x1569 JUMP JUMPDEST PUSH2 0x81C JUMP JUMPDEST PUSH2 0x223 PUSH2 0x21E CALLDATASIZE PUSH1 0x4 PUSH2 0x1636 JUMP JUMPDEST PUSH2 0x951 JUMP JUMPDEST PUSH1 0x40 MLOAD PUSH1 0x1 PUSH1 0x1 PUSH1 0xA0 SHL SUB SWAP1 SWAP2 AND DUP2 MSTORE PUSH1 0x20 ADD PUSH2 0x145 JUMP JUMPDEST PUSH2 0x139 PUSH2 0x249 CALLDATASIZE PUSH1 0x4 PUSH2 0x15AE JUMP JUMPDEST PUSH2 0x969 JUMP JUMPDEST PUSH2 0x186 PUSH2 0x25C CALLDATASIZE PUSH1 0x4 PUSH2 0x153F JUMP JUMPDEST PUSH2 0x992 JUMP JUMPDEST PUSH2 0x280 PUSH2 0x26F CALLDATASIZE PUSH1 0x4 PUSH2 0x17EB JUMP JUMPDEST PUSH4 0xBC197C81 PUSH1 0xE0 SHL SWAP6 SWAP5 POP POP POP POP POP JUMP JUMPDEST PUSH1 0x40 MLOAD PUSH1 0x1 PUSH1 0x1 PUSH1 0xE0 SHL SUB NOT SWAP1 SWAP2 AND DUP2 MSTORE PUSH1 0x20 ADD PUSH2 0x145 JUMP JUMPDEST PUSH2 0x1A7 PUSH2 0x2A7 CALLDATASIZE PUSH1 0x4 PUSH2 0x153F JUMP JUMPDEST PUSH2 0xA68 JUMP JUMPDEST PUSH2 0x186 PUSH2 0x2BA CALLDATASIZE PUSH1 0x4 PUSH2 0x153F JUMP JUMPDEST PUSH2 0xB9C JUMP JUMPDEST PUSH2 0x186 PUSH1 0x0 DUP2 JUMP JUMPDEST PUSH2 0x161 PUSH2 0x2D5 CALLDATASIZE PUSH1 0x4 PUSH2 0x15AE JUMP JUMPDEST PUSH2 0xBB3 JUMP JUMPDEST PUSH2 0x161 PUSH2 0xBD9 JUMP JUMPDEST PUSH2 0x280 PUSH2 0x2F0 CALLDATASIZE PUSH1 0x4 PUSH2 0x1899 JUMP JUMPDEST PUSH4 0xF23A6E61 PUSH1 0xE0 SHL SWAP6 SWAP5 POP POP POP POP POP JUMP JUMPDEST PUSH1 0x0 PUSH1 0x1 PUSH1 0x1 PUSH1 0xE0 SHL SUB NOT DUP3 AND PUSH4 0x2711897 PUSH1 0xE5 SHL EQ DUP1 PUSH2 0x326 JUMPI POP PUSH2 0x326 DUP3 PUSH2 0xEF7 JUMP JUMPDEST SWAP3 SWAP2 POP POP JUMP JUMPDEST PUSH1 0x0 PUSH2 0x338 DUP2 CALLER PUSH2 0xF1C JUMP JUMPDEST PUSH1 0x0 JUMPDEST DUP3 DUP2 LT ISZERO PUSH2 0x3A3 JUMPI PUSH2 0x391 DUP5 DUP5 DUP4 DUP2 DUP2 LT PUSH2 0x358 JUMPI PUSH2 0x358 PUSH2 0x1902 JUMP JUMPDEST SWAP1 POP PUSH1 0x40 MUL ADD PUSH1 0x0 ADD CALLDATALOAD DUP6 DUP6 DUP5 DUP2 DUP2 LT PUSH2 0x374 JUMPI PUSH2 0x374 PUSH2 0x1902 JUMP JUMPDEST SWAP1 POP PUSH1 0x40 MUL ADD PUSH1 0x20 ADD PUSH1 0x20 DUP2 ADD SWAP1 PUSH2 0x38C SWAP2 SWAP1 PUSH2 0x1918 JUMP JUMPDEST PUSH2 0xF80 JUMP JUMPDEST DUP1 PUSH2 0x39B DUP2 PUSH2 0x194B JUMP JUMPDEST SWAP2 POP POP PUSH2 0x33B JUMP JUMPDEST POP POP POP POP JUMP JUMPDEST PUSH1 0x0 DUP1 DUP3 ISZERO PUSH2 0x41E JUMPI PUSH1 0x40 MLOAD PUSH4 0xBB9FF5D PUSH1 0xE0 SHL DUP2 MSTORE ADDRESS PUSH1 0x4 DUP3 ADD MSTORE PUSH1 0x24 DUP2 ADD DUP6 SWAP1 MSTORE PUSH20 0x7412F2CD820D1E63BD130B0FFEBE44C4E5A47D71 SWAP1 PUSH4 0xBB9FF5D SWAP1 PUSH1 0x44 ADD PUSH1 0x0 PUSH1 0x40 MLOAD DUP1 DUP4 SUB DUP2 PUSH1 0x0 DUP8 DUP1 EXTCODESIZE ISZERO DUP1 ISZERO PUSH2 0x405 JUMPI PUSH1 0x0 DUP1 REVERT JUMPDEST POP GAS CALL ISZERO DUP1 ISZERO PUSH2 0x419 JUMPI RETURNDATASIZE PUSH1 0x0 DUP1 RETURNDATACOPY RETURNDATASIZE PUSH1 0x0 REVERT JUMPDEST POP POP POP POP JUMPDEST PUSH20 0xD90AFC36FFE32DEB42562A7E829A4A592589E677 PUSH4 0xA60C6E55 PUSH20 0x7412F2CD820D1E63BD130B0FFEBE44C4E5A47D71 PUSH20 0xF690EA79833E2424B05A1D0B779167F5BE763268 DUP8 PUSH1 0x0 PUSH2 0x472 TIMESTAMP PUSH3 0x83D600 PUSH2 0x1966 JUMP JUMPDEST ADDRESS PUSH1 0x40 MLOAD DUP8 PUSH4 0xFFFFFFFF AND PUSH1 0xE0 SHL DUP2 MSTORE PUSH1 0x4 ADD PUSH2 0x494 SWAP7 SWAP6 SWAP5 SWAP4 SWAP3 SWAP2 SWAP1 PUSH2 0x197E JUMP JUMPDEST PUSH1 0x40 DUP1 MLOAD DUP1 DUP4 SUB DUP2 PUSH1 0x0 DUP8 GAS CALL ISZERO DUP1 ISZERO PUSH2 0x4B2 JUMPI RETURNDATASIZE PUSH1 0x0 DUP1 RETURNDATACOPY RETURNDATASIZE PUSH1 0x0 REVERT JUMPDEST POP POP POP POP PUSH1 0x40 MLOAD RETURNDATASIZE PUSH1 0x1F NOT PUSH1 0x1F DUP3 ADD AND DUP3 ADD DUP1 PUSH1 0x40 MSTORE POP DUP2 ADD SWAP1 PUSH2 0x4D6 SWAP2 SWAP1 PUSH2 0x19B6 JUMP JUMPDEST SWAP2 POP SWAP2 POP SWAP3 POP SWAP3 SWAP1 POP JUMP JUMPDEST PUSH1 0x0 DUP3 DUP2 MSTORE PUSH1 0x20 DUP2 SWAP1 MSTORE PUSH1 0x40 SWAP1 KECCAK256 PUSH1 0x1 ADD SLOAD PUSH2 0x4FD DUP2 CALLER PUSH2 0xF1C JUMP JUMPDEST PUSH2 0x507 DUP4 DUP4 PUSH2 0xF86 JUMP JUMPDEST POP POP POP JUMP JUMPDEST PUSH1 0x1 PUSH1 0x1 PUSH1 0xA0 SHL SUB DUP2 AND CALLER EQ PUSH2 0x581 JUMPI PUSH1 0x40 MLOAD PUSH3 0x461BCD PUSH1 0xE5 SHL DUP2 MSTORE PUSH1 0x20 PUSH1 0x4 DUP3 ADD MSTORE PUSH1 0x2F PUSH1 0x24 DUP3 ADD MSTORE PUSH32 0x416363657373436F6E74726F6C3A2063616E206F6E6C792072656E6F756E6365 PUSH1 0x44 DUP3 ADD MSTORE PUSH15 0x103937B632B9903337B91039B2B633 PUSH1 0x89 SHL PUSH1 0x64 DUP3 ADD MSTORE PUSH1 0x84 ADD JUMPDEST PUSH1 0x40 MLOAD DUP1 SWAP2 SUB SWAP1 REVERT JUMPDEST PUSH2 0x58B DUP3 DUP3 PUSH2 0xFA8 JUMP JUMPDEST POP POP JUMP JUMPDEST PUSH1 0x0 PUSH2 0x59B DUP2 CALLER PUSH2 0xF1C JUMP JUMPDEST PUSH1 0x0 DUP1 JUMPDEST DUP4 DUP2 LT ISZERO PUSH2 0x6EE JUMPI DUP5 DUP5 DUP3 DUP2 DUP2 LT PUSH2 0x5B9 JUMPI PUSH2 0x5B9 PUSH2 0x1902 JUMP JUMPDEST SWAP1 POP PUSH1 0x20 MUL ADD PUSH1 0x20 DUP2 ADD SWAP1 PUSH2 0x5CE SWAP2 SWAP1 PUSH2 0x1918 JUMP JUMPDEST PUSH1 0x40 MLOAD PUSH4 0x70A08231 PUSH1 0xE0 SHL DUP2 MSTORE ADDRESS PUSH1 0x4 DUP3 ADD MSTORE PUSH1 0x1 PUSH1 0x1 PUSH1 0xA0 SHL SUB SWAP2 SWAP1 SWAP2 AND SWAP1 PUSH4 0x70A08231 SWAP1 PUSH1 0x24 ADD PUSH1 0x20 PUSH1 0x40 MLOAD DUP1 DUP4 SUB DUP2 DUP7 GAS STATICCALL ISZERO DUP1 ISZERO PUSH2 0x614 JUMPI RETURNDATASIZE PUSH1 0x0 DUP1 RETURNDATACOPY RETURNDATASIZE PUSH1 0x0 REVERT JUMPDEST POP POP POP POP PUSH1 0x40 MLOAD RETURNDATASIZE PUSH1 0x1F NOT PUSH1 0x1F DUP3 ADD AND DUP3 ADD DUP1 PUSH1 0x40 MSTORE POP DUP2 ADD SWAP1 PUSH2 0x638 SWAP2 SWAP1 PUSH2 0x19DA JUMP JUMPDEST SWAP2 POP DUP2 ISZERO PUSH2 0x6DC JUMPI DUP5 DUP5 DUP3 DUP2 DUP2 LT PUSH2 0x652 JUMPI PUSH2 0x652 PUSH2 0x1902 JUMP JUMPDEST SWAP1 POP PUSH1 0x20 MUL ADD PUSH1 0x20 DUP2 ADD SWAP1 PUSH2 0x667 SWAP2 SWAP1 PUSH2 0x1918 JUMP JUMPDEST PUSH1 0x40 MLOAD PUSH4 0xA9059CBB PUSH1 0xE0 SHL DUP2 MSTORE CALLER PUSH1 0x4 DUP3 ADD MSTORE PUSH1 0x24 DUP2 ADD DUP5 SWAP1 MSTORE PUSH1 0x1 PUSH1 0x1 PUSH1 0xA0 SHL SUB SWAP2 SWAP1 SWAP2 AND SWAP1 PUSH4 0xA9059CBB SWAP1 PUSH1 0x44 ADD PUSH1 0x20 PUSH1 0x40 MLOAD DUP1 DUP4 SUB DUP2 PUSH1 0x0 DUP8 GAS CALL ISZERO DUP1 ISZERO PUSH2 0x6B6 JUMPI RETURNDATASIZE PUSH1 0x0 DUP1 RETURNDATACOPY RETURNDATASIZE PUSH1 0x0 REVERT JUMPDEST POP POP POP POP PUSH1 0x40 MLOAD RETURNDATASIZE PUSH1 0x1F NOT PUSH1 0x1F DUP3 ADD AND DUP3 ADD DUP1 PUSH1 0x40 MSTORE POP DUP2 ADD SWAP1 PUSH2 0x6DA SWAP2 SWAP1 PUSH2 0x19F3 JUMP JUMPDEST POP JUMPDEST DUP1 PUSH2 0x6E6 DUP2 PUSH2 0x194B JUMP JUMPDEST SWAP2 POP POP PUSH2 0x59F JUMP JUMPDEST POP POP POP POP POP JUMP JUMPDEST PUSH1 0x40 DUP1 MLOAD PUSH1 0x1 DUP1 DUP3 MSTORE DUP2 DUP4 ADD SWAP1 SWAP3 MSTORE PUSH1 0x0 SWAP2 DUP3 SWAP2 DUP3 SWAP2 PUSH1 0x20 DUP1 DUP4 ADD SWAP1 DUP1 CALLDATASIZE DUP4 CALLDATACOPY ADD SWAP1 POP POP SWAP1 POP PUSH20 0x7412F2CD820D1E63BD130B0FFEBE44C4E5A47D71 DUP2 PUSH1 0x0 DUP2 MLOAD DUP2 LT PUSH2 0x743 JUMPI PUSH2 0x743 PUSH2 0x1902 JUMP JUMPDEST PUSH1 0x1 PUSH1 0x1 PUSH1 0xA0 SHL SUB SWAP1 SWAP3 AND PUSH1 0x20 SWAP3 DUP4 MUL SWAP2 SWAP1 SWAP2 ADD SWAP1 SWAP2 ADD MSTORE PUSH1 0x40 MLOAD PUSH4 0x34E150AB PUSH1 0xE0 SHL DUP2 MSTORE PUSH1 0x0 SWAP1 PUSH20 0xD90AFC36FFE32DEB42562A7E829A4A592589E677 SWAP1 PUSH4 0x34E150AB SWAP1 PUSH2 0x795 SWAP1 DUP6 SWAP1 PUSH1 0x4 ADD PUSH2 0x1A10 JUMP JUMPDEST PUSH1 0x0 PUSH1 0x40 MLOAD DUP1 DUP4 SUB DUP2 DUP7 GAS STATICCALL ISZERO DUP1 ISZERO PUSH2 0x7B2 JUMPI RETURNDATASIZE PUSH1 0x0 DUP1 RETURNDATACOPY RETURNDATASIZE PUSH1 0x0 REVERT JUMPDEST POP POP POP POP PUSH1 0x40 MLOAD RETURNDATASIZE PUSH1 0x0 DUP3 RETURNDATACOPY PUSH1 0x1F RETURNDATASIZE SWAP1 DUP2 ADD PUSH1 0x1F NOT AND DUP3 ADD PUSH1 0x40 MSTORE PUSH2 0x7DA SWAP2 SWAP1 DUP2 ADD SWAP1 PUSH2 0x1A74 JUMP JUMPDEST PUSH1 0x0 DUP2 MLOAD DUP2 LT PUSH2 0x7EC JUMPI PUSH2 0x7EC PUSH2 0x1902 JUMP JUMPDEST PUSH1 0x20 MUL PUSH1 0x20 ADD ADD MLOAD SWAP1 POP DUP1 PUSH1 0x40 ADD MLOAD PUSH1 0x1 PUSH1 0x1 PUSH1 0x80 SHL SUB AND DUP2 PUSH1 0x60 ADD MLOAD PUSH1 0x1 PUSH1 0x1 PUSH1 0x80 SHL SUB AND SWAP4 POP SWAP4 POP POP POP SWAP1 SWAP2 JUMP JUMPDEST PUSH1 0x0 DUP2 ISZERO PUSH2 0x890 JUMPI PUSH1 0x40 MLOAD PUSH4 0xBB9FF5D PUSH1 0xE0 SHL DUP2 MSTORE ADDRESS PUSH1 0x4 DUP3 ADD MSTORE PUSH1 0x24 DUP2 ADD DUP5 SWAP1 MSTORE PUSH20 0x7412F2CD820D1E63BD130B0FFEBE44C4E5A47D71 SWAP1 PUSH4 0xBB9FF5D SWAP1 PUSH1 0x44 ADD PUSH1 0x0 PUSH1 0x40 MLOAD DUP1 DUP4 SUB DUP2 PUSH1 0x0 DUP8 DUP1 EXTCODESIZE ISZERO DUP1 ISZERO PUSH2 0x877 JUMPI PUSH1 0x0 DUP1 REVERT JUMPDEST POP GAS CALL ISZERO DUP1 ISZERO PUSH2 0x88B JUMPI RETURNDATASIZE PUSH1 0x0 DUP1 RETURNDATACOPY RETURNDATASIZE PUSH1 0x0 REVERT JUMPDEST POP POP POP POP JUMPDEST PUSH20 0xD90AFC36FFE32DEB42562A7E829A4A592589E677 PUSH4 0x43FEFAD4 PUSH20 0x7412F2CD820D1E63BD130B0FFEBE44C4E5A47D71 DUP6 PUSH2 0x8CD TIMESTAMP PUSH3 0x15180 PUSH2 0x1966 JUMP JUMPDEST PUSH1 0x40 MLOAD PUSH1 0x1 PUSH1 0x1 PUSH1 0xE0 SHL SUB NOT PUSH1 0xE0 DUP7 SWAP1 SHL AND DUP2 MSTORE PUSH1 0x1 PUSH1 0x1 PUSH1 0xA0 SHL SUB SWAP1 SWAP4 AND PUSH1 0x4 DUP5 ADD MSTORE PUSH1 0x24 DUP4 ADD SWAP2 SWAP1 SWAP2 MSTORE PUSH1 0x44 DUP3 ADD MSTORE ADDRESS PUSH1 0x64 DUP3 ADD MSTORE PUSH1 0x84 ADD PUSH1 0x20 PUSH1 0x40 MLOAD DUP1 DUP4 SUB DUP2 PUSH1 0x0 DUP8 GAS CALL ISZERO DUP1 ISZERO PUSH2 0x926 JUMPI RETURNDATASIZE PUSH1 0x0 DUP1 RETURNDATACOPY RETURNDATASIZE PUSH1 0x0 REVERT JUMPDEST POP POP POP POP PUSH1 0x40 MLOAD RETURNDATASIZE PUSH1 0x1F NOT PUSH1 0x1F DUP3 ADD AND DUP3 ADD DUP1 PUSH1 0x40 MSTORE POP DUP2 ADD SWAP1 PUSH2 0x94A SWAP2 SWAP1 PUSH2 0x19DA JUMP JUMPDEST SWAP4 SWAP3 POP POP POP JUMP JUMPDEST PUSH1 0x0 DUP3 DUP2 MSTORE PUSH1 0x1 PUSH1 0x20 MSTORE PUSH1 0x40 DUP2 KECCAK256 PUSH2 0x94A SWAP1 DUP4 PUSH2 0xFCA JUMP JUMPDEST PUSH1 0x0 SWAP2 DUP3 MSTORE PUSH1 0x20 DUP3 DUP2 MSTORE PUSH1 0x40 DUP1 DUP5 KECCAK256 PUSH1 0x1 PUSH1 0x1 PUSH1 0xA0 SHL SUB SWAP4 SWAP1 SWAP4 AND DUP5 MSTORE SWAP2 SWAP1 MSTORE SWAP1 KECCAK256 SLOAD PUSH1 0xFF AND SWAP1 JUMP JUMPDEST PUSH1 0x40 MLOAD PUSH3 0x7EEAC7 PUSH1 0xE1 SHL DUP2 MSTORE ADDRESS PUSH1 0x4 DUP3 ADD MSTORE PUSH1 0x2 PUSH1 0x24 DUP3 ADD MSTORE PUSH1 0x0 SWAP1 DUP2 SWAP1 PUSH2 0x2710 SWAP1 DUP5 SWAP1 PUSH20 0xD90AFC36FFE32DEB42562A7E829A4A592589E677 SWAP1 PUSH3 0xFDD58E SWAP1 PUSH1 0x44 ADD PUSH1 0x20 PUSH1 0x40 MLOAD DUP1 DUP4 SUB DUP2 DUP7 GAS STATICCALL ISZERO DUP1 ISZERO PUSH2 0x9F1 JUMPI RETURNDATASIZE PUSH1 0x0 DUP1 RETURNDATACOPY RETURNDATASIZE PUSH1 0x0 REVERT JUMPDEST POP POP POP POP PUSH1 0x40 MLOAD RETURNDATASIZE PUSH1 0x1F NOT PUSH1 0x1F DUP3 ADD AND DUP3 ADD DUP1 PUSH1 0x40 MSTORE POP DUP2 ADD SWAP1 PUSH2 0xA15 SWAP2 SWAP1 PUSH2 0x19DA JUMP JUMPDEST PUSH2 0xA1F SWAP2 SWAP1 PUSH2 0x1BBF JUMP JUMPDEST PUSH2 0xA29 SWAP2 SWAP1 PUSH2 0x1BDE JUMP JUMPDEST SWAP1 POP PUSH20 0xD90AFC36FFE32DEB42562A7E829A4A592589E677 PUSH4 0x74FCF071 PUSH20 0x7412F2CD820D1E63BD130B0FFEBE44C4E5A47D71 DUP4 PUSH2 0x8CD TIMESTAMP PUSH3 0x15180 PUSH2 0x1966 JUMP JUMPDEST PUSH1 0x40 MLOAD PUSH4 0xBB9FF5D PUSH1 0xE0 SHL DUP2 MSTORE ADDRESS PUSH1 0x4 DUP3 ADD MSTORE PUSH1 0x24 DUP2 ADD DUP3 SWAP1 MSTORE PUSH1 0x0 SWAP1 DUP2 SWAP1 PUSH20 0xF690EA79833E2424B05A1D0B779167F5BE763268 SWAP1 PUSH4 0xBB9FF5D SWAP1 PUSH1 0x44 ADD PUSH1 0x0 PUSH1 0x40 MLOAD DUP1 DUP4 SUB DUP2 PUSH1 0x0 DUP8 DUP1 EXTCODESIZE ISZERO DUP1 ISZERO PUSH2 0xAC0 JUMPI PUSH1 0x0 DUP1 REVERT JUMPDEST POP GAS CALL ISZERO DUP1 ISZERO PUSH2 0xAD4 JUMPI RETURNDATASIZE PUSH1 0x0 DUP1 RETURNDATACOPY RETURNDATASIZE PUSH1 0x0 REVERT JUMPDEST POP PUSH20 0xD90AFC36FFE32DEB42562A7E829A4A592589E677 SWAP3 POP PUSH4 0xA60C6E55 SWAP2 POP PUSH20 0xF690EA79833E2424B05A1D0B779167F5BE763268 SWAP1 POP PUSH20 0x7412F2CD820D1E63BD130B0FFEBE44C4E5A47D71 DUP7 PUSH1 0x0 PUSH2 0xB2F TIMESTAMP PUSH3 0x83D600 PUSH2 0x1966 JUMP JUMPDEST ADDRESS PUSH1 0x40 MLOAD DUP8 PUSH4 0xFFFFFFFF AND PUSH1 0xE0 SHL DUP2 MSTORE PUSH1 0x4 ADD PUSH2 0xB51 SWAP7 SWAP6 SWAP5 SWAP4 SWAP3 SWAP2 SWAP1 PUSH2 0x197E JUMP JUMPDEST PUSH1 0x40 DUP1 MLOAD DUP1 DUP4 SUB DUP2 PUSH1 0x0 DUP8 GAS CALL ISZERO DUP1 ISZERO PUSH2 0xB6F JUMPI RETURNDATASIZE PUSH1 0x0 DUP1 RETURNDATACOPY RETURNDATASIZE PUSH1 0x0 REVERT JUMPDEST POP POP POP POP PUSH1 0x40 MLOAD RETURNDATASIZE PUSH1 0x1F NOT PUSH1 0x1F DUP3 ADD AND DUP3 ADD DUP1 PUSH1 0x40 MSTORE POP DUP2 ADD SWAP1 PUSH2 0xB93 SWAP2 SWAP1 PUSH2 0x19B6 JUMP JUMPDEST SWAP2 POP SWAP2 POP SWAP2 POP SWAP2 JUMP JUMPDEST PUSH1 0x0 DUP2 DUP2 MSTORE PUSH1 0x1 PUSH1 0x20 MSTORE PUSH1 0x40 DUP2 KECCAK256 PUSH2 0x326 SWAP1 PUSH2 0xFD6 JUMP JUMPDEST PUSH1 0x0 DUP3 DUP2 MSTORE PUSH1 0x20 DUP2 SWAP1 MSTORE PUSH1 0x40 SWAP1 KECCAK256 PUSH1 0x1 ADD SLOAD PUSH2 0xBCF DUP2 CALLER PUSH2 0xF1C JUMP JUMPDEST PUSH2 0x507 DUP4 DUP4 PUSH2 0xFA8 JUMP JUMPDEST PUSH1 0x0 GASPRICE GT DUP1 ISZERO PUSH2 0xBF7 JUMPI POP TIMESTAMP PUSH1 0x3 SLOAD PUSH1 0x2 SLOAD PUSH2 0xBF5 SWAP2 SWAP1 PUSH2 0x1966 JUMP JUMPDEST GT JUMPDEST ISZERO PUSH2 0xBFE JUMPI JUMP JUMPDEST TIMESTAMP PUSH1 0x2 SSTORE PUSH1 0x0 DUP1 PUSH2 0xC0D PUSH2 0x6F5 JUMP JUMPDEST SWAP1 SWAP3 POP SWAP1 POP PUSH2 0xC1E PUSH2 0x2710 DUP3 PUSH2 0x1BBF JUMP JUMPDEST PUSH2 0xC2A PUSH2 0x26DE DUP5 PUSH2 0x1BBF JUMP JUMPDEST GT ISZERO PUSH2 0xCEB JUMPI PUSH2 0x2710 PUSH1 0x0 PUSH2 0xC40 DUP3 PUSH1 0x2 PUSH2 0x1BBF JUMP JUMPDEST PUSH2 0xC4C DUP4 PUSH2 0x2710 PUSH2 0x1966 JUMP JUMPDEST PUSH2 0xC56 SWAP1 DUP6 PUSH2 0x1BBF JUMP JUMPDEST PUSH2 0xC60 SWAP2 SWAP1 PUSH2 0x1BDE JUMP JUMPDEST SWAP1 POP PUSH1 0x0 DUP3 PUSH2 0x2710 PUSH2 0xC72 DUP7 DUP1 PUSH2 0x1BBF JUMP JUMPDEST PUSH2 0xC7C DUP8 DUP10 PUSH2 0x1BBF JUMP JUMPDEST PUSH2 0xC86 SWAP2 SWAP1 PUSH2 0x1C00 JUMP JUMPDEST PUSH2 0xC90 SWAP2 SWAP1 PUSH2 0x1BBF JUMP JUMPDEST PUSH2 0xC9A SWAP2 SWAP1 PUSH2 0x1BDE JUMP JUMPDEST SWAP1 POP PUSH1 0x0 DUP3 PUSH2 0xCBC DUP4 PUSH2 0xCAD DUP4 DUP1 PUSH2 0x1BBF JUMP JUMPDEST PUSH2 0xCB7 SWAP2 SWAP1 PUSH2 0x1966 JUMP JUMPDEST PUSH2 0xFE0 JUMP JUMPDEST PUSH2 0xCC6 SWAP2 SWAP1 PUSH2 0x1C00 JUMP JUMPDEST SWAP1 POP PUSH1 0x0 PUSH2 0xCD3 DUP3 PUSH2 0xA68 JUMP JUMPDEST SWAP2 POP POP PUSH2 0xCE1 DUP2 PUSH1 0x0 PUSH2 0x81C JUMP JUMPDEST POP POP POP POP POP POP POP POP JUMP JUMPDEST PUSH2 0xCF7 PUSH2 0x2710 DUP3 PUSH2 0x1BBF JUMP JUMPDEST PUSH2 0xD03 PUSH2 0x2742 DUP5 PUSH2 0x1BBF JUMP JUMPDEST LT ISZERO PUSH2 0x58B JUMPI PUSH1 0x40 MLOAD PUSH4 0x9162EBF PUSH1 0xE4 SHL DUP2 MSTORE PUSH20 0x7412F2CD820D1E63BD130B0FFEBE44C4E5A47D71 PUSH1 0x4 DUP3 ADD MSTORE PUSH1 0x0 SWAP1 PUSH20 0xD90AFC36FFE32DEB42562A7E829A4A592589E677 SWAP1 PUSH4 0x9162EBF0 SWAP1 PUSH1 0x24 ADD PUSH1 0x20 PUSH1 0x40 MLOAD DUP1 DUP4 SUB DUP2 DUP7 GAS STATICCALL ISZERO DUP1 ISZERO PUSH2 0xD6F JUMPI RETURNDATASIZE PUSH1 0x0 DUP1 RETURNDATACOPY RETURNDATASIZE PUSH1 0x0 REVERT JUMPDEST POP POP POP POP PUSH1 0x40 MLOAD RETURNDATASIZE PUSH1 0x1F NOT PUSH1 0x1F DUP3 ADD AND DUP3 ADD DUP1 PUSH1 0x40 MSTORE POP DUP2 ADD SWAP1 PUSH2 0xD93 SWAP2 SWAP1 PUSH2 0x19DA JUMP JUMPDEST SWAP1 POP PUSH1 0x0 PUSH2 0xDA7 PUSH2 0x25C PUSH1 0x1 PUSH2 0x2710 PUSH2 0x1C00 JUMP JUMPDEST SWAP1 POP PUSH2 0xDB1 PUSH2 0x6F5 JUMP JUMPDEST SWAP1 SWAP5 POP SWAP3 POP PUSH1 0x0 PUSH2 0xDC3 DUP4 PUSH1 0x2 PUSH2 0x1BBF JUMP JUMPDEST PUSH2 0xDCF DUP5 PUSH2 0x2710 PUSH2 0x1966 JUMP JUMPDEST PUSH2 0xDD9 SWAP1 DUP8 PUSH2 0x1BBF JUMP JUMPDEST PUSH2 0xDE3 SWAP2 SWAP1 PUSH2 0x1BDE JUMP JUMPDEST SWAP1 POP PUSH1 0x0 DUP4 PUSH2 0x2710 PUSH2 0xDF5 DUP9 DUP1 PUSH2 0x1BBF JUMP JUMPDEST PUSH2 0xDFF DUP9 DUP11 PUSH2 0x1BBF JUMP JUMPDEST PUSH2 0xE09 SWAP2 SWAP1 PUSH2 0x1C00 JUMP JUMPDEST PUSH2 0xE13 SWAP2 SWAP1 PUSH2 0x1BBF JUMP JUMPDEST PUSH2 0xE1D SWAP2 SWAP1 PUSH2 0x1BDE JUMP JUMPDEST SWAP1 POP PUSH1 0x0 DUP3 PUSH2 0xE30 DUP4 PUSH2 0xCAD DUP4 DUP1 PUSH2 0x1BBF JUMP JUMPDEST PUSH2 0xE3A SWAP2 SWAP1 PUSH2 0x1C00 JUMP JUMPDEST SWAP1 POP DUP4 DUP2 LT PUSH2 0xE49 JUMPI DUP4 PUSH2 0xE4B JUMP JUMPDEST DUP1 JUMPDEST SWAP1 POP PUSH1 0x0 PUSH2 0xE5A DUP3 PUSH1 0x0 PUSH2 0x3A9 JUMP JUMPDEST PUSH1 0x40 MLOAD PUSH4 0x18A8AD87 PUSH1 0xE0 SHL DUP2 MSTORE ADDRESS PUSH1 0x4 DUP3 ADD MSTORE PUSH1 0x24 DUP2 ADD DUP3 SWAP1 MSTORE SWAP1 SWAP3 POP PUSH20 0xF690EA79833E2424B05A1D0B779167F5BE763268 SWAP2 POP PUSH4 0x18A8AD87 SWAP1 PUSH1 0x44 ADD PUSH1 0x0 PUSH1 0x40 MLOAD DUP1 DUP4 SUB DUP2 PUSH1 0x0 DUP8 DUP1 EXTCODESIZE ISZERO DUP1 ISZERO PUSH2 0xEB1 JUMPI PUSH1 0x0 DUP1 REVERT JUMPDEST POP GAS CALL ISZERO DUP1 ISZERO PUSH2 0xEC5 JUMPI RETURNDATASIZE PUSH1 0x0 DUP1 RETURNDATACOPY RETURNDATASIZE PUSH1 0x0 REVERT JUMPDEST POP POP POP POP PUSH1 0x0 DUP3 DUP7 PUSH2 0xED7 SWAP2 SWAP1 PUSH2 0x1C00 JUMP JUMPDEST SWAP1 POP DUP1 ISZERO PUSH2 0xEEC JUMPI PUSH2 0xEEA DUP2 PUSH1 0x0 PUSH2 0x81C JUMP JUMPDEST POP JUMPDEST POP POP POP POP POP POP POP POP POP JUMP JUMPDEST PUSH1 0x0 PUSH1 0x1 PUSH1 0x1 PUSH1 0xE0 SHL SUB NOT DUP3 AND PUSH4 0x5A05180F PUSH1 0xE0 SHL EQ DUP1 PUSH2 0x326 JUMPI POP PUSH2 0x326 DUP3 PUSH2 0x1050 JUMP JUMPDEST PUSH2 0xF26 DUP3 DUP3 PUSH2 0x969 JUMP JUMPDEST PUSH2 0x58B JUMPI PUSH2 0xF3E DUP2 PUSH1 0x1 PUSH1 0x1 PUSH1 0xA0 SHL SUB AND PUSH1 0x14 PUSH2 0x1085 JUMP JUMPDEST PUSH2 0xF49 DUP4 PUSH1 0x20 PUSH2 0x1085 JUMP JUMPDEST PUSH1 0x40 MLOAD PUSH1 0x20 ADD PUSH2 0xF5A SWAP3 SWAP2 SWAP1 PUSH2 0x1C43 JUMP JUMPDEST PUSH1 0x40 DUP1 MLOAD PUSH1 0x1F NOT DUP2 DUP5 SUB ADD DUP2 MSTORE SWAP1 DUP3 SWAP1 MSTORE PUSH3 0x461BCD PUSH1 0xE5 SHL DUP3 MSTORE PUSH2 0x578 SWAP2 PUSH1 0x4 ADD PUSH2 0x1CB8 JUMP JUMPDEST PUSH2 0x58B DUP3 DUP3 JUMPDEST PUSH2 0xF90 DUP3 DUP3 PUSH2 0x1221 JUMP JUMPDEST PUSH1 0x0 DUP3 DUP2 MSTORE PUSH1 0x1 PUSH1 0x20 MSTORE PUSH1 0x40 SWAP1 KECCAK256 PUSH2 0x507 SWAP1 DUP3 PUSH2 0x12A5 JUMP JUMPDEST PUSH2 0xFB2 DUP3 DUP3 PUSH2 0x12BA JUMP JUMPDEST PUSH1 0x0 DUP3 DUP2 MSTORE PUSH1 0x1 PUSH1 0x20 MSTORE PUSH1 0x40 SWAP1 KECCAK256 PUSH2 0x507 SWAP1 DUP3 PUSH2 0x131F JUMP JUMPDEST PUSH1 0x0 PUSH2 0x94A DUP4 DUP4 PUSH2 0x1334 JUMP JUMPDEST PUSH1 0x0 PUSH2 0x326 DUP3 SLOAD SWAP1 JUMP JUMPDEST PUSH1 0x0 PUSH1 0x3 DUP3 GT ISZERO PUSH2 0x1041 JUMPI POP DUP1 PUSH1 0x0 PUSH2 0xFFA PUSH1 0x2 DUP4 PUSH2 0x1BDE JUMP JUMPDEST PUSH2 0x1005 SWAP1 PUSH1 0x1 PUSH2 0x1966 JUMP JUMPDEST SWAP1 POP JUMPDEST DUP2 DUP2 LT ISZERO PUSH2 0x103B JUMPI SWAP1 POP DUP1 PUSH1 0x2 DUP2 PUSH2 0x1020 DUP2 DUP7 PUSH2 0x1BDE JUMP JUMPDEST PUSH2 0x102A SWAP2 SWAP1 PUSH2 0x1966 JUMP JUMPDEST PUSH2 0x1034 SWAP2 SWAP1 PUSH2 0x1BDE JUMP JUMPDEST SWAP1 POP PUSH2 0x1008 JUMP JUMPDEST POP SWAP2 SWAP1 POP JUMP JUMPDEST DUP2 ISZERO PUSH2 0x104B JUMPI POP PUSH1 0x1 JUMPDEST SWAP2 SWAP1 POP JUMP JUMPDEST PUSH1 0x0 PUSH1 0x1 PUSH1 0x1 PUSH1 0xE0 SHL SUB NOT DUP3 AND PUSH4 0x2711897 PUSH1 0xE5 SHL EQ DUP1 PUSH2 0x326 JUMPI POP PUSH4 0x1FFC9A7 PUSH1 0xE0 SHL PUSH1 0x1 PUSH1 0x1 PUSH1 0xE0 SHL SUB NOT DUP4 AND EQ PUSH2 0x326 JUMP JUMPDEST PUSH1 0x60 PUSH1 0x0 PUSH2 0x1094 DUP4 PUSH1 0x2 PUSH2 0x1BBF JUMP JUMPDEST PUSH2 0x109F SWAP1 PUSH1 0x2 PUSH2 0x1966 JUMP JUMPDEST PUSH8 0xFFFFFFFFFFFFFFFF DUP2 GT ISZERO PUSH2 0x10B7 JUMPI PUSH2 0x10B7 PUSH2 0x1658 JUMP JUMPDEST PUSH1 0x40 MLOAD SWAP1 DUP1 DUP3 MSTORE DUP1 PUSH1 0x1F ADD PUSH1 0x1F NOT AND PUSH1 0x20 ADD DUP3 ADD PUSH1 0x40 MSTORE DUP1 ISZERO PUSH2 0x10E1 JUMPI PUSH1 0x20 DUP3 ADD DUP2 DUP1 CALLDATASIZE DUP4 CALLDATACOPY ADD SWAP1 POP JUMPDEST POP SWAP1 POP PUSH1 0x3 PUSH1 0xFC SHL DUP2 PUSH1 0x0 DUP2 MLOAD DUP2 LT PUSH2 0x10FC JUMPI PUSH2 0x10FC PUSH2 0x1902 JUMP JUMPDEST PUSH1 0x20 ADD ADD SWAP1 PUSH1 0x1 PUSH1 0x1 PUSH1 0xF8 SHL SUB NOT AND SWAP1 DUP2 PUSH1 0x0 BYTE SWAP1 MSTORE8 POP PUSH1 0xF PUSH1 0xFB SHL DUP2 PUSH1 0x1 DUP2 MLOAD DUP2 LT PUSH2 0x112B JUMPI PUSH2 0x112B PUSH2 0x1902 JUMP JUMPDEST PUSH1 0x20 ADD ADD SWAP1 PUSH1 0x1 PUSH1 0x1 PUSH1 0xF8 SHL SUB NOT AND SWAP1 DUP2 PUSH1 0x0 BYTE SWAP1 MSTORE8 POP PUSH1 0x0 PUSH2 0x114F DUP5 PUSH1 0x2 PUSH2 0x1BBF JUMP JUMPDEST PUSH2 0x115A SWAP1 PUSH1 0x1 PUSH2 0x1966 JUMP JUMPDEST SWAP1 POP JUMPDEST PUSH1 0x1 DUP2 GT ISZERO PUSH2 0x11D2 JUMPI PUSH16 0x181899199A1A9B1B9C1CB0B131B232B3 PUSH1 0x81 SHL DUP6 PUSH1 0xF AND PUSH1 0x10 DUP2 LT PUSH2 0x118E JUMPI PUSH2 0x118E PUSH2 0x1902 JUMP JUMPDEST BYTE PUSH1 0xF8 SHL DUP3 DUP3 DUP2 MLOAD DUP2 LT PUSH2 0x11A4 JUMPI PUSH2 0x11A4 PUSH2 0x1902 JUMP JUMPDEST PUSH1 0x20 ADD ADD SWAP1 PUSH1 0x1 PUSH1 0x1 PUSH1 0xF8 SHL SUB NOT AND SWAP1 DUP2 PUSH1 0x0 BYTE SWAP1 MSTORE8 POP PUSH1 0x4 SWAP5 SWAP1 SWAP5 SHR SWAP4 PUSH2 0x11CB DUP2 PUSH2 0x1CEB JUMP JUMPDEST SWAP1 POP PUSH2 0x115D JUMP JUMPDEST POP DUP4 ISZERO PUSH2 0x94A JUMPI PUSH1 0x40 MLOAD PUSH3 0x461BCD PUSH1 0xE5 SHL DUP2 MSTORE PUSH1 0x20 PUSH1 0x4 DUP3 ADD DUP2 SWAP1 MSTORE PUSH1 0x24 DUP3 ADD MSTORE PUSH32 0x537472696E67733A20686578206C656E67746820696E73756666696369656E74 PUSH1 0x44 DUP3 ADD MSTORE PUSH1 0x64 ADD PUSH2 0x578 JUMP JUMPDEST PUSH2 0x122B DUP3 DUP3 PUSH2 0x969 JUMP JUMPDEST PUSH2 0x58B JUMPI PUSH1 0x0 DUP3 DUP2 MSTORE PUSH1 0x20 DUP2 DUP2 MSTORE PUSH1 0x40 DUP1 DUP4 KECCAK256 PUSH1 0x1 PUSH1 0x1 PUSH1 0xA0 SHL SUB DUP6 AND DUP5 MSTORE SWAP1 SWAP2 MSTORE SWAP1 KECCAK256 DUP1 SLOAD PUSH1 0xFF NOT AND PUSH1 0x1 OR SWAP1 SSTORE PUSH2 0x1261 CALLER SWAP1 JUMP JUMPDEST PUSH1 0x1 PUSH1 0x1 PUSH1 0xA0 SHL SUB AND DUP2 PUSH1 0x1 PUSH1 0x1 PUSH1 0xA0 SHL SUB AND DUP4 PUSH32 0x2F8788117E7EFF1D82E926EC794901D17C78024A50270940304540A733656F0D PUSH1 0x40 MLOAD PUSH1 0x40 MLOAD DUP1 SWAP2 SUB SWAP1 LOG4 POP POP JUMP JUMPDEST PUSH1 0x0 PUSH2 0x94A DUP4 PUSH1 0x1 PUSH1 0x1 PUSH1 0xA0 SHL SUB DUP5 AND PUSH2 0x135E JUMP JUMPDEST PUSH2 0x12C4 DUP3 DUP3 PUSH2 0x969 JUMP JUMPDEST ISZERO PUSH2 0x58B JUMPI PUSH1 0x0 DUP3 DUP2 MSTORE PUSH1 0x20 DUP2 DUP2 MSTORE PUSH1 0x40 DUP1 DUP4 KECCAK256 PUSH1 0x1 PUSH1 0x1 PUSH1 0xA0 SHL SUB DUP6 AND DUP1 DUP6 MSTORE SWAP3 MSTORE DUP1 DUP4 KECCAK256 DUP1 SLOAD PUSH1 0xFF NOT AND SWAP1 SSTORE MLOAD CALLER SWAP3 DUP6 SWAP2 PUSH32 0xF6391F5C32D9C69D2A47EA670B442974B53935D1EDC7FD64EB21E047A839171B SWAP2 SWAP1 LOG4 POP POP JUMP JUMPDEST PUSH1 0x0 PUSH2 0x94A DUP4 PUSH1 0x1 PUSH1 0x1 PUSH1 0xA0 SHL SUB DUP5 AND PUSH2 0x13AD JUMP JUMPDEST PUSH1 0x0 DUP3 PUSH1 0x0 ADD DUP3 DUP2 SLOAD DUP2 LT PUSH2 0x134B JUMPI PUSH2 0x134B PUSH2 0x1902 JUMP JUMPDEST SWAP1 PUSH1 0x0 MSTORE PUSH1 0x20 PUSH1 0x0 KECCAK256 ADD SLOAD SWAP1 POP SWAP3 SWAP2 POP POP JUMP JUMPDEST PUSH1 0x0 DUP2 DUP2 MSTORE PUSH1 0x1 DUP4 ADD PUSH1 0x20 MSTORE PUSH1 0x40 DUP2 KECCAK256 SLOAD PUSH2 0x13A5 JUMPI POP DUP2 SLOAD PUSH1 0x1 DUP2 DUP2 ADD DUP5 SSTORE PUSH1 0x0 DUP5 DUP2 MSTORE PUSH1 0x20 DUP1 DUP3 KECCAK256 SWAP1 SWAP4 ADD DUP5 SWAP1 SSTORE DUP5 SLOAD DUP5 DUP3 MSTORE DUP3 DUP7 ADD SWAP1 SWAP4 MSTORE PUSH1 0x40 SWAP1 KECCAK256 SWAP2 SWAP1 SWAP2 SSTORE PUSH2 0x326 JUMP JUMPDEST POP PUSH1 0x0 PUSH2 0x326 JUMP JUMPDEST PUSH1 0x0 DUP2 DUP2 MSTORE PUSH1 0x1 DUP4 ADD PUSH1 0x20 MSTORE PUSH1 0x40 DUP2 KECCAK256 SLOAD DUP1 ISZERO PUSH2 0x1496 JUMPI PUSH1 0x0 PUSH2 0x13D1 PUSH1 0x1 DUP4 PUSH2 0x1C00 JUMP JUMPDEST DUP6 SLOAD SWAP1 SWAP2 POP PUSH1 0x0 SWAP1 PUSH2 0x13E5 SWAP1 PUSH1 0x1 SWAP1 PUSH2 0x1C00 JUMP JUMPDEST SWAP1 POP DUP2 DUP2 EQ PUSH2 0x144A JUMPI PUSH1 0x0 DUP7 PUSH1 0x0 ADD DUP3 DUP2 SLOAD DUP2 LT PUSH2 0x1405 JUMPI PUSH2 0x1405 PUSH2 0x1902 JUMP JUMPDEST SWAP1 PUSH1 0x0 MSTORE PUSH1 0x20 PUSH1 0x0 KECCAK256 ADD SLOAD SWAP1 POP DUP1 DUP8 PUSH1 0x0 ADD DUP5 DUP2 SLOAD DUP2 LT PUSH2 0x1428 JUMPI PUSH2 0x1428 PUSH2 0x1902 JUMP JUMPDEST PUSH1 0x0 SWAP2 DUP3 MSTORE PUSH1 0x20 DUP1 DUP4 KECCAK256 SWAP1 SWAP2 ADD SWAP3 SWAP1 SWAP3 SSTORE SWAP2 DUP3 MSTORE PUSH1 0x1 DUP9 ADD SWAP1 MSTORE PUSH1 0x40 SWAP1 KECCAK256 DUP4 SWAP1 SSTORE JUMPDEST DUP6 SLOAD DUP7 SWAP1 DUP1 PUSH2 0x145B JUMPI PUSH2 0x145B PUSH2 0x1D02 JUMP JUMPDEST PUSH1 0x1 SWAP1 SUB DUP2 DUP2 SWAP1 PUSH1 0x0 MSTORE PUSH1 0x20 PUSH1 0x0 KECCAK256 ADD PUSH1 0x0 SWAP1 SSTORE SWAP1 SSTORE DUP6 PUSH1 0x1 ADD PUSH1 0x0 DUP7 DUP2 MSTORE PUSH1 0x20 ADD SWAP1 DUP2 MSTORE PUSH1 0x20 ADD PUSH1 0x0 KECCAK256 PUSH1 0x0 SWAP1 SSTORE PUSH1 0x1 SWAP4 POP POP POP POP PUSH2 0x326 JUMP JUMPDEST PUSH1 0x0 SWAP2 POP POP PUSH2 0x326 JUMP JUMPDEST PUSH1 0x0 PUSH1 0x20 DUP3 DUP5 SUB SLT ISZERO PUSH2 0x14B2 JUMPI PUSH1 0x0 DUP1 REVERT JUMPDEST DUP2 CALLDATALOAD PUSH1 0x1 PUSH1 0x1 PUSH1 0xE0 SHL SUB NOT DUP2 AND DUP2 EQ PUSH2 0x94A JUMPI PUSH1 0x0 DUP1 REVERT JUMPDEST PUSH1 0x0 DUP1 PUSH1 0x20 DUP4 DUP6 SUB SLT ISZERO PUSH2 0x14DD JUMPI PUSH1 0x0 DUP1 REVERT JUMPDEST DUP3 CALLDATALOAD PUSH8 0xFFFFFFFFFFFFFFFF DUP1 DUP3 GT ISZERO PUSH2 0x14F5 JUMPI PUSH1 0x0 DUP1 REVERT JUMPDEST DUP2 DUP6 ADD SWAP2 POP DUP6 PUSH1 0x1F DUP4 ADD SLT PUSH2 0x1509 JUMPI PUSH1 0x0 DUP1 REVERT JUMPDEST DUP2 CALLDATALOAD DUP2 DUP2 GT ISZERO PUSH2 0x1518 JUMPI PUSH1 0x0 DUP1 REVERT JUMPDEST DUP7 PUSH1 0x20 DUP3 PUSH1 0x6 SHL DUP6 ADD ADD GT ISZERO PUSH2 0x152D JUMPI PUSH1 0x0 DUP1 REVERT JUMPDEST PUSH1 0x20 SWAP3 SWAP1 SWAP3 ADD SWAP7 SWAP2 SWAP6 POP SWAP1 SWAP4 POP POP POP POP JUMP JUMPDEST PUSH1 0x0 PUSH1 0x20 DUP3 DUP5 SUB SLT ISZERO PUSH2 0x1551 JUMPI PUSH1 0x0 DUP1 REVERT JUMPDEST POP CALLDATALOAD SWAP2 SWAP1 POP JUMP JUMPDEST DUP1 ISZERO ISZERO DUP2 EQ PUSH2 0x1566 JUMPI PUSH1 0x0 DUP1 REVERT JUMPDEST POP JUMP JUMPDEST PUSH1 0x0 DUP1 PUSH1 0x40 DUP4 DUP6 SUB SLT ISZERO PUSH2 0x157C JUMPI PUSH1 0x0 DUP1 REVERT JUMPDEST DUP3 CALLDATALOAD SWAP2 POP PUSH1 0x20 DUP4 ADD CALLDATALOAD PUSH2 0x158E DUP2 PUSH2 0x1558 JUMP JUMPDEST DUP1 SWAP2 POP POP SWAP3 POP SWAP3 SWAP1 POP JUMP JUMPDEST PUSH1 0x1 PUSH1 0x1 PUSH1 0xA0 SHL SUB DUP2 AND DUP2 EQ PUSH2 0x1566 JUMPI PUSH1 0x0 DUP1 REVERT JUMPDEST PUSH1 0x0 DUP1 PUSH1 0x40 DUP4 DUP6 SUB SLT ISZERO PUSH2 0x15C1 JUMPI PUSH1 0x0 DUP1 REVERT JUMPDEST DUP3 CALLDATALOAD SWAP2 POP PUSH1 0x20 DUP4 ADD CALLDATALOAD PUSH2 0x158E DUP2 PUSH2 0x1599 JUMP JUMPDEST PUSH1 0x0 DUP1 PUSH1 0x20 DUP4 DUP6 SUB SLT ISZERO PUSH2 0x15E6 JUMPI PUSH1 0x0 DUP1 REVERT JUMPDEST DUP3 CALLDATALOAD PUSH8 0xFFFFFFFFFFFFFFFF DUP1 DUP3 GT ISZERO PUSH2 0x15FE JUMPI PUSH1 0x0 DUP1 REVERT JUMPDEST DUP2 DUP6 ADD SWAP2 POP DUP6 PUSH1 0x1F DUP4 ADD SLT PUSH2 0x1612 JUMPI PUSH1 0x0 DUP1 REVERT JUMPDEST DUP2 CALLDATALOAD DUP2 DUP2 GT ISZERO PUSH2 0x1621 JUMPI PUSH1 0x0 DUP1 REVERT JUMPDEST DUP7 PUSH1 0x20 DUP3 PUSH1 0x5 SHL DUP6 ADD ADD GT ISZERO PUSH2 0x152D JUMPI PUSH1 0x0 DUP1 REVERT JUMPDEST PUSH1 0x0 DUP1 PUSH1 0x40 DUP4 DUP6 SUB SLT ISZERO PUSH2 0x1649 JUMPI PUSH1 0x0 DUP1 REVERT JUMPDEST POP POP DUP1 CALLDATALOAD SWAP3 PUSH1 0x20 SWAP1 SWAP2 ADD CALLDATALOAD SWAP2 POP JUMP JUMPDEST PUSH4 0x4E487B71 PUSH1 0xE0 SHL PUSH1 0x0 MSTORE PUSH1 0x41 PUSH1 0x4 MSTORE PUSH1 0x24 PUSH1 0x0 REVERT JUMPDEST PUSH1 0x40 MLOAD PUSH1 0xA0 DUP2 ADD PUSH8 0xFFFFFFFFFFFFFFFF DUP2 GT DUP3 DUP3 LT OR ISZERO PUSH2 0x1691 JUMPI PUSH2 0x1691 PUSH2 0x1658 JUMP JUMPDEST PUSH1 0x40 MSTORE SWAP1 JUMP JUMPDEST PUSH1 0x40 MLOAD PUSH2 0x100 DUP2 ADD PUSH8 0xFFFFFFFFFFFFFFFF DUP2 GT DUP3 DUP3 LT OR ISZERO PUSH2 0x1691 JUMPI PUSH2 0x1691 PUSH2 0x1658 JUMP JUMPDEST PUSH1 0x40 MLOAD PUSH1 0x1F DUP3 ADD PUSH1 0x1F NOT AND DUP2 ADD PUSH8 0xFFFFFFFFFFFFFFFF DUP2 GT DUP3 DUP3 LT OR ISZERO PUSH2 0x16E4 JUMPI PUSH2 0x16E4 PUSH2 0x1658 JUMP JUMPDEST PUSH1 0x40 MSTORE SWAP2 SWAP1 POP JUMP JUMPDEST PUSH1 0x0 PUSH8 0xFFFFFFFFFFFFFFFF DUP3 GT ISZERO PUSH2 0x1706 JUMPI PUSH2 0x1706 PUSH2 0x1658 JUMP JUMPDEST POP PUSH1 0x5 SHL PUSH1 0x20 ADD SWAP1 JUMP JUMPDEST PUSH1 0x0 DUP3 PUSH1 0x1F DUP4 ADD SLT PUSH2 0x1721 JUMPI PUSH1 0x0 DUP1 REVERT JUMPDEST DUP2 CALLDATALOAD PUSH1 0x20 PUSH2 0x1736 PUSH2 0x1731 DUP4 PUSH2 0x16EC JUMP JUMPDEST PUSH2 0x16BB JUMP JUMPDEST DUP3 DUP2 MSTORE PUSH1 0x5 SWAP3 SWAP1 SWAP3 SHL DUP5 ADD DUP2 ADD SWAP2 DUP2 DUP2 ADD SWAP1 DUP7 DUP5 GT ISZERO PUSH2 0x1755 JUMPI PUSH1 0x0 DUP1 REVERT JUMPDEST DUP3 DUP7 ADD JUMPDEST DUP5 DUP2 LT ISZERO PUSH2 0x1770 JUMPI DUP1 CALLDATALOAD DUP4 MSTORE SWAP2 DUP4 ADD SWAP2 DUP4 ADD PUSH2 0x1759 JUMP JUMPDEST POP SWAP7 SWAP6 POP POP POP POP POP POP JUMP JUMPDEST PUSH1 0x0 DUP3 PUSH1 0x1F DUP4 ADD SLT PUSH2 0x178C JUMPI PUSH1 0x0 DUP1 REVERT JUMPDEST DUP2 CALLDATALOAD PUSH8 0xFFFFFFFFFFFFFFFF DUP2 GT ISZERO PUSH2 0x17A6 JUMPI PUSH2 0x17A6 PUSH2 0x1658 JUMP JUMPDEST PUSH2 0x17B9 PUSH1 0x1F DUP3 ADD PUSH1 0x1F NOT AND PUSH1 0x20 ADD PUSH2 0x16BB JUMP JUMPDEST DUP2 DUP2 MSTORE DUP5 PUSH1 0x20 DUP4 DUP7 ADD ADD GT ISZERO PUSH2 0x17CE JUMPI PUSH1 0x0 DUP1 REVERT JUMPDEST DUP2 PUSH1 0x20 DUP6 ADD PUSH1 0x20 DUP4 ADD CALLDATACOPY PUSH1 0x0 SWAP2 DUP2 ADD PUSH1 0x20 ADD SWAP2 SWAP1 SWAP2 MSTORE SWAP4 SWAP3 POP POP POP JUMP JUMPDEST PUSH1 0x0 DUP1 PUSH1 0x0 DUP1 PUSH1 0x0 PUSH1 0xA0 DUP7 DUP9 SUB SLT ISZERO PUSH2 0x1803 JUMPI PUSH1 0x0 DUP1 REVERT JUMPDEST DUP6 CALLDATALOAD PUSH2 0x180E DUP2 PUSH2 0x1599 JUMP JUMPDEST SWAP5 POP PUSH1 0x20 DUP7 ADD CALLDATALOAD PUSH2 0x181E DUP2 PUSH2 0x1599 JUMP JUMPDEST SWAP4 POP PUSH1 0x40 DUP7 ADD CALLDATALOAD PUSH8 0xFFFFFFFFFFFFFFFF DUP1 DUP3 GT ISZERO PUSH2 0x183B JUMPI PUSH1 0x0 DUP1 REVERT JUMPDEST PUSH2 0x1847 DUP10 DUP4 DUP11 ADD PUSH2 0x1710 JUMP JUMPDEST SWAP5 POP PUSH1 0x60 DUP9 ADD CALLDATALOAD SWAP2 POP DUP1 DUP3 GT ISZERO PUSH2 0x185D JUMPI PUSH1 0x0 DUP1 REVERT JUMPDEST PUSH2 0x1869 DUP10 DUP4 DUP11 ADD PUSH2 0x1710 JUMP JUMPDEST SWAP4 POP PUSH1 0x80 DUP9 ADD CALLDATALOAD SWAP2 POP DUP1 DUP3 GT ISZERO PUSH2 0x187F JUMPI PUSH1 0x0 DUP1 REVERT JUMPDEST POP PUSH2 0x188C DUP9 DUP3 DUP10 ADD PUSH2 0x177B JUMP JUMPDEST SWAP2 POP POP SWAP3 SWAP6 POP SWAP3 SWAP6 SWAP1 SWAP4 POP JUMP JUMPDEST PUSH1 0x0 DUP1 PUSH1 0x0 DUP1 PUSH1 0x0 PUSH1 0xA0 DUP7 DUP9 SUB SLT ISZERO PUSH2 0x18B1 JUMPI PUSH1 0x0 DUP1 REVERT JUMPDEST DUP6 CALLDATALOAD PUSH2 0x18BC DUP2 PUSH2 0x1599 JUMP JUMPDEST SWAP5 POP PUSH1 0x20 DUP7 ADD CALLDATALOAD PUSH2 0x18CC DUP2 PUSH2 0x1599 JUMP JUMPDEST SWAP4 POP PUSH1 0x40 DUP7 ADD CALLDATALOAD SWAP3 POP PUSH1 0x60 DUP7 ADD CALLDATALOAD SWAP2 POP PUSH1 0x80 DUP7 ADD CALLDATALOAD PUSH8 0xFFFFFFFFFFFFFFFF DUP2 GT ISZERO PUSH2 0x18F6 JUMPI PUSH1 0x0 DUP1 REVERT JUMPDEST PUSH2 0x188C DUP9 DUP3 DUP10 ADD PUSH2 0x177B JUMP JUMPDEST PUSH4 0x4E487B71 PUSH1 0xE0 SHL PUSH1 0x0 MSTORE PUSH1 0x32 PUSH1 0x4 MSTORE PUSH1 0x24 PUSH1 0x0 REVERT JUMPDEST PUSH1 0x0 PUSH1 0x20 DUP3 DUP5 SUB SLT ISZERO PUSH2 0x192A JUMPI PUSH1 0x0 DUP1 REVERT JUMPDEST DUP2 CALLDATALOAD PUSH2 0x94A DUP2 PUSH2 0x1599 JUMP JUMPDEST PUSH4 0x4E487B71 PUSH1 0xE0 SHL PUSH1 0x0 MSTORE PUSH1 0x11 PUSH1 0x4 MSTORE PUSH1 0x24 PUSH1 0x0 REVERT JUMPDEST PUSH1 0x0 PUSH1 0x0 NOT DUP3 EQ ISZERO PUSH2 0x195F JUMPI PUSH2 0x195F PUSH2 0x1935 JUMP JUMPDEST POP PUSH1 0x1 ADD SWAP1 JUMP JUMPDEST PUSH1 0x0 DUP3 NOT DUP3 GT ISZERO PUSH2 0x1979 JUMPI PUSH2 0x1979 PUSH2 0x1935 JUMP JUMPDEST POP ADD SWAP1 JUMP JUMPDEST PUSH1 0x1 PUSH1 0x1 PUSH1 0xA0 SHL SUB SWAP7 DUP8 AND DUP2 MSTORE SWAP5 DUP7 AND PUSH1 0x20 DUP7 ADD MSTORE PUSH1 0x40 DUP6 ADD SWAP4 SWAP1 SWAP4 MSTORE PUSH1 0x60 DUP5 ADD SWAP2 SWAP1 SWAP2 MSTORE PUSH1 0x80 DUP4 ADD MSTORE SWAP1 SWAP2 AND PUSH1 0xA0 DUP3 ADD MSTORE PUSH1 0xC0 ADD SWAP1 JUMP JUMPDEST PUSH1 0x0 DUP1 PUSH1 0x40 DUP4 DUP6 SUB SLT ISZERO PUSH2 0x19C9 JUMPI PUSH1 0x0 DUP1 REVERT JUMPDEST POP POP DUP1 MLOAD PUSH1 0x20 SWAP1 SWAP2 ADD MLOAD SWAP1 SWAP3 SWAP1 SWAP2 POP JUMP JUMPDEST PUSH1 0x0 PUSH1 0x20 DUP3 DUP5 SUB SLT ISZERO PUSH2 0x19EC JUMPI PUSH1 0x0 DUP1 REVERT JUMPDEST POP MLOAD SWAP2 SWAP1 POP JUMP JUMPDEST PUSH1 0x0 PUSH1 0x20 DUP3 DUP5 SUB SLT ISZERO PUSH2 0x1A05 JUMPI PUSH1 0x0 DUP1 REVERT JUMPDEST DUP2 MLOAD PUSH2 0x94A DUP2 PUSH2 0x1558 JUMP JUMPDEST PUSH1 0x20 DUP1 DUP3 MSTORE DUP3 MLOAD DUP3 DUP3 ADD DUP2 SWAP1 MSTORE PUSH1 0x0 SWAP2 SWAP1 DUP5 DUP3 ADD SWAP1 PUSH1 0x40 DUP6 ADD SWAP1 DUP5 JUMPDEST DUP2 DUP2 LT ISZERO PUSH2 0x1A51 JUMPI DUP4 MLOAD PUSH1 0x1 PUSH1 0x1 PUSH1 0xA0 SHL SUB AND DUP4 MSTORE SWAP3 DUP5 ADD SWAP3 SWAP2 DUP5 ADD SWAP2 PUSH1 0x1 ADD PUSH2 0x1A2C JUMP JUMPDEST POP SWAP1 SWAP7 SWAP6 POP POP POP POP POP POP JUMP JUMPDEST DUP1 MLOAD PUSH1 0x1 PUSH1 0x1 PUSH1 0x80 SHL SUB DUP2 AND DUP2 EQ PUSH2 0x104B JUMPI PUSH1 0x0 DUP1 REVERT JUMPDEST PUSH1 0x0 PUSH1 0x20 DUP1 DUP4 DUP6 SUB SLT ISZERO PUSH2 0x1A87 JUMPI PUSH1 0x0 DUP1 REVERT JUMPDEST DUP3 MLOAD PUSH8 0xFFFFFFFFFFFFFFFF DUP2 GT ISZERO PUSH2 0x1A9E JUMPI PUSH1 0x0 DUP1 REVERT JUMPDEST DUP4 ADD PUSH1 0x1F DUP2 ADD DUP6 SGT PUSH2 0x1AAF JUMPI PUSH1 0x0 DUP1 REVERT JUMPDEST DUP1 MLOAD PUSH2 0x1ABD PUSH2 0x1731 DUP3 PUSH2 0x16EC JUMP JUMPDEST DUP2 DUP2 MSTORE PUSH2 0x180 SWAP2 DUP3 MUL DUP4 ADD DUP5 ADD SWAP2 DUP5 DUP3 ADD SWAP2 SWAP1 DUP9 DUP5 GT ISZERO PUSH2 0x1ADD JUMPI PUSH1 0x0 DUP1 REVERT JUMPDEST SWAP4 DUP6 ADD SWAP4 JUMPDEST DUP4 DUP6 LT ISZERO PUSH2 0x1BB3 JUMPI DUP1 DUP6 DUP11 SUB SLT ISZERO PUSH2 0x1AFA JUMPI PUSH1 0x0 DUP1 DUP2 REVERT JUMPDEST PUSH2 0x1B02 PUSH2 0x166E JUMP JUMPDEST DUP6 MLOAD PUSH2 0x1B0D DUP2 PUSH2 0x1599 JUMP JUMPDEST DUP2 MSTORE PUSH1 0x3F DUP7 ADD DUP11 SGT PUSH2 0x1B1F JUMPI PUSH1 0x0 DUP1 DUP2 REVERT JUMPDEST PUSH2 0x1B27 PUSH2 0x1697 JUMP JUMPDEST DUP1 PUSH2 0x120 DUP9 ADD DUP13 DUP2 GT ISZERO PUSH2 0x1B3B JUMPI PUSH1 0x0 DUP1 DUP2 REVERT JUMPDEST DUP10 DUP10 ADD JUMPDEST DUP2 DUP2 LT ISZERO PUSH2 0x1B69 JUMPI DUP1 MLOAD PUSH4 0xFFFFFFFF DUP2 AND DUP2 EQ PUSH2 0x1B5C JUMPI PUSH1 0x0 DUP1 DUP2 REVERT JUMPDEST DUP5 MSTORE SWAP3 DUP11 ADD SWAP3 DUP11 ADD PUSH2 0x1B3F JUMP JUMPDEST POP DUP2 DUP11 DUP6 ADD MSTORE PUSH2 0x1B78 DUP2 PUSH2 0x1A5D JUMP JUMPDEST PUSH1 0x40 DUP6 ADD MSTORE POP POP POP PUSH2 0x1B8D PUSH2 0x140 DUP8 ADD PUSH2 0x1A5D JUMP JUMPDEST PUSH1 0x60 DUP3 ADD MSTORE PUSH2 0x1B9F PUSH2 0x160 DUP8 ADD PUSH2 0x1A5D JUMP JUMPDEST PUSH1 0x80 DUP3 ADD MSTORE DUP4 MSTORE SWAP4 DUP5 ADD SWAP4 SWAP2 DUP6 ADD SWAP2 PUSH2 0x1AE2 JUMP JUMPDEST POP SWAP8 SWAP7 POP POP POP POP POP POP POP JUMP JUMPDEST PUSH1 0x0 DUP2 PUSH1 0x0 NOT DIV DUP4 GT DUP3 ISZERO ISZERO AND ISZERO PUSH2 0x1BD9 JUMPI PUSH2 0x1BD9 PUSH2 0x1935 JUMP JUMPDEST POP MUL SWAP1 JUMP JUMPDEST PUSH1 0x0 DUP3 PUSH2 0x1BFB JUMPI PUSH4 0x4E487B71 PUSH1 0xE0 SHL PUSH1 0x0 MSTORE PUSH1 0x12 PUSH1 0x4 MSTORE PUSH1 0x24 PUSH1 0x0 REVERT JUMPDEST POP DIV SWAP1 JUMP JUMPDEST PUSH1 0x0 DUP3 DUP3 LT ISZERO PUSH2 0x1C12 JUMPI PUSH2 0x1C12 PUSH2 0x1935 JUMP JUMPDEST POP SUB SWAP1 JUMP JUMPDEST PUSH1 0x0 JUMPDEST DUP4 DUP2 LT ISZERO PUSH2 0x1C32 JUMPI DUP2 DUP2 ADD MLOAD DUP4 DUP3 ADD MSTORE PUSH1 0x20 ADD PUSH2 0x1C1A JUMP JUMPDEST DUP4 DUP2 GT ISZERO PUSH2 0x3A3 JUMPI POP POP PUSH1 0x0 SWAP2 ADD MSTORE JUMP JUMPDEST PUSH32 0x416363657373436F6E74726F6C3A206163636F756E7420000000000000000000 DUP2 MSTORE PUSH1 0x0 DUP4 MLOAD PUSH2 0x1C7B DUP2 PUSH1 0x17 DUP6 ADD PUSH1 0x20 DUP9 ADD PUSH2 0x1C17 JUMP JUMPDEST PUSH17 0x1034B99036B4B9B9B4B733903937B6329 PUSH1 0x7D SHL PUSH1 0x17 SWAP2 DUP5 ADD SWAP2 DUP3 ADD MSTORE DUP4 MLOAD PUSH2 0x1CAC DUP2 PUSH1 0x28 DUP5 ADD PUSH1 0x20 DUP9 ADD PUSH2 0x1C17 JUMP JUMPDEST ADD PUSH1 0x28 ADD SWAP5 SWAP4 POP POP POP POP JUMP JUMPDEST PUSH1 0x20 DUP2 MSTORE PUSH1 0x0 DUP3 MLOAD DUP1 PUSH1 0x20 DUP5 ADD MSTORE PUSH2 0x1CD7 DUP2 PUSH1 0x40 DUP6 ADD PUSH1 0x20 DUP8 ADD PUSH2 0x1C17 JUMP JUMPDEST PUSH1 0x1F ADD PUSH1 0x1F NOT AND SWAP2 SWAP1 SWAP2 ADD PUSH1 0x40 ADD SWAP3 SWAP2 POP POP JUMP JUMPDEST PUSH1 0x0 DUP2 PUSH2 0x1CFA JUMPI PUSH2 0x1CFA PUSH2 0x1935 JUMP JUMPDEST POP PUSH1 0x0 NOT ADD SWAP1 JUMP JUMPDEST PUSH4 0x4E487B71 PUSH1 0xE0 SHL PUSH1 0x0 MSTORE PUSH1 0x31 PUSH1 0x4 MSTORE PUSH1 0x24 PUSH1 0x0 REVERT INVALID LOG2 PUSH5 0x6970667358 0x22 SLT KECCAK256 RETURNDATACOPY PUSH22 0x442A7A7395A99D6A9E46865DC6D9C3DD2B73D54F045A DIFFICULTY CALL DUP15 OR 0x26 PUSH15 0xF29364736F6C634300080B00330000 "
		},
		"gasEstimates": {
			"creation": {
				"codeDepositCost": "1500400",
				"executionCost": "infinite",
				"totalCost": "infinite"
			},
			"external": {
				"ROLE_ADMIN()": "239",
				"addLiquidity(uint256,bool)": "infinite",
				"balancePrice()": "infinite",
				"buyUsdc(uint256)": "infinite",
				"getRoleAdmin(bytes32)": "2515",
				"getRoleMember(bytes32,uint256)": "infinite",
				"getRoleMemberCount(bytes32)": "infinite",
				"getUsdcPool()": "infinite",
				"grantRole(bytes32,address)": "infinite",
				"grantRolesBulk((bytes32,address)[])": "infinite",
				"hasRole(bytes32,address)": "2695",
				"onERC1155BatchReceived(address,address,uint256[],uint256[],bytes)": "infinite",
				"onERC1155Received(address,address,uint256,uint256,bytes)": "infinite",
				"removeLiquidity(uint256)": "infinite",
				"renounceRole(bytes32,address)": "infinite",
				"revokeRole(bytes32,address)": "infinite",
				"sellUsdc(uint256,bool)": "infinite",
				"supportsInterface(bytes4)": "infinite",
				"withdrawTokens(address[])": "infinite"
			},
			"internal": {
				"sqrt(uint256)": "infinite"
			}
		},
		"methodIdentifiers": {
			"ROLE_ADMIN()": "d391014b",
			"addLiquidity(uint256,bool)": "8a3aacb3",
			"balancePrice()": "e9e9c3af",
			"buyUsdc(uint256)": "bcfb3bbe",
			"getRoleAdmin(bytes32)": "248a9ca3",
			"getRoleMember(bytes32,uint256)": "9010d07c",
			"getRoleMemberCount(bytes32)": "ca15c873",
			"getUsdcPool()": "7574424f",
			"grantRole(bytes32,address)": "2f2ff15d",
			"grantRolesBulk((bytes32,address)[])": "03ed957f",
			"hasRole(bytes32,address)": "91d14854",
			"onERC1155BatchReceived(address,address,uint256[],uint256[],bytes)": "bc197c81",
			"onERC1155Received(address,address,uint256,uint256,bytes)": "f23a6e61",
			"removeLiquidity(uint256)": "9c8f9f23",
			"renounceRole(bytes32,address)": "36568abe",
			"revokeRole(bytes32,address)": "d547741f",
			"sellUsdc(uint256,bool)": "25936db5",
			"supportsInterface(bytes4)": "01ffc9a7",
			"withdrawTokens(address[])": "5ecb16cd"
		}
	},
	"abi": [
		{
			"inputs": [],
			"stateMutability": "nonpayable",
			"type": "constructor"
		},
		{
			"anonymous": false,
			"inputs": [
				{
					"indexed": true,
					"internalType": "bytes32",
					"name": "role",
					"type": "bytes32"
				},
				{
					"indexed": true,
					"internalType": "bytes32",
					"name": "previousAdminRole",
					"type": "bytes32"
				},
				{
					"indexed": true,
					"internalType": "bytes32",
					"name": "newAdminRole",
					"type": "bytes32"
				}
			],
			"name": "RoleAdminChanged",
			"type": "event"
		},
		{
			"anonymous": false,
			"inputs": [
				{
					"indexed": true,
					"internalType": "bytes32",
					"name": "role",
					"type": "bytes32"
				},
				{
					"indexed": true,
					"internalType": "address",
					"name": "account",
					"type": "address"
				},
				{
					"indexed": true,
					"internalType": "address",
					"name": "sender",
					"type": "address"
				}
			],
			"name": "RoleGranted",
			"type": "event"
		},
		{
			"anonymous": false,
			"inputs": [
				{
					"indexed": true,
					"internalType": "bytes32",
					"name": "role",
					"type": "bytes32"
				},
				{
					"indexed": true,
					"internalType": "address",
					"name": "account",
					"type": "address"
				},
				{
					"indexed": true,
					"internalType": "address",
					"name": "sender",
					"type": "address"
				}
			],
			"name": "RoleRevoked",
			"type": "event"
		},
		{
			"inputs": [],
			"name": "ROLE_ADMIN",
			"outputs": [
				{
					"internalType": "bytes32",
					"name": "",
					"type": "bytes32"
				}
			],
			"stateMutability": "view",
			"type": "function"
		},
		{
			"inputs": [
				{
					"internalType": "uint256",
					"name": "amountUsdcIn",
					"type": "uint256"
				},
				{
					"internalType": "bool",
					"name": "isMint",
					"type": "bool"
				}
			],
			"name": "addLiquidity",
			"outputs": [
				{
					"internalType": "uint256",
					"name": "",
					"type": "uint256"
				}
			],
			"stateMutability": "nonpayable",
			"type": "function"
		},
		{
			"inputs": [],
			"name": "balancePrice",
			"outputs": [],
			"stateMutability": "nonpayable",
			"type": "function"
		},
		{
			"inputs": [
				{
					"internalType": "uint256",
					"name": "amountCerUsdIn",
					"type": "uint256"
				}
			],
			"name": "buyUsdc",
			"outputs": [
				{
					"internalType": "uint256",
					"name": "",
					"type": "uint256"
				},
				{
					"internalType": "uint256",
					"name": "",
					"type": "uint256"
				}
			],
			"stateMutability": "nonpayable",
			"type": "function"
		},
		{
			"inputs": [
				{
					"internalType": "bytes32",
					"name": "role",
					"type": "bytes32"
				}
			],
			"name": "getRoleAdmin",
			"outputs": [
				{
					"internalType": "bytes32",
					"name": "",
					"type": "bytes32"
				}
			],
			"stateMutability": "view",
			"type": "function"
		},
		{
			"inputs": [
				{
					"internalType": "bytes32",
					"name": "role",
					"type": "bytes32"
				},
				{
					"internalType": "uint256",
					"name": "index",
					"type": "uint256"
				}
			],
			"name": "getRoleMember",
			"outputs": [
				{
					"internalType": "address",
					"name": "",
					"type": "address"
				}
			],
			"stateMutability": "view",
			"type": "function"
		},
		{
			"inputs": [
				{
					"internalType": "bytes32",
					"name": "role",
					"type": "bytes32"
				}
			],
			"name": "getRoleMemberCount",
			"outputs": [
				{
					"internalType": "uint256",
					"name": "",
					"type": "uint256"
				}
			],
			"stateMutability": "view",
			"type": "function"
		},
		{
			"inputs": [],
			"name": "getUsdcPool",
			"outputs": [
				{
					"internalType": "uint256",
					"name": "",
					"type": "uint256"
				},
				{
					"internalType": "uint256",
					"name": "",
					"type": "uint256"
				}
			],
			"stateMutability": "view",
			"type": "function"
		},
		{
			"inputs": [
				{
					"internalType": "bytes32",
					"name": "role",
					"type": "bytes32"
				},
				{
					"internalType": "address",
					"name": "account",
					"type": "address"
				}
			],
			"name": "grantRole",
			"outputs": [],
			"stateMutability": "nonpayable",
			"type": "function"
		},
		{
			"inputs": [
				{
					"components": [
						{
							"internalType": "bytes32",
							"name": "role",
							"type": "bytes32"
						},
						{
							"internalType": "address",
							"name": "addr",
							"type": "address"
						}
					],
					"internalType": "struct RoleAccess[]",
					"name": "roles",
					"type": "tuple[]"
				}
			],
			"name": "grantRolesBulk",
			"outputs": [],
			"stateMutability": "nonpayable",
			"type": "function"
		},
		{
			"inputs": [
				{
					"internalType": "bytes32",
					"name": "role",
					"type": "bytes32"
				},
				{
					"internalType": "address",
					"name": "account",
					"type": "address"
				}
			],
			"name": "hasRole",
			"outputs": [
				{
					"internalType": "bool",
					"name": "",
					"type": "bool"
				}
			],
			"stateMutability": "view",
			"type": "function"
		},
		{
			"inputs": [
				{
					"internalType": "address",
					"name": "",
					"type": "address"
				},
				{
					"internalType": "address",
					"name": "",
					"type": "address"
				},
				{
					"internalType": "uint256[]",
					"name": "",
					"type": "uint256[]"
				},
				{
					"internalType": "uint256[]",
					"name": "",
					"type": "uint256[]"
				},
				{
					"internalType": "bytes",
					"name": "",
					"type": "bytes"
				}
			],
			"name": "onERC1155BatchReceived",
			"outputs": [
				{
					"internalType": "bytes4",
					"name": "",
					"type": "bytes4"
				}
			],
			"stateMutability": "nonpayable",
			"type": "function"
		},
		{
			"inputs": [
				{
					"internalType": "address",
					"name": "",
					"type": "address"
				},
				{
					"internalType": "address",
					"name": "",
					"type": "address"
				},
				{
					"internalType": "uint256",
					"name": "",
					"type": "uint256"
				},
				{
					"internalType": "uint256",
					"name": "",
					"type": "uint256"
				},
				{
					"internalType": "bytes",
					"name": "",
					"type": "bytes"
				}
			],
			"name": "onERC1155Received",
			"outputs": [
				{
					"internalType": "bytes4",
					"name": "",
					"type": "bytes4"
				}
			],
			"stateMutability": "nonpayable",
			"type": "function"
		},
		{
			"inputs": [
				{
					"internalType": "uint256",
					"name": "percent",
					"type": "uint256"
				}
			],
			"name": "removeLiquidity",
			"outputs": [
				{
					"internalType": "uint256",
					"name": "",
					"type": "uint256"
				}
			],
			"stateMutability": "nonpayable",
			"type": "function"
		},
		{
			"inputs": [
				{
					"internalType": "bytes32",
					"name": "role",
					"type": "bytes32"
				},
				{
					"internalType": "address",
					"name": "account",
					"type": "address"
				}
			],
			"name": "renounceRole",
			"outputs": [],
			"stateMutability": "nonpayable",
			"type": "function"
		},
		{
			"inputs": [
				{
					"internalType": "bytes32",
					"name": "role",
					"type": "bytes32"
				},
				{
					"internalType": "address",
					"name": "account",
					"type": "address"
				}
			],
			"name": "revokeRole",
			"outputs": [],
			"stateMutability": "nonpayable",
			"type": "function"
		},
		{
			"inputs": [
				{
					"internalType": "uint256",
					"name": "amountUsdcIn",
					"type": "uint256"
				},
				{
					"internalType": "bool",
					"name": "isMint",
					"type": "bool"
				}
			],
			"name": "sellUsdc",
			"outputs": [
				{
					"internalType": "uint256",
					"name": "",
					"type": "uint256"
				},
				{
					"internalType": "uint256",
					"name": "",
					"type": "uint256"
				}
			],
			"stateMutability": "nonpayable",
			"type": "function"
		},
		{
			"inputs": [
				{
					"internalType": "bytes4",
					"name": "interfaceId",
					"type": "bytes4"
				}
			],
			"name": "supportsInterface",
			"outputs": [
				{
					"internalType": "bool",
					"name": "",
					"type": "bool"
				}
			],
			"stateMutability": "view",
			"type": "function"
		},
		{
			"inputs": [
				{
					"internalType": "address[]",
					"name": "tokens",
					"type": "address[]"
				}
			],
			"name": "withdrawTokens",
			"outputs": [],
			"stateMutability": "nonpayable",
			"type": "function"
		}
	]
}