{
	"data": {
		"bytecode": {
			"linkReferences": {},
			"object": "6080604052600d80546001600160a01b03191673e4dfe0fc73a9b9105ed0422ba66084b47a32499f1790553480156200003757600080fd5b50600060055562061a80600655601e6007556200005861016d600262000c05565b60085560016009556200006f61016d606462000c05565b600a5561012c600b556064600c5542600e556040805160608101825260008082526020808301828152670de0b6b3a7640000848601818152600280546001810182559086529551600080516020620044208339815191526003909702968701559151600080516020620044608339815191528601559051600080516020620044a083398151915290940193909355600d5484516318160ddd60e01b815294516000805160206200448083398151915295939485948594919385936001600160a01b03909116926318160ddd9260048082019391829003018186803b1580156200015757600080fd5b505afa1580156200016c573d6000803e3d6000fd5b505050506040513d601f19601f8201168201806040525081019062000192919062000c27565b604080519687526020870195909552938501929092526060840152608083015260a082015260c00160405180910390a160408051606081018252600080825260208201818152670de0b6b3a7640000938301938452600280546001818101835591845293516003948502600080516020620044208339815191528101919091559151600080516020620044608339815191528301559351600080516020620044a0833981519152909101558154928301825590815260008051602062004440833981519152909101556200026562000278565b620002726000336200028e565b62000ccd565b6200028c62000286620002d1565b62000311565b565b620002a5828262000a4d60201b62002ae21760201c565b6000828152600160209081526040909120620002cc91839062002af062000a5d821b17901c565b505050565b6000610258600e54620002e5919062000c41565b620002f36102584262000c41565b620002ff919062000c64565b6200030c90600162000c7e565b905090565b6200031b620002d1565b8111156200036f5760405162461bcd60e51b815260206004820152601860248201527f53533a2045786365656465642063757272656e74206461790000000000000000604482015260640160405180910390fd5b600254670de0b6b3a7640000906000906200038d9060019062000c64565b9050828114156200039d57505050565b805b838110156200072a576002546000908210620003cc57600254620003c69060019062000c64565b620003ce565b815b9050600060028281548110620003e857620003e862000c99565b9060005260206000209060030201600201546005600701546200040c919062000c05565b600c54600b54670de0b6b3a76400009188916200042a919062000c7e565b62000436919062000c05565b62000442919062000c05565b6200044e919062000c41565b90506000620f42406200046461016d8462000c05565b62000470919062000c05565b826002858154811062000487576200048762000c99565b906000526020600020906003020160010154620004a5919062000c7e565b600654620004b4908962000c05565b620004c0919062000c05565b620004cc919062000c41565b6002549091508410156200051f578060028481548110620004f157620004f162000c99565b9060005260206000209060030201600001600082825462000513919062000c7e565b90915550620005be9050565b600260405180606001604052808381526020016002868154811062000548576200054862000c99565b90600052602060002090600302016001015481526020016002868154811062000575576200057562000c99565b6000918252602080832060039283020160029081015490945285546001808201885596845292819020855193909202909101918255830151938101939093556040909101519101555b600080516020620044808339815191528460028581548110620005e557620005e562000c99565b906000526020600020906003020160000154600286815481106200060d576200060d62000c99565b9060005260206000209060030201600101546002878154811062000635576200063562000c99565b9060005260206000209060030201600201546200065762000a7d60201b60201c565b600d60009054906101000a90046001600160a01b03166001600160a01b03166318160ddd6040518163ffffffff1660e01b815260040160206040518083038186803b158015620006a657600080fd5b505afa158015620006bb573d6000803e3d6000fd5b505050506040513d601f19601f82011682018060405250810190620006e1919062000c27565b604080519687526020870195909552938501929092526060840152608083015260a082015260c00160405180910390a15050508080620007219062000caf565b9150506200039f565b50600254831415620007f257600260405180606001604052806000815260200160026001876200075b919062000c64565b815481106200076e576200076e62000c99565b9060005260206000209060030201600101548152602001600260018762000796919062000c64565b81548110620007a957620007a962000c99565b6000918252602080832060039283020160029081015490945285546001808201885596845292819020855193909202909101918255830151938101939093556040909101519101555b600354600090620008069060019062000c64565b905060006200081760648662000c41565b9050815b8181101562000a18576000806200083460648462000c05565b90505b60646200084684600162000c7e565b62000852919062000c05565b81101562000926576002818154811062000870576200087062000c99565b90600052602060002090600302016001015460001415620008915762000911565b60028181548110620008a757620008a762000c99565b906000526020600020906003020160010154670de0b6b3a764000060028381548110620008d857620008d862000c99565b906000526020600020906003020160000154620008f6919062000c05565b62000902919062000c41565b6200090e908362000c7e565b91505b806200091d8162000caf565b91505062000837565b506003548210156200096c5760038054829190620009479060019062000c64565b815481106200095a576200095a62000c99565b6000918252602090912001556200098e565b6003805460018101825560009182526000805160206200444083398151915201555b6003547f1c9ce6f1d7f557dc59b02392857734618e6bc787c6a7c136a8bc32bed4e19111908390620009c39060019062000c64565b60038581548110620009d957620009d962000c99565b60009182526020918290200154604080519485529184019290925282015260600160405180910390a1508062000a0f8162000caf565b9150506200081b565b5060035481141562000a46576003805460018101825560009182526000805160206200444083398151915201555b5050505050565b62000a59828262000afd565b5050565b600062000a74836001600160a01b03841662000b9d565b90505b92915050565b600d546040516370a0823160e01b81523060048201526000916001600160a01b0316906370a082319060240160206040518083038186803b15801562000ac257600080fd5b505afa15801562000ad7573d6000803e3d6000fd5b505050506040513d601f19601f820116820180604052508101906200030c919062000c27565b6000828152602081815260408083206001600160a01b038516845290915290205460ff1662000a59576000828152602081815260408083206001600160a01b03851684529091529020805460ff1916600117905562000b593390565b6001600160a01b0316816001600160a01b0316837f2f8788117e7eff1d82e926ec794901d17c78024a50270940304540a733656f0d60405160405180910390a45050565b600081815260018301602052604081205462000be65750815460018181018455600084815260208082209093018490558454848252828601909352604090209190915562000a77565b50600062000a77565b634e487b7160e01b600052601160045260246000fd5b600081600019048311821515161562000c225762000c2262000bef565b500290565b60006020828403121562000c3a57600080fd5b5051919050565b60008262000c5f57634e487b7160e01b600052601260045260246000fd5b500490565b60008282101562000c795762000c7962000bef565b500390565b6000821982111562000c945762000c9462000bef565b500190565b634e487b7160e01b600052603260045260246000fd5b600060001982141562000cc65762000cc662000bef565b5060010190565b6137438062000cdd6000396000f3fe608060405234801561001057600080fd5b506004361061023d5760003560e01c806365cf7c9b1161013b578063c82e3067116100b8578063d5a44f861161007c578063d5a44f86146104d9578063e06174e41461051e578063e59443e61461057f578063e99884a314610592578063ea580bf21461059a57600080fd5b8063c82e30671461049b578063ca15c873146104a3578063d391014b146104b6578063d50116b8146104be578063d547741f146104c657600080fd5b806395f6f5d2116100ff57806395f6f5d21461042c578063a2ac13d31461043f578063ad110a671461046d578063c397810114610480578063c763e2fc1461049357600080fd5b806365cf7c9b146103bf5780637ba4bcfb146103c857806382c44854146103db5780639010d07c146103ee57806391d148541461041957600080fd5b80632871a56b116101c9578063388a1a811161018d578063388a1a81146103815780634bade67e146103945780635540be7d1461039c57806358962a38146103af5780635a49e94d146103b757600080fd5b80632871a56b1461032257806329507f73146103355780632a486b90146103485780632f2ff15d1461035b57806336568abe1461036e57600080fd5b80631e22ddc7116102105780631e22ddc7146102a55780631f009bdb146102c6578063248a9ca3146102d95780632777acdb146102fc57806327de406f1461030f57600080fd5b806301ffc9a71461024257806303ed957f1461026a5780630cbe28d61461027f5780630ffed08a14610292575b600080fd5b610255610250366004613098565b6105ad565b60405190151581526020015b60405180910390f35b61027d61027836600461310e565b6105d8565b005b61027d61028d366004613150565b610655565b61027d6102a0366004613169565b610d10565b6102b86102b3366004613192565b610de0565b604051908152602001610261565b61027d6102d436600461310e565b6112fd565b6102b86102e7366004613150565b60009081526020819052604090206001015490565b6102b861030a36600461328e565b61134b565b6102b861031d366004613150565b61148b565b6102b86103303660046132c2565b6114ac565b61027d6103433660046132ed565b611758565b61027d61035636600461335e565b611933565b61027d6103693660046132ed565b611971565b61027d61037c3660046132ed565b611993565b6102b861038f366004613394565b6119b5565b6004546102b8565b61027d6103aa36600461335e565b6119d4565b6003546102b8565b6002546102b8565b6102b8600e5481565b61027d6103d6366004613150565b611a12565b6102b86103e93660046133b6565b611e5a565b6104016103fc366004613394565b611e7a565b6040516001600160a01b039091168152602001610261565b6102556104273660046132ed565b611e92565b61027d61043a3660046133e2565b611ebb565b61045261044d366004613150565b611f80565b60408051938452602084019290925290820152606001610261565b61027d61047b366004613150565b611fb3565b6102b861048e3660046132c2565b612697565b6102b86128ee565b6102b861296f565b6102b86104b1366004613150565b612985565b6102b8600081565b61027d61299c565b61027d6104d43660046132ed565b6129a9565b6104ec6104e7366004613150565b6129b3565b604080516001600160a01b0390961686526020860194909452928401919091526060830152608082015260a001610261565b600554600654600754600854600954600a54600b54600c54610544979695949392919088565b604080519889526020890197909752958701949094526060860192909252608085015260a084015260c083015260e082015261010001610261565b61027d61058d36600461340c565b6129fe565b6102b8612a3d565b6102b86105a8366004613394565b612a70565b60006001600160e01b03198216635a05180f60e01b14806105d257506105d282612b05565b92915050565b60006105e48133612b3a565b60005b8281101561064f5761063d84848381811061060457610604613460565b9050604002016000013585858481811061062057610620613460565b90506040020160200160208101906106389190613476565b612b9e565b80610647816134a7565b9150506105e7565b50505050565b806004818154811061066957610669613460565b60009182526020909120600590910201546001600160a01b031633146106aa5760405162461bcd60e51b81526004016106a1906134c2565b60405180910390fd5b600454829081106106cd5760405162461bcd60e51b81526004016106a1906134f9565b82600481815481106106e1576106e1613460565b9060005260206000209060050201600401546000146107125760405162461bcd60e51b81526004016106a190613530565b61071a61299c565b6000610724612a3d565b9050806004868154811061073a5761073a613460565b906000526020600020906005020160040181905550600d60009054906101000a90046001600160a01b03166001600160a01b0316639cff2eba30336004898154811061078857610788613460565b60009182526020909120600160059092020101546040516001600160e01b031960e086901b1681526001600160a01b0393841660048201529290911660248301526044820152606401600060405180830381600087803b1580156107eb57600080fd5b505af11580156107ff573d6000803e3d6000fd5b5050505060006004868154811061081857610818613460565b9060005260206000209060050201600301546004878154811061083d5761083d613460565b9060005260206000209060050201600201546108599190613567565b8210156109125760006004878154811061087557610875613460565b60009182526020918290206040805160a081018252600590930290910180546001600160a01b031683526001810154938301939093526002830154908201526003820154606082015260049182015460808201528154909250889081106108de576108de613460565b906000526020600020906005020160020154836108fb919061357f565b606082015261090a81846114ac565b915050610985565b6109826004878154811061092857610928613460565b60009182526020918290206040805160a081018252600590930290910180546001600160a01b03168352600181015493830193909352600283015490820152600382015460608201526004909101546080820152836114ac565b90505b80156109f057600d54604051630bb9ff5d60e01b8152336004820152602481018390526001600160a01b0390911690630bb9ff5d90604401600060405180830381600087803b1580156109d757600080fd5b505af11580156109eb573d6000803e3d6000fd5b505050505b6000610a6360048881548110610a0857610a08613460565b60009182526020918290206040805160a081018252600590930290910180546001600160a01b03168352600181015493830193909352600283015490820152600382015460608201526004909101546080820152848461134b565b90508015610b0957600d546040516318a8ad8760e01b8152336004820152602481018390526001600160a01b03909116906318a8ad8790604401600060405180830381600087803b158015610ab757600080fd5b505af1158015610acb573d6000803e3d6000fd5b505050508060028481548110610ae357610ae3613460565b90600052602060002090600302016000016000828254610b039190613567565b90915550505b6000818360048a81548110610b2057610b20613460565b906000526020600020906005020160010154610b3c9190613567565b610b46919061357f565b90506000610bba60048a81548110610b6057610b60613460565b906000526020600020906005020160010154670de0b6b3a764000084610b869190613596565b610b9091906135cb565b60028781548110610ba357610ba3613460565b906000526020600020906003020160020154612ba8565b905060028581548110610bcf57610bcf613460565b906000526020600020906003020160020154811115610c12578060028681548110610bfc57610bfc613460565b9060005260206000209060030201600201819055505b6000610c8160048b81548110610c2a57610c2a613460565b600091825260208083206040805160a081018252600590940290910180546001600160a01b031684526001810154928401929092526002820154908301526003810154606083015260040154608082015290612697565b90508060028781548110610c9757610c97613460565b90600052602060002090600302016001016000828254610cb7919061357f565b9091555050604080518b815260208101889052908101869052606081018590527f68e2a823e3745ee73ff62ba1efa63a1b770cd0bd3568495adc9cdf11c858684d9060800160405180910390a150505050505050505050565b6000610d1c8133612b3a565b81356005908155602083013560065560408301356007556060830135600855608083013560095560a0830135600a5560c0830135600b5560e0830135600c55829050506040805183358152602080850135908201528184013591810191909152606080840135908201526080808401359082015260a0808401359082015260c0808401359082015260e080840135908201527fe32288882b122aa895e6ef550fc65b0439c341d34be5f1db849bb4f4e4e96f9e906101000160405180910390a15050565b8051600090610e455760405162461bcd60e51b815260206004820152602b60248201527f53533a205374616b6564416d6f756e742068617320746f206265206c6172676560448201526a72207468616e207a65726f60a81b60648201526084016106a1565b600d546040516370a0823160e01b81523360048201526001600160a01b03909116906370a082319060240160206040518083038186803b158015610e8857600080fd5b505afa158015610e9c573d6000803e3d6000fd5b505050506040513d601f19601f82011682018060405250810190610ec091906135df565b82511115610f105760405162461bcd60e51b815260206004820181905260248201527f53533a205374616b6564416d6f756e7420657863656564732062616c616e636560448201526064016106a1565b60095460208301511015610f7e5760405162461bcd60e51b815260206004820152602f60248201527f53533a205374616b65206d757374206265206c6f636b656420666f72206d6f7260448201526e65207468616e206d696e206461797360881b60648201526084016106a1565b600a5460208301511115610fed5760405162461bcd60e51b815260206004820152603060248201527f53533a205374616b65206d757374206265206c6f636b656420666f72206c657360448201526f73207468616e206d617820796561727360801b60648201526084016106a1565b610ff561299c565b600d548251604051634e7f975d60e11b815233600482015230602482015260448101919091526001600160a01b0390911690639cff2eba90606401600060405180830381600087803b15801561104a57600080fd5b505af115801561105e573d6000803e3d6000fd5b50505050600061106c612a3d565b6040805160a08101825233815285516020808301918252928201848152928701516060830190815260006080840181815260048054600180820183559382905286517f8a35acfbc15ff81a39ae7d344fd709f28e8600b4aa8c65c6b64bfe7fe36bd19b600590920291820180546001600160a01b0319166001600160a01b0390921691909117905594517f8a35acfbc15ff81a39ae7d344fd709f28e8600b4aa8c65c6b64bfe7fe36bd19c86015595517f8a35acfbc15ff81a39ae7d344fd709f28e8600b4aa8c65c6b64bfe7fe36bd19d85015591517f8a35acfbc15ff81a39ae7d344fd709f28e8600b4aa8c65c6b64bfe7fe36bd19e84015590517f8a35acfbc15ff81a39ae7d344fd709f28e8600b4aa8c65c6b64bfe7fe36bd19f909201919091559154929350916111a0919061357f565b925060006111af826000612697565b905080600284815481106111c5576111c5613460565b906000526020600020906003020160010160008282546111e59190613567565b925050819055507fb3b7bd78c90933ee8b729da4592fa8ff3fcaad310e548c299cc82de3b4ff09ba846004868154811061122157611221613460565b6000918252602090912060059091020154600480546001600160a01b03909216918890811061125257611252613460565b9060005260206000209060050201600101546004888154811061127757611277613460565b9060005260206000209060050201600201546004898154811061129c5761129c613460565b906000526020600020906005020160030154866040516112ed969594939291909586526001600160a01b0394909416602086015260408501929092526060840152608083015260a082015260c00190565b60405180910390a1505050919050565b60005b818110156113465761133383838381811061131d5761131d613460565b9050604002018036038101906102b39190613192565b508061133e816134a7565b915050611300565b505050565b600080600085604001518511611362576000611371565b6040860151611371908661357f565b905060008487602001516113859190613567565b600554909150821161139957809250611480565b866060015182116113e15760055460608801516113b6919061357f565b8288606001516113c6919061357f565b6113d09083613596565b6113da91906135cb565b9250611480565b60075460608801516113f39190613567565b82116114025760009250611480565b60085460075460608901516114179190613567565b6114219190613567565b82116114665760085461143590600a613596565b6007546060890151611447908561357f565b611451919061357f565b61145c836009613596565b6113d09190613596565b600a611473826009613596565b61147d91906135cb565b92505b509095945050505050565b6003818154811061149b57600080fd5b600091825260209091200154905081565b6000826040015182116114c1575060006105d2565b6000806114e184866060015187604001516114dc9190613567565b612bbf565b90506114f281600280549050612bbf565b905060006115008686612697565b905060006064876040015161151591906135cb565b611520906001613567565b90506000611533846114dc606485613596565b60408901519091505b818110156115f4576002818154811061155757611557613460565b90600052602060002090600302016001015460001415611576576115e2565b6002818154811061158957611589613460565b90600052602060002090600302016001015484600283815481106115af576115af613460565b9060005260206000209060030201600001546115cb9190613596565b6115d591906135cb565b6115df9087613567565b95505b806115ec816134a7565b91505061153c565b5060006116026064866135cb565b9050825b8181101561166857670de0b6b3a7640000856003838154811061162b5761162b613460565b90600052602060002001546116409190613596565b61164a91906135cb565b6116549088613567565b965080611660816134a7565b915050611606565b5060006116766064876135f8565b611680908761357f565b9050896040015181111561174a57805b8681101561174857600281815481106116ab576116ab613460565b906000526020600020906003020160010154600014156116ca57611736565b600281815481106116dd576116dd613460565b906000526020600020906003020160010154866002838154811061170357611703613460565b90600052602060002090600302016000015461171f9190613596565b61172991906135cb565b6117339089613567565b97505b80611740816134a7565b915050611690565b505b509498975050505050505050565b816004818154811061176c5761176c613460565b60009182526020909120600590910201546001600160a01b031633146117a45760405162461bcd60e51b81526004016106a1906134c2565b600454839081106117c75760405162461bcd60e51b81526004016106a1906134f9565b83600481815481106117db576117db613460565b90600052602060002090600502016004015460001461180c5760405162461bcd60e51b81526004016106a190613530565b836001600160a01b03166004868154811061182957611829613460565b60009182526020909120600590910201546001600160a01b031614156118a85760405162461bcd60e51b815260206004820152602e60248201527f53533a204e6577206f776e6572206d75737420626520646966666572656e742060448201526d333937b69037b6321037bbb732b960911b60648201526084016106a1565b6118b061299c565b83600486815481106118c4576118c4613460565b60009182526020918290206005919091020180546001600160a01b0319166001600160a01b0393841617905560408051888152928716918301919091527f2cad8e3e3a0926d0a7524bd52dda355991edb76a6b44ef43e75417996062ac7a910160405180910390a15050505050565b60005b818110156113465761195f83838381811061195357611953613460565b90506020020135610655565b80611969816134a7565b915050611936565b61197b8282612bd0565b60008281526001602052604090206113469082612af0565b61199d8282612be6565b60008281526001602052604090206113469082612c60565b60006119cd6004848154811061092857610928613460565b9392505050565b60005b8181101561134657611a008383838181106119f4576119f4613460565b90506020020135611a12565b80611a0a816134a7565b9150506119d7565b8060048181548110611a2657611a26613460565b60009182526020909120600590910201546001600160a01b03163314611a5e5760405162461bcd60e51b81526004016106a1906134c2565b60045482908110611a815760405162461bcd60e51b81526004016106a1906134f9565b8260048181548110611a9557611a95613460565b906000526020600020906005020160040154600014611ac65760405162461bcd60e51b81526004016106a190613530565b611ace61299c565b6000611ad8612a3d565b905060048581548110611aed57611aed613460565b906000526020600020906005020160020154600560000154611b0f9190613567565b8111611b835760405162461bcd60e51b815260206004820152603f60248201527f53533a205363726170696e6720697320617661696c61626c65206f6e6365206960448201527f6e204d494e494d554d5f444159535f464f525f484947485f50454e414c54590060648201526084016106a1565b60048581548110611b9657611b96613460565b90600052602060002090600502016003015460048681548110611bbb57611bbb613460565b906000526020600020906005020160020154611bd79190613567565b8110611c4d576040805162461bcd60e51b81526020600482015260248101919091527f53533a205363726170696e6720697320617661696c61626c65206f6e6365207760448201527f68696c65207374616b6520697320496e2050726f67726573732073746174757360648201526084016106a1565b600060048681548110611c6257611c62613460565b9060005260206000209060050201600101549050600060048781548110611c8b57611c8b613460565b90600052602060002090600502016003015490506000611cb760048981548110610c2a57610c2a613460565b905060048881548110611ccc57611ccc613460565b90600052602060002090600502016002015484611ce9919061357f565b60048981548110611cfc57611cfc613460565b9060005260206000209060050201600301819055506000611d2960048a81548110610c2a57610c2a613460565b9050808260028781548110611d4057611d40613460565b906000526020600020906003020160010154611d5c919061357f565b611d669190613567565b60028681548110611d7957611d79613460565b9060005260206000209060030201600101819055507f3e2d801cabf80e21f37737b105feedef59585176ae82a611b6239e59fccaaea28960048b81548110611dc357611dc3613460565b6000918252602091829020600360059092020101546040805193845291830152810183905260600160405180910390a1611dfc89610655565b600060048a81548110611e1157611e11613460565b90600052602060002090600502016003015484611e2e919061357f565b9050611e4d604051806040016040528087815260200183815250610de0565b5050505050505050505050565b6000611e7260048581548110610a0857610a08613460565b949350505050565b60008281526001602052604081206119cd9083612c75565b6000918252602082815260408084206001600160a01b0393909316845291905290205460ff1690565b6000611ec78133612b3a565b611ecf61299c565b600d546040516318a8ad8760e01b81526001600160a01b03858116600483015260248201859052909116906318a8ad8790604401600060405180830381600087803b158015611f1d57600080fd5b505af1158015611f31573d6000803e3d6000fd5b505050506000611f3f612a3d565b90508260028281548110611f5557611f55613460565b90600052602060002090600302016000016000828254611f759190613567565b909155505050505050565b60028181548110611f9057600080fd5b600091825260209091206003909102018054600182015460029092015490925083565b611fbb612a3d565b81111561200a5760405162461bcd60e51b815260206004820152601860248201527f53533a2045786365656465642063757272656e7420646179000000000000000060448201526064016106a1565b600254670de0b6b3a7640000906000906120269060019061357f565b90508281141561203557505050565b805b8381101561238d57600254600090821061205f5760025461205a9060019061357f565b612061565b815b905060006002828154811061207857612078613460565b90600052602060002090600302016002015460056007015461209a9190613596565b600c54600b54670de0b6b3a76400009188916120b69190613567565b6120c09190613596565b6120ca9190613596565b6120d491906135cb565b90506000620f42406120e861016d84613596565b6120f29190613596565b826002858154811061210657612106613460565b9060005260206000209060030201600101546121229190613567565b60065461212f9089613596565b6121399190613596565b61214391906135cb565b60025490915084101561218f57806002848154811061216457612164613460565b906000526020600020906003020160000160008282546121849190613567565b909155506122289050565b60026040518060600160405280838152602001600286815481106121b5576121b5613460565b9060005260206000209060030201600101548152602001600286815481106121df576121df613460565b6000918252602080832060039283020160029081015490945285546001808201885596845292819020855193909202909101918255830151938101939093556040909101519101555b7f45bc90c5e61be4d79e2f0c1154a663332bbccf6a26759463d04772164eebfed2846002858154811061225d5761225d613460565b9060005260206000209060030201600001546002868154811061228257612282613460565b906000526020600020906003020160010154600287815481106122a7576122a7613460565b9060005260206000209060030201600201546122c16128ee565b600d60009054906101000a90046001600160a01b03166001600160a01b03166318160ddd6040518163ffffffff1660e01b815260040160206040518083038186803b15801561230f57600080fd5b505afa158015612323573d6000803e3d6000fd5b505050506040513d601f19601f8201168201806040525081019061234791906135df565b604080519687526020870195909552938501929092526060840152608083015260a082015260c00160405180910390a15050508080612385906134a7565b915050612037565b5060025483141561244a57600260405180606001604052806000815260200160026001876123bb919061357f565b815481106123cb576123cb613460565b906000526020600020906003020160010154815260200160026001876123f1919061357f565b8154811061240157612401613460565b6000918252602080832060039283020160029081015490945285546001808201885596845292819020855193909202909101918255830151938101939093556040909101519101555b60035460009061245c9060019061357f565b9050600061246b6064866135cb565b9050815b8181101561265257600080612485606484613596565b90505b6064612495846001613567565b61249f9190613596565b81101561255e57600281815481106124b9576124b9613460565b906000526020600020906003020160010154600014156124d85761254c565b600281815481106124eb576124eb613460565b906000526020600020906003020160010154670de0b6b3a76400006002838154811061251957612519613460565b9060005260206000209060030201600001546125359190613596565b61253f91906135cb565b6125499083613567565b91505b80612556816134a7565b915050612488565b5060035482101561259d576003805482919061257c9060019061357f565b8154811061258c5761258c613460565b6000918252602090912001556125d0565b6003805460018101825560009182527fc2575a0e9e593c00f959f8c92f12db2869c3395a3b0502d05e2516446f71f85b01555b6003547f1c9ce6f1d7f557dc59b02392857734618e6bc787c6a7c136a8bc32bed4e191119083906126039060019061357f565b6003858154811061261657612616613460565b60009182526020918290200154604080519485529184019290925282015260600160405180910390a1508061264a816134a7565b91505061246f565b50600354811415612690576003805460018101825560009182527fc2575a0e9e593c00f959f8c92f12db2869c3395a3b0502d05e2516446f71f85b01555b5050505050565b600080826126aa575060608301516126d6565b83604001518311156126cc5760408401516126c5908461357f565b90506126d6565b60009150506105d2565b6126e7816114dc61016d600a613596565b9050600061270e600186604001516126ff919061357f565b6002546114dc9060019061357f565b905060006002828154811061272557612725613460565b906000526020600020906003020160020154670de0b6b3a7640000876020015161274f9190613596565b61275991906135cb565b905060006002838154811061277057612770613460565b90600052602060002090600302016002015461016d600560070154600a6127979190613596565b6127a19190613596565b6127ab9190613596565b670de0b6b3a76400008860200151866005600601546127ca9190613596565b6127d49190613596565b6127de9190613596565b6127e891906135cb565b90506000683635c9adc5dea0000088602001511161281a57612813670de0b6b3a76400006002613596565b90506128b7565b8760200151683635c9adc5dea00000108015612843575069d3c21bcecceda10000008860200151105b156128ac57612865683635c9adc5dea0000069d3c21bcecceda100000061357f565b602089015161287e9069d3c21bcecceda100000061357f565b61289090670de0b6b3a7640000613596565b61289a91906135cb565b61281390670de0b6b3a7640000613567565b50670de0b6b3a76400005b6000670de0b6b3a7640000826128cd8587613567565b6128d79190613596565b6128e191906135cb565b9998505050505050505050565b600d546040516370a0823160e01b81523060048201526000916001600160a01b0316906370a082319060240160206040518083038186803b15801561293257600080fd5b505afa158015612946573d6000803e3d6000fd5b505050506040513d601f19601f8201168201806040525081019061296a91906135df565b905090565b6000606461297b612a3d565b61296a91906135cb565b60008181526001602052604081206105d290612c81565b6129a761047b612a3d565b565b61199d8282612c8b565b600481815481106129c357600080fd5b6000918252602090912060059091020180546001820154600283015460038401546004909401546001600160a01b0390931694509092909185565b60005b8281101561064f57612a2b848483818110612a1e57612a1e613460565b9050602002013583611758565b80612a35816134a7565b915050612a01565b6000610258600e54612a4f91906135cb565b612a5b610258426135cb565b612a65919061357f565b61296a906001613567565b60006119cd60048481548110612a8857612a88613460565b60009182526020918290206040805160a081018252600590930290910180546001600160a01b0316835260018101549383019390935260028301549082015260038201546060820152600490910154608082015283612697565b612aec8282612cb1565b5050565b60006119cd836001600160a01b038416612d35565b60006001600160e01b03198216637965db0b60e01b14806105d257506301ffc9a760e01b6001600160e01b03198316146105d2565b612b448282611e92565b612aec57612b5c816001600160a01b03166014612d84565b612b67836020612d84565b604051602001612b78929190613638565b60408051601f198184030181529082905262461bcd60e51b82526106a1916004016136ad565b61197b8282612ae2565b600081831115612bb95750816105d2565b50919050565b600081831015612bb95750816105d2565b6000612bdc8133612b3a565b6113468383612cb1565b6001600160a01b0381163314612c565760405162461bcd60e51b815260206004820152602f60248201527f416363657373436f6e74726f6c3a2063616e206f6e6c792072656e6f756e636560448201526e103937b632b9903337b91039b2b63360891b60648201526084016106a1565b612aec8282612f20565b60006119cd836001600160a01b038416612f85565b60006119cd838361306e565b60006105d2825490565b600082815260208190526040902060010154612ca78133612b3a565b6113468383612f20565b612cbb8282611e92565b612aec576000828152602081815260408083206001600160a01b03851684529091529020805460ff19166001179055612cf13390565b6001600160a01b0316816001600160a01b0316837f2f8788117e7eff1d82e926ec794901d17c78024a50270940304540a733656f0d60405160405180910390a45050565b6000818152600183016020526040812054612d7c575081546001818101845560008481526020808220909301849055845484825282860190935260409020919091556105d2565b5060006105d2565b60606000612d93836002613596565b612d9e906002613567565b67ffffffffffffffff811115612db657612db661317c565b6040519080825280601f01601f191660200182016040528015612de0576020820181803683370190505b509050600360fc1b81600081518110612dfb57612dfb613460565b60200101906001600160f81b031916908160001a905350600f60fb1b81600181518110612e2a57612e2a613460565b60200101906001600160f81b031916908160001a9053506000612e4e846002613596565b612e59906001613567565b90505b6001811115612ed1576f181899199a1a9b1b9c1cb0b131b232b360811b85600f1660108110612e8d57612e8d613460565b1a60f81b828281518110612ea357612ea3613460565b60200101906001600160f81b031916908160001a90535060049490941c93612eca816136e0565b9050612e5c565b5083156119cd5760405162461bcd60e51b815260206004820181905260248201527f537472696e67733a20686578206c656e67746820696e73756666696369656e7460448201526064016106a1565b612f2a8282611e92565b15612aec576000828152602081815260408083206001600160a01b0385168085529252808320805460ff1916905551339285917ff6391f5c32d9c69d2a47ea670b442974b53935d1edc7fd64eb21e047a839171b9190a45050565b600081815260018301602052604081205480156126cc576000612fa960018361357f565b8554909150600090612fbd9060019061357f565b9050818114613022576000866000018281548110612fdd57612fdd613460565b906000526020600020015490508087600001848154811061300057613000613460565b6000918252602080832090910192909255918252600188019052604090208390555b8554869080613033576130336136f7565b6001900381819060005260206000200160009055905585600101600086815260200190815260200160002060009055600193505050506105d2565b600082600001828154811061308557613085613460565b9060005260206000200154905092915050565b6000602082840312156130aa57600080fd5b81356001600160e01b0319811681146119cd57600080fd5b60008083601f8401126130d457600080fd5b50813567ffffffffffffffff8111156130ec57600080fd5b6020830191508360208260061b850101111561310757600080fd5b9250929050565b6000806020838503121561312157600080fd5b823567ffffffffffffffff81111561313857600080fd5b613144858286016130c2565b90969095509350505050565b60006020828403121561316257600080fd5b5035919050565b60006101008284031215612bb957600080fd5b634e487b7160e01b600052604160045260246000fd5b6000604082840312156131a457600080fd5b6040516040810181811067ffffffffffffffff821117156131d557634e487b7160e01b600052604160045260246000fd5b604052823581526020928301359281019290925250919050565b80356001600160a01b038116811461320657600080fd5b919050565b600060a0828403121561321d57600080fd5b60405160a0810181811067ffffffffffffffff8211171561324e57634e487b7160e01b600052604160045260246000fd5b60405290508061325d836131ef565b8152602083013560208201526040830135604082015260608301356060820152608083013560808201525092915050565b600080600060e084860312156132a357600080fd5b6132ad858561320b565b9560a0850135955060c0909401359392505050565b60008060c083850312156132d557600080fd5b6132df848461320b565b9460a0939093013593505050565b6000806040838503121561330057600080fd5b82359150613310602084016131ef565b90509250929050565b60008083601f84011261332b57600080fd5b50813567ffffffffffffffff81111561334357600080fd5b6020830191508360208260051b850101111561310757600080fd5b6000806020838503121561337157600080fd5b823567ffffffffffffffff81111561338857600080fd5b61314485828601613319565b600080604083850312156133a757600080fd5b50508035926020909101359150565b6000806000606084860312156133cb57600080fd5b505081359360208301359350604090920135919050565b600080604083850312156133f557600080fd5b6133fe836131ef565b946020939093013593505050565b60008060006040848603121561342157600080fd5b833567ffffffffffffffff81111561343857600080fd5b61344486828701613319565b90945092506134579050602085016131ef565b90509250925092565b634e487b7160e01b600052603260045260246000fd5b60006020828403121561348857600080fd5b6119cd826131ef565b634e487b7160e01b600052601160045260246000fd5b60006000198214156134bb576134bb613491565b5060010190565b6020808252601e908201527f53533a205374616b65206f776e657220646f6573206e6f74206d617463680000604082015260600190565b60208082526018908201527f53533a205374616b6520646f6573206e6f742065786973740000000000000000604082015260600190565b6020808252601b908201527f53533a205374616b652077617320616c726561647920656e6465640000000000604082015260600190565b6000821982111561357a5761357a613491565b500190565b60008282101561359157613591613491565b500390565b60008160001904831182151516156135b0576135b0613491565b500290565b634e487b7160e01b600052601260045260246000fd5b6000826135da576135da6135b5565b500490565b6000602082840312156135f157600080fd5b5051919050565b600082613607576136076135b5565b500690565b60005b8381101561362757818101518382015260200161360f565b8381111561064f5750506000910152565b7f416363657373436f6e74726f6c3a206163636f756e742000000000000000000081526000835161367081601785016020880161360c565b7001034b99036b4b9b9b4b733903937b6329607d1b60179184019182015283516136a181602884016020880161360c565b01602801949350505050565b60208152600082518060208401526136cc81604085016020870161360c565b601f01601f19169190910160400192915050565b6000816136ef576136ef613491565b506000190190565b634e487b7160e01b600052603160045260246000fdfea264697066735822122072600b248f655122a3e002efc64fa35746e7edf09bd2a859f20be6bb3f1e1bc164736f6c63430008090033405787fa12a823e0f2b7631cc41b3ba8828b3321ca811111fa75cd3aa3bb5acec2575a0e9e593c00f959f8c92f12db2869c3395a3b0502d05e2516446f71f85b405787fa12a823e0f2b7631cc41b3ba8828b3321ca811111fa75cd3aa3bb5acf45bc90c5e61be4d79e2f0c1154a663332bbccf6a26759463d04772164eebfed2405787fa12a823e0f2b7631cc41b3ba8828b3321ca811111fa75cd3aa3bb5ad0",
			"opcodes": "PUSH1 0x80 PUSH1 0x40 MSTORE PUSH1 0xD DUP1 SLOAD PUSH1 0x1 PUSH1 0x1 PUSH1 0xA0 SHL SUB NOT AND PUSH20 0xE4DFE0FC73A9B9105ED0422BA66084B47A32499F OR SWAP1 SSTORE CALLVALUE DUP1 ISZERO PUSH3 0x37 JUMPI PUSH1 0x0 DUP1 REVERT JUMPDEST POP PUSH1 0x0 PUSH1 0x5 SSTORE PUSH3 0x61A80 PUSH1 0x6 SSTORE PUSH1 0x1E PUSH1 0x7 SSTORE PUSH3 0x58 PUSH2 0x16D PUSH1 0x2 PUSH3 0xC05 JUMP JUMPDEST PUSH1 0x8 SSTORE PUSH1 0x1 PUSH1 0x9 SSTORE PUSH3 0x6F PUSH2 0x16D PUSH1 0x64 PUSH3 0xC05 JUMP JUMPDEST PUSH1 0xA SSTORE PUSH2 0x12C PUSH1 0xB SSTORE PUSH1 0x64 PUSH1 0xC SSTORE TIMESTAMP PUSH1 0xE SSTORE PUSH1 0x40 DUP1 MLOAD PUSH1 0x60 DUP2 ADD DUP3 MSTORE PUSH1 0x0 DUP1 DUP3 MSTORE PUSH1 0x20 DUP1 DUP4 ADD DUP3 DUP2 MSTORE PUSH8 0xDE0B6B3A7640000 DUP5 DUP7 ADD DUP2 DUP2 MSTORE PUSH1 0x2 DUP1 SLOAD PUSH1 0x1 DUP2 ADD DUP3 SSTORE SWAP1 DUP7 MSTORE SWAP6 MLOAD PUSH1 0x0 DUP1 MLOAD PUSH1 0x20 PUSH3 0x4420 DUP4 CODECOPY DUP2 MLOAD SWAP2 MSTORE PUSH1 0x3 SWAP1 SWAP8 MUL SWAP7 DUP8 ADD SSTORE SWAP2 MLOAD PUSH1 0x0 DUP1 MLOAD PUSH1 0x20 PUSH3 0x4460 DUP4 CODECOPY DUP2 MLOAD SWAP2 MSTORE DUP7 ADD SSTORE SWAP1 MLOAD PUSH1 0x0 DUP1 MLOAD PUSH1 0x20 PUSH3 0x44A0 DUP4 CODECOPY DUP2 MLOAD SWAP2 MSTORE SWAP1 SWAP5 ADD SWAP4 SWAP1 SWAP4 SSTORE PUSH1 0xD SLOAD DUP5 MLOAD PUSH4 0x18160DDD PUSH1 0xE0 SHL DUP2 MSTORE SWAP5 MLOAD PUSH1 0x0 DUP1 MLOAD PUSH1 0x20 PUSH3 0x4480 DUP4 CODECOPY DUP2 MLOAD SWAP2 MSTORE SWAP6 SWAP4 SWAP5 DUP6 SWAP5 DUP6 SWAP5 SWAP2 SWAP4 DUP6 SWAP4 PUSH1 0x1 PUSH1 0x1 PUSH1 0xA0 SHL SUB SWAP1 SWAP2 AND SWAP3 PUSH4 0x18160DDD SWAP3 PUSH1 0x4 DUP1 DUP3 ADD SWAP4 SWAP2 DUP3 SWAP1 SUB ADD DUP2 DUP7 DUP1 EXTCODESIZE ISZERO DUP1 ISZERO PUSH3 0x157 JUMPI PUSH1 0x0 DUP1 REVERT JUMPDEST POP GAS STATICCALL ISZERO DUP1 ISZERO PUSH3 0x16C JUMPI RETURNDATASIZE PUSH1 0x0 DUP1 RETURNDATACOPY RETURNDATASIZE PUSH1 0x0 REVERT JUMPDEST POP POP POP POP PUSH1 0x40 MLOAD RETURNDATASIZE PUSH1 0x1F NOT PUSH1 0x1F DUP3 ADD AND DUP3 ADD DUP1 PUSH1 0x40 MSTORE POP DUP2 ADD SWAP1 PUSH3 0x192 SWAP2 SWAP1 PUSH3 0xC27 JUMP JUMPDEST PUSH1 0x40 DUP1 MLOAD SWAP7 DUP8 MSTORE PUSH1 0x20 DUP8 ADD SWAP6 SWAP1 SWAP6 MSTORE SWAP4 DUP6 ADD SWAP3 SWAP1 SWAP3 MSTORE PUSH1 0x60 DUP5 ADD MSTORE PUSH1 0x80 DUP4 ADD MSTORE PUSH1 0xA0 DUP3 ADD MSTORE PUSH1 0xC0 ADD PUSH1 0x40 MLOAD DUP1 SWAP2 SUB SWAP1 LOG1 PUSH1 0x40 DUP1 MLOAD PUSH1 0x60 DUP2 ADD DUP3 MSTORE PUSH1 0x0 DUP1 DUP3 MSTORE PUSH1 0x20 DUP3 ADD DUP2 DUP2 MSTORE PUSH8 0xDE0B6B3A7640000 SWAP4 DUP4 ADD SWAP4 DUP5 MSTORE PUSH1 0x2 DUP1 SLOAD PUSH1 0x1 DUP2 DUP2 ADD DUP4 SSTORE SWAP2 DUP5 MSTORE SWAP4 MLOAD PUSH1 0x3 SWAP5 DUP6 MUL PUSH1 0x0 DUP1 MLOAD PUSH1 0x20 PUSH3 0x4420 DUP4 CODECOPY DUP2 MLOAD SWAP2 MSTORE DUP2 ADD SWAP2 SWAP1 SWAP2 SSTORE SWAP2 MLOAD PUSH1 0x0 DUP1 MLOAD PUSH1 0x20 PUSH3 0x4460 DUP4 CODECOPY DUP2 MLOAD SWAP2 MSTORE DUP4 ADD SSTORE SWAP4 MLOAD PUSH1 0x0 DUP1 MLOAD PUSH1 0x20 PUSH3 0x44A0 DUP4 CODECOPY DUP2 MLOAD SWAP2 MSTORE SWAP1 SWAP2 ADD SSTORE DUP2 SLOAD SWAP3 DUP4 ADD DUP3 SSTORE SWAP1 DUP2 MSTORE PUSH1 0x0 DUP1 MLOAD PUSH1 0x20 PUSH3 0x4440 DUP4 CODECOPY DUP2 MLOAD SWAP2 MSTORE SWAP1 SWAP2 ADD SSTORE PUSH3 0x265 PUSH3 0x278 JUMP JUMPDEST PUSH3 0x272 PUSH1 0x0 CALLER PUSH3 0x28E JUMP JUMPDEST PUSH3 0xCCD JUMP JUMPDEST PUSH3 0x28C PUSH3 0x286 PUSH3 0x2D1 JUMP JUMPDEST PUSH3 0x311 JUMP JUMPDEST JUMP JUMPDEST PUSH3 0x2A5 DUP3 DUP3 PUSH3 0xA4D PUSH1 0x20 SHL PUSH3 0x2AE2 OR PUSH1 0x20 SHR JUMP JUMPDEST PUSH1 0x0 DUP3 DUP2 MSTORE PUSH1 0x1 PUSH1 0x20 SWAP1 DUP2 MSTORE PUSH1 0x40 SWAP1 SWAP2 KECCAK256 PUSH3 0x2CC SWAP2 DUP4 SWAP1 PUSH3 0x2AF0 PUSH3 0xA5D DUP3 SHL OR SWAP1 SHR JUMP JUMPDEST POP POP POP JUMP JUMPDEST PUSH1 0x0 PUSH2 0x258 PUSH1 0xE SLOAD PUSH3 0x2E5 SWAP2 SWAP1 PUSH3 0xC41 JUMP JUMPDEST PUSH3 0x2F3 PUSH2 0x258 TIMESTAMP PUSH3 0xC41 JUMP JUMPDEST PUSH3 0x2FF SWAP2 SWAP1 PUSH3 0xC64 JUMP JUMPDEST PUSH3 0x30C SWAP1 PUSH1 0x1 PUSH3 0xC7E JUMP JUMPDEST SWAP1 POP SWAP1 JUMP JUMPDEST PUSH3 0x31B PUSH3 0x2D1 JUMP JUMPDEST DUP2 GT ISZERO PUSH3 0x36F JUMPI PUSH1 0x40 MLOAD PUSH3 0x461BCD PUSH1 0xE5 SHL DUP2 MSTORE PUSH1 0x20 PUSH1 0x4 DUP3 ADD MSTORE PUSH1 0x18 PUSH1 0x24 DUP3 ADD MSTORE PUSH32 0x53533A2045786365656465642063757272656E74206461790000000000000000 PUSH1 0x44 DUP3 ADD MSTORE PUSH1 0x64 ADD PUSH1 0x40 MLOAD DUP1 SWAP2 SUB SWAP1 REVERT JUMPDEST PUSH1 0x2 SLOAD PUSH8 0xDE0B6B3A7640000 SWAP1 PUSH1 0x0 SWAP1 PUSH3 0x38D SWAP1 PUSH1 0x1 SWAP1 PUSH3 0xC64 JUMP JUMPDEST SWAP1 POP DUP3 DUP2 EQ ISZERO PUSH3 0x39D JUMPI POP POP POP JUMP JUMPDEST DUP1 JUMPDEST DUP4 DUP2 LT ISZERO PUSH3 0x72A JUMPI PUSH1 0x2 SLOAD PUSH1 0x0 SWAP1 DUP3 LT PUSH3 0x3CC JUMPI PUSH1 0x2 SLOAD PUSH3 0x3C6 SWAP1 PUSH1 0x1 SWAP1 PUSH3 0xC64 JUMP JUMPDEST PUSH3 0x3CE JUMP JUMPDEST DUP2 JUMPDEST SWAP1 POP PUSH1 0x0 PUSH1 0x2 DUP3 DUP2 SLOAD DUP2 LT PUSH3 0x3E8 JUMPI PUSH3 0x3E8 PUSH3 0xC99 JUMP JUMPDEST SWAP1 PUSH1 0x0 MSTORE PUSH1 0x20 PUSH1 0x0 KECCAK256 SWAP1 PUSH1 0x3 MUL ADD PUSH1 0x2 ADD SLOAD PUSH1 0x5 PUSH1 0x7 ADD SLOAD PUSH3 0x40C SWAP2 SWAP1 PUSH3 0xC05 JUMP JUMPDEST PUSH1 0xC SLOAD PUSH1 0xB SLOAD PUSH8 0xDE0B6B3A7640000 SWAP2 DUP9 SWAP2 PUSH3 0x42A SWAP2 SWAP1 PUSH3 0xC7E JUMP JUMPDEST PUSH3 0x436 SWAP2 SWAP1 PUSH3 0xC05 JUMP JUMPDEST PUSH3 0x442 SWAP2 SWAP1 PUSH3 0xC05 JUMP JUMPDEST PUSH3 0x44E SWAP2 SWAP1 PUSH3 0xC41 JUMP JUMPDEST SWAP1 POP PUSH1 0x0 PUSH3 0xF4240 PUSH3 0x464 PUSH2 0x16D DUP5 PUSH3 0xC05 JUMP JUMPDEST PUSH3 0x470 SWAP2 SWAP1 PUSH3 0xC05 JUMP JUMPDEST DUP3 PUSH1 0x2 DUP6 DUP2 SLOAD DUP2 LT PUSH3 0x487 JUMPI PUSH3 0x487 PUSH3 0xC99 JUMP JUMPDEST SWAP1 PUSH1 0x0 MSTORE PUSH1 0x20 PUSH1 0x0 KECCAK256 SWAP1 PUSH1 0x3 MUL ADD PUSH1 0x1 ADD SLOAD PUSH3 0x4A5 SWAP2 SWAP1 PUSH3 0xC7E JUMP JUMPDEST PUSH1 0x6 SLOAD PUSH3 0x4B4 SWAP1 DUP10 PUSH3 0xC05 JUMP JUMPDEST PUSH3 0x4C0 SWAP2 SWAP1 PUSH3 0xC05 JUMP JUMPDEST PUSH3 0x4CC SWAP2 SWAP1 PUSH3 0xC41 JUMP JUMPDEST PUSH1 0x2 SLOAD SWAP1 SWAP2 POP DUP5 LT ISZERO PUSH3 0x51F JUMPI DUP1 PUSH1 0x2 DUP5 DUP2 SLOAD DUP2 LT PUSH3 0x4F1 JUMPI PUSH3 0x4F1 PUSH3 0xC99 JUMP JUMPDEST SWAP1 PUSH1 0x0 MSTORE PUSH1 0x20 PUSH1 0x0 KECCAK256 SWAP1 PUSH1 0x3 MUL ADD PUSH1 0x0 ADD PUSH1 0x0 DUP3 DUP3 SLOAD PUSH3 0x513 SWAP2 SWAP1 PUSH3 0xC7E JUMP JUMPDEST SWAP1 SWAP2 SSTORE POP PUSH3 0x5BE SWAP1 POP JUMP JUMPDEST PUSH1 0x2 PUSH1 0x40 MLOAD DUP1 PUSH1 0x60 ADD PUSH1 0x40 MSTORE DUP1 DUP4 DUP2 MSTORE PUSH1 0x20 ADD PUSH1 0x2 DUP7 DUP2 SLOAD DUP2 LT PUSH3 0x548 JUMPI PUSH3 0x548 PUSH3 0xC99 JUMP JUMPDEST SWAP1 PUSH1 0x0 MSTORE PUSH1 0x20 PUSH1 0x0 KECCAK256 SWAP1 PUSH1 0x3 MUL ADD PUSH1 0x1 ADD SLOAD DUP2 MSTORE PUSH1 0x20 ADD PUSH1 0x2 DUP7 DUP2 SLOAD DUP2 LT PUSH3 0x575 JUMPI PUSH3 0x575 PUSH3 0xC99 JUMP JUMPDEST PUSH1 0x0 SWAP2 DUP3 MSTORE PUSH1 0x20 DUP1 DUP4 KECCAK256 PUSH1 0x3 SWAP3 DUP4 MUL ADD PUSH1 0x2 SWAP1 DUP2 ADD SLOAD SWAP1 SWAP5 MSTORE DUP6 SLOAD PUSH1 0x1 DUP1 DUP3 ADD DUP9 SSTORE SWAP7 DUP5 MSTORE SWAP3 DUP2 SWAP1 KECCAK256 DUP6 MLOAD SWAP4 SWAP1 SWAP3 MUL SWAP1 SWAP2 ADD SWAP2 DUP3 SSTORE DUP4 ADD MLOAD SWAP4 DUP2 ADD SWAP4 SWAP1 SWAP4 SSTORE PUSH1 0x40 SWAP1 SWAP2 ADD MLOAD SWAP2 ADD SSTORE JUMPDEST PUSH1 0x0 DUP1 MLOAD PUSH1 0x20 PUSH3 0x4480 DUP4 CODECOPY DUP2 MLOAD SWAP2 MSTORE DUP5 PUSH1 0x2 DUP6 DUP2 SLOAD DUP2 LT PUSH3 0x5E5 JUMPI PUSH3 0x5E5 PUSH3 0xC99 JUMP JUMPDEST SWAP1 PUSH1 0x0 MSTORE PUSH1 0x20 PUSH1 0x0 KECCAK256 SWAP1 PUSH1 0x3 MUL ADD PUSH1 0x0 ADD SLOAD PUSH1 0x2 DUP7 DUP2 SLOAD DUP2 LT PUSH3 0x60D JUMPI PUSH3 0x60D PUSH3 0xC99 JUMP JUMPDEST SWAP1 PUSH1 0x0 MSTORE PUSH1 0x20 PUSH1 0x0 KECCAK256 SWAP1 PUSH1 0x3 MUL ADD PUSH1 0x1 ADD SLOAD PUSH1 0x2 DUP8 DUP2 SLOAD DUP2 LT PUSH3 0x635 JUMPI PUSH3 0x635 PUSH3 0xC99 JUMP JUMPDEST SWAP1 PUSH1 0x0 MSTORE PUSH1 0x20 PUSH1 0x0 KECCAK256 SWAP1 PUSH1 0x3 MUL ADD PUSH1 0x2 ADD SLOAD PUSH3 0x657 PUSH3 0xA7D PUSH1 0x20 SHL PUSH1 0x20 SHR JUMP JUMPDEST PUSH1 0xD PUSH1 0x0 SWAP1 SLOAD SWAP1 PUSH2 0x100 EXP SWAP1 DIV PUSH1 0x1 PUSH1 0x1 PUSH1 0xA0 SHL SUB AND PUSH1 0x1 PUSH1 0x1 PUSH1 0xA0 SHL SUB AND PUSH4 0x18160DDD PUSH1 0x40 MLOAD DUP2 PUSH4 0xFFFFFFFF AND PUSH1 0xE0 SHL DUP2 MSTORE PUSH1 0x4 ADD PUSH1 0x20 PUSH1 0x40 MLOAD DUP1 DUP4 SUB DUP2 DUP7 DUP1 EXTCODESIZE ISZERO DUP1 ISZERO PUSH3 0x6A6 JUMPI PUSH1 0x0 DUP1 REVERT JUMPDEST POP GAS STATICCALL ISZERO DUP1 ISZERO PUSH3 0x6BB JUMPI RETURNDATASIZE PUSH1 0x0 DUP1 RETURNDATACOPY RETURNDATASIZE PUSH1 0x0 REVERT JUMPDEST POP POP POP POP PUSH1 0x40 MLOAD RETURNDATASIZE PUSH1 0x1F NOT PUSH1 0x1F DUP3 ADD AND DUP3 ADD DUP1 PUSH1 0x40 MSTORE POP DUP2 ADD SWAP1 PUSH3 0x6E1 SWAP2 SWAP1 PUSH3 0xC27 JUMP JUMPDEST PUSH1 0x40 DUP1 MLOAD SWAP7 DUP8 MSTORE PUSH1 0x20 DUP8 ADD SWAP6 SWAP1 SWAP6 MSTORE SWAP4 DUP6 ADD SWAP3 SWAP1 SWAP3 MSTORE PUSH1 0x60 DUP5 ADD MSTORE PUSH1 0x80 DUP4 ADD MSTORE PUSH1 0xA0 DUP3 ADD MSTORE PUSH1 0xC0 ADD PUSH1 0x40 MLOAD DUP1 SWAP2 SUB SWAP1 LOG1 POP POP POP DUP1 DUP1 PUSH3 0x721 SWAP1 PUSH3 0xCAF JUMP JUMPDEST SWAP2 POP POP PUSH3 0x39F JUMP JUMPDEST POP PUSH1 0x2 SLOAD DUP4 EQ ISZERO PUSH3 0x7F2 JUMPI PUSH1 0x2 PUSH1 0x40 MLOAD DUP1 PUSH1 0x60 ADD PUSH1 0x40 MSTORE DUP1 PUSH1 0x0 DUP2 MSTORE PUSH1 0x20 ADD PUSH1 0x2 PUSH1 0x1 DUP8 PUSH3 0x75B SWAP2 SWAP1 PUSH3 0xC64 JUMP JUMPDEST DUP2 SLOAD DUP2 LT PUSH3 0x76E JUMPI PUSH3 0x76E PUSH3 0xC99 JUMP JUMPDEST SWAP1 PUSH1 0x0 MSTORE PUSH1 0x20 PUSH1 0x0 KECCAK256 SWAP1 PUSH1 0x3 MUL ADD PUSH1 0x1 ADD SLOAD DUP2 MSTORE PUSH1 0x20 ADD PUSH1 0x2 PUSH1 0x1 DUP8 PUSH3 0x796 SWAP2 SWAP1 PUSH3 0xC64 JUMP JUMPDEST DUP2 SLOAD DUP2 LT PUSH3 0x7A9 JUMPI PUSH3 0x7A9 PUSH3 0xC99 JUMP JUMPDEST PUSH1 0x0 SWAP2 DUP3 MSTORE PUSH1 0x20 DUP1 DUP4 KECCAK256 PUSH1 0x3 SWAP3 DUP4 MUL ADD PUSH1 0x2 SWAP1 DUP2 ADD SLOAD SWAP1 SWAP5 MSTORE DUP6 SLOAD PUSH1 0x1 DUP1 DUP3 ADD DUP9 SSTORE SWAP7 DUP5 MSTORE SWAP3 DUP2 SWAP1 KECCAK256 DUP6 MLOAD SWAP4 SWAP1 SWAP3 MUL SWAP1 SWAP2 ADD SWAP2 DUP3 SSTORE DUP4 ADD MLOAD SWAP4 DUP2 ADD SWAP4 SWAP1 SWAP4 SSTORE PUSH1 0x40 SWAP1 SWAP2 ADD MLOAD SWAP2 ADD SSTORE JUMPDEST PUSH1 0x3 SLOAD PUSH1 0x0 SWAP1 PUSH3 0x806 SWAP1 PUSH1 0x1 SWAP1 PUSH3 0xC64 JUMP JUMPDEST SWAP1 POP PUSH1 0x0 PUSH3 0x817 PUSH1 0x64 DUP7 PUSH3 0xC41 JUMP JUMPDEST SWAP1 POP DUP2 JUMPDEST DUP2 DUP2 LT ISZERO PUSH3 0xA18 JUMPI PUSH1 0x0 DUP1 PUSH3 0x834 PUSH1 0x64 DUP5 PUSH3 0xC05 JUMP JUMPDEST SWAP1 POP JUMPDEST PUSH1 0x64 PUSH3 0x846 DUP5 PUSH1 0x1 PUSH3 0xC7E JUMP JUMPDEST PUSH3 0x852 SWAP2 SWAP1 PUSH3 0xC05 JUMP JUMPDEST DUP2 LT ISZERO PUSH3 0x926 JUMPI PUSH1 0x2 DUP2 DUP2 SLOAD DUP2 LT PUSH3 0x870 JUMPI PUSH3 0x870 PUSH3 0xC99 JUMP JUMPDEST SWAP1 PUSH1 0x0 MSTORE PUSH1 0x20 PUSH1 0x0 KECCAK256 SWAP1 PUSH1 0x3 MUL ADD PUSH1 0x1 ADD SLOAD PUSH1 0x0 EQ ISZERO PUSH3 0x891 JUMPI PUSH3 0x911 JUMP JUMPDEST PUSH1 0x2 DUP2 DUP2 SLOAD DUP2 LT PUSH3 0x8A7 JUMPI PUSH3 0x8A7 PUSH3 0xC99 JUMP JUMPDEST SWAP1 PUSH1 0x0 MSTORE PUSH1 0x20 PUSH1 0x0 KECCAK256 SWAP1 PUSH1 0x3 MUL ADD PUSH1 0x1 ADD SLOAD PUSH8 0xDE0B6B3A7640000 PUSH1 0x2 DUP4 DUP2 SLOAD DUP2 LT PUSH3 0x8D8 JUMPI PUSH3 0x8D8 PUSH3 0xC99 JUMP JUMPDEST SWAP1 PUSH1 0x0 MSTORE PUSH1 0x20 PUSH1 0x0 KECCAK256 SWAP1 PUSH1 0x3 MUL ADD PUSH1 0x0 ADD SLOAD PUSH3 0x8F6 SWAP2 SWAP1 PUSH3 0xC05 JUMP JUMPDEST PUSH3 0x902 SWAP2 SWAP1 PUSH3 0xC41 JUMP JUMPDEST PUSH3 0x90E SWAP1 DUP4 PUSH3 0xC7E JUMP JUMPDEST SWAP2 POP JUMPDEST DUP1 PUSH3 0x91D DUP2 PUSH3 0xCAF JUMP JUMPDEST SWAP2 POP POP PUSH3 0x837 JUMP JUMPDEST POP PUSH1 0x3 SLOAD DUP3 LT ISZERO PUSH3 0x96C JUMPI PUSH1 0x3 DUP1 SLOAD DUP3 SWAP2 SWAP1 PUSH3 0x947 SWAP1 PUSH1 0x1 SWAP1 PUSH3 0xC64 JUMP JUMPDEST DUP2 SLOAD DUP2 LT PUSH3 0x95A JUMPI PUSH3 0x95A PUSH3 0xC99 JUMP JUMPDEST PUSH1 0x0 SWAP2 DUP3 MSTORE PUSH1 0x20 SWAP1 SWAP2 KECCAK256 ADD SSTORE PUSH3 0x98E JUMP JUMPDEST PUSH1 0x3 DUP1 SLOAD PUSH1 0x1 DUP2 ADD DUP3 SSTORE PUSH1 0x0 SWAP2 DUP3 MSTORE PUSH1 0x0 DUP1 MLOAD PUSH1 0x20 PUSH3 0x4440 DUP4 CODECOPY DUP2 MLOAD SWAP2 MSTORE ADD SSTORE JUMPDEST PUSH1 0x3 SLOAD PUSH32 0x1C9CE6F1D7F557DC59B02392857734618E6BC787C6A7C136A8BC32BED4E19111 SWAP1 DUP4 SWAP1 PUSH3 0x9C3 SWAP1 PUSH1 0x1 SWAP1 PUSH3 0xC64 JUMP JUMPDEST PUSH1 0x3 DUP6 DUP2 SLOAD DUP2 LT PUSH3 0x9D9 JUMPI PUSH3 0x9D9 PUSH3 0xC99 JUMP JUMPDEST PUSH1 0x0 SWAP2 DUP3 MSTORE PUSH1 0x20 SWAP2 DUP3 SWAP1 KECCAK256 ADD SLOAD PUSH1 0x40 DUP1 MLOAD SWAP5 DUP6 MSTORE SWAP2 DUP5 ADD SWAP3 SWAP1 SWAP3 MSTORE DUP3 ADD MSTORE PUSH1 0x60 ADD PUSH1 0x40 MLOAD DUP1 SWAP2 SUB SWAP1 LOG1 POP DUP1 PUSH3 0xA0F DUP2 PUSH3 0xCAF JUMP JUMPDEST SWAP2 POP POP PUSH3 0x81B JUMP JUMPDEST POP PUSH1 0x3 SLOAD DUP2 EQ ISZERO PUSH3 0xA46 JUMPI PUSH1 0x3 DUP1 SLOAD PUSH1 0x1 DUP2 ADD DUP3 SSTORE PUSH1 0x0 SWAP2 DUP3 MSTORE PUSH1 0x0 DUP1 MLOAD PUSH1 0x20 PUSH3 0x4440 DUP4 CODECOPY DUP2 MLOAD SWAP2 MSTORE ADD SSTORE JUMPDEST POP POP POP POP POP JUMP JUMPDEST PUSH3 0xA59 DUP3 DUP3 PUSH3 0xAFD JUMP JUMPDEST POP POP JUMP JUMPDEST PUSH1 0x0 PUSH3 0xA74 DUP4 PUSH1 0x1 PUSH1 0x1 PUSH1 0xA0 SHL SUB DUP5 AND PUSH3 0xB9D JUMP JUMPDEST SWAP1 POP JUMPDEST SWAP3 SWAP2 POP POP JUMP JUMPDEST PUSH1 0xD SLOAD PUSH1 0x40 MLOAD PUSH4 0x70A08231 PUSH1 0xE0 SHL DUP2 MSTORE ADDRESS PUSH1 0x4 DUP3 ADD MSTORE PUSH1 0x0 SWAP2 PUSH1 0x1 PUSH1 0x1 PUSH1 0xA0 SHL SUB AND SWAP1 PUSH4 0x70A08231 SWAP1 PUSH1 0x24 ADD PUSH1 0x20 PUSH1 0x40 MLOAD DUP1 DUP4 SUB DUP2 DUP7 DUP1 EXTCODESIZE ISZERO DUP1 ISZERO PUSH3 0xAC2 JUMPI PUSH1 0x0 DUP1 REVERT JUMPDEST POP GAS STATICCALL ISZERO DUP1 ISZERO PUSH3 0xAD7 JUMPI RETURNDATASIZE PUSH1 0x0 DUP1 RETURNDATACOPY RETURNDATASIZE PUSH1 0x0 REVERT JUMPDEST POP POP POP POP PUSH1 0x40 MLOAD RETURNDATASIZE PUSH1 0x1F NOT PUSH1 0x1F DUP3 ADD AND DUP3 ADD DUP1 PUSH1 0x40 MSTORE POP DUP2 ADD SWAP1 PUSH3 0x30C SWAP2 SWAP1 PUSH3 0xC27 JUMP JUMPDEST PUSH1 0x0 DUP3 DUP2 MSTORE PUSH1 0x20 DUP2 DUP2 MSTORE PUSH1 0x40 DUP1 DUP4 KECCAK256 PUSH1 0x1 PUSH1 0x1 PUSH1 0xA0 SHL SUB DUP6 AND DUP5 MSTORE SWAP1 SWAP2 MSTORE SWAP1 KECCAK256 SLOAD PUSH1 0xFF AND PUSH3 0xA59 JUMPI PUSH1 0x0 DUP3 DUP2 MSTORE PUSH1 0x20 DUP2 DUP2 MSTORE PUSH1 0x40 DUP1 DUP4 KECCAK256 PUSH1 0x1 PUSH1 0x1 PUSH1 0xA0 SHL SUB DUP6 AND DUP5 MSTORE SWAP1 SWAP2 MSTORE SWAP1 KECCAK256 DUP1 SLOAD PUSH1 0xFF NOT AND PUSH1 0x1 OR SWAP1 SSTORE PUSH3 0xB59 CALLER SWAP1 JUMP JUMPDEST PUSH1 0x1 PUSH1 0x1 PUSH1 0xA0 SHL SUB AND DUP2 PUSH1 0x1 PUSH1 0x1 PUSH1 0xA0 SHL SUB AND DUP4 PUSH32 0x2F8788117E7EFF1D82E926EC794901D17C78024A50270940304540A733656F0D PUSH1 0x40 MLOAD PUSH1 0x40 MLOAD DUP1 SWAP2 SUB SWAP1 LOG4 POP POP JUMP JUMPDEST PUSH1 0x0 DUP2 DUP2 MSTORE PUSH1 0x1 DUP4 ADD PUSH1 0x20 MSTORE PUSH1 0x40 DUP2 KECCAK256 SLOAD PUSH3 0xBE6 JUMPI POP DUP2 SLOAD PUSH1 0x1 DUP2 DUP2 ADD DUP5 SSTORE PUSH1 0x0 DUP5 DUP2 MSTORE PUSH1 0x20 DUP1 DUP3 KECCAK256 SWAP1 SWAP4 ADD DUP5 SWAP1 SSTORE DUP5 SLOAD DUP5 DUP3 MSTORE DUP3 DUP7 ADD SWAP1 SWAP4 MSTORE PUSH1 0x40 SWAP1 KECCAK256 SWAP2 SWAP1 SWAP2 SSTORE PUSH3 0xA77 JUMP JUMPDEST POP PUSH1 0x0 PUSH3 0xA77 JUMP JUMPDEST PUSH4 0x4E487B71 PUSH1 0xE0 SHL PUSH1 0x0 MSTORE PUSH1 0x11 PUSH1 0x4 MSTORE PUSH1 0x24 PUSH1 0x0 REVERT JUMPDEST PUSH1 0x0 DUP2 PUSH1 0x0 NOT DIV DUP4 GT DUP3 ISZERO ISZERO AND ISZERO PUSH3 0xC22 JUMPI PUSH3 0xC22 PUSH3 0xBEF JUMP JUMPDEST POP MUL SWAP1 JUMP JUMPDEST PUSH1 0x0 PUSH1 0x20 DUP3 DUP5 SUB SLT ISZERO PUSH3 0xC3A JUMPI PUSH1 0x0 DUP1 REVERT JUMPDEST POP MLOAD SWAP2 SWAP1 POP JUMP JUMPDEST PUSH1 0x0 DUP3 PUSH3 0xC5F JUMPI PUSH4 0x4E487B71 PUSH1 0xE0 SHL PUSH1 0x0 MSTORE PUSH1 0x12 PUSH1 0x4 MSTORE PUSH1 0x24 PUSH1 0x0 REVERT JUMPDEST POP DIV SWAP1 JUMP JUMPDEST PUSH1 0x0 DUP3 DUP3 LT ISZERO PUSH3 0xC79 JUMPI PUSH3 0xC79 PUSH3 0xBEF JUMP JUMPDEST POP SUB SWAP1 JUMP JUMPDEST PUSH1 0x0 DUP3 NOT DUP3 GT ISZERO PUSH3 0xC94 JUMPI PUSH3 0xC94 PUSH3 0xBEF JUMP JUMPDEST POP ADD SWAP1 JUMP JUMPDEST PUSH4 0x4E487B71 PUSH1 0xE0 SHL PUSH1 0x0 MSTORE PUSH1 0x32 PUSH1 0x4 MSTORE PUSH1 0x24 PUSH1 0x0 REVERT JUMPDEST PUSH1 0x0 PUSH1 0x0 NOT DUP3 EQ ISZERO PUSH3 0xCC6 JUMPI PUSH3 0xCC6 PUSH3 0xBEF JUMP JUMPDEST POP PUSH1 0x1 ADD SWAP1 JUMP JUMPDEST PUSH2 0x3743 DUP1 PUSH3 0xCDD PUSH1 0x0 CODECOPY PUSH1 0x0 RETURN INVALID PUSH1 0x80 PUSH1 0x40 MSTORE CALLVALUE DUP1 ISZERO PUSH2 0x10 JUMPI PUSH1 0x0 DUP1 REVERT JUMPDEST POP PUSH1 0x4 CALLDATASIZE LT PUSH2 0x23D JUMPI PUSH1 0x0 CALLDATALOAD PUSH1 0xE0 SHR DUP1 PUSH4 0x65CF7C9B GT PUSH2 0x13B JUMPI DUP1 PUSH4 0xC82E3067 GT PUSH2 0xB8 JUMPI DUP1 PUSH4 0xD5A44F86 GT PUSH2 0x7C JUMPI DUP1 PUSH4 0xD5A44F86 EQ PUSH2 0x4D9 JUMPI DUP1 PUSH4 0xE06174E4 EQ PUSH2 0x51E JUMPI DUP1 PUSH4 0xE59443E6 EQ PUSH2 0x57F JUMPI DUP1 PUSH4 0xE99884A3 EQ PUSH2 0x592 JUMPI DUP1 PUSH4 0xEA580BF2 EQ PUSH2 0x59A JUMPI PUSH1 0x0 DUP1 REVERT JUMPDEST DUP1 PUSH4 0xC82E3067 EQ PUSH2 0x49B JUMPI DUP1 PUSH4 0xCA15C873 EQ PUSH2 0x4A3 JUMPI DUP1 PUSH4 0xD391014B EQ PUSH2 0x4B6 JUMPI DUP1 PUSH4 0xD50116B8 EQ PUSH2 0x4BE JUMPI DUP1 PUSH4 0xD547741F EQ PUSH2 0x4C6 JUMPI PUSH1 0x0 DUP1 REVERT JUMPDEST DUP1 PUSH4 0x95F6F5D2 GT PUSH2 0xFF JUMPI DUP1 PUSH4 0x95F6F5D2 EQ PUSH2 0x42C JUMPI DUP1 PUSH4 0xA2AC13D3 EQ PUSH2 0x43F JUMPI DUP1 PUSH4 0xAD110A67 EQ PUSH2 0x46D JUMPI DUP1 PUSH4 0xC3978101 EQ PUSH2 0x480 JUMPI DUP1 PUSH4 0xC763E2FC EQ PUSH2 0x493 JUMPI PUSH1 0x0 DUP1 REVERT JUMPDEST DUP1 PUSH4 0x65CF7C9B EQ PUSH2 0x3BF JUMPI DUP1 PUSH4 0x7BA4BCFB EQ PUSH2 0x3C8 JUMPI DUP1 PUSH4 0x82C44854 EQ PUSH2 0x3DB JUMPI DUP1 PUSH4 0x9010D07C EQ PUSH2 0x3EE JUMPI DUP1 PUSH4 0x91D14854 EQ PUSH2 0x419 JUMPI PUSH1 0x0 DUP1 REVERT JUMPDEST DUP1 PUSH4 0x2871A56B GT PUSH2 0x1C9 JUMPI DUP1 PUSH4 0x388A1A81 GT PUSH2 0x18D JUMPI DUP1 PUSH4 0x388A1A81 EQ PUSH2 0x381 JUMPI DUP1 PUSH4 0x4BADE67E EQ PUSH2 0x394 JUMPI DUP1 PUSH4 0x5540BE7D EQ PUSH2 0x39C JUMPI DUP1 PUSH4 0x58962A38 EQ PUSH2 0x3AF JUMPI DUP1 PUSH4 0x5A49E94D EQ PUSH2 0x3B7 JUMPI PUSH1 0x0 DUP1 REVERT JUMPDEST DUP1 PUSH4 0x2871A56B EQ PUSH2 0x322 JUMPI DUP1 PUSH4 0x29507F73 EQ PUSH2 0x335 JUMPI DUP1 PUSH4 0x2A486B90 EQ PUSH2 0x348 JUMPI DUP1 PUSH4 0x2F2FF15D EQ PUSH2 0x35B JUMPI DUP1 PUSH4 0x36568ABE EQ PUSH2 0x36E JUMPI PUSH1 0x0 DUP1 REVERT JUMPDEST DUP1 PUSH4 0x1E22DDC7 GT PUSH2 0x210 JUMPI DUP1 PUSH4 0x1E22DDC7 EQ PUSH2 0x2A5 JUMPI DUP1 PUSH4 0x1F009BDB EQ PUSH2 0x2C6 JUMPI DUP1 PUSH4 0x248A9CA3 EQ PUSH2 0x2D9 JUMPI DUP1 PUSH4 0x2777ACDB EQ PUSH2 0x2FC JUMPI DUP1 PUSH4 0x27DE406F EQ PUSH2 0x30F JUMPI PUSH1 0x0 DUP1 REVERT JUMPDEST DUP1 PUSH4 0x1FFC9A7 EQ PUSH2 0x242 JUMPI DUP1 PUSH4 0x3ED957F EQ PUSH2 0x26A JUMPI DUP1 PUSH4 0xCBE28D6 EQ PUSH2 0x27F JUMPI DUP1 PUSH4 0xFFED08A EQ PUSH2 0x292 JUMPI JUMPDEST PUSH1 0x0 DUP1 REVERT JUMPDEST PUSH2 0x255 PUSH2 0x250 CALLDATASIZE PUSH1 0x4 PUSH2 0x3098 JUMP JUMPDEST PUSH2 0x5AD JUMP JUMPDEST PUSH1 0x40 MLOAD SWAP1 ISZERO ISZERO DUP2 MSTORE PUSH1 0x20 ADD JUMPDEST PUSH1 0x40 MLOAD DUP1 SWAP2 SUB SWAP1 RETURN JUMPDEST PUSH2 0x27D PUSH2 0x278 CALLDATASIZE PUSH1 0x4 PUSH2 0x310E JUMP JUMPDEST PUSH2 0x5D8 JUMP JUMPDEST STOP JUMPDEST PUSH2 0x27D PUSH2 0x28D CALLDATASIZE PUSH1 0x4 PUSH2 0x3150 JUMP JUMPDEST PUSH2 0x655 JUMP JUMPDEST PUSH2 0x27D PUSH2 0x2A0 CALLDATASIZE PUSH1 0x4 PUSH2 0x3169 JUMP JUMPDEST PUSH2 0xD10 JUMP JUMPDEST PUSH2 0x2B8 PUSH2 0x2B3 CALLDATASIZE PUSH1 0x4 PUSH2 0x3192 JUMP JUMPDEST PUSH2 0xDE0 JUMP JUMPDEST PUSH1 0x40 MLOAD SWAP1 DUP2 MSTORE PUSH1 0x20 ADD PUSH2 0x261 JUMP JUMPDEST PUSH2 0x27D PUSH2 0x2D4 CALLDATASIZE PUSH1 0x4 PUSH2 0x310E JUMP JUMPDEST PUSH2 0x12FD JUMP JUMPDEST PUSH2 0x2B8 PUSH2 0x2E7 CALLDATASIZE PUSH1 0x4 PUSH2 0x3150 JUMP JUMPDEST PUSH1 0x0 SWAP1 DUP2 MSTORE PUSH1 0x20 DUP2 SWAP1 MSTORE PUSH1 0x40 SWAP1 KECCAK256 PUSH1 0x1 ADD SLOAD SWAP1 JUMP JUMPDEST PUSH2 0x2B8 PUSH2 0x30A CALLDATASIZE PUSH1 0x4 PUSH2 0x328E JUMP JUMPDEST PUSH2 0x134B JUMP JUMPDEST PUSH2 0x2B8 PUSH2 0x31D CALLDATASIZE PUSH1 0x4 PUSH2 0x3150 JUMP JUMPDEST PUSH2 0x148B JUMP JUMPDEST PUSH2 0x2B8 PUSH2 0x330 CALLDATASIZE PUSH1 0x4 PUSH2 0x32C2 JUMP JUMPDEST PUSH2 0x14AC JUMP JUMPDEST PUSH2 0x27D PUSH2 0x343 CALLDATASIZE PUSH1 0x4 PUSH2 0x32ED JUMP JUMPDEST PUSH2 0x1758 JUMP JUMPDEST PUSH2 0x27D PUSH2 0x356 CALLDATASIZE PUSH1 0x4 PUSH2 0x335E JUMP JUMPDEST PUSH2 0x1933 JUMP JUMPDEST PUSH2 0x27D PUSH2 0x369 CALLDATASIZE PUSH1 0x4 PUSH2 0x32ED JUMP JUMPDEST PUSH2 0x1971 JUMP JUMPDEST PUSH2 0x27D PUSH2 0x37C CALLDATASIZE PUSH1 0x4 PUSH2 0x32ED JUMP JUMPDEST PUSH2 0x1993 JUMP JUMPDEST PUSH2 0x2B8 PUSH2 0x38F CALLDATASIZE PUSH1 0x4 PUSH2 0x3394 JUMP JUMPDEST PUSH2 0x19B5 JUMP JUMPDEST PUSH1 0x4 SLOAD PUSH2 0x2B8 JUMP JUMPDEST PUSH2 0x27D PUSH2 0x3AA CALLDATASIZE PUSH1 0x4 PUSH2 0x335E JUMP JUMPDEST PUSH2 0x19D4 JUMP JUMPDEST PUSH1 0x3 SLOAD PUSH2 0x2B8 JUMP JUMPDEST PUSH1 0x2 SLOAD PUSH2 0x2B8 JUMP JUMPDEST PUSH2 0x2B8 PUSH1 0xE SLOAD DUP2 JUMP JUMPDEST PUSH2 0x27D PUSH2 0x3D6 CALLDATASIZE PUSH1 0x4 PUSH2 0x3150 JUMP JUMPDEST PUSH2 0x1A12 JUMP JUMPDEST PUSH2 0x2B8 PUSH2 0x3E9 CALLDATASIZE PUSH1 0x4 PUSH2 0x33B6 JUMP JUMPDEST PUSH2 0x1E5A JUMP JUMPDEST PUSH2 0x401 PUSH2 0x3FC CALLDATASIZE PUSH1 0x4 PUSH2 0x3394 JUMP JUMPDEST PUSH2 0x1E7A JUMP JUMPDEST PUSH1 0x40 MLOAD PUSH1 0x1 PUSH1 0x1 PUSH1 0xA0 SHL SUB SWAP1 SWAP2 AND DUP2 MSTORE PUSH1 0x20 ADD PUSH2 0x261 JUMP JUMPDEST PUSH2 0x255 PUSH2 0x427 CALLDATASIZE PUSH1 0x4 PUSH2 0x32ED JUMP JUMPDEST PUSH2 0x1E92 JUMP JUMPDEST PUSH2 0x27D PUSH2 0x43A CALLDATASIZE PUSH1 0x4 PUSH2 0x33E2 JUMP JUMPDEST PUSH2 0x1EBB JUMP JUMPDEST PUSH2 0x452 PUSH2 0x44D CALLDATASIZE PUSH1 0x4 PUSH2 0x3150 JUMP JUMPDEST PUSH2 0x1F80 JUMP JUMPDEST PUSH1 0x40 DUP1 MLOAD SWAP4 DUP5 MSTORE PUSH1 0x20 DUP5 ADD SWAP3 SWAP1 SWAP3 MSTORE SWAP1 DUP3 ADD MSTORE PUSH1 0x60 ADD PUSH2 0x261 JUMP JUMPDEST PUSH2 0x27D PUSH2 0x47B CALLDATASIZE PUSH1 0x4 PUSH2 0x3150 JUMP JUMPDEST PUSH2 0x1FB3 JUMP JUMPDEST PUSH2 0x2B8 PUSH2 0x48E CALLDATASIZE PUSH1 0x4 PUSH2 0x32C2 JUMP JUMPDEST PUSH2 0x2697 JUMP JUMPDEST PUSH2 0x2B8 PUSH2 0x28EE JUMP JUMPDEST PUSH2 0x2B8 PUSH2 0x296F JUMP JUMPDEST PUSH2 0x2B8 PUSH2 0x4B1 CALLDATASIZE PUSH1 0x4 PUSH2 0x3150 JUMP JUMPDEST PUSH2 0x2985 JUMP JUMPDEST PUSH2 0x2B8 PUSH1 0x0 DUP2 JUMP JUMPDEST PUSH2 0x27D PUSH2 0x299C JUMP JUMPDEST PUSH2 0x27D PUSH2 0x4D4 CALLDATASIZE PUSH1 0x4 PUSH2 0x32ED JUMP JUMPDEST PUSH2 0x29A9 JUMP JUMPDEST PUSH2 0x4EC PUSH2 0x4E7 CALLDATASIZE PUSH1 0x4 PUSH2 0x3150 JUMP JUMPDEST PUSH2 0x29B3 JUMP JUMPDEST PUSH1 0x40 DUP1 MLOAD PUSH1 0x1 PUSH1 0x1 PUSH1 0xA0 SHL SUB SWAP1 SWAP7 AND DUP7 MSTORE PUSH1 0x20 DUP7 ADD SWAP5 SWAP1 SWAP5 MSTORE SWAP3 DUP5 ADD SWAP2 SWAP1 SWAP2 MSTORE PUSH1 0x60 DUP4 ADD MSTORE PUSH1 0x80 DUP3 ADD MSTORE PUSH1 0xA0 ADD PUSH2 0x261 JUMP JUMPDEST PUSH1 0x5 SLOAD PUSH1 0x6 SLOAD PUSH1 0x7 SLOAD PUSH1 0x8 SLOAD PUSH1 0x9 SLOAD PUSH1 0xA SLOAD PUSH1 0xB SLOAD PUSH1 0xC SLOAD PUSH2 0x544 SWAP8 SWAP7 SWAP6 SWAP5 SWAP4 SWAP3 SWAP2 SWAP1 DUP9 JUMP JUMPDEST PUSH1 0x40 DUP1 MLOAD SWAP9 DUP10 MSTORE PUSH1 0x20 DUP10 ADD SWAP8 SWAP1 SWAP8 MSTORE SWAP6 DUP8 ADD SWAP5 SWAP1 SWAP5 MSTORE PUSH1 0x60 DUP7 ADD SWAP3 SWAP1 SWAP3 MSTORE PUSH1 0x80 DUP6 ADD MSTORE PUSH1 0xA0 DUP5 ADD MSTORE PUSH1 0xC0 DUP4 ADD MSTORE PUSH1 0xE0 DUP3 ADD MSTORE PUSH2 0x100 ADD PUSH2 0x261 JUMP JUMPDEST PUSH2 0x27D PUSH2 0x58D CALLDATASIZE PUSH1 0x4 PUSH2 0x340C JUMP JUMPDEST PUSH2 0x29FE JUMP JUMPDEST PUSH2 0x2B8 PUSH2 0x2A3D JUMP JUMPDEST PUSH2 0x2B8 PUSH2 0x5A8 CALLDATASIZE PUSH1 0x4 PUSH2 0x3394 JUMP JUMPDEST PUSH2 0x2A70 JUMP JUMPDEST PUSH1 0x0 PUSH1 0x1 PUSH1 0x1 PUSH1 0xE0 SHL SUB NOT DUP3 AND PUSH4 0x5A05180F PUSH1 0xE0 SHL EQ DUP1 PUSH2 0x5D2 JUMPI POP PUSH2 0x5D2 DUP3 PUSH2 0x2B05 JUMP JUMPDEST SWAP3 SWAP2 POP POP JUMP JUMPDEST PUSH1 0x0 PUSH2 0x5E4 DUP2 CALLER PUSH2 0x2B3A JUMP JUMPDEST PUSH1 0x0 JUMPDEST DUP3 DUP2 LT ISZERO PUSH2 0x64F JUMPI PUSH2 0x63D DUP5 DUP5 DUP4 DUP2 DUP2 LT PUSH2 0x604 JUMPI PUSH2 0x604 PUSH2 0x3460 JUMP JUMPDEST SWAP1 POP PUSH1 0x40 MUL ADD PUSH1 0x0 ADD CALLDATALOAD DUP6 DUP6 DUP5 DUP2 DUP2 LT PUSH2 0x620 JUMPI PUSH2 0x620 PUSH2 0x3460 JUMP JUMPDEST SWAP1 POP PUSH1 0x40 MUL ADD PUSH1 0x20 ADD PUSH1 0x20 DUP2 ADD SWAP1 PUSH2 0x638 SWAP2 SWAP1 PUSH2 0x3476 JUMP JUMPDEST PUSH2 0x2B9E JUMP JUMPDEST DUP1 PUSH2 0x647 DUP2 PUSH2 0x34A7 JUMP JUMPDEST SWAP2 POP POP PUSH2 0x5E7 JUMP JUMPDEST POP POP POP POP JUMP JUMPDEST DUP1 PUSH1 0x4 DUP2 DUP2 SLOAD DUP2 LT PUSH2 0x669 JUMPI PUSH2 0x669 PUSH2 0x3460 JUMP JUMPDEST PUSH1 0x0 SWAP2 DUP3 MSTORE PUSH1 0x20 SWAP1 SWAP2 KECCAK256 PUSH1 0x5 SWAP1 SWAP2 MUL ADD SLOAD PUSH1 0x1 PUSH1 0x1 PUSH1 0xA0 SHL SUB AND CALLER EQ PUSH2 0x6AA JUMPI PUSH1 0x40 MLOAD PUSH3 0x461BCD PUSH1 0xE5 SHL DUP2 MSTORE PUSH1 0x4 ADD PUSH2 0x6A1 SWAP1 PUSH2 0x34C2 JUMP JUMPDEST PUSH1 0x40 MLOAD DUP1 SWAP2 SUB SWAP1 REVERT JUMPDEST PUSH1 0x4 SLOAD DUP3 SWAP1 DUP2 LT PUSH2 0x6CD JUMPI PUSH1 0x40 MLOAD PUSH3 0x461BCD PUSH1 0xE5 SHL DUP2 MSTORE PUSH1 0x4 ADD PUSH2 0x6A1 SWAP1 PUSH2 0x34F9 JUMP JUMPDEST DUP3 PUSH1 0x4 DUP2 DUP2 SLOAD DUP2 LT PUSH2 0x6E1 JUMPI PUSH2 0x6E1 PUSH2 0x3460 JUMP JUMPDEST SWAP1 PUSH1 0x0 MSTORE PUSH1 0x20 PUSH1 0x0 KECCAK256 SWAP1 PUSH1 0x5 MUL ADD PUSH1 0x4 ADD SLOAD PUSH1 0x0 EQ PUSH2 0x712 JUMPI PUSH1 0x40 MLOAD PUSH3 0x461BCD PUSH1 0xE5 SHL DUP2 MSTORE PUSH1 0x4 ADD PUSH2 0x6A1 SWAP1 PUSH2 0x3530 JUMP JUMPDEST PUSH2 0x71A PUSH2 0x299C JUMP JUMPDEST PUSH1 0x0 PUSH2 0x724 PUSH2 0x2A3D JUMP JUMPDEST SWAP1 POP DUP1 PUSH1 0x4 DUP7 DUP2 SLOAD DUP2 LT PUSH2 0x73A JUMPI PUSH2 0x73A PUSH2 0x3460 JUMP JUMPDEST SWAP1 PUSH1 0x0 MSTORE PUSH1 0x20 PUSH1 0x0 KECCAK256 SWAP1 PUSH1 0x5 MUL ADD PUSH1 0x4 ADD DUP2 SWAP1 SSTORE POP PUSH1 0xD PUSH1 0x0 SWAP1 SLOAD SWAP1 PUSH2 0x100 EXP SWAP1 DIV PUSH1 0x1 PUSH1 0x1 PUSH1 0xA0 SHL SUB AND PUSH1 0x1 PUSH1 0x1 PUSH1 0xA0 SHL SUB AND PUSH4 0x9CFF2EBA ADDRESS CALLER PUSH1 0x4 DUP10 DUP2 SLOAD DUP2 LT PUSH2 0x788 JUMPI PUSH2 0x788 PUSH2 0x3460 JUMP JUMPDEST PUSH1 0x0 SWAP2 DUP3 MSTORE PUSH1 0x20 SWAP1 SWAP2 KECCAK256 PUSH1 0x1 PUSH1 0x5 SWAP1 SWAP3 MUL ADD ADD SLOAD PUSH1 0x40 MLOAD PUSH1 0x1 PUSH1 0x1 PUSH1 0xE0 SHL SUB NOT PUSH1 0xE0 DUP7 SWAP1 SHL AND DUP2 MSTORE PUSH1 0x1 PUSH1 0x1 PUSH1 0xA0 SHL SUB SWAP4 DUP5 AND PUSH1 0x4 DUP3 ADD MSTORE SWAP3 SWAP1 SWAP2 AND PUSH1 0x24 DUP4 ADD MSTORE PUSH1 0x44 DUP3 ADD MSTORE PUSH1 0x64 ADD PUSH1 0x0 PUSH1 0x40 MLOAD DUP1 DUP4 SUB DUP2 PUSH1 0x0 DUP8 DUP1 EXTCODESIZE ISZERO DUP1 ISZERO PUSH2 0x7EB JUMPI PUSH1 0x0 DUP1 REVERT JUMPDEST POP GAS CALL ISZERO DUP1 ISZERO PUSH2 0x7FF JUMPI RETURNDATASIZE PUSH1 0x0 DUP1 RETURNDATACOPY RETURNDATASIZE PUSH1 0x0 REVERT JUMPDEST POP POP POP POP PUSH1 0x0 PUSH1 0x4 DUP7 DUP2 SLOAD DUP2 LT PUSH2 0x818 JUMPI PUSH2 0x818 PUSH2 0x3460 JUMP JUMPDEST SWAP1 PUSH1 0x0 MSTORE PUSH1 0x20 PUSH1 0x0 KECCAK256 SWAP1 PUSH1 0x5 MUL ADD PUSH1 0x3 ADD SLOAD PUSH1 0x4 DUP8 DUP2 SLOAD DUP2 LT PUSH2 0x83D JUMPI PUSH2 0x83D PUSH2 0x3460 JUMP JUMPDEST SWAP1 PUSH1 0x0 MSTORE PUSH1 0x20 PUSH1 0x0 KECCAK256 SWAP1 PUSH1 0x5 MUL ADD PUSH1 0x2 ADD SLOAD PUSH2 0x859 SWAP2 SWAP1 PUSH2 0x3567 JUMP JUMPDEST DUP3 LT ISZERO PUSH2 0x912 JUMPI PUSH1 0x0 PUSH1 0x4 DUP8 DUP2 SLOAD DUP2 LT PUSH2 0x875 JUMPI PUSH2 0x875 PUSH2 0x3460 JUMP JUMPDEST PUSH1 0x0 SWAP2 DUP3 MSTORE PUSH1 0x20 SWAP2 DUP3 SWAP1 KECCAK256 PUSH1 0x40 DUP1 MLOAD PUSH1 0xA0 DUP2 ADD DUP3 MSTORE PUSH1 0x5 SWAP1 SWAP4 MUL SWAP1 SWAP2 ADD DUP1 SLOAD PUSH1 0x1 PUSH1 0x1 PUSH1 0xA0 SHL SUB AND DUP4 MSTORE PUSH1 0x1 DUP2 ADD SLOAD SWAP4 DUP4 ADD SWAP4 SWAP1 SWAP4 MSTORE PUSH1 0x2 DUP4 ADD SLOAD SWAP1 DUP3 ADD MSTORE PUSH1 0x3 DUP3 ADD SLOAD PUSH1 0x60 DUP3 ADD MSTORE PUSH1 0x4 SWAP2 DUP3 ADD SLOAD PUSH1 0x80 DUP3 ADD MSTORE DUP2 SLOAD SWAP1 SWAP3 POP DUP9 SWAP1 DUP2 LT PUSH2 0x8DE JUMPI PUSH2 0x8DE PUSH2 0x3460 JUMP JUMPDEST SWAP1 PUSH1 0x0 MSTORE PUSH1 0x20 PUSH1 0x0 KECCAK256 SWAP1 PUSH1 0x5 MUL ADD PUSH1 0x2 ADD SLOAD DUP4 PUSH2 0x8FB SWAP2 SWAP1 PUSH2 0x357F JUMP JUMPDEST PUSH1 0x60 DUP3 ADD MSTORE PUSH2 0x90A DUP2 DUP5 PUSH2 0x14AC JUMP JUMPDEST SWAP2 POP POP PUSH2 0x985 JUMP JUMPDEST PUSH2 0x982 PUSH1 0x4 DUP8 DUP2 SLOAD DUP2 LT PUSH2 0x928 JUMPI PUSH2 0x928 PUSH2 0x3460 JUMP JUMPDEST PUSH1 0x0 SWAP2 DUP3 MSTORE PUSH1 0x20 SWAP2 DUP3 SWAP1 KECCAK256 PUSH1 0x40 DUP1 MLOAD PUSH1 0xA0 DUP2 ADD DUP3 MSTORE PUSH1 0x5 SWAP1 SWAP4 MUL SWAP1 SWAP2 ADD DUP1 SLOAD PUSH1 0x1 PUSH1 0x1 PUSH1 0xA0 SHL SUB AND DUP4 MSTORE PUSH1 0x1 DUP2 ADD SLOAD SWAP4 DUP4 ADD SWAP4 SWAP1 SWAP4 MSTORE PUSH1 0x2 DUP4 ADD SLOAD SWAP1 DUP3 ADD MSTORE PUSH1 0x3 DUP3 ADD SLOAD PUSH1 0x60 DUP3 ADD MSTORE PUSH1 0x4 SWAP1 SWAP2 ADD SLOAD PUSH1 0x80 DUP3 ADD MSTORE DUP4 PUSH2 0x14AC JUMP JUMPDEST SWAP1 POP JUMPDEST DUP1 ISZERO PUSH2 0x9F0 JUMPI PUSH1 0xD SLOAD PUSH1 0x40 MLOAD PUSH4 0xBB9FF5D PUSH1 0xE0 SHL DUP2 MSTORE CALLER PUSH1 0x4 DUP3 ADD MSTORE PUSH1 0x24 DUP2 ADD DUP4 SWAP1 MSTORE PUSH1 0x1 PUSH1 0x1 PUSH1 0xA0 SHL SUB SWAP1 SWAP2 AND SWAP1 PUSH4 0xBB9FF5D SWAP1 PUSH1 0x44 ADD PUSH1 0x0 PUSH1 0x40 MLOAD DUP1 DUP4 SUB DUP2 PUSH1 0x0 DUP8 DUP1 EXTCODESIZE ISZERO DUP1 ISZERO PUSH2 0x9D7 JUMPI PUSH1 0x0 DUP1 REVERT JUMPDEST POP GAS CALL ISZERO DUP1 ISZERO PUSH2 0x9EB JUMPI RETURNDATASIZE PUSH1 0x0 DUP1 RETURNDATACOPY RETURNDATASIZE PUSH1 0x0 REVERT JUMPDEST POP POP POP POP JUMPDEST PUSH1 0x0 PUSH2 0xA63 PUSH1 0x4 DUP9 DUP2 SLOAD DUP2 LT PUSH2 0xA08 JUMPI PUSH2 0xA08 PUSH2 0x3460 JUMP JUMPDEST PUSH1 0x0 SWAP2 DUP3 MSTORE PUSH1 0x20 SWAP2 DUP3 SWAP1 KECCAK256 PUSH1 0x40 DUP1 MLOAD PUSH1 0xA0 DUP2 ADD DUP3 MSTORE PUSH1 0x5 SWAP1 SWAP4 MUL SWAP1 SWAP2 ADD DUP1 SLOAD PUSH1 0x1 PUSH1 0x1 PUSH1 0xA0 SHL SUB AND DUP4 MSTORE PUSH1 0x1 DUP2 ADD SLOAD SWAP4 DUP4 ADD SWAP4 SWAP1 SWAP4 MSTORE PUSH1 0x2 DUP4 ADD SLOAD SWAP1 DUP3 ADD MSTORE PUSH1 0x3 DUP3 ADD SLOAD PUSH1 0x60 DUP3 ADD MSTORE PUSH1 0x4 SWAP1 SWAP2 ADD SLOAD PUSH1 0x80 DUP3 ADD MSTORE DUP5 DUP5 PUSH2 0x134B JUMP JUMPDEST SWAP1 POP DUP1 ISZERO PUSH2 0xB09 JUMPI PUSH1 0xD SLOAD PUSH1 0x40 MLOAD PUSH4 0x18A8AD87 PUSH1 0xE0 SHL DUP2 MSTORE CALLER PUSH1 0x4 DUP3 ADD MSTORE PUSH1 0x24 DUP2 ADD DUP4 SWAP1 MSTORE PUSH1 0x1 PUSH1 0x1 PUSH1 0xA0 SHL SUB SWAP1 SWAP2 AND SWAP1 PUSH4 0x18A8AD87 SWAP1 PUSH1 0x44 ADD PUSH1 0x0 PUSH1 0x40 MLOAD DUP1 DUP4 SUB DUP2 PUSH1 0x0 DUP8 DUP1 EXTCODESIZE ISZERO DUP1 ISZERO PUSH2 0xAB7 JUMPI PUSH1 0x0 DUP1 REVERT JUMPDEST POP GAS CALL ISZERO DUP1 ISZERO PUSH2 0xACB JUMPI RETURNDATASIZE PUSH1 0x0 DUP1 RETURNDATACOPY RETURNDATASIZE PUSH1 0x0 REVERT JUMPDEST POP POP POP POP DUP1 PUSH1 0x2 DUP5 DUP2 SLOAD DUP2 LT PUSH2 0xAE3 JUMPI PUSH2 0xAE3 PUSH2 0x3460 JUMP JUMPDEST SWAP1 PUSH1 0x0 MSTORE PUSH1 0x20 PUSH1 0x0 KECCAK256 SWAP1 PUSH1 0x3 MUL ADD PUSH1 0x0 ADD PUSH1 0x0 DUP3 DUP3 SLOAD PUSH2 0xB03 SWAP2 SWAP1 PUSH2 0x3567 JUMP JUMPDEST SWAP1 SWAP2 SSTORE POP POP JUMPDEST PUSH1 0x0 DUP2 DUP4 PUSH1 0x4 DUP11 DUP2 SLOAD DUP2 LT PUSH2 0xB20 JUMPI PUSH2 0xB20 PUSH2 0x3460 JUMP JUMPDEST SWAP1 PUSH1 0x0 MSTORE PUSH1 0x20 PUSH1 0x0 KECCAK256 SWAP1 PUSH1 0x5 MUL ADD PUSH1 0x1 ADD SLOAD PUSH2 0xB3C SWAP2 SWAP1 PUSH2 0x3567 JUMP JUMPDEST PUSH2 0xB46 SWAP2 SWAP1 PUSH2 0x357F JUMP JUMPDEST SWAP1 POP PUSH1 0x0 PUSH2 0xBBA PUSH1 0x4 DUP11 DUP2 SLOAD DUP2 LT PUSH2 0xB60 JUMPI PUSH2 0xB60 PUSH2 0x3460 JUMP JUMPDEST SWAP1 PUSH1 0x0 MSTORE PUSH1 0x20 PUSH1 0x0 KECCAK256 SWAP1 PUSH1 0x5 MUL ADD PUSH1 0x1 ADD SLOAD PUSH8 0xDE0B6B3A7640000 DUP5 PUSH2 0xB86 SWAP2 SWAP1 PUSH2 0x3596 JUMP JUMPDEST PUSH2 0xB90 SWAP2 SWAP1 PUSH2 0x35CB JUMP JUMPDEST PUSH1 0x2 DUP8 DUP2 SLOAD DUP2 LT PUSH2 0xBA3 JUMPI PUSH2 0xBA3 PUSH2 0x3460 JUMP JUMPDEST SWAP1 PUSH1 0x0 MSTORE PUSH1 0x20 PUSH1 0x0 KECCAK256 SWAP1 PUSH1 0x3 MUL ADD PUSH1 0x2 ADD SLOAD PUSH2 0x2BA8 JUMP JUMPDEST SWAP1 POP PUSH1 0x2 DUP6 DUP2 SLOAD DUP2 LT PUSH2 0xBCF JUMPI PUSH2 0xBCF PUSH2 0x3460 JUMP JUMPDEST SWAP1 PUSH1 0x0 MSTORE PUSH1 0x20 PUSH1 0x0 KECCAK256 SWAP1 PUSH1 0x3 MUL ADD PUSH1 0x2 ADD SLOAD DUP2 GT ISZERO PUSH2 0xC12 JUMPI DUP1 PUSH1 0x2 DUP7 DUP2 SLOAD DUP2 LT PUSH2 0xBFC JUMPI PUSH2 0xBFC PUSH2 0x3460 JUMP JUMPDEST SWAP1 PUSH1 0x0 MSTORE PUSH1 0x20 PUSH1 0x0 KECCAK256 SWAP1 PUSH1 0x3 MUL ADD PUSH1 0x2 ADD DUP2 SWAP1 SSTORE POP JUMPDEST PUSH1 0x0 PUSH2 0xC81 PUSH1 0x4 DUP12 DUP2 SLOAD DUP2 LT PUSH2 0xC2A JUMPI PUSH2 0xC2A PUSH2 0x3460 JUMP JUMPDEST PUSH1 0x0 SWAP2 DUP3 MSTORE PUSH1 0x20 DUP1 DUP4 KECCAK256 PUSH1 0x40 DUP1 MLOAD PUSH1 0xA0 DUP2 ADD DUP3 MSTORE PUSH1 0x5 SWAP1 SWAP5 MUL SWAP1 SWAP2 ADD DUP1 SLOAD PUSH1 0x1 PUSH1 0x1 PUSH1 0xA0 SHL SUB AND DUP5 MSTORE PUSH1 0x1 DUP2 ADD SLOAD SWAP3 DUP5 ADD SWAP3 SWAP1 SWAP3 MSTORE PUSH1 0x2 DUP3 ADD SLOAD SWAP1 DUP4 ADD MSTORE PUSH1 0x3 DUP2 ADD SLOAD PUSH1 0x60 DUP4 ADD MSTORE PUSH1 0x4 ADD SLOAD PUSH1 0x80 DUP3 ADD MSTORE SWAP1 PUSH2 0x2697 JUMP JUMPDEST SWAP1 POP DUP1 PUSH1 0x2 DUP8 DUP2 SLOAD DUP2 LT PUSH2 0xC97 JUMPI PUSH2 0xC97 PUSH2 0x3460 JUMP JUMPDEST SWAP1 PUSH1 0x0 MSTORE PUSH1 0x20 PUSH1 0x0 KECCAK256 SWAP1 PUSH1 0x3 MUL ADD PUSH1 0x1 ADD PUSH1 0x0 DUP3 DUP3 SLOAD PUSH2 0xCB7 SWAP2 SWAP1 PUSH2 0x357F JUMP JUMPDEST SWAP1 SWAP2 SSTORE POP POP PUSH1 0x40 DUP1 MLOAD DUP12 DUP2 MSTORE PUSH1 0x20 DUP2 ADD DUP9 SWAP1 MSTORE SWAP1 DUP2 ADD DUP7 SWAP1 MSTORE PUSH1 0x60 DUP2 ADD DUP6 SWAP1 MSTORE PUSH32 0x68E2A823E3745EE73FF62BA1EFA63A1B770CD0BD3568495ADC9CDF11C858684D SWAP1 PUSH1 0x80 ADD PUSH1 0x40 MLOAD DUP1 SWAP2 SUB SWAP1 LOG1 POP POP POP POP POP POP POP POP POP POP JUMP JUMPDEST PUSH1 0x0 PUSH2 0xD1C DUP2 CALLER PUSH2 0x2B3A JUMP JUMPDEST DUP2 CALLDATALOAD PUSH1 0x5 SWAP1 DUP2 SSTORE PUSH1 0x20 DUP4 ADD CALLDATALOAD PUSH1 0x6 SSTORE PUSH1 0x40 DUP4 ADD CALLDATALOAD PUSH1 0x7 SSTORE PUSH1 0x60 DUP4 ADD CALLDATALOAD PUSH1 0x8 SSTORE PUSH1 0x80 DUP4 ADD CALLDATALOAD PUSH1 0x9 SSTORE PUSH1 0xA0 DUP4 ADD CALLDATALOAD PUSH1 0xA SSTORE PUSH1 0xC0 DUP4 ADD CALLDATALOAD PUSH1 0xB SSTORE PUSH1 0xE0 DUP4 ADD CALLDATALOAD PUSH1 0xC SSTORE DUP3 SWAP1 POP POP PUSH1 0x40 DUP1 MLOAD DUP4 CALLDATALOAD DUP2 MSTORE PUSH1 0x20 DUP1 DUP6 ADD CALLDATALOAD SWAP1 DUP3 ADD MSTORE DUP2 DUP5 ADD CALLDATALOAD SWAP2 DUP2 ADD SWAP2 SWAP1 SWAP2 MSTORE PUSH1 0x60 DUP1 DUP5 ADD CALLDATALOAD SWAP1 DUP3 ADD MSTORE PUSH1 0x80 DUP1 DUP5 ADD CALLDATALOAD SWAP1 DUP3 ADD MSTORE PUSH1 0xA0 DUP1 DUP5 ADD CALLDATALOAD SWAP1 DUP3 ADD MSTORE PUSH1 0xC0 DUP1 DUP5 ADD CALLDATALOAD SWAP1 DUP3 ADD MSTORE PUSH1 0xE0 DUP1 DUP5 ADD CALLDATALOAD SWAP1 DUP3 ADD MSTORE PUSH32 0xE32288882B122AA895E6EF550FC65B0439C341D34BE5F1DB849BB4F4E4E96F9E SWAP1 PUSH2 0x100 ADD PUSH1 0x40 MLOAD DUP1 SWAP2 SUB SWAP1 LOG1 POP POP JUMP JUMPDEST DUP1 MLOAD PUSH1 0x0 SWAP1 PUSH2 0xE45 JUMPI PUSH1 0x40 MLOAD PUSH3 0x461BCD PUSH1 0xE5 SHL DUP2 MSTORE PUSH1 0x20 PUSH1 0x4 DUP3 ADD MSTORE PUSH1 0x2B PUSH1 0x24 DUP3 ADD MSTORE PUSH32 0x53533A205374616B6564416D6F756E742068617320746F206265206C61726765 PUSH1 0x44 DUP3 ADD MSTORE PUSH11 0x72207468616E207A65726F PUSH1 0xA8 SHL PUSH1 0x64 DUP3 ADD MSTORE PUSH1 0x84 ADD PUSH2 0x6A1 JUMP JUMPDEST PUSH1 0xD SLOAD PUSH1 0x40 MLOAD PUSH4 0x70A08231 PUSH1 0xE0 SHL DUP2 MSTORE CALLER PUSH1 0x4 DUP3 ADD MSTORE PUSH1 0x1 PUSH1 0x1 PUSH1 0xA0 SHL SUB SWAP1 SWAP2 AND SWAP1 PUSH4 0x70A08231 SWAP1 PUSH1 0x24 ADD PUSH1 0x20 PUSH1 0x40 MLOAD DUP1 DUP4 SUB DUP2 DUP7 DUP1 EXTCODESIZE ISZERO DUP1 ISZERO PUSH2 0xE88 JUMPI PUSH1 0x0 DUP1 REVERT JUMPDEST POP GAS STATICCALL ISZERO DUP1 ISZERO PUSH2 0xE9C JUMPI RETURNDATASIZE PUSH1 0x0 DUP1 RETURNDATACOPY RETURNDATASIZE PUSH1 0x0 REVERT JUMPDEST POP POP POP POP PUSH1 0x40 MLOAD RETURNDATASIZE PUSH1 0x1F NOT PUSH1 0x1F DUP3 ADD AND DUP3 ADD DUP1 PUSH1 0x40 MSTORE POP DUP2 ADD SWAP1 PUSH2 0xEC0 SWAP2 SWAP1 PUSH2 0x35DF JUMP JUMPDEST DUP3 MLOAD GT ISZERO PUSH2 0xF10 JUMPI PUSH1 0x40 MLOAD PUSH3 0x461BCD PUSH1 0xE5 SHL DUP2 MSTORE PUSH1 0x20 PUSH1 0x4 DUP3 ADD DUP2 SWAP1 MSTORE PUSH1 0x24 DUP3 ADD MSTORE PUSH32 0x53533A205374616B6564416D6F756E7420657863656564732062616C616E6365 PUSH1 0x44 DUP3 ADD MSTORE PUSH1 0x64 ADD PUSH2 0x6A1 JUMP JUMPDEST PUSH1 0x9 SLOAD PUSH1 0x20 DUP4 ADD MLOAD LT ISZERO PUSH2 0xF7E JUMPI PUSH1 0x40 MLOAD PUSH3 0x461BCD PUSH1 0xE5 SHL DUP2 MSTORE PUSH1 0x20 PUSH1 0x4 DUP3 ADD MSTORE PUSH1 0x2F PUSH1 0x24 DUP3 ADD MSTORE PUSH32 0x53533A205374616B65206D757374206265206C6F636B656420666F72206D6F72 PUSH1 0x44 DUP3 ADD MSTORE PUSH15 0x65207468616E206D696E2064617973 PUSH1 0x88 SHL PUSH1 0x64 DUP3 ADD MSTORE PUSH1 0x84 ADD PUSH2 0x6A1 JUMP JUMPDEST PUSH1 0xA SLOAD PUSH1 0x20 DUP4 ADD MLOAD GT ISZERO PUSH2 0xFED JUMPI PUSH1 0x40 MLOAD PUSH3 0x461BCD PUSH1 0xE5 SHL DUP2 MSTORE PUSH1 0x20 PUSH1 0x4 DUP3 ADD MSTORE PUSH1 0x30 PUSH1 0x24 DUP3 ADD MSTORE PUSH32 0x53533A205374616B65206D757374206265206C6F636B656420666F72206C6573 PUSH1 0x44 DUP3 ADD MSTORE PUSH16 0x73207468616E206D6178207965617273 PUSH1 0x80 SHL PUSH1 0x64 DUP3 ADD MSTORE PUSH1 0x84 ADD PUSH2 0x6A1 JUMP JUMPDEST PUSH2 0xFF5 PUSH2 0x299C JUMP JUMPDEST PUSH1 0xD SLOAD DUP3 MLOAD PUSH1 0x40 MLOAD PUSH4 0x4E7F975D PUSH1 0xE1 SHL DUP2 MSTORE CALLER PUSH1 0x4 DUP3 ADD MSTORE ADDRESS PUSH1 0x24 DUP3 ADD MSTORE PUSH1 0x44 DUP2 ADD SWAP2 SWAP1 SWAP2 MSTORE PUSH1 0x1 PUSH1 0x1 PUSH1 0xA0 SHL SUB SWAP1 SWAP2 AND SWAP1 PUSH4 0x9CFF2EBA SWAP1 PUSH1 0x64 ADD PUSH1 0x0 PUSH1 0x40 MLOAD DUP1 DUP4 SUB DUP2 PUSH1 0x0 DUP8 DUP1 EXTCODESIZE ISZERO DUP1 ISZERO PUSH2 0x104A JUMPI PUSH1 0x0 DUP1 REVERT JUMPDEST POP GAS CALL ISZERO DUP1 ISZERO PUSH2 0x105E JUMPI RETURNDATASIZE PUSH1 0x0 DUP1 RETURNDATACOPY RETURNDATASIZE PUSH1 0x0 REVERT JUMPDEST POP POP POP POP PUSH1 0x0 PUSH2 0x106C PUSH2 0x2A3D JUMP JUMPDEST PUSH1 0x40 DUP1 MLOAD PUSH1 0xA0 DUP2 ADD DUP3 MSTORE CALLER DUP2 MSTORE DUP6 MLOAD PUSH1 0x20 DUP1 DUP4 ADD SWAP2 DUP3 MSTORE SWAP3 DUP3 ADD DUP5 DUP2 MSTORE SWAP3 DUP8 ADD MLOAD PUSH1 0x60 DUP4 ADD SWAP1 DUP2 MSTORE PUSH1 0x0 PUSH1 0x80 DUP5 ADD DUP2 DUP2 MSTORE PUSH1 0x4 DUP1 SLOAD PUSH1 0x1 DUP1 DUP3 ADD DUP4 SSTORE SWAP4 DUP3 SWAP1 MSTORE DUP7 MLOAD PUSH32 0x8A35ACFBC15FF81A39AE7D344FD709F28E8600B4AA8C65C6B64BFE7FE36BD19B PUSH1 0x5 SWAP1 SWAP3 MUL SWAP2 DUP3 ADD DUP1 SLOAD PUSH1 0x1 PUSH1 0x1 PUSH1 0xA0 SHL SUB NOT AND PUSH1 0x1 PUSH1 0x1 PUSH1 0xA0 SHL SUB SWAP1 SWAP3 AND SWAP2 SWAP1 SWAP2 OR SWAP1 SSTORE SWAP5 MLOAD PUSH32 0x8A35ACFBC15FF81A39AE7D344FD709F28E8600B4AA8C65C6B64BFE7FE36BD19C DUP7 ADD SSTORE SWAP6 MLOAD PUSH32 0x8A35ACFBC15FF81A39AE7D344FD709F28E8600B4AA8C65C6B64BFE7FE36BD19D DUP6 ADD SSTORE SWAP2 MLOAD PUSH32 0x8A35ACFBC15FF81A39AE7D344FD709F28E8600B4AA8C65C6B64BFE7FE36BD19E DUP5 ADD SSTORE SWAP1 MLOAD PUSH32 0x8A35ACFBC15FF81A39AE7D344FD709F28E8600B4AA8C65C6B64BFE7FE36BD19F SWAP1 SWAP3 ADD SWAP2 SWAP1 SWAP2 SSTORE SWAP2 SLOAD SWAP3 SWAP4 POP SWAP2 PUSH2 0x11A0 SWAP2 SWAP1 PUSH2 0x357F JUMP JUMPDEST SWAP3 POP PUSH1 0x0 PUSH2 0x11AF DUP3 PUSH1 0x0 PUSH2 0x2697 JUMP JUMPDEST SWAP1 POP DUP1 PUSH1 0x2 DUP5 DUP2 SLOAD DUP2 LT PUSH2 0x11C5 JUMPI PUSH2 0x11C5 PUSH2 0x3460 JUMP JUMPDEST SWAP1 PUSH1 0x0 MSTORE PUSH1 0x20 PUSH1 0x0 KECCAK256 SWAP1 PUSH1 0x3 MUL ADD PUSH1 0x1 ADD PUSH1 0x0 DUP3 DUP3 SLOAD PUSH2 0x11E5 SWAP2 SWAP1 PUSH2 0x3567 JUMP JUMPDEST SWAP3 POP POP DUP2 SWAP1 SSTORE POP PUSH32 0xB3B7BD78C90933EE8B729DA4592FA8FF3FCAAD310E548C299CC82DE3B4FF09BA DUP5 PUSH1 0x4 DUP7 DUP2 SLOAD DUP2 LT PUSH2 0x1221 JUMPI PUSH2 0x1221 PUSH2 0x3460 JUMP JUMPDEST PUSH1 0x0 SWAP2 DUP3 MSTORE PUSH1 0x20 SWAP1 SWAP2 KECCAK256 PUSH1 0x5 SWAP1 SWAP2 MUL ADD SLOAD PUSH1 0x4 DUP1 SLOAD PUSH1 0x1 PUSH1 0x1 PUSH1 0xA0 SHL SUB SWAP1 SWAP3 AND SWAP2 DUP9 SWAP1 DUP2 LT PUSH2 0x1252 JUMPI PUSH2 0x1252 PUSH2 0x3460 JUMP JUMPDEST SWAP1 PUSH1 0x0 MSTORE PUSH1 0x20 PUSH1 0x0 KECCAK256 SWAP1 PUSH1 0x5 MUL ADD PUSH1 0x1 ADD SLOAD PUSH1 0x4 DUP9 DUP2 SLOAD DUP2 LT PUSH2 0x1277 JUMPI PUSH2 0x1277 PUSH2 0x3460 JUMP JUMPDEST SWAP1 PUSH1 0x0 MSTORE PUSH1 0x20 PUSH1 0x0 KECCAK256 SWAP1 PUSH1 0x5 MUL ADD PUSH1 0x2 ADD SLOAD PUSH1 0x4 DUP10 DUP2 SLOAD DUP2 LT PUSH2 0x129C JUMPI PUSH2 0x129C PUSH2 0x3460 JUMP JUMPDEST SWAP1 PUSH1 0x0 MSTORE PUSH1 0x20 PUSH1 0x0 KECCAK256 SWAP1 PUSH1 0x5 MUL ADD PUSH1 0x3 ADD SLOAD DUP7 PUSH1 0x40 MLOAD PUSH2 0x12ED SWAP7 SWAP6 SWAP5 SWAP4 SWAP3 SWAP2 SWAP1 SWAP6 DUP7 MSTORE PUSH1 0x1 PUSH1 0x1 PUSH1 0xA0 SHL SUB SWAP5 SWAP1 SWAP5 AND PUSH1 0x20 DUP7 ADD MSTORE PUSH1 0x40 DUP6 ADD SWAP3 SWAP1 SWAP3 MSTORE PUSH1 0x60 DUP5 ADD MSTORE PUSH1 0x80 DUP4 ADD MSTORE PUSH1 0xA0 DUP3 ADD MSTORE PUSH1 0xC0 ADD SWAP1 JUMP JUMPDEST PUSH1 0x40 MLOAD DUP1 SWAP2 SUB SWAP1 LOG1 POP POP POP SWAP2 SWAP1 POP JUMP JUMPDEST PUSH1 0x0 JUMPDEST DUP2 DUP2 LT ISZERO PUSH2 0x1346 JUMPI PUSH2 0x1333 DUP4 DUP4 DUP4 DUP2 DUP2 LT PUSH2 0x131D JUMPI PUSH2 0x131D PUSH2 0x3460 JUMP JUMPDEST SWAP1 POP PUSH1 0x40 MUL ADD DUP1 CALLDATASIZE SUB DUP2 ADD SWAP1 PUSH2 0x2B3 SWAP2 SWAP1 PUSH2 0x3192 JUMP JUMPDEST POP DUP1 PUSH2 0x133E DUP2 PUSH2 0x34A7 JUMP JUMPDEST SWAP2 POP POP PUSH2 0x1300 JUMP JUMPDEST POP POP POP JUMP JUMPDEST PUSH1 0x0 DUP1 PUSH1 0x0 DUP6 PUSH1 0x40 ADD MLOAD DUP6 GT PUSH2 0x1362 JUMPI PUSH1 0x0 PUSH2 0x1371 JUMP JUMPDEST PUSH1 0x40 DUP7 ADD MLOAD PUSH2 0x1371 SWAP1 DUP7 PUSH2 0x357F JUMP JUMPDEST SWAP1 POP PUSH1 0x0 DUP5 DUP8 PUSH1 0x20 ADD MLOAD PUSH2 0x1385 SWAP2 SWAP1 PUSH2 0x3567 JUMP JUMPDEST PUSH1 0x5 SLOAD SWAP1 SWAP2 POP DUP3 GT PUSH2 0x1399 JUMPI DUP1 SWAP3 POP PUSH2 0x1480 JUMP JUMPDEST DUP7 PUSH1 0x60 ADD MLOAD DUP3 GT PUSH2 0x13E1 JUMPI PUSH1 0x5 SLOAD PUSH1 0x60 DUP9 ADD MLOAD PUSH2 0x13B6 SWAP2 SWAP1 PUSH2 0x357F JUMP JUMPDEST DUP3 DUP9 PUSH1 0x60 ADD MLOAD PUSH2 0x13C6 SWAP2 SWAP1 PUSH2 0x357F JUMP JUMPDEST PUSH2 0x13D0 SWAP1 DUP4 PUSH2 0x3596 JUMP JUMPDEST PUSH2 0x13DA SWAP2 SWAP1 PUSH2 0x35CB JUMP JUMPDEST SWAP3 POP PUSH2 0x1480 JUMP JUMPDEST PUSH1 0x7 SLOAD PUSH1 0x60 DUP9 ADD MLOAD PUSH2 0x13F3 SWAP2 SWAP1 PUSH2 0x3567 JUMP JUMPDEST DUP3 GT PUSH2 0x1402 JUMPI PUSH1 0x0 SWAP3 POP PUSH2 0x1480 JUMP JUMPDEST PUSH1 0x8 SLOAD PUSH1 0x7 SLOAD PUSH1 0x60 DUP10 ADD MLOAD PUSH2 0x1417 SWAP2 SWAP1 PUSH2 0x3567 JUMP JUMPDEST PUSH2 0x1421 SWAP2 SWAP1 PUSH2 0x3567 JUMP JUMPDEST DUP3 GT PUSH2 0x1466 JUMPI PUSH1 0x8 SLOAD PUSH2 0x1435 SWAP1 PUSH1 0xA PUSH2 0x3596 JUMP JUMPDEST PUSH1 0x7 SLOAD PUSH1 0x60 DUP10 ADD MLOAD PUSH2 0x1447 SWAP1 DUP6 PUSH2 0x357F JUMP JUMPDEST PUSH2 0x1451 SWAP2 SWAP1 PUSH2 0x357F JUMP JUMPDEST PUSH2 0x145C DUP4 PUSH1 0x9 PUSH2 0x3596 JUMP JUMPDEST PUSH2 0x13D0 SWAP2 SWAP1 PUSH2 0x3596 JUMP JUMPDEST PUSH1 0xA PUSH2 0x1473 DUP3 PUSH1 0x9 PUSH2 0x3596 JUMP JUMPDEST PUSH2 0x147D SWAP2 SWAP1 PUSH2 0x35CB JUMP JUMPDEST SWAP3 POP JUMPDEST POP SWAP1 SWAP6 SWAP5 POP POP POP POP POP JUMP JUMPDEST PUSH1 0x3 DUP2 DUP2 SLOAD DUP2 LT PUSH2 0x149B JUMPI PUSH1 0x0 DUP1 REVERT JUMPDEST PUSH1 0x0 SWAP2 DUP3 MSTORE PUSH1 0x20 SWAP1 SWAP2 KECCAK256 ADD SLOAD SWAP1 POP DUP2 JUMP JUMPDEST PUSH1 0x0 DUP3 PUSH1 0x40 ADD MLOAD DUP3 GT PUSH2 0x14C1 JUMPI POP PUSH1 0x0 PUSH2 0x5D2 JUMP JUMPDEST PUSH1 0x0 DUP1 PUSH2 0x14E1 DUP5 DUP7 PUSH1 0x60 ADD MLOAD DUP8 PUSH1 0x40 ADD MLOAD PUSH2 0x14DC SWAP2 SWAP1 PUSH2 0x3567 JUMP JUMPDEST PUSH2 0x2BBF JUMP JUMPDEST SWAP1 POP PUSH2 0x14F2 DUP2 PUSH1 0x2 DUP1 SLOAD SWAP1 POP PUSH2 0x2BBF JUMP JUMPDEST SWAP1 POP PUSH1 0x0 PUSH2 0x1500 DUP7 DUP7 PUSH2 0x2697 JUMP JUMPDEST SWAP1 POP PUSH1 0x0 PUSH1 0x64 DUP8 PUSH1 0x40 ADD MLOAD PUSH2 0x1515 SWAP2 SWAP1 PUSH2 0x35CB JUMP JUMPDEST PUSH2 0x1520 SWAP1 PUSH1 0x1 PUSH2 0x3567 JUMP JUMPDEST SWAP1 POP PUSH1 0x0 PUSH2 0x1533 DUP5 PUSH2 0x14DC PUSH1 0x64 DUP6 PUSH2 0x3596 JUMP JUMPDEST PUSH1 0x40 DUP10 ADD MLOAD SWAP1 SWAP2 POP JUMPDEST DUP2 DUP2 LT ISZERO PUSH2 0x15F4 JUMPI PUSH1 0x2 DUP2 DUP2 SLOAD DUP2 LT PUSH2 0x1557 JUMPI PUSH2 0x1557 PUSH2 0x3460 JUMP JUMPDEST SWAP1 PUSH1 0x0 MSTORE PUSH1 0x20 PUSH1 0x0 KECCAK256 SWAP1 PUSH1 0x3 MUL ADD PUSH1 0x1 ADD SLOAD PUSH1 0x0 EQ ISZERO PUSH2 0x1576 JUMPI PUSH2 0x15E2 JUMP JUMPDEST PUSH1 0x2 DUP2 DUP2 SLOAD DUP2 LT PUSH2 0x1589 JUMPI PUSH2 0x1589 PUSH2 0x3460 JUMP JUMPDEST SWAP1 PUSH1 0x0 MSTORE PUSH1 0x20 PUSH1 0x0 KECCAK256 SWAP1 PUSH1 0x3 MUL ADD PUSH1 0x1 ADD SLOAD DUP5 PUSH1 0x2 DUP4 DUP2 SLOAD DUP2 LT PUSH2 0x15AF JUMPI PUSH2 0x15AF PUSH2 0x3460 JUMP JUMPDEST SWAP1 PUSH1 0x0 MSTORE PUSH1 0x20 PUSH1 0x0 KECCAK256 SWAP1 PUSH1 0x3 MUL ADD PUSH1 0x0 ADD SLOAD PUSH2 0x15CB SWAP2 SWAP1 PUSH2 0x3596 JUMP JUMPDEST PUSH2 0x15D5 SWAP2 SWAP1 PUSH2 0x35CB JUMP JUMPDEST PUSH2 0x15DF SWAP1 DUP8 PUSH2 0x3567 JUMP JUMPDEST SWAP6 POP JUMPDEST DUP1 PUSH2 0x15EC DUP2 PUSH2 0x34A7 JUMP JUMPDEST SWAP2 POP POP PUSH2 0x153C JUMP JUMPDEST POP PUSH1 0x0 PUSH2 0x1602 PUSH1 0x64 DUP7 PUSH2 0x35CB JUMP JUMPDEST SWAP1 POP DUP3 JUMPDEST DUP2 DUP2 LT ISZERO PUSH2 0x1668 JUMPI PUSH8 0xDE0B6B3A7640000 DUP6 PUSH1 0x3 DUP4 DUP2 SLOAD DUP2 LT PUSH2 0x162B JUMPI PUSH2 0x162B PUSH2 0x3460 JUMP JUMPDEST SWAP1 PUSH1 0x0 MSTORE PUSH1 0x20 PUSH1 0x0 KECCAK256 ADD SLOAD PUSH2 0x1640 SWAP2 SWAP1 PUSH2 0x3596 JUMP JUMPDEST PUSH2 0x164A SWAP2 SWAP1 PUSH2 0x35CB JUMP JUMPDEST PUSH2 0x1654 SWAP1 DUP9 PUSH2 0x3567 JUMP JUMPDEST SWAP7 POP DUP1 PUSH2 0x1660 DUP2 PUSH2 0x34A7 JUMP JUMPDEST SWAP2 POP POP PUSH2 0x1606 JUMP JUMPDEST POP PUSH1 0x0 PUSH2 0x1676 PUSH1 0x64 DUP8 PUSH2 0x35F8 JUMP JUMPDEST PUSH2 0x1680 SWAP1 DUP8 PUSH2 0x357F JUMP JUMPDEST SWAP1 POP DUP10 PUSH1 0x40 ADD MLOAD DUP2 GT ISZERO PUSH2 0x174A JUMPI DUP1 JUMPDEST DUP7 DUP2 LT ISZERO PUSH2 0x1748 JUMPI PUSH1 0x2 DUP2 DUP2 SLOAD DUP2 LT PUSH2 0x16AB JUMPI PUSH2 0x16AB PUSH2 0x3460 JUMP JUMPDEST SWAP1 PUSH1 0x0 MSTORE PUSH1 0x20 PUSH1 0x0 KECCAK256 SWAP1 PUSH1 0x3 MUL ADD PUSH1 0x1 ADD SLOAD PUSH1 0x0 EQ ISZERO PUSH2 0x16CA JUMPI PUSH2 0x1736 JUMP JUMPDEST PUSH1 0x2 DUP2 DUP2 SLOAD DUP2 LT PUSH2 0x16DD JUMPI PUSH2 0x16DD PUSH2 0x3460 JUMP JUMPDEST SWAP1 PUSH1 0x0 MSTORE PUSH1 0x20 PUSH1 0x0 KECCAK256 SWAP1 PUSH1 0x3 MUL ADD PUSH1 0x1 ADD SLOAD DUP7 PUSH1 0x2 DUP4 DUP2 SLOAD DUP2 LT PUSH2 0x1703 JUMPI PUSH2 0x1703 PUSH2 0x3460 JUMP JUMPDEST SWAP1 PUSH1 0x0 MSTORE PUSH1 0x20 PUSH1 0x0 KECCAK256 SWAP1 PUSH1 0x3 MUL ADD PUSH1 0x0 ADD SLOAD PUSH2 0x171F SWAP2 SWAP1 PUSH2 0x3596 JUMP JUMPDEST PUSH2 0x1729 SWAP2 SWAP1 PUSH2 0x35CB JUMP JUMPDEST PUSH2 0x1733 SWAP1 DUP10 PUSH2 0x3567 JUMP JUMPDEST SWAP8 POP JUMPDEST DUP1 PUSH2 0x1740 DUP2 PUSH2 0x34A7 JUMP JUMPDEST SWAP2 POP POP PUSH2 0x1690 JUMP JUMPDEST POP JUMPDEST POP SWAP5 SWAP9 SWAP8 POP POP POP POP POP POP POP POP JUMP JUMPDEST DUP2 PUSH1 0x4 DUP2 DUP2 SLOAD DUP2 LT PUSH2 0x176C JUMPI PUSH2 0x176C PUSH2 0x3460 JUMP JUMPDEST PUSH1 0x0 SWAP2 DUP3 MSTORE PUSH1 0x20 SWAP1 SWAP2 KECCAK256 PUSH1 0x5 SWAP1 SWAP2 MUL ADD SLOAD PUSH1 0x1 PUSH1 0x1 PUSH1 0xA0 SHL SUB AND CALLER EQ PUSH2 0x17A4 JUMPI PUSH1 0x40 MLOAD PUSH3 0x461BCD PUSH1 0xE5 SHL DUP2 MSTORE PUSH1 0x4 ADD PUSH2 0x6A1 SWAP1 PUSH2 0x34C2 JUMP JUMPDEST PUSH1 0x4 SLOAD DUP4 SWAP1 DUP2 LT PUSH2 0x17C7 JUMPI PUSH1 0x40 MLOAD PUSH3 0x461BCD PUSH1 0xE5 SHL DUP2 MSTORE PUSH1 0x4 ADD PUSH2 0x6A1 SWAP1 PUSH2 0x34F9 JUMP JUMPDEST DUP4 PUSH1 0x4 DUP2 DUP2 SLOAD DUP2 LT PUSH2 0x17DB JUMPI PUSH2 0x17DB PUSH2 0x3460 JUMP JUMPDEST SWAP1 PUSH1 0x0 MSTORE PUSH1 0x20 PUSH1 0x0 KECCAK256 SWAP1 PUSH1 0x5 MUL ADD PUSH1 0x4 ADD SLOAD PUSH1 0x0 EQ PUSH2 0x180C JUMPI PUSH1 0x40 MLOAD PUSH3 0x461BCD PUSH1 0xE5 SHL DUP2 MSTORE PUSH1 0x4 ADD PUSH2 0x6A1 SWAP1 PUSH2 0x3530 JUMP JUMPDEST DUP4 PUSH1 0x1 PUSH1 0x1 PUSH1 0xA0 SHL SUB AND PUSH1 0x4 DUP7 DUP2 SLOAD DUP2 LT PUSH2 0x1829 JUMPI PUSH2 0x1829 PUSH2 0x3460 JUMP JUMPDEST PUSH1 0x0 SWAP2 DUP3 MSTORE PUSH1 0x20 SWAP1 SWAP2 KECCAK256 PUSH1 0x5 SWAP1 SWAP2 MUL ADD SLOAD PUSH1 0x1 PUSH1 0x1 PUSH1 0xA0 SHL SUB AND EQ ISZERO PUSH2 0x18A8 JUMPI PUSH1 0x40 MLOAD PUSH3 0x461BCD PUSH1 0xE5 SHL DUP2 MSTORE PUSH1 0x20 PUSH1 0x4 DUP3 ADD MSTORE PUSH1 0x2E PUSH1 0x24 DUP3 ADD MSTORE PUSH32 0x53533A204E6577206F776E6572206D75737420626520646966666572656E7420 PUSH1 0x44 DUP3 ADD MSTORE PUSH14 0x333937B69037B6321037BBB732B9 PUSH1 0x91 SHL PUSH1 0x64 DUP3 ADD MSTORE PUSH1 0x84 ADD PUSH2 0x6A1 JUMP JUMPDEST PUSH2 0x18B0 PUSH2 0x299C JUMP JUMPDEST DUP4 PUSH1 0x4 DUP7 DUP2 SLOAD DUP2 LT PUSH2 0x18C4 JUMPI PUSH2 0x18C4 PUSH2 0x3460 JUMP JUMPDEST PUSH1 0x0 SWAP2 DUP3 MSTORE PUSH1 0x20 SWAP2 DUP3 SWAP1 KECCAK256 PUSH1 0x5 SWAP2 SWAP1 SWAP2 MUL ADD DUP1 SLOAD PUSH1 0x1 PUSH1 0x1 PUSH1 0xA0 SHL SUB NOT AND PUSH1 0x1 PUSH1 0x1 PUSH1 0xA0 SHL SUB SWAP4 DUP5 AND OR SWAP1 SSTORE PUSH1 0x40 DUP1 MLOAD DUP9 DUP2 MSTORE SWAP3 DUP8 AND SWAP2 DUP4 ADD SWAP2 SWAP1 SWAP2 MSTORE PUSH32 0x2CAD8E3E3A0926D0A7524BD52DDA355991EDB76A6B44EF43E75417996062AC7A SWAP2 ADD PUSH1 0x40 MLOAD DUP1 SWAP2 SUB SWAP1 LOG1 POP POP POP POP POP JUMP JUMPDEST PUSH1 0x0 JUMPDEST DUP2 DUP2 LT ISZERO PUSH2 0x1346 JUMPI PUSH2 0x195F DUP4 DUP4 DUP4 DUP2 DUP2 LT PUSH2 0x1953 JUMPI PUSH2 0x1953 PUSH2 0x3460 JUMP JUMPDEST SWAP1 POP PUSH1 0x20 MUL ADD CALLDATALOAD PUSH2 0x655 JUMP JUMPDEST DUP1 PUSH2 0x1969 DUP2 PUSH2 0x34A7 JUMP JUMPDEST SWAP2 POP POP PUSH2 0x1936 JUMP JUMPDEST PUSH2 0x197B DUP3 DUP3 PUSH2 0x2BD0 JUMP JUMPDEST PUSH1 0x0 DUP3 DUP2 MSTORE PUSH1 0x1 PUSH1 0x20 MSTORE PUSH1 0x40 SWAP1 KECCAK256 PUSH2 0x1346 SWAP1 DUP3 PUSH2 0x2AF0 JUMP JUMPDEST PUSH2 0x199D DUP3 DUP3 PUSH2 0x2BE6 JUMP JUMPDEST PUSH1 0x0 DUP3 DUP2 MSTORE PUSH1 0x1 PUSH1 0x20 MSTORE PUSH1 0x40 SWAP1 KECCAK256 PUSH2 0x1346 SWAP1 DUP3 PUSH2 0x2C60 JUMP JUMPDEST PUSH1 0x0 PUSH2 0x19CD PUSH1 0x4 DUP5 DUP2 SLOAD DUP2 LT PUSH2 0x928 JUMPI PUSH2 0x928 PUSH2 0x3460 JUMP JUMPDEST SWAP4 SWAP3 POP POP POP JUMP JUMPDEST PUSH1 0x0 JUMPDEST DUP2 DUP2 LT ISZERO PUSH2 0x1346 JUMPI PUSH2 0x1A00 DUP4 DUP4 DUP4 DUP2 DUP2 LT PUSH2 0x19F4 JUMPI PUSH2 0x19F4 PUSH2 0x3460 JUMP JUMPDEST SWAP1 POP PUSH1 0x20 MUL ADD CALLDATALOAD PUSH2 0x1A12 JUMP JUMPDEST DUP1 PUSH2 0x1A0A DUP2 PUSH2 0x34A7 JUMP JUMPDEST SWAP2 POP POP PUSH2 0x19D7 JUMP JUMPDEST DUP1 PUSH1 0x4 DUP2 DUP2 SLOAD DUP2 LT PUSH2 0x1A26 JUMPI PUSH2 0x1A26 PUSH2 0x3460 JUMP JUMPDEST PUSH1 0x0 SWAP2 DUP3 MSTORE PUSH1 0x20 SWAP1 SWAP2 KECCAK256 PUSH1 0x5 SWAP1 SWAP2 MUL ADD SLOAD PUSH1 0x1 PUSH1 0x1 PUSH1 0xA0 SHL SUB AND CALLER EQ PUSH2 0x1A5E JUMPI PUSH1 0x40 MLOAD PUSH3 0x461BCD PUSH1 0xE5 SHL DUP2 MSTORE PUSH1 0x4 ADD PUSH2 0x6A1 SWAP1 PUSH2 0x34C2 JUMP JUMPDEST PUSH1 0x4 SLOAD DUP3 SWAP1 DUP2 LT PUSH2 0x1A81 JUMPI PUSH1 0x40 MLOAD PUSH3 0x461BCD PUSH1 0xE5 SHL DUP2 MSTORE PUSH1 0x4 ADD PUSH2 0x6A1 SWAP1 PUSH2 0x34F9 JUMP JUMPDEST DUP3 PUSH1 0x4 DUP2 DUP2 SLOAD DUP2 LT PUSH2 0x1A95 JUMPI PUSH2 0x1A95 PUSH2 0x3460 JUMP JUMPDEST SWAP1 PUSH1 0x0 MSTORE PUSH1 0x20 PUSH1 0x0 KECCAK256 SWAP1 PUSH1 0x5 MUL ADD PUSH1 0x4 ADD SLOAD PUSH1 0x0 EQ PUSH2 0x1AC6 JUMPI PUSH1 0x40 MLOAD PUSH3 0x461BCD PUSH1 0xE5 SHL DUP2 MSTORE PUSH1 0x4 ADD PUSH2 0x6A1 SWAP1 PUSH2 0x3530 JUMP JUMPDEST PUSH2 0x1ACE PUSH2 0x299C JUMP JUMPDEST PUSH1 0x0 PUSH2 0x1AD8 PUSH2 0x2A3D JUMP JUMPDEST SWAP1 POP PUSH1 0x4 DUP6 DUP2 SLOAD DUP2 LT PUSH2 0x1AED JUMPI PUSH2 0x1AED PUSH2 0x3460 JUMP JUMPDEST SWAP1 PUSH1 0x0 MSTORE PUSH1 0x20 PUSH1 0x0 KECCAK256 SWAP1 PUSH1 0x5 MUL ADD PUSH1 0x2 ADD SLOAD PUSH1 0x5 PUSH1 0x0 ADD SLOAD PUSH2 0x1B0F SWAP2 SWAP1 PUSH2 0x3567 JUMP JUMPDEST DUP2 GT PUSH2 0x1B83 JUMPI PUSH1 0x40 MLOAD PUSH3 0x461BCD PUSH1 0xE5 SHL DUP2 MSTORE PUSH1 0x20 PUSH1 0x4 DUP3 ADD MSTORE PUSH1 0x3F PUSH1 0x24 DUP3 ADD MSTORE PUSH32 0x53533A205363726170696E6720697320617661696C61626C65206F6E63652069 PUSH1 0x44 DUP3 ADD MSTORE PUSH32 0x6E204D494E494D554D5F444159535F464F525F484947485F50454E414C545900 PUSH1 0x64 DUP3 ADD MSTORE PUSH1 0x84 ADD PUSH2 0x6A1 JUMP JUMPDEST PUSH1 0x4 DUP6 DUP2 SLOAD DUP2 LT PUSH2 0x1B96 JUMPI PUSH2 0x1B96 PUSH2 0x3460 JUMP JUMPDEST SWAP1 PUSH1 0x0 MSTORE PUSH1 0x20 PUSH1 0x0 KECCAK256 SWAP1 PUSH1 0x5 MUL ADD PUSH1 0x3 ADD SLOAD PUSH1 0x4 DUP7 DUP2 SLOAD DUP2 LT PUSH2 0x1BBB JUMPI PUSH2 0x1BBB PUSH2 0x3460 JUMP JUMPDEST SWAP1 PUSH1 0x0 MSTORE PUSH1 0x20 PUSH1 0x0 KECCAK256 SWAP1 PUSH1 0x5 MUL ADD PUSH1 0x2 ADD SLOAD PUSH2 0x1BD7 SWAP2 SWAP1 PUSH2 0x3567 JUMP JUMPDEST DUP2 LT PUSH2 0x1C4D JUMPI PUSH1 0x40 DUP1 MLOAD PUSH3 0x461BCD PUSH1 0xE5 SHL DUP2 MSTORE PUSH1 0x20 PUSH1 0x4 DUP3 ADD MSTORE PUSH1 0x24 DUP2 ADD SWAP2 SWAP1 SWAP2 MSTORE PUSH32 0x53533A205363726170696E6720697320617661696C61626C65206F6E63652077 PUSH1 0x44 DUP3 ADD MSTORE PUSH32 0x68696C65207374616B6520697320496E2050726F677265737320737461747573 PUSH1 0x64 DUP3 ADD MSTORE PUSH1 0x84 ADD PUSH2 0x6A1 JUMP JUMPDEST PUSH1 0x0 PUSH1 0x4 DUP7 DUP2 SLOAD DUP2 LT PUSH2 0x1C62 JUMPI PUSH2 0x1C62 PUSH2 0x3460 JUMP JUMPDEST SWAP1 PUSH1 0x0 MSTORE PUSH1 0x20 PUSH1 0x0 KECCAK256 SWAP1 PUSH1 0x5 MUL ADD PUSH1 0x1 ADD SLOAD SWAP1 POP PUSH1 0x0 PUSH1 0x4 DUP8 DUP2 SLOAD DUP2 LT PUSH2 0x1C8B JUMPI PUSH2 0x1C8B PUSH2 0x3460 JUMP JUMPDEST SWAP1 PUSH1 0x0 MSTORE PUSH1 0x20 PUSH1 0x0 KECCAK256 SWAP1 PUSH1 0x5 MUL ADD PUSH1 0x3 ADD SLOAD SWAP1 POP PUSH1 0x0 PUSH2 0x1CB7 PUSH1 0x4 DUP10 DUP2 SLOAD DUP2 LT PUSH2 0xC2A JUMPI PUSH2 0xC2A PUSH2 0x3460 JUMP JUMPDEST SWAP1 POP PUSH1 0x4 DUP9 DUP2 SLOAD DUP2 LT PUSH2 0x1CCC JUMPI PUSH2 0x1CCC PUSH2 0x3460 JUMP JUMPDEST SWAP1 PUSH1 0x0 MSTORE PUSH1 0x20 PUSH1 0x0 KECCAK256 SWAP1 PUSH1 0x5 MUL ADD PUSH1 0x2 ADD SLOAD DUP5 PUSH2 0x1CE9 SWAP2 SWAP1 PUSH2 0x357F JUMP JUMPDEST PUSH1 0x4 DUP10 DUP2 SLOAD DUP2 LT PUSH2 0x1CFC JUMPI PUSH2 0x1CFC PUSH2 0x3460 JUMP JUMPDEST SWAP1 PUSH1 0x0 MSTORE PUSH1 0x20 PUSH1 0x0 KECCAK256 SWAP1 PUSH1 0x5 MUL ADD PUSH1 0x3 ADD DUP2 SWAP1 SSTORE POP PUSH1 0x0 PUSH2 0x1D29 PUSH1 0x4 DUP11 DUP2 SLOAD DUP2 LT PUSH2 0xC2A JUMPI PUSH2 0xC2A PUSH2 0x3460 JUMP JUMPDEST SWAP1 POP DUP1 DUP3 PUSH1 0x2 DUP8 DUP2 SLOAD DUP2 LT PUSH2 0x1D40 JUMPI PUSH2 0x1D40 PUSH2 0x3460 JUMP JUMPDEST SWAP1 PUSH1 0x0 MSTORE PUSH1 0x20 PUSH1 0x0 KECCAK256 SWAP1 PUSH1 0x3 MUL ADD PUSH1 0x1 ADD SLOAD PUSH2 0x1D5C SWAP2 SWAP1 PUSH2 0x357F JUMP JUMPDEST PUSH2 0x1D66 SWAP2 SWAP1 PUSH2 0x3567 JUMP JUMPDEST PUSH1 0x2 DUP7 DUP2 SLOAD DUP2 LT PUSH2 0x1D79 JUMPI PUSH2 0x1D79 PUSH2 0x3460 JUMP JUMPDEST SWAP1 PUSH1 0x0 MSTORE PUSH1 0x20 PUSH1 0x0 KECCAK256 SWAP1 PUSH1 0x3 MUL ADD PUSH1 0x1 ADD DUP2 SWAP1 SSTORE POP PUSH32 0x3E2D801CABF80E21F37737B105FEEDEF59585176AE82A611B6239E59FCCAAEA2 DUP10 PUSH1 0x4 DUP12 DUP2 SLOAD DUP2 LT PUSH2 0x1DC3 JUMPI PUSH2 0x1DC3 PUSH2 0x3460 JUMP JUMPDEST PUSH1 0x0 SWAP2 DUP3 MSTORE PUSH1 0x20 SWAP2 DUP3 SWAP1 KECCAK256 PUSH1 0x3 PUSH1 0x5 SWAP1 SWAP3 MUL ADD ADD SLOAD PUSH1 0x40 DUP1 MLOAD SWAP4 DUP5 MSTORE SWAP2 DUP4 ADD MSTORE DUP2 ADD DUP4 SWAP1 MSTORE PUSH1 0x60 ADD PUSH1 0x40 MLOAD DUP1 SWAP2 SUB SWAP1 LOG1 PUSH2 0x1DFC DUP10 PUSH2 0x655 JUMP JUMPDEST PUSH1 0x0 PUSH1 0x4 DUP11 DUP2 SLOAD DUP2 LT PUSH2 0x1E11 JUMPI PUSH2 0x1E11 PUSH2 0x3460 JUMP JUMPDEST SWAP1 PUSH1 0x0 MSTORE PUSH1 0x20 PUSH1 0x0 KECCAK256 SWAP1 PUSH1 0x5 MUL ADD PUSH1 0x3 ADD SLOAD DUP5 PUSH2 0x1E2E SWAP2 SWAP1 PUSH2 0x357F JUMP JUMPDEST SWAP1 POP PUSH2 0x1E4D PUSH1 0x40 MLOAD DUP1 PUSH1 0x40 ADD PUSH1 0x40 MSTORE DUP1 DUP8 DUP2 MSTORE PUSH1 0x20 ADD DUP4 DUP2 MSTORE POP PUSH2 0xDE0 JUMP JUMPDEST POP POP POP POP POP POP POP POP POP POP POP JUMP JUMPDEST PUSH1 0x0 PUSH2 0x1E72 PUSH1 0x4 DUP6 DUP2 SLOAD DUP2 LT PUSH2 0xA08 JUMPI PUSH2 0xA08 PUSH2 0x3460 JUMP JUMPDEST SWAP5 SWAP4 POP POP POP POP JUMP JUMPDEST PUSH1 0x0 DUP3 DUP2 MSTORE PUSH1 0x1 PUSH1 0x20 MSTORE PUSH1 0x40 DUP2 KECCAK256 PUSH2 0x19CD SWAP1 DUP4 PUSH2 0x2C75 JUMP JUMPDEST PUSH1 0x0 SWAP2 DUP3 MSTORE PUSH1 0x20 DUP3 DUP2 MSTORE PUSH1 0x40 DUP1 DUP5 KECCAK256 PUSH1 0x1 PUSH1 0x1 PUSH1 0xA0 SHL SUB SWAP4 SWAP1 SWAP4 AND DUP5 MSTORE SWAP2 SWAP1 MSTORE SWAP1 KECCAK256 SLOAD PUSH1 0xFF AND SWAP1 JUMP JUMPDEST PUSH1 0x0 PUSH2 0x1EC7 DUP2 CALLER PUSH2 0x2B3A JUMP JUMPDEST PUSH2 0x1ECF PUSH2 0x299C JUMP JUMPDEST PUSH1 0xD SLOAD PUSH1 0x40 MLOAD PUSH4 0x18A8AD87 PUSH1 0xE0 SHL DUP2 MSTORE PUSH1 0x1 PUSH1 0x1 PUSH1 0xA0 SHL SUB DUP6 DUP2 AND PUSH1 0x4 DUP4 ADD MSTORE PUSH1 0x24 DUP3 ADD DUP6 SWAP1 MSTORE SWAP1 SWAP2 AND SWAP1 PUSH4 0x18A8AD87 SWAP1 PUSH1 0x44 ADD PUSH1 0x0 PUSH1 0x40 MLOAD DUP1 DUP4 SUB DUP2 PUSH1 0x0 DUP8 DUP1 EXTCODESIZE ISZERO DUP1 ISZERO PUSH2 0x1F1D JUMPI PUSH1 0x0 DUP1 REVERT JUMPDEST POP GAS CALL ISZERO DUP1 ISZERO PUSH2 0x1F31 JUMPI RETURNDATASIZE PUSH1 0x0 DUP1 RETURNDATACOPY RETURNDATASIZE PUSH1 0x0 REVERT JUMPDEST POP POP POP POP PUSH1 0x0 PUSH2 0x1F3F PUSH2 0x2A3D JUMP JUMPDEST SWAP1 POP DUP3 PUSH1 0x2 DUP3 DUP2 SLOAD DUP2 LT PUSH2 0x1F55 JUMPI PUSH2 0x1F55 PUSH2 0x3460 JUMP JUMPDEST SWAP1 PUSH1 0x0 MSTORE PUSH1 0x20 PUSH1 0x0 KECCAK256 SWAP1 PUSH1 0x3 MUL ADD PUSH1 0x0 ADD PUSH1 0x0 DUP3 DUP3 SLOAD PUSH2 0x1F75 SWAP2 SWAP1 PUSH2 0x3567 JUMP JUMPDEST SWAP1 SWAP2 SSTORE POP POP POP POP POP POP JUMP JUMPDEST PUSH1 0x2 DUP2 DUP2 SLOAD DUP2 LT PUSH2 0x1F90 JUMPI PUSH1 0x0 DUP1 REVERT JUMPDEST PUSH1 0x0 SWAP2 DUP3 MSTORE PUSH1 0x20 SWAP1 SWAP2 KECCAK256 PUSH1 0x3 SWAP1 SWAP2 MUL ADD DUP1 SLOAD PUSH1 0x1 DUP3 ADD SLOAD PUSH1 0x2 SWAP1 SWAP3 ADD SLOAD SWAP1 SWAP3 POP DUP4 JUMP JUMPDEST PUSH2 0x1FBB PUSH2 0x2A3D JUMP JUMPDEST DUP2 GT ISZERO PUSH2 0x200A JUMPI PUSH1 0x40 MLOAD PUSH3 0x461BCD PUSH1 0xE5 SHL DUP2 MSTORE PUSH1 0x20 PUSH1 0x4 DUP3 ADD MSTORE PUSH1 0x18 PUSH1 0x24 DUP3 ADD MSTORE PUSH32 0x53533A2045786365656465642063757272656E74206461790000000000000000 PUSH1 0x44 DUP3 ADD MSTORE PUSH1 0x64 ADD PUSH2 0x6A1 JUMP JUMPDEST PUSH1 0x2 SLOAD PUSH8 0xDE0B6B3A7640000 SWAP1 PUSH1 0x0 SWAP1 PUSH2 0x2026 SWAP1 PUSH1 0x1 SWAP1 PUSH2 0x357F JUMP JUMPDEST SWAP1 POP DUP3 DUP2 EQ ISZERO PUSH2 0x2035 JUMPI POP POP POP JUMP JUMPDEST DUP1 JUMPDEST DUP4 DUP2 LT ISZERO PUSH2 0x238D JUMPI PUSH1 0x2 SLOAD PUSH1 0x0 SWAP1 DUP3 LT PUSH2 0x205F JUMPI PUSH1 0x2 SLOAD PUSH2 0x205A SWAP1 PUSH1 0x1 SWAP1 PUSH2 0x357F JUMP JUMPDEST PUSH2 0x2061 JUMP JUMPDEST DUP2 JUMPDEST SWAP1 POP PUSH1 0x0 PUSH1 0x2 DUP3 DUP2 SLOAD DUP2 LT PUSH2 0x2078 JUMPI PUSH2 0x2078 PUSH2 0x3460 JUMP JUMPDEST SWAP1 PUSH1 0x0 MSTORE PUSH1 0x20 PUSH1 0x0 KECCAK256 SWAP1 PUSH1 0x3 MUL ADD PUSH1 0x2 ADD SLOAD PUSH1 0x5 PUSH1 0x7 ADD SLOAD PUSH2 0x209A SWAP2 SWAP1 PUSH2 0x3596 JUMP JUMPDEST PUSH1 0xC SLOAD PUSH1 0xB SLOAD PUSH8 0xDE0B6B3A7640000 SWAP2 DUP9 SWAP2 PUSH2 0x20B6 SWAP2 SWAP1 PUSH2 0x3567 JUMP JUMPDEST PUSH2 0x20C0 SWAP2 SWAP1 PUSH2 0x3596 JUMP JUMPDEST PUSH2 0x20CA SWAP2 SWAP1 PUSH2 0x3596 JUMP JUMPDEST PUSH2 0x20D4 SWAP2 SWAP1 PUSH2 0x35CB JUMP JUMPDEST SWAP1 POP PUSH1 0x0 PUSH3 0xF4240 PUSH2 0x20E8 PUSH2 0x16D DUP5 PUSH2 0x3596 JUMP JUMPDEST PUSH2 0x20F2 SWAP2 SWAP1 PUSH2 0x3596 JUMP JUMPDEST DUP3 PUSH1 0x2 DUP6 DUP2 SLOAD DUP2 LT PUSH2 0x2106 JUMPI PUSH2 0x2106 PUSH2 0x3460 JUMP JUMPDEST SWAP1 PUSH1 0x0 MSTORE PUSH1 0x20 PUSH1 0x0 KECCAK256 SWAP1 PUSH1 0x3 MUL ADD PUSH1 0x1 ADD SLOAD PUSH2 0x2122 SWAP2 SWAP1 PUSH2 0x3567 JUMP JUMPDEST PUSH1 0x6 SLOAD PUSH2 0x212F SWAP1 DUP10 PUSH2 0x3596 JUMP JUMPDEST PUSH2 0x2139 SWAP2 SWAP1 PUSH2 0x3596 JUMP JUMPDEST PUSH2 0x2143 SWAP2 SWAP1 PUSH2 0x35CB JUMP JUMPDEST PUSH1 0x2 SLOAD SWAP1 SWAP2 POP DUP5 LT ISZERO PUSH2 0x218F JUMPI DUP1 PUSH1 0x2 DUP5 DUP2 SLOAD DUP2 LT PUSH2 0x2164 JUMPI PUSH2 0x2164 PUSH2 0x3460 JUMP JUMPDEST SWAP1 PUSH1 0x0 MSTORE PUSH1 0x20 PUSH1 0x0 KECCAK256 SWAP1 PUSH1 0x3 MUL ADD PUSH1 0x0 ADD PUSH1 0x0 DUP3 DUP3 SLOAD PUSH2 0x2184 SWAP2 SWAP1 PUSH2 0x3567 JUMP JUMPDEST SWAP1 SWAP2 SSTORE POP PUSH2 0x2228 SWAP1 POP JUMP JUMPDEST PUSH1 0x2 PUSH1 0x40 MLOAD DUP1 PUSH1 0x60 ADD PUSH1 0x40 MSTORE DUP1 DUP4 DUP2 MSTORE PUSH1 0x20 ADD PUSH1 0x2 DUP7 DUP2 SLOAD DUP2 LT PUSH2 0x21B5 JUMPI PUSH2 0x21B5 PUSH2 0x3460 JUMP JUMPDEST SWAP1 PUSH1 0x0 MSTORE PUSH1 0x20 PUSH1 0x0 KECCAK256 SWAP1 PUSH1 0x3 MUL ADD PUSH1 0x1 ADD SLOAD DUP2 MSTORE PUSH1 0x20 ADD PUSH1 0x2 DUP7 DUP2 SLOAD DUP2 LT PUSH2 0x21DF JUMPI PUSH2 0x21DF PUSH2 0x3460 JUMP JUMPDEST PUSH1 0x0 SWAP2 DUP3 MSTORE PUSH1 0x20 DUP1 DUP4 KECCAK256 PUSH1 0x3 SWAP3 DUP4 MUL ADD PUSH1 0x2 SWAP1 DUP2 ADD SLOAD SWAP1 SWAP5 MSTORE DUP6 SLOAD PUSH1 0x1 DUP1 DUP3 ADD DUP9 SSTORE SWAP7 DUP5 MSTORE SWAP3 DUP2 SWAP1 KECCAK256 DUP6 MLOAD SWAP4 SWAP1 SWAP3 MUL SWAP1 SWAP2 ADD SWAP2 DUP3 SSTORE DUP4 ADD MLOAD SWAP4 DUP2 ADD SWAP4 SWAP1 SWAP4 SSTORE PUSH1 0x40 SWAP1 SWAP2 ADD MLOAD SWAP2 ADD SSTORE JUMPDEST PUSH32 0x45BC90C5E61BE4D79E2F0C1154A663332BBCCF6A26759463D04772164EEBFED2 DUP5 PUSH1 0x2 DUP6 DUP2 SLOAD DUP2 LT PUSH2 0x225D JUMPI PUSH2 0x225D PUSH2 0x3460 JUMP JUMPDEST SWAP1 PUSH1 0x0 MSTORE PUSH1 0x20 PUSH1 0x0 KECCAK256 SWAP1 PUSH1 0x3 MUL ADD PUSH1 0x0 ADD SLOAD PUSH1 0x2 DUP7 DUP2 SLOAD DUP2 LT PUSH2 0x2282 JUMPI PUSH2 0x2282 PUSH2 0x3460 JUMP JUMPDEST SWAP1 PUSH1 0x0 MSTORE PUSH1 0x20 PUSH1 0x0 KECCAK256 SWAP1 PUSH1 0x3 MUL ADD PUSH1 0x1 ADD SLOAD PUSH1 0x2 DUP8 DUP2 SLOAD DUP2 LT PUSH2 0x22A7 JUMPI PUSH2 0x22A7 PUSH2 0x3460 JUMP JUMPDEST SWAP1 PUSH1 0x0 MSTORE PUSH1 0x20 PUSH1 0x0 KECCAK256 SWAP1 PUSH1 0x3 MUL ADD PUSH1 0x2 ADD SLOAD PUSH2 0x22C1 PUSH2 0x28EE JUMP JUMPDEST PUSH1 0xD PUSH1 0x0 SWAP1 SLOAD SWAP1 PUSH2 0x100 EXP SWAP1 DIV PUSH1 0x1 PUSH1 0x1 PUSH1 0xA0 SHL SUB AND PUSH1 0x1 PUSH1 0x1 PUSH1 0xA0 SHL SUB AND PUSH4 0x18160DDD PUSH1 0x40 MLOAD DUP2 PUSH4 0xFFFFFFFF AND PUSH1 0xE0 SHL DUP2 MSTORE PUSH1 0x4 ADD PUSH1 0x20 PUSH1 0x40 MLOAD DUP1 DUP4 SUB DUP2 DUP7 DUP1 EXTCODESIZE ISZERO DUP1 ISZERO PUSH2 0x230F JUMPI PUSH1 0x0 DUP1 REVERT JUMPDEST POP GAS STATICCALL ISZERO DUP1 ISZERO PUSH2 0x2323 JUMPI RETURNDATASIZE PUSH1 0x0 DUP1 RETURNDATACOPY RETURNDATASIZE PUSH1 0x0 REVERT JUMPDEST POP POP POP POP PUSH1 0x40 MLOAD RETURNDATASIZE PUSH1 0x1F NOT PUSH1 0x1F DUP3 ADD AND DUP3 ADD DUP1 PUSH1 0x40 MSTORE POP DUP2 ADD SWAP1 PUSH2 0x2347 SWAP2 SWAP1 PUSH2 0x35DF JUMP JUMPDEST PUSH1 0x40 DUP1 MLOAD SWAP7 DUP8 MSTORE PUSH1 0x20 DUP8 ADD SWAP6 SWAP1 SWAP6 MSTORE SWAP4 DUP6 ADD SWAP3 SWAP1 SWAP3 MSTORE PUSH1 0x60 DUP5 ADD MSTORE PUSH1 0x80 DUP4 ADD MSTORE PUSH1 0xA0 DUP3 ADD MSTORE PUSH1 0xC0 ADD PUSH1 0x40 MLOAD DUP1 SWAP2 SUB SWAP1 LOG1 POP POP POP DUP1 DUP1 PUSH2 0x2385 SWAP1 PUSH2 0x34A7 JUMP JUMPDEST SWAP2 POP POP PUSH2 0x2037 JUMP JUMPDEST POP PUSH1 0x2 SLOAD DUP4 EQ ISZERO PUSH2 0x244A JUMPI PUSH1 0x2 PUSH1 0x40 MLOAD DUP1 PUSH1 0x60 ADD PUSH1 0x40 MSTORE DUP1 PUSH1 0x0 DUP2 MSTORE PUSH1 0x20 ADD PUSH1 0x2 PUSH1 0x1 DUP8 PUSH2 0x23BB SWAP2 SWAP1 PUSH2 0x357F JUMP JUMPDEST DUP2 SLOAD DUP2 LT PUSH2 0x23CB JUMPI PUSH2 0x23CB PUSH2 0x3460 JUMP JUMPDEST SWAP1 PUSH1 0x0 MSTORE PUSH1 0x20 PUSH1 0x0 KECCAK256 SWAP1 PUSH1 0x3 MUL ADD PUSH1 0x1 ADD SLOAD DUP2 MSTORE PUSH1 0x20 ADD PUSH1 0x2 PUSH1 0x1 DUP8 PUSH2 0x23F1 SWAP2 SWAP1 PUSH2 0x357F JUMP JUMPDEST DUP2 SLOAD DUP2 LT PUSH2 0x2401 JUMPI PUSH2 0x2401 PUSH2 0x3460 JUMP JUMPDEST PUSH1 0x0 SWAP2 DUP3 MSTORE PUSH1 0x20 DUP1 DUP4 KECCAK256 PUSH1 0x3 SWAP3 DUP4 MUL ADD PUSH1 0x2 SWAP1 DUP2 ADD SLOAD SWAP1 SWAP5 MSTORE DUP6 SLOAD PUSH1 0x1 DUP1 DUP3 ADD DUP9 SSTORE SWAP7 DUP5 MSTORE SWAP3 DUP2 SWAP1 KECCAK256 DUP6 MLOAD SWAP4 SWAP1 SWAP3 MUL SWAP1 SWAP2 ADD SWAP2 DUP3 SSTORE DUP4 ADD MLOAD SWAP4 DUP2 ADD SWAP4 SWAP1 SWAP4 SSTORE PUSH1 0x40 SWAP1 SWAP2 ADD MLOAD SWAP2 ADD SSTORE JUMPDEST PUSH1 0x3 SLOAD PUSH1 0x0 SWAP1 PUSH2 0x245C SWAP1 PUSH1 0x1 SWAP1 PUSH2 0x357F JUMP JUMPDEST SWAP1 POP PUSH1 0x0 PUSH2 0x246B PUSH1 0x64 DUP7 PUSH2 0x35CB JUMP JUMPDEST SWAP1 POP DUP2 JUMPDEST DUP2 DUP2 LT ISZERO PUSH2 0x2652 JUMPI PUSH1 0x0 DUP1 PUSH2 0x2485 PUSH1 0x64 DUP5 PUSH2 0x3596 JUMP JUMPDEST SWAP1 POP JUMPDEST PUSH1 0x64 PUSH2 0x2495 DUP5 PUSH1 0x1 PUSH2 0x3567 JUMP JUMPDEST PUSH2 0x249F SWAP2 SWAP1 PUSH2 0x3596 JUMP JUMPDEST DUP2 LT ISZERO PUSH2 0x255E JUMPI PUSH1 0x2 DUP2 DUP2 SLOAD DUP2 LT PUSH2 0x24B9 JUMPI PUSH2 0x24B9 PUSH2 0x3460 JUMP JUMPDEST SWAP1 PUSH1 0x0 MSTORE PUSH1 0x20 PUSH1 0x0 KECCAK256 SWAP1 PUSH1 0x3 MUL ADD PUSH1 0x1 ADD SLOAD PUSH1 0x0 EQ ISZERO PUSH2 0x24D8 JUMPI PUSH2 0x254C JUMP JUMPDEST PUSH1 0x2 DUP2 DUP2 SLOAD DUP2 LT PUSH2 0x24EB JUMPI PUSH2 0x24EB PUSH2 0x3460 JUMP JUMPDEST SWAP1 PUSH1 0x0 MSTORE PUSH1 0x20 PUSH1 0x0 KECCAK256 SWAP1 PUSH1 0x3 MUL ADD PUSH1 0x1 ADD SLOAD PUSH8 0xDE0B6B3A7640000 PUSH1 0x2 DUP4 DUP2 SLOAD DUP2 LT PUSH2 0x2519 JUMPI PUSH2 0x2519 PUSH2 0x3460 JUMP JUMPDEST SWAP1 PUSH1 0x0 MSTORE PUSH1 0x20 PUSH1 0x0 KECCAK256 SWAP1 PUSH1 0x3 MUL ADD PUSH1 0x0 ADD SLOAD PUSH2 0x2535 SWAP2 SWAP1 PUSH2 0x3596 JUMP JUMPDEST PUSH2 0x253F SWAP2 SWAP1 PUSH2 0x35CB JUMP JUMPDEST PUSH2 0x2549 SWAP1 DUP4 PUSH2 0x3567 JUMP JUMPDEST SWAP2 POP JUMPDEST DUP1 PUSH2 0x2556 DUP2 PUSH2 0x34A7 JUMP JUMPDEST SWAP2 POP POP PUSH2 0x2488 JUMP JUMPDEST POP PUSH1 0x3 SLOAD DUP3 LT ISZERO PUSH2 0x259D JUMPI PUSH1 0x3 DUP1 SLOAD DUP3 SWAP2 SWAP1 PUSH2 0x257C SWAP1 PUSH1 0x1 SWAP1 PUSH2 0x357F JUMP JUMPDEST DUP2 SLOAD DUP2 LT PUSH2 0x258C JUMPI PUSH2 0x258C PUSH2 0x3460 JUMP JUMPDEST PUSH1 0x0 SWAP2 DUP3 MSTORE PUSH1 0x20 SWAP1 SWAP2 KECCAK256 ADD SSTORE PUSH2 0x25D0 JUMP JUMPDEST PUSH1 0x3 DUP1 SLOAD PUSH1 0x1 DUP2 ADD DUP3 SSTORE PUSH1 0x0 SWAP2 DUP3 MSTORE PUSH32 0xC2575A0E9E593C00F959F8C92F12DB2869C3395A3B0502D05E2516446F71F85B ADD SSTORE JUMPDEST PUSH1 0x3 SLOAD PUSH32 0x1C9CE6F1D7F557DC59B02392857734618E6BC787C6A7C136A8BC32BED4E19111 SWAP1 DUP4 SWAP1 PUSH2 0x2603 SWAP1 PUSH1 0x1 SWAP1 PUSH2 0x357F JUMP JUMPDEST PUSH1 0x3 DUP6 DUP2 SLOAD DUP2 LT PUSH2 0x2616 JUMPI PUSH2 0x2616 PUSH2 0x3460 JUMP JUMPDEST PUSH1 0x0 SWAP2 DUP3 MSTORE PUSH1 0x20 SWAP2 DUP3 SWAP1 KECCAK256 ADD SLOAD PUSH1 0x40 DUP1 MLOAD SWAP5 DUP6 MSTORE SWAP2 DUP5 ADD SWAP3 SWAP1 SWAP3 MSTORE DUP3 ADD MSTORE PUSH1 0x60 ADD PUSH1 0x40 MLOAD DUP1 SWAP2 SUB SWAP1 LOG1 POP DUP1 PUSH2 0x264A DUP2 PUSH2 0x34A7 JUMP JUMPDEST SWAP2 POP POP PUSH2 0x246F JUMP JUMPDEST POP PUSH1 0x3 SLOAD DUP2 EQ ISZERO PUSH2 0x2690 JUMPI PUSH1 0x3 DUP1 SLOAD PUSH1 0x1 DUP2 ADD DUP3 SSTORE PUSH1 0x0 SWAP2 DUP3 MSTORE PUSH32 0xC2575A0E9E593C00F959F8C92F12DB2869C3395A3B0502D05E2516446F71F85B ADD SSTORE JUMPDEST POP POP POP POP POP JUMP JUMPDEST PUSH1 0x0 DUP1 DUP3 PUSH2 0x26AA JUMPI POP PUSH1 0x60 DUP4 ADD MLOAD PUSH2 0x26D6 JUMP JUMPDEST DUP4 PUSH1 0x40 ADD MLOAD DUP4 GT ISZERO PUSH2 0x26CC JUMPI PUSH1 0x40 DUP5 ADD MLOAD PUSH2 0x26C5 SWAP1 DUP5 PUSH2 0x357F JUMP JUMPDEST SWAP1 POP PUSH2 0x26D6 JUMP JUMPDEST PUSH1 0x0 SWAP2 POP POP PUSH2 0x5D2 JUMP JUMPDEST PUSH2 0x26E7 DUP2 PUSH2 0x14DC PUSH2 0x16D PUSH1 0xA PUSH2 0x3596 JUMP JUMPDEST SWAP1 POP PUSH1 0x0 PUSH2 0x270E PUSH1 0x1 DUP7 PUSH1 0x40 ADD MLOAD PUSH2 0x26FF SWAP2 SWAP1 PUSH2 0x357F JUMP JUMPDEST PUSH1 0x2 SLOAD PUSH2 0x14DC SWAP1 PUSH1 0x1 SWAP1 PUSH2 0x357F JUMP JUMPDEST SWAP1 POP PUSH1 0x0 PUSH1 0x2 DUP3 DUP2 SLOAD DUP2 LT PUSH2 0x2725 JUMPI PUSH2 0x2725 PUSH2 0x3460 JUMP JUMPDEST SWAP1 PUSH1 0x0 MSTORE PUSH1 0x20 PUSH1 0x0 KECCAK256 SWAP1 PUSH1 0x3 MUL ADD PUSH1 0x2 ADD SLOAD PUSH8 0xDE0B6B3A7640000 DUP8 PUSH1 0x20 ADD MLOAD PUSH2 0x274F SWAP2 SWAP1 PUSH2 0x3596 JUMP JUMPDEST PUSH2 0x2759 SWAP2 SWAP1 PUSH2 0x35CB JUMP JUMPDEST SWAP1 POP PUSH1 0x0 PUSH1 0x2 DUP4 DUP2 SLOAD DUP2 LT PUSH2 0x2770 JUMPI PUSH2 0x2770 PUSH2 0x3460 JUMP JUMPDEST SWAP1 PUSH1 0x0 MSTORE PUSH1 0x20 PUSH1 0x0 KECCAK256 SWAP1 PUSH1 0x3 MUL ADD PUSH1 0x2 ADD SLOAD PUSH2 0x16D PUSH1 0x5 PUSH1 0x7 ADD SLOAD PUSH1 0xA PUSH2 0x2797 SWAP2 SWAP1 PUSH2 0x3596 JUMP JUMPDEST PUSH2 0x27A1 SWAP2 SWAP1 PUSH2 0x3596 JUMP JUMPDEST PUSH2 0x27AB SWAP2 SWAP1 PUSH2 0x3596 JUMP JUMPDEST PUSH8 0xDE0B6B3A7640000 DUP9 PUSH1 0x20 ADD MLOAD DUP7 PUSH1 0x5 PUSH1 0x6 ADD SLOAD PUSH2 0x27CA SWAP2 SWAP1 PUSH2 0x3596 JUMP JUMPDEST PUSH2 0x27D4 SWAP2 SWAP1 PUSH2 0x3596 JUMP JUMPDEST PUSH2 0x27DE SWAP2 SWAP1 PUSH2 0x3596 JUMP JUMPDEST PUSH2 0x27E8 SWAP2 SWAP1 PUSH2 0x35CB JUMP JUMPDEST SWAP1 POP PUSH1 0x0 PUSH9 0x3635C9ADC5DEA00000 DUP9 PUSH1 0x20 ADD MLOAD GT PUSH2 0x281A JUMPI PUSH2 0x2813 PUSH8 0xDE0B6B3A7640000 PUSH1 0x2 PUSH2 0x3596 JUMP JUMPDEST SWAP1 POP PUSH2 0x28B7 JUMP JUMPDEST DUP8 PUSH1 0x20 ADD MLOAD PUSH9 0x3635C9ADC5DEA00000 LT DUP1 ISZERO PUSH2 0x2843 JUMPI POP PUSH10 0xD3C21BCECCEDA1000000 DUP9 PUSH1 0x20 ADD MLOAD LT JUMPDEST ISZERO PUSH2 0x28AC JUMPI PUSH2 0x2865 PUSH9 0x3635C9ADC5DEA00000 PUSH10 0xD3C21BCECCEDA1000000 PUSH2 0x357F JUMP JUMPDEST PUSH1 0x20 DUP10 ADD MLOAD PUSH2 0x287E SWAP1 PUSH10 0xD3C21BCECCEDA1000000 PUSH2 0x357F JUMP JUMPDEST PUSH2 0x2890 SWAP1 PUSH8 0xDE0B6B3A7640000 PUSH2 0x3596 JUMP JUMPDEST PUSH2 0x289A SWAP2 SWAP1 PUSH2 0x35CB JUMP JUMPDEST PUSH2 0x2813 SWAP1 PUSH8 0xDE0B6B3A7640000 PUSH2 0x3567 JUMP JUMPDEST POP PUSH8 0xDE0B6B3A7640000 JUMPDEST PUSH1 0x0 PUSH8 0xDE0B6B3A7640000 DUP3 PUSH2 0x28CD DUP6 DUP8 PUSH2 0x3567 JUMP JUMPDEST PUSH2 0x28D7 SWAP2 SWAP1 PUSH2 0x3596 JUMP JUMPDEST PUSH2 0x28E1 SWAP2 SWAP1 PUSH2 0x35CB JUMP JUMPDEST SWAP10 SWAP9 POP POP POP POP POP POP POP POP POP JUMP JUMPDEST PUSH1 0xD SLOAD PUSH1 0x40 MLOAD PUSH4 0x70A08231 PUSH1 0xE0 SHL DUP2 MSTORE ADDRESS PUSH1 0x4 DUP3 ADD MSTORE PUSH1 0x0 SWAP2 PUSH1 0x1 PUSH1 0x1 PUSH1 0xA0 SHL SUB AND SWAP1 PUSH4 0x70A08231 SWAP1 PUSH1 0x24 ADD PUSH1 0x20 PUSH1 0x40 MLOAD DUP1 DUP4 SUB DUP2 DUP7 DUP1 EXTCODESIZE ISZERO DUP1 ISZERO PUSH2 0x2932 JUMPI PUSH1 0x0 DUP1 REVERT JUMPDEST POP GAS STATICCALL ISZERO DUP1 ISZERO PUSH2 0x2946 JUMPI RETURNDATASIZE PUSH1 0x0 DUP1 RETURNDATACOPY RETURNDATASIZE PUSH1 0x0 REVERT JUMPDEST POP POP POP POP PUSH1 0x40 MLOAD RETURNDATASIZE PUSH1 0x1F NOT PUSH1 0x1F DUP3 ADD AND DUP3 ADD DUP1 PUSH1 0x40 MSTORE POP DUP2 ADD SWAP1 PUSH2 0x296A SWAP2 SWAP1 PUSH2 0x35DF JUMP JUMPDEST SWAP1 POP SWAP1 JUMP JUMPDEST PUSH1 0x0 PUSH1 0x64 PUSH2 0x297B PUSH2 0x2A3D JUMP JUMPDEST PUSH2 0x296A SWAP2 SWAP1 PUSH2 0x35CB JUMP JUMPDEST PUSH1 0x0 DUP2 DUP2 MSTORE PUSH1 0x1 PUSH1 0x20 MSTORE PUSH1 0x40 DUP2 KECCAK256 PUSH2 0x5D2 SWAP1 PUSH2 0x2C81 JUMP JUMPDEST PUSH2 0x29A7 PUSH2 0x47B PUSH2 0x2A3D JUMP JUMPDEST JUMP JUMPDEST PUSH2 0x199D DUP3 DUP3 PUSH2 0x2C8B JUMP JUMPDEST PUSH1 0x4 DUP2 DUP2 SLOAD DUP2 LT PUSH2 0x29C3 JUMPI PUSH1 0x0 DUP1 REVERT JUMPDEST PUSH1 0x0 SWAP2 DUP3 MSTORE PUSH1 0x20 SWAP1 SWAP2 KECCAK256 PUSH1 0x5 SWAP1 SWAP2 MUL ADD DUP1 SLOAD PUSH1 0x1 DUP3 ADD SLOAD PUSH1 0x2 DUP4 ADD SLOAD PUSH1 0x3 DUP5 ADD SLOAD PUSH1 0x4 SWAP1 SWAP5 ADD SLOAD PUSH1 0x1 PUSH1 0x1 PUSH1 0xA0 SHL SUB SWAP1 SWAP4 AND SWAP5 POP SWAP1 SWAP3 SWAP1 SWAP2 DUP6 JUMP JUMPDEST PUSH1 0x0 JUMPDEST DUP3 DUP2 LT ISZERO PUSH2 0x64F JUMPI PUSH2 0x2A2B DUP5 DUP5 DUP4 DUP2 DUP2 LT PUSH2 0x2A1E JUMPI PUSH2 0x2A1E PUSH2 0x3460 JUMP JUMPDEST SWAP1 POP PUSH1 0x20 MUL ADD CALLDATALOAD DUP4 PUSH2 0x1758 JUMP JUMPDEST DUP1 PUSH2 0x2A35 DUP2 PUSH2 0x34A7 JUMP JUMPDEST SWAP2 POP POP PUSH2 0x2A01 JUMP JUMPDEST PUSH1 0x0 PUSH2 0x258 PUSH1 0xE SLOAD PUSH2 0x2A4F SWAP2 SWAP1 PUSH2 0x35CB JUMP JUMPDEST PUSH2 0x2A5B PUSH2 0x258 TIMESTAMP PUSH2 0x35CB JUMP JUMPDEST PUSH2 0x2A65 SWAP2 SWAP1 PUSH2 0x357F JUMP JUMPDEST PUSH2 0x296A SWAP1 PUSH1 0x1 PUSH2 0x3567 JUMP JUMPDEST PUSH1 0x0 PUSH2 0x19CD PUSH1 0x4 DUP5 DUP2 SLOAD DUP2 LT PUSH2 0x2A88 JUMPI PUSH2 0x2A88 PUSH2 0x3460 JUMP JUMPDEST PUSH1 0x0 SWAP2 DUP3 MSTORE PUSH1 0x20 SWAP2 DUP3 SWAP1 KECCAK256 PUSH1 0x40 DUP1 MLOAD PUSH1 0xA0 DUP2 ADD DUP3 MSTORE PUSH1 0x5 SWAP1 SWAP4 MUL SWAP1 SWAP2 ADD DUP1 SLOAD PUSH1 0x1 PUSH1 0x1 PUSH1 0xA0 SHL SUB AND DUP4 MSTORE PUSH1 0x1 DUP2 ADD SLOAD SWAP4 DUP4 ADD SWAP4 SWAP1 SWAP4 MSTORE PUSH1 0x2 DUP4 ADD SLOAD SWAP1 DUP3 ADD MSTORE PUSH1 0x3 DUP3 ADD SLOAD PUSH1 0x60 DUP3 ADD MSTORE PUSH1 0x4 SWAP1 SWAP2 ADD SLOAD PUSH1 0x80 DUP3 ADD MSTORE DUP4 PUSH2 0x2697 JUMP JUMPDEST PUSH2 0x2AEC DUP3 DUP3 PUSH2 0x2CB1 JUMP JUMPDEST POP POP JUMP JUMPDEST PUSH1 0x0 PUSH2 0x19CD DUP4 PUSH1 0x1 PUSH1 0x1 PUSH1 0xA0 SHL SUB DUP5 AND PUSH2 0x2D35 JUMP JUMPDEST PUSH1 0x0 PUSH1 0x1 PUSH1 0x1 PUSH1 0xE0 SHL SUB NOT DUP3 AND PUSH4 0x7965DB0B PUSH1 0xE0 SHL EQ DUP1 PUSH2 0x5D2 JUMPI POP PUSH4 0x1FFC9A7 PUSH1 0xE0 SHL PUSH1 0x1 PUSH1 0x1 PUSH1 0xE0 SHL SUB NOT DUP4 AND EQ PUSH2 0x5D2 JUMP JUMPDEST PUSH2 0x2B44 DUP3 DUP3 PUSH2 0x1E92 JUMP JUMPDEST PUSH2 0x2AEC JUMPI PUSH2 0x2B5C DUP2 PUSH1 0x1 PUSH1 0x1 PUSH1 0xA0 SHL SUB AND PUSH1 0x14 PUSH2 0x2D84 JUMP JUMPDEST PUSH2 0x2B67 DUP4 PUSH1 0x20 PUSH2 0x2D84 JUMP JUMPDEST PUSH1 0x40 MLOAD PUSH1 0x20 ADD PUSH2 0x2B78 SWAP3 SWAP2 SWAP1 PUSH2 0x3638 JUMP JUMPDEST PUSH1 0x40 DUP1 MLOAD PUSH1 0x1F NOT DUP2 DUP5 SUB ADD DUP2 MSTORE SWAP1 DUP3 SWAP1 MSTORE PUSH3 0x461BCD PUSH1 0xE5 SHL DUP3 MSTORE PUSH2 0x6A1 SWAP2 PUSH1 0x4 ADD PUSH2 0x36AD JUMP JUMPDEST PUSH2 0x197B DUP3 DUP3 PUSH2 0x2AE2 JUMP JUMPDEST PUSH1 0x0 DUP2 DUP4 GT ISZERO PUSH2 0x2BB9 JUMPI POP DUP2 PUSH2 0x5D2 JUMP JUMPDEST POP SWAP2 SWAP1 POP JUMP JUMPDEST PUSH1 0x0 DUP2 DUP4 LT ISZERO PUSH2 0x2BB9 JUMPI POP DUP2 PUSH2 0x5D2 JUMP JUMPDEST PUSH1 0x0 PUSH2 0x2BDC DUP2 CALLER PUSH2 0x2B3A JUMP JUMPDEST PUSH2 0x1346 DUP4 DUP4 PUSH2 0x2CB1 JUMP JUMPDEST PUSH1 0x1 PUSH1 0x1 PUSH1 0xA0 SHL SUB DUP2 AND CALLER EQ PUSH2 0x2C56 JUMPI PUSH1 0x40 MLOAD PUSH3 0x461BCD PUSH1 0xE5 SHL DUP2 MSTORE PUSH1 0x20 PUSH1 0x4 DUP3 ADD MSTORE PUSH1 0x2F PUSH1 0x24 DUP3 ADD MSTORE PUSH32 0x416363657373436F6E74726F6C3A2063616E206F6E6C792072656E6F756E6365 PUSH1 0x44 DUP3 ADD MSTORE PUSH15 0x103937B632B9903337B91039B2B633 PUSH1 0x89 SHL PUSH1 0x64 DUP3 ADD MSTORE PUSH1 0x84 ADD PUSH2 0x6A1 JUMP JUMPDEST PUSH2 0x2AEC DUP3 DUP3 PUSH2 0x2F20 JUMP JUMPDEST PUSH1 0x0 PUSH2 0x19CD DUP4 PUSH1 0x1 PUSH1 0x1 PUSH1 0xA0 SHL SUB DUP5 AND PUSH2 0x2F85 JUMP JUMPDEST PUSH1 0x0 PUSH2 0x19CD DUP4 DUP4 PUSH2 0x306E JUMP JUMPDEST PUSH1 0x0 PUSH2 0x5D2 DUP3 SLOAD SWAP1 JUMP JUMPDEST PUSH1 0x0 DUP3 DUP2 MSTORE PUSH1 0x20 DUP2 SWAP1 MSTORE PUSH1 0x40 SWAP1 KECCAK256 PUSH1 0x1 ADD SLOAD PUSH2 0x2CA7 DUP2 CALLER PUSH2 0x2B3A JUMP JUMPDEST PUSH2 0x1346 DUP4 DUP4 PUSH2 0x2F20 JUMP JUMPDEST PUSH2 0x2CBB DUP3 DUP3 PUSH2 0x1E92 JUMP JUMPDEST PUSH2 0x2AEC JUMPI PUSH1 0x0 DUP3 DUP2 MSTORE PUSH1 0x20 DUP2 DUP2 MSTORE PUSH1 0x40 DUP1 DUP4 KECCAK256 PUSH1 0x1 PUSH1 0x1 PUSH1 0xA0 SHL SUB DUP6 AND DUP5 MSTORE SWAP1 SWAP2 MSTORE SWAP1 KECCAK256 DUP1 SLOAD PUSH1 0xFF NOT AND PUSH1 0x1 OR SWAP1 SSTORE PUSH2 0x2CF1 CALLER SWAP1 JUMP JUMPDEST PUSH1 0x1 PUSH1 0x1 PUSH1 0xA0 SHL SUB AND DUP2 PUSH1 0x1 PUSH1 0x1 PUSH1 0xA0 SHL SUB AND DUP4 PUSH32 0x2F8788117E7EFF1D82E926EC794901D17C78024A50270940304540A733656F0D PUSH1 0x40 MLOAD PUSH1 0x40 MLOAD DUP1 SWAP2 SUB SWAP1 LOG4 POP POP JUMP JUMPDEST PUSH1 0x0 DUP2 DUP2 MSTORE PUSH1 0x1 DUP4 ADD PUSH1 0x20 MSTORE PUSH1 0x40 DUP2 KECCAK256 SLOAD PUSH2 0x2D7C JUMPI POP DUP2 SLOAD PUSH1 0x1 DUP2 DUP2 ADD DUP5 SSTORE PUSH1 0x0 DUP5 DUP2 MSTORE PUSH1 0x20 DUP1 DUP3 KECCAK256 SWAP1 SWAP4 ADD DUP5 SWAP1 SSTORE DUP5 SLOAD DUP5 DUP3 MSTORE DUP3 DUP7 ADD SWAP1 SWAP4 MSTORE PUSH1 0x40 SWAP1 KECCAK256 SWAP2 SWAP1 SWAP2 SSTORE PUSH2 0x5D2 JUMP JUMPDEST POP PUSH1 0x0 PUSH2 0x5D2 JUMP JUMPDEST PUSH1 0x60 PUSH1 0x0 PUSH2 0x2D93 DUP4 PUSH1 0x2 PUSH2 0x3596 JUMP JUMPDEST PUSH2 0x2D9E SWAP1 PUSH1 0x2 PUSH2 0x3567 JUMP JUMPDEST PUSH8 0xFFFFFFFFFFFFFFFF DUP2 GT ISZERO PUSH2 0x2DB6 JUMPI PUSH2 0x2DB6 PUSH2 0x317C JUMP JUMPDEST PUSH1 0x40 MLOAD SWAP1 DUP1 DUP3 MSTORE DUP1 PUSH1 0x1F ADD PUSH1 0x1F NOT AND PUSH1 0x20 ADD DUP3 ADD PUSH1 0x40 MSTORE DUP1 ISZERO PUSH2 0x2DE0 JUMPI PUSH1 0x20 DUP3 ADD DUP2 DUP1 CALLDATASIZE DUP4 CALLDATACOPY ADD SWAP1 POP JUMPDEST POP SWAP1 POP PUSH1 0x3 PUSH1 0xFC SHL DUP2 PUSH1 0x0 DUP2 MLOAD DUP2 LT PUSH2 0x2DFB JUMPI PUSH2 0x2DFB PUSH2 0x3460 JUMP JUMPDEST PUSH1 0x20 ADD ADD SWAP1 PUSH1 0x1 PUSH1 0x1 PUSH1 0xF8 SHL SUB NOT AND SWAP1 DUP2 PUSH1 0x0 BYTE SWAP1 MSTORE8 POP PUSH1 0xF PUSH1 0xFB SHL DUP2 PUSH1 0x1 DUP2 MLOAD DUP2 LT PUSH2 0x2E2A JUMPI PUSH2 0x2E2A PUSH2 0x3460 JUMP JUMPDEST PUSH1 0x20 ADD ADD SWAP1 PUSH1 0x1 PUSH1 0x1 PUSH1 0xF8 SHL SUB NOT AND SWAP1 DUP2 PUSH1 0x0 BYTE SWAP1 MSTORE8 POP PUSH1 0x0 PUSH2 0x2E4E DUP5 PUSH1 0x2 PUSH2 0x3596 JUMP JUMPDEST PUSH2 0x2E59 SWAP1 PUSH1 0x1 PUSH2 0x3567 JUMP JUMPDEST SWAP1 POP JUMPDEST PUSH1 0x1 DUP2 GT ISZERO PUSH2 0x2ED1 JUMPI PUSH16 0x181899199A1A9B1B9C1CB0B131B232B3 PUSH1 0x81 SHL DUP6 PUSH1 0xF AND PUSH1 0x10 DUP2 LT PUSH2 0x2E8D JUMPI PUSH2 0x2E8D PUSH2 0x3460 JUMP JUMPDEST BYTE PUSH1 0xF8 SHL DUP3 DUP3 DUP2 MLOAD DUP2 LT PUSH2 0x2EA3 JUMPI PUSH2 0x2EA3 PUSH2 0x3460 JUMP JUMPDEST PUSH1 0x20 ADD ADD SWAP1 PUSH1 0x1 PUSH1 0x1 PUSH1 0xF8 SHL SUB NOT AND SWAP1 DUP2 PUSH1 0x0 BYTE SWAP1 MSTORE8 POP PUSH1 0x4 SWAP5 SWAP1 SWAP5 SHR SWAP4 PUSH2 0x2ECA DUP2 PUSH2 0x36E0 JUMP JUMPDEST SWAP1 POP PUSH2 0x2E5C JUMP JUMPDEST POP DUP4 ISZERO PUSH2 0x19CD JUMPI PUSH1 0x40 MLOAD PUSH3 0x461BCD PUSH1 0xE5 SHL DUP2 MSTORE PUSH1 0x20 PUSH1 0x4 DUP3 ADD DUP2 SWAP1 MSTORE PUSH1 0x24 DUP3 ADD MSTORE PUSH32 0x537472696E67733A20686578206C656E67746820696E73756666696369656E74 PUSH1 0x44 DUP3 ADD MSTORE PUSH1 0x64 ADD PUSH2 0x6A1 JUMP JUMPDEST PUSH2 0x2F2A DUP3 DUP3 PUSH2 0x1E92 JUMP JUMPDEST ISZERO PUSH2 0x2AEC JUMPI PUSH1 0x0 DUP3 DUP2 MSTORE PUSH1 0x20 DUP2 DUP2 MSTORE PUSH1 0x40 DUP1 DUP4 KECCAK256 PUSH1 0x1 PUSH1 0x1 PUSH1 0xA0 SHL SUB DUP6 AND DUP1 DUP6 MSTORE SWAP3 MSTORE DUP1 DUP4 KECCAK256 DUP1 SLOAD PUSH1 0xFF NOT AND SWAP1 SSTORE MLOAD CALLER SWAP3 DUP6 SWAP2 PUSH32 0xF6391F5C32D9C69D2A47EA670B442974B53935D1EDC7FD64EB21E047A839171B SWAP2 SWAP1 LOG4 POP POP JUMP JUMPDEST PUSH1 0x0 DUP2 DUP2 MSTORE PUSH1 0x1 DUP4 ADD PUSH1 0x20 MSTORE PUSH1 0x40 DUP2 KECCAK256 SLOAD DUP1 ISZERO PUSH2 0x26CC JUMPI PUSH1 0x0 PUSH2 0x2FA9 PUSH1 0x1 DUP4 PUSH2 0x357F JUMP JUMPDEST DUP6 SLOAD SWAP1 SWAP2 POP PUSH1 0x0 SWAP1 PUSH2 0x2FBD SWAP1 PUSH1 0x1 SWAP1 PUSH2 0x357F JUMP JUMPDEST SWAP1 POP DUP2 DUP2 EQ PUSH2 0x3022 JUMPI PUSH1 0x0 DUP7 PUSH1 0x0 ADD DUP3 DUP2 SLOAD DUP2 LT PUSH2 0x2FDD JUMPI PUSH2 0x2FDD PUSH2 0x3460 JUMP JUMPDEST SWAP1 PUSH1 0x0 MSTORE PUSH1 0x20 PUSH1 0x0 KECCAK256 ADD SLOAD SWAP1 POP DUP1 DUP8 PUSH1 0x0 ADD DUP5 DUP2 SLOAD DUP2 LT PUSH2 0x3000 JUMPI PUSH2 0x3000 PUSH2 0x3460 JUMP JUMPDEST PUSH1 0x0 SWAP2 DUP3 MSTORE PUSH1 0x20 DUP1 DUP4 KECCAK256 SWAP1 SWAP2 ADD SWAP3 SWAP1 SWAP3 SSTORE SWAP2 DUP3 MSTORE PUSH1 0x1 DUP9 ADD SWAP1 MSTORE PUSH1 0x40 SWAP1 KECCAK256 DUP4 SWAP1 SSTORE JUMPDEST DUP6 SLOAD DUP7 SWAP1 DUP1 PUSH2 0x3033 JUMPI PUSH2 0x3033 PUSH2 0x36F7 JUMP JUMPDEST PUSH1 0x1 SWAP1 SUB DUP2 DUP2 SWAP1 PUSH1 0x0 MSTORE PUSH1 0x20 PUSH1 0x0 KECCAK256 ADD PUSH1 0x0 SWAP1 SSTORE SWAP1 SSTORE DUP6 PUSH1 0x1 ADD PUSH1 0x0 DUP7 DUP2 MSTORE PUSH1 0x20 ADD SWAP1 DUP2 MSTORE PUSH1 0x20 ADD PUSH1 0x0 KECCAK256 PUSH1 0x0 SWAP1 SSTORE PUSH1 0x1 SWAP4 POP POP POP POP PUSH2 0x5D2 JUMP JUMPDEST PUSH1 0x0 DUP3 PUSH1 0x0 ADD DUP3 DUP2 SLOAD DUP2 LT PUSH2 0x3085 JUMPI PUSH2 0x3085 PUSH2 0x3460 JUMP JUMPDEST SWAP1 PUSH1 0x0 MSTORE PUSH1 0x20 PUSH1 0x0 KECCAK256 ADD SLOAD SWAP1 POP SWAP3 SWAP2 POP POP JUMP JUMPDEST PUSH1 0x0 PUSH1 0x20 DUP3 DUP5 SUB SLT ISZERO PUSH2 0x30AA JUMPI PUSH1 0x0 DUP1 REVERT JUMPDEST DUP2 CALLDATALOAD PUSH1 0x1 PUSH1 0x1 PUSH1 0xE0 SHL SUB NOT DUP2 AND DUP2 EQ PUSH2 0x19CD JUMPI PUSH1 0x0 DUP1 REVERT JUMPDEST PUSH1 0x0 DUP1 DUP4 PUSH1 0x1F DUP5 ADD SLT PUSH2 0x30D4 JUMPI PUSH1 0x0 DUP1 REVERT JUMPDEST POP DUP2 CALLDATALOAD PUSH8 0xFFFFFFFFFFFFFFFF DUP2 GT ISZERO PUSH2 0x30EC JUMPI PUSH1 0x0 DUP1 REVERT JUMPDEST PUSH1 0x20 DUP4 ADD SWAP2 POP DUP4 PUSH1 0x20 DUP3 PUSH1 0x6 SHL DUP6 ADD ADD GT ISZERO PUSH2 0x3107 JUMPI PUSH1 0x0 DUP1 REVERT JUMPDEST SWAP3 POP SWAP3 SWAP1 POP JUMP JUMPDEST PUSH1 0x0 DUP1 PUSH1 0x20 DUP4 DUP6 SUB SLT ISZERO PUSH2 0x3121 JUMPI PUSH1 0x0 DUP1 REVERT JUMPDEST DUP3 CALLDATALOAD PUSH8 0xFFFFFFFFFFFFFFFF DUP2 GT ISZERO PUSH2 0x3138 JUMPI PUSH1 0x0 DUP1 REVERT JUMPDEST PUSH2 0x3144 DUP6 DUP3 DUP7 ADD PUSH2 0x30C2 JUMP JUMPDEST SWAP1 SWAP7 SWAP1 SWAP6 POP SWAP4 POP POP POP POP JUMP JUMPDEST PUSH1 0x0 PUSH1 0x20 DUP3 DUP5 SUB SLT ISZERO PUSH2 0x3162 JUMPI PUSH1 0x0 DUP1 REVERT JUMPDEST POP CALLDATALOAD SWAP2 SWAP1 POP JUMP JUMPDEST PUSH1 0x0 PUSH2 0x100 DUP3 DUP5 SUB SLT ISZERO PUSH2 0x2BB9 JUMPI PUSH1 0x0 DUP1 REVERT JUMPDEST PUSH4 0x4E487B71 PUSH1 0xE0 SHL PUSH1 0x0 MSTORE PUSH1 0x41 PUSH1 0x4 MSTORE PUSH1 0x24 PUSH1 0x0 REVERT JUMPDEST PUSH1 0x0 PUSH1 0x40 DUP3 DUP5 SUB SLT ISZERO PUSH2 0x31A4 JUMPI PUSH1 0x0 DUP1 REVERT JUMPDEST PUSH1 0x40 MLOAD PUSH1 0x40 DUP2 ADD DUP2 DUP2 LT PUSH8 0xFFFFFFFFFFFFFFFF DUP3 GT OR ISZERO PUSH2 0x31D5 JUMPI PUSH4 0x4E487B71 PUSH1 0xE0 SHL PUSH1 0x0 MSTORE PUSH1 0x41 PUSH1 0x4 MSTORE PUSH1 0x24 PUSH1 0x0 REVERT JUMPDEST PUSH1 0x40 MSTORE DUP3 CALLDATALOAD DUP2 MSTORE PUSH1 0x20 SWAP3 DUP4 ADD CALLDATALOAD SWAP3 DUP2 ADD SWAP3 SWAP1 SWAP3 MSTORE POP SWAP2 SWAP1 POP JUMP JUMPDEST DUP1 CALLDATALOAD PUSH1 0x1 PUSH1 0x1 PUSH1 0xA0 SHL SUB DUP2 AND DUP2 EQ PUSH2 0x3206 JUMPI PUSH1 0x0 DUP1 REVERT JUMPDEST SWAP2 SWAP1 POP JUMP JUMPDEST PUSH1 0x0 PUSH1 0xA0 DUP3 DUP5 SUB SLT ISZERO PUSH2 0x321D JUMPI PUSH1 0x0 DUP1 REVERT JUMPDEST PUSH1 0x40 MLOAD PUSH1 0xA0 DUP2 ADD DUP2 DUP2 LT PUSH8 0xFFFFFFFFFFFFFFFF DUP3 GT OR ISZERO PUSH2 0x324E JUMPI PUSH4 0x4E487B71 PUSH1 0xE0 SHL PUSH1 0x0 MSTORE PUSH1 0x41 PUSH1 0x4 MSTORE PUSH1 0x24 PUSH1 0x0 REVERT JUMPDEST PUSH1 0x40 MSTORE SWAP1 POP DUP1 PUSH2 0x325D DUP4 PUSH2 0x31EF JUMP JUMPDEST DUP2 MSTORE PUSH1 0x20 DUP4 ADD CALLDATALOAD PUSH1 0x20 DUP3 ADD MSTORE PUSH1 0x40 DUP4 ADD CALLDATALOAD PUSH1 0x40 DUP3 ADD MSTORE PUSH1 0x60 DUP4 ADD CALLDATALOAD PUSH1 0x60 DUP3 ADD MSTORE PUSH1 0x80 DUP4 ADD CALLDATALOAD PUSH1 0x80 DUP3 ADD MSTORE POP SWAP3 SWAP2 POP POP JUMP JUMPDEST PUSH1 0x0 DUP1 PUSH1 0x0 PUSH1 0xE0 DUP5 DUP7 SUB SLT ISZERO PUSH2 0x32A3 JUMPI PUSH1 0x0 DUP1 REVERT JUMPDEST PUSH2 0x32AD DUP6 DUP6 PUSH2 0x320B JUMP JUMPDEST SWAP6 PUSH1 0xA0 DUP6 ADD CALLDATALOAD SWAP6 POP PUSH1 0xC0 SWAP1 SWAP5 ADD CALLDATALOAD SWAP4 SWAP3 POP POP POP JUMP JUMPDEST PUSH1 0x0 DUP1 PUSH1 0xC0 DUP4 DUP6 SUB SLT ISZERO PUSH2 0x32D5 JUMPI PUSH1 0x0 DUP1 REVERT JUMPDEST PUSH2 0x32DF DUP5 DUP5 PUSH2 0x320B JUMP JUMPDEST SWAP5 PUSH1 0xA0 SWAP4 SWAP1 SWAP4 ADD CALLDATALOAD SWAP4 POP POP POP JUMP JUMPDEST PUSH1 0x0 DUP1 PUSH1 0x40 DUP4 DUP6 SUB SLT ISZERO PUSH2 0x3300 JUMPI PUSH1 0x0 DUP1 REVERT JUMPDEST DUP3 CALLDATALOAD SWAP2 POP PUSH2 0x3310 PUSH1 0x20 DUP5 ADD PUSH2 0x31EF JUMP JUMPDEST SWAP1 POP SWAP3 POP SWAP3 SWAP1 POP JUMP JUMPDEST PUSH1 0x0 DUP1 DUP4 PUSH1 0x1F DUP5 ADD SLT PUSH2 0x332B JUMPI PUSH1 0x0 DUP1 REVERT JUMPDEST POP DUP2 CALLDATALOAD PUSH8 0xFFFFFFFFFFFFFFFF DUP2 GT ISZERO PUSH2 0x3343 JUMPI PUSH1 0x0 DUP1 REVERT JUMPDEST PUSH1 0x20 DUP4 ADD SWAP2 POP DUP4 PUSH1 0x20 DUP3 PUSH1 0x5 SHL DUP6 ADD ADD GT ISZERO PUSH2 0x3107 JUMPI PUSH1 0x0 DUP1 REVERT JUMPDEST PUSH1 0x0 DUP1 PUSH1 0x20 DUP4 DUP6 SUB SLT ISZERO PUSH2 0x3371 JUMPI PUSH1 0x0 DUP1 REVERT JUMPDEST DUP3 CALLDATALOAD PUSH8 0xFFFFFFFFFFFFFFFF DUP2 GT ISZERO PUSH2 0x3388 JUMPI PUSH1 0x0 DUP1 REVERT JUMPDEST PUSH2 0x3144 DUP6 DUP3 DUP7 ADD PUSH2 0x3319 JUMP JUMPDEST PUSH1 0x0 DUP1 PUSH1 0x40 DUP4 DUP6 SUB SLT ISZERO PUSH2 0x33A7 JUMPI PUSH1 0x0 DUP1 REVERT JUMPDEST POP POP DUP1 CALLDATALOAD SWAP3 PUSH1 0x20 SWAP1 SWAP2 ADD CALLDATALOAD SWAP2 POP JUMP JUMPDEST PUSH1 0x0 DUP1 PUSH1 0x0 PUSH1 0x60 DUP5 DUP7 SUB SLT ISZERO PUSH2 0x33CB JUMPI PUSH1 0x0 DUP1 REVERT JUMPDEST POP POP DUP2 CALLDATALOAD SWAP4 PUSH1 0x20 DUP4 ADD CALLDATALOAD SWAP4 POP PUSH1 0x40 SWAP1 SWAP3 ADD CALLDATALOAD SWAP2 SWAP1 POP JUMP JUMPDEST PUSH1 0x0 DUP1 PUSH1 0x40 DUP4 DUP6 SUB SLT ISZERO PUSH2 0x33F5 JUMPI PUSH1 0x0 DUP1 REVERT JUMPDEST PUSH2 0x33FE DUP4 PUSH2 0x31EF JUMP JUMPDEST SWAP5 PUSH1 0x20 SWAP4 SWAP1 SWAP4 ADD CALLDATALOAD SWAP4 POP POP POP JUMP JUMPDEST PUSH1 0x0 DUP1 PUSH1 0x0 PUSH1 0x40 DUP5 DUP7 SUB SLT ISZERO PUSH2 0x3421 JUMPI PUSH1 0x0 DUP1 REVERT JUMPDEST DUP4 CALLDATALOAD PUSH8 0xFFFFFFFFFFFFFFFF DUP2 GT ISZERO PUSH2 0x3438 JUMPI PUSH1 0x0 DUP1 REVERT JUMPDEST PUSH2 0x3444 DUP7 DUP3 DUP8 ADD PUSH2 0x3319 JUMP JUMPDEST SWAP1 SWAP5 POP SWAP3 POP PUSH2 0x3457 SWAP1 POP PUSH1 0x20 DUP6 ADD PUSH2 0x31EF JUMP JUMPDEST SWAP1 POP SWAP3 POP SWAP3 POP SWAP3 JUMP JUMPDEST PUSH4 0x4E487B71 PUSH1 0xE0 SHL PUSH1 0x0 MSTORE PUSH1 0x32 PUSH1 0x4 MSTORE PUSH1 0x24 PUSH1 0x0 REVERT JUMPDEST PUSH1 0x0 PUSH1 0x20 DUP3 DUP5 SUB SLT ISZERO PUSH2 0x3488 JUMPI PUSH1 0x0 DUP1 REVERT JUMPDEST PUSH2 0x19CD DUP3 PUSH2 0x31EF JUMP JUMPDEST PUSH4 0x4E487B71 PUSH1 0xE0 SHL PUSH1 0x0 MSTORE PUSH1 0x11 PUSH1 0x4 MSTORE PUSH1 0x24 PUSH1 0x0 REVERT JUMPDEST PUSH1 0x0 PUSH1 0x0 NOT DUP3 EQ ISZERO PUSH2 0x34BB JUMPI PUSH2 0x34BB PUSH2 0x3491 JUMP JUMPDEST POP PUSH1 0x1 ADD SWAP1 JUMP JUMPDEST PUSH1 0x20 DUP1 DUP3 MSTORE PUSH1 0x1E SWAP1 DUP3 ADD MSTORE PUSH32 0x53533A205374616B65206F776E657220646F6573206E6F74206D617463680000 PUSH1 0x40 DUP3 ADD MSTORE PUSH1 0x60 ADD SWAP1 JUMP JUMPDEST PUSH1 0x20 DUP1 DUP3 MSTORE PUSH1 0x18 SWAP1 DUP3 ADD MSTORE PUSH32 0x53533A205374616B6520646F6573206E6F742065786973740000000000000000 PUSH1 0x40 DUP3 ADD MSTORE PUSH1 0x60 ADD SWAP1 JUMP JUMPDEST PUSH1 0x20 DUP1 DUP3 MSTORE PUSH1 0x1B SWAP1 DUP3 ADD MSTORE PUSH32 0x53533A205374616B652077617320616C726561647920656E6465640000000000 PUSH1 0x40 DUP3 ADD MSTORE PUSH1 0x60 ADD SWAP1 JUMP JUMPDEST PUSH1 0x0 DUP3 NOT DUP3 GT ISZERO PUSH2 0x357A JUMPI PUSH2 0x357A PUSH2 0x3491 JUMP JUMPDEST POP ADD SWAP1 JUMP JUMPDEST PUSH1 0x0 DUP3 DUP3 LT ISZERO PUSH2 0x3591 JUMPI PUSH2 0x3591 PUSH2 0x3491 JUMP JUMPDEST POP SUB SWAP1 JUMP JUMPDEST PUSH1 0x0 DUP2 PUSH1 0x0 NOT DIV DUP4 GT DUP3 ISZERO ISZERO AND ISZERO PUSH2 0x35B0 JUMPI PUSH2 0x35B0 PUSH2 0x3491 JUMP JUMPDEST POP MUL SWAP1 JUMP JUMPDEST PUSH4 0x4E487B71 PUSH1 0xE0 SHL PUSH1 0x0 MSTORE PUSH1 0x12 PUSH1 0x4 MSTORE PUSH1 0x24 PUSH1 0x0 REVERT JUMPDEST PUSH1 0x0 DUP3 PUSH2 0x35DA JUMPI PUSH2 0x35DA PUSH2 0x35B5 JUMP JUMPDEST POP DIV SWAP1 JUMP JUMPDEST PUSH1 0x0 PUSH1 0x20 DUP3 DUP5 SUB SLT ISZERO PUSH2 0x35F1 JUMPI PUSH1 0x0 DUP1 REVERT JUMPDEST POP MLOAD SWAP2 SWAP1 POP JUMP JUMPDEST PUSH1 0x0 DUP3 PUSH2 0x3607 JUMPI PUSH2 0x3607 PUSH2 0x35B5 JUMP JUMPDEST POP MOD SWAP1 JUMP JUMPDEST PUSH1 0x0 JUMPDEST DUP4 DUP2 LT ISZERO PUSH2 0x3627 JUMPI DUP2 DUP2 ADD MLOAD DUP4 DUP3 ADD MSTORE PUSH1 0x20 ADD PUSH2 0x360F JUMP JUMPDEST DUP4 DUP2 GT ISZERO PUSH2 0x64F JUMPI POP POP PUSH1 0x0 SWAP2 ADD MSTORE JUMP JUMPDEST PUSH32 0x416363657373436F6E74726F6C3A206163636F756E7420000000000000000000 DUP2 MSTORE PUSH1 0x0 DUP4 MLOAD PUSH2 0x3670 DUP2 PUSH1 0x17 DUP6 ADD PUSH1 0x20 DUP9 ADD PUSH2 0x360C JUMP JUMPDEST PUSH17 0x1034B99036B4B9B9B4B733903937B6329 PUSH1 0x7D SHL PUSH1 0x17 SWAP2 DUP5 ADD SWAP2 DUP3 ADD MSTORE DUP4 MLOAD PUSH2 0x36A1 DUP2 PUSH1 0x28 DUP5 ADD PUSH1 0x20 DUP9 ADD PUSH2 0x360C JUMP JUMPDEST ADD PUSH1 0x28 ADD SWAP5 SWAP4 POP POP POP POP JUMP JUMPDEST PUSH1 0x20 DUP2 MSTORE PUSH1 0x0 DUP3 MLOAD DUP1 PUSH1 0x20 DUP5 ADD MSTORE PUSH2 0x36CC DUP2 PUSH1 0x40 DUP6 ADD PUSH1 0x20 DUP8 ADD PUSH2 0x360C JUMP JUMPDEST PUSH1 0x1F ADD PUSH1 0x1F NOT AND SWAP2 SWAP1 SWAP2 ADD PUSH1 0x40 ADD SWAP3 SWAP2 POP POP JUMP JUMPDEST PUSH1 0x0 DUP2 PUSH2 0x36EF JUMPI PUSH2 0x36EF PUSH2 0x3491 JUMP JUMPDEST POP PUSH1 0x0 NOT ADD SWAP1 JUMP JUMPDEST PUSH4 0x4E487B71 PUSH1 0xE0 SHL PUSH1 0x0 MSTORE PUSH1 0x31 PUSH1 0x4 MSTORE PUSH1 0x24 PUSH1 0x0 REVERT INVALID LOG2 PUSH5 0x6970667358 0x22 SLT KECCAK256 PUSH19 0x600B248F655122A3E002EFC64FA35746E7EDF0 SWAP12 0xD2 0xA8 MSIZE CALLCODE SIGNEXTEND 0xE6 0xBB EXTCODEHASH 0x1E SHL 0xC1 PUSH5 0x736F6C6343 STOP ADDMOD MULMOD STOP CALLER BLOCKHASH JUMPI DUP8 STATICCALL SLT 0xA8 0x23 0xE0 CALLCODE 0xB7 PUSH4 0x1CC41B3B 0xA8 DUP3 DUP12 CALLER 0x21 0xCA DUP2 GT GT STATICCALL PUSH22 0xCD3AA3BB5ACEC2575A0E9E593C00F959F8C92F12DB28 PUSH10 0xC3395A3B0502D05E2516 DIFFICULTY PUSH16 0x71F85B405787FA12A823E0F2B7631CC4 SHL EXTCODESIZE 0xA8 DUP3 DUP12 CALLER 0x21 0xCA DUP2 GT GT STATICCALL PUSH22 0xCD3AA3BB5ACF45BC90C5E61BE4D79E2F0C1154A66333 0x2B 0xBC 0xCF PUSH11 0x26759463D04772164EEBFE 0xD2 BLOCKHASH JUMPI DUP8 STATICCALL SLT 0xA8 0x23 0xE0 CALLCODE 0xB7 PUSH4 0x1CC41B3B 0xA8 DUP3 DUP12 CALLER 0x21 0xCA DUP2 GT GT STATICCALL PUSH22 0xCD3AA3BB5AD000000000000000000000000000000000 "
		},
		"gasEstimates": {
			"creation": {
				"codeDepositCost": "2829400",
				"executionCost": "infinite",
				"totalCost": "infinite"
			},
			"external": {
				"ROLE_ADMIN()": "284",
				"adminBurnAndAddToStakersInflation(address,uint256)": "infinite",
				"adminUpdateSettings((uint256,uint256,uint256,uint256,uint256,uint256,uint256,uint256))": "infinite",
				"bulkEndStake(uint256[])": "infinite",
				"bulkScrapeStake(uint256[])": "infinite",
				"bulkStartStake((uint256,uint256)[])": "infinite",
				"bulkTransferOwnership(uint256[],address)": "infinite",
				"cachedInterestPerShare(uint256)": "4709",
				"dailySnapshots(uint256)": "8925",
				"endStake(uint256)": "infinite",
				"getCachedInterestPerShareLength()": "2403",
				"getCurrentCachedPerShareDay()": "infinite",
				"getCurrentDaySinceLaunch()": "infinite",
				"getDailySnapshotsLength()": "2425",
				"getInterestById(uint256,uint256)": "infinite",
				"getInterestByStake((address,uint256,uint256,uint256,uint256),uint256)": "infinite",
				"getPenaltyById(uint256,uint256,uint256)": "infinite",
				"getPenaltyByStake((address,uint256,uint256,uint256,uint256),uint256,uint256)": "infinite",
				"getRoleAdmin(bytes32)": "2537",
				"getRoleMember(bytes32,uint256)": "infinite",
				"getRoleMemberCount(bytes32)": "infinite",
				"getSharesCountById(uint256,uint256)": "infinite",
				"getSharesCountByStake((address,uint256,uint256,uint256,uint256),uint256)": "infinite",
				"getStakesLength()": "2359",
				"getTotalTokensStaked()": "infinite",
				"grantRole(bytes32,address)": "infinite",
				"grantRolesBulk((bytes32,address)[])": "infinite",
				"hasRole(bytes32,address)": "2785",
				"launchTimestamp()": "2341",
				"renounceRole(bytes32,address)": "infinite",
				"revokeRole(bytes32,address)": "infinite",
				"scrapeStake(uint256)": "infinite",
				"settings()": "17241",
				"stakes(uint256)": "13213",
				"startStake((uint256,uint256))": "infinite",
				"supportsInterface(bytes4)": "infinite",
				"transferOwnership(uint256,address)": "infinite",
				"updateAllSnapshots()": "infinite",
				"updateSnapshots(uint256)": "infinite"
			},
			"internal": {
				"maxOfTwoUints(uint256,uint256)": "64",
				"minOfTwoUints(uint256,uint256)": "64"
			}
		},
		"methodIdentifiers": {
			"ROLE_ADMIN()": "d391014b",
			"adminBurnAndAddToStakersInflation(address,uint256)": "95f6f5d2",
			"adminUpdateSettings((uint256,uint256,uint256,uint256,uint256,uint256,uint256,uint256))": "0ffed08a",
			"bulkEndStake(uint256[])": "2a486b90",
			"bulkScrapeStake(uint256[])": "5540be7d",
			"bulkStartStake((uint256,uint256)[])": "1f009bdb",
			"bulkTransferOwnership(uint256[],address)": "e59443e6",
			"cachedInterestPerShare(uint256)": "27de406f",
			"dailySnapshots(uint256)": "a2ac13d3",
			"endStake(uint256)": "0cbe28d6",
			"getCachedInterestPerShareLength()": "58962a38",
			"getCurrentCachedPerShareDay()": "c82e3067",
			"getCurrentDaySinceLaunch()": "e99884a3",
			"getDailySnapshotsLength()": "5a49e94d",
			"getInterestById(uint256,uint256)": "388a1a81",
			"getInterestByStake((address,uint256,uint256,uint256,uint256),uint256)": "2871a56b",
			"getPenaltyById(uint256,uint256,uint256)": "82c44854",
			"getPenaltyByStake((address,uint256,uint256,uint256,uint256),uint256,uint256)": "2777acdb",
			"getRoleAdmin(bytes32)": "248a9ca3",
			"getRoleMember(bytes32,uint256)": "9010d07c",
			"getRoleMemberCount(bytes32)": "ca15c873",
			"getSharesCountById(uint256,uint256)": "ea580bf2",
			"getSharesCountByStake((address,uint256,uint256,uint256,uint256),uint256)": "c3978101",
			"getStakesLength()": "4bade67e",
			"getTotalTokensStaked()": "c763e2fc",
			"grantRole(bytes32,address)": "2f2ff15d",
			"grantRolesBulk((bytes32,address)[])": "03ed957f",
			"hasRole(bytes32,address)": "91d14854",
			"launchTimestamp()": "65cf7c9b",
			"renounceRole(bytes32,address)": "36568abe",
			"revokeRole(bytes32,address)": "d547741f",
			"scrapeStake(uint256)": "7ba4bcfb",
			"settings()": "e06174e4",
			"stakes(uint256)": "d5a44f86",
			"startStake((uint256,uint256))": "1e22ddc7",
			"supportsInterface(bytes4)": "01ffc9a7",
			"transferOwnership(uint256,address)": "29507f73",
			"updateAllSnapshots()": "d50116b8",
			"updateSnapshots(uint256)": "ad110a67"
		}
	},
	"abi": [
		{
			"inputs": [],
			"stateMutability": "nonpayable",
			"type": "constructor"
		},
		{
			"anonymous": false,
			"inputs": [
				{
					"indexed": false,
					"internalType": "uint256",
					"name": "sealedDay",
					"type": "uint256"
				},
				{
					"indexed": false,
					"internalType": "uint256",
					"name": "sealedCachedDay",
					"type": "uint256"
				},
				{
					"indexed": false,
					"internalType": "uint256",
					"name": "cachedInterestPerShare",
					"type": "uint256"
				}
			],
			"name": "CachedInterestPerShareSealed",
			"type": "event"
		},
		{
			"anonymous": false,
			"inputs": [
				{
					"indexed": false,
					"internalType": "uint256",
					"name": "sealedDay",
					"type": "uint256"
				},
				{
					"indexed": false,
					"internalType": "uint256",
					"name": "inflationAmount",
					"type": "uint256"
				},
				{
					"indexed": false,
					"internalType": "uint256",
					"name": "totalShares",
					"type": "uint256"
				},
				{
					"indexed": false,
					"internalType": "uint256",
					"name": "sharePrice",
					"type": "uint256"
				},
				{
					"indexed": false,
					"internalType": "uint256",
					"name": "totalStaked",
					"type": "uint256"
				},
				{
					"indexed": false,
					"internalType": "uint256",
					"name": "totalSupply",
					"type": "uint256"
				}
			],
			"name": "DailySnapshotSealed",
			"type": "event"
		},
		{
			"anonymous": false,
			"inputs": [
				{
					"indexed": true,
					"internalType": "bytes32",
					"name": "role",
					"type": "bytes32"
				},
				{
					"indexed": true,
					"internalType": "bytes32",
					"name": "previousAdminRole",
					"type": "bytes32"
				},
				{
					"indexed": true,
					"internalType": "bytes32",
					"name": "newAdminRole",
					"type": "bytes32"
				}
			],
			"name": "RoleAdminChanged",
			"type": "event"
		},
		{
			"anonymous": false,
			"inputs": [
				{
					"indexed": true,
					"internalType": "bytes32",
					"name": "role",
					"type": "bytes32"
				},
				{
					"indexed": true,
					"internalType": "address",
					"name": "account",
					"type": "address"
				},
				{
					"indexed": true,
					"internalType": "address",
					"name": "sender",
					"type": "address"
				}
			],
			"name": "RoleGranted",
			"type": "event"
		},
		{
			"anonymous": false,
			"inputs": [
				{
					"indexed": true,
					"internalType": "bytes32",
					"name": "role",
					"type": "bytes32"
				},
				{
					"indexed": true,
					"internalType": "address",
					"name": "account",
					"type": "address"
				},
				{
					"indexed": true,
					"internalType": "address",
					"name": "sender",
					"type": "address"
				}
			],
			"name": "RoleRevoked",
			"type": "event"
		},
		{
			"anonymous": false,
			"inputs": [
				{
					"components": [
						{
							"internalType": "uint256",
							"name": "MINIMUM_DAYS_FOR_HIGH_PENALTY",
							"type": "uint256"
						},
						{
							"internalType": "uint256",
							"name": "CONTROLLED_APY",
							"type": "uint256"
						},
						{
							"internalType": "uint256",
							"name": "END_STAKE_FROM",
							"type": "uint256"
						},
						{
							"internalType": "uint256",
							"name": "END_STAKE_TO",
							"type": "uint256"
						},
						{
							"internalType": "uint256",
							"name": "MINIMUM_STAKE_DAYS",
							"type": "uint256"
						},
						{
							"internalType": "uint256",
							"name": "MAXIMUM_STAKE_DAYS",
							"type": "uint256"
						},
						{
							"internalType": "uint256",
							"name": "SHARE_MULTIPLIER_NUMERATOR",
							"type": "uint256"
						},
						{
							"internalType": "uint256",
							"name": "SHARE_MULTIPLIER_DENOMINATOR",
							"type": "uint256"
						}
					],
					"indexed": false,
					"internalType": "struct Settings",
					"name": "Settings",
					"type": "tuple"
				}
			],
			"name": "SettingsUpdated",
			"type": "event"
		},
		{
			"anonymous": false,
			"inputs": [
				{
					"indexed": false,
					"internalType": "uint256",
					"name": "stakeId",
					"type": "uint256"
				},
				{
					"indexed": false,
					"internalType": "uint256",
					"name": "endDay",
					"type": "uint256"
				},
				{
					"indexed": false,
					"internalType": "uint256",
					"name": "interest",
					"type": "uint256"
				},
				{
					"indexed": false,
					"internalType": "uint256",
					"name": "penalty",
					"type": "uint256"
				}
			],
			"name": "StakeEnded",
			"type": "event"
		},
		{
			"anonymous": false,
			"inputs": [
				{
					"indexed": false,
					"internalType": "uint256",
					"name": "stakeId",
					"type": "uint256"
				},
				{
					"indexed": false,
					"internalType": "address",
					"name": "newOwner",
					"type": "address"
				}
			],
			"name": "StakeOwnerChanged",
			"type": "event"
		},
		{
			"anonymous": false,
			"inputs": [
				{
					"indexed": false,
					"internalType": "uint256",
					"name": "stakeId",
					"type": "uint256"
				},
				{
					"indexed": false,
					"internalType": "address",
					"name": "owner",
					"type": "address"
				},
				{
					"indexed": false,
					"internalType": "uint256",
					"name": "stakedAmount",
					"type": "uint256"
				},
				{
					"indexed": false,
					"internalType": "uint256",
					"name": "startDay",
					"type": "uint256"
				},
				{
					"indexed": false,
					"internalType": "uint256",
					"name": "lockedForXDays",
					"type": "uint256"
				},
				{
					"indexed": false,
					"internalType": "uint256",
					"name": "sharesCount",
					"type": "uint256"
				}
			],
			"name": "StakeStarted",
			"type": "event"
		},
		{
			"anonymous": false,
			"inputs": [
				{
					"indexed": false,
					"internalType": "uint256",
					"name": "stakeId",
					"type": "uint256"
				},
				{
					"indexed": false,
					"internalType": "uint256",
					"name": "lockedForXDays",
					"type": "uint256"
				},
				{
					"indexed": false,
					"internalType": "uint256",
					"name": "sharesCount",
					"type": "uint256"
				}
			],
			"name": "StakeUpdated",
			"type": "event"
		},
		{
			"inputs": [],
			"name": "ROLE_ADMIN",
			"outputs": [
				{
					"internalType": "bytes32",
					"name": "",
					"type": "bytes32"
				}
			],
			"stateMutability": "view",
			"type": "function"
		},
		{
			"inputs": [
				{
					"internalType": "address",
					"name": "fromAddr",
					"type": "address"
				},
				{
					"internalType": "uint256",
					"name": "amountToBurn",
					"type": "uint256"
				}
			],
			"name": "adminBurnAndAddToStakersInflation",
			"outputs": [],
			"stateMutability": "nonpayable",
			"type": "function"
		},
		{
			"inputs": [
				{
					"components": [
						{
							"internalType": "uint256",
							"name": "MINIMUM_DAYS_FOR_HIGH_PENALTY",
							"type": "uint256"
						},
						{
							"internalType": "uint256",
							"name": "CONTROLLED_APY",
							"type": "uint256"
						},
						{
							"internalType": "uint256",
							"name": "END_STAKE_FROM",
							"type": "uint256"
						},
						{
							"internalType": "uint256",
							"name": "END_STAKE_TO",
							"type": "uint256"
						},
						{
							"internalType": "uint256",
							"name": "MINIMUM_STAKE_DAYS",
							"type": "uint256"
						},
						{
							"internalType": "uint256",
							"name": "MAXIMUM_STAKE_DAYS",
							"type": "uint256"
						},
						{
							"internalType": "uint256",
							"name": "SHARE_MULTIPLIER_NUMERATOR",
							"type": "uint256"
						},
						{
							"internalType": "uint256",
							"name": "SHARE_MULTIPLIER_DENOMINATOR",
							"type": "uint256"
						}
					],
					"internalType": "struct Settings",
					"name": "_settings",
					"type": "tuple"
				}
			],
			"name": "adminUpdateSettings",
			"outputs": [],
			"stateMutability": "nonpayable",
			"type": "function"
		},
		{
			"inputs": [
				{
					"internalType": "uint256[]",
					"name": "stakeIds",
					"type": "uint256[]"
				}
			],
			"name": "bulkEndStake",
			"outputs": [],
			"stateMutability": "nonpayable",
			"type": "function"
		},
		{
			"inputs": [
				{
					"internalType": "uint256[]",
					"name": "stakeIds",
					"type": "uint256[]"
				}
			],
			"name": "bulkScrapeStake",
			"outputs": [],
			"stateMutability": "nonpayable",
			"type": "function"
		},
		{
			"inputs": [
				{
					"components": [
						{
							"internalType": "uint256",
							"name": "stakedAmount",
							"type": "uint256"
						},
						{
							"internalType": "uint256",
							"name": "lockedForXDays",
							"type": "uint256"
						}
					],
					"internalType": "struct StartStake[]",
					"name": "startStakes",
					"type": "tuple[]"
				}
			],
			"name": "bulkStartStake",
			"outputs": [],
			"stateMutability": "nonpayable",
			"type": "function"
		},
		{
			"inputs": [
				{
					"internalType": "uint256[]",
					"name": "stakeIds",
					"type": "uint256[]"
				},
				{
					"internalType": "address",
					"name": "newOwner",
					"type": "address"
				}
			],
			"name": "bulkTransferOwnership",
			"outputs": [],
			"stateMutability": "nonpayable",
			"type": "function"
		},
		{
			"inputs": [
				{
					"internalType": "uint256",
					"name": "",
					"type": "uint256"
				}
			],
			"name": "cachedInterestPerShare",
			"outputs": [
				{
					"internalType": "uint256",
					"name": "",
					"type": "uint256"
				}
			],
			"stateMutability": "view",
			"type": "function"
		},
		{
			"inputs": [
				{
					"internalType": "uint256",
					"name": "",
					"type": "uint256"
				}
			],
			"name": "dailySnapshots",
			"outputs": [
				{
					"internalType": "uint256",
					"name": "inflationAmount",
					"type": "uint256"
				},
				{
					"internalType": "uint256",
					"name": "totalShares",
					"type": "uint256"
				},
				{
					"internalType": "uint256",
					"name": "sharePrice",
					"type": "uint256"
				}
			],
			"stateMutability": "view",
			"type": "function"
		},
		{
			"inputs": [
				{
					"internalType": "uint256",
					"name": "stakeId",
					"type": "uint256"
				}
			],
			"name": "endStake",
			"outputs": [],
			"stateMutability": "nonpayable",
			"type": "function"
		},
		{
			"inputs": [],
			"name": "getCachedInterestPerShareLength",
			"outputs": [
				{
					"internalType": "uint256",
					"name": "",
					"type": "uint256"
				}
			],
			"stateMutability": "view",
			"type": "function"
		},
		{
			"inputs": [],
			"name": "getCurrentCachedPerShareDay",
			"outputs": [
				{
					"internalType": "uint256",
					"name": "",
					"type": "uint256"
				}
			],
			"stateMutability": "view",
			"type": "function"
		},
		{
			"inputs": [],
			"name": "getCurrentDaySinceLaunch",
			"outputs": [
				{
					"internalType": "uint256",
					"name": "",
					"type": "uint256"
				}
			],
			"stateMutability": "view",
			"type": "function"
		},
		{
			"inputs": [],
			"name": "getDailySnapshotsLength",
			"outputs": [
				{
					"internalType": "uint256",
					"name": "",
					"type": "uint256"
				}
			],
			"stateMutability": "view",
			"type": "function"
		},
		{
			"inputs": [
				{
					"internalType": "uint256",
					"name": "stakeId",
					"type": "uint256"
				},
				{
					"internalType": "uint256",
					"name": "givenDay",
					"type": "uint256"
				}
			],
			"name": "getInterestById",
			"outputs": [
				{
					"internalType": "uint256",
					"name": "",
					"type": "uint256"
				}
			],
			"stateMutability": "view",
			"type": "function"
		},
		{
			"inputs": [
				{
					"components": [
						{
							"internalType": "address",
							"name": "owner",
							"type": "address"
						},
						{
							"internalType": "uint256",
							"name": "stakedAmount",
							"type": "uint256"
						},
						{
							"internalType": "uint256",
							"name": "startDay",
							"type": "uint256"
						},
						{
							"internalType": "uint256",
							"name": "lockedForXDays",
							"type": "uint256"
						},
						{
							"internalType": "uint256",
							"name": "endDay",
							"type": "uint256"
						}
					],
					"internalType": "struct Stake",
					"name": "stake",
					"type": "tuple"
				},
				{
					"internalType": "uint256",
					"name": "givenDay",
					"type": "uint256"
				}
			],
			"name": "getInterestByStake",
			"outputs": [
				{
					"internalType": "uint256",
					"name": "",
					"type": "uint256"
				}
			],
			"stateMutability": "view",
			"type": "function"
		},
		{
			"inputs": [
				{
					"internalType": "uint256",
					"name": "stakeId",
					"type": "uint256"
				},
				{
					"internalType": "uint256",
					"name": "givenDay",
					"type": "uint256"
				},
				{
					"internalType": "uint256",
					"name": "interest",
					"type": "uint256"
				}
			],
			"name": "getPenaltyById",
			"outputs": [
				{
					"internalType": "uint256",
					"name": "",
					"type": "uint256"
				}
			],
			"stateMutability": "view",
			"type": "function"
		},
		{
			"inputs": [
				{
					"components": [
						{
							"internalType": "address",
							"name": "owner",
							"type": "address"
						},
						{
							"internalType": "uint256",
							"name": "stakedAmount",
							"type": "uint256"
						},
						{
							"internalType": "uint256",
							"name": "startDay",
							"type": "uint256"
						},
						{
							"internalType": "uint256",
							"name": "lockedForXDays",
							"type": "uint256"
						},
						{
							"internalType": "uint256",
							"name": "endDay",
							"type": "uint256"
						}
					],
					"internalType": "struct Stake",
					"name": "stake",
					"type": "tuple"
				},
				{
					"internalType": "uint256",
					"name": "givenDay",
					"type": "uint256"
				},
				{
					"internalType": "uint256",
					"name": "interest",
					"type": "uint256"
				}
			],
			"name": "getPenaltyByStake",
			"outputs": [
				{
					"internalType": "uint256",
					"name": "",
					"type": "uint256"
				}
			],
			"stateMutability": "view",
			"type": "function"
		},
		{
			"inputs": [
				{
					"internalType": "bytes32",
					"name": "role",
					"type": "bytes32"
				}
			],
			"name": "getRoleAdmin",
			"outputs": [
				{
					"internalType": "bytes32",
					"name": "",
					"type": "bytes32"
				}
			],
			"stateMutability": "view",
			"type": "function"
		},
		{
			"inputs": [
				{
					"internalType": "bytes32",
					"name": "role",
					"type": "bytes32"
				},
				{
					"internalType": "uint256",
					"name": "index",
					"type": "uint256"
				}
			],
			"name": "getRoleMember",
			"outputs": [
				{
					"internalType": "address",
					"name": "",
					"type": "address"
				}
			],
			"stateMutability": "view",
			"type": "function"
		},
		{
			"inputs": [
				{
					"internalType": "bytes32",
					"name": "role",
					"type": "bytes32"
				}
			],
			"name": "getRoleMemberCount",
			"outputs": [
				{
					"internalType": "uint256",
					"name": "",
					"type": "uint256"
				}
			],
			"stateMutability": "view",
			"type": "function"
		},
		{
			"inputs": [
				{
					"internalType": "uint256",
					"name": "stakeId",
					"type": "uint256"
				},
				{
					"internalType": "uint256",
					"name": "givenDay",
					"type": "uint256"
				}
			],
			"name": "getSharesCountById",
			"outputs": [
				{
					"internalType": "uint256",
					"name": "",
					"type": "uint256"
				}
			],
			"stateMutability": "view",
			"type": "function"
		},
		{
			"inputs": [
				{
					"components": [
						{
							"internalType": "address",
							"name": "owner",
							"type": "address"
						},
						{
							"internalType": "uint256",
							"name": "stakedAmount",
							"type": "uint256"
						},
						{
							"internalType": "uint256",
							"name": "startDay",
							"type": "uint256"
						},
						{
							"internalType": "uint256",
							"name": "lockedForXDays",
							"type": "uint256"
						},
						{
							"internalType": "uint256",
							"name": "endDay",
							"type": "uint256"
						}
					],
					"internalType": "struct Stake",
					"name": "stake",
					"type": "tuple"
				},
				{
					"internalType": "uint256",
					"name": "givenDay",
					"type": "uint256"
				}
			],
			"name": "getSharesCountByStake",
			"outputs": [
				{
					"internalType": "uint256",
					"name": "",
					"type": "uint256"
				}
			],
			"stateMutability": "view",
			"type": "function"
		},
		{
			"inputs": [],
			"name": "getStakesLength",
			"outputs": [
				{
					"internalType": "uint256",
					"name": "",
					"type": "uint256"
				}
			],
			"stateMutability": "view",
			"type": "function"
		},
		{
			"inputs": [],
			"name": "getTotalTokensStaked",
			"outputs": [
				{
					"internalType": "uint256",
					"name": "",
					"type": "uint256"
				}
			],
			"stateMutability": "view",
			"type": "function"
		},
		{
			"inputs": [
				{
					"internalType": "bytes32",
					"name": "role",
					"type": "bytes32"
				},
				{
					"internalType": "address",
					"name": "account",
					"type": "address"
				}
			],
			"name": "grantRole",
			"outputs": [],
			"stateMutability": "nonpayable",
			"type": "function"
		},
		{
			"inputs": [
				{
					"components": [
						{
							"internalType": "bytes32",
							"name": "role",
							"type": "bytes32"
						},
						{
							"internalType": "address",
							"name": "addr",
							"type": "address"
						}
					],
					"internalType": "struct RoleAccess[]",
					"name": "roles",
					"type": "tuple[]"
				}
			],
			"name": "grantRolesBulk",
			"outputs": [],
			"stateMutability": "nonpayable",
			"type": "function"
		},
		{
			"inputs": [
				{
					"internalType": "bytes32",
					"name": "role",
					"type": "bytes32"
				},
				{
					"internalType": "address",
					"name": "account",
					"type": "address"
				}
			],
			"name": "hasRole",
			"outputs": [
				{
					"internalType": "bool",
					"name": "",
					"type": "bool"
				}
			],
			"stateMutability": "view",
			"type": "function"
		},
		{
			"inputs": [],
			"name": "launchTimestamp",
			"outputs": [
				{
					"internalType": "uint256",
					"name": "",
					"type": "uint256"
				}
			],
			"stateMutability": "view",
			"type": "function"
		},
		{
			"inputs": [
				{
					"internalType": "bytes32",
					"name": "role",
					"type": "bytes32"
				},
				{
					"internalType": "address",
					"name": "account",
					"type": "address"
				}
			],
			"name": "renounceRole",
			"outputs": [],
			"stateMutability": "nonpayable",
			"type": "function"
		},
		{
			"inputs": [
				{
					"internalType": "bytes32",
					"name": "role",
					"type": "bytes32"
				},
				{
					"internalType": "address",
					"name": "account",
					"type": "address"
				}
			],
			"name": "revokeRole",
			"outputs": [],
			"stateMutability": "nonpayable",
			"type": "function"
		},
		{
			"inputs": [
				{
					"internalType": "uint256",
					"name": "stakeId",
					"type": "uint256"
				}
			],
			"name": "scrapeStake",
			"outputs": [],
			"stateMutability": "nonpayable",
			"type": "function"
		},
		{
			"inputs": [],
			"name": "settings",
			"outputs": [
				{
					"internalType": "uint256",
					"name": "MINIMUM_DAYS_FOR_HIGH_PENALTY",
					"type": "uint256"
				},
				{
					"internalType": "uint256",
					"name": "CONTROLLED_APY",
					"type": "uint256"
				},
				{
					"internalType": "uint256",
					"name": "END_STAKE_FROM",
					"type": "uint256"
				},
				{
					"internalType": "uint256",
					"name": "END_STAKE_TO",
					"type": "uint256"
				},
				{
					"internalType": "uint256",
					"name": "MINIMUM_STAKE_DAYS",
					"type": "uint256"
				},
				{
					"internalType": "uint256",
					"name": "MAXIMUM_STAKE_DAYS",
					"type": "uint256"
				},
				{
					"internalType": "uint256",
					"name": "SHARE_MULTIPLIER_NUMERATOR",
					"type": "uint256"
				},
				{
					"internalType": "uint256",
					"name": "SHARE_MULTIPLIER_DENOMINATOR",
					"type": "uint256"
				}
			],
			"stateMutability": "view",
			"type": "function"
		},
		{
			"inputs": [
				{
					"internalType": "uint256",
					"name": "",
					"type": "uint256"
				}
			],
			"name": "stakes",
			"outputs": [
				{
					"internalType": "address",
					"name": "owner",
					"type": "address"
				},
				{
					"internalType": "uint256",
					"name": "stakedAmount",
					"type": "uint256"
				},
				{
					"internalType": "uint256",
					"name": "startDay",
					"type": "uint256"
				},
				{
					"internalType": "uint256",
					"name": "lockedForXDays",
					"type": "uint256"
				},
				{
					"internalType": "uint256",
					"name": "endDay",
					"type": "uint256"
				}
			],
			"stateMutability": "view",
			"type": "function"
		},
		{
			"inputs": [
				{
					"components": [
						{
							"internalType": "uint256",
							"name": "stakedAmount",
							"type": "uint256"
						},
						{
							"internalType": "uint256",
							"name": "lockedForXDays",
							"type": "uint256"
						}
					],
					"internalType": "struct StartStake",
					"name": "_startStake",
					"type": "tuple"
				}
			],
			"name": "startStake",
			"outputs": [
				{
					"internalType": "uint256",
					"name": "stakeId",
					"type": "uint256"
				}
			],
			"stateMutability": "nonpayable",
			"type": "function"
		},
		{
			"inputs": [
				{
					"internalType": "bytes4",
					"name": "interfaceId",
					"type": "bytes4"
				}
			],
			"name": "supportsInterface",
			"outputs": [
				{
					"internalType": "bool",
					"name": "",
					"type": "bool"
				}
			],
			"stateMutability": "view",
			"type": "function"
		},
		{
			"inputs": [
				{
					"internalType": "uint256",
					"name": "stakeId",
					"type": "uint256"
				},
				{
					"internalType": "address",
					"name": "newOwner",
					"type": "address"
				}
			],
			"name": "transferOwnership",
			"outputs": [],
			"stateMutability": "nonpayable",
			"type": "function"
		},
		{
			"inputs": [],
			"name": "updateAllSnapshots",
			"outputs": [],
			"stateMutability": "nonpayable",
			"type": "function"
		},
		{
			"inputs": [
				{
					"internalType": "uint256",
					"name": "givenDay",
					"type": "uint256"
				}
			],
			"name": "updateSnapshots",
			"outputs": [],
			"stateMutability": "nonpayable",
			"type": "function"
		}
	]
}