{
	"data": {
		"bytecode": {
			"linkReferences": {},
			"object": "6080604052600380546001600160a01b031916737a7492a8e888ca3fe8e31cb2e34872fe0ce5309f1790553480156200003757600080fd5b5062000045607842620003d1565b6004819055506040518060c0016040528060011515815260200160008152602001600360009054906101000a90046001600160a01b03166001600160a01b03166318160ddd6040518163ffffffff1660e01b815260040160206040518083038186803b158015620000b557600080fd5b505afa158015620000ca573d6000803e3d6000fd5b505050506040513d601f19601f82011682018060405250810190620000f09190620003b7565b8152600060208083018290526040808401839052620f42406060948501528280526001825284517fa6eef7e35abe7026729641147f7915573c7e97b47efa546f5f6e3230263bcb49805460ff1916911515919091179055848201517fa6eef7e35abe7026729641147f7915573c7e97b47efa546f5f6e3230263bcb4a55848101517fa6eef7e35abe7026729641147f7915573c7e97b47efa546f5f6e3230263bcb4b55928401517fa6eef7e35abe7026729641147f7915573c7e97b47efa546f5f6e3230263bcb4c5560808401517fa6eef7e35abe7026729641147f7915573c7e97b47efa546f5f6e3230263bcb4d5560a0909301517fa6eef7e35abe7026729641147f7915573c7e97b47efa546f5f6e3230263bcb4e55815160c0810183528181528084019190915260035482516318160ddd60e01b815283519294938501936001600160a01b03909216926318160ddd92600480840193919291829003018186803b1580156200026157600080fd5b505afa15801562000276573d6000803e3d6000fd5b505050506040513d601f19601f820116820180604052508101906200029c9190620003b7565b8152600060208083018290526040808401839052620f424060609485015260019283905291815283517fcc69885fda6bcc1a4ace058b4a62bf5e179ea78fd58a1ccd71c22cc9b688792f805460ff19169115159190911790558301517fcc69885fda6bcc1a4ace058b4a62bf5e179ea78fd58a1ccd71c22cc9b6887930558201517fcc69885fda6bcc1a4ace058b4a62bf5e179ea78fd58a1ccd71c22cc9b6887931558101517fcc69885fda6bcc1a4ace058b4a62bf5e179ea78fd58a1ccd71c22cc9b68879325560808101517fcc69885fda6bcc1a4ace058b4a62bf5e179ea78fd58a1ccd71c22cc9b68879335560a001517fcc69885fda6bcc1a4ace058b4a62bf5e179ea78fd58a1ccd71c22cc9b688793455620003f7565b600060208284031215620003ca57600080fd5b5051919050565b600082821015620003f257634e487b7160e01b600052601160045260246000fd5b500390565b6112a480620004076000396000f3fe608060405234801561001057600080fd5b50600436106100995760003560e01c80630cbe28d61461009e578063128bfcae146100b35780633e6968b6146100c65780633f50cf87146100e157806343129f61146100ea578063774ec185146100fd578063ad110a6714610110578063c8b6cbf714610123578063cf351fae14610156578063d50116b814610169578063d6565a2d14610171575b600080fd5b6100b16100ac36600461114a565b6101ea565b005b6100b16100c136600461117c565b6105e7565b6100ce6108d1565b6040519081526020015b60405180910390f35b6100ce60005481565b6100ce6100f8366004611117565b6108f2565b6100ce61010b366004611117565b610a74565b6100b161011e36600461114a565b610b91565b6101366101313660046110ed565b610eab565b6040805194855260208501939093529183015260608201526080016100d8565b6100ce610164366004611117565b610ef1565b6100b16110c4565b6101bb61017f36600461114a565b600160208190526000918252604090912080549181015460028201546003830154600484015460059094015460ff909516949293919290919086565b6040805196151587526020870195909552938501929092526060840152608083015260a082015260c0016100d8565b33600090815260026020526040902054811061025d5760405162461bcd60e51b815260206004820152602760248201527f53533a205374616b65506f736974696f6e2065786365656473207374616b6572604482015266040d8cadccee8d60cb1b60648201526084015b60405180910390fd5b33600090815260026020526040812080548390811061027e5761027e611258565b906000526020600020906004020160030154116102db5760405162461bcd60e51b815260206004820152601b60248201527a14d4ce8814dd185ad9481dd85cc8185b1c9958591e48195b991959602a1b6044820152606401610254565b60006102e56108d1565b336000908152600260205260409020805491925082918490811061030b5761030b611258565b9060005260206000209060040201600301819055506103286110c4565b6000610335338484610ef1565b90506000610344338585610a74565b336000908152600260205260408120805492935090918690811061036a5761036a611258565b600091825260209182902060408051608081018252600493840290920180548084526001820154958401959095526002810154838301526003908101546060840152549051630bb9ff5d60e01b81529194506001600160a01b031692630bb9ff5d926103d9923392910161119e565b600060405180830381600087803b1580156103f357600080fd5b505af1158015610407573d6000803e3d6000fd5b5050825191505083156104be578151610421908590611210565b6003546040516318a8ad8760e01b81529192506001600160a01b0316906318a8ad8790610454903390889060040161119e565b600060405180830381600087803b15801561046e57600080fd5b505af1158015610482573d6000803e3d6000fd5b50505050828461049291906111b7565b600086815260016020819052604082200180549091906104b39084906111b7565b909155506105379050565b82156105375781516104d19084906111b7565b600354604051630bb9ff5d60e01b81529192506001600160a01b031690630bb9ff5d90610504903390879060040161119e565b600060405180830381600087803b15801561051e57600080fd5b505af1158015610532573d6000803e3d6000fd5b505050505b8151600090610549620f4240846111f1565b61055391906111cf565b6000878152600160205260409020600501549091508111156105845760008681526001602052604090206005018190555b610590338860006108f2565b600087815260016020526040812060030180549091906105b1908490611210565b90915550508251600087815260016020526040812060040180549091906105d9908490611210565b909155505050505050505050565b6000821161064b5760405162461bcd60e51b815260206004820152602b60248201527f53533a205374616b6564416d6f756e742068617320746f206265206c6172676560448201526a72207468616e207a65726f60a81b6064820152608401610254565b6003546040516370a0823160e01b815233600482015283916001600160a01b0316906370a082319060240160206040518083038186803b15801561068e57600080fd5b505afa1580156106a2573d6000803e3d6000fd5b505050506040513d601f19601f820116820180604052508101906106c69190611163565b10156107145760405162461bcd60e51b815260206004820181905260248201527f53533a205374616b6564416d6f756e7420657863656564732062616c616e63656044820152606401610254565b8060001080156107265750620186a081105b61077d5760405162461bcd60e51b815260206004820152602260248201527f53533a2057726f6e6720616d6f756e74206f6620646179732073706563696669604482015261195960f21b6064820152608401610254565b6107856110c4565b6003546040516318a8ad8760e01b81526001600160a01b03909116906318a8ad87906107b7903390869060040161119e565b600060405180830381600087803b1580156107d157600080fd5b505af11580156107e5573d6000803e3d6000fd5b5050505060006107f36108d1565b33600081815260026020818152604080842081516080810183528a81528084018881529281018a815260608201878152835460018181018655858a52878a2094516004909202909401908155945185840155905184870155516003909301929092558585529290915290549394509092610878929161087191611210565b60006108f2565b9050806001600084815260200190815260200160002060030160008282546108a091906111b7565b9091555050600082815260016020526040812060040180548692906108c69084906111b7565b909155505050505050565b6000603c600454426108e39190611210565b6108ed91906111cf565b905090565b6001600160a01b038316600090815260026020526040812080548291908590811061091f5761091f611258565b90600052602060002090600402016040518060800160405290816000820154815260200160018201548152602001600282015481526020016003820154815250509050600060016000600184602001516109799190611210565b815260208082019290925260409081016000908120825160c081018452815460ff1615158152600182015494810194909452600281015492840192909252600382015460608401526004820154608084015260059091015460a083015290915084156109f35760208301516109ee9086611210565b6109f9565b82604001515b905060008260a00151611c84610a0f91906111f1565b8451620f424090610a218560056111f1565b610a2b91906111f1565b610a3591906111f1565b610a3f91906111cf565b60a08401518551610a5490620f4240906111f1565b610a5e91906111cf565b610a6891906111b7565b98975050505050505050565b6001600160a01b038316600090815260026020526040812080548291829186908110610aa257610aa2611258565b906000526020600020906004020160405180608001604052908160008201548152602001600182015481526020016002820154815260200160038201548152505090506000610af28787876108f2565b905081604001518260200151610b0891906111b7565b8511610b145784610b28565b81604001518260200151610b2891906111b7565b60208301519095505b85811015610b855760008181526001602081905260409091206003810154910154610b5d9084906111f1565b610b6791906111cf565b610b7190856111b7565b935080610b7d81611227565b915050610b31565b50919695505050505050565b60008054610ba09060016111b7565b9050805b82811015610e5e5760008181526001602052604090205460ff1615610bc857610e4c565b60008181526001602052604081206004810154600290910154606491610bed916111b7565b610bf890600a6111f1565b610c0291906111cf565b60008381526001602081905260409091200154610c1f91906111b7565b90506040518060c0016040528060011515815260200182815260200160016000858152602001908152602001600020600201548152602001600160008581526020019081526020016000206003015481526020016001600085815260200190815260200160002060040154815260200160016000858152602001908152602001600020600501548152506001600084815260200190815260200160002060008201518160000160006101000a81548160ff0219169083151502179055506020820151816001015560408201518160020155606082015181600301556080820151816004015560a082015181600501559050506040518060c0016040528060001515815260200160008152602001600360009054906101000a90046001600160a01b03166001600160a01b03166318160ddd6040518163ffffffff1660e01b815260040160206040518083038186803b158015610d7a57600080fd5b505afa158015610d8e573d6000803e3d6000fd5b505050506040513d601f19601f82011682018060405250810190610db29190611163565b815260008481526001602081815260408084206003810154838701526004810154918601919091528784529082905260050154606090930192909252610df885836111b7565b815260208082019290925260409081016000208351815460ff19169015151781559183015160018301558201516002820155606082015160038201556080820151600482015560a090910151600590910155505b80610e5681611227565b915050610ba4565b50600082118015610e8d575060016000610e788285611210565b815260208101919091526040016000205460ff165b610e9957600054610ea4565b610ea4600183611210565b6000555050565b60026020528160005260406000208181548110610ec757600080fd5b60009182526020909120600490910201805460018201546002830154600390930154919450925084565b6001600160a01b038316600090815260026020526040812080548291829186908110610f1f57610f1f611258565b60009182526020808320604080516080810182526004909402909101805484526001810154928401839052600281015491840191909152600301546060830152909250610f6c9086611210565b905080610f7c57600092506110b9565b8060028360400151610f8e91906111cf565b108015610f9f575081604001518111155b15611002576040820151610fb49060646111f1565b82516040840151610fc7906002906111cf565b610fd19084611210565b610fdc90600a6111f1565b610fe691906111f1565b610ff19060026111f1565b610ffb91906111cf565b92506110b9565b6002826040015161101391906111cf565b81116110365760408201516110299060646111f1565b8251610fdc83605a6111f1565b808260400151600e61104891906111b7565b1080156110705750604082015161106090600e6111b7565b61106c9061016d6111b7565b8111155b1561109157600e8260400151826110879190611210565b610ffb9190611210565b60408201516110a190600e6111b7565b6110ad9061016d6111b7565b8111156110b957815192505b509095945050505050565b6110cf61011e6108d1565b565b80356001600160a01b03811681146110e857600080fd5b919050565b6000806040838503121561110057600080fd5b611109836110d1565b946020939093013593505050565b60008060006060848603121561112c57600080fd5b611135846110d1565b95602085013595506040909401359392505050565b60006020828403121561115c57600080fd5b5035919050565b60006020828403121561117557600080fd5b5051919050565b6000806040838503121561118f57600080fd5b50508035926020909101359150565b6001600160a01b03929092168252602082015260400190565b600082198211156111ca576111ca611242565b500190565b6000826111ec57634e487b7160e01b600052601260045260246000fd5b500490565b600081600019048311821515161561120b5761120b611242565b500290565b60008282101561122257611222611242565b500390565b600060001982141561123b5761123b611242565b5060010190565b634e487b7160e01b600052601160045260246000fd5b634e487b7160e01b600052603260045260246000fdfea2646970667358221220e4628dc6e65546613e11b28c602d22b76f539096be516178f94f8a2c7380c9e964736f6c63430008070033",
			"opcodes": "PUSH1 0x80 PUSH1 0x40 MSTORE PUSH1 0x3 DUP1 SLOAD PUSH1 0x1 PUSH1 0x1 PUSH1 0xA0 SHL SUB NOT AND PUSH20 0x7A7492A8E888CA3FE8E31CB2E34872FE0CE5309F OR SWAP1 SSTORE CALLVALUE DUP1 ISZERO PUSH3 0x37 JUMPI PUSH1 0x0 DUP1 REVERT JUMPDEST POP PUSH3 0x45 PUSH1 0x78 TIMESTAMP PUSH3 0x3D1 JUMP JUMPDEST PUSH1 0x4 DUP2 SWAP1 SSTORE POP PUSH1 0x40 MLOAD DUP1 PUSH1 0xC0 ADD PUSH1 0x40 MSTORE DUP1 PUSH1 0x1 ISZERO ISZERO DUP2 MSTORE PUSH1 0x20 ADD PUSH1 0x0 DUP2 MSTORE PUSH1 0x20 ADD PUSH1 0x3 PUSH1 0x0 SWAP1 SLOAD SWAP1 PUSH2 0x100 EXP SWAP1 DIV PUSH1 0x1 PUSH1 0x1 PUSH1 0xA0 SHL SUB AND PUSH1 0x1 PUSH1 0x1 PUSH1 0xA0 SHL SUB AND PUSH4 0x18160DDD PUSH1 0x40 MLOAD DUP2 PUSH4 0xFFFFFFFF AND PUSH1 0xE0 SHL DUP2 MSTORE PUSH1 0x4 ADD PUSH1 0x20 PUSH1 0x40 MLOAD DUP1 DUP4 SUB DUP2 DUP7 DUP1 EXTCODESIZE ISZERO DUP1 ISZERO PUSH3 0xB5 JUMPI PUSH1 0x0 DUP1 REVERT JUMPDEST POP GAS STATICCALL ISZERO DUP1 ISZERO PUSH3 0xCA JUMPI RETURNDATASIZE PUSH1 0x0 DUP1 RETURNDATACOPY RETURNDATASIZE PUSH1 0x0 REVERT JUMPDEST POP POP POP POP PUSH1 0x40 MLOAD RETURNDATASIZE PUSH1 0x1F NOT PUSH1 0x1F DUP3 ADD AND DUP3 ADD DUP1 PUSH1 0x40 MSTORE POP DUP2 ADD SWAP1 PUSH3 0xF0 SWAP2 SWAP1 PUSH3 0x3B7 JUMP JUMPDEST DUP2 MSTORE PUSH1 0x0 PUSH1 0x20 DUP1 DUP4 ADD DUP3 SWAP1 MSTORE PUSH1 0x40 DUP1 DUP5 ADD DUP4 SWAP1 MSTORE PUSH3 0xF4240 PUSH1 0x60 SWAP5 DUP6 ADD MSTORE DUP3 DUP1 MSTORE PUSH1 0x1 DUP3 MSTORE DUP5 MLOAD PUSH32 0xA6EEF7E35ABE7026729641147F7915573C7E97B47EFA546F5F6E3230263BCB49 DUP1 SLOAD PUSH1 0xFF NOT AND SWAP2 ISZERO ISZERO SWAP2 SWAP1 SWAP2 OR SWAP1 SSTORE DUP5 DUP3 ADD MLOAD PUSH32 0xA6EEF7E35ABE7026729641147F7915573C7E97B47EFA546F5F6E3230263BCB4A SSTORE DUP5 DUP2 ADD MLOAD PUSH32 0xA6EEF7E35ABE7026729641147F7915573C7E97B47EFA546F5F6E3230263BCB4B SSTORE SWAP3 DUP5 ADD MLOAD PUSH32 0xA6EEF7E35ABE7026729641147F7915573C7E97B47EFA546F5F6E3230263BCB4C SSTORE PUSH1 0x80 DUP5 ADD MLOAD PUSH32 0xA6EEF7E35ABE7026729641147F7915573C7E97B47EFA546F5F6E3230263BCB4D SSTORE PUSH1 0xA0 SWAP1 SWAP4 ADD MLOAD PUSH32 0xA6EEF7E35ABE7026729641147F7915573C7E97B47EFA546F5F6E3230263BCB4E SSTORE DUP2 MLOAD PUSH1 0xC0 DUP2 ADD DUP4 MSTORE DUP2 DUP2 MSTORE DUP1 DUP5 ADD SWAP2 SWAP1 SWAP2 MSTORE PUSH1 0x3 SLOAD DUP3 MLOAD PUSH4 0x18160DDD PUSH1 0xE0 SHL DUP2 MSTORE DUP4 MLOAD SWAP3 SWAP5 SWAP4 DUP6 ADD SWAP4 PUSH1 0x1 PUSH1 0x1 PUSH1 0xA0 SHL SUB SWAP1 SWAP3 AND SWAP3 PUSH4 0x18160DDD SWAP3 PUSH1 0x4 DUP1 DUP5 ADD SWAP4 SWAP2 SWAP3 SWAP2 DUP3 SWAP1 SUB ADD DUP2 DUP7 DUP1 EXTCODESIZE ISZERO DUP1 ISZERO PUSH3 0x261 JUMPI PUSH1 0x0 DUP1 REVERT JUMPDEST POP GAS STATICCALL ISZERO DUP1 ISZERO PUSH3 0x276 JUMPI RETURNDATASIZE PUSH1 0x0 DUP1 RETURNDATACOPY RETURNDATASIZE PUSH1 0x0 REVERT JUMPDEST POP POP POP POP PUSH1 0x40 MLOAD RETURNDATASIZE PUSH1 0x1F NOT PUSH1 0x1F DUP3 ADD AND DUP3 ADD DUP1 PUSH1 0x40 MSTORE POP DUP2 ADD SWAP1 PUSH3 0x29C SWAP2 SWAP1 PUSH3 0x3B7 JUMP JUMPDEST DUP2 MSTORE PUSH1 0x0 PUSH1 0x20 DUP1 DUP4 ADD DUP3 SWAP1 MSTORE PUSH1 0x40 DUP1 DUP5 ADD DUP4 SWAP1 MSTORE PUSH3 0xF4240 PUSH1 0x60 SWAP5 DUP6 ADD MSTORE PUSH1 0x1 SWAP3 DUP4 SWAP1 MSTORE SWAP2 DUP2 MSTORE DUP4 MLOAD PUSH32 0xCC69885FDA6BCC1A4ACE058B4A62BF5E179EA78FD58A1CCD71C22CC9B688792F DUP1 SLOAD PUSH1 0xFF NOT AND SWAP2 ISZERO ISZERO SWAP2 SWAP1 SWAP2 OR SWAP1 SSTORE DUP4 ADD MLOAD PUSH32 0xCC69885FDA6BCC1A4ACE058B4A62BF5E179EA78FD58A1CCD71C22CC9B6887930 SSTORE DUP3 ADD MLOAD PUSH32 0xCC69885FDA6BCC1A4ACE058B4A62BF5E179EA78FD58A1CCD71C22CC9B6887931 SSTORE DUP2 ADD MLOAD PUSH32 0xCC69885FDA6BCC1A4ACE058B4A62BF5E179EA78FD58A1CCD71C22CC9B6887932 SSTORE PUSH1 0x80 DUP2 ADD MLOAD PUSH32 0xCC69885FDA6BCC1A4ACE058B4A62BF5E179EA78FD58A1CCD71C22CC9B6887933 SSTORE PUSH1 0xA0 ADD MLOAD PUSH32 0xCC69885FDA6BCC1A4ACE058B4A62BF5E179EA78FD58A1CCD71C22CC9B6887934 SSTORE PUSH3 0x3F7 JUMP JUMPDEST PUSH1 0x0 PUSH1 0x20 DUP3 DUP5 SUB SLT ISZERO PUSH3 0x3CA JUMPI PUSH1 0x0 DUP1 REVERT JUMPDEST POP MLOAD SWAP2 SWAP1 POP JUMP JUMPDEST PUSH1 0x0 DUP3 DUP3 LT ISZERO PUSH3 0x3F2 JUMPI PUSH4 0x4E487B71 PUSH1 0xE0 SHL PUSH1 0x0 MSTORE PUSH1 0x11 PUSH1 0x4 MSTORE PUSH1 0x24 PUSH1 0x0 REVERT JUMPDEST POP SUB SWAP1 JUMP JUMPDEST PUSH2 0x12A4 DUP1 PUSH3 0x407 PUSH1 0x0 CODECOPY PUSH1 0x0 RETURN INVALID PUSH1 0x80 PUSH1 0x40 MSTORE CALLVALUE DUP1 ISZERO PUSH2 0x10 JUMPI PUSH1 0x0 DUP1 REVERT JUMPDEST POP PUSH1 0x4 CALLDATASIZE LT PUSH2 0x99 JUMPI PUSH1 0x0 CALLDATALOAD PUSH1 0xE0 SHR DUP1 PUSH4 0xCBE28D6 EQ PUSH2 0x9E JUMPI DUP1 PUSH4 0x128BFCAE EQ PUSH2 0xB3 JUMPI DUP1 PUSH4 0x3E6968B6 EQ PUSH2 0xC6 JUMPI DUP1 PUSH4 0x3F50CF87 EQ PUSH2 0xE1 JUMPI DUP1 PUSH4 0x43129F61 EQ PUSH2 0xEA JUMPI DUP1 PUSH4 0x774EC185 EQ PUSH2 0xFD JUMPI DUP1 PUSH4 0xAD110A67 EQ PUSH2 0x110 JUMPI DUP1 PUSH4 0xC8B6CBF7 EQ PUSH2 0x123 JUMPI DUP1 PUSH4 0xCF351FAE EQ PUSH2 0x156 JUMPI DUP1 PUSH4 0xD50116B8 EQ PUSH2 0x169 JUMPI DUP1 PUSH4 0xD6565A2D EQ PUSH2 0x171 JUMPI JUMPDEST PUSH1 0x0 DUP1 REVERT JUMPDEST PUSH2 0xB1 PUSH2 0xAC CALLDATASIZE PUSH1 0x4 PUSH2 0x114A JUMP JUMPDEST PUSH2 0x1EA JUMP JUMPDEST STOP JUMPDEST PUSH2 0xB1 PUSH2 0xC1 CALLDATASIZE PUSH1 0x4 PUSH2 0x117C JUMP JUMPDEST PUSH2 0x5E7 JUMP JUMPDEST PUSH2 0xCE PUSH2 0x8D1 JUMP JUMPDEST PUSH1 0x40 MLOAD SWAP1 DUP2 MSTORE PUSH1 0x20 ADD JUMPDEST PUSH1 0x40 MLOAD DUP1 SWAP2 SUB SWAP1 RETURN JUMPDEST PUSH2 0xCE PUSH1 0x0 SLOAD DUP2 JUMP JUMPDEST PUSH2 0xCE PUSH2 0xF8 CALLDATASIZE PUSH1 0x4 PUSH2 0x1117 JUMP JUMPDEST PUSH2 0x8F2 JUMP JUMPDEST PUSH2 0xCE PUSH2 0x10B CALLDATASIZE PUSH1 0x4 PUSH2 0x1117 JUMP JUMPDEST PUSH2 0xA74 JUMP JUMPDEST PUSH2 0xB1 PUSH2 0x11E CALLDATASIZE PUSH1 0x4 PUSH2 0x114A JUMP JUMPDEST PUSH2 0xB91 JUMP JUMPDEST PUSH2 0x136 PUSH2 0x131 CALLDATASIZE PUSH1 0x4 PUSH2 0x10ED JUMP JUMPDEST PUSH2 0xEAB JUMP JUMPDEST PUSH1 0x40 DUP1 MLOAD SWAP5 DUP6 MSTORE PUSH1 0x20 DUP6 ADD SWAP4 SWAP1 SWAP4 MSTORE SWAP2 DUP4 ADD MSTORE PUSH1 0x60 DUP3 ADD MSTORE PUSH1 0x80 ADD PUSH2 0xD8 JUMP JUMPDEST PUSH2 0xCE PUSH2 0x164 CALLDATASIZE PUSH1 0x4 PUSH2 0x1117 JUMP JUMPDEST PUSH2 0xEF1 JUMP JUMPDEST PUSH2 0xB1 PUSH2 0x10C4 JUMP JUMPDEST PUSH2 0x1BB PUSH2 0x17F CALLDATASIZE PUSH1 0x4 PUSH2 0x114A JUMP JUMPDEST PUSH1 0x1 PUSH1 0x20 DUP2 SWAP1 MSTORE PUSH1 0x0 SWAP2 DUP3 MSTORE PUSH1 0x40 SWAP1 SWAP2 KECCAK256 DUP1 SLOAD SWAP2 DUP2 ADD SLOAD PUSH1 0x2 DUP3 ADD SLOAD PUSH1 0x3 DUP4 ADD SLOAD PUSH1 0x4 DUP5 ADD SLOAD PUSH1 0x5 SWAP1 SWAP5 ADD SLOAD PUSH1 0xFF SWAP1 SWAP6 AND SWAP5 SWAP3 SWAP4 SWAP2 SWAP3 SWAP1 SWAP2 SWAP1 DUP7 JUMP JUMPDEST PUSH1 0x40 DUP1 MLOAD SWAP7 ISZERO ISZERO DUP8 MSTORE PUSH1 0x20 DUP8 ADD SWAP6 SWAP1 SWAP6 MSTORE SWAP4 DUP6 ADD SWAP3 SWAP1 SWAP3 MSTORE PUSH1 0x60 DUP5 ADD MSTORE PUSH1 0x80 DUP4 ADD MSTORE PUSH1 0xA0 DUP3 ADD MSTORE PUSH1 0xC0 ADD PUSH2 0xD8 JUMP JUMPDEST CALLER PUSH1 0x0 SWAP1 DUP2 MSTORE PUSH1 0x2 PUSH1 0x20 MSTORE PUSH1 0x40 SWAP1 KECCAK256 SLOAD DUP2 LT PUSH2 0x25D JUMPI PUSH1 0x40 MLOAD PUSH3 0x461BCD PUSH1 0xE5 SHL DUP2 MSTORE PUSH1 0x20 PUSH1 0x4 DUP3 ADD MSTORE PUSH1 0x27 PUSH1 0x24 DUP3 ADD MSTORE PUSH32 0x53533A205374616B65506F736974696F6E2065786365656473207374616B6572 PUSH1 0x44 DUP3 ADD MSTORE PUSH7 0x40D8CADCCEE8D PUSH1 0xCB SHL PUSH1 0x64 DUP3 ADD MSTORE PUSH1 0x84 ADD JUMPDEST PUSH1 0x40 MLOAD DUP1 SWAP2 SUB SWAP1 REVERT JUMPDEST CALLER PUSH1 0x0 SWAP1 DUP2 MSTORE PUSH1 0x2 PUSH1 0x20 MSTORE PUSH1 0x40 DUP2 KECCAK256 DUP1 SLOAD DUP4 SWAP1 DUP2 LT PUSH2 0x27E JUMPI PUSH2 0x27E PUSH2 0x1258 JUMP JUMPDEST SWAP1 PUSH1 0x0 MSTORE PUSH1 0x20 PUSH1 0x0 KECCAK256 SWAP1 PUSH1 0x4 MUL ADD PUSH1 0x3 ADD SLOAD GT PUSH2 0x2DB JUMPI PUSH1 0x40 MLOAD PUSH3 0x461BCD PUSH1 0xE5 SHL DUP2 MSTORE PUSH1 0x20 PUSH1 0x4 DUP3 ADD MSTORE PUSH1 0x1B PUSH1 0x24 DUP3 ADD MSTORE PUSH27 0x14D4CE8814DD185AD9481DD85CC8185B1C9958591E48195B991959 PUSH1 0x2A SHL PUSH1 0x44 DUP3 ADD MSTORE PUSH1 0x64 ADD PUSH2 0x254 JUMP JUMPDEST PUSH1 0x0 PUSH2 0x2E5 PUSH2 0x8D1 JUMP JUMPDEST CALLER PUSH1 0x0 SWAP1 DUP2 MSTORE PUSH1 0x2 PUSH1 0x20 MSTORE PUSH1 0x40 SWAP1 KECCAK256 DUP1 SLOAD SWAP2 SWAP3 POP DUP3 SWAP2 DUP5 SWAP1 DUP2 LT PUSH2 0x30B JUMPI PUSH2 0x30B PUSH2 0x1258 JUMP JUMPDEST SWAP1 PUSH1 0x0 MSTORE PUSH1 0x20 PUSH1 0x0 KECCAK256 SWAP1 PUSH1 0x4 MUL ADD PUSH1 0x3 ADD DUP2 SWAP1 SSTORE POP PUSH2 0x328 PUSH2 0x10C4 JUMP JUMPDEST PUSH1 0x0 PUSH2 0x335 CALLER DUP5 DUP5 PUSH2 0xEF1 JUMP JUMPDEST SWAP1 POP PUSH1 0x0 PUSH2 0x344 CALLER DUP6 DUP6 PUSH2 0xA74 JUMP JUMPDEST CALLER PUSH1 0x0 SWAP1 DUP2 MSTORE PUSH1 0x2 PUSH1 0x20 MSTORE PUSH1 0x40 DUP2 KECCAK256 DUP1 SLOAD SWAP3 SWAP4 POP SWAP1 SWAP2 DUP7 SWAP1 DUP2 LT PUSH2 0x36A JUMPI PUSH2 0x36A PUSH2 0x1258 JUMP JUMPDEST PUSH1 0x0 SWAP2 DUP3 MSTORE PUSH1 0x20 SWAP2 DUP3 SWAP1 KECCAK256 PUSH1 0x40 DUP1 MLOAD PUSH1 0x80 DUP2 ADD DUP3 MSTORE PUSH1 0x4 SWAP4 DUP5 MUL SWAP1 SWAP3 ADD DUP1 SLOAD DUP1 DUP5 MSTORE PUSH1 0x1 DUP3 ADD SLOAD SWAP6 DUP5 ADD SWAP6 SWAP1 SWAP6 MSTORE PUSH1 0x2 DUP2 ADD SLOAD DUP4 DUP4 ADD MSTORE PUSH1 0x3 SWAP1 DUP2 ADD SLOAD PUSH1 0x60 DUP5 ADD MSTORE SLOAD SWAP1 MLOAD PUSH4 0xBB9FF5D PUSH1 0xE0 SHL DUP2 MSTORE SWAP2 SWAP5 POP PUSH1 0x1 PUSH1 0x1 PUSH1 0xA0 SHL SUB AND SWAP3 PUSH4 0xBB9FF5D SWAP3 PUSH2 0x3D9 SWAP3 CALLER SWAP3 SWAP2 ADD PUSH2 0x119E JUMP JUMPDEST PUSH1 0x0 PUSH1 0x40 MLOAD DUP1 DUP4 SUB DUP2 PUSH1 0x0 DUP8 DUP1 EXTCODESIZE ISZERO DUP1 ISZERO PUSH2 0x3F3 JUMPI PUSH1 0x0 DUP1 REVERT JUMPDEST POP GAS CALL ISZERO DUP1 ISZERO PUSH2 0x407 JUMPI RETURNDATASIZE PUSH1 0x0 DUP1 RETURNDATACOPY RETURNDATASIZE PUSH1 0x0 REVERT JUMPDEST POP POP DUP3 MLOAD SWAP2 POP POP DUP4 ISZERO PUSH2 0x4BE JUMPI DUP2 MLOAD PUSH2 0x421 SWAP1 DUP6 SWAP1 PUSH2 0x1210 JUMP JUMPDEST PUSH1 0x3 SLOAD PUSH1 0x40 MLOAD PUSH4 0x18A8AD87 PUSH1 0xE0 SHL DUP2 MSTORE SWAP2 SWAP3 POP PUSH1 0x1 PUSH1 0x1 PUSH1 0xA0 SHL SUB AND SWAP1 PUSH4 0x18A8AD87 SWAP1 PUSH2 0x454 SWAP1 CALLER SWAP1 DUP9 SWAP1 PUSH1 0x4 ADD PUSH2 0x119E JUMP JUMPDEST PUSH1 0x0 PUSH1 0x40 MLOAD DUP1 DUP4 SUB DUP2 PUSH1 0x0 DUP8 DUP1 EXTCODESIZE ISZERO DUP1 ISZERO PUSH2 0x46E JUMPI PUSH1 0x0 DUP1 REVERT JUMPDEST POP GAS CALL ISZERO DUP1 ISZERO PUSH2 0x482 JUMPI RETURNDATASIZE PUSH1 0x0 DUP1 RETURNDATACOPY RETURNDATASIZE PUSH1 0x0 REVERT JUMPDEST POP POP POP POP DUP3 DUP5 PUSH2 0x492 SWAP2 SWAP1 PUSH2 0x11B7 JUMP JUMPDEST PUSH1 0x0 DUP7 DUP2 MSTORE PUSH1 0x1 PUSH1 0x20 DUP2 SWAP1 MSTORE PUSH1 0x40 DUP3 KECCAK256 ADD DUP1 SLOAD SWAP1 SWAP2 SWAP1 PUSH2 0x4B3 SWAP1 DUP5 SWAP1 PUSH2 0x11B7 JUMP JUMPDEST SWAP1 SWAP2 SSTORE POP PUSH2 0x537 SWAP1 POP JUMP JUMPDEST DUP3 ISZERO PUSH2 0x537 JUMPI DUP2 MLOAD PUSH2 0x4D1 SWAP1 DUP5 SWAP1 PUSH2 0x11B7 JUMP JUMPDEST PUSH1 0x3 SLOAD PUSH1 0x40 MLOAD PUSH4 0xBB9FF5D PUSH1 0xE0 SHL DUP2 MSTORE SWAP2 SWAP3 POP PUSH1 0x1 PUSH1 0x1 PUSH1 0xA0 SHL SUB AND SWAP1 PUSH4 0xBB9FF5D SWAP1 PUSH2 0x504 SWAP1 CALLER SWAP1 DUP8 SWAP1 PUSH1 0x4 ADD PUSH2 0x119E JUMP JUMPDEST PUSH1 0x0 PUSH1 0x40 MLOAD DUP1 DUP4 SUB DUP2 PUSH1 0x0 DUP8 DUP1 EXTCODESIZE ISZERO DUP1 ISZERO PUSH2 0x51E JUMPI PUSH1 0x0 DUP1 REVERT JUMPDEST POP GAS CALL ISZERO DUP1 ISZERO PUSH2 0x532 JUMPI RETURNDATASIZE PUSH1 0x0 DUP1 RETURNDATACOPY RETURNDATASIZE PUSH1 0x0 REVERT JUMPDEST POP POP POP POP JUMPDEST DUP2 MLOAD PUSH1 0x0 SWAP1 PUSH2 0x549 PUSH3 0xF4240 DUP5 PUSH2 0x11F1 JUMP JUMPDEST PUSH2 0x553 SWAP2 SWAP1 PUSH2 0x11CF JUMP JUMPDEST PUSH1 0x0 DUP8 DUP2 MSTORE PUSH1 0x1 PUSH1 0x20 MSTORE PUSH1 0x40 SWAP1 KECCAK256 PUSH1 0x5 ADD SLOAD SWAP1 SWAP2 POP DUP2 GT ISZERO PUSH2 0x584 JUMPI PUSH1 0x0 DUP7 DUP2 MSTORE PUSH1 0x1 PUSH1 0x20 MSTORE PUSH1 0x40 SWAP1 KECCAK256 PUSH1 0x5 ADD DUP2 SWAP1 SSTORE JUMPDEST PUSH2 0x590 CALLER DUP9 PUSH1 0x0 PUSH2 0x8F2 JUMP JUMPDEST PUSH1 0x0 DUP8 DUP2 MSTORE PUSH1 0x1 PUSH1 0x20 MSTORE PUSH1 0x40 DUP2 KECCAK256 PUSH1 0x3 ADD DUP1 SLOAD SWAP1 SWAP2 SWAP1 PUSH2 0x5B1 SWAP1 DUP5 SWAP1 PUSH2 0x1210 JUMP JUMPDEST SWAP1 SWAP2 SSTORE POP POP DUP3 MLOAD PUSH1 0x0 DUP8 DUP2 MSTORE PUSH1 0x1 PUSH1 0x20 MSTORE PUSH1 0x40 DUP2 KECCAK256 PUSH1 0x4 ADD DUP1 SLOAD SWAP1 SWAP2 SWAP1 PUSH2 0x5D9 SWAP1 DUP5 SWAP1 PUSH2 0x1210 JUMP JUMPDEST SWAP1 SWAP2 SSTORE POP POP POP POP POP POP POP POP POP JUMP JUMPDEST PUSH1 0x0 DUP3 GT PUSH2 0x64B JUMPI PUSH1 0x40 MLOAD PUSH3 0x461BCD PUSH1 0xE5 SHL DUP2 MSTORE PUSH1 0x20 PUSH1 0x4 DUP3 ADD MSTORE PUSH1 0x2B PUSH1 0x24 DUP3 ADD MSTORE PUSH32 0x53533A205374616B6564416D6F756E742068617320746F206265206C61726765 PUSH1 0x44 DUP3 ADD MSTORE PUSH11 0x72207468616E207A65726F PUSH1 0xA8 SHL PUSH1 0x64 DUP3 ADD MSTORE PUSH1 0x84 ADD PUSH2 0x254 JUMP JUMPDEST PUSH1 0x3 SLOAD PUSH1 0x40 MLOAD PUSH4 0x70A08231 PUSH1 0xE0 SHL DUP2 MSTORE CALLER PUSH1 0x4 DUP3 ADD MSTORE DUP4 SWAP2 PUSH1 0x1 PUSH1 0x1 PUSH1 0xA0 SHL SUB AND SWAP1 PUSH4 0x70A08231 SWAP1 PUSH1 0x24 ADD PUSH1 0x20 PUSH1 0x40 MLOAD DUP1 DUP4 SUB DUP2 DUP7 DUP1 EXTCODESIZE ISZERO DUP1 ISZERO PUSH2 0x68E JUMPI PUSH1 0x0 DUP1 REVERT JUMPDEST POP GAS STATICCALL ISZERO DUP1 ISZERO PUSH2 0x6A2 JUMPI RETURNDATASIZE PUSH1 0x0 DUP1 RETURNDATACOPY RETURNDATASIZE PUSH1 0x0 REVERT JUMPDEST POP POP POP POP PUSH1 0x40 MLOAD RETURNDATASIZE PUSH1 0x1F NOT PUSH1 0x1F DUP3 ADD AND DUP3 ADD DUP1 PUSH1 0x40 MSTORE POP DUP2 ADD SWAP1 PUSH2 0x6C6 SWAP2 SWAP1 PUSH2 0x1163 JUMP JUMPDEST LT ISZERO PUSH2 0x714 JUMPI PUSH1 0x40 MLOAD PUSH3 0x461BCD PUSH1 0xE5 SHL DUP2 MSTORE PUSH1 0x20 PUSH1 0x4 DUP3 ADD DUP2 SWAP1 MSTORE PUSH1 0x24 DUP3 ADD MSTORE PUSH32 0x53533A205374616B6564416D6F756E7420657863656564732062616C616E6365 PUSH1 0x44 DUP3 ADD MSTORE PUSH1 0x64 ADD PUSH2 0x254 JUMP JUMPDEST DUP1 PUSH1 0x0 LT DUP1 ISZERO PUSH2 0x726 JUMPI POP PUSH3 0x186A0 DUP2 LT JUMPDEST PUSH2 0x77D JUMPI PUSH1 0x40 MLOAD PUSH3 0x461BCD PUSH1 0xE5 SHL DUP2 MSTORE PUSH1 0x20 PUSH1 0x4 DUP3 ADD MSTORE PUSH1 0x22 PUSH1 0x24 DUP3 ADD MSTORE PUSH32 0x53533A2057726F6E6720616D6F756E74206F6620646179732073706563696669 PUSH1 0x44 DUP3 ADD MSTORE PUSH2 0x1959 PUSH1 0xF2 SHL PUSH1 0x64 DUP3 ADD MSTORE PUSH1 0x84 ADD PUSH2 0x254 JUMP JUMPDEST PUSH2 0x785 PUSH2 0x10C4 JUMP JUMPDEST PUSH1 0x3 SLOAD PUSH1 0x40 MLOAD PUSH4 0x18A8AD87 PUSH1 0xE0 SHL DUP2 MSTORE PUSH1 0x1 PUSH1 0x1 PUSH1 0xA0 SHL SUB SWAP1 SWAP2 AND SWAP1 PUSH4 0x18A8AD87 SWAP1 PUSH2 0x7B7 SWAP1 CALLER SWAP1 DUP7 SWAP1 PUSH1 0x4 ADD PUSH2 0x119E JUMP JUMPDEST PUSH1 0x0 PUSH1 0x40 MLOAD DUP1 DUP4 SUB DUP2 PUSH1 0x0 DUP8 DUP1 EXTCODESIZE ISZERO DUP1 ISZERO PUSH2 0x7D1 JUMPI PUSH1 0x0 DUP1 REVERT JUMPDEST POP GAS CALL ISZERO DUP1 ISZERO PUSH2 0x7E5 JUMPI RETURNDATASIZE PUSH1 0x0 DUP1 RETURNDATACOPY RETURNDATASIZE PUSH1 0x0 REVERT JUMPDEST POP POP POP POP PUSH1 0x0 PUSH2 0x7F3 PUSH2 0x8D1 JUMP JUMPDEST CALLER PUSH1 0x0 DUP2 DUP2 MSTORE PUSH1 0x2 PUSH1 0x20 DUP2 DUP2 MSTORE PUSH1 0x40 DUP1 DUP5 KECCAK256 DUP2 MLOAD PUSH1 0x80 DUP2 ADD DUP4 MSTORE DUP11 DUP2 MSTORE DUP1 DUP5 ADD DUP9 DUP2 MSTORE SWAP3 DUP2 ADD DUP11 DUP2 MSTORE PUSH1 0x60 DUP3 ADD DUP8 DUP2 MSTORE DUP4 SLOAD PUSH1 0x1 DUP2 DUP2 ADD DUP7 SSTORE DUP6 DUP11 MSTORE DUP8 DUP11 KECCAK256 SWAP5 MLOAD PUSH1 0x4 SWAP1 SWAP3 MUL SWAP1 SWAP5 ADD SWAP1 DUP2 SSTORE SWAP5 MLOAD DUP6 DUP5 ADD SSTORE SWAP1 MLOAD DUP5 DUP8 ADD SSTORE MLOAD PUSH1 0x3 SWAP1 SWAP4 ADD SWAP3 SWAP1 SWAP3 SSTORE DUP6 DUP6 MSTORE SWAP3 SWAP1 SWAP2 MSTORE SWAP1 SLOAD SWAP4 SWAP5 POP SWAP1 SWAP3 PUSH2 0x878 SWAP3 SWAP2 PUSH2 0x871 SWAP2 PUSH2 0x1210 JUMP JUMPDEST PUSH1 0x0 PUSH2 0x8F2 JUMP JUMPDEST SWAP1 POP DUP1 PUSH1 0x1 PUSH1 0x0 DUP5 DUP2 MSTORE PUSH1 0x20 ADD SWAP1 DUP2 MSTORE PUSH1 0x20 ADD PUSH1 0x0 KECCAK256 PUSH1 0x3 ADD PUSH1 0x0 DUP3 DUP3 SLOAD PUSH2 0x8A0 SWAP2 SWAP1 PUSH2 0x11B7 JUMP JUMPDEST SWAP1 SWAP2 SSTORE POP POP PUSH1 0x0 DUP3 DUP2 MSTORE PUSH1 0x1 PUSH1 0x20 MSTORE PUSH1 0x40 DUP2 KECCAK256 PUSH1 0x4 ADD DUP1 SLOAD DUP7 SWAP3 SWAP1 PUSH2 0x8C6 SWAP1 DUP5 SWAP1 PUSH2 0x11B7 JUMP JUMPDEST SWAP1 SWAP2 SSTORE POP POP POP POP POP POP JUMP JUMPDEST PUSH1 0x0 PUSH1 0x3C PUSH1 0x4 SLOAD TIMESTAMP PUSH2 0x8E3 SWAP2 SWAP1 PUSH2 0x1210 JUMP JUMPDEST PUSH2 0x8ED SWAP2 SWAP1 PUSH2 0x11CF JUMP JUMPDEST SWAP1 POP SWAP1 JUMP JUMPDEST PUSH1 0x1 PUSH1 0x1 PUSH1 0xA0 SHL SUB DUP4 AND PUSH1 0x0 SWAP1 DUP2 MSTORE PUSH1 0x2 PUSH1 0x20 MSTORE PUSH1 0x40 DUP2 KECCAK256 DUP1 SLOAD DUP3 SWAP2 SWAP1 DUP6 SWAP1 DUP2 LT PUSH2 0x91F JUMPI PUSH2 0x91F PUSH2 0x1258 JUMP JUMPDEST SWAP1 PUSH1 0x0 MSTORE PUSH1 0x20 PUSH1 0x0 KECCAK256 SWAP1 PUSH1 0x4 MUL ADD PUSH1 0x40 MLOAD DUP1 PUSH1 0x80 ADD PUSH1 0x40 MSTORE SWAP1 DUP2 PUSH1 0x0 DUP3 ADD SLOAD DUP2 MSTORE PUSH1 0x20 ADD PUSH1 0x1 DUP3 ADD SLOAD DUP2 MSTORE PUSH1 0x20 ADD PUSH1 0x2 DUP3 ADD SLOAD DUP2 MSTORE PUSH1 0x20 ADD PUSH1 0x3 DUP3 ADD SLOAD DUP2 MSTORE POP POP SWAP1 POP PUSH1 0x0 PUSH1 0x1 PUSH1 0x0 PUSH1 0x1 DUP5 PUSH1 0x20 ADD MLOAD PUSH2 0x979 SWAP2 SWAP1 PUSH2 0x1210 JUMP JUMPDEST DUP2 MSTORE PUSH1 0x20 DUP1 DUP3 ADD SWAP3 SWAP1 SWAP3 MSTORE PUSH1 0x40 SWAP1 DUP2 ADD PUSH1 0x0 SWAP1 DUP2 KECCAK256 DUP3 MLOAD PUSH1 0xC0 DUP2 ADD DUP5 MSTORE DUP2 SLOAD PUSH1 0xFF AND ISZERO ISZERO DUP2 MSTORE PUSH1 0x1 DUP3 ADD SLOAD SWAP5 DUP2 ADD SWAP5 SWAP1 SWAP5 MSTORE PUSH1 0x2 DUP2 ADD SLOAD SWAP3 DUP5 ADD SWAP3 SWAP1 SWAP3 MSTORE PUSH1 0x3 DUP3 ADD SLOAD PUSH1 0x60 DUP5 ADD MSTORE PUSH1 0x4 DUP3 ADD SLOAD PUSH1 0x80 DUP5 ADD MSTORE PUSH1 0x5 SWAP1 SWAP2 ADD SLOAD PUSH1 0xA0 DUP4 ADD MSTORE SWAP1 SWAP2 POP DUP5 ISZERO PUSH2 0x9F3 JUMPI PUSH1 0x20 DUP4 ADD MLOAD PUSH2 0x9EE SWAP1 DUP7 PUSH2 0x1210 JUMP JUMPDEST PUSH2 0x9F9 JUMP JUMPDEST DUP3 PUSH1 0x40 ADD MLOAD JUMPDEST SWAP1 POP PUSH1 0x0 DUP3 PUSH1 0xA0 ADD MLOAD PUSH2 0x1C84 PUSH2 0xA0F SWAP2 SWAP1 PUSH2 0x11F1 JUMP JUMPDEST DUP5 MLOAD PUSH3 0xF4240 SWAP1 PUSH2 0xA21 DUP6 PUSH1 0x5 PUSH2 0x11F1 JUMP JUMPDEST PUSH2 0xA2B SWAP2 SWAP1 PUSH2 0x11F1 JUMP JUMPDEST PUSH2 0xA35 SWAP2 SWAP1 PUSH2 0x11F1 JUMP JUMPDEST PUSH2 0xA3F SWAP2 SWAP1 PUSH2 0x11CF JUMP JUMPDEST PUSH1 0xA0 DUP5 ADD MLOAD DUP6 MLOAD PUSH2 0xA54 SWAP1 PUSH3 0xF4240 SWAP1 PUSH2 0x11F1 JUMP JUMPDEST PUSH2 0xA5E SWAP2 SWAP1 PUSH2 0x11CF JUMP JUMPDEST PUSH2 0xA68 SWAP2 SWAP1 PUSH2 0x11B7 JUMP JUMPDEST SWAP9 SWAP8 POP POP POP POP POP POP POP POP JUMP JUMPDEST PUSH1 0x1 PUSH1 0x1 PUSH1 0xA0 SHL SUB DUP4 AND PUSH1 0x0 SWAP1 DUP2 MSTORE PUSH1 0x2 PUSH1 0x20 MSTORE PUSH1 0x40 DUP2 KECCAK256 DUP1 SLOAD DUP3 SWAP2 DUP3 SWAP2 DUP7 SWAP1 DUP2 LT PUSH2 0xAA2 JUMPI PUSH2 0xAA2 PUSH2 0x1258 JUMP JUMPDEST SWAP1 PUSH1 0x0 MSTORE PUSH1 0x20 PUSH1 0x0 KECCAK256 SWAP1 PUSH1 0x4 MUL ADD PUSH1 0x40 MLOAD DUP1 PUSH1 0x80 ADD PUSH1 0x40 MSTORE SWAP1 DUP2 PUSH1 0x0 DUP3 ADD SLOAD DUP2 MSTORE PUSH1 0x20 ADD PUSH1 0x1 DUP3 ADD SLOAD DUP2 MSTORE PUSH1 0x20 ADD PUSH1 0x2 DUP3 ADD SLOAD DUP2 MSTORE PUSH1 0x20 ADD PUSH1 0x3 DUP3 ADD SLOAD DUP2 MSTORE POP POP SWAP1 POP PUSH1 0x0 PUSH2 0xAF2 DUP8 DUP8 DUP8 PUSH2 0x8F2 JUMP JUMPDEST SWAP1 POP DUP2 PUSH1 0x40 ADD MLOAD DUP3 PUSH1 0x20 ADD MLOAD PUSH2 0xB08 SWAP2 SWAP1 PUSH2 0x11B7 JUMP JUMPDEST DUP6 GT PUSH2 0xB14 JUMPI DUP5 PUSH2 0xB28 JUMP JUMPDEST DUP2 PUSH1 0x40 ADD MLOAD DUP3 PUSH1 0x20 ADD MLOAD PUSH2 0xB28 SWAP2 SWAP1 PUSH2 0x11B7 JUMP JUMPDEST PUSH1 0x20 DUP4 ADD MLOAD SWAP1 SWAP6 POP JUMPDEST DUP6 DUP2 LT ISZERO PUSH2 0xB85 JUMPI PUSH1 0x0 DUP2 DUP2 MSTORE PUSH1 0x1 PUSH1 0x20 DUP2 SWAP1 MSTORE PUSH1 0x40 SWAP1 SWAP2 KECCAK256 PUSH1 0x3 DUP2 ADD SLOAD SWAP2 ADD SLOAD PUSH2 0xB5D SWAP1 DUP5 SWAP1 PUSH2 0x11F1 JUMP JUMPDEST PUSH2 0xB67 SWAP2 SWAP1 PUSH2 0x11CF JUMP JUMPDEST PUSH2 0xB71 SWAP1 DUP6 PUSH2 0x11B7 JUMP JUMPDEST SWAP4 POP DUP1 PUSH2 0xB7D DUP2 PUSH2 0x1227 JUMP JUMPDEST SWAP2 POP POP PUSH2 0xB31 JUMP JUMPDEST POP SWAP2 SWAP7 SWAP6 POP POP POP POP POP POP JUMP JUMPDEST PUSH1 0x0 DUP1 SLOAD PUSH2 0xBA0 SWAP1 PUSH1 0x1 PUSH2 0x11B7 JUMP JUMPDEST SWAP1 POP DUP1 JUMPDEST DUP3 DUP2 LT ISZERO PUSH2 0xE5E JUMPI PUSH1 0x0 DUP2 DUP2 MSTORE PUSH1 0x1 PUSH1 0x20 MSTORE PUSH1 0x40 SWAP1 KECCAK256 SLOAD PUSH1 0xFF AND ISZERO PUSH2 0xBC8 JUMPI PUSH2 0xE4C JUMP JUMPDEST PUSH1 0x0 DUP2 DUP2 MSTORE PUSH1 0x1 PUSH1 0x20 MSTORE PUSH1 0x40 DUP2 KECCAK256 PUSH1 0x4 DUP2 ADD SLOAD PUSH1 0x2 SWAP1 SWAP2 ADD SLOAD PUSH1 0x64 SWAP2 PUSH2 0xBED SWAP2 PUSH2 0x11B7 JUMP JUMPDEST PUSH2 0xBF8 SWAP1 PUSH1 0xA PUSH2 0x11F1 JUMP JUMPDEST PUSH2 0xC02 SWAP2 SWAP1 PUSH2 0x11CF JUMP JUMPDEST PUSH1 0x0 DUP4 DUP2 MSTORE PUSH1 0x1 PUSH1 0x20 DUP2 SWAP1 MSTORE PUSH1 0x40 SWAP1 SWAP2 KECCAK256 ADD SLOAD PUSH2 0xC1F SWAP2 SWAP1 PUSH2 0x11B7 JUMP JUMPDEST SWAP1 POP PUSH1 0x40 MLOAD DUP1 PUSH1 0xC0 ADD PUSH1 0x40 MSTORE DUP1 PUSH1 0x1 ISZERO ISZERO DUP2 MSTORE PUSH1 0x20 ADD DUP3 DUP2 MSTORE PUSH1 0x20 ADD PUSH1 0x1 PUSH1 0x0 DUP6 DUP2 MSTORE PUSH1 0x20 ADD SWAP1 DUP2 MSTORE PUSH1 0x20 ADD PUSH1 0x0 KECCAK256 PUSH1 0x2 ADD SLOAD DUP2 MSTORE PUSH1 0x20 ADD PUSH1 0x1 PUSH1 0x0 DUP6 DUP2 MSTORE PUSH1 0x20 ADD SWAP1 DUP2 MSTORE PUSH1 0x20 ADD PUSH1 0x0 KECCAK256 PUSH1 0x3 ADD SLOAD DUP2 MSTORE PUSH1 0x20 ADD PUSH1 0x1 PUSH1 0x0 DUP6 DUP2 MSTORE PUSH1 0x20 ADD SWAP1 DUP2 MSTORE PUSH1 0x20 ADD PUSH1 0x0 KECCAK256 PUSH1 0x4 ADD SLOAD DUP2 MSTORE PUSH1 0x20 ADD PUSH1 0x1 PUSH1 0x0 DUP6 DUP2 MSTORE PUSH1 0x20 ADD SWAP1 DUP2 MSTORE PUSH1 0x20 ADD PUSH1 0x0 KECCAK256 PUSH1 0x5 ADD SLOAD DUP2 MSTORE POP PUSH1 0x1 PUSH1 0x0 DUP5 DUP2 MSTORE PUSH1 0x20 ADD SWAP1 DUP2 MSTORE PUSH1 0x20 ADD PUSH1 0x0 KECCAK256 PUSH1 0x0 DUP3 ADD MLOAD DUP2 PUSH1 0x0 ADD PUSH1 0x0 PUSH2 0x100 EXP DUP2 SLOAD DUP2 PUSH1 0xFF MUL NOT AND SWAP1 DUP4 ISZERO ISZERO MUL OR SWAP1 SSTORE POP PUSH1 0x20 DUP3 ADD MLOAD DUP2 PUSH1 0x1 ADD SSTORE PUSH1 0x40 DUP3 ADD MLOAD DUP2 PUSH1 0x2 ADD SSTORE PUSH1 0x60 DUP3 ADD MLOAD DUP2 PUSH1 0x3 ADD SSTORE PUSH1 0x80 DUP3 ADD MLOAD DUP2 PUSH1 0x4 ADD SSTORE PUSH1 0xA0 DUP3 ADD MLOAD DUP2 PUSH1 0x5 ADD SSTORE SWAP1 POP POP PUSH1 0x40 MLOAD DUP1 PUSH1 0xC0 ADD PUSH1 0x40 MSTORE DUP1 PUSH1 0x0 ISZERO ISZERO DUP2 MSTORE PUSH1 0x20 ADD PUSH1 0x0 DUP2 MSTORE PUSH1 0x20 ADD PUSH1 0x3 PUSH1 0x0 SWAP1 SLOAD SWAP1 PUSH2 0x100 EXP SWAP1 DIV PUSH1 0x1 PUSH1 0x1 PUSH1 0xA0 SHL SUB AND PUSH1 0x1 PUSH1 0x1 PUSH1 0xA0 SHL SUB AND PUSH4 0x18160DDD PUSH1 0x40 MLOAD DUP2 PUSH4 0xFFFFFFFF AND PUSH1 0xE0 SHL DUP2 MSTORE PUSH1 0x4 ADD PUSH1 0x20 PUSH1 0x40 MLOAD DUP1 DUP4 SUB DUP2 DUP7 DUP1 EXTCODESIZE ISZERO DUP1 ISZERO PUSH2 0xD7A JUMPI PUSH1 0x0 DUP1 REVERT JUMPDEST POP GAS STATICCALL ISZERO DUP1 ISZERO PUSH2 0xD8E JUMPI RETURNDATASIZE PUSH1 0x0 DUP1 RETURNDATACOPY RETURNDATASIZE PUSH1 0x0 REVERT JUMPDEST POP POP POP POP PUSH1 0x40 MLOAD RETURNDATASIZE PUSH1 0x1F NOT PUSH1 0x1F DUP3 ADD AND DUP3 ADD DUP1 PUSH1 0x40 MSTORE POP DUP2 ADD SWAP1 PUSH2 0xDB2 SWAP2 SWAP1 PUSH2 0x1163 JUMP JUMPDEST DUP2 MSTORE PUSH1 0x0 DUP5 DUP2 MSTORE PUSH1 0x1 PUSH1 0x20 DUP2 DUP2 MSTORE PUSH1 0x40 DUP1 DUP5 KECCAK256 PUSH1 0x3 DUP2 ADD SLOAD DUP4 DUP8 ADD MSTORE PUSH1 0x4 DUP2 ADD SLOAD SWAP2 DUP7 ADD SWAP2 SWAP1 SWAP2 MSTORE DUP8 DUP5 MSTORE SWAP1 DUP3 SWAP1 MSTORE PUSH1 0x5 ADD SLOAD PUSH1 0x60 SWAP1 SWAP4 ADD SWAP3 SWAP1 SWAP3 MSTORE PUSH2 0xDF8 DUP6 DUP4 PUSH2 0x11B7 JUMP JUMPDEST DUP2 MSTORE PUSH1 0x20 DUP1 DUP3 ADD SWAP3 SWAP1 SWAP3 MSTORE PUSH1 0x40 SWAP1 DUP2 ADD PUSH1 0x0 KECCAK256 DUP4 MLOAD DUP2 SLOAD PUSH1 0xFF NOT AND SWAP1 ISZERO ISZERO OR DUP2 SSTORE SWAP2 DUP4 ADD MLOAD PUSH1 0x1 DUP4 ADD SSTORE DUP3 ADD MLOAD PUSH1 0x2 DUP3 ADD SSTORE PUSH1 0x60 DUP3 ADD MLOAD PUSH1 0x3 DUP3 ADD SSTORE PUSH1 0x80 DUP3 ADD MLOAD PUSH1 0x4 DUP3 ADD SSTORE PUSH1 0xA0 SWAP1 SWAP2 ADD MLOAD PUSH1 0x5 SWAP1 SWAP2 ADD SSTORE POP JUMPDEST DUP1 PUSH2 0xE56 DUP2 PUSH2 0x1227 JUMP JUMPDEST SWAP2 POP POP PUSH2 0xBA4 JUMP JUMPDEST POP PUSH1 0x0 DUP3 GT DUP1 ISZERO PUSH2 0xE8D JUMPI POP PUSH1 0x1 PUSH1 0x0 PUSH2 0xE78 DUP3 DUP6 PUSH2 0x1210 JUMP JUMPDEST DUP2 MSTORE PUSH1 0x20 DUP2 ADD SWAP2 SWAP1 SWAP2 MSTORE PUSH1 0x40 ADD PUSH1 0x0 KECCAK256 SLOAD PUSH1 0xFF AND JUMPDEST PUSH2 0xE99 JUMPI PUSH1 0x0 SLOAD PUSH2 0xEA4 JUMP JUMPDEST PUSH2 0xEA4 PUSH1 0x1 DUP4 PUSH2 0x1210 JUMP JUMPDEST PUSH1 0x0 SSTORE POP POP JUMP JUMPDEST PUSH1 0x2 PUSH1 0x20 MSTORE DUP2 PUSH1 0x0 MSTORE PUSH1 0x40 PUSH1 0x0 KECCAK256 DUP2 DUP2 SLOAD DUP2 LT PUSH2 0xEC7 JUMPI PUSH1 0x0 DUP1 REVERT JUMPDEST PUSH1 0x0 SWAP2 DUP3 MSTORE PUSH1 0x20 SWAP1 SWAP2 KECCAK256 PUSH1 0x4 SWAP1 SWAP2 MUL ADD DUP1 SLOAD PUSH1 0x1 DUP3 ADD SLOAD PUSH1 0x2 DUP4 ADD SLOAD PUSH1 0x3 SWAP1 SWAP4 ADD SLOAD SWAP2 SWAP5 POP SWAP3 POP DUP5 JUMP JUMPDEST PUSH1 0x1 PUSH1 0x1 PUSH1 0xA0 SHL SUB DUP4 AND PUSH1 0x0 SWAP1 DUP2 MSTORE PUSH1 0x2 PUSH1 0x20 MSTORE PUSH1 0x40 DUP2 KECCAK256 DUP1 SLOAD DUP3 SWAP2 DUP3 SWAP2 DUP7 SWAP1 DUP2 LT PUSH2 0xF1F JUMPI PUSH2 0xF1F PUSH2 0x1258 JUMP JUMPDEST PUSH1 0x0 SWAP2 DUP3 MSTORE PUSH1 0x20 DUP1 DUP4 KECCAK256 PUSH1 0x40 DUP1 MLOAD PUSH1 0x80 DUP2 ADD DUP3 MSTORE PUSH1 0x4 SWAP1 SWAP5 MUL SWAP1 SWAP2 ADD DUP1 SLOAD DUP5 MSTORE PUSH1 0x1 DUP2 ADD SLOAD SWAP3 DUP5 ADD DUP4 SWAP1 MSTORE PUSH1 0x2 DUP2 ADD SLOAD SWAP2 DUP5 ADD SWAP2 SWAP1 SWAP2 MSTORE PUSH1 0x3 ADD SLOAD PUSH1 0x60 DUP4 ADD MSTORE SWAP1 SWAP3 POP PUSH2 0xF6C SWAP1 DUP7 PUSH2 0x1210 JUMP JUMPDEST SWAP1 POP DUP1 PUSH2 0xF7C JUMPI PUSH1 0x0 SWAP3 POP PUSH2 0x10B9 JUMP JUMPDEST DUP1 PUSH1 0x2 DUP4 PUSH1 0x40 ADD MLOAD PUSH2 0xF8E SWAP2 SWAP1 PUSH2 0x11CF JUMP JUMPDEST LT DUP1 ISZERO PUSH2 0xF9F JUMPI POP DUP2 PUSH1 0x40 ADD MLOAD DUP2 GT ISZERO JUMPDEST ISZERO PUSH2 0x1002 JUMPI PUSH1 0x40 DUP3 ADD MLOAD PUSH2 0xFB4 SWAP1 PUSH1 0x64 PUSH2 0x11F1 JUMP JUMPDEST DUP3 MLOAD PUSH1 0x40 DUP5 ADD MLOAD PUSH2 0xFC7 SWAP1 PUSH1 0x2 SWAP1 PUSH2 0x11CF JUMP JUMPDEST PUSH2 0xFD1 SWAP1 DUP5 PUSH2 0x1210 JUMP JUMPDEST PUSH2 0xFDC SWAP1 PUSH1 0xA PUSH2 0x11F1 JUMP JUMPDEST PUSH2 0xFE6 SWAP2 SWAP1 PUSH2 0x11F1 JUMP JUMPDEST PUSH2 0xFF1 SWAP1 PUSH1 0x2 PUSH2 0x11F1 JUMP JUMPDEST PUSH2 0xFFB SWAP2 SWAP1 PUSH2 0x11CF JUMP JUMPDEST SWAP3 POP PUSH2 0x10B9 JUMP JUMPDEST PUSH1 0x2 DUP3 PUSH1 0x40 ADD MLOAD PUSH2 0x1013 SWAP2 SWAP1 PUSH2 0x11CF JUMP JUMPDEST DUP2 GT PUSH2 0x1036 JUMPI PUSH1 0x40 DUP3 ADD MLOAD PUSH2 0x1029 SWAP1 PUSH1 0x64 PUSH2 0x11F1 JUMP JUMPDEST DUP3 MLOAD PUSH2 0xFDC DUP4 PUSH1 0x5A PUSH2 0x11F1 JUMP JUMPDEST DUP1 DUP3 PUSH1 0x40 ADD MLOAD PUSH1 0xE PUSH2 0x1048 SWAP2 SWAP1 PUSH2 0x11B7 JUMP JUMPDEST LT DUP1 ISZERO PUSH2 0x1070 JUMPI POP PUSH1 0x40 DUP3 ADD MLOAD PUSH2 0x1060 SWAP1 PUSH1 0xE PUSH2 0x11B7 JUMP JUMPDEST PUSH2 0x106C SWAP1 PUSH2 0x16D PUSH2 0x11B7 JUMP JUMPDEST DUP2 GT ISZERO JUMPDEST ISZERO PUSH2 0x1091 JUMPI PUSH1 0xE DUP3 PUSH1 0x40 ADD MLOAD DUP3 PUSH2 0x1087 SWAP2 SWAP1 PUSH2 0x1210 JUMP JUMPDEST PUSH2 0xFFB SWAP2 SWAP1 PUSH2 0x1210 JUMP JUMPDEST PUSH1 0x40 DUP3 ADD MLOAD PUSH2 0x10A1 SWAP1 PUSH1 0xE PUSH2 0x11B7 JUMP JUMPDEST PUSH2 0x10AD SWAP1 PUSH2 0x16D PUSH2 0x11B7 JUMP JUMPDEST DUP2 GT ISZERO PUSH2 0x10B9 JUMPI DUP2 MLOAD SWAP3 POP JUMPDEST POP SWAP1 SWAP6 SWAP5 POP POP POP POP POP JUMP JUMPDEST PUSH2 0x10CF PUSH2 0x11E PUSH2 0x8D1 JUMP JUMPDEST JUMP JUMPDEST DUP1 CALLDATALOAD PUSH1 0x1 PUSH1 0x1 PUSH1 0xA0 SHL SUB DUP2 AND DUP2 EQ PUSH2 0x10E8 JUMPI PUSH1 0x0 DUP1 REVERT JUMPDEST SWAP2 SWAP1 POP JUMP JUMPDEST PUSH1 0x0 DUP1 PUSH1 0x40 DUP4 DUP6 SUB SLT ISZERO PUSH2 0x1100 JUMPI PUSH1 0x0 DUP1 REVERT JUMPDEST PUSH2 0x1109 DUP4 PUSH2 0x10D1 JUMP JUMPDEST SWAP5 PUSH1 0x20 SWAP4 SWAP1 SWAP4 ADD CALLDATALOAD SWAP4 POP POP POP JUMP JUMPDEST PUSH1 0x0 DUP1 PUSH1 0x0 PUSH1 0x60 DUP5 DUP7 SUB SLT ISZERO PUSH2 0x112C JUMPI PUSH1 0x0 DUP1 REVERT JUMPDEST PUSH2 0x1135 DUP5 PUSH2 0x10D1 JUMP JUMPDEST SWAP6 PUSH1 0x20 DUP6 ADD CALLDATALOAD SWAP6 POP PUSH1 0x40 SWAP1 SWAP5 ADD CALLDATALOAD SWAP4 SWAP3 POP POP POP JUMP JUMPDEST PUSH1 0x0 PUSH1 0x20 DUP3 DUP5 SUB SLT ISZERO PUSH2 0x115C JUMPI PUSH1 0x0 DUP1 REVERT JUMPDEST POP CALLDATALOAD SWAP2 SWAP1 POP JUMP JUMPDEST PUSH1 0x0 PUSH1 0x20 DUP3 DUP5 SUB SLT ISZERO PUSH2 0x1175 JUMPI PUSH1 0x0 DUP1 REVERT JUMPDEST POP MLOAD SWAP2 SWAP1 POP JUMP JUMPDEST PUSH1 0x0 DUP1 PUSH1 0x40 DUP4 DUP6 SUB SLT ISZERO PUSH2 0x118F JUMPI PUSH1 0x0 DUP1 REVERT JUMPDEST POP POP DUP1 CALLDATALOAD SWAP3 PUSH1 0x20 SWAP1 SWAP2 ADD CALLDATALOAD SWAP2 POP JUMP JUMPDEST PUSH1 0x1 PUSH1 0x1 PUSH1 0xA0 SHL SUB SWAP3 SWAP1 SWAP3 AND DUP3 MSTORE PUSH1 0x20 DUP3 ADD MSTORE PUSH1 0x40 ADD SWAP1 JUMP JUMPDEST PUSH1 0x0 DUP3 NOT DUP3 GT ISZERO PUSH2 0x11CA JUMPI PUSH2 0x11CA PUSH2 0x1242 JUMP JUMPDEST POP ADD SWAP1 JUMP JUMPDEST PUSH1 0x0 DUP3 PUSH2 0x11EC JUMPI PUSH4 0x4E487B71 PUSH1 0xE0 SHL PUSH1 0x0 MSTORE PUSH1 0x12 PUSH1 0x4 MSTORE PUSH1 0x24 PUSH1 0x0 REVERT JUMPDEST POP DIV SWAP1 JUMP JUMPDEST PUSH1 0x0 DUP2 PUSH1 0x0 NOT DIV DUP4 GT DUP3 ISZERO ISZERO AND ISZERO PUSH2 0x120B JUMPI PUSH2 0x120B PUSH2 0x1242 JUMP JUMPDEST POP MUL SWAP1 JUMP JUMPDEST PUSH1 0x0 DUP3 DUP3 LT ISZERO PUSH2 0x1222 JUMPI PUSH2 0x1222 PUSH2 0x1242 JUMP JUMPDEST POP SUB SWAP1 JUMP JUMPDEST PUSH1 0x0 PUSH1 0x0 NOT DUP3 EQ ISZERO PUSH2 0x123B JUMPI PUSH2 0x123B PUSH2 0x1242 JUMP JUMPDEST POP PUSH1 0x1 ADD SWAP1 JUMP JUMPDEST PUSH4 0x4E487B71 PUSH1 0xE0 SHL PUSH1 0x0 MSTORE PUSH1 0x11 PUSH1 0x4 MSTORE PUSH1 0x24 PUSH1 0x0 REVERT JUMPDEST PUSH4 0x4E487B71 PUSH1 0xE0 SHL PUSH1 0x0 MSTORE PUSH1 0x32 PUSH1 0x4 MSTORE PUSH1 0x24 PUSH1 0x0 REVERT INVALID LOG2 PUSH5 0x6970667358 0x22 SLT KECCAK256 0xE4 PUSH3 0x8DC6E6 SSTORE CHAINID PUSH2 0x3E11 0xB2 DUP13 PUSH1 0x2D 0x22 0xB7 PUSH16 0x539096BE516178F94F8A2C7380C9E964 PUSH20 0x6F6C634300080700330000000000000000000000 "
		},
		"gasEstimates": {
			"creation": {
				"codeDepositCost": "954400",
				"executionCost": "infinite",
				"totalCost": "infinite"
			},
			"external": {
				"endStake(uint256)": "infinite",
				"getCurrentDay()": "2458",
				"getInterest(address,uint256,uint256)": "infinite",
				"getPrincipalPenalty(address,uint256,uint256)": "infinite",
				"getSharesCount(address,uint256,uint256)": "infinite",
				"latestSealedSnapshotDay()": "2328",
				"snapshots(uint256)": "13334",
				"stakers(address,uint256)": "11284",
				"startStake(uint256,uint256)": "infinite",
				"updateAllSnapshots()": "infinite",
				"updateSnapshots(uint256)": "infinite"
			}
		},
		"methodIdentifiers": {
			"endStake(uint256)": "0cbe28d6",
			"getCurrentDay()": "3e6968b6",
			"getInterest(address,uint256,uint256)": "774ec185",
			"getPrincipalPenalty(address,uint256,uint256)": "cf351fae",
			"getSharesCount(address,uint256,uint256)": "43129f61",
			"latestSealedSnapshotDay()": "3f50cf87",
			"snapshots(uint256)": "d6565a2d",
			"stakers(address,uint256)": "c8b6cbf7",
			"startStake(uint256,uint256)": "128bfcae",
			"updateAllSnapshots()": "d50116b8",
			"updateSnapshots(uint256)": "ad110a67"
		}
	},
	"abi": [
		{
			"inputs": [],
			"stateMutability": "nonpayable",
			"type": "constructor"
		},
		{
			"inputs": [
				{
					"internalType": "uint256",
					"name": "stakePosition",
					"type": "uint256"
				}
			],
			"name": "endStake",
			"outputs": [],
			"stateMutability": "nonpayable",
			"type": "function"
		},
		{
			"inputs": [],
			"name": "getCurrentDay",
			"outputs": [
				{
					"internalType": "uint256",
					"name": "",
					"type": "uint256"
				}
			],
			"stateMutability": "view",
			"type": "function"
		},
		{
			"inputs": [
				{
					"internalType": "address",
					"name": "stakerAddress",
					"type": "address"
				},
				{
					"internalType": "uint256",
					"name": "stakePosition",
					"type": "uint256"
				},
				{
					"internalType": "uint256",
					"name": "givenDay",
					"type": "uint256"
				}
			],
			"name": "getInterest",
			"outputs": [
				{
					"internalType": "uint256",
					"name": "",
					"type": "uint256"
				}
			],
			"stateMutability": "view",
			"type": "function"
		},
		{
			"inputs": [
				{
					"internalType": "address",
					"name": "stakerAddress",
					"type": "address"
				},
				{
					"internalType": "uint256",
					"name": "stakePosition",
					"type": "uint256"
				},
				{
					"internalType": "uint256",
					"name": "givenDay",
					"type": "uint256"
				}
			],
			"name": "getPrincipalPenalty",
			"outputs": [
				{
					"internalType": "uint256",
					"name": "",
					"type": "uint256"
				}
			],
			"stateMutability": "view",
			"type": "function"
		},
		{
			"inputs": [
				{
					"internalType": "address",
					"name": "stakerAddress",
					"type": "address"
				},
				{
					"internalType": "uint256",
					"name": "stakePosition",
					"type": "uint256"
				},
				{
					"internalType": "uint256",
					"name": "givenDay",
					"type": "uint256"
				}
			],
			"name": "getSharesCount",
			"outputs": [
				{
					"internalType": "uint256",
					"name": "",
					"type": "uint256"
				}
			],
			"stateMutability": "view",
			"type": "function"
		},
		{
			"inputs": [],
			"name": "latestSealedSnapshotDay",
			"outputs": [
				{
					"internalType": "uint256",
					"name": "",
					"type": "uint256"
				}
			],
			"stateMutability": "view",
			"type": "function"
		},
		{
			"inputs": [
				{
					"internalType": "uint256",
					"name": "",
					"type": "uint256"
				}
			],
			"name": "snapshots",
			"outputs": [
				{
					"internalType": "bool",
					"name": "isSealed",
					"type": "bool"
				},
				{
					"internalType": "uint256",
					"name": "inflationAmount",
					"type": "uint256"
				},
				{
					"internalType": "uint256",
					"name": "totalSupply",
					"type": "uint256"
				},
				{
					"internalType": "uint256",
					"name": "totalShares",
					"type": "uint256"
				},
				{
					"internalType": "uint256",
					"name": "totalStaked",
					"type": "uint256"
				},
				{
					"internalType": "uint256",
					"name": "sharePrice",
					"type": "uint256"
				}
			],
			"stateMutability": "view",
			"type": "function"
		},
		{
			"inputs": [
				{
					"internalType": "address",
					"name": "",
					"type": "address"
				},
				{
					"internalType": "uint256",
					"name": "",
					"type": "uint256"
				}
			],
			"name": "stakers",
			"outputs": [
				{
					"internalType": "uint256",
					"name": "stakedAmount",
					"type": "uint256"
				},
				{
					"internalType": "uint256",
					"name": "startDay",
					"type": "uint256"
				},
				{
					"internalType": "uint256",
					"name": "lockedForXDays",
					"type": "uint256"
				},
				{
					"internalType": "uint256",
					"name": "endDay",
					"type": "uint256"
				}
			],
			"stateMutability": "view",
			"type": "function"
		},
		{
			"inputs": [
				{
					"internalType": "uint256",
					"name": "stakedAmount",
					"type": "uint256"
				},
				{
					"internalType": "uint256",
					"name": "lockedForXDays",
					"type": "uint256"
				}
			],
			"name": "startStake",
			"outputs": [],
			"stateMutability": "nonpayable",
			"type": "function"
		},
		{
			"inputs": [],
			"name": "updateAllSnapshots",
			"outputs": [],
			"stateMutability": "nonpayable",
			"type": "function"
		},
		{
			"inputs": [
				{
					"internalType": "uint256",
					"name": "givenDay",
					"type": "uint256"
				}
			],
			"name": "updateSnapshots",
			"outputs": [],
			"stateMutability": "nonpayable",
			"type": "function"
		}
	]
}