{
	"data": {
		"bytecode": {
			"linkReferences": {},
			"object": "6080604052600d80546001600160a01b03191673def1fac7bf08f173d286bbbdcbeeade6951298401790553480156200003757600080fd5b50600060055562061a80600655601e6009556200005861016d600262000b70565b600a556001600b556200006f61016d606462000b70565b600c55622dc6c06008556203d09060075563617d5839600e55604080516060808201835260008083526020808401828152670de0b6b3a764000085870181815260028054600181018255908652965160008051602062004a65833981519152600390980297880155915160008051602062004aa5833981519152870155905160008051602062004ae5833981519152909501949094558451828152908101829052938401819052908301919091526080820181905260a082015260008051602062004ac58339815191529060c00160405180910390a160408051606081018252600080825260208201818152670de0b6b3a764000083850181815260028054600181810183559186529551600396870260008051602062004a65833981519152810191909155935160008051602062004aa5833981519152850155905160008051602062004ae5833981519152909301929092558354918201845592825260008051602062004a85833981519152015590517f56c1a5b0a3a0633173d7fc412ba79063d393f76ff0740b58e133d1ccc34ccf0791620002119190815260200190565b60405180910390a16200022362000236565b620002306000336200024c565b62000c38565b6200024a620002446200028f565b620002d1565b565b620002638282620009b860201b620030c01760201c565b60008281526001602090815260409091206200028a918390620030ce620009c8821b17901c565b505050565b600062015180600e54620002a4919062000b92565b620002b3620151804262000b92565b620002c090600162000bb5565b620002cc919062000bd0565b905090565b620002db6200028f565b8111156200032f5760405162461bcd60e51b815260206004820152601860248201527f53533a2045786365656465642063757272656e74206461790000000000000000604482015260640160405180910390fd5b600254600090620003439060019062000bd0565b90508181141562000352575050565b805b82811015620006c457600254600090821062000381576002546200037b9060019062000bd0565b62000383565b815b90506000600282815481106200039d576200039d62000bea565b906000526020600020906003020160020154620f4240620003bf919062000b70565b600854670de0b6b3a764000090620003dc90620f42409062000bb5565b620003e8919062000b70565b620003f4919062000b92565b90506000620f42406200040a61016d8462000b70565b62000416919062000b70565b82600285815481106200042d576200042d62000bea565b9060005260206000209060030201600101546200044b919062000bb5565b6006546200045a919062000b70565b62000466919062000b92565b600254909150841015620004b95780600284815481106200048b576200048b62000bea565b90600052602060002090600302016000016000828254620004ad919062000bb5565b90915550620005589050565b6002604051806060016040528083815260200160028681548110620004e257620004e262000bea565b9060005260206000209060030201600101548152602001600286815481106200050f576200050f62000bea565b6000918252602080832060039283020160029081015490945285546001808201885596845292819020855193909202909101918255830151938101939093556040909101519101555b60008051602062004ac583398151915284600285815481106200057f576200057f62000bea565b90600052602060002090600302016000015460028681548110620005a757620005a762000bea565b90600052602060002090600302016001015460028781548110620005cf57620005cf62000bea565b906000526020600020906003020160020154620005f1620009e860201b60201c565b600d60009054906101000a90046001600160a01b03166001600160a01b03166318160ddd6040518163ffffffff1660e01b815260040160206040518083038186803b1580156200064057600080fd5b505afa15801562000655573d6000803e3d6000fd5b505050506040513d601f19601f820116820180604052508101906200067b919062000c00565b604080519687526020870195909552938501929092526060840152608083015260a082015260c00160405180910390a15050508080620006bb9062000c1a565b91505062000354565b506002548214156200078c5760026040518060600160405280600081526020016002600186620006f5919062000bd0565b8154811062000708576200070862000bea565b9060005260206000209060030201600101548152602001600260018662000730919062000bd0565b8154811062000743576200074362000bea565b6000918252602080832060039283020160029081015490945285546001808201885596845292819020855193909202909101918255830151938101939093556040909101519101555b600354600090620007a09060019062000bd0565b90506000620007b160648562000b92565b9050815b818110156200098457600080620007ce60648462000b70565b90505b6064620007e084600162000bb5565b620007ec919062000b70565b811015620008c057600281815481106200080a576200080a62000bea565b906000526020600020906003020160010154600014156200082b57620008ab565b6002818154811062000841576200084162000bea565b906000526020600020906003020160010154670de0b6b3a76400006002838154811062000872576200087262000bea565b90600052602060002090600302016000015462000890919062000b70565b6200089c919062000b92565b620008a8908362000bb5565b91505b80620008b78162000c1a565b915050620007d1565b50600354821015620008f5578060038381548110620008e357620008e362000bea565b6000918252602090912001556200091a565b6003805460018101825560009190915260008051602062004a85833981519152018190555b6003547f1c9ce6f1d7f557dc59b02392857734618e6bc787c6a7c136a8bc32bed4e191119083906200094f9060019062000bd0565b604080519283526020830191909152810183905260600160405180910390a150806200097b8162000c1a565b915050620007b5565b50600354811415620009b25760038054600181018255600091825260008051602062004a8583398151915201555b50505050565b620009c4828262000a68565b5050565b6000620009df836001600160a01b03841662000b08565b90505b92915050565b600d546040516370a0823160e01b81523060048201526000916001600160a01b0316906370a082319060240160206040518083038186803b15801562000a2d57600080fd5b505afa15801562000a42573d6000803e3d6000fd5b505050506040513d601f19601f82011682018060405250810190620002cc919062000c00565b6000828152602081815260408083206001600160a01b038516845290915290205460ff16620009c4576000828152602081815260408083206001600160a01b03851684529091529020805460ff1916600117905562000ac43390565b6001600160a01b0316816001600160a01b0316837f2f8788117e7eff1d82e926ec794901d17c78024a50270940304540a733656f0d60405160405180910390a45050565b600081815260018301602052604081205462000b5157508154600181810184556000848152602080822090930184905584548482528286019093526040902091909155620009e2565b506000620009e2565b634e487b7160e01b600052601160045260246000fd5b600081600019048311821515161562000b8d5762000b8d62000b5a565b500290565b60008262000bb057634e487b7160e01b600052601260045260246000fd5b500490565b6000821982111562000bcb5762000bcb62000b5a565b500190565b60008282101562000be55762000be562000b5a565b500390565b634e487b7160e01b600052603260045260246000fd5b60006020828403121562000c1357600080fd5b5051919050565b600060001982141562000c315762000c3162000b5a565b5060010190565b613e1d8062000c486000396000f3fe608060405234801561001057600080fd5b50600436106102485760003560e01c806382c448541161013b578063ca15c873116100b8578063e06174e41161007c578063e06174e41461052e578063e225d1701461058f578063e59443e6146105af578063e99884a3146105c2578063ea580bf2146105ca57600080fd5b8063ca15c873146104ae578063d391014b146104c1578063d50116b8146104c9578063d547741f146104d1578063d5a44f86146104e457600080fd5b8063ad110a67116100ff578063ad110a6714610465578063b1b63dfc14610478578063b471468d1461048b578063c763e2fc1461049e578063c82e3067146104a657600080fd5b806382c44854146103d35780639010d07c146103e657806391d148541461041157806395f6f5d214610424578063a2ac13d31461043757600080fd5b80632f2ff15d116101c95780635540be7d1161018d5780635540be7d1461039457806358962a38146103a75780635a49e94d146103af57806365cf7c9b146103b75780637ba4bcfb146103c057600080fd5b80632f2ff15d1461034057806336568abe14610353578063388a1a81146103665780634bade67e146103795780634d9dae0e1461038157600080fd5b80631f009bdb116102105780631f009bdb146102d1578063248a9ca3146102e457806327de406f1461030757806329507f731461031a5780632a486b901461032d57600080fd5b806301ffc9a71461024d57806303ed957f146102755780630cbe28d61461028a5780630ffed08a1461029d5780631e22ddc7146102b0575b600080fd5b61026061025b366004613665565b6105dd565b60405190151581526020015b60405180910390f35b6102886102833660046136db565b610608565b005b61028861029836600461371d565b610685565b6102886102ab366004613736565b610e32565b6102c36102be36600461375f565b610f02565b60405190815260200161026c565b6102886102df3660046136db565b6114e3565b6102c36102f236600461371d565b60009081526020819052604090206001015490565b6102c361031536600461371d565b611531565b6102886103283660046137d4565b611552565b61028861033b366004613849565b611842565b61028861034e3660046137d4565b611880565b6102886103613660046137d4565b6118a2565b6102c361037436600461387f565b6118c4565b6004546102c3565b6102c361038f366004613932565b6118e3565b6102886103a2366004613849565b611b06565b6003546102c3565b6002546102c3565b6102c3600e5481565b6102886103ce36600461371d565b611b44565b6102c36103e136600461395d565b61210e565b6103f96103f436600461387f565b61212e565b6040516001600160a01b03909116815260200161026c565b61026061041f3660046137d4565b612146565b610288610432366004613989565b61216f565b61044a61044536600461371d565b61227e565b6040805193845260208401929092529082015260600161026c565b61028861047336600461371d565b6122b1565b6102c36104863660046139b5565b612948565b6102c3610499366004613932565b612a87565b6102c3612d2e565b6102c3612daf565b6102c36104bc36600461371d565b612dc5565b6102c3600081565b610288612ddc565b6102886104df3660046137d4565b612de9565b6104f76104f236600461371d565b612df3565b604080516001600160a01b0390971687526020870195909552938501929092526060840152608083015260a082015260c00161026c565b600554600654600754600854600954600a54600b54600c54610554979695949392919088565b604080519889526020890197909752958701949094526060860192909252608085015260a084015260c083015260e08201526101000161026c565b6105a261059d36600461387f565b612e43565b60405161026c91906139ea565b6102886105bd366004613a6b565b612fd0565b6102c361300f565b6102c36105d836600461387f565b613044565b60006001600160e01b03198216635a05180f60e01b14806106025750610602826130e3565b92915050565b60006106148133613118565b60005b8281101561067f5761066d84848381811061063457610634613ac2565b9050604002016000013585858481811061065057610650613ac2565b90506040020160200160208101906106689190613ad8565b61317c565b8061067781613b0b565b915050610617565b50505050565b600d546040516306fb1a0760e01b8152600360048201526000916001600160a01b0316906306fb1a079060240160206040518083038186803b1580156106ca57600080fd5b505afa1580156106de573d6000803e3d6000fd5b505050506040513d601f19601f820116820180604052508101906107029190613b26565b60405163eaa8f7e360e01b81523360048201529091506001600160a01b0382169063eaa8f7e39060240160206040518083038186803b15801561074457600080fd5b505afa158015610758573d6000803e3d6000fd5b505050506040513d601f19601f8201168201806040525081019061077c9190613b43565b156107a25760405162461bcd60e51b815260040161079990613b65565b60405180910390fd5b81600481815481106107b6576107b6613ac2565b60009182526020909120600690910201546001600160a01b031633146107ee5760405162461bcd60e51b815260040161079990613b9c565b600454839081106108115760405162461bcd60e51b815260040161079990613bd3565b836004818154811061082557610825613ac2565b9060005260206000209060060201600401546000146108565760405162461bcd60e51b815260040161079990613c0a565b61085e612ddc565b600061086861300f565b9050806004878154811061087e5761087e613ac2565b906000526020600020906006020160040181905550600d60009054906101000a90046001600160a01b03166001600160a01b0316639cff2eba303360048a815481106108cc576108cc613ac2565b60009182526020909120600160069092020101546040516001600160e01b031960e086901b1681526001600160a01b0393841660048201529290911660248301526044820152606401600060405180830381600087803b15801561092f57600080fd5b505af1158015610943573d6000803e3d6000fd5b5050505060006004878154811061095c5761095c613ac2565b9060005260206000209060060201600301546004888154811061098157610981613ac2565b90600052602060002090600602016002015461099d9190613c41565b821015610a61576000600488815481106109b9576109b9613ac2565b60009182526020918290206040805160c081018252600690930290910180546001600160a01b0316835260018101549383019390935260028301549082015260038201546060820152600480830154608083015260059092015460a0820152815490925089908110610a2d57610a2d613ac2565b90600052602060002090600602016002015483610a4a9190613c59565b6060820152610a598184612a87565b915050610ade565b610adb60048881548110610a7757610a77613ac2565b60009182526020918290206040805160c081018252600690930290910180546001600160a01b03168352600181015493830193909352600283015490820152600382015460608201526004820154608082015260059091015460a082015283612a87565b90505b8015610b4957600d54604051630bb9ff5d60e01b8152336004820152602481018390526001600160a01b0390911690630bb9ff5d90604401600060405180830381600087803b158015610b3057600080fd5b505af1158015610b44573d6000803e3d6000fd5b505050505b6000610bc660048981548110610b6157610b61613ac2565b60009182526020918290206040805160c081018252600690930290910180546001600160a01b03168352600181015493830193909352600283015490820152600382015460608201526004820154608082015260059091015460a08201528484612948565b90508015610c6c57600d546040516318a8ad8760e01b8152336004820152602481018390526001600160a01b03909116906318a8ad8790604401600060405180830381600087803b158015610c1a57600080fd5b505af1158015610c2e573d6000803e3d6000fd5b505050508060028481548110610c4657610c46613ac2565b90600052602060002090600302016000016000828254610c669190613c41565b90915550505b6000818360048b81548110610c8357610c83613ac2565b906000526020600020906006020160010154610c9f9190613c41565b610ca99190613c59565b9050600060048a81548110610cc057610cc0613ac2565b906000526020600020906006020160010154670de0b6b3a764000083610ce69190613c70565b610cf09190613ca5565b905060028581548110610d0557610d05613ac2565b906000526020600020906003020160020154811115610d81578060028681548110610d3257610d32613ac2565b9060005260206000209060030201600201819055507f56c1a5b0a3a0633173d7fc412ba79063d393f76ff0740b58e133d1ccc34ccf0781604051610d7891815260200190565b60405180910390a15b60048a81548110610d9457610d94613ac2565b90600052602060002090600602016005015460028681548110610db957610db9613ac2565b90600052602060002090600302016001016000828254610dd99190613c59565b9091555050604080518b815260208101879052908101859052606081018490527f68e2a823e3745ee73ff62ba1efa63a1b770cd0bd3568495adc9cdf11c858684d9060800160405180910390a150505050505050505050565b6000610e3e8133613118565b81356005908155602083013560065560408301356007556060830135600855608083013560095560a0830135600a5560c0830135600b5560e0830135600c55829050506040805183358152602080850135908201528184013591810191909152606080840135908201526080808401359082015260a0808401359082015260c0808401359082015260e080840135908201527fe32288882b122aa895e6ef550fc65b0439c341d34be5f1db849bb4f4e4e96f9e906101000160405180910390a15050565b600d546040516306fb1a0760e01b81526003600482015260009182916001600160a01b03909116906306fb1a079060240160206040518083038186803b158015610f4b57600080fd5b505afa158015610f5f573d6000803e3d6000fd5b505050506040513d601f19601f82011682018060405250810190610f839190613b26565b60405163eaa8f7e360e01b81523360048201529091506001600160a01b0382169063eaa8f7e39060240160206040518083038186803b158015610fc557600080fd5b505afa158015610fd9573d6000803e3d6000fd5b505050506040513d601f19601f82011682018060405250810190610ffd9190613b43565b1561101a5760405162461bcd60e51b815260040161079990613b65565b825161107c5760405162461bcd60e51b815260206004820152602b60248201527f53533a205374616b6564416d6f756e742068617320746f206265206c6172676560448201526a72207468616e207a65726f60a81b6064820152608401610799565b600d546040516370a0823160e01b81523360048201526001600160a01b03909116906370a082319060240160206040518083038186803b1580156110bf57600080fd5b505afa1580156110d3573d6000803e3d6000fd5b505050506040513d601f19601f820116820180604052508101906110f79190613cb9565b835111156111475760405162461bcd60e51b815260206004820181905260248201527f53533a205374616b6564416d6f756e7420657863656564732062616c616e63656044820152606401610799565b600b54602084015110156111b55760405162461bcd60e51b815260206004820152602f60248201527f53533a205374616b65206d757374206265206c6f636b656420666f72206d6f7260448201526e65207468616e206d696e206461797360881b6064820152608401610799565b600c54602084015111156112245760405162461bcd60e51b815260206004820152603060248201527f53533a205374616b65206d757374206265206c6f636b656420666f72206c657360448201526f73207468616e206d617820796561727360801b6064820152608401610799565b61122c612ddc565b600d548351604051634e7f975d60e11b815233600482015230602482015260448101919091526001600160a01b0390911690639cff2eba90606401600060405180830381600087803b15801561128157600080fd5b505af1158015611295573d6000803e3d6000fd5b5050505060006112a361300f565b905060006040518060c00160405280336001600160a01b03168152602001866000015181526020018381526020018660200151815260200160008152602001600081525090506112f48160006118e3565b60a082019081526004805460018082018355600083905284517f8a35acfbc15ff81a39ae7d344fd709f28e8600b4aa8c65c6b64bfe7fe36bd19b600690930292830180546001600160a01b0319166001600160a01b0390921691909117905560208501517f8a35acfbc15ff81a39ae7d344fd709f28e8600b4aa8c65c6b64bfe7fe36bd19c83015560408501517f8a35acfbc15ff81a39ae7d344fd709f28e8600b4aa8c65c6b64bfe7fe36bd19d83015560608501517f8a35acfbc15ff81a39ae7d344fd709f28e8600b4aa8c65c6b64bfe7fe36bd19e83015560808501517f8a35acfbc15ff81a39ae7d344fd709f28e8600b4aa8c65c6b64bfe7fe36bd19f83015592517f8a35acfbc15ff81a39ae7d344fd709f28e8600b4aa8c65c6b64bfe7fe36bd1a090910155546114299190613c59565b93508060a001516002838154811061144357611443613ac2565b906000526020600020906003020160010160008282546114639190613c41565b9091555050805160208083015160408085015160608087015160a08089015185518d81526001600160a01b03909916978901979097529387019490945285015260808401919091528201527fb3b7bd78c90933ee8b729da4592fa8ff3fcaad310e548c299cc82de3b4ff09ba9060c00160405180910390a1505050919050565b60005b8181101561152c5761151983838381811061150357611503613ac2565b9050604002018036038101906102be919061375f565b508061152481613b0b565b9150506114e6565b505050565b6003818154811061154157600080fd5b600091825260209091200154905081565b600d546040516306fb1a0760e01b8152600360048201526000916001600160a01b0316906306fb1a079060240160206040518083038186803b15801561159757600080fd5b505afa1580156115ab573d6000803e3d6000fd5b505050506040513d601f19601f820116820180604052508101906115cf9190613b26565b60405163eaa8f7e360e01b81523360048201529091506001600160a01b0382169063eaa8f7e39060240160206040518083038186803b15801561161157600080fd5b505afa158015611625573d6000803e3d6000fd5b505050506040513d601f19601f820116820180604052508101906116499190613b43565b156116665760405162461bcd60e51b815260040161079990613b65565b826004818154811061167a5761167a613ac2565b60009182526020909120600690910201546001600160a01b031633146116b25760405162461bcd60e51b815260040161079990613b9c565b600454849081106116d55760405162461bcd60e51b815260040161079990613bd3565b84600481815481106116e9576116e9613ac2565b90600052602060002090600602016004015460001461171a5760405162461bcd60e51b815260040161079990613c0a565b846001600160a01b03166004878154811061173757611737613ac2565b60009182526020909120600690910201546001600160a01b031614156117b65760405162461bcd60e51b815260206004820152602e60248201527f53533a204e6577206f776e6572206d75737420626520646966666572656e742060448201526d333937b69037b6321037bbb732b960911b6064820152608401610799565b6117be612ddc565b84600487815481106117d2576117d2613ac2565b60009182526020918290206006919091020180546001600160a01b0319166001600160a01b0393841617905560408051898152928816918301919091527f2cad8e3e3a0926d0a7524bd52dda355991edb76a6b44ef43e75417996062ac7a910160405180910390a1505050505050565b60005b8181101561152c5761186e83838381811061186257611862613ac2565b90506020020135610685565b8061187881613b0b565b915050611845565b61188a8282613186565b600082815260016020526040902061152c90826130ce565b6118ac828261319c565b600082815260016020526040902061152c9082613216565b60006118dc60048481548110610a7757610a77613ac2565b9392505050565b600080826118f657506060830151611922565b83604001518311156119185760408401516119119084613c59565b9050611922565b6000915050610602565b6119388161193361016d600a613c70565b61322b565b90506000600285604001518154811061195357611953613ac2565b906000526020600020906003020160020154670de0b6b3a7640000866020015161197d9190613c70565b6119879190613ca5565b9050600060028660400151815481106119a2576119a2613ac2565b90600052602060002090600302016002015461016d620f4240600a6119c79190613c70565b6119d19190613c70565b6119db9190613c70565b670de0b6b3a76400008760200151856005600301546119fa9190613c70565b611a049190613c70565b611a0e9190613c70565b611a189190613ca5565b90506000683635c9adc5dea00000876020015111611a4757600754611a4090620f4240613c41565b9050611ad5565b8660200151683635c9adc5dea00000108015611a70575069d3c21bcecceda10000008760200151105b15611acf57611a92683635c9adc5dea0000069d3c21bcecceda1000000613c59565b6020880151611aab9069d3c21bcecceda1000000613c59565b600754611ab89190613c70565b611ac29190613ca5565b611a4090620f4240613c41565b50620f42405b6000620f424082611ae68587613c41565b611af09190613c70565b611afa9190613ca5565b98975050505050505050565b60005b8181101561152c57611b32838383818110611b2657611b26613ac2565b90506020020135611b44565b80611b3c81613b0b565b915050611b09565b600d546040516306fb1a0760e01b8152600360048201526000916001600160a01b0316906306fb1a079060240160206040518083038186803b158015611b8957600080fd5b505afa158015611b9d573d6000803e3d6000fd5b505050506040513d601f19601f82011682018060405250810190611bc19190613b26565b60405163eaa8f7e360e01b81523360048201529091506001600160a01b0382169063eaa8f7e39060240160206040518083038186803b158015611c0357600080fd5b505afa158015611c17573d6000803e3d6000fd5b505050506040513d601f19601f82011682018060405250810190611c3b9190613b43565b15611c585760405162461bcd60e51b815260040161079990613b65565b8160048181548110611c6c57611c6c613ac2565b60009182526020909120600690910201546001600160a01b03163314611ca45760405162461bcd60e51b815260040161079990613b9c565b60045483908110611cc75760405162461bcd60e51b815260040161079990613bd3565b8360048181548110611cdb57611cdb613ac2565b906000526020600020906006020160040154600014611d0c5760405162461bcd60e51b815260040161079990613c0a565b611d14612ddc565b6000611d1e61300f565b905060048681548110611d3357611d33613ac2565b9060005260206000209060060201600201548111611da35760405162461bcd60e51b815260206004820152602760248201527f53533a205363726170696e6720697320617661696c61626c65206f6e636520696044820152666e20312064617960c81b6064820152608401610799565b60048681548110611db657611db6613ac2565b90600052602060002090600602016003015460048781548110611ddb57611ddb613ac2565b906000526020600020906006020160020154611df79190613c41565b8110611e6d576040805162461bcd60e51b81526020600482015260248101919091527f53533a205363726170696e6720697320617661696c61626c65206f6e6365207760448201527f68696c65207374616b6520697320496e2050726f6772657373207374617475736064820152608401610799565b600060048781548110611e8257611e82613ac2565b9060005260206000209060060201600301549050600060048881548110611eab57611eab613ac2565b906000526020600020906006020160050154905060048881548110611ed257611ed2613ac2565b90600052602060002090600602016002015483611eef9190613c59565b60048981548110611f0257611f02613ac2565b9060005260206000209060060201600301819055506000611f9060048a81548110611f2f57611f2f613ac2565b600091825260208083206040805160c081018252600690940290910180546001600160a01b0316845260018101549284019290925260028201549083015260038101546060830152600481015460808301526005015460a0820152906118e3565b9050808260028681548110611fa757611fa7613ac2565b906000526020600020906003020160010154611fc39190613c59565b611fcd9190613c41565b60028581548110611fe057611fe0613ac2565b9060005260206000209060030201600101819055508060048a8154811061200957612009613ac2565b9060005260206000209060060201600501819055507f3e2d801cabf80e21f37737b105feedef59585176ae82a611b6239e59fccaaea28960048b8154811061205357612053613ac2565b6000918252602091829020600360069092020101546040805193845291830152810183905260600160405180910390a161208c89610685565b600060048a815481106120a1576120a1613ac2565b906000526020600020906006020160030154846120be9190613c59565b9050612101604051806040016040528060048d815481106120e1576120e1613ac2565b906000526020600020906006020160010154815260200183815250610f02565b5050505050505050505050565b600061212660048581548110610b6157610b61613ac2565b949350505050565b60008281526001602052604081206118dc9083613242565b6000918252602082815260408084206001600160a01b0393909316845291905290205460ff1690565b600061217b8133613118565b612183612ddc565b600d546040516318a8ad8760e01b81526001600160a01b03858116600483015260248201859052909116906318a8ad8790604401600060405180830381600087803b1580156121d157600080fd5b505af11580156121e5573d6000803e3d6000fd5b5050505060006121f361300f565b9050826002828154811061220957612209613ac2565b906000526020600020906003020160000160008282546122299190613c41565b9091555050604080516001600160a01b0386168152602081018590529081018290527f7189d215a7191822b14df651de302b89cd288c7850a66ac6c3401cc0714dbfe79060600160405180910390a150505050565b6002818154811061228e57600080fd5b600091825260209091206003909102018054600182015460029092015490925083565b6122b961300f565b8111156123085760405162461bcd60e51b815260206004820152601860248201527f53533a2045786365656465642063757272656e742064617900000000000000006044820152606401610799565b60025460009061231a90600190613c59565b905081811415612328575050565b805b828110156126695760025460009082106123525760025461234d90600190613c59565b612354565b815b905060006002828154811061236b5761236b613ac2565b906000526020600020906003020160020154620f424061238b9190613c70565b600854670de0b6b3a7640000906123a690620f424090613c41565b6123b09190613c70565b6123ba9190613ca5565b90506000620f42406123ce61016d84613c70565b6123d89190613c70565b82600285815481106123ec576123ec613ac2565b9060005260206000209060030201600101546124089190613c41565b6006546124159190613c70565b61241f9190613ca5565b60025490915084101561246b57806002848154811061244057612440613ac2565b906000526020600020906003020160000160008282546124609190613c41565b909155506125049050565b600260405180606001604052808381526020016002868154811061249157612491613ac2565b9060005260206000209060030201600101548152602001600286815481106124bb576124bb613ac2565b6000918252602080832060039283020160029081015490945285546001808201885596845292819020855193909202909101918255830151938101939093556040909101519101555b7f45bc90c5e61be4d79e2f0c1154a663332bbccf6a26759463d04772164eebfed2846002858154811061253957612539613ac2565b9060005260206000209060030201600001546002868154811061255e5761255e613ac2565b9060005260206000209060030201600101546002878154811061258357612583613ac2565b90600052602060002090600302016002015461259d612d2e565b600d60009054906101000a90046001600160a01b03166001600160a01b03166318160ddd6040518163ffffffff1660e01b815260040160206040518083038186803b1580156125eb57600080fd5b505afa1580156125ff573d6000803e3d6000fd5b505050506040513d601f19601f820116820180604052508101906126239190613cb9565b604080519687526020870195909552938501929092526060840152608083015260a082015260c00160405180910390a1505050808061266190613b0b565b91505061232a565b5060025482141561272657600260405180606001604052806000815260200160026001866126979190613c59565b815481106126a7576126a7613ac2565b906000526020600020906003020160010154815260200160026001866126cd9190613c59565b815481106126dd576126dd613ac2565b6000918252602080832060039283020160029081015490945285546001808201885596845292819020855193909202909101918255830151938101939093556040909101519101555b60035460009061273890600190613c59565b90506000612747606485613ca5565b9050815b8181101561290557600080612761606484613c70565b90505b6064612771846001613c41565b61277b9190613c70565b81101561283a576002818154811061279557612795613ac2565b906000526020600020906003020160010154600014156127b457612828565b600281815481106127c7576127c7613ac2565b906000526020600020906003020160010154670de0b6b3a7640000600283815481106127f5576127f5613ac2565b9060005260206000209060030201600001546128119190613c70565b61281b9190613ca5565b6128259083613c41565b91505b8061283281613b0b565b915050612764565b5060035482101561286a57806003838154811061285957612859613ac2565b6000918252602090912001556128a0565b600380546001810182556000919091527fc2575a0e9e593c00f959f8c92f12db2869c3395a3b0502d05e2516446f71f85b018190555b6003547f1c9ce6f1d7f557dc59b02392857734618e6bc787c6a7c136a8bc32bed4e191119083906128d390600190613c59565b604080519283526020830191909152810183905260600160405180910390a150806128fd81613b0b565b91505061274b565b5060035481141561067f576003805460018101825560009182527fc2575a0e9e593c00f959f8c92f12db2869c3395a3b0502d05e2516446f71f85b015550505050565b60008060008560400151851161295f57600061296e565b604086015161296e9086613c59565b905060008487602001516129829190613c41565b600554909150821161299657809250612a7c565b866060015182116129de5760055460608801516129b39190613c59565b8288606001516129c39190613c59565b6129cd9083613c70565b6129d79190613ca5565b9250612a7c565b60095460608801516129f09190613c41565b82116129ff5760009250612a7c565b600a546009546060890151612a149190613c41565b612a1e9190613c41565b8211612a6257600a8054612a3191613c70565b6009546060890151612a439085613c59565b612a4d9190613c59565b612a58836009613c70565b6129cd9190613c70565b600a612a6f826009613c70565b612a799190613ca5565b92505b509095945050505050565b600082604001518211612a9c57506000610602565b600080612ab784866060015187604001516119339190613c41565b9050612ac88160028054905061322b565b90506000612ad686866118e3565b9050600060648760400151612aeb9190613ca5565b612af6906001613c41565b90506000612b0984611933606485613c70565b60408901519091505b81811015612bca5760028181548110612b2d57612b2d613ac2565b90600052602060002090600302016001015460001415612b4c57612bb8565b60028181548110612b5f57612b5f613ac2565b9060005260206000209060030201600101548460028381548110612b8557612b85613ac2565b906000526020600020906003020160000154612ba19190613c70565b612bab9190613ca5565b612bb59087613c41565b95505b80612bc281613b0b565b915050612b12565b506000612bd8606486613ca5565b9050825b81811015612c3e57670de0b6b3a76400008560038381548110612c0157612c01613ac2565b9060005260206000200154612c169190613c70565b612c209190613ca5565b612c2a9088613c41565b965080612c3681613b0b565b915050612bdc565b506000612c4c606487613cd2565b612c569087613c59565b90508960400151811115612d2057805b86811015612d1e5760028181548110612c8157612c81613ac2565b90600052602060002090600302016001015460001415612ca057612d0c565b60028181548110612cb357612cb3613ac2565b9060005260206000209060030201600101548660028381548110612cd957612cd9613ac2565b906000526020600020906003020160000154612cf59190613c70565b612cff9190613ca5565b612d099089613c41565b97505b80612d1681613b0b565b915050612c66565b505b509498975050505050505050565b600d546040516370a0823160e01b81523060048201526000916001600160a01b0316906370a082319060240160206040518083038186803b158015612d7257600080fd5b505afa158015612d86573d6000803e3d6000fd5b505050506040513d601f19601f82011682018060405250810190612daa9190613cb9565b905090565b60006064612dbb61300f565b612daa9190613ca5565b60008181526001602052604081206106029061324e565b612de761047361300f565b565b6118ac8282613258565b60048181548110612e0357600080fd5b60009182526020909120600690910201805460018201546002830154600384015460048501546005909501546001600160a01b0390941695509193909286565b6060600082612e53600186613c59565b612e5d9190613c70565b90506000612e76612e6e8587613c70565b60045461322b565b90506000612e848383613c59565b67ffffffffffffffff811115612e9c57612e9c613749565b604051908082528060200260200182016040528015612f0f57816020015b612efc6040518060c0016040528060006001600160a01b0316815260200160008152602001600081526020016000815260200160008152602001600081525090565b815260200190600190039081612eba5790505b509050825b82811015612fc65760048181548110612f2f57612f2f613ac2565b60009182526020918290206040805160c081018252600690930290910180546001600160a01b03168352600181015493830193909352600283015490820152600382015460608201526004820154608082015260059091015460a082015282612f988684613c59565b81518110612fa857612fa8613ac2565b60200260200101819052508080612fbe90613b0b565b915050612f14565b5095945050505050565b60005b8281101561067f57612ffd848483818110612ff057612ff0613ac2565b9050602002013583611552565b8061300781613b0b565b915050612fd3565b600062015180600e546130229190613ca5565b61302f6201518042613ca5565b61303a906001613c41565b612daa9190613c59565b60006118dc6004848154811061305c5761305c613ac2565b60009182526020918290206040805160c081018252600690930290910180546001600160a01b03168352600181015493830193909352600283015490820152600382015460608201526004820154608082015260059091015460a0820152836118e3565b6130ca828261327e565b5050565b60006118dc836001600160a01b038416613302565b60006001600160e01b03198216637965db0b60e01b148061060257506301ffc9a760e01b6001600160e01b0319831614610602565b6131228282612146565b6130ca5761313a816001600160a01b03166014613351565b613145836020613351565b604051602001613156929190613d12565b60408051601f198184030181529082905262461bcd60e51b825261079991600401613d87565b61188a82826130c0565b60006131928133613118565b61152c838361327e565b6001600160a01b038116331461320c5760405162461bcd60e51b815260206004820152602f60248201527f416363657373436f6e74726f6c3a2063616e206f6e6c792072656e6f756e636560448201526e103937b632b9903337b91039b2b63360891b6064820152608401610799565b6130ca82826134ed565b60006118dc836001600160a01b038416613552565b60008183101561323c575081610602565b50919050565b60006118dc838361363b565b6000610602825490565b6000828152602081905260409020600101546132748133613118565b61152c83836134ed565b6132888282612146565b6130ca576000828152602081815260408083206001600160a01b03851684529091529020805460ff191660011790556132be3390565b6001600160a01b0316816001600160a01b0316837f2f8788117e7eff1d82e926ec794901d17c78024a50270940304540a733656f0d60405160405180910390a45050565b600081815260018301602052604081205461334957508154600181810184556000848152602080822090930184905584548482528286019093526040902091909155610602565b506000610602565b60606000613360836002613c70565b61336b906002613c41565b67ffffffffffffffff81111561338357613383613749565b6040519080825280601f01601f1916602001820160405280156133ad576020820181803683370190505b509050600360fc1b816000815181106133c8576133c8613ac2565b60200101906001600160f81b031916908160001a905350600f60fb1b816001815181106133f7576133f7613ac2565b60200101906001600160f81b031916908160001a905350600061341b846002613c70565b613426906001613c41565b90505b600181111561349e576f181899199a1a9b1b9c1cb0b131b232b360811b85600f166010811061345a5761345a613ac2565b1a60f81b82828151811061347057613470613ac2565b60200101906001600160f81b031916908160001a90535060049490941c9361349781613dba565b9050613429565b5083156118dc5760405162461bcd60e51b815260206004820181905260248201527f537472696e67733a20686578206c656e67746820696e73756666696369656e746044820152606401610799565b6134f78282612146565b156130ca576000828152602081815260408083206001600160a01b0385168085529252808320805460ff1916905551339285917ff6391f5c32d9c69d2a47ea670b442974b53935d1edc7fd64eb21e047a839171b9190a45050565b60008181526001830160205260408120548015611918576000613576600183613c59565b855490915060009061358a90600190613c59565b90508181146135ef5760008660000182815481106135aa576135aa613ac2565b90600052602060002001549050808760000184815481106135cd576135cd613ac2565b6000918252602080832090910192909255918252600188019052604090208390555b855486908061360057613600613dd1565b600190038181906000526020600020016000905590558560010160008681526020019081526020016000206000905560019350505050610602565b600082600001828154811061365257613652613ac2565b9060005260206000200154905092915050565b60006020828403121561367757600080fd5b81356001600160e01b0319811681146118dc57600080fd5b60008083601f8401126136a157600080fd5b50813567ffffffffffffffff8111156136b957600080fd5b6020830191508360208260061b85010111156136d457600080fd5b9250929050565b600080602083850312156136ee57600080fd5b823567ffffffffffffffff81111561370557600080fd5b6137118582860161368f565b90969095509350505050565b60006020828403121561372f57600080fd5b5035919050565b6000610100828403121561323c57600080fd5b634e487b7160e01b600052604160045260246000fd5b60006040828403121561377157600080fd5b6040516040810181811067ffffffffffffffff821117156137a257634e487b7160e01b600052604160045260246000fd5b604052823581526020928301359281019290925250919050565b6001600160a01b03811681146137d157600080fd5b50565b600080604083850312156137e757600080fd5b8235915060208301356137f9816137bc565b809150509250929050565b60008083601f84011261381657600080fd5b50813567ffffffffffffffff81111561382e57600080fd5b6020830191508360208260051b85010111156136d457600080fd5b6000806020838503121561385c57600080fd5b823567ffffffffffffffff81111561387357600080fd5b61371185828601613804565b6000806040838503121561389257600080fd5b50508035926020909101359150565b600060c082840312156138b357600080fd5b60405160c0810181811067ffffffffffffffff821117156138e457634e487b7160e01b600052604160045260246000fd5b60405290508082356138f5816137bc565b808252506020830135602082015260408301356040820152606083013560608201526080830135608082015260a083013560a08201525092915050565b60008060e0838503121561394557600080fd5b61394f84846138a1565b9460c0939093013593505050565b60008060006060848603121561397257600080fd5b505081359360208301359350604090920135919050565b6000806040838503121561399c57600080fd5b82356139a7816137bc565b946020939093013593505050565b600080600061010084860312156139cb57600080fd5b6139d585856138a1565b9560c0850135955060e0909401359392505050565b602080825282518282018190526000919060409081850190868401855b82811015613a5e57815180516001600160a01b0316855286810151878601528581015186860152606080820151908601526080808201519086015260a0908101519085015260c09093019290850190600101613a07565b5091979650505050505050565b600080600060408486031215613a8057600080fd5b833567ffffffffffffffff811115613a9757600080fd5b613aa386828701613804565b9094509250506020840135613ab7816137bc565b809150509250925092565b634e487b7160e01b600052603260045260246000fd5b600060208284031215613aea57600080fd5b81356118dc816137bc565b634e487b7160e01b600052601160045260246000fd5b6000600019821415613b1f57613b1f613af5565b5060010190565b600060208284031215613b3857600080fd5b81516118dc816137bc565b600060208284031215613b5557600080fd5b815180151581146118dc57600080fd5b6020808252601c908201527f53533a204f6e6c79207265616c20757365727320616c6c6f7765642100000000604082015260600190565b6020808252601e908201527f53533a205374616b65206f776e657220646f6573206e6f74206d617463680000604082015260600190565b60208082526018908201527f53533a205374616b6520646f6573206e6f742065786973740000000000000000604082015260600190565b6020808252601b908201527f53533a205374616b652077617320616c726561647920656e6465640000000000604082015260600190565b60008219821115613c5457613c54613af5565b500190565b600082821015613c6b57613c6b613af5565b500390565b6000816000190483118215151615613c8a57613c8a613af5565b500290565b634e487b7160e01b600052601260045260246000fd5b600082613cb457613cb4613c8f565b500490565b600060208284031215613ccb57600080fd5b5051919050565b600082613ce157613ce1613c8f565b500690565b60005b83811015613d01578181015183820152602001613ce9565b8381111561067f5750506000910152565b7f416363657373436f6e74726f6c3a206163636f756e7420000000000000000000815260008351613d4a816017850160208801613ce6565b7001034b99036b4b9b9b4b733903937b6329607d1b6017918401918201528351613d7b816028840160208801613ce6565b01602801949350505050565b6020815260008251806020840152613da6816040850160208701613ce6565b601f01601f19169190910160400192915050565b600081613dc957613dc9613af5565b506000190190565b634e487b7160e01b600052603160045260246000fdfea264697066735822122003bfdbfaebba6f6a7eecf680dd54def452fc9f5f910491677a3b7c2b0e7140b064736f6c63430008090033405787fa12a823e0f2b7631cc41b3ba8828b3321ca811111fa75cd3aa3bb5acec2575a0e9e593c00f959f8c92f12db2869c3395a3b0502d05e2516446f71f85b405787fa12a823e0f2b7631cc41b3ba8828b3321ca811111fa75cd3aa3bb5acf45bc90c5e61be4d79e2f0c1154a663332bbccf6a26759463d04772164eebfed2405787fa12a823e0f2b7631cc41b3ba8828b3321ca811111fa75cd3aa3bb5ad0",
			"opcodes": "PUSH1 0x80 PUSH1 0x40 MSTORE PUSH1 0xD DUP1 SLOAD PUSH1 0x1 PUSH1 0x1 PUSH1 0xA0 SHL SUB NOT AND PUSH20 0xDEF1FAC7BF08F173D286BBBDCBEEADE695129840 OR SWAP1 SSTORE CALLVALUE DUP1 ISZERO PUSH3 0x37 JUMPI PUSH1 0x0 DUP1 REVERT JUMPDEST POP PUSH1 0x0 PUSH1 0x5 SSTORE PUSH3 0x61A80 PUSH1 0x6 SSTORE PUSH1 0x1E PUSH1 0x9 SSTORE PUSH3 0x58 PUSH2 0x16D PUSH1 0x2 PUSH3 0xB70 JUMP JUMPDEST PUSH1 0xA SSTORE PUSH1 0x1 PUSH1 0xB SSTORE PUSH3 0x6F PUSH2 0x16D PUSH1 0x64 PUSH3 0xB70 JUMP JUMPDEST PUSH1 0xC SSTORE PUSH3 0x2DC6C0 PUSH1 0x8 SSTORE PUSH3 0x3D090 PUSH1 0x7 SSTORE PUSH4 0x617D5839 PUSH1 0xE SSTORE PUSH1 0x40 DUP1 MLOAD PUSH1 0x60 DUP1 DUP3 ADD DUP4 MSTORE PUSH1 0x0 DUP1 DUP4 MSTORE PUSH1 0x20 DUP1 DUP5 ADD DUP3 DUP2 MSTORE PUSH8 0xDE0B6B3A7640000 DUP6 DUP8 ADD DUP2 DUP2 MSTORE PUSH1 0x2 DUP1 SLOAD PUSH1 0x1 DUP2 ADD DUP3 SSTORE SWAP1 DUP7 MSTORE SWAP7 MLOAD PUSH1 0x0 DUP1 MLOAD PUSH1 0x20 PUSH3 0x4A65 DUP4 CODECOPY DUP2 MLOAD SWAP2 MSTORE PUSH1 0x3 SWAP1 SWAP9 MUL SWAP8 DUP9 ADD SSTORE SWAP2 MLOAD PUSH1 0x0 DUP1 MLOAD PUSH1 0x20 PUSH3 0x4AA5 DUP4 CODECOPY DUP2 MLOAD SWAP2 MSTORE DUP8 ADD SSTORE SWAP1 MLOAD PUSH1 0x0 DUP1 MLOAD PUSH1 0x20 PUSH3 0x4AE5 DUP4 CODECOPY DUP2 MLOAD SWAP2 MSTORE SWAP1 SWAP6 ADD SWAP5 SWAP1 SWAP5 SSTORE DUP5 MLOAD DUP3 DUP2 MSTORE SWAP1 DUP2 ADD DUP3 SWAP1 MSTORE SWAP4 DUP5 ADD DUP2 SWAP1 MSTORE SWAP1 DUP4 ADD SWAP2 SWAP1 SWAP2 MSTORE PUSH1 0x80 DUP3 ADD DUP2 SWAP1 MSTORE PUSH1 0xA0 DUP3 ADD MSTORE PUSH1 0x0 DUP1 MLOAD PUSH1 0x20 PUSH3 0x4AC5 DUP4 CODECOPY DUP2 MLOAD SWAP2 MSTORE SWAP1 PUSH1 0xC0 ADD PUSH1 0x40 MLOAD DUP1 SWAP2 SUB SWAP1 LOG1 PUSH1 0x40 DUP1 MLOAD PUSH1 0x60 DUP2 ADD DUP3 MSTORE PUSH1 0x0 DUP1 DUP3 MSTORE PUSH1 0x20 DUP3 ADD DUP2 DUP2 MSTORE PUSH8 0xDE0B6B3A7640000 DUP4 DUP6 ADD DUP2 DUP2 MSTORE PUSH1 0x2 DUP1 SLOAD PUSH1 0x1 DUP2 DUP2 ADD DUP4 SSTORE SWAP2 DUP7 MSTORE SWAP6 MLOAD PUSH1 0x3 SWAP7 DUP8 MUL PUSH1 0x0 DUP1 MLOAD PUSH1 0x20 PUSH3 0x4A65 DUP4 CODECOPY DUP2 MLOAD SWAP2 MSTORE DUP2 ADD SWAP2 SWAP1 SWAP2 SSTORE SWAP4 MLOAD PUSH1 0x0 DUP1 MLOAD PUSH1 0x20 PUSH3 0x4AA5 DUP4 CODECOPY DUP2 MLOAD SWAP2 MSTORE DUP6 ADD SSTORE SWAP1 MLOAD PUSH1 0x0 DUP1 MLOAD PUSH1 0x20 PUSH3 0x4AE5 DUP4 CODECOPY DUP2 MLOAD SWAP2 MSTORE SWAP1 SWAP4 ADD SWAP3 SWAP1 SWAP3 SSTORE DUP4 SLOAD SWAP2 DUP3 ADD DUP5 SSTORE SWAP3 DUP3 MSTORE PUSH1 0x0 DUP1 MLOAD PUSH1 0x20 PUSH3 0x4A85 DUP4 CODECOPY DUP2 MLOAD SWAP2 MSTORE ADD SSTORE SWAP1 MLOAD PUSH32 0x56C1A5B0A3A0633173D7FC412BA79063D393F76FF0740B58E133D1CCC34CCF07 SWAP2 PUSH3 0x211 SWAP2 SWAP1 DUP2 MSTORE PUSH1 0x20 ADD SWAP1 JUMP JUMPDEST PUSH1 0x40 MLOAD DUP1 SWAP2 SUB SWAP1 LOG1 PUSH3 0x223 PUSH3 0x236 JUMP JUMPDEST PUSH3 0x230 PUSH1 0x0 CALLER PUSH3 0x24C JUMP JUMPDEST PUSH3 0xC38 JUMP JUMPDEST PUSH3 0x24A PUSH3 0x244 PUSH3 0x28F JUMP JUMPDEST PUSH3 0x2D1 JUMP JUMPDEST JUMP JUMPDEST PUSH3 0x263 DUP3 DUP3 PUSH3 0x9B8 PUSH1 0x20 SHL PUSH3 0x30C0 OR PUSH1 0x20 SHR JUMP JUMPDEST PUSH1 0x0 DUP3 DUP2 MSTORE PUSH1 0x1 PUSH1 0x20 SWAP1 DUP2 MSTORE PUSH1 0x40 SWAP1 SWAP2 KECCAK256 PUSH3 0x28A SWAP2 DUP4 SWAP1 PUSH3 0x30CE PUSH3 0x9C8 DUP3 SHL OR SWAP1 SHR JUMP JUMPDEST POP POP POP JUMP JUMPDEST PUSH1 0x0 PUSH3 0x15180 PUSH1 0xE SLOAD PUSH3 0x2A4 SWAP2 SWAP1 PUSH3 0xB92 JUMP JUMPDEST PUSH3 0x2B3 PUSH3 0x15180 TIMESTAMP PUSH3 0xB92 JUMP JUMPDEST PUSH3 0x2C0 SWAP1 PUSH1 0x1 PUSH3 0xBB5 JUMP JUMPDEST PUSH3 0x2CC SWAP2 SWAP1 PUSH3 0xBD0 JUMP JUMPDEST SWAP1 POP SWAP1 JUMP JUMPDEST PUSH3 0x2DB PUSH3 0x28F JUMP JUMPDEST DUP2 GT ISZERO PUSH3 0x32F JUMPI PUSH1 0x40 MLOAD PUSH3 0x461BCD PUSH1 0xE5 SHL DUP2 MSTORE PUSH1 0x20 PUSH1 0x4 DUP3 ADD MSTORE PUSH1 0x18 PUSH1 0x24 DUP3 ADD MSTORE PUSH32 0x53533A2045786365656465642063757272656E74206461790000000000000000 PUSH1 0x44 DUP3 ADD MSTORE PUSH1 0x64 ADD PUSH1 0x40 MLOAD DUP1 SWAP2 SUB SWAP1 REVERT JUMPDEST PUSH1 0x2 SLOAD PUSH1 0x0 SWAP1 PUSH3 0x343 SWAP1 PUSH1 0x1 SWAP1 PUSH3 0xBD0 JUMP JUMPDEST SWAP1 POP DUP2 DUP2 EQ ISZERO PUSH3 0x352 JUMPI POP POP JUMP JUMPDEST DUP1 JUMPDEST DUP3 DUP2 LT ISZERO PUSH3 0x6C4 JUMPI PUSH1 0x2 SLOAD PUSH1 0x0 SWAP1 DUP3 LT PUSH3 0x381 JUMPI PUSH1 0x2 SLOAD PUSH3 0x37B SWAP1 PUSH1 0x1 SWAP1 PUSH3 0xBD0 JUMP JUMPDEST PUSH3 0x383 JUMP JUMPDEST DUP2 JUMPDEST SWAP1 POP PUSH1 0x0 PUSH1 0x2 DUP3 DUP2 SLOAD DUP2 LT PUSH3 0x39D JUMPI PUSH3 0x39D PUSH3 0xBEA JUMP JUMPDEST SWAP1 PUSH1 0x0 MSTORE PUSH1 0x20 PUSH1 0x0 KECCAK256 SWAP1 PUSH1 0x3 MUL ADD PUSH1 0x2 ADD SLOAD PUSH3 0xF4240 PUSH3 0x3BF SWAP2 SWAP1 PUSH3 0xB70 JUMP JUMPDEST PUSH1 0x8 SLOAD PUSH8 0xDE0B6B3A7640000 SWAP1 PUSH3 0x3DC SWAP1 PUSH3 0xF4240 SWAP1 PUSH3 0xBB5 JUMP JUMPDEST PUSH3 0x3E8 SWAP2 SWAP1 PUSH3 0xB70 JUMP JUMPDEST PUSH3 0x3F4 SWAP2 SWAP1 PUSH3 0xB92 JUMP JUMPDEST SWAP1 POP PUSH1 0x0 PUSH3 0xF4240 PUSH3 0x40A PUSH2 0x16D DUP5 PUSH3 0xB70 JUMP JUMPDEST PUSH3 0x416 SWAP2 SWAP1 PUSH3 0xB70 JUMP JUMPDEST DUP3 PUSH1 0x2 DUP6 DUP2 SLOAD DUP2 LT PUSH3 0x42D JUMPI PUSH3 0x42D PUSH3 0xBEA JUMP JUMPDEST SWAP1 PUSH1 0x0 MSTORE PUSH1 0x20 PUSH1 0x0 KECCAK256 SWAP1 PUSH1 0x3 MUL ADD PUSH1 0x1 ADD SLOAD PUSH3 0x44B SWAP2 SWAP1 PUSH3 0xBB5 JUMP JUMPDEST PUSH1 0x6 SLOAD PUSH3 0x45A SWAP2 SWAP1 PUSH3 0xB70 JUMP JUMPDEST PUSH3 0x466 SWAP2 SWAP1 PUSH3 0xB92 JUMP JUMPDEST PUSH1 0x2 SLOAD SWAP1 SWAP2 POP DUP5 LT ISZERO PUSH3 0x4B9 JUMPI DUP1 PUSH1 0x2 DUP5 DUP2 SLOAD DUP2 LT PUSH3 0x48B JUMPI PUSH3 0x48B PUSH3 0xBEA JUMP JUMPDEST SWAP1 PUSH1 0x0 MSTORE PUSH1 0x20 PUSH1 0x0 KECCAK256 SWAP1 PUSH1 0x3 MUL ADD PUSH1 0x0 ADD PUSH1 0x0 DUP3 DUP3 SLOAD PUSH3 0x4AD SWAP2 SWAP1 PUSH3 0xBB5 JUMP JUMPDEST SWAP1 SWAP2 SSTORE POP PUSH3 0x558 SWAP1 POP JUMP JUMPDEST PUSH1 0x2 PUSH1 0x40 MLOAD DUP1 PUSH1 0x60 ADD PUSH1 0x40 MSTORE DUP1 DUP4 DUP2 MSTORE PUSH1 0x20 ADD PUSH1 0x2 DUP7 DUP2 SLOAD DUP2 LT PUSH3 0x4E2 JUMPI PUSH3 0x4E2 PUSH3 0xBEA JUMP JUMPDEST SWAP1 PUSH1 0x0 MSTORE PUSH1 0x20 PUSH1 0x0 KECCAK256 SWAP1 PUSH1 0x3 MUL ADD PUSH1 0x1 ADD SLOAD DUP2 MSTORE PUSH1 0x20 ADD PUSH1 0x2 DUP7 DUP2 SLOAD DUP2 LT PUSH3 0x50F JUMPI PUSH3 0x50F PUSH3 0xBEA JUMP JUMPDEST PUSH1 0x0 SWAP2 DUP3 MSTORE PUSH1 0x20 DUP1 DUP4 KECCAK256 PUSH1 0x3 SWAP3 DUP4 MUL ADD PUSH1 0x2 SWAP1 DUP2 ADD SLOAD SWAP1 SWAP5 MSTORE DUP6 SLOAD PUSH1 0x1 DUP1 DUP3 ADD DUP9 SSTORE SWAP7 DUP5 MSTORE SWAP3 DUP2 SWAP1 KECCAK256 DUP6 MLOAD SWAP4 SWAP1 SWAP3 MUL SWAP1 SWAP2 ADD SWAP2 DUP3 SSTORE DUP4 ADD MLOAD SWAP4 DUP2 ADD SWAP4 SWAP1 SWAP4 SSTORE PUSH1 0x40 SWAP1 SWAP2 ADD MLOAD SWAP2 ADD SSTORE JUMPDEST PUSH1 0x0 DUP1 MLOAD PUSH1 0x20 PUSH3 0x4AC5 DUP4 CODECOPY DUP2 MLOAD SWAP2 MSTORE DUP5 PUSH1 0x2 DUP6 DUP2 SLOAD DUP2 LT PUSH3 0x57F JUMPI PUSH3 0x57F PUSH3 0xBEA JUMP JUMPDEST SWAP1 PUSH1 0x0 MSTORE PUSH1 0x20 PUSH1 0x0 KECCAK256 SWAP1 PUSH1 0x3 MUL ADD PUSH1 0x0 ADD SLOAD PUSH1 0x2 DUP7 DUP2 SLOAD DUP2 LT PUSH3 0x5A7 JUMPI PUSH3 0x5A7 PUSH3 0xBEA JUMP JUMPDEST SWAP1 PUSH1 0x0 MSTORE PUSH1 0x20 PUSH1 0x0 KECCAK256 SWAP1 PUSH1 0x3 MUL ADD PUSH1 0x1 ADD SLOAD PUSH1 0x2 DUP8 DUP2 SLOAD DUP2 LT PUSH3 0x5CF JUMPI PUSH3 0x5CF PUSH3 0xBEA JUMP JUMPDEST SWAP1 PUSH1 0x0 MSTORE PUSH1 0x20 PUSH1 0x0 KECCAK256 SWAP1 PUSH1 0x3 MUL ADD PUSH1 0x2 ADD SLOAD PUSH3 0x5F1 PUSH3 0x9E8 PUSH1 0x20 SHL PUSH1 0x20 SHR JUMP JUMPDEST PUSH1 0xD PUSH1 0x0 SWAP1 SLOAD SWAP1 PUSH2 0x100 EXP SWAP1 DIV PUSH1 0x1 PUSH1 0x1 PUSH1 0xA0 SHL SUB AND PUSH1 0x1 PUSH1 0x1 PUSH1 0xA0 SHL SUB AND PUSH4 0x18160DDD PUSH1 0x40 MLOAD DUP2 PUSH4 0xFFFFFFFF AND PUSH1 0xE0 SHL DUP2 MSTORE PUSH1 0x4 ADD PUSH1 0x20 PUSH1 0x40 MLOAD DUP1 DUP4 SUB DUP2 DUP7 DUP1 EXTCODESIZE ISZERO DUP1 ISZERO PUSH3 0x640 JUMPI PUSH1 0x0 DUP1 REVERT JUMPDEST POP GAS STATICCALL ISZERO DUP1 ISZERO PUSH3 0x655 JUMPI RETURNDATASIZE PUSH1 0x0 DUP1 RETURNDATACOPY RETURNDATASIZE PUSH1 0x0 REVERT JUMPDEST POP POP POP POP PUSH1 0x40 MLOAD RETURNDATASIZE PUSH1 0x1F NOT PUSH1 0x1F DUP3 ADD AND DUP3 ADD DUP1 PUSH1 0x40 MSTORE POP DUP2 ADD SWAP1 PUSH3 0x67B SWAP2 SWAP1 PUSH3 0xC00 JUMP JUMPDEST PUSH1 0x40 DUP1 MLOAD SWAP7 DUP8 MSTORE PUSH1 0x20 DUP8 ADD SWAP6 SWAP1 SWAP6 MSTORE SWAP4 DUP6 ADD SWAP3 SWAP1 SWAP3 MSTORE PUSH1 0x60 DUP5 ADD MSTORE PUSH1 0x80 DUP4 ADD MSTORE PUSH1 0xA0 DUP3 ADD MSTORE PUSH1 0xC0 ADD PUSH1 0x40 MLOAD DUP1 SWAP2 SUB SWAP1 LOG1 POP POP POP DUP1 DUP1 PUSH3 0x6BB SWAP1 PUSH3 0xC1A JUMP JUMPDEST SWAP2 POP POP PUSH3 0x354 JUMP JUMPDEST POP PUSH1 0x2 SLOAD DUP3 EQ ISZERO PUSH3 0x78C JUMPI PUSH1 0x2 PUSH1 0x40 MLOAD DUP1 PUSH1 0x60 ADD PUSH1 0x40 MSTORE DUP1 PUSH1 0x0 DUP2 MSTORE PUSH1 0x20 ADD PUSH1 0x2 PUSH1 0x1 DUP7 PUSH3 0x6F5 SWAP2 SWAP1 PUSH3 0xBD0 JUMP JUMPDEST DUP2 SLOAD DUP2 LT PUSH3 0x708 JUMPI PUSH3 0x708 PUSH3 0xBEA JUMP JUMPDEST SWAP1 PUSH1 0x0 MSTORE PUSH1 0x20 PUSH1 0x0 KECCAK256 SWAP1 PUSH1 0x3 MUL ADD PUSH1 0x1 ADD SLOAD DUP2 MSTORE PUSH1 0x20 ADD PUSH1 0x2 PUSH1 0x1 DUP7 PUSH3 0x730 SWAP2 SWAP1 PUSH3 0xBD0 JUMP JUMPDEST DUP2 SLOAD DUP2 LT PUSH3 0x743 JUMPI PUSH3 0x743 PUSH3 0xBEA JUMP JUMPDEST PUSH1 0x0 SWAP2 DUP3 MSTORE PUSH1 0x20 DUP1 DUP4 KECCAK256 PUSH1 0x3 SWAP3 DUP4 MUL ADD PUSH1 0x2 SWAP1 DUP2 ADD SLOAD SWAP1 SWAP5 MSTORE DUP6 SLOAD PUSH1 0x1 DUP1 DUP3 ADD DUP9 SSTORE SWAP7 DUP5 MSTORE SWAP3 DUP2 SWAP1 KECCAK256 DUP6 MLOAD SWAP4 SWAP1 SWAP3 MUL SWAP1 SWAP2 ADD SWAP2 DUP3 SSTORE DUP4 ADD MLOAD SWAP4 DUP2 ADD SWAP4 SWAP1 SWAP4 SSTORE PUSH1 0x40 SWAP1 SWAP2 ADD MLOAD SWAP2 ADD SSTORE JUMPDEST PUSH1 0x3 SLOAD PUSH1 0x0 SWAP1 PUSH3 0x7A0 SWAP1 PUSH1 0x1 SWAP1 PUSH3 0xBD0 JUMP JUMPDEST SWAP1 POP PUSH1 0x0 PUSH3 0x7B1 PUSH1 0x64 DUP6 PUSH3 0xB92 JUMP JUMPDEST SWAP1 POP DUP2 JUMPDEST DUP2 DUP2 LT ISZERO PUSH3 0x984 JUMPI PUSH1 0x0 DUP1 PUSH3 0x7CE PUSH1 0x64 DUP5 PUSH3 0xB70 JUMP JUMPDEST SWAP1 POP JUMPDEST PUSH1 0x64 PUSH3 0x7E0 DUP5 PUSH1 0x1 PUSH3 0xBB5 JUMP JUMPDEST PUSH3 0x7EC SWAP2 SWAP1 PUSH3 0xB70 JUMP JUMPDEST DUP2 LT ISZERO PUSH3 0x8C0 JUMPI PUSH1 0x2 DUP2 DUP2 SLOAD DUP2 LT PUSH3 0x80A JUMPI PUSH3 0x80A PUSH3 0xBEA JUMP JUMPDEST SWAP1 PUSH1 0x0 MSTORE PUSH1 0x20 PUSH1 0x0 KECCAK256 SWAP1 PUSH1 0x3 MUL ADD PUSH1 0x1 ADD SLOAD PUSH1 0x0 EQ ISZERO PUSH3 0x82B JUMPI PUSH3 0x8AB JUMP JUMPDEST PUSH1 0x2 DUP2 DUP2 SLOAD DUP2 LT PUSH3 0x841 JUMPI PUSH3 0x841 PUSH3 0xBEA JUMP JUMPDEST SWAP1 PUSH1 0x0 MSTORE PUSH1 0x20 PUSH1 0x0 KECCAK256 SWAP1 PUSH1 0x3 MUL ADD PUSH1 0x1 ADD SLOAD PUSH8 0xDE0B6B3A7640000 PUSH1 0x2 DUP4 DUP2 SLOAD DUP2 LT PUSH3 0x872 JUMPI PUSH3 0x872 PUSH3 0xBEA JUMP JUMPDEST SWAP1 PUSH1 0x0 MSTORE PUSH1 0x20 PUSH1 0x0 KECCAK256 SWAP1 PUSH1 0x3 MUL ADD PUSH1 0x0 ADD SLOAD PUSH3 0x890 SWAP2 SWAP1 PUSH3 0xB70 JUMP JUMPDEST PUSH3 0x89C SWAP2 SWAP1 PUSH3 0xB92 JUMP JUMPDEST PUSH3 0x8A8 SWAP1 DUP4 PUSH3 0xBB5 JUMP JUMPDEST SWAP2 POP JUMPDEST DUP1 PUSH3 0x8B7 DUP2 PUSH3 0xC1A JUMP JUMPDEST SWAP2 POP POP PUSH3 0x7D1 JUMP JUMPDEST POP PUSH1 0x3 SLOAD DUP3 LT ISZERO PUSH3 0x8F5 JUMPI DUP1 PUSH1 0x3 DUP4 DUP2 SLOAD DUP2 LT PUSH3 0x8E3 JUMPI PUSH3 0x8E3 PUSH3 0xBEA JUMP JUMPDEST PUSH1 0x0 SWAP2 DUP3 MSTORE PUSH1 0x20 SWAP1 SWAP2 KECCAK256 ADD SSTORE PUSH3 0x91A JUMP JUMPDEST PUSH1 0x3 DUP1 SLOAD PUSH1 0x1 DUP2 ADD DUP3 SSTORE PUSH1 0x0 SWAP2 SWAP1 SWAP2 MSTORE PUSH1 0x0 DUP1 MLOAD PUSH1 0x20 PUSH3 0x4A85 DUP4 CODECOPY DUP2 MLOAD SWAP2 MSTORE ADD DUP2 SWAP1 SSTORE JUMPDEST PUSH1 0x3 SLOAD PUSH32 0x1C9CE6F1D7F557DC59B02392857734618E6BC787C6A7C136A8BC32BED4E19111 SWAP1 DUP4 SWAP1 PUSH3 0x94F SWAP1 PUSH1 0x1 SWAP1 PUSH3 0xBD0 JUMP JUMPDEST PUSH1 0x40 DUP1 MLOAD SWAP3 DUP4 MSTORE PUSH1 0x20 DUP4 ADD SWAP2 SWAP1 SWAP2 MSTORE DUP2 ADD DUP4 SWAP1 MSTORE PUSH1 0x60 ADD PUSH1 0x40 MLOAD DUP1 SWAP2 SUB SWAP1 LOG1 POP DUP1 PUSH3 0x97B DUP2 PUSH3 0xC1A JUMP JUMPDEST SWAP2 POP POP PUSH3 0x7B5 JUMP JUMPDEST POP PUSH1 0x3 SLOAD DUP2 EQ ISZERO PUSH3 0x9B2 JUMPI PUSH1 0x3 DUP1 SLOAD PUSH1 0x1 DUP2 ADD DUP3 SSTORE PUSH1 0x0 SWAP2 DUP3 MSTORE PUSH1 0x0 DUP1 MLOAD PUSH1 0x20 PUSH3 0x4A85 DUP4 CODECOPY DUP2 MLOAD SWAP2 MSTORE ADD SSTORE JUMPDEST POP POP POP POP JUMP JUMPDEST PUSH3 0x9C4 DUP3 DUP3 PUSH3 0xA68 JUMP JUMPDEST POP POP JUMP JUMPDEST PUSH1 0x0 PUSH3 0x9DF DUP4 PUSH1 0x1 PUSH1 0x1 PUSH1 0xA0 SHL SUB DUP5 AND PUSH3 0xB08 JUMP JUMPDEST SWAP1 POP JUMPDEST SWAP3 SWAP2 POP POP JUMP JUMPDEST PUSH1 0xD SLOAD PUSH1 0x40 MLOAD PUSH4 0x70A08231 PUSH1 0xE0 SHL DUP2 MSTORE ADDRESS PUSH1 0x4 DUP3 ADD MSTORE PUSH1 0x0 SWAP2 PUSH1 0x1 PUSH1 0x1 PUSH1 0xA0 SHL SUB AND SWAP1 PUSH4 0x70A08231 SWAP1 PUSH1 0x24 ADD PUSH1 0x20 PUSH1 0x40 MLOAD DUP1 DUP4 SUB DUP2 DUP7 DUP1 EXTCODESIZE ISZERO DUP1 ISZERO PUSH3 0xA2D JUMPI PUSH1 0x0 DUP1 REVERT JUMPDEST POP GAS STATICCALL ISZERO DUP1 ISZERO PUSH3 0xA42 JUMPI RETURNDATASIZE PUSH1 0x0 DUP1 RETURNDATACOPY RETURNDATASIZE PUSH1 0x0 REVERT JUMPDEST POP POP POP POP PUSH1 0x40 MLOAD RETURNDATASIZE PUSH1 0x1F NOT PUSH1 0x1F DUP3 ADD AND DUP3 ADD DUP1 PUSH1 0x40 MSTORE POP DUP2 ADD SWAP1 PUSH3 0x2CC SWAP2 SWAP1 PUSH3 0xC00 JUMP JUMPDEST PUSH1 0x0 DUP3 DUP2 MSTORE PUSH1 0x20 DUP2 DUP2 MSTORE PUSH1 0x40 DUP1 DUP4 KECCAK256 PUSH1 0x1 PUSH1 0x1 PUSH1 0xA0 SHL SUB DUP6 AND DUP5 MSTORE SWAP1 SWAP2 MSTORE SWAP1 KECCAK256 SLOAD PUSH1 0xFF AND PUSH3 0x9C4 JUMPI PUSH1 0x0 DUP3 DUP2 MSTORE PUSH1 0x20 DUP2 DUP2 MSTORE PUSH1 0x40 DUP1 DUP4 KECCAK256 PUSH1 0x1 PUSH1 0x1 PUSH1 0xA0 SHL SUB DUP6 AND DUP5 MSTORE SWAP1 SWAP2 MSTORE SWAP1 KECCAK256 DUP1 SLOAD PUSH1 0xFF NOT AND PUSH1 0x1 OR SWAP1 SSTORE PUSH3 0xAC4 CALLER SWAP1 JUMP JUMPDEST PUSH1 0x1 PUSH1 0x1 PUSH1 0xA0 SHL SUB AND DUP2 PUSH1 0x1 PUSH1 0x1 PUSH1 0xA0 SHL SUB AND DUP4 PUSH32 0x2F8788117E7EFF1D82E926EC794901D17C78024A50270940304540A733656F0D PUSH1 0x40 MLOAD PUSH1 0x40 MLOAD DUP1 SWAP2 SUB SWAP1 LOG4 POP POP JUMP JUMPDEST PUSH1 0x0 DUP2 DUP2 MSTORE PUSH1 0x1 DUP4 ADD PUSH1 0x20 MSTORE PUSH1 0x40 DUP2 KECCAK256 SLOAD PUSH3 0xB51 JUMPI POP DUP2 SLOAD PUSH1 0x1 DUP2 DUP2 ADD DUP5 SSTORE PUSH1 0x0 DUP5 DUP2 MSTORE PUSH1 0x20 DUP1 DUP3 KECCAK256 SWAP1 SWAP4 ADD DUP5 SWAP1 SSTORE DUP5 SLOAD DUP5 DUP3 MSTORE DUP3 DUP7 ADD SWAP1 SWAP4 MSTORE PUSH1 0x40 SWAP1 KECCAK256 SWAP2 SWAP1 SWAP2 SSTORE PUSH3 0x9E2 JUMP JUMPDEST POP PUSH1 0x0 PUSH3 0x9E2 JUMP JUMPDEST PUSH4 0x4E487B71 PUSH1 0xE0 SHL PUSH1 0x0 MSTORE PUSH1 0x11 PUSH1 0x4 MSTORE PUSH1 0x24 PUSH1 0x0 REVERT JUMPDEST PUSH1 0x0 DUP2 PUSH1 0x0 NOT DIV DUP4 GT DUP3 ISZERO ISZERO AND ISZERO PUSH3 0xB8D JUMPI PUSH3 0xB8D PUSH3 0xB5A JUMP JUMPDEST POP MUL SWAP1 JUMP JUMPDEST PUSH1 0x0 DUP3 PUSH3 0xBB0 JUMPI PUSH4 0x4E487B71 PUSH1 0xE0 SHL PUSH1 0x0 MSTORE PUSH1 0x12 PUSH1 0x4 MSTORE PUSH1 0x24 PUSH1 0x0 REVERT JUMPDEST POP DIV SWAP1 JUMP JUMPDEST PUSH1 0x0 DUP3 NOT DUP3 GT ISZERO PUSH3 0xBCB JUMPI PUSH3 0xBCB PUSH3 0xB5A JUMP JUMPDEST POP ADD SWAP1 JUMP JUMPDEST PUSH1 0x0 DUP3 DUP3 LT ISZERO PUSH3 0xBE5 JUMPI PUSH3 0xBE5 PUSH3 0xB5A JUMP JUMPDEST POP SUB SWAP1 JUMP JUMPDEST PUSH4 0x4E487B71 PUSH1 0xE0 SHL PUSH1 0x0 MSTORE PUSH1 0x32 PUSH1 0x4 MSTORE PUSH1 0x24 PUSH1 0x0 REVERT JUMPDEST PUSH1 0x0 PUSH1 0x20 DUP3 DUP5 SUB SLT ISZERO PUSH3 0xC13 JUMPI PUSH1 0x0 DUP1 REVERT JUMPDEST POP MLOAD SWAP2 SWAP1 POP JUMP JUMPDEST PUSH1 0x0 PUSH1 0x0 NOT DUP3 EQ ISZERO PUSH3 0xC31 JUMPI PUSH3 0xC31 PUSH3 0xB5A JUMP JUMPDEST POP PUSH1 0x1 ADD SWAP1 JUMP JUMPDEST PUSH2 0x3E1D DUP1 PUSH3 0xC48 PUSH1 0x0 CODECOPY PUSH1 0x0 RETURN INVALID PUSH1 0x80 PUSH1 0x40 MSTORE CALLVALUE DUP1 ISZERO PUSH2 0x10 JUMPI PUSH1 0x0 DUP1 REVERT JUMPDEST POP PUSH1 0x4 CALLDATASIZE LT PUSH2 0x248 JUMPI PUSH1 0x0 CALLDATALOAD PUSH1 0xE0 SHR DUP1 PUSH4 0x82C44854 GT PUSH2 0x13B JUMPI DUP1 PUSH4 0xCA15C873 GT PUSH2 0xB8 JUMPI DUP1 PUSH4 0xE06174E4 GT PUSH2 0x7C JUMPI DUP1 PUSH4 0xE06174E4 EQ PUSH2 0x52E JUMPI DUP1 PUSH4 0xE225D170 EQ PUSH2 0x58F JUMPI DUP1 PUSH4 0xE59443E6 EQ PUSH2 0x5AF JUMPI DUP1 PUSH4 0xE99884A3 EQ PUSH2 0x5C2 JUMPI DUP1 PUSH4 0xEA580BF2 EQ PUSH2 0x5CA JUMPI PUSH1 0x0 DUP1 REVERT JUMPDEST DUP1 PUSH4 0xCA15C873 EQ PUSH2 0x4AE JUMPI DUP1 PUSH4 0xD391014B EQ PUSH2 0x4C1 JUMPI DUP1 PUSH4 0xD50116B8 EQ PUSH2 0x4C9 JUMPI DUP1 PUSH4 0xD547741F EQ PUSH2 0x4D1 JUMPI DUP1 PUSH4 0xD5A44F86 EQ PUSH2 0x4E4 JUMPI PUSH1 0x0 DUP1 REVERT JUMPDEST DUP1 PUSH4 0xAD110A67 GT PUSH2 0xFF JUMPI DUP1 PUSH4 0xAD110A67 EQ PUSH2 0x465 JUMPI DUP1 PUSH4 0xB1B63DFC EQ PUSH2 0x478 JUMPI DUP1 PUSH4 0xB471468D EQ PUSH2 0x48B JUMPI DUP1 PUSH4 0xC763E2FC EQ PUSH2 0x49E JUMPI DUP1 PUSH4 0xC82E3067 EQ PUSH2 0x4A6 JUMPI PUSH1 0x0 DUP1 REVERT JUMPDEST DUP1 PUSH4 0x82C44854 EQ PUSH2 0x3D3 JUMPI DUP1 PUSH4 0x9010D07C EQ PUSH2 0x3E6 JUMPI DUP1 PUSH4 0x91D14854 EQ PUSH2 0x411 JUMPI DUP1 PUSH4 0x95F6F5D2 EQ PUSH2 0x424 JUMPI DUP1 PUSH4 0xA2AC13D3 EQ PUSH2 0x437 JUMPI PUSH1 0x0 DUP1 REVERT JUMPDEST DUP1 PUSH4 0x2F2FF15D GT PUSH2 0x1C9 JUMPI DUP1 PUSH4 0x5540BE7D GT PUSH2 0x18D JUMPI DUP1 PUSH4 0x5540BE7D EQ PUSH2 0x394 JUMPI DUP1 PUSH4 0x58962A38 EQ PUSH2 0x3A7 JUMPI DUP1 PUSH4 0x5A49E94D EQ PUSH2 0x3AF JUMPI DUP1 PUSH4 0x65CF7C9B EQ PUSH2 0x3B7 JUMPI DUP1 PUSH4 0x7BA4BCFB EQ PUSH2 0x3C0 JUMPI PUSH1 0x0 DUP1 REVERT JUMPDEST DUP1 PUSH4 0x2F2FF15D EQ PUSH2 0x340 JUMPI DUP1 PUSH4 0x36568ABE EQ PUSH2 0x353 JUMPI DUP1 PUSH4 0x388A1A81 EQ PUSH2 0x366 JUMPI DUP1 PUSH4 0x4BADE67E EQ PUSH2 0x379 JUMPI DUP1 PUSH4 0x4D9DAE0E EQ PUSH2 0x381 JUMPI PUSH1 0x0 DUP1 REVERT JUMPDEST DUP1 PUSH4 0x1F009BDB GT PUSH2 0x210 JUMPI DUP1 PUSH4 0x1F009BDB EQ PUSH2 0x2D1 JUMPI DUP1 PUSH4 0x248A9CA3 EQ PUSH2 0x2E4 JUMPI DUP1 PUSH4 0x27DE406F EQ PUSH2 0x307 JUMPI DUP1 PUSH4 0x29507F73 EQ PUSH2 0x31A JUMPI DUP1 PUSH4 0x2A486B90 EQ PUSH2 0x32D JUMPI PUSH1 0x0 DUP1 REVERT JUMPDEST DUP1 PUSH4 0x1FFC9A7 EQ PUSH2 0x24D JUMPI DUP1 PUSH4 0x3ED957F EQ PUSH2 0x275 JUMPI DUP1 PUSH4 0xCBE28D6 EQ PUSH2 0x28A JUMPI DUP1 PUSH4 0xFFED08A EQ PUSH2 0x29D JUMPI DUP1 PUSH4 0x1E22DDC7 EQ PUSH2 0x2B0 JUMPI JUMPDEST PUSH1 0x0 DUP1 REVERT JUMPDEST PUSH2 0x260 PUSH2 0x25B CALLDATASIZE PUSH1 0x4 PUSH2 0x3665 JUMP JUMPDEST PUSH2 0x5DD JUMP JUMPDEST PUSH1 0x40 MLOAD SWAP1 ISZERO ISZERO DUP2 MSTORE PUSH1 0x20 ADD JUMPDEST PUSH1 0x40 MLOAD DUP1 SWAP2 SUB SWAP1 RETURN JUMPDEST PUSH2 0x288 PUSH2 0x283 CALLDATASIZE PUSH1 0x4 PUSH2 0x36DB JUMP JUMPDEST PUSH2 0x608 JUMP JUMPDEST STOP JUMPDEST PUSH2 0x288 PUSH2 0x298 CALLDATASIZE PUSH1 0x4 PUSH2 0x371D JUMP JUMPDEST PUSH2 0x685 JUMP JUMPDEST PUSH2 0x288 PUSH2 0x2AB CALLDATASIZE PUSH1 0x4 PUSH2 0x3736 JUMP JUMPDEST PUSH2 0xE32 JUMP JUMPDEST PUSH2 0x2C3 PUSH2 0x2BE CALLDATASIZE PUSH1 0x4 PUSH2 0x375F JUMP JUMPDEST PUSH2 0xF02 JUMP JUMPDEST PUSH1 0x40 MLOAD SWAP1 DUP2 MSTORE PUSH1 0x20 ADD PUSH2 0x26C JUMP JUMPDEST PUSH2 0x288 PUSH2 0x2DF CALLDATASIZE PUSH1 0x4 PUSH2 0x36DB JUMP JUMPDEST PUSH2 0x14E3 JUMP JUMPDEST PUSH2 0x2C3 PUSH2 0x2F2 CALLDATASIZE PUSH1 0x4 PUSH2 0x371D JUMP JUMPDEST PUSH1 0x0 SWAP1 DUP2 MSTORE PUSH1 0x20 DUP2 SWAP1 MSTORE PUSH1 0x40 SWAP1 KECCAK256 PUSH1 0x1 ADD SLOAD SWAP1 JUMP JUMPDEST PUSH2 0x2C3 PUSH2 0x315 CALLDATASIZE PUSH1 0x4 PUSH2 0x371D JUMP JUMPDEST PUSH2 0x1531 JUMP JUMPDEST PUSH2 0x288 PUSH2 0x328 CALLDATASIZE PUSH1 0x4 PUSH2 0x37D4 JUMP JUMPDEST PUSH2 0x1552 JUMP JUMPDEST PUSH2 0x288 PUSH2 0x33B CALLDATASIZE PUSH1 0x4 PUSH2 0x3849 JUMP JUMPDEST PUSH2 0x1842 JUMP JUMPDEST PUSH2 0x288 PUSH2 0x34E CALLDATASIZE PUSH1 0x4 PUSH2 0x37D4 JUMP JUMPDEST PUSH2 0x1880 JUMP JUMPDEST PUSH2 0x288 PUSH2 0x361 CALLDATASIZE PUSH1 0x4 PUSH2 0x37D4 JUMP JUMPDEST PUSH2 0x18A2 JUMP JUMPDEST PUSH2 0x2C3 PUSH2 0x374 CALLDATASIZE PUSH1 0x4 PUSH2 0x387F JUMP JUMPDEST PUSH2 0x18C4 JUMP JUMPDEST PUSH1 0x4 SLOAD PUSH2 0x2C3 JUMP JUMPDEST PUSH2 0x2C3 PUSH2 0x38F CALLDATASIZE PUSH1 0x4 PUSH2 0x3932 JUMP JUMPDEST PUSH2 0x18E3 JUMP JUMPDEST PUSH2 0x288 PUSH2 0x3A2 CALLDATASIZE PUSH1 0x4 PUSH2 0x3849 JUMP JUMPDEST PUSH2 0x1B06 JUMP JUMPDEST PUSH1 0x3 SLOAD PUSH2 0x2C3 JUMP JUMPDEST PUSH1 0x2 SLOAD PUSH2 0x2C3 JUMP JUMPDEST PUSH2 0x2C3 PUSH1 0xE SLOAD DUP2 JUMP JUMPDEST PUSH2 0x288 PUSH2 0x3CE CALLDATASIZE PUSH1 0x4 PUSH2 0x371D JUMP JUMPDEST PUSH2 0x1B44 JUMP JUMPDEST PUSH2 0x2C3 PUSH2 0x3E1 CALLDATASIZE PUSH1 0x4 PUSH2 0x395D JUMP JUMPDEST PUSH2 0x210E JUMP JUMPDEST PUSH2 0x3F9 PUSH2 0x3F4 CALLDATASIZE PUSH1 0x4 PUSH2 0x387F JUMP JUMPDEST PUSH2 0x212E JUMP JUMPDEST PUSH1 0x40 MLOAD PUSH1 0x1 PUSH1 0x1 PUSH1 0xA0 SHL SUB SWAP1 SWAP2 AND DUP2 MSTORE PUSH1 0x20 ADD PUSH2 0x26C JUMP JUMPDEST PUSH2 0x260 PUSH2 0x41F CALLDATASIZE PUSH1 0x4 PUSH2 0x37D4 JUMP JUMPDEST PUSH2 0x2146 JUMP JUMPDEST PUSH2 0x288 PUSH2 0x432 CALLDATASIZE PUSH1 0x4 PUSH2 0x3989 JUMP JUMPDEST PUSH2 0x216F JUMP JUMPDEST PUSH2 0x44A PUSH2 0x445 CALLDATASIZE PUSH1 0x4 PUSH2 0x371D JUMP JUMPDEST PUSH2 0x227E JUMP JUMPDEST PUSH1 0x40 DUP1 MLOAD SWAP4 DUP5 MSTORE PUSH1 0x20 DUP5 ADD SWAP3 SWAP1 SWAP3 MSTORE SWAP1 DUP3 ADD MSTORE PUSH1 0x60 ADD PUSH2 0x26C JUMP JUMPDEST PUSH2 0x288 PUSH2 0x473 CALLDATASIZE PUSH1 0x4 PUSH2 0x371D JUMP JUMPDEST PUSH2 0x22B1 JUMP JUMPDEST PUSH2 0x2C3 PUSH2 0x486 CALLDATASIZE PUSH1 0x4 PUSH2 0x39B5 JUMP JUMPDEST PUSH2 0x2948 JUMP JUMPDEST PUSH2 0x2C3 PUSH2 0x499 CALLDATASIZE PUSH1 0x4 PUSH2 0x3932 JUMP JUMPDEST PUSH2 0x2A87 JUMP JUMPDEST PUSH2 0x2C3 PUSH2 0x2D2E JUMP JUMPDEST PUSH2 0x2C3 PUSH2 0x2DAF JUMP JUMPDEST PUSH2 0x2C3 PUSH2 0x4BC CALLDATASIZE PUSH1 0x4 PUSH2 0x371D JUMP JUMPDEST PUSH2 0x2DC5 JUMP JUMPDEST PUSH2 0x2C3 PUSH1 0x0 DUP2 JUMP JUMPDEST PUSH2 0x288 PUSH2 0x2DDC JUMP JUMPDEST PUSH2 0x288 PUSH2 0x4DF CALLDATASIZE PUSH1 0x4 PUSH2 0x37D4 JUMP JUMPDEST PUSH2 0x2DE9 JUMP JUMPDEST PUSH2 0x4F7 PUSH2 0x4F2 CALLDATASIZE PUSH1 0x4 PUSH2 0x371D JUMP JUMPDEST PUSH2 0x2DF3 JUMP JUMPDEST PUSH1 0x40 DUP1 MLOAD PUSH1 0x1 PUSH1 0x1 PUSH1 0xA0 SHL SUB SWAP1 SWAP8 AND DUP8 MSTORE PUSH1 0x20 DUP8 ADD SWAP6 SWAP1 SWAP6 MSTORE SWAP4 DUP6 ADD SWAP3 SWAP1 SWAP3 MSTORE PUSH1 0x60 DUP5 ADD MSTORE PUSH1 0x80 DUP4 ADD MSTORE PUSH1 0xA0 DUP3 ADD MSTORE PUSH1 0xC0 ADD PUSH2 0x26C JUMP JUMPDEST PUSH1 0x5 SLOAD PUSH1 0x6 SLOAD PUSH1 0x7 SLOAD PUSH1 0x8 SLOAD PUSH1 0x9 SLOAD PUSH1 0xA SLOAD PUSH1 0xB SLOAD PUSH1 0xC SLOAD PUSH2 0x554 SWAP8 SWAP7 SWAP6 SWAP5 SWAP4 SWAP3 SWAP2 SWAP1 DUP9 JUMP JUMPDEST PUSH1 0x40 DUP1 MLOAD SWAP9 DUP10 MSTORE PUSH1 0x20 DUP10 ADD SWAP8 SWAP1 SWAP8 MSTORE SWAP6 DUP8 ADD SWAP5 SWAP1 SWAP5 MSTORE PUSH1 0x60 DUP7 ADD SWAP3 SWAP1 SWAP3 MSTORE PUSH1 0x80 DUP6 ADD MSTORE PUSH1 0xA0 DUP5 ADD MSTORE PUSH1 0xC0 DUP4 ADD MSTORE PUSH1 0xE0 DUP3 ADD MSTORE PUSH2 0x100 ADD PUSH2 0x26C JUMP JUMPDEST PUSH2 0x5A2 PUSH2 0x59D CALLDATASIZE PUSH1 0x4 PUSH2 0x387F JUMP JUMPDEST PUSH2 0x2E43 JUMP JUMPDEST PUSH1 0x40 MLOAD PUSH2 0x26C SWAP2 SWAP1 PUSH2 0x39EA JUMP JUMPDEST PUSH2 0x288 PUSH2 0x5BD CALLDATASIZE PUSH1 0x4 PUSH2 0x3A6B JUMP JUMPDEST PUSH2 0x2FD0 JUMP JUMPDEST PUSH2 0x2C3 PUSH2 0x300F JUMP JUMPDEST PUSH2 0x2C3 PUSH2 0x5D8 CALLDATASIZE PUSH1 0x4 PUSH2 0x387F JUMP JUMPDEST PUSH2 0x3044 JUMP JUMPDEST PUSH1 0x0 PUSH1 0x1 PUSH1 0x1 PUSH1 0xE0 SHL SUB NOT DUP3 AND PUSH4 0x5A05180F PUSH1 0xE0 SHL EQ DUP1 PUSH2 0x602 JUMPI POP PUSH2 0x602 DUP3 PUSH2 0x30E3 JUMP JUMPDEST SWAP3 SWAP2 POP POP JUMP JUMPDEST PUSH1 0x0 PUSH2 0x614 DUP2 CALLER PUSH2 0x3118 JUMP JUMPDEST PUSH1 0x0 JUMPDEST DUP3 DUP2 LT ISZERO PUSH2 0x67F JUMPI PUSH2 0x66D DUP5 DUP5 DUP4 DUP2 DUP2 LT PUSH2 0x634 JUMPI PUSH2 0x634 PUSH2 0x3AC2 JUMP JUMPDEST SWAP1 POP PUSH1 0x40 MUL ADD PUSH1 0x0 ADD CALLDATALOAD DUP6 DUP6 DUP5 DUP2 DUP2 LT PUSH2 0x650 JUMPI PUSH2 0x650 PUSH2 0x3AC2 JUMP JUMPDEST SWAP1 POP PUSH1 0x40 MUL ADD PUSH1 0x20 ADD PUSH1 0x20 DUP2 ADD SWAP1 PUSH2 0x668 SWAP2 SWAP1 PUSH2 0x3AD8 JUMP JUMPDEST PUSH2 0x317C JUMP JUMPDEST DUP1 PUSH2 0x677 DUP2 PUSH2 0x3B0B JUMP JUMPDEST SWAP2 POP POP PUSH2 0x617 JUMP JUMPDEST POP POP POP POP JUMP JUMPDEST PUSH1 0xD SLOAD PUSH1 0x40 MLOAD PUSH4 0x6FB1A07 PUSH1 0xE0 SHL DUP2 MSTORE PUSH1 0x3 PUSH1 0x4 DUP3 ADD MSTORE PUSH1 0x0 SWAP2 PUSH1 0x1 PUSH1 0x1 PUSH1 0xA0 SHL SUB AND SWAP1 PUSH4 0x6FB1A07 SWAP1 PUSH1 0x24 ADD PUSH1 0x20 PUSH1 0x40 MLOAD DUP1 DUP4 SUB DUP2 DUP7 DUP1 EXTCODESIZE ISZERO DUP1 ISZERO PUSH2 0x6CA JUMPI PUSH1 0x0 DUP1 REVERT JUMPDEST POP GAS STATICCALL ISZERO DUP1 ISZERO PUSH2 0x6DE JUMPI RETURNDATASIZE PUSH1 0x0 DUP1 RETURNDATACOPY RETURNDATASIZE PUSH1 0x0 REVERT JUMPDEST POP POP POP POP PUSH1 0x40 MLOAD RETURNDATASIZE PUSH1 0x1F NOT PUSH1 0x1F DUP3 ADD AND DUP3 ADD DUP1 PUSH1 0x40 MSTORE POP DUP2 ADD SWAP1 PUSH2 0x702 SWAP2 SWAP1 PUSH2 0x3B26 JUMP JUMPDEST PUSH1 0x40 MLOAD PUSH4 0xEAA8F7E3 PUSH1 0xE0 SHL DUP2 MSTORE CALLER PUSH1 0x4 DUP3 ADD MSTORE SWAP1 SWAP2 POP PUSH1 0x1 PUSH1 0x1 PUSH1 0xA0 SHL SUB DUP3 AND SWAP1 PUSH4 0xEAA8F7E3 SWAP1 PUSH1 0x24 ADD PUSH1 0x20 PUSH1 0x40 MLOAD DUP1 DUP4 SUB DUP2 DUP7 DUP1 EXTCODESIZE ISZERO DUP1 ISZERO PUSH2 0x744 JUMPI PUSH1 0x0 DUP1 REVERT JUMPDEST POP GAS STATICCALL ISZERO DUP1 ISZERO PUSH2 0x758 JUMPI RETURNDATASIZE PUSH1 0x0 DUP1 RETURNDATACOPY RETURNDATASIZE PUSH1 0x0 REVERT JUMPDEST POP POP POP POP PUSH1 0x40 MLOAD RETURNDATASIZE PUSH1 0x1F NOT PUSH1 0x1F DUP3 ADD AND DUP3 ADD DUP1 PUSH1 0x40 MSTORE POP DUP2 ADD SWAP1 PUSH2 0x77C SWAP2 SWAP1 PUSH2 0x3B43 JUMP JUMPDEST ISZERO PUSH2 0x7A2 JUMPI PUSH1 0x40 MLOAD PUSH3 0x461BCD PUSH1 0xE5 SHL DUP2 MSTORE PUSH1 0x4 ADD PUSH2 0x799 SWAP1 PUSH2 0x3B65 JUMP JUMPDEST PUSH1 0x40 MLOAD DUP1 SWAP2 SUB SWAP1 REVERT JUMPDEST DUP2 PUSH1 0x4 DUP2 DUP2 SLOAD DUP2 LT PUSH2 0x7B6 JUMPI PUSH2 0x7B6 PUSH2 0x3AC2 JUMP JUMPDEST PUSH1 0x0 SWAP2 DUP3 MSTORE PUSH1 0x20 SWAP1 SWAP2 KECCAK256 PUSH1 0x6 SWAP1 SWAP2 MUL ADD SLOAD PUSH1 0x1 PUSH1 0x1 PUSH1 0xA0 SHL SUB AND CALLER EQ PUSH2 0x7EE JUMPI PUSH1 0x40 MLOAD PUSH3 0x461BCD PUSH1 0xE5 SHL DUP2 MSTORE PUSH1 0x4 ADD PUSH2 0x799 SWAP1 PUSH2 0x3B9C JUMP JUMPDEST PUSH1 0x4 SLOAD DUP4 SWAP1 DUP2 LT PUSH2 0x811 JUMPI PUSH1 0x40 MLOAD PUSH3 0x461BCD PUSH1 0xE5 SHL DUP2 MSTORE PUSH1 0x4 ADD PUSH2 0x799 SWAP1 PUSH2 0x3BD3 JUMP JUMPDEST DUP4 PUSH1 0x4 DUP2 DUP2 SLOAD DUP2 LT PUSH2 0x825 JUMPI PUSH2 0x825 PUSH2 0x3AC2 JUMP JUMPDEST SWAP1 PUSH1 0x0 MSTORE PUSH1 0x20 PUSH1 0x0 KECCAK256 SWAP1 PUSH1 0x6 MUL ADD PUSH1 0x4 ADD SLOAD PUSH1 0x0 EQ PUSH2 0x856 JUMPI PUSH1 0x40 MLOAD PUSH3 0x461BCD PUSH1 0xE5 SHL DUP2 MSTORE PUSH1 0x4 ADD PUSH2 0x799 SWAP1 PUSH2 0x3C0A JUMP JUMPDEST PUSH2 0x85E PUSH2 0x2DDC JUMP JUMPDEST PUSH1 0x0 PUSH2 0x868 PUSH2 0x300F JUMP JUMPDEST SWAP1 POP DUP1 PUSH1 0x4 DUP8 DUP2 SLOAD DUP2 LT PUSH2 0x87E JUMPI PUSH2 0x87E PUSH2 0x3AC2 JUMP JUMPDEST SWAP1 PUSH1 0x0 MSTORE PUSH1 0x20 PUSH1 0x0 KECCAK256 SWAP1 PUSH1 0x6 MUL ADD PUSH1 0x4 ADD DUP2 SWAP1 SSTORE POP PUSH1 0xD PUSH1 0x0 SWAP1 SLOAD SWAP1 PUSH2 0x100 EXP SWAP1 DIV PUSH1 0x1 PUSH1 0x1 PUSH1 0xA0 SHL SUB AND PUSH1 0x1 PUSH1 0x1 PUSH1 0xA0 SHL SUB AND PUSH4 0x9CFF2EBA ADDRESS CALLER PUSH1 0x4 DUP11 DUP2 SLOAD DUP2 LT PUSH2 0x8CC JUMPI PUSH2 0x8CC PUSH2 0x3AC2 JUMP JUMPDEST PUSH1 0x0 SWAP2 DUP3 MSTORE PUSH1 0x20 SWAP1 SWAP2 KECCAK256 PUSH1 0x1 PUSH1 0x6 SWAP1 SWAP3 MUL ADD ADD SLOAD PUSH1 0x40 MLOAD PUSH1 0x1 PUSH1 0x1 PUSH1 0xE0 SHL SUB NOT PUSH1 0xE0 DUP7 SWAP1 SHL AND DUP2 MSTORE PUSH1 0x1 PUSH1 0x1 PUSH1 0xA0 SHL SUB SWAP4 DUP5 AND PUSH1 0x4 DUP3 ADD MSTORE SWAP3 SWAP1 SWAP2 AND PUSH1 0x24 DUP4 ADD MSTORE PUSH1 0x44 DUP3 ADD MSTORE PUSH1 0x64 ADD PUSH1 0x0 PUSH1 0x40 MLOAD DUP1 DUP4 SUB DUP2 PUSH1 0x0 DUP8 DUP1 EXTCODESIZE ISZERO DUP1 ISZERO PUSH2 0x92F JUMPI PUSH1 0x0 DUP1 REVERT JUMPDEST POP GAS CALL ISZERO DUP1 ISZERO PUSH2 0x943 JUMPI RETURNDATASIZE PUSH1 0x0 DUP1 RETURNDATACOPY RETURNDATASIZE PUSH1 0x0 REVERT JUMPDEST POP POP POP POP PUSH1 0x0 PUSH1 0x4 DUP8 DUP2 SLOAD DUP2 LT PUSH2 0x95C JUMPI PUSH2 0x95C PUSH2 0x3AC2 JUMP JUMPDEST SWAP1 PUSH1 0x0 MSTORE PUSH1 0x20 PUSH1 0x0 KECCAK256 SWAP1 PUSH1 0x6 MUL ADD PUSH1 0x3 ADD SLOAD PUSH1 0x4 DUP9 DUP2 SLOAD DUP2 LT PUSH2 0x981 JUMPI PUSH2 0x981 PUSH2 0x3AC2 JUMP JUMPDEST SWAP1 PUSH1 0x0 MSTORE PUSH1 0x20 PUSH1 0x0 KECCAK256 SWAP1 PUSH1 0x6 MUL ADD PUSH1 0x2 ADD SLOAD PUSH2 0x99D SWAP2 SWAP1 PUSH2 0x3C41 JUMP JUMPDEST DUP3 LT ISZERO PUSH2 0xA61 JUMPI PUSH1 0x0 PUSH1 0x4 DUP9 DUP2 SLOAD DUP2 LT PUSH2 0x9B9 JUMPI PUSH2 0x9B9 PUSH2 0x3AC2 JUMP JUMPDEST PUSH1 0x0 SWAP2 DUP3 MSTORE PUSH1 0x20 SWAP2 DUP3 SWAP1 KECCAK256 PUSH1 0x40 DUP1 MLOAD PUSH1 0xC0 DUP2 ADD DUP3 MSTORE PUSH1 0x6 SWAP1 SWAP4 MUL SWAP1 SWAP2 ADD DUP1 SLOAD PUSH1 0x1 PUSH1 0x1 PUSH1 0xA0 SHL SUB AND DUP4 MSTORE PUSH1 0x1 DUP2 ADD SLOAD SWAP4 DUP4 ADD SWAP4 SWAP1 SWAP4 MSTORE PUSH1 0x2 DUP4 ADD SLOAD SWAP1 DUP3 ADD MSTORE PUSH1 0x3 DUP3 ADD SLOAD PUSH1 0x60 DUP3 ADD MSTORE PUSH1 0x4 DUP1 DUP4 ADD SLOAD PUSH1 0x80 DUP4 ADD MSTORE PUSH1 0x5 SWAP1 SWAP3 ADD SLOAD PUSH1 0xA0 DUP3 ADD MSTORE DUP2 SLOAD SWAP1 SWAP3 POP DUP10 SWAP1 DUP2 LT PUSH2 0xA2D JUMPI PUSH2 0xA2D PUSH2 0x3AC2 JUMP JUMPDEST SWAP1 PUSH1 0x0 MSTORE PUSH1 0x20 PUSH1 0x0 KECCAK256 SWAP1 PUSH1 0x6 MUL ADD PUSH1 0x2 ADD SLOAD DUP4 PUSH2 0xA4A SWAP2 SWAP1 PUSH2 0x3C59 JUMP JUMPDEST PUSH1 0x60 DUP3 ADD MSTORE PUSH2 0xA59 DUP2 DUP5 PUSH2 0x2A87 JUMP JUMPDEST SWAP2 POP POP PUSH2 0xADE JUMP JUMPDEST PUSH2 0xADB PUSH1 0x4 DUP9 DUP2 SLOAD DUP2 LT PUSH2 0xA77 JUMPI PUSH2 0xA77 PUSH2 0x3AC2 JUMP JUMPDEST PUSH1 0x0 SWAP2 DUP3 MSTORE PUSH1 0x20 SWAP2 DUP3 SWAP1 KECCAK256 PUSH1 0x40 DUP1 MLOAD PUSH1 0xC0 DUP2 ADD DUP3 MSTORE PUSH1 0x6 SWAP1 SWAP4 MUL SWAP1 SWAP2 ADD DUP1 SLOAD PUSH1 0x1 PUSH1 0x1 PUSH1 0xA0 SHL SUB AND DUP4 MSTORE PUSH1 0x1 DUP2 ADD SLOAD SWAP4 DUP4 ADD SWAP4 SWAP1 SWAP4 MSTORE PUSH1 0x2 DUP4 ADD SLOAD SWAP1 DUP3 ADD MSTORE PUSH1 0x3 DUP3 ADD SLOAD PUSH1 0x60 DUP3 ADD MSTORE PUSH1 0x4 DUP3 ADD SLOAD PUSH1 0x80 DUP3 ADD MSTORE PUSH1 0x5 SWAP1 SWAP2 ADD SLOAD PUSH1 0xA0 DUP3 ADD MSTORE DUP4 PUSH2 0x2A87 JUMP JUMPDEST SWAP1 POP JUMPDEST DUP1 ISZERO PUSH2 0xB49 JUMPI PUSH1 0xD SLOAD PUSH1 0x40 MLOAD PUSH4 0xBB9FF5D PUSH1 0xE0 SHL DUP2 MSTORE CALLER PUSH1 0x4 DUP3 ADD MSTORE PUSH1 0x24 DUP2 ADD DUP4 SWAP1 MSTORE PUSH1 0x1 PUSH1 0x1 PUSH1 0xA0 SHL SUB SWAP1 SWAP2 AND SWAP1 PUSH4 0xBB9FF5D SWAP1 PUSH1 0x44 ADD PUSH1 0x0 PUSH1 0x40 MLOAD DUP1 DUP4 SUB DUP2 PUSH1 0x0 DUP8 DUP1 EXTCODESIZE ISZERO DUP1 ISZERO PUSH2 0xB30 JUMPI PUSH1 0x0 DUP1 REVERT JUMPDEST POP GAS CALL ISZERO DUP1 ISZERO PUSH2 0xB44 JUMPI RETURNDATASIZE PUSH1 0x0 DUP1 RETURNDATACOPY RETURNDATASIZE PUSH1 0x0 REVERT JUMPDEST POP POP POP POP JUMPDEST PUSH1 0x0 PUSH2 0xBC6 PUSH1 0x4 DUP10 DUP2 SLOAD DUP2 LT PUSH2 0xB61 JUMPI PUSH2 0xB61 PUSH2 0x3AC2 JUMP JUMPDEST PUSH1 0x0 SWAP2 DUP3 MSTORE PUSH1 0x20 SWAP2 DUP3 SWAP1 KECCAK256 PUSH1 0x40 DUP1 MLOAD PUSH1 0xC0 DUP2 ADD DUP3 MSTORE PUSH1 0x6 SWAP1 SWAP4 MUL SWAP1 SWAP2 ADD DUP1 SLOAD PUSH1 0x1 PUSH1 0x1 PUSH1 0xA0 SHL SUB AND DUP4 MSTORE PUSH1 0x1 DUP2 ADD SLOAD SWAP4 DUP4 ADD SWAP4 SWAP1 SWAP4 MSTORE PUSH1 0x2 DUP4 ADD SLOAD SWAP1 DUP3 ADD MSTORE PUSH1 0x3 DUP3 ADD SLOAD PUSH1 0x60 DUP3 ADD MSTORE PUSH1 0x4 DUP3 ADD SLOAD PUSH1 0x80 DUP3 ADD MSTORE PUSH1 0x5 SWAP1 SWAP2 ADD SLOAD PUSH1 0xA0 DUP3 ADD MSTORE DUP5 DUP5 PUSH2 0x2948 JUMP JUMPDEST SWAP1 POP DUP1 ISZERO PUSH2 0xC6C JUMPI PUSH1 0xD SLOAD PUSH1 0x40 MLOAD PUSH4 0x18A8AD87 PUSH1 0xE0 SHL DUP2 MSTORE CALLER PUSH1 0x4 DUP3 ADD MSTORE PUSH1 0x24 DUP2 ADD DUP4 SWAP1 MSTORE PUSH1 0x1 PUSH1 0x1 PUSH1 0xA0 SHL SUB SWAP1 SWAP2 AND SWAP1 PUSH4 0x18A8AD87 SWAP1 PUSH1 0x44 ADD PUSH1 0x0 PUSH1 0x40 MLOAD DUP1 DUP4 SUB DUP2 PUSH1 0x0 DUP8 DUP1 EXTCODESIZE ISZERO DUP1 ISZERO PUSH2 0xC1A JUMPI PUSH1 0x0 DUP1 REVERT JUMPDEST POP GAS CALL ISZERO DUP1 ISZERO PUSH2 0xC2E JUMPI RETURNDATASIZE PUSH1 0x0 DUP1 RETURNDATACOPY RETURNDATASIZE PUSH1 0x0 REVERT JUMPDEST POP POP POP POP DUP1 PUSH1 0x2 DUP5 DUP2 SLOAD DUP2 LT PUSH2 0xC46 JUMPI PUSH2 0xC46 PUSH2 0x3AC2 JUMP JUMPDEST SWAP1 PUSH1 0x0 MSTORE PUSH1 0x20 PUSH1 0x0 KECCAK256 SWAP1 PUSH1 0x3 MUL ADD PUSH1 0x0 ADD PUSH1 0x0 DUP3 DUP3 SLOAD PUSH2 0xC66 SWAP2 SWAP1 PUSH2 0x3C41 JUMP JUMPDEST SWAP1 SWAP2 SSTORE POP POP JUMPDEST PUSH1 0x0 DUP2 DUP4 PUSH1 0x4 DUP12 DUP2 SLOAD DUP2 LT PUSH2 0xC83 JUMPI PUSH2 0xC83 PUSH2 0x3AC2 JUMP JUMPDEST SWAP1 PUSH1 0x0 MSTORE PUSH1 0x20 PUSH1 0x0 KECCAK256 SWAP1 PUSH1 0x6 MUL ADD PUSH1 0x1 ADD SLOAD PUSH2 0xC9F SWAP2 SWAP1 PUSH2 0x3C41 JUMP JUMPDEST PUSH2 0xCA9 SWAP2 SWAP1 PUSH2 0x3C59 JUMP JUMPDEST SWAP1 POP PUSH1 0x0 PUSH1 0x4 DUP11 DUP2 SLOAD DUP2 LT PUSH2 0xCC0 JUMPI PUSH2 0xCC0 PUSH2 0x3AC2 JUMP JUMPDEST SWAP1 PUSH1 0x0 MSTORE PUSH1 0x20 PUSH1 0x0 KECCAK256 SWAP1 PUSH1 0x6 MUL ADD PUSH1 0x1 ADD SLOAD PUSH8 0xDE0B6B3A7640000 DUP4 PUSH2 0xCE6 SWAP2 SWAP1 PUSH2 0x3C70 JUMP JUMPDEST PUSH2 0xCF0 SWAP2 SWAP1 PUSH2 0x3CA5 JUMP JUMPDEST SWAP1 POP PUSH1 0x2 DUP6 DUP2 SLOAD DUP2 LT PUSH2 0xD05 JUMPI PUSH2 0xD05 PUSH2 0x3AC2 JUMP JUMPDEST SWAP1 PUSH1 0x0 MSTORE PUSH1 0x20 PUSH1 0x0 KECCAK256 SWAP1 PUSH1 0x3 MUL ADD PUSH1 0x2 ADD SLOAD DUP2 GT ISZERO PUSH2 0xD81 JUMPI DUP1 PUSH1 0x2 DUP7 DUP2 SLOAD DUP2 LT PUSH2 0xD32 JUMPI PUSH2 0xD32 PUSH2 0x3AC2 JUMP JUMPDEST SWAP1 PUSH1 0x0 MSTORE PUSH1 0x20 PUSH1 0x0 KECCAK256 SWAP1 PUSH1 0x3 MUL ADD PUSH1 0x2 ADD DUP2 SWAP1 SSTORE POP PUSH32 0x56C1A5B0A3A0633173D7FC412BA79063D393F76FF0740B58E133D1CCC34CCF07 DUP2 PUSH1 0x40 MLOAD PUSH2 0xD78 SWAP2 DUP2 MSTORE PUSH1 0x20 ADD SWAP1 JUMP JUMPDEST PUSH1 0x40 MLOAD DUP1 SWAP2 SUB SWAP1 LOG1 JUMPDEST PUSH1 0x4 DUP11 DUP2 SLOAD DUP2 LT PUSH2 0xD94 JUMPI PUSH2 0xD94 PUSH2 0x3AC2 JUMP JUMPDEST SWAP1 PUSH1 0x0 MSTORE PUSH1 0x20 PUSH1 0x0 KECCAK256 SWAP1 PUSH1 0x6 MUL ADD PUSH1 0x5 ADD SLOAD PUSH1 0x2 DUP7 DUP2 SLOAD DUP2 LT PUSH2 0xDB9 JUMPI PUSH2 0xDB9 PUSH2 0x3AC2 JUMP JUMPDEST SWAP1 PUSH1 0x0 MSTORE PUSH1 0x20 PUSH1 0x0 KECCAK256 SWAP1 PUSH1 0x3 MUL ADD PUSH1 0x1 ADD PUSH1 0x0 DUP3 DUP3 SLOAD PUSH2 0xDD9 SWAP2 SWAP1 PUSH2 0x3C59 JUMP JUMPDEST SWAP1 SWAP2 SSTORE POP POP PUSH1 0x40 DUP1 MLOAD DUP12 DUP2 MSTORE PUSH1 0x20 DUP2 ADD DUP8 SWAP1 MSTORE SWAP1 DUP2 ADD DUP6 SWAP1 MSTORE PUSH1 0x60 DUP2 ADD DUP5 SWAP1 MSTORE PUSH32 0x68E2A823E3745EE73FF62BA1EFA63A1B770CD0BD3568495ADC9CDF11C858684D SWAP1 PUSH1 0x80 ADD PUSH1 0x40 MLOAD DUP1 SWAP2 SUB SWAP1 LOG1 POP POP POP POP POP POP POP POP POP POP JUMP JUMPDEST PUSH1 0x0 PUSH2 0xE3E DUP2 CALLER PUSH2 0x3118 JUMP JUMPDEST DUP2 CALLDATALOAD PUSH1 0x5 SWAP1 DUP2 SSTORE PUSH1 0x20 DUP4 ADD CALLDATALOAD PUSH1 0x6 SSTORE PUSH1 0x40 DUP4 ADD CALLDATALOAD PUSH1 0x7 SSTORE PUSH1 0x60 DUP4 ADD CALLDATALOAD PUSH1 0x8 SSTORE PUSH1 0x80 DUP4 ADD CALLDATALOAD PUSH1 0x9 SSTORE PUSH1 0xA0 DUP4 ADD CALLDATALOAD PUSH1 0xA SSTORE PUSH1 0xC0 DUP4 ADD CALLDATALOAD PUSH1 0xB SSTORE PUSH1 0xE0 DUP4 ADD CALLDATALOAD PUSH1 0xC SSTORE DUP3 SWAP1 POP POP PUSH1 0x40 DUP1 MLOAD DUP4 CALLDATALOAD DUP2 MSTORE PUSH1 0x20 DUP1 DUP6 ADD CALLDATALOAD SWAP1 DUP3 ADD MSTORE DUP2 DUP5 ADD CALLDATALOAD SWAP2 DUP2 ADD SWAP2 SWAP1 SWAP2 MSTORE PUSH1 0x60 DUP1 DUP5 ADD CALLDATALOAD SWAP1 DUP3 ADD MSTORE PUSH1 0x80 DUP1 DUP5 ADD CALLDATALOAD SWAP1 DUP3 ADD MSTORE PUSH1 0xA0 DUP1 DUP5 ADD CALLDATALOAD SWAP1 DUP3 ADD MSTORE PUSH1 0xC0 DUP1 DUP5 ADD CALLDATALOAD SWAP1 DUP3 ADD MSTORE PUSH1 0xE0 DUP1 DUP5 ADD CALLDATALOAD SWAP1 DUP3 ADD MSTORE PUSH32 0xE32288882B122AA895E6EF550FC65B0439C341D34BE5F1DB849BB4F4E4E96F9E SWAP1 PUSH2 0x100 ADD PUSH1 0x40 MLOAD DUP1 SWAP2 SUB SWAP1 LOG1 POP POP JUMP JUMPDEST PUSH1 0xD SLOAD PUSH1 0x40 MLOAD PUSH4 0x6FB1A07 PUSH1 0xE0 SHL DUP2 MSTORE PUSH1 0x3 PUSH1 0x4 DUP3 ADD MSTORE PUSH1 0x0 SWAP2 DUP3 SWAP2 PUSH1 0x1 PUSH1 0x1 PUSH1 0xA0 SHL SUB SWAP1 SWAP2 AND SWAP1 PUSH4 0x6FB1A07 SWAP1 PUSH1 0x24 ADD PUSH1 0x20 PUSH1 0x40 MLOAD DUP1 DUP4 SUB DUP2 DUP7 DUP1 EXTCODESIZE ISZERO DUP1 ISZERO PUSH2 0xF4B JUMPI PUSH1 0x0 DUP1 REVERT JUMPDEST POP GAS STATICCALL ISZERO DUP1 ISZERO PUSH2 0xF5F JUMPI RETURNDATASIZE PUSH1 0x0 DUP1 RETURNDATACOPY RETURNDATASIZE PUSH1 0x0 REVERT JUMPDEST POP POP POP POP PUSH1 0x40 MLOAD RETURNDATASIZE PUSH1 0x1F NOT PUSH1 0x1F DUP3 ADD AND DUP3 ADD DUP1 PUSH1 0x40 MSTORE POP DUP2 ADD SWAP1 PUSH2 0xF83 SWAP2 SWAP1 PUSH2 0x3B26 JUMP JUMPDEST PUSH1 0x40 MLOAD PUSH4 0xEAA8F7E3 PUSH1 0xE0 SHL DUP2 MSTORE CALLER PUSH1 0x4 DUP3 ADD MSTORE SWAP1 SWAP2 POP PUSH1 0x1 PUSH1 0x1 PUSH1 0xA0 SHL SUB DUP3 AND SWAP1 PUSH4 0xEAA8F7E3 SWAP1 PUSH1 0x24 ADD PUSH1 0x20 PUSH1 0x40 MLOAD DUP1 DUP4 SUB DUP2 DUP7 DUP1 EXTCODESIZE ISZERO DUP1 ISZERO PUSH2 0xFC5 JUMPI PUSH1 0x0 DUP1 REVERT JUMPDEST POP GAS STATICCALL ISZERO DUP1 ISZERO PUSH2 0xFD9 JUMPI RETURNDATASIZE PUSH1 0x0 DUP1 RETURNDATACOPY RETURNDATASIZE PUSH1 0x0 REVERT JUMPDEST POP POP POP POP PUSH1 0x40 MLOAD RETURNDATASIZE PUSH1 0x1F NOT PUSH1 0x1F DUP3 ADD AND DUP3 ADD DUP1 PUSH1 0x40 MSTORE POP DUP2 ADD SWAP1 PUSH2 0xFFD SWAP2 SWAP1 PUSH2 0x3B43 JUMP JUMPDEST ISZERO PUSH2 0x101A JUMPI PUSH1 0x40 MLOAD PUSH3 0x461BCD PUSH1 0xE5 SHL DUP2 MSTORE PUSH1 0x4 ADD PUSH2 0x799 SWAP1 PUSH2 0x3B65 JUMP JUMPDEST DUP3 MLOAD PUSH2 0x107C JUMPI PUSH1 0x40 MLOAD PUSH3 0x461BCD PUSH1 0xE5 SHL DUP2 MSTORE PUSH1 0x20 PUSH1 0x4 DUP3 ADD MSTORE PUSH1 0x2B PUSH1 0x24 DUP3 ADD MSTORE PUSH32 0x53533A205374616B6564416D6F756E742068617320746F206265206C61726765 PUSH1 0x44 DUP3 ADD MSTORE PUSH11 0x72207468616E207A65726F PUSH1 0xA8 SHL PUSH1 0x64 DUP3 ADD MSTORE PUSH1 0x84 ADD PUSH2 0x799 JUMP JUMPDEST PUSH1 0xD SLOAD PUSH1 0x40 MLOAD PUSH4 0x70A08231 PUSH1 0xE0 SHL DUP2 MSTORE CALLER PUSH1 0x4 DUP3 ADD MSTORE PUSH1 0x1 PUSH1 0x1 PUSH1 0xA0 SHL SUB SWAP1 SWAP2 AND SWAP1 PUSH4 0x70A08231 SWAP1 PUSH1 0x24 ADD PUSH1 0x20 PUSH1 0x40 MLOAD DUP1 DUP4 SUB DUP2 DUP7 DUP1 EXTCODESIZE ISZERO DUP1 ISZERO PUSH2 0x10BF JUMPI PUSH1 0x0 DUP1 REVERT JUMPDEST POP GAS STATICCALL ISZERO DUP1 ISZERO PUSH2 0x10D3 JUMPI RETURNDATASIZE PUSH1 0x0 DUP1 RETURNDATACOPY RETURNDATASIZE PUSH1 0x0 REVERT JUMPDEST POP POP POP POP PUSH1 0x40 MLOAD RETURNDATASIZE PUSH1 0x1F NOT PUSH1 0x1F DUP3 ADD AND DUP3 ADD DUP1 PUSH1 0x40 MSTORE POP DUP2 ADD SWAP1 PUSH2 0x10F7 SWAP2 SWAP1 PUSH2 0x3CB9 JUMP JUMPDEST DUP4 MLOAD GT ISZERO PUSH2 0x1147 JUMPI PUSH1 0x40 MLOAD PUSH3 0x461BCD PUSH1 0xE5 SHL DUP2 MSTORE PUSH1 0x20 PUSH1 0x4 DUP3 ADD DUP2 SWAP1 MSTORE PUSH1 0x24 DUP3 ADD MSTORE PUSH32 0x53533A205374616B6564416D6F756E7420657863656564732062616C616E6365 PUSH1 0x44 DUP3 ADD MSTORE PUSH1 0x64 ADD PUSH2 0x799 JUMP JUMPDEST PUSH1 0xB SLOAD PUSH1 0x20 DUP5 ADD MLOAD LT ISZERO PUSH2 0x11B5 JUMPI PUSH1 0x40 MLOAD PUSH3 0x461BCD PUSH1 0xE5 SHL DUP2 MSTORE PUSH1 0x20 PUSH1 0x4 DUP3 ADD MSTORE PUSH1 0x2F PUSH1 0x24 DUP3 ADD MSTORE PUSH32 0x53533A205374616B65206D757374206265206C6F636B656420666F72206D6F72 PUSH1 0x44 DUP3 ADD MSTORE PUSH15 0x65207468616E206D696E2064617973 PUSH1 0x88 SHL PUSH1 0x64 DUP3 ADD MSTORE PUSH1 0x84 ADD PUSH2 0x799 JUMP JUMPDEST PUSH1 0xC SLOAD PUSH1 0x20 DUP5 ADD MLOAD GT ISZERO PUSH2 0x1224 JUMPI PUSH1 0x40 MLOAD PUSH3 0x461BCD PUSH1 0xE5 SHL DUP2 MSTORE PUSH1 0x20 PUSH1 0x4 DUP3 ADD MSTORE PUSH1 0x30 PUSH1 0x24 DUP3 ADD MSTORE PUSH32 0x53533A205374616B65206D757374206265206C6F636B656420666F72206C6573 PUSH1 0x44 DUP3 ADD MSTORE PUSH16 0x73207468616E206D6178207965617273 PUSH1 0x80 SHL PUSH1 0x64 DUP3 ADD MSTORE PUSH1 0x84 ADD PUSH2 0x799 JUMP JUMPDEST PUSH2 0x122C PUSH2 0x2DDC JUMP JUMPDEST PUSH1 0xD SLOAD DUP4 MLOAD PUSH1 0x40 MLOAD PUSH4 0x4E7F975D PUSH1 0xE1 SHL DUP2 MSTORE CALLER PUSH1 0x4 DUP3 ADD MSTORE ADDRESS PUSH1 0x24 DUP3 ADD MSTORE PUSH1 0x44 DUP2 ADD SWAP2 SWAP1 SWAP2 MSTORE PUSH1 0x1 PUSH1 0x1 PUSH1 0xA0 SHL SUB SWAP1 SWAP2 AND SWAP1 PUSH4 0x9CFF2EBA SWAP1 PUSH1 0x64 ADD PUSH1 0x0 PUSH1 0x40 MLOAD DUP1 DUP4 SUB DUP2 PUSH1 0x0 DUP8 DUP1 EXTCODESIZE ISZERO DUP1 ISZERO PUSH2 0x1281 JUMPI PUSH1 0x0 DUP1 REVERT JUMPDEST POP GAS CALL ISZERO DUP1 ISZERO PUSH2 0x1295 JUMPI RETURNDATASIZE PUSH1 0x0 DUP1 RETURNDATACOPY RETURNDATASIZE PUSH1 0x0 REVERT JUMPDEST POP POP POP POP PUSH1 0x0 PUSH2 0x12A3 PUSH2 0x300F JUMP JUMPDEST SWAP1 POP PUSH1 0x0 PUSH1 0x40 MLOAD DUP1 PUSH1 0xC0 ADD PUSH1 0x40 MSTORE DUP1 CALLER PUSH1 0x1 PUSH1 0x1 PUSH1 0xA0 SHL SUB AND DUP2 MSTORE PUSH1 0x20 ADD DUP7 PUSH1 0x0 ADD MLOAD DUP2 MSTORE PUSH1 0x20 ADD DUP4 DUP2 MSTORE PUSH1 0x20 ADD DUP7 PUSH1 0x20 ADD MLOAD DUP2 MSTORE PUSH1 0x20 ADD PUSH1 0x0 DUP2 MSTORE PUSH1 0x20 ADD PUSH1 0x0 DUP2 MSTORE POP SWAP1 POP PUSH2 0x12F4 DUP2 PUSH1 0x0 PUSH2 0x18E3 JUMP JUMPDEST PUSH1 0xA0 DUP3 ADD SWAP1 DUP2 MSTORE PUSH1 0x4 DUP1 SLOAD PUSH1 0x1 DUP1 DUP3 ADD DUP4 SSTORE PUSH1 0x0 DUP4 SWAP1 MSTORE DUP5 MLOAD PUSH32 0x8A35ACFBC15FF81A39AE7D344FD709F28E8600B4AA8C65C6B64BFE7FE36BD19B PUSH1 0x6 SWAP1 SWAP4 MUL SWAP3 DUP4 ADD DUP1 SLOAD PUSH1 0x1 PUSH1 0x1 PUSH1 0xA0 SHL SUB NOT AND PUSH1 0x1 PUSH1 0x1 PUSH1 0xA0 SHL SUB SWAP1 SWAP3 AND SWAP2 SWAP1 SWAP2 OR SWAP1 SSTORE PUSH1 0x20 DUP6 ADD MLOAD PUSH32 0x8A35ACFBC15FF81A39AE7D344FD709F28E8600B4AA8C65C6B64BFE7FE36BD19C DUP4 ADD SSTORE PUSH1 0x40 DUP6 ADD MLOAD PUSH32 0x8A35ACFBC15FF81A39AE7D344FD709F28E8600B4AA8C65C6B64BFE7FE36BD19D DUP4 ADD SSTORE PUSH1 0x60 DUP6 ADD MLOAD PUSH32 0x8A35ACFBC15FF81A39AE7D344FD709F28E8600B4AA8C65C6B64BFE7FE36BD19E DUP4 ADD SSTORE PUSH1 0x80 DUP6 ADD MLOAD PUSH32 0x8A35ACFBC15FF81A39AE7D344FD709F28E8600B4AA8C65C6B64BFE7FE36BD19F DUP4 ADD SSTORE SWAP3 MLOAD PUSH32 0x8A35ACFBC15FF81A39AE7D344FD709F28E8600B4AA8C65C6B64BFE7FE36BD1A0 SWAP1 SWAP2 ADD SSTORE SLOAD PUSH2 0x1429 SWAP2 SWAP1 PUSH2 0x3C59 JUMP JUMPDEST SWAP4 POP DUP1 PUSH1 0xA0 ADD MLOAD PUSH1 0x2 DUP4 DUP2 SLOAD DUP2 LT PUSH2 0x1443 JUMPI PUSH2 0x1443 PUSH2 0x3AC2 JUMP JUMPDEST SWAP1 PUSH1 0x0 MSTORE PUSH1 0x20 PUSH1 0x0 KECCAK256 SWAP1 PUSH1 0x3 MUL ADD PUSH1 0x1 ADD PUSH1 0x0 DUP3 DUP3 SLOAD PUSH2 0x1463 SWAP2 SWAP1 PUSH2 0x3C41 JUMP JUMPDEST SWAP1 SWAP2 SSTORE POP POP DUP1 MLOAD PUSH1 0x20 DUP1 DUP4 ADD MLOAD PUSH1 0x40 DUP1 DUP6 ADD MLOAD PUSH1 0x60 DUP1 DUP8 ADD MLOAD PUSH1 0xA0 DUP1 DUP10 ADD MLOAD DUP6 MLOAD DUP14 DUP2 MSTORE PUSH1 0x1 PUSH1 0x1 PUSH1 0xA0 SHL SUB SWAP1 SWAP10 AND SWAP8 DUP10 ADD SWAP8 SWAP1 SWAP8 MSTORE SWAP4 DUP8 ADD SWAP5 SWAP1 SWAP5 MSTORE DUP6 ADD MSTORE PUSH1 0x80 DUP5 ADD SWAP2 SWAP1 SWAP2 MSTORE DUP3 ADD MSTORE PUSH32 0xB3B7BD78C90933EE8B729DA4592FA8FF3FCAAD310E548C299CC82DE3B4FF09BA SWAP1 PUSH1 0xC0 ADD PUSH1 0x40 MLOAD DUP1 SWAP2 SUB SWAP1 LOG1 POP POP POP SWAP2 SWAP1 POP JUMP JUMPDEST PUSH1 0x0 JUMPDEST DUP2 DUP2 LT ISZERO PUSH2 0x152C JUMPI PUSH2 0x1519 DUP4 DUP4 DUP4 DUP2 DUP2 LT PUSH2 0x1503 JUMPI PUSH2 0x1503 PUSH2 0x3AC2 JUMP JUMPDEST SWAP1 POP PUSH1 0x40 MUL ADD DUP1 CALLDATASIZE SUB DUP2 ADD SWAP1 PUSH2 0x2BE SWAP2 SWAP1 PUSH2 0x375F JUMP JUMPDEST POP DUP1 PUSH2 0x1524 DUP2 PUSH2 0x3B0B JUMP JUMPDEST SWAP2 POP POP PUSH2 0x14E6 JUMP JUMPDEST POP POP POP JUMP JUMPDEST PUSH1 0x3 DUP2 DUP2 SLOAD DUP2 LT PUSH2 0x1541 JUMPI PUSH1 0x0 DUP1 REVERT JUMPDEST PUSH1 0x0 SWAP2 DUP3 MSTORE PUSH1 0x20 SWAP1 SWAP2 KECCAK256 ADD SLOAD SWAP1 POP DUP2 JUMP JUMPDEST PUSH1 0xD SLOAD PUSH1 0x40 MLOAD PUSH4 0x6FB1A07 PUSH1 0xE0 SHL DUP2 MSTORE PUSH1 0x3 PUSH1 0x4 DUP3 ADD MSTORE PUSH1 0x0 SWAP2 PUSH1 0x1 PUSH1 0x1 PUSH1 0xA0 SHL SUB AND SWAP1 PUSH4 0x6FB1A07 SWAP1 PUSH1 0x24 ADD PUSH1 0x20 PUSH1 0x40 MLOAD DUP1 DUP4 SUB DUP2 DUP7 DUP1 EXTCODESIZE ISZERO DUP1 ISZERO PUSH2 0x1597 JUMPI PUSH1 0x0 DUP1 REVERT JUMPDEST POP GAS STATICCALL ISZERO DUP1 ISZERO PUSH2 0x15AB JUMPI RETURNDATASIZE PUSH1 0x0 DUP1 RETURNDATACOPY RETURNDATASIZE PUSH1 0x0 REVERT JUMPDEST POP POP POP POP PUSH1 0x40 MLOAD RETURNDATASIZE PUSH1 0x1F NOT PUSH1 0x1F DUP3 ADD AND DUP3 ADD DUP1 PUSH1 0x40 MSTORE POP DUP2 ADD SWAP1 PUSH2 0x15CF SWAP2 SWAP1 PUSH2 0x3B26 JUMP JUMPDEST PUSH1 0x40 MLOAD PUSH4 0xEAA8F7E3 PUSH1 0xE0 SHL DUP2 MSTORE CALLER PUSH1 0x4 DUP3 ADD MSTORE SWAP1 SWAP2 POP PUSH1 0x1 PUSH1 0x1 PUSH1 0xA0 SHL SUB DUP3 AND SWAP1 PUSH4 0xEAA8F7E3 SWAP1 PUSH1 0x24 ADD PUSH1 0x20 PUSH1 0x40 MLOAD DUP1 DUP4 SUB DUP2 DUP7 DUP1 EXTCODESIZE ISZERO DUP1 ISZERO PUSH2 0x1611 JUMPI PUSH1 0x0 DUP1 REVERT JUMPDEST POP GAS STATICCALL ISZERO DUP1 ISZERO PUSH2 0x1625 JUMPI RETURNDATASIZE PUSH1 0x0 DUP1 RETURNDATACOPY RETURNDATASIZE PUSH1 0x0 REVERT JUMPDEST POP POP POP POP PUSH1 0x40 MLOAD RETURNDATASIZE PUSH1 0x1F NOT PUSH1 0x1F DUP3 ADD AND DUP3 ADD DUP1 PUSH1 0x40 MSTORE POP DUP2 ADD SWAP1 PUSH2 0x1649 SWAP2 SWAP1 PUSH2 0x3B43 JUMP JUMPDEST ISZERO PUSH2 0x1666 JUMPI PUSH1 0x40 MLOAD PUSH3 0x461BCD PUSH1 0xE5 SHL DUP2 MSTORE PUSH1 0x4 ADD PUSH2 0x799 SWAP1 PUSH2 0x3B65 JUMP JUMPDEST DUP3 PUSH1 0x4 DUP2 DUP2 SLOAD DUP2 LT PUSH2 0x167A JUMPI PUSH2 0x167A PUSH2 0x3AC2 JUMP JUMPDEST PUSH1 0x0 SWAP2 DUP3 MSTORE PUSH1 0x20 SWAP1 SWAP2 KECCAK256 PUSH1 0x6 SWAP1 SWAP2 MUL ADD SLOAD PUSH1 0x1 PUSH1 0x1 PUSH1 0xA0 SHL SUB AND CALLER EQ PUSH2 0x16B2 JUMPI PUSH1 0x40 MLOAD PUSH3 0x461BCD PUSH1 0xE5 SHL DUP2 MSTORE PUSH1 0x4 ADD PUSH2 0x799 SWAP1 PUSH2 0x3B9C JUMP JUMPDEST PUSH1 0x4 SLOAD DUP5 SWAP1 DUP2 LT PUSH2 0x16D5 JUMPI PUSH1 0x40 MLOAD PUSH3 0x461BCD PUSH1 0xE5 SHL DUP2 MSTORE PUSH1 0x4 ADD PUSH2 0x799 SWAP1 PUSH2 0x3BD3 JUMP JUMPDEST DUP5 PUSH1 0x4 DUP2 DUP2 SLOAD DUP2 LT PUSH2 0x16E9 JUMPI PUSH2 0x16E9 PUSH2 0x3AC2 JUMP JUMPDEST SWAP1 PUSH1 0x0 MSTORE PUSH1 0x20 PUSH1 0x0 KECCAK256 SWAP1 PUSH1 0x6 MUL ADD PUSH1 0x4 ADD SLOAD PUSH1 0x0 EQ PUSH2 0x171A JUMPI PUSH1 0x40 MLOAD PUSH3 0x461BCD PUSH1 0xE5 SHL DUP2 MSTORE PUSH1 0x4 ADD PUSH2 0x799 SWAP1 PUSH2 0x3C0A JUMP JUMPDEST DUP5 PUSH1 0x1 PUSH1 0x1 PUSH1 0xA0 SHL SUB AND PUSH1 0x4 DUP8 DUP2 SLOAD DUP2 LT PUSH2 0x1737 JUMPI PUSH2 0x1737 PUSH2 0x3AC2 JUMP JUMPDEST PUSH1 0x0 SWAP2 DUP3 MSTORE PUSH1 0x20 SWAP1 SWAP2 KECCAK256 PUSH1 0x6 SWAP1 SWAP2 MUL ADD SLOAD PUSH1 0x1 PUSH1 0x1 PUSH1 0xA0 SHL SUB AND EQ ISZERO PUSH2 0x17B6 JUMPI PUSH1 0x40 MLOAD PUSH3 0x461BCD PUSH1 0xE5 SHL DUP2 MSTORE PUSH1 0x20 PUSH1 0x4 DUP3 ADD MSTORE PUSH1 0x2E PUSH1 0x24 DUP3 ADD MSTORE PUSH32 0x53533A204E6577206F776E6572206D75737420626520646966666572656E7420 PUSH1 0x44 DUP3 ADD MSTORE PUSH14 0x333937B69037B6321037BBB732B9 PUSH1 0x91 SHL PUSH1 0x64 DUP3 ADD MSTORE PUSH1 0x84 ADD PUSH2 0x799 JUMP JUMPDEST PUSH2 0x17BE PUSH2 0x2DDC JUMP JUMPDEST DUP5 PUSH1 0x4 DUP8 DUP2 SLOAD DUP2 LT PUSH2 0x17D2 JUMPI PUSH2 0x17D2 PUSH2 0x3AC2 JUMP JUMPDEST PUSH1 0x0 SWAP2 DUP3 MSTORE PUSH1 0x20 SWAP2 DUP3 SWAP1 KECCAK256 PUSH1 0x6 SWAP2 SWAP1 SWAP2 MUL ADD DUP1 SLOAD PUSH1 0x1 PUSH1 0x1 PUSH1 0xA0 SHL SUB NOT AND PUSH1 0x1 PUSH1 0x1 PUSH1 0xA0 SHL SUB SWAP4 DUP5 AND OR SWAP1 SSTORE PUSH1 0x40 DUP1 MLOAD DUP10 DUP2 MSTORE SWAP3 DUP9 AND SWAP2 DUP4 ADD SWAP2 SWAP1 SWAP2 MSTORE PUSH32 0x2CAD8E3E3A0926D0A7524BD52DDA355991EDB76A6B44EF43E75417996062AC7A SWAP2 ADD PUSH1 0x40 MLOAD DUP1 SWAP2 SUB SWAP1 LOG1 POP POP POP POP POP POP JUMP JUMPDEST PUSH1 0x0 JUMPDEST DUP2 DUP2 LT ISZERO PUSH2 0x152C JUMPI PUSH2 0x186E DUP4 DUP4 DUP4 DUP2 DUP2 LT PUSH2 0x1862 JUMPI PUSH2 0x1862 PUSH2 0x3AC2 JUMP JUMPDEST SWAP1 POP PUSH1 0x20 MUL ADD CALLDATALOAD PUSH2 0x685 JUMP JUMPDEST DUP1 PUSH2 0x1878 DUP2 PUSH2 0x3B0B JUMP JUMPDEST SWAP2 POP POP PUSH2 0x1845 JUMP JUMPDEST PUSH2 0x188A DUP3 DUP3 PUSH2 0x3186 JUMP JUMPDEST PUSH1 0x0 DUP3 DUP2 MSTORE PUSH1 0x1 PUSH1 0x20 MSTORE PUSH1 0x40 SWAP1 KECCAK256 PUSH2 0x152C SWAP1 DUP3 PUSH2 0x30CE JUMP JUMPDEST PUSH2 0x18AC DUP3 DUP3 PUSH2 0x319C JUMP JUMPDEST PUSH1 0x0 DUP3 DUP2 MSTORE PUSH1 0x1 PUSH1 0x20 MSTORE PUSH1 0x40 SWAP1 KECCAK256 PUSH2 0x152C SWAP1 DUP3 PUSH2 0x3216 JUMP JUMPDEST PUSH1 0x0 PUSH2 0x18DC PUSH1 0x4 DUP5 DUP2 SLOAD DUP2 LT PUSH2 0xA77 JUMPI PUSH2 0xA77 PUSH2 0x3AC2 JUMP JUMPDEST SWAP4 SWAP3 POP POP POP JUMP JUMPDEST PUSH1 0x0 DUP1 DUP3 PUSH2 0x18F6 JUMPI POP PUSH1 0x60 DUP4 ADD MLOAD PUSH2 0x1922 JUMP JUMPDEST DUP4 PUSH1 0x40 ADD MLOAD DUP4 GT ISZERO PUSH2 0x1918 JUMPI PUSH1 0x40 DUP5 ADD MLOAD PUSH2 0x1911 SWAP1 DUP5 PUSH2 0x3C59 JUMP JUMPDEST SWAP1 POP PUSH2 0x1922 JUMP JUMPDEST PUSH1 0x0 SWAP2 POP POP PUSH2 0x602 JUMP JUMPDEST PUSH2 0x1938 DUP2 PUSH2 0x1933 PUSH2 0x16D PUSH1 0xA PUSH2 0x3C70 JUMP JUMPDEST PUSH2 0x322B JUMP JUMPDEST SWAP1 POP PUSH1 0x0 PUSH1 0x2 DUP6 PUSH1 0x40 ADD MLOAD DUP2 SLOAD DUP2 LT PUSH2 0x1953 JUMPI PUSH2 0x1953 PUSH2 0x3AC2 JUMP JUMPDEST SWAP1 PUSH1 0x0 MSTORE PUSH1 0x20 PUSH1 0x0 KECCAK256 SWAP1 PUSH1 0x3 MUL ADD PUSH1 0x2 ADD SLOAD PUSH8 0xDE0B6B3A7640000 DUP7 PUSH1 0x20 ADD MLOAD PUSH2 0x197D SWAP2 SWAP1 PUSH2 0x3C70 JUMP JUMPDEST PUSH2 0x1987 SWAP2 SWAP1 PUSH2 0x3CA5 JUMP JUMPDEST SWAP1 POP PUSH1 0x0 PUSH1 0x2 DUP7 PUSH1 0x40 ADD MLOAD DUP2 SLOAD DUP2 LT PUSH2 0x19A2 JUMPI PUSH2 0x19A2 PUSH2 0x3AC2 JUMP JUMPDEST SWAP1 PUSH1 0x0 MSTORE PUSH1 0x20 PUSH1 0x0 KECCAK256 SWAP1 PUSH1 0x3 MUL ADD PUSH1 0x2 ADD SLOAD PUSH2 0x16D PUSH3 0xF4240 PUSH1 0xA PUSH2 0x19C7 SWAP2 SWAP1 PUSH2 0x3C70 JUMP JUMPDEST PUSH2 0x19D1 SWAP2 SWAP1 PUSH2 0x3C70 JUMP JUMPDEST PUSH2 0x19DB SWAP2 SWAP1 PUSH2 0x3C70 JUMP JUMPDEST PUSH8 0xDE0B6B3A7640000 DUP8 PUSH1 0x20 ADD MLOAD DUP6 PUSH1 0x5 PUSH1 0x3 ADD SLOAD PUSH2 0x19FA SWAP2 SWAP1 PUSH2 0x3C70 JUMP JUMPDEST PUSH2 0x1A04 SWAP2 SWAP1 PUSH2 0x3C70 JUMP JUMPDEST PUSH2 0x1A0E SWAP2 SWAP1 PUSH2 0x3C70 JUMP JUMPDEST PUSH2 0x1A18 SWAP2 SWAP1 PUSH2 0x3CA5 JUMP JUMPDEST SWAP1 POP PUSH1 0x0 PUSH9 0x3635C9ADC5DEA00000 DUP8 PUSH1 0x20 ADD MLOAD GT PUSH2 0x1A47 JUMPI PUSH1 0x7 SLOAD PUSH2 0x1A40 SWAP1 PUSH3 0xF4240 PUSH2 0x3C41 JUMP JUMPDEST SWAP1 POP PUSH2 0x1AD5 JUMP JUMPDEST DUP7 PUSH1 0x20 ADD MLOAD PUSH9 0x3635C9ADC5DEA00000 LT DUP1 ISZERO PUSH2 0x1A70 JUMPI POP PUSH10 0xD3C21BCECCEDA1000000 DUP8 PUSH1 0x20 ADD MLOAD LT JUMPDEST ISZERO PUSH2 0x1ACF JUMPI PUSH2 0x1A92 PUSH9 0x3635C9ADC5DEA00000 PUSH10 0xD3C21BCECCEDA1000000 PUSH2 0x3C59 JUMP JUMPDEST PUSH1 0x20 DUP9 ADD MLOAD PUSH2 0x1AAB SWAP1 PUSH10 0xD3C21BCECCEDA1000000 PUSH2 0x3C59 JUMP JUMPDEST PUSH1 0x7 SLOAD PUSH2 0x1AB8 SWAP2 SWAP1 PUSH2 0x3C70 JUMP JUMPDEST PUSH2 0x1AC2 SWAP2 SWAP1 PUSH2 0x3CA5 JUMP JUMPDEST PUSH2 0x1A40 SWAP1 PUSH3 0xF4240 PUSH2 0x3C41 JUMP JUMPDEST POP PUSH3 0xF4240 JUMPDEST PUSH1 0x0 PUSH3 0xF4240 DUP3 PUSH2 0x1AE6 DUP6 DUP8 PUSH2 0x3C41 JUMP JUMPDEST PUSH2 0x1AF0 SWAP2 SWAP1 PUSH2 0x3C70 JUMP JUMPDEST PUSH2 0x1AFA SWAP2 SWAP1 PUSH2 0x3CA5 JUMP JUMPDEST SWAP9 SWAP8 POP POP POP POP POP POP POP POP JUMP JUMPDEST PUSH1 0x0 JUMPDEST DUP2 DUP2 LT ISZERO PUSH2 0x152C JUMPI PUSH2 0x1B32 DUP4 DUP4 DUP4 DUP2 DUP2 LT PUSH2 0x1B26 JUMPI PUSH2 0x1B26 PUSH2 0x3AC2 JUMP JUMPDEST SWAP1 POP PUSH1 0x20 MUL ADD CALLDATALOAD PUSH2 0x1B44 JUMP JUMPDEST DUP1 PUSH2 0x1B3C DUP2 PUSH2 0x3B0B JUMP JUMPDEST SWAP2 POP POP PUSH2 0x1B09 JUMP JUMPDEST PUSH1 0xD SLOAD PUSH1 0x40 MLOAD PUSH4 0x6FB1A07 PUSH1 0xE0 SHL DUP2 MSTORE PUSH1 0x3 PUSH1 0x4 DUP3 ADD MSTORE PUSH1 0x0 SWAP2 PUSH1 0x1 PUSH1 0x1 PUSH1 0xA0 SHL SUB AND SWAP1 PUSH4 0x6FB1A07 SWAP1 PUSH1 0x24 ADD PUSH1 0x20 PUSH1 0x40 MLOAD DUP1 DUP4 SUB DUP2 DUP7 DUP1 EXTCODESIZE ISZERO DUP1 ISZERO PUSH2 0x1B89 JUMPI PUSH1 0x0 DUP1 REVERT JUMPDEST POP GAS STATICCALL ISZERO DUP1 ISZERO PUSH2 0x1B9D JUMPI RETURNDATASIZE PUSH1 0x0 DUP1 RETURNDATACOPY RETURNDATASIZE PUSH1 0x0 REVERT JUMPDEST POP POP POP POP PUSH1 0x40 MLOAD RETURNDATASIZE PUSH1 0x1F NOT PUSH1 0x1F DUP3 ADD AND DUP3 ADD DUP1 PUSH1 0x40 MSTORE POP DUP2 ADD SWAP1 PUSH2 0x1BC1 SWAP2 SWAP1 PUSH2 0x3B26 JUMP JUMPDEST PUSH1 0x40 MLOAD PUSH4 0xEAA8F7E3 PUSH1 0xE0 SHL DUP2 MSTORE CALLER PUSH1 0x4 DUP3 ADD MSTORE SWAP1 SWAP2 POP PUSH1 0x1 PUSH1 0x1 PUSH1 0xA0 SHL SUB DUP3 AND SWAP1 PUSH4 0xEAA8F7E3 SWAP1 PUSH1 0x24 ADD PUSH1 0x20 PUSH1 0x40 MLOAD DUP1 DUP4 SUB DUP2 DUP7 DUP1 EXTCODESIZE ISZERO DUP1 ISZERO PUSH2 0x1C03 JUMPI PUSH1 0x0 DUP1 REVERT JUMPDEST POP GAS STATICCALL ISZERO DUP1 ISZERO PUSH2 0x1C17 JUMPI RETURNDATASIZE PUSH1 0x0 DUP1 RETURNDATACOPY RETURNDATASIZE PUSH1 0x0 REVERT JUMPDEST POP POP POP POP PUSH1 0x40 MLOAD RETURNDATASIZE PUSH1 0x1F NOT PUSH1 0x1F DUP3 ADD AND DUP3 ADD DUP1 PUSH1 0x40 MSTORE POP DUP2 ADD SWAP1 PUSH2 0x1C3B SWAP2 SWAP1 PUSH2 0x3B43 JUMP JUMPDEST ISZERO PUSH2 0x1C58 JUMPI PUSH1 0x40 MLOAD PUSH3 0x461BCD PUSH1 0xE5 SHL DUP2 MSTORE PUSH1 0x4 ADD PUSH2 0x799 SWAP1 PUSH2 0x3B65 JUMP JUMPDEST DUP2 PUSH1 0x4 DUP2 DUP2 SLOAD DUP2 LT PUSH2 0x1C6C JUMPI PUSH2 0x1C6C PUSH2 0x3AC2 JUMP JUMPDEST PUSH1 0x0 SWAP2 DUP3 MSTORE PUSH1 0x20 SWAP1 SWAP2 KECCAK256 PUSH1 0x6 SWAP1 SWAP2 MUL ADD SLOAD PUSH1 0x1 PUSH1 0x1 PUSH1 0xA0 SHL SUB AND CALLER EQ PUSH2 0x1CA4 JUMPI PUSH1 0x40 MLOAD PUSH3 0x461BCD PUSH1 0xE5 SHL DUP2 MSTORE PUSH1 0x4 ADD PUSH2 0x799 SWAP1 PUSH2 0x3B9C JUMP JUMPDEST PUSH1 0x4 SLOAD DUP4 SWAP1 DUP2 LT PUSH2 0x1CC7 JUMPI PUSH1 0x40 MLOAD PUSH3 0x461BCD PUSH1 0xE5 SHL DUP2 MSTORE PUSH1 0x4 ADD PUSH2 0x799 SWAP1 PUSH2 0x3BD3 JUMP JUMPDEST DUP4 PUSH1 0x4 DUP2 DUP2 SLOAD DUP2 LT PUSH2 0x1CDB JUMPI PUSH2 0x1CDB PUSH2 0x3AC2 JUMP JUMPDEST SWAP1 PUSH1 0x0 MSTORE PUSH1 0x20 PUSH1 0x0 KECCAK256 SWAP1 PUSH1 0x6 MUL ADD PUSH1 0x4 ADD SLOAD PUSH1 0x0 EQ PUSH2 0x1D0C JUMPI PUSH1 0x40 MLOAD PUSH3 0x461BCD PUSH1 0xE5 SHL DUP2 MSTORE PUSH1 0x4 ADD PUSH2 0x799 SWAP1 PUSH2 0x3C0A JUMP JUMPDEST PUSH2 0x1D14 PUSH2 0x2DDC JUMP JUMPDEST PUSH1 0x0 PUSH2 0x1D1E PUSH2 0x300F JUMP JUMPDEST SWAP1 POP PUSH1 0x4 DUP7 DUP2 SLOAD DUP2 LT PUSH2 0x1D33 JUMPI PUSH2 0x1D33 PUSH2 0x3AC2 JUMP JUMPDEST SWAP1 PUSH1 0x0 MSTORE PUSH1 0x20 PUSH1 0x0 KECCAK256 SWAP1 PUSH1 0x6 MUL ADD PUSH1 0x2 ADD SLOAD DUP2 GT PUSH2 0x1DA3 JUMPI PUSH1 0x40 MLOAD PUSH3 0x461BCD PUSH1 0xE5 SHL DUP2 MSTORE PUSH1 0x20 PUSH1 0x4 DUP3 ADD MSTORE PUSH1 0x27 PUSH1 0x24 DUP3 ADD MSTORE PUSH32 0x53533A205363726170696E6720697320617661696C61626C65206F6E63652069 PUSH1 0x44 DUP3 ADD MSTORE PUSH7 0x6E203120646179 PUSH1 0xC8 SHL PUSH1 0x64 DUP3 ADD MSTORE PUSH1 0x84 ADD PUSH2 0x799 JUMP JUMPDEST PUSH1 0x4 DUP7 DUP2 SLOAD DUP2 LT PUSH2 0x1DB6 JUMPI PUSH2 0x1DB6 PUSH2 0x3AC2 JUMP JUMPDEST SWAP1 PUSH1 0x0 MSTORE PUSH1 0x20 PUSH1 0x0 KECCAK256 SWAP1 PUSH1 0x6 MUL ADD PUSH1 0x3 ADD SLOAD PUSH1 0x4 DUP8 DUP2 SLOAD DUP2 LT PUSH2 0x1DDB JUMPI PUSH2 0x1DDB PUSH2 0x3AC2 JUMP JUMPDEST SWAP1 PUSH1 0x0 MSTORE PUSH1 0x20 PUSH1 0x0 KECCAK256 SWAP1 PUSH1 0x6 MUL ADD PUSH1 0x2 ADD SLOAD PUSH2 0x1DF7 SWAP2 SWAP1 PUSH2 0x3C41 JUMP JUMPDEST DUP2 LT PUSH2 0x1E6D JUMPI PUSH1 0x40 DUP1 MLOAD PUSH3 0x461BCD PUSH1 0xE5 SHL DUP2 MSTORE PUSH1 0x20 PUSH1 0x4 DUP3 ADD MSTORE PUSH1 0x24 DUP2 ADD SWAP2 SWAP1 SWAP2 MSTORE PUSH32 0x53533A205363726170696E6720697320617661696C61626C65206F6E63652077 PUSH1 0x44 DUP3 ADD MSTORE PUSH32 0x68696C65207374616B6520697320496E2050726F677265737320737461747573 PUSH1 0x64 DUP3 ADD MSTORE PUSH1 0x84 ADD PUSH2 0x799 JUMP JUMPDEST PUSH1 0x0 PUSH1 0x4 DUP8 DUP2 SLOAD DUP2 LT PUSH2 0x1E82 JUMPI PUSH2 0x1E82 PUSH2 0x3AC2 JUMP JUMPDEST SWAP1 PUSH1 0x0 MSTORE PUSH1 0x20 PUSH1 0x0 KECCAK256 SWAP1 PUSH1 0x6 MUL ADD PUSH1 0x3 ADD SLOAD SWAP1 POP PUSH1 0x0 PUSH1 0x4 DUP9 DUP2 SLOAD DUP2 LT PUSH2 0x1EAB JUMPI PUSH2 0x1EAB PUSH2 0x3AC2 JUMP JUMPDEST SWAP1 PUSH1 0x0 MSTORE PUSH1 0x20 PUSH1 0x0 KECCAK256 SWAP1 PUSH1 0x6 MUL ADD PUSH1 0x5 ADD SLOAD SWAP1 POP PUSH1 0x4 DUP9 DUP2 SLOAD DUP2 LT PUSH2 0x1ED2 JUMPI PUSH2 0x1ED2 PUSH2 0x3AC2 JUMP JUMPDEST SWAP1 PUSH1 0x0 MSTORE PUSH1 0x20 PUSH1 0x0 KECCAK256 SWAP1 PUSH1 0x6 MUL ADD PUSH1 0x2 ADD SLOAD DUP4 PUSH2 0x1EEF SWAP2 SWAP1 PUSH2 0x3C59 JUMP JUMPDEST PUSH1 0x4 DUP10 DUP2 SLOAD DUP2 LT PUSH2 0x1F02 JUMPI PUSH2 0x1F02 PUSH2 0x3AC2 JUMP JUMPDEST SWAP1 PUSH1 0x0 MSTORE PUSH1 0x20 PUSH1 0x0 KECCAK256 SWAP1 PUSH1 0x6 MUL ADD PUSH1 0x3 ADD DUP2 SWAP1 SSTORE POP PUSH1 0x0 PUSH2 0x1F90 PUSH1 0x4 DUP11 DUP2 SLOAD DUP2 LT PUSH2 0x1F2F JUMPI PUSH2 0x1F2F PUSH2 0x3AC2 JUMP JUMPDEST PUSH1 0x0 SWAP2 DUP3 MSTORE PUSH1 0x20 DUP1 DUP4 KECCAK256 PUSH1 0x40 DUP1 MLOAD PUSH1 0xC0 DUP2 ADD DUP3 MSTORE PUSH1 0x6 SWAP1 SWAP5 MUL SWAP1 SWAP2 ADD DUP1 SLOAD PUSH1 0x1 PUSH1 0x1 PUSH1 0xA0 SHL SUB AND DUP5 MSTORE PUSH1 0x1 DUP2 ADD SLOAD SWAP3 DUP5 ADD SWAP3 SWAP1 SWAP3 MSTORE PUSH1 0x2 DUP3 ADD SLOAD SWAP1 DUP4 ADD MSTORE PUSH1 0x3 DUP2 ADD SLOAD PUSH1 0x60 DUP4 ADD MSTORE PUSH1 0x4 DUP2 ADD SLOAD PUSH1 0x80 DUP4 ADD MSTORE PUSH1 0x5 ADD SLOAD PUSH1 0xA0 DUP3 ADD MSTORE SWAP1 PUSH2 0x18E3 JUMP JUMPDEST SWAP1 POP DUP1 DUP3 PUSH1 0x2 DUP7 DUP2 SLOAD DUP2 LT PUSH2 0x1FA7 JUMPI PUSH2 0x1FA7 PUSH2 0x3AC2 JUMP JUMPDEST SWAP1 PUSH1 0x0 MSTORE PUSH1 0x20 PUSH1 0x0 KECCAK256 SWAP1 PUSH1 0x3 MUL ADD PUSH1 0x1 ADD SLOAD PUSH2 0x1FC3 SWAP2 SWAP1 PUSH2 0x3C59 JUMP JUMPDEST PUSH2 0x1FCD SWAP2 SWAP1 PUSH2 0x3C41 JUMP JUMPDEST PUSH1 0x2 DUP6 DUP2 SLOAD DUP2 LT PUSH2 0x1FE0 JUMPI PUSH2 0x1FE0 PUSH2 0x3AC2 JUMP JUMPDEST SWAP1 PUSH1 0x0 MSTORE PUSH1 0x20 PUSH1 0x0 KECCAK256 SWAP1 PUSH1 0x3 MUL ADD PUSH1 0x1 ADD DUP2 SWAP1 SSTORE POP DUP1 PUSH1 0x4 DUP11 DUP2 SLOAD DUP2 LT PUSH2 0x2009 JUMPI PUSH2 0x2009 PUSH2 0x3AC2 JUMP JUMPDEST SWAP1 PUSH1 0x0 MSTORE PUSH1 0x20 PUSH1 0x0 KECCAK256 SWAP1 PUSH1 0x6 MUL ADD PUSH1 0x5 ADD DUP2 SWAP1 SSTORE POP PUSH32 0x3E2D801CABF80E21F37737B105FEEDEF59585176AE82A611B6239E59FCCAAEA2 DUP10 PUSH1 0x4 DUP12 DUP2 SLOAD DUP2 LT PUSH2 0x2053 JUMPI PUSH2 0x2053 PUSH2 0x3AC2 JUMP JUMPDEST PUSH1 0x0 SWAP2 DUP3 MSTORE PUSH1 0x20 SWAP2 DUP3 SWAP1 KECCAK256 PUSH1 0x3 PUSH1 0x6 SWAP1 SWAP3 MUL ADD ADD SLOAD PUSH1 0x40 DUP1 MLOAD SWAP4 DUP5 MSTORE SWAP2 DUP4 ADD MSTORE DUP2 ADD DUP4 SWAP1 MSTORE PUSH1 0x60 ADD PUSH1 0x40 MLOAD DUP1 SWAP2 SUB SWAP1 LOG1 PUSH2 0x208C DUP10 PUSH2 0x685 JUMP JUMPDEST PUSH1 0x0 PUSH1 0x4 DUP11 DUP2 SLOAD DUP2 LT PUSH2 0x20A1 JUMPI PUSH2 0x20A1 PUSH2 0x3AC2 JUMP JUMPDEST SWAP1 PUSH1 0x0 MSTORE PUSH1 0x20 PUSH1 0x0 KECCAK256 SWAP1 PUSH1 0x6 MUL ADD PUSH1 0x3 ADD SLOAD DUP5 PUSH2 0x20BE SWAP2 SWAP1 PUSH2 0x3C59 JUMP JUMPDEST SWAP1 POP PUSH2 0x2101 PUSH1 0x40 MLOAD DUP1 PUSH1 0x40 ADD PUSH1 0x40 MSTORE DUP1 PUSH1 0x4 DUP14 DUP2 SLOAD DUP2 LT PUSH2 0x20E1 JUMPI PUSH2 0x20E1 PUSH2 0x3AC2 JUMP JUMPDEST SWAP1 PUSH1 0x0 MSTORE PUSH1 0x20 PUSH1 0x0 KECCAK256 SWAP1 PUSH1 0x6 MUL ADD PUSH1 0x1 ADD SLOAD DUP2 MSTORE PUSH1 0x20 ADD DUP4 DUP2 MSTORE POP PUSH2 0xF02 JUMP JUMPDEST POP POP POP POP POP POP POP POP POP POP POP JUMP JUMPDEST PUSH1 0x0 PUSH2 0x2126 PUSH1 0x4 DUP6 DUP2 SLOAD DUP2 LT PUSH2 0xB61 JUMPI PUSH2 0xB61 PUSH2 0x3AC2 JUMP JUMPDEST SWAP5 SWAP4 POP POP POP POP JUMP JUMPDEST PUSH1 0x0 DUP3 DUP2 MSTORE PUSH1 0x1 PUSH1 0x20 MSTORE PUSH1 0x40 DUP2 KECCAK256 PUSH2 0x18DC SWAP1 DUP4 PUSH2 0x3242 JUMP JUMPDEST PUSH1 0x0 SWAP2 DUP3 MSTORE PUSH1 0x20 DUP3 DUP2 MSTORE PUSH1 0x40 DUP1 DUP5 KECCAK256 PUSH1 0x1 PUSH1 0x1 PUSH1 0xA0 SHL SUB SWAP4 SWAP1 SWAP4 AND DUP5 MSTORE SWAP2 SWAP1 MSTORE SWAP1 KECCAK256 SLOAD PUSH1 0xFF AND SWAP1 JUMP JUMPDEST PUSH1 0x0 PUSH2 0x217B DUP2 CALLER PUSH2 0x3118 JUMP JUMPDEST PUSH2 0x2183 PUSH2 0x2DDC JUMP JUMPDEST PUSH1 0xD SLOAD PUSH1 0x40 MLOAD PUSH4 0x18A8AD87 PUSH1 0xE0 SHL DUP2 MSTORE PUSH1 0x1 PUSH1 0x1 PUSH1 0xA0 SHL SUB DUP6 DUP2 AND PUSH1 0x4 DUP4 ADD MSTORE PUSH1 0x24 DUP3 ADD DUP6 SWAP1 MSTORE SWAP1 SWAP2 AND SWAP1 PUSH4 0x18A8AD87 SWAP1 PUSH1 0x44 ADD PUSH1 0x0 PUSH1 0x40 MLOAD DUP1 DUP4 SUB DUP2 PUSH1 0x0 DUP8 DUP1 EXTCODESIZE ISZERO DUP1 ISZERO PUSH2 0x21D1 JUMPI PUSH1 0x0 DUP1 REVERT JUMPDEST POP GAS CALL ISZERO DUP1 ISZERO PUSH2 0x21E5 JUMPI RETURNDATASIZE PUSH1 0x0 DUP1 RETURNDATACOPY RETURNDATASIZE PUSH1 0x0 REVERT JUMPDEST POP POP POP POP PUSH1 0x0 PUSH2 0x21F3 PUSH2 0x300F JUMP JUMPDEST SWAP1 POP DUP3 PUSH1 0x2 DUP3 DUP2 SLOAD DUP2 LT PUSH2 0x2209 JUMPI PUSH2 0x2209 PUSH2 0x3AC2 JUMP JUMPDEST SWAP1 PUSH1 0x0 MSTORE PUSH1 0x20 PUSH1 0x0 KECCAK256 SWAP1 PUSH1 0x3 MUL ADD PUSH1 0x0 ADD PUSH1 0x0 DUP3 DUP3 SLOAD PUSH2 0x2229 SWAP2 SWAP1 PUSH2 0x3C41 JUMP JUMPDEST SWAP1 SWAP2 SSTORE POP POP PUSH1 0x40 DUP1 MLOAD PUSH1 0x1 PUSH1 0x1 PUSH1 0xA0 SHL SUB DUP7 AND DUP2 MSTORE PUSH1 0x20 DUP2 ADD DUP6 SWAP1 MSTORE SWAP1 DUP2 ADD DUP3 SWAP1 MSTORE PUSH32 0x7189D215A7191822B14DF651DE302B89CD288C7850A66AC6C3401CC0714DBFE7 SWAP1 PUSH1 0x60 ADD PUSH1 0x40 MLOAD DUP1 SWAP2 SUB SWAP1 LOG1 POP POP POP POP JUMP JUMPDEST PUSH1 0x2 DUP2 DUP2 SLOAD DUP2 LT PUSH2 0x228E JUMPI PUSH1 0x0 DUP1 REVERT JUMPDEST PUSH1 0x0 SWAP2 DUP3 MSTORE PUSH1 0x20 SWAP1 SWAP2 KECCAK256 PUSH1 0x3 SWAP1 SWAP2 MUL ADD DUP1 SLOAD PUSH1 0x1 DUP3 ADD SLOAD PUSH1 0x2 SWAP1 SWAP3 ADD SLOAD SWAP1 SWAP3 POP DUP4 JUMP JUMPDEST PUSH2 0x22B9 PUSH2 0x300F JUMP JUMPDEST DUP2 GT ISZERO PUSH2 0x2308 JUMPI PUSH1 0x40 MLOAD PUSH3 0x461BCD PUSH1 0xE5 SHL DUP2 MSTORE PUSH1 0x20 PUSH1 0x4 DUP3 ADD MSTORE PUSH1 0x18 PUSH1 0x24 DUP3 ADD MSTORE PUSH32 0x53533A2045786365656465642063757272656E74206461790000000000000000 PUSH1 0x44 DUP3 ADD MSTORE PUSH1 0x64 ADD PUSH2 0x799 JUMP JUMPDEST PUSH1 0x2 SLOAD PUSH1 0x0 SWAP1 PUSH2 0x231A SWAP1 PUSH1 0x1 SWAP1 PUSH2 0x3C59 JUMP JUMPDEST SWAP1 POP DUP2 DUP2 EQ ISZERO PUSH2 0x2328 JUMPI POP POP JUMP JUMPDEST DUP1 JUMPDEST DUP3 DUP2 LT ISZERO PUSH2 0x2669 JUMPI PUSH1 0x2 SLOAD PUSH1 0x0 SWAP1 DUP3 LT PUSH2 0x2352 JUMPI PUSH1 0x2 SLOAD PUSH2 0x234D SWAP1 PUSH1 0x1 SWAP1 PUSH2 0x3C59 JUMP JUMPDEST PUSH2 0x2354 JUMP JUMPDEST DUP2 JUMPDEST SWAP1 POP PUSH1 0x0 PUSH1 0x2 DUP3 DUP2 SLOAD DUP2 LT PUSH2 0x236B JUMPI PUSH2 0x236B PUSH2 0x3AC2 JUMP JUMPDEST SWAP1 PUSH1 0x0 MSTORE PUSH1 0x20 PUSH1 0x0 KECCAK256 SWAP1 PUSH1 0x3 MUL ADD PUSH1 0x2 ADD SLOAD PUSH3 0xF4240 PUSH2 0x238B SWAP2 SWAP1 PUSH2 0x3C70 JUMP JUMPDEST PUSH1 0x8 SLOAD PUSH8 0xDE0B6B3A7640000 SWAP1 PUSH2 0x23A6 SWAP1 PUSH3 0xF4240 SWAP1 PUSH2 0x3C41 JUMP JUMPDEST PUSH2 0x23B0 SWAP2 SWAP1 PUSH2 0x3C70 JUMP JUMPDEST PUSH2 0x23BA SWAP2 SWAP1 PUSH2 0x3CA5 JUMP JUMPDEST SWAP1 POP PUSH1 0x0 PUSH3 0xF4240 PUSH2 0x23CE PUSH2 0x16D DUP5 PUSH2 0x3C70 JUMP JUMPDEST PUSH2 0x23D8 SWAP2 SWAP1 PUSH2 0x3C70 JUMP JUMPDEST DUP3 PUSH1 0x2 DUP6 DUP2 SLOAD DUP2 LT PUSH2 0x23EC JUMPI PUSH2 0x23EC PUSH2 0x3AC2 JUMP JUMPDEST SWAP1 PUSH1 0x0 MSTORE PUSH1 0x20 PUSH1 0x0 KECCAK256 SWAP1 PUSH1 0x3 MUL ADD PUSH1 0x1 ADD SLOAD PUSH2 0x2408 SWAP2 SWAP1 PUSH2 0x3C41 JUMP JUMPDEST PUSH1 0x6 SLOAD PUSH2 0x2415 SWAP2 SWAP1 PUSH2 0x3C70 JUMP JUMPDEST PUSH2 0x241F SWAP2 SWAP1 PUSH2 0x3CA5 JUMP JUMPDEST PUSH1 0x2 SLOAD SWAP1 SWAP2 POP DUP5 LT ISZERO PUSH2 0x246B JUMPI DUP1 PUSH1 0x2 DUP5 DUP2 SLOAD DUP2 LT PUSH2 0x2440 JUMPI PUSH2 0x2440 PUSH2 0x3AC2 JUMP JUMPDEST SWAP1 PUSH1 0x0 MSTORE PUSH1 0x20 PUSH1 0x0 KECCAK256 SWAP1 PUSH1 0x3 MUL ADD PUSH1 0x0 ADD PUSH1 0x0 DUP3 DUP3 SLOAD PUSH2 0x2460 SWAP2 SWAP1 PUSH2 0x3C41 JUMP JUMPDEST SWAP1 SWAP2 SSTORE POP PUSH2 0x2504 SWAP1 POP JUMP JUMPDEST PUSH1 0x2 PUSH1 0x40 MLOAD DUP1 PUSH1 0x60 ADD PUSH1 0x40 MSTORE DUP1 DUP4 DUP2 MSTORE PUSH1 0x20 ADD PUSH1 0x2 DUP7 DUP2 SLOAD DUP2 LT PUSH2 0x2491 JUMPI PUSH2 0x2491 PUSH2 0x3AC2 JUMP JUMPDEST SWAP1 PUSH1 0x0 MSTORE PUSH1 0x20 PUSH1 0x0 KECCAK256 SWAP1 PUSH1 0x3 MUL ADD PUSH1 0x1 ADD SLOAD DUP2 MSTORE PUSH1 0x20 ADD PUSH1 0x2 DUP7 DUP2 SLOAD DUP2 LT PUSH2 0x24BB JUMPI PUSH2 0x24BB PUSH2 0x3AC2 JUMP JUMPDEST PUSH1 0x0 SWAP2 DUP3 MSTORE PUSH1 0x20 DUP1 DUP4 KECCAK256 PUSH1 0x3 SWAP3 DUP4 MUL ADD PUSH1 0x2 SWAP1 DUP2 ADD SLOAD SWAP1 SWAP5 MSTORE DUP6 SLOAD PUSH1 0x1 DUP1 DUP3 ADD DUP9 SSTORE SWAP7 DUP5 MSTORE SWAP3 DUP2 SWAP1 KECCAK256 DUP6 MLOAD SWAP4 SWAP1 SWAP3 MUL SWAP1 SWAP2 ADD SWAP2 DUP3 SSTORE DUP4 ADD MLOAD SWAP4 DUP2 ADD SWAP4 SWAP1 SWAP4 SSTORE PUSH1 0x40 SWAP1 SWAP2 ADD MLOAD SWAP2 ADD SSTORE JUMPDEST PUSH32 0x45BC90C5E61BE4D79E2F0C1154A663332BBCCF6A26759463D04772164EEBFED2 DUP5 PUSH1 0x2 DUP6 DUP2 SLOAD DUP2 LT PUSH2 0x2539 JUMPI PUSH2 0x2539 PUSH2 0x3AC2 JUMP JUMPDEST SWAP1 PUSH1 0x0 MSTORE PUSH1 0x20 PUSH1 0x0 KECCAK256 SWAP1 PUSH1 0x3 MUL ADD PUSH1 0x0 ADD SLOAD PUSH1 0x2 DUP7 DUP2 SLOAD DUP2 LT PUSH2 0x255E JUMPI PUSH2 0x255E PUSH2 0x3AC2 JUMP JUMPDEST SWAP1 PUSH1 0x0 MSTORE PUSH1 0x20 PUSH1 0x0 KECCAK256 SWAP1 PUSH1 0x3 MUL ADD PUSH1 0x1 ADD SLOAD PUSH1 0x2 DUP8 DUP2 SLOAD DUP2 LT PUSH2 0x2583 JUMPI PUSH2 0x2583 PUSH2 0x3AC2 JUMP JUMPDEST SWAP1 PUSH1 0x0 MSTORE PUSH1 0x20 PUSH1 0x0 KECCAK256 SWAP1 PUSH1 0x3 MUL ADD PUSH1 0x2 ADD SLOAD PUSH2 0x259D PUSH2 0x2D2E JUMP JUMPDEST PUSH1 0xD PUSH1 0x0 SWAP1 SLOAD SWAP1 PUSH2 0x100 EXP SWAP1 DIV PUSH1 0x1 PUSH1 0x1 PUSH1 0xA0 SHL SUB AND PUSH1 0x1 PUSH1 0x1 PUSH1 0xA0 SHL SUB AND PUSH4 0x18160DDD PUSH1 0x40 MLOAD DUP2 PUSH4 0xFFFFFFFF AND PUSH1 0xE0 SHL DUP2 MSTORE PUSH1 0x4 ADD PUSH1 0x20 PUSH1 0x40 MLOAD DUP1 DUP4 SUB DUP2 DUP7 DUP1 EXTCODESIZE ISZERO DUP1 ISZERO PUSH2 0x25EB JUMPI PUSH1 0x0 DUP1 REVERT JUMPDEST POP GAS STATICCALL ISZERO DUP1 ISZERO PUSH2 0x25FF JUMPI RETURNDATASIZE PUSH1 0x0 DUP1 RETURNDATACOPY RETURNDATASIZE PUSH1 0x0 REVERT JUMPDEST POP POP POP POP PUSH1 0x40 MLOAD RETURNDATASIZE PUSH1 0x1F NOT PUSH1 0x1F DUP3 ADD AND DUP3 ADD DUP1 PUSH1 0x40 MSTORE POP DUP2 ADD SWAP1 PUSH2 0x2623 SWAP2 SWAP1 PUSH2 0x3CB9 JUMP JUMPDEST PUSH1 0x40 DUP1 MLOAD SWAP7 DUP8 MSTORE PUSH1 0x20 DUP8 ADD SWAP6 SWAP1 SWAP6 MSTORE SWAP4 DUP6 ADD SWAP3 SWAP1 SWAP3 MSTORE PUSH1 0x60 DUP5 ADD MSTORE PUSH1 0x80 DUP4 ADD MSTORE PUSH1 0xA0 DUP3 ADD MSTORE PUSH1 0xC0 ADD PUSH1 0x40 MLOAD DUP1 SWAP2 SUB SWAP1 LOG1 POP POP POP DUP1 DUP1 PUSH2 0x2661 SWAP1 PUSH2 0x3B0B JUMP JUMPDEST SWAP2 POP POP PUSH2 0x232A JUMP JUMPDEST POP PUSH1 0x2 SLOAD DUP3 EQ ISZERO PUSH2 0x2726 JUMPI PUSH1 0x2 PUSH1 0x40 MLOAD DUP1 PUSH1 0x60 ADD PUSH1 0x40 MSTORE DUP1 PUSH1 0x0 DUP2 MSTORE PUSH1 0x20 ADD PUSH1 0x2 PUSH1 0x1 DUP7 PUSH2 0x2697 SWAP2 SWAP1 PUSH2 0x3C59 JUMP JUMPDEST DUP2 SLOAD DUP2 LT PUSH2 0x26A7 JUMPI PUSH2 0x26A7 PUSH2 0x3AC2 JUMP JUMPDEST SWAP1 PUSH1 0x0 MSTORE PUSH1 0x20 PUSH1 0x0 KECCAK256 SWAP1 PUSH1 0x3 MUL ADD PUSH1 0x1 ADD SLOAD DUP2 MSTORE PUSH1 0x20 ADD PUSH1 0x2 PUSH1 0x1 DUP7 PUSH2 0x26CD SWAP2 SWAP1 PUSH2 0x3C59 JUMP JUMPDEST DUP2 SLOAD DUP2 LT PUSH2 0x26DD JUMPI PUSH2 0x26DD PUSH2 0x3AC2 JUMP JUMPDEST PUSH1 0x0 SWAP2 DUP3 MSTORE PUSH1 0x20 DUP1 DUP4 KECCAK256 PUSH1 0x3 SWAP3 DUP4 MUL ADD PUSH1 0x2 SWAP1 DUP2 ADD SLOAD SWAP1 SWAP5 MSTORE DUP6 SLOAD PUSH1 0x1 DUP1 DUP3 ADD DUP9 SSTORE SWAP7 DUP5 MSTORE SWAP3 DUP2 SWAP1 KECCAK256 DUP6 MLOAD SWAP4 SWAP1 SWAP3 MUL SWAP1 SWAP2 ADD SWAP2 DUP3 SSTORE DUP4 ADD MLOAD SWAP4 DUP2 ADD SWAP4 SWAP1 SWAP4 SSTORE PUSH1 0x40 SWAP1 SWAP2 ADD MLOAD SWAP2 ADD SSTORE JUMPDEST PUSH1 0x3 SLOAD PUSH1 0x0 SWAP1 PUSH2 0x2738 SWAP1 PUSH1 0x1 SWAP1 PUSH2 0x3C59 JUMP JUMPDEST SWAP1 POP PUSH1 0x0 PUSH2 0x2747 PUSH1 0x64 DUP6 PUSH2 0x3CA5 JUMP JUMPDEST SWAP1 POP DUP2 JUMPDEST DUP2 DUP2 LT ISZERO PUSH2 0x2905 JUMPI PUSH1 0x0 DUP1 PUSH2 0x2761 PUSH1 0x64 DUP5 PUSH2 0x3C70 JUMP JUMPDEST SWAP1 POP JUMPDEST PUSH1 0x64 PUSH2 0x2771 DUP5 PUSH1 0x1 PUSH2 0x3C41 JUMP JUMPDEST PUSH2 0x277B SWAP2 SWAP1 PUSH2 0x3C70 JUMP JUMPDEST DUP2 LT ISZERO PUSH2 0x283A JUMPI PUSH1 0x2 DUP2 DUP2 SLOAD DUP2 LT PUSH2 0x2795 JUMPI PUSH2 0x2795 PUSH2 0x3AC2 JUMP JUMPDEST SWAP1 PUSH1 0x0 MSTORE PUSH1 0x20 PUSH1 0x0 KECCAK256 SWAP1 PUSH1 0x3 MUL ADD PUSH1 0x1 ADD SLOAD PUSH1 0x0 EQ ISZERO PUSH2 0x27B4 JUMPI PUSH2 0x2828 JUMP JUMPDEST PUSH1 0x2 DUP2 DUP2 SLOAD DUP2 LT PUSH2 0x27C7 JUMPI PUSH2 0x27C7 PUSH2 0x3AC2 JUMP JUMPDEST SWAP1 PUSH1 0x0 MSTORE PUSH1 0x20 PUSH1 0x0 KECCAK256 SWAP1 PUSH1 0x3 MUL ADD PUSH1 0x1 ADD SLOAD PUSH8 0xDE0B6B3A7640000 PUSH1 0x2 DUP4 DUP2 SLOAD DUP2 LT PUSH2 0x27F5 JUMPI PUSH2 0x27F5 PUSH2 0x3AC2 JUMP JUMPDEST SWAP1 PUSH1 0x0 MSTORE PUSH1 0x20 PUSH1 0x0 KECCAK256 SWAP1 PUSH1 0x3 MUL ADD PUSH1 0x0 ADD SLOAD PUSH2 0x2811 SWAP2 SWAP1 PUSH2 0x3C70 JUMP JUMPDEST PUSH2 0x281B SWAP2 SWAP1 PUSH2 0x3CA5 JUMP JUMPDEST PUSH2 0x2825 SWAP1 DUP4 PUSH2 0x3C41 JUMP JUMPDEST SWAP2 POP JUMPDEST DUP1 PUSH2 0x2832 DUP2 PUSH2 0x3B0B JUMP JUMPDEST SWAP2 POP POP PUSH2 0x2764 JUMP JUMPDEST POP PUSH1 0x3 SLOAD DUP3 LT ISZERO PUSH2 0x286A JUMPI DUP1 PUSH1 0x3 DUP4 DUP2 SLOAD DUP2 LT PUSH2 0x2859 JUMPI PUSH2 0x2859 PUSH2 0x3AC2 JUMP JUMPDEST PUSH1 0x0 SWAP2 DUP3 MSTORE PUSH1 0x20 SWAP1 SWAP2 KECCAK256 ADD SSTORE PUSH2 0x28A0 JUMP JUMPDEST PUSH1 0x3 DUP1 SLOAD PUSH1 0x1 DUP2 ADD DUP3 SSTORE PUSH1 0x0 SWAP2 SWAP1 SWAP2 MSTORE PUSH32 0xC2575A0E9E593C00F959F8C92F12DB2869C3395A3B0502D05E2516446F71F85B ADD DUP2 SWAP1 SSTORE JUMPDEST PUSH1 0x3 SLOAD PUSH32 0x1C9CE6F1D7F557DC59B02392857734618E6BC787C6A7C136A8BC32BED4E19111 SWAP1 DUP4 SWAP1 PUSH2 0x28D3 SWAP1 PUSH1 0x1 SWAP1 PUSH2 0x3C59 JUMP JUMPDEST PUSH1 0x40 DUP1 MLOAD SWAP3 DUP4 MSTORE PUSH1 0x20 DUP4 ADD SWAP2 SWAP1 SWAP2 MSTORE DUP2 ADD DUP4 SWAP1 MSTORE PUSH1 0x60 ADD PUSH1 0x40 MLOAD DUP1 SWAP2 SUB SWAP1 LOG1 POP DUP1 PUSH2 0x28FD DUP2 PUSH2 0x3B0B JUMP JUMPDEST SWAP2 POP POP PUSH2 0x274B JUMP JUMPDEST POP PUSH1 0x3 SLOAD DUP2 EQ ISZERO PUSH2 0x67F JUMPI PUSH1 0x3 DUP1 SLOAD PUSH1 0x1 DUP2 ADD DUP3 SSTORE PUSH1 0x0 SWAP2 DUP3 MSTORE PUSH32 0xC2575A0E9E593C00F959F8C92F12DB2869C3395A3B0502D05E2516446F71F85B ADD SSTORE POP POP POP POP JUMP JUMPDEST PUSH1 0x0 DUP1 PUSH1 0x0 DUP6 PUSH1 0x40 ADD MLOAD DUP6 GT PUSH2 0x295F JUMPI PUSH1 0x0 PUSH2 0x296E JUMP JUMPDEST PUSH1 0x40 DUP7 ADD MLOAD PUSH2 0x296E SWAP1 DUP7 PUSH2 0x3C59 JUMP JUMPDEST SWAP1 POP PUSH1 0x0 DUP5 DUP8 PUSH1 0x20 ADD MLOAD PUSH2 0x2982 SWAP2 SWAP1 PUSH2 0x3C41 JUMP JUMPDEST PUSH1 0x5 SLOAD SWAP1 SWAP2 POP DUP3 GT PUSH2 0x2996 JUMPI DUP1 SWAP3 POP PUSH2 0x2A7C JUMP JUMPDEST DUP7 PUSH1 0x60 ADD MLOAD DUP3 GT PUSH2 0x29DE JUMPI PUSH1 0x5 SLOAD PUSH1 0x60 DUP9 ADD MLOAD PUSH2 0x29B3 SWAP2 SWAP1 PUSH2 0x3C59 JUMP JUMPDEST DUP3 DUP9 PUSH1 0x60 ADD MLOAD PUSH2 0x29C3 SWAP2 SWAP1 PUSH2 0x3C59 JUMP JUMPDEST PUSH2 0x29CD SWAP1 DUP4 PUSH2 0x3C70 JUMP JUMPDEST PUSH2 0x29D7 SWAP2 SWAP1 PUSH2 0x3CA5 JUMP JUMPDEST SWAP3 POP PUSH2 0x2A7C JUMP JUMPDEST PUSH1 0x9 SLOAD PUSH1 0x60 DUP9 ADD MLOAD PUSH2 0x29F0 SWAP2 SWAP1 PUSH2 0x3C41 JUMP JUMPDEST DUP3 GT PUSH2 0x29FF JUMPI PUSH1 0x0 SWAP3 POP PUSH2 0x2A7C JUMP JUMPDEST PUSH1 0xA SLOAD PUSH1 0x9 SLOAD PUSH1 0x60 DUP10 ADD MLOAD PUSH2 0x2A14 SWAP2 SWAP1 PUSH2 0x3C41 JUMP JUMPDEST PUSH2 0x2A1E SWAP2 SWAP1 PUSH2 0x3C41 JUMP JUMPDEST DUP3 GT PUSH2 0x2A62 JUMPI PUSH1 0xA DUP1 SLOAD PUSH2 0x2A31 SWAP2 PUSH2 0x3C70 JUMP JUMPDEST PUSH1 0x9 SLOAD PUSH1 0x60 DUP10 ADD MLOAD PUSH2 0x2A43 SWAP1 DUP6 PUSH2 0x3C59 JUMP JUMPDEST PUSH2 0x2A4D SWAP2 SWAP1 PUSH2 0x3C59 JUMP JUMPDEST PUSH2 0x2A58 DUP4 PUSH1 0x9 PUSH2 0x3C70 JUMP JUMPDEST PUSH2 0x29CD SWAP2 SWAP1 PUSH2 0x3C70 JUMP JUMPDEST PUSH1 0xA PUSH2 0x2A6F DUP3 PUSH1 0x9 PUSH2 0x3C70 JUMP JUMPDEST PUSH2 0x2A79 SWAP2 SWAP1 PUSH2 0x3CA5 JUMP JUMPDEST SWAP3 POP JUMPDEST POP SWAP1 SWAP6 SWAP5 POP POP POP POP POP JUMP JUMPDEST PUSH1 0x0 DUP3 PUSH1 0x40 ADD MLOAD DUP3 GT PUSH2 0x2A9C JUMPI POP PUSH1 0x0 PUSH2 0x602 JUMP JUMPDEST PUSH1 0x0 DUP1 PUSH2 0x2AB7 DUP5 DUP7 PUSH1 0x60 ADD MLOAD DUP8 PUSH1 0x40 ADD MLOAD PUSH2 0x1933 SWAP2 SWAP1 PUSH2 0x3C41 JUMP JUMPDEST SWAP1 POP PUSH2 0x2AC8 DUP2 PUSH1 0x2 DUP1 SLOAD SWAP1 POP PUSH2 0x322B JUMP JUMPDEST SWAP1 POP PUSH1 0x0 PUSH2 0x2AD6 DUP7 DUP7 PUSH2 0x18E3 JUMP JUMPDEST SWAP1 POP PUSH1 0x0 PUSH1 0x64 DUP8 PUSH1 0x40 ADD MLOAD PUSH2 0x2AEB SWAP2 SWAP1 PUSH2 0x3CA5 JUMP JUMPDEST PUSH2 0x2AF6 SWAP1 PUSH1 0x1 PUSH2 0x3C41 JUMP JUMPDEST SWAP1 POP PUSH1 0x0 PUSH2 0x2B09 DUP5 PUSH2 0x1933 PUSH1 0x64 DUP6 PUSH2 0x3C70 JUMP JUMPDEST PUSH1 0x40 DUP10 ADD MLOAD SWAP1 SWAP2 POP JUMPDEST DUP2 DUP2 LT ISZERO PUSH2 0x2BCA JUMPI PUSH1 0x2 DUP2 DUP2 SLOAD DUP2 LT PUSH2 0x2B2D JUMPI PUSH2 0x2B2D PUSH2 0x3AC2 JUMP JUMPDEST SWAP1 PUSH1 0x0 MSTORE PUSH1 0x20 PUSH1 0x0 KECCAK256 SWAP1 PUSH1 0x3 MUL ADD PUSH1 0x1 ADD SLOAD PUSH1 0x0 EQ ISZERO PUSH2 0x2B4C JUMPI PUSH2 0x2BB8 JUMP JUMPDEST PUSH1 0x2 DUP2 DUP2 SLOAD DUP2 LT PUSH2 0x2B5F JUMPI PUSH2 0x2B5F PUSH2 0x3AC2 JUMP JUMPDEST SWAP1 PUSH1 0x0 MSTORE PUSH1 0x20 PUSH1 0x0 KECCAK256 SWAP1 PUSH1 0x3 MUL ADD PUSH1 0x1 ADD SLOAD DUP5 PUSH1 0x2 DUP4 DUP2 SLOAD DUP2 LT PUSH2 0x2B85 JUMPI PUSH2 0x2B85 PUSH2 0x3AC2 JUMP JUMPDEST SWAP1 PUSH1 0x0 MSTORE PUSH1 0x20 PUSH1 0x0 KECCAK256 SWAP1 PUSH1 0x3 MUL ADD PUSH1 0x0 ADD SLOAD PUSH2 0x2BA1 SWAP2 SWAP1 PUSH2 0x3C70 JUMP JUMPDEST PUSH2 0x2BAB SWAP2 SWAP1 PUSH2 0x3CA5 JUMP JUMPDEST PUSH2 0x2BB5 SWAP1 DUP8 PUSH2 0x3C41 JUMP JUMPDEST SWAP6 POP JUMPDEST DUP1 PUSH2 0x2BC2 DUP2 PUSH2 0x3B0B JUMP JUMPDEST SWAP2 POP POP PUSH2 0x2B12 JUMP JUMPDEST POP PUSH1 0x0 PUSH2 0x2BD8 PUSH1 0x64 DUP7 PUSH2 0x3CA5 JUMP JUMPDEST SWAP1 POP DUP3 JUMPDEST DUP2 DUP2 LT ISZERO PUSH2 0x2C3E JUMPI PUSH8 0xDE0B6B3A7640000 DUP6 PUSH1 0x3 DUP4 DUP2 SLOAD DUP2 LT PUSH2 0x2C01 JUMPI PUSH2 0x2C01 PUSH2 0x3AC2 JUMP JUMPDEST SWAP1 PUSH1 0x0 MSTORE PUSH1 0x20 PUSH1 0x0 KECCAK256 ADD SLOAD PUSH2 0x2C16 SWAP2 SWAP1 PUSH2 0x3C70 JUMP JUMPDEST PUSH2 0x2C20 SWAP2 SWAP1 PUSH2 0x3CA5 JUMP JUMPDEST PUSH2 0x2C2A SWAP1 DUP9 PUSH2 0x3C41 JUMP JUMPDEST SWAP7 POP DUP1 PUSH2 0x2C36 DUP2 PUSH2 0x3B0B JUMP JUMPDEST SWAP2 POP POP PUSH2 0x2BDC JUMP JUMPDEST POP PUSH1 0x0 PUSH2 0x2C4C PUSH1 0x64 DUP8 PUSH2 0x3CD2 JUMP JUMPDEST PUSH2 0x2C56 SWAP1 DUP8 PUSH2 0x3C59 JUMP JUMPDEST SWAP1 POP DUP10 PUSH1 0x40 ADD MLOAD DUP2 GT ISZERO PUSH2 0x2D20 JUMPI DUP1 JUMPDEST DUP7 DUP2 LT ISZERO PUSH2 0x2D1E JUMPI PUSH1 0x2 DUP2 DUP2 SLOAD DUP2 LT PUSH2 0x2C81 JUMPI PUSH2 0x2C81 PUSH2 0x3AC2 JUMP JUMPDEST SWAP1 PUSH1 0x0 MSTORE PUSH1 0x20 PUSH1 0x0 KECCAK256 SWAP1 PUSH1 0x3 MUL ADD PUSH1 0x1 ADD SLOAD PUSH1 0x0 EQ ISZERO PUSH2 0x2CA0 JUMPI PUSH2 0x2D0C JUMP JUMPDEST PUSH1 0x2 DUP2 DUP2 SLOAD DUP2 LT PUSH2 0x2CB3 JUMPI PUSH2 0x2CB3 PUSH2 0x3AC2 JUMP JUMPDEST SWAP1 PUSH1 0x0 MSTORE PUSH1 0x20 PUSH1 0x0 KECCAK256 SWAP1 PUSH1 0x3 MUL ADD PUSH1 0x1 ADD SLOAD DUP7 PUSH1 0x2 DUP4 DUP2 SLOAD DUP2 LT PUSH2 0x2CD9 JUMPI PUSH2 0x2CD9 PUSH2 0x3AC2 JUMP JUMPDEST SWAP1 PUSH1 0x0 MSTORE PUSH1 0x20 PUSH1 0x0 KECCAK256 SWAP1 PUSH1 0x3 MUL ADD PUSH1 0x0 ADD SLOAD PUSH2 0x2CF5 SWAP2 SWAP1 PUSH2 0x3C70 JUMP JUMPDEST PUSH2 0x2CFF SWAP2 SWAP1 PUSH2 0x3CA5 JUMP JUMPDEST PUSH2 0x2D09 SWAP1 DUP10 PUSH2 0x3C41 JUMP JUMPDEST SWAP8 POP JUMPDEST DUP1 PUSH2 0x2D16 DUP2 PUSH2 0x3B0B JUMP JUMPDEST SWAP2 POP POP PUSH2 0x2C66 JUMP JUMPDEST POP JUMPDEST POP SWAP5 SWAP9 SWAP8 POP POP POP POP POP POP POP POP JUMP JUMPDEST PUSH1 0xD SLOAD PUSH1 0x40 MLOAD PUSH4 0x70A08231 PUSH1 0xE0 SHL DUP2 MSTORE ADDRESS PUSH1 0x4 DUP3 ADD MSTORE PUSH1 0x0 SWAP2 PUSH1 0x1 PUSH1 0x1 PUSH1 0xA0 SHL SUB AND SWAP1 PUSH4 0x70A08231 SWAP1 PUSH1 0x24 ADD PUSH1 0x20 PUSH1 0x40 MLOAD DUP1 DUP4 SUB DUP2 DUP7 DUP1 EXTCODESIZE ISZERO DUP1 ISZERO PUSH2 0x2D72 JUMPI PUSH1 0x0 DUP1 REVERT JUMPDEST POP GAS STATICCALL ISZERO DUP1 ISZERO PUSH2 0x2D86 JUMPI RETURNDATASIZE PUSH1 0x0 DUP1 RETURNDATACOPY RETURNDATASIZE PUSH1 0x0 REVERT JUMPDEST POP POP POP POP PUSH1 0x40 MLOAD RETURNDATASIZE PUSH1 0x1F NOT PUSH1 0x1F DUP3 ADD AND DUP3 ADD DUP1 PUSH1 0x40 MSTORE POP DUP2 ADD SWAP1 PUSH2 0x2DAA SWAP2 SWAP1 PUSH2 0x3CB9 JUMP JUMPDEST SWAP1 POP SWAP1 JUMP JUMPDEST PUSH1 0x0 PUSH1 0x64 PUSH2 0x2DBB PUSH2 0x300F JUMP JUMPDEST PUSH2 0x2DAA SWAP2 SWAP1 PUSH2 0x3CA5 JUMP JUMPDEST PUSH1 0x0 DUP2 DUP2 MSTORE PUSH1 0x1 PUSH1 0x20 MSTORE PUSH1 0x40 DUP2 KECCAK256 PUSH2 0x602 SWAP1 PUSH2 0x324E JUMP JUMPDEST PUSH2 0x2DE7 PUSH2 0x473 PUSH2 0x300F JUMP JUMPDEST JUMP JUMPDEST PUSH2 0x18AC DUP3 DUP3 PUSH2 0x3258 JUMP JUMPDEST PUSH1 0x4 DUP2 DUP2 SLOAD DUP2 LT PUSH2 0x2E03 JUMPI PUSH1 0x0 DUP1 REVERT JUMPDEST PUSH1 0x0 SWAP2 DUP3 MSTORE PUSH1 0x20 SWAP1 SWAP2 KECCAK256 PUSH1 0x6 SWAP1 SWAP2 MUL ADD DUP1 SLOAD PUSH1 0x1 DUP3 ADD SLOAD PUSH1 0x2 DUP4 ADD SLOAD PUSH1 0x3 DUP5 ADD SLOAD PUSH1 0x4 DUP6 ADD SLOAD PUSH1 0x5 SWAP1 SWAP6 ADD SLOAD PUSH1 0x1 PUSH1 0x1 PUSH1 0xA0 SHL SUB SWAP1 SWAP5 AND SWAP6 POP SWAP2 SWAP4 SWAP1 SWAP3 DUP7 JUMP JUMPDEST PUSH1 0x60 PUSH1 0x0 DUP3 PUSH2 0x2E53 PUSH1 0x1 DUP7 PUSH2 0x3C59 JUMP JUMPDEST PUSH2 0x2E5D SWAP2 SWAP1 PUSH2 0x3C70 JUMP JUMPDEST SWAP1 POP PUSH1 0x0 PUSH2 0x2E76 PUSH2 0x2E6E DUP6 DUP8 PUSH2 0x3C70 JUMP JUMPDEST PUSH1 0x4 SLOAD PUSH2 0x322B JUMP JUMPDEST SWAP1 POP PUSH1 0x0 PUSH2 0x2E84 DUP4 DUP4 PUSH2 0x3C59 JUMP JUMPDEST PUSH8 0xFFFFFFFFFFFFFFFF DUP2 GT ISZERO PUSH2 0x2E9C JUMPI PUSH2 0x2E9C PUSH2 0x3749 JUMP JUMPDEST PUSH1 0x40 MLOAD SWAP1 DUP1 DUP3 MSTORE DUP1 PUSH1 0x20 MUL PUSH1 0x20 ADD DUP3 ADD PUSH1 0x40 MSTORE DUP1 ISZERO PUSH2 0x2F0F JUMPI DUP2 PUSH1 0x20 ADD JUMPDEST PUSH2 0x2EFC PUSH1 0x40 MLOAD DUP1 PUSH1 0xC0 ADD PUSH1 0x40 MSTORE DUP1 PUSH1 0x0 PUSH1 0x1 PUSH1 0x1 PUSH1 0xA0 SHL SUB AND DUP2 MSTORE PUSH1 0x20 ADD PUSH1 0x0 DUP2 MSTORE PUSH1 0x20 ADD PUSH1 0x0 DUP2 MSTORE PUSH1 0x20 ADD PUSH1 0x0 DUP2 MSTORE PUSH1 0x20 ADD PUSH1 0x0 DUP2 MSTORE PUSH1 0x20 ADD PUSH1 0x0 DUP2 MSTORE POP SWAP1 JUMP JUMPDEST DUP2 MSTORE PUSH1 0x20 ADD SWAP1 PUSH1 0x1 SWAP1 SUB SWAP1 DUP2 PUSH2 0x2EBA JUMPI SWAP1 POP JUMPDEST POP SWAP1 POP DUP3 JUMPDEST DUP3 DUP2 LT ISZERO PUSH2 0x2FC6 JUMPI PUSH1 0x4 DUP2 DUP2 SLOAD DUP2 LT PUSH2 0x2F2F JUMPI PUSH2 0x2F2F PUSH2 0x3AC2 JUMP JUMPDEST PUSH1 0x0 SWAP2 DUP3 MSTORE PUSH1 0x20 SWAP2 DUP3 SWAP1 KECCAK256 PUSH1 0x40 DUP1 MLOAD PUSH1 0xC0 DUP2 ADD DUP3 MSTORE PUSH1 0x6 SWAP1 SWAP4 MUL SWAP1 SWAP2 ADD DUP1 SLOAD PUSH1 0x1 PUSH1 0x1 PUSH1 0xA0 SHL SUB AND DUP4 MSTORE PUSH1 0x1 DUP2 ADD SLOAD SWAP4 DUP4 ADD SWAP4 SWAP1 SWAP4 MSTORE PUSH1 0x2 DUP4 ADD SLOAD SWAP1 DUP3 ADD MSTORE PUSH1 0x3 DUP3 ADD SLOAD PUSH1 0x60 DUP3 ADD MSTORE PUSH1 0x4 DUP3 ADD SLOAD PUSH1 0x80 DUP3 ADD MSTORE PUSH1 0x5 SWAP1 SWAP2 ADD SLOAD PUSH1 0xA0 DUP3 ADD MSTORE DUP3 PUSH2 0x2F98 DUP7 DUP5 PUSH2 0x3C59 JUMP JUMPDEST DUP2 MLOAD DUP2 LT PUSH2 0x2FA8 JUMPI PUSH2 0x2FA8 PUSH2 0x3AC2 JUMP JUMPDEST PUSH1 0x20 MUL PUSH1 0x20 ADD ADD DUP2 SWAP1 MSTORE POP DUP1 DUP1 PUSH2 0x2FBE SWAP1 PUSH2 0x3B0B JUMP JUMPDEST SWAP2 POP POP PUSH2 0x2F14 JUMP JUMPDEST POP SWAP6 SWAP5 POP POP POP POP POP JUMP JUMPDEST PUSH1 0x0 JUMPDEST DUP3 DUP2 LT ISZERO PUSH2 0x67F JUMPI PUSH2 0x2FFD DUP5 DUP5 DUP4 DUP2 DUP2 LT PUSH2 0x2FF0 JUMPI PUSH2 0x2FF0 PUSH2 0x3AC2 JUMP JUMPDEST SWAP1 POP PUSH1 0x20 MUL ADD CALLDATALOAD DUP4 PUSH2 0x1552 JUMP JUMPDEST DUP1 PUSH2 0x3007 DUP2 PUSH2 0x3B0B JUMP JUMPDEST SWAP2 POP POP PUSH2 0x2FD3 JUMP JUMPDEST PUSH1 0x0 PUSH3 0x15180 PUSH1 0xE SLOAD PUSH2 0x3022 SWAP2 SWAP1 PUSH2 0x3CA5 JUMP JUMPDEST PUSH2 0x302F PUSH3 0x15180 TIMESTAMP PUSH2 0x3CA5 JUMP JUMPDEST PUSH2 0x303A SWAP1 PUSH1 0x1 PUSH2 0x3C41 JUMP JUMPDEST PUSH2 0x2DAA SWAP2 SWAP1 PUSH2 0x3C59 JUMP JUMPDEST PUSH1 0x0 PUSH2 0x18DC PUSH1 0x4 DUP5 DUP2 SLOAD DUP2 LT PUSH2 0x305C JUMPI PUSH2 0x305C PUSH2 0x3AC2 JUMP JUMPDEST PUSH1 0x0 SWAP2 DUP3 MSTORE PUSH1 0x20 SWAP2 DUP3 SWAP1 KECCAK256 PUSH1 0x40 DUP1 MLOAD PUSH1 0xC0 DUP2 ADD DUP3 MSTORE PUSH1 0x6 SWAP1 SWAP4 MUL SWAP1 SWAP2 ADD DUP1 SLOAD PUSH1 0x1 PUSH1 0x1 PUSH1 0xA0 SHL SUB AND DUP4 MSTORE PUSH1 0x1 DUP2 ADD SLOAD SWAP4 DUP4 ADD SWAP4 SWAP1 SWAP4 MSTORE PUSH1 0x2 DUP4 ADD SLOAD SWAP1 DUP3 ADD MSTORE PUSH1 0x3 DUP3 ADD SLOAD PUSH1 0x60 DUP3 ADD MSTORE PUSH1 0x4 DUP3 ADD SLOAD PUSH1 0x80 DUP3 ADD MSTORE PUSH1 0x5 SWAP1 SWAP2 ADD SLOAD PUSH1 0xA0 DUP3 ADD MSTORE DUP4 PUSH2 0x18E3 JUMP JUMPDEST PUSH2 0x30CA DUP3 DUP3 PUSH2 0x327E JUMP JUMPDEST POP POP JUMP JUMPDEST PUSH1 0x0 PUSH2 0x18DC DUP4 PUSH1 0x1 PUSH1 0x1 PUSH1 0xA0 SHL SUB DUP5 AND PUSH2 0x3302 JUMP JUMPDEST PUSH1 0x0 PUSH1 0x1 PUSH1 0x1 PUSH1 0xE0 SHL SUB NOT DUP3 AND PUSH4 0x7965DB0B PUSH1 0xE0 SHL EQ DUP1 PUSH2 0x602 JUMPI POP PUSH4 0x1FFC9A7 PUSH1 0xE0 SHL PUSH1 0x1 PUSH1 0x1 PUSH1 0xE0 SHL SUB NOT DUP4 AND EQ PUSH2 0x602 JUMP JUMPDEST PUSH2 0x3122 DUP3 DUP3 PUSH2 0x2146 JUMP JUMPDEST PUSH2 0x30CA JUMPI PUSH2 0x313A DUP2 PUSH1 0x1 PUSH1 0x1 PUSH1 0xA0 SHL SUB AND PUSH1 0x14 PUSH2 0x3351 JUMP JUMPDEST PUSH2 0x3145 DUP4 PUSH1 0x20 PUSH2 0x3351 JUMP JUMPDEST PUSH1 0x40 MLOAD PUSH1 0x20 ADD PUSH2 0x3156 SWAP3 SWAP2 SWAP1 PUSH2 0x3D12 JUMP JUMPDEST PUSH1 0x40 DUP1 MLOAD PUSH1 0x1F NOT DUP2 DUP5 SUB ADD DUP2 MSTORE SWAP1 DUP3 SWAP1 MSTORE PUSH3 0x461BCD PUSH1 0xE5 SHL DUP3 MSTORE PUSH2 0x799 SWAP2 PUSH1 0x4 ADD PUSH2 0x3D87 JUMP JUMPDEST PUSH2 0x188A DUP3 DUP3 PUSH2 0x30C0 JUMP JUMPDEST PUSH1 0x0 PUSH2 0x3192 DUP2 CALLER PUSH2 0x3118 JUMP JUMPDEST PUSH2 0x152C DUP4 DUP4 PUSH2 0x327E JUMP JUMPDEST PUSH1 0x1 PUSH1 0x1 PUSH1 0xA0 SHL SUB DUP2 AND CALLER EQ PUSH2 0x320C JUMPI PUSH1 0x40 MLOAD PUSH3 0x461BCD PUSH1 0xE5 SHL DUP2 MSTORE PUSH1 0x20 PUSH1 0x4 DUP3 ADD MSTORE PUSH1 0x2F PUSH1 0x24 DUP3 ADD MSTORE PUSH32 0x416363657373436F6E74726F6C3A2063616E206F6E6C792072656E6F756E6365 PUSH1 0x44 DUP3 ADD MSTORE PUSH15 0x103937B632B9903337B91039B2B633 PUSH1 0x89 SHL PUSH1 0x64 DUP3 ADD MSTORE PUSH1 0x84 ADD PUSH2 0x799 JUMP JUMPDEST PUSH2 0x30CA DUP3 DUP3 PUSH2 0x34ED JUMP JUMPDEST PUSH1 0x0 PUSH2 0x18DC DUP4 PUSH1 0x1 PUSH1 0x1 PUSH1 0xA0 SHL SUB DUP5 AND PUSH2 0x3552 JUMP JUMPDEST PUSH1 0x0 DUP2 DUP4 LT ISZERO PUSH2 0x323C JUMPI POP DUP2 PUSH2 0x602 JUMP JUMPDEST POP SWAP2 SWAP1 POP JUMP JUMPDEST PUSH1 0x0 PUSH2 0x18DC DUP4 DUP4 PUSH2 0x363B JUMP JUMPDEST PUSH1 0x0 PUSH2 0x602 DUP3 SLOAD SWAP1 JUMP JUMPDEST PUSH1 0x0 DUP3 DUP2 MSTORE PUSH1 0x20 DUP2 SWAP1 MSTORE PUSH1 0x40 SWAP1 KECCAK256 PUSH1 0x1 ADD SLOAD PUSH2 0x3274 DUP2 CALLER PUSH2 0x3118 JUMP JUMPDEST PUSH2 0x152C DUP4 DUP4 PUSH2 0x34ED JUMP JUMPDEST PUSH2 0x3288 DUP3 DUP3 PUSH2 0x2146 JUMP JUMPDEST PUSH2 0x30CA JUMPI PUSH1 0x0 DUP3 DUP2 MSTORE PUSH1 0x20 DUP2 DUP2 MSTORE PUSH1 0x40 DUP1 DUP4 KECCAK256 PUSH1 0x1 PUSH1 0x1 PUSH1 0xA0 SHL SUB DUP6 AND DUP5 MSTORE SWAP1 SWAP2 MSTORE SWAP1 KECCAK256 DUP1 SLOAD PUSH1 0xFF NOT AND PUSH1 0x1 OR SWAP1 SSTORE PUSH2 0x32BE CALLER SWAP1 JUMP JUMPDEST PUSH1 0x1 PUSH1 0x1 PUSH1 0xA0 SHL SUB AND DUP2 PUSH1 0x1 PUSH1 0x1 PUSH1 0xA0 SHL SUB AND DUP4 PUSH32 0x2F8788117E7EFF1D82E926EC794901D17C78024A50270940304540A733656F0D PUSH1 0x40 MLOAD PUSH1 0x40 MLOAD DUP1 SWAP2 SUB SWAP1 LOG4 POP POP JUMP JUMPDEST PUSH1 0x0 DUP2 DUP2 MSTORE PUSH1 0x1 DUP4 ADD PUSH1 0x20 MSTORE PUSH1 0x40 DUP2 KECCAK256 SLOAD PUSH2 0x3349 JUMPI POP DUP2 SLOAD PUSH1 0x1 DUP2 DUP2 ADD DUP5 SSTORE PUSH1 0x0 DUP5 DUP2 MSTORE PUSH1 0x20 DUP1 DUP3 KECCAK256 SWAP1 SWAP4 ADD DUP5 SWAP1 SSTORE DUP5 SLOAD DUP5 DUP3 MSTORE DUP3 DUP7 ADD SWAP1 SWAP4 MSTORE PUSH1 0x40 SWAP1 KECCAK256 SWAP2 SWAP1 SWAP2 SSTORE PUSH2 0x602 JUMP JUMPDEST POP PUSH1 0x0 PUSH2 0x602 JUMP JUMPDEST PUSH1 0x60 PUSH1 0x0 PUSH2 0x3360 DUP4 PUSH1 0x2 PUSH2 0x3C70 JUMP JUMPDEST PUSH2 0x336B SWAP1 PUSH1 0x2 PUSH2 0x3C41 JUMP JUMPDEST PUSH8 0xFFFFFFFFFFFFFFFF DUP2 GT ISZERO PUSH2 0x3383 JUMPI PUSH2 0x3383 PUSH2 0x3749 JUMP JUMPDEST PUSH1 0x40 MLOAD SWAP1 DUP1 DUP3 MSTORE DUP1 PUSH1 0x1F ADD PUSH1 0x1F NOT AND PUSH1 0x20 ADD DUP3 ADD PUSH1 0x40 MSTORE DUP1 ISZERO PUSH2 0x33AD JUMPI PUSH1 0x20 DUP3 ADD DUP2 DUP1 CALLDATASIZE DUP4 CALLDATACOPY ADD SWAP1 POP JUMPDEST POP SWAP1 POP PUSH1 0x3 PUSH1 0xFC SHL DUP2 PUSH1 0x0 DUP2 MLOAD DUP2 LT PUSH2 0x33C8 JUMPI PUSH2 0x33C8 PUSH2 0x3AC2 JUMP JUMPDEST PUSH1 0x20 ADD ADD SWAP1 PUSH1 0x1 PUSH1 0x1 PUSH1 0xF8 SHL SUB NOT AND SWAP1 DUP2 PUSH1 0x0 BYTE SWAP1 MSTORE8 POP PUSH1 0xF PUSH1 0xFB SHL DUP2 PUSH1 0x1 DUP2 MLOAD DUP2 LT PUSH2 0x33F7 JUMPI PUSH2 0x33F7 PUSH2 0x3AC2 JUMP JUMPDEST PUSH1 0x20 ADD ADD SWAP1 PUSH1 0x1 PUSH1 0x1 PUSH1 0xF8 SHL SUB NOT AND SWAP1 DUP2 PUSH1 0x0 BYTE SWAP1 MSTORE8 POP PUSH1 0x0 PUSH2 0x341B DUP5 PUSH1 0x2 PUSH2 0x3C70 JUMP JUMPDEST PUSH2 0x3426 SWAP1 PUSH1 0x1 PUSH2 0x3C41 JUMP JUMPDEST SWAP1 POP JUMPDEST PUSH1 0x1 DUP2 GT ISZERO PUSH2 0x349E JUMPI PUSH16 0x181899199A1A9B1B9C1CB0B131B232B3 PUSH1 0x81 SHL DUP6 PUSH1 0xF AND PUSH1 0x10 DUP2 LT PUSH2 0x345A JUMPI PUSH2 0x345A PUSH2 0x3AC2 JUMP JUMPDEST BYTE PUSH1 0xF8 SHL DUP3 DUP3 DUP2 MLOAD DUP2 LT PUSH2 0x3470 JUMPI PUSH2 0x3470 PUSH2 0x3AC2 JUMP JUMPDEST PUSH1 0x20 ADD ADD SWAP1 PUSH1 0x1 PUSH1 0x1 PUSH1 0xF8 SHL SUB NOT AND SWAP1 DUP2 PUSH1 0x0 BYTE SWAP1 MSTORE8 POP PUSH1 0x4 SWAP5 SWAP1 SWAP5 SHR SWAP4 PUSH2 0x3497 DUP2 PUSH2 0x3DBA JUMP JUMPDEST SWAP1 POP PUSH2 0x3429 JUMP JUMPDEST POP DUP4 ISZERO PUSH2 0x18DC JUMPI PUSH1 0x40 MLOAD PUSH3 0x461BCD PUSH1 0xE5 SHL DUP2 MSTORE PUSH1 0x20 PUSH1 0x4 DUP3 ADD DUP2 SWAP1 MSTORE PUSH1 0x24 DUP3 ADD MSTORE PUSH32 0x537472696E67733A20686578206C656E67746820696E73756666696369656E74 PUSH1 0x44 DUP3 ADD MSTORE PUSH1 0x64 ADD PUSH2 0x799 JUMP JUMPDEST PUSH2 0x34F7 DUP3 DUP3 PUSH2 0x2146 JUMP JUMPDEST ISZERO PUSH2 0x30CA JUMPI PUSH1 0x0 DUP3 DUP2 MSTORE PUSH1 0x20 DUP2 DUP2 MSTORE PUSH1 0x40 DUP1 DUP4 KECCAK256 PUSH1 0x1 PUSH1 0x1 PUSH1 0xA0 SHL SUB DUP6 AND DUP1 DUP6 MSTORE SWAP3 MSTORE DUP1 DUP4 KECCAK256 DUP1 SLOAD PUSH1 0xFF NOT AND SWAP1 SSTORE MLOAD CALLER SWAP3 DUP6 SWAP2 PUSH32 0xF6391F5C32D9C69D2A47EA670B442974B53935D1EDC7FD64EB21E047A839171B SWAP2 SWAP1 LOG4 POP POP JUMP JUMPDEST PUSH1 0x0 DUP2 DUP2 MSTORE PUSH1 0x1 DUP4 ADD PUSH1 0x20 MSTORE PUSH1 0x40 DUP2 KECCAK256 SLOAD DUP1 ISZERO PUSH2 0x1918 JUMPI PUSH1 0x0 PUSH2 0x3576 PUSH1 0x1 DUP4 PUSH2 0x3C59 JUMP JUMPDEST DUP6 SLOAD SWAP1 SWAP2 POP PUSH1 0x0 SWAP1 PUSH2 0x358A SWAP1 PUSH1 0x1 SWAP1 PUSH2 0x3C59 JUMP JUMPDEST SWAP1 POP DUP2 DUP2 EQ PUSH2 0x35EF JUMPI PUSH1 0x0 DUP7 PUSH1 0x0 ADD DUP3 DUP2 SLOAD DUP2 LT PUSH2 0x35AA JUMPI PUSH2 0x35AA PUSH2 0x3AC2 JUMP JUMPDEST SWAP1 PUSH1 0x0 MSTORE PUSH1 0x20 PUSH1 0x0 KECCAK256 ADD SLOAD SWAP1 POP DUP1 DUP8 PUSH1 0x0 ADD DUP5 DUP2 SLOAD DUP2 LT PUSH2 0x35CD JUMPI PUSH2 0x35CD PUSH2 0x3AC2 JUMP JUMPDEST PUSH1 0x0 SWAP2 DUP3 MSTORE PUSH1 0x20 DUP1 DUP4 KECCAK256 SWAP1 SWAP2 ADD SWAP3 SWAP1 SWAP3 SSTORE SWAP2 DUP3 MSTORE PUSH1 0x1 DUP9 ADD SWAP1 MSTORE PUSH1 0x40 SWAP1 KECCAK256 DUP4 SWAP1 SSTORE JUMPDEST DUP6 SLOAD DUP7 SWAP1 DUP1 PUSH2 0x3600 JUMPI PUSH2 0x3600 PUSH2 0x3DD1 JUMP JUMPDEST PUSH1 0x1 SWAP1 SUB DUP2 DUP2 SWAP1 PUSH1 0x0 MSTORE PUSH1 0x20 PUSH1 0x0 KECCAK256 ADD PUSH1 0x0 SWAP1 SSTORE SWAP1 SSTORE DUP6 PUSH1 0x1 ADD PUSH1 0x0 DUP7 DUP2 MSTORE PUSH1 0x20 ADD SWAP1 DUP2 MSTORE PUSH1 0x20 ADD PUSH1 0x0 KECCAK256 PUSH1 0x0 SWAP1 SSTORE PUSH1 0x1 SWAP4 POP POP POP POP PUSH2 0x602 JUMP JUMPDEST PUSH1 0x0 DUP3 PUSH1 0x0 ADD DUP3 DUP2 SLOAD DUP2 LT PUSH2 0x3652 JUMPI PUSH2 0x3652 PUSH2 0x3AC2 JUMP JUMPDEST SWAP1 PUSH1 0x0 MSTORE PUSH1 0x20 PUSH1 0x0 KECCAK256 ADD SLOAD SWAP1 POP SWAP3 SWAP2 POP POP JUMP JUMPDEST PUSH1 0x0 PUSH1 0x20 DUP3 DUP5 SUB SLT ISZERO PUSH2 0x3677 JUMPI PUSH1 0x0 DUP1 REVERT JUMPDEST DUP2 CALLDATALOAD PUSH1 0x1 PUSH1 0x1 PUSH1 0xE0 SHL SUB NOT DUP2 AND DUP2 EQ PUSH2 0x18DC JUMPI PUSH1 0x0 DUP1 REVERT JUMPDEST PUSH1 0x0 DUP1 DUP4 PUSH1 0x1F DUP5 ADD SLT PUSH2 0x36A1 JUMPI PUSH1 0x0 DUP1 REVERT JUMPDEST POP DUP2 CALLDATALOAD PUSH8 0xFFFFFFFFFFFFFFFF DUP2 GT ISZERO PUSH2 0x36B9 JUMPI PUSH1 0x0 DUP1 REVERT JUMPDEST PUSH1 0x20 DUP4 ADD SWAP2 POP DUP4 PUSH1 0x20 DUP3 PUSH1 0x6 SHL DUP6 ADD ADD GT ISZERO PUSH2 0x36D4 JUMPI PUSH1 0x0 DUP1 REVERT JUMPDEST SWAP3 POP SWAP3 SWAP1 POP JUMP JUMPDEST PUSH1 0x0 DUP1 PUSH1 0x20 DUP4 DUP6 SUB SLT ISZERO PUSH2 0x36EE JUMPI PUSH1 0x0 DUP1 REVERT JUMPDEST DUP3 CALLDATALOAD PUSH8 0xFFFFFFFFFFFFFFFF DUP2 GT ISZERO PUSH2 0x3705 JUMPI PUSH1 0x0 DUP1 REVERT JUMPDEST PUSH2 0x3711 DUP6 DUP3 DUP7 ADD PUSH2 0x368F JUMP JUMPDEST SWAP1 SWAP7 SWAP1 SWAP6 POP SWAP4 POP POP POP POP JUMP JUMPDEST PUSH1 0x0 PUSH1 0x20 DUP3 DUP5 SUB SLT ISZERO PUSH2 0x372F JUMPI PUSH1 0x0 DUP1 REVERT JUMPDEST POP CALLDATALOAD SWAP2 SWAP1 POP JUMP JUMPDEST PUSH1 0x0 PUSH2 0x100 DUP3 DUP5 SUB SLT ISZERO PUSH2 0x323C JUMPI PUSH1 0x0 DUP1 REVERT JUMPDEST PUSH4 0x4E487B71 PUSH1 0xE0 SHL PUSH1 0x0 MSTORE PUSH1 0x41 PUSH1 0x4 MSTORE PUSH1 0x24 PUSH1 0x0 REVERT JUMPDEST PUSH1 0x0 PUSH1 0x40 DUP3 DUP5 SUB SLT ISZERO PUSH2 0x3771 JUMPI PUSH1 0x0 DUP1 REVERT JUMPDEST PUSH1 0x40 MLOAD PUSH1 0x40 DUP2 ADD DUP2 DUP2 LT PUSH8 0xFFFFFFFFFFFFFFFF DUP3 GT OR ISZERO PUSH2 0x37A2 JUMPI PUSH4 0x4E487B71 PUSH1 0xE0 SHL PUSH1 0x0 MSTORE PUSH1 0x41 PUSH1 0x4 MSTORE PUSH1 0x24 PUSH1 0x0 REVERT JUMPDEST PUSH1 0x40 MSTORE DUP3 CALLDATALOAD DUP2 MSTORE PUSH1 0x20 SWAP3 DUP4 ADD CALLDATALOAD SWAP3 DUP2 ADD SWAP3 SWAP1 SWAP3 MSTORE POP SWAP2 SWAP1 POP JUMP JUMPDEST PUSH1 0x1 PUSH1 0x1 PUSH1 0xA0 SHL SUB DUP2 AND DUP2 EQ PUSH2 0x37D1 JUMPI PUSH1 0x0 DUP1 REVERT JUMPDEST POP JUMP JUMPDEST PUSH1 0x0 DUP1 PUSH1 0x40 DUP4 DUP6 SUB SLT ISZERO PUSH2 0x37E7 JUMPI PUSH1 0x0 DUP1 REVERT JUMPDEST DUP3 CALLDATALOAD SWAP2 POP PUSH1 0x20 DUP4 ADD CALLDATALOAD PUSH2 0x37F9 DUP2 PUSH2 0x37BC JUMP JUMPDEST DUP1 SWAP2 POP POP SWAP3 POP SWAP3 SWAP1 POP JUMP JUMPDEST PUSH1 0x0 DUP1 DUP4 PUSH1 0x1F DUP5 ADD SLT PUSH2 0x3816 JUMPI PUSH1 0x0 DUP1 REVERT JUMPDEST POP DUP2 CALLDATALOAD PUSH8 0xFFFFFFFFFFFFFFFF DUP2 GT ISZERO PUSH2 0x382E JUMPI PUSH1 0x0 DUP1 REVERT JUMPDEST PUSH1 0x20 DUP4 ADD SWAP2 POP DUP4 PUSH1 0x20 DUP3 PUSH1 0x5 SHL DUP6 ADD ADD GT ISZERO PUSH2 0x36D4 JUMPI PUSH1 0x0 DUP1 REVERT JUMPDEST PUSH1 0x0 DUP1 PUSH1 0x20 DUP4 DUP6 SUB SLT ISZERO PUSH2 0x385C JUMPI PUSH1 0x0 DUP1 REVERT JUMPDEST DUP3 CALLDATALOAD PUSH8 0xFFFFFFFFFFFFFFFF DUP2 GT ISZERO PUSH2 0x3873 JUMPI PUSH1 0x0 DUP1 REVERT JUMPDEST PUSH2 0x3711 DUP6 DUP3 DUP7 ADD PUSH2 0x3804 JUMP JUMPDEST PUSH1 0x0 DUP1 PUSH1 0x40 DUP4 DUP6 SUB SLT ISZERO PUSH2 0x3892 JUMPI PUSH1 0x0 DUP1 REVERT JUMPDEST POP POP DUP1 CALLDATALOAD SWAP3 PUSH1 0x20 SWAP1 SWAP2 ADD CALLDATALOAD SWAP2 POP JUMP JUMPDEST PUSH1 0x0 PUSH1 0xC0 DUP3 DUP5 SUB SLT ISZERO PUSH2 0x38B3 JUMPI PUSH1 0x0 DUP1 REVERT JUMPDEST PUSH1 0x40 MLOAD PUSH1 0xC0 DUP2 ADD DUP2 DUP2 LT PUSH8 0xFFFFFFFFFFFFFFFF DUP3 GT OR ISZERO PUSH2 0x38E4 JUMPI PUSH4 0x4E487B71 PUSH1 0xE0 SHL PUSH1 0x0 MSTORE PUSH1 0x41 PUSH1 0x4 MSTORE PUSH1 0x24 PUSH1 0x0 REVERT JUMPDEST PUSH1 0x40 MSTORE SWAP1 POP DUP1 DUP3 CALLDATALOAD PUSH2 0x38F5 DUP2 PUSH2 0x37BC JUMP JUMPDEST DUP1 DUP3 MSTORE POP PUSH1 0x20 DUP4 ADD CALLDATALOAD PUSH1 0x20 DUP3 ADD MSTORE PUSH1 0x40 DUP4 ADD CALLDATALOAD PUSH1 0x40 DUP3 ADD MSTORE PUSH1 0x60 DUP4 ADD CALLDATALOAD PUSH1 0x60 DUP3 ADD MSTORE PUSH1 0x80 DUP4 ADD CALLDATALOAD PUSH1 0x80 DUP3 ADD MSTORE PUSH1 0xA0 DUP4 ADD CALLDATALOAD PUSH1 0xA0 DUP3 ADD MSTORE POP SWAP3 SWAP2 POP POP JUMP JUMPDEST PUSH1 0x0 DUP1 PUSH1 0xE0 DUP4 DUP6 SUB SLT ISZERO PUSH2 0x3945 JUMPI PUSH1 0x0 DUP1 REVERT JUMPDEST PUSH2 0x394F DUP5 DUP5 PUSH2 0x38A1 JUMP JUMPDEST SWAP5 PUSH1 0xC0 SWAP4 SWAP1 SWAP4 ADD CALLDATALOAD SWAP4 POP POP POP JUMP JUMPDEST PUSH1 0x0 DUP1 PUSH1 0x0 PUSH1 0x60 DUP5 DUP7 SUB SLT ISZERO PUSH2 0x3972 JUMPI PUSH1 0x0 DUP1 REVERT JUMPDEST POP POP DUP2 CALLDATALOAD SWAP4 PUSH1 0x20 DUP4 ADD CALLDATALOAD SWAP4 POP PUSH1 0x40 SWAP1 SWAP3 ADD CALLDATALOAD SWAP2 SWAP1 POP JUMP JUMPDEST PUSH1 0x0 DUP1 PUSH1 0x40 DUP4 DUP6 SUB SLT ISZERO PUSH2 0x399C JUMPI PUSH1 0x0 DUP1 REVERT JUMPDEST DUP3 CALLDATALOAD PUSH2 0x39A7 DUP2 PUSH2 0x37BC JUMP JUMPDEST SWAP5 PUSH1 0x20 SWAP4 SWAP1 SWAP4 ADD CALLDATALOAD SWAP4 POP POP POP JUMP JUMPDEST PUSH1 0x0 DUP1 PUSH1 0x0 PUSH2 0x100 DUP5 DUP7 SUB SLT ISZERO PUSH2 0x39CB JUMPI PUSH1 0x0 DUP1 REVERT JUMPDEST PUSH2 0x39D5 DUP6 DUP6 PUSH2 0x38A1 JUMP JUMPDEST SWAP6 PUSH1 0xC0 DUP6 ADD CALLDATALOAD SWAP6 POP PUSH1 0xE0 SWAP1 SWAP5 ADD CALLDATALOAD SWAP4 SWAP3 POP POP POP JUMP JUMPDEST PUSH1 0x20 DUP1 DUP3 MSTORE DUP3 MLOAD DUP3 DUP3 ADD DUP2 SWAP1 MSTORE PUSH1 0x0 SWAP2 SWAP1 PUSH1 0x40 SWAP1 DUP2 DUP6 ADD SWAP1 DUP7 DUP5 ADD DUP6 JUMPDEST DUP3 DUP2 LT ISZERO PUSH2 0x3A5E JUMPI DUP2 MLOAD DUP1 MLOAD PUSH1 0x1 PUSH1 0x1 PUSH1 0xA0 SHL SUB AND DUP6 MSTORE DUP7 DUP2 ADD MLOAD DUP8 DUP7 ADD MSTORE DUP6 DUP2 ADD MLOAD DUP7 DUP7 ADD MSTORE PUSH1 0x60 DUP1 DUP3 ADD MLOAD SWAP1 DUP7 ADD MSTORE PUSH1 0x80 DUP1 DUP3 ADD MLOAD SWAP1 DUP7 ADD MSTORE PUSH1 0xA0 SWAP1 DUP2 ADD MLOAD SWAP1 DUP6 ADD MSTORE PUSH1 0xC0 SWAP1 SWAP4 ADD SWAP3 SWAP1 DUP6 ADD SWAP1 PUSH1 0x1 ADD PUSH2 0x3A07 JUMP JUMPDEST POP SWAP2 SWAP8 SWAP7 POP POP POP POP POP POP POP JUMP JUMPDEST PUSH1 0x0 DUP1 PUSH1 0x0 PUSH1 0x40 DUP5 DUP7 SUB SLT ISZERO PUSH2 0x3A80 JUMPI PUSH1 0x0 DUP1 REVERT JUMPDEST DUP4 CALLDATALOAD PUSH8 0xFFFFFFFFFFFFFFFF DUP2 GT ISZERO PUSH2 0x3A97 JUMPI PUSH1 0x0 DUP1 REVERT JUMPDEST PUSH2 0x3AA3 DUP7 DUP3 DUP8 ADD PUSH2 0x3804 JUMP JUMPDEST SWAP1 SWAP5 POP SWAP3 POP POP PUSH1 0x20 DUP5 ADD CALLDATALOAD PUSH2 0x3AB7 DUP2 PUSH2 0x37BC JUMP JUMPDEST DUP1 SWAP2 POP POP SWAP3 POP SWAP3 POP SWAP3 JUMP JUMPDEST PUSH4 0x4E487B71 PUSH1 0xE0 SHL PUSH1 0x0 MSTORE PUSH1 0x32 PUSH1 0x4 MSTORE PUSH1 0x24 PUSH1 0x0 REVERT JUMPDEST PUSH1 0x0 PUSH1 0x20 DUP3 DUP5 SUB SLT ISZERO PUSH2 0x3AEA JUMPI PUSH1 0x0 DUP1 REVERT JUMPDEST DUP2 CALLDATALOAD PUSH2 0x18DC DUP2 PUSH2 0x37BC JUMP JUMPDEST PUSH4 0x4E487B71 PUSH1 0xE0 SHL PUSH1 0x0 MSTORE PUSH1 0x11 PUSH1 0x4 MSTORE PUSH1 0x24 PUSH1 0x0 REVERT JUMPDEST PUSH1 0x0 PUSH1 0x0 NOT DUP3 EQ ISZERO PUSH2 0x3B1F JUMPI PUSH2 0x3B1F PUSH2 0x3AF5 JUMP JUMPDEST POP PUSH1 0x1 ADD SWAP1 JUMP JUMPDEST PUSH1 0x0 PUSH1 0x20 DUP3 DUP5 SUB SLT ISZERO PUSH2 0x3B38 JUMPI PUSH1 0x0 DUP1 REVERT JUMPDEST DUP2 MLOAD PUSH2 0x18DC DUP2 PUSH2 0x37BC JUMP JUMPDEST PUSH1 0x0 PUSH1 0x20 DUP3 DUP5 SUB SLT ISZERO PUSH2 0x3B55 JUMPI PUSH1 0x0 DUP1 REVERT JUMPDEST DUP2 MLOAD DUP1 ISZERO ISZERO DUP2 EQ PUSH2 0x18DC JUMPI PUSH1 0x0 DUP1 REVERT JUMPDEST PUSH1 0x20 DUP1 DUP3 MSTORE PUSH1 0x1C SWAP1 DUP3 ADD MSTORE PUSH32 0x53533A204F6E6C79207265616C20757365727320616C6C6F7765642100000000 PUSH1 0x40 DUP3 ADD MSTORE PUSH1 0x60 ADD SWAP1 JUMP JUMPDEST PUSH1 0x20 DUP1 DUP3 MSTORE PUSH1 0x1E SWAP1 DUP3 ADD MSTORE PUSH32 0x53533A205374616B65206F776E657220646F6573206E6F74206D617463680000 PUSH1 0x40 DUP3 ADD MSTORE PUSH1 0x60 ADD SWAP1 JUMP JUMPDEST PUSH1 0x20 DUP1 DUP3 MSTORE PUSH1 0x18 SWAP1 DUP3 ADD MSTORE PUSH32 0x53533A205374616B6520646F6573206E6F742065786973740000000000000000 PUSH1 0x40 DUP3 ADD MSTORE PUSH1 0x60 ADD SWAP1 JUMP JUMPDEST PUSH1 0x20 DUP1 DUP3 MSTORE PUSH1 0x1B SWAP1 DUP3 ADD MSTORE PUSH32 0x53533A205374616B652077617320616C726561647920656E6465640000000000 PUSH1 0x40 DUP3 ADD MSTORE PUSH1 0x60 ADD SWAP1 JUMP JUMPDEST PUSH1 0x0 DUP3 NOT DUP3 GT ISZERO PUSH2 0x3C54 JUMPI PUSH2 0x3C54 PUSH2 0x3AF5 JUMP JUMPDEST POP ADD SWAP1 JUMP JUMPDEST PUSH1 0x0 DUP3 DUP3 LT ISZERO PUSH2 0x3C6B JUMPI PUSH2 0x3C6B PUSH2 0x3AF5 JUMP JUMPDEST POP SUB SWAP1 JUMP JUMPDEST PUSH1 0x0 DUP2 PUSH1 0x0 NOT DIV DUP4 GT DUP3 ISZERO ISZERO AND ISZERO PUSH2 0x3C8A JUMPI PUSH2 0x3C8A PUSH2 0x3AF5 JUMP JUMPDEST POP MUL SWAP1 JUMP JUMPDEST PUSH4 0x4E487B71 PUSH1 0xE0 SHL PUSH1 0x0 MSTORE PUSH1 0x12 PUSH1 0x4 MSTORE PUSH1 0x24 PUSH1 0x0 REVERT JUMPDEST PUSH1 0x0 DUP3 PUSH2 0x3CB4 JUMPI PUSH2 0x3CB4 PUSH2 0x3C8F JUMP JUMPDEST POP DIV SWAP1 JUMP JUMPDEST PUSH1 0x0 PUSH1 0x20 DUP3 DUP5 SUB SLT ISZERO PUSH2 0x3CCB JUMPI PUSH1 0x0 DUP1 REVERT JUMPDEST POP MLOAD SWAP2 SWAP1 POP JUMP JUMPDEST PUSH1 0x0 DUP3 PUSH2 0x3CE1 JUMPI PUSH2 0x3CE1 PUSH2 0x3C8F JUMP JUMPDEST POP MOD SWAP1 JUMP JUMPDEST PUSH1 0x0 JUMPDEST DUP4 DUP2 LT ISZERO PUSH2 0x3D01 JUMPI DUP2 DUP2 ADD MLOAD DUP4 DUP3 ADD MSTORE PUSH1 0x20 ADD PUSH2 0x3CE9 JUMP JUMPDEST DUP4 DUP2 GT ISZERO PUSH2 0x67F JUMPI POP POP PUSH1 0x0 SWAP2 ADD MSTORE JUMP JUMPDEST PUSH32 0x416363657373436F6E74726F6C3A206163636F756E7420000000000000000000 DUP2 MSTORE PUSH1 0x0 DUP4 MLOAD PUSH2 0x3D4A DUP2 PUSH1 0x17 DUP6 ADD PUSH1 0x20 DUP9 ADD PUSH2 0x3CE6 JUMP JUMPDEST PUSH17 0x1034B99036B4B9B9B4B733903937B6329 PUSH1 0x7D SHL PUSH1 0x17 SWAP2 DUP5 ADD SWAP2 DUP3 ADD MSTORE DUP4 MLOAD PUSH2 0x3D7B DUP2 PUSH1 0x28 DUP5 ADD PUSH1 0x20 DUP9 ADD PUSH2 0x3CE6 JUMP JUMPDEST ADD PUSH1 0x28 ADD SWAP5 SWAP4 POP POP POP POP JUMP JUMPDEST PUSH1 0x20 DUP2 MSTORE PUSH1 0x0 DUP3 MLOAD DUP1 PUSH1 0x20 DUP5 ADD MSTORE PUSH2 0x3DA6 DUP2 PUSH1 0x40 DUP6 ADD PUSH1 0x20 DUP8 ADD PUSH2 0x3CE6 JUMP JUMPDEST PUSH1 0x1F ADD PUSH1 0x1F NOT AND SWAP2 SWAP1 SWAP2 ADD PUSH1 0x40 ADD SWAP3 SWAP2 POP POP JUMP JUMPDEST PUSH1 0x0 DUP2 PUSH2 0x3DC9 JUMPI PUSH2 0x3DC9 PUSH2 0x3AF5 JUMP JUMPDEST POP PUSH1 0x0 NOT ADD SWAP1 JUMP JUMPDEST PUSH4 0x4E487B71 PUSH1 0xE0 SHL PUSH1 0x0 MSTORE PUSH1 0x31 PUSH1 0x4 MSTORE PUSH1 0x24 PUSH1 0x0 REVERT INVALID LOG2 PUSH5 0x6970667358 0x22 SLT KECCAK256 SUB 0xBF 0xDB STATICCALL 0xEB 0xBA PUSH16 0x6A7EECF680DD54DEF452FC9F5F910491 PUSH8 0x7A3B7C2B0E7140B0 PUSH5 0x736F6C6343 STOP ADDMOD MULMOD STOP CALLER BLOCKHASH JUMPI DUP8 STATICCALL SLT 0xA8 0x23 0xE0 CALLCODE 0xB7 PUSH4 0x1CC41B3B 0xA8 DUP3 DUP12 CALLER 0x21 0xCA DUP2 GT GT STATICCALL PUSH22 0xCD3AA3BB5ACEC2575A0E9E593C00F959F8C92F12DB28 PUSH10 0xC3395A3B0502D05E2516 DIFFICULTY PUSH16 0x71F85B405787FA12A823E0F2B7631CC4 SHL EXTCODESIZE 0xA8 DUP3 DUP12 CALLER 0x21 0xCA DUP2 GT GT STATICCALL PUSH22 0xCD3AA3BB5ACF45BC90C5E61BE4D79E2F0C1154A66333 0x2B 0xBC 0xCF PUSH11 0x26759463D04772164EEBFE 0xD2 BLOCKHASH JUMPI DUP8 STATICCALL SLT 0xA8 0x23 0xE0 CALLCODE 0xB7 PUSH4 0x1CC41B3B 0xA8 DUP3 DUP12 CALLER 0x21 0xCA DUP2 GT GT STATICCALL PUSH22 0xCD3AA3BB5AD000000000000000000000000000000000 "
		},
		"gasEstimates": {
			"creation": {
				"codeDepositCost": "3180200",
				"executionCost": "infinite",
				"totalCost": "infinite"
			},
			"external": {
				"ROLE_ADMIN()": "262",
				"adminBurnAndAddToStakersInflation(address,uint256)": "infinite",
				"adminUpdateSettings((uint256,uint256,uint256,uint256,uint256,uint256,uint256,uint256))": "infinite",
				"bulkEndStake(uint256[])": "infinite",
				"bulkScrapeStake(uint256[])": "infinite",
				"bulkStartStake((uint256,uint256)[])": "infinite",
				"bulkTransferOwnership(uint256[],address)": "infinite",
				"cachedInterestPerShare(uint256)": "4665",
				"dailySnapshots(uint256)": "8992",
				"endStake(uint256)": "infinite",
				"getCachedInterestPerShareLength()": "2359",
				"getCurrentCachedPerShareDay()": "infinite",
				"getCurrentDaySinceLaunch()": "infinite",
				"getDailySnapshotsLength()": "2381",
				"getInterestById(uint256,uint256)": "infinite",
				"getInterestByStake((address,uint256,uint256,uint256,uint256,uint256),uint256)": "infinite",
				"getPenaltyById(uint256,uint256,uint256)": "infinite",
				"getPenaltyByStake((address,uint256,uint256,uint256,uint256,uint256),uint256,uint256)": "infinite",
				"getRoleAdmin(bytes32)": "2515",
				"getRoleMember(bytes32,uint256)": "infinite",
				"getRoleMemberCount(bytes32)": "infinite",
				"getSharesCountById(uint256,uint256)": "infinite",
				"getSharesCountByStake((address,uint256,uint256,uint256,uint256,uint256),uint256)": "infinite",
				"getStakesLength()": "2404",
				"getTotalTokensStaked()": "infinite",
				"grantRole(bytes32,address)": "infinite",
				"grantRolesBulk((bytes32,address)[])": "infinite",
				"hasRole(bytes32,address)": "2740",
				"launchTimestamp()": "2406",
				"listOfStakes(uint256,uint256)": "infinite",
				"renounceRole(bytes32,address)": "infinite",
				"revokeRole(bytes32,address)": "infinite",
				"scrapeStake(uint256)": "infinite",
				"settings()": "17219",
				"stakes(uint256)": "15426",
				"startStake((uint256,uint256))": "infinite",
				"supportsInterface(bytes4)": "infinite",
				"transferOwnership(uint256,address)": "infinite",
				"updateAllSnapshots()": "infinite",
				"updateSnapshots(uint256)": "infinite"
			},
			"internal": {
				"minOfTwoUints(uint256,uint256)": "64"
			}
		},
		"methodIdentifiers": {
			"ROLE_ADMIN()": "d391014b",
			"adminBurnAndAddToStakersInflation(address,uint256)": "95f6f5d2",
			"adminUpdateSettings((uint256,uint256,uint256,uint256,uint256,uint256,uint256,uint256))": "0ffed08a",
			"bulkEndStake(uint256[])": "2a486b90",
			"bulkScrapeStake(uint256[])": "5540be7d",
			"bulkStartStake((uint256,uint256)[])": "1f009bdb",
			"bulkTransferOwnership(uint256[],address)": "e59443e6",
			"cachedInterestPerShare(uint256)": "27de406f",
			"dailySnapshots(uint256)": "a2ac13d3",
			"endStake(uint256)": "0cbe28d6",
			"getCachedInterestPerShareLength()": "58962a38",
			"getCurrentCachedPerShareDay()": "c82e3067",
			"getCurrentDaySinceLaunch()": "e99884a3",
			"getDailySnapshotsLength()": "5a49e94d",
			"getInterestById(uint256,uint256)": "388a1a81",
			"getInterestByStake((address,uint256,uint256,uint256,uint256,uint256),uint256)": "b471468d",
			"getPenaltyById(uint256,uint256,uint256)": "82c44854",
			"getPenaltyByStake((address,uint256,uint256,uint256,uint256,uint256),uint256,uint256)": "b1b63dfc",
			"getRoleAdmin(bytes32)": "248a9ca3",
			"getRoleMember(bytes32,uint256)": "9010d07c",
			"getRoleMemberCount(bytes32)": "ca15c873",
			"getSharesCountById(uint256,uint256)": "ea580bf2",
			"getSharesCountByStake((address,uint256,uint256,uint256,uint256,uint256),uint256)": "4d9dae0e",
			"getStakesLength()": "4bade67e",
			"getTotalTokensStaked()": "c763e2fc",
			"grantRole(bytes32,address)": "2f2ff15d",
			"grantRolesBulk((bytes32,address)[])": "03ed957f",
			"hasRole(bytes32,address)": "91d14854",
			"launchTimestamp()": "65cf7c9b",
			"listOfStakes(uint256,uint256)": "e225d170",
			"renounceRole(bytes32,address)": "36568abe",
			"revokeRole(bytes32,address)": "d547741f",
			"scrapeStake(uint256)": "7ba4bcfb",
			"settings()": "e06174e4",
			"stakes(uint256)": "d5a44f86",
			"startStake((uint256,uint256))": "1e22ddc7",
			"supportsInterface(bytes4)": "01ffc9a7",
			"transferOwnership(uint256,address)": "29507f73",
			"updateAllSnapshots()": "d50116b8",
			"updateSnapshots(uint256)": "ad110a67"
		}
	},
	"abi": [
		{
			"inputs": [],
			"stateMutability": "nonpayable",
			"type": "constructor"
		},
		{
			"anonymous": false,
			"inputs": [
				{
					"indexed": false,
					"internalType": "address",
					"name": "fromAddr",
					"type": "address"
				},
				{
					"indexed": false,
					"internalType": "uint256",
					"name": "amountToBurn",
					"type": "uint256"
				},
				{
					"indexed": false,
					"internalType": "uint256",
					"name": "currentDay",
					"type": "uint256"
				}
			],
			"name": "BurnedAndAddedToStakersInflation",
			"type": "event"
		},
		{
			"anonymous": false,
			"inputs": [
				{
					"indexed": false,
					"internalType": "uint256",
					"name": "sealedDay",
					"type": "uint256"
				},
				{
					"indexed": false,
					"internalType": "uint256",
					"name": "sealedCachedDay",
					"type": "uint256"
				},
				{
					"indexed": false,
					"internalType": "uint256",
					"name": "cachedInterestPerShare",
					"type": "uint256"
				}
			],
			"name": "CachedInterestPerShareSealed",
			"type": "event"
		},
		{
			"anonymous": false,
			"inputs": [
				{
					"indexed": false,
					"internalType": "uint256",
					"name": "sealedDay",
					"type": "uint256"
				},
				{
					"indexed": false,
					"internalType": "uint256",
					"name": "inflationAmount",
					"type": "uint256"
				},
				{
					"indexed": false,
					"internalType": "uint256",
					"name": "totalShares",
					"type": "uint256"
				},
				{
					"indexed": false,
					"internalType": "uint256",
					"name": "sharePrice",
					"type": "uint256"
				},
				{
					"indexed": false,
					"internalType": "uint256",
					"name": "totalStaked",
					"type": "uint256"
				},
				{
					"indexed": false,
					"internalType": "uint256",
					"name": "totalSupply",
					"type": "uint256"
				}
			],
			"name": "DailySnapshotSealed",
			"type": "event"
		},
		{
			"anonymous": false,
			"inputs": [
				{
					"indexed": false,
					"internalType": "uint256",
					"name": "newSharePrice",
					"type": "uint256"
				}
			],
			"name": "NewMaxSharePriceReached",
			"type": "event"
		},
		{
			"anonymous": false,
			"inputs": [
				{
					"indexed": true,
					"internalType": "bytes32",
					"name": "role",
					"type": "bytes32"
				},
				{
					"indexed": true,
					"internalType": "bytes32",
					"name": "previousAdminRole",
					"type": "bytes32"
				},
				{
					"indexed": true,
					"internalType": "bytes32",
					"name": "newAdminRole",
					"type": "bytes32"
				}
			],
			"name": "RoleAdminChanged",
			"type": "event"
		},
		{
			"anonymous": false,
			"inputs": [
				{
					"indexed": true,
					"internalType": "bytes32",
					"name": "role",
					"type": "bytes32"
				},
				{
					"indexed": true,
					"internalType": "address",
					"name": "account",
					"type": "address"
				},
				{
					"indexed": true,
					"internalType": "address",
					"name": "sender",
					"type": "address"
				}
			],
			"name": "RoleGranted",
			"type": "event"
		},
		{
			"anonymous": false,
			"inputs": [
				{
					"indexed": true,
					"internalType": "bytes32",
					"name": "role",
					"type": "bytes32"
				},
				{
					"indexed": true,
					"internalType": "address",
					"name": "account",
					"type": "address"
				},
				{
					"indexed": true,
					"internalType": "address",
					"name": "sender",
					"type": "address"
				}
			],
			"name": "RoleRevoked",
			"type": "event"
		},
		{
			"anonymous": false,
			"inputs": [
				{
					"components": [
						{
							"internalType": "uint256",
							"name": "MINIMUM_DAYS_FOR_HIGH_PENALTY",
							"type": "uint256"
						},
						{
							"internalType": "uint256",
							"name": "CONTROLLED_APY",
							"type": "uint256"
						},
						{
							"internalType": "uint256",
							"name": "SMALLER_PAYS_BETTER_BONUS",
							"type": "uint256"
						},
						{
							"internalType": "uint256",
							"name": "LONGER_PAYS_BETTER_BONUS",
							"type": "uint256"
						},
						{
							"internalType": "uint256",
							"name": "END_STAKE_FROM",
							"type": "uint256"
						},
						{
							"internalType": "uint256",
							"name": "END_STAKE_TO",
							"type": "uint256"
						},
						{
							"internalType": "uint256",
							"name": "MINIMUM_STAKE_DAYS",
							"type": "uint256"
						},
						{
							"internalType": "uint256",
							"name": "MAXIMUM_STAKE_DAYS",
							"type": "uint256"
						}
					],
					"indexed": false,
					"internalType": "struct Settings",
					"name": "Settings",
					"type": "tuple"
				}
			],
			"name": "SettingsUpdated",
			"type": "event"
		},
		{
			"anonymous": false,
			"inputs": [
				{
					"indexed": false,
					"internalType": "uint256",
					"name": "stakeId",
					"type": "uint256"
				},
				{
					"indexed": false,
					"internalType": "uint256",
					"name": "endDay",
					"type": "uint256"
				},
				{
					"indexed": false,
					"internalType": "uint256",
					"name": "interest",
					"type": "uint256"
				},
				{
					"indexed": false,
					"internalType": "uint256",
					"name": "penalty",
					"type": "uint256"
				}
			],
			"name": "StakeEnded",
			"type": "event"
		},
		{
			"anonymous": false,
			"inputs": [
				{
					"indexed": false,
					"internalType": "uint256",
					"name": "stakeId",
					"type": "uint256"
				},
				{
					"indexed": false,
					"internalType": "address",
					"name": "newOwner",
					"type": "address"
				}
			],
			"name": "StakeOwnerChanged",
			"type": "event"
		},
		{
			"anonymous": false,
			"inputs": [
				{
					"indexed": false,
					"internalType": "uint256",
					"name": "stakeId",
					"type": "uint256"
				},
				{
					"indexed": false,
					"internalType": "address",
					"name": "owner",
					"type": "address"
				},
				{
					"indexed": false,
					"internalType": "uint256",
					"name": "stakedAmount",
					"type": "uint256"
				},
				{
					"indexed": false,
					"internalType": "uint256",
					"name": "startDay",
					"type": "uint256"
				},
				{
					"indexed": false,
					"internalType": "uint256",
					"name": "lockedForXDays",
					"type": "uint256"
				},
				{
					"indexed": false,
					"internalType": "uint256",
					"name": "sharesCount",
					"type": "uint256"
				}
			],
			"name": "StakeStarted",
			"type": "event"
		},
		{
			"anonymous": false,
			"inputs": [
				{
					"indexed": false,
					"internalType": "uint256",
					"name": "stakeId",
					"type": "uint256"
				},
				{
					"indexed": false,
					"internalType": "uint256",
					"name": "lockedForXDays",
					"type": "uint256"
				},
				{
					"indexed": false,
					"internalType": "uint256",
					"name": "sharesCount",
					"type": "uint256"
				}
			],
			"name": "StakeUpdated",
			"type": "event"
		},
		{
			"inputs": [],
			"name": "ROLE_ADMIN",
			"outputs": [
				{
					"internalType": "bytes32",
					"name": "",
					"type": "bytes32"
				}
			],
			"stateMutability": "view",
			"type": "function"
		},
		{
			"inputs": [
				{
					"internalType": "address",
					"name": "fromAddr",
					"type": "address"
				},
				{
					"internalType": "uint256",
					"name": "amountToBurn",
					"type": "uint256"
				}
			],
			"name": "adminBurnAndAddToStakersInflation",
			"outputs": [],
			"stateMutability": "nonpayable",
			"type": "function"
		},
		{
			"inputs": [
				{
					"components": [
						{
							"internalType": "uint256",
							"name": "MINIMUM_DAYS_FOR_HIGH_PENALTY",
							"type": "uint256"
						},
						{
							"internalType": "uint256",
							"name": "CONTROLLED_APY",
							"type": "uint256"
						},
						{
							"internalType": "uint256",
							"name": "SMALLER_PAYS_BETTER_BONUS",
							"type": "uint256"
						},
						{
							"internalType": "uint256",
							"name": "LONGER_PAYS_BETTER_BONUS",
							"type": "uint256"
						},
						{
							"internalType": "uint256",
							"name": "END_STAKE_FROM",
							"type": "uint256"
						},
						{
							"internalType": "uint256",
							"name": "END_STAKE_TO",
							"type": "uint256"
						},
						{
							"internalType": "uint256",
							"name": "MINIMUM_STAKE_DAYS",
							"type": "uint256"
						},
						{
							"internalType": "uint256",
							"name": "MAXIMUM_STAKE_DAYS",
							"type": "uint256"
						}
					],
					"internalType": "struct Settings",
					"name": "_settings",
					"type": "tuple"
				}
			],
			"name": "adminUpdateSettings",
			"outputs": [],
			"stateMutability": "nonpayable",
			"type": "function"
		},
		{
			"inputs": [
				{
					"internalType": "uint256[]",
					"name": "stakeIds",
					"type": "uint256[]"
				}
			],
			"name": "bulkEndStake",
			"outputs": [],
			"stateMutability": "nonpayable",
			"type": "function"
		},
		{
			"inputs": [
				{
					"internalType": "uint256[]",
					"name": "stakeIds",
					"type": "uint256[]"
				}
			],
			"name": "bulkScrapeStake",
			"outputs": [],
			"stateMutability": "nonpayable",
			"type": "function"
		},
		{
			"inputs": [
				{
					"components": [
						{
							"internalType": "uint256",
							"name": "stakedAmount",
							"type": "uint256"
						},
						{
							"internalType": "uint256",
							"name": "lockedForXDays",
							"type": "uint256"
						}
					],
					"internalType": "struct StartStake[]",
					"name": "startStakes",
					"type": "tuple[]"
				}
			],
			"name": "bulkStartStake",
			"outputs": [],
			"stateMutability": "nonpayable",
			"type": "function"
		},
		{
			"inputs": [
				{
					"internalType": "uint256[]",
					"name": "stakeIds",
					"type": "uint256[]"
				},
				{
					"internalType": "address",
					"name": "newOwner",
					"type": "address"
				}
			],
			"name": "bulkTransferOwnership",
			"outputs": [],
			"stateMutability": "nonpayable",
			"type": "function"
		},
		{
			"inputs": [
				{
					"internalType": "uint256",
					"name": "",
					"type": "uint256"
				}
			],
			"name": "cachedInterestPerShare",
			"outputs": [
				{
					"internalType": "uint256",
					"name": "",
					"type": "uint256"
				}
			],
			"stateMutability": "view",
			"type": "function"
		},
		{
			"inputs": [
				{
					"internalType": "uint256",
					"name": "",
					"type": "uint256"
				}
			],
			"name": "dailySnapshots",
			"outputs": [
				{
					"internalType": "uint256",
					"name": "inflationAmount",
					"type": "uint256"
				},
				{
					"internalType": "uint256",
					"name": "totalShares",
					"type": "uint256"
				},
				{
					"internalType": "uint256",
					"name": "sharePrice",
					"type": "uint256"
				}
			],
			"stateMutability": "view",
			"type": "function"
		},
		{
			"inputs": [
				{
					"internalType": "uint256",
					"name": "stakeId",
					"type": "uint256"
				}
			],
			"name": "endStake",
			"outputs": [],
			"stateMutability": "nonpayable",
			"type": "function"
		},
		{
			"inputs": [],
			"name": "getCachedInterestPerShareLength",
			"outputs": [
				{
					"internalType": "uint256",
					"name": "",
					"type": "uint256"
				}
			],
			"stateMutability": "view",
			"type": "function"
		},
		{
			"inputs": [],
			"name": "getCurrentCachedPerShareDay",
			"outputs": [
				{
					"internalType": "uint256",
					"name": "",
					"type": "uint256"
				}
			],
			"stateMutability": "view",
			"type": "function"
		},
		{
			"inputs": [],
			"name": "getCurrentDaySinceLaunch",
			"outputs": [
				{
					"internalType": "uint256",
					"name": "",
					"type": "uint256"
				}
			],
			"stateMutability": "view",
			"type": "function"
		},
		{
			"inputs": [],
			"name": "getDailySnapshotsLength",
			"outputs": [
				{
					"internalType": "uint256",
					"name": "",
					"type": "uint256"
				}
			],
			"stateMutability": "view",
			"type": "function"
		},
		{
			"inputs": [
				{
					"internalType": "uint256",
					"name": "stakeId",
					"type": "uint256"
				},
				{
					"internalType": "uint256",
					"name": "givenDay",
					"type": "uint256"
				}
			],
			"name": "getInterestById",
			"outputs": [
				{
					"internalType": "uint256",
					"name": "",
					"type": "uint256"
				}
			],
			"stateMutability": "view",
			"type": "function"
		},
		{
			"inputs": [
				{
					"components": [
						{
							"internalType": "address",
							"name": "owner",
							"type": "address"
						},
						{
							"internalType": "uint256",
							"name": "stakedAmount",
							"type": "uint256"
						},
						{
							"internalType": "uint256",
							"name": "startDay",
							"type": "uint256"
						},
						{
							"internalType": "uint256",
							"name": "lockedForXDays",
							"type": "uint256"
						},
						{
							"internalType": "uint256",
							"name": "endDay",
							"type": "uint256"
						},
						{
							"internalType": "uint256",
							"name": "maxSharesCountOnStartStake",
							"type": "uint256"
						}
					],
					"internalType": "struct Stake",
					"name": "stake",
					"type": "tuple"
				},
				{
					"internalType": "uint256",
					"name": "givenDay",
					"type": "uint256"
				}
			],
			"name": "getInterestByStake",
			"outputs": [
				{
					"internalType": "uint256",
					"name": "",
					"type": "uint256"
				}
			],
			"stateMutability": "view",
			"type": "function"
		},
		{
			"inputs": [
				{
					"internalType": "uint256",
					"name": "stakeId",
					"type": "uint256"
				},
				{
					"internalType": "uint256",
					"name": "givenDay",
					"type": "uint256"
				},
				{
					"internalType": "uint256",
					"name": "interest",
					"type": "uint256"
				}
			],
			"name": "getPenaltyById",
			"outputs": [
				{
					"internalType": "uint256",
					"name": "",
					"type": "uint256"
				}
			],
			"stateMutability": "view",
			"type": "function"
		},
		{
			"inputs": [
				{
					"components": [
						{
							"internalType": "address",
							"name": "owner",
							"type": "address"
						},
						{
							"internalType": "uint256",
							"name": "stakedAmount",
							"type": "uint256"
						},
						{
							"internalType": "uint256",
							"name": "startDay",
							"type": "uint256"
						},
						{
							"internalType": "uint256",
							"name": "lockedForXDays",
							"type": "uint256"
						},
						{
							"internalType": "uint256",
							"name": "endDay",
							"type": "uint256"
						},
						{
							"internalType": "uint256",
							"name": "maxSharesCountOnStartStake",
							"type": "uint256"
						}
					],
					"internalType": "struct Stake",
					"name": "stake",
					"type": "tuple"
				},
				{
					"internalType": "uint256",
					"name": "givenDay",
					"type": "uint256"
				},
				{
					"internalType": "uint256",
					"name": "interest",
					"type": "uint256"
				}
			],
			"name": "getPenaltyByStake",
			"outputs": [
				{
					"internalType": "uint256",
					"name": "",
					"type": "uint256"
				}
			],
			"stateMutability": "view",
			"type": "function"
		},
		{
			"inputs": [
				{
					"internalType": "bytes32",
					"name": "role",
					"type": "bytes32"
				}
			],
			"name": "getRoleAdmin",
			"outputs": [
				{
					"internalType": "bytes32",
					"name": "",
					"type": "bytes32"
				}
			],
			"stateMutability": "view",
			"type": "function"
		},
		{
			"inputs": [
				{
					"internalType": "bytes32",
					"name": "role",
					"type": "bytes32"
				},
				{
					"internalType": "uint256",
					"name": "index",
					"type": "uint256"
				}
			],
			"name": "getRoleMember",
			"outputs": [
				{
					"internalType": "address",
					"name": "",
					"type": "address"
				}
			],
			"stateMutability": "view",
			"type": "function"
		},
		{
			"inputs": [
				{
					"internalType": "bytes32",
					"name": "role",
					"type": "bytes32"
				}
			],
			"name": "getRoleMemberCount",
			"outputs": [
				{
					"internalType": "uint256",
					"name": "",
					"type": "uint256"
				}
			],
			"stateMutability": "view",
			"type": "function"
		},
		{
			"inputs": [
				{
					"internalType": "uint256",
					"name": "stakeId",
					"type": "uint256"
				},
				{
					"internalType": "uint256",
					"name": "givenDay",
					"type": "uint256"
				}
			],
			"name": "getSharesCountById",
			"outputs": [
				{
					"internalType": "uint256",
					"name": "",
					"type": "uint256"
				}
			],
			"stateMutability": "view",
			"type": "function"
		},
		{
			"inputs": [
				{
					"components": [
						{
							"internalType": "address",
							"name": "owner",
							"type": "address"
						},
						{
							"internalType": "uint256",
							"name": "stakedAmount",
							"type": "uint256"
						},
						{
							"internalType": "uint256",
							"name": "startDay",
							"type": "uint256"
						},
						{
							"internalType": "uint256",
							"name": "lockedForXDays",
							"type": "uint256"
						},
						{
							"internalType": "uint256",
							"name": "endDay",
							"type": "uint256"
						},
						{
							"internalType": "uint256",
							"name": "maxSharesCountOnStartStake",
							"type": "uint256"
						}
					],
					"internalType": "struct Stake",
					"name": "stake",
					"type": "tuple"
				},
				{
					"internalType": "uint256",
					"name": "givenDay",
					"type": "uint256"
				}
			],
			"name": "getSharesCountByStake",
			"outputs": [
				{
					"internalType": "uint256",
					"name": "",
					"type": "uint256"
				}
			],
			"stateMutability": "view",
			"type": "function"
		},
		{
			"inputs": [],
			"name": "getStakesLength",
			"outputs": [
				{
					"internalType": "uint256",
					"name": "",
					"type": "uint256"
				}
			],
			"stateMutability": "view",
			"type": "function"
		},
		{
			"inputs": [],
			"name": "getTotalTokensStaked",
			"outputs": [
				{
					"internalType": "uint256",
					"name": "",
					"type": "uint256"
				}
			],
			"stateMutability": "view",
			"type": "function"
		},
		{
			"inputs": [
				{
					"internalType": "bytes32",
					"name": "role",
					"type": "bytes32"
				},
				{
					"internalType": "address",
					"name": "account",
					"type": "address"
				}
			],
			"name": "grantRole",
			"outputs": [],
			"stateMutability": "nonpayable",
			"type": "function"
		},
		{
			"inputs": [
				{
					"components": [
						{
							"internalType": "bytes32",
							"name": "role",
							"type": "bytes32"
						},
						{
							"internalType": "address",
							"name": "addr",
							"type": "address"
						}
					],
					"internalType": "struct RoleAccess[]",
					"name": "roles",
					"type": "tuple[]"
				}
			],
			"name": "grantRolesBulk",
			"outputs": [],
			"stateMutability": "nonpayable",
			"type": "function"
		},
		{
			"inputs": [
				{
					"internalType": "bytes32",
					"name": "role",
					"type": "bytes32"
				},
				{
					"internalType": "address",
					"name": "account",
					"type": "address"
				}
			],
			"name": "hasRole",
			"outputs": [
				{
					"internalType": "bool",
					"name": "",
					"type": "bool"
				}
			],
			"stateMutability": "view",
			"type": "function"
		},
		{
			"inputs": [],
			"name": "launchTimestamp",
			"outputs": [
				{
					"internalType": "uint256",
					"name": "",
					"type": "uint256"
				}
			],
			"stateMutability": "view",
			"type": "function"
		},
		{
			"inputs": [
				{
					"internalType": "uint256",
					"name": "page",
					"type": "uint256"
				},
				{
					"internalType": "uint256",
					"name": "limit",
					"type": "uint256"
				}
			],
			"name": "listOfStakes",
			"outputs": [
				{
					"components": [
						{
							"internalType": "address",
							"name": "owner",
							"type": "address"
						},
						{
							"internalType": "uint256",
							"name": "stakedAmount",
							"type": "uint256"
						},
						{
							"internalType": "uint256",
							"name": "startDay",
							"type": "uint256"
						},
						{
							"internalType": "uint256",
							"name": "lockedForXDays",
							"type": "uint256"
						},
						{
							"internalType": "uint256",
							"name": "endDay",
							"type": "uint256"
						},
						{
							"internalType": "uint256",
							"name": "maxSharesCountOnStartStake",
							"type": "uint256"
						}
					],
					"internalType": "struct Stake[]",
					"name": "",
					"type": "tuple[]"
				}
			],
			"stateMutability": "view",
			"type": "function"
		},
		{
			"inputs": [
				{
					"internalType": "bytes32",
					"name": "role",
					"type": "bytes32"
				},
				{
					"internalType": "address",
					"name": "account",
					"type": "address"
				}
			],
			"name": "renounceRole",
			"outputs": [],
			"stateMutability": "nonpayable",
			"type": "function"
		},
		{
			"inputs": [
				{
					"internalType": "bytes32",
					"name": "role",
					"type": "bytes32"
				},
				{
					"internalType": "address",
					"name": "account",
					"type": "address"
				}
			],
			"name": "revokeRole",
			"outputs": [],
			"stateMutability": "nonpayable",
			"type": "function"
		},
		{
			"inputs": [
				{
					"internalType": "uint256",
					"name": "stakeId",
					"type": "uint256"
				}
			],
			"name": "scrapeStake",
			"outputs": [],
			"stateMutability": "nonpayable",
			"type": "function"
		},
		{
			"inputs": [],
			"name": "settings",
			"outputs": [
				{
					"internalType": "uint256",
					"name": "MINIMUM_DAYS_FOR_HIGH_PENALTY",
					"type": "uint256"
				},
				{
					"internalType": "uint256",
					"name": "CONTROLLED_APY",
					"type": "uint256"
				},
				{
					"internalType": "uint256",
					"name": "SMALLER_PAYS_BETTER_BONUS",
					"type": "uint256"
				},
				{
					"internalType": "uint256",
					"name": "LONGER_PAYS_BETTER_BONUS",
					"type": "uint256"
				},
				{
					"internalType": "uint256",
					"name": "END_STAKE_FROM",
					"type": "uint256"
				},
				{
					"internalType": "uint256",
					"name": "END_STAKE_TO",
					"type": "uint256"
				},
				{
					"internalType": "uint256",
					"name": "MINIMUM_STAKE_DAYS",
					"type": "uint256"
				},
				{
					"internalType": "uint256",
					"name": "MAXIMUM_STAKE_DAYS",
					"type": "uint256"
				}
			],
			"stateMutability": "view",
			"type": "function"
		},
		{
			"inputs": [
				{
					"internalType": "uint256",
					"name": "",
					"type": "uint256"
				}
			],
			"name": "stakes",
			"outputs": [
				{
					"internalType": "address",
					"name": "owner",
					"type": "address"
				},
				{
					"internalType": "uint256",
					"name": "stakedAmount",
					"type": "uint256"
				},
				{
					"internalType": "uint256",
					"name": "startDay",
					"type": "uint256"
				},
				{
					"internalType": "uint256",
					"name": "lockedForXDays",
					"type": "uint256"
				},
				{
					"internalType": "uint256",
					"name": "endDay",
					"type": "uint256"
				},
				{
					"internalType": "uint256",
					"name": "maxSharesCountOnStartStake",
					"type": "uint256"
				}
			],
			"stateMutability": "view",
			"type": "function"
		},
		{
			"inputs": [
				{
					"components": [
						{
							"internalType": "uint256",
							"name": "stakedAmount",
							"type": "uint256"
						},
						{
							"internalType": "uint256",
							"name": "lockedForXDays",
							"type": "uint256"
						}
					],
					"internalType": "struct StartStake",
					"name": "_startStake",
					"type": "tuple"
				}
			],
			"name": "startStake",
			"outputs": [
				{
					"internalType": "uint256",
					"name": "stakeId",
					"type": "uint256"
				}
			],
			"stateMutability": "nonpayable",
			"type": "function"
		},
		{
			"inputs": [
				{
					"internalType": "bytes4",
					"name": "interfaceId",
					"type": "bytes4"
				}
			],
			"name": "supportsInterface",
			"outputs": [
				{
					"internalType": "bool",
					"name": "",
					"type": "bool"
				}
			],
			"stateMutability": "view",
			"type": "function"
		},
		{
			"inputs": [
				{
					"internalType": "uint256",
					"name": "stakeId",
					"type": "uint256"
				},
				{
					"internalType": "address",
					"name": "newOwner",
					"type": "address"
				}
			],
			"name": "transferOwnership",
			"outputs": [],
			"stateMutability": "nonpayable",
			"type": "function"
		},
		{
			"inputs": [],
			"name": "updateAllSnapshots",
			"outputs": [],
			"stateMutability": "nonpayable",
			"type": "function"
		},
		{
			"inputs": [
				{
					"internalType": "uint256",
					"name": "givenDay",
					"type": "uint256"
				}
			],
			"name": "updateSnapshots",
			"outputs": [],
			"stateMutability": "nonpayable",
			"type": "function"
		}
	]
}