{
	"data": {
		"bytecode": {
			"linkReferences": {},
			"object": "6080604052600480546001600160a01b031916737a7492a8e888ca3fe8e31cb2e34872fe0ce5309f179055600260065534801561003b57600080fd5b50610047607842610166565b600555604080516060808201835260008083526020808401828152620f4240858701818152845460018181018755868052975160039182027f290decd9548b62a8d60345a988386fc84ba6bc95484008f6362f93160ef3e5638181019290925594517f290decd9548b62a8d60345a988386fc84ba6bc95484008f6362f93160ef3e5648087019190915592517f290decd9548b62a8d60345a988386fc84ba6bc95484008f6362f93160ef3e5659586015589519788018a528688529487018681529887019283528554808901875586805296519681029485019690965596519683019690965594519401939093558054918201815582527fc2575a0e9e593c00f959f8c92f12db2869c3395a3b0502d05e2516446f71f85b015561018b565b60008282101561018657634e487b7160e01b600052601160045260246000fd5b500390565b611e3c8061019a6000396000f3fe608060405234801561001057600080fd5b506004361061010b5760003560e01c806364634fa0116100a2578063817b1cd211610071578063817b1cd2146101e8578063a2ac13d3146101f1578063ad110a671461021f578063d50116b814610232578063d5a44f861461023a57600080fd5b806364634fa0146101a7578063682ca476146101af5780636f8de83f146101c2578063728af7ec146101d557600080fd5b806329507f73116100de57806329507f7314610171578063571b2f9e1461018457806358225dc21461018c5780635a49e94d1461019f57600080fd5b80631e22ddc7146101105780631f009bdb1461012557806320e9ab121461013857806327de406f1461014b575b600080fd5b61012361011e366004611c91565b61027f565b005b610123610133366004611c1c565b6107c5565b610123610146366004611d11565b610807565b61015e610159366004611ca3565b610c56565b6040519081526020015b60405180910390f35b61012361017f366004611cd5565b610c77565b61015e610e17565b61015e61019a366004611d11565b610e2d565b60005461015e565b60065461015e565b61015e6101bd366004611d11565b6110be565b6101236101d0366004611ca3565b6112c2565b61015e6101e3366004611d11565b6112e5565b61015e60025481565b6102046101ff366004611ca3565b6115ea565b60408051938452602084019290925290820152606001610168565b61012361022d366004611ca3565b61161d565b610123611b9b565b61024d610248366004611ca3565b611ba9565b604080516001600160a01b0390961686526020860194909452928401919091526060830152608082015260a001610168565b80356102e65760405162461bcd60e51b815260206004820152602b60248201527f53533a205374616b6564416d6f756e742068617320746f206265206c6172676560448201526a72207468616e207a65726f60a81b60648201526084015b60405180910390fd5b600480546040516370a0823160e01b815233928101929092528235916001600160a01b03909116906370a082319060240160206040518083038186803b15801561032f57600080fd5b505afa158015610343573d6000803e3d6000fd5b505050506040513d601f19601f820116820180604052508101906103679190611cbc565b10156103b55760405162461bcd60e51b815260206004820181905260248201527f53533a205374616b6564416d6f756e7420657863656564732062616c616e636560448201526064016102dd565b6003816020013510156104205760405162461bcd60e51b815260206004820152602d60248201527f53533a205374616b65206d757374206265206c6f636b656420666f72206d6f7260448201526c65207468616e2034206461797360981b60648201526084016102dd565b61042c60056064611d5f565b816020013511156104a55760405162461bcd60e51b815260206004820152603b60248201527f53533a205374616b65206d757374206265206c6f636b656420666f72206c657360448201527f73207468616e203130207965617273202833363530206461797329000000000060648201526084016102dd565b6104ad611b9b565b600480546040516318a8ad8760e01b81523392810192909252823560248301526001600160a01b0316906318a8ad8790604401600060405180830381600087803b1580156104fa57600080fd5b505af115801561050e573d6000803e3d6000fd5b50505050600061051d60065490565b6040805160a08101825233815284356020808301918252928201848152928601356060830190815260006080840181815260018054808201825581845295517fb10e2d527612073b26eecdfd717e6a320cf44b4afac2b0732d9fcbe2b7fa0cf6600590970296870180546001600160a01b0319166001600160a01b0390921691909117905593517fb10e2d527612073b26eecdfd717e6a320cf44b4afac2b0732d9fcbe2b7fa0cf786015594517fb10e2d527612073b26eecdfd717e6a320cf44b4afac2b0732d9fcbe2b7fa0cf885015590517fb10e2d527612073b26eecdfd717e6a320cf44b4afac2b0732d9fcbe2b7fa0cf984015592517fb10e2d527612073b26eecdfd717e6a320cf44b4afac2b0732d9fcbe2b7fa0cfa909201919091558054929350909161064f9190611d7e565b9050600061065e8260006110be565b9050806000848154811061067457610674611df0565b906000526020600020906003020160010160008282546106949190611d33565b909155505060028054853591906000906106af908490611d33565b925050819055507fb3b7bd78c90933ee8b729da4592fa8ff3fcaad310e548c299cc82de3b4ff09ba82600184815481106106eb576106eb611df0565b6000918252602090912060059091020154600180546001600160a01b03909216918690811061071c5761071c611df0565b9060005260206000209060050201600101546001868154811061074157610741611df0565b9060005260206000209060050201600201546001878154811061076657610766611df0565b906000526020600020906005020160030154866040516107b7969594939291909586526001600160a01b0394909416602086015260408501929092526060840152608083015260a082015260c00190565b60405180910390a150505050565b60005b81811015610802576107f08383838181106107e5576107e5611df0565b90506040020161027f565b806107fa81611d95565b9150506107c8565b505050565b60015482106108665760405162461bcd60e51b815260206004820152602560248201527f53533a205374616b654964206578636565647320616c6c207374616b6573206c6044820152640cadccee8d60db1b60648201526084016102dd565b6001828154811061087957610879611df0565b9060005260206000209060050201600401546000146108da5760405162461bcd60e51b815260206004820152601b60248201527f53533a205374616b652077617320616c726561647920656e646564000000000060448201526064016102dd565b6108e3816112c2565b6108eb611b9b565b60006108f660065490565b9050806001848154811061090c5761090c611df0565b90600052602060002090600502016004018190555060006001848154811061093657610936611df0565b60009182526020918290206040805160a08101825260059390930290910180546001600160a01b039081168452600182015494840185905260028201548484015260038201546060850152600491820154608085015281549251630bb9ff5d60e01b81523392810192909252602482019490945291935090911690630bb9ff5d90604401600060405180830381600087803b1580156109d457600080fd5b505af11580156109e8573d6000803e3d6000fd5b5050505060006109f885846112e5565b90506000610a068685610e2d565b90508015610aad57600480546040516318a8ad8760e01b81523392810192909252602482018390526001600160a01b0316906318a8ad8790604401600060405180830381600087803b158015610a5b57600080fd5b505af1158015610a6f573d6000803e3d6000fd5b505050508060008581548110610a8757610a87611df0565b90600052602060002090600302016000016000828254610aa79190611d33565b90915550505b8115610ba75760048054604051630bb9ff5d60e01b81523392810192909252602482018490526001600160a01b031690630bb9ff5d90604401600060405180830381600087803b158015610b0057600080fd5b505af1158015610b14573d6000803e3d6000fd5b505050506000828460200151610b2a9190611d33565b905060008460200151620f424083610b429190611d5f565b610b4c9190611d4b565b9050610b7c8160008881548110610b6557610b65611df0565b906000526020600020906003020160020154611bf4565b60008781548110610b8f57610b8f611df0565b90600052602060002090600302016002018190555050505b610bb28660006110be565b60008581548110610bc557610bc5611df0565b90600052602060002090600302016001016000828254610be59190611d7e565b9091555050602083015160028054600090610c01908490611d7e565b90915550506040805187815260208101869052908101839052606081018290527f68e2a823e3745ee73ff62ba1efa63a1b770cd0bd3568495adc9cdf11c858684d9060800160405180910390a1505050505050565b60038181548110610c6657600080fd5b600091825260209091200154905081565b336001600160a01b031660018381548110610c9457610c94611df0565b60009182526020909120600590910201546001600160a01b031614610cfb5760405162461bcd60e51b815260206004820152601860248201527f53533a204f776e657220646f6573206e6f74206d61746368000000000000000060448201526064016102dd565b806001600160a01b031660018381548110610d1857610d18611df0565b60009182526020909120600590910201546001600160a01b03161415610d975760405162461bcd60e51b815260206004820152602e60248201527f53533a204e6577206f776e6572206d75737420626520646966666572656e742060448201526d333937b69037b6321037bbb732b960911b60648201526084016102dd565b8060018381548110610dab57610dab611df0565b60009182526020918290206005919091020180546001600160a01b0319166001600160a01b0393841617905560408051858152928416918301919091527f2cad8e3e3a0926d0a7524bd52dda355991edb76a6b44ef43e75417996062ac7a910160405180910390a15050565b60006064600654610e289190611d4b565b905090565b600080600060018581548110610e4557610e45611df0565b600091825260208083206040805160a081018252600590940290910180546001600160a01b031684526001810154928401929092526002820154908301819052600382015460608401526004909101546080830152909250610ea79086611d7e565b9050806000108015610ec9575060028260600151610ec59190611d4b565b8111155b15610f475760028260600151610edf9190611d7e565b610eea906005611d5f565b610ef5600183611d7e565b6020840151610f05906008611d5f565b610f0f9190611d5f565b610f199190611d4b565b600a83602001516009610f2c9190611d5f565b610f369190611d4b565b610f409190611d7e565b92506110b2565b8060028360600151610f599190611d4b565b108015610f6a575081606001518111155b15610fc3576060820151610f7f90600a611d5f565b6060830151610f8f836002611d5f565b610f999190611d7e565b8360200151610fa89190611d5f565b610fb29190611d4b565b600a8360200151610f369190611d4b565b8060078360600151610fd59190611d33565b1080156110085750610fe960056002611d5f565b60078360600151610ffa9190611d33565b6110049190611d33565b8111155b156110645761101960056002611d5f565b61102490600a611d5f565b60078360600151836110369190611d7e565b6110409190611d7e565b6020840151611050906009611d5f565b61105a9190611d5f565b610f409190611d4b565b61107060056002611d5f565b600783606001516110819190611d33565b61108b9190611d33565b8111156110b257600a826020015160096110a59190611d5f565b6110af9190611d4b565b92505b50909150505b92915050565b600080600184815481106110d4576110d4611df0565b600091825260208083206040805160a081018252600590940290910180546001600160a01b03168452600181015492840192909252600282015490830181905260038201546060840152600490910154608083015282549193508291811061113e5761113e611df0565b906000526020600020906003020160020154116111c35760405162461bcd60e51b815260206004820152603e60248201527f53533a205368617265207072696365206f6e207374617274206461792069732060448201527f7a65726f2c207761697420666f7220736e617073686f7420757064617465000060648201526084016102dd565b600083156111df5760408201516111da9085611d7e565b6111e5565b81606001515b90506000808360400151815481106111ff576111ff611df0565b90600052602060002090600302016002015460056002600a6112219190611d5f565b61122b9190611d5f565b6112359190611d5f565b6020840151620f42409061124a856005611d5f565b6112549190611d5f565b61125e9190611d5f565b6112689190611d4b565b600084604001518154811061127f5761127f611df0565b906000526020600020906003020160020154620f424085602001516112a49190611d5f565b6112ae9190611d4b565b6112b89190611d33565b9695505050505050565b80600660008282546112d49190611d33565b909155506112e29050611b9b565b50565b6000806000600185815481106112fd576112fd611df0565b600091825260208083206040805160a081018252600590940290910180546001600160a01b031684526001810154928401929092526002820154908301819052600382015460608401819052600490920154608084015291935061136b91879161136691611d33565b611c0b565b90506113838160016000805490506113669190611d7e565b9050600061139187836110be565b90506000606484604001516113a69190611d4b565b6113b1906001611d33565b905060006113c484611366606485611d5f565b60408601519091505b8181101561148557600081815481106113e8576113e8611df0565b9060005260206000209060030201600101546000141561140757611473565b6000818154811061141a5761141a611df0565b906000526020600020906003020160010154846000838154811061144057611440611df0565b90600052602060002090600302016000015461145c9190611d5f565b6114669190611d4b565b6114709088611d33565b96505b8061147d81611d95565b9150506113cd565b506000611493606486611d4b565b9050825b818110156114f957670de0b6b3a764000085600383815481106114bc576114bc611df0565b90600052602060002001546114d19190611d5f565b6114db9190611d4b565b6114e59089611d33565b9750806114f181611d95565b915050611497565b506000611507606487611db0565b6115119087611d7e565b905086604001518111156115db57805b868110156115d9576000818154811061153c5761153c611df0565b9060005260206000209060030201600101546000141561155b576115c7565b6000818154811061156e5761156e611df0565b906000526020600020906003020160010154866000838154811061159457611594611df0565b9060005260206000209060030201600001546115b09190611d5f565b6115ba9190611d4b565b6115c4908a611d33565b98505b806115d181611d95565b915050611521565b505b50959998505050505050505050565b600081815481106115fa57600080fd5b600091825260209091206003909102018054600182015460029092015490925083565b60065481111561166f5760405162461bcd60e51b815260206004820152601860248201527f53533a2045786365656465642063757272656e7420646179000000000000000060448201526064016102dd565b60008054670de0b6b3a7640000919061168a90600190611d7e565b9050805b8381101561199a5760008082815481106116aa576116aa611df0565b90600052602060002090600302016002015460026116c89190611d5f565b620f4240856116d960026005611d33565b6116e39190611d5f565b6116ed9190611d5f565b6116f79190611d4b565b90506000620f424061170a600584611d5f565b6117149190611d5f565b826000858154811061172857611728611df0565b9060005260206000209060030201600101546117449190611d33565b61175162061a8088611d5f565b61175b9190611d5f565b6117659190611d4b565b9050806000848154811061177b5761177b611df0565b9060005260206000209060030201600001600082825461179b9190611d33565b925050819055507f45bc90c5e61be4d79e2f0c1154a663332bbccf6a26759463d04772164eebfed283600085815481106117d7576117d7611df0565b906000526020600020906003020160000154600086815481106117fc576117fc611df0565b9060005260206000209060030201600101546000878154811061182157611821611df0565b906000526020600020906003020160020154600254600460009054906101000a90046001600160a01b03166001600160a01b03166318160ddd6040518163ffffffff1660e01b815260040160206040518083038186803b15801561188457600080fd5b505afa158015611898573d6000803e3d6000fd5b505050506040513d601f19601f820116820180604052508101906118bc9190611cbc565b604080519687526020870195909552938501929092526060840152608083015260a082015260c00160405180910390a160006040518060600160405280600081526020016000868154811061191357611913611df0565b90600052602060002090600302016001015481526020016000868154811061193d5761193d611df0565b6000918252602080832060039283020160029081015490945285546001808201885596845292819020855193909202909101918255830151938101939093556040909101519101555081905061199281611d95565b91505061168e565b506003546000906119ad90600190611d7e565b905060006119bc606486611d4b565b9050815b81811015611b93576000806119d6606484611d5f565b90505b60646119e6846001611d33565b6119f09190611d5f565b811015611aaf5760008181548110611a0a57611a0a611df0565b90600052602060002090600302016001015460001415611a2957611a9d565b60008181548110611a3c57611a3c611df0565b906000526020600020906003020160010154670de0b6b3a764000060008381548110611a6a57611a6a611df0565b906000526020600020906003020160000154611a869190611d5f565b611a909190611d4b565b611a9a9083611d33565b91505b80611aa781611d95565b9150506119d9565b5060038054829190611ac390600190611d7e565b81548110611ad357611ad3611df0565b6000918252602090912001556003547f1c9ce6f1d7f557dc59b02392857734618e6bc787c6a7c136a8bc32bed4e19111908390611b1290600190611d7e565b60038581548110611b2557611b25611df0565b60009182526020918290200154604080519485529184019290925282015260600160405180910390a1506003805460018101825560009182527fc2575a0e9e593c00f959f8c92f12db2869c3395a3b0502d05e2516446f71f85b015580611b8b81611d95565b9150506119c0565b505050505050565b611ba761022d60065490565b565b60018181548110611bb957600080fd5b6000918252602090912060059091020180546001820154600283015460038401546004909401546001600160a01b0390931694509092909185565b600081831115611c055750816110b8565b50919050565b600081831015611c055750816110b8565b60008060208385031215611c2f57600080fd5b823567ffffffffffffffff80821115611c4757600080fd5b818501915085601f830112611c5b57600080fd5b813581811115611c6a57600080fd5b8660208260061b8501011115611c7f57600080fd5b60209290920196919550909350505050565b600060408284031215611c0557600080fd5b600060208284031215611cb557600080fd5b5035919050565b600060208284031215611cce57600080fd5b5051919050565b60008060408385031215611ce857600080fd5b8235915060208301356001600160a01b0381168114611d0657600080fd5b809150509250929050565b60008060408385031215611d2457600080fd5b50508035926020909101359150565b60008219821115611d4657611d46611dc4565b500190565b600082611d5a57611d5a611dda565b500490565b6000816000190483118215151615611d7957611d79611dc4565b500290565b600082821015611d9057611d90611dc4565b500390565b6000600019821415611da957611da9611dc4565b5060010190565b600082611dbf57611dbf611dda565b500690565b634e487b7160e01b600052601160045260246000fd5b634e487b7160e01b600052601260045260246000fd5b634e487b7160e01b600052603260045260246000fdfea264697066735822122016d415ac5c41bfc902ec218826b652b9301586a4a3c3da835fe4d953e8b9b65264736f6c63430008070033",
			"opcodes": "PUSH1 0x80 PUSH1 0x40 MSTORE PUSH1 0x4 DUP1 SLOAD PUSH1 0x1 PUSH1 0x1 PUSH1 0xA0 SHL SUB NOT AND PUSH20 0x7A7492A8E888CA3FE8E31CB2E34872FE0CE5309F OR SWAP1 SSTORE PUSH1 0x2 PUSH1 0x6 SSTORE CALLVALUE DUP1 ISZERO PUSH2 0x3B JUMPI PUSH1 0x0 DUP1 REVERT JUMPDEST POP PUSH2 0x47 PUSH1 0x78 TIMESTAMP PUSH2 0x166 JUMP JUMPDEST PUSH1 0x5 SSTORE PUSH1 0x40 DUP1 MLOAD PUSH1 0x60 DUP1 DUP3 ADD DUP4 MSTORE PUSH1 0x0 DUP1 DUP4 MSTORE PUSH1 0x20 DUP1 DUP5 ADD DUP3 DUP2 MSTORE PUSH3 0xF4240 DUP6 DUP8 ADD DUP2 DUP2 MSTORE DUP5 SLOAD PUSH1 0x1 DUP2 DUP2 ADD DUP8 SSTORE DUP7 DUP1 MSTORE SWAP8 MLOAD PUSH1 0x3 SWAP2 DUP3 MUL PUSH32 0x290DECD9548B62A8D60345A988386FC84BA6BC95484008F6362F93160EF3E563 DUP2 DUP2 ADD SWAP3 SWAP1 SWAP3 SSTORE SWAP5 MLOAD PUSH32 0x290DECD9548B62A8D60345A988386FC84BA6BC95484008F6362F93160EF3E564 DUP1 DUP8 ADD SWAP2 SWAP1 SWAP2 SSTORE SWAP3 MLOAD PUSH32 0x290DECD9548B62A8D60345A988386FC84BA6BC95484008F6362F93160EF3E565 SWAP6 DUP7 ADD SSTORE DUP10 MLOAD SWAP8 DUP9 ADD DUP11 MSTORE DUP7 DUP9 MSTORE SWAP5 DUP8 ADD DUP7 DUP2 MSTORE SWAP9 DUP8 ADD SWAP3 DUP4 MSTORE DUP6 SLOAD DUP1 DUP10 ADD DUP8 SSTORE DUP7 DUP1 MSTORE SWAP7 MLOAD SWAP7 DUP2 MUL SWAP5 DUP6 ADD SWAP7 SWAP1 SWAP7 SSTORE SWAP7 MLOAD SWAP7 DUP4 ADD SWAP7 SWAP1 SWAP7 SSTORE SWAP5 MLOAD SWAP5 ADD SWAP4 SWAP1 SWAP4 SSTORE DUP1 SLOAD SWAP2 DUP3 ADD DUP2 SSTORE DUP3 MSTORE PUSH32 0xC2575A0E9E593C00F959F8C92F12DB2869C3395A3B0502D05E2516446F71F85B ADD SSTORE PUSH2 0x18B JUMP JUMPDEST PUSH1 0x0 DUP3 DUP3 LT ISZERO PUSH2 0x186 JUMPI PUSH4 0x4E487B71 PUSH1 0xE0 SHL PUSH1 0x0 MSTORE PUSH1 0x11 PUSH1 0x4 MSTORE PUSH1 0x24 PUSH1 0x0 REVERT JUMPDEST POP SUB SWAP1 JUMP JUMPDEST PUSH2 0x1E3C DUP1 PUSH2 0x19A PUSH1 0x0 CODECOPY PUSH1 0x0 RETURN INVALID PUSH1 0x80 PUSH1 0x40 MSTORE CALLVALUE DUP1 ISZERO PUSH2 0x10 JUMPI PUSH1 0x0 DUP1 REVERT JUMPDEST POP PUSH1 0x4 CALLDATASIZE LT PUSH2 0x10B JUMPI PUSH1 0x0 CALLDATALOAD PUSH1 0xE0 SHR DUP1 PUSH4 0x64634FA0 GT PUSH2 0xA2 JUMPI DUP1 PUSH4 0x817B1CD2 GT PUSH2 0x71 JUMPI DUP1 PUSH4 0x817B1CD2 EQ PUSH2 0x1E8 JUMPI DUP1 PUSH4 0xA2AC13D3 EQ PUSH2 0x1F1 JUMPI DUP1 PUSH4 0xAD110A67 EQ PUSH2 0x21F JUMPI DUP1 PUSH4 0xD50116B8 EQ PUSH2 0x232 JUMPI DUP1 PUSH4 0xD5A44F86 EQ PUSH2 0x23A JUMPI PUSH1 0x0 DUP1 REVERT JUMPDEST DUP1 PUSH4 0x64634FA0 EQ PUSH2 0x1A7 JUMPI DUP1 PUSH4 0x682CA476 EQ PUSH2 0x1AF JUMPI DUP1 PUSH4 0x6F8DE83F EQ PUSH2 0x1C2 JUMPI DUP1 PUSH4 0x728AF7EC EQ PUSH2 0x1D5 JUMPI PUSH1 0x0 DUP1 REVERT JUMPDEST DUP1 PUSH4 0x29507F73 GT PUSH2 0xDE JUMPI DUP1 PUSH4 0x29507F73 EQ PUSH2 0x171 JUMPI DUP1 PUSH4 0x571B2F9E EQ PUSH2 0x184 JUMPI DUP1 PUSH4 0x58225DC2 EQ PUSH2 0x18C JUMPI DUP1 PUSH4 0x5A49E94D EQ PUSH2 0x19F JUMPI PUSH1 0x0 DUP1 REVERT JUMPDEST DUP1 PUSH4 0x1E22DDC7 EQ PUSH2 0x110 JUMPI DUP1 PUSH4 0x1F009BDB EQ PUSH2 0x125 JUMPI DUP1 PUSH4 0x20E9AB12 EQ PUSH2 0x138 JUMPI DUP1 PUSH4 0x27DE406F EQ PUSH2 0x14B JUMPI JUMPDEST PUSH1 0x0 DUP1 REVERT JUMPDEST PUSH2 0x123 PUSH2 0x11E CALLDATASIZE PUSH1 0x4 PUSH2 0x1C91 JUMP JUMPDEST PUSH2 0x27F JUMP JUMPDEST STOP JUMPDEST PUSH2 0x123 PUSH2 0x133 CALLDATASIZE PUSH1 0x4 PUSH2 0x1C1C JUMP JUMPDEST PUSH2 0x7C5 JUMP JUMPDEST PUSH2 0x123 PUSH2 0x146 CALLDATASIZE PUSH1 0x4 PUSH2 0x1D11 JUMP JUMPDEST PUSH2 0x807 JUMP JUMPDEST PUSH2 0x15E PUSH2 0x159 CALLDATASIZE PUSH1 0x4 PUSH2 0x1CA3 JUMP JUMPDEST PUSH2 0xC56 JUMP JUMPDEST PUSH1 0x40 MLOAD SWAP1 DUP2 MSTORE PUSH1 0x20 ADD JUMPDEST PUSH1 0x40 MLOAD DUP1 SWAP2 SUB SWAP1 RETURN JUMPDEST PUSH2 0x123 PUSH2 0x17F CALLDATASIZE PUSH1 0x4 PUSH2 0x1CD5 JUMP JUMPDEST PUSH2 0xC77 JUMP JUMPDEST PUSH2 0x15E PUSH2 0xE17 JUMP JUMPDEST PUSH2 0x15E PUSH2 0x19A CALLDATASIZE PUSH1 0x4 PUSH2 0x1D11 JUMP JUMPDEST PUSH2 0xE2D JUMP JUMPDEST PUSH1 0x0 SLOAD PUSH2 0x15E JUMP JUMPDEST PUSH1 0x6 SLOAD PUSH2 0x15E JUMP JUMPDEST PUSH2 0x15E PUSH2 0x1BD CALLDATASIZE PUSH1 0x4 PUSH2 0x1D11 JUMP JUMPDEST PUSH2 0x10BE JUMP JUMPDEST PUSH2 0x123 PUSH2 0x1D0 CALLDATASIZE PUSH1 0x4 PUSH2 0x1CA3 JUMP JUMPDEST PUSH2 0x12C2 JUMP JUMPDEST PUSH2 0x15E PUSH2 0x1E3 CALLDATASIZE PUSH1 0x4 PUSH2 0x1D11 JUMP JUMPDEST PUSH2 0x12E5 JUMP JUMPDEST PUSH2 0x15E PUSH1 0x2 SLOAD DUP2 JUMP JUMPDEST PUSH2 0x204 PUSH2 0x1FF CALLDATASIZE PUSH1 0x4 PUSH2 0x1CA3 JUMP JUMPDEST PUSH2 0x15EA JUMP JUMPDEST PUSH1 0x40 DUP1 MLOAD SWAP4 DUP5 MSTORE PUSH1 0x20 DUP5 ADD SWAP3 SWAP1 SWAP3 MSTORE SWAP1 DUP3 ADD MSTORE PUSH1 0x60 ADD PUSH2 0x168 JUMP JUMPDEST PUSH2 0x123 PUSH2 0x22D CALLDATASIZE PUSH1 0x4 PUSH2 0x1CA3 JUMP JUMPDEST PUSH2 0x161D JUMP JUMPDEST PUSH2 0x123 PUSH2 0x1B9B JUMP JUMPDEST PUSH2 0x24D PUSH2 0x248 CALLDATASIZE PUSH1 0x4 PUSH2 0x1CA3 JUMP JUMPDEST PUSH2 0x1BA9 JUMP JUMPDEST PUSH1 0x40 DUP1 MLOAD PUSH1 0x1 PUSH1 0x1 PUSH1 0xA0 SHL SUB SWAP1 SWAP7 AND DUP7 MSTORE PUSH1 0x20 DUP7 ADD SWAP5 SWAP1 SWAP5 MSTORE SWAP3 DUP5 ADD SWAP2 SWAP1 SWAP2 MSTORE PUSH1 0x60 DUP4 ADD MSTORE PUSH1 0x80 DUP3 ADD MSTORE PUSH1 0xA0 ADD PUSH2 0x168 JUMP JUMPDEST DUP1 CALLDATALOAD PUSH2 0x2E6 JUMPI PUSH1 0x40 MLOAD PUSH3 0x461BCD PUSH1 0xE5 SHL DUP2 MSTORE PUSH1 0x20 PUSH1 0x4 DUP3 ADD MSTORE PUSH1 0x2B PUSH1 0x24 DUP3 ADD MSTORE PUSH32 0x53533A205374616B6564416D6F756E742068617320746F206265206C61726765 PUSH1 0x44 DUP3 ADD MSTORE PUSH11 0x72207468616E207A65726F PUSH1 0xA8 SHL PUSH1 0x64 DUP3 ADD MSTORE PUSH1 0x84 ADD JUMPDEST PUSH1 0x40 MLOAD DUP1 SWAP2 SUB SWAP1 REVERT JUMPDEST PUSH1 0x4 DUP1 SLOAD PUSH1 0x40 MLOAD PUSH4 0x70A08231 PUSH1 0xE0 SHL DUP2 MSTORE CALLER SWAP3 DUP2 ADD SWAP3 SWAP1 SWAP3 MSTORE DUP3 CALLDATALOAD SWAP2 PUSH1 0x1 PUSH1 0x1 PUSH1 0xA0 SHL SUB SWAP1 SWAP2 AND SWAP1 PUSH4 0x70A08231 SWAP1 PUSH1 0x24 ADD PUSH1 0x20 PUSH1 0x40 MLOAD DUP1 DUP4 SUB DUP2 DUP7 DUP1 EXTCODESIZE ISZERO DUP1 ISZERO PUSH2 0x32F JUMPI PUSH1 0x0 DUP1 REVERT JUMPDEST POP GAS STATICCALL ISZERO DUP1 ISZERO PUSH2 0x343 JUMPI RETURNDATASIZE PUSH1 0x0 DUP1 RETURNDATACOPY RETURNDATASIZE PUSH1 0x0 REVERT JUMPDEST POP POP POP POP PUSH1 0x40 MLOAD RETURNDATASIZE PUSH1 0x1F NOT PUSH1 0x1F DUP3 ADD AND DUP3 ADD DUP1 PUSH1 0x40 MSTORE POP DUP2 ADD SWAP1 PUSH2 0x367 SWAP2 SWAP1 PUSH2 0x1CBC JUMP JUMPDEST LT ISZERO PUSH2 0x3B5 JUMPI PUSH1 0x40 MLOAD PUSH3 0x461BCD PUSH1 0xE5 SHL DUP2 MSTORE PUSH1 0x20 PUSH1 0x4 DUP3 ADD DUP2 SWAP1 MSTORE PUSH1 0x24 DUP3 ADD MSTORE PUSH32 0x53533A205374616B6564416D6F756E7420657863656564732062616C616E6365 PUSH1 0x44 DUP3 ADD MSTORE PUSH1 0x64 ADD PUSH2 0x2DD JUMP JUMPDEST PUSH1 0x3 DUP2 PUSH1 0x20 ADD CALLDATALOAD LT ISZERO PUSH2 0x420 JUMPI PUSH1 0x40 MLOAD PUSH3 0x461BCD PUSH1 0xE5 SHL DUP2 MSTORE PUSH1 0x20 PUSH1 0x4 DUP3 ADD MSTORE PUSH1 0x2D PUSH1 0x24 DUP3 ADD MSTORE PUSH32 0x53533A205374616B65206D757374206265206C6F636B656420666F72206D6F72 PUSH1 0x44 DUP3 ADD MSTORE PUSH13 0x65207468616E20342064617973 PUSH1 0x98 SHL PUSH1 0x64 DUP3 ADD MSTORE PUSH1 0x84 ADD PUSH2 0x2DD JUMP JUMPDEST PUSH2 0x42C PUSH1 0x5 PUSH1 0x64 PUSH2 0x1D5F JUMP JUMPDEST DUP2 PUSH1 0x20 ADD CALLDATALOAD GT ISZERO PUSH2 0x4A5 JUMPI PUSH1 0x40 MLOAD PUSH3 0x461BCD PUSH1 0xE5 SHL DUP2 MSTORE PUSH1 0x20 PUSH1 0x4 DUP3 ADD MSTORE PUSH1 0x3B PUSH1 0x24 DUP3 ADD MSTORE PUSH32 0x53533A205374616B65206D757374206265206C6F636B656420666F72206C6573 PUSH1 0x44 DUP3 ADD MSTORE PUSH32 0x73207468616E2031302079656172732028333635302064617973290000000000 PUSH1 0x64 DUP3 ADD MSTORE PUSH1 0x84 ADD PUSH2 0x2DD JUMP JUMPDEST PUSH2 0x4AD PUSH2 0x1B9B JUMP JUMPDEST PUSH1 0x4 DUP1 SLOAD PUSH1 0x40 MLOAD PUSH4 0x18A8AD87 PUSH1 0xE0 SHL DUP2 MSTORE CALLER SWAP3 DUP2 ADD SWAP3 SWAP1 SWAP3 MSTORE DUP3 CALLDATALOAD PUSH1 0x24 DUP4 ADD MSTORE PUSH1 0x1 PUSH1 0x1 PUSH1 0xA0 SHL SUB AND SWAP1 PUSH4 0x18A8AD87 SWAP1 PUSH1 0x44 ADD PUSH1 0x0 PUSH1 0x40 MLOAD DUP1 DUP4 SUB DUP2 PUSH1 0x0 DUP8 DUP1 EXTCODESIZE ISZERO DUP1 ISZERO PUSH2 0x4FA JUMPI PUSH1 0x0 DUP1 REVERT JUMPDEST POP GAS CALL ISZERO DUP1 ISZERO PUSH2 0x50E JUMPI RETURNDATASIZE PUSH1 0x0 DUP1 RETURNDATACOPY RETURNDATASIZE PUSH1 0x0 REVERT JUMPDEST POP POP POP POP PUSH1 0x0 PUSH2 0x51D PUSH1 0x6 SLOAD SWAP1 JUMP JUMPDEST PUSH1 0x40 DUP1 MLOAD PUSH1 0xA0 DUP2 ADD DUP3 MSTORE CALLER DUP2 MSTORE DUP5 CALLDATALOAD PUSH1 0x20 DUP1 DUP4 ADD SWAP2 DUP3 MSTORE SWAP3 DUP3 ADD DUP5 DUP2 MSTORE SWAP3 DUP7 ADD CALLDATALOAD PUSH1 0x60 DUP4 ADD SWAP1 DUP2 MSTORE PUSH1 0x0 PUSH1 0x80 DUP5 ADD DUP2 DUP2 MSTORE PUSH1 0x1 DUP1 SLOAD DUP1 DUP3 ADD DUP3 SSTORE DUP2 DUP5 MSTORE SWAP6 MLOAD PUSH32 0xB10E2D527612073B26EECDFD717E6A320CF44B4AFAC2B0732D9FCBE2B7FA0CF6 PUSH1 0x5 SWAP1 SWAP8 MUL SWAP7 DUP8 ADD DUP1 SLOAD PUSH1 0x1 PUSH1 0x1 PUSH1 0xA0 SHL SUB NOT AND PUSH1 0x1 PUSH1 0x1 PUSH1 0xA0 SHL SUB SWAP1 SWAP3 AND SWAP2 SWAP1 SWAP2 OR SWAP1 SSTORE SWAP4 MLOAD PUSH32 0xB10E2D527612073B26EECDFD717E6A320CF44B4AFAC2B0732D9FCBE2B7FA0CF7 DUP7 ADD SSTORE SWAP5 MLOAD PUSH32 0xB10E2D527612073B26EECDFD717E6A320CF44B4AFAC2B0732D9FCBE2B7FA0CF8 DUP6 ADD SSTORE SWAP1 MLOAD PUSH32 0xB10E2D527612073B26EECDFD717E6A320CF44B4AFAC2B0732D9FCBE2B7FA0CF9 DUP5 ADD SSTORE SWAP3 MLOAD PUSH32 0xB10E2D527612073B26EECDFD717E6A320CF44B4AFAC2B0732D9FCBE2B7FA0CFA SWAP1 SWAP3 ADD SWAP2 SWAP1 SWAP2 SSTORE DUP1 SLOAD SWAP3 SWAP4 POP SWAP1 SWAP2 PUSH2 0x64F SWAP2 SWAP1 PUSH2 0x1D7E JUMP JUMPDEST SWAP1 POP PUSH1 0x0 PUSH2 0x65E DUP3 PUSH1 0x0 PUSH2 0x10BE JUMP JUMPDEST SWAP1 POP DUP1 PUSH1 0x0 DUP5 DUP2 SLOAD DUP2 LT PUSH2 0x674 JUMPI PUSH2 0x674 PUSH2 0x1DF0 JUMP JUMPDEST SWAP1 PUSH1 0x0 MSTORE PUSH1 0x20 PUSH1 0x0 KECCAK256 SWAP1 PUSH1 0x3 MUL ADD PUSH1 0x1 ADD PUSH1 0x0 DUP3 DUP3 SLOAD PUSH2 0x694 SWAP2 SWAP1 PUSH2 0x1D33 JUMP JUMPDEST SWAP1 SWAP2 SSTORE POP POP PUSH1 0x2 DUP1 SLOAD DUP6 CALLDATALOAD SWAP2 SWAP1 PUSH1 0x0 SWAP1 PUSH2 0x6AF SWAP1 DUP5 SWAP1 PUSH2 0x1D33 JUMP JUMPDEST SWAP3 POP POP DUP2 SWAP1 SSTORE POP PUSH32 0xB3B7BD78C90933EE8B729DA4592FA8FF3FCAAD310E548C299CC82DE3B4FF09BA DUP3 PUSH1 0x1 DUP5 DUP2 SLOAD DUP2 LT PUSH2 0x6EB JUMPI PUSH2 0x6EB PUSH2 0x1DF0 JUMP JUMPDEST PUSH1 0x0 SWAP2 DUP3 MSTORE PUSH1 0x20 SWAP1 SWAP2 KECCAK256 PUSH1 0x5 SWAP1 SWAP2 MUL ADD SLOAD PUSH1 0x1 DUP1 SLOAD PUSH1 0x1 PUSH1 0x1 PUSH1 0xA0 SHL SUB SWAP1 SWAP3 AND SWAP2 DUP7 SWAP1 DUP2 LT PUSH2 0x71C JUMPI PUSH2 0x71C PUSH2 0x1DF0 JUMP JUMPDEST SWAP1 PUSH1 0x0 MSTORE PUSH1 0x20 PUSH1 0x0 KECCAK256 SWAP1 PUSH1 0x5 MUL ADD PUSH1 0x1 ADD SLOAD PUSH1 0x1 DUP7 DUP2 SLOAD DUP2 LT PUSH2 0x741 JUMPI PUSH2 0x741 PUSH2 0x1DF0 JUMP JUMPDEST SWAP1 PUSH1 0x0 MSTORE PUSH1 0x20 PUSH1 0x0 KECCAK256 SWAP1 PUSH1 0x5 MUL ADD PUSH1 0x2 ADD SLOAD PUSH1 0x1 DUP8 DUP2 SLOAD DUP2 LT PUSH2 0x766 JUMPI PUSH2 0x766 PUSH2 0x1DF0 JUMP JUMPDEST SWAP1 PUSH1 0x0 MSTORE PUSH1 0x20 PUSH1 0x0 KECCAK256 SWAP1 PUSH1 0x5 MUL ADD PUSH1 0x3 ADD SLOAD DUP7 PUSH1 0x40 MLOAD PUSH2 0x7B7 SWAP7 SWAP6 SWAP5 SWAP4 SWAP3 SWAP2 SWAP1 SWAP6 DUP7 MSTORE PUSH1 0x1 PUSH1 0x1 PUSH1 0xA0 SHL SUB SWAP5 SWAP1 SWAP5 AND PUSH1 0x20 DUP7 ADD MSTORE PUSH1 0x40 DUP6 ADD SWAP3 SWAP1 SWAP3 MSTORE PUSH1 0x60 DUP5 ADD MSTORE PUSH1 0x80 DUP4 ADD MSTORE PUSH1 0xA0 DUP3 ADD MSTORE PUSH1 0xC0 ADD SWAP1 JUMP JUMPDEST PUSH1 0x40 MLOAD DUP1 SWAP2 SUB SWAP1 LOG1 POP POP POP POP JUMP JUMPDEST PUSH1 0x0 JUMPDEST DUP2 DUP2 LT ISZERO PUSH2 0x802 JUMPI PUSH2 0x7F0 DUP4 DUP4 DUP4 DUP2 DUP2 LT PUSH2 0x7E5 JUMPI PUSH2 0x7E5 PUSH2 0x1DF0 JUMP JUMPDEST SWAP1 POP PUSH1 0x40 MUL ADD PUSH2 0x27F JUMP JUMPDEST DUP1 PUSH2 0x7FA DUP2 PUSH2 0x1D95 JUMP JUMPDEST SWAP2 POP POP PUSH2 0x7C8 JUMP JUMPDEST POP POP POP JUMP JUMPDEST PUSH1 0x1 SLOAD DUP3 LT PUSH2 0x866 JUMPI PUSH1 0x40 MLOAD PUSH3 0x461BCD PUSH1 0xE5 SHL DUP2 MSTORE PUSH1 0x20 PUSH1 0x4 DUP3 ADD MSTORE PUSH1 0x25 PUSH1 0x24 DUP3 ADD MSTORE PUSH32 0x53533A205374616B654964206578636565647320616C6C207374616B6573206C PUSH1 0x44 DUP3 ADD MSTORE PUSH5 0xCADCCEE8D PUSH1 0xDB SHL PUSH1 0x64 DUP3 ADD MSTORE PUSH1 0x84 ADD PUSH2 0x2DD JUMP JUMPDEST PUSH1 0x1 DUP3 DUP2 SLOAD DUP2 LT PUSH2 0x879 JUMPI PUSH2 0x879 PUSH2 0x1DF0 JUMP JUMPDEST SWAP1 PUSH1 0x0 MSTORE PUSH1 0x20 PUSH1 0x0 KECCAK256 SWAP1 PUSH1 0x5 MUL ADD PUSH1 0x4 ADD SLOAD PUSH1 0x0 EQ PUSH2 0x8DA JUMPI PUSH1 0x40 MLOAD PUSH3 0x461BCD PUSH1 0xE5 SHL DUP2 MSTORE PUSH1 0x20 PUSH1 0x4 DUP3 ADD MSTORE PUSH1 0x1B PUSH1 0x24 DUP3 ADD MSTORE PUSH32 0x53533A205374616B652077617320616C726561647920656E6465640000000000 PUSH1 0x44 DUP3 ADD MSTORE PUSH1 0x64 ADD PUSH2 0x2DD JUMP JUMPDEST PUSH2 0x8E3 DUP2 PUSH2 0x12C2 JUMP JUMPDEST PUSH2 0x8EB PUSH2 0x1B9B JUMP JUMPDEST PUSH1 0x0 PUSH2 0x8F6 PUSH1 0x6 SLOAD SWAP1 JUMP JUMPDEST SWAP1 POP DUP1 PUSH1 0x1 DUP5 DUP2 SLOAD DUP2 LT PUSH2 0x90C JUMPI PUSH2 0x90C PUSH2 0x1DF0 JUMP JUMPDEST SWAP1 PUSH1 0x0 MSTORE PUSH1 0x20 PUSH1 0x0 KECCAK256 SWAP1 PUSH1 0x5 MUL ADD PUSH1 0x4 ADD DUP2 SWAP1 SSTORE POP PUSH1 0x0 PUSH1 0x1 DUP5 DUP2 SLOAD DUP2 LT PUSH2 0x936 JUMPI PUSH2 0x936 PUSH2 0x1DF0 JUMP JUMPDEST PUSH1 0x0 SWAP2 DUP3 MSTORE PUSH1 0x20 SWAP2 DUP3 SWAP1 KECCAK256 PUSH1 0x40 DUP1 MLOAD PUSH1 0xA0 DUP2 ADD DUP3 MSTORE PUSH1 0x5 SWAP4 SWAP1 SWAP4 MUL SWAP1 SWAP2 ADD DUP1 SLOAD PUSH1 0x1 PUSH1 0x1 PUSH1 0xA0 SHL SUB SWAP1 DUP2 AND DUP5 MSTORE PUSH1 0x1 DUP3 ADD SLOAD SWAP5 DUP5 ADD DUP6 SWAP1 MSTORE PUSH1 0x2 DUP3 ADD SLOAD DUP5 DUP5 ADD MSTORE PUSH1 0x3 DUP3 ADD SLOAD PUSH1 0x60 DUP6 ADD MSTORE PUSH1 0x4 SWAP2 DUP3 ADD SLOAD PUSH1 0x80 DUP6 ADD MSTORE DUP2 SLOAD SWAP3 MLOAD PUSH4 0xBB9FF5D PUSH1 0xE0 SHL DUP2 MSTORE CALLER SWAP3 DUP2 ADD SWAP3 SWAP1 SWAP3 MSTORE PUSH1 0x24 DUP3 ADD SWAP5 SWAP1 SWAP5 MSTORE SWAP2 SWAP4 POP SWAP1 SWAP2 AND SWAP1 PUSH4 0xBB9FF5D SWAP1 PUSH1 0x44 ADD PUSH1 0x0 PUSH1 0x40 MLOAD DUP1 DUP4 SUB DUP2 PUSH1 0x0 DUP8 DUP1 EXTCODESIZE ISZERO DUP1 ISZERO PUSH2 0x9D4 JUMPI PUSH1 0x0 DUP1 REVERT JUMPDEST POP GAS CALL ISZERO DUP1 ISZERO PUSH2 0x9E8 JUMPI RETURNDATASIZE PUSH1 0x0 DUP1 RETURNDATACOPY RETURNDATASIZE PUSH1 0x0 REVERT JUMPDEST POP POP POP POP PUSH1 0x0 PUSH2 0x9F8 DUP6 DUP5 PUSH2 0x12E5 JUMP JUMPDEST SWAP1 POP PUSH1 0x0 PUSH2 0xA06 DUP7 DUP6 PUSH2 0xE2D JUMP JUMPDEST SWAP1 POP DUP1 ISZERO PUSH2 0xAAD JUMPI PUSH1 0x4 DUP1 SLOAD PUSH1 0x40 MLOAD PUSH4 0x18A8AD87 PUSH1 0xE0 SHL DUP2 MSTORE CALLER SWAP3 DUP2 ADD SWAP3 SWAP1 SWAP3 MSTORE PUSH1 0x24 DUP3 ADD DUP4 SWAP1 MSTORE PUSH1 0x1 PUSH1 0x1 PUSH1 0xA0 SHL SUB AND SWAP1 PUSH4 0x18A8AD87 SWAP1 PUSH1 0x44 ADD PUSH1 0x0 PUSH1 0x40 MLOAD DUP1 DUP4 SUB DUP2 PUSH1 0x0 DUP8 DUP1 EXTCODESIZE ISZERO DUP1 ISZERO PUSH2 0xA5B JUMPI PUSH1 0x0 DUP1 REVERT JUMPDEST POP GAS CALL ISZERO DUP1 ISZERO PUSH2 0xA6F JUMPI RETURNDATASIZE PUSH1 0x0 DUP1 RETURNDATACOPY RETURNDATASIZE PUSH1 0x0 REVERT JUMPDEST POP POP POP POP DUP1 PUSH1 0x0 DUP6 DUP2 SLOAD DUP2 LT PUSH2 0xA87 JUMPI PUSH2 0xA87 PUSH2 0x1DF0 JUMP JUMPDEST SWAP1 PUSH1 0x0 MSTORE PUSH1 0x20 PUSH1 0x0 KECCAK256 SWAP1 PUSH1 0x3 MUL ADD PUSH1 0x0 ADD PUSH1 0x0 DUP3 DUP3 SLOAD PUSH2 0xAA7 SWAP2 SWAP1 PUSH2 0x1D33 JUMP JUMPDEST SWAP1 SWAP2 SSTORE POP POP JUMPDEST DUP2 ISZERO PUSH2 0xBA7 JUMPI PUSH1 0x4 DUP1 SLOAD PUSH1 0x40 MLOAD PUSH4 0xBB9FF5D PUSH1 0xE0 SHL DUP2 MSTORE CALLER SWAP3 DUP2 ADD SWAP3 SWAP1 SWAP3 MSTORE PUSH1 0x24 DUP3 ADD DUP5 SWAP1 MSTORE PUSH1 0x1 PUSH1 0x1 PUSH1 0xA0 SHL SUB AND SWAP1 PUSH4 0xBB9FF5D SWAP1 PUSH1 0x44 ADD PUSH1 0x0 PUSH1 0x40 MLOAD DUP1 DUP4 SUB DUP2 PUSH1 0x0 DUP8 DUP1 EXTCODESIZE ISZERO DUP1 ISZERO PUSH2 0xB00 JUMPI PUSH1 0x0 DUP1 REVERT JUMPDEST POP GAS CALL ISZERO DUP1 ISZERO PUSH2 0xB14 JUMPI RETURNDATASIZE PUSH1 0x0 DUP1 RETURNDATACOPY RETURNDATASIZE PUSH1 0x0 REVERT JUMPDEST POP POP POP POP PUSH1 0x0 DUP3 DUP5 PUSH1 0x20 ADD MLOAD PUSH2 0xB2A SWAP2 SWAP1 PUSH2 0x1D33 JUMP JUMPDEST SWAP1 POP PUSH1 0x0 DUP5 PUSH1 0x20 ADD MLOAD PUSH3 0xF4240 DUP4 PUSH2 0xB42 SWAP2 SWAP1 PUSH2 0x1D5F JUMP JUMPDEST PUSH2 0xB4C SWAP2 SWAP1 PUSH2 0x1D4B JUMP JUMPDEST SWAP1 POP PUSH2 0xB7C DUP2 PUSH1 0x0 DUP9 DUP2 SLOAD DUP2 LT PUSH2 0xB65 JUMPI PUSH2 0xB65 PUSH2 0x1DF0 JUMP JUMPDEST SWAP1 PUSH1 0x0 MSTORE PUSH1 0x20 PUSH1 0x0 KECCAK256 SWAP1 PUSH1 0x3 MUL ADD PUSH1 0x2 ADD SLOAD PUSH2 0x1BF4 JUMP JUMPDEST PUSH1 0x0 DUP8 DUP2 SLOAD DUP2 LT PUSH2 0xB8F JUMPI PUSH2 0xB8F PUSH2 0x1DF0 JUMP JUMPDEST SWAP1 PUSH1 0x0 MSTORE PUSH1 0x20 PUSH1 0x0 KECCAK256 SWAP1 PUSH1 0x3 MUL ADD PUSH1 0x2 ADD DUP2 SWAP1 SSTORE POP POP POP JUMPDEST PUSH2 0xBB2 DUP7 PUSH1 0x0 PUSH2 0x10BE JUMP JUMPDEST PUSH1 0x0 DUP6 DUP2 SLOAD DUP2 LT PUSH2 0xBC5 JUMPI PUSH2 0xBC5 PUSH2 0x1DF0 JUMP JUMPDEST SWAP1 PUSH1 0x0 MSTORE PUSH1 0x20 PUSH1 0x0 KECCAK256 SWAP1 PUSH1 0x3 MUL ADD PUSH1 0x1 ADD PUSH1 0x0 DUP3 DUP3 SLOAD PUSH2 0xBE5 SWAP2 SWAP1 PUSH2 0x1D7E JUMP JUMPDEST SWAP1 SWAP2 SSTORE POP POP PUSH1 0x20 DUP4 ADD MLOAD PUSH1 0x2 DUP1 SLOAD PUSH1 0x0 SWAP1 PUSH2 0xC01 SWAP1 DUP5 SWAP1 PUSH2 0x1D7E JUMP JUMPDEST SWAP1 SWAP2 SSTORE POP POP PUSH1 0x40 DUP1 MLOAD DUP8 DUP2 MSTORE PUSH1 0x20 DUP2 ADD DUP7 SWAP1 MSTORE SWAP1 DUP2 ADD DUP4 SWAP1 MSTORE PUSH1 0x60 DUP2 ADD DUP3 SWAP1 MSTORE PUSH32 0x68E2A823E3745EE73FF62BA1EFA63A1B770CD0BD3568495ADC9CDF11C858684D SWAP1 PUSH1 0x80 ADD PUSH1 0x40 MLOAD DUP1 SWAP2 SUB SWAP1 LOG1 POP POP POP POP POP POP JUMP JUMPDEST PUSH1 0x3 DUP2 DUP2 SLOAD DUP2 LT PUSH2 0xC66 JUMPI PUSH1 0x0 DUP1 REVERT JUMPDEST PUSH1 0x0 SWAP2 DUP3 MSTORE PUSH1 0x20 SWAP1 SWAP2 KECCAK256 ADD SLOAD SWAP1 POP DUP2 JUMP JUMPDEST CALLER PUSH1 0x1 PUSH1 0x1 PUSH1 0xA0 SHL SUB AND PUSH1 0x1 DUP4 DUP2 SLOAD DUP2 LT PUSH2 0xC94 JUMPI PUSH2 0xC94 PUSH2 0x1DF0 JUMP JUMPDEST PUSH1 0x0 SWAP2 DUP3 MSTORE PUSH1 0x20 SWAP1 SWAP2 KECCAK256 PUSH1 0x5 SWAP1 SWAP2 MUL ADD SLOAD PUSH1 0x1 PUSH1 0x1 PUSH1 0xA0 SHL SUB AND EQ PUSH2 0xCFB JUMPI PUSH1 0x40 MLOAD PUSH3 0x461BCD PUSH1 0xE5 SHL DUP2 MSTORE PUSH1 0x20 PUSH1 0x4 DUP3 ADD MSTORE PUSH1 0x18 PUSH1 0x24 DUP3 ADD MSTORE PUSH32 0x53533A204F776E657220646F6573206E6F74206D617463680000000000000000 PUSH1 0x44 DUP3 ADD MSTORE PUSH1 0x64 ADD PUSH2 0x2DD JUMP JUMPDEST DUP1 PUSH1 0x1 PUSH1 0x1 PUSH1 0xA0 SHL SUB AND PUSH1 0x1 DUP4 DUP2 SLOAD DUP2 LT PUSH2 0xD18 JUMPI PUSH2 0xD18 PUSH2 0x1DF0 JUMP JUMPDEST PUSH1 0x0 SWAP2 DUP3 MSTORE PUSH1 0x20 SWAP1 SWAP2 KECCAK256 PUSH1 0x5 SWAP1 SWAP2 MUL ADD SLOAD PUSH1 0x1 PUSH1 0x1 PUSH1 0xA0 SHL SUB AND EQ ISZERO PUSH2 0xD97 JUMPI PUSH1 0x40 MLOAD PUSH3 0x461BCD PUSH1 0xE5 SHL DUP2 MSTORE PUSH1 0x20 PUSH1 0x4 DUP3 ADD MSTORE PUSH1 0x2E PUSH1 0x24 DUP3 ADD MSTORE PUSH32 0x53533A204E6577206F776E6572206D75737420626520646966666572656E7420 PUSH1 0x44 DUP3 ADD MSTORE PUSH14 0x333937B69037B6321037BBB732B9 PUSH1 0x91 SHL PUSH1 0x64 DUP3 ADD MSTORE PUSH1 0x84 ADD PUSH2 0x2DD JUMP JUMPDEST DUP1 PUSH1 0x1 DUP4 DUP2 SLOAD DUP2 LT PUSH2 0xDAB JUMPI PUSH2 0xDAB PUSH2 0x1DF0 JUMP JUMPDEST PUSH1 0x0 SWAP2 DUP3 MSTORE PUSH1 0x20 SWAP2 DUP3 SWAP1 KECCAK256 PUSH1 0x5 SWAP2 SWAP1 SWAP2 MUL ADD DUP1 SLOAD PUSH1 0x1 PUSH1 0x1 PUSH1 0xA0 SHL SUB NOT AND PUSH1 0x1 PUSH1 0x1 PUSH1 0xA0 SHL SUB SWAP4 DUP5 AND OR SWAP1 SSTORE PUSH1 0x40 DUP1 MLOAD DUP6 DUP2 MSTORE SWAP3 DUP5 AND SWAP2 DUP4 ADD SWAP2 SWAP1 SWAP2 MSTORE PUSH32 0x2CAD8E3E3A0926D0A7524BD52DDA355991EDB76A6B44EF43E75417996062AC7A SWAP2 ADD PUSH1 0x40 MLOAD DUP1 SWAP2 SUB SWAP1 LOG1 POP POP JUMP JUMPDEST PUSH1 0x0 PUSH1 0x64 PUSH1 0x6 SLOAD PUSH2 0xE28 SWAP2 SWAP1 PUSH2 0x1D4B JUMP JUMPDEST SWAP1 POP SWAP1 JUMP JUMPDEST PUSH1 0x0 DUP1 PUSH1 0x0 PUSH1 0x1 DUP6 DUP2 SLOAD DUP2 LT PUSH2 0xE45 JUMPI PUSH2 0xE45 PUSH2 0x1DF0 JUMP JUMPDEST PUSH1 0x0 SWAP2 DUP3 MSTORE PUSH1 0x20 DUP1 DUP4 KECCAK256 PUSH1 0x40 DUP1 MLOAD PUSH1 0xA0 DUP2 ADD DUP3 MSTORE PUSH1 0x5 SWAP1 SWAP5 MUL SWAP1 SWAP2 ADD DUP1 SLOAD PUSH1 0x1 PUSH1 0x1 PUSH1 0xA0 SHL SUB AND DUP5 MSTORE PUSH1 0x1 DUP2 ADD SLOAD SWAP3 DUP5 ADD SWAP3 SWAP1 SWAP3 MSTORE PUSH1 0x2 DUP3 ADD SLOAD SWAP1 DUP4 ADD DUP2 SWAP1 MSTORE PUSH1 0x3 DUP3 ADD SLOAD PUSH1 0x60 DUP5 ADD MSTORE PUSH1 0x4 SWAP1 SWAP2 ADD SLOAD PUSH1 0x80 DUP4 ADD MSTORE SWAP1 SWAP3 POP PUSH2 0xEA7 SWAP1 DUP7 PUSH2 0x1D7E JUMP JUMPDEST SWAP1 POP DUP1 PUSH1 0x0 LT DUP1 ISZERO PUSH2 0xEC9 JUMPI POP PUSH1 0x2 DUP3 PUSH1 0x60 ADD MLOAD PUSH2 0xEC5 SWAP2 SWAP1 PUSH2 0x1D4B JUMP JUMPDEST DUP2 GT ISZERO JUMPDEST ISZERO PUSH2 0xF47 JUMPI PUSH1 0x2 DUP3 PUSH1 0x60 ADD MLOAD PUSH2 0xEDF SWAP2 SWAP1 PUSH2 0x1D7E JUMP JUMPDEST PUSH2 0xEEA SWAP1 PUSH1 0x5 PUSH2 0x1D5F JUMP JUMPDEST PUSH2 0xEF5 PUSH1 0x1 DUP4 PUSH2 0x1D7E JUMP JUMPDEST PUSH1 0x20 DUP5 ADD MLOAD PUSH2 0xF05 SWAP1 PUSH1 0x8 PUSH2 0x1D5F JUMP JUMPDEST PUSH2 0xF0F SWAP2 SWAP1 PUSH2 0x1D5F JUMP JUMPDEST PUSH2 0xF19 SWAP2 SWAP1 PUSH2 0x1D4B JUMP JUMPDEST PUSH1 0xA DUP4 PUSH1 0x20 ADD MLOAD PUSH1 0x9 PUSH2 0xF2C SWAP2 SWAP1 PUSH2 0x1D5F JUMP JUMPDEST PUSH2 0xF36 SWAP2 SWAP1 PUSH2 0x1D4B JUMP JUMPDEST PUSH2 0xF40 SWAP2 SWAP1 PUSH2 0x1D7E JUMP JUMPDEST SWAP3 POP PUSH2 0x10B2 JUMP JUMPDEST DUP1 PUSH1 0x2 DUP4 PUSH1 0x60 ADD MLOAD PUSH2 0xF59 SWAP2 SWAP1 PUSH2 0x1D4B JUMP JUMPDEST LT DUP1 ISZERO PUSH2 0xF6A JUMPI POP DUP2 PUSH1 0x60 ADD MLOAD DUP2 GT ISZERO JUMPDEST ISZERO PUSH2 0xFC3 JUMPI PUSH1 0x60 DUP3 ADD MLOAD PUSH2 0xF7F SWAP1 PUSH1 0xA PUSH2 0x1D5F JUMP JUMPDEST PUSH1 0x60 DUP4 ADD MLOAD PUSH2 0xF8F DUP4 PUSH1 0x2 PUSH2 0x1D5F JUMP JUMPDEST PUSH2 0xF99 SWAP2 SWAP1 PUSH2 0x1D7E JUMP JUMPDEST DUP4 PUSH1 0x20 ADD MLOAD PUSH2 0xFA8 SWAP2 SWAP1 PUSH2 0x1D5F JUMP JUMPDEST PUSH2 0xFB2 SWAP2 SWAP1 PUSH2 0x1D4B JUMP JUMPDEST PUSH1 0xA DUP4 PUSH1 0x20 ADD MLOAD PUSH2 0xF36 SWAP2 SWAP1 PUSH2 0x1D4B JUMP JUMPDEST DUP1 PUSH1 0x7 DUP4 PUSH1 0x60 ADD MLOAD PUSH2 0xFD5 SWAP2 SWAP1 PUSH2 0x1D33 JUMP JUMPDEST LT DUP1 ISZERO PUSH2 0x1008 JUMPI POP PUSH2 0xFE9 PUSH1 0x5 PUSH1 0x2 PUSH2 0x1D5F JUMP JUMPDEST PUSH1 0x7 DUP4 PUSH1 0x60 ADD MLOAD PUSH2 0xFFA SWAP2 SWAP1 PUSH2 0x1D33 JUMP JUMPDEST PUSH2 0x1004 SWAP2 SWAP1 PUSH2 0x1D33 JUMP JUMPDEST DUP2 GT ISZERO JUMPDEST ISZERO PUSH2 0x1064 JUMPI PUSH2 0x1019 PUSH1 0x5 PUSH1 0x2 PUSH2 0x1D5F JUMP JUMPDEST PUSH2 0x1024 SWAP1 PUSH1 0xA PUSH2 0x1D5F JUMP JUMPDEST PUSH1 0x7 DUP4 PUSH1 0x60 ADD MLOAD DUP4 PUSH2 0x1036 SWAP2 SWAP1 PUSH2 0x1D7E JUMP JUMPDEST PUSH2 0x1040 SWAP2 SWAP1 PUSH2 0x1D7E JUMP JUMPDEST PUSH1 0x20 DUP5 ADD MLOAD PUSH2 0x1050 SWAP1 PUSH1 0x9 PUSH2 0x1D5F JUMP JUMPDEST PUSH2 0x105A SWAP2 SWAP1 PUSH2 0x1D5F JUMP JUMPDEST PUSH2 0xF40 SWAP2 SWAP1 PUSH2 0x1D4B JUMP JUMPDEST PUSH2 0x1070 PUSH1 0x5 PUSH1 0x2 PUSH2 0x1D5F JUMP JUMPDEST PUSH1 0x7 DUP4 PUSH1 0x60 ADD MLOAD PUSH2 0x1081 SWAP2 SWAP1 PUSH2 0x1D33 JUMP JUMPDEST PUSH2 0x108B SWAP2 SWAP1 PUSH2 0x1D33 JUMP JUMPDEST DUP2 GT ISZERO PUSH2 0x10B2 JUMPI PUSH1 0xA DUP3 PUSH1 0x20 ADD MLOAD PUSH1 0x9 PUSH2 0x10A5 SWAP2 SWAP1 PUSH2 0x1D5F JUMP JUMPDEST PUSH2 0x10AF SWAP2 SWAP1 PUSH2 0x1D4B JUMP JUMPDEST SWAP3 POP JUMPDEST POP SWAP1 SWAP2 POP POP JUMPDEST SWAP3 SWAP2 POP POP JUMP JUMPDEST PUSH1 0x0 DUP1 PUSH1 0x1 DUP5 DUP2 SLOAD DUP2 LT PUSH2 0x10D4 JUMPI PUSH2 0x10D4 PUSH2 0x1DF0 JUMP JUMPDEST PUSH1 0x0 SWAP2 DUP3 MSTORE PUSH1 0x20 DUP1 DUP4 KECCAK256 PUSH1 0x40 DUP1 MLOAD PUSH1 0xA0 DUP2 ADD DUP3 MSTORE PUSH1 0x5 SWAP1 SWAP5 MUL SWAP1 SWAP2 ADD DUP1 SLOAD PUSH1 0x1 PUSH1 0x1 PUSH1 0xA0 SHL SUB AND DUP5 MSTORE PUSH1 0x1 DUP2 ADD SLOAD SWAP3 DUP5 ADD SWAP3 SWAP1 SWAP3 MSTORE PUSH1 0x2 DUP3 ADD SLOAD SWAP1 DUP4 ADD DUP2 SWAP1 MSTORE PUSH1 0x3 DUP3 ADD SLOAD PUSH1 0x60 DUP5 ADD MSTORE PUSH1 0x4 SWAP1 SWAP2 ADD SLOAD PUSH1 0x80 DUP4 ADD MSTORE DUP3 SLOAD SWAP2 SWAP4 POP DUP3 SWAP2 DUP2 LT PUSH2 0x113E JUMPI PUSH2 0x113E PUSH2 0x1DF0 JUMP JUMPDEST SWAP1 PUSH1 0x0 MSTORE PUSH1 0x20 PUSH1 0x0 KECCAK256 SWAP1 PUSH1 0x3 MUL ADD PUSH1 0x2 ADD SLOAD GT PUSH2 0x11C3 JUMPI PUSH1 0x40 MLOAD PUSH3 0x461BCD PUSH1 0xE5 SHL DUP2 MSTORE PUSH1 0x20 PUSH1 0x4 DUP3 ADD MSTORE PUSH1 0x3E PUSH1 0x24 DUP3 ADD MSTORE PUSH32 0x53533A205368617265207072696365206F6E2073746172742064617920697320 PUSH1 0x44 DUP3 ADD MSTORE PUSH32 0x7A65726F2C207761697420666F7220736E617073686F74207570646174650000 PUSH1 0x64 DUP3 ADD MSTORE PUSH1 0x84 ADD PUSH2 0x2DD JUMP JUMPDEST PUSH1 0x0 DUP4 ISZERO PUSH2 0x11DF JUMPI PUSH1 0x40 DUP3 ADD MLOAD PUSH2 0x11DA SWAP1 DUP6 PUSH2 0x1D7E JUMP JUMPDEST PUSH2 0x11E5 JUMP JUMPDEST DUP2 PUSH1 0x60 ADD MLOAD JUMPDEST SWAP1 POP PUSH1 0x0 DUP1 DUP4 PUSH1 0x40 ADD MLOAD DUP2 SLOAD DUP2 LT PUSH2 0x11FF JUMPI PUSH2 0x11FF PUSH2 0x1DF0 JUMP JUMPDEST SWAP1 PUSH1 0x0 MSTORE PUSH1 0x20 PUSH1 0x0 KECCAK256 SWAP1 PUSH1 0x3 MUL ADD PUSH1 0x2 ADD SLOAD PUSH1 0x5 PUSH1 0x2 PUSH1 0xA PUSH2 0x1221 SWAP2 SWAP1 PUSH2 0x1D5F JUMP JUMPDEST PUSH2 0x122B SWAP2 SWAP1 PUSH2 0x1D5F JUMP JUMPDEST PUSH2 0x1235 SWAP2 SWAP1 PUSH2 0x1D5F JUMP JUMPDEST PUSH1 0x20 DUP5 ADD MLOAD PUSH3 0xF4240 SWAP1 PUSH2 0x124A DUP6 PUSH1 0x5 PUSH2 0x1D5F JUMP JUMPDEST PUSH2 0x1254 SWAP2 SWAP1 PUSH2 0x1D5F JUMP JUMPDEST PUSH2 0x125E SWAP2 SWAP1 PUSH2 0x1D5F JUMP JUMPDEST PUSH2 0x1268 SWAP2 SWAP1 PUSH2 0x1D4B JUMP JUMPDEST PUSH1 0x0 DUP5 PUSH1 0x40 ADD MLOAD DUP2 SLOAD DUP2 LT PUSH2 0x127F JUMPI PUSH2 0x127F PUSH2 0x1DF0 JUMP JUMPDEST SWAP1 PUSH1 0x0 MSTORE PUSH1 0x20 PUSH1 0x0 KECCAK256 SWAP1 PUSH1 0x3 MUL ADD PUSH1 0x2 ADD SLOAD PUSH3 0xF4240 DUP6 PUSH1 0x20 ADD MLOAD PUSH2 0x12A4 SWAP2 SWAP1 PUSH2 0x1D5F JUMP JUMPDEST PUSH2 0x12AE SWAP2 SWAP1 PUSH2 0x1D4B JUMP JUMPDEST PUSH2 0x12B8 SWAP2 SWAP1 PUSH2 0x1D33 JUMP JUMPDEST SWAP7 SWAP6 POP POP POP POP POP POP JUMP JUMPDEST DUP1 PUSH1 0x6 PUSH1 0x0 DUP3 DUP3 SLOAD PUSH2 0x12D4 SWAP2 SWAP1 PUSH2 0x1D33 JUMP JUMPDEST SWAP1 SWAP2 SSTORE POP PUSH2 0x12E2 SWAP1 POP PUSH2 0x1B9B JUMP JUMPDEST POP JUMP JUMPDEST PUSH1 0x0 DUP1 PUSH1 0x0 PUSH1 0x1 DUP6 DUP2 SLOAD DUP2 LT PUSH2 0x12FD JUMPI PUSH2 0x12FD PUSH2 0x1DF0 JUMP JUMPDEST PUSH1 0x0 SWAP2 DUP3 MSTORE PUSH1 0x20 DUP1 DUP4 KECCAK256 PUSH1 0x40 DUP1 MLOAD PUSH1 0xA0 DUP2 ADD DUP3 MSTORE PUSH1 0x5 SWAP1 SWAP5 MUL SWAP1 SWAP2 ADD DUP1 SLOAD PUSH1 0x1 PUSH1 0x1 PUSH1 0xA0 SHL SUB AND DUP5 MSTORE PUSH1 0x1 DUP2 ADD SLOAD SWAP3 DUP5 ADD SWAP3 SWAP1 SWAP3 MSTORE PUSH1 0x2 DUP3 ADD SLOAD SWAP1 DUP4 ADD DUP2 SWAP1 MSTORE PUSH1 0x3 DUP3 ADD SLOAD PUSH1 0x60 DUP5 ADD DUP2 SWAP1 MSTORE PUSH1 0x4 SWAP1 SWAP3 ADD SLOAD PUSH1 0x80 DUP5 ADD MSTORE SWAP2 SWAP4 POP PUSH2 0x136B SWAP2 DUP8 SWAP2 PUSH2 0x1366 SWAP2 PUSH2 0x1D33 JUMP JUMPDEST PUSH2 0x1C0B JUMP JUMPDEST SWAP1 POP PUSH2 0x1383 DUP2 PUSH1 0x1 PUSH1 0x0 DUP1 SLOAD SWAP1 POP PUSH2 0x1366 SWAP2 SWAP1 PUSH2 0x1D7E JUMP JUMPDEST SWAP1 POP PUSH1 0x0 PUSH2 0x1391 DUP8 DUP4 PUSH2 0x10BE JUMP JUMPDEST SWAP1 POP PUSH1 0x0 PUSH1 0x64 DUP5 PUSH1 0x40 ADD MLOAD PUSH2 0x13A6 SWAP2 SWAP1 PUSH2 0x1D4B JUMP JUMPDEST PUSH2 0x13B1 SWAP1 PUSH1 0x1 PUSH2 0x1D33 JUMP JUMPDEST SWAP1 POP PUSH1 0x0 PUSH2 0x13C4 DUP5 PUSH2 0x1366 PUSH1 0x64 DUP6 PUSH2 0x1D5F JUMP JUMPDEST PUSH1 0x40 DUP7 ADD MLOAD SWAP1 SWAP2 POP JUMPDEST DUP2 DUP2 LT ISZERO PUSH2 0x1485 JUMPI PUSH1 0x0 DUP2 DUP2 SLOAD DUP2 LT PUSH2 0x13E8 JUMPI PUSH2 0x13E8 PUSH2 0x1DF0 JUMP JUMPDEST SWAP1 PUSH1 0x0 MSTORE PUSH1 0x20 PUSH1 0x0 KECCAK256 SWAP1 PUSH1 0x3 MUL ADD PUSH1 0x1 ADD SLOAD PUSH1 0x0 EQ ISZERO PUSH2 0x1407 JUMPI PUSH2 0x1473 JUMP JUMPDEST PUSH1 0x0 DUP2 DUP2 SLOAD DUP2 LT PUSH2 0x141A JUMPI PUSH2 0x141A PUSH2 0x1DF0 JUMP JUMPDEST SWAP1 PUSH1 0x0 MSTORE PUSH1 0x20 PUSH1 0x0 KECCAK256 SWAP1 PUSH1 0x3 MUL ADD PUSH1 0x1 ADD SLOAD DUP5 PUSH1 0x0 DUP4 DUP2 SLOAD DUP2 LT PUSH2 0x1440 JUMPI PUSH2 0x1440 PUSH2 0x1DF0 JUMP JUMPDEST SWAP1 PUSH1 0x0 MSTORE PUSH1 0x20 PUSH1 0x0 KECCAK256 SWAP1 PUSH1 0x3 MUL ADD PUSH1 0x0 ADD SLOAD PUSH2 0x145C SWAP2 SWAP1 PUSH2 0x1D5F JUMP JUMPDEST PUSH2 0x1466 SWAP2 SWAP1 PUSH2 0x1D4B JUMP JUMPDEST PUSH2 0x1470 SWAP1 DUP9 PUSH2 0x1D33 JUMP JUMPDEST SWAP7 POP JUMPDEST DUP1 PUSH2 0x147D DUP2 PUSH2 0x1D95 JUMP JUMPDEST SWAP2 POP POP PUSH2 0x13CD JUMP JUMPDEST POP PUSH1 0x0 PUSH2 0x1493 PUSH1 0x64 DUP7 PUSH2 0x1D4B JUMP JUMPDEST SWAP1 POP DUP3 JUMPDEST DUP2 DUP2 LT ISZERO PUSH2 0x14F9 JUMPI PUSH8 0xDE0B6B3A7640000 DUP6 PUSH1 0x3 DUP4 DUP2 SLOAD DUP2 LT PUSH2 0x14BC JUMPI PUSH2 0x14BC PUSH2 0x1DF0 JUMP JUMPDEST SWAP1 PUSH1 0x0 MSTORE PUSH1 0x20 PUSH1 0x0 KECCAK256 ADD SLOAD PUSH2 0x14D1 SWAP2 SWAP1 PUSH2 0x1D5F JUMP JUMPDEST PUSH2 0x14DB SWAP2 SWAP1 PUSH2 0x1D4B JUMP JUMPDEST PUSH2 0x14E5 SWAP1 DUP10 PUSH2 0x1D33 JUMP JUMPDEST SWAP8 POP DUP1 PUSH2 0x14F1 DUP2 PUSH2 0x1D95 JUMP JUMPDEST SWAP2 POP POP PUSH2 0x1497 JUMP JUMPDEST POP PUSH1 0x0 PUSH2 0x1507 PUSH1 0x64 DUP8 PUSH2 0x1DB0 JUMP JUMPDEST PUSH2 0x1511 SWAP1 DUP8 PUSH2 0x1D7E JUMP JUMPDEST SWAP1 POP DUP7 PUSH1 0x40 ADD MLOAD DUP2 GT ISZERO PUSH2 0x15DB JUMPI DUP1 JUMPDEST DUP7 DUP2 LT ISZERO PUSH2 0x15D9 JUMPI PUSH1 0x0 DUP2 DUP2 SLOAD DUP2 LT PUSH2 0x153C JUMPI PUSH2 0x153C PUSH2 0x1DF0 JUMP JUMPDEST SWAP1 PUSH1 0x0 MSTORE PUSH1 0x20 PUSH1 0x0 KECCAK256 SWAP1 PUSH1 0x3 MUL ADD PUSH1 0x1 ADD SLOAD PUSH1 0x0 EQ ISZERO PUSH2 0x155B JUMPI PUSH2 0x15C7 JUMP JUMPDEST PUSH1 0x0 DUP2 DUP2 SLOAD DUP2 LT PUSH2 0x156E JUMPI PUSH2 0x156E PUSH2 0x1DF0 JUMP JUMPDEST SWAP1 PUSH1 0x0 MSTORE PUSH1 0x20 PUSH1 0x0 KECCAK256 SWAP1 PUSH1 0x3 MUL ADD PUSH1 0x1 ADD SLOAD DUP7 PUSH1 0x0 DUP4 DUP2 SLOAD DUP2 LT PUSH2 0x1594 JUMPI PUSH2 0x1594 PUSH2 0x1DF0 JUMP JUMPDEST SWAP1 PUSH1 0x0 MSTORE PUSH1 0x20 PUSH1 0x0 KECCAK256 SWAP1 PUSH1 0x3 MUL ADD PUSH1 0x0 ADD SLOAD PUSH2 0x15B0 SWAP2 SWAP1 PUSH2 0x1D5F JUMP JUMPDEST PUSH2 0x15BA SWAP2 SWAP1 PUSH2 0x1D4B JUMP JUMPDEST PUSH2 0x15C4 SWAP1 DUP11 PUSH2 0x1D33 JUMP JUMPDEST SWAP9 POP JUMPDEST DUP1 PUSH2 0x15D1 DUP2 PUSH2 0x1D95 JUMP JUMPDEST SWAP2 POP POP PUSH2 0x1521 JUMP JUMPDEST POP JUMPDEST POP SWAP6 SWAP10 SWAP9 POP POP POP POP POP POP POP POP POP JUMP JUMPDEST PUSH1 0x0 DUP2 DUP2 SLOAD DUP2 LT PUSH2 0x15FA JUMPI PUSH1 0x0 DUP1 REVERT JUMPDEST PUSH1 0x0 SWAP2 DUP3 MSTORE PUSH1 0x20 SWAP1 SWAP2 KECCAK256 PUSH1 0x3 SWAP1 SWAP2 MUL ADD DUP1 SLOAD PUSH1 0x1 DUP3 ADD SLOAD PUSH1 0x2 SWAP1 SWAP3 ADD SLOAD SWAP1 SWAP3 POP DUP4 JUMP JUMPDEST PUSH1 0x6 SLOAD DUP2 GT ISZERO PUSH2 0x166F JUMPI PUSH1 0x40 MLOAD PUSH3 0x461BCD PUSH1 0xE5 SHL DUP2 MSTORE PUSH1 0x20 PUSH1 0x4 DUP3 ADD MSTORE PUSH1 0x18 PUSH1 0x24 DUP3 ADD MSTORE PUSH32 0x53533A2045786365656465642063757272656E74206461790000000000000000 PUSH1 0x44 DUP3 ADD MSTORE PUSH1 0x64 ADD PUSH2 0x2DD JUMP JUMPDEST PUSH1 0x0 DUP1 SLOAD PUSH8 0xDE0B6B3A7640000 SWAP2 SWAP1 PUSH2 0x168A SWAP1 PUSH1 0x1 SWAP1 PUSH2 0x1D7E JUMP JUMPDEST SWAP1 POP DUP1 JUMPDEST DUP4 DUP2 LT ISZERO PUSH2 0x199A JUMPI PUSH1 0x0 DUP1 DUP3 DUP2 SLOAD DUP2 LT PUSH2 0x16AA JUMPI PUSH2 0x16AA PUSH2 0x1DF0 JUMP JUMPDEST SWAP1 PUSH1 0x0 MSTORE PUSH1 0x20 PUSH1 0x0 KECCAK256 SWAP1 PUSH1 0x3 MUL ADD PUSH1 0x2 ADD SLOAD PUSH1 0x2 PUSH2 0x16C8 SWAP2 SWAP1 PUSH2 0x1D5F JUMP JUMPDEST PUSH3 0xF4240 DUP6 PUSH2 0x16D9 PUSH1 0x2 PUSH1 0x5 PUSH2 0x1D33 JUMP JUMPDEST PUSH2 0x16E3 SWAP2 SWAP1 PUSH2 0x1D5F JUMP JUMPDEST PUSH2 0x16ED SWAP2 SWAP1 PUSH2 0x1D5F JUMP JUMPDEST PUSH2 0x16F7 SWAP2 SWAP1 PUSH2 0x1D4B JUMP JUMPDEST SWAP1 POP PUSH1 0x0 PUSH3 0xF4240 PUSH2 0x170A PUSH1 0x5 DUP5 PUSH2 0x1D5F JUMP JUMPDEST PUSH2 0x1714 SWAP2 SWAP1 PUSH2 0x1D5F JUMP JUMPDEST DUP3 PUSH1 0x0 DUP6 DUP2 SLOAD DUP2 LT PUSH2 0x1728 JUMPI PUSH2 0x1728 PUSH2 0x1DF0 JUMP JUMPDEST SWAP1 PUSH1 0x0 MSTORE PUSH1 0x20 PUSH1 0x0 KECCAK256 SWAP1 PUSH1 0x3 MUL ADD PUSH1 0x1 ADD SLOAD PUSH2 0x1744 SWAP2 SWAP1 PUSH2 0x1D33 JUMP JUMPDEST PUSH2 0x1751 PUSH3 0x61A80 DUP9 PUSH2 0x1D5F JUMP JUMPDEST PUSH2 0x175B SWAP2 SWAP1 PUSH2 0x1D5F JUMP JUMPDEST PUSH2 0x1765 SWAP2 SWAP1 PUSH2 0x1D4B JUMP JUMPDEST SWAP1 POP DUP1 PUSH1 0x0 DUP5 DUP2 SLOAD DUP2 LT PUSH2 0x177B JUMPI PUSH2 0x177B PUSH2 0x1DF0 JUMP JUMPDEST SWAP1 PUSH1 0x0 MSTORE PUSH1 0x20 PUSH1 0x0 KECCAK256 SWAP1 PUSH1 0x3 MUL ADD PUSH1 0x0 ADD PUSH1 0x0 DUP3 DUP3 SLOAD PUSH2 0x179B SWAP2 SWAP1 PUSH2 0x1D33 JUMP JUMPDEST SWAP3 POP POP DUP2 SWAP1 SSTORE POP PUSH32 0x45BC90C5E61BE4D79E2F0C1154A663332BBCCF6A26759463D04772164EEBFED2 DUP4 PUSH1 0x0 DUP6 DUP2 SLOAD DUP2 LT PUSH2 0x17D7 JUMPI PUSH2 0x17D7 PUSH2 0x1DF0 JUMP JUMPDEST SWAP1 PUSH1 0x0 MSTORE PUSH1 0x20 PUSH1 0x0 KECCAK256 SWAP1 PUSH1 0x3 MUL ADD PUSH1 0x0 ADD SLOAD PUSH1 0x0 DUP7 DUP2 SLOAD DUP2 LT PUSH2 0x17FC JUMPI PUSH2 0x17FC PUSH2 0x1DF0 JUMP JUMPDEST SWAP1 PUSH1 0x0 MSTORE PUSH1 0x20 PUSH1 0x0 KECCAK256 SWAP1 PUSH1 0x3 MUL ADD PUSH1 0x1 ADD SLOAD PUSH1 0x0 DUP8 DUP2 SLOAD DUP2 LT PUSH2 0x1821 JUMPI PUSH2 0x1821 PUSH2 0x1DF0 JUMP JUMPDEST SWAP1 PUSH1 0x0 MSTORE PUSH1 0x20 PUSH1 0x0 KECCAK256 SWAP1 PUSH1 0x3 MUL ADD PUSH1 0x2 ADD SLOAD PUSH1 0x2 SLOAD PUSH1 0x4 PUSH1 0x0 SWAP1 SLOAD SWAP1 PUSH2 0x100 EXP SWAP1 DIV PUSH1 0x1 PUSH1 0x1 PUSH1 0xA0 SHL SUB AND PUSH1 0x1 PUSH1 0x1 PUSH1 0xA0 SHL SUB AND PUSH4 0x18160DDD PUSH1 0x40 MLOAD DUP2 PUSH4 0xFFFFFFFF AND PUSH1 0xE0 SHL DUP2 MSTORE PUSH1 0x4 ADD PUSH1 0x20 PUSH1 0x40 MLOAD DUP1 DUP4 SUB DUP2 DUP7 DUP1 EXTCODESIZE ISZERO DUP1 ISZERO PUSH2 0x1884 JUMPI PUSH1 0x0 DUP1 REVERT JUMPDEST POP GAS STATICCALL ISZERO DUP1 ISZERO PUSH2 0x1898 JUMPI RETURNDATASIZE PUSH1 0x0 DUP1 RETURNDATACOPY RETURNDATASIZE PUSH1 0x0 REVERT JUMPDEST POP POP POP POP PUSH1 0x40 MLOAD RETURNDATASIZE PUSH1 0x1F NOT PUSH1 0x1F DUP3 ADD AND DUP3 ADD DUP1 PUSH1 0x40 MSTORE POP DUP2 ADD SWAP1 PUSH2 0x18BC SWAP2 SWAP1 PUSH2 0x1CBC JUMP JUMPDEST PUSH1 0x40 DUP1 MLOAD SWAP7 DUP8 MSTORE PUSH1 0x20 DUP8 ADD SWAP6 SWAP1 SWAP6 MSTORE SWAP4 DUP6 ADD SWAP3 SWAP1 SWAP3 MSTORE PUSH1 0x60 DUP5 ADD MSTORE PUSH1 0x80 DUP4 ADD MSTORE PUSH1 0xA0 DUP3 ADD MSTORE PUSH1 0xC0 ADD PUSH1 0x40 MLOAD DUP1 SWAP2 SUB SWAP1 LOG1 PUSH1 0x0 PUSH1 0x40 MLOAD DUP1 PUSH1 0x60 ADD PUSH1 0x40 MSTORE DUP1 PUSH1 0x0 DUP2 MSTORE PUSH1 0x20 ADD PUSH1 0x0 DUP7 DUP2 SLOAD DUP2 LT PUSH2 0x1913 JUMPI PUSH2 0x1913 PUSH2 0x1DF0 JUMP JUMPDEST SWAP1 PUSH1 0x0 MSTORE PUSH1 0x20 PUSH1 0x0 KECCAK256 SWAP1 PUSH1 0x3 MUL ADD PUSH1 0x1 ADD SLOAD DUP2 MSTORE PUSH1 0x20 ADD PUSH1 0x0 DUP7 DUP2 SLOAD DUP2 LT PUSH2 0x193D JUMPI PUSH2 0x193D PUSH2 0x1DF0 JUMP JUMPDEST PUSH1 0x0 SWAP2 DUP3 MSTORE PUSH1 0x20 DUP1 DUP4 KECCAK256 PUSH1 0x3 SWAP3 DUP4 MUL ADD PUSH1 0x2 SWAP1 DUP2 ADD SLOAD SWAP1 SWAP5 MSTORE DUP6 SLOAD PUSH1 0x1 DUP1 DUP3 ADD DUP9 SSTORE SWAP7 DUP5 MSTORE SWAP3 DUP2 SWAP1 KECCAK256 DUP6 MLOAD SWAP4 SWAP1 SWAP3 MUL SWAP1 SWAP2 ADD SWAP2 DUP3 SSTORE DUP4 ADD MLOAD SWAP4 DUP2 ADD SWAP4 SWAP1 SWAP4 SSTORE PUSH1 0x40 SWAP1 SWAP2 ADD MLOAD SWAP2 ADD SSTORE POP DUP2 SWAP1 POP PUSH2 0x1992 DUP2 PUSH2 0x1D95 JUMP JUMPDEST SWAP2 POP POP PUSH2 0x168E JUMP JUMPDEST POP PUSH1 0x3 SLOAD PUSH1 0x0 SWAP1 PUSH2 0x19AD SWAP1 PUSH1 0x1 SWAP1 PUSH2 0x1D7E JUMP JUMPDEST SWAP1 POP PUSH1 0x0 PUSH2 0x19BC PUSH1 0x64 DUP7 PUSH2 0x1D4B JUMP JUMPDEST SWAP1 POP DUP2 JUMPDEST DUP2 DUP2 LT ISZERO PUSH2 0x1B93 JUMPI PUSH1 0x0 DUP1 PUSH2 0x19D6 PUSH1 0x64 DUP5 PUSH2 0x1D5F JUMP JUMPDEST SWAP1 POP JUMPDEST PUSH1 0x64 PUSH2 0x19E6 DUP5 PUSH1 0x1 PUSH2 0x1D33 JUMP JUMPDEST PUSH2 0x19F0 SWAP2 SWAP1 PUSH2 0x1D5F JUMP JUMPDEST DUP2 LT ISZERO PUSH2 0x1AAF JUMPI PUSH1 0x0 DUP2 DUP2 SLOAD DUP2 LT PUSH2 0x1A0A JUMPI PUSH2 0x1A0A PUSH2 0x1DF0 JUMP JUMPDEST SWAP1 PUSH1 0x0 MSTORE PUSH1 0x20 PUSH1 0x0 KECCAK256 SWAP1 PUSH1 0x3 MUL ADD PUSH1 0x1 ADD SLOAD PUSH1 0x0 EQ ISZERO PUSH2 0x1A29 JUMPI PUSH2 0x1A9D JUMP JUMPDEST PUSH1 0x0 DUP2 DUP2 SLOAD DUP2 LT PUSH2 0x1A3C JUMPI PUSH2 0x1A3C PUSH2 0x1DF0 JUMP JUMPDEST SWAP1 PUSH1 0x0 MSTORE PUSH1 0x20 PUSH1 0x0 KECCAK256 SWAP1 PUSH1 0x3 MUL ADD PUSH1 0x1 ADD SLOAD PUSH8 0xDE0B6B3A7640000 PUSH1 0x0 DUP4 DUP2 SLOAD DUP2 LT PUSH2 0x1A6A JUMPI PUSH2 0x1A6A PUSH2 0x1DF0 JUMP JUMPDEST SWAP1 PUSH1 0x0 MSTORE PUSH1 0x20 PUSH1 0x0 KECCAK256 SWAP1 PUSH1 0x3 MUL ADD PUSH1 0x0 ADD SLOAD PUSH2 0x1A86 SWAP2 SWAP1 PUSH2 0x1D5F JUMP JUMPDEST PUSH2 0x1A90 SWAP2 SWAP1 PUSH2 0x1D4B JUMP JUMPDEST PUSH2 0x1A9A SWAP1 DUP4 PUSH2 0x1D33 JUMP JUMPDEST SWAP2 POP JUMPDEST DUP1 PUSH2 0x1AA7 DUP2 PUSH2 0x1D95 JUMP JUMPDEST SWAP2 POP POP PUSH2 0x19D9 JUMP JUMPDEST POP PUSH1 0x3 DUP1 SLOAD DUP3 SWAP2 SWAP1 PUSH2 0x1AC3 SWAP1 PUSH1 0x1 SWAP1 PUSH2 0x1D7E JUMP JUMPDEST DUP2 SLOAD DUP2 LT PUSH2 0x1AD3 JUMPI PUSH2 0x1AD3 PUSH2 0x1DF0 JUMP JUMPDEST PUSH1 0x0 SWAP2 DUP3 MSTORE PUSH1 0x20 SWAP1 SWAP2 KECCAK256 ADD SSTORE PUSH1 0x3 SLOAD PUSH32 0x1C9CE6F1D7F557DC59B02392857734618E6BC787C6A7C136A8BC32BED4E19111 SWAP1 DUP4 SWAP1 PUSH2 0x1B12 SWAP1 PUSH1 0x1 SWAP1 PUSH2 0x1D7E JUMP JUMPDEST PUSH1 0x3 DUP6 DUP2 SLOAD DUP2 LT PUSH2 0x1B25 JUMPI PUSH2 0x1B25 PUSH2 0x1DF0 JUMP JUMPDEST PUSH1 0x0 SWAP2 DUP3 MSTORE PUSH1 0x20 SWAP2 DUP3 SWAP1 KECCAK256 ADD SLOAD PUSH1 0x40 DUP1 MLOAD SWAP5 DUP6 MSTORE SWAP2 DUP5 ADD SWAP3 SWAP1 SWAP3 MSTORE DUP3 ADD MSTORE PUSH1 0x60 ADD PUSH1 0x40 MLOAD DUP1 SWAP2 SUB SWAP1 LOG1 POP PUSH1 0x3 DUP1 SLOAD PUSH1 0x1 DUP2 ADD DUP3 SSTORE PUSH1 0x0 SWAP2 DUP3 MSTORE PUSH32 0xC2575A0E9E593C00F959F8C92F12DB2869C3395A3B0502D05E2516446F71F85B ADD SSTORE DUP1 PUSH2 0x1B8B DUP2 PUSH2 0x1D95 JUMP JUMPDEST SWAP2 POP POP PUSH2 0x19C0 JUMP JUMPDEST POP POP POP POP POP POP JUMP JUMPDEST PUSH2 0x1BA7 PUSH2 0x22D PUSH1 0x6 SLOAD SWAP1 JUMP JUMPDEST JUMP JUMPDEST PUSH1 0x1 DUP2 DUP2 SLOAD DUP2 LT PUSH2 0x1BB9 JUMPI PUSH1 0x0 DUP1 REVERT JUMPDEST PUSH1 0x0 SWAP2 DUP3 MSTORE PUSH1 0x20 SWAP1 SWAP2 KECCAK256 PUSH1 0x5 SWAP1 SWAP2 MUL ADD DUP1 SLOAD PUSH1 0x1 DUP3 ADD SLOAD PUSH1 0x2 DUP4 ADD SLOAD PUSH1 0x3 DUP5 ADD SLOAD PUSH1 0x4 SWAP1 SWAP5 ADD SLOAD PUSH1 0x1 PUSH1 0x1 PUSH1 0xA0 SHL SUB SWAP1 SWAP4 AND SWAP5 POP SWAP1 SWAP3 SWAP1 SWAP2 DUP6 JUMP JUMPDEST PUSH1 0x0 DUP2 DUP4 GT ISZERO PUSH2 0x1C05 JUMPI POP DUP2 PUSH2 0x10B8 JUMP JUMPDEST POP SWAP2 SWAP1 POP JUMP JUMPDEST PUSH1 0x0 DUP2 DUP4 LT ISZERO PUSH2 0x1C05 JUMPI POP DUP2 PUSH2 0x10B8 JUMP JUMPDEST PUSH1 0x0 DUP1 PUSH1 0x20 DUP4 DUP6 SUB SLT ISZERO PUSH2 0x1C2F JUMPI PUSH1 0x0 DUP1 REVERT JUMPDEST DUP3 CALLDATALOAD PUSH8 0xFFFFFFFFFFFFFFFF DUP1 DUP3 GT ISZERO PUSH2 0x1C47 JUMPI PUSH1 0x0 DUP1 REVERT JUMPDEST DUP2 DUP6 ADD SWAP2 POP DUP6 PUSH1 0x1F DUP4 ADD SLT PUSH2 0x1C5B JUMPI PUSH1 0x0 DUP1 REVERT JUMPDEST DUP2 CALLDATALOAD DUP2 DUP2 GT ISZERO PUSH2 0x1C6A JUMPI PUSH1 0x0 DUP1 REVERT JUMPDEST DUP7 PUSH1 0x20 DUP3 PUSH1 0x6 SHL DUP6 ADD ADD GT ISZERO PUSH2 0x1C7F JUMPI PUSH1 0x0 DUP1 REVERT JUMPDEST PUSH1 0x20 SWAP3 SWAP1 SWAP3 ADD SWAP7 SWAP2 SWAP6 POP SWAP1 SWAP4 POP POP POP POP JUMP JUMPDEST PUSH1 0x0 PUSH1 0x40 DUP3 DUP5 SUB SLT ISZERO PUSH2 0x1C05 JUMPI PUSH1 0x0 DUP1 REVERT JUMPDEST PUSH1 0x0 PUSH1 0x20 DUP3 DUP5 SUB SLT ISZERO PUSH2 0x1CB5 JUMPI PUSH1 0x0 DUP1 REVERT JUMPDEST POP CALLDATALOAD SWAP2 SWAP1 POP JUMP JUMPDEST PUSH1 0x0 PUSH1 0x20 DUP3 DUP5 SUB SLT ISZERO PUSH2 0x1CCE JUMPI PUSH1 0x0 DUP1 REVERT JUMPDEST POP MLOAD SWAP2 SWAP1 POP JUMP JUMPDEST PUSH1 0x0 DUP1 PUSH1 0x40 DUP4 DUP6 SUB SLT ISZERO PUSH2 0x1CE8 JUMPI PUSH1 0x0 DUP1 REVERT JUMPDEST DUP3 CALLDATALOAD SWAP2 POP PUSH1 0x20 DUP4 ADD CALLDATALOAD PUSH1 0x1 PUSH1 0x1 PUSH1 0xA0 SHL SUB DUP2 AND DUP2 EQ PUSH2 0x1D06 JUMPI PUSH1 0x0 DUP1 REVERT JUMPDEST DUP1 SWAP2 POP POP SWAP3 POP SWAP3 SWAP1 POP JUMP JUMPDEST PUSH1 0x0 DUP1 PUSH1 0x40 DUP4 DUP6 SUB SLT ISZERO PUSH2 0x1D24 JUMPI PUSH1 0x0 DUP1 REVERT JUMPDEST POP POP DUP1 CALLDATALOAD SWAP3 PUSH1 0x20 SWAP1 SWAP2 ADD CALLDATALOAD SWAP2 POP JUMP JUMPDEST PUSH1 0x0 DUP3 NOT DUP3 GT ISZERO PUSH2 0x1D46 JUMPI PUSH2 0x1D46 PUSH2 0x1DC4 JUMP JUMPDEST POP ADD SWAP1 JUMP JUMPDEST PUSH1 0x0 DUP3 PUSH2 0x1D5A JUMPI PUSH2 0x1D5A PUSH2 0x1DDA JUMP JUMPDEST POP DIV SWAP1 JUMP JUMPDEST PUSH1 0x0 DUP2 PUSH1 0x0 NOT DIV DUP4 GT DUP3 ISZERO ISZERO AND ISZERO PUSH2 0x1D79 JUMPI PUSH2 0x1D79 PUSH2 0x1DC4 JUMP JUMPDEST POP MUL SWAP1 JUMP JUMPDEST PUSH1 0x0 DUP3 DUP3 LT ISZERO PUSH2 0x1D90 JUMPI PUSH2 0x1D90 PUSH2 0x1DC4 JUMP JUMPDEST POP SUB SWAP1 JUMP JUMPDEST PUSH1 0x0 PUSH1 0x0 NOT DUP3 EQ ISZERO PUSH2 0x1DA9 JUMPI PUSH2 0x1DA9 PUSH2 0x1DC4 JUMP JUMPDEST POP PUSH1 0x1 ADD SWAP1 JUMP JUMPDEST PUSH1 0x0 DUP3 PUSH2 0x1DBF JUMPI PUSH2 0x1DBF PUSH2 0x1DDA JUMP JUMPDEST POP MOD SWAP1 JUMP JUMPDEST PUSH4 0x4E487B71 PUSH1 0xE0 SHL PUSH1 0x0 MSTORE PUSH1 0x11 PUSH1 0x4 MSTORE PUSH1 0x24 PUSH1 0x0 REVERT JUMPDEST PUSH4 0x4E487B71 PUSH1 0xE0 SHL PUSH1 0x0 MSTORE PUSH1 0x12 PUSH1 0x4 MSTORE PUSH1 0x24 PUSH1 0x0 REVERT JUMPDEST PUSH4 0x4E487B71 PUSH1 0xE0 SHL PUSH1 0x0 MSTORE PUSH1 0x32 PUSH1 0x4 MSTORE PUSH1 0x24 PUSH1 0x0 REVERT INVALID LOG2 PUSH5 0x6970667358 0x22 SLT KECCAK256 AND 0xD4 ISZERO 0xAC 0x5C COINBASE 0xBF 0xC9 MUL 0xEC 0x21 DUP9 0x26 0xB6 MSTORE 0xB9 ADDRESS ISZERO DUP7 LOG4 LOG3 0xC3 0xDA DUP4 0x5F 0xE4 0xD9 MSTORE8 0xE8 0xB9 0xB6 MSTORE PUSH5 0x736F6C6343 STOP ADDMOD SMOD STOP CALLER "
		},
		"gasEstimates": {
			"creation": {
				"codeDepositCost": "1548000",
				"executionCost": "212331",
				"totalCost": "1760331"
			},
			"external": {
				"bulkStartStake((uint256,uint256)[])": "infinite",
				"bumpDays(uint256)": "infinite",
				"cachedInterestPerShare(uint256)": "4654",
				"dailySnapshots(uint256)": "8902",
				"endStake(uint256,uint256)": "infinite",
				"getCurrentHundredDay()": "2412",
				"getCurrentOneDay()": "2304",
				"getDailySnapshotsLength()": "2370",
				"getInterest(uint256,uint256)": "infinite",
				"getPenalty(uint256,uint256)": "infinite",
				"getSharesCount(uint256,uint256)": "infinite",
				"stakes(uint256)": "13279",
				"startStake((uint256,uint256))": "infinite",
				"totalStaked()": "2306",
				"transferOwnership(uint256,address)": "36857",
				"updateAllSnapshots()": "infinite",
				"updateSnapshots(uint256)": "infinite"
			},
			"internal": {
				"maxOfTwoUints(uint256,uint256)": "64",
				"minOfTwoUints(uint256,uint256)": "64"
			}
		},
		"methodIdentifiers": {
			"bulkStartStake((uint256,uint256)[])": "1f009bdb",
			"bumpDays(uint256)": "6f8de83f",
			"cachedInterestPerShare(uint256)": "27de406f",
			"dailySnapshots(uint256)": "a2ac13d3",
			"endStake(uint256,uint256)": "20e9ab12",
			"getCurrentHundredDay()": "571b2f9e",
			"getCurrentOneDay()": "64634fa0",
			"getDailySnapshotsLength()": "5a49e94d",
			"getInterest(uint256,uint256)": "728af7ec",
			"getPenalty(uint256,uint256)": "58225dc2",
			"getSharesCount(uint256,uint256)": "682ca476",
			"stakes(uint256)": "d5a44f86",
			"startStake((uint256,uint256))": "1e22ddc7",
			"totalStaked()": "817b1cd2",
			"transferOwnership(uint256,address)": "29507f73",
			"updateAllSnapshots()": "d50116b8",
			"updateSnapshots(uint256)": "ad110a67"
		}
	},
	"abi": [
		{
			"inputs": [],
			"stateMutability": "nonpayable",
			"type": "constructor"
		},
		{
			"anonymous": false,
			"inputs": [
				{
					"indexed": false,
					"internalType": "uint256",
					"name": "sealedDay",
					"type": "uint256"
				},
				{
					"indexed": false,
					"internalType": "uint256",
					"name": "sealedCachedDay",
					"type": "uint256"
				},
				{
					"indexed": false,
					"internalType": "uint256",
					"name": "cachedInterestPerShare",
					"type": "uint256"
				}
			],
			"name": "CachedInterestPerShareSealed",
			"type": "event"
		},
		{
			"anonymous": false,
			"inputs": [
				{
					"indexed": false,
					"internalType": "uint256",
					"name": "sealedDay",
					"type": "uint256"
				},
				{
					"indexed": false,
					"internalType": "uint256",
					"name": "inflationAmount",
					"type": "uint256"
				},
				{
					"indexed": false,
					"internalType": "uint256",
					"name": "totalShares",
					"type": "uint256"
				},
				{
					"indexed": false,
					"internalType": "uint256",
					"name": "sharePrice",
					"type": "uint256"
				},
				{
					"indexed": false,
					"internalType": "uint256",
					"name": "totalStaked",
					"type": "uint256"
				},
				{
					"indexed": false,
					"internalType": "uint256",
					"name": "totalSupply",
					"type": "uint256"
				}
			],
			"name": "DailySnapshotSealed",
			"type": "event"
		},
		{
			"anonymous": false,
			"inputs": [
				{
					"indexed": false,
					"internalType": "uint256",
					"name": "stakeId",
					"type": "uint256"
				},
				{
					"indexed": false,
					"internalType": "uint256",
					"name": "endDay",
					"type": "uint256"
				},
				{
					"indexed": false,
					"internalType": "uint256",
					"name": "interest",
					"type": "uint256"
				},
				{
					"indexed": false,
					"internalType": "uint256",
					"name": "penalty",
					"type": "uint256"
				}
			],
			"name": "StakeEnded",
			"type": "event"
		},
		{
			"anonymous": false,
			"inputs": [
				{
					"indexed": false,
					"internalType": "uint256",
					"name": "stakeId",
					"type": "uint256"
				},
				{
					"indexed": false,
					"internalType": "address",
					"name": "newOwner",
					"type": "address"
				}
			],
			"name": "StakeOwnerChanged",
			"type": "event"
		},
		{
			"anonymous": false,
			"inputs": [
				{
					"indexed": false,
					"internalType": "uint256",
					"name": "stakeId",
					"type": "uint256"
				},
				{
					"indexed": false,
					"internalType": "address",
					"name": "owner",
					"type": "address"
				},
				{
					"indexed": false,
					"internalType": "uint256",
					"name": "stakedAmount",
					"type": "uint256"
				},
				{
					"indexed": false,
					"internalType": "uint256",
					"name": "startDay",
					"type": "uint256"
				},
				{
					"indexed": false,
					"internalType": "uint256",
					"name": "lockedForXDays",
					"type": "uint256"
				},
				{
					"indexed": false,
					"internalType": "uint256",
					"name": "sharesCount",
					"type": "uint256"
				}
			],
			"name": "StakeStarted",
			"type": "event"
		},
		{
			"anonymous": false,
			"inputs": [
				{
					"indexed": false,
					"internalType": "uint256",
					"name": "stakeId",
					"type": "uint256"
				},
				{
					"indexed": false,
					"internalType": "uint256",
					"name": "lockedForXDays",
					"type": "uint256"
				},
				{
					"indexed": false,
					"internalType": "uint256",
					"name": "endDay",
					"type": "uint256"
				},
				{
					"indexed": false,
					"internalType": "uint256",
					"name": "interest",
					"type": "uint256"
				},
				{
					"indexed": false,
					"internalType": "uint256",
					"name": "sharesCount",
					"type": "uint256"
				}
			],
			"name": "StakeUpdatedAndEnded",
			"type": "event"
		},
		{
			"inputs": [
				{
					"components": [
						{
							"internalType": "uint256",
							"name": "stakedAmount",
							"type": "uint256"
						},
						{
							"internalType": "uint256",
							"name": "lockedForXDays",
							"type": "uint256"
						}
					],
					"internalType": "struct StartStake[]",
					"name": "_startStakes",
					"type": "tuple[]"
				}
			],
			"name": "bulkStartStake",
			"outputs": [],
			"stateMutability": "nonpayable",
			"type": "function"
		},
		{
			"inputs": [
				{
					"internalType": "uint256",
					"name": "numDays",
					"type": "uint256"
				}
			],
			"name": "bumpDays",
			"outputs": [],
			"stateMutability": "nonpayable",
			"type": "function"
		},
		{
			"inputs": [
				{
					"internalType": "uint256",
					"name": "",
					"type": "uint256"
				}
			],
			"name": "cachedInterestPerShare",
			"outputs": [
				{
					"internalType": "uint256",
					"name": "",
					"type": "uint256"
				}
			],
			"stateMutability": "view",
			"type": "function"
		},
		{
			"inputs": [
				{
					"internalType": "uint256",
					"name": "",
					"type": "uint256"
				}
			],
			"name": "dailySnapshots",
			"outputs": [
				{
					"internalType": "uint256",
					"name": "inflationAmount",
					"type": "uint256"
				},
				{
					"internalType": "uint256",
					"name": "totalShares",
					"type": "uint256"
				},
				{
					"internalType": "uint256",
					"name": "sharePrice",
					"type": "uint256"
				}
			],
			"stateMutability": "view",
			"type": "function"
		},
		{
			"inputs": [
				{
					"internalType": "uint256",
					"name": "stakeId",
					"type": "uint256"
				},
				{
					"internalType": "uint256",
					"name": "_bumpDays",
					"type": "uint256"
				}
			],
			"name": "endStake",
			"outputs": [],
			"stateMutability": "nonpayable",
			"type": "function"
		},
		{
			"inputs": [],
			"name": "getCurrentHundredDay",
			"outputs": [
				{
					"internalType": "uint256",
					"name": "",
					"type": "uint256"
				}
			],
			"stateMutability": "view",
			"type": "function"
		},
		{
			"inputs": [],
			"name": "getCurrentOneDay",
			"outputs": [
				{
					"internalType": "uint256",
					"name": "",
					"type": "uint256"
				}
			],
			"stateMutability": "view",
			"type": "function"
		},
		{
			"inputs": [],
			"name": "getDailySnapshotsLength",
			"outputs": [
				{
					"internalType": "uint256",
					"name": "",
					"type": "uint256"
				}
			],
			"stateMutability": "view",
			"type": "function"
		},
		{
			"inputs": [
				{
					"internalType": "uint256",
					"name": "stakeId",
					"type": "uint256"
				},
				{
					"internalType": "uint256",
					"name": "givenDay",
					"type": "uint256"
				}
			],
			"name": "getInterest",
			"outputs": [
				{
					"internalType": "uint256",
					"name": "",
					"type": "uint256"
				}
			],
			"stateMutability": "view",
			"type": "function"
		},
		{
			"inputs": [
				{
					"internalType": "uint256",
					"name": "stakeId",
					"type": "uint256"
				},
				{
					"internalType": "uint256",
					"name": "givenDay",
					"type": "uint256"
				}
			],
			"name": "getPenalty",
			"outputs": [
				{
					"internalType": "uint256",
					"name": "",
					"type": "uint256"
				}
			],
			"stateMutability": "view",
			"type": "function"
		},
		{
			"inputs": [
				{
					"internalType": "uint256",
					"name": "stakeId",
					"type": "uint256"
				},
				{
					"internalType": "uint256",
					"name": "givenDay",
					"type": "uint256"
				}
			],
			"name": "getSharesCount",
			"outputs": [
				{
					"internalType": "uint256",
					"name": "",
					"type": "uint256"
				}
			],
			"stateMutability": "view",
			"type": "function"
		},
		{
			"inputs": [
				{
					"internalType": "uint256",
					"name": "",
					"type": "uint256"
				}
			],
			"name": "stakes",
			"outputs": [
				{
					"internalType": "address",
					"name": "owner",
					"type": "address"
				},
				{
					"internalType": "uint256",
					"name": "stakedAmount",
					"type": "uint256"
				},
				{
					"internalType": "uint256",
					"name": "startDay",
					"type": "uint256"
				},
				{
					"internalType": "uint256",
					"name": "lockedForXDays",
					"type": "uint256"
				},
				{
					"internalType": "uint256",
					"name": "endDay",
					"type": "uint256"
				}
			],
			"stateMutability": "view",
			"type": "function"
		},
		{
			"inputs": [
				{
					"components": [
						{
							"internalType": "uint256",
							"name": "stakedAmount",
							"type": "uint256"
						},
						{
							"internalType": "uint256",
							"name": "lockedForXDays",
							"type": "uint256"
						}
					],
					"internalType": "struct StartStake",
					"name": "_startStake",
					"type": "tuple"
				}
			],
			"name": "startStake",
			"outputs": [],
			"stateMutability": "nonpayable",
			"type": "function"
		},
		{
			"inputs": [],
			"name": "totalStaked",
			"outputs": [
				{
					"internalType": "uint256",
					"name": "",
					"type": "uint256"
				}
			],
			"stateMutability": "view",
			"type": "function"
		},
		{
			"inputs": [
				{
					"internalType": "uint256",
					"name": "stakeId",
					"type": "uint256"
				},
				{
					"internalType": "address",
					"name": "newOwner",
					"type": "address"
				}
			],
			"name": "transferOwnership",
			"outputs": [],
			"stateMutability": "nonpayable",
			"type": "function"
		},
		{
			"inputs": [],
			"name": "updateAllSnapshots",
			"outputs": [],
			"stateMutability": "nonpayable",
			"type": "function"
		},
		{
			"inputs": [
				{
					"internalType": "uint256",
					"name": "givenDay",
					"type": "uint256"
				}
			],
			"name": "updateSnapshots",
			"outputs": [],
			"stateMutability": "nonpayable",
			"type": "function"
		}
	]
}