{
	"data": {
		"bytecode": {
			"linkReferences": {},
			"object": "6080604052600d80546001600160a01b03191673def1fac7bf08f173d286bbbdcbeeade6951298401790553480156200003757600080fd5b50600060055562061a80600655601e6009556200005861016d600262000b70565b600a556001600b556200006f61016d606462000b70565b600c55622dc6c06008556203d09060075563617d5839600e55604080516060808201835260008083526020808401828152670de0b6b3a76400008587018181526002805460018101825590865296516000805160206200482c83398151915260039098029788015591516000805160206200486c8339815191528701559051600080516020620048ac833981519152909501949094558451828152908101829052938401819052908301919091526080820181905260a08201526000805160206200488c8339815191529060c00160405180910390a160408051606081018252600080825260208201818152670de0b6b3a76400008385018181526002805460018181018355918652955160039687026000805160206200482c83398151915281019190915593516000805160206200486c8339815191528501559051600080516020620048ac83398151915290930192909255835491820184559282526000805160206200484c833981519152015590517f56c1a5b0a3a0633173d7fc412ba79063d393f76ff0740b58e133d1ccc34ccf0791620002119190815260200190565b60405180910390a16200022362000236565b620002306000336200024c565b62000c38565b6200024a620002446200028f565b620002d1565b565b620002638282620009b860201b62002f081760201c565b60008281526001602090815260409091206200028a91839062002f16620009c8821b17901c565b505050565b600062015180600e54620002a4919062000b92565b620002b3620151804262000b92565b620002c090600162000bb5565b620002cc919062000bd0565b905090565b620002db6200028f565b8111156200032f5760405162461bcd60e51b815260206004820152601860248201527f53533a2045786365656465642063757272656e74206461790000000000000000604482015260640160405180910390fd5b600254600090620003439060019062000bd0565b90508181141562000352575050565b805b82811015620006c457600254600090821062000381576002546200037b9060019062000bd0565b62000383565b815b90506000600282815481106200039d576200039d62000bea565b906000526020600020906003020160020154620f4240620003bf919062000b70565b600854670de0b6b3a764000090620003dc90620f42409062000bb5565b620003e8919062000b70565b620003f4919062000b92565b90506000620f42406200040a61016d8462000b70565b62000416919062000b70565b82600285815481106200042d576200042d62000bea565b9060005260206000209060030201600101546200044b919062000bb5565b6006546200045a919062000b70565b62000466919062000b92565b600254909150841015620004b95780600284815481106200048b576200048b62000bea565b90600052602060002090600302016000016000828254620004ad919062000bb5565b90915550620005589050565b6002604051806060016040528083815260200160028681548110620004e257620004e262000bea565b9060005260206000209060030201600101548152602001600286815481106200050f576200050f62000bea565b6000918252602080832060039283020160029081015490945285546001808201885596845292819020855193909202909101918255830151938101939093556040909101519101555b6000805160206200488c83398151915284600285815481106200057f576200057f62000bea565b90600052602060002090600302016000015460028681548110620005a757620005a762000bea565b90600052602060002090600302016001015460028781548110620005cf57620005cf62000bea565b906000526020600020906003020160020154620005f1620009e860201b60201c565b600d60009054906101000a90046001600160a01b03166001600160a01b03166318160ddd6040518163ffffffff1660e01b815260040160206040518083038186803b1580156200064057600080fd5b505afa15801562000655573d6000803e3d6000fd5b505050506040513d601f19601f820116820180604052508101906200067b919062000c00565b604080519687526020870195909552938501929092526060840152608083015260a082015260c00160405180910390a15050508080620006bb9062000c1a565b91505062000354565b506002548214156200078c5760026040518060600160405280600081526020016002600186620006f5919062000bd0565b8154811062000708576200070862000bea565b9060005260206000209060030201600101548152602001600260018662000730919062000bd0565b8154811062000743576200074362000bea565b6000918252602080832060039283020160029081015490945285546001808201885596845292819020855193909202909101918255830151938101939093556040909101519101555b600354600090620007a09060019062000bd0565b90506000620007b160648562000b92565b9050815b818110156200098457600080620007ce60648462000b70565b90505b6064620007e084600162000bb5565b620007ec919062000b70565b811015620008c057600281815481106200080a576200080a62000bea565b906000526020600020906003020160010154600014156200082b57620008ab565b6002818154811062000841576200084162000bea565b906000526020600020906003020160010154670de0b6b3a76400006002838154811062000872576200087262000bea565b90600052602060002090600302016000015462000890919062000b70565b6200089c919062000b92565b620008a8908362000bb5565b91505b80620008b78162000c1a565b915050620007d1565b50600354821015620008f5578060038381548110620008e357620008e362000bea565b6000918252602090912001556200091a565b600380546001810182556000919091526000805160206200484c833981519152018190555b6003547f1c9ce6f1d7f557dc59b02392857734618e6bc787c6a7c136a8bc32bed4e191119083906200094f9060019062000bd0565b604080519283526020830191909152810183905260600160405180910390a150806200097b8162000c1a565b915050620007b5565b50600354811415620009b2576003805460018101825560009182526000805160206200484c83398151915201555b50505050565b620009c4828262000a68565b5050565b6000620009df836001600160a01b03841662000b08565b90505b92915050565b600d546040516370a0823160e01b81523060048201526000916001600160a01b0316906370a082319060240160206040518083038186803b15801562000a2d57600080fd5b505afa15801562000a42573d6000803e3d6000fd5b505050506040513d601f19601f82011682018060405250810190620002cc919062000c00565b6000828152602081815260408083206001600160a01b038516845290915290205460ff16620009c4576000828152602081815260408083206001600160a01b03851684529091529020805460ff1916600117905562000ac43390565b6001600160a01b0316816001600160a01b0316837f2f8788117e7eff1d82e926ec794901d17c78024a50270940304540a733656f0d60405160405180910390a45050565b600081815260018301602052604081205462000b5157508154600181810184556000848152602080822090930184905584548482528286019093526040902091909155620009e2565b506000620009e2565b634e487b7160e01b600052601160045260246000fd5b600081600019048311821515161562000b8d5762000b8d62000b5a565b500290565b60008262000bb057634e487b7160e01b600052601260045260246000fd5b500490565b6000821982111562000bcb5762000bcb62000b5a565b500190565b60008282101562000be55762000be562000b5a565b500390565b634e487b7160e01b600052603260045260246000fd5b60006020828403121562000c1357600080fd5b5051919050565b600060001982141562000c315762000c3162000b5a565b5060010190565b613be48062000c486000396000f3fe608060405234801561001057600080fd5b506004361061023d5760003560e01c80637ba4bcfb1161013b578063c82e3067116100b8578063d5a44f861161007c578063d5a44f86146104d9578063e06174e414610523578063e59443e614610584578063e99884a314610597578063ea580bf21461059f57600080fd5b8063c82e30671461049b578063ca15c873146104a3578063d391014b146104b6578063d50116b8146104be578063d547741f146104c657600080fd5b8063a2ac13d3116100ff578063a2ac13d31461042c578063ad110a671461045a578063b1b63dfc1461046d578063b471468d14610480578063c763e2fc1461049357600080fd5b80637ba4bcfb146103b557806382c44854146103c85780639010d07c146103db57806391d148541461040657806395f6f5d21461041957600080fd5b80632a486b90116101c95780634d9dae0e1161018d5780634d9dae0e146103765780635540be7d1461038957806358962a381461039c5780635a49e94d146103a457806365cf7c9b146103ac57600080fd5b80632a486b90146103225780632f2ff15d1461033557806336568abe14610348578063388a1a811461035b5780634bade67e1461036e57600080fd5b80631e22ddc7116102105780631e22ddc7146102a55780631f009bdb146102c6578063248a9ca3146102d957806327de406f146102fc57806329507f731461030f57600080fd5b806301ffc9a71461024257806303ed957f1461026a5780630cbe28d61461027f5780630ffed08a14610292575b600080fd5b6102556102503660046134ad565b6105b2565b60405190151581526020015b60405180910390f35b61027d610278366004613523565b6105dd565b005b61027d61028d366004613565565b61065a565b61027d6102a036600461357e565b610e07565b6102b86102b33660046135a7565b610ed7565b604051908152602001610261565b61027d6102d4366004613523565b6114b8565b6102b86102e7366004613565565b60009081526020819052604090206001015490565b6102b861030a366004613565565b611506565b61027d61031d36600461361c565b611527565b61027d610330366004613691565b611817565b61027d61034336600461361c565b611855565b61027d61035636600461361c565b611877565b6102b86103693660046136c7565b611899565b6004546102b8565b6102b861038436600461377a565b6118b8565b61027d610397366004613691565b611adb565b6003546102b8565b6002546102b8565b6102b8600e5481565b61027d6103c3366004613565565b611b19565b6102b86103d63660046137a5565b6120e3565b6103ee6103e93660046136c7565b612103565b6040516001600160a01b039091168152602001610261565b61025561041436600461361c565b61211b565b61027d6104273660046137d1565b612144565b61043f61043a366004613565565b612253565b60408051938452602084019290925290820152606001610261565b61027d610468366004613565565b612286565b6102b861047b3660046137fd565b61291d565b6102b861048e36600461377a565b612a5c565b6102b8612d03565b6102b8612d84565b6102b86104b1366004613565565b612d9a565b6102b8600081565b61027d612db1565b61027d6104d436600461361c565b612dbe565b6104ec6104e7366004613565565b612dc8565b604080516001600160a01b0390971687526020870195909552938501929092526060840152608083015260a082015260c001610261565b600554600654600754600854600954600a54600b54600c54610549979695949392919088565b604080519889526020890197909752958701949094526060860192909252608085015260a084015260c083015260e082015261010001610261565b61027d610592366004613832565b612e18565b6102b8612e57565b6102b86105ad3660046136c7565b612e8c565b60006001600160e01b03198216635a05180f60e01b14806105d757506105d782612f2b565b92915050565b60006105e98133612f60565b60005b828110156106545761064284848381811061060957610609613889565b9050604002016000013585858481811061062557610625613889565b905060400201602001602081019061063d919061389f565b612fc4565b8061064c816138d2565b9150506105ec565b50505050565b600d546040516306fb1a0760e01b8152600360048201526000916001600160a01b0316906306fb1a079060240160206040518083038186803b15801561069f57600080fd5b505afa1580156106b3573d6000803e3d6000fd5b505050506040513d601f19601f820116820180604052508101906106d791906138ed565b60405163eaa8f7e360e01b81523360048201529091506001600160a01b0382169063eaa8f7e39060240160206040518083038186803b15801561071957600080fd5b505afa15801561072d573d6000803e3d6000fd5b505050506040513d601f19601f82011682018060405250810190610751919061390a565b156107775760405162461bcd60e51b815260040161076e9061392c565b60405180910390fd5b816004818154811061078b5761078b613889565b60009182526020909120600690910201546001600160a01b031633146107c35760405162461bcd60e51b815260040161076e90613963565b600454839081106107e65760405162461bcd60e51b815260040161076e9061399a565b83600481815481106107fa576107fa613889565b90600052602060002090600602016004015460001461082b5760405162461bcd60e51b815260040161076e906139d1565b610833612db1565b600061083d612e57565b9050806004878154811061085357610853613889565b906000526020600020906006020160040181905550600d60009054906101000a90046001600160a01b03166001600160a01b0316639cff2eba303360048a815481106108a1576108a1613889565b60009182526020909120600160069092020101546040516001600160e01b031960e086901b1681526001600160a01b0393841660048201529290911660248301526044820152606401600060405180830381600087803b15801561090457600080fd5b505af1158015610918573d6000803e3d6000fd5b5050505060006004878154811061093157610931613889565b9060005260206000209060060201600301546004888154811061095657610956613889565b9060005260206000209060060201600201546109729190613a08565b821015610a365760006004888154811061098e5761098e613889565b60009182526020918290206040805160c081018252600690930290910180546001600160a01b0316835260018101549383019390935260028301549082015260038201546060820152600480830154608083015260059092015460a0820152815490925089908110610a0257610a02613889565b90600052602060002090600602016002015483610a1f9190613a20565b6060820152610a2e8184612a5c565b915050610ab3565b610ab060048881548110610a4c57610a4c613889565b60009182526020918290206040805160c081018252600690930290910180546001600160a01b03168352600181015493830193909352600283015490820152600382015460608201526004820154608082015260059091015460a082015283612a5c565b90505b8015610b1e57600d54604051630bb9ff5d60e01b8152336004820152602481018390526001600160a01b0390911690630bb9ff5d90604401600060405180830381600087803b158015610b0557600080fd5b505af1158015610b19573d6000803e3d6000fd5b505050505b6000610b9b60048981548110610b3657610b36613889565b60009182526020918290206040805160c081018252600690930290910180546001600160a01b03168352600181015493830193909352600283015490820152600382015460608201526004820154608082015260059091015460a0820152848461291d565b90508015610c4157600d546040516318a8ad8760e01b8152336004820152602481018390526001600160a01b03909116906318a8ad8790604401600060405180830381600087803b158015610bef57600080fd5b505af1158015610c03573d6000803e3d6000fd5b505050508060028481548110610c1b57610c1b613889565b90600052602060002090600302016000016000828254610c3b9190613a08565b90915550505b6000818360048b81548110610c5857610c58613889565b906000526020600020906006020160010154610c749190613a08565b610c7e9190613a20565b9050600060048a81548110610c9557610c95613889565b906000526020600020906006020160010154670de0b6b3a764000083610cbb9190613a37565b610cc59190613a6c565b905060028581548110610cda57610cda613889565b906000526020600020906003020160020154811115610d56578060028681548110610d0757610d07613889565b9060005260206000209060030201600201819055507f56c1a5b0a3a0633173d7fc412ba79063d393f76ff0740b58e133d1ccc34ccf0781604051610d4d91815260200190565b60405180910390a15b60048a81548110610d6957610d69613889565b90600052602060002090600602016005015460028681548110610d8e57610d8e613889565b90600052602060002090600302016001016000828254610dae9190613a20565b9091555050604080518b815260208101879052908101859052606081018490527f68e2a823e3745ee73ff62ba1efa63a1b770cd0bd3568495adc9cdf11c858684d9060800160405180910390a150505050505050505050565b6000610e138133612f60565b81356005908155602083013560065560408301356007556060830135600855608083013560095560a0830135600a5560c0830135600b5560e0830135600c55829050506040805183358152602080850135908201528184013591810191909152606080840135908201526080808401359082015260a0808401359082015260c0808401359082015260e080840135908201527fe32288882b122aa895e6ef550fc65b0439c341d34be5f1db849bb4f4e4e96f9e906101000160405180910390a15050565b600d546040516306fb1a0760e01b81526003600482015260009182916001600160a01b03909116906306fb1a079060240160206040518083038186803b158015610f2057600080fd5b505afa158015610f34573d6000803e3d6000fd5b505050506040513d601f19601f82011682018060405250810190610f5891906138ed565b60405163eaa8f7e360e01b81523360048201529091506001600160a01b0382169063eaa8f7e39060240160206040518083038186803b158015610f9a57600080fd5b505afa158015610fae573d6000803e3d6000fd5b505050506040513d601f19601f82011682018060405250810190610fd2919061390a565b15610fef5760405162461bcd60e51b815260040161076e9061392c565b82516110515760405162461bcd60e51b815260206004820152602b60248201527f53533a205374616b6564416d6f756e742068617320746f206265206c6172676560448201526a72207468616e207a65726f60a81b606482015260840161076e565b600d546040516370a0823160e01b81523360048201526001600160a01b03909116906370a082319060240160206040518083038186803b15801561109457600080fd5b505afa1580156110a8573d6000803e3d6000fd5b505050506040513d601f19601f820116820180604052508101906110cc9190613a80565b8351111561111c5760405162461bcd60e51b815260206004820181905260248201527f53533a205374616b6564416d6f756e7420657863656564732062616c616e6365604482015260640161076e565b600b546020840151101561118a5760405162461bcd60e51b815260206004820152602f60248201527f53533a205374616b65206d757374206265206c6f636b656420666f72206d6f7260448201526e65207468616e206d696e206461797360881b606482015260840161076e565b600c54602084015111156111f95760405162461bcd60e51b815260206004820152603060248201527f53533a205374616b65206d757374206265206c6f636b656420666f72206c657360448201526f73207468616e206d617820796561727360801b606482015260840161076e565b611201612db1565b600d548351604051634e7f975d60e11b815233600482015230602482015260448101919091526001600160a01b0390911690639cff2eba90606401600060405180830381600087803b15801561125657600080fd5b505af115801561126a573d6000803e3d6000fd5b505050506000611278612e57565b905060006040518060c00160405280336001600160a01b03168152602001866000015181526020018381526020018660200151815260200160008152602001600081525090506112c98160006118b8565b60a082019081526004805460018082018355600083905284517f8a35acfbc15ff81a39ae7d344fd709f28e8600b4aa8c65c6b64bfe7fe36bd19b600690930292830180546001600160a01b0319166001600160a01b0390921691909117905560208501517f8a35acfbc15ff81a39ae7d344fd709f28e8600b4aa8c65c6b64bfe7fe36bd19c83015560408501517f8a35acfbc15ff81a39ae7d344fd709f28e8600b4aa8c65c6b64bfe7fe36bd19d83015560608501517f8a35acfbc15ff81a39ae7d344fd709f28e8600b4aa8c65c6b64bfe7fe36bd19e83015560808501517f8a35acfbc15ff81a39ae7d344fd709f28e8600b4aa8c65c6b64bfe7fe36bd19f83015592517f8a35acfbc15ff81a39ae7d344fd709f28e8600b4aa8c65c6b64bfe7fe36bd1a090910155546113fe9190613a20565b93508060a001516002838154811061141857611418613889565b906000526020600020906003020160010160008282546114389190613a08565b9091555050805160208083015160408085015160608087015160a08089015185518d81526001600160a01b03909916978901979097529387019490945285015260808401919091528201527fb3b7bd78c90933ee8b729da4592fa8ff3fcaad310e548c299cc82de3b4ff09ba9060c00160405180910390a1505050919050565b60005b81811015611501576114ee8383838181106114d8576114d8613889565b9050604002018036038101906102b391906135a7565b50806114f9816138d2565b9150506114bb565b505050565b6003818154811061151657600080fd5b600091825260209091200154905081565b600d546040516306fb1a0760e01b8152600360048201526000916001600160a01b0316906306fb1a079060240160206040518083038186803b15801561156c57600080fd5b505afa158015611580573d6000803e3d6000fd5b505050506040513d601f19601f820116820180604052508101906115a491906138ed565b60405163eaa8f7e360e01b81523360048201529091506001600160a01b0382169063eaa8f7e39060240160206040518083038186803b1580156115e657600080fd5b505afa1580156115fa573d6000803e3d6000fd5b505050506040513d601f19601f8201168201806040525081019061161e919061390a565b1561163b5760405162461bcd60e51b815260040161076e9061392c565b826004818154811061164f5761164f613889565b60009182526020909120600690910201546001600160a01b031633146116875760405162461bcd60e51b815260040161076e90613963565b600454849081106116aa5760405162461bcd60e51b815260040161076e9061399a565b84600481815481106116be576116be613889565b9060005260206000209060060201600401546000146116ef5760405162461bcd60e51b815260040161076e906139d1565b846001600160a01b03166004878154811061170c5761170c613889565b60009182526020909120600690910201546001600160a01b0316141561178b5760405162461bcd60e51b815260206004820152602e60248201527f53533a204e6577206f776e6572206d75737420626520646966666572656e742060448201526d333937b69037b6321037bbb732b960911b606482015260840161076e565b611793612db1565b84600487815481106117a7576117a7613889565b60009182526020918290206006919091020180546001600160a01b0319166001600160a01b0393841617905560408051898152928816918301919091527f2cad8e3e3a0926d0a7524bd52dda355991edb76a6b44ef43e75417996062ac7a910160405180910390a1505050505050565b60005b818110156115015761184383838381811061183757611837613889565b9050602002013561065a565b8061184d816138d2565b91505061181a565b61185f8282612fce565b60008281526001602052604090206115019082612f16565b6118818282612fe4565b6000828152600160205260409020611501908261305e565b60006118b160048481548110610a4c57610a4c613889565b9392505050565b600080826118cb575060608301516118f7565b83604001518311156118ed5760408401516118e69084613a20565b90506118f7565b60009150506105d7565b61190d8161190861016d600a613a37565b613073565b90506000600285604001518154811061192857611928613889565b906000526020600020906003020160020154670de0b6b3a764000086602001516119529190613a37565b61195c9190613a6c565b90506000600286604001518154811061197757611977613889565b90600052602060002090600302016002015461016d620f4240600a61199c9190613a37565b6119a69190613a37565b6119b09190613a37565b670de0b6b3a76400008760200151856005600301546119cf9190613a37565b6119d99190613a37565b6119e39190613a37565b6119ed9190613a6c565b90506000683635c9adc5dea00000876020015111611a1c57600754611a1590620f4240613a08565b9050611aaa565b8660200151683635c9adc5dea00000108015611a45575069d3c21bcecceda10000008760200151105b15611aa457611a67683635c9adc5dea0000069d3c21bcecceda1000000613a20565b6020880151611a809069d3c21bcecceda1000000613a20565b600754611a8d9190613a37565b611a979190613a6c565b611a1590620f4240613a08565b50620f42405b6000620f424082611abb8587613a08565b611ac59190613a37565b611acf9190613a6c565b98975050505050505050565b60005b8181101561150157611b07838383818110611afb57611afb613889565b90506020020135611b19565b80611b11816138d2565b915050611ade565b600d546040516306fb1a0760e01b8152600360048201526000916001600160a01b0316906306fb1a079060240160206040518083038186803b158015611b5e57600080fd5b505afa158015611b72573d6000803e3d6000fd5b505050506040513d601f19601f82011682018060405250810190611b9691906138ed565b60405163eaa8f7e360e01b81523360048201529091506001600160a01b0382169063eaa8f7e39060240160206040518083038186803b158015611bd857600080fd5b505afa158015611bec573d6000803e3d6000fd5b505050506040513d601f19601f82011682018060405250810190611c10919061390a565b15611c2d5760405162461bcd60e51b815260040161076e9061392c565b8160048181548110611c4157611c41613889565b60009182526020909120600690910201546001600160a01b03163314611c795760405162461bcd60e51b815260040161076e90613963565b60045483908110611c9c5760405162461bcd60e51b815260040161076e9061399a565b8360048181548110611cb057611cb0613889565b906000526020600020906006020160040154600014611ce15760405162461bcd60e51b815260040161076e906139d1565b611ce9612db1565b6000611cf3612e57565b905060048681548110611d0857611d08613889565b9060005260206000209060060201600201548111611d785760405162461bcd60e51b815260206004820152602760248201527f53533a205363726170696e6720697320617661696c61626c65206f6e636520696044820152666e20312064617960c81b606482015260840161076e565b60048681548110611d8b57611d8b613889565b90600052602060002090600602016003015460048781548110611db057611db0613889565b906000526020600020906006020160020154611dcc9190613a08565b8110611e42576040805162461bcd60e51b81526020600482015260248101919091527f53533a205363726170696e6720697320617661696c61626c65206f6e6365207760448201527f68696c65207374616b6520697320496e2050726f677265737320737461747573606482015260840161076e565b600060048781548110611e5757611e57613889565b9060005260206000209060060201600301549050600060048881548110611e8057611e80613889565b906000526020600020906006020160050154905060048881548110611ea757611ea7613889565b90600052602060002090600602016002015483611ec49190613a20565b60048981548110611ed757611ed7613889565b9060005260206000209060060201600301819055506000611f6560048a81548110611f0457611f04613889565b600091825260208083206040805160c081018252600690940290910180546001600160a01b0316845260018101549284019290925260028201549083015260038101546060830152600481015460808301526005015460a0820152906118b8565b9050808260028681548110611f7c57611f7c613889565b906000526020600020906003020160010154611f989190613a20565b611fa29190613a08565b60028581548110611fb557611fb5613889565b9060005260206000209060030201600101819055508060048a81548110611fde57611fde613889565b9060005260206000209060060201600501819055507f3e2d801cabf80e21f37737b105feedef59585176ae82a611b6239e59fccaaea28960048b8154811061202857612028613889565b6000918252602091829020600360069092020101546040805193845291830152810183905260600160405180910390a16120618961065a565b600060048a8154811061207657612076613889565b906000526020600020906006020160030154846120939190613a20565b90506120d6604051806040016040528060048d815481106120b6576120b6613889565b906000526020600020906006020160010154815260200183815250610ed7565b5050505050505050505050565b60006120fb60048581548110610b3657610b36613889565b949350505050565b60008281526001602052604081206118b1908361308a565b6000918252602082815260408084206001600160a01b0393909316845291905290205460ff1690565b60006121508133612f60565b612158612db1565b600d546040516318a8ad8760e01b81526001600160a01b03858116600483015260248201859052909116906318a8ad8790604401600060405180830381600087803b1580156121a657600080fd5b505af11580156121ba573d6000803e3d6000fd5b5050505060006121c8612e57565b905082600282815481106121de576121de613889565b906000526020600020906003020160000160008282546121fe9190613a08565b9091555050604080516001600160a01b0386168152602081018590529081018290527f7189d215a7191822b14df651de302b89cd288c7850a66ac6c3401cc0714dbfe79060600160405180910390a150505050565b6002818154811061226357600080fd5b600091825260209091206003909102018054600182015460029092015490925083565b61228e612e57565b8111156122dd5760405162461bcd60e51b815260206004820152601860248201527f53533a2045786365656465642063757272656e74206461790000000000000000604482015260640161076e565b6002546000906122ef90600190613a20565b9050818114156122fd575050565b805b8281101561263e5760025460009082106123275760025461232290600190613a20565b612329565b815b905060006002828154811061234057612340613889565b906000526020600020906003020160020154620f42406123609190613a37565b600854670de0b6b3a76400009061237b90620f424090613a08565b6123859190613a37565b61238f9190613a6c565b90506000620f42406123a361016d84613a37565b6123ad9190613a37565b82600285815481106123c1576123c1613889565b9060005260206000209060030201600101546123dd9190613a08565b6006546123ea9190613a37565b6123f49190613a6c565b60025490915084101561244057806002848154811061241557612415613889565b906000526020600020906003020160000160008282546124359190613a08565b909155506124d99050565b600260405180606001604052808381526020016002868154811061246657612466613889565b90600052602060002090600302016001015481526020016002868154811061249057612490613889565b6000918252602080832060039283020160029081015490945285546001808201885596845292819020855193909202909101918255830151938101939093556040909101519101555b7f45bc90c5e61be4d79e2f0c1154a663332bbccf6a26759463d04772164eebfed2846002858154811061250e5761250e613889565b9060005260206000209060030201600001546002868154811061253357612533613889565b9060005260206000209060030201600101546002878154811061255857612558613889565b906000526020600020906003020160020154612572612d03565b600d60009054906101000a90046001600160a01b03166001600160a01b03166318160ddd6040518163ffffffff1660e01b815260040160206040518083038186803b1580156125c057600080fd5b505afa1580156125d4573d6000803e3d6000fd5b505050506040513d601f19601f820116820180604052508101906125f89190613a80565b604080519687526020870195909552938501929092526060840152608083015260a082015260c00160405180910390a15050508080612636906138d2565b9150506122ff565b506002548214156126fb576002604051806060016040528060008152602001600260018661266c9190613a20565b8154811061267c5761267c613889565b906000526020600020906003020160010154815260200160026001866126a29190613a20565b815481106126b2576126b2613889565b6000918252602080832060039283020160029081015490945285546001808201885596845292819020855193909202909101918255830151938101939093556040909101519101555b60035460009061270d90600190613a20565b9050600061271c606485613a6c565b9050815b818110156128da57600080612736606484613a37565b90505b6064612746846001613a08565b6127509190613a37565b81101561280f576002818154811061276a5761276a613889565b90600052602060002090600302016001015460001415612789576127fd565b6002818154811061279c5761279c613889565b906000526020600020906003020160010154670de0b6b3a7640000600283815481106127ca576127ca613889565b9060005260206000209060030201600001546127e69190613a37565b6127f09190613a6c565b6127fa9083613a08565b91505b80612807816138d2565b915050612739565b5060035482101561283f57806003838154811061282e5761282e613889565b600091825260209091200155612875565b600380546001810182556000919091527fc2575a0e9e593c00f959f8c92f12db2869c3395a3b0502d05e2516446f71f85b018190555b6003547f1c9ce6f1d7f557dc59b02392857734618e6bc787c6a7c136a8bc32bed4e191119083906128a890600190613a20565b604080519283526020830191909152810183905260600160405180910390a150806128d2816138d2565b915050612720565b50600354811415610654576003805460018101825560009182527fc2575a0e9e593c00f959f8c92f12db2869c3395a3b0502d05e2516446f71f85b015550505050565b600080600085604001518511612934576000612943565b60408601516129439086613a20565b905060008487602001516129579190613a08565b600554909150821161296b57809250612a51565b866060015182116129b35760055460608801516129889190613a20565b8288606001516129989190613a20565b6129a29083613a37565b6129ac9190613a6c565b9250612a51565b60095460608801516129c59190613a08565b82116129d45760009250612a51565b600a5460095460608901516129e99190613a08565b6129f39190613a08565b8211612a3757600a8054612a0691613a37565b6009546060890151612a189085613a20565b612a229190613a20565b612a2d836009613a37565b6129a29190613a37565b600a612a44826009613a37565b612a4e9190613a6c565b92505b509095945050505050565b600082604001518211612a71575060006105d7565b600080612a8c84866060015187604001516119089190613a08565b9050612a9d81600280549050613073565b90506000612aab86866118b8565b9050600060648760400151612ac09190613a6c565b612acb906001613a08565b90506000612ade84611908606485613a37565b60408901519091505b81811015612b9f5760028181548110612b0257612b02613889565b90600052602060002090600302016001015460001415612b2157612b8d565b60028181548110612b3457612b34613889565b9060005260206000209060030201600101548460028381548110612b5a57612b5a613889565b906000526020600020906003020160000154612b769190613a37565b612b809190613a6c565b612b8a9087613a08565b95505b80612b97816138d2565b915050612ae7565b506000612bad606486613a6c565b9050825b81811015612c1357670de0b6b3a76400008560038381548110612bd657612bd6613889565b9060005260206000200154612beb9190613a37565b612bf59190613a6c565b612bff9088613a08565b965080612c0b816138d2565b915050612bb1565b506000612c21606487613a99565b612c2b9087613a20565b90508960400151811115612cf557805b86811015612cf35760028181548110612c5657612c56613889565b90600052602060002090600302016001015460001415612c7557612ce1565b60028181548110612c8857612c88613889565b9060005260206000209060030201600101548660028381548110612cae57612cae613889565b906000526020600020906003020160000154612cca9190613a37565b612cd49190613a6c565b612cde9089613a08565b97505b80612ceb816138d2565b915050612c3b565b505b509498975050505050505050565b600d546040516370a0823160e01b81523060048201526000916001600160a01b0316906370a082319060240160206040518083038186803b158015612d4757600080fd5b505afa158015612d5b573d6000803e3d6000fd5b505050506040513d601f19601f82011682018060405250810190612d7f9190613a80565b905090565b60006064612d90612e57565b612d7f9190613a6c565b60008181526001602052604081206105d790613096565b612dbc610468612e57565b565b61188182826130a0565b60048181548110612dd857600080fd5b60009182526020909120600690910201805460018201546002830154600384015460048501546005909501546001600160a01b0390941695509193909286565b60005b8281101561065457612e45848483818110612e3857612e38613889565b9050602002013583611527565b80612e4f816138d2565b915050612e1b565b600062015180600e54612e6a9190613a6c565b612e776201518042613a6c565b612e82906001613a08565b612d7f9190613a20565b60006118b160048481548110612ea457612ea4613889565b60009182526020918290206040805160c081018252600690930290910180546001600160a01b03168352600181015493830193909352600283015490820152600382015460608201526004820154608082015260059091015460a0820152836118b8565b612f1282826130c6565b5050565b60006118b1836001600160a01b03841661314a565b60006001600160e01b03198216637965db0b60e01b14806105d757506301ffc9a760e01b6001600160e01b03198316146105d7565b612f6a828261211b565b612f1257612f82816001600160a01b03166014613199565b612f8d836020613199565b604051602001612f9e929190613ad9565b60408051601f198184030181529082905262461bcd60e51b825261076e91600401613b4e565b61185f8282612f08565b6000612fda8133612f60565b61150183836130c6565b6001600160a01b03811633146130545760405162461bcd60e51b815260206004820152602f60248201527f416363657373436f6e74726f6c3a2063616e206f6e6c792072656e6f756e636560448201526e103937b632b9903337b91039b2b63360891b606482015260840161076e565b612f128282613335565b60006118b1836001600160a01b03841661339a565b6000818310156130845750816105d7565b50919050565b60006118b18383613483565b60006105d7825490565b6000828152602081905260409020600101546130bc8133612f60565b6115018383613335565b6130d0828261211b565b612f12576000828152602081815260408083206001600160a01b03851684529091529020805460ff191660011790556131063390565b6001600160a01b0316816001600160a01b0316837f2f8788117e7eff1d82e926ec794901d17c78024a50270940304540a733656f0d60405160405180910390a45050565b6000818152600183016020526040812054613191575081546001818101845560008481526020808220909301849055845484825282860190935260409020919091556105d7565b5060006105d7565b606060006131a8836002613a37565b6131b3906002613a08565b67ffffffffffffffff8111156131cb576131cb613591565b6040519080825280601f01601f1916602001820160405280156131f5576020820181803683370190505b509050600360fc1b8160008151811061321057613210613889565b60200101906001600160f81b031916908160001a905350600f60fb1b8160018151811061323f5761323f613889565b60200101906001600160f81b031916908160001a9053506000613263846002613a37565b61326e906001613a08565b90505b60018111156132e6576f181899199a1a9b1b9c1cb0b131b232b360811b85600f16601081106132a2576132a2613889565b1a60f81b8282815181106132b8576132b8613889565b60200101906001600160f81b031916908160001a90535060049490941c936132df81613b81565b9050613271565b5083156118b15760405162461bcd60e51b815260206004820181905260248201527f537472696e67733a20686578206c656e67746820696e73756666696369656e74604482015260640161076e565b61333f828261211b565b15612f12576000828152602081815260408083206001600160a01b0385168085529252808320805460ff1916905551339285917ff6391f5c32d9c69d2a47ea670b442974b53935d1edc7fd64eb21e047a839171b9190a45050565b600081815260018301602052604081205480156118ed5760006133be600183613a20565b85549091506000906133d290600190613a20565b90508181146134375760008660000182815481106133f2576133f2613889565b906000526020600020015490508087600001848154811061341557613415613889565b6000918252602080832090910192909255918252600188019052604090208390555b855486908061344857613448613b98565b6001900381819060005260206000200160009055905585600101600086815260200190815260200160002060009055600193505050506105d7565b600082600001828154811061349a5761349a613889565b9060005260206000200154905092915050565b6000602082840312156134bf57600080fd5b81356001600160e01b0319811681146118b157600080fd5b60008083601f8401126134e957600080fd5b50813567ffffffffffffffff81111561350157600080fd5b6020830191508360208260061b850101111561351c57600080fd5b9250929050565b6000806020838503121561353657600080fd5b823567ffffffffffffffff81111561354d57600080fd5b613559858286016134d7565b90969095509350505050565b60006020828403121561357757600080fd5b5035919050565b6000610100828403121561308457600080fd5b634e487b7160e01b600052604160045260246000fd5b6000604082840312156135b957600080fd5b6040516040810181811067ffffffffffffffff821117156135ea57634e487b7160e01b600052604160045260246000fd5b604052823581526020928301359281019290925250919050565b6001600160a01b038116811461361957600080fd5b50565b6000806040838503121561362f57600080fd5b82359150602083013561364181613604565b809150509250929050565b60008083601f84011261365e57600080fd5b50813567ffffffffffffffff81111561367657600080fd5b6020830191508360208260051b850101111561351c57600080fd5b600080602083850312156136a457600080fd5b823567ffffffffffffffff8111156136bb57600080fd5b6135598582860161364c565b600080604083850312156136da57600080fd5b50508035926020909101359150565b600060c082840312156136fb57600080fd5b60405160c0810181811067ffffffffffffffff8211171561372c57634e487b7160e01b600052604160045260246000fd5b604052905080823561373d81613604565b808252506020830135602082015260408301356040820152606083013560608201526080830135608082015260a083013560a08201525092915050565b60008060e0838503121561378d57600080fd5b61379784846136e9565b9460c0939093013593505050565b6000806000606084860312156137ba57600080fd5b505081359360208301359350604090920135919050565b600080604083850312156137e457600080fd5b82356137ef81613604565b946020939093013593505050565b6000806000610100848603121561381357600080fd5b61381d85856136e9565b9560c0850135955060e0909401359392505050565b60008060006040848603121561384757600080fd5b833567ffffffffffffffff81111561385e57600080fd5b61386a8682870161364c565b909450925050602084013561387e81613604565b809150509250925092565b634e487b7160e01b600052603260045260246000fd5b6000602082840312156138b157600080fd5b81356118b181613604565b634e487b7160e01b600052601160045260246000fd5b60006000198214156138e6576138e66138bc565b5060010190565b6000602082840312156138ff57600080fd5b81516118b181613604565b60006020828403121561391c57600080fd5b815180151581146118b157600080fd5b6020808252601c908201527f53533a204f6e6c79207265616c20757365727320616c6c6f7765642100000000604082015260600190565b6020808252601e908201527f53533a205374616b65206f776e657220646f6573206e6f74206d617463680000604082015260600190565b60208082526018908201527f53533a205374616b6520646f6573206e6f742065786973740000000000000000604082015260600190565b6020808252601b908201527f53533a205374616b652077617320616c726561647920656e6465640000000000604082015260600190565b60008219821115613a1b57613a1b6138bc565b500190565b600082821015613a3257613a326138bc565b500390565b6000816000190483118215151615613a5157613a516138bc565b500290565b634e487b7160e01b600052601260045260246000fd5b600082613a7b57613a7b613a56565b500490565b600060208284031215613a9257600080fd5b5051919050565b600082613aa857613aa8613a56565b500690565b60005b83811015613ac8578181015183820152602001613ab0565b838111156106545750506000910152565b7f416363657373436f6e74726f6c3a206163636f756e7420000000000000000000815260008351613b11816017850160208801613aad565b7001034b99036b4b9b9b4b733903937b6329607d1b6017918401918201528351613b42816028840160208801613aad565b01602801949350505050565b6020815260008251806020840152613b6d816040850160208701613aad565b601f01601f19169190910160400192915050565b600081613b9057613b906138bc565b506000190190565b634e487b7160e01b600052603160045260246000fdfea264697066735822122009f16d5824ef5cd0e887cb5e81d8d9a515665d79f40831b7192cc3bd26c721a064736f6c63430008090033405787fa12a823e0f2b7631cc41b3ba8828b3321ca811111fa75cd3aa3bb5acec2575a0e9e593c00f959f8c92f12db2869c3395a3b0502d05e2516446f71f85b405787fa12a823e0f2b7631cc41b3ba8828b3321ca811111fa75cd3aa3bb5acf45bc90c5e61be4d79e2f0c1154a663332bbccf6a26759463d04772164eebfed2405787fa12a823e0f2b7631cc41b3ba8828b3321ca811111fa75cd3aa3bb5ad0",
			"opcodes": "PUSH1 0x80 PUSH1 0x40 MSTORE PUSH1 0xD DUP1 SLOAD PUSH1 0x1 PUSH1 0x1 PUSH1 0xA0 SHL SUB NOT AND PUSH20 0xDEF1FAC7BF08F173D286BBBDCBEEADE695129840 OR SWAP1 SSTORE CALLVALUE DUP1 ISZERO PUSH3 0x37 JUMPI PUSH1 0x0 DUP1 REVERT JUMPDEST POP PUSH1 0x0 PUSH1 0x5 SSTORE PUSH3 0x61A80 PUSH1 0x6 SSTORE PUSH1 0x1E PUSH1 0x9 SSTORE PUSH3 0x58 PUSH2 0x16D PUSH1 0x2 PUSH3 0xB70 JUMP JUMPDEST PUSH1 0xA SSTORE PUSH1 0x1 PUSH1 0xB SSTORE PUSH3 0x6F PUSH2 0x16D PUSH1 0x64 PUSH3 0xB70 JUMP JUMPDEST PUSH1 0xC SSTORE PUSH3 0x2DC6C0 PUSH1 0x8 SSTORE PUSH3 0x3D090 PUSH1 0x7 SSTORE PUSH4 0x617D5839 PUSH1 0xE SSTORE PUSH1 0x40 DUP1 MLOAD PUSH1 0x60 DUP1 DUP3 ADD DUP4 MSTORE PUSH1 0x0 DUP1 DUP4 MSTORE PUSH1 0x20 DUP1 DUP5 ADD DUP3 DUP2 MSTORE PUSH8 0xDE0B6B3A7640000 DUP6 DUP8 ADD DUP2 DUP2 MSTORE PUSH1 0x2 DUP1 SLOAD PUSH1 0x1 DUP2 ADD DUP3 SSTORE SWAP1 DUP7 MSTORE SWAP7 MLOAD PUSH1 0x0 DUP1 MLOAD PUSH1 0x20 PUSH3 0x482C DUP4 CODECOPY DUP2 MLOAD SWAP2 MSTORE PUSH1 0x3 SWAP1 SWAP9 MUL SWAP8 DUP9 ADD SSTORE SWAP2 MLOAD PUSH1 0x0 DUP1 MLOAD PUSH1 0x20 PUSH3 0x486C DUP4 CODECOPY DUP2 MLOAD SWAP2 MSTORE DUP8 ADD SSTORE SWAP1 MLOAD PUSH1 0x0 DUP1 MLOAD PUSH1 0x20 PUSH3 0x48AC DUP4 CODECOPY DUP2 MLOAD SWAP2 MSTORE SWAP1 SWAP6 ADD SWAP5 SWAP1 SWAP5 SSTORE DUP5 MLOAD DUP3 DUP2 MSTORE SWAP1 DUP2 ADD DUP3 SWAP1 MSTORE SWAP4 DUP5 ADD DUP2 SWAP1 MSTORE SWAP1 DUP4 ADD SWAP2 SWAP1 SWAP2 MSTORE PUSH1 0x80 DUP3 ADD DUP2 SWAP1 MSTORE PUSH1 0xA0 DUP3 ADD MSTORE PUSH1 0x0 DUP1 MLOAD PUSH1 0x20 PUSH3 0x488C DUP4 CODECOPY DUP2 MLOAD SWAP2 MSTORE SWAP1 PUSH1 0xC0 ADD PUSH1 0x40 MLOAD DUP1 SWAP2 SUB SWAP1 LOG1 PUSH1 0x40 DUP1 MLOAD PUSH1 0x60 DUP2 ADD DUP3 MSTORE PUSH1 0x0 DUP1 DUP3 MSTORE PUSH1 0x20 DUP3 ADD DUP2 DUP2 MSTORE PUSH8 0xDE0B6B3A7640000 DUP4 DUP6 ADD DUP2 DUP2 MSTORE PUSH1 0x2 DUP1 SLOAD PUSH1 0x1 DUP2 DUP2 ADD DUP4 SSTORE SWAP2 DUP7 MSTORE SWAP6 MLOAD PUSH1 0x3 SWAP7 DUP8 MUL PUSH1 0x0 DUP1 MLOAD PUSH1 0x20 PUSH3 0x482C DUP4 CODECOPY DUP2 MLOAD SWAP2 MSTORE DUP2 ADD SWAP2 SWAP1 SWAP2 SSTORE SWAP4 MLOAD PUSH1 0x0 DUP1 MLOAD PUSH1 0x20 PUSH3 0x486C DUP4 CODECOPY DUP2 MLOAD SWAP2 MSTORE DUP6 ADD SSTORE SWAP1 MLOAD PUSH1 0x0 DUP1 MLOAD PUSH1 0x20 PUSH3 0x48AC DUP4 CODECOPY DUP2 MLOAD SWAP2 MSTORE SWAP1 SWAP4 ADD SWAP3 SWAP1 SWAP3 SSTORE DUP4 SLOAD SWAP2 DUP3 ADD DUP5 SSTORE SWAP3 DUP3 MSTORE PUSH1 0x0 DUP1 MLOAD PUSH1 0x20 PUSH3 0x484C DUP4 CODECOPY DUP2 MLOAD SWAP2 MSTORE ADD SSTORE SWAP1 MLOAD PUSH32 0x56C1A5B0A3A0633173D7FC412BA79063D393F76FF0740B58E133D1CCC34CCF07 SWAP2 PUSH3 0x211 SWAP2 SWAP1 DUP2 MSTORE PUSH1 0x20 ADD SWAP1 JUMP JUMPDEST PUSH1 0x40 MLOAD DUP1 SWAP2 SUB SWAP1 LOG1 PUSH3 0x223 PUSH3 0x236 JUMP JUMPDEST PUSH3 0x230 PUSH1 0x0 CALLER PUSH3 0x24C JUMP JUMPDEST PUSH3 0xC38 JUMP JUMPDEST PUSH3 0x24A PUSH3 0x244 PUSH3 0x28F JUMP JUMPDEST PUSH3 0x2D1 JUMP JUMPDEST JUMP JUMPDEST PUSH3 0x263 DUP3 DUP3 PUSH3 0x9B8 PUSH1 0x20 SHL PUSH3 0x2F08 OR PUSH1 0x20 SHR JUMP JUMPDEST PUSH1 0x0 DUP3 DUP2 MSTORE PUSH1 0x1 PUSH1 0x20 SWAP1 DUP2 MSTORE PUSH1 0x40 SWAP1 SWAP2 KECCAK256 PUSH3 0x28A SWAP2 DUP4 SWAP1 PUSH3 0x2F16 PUSH3 0x9C8 DUP3 SHL OR SWAP1 SHR JUMP JUMPDEST POP POP POP JUMP JUMPDEST PUSH1 0x0 PUSH3 0x15180 PUSH1 0xE SLOAD PUSH3 0x2A4 SWAP2 SWAP1 PUSH3 0xB92 JUMP JUMPDEST PUSH3 0x2B3 PUSH3 0x15180 TIMESTAMP PUSH3 0xB92 JUMP JUMPDEST PUSH3 0x2C0 SWAP1 PUSH1 0x1 PUSH3 0xBB5 JUMP JUMPDEST PUSH3 0x2CC SWAP2 SWAP1 PUSH3 0xBD0 JUMP JUMPDEST SWAP1 POP SWAP1 JUMP JUMPDEST PUSH3 0x2DB PUSH3 0x28F JUMP JUMPDEST DUP2 GT ISZERO PUSH3 0x32F JUMPI PUSH1 0x40 MLOAD PUSH3 0x461BCD PUSH1 0xE5 SHL DUP2 MSTORE PUSH1 0x20 PUSH1 0x4 DUP3 ADD MSTORE PUSH1 0x18 PUSH1 0x24 DUP3 ADD MSTORE PUSH32 0x53533A2045786365656465642063757272656E74206461790000000000000000 PUSH1 0x44 DUP3 ADD MSTORE PUSH1 0x64 ADD PUSH1 0x40 MLOAD DUP1 SWAP2 SUB SWAP1 REVERT JUMPDEST PUSH1 0x2 SLOAD PUSH1 0x0 SWAP1 PUSH3 0x343 SWAP1 PUSH1 0x1 SWAP1 PUSH3 0xBD0 JUMP JUMPDEST SWAP1 POP DUP2 DUP2 EQ ISZERO PUSH3 0x352 JUMPI POP POP JUMP JUMPDEST DUP1 JUMPDEST DUP3 DUP2 LT ISZERO PUSH3 0x6C4 JUMPI PUSH1 0x2 SLOAD PUSH1 0x0 SWAP1 DUP3 LT PUSH3 0x381 JUMPI PUSH1 0x2 SLOAD PUSH3 0x37B SWAP1 PUSH1 0x1 SWAP1 PUSH3 0xBD0 JUMP JUMPDEST PUSH3 0x383 JUMP JUMPDEST DUP2 JUMPDEST SWAP1 POP PUSH1 0x0 PUSH1 0x2 DUP3 DUP2 SLOAD DUP2 LT PUSH3 0x39D JUMPI PUSH3 0x39D PUSH3 0xBEA JUMP JUMPDEST SWAP1 PUSH1 0x0 MSTORE PUSH1 0x20 PUSH1 0x0 KECCAK256 SWAP1 PUSH1 0x3 MUL ADD PUSH1 0x2 ADD SLOAD PUSH3 0xF4240 PUSH3 0x3BF SWAP2 SWAP1 PUSH3 0xB70 JUMP JUMPDEST PUSH1 0x8 SLOAD PUSH8 0xDE0B6B3A7640000 SWAP1 PUSH3 0x3DC SWAP1 PUSH3 0xF4240 SWAP1 PUSH3 0xBB5 JUMP JUMPDEST PUSH3 0x3E8 SWAP2 SWAP1 PUSH3 0xB70 JUMP JUMPDEST PUSH3 0x3F4 SWAP2 SWAP1 PUSH3 0xB92 JUMP JUMPDEST SWAP1 POP PUSH1 0x0 PUSH3 0xF4240 PUSH3 0x40A PUSH2 0x16D DUP5 PUSH3 0xB70 JUMP JUMPDEST PUSH3 0x416 SWAP2 SWAP1 PUSH3 0xB70 JUMP JUMPDEST DUP3 PUSH1 0x2 DUP6 DUP2 SLOAD DUP2 LT PUSH3 0x42D JUMPI PUSH3 0x42D PUSH3 0xBEA JUMP JUMPDEST SWAP1 PUSH1 0x0 MSTORE PUSH1 0x20 PUSH1 0x0 KECCAK256 SWAP1 PUSH1 0x3 MUL ADD PUSH1 0x1 ADD SLOAD PUSH3 0x44B SWAP2 SWAP1 PUSH3 0xBB5 JUMP JUMPDEST PUSH1 0x6 SLOAD PUSH3 0x45A SWAP2 SWAP1 PUSH3 0xB70 JUMP JUMPDEST PUSH3 0x466 SWAP2 SWAP1 PUSH3 0xB92 JUMP JUMPDEST PUSH1 0x2 SLOAD SWAP1 SWAP2 POP DUP5 LT ISZERO PUSH3 0x4B9 JUMPI DUP1 PUSH1 0x2 DUP5 DUP2 SLOAD DUP2 LT PUSH3 0x48B JUMPI PUSH3 0x48B PUSH3 0xBEA JUMP JUMPDEST SWAP1 PUSH1 0x0 MSTORE PUSH1 0x20 PUSH1 0x0 KECCAK256 SWAP1 PUSH1 0x3 MUL ADD PUSH1 0x0 ADD PUSH1 0x0 DUP3 DUP3 SLOAD PUSH3 0x4AD SWAP2 SWAP1 PUSH3 0xBB5 JUMP JUMPDEST SWAP1 SWAP2 SSTORE POP PUSH3 0x558 SWAP1 POP JUMP JUMPDEST PUSH1 0x2 PUSH1 0x40 MLOAD DUP1 PUSH1 0x60 ADD PUSH1 0x40 MSTORE DUP1 DUP4 DUP2 MSTORE PUSH1 0x20 ADD PUSH1 0x2 DUP7 DUP2 SLOAD DUP2 LT PUSH3 0x4E2 JUMPI PUSH3 0x4E2 PUSH3 0xBEA JUMP JUMPDEST SWAP1 PUSH1 0x0 MSTORE PUSH1 0x20 PUSH1 0x0 KECCAK256 SWAP1 PUSH1 0x3 MUL ADD PUSH1 0x1 ADD SLOAD DUP2 MSTORE PUSH1 0x20 ADD PUSH1 0x2 DUP7 DUP2 SLOAD DUP2 LT PUSH3 0x50F JUMPI PUSH3 0x50F PUSH3 0xBEA JUMP JUMPDEST PUSH1 0x0 SWAP2 DUP3 MSTORE PUSH1 0x20 DUP1 DUP4 KECCAK256 PUSH1 0x3 SWAP3 DUP4 MUL ADD PUSH1 0x2 SWAP1 DUP2 ADD SLOAD SWAP1 SWAP5 MSTORE DUP6 SLOAD PUSH1 0x1 DUP1 DUP3 ADD DUP9 SSTORE SWAP7 DUP5 MSTORE SWAP3 DUP2 SWAP1 KECCAK256 DUP6 MLOAD SWAP4 SWAP1 SWAP3 MUL SWAP1 SWAP2 ADD SWAP2 DUP3 SSTORE DUP4 ADD MLOAD SWAP4 DUP2 ADD SWAP4 SWAP1 SWAP4 SSTORE PUSH1 0x40 SWAP1 SWAP2 ADD MLOAD SWAP2 ADD SSTORE JUMPDEST PUSH1 0x0 DUP1 MLOAD PUSH1 0x20 PUSH3 0x488C DUP4 CODECOPY DUP2 MLOAD SWAP2 MSTORE DUP5 PUSH1 0x2 DUP6 DUP2 SLOAD DUP2 LT PUSH3 0x57F JUMPI PUSH3 0x57F PUSH3 0xBEA JUMP JUMPDEST SWAP1 PUSH1 0x0 MSTORE PUSH1 0x20 PUSH1 0x0 KECCAK256 SWAP1 PUSH1 0x3 MUL ADD PUSH1 0x0 ADD SLOAD PUSH1 0x2 DUP7 DUP2 SLOAD DUP2 LT PUSH3 0x5A7 JUMPI PUSH3 0x5A7 PUSH3 0xBEA JUMP JUMPDEST SWAP1 PUSH1 0x0 MSTORE PUSH1 0x20 PUSH1 0x0 KECCAK256 SWAP1 PUSH1 0x3 MUL ADD PUSH1 0x1 ADD SLOAD PUSH1 0x2 DUP8 DUP2 SLOAD DUP2 LT PUSH3 0x5CF JUMPI PUSH3 0x5CF PUSH3 0xBEA JUMP JUMPDEST SWAP1 PUSH1 0x0 MSTORE PUSH1 0x20 PUSH1 0x0 KECCAK256 SWAP1 PUSH1 0x3 MUL ADD PUSH1 0x2 ADD SLOAD PUSH3 0x5F1 PUSH3 0x9E8 PUSH1 0x20 SHL PUSH1 0x20 SHR JUMP JUMPDEST PUSH1 0xD PUSH1 0x0 SWAP1 SLOAD SWAP1 PUSH2 0x100 EXP SWAP1 DIV PUSH1 0x1 PUSH1 0x1 PUSH1 0xA0 SHL SUB AND PUSH1 0x1 PUSH1 0x1 PUSH1 0xA0 SHL SUB AND PUSH4 0x18160DDD PUSH1 0x40 MLOAD DUP2 PUSH4 0xFFFFFFFF AND PUSH1 0xE0 SHL DUP2 MSTORE PUSH1 0x4 ADD PUSH1 0x20 PUSH1 0x40 MLOAD DUP1 DUP4 SUB DUP2 DUP7 DUP1 EXTCODESIZE ISZERO DUP1 ISZERO PUSH3 0x640 JUMPI PUSH1 0x0 DUP1 REVERT JUMPDEST POP GAS STATICCALL ISZERO DUP1 ISZERO PUSH3 0x655 JUMPI RETURNDATASIZE PUSH1 0x0 DUP1 RETURNDATACOPY RETURNDATASIZE PUSH1 0x0 REVERT JUMPDEST POP POP POP POP PUSH1 0x40 MLOAD RETURNDATASIZE PUSH1 0x1F NOT PUSH1 0x1F DUP3 ADD AND DUP3 ADD DUP1 PUSH1 0x40 MSTORE POP DUP2 ADD SWAP1 PUSH3 0x67B SWAP2 SWAP1 PUSH3 0xC00 JUMP JUMPDEST PUSH1 0x40 DUP1 MLOAD SWAP7 DUP8 MSTORE PUSH1 0x20 DUP8 ADD SWAP6 SWAP1 SWAP6 MSTORE SWAP4 DUP6 ADD SWAP3 SWAP1 SWAP3 MSTORE PUSH1 0x60 DUP5 ADD MSTORE PUSH1 0x80 DUP4 ADD MSTORE PUSH1 0xA0 DUP3 ADD MSTORE PUSH1 0xC0 ADD PUSH1 0x40 MLOAD DUP1 SWAP2 SUB SWAP1 LOG1 POP POP POP DUP1 DUP1 PUSH3 0x6BB SWAP1 PUSH3 0xC1A JUMP JUMPDEST SWAP2 POP POP PUSH3 0x354 JUMP JUMPDEST POP PUSH1 0x2 SLOAD DUP3 EQ ISZERO PUSH3 0x78C JUMPI PUSH1 0x2 PUSH1 0x40 MLOAD DUP1 PUSH1 0x60 ADD PUSH1 0x40 MSTORE DUP1 PUSH1 0x0 DUP2 MSTORE PUSH1 0x20 ADD PUSH1 0x2 PUSH1 0x1 DUP7 PUSH3 0x6F5 SWAP2 SWAP1 PUSH3 0xBD0 JUMP JUMPDEST DUP2 SLOAD DUP2 LT PUSH3 0x708 JUMPI PUSH3 0x708 PUSH3 0xBEA JUMP JUMPDEST SWAP1 PUSH1 0x0 MSTORE PUSH1 0x20 PUSH1 0x0 KECCAK256 SWAP1 PUSH1 0x3 MUL ADD PUSH1 0x1 ADD SLOAD DUP2 MSTORE PUSH1 0x20 ADD PUSH1 0x2 PUSH1 0x1 DUP7 PUSH3 0x730 SWAP2 SWAP1 PUSH3 0xBD0 JUMP JUMPDEST DUP2 SLOAD DUP2 LT PUSH3 0x743 JUMPI PUSH3 0x743 PUSH3 0xBEA JUMP JUMPDEST PUSH1 0x0 SWAP2 DUP3 MSTORE PUSH1 0x20 DUP1 DUP4 KECCAK256 PUSH1 0x3 SWAP3 DUP4 MUL ADD PUSH1 0x2 SWAP1 DUP2 ADD SLOAD SWAP1 SWAP5 MSTORE DUP6 SLOAD PUSH1 0x1 DUP1 DUP3 ADD DUP9 SSTORE SWAP7 DUP5 MSTORE SWAP3 DUP2 SWAP1 KECCAK256 DUP6 MLOAD SWAP4 SWAP1 SWAP3 MUL SWAP1 SWAP2 ADD SWAP2 DUP3 SSTORE DUP4 ADD MLOAD SWAP4 DUP2 ADD SWAP4 SWAP1 SWAP4 SSTORE PUSH1 0x40 SWAP1 SWAP2 ADD MLOAD SWAP2 ADD SSTORE JUMPDEST PUSH1 0x3 SLOAD PUSH1 0x0 SWAP1 PUSH3 0x7A0 SWAP1 PUSH1 0x1 SWAP1 PUSH3 0xBD0 JUMP JUMPDEST SWAP1 POP PUSH1 0x0 PUSH3 0x7B1 PUSH1 0x64 DUP6 PUSH3 0xB92 JUMP JUMPDEST SWAP1 POP DUP2 JUMPDEST DUP2 DUP2 LT ISZERO PUSH3 0x984 JUMPI PUSH1 0x0 DUP1 PUSH3 0x7CE PUSH1 0x64 DUP5 PUSH3 0xB70 JUMP JUMPDEST SWAP1 POP JUMPDEST PUSH1 0x64 PUSH3 0x7E0 DUP5 PUSH1 0x1 PUSH3 0xBB5 JUMP JUMPDEST PUSH3 0x7EC SWAP2 SWAP1 PUSH3 0xB70 JUMP JUMPDEST DUP2 LT ISZERO PUSH3 0x8C0 JUMPI PUSH1 0x2 DUP2 DUP2 SLOAD DUP2 LT PUSH3 0x80A JUMPI PUSH3 0x80A PUSH3 0xBEA JUMP JUMPDEST SWAP1 PUSH1 0x0 MSTORE PUSH1 0x20 PUSH1 0x0 KECCAK256 SWAP1 PUSH1 0x3 MUL ADD PUSH1 0x1 ADD SLOAD PUSH1 0x0 EQ ISZERO PUSH3 0x82B JUMPI PUSH3 0x8AB JUMP JUMPDEST PUSH1 0x2 DUP2 DUP2 SLOAD DUP2 LT PUSH3 0x841 JUMPI PUSH3 0x841 PUSH3 0xBEA JUMP JUMPDEST SWAP1 PUSH1 0x0 MSTORE PUSH1 0x20 PUSH1 0x0 KECCAK256 SWAP1 PUSH1 0x3 MUL ADD PUSH1 0x1 ADD SLOAD PUSH8 0xDE0B6B3A7640000 PUSH1 0x2 DUP4 DUP2 SLOAD DUP2 LT PUSH3 0x872 JUMPI PUSH3 0x872 PUSH3 0xBEA JUMP JUMPDEST SWAP1 PUSH1 0x0 MSTORE PUSH1 0x20 PUSH1 0x0 KECCAK256 SWAP1 PUSH1 0x3 MUL ADD PUSH1 0x0 ADD SLOAD PUSH3 0x890 SWAP2 SWAP1 PUSH3 0xB70 JUMP JUMPDEST PUSH3 0x89C SWAP2 SWAP1 PUSH3 0xB92 JUMP JUMPDEST PUSH3 0x8A8 SWAP1 DUP4 PUSH3 0xBB5 JUMP JUMPDEST SWAP2 POP JUMPDEST DUP1 PUSH3 0x8B7 DUP2 PUSH3 0xC1A JUMP JUMPDEST SWAP2 POP POP PUSH3 0x7D1 JUMP JUMPDEST POP PUSH1 0x3 SLOAD DUP3 LT ISZERO PUSH3 0x8F5 JUMPI DUP1 PUSH1 0x3 DUP4 DUP2 SLOAD DUP2 LT PUSH3 0x8E3 JUMPI PUSH3 0x8E3 PUSH3 0xBEA JUMP JUMPDEST PUSH1 0x0 SWAP2 DUP3 MSTORE PUSH1 0x20 SWAP1 SWAP2 KECCAK256 ADD SSTORE PUSH3 0x91A JUMP JUMPDEST PUSH1 0x3 DUP1 SLOAD PUSH1 0x1 DUP2 ADD DUP3 SSTORE PUSH1 0x0 SWAP2 SWAP1 SWAP2 MSTORE PUSH1 0x0 DUP1 MLOAD PUSH1 0x20 PUSH3 0x484C DUP4 CODECOPY DUP2 MLOAD SWAP2 MSTORE ADD DUP2 SWAP1 SSTORE JUMPDEST PUSH1 0x3 SLOAD PUSH32 0x1C9CE6F1D7F557DC59B02392857734618E6BC787C6A7C136A8BC32BED4E19111 SWAP1 DUP4 SWAP1 PUSH3 0x94F SWAP1 PUSH1 0x1 SWAP1 PUSH3 0xBD0 JUMP JUMPDEST PUSH1 0x40 DUP1 MLOAD SWAP3 DUP4 MSTORE PUSH1 0x20 DUP4 ADD SWAP2 SWAP1 SWAP2 MSTORE DUP2 ADD DUP4 SWAP1 MSTORE PUSH1 0x60 ADD PUSH1 0x40 MLOAD DUP1 SWAP2 SUB SWAP1 LOG1 POP DUP1 PUSH3 0x97B DUP2 PUSH3 0xC1A JUMP JUMPDEST SWAP2 POP POP PUSH3 0x7B5 JUMP JUMPDEST POP PUSH1 0x3 SLOAD DUP2 EQ ISZERO PUSH3 0x9B2 JUMPI PUSH1 0x3 DUP1 SLOAD PUSH1 0x1 DUP2 ADD DUP3 SSTORE PUSH1 0x0 SWAP2 DUP3 MSTORE PUSH1 0x0 DUP1 MLOAD PUSH1 0x20 PUSH3 0x484C DUP4 CODECOPY DUP2 MLOAD SWAP2 MSTORE ADD SSTORE JUMPDEST POP POP POP POP JUMP JUMPDEST PUSH3 0x9C4 DUP3 DUP3 PUSH3 0xA68 JUMP JUMPDEST POP POP JUMP JUMPDEST PUSH1 0x0 PUSH3 0x9DF DUP4 PUSH1 0x1 PUSH1 0x1 PUSH1 0xA0 SHL SUB DUP5 AND PUSH3 0xB08 JUMP JUMPDEST SWAP1 POP JUMPDEST SWAP3 SWAP2 POP POP JUMP JUMPDEST PUSH1 0xD SLOAD PUSH1 0x40 MLOAD PUSH4 0x70A08231 PUSH1 0xE0 SHL DUP2 MSTORE ADDRESS PUSH1 0x4 DUP3 ADD MSTORE PUSH1 0x0 SWAP2 PUSH1 0x1 PUSH1 0x1 PUSH1 0xA0 SHL SUB AND SWAP1 PUSH4 0x70A08231 SWAP1 PUSH1 0x24 ADD PUSH1 0x20 PUSH1 0x40 MLOAD DUP1 DUP4 SUB DUP2 DUP7 DUP1 EXTCODESIZE ISZERO DUP1 ISZERO PUSH3 0xA2D JUMPI PUSH1 0x0 DUP1 REVERT JUMPDEST POP GAS STATICCALL ISZERO DUP1 ISZERO PUSH3 0xA42 JUMPI RETURNDATASIZE PUSH1 0x0 DUP1 RETURNDATACOPY RETURNDATASIZE PUSH1 0x0 REVERT JUMPDEST POP POP POP POP PUSH1 0x40 MLOAD RETURNDATASIZE PUSH1 0x1F NOT PUSH1 0x1F DUP3 ADD AND DUP3 ADD DUP1 PUSH1 0x40 MSTORE POP DUP2 ADD SWAP1 PUSH3 0x2CC SWAP2 SWAP1 PUSH3 0xC00 JUMP JUMPDEST PUSH1 0x0 DUP3 DUP2 MSTORE PUSH1 0x20 DUP2 DUP2 MSTORE PUSH1 0x40 DUP1 DUP4 KECCAK256 PUSH1 0x1 PUSH1 0x1 PUSH1 0xA0 SHL SUB DUP6 AND DUP5 MSTORE SWAP1 SWAP2 MSTORE SWAP1 KECCAK256 SLOAD PUSH1 0xFF AND PUSH3 0x9C4 JUMPI PUSH1 0x0 DUP3 DUP2 MSTORE PUSH1 0x20 DUP2 DUP2 MSTORE PUSH1 0x40 DUP1 DUP4 KECCAK256 PUSH1 0x1 PUSH1 0x1 PUSH1 0xA0 SHL SUB DUP6 AND DUP5 MSTORE SWAP1 SWAP2 MSTORE SWAP1 KECCAK256 DUP1 SLOAD PUSH1 0xFF NOT AND PUSH1 0x1 OR SWAP1 SSTORE PUSH3 0xAC4 CALLER SWAP1 JUMP JUMPDEST PUSH1 0x1 PUSH1 0x1 PUSH1 0xA0 SHL SUB AND DUP2 PUSH1 0x1 PUSH1 0x1 PUSH1 0xA0 SHL SUB AND DUP4 PUSH32 0x2F8788117E7EFF1D82E926EC794901D17C78024A50270940304540A733656F0D PUSH1 0x40 MLOAD PUSH1 0x40 MLOAD DUP1 SWAP2 SUB SWAP1 LOG4 POP POP JUMP JUMPDEST PUSH1 0x0 DUP2 DUP2 MSTORE PUSH1 0x1 DUP4 ADD PUSH1 0x20 MSTORE PUSH1 0x40 DUP2 KECCAK256 SLOAD PUSH3 0xB51 JUMPI POP DUP2 SLOAD PUSH1 0x1 DUP2 DUP2 ADD DUP5 SSTORE PUSH1 0x0 DUP5 DUP2 MSTORE PUSH1 0x20 DUP1 DUP3 KECCAK256 SWAP1 SWAP4 ADD DUP5 SWAP1 SSTORE DUP5 SLOAD DUP5 DUP3 MSTORE DUP3 DUP7 ADD SWAP1 SWAP4 MSTORE PUSH1 0x40 SWAP1 KECCAK256 SWAP2 SWAP1 SWAP2 SSTORE PUSH3 0x9E2 JUMP JUMPDEST POP PUSH1 0x0 PUSH3 0x9E2 JUMP JUMPDEST PUSH4 0x4E487B71 PUSH1 0xE0 SHL PUSH1 0x0 MSTORE PUSH1 0x11 PUSH1 0x4 MSTORE PUSH1 0x24 PUSH1 0x0 REVERT JUMPDEST PUSH1 0x0 DUP2 PUSH1 0x0 NOT DIV DUP4 GT DUP3 ISZERO ISZERO AND ISZERO PUSH3 0xB8D JUMPI PUSH3 0xB8D PUSH3 0xB5A JUMP JUMPDEST POP MUL SWAP1 JUMP JUMPDEST PUSH1 0x0 DUP3 PUSH3 0xBB0 JUMPI PUSH4 0x4E487B71 PUSH1 0xE0 SHL PUSH1 0x0 MSTORE PUSH1 0x12 PUSH1 0x4 MSTORE PUSH1 0x24 PUSH1 0x0 REVERT JUMPDEST POP DIV SWAP1 JUMP JUMPDEST PUSH1 0x0 DUP3 NOT DUP3 GT ISZERO PUSH3 0xBCB JUMPI PUSH3 0xBCB PUSH3 0xB5A JUMP JUMPDEST POP ADD SWAP1 JUMP JUMPDEST PUSH1 0x0 DUP3 DUP3 LT ISZERO PUSH3 0xBE5 JUMPI PUSH3 0xBE5 PUSH3 0xB5A JUMP JUMPDEST POP SUB SWAP1 JUMP JUMPDEST PUSH4 0x4E487B71 PUSH1 0xE0 SHL PUSH1 0x0 MSTORE PUSH1 0x32 PUSH1 0x4 MSTORE PUSH1 0x24 PUSH1 0x0 REVERT JUMPDEST PUSH1 0x0 PUSH1 0x20 DUP3 DUP5 SUB SLT ISZERO PUSH3 0xC13 JUMPI PUSH1 0x0 DUP1 REVERT JUMPDEST POP MLOAD SWAP2 SWAP1 POP JUMP JUMPDEST PUSH1 0x0 PUSH1 0x0 NOT DUP3 EQ ISZERO PUSH3 0xC31 JUMPI PUSH3 0xC31 PUSH3 0xB5A JUMP JUMPDEST POP PUSH1 0x1 ADD SWAP1 JUMP JUMPDEST PUSH2 0x3BE4 DUP1 PUSH3 0xC48 PUSH1 0x0 CODECOPY PUSH1 0x0 RETURN INVALID PUSH1 0x80 PUSH1 0x40 MSTORE CALLVALUE DUP1 ISZERO PUSH2 0x10 JUMPI PUSH1 0x0 DUP1 REVERT JUMPDEST POP PUSH1 0x4 CALLDATASIZE LT PUSH2 0x23D JUMPI PUSH1 0x0 CALLDATALOAD PUSH1 0xE0 SHR DUP1 PUSH4 0x7BA4BCFB GT PUSH2 0x13B JUMPI DUP1 PUSH4 0xC82E3067 GT PUSH2 0xB8 JUMPI DUP1 PUSH4 0xD5A44F86 GT PUSH2 0x7C JUMPI DUP1 PUSH4 0xD5A44F86 EQ PUSH2 0x4D9 JUMPI DUP1 PUSH4 0xE06174E4 EQ PUSH2 0x523 JUMPI DUP1 PUSH4 0xE59443E6 EQ PUSH2 0x584 JUMPI DUP1 PUSH4 0xE99884A3 EQ PUSH2 0x597 JUMPI DUP1 PUSH4 0xEA580BF2 EQ PUSH2 0x59F JUMPI PUSH1 0x0 DUP1 REVERT JUMPDEST DUP1 PUSH4 0xC82E3067 EQ PUSH2 0x49B JUMPI DUP1 PUSH4 0xCA15C873 EQ PUSH2 0x4A3 JUMPI DUP1 PUSH4 0xD391014B EQ PUSH2 0x4B6 JUMPI DUP1 PUSH4 0xD50116B8 EQ PUSH2 0x4BE JUMPI DUP1 PUSH4 0xD547741F EQ PUSH2 0x4C6 JUMPI PUSH1 0x0 DUP1 REVERT JUMPDEST DUP1 PUSH4 0xA2AC13D3 GT PUSH2 0xFF JUMPI DUP1 PUSH4 0xA2AC13D3 EQ PUSH2 0x42C JUMPI DUP1 PUSH4 0xAD110A67 EQ PUSH2 0x45A JUMPI DUP1 PUSH4 0xB1B63DFC EQ PUSH2 0x46D JUMPI DUP1 PUSH4 0xB471468D EQ PUSH2 0x480 JUMPI DUP1 PUSH4 0xC763E2FC EQ PUSH2 0x493 JUMPI PUSH1 0x0 DUP1 REVERT JUMPDEST DUP1 PUSH4 0x7BA4BCFB EQ PUSH2 0x3B5 JUMPI DUP1 PUSH4 0x82C44854 EQ PUSH2 0x3C8 JUMPI DUP1 PUSH4 0x9010D07C EQ PUSH2 0x3DB JUMPI DUP1 PUSH4 0x91D14854 EQ PUSH2 0x406 JUMPI DUP1 PUSH4 0x95F6F5D2 EQ PUSH2 0x419 JUMPI PUSH1 0x0 DUP1 REVERT JUMPDEST DUP1 PUSH4 0x2A486B90 GT PUSH2 0x1C9 JUMPI DUP1 PUSH4 0x4D9DAE0E GT PUSH2 0x18D JUMPI DUP1 PUSH4 0x4D9DAE0E EQ PUSH2 0x376 JUMPI DUP1 PUSH4 0x5540BE7D EQ PUSH2 0x389 JUMPI DUP1 PUSH4 0x58962A38 EQ PUSH2 0x39C JUMPI DUP1 PUSH4 0x5A49E94D EQ PUSH2 0x3A4 JUMPI DUP1 PUSH4 0x65CF7C9B EQ PUSH2 0x3AC JUMPI PUSH1 0x0 DUP1 REVERT JUMPDEST DUP1 PUSH4 0x2A486B90 EQ PUSH2 0x322 JUMPI DUP1 PUSH4 0x2F2FF15D EQ PUSH2 0x335 JUMPI DUP1 PUSH4 0x36568ABE EQ PUSH2 0x348 JUMPI DUP1 PUSH4 0x388A1A81 EQ PUSH2 0x35B JUMPI DUP1 PUSH4 0x4BADE67E EQ PUSH2 0x36E JUMPI PUSH1 0x0 DUP1 REVERT JUMPDEST DUP1 PUSH4 0x1E22DDC7 GT PUSH2 0x210 JUMPI DUP1 PUSH4 0x1E22DDC7 EQ PUSH2 0x2A5 JUMPI DUP1 PUSH4 0x1F009BDB EQ PUSH2 0x2C6 JUMPI DUP1 PUSH4 0x248A9CA3 EQ PUSH2 0x2D9 JUMPI DUP1 PUSH4 0x27DE406F EQ PUSH2 0x2FC JUMPI DUP1 PUSH4 0x29507F73 EQ PUSH2 0x30F JUMPI PUSH1 0x0 DUP1 REVERT JUMPDEST DUP1 PUSH4 0x1FFC9A7 EQ PUSH2 0x242 JUMPI DUP1 PUSH4 0x3ED957F EQ PUSH2 0x26A JUMPI DUP1 PUSH4 0xCBE28D6 EQ PUSH2 0x27F JUMPI DUP1 PUSH4 0xFFED08A EQ PUSH2 0x292 JUMPI JUMPDEST PUSH1 0x0 DUP1 REVERT JUMPDEST PUSH2 0x255 PUSH2 0x250 CALLDATASIZE PUSH1 0x4 PUSH2 0x34AD JUMP JUMPDEST PUSH2 0x5B2 JUMP JUMPDEST PUSH1 0x40 MLOAD SWAP1 ISZERO ISZERO DUP2 MSTORE PUSH1 0x20 ADD JUMPDEST PUSH1 0x40 MLOAD DUP1 SWAP2 SUB SWAP1 RETURN JUMPDEST PUSH2 0x27D PUSH2 0x278 CALLDATASIZE PUSH1 0x4 PUSH2 0x3523 JUMP JUMPDEST PUSH2 0x5DD JUMP JUMPDEST STOP JUMPDEST PUSH2 0x27D PUSH2 0x28D CALLDATASIZE PUSH1 0x4 PUSH2 0x3565 JUMP JUMPDEST PUSH2 0x65A JUMP JUMPDEST PUSH2 0x27D PUSH2 0x2A0 CALLDATASIZE PUSH1 0x4 PUSH2 0x357E JUMP JUMPDEST PUSH2 0xE07 JUMP JUMPDEST PUSH2 0x2B8 PUSH2 0x2B3 CALLDATASIZE PUSH1 0x4 PUSH2 0x35A7 JUMP JUMPDEST PUSH2 0xED7 JUMP JUMPDEST PUSH1 0x40 MLOAD SWAP1 DUP2 MSTORE PUSH1 0x20 ADD PUSH2 0x261 JUMP JUMPDEST PUSH2 0x27D PUSH2 0x2D4 CALLDATASIZE PUSH1 0x4 PUSH2 0x3523 JUMP JUMPDEST PUSH2 0x14B8 JUMP JUMPDEST PUSH2 0x2B8 PUSH2 0x2E7 CALLDATASIZE PUSH1 0x4 PUSH2 0x3565 JUMP JUMPDEST PUSH1 0x0 SWAP1 DUP2 MSTORE PUSH1 0x20 DUP2 SWAP1 MSTORE PUSH1 0x40 SWAP1 KECCAK256 PUSH1 0x1 ADD SLOAD SWAP1 JUMP JUMPDEST PUSH2 0x2B8 PUSH2 0x30A CALLDATASIZE PUSH1 0x4 PUSH2 0x3565 JUMP JUMPDEST PUSH2 0x1506 JUMP JUMPDEST PUSH2 0x27D PUSH2 0x31D CALLDATASIZE PUSH1 0x4 PUSH2 0x361C JUMP JUMPDEST PUSH2 0x1527 JUMP JUMPDEST PUSH2 0x27D PUSH2 0x330 CALLDATASIZE PUSH1 0x4 PUSH2 0x3691 JUMP JUMPDEST PUSH2 0x1817 JUMP JUMPDEST PUSH2 0x27D PUSH2 0x343 CALLDATASIZE PUSH1 0x4 PUSH2 0x361C JUMP JUMPDEST PUSH2 0x1855 JUMP JUMPDEST PUSH2 0x27D PUSH2 0x356 CALLDATASIZE PUSH1 0x4 PUSH2 0x361C JUMP JUMPDEST PUSH2 0x1877 JUMP JUMPDEST PUSH2 0x2B8 PUSH2 0x369 CALLDATASIZE PUSH1 0x4 PUSH2 0x36C7 JUMP JUMPDEST PUSH2 0x1899 JUMP JUMPDEST PUSH1 0x4 SLOAD PUSH2 0x2B8 JUMP JUMPDEST PUSH2 0x2B8 PUSH2 0x384 CALLDATASIZE PUSH1 0x4 PUSH2 0x377A JUMP JUMPDEST PUSH2 0x18B8 JUMP JUMPDEST PUSH2 0x27D PUSH2 0x397 CALLDATASIZE PUSH1 0x4 PUSH2 0x3691 JUMP JUMPDEST PUSH2 0x1ADB JUMP JUMPDEST PUSH1 0x3 SLOAD PUSH2 0x2B8 JUMP JUMPDEST PUSH1 0x2 SLOAD PUSH2 0x2B8 JUMP JUMPDEST PUSH2 0x2B8 PUSH1 0xE SLOAD DUP2 JUMP JUMPDEST PUSH2 0x27D PUSH2 0x3C3 CALLDATASIZE PUSH1 0x4 PUSH2 0x3565 JUMP JUMPDEST PUSH2 0x1B19 JUMP JUMPDEST PUSH2 0x2B8 PUSH2 0x3D6 CALLDATASIZE PUSH1 0x4 PUSH2 0x37A5 JUMP JUMPDEST PUSH2 0x20E3 JUMP JUMPDEST PUSH2 0x3EE PUSH2 0x3E9 CALLDATASIZE PUSH1 0x4 PUSH2 0x36C7 JUMP JUMPDEST PUSH2 0x2103 JUMP JUMPDEST PUSH1 0x40 MLOAD PUSH1 0x1 PUSH1 0x1 PUSH1 0xA0 SHL SUB SWAP1 SWAP2 AND DUP2 MSTORE PUSH1 0x20 ADD PUSH2 0x261 JUMP JUMPDEST PUSH2 0x255 PUSH2 0x414 CALLDATASIZE PUSH1 0x4 PUSH2 0x361C JUMP JUMPDEST PUSH2 0x211B JUMP JUMPDEST PUSH2 0x27D PUSH2 0x427 CALLDATASIZE PUSH1 0x4 PUSH2 0x37D1 JUMP JUMPDEST PUSH2 0x2144 JUMP JUMPDEST PUSH2 0x43F PUSH2 0x43A CALLDATASIZE PUSH1 0x4 PUSH2 0x3565 JUMP JUMPDEST PUSH2 0x2253 JUMP JUMPDEST PUSH1 0x40 DUP1 MLOAD SWAP4 DUP5 MSTORE PUSH1 0x20 DUP5 ADD SWAP3 SWAP1 SWAP3 MSTORE SWAP1 DUP3 ADD MSTORE PUSH1 0x60 ADD PUSH2 0x261 JUMP JUMPDEST PUSH2 0x27D PUSH2 0x468 CALLDATASIZE PUSH1 0x4 PUSH2 0x3565 JUMP JUMPDEST PUSH2 0x2286 JUMP JUMPDEST PUSH2 0x2B8 PUSH2 0x47B CALLDATASIZE PUSH1 0x4 PUSH2 0x37FD JUMP JUMPDEST PUSH2 0x291D JUMP JUMPDEST PUSH2 0x2B8 PUSH2 0x48E CALLDATASIZE PUSH1 0x4 PUSH2 0x377A JUMP JUMPDEST PUSH2 0x2A5C JUMP JUMPDEST PUSH2 0x2B8 PUSH2 0x2D03 JUMP JUMPDEST PUSH2 0x2B8 PUSH2 0x2D84 JUMP JUMPDEST PUSH2 0x2B8 PUSH2 0x4B1 CALLDATASIZE PUSH1 0x4 PUSH2 0x3565 JUMP JUMPDEST PUSH2 0x2D9A JUMP JUMPDEST PUSH2 0x2B8 PUSH1 0x0 DUP2 JUMP JUMPDEST PUSH2 0x27D PUSH2 0x2DB1 JUMP JUMPDEST PUSH2 0x27D PUSH2 0x4D4 CALLDATASIZE PUSH1 0x4 PUSH2 0x361C JUMP JUMPDEST PUSH2 0x2DBE JUMP JUMPDEST PUSH2 0x4EC PUSH2 0x4E7 CALLDATASIZE PUSH1 0x4 PUSH2 0x3565 JUMP JUMPDEST PUSH2 0x2DC8 JUMP JUMPDEST PUSH1 0x40 DUP1 MLOAD PUSH1 0x1 PUSH1 0x1 PUSH1 0xA0 SHL SUB SWAP1 SWAP8 AND DUP8 MSTORE PUSH1 0x20 DUP8 ADD SWAP6 SWAP1 SWAP6 MSTORE SWAP4 DUP6 ADD SWAP3 SWAP1 SWAP3 MSTORE PUSH1 0x60 DUP5 ADD MSTORE PUSH1 0x80 DUP4 ADD MSTORE PUSH1 0xA0 DUP3 ADD MSTORE PUSH1 0xC0 ADD PUSH2 0x261 JUMP JUMPDEST PUSH1 0x5 SLOAD PUSH1 0x6 SLOAD PUSH1 0x7 SLOAD PUSH1 0x8 SLOAD PUSH1 0x9 SLOAD PUSH1 0xA SLOAD PUSH1 0xB SLOAD PUSH1 0xC SLOAD PUSH2 0x549 SWAP8 SWAP7 SWAP6 SWAP5 SWAP4 SWAP3 SWAP2 SWAP1 DUP9 JUMP JUMPDEST PUSH1 0x40 DUP1 MLOAD SWAP9 DUP10 MSTORE PUSH1 0x20 DUP10 ADD SWAP8 SWAP1 SWAP8 MSTORE SWAP6 DUP8 ADD SWAP5 SWAP1 SWAP5 MSTORE PUSH1 0x60 DUP7 ADD SWAP3 SWAP1 SWAP3 MSTORE PUSH1 0x80 DUP6 ADD MSTORE PUSH1 0xA0 DUP5 ADD MSTORE PUSH1 0xC0 DUP4 ADD MSTORE PUSH1 0xE0 DUP3 ADD MSTORE PUSH2 0x100 ADD PUSH2 0x261 JUMP JUMPDEST PUSH2 0x27D PUSH2 0x592 CALLDATASIZE PUSH1 0x4 PUSH2 0x3832 JUMP JUMPDEST PUSH2 0x2E18 JUMP JUMPDEST PUSH2 0x2B8 PUSH2 0x2E57 JUMP JUMPDEST PUSH2 0x2B8 PUSH2 0x5AD CALLDATASIZE PUSH1 0x4 PUSH2 0x36C7 JUMP JUMPDEST PUSH2 0x2E8C JUMP JUMPDEST PUSH1 0x0 PUSH1 0x1 PUSH1 0x1 PUSH1 0xE0 SHL SUB NOT DUP3 AND PUSH4 0x5A05180F PUSH1 0xE0 SHL EQ DUP1 PUSH2 0x5D7 JUMPI POP PUSH2 0x5D7 DUP3 PUSH2 0x2F2B JUMP JUMPDEST SWAP3 SWAP2 POP POP JUMP JUMPDEST PUSH1 0x0 PUSH2 0x5E9 DUP2 CALLER PUSH2 0x2F60 JUMP JUMPDEST PUSH1 0x0 JUMPDEST DUP3 DUP2 LT ISZERO PUSH2 0x654 JUMPI PUSH2 0x642 DUP5 DUP5 DUP4 DUP2 DUP2 LT PUSH2 0x609 JUMPI PUSH2 0x609 PUSH2 0x3889 JUMP JUMPDEST SWAP1 POP PUSH1 0x40 MUL ADD PUSH1 0x0 ADD CALLDATALOAD DUP6 DUP6 DUP5 DUP2 DUP2 LT PUSH2 0x625 JUMPI PUSH2 0x625 PUSH2 0x3889 JUMP JUMPDEST SWAP1 POP PUSH1 0x40 MUL ADD PUSH1 0x20 ADD PUSH1 0x20 DUP2 ADD SWAP1 PUSH2 0x63D SWAP2 SWAP1 PUSH2 0x389F JUMP JUMPDEST PUSH2 0x2FC4 JUMP JUMPDEST DUP1 PUSH2 0x64C DUP2 PUSH2 0x38D2 JUMP JUMPDEST SWAP2 POP POP PUSH2 0x5EC JUMP JUMPDEST POP POP POP POP JUMP JUMPDEST PUSH1 0xD SLOAD PUSH1 0x40 MLOAD PUSH4 0x6FB1A07 PUSH1 0xE0 SHL DUP2 MSTORE PUSH1 0x3 PUSH1 0x4 DUP3 ADD MSTORE PUSH1 0x0 SWAP2 PUSH1 0x1 PUSH1 0x1 PUSH1 0xA0 SHL SUB AND SWAP1 PUSH4 0x6FB1A07 SWAP1 PUSH1 0x24 ADD PUSH1 0x20 PUSH1 0x40 MLOAD DUP1 DUP4 SUB DUP2 DUP7 DUP1 EXTCODESIZE ISZERO DUP1 ISZERO PUSH2 0x69F JUMPI PUSH1 0x0 DUP1 REVERT JUMPDEST POP GAS STATICCALL ISZERO DUP1 ISZERO PUSH2 0x6B3 JUMPI RETURNDATASIZE PUSH1 0x0 DUP1 RETURNDATACOPY RETURNDATASIZE PUSH1 0x0 REVERT JUMPDEST POP POP POP POP PUSH1 0x40 MLOAD RETURNDATASIZE PUSH1 0x1F NOT PUSH1 0x1F DUP3 ADD AND DUP3 ADD DUP1 PUSH1 0x40 MSTORE POP DUP2 ADD SWAP1 PUSH2 0x6D7 SWAP2 SWAP1 PUSH2 0x38ED JUMP JUMPDEST PUSH1 0x40 MLOAD PUSH4 0xEAA8F7E3 PUSH1 0xE0 SHL DUP2 MSTORE CALLER PUSH1 0x4 DUP3 ADD MSTORE SWAP1 SWAP2 POP PUSH1 0x1 PUSH1 0x1 PUSH1 0xA0 SHL SUB DUP3 AND SWAP1 PUSH4 0xEAA8F7E3 SWAP1 PUSH1 0x24 ADD PUSH1 0x20 PUSH1 0x40 MLOAD DUP1 DUP4 SUB DUP2 DUP7 DUP1 EXTCODESIZE ISZERO DUP1 ISZERO PUSH2 0x719 JUMPI PUSH1 0x0 DUP1 REVERT JUMPDEST POP GAS STATICCALL ISZERO DUP1 ISZERO PUSH2 0x72D JUMPI RETURNDATASIZE PUSH1 0x0 DUP1 RETURNDATACOPY RETURNDATASIZE PUSH1 0x0 REVERT JUMPDEST POP POP POP POP PUSH1 0x40 MLOAD RETURNDATASIZE PUSH1 0x1F NOT PUSH1 0x1F DUP3 ADD AND DUP3 ADD DUP1 PUSH1 0x40 MSTORE POP DUP2 ADD SWAP1 PUSH2 0x751 SWAP2 SWAP1 PUSH2 0x390A JUMP JUMPDEST ISZERO PUSH2 0x777 JUMPI PUSH1 0x40 MLOAD PUSH3 0x461BCD PUSH1 0xE5 SHL DUP2 MSTORE PUSH1 0x4 ADD PUSH2 0x76E SWAP1 PUSH2 0x392C JUMP JUMPDEST PUSH1 0x40 MLOAD DUP1 SWAP2 SUB SWAP1 REVERT JUMPDEST DUP2 PUSH1 0x4 DUP2 DUP2 SLOAD DUP2 LT PUSH2 0x78B JUMPI PUSH2 0x78B PUSH2 0x3889 JUMP JUMPDEST PUSH1 0x0 SWAP2 DUP3 MSTORE PUSH1 0x20 SWAP1 SWAP2 KECCAK256 PUSH1 0x6 SWAP1 SWAP2 MUL ADD SLOAD PUSH1 0x1 PUSH1 0x1 PUSH1 0xA0 SHL SUB AND CALLER EQ PUSH2 0x7C3 JUMPI PUSH1 0x40 MLOAD PUSH3 0x461BCD PUSH1 0xE5 SHL DUP2 MSTORE PUSH1 0x4 ADD PUSH2 0x76E SWAP1 PUSH2 0x3963 JUMP JUMPDEST PUSH1 0x4 SLOAD DUP4 SWAP1 DUP2 LT PUSH2 0x7E6 JUMPI PUSH1 0x40 MLOAD PUSH3 0x461BCD PUSH1 0xE5 SHL DUP2 MSTORE PUSH1 0x4 ADD PUSH2 0x76E SWAP1 PUSH2 0x399A JUMP JUMPDEST DUP4 PUSH1 0x4 DUP2 DUP2 SLOAD DUP2 LT PUSH2 0x7FA JUMPI PUSH2 0x7FA PUSH2 0x3889 JUMP JUMPDEST SWAP1 PUSH1 0x0 MSTORE PUSH1 0x20 PUSH1 0x0 KECCAK256 SWAP1 PUSH1 0x6 MUL ADD PUSH1 0x4 ADD SLOAD PUSH1 0x0 EQ PUSH2 0x82B JUMPI PUSH1 0x40 MLOAD PUSH3 0x461BCD PUSH1 0xE5 SHL DUP2 MSTORE PUSH1 0x4 ADD PUSH2 0x76E SWAP1 PUSH2 0x39D1 JUMP JUMPDEST PUSH2 0x833 PUSH2 0x2DB1 JUMP JUMPDEST PUSH1 0x0 PUSH2 0x83D PUSH2 0x2E57 JUMP JUMPDEST SWAP1 POP DUP1 PUSH1 0x4 DUP8 DUP2 SLOAD DUP2 LT PUSH2 0x853 JUMPI PUSH2 0x853 PUSH2 0x3889 JUMP JUMPDEST SWAP1 PUSH1 0x0 MSTORE PUSH1 0x20 PUSH1 0x0 KECCAK256 SWAP1 PUSH1 0x6 MUL ADD PUSH1 0x4 ADD DUP2 SWAP1 SSTORE POP PUSH1 0xD PUSH1 0x0 SWAP1 SLOAD SWAP1 PUSH2 0x100 EXP SWAP1 DIV PUSH1 0x1 PUSH1 0x1 PUSH1 0xA0 SHL SUB AND PUSH1 0x1 PUSH1 0x1 PUSH1 0xA0 SHL SUB AND PUSH4 0x9CFF2EBA ADDRESS CALLER PUSH1 0x4 DUP11 DUP2 SLOAD DUP2 LT PUSH2 0x8A1 JUMPI PUSH2 0x8A1 PUSH2 0x3889 JUMP JUMPDEST PUSH1 0x0 SWAP2 DUP3 MSTORE PUSH1 0x20 SWAP1 SWAP2 KECCAK256 PUSH1 0x1 PUSH1 0x6 SWAP1 SWAP3 MUL ADD ADD SLOAD PUSH1 0x40 MLOAD PUSH1 0x1 PUSH1 0x1 PUSH1 0xE0 SHL SUB NOT PUSH1 0xE0 DUP7 SWAP1 SHL AND DUP2 MSTORE PUSH1 0x1 PUSH1 0x1 PUSH1 0xA0 SHL SUB SWAP4 DUP5 AND PUSH1 0x4 DUP3 ADD MSTORE SWAP3 SWAP1 SWAP2 AND PUSH1 0x24 DUP4 ADD MSTORE PUSH1 0x44 DUP3 ADD MSTORE PUSH1 0x64 ADD PUSH1 0x0 PUSH1 0x40 MLOAD DUP1 DUP4 SUB DUP2 PUSH1 0x0 DUP8 DUP1 EXTCODESIZE ISZERO DUP1 ISZERO PUSH2 0x904 JUMPI PUSH1 0x0 DUP1 REVERT JUMPDEST POP GAS CALL ISZERO DUP1 ISZERO PUSH2 0x918 JUMPI RETURNDATASIZE PUSH1 0x0 DUP1 RETURNDATACOPY RETURNDATASIZE PUSH1 0x0 REVERT JUMPDEST POP POP POP POP PUSH1 0x0 PUSH1 0x4 DUP8 DUP2 SLOAD DUP2 LT PUSH2 0x931 JUMPI PUSH2 0x931 PUSH2 0x3889 JUMP JUMPDEST SWAP1 PUSH1 0x0 MSTORE PUSH1 0x20 PUSH1 0x0 KECCAK256 SWAP1 PUSH1 0x6 MUL ADD PUSH1 0x3 ADD SLOAD PUSH1 0x4 DUP9 DUP2 SLOAD DUP2 LT PUSH2 0x956 JUMPI PUSH2 0x956 PUSH2 0x3889 JUMP JUMPDEST SWAP1 PUSH1 0x0 MSTORE PUSH1 0x20 PUSH1 0x0 KECCAK256 SWAP1 PUSH1 0x6 MUL ADD PUSH1 0x2 ADD SLOAD PUSH2 0x972 SWAP2 SWAP1 PUSH2 0x3A08 JUMP JUMPDEST DUP3 LT ISZERO PUSH2 0xA36 JUMPI PUSH1 0x0 PUSH1 0x4 DUP9 DUP2 SLOAD DUP2 LT PUSH2 0x98E JUMPI PUSH2 0x98E PUSH2 0x3889 JUMP JUMPDEST PUSH1 0x0 SWAP2 DUP3 MSTORE PUSH1 0x20 SWAP2 DUP3 SWAP1 KECCAK256 PUSH1 0x40 DUP1 MLOAD PUSH1 0xC0 DUP2 ADD DUP3 MSTORE PUSH1 0x6 SWAP1 SWAP4 MUL SWAP1 SWAP2 ADD DUP1 SLOAD PUSH1 0x1 PUSH1 0x1 PUSH1 0xA0 SHL SUB AND DUP4 MSTORE PUSH1 0x1 DUP2 ADD SLOAD SWAP4 DUP4 ADD SWAP4 SWAP1 SWAP4 MSTORE PUSH1 0x2 DUP4 ADD SLOAD SWAP1 DUP3 ADD MSTORE PUSH1 0x3 DUP3 ADD SLOAD PUSH1 0x60 DUP3 ADD MSTORE PUSH1 0x4 DUP1 DUP4 ADD SLOAD PUSH1 0x80 DUP4 ADD MSTORE PUSH1 0x5 SWAP1 SWAP3 ADD SLOAD PUSH1 0xA0 DUP3 ADD MSTORE DUP2 SLOAD SWAP1 SWAP3 POP DUP10 SWAP1 DUP2 LT PUSH2 0xA02 JUMPI PUSH2 0xA02 PUSH2 0x3889 JUMP JUMPDEST SWAP1 PUSH1 0x0 MSTORE PUSH1 0x20 PUSH1 0x0 KECCAK256 SWAP1 PUSH1 0x6 MUL ADD PUSH1 0x2 ADD SLOAD DUP4 PUSH2 0xA1F SWAP2 SWAP1 PUSH2 0x3A20 JUMP JUMPDEST PUSH1 0x60 DUP3 ADD MSTORE PUSH2 0xA2E DUP2 DUP5 PUSH2 0x2A5C JUMP JUMPDEST SWAP2 POP POP PUSH2 0xAB3 JUMP JUMPDEST PUSH2 0xAB0 PUSH1 0x4 DUP9 DUP2 SLOAD DUP2 LT PUSH2 0xA4C JUMPI PUSH2 0xA4C PUSH2 0x3889 JUMP JUMPDEST PUSH1 0x0 SWAP2 DUP3 MSTORE PUSH1 0x20 SWAP2 DUP3 SWAP1 KECCAK256 PUSH1 0x40 DUP1 MLOAD PUSH1 0xC0 DUP2 ADD DUP3 MSTORE PUSH1 0x6 SWAP1 SWAP4 MUL SWAP1 SWAP2 ADD DUP1 SLOAD PUSH1 0x1 PUSH1 0x1 PUSH1 0xA0 SHL SUB AND DUP4 MSTORE PUSH1 0x1 DUP2 ADD SLOAD SWAP4 DUP4 ADD SWAP4 SWAP1 SWAP4 MSTORE PUSH1 0x2 DUP4 ADD SLOAD SWAP1 DUP3 ADD MSTORE PUSH1 0x3 DUP3 ADD SLOAD PUSH1 0x60 DUP3 ADD MSTORE PUSH1 0x4 DUP3 ADD SLOAD PUSH1 0x80 DUP3 ADD MSTORE PUSH1 0x5 SWAP1 SWAP2 ADD SLOAD PUSH1 0xA0 DUP3 ADD MSTORE DUP4 PUSH2 0x2A5C JUMP JUMPDEST SWAP1 POP JUMPDEST DUP1 ISZERO PUSH2 0xB1E JUMPI PUSH1 0xD SLOAD PUSH1 0x40 MLOAD PUSH4 0xBB9FF5D PUSH1 0xE0 SHL DUP2 MSTORE CALLER PUSH1 0x4 DUP3 ADD MSTORE PUSH1 0x24 DUP2 ADD DUP4 SWAP1 MSTORE PUSH1 0x1 PUSH1 0x1 PUSH1 0xA0 SHL SUB SWAP1 SWAP2 AND SWAP1 PUSH4 0xBB9FF5D SWAP1 PUSH1 0x44 ADD PUSH1 0x0 PUSH1 0x40 MLOAD DUP1 DUP4 SUB DUP2 PUSH1 0x0 DUP8 DUP1 EXTCODESIZE ISZERO DUP1 ISZERO PUSH2 0xB05 JUMPI PUSH1 0x0 DUP1 REVERT JUMPDEST POP GAS CALL ISZERO DUP1 ISZERO PUSH2 0xB19 JUMPI RETURNDATASIZE PUSH1 0x0 DUP1 RETURNDATACOPY RETURNDATASIZE PUSH1 0x0 REVERT JUMPDEST POP POP POP POP JUMPDEST PUSH1 0x0 PUSH2 0xB9B PUSH1 0x4 DUP10 DUP2 SLOAD DUP2 LT PUSH2 0xB36 JUMPI PUSH2 0xB36 PUSH2 0x3889 JUMP JUMPDEST PUSH1 0x0 SWAP2 DUP3 MSTORE PUSH1 0x20 SWAP2 DUP3 SWAP1 KECCAK256 PUSH1 0x40 DUP1 MLOAD PUSH1 0xC0 DUP2 ADD DUP3 MSTORE PUSH1 0x6 SWAP1 SWAP4 MUL SWAP1 SWAP2 ADD DUP1 SLOAD PUSH1 0x1 PUSH1 0x1 PUSH1 0xA0 SHL SUB AND DUP4 MSTORE PUSH1 0x1 DUP2 ADD SLOAD SWAP4 DUP4 ADD SWAP4 SWAP1 SWAP4 MSTORE PUSH1 0x2 DUP4 ADD SLOAD SWAP1 DUP3 ADD MSTORE PUSH1 0x3 DUP3 ADD SLOAD PUSH1 0x60 DUP3 ADD MSTORE PUSH1 0x4 DUP3 ADD SLOAD PUSH1 0x80 DUP3 ADD MSTORE PUSH1 0x5 SWAP1 SWAP2 ADD SLOAD PUSH1 0xA0 DUP3 ADD MSTORE DUP5 DUP5 PUSH2 0x291D JUMP JUMPDEST SWAP1 POP DUP1 ISZERO PUSH2 0xC41 JUMPI PUSH1 0xD SLOAD PUSH1 0x40 MLOAD PUSH4 0x18A8AD87 PUSH1 0xE0 SHL DUP2 MSTORE CALLER PUSH1 0x4 DUP3 ADD MSTORE PUSH1 0x24 DUP2 ADD DUP4 SWAP1 MSTORE PUSH1 0x1 PUSH1 0x1 PUSH1 0xA0 SHL SUB SWAP1 SWAP2 AND SWAP1 PUSH4 0x18A8AD87 SWAP1 PUSH1 0x44 ADD PUSH1 0x0 PUSH1 0x40 MLOAD DUP1 DUP4 SUB DUP2 PUSH1 0x0 DUP8 DUP1 EXTCODESIZE ISZERO DUP1 ISZERO PUSH2 0xBEF JUMPI PUSH1 0x0 DUP1 REVERT JUMPDEST POP GAS CALL ISZERO DUP1 ISZERO PUSH2 0xC03 JUMPI RETURNDATASIZE PUSH1 0x0 DUP1 RETURNDATACOPY RETURNDATASIZE PUSH1 0x0 REVERT JUMPDEST POP POP POP POP DUP1 PUSH1 0x2 DUP5 DUP2 SLOAD DUP2 LT PUSH2 0xC1B JUMPI PUSH2 0xC1B PUSH2 0x3889 JUMP JUMPDEST SWAP1 PUSH1 0x0 MSTORE PUSH1 0x20 PUSH1 0x0 KECCAK256 SWAP1 PUSH1 0x3 MUL ADD PUSH1 0x0 ADD PUSH1 0x0 DUP3 DUP3 SLOAD PUSH2 0xC3B SWAP2 SWAP1 PUSH2 0x3A08 JUMP JUMPDEST SWAP1 SWAP2 SSTORE POP POP JUMPDEST PUSH1 0x0 DUP2 DUP4 PUSH1 0x4 DUP12 DUP2 SLOAD DUP2 LT PUSH2 0xC58 JUMPI PUSH2 0xC58 PUSH2 0x3889 JUMP JUMPDEST SWAP1 PUSH1 0x0 MSTORE PUSH1 0x20 PUSH1 0x0 KECCAK256 SWAP1 PUSH1 0x6 MUL ADD PUSH1 0x1 ADD SLOAD PUSH2 0xC74 SWAP2 SWAP1 PUSH2 0x3A08 JUMP JUMPDEST PUSH2 0xC7E SWAP2 SWAP1 PUSH2 0x3A20 JUMP JUMPDEST SWAP1 POP PUSH1 0x0 PUSH1 0x4 DUP11 DUP2 SLOAD DUP2 LT PUSH2 0xC95 JUMPI PUSH2 0xC95 PUSH2 0x3889 JUMP JUMPDEST SWAP1 PUSH1 0x0 MSTORE PUSH1 0x20 PUSH1 0x0 KECCAK256 SWAP1 PUSH1 0x6 MUL ADD PUSH1 0x1 ADD SLOAD PUSH8 0xDE0B6B3A7640000 DUP4 PUSH2 0xCBB SWAP2 SWAP1 PUSH2 0x3A37 JUMP JUMPDEST PUSH2 0xCC5 SWAP2 SWAP1 PUSH2 0x3A6C JUMP JUMPDEST SWAP1 POP PUSH1 0x2 DUP6 DUP2 SLOAD DUP2 LT PUSH2 0xCDA JUMPI PUSH2 0xCDA PUSH2 0x3889 JUMP JUMPDEST SWAP1 PUSH1 0x0 MSTORE PUSH1 0x20 PUSH1 0x0 KECCAK256 SWAP1 PUSH1 0x3 MUL ADD PUSH1 0x2 ADD SLOAD DUP2 GT ISZERO PUSH2 0xD56 JUMPI DUP1 PUSH1 0x2 DUP7 DUP2 SLOAD DUP2 LT PUSH2 0xD07 JUMPI PUSH2 0xD07 PUSH2 0x3889 JUMP JUMPDEST SWAP1 PUSH1 0x0 MSTORE PUSH1 0x20 PUSH1 0x0 KECCAK256 SWAP1 PUSH1 0x3 MUL ADD PUSH1 0x2 ADD DUP2 SWAP1 SSTORE POP PUSH32 0x56C1A5B0A3A0633173D7FC412BA79063D393F76FF0740B58E133D1CCC34CCF07 DUP2 PUSH1 0x40 MLOAD PUSH2 0xD4D SWAP2 DUP2 MSTORE PUSH1 0x20 ADD SWAP1 JUMP JUMPDEST PUSH1 0x40 MLOAD DUP1 SWAP2 SUB SWAP1 LOG1 JUMPDEST PUSH1 0x4 DUP11 DUP2 SLOAD DUP2 LT PUSH2 0xD69 JUMPI PUSH2 0xD69 PUSH2 0x3889 JUMP JUMPDEST SWAP1 PUSH1 0x0 MSTORE PUSH1 0x20 PUSH1 0x0 KECCAK256 SWAP1 PUSH1 0x6 MUL ADD PUSH1 0x5 ADD SLOAD PUSH1 0x2 DUP7 DUP2 SLOAD DUP2 LT PUSH2 0xD8E JUMPI PUSH2 0xD8E PUSH2 0x3889 JUMP JUMPDEST SWAP1 PUSH1 0x0 MSTORE PUSH1 0x20 PUSH1 0x0 KECCAK256 SWAP1 PUSH1 0x3 MUL ADD PUSH1 0x1 ADD PUSH1 0x0 DUP3 DUP3 SLOAD PUSH2 0xDAE SWAP2 SWAP1 PUSH2 0x3A20 JUMP JUMPDEST SWAP1 SWAP2 SSTORE POP POP PUSH1 0x40 DUP1 MLOAD DUP12 DUP2 MSTORE PUSH1 0x20 DUP2 ADD DUP8 SWAP1 MSTORE SWAP1 DUP2 ADD DUP6 SWAP1 MSTORE PUSH1 0x60 DUP2 ADD DUP5 SWAP1 MSTORE PUSH32 0x68E2A823E3745EE73FF62BA1EFA63A1B770CD0BD3568495ADC9CDF11C858684D SWAP1 PUSH1 0x80 ADD PUSH1 0x40 MLOAD DUP1 SWAP2 SUB SWAP1 LOG1 POP POP POP POP POP POP POP POP POP POP JUMP JUMPDEST PUSH1 0x0 PUSH2 0xE13 DUP2 CALLER PUSH2 0x2F60 JUMP JUMPDEST DUP2 CALLDATALOAD PUSH1 0x5 SWAP1 DUP2 SSTORE PUSH1 0x20 DUP4 ADD CALLDATALOAD PUSH1 0x6 SSTORE PUSH1 0x40 DUP4 ADD CALLDATALOAD PUSH1 0x7 SSTORE PUSH1 0x60 DUP4 ADD CALLDATALOAD PUSH1 0x8 SSTORE PUSH1 0x80 DUP4 ADD CALLDATALOAD PUSH1 0x9 SSTORE PUSH1 0xA0 DUP4 ADD CALLDATALOAD PUSH1 0xA SSTORE PUSH1 0xC0 DUP4 ADD CALLDATALOAD PUSH1 0xB SSTORE PUSH1 0xE0 DUP4 ADD CALLDATALOAD PUSH1 0xC SSTORE DUP3 SWAP1 POP POP PUSH1 0x40 DUP1 MLOAD DUP4 CALLDATALOAD DUP2 MSTORE PUSH1 0x20 DUP1 DUP6 ADD CALLDATALOAD SWAP1 DUP3 ADD MSTORE DUP2 DUP5 ADD CALLDATALOAD SWAP2 DUP2 ADD SWAP2 SWAP1 SWAP2 MSTORE PUSH1 0x60 DUP1 DUP5 ADD CALLDATALOAD SWAP1 DUP3 ADD MSTORE PUSH1 0x80 DUP1 DUP5 ADD CALLDATALOAD SWAP1 DUP3 ADD MSTORE PUSH1 0xA0 DUP1 DUP5 ADD CALLDATALOAD SWAP1 DUP3 ADD MSTORE PUSH1 0xC0 DUP1 DUP5 ADD CALLDATALOAD SWAP1 DUP3 ADD MSTORE PUSH1 0xE0 DUP1 DUP5 ADD CALLDATALOAD SWAP1 DUP3 ADD MSTORE PUSH32 0xE32288882B122AA895E6EF550FC65B0439C341D34BE5F1DB849BB4F4E4E96F9E SWAP1 PUSH2 0x100 ADD PUSH1 0x40 MLOAD DUP1 SWAP2 SUB SWAP1 LOG1 POP POP JUMP JUMPDEST PUSH1 0xD SLOAD PUSH1 0x40 MLOAD PUSH4 0x6FB1A07 PUSH1 0xE0 SHL DUP2 MSTORE PUSH1 0x3 PUSH1 0x4 DUP3 ADD MSTORE PUSH1 0x0 SWAP2 DUP3 SWAP2 PUSH1 0x1 PUSH1 0x1 PUSH1 0xA0 SHL SUB SWAP1 SWAP2 AND SWAP1 PUSH4 0x6FB1A07 SWAP1 PUSH1 0x24 ADD PUSH1 0x20 PUSH1 0x40 MLOAD DUP1 DUP4 SUB DUP2 DUP7 DUP1 EXTCODESIZE ISZERO DUP1 ISZERO PUSH2 0xF20 JUMPI PUSH1 0x0 DUP1 REVERT JUMPDEST POP GAS STATICCALL ISZERO DUP1 ISZERO PUSH2 0xF34 JUMPI RETURNDATASIZE PUSH1 0x0 DUP1 RETURNDATACOPY RETURNDATASIZE PUSH1 0x0 REVERT JUMPDEST POP POP POP POP PUSH1 0x40 MLOAD RETURNDATASIZE PUSH1 0x1F NOT PUSH1 0x1F DUP3 ADD AND DUP3 ADD DUP1 PUSH1 0x40 MSTORE POP DUP2 ADD SWAP1 PUSH2 0xF58 SWAP2 SWAP1 PUSH2 0x38ED JUMP JUMPDEST PUSH1 0x40 MLOAD PUSH4 0xEAA8F7E3 PUSH1 0xE0 SHL DUP2 MSTORE CALLER PUSH1 0x4 DUP3 ADD MSTORE SWAP1 SWAP2 POP PUSH1 0x1 PUSH1 0x1 PUSH1 0xA0 SHL SUB DUP3 AND SWAP1 PUSH4 0xEAA8F7E3 SWAP1 PUSH1 0x24 ADD PUSH1 0x20 PUSH1 0x40 MLOAD DUP1 DUP4 SUB DUP2 DUP7 DUP1 EXTCODESIZE ISZERO DUP1 ISZERO PUSH2 0xF9A JUMPI PUSH1 0x0 DUP1 REVERT JUMPDEST POP GAS STATICCALL ISZERO DUP1 ISZERO PUSH2 0xFAE JUMPI RETURNDATASIZE PUSH1 0x0 DUP1 RETURNDATACOPY RETURNDATASIZE PUSH1 0x0 REVERT JUMPDEST POP POP POP POP PUSH1 0x40 MLOAD RETURNDATASIZE PUSH1 0x1F NOT PUSH1 0x1F DUP3 ADD AND DUP3 ADD DUP1 PUSH1 0x40 MSTORE POP DUP2 ADD SWAP1 PUSH2 0xFD2 SWAP2 SWAP1 PUSH2 0x390A JUMP JUMPDEST ISZERO PUSH2 0xFEF JUMPI PUSH1 0x40 MLOAD PUSH3 0x461BCD PUSH1 0xE5 SHL DUP2 MSTORE PUSH1 0x4 ADD PUSH2 0x76E SWAP1 PUSH2 0x392C JUMP JUMPDEST DUP3 MLOAD PUSH2 0x1051 JUMPI PUSH1 0x40 MLOAD PUSH3 0x461BCD PUSH1 0xE5 SHL DUP2 MSTORE PUSH1 0x20 PUSH1 0x4 DUP3 ADD MSTORE PUSH1 0x2B PUSH1 0x24 DUP3 ADD MSTORE PUSH32 0x53533A205374616B6564416D6F756E742068617320746F206265206C61726765 PUSH1 0x44 DUP3 ADD MSTORE PUSH11 0x72207468616E207A65726F PUSH1 0xA8 SHL PUSH1 0x64 DUP3 ADD MSTORE PUSH1 0x84 ADD PUSH2 0x76E JUMP JUMPDEST PUSH1 0xD SLOAD PUSH1 0x40 MLOAD PUSH4 0x70A08231 PUSH1 0xE0 SHL DUP2 MSTORE CALLER PUSH1 0x4 DUP3 ADD MSTORE PUSH1 0x1 PUSH1 0x1 PUSH1 0xA0 SHL SUB SWAP1 SWAP2 AND SWAP1 PUSH4 0x70A08231 SWAP1 PUSH1 0x24 ADD PUSH1 0x20 PUSH1 0x40 MLOAD DUP1 DUP4 SUB DUP2 DUP7 DUP1 EXTCODESIZE ISZERO DUP1 ISZERO PUSH2 0x1094 JUMPI PUSH1 0x0 DUP1 REVERT JUMPDEST POP GAS STATICCALL ISZERO DUP1 ISZERO PUSH2 0x10A8 JUMPI RETURNDATASIZE PUSH1 0x0 DUP1 RETURNDATACOPY RETURNDATASIZE PUSH1 0x0 REVERT JUMPDEST POP POP POP POP PUSH1 0x40 MLOAD RETURNDATASIZE PUSH1 0x1F NOT PUSH1 0x1F DUP3 ADD AND DUP3 ADD DUP1 PUSH1 0x40 MSTORE POP DUP2 ADD SWAP1 PUSH2 0x10CC SWAP2 SWAP1 PUSH2 0x3A80 JUMP JUMPDEST DUP4 MLOAD GT ISZERO PUSH2 0x111C JUMPI PUSH1 0x40 MLOAD PUSH3 0x461BCD PUSH1 0xE5 SHL DUP2 MSTORE PUSH1 0x20 PUSH1 0x4 DUP3 ADD DUP2 SWAP1 MSTORE PUSH1 0x24 DUP3 ADD MSTORE PUSH32 0x53533A205374616B6564416D6F756E7420657863656564732062616C616E6365 PUSH1 0x44 DUP3 ADD MSTORE PUSH1 0x64 ADD PUSH2 0x76E JUMP JUMPDEST PUSH1 0xB SLOAD PUSH1 0x20 DUP5 ADD MLOAD LT ISZERO PUSH2 0x118A JUMPI PUSH1 0x40 MLOAD PUSH3 0x461BCD PUSH1 0xE5 SHL DUP2 MSTORE PUSH1 0x20 PUSH1 0x4 DUP3 ADD MSTORE PUSH1 0x2F PUSH1 0x24 DUP3 ADD MSTORE PUSH32 0x53533A205374616B65206D757374206265206C6F636B656420666F72206D6F72 PUSH1 0x44 DUP3 ADD MSTORE PUSH15 0x65207468616E206D696E2064617973 PUSH1 0x88 SHL PUSH1 0x64 DUP3 ADD MSTORE PUSH1 0x84 ADD PUSH2 0x76E JUMP JUMPDEST PUSH1 0xC SLOAD PUSH1 0x20 DUP5 ADD MLOAD GT ISZERO PUSH2 0x11F9 JUMPI PUSH1 0x40 MLOAD PUSH3 0x461BCD PUSH1 0xE5 SHL DUP2 MSTORE PUSH1 0x20 PUSH1 0x4 DUP3 ADD MSTORE PUSH1 0x30 PUSH1 0x24 DUP3 ADD MSTORE PUSH32 0x53533A205374616B65206D757374206265206C6F636B656420666F72206C6573 PUSH1 0x44 DUP3 ADD MSTORE PUSH16 0x73207468616E206D6178207965617273 PUSH1 0x80 SHL PUSH1 0x64 DUP3 ADD MSTORE PUSH1 0x84 ADD PUSH2 0x76E JUMP JUMPDEST PUSH2 0x1201 PUSH2 0x2DB1 JUMP JUMPDEST PUSH1 0xD SLOAD DUP4 MLOAD PUSH1 0x40 MLOAD PUSH4 0x4E7F975D PUSH1 0xE1 SHL DUP2 MSTORE CALLER PUSH1 0x4 DUP3 ADD MSTORE ADDRESS PUSH1 0x24 DUP3 ADD MSTORE PUSH1 0x44 DUP2 ADD SWAP2 SWAP1 SWAP2 MSTORE PUSH1 0x1 PUSH1 0x1 PUSH1 0xA0 SHL SUB SWAP1 SWAP2 AND SWAP1 PUSH4 0x9CFF2EBA SWAP1 PUSH1 0x64 ADD PUSH1 0x0 PUSH1 0x40 MLOAD DUP1 DUP4 SUB DUP2 PUSH1 0x0 DUP8 DUP1 EXTCODESIZE ISZERO DUP1 ISZERO PUSH2 0x1256 JUMPI PUSH1 0x0 DUP1 REVERT JUMPDEST POP GAS CALL ISZERO DUP1 ISZERO PUSH2 0x126A JUMPI RETURNDATASIZE PUSH1 0x0 DUP1 RETURNDATACOPY RETURNDATASIZE PUSH1 0x0 REVERT JUMPDEST POP POP POP POP PUSH1 0x0 PUSH2 0x1278 PUSH2 0x2E57 JUMP JUMPDEST SWAP1 POP PUSH1 0x0 PUSH1 0x40 MLOAD DUP1 PUSH1 0xC0 ADD PUSH1 0x40 MSTORE DUP1 CALLER PUSH1 0x1 PUSH1 0x1 PUSH1 0xA0 SHL SUB AND DUP2 MSTORE PUSH1 0x20 ADD DUP7 PUSH1 0x0 ADD MLOAD DUP2 MSTORE PUSH1 0x20 ADD DUP4 DUP2 MSTORE PUSH1 0x20 ADD DUP7 PUSH1 0x20 ADD MLOAD DUP2 MSTORE PUSH1 0x20 ADD PUSH1 0x0 DUP2 MSTORE PUSH1 0x20 ADD PUSH1 0x0 DUP2 MSTORE POP SWAP1 POP PUSH2 0x12C9 DUP2 PUSH1 0x0 PUSH2 0x18B8 JUMP JUMPDEST PUSH1 0xA0 DUP3 ADD SWAP1 DUP2 MSTORE PUSH1 0x4 DUP1 SLOAD PUSH1 0x1 DUP1 DUP3 ADD DUP4 SSTORE PUSH1 0x0 DUP4 SWAP1 MSTORE DUP5 MLOAD PUSH32 0x8A35ACFBC15FF81A39AE7D344FD709F28E8600B4AA8C65C6B64BFE7FE36BD19B PUSH1 0x6 SWAP1 SWAP4 MUL SWAP3 DUP4 ADD DUP1 SLOAD PUSH1 0x1 PUSH1 0x1 PUSH1 0xA0 SHL SUB NOT AND PUSH1 0x1 PUSH1 0x1 PUSH1 0xA0 SHL SUB SWAP1 SWAP3 AND SWAP2 SWAP1 SWAP2 OR SWAP1 SSTORE PUSH1 0x20 DUP6 ADD MLOAD PUSH32 0x8A35ACFBC15FF81A39AE7D344FD709F28E8600B4AA8C65C6B64BFE7FE36BD19C DUP4 ADD SSTORE PUSH1 0x40 DUP6 ADD MLOAD PUSH32 0x8A35ACFBC15FF81A39AE7D344FD709F28E8600B4AA8C65C6B64BFE7FE36BD19D DUP4 ADD SSTORE PUSH1 0x60 DUP6 ADD MLOAD PUSH32 0x8A35ACFBC15FF81A39AE7D344FD709F28E8600B4AA8C65C6B64BFE7FE36BD19E DUP4 ADD SSTORE PUSH1 0x80 DUP6 ADD MLOAD PUSH32 0x8A35ACFBC15FF81A39AE7D344FD709F28E8600B4AA8C65C6B64BFE7FE36BD19F DUP4 ADD SSTORE SWAP3 MLOAD PUSH32 0x8A35ACFBC15FF81A39AE7D344FD709F28E8600B4AA8C65C6B64BFE7FE36BD1A0 SWAP1 SWAP2 ADD SSTORE SLOAD PUSH2 0x13FE SWAP2 SWAP1 PUSH2 0x3A20 JUMP JUMPDEST SWAP4 POP DUP1 PUSH1 0xA0 ADD MLOAD PUSH1 0x2 DUP4 DUP2 SLOAD DUP2 LT PUSH2 0x1418 JUMPI PUSH2 0x1418 PUSH2 0x3889 JUMP JUMPDEST SWAP1 PUSH1 0x0 MSTORE PUSH1 0x20 PUSH1 0x0 KECCAK256 SWAP1 PUSH1 0x3 MUL ADD PUSH1 0x1 ADD PUSH1 0x0 DUP3 DUP3 SLOAD PUSH2 0x1438 SWAP2 SWAP1 PUSH2 0x3A08 JUMP JUMPDEST SWAP1 SWAP2 SSTORE POP POP DUP1 MLOAD PUSH1 0x20 DUP1 DUP4 ADD MLOAD PUSH1 0x40 DUP1 DUP6 ADD MLOAD PUSH1 0x60 DUP1 DUP8 ADD MLOAD PUSH1 0xA0 DUP1 DUP10 ADD MLOAD DUP6 MLOAD DUP14 DUP2 MSTORE PUSH1 0x1 PUSH1 0x1 PUSH1 0xA0 SHL SUB SWAP1 SWAP10 AND SWAP8 DUP10 ADD SWAP8 SWAP1 SWAP8 MSTORE SWAP4 DUP8 ADD SWAP5 SWAP1 SWAP5 MSTORE DUP6 ADD MSTORE PUSH1 0x80 DUP5 ADD SWAP2 SWAP1 SWAP2 MSTORE DUP3 ADD MSTORE PUSH32 0xB3B7BD78C90933EE8B729DA4592FA8FF3FCAAD310E548C299CC82DE3B4FF09BA SWAP1 PUSH1 0xC0 ADD PUSH1 0x40 MLOAD DUP1 SWAP2 SUB SWAP1 LOG1 POP POP POP SWAP2 SWAP1 POP JUMP JUMPDEST PUSH1 0x0 JUMPDEST DUP2 DUP2 LT ISZERO PUSH2 0x1501 JUMPI PUSH2 0x14EE DUP4 DUP4 DUP4 DUP2 DUP2 LT PUSH2 0x14D8 JUMPI PUSH2 0x14D8 PUSH2 0x3889 JUMP JUMPDEST SWAP1 POP PUSH1 0x40 MUL ADD DUP1 CALLDATASIZE SUB DUP2 ADD SWAP1 PUSH2 0x2B3 SWAP2 SWAP1 PUSH2 0x35A7 JUMP JUMPDEST POP DUP1 PUSH2 0x14F9 DUP2 PUSH2 0x38D2 JUMP JUMPDEST SWAP2 POP POP PUSH2 0x14BB JUMP JUMPDEST POP POP POP JUMP JUMPDEST PUSH1 0x3 DUP2 DUP2 SLOAD DUP2 LT PUSH2 0x1516 JUMPI PUSH1 0x0 DUP1 REVERT JUMPDEST PUSH1 0x0 SWAP2 DUP3 MSTORE PUSH1 0x20 SWAP1 SWAP2 KECCAK256 ADD SLOAD SWAP1 POP DUP2 JUMP JUMPDEST PUSH1 0xD SLOAD PUSH1 0x40 MLOAD PUSH4 0x6FB1A07 PUSH1 0xE0 SHL DUP2 MSTORE PUSH1 0x3 PUSH1 0x4 DUP3 ADD MSTORE PUSH1 0x0 SWAP2 PUSH1 0x1 PUSH1 0x1 PUSH1 0xA0 SHL SUB AND SWAP1 PUSH4 0x6FB1A07 SWAP1 PUSH1 0x24 ADD PUSH1 0x20 PUSH1 0x40 MLOAD DUP1 DUP4 SUB DUP2 DUP7 DUP1 EXTCODESIZE ISZERO DUP1 ISZERO PUSH2 0x156C JUMPI PUSH1 0x0 DUP1 REVERT JUMPDEST POP GAS STATICCALL ISZERO DUP1 ISZERO PUSH2 0x1580 JUMPI RETURNDATASIZE PUSH1 0x0 DUP1 RETURNDATACOPY RETURNDATASIZE PUSH1 0x0 REVERT JUMPDEST POP POP POP POP PUSH1 0x40 MLOAD RETURNDATASIZE PUSH1 0x1F NOT PUSH1 0x1F DUP3 ADD AND DUP3 ADD DUP1 PUSH1 0x40 MSTORE POP DUP2 ADD SWAP1 PUSH2 0x15A4 SWAP2 SWAP1 PUSH2 0x38ED JUMP JUMPDEST PUSH1 0x40 MLOAD PUSH4 0xEAA8F7E3 PUSH1 0xE0 SHL DUP2 MSTORE CALLER PUSH1 0x4 DUP3 ADD MSTORE SWAP1 SWAP2 POP PUSH1 0x1 PUSH1 0x1 PUSH1 0xA0 SHL SUB DUP3 AND SWAP1 PUSH4 0xEAA8F7E3 SWAP1 PUSH1 0x24 ADD PUSH1 0x20 PUSH1 0x40 MLOAD DUP1 DUP4 SUB DUP2 DUP7 DUP1 EXTCODESIZE ISZERO DUP1 ISZERO PUSH2 0x15E6 JUMPI PUSH1 0x0 DUP1 REVERT JUMPDEST POP GAS STATICCALL ISZERO DUP1 ISZERO PUSH2 0x15FA JUMPI RETURNDATASIZE PUSH1 0x0 DUP1 RETURNDATACOPY RETURNDATASIZE PUSH1 0x0 REVERT JUMPDEST POP POP POP POP PUSH1 0x40 MLOAD RETURNDATASIZE PUSH1 0x1F NOT PUSH1 0x1F DUP3 ADD AND DUP3 ADD DUP1 PUSH1 0x40 MSTORE POP DUP2 ADD SWAP1 PUSH2 0x161E SWAP2 SWAP1 PUSH2 0x390A JUMP JUMPDEST ISZERO PUSH2 0x163B JUMPI PUSH1 0x40 MLOAD PUSH3 0x461BCD PUSH1 0xE5 SHL DUP2 MSTORE PUSH1 0x4 ADD PUSH2 0x76E SWAP1 PUSH2 0x392C JUMP JUMPDEST DUP3 PUSH1 0x4 DUP2 DUP2 SLOAD DUP2 LT PUSH2 0x164F JUMPI PUSH2 0x164F PUSH2 0x3889 JUMP JUMPDEST PUSH1 0x0 SWAP2 DUP3 MSTORE PUSH1 0x20 SWAP1 SWAP2 KECCAK256 PUSH1 0x6 SWAP1 SWAP2 MUL ADD SLOAD PUSH1 0x1 PUSH1 0x1 PUSH1 0xA0 SHL SUB AND CALLER EQ PUSH2 0x1687 JUMPI PUSH1 0x40 MLOAD PUSH3 0x461BCD PUSH1 0xE5 SHL DUP2 MSTORE PUSH1 0x4 ADD PUSH2 0x76E SWAP1 PUSH2 0x3963 JUMP JUMPDEST PUSH1 0x4 SLOAD DUP5 SWAP1 DUP2 LT PUSH2 0x16AA JUMPI PUSH1 0x40 MLOAD PUSH3 0x461BCD PUSH1 0xE5 SHL DUP2 MSTORE PUSH1 0x4 ADD PUSH2 0x76E SWAP1 PUSH2 0x399A JUMP JUMPDEST DUP5 PUSH1 0x4 DUP2 DUP2 SLOAD DUP2 LT PUSH2 0x16BE JUMPI PUSH2 0x16BE PUSH2 0x3889 JUMP JUMPDEST SWAP1 PUSH1 0x0 MSTORE PUSH1 0x20 PUSH1 0x0 KECCAK256 SWAP1 PUSH1 0x6 MUL ADD PUSH1 0x4 ADD SLOAD PUSH1 0x0 EQ PUSH2 0x16EF JUMPI PUSH1 0x40 MLOAD PUSH3 0x461BCD PUSH1 0xE5 SHL DUP2 MSTORE PUSH1 0x4 ADD PUSH2 0x76E SWAP1 PUSH2 0x39D1 JUMP JUMPDEST DUP5 PUSH1 0x1 PUSH1 0x1 PUSH1 0xA0 SHL SUB AND PUSH1 0x4 DUP8 DUP2 SLOAD DUP2 LT PUSH2 0x170C JUMPI PUSH2 0x170C PUSH2 0x3889 JUMP JUMPDEST PUSH1 0x0 SWAP2 DUP3 MSTORE PUSH1 0x20 SWAP1 SWAP2 KECCAK256 PUSH1 0x6 SWAP1 SWAP2 MUL ADD SLOAD PUSH1 0x1 PUSH1 0x1 PUSH1 0xA0 SHL SUB AND EQ ISZERO PUSH2 0x178B JUMPI PUSH1 0x40 MLOAD PUSH3 0x461BCD PUSH1 0xE5 SHL DUP2 MSTORE PUSH1 0x20 PUSH1 0x4 DUP3 ADD MSTORE PUSH1 0x2E PUSH1 0x24 DUP3 ADD MSTORE PUSH32 0x53533A204E6577206F776E6572206D75737420626520646966666572656E7420 PUSH1 0x44 DUP3 ADD MSTORE PUSH14 0x333937B69037B6321037BBB732B9 PUSH1 0x91 SHL PUSH1 0x64 DUP3 ADD MSTORE PUSH1 0x84 ADD PUSH2 0x76E JUMP JUMPDEST PUSH2 0x1793 PUSH2 0x2DB1 JUMP JUMPDEST DUP5 PUSH1 0x4 DUP8 DUP2 SLOAD DUP2 LT PUSH2 0x17A7 JUMPI PUSH2 0x17A7 PUSH2 0x3889 JUMP JUMPDEST PUSH1 0x0 SWAP2 DUP3 MSTORE PUSH1 0x20 SWAP2 DUP3 SWAP1 KECCAK256 PUSH1 0x6 SWAP2 SWAP1 SWAP2 MUL ADD DUP1 SLOAD PUSH1 0x1 PUSH1 0x1 PUSH1 0xA0 SHL SUB NOT AND PUSH1 0x1 PUSH1 0x1 PUSH1 0xA0 SHL SUB SWAP4 DUP5 AND OR SWAP1 SSTORE PUSH1 0x40 DUP1 MLOAD DUP10 DUP2 MSTORE SWAP3 DUP9 AND SWAP2 DUP4 ADD SWAP2 SWAP1 SWAP2 MSTORE PUSH32 0x2CAD8E3E3A0926D0A7524BD52DDA355991EDB76A6B44EF43E75417996062AC7A SWAP2 ADD PUSH1 0x40 MLOAD DUP1 SWAP2 SUB SWAP1 LOG1 POP POP POP POP POP POP JUMP JUMPDEST PUSH1 0x0 JUMPDEST DUP2 DUP2 LT ISZERO PUSH2 0x1501 JUMPI PUSH2 0x1843 DUP4 DUP4 DUP4 DUP2 DUP2 LT PUSH2 0x1837 JUMPI PUSH2 0x1837 PUSH2 0x3889 JUMP JUMPDEST SWAP1 POP PUSH1 0x20 MUL ADD CALLDATALOAD PUSH2 0x65A JUMP JUMPDEST DUP1 PUSH2 0x184D DUP2 PUSH2 0x38D2 JUMP JUMPDEST SWAP2 POP POP PUSH2 0x181A JUMP JUMPDEST PUSH2 0x185F DUP3 DUP3 PUSH2 0x2FCE JUMP JUMPDEST PUSH1 0x0 DUP3 DUP2 MSTORE PUSH1 0x1 PUSH1 0x20 MSTORE PUSH1 0x40 SWAP1 KECCAK256 PUSH2 0x1501 SWAP1 DUP3 PUSH2 0x2F16 JUMP JUMPDEST PUSH2 0x1881 DUP3 DUP3 PUSH2 0x2FE4 JUMP JUMPDEST PUSH1 0x0 DUP3 DUP2 MSTORE PUSH1 0x1 PUSH1 0x20 MSTORE PUSH1 0x40 SWAP1 KECCAK256 PUSH2 0x1501 SWAP1 DUP3 PUSH2 0x305E JUMP JUMPDEST PUSH1 0x0 PUSH2 0x18B1 PUSH1 0x4 DUP5 DUP2 SLOAD DUP2 LT PUSH2 0xA4C JUMPI PUSH2 0xA4C PUSH2 0x3889 JUMP JUMPDEST SWAP4 SWAP3 POP POP POP JUMP JUMPDEST PUSH1 0x0 DUP1 DUP3 PUSH2 0x18CB JUMPI POP PUSH1 0x60 DUP4 ADD MLOAD PUSH2 0x18F7 JUMP JUMPDEST DUP4 PUSH1 0x40 ADD MLOAD DUP4 GT ISZERO PUSH2 0x18ED JUMPI PUSH1 0x40 DUP5 ADD MLOAD PUSH2 0x18E6 SWAP1 DUP5 PUSH2 0x3A20 JUMP JUMPDEST SWAP1 POP PUSH2 0x18F7 JUMP JUMPDEST PUSH1 0x0 SWAP2 POP POP PUSH2 0x5D7 JUMP JUMPDEST PUSH2 0x190D DUP2 PUSH2 0x1908 PUSH2 0x16D PUSH1 0xA PUSH2 0x3A37 JUMP JUMPDEST PUSH2 0x3073 JUMP JUMPDEST SWAP1 POP PUSH1 0x0 PUSH1 0x2 DUP6 PUSH1 0x40 ADD MLOAD DUP2 SLOAD DUP2 LT PUSH2 0x1928 JUMPI PUSH2 0x1928 PUSH2 0x3889 JUMP JUMPDEST SWAP1 PUSH1 0x0 MSTORE PUSH1 0x20 PUSH1 0x0 KECCAK256 SWAP1 PUSH1 0x3 MUL ADD PUSH1 0x2 ADD SLOAD PUSH8 0xDE0B6B3A7640000 DUP7 PUSH1 0x20 ADD MLOAD PUSH2 0x1952 SWAP2 SWAP1 PUSH2 0x3A37 JUMP JUMPDEST PUSH2 0x195C SWAP2 SWAP1 PUSH2 0x3A6C JUMP JUMPDEST SWAP1 POP PUSH1 0x0 PUSH1 0x2 DUP7 PUSH1 0x40 ADD MLOAD DUP2 SLOAD DUP2 LT PUSH2 0x1977 JUMPI PUSH2 0x1977 PUSH2 0x3889 JUMP JUMPDEST SWAP1 PUSH1 0x0 MSTORE PUSH1 0x20 PUSH1 0x0 KECCAK256 SWAP1 PUSH1 0x3 MUL ADD PUSH1 0x2 ADD SLOAD PUSH2 0x16D PUSH3 0xF4240 PUSH1 0xA PUSH2 0x199C SWAP2 SWAP1 PUSH2 0x3A37 JUMP JUMPDEST PUSH2 0x19A6 SWAP2 SWAP1 PUSH2 0x3A37 JUMP JUMPDEST PUSH2 0x19B0 SWAP2 SWAP1 PUSH2 0x3A37 JUMP JUMPDEST PUSH8 0xDE0B6B3A7640000 DUP8 PUSH1 0x20 ADD MLOAD DUP6 PUSH1 0x5 PUSH1 0x3 ADD SLOAD PUSH2 0x19CF SWAP2 SWAP1 PUSH2 0x3A37 JUMP JUMPDEST PUSH2 0x19D9 SWAP2 SWAP1 PUSH2 0x3A37 JUMP JUMPDEST PUSH2 0x19E3 SWAP2 SWAP1 PUSH2 0x3A37 JUMP JUMPDEST PUSH2 0x19ED SWAP2 SWAP1 PUSH2 0x3A6C JUMP JUMPDEST SWAP1 POP PUSH1 0x0 PUSH9 0x3635C9ADC5DEA00000 DUP8 PUSH1 0x20 ADD MLOAD GT PUSH2 0x1A1C JUMPI PUSH1 0x7 SLOAD PUSH2 0x1A15 SWAP1 PUSH3 0xF4240 PUSH2 0x3A08 JUMP JUMPDEST SWAP1 POP PUSH2 0x1AAA JUMP JUMPDEST DUP7 PUSH1 0x20 ADD MLOAD PUSH9 0x3635C9ADC5DEA00000 LT DUP1 ISZERO PUSH2 0x1A45 JUMPI POP PUSH10 0xD3C21BCECCEDA1000000 DUP8 PUSH1 0x20 ADD MLOAD LT JUMPDEST ISZERO PUSH2 0x1AA4 JUMPI PUSH2 0x1A67 PUSH9 0x3635C9ADC5DEA00000 PUSH10 0xD3C21BCECCEDA1000000 PUSH2 0x3A20 JUMP JUMPDEST PUSH1 0x20 DUP9 ADD MLOAD PUSH2 0x1A80 SWAP1 PUSH10 0xD3C21BCECCEDA1000000 PUSH2 0x3A20 JUMP JUMPDEST PUSH1 0x7 SLOAD PUSH2 0x1A8D SWAP2 SWAP1 PUSH2 0x3A37 JUMP JUMPDEST PUSH2 0x1A97 SWAP2 SWAP1 PUSH2 0x3A6C JUMP JUMPDEST PUSH2 0x1A15 SWAP1 PUSH3 0xF4240 PUSH2 0x3A08 JUMP JUMPDEST POP PUSH3 0xF4240 JUMPDEST PUSH1 0x0 PUSH3 0xF4240 DUP3 PUSH2 0x1ABB DUP6 DUP8 PUSH2 0x3A08 JUMP JUMPDEST PUSH2 0x1AC5 SWAP2 SWAP1 PUSH2 0x3A37 JUMP JUMPDEST PUSH2 0x1ACF SWAP2 SWAP1 PUSH2 0x3A6C JUMP JUMPDEST SWAP9 SWAP8 POP POP POP POP POP POP POP POP JUMP JUMPDEST PUSH1 0x0 JUMPDEST DUP2 DUP2 LT ISZERO PUSH2 0x1501 JUMPI PUSH2 0x1B07 DUP4 DUP4 DUP4 DUP2 DUP2 LT PUSH2 0x1AFB JUMPI PUSH2 0x1AFB PUSH2 0x3889 JUMP JUMPDEST SWAP1 POP PUSH1 0x20 MUL ADD CALLDATALOAD PUSH2 0x1B19 JUMP JUMPDEST DUP1 PUSH2 0x1B11 DUP2 PUSH2 0x38D2 JUMP JUMPDEST SWAP2 POP POP PUSH2 0x1ADE JUMP JUMPDEST PUSH1 0xD SLOAD PUSH1 0x40 MLOAD PUSH4 0x6FB1A07 PUSH1 0xE0 SHL DUP2 MSTORE PUSH1 0x3 PUSH1 0x4 DUP3 ADD MSTORE PUSH1 0x0 SWAP2 PUSH1 0x1 PUSH1 0x1 PUSH1 0xA0 SHL SUB AND SWAP1 PUSH4 0x6FB1A07 SWAP1 PUSH1 0x24 ADD PUSH1 0x20 PUSH1 0x40 MLOAD DUP1 DUP4 SUB DUP2 DUP7 DUP1 EXTCODESIZE ISZERO DUP1 ISZERO PUSH2 0x1B5E JUMPI PUSH1 0x0 DUP1 REVERT JUMPDEST POP GAS STATICCALL ISZERO DUP1 ISZERO PUSH2 0x1B72 JUMPI RETURNDATASIZE PUSH1 0x0 DUP1 RETURNDATACOPY RETURNDATASIZE PUSH1 0x0 REVERT JUMPDEST POP POP POP POP PUSH1 0x40 MLOAD RETURNDATASIZE PUSH1 0x1F NOT PUSH1 0x1F DUP3 ADD AND DUP3 ADD DUP1 PUSH1 0x40 MSTORE POP DUP2 ADD SWAP1 PUSH2 0x1B96 SWAP2 SWAP1 PUSH2 0x38ED JUMP JUMPDEST PUSH1 0x40 MLOAD PUSH4 0xEAA8F7E3 PUSH1 0xE0 SHL DUP2 MSTORE CALLER PUSH1 0x4 DUP3 ADD MSTORE SWAP1 SWAP2 POP PUSH1 0x1 PUSH1 0x1 PUSH1 0xA0 SHL SUB DUP3 AND SWAP1 PUSH4 0xEAA8F7E3 SWAP1 PUSH1 0x24 ADD PUSH1 0x20 PUSH1 0x40 MLOAD DUP1 DUP4 SUB DUP2 DUP7 DUP1 EXTCODESIZE ISZERO DUP1 ISZERO PUSH2 0x1BD8 JUMPI PUSH1 0x0 DUP1 REVERT JUMPDEST POP GAS STATICCALL ISZERO DUP1 ISZERO PUSH2 0x1BEC JUMPI RETURNDATASIZE PUSH1 0x0 DUP1 RETURNDATACOPY RETURNDATASIZE PUSH1 0x0 REVERT JUMPDEST POP POP POP POP PUSH1 0x40 MLOAD RETURNDATASIZE PUSH1 0x1F NOT PUSH1 0x1F DUP3 ADD AND DUP3 ADD DUP1 PUSH1 0x40 MSTORE POP DUP2 ADD SWAP1 PUSH2 0x1C10 SWAP2 SWAP1 PUSH2 0x390A JUMP JUMPDEST ISZERO PUSH2 0x1C2D JUMPI PUSH1 0x40 MLOAD PUSH3 0x461BCD PUSH1 0xE5 SHL DUP2 MSTORE PUSH1 0x4 ADD PUSH2 0x76E SWAP1 PUSH2 0x392C JUMP JUMPDEST DUP2 PUSH1 0x4 DUP2 DUP2 SLOAD DUP2 LT PUSH2 0x1C41 JUMPI PUSH2 0x1C41 PUSH2 0x3889 JUMP JUMPDEST PUSH1 0x0 SWAP2 DUP3 MSTORE PUSH1 0x20 SWAP1 SWAP2 KECCAK256 PUSH1 0x6 SWAP1 SWAP2 MUL ADD SLOAD PUSH1 0x1 PUSH1 0x1 PUSH1 0xA0 SHL SUB AND CALLER EQ PUSH2 0x1C79 JUMPI PUSH1 0x40 MLOAD PUSH3 0x461BCD PUSH1 0xE5 SHL DUP2 MSTORE PUSH1 0x4 ADD PUSH2 0x76E SWAP1 PUSH2 0x3963 JUMP JUMPDEST PUSH1 0x4 SLOAD DUP4 SWAP1 DUP2 LT PUSH2 0x1C9C JUMPI PUSH1 0x40 MLOAD PUSH3 0x461BCD PUSH1 0xE5 SHL DUP2 MSTORE PUSH1 0x4 ADD PUSH2 0x76E SWAP1 PUSH2 0x399A JUMP JUMPDEST DUP4 PUSH1 0x4 DUP2 DUP2 SLOAD DUP2 LT PUSH2 0x1CB0 JUMPI PUSH2 0x1CB0 PUSH2 0x3889 JUMP JUMPDEST SWAP1 PUSH1 0x0 MSTORE PUSH1 0x20 PUSH1 0x0 KECCAK256 SWAP1 PUSH1 0x6 MUL ADD PUSH1 0x4 ADD SLOAD PUSH1 0x0 EQ PUSH2 0x1CE1 JUMPI PUSH1 0x40 MLOAD PUSH3 0x461BCD PUSH1 0xE5 SHL DUP2 MSTORE PUSH1 0x4 ADD PUSH2 0x76E SWAP1 PUSH2 0x39D1 JUMP JUMPDEST PUSH2 0x1CE9 PUSH2 0x2DB1 JUMP JUMPDEST PUSH1 0x0 PUSH2 0x1CF3 PUSH2 0x2E57 JUMP JUMPDEST SWAP1 POP PUSH1 0x4 DUP7 DUP2 SLOAD DUP2 LT PUSH2 0x1D08 JUMPI PUSH2 0x1D08 PUSH2 0x3889 JUMP JUMPDEST SWAP1 PUSH1 0x0 MSTORE PUSH1 0x20 PUSH1 0x0 KECCAK256 SWAP1 PUSH1 0x6 MUL ADD PUSH1 0x2 ADD SLOAD DUP2 GT PUSH2 0x1D78 JUMPI PUSH1 0x40 MLOAD PUSH3 0x461BCD PUSH1 0xE5 SHL DUP2 MSTORE PUSH1 0x20 PUSH1 0x4 DUP3 ADD MSTORE PUSH1 0x27 PUSH1 0x24 DUP3 ADD MSTORE PUSH32 0x53533A205363726170696E6720697320617661696C61626C65206F6E63652069 PUSH1 0x44 DUP3 ADD MSTORE PUSH7 0x6E203120646179 PUSH1 0xC8 SHL PUSH1 0x64 DUP3 ADD MSTORE PUSH1 0x84 ADD PUSH2 0x76E JUMP JUMPDEST PUSH1 0x4 DUP7 DUP2 SLOAD DUP2 LT PUSH2 0x1D8B JUMPI PUSH2 0x1D8B PUSH2 0x3889 JUMP JUMPDEST SWAP1 PUSH1 0x0 MSTORE PUSH1 0x20 PUSH1 0x0 KECCAK256 SWAP1 PUSH1 0x6 MUL ADD PUSH1 0x3 ADD SLOAD PUSH1 0x4 DUP8 DUP2 SLOAD DUP2 LT PUSH2 0x1DB0 JUMPI PUSH2 0x1DB0 PUSH2 0x3889 JUMP JUMPDEST SWAP1 PUSH1 0x0 MSTORE PUSH1 0x20 PUSH1 0x0 KECCAK256 SWAP1 PUSH1 0x6 MUL ADD PUSH1 0x2 ADD SLOAD PUSH2 0x1DCC SWAP2 SWAP1 PUSH2 0x3A08 JUMP JUMPDEST DUP2 LT PUSH2 0x1E42 JUMPI PUSH1 0x40 DUP1 MLOAD PUSH3 0x461BCD PUSH1 0xE5 SHL DUP2 MSTORE PUSH1 0x20 PUSH1 0x4 DUP3 ADD MSTORE PUSH1 0x24 DUP2 ADD SWAP2 SWAP1 SWAP2 MSTORE PUSH32 0x53533A205363726170696E6720697320617661696C61626C65206F6E63652077 PUSH1 0x44 DUP3 ADD MSTORE PUSH32 0x68696C65207374616B6520697320496E2050726F677265737320737461747573 PUSH1 0x64 DUP3 ADD MSTORE PUSH1 0x84 ADD PUSH2 0x76E JUMP JUMPDEST PUSH1 0x0 PUSH1 0x4 DUP8 DUP2 SLOAD DUP2 LT PUSH2 0x1E57 JUMPI PUSH2 0x1E57 PUSH2 0x3889 JUMP JUMPDEST SWAP1 PUSH1 0x0 MSTORE PUSH1 0x20 PUSH1 0x0 KECCAK256 SWAP1 PUSH1 0x6 MUL ADD PUSH1 0x3 ADD SLOAD SWAP1 POP PUSH1 0x0 PUSH1 0x4 DUP9 DUP2 SLOAD DUP2 LT PUSH2 0x1E80 JUMPI PUSH2 0x1E80 PUSH2 0x3889 JUMP JUMPDEST SWAP1 PUSH1 0x0 MSTORE PUSH1 0x20 PUSH1 0x0 KECCAK256 SWAP1 PUSH1 0x6 MUL ADD PUSH1 0x5 ADD SLOAD SWAP1 POP PUSH1 0x4 DUP9 DUP2 SLOAD DUP2 LT PUSH2 0x1EA7 JUMPI PUSH2 0x1EA7 PUSH2 0x3889 JUMP JUMPDEST SWAP1 PUSH1 0x0 MSTORE PUSH1 0x20 PUSH1 0x0 KECCAK256 SWAP1 PUSH1 0x6 MUL ADD PUSH1 0x2 ADD SLOAD DUP4 PUSH2 0x1EC4 SWAP2 SWAP1 PUSH2 0x3A20 JUMP JUMPDEST PUSH1 0x4 DUP10 DUP2 SLOAD DUP2 LT PUSH2 0x1ED7 JUMPI PUSH2 0x1ED7 PUSH2 0x3889 JUMP JUMPDEST SWAP1 PUSH1 0x0 MSTORE PUSH1 0x20 PUSH1 0x0 KECCAK256 SWAP1 PUSH1 0x6 MUL ADD PUSH1 0x3 ADD DUP2 SWAP1 SSTORE POP PUSH1 0x0 PUSH2 0x1F65 PUSH1 0x4 DUP11 DUP2 SLOAD DUP2 LT PUSH2 0x1F04 JUMPI PUSH2 0x1F04 PUSH2 0x3889 JUMP JUMPDEST PUSH1 0x0 SWAP2 DUP3 MSTORE PUSH1 0x20 DUP1 DUP4 KECCAK256 PUSH1 0x40 DUP1 MLOAD PUSH1 0xC0 DUP2 ADD DUP3 MSTORE PUSH1 0x6 SWAP1 SWAP5 MUL SWAP1 SWAP2 ADD DUP1 SLOAD PUSH1 0x1 PUSH1 0x1 PUSH1 0xA0 SHL SUB AND DUP5 MSTORE PUSH1 0x1 DUP2 ADD SLOAD SWAP3 DUP5 ADD SWAP3 SWAP1 SWAP3 MSTORE PUSH1 0x2 DUP3 ADD SLOAD SWAP1 DUP4 ADD MSTORE PUSH1 0x3 DUP2 ADD SLOAD PUSH1 0x60 DUP4 ADD MSTORE PUSH1 0x4 DUP2 ADD SLOAD PUSH1 0x80 DUP4 ADD MSTORE PUSH1 0x5 ADD SLOAD PUSH1 0xA0 DUP3 ADD MSTORE SWAP1 PUSH2 0x18B8 JUMP JUMPDEST SWAP1 POP DUP1 DUP3 PUSH1 0x2 DUP7 DUP2 SLOAD DUP2 LT PUSH2 0x1F7C JUMPI PUSH2 0x1F7C PUSH2 0x3889 JUMP JUMPDEST SWAP1 PUSH1 0x0 MSTORE PUSH1 0x20 PUSH1 0x0 KECCAK256 SWAP1 PUSH1 0x3 MUL ADD PUSH1 0x1 ADD SLOAD PUSH2 0x1F98 SWAP2 SWAP1 PUSH2 0x3A20 JUMP JUMPDEST PUSH2 0x1FA2 SWAP2 SWAP1 PUSH2 0x3A08 JUMP JUMPDEST PUSH1 0x2 DUP6 DUP2 SLOAD DUP2 LT PUSH2 0x1FB5 JUMPI PUSH2 0x1FB5 PUSH2 0x3889 JUMP JUMPDEST SWAP1 PUSH1 0x0 MSTORE PUSH1 0x20 PUSH1 0x0 KECCAK256 SWAP1 PUSH1 0x3 MUL ADD PUSH1 0x1 ADD DUP2 SWAP1 SSTORE POP DUP1 PUSH1 0x4 DUP11 DUP2 SLOAD DUP2 LT PUSH2 0x1FDE JUMPI PUSH2 0x1FDE PUSH2 0x3889 JUMP JUMPDEST SWAP1 PUSH1 0x0 MSTORE PUSH1 0x20 PUSH1 0x0 KECCAK256 SWAP1 PUSH1 0x6 MUL ADD PUSH1 0x5 ADD DUP2 SWAP1 SSTORE POP PUSH32 0x3E2D801CABF80E21F37737B105FEEDEF59585176AE82A611B6239E59FCCAAEA2 DUP10 PUSH1 0x4 DUP12 DUP2 SLOAD DUP2 LT PUSH2 0x2028 JUMPI PUSH2 0x2028 PUSH2 0x3889 JUMP JUMPDEST PUSH1 0x0 SWAP2 DUP3 MSTORE PUSH1 0x20 SWAP2 DUP3 SWAP1 KECCAK256 PUSH1 0x3 PUSH1 0x6 SWAP1 SWAP3 MUL ADD ADD SLOAD PUSH1 0x40 DUP1 MLOAD SWAP4 DUP5 MSTORE SWAP2 DUP4 ADD MSTORE DUP2 ADD DUP4 SWAP1 MSTORE PUSH1 0x60 ADD PUSH1 0x40 MLOAD DUP1 SWAP2 SUB SWAP1 LOG1 PUSH2 0x2061 DUP10 PUSH2 0x65A JUMP JUMPDEST PUSH1 0x0 PUSH1 0x4 DUP11 DUP2 SLOAD DUP2 LT PUSH2 0x2076 JUMPI PUSH2 0x2076 PUSH2 0x3889 JUMP JUMPDEST SWAP1 PUSH1 0x0 MSTORE PUSH1 0x20 PUSH1 0x0 KECCAK256 SWAP1 PUSH1 0x6 MUL ADD PUSH1 0x3 ADD SLOAD DUP5 PUSH2 0x2093 SWAP2 SWAP1 PUSH2 0x3A20 JUMP JUMPDEST SWAP1 POP PUSH2 0x20D6 PUSH1 0x40 MLOAD DUP1 PUSH1 0x40 ADD PUSH1 0x40 MSTORE DUP1 PUSH1 0x4 DUP14 DUP2 SLOAD DUP2 LT PUSH2 0x20B6 JUMPI PUSH2 0x20B6 PUSH2 0x3889 JUMP JUMPDEST SWAP1 PUSH1 0x0 MSTORE PUSH1 0x20 PUSH1 0x0 KECCAK256 SWAP1 PUSH1 0x6 MUL ADD PUSH1 0x1 ADD SLOAD DUP2 MSTORE PUSH1 0x20 ADD DUP4 DUP2 MSTORE POP PUSH2 0xED7 JUMP JUMPDEST POP POP POP POP POP POP POP POP POP POP POP JUMP JUMPDEST PUSH1 0x0 PUSH2 0x20FB PUSH1 0x4 DUP6 DUP2 SLOAD DUP2 LT PUSH2 0xB36 JUMPI PUSH2 0xB36 PUSH2 0x3889 JUMP JUMPDEST SWAP5 SWAP4 POP POP POP POP JUMP JUMPDEST PUSH1 0x0 DUP3 DUP2 MSTORE PUSH1 0x1 PUSH1 0x20 MSTORE PUSH1 0x40 DUP2 KECCAK256 PUSH2 0x18B1 SWAP1 DUP4 PUSH2 0x308A JUMP JUMPDEST PUSH1 0x0 SWAP2 DUP3 MSTORE PUSH1 0x20 DUP3 DUP2 MSTORE PUSH1 0x40 DUP1 DUP5 KECCAK256 PUSH1 0x1 PUSH1 0x1 PUSH1 0xA0 SHL SUB SWAP4 SWAP1 SWAP4 AND DUP5 MSTORE SWAP2 SWAP1 MSTORE SWAP1 KECCAK256 SLOAD PUSH1 0xFF AND SWAP1 JUMP JUMPDEST PUSH1 0x0 PUSH2 0x2150 DUP2 CALLER PUSH2 0x2F60 JUMP JUMPDEST PUSH2 0x2158 PUSH2 0x2DB1 JUMP JUMPDEST PUSH1 0xD SLOAD PUSH1 0x40 MLOAD PUSH4 0x18A8AD87 PUSH1 0xE0 SHL DUP2 MSTORE PUSH1 0x1 PUSH1 0x1 PUSH1 0xA0 SHL SUB DUP6 DUP2 AND PUSH1 0x4 DUP4 ADD MSTORE PUSH1 0x24 DUP3 ADD DUP6 SWAP1 MSTORE SWAP1 SWAP2 AND SWAP1 PUSH4 0x18A8AD87 SWAP1 PUSH1 0x44 ADD PUSH1 0x0 PUSH1 0x40 MLOAD DUP1 DUP4 SUB DUP2 PUSH1 0x0 DUP8 DUP1 EXTCODESIZE ISZERO DUP1 ISZERO PUSH2 0x21A6 JUMPI PUSH1 0x0 DUP1 REVERT JUMPDEST POP GAS CALL ISZERO DUP1 ISZERO PUSH2 0x21BA JUMPI RETURNDATASIZE PUSH1 0x0 DUP1 RETURNDATACOPY RETURNDATASIZE PUSH1 0x0 REVERT JUMPDEST POP POP POP POP PUSH1 0x0 PUSH2 0x21C8 PUSH2 0x2E57 JUMP JUMPDEST SWAP1 POP DUP3 PUSH1 0x2 DUP3 DUP2 SLOAD DUP2 LT PUSH2 0x21DE JUMPI PUSH2 0x21DE PUSH2 0x3889 JUMP JUMPDEST SWAP1 PUSH1 0x0 MSTORE PUSH1 0x20 PUSH1 0x0 KECCAK256 SWAP1 PUSH1 0x3 MUL ADD PUSH1 0x0 ADD PUSH1 0x0 DUP3 DUP3 SLOAD PUSH2 0x21FE SWAP2 SWAP1 PUSH2 0x3A08 JUMP JUMPDEST SWAP1 SWAP2 SSTORE POP POP PUSH1 0x40 DUP1 MLOAD PUSH1 0x1 PUSH1 0x1 PUSH1 0xA0 SHL SUB DUP7 AND DUP2 MSTORE PUSH1 0x20 DUP2 ADD DUP6 SWAP1 MSTORE SWAP1 DUP2 ADD DUP3 SWAP1 MSTORE PUSH32 0x7189D215A7191822B14DF651DE302B89CD288C7850A66AC6C3401CC0714DBFE7 SWAP1 PUSH1 0x60 ADD PUSH1 0x40 MLOAD DUP1 SWAP2 SUB SWAP1 LOG1 POP POP POP POP JUMP JUMPDEST PUSH1 0x2 DUP2 DUP2 SLOAD DUP2 LT PUSH2 0x2263 JUMPI PUSH1 0x0 DUP1 REVERT JUMPDEST PUSH1 0x0 SWAP2 DUP3 MSTORE PUSH1 0x20 SWAP1 SWAP2 KECCAK256 PUSH1 0x3 SWAP1 SWAP2 MUL ADD DUP1 SLOAD PUSH1 0x1 DUP3 ADD SLOAD PUSH1 0x2 SWAP1 SWAP3 ADD SLOAD SWAP1 SWAP3 POP DUP4 JUMP JUMPDEST PUSH2 0x228E PUSH2 0x2E57 JUMP JUMPDEST DUP2 GT ISZERO PUSH2 0x22DD JUMPI PUSH1 0x40 MLOAD PUSH3 0x461BCD PUSH1 0xE5 SHL DUP2 MSTORE PUSH1 0x20 PUSH1 0x4 DUP3 ADD MSTORE PUSH1 0x18 PUSH1 0x24 DUP3 ADD MSTORE PUSH32 0x53533A2045786365656465642063757272656E74206461790000000000000000 PUSH1 0x44 DUP3 ADD MSTORE PUSH1 0x64 ADD PUSH2 0x76E JUMP JUMPDEST PUSH1 0x2 SLOAD PUSH1 0x0 SWAP1 PUSH2 0x22EF SWAP1 PUSH1 0x1 SWAP1 PUSH2 0x3A20 JUMP JUMPDEST SWAP1 POP DUP2 DUP2 EQ ISZERO PUSH2 0x22FD JUMPI POP POP JUMP JUMPDEST DUP1 JUMPDEST DUP3 DUP2 LT ISZERO PUSH2 0x263E JUMPI PUSH1 0x2 SLOAD PUSH1 0x0 SWAP1 DUP3 LT PUSH2 0x2327 JUMPI PUSH1 0x2 SLOAD PUSH2 0x2322 SWAP1 PUSH1 0x1 SWAP1 PUSH2 0x3A20 JUMP JUMPDEST PUSH2 0x2329 JUMP JUMPDEST DUP2 JUMPDEST SWAP1 POP PUSH1 0x0 PUSH1 0x2 DUP3 DUP2 SLOAD DUP2 LT PUSH2 0x2340 JUMPI PUSH2 0x2340 PUSH2 0x3889 JUMP JUMPDEST SWAP1 PUSH1 0x0 MSTORE PUSH1 0x20 PUSH1 0x0 KECCAK256 SWAP1 PUSH1 0x3 MUL ADD PUSH1 0x2 ADD SLOAD PUSH3 0xF4240 PUSH2 0x2360 SWAP2 SWAP1 PUSH2 0x3A37 JUMP JUMPDEST PUSH1 0x8 SLOAD PUSH8 0xDE0B6B3A7640000 SWAP1 PUSH2 0x237B SWAP1 PUSH3 0xF4240 SWAP1 PUSH2 0x3A08 JUMP JUMPDEST PUSH2 0x2385 SWAP2 SWAP1 PUSH2 0x3A37 JUMP JUMPDEST PUSH2 0x238F SWAP2 SWAP1 PUSH2 0x3A6C JUMP JUMPDEST SWAP1 POP PUSH1 0x0 PUSH3 0xF4240 PUSH2 0x23A3 PUSH2 0x16D DUP5 PUSH2 0x3A37 JUMP JUMPDEST PUSH2 0x23AD SWAP2 SWAP1 PUSH2 0x3A37 JUMP JUMPDEST DUP3 PUSH1 0x2 DUP6 DUP2 SLOAD DUP2 LT PUSH2 0x23C1 JUMPI PUSH2 0x23C1 PUSH2 0x3889 JUMP JUMPDEST SWAP1 PUSH1 0x0 MSTORE PUSH1 0x20 PUSH1 0x0 KECCAK256 SWAP1 PUSH1 0x3 MUL ADD PUSH1 0x1 ADD SLOAD PUSH2 0x23DD SWAP2 SWAP1 PUSH2 0x3A08 JUMP JUMPDEST PUSH1 0x6 SLOAD PUSH2 0x23EA SWAP2 SWAP1 PUSH2 0x3A37 JUMP JUMPDEST PUSH2 0x23F4 SWAP2 SWAP1 PUSH2 0x3A6C JUMP JUMPDEST PUSH1 0x2 SLOAD SWAP1 SWAP2 POP DUP5 LT ISZERO PUSH2 0x2440 JUMPI DUP1 PUSH1 0x2 DUP5 DUP2 SLOAD DUP2 LT PUSH2 0x2415 JUMPI PUSH2 0x2415 PUSH2 0x3889 JUMP JUMPDEST SWAP1 PUSH1 0x0 MSTORE PUSH1 0x20 PUSH1 0x0 KECCAK256 SWAP1 PUSH1 0x3 MUL ADD PUSH1 0x0 ADD PUSH1 0x0 DUP3 DUP3 SLOAD PUSH2 0x2435 SWAP2 SWAP1 PUSH2 0x3A08 JUMP JUMPDEST SWAP1 SWAP2 SSTORE POP PUSH2 0x24D9 SWAP1 POP JUMP JUMPDEST PUSH1 0x2 PUSH1 0x40 MLOAD DUP1 PUSH1 0x60 ADD PUSH1 0x40 MSTORE DUP1 DUP4 DUP2 MSTORE PUSH1 0x20 ADD PUSH1 0x2 DUP7 DUP2 SLOAD DUP2 LT PUSH2 0x2466 JUMPI PUSH2 0x2466 PUSH2 0x3889 JUMP JUMPDEST SWAP1 PUSH1 0x0 MSTORE PUSH1 0x20 PUSH1 0x0 KECCAK256 SWAP1 PUSH1 0x3 MUL ADD PUSH1 0x1 ADD SLOAD DUP2 MSTORE PUSH1 0x20 ADD PUSH1 0x2 DUP7 DUP2 SLOAD DUP2 LT PUSH2 0x2490 JUMPI PUSH2 0x2490 PUSH2 0x3889 JUMP JUMPDEST PUSH1 0x0 SWAP2 DUP3 MSTORE PUSH1 0x20 DUP1 DUP4 KECCAK256 PUSH1 0x3 SWAP3 DUP4 MUL ADD PUSH1 0x2 SWAP1 DUP2 ADD SLOAD SWAP1 SWAP5 MSTORE DUP6 SLOAD PUSH1 0x1 DUP1 DUP3 ADD DUP9 SSTORE SWAP7 DUP5 MSTORE SWAP3 DUP2 SWAP1 KECCAK256 DUP6 MLOAD SWAP4 SWAP1 SWAP3 MUL SWAP1 SWAP2 ADD SWAP2 DUP3 SSTORE DUP4 ADD MLOAD SWAP4 DUP2 ADD SWAP4 SWAP1 SWAP4 SSTORE PUSH1 0x40 SWAP1 SWAP2 ADD MLOAD SWAP2 ADD SSTORE JUMPDEST PUSH32 0x45BC90C5E61BE4D79E2F0C1154A663332BBCCF6A26759463D04772164EEBFED2 DUP5 PUSH1 0x2 DUP6 DUP2 SLOAD DUP2 LT PUSH2 0x250E JUMPI PUSH2 0x250E PUSH2 0x3889 JUMP JUMPDEST SWAP1 PUSH1 0x0 MSTORE PUSH1 0x20 PUSH1 0x0 KECCAK256 SWAP1 PUSH1 0x3 MUL ADD PUSH1 0x0 ADD SLOAD PUSH1 0x2 DUP7 DUP2 SLOAD DUP2 LT PUSH2 0x2533 JUMPI PUSH2 0x2533 PUSH2 0x3889 JUMP JUMPDEST SWAP1 PUSH1 0x0 MSTORE PUSH1 0x20 PUSH1 0x0 KECCAK256 SWAP1 PUSH1 0x3 MUL ADD PUSH1 0x1 ADD SLOAD PUSH1 0x2 DUP8 DUP2 SLOAD DUP2 LT PUSH2 0x2558 JUMPI PUSH2 0x2558 PUSH2 0x3889 JUMP JUMPDEST SWAP1 PUSH1 0x0 MSTORE PUSH1 0x20 PUSH1 0x0 KECCAK256 SWAP1 PUSH1 0x3 MUL ADD PUSH1 0x2 ADD SLOAD PUSH2 0x2572 PUSH2 0x2D03 JUMP JUMPDEST PUSH1 0xD PUSH1 0x0 SWAP1 SLOAD SWAP1 PUSH2 0x100 EXP SWAP1 DIV PUSH1 0x1 PUSH1 0x1 PUSH1 0xA0 SHL SUB AND PUSH1 0x1 PUSH1 0x1 PUSH1 0xA0 SHL SUB AND PUSH4 0x18160DDD PUSH1 0x40 MLOAD DUP2 PUSH4 0xFFFFFFFF AND PUSH1 0xE0 SHL DUP2 MSTORE PUSH1 0x4 ADD PUSH1 0x20 PUSH1 0x40 MLOAD DUP1 DUP4 SUB DUP2 DUP7 DUP1 EXTCODESIZE ISZERO DUP1 ISZERO PUSH2 0x25C0 JUMPI PUSH1 0x0 DUP1 REVERT JUMPDEST POP GAS STATICCALL ISZERO DUP1 ISZERO PUSH2 0x25D4 JUMPI RETURNDATASIZE PUSH1 0x0 DUP1 RETURNDATACOPY RETURNDATASIZE PUSH1 0x0 REVERT JUMPDEST POP POP POP POP PUSH1 0x40 MLOAD RETURNDATASIZE PUSH1 0x1F NOT PUSH1 0x1F DUP3 ADD AND DUP3 ADD DUP1 PUSH1 0x40 MSTORE POP DUP2 ADD SWAP1 PUSH2 0x25F8 SWAP2 SWAP1 PUSH2 0x3A80 JUMP JUMPDEST PUSH1 0x40 DUP1 MLOAD SWAP7 DUP8 MSTORE PUSH1 0x20 DUP8 ADD SWAP6 SWAP1 SWAP6 MSTORE SWAP4 DUP6 ADD SWAP3 SWAP1 SWAP3 MSTORE PUSH1 0x60 DUP5 ADD MSTORE PUSH1 0x80 DUP4 ADD MSTORE PUSH1 0xA0 DUP3 ADD MSTORE PUSH1 0xC0 ADD PUSH1 0x40 MLOAD DUP1 SWAP2 SUB SWAP1 LOG1 POP POP POP DUP1 DUP1 PUSH2 0x2636 SWAP1 PUSH2 0x38D2 JUMP JUMPDEST SWAP2 POP POP PUSH2 0x22FF JUMP JUMPDEST POP PUSH1 0x2 SLOAD DUP3 EQ ISZERO PUSH2 0x26FB JUMPI PUSH1 0x2 PUSH1 0x40 MLOAD DUP1 PUSH1 0x60 ADD PUSH1 0x40 MSTORE DUP1 PUSH1 0x0 DUP2 MSTORE PUSH1 0x20 ADD PUSH1 0x2 PUSH1 0x1 DUP7 PUSH2 0x266C SWAP2 SWAP1 PUSH2 0x3A20 JUMP JUMPDEST DUP2 SLOAD DUP2 LT PUSH2 0x267C JUMPI PUSH2 0x267C PUSH2 0x3889 JUMP JUMPDEST SWAP1 PUSH1 0x0 MSTORE PUSH1 0x20 PUSH1 0x0 KECCAK256 SWAP1 PUSH1 0x3 MUL ADD PUSH1 0x1 ADD SLOAD DUP2 MSTORE PUSH1 0x20 ADD PUSH1 0x2 PUSH1 0x1 DUP7 PUSH2 0x26A2 SWAP2 SWAP1 PUSH2 0x3A20 JUMP JUMPDEST DUP2 SLOAD DUP2 LT PUSH2 0x26B2 JUMPI PUSH2 0x26B2 PUSH2 0x3889 JUMP JUMPDEST PUSH1 0x0 SWAP2 DUP3 MSTORE PUSH1 0x20 DUP1 DUP4 KECCAK256 PUSH1 0x3 SWAP3 DUP4 MUL ADD PUSH1 0x2 SWAP1 DUP2 ADD SLOAD SWAP1 SWAP5 MSTORE DUP6 SLOAD PUSH1 0x1 DUP1 DUP3 ADD DUP9 SSTORE SWAP7 DUP5 MSTORE SWAP3 DUP2 SWAP1 KECCAK256 DUP6 MLOAD SWAP4 SWAP1 SWAP3 MUL SWAP1 SWAP2 ADD SWAP2 DUP3 SSTORE DUP4 ADD MLOAD SWAP4 DUP2 ADD SWAP4 SWAP1 SWAP4 SSTORE PUSH1 0x40 SWAP1 SWAP2 ADD MLOAD SWAP2 ADD SSTORE JUMPDEST PUSH1 0x3 SLOAD PUSH1 0x0 SWAP1 PUSH2 0x270D SWAP1 PUSH1 0x1 SWAP1 PUSH2 0x3A20 JUMP JUMPDEST SWAP1 POP PUSH1 0x0 PUSH2 0x271C PUSH1 0x64 DUP6 PUSH2 0x3A6C JUMP JUMPDEST SWAP1 POP DUP2 JUMPDEST DUP2 DUP2 LT ISZERO PUSH2 0x28DA JUMPI PUSH1 0x0 DUP1 PUSH2 0x2736 PUSH1 0x64 DUP5 PUSH2 0x3A37 JUMP JUMPDEST SWAP1 POP JUMPDEST PUSH1 0x64 PUSH2 0x2746 DUP5 PUSH1 0x1 PUSH2 0x3A08 JUMP JUMPDEST PUSH2 0x2750 SWAP2 SWAP1 PUSH2 0x3A37 JUMP JUMPDEST DUP2 LT ISZERO PUSH2 0x280F JUMPI PUSH1 0x2 DUP2 DUP2 SLOAD DUP2 LT PUSH2 0x276A JUMPI PUSH2 0x276A PUSH2 0x3889 JUMP JUMPDEST SWAP1 PUSH1 0x0 MSTORE PUSH1 0x20 PUSH1 0x0 KECCAK256 SWAP1 PUSH1 0x3 MUL ADD PUSH1 0x1 ADD SLOAD PUSH1 0x0 EQ ISZERO PUSH2 0x2789 JUMPI PUSH2 0x27FD JUMP JUMPDEST PUSH1 0x2 DUP2 DUP2 SLOAD DUP2 LT PUSH2 0x279C JUMPI PUSH2 0x279C PUSH2 0x3889 JUMP JUMPDEST SWAP1 PUSH1 0x0 MSTORE PUSH1 0x20 PUSH1 0x0 KECCAK256 SWAP1 PUSH1 0x3 MUL ADD PUSH1 0x1 ADD SLOAD PUSH8 0xDE0B6B3A7640000 PUSH1 0x2 DUP4 DUP2 SLOAD DUP2 LT PUSH2 0x27CA JUMPI PUSH2 0x27CA PUSH2 0x3889 JUMP JUMPDEST SWAP1 PUSH1 0x0 MSTORE PUSH1 0x20 PUSH1 0x0 KECCAK256 SWAP1 PUSH1 0x3 MUL ADD PUSH1 0x0 ADD SLOAD PUSH2 0x27E6 SWAP2 SWAP1 PUSH2 0x3A37 JUMP JUMPDEST PUSH2 0x27F0 SWAP2 SWAP1 PUSH2 0x3A6C JUMP JUMPDEST PUSH2 0x27FA SWAP1 DUP4 PUSH2 0x3A08 JUMP JUMPDEST SWAP2 POP JUMPDEST DUP1 PUSH2 0x2807 DUP2 PUSH2 0x38D2 JUMP JUMPDEST SWAP2 POP POP PUSH2 0x2739 JUMP JUMPDEST POP PUSH1 0x3 SLOAD DUP3 LT ISZERO PUSH2 0x283F JUMPI DUP1 PUSH1 0x3 DUP4 DUP2 SLOAD DUP2 LT PUSH2 0x282E JUMPI PUSH2 0x282E PUSH2 0x3889 JUMP JUMPDEST PUSH1 0x0 SWAP2 DUP3 MSTORE PUSH1 0x20 SWAP1 SWAP2 KECCAK256 ADD SSTORE PUSH2 0x2875 JUMP JUMPDEST PUSH1 0x3 DUP1 SLOAD PUSH1 0x1 DUP2 ADD DUP3 SSTORE PUSH1 0x0 SWAP2 SWAP1 SWAP2 MSTORE PUSH32 0xC2575A0E9E593C00F959F8C92F12DB2869C3395A3B0502D05E2516446F71F85B ADD DUP2 SWAP1 SSTORE JUMPDEST PUSH1 0x3 SLOAD PUSH32 0x1C9CE6F1D7F557DC59B02392857734618E6BC787C6A7C136A8BC32BED4E19111 SWAP1 DUP4 SWAP1 PUSH2 0x28A8 SWAP1 PUSH1 0x1 SWAP1 PUSH2 0x3A20 JUMP JUMPDEST PUSH1 0x40 DUP1 MLOAD SWAP3 DUP4 MSTORE PUSH1 0x20 DUP4 ADD SWAP2 SWAP1 SWAP2 MSTORE DUP2 ADD DUP4 SWAP1 MSTORE PUSH1 0x60 ADD PUSH1 0x40 MLOAD DUP1 SWAP2 SUB SWAP1 LOG1 POP DUP1 PUSH2 0x28D2 DUP2 PUSH2 0x38D2 JUMP JUMPDEST SWAP2 POP POP PUSH2 0x2720 JUMP JUMPDEST POP PUSH1 0x3 SLOAD DUP2 EQ ISZERO PUSH2 0x654 JUMPI PUSH1 0x3 DUP1 SLOAD PUSH1 0x1 DUP2 ADD DUP3 SSTORE PUSH1 0x0 SWAP2 DUP3 MSTORE PUSH32 0xC2575A0E9E593C00F959F8C92F12DB2869C3395A3B0502D05E2516446F71F85B ADD SSTORE POP POP POP POP JUMP JUMPDEST PUSH1 0x0 DUP1 PUSH1 0x0 DUP6 PUSH1 0x40 ADD MLOAD DUP6 GT PUSH2 0x2934 JUMPI PUSH1 0x0 PUSH2 0x2943 JUMP JUMPDEST PUSH1 0x40 DUP7 ADD MLOAD PUSH2 0x2943 SWAP1 DUP7 PUSH2 0x3A20 JUMP JUMPDEST SWAP1 POP PUSH1 0x0 DUP5 DUP8 PUSH1 0x20 ADD MLOAD PUSH2 0x2957 SWAP2 SWAP1 PUSH2 0x3A08 JUMP JUMPDEST PUSH1 0x5 SLOAD SWAP1 SWAP2 POP DUP3 GT PUSH2 0x296B JUMPI DUP1 SWAP3 POP PUSH2 0x2A51 JUMP JUMPDEST DUP7 PUSH1 0x60 ADD MLOAD DUP3 GT PUSH2 0x29B3 JUMPI PUSH1 0x5 SLOAD PUSH1 0x60 DUP9 ADD MLOAD PUSH2 0x2988 SWAP2 SWAP1 PUSH2 0x3A20 JUMP JUMPDEST DUP3 DUP9 PUSH1 0x60 ADD MLOAD PUSH2 0x2998 SWAP2 SWAP1 PUSH2 0x3A20 JUMP JUMPDEST PUSH2 0x29A2 SWAP1 DUP4 PUSH2 0x3A37 JUMP JUMPDEST PUSH2 0x29AC SWAP2 SWAP1 PUSH2 0x3A6C JUMP JUMPDEST SWAP3 POP PUSH2 0x2A51 JUMP JUMPDEST PUSH1 0x9 SLOAD PUSH1 0x60 DUP9 ADD MLOAD PUSH2 0x29C5 SWAP2 SWAP1 PUSH2 0x3A08 JUMP JUMPDEST DUP3 GT PUSH2 0x29D4 JUMPI PUSH1 0x0 SWAP3 POP PUSH2 0x2A51 JUMP JUMPDEST PUSH1 0xA SLOAD PUSH1 0x9 SLOAD PUSH1 0x60 DUP10 ADD MLOAD PUSH2 0x29E9 SWAP2 SWAP1 PUSH2 0x3A08 JUMP JUMPDEST PUSH2 0x29F3 SWAP2 SWAP1 PUSH2 0x3A08 JUMP JUMPDEST DUP3 GT PUSH2 0x2A37 JUMPI PUSH1 0xA DUP1 SLOAD PUSH2 0x2A06 SWAP2 PUSH2 0x3A37 JUMP JUMPDEST PUSH1 0x9 SLOAD PUSH1 0x60 DUP10 ADD MLOAD PUSH2 0x2A18 SWAP1 DUP6 PUSH2 0x3A20 JUMP JUMPDEST PUSH2 0x2A22 SWAP2 SWAP1 PUSH2 0x3A20 JUMP JUMPDEST PUSH2 0x2A2D DUP4 PUSH1 0x9 PUSH2 0x3A37 JUMP JUMPDEST PUSH2 0x29A2 SWAP2 SWAP1 PUSH2 0x3A37 JUMP JUMPDEST PUSH1 0xA PUSH2 0x2A44 DUP3 PUSH1 0x9 PUSH2 0x3A37 JUMP JUMPDEST PUSH2 0x2A4E SWAP2 SWAP1 PUSH2 0x3A6C JUMP JUMPDEST SWAP3 POP JUMPDEST POP SWAP1 SWAP6 SWAP5 POP POP POP POP POP JUMP JUMPDEST PUSH1 0x0 DUP3 PUSH1 0x40 ADD MLOAD DUP3 GT PUSH2 0x2A71 JUMPI POP PUSH1 0x0 PUSH2 0x5D7 JUMP JUMPDEST PUSH1 0x0 DUP1 PUSH2 0x2A8C DUP5 DUP7 PUSH1 0x60 ADD MLOAD DUP8 PUSH1 0x40 ADD MLOAD PUSH2 0x1908 SWAP2 SWAP1 PUSH2 0x3A08 JUMP JUMPDEST SWAP1 POP PUSH2 0x2A9D DUP2 PUSH1 0x2 DUP1 SLOAD SWAP1 POP PUSH2 0x3073 JUMP JUMPDEST SWAP1 POP PUSH1 0x0 PUSH2 0x2AAB DUP7 DUP7 PUSH2 0x18B8 JUMP JUMPDEST SWAP1 POP PUSH1 0x0 PUSH1 0x64 DUP8 PUSH1 0x40 ADD MLOAD PUSH2 0x2AC0 SWAP2 SWAP1 PUSH2 0x3A6C JUMP JUMPDEST PUSH2 0x2ACB SWAP1 PUSH1 0x1 PUSH2 0x3A08 JUMP JUMPDEST SWAP1 POP PUSH1 0x0 PUSH2 0x2ADE DUP5 PUSH2 0x1908 PUSH1 0x64 DUP6 PUSH2 0x3A37 JUMP JUMPDEST PUSH1 0x40 DUP10 ADD MLOAD SWAP1 SWAP2 POP JUMPDEST DUP2 DUP2 LT ISZERO PUSH2 0x2B9F JUMPI PUSH1 0x2 DUP2 DUP2 SLOAD DUP2 LT PUSH2 0x2B02 JUMPI PUSH2 0x2B02 PUSH2 0x3889 JUMP JUMPDEST SWAP1 PUSH1 0x0 MSTORE PUSH1 0x20 PUSH1 0x0 KECCAK256 SWAP1 PUSH1 0x3 MUL ADD PUSH1 0x1 ADD SLOAD PUSH1 0x0 EQ ISZERO PUSH2 0x2B21 JUMPI PUSH2 0x2B8D JUMP JUMPDEST PUSH1 0x2 DUP2 DUP2 SLOAD DUP2 LT PUSH2 0x2B34 JUMPI PUSH2 0x2B34 PUSH2 0x3889 JUMP JUMPDEST SWAP1 PUSH1 0x0 MSTORE PUSH1 0x20 PUSH1 0x0 KECCAK256 SWAP1 PUSH1 0x3 MUL ADD PUSH1 0x1 ADD SLOAD DUP5 PUSH1 0x2 DUP4 DUP2 SLOAD DUP2 LT PUSH2 0x2B5A JUMPI PUSH2 0x2B5A PUSH2 0x3889 JUMP JUMPDEST SWAP1 PUSH1 0x0 MSTORE PUSH1 0x20 PUSH1 0x0 KECCAK256 SWAP1 PUSH1 0x3 MUL ADD PUSH1 0x0 ADD SLOAD PUSH2 0x2B76 SWAP2 SWAP1 PUSH2 0x3A37 JUMP JUMPDEST PUSH2 0x2B80 SWAP2 SWAP1 PUSH2 0x3A6C JUMP JUMPDEST PUSH2 0x2B8A SWAP1 DUP8 PUSH2 0x3A08 JUMP JUMPDEST SWAP6 POP JUMPDEST DUP1 PUSH2 0x2B97 DUP2 PUSH2 0x38D2 JUMP JUMPDEST SWAP2 POP POP PUSH2 0x2AE7 JUMP JUMPDEST POP PUSH1 0x0 PUSH2 0x2BAD PUSH1 0x64 DUP7 PUSH2 0x3A6C JUMP JUMPDEST SWAP1 POP DUP3 JUMPDEST DUP2 DUP2 LT ISZERO PUSH2 0x2C13 JUMPI PUSH8 0xDE0B6B3A7640000 DUP6 PUSH1 0x3 DUP4 DUP2 SLOAD DUP2 LT PUSH2 0x2BD6 JUMPI PUSH2 0x2BD6 PUSH2 0x3889 JUMP JUMPDEST SWAP1 PUSH1 0x0 MSTORE PUSH1 0x20 PUSH1 0x0 KECCAK256 ADD SLOAD PUSH2 0x2BEB SWAP2 SWAP1 PUSH2 0x3A37 JUMP JUMPDEST PUSH2 0x2BF5 SWAP2 SWAP1 PUSH2 0x3A6C JUMP JUMPDEST PUSH2 0x2BFF SWAP1 DUP9 PUSH2 0x3A08 JUMP JUMPDEST SWAP7 POP DUP1 PUSH2 0x2C0B DUP2 PUSH2 0x38D2 JUMP JUMPDEST SWAP2 POP POP PUSH2 0x2BB1 JUMP JUMPDEST POP PUSH1 0x0 PUSH2 0x2C21 PUSH1 0x64 DUP8 PUSH2 0x3A99 JUMP JUMPDEST PUSH2 0x2C2B SWAP1 DUP8 PUSH2 0x3A20 JUMP JUMPDEST SWAP1 POP DUP10 PUSH1 0x40 ADD MLOAD DUP2 GT ISZERO PUSH2 0x2CF5 JUMPI DUP1 JUMPDEST DUP7 DUP2 LT ISZERO PUSH2 0x2CF3 JUMPI PUSH1 0x2 DUP2 DUP2 SLOAD DUP2 LT PUSH2 0x2C56 JUMPI PUSH2 0x2C56 PUSH2 0x3889 JUMP JUMPDEST SWAP1 PUSH1 0x0 MSTORE PUSH1 0x20 PUSH1 0x0 KECCAK256 SWAP1 PUSH1 0x3 MUL ADD PUSH1 0x1 ADD SLOAD PUSH1 0x0 EQ ISZERO PUSH2 0x2C75 JUMPI PUSH2 0x2CE1 JUMP JUMPDEST PUSH1 0x2 DUP2 DUP2 SLOAD DUP2 LT PUSH2 0x2C88 JUMPI PUSH2 0x2C88 PUSH2 0x3889 JUMP JUMPDEST SWAP1 PUSH1 0x0 MSTORE PUSH1 0x20 PUSH1 0x0 KECCAK256 SWAP1 PUSH1 0x3 MUL ADD PUSH1 0x1 ADD SLOAD DUP7 PUSH1 0x2 DUP4 DUP2 SLOAD DUP2 LT PUSH2 0x2CAE JUMPI PUSH2 0x2CAE PUSH2 0x3889 JUMP JUMPDEST SWAP1 PUSH1 0x0 MSTORE PUSH1 0x20 PUSH1 0x0 KECCAK256 SWAP1 PUSH1 0x3 MUL ADD PUSH1 0x0 ADD SLOAD PUSH2 0x2CCA SWAP2 SWAP1 PUSH2 0x3A37 JUMP JUMPDEST PUSH2 0x2CD4 SWAP2 SWAP1 PUSH2 0x3A6C JUMP JUMPDEST PUSH2 0x2CDE SWAP1 DUP10 PUSH2 0x3A08 JUMP JUMPDEST SWAP8 POP JUMPDEST DUP1 PUSH2 0x2CEB DUP2 PUSH2 0x38D2 JUMP JUMPDEST SWAP2 POP POP PUSH2 0x2C3B JUMP JUMPDEST POP JUMPDEST POP SWAP5 SWAP9 SWAP8 POP POP POP POP POP POP POP POP JUMP JUMPDEST PUSH1 0xD SLOAD PUSH1 0x40 MLOAD PUSH4 0x70A08231 PUSH1 0xE0 SHL DUP2 MSTORE ADDRESS PUSH1 0x4 DUP3 ADD MSTORE PUSH1 0x0 SWAP2 PUSH1 0x1 PUSH1 0x1 PUSH1 0xA0 SHL SUB AND SWAP1 PUSH4 0x70A08231 SWAP1 PUSH1 0x24 ADD PUSH1 0x20 PUSH1 0x40 MLOAD DUP1 DUP4 SUB DUP2 DUP7 DUP1 EXTCODESIZE ISZERO DUP1 ISZERO PUSH2 0x2D47 JUMPI PUSH1 0x0 DUP1 REVERT JUMPDEST POP GAS STATICCALL ISZERO DUP1 ISZERO PUSH2 0x2D5B JUMPI RETURNDATASIZE PUSH1 0x0 DUP1 RETURNDATACOPY RETURNDATASIZE PUSH1 0x0 REVERT JUMPDEST POP POP POP POP PUSH1 0x40 MLOAD RETURNDATASIZE PUSH1 0x1F NOT PUSH1 0x1F DUP3 ADD AND DUP3 ADD DUP1 PUSH1 0x40 MSTORE POP DUP2 ADD SWAP1 PUSH2 0x2D7F SWAP2 SWAP1 PUSH2 0x3A80 JUMP JUMPDEST SWAP1 POP SWAP1 JUMP JUMPDEST PUSH1 0x0 PUSH1 0x64 PUSH2 0x2D90 PUSH2 0x2E57 JUMP JUMPDEST PUSH2 0x2D7F SWAP2 SWAP1 PUSH2 0x3A6C JUMP JUMPDEST PUSH1 0x0 DUP2 DUP2 MSTORE PUSH1 0x1 PUSH1 0x20 MSTORE PUSH1 0x40 DUP2 KECCAK256 PUSH2 0x5D7 SWAP1 PUSH2 0x3096 JUMP JUMPDEST PUSH2 0x2DBC PUSH2 0x468 PUSH2 0x2E57 JUMP JUMPDEST JUMP JUMPDEST PUSH2 0x1881 DUP3 DUP3 PUSH2 0x30A0 JUMP JUMPDEST PUSH1 0x4 DUP2 DUP2 SLOAD DUP2 LT PUSH2 0x2DD8 JUMPI PUSH1 0x0 DUP1 REVERT JUMPDEST PUSH1 0x0 SWAP2 DUP3 MSTORE PUSH1 0x20 SWAP1 SWAP2 KECCAK256 PUSH1 0x6 SWAP1 SWAP2 MUL ADD DUP1 SLOAD PUSH1 0x1 DUP3 ADD SLOAD PUSH1 0x2 DUP4 ADD SLOAD PUSH1 0x3 DUP5 ADD SLOAD PUSH1 0x4 DUP6 ADD SLOAD PUSH1 0x5 SWAP1 SWAP6 ADD SLOAD PUSH1 0x1 PUSH1 0x1 PUSH1 0xA0 SHL SUB SWAP1 SWAP5 AND SWAP6 POP SWAP2 SWAP4 SWAP1 SWAP3 DUP7 JUMP JUMPDEST PUSH1 0x0 JUMPDEST DUP3 DUP2 LT ISZERO PUSH2 0x654 JUMPI PUSH2 0x2E45 DUP5 DUP5 DUP4 DUP2 DUP2 LT PUSH2 0x2E38 JUMPI PUSH2 0x2E38 PUSH2 0x3889 JUMP JUMPDEST SWAP1 POP PUSH1 0x20 MUL ADD CALLDATALOAD DUP4 PUSH2 0x1527 JUMP JUMPDEST DUP1 PUSH2 0x2E4F DUP2 PUSH2 0x38D2 JUMP JUMPDEST SWAP2 POP POP PUSH2 0x2E1B JUMP JUMPDEST PUSH1 0x0 PUSH3 0x15180 PUSH1 0xE SLOAD PUSH2 0x2E6A SWAP2 SWAP1 PUSH2 0x3A6C JUMP JUMPDEST PUSH2 0x2E77 PUSH3 0x15180 TIMESTAMP PUSH2 0x3A6C JUMP JUMPDEST PUSH2 0x2E82 SWAP1 PUSH1 0x1 PUSH2 0x3A08 JUMP JUMPDEST PUSH2 0x2D7F SWAP2 SWAP1 PUSH2 0x3A20 JUMP JUMPDEST PUSH1 0x0 PUSH2 0x18B1 PUSH1 0x4 DUP5 DUP2 SLOAD DUP2 LT PUSH2 0x2EA4 JUMPI PUSH2 0x2EA4 PUSH2 0x3889 JUMP JUMPDEST PUSH1 0x0 SWAP2 DUP3 MSTORE PUSH1 0x20 SWAP2 DUP3 SWAP1 KECCAK256 PUSH1 0x40 DUP1 MLOAD PUSH1 0xC0 DUP2 ADD DUP3 MSTORE PUSH1 0x6 SWAP1 SWAP4 MUL SWAP1 SWAP2 ADD DUP1 SLOAD PUSH1 0x1 PUSH1 0x1 PUSH1 0xA0 SHL SUB AND DUP4 MSTORE PUSH1 0x1 DUP2 ADD SLOAD SWAP4 DUP4 ADD SWAP4 SWAP1 SWAP4 MSTORE PUSH1 0x2 DUP4 ADD SLOAD SWAP1 DUP3 ADD MSTORE PUSH1 0x3 DUP3 ADD SLOAD PUSH1 0x60 DUP3 ADD MSTORE PUSH1 0x4 DUP3 ADD SLOAD PUSH1 0x80 DUP3 ADD MSTORE PUSH1 0x5 SWAP1 SWAP2 ADD SLOAD PUSH1 0xA0 DUP3 ADD MSTORE DUP4 PUSH2 0x18B8 JUMP JUMPDEST PUSH2 0x2F12 DUP3 DUP3 PUSH2 0x30C6 JUMP JUMPDEST POP POP JUMP JUMPDEST PUSH1 0x0 PUSH2 0x18B1 DUP4 PUSH1 0x1 PUSH1 0x1 PUSH1 0xA0 SHL SUB DUP5 AND PUSH2 0x314A JUMP JUMPDEST PUSH1 0x0 PUSH1 0x1 PUSH1 0x1 PUSH1 0xE0 SHL SUB NOT DUP3 AND PUSH4 0x7965DB0B PUSH1 0xE0 SHL EQ DUP1 PUSH2 0x5D7 JUMPI POP PUSH4 0x1FFC9A7 PUSH1 0xE0 SHL PUSH1 0x1 PUSH1 0x1 PUSH1 0xE0 SHL SUB NOT DUP4 AND EQ PUSH2 0x5D7 JUMP JUMPDEST PUSH2 0x2F6A DUP3 DUP3 PUSH2 0x211B JUMP JUMPDEST PUSH2 0x2F12 JUMPI PUSH2 0x2F82 DUP2 PUSH1 0x1 PUSH1 0x1 PUSH1 0xA0 SHL SUB AND PUSH1 0x14 PUSH2 0x3199 JUMP JUMPDEST PUSH2 0x2F8D DUP4 PUSH1 0x20 PUSH2 0x3199 JUMP JUMPDEST PUSH1 0x40 MLOAD PUSH1 0x20 ADD PUSH2 0x2F9E SWAP3 SWAP2 SWAP1 PUSH2 0x3AD9 JUMP JUMPDEST PUSH1 0x40 DUP1 MLOAD PUSH1 0x1F NOT DUP2 DUP5 SUB ADD DUP2 MSTORE SWAP1 DUP3 SWAP1 MSTORE PUSH3 0x461BCD PUSH1 0xE5 SHL DUP3 MSTORE PUSH2 0x76E SWAP2 PUSH1 0x4 ADD PUSH2 0x3B4E JUMP JUMPDEST PUSH2 0x185F DUP3 DUP3 PUSH2 0x2F08 JUMP JUMPDEST PUSH1 0x0 PUSH2 0x2FDA DUP2 CALLER PUSH2 0x2F60 JUMP JUMPDEST PUSH2 0x1501 DUP4 DUP4 PUSH2 0x30C6 JUMP JUMPDEST PUSH1 0x1 PUSH1 0x1 PUSH1 0xA0 SHL SUB DUP2 AND CALLER EQ PUSH2 0x3054 JUMPI PUSH1 0x40 MLOAD PUSH3 0x461BCD PUSH1 0xE5 SHL DUP2 MSTORE PUSH1 0x20 PUSH1 0x4 DUP3 ADD MSTORE PUSH1 0x2F PUSH1 0x24 DUP3 ADD MSTORE PUSH32 0x416363657373436F6E74726F6C3A2063616E206F6E6C792072656E6F756E6365 PUSH1 0x44 DUP3 ADD MSTORE PUSH15 0x103937B632B9903337B91039B2B633 PUSH1 0x89 SHL PUSH1 0x64 DUP3 ADD MSTORE PUSH1 0x84 ADD PUSH2 0x76E JUMP JUMPDEST PUSH2 0x2F12 DUP3 DUP3 PUSH2 0x3335 JUMP JUMPDEST PUSH1 0x0 PUSH2 0x18B1 DUP4 PUSH1 0x1 PUSH1 0x1 PUSH1 0xA0 SHL SUB DUP5 AND PUSH2 0x339A JUMP JUMPDEST PUSH1 0x0 DUP2 DUP4 LT ISZERO PUSH2 0x3084 JUMPI POP DUP2 PUSH2 0x5D7 JUMP JUMPDEST POP SWAP2 SWAP1 POP JUMP JUMPDEST PUSH1 0x0 PUSH2 0x18B1 DUP4 DUP4 PUSH2 0x3483 JUMP JUMPDEST PUSH1 0x0 PUSH2 0x5D7 DUP3 SLOAD SWAP1 JUMP JUMPDEST PUSH1 0x0 DUP3 DUP2 MSTORE PUSH1 0x20 DUP2 SWAP1 MSTORE PUSH1 0x40 SWAP1 KECCAK256 PUSH1 0x1 ADD SLOAD PUSH2 0x30BC DUP2 CALLER PUSH2 0x2F60 JUMP JUMPDEST PUSH2 0x1501 DUP4 DUP4 PUSH2 0x3335 JUMP JUMPDEST PUSH2 0x30D0 DUP3 DUP3 PUSH2 0x211B JUMP JUMPDEST PUSH2 0x2F12 JUMPI PUSH1 0x0 DUP3 DUP2 MSTORE PUSH1 0x20 DUP2 DUP2 MSTORE PUSH1 0x40 DUP1 DUP4 KECCAK256 PUSH1 0x1 PUSH1 0x1 PUSH1 0xA0 SHL SUB DUP6 AND DUP5 MSTORE SWAP1 SWAP2 MSTORE SWAP1 KECCAK256 DUP1 SLOAD PUSH1 0xFF NOT AND PUSH1 0x1 OR SWAP1 SSTORE PUSH2 0x3106 CALLER SWAP1 JUMP JUMPDEST PUSH1 0x1 PUSH1 0x1 PUSH1 0xA0 SHL SUB AND DUP2 PUSH1 0x1 PUSH1 0x1 PUSH1 0xA0 SHL SUB AND DUP4 PUSH32 0x2F8788117E7EFF1D82E926EC794901D17C78024A50270940304540A733656F0D PUSH1 0x40 MLOAD PUSH1 0x40 MLOAD DUP1 SWAP2 SUB SWAP1 LOG4 POP POP JUMP JUMPDEST PUSH1 0x0 DUP2 DUP2 MSTORE PUSH1 0x1 DUP4 ADD PUSH1 0x20 MSTORE PUSH1 0x40 DUP2 KECCAK256 SLOAD PUSH2 0x3191 JUMPI POP DUP2 SLOAD PUSH1 0x1 DUP2 DUP2 ADD DUP5 SSTORE PUSH1 0x0 DUP5 DUP2 MSTORE PUSH1 0x20 DUP1 DUP3 KECCAK256 SWAP1 SWAP4 ADD DUP5 SWAP1 SSTORE DUP5 SLOAD DUP5 DUP3 MSTORE DUP3 DUP7 ADD SWAP1 SWAP4 MSTORE PUSH1 0x40 SWAP1 KECCAK256 SWAP2 SWAP1 SWAP2 SSTORE PUSH2 0x5D7 JUMP JUMPDEST POP PUSH1 0x0 PUSH2 0x5D7 JUMP JUMPDEST PUSH1 0x60 PUSH1 0x0 PUSH2 0x31A8 DUP4 PUSH1 0x2 PUSH2 0x3A37 JUMP JUMPDEST PUSH2 0x31B3 SWAP1 PUSH1 0x2 PUSH2 0x3A08 JUMP JUMPDEST PUSH8 0xFFFFFFFFFFFFFFFF DUP2 GT ISZERO PUSH2 0x31CB JUMPI PUSH2 0x31CB PUSH2 0x3591 JUMP JUMPDEST PUSH1 0x40 MLOAD SWAP1 DUP1 DUP3 MSTORE DUP1 PUSH1 0x1F ADD PUSH1 0x1F NOT AND PUSH1 0x20 ADD DUP3 ADD PUSH1 0x40 MSTORE DUP1 ISZERO PUSH2 0x31F5 JUMPI PUSH1 0x20 DUP3 ADD DUP2 DUP1 CALLDATASIZE DUP4 CALLDATACOPY ADD SWAP1 POP JUMPDEST POP SWAP1 POP PUSH1 0x3 PUSH1 0xFC SHL DUP2 PUSH1 0x0 DUP2 MLOAD DUP2 LT PUSH2 0x3210 JUMPI PUSH2 0x3210 PUSH2 0x3889 JUMP JUMPDEST PUSH1 0x20 ADD ADD SWAP1 PUSH1 0x1 PUSH1 0x1 PUSH1 0xF8 SHL SUB NOT AND SWAP1 DUP2 PUSH1 0x0 BYTE SWAP1 MSTORE8 POP PUSH1 0xF PUSH1 0xFB SHL DUP2 PUSH1 0x1 DUP2 MLOAD DUP2 LT PUSH2 0x323F JUMPI PUSH2 0x323F PUSH2 0x3889 JUMP JUMPDEST PUSH1 0x20 ADD ADD SWAP1 PUSH1 0x1 PUSH1 0x1 PUSH1 0xF8 SHL SUB NOT AND SWAP1 DUP2 PUSH1 0x0 BYTE SWAP1 MSTORE8 POP PUSH1 0x0 PUSH2 0x3263 DUP5 PUSH1 0x2 PUSH2 0x3A37 JUMP JUMPDEST PUSH2 0x326E SWAP1 PUSH1 0x1 PUSH2 0x3A08 JUMP JUMPDEST SWAP1 POP JUMPDEST PUSH1 0x1 DUP2 GT ISZERO PUSH2 0x32E6 JUMPI PUSH16 0x181899199A1A9B1B9C1CB0B131B232B3 PUSH1 0x81 SHL DUP6 PUSH1 0xF AND PUSH1 0x10 DUP2 LT PUSH2 0x32A2 JUMPI PUSH2 0x32A2 PUSH2 0x3889 JUMP JUMPDEST BYTE PUSH1 0xF8 SHL DUP3 DUP3 DUP2 MLOAD DUP2 LT PUSH2 0x32B8 JUMPI PUSH2 0x32B8 PUSH2 0x3889 JUMP JUMPDEST PUSH1 0x20 ADD ADD SWAP1 PUSH1 0x1 PUSH1 0x1 PUSH1 0xF8 SHL SUB NOT AND SWAP1 DUP2 PUSH1 0x0 BYTE SWAP1 MSTORE8 POP PUSH1 0x4 SWAP5 SWAP1 SWAP5 SHR SWAP4 PUSH2 0x32DF DUP2 PUSH2 0x3B81 JUMP JUMPDEST SWAP1 POP PUSH2 0x3271 JUMP JUMPDEST POP DUP4 ISZERO PUSH2 0x18B1 JUMPI PUSH1 0x40 MLOAD PUSH3 0x461BCD PUSH1 0xE5 SHL DUP2 MSTORE PUSH1 0x20 PUSH1 0x4 DUP3 ADD DUP2 SWAP1 MSTORE PUSH1 0x24 DUP3 ADD MSTORE PUSH32 0x537472696E67733A20686578206C656E67746820696E73756666696369656E74 PUSH1 0x44 DUP3 ADD MSTORE PUSH1 0x64 ADD PUSH2 0x76E JUMP JUMPDEST PUSH2 0x333F DUP3 DUP3 PUSH2 0x211B JUMP JUMPDEST ISZERO PUSH2 0x2F12 JUMPI PUSH1 0x0 DUP3 DUP2 MSTORE PUSH1 0x20 DUP2 DUP2 MSTORE PUSH1 0x40 DUP1 DUP4 KECCAK256 PUSH1 0x1 PUSH1 0x1 PUSH1 0xA0 SHL SUB DUP6 AND DUP1 DUP6 MSTORE SWAP3 MSTORE DUP1 DUP4 KECCAK256 DUP1 SLOAD PUSH1 0xFF NOT AND SWAP1 SSTORE MLOAD CALLER SWAP3 DUP6 SWAP2 PUSH32 0xF6391F5C32D9C69D2A47EA670B442974B53935D1EDC7FD64EB21E047A839171B SWAP2 SWAP1 LOG4 POP POP JUMP JUMPDEST PUSH1 0x0 DUP2 DUP2 MSTORE PUSH1 0x1 DUP4 ADD PUSH1 0x20 MSTORE PUSH1 0x40 DUP2 KECCAK256 SLOAD DUP1 ISZERO PUSH2 0x18ED JUMPI PUSH1 0x0 PUSH2 0x33BE PUSH1 0x1 DUP4 PUSH2 0x3A20 JUMP JUMPDEST DUP6 SLOAD SWAP1 SWAP2 POP PUSH1 0x0 SWAP1 PUSH2 0x33D2 SWAP1 PUSH1 0x1 SWAP1 PUSH2 0x3A20 JUMP JUMPDEST SWAP1 POP DUP2 DUP2 EQ PUSH2 0x3437 JUMPI PUSH1 0x0 DUP7 PUSH1 0x0 ADD DUP3 DUP2 SLOAD DUP2 LT PUSH2 0x33F2 JUMPI PUSH2 0x33F2 PUSH2 0x3889 JUMP JUMPDEST SWAP1 PUSH1 0x0 MSTORE PUSH1 0x20 PUSH1 0x0 KECCAK256 ADD SLOAD SWAP1 POP DUP1 DUP8 PUSH1 0x0 ADD DUP5 DUP2 SLOAD DUP2 LT PUSH2 0x3415 JUMPI PUSH2 0x3415 PUSH2 0x3889 JUMP JUMPDEST PUSH1 0x0 SWAP2 DUP3 MSTORE PUSH1 0x20 DUP1 DUP4 KECCAK256 SWAP1 SWAP2 ADD SWAP3 SWAP1 SWAP3 SSTORE SWAP2 DUP3 MSTORE PUSH1 0x1 DUP9 ADD SWAP1 MSTORE PUSH1 0x40 SWAP1 KECCAK256 DUP4 SWAP1 SSTORE JUMPDEST DUP6 SLOAD DUP7 SWAP1 DUP1 PUSH2 0x3448 JUMPI PUSH2 0x3448 PUSH2 0x3B98 JUMP JUMPDEST PUSH1 0x1 SWAP1 SUB DUP2 DUP2 SWAP1 PUSH1 0x0 MSTORE PUSH1 0x20 PUSH1 0x0 KECCAK256 ADD PUSH1 0x0 SWAP1 SSTORE SWAP1 SSTORE DUP6 PUSH1 0x1 ADD PUSH1 0x0 DUP7 DUP2 MSTORE PUSH1 0x20 ADD SWAP1 DUP2 MSTORE PUSH1 0x20 ADD PUSH1 0x0 KECCAK256 PUSH1 0x0 SWAP1 SSTORE PUSH1 0x1 SWAP4 POP POP POP POP PUSH2 0x5D7 JUMP JUMPDEST PUSH1 0x0 DUP3 PUSH1 0x0 ADD DUP3 DUP2 SLOAD DUP2 LT PUSH2 0x349A JUMPI PUSH2 0x349A PUSH2 0x3889 JUMP JUMPDEST SWAP1 PUSH1 0x0 MSTORE PUSH1 0x20 PUSH1 0x0 KECCAK256 ADD SLOAD SWAP1 POP SWAP3 SWAP2 POP POP JUMP JUMPDEST PUSH1 0x0 PUSH1 0x20 DUP3 DUP5 SUB SLT ISZERO PUSH2 0x34BF JUMPI PUSH1 0x0 DUP1 REVERT JUMPDEST DUP2 CALLDATALOAD PUSH1 0x1 PUSH1 0x1 PUSH1 0xE0 SHL SUB NOT DUP2 AND DUP2 EQ PUSH2 0x18B1 JUMPI PUSH1 0x0 DUP1 REVERT JUMPDEST PUSH1 0x0 DUP1 DUP4 PUSH1 0x1F DUP5 ADD SLT PUSH2 0x34E9 JUMPI PUSH1 0x0 DUP1 REVERT JUMPDEST POP DUP2 CALLDATALOAD PUSH8 0xFFFFFFFFFFFFFFFF DUP2 GT ISZERO PUSH2 0x3501 JUMPI PUSH1 0x0 DUP1 REVERT JUMPDEST PUSH1 0x20 DUP4 ADD SWAP2 POP DUP4 PUSH1 0x20 DUP3 PUSH1 0x6 SHL DUP6 ADD ADD GT ISZERO PUSH2 0x351C JUMPI PUSH1 0x0 DUP1 REVERT JUMPDEST SWAP3 POP SWAP3 SWAP1 POP JUMP JUMPDEST PUSH1 0x0 DUP1 PUSH1 0x20 DUP4 DUP6 SUB SLT ISZERO PUSH2 0x3536 JUMPI PUSH1 0x0 DUP1 REVERT JUMPDEST DUP3 CALLDATALOAD PUSH8 0xFFFFFFFFFFFFFFFF DUP2 GT ISZERO PUSH2 0x354D JUMPI PUSH1 0x0 DUP1 REVERT JUMPDEST PUSH2 0x3559 DUP6 DUP3 DUP7 ADD PUSH2 0x34D7 JUMP JUMPDEST SWAP1 SWAP7 SWAP1 SWAP6 POP SWAP4 POP POP POP POP JUMP JUMPDEST PUSH1 0x0 PUSH1 0x20 DUP3 DUP5 SUB SLT ISZERO PUSH2 0x3577 JUMPI PUSH1 0x0 DUP1 REVERT JUMPDEST POP CALLDATALOAD SWAP2 SWAP1 POP JUMP JUMPDEST PUSH1 0x0 PUSH2 0x100 DUP3 DUP5 SUB SLT ISZERO PUSH2 0x3084 JUMPI PUSH1 0x0 DUP1 REVERT JUMPDEST PUSH4 0x4E487B71 PUSH1 0xE0 SHL PUSH1 0x0 MSTORE PUSH1 0x41 PUSH1 0x4 MSTORE PUSH1 0x24 PUSH1 0x0 REVERT JUMPDEST PUSH1 0x0 PUSH1 0x40 DUP3 DUP5 SUB SLT ISZERO PUSH2 0x35B9 JUMPI PUSH1 0x0 DUP1 REVERT JUMPDEST PUSH1 0x40 MLOAD PUSH1 0x40 DUP2 ADD DUP2 DUP2 LT PUSH8 0xFFFFFFFFFFFFFFFF DUP3 GT OR ISZERO PUSH2 0x35EA JUMPI PUSH4 0x4E487B71 PUSH1 0xE0 SHL PUSH1 0x0 MSTORE PUSH1 0x41 PUSH1 0x4 MSTORE PUSH1 0x24 PUSH1 0x0 REVERT JUMPDEST PUSH1 0x40 MSTORE DUP3 CALLDATALOAD DUP2 MSTORE PUSH1 0x20 SWAP3 DUP4 ADD CALLDATALOAD SWAP3 DUP2 ADD SWAP3 SWAP1 SWAP3 MSTORE POP SWAP2 SWAP1 POP JUMP JUMPDEST PUSH1 0x1 PUSH1 0x1 PUSH1 0xA0 SHL SUB DUP2 AND DUP2 EQ PUSH2 0x3619 JUMPI PUSH1 0x0 DUP1 REVERT JUMPDEST POP JUMP JUMPDEST PUSH1 0x0 DUP1 PUSH1 0x40 DUP4 DUP6 SUB SLT ISZERO PUSH2 0x362F JUMPI PUSH1 0x0 DUP1 REVERT JUMPDEST DUP3 CALLDATALOAD SWAP2 POP PUSH1 0x20 DUP4 ADD CALLDATALOAD PUSH2 0x3641 DUP2 PUSH2 0x3604 JUMP JUMPDEST DUP1 SWAP2 POP POP SWAP3 POP SWAP3 SWAP1 POP JUMP JUMPDEST PUSH1 0x0 DUP1 DUP4 PUSH1 0x1F DUP5 ADD SLT PUSH2 0x365E JUMPI PUSH1 0x0 DUP1 REVERT JUMPDEST POP DUP2 CALLDATALOAD PUSH8 0xFFFFFFFFFFFFFFFF DUP2 GT ISZERO PUSH2 0x3676 JUMPI PUSH1 0x0 DUP1 REVERT JUMPDEST PUSH1 0x20 DUP4 ADD SWAP2 POP DUP4 PUSH1 0x20 DUP3 PUSH1 0x5 SHL DUP6 ADD ADD GT ISZERO PUSH2 0x351C JUMPI PUSH1 0x0 DUP1 REVERT JUMPDEST PUSH1 0x0 DUP1 PUSH1 0x20 DUP4 DUP6 SUB SLT ISZERO PUSH2 0x36A4 JUMPI PUSH1 0x0 DUP1 REVERT JUMPDEST DUP3 CALLDATALOAD PUSH8 0xFFFFFFFFFFFFFFFF DUP2 GT ISZERO PUSH2 0x36BB JUMPI PUSH1 0x0 DUP1 REVERT JUMPDEST PUSH2 0x3559 DUP6 DUP3 DUP7 ADD PUSH2 0x364C JUMP JUMPDEST PUSH1 0x0 DUP1 PUSH1 0x40 DUP4 DUP6 SUB SLT ISZERO PUSH2 0x36DA JUMPI PUSH1 0x0 DUP1 REVERT JUMPDEST POP POP DUP1 CALLDATALOAD SWAP3 PUSH1 0x20 SWAP1 SWAP2 ADD CALLDATALOAD SWAP2 POP JUMP JUMPDEST PUSH1 0x0 PUSH1 0xC0 DUP3 DUP5 SUB SLT ISZERO PUSH2 0x36FB JUMPI PUSH1 0x0 DUP1 REVERT JUMPDEST PUSH1 0x40 MLOAD PUSH1 0xC0 DUP2 ADD DUP2 DUP2 LT PUSH8 0xFFFFFFFFFFFFFFFF DUP3 GT OR ISZERO PUSH2 0x372C JUMPI PUSH4 0x4E487B71 PUSH1 0xE0 SHL PUSH1 0x0 MSTORE PUSH1 0x41 PUSH1 0x4 MSTORE PUSH1 0x24 PUSH1 0x0 REVERT JUMPDEST PUSH1 0x40 MSTORE SWAP1 POP DUP1 DUP3 CALLDATALOAD PUSH2 0x373D DUP2 PUSH2 0x3604 JUMP JUMPDEST DUP1 DUP3 MSTORE POP PUSH1 0x20 DUP4 ADD CALLDATALOAD PUSH1 0x20 DUP3 ADD MSTORE PUSH1 0x40 DUP4 ADD CALLDATALOAD PUSH1 0x40 DUP3 ADD MSTORE PUSH1 0x60 DUP4 ADD CALLDATALOAD PUSH1 0x60 DUP3 ADD MSTORE PUSH1 0x80 DUP4 ADD CALLDATALOAD PUSH1 0x80 DUP3 ADD MSTORE PUSH1 0xA0 DUP4 ADD CALLDATALOAD PUSH1 0xA0 DUP3 ADD MSTORE POP SWAP3 SWAP2 POP POP JUMP JUMPDEST PUSH1 0x0 DUP1 PUSH1 0xE0 DUP4 DUP6 SUB SLT ISZERO PUSH2 0x378D JUMPI PUSH1 0x0 DUP1 REVERT JUMPDEST PUSH2 0x3797 DUP5 DUP5 PUSH2 0x36E9 JUMP JUMPDEST SWAP5 PUSH1 0xC0 SWAP4 SWAP1 SWAP4 ADD CALLDATALOAD SWAP4 POP POP POP JUMP JUMPDEST PUSH1 0x0 DUP1 PUSH1 0x0 PUSH1 0x60 DUP5 DUP7 SUB SLT ISZERO PUSH2 0x37BA JUMPI PUSH1 0x0 DUP1 REVERT JUMPDEST POP POP DUP2 CALLDATALOAD SWAP4 PUSH1 0x20 DUP4 ADD CALLDATALOAD SWAP4 POP PUSH1 0x40 SWAP1 SWAP3 ADD CALLDATALOAD SWAP2 SWAP1 POP JUMP JUMPDEST PUSH1 0x0 DUP1 PUSH1 0x40 DUP4 DUP6 SUB SLT ISZERO PUSH2 0x37E4 JUMPI PUSH1 0x0 DUP1 REVERT JUMPDEST DUP3 CALLDATALOAD PUSH2 0x37EF DUP2 PUSH2 0x3604 JUMP JUMPDEST SWAP5 PUSH1 0x20 SWAP4 SWAP1 SWAP4 ADD CALLDATALOAD SWAP4 POP POP POP JUMP JUMPDEST PUSH1 0x0 DUP1 PUSH1 0x0 PUSH2 0x100 DUP5 DUP7 SUB SLT ISZERO PUSH2 0x3813 JUMPI PUSH1 0x0 DUP1 REVERT JUMPDEST PUSH2 0x381D DUP6 DUP6 PUSH2 0x36E9 JUMP JUMPDEST SWAP6 PUSH1 0xC0 DUP6 ADD CALLDATALOAD SWAP6 POP PUSH1 0xE0 SWAP1 SWAP5 ADD CALLDATALOAD SWAP4 SWAP3 POP POP POP JUMP JUMPDEST PUSH1 0x0 DUP1 PUSH1 0x0 PUSH1 0x40 DUP5 DUP7 SUB SLT ISZERO PUSH2 0x3847 JUMPI PUSH1 0x0 DUP1 REVERT JUMPDEST DUP4 CALLDATALOAD PUSH8 0xFFFFFFFFFFFFFFFF DUP2 GT ISZERO PUSH2 0x385E JUMPI PUSH1 0x0 DUP1 REVERT JUMPDEST PUSH2 0x386A DUP7 DUP3 DUP8 ADD PUSH2 0x364C JUMP JUMPDEST SWAP1 SWAP5 POP SWAP3 POP POP PUSH1 0x20 DUP5 ADD CALLDATALOAD PUSH2 0x387E DUP2 PUSH2 0x3604 JUMP JUMPDEST DUP1 SWAP2 POP POP SWAP3 POP SWAP3 POP SWAP3 JUMP JUMPDEST PUSH4 0x4E487B71 PUSH1 0xE0 SHL PUSH1 0x0 MSTORE PUSH1 0x32 PUSH1 0x4 MSTORE PUSH1 0x24 PUSH1 0x0 REVERT JUMPDEST PUSH1 0x0 PUSH1 0x20 DUP3 DUP5 SUB SLT ISZERO PUSH2 0x38B1 JUMPI PUSH1 0x0 DUP1 REVERT JUMPDEST DUP2 CALLDATALOAD PUSH2 0x18B1 DUP2 PUSH2 0x3604 JUMP JUMPDEST PUSH4 0x4E487B71 PUSH1 0xE0 SHL PUSH1 0x0 MSTORE PUSH1 0x11 PUSH1 0x4 MSTORE PUSH1 0x24 PUSH1 0x0 REVERT JUMPDEST PUSH1 0x0 PUSH1 0x0 NOT DUP3 EQ ISZERO PUSH2 0x38E6 JUMPI PUSH2 0x38E6 PUSH2 0x38BC JUMP JUMPDEST POP PUSH1 0x1 ADD SWAP1 JUMP JUMPDEST PUSH1 0x0 PUSH1 0x20 DUP3 DUP5 SUB SLT ISZERO PUSH2 0x38FF JUMPI PUSH1 0x0 DUP1 REVERT JUMPDEST DUP2 MLOAD PUSH2 0x18B1 DUP2 PUSH2 0x3604 JUMP JUMPDEST PUSH1 0x0 PUSH1 0x20 DUP3 DUP5 SUB SLT ISZERO PUSH2 0x391C JUMPI PUSH1 0x0 DUP1 REVERT JUMPDEST DUP2 MLOAD DUP1 ISZERO ISZERO DUP2 EQ PUSH2 0x18B1 JUMPI PUSH1 0x0 DUP1 REVERT JUMPDEST PUSH1 0x20 DUP1 DUP3 MSTORE PUSH1 0x1C SWAP1 DUP3 ADD MSTORE PUSH32 0x53533A204F6E6C79207265616C20757365727320616C6C6F7765642100000000 PUSH1 0x40 DUP3 ADD MSTORE PUSH1 0x60 ADD SWAP1 JUMP JUMPDEST PUSH1 0x20 DUP1 DUP3 MSTORE PUSH1 0x1E SWAP1 DUP3 ADD MSTORE PUSH32 0x53533A205374616B65206F776E657220646F6573206E6F74206D617463680000 PUSH1 0x40 DUP3 ADD MSTORE PUSH1 0x60 ADD SWAP1 JUMP JUMPDEST PUSH1 0x20 DUP1 DUP3 MSTORE PUSH1 0x18 SWAP1 DUP3 ADD MSTORE PUSH32 0x53533A205374616B6520646F6573206E6F742065786973740000000000000000 PUSH1 0x40 DUP3 ADD MSTORE PUSH1 0x60 ADD SWAP1 JUMP JUMPDEST PUSH1 0x20 DUP1 DUP3 MSTORE PUSH1 0x1B SWAP1 DUP3 ADD MSTORE PUSH32 0x53533A205374616B652077617320616C726561647920656E6465640000000000 PUSH1 0x40 DUP3 ADD MSTORE PUSH1 0x60 ADD SWAP1 JUMP JUMPDEST PUSH1 0x0 DUP3 NOT DUP3 GT ISZERO PUSH2 0x3A1B JUMPI PUSH2 0x3A1B PUSH2 0x38BC JUMP JUMPDEST POP ADD SWAP1 JUMP JUMPDEST PUSH1 0x0 DUP3 DUP3 LT ISZERO PUSH2 0x3A32 JUMPI PUSH2 0x3A32 PUSH2 0x38BC JUMP JUMPDEST POP SUB SWAP1 JUMP JUMPDEST PUSH1 0x0 DUP2 PUSH1 0x0 NOT DIV DUP4 GT DUP3 ISZERO ISZERO AND ISZERO PUSH2 0x3A51 JUMPI PUSH2 0x3A51 PUSH2 0x38BC JUMP JUMPDEST POP MUL SWAP1 JUMP JUMPDEST PUSH4 0x4E487B71 PUSH1 0xE0 SHL PUSH1 0x0 MSTORE PUSH1 0x12 PUSH1 0x4 MSTORE PUSH1 0x24 PUSH1 0x0 REVERT JUMPDEST PUSH1 0x0 DUP3 PUSH2 0x3A7B JUMPI PUSH2 0x3A7B PUSH2 0x3A56 JUMP JUMPDEST POP DIV SWAP1 JUMP JUMPDEST PUSH1 0x0 PUSH1 0x20 DUP3 DUP5 SUB SLT ISZERO PUSH2 0x3A92 JUMPI PUSH1 0x0 DUP1 REVERT JUMPDEST POP MLOAD SWAP2 SWAP1 POP JUMP JUMPDEST PUSH1 0x0 DUP3 PUSH2 0x3AA8 JUMPI PUSH2 0x3AA8 PUSH2 0x3A56 JUMP JUMPDEST POP MOD SWAP1 JUMP JUMPDEST PUSH1 0x0 JUMPDEST DUP4 DUP2 LT ISZERO PUSH2 0x3AC8 JUMPI DUP2 DUP2 ADD MLOAD DUP4 DUP3 ADD MSTORE PUSH1 0x20 ADD PUSH2 0x3AB0 JUMP JUMPDEST DUP4 DUP2 GT ISZERO PUSH2 0x654 JUMPI POP POP PUSH1 0x0 SWAP2 ADD MSTORE JUMP JUMPDEST PUSH32 0x416363657373436F6E74726F6C3A206163636F756E7420000000000000000000 DUP2 MSTORE PUSH1 0x0 DUP4 MLOAD PUSH2 0x3B11 DUP2 PUSH1 0x17 DUP6 ADD PUSH1 0x20 DUP9 ADD PUSH2 0x3AAD JUMP JUMPDEST PUSH17 0x1034B99036B4B9B9B4B733903937B6329 PUSH1 0x7D SHL PUSH1 0x17 SWAP2 DUP5 ADD SWAP2 DUP3 ADD MSTORE DUP4 MLOAD PUSH2 0x3B42 DUP2 PUSH1 0x28 DUP5 ADD PUSH1 0x20 DUP9 ADD PUSH2 0x3AAD JUMP JUMPDEST ADD PUSH1 0x28 ADD SWAP5 SWAP4 POP POP POP POP JUMP JUMPDEST PUSH1 0x20 DUP2 MSTORE PUSH1 0x0 DUP3 MLOAD DUP1 PUSH1 0x20 DUP5 ADD MSTORE PUSH2 0x3B6D DUP2 PUSH1 0x40 DUP6 ADD PUSH1 0x20 DUP8 ADD PUSH2 0x3AAD JUMP JUMPDEST PUSH1 0x1F ADD PUSH1 0x1F NOT AND SWAP2 SWAP1 SWAP2 ADD PUSH1 0x40 ADD SWAP3 SWAP2 POP POP JUMP JUMPDEST PUSH1 0x0 DUP2 PUSH2 0x3B90 JUMPI PUSH2 0x3B90 PUSH2 0x38BC JUMP JUMPDEST POP PUSH1 0x0 NOT ADD SWAP1 JUMP JUMPDEST PUSH4 0x4E487B71 PUSH1 0xE0 SHL PUSH1 0x0 MSTORE PUSH1 0x31 PUSH1 0x4 MSTORE PUSH1 0x24 PUSH1 0x0 REVERT INVALID LOG2 PUSH5 0x6970667358 0x22 SLT KECCAK256 MULMOD CALL PUSH14 0x5824EF5CD0E887CB5E81D8D9A515 PUSH7 0x5D79F40831B719 0x2C 0xC3 0xBD 0x26 0xC7 0x21 LOG0 PUSH5 0x736F6C6343 STOP ADDMOD MULMOD STOP CALLER BLOCKHASH JUMPI DUP8 STATICCALL SLT 0xA8 0x23 0xE0 CALLCODE 0xB7 PUSH4 0x1CC41B3B 0xA8 DUP3 DUP12 CALLER 0x21 0xCA DUP2 GT GT STATICCALL PUSH22 0xCD3AA3BB5ACEC2575A0E9E593C00F959F8C92F12DB28 PUSH10 0xC3395A3B0502D05E2516 DIFFICULTY PUSH16 0x71F85B405787FA12A823E0F2B7631CC4 SHL EXTCODESIZE 0xA8 DUP3 DUP12 CALLER 0x21 0xCA DUP2 GT GT STATICCALL PUSH22 0xCD3AA3BB5ACF45BC90C5E61BE4D79E2F0C1154A66333 0x2B 0xBC 0xCF PUSH11 0x26759463D04772164EEBFE 0xD2 BLOCKHASH JUMPI DUP8 STATICCALL SLT 0xA8 0x23 0xE0 CALLCODE 0xB7 PUSH4 0x1CC41B3B 0xA8 DUP3 DUP12 CALLER 0x21 0xCA DUP2 GT GT STATICCALL PUSH22 0xCD3AA3BB5AD000000000000000000000000000000000 "
		},
		"gasEstimates": {
			"creation": {
				"codeDepositCost": "3066400",
				"executionCost": "infinite",
				"totalCost": "infinite"
			},
			"external": {
				"ROLE_ADMIN()": "284",
				"adminBurnAndAddToStakersInflation(address,uint256)": "infinite",
				"adminUpdateSettings((uint256,uint256,uint256,uint256,uint256,uint256,uint256,uint256))": "infinite",
				"bulkEndStake(uint256[])": "infinite",
				"bulkScrapeStake(uint256[])": "infinite",
				"bulkStartStake((uint256,uint256)[])": "infinite",
				"bulkTransferOwnership(uint256[],address)": "infinite",
				"cachedInterestPerShare(uint256)": "4687",
				"dailySnapshots(uint256)": "8903",
				"endStake(uint256)": "infinite",
				"getCachedInterestPerShareLength()": "2381",
				"getCurrentCachedPerShareDay()": "infinite",
				"getCurrentDaySinceLaunch()": "infinite",
				"getDailySnapshotsLength()": "2403",
				"getInterestById(uint256,uint256)": "infinite",
				"getInterestByStake((address,uint256,uint256,uint256,uint256,uint256),uint256)": "infinite",
				"getPenaltyById(uint256,uint256,uint256)": "infinite",
				"getPenaltyByStake((address,uint256,uint256,uint256,uint256,uint256),uint256,uint256)": "infinite",
				"getRoleAdmin(bytes32)": "2537",
				"getRoleMember(bytes32,uint256)": "infinite",
				"getRoleMemberCount(bytes32)": "infinite",
				"getSharesCountById(uint256,uint256)": "infinite",
				"getSharesCountByStake((address,uint256,uint256,uint256,uint256,uint256),uint256)": "infinite",
				"getStakesLength()": "2426",
				"getTotalTokensStaked()": "infinite",
				"grantRole(bytes32,address)": "infinite",
				"grantRolesBulk((bytes32,address)[])": "infinite",
				"hasRole(bytes32,address)": "2762",
				"launchTimestamp()": "2428",
				"renounceRole(bytes32,address)": "infinite",
				"revokeRole(bytes32,address)": "infinite",
				"scrapeStake(uint256)": "infinite",
				"settings()": "17241",
				"stakes(uint256)": "15337",
				"startStake((uint256,uint256))": "infinite",
				"supportsInterface(bytes4)": "infinite",
				"transferOwnership(uint256,address)": "infinite",
				"updateAllSnapshots()": "infinite",
				"updateSnapshots(uint256)": "infinite"
			},
			"internal": {
				"minOfTwoUints(uint256,uint256)": "64"
			}
		},
		"methodIdentifiers": {
			"ROLE_ADMIN()": "d391014b",
			"adminBurnAndAddToStakersInflation(address,uint256)": "95f6f5d2",
			"adminUpdateSettings((uint256,uint256,uint256,uint256,uint256,uint256,uint256,uint256))": "0ffed08a",
			"bulkEndStake(uint256[])": "2a486b90",
			"bulkScrapeStake(uint256[])": "5540be7d",
			"bulkStartStake((uint256,uint256)[])": "1f009bdb",
			"bulkTransferOwnership(uint256[],address)": "e59443e6",
			"cachedInterestPerShare(uint256)": "27de406f",
			"dailySnapshots(uint256)": "a2ac13d3",
			"endStake(uint256)": "0cbe28d6",
			"getCachedInterestPerShareLength()": "58962a38",
			"getCurrentCachedPerShareDay()": "c82e3067",
			"getCurrentDaySinceLaunch()": "e99884a3",
			"getDailySnapshotsLength()": "5a49e94d",
			"getInterestById(uint256,uint256)": "388a1a81",
			"getInterestByStake((address,uint256,uint256,uint256,uint256,uint256),uint256)": "b471468d",
			"getPenaltyById(uint256,uint256,uint256)": "82c44854",
			"getPenaltyByStake((address,uint256,uint256,uint256,uint256,uint256),uint256,uint256)": "b1b63dfc",
			"getRoleAdmin(bytes32)": "248a9ca3",
			"getRoleMember(bytes32,uint256)": "9010d07c",
			"getRoleMemberCount(bytes32)": "ca15c873",
			"getSharesCountById(uint256,uint256)": "ea580bf2",
			"getSharesCountByStake((address,uint256,uint256,uint256,uint256,uint256),uint256)": "4d9dae0e",
			"getStakesLength()": "4bade67e",
			"getTotalTokensStaked()": "c763e2fc",
			"grantRole(bytes32,address)": "2f2ff15d",
			"grantRolesBulk((bytes32,address)[])": "03ed957f",
			"hasRole(bytes32,address)": "91d14854",
			"launchTimestamp()": "65cf7c9b",
			"renounceRole(bytes32,address)": "36568abe",
			"revokeRole(bytes32,address)": "d547741f",
			"scrapeStake(uint256)": "7ba4bcfb",
			"settings()": "e06174e4",
			"stakes(uint256)": "d5a44f86",
			"startStake((uint256,uint256))": "1e22ddc7",
			"supportsInterface(bytes4)": "01ffc9a7",
			"transferOwnership(uint256,address)": "29507f73",
			"updateAllSnapshots()": "d50116b8",
			"updateSnapshots(uint256)": "ad110a67"
		}
	},
	"abi": [
		{
			"inputs": [],
			"stateMutability": "nonpayable",
			"type": "constructor"
		},
		{
			"anonymous": false,
			"inputs": [
				{
					"indexed": false,
					"internalType": "address",
					"name": "fromAddr",
					"type": "address"
				},
				{
					"indexed": false,
					"internalType": "uint256",
					"name": "amountToBurn",
					"type": "uint256"
				},
				{
					"indexed": false,
					"internalType": "uint256",
					"name": "currentDay",
					"type": "uint256"
				}
			],
			"name": "BurnedAndAddedToStakersInflation",
			"type": "event"
		},
		{
			"anonymous": false,
			"inputs": [
				{
					"indexed": false,
					"internalType": "uint256",
					"name": "sealedDay",
					"type": "uint256"
				},
				{
					"indexed": false,
					"internalType": "uint256",
					"name": "sealedCachedDay",
					"type": "uint256"
				},
				{
					"indexed": false,
					"internalType": "uint256",
					"name": "cachedInterestPerShare",
					"type": "uint256"
				}
			],
			"name": "CachedInterestPerShareSealed",
			"type": "event"
		},
		{
			"anonymous": false,
			"inputs": [
				{
					"indexed": false,
					"internalType": "uint256",
					"name": "sealedDay",
					"type": "uint256"
				},
				{
					"indexed": false,
					"internalType": "uint256",
					"name": "inflationAmount",
					"type": "uint256"
				},
				{
					"indexed": false,
					"internalType": "uint256",
					"name": "totalShares",
					"type": "uint256"
				},
				{
					"indexed": false,
					"internalType": "uint256",
					"name": "sharePrice",
					"type": "uint256"
				},
				{
					"indexed": false,
					"internalType": "uint256",
					"name": "totalStaked",
					"type": "uint256"
				},
				{
					"indexed": false,
					"internalType": "uint256",
					"name": "totalSupply",
					"type": "uint256"
				}
			],
			"name": "DailySnapshotSealed",
			"type": "event"
		},
		{
			"anonymous": false,
			"inputs": [
				{
					"indexed": false,
					"internalType": "uint256",
					"name": "newSharePrice",
					"type": "uint256"
				}
			],
			"name": "NewMaxSharePriceReached",
			"type": "event"
		},
		{
			"anonymous": false,
			"inputs": [
				{
					"indexed": true,
					"internalType": "bytes32",
					"name": "role",
					"type": "bytes32"
				},
				{
					"indexed": true,
					"internalType": "bytes32",
					"name": "previousAdminRole",
					"type": "bytes32"
				},
				{
					"indexed": true,
					"internalType": "bytes32",
					"name": "newAdminRole",
					"type": "bytes32"
				}
			],
			"name": "RoleAdminChanged",
			"type": "event"
		},
		{
			"anonymous": false,
			"inputs": [
				{
					"indexed": true,
					"internalType": "bytes32",
					"name": "role",
					"type": "bytes32"
				},
				{
					"indexed": true,
					"internalType": "address",
					"name": "account",
					"type": "address"
				},
				{
					"indexed": true,
					"internalType": "address",
					"name": "sender",
					"type": "address"
				}
			],
			"name": "RoleGranted",
			"type": "event"
		},
		{
			"anonymous": false,
			"inputs": [
				{
					"indexed": true,
					"internalType": "bytes32",
					"name": "role",
					"type": "bytes32"
				},
				{
					"indexed": true,
					"internalType": "address",
					"name": "account",
					"type": "address"
				},
				{
					"indexed": true,
					"internalType": "address",
					"name": "sender",
					"type": "address"
				}
			],
			"name": "RoleRevoked",
			"type": "event"
		},
		{
			"anonymous": false,
			"inputs": [
				{
					"components": [
						{
							"internalType": "uint256",
							"name": "MINIMUM_DAYS_FOR_HIGH_PENALTY",
							"type": "uint256"
						},
						{
							"internalType": "uint256",
							"name": "CONTROLLED_APY",
							"type": "uint256"
						},
						{
							"internalType": "uint256",
							"name": "SMALLER_PAYS_BETTER_BONUS",
							"type": "uint256"
						},
						{
							"internalType": "uint256",
							"name": "LONGER_PAYS_BETTER_BONUS",
							"type": "uint256"
						},
						{
							"internalType": "uint256",
							"name": "END_STAKE_FROM",
							"type": "uint256"
						},
						{
							"internalType": "uint256",
							"name": "END_STAKE_TO",
							"type": "uint256"
						},
						{
							"internalType": "uint256",
							"name": "MINIMUM_STAKE_DAYS",
							"type": "uint256"
						},
						{
							"internalType": "uint256",
							"name": "MAXIMUM_STAKE_DAYS",
							"type": "uint256"
						}
					],
					"indexed": false,
					"internalType": "struct Settings",
					"name": "Settings",
					"type": "tuple"
				}
			],
			"name": "SettingsUpdated",
			"type": "event"
		},
		{
			"anonymous": false,
			"inputs": [
				{
					"indexed": false,
					"internalType": "uint256",
					"name": "stakeId",
					"type": "uint256"
				},
				{
					"indexed": false,
					"internalType": "uint256",
					"name": "endDay",
					"type": "uint256"
				},
				{
					"indexed": false,
					"internalType": "uint256",
					"name": "interest",
					"type": "uint256"
				},
				{
					"indexed": false,
					"internalType": "uint256",
					"name": "penalty",
					"type": "uint256"
				}
			],
			"name": "StakeEnded",
			"type": "event"
		},
		{
			"anonymous": false,
			"inputs": [
				{
					"indexed": false,
					"internalType": "uint256",
					"name": "stakeId",
					"type": "uint256"
				},
				{
					"indexed": false,
					"internalType": "address",
					"name": "newOwner",
					"type": "address"
				}
			],
			"name": "StakeOwnerChanged",
			"type": "event"
		},
		{
			"anonymous": false,
			"inputs": [
				{
					"indexed": false,
					"internalType": "uint256",
					"name": "stakeId",
					"type": "uint256"
				},
				{
					"indexed": false,
					"internalType": "address",
					"name": "owner",
					"type": "address"
				},
				{
					"indexed": false,
					"internalType": "uint256",
					"name": "stakedAmount",
					"type": "uint256"
				},
				{
					"indexed": false,
					"internalType": "uint256",
					"name": "startDay",
					"type": "uint256"
				},
				{
					"indexed": false,
					"internalType": "uint256",
					"name": "lockedForXDays",
					"type": "uint256"
				},
				{
					"indexed": false,
					"internalType": "uint256",
					"name": "sharesCount",
					"type": "uint256"
				}
			],
			"name": "StakeStarted",
			"type": "event"
		},
		{
			"anonymous": false,
			"inputs": [
				{
					"indexed": false,
					"internalType": "uint256",
					"name": "stakeId",
					"type": "uint256"
				},
				{
					"indexed": false,
					"internalType": "uint256",
					"name": "lockedForXDays",
					"type": "uint256"
				},
				{
					"indexed": false,
					"internalType": "uint256",
					"name": "sharesCount",
					"type": "uint256"
				}
			],
			"name": "StakeUpdated",
			"type": "event"
		},
		{
			"inputs": [],
			"name": "ROLE_ADMIN",
			"outputs": [
				{
					"internalType": "bytes32",
					"name": "",
					"type": "bytes32"
				}
			],
			"stateMutability": "view",
			"type": "function"
		},
		{
			"inputs": [
				{
					"internalType": "address",
					"name": "fromAddr",
					"type": "address"
				},
				{
					"internalType": "uint256",
					"name": "amountToBurn",
					"type": "uint256"
				}
			],
			"name": "adminBurnAndAddToStakersInflation",
			"outputs": [],
			"stateMutability": "nonpayable",
			"type": "function"
		},
		{
			"inputs": [
				{
					"components": [
						{
							"internalType": "uint256",
							"name": "MINIMUM_DAYS_FOR_HIGH_PENALTY",
							"type": "uint256"
						},
						{
							"internalType": "uint256",
							"name": "CONTROLLED_APY",
							"type": "uint256"
						},
						{
							"internalType": "uint256",
							"name": "SMALLER_PAYS_BETTER_BONUS",
							"type": "uint256"
						},
						{
							"internalType": "uint256",
							"name": "LONGER_PAYS_BETTER_BONUS",
							"type": "uint256"
						},
						{
							"internalType": "uint256",
							"name": "END_STAKE_FROM",
							"type": "uint256"
						},
						{
							"internalType": "uint256",
							"name": "END_STAKE_TO",
							"type": "uint256"
						},
						{
							"internalType": "uint256",
							"name": "MINIMUM_STAKE_DAYS",
							"type": "uint256"
						},
						{
							"internalType": "uint256",
							"name": "MAXIMUM_STAKE_DAYS",
							"type": "uint256"
						}
					],
					"internalType": "struct Settings",
					"name": "_settings",
					"type": "tuple"
				}
			],
			"name": "adminUpdateSettings",
			"outputs": [],
			"stateMutability": "nonpayable",
			"type": "function"
		},
		{
			"inputs": [
				{
					"internalType": "uint256[]",
					"name": "stakeIds",
					"type": "uint256[]"
				}
			],
			"name": "bulkEndStake",
			"outputs": [],
			"stateMutability": "nonpayable",
			"type": "function"
		},
		{
			"inputs": [
				{
					"internalType": "uint256[]",
					"name": "stakeIds",
					"type": "uint256[]"
				}
			],
			"name": "bulkScrapeStake",
			"outputs": [],
			"stateMutability": "nonpayable",
			"type": "function"
		},
		{
			"inputs": [
				{
					"components": [
						{
							"internalType": "uint256",
							"name": "stakedAmount",
							"type": "uint256"
						},
						{
							"internalType": "uint256",
							"name": "lockedForXDays",
							"type": "uint256"
						}
					],
					"internalType": "struct StartStake[]",
					"name": "startStakes",
					"type": "tuple[]"
				}
			],
			"name": "bulkStartStake",
			"outputs": [],
			"stateMutability": "nonpayable",
			"type": "function"
		},
		{
			"inputs": [
				{
					"internalType": "uint256[]",
					"name": "stakeIds",
					"type": "uint256[]"
				},
				{
					"internalType": "address",
					"name": "newOwner",
					"type": "address"
				}
			],
			"name": "bulkTransferOwnership",
			"outputs": [],
			"stateMutability": "nonpayable",
			"type": "function"
		},
		{
			"inputs": [
				{
					"internalType": "uint256",
					"name": "",
					"type": "uint256"
				}
			],
			"name": "cachedInterestPerShare",
			"outputs": [
				{
					"internalType": "uint256",
					"name": "",
					"type": "uint256"
				}
			],
			"stateMutability": "view",
			"type": "function"
		},
		{
			"inputs": [
				{
					"internalType": "uint256",
					"name": "",
					"type": "uint256"
				}
			],
			"name": "dailySnapshots",
			"outputs": [
				{
					"internalType": "uint256",
					"name": "inflationAmount",
					"type": "uint256"
				},
				{
					"internalType": "uint256",
					"name": "totalShares",
					"type": "uint256"
				},
				{
					"internalType": "uint256",
					"name": "sharePrice",
					"type": "uint256"
				}
			],
			"stateMutability": "view",
			"type": "function"
		},
		{
			"inputs": [
				{
					"internalType": "uint256",
					"name": "stakeId",
					"type": "uint256"
				}
			],
			"name": "endStake",
			"outputs": [],
			"stateMutability": "nonpayable",
			"type": "function"
		},
		{
			"inputs": [],
			"name": "getCachedInterestPerShareLength",
			"outputs": [
				{
					"internalType": "uint256",
					"name": "",
					"type": "uint256"
				}
			],
			"stateMutability": "view",
			"type": "function"
		},
		{
			"inputs": [],
			"name": "getCurrentCachedPerShareDay",
			"outputs": [
				{
					"internalType": "uint256",
					"name": "",
					"type": "uint256"
				}
			],
			"stateMutability": "view",
			"type": "function"
		},
		{
			"inputs": [],
			"name": "getCurrentDaySinceLaunch",
			"outputs": [
				{
					"internalType": "uint256",
					"name": "",
					"type": "uint256"
				}
			],
			"stateMutability": "view",
			"type": "function"
		},
		{
			"inputs": [],
			"name": "getDailySnapshotsLength",
			"outputs": [
				{
					"internalType": "uint256",
					"name": "",
					"type": "uint256"
				}
			],
			"stateMutability": "view",
			"type": "function"
		},
		{
			"inputs": [
				{
					"internalType": "uint256",
					"name": "stakeId",
					"type": "uint256"
				},
				{
					"internalType": "uint256",
					"name": "givenDay",
					"type": "uint256"
				}
			],
			"name": "getInterestById",
			"outputs": [
				{
					"internalType": "uint256",
					"name": "",
					"type": "uint256"
				}
			],
			"stateMutability": "view",
			"type": "function"
		},
		{
			"inputs": [
				{
					"components": [
						{
							"internalType": "address",
							"name": "owner",
							"type": "address"
						},
						{
							"internalType": "uint256",
							"name": "stakedAmount",
							"type": "uint256"
						},
						{
							"internalType": "uint256",
							"name": "startDay",
							"type": "uint256"
						},
						{
							"internalType": "uint256",
							"name": "lockedForXDays",
							"type": "uint256"
						},
						{
							"internalType": "uint256",
							"name": "endDay",
							"type": "uint256"
						},
						{
							"internalType": "uint256",
							"name": "maxSharesCountOnStartStake",
							"type": "uint256"
						}
					],
					"internalType": "struct Stake",
					"name": "stake",
					"type": "tuple"
				},
				{
					"internalType": "uint256",
					"name": "givenDay",
					"type": "uint256"
				}
			],
			"name": "getInterestByStake",
			"outputs": [
				{
					"internalType": "uint256",
					"name": "",
					"type": "uint256"
				}
			],
			"stateMutability": "view",
			"type": "function"
		},
		{
			"inputs": [
				{
					"internalType": "uint256",
					"name": "stakeId",
					"type": "uint256"
				},
				{
					"internalType": "uint256",
					"name": "givenDay",
					"type": "uint256"
				},
				{
					"internalType": "uint256",
					"name": "interest",
					"type": "uint256"
				}
			],
			"name": "getPenaltyById",
			"outputs": [
				{
					"internalType": "uint256",
					"name": "",
					"type": "uint256"
				}
			],
			"stateMutability": "view",
			"type": "function"
		},
		{
			"inputs": [
				{
					"components": [
						{
							"internalType": "address",
							"name": "owner",
							"type": "address"
						},
						{
							"internalType": "uint256",
							"name": "stakedAmount",
							"type": "uint256"
						},
						{
							"internalType": "uint256",
							"name": "startDay",
							"type": "uint256"
						},
						{
							"internalType": "uint256",
							"name": "lockedForXDays",
							"type": "uint256"
						},
						{
							"internalType": "uint256",
							"name": "endDay",
							"type": "uint256"
						},
						{
							"internalType": "uint256",
							"name": "maxSharesCountOnStartStake",
							"type": "uint256"
						}
					],
					"internalType": "struct Stake",
					"name": "stake",
					"type": "tuple"
				},
				{
					"internalType": "uint256",
					"name": "givenDay",
					"type": "uint256"
				},
				{
					"internalType": "uint256",
					"name": "interest",
					"type": "uint256"
				}
			],
			"name": "getPenaltyByStake",
			"outputs": [
				{
					"internalType": "uint256",
					"name": "",
					"type": "uint256"
				}
			],
			"stateMutability": "view",
			"type": "function"
		},
		{
			"inputs": [
				{
					"internalType": "bytes32",
					"name": "role",
					"type": "bytes32"
				}
			],
			"name": "getRoleAdmin",
			"outputs": [
				{
					"internalType": "bytes32",
					"name": "",
					"type": "bytes32"
				}
			],
			"stateMutability": "view",
			"type": "function"
		},
		{
			"inputs": [
				{
					"internalType": "bytes32",
					"name": "role",
					"type": "bytes32"
				},
				{
					"internalType": "uint256",
					"name": "index",
					"type": "uint256"
				}
			],
			"name": "getRoleMember",
			"outputs": [
				{
					"internalType": "address",
					"name": "",
					"type": "address"
				}
			],
			"stateMutability": "view",
			"type": "function"
		},
		{
			"inputs": [
				{
					"internalType": "bytes32",
					"name": "role",
					"type": "bytes32"
				}
			],
			"name": "getRoleMemberCount",
			"outputs": [
				{
					"internalType": "uint256",
					"name": "",
					"type": "uint256"
				}
			],
			"stateMutability": "view",
			"type": "function"
		},
		{
			"inputs": [
				{
					"internalType": "uint256",
					"name": "stakeId",
					"type": "uint256"
				},
				{
					"internalType": "uint256",
					"name": "givenDay",
					"type": "uint256"
				}
			],
			"name": "getSharesCountById",
			"outputs": [
				{
					"internalType": "uint256",
					"name": "",
					"type": "uint256"
				}
			],
			"stateMutability": "view",
			"type": "function"
		},
		{
			"inputs": [
				{
					"components": [
						{
							"internalType": "address",
							"name": "owner",
							"type": "address"
						},
						{
							"internalType": "uint256",
							"name": "stakedAmount",
							"type": "uint256"
						},
						{
							"internalType": "uint256",
							"name": "startDay",
							"type": "uint256"
						},
						{
							"internalType": "uint256",
							"name": "lockedForXDays",
							"type": "uint256"
						},
						{
							"internalType": "uint256",
							"name": "endDay",
							"type": "uint256"
						},
						{
							"internalType": "uint256",
							"name": "maxSharesCountOnStartStake",
							"type": "uint256"
						}
					],
					"internalType": "struct Stake",
					"name": "stake",
					"type": "tuple"
				},
				{
					"internalType": "uint256",
					"name": "givenDay",
					"type": "uint256"
				}
			],
			"name": "getSharesCountByStake",
			"outputs": [
				{
					"internalType": "uint256",
					"name": "",
					"type": "uint256"
				}
			],
			"stateMutability": "view",
			"type": "function"
		},
		{
			"inputs": [],
			"name": "getStakesLength",
			"outputs": [
				{
					"internalType": "uint256",
					"name": "",
					"type": "uint256"
				}
			],
			"stateMutability": "view",
			"type": "function"
		},
		{
			"inputs": [],
			"name": "getTotalTokensStaked",
			"outputs": [
				{
					"internalType": "uint256",
					"name": "",
					"type": "uint256"
				}
			],
			"stateMutability": "view",
			"type": "function"
		},
		{
			"inputs": [
				{
					"internalType": "bytes32",
					"name": "role",
					"type": "bytes32"
				},
				{
					"internalType": "address",
					"name": "account",
					"type": "address"
				}
			],
			"name": "grantRole",
			"outputs": [],
			"stateMutability": "nonpayable",
			"type": "function"
		},
		{
			"inputs": [
				{
					"components": [
						{
							"internalType": "bytes32",
							"name": "role",
							"type": "bytes32"
						},
						{
							"internalType": "address",
							"name": "addr",
							"type": "address"
						}
					],
					"internalType": "struct RoleAccess[]",
					"name": "roles",
					"type": "tuple[]"
				}
			],
			"name": "grantRolesBulk",
			"outputs": [],
			"stateMutability": "nonpayable",
			"type": "function"
		},
		{
			"inputs": [
				{
					"internalType": "bytes32",
					"name": "role",
					"type": "bytes32"
				},
				{
					"internalType": "address",
					"name": "account",
					"type": "address"
				}
			],
			"name": "hasRole",
			"outputs": [
				{
					"internalType": "bool",
					"name": "",
					"type": "bool"
				}
			],
			"stateMutability": "view",
			"type": "function"
		},
		{
			"inputs": [],
			"name": "launchTimestamp",
			"outputs": [
				{
					"internalType": "uint256",
					"name": "",
					"type": "uint256"
				}
			],
			"stateMutability": "view",
			"type": "function"
		},
		{
			"inputs": [
				{
					"internalType": "bytes32",
					"name": "role",
					"type": "bytes32"
				},
				{
					"internalType": "address",
					"name": "account",
					"type": "address"
				}
			],
			"name": "renounceRole",
			"outputs": [],
			"stateMutability": "nonpayable",
			"type": "function"
		},
		{
			"inputs": [
				{
					"internalType": "bytes32",
					"name": "role",
					"type": "bytes32"
				},
				{
					"internalType": "address",
					"name": "account",
					"type": "address"
				}
			],
			"name": "revokeRole",
			"outputs": [],
			"stateMutability": "nonpayable",
			"type": "function"
		},
		{
			"inputs": [
				{
					"internalType": "uint256",
					"name": "stakeId",
					"type": "uint256"
				}
			],
			"name": "scrapeStake",
			"outputs": [],
			"stateMutability": "nonpayable",
			"type": "function"
		},
		{
			"inputs": [],
			"name": "settings",
			"outputs": [
				{
					"internalType": "uint256",
					"name": "MINIMUM_DAYS_FOR_HIGH_PENALTY",
					"type": "uint256"
				},
				{
					"internalType": "uint256",
					"name": "CONTROLLED_APY",
					"type": "uint256"
				},
				{
					"internalType": "uint256",
					"name": "SMALLER_PAYS_BETTER_BONUS",
					"type": "uint256"
				},
				{
					"internalType": "uint256",
					"name": "LONGER_PAYS_BETTER_BONUS",
					"type": "uint256"
				},
				{
					"internalType": "uint256",
					"name": "END_STAKE_FROM",
					"type": "uint256"
				},
				{
					"internalType": "uint256",
					"name": "END_STAKE_TO",
					"type": "uint256"
				},
				{
					"internalType": "uint256",
					"name": "MINIMUM_STAKE_DAYS",
					"type": "uint256"
				},
				{
					"internalType": "uint256",
					"name": "MAXIMUM_STAKE_DAYS",
					"type": "uint256"
				}
			],
			"stateMutability": "view",
			"type": "function"
		},
		{
			"inputs": [
				{
					"internalType": "uint256",
					"name": "",
					"type": "uint256"
				}
			],
			"name": "stakes",
			"outputs": [
				{
					"internalType": "address",
					"name": "owner",
					"type": "address"
				},
				{
					"internalType": "uint256",
					"name": "stakedAmount",
					"type": "uint256"
				},
				{
					"internalType": "uint256",
					"name": "startDay",
					"type": "uint256"
				},
				{
					"internalType": "uint256",
					"name": "lockedForXDays",
					"type": "uint256"
				},
				{
					"internalType": "uint256",
					"name": "endDay",
					"type": "uint256"
				},
				{
					"internalType": "uint256",
					"name": "maxSharesCountOnStartStake",
					"type": "uint256"
				}
			],
			"stateMutability": "view",
			"type": "function"
		},
		{
			"inputs": [
				{
					"components": [
						{
							"internalType": "uint256",
							"name": "stakedAmount",
							"type": "uint256"
						},
						{
							"internalType": "uint256",
							"name": "lockedForXDays",
							"type": "uint256"
						}
					],
					"internalType": "struct StartStake",
					"name": "_startStake",
					"type": "tuple"
				}
			],
			"name": "startStake",
			"outputs": [
				{
					"internalType": "uint256",
					"name": "stakeId",
					"type": "uint256"
				}
			],
			"stateMutability": "nonpayable",
			"type": "function"
		},
		{
			"inputs": [
				{
					"internalType": "bytes4",
					"name": "interfaceId",
					"type": "bytes4"
				}
			],
			"name": "supportsInterface",
			"outputs": [
				{
					"internalType": "bool",
					"name": "",
					"type": "bool"
				}
			],
			"stateMutability": "view",
			"type": "function"
		},
		{
			"inputs": [
				{
					"internalType": "uint256",
					"name": "stakeId",
					"type": "uint256"
				},
				{
					"internalType": "address",
					"name": "newOwner",
					"type": "address"
				}
			],
			"name": "transferOwnership",
			"outputs": [],
			"stateMutability": "nonpayable",
			"type": "function"
		},
		{
			"inputs": [],
			"name": "updateAllSnapshots",
			"outputs": [],
			"stateMutability": "nonpayable",
			"type": "function"
		},
		{
			"inputs": [
				{
					"internalType": "uint256",
					"name": "givenDay",
					"type": "uint256"
				}
			],
			"name": "updateSnapshots",
			"outputs": [],
			"stateMutability": "nonpayable",
			"type": "function"
		}
	]
}