{
	"data": {
		"bytecode": {
			"linkReferences": {},
			"object": "6080604052600780546001600160a01b031916732493e2d8a80d95af4e4d2c1448a29c34ba27ca30179055601e60085560466009556605543df729c000600c5566038d7ea4c68000600e556601c6bf526340006010556200006b60006200006562000111565b62000115565b620000e173d0a1e359811322d97991e03f863a0c30c2cf029c73539faa851d86781009ec30df437d794bcd090c8f6605543df729c00073dc15ca882f975c33d8f20ab3669d27195b8d87a666038d7ea4c6800073e019b37896f129354cf0b8f1cf33936b86913a346601c6bf5263400062000158565b6002805460ff19169055620000f73334620001f2565b62000101620004e4565b6200010b62000522565b62000924565b3390565b6200012c82826200063060201b620021491760201c565b6000828152600160209081526040909120620001539183906200215762000640821b17901c565b505050565b6200016e60006200016862000111565b62000660565b620001965760405162461bcd60e51b81526004016200018d906200077a565b60405180910390fd5b600a80546001600160a01b03199081166001600160a01b03998a1617909155600b8054821697891697909717909655600c94909455600d8054861693871693909317909255600e55600f80549093169316929092179055601055565b600b54600090819081906001600160a01b038681169116141562000222575050600c549050610258600062000284565b600d546001600160a01b03868116911614156200024d575050600e5490506303c26700600062000284565b600f546001600160a01b038681169116141562000276575050601054905061016d600062000284565b506000915063bbf81e009050805b6001600160a01b038516600090815260036020526040902054620003d3576040805160a0810182526001600160a01b038781168083526020808401898152600085870181815260608701898152608088018b81526004805460018101825581865299517f8a35acfbc15ff81a39ae7d344fd709f28e8600b4aa8c65c6b64bfe7fe36bd19b6005909b029a8b0180546001600160a01b03191691909a161790985593517f8a35acfbc15ff81a39ae7d344fd709f28e8600b4aa8c65c6b64bfe7fe36bd19c89015590517f8a35acfbc15ff81a39ae7d344fd709f28e8600b4aa8c65c6b64bfe7fe36bd19d880155517f8a35acfbc15ff81a39ae7d344fd709f28e8600b4aa8c65c6b64bfe7fe36bd19e87015590517f8a35acfbc15ff81a39ae7d344fd709f28e8600b4aa8c65c6b64bfe7fe36bd19f90950194909455915490835260039091529190205562000446565b6001600160a01b0385166000908152600360205260409020548490600490620003ff90600190620008f4565b815481106200041e57634e487b7160e01b600052603260045260246000fd5b90600052602060002090600502016001016000828254620004409190620008d9565b90915550505b6001600160a01b03851660009081526003602052604090205483906004906200047290600190620008f4565b815481106200049157634e487b7160e01b600052603260045260246000fd5b9060005260206000209060050201600101541115620004c45760405162461bcd60e51b81526004016200018d90620007b1565b8360056000828254620004d89190620008d9565b90915550505050505050565b620004f460006200016862000111565b620005135760405162461bcd60e51b81526004016200018d906200077a565b6002805460ff19166001179055565b6200053260006200016862000111565b620005515760405162461bcd60e51b81526004016200018d906200077a565b600160025460ff1660058111156200057957634e487b7160e01b600052602160045260246000fd5b14620005995760405162461bcd60e51b81526004016200018d906200087c565b60004711620005bc5760405162461bcd60e51b81526004016200018d906200081f565b600a5460408051630d0e30db60e41b815290516001600160a01b0390921691829163d0e30db091479160048082019260009290919082900301818588803b1580156200060757600080fd5b505af11580156200061c573d6000803e3d6000fd5b50506002805460ff19168117905550505050565b6200063c828262000689565b5050565b600062000657836001600160a01b03841662000713565b90505b92915050565b6000918252602082815260408084206001600160a01b0393909316845291905290205460ff1690565b62000695828262000660565b6200063c576000828152602081815260408083206001600160a01b03851684529091529020805460ff19166001179055620006cf62000111565b6001600160a01b0316816001600160a01b0316837f2f8788117e7eff1d82e926ec794901d17c78024a50270940304540a733656f0d60405160405180910390a45050565b600062000721838362000762565b62000759575081546001818101845560008481526020808220909301849055845484825282860190935260409020919091556200065a565b5060006200065a565b60009081526001919091016020526040902054151590565b6020808252601c908201527f56657374696e67436f6e74726163743a2021524f4c455f41444d494e00000000604082015260600190565b60208082526048908201527f56657374696e67436f6e74726163743a20526571756972657320496e7665737460408201527f6f72206d617820616d6f756e74206c657373207468616e206d6178496e76657360608201526774416d6f756e742160c01b608082015260a00190565b60208082526038908201527f56657374696e67436f6e74726163743a2045746865722062616c616e6365206d60408201527f757374206265206c6172676572207468616e207a65726f210000000000000000606082015260800190565b60208082526036908201527f56657374696e67436f6e74726163743a20507265706172696e6720616464206c60408201527f697175696469747920697320636f6d706c657465642100000000000000000000606082015260800190565b60008219821115620008ef57620008ef6200090e565b500190565b6000828210156200090957620009096200090e565b500390565b634e487b7160e01b600052601160045260246000fd5b61309780620009346000396000f3fe6080604052600436106102b25760003560e01c806383294f2e11610175578063c19d93fb116100dc578063d547741f11610095578063e608d3e51161006f578063e608d3e5146107b9578063e8078d94146107ce578063ed21187a146107e3578063fe3d6f721461059957610310565b8063d547741f1461076f578063e1758bd81461078f578063e37530fb146107a457610310565b8063c19d93fb146106f8578063c35bea8914610599578063c45cb66c1461071a578063ca15c8731461073a578063caccd7f71461075a578063d391014b1461059957610310565b80639adae3511161012e5780639adae3511461066f5780639e01e31c146106845780639e78fb4f14610699578063a5ece941146106ae578063b6e4f1a1146106c3578063ba688845146106e357610310565b806383294f2e146105db57806384e72b40146105f05780638acf09f6146106055780639010d07c1461061a57806391d148541461063a5780639ab1b4841461065a57610310565b806346f99063116102195780635f6577a8116101d25780635f6577a81461052f5780636506986314610544578063688a5e74146105645780636d81779b14610584578063719d268514610599578063818a36a1146105ae57610310565b806346f990631461049b57806348931352146104b057806348bab86e146104c55780635216aeec146104da5780635a5bb3b2146104ef5780635c1294411461050f57610310565b80632f2ff15d1161026b5780632f2ff15d146103fc578063300653e61461041c57806336568abe1461043157806336bdc55c146104515780633a6afc25146104665780633def38531461048657610310565b806301ffc9a7146103155780630c0589c21461034b5780631c75f0851461036b5780631c7b21481461038d578063248a9ca3146103af578063286777d0146103cf57610310565b3661031057600060025460ff1660058111156102de57634e487b7160e01b600052602160045260246000fd5b146103045760405162461bcd60e51b81526004016102fb90612ea3565b60405180910390fd5b61030e33346107f8565b005b600080fd5b34801561032157600080fd5b506103356103303660046128aa565b610ad5565b6040516103429190612a2a565b60405180910390f35b34801561035757600080fd5b5061030e610366366004612842565b610b02565b34801561037757600080fd5b50610380610cae565b6040516103429190612995565b34801561039957600080fd5b506103a2610cbd565b6040516103429190612a35565b3480156103bb57600080fd5b506103a26103ca366004612842565b610cc3565b3480156103db57600080fd5b506103ef6103ea366004612842565b610cd8565b6040516103429190612f47565b34801561040857600080fd5b5061030e61041736600461285a565b610d5c565b34801561042857600080fd5b506103a2610d83565b34801561043d57600080fd5b5061030e61044c36600461285a565b610d89565b34801561045d57600080fd5b506103a2610dab565b34801561047257600080fd5b506103a2610481366004612770565b610db3565b34801561049257600080fd5b506103a2610f8e565b3480156104a757600080fd5b506103a2610f94565b3480156104bc57600080fd5b506103a2610f9a565b3480156104d157600080fd5b506103a2610fab565b3480156104e657600080fd5b506103a2610fb1565b3480156104fb57600080fd5b5061030e61050a366004612770565b610fb7565b34801561051b57600080fd5b5061030e61052a366004612842565b611002565b34801561053b57600080fd5b5061030e611173565b34801561055057600080fd5b506103ef61055f366004612770565b611272565b34801561057057600080fd5b5061030e61057f366004612842565b6112c0565b34801561059057600080fd5b506103a26113f6565b3480156105a557600080fd5b506103a26113fc565b3480156105ba57600080fd5b506105ce6105c9366004612889565b611401565b60405161034291906129dc565b3480156105e757600080fd5b506103a261157c565b3480156105fc57600080fd5b506103806115a0565b34801561061157600080fd5b506103a26115af565b34801561062657600080fd5b50610380610635366004612889565b6115b5565b34801561064657600080fd5b5061033561065536600461285a565b6115d4565b34801561066657600080fd5b5061030e6115fd565b34801561067b57600080fd5b5061038061189c565b34801561069057600080fd5b506103a26118ab565b3480156106a557600080fd5b5061030e6118cf565b3480156106ba57600080fd5b50610380611c41565b3480156106cf57600080fd5b506103a26106de366004612770565b611c50565b3480156106ef57600080fd5b5061030e611d83565b34801561070457600080fd5b5061070d611dbb565b6040516103429190612a55565b34801561072657600080fd5b5061030e6107353660046127a8565b611dc4565b34801561074657600080fd5b506103a2610755366004612842565b611e49565b34801561076657600080fd5b50610380611e60565b34801561077b57600080fd5b5061030e61078a36600461285a565b611e6f565b34801561079b57600080fd5b50610380611e79565b3480156107b057600080fd5b506103a2611e88565b3480156107c557600080fd5b506103a2611e8e565b3480156107da57600080fd5b5061030e611e94565b3480156107ef57600080fd5b506103a2612143565b600b54600090819081906001600160a01b0386811691161415610826575050600c5490506102586000610884565b600d546001600160a01b038681169116141561084f575050600e5490506303c267006000610884565b600f546001600160a01b0386811691161415610876575050601054905061016d6000610884565b506000915063bbf81e009050805b6001600160a01b0385166000908152600360205260409020546109d1576040805160a0810182526001600160a01b038781168083526020808401898152600085870181815260608701898152608088018b81526004805460018101825581865299517f8a35acfbc15ff81a39ae7d344fd709f28e8600b4aa8c65c6b64bfe7fe36bd19b6005909b029a8b0180546001600160a01b03191691909a161790985593517f8a35acfbc15ff81a39ae7d344fd709f28e8600b4aa8c65c6b64bfe7fe36bd19c89015590517f8a35acfbc15ff81a39ae7d344fd709f28e8600b4aa8c65c6b64bfe7fe36bd19d880155517f8a35acfbc15ff81a39ae7d344fd709f28e8600b4aa8c65c6b64bfe7fe36bd19e87015590517f8a35acfbc15ff81a39ae7d344fd709f28e8600b4aa8c65c6b64bfe7fe36bd19f909501949094559154908352600390915291902055610a3f565b6001600160a01b03851660009081526003602052604090205484906004906109fb90600190612fba565b81548110610a1957634e487b7160e01b600052603260045260246000fd5b90600052602060002090600502016001016000828254610a399190612f63565b90915550505b6001600160a01b0385166000908152600360205260409020548390600490610a6990600190612fba565b81548110610a8757634e487b7160e01b600052603260045260246000fd5b9060005260206000209060050201600101541115610ab75760405162461bcd60e51b81526004016102fb90612c26565b8360056000828254610ac99190612f63565b90915550505050505050565b60006001600160e01b03198216635a05180f60e01b1480610afa5750610afa8261216c565b90505b919050565b610b0f6000610655612191565b610b2b5760405162461bcd60e51b81526004016102fb90612b76565b6007546040516318a8ad8760e01b81526001600160a01b039091169081906318a8ad8790610b5f90309086906004016129c3565b600060405180830381600087803b158015610b7957600080fd5b505af1158015610b8d573d6000803e3d6000fd5b50506007546040516306fb1a0760e01b8152600093506001600160a01b0390911691506306fb1a0790610bc4908490600401612a35565b60206040518083038186803b158015610bdc57600080fd5b505afa158015610bf0573d6000803e3d6000fd5b505050506040513d601f19601f82011682018060405250810190610c14919061278c565b60405163444328e160e11b81529091506001600160a01b0382169063888651c290610c43908690600401612a35565b60206040518083038186803b158015610c5b57600080fd5b505afa158015610c6f573d6000803e3d6000fd5b505050506040513d601f19601f82011682018060405250810190610c9391906128d2565b60136000828254610ca49190612fba565b9091555050505050565b600d546001600160a01b031681565b60085481565b60009081526020819052604090206001015490565b610ce0612738565b60048281548110610d0157634e487b7160e01b600052603260045260246000fd5b60009182526020918290206040805160a081018252600590930290910180546001600160a01b031683526001810154938301939093526002830154908201526003820154606082015260049091015460808201529050919050565b610d668282612195565b6000828152600160205260409020610d7e9082612157565b505050565b61025881565b610d9382826121b9565b6000828152600160205260409020610d7e90826121fb565b6303c2670081565b6000600560025460ff166005811115610ddc57634e487b7160e01b600052602160045260246000fd5b14610df95760405162461bcd60e51b81526004016102fb90612d47565b6001600160a01b038216600090815260036020526040902054610e2e5760405162461bcd60e51b81526004016102fb90612e16565b6001600160a01b038216600090815260036020526040812054600490610e5690600190612fba565b81548110610e7457634e487b7160e01b600052603260045260246000fd5b600091825260208083206040805160a081018252600590940290910180546001600160a01b031684526001810154928401929092526002820154908301526003810154606083018190526004909101546080830152601154919350610ed891612f63565b905080421015610eed57600092505050610afd565b6000826080015182610eff9190612f63565b905060018042831115610f2057610f168442612fba565b9150846080015190505b600060055482610f309190612f9b565b836013548860200151610f439190612f9b565b610f4d9190612f9b565b610f579190612f7b565b905085604001518111610f735760009650505050505050610afd565b6040860151610f829082612fba565b98975050505050505050565b60115481565b60065481565b6c01431e0fae6d7217caa000000081565b600c5481565b60055481565b610fc46000610655612191565b610fe05760405162461bcd60e51b81526004016102fb90612b76565b600780546001600160a01b0319166001600160a01b0392909216919091179055565b33600061100e82610db3565b9050600081116110305760405162461bcd60e51b81526004016102fb90612bad565b82158061103c57508083115b15611045578092505b808311156110655760405162461bcd60e51b81526004016102fb90612d96565b6001600160a01b03821660009081526003602052604090205461109a5760405162461bcd60e51b81526004016102fb90612bef565b6001600160a01b03821660009081526003602052604090205483906004906110c490600190612fba565b815481106110e257634e487b7160e01b600052603260045260246000fd5b906000526020600020906005020160020160008282546111029190612f63565b909155505060075460405163232ffac360e21b81526001600160a01b03909116908190638cbfeb0c9061113b90869088906004016129c3565b600060405180830381600087803b15801561115557600080fd5b505af1158015611169573d6000803e3d6000fd5b5050505050505050565b6111806000610655612191565b61119c5760405162461bcd60e51b81526004016102fb90612b76565b600160025460ff1660058111156111c357634e487b7160e01b600052602160045260246000fd5b146111e05760405162461bcd60e51b81526004016102fb90612e4d565b600047116112005760405162461bcd60e51b81526004016102fb90612cea565b600a5460408051630d0e30db60e41b815290516001600160a01b0390921691829163d0e30db091479160048082019260009290919082900301818588803b15801561124a57600080fd5b505af115801561125e573d6000803e3d6000fd5b50506002805460ff19168117905550505050565b61127a612738565b6001600160a01b0382166000908152600360205260409020546004906112a290600190612fba565b81548110610d0157634e487b7160e01b600052603260045260246000fd5b6112cd6000610655612191565b6112e95760405162461bcd60e51b81526004016102fb90612b76565b6007546040516306fb1a0760e01b81526000916001600160a01b0316906306fb1a079061131a908490600401612a35565b60206040518083038186803b15801561133257600080fd5b505afa158015611346573d6000803e3d6000fd5b505050506040513d601f19601f8201168201806040525081019061136a919061278c565b6013546040516306c130eb60e31b81529192506001600160a01b0383169163360987589161139d91869190600401612f55565b602060405180830381600087803b1580156113b757600080fd5b505af11580156113cb573d6000803e3d6000fd5b505050506040513d601f19601f820116820180604052508101906113ef91906128d2565b6013555050565b600e5481565b600081565b60608260006114108483612f63565b60045490915081116114225780611426565b6004545b90506000828211611438576000611442565b6114428383612fba565b905060008167ffffffffffffffff81111561146d57634e487b7160e01b600052604160045260246000fd5b6040519080825280602002602001820160405280156114a657816020015b611493612738565b81526020019060019003908161148b5790505b509050835b8381101561156f57600481815481106114d457634e487b7160e01b600052603260045260246000fd5b60009182526020918290206040805160a081018252600590930290910180546001600160a01b03168352600181015493830193909352600283015490820152600382015460608201526004909101546080820152826115338784612fba565b8151811061155157634e487b7160e01b600052603260045260246000fd5b6020026020010181905250808061156790613018565b9150506114ab565b5093505050505b92915050565b7f97d7f26718c89602134128fe22716d3e0ddcf73b3764fdedb849a791eb71b51681565b6007546001600160a01b031681565b60095481565b60008281526001602052604081206115cd9083612210565b9392505050565b6000918252602082815260408084206001600160a01b0393909316845291905290205460ff1690565b61160a6000610655612191565b6116265760405162461bcd60e51b81526004016102fb90612b76565b600460025460ff16600581111561164d57634e487b7160e01b600052602160045260246000fd5b1461166a5760405162461bcd60e51b81526004016102fb90612c94565b6007546040516306fb1a0760e01b81526000916001600160a01b0316906306fb1a079061169b908490600401612a35565b60206040518083038186803b1580156116b357600080fd5b505afa1580156116c7573d6000803e3d6000fd5b505050506040513d601f19601f820116820180604052508101906116eb919061278c565b604051632f2ff15d60e01b81529091506001600160a01b03821690632f2ff15d9061173c907fd27488087fca693adcf8b477ec0ca6cf5134d7f124fdc511eb258522c40fd72b903090600401612a3e565b600060405180830381600087803b15801561175657600080fd5b505af115801561176a573d6000803e3d6000fd5b5050604051632f2ff15d60e01b81526001600160a01b0384169250632f2ff15d91506117bc907f97d7f26718c89602134128fe22716d3e0ddcf73b3764fdedb849a791eb71b516903090600401612a3e565b600060405180830381600087803b1580156117d657600080fd5b505af11580156117ea573d6000803e3d6000fd5b5050505060646008546c01431e0fae6d7217caa000000061180b9190612f9b565b6118159190612f7b565b6013819055600754604051630bb9ff5d60e01b81526001600160a01b03909116918291630bb9ff5d9161184d913091906004016129c3565b600060405180830381600087803b15801561186757600080fd5b505af115801561187b573d6000803e3d6000fd5b5050426011555050600280546005919060ff19166001835b02179055505050565b6012546001600160a01b031681565b7fd27488087fca693adcf8b477ec0ca6cf5134d7f124fdc511eb258522c40fd72b81565b6118dc6000610655612191565b6118f85760405162461bcd60e51b81526004016102fb90612b76565b6002805460ff16600581111561191e57634e487b7160e01b600052602160045260246000fd5b1461193b5760405162461bcd60e51b81526004016102fb90612dcd565b6007546040516306fb1a0760e01b81526000916001600160a01b0316906306fb1a079061196d90600290600401612a35565b60206040518083038186803b15801561198557600080fd5b505afa158015611999573d6000803e3d6000fd5b505050506040513d601f19601f820116820180604052508101906119bd919061278c565b600754600a5460405163e6a4390560e01b81529293506001600160a01b038085169363e6a43905936119f7939083169216906004016129a9565b60206040518083038186803b158015611a0f57600080fd5b505afa158015611a23573d6000803e3d6000fd5b505050506040513d601f19601f82011682018060405250810190611a47919061278c565b601280546001600160a01b0319166001600160a01b0392831617908190551615611a835760405162461bcd60e51b81526004016102fb90612ae5565b600754600a546040516364e329cb60e11b81526001600160a01b038085169363c9c6539693611aba939183169216906004016129a9565b602060405180830381600087803b158015611ad457600080fd5b505af1158015611ae8573d6000803e3d6000fd5b505050506040513d601f19601f82011682018060405250810190611b0c919061278c565b601280546001600160a01b0319166001600160a01b039283161790556007546040516306fb1a0760e01b815260009291909116906306fb1a0790611b54908490600401612a35565b60206040518083038186803b158015611b6c57600080fd5b505afa158015611b80573d6000803e3d6000fd5b505050506040513d601f19601f82011682018060405250810190611ba4919061278c565b601254604051632f2ff15d60e01b81529192506001600160a01b0380841692632f2ff15d92611bfa927fd27488087fca693adcf8b477ec0ca6cf5134d7f124fdc511eb258522c40fd72b92911690600401612a3e565b600060405180830381600087803b158015611c1457600080fd5b505af1158015611c28573d6000803e3d6000fd5b5050600280546003935090915060ff1916600183611893565b600f546001600160a01b031681565b6000600560025460ff166005811115611c7957634e487b7160e01b600052602160045260246000fd5b14611c965760405162461bcd60e51b81526004016102fb90612d47565b6001600160a01b038216611ca8573391505b33600090815260036020526040812054600490611cc790600190612fba565b81548110611ce557634e487b7160e01b600052603260045260246000fd5b600091825260208083206040805160a081018252600594850290920180546001600160a01b03168352600181015493830184905260028101549183019190915260038101546060830152600401546080820152915460135492945091611d4a91612f9b565b611d549190612f7b565b905081604001518111611d6c57600092505050610afd565b6040820151611d7b9082612fba565b949350505050565b611d906000610655612191565b611dac5760405162461bcd60e51b81526004016102fb90612b76565b6002805460ff19166001179055565b60025460ff1681565b611dd16000610655612191565b611ded5760405162461bcd60e51b81526004016102fb90612b76565b600a80546001600160a01b03199081166001600160a01b03998a1617909155600b8054821697891697909717909655600c94909455600d8054861693871693909317909255600e55600f80549093169316929092179055601055565b6000818152600160205260408120610afa9061221c565b600b546001600160a01b031681565b610d938282612227565b600a546001600160a01b031681565b61016d81565b60105481565b611ea16000610655612191565b611ebd5760405162461bcd60e51b81526004016102fb90612b76565b600360025460ff166005811115611ee457634e487b7160e01b600052602160045260246000fd5b14611f015760405162461bcd60e51b81526004016102fb90612b2a565b600a546040516370a0823160e01b81526001600160a01b039091169060009082906370a0823190611f36903090600401612995565b60206040518083038186803b158015611f4e57600080fd5b505afa158015611f62573d6000803e3d6000fd5b505050506040513d601f19601f82011682018060405250810190611f8691906128d2565b60125460405163a9059cbb60e01b81529192506001600160a01b038085169263a9059cbb92611fbb92169085906004016129c3565b602060405180830381600087803b158015611fd557600080fd5b505af1158015611fe9573d6000803e3d6000fd5b505050506040513d601f19601f8201168201806040525081019061200d9190612822565b50600060646009546c01431e0fae6d7217caa000000061202d9190612f9b565b6120379190612f7b565b600754601254604051630bb9ff5d60e01b81529293506001600160a01b03918216928392630bb9ff5d926120729291169086906004016129c3565b600060405180830381600087803b15801561208c57600080fd5b505af11580156120a0573d6000803e3d6000fd5b50506012546001600160a01b03169150819050636a6278426120c0612191565b6040518263ffffffff1660e01b81526004016120dc9190612995565b602060405180830381600087803b1580156120f657600080fd5b505af115801561210a573d6000803e3d6000fd5b505050506040513d601f19601f8201168201806040525081019061212e91906128d2565b50506002805460ff1916600417905550505050565b60045490565b6121538282612246565b5050565b60006115cd836001600160a01b0384166122cb565b60006001600160e01b03198216637965db0b60e01b1480610afa5750610afa82612315565b3390565b61219e82610cc3565b6121af816121aa612191565b61232e565b610d7e8383612246565b6121c1612191565b6001600160a01b0316816001600160a01b0316146121f15760405162461bcd60e51b81526004016102fb90612ef8565b6121538282612392565b60006115cd836001600160a01b038416612415565b60006115cd8383612532565b6000610afa8261256a565b61223082610cc3565b61223c816121aa612191565b610d7e8383612392565b61225082826115d4565b612153576000828152602081815260408083206001600160a01b03851684529091529020805460ff19166001179055612287612191565b6001600160a01b0316816001600160a01b0316837f2f8788117e7eff1d82e926ec794901d17c78024a50270940304540a733656f0d60405160405180910390a45050565b60006122d7838361256e565b61230d57508154600181810184556000848152602080822090930184905584548482528286019093526040902091909155611576565b506000611576565b6001600160e01b031981166301ffc9a760e01b14919050565b61233882826115d4565b61215357612350816001600160a01b03166014612586565b61235b836020612586565b60405160200161236c929190612920565b60408051601f198184030181529082905262461bcd60e51b82526102fb91600401612a7d565b61239c82826115d4565b15612153576000828152602081815260408083206001600160a01b03851684529091529020805460ff191690556123d1612191565b6001600160a01b0316816001600160a01b0316837ff6391f5c32d9c69d2a47ea670b442974b53935d1edc7fd64eb21e047a839171b60405160405180910390a45050565b60008181526001830160205260408120548015612528576000612439600183612fba565b855490915060009061244d90600190612fba565b90508181146124ce57600086600001828154811061247b57634e487b7160e01b600052603260045260246000fd5b90600052602060002001549050808760000184815481106124ac57634e487b7160e01b600052603260045260246000fd5b6000918252602080832090910192909255918252600188019052604090208390555b85548690806124ed57634e487b7160e01b600052603160045260246000fd5b600190038181906000526020600020016000905590558560010160008681526020019081526020016000206000905560019350505050611576565b6000915050611576565b600082600001828154811061255757634e487b7160e01b600052603260045260246000fd5b9060005260206000200154905092915050565b5490565b60009081526001919091016020526040902054151590565b60606000612595836002612f9b565b6125a0906002612f63565b67ffffffffffffffff8111156125c657634e487b7160e01b600052604160045260246000fd5b6040519080825280601f01601f1916602001820160405280156125f0576020820181803683370190505b509050600360fc1b8160008151811061261957634e487b7160e01b600052603260045260246000fd5b60200101906001600160f81b031916908160001a905350600f60fb1b8160018151811061265657634e487b7160e01b600052603260045260246000fd5b60200101906001600160f81b031916908160001a905350600061267a846002612f9b565b612685906001612f63565b90505b6001811115612719576f181899199a1a9b1b9c1cb0b131b232b360811b85600f16601081106126c757634e487b7160e01b600052603260045260246000fd5b1a60f81b8282815181106126eb57634e487b7160e01b600052603260045260246000fd5b60200101906001600160f81b031916908160001a90535060049490941c9361271281613001565b9050612688565b5083156115cd5760405162461bcd60e51b81526004016102fb90612ab0565b6040518060a0016040528060006001600160a01b03168152602001600081526020016000815260200160008152602001600081525090565b600060208284031215612781578081fd5b81356115cd81613049565b60006020828403121561279d578081fd5b81516115cd81613049565b600080600080600080600060e0888a0312156127c2578283fd5b87356127cd81613049565b965060208801356127dd81613049565b95506040880135945060608801356127f481613049565b93506080880135925060a088013561280b81613049565b8092505060c0880135905092959891949750929550565b600060208284031215612833578081fd5b815180151581146115cd578182fd5b600060208284031215612853578081fd5b5035919050565b6000806040838503121561286c578182fd5b82359150602083013561287e81613049565b809150509250929050565b6000806040838503121561289b578182fd5b50508035926020909101359150565b6000602082840312156128bb578081fd5b81356001600160e01b0319811681146115cd578182fd5b6000602082840312156128e3578081fd5b5051919050565b80516001600160a01b03168252602080820151908301526040808201519083015260608082015190830152608090810151910152565b60007f416363657373436f6e74726f6c3a206163636f756e742000000000000000000082528351612958816017850160208801612fd1565b7001034b99036b4b9b9b4b733903937b6329607d1b6017918401918201528351612989816028840160208801612fd1565b01602801949350505050565b6001600160a01b0391909116815260200190565b6001600160a01b0392831681529116602082015260400190565b6001600160a01b03929092168252602082015260400190565b6020808252825182820181905260009190848201906040850190845b81811015612a1e57612a0b8385516128ea565b9284019260a092909201916001016129f8565b50909695505050505050565b901515815260200190565b90815260200190565b9182526001600160a01b0316602082015260400190565b6020810160068310612a7757634e487b7160e01b600052602160045260246000fd5b91905290565b6000602082528251806020840152612a9c816040850160208701612fd1565b601f01601f19169190910160400192915050565b6020808252818101527f537472696e67733a20686578206c656e67746820696e73756666696369656e74604082015260600190565b60208082526025908201527f56657374696e67436f6e74726163743a205061697220616c7265616479206578604082015264697374732160d81b606082015260800190565b6020808252602c908201527f56657374696e67436f6e74726163743a204c697175696469747920697320616c60408201526b72656164792061646465642160a01b606082015260800190565b6020808252601c908201527f56657374696e67436f6e74726163743a2021524f4c455f41444d494e00000000604082015260600190565b60208082526022908201527f56657374696e67436f6e74726163743a2021636c61696d61626c655f616d6f756040820152611b9d60f21b606082015260800190565b6020808252601d908201527f56657374696e67436f6e74726163743a20216578697374735f61646472000000604082015260600190565b60208082526048908201527f56657374696e67436f6e74726163743a20526571756972657320496e7665737460408201527f6f72206d617820616d6f756e74206c657373207468616e206d6178496e76657360608201526774416d6f756e742160c01b608082015260a00190565b60208082526036908201527f56657374696e67436f6e74726163743a20546f6b656e73206861766520616c7260408201527565616479206265656e2064697374726962757465642160501b606082015260800190565b60208082526038908201527f56657374696e67436f6e74726163743a2045746865722062616c616e6365206d60408201527f757374206265206c6172676572207468616e207a65726f210000000000000000606082015260800190565b6020808252602f908201527f56657374696e67436f6e74726163743a20546f6b656e73206172656e2774206460408201526e69737472696275746564207965742160881b606082015260800190565b60208082526018908201527f56657374696e67436f6e74726163743a2021616d6f756e740000000000000000604082015260600190565b60208082526029908201527f56657374696e67436f6e74726163743a205061697220697320616c726561647960408201526820637265617465642160b81b606082015260800190565b60208082526017908201527f56657374696e67436f6e74726163743a20216578697374000000000000000000604082015260600190565b60208082526036908201527f56657374696e67436f6e74726163743a20507265706172696e6720616464206c604082015275697175696469747920697320636f6d706c657465642160501b606082015260800190565b60208082526035908201527f56657374696e67436f6e74726163743a20416363657074696e67207061796d656040820152746e747320686173206265656e2073746f707065642160581b606082015260800190565b6020808252602f908201527f416363657373436f6e74726f6c3a2063616e206f6e6c792072656e6f756e636560408201526e103937b632b9903337b91039b2b63360891b606082015260800190565b60a0810161157682846128ea565b918252602082015260400190565b60008219821115612f7657612f76613033565b500190565b600082612f9657634e487b7160e01b81526012600452602481fd5b500490565b6000816000190483118215151615612fb557612fb5613033565b500290565b600082821015612fcc57612fcc613033565b500390565b60005b83811015612fec578181015183820152602001612fd4565b83811115612ffb576000848401525b50505050565b60008161301057613010613033565b506000190190565b600060001982141561302c5761302c613033565b5060010190565b634e487b7160e01b600052601160045260246000fd5b6001600160a01b038116811461305e57600080fd5b5056fea2646970667358221220030bd7e15f2f75293f1bad2e52228d1d16329e8ed3bbb87b4334eb4e4fba4d7a64736f6c63430008010033",
			"opcodes": "PUSH1 0x80 PUSH1 0x40 MSTORE PUSH1 0x7 DUP1 SLOAD PUSH1 0x1 PUSH1 0x1 PUSH1 0xA0 SHL SUB NOT AND PUSH20 0x2493E2D8A80D95AF4E4D2C1448A29C34BA27CA30 OR SWAP1 SSTORE PUSH1 0x1E PUSH1 0x8 SSTORE PUSH1 0x46 PUSH1 0x9 SSTORE PUSH7 0x5543DF729C000 PUSH1 0xC SSTORE PUSH7 0x38D7EA4C68000 PUSH1 0xE SSTORE PUSH7 0x1C6BF52634000 PUSH1 0x10 SSTORE PUSH3 0x6B PUSH1 0x0 PUSH3 0x65 PUSH3 0x111 JUMP JUMPDEST PUSH3 0x115 JUMP JUMPDEST PUSH3 0xE1 PUSH20 0xD0A1E359811322D97991E03F863A0C30C2CF029C PUSH20 0x539FAA851D86781009EC30DF437D794BCD090C8F PUSH7 0x5543DF729C000 PUSH20 0xDC15CA882F975C33D8F20AB3669D27195B8D87A6 PUSH7 0x38D7EA4C68000 PUSH20 0xE019B37896F129354CF0B8F1CF33936B86913A34 PUSH7 0x1C6BF52634000 PUSH3 0x158 JUMP JUMPDEST PUSH1 0x2 DUP1 SLOAD PUSH1 0xFF NOT AND SWAP1 SSTORE PUSH3 0xF7 CALLER CALLVALUE PUSH3 0x1F2 JUMP JUMPDEST PUSH3 0x101 PUSH3 0x4E4 JUMP JUMPDEST PUSH3 0x10B PUSH3 0x522 JUMP JUMPDEST PUSH3 0x924 JUMP JUMPDEST CALLER SWAP1 JUMP JUMPDEST PUSH3 0x12C DUP3 DUP3 PUSH3 0x630 PUSH1 0x20 SHL PUSH3 0x2149 OR PUSH1 0x20 SHR JUMP JUMPDEST PUSH1 0x0 DUP3 DUP2 MSTORE PUSH1 0x1 PUSH1 0x20 SWAP1 DUP2 MSTORE PUSH1 0x40 SWAP1 SWAP2 KECCAK256 PUSH3 0x153 SWAP2 DUP4 SWAP1 PUSH3 0x2157 PUSH3 0x640 DUP3 SHL OR SWAP1 SHR JUMP JUMPDEST POP POP POP JUMP JUMPDEST PUSH3 0x16E PUSH1 0x0 PUSH3 0x168 PUSH3 0x111 JUMP JUMPDEST PUSH3 0x660 JUMP JUMPDEST PUSH3 0x196 JUMPI PUSH1 0x40 MLOAD PUSH3 0x461BCD PUSH1 0xE5 SHL DUP2 MSTORE PUSH1 0x4 ADD PUSH3 0x18D SWAP1 PUSH3 0x77A JUMP JUMPDEST PUSH1 0x40 MLOAD DUP1 SWAP2 SUB SWAP1 REVERT JUMPDEST PUSH1 0xA DUP1 SLOAD PUSH1 0x1 PUSH1 0x1 PUSH1 0xA0 SHL SUB NOT SWAP1 DUP2 AND PUSH1 0x1 PUSH1 0x1 PUSH1 0xA0 SHL SUB SWAP10 DUP11 AND OR SWAP1 SWAP2 SSTORE PUSH1 0xB DUP1 SLOAD DUP3 AND SWAP8 DUP10 AND SWAP8 SWAP1 SWAP8 OR SWAP1 SWAP7 SSTORE PUSH1 0xC SWAP5 SWAP1 SWAP5 SSTORE PUSH1 0xD DUP1 SLOAD DUP7 AND SWAP4 DUP8 AND SWAP4 SWAP1 SWAP4 OR SWAP1 SWAP3 SSTORE PUSH1 0xE SSTORE PUSH1 0xF DUP1 SLOAD SWAP1 SWAP4 AND SWAP4 AND SWAP3 SWAP1 SWAP3 OR SWAP1 SSTORE PUSH1 0x10 SSTORE JUMP JUMPDEST PUSH1 0xB SLOAD PUSH1 0x0 SWAP1 DUP2 SWAP1 DUP2 SWAP1 PUSH1 0x1 PUSH1 0x1 PUSH1 0xA0 SHL SUB DUP7 DUP2 AND SWAP2 AND EQ ISZERO PUSH3 0x222 JUMPI POP POP PUSH1 0xC SLOAD SWAP1 POP PUSH2 0x258 PUSH1 0x0 PUSH3 0x284 JUMP JUMPDEST PUSH1 0xD SLOAD PUSH1 0x1 PUSH1 0x1 PUSH1 0xA0 SHL SUB DUP7 DUP2 AND SWAP2 AND EQ ISZERO PUSH3 0x24D JUMPI POP POP PUSH1 0xE SLOAD SWAP1 POP PUSH4 0x3C26700 PUSH1 0x0 PUSH3 0x284 JUMP JUMPDEST PUSH1 0xF SLOAD PUSH1 0x1 PUSH1 0x1 PUSH1 0xA0 SHL SUB DUP7 DUP2 AND SWAP2 AND EQ ISZERO PUSH3 0x276 JUMPI POP POP PUSH1 0x10 SLOAD SWAP1 POP PUSH2 0x16D PUSH1 0x0 PUSH3 0x284 JUMP JUMPDEST POP PUSH1 0x0 SWAP2 POP PUSH4 0xBBF81E00 SWAP1 POP DUP1 JUMPDEST PUSH1 0x1 PUSH1 0x1 PUSH1 0xA0 SHL SUB DUP6 AND PUSH1 0x0 SWAP1 DUP2 MSTORE PUSH1 0x3 PUSH1 0x20 MSTORE PUSH1 0x40 SWAP1 KECCAK256 SLOAD PUSH3 0x3D3 JUMPI PUSH1 0x40 DUP1 MLOAD PUSH1 0xA0 DUP2 ADD DUP3 MSTORE PUSH1 0x1 PUSH1 0x1 PUSH1 0xA0 SHL SUB DUP8 DUP2 AND DUP1 DUP4 MSTORE PUSH1 0x20 DUP1 DUP5 ADD DUP10 DUP2 MSTORE PUSH1 0x0 DUP6 DUP8 ADD DUP2 DUP2 MSTORE PUSH1 0x60 DUP8 ADD DUP10 DUP2 MSTORE PUSH1 0x80 DUP9 ADD DUP12 DUP2 MSTORE PUSH1 0x4 DUP1 SLOAD PUSH1 0x1 DUP2 ADD DUP3 SSTORE DUP2 DUP7 MSTORE SWAP10 MLOAD PUSH32 0x8A35ACFBC15FF81A39AE7D344FD709F28E8600B4AA8C65C6B64BFE7FE36BD19B PUSH1 0x5 SWAP1 SWAP12 MUL SWAP11 DUP12 ADD DUP1 SLOAD PUSH1 0x1 PUSH1 0x1 PUSH1 0xA0 SHL SUB NOT AND SWAP2 SWAP1 SWAP11 AND OR SWAP1 SWAP9 SSTORE SWAP4 MLOAD PUSH32 0x8A35ACFBC15FF81A39AE7D344FD709F28E8600B4AA8C65C6B64BFE7FE36BD19C DUP10 ADD SSTORE SWAP1 MLOAD PUSH32 0x8A35ACFBC15FF81A39AE7D344FD709F28E8600B4AA8C65C6B64BFE7FE36BD19D DUP9 ADD SSTORE MLOAD PUSH32 0x8A35ACFBC15FF81A39AE7D344FD709F28E8600B4AA8C65C6B64BFE7FE36BD19E DUP8 ADD SSTORE SWAP1 MLOAD PUSH32 0x8A35ACFBC15FF81A39AE7D344FD709F28E8600B4AA8C65C6B64BFE7FE36BD19F SWAP1 SWAP6 ADD SWAP5 SWAP1 SWAP5 SSTORE SWAP2 SLOAD SWAP1 DUP4 MSTORE PUSH1 0x3 SWAP1 SWAP2 MSTORE SWAP2 SWAP1 KECCAK256 SSTORE PUSH3 0x446 JUMP JUMPDEST PUSH1 0x1 PUSH1 0x1 PUSH1 0xA0 SHL SUB DUP6 AND PUSH1 0x0 SWAP1 DUP2 MSTORE PUSH1 0x3 PUSH1 0x20 MSTORE PUSH1 0x40 SWAP1 KECCAK256 SLOAD DUP5 SWAP1 PUSH1 0x4 SWAP1 PUSH3 0x3FF SWAP1 PUSH1 0x1 SWAP1 PUSH3 0x8F4 JUMP JUMPDEST DUP2 SLOAD DUP2 LT PUSH3 0x41E JUMPI PUSH4 0x4E487B71 PUSH1 0xE0 SHL PUSH1 0x0 MSTORE PUSH1 0x32 PUSH1 0x4 MSTORE PUSH1 0x24 PUSH1 0x0 REVERT JUMPDEST SWAP1 PUSH1 0x0 MSTORE PUSH1 0x20 PUSH1 0x0 KECCAK256 SWAP1 PUSH1 0x5 MUL ADD PUSH1 0x1 ADD PUSH1 0x0 DUP3 DUP3 SLOAD PUSH3 0x440 SWAP2 SWAP1 PUSH3 0x8D9 JUMP JUMPDEST SWAP1 SWAP2 SSTORE POP POP JUMPDEST PUSH1 0x1 PUSH1 0x1 PUSH1 0xA0 SHL SUB DUP6 AND PUSH1 0x0 SWAP1 DUP2 MSTORE PUSH1 0x3 PUSH1 0x20 MSTORE PUSH1 0x40 SWAP1 KECCAK256 SLOAD DUP4 SWAP1 PUSH1 0x4 SWAP1 PUSH3 0x472 SWAP1 PUSH1 0x1 SWAP1 PUSH3 0x8F4 JUMP JUMPDEST DUP2 SLOAD DUP2 LT PUSH3 0x491 JUMPI PUSH4 0x4E487B71 PUSH1 0xE0 SHL PUSH1 0x0 MSTORE PUSH1 0x32 PUSH1 0x4 MSTORE PUSH1 0x24 PUSH1 0x0 REVERT JUMPDEST SWAP1 PUSH1 0x0 MSTORE PUSH1 0x20 PUSH1 0x0 KECCAK256 SWAP1 PUSH1 0x5 MUL ADD PUSH1 0x1 ADD SLOAD GT ISZERO PUSH3 0x4C4 JUMPI PUSH1 0x40 MLOAD PUSH3 0x461BCD PUSH1 0xE5 SHL DUP2 MSTORE PUSH1 0x4 ADD PUSH3 0x18D SWAP1 PUSH3 0x7B1 JUMP JUMPDEST DUP4 PUSH1 0x5 PUSH1 0x0 DUP3 DUP3 SLOAD PUSH3 0x4D8 SWAP2 SWAP1 PUSH3 0x8D9 JUMP JUMPDEST SWAP1 SWAP2 SSTORE POP POP POP POP POP POP POP JUMP JUMPDEST PUSH3 0x4F4 PUSH1 0x0 PUSH3 0x168 PUSH3 0x111 JUMP JUMPDEST PUSH3 0x513 JUMPI PUSH1 0x40 MLOAD PUSH3 0x461BCD PUSH1 0xE5 SHL DUP2 MSTORE PUSH1 0x4 ADD PUSH3 0x18D SWAP1 PUSH3 0x77A JUMP JUMPDEST PUSH1 0x2 DUP1 SLOAD PUSH1 0xFF NOT AND PUSH1 0x1 OR SWAP1 SSTORE JUMP JUMPDEST PUSH3 0x532 PUSH1 0x0 PUSH3 0x168 PUSH3 0x111 JUMP JUMPDEST PUSH3 0x551 JUMPI PUSH1 0x40 MLOAD PUSH3 0x461BCD PUSH1 0xE5 SHL DUP2 MSTORE PUSH1 0x4 ADD PUSH3 0x18D SWAP1 PUSH3 0x77A JUMP JUMPDEST PUSH1 0x1 PUSH1 0x2 SLOAD PUSH1 0xFF AND PUSH1 0x5 DUP2 GT ISZERO PUSH3 0x579 JUMPI PUSH4 0x4E487B71 PUSH1 0xE0 SHL PUSH1 0x0 MSTORE PUSH1 0x21 PUSH1 0x4 MSTORE PUSH1 0x24 PUSH1 0x0 REVERT JUMPDEST EQ PUSH3 0x599 JUMPI PUSH1 0x40 MLOAD PUSH3 0x461BCD PUSH1 0xE5 SHL DUP2 MSTORE PUSH1 0x4 ADD PUSH3 0x18D SWAP1 PUSH3 0x87C JUMP JUMPDEST PUSH1 0x0 SELFBALANCE GT PUSH3 0x5BC JUMPI PUSH1 0x40 MLOAD PUSH3 0x461BCD PUSH1 0xE5 SHL DUP2 MSTORE PUSH1 0x4 ADD PUSH3 0x18D SWAP1 PUSH3 0x81F JUMP JUMPDEST PUSH1 0xA SLOAD PUSH1 0x40 DUP1 MLOAD PUSH4 0xD0E30DB PUSH1 0xE4 SHL DUP2 MSTORE SWAP1 MLOAD PUSH1 0x1 PUSH1 0x1 PUSH1 0xA0 SHL SUB SWAP1 SWAP3 AND SWAP2 DUP3 SWAP2 PUSH4 0xD0E30DB0 SWAP2 SELFBALANCE SWAP2 PUSH1 0x4 DUP1 DUP3 ADD SWAP3 PUSH1 0x0 SWAP3 SWAP1 SWAP2 SWAP1 DUP3 SWAP1 SUB ADD DUP2 DUP6 DUP9 DUP1 EXTCODESIZE ISZERO DUP1 ISZERO PUSH3 0x607 JUMPI PUSH1 0x0 DUP1 REVERT JUMPDEST POP GAS CALL ISZERO DUP1 ISZERO PUSH3 0x61C JUMPI RETURNDATASIZE PUSH1 0x0 DUP1 RETURNDATACOPY RETURNDATASIZE PUSH1 0x0 REVERT JUMPDEST POP POP PUSH1 0x2 DUP1 SLOAD PUSH1 0xFF NOT AND DUP2 OR SWAP1 SSTORE POP POP POP POP JUMP JUMPDEST PUSH3 0x63C DUP3 DUP3 PUSH3 0x689 JUMP JUMPDEST POP POP JUMP JUMPDEST PUSH1 0x0 PUSH3 0x657 DUP4 PUSH1 0x1 PUSH1 0x1 PUSH1 0xA0 SHL SUB DUP5 AND PUSH3 0x713 JUMP JUMPDEST SWAP1 POP JUMPDEST SWAP3 SWAP2 POP POP JUMP JUMPDEST PUSH1 0x0 SWAP2 DUP3 MSTORE PUSH1 0x20 DUP3 DUP2 MSTORE PUSH1 0x40 DUP1 DUP5 KECCAK256 PUSH1 0x1 PUSH1 0x1 PUSH1 0xA0 SHL SUB SWAP4 SWAP1 SWAP4 AND DUP5 MSTORE SWAP2 SWAP1 MSTORE SWAP1 KECCAK256 SLOAD PUSH1 0xFF AND SWAP1 JUMP JUMPDEST PUSH3 0x695 DUP3 DUP3 PUSH3 0x660 JUMP JUMPDEST PUSH3 0x63C JUMPI PUSH1 0x0 DUP3 DUP2 MSTORE PUSH1 0x20 DUP2 DUP2 MSTORE PUSH1 0x40 DUP1 DUP4 KECCAK256 PUSH1 0x1 PUSH1 0x1 PUSH1 0xA0 SHL SUB DUP6 AND DUP5 MSTORE SWAP1 SWAP2 MSTORE SWAP1 KECCAK256 DUP1 SLOAD PUSH1 0xFF NOT AND PUSH1 0x1 OR SWAP1 SSTORE PUSH3 0x6CF PUSH3 0x111 JUMP JUMPDEST PUSH1 0x1 PUSH1 0x1 PUSH1 0xA0 SHL SUB AND DUP2 PUSH1 0x1 PUSH1 0x1 PUSH1 0xA0 SHL SUB AND DUP4 PUSH32 0x2F8788117E7EFF1D82E926EC794901D17C78024A50270940304540A733656F0D PUSH1 0x40 MLOAD PUSH1 0x40 MLOAD DUP1 SWAP2 SUB SWAP1 LOG4 POP POP JUMP JUMPDEST PUSH1 0x0 PUSH3 0x721 DUP4 DUP4 PUSH3 0x762 JUMP JUMPDEST PUSH3 0x759 JUMPI POP DUP2 SLOAD PUSH1 0x1 DUP2 DUP2 ADD DUP5 SSTORE PUSH1 0x0 DUP5 DUP2 MSTORE PUSH1 0x20 DUP1 DUP3 KECCAK256 SWAP1 SWAP4 ADD DUP5 SWAP1 SSTORE DUP5 SLOAD DUP5 DUP3 MSTORE DUP3 DUP7 ADD SWAP1 SWAP4 MSTORE PUSH1 0x40 SWAP1 KECCAK256 SWAP2 SWAP1 SWAP2 SSTORE PUSH3 0x65A JUMP JUMPDEST POP PUSH1 0x0 PUSH3 0x65A JUMP JUMPDEST PUSH1 0x0 SWAP1 DUP2 MSTORE PUSH1 0x1 SWAP2 SWAP1 SWAP2 ADD PUSH1 0x20 MSTORE PUSH1 0x40 SWAP1 KECCAK256 SLOAD ISZERO ISZERO SWAP1 JUMP JUMPDEST PUSH1 0x20 DUP1 DUP3 MSTORE PUSH1 0x1C SWAP1 DUP3 ADD MSTORE PUSH32 0x56657374696E67436F6E74726163743A2021524F4C455F41444D494E00000000 PUSH1 0x40 DUP3 ADD MSTORE PUSH1 0x60 ADD SWAP1 JUMP JUMPDEST PUSH1 0x20 DUP1 DUP3 MSTORE PUSH1 0x48 SWAP1 DUP3 ADD MSTORE PUSH32 0x56657374696E67436F6E74726163743A20526571756972657320496E76657374 PUSH1 0x40 DUP3 ADD MSTORE PUSH32 0x6F72206D617820616D6F756E74206C657373207468616E206D6178496E766573 PUSH1 0x60 DUP3 ADD MSTORE PUSH8 0x74416D6F756E7421 PUSH1 0xC0 SHL PUSH1 0x80 DUP3 ADD MSTORE PUSH1 0xA0 ADD SWAP1 JUMP JUMPDEST PUSH1 0x20 DUP1 DUP3 MSTORE PUSH1 0x38 SWAP1 DUP3 ADD MSTORE PUSH32 0x56657374696E67436F6E74726163743A2045746865722062616C616E6365206D PUSH1 0x40 DUP3 ADD MSTORE PUSH32 0x757374206265206C6172676572207468616E207A65726F210000000000000000 PUSH1 0x60 DUP3 ADD MSTORE PUSH1 0x80 ADD SWAP1 JUMP JUMPDEST PUSH1 0x20 DUP1 DUP3 MSTORE PUSH1 0x36 SWAP1 DUP3 ADD MSTORE PUSH32 0x56657374696E67436F6E74726163743A20507265706172696E6720616464206C PUSH1 0x40 DUP3 ADD MSTORE PUSH32 0x697175696469747920697320636F6D706C657465642100000000000000000000 PUSH1 0x60 DUP3 ADD MSTORE PUSH1 0x80 ADD SWAP1 JUMP JUMPDEST PUSH1 0x0 DUP3 NOT DUP3 GT ISZERO PUSH3 0x8EF JUMPI PUSH3 0x8EF PUSH3 0x90E JUMP JUMPDEST POP ADD SWAP1 JUMP JUMPDEST PUSH1 0x0 DUP3 DUP3 LT ISZERO PUSH3 0x909 JUMPI PUSH3 0x909 PUSH3 0x90E JUMP JUMPDEST POP SUB SWAP1 JUMP JUMPDEST PUSH4 0x4E487B71 PUSH1 0xE0 SHL PUSH1 0x0 MSTORE PUSH1 0x11 PUSH1 0x4 MSTORE PUSH1 0x24 PUSH1 0x0 REVERT JUMPDEST PUSH2 0x3097 DUP1 PUSH3 0x934 PUSH1 0x0 CODECOPY PUSH1 0x0 RETURN INVALID PUSH1 0x80 PUSH1 0x40 MSTORE PUSH1 0x4 CALLDATASIZE LT PUSH2 0x2B2 JUMPI PUSH1 0x0 CALLDATALOAD PUSH1 0xE0 SHR DUP1 PUSH4 0x83294F2E GT PUSH2 0x175 JUMPI DUP1 PUSH4 0xC19D93FB GT PUSH2 0xDC JUMPI DUP1 PUSH4 0xD547741F GT PUSH2 0x95 JUMPI DUP1 PUSH4 0xE608D3E5 GT PUSH2 0x6F JUMPI DUP1 PUSH4 0xE608D3E5 EQ PUSH2 0x7B9 JUMPI DUP1 PUSH4 0xE8078D94 EQ PUSH2 0x7CE JUMPI DUP1 PUSH4 0xED21187A EQ PUSH2 0x7E3 JUMPI DUP1 PUSH4 0xFE3D6F72 EQ PUSH2 0x599 JUMPI PUSH2 0x310 JUMP JUMPDEST DUP1 PUSH4 0xD547741F EQ PUSH2 0x76F JUMPI DUP1 PUSH4 0xE1758BD8 EQ PUSH2 0x78F JUMPI DUP1 PUSH4 0xE37530FB EQ PUSH2 0x7A4 JUMPI PUSH2 0x310 JUMP JUMPDEST DUP1 PUSH4 0xC19D93FB EQ PUSH2 0x6F8 JUMPI DUP1 PUSH4 0xC35BEA89 EQ PUSH2 0x599 JUMPI DUP1 PUSH4 0xC45CB66C EQ PUSH2 0x71A JUMPI DUP1 PUSH4 0xCA15C873 EQ PUSH2 0x73A JUMPI DUP1 PUSH4 0xCACCD7F7 EQ PUSH2 0x75A JUMPI DUP1 PUSH4 0xD391014B EQ PUSH2 0x599 JUMPI PUSH2 0x310 JUMP JUMPDEST DUP1 PUSH4 0x9ADAE351 GT PUSH2 0x12E JUMPI DUP1 PUSH4 0x9ADAE351 EQ PUSH2 0x66F JUMPI DUP1 PUSH4 0x9E01E31C EQ PUSH2 0x684 JUMPI DUP1 PUSH4 0x9E78FB4F EQ PUSH2 0x699 JUMPI DUP1 PUSH4 0xA5ECE941 EQ PUSH2 0x6AE JUMPI DUP1 PUSH4 0xB6E4F1A1 EQ PUSH2 0x6C3 JUMPI DUP1 PUSH4 0xBA688845 EQ PUSH2 0x6E3 JUMPI PUSH2 0x310 JUMP JUMPDEST DUP1 PUSH4 0x83294F2E EQ PUSH2 0x5DB JUMPI DUP1 PUSH4 0x84E72B40 EQ PUSH2 0x5F0 JUMPI DUP1 PUSH4 0x8ACF09F6 EQ PUSH2 0x605 JUMPI DUP1 PUSH4 0x9010D07C EQ PUSH2 0x61A JUMPI DUP1 PUSH4 0x91D14854 EQ PUSH2 0x63A JUMPI DUP1 PUSH4 0x9AB1B484 EQ PUSH2 0x65A JUMPI PUSH2 0x310 JUMP JUMPDEST DUP1 PUSH4 0x46F99063 GT PUSH2 0x219 JUMPI DUP1 PUSH4 0x5F6577A8 GT PUSH2 0x1D2 JUMPI DUP1 PUSH4 0x5F6577A8 EQ PUSH2 0x52F JUMPI DUP1 PUSH4 0x65069863 EQ PUSH2 0x544 JUMPI DUP1 PUSH4 0x688A5E74 EQ PUSH2 0x564 JUMPI DUP1 PUSH4 0x6D81779B EQ PUSH2 0x584 JUMPI DUP1 PUSH4 0x719D2685 EQ PUSH2 0x599 JUMPI DUP1 PUSH4 0x818A36A1 EQ PUSH2 0x5AE JUMPI PUSH2 0x310 JUMP JUMPDEST DUP1 PUSH4 0x46F99063 EQ PUSH2 0x49B JUMPI DUP1 PUSH4 0x48931352 EQ PUSH2 0x4B0 JUMPI DUP1 PUSH4 0x48BAB86E EQ PUSH2 0x4C5 JUMPI DUP1 PUSH4 0x5216AEEC EQ PUSH2 0x4DA JUMPI DUP1 PUSH4 0x5A5BB3B2 EQ PUSH2 0x4EF JUMPI DUP1 PUSH4 0x5C129441 EQ PUSH2 0x50F JUMPI PUSH2 0x310 JUMP JUMPDEST DUP1 PUSH4 0x2F2FF15D GT PUSH2 0x26B JUMPI DUP1 PUSH4 0x2F2FF15D EQ PUSH2 0x3FC JUMPI DUP1 PUSH4 0x300653E6 EQ PUSH2 0x41C JUMPI DUP1 PUSH4 0x36568ABE EQ PUSH2 0x431 JUMPI DUP1 PUSH4 0x36BDC55C EQ PUSH2 0x451 JUMPI DUP1 PUSH4 0x3A6AFC25 EQ PUSH2 0x466 JUMPI DUP1 PUSH4 0x3DEF3853 EQ PUSH2 0x486 JUMPI PUSH2 0x310 JUMP JUMPDEST DUP1 PUSH4 0x1FFC9A7 EQ PUSH2 0x315 JUMPI DUP1 PUSH4 0xC0589C2 EQ PUSH2 0x34B JUMPI DUP1 PUSH4 0x1C75F085 EQ PUSH2 0x36B JUMPI DUP1 PUSH4 0x1C7B2148 EQ PUSH2 0x38D JUMPI DUP1 PUSH4 0x248A9CA3 EQ PUSH2 0x3AF JUMPI DUP1 PUSH4 0x286777D0 EQ PUSH2 0x3CF JUMPI PUSH2 0x310 JUMP JUMPDEST CALLDATASIZE PUSH2 0x310 JUMPI PUSH1 0x0 PUSH1 0x2 SLOAD PUSH1 0xFF AND PUSH1 0x5 DUP2 GT ISZERO PUSH2 0x2DE JUMPI PUSH4 0x4E487B71 PUSH1 0xE0 SHL PUSH1 0x0 MSTORE PUSH1 0x21 PUSH1 0x4 MSTORE PUSH1 0x24 PUSH1 0x0 REVERT JUMPDEST EQ PUSH2 0x304 JUMPI PUSH1 0x40 MLOAD PUSH3 0x461BCD PUSH1 0xE5 SHL DUP2 MSTORE PUSH1 0x4 ADD PUSH2 0x2FB SWAP1 PUSH2 0x2EA3 JUMP JUMPDEST PUSH1 0x40 MLOAD DUP1 SWAP2 SUB SWAP1 REVERT JUMPDEST PUSH2 0x30E CALLER CALLVALUE PUSH2 0x7F8 JUMP JUMPDEST STOP JUMPDEST PUSH1 0x0 DUP1 REVERT JUMPDEST CALLVALUE DUP1 ISZERO PUSH2 0x321 JUMPI PUSH1 0x0 DUP1 REVERT JUMPDEST POP PUSH2 0x335 PUSH2 0x330 CALLDATASIZE PUSH1 0x4 PUSH2 0x28AA JUMP JUMPDEST PUSH2 0xAD5 JUMP JUMPDEST PUSH1 0x40 MLOAD PUSH2 0x342 SWAP2 SWAP1 PUSH2 0x2A2A JUMP JUMPDEST PUSH1 0x40 MLOAD DUP1 SWAP2 SUB SWAP1 RETURN JUMPDEST CALLVALUE DUP1 ISZERO PUSH2 0x357 JUMPI PUSH1 0x0 DUP1 REVERT JUMPDEST POP PUSH2 0x30E PUSH2 0x366 CALLDATASIZE PUSH1 0x4 PUSH2 0x2842 JUMP JUMPDEST PUSH2 0xB02 JUMP JUMPDEST CALLVALUE DUP1 ISZERO PUSH2 0x377 JUMPI PUSH1 0x0 DUP1 REVERT JUMPDEST POP PUSH2 0x380 PUSH2 0xCAE JUMP JUMPDEST PUSH1 0x40 MLOAD PUSH2 0x342 SWAP2 SWAP1 PUSH2 0x2995 JUMP JUMPDEST CALLVALUE DUP1 ISZERO PUSH2 0x399 JUMPI PUSH1 0x0 DUP1 REVERT JUMPDEST POP PUSH2 0x3A2 PUSH2 0xCBD JUMP JUMPDEST PUSH1 0x40 MLOAD PUSH2 0x342 SWAP2 SWAP1 PUSH2 0x2A35 JUMP JUMPDEST CALLVALUE DUP1 ISZERO PUSH2 0x3BB JUMPI PUSH1 0x0 DUP1 REVERT JUMPDEST POP PUSH2 0x3A2 PUSH2 0x3CA CALLDATASIZE PUSH1 0x4 PUSH2 0x2842 JUMP JUMPDEST PUSH2 0xCC3 JUMP JUMPDEST CALLVALUE DUP1 ISZERO PUSH2 0x3DB JUMPI PUSH1 0x0 DUP1 REVERT JUMPDEST POP PUSH2 0x3EF PUSH2 0x3EA CALLDATASIZE PUSH1 0x4 PUSH2 0x2842 JUMP JUMPDEST PUSH2 0xCD8 JUMP JUMPDEST PUSH1 0x40 MLOAD PUSH2 0x342 SWAP2 SWAP1 PUSH2 0x2F47 JUMP JUMPDEST CALLVALUE DUP1 ISZERO PUSH2 0x408 JUMPI PUSH1 0x0 DUP1 REVERT JUMPDEST POP PUSH2 0x30E PUSH2 0x417 CALLDATASIZE PUSH1 0x4 PUSH2 0x285A JUMP JUMPDEST PUSH2 0xD5C JUMP JUMPDEST CALLVALUE DUP1 ISZERO PUSH2 0x428 JUMPI PUSH1 0x0 DUP1 REVERT JUMPDEST POP PUSH2 0x3A2 PUSH2 0xD83 JUMP JUMPDEST CALLVALUE DUP1 ISZERO PUSH2 0x43D JUMPI PUSH1 0x0 DUP1 REVERT JUMPDEST POP PUSH2 0x30E PUSH2 0x44C CALLDATASIZE PUSH1 0x4 PUSH2 0x285A JUMP JUMPDEST PUSH2 0xD89 JUMP JUMPDEST CALLVALUE DUP1 ISZERO PUSH2 0x45D JUMPI PUSH1 0x0 DUP1 REVERT JUMPDEST POP PUSH2 0x3A2 PUSH2 0xDAB JUMP JUMPDEST CALLVALUE DUP1 ISZERO PUSH2 0x472 JUMPI PUSH1 0x0 DUP1 REVERT JUMPDEST POP PUSH2 0x3A2 PUSH2 0x481 CALLDATASIZE PUSH1 0x4 PUSH2 0x2770 JUMP JUMPDEST PUSH2 0xDB3 JUMP JUMPDEST CALLVALUE DUP1 ISZERO PUSH2 0x492 JUMPI PUSH1 0x0 DUP1 REVERT JUMPDEST POP PUSH2 0x3A2 PUSH2 0xF8E JUMP JUMPDEST CALLVALUE DUP1 ISZERO PUSH2 0x4A7 JUMPI PUSH1 0x0 DUP1 REVERT JUMPDEST POP PUSH2 0x3A2 PUSH2 0xF94 JUMP JUMPDEST CALLVALUE DUP1 ISZERO PUSH2 0x4BC JUMPI PUSH1 0x0 DUP1 REVERT JUMPDEST POP PUSH2 0x3A2 PUSH2 0xF9A JUMP JUMPDEST CALLVALUE DUP1 ISZERO PUSH2 0x4D1 JUMPI PUSH1 0x0 DUP1 REVERT JUMPDEST POP PUSH2 0x3A2 PUSH2 0xFAB JUMP JUMPDEST CALLVALUE DUP1 ISZERO PUSH2 0x4E6 JUMPI PUSH1 0x0 DUP1 REVERT JUMPDEST POP PUSH2 0x3A2 PUSH2 0xFB1 JUMP JUMPDEST CALLVALUE DUP1 ISZERO PUSH2 0x4FB JUMPI PUSH1 0x0 DUP1 REVERT JUMPDEST POP PUSH2 0x30E PUSH2 0x50A CALLDATASIZE PUSH1 0x4 PUSH2 0x2770 JUMP JUMPDEST PUSH2 0xFB7 JUMP JUMPDEST CALLVALUE DUP1 ISZERO PUSH2 0x51B JUMPI PUSH1 0x0 DUP1 REVERT JUMPDEST POP PUSH2 0x30E PUSH2 0x52A CALLDATASIZE PUSH1 0x4 PUSH2 0x2842 JUMP JUMPDEST PUSH2 0x1002 JUMP JUMPDEST CALLVALUE DUP1 ISZERO PUSH2 0x53B JUMPI PUSH1 0x0 DUP1 REVERT JUMPDEST POP PUSH2 0x30E PUSH2 0x1173 JUMP JUMPDEST CALLVALUE DUP1 ISZERO PUSH2 0x550 JUMPI PUSH1 0x0 DUP1 REVERT JUMPDEST POP PUSH2 0x3EF PUSH2 0x55F CALLDATASIZE PUSH1 0x4 PUSH2 0x2770 JUMP JUMPDEST PUSH2 0x1272 JUMP JUMPDEST CALLVALUE DUP1 ISZERO PUSH2 0x570 JUMPI PUSH1 0x0 DUP1 REVERT JUMPDEST POP PUSH2 0x30E PUSH2 0x57F CALLDATASIZE PUSH1 0x4 PUSH2 0x2842 JUMP JUMPDEST PUSH2 0x12C0 JUMP JUMPDEST CALLVALUE DUP1 ISZERO PUSH2 0x590 JUMPI PUSH1 0x0 DUP1 REVERT JUMPDEST POP PUSH2 0x3A2 PUSH2 0x13F6 JUMP JUMPDEST CALLVALUE DUP1 ISZERO PUSH2 0x5A5 JUMPI PUSH1 0x0 DUP1 REVERT JUMPDEST POP PUSH2 0x3A2 PUSH2 0x13FC JUMP JUMPDEST CALLVALUE DUP1 ISZERO PUSH2 0x5BA JUMPI PUSH1 0x0 DUP1 REVERT JUMPDEST POP PUSH2 0x5CE PUSH2 0x5C9 CALLDATASIZE PUSH1 0x4 PUSH2 0x2889 JUMP JUMPDEST PUSH2 0x1401 JUMP JUMPDEST PUSH1 0x40 MLOAD PUSH2 0x342 SWAP2 SWAP1 PUSH2 0x29DC JUMP JUMPDEST CALLVALUE DUP1 ISZERO PUSH2 0x5E7 JUMPI PUSH1 0x0 DUP1 REVERT JUMPDEST POP PUSH2 0x3A2 PUSH2 0x157C JUMP JUMPDEST CALLVALUE DUP1 ISZERO PUSH2 0x5FC JUMPI PUSH1 0x0 DUP1 REVERT JUMPDEST POP PUSH2 0x380 PUSH2 0x15A0 JUMP JUMPDEST CALLVALUE DUP1 ISZERO PUSH2 0x611 JUMPI PUSH1 0x0 DUP1 REVERT JUMPDEST POP PUSH2 0x3A2 PUSH2 0x15AF JUMP JUMPDEST CALLVALUE DUP1 ISZERO PUSH2 0x626 JUMPI PUSH1 0x0 DUP1 REVERT JUMPDEST POP PUSH2 0x380 PUSH2 0x635 CALLDATASIZE PUSH1 0x4 PUSH2 0x2889 JUMP JUMPDEST PUSH2 0x15B5 JUMP JUMPDEST CALLVALUE DUP1 ISZERO PUSH2 0x646 JUMPI PUSH1 0x0 DUP1 REVERT JUMPDEST POP PUSH2 0x335 PUSH2 0x655 CALLDATASIZE PUSH1 0x4 PUSH2 0x285A JUMP JUMPDEST PUSH2 0x15D4 JUMP JUMPDEST CALLVALUE DUP1 ISZERO PUSH2 0x666 JUMPI PUSH1 0x0 DUP1 REVERT JUMPDEST POP PUSH2 0x30E PUSH2 0x15FD JUMP JUMPDEST CALLVALUE DUP1 ISZERO PUSH2 0x67B JUMPI PUSH1 0x0 DUP1 REVERT JUMPDEST POP PUSH2 0x380 PUSH2 0x189C JUMP JUMPDEST CALLVALUE DUP1 ISZERO PUSH2 0x690 JUMPI PUSH1 0x0 DUP1 REVERT JUMPDEST POP PUSH2 0x3A2 PUSH2 0x18AB JUMP JUMPDEST CALLVALUE DUP1 ISZERO PUSH2 0x6A5 JUMPI PUSH1 0x0 DUP1 REVERT JUMPDEST POP PUSH2 0x30E PUSH2 0x18CF JUMP JUMPDEST CALLVALUE DUP1 ISZERO PUSH2 0x6BA JUMPI PUSH1 0x0 DUP1 REVERT JUMPDEST POP PUSH2 0x380 PUSH2 0x1C41 JUMP JUMPDEST CALLVALUE DUP1 ISZERO PUSH2 0x6CF JUMPI PUSH1 0x0 DUP1 REVERT JUMPDEST POP PUSH2 0x3A2 PUSH2 0x6DE CALLDATASIZE PUSH1 0x4 PUSH2 0x2770 JUMP JUMPDEST PUSH2 0x1C50 JUMP JUMPDEST CALLVALUE DUP1 ISZERO PUSH2 0x6EF JUMPI PUSH1 0x0 DUP1 REVERT JUMPDEST POP PUSH2 0x30E PUSH2 0x1D83 JUMP JUMPDEST CALLVALUE DUP1 ISZERO PUSH2 0x704 JUMPI PUSH1 0x0 DUP1 REVERT JUMPDEST POP PUSH2 0x70D PUSH2 0x1DBB JUMP JUMPDEST PUSH1 0x40 MLOAD PUSH2 0x342 SWAP2 SWAP1 PUSH2 0x2A55 JUMP JUMPDEST CALLVALUE DUP1 ISZERO PUSH2 0x726 JUMPI PUSH1 0x0 DUP1 REVERT JUMPDEST POP PUSH2 0x30E PUSH2 0x735 CALLDATASIZE PUSH1 0x4 PUSH2 0x27A8 JUMP JUMPDEST PUSH2 0x1DC4 JUMP JUMPDEST CALLVALUE DUP1 ISZERO PUSH2 0x746 JUMPI PUSH1 0x0 DUP1 REVERT JUMPDEST POP PUSH2 0x3A2 PUSH2 0x755 CALLDATASIZE PUSH1 0x4 PUSH2 0x2842 JUMP JUMPDEST PUSH2 0x1E49 JUMP JUMPDEST CALLVALUE DUP1 ISZERO PUSH2 0x766 JUMPI PUSH1 0x0 DUP1 REVERT JUMPDEST POP PUSH2 0x380 PUSH2 0x1E60 JUMP JUMPDEST CALLVALUE DUP1 ISZERO PUSH2 0x77B JUMPI PUSH1 0x0 DUP1 REVERT JUMPDEST POP PUSH2 0x30E PUSH2 0x78A CALLDATASIZE PUSH1 0x4 PUSH2 0x285A JUMP JUMPDEST PUSH2 0x1E6F JUMP JUMPDEST CALLVALUE DUP1 ISZERO PUSH2 0x79B JUMPI PUSH1 0x0 DUP1 REVERT JUMPDEST POP PUSH2 0x380 PUSH2 0x1E79 JUMP JUMPDEST CALLVALUE DUP1 ISZERO PUSH2 0x7B0 JUMPI PUSH1 0x0 DUP1 REVERT JUMPDEST POP PUSH2 0x3A2 PUSH2 0x1E88 JUMP JUMPDEST CALLVALUE DUP1 ISZERO PUSH2 0x7C5 JUMPI PUSH1 0x0 DUP1 REVERT JUMPDEST POP PUSH2 0x3A2 PUSH2 0x1E8E JUMP JUMPDEST CALLVALUE DUP1 ISZERO PUSH2 0x7DA JUMPI PUSH1 0x0 DUP1 REVERT JUMPDEST POP PUSH2 0x30E PUSH2 0x1E94 JUMP JUMPDEST CALLVALUE DUP1 ISZERO PUSH2 0x7EF JUMPI PUSH1 0x0 DUP1 REVERT JUMPDEST POP PUSH2 0x3A2 PUSH2 0x2143 JUMP JUMPDEST PUSH1 0xB SLOAD PUSH1 0x0 SWAP1 DUP2 SWAP1 DUP2 SWAP1 PUSH1 0x1 PUSH1 0x1 PUSH1 0xA0 SHL SUB DUP7 DUP2 AND SWAP2 AND EQ ISZERO PUSH2 0x826 JUMPI POP POP PUSH1 0xC SLOAD SWAP1 POP PUSH2 0x258 PUSH1 0x0 PUSH2 0x884 JUMP JUMPDEST PUSH1 0xD SLOAD PUSH1 0x1 PUSH1 0x1 PUSH1 0xA0 SHL SUB DUP7 DUP2 AND SWAP2 AND EQ ISZERO PUSH2 0x84F JUMPI POP POP PUSH1 0xE SLOAD SWAP1 POP PUSH4 0x3C26700 PUSH1 0x0 PUSH2 0x884 JUMP JUMPDEST PUSH1 0xF SLOAD PUSH1 0x1 PUSH1 0x1 PUSH1 0xA0 SHL SUB DUP7 DUP2 AND SWAP2 AND EQ ISZERO PUSH2 0x876 JUMPI POP POP PUSH1 0x10 SLOAD SWAP1 POP PUSH2 0x16D PUSH1 0x0 PUSH2 0x884 JUMP JUMPDEST POP PUSH1 0x0 SWAP2 POP PUSH4 0xBBF81E00 SWAP1 POP DUP1 JUMPDEST PUSH1 0x1 PUSH1 0x1 PUSH1 0xA0 SHL SUB DUP6 AND PUSH1 0x0 SWAP1 DUP2 MSTORE PUSH1 0x3 PUSH1 0x20 MSTORE PUSH1 0x40 SWAP1 KECCAK256 SLOAD PUSH2 0x9D1 JUMPI PUSH1 0x40 DUP1 MLOAD PUSH1 0xA0 DUP2 ADD DUP3 MSTORE PUSH1 0x1 PUSH1 0x1 PUSH1 0xA0 SHL SUB DUP8 DUP2 AND DUP1 DUP4 MSTORE PUSH1 0x20 DUP1 DUP5 ADD DUP10 DUP2 MSTORE PUSH1 0x0 DUP6 DUP8 ADD DUP2 DUP2 MSTORE PUSH1 0x60 DUP8 ADD DUP10 DUP2 MSTORE PUSH1 0x80 DUP9 ADD DUP12 DUP2 MSTORE PUSH1 0x4 DUP1 SLOAD PUSH1 0x1 DUP2 ADD DUP3 SSTORE DUP2 DUP7 MSTORE SWAP10 MLOAD PUSH32 0x8A35ACFBC15FF81A39AE7D344FD709F28E8600B4AA8C65C6B64BFE7FE36BD19B PUSH1 0x5 SWAP1 SWAP12 MUL SWAP11 DUP12 ADD DUP1 SLOAD PUSH1 0x1 PUSH1 0x1 PUSH1 0xA0 SHL SUB NOT AND SWAP2 SWAP1 SWAP11 AND OR SWAP1 SWAP9 SSTORE SWAP4 MLOAD PUSH32 0x8A35ACFBC15FF81A39AE7D344FD709F28E8600B4AA8C65C6B64BFE7FE36BD19C DUP10 ADD SSTORE SWAP1 MLOAD PUSH32 0x8A35ACFBC15FF81A39AE7D344FD709F28E8600B4AA8C65C6B64BFE7FE36BD19D DUP9 ADD SSTORE MLOAD PUSH32 0x8A35ACFBC15FF81A39AE7D344FD709F28E8600B4AA8C65C6B64BFE7FE36BD19E DUP8 ADD SSTORE SWAP1 MLOAD PUSH32 0x8A35ACFBC15FF81A39AE7D344FD709F28E8600B4AA8C65C6B64BFE7FE36BD19F SWAP1 SWAP6 ADD SWAP5 SWAP1 SWAP5 SSTORE SWAP2 SLOAD SWAP1 DUP4 MSTORE PUSH1 0x3 SWAP1 SWAP2 MSTORE SWAP2 SWAP1 KECCAK256 SSTORE PUSH2 0xA3F JUMP JUMPDEST PUSH1 0x1 PUSH1 0x1 PUSH1 0xA0 SHL SUB DUP6 AND PUSH1 0x0 SWAP1 DUP2 MSTORE PUSH1 0x3 PUSH1 0x20 MSTORE PUSH1 0x40 SWAP1 KECCAK256 SLOAD DUP5 SWAP1 PUSH1 0x4 SWAP1 PUSH2 0x9FB SWAP1 PUSH1 0x1 SWAP1 PUSH2 0x2FBA JUMP JUMPDEST DUP2 SLOAD DUP2 LT PUSH2 0xA19 JUMPI PUSH4 0x4E487B71 PUSH1 0xE0 SHL PUSH1 0x0 MSTORE PUSH1 0x32 PUSH1 0x4 MSTORE PUSH1 0x24 PUSH1 0x0 REVERT JUMPDEST SWAP1 PUSH1 0x0 MSTORE PUSH1 0x20 PUSH1 0x0 KECCAK256 SWAP1 PUSH1 0x5 MUL ADD PUSH1 0x1 ADD PUSH1 0x0 DUP3 DUP3 SLOAD PUSH2 0xA39 SWAP2 SWAP1 PUSH2 0x2F63 JUMP JUMPDEST SWAP1 SWAP2 SSTORE POP POP JUMPDEST PUSH1 0x1 PUSH1 0x1 PUSH1 0xA0 SHL SUB DUP6 AND PUSH1 0x0 SWAP1 DUP2 MSTORE PUSH1 0x3 PUSH1 0x20 MSTORE PUSH1 0x40 SWAP1 KECCAK256 SLOAD DUP4 SWAP1 PUSH1 0x4 SWAP1 PUSH2 0xA69 SWAP1 PUSH1 0x1 SWAP1 PUSH2 0x2FBA JUMP JUMPDEST DUP2 SLOAD DUP2 LT PUSH2 0xA87 JUMPI PUSH4 0x4E487B71 PUSH1 0xE0 SHL PUSH1 0x0 MSTORE PUSH1 0x32 PUSH1 0x4 MSTORE PUSH1 0x24 PUSH1 0x0 REVERT JUMPDEST SWAP1 PUSH1 0x0 MSTORE PUSH1 0x20 PUSH1 0x0 KECCAK256 SWAP1 PUSH1 0x5 MUL ADD PUSH1 0x1 ADD SLOAD GT ISZERO PUSH2 0xAB7 JUMPI PUSH1 0x40 MLOAD PUSH3 0x461BCD PUSH1 0xE5 SHL DUP2 MSTORE PUSH1 0x4 ADD PUSH2 0x2FB SWAP1 PUSH2 0x2C26 JUMP JUMPDEST DUP4 PUSH1 0x5 PUSH1 0x0 DUP3 DUP3 SLOAD PUSH2 0xAC9 SWAP2 SWAP1 PUSH2 0x2F63 JUMP JUMPDEST SWAP1 SWAP2 SSTORE POP POP POP POP POP POP POP JUMP JUMPDEST PUSH1 0x0 PUSH1 0x1 PUSH1 0x1 PUSH1 0xE0 SHL SUB NOT DUP3 AND PUSH4 0x5A05180F PUSH1 0xE0 SHL EQ DUP1 PUSH2 0xAFA JUMPI POP PUSH2 0xAFA DUP3 PUSH2 0x216C JUMP JUMPDEST SWAP1 POP JUMPDEST SWAP2 SWAP1 POP JUMP JUMPDEST PUSH2 0xB0F PUSH1 0x0 PUSH2 0x655 PUSH2 0x2191 JUMP JUMPDEST PUSH2 0xB2B JUMPI PUSH1 0x40 MLOAD PUSH3 0x461BCD PUSH1 0xE5 SHL DUP2 MSTORE PUSH1 0x4 ADD PUSH2 0x2FB SWAP1 PUSH2 0x2B76 JUMP JUMPDEST PUSH1 0x7 SLOAD PUSH1 0x40 MLOAD PUSH4 0x18A8AD87 PUSH1 0xE0 SHL DUP2 MSTORE PUSH1 0x1 PUSH1 0x1 PUSH1 0xA0 SHL SUB SWAP1 SWAP2 AND SWAP1 DUP2 SWAP1 PUSH4 0x18A8AD87 SWAP1 PUSH2 0xB5F SWAP1 ADDRESS SWAP1 DUP7 SWAP1 PUSH1 0x4 ADD PUSH2 0x29C3 JUMP JUMPDEST PUSH1 0x0 PUSH1 0x40 MLOAD DUP1 DUP4 SUB DUP2 PUSH1 0x0 DUP8 DUP1 EXTCODESIZE ISZERO DUP1 ISZERO PUSH2 0xB79 JUMPI PUSH1 0x0 DUP1 REVERT JUMPDEST POP GAS CALL ISZERO DUP1 ISZERO PUSH2 0xB8D JUMPI RETURNDATASIZE PUSH1 0x0 DUP1 RETURNDATACOPY RETURNDATASIZE PUSH1 0x0 REVERT JUMPDEST POP POP PUSH1 0x7 SLOAD PUSH1 0x40 MLOAD PUSH4 0x6FB1A07 PUSH1 0xE0 SHL DUP2 MSTORE PUSH1 0x0 SWAP4 POP PUSH1 0x1 PUSH1 0x1 PUSH1 0xA0 SHL SUB SWAP1 SWAP2 AND SWAP2 POP PUSH4 0x6FB1A07 SWAP1 PUSH2 0xBC4 SWAP1 DUP5 SWAP1 PUSH1 0x4 ADD PUSH2 0x2A35 JUMP JUMPDEST PUSH1 0x20 PUSH1 0x40 MLOAD DUP1 DUP4 SUB DUP2 DUP7 DUP1 EXTCODESIZE ISZERO DUP1 ISZERO PUSH2 0xBDC JUMPI PUSH1 0x0 DUP1 REVERT JUMPDEST POP GAS STATICCALL ISZERO DUP1 ISZERO PUSH2 0xBF0 JUMPI RETURNDATASIZE PUSH1 0x0 DUP1 RETURNDATACOPY RETURNDATASIZE PUSH1 0x0 REVERT JUMPDEST POP POP POP POP PUSH1 0x40 MLOAD RETURNDATASIZE PUSH1 0x1F NOT PUSH1 0x1F DUP3 ADD AND DUP3 ADD DUP1 PUSH1 0x40 MSTORE POP DUP2 ADD SWAP1 PUSH2 0xC14 SWAP2 SWAP1 PUSH2 0x278C JUMP JUMPDEST PUSH1 0x40 MLOAD PUSH4 0x444328E1 PUSH1 0xE1 SHL DUP2 MSTORE SWAP1 SWAP2 POP PUSH1 0x1 PUSH1 0x1 PUSH1 0xA0 SHL SUB DUP3 AND SWAP1 PUSH4 0x888651C2 SWAP1 PUSH2 0xC43 SWAP1 DUP7 SWAP1 PUSH1 0x4 ADD PUSH2 0x2A35 JUMP JUMPDEST PUSH1 0x20 PUSH1 0x40 MLOAD DUP1 DUP4 SUB DUP2 DUP7 DUP1 EXTCODESIZE ISZERO DUP1 ISZERO PUSH2 0xC5B JUMPI PUSH1 0x0 DUP1 REVERT JUMPDEST POP GAS STATICCALL ISZERO DUP1 ISZERO PUSH2 0xC6F JUMPI RETURNDATASIZE PUSH1 0x0 DUP1 RETURNDATACOPY RETURNDATASIZE PUSH1 0x0 REVERT JUMPDEST POP POP POP POP PUSH1 0x40 MLOAD RETURNDATASIZE PUSH1 0x1F NOT PUSH1 0x1F DUP3 ADD AND DUP3 ADD DUP1 PUSH1 0x40 MSTORE POP DUP2 ADD SWAP1 PUSH2 0xC93 SWAP2 SWAP1 PUSH2 0x28D2 JUMP JUMPDEST PUSH1 0x13 PUSH1 0x0 DUP3 DUP3 SLOAD PUSH2 0xCA4 SWAP2 SWAP1 PUSH2 0x2FBA JUMP JUMPDEST SWAP1 SWAP2 SSTORE POP POP POP POP POP JUMP JUMPDEST PUSH1 0xD SLOAD PUSH1 0x1 PUSH1 0x1 PUSH1 0xA0 SHL SUB AND DUP2 JUMP JUMPDEST PUSH1 0x8 SLOAD DUP2 JUMP JUMPDEST PUSH1 0x0 SWAP1 DUP2 MSTORE PUSH1 0x20 DUP2 SWAP1 MSTORE PUSH1 0x40 SWAP1 KECCAK256 PUSH1 0x1 ADD SLOAD SWAP1 JUMP JUMPDEST PUSH2 0xCE0 PUSH2 0x2738 JUMP JUMPDEST PUSH1 0x4 DUP3 DUP2 SLOAD DUP2 LT PUSH2 0xD01 JUMPI PUSH4 0x4E487B71 PUSH1 0xE0 SHL PUSH1 0x0 MSTORE PUSH1 0x32 PUSH1 0x4 MSTORE PUSH1 0x24 PUSH1 0x0 REVERT JUMPDEST PUSH1 0x0 SWAP2 DUP3 MSTORE PUSH1 0x20 SWAP2 DUP3 SWAP1 KECCAK256 PUSH1 0x40 DUP1 MLOAD PUSH1 0xA0 DUP2 ADD DUP3 MSTORE PUSH1 0x5 SWAP1 SWAP4 MUL SWAP1 SWAP2 ADD DUP1 SLOAD PUSH1 0x1 PUSH1 0x1 PUSH1 0xA0 SHL SUB AND DUP4 MSTORE PUSH1 0x1 DUP2 ADD SLOAD SWAP4 DUP4 ADD SWAP4 SWAP1 SWAP4 MSTORE PUSH1 0x2 DUP4 ADD SLOAD SWAP1 DUP3 ADD MSTORE PUSH1 0x3 DUP3 ADD SLOAD PUSH1 0x60 DUP3 ADD MSTORE PUSH1 0x4 SWAP1 SWAP2 ADD SLOAD PUSH1 0x80 DUP3 ADD MSTORE SWAP1 POP SWAP2 SWAP1 POP JUMP JUMPDEST PUSH2 0xD66 DUP3 DUP3 PUSH2 0x2195 JUMP JUMPDEST PUSH1 0x0 DUP3 DUP2 MSTORE PUSH1 0x1 PUSH1 0x20 MSTORE PUSH1 0x40 SWAP1 KECCAK256 PUSH2 0xD7E SWAP1 DUP3 PUSH2 0x2157 JUMP JUMPDEST POP POP POP JUMP JUMPDEST PUSH2 0x258 DUP2 JUMP JUMPDEST PUSH2 0xD93 DUP3 DUP3 PUSH2 0x21B9 JUMP JUMPDEST PUSH1 0x0 DUP3 DUP2 MSTORE PUSH1 0x1 PUSH1 0x20 MSTORE PUSH1 0x40 SWAP1 KECCAK256 PUSH2 0xD7E SWAP1 DUP3 PUSH2 0x21FB JUMP JUMPDEST PUSH4 0x3C26700 DUP2 JUMP JUMPDEST PUSH1 0x0 PUSH1 0x5 PUSH1 0x2 SLOAD PUSH1 0xFF AND PUSH1 0x5 DUP2 GT ISZERO PUSH2 0xDDC JUMPI PUSH4 0x4E487B71 PUSH1 0xE0 SHL PUSH1 0x0 MSTORE PUSH1 0x21 PUSH1 0x4 MSTORE PUSH1 0x24 PUSH1 0x0 REVERT JUMPDEST EQ PUSH2 0xDF9 JUMPI PUSH1 0x40 MLOAD PUSH3 0x461BCD PUSH1 0xE5 SHL DUP2 MSTORE PUSH1 0x4 ADD PUSH2 0x2FB SWAP1 PUSH2 0x2D47 JUMP JUMPDEST PUSH1 0x1 PUSH1 0x1 PUSH1 0xA0 SHL SUB DUP3 AND PUSH1 0x0 SWAP1 DUP2 MSTORE PUSH1 0x3 PUSH1 0x20 MSTORE PUSH1 0x40 SWAP1 KECCAK256 SLOAD PUSH2 0xE2E JUMPI PUSH1 0x40 MLOAD PUSH3 0x461BCD PUSH1 0xE5 SHL DUP2 MSTORE PUSH1 0x4 ADD PUSH2 0x2FB SWAP1 PUSH2 0x2E16 JUMP JUMPDEST PUSH1 0x1 PUSH1 0x1 PUSH1 0xA0 SHL SUB DUP3 AND PUSH1 0x0 SWAP1 DUP2 MSTORE PUSH1 0x3 PUSH1 0x20 MSTORE PUSH1 0x40 DUP2 KECCAK256 SLOAD PUSH1 0x4 SWAP1 PUSH2 0xE56 SWAP1 PUSH1 0x1 SWAP1 PUSH2 0x2FBA JUMP JUMPDEST DUP2 SLOAD DUP2 LT PUSH2 0xE74 JUMPI PUSH4 0x4E487B71 PUSH1 0xE0 SHL PUSH1 0x0 MSTORE PUSH1 0x32 PUSH1 0x4 MSTORE PUSH1 0x24 PUSH1 0x0 REVERT JUMPDEST PUSH1 0x0 SWAP2 DUP3 MSTORE PUSH1 0x20 DUP1 DUP4 KECCAK256 PUSH1 0x40 DUP1 MLOAD PUSH1 0xA0 DUP2 ADD DUP3 MSTORE PUSH1 0x5 SWAP1 SWAP5 MUL SWAP1 SWAP2 ADD DUP1 SLOAD PUSH1 0x1 PUSH1 0x1 PUSH1 0xA0 SHL SUB AND DUP5 MSTORE PUSH1 0x1 DUP2 ADD SLOAD SWAP3 DUP5 ADD SWAP3 SWAP1 SWAP3 MSTORE PUSH1 0x2 DUP3 ADD SLOAD SWAP1 DUP4 ADD MSTORE PUSH1 0x3 DUP2 ADD SLOAD PUSH1 0x60 DUP4 ADD DUP2 SWAP1 MSTORE PUSH1 0x4 SWAP1 SWAP2 ADD SLOAD PUSH1 0x80 DUP4 ADD MSTORE PUSH1 0x11 SLOAD SWAP2 SWAP4 POP PUSH2 0xED8 SWAP2 PUSH2 0x2F63 JUMP JUMPDEST SWAP1 POP DUP1 TIMESTAMP LT ISZERO PUSH2 0xEED JUMPI PUSH1 0x0 SWAP3 POP POP POP PUSH2 0xAFD JUMP JUMPDEST PUSH1 0x0 DUP3 PUSH1 0x80 ADD MLOAD DUP3 PUSH2 0xEFF SWAP2 SWAP1 PUSH2 0x2F63 JUMP JUMPDEST SWAP1 POP PUSH1 0x1 DUP1 TIMESTAMP DUP4 GT ISZERO PUSH2 0xF20 JUMPI PUSH2 0xF16 DUP5 TIMESTAMP PUSH2 0x2FBA JUMP JUMPDEST SWAP2 POP DUP5 PUSH1 0x80 ADD MLOAD SWAP1 POP JUMPDEST PUSH1 0x0 PUSH1 0x5 SLOAD DUP3 PUSH2 0xF30 SWAP2 SWAP1 PUSH2 0x2F9B JUMP JUMPDEST DUP4 PUSH1 0x13 SLOAD DUP9 PUSH1 0x20 ADD MLOAD PUSH2 0xF43 SWAP2 SWAP1 PUSH2 0x2F9B JUMP JUMPDEST PUSH2 0xF4D SWAP2 SWAP1 PUSH2 0x2F9B JUMP JUMPDEST PUSH2 0xF57 SWAP2 SWAP1 PUSH2 0x2F7B JUMP JUMPDEST SWAP1 POP DUP6 PUSH1 0x40 ADD MLOAD DUP2 GT PUSH2 0xF73 JUMPI PUSH1 0x0 SWAP7 POP POP POP POP POP POP POP PUSH2 0xAFD JUMP JUMPDEST PUSH1 0x40 DUP7 ADD MLOAD PUSH2 0xF82 SWAP1 DUP3 PUSH2 0x2FBA JUMP JUMPDEST SWAP9 SWAP8 POP POP POP POP POP POP POP POP JUMP JUMPDEST PUSH1 0x11 SLOAD DUP2 JUMP JUMPDEST PUSH1 0x6 SLOAD DUP2 JUMP JUMPDEST PUSH13 0x1431E0FAE6D7217CAA0000000 DUP2 JUMP JUMPDEST PUSH1 0xC SLOAD DUP2 JUMP JUMPDEST PUSH1 0x5 SLOAD DUP2 JUMP JUMPDEST PUSH2 0xFC4 PUSH1 0x0 PUSH2 0x655 PUSH2 0x2191 JUMP JUMPDEST PUSH2 0xFE0 JUMPI PUSH1 0x40 MLOAD PUSH3 0x461BCD PUSH1 0xE5 SHL DUP2 MSTORE PUSH1 0x4 ADD PUSH2 0x2FB SWAP1 PUSH2 0x2B76 JUMP JUMPDEST PUSH1 0x7 DUP1 SLOAD PUSH1 0x1 PUSH1 0x1 PUSH1 0xA0 SHL SUB NOT AND PUSH1 0x1 PUSH1 0x1 PUSH1 0xA0 SHL SUB SWAP3 SWAP1 SWAP3 AND SWAP2 SWAP1 SWAP2 OR SWAP1 SSTORE JUMP JUMPDEST CALLER PUSH1 0x0 PUSH2 0x100E DUP3 PUSH2 0xDB3 JUMP JUMPDEST SWAP1 POP PUSH1 0x0 DUP2 GT PUSH2 0x1030 JUMPI PUSH1 0x40 MLOAD PUSH3 0x461BCD PUSH1 0xE5 SHL DUP2 MSTORE PUSH1 0x4 ADD PUSH2 0x2FB SWAP1 PUSH2 0x2BAD JUMP JUMPDEST DUP3 ISZERO DUP1 PUSH2 0x103C JUMPI POP DUP1 DUP4 GT JUMPDEST ISZERO PUSH2 0x1045 JUMPI DUP1 SWAP3 POP JUMPDEST DUP1 DUP4 GT ISZERO PUSH2 0x1065 JUMPI PUSH1 0x40 MLOAD PUSH3 0x461BCD PUSH1 0xE5 SHL DUP2 MSTORE PUSH1 0x4 ADD PUSH2 0x2FB SWAP1 PUSH2 0x2D96 JUMP JUMPDEST PUSH1 0x1 PUSH1 0x1 PUSH1 0xA0 SHL SUB DUP3 AND PUSH1 0x0 SWAP1 DUP2 MSTORE PUSH1 0x3 PUSH1 0x20 MSTORE PUSH1 0x40 SWAP1 KECCAK256 SLOAD PUSH2 0x109A JUMPI PUSH1 0x40 MLOAD PUSH3 0x461BCD PUSH1 0xE5 SHL DUP2 MSTORE PUSH1 0x4 ADD PUSH2 0x2FB SWAP1 PUSH2 0x2BEF JUMP JUMPDEST PUSH1 0x1 PUSH1 0x1 PUSH1 0xA0 SHL SUB DUP3 AND PUSH1 0x0 SWAP1 DUP2 MSTORE PUSH1 0x3 PUSH1 0x20 MSTORE PUSH1 0x40 SWAP1 KECCAK256 SLOAD DUP4 SWAP1 PUSH1 0x4 SWAP1 PUSH2 0x10C4 SWAP1 PUSH1 0x1 SWAP1 PUSH2 0x2FBA JUMP JUMPDEST DUP2 SLOAD DUP2 LT PUSH2 0x10E2 JUMPI PUSH4 0x4E487B71 PUSH1 0xE0 SHL PUSH1 0x0 MSTORE PUSH1 0x32 PUSH1 0x4 MSTORE PUSH1 0x24 PUSH1 0x0 REVERT JUMPDEST SWAP1 PUSH1 0x0 MSTORE PUSH1 0x20 PUSH1 0x0 KECCAK256 SWAP1 PUSH1 0x5 MUL ADD PUSH1 0x2 ADD PUSH1 0x0 DUP3 DUP3 SLOAD PUSH2 0x1102 SWAP2 SWAP1 PUSH2 0x2F63 JUMP JUMPDEST SWAP1 SWAP2 SSTORE POP POP PUSH1 0x7 SLOAD PUSH1 0x40 MLOAD PUSH4 0x232FFAC3 PUSH1 0xE2 SHL DUP2 MSTORE PUSH1 0x1 PUSH1 0x1 PUSH1 0xA0 SHL SUB SWAP1 SWAP2 AND SWAP1 DUP2 SWAP1 PUSH4 0x8CBFEB0C SWAP1 PUSH2 0x113B SWAP1 DUP7 SWAP1 DUP9 SWAP1 PUSH1 0x4 ADD PUSH2 0x29C3 JUMP JUMPDEST PUSH1 0x0 PUSH1 0x40 MLOAD DUP1 DUP4 SUB DUP2 PUSH1 0x0 DUP8 DUP1 EXTCODESIZE ISZERO DUP1 ISZERO PUSH2 0x1155 JUMPI PUSH1 0x0 DUP1 REVERT JUMPDEST POP GAS CALL ISZERO DUP1 ISZERO PUSH2 0x1169 JUMPI RETURNDATASIZE PUSH1 0x0 DUP1 RETURNDATACOPY RETURNDATASIZE PUSH1 0x0 REVERT JUMPDEST POP POP POP POP POP POP POP POP JUMP JUMPDEST PUSH2 0x1180 PUSH1 0x0 PUSH2 0x655 PUSH2 0x2191 JUMP JUMPDEST PUSH2 0x119C JUMPI PUSH1 0x40 MLOAD PUSH3 0x461BCD PUSH1 0xE5 SHL DUP2 MSTORE PUSH1 0x4 ADD PUSH2 0x2FB SWAP1 PUSH2 0x2B76 JUMP JUMPDEST PUSH1 0x1 PUSH1 0x2 SLOAD PUSH1 0xFF AND PUSH1 0x5 DUP2 GT ISZERO PUSH2 0x11C3 JUMPI PUSH4 0x4E487B71 PUSH1 0xE0 SHL PUSH1 0x0 MSTORE PUSH1 0x21 PUSH1 0x4 MSTORE PUSH1 0x24 PUSH1 0x0 REVERT JUMPDEST EQ PUSH2 0x11E0 JUMPI PUSH1 0x40 MLOAD PUSH3 0x461BCD PUSH1 0xE5 SHL DUP2 MSTORE PUSH1 0x4 ADD PUSH2 0x2FB SWAP1 PUSH2 0x2E4D JUMP JUMPDEST PUSH1 0x0 SELFBALANCE GT PUSH2 0x1200 JUMPI PUSH1 0x40 MLOAD PUSH3 0x461BCD PUSH1 0xE5 SHL DUP2 MSTORE PUSH1 0x4 ADD PUSH2 0x2FB SWAP1 PUSH2 0x2CEA JUMP JUMPDEST PUSH1 0xA SLOAD PUSH1 0x40 DUP1 MLOAD PUSH4 0xD0E30DB PUSH1 0xE4 SHL DUP2 MSTORE SWAP1 MLOAD PUSH1 0x1 PUSH1 0x1 PUSH1 0xA0 SHL SUB SWAP1 SWAP3 AND SWAP2 DUP3 SWAP2 PUSH4 0xD0E30DB0 SWAP2 SELFBALANCE SWAP2 PUSH1 0x4 DUP1 DUP3 ADD SWAP3 PUSH1 0x0 SWAP3 SWAP1 SWAP2 SWAP1 DUP3 SWAP1 SUB ADD DUP2 DUP6 DUP9 DUP1 EXTCODESIZE ISZERO DUP1 ISZERO PUSH2 0x124A JUMPI PUSH1 0x0 DUP1 REVERT JUMPDEST POP GAS CALL ISZERO DUP1 ISZERO PUSH2 0x125E JUMPI RETURNDATASIZE PUSH1 0x0 DUP1 RETURNDATACOPY RETURNDATASIZE PUSH1 0x0 REVERT JUMPDEST POP POP PUSH1 0x2 DUP1 SLOAD PUSH1 0xFF NOT AND DUP2 OR SWAP1 SSTORE POP POP POP POP JUMP JUMPDEST PUSH2 0x127A PUSH2 0x2738 JUMP JUMPDEST PUSH1 0x1 PUSH1 0x1 PUSH1 0xA0 SHL SUB DUP3 AND PUSH1 0x0 SWAP1 DUP2 MSTORE PUSH1 0x3 PUSH1 0x20 MSTORE PUSH1 0x40 SWAP1 KECCAK256 SLOAD PUSH1 0x4 SWAP1 PUSH2 0x12A2 SWAP1 PUSH1 0x1 SWAP1 PUSH2 0x2FBA JUMP JUMPDEST DUP2 SLOAD DUP2 LT PUSH2 0xD01 JUMPI PUSH4 0x4E487B71 PUSH1 0xE0 SHL PUSH1 0x0 MSTORE PUSH1 0x32 PUSH1 0x4 MSTORE PUSH1 0x24 PUSH1 0x0 REVERT JUMPDEST PUSH2 0x12CD PUSH1 0x0 PUSH2 0x655 PUSH2 0x2191 JUMP JUMPDEST PUSH2 0x12E9 JUMPI PUSH1 0x40 MLOAD PUSH3 0x461BCD PUSH1 0xE5 SHL DUP2 MSTORE PUSH1 0x4 ADD PUSH2 0x2FB SWAP1 PUSH2 0x2B76 JUMP JUMPDEST PUSH1 0x7 SLOAD PUSH1 0x40 MLOAD PUSH4 0x6FB1A07 PUSH1 0xE0 SHL DUP2 MSTORE PUSH1 0x0 SWAP2 PUSH1 0x1 PUSH1 0x1 PUSH1 0xA0 SHL SUB AND SWAP1 PUSH4 0x6FB1A07 SWAP1 PUSH2 0x131A SWAP1 DUP5 SWAP1 PUSH1 0x4 ADD PUSH2 0x2A35 JUMP JUMPDEST PUSH1 0x20 PUSH1 0x40 MLOAD DUP1 DUP4 SUB DUP2 DUP7 DUP1 EXTCODESIZE ISZERO DUP1 ISZERO PUSH2 0x1332 JUMPI PUSH1 0x0 DUP1 REVERT JUMPDEST POP GAS STATICCALL ISZERO DUP1 ISZERO PUSH2 0x1346 JUMPI RETURNDATASIZE PUSH1 0x0 DUP1 RETURNDATACOPY RETURNDATASIZE PUSH1 0x0 REVERT JUMPDEST POP POP POP POP PUSH1 0x40 MLOAD RETURNDATASIZE PUSH1 0x1F NOT PUSH1 0x1F DUP3 ADD AND DUP3 ADD DUP1 PUSH1 0x40 MSTORE POP DUP2 ADD SWAP1 PUSH2 0x136A SWAP2 SWAP1 PUSH2 0x278C JUMP JUMPDEST PUSH1 0x13 SLOAD PUSH1 0x40 MLOAD PUSH4 0x6C130EB PUSH1 0xE3 SHL DUP2 MSTORE SWAP2 SWAP3 POP PUSH1 0x1 PUSH1 0x1 PUSH1 0xA0 SHL SUB DUP4 AND SWAP2 PUSH4 0x36098758 SWAP2 PUSH2 0x139D SWAP2 DUP7 SWAP2 SWAP1 PUSH1 0x4 ADD PUSH2 0x2F55 JUMP JUMPDEST PUSH1 0x20 PUSH1 0x40 MLOAD DUP1 DUP4 SUB DUP2 PUSH1 0x0 DUP8 DUP1 EXTCODESIZE ISZERO DUP1 ISZERO PUSH2 0x13B7 JUMPI PUSH1 0x0 DUP1 REVERT JUMPDEST POP GAS CALL ISZERO DUP1 ISZERO PUSH2 0x13CB JUMPI RETURNDATASIZE PUSH1 0x0 DUP1 RETURNDATACOPY RETURNDATASIZE PUSH1 0x0 REVERT JUMPDEST POP POP POP POP PUSH1 0x40 MLOAD RETURNDATASIZE PUSH1 0x1F NOT PUSH1 0x1F DUP3 ADD AND DUP3 ADD DUP1 PUSH1 0x40 MSTORE POP DUP2 ADD SWAP1 PUSH2 0x13EF SWAP2 SWAP1 PUSH2 0x28D2 JUMP JUMPDEST PUSH1 0x13 SSTORE POP POP JUMP JUMPDEST PUSH1 0xE SLOAD DUP2 JUMP JUMPDEST PUSH1 0x0 DUP2 JUMP JUMPDEST PUSH1 0x60 DUP3 PUSH1 0x0 PUSH2 0x1410 DUP5 DUP4 PUSH2 0x2F63 JUMP JUMPDEST PUSH1 0x4 SLOAD SWAP1 SWAP2 POP DUP2 GT PUSH2 0x1422 JUMPI DUP1 PUSH2 0x1426 JUMP JUMPDEST PUSH1 0x4 SLOAD JUMPDEST SWAP1 POP PUSH1 0x0 DUP3 DUP3 GT PUSH2 0x1438 JUMPI PUSH1 0x0 PUSH2 0x1442 JUMP JUMPDEST PUSH2 0x1442 DUP4 DUP4 PUSH2 0x2FBA JUMP JUMPDEST SWAP1 POP PUSH1 0x0 DUP2 PUSH8 0xFFFFFFFFFFFFFFFF DUP2 GT ISZERO PUSH2 0x146D JUMPI PUSH4 0x4E487B71 PUSH1 0xE0 SHL PUSH1 0x0 MSTORE PUSH1 0x41 PUSH1 0x4 MSTORE PUSH1 0x24 PUSH1 0x0 REVERT JUMPDEST PUSH1 0x40 MLOAD SWAP1 DUP1 DUP3 MSTORE DUP1 PUSH1 0x20 MUL PUSH1 0x20 ADD DUP3 ADD PUSH1 0x40 MSTORE DUP1 ISZERO PUSH2 0x14A6 JUMPI DUP2 PUSH1 0x20 ADD JUMPDEST PUSH2 0x1493 PUSH2 0x2738 JUMP JUMPDEST DUP2 MSTORE PUSH1 0x20 ADD SWAP1 PUSH1 0x1 SWAP1 SUB SWAP1 DUP2 PUSH2 0x148B JUMPI SWAP1 POP JUMPDEST POP SWAP1 POP DUP4 JUMPDEST DUP4 DUP2 LT ISZERO PUSH2 0x156F JUMPI PUSH1 0x4 DUP2 DUP2 SLOAD DUP2 LT PUSH2 0x14D4 JUMPI PUSH4 0x4E487B71 PUSH1 0xE0 SHL PUSH1 0x0 MSTORE PUSH1 0x32 PUSH1 0x4 MSTORE PUSH1 0x24 PUSH1 0x0 REVERT JUMPDEST PUSH1 0x0 SWAP2 DUP3 MSTORE PUSH1 0x20 SWAP2 DUP3 SWAP1 KECCAK256 PUSH1 0x40 DUP1 MLOAD PUSH1 0xA0 DUP2 ADD DUP3 MSTORE PUSH1 0x5 SWAP1 SWAP4 MUL SWAP1 SWAP2 ADD DUP1 SLOAD PUSH1 0x1 PUSH1 0x1 PUSH1 0xA0 SHL SUB AND DUP4 MSTORE PUSH1 0x1 DUP2 ADD SLOAD SWAP4 DUP4 ADD SWAP4 SWAP1 SWAP4 MSTORE PUSH1 0x2 DUP4 ADD SLOAD SWAP1 DUP3 ADD MSTORE PUSH1 0x3 DUP3 ADD SLOAD PUSH1 0x60 DUP3 ADD MSTORE PUSH1 0x4 SWAP1 SWAP2 ADD SLOAD PUSH1 0x80 DUP3 ADD MSTORE DUP3 PUSH2 0x1533 DUP8 DUP5 PUSH2 0x2FBA JUMP JUMPDEST DUP2 MLOAD DUP2 LT PUSH2 0x1551 JUMPI PUSH4 0x4E487B71 PUSH1 0xE0 SHL PUSH1 0x0 MSTORE PUSH1 0x32 PUSH1 0x4 MSTORE PUSH1 0x24 PUSH1 0x0 REVERT JUMPDEST PUSH1 0x20 MUL PUSH1 0x20 ADD ADD DUP2 SWAP1 MSTORE POP DUP1 DUP1 PUSH2 0x1567 SWAP1 PUSH2 0x3018 JUMP JUMPDEST SWAP2 POP POP PUSH2 0x14AB JUMP JUMPDEST POP SWAP4 POP POP POP POP JUMPDEST SWAP3 SWAP2 POP POP JUMP JUMPDEST PUSH32 0x97D7F26718C89602134128FE22716D3E0DDCF73B3764FDEDB849A791EB71B516 DUP2 JUMP JUMPDEST PUSH1 0x7 SLOAD PUSH1 0x1 PUSH1 0x1 PUSH1 0xA0 SHL SUB AND DUP2 JUMP JUMPDEST PUSH1 0x9 SLOAD DUP2 JUMP JUMPDEST PUSH1 0x0 DUP3 DUP2 MSTORE PUSH1 0x1 PUSH1 0x20 MSTORE PUSH1 0x40 DUP2 KECCAK256 PUSH2 0x15CD SWAP1 DUP4 PUSH2 0x2210 JUMP JUMPDEST SWAP4 SWAP3 POP POP POP JUMP JUMPDEST PUSH1 0x0 SWAP2 DUP3 MSTORE PUSH1 0x20 DUP3 DUP2 MSTORE PUSH1 0x40 DUP1 DUP5 KECCAK256 PUSH1 0x1 PUSH1 0x1 PUSH1 0xA0 SHL SUB SWAP4 SWAP1 SWAP4 AND DUP5 MSTORE SWAP2 SWAP1 MSTORE SWAP1 KECCAK256 SLOAD PUSH1 0xFF AND SWAP1 JUMP JUMPDEST PUSH2 0x160A PUSH1 0x0 PUSH2 0x655 PUSH2 0x2191 JUMP JUMPDEST PUSH2 0x1626 JUMPI PUSH1 0x40 MLOAD PUSH3 0x461BCD PUSH1 0xE5 SHL DUP2 MSTORE PUSH1 0x4 ADD PUSH2 0x2FB SWAP1 PUSH2 0x2B76 JUMP JUMPDEST PUSH1 0x4 PUSH1 0x2 SLOAD PUSH1 0xFF AND PUSH1 0x5 DUP2 GT ISZERO PUSH2 0x164D JUMPI PUSH4 0x4E487B71 PUSH1 0xE0 SHL PUSH1 0x0 MSTORE PUSH1 0x21 PUSH1 0x4 MSTORE PUSH1 0x24 PUSH1 0x0 REVERT JUMPDEST EQ PUSH2 0x166A JUMPI PUSH1 0x40 MLOAD PUSH3 0x461BCD PUSH1 0xE5 SHL DUP2 MSTORE PUSH1 0x4 ADD PUSH2 0x2FB SWAP1 PUSH2 0x2C94 JUMP JUMPDEST PUSH1 0x7 SLOAD PUSH1 0x40 MLOAD PUSH4 0x6FB1A07 PUSH1 0xE0 SHL DUP2 MSTORE PUSH1 0x0 SWAP2 PUSH1 0x1 PUSH1 0x1 PUSH1 0xA0 SHL SUB AND SWAP1 PUSH4 0x6FB1A07 SWAP1 PUSH2 0x169B SWAP1 DUP5 SWAP1 PUSH1 0x4 ADD PUSH2 0x2A35 JUMP JUMPDEST PUSH1 0x20 PUSH1 0x40 MLOAD DUP1 DUP4 SUB DUP2 DUP7 DUP1 EXTCODESIZE ISZERO DUP1 ISZERO PUSH2 0x16B3 JUMPI PUSH1 0x0 DUP1 REVERT JUMPDEST POP GAS STATICCALL ISZERO DUP1 ISZERO PUSH2 0x16C7 JUMPI RETURNDATASIZE PUSH1 0x0 DUP1 RETURNDATACOPY RETURNDATASIZE PUSH1 0x0 REVERT JUMPDEST POP POP POP POP PUSH1 0x40 MLOAD RETURNDATASIZE PUSH1 0x1F NOT PUSH1 0x1F DUP3 ADD AND DUP3 ADD DUP1 PUSH1 0x40 MSTORE POP DUP2 ADD SWAP1 PUSH2 0x16EB SWAP2 SWAP1 PUSH2 0x278C JUMP JUMPDEST PUSH1 0x40 MLOAD PUSH4 0x2F2FF15D PUSH1 0xE0 SHL DUP2 MSTORE SWAP1 SWAP2 POP PUSH1 0x1 PUSH1 0x1 PUSH1 0xA0 SHL SUB DUP3 AND SWAP1 PUSH4 0x2F2FF15D SWAP1 PUSH2 0x173C SWAP1 PUSH32 0xD27488087FCA693ADCF8B477EC0CA6CF5134D7F124FDC511EB258522C40FD72B SWAP1 ADDRESS SWAP1 PUSH1 0x4 ADD PUSH2 0x2A3E JUMP JUMPDEST PUSH1 0x0 PUSH1 0x40 MLOAD DUP1 DUP4 SUB DUP2 PUSH1 0x0 DUP8 DUP1 EXTCODESIZE ISZERO DUP1 ISZERO PUSH2 0x1756 JUMPI PUSH1 0x0 DUP1 REVERT JUMPDEST POP GAS CALL ISZERO DUP1 ISZERO PUSH2 0x176A JUMPI RETURNDATASIZE PUSH1 0x0 DUP1 RETURNDATACOPY RETURNDATASIZE PUSH1 0x0 REVERT JUMPDEST POP POP PUSH1 0x40 MLOAD PUSH4 0x2F2FF15D PUSH1 0xE0 SHL DUP2 MSTORE PUSH1 0x1 PUSH1 0x1 PUSH1 0xA0 SHL SUB DUP5 AND SWAP3 POP PUSH4 0x2F2FF15D SWAP2 POP PUSH2 0x17BC SWAP1 PUSH32 0x97D7F26718C89602134128FE22716D3E0DDCF73B3764FDEDB849A791EB71B516 SWAP1 ADDRESS SWAP1 PUSH1 0x4 ADD PUSH2 0x2A3E JUMP JUMPDEST PUSH1 0x0 PUSH1 0x40 MLOAD DUP1 DUP4 SUB DUP2 PUSH1 0x0 DUP8 DUP1 EXTCODESIZE ISZERO DUP1 ISZERO PUSH2 0x17D6 JUMPI PUSH1 0x0 DUP1 REVERT JUMPDEST POP GAS CALL ISZERO DUP1 ISZERO PUSH2 0x17EA JUMPI RETURNDATASIZE PUSH1 0x0 DUP1 RETURNDATACOPY RETURNDATASIZE PUSH1 0x0 REVERT JUMPDEST POP POP POP POP PUSH1 0x64 PUSH1 0x8 SLOAD PUSH13 0x1431E0FAE6D7217CAA0000000 PUSH2 0x180B SWAP2 SWAP1 PUSH2 0x2F9B JUMP JUMPDEST PUSH2 0x1815 SWAP2 SWAP1 PUSH2 0x2F7B JUMP JUMPDEST PUSH1 0x13 DUP2 SWAP1 SSTORE PUSH1 0x7 SLOAD PUSH1 0x40 MLOAD PUSH4 0xBB9FF5D PUSH1 0xE0 SHL DUP2 MSTORE PUSH1 0x1 PUSH1 0x1 PUSH1 0xA0 SHL SUB SWAP1 SWAP2 AND SWAP2 DUP3 SWAP2 PUSH4 0xBB9FF5D SWAP2 PUSH2 0x184D SWAP2 ADDRESS SWAP2 SWAP1 PUSH1 0x4 ADD PUSH2 0x29C3 JUMP JUMPDEST PUSH1 0x0 PUSH1 0x40 MLOAD DUP1 DUP4 SUB DUP2 PUSH1 0x0 DUP8 DUP1 EXTCODESIZE ISZERO DUP1 ISZERO PUSH2 0x1867 JUMPI PUSH1 0x0 DUP1 REVERT JUMPDEST POP GAS CALL ISZERO DUP1 ISZERO PUSH2 0x187B JUMPI RETURNDATASIZE PUSH1 0x0 DUP1 RETURNDATACOPY RETURNDATASIZE PUSH1 0x0 REVERT JUMPDEST POP POP TIMESTAMP PUSH1 0x11 SSTORE POP POP PUSH1 0x2 DUP1 SLOAD PUSH1 0x5 SWAP2 SWAP1 PUSH1 0xFF NOT AND PUSH1 0x1 DUP4 JUMPDEST MUL OR SWAP1 SSTORE POP POP POP JUMP JUMPDEST PUSH1 0x12 SLOAD PUSH1 0x1 PUSH1 0x1 PUSH1 0xA0 SHL SUB AND DUP2 JUMP JUMPDEST PUSH32 0xD27488087FCA693ADCF8B477EC0CA6CF5134D7F124FDC511EB258522C40FD72B DUP2 JUMP JUMPDEST PUSH2 0x18DC PUSH1 0x0 PUSH2 0x655 PUSH2 0x2191 JUMP JUMPDEST PUSH2 0x18F8 JUMPI PUSH1 0x40 MLOAD PUSH3 0x461BCD PUSH1 0xE5 SHL DUP2 MSTORE PUSH1 0x4 ADD PUSH2 0x2FB SWAP1 PUSH2 0x2B76 JUMP JUMPDEST PUSH1 0x2 DUP1 SLOAD PUSH1 0xFF AND PUSH1 0x5 DUP2 GT ISZERO PUSH2 0x191E JUMPI PUSH4 0x4E487B71 PUSH1 0xE0 SHL PUSH1 0x0 MSTORE PUSH1 0x21 PUSH1 0x4 MSTORE PUSH1 0x24 PUSH1 0x0 REVERT JUMPDEST EQ PUSH2 0x193B JUMPI PUSH1 0x40 MLOAD PUSH3 0x461BCD PUSH1 0xE5 SHL DUP2 MSTORE PUSH1 0x4 ADD PUSH2 0x2FB SWAP1 PUSH2 0x2DCD JUMP JUMPDEST PUSH1 0x7 SLOAD PUSH1 0x40 MLOAD PUSH4 0x6FB1A07 PUSH1 0xE0 SHL DUP2 MSTORE PUSH1 0x0 SWAP2 PUSH1 0x1 PUSH1 0x1 PUSH1 0xA0 SHL SUB AND SWAP1 PUSH4 0x6FB1A07 SWAP1 PUSH2 0x196D SWAP1 PUSH1 0x2 SWAP1 PUSH1 0x4 ADD PUSH2 0x2A35 JUMP JUMPDEST PUSH1 0x20 PUSH1 0x40 MLOAD DUP1 DUP4 SUB DUP2 DUP7 DUP1 EXTCODESIZE ISZERO DUP1 ISZERO PUSH2 0x1985 JUMPI PUSH1 0x0 DUP1 REVERT JUMPDEST POP GAS STATICCALL ISZERO DUP1 ISZERO PUSH2 0x1999 JUMPI RETURNDATASIZE PUSH1 0x0 DUP1 RETURNDATACOPY RETURNDATASIZE PUSH1 0x0 REVERT JUMPDEST POP POP POP POP PUSH1 0x40 MLOAD RETURNDATASIZE PUSH1 0x1F NOT PUSH1 0x1F DUP3 ADD AND DUP3 ADD DUP1 PUSH1 0x40 MSTORE POP DUP2 ADD SWAP1 PUSH2 0x19BD SWAP2 SWAP1 PUSH2 0x278C JUMP JUMPDEST PUSH1 0x7 SLOAD PUSH1 0xA SLOAD PUSH1 0x40 MLOAD PUSH4 0xE6A43905 PUSH1 0xE0 SHL DUP2 MSTORE SWAP3 SWAP4 POP PUSH1 0x1 PUSH1 0x1 PUSH1 0xA0 SHL SUB DUP1 DUP6 AND SWAP4 PUSH4 0xE6A43905 SWAP4 PUSH2 0x19F7 SWAP4 SWAP1 DUP4 AND SWAP3 AND SWAP1 PUSH1 0x4 ADD PUSH2 0x29A9 JUMP JUMPDEST PUSH1 0x20 PUSH1 0x40 MLOAD DUP1 DUP4 SUB DUP2 DUP7 DUP1 EXTCODESIZE ISZERO DUP1 ISZERO PUSH2 0x1A0F JUMPI PUSH1 0x0 DUP1 REVERT JUMPDEST POP GAS STATICCALL ISZERO DUP1 ISZERO PUSH2 0x1A23 JUMPI RETURNDATASIZE PUSH1 0x0 DUP1 RETURNDATACOPY RETURNDATASIZE PUSH1 0x0 REVERT JUMPDEST POP POP POP POP PUSH1 0x40 MLOAD RETURNDATASIZE PUSH1 0x1F NOT PUSH1 0x1F DUP3 ADD AND DUP3 ADD DUP1 PUSH1 0x40 MSTORE POP DUP2 ADD SWAP1 PUSH2 0x1A47 SWAP2 SWAP1 PUSH2 0x278C JUMP JUMPDEST PUSH1 0x12 DUP1 SLOAD PUSH1 0x1 PUSH1 0x1 PUSH1 0xA0 SHL SUB NOT AND PUSH1 0x1 PUSH1 0x1 PUSH1 0xA0 SHL SUB SWAP3 DUP4 AND OR SWAP1 DUP2 SWAP1 SSTORE AND ISZERO PUSH2 0x1A83 JUMPI PUSH1 0x40 MLOAD PUSH3 0x461BCD PUSH1 0xE5 SHL DUP2 MSTORE PUSH1 0x4 ADD PUSH2 0x2FB SWAP1 PUSH2 0x2AE5 JUMP JUMPDEST PUSH1 0x7 SLOAD PUSH1 0xA SLOAD PUSH1 0x40 MLOAD PUSH4 0x64E329CB PUSH1 0xE1 SHL DUP2 MSTORE PUSH1 0x1 PUSH1 0x1 PUSH1 0xA0 SHL SUB DUP1 DUP6 AND SWAP4 PUSH4 0xC9C65396 SWAP4 PUSH2 0x1ABA SWAP4 SWAP2 DUP4 AND SWAP3 AND SWAP1 PUSH1 0x4 ADD PUSH2 0x29A9 JUMP JUMPDEST PUSH1 0x20 PUSH1 0x40 MLOAD DUP1 DUP4 SUB DUP2 PUSH1 0x0 DUP8 DUP1 EXTCODESIZE ISZERO DUP1 ISZERO PUSH2 0x1AD4 JUMPI PUSH1 0x0 DUP1 REVERT JUMPDEST POP GAS CALL ISZERO DUP1 ISZERO PUSH2 0x1AE8 JUMPI RETURNDATASIZE PUSH1 0x0 DUP1 RETURNDATACOPY RETURNDATASIZE PUSH1 0x0 REVERT JUMPDEST POP POP POP POP PUSH1 0x40 MLOAD RETURNDATASIZE PUSH1 0x1F NOT PUSH1 0x1F DUP3 ADD AND DUP3 ADD DUP1 PUSH1 0x40 MSTORE POP DUP2 ADD SWAP1 PUSH2 0x1B0C SWAP2 SWAP1 PUSH2 0x278C JUMP JUMPDEST PUSH1 0x12 DUP1 SLOAD PUSH1 0x1 PUSH1 0x1 PUSH1 0xA0 SHL SUB NOT AND PUSH1 0x1 PUSH1 0x1 PUSH1 0xA0 SHL SUB SWAP3 DUP4 AND OR SWAP1 SSTORE PUSH1 0x7 SLOAD PUSH1 0x40 MLOAD PUSH4 0x6FB1A07 PUSH1 0xE0 SHL DUP2 MSTORE PUSH1 0x0 SWAP3 SWAP2 SWAP1 SWAP2 AND SWAP1 PUSH4 0x6FB1A07 SWAP1 PUSH2 0x1B54 SWAP1 DUP5 SWAP1 PUSH1 0x4 ADD PUSH2 0x2A35 JUMP JUMPDEST PUSH1 0x20 PUSH1 0x40 MLOAD DUP1 DUP4 SUB DUP2 DUP7 DUP1 EXTCODESIZE ISZERO DUP1 ISZERO PUSH2 0x1B6C JUMPI PUSH1 0x0 DUP1 REVERT JUMPDEST POP GAS STATICCALL ISZERO DUP1 ISZERO PUSH2 0x1B80 JUMPI RETURNDATASIZE PUSH1 0x0 DUP1 RETURNDATACOPY RETURNDATASIZE PUSH1 0x0 REVERT JUMPDEST POP POP POP POP PUSH1 0x40 MLOAD RETURNDATASIZE PUSH1 0x1F NOT PUSH1 0x1F DUP3 ADD AND DUP3 ADD DUP1 PUSH1 0x40 MSTORE POP DUP2 ADD SWAP1 PUSH2 0x1BA4 SWAP2 SWAP1 PUSH2 0x278C JUMP JUMPDEST PUSH1 0x12 SLOAD PUSH1 0x40 MLOAD PUSH4 0x2F2FF15D PUSH1 0xE0 SHL DUP2 MSTORE SWAP2 SWAP3 POP PUSH1 0x1 PUSH1 0x1 PUSH1 0xA0 SHL SUB DUP1 DUP5 AND SWAP3 PUSH4 0x2F2FF15D SWAP3 PUSH2 0x1BFA SWAP3 PUSH32 0xD27488087FCA693ADCF8B477EC0CA6CF5134D7F124FDC511EB258522C40FD72B SWAP3 SWAP2 AND SWAP1 PUSH1 0x4 ADD PUSH2 0x2A3E JUMP JUMPDEST PUSH1 0x0 PUSH1 0x40 MLOAD DUP1 DUP4 SUB DUP2 PUSH1 0x0 DUP8 DUP1 EXTCODESIZE ISZERO DUP1 ISZERO PUSH2 0x1C14 JUMPI PUSH1 0x0 DUP1 REVERT JUMPDEST POP GAS CALL ISZERO DUP1 ISZERO PUSH2 0x1C28 JUMPI RETURNDATASIZE PUSH1 0x0 DUP1 RETURNDATACOPY RETURNDATASIZE PUSH1 0x0 REVERT JUMPDEST POP POP PUSH1 0x2 DUP1 SLOAD PUSH1 0x3 SWAP4 POP SWAP1 SWAP2 POP PUSH1 0xFF NOT AND PUSH1 0x1 DUP4 PUSH2 0x1893 JUMP JUMPDEST PUSH1 0xF SLOAD PUSH1 0x1 PUSH1 0x1 PUSH1 0xA0 SHL SUB AND DUP2 JUMP JUMPDEST PUSH1 0x0 PUSH1 0x5 PUSH1 0x2 SLOAD PUSH1 0xFF AND PUSH1 0x5 DUP2 GT ISZERO PUSH2 0x1C79 JUMPI PUSH4 0x4E487B71 PUSH1 0xE0 SHL PUSH1 0x0 MSTORE PUSH1 0x21 PUSH1 0x4 MSTORE PUSH1 0x24 PUSH1 0x0 REVERT JUMPDEST EQ PUSH2 0x1C96 JUMPI PUSH1 0x40 MLOAD PUSH3 0x461BCD PUSH1 0xE5 SHL DUP2 MSTORE PUSH1 0x4 ADD PUSH2 0x2FB SWAP1 PUSH2 0x2D47 JUMP JUMPDEST PUSH1 0x1 PUSH1 0x1 PUSH1 0xA0 SHL SUB DUP3 AND PUSH2 0x1CA8 JUMPI CALLER SWAP2 POP JUMPDEST CALLER PUSH1 0x0 SWAP1 DUP2 MSTORE PUSH1 0x3 PUSH1 0x20 MSTORE PUSH1 0x40 DUP2 KECCAK256 SLOAD PUSH1 0x4 SWAP1 PUSH2 0x1CC7 SWAP1 PUSH1 0x1 SWAP1 PUSH2 0x2FBA JUMP JUMPDEST DUP2 SLOAD DUP2 LT PUSH2 0x1CE5 JUMPI PUSH4 0x4E487B71 PUSH1 0xE0 SHL PUSH1 0x0 MSTORE PUSH1 0x32 PUSH1 0x4 MSTORE PUSH1 0x24 PUSH1 0x0 REVERT JUMPDEST PUSH1 0x0 SWAP2 DUP3 MSTORE PUSH1 0x20 DUP1 DUP4 KECCAK256 PUSH1 0x40 DUP1 MLOAD PUSH1 0xA0 DUP2 ADD DUP3 MSTORE PUSH1 0x5 SWAP5 DUP6 MUL SWAP1 SWAP3 ADD DUP1 SLOAD PUSH1 0x1 PUSH1 0x1 PUSH1 0xA0 SHL SUB AND DUP4 MSTORE PUSH1 0x1 DUP2 ADD SLOAD SWAP4 DUP4 ADD DUP5 SWAP1 MSTORE PUSH1 0x2 DUP2 ADD SLOAD SWAP2 DUP4 ADD SWAP2 SWAP1 SWAP2 MSTORE PUSH1 0x3 DUP2 ADD SLOAD PUSH1 0x60 DUP4 ADD MSTORE PUSH1 0x4 ADD SLOAD PUSH1 0x80 DUP3 ADD MSTORE SWAP2 SLOAD PUSH1 0x13 SLOAD SWAP3 SWAP5 POP SWAP2 PUSH2 0x1D4A SWAP2 PUSH2 0x2F9B JUMP JUMPDEST PUSH2 0x1D54 SWAP2 SWAP1 PUSH2 0x2F7B JUMP JUMPDEST SWAP1 POP DUP2 PUSH1 0x40 ADD MLOAD DUP2 GT PUSH2 0x1D6C JUMPI PUSH1 0x0 SWAP3 POP POP POP PUSH2 0xAFD JUMP JUMPDEST PUSH1 0x40 DUP3 ADD MLOAD PUSH2 0x1D7B SWAP1 DUP3 PUSH2 0x2FBA JUMP JUMPDEST SWAP5 SWAP4 POP POP POP POP JUMP JUMPDEST PUSH2 0x1D90 PUSH1 0x0 PUSH2 0x655 PUSH2 0x2191 JUMP JUMPDEST PUSH2 0x1DAC JUMPI PUSH1 0x40 MLOAD PUSH3 0x461BCD PUSH1 0xE5 SHL DUP2 MSTORE PUSH1 0x4 ADD PUSH2 0x2FB SWAP1 PUSH2 0x2B76 JUMP JUMPDEST PUSH1 0x2 DUP1 SLOAD PUSH1 0xFF NOT AND PUSH1 0x1 OR SWAP1 SSTORE JUMP JUMPDEST PUSH1 0x2 SLOAD PUSH1 0xFF AND DUP2 JUMP JUMPDEST PUSH2 0x1DD1 PUSH1 0x0 PUSH2 0x655 PUSH2 0x2191 JUMP JUMPDEST PUSH2 0x1DED JUMPI PUSH1 0x40 MLOAD PUSH3 0x461BCD PUSH1 0xE5 SHL DUP2 MSTORE PUSH1 0x4 ADD PUSH2 0x2FB SWAP1 PUSH2 0x2B76 JUMP JUMPDEST PUSH1 0xA DUP1 SLOAD PUSH1 0x1 PUSH1 0x1 PUSH1 0xA0 SHL SUB NOT SWAP1 DUP2 AND PUSH1 0x1 PUSH1 0x1 PUSH1 0xA0 SHL SUB SWAP10 DUP11 AND OR SWAP1 SWAP2 SSTORE PUSH1 0xB DUP1 SLOAD DUP3 AND SWAP8 DUP10 AND SWAP8 SWAP1 SWAP8 OR SWAP1 SWAP7 SSTORE PUSH1 0xC SWAP5 SWAP1 SWAP5 SSTORE PUSH1 0xD DUP1 SLOAD DUP7 AND SWAP4 DUP8 AND SWAP4 SWAP1 SWAP4 OR SWAP1 SWAP3 SSTORE PUSH1 0xE SSTORE PUSH1 0xF DUP1 SLOAD SWAP1 SWAP4 AND SWAP4 AND SWAP3 SWAP1 SWAP3 OR SWAP1 SSTORE PUSH1 0x10 SSTORE JUMP JUMPDEST PUSH1 0x0 DUP2 DUP2 MSTORE PUSH1 0x1 PUSH1 0x20 MSTORE PUSH1 0x40 DUP2 KECCAK256 PUSH2 0xAFA SWAP1 PUSH2 0x221C JUMP JUMPDEST PUSH1 0xB SLOAD PUSH1 0x1 PUSH1 0x1 PUSH1 0xA0 SHL SUB AND DUP2 JUMP JUMPDEST PUSH2 0xD93 DUP3 DUP3 PUSH2 0x2227 JUMP JUMPDEST PUSH1 0xA SLOAD PUSH1 0x1 PUSH1 0x1 PUSH1 0xA0 SHL SUB AND DUP2 JUMP JUMPDEST PUSH2 0x16D DUP2 JUMP JUMPDEST PUSH1 0x10 SLOAD DUP2 JUMP JUMPDEST PUSH2 0x1EA1 PUSH1 0x0 PUSH2 0x655 PUSH2 0x2191 JUMP JUMPDEST PUSH2 0x1EBD JUMPI PUSH1 0x40 MLOAD PUSH3 0x461BCD PUSH1 0xE5 SHL DUP2 MSTORE PUSH1 0x4 ADD PUSH2 0x2FB SWAP1 PUSH2 0x2B76 JUMP JUMPDEST PUSH1 0x3 PUSH1 0x2 SLOAD PUSH1 0xFF AND PUSH1 0x5 DUP2 GT ISZERO PUSH2 0x1EE4 JUMPI PUSH4 0x4E487B71 PUSH1 0xE0 SHL PUSH1 0x0 MSTORE PUSH1 0x21 PUSH1 0x4 MSTORE PUSH1 0x24 PUSH1 0x0 REVERT JUMPDEST EQ PUSH2 0x1F01 JUMPI PUSH1 0x40 MLOAD PUSH3 0x461BCD PUSH1 0xE5 SHL DUP2 MSTORE PUSH1 0x4 ADD PUSH2 0x2FB SWAP1 PUSH2 0x2B2A JUMP JUMPDEST PUSH1 0xA SLOAD PUSH1 0x40 MLOAD PUSH4 0x70A08231 PUSH1 0xE0 SHL DUP2 MSTORE PUSH1 0x1 PUSH1 0x1 PUSH1 0xA0 SHL SUB SWAP1 SWAP2 AND SWAP1 PUSH1 0x0 SWAP1 DUP3 SWAP1 PUSH4 0x70A08231 SWAP1 PUSH2 0x1F36 SWAP1 ADDRESS SWAP1 PUSH1 0x4 ADD PUSH2 0x2995 JUMP JUMPDEST PUSH1 0x20 PUSH1 0x40 MLOAD DUP1 DUP4 SUB DUP2 DUP7 DUP1 EXTCODESIZE ISZERO DUP1 ISZERO PUSH2 0x1F4E JUMPI PUSH1 0x0 DUP1 REVERT JUMPDEST POP GAS STATICCALL ISZERO DUP1 ISZERO PUSH2 0x1F62 JUMPI RETURNDATASIZE PUSH1 0x0 DUP1 RETURNDATACOPY RETURNDATASIZE PUSH1 0x0 REVERT JUMPDEST POP POP POP POP PUSH1 0x40 MLOAD RETURNDATASIZE PUSH1 0x1F NOT PUSH1 0x1F DUP3 ADD AND DUP3 ADD DUP1 PUSH1 0x40 MSTORE POP DUP2 ADD SWAP1 PUSH2 0x1F86 SWAP2 SWAP1 PUSH2 0x28D2 JUMP JUMPDEST PUSH1 0x12 SLOAD PUSH1 0x40 MLOAD PUSH4 0xA9059CBB PUSH1 0xE0 SHL DUP2 MSTORE SWAP2 SWAP3 POP PUSH1 0x1 PUSH1 0x1 PUSH1 0xA0 SHL SUB DUP1 DUP6 AND SWAP3 PUSH4 0xA9059CBB SWAP3 PUSH2 0x1FBB SWAP3 AND SWAP1 DUP6 SWAP1 PUSH1 0x4 ADD PUSH2 0x29C3 JUMP JUMPDEST PUSH1 0x20 PUSH1 0x40 MLOAD DUP1 DUP4 SUB DUP2 PUSH1 0x0 DUP8 DUP1 EXTCODESIZE ISZERO DUP1 ISZERO PUSH2 0x1FD5 JUMPI PUSH1 0x0 DUP1 REVERT JUMPDEST POP GAS CALL ISZERO DUP1 ISZERO PUSH2 0x1FE9 JUMPI RETURNDATASIZE PUSH1 0x0 DUP1 RETURNDATACOPY RETURNDATASIZE PUSH1 0x0 REVERT JUMPDEST POP POP POP POP PUSH1 0x40 MLOAD RETURNDATASIZE PUSH1 0x1F NOT PUSH1 0x1F DUP3 ADD AND DUP3 ADD DUP1 PUSH1 0x40 MSTORE POP DUP2 ADD SWAP1 PUSH2 0x200D SWAP2 SWAP1 PUSH2 0x2822 JUMP JUMPDEST POP PUSH1 0x0 PUSH1 0x64 PUSH1 0x9 SLOAD PUSH13 0x1431E0FAE6D7217CAA0000000 PUSH2 0x202D SWAP2 SWAP1 PUSH2 0x2F9B JUMP JUMPDEST PUSH2 0x2037 SWAP2 SWAP1 PUSH2 0x2F7B JUMP JUMPDEST PUSH1 0x7 SLOAD PUSH1 0x12 SLOAD PUSH1 0x40 MLOAD PUSH4 0xBB9FF5D PUSH1 0xE0 SHL DUP2 MSTORE SWAP3 SWAP4 POP PUSH1 0x1 PUSH1 0x1 PUSH1 0xA0 SHL SUB SWAP2 DUP3 AND SWAP3 DUP4 SWAP3 PUSH4 0xBB9FF5D SWAP3 PUSH2 0x2072 SWAP3 SWAP2 AND SWAP1 DUP7 SWAP1 PUSH1 0x4 ADD PUSH2 0x29C3 JUMP JUMPDEST PUSH1 0x0 PUSH1 0x40 MLOAD DUP1 DUP4 SUB DUP2 PUSH1 0x0 DUP8 DUP1 EXTCODESIZE ISZERO DUP1 ISZERO PUSH2 0x208C JUMPI PUSH1 0x0 DUP1 REVERT JUMPDEST POP GAS CALL ISZERO DUP1 ISZERO PUSH2 0x20A0 JUMPI RETURNDATASIZE PUSH1 0x0 DUP1 RETURNDATACOPY RETURNDATASIZE PUSH1 0x0 REVERT JUMPDEST POP POP PUSH1 0x12 SLOAD PUSH1 0x1 PUSH1 0x1 PUSH1 0xA0 SHL SUB AND SWAP2 POP DUP2 SWAP1 POP PUSH4 0x6A627842 PUSH2 0x20C0 PUSH2 0x2191 JUMP JUMPDEST PUSH1 0x40 MLOAD DUP3 PUSH4 0xFFFFFFFF AND PUSH1 0xE0 SHL DUP2 MSTORE PUSH1 0x4 ADD PUSH2 0x20DC SWAP2 SWAP1 PUSH2 0x2995 JUMP JUMPDEST PUSH1 0x20 PUSH1 0x40 MLOAD DUP1 DUP4 SUB DUP2 PUSH1 0x0 DUP8 DUP1 EXTCODESIZE ISZERO DUP1 ISZERO PUSH2 0x20F6 JUMPI PUSH1 0x0 DUP1 REVERT JUMPDEST POP GAS CALL ISZERO DUP1 ISZERO PUSH2 0x210A JUMPI RETURNDATASIZE PUSH1 0x0 DUP1 RETURNDATACOPY RETURNDATASIZE PUSH1 0x0 REVERT JUMPDEST POP POP POP POP PUSH1 0x40 MLOAD RETURNDATASIZE PUSH1 0x1F NOT PUSH1 0x1F DUP3 ADD AND DUP3 ADD DUP1 PUSH1 0x40 MSTORE POP DUP2 ADD SWAP1 PUSH2 0x212E SWAP2 SWAP1 PUSH2 0x28D2 JUMP JUMPDEST POP POP PUSH1 0x2 DUP1 SLOAD PUSH1 0xFF NOT AND PUSH1 0x4 OR SWAP1 SSTORE POP POP POP POP JUMP JUMPDEST PUSH1 0x4 SLOAD SWAP1 JUMP JUMPDEST PUSH2 0x2153 DUP3 DUP3 PUSH2 0x2246 JUMP JUMPDEST POP POP JUMP JUMPDEST PUSH1 0x0 PUSH2 0x15CD DUP4 PUSH1 0x1 PUSH1 0x1 PUSH1 0xA0 SHL SUB DUP5 AND PUSH2 0x22CB JUMP JUMPDEST PUSH1 0x0 PUSH1 0x1 PUSH1 0x1 PUSH1 0xE0 SHL SUB NOT DUP3 AND PUSH4 0x7965DB0B PUSH1 0xE0 SHL EQ DUP1 PUSH2 0xAFA JUMPI POP PUSH2 0xAFA DUP3 PUSH2 0x2315 JUMP JUMPDEST CALLER SWAP1 JUMP JUMPDEST PUSH2 0x219E DUP3 PUSH2 0xCC3 JUMP JUMPDEST PUSH2 0x21AF DUP2 PUSH2 0x21AA PUSH2 0x2191 JUMP JUMPDEST PUSH2 0x232E JUMP JUMPDEST PUSH2 0xD7E DUP4 DUP4 PUSH2 0x2246 JUMP JUMPDEST PUSH2 0x21C1 PUSH2 0x2191 JUMP JUMPDEST PUSH1 0x1 PUSH1 0x1 PUSH1 0xA0 SHL SUB AND DUP2 PUSH1 0x1 PUSH1 0x1 PUSH1 0xA0 SHL SUB AND EQ PUSH2 0x21F1 JUMPI PUSH1 0x40 MLOAD PUSH3 0x461BCD PUSH1 0xE5 SHL DUP2 MSTORE PUSH1 0x4 ADD PUSH2 0x2FB SWAP1 PUSH2 0x2EF8 JUMP JUMPDEST PUSH2 0x2153 DUP3 DUP3 PUSH2 0x2392 JUMP JUMPDEST PUSH1 0x0 PUSH2 0x15CD DUP4 PUSH1 0x1 PUSH1 0x1 PUSH1 0xA0 SHL SUB DUP5 AND PUSH2 0x2415 JUMP JUMPDEST PUSH1 0x0 PUSH2 0x15CD DUP4 DUP4 PUSH2 0x2532 JUMP JUMPDEST PUSH1 0x0 PUSH2 0xAFA DUP3 PUSH2 0x256A JUMP JUMPDEST PUSH2 0x2230 DUP3 PUSH2 0xCC3 JUMP JUMPDEST PUSH2 0x223C DUP2 PUSH2 0x21AA PUSH2 0x2191 JUMP JUMPDEST PUSH2 0xD7E DUP4 DUP4 PUSH2 0x2392 JUMP JUMPDEST PUSH2 0x2250 DUP3 DUP3 PUSH2 0x15D4 JUMP JUMPDEST PUSH2 0x2153 JUMPI PUSH1 0x0 DUP3 DUP2 MSTORE PUSH1 0x20 DUP2 DUP2 MSTORE PUSH1 0x40 DUP1 DUP4 KECCAK256 PUSH1 0x1 PUSH1 0x1 PUSH1 0xA0 SHL SUB DUP6 AND DUP5 MSTORE SWAP1 SWAP2 MSTORE SWAP1 KECCAK256 DUP1 SLOAD PUSH1 0xFF NOT AND PUSH1 0x1 OR SWAP1 SSTORE PUSH2 0x2287 PUSH2 0x2191 JUMP JUMPDEST PUSH1 0x1 PUSH1 0x1 PUSH1 0xA0 SHL SUB AND DUP2 PUSH1 0x1 PUSH1 0x1 PUSH1 0xA0 SHL SUB AND DUP4 PUSH32 0x2F8788117E7EFF1D82E926EC794901D17C78024A50270940304540A733656F0D PUSH1 0x40 MLOAD PUSH1 0x40 MLOAD DUP1 SWAP2 SUB SWAP1 LOG4 POP POP JUMP JUMPDEST PUSH1 0x0 PUSH2 0x22D7 DUP4 DUP4 PUSH2 0x256E JUMP JUMPDEST PUSH2 0x230D JUMPI POP DUP2 SLOAD PUSH1 0x1 DUP2 DUP2 ADD DUP5 SSTORE PUSH1 0x0 DUP5 DUP2 MSTORE PUSH1 0x20 DUP1 DUP3 KECCAK256 SWAP1 SWAP4 ADD DUP5 SWAP1 SSTORE DUP5 SLOAD DUP5 DUP3 MSTORE DUP3 DUP7 ADD SWAP1 SWAP4 MSTORE PUSH1 0x40 SWAP1 KECCAK256 SWAP2 SWAP1 SWAP2 SSTORE PUSH2 0x1576 JUMP JUMPDEST POP PUSH1 0x0 PUSH2 0x1576 JUMP JUMPDEST PUSH1 0x1 PUSH1 0x1 PUSH1 0xE0 SHL SUB NOT DUP2 AND PUSH4 0x1FFC9A7 PUSH1 0xE0 SHL EQ SWAP2 SWAP1 POP JUMP JUMPDEST PUSH2 0x2338 DUP3 DUP3 PUSH2 0x15D4 JUMP JUMPDEST PUSH2 0x2153 JUMPI PUSH2 0x2350 DUP2 PUSH1 0x1 PUSH1 0x1 PUSH1 0xA0 SHL SUB AND PUSH1 0x14 PUSH2 0x2586 JUMP JUMPDEST PUSH2 0x235B DUP4 PUSH1 0x20 PUSH2 0x2586 JUMP JUMPDEST PUSH1 0x40 MLOAD PUSH1 0x20 ADD PUSH2 0x236C SWAP3 SWAP2 SWAP1 PUSH2 0x2920 JUMP JUMPDEST PUSH1 0x40 DUP1 MLOAD PUSH1 0x1F NOT DUP2 DUP5 SUB ADD DUP2 MSTORE SWAP1 DUP3 SWAP1 MSTORE PUSH3 0x461BCD PUSH1 0xE5 SHL DUP3 MSTORE PUSH2 0x2FB SWAP2 PUSH1 0x4 ADD PUSH2 0x2A7D JUMP JUMPDEST PUSH2 0x239C DUP3 DUP3 PUSH2 0x15D4 JUMP JUMPDEST ISZERO PUSH2 0x2153 JUMPI PUSH1 0x0 DUP3 DUP2 MSTORE PUSH1 0x20 DUP2 DUP2 MSTORE PUSH1 0x40 DUP1 DUP4 KECCAK256 PUSH1 0x1 PUSH1 0x1 PUSH1 0xA0 SHL SUB DUP6 AND DUP5 MSTORE SWAP1 SWAP2 MSTORE SWAP1 KECCAK256 DUP1 SLOAD PUSH1 0xFF NOT AND SWAP1 SSTORE PUSH2 0x23D1 PUSH2 0x2191 JUMP JUMPDEST PUSH1 0x1 PUSH1 0x1 PUSH1 0xA0 SHL SUB AND DUP2 PUSH1 0x1 PUSH1 0x1 PUSH1 0xA0 SHL SUB AND DUP4 PUSH32 0xF6391F5C32D9C69D2A47EA670B442974B53935D1EDC7FD64EB21E047A839171B PUSH1 0x40 MLOAD PUSH1 0x40 MLOAD DUP1 SWAP2 SUB SWAP1 LOG4 POP POP JUMP JUMPDEST PUSH1 0x0 DUP2 DUP2 MSTORE PUSH1 0x1 DUP4 ADD PUSH1 0x20 MSTORE PUSH1 0x40 DUP2 KECCAK256 SLOAD DUP1 ISZERO PUSH2 0x2528 JUMPI PUSH1 0x0 PUSH2 0x2439 PUSH1 0x1 DUP4 PUSH2 0x2FBA JUMP JUMPDEST DUP6 SLOAD SWAP1 SWAP2 POP PUSH1 0x0 SWAP1 PUSH2 0x244D SWAP1 PUSH1 0x1 SWAP1 PUSH2 0x2FBA JUMP JUMPDEST SWAP1 POP DUP2 DUP2 EQ PUSH2 0x24CE JUMPI PUSH1 0x0 DUP7 PUSH1 0x0 ADD DUP3 DUP2 SLOAD DUP2 LT PUSH2 0x247B JUMPI PUSH4 0x4E487B71 PUSH1 0xE0 SHL PUSH1 0x0 MSTORE PUSH1 0x32 PUSH1 0x4 MSTORE PUSH1 0x24 PUSH1 0x0 REVERT JUMPDEST SWAP1 PUSH1 0x0 MSTORE PUSH1 0x20 PUSH1 0x0 KECCAK256 ADD SLOAD SWAP1 POP DUP1 DUP8 PUSH1 0x0 ADD DUP5 DUP2 SLOAD DUP2 LT PUSH2 0x24AC JUMPI PUSH4 0x4E487B71 PUSH1 0xE0 SHL PUSH1 0x0 MSTORE PUSH1 0x32 PUSH1 0x4 MSTORE PUSH1 0x24 PUSH1 0x0 REVERT JUMPDEST PUSH1 0x0 SWAP2 DUP3 MSTORE PUSH1 0x20 DUP1 DUP4 KECCAK256 SWAP1 SWAP2 ADD SWAP3 SWAP1 SWAP3 SSTORE SWAP2 DUP3 MSTORE PUSH1 0x1 DUP9 ADD SWAP1 MSTORE PUSH1 0x40 SWAP1 KECCAK256 DUP4 SWAP1 SSTORE JUMPDEST DUP6 SLOAD DUP7 SWAP1 DUP1 PUSH2 0x24ED JUMPI PUSH4 0x4E487B71 PUSH1 0xE0 SHL PUSH1 0x0 MSTORE PUSH1 0x31 PUSH1 0x4 MSTORE PUSH1 0x24 PUSH1 0x0 REVERT JUMPDEST PUSH1 0x1 SWAP1 SUB DUP2 DUP2 SWAP1 PUSH1 0x0 MSTORE PUSH1 0x20 PUSH1 0x0 KECCAK256 ADD PUSH1 0x0 SWAP1 SSTORE SWAP1 SSTORE DUP6 PUSH1 0x1 ADD PUSH1 0x0 DUP7 DUP2 MSTORE PUSH1 0x20 ADD SWAP1 DUP2 MSTORE PUSH1 0x20 ADD PUSH1 0x0 KECCAK256 PUSH1 0x0 SWAP1 SSTORE PUSH1 0x1 SWAP4 POP POP POP POP PUSH2 0x1576 JUMP JUMPDEST PUSH1 0x0 SWAP2 POP POP PUSH2 0x1576 JUMP JUMPDEST PUSH1 0x0 DUP3 PUSH1 0x0 ADD DUP3 DUP2 SLOAD DUP2 LT PUSH2 0x2557 JUMPI PUSH4 0x4E487B71 PUSH1 0xE0 SHL PUSH1 0x0 MSTORE PUSH1 0x32 PUSH1 0x4 MSTORE PUSH1 0x24 PUSH1 0x0 REVERT JUMPDEST SWAP1 PUSH1 0x0 MSTORE PUSH1 0x20 PUSH1 0x0 KECCAK256 ADD SLOAD SWAP1 POP SWAP3 SWAP2 POP POP JUMP JUMPDEST SLOAD SWAP1 JUMP JUMPDEST PUSH1 0x0 SWAP1 DUP2 MSTORE PUSH1 0x1 SWAP2 SWAP1 SWAP2 ADD PUSH1 0x20 MSTORE PUSH1 0x40 SWAP1 KECCAK256 SLOAD ISZERO ISZERO SWAP1 JUMP JUMPDEST PUSH1 0x60 PUSH1 0x0 PUSH2 0x2595 DUP4 PUSH1 0x2 PUSH2 0x2F9B JUMP JUMPDEST PUSH2 0x25A0 SWAP1 PUSH1 0x2 PUSH2 0x2F63 JUMP JUMPDEST PUSH8 0xFFFFFFFFFFFFFFFF DUP2 GT ISZERO PUSH2 0x25C6 JUMPI PUSH4 0x4E487B71 PUSH1 0xE0 SHL PUSH1 0x0 MSTORE PUSH1 0x41 PUSH1 0x4 MSTORE PUSH1 0x24 PUSH1 0x0 REVERT JUMPDEST PUSH1 0x40 MLOAD SWAP1 DUP1 DUP3 MSTORE DUP1 PUSH1 0x1F ADD PUSH1 0x1F NOT AND PUSH1 0x20 ADD DUP3 ADD PUSH1 0x40 MSTORE DUP1 ISZERO PUSH2 0x25F0 JUMPI PUSH1 0x20 DUP3 ADD DUP2 DUP1 CALLDATASIZE DUP4 CALLDATACOPY ADD SWAP1 POP JUMPDEST POP SWAP1 POP PUSH1 0x3 PUSH1 0xFC SHL DUP2 PUSH1 0x0 DUP2 MLOAD DUP2 LT PUSH2 0x2619 JUMPI PUSH4 0x4E487B71 PUSH1 0xE0 SHL PUSH1 0x0 MSTORE PUSH1 0x32 PUSH1 0x4 MSTORE PUSH1 0x24 PUSH1 0x0 REVERT JUMPDEST PUSH1 0x20 ADD ADD SWAP1 PUSH1 0x1 PUSH1 0x1 PUSH1 0xF8 SHL SUB NOT AND SWAP1 DUP2 PUSH1 0x0 BYTE SWAP1 MSTORE8 POP PUSH1 0xF PUSH1 0xFB SHL DUP2 PUSH1 0x1 DUP2 MLOAD DUP2 LT PUSH2 0x2656 JUMPI PUSH4 0x4E487B71 PUSH1 0xE0 SHL PUSH1 0x0 MSTORE PUSH1 0x32 PUSH1 0x4 MSTORE PUSH1 0x24 PUSH1 0x0 REVERT JUMPDEST PUSH1 0x20 ADD ADD SWAP1 PUSH1 0x1 PUSH1 0x1 PUSH1 0xF8 SHL SUB NOT AND SWAP1 DUP2 PUSH1 0x0 BYTE SWAP1 MSTORE8 POP PUSH1 0x0 PUSH2 0x267A DUP5 PUSH1 0x2 PUSH2 0x2F9B JUMP JUMPDEST PUSH2 0x2685 SWAP1 PUSH1 0x1 PUSH2 0x2F63 JUMP JUMPDEST SWAP1 POP JUMPDEST PUSH1 0x1 DUP2 GT ISZERO PUSH2 0x2719 JUMPI PUSH16 0x181899199A1A9B1B9C1CB0B131B232B3 PUSH1 0x81 SHL DUP6 PUSH1 0xF AND PUSH1 0x10 DUP2 LT PUSH2 0x26C7 JUMPI PUSH4 0x4E487B71 PUSH1 0xE0 SHL PUSH1 0x0 MSTORE PUSH1 0x32 PUSH1 0x4 MSTORE PUSH1 0x24 PUSH1 0x0 REVERT JUMPDEST BYTE PUSH1 0xF8 SHL DUP3 DUP3 DUP2 MLOAD DUP2 LT PUSH2 0x26EB JUMPI PUSH4 0x4E487B71 PUSH1 0xE0 SHL PUSH1 0x0 MSTORE PUSH1 0x32 PUSH1 0x4 MSTORE PUSH1 0x24 PUSH1 0x0 REVERT JUMPDEST PUSH1 0x20 ADD ADD SWAP1 PUSH1 0x1 PUSH1 0x1 PUSH1 0xF8 SHL SUB NOT AND SWAP1 DUP2 PUSH1 0x0 BYTE SWAP1 MSTORE8 POP PUSH1 0x4 SWAP5 SWAP1 SWAP5 SHR SWAP4 PUSH2 0x2712 DUP2 PUSH2 0x3001 JUMP JUMPDEST SWAP1 POP PUSH2 0x2688 JUMP JUMPDEST POP DUP4 ISZERO PUSH2 0x15CD JUMPI PUSH1 0x40 MLOAD PUSH3 0x461BCD PUSH1 0xE5 SHL DUP2 MSTORE PUSH1 0x4 ADD PUSH2 0x2FB SWAP1 PUSH2 0x2AB0 JUMP JUMPDEST PUSH1 0x40 MLOAD DUP1 PUSH1 0xA0 ADD PUSH1 0x40 MSTORE DUP1 PUSH1 0x0 PUSH1 0x1 PUSH1 0x1 PUSH1 0xA0 SHL SUB AND DUP2 MSTORE PUSH1 0x20 ADD PUSH1 0x0 DUP2 MSTORE PUSH1 0x20 ADD PUSH1 0x0 DUP2 MSTORE PUSH1 0x20 ADD PUSH1 0x0 DUP2 MSTORE PUSH1 0x20 ADD PUSH1 0x0 DUP2 MSTORE POP SWAP1 JUMP JUMPDEST PUSH1 0x0 PUSH1 0x20 DUP3 DUP5 SUB SLT ISZERO PUSH2 0x2781 JUMPI DUP1 DUP2 REVERT JUMPDEST DUP2 CALLDATALOAD PUSH2 0x15CD DUP2 PUSH2 0x3049 JUMP JUMPDEST PUSH1 0x0 PUSH1 0x20 DUP3 DUP5 SUB SLT ISZERO PUSH2 0x279D JUMPI DUP1 DUP2 REVERT JUMPDEST DUP2 MLOAD PUSH2 0x15CD DUP2 PUSH2 0x3049 JUMP JUMPDEST PUSH1 0x0 DUP1 PUSH1 0x0 DUP1 PUSH1 0x0 DUP1 PUSH1 0x0 PUSH1 0xE0 DUP9 DUP11 SUB SLT ISZERO PUSH2 0x27C2 JUMPI DUP3 DUP4 REVERT JUMPDEST DUP8 CALLDATALOAD PUSH2 0x27CD DUP2 PUSH2 0x3049 JUMP JUMPDEST SWAP7 POP PUSH1 0x20 DUP9 ADD CALLDATALOAD PUSH2 0x27DD DUP2 PUSH2 0x3049 JUMP JUMPDEST SWAP6 POP PUSH1 0x40 DUP9 ADD CALLDATALOAD SWAP5 POP PUSH1 0x60 DUP9 ADD CALLDATALOAD PUSH2 0x27F4 DUP2 PUSH2 0x3049 JUMP JUMPDEST SWAP4 POP PUSH1 0x80 DUP9 ADD CALLDATALOAD SWAP3 POP PUSH1 0xA0 DUP9 ADD CALLDATALOAD PUSH2 0x280B DUP2 PUSH2 0x3049 JUMP JUMPDEST DUP1 SWAP3 POP POP PUSH1 0xC0 DUP9 ADD CALLDATALOAD SWAP1 POP SWAP3 SWAP6 SWAP9 SWAP2 SWAP5 SWAP8 POP SWAP3 SWAP6 POP JUMP JUMPDEST PUSH1 0x0 PUSH1 0x20 DUP3 DUP5 SUB SLT ISZERO PUSH2 0x2833 JUMPI DUP1 DUP2 REVERT JUMPDEST DUP2 MLOAD DUP1 ISZERO ISZERO DUP2 EQ PUSH2 0x15CD JUMPI DUP2 DUP3 REVERT JUMPDEST PUSH1 0x0 PUSH1 0x20 DUP3 DUP5 SUB SLT ISZERO PUSH2 0x2853 JUMPI DUP1 DUP2 REVERT JUMPDEST POP CALLDATALOAD SWAP2 SWAP1 POP JUMP JUMPDEST PUSH1 0x0 DUP1 PUSH1 0x40 DUP4 DUP6 SUB SLT ISZERO PUSH2 0x286C JUMPI DUP2 DUP3 REVERT JUMPDEST DUP3 CALLDATALOAD SWAP2 POP PUSH1 0x20 DUP4 ADD CALLDATALOAD PUSH2 0x287E DUP2 PUSH2 0x3049 JUMP JUMPDEST DUP1 SWAP2 POP POP SWAP3 POP SWAP3 SWAP1 POP JUMP JUMPDEST PUSH1 0x0 DUP1 PUSH1 0x40 DUP4 DUP6 SUB SLT ISZERO PUSH2 0x289B JUMPI DUP2 DUP3 REVERT JUMPDEST POP POP DUP1 CALLDATALOAD SWAP3 PUSH1 0x20 SWAP1 SWAP2 ADD CALLDATALOAD SWAP2 POP JUMP JUMPDEST PUSH1 0x0 PUSH1 0x20 DUP3 DUP5 SUB SLT ISZERO PUSH2 0x28BB JUMPI DUP1 DUP2 REVERT JUMPDEST DUP2 CALLDATALOAD PUSH1 0x1 PUSH1 0x1 PUSH1 0xE0 SHL SUB NOT DUP2 AND DUP2 EQ PUSH2 0x15CD JUMPI DUP2 DUP3 REVERT JUMPDEST PUSH1 0x0 PUSH1 0x20 DUP3 DUP5 SUB SLT ISZERO PUSH2 0x28E3 JUMPI DUP1 DUP2 REVERT JUMPDEST POP MLOAD SWAP2 SWAP1 POP JUMP JUMPDEST DUP1 MLOAD PUSH1 0x1 PUSH1 0x1 PUSH1 0xA0 SHL SUB AND DUP3 MSTORE PUSH1 0x20 DUP1 DUP3 ADD MLOAD SWAP1 DUP4 ADD MSTORE PUSH1 0x40 DUP1 DUP3 ADD MLOAD SWAP1 DUP4 ADD MSTORE PUSH1 0x60 DUP1 DUP3 ADD MLOAD SWAP1 DUP4 ADD MSTORE PUSH1 0x80 SWAP1 DUP2 ADD MLOAD SWAP2 ADD MSTORE JUMP JUMPDEST PUSH1 0x0 PUSH32 0x416363657373436F6E74726F6C3A206163636F756E7420000000000000000000 DUP3 MSTORE DUP4 MLOAD PUSH2 0x2958 DUP2 PUSH1 0x17 DUP6 ADD PUSH1 0x20 DUP9 ADD PUSH2 0x2FD1 JUMP JUMPDEST PUSH17 0x1034B99036B4B9B9B4B733903937B6329 PUSH1 0x7D SHL PUSH1 0x17 SWAP2 DUP5 ADD SWAP2 DUP3 ADD MSTORE DUP4 MLOAD PUSH2 0x2989 DUP2 PUSH1 0x28 DUP5 ADD PUSH1 0x20 DUP9 ADD PUSH2 0x2FD1 JUMP JUMPDEST ADD PUSH1 0x28 ADD SWAP5 SWAP4 POP POP POP POP JUMP JUMPDEST PUSH1 0x1 PUSH1 0x1 PUSH1 0xA0 SHL SUB SWAP2 SWAP1 SWAP2 AND DUP2 MSTORE PUSH1 0x20 ADD SWAP1 JUMP JUMPDEST PUSH1 0x1 PUSH1 0x1 PUSH1 0xA0 SHL SUB SWAP3 DUP4 AND DUP2 MSTORE SWAP2 AND PUSH1 0x20 DUP3 ADD MSTORE PUSH1 0x40 ADD SWAP1 JUMP JUMPDEST PUSH1 0x1 PUSH1 0x1 PUSH1 0xA0 SHL SUB SWAP3 SWAP1 SWAP3 AND DUP3 MSTORE PUSH1 0x20 DUP3 ADD MSTORE PUSH1 0x40 ADD SWAP1 JUMP JUMPDEST PUSH1 0x20 DUP1 DUP3 MSTORE DUP3 MLOAD DUP3 DUP3 ADD DUP2 SWAP1 MSTORE PUSH1 0x0 SWAP2 SWAP1 DUP5 DUP3 ADD SWAP1 PUSH1 0x40 DUP6 ADD SWAP1 DUP5 JUMPDEST DUP2 DUP2 LT ISZERO PUSH2 0x2A1E JUMPI PUSH2 0x2A0B DUP4 DUP6 MLOAD PUSH2 0x28EA JUMP JUMPDEST SWAP3 DUP5 ADD SWAP3 PUSH1 0xA0 SWAP3 SWAP1 SWAP3 ADD SWAP2 PUSH1 0x1 ADD PUSH2 0x29F8 JUMP JUMPDEST POP SWAP1 SWAP7 SWAP6 POP POP POP POP POP POP JUMP JUMPDEST SWAP1 ISZERO ISZERO DUP2 MSTORE PUSH1 0x20 ADD SWAP1 JUMP JUMPDEST SWAP1 DUP2 MSTORE PUSH1 0x20 ADD SWAP1 JUMP JUMPDEST SWAP2 DUP3 MSTORE PUSH1 0x1 PUSH1 0x1 PUSH1 0xA0 SHL SUB AND PUSH1 0x20 DUP3 ADD MSTORE PUSH1 0x40 ADD SWAP1 JUMP JUMPDEST PUSH1 0x20 DUP2 ADD PUSH1 0x6 DUP4 LT PUSH2 0x2A77 JUMPI PUSH4 0x4E487B71 PUSH1 0xE0 SHL PUSH1 0x0 MSTORE PUSH1 0x21 PUSH1 0x4 MSTORE PUSH1 0x24 PUSH1 0x0 REVERT JUMPDEST SWAP2 SWAP1 MSTORE SWAP1 JUMP JUMPDEST PUSH1 0x0 PUSH1 0x20 DUP3 MSTORE DUP3 MLOAD DUP1 PUSH1 0x20 DUP5 ADD MSTORE PUSH2 0x2A9C DUP2 PUSH1 0x40 DUP6 ADD PUSH1 0x20 DUP8 ADD PUSH2 0x2FD1 JUMP JUMPDEST PUSH1 0x1F ADD PUSH1 0x1F NOT AND SWAP2 SWAP1 SWAP2 ADD PUSH1 0x40 ADD SWAP3 SWAP2 POP POP JUMP JUMPDEST PUSH1 0x20 DUP1 DUP3 MSTORE DUP2 DUP2 ADD MSTORE PUSH32 0x537472696E67733A20686578206C656E67746820696E73756666696369656E74 PUSH1 0x40 DUP3 ADD MSTORE PUSH1 0x60 ADD SWAP1 JUMP JUMPDEST PUSH1 0x20 DUP1 DUP3 MSTORE PUSH1 0x25 SWAP1 DUP3 ADD MSTORE PUSH32 0x56657374696E67436F6E74726163743A205061697220616C7265616479206578 PUSH1 0x40 DUP3 ADD MSTORE PUSH5 0x6973747321 PUSH1 0xD8 SHL PUSH1 0x60 DUP3 ADD MSTORE PUSH1 0x80 ADD SWAP1 JUMP JUMPDEST PUSH1 0x20 DUP1 DUP3 MSTORE PUSH1 0x2C SWAP1 DUP3 ADD MSTORE PUSH32 0x56657374696E67436F6E74726163743A204C697175696469747920697320616C PUSH1 0x40 DUP3 ADD MSTORE PUSH12 0x726561647920616464656421 PUSH1 0xA0 SHL PUSH1 0x60 DUP3 ADD MSTORE PUSH1 0x80 ADD SWAP1 JUMP JUMPDEST PUSH1 0x20 DUP1 DUP3 MSTORE PUSH1 0x1C SWAP1 DUP3 ADD MSTORE PUSH32 0x56657374696E67436F6E74726163743A2021524F4C455F41444D494E00000000 PUSH1 0x40 DUP3 ADD MSTORE PUSH1 0x60 ADD SWAP1 JUMP JUMPDEST PUSH1 0x20 DUP1 DUP3 MSTORE PUSH1 0x22 SWAP1 DUP3 ADD MSTORE PUSH32 0x56657374696E67436F6E74726163743A2021636C61696D61626C655F616D6F75 PUSH1 0x40 DUP3 ADD MSTORE PUSH2 0x1B9D PUSH1 0xF2 SHL PUSH1 0x60 DUP3 ADD MSTORE PUSH1 0x80 ADD SWAP1 JUMP JUMPDEST PUSH1 0x20 DUP1 DUP3 MSTORE PUSH1 0x1D SWAP1 DUP3 ADD MSTORE PUSH32 0x56657374696E67436F6E74726163743A20216578697374735F61646472000000 PUSH1 0x40 DUP3 ADD MSTORE PUSH1 0x60 ADD SWAP1 JUMP JUMPDEST PUSH1 0x20 DUP1 DUP3 MSTORE PUSH1 0x48 SWAP1 DUP3 ADD MSTORE PUSH32 0x56657374696E67436F6E74726163743A20526571756972657320496E76657374 PUSH1 0x40 DUP3 ADD MSTORE PUSH32 0x6F72206D617820616D6F756E74206C657373207468616E206D6178496E766573 PUSH1 0x60 DUP3 ADD MSTORE PUSH8 0x74416D6F756E7421 PUSH1 0xC0 SHL PUSH1 0x80 DUP3 ADD MSTORE PUSH1 0xA0 ADD SWAP1 JUMP JUMPDEST PUSH1 0x20 DUP1 DUP3 MSTORE PUSH1 0x36 SWAP1 DUP3 ADD MSTORE PUSH32 0x56657374696E67436F6E74726163743A20546F6B656E73206861766520616C72 PUSH1 0x40 DUP3 ADD MSTORE PUSH22 0x65616479206265656E20646973747269627574656421 PUSH1 0x50 SHL PUSH1 0x60 DUP3 ADD MSTORE PUSH1 0x80 ADD SWAP1 JUMP JUMPDEST PUSH1 0x20 DUP1 DUP3 MSTORE PUSH1 0x38 SWAP1 DUP3 ADD MSTORE PUSH32 0x56657374696E67436F6E74726163743A2045746865722062616C616E6365206D PUSH1 0x40 DUP3 ADD MSTORE PUSH32 0x757374206265206C6172676572207468616E207A65726F210000000000000000 PUSH1 0x60 DUP3 ADD MSTORE PUSH1 0x80 ADD SWAP1 JUMP JUMPDEST PUSH1 0x20 DUP1 DUP3 MSTORE PUSH1 0x2F SWAP1 DUP3 ADD MSTORE PUSH32 0x56657374696E67436F6E74726163743A20546F6B656E73206172656E27742064 PUSH1 0x40 DUP3 ADD MSTORE PUSH15 0x697374726962757465642079657421 PUSH1 0x88 SHL PUSH1 0x60 DUP3 ADD MSTORE PUSH1 0x80 ADD SWAP1 JUMP JUMPDEST PUSH1 0x20 DUP1 DUP3 MSTORE PUSH1 0x18 SWAP1 DUP3 ADD MSTORE PUSH32 0x56657374696E67436F6E74726163743A2021616D6F756E740000000000000000 PUSH1 0x40 DUP3 ADD MSTORE PUSH1 0x60 ADD SWAP1 JUMP JUMPDEST PUSH1 0x20 DUP1 DUP3 MSTORE PUSH1 0x29 SWAP1 DUP3 ADD MSTORE PUSH32 0x56657374696E67436F6E74726163743A205061697220697320616C7265616479 PUSH1 0x40 DUP3 ADD MSTORE PUSH9 0x206372656174656421 PUSH1 0xB8 SHL PUSH1 0x60 DUP3 ADD MSTORE PUSH1 0x80 ADD SWAP1 JUMP JUMPDEST PUSH1 0x20 DUP1 DUP3 MSTORE PUSH1 0x17 SWAP1 DUP3 ADD MSTORE PUSH32 0x56657374696E67436F6E74726163743A20216578697374000000000000000000 PUSH1 0x40 DUP3 ADD MSTORE PUSH1 0x60 ADD SWAP1 JUMP JUMPDEST PUSH1 0x20 DUP1 DUP3 MSTORE PUSH1 0x36 SWAP1 DUP3 ADD MSTORE PUSH32 0x56657374696E67436F6E74726163743A20507265706172696E6720616464206C PUSH1 0x40 DUP3 ADD MSTORE PUSH22 0x697175696469747920697320636F6D706C6574656421 PUSH1 0x50 SHL PUSH1 0x60 DUP3 ADD MSTORE PUSH1 0x80 ADD SWAP1 JUMP JUMPDEST PUSH1 0x20 DUP1 DUP3 MSTORE PUSH1 0x35 SWAP1 DUP3 ADD MSTORE PUSH32 0x56657374696E67436F6E74726163743A20416363657074696E67207061796D65 PUSH1 0x40 DUP3 ADD MSTORE PUSH21 0x6E747320686173206265656E2073746F7070656421 PUSH1 0x58 SHL PUSH1 0x60 DUP3 ADD MSTORE PUSH1 0x80 ADD SWAP1 JUMP JUMPDEST PUSH1 0x20 DUP1 DUP3 MSTORE PUSH1 0x2F SWAP1 DUP3 ADD MSTORE PUSH32 0x416363657373436F6E74726F6C3A2063616E206F6E6C792072656E6F756E6365 PUSH1 0x40 DUP3 ADD MSTORE PUSH15 0x103937B632B9903337B91039B2B633 PUSH1 0x89 SHL PUSH1 0x60 DUP3 ADD MSTORE PUSH1 0x80 ADD SWAP1 JUMP JUMPDEST PUSH1 0xA0 DUP2 ADD PUSH2 0x1576 DUP3 DUP5 PUSH2 0x28EA JUMP JUMPDEST SWAP2 DUP3 MSTORE PUSH1 0x20 DUP3 ADD MSTORE PUSH1 0x40 ADD SWAP1 JUMP JUMPDEST PUSH1 0x0 DUP3 NOT DUP3 GT ISZERO PUSH2 0x2F76 JUMPI PUSH2 0x2F76 PUSH2 0x3033 JUMP JUMPDEST POP ADD SWAP1 JUMP JUMPDEST PUSH1 0x0 DUP3 PUSH2 0x2F96 JUMPI PUSH4 0x4E487B71 PUSH1 0xE0 SHL DUP2 MSTORE PUSH1 0x12 PUSH1 0x4 MSTORE PUSH1 0x24 DUP2 REVERT JUMPDEST POP DIV SWAP1 JUMP JUMPDEST PUSH1 0x0 DUP2 PUSH1 0x0 NOT DIV DUP4 GT DUP3 ISZERO ISZERO AND ISZERO PUSH2 0x2FB5 JUMPI PUSH2 0x2FB5 PUSH2 0x3033 JUMP JUMPDEST POP MUL SWAP1 JUMP JUMPDEST PUSH1 0x0 DUP3 DUP3 LT ISZERO PUSH2 0x2FCC JUMPI PUSH2 0x2FCC PUSH2 0x3033 JUMP JUMPDEST POP SUB SWAP1 JUMP JUMPDEST PUSH1 0x0 JUMPDEST DUP4 DUP2 LT ISZERO PUSH2 0x2FEC JUMPI DUP2 DUP2 ADD MLOAD DUP4 DUP3 ADD MSTORE PUSH1 0x20 ADD PUSH2 0x2FD4 JUMP JUMPDEST DUP4 DUP2 GT ISZERO PUSH2 0x2FFB JUMPI PUSH1 0x0 DUP5 DUP5 ADD MSTORE JUMPDEST POP POP POP POP JUMP JUMPDEST PUSH1 0x0 DUP2 PUSH2 0x3010 JUMPI PUSH2 0x3010 PUSH2 0x3033 JUMP JUMPDEST POP PUSH1 0x0 NOT ADD SWAP1 JUMP JUMPDEST PUSH1 0x0 PUSH1 0x0 NOT DUP3 EQ ISZERO PUSH2 0x302C JUMPI PUSH2 0x302C PUSH2 0x3033 JUMP JUMPDEST POP PUSH1 0x1 ADD SWAP1 JUMP JUMPDEST PUSH4 0x4E487B71 PUSH1 0xE0 SHL PUSH1 0x0 MSTORE PUSH1 0x11 PUSH1 0x4 MSTORE PUSH1 0x24 PUSH1 0x0 REVERT JUMPDEST PUSH1 0x1 PUSH1 0x1 PUSH1 0xA0 SHL SUB DUP2 AND DUP2 EQ PUSH2 0x305E JUMPI PUSH1 0x0 DUP1 REVERT JUMPDEST POP JUMP INVALID LOG2 PUSH5 0x6970667358 0x22 SLT KECCAK256 SUB SIGNEXTEND 0xD7 0xE1 0x5F 0x2F PUSH22 0x293F1BAD2E52228D1D16329E8ED3BBB87B4334EB4E4F 0xBA 0x4D PUSH27 0x64736F6C6343000801003300000000000000000000000000000000 "
		},
		"gasEstimates": {
			"creation": {
				"codeDepositCost": "2487800",
				"executionCost": "infinite",
				"totalCost": "infinite"
			},
			"external": {
				"DEVELOPER_STARTING_LOCK_DELAY()": "360",
				"DEVELOPER_STARTING_LOCK_FOR()": "296",
				"MARKETING_STARTING_LOCK_DELAY()": "295",
				"MARKETING_STARTING_LOCK_FOR()": "339",
				"ROLE_ADMIN()": "383",
				"ROLE_NOTAX()": "274",
				"ROLE_WHITELIST()": "295",
				"TEAM_STARTING_LOCK_DELAY()": "361",
				"TEAM_STARTING_LOCK_FOR()": "340",
				"TOTAL_SUPPLY_CAP()": "296",
				"addLiquidity()": "infinite",
				"burnVestingTokens(uint256)": "infinite",
				"checkIfGoalIsReached()": "22164",
				"claimTeamVestingTokens(uint256)": "infinite",
				"createPair()": "infinite",
				"defiFactoryToken()": "1138",
				"developerAddress()": "1203",
				"developerCap()": "1118",
				"distributeTokens()": "infinite",
				"getClaimableTokenAmount(address)": "infinite",
				"getInvestorByAddr(address)": "6821",
				"getInvestorByPos(uint256)": "5876",
				"getInvestorsCount()": "1138",
				"getLeftTokenAmount(address)": "infinite",
				"getRoleAdmin(bytes32)": "1315",
				"getRoleMember(bytes32,uint256)": "infinite",
				"getRoleMemberCount(bytes32)": "infinite",
				"grantRole(bytes32,address)": "infinite",
				"hasRole(bytes32,address)": "1516",
				"listInvestors(uint256,uint256)": "7494",
				"marketingAddress()": "1181",
				"marketingCap()": "1094",
				"nativeToken()": "1159",
				"percentForTheTeam()": "1141",
				"percentForUniswap()": "1118",
				"prepareAddLiqudity()": "infinite",
				"renounceRole(bytes32,address)": "infinite",
				"revokeRole(bytes32,address)": "infinite",
				"startedLocking()": "1184",
				"state()": "1105",
				"supportsInterface(bytes4)": "infinite",
				"taxVestingTokens(uint256)": "infinite",
				"teamAddress()": "1161",
				"teamCap()": "1139",
				"totalInvested()": "1140",
				"totalSent()": "1074",
				"updateDefiFactoryContract(address)": "22340",
				"updateInvestmentSettings(address,address,uint256,address,uint256,address,uint256)": "infinite",
				"wethAndTokenPairContract()": "1115"
			},
			"internal": {
				"addInvestor(address,uint256)": "infinite"
			}
		},
		"methodIdentifiers": {
			"DEVELOPER_STARTING_LOCK_DELAY()": "fe3d6f72",
			"DEVELOPER_STARTING_LOCK_FOR()": "300653e6",
			"MARKETING_STARTING_LOCK_DELAY()": "c35bea89",
			"MARKETING_STARTING_LOCK_FOR()": "e37530fb",
			"ROLE_ADMIN()": "d391014b",
			"ROLE_NOTAX()": "83294f2e",
			"ROLE_WHITELIST()": "9e01e31c",
			"TEAM_STARTING_LOCK_DELAY()": "719d2685",
			"TEAM_STARTING_LOCK_FOR()": "36bdc55c",
			"TOTAL_SUPPLY_CAP()": "48931352",
			"addLiquidity()": "e8078d94",
			"burnVestingTokens(uint256)": "0c0589c2",
			"checkIfGoalIsReached()": "ba688845",
			"claimTeamVestingTokens(uint256)": "5c129441",
			"createPair()": "9e78fb4f",
			"defiFactoryToken()": "84e72b40",
			"developerAddress()": "caccd7f7",
			"developerCap()": "48bab86e",
			"distributeTokens()": "9ab1b484",
			"getClaimableTokenAmount(address)": "3a6afc25",
			"getInvestorByAddr(address)": "65069863",
			"getInvestorByPos(uint256)": "286777d0",
			"getInvestorsCount()": "ed21187a",
			"getLeftTokenAmount(address)": "b6e4f1a1",
			"getRoleAdmin(bytes32)": "248a9ca3",
			"getRoleMember(bytes32,uint256)": "9010d07c",
			"getRoleMemberCount(bytes32)": "ca15c873",
			"grantRole(bytes32,address)": "2f2ff15d",
			"hasRole(bytes32,address)": "91d14854",
			"listInvestors(uint256,uint256)": "818a36a1",
			"marketingAddress()": "a5ece941",
			"marketingCap()": "e608d3e5",
			"nativeToken()": "e1758bd8",
			"percentForTheTeam()": "1c7b2148",
			"percentForUniswap()": "8acf09f6",
			"prepareAddLiqudity()": "5f6577a8",
			"renounceRole(bytes32,address)": "36568abe",
			"revokeRole(bytes32,address)": "d547741f",
			"startedLocking()": "3def3853",
			"state()": "c19d93fb",
			"supportsInterface(bytes4)": "01ffc9a7",
			"taxVestingTokens(uint256)": "688a5e74",
			"teamAddress()": "1c75f085",
			"teamCap()": "6d81779b",
			"totalInvested()": "5216aeec",
			"totalSent()": "46f99063",
			"updateDefiFactoryContract(address)": "5a5bb3b2",
			"updateInvestmentSettings(address,address,uint256,address,uint256,address,uint256)": "c45cb66c",
			"wethAndTokenPairContract()": "9adae351"
		}
	},
	"abi": [
		{
			"inputs": [],
			"stateMutability": "payable",
			"type": "constructor"
		},
		{
			"anonymous": false,
			"inputs": [
				{
					"indexed": true,
					"internalType": "bytes32",
					"name": "role",
					"type": "bytes32"
				},
				{
					"indexed": true,
					"internalType": "bytes32",
					"name": "previousAdminRole",
					"type": "bytes32"
				},
				{
					"indexed": true,
					"internalType": "bytes32",
					"name": "newAdminRole",
					"type": "bytes32"
				}
			],
			"name": "RoleAdminChanged",
			"type": "event"
		},
		{
			"anonymous": false,
			"inputs": [
				{
					"indexed": true,
					"internalType": "bytes32",
					"name": "role",
					"type": "bytes32"
				},
				{
					"indexed": true,
					"internalType": "address",
					"name": "account",
					"type": "address"
				},
				{
					"indexed": true,
					"internalType": "address",
					"name": "sender",
					"type": "address"
				}
			],
			"name": "RoleGranted",
			"type": "event"
		},
		{
			"anonymous": false,
			"inputs": [
				{
					"indexed": true,
					"internalType": "bytes32",
					"name": "role",
					"type": "bytes32"
				},
				{
					"indexed": true,
					"internalType": "address",
					"name": "account",
					"type": "address"
				},
				{
					"indexed": true,
					"internalType": "address",
					"name": "sender",
					"type": "address"
				}
			],
			"name": "RoleRevoked",
			"type": "event"
		},
		{
			"inputs": [],
			"name": "DEVELOPER_STARTING_LOCK_DELAY",
			"outputs": [
				{
					"internalType": "uint256",
					"name": "",
					"type": "uint256"
				}
			],
			"stateMutability": "view",
			"type": "function"
		},
		{
			"inputs": [],
			"name": "DEVELOPER_STARTING_LOCK_FOR",
			"outputs": [
				{
					"internalType": "uint256",
					"name": "",
					"type": "uint256"
				}
			],
			"stateMutability": "view",
			"type": "function"
		},
		{
			"inputs": [],
			"name": "MARKETING_STARTING_LOCK_DELAY",
			"outputs": [
				{
					"internalType": "uint256",
					"name": "",
					"type": "uint256"
				}
			],
			"stateMutability": "view",
			"type": "function"
		},
		{
			"inputs": [],
			"name": "MARKETING_STARTING_LOCK_FOR",
			"outputs": [
				{
					"internalType": "uint256",
					"name": "",
					"type": "uint256"
				}
			],
			"stateMutability": "view",
			"type": "function"
		},
		{
			"inputs": [],
			"name": "ROLE_ADMIN",
			"outputs": [
				{
					"internalType": "bytes32",
					"name": "",
					"type": "bytes32"
				}
			],
			"stateMutability": "view",
			"type": "function"
		},
		{
			"inputs": [],
			"name": "ROLE_NOTAX",
			"outputs": [
				{
					"internalType": "bytes32",
					"name": "",
					"type": "bytes32"
				}
			],
			"stateMutability": "view",
			"type": "function"
		},
		{
			"inputs": [],
			"name": "ROLE_WHITELIST",
			"outputs": [
				{
					"internalType": "bytes32",
					"name": "",
					"type": "bytes32"
				}
			],
			"stateMutability": "view",
			"type": "function"
		},
		{
			"inputs": [],
			"name": "TEAM_STARTING_LOCK_DELAY",
			"outputs": [
				{
					"internalType": "uint256",
					"name": "",
					"type": "uint256"
				}
			],
			"stateMutability": "view",
			"type": "function"
		},
		{
			"inputs": [],
			"name": "TEAM_STARTING_LOCK_FOR",
			"outputs": [
				{
					"internalType": "uint256",
					"name": "",
					"type": "uint256"
				}
			],
			"stateMutability": "view",
			"type": "function"
		},
		{
			"inputs": [],
			"name": "TOTAL_SUPPLY_CAP",
			"outputs": [
				{
					"internalType": "uint256",
					"name": "",
					"type": "uint256"
				}
			],
			"stateMutability": "view",
			"type": "function"
		},
		{
			"inputs": [],
			"name": "addLiquidity",
			"outputs": [],
			"stateMutability": "nonpayable",
			"type": "function"
		},
		{
			"inputs": [
				{
					"internalType": "uint256",
					"name": "amount",
					"type": "uint256"
				}
			],
			"name": "burnVestingTokens",
			"outputs": [],
			"stateMutability": "nonpayable",
			"type": "function"
		},
		{
			"inputs": [],
			"name": "checkIfGoalIsReached",
			"outputs": [],
			"stateMutability": "nonpayable",
			"type": "function"
		},
		{
			"inputs": [
				{
					"internalType": "uint256",
					"name": "amount",
					"type": "uint256"
				}
			],
			"name": "claimTeamVestingTokens",
			"outputs": [],
			"stateMutability": "nonpayable",
			"type": "function"
		},
		{
			"inputs": [],
			"name": "createPair",
			"outputs": [],
			"stateMutability": "nonpayable",
			"type": "function"
		},
		{
			"inputs": [],
			"name": "defiFactoryToken",
			"outputs": [
				{
					"internalType": "address",
					"name": "",
					"type": "address"
				}
			],
			"stateMutability": "view",
			"type": "function"
		},
		{
			"inputs": [],
			"name": "developerAddress",
			"outputs": [
				{
					"internalType": "address",
					"name": "",
					"type": "address"
				}
			],
			"stateMutability": "view",
			"type": "function"
		},
		{
			"inputs": [],
			"name": "developerCap",
			"outputs": [
				{
					"internalType": "uint256",
					"name": "",
					"type": "uint256"
				}
			],
			"stateMutability": "view",
			"type": "function"
		},
		{
			"inputs": [],
			"name": "distributeTokens",
			"outputs": [],
			"stateMutability": "nonpayable",
			"type": "function"
		},
		{
			"inputs": [
				{
					"internalType": "address",
					"name": "addr",
					"type": "address"
				}
			],
			"name": "getClaimableTokenAmount",
			"outputs": [
				{
					"internalType": "uint256",
					"name": "",
					"type": "uint256"
				}
			],
			"stateMutability": "view",
			"type": "function"
		},
		{
			"inputs": [
				{
					"internalType": "address",
					"name": "addr",
					"type": "address"
				}
			],
			"name": "getInvestorByAddr",
			"outputs": [
				{
					"components": [
						{
							"internalType": "address",
							"name": "addr",
							"type": "address"
						},
						{
							"internalType": "uint256",
							"name": "wethValue",
							"type": "uint256"
						},
						{
							"internalType": "uint256",
							"name": "sentValue",
							"type": "uint256"
						},
						{
							"internalType": "uint256",
							"name": "startDelay",
							"type": "uint256"
						},
						{
							"internalType": "uint256",
							"name": "lockFor",
							"type": "uint256"
						}
					],
					"internalType": "struct TeamVestingContract.Investor",
					"name": "",
					"type": "tuple"
				}
			],
			"stateMutability": "view",
			"type": "function"
		},
		{
			"inputs": [
				{
					"internalType": "uint256",
					"name": "pos",
					"type": "uint256"
				}
			],
			"name": "getInvestorByPos",
			"outputs": [
				{
					"components": [
						{
							"internalType": "address",
							"name": "addr",
							"type": "address"
						},
						{
							"internalType": "uint256",
							"name": "wethValue",
							"type": "uint256"
						},
						{
							"internalType": "uint256",
							"name": "sentValue",
							"type": "uint256"
						},
						{
							"internalType": "uint256",
							"name": "startDelay",
							"type": "uint256"
						},
						{
							"internalType": "uint256",
							"name": "lockFor",
							"type": "uint256"
						}
					],
					"internalType": "struct TeamVestingContract.Investor",
					"name": "",
					"type": "tuple"
				}
			],
			"stateMutability": "view",
			"type": "function"
		},
		{
			"inputs": [],
			"name": "getInvestorsCount",
			"outputs": [
				{
					"internalType": "uint256",
					"name": "",
					"type": "uint256"
				}
			],
			"stateMutability": "view",
			"type": "function"
		},
		{
			"inputs": [
				{
					"internalType": "address",
					"name": "addr",
					"type": "address"
				}
			],
			"name": "getLeftTokenAmount",
			"outputs": [
				{
					"internalType": "uint256",
					"name": "",
					"type": "uint256"
				}
			],
			"stateMutability": "view",
			"type": "function"
		},
		{
			"inputs": [
				{
					"internalType": "bytes32",
					"name": "role",
					"type": "bytes32"
				}
			],
			"name": "getRoleAdmin",
			"outputs": [
				{
					"internalType": "bytes32",
					"name": "",
					"type": "bytes32"
				}
			],
			"stateMutability": "view",
			"type": "function"
		},
		{
			"inputs": [
				{
					"internalType": "bytes32",
					"name": "role",
					"type": "bytes32"
				},
				{
					"internalType": "uint256",
					"name": "index",
					"type": "uint256"
				}
			],
			"name": "getRoleMember",
			"outputs": [
				{
					"internalType": "address",
					"name": "",
					"type": "address"
				}
			],
			"stateMutability": "view",
			"type": "function"
		},
		{
			"inputs": [
				{
					"internalType": "bytes32",
					"name": "role",
					"type": "bytes32"
				}
			],
			"name": "getRoleMemberCount",
			"outputs": [
				{
					"internalType": "uint256",
					"name": "",
					"type": "uint256"
				}
			],
			"stateMutability": "view",
			"type": "function"
		},
		{
			"inputs": [
				{
					"internalType": "bytes32",
					"name": "role",
					"type": "bytes32"
				},
				{
					"internalType": "address",
					"name": "account",
					"type": "address"
				}
			],
			"name": "grantRole",
			"outputs": [],
			"stateMutability": "nonpayable",
			"type": "function"
		},
		{
			"inputs": [
				{
					"internalType": "bytes32",
					"name": "role",
					"type": "bytes32"
				},
				{
					"internalType": "address",
					"name": "account",
					"type": "address"
				}
			],
			"name": "hasRole",
			"outputs": [
				{
					"internalType": "bool",
					"name": "",
					"type": "bool"
				}
			],
			"stateMutability": "view",
			"type": "function"
		},
		{
			"inputs": [
				{
					"internalType": "uint256",
					"name": "offset",
					"type": "uint256"
				},
				{
					"internalType": "uint256",
					"name": "limit",
					"type": "uint256"
				}
			],
			"name": "listInvestors",
			"outputs": [
				{
					"components": [
						{
							"internalType": "address",
							"name": "addr",
							"type": "address"
						},
						{
							"internalType": "uint256",
							"name": "wethValue",
							"type": "uint256"
						},
						{
							"internalType": "uint256",
							"name": "sentValue",
							"type": "uint256"
						},
						{
							"internalType": "uint256",
							"name": "startDelay",
							"type": "uint256"
						},
						{
							"internalType": "uint256",
							"name": "lockFor",
							"type": "uint256"
						}
					],
					"internalType": "struct TeamVestingContract.Investor[]",
					"name": "",
					"type": "tuple[]"
				}
			],
			"stateMutability": "view",
			"type": "function"
		},
		{
			"inputs": [],
			"name": "marketingAddress",
			"outputs": [
				{
					"internalType": "address",
					"name": "",
					"type": "address"
				}
			],
			"stateMutability": "view",
			"type": "function"
		},
		{
			"inputs": [],
			"name": "marketingCap",
			"outputs": [
				{
					"internalType": "uint256",
					"name": "",
					"type": "uint256"
				}
			],
			"stateMutability": "view",
			"type": "function"
		},
		{
			"inputs": [],
			"name": "nativeToken",
			"outputs": [
				{
					"internalType": "address",
					"name": "",
					"type": "address"
				}
			],
			"stateMutability": "view",
			"type": "function"
		},
		{
			"inputs": [],
			"name": "percentForTheTeam",
			"outputs": [
				{
					"internalType": "uint256",
					"name": "",
					"type": "uint256"
				}
			],
			"stateMutability": "view",
			"type": "function"
		},
		{
			"inputs": [],
			"name": "percentForUniswap",
			"outputs": [
				{
					"internalType": "uint256",
					"name": "",
					"type": "uint256"
				}
			],
			"stateMutability": "view",
			"type": "function"
		},
		{
			"inputs": [],
			"name": "prepareAddLiqudity",
			"outputs": [],
			"stateMutability": "nonpayable",
			"type": "function"
		},
		{
			"inputs": [
				{
					"internalType": "bytes32",
					"name": "role",
					"type": "bytes32"
				},
				{
					"internalType": "address",
					"name": "account",
					"type": "address"
				}
			],
			"name": "renounceRole",
			"outputs": [],
			"stateMutability": "nonpayable",
			"type": "function"
		},
		{
			"inputs": [
				{
					"internalType": "bytes32",
					"name": "role",
					"type": "bytes32"
				},
				{
					"internalType": "address",
					"name": "account",
					"type": "address"
				}
			],
			"name": "revokeRole",
			"outputs": [],
			"stateMutability": "nonpayable",
			"type": "function"
		},
		{
			"inputs": [],
			"name": "startedLocking",
			"outputs": [
				{
					"internalType": "uint256",
					"name": "",
					"type": "uint256"
				}
			],
			"stateMutability": "view",
			"type": "function"
		},
		{
			"inputs": [],
			"name": "state",
			"outputs": [
				{
					"internalType": "enum TeamVestingContract.States",
					"name": "",
					"type": "uint8"
				}
			],
			"stateMutability": "view",
			"type": "function"
		},
		{
			"inputs": [
				{
					"internalType": "bytes4",
					"name": "interfaceId",
					"type": "bytes4"
				}
			],
			"name": "supportsInterface",
			"outputs": [
				{
					"internalType": "bool",
					"name": "",
					"type": "bool"
				}
			],
			"stateMutability": "view",
			"type": "function"
		},
		{
			"inputs": [
				{
					"internalType": "uint256",
					"name": "amount",
					"type": "uint256"
				}
			],
			"name": "taxVestingTokens",
			"outputs": [],
			"stateMutability": "nonpayable",
			"type": "function"
		},
		{
			"inputs": [],
			"name": "teamAddress",
			"outputs": [
				{
					"internalType": "address",
					"name": "",
					"type": "address"
				}
			],
			"stateMutability": "view",
			"type": "function"
		},
		{
			"inputs": [],
			"name": "teamCap",
			"outputs": [
				{
					"internalType": "uint256",
					"name": "",
					"type": "uint256"
				}
			],
			"stateMutability": "view",
			"type": "function"
		},
		{
			"inputs": [],
			"name": "totalInvested",
			"outputs": [
				{
					"internalType": "uint256",
					"name": "",
					"type": "uint256"
				}
			],
			"stateMutability": "view",
			"type": "function"
		},
		{
			"inputs": [],
			"name": "totalSent",
			"outputs": [
				{
					"internalType": "uint256",
					"name": "",
					"type": "uint256"
				}
			],
			"stateMutability": "view",
			"type": "function"
		},
		{
			"inputs": [
				{
					"internalType": "address",
					"name": "newContract",
					"type": "address"
				}
			],
			"name": "updateDefiFactoryContract",
			"outputs": [],
			"stateMutability": "nonpayable",
			"type": "function"
		},
		{
			"inputs": [
				{
					"internalType": "address",
					"name": "_nativeToken",
					"type": "address"
				},
				{
					"internalType": "address",
					"name": "_developerAddress",
					"type": "address"
				},
				{
					"internalType": "uint256",
					"name": "_developerCap",
					"type": "uint256"
				},
				{
					"internalType": "address",
					"name": "_teamAddress",
					"type": "address"
				},
				{
					"internalType": "uint256",
					"name": "_teamCap",
					"type": "uint256"
				},
				{
					"internalType": "address",
					"name": "_marketingAddress",
					"type": "address"
				},
				{
					"internalType": "uint256",
					"name": "_marketingCap",
					"type": "uint256"
				}
			],
			"name": "updateInvestmentSettings",
			"outputs": [],
			"stateMutability": "nonpayable",
			"type": "function"
		},
		{
			"inputs": [],
			"name": "wethAndTokenPairContract",
			"outputs": [
				{
					"internalType": "address",
					"name": "",
					"type": "address"
				}
			],
			"stateMutability": "view",
			"type": "function"
		},
		{
			"stateMutability": "payable",
			"type": "receive"
		}
	]
}