{
	"data": {
		"bytecode": {
			"linkReferences": {},
			"object": "60e0604052600160a0818152604160f81b60c09081526080918252909160009161002b91839190610040565b50505034801561003a57600080fd5b50610114565b82805461004c906100d9565b90600052602060002090601f01602090048101928261006e57600085556100b4565b82601f1061008757805160ff19168380011785556100b4565b828001600101855582156100b4579182015b828111156100b4578251825591602001919060010190610099565b506100c09291506100c4565b5090565b5b808211156100c057600081556001016100c5565b600181811c908216806100ed57607f821691505b6020821081141561010e57634e487b7160e01b600052602260045260246000fd5b50919050565b610168806101236000396000f3fe608060405234801561001057600080fd5b50600436106100365760003560e01c8063bcd19dd81461003b578063d157df1114610045575b600080fd5b61004361004d565b005b610043610071565b60405162461bcd60e51b81526100689060009060040161008a565b60405180910390fd5b604051631e9acf1760e31b815260040160405180910390fd5b600060208083526000845481600182811c9150808316806100ac57607f831692505b8583108114156100ca57634e487b7160e01b85526022600452602485fd5b8786018381526020018180156100e757600181146100f857610123565b60ff19861682528782019650610123565b60008b81526020902060005b8681101561011d57815484820152908501908901610104565b83019750505b5094999850505050505050505056fea26469706673582212201a9e70ae93c0c932047da8704db8930b1fe9f231b4e99be57ef705589b7bac9264736f6c634300080b0033",
			"opcodes": "PUSH1 0xE0 PUSH1 0x40 MSTORE PUSH1 0x1 PUSH1 0xA0 DUP2 DUP2 MSTORE PUSH1 0x41 PUSH1 0xF8 SHL PUSH1 0xC0 SWAP1 DUP2 MSTORE PUSH1 0x80 SWAP2 DUP3 MSTORE SWAP1 SWAP2 PUSH1 0x0 SWAP2 PUSH2 0x2B SWAP2 DUP4 SWAP2 SWAP1 PUSH2 0x40 JUMP JUMPDEST POP POP POP CALLVALUE DUP1 ISZERO PUSH2 0x3A JUMPI PUSH1 0x0 DUP1 REVERT JUMPDEST POP PUSH2 0x114 JUMP JUMPDEST DUP3 DUP1 SLOAD PUSH2 0x4C SWAP1 PUSH2 0xD9 JUMP JUMPDEST SWAP1 PUSH1 0x0 MSTORE PUSH1 0x20 PUSH1 0x0 KECCAK256 SWAP1 PUSH1 0x1F ADD PUSH1 0x20 SWAP1 DIV DUP2 ADD SWAP3 DUP3 PUSH2 0x6E JUMPI PUSH1 0x0 DUP6 SSTORE PUSH2 0xB4 JUMP JUMPDEST DUP3 PUSH1 0x1F LT PUSH2 0x87 JUMPI DUP1 MLOAD PUSH1 0xFF NOT AND DUP4 DUP1 ADD OR DUP6 SSTORE PUSH2 0xB4 JUMP JUMPDEST DUP3 DUP1 ADD PUSH1 0x1 ADD DUP6 SSTORE DUP3 ISZERO PUSH2 0xB4 JUMPI SWAP2 DUP3 ADD JUMPDEST DUP3 DUP2 GT ISZERO PUSH2 0xB4 JUMPI DUP3 MLOAD DUP3 SSTORE SWAP2 PUSH1 0x20 ADD SWAP2 SWAP1 PUSH1 0x1 ADD SWAP1 PUSH2 0x99 JUMP JUMPDEST POP PUSH2 0xC0 SWAP3 SWAP2 POP PUSH2 0xC4 JUMP JUMPDEST POP SWAP1 JUMP JUMPDEST JUMPDEST DUP1 DUP3 GT ISZERO PUSH2 0xC0 JUMPI PUSH1 0x0 DUP2 SSTORE PUSH1 0x1 ADD PUSH2 0xC5 JUMP JUMPDEST PUSH1 0x1 DUP2 DUP2 SHR SWAP1 DUP3 AND DUP1 PUSH2 0xED JUMPI PUSH1 0x7F DUP3 AND SWAP2 POP JUMPDEST PUSH1 0x20 DUP3 LT DUP2 EQ ISZERO PUSH2 0x10E JUMPI PUSH4 0x4E487B71 PUSH1 0xE0 SHL PUSH1 0x0 MSTORE PUSH1 0x22 PUSH1 0x4 MSTORE PUSH1 0x24 PUSH1 0x0 REVERT JUMPDEST POP SWAP2 SWAP1 POP JUMP JUMPDEST PUSH2 0x168 DUP1 PUSH2 0x123 PUSH1 0x0 CODECOPY PUSH1 0x0 RETURN INVALID PUSH1 0x80 PUSH1 0x40 MSTORE CALLVALUE DUP1 ISZERO PUSH2 0x10 JUMPI PUSH1 0x0 DUP1 REVERT JUMPDEST POP PUSH1 0x4 CALLDATASIZE LT PUSH2 0x36 JUMPI PUSH1 0x0 CALLDATALOAD PUSH1 0xE0 SHR DUP1 PUSH4 0xBCD19DD8 EQ PUSH2 0x3B JUMPI DUP1 PUSH4 0xD157DF11 EQ PUSH2 0x45 JUMPI JUMPDEST PUSH1 0x0 DUP1 REVERT JUMPDEST PUSH2 0x43 PUSH2 0x4D JUMP JUMPDEST STOP JUMPDEST PUSH2 0x43 PUSH2 0x71 JUMP JUMPDEST PUSH1 0x40 MLOAD PUSH3 0x461BCD PUSH1 0xE5 SHL DUP2 MSTORE PUSH2 0x68 SWAP1 PUSH1 0x0 SWAP1 PUSH1 0x4 ADD PUSH2 0x8A JUMP JUMPDEST PUSH1 0x40 MLOAD DUP1 SWAP2 SUB SWAP1 REVERT JUMPDEST PUSH1 0x40 MLOAD PUSH4 0x1E9ACF17 PUSH1 0xE3 SHL DUP2 MSTORE PUSH1 0x4 ADD PUSH1 0x40 MLOAD DUP1 SWAP2 SUB SWAP1 REVERT JUMPDEST PUSH1 0x0 PUSH1 0x20 DUP1 DUP4 MSTORE PUSH1 0x0 DUP5 SLOAD DUP2 PUSH1 0x1 DUP3 DUP2 SHR SWAP2 POP DUP1 DUP4 AND DUP1 PUSH2 0xAC JUMPI PUSH1 0x7F DUP4 AND SWAP3 POP JUMPDEST DUP6 DUP4 LT DUP2 EQ ISZERO PUSH2 0xCA JUMPI PUSH4 0x4E487B71 PUSH1 0xE0 SHL DUP6 MSTORE PUSH1 0x22 PUSH1 0x4 MSTORE PUSH1 0x24 DUP6 REVERT JUMPDEST DUP8 DUP7 ADD DUP4 DUP2 MSTORE PUSH1 0x20 ADD DUP2 DUP1 ISZERO PUSH2 0xE7 JUMPI PUSH1 0x1 DUP2 EQ PUSH2 0xF8 JUMPI PUSH2 0x123 JUMP JUMPDEST PUSH1 0xFF NOT DUP7 AND DUP3 MSTORE DUP8 DUP3 ADD SWAP7 POP PUSH2 0x123 JUMP JUMPDEST PUSH1 0x0 DUP12 DUP2 MSTORE PUSH1 0x20 SWAP1 KECCAK256 PUSH1 0x0 JUMPDEST DUP7 DUP2 LT ISZERO PUSH2 0x11D JUMPI DUP2 SLOAD DUP5 DUP3 ADD MSTORE SWAP1 DUP6 ADD SWAP1 DUP10 ADD PUSH2 0x104 JUMP JUMPDEST DUP4 ADD SWAP8 POP POP JUMPDEST POP SWAP5 SWAP10 SWAP9 POP POP POP POP POP POP POP POP POP JUMP INVALID LOG2 PUSH5 0x6970667358 0x22 SLT KECCAK256 BYTE SWAP15 PUSH17 0xAE93C0C932047DA8704DB8930B1FE9F231 0xB4 0xE9 SWAP12 0xE5 PUSH31 0xF705589B7BAC9264736F6C634300080B003300000000000000000000000000 "
		},
		"gasEstimates": {
			"creation": {
				"codeDepositCost": "72000",
				"executionCost": "infinite",
				"totalCost": "infinite"
			},
			"external": {
				"revertError()": "186",
				"revertStruct()": "infinite"
			}
		},
		"methodIdentifiers": {
			"revertError()": "d157df11",
			"revertStruct()": "bcd19dd8"
		}
	},
	"abi": [
		{
			"inputs": [],
			"name": "InsufficientBalance",
			"type": "error"
		},
		{
			"inputs": [],
			"name": "revertError",
			"outputs": [],
			"stateMutability": "nonpayable",
			"type": "function"
		},
		{
			"inputs": [],
			"name": "revertStruct",
			"outputs": [],
			"stateMutability": "nonpayable",
			"type": "function"
		}
	]
}